{
  "address": "0x291d0bd5CCc3C560FDcEb54f12aDcdfC22484707",
  "abi": [
    {
      "anonymous": false,
      "inputs": [
        {
          "indexed": false,
          "internalType": "uint8",
          "name": "version",
          "type": "uint8"
        }
      ],
      "name": "Initialized",
      "type": "event"
    },
    {
      "anonymous": false,
      "inputs": [
        {
          "indexed": false,
          "internalType": "address",
          "name": "oldOwner",
          "type": "address"
        },
        {
          "indexed": false,
          "internalType": "address",
          "name": "newOwner",
          "type": "address"
        }
      ],
      "name": "NewOwner",
      "type": "event"
    },
    {
      "anonymous": false,
      "inputs": [
        {
          "indexed": false,
          "internalType": "address",
          "name": "oldPendingOwner",
          "type": "address"
        },
        {
          "indexed": false,
          "internalType": "address",
          "name": "newPendingOwner",
          "type": "address"
        }
      ],
      "name": "NewPendingOwner",
      "type": "event"
    },
    {
      "anonymous": false,
      "inputs": [
        {
          "indexed": true,
          "internalType": "address",
          "name": "previousOwner",
          "type": "address"
        },
        {
          "indexed": true,
          "internalType": "address",
          "name": "newOwner",
          "type": "address"
        }
      ],
      "name": "OwnershipTransferred",
      "type": "event"
    },
    {
      "inputs": [],
      "name": "_acceptOwner",
      "outputs": [],
      "stateMutability": "nonpayable",
      "type": "function"
    },
    {
      "inputs": [
        {
          "internalType": "address[]",
          "name": "targets",
          "type": "address[]"
        },
        {
          "internalType": "bytes[]",
          "name": "data",
          "type": "bytes[]"
        }
      ],
      "name": "_callPool",
      "outputs": [],
      "stateMutability": "nonpayable",
      "type": "function"
    },
    {
      "inputs": [
        {
          "internalType": "address[]",
          "name": "targets",
          "type": "address[]"
        },
        {
          "internalType": "bytes",
          "name": "data",
          "type": "bytes"
        }
      ],
      "name": "_callPool",
      "outputs": [],
      "stateMutability": "nonpayable",
      "type": "function"
    },
    {
      "inputs": [
        {
          "internalType": "address payable",
          "name": "pool",
          "type": "address"
        },
        {
          "internalType": "contract DiamondExtension",
          "name": "extensionToAdd",
          "type": "address"
        },
        {
          "internalType": "contract DiamondExtension",
          "name": "extensionToReplace",
          "type": "address"
        }
      ],
      "name": "_registerComptrollerExtension",
      "outputs": [],
      "stateMutability": "nonpayable",
      "type": "function"
    },
    {
      "inputs": [
        {
          "internalType": "address",
          "name": "cErc20Delegate",
          "type": "address"
        },
        {
          "internalType": "contract DiamondExtension[]",
          "name": "extensions",
          "type": "address[]"
        }
      ],
      "name": "_setCErc20DelegateExtensions",
      "outputs": [],
      "stateMutability": "nonpayable",
      "type": "function"
    },
    {
      "inputs": [
        {
          "internalType": "address",
          "name": "comptroller",
          "type": "address"
        },
        {
          "internalType": "contract DiamondExtension[]",
          "name": "extensions",
          "type": "address[]"
        }
      ],
      "name": "_setComptrollerExtensions",
      "outputs": [],
      "stateMutability": "nonpayable",
      "type": "function"
    },
    {
      "inputs": [
        {
          "internalType": "address",
          "name": "comptroller",
          "type": "address"
        },
        {
          "internalType": "int256",
          "name": "rate",
          "type": "int256"
        }
      ],
      "name": "_setCustomInterestFeeRate",
      "outputs": [],
      "stateMutability": "nonpayable",
      "type": "function"
    },
    {
      "inputs": [
        {
          "internalType": "uint256",
          "name": "_defaultInterestFeeRate",
          "type": "uint256"
        }
      ],
      "name": "_setDefaultInterestFeeRate",
      "outputs": [],
      "stateMutability": "nonpayable",
      "type": "function"
    },
    {
      "inputs": [
        {
          "internalType": "uint8",
          "name": "delegateType",
          "type": "uint8"
        },
        {
          "internalType": "address",
          "name": "newImplementation",
          "type": "address"
        },
        {
          "internalType": "bytes",
          "name": "becomeImplementationData",
          "type": "bytes"
        }
      ],
      "name": "_setLatestCErc20Delegate",
      "outputs": [],
      "stateMutability": "nonpayable",
      "type": "function"
    },
    {
      "inputs": [
        {
          "internalType": "address",
          "name": "oldImplementation",
          "type": "address"
        },
        {
          "internalType": "address",
          "name": "newImplementation",
          "type": "address"
        }
      ],
      "name": "_setLatestComptrollerImplementation",
      "outputs": [],
      "stateMutability": "nonpayable",
      "type": "function"
    },
    {
      "inputs": [
        {
          "internalType": "address",
          "name": "oldImplementation",
          "type": "address"
        },
        {
          "internalType": "address",
          "name": "newImplementation",
          "type": "address"
        }
      ],
      "name": "_setLatestPluginImplementation",
      "outputs": [],
      "stateMutability": "nonpayable",
      "type": "function"
    },
    {
      "inputs": [
        {
          "internalType": "address",
          "name": "newPendingOwner",
          "type": "address"
        }
      ],
      "name": "_setPendingOwner",
      "outputs": [],
      "stateMutability": "nonpayable",
      "type": "function"
    },
    {
      "inputs": [
        {
          "internalType": "uint256",
          "name": "_minBorrowEth",
          "type": "uint256"
        },
        {
          "internalType": "uint256",
          "name": "_maxUtilizationRate",
          "type": "uint256"
        }
      ],
      "name": "_setPoolLimits",
      "outputs": [],
      "stateMutability": "nonpayable",
      "type": "function"
    },
    {
      "inputs": [
        {
          "internalType": "address",
          "name": "cDelegator",
          "type": "address"
        }
      ],
      "name": "_upgradePluginToLatestImplementation",
      "outputs": [
        {
          "internalType": "bool",
          "name": "",
          "type": "bool"
        }
      ],
      "stateMutability": "nonpayable",
      "type": "function"
    },
    {
      "inputs": [
        {
          "internalType": "address",
          "name": "erc20Contract",
          "type": "address"
        }
      ],
      "name": "_withdrawAssets",
      "outputs": [],
      "stateMutability": "nonpayable",
      "type": "function"
    },
    {
      "inputs": [],
      "name": "authoritiesRegistry",
      "outputs": [
        {
          "internalType": "contract AuthoritiesRegistry",
          "name": "",
          "type": "address"
        }
      ],
      "stateMutability": "view",
      "type": "function"
    },
    {
      "inputs": [
        {
          "internalType": "contract IonicComptroller",
          "name": "pool",
          "type": "address"
        }
      ],
      "name": "autoUpgradePool",
      "outputs": [],
      "stateMutability": "nonpayable",
      "type": "function"
    },
    {
      "inputs": [
        {
          "internalType": "address",
          "name": "",
          "type": "address"
        },
        {
          "internalType": "uint256",
          "name": "",
          "type": "uint256"
        }
      ],
      "name": "cErc20DelegateExtensions",
      "outputs": [
        {
          "internalType": "contract DiamondExtension",
          "name": "",
          "type": "address"
        }
      ],
      "stateMutability": "view",
      "type": "function"
    },
    {
      "inputs": [
        {
          "internalType": "address",
          "name": "pool",
          "type": "address"
        },
        {
          "internalType": "address",
          "name": "user",
          "type": "address"
        },
        {
          "internalType": "address",
          "name": "target",
          "type": "address"
        },
        {
          "internalType": "bytes4",
          "name": "functionSig",
          "type": "bytes4"
        }
      ],
      "name": "canCall",
      "outputs": [
        {
          "internalType": "bool",
          "name": "",
          "type": "bool"
        }
      ],
      "stateMutability": "view",
      "type": "function"
    },
    {
      "inputs": [
        {
          "internalType": "address",
          "name": "",
          "type": "address"
        },
        {
          "internalType": "uint256",
          "name": "",
          "type": "uint256"
        }
      ],
      "name": "comptrollerExtensions",
      "outputs": [
        {
          "internalType": "contract DiamondExtension",
          "name": "",
          "type": "address"
        }
      ],
      "stateMutability": "view",
      "type": "function"
    },
    {
      "inputs": [
        {
          "internalType": "address",
          "name": "",
          "type": "address"
        }
      ],
      "name": "customInterestFeeRates",
      "outputs": [
        {
          "internalType": "int256",
          "name": "",
          "type": "int256"
        }
      ],
      "stateMutability": "view",
      "type": "function"
    },
    {
      "inputs": [],
      "name": "defaultInterestFeeRate",
      "outputs": [
        {
          "internalType": "uint256",
          "name": "",
          "type": "uint256"
        }
      ],
      "stateMutability": "view",
      "type": "function"
    },
    {
      "inputs": [
        {
          "internalType": "uint8",
          "name": "delegateType",
          "type": "uint8"
        },
        {
          "internalType": "bytes",
          "name": "constructorData",
          "type": "bytes"
        },
        {
          "internalType": "bytes",
          "name": "becomeImplData",
          "type": "bytes"
        }
      ],
      "name": "deployCErc20",
      "outputs": [
        {
          "internalType": "address",
          "name": "",
          "type": "address"
        }
      ],
      "stateMutability": "nonpayable",
      "type": "function"
    },
    {
      "inputs": [
        {
          "internalType": "address",
          "name": "cErc20Delegate",
          "type": "address"
        }
      ],
      "name": "getCErc20DelegateExtensions",
      "outputs": [
        {
          "internalType": "contract DiamondExtension[]",
          "name": "",
          "type": "address[]"
        }
      ],
      "stateMutability": "view",
      "type": "function"
    },
    {
      "inputs": [
        {
          "internalType": "address",
          "name": "comptroller",
          "type": "address"
        }
      ],
      "name": "getComptrollerExtensions",
      "outputs": [
        {
          "internalType": "contract DiamondExtension[]",
          "name": "",
          "type": "address[]"
        }
      ],
      "stateMutability": "view",
      "type": "function"
    },
    {
      "inputs": [
        {
          "internalType": "contract ICErc20",
          "name": "_ctoken",
          "type": "address"
        }
      ],
      "name": "getMinBorrowEth",
      "outputs": [
        {
          "internalType": "uint256",
          "name": "",
          "type": "uint256"
        }
      ],
      "stateMutability": "view",
      "type": "function"
    },
    {
      "inputs": [
        {
          "internalType": "uint256",
          "name": "_defaultInterestFeeRate",
          "type": "uint256"
        }
      ],
      "name": "initialize",
      "outputs": [],
      "stateMutability": "nonpayable",
      "type": "function"
    },
    {
      "inputs": [],
      "name": "interestFeeRate",
      "outputs": [
        {
          "internalType": "uint256",
          "name": "",
          "type": "uint256"
        }
      ],
      "stateMutability": "view",
      "type": "function"
    },
    {
      "inputs": [
        {
          "internalType": "uint8",
          "name": "delegateType",
          "type": "uint8"
        }
      ],
      "name": "latestCErc20Delegate",
      "outputs": [
        {
          "internalType": "address",
          "name": "",
          "type": "address"
        },
        {
          "internalType": "bytes",
          "name": "",
          "type": "bytes"
        }
      ],
      "stateMutability": "view",
      "type": "function"
    },
    {
      "inputs": [
        {
          "internalType": "address",
          "name": "oldImplementation",
          "type": "address"
        }
      ],
      "name": "latestComptrollerImplementation",
      "outputs": [
        {
          "internalType": "address",
          "name": "",
          "type": "address"
        }
      ],
      "stateMutability": "view",
      "type": "function"
    },
    {
      "inputs": [
        {
          "internalType": "address",
          "name": "oldImplementation",
          "type": "address"
        }
      ],
      "name": "latestPluginImplementation",
      "outputs": [
        {
          "internalType": "address",
          "name": "",
          "type": "address"
        }
      ],
      "stateMutability": "view",
      "type": "function"
    },
    {
      "inputs": [],
      "name": "marketsCounter",
      "outputs": [
        {
          "internalType": "uint256",
          "name": "",
          "type": "uint256"
        }
      ],
      "stateMutability": "view",
      "type": "function"
    },
    {
      "inputs": [],
      "name": "maxUtilizationRate",
      "outputs": [
        {
          "internalType": "uint256",
          "name": "",
          "type": "uint256"
        }
      ],
      "stateMutability": "view",
      "type": "function"
    },
    {
      "inputs": [],
      "name": "minBorrowEth",
      "outputs": [
        {
          "internalType": "uint256",
          "name": "",
          "type": "uint256"
        }
      ],
      "stateMutability": "view",
      "type": "function"
    },
    {
      "inputs": [],
      "name": "owner",
      "outputs": [
        {
          "internalType": "address",
          "name": "",
          "type": "address"
        }
      ],
      "stateMutability": "view",
      "type": "function"
    },
    {
      "inputs": [],
      "name": "pendingOwner",
      "outputs": [
        {
          "internalType": "address",
          "name": "",
          "type": "address"
        }
      ],
      "stateMutability": "view",
      "type": "function"
    },
    {
      "inputs": [
        {
          "internalType": "contract AuthoritiesRegistry",
          "name": "_ar",
          "type": "address"
        }
      ],
      "name": "reinitialize",
      "outputs": [],
      "stateMutability": "nonpayable",
      "type": "function"
    },
    {
      "inputs": [],
      "name": "renounceOwnership",
      "outputs": [],
      "stateMutability": "nonpayable",
      "type": "function"
    },
    {
      "inputs": [
        {
          "internalType": "address",
          "name": "newOwner",
          "type": "address"
        }
      ],
      "name": "transferOwnership",
      "outputs": [],
      "stateMutability": "nonpayable",
      "type": "function"
    },
    {
      "stateMutability": "payable",
      "type": "receive"
    }
  ],
  "transactionHash": "0x6ff4d8cf53cc76bebcfa3cea451527efc35ba1b5fa098e96fb0fc85e84a76b7a",
  "args": [],
  "numDeployments": 1,
  "bytecode": {
    "object": "0x608060405234801561001057600080fd5b506153cd806100206000396000f3fe608060405260043610620002635760003560e01c8063a71d085d1162000147578063e35a480111620000b9578063fa7cc72d1162000078578063fa7cc72d1462000778578063fc4d33f9146200079d578063fc773d3314620007b5578063fdb25fb114620007da578063fe4b84df14620007f257600080fd5b8063e35a480114620006bf578063e95600be14620006e4578063eab8a3881462000709578063f2fde38b146200072e578063f7e7d1fd146200075357600080fd5b8063cbc505f81162000106578063cbc505f81462000623578063dd86fea11462000648578063df595cb81462000660578063dfcb48bd1462000685578063e30c3978146200069d57600080fd5b8063a71d085d146200055b578063aa84161c1462000573578063b01b86fd14620005a8578063bbcdd6d314620005cd578063c5232b4714620005f257600080fd5b8063642843a511620001e157806384651d7311620001a057806384651d7314620004b757806388457be114620004cf5780638aac2f0c14620004f45780638da5cb5b1462000516578063930d2438146200053657600080fd5b8063642843a514620003fa5780636e96dfd7146200041f578063715018a614620004445780637a1133d6146200045c57806381218ea9146200049257600080fd5b80632203abb5116200022e5780632203abb514620003285780632acbff3914620003665780633465b6e1146200038b5780633ddd836d14620003b057806351f02d6a14620003d557600080fd5b806306bc461114620002705780630b2a2394146200029757806311a0e21714620002cf5780631259821c146200030357600080fd5b366200026b57005b600080fd5b3480156200027d57600080fd5b50620002956200028f366004620028c9565b62000817565b005b348015620002a457600080fd5b50620002bc620002b6366004620028f8565b62000871565b6040519081526020015b60405180910390f35b348015620002dc57600080fd5b50620002f4620002ee366004620028f8565b62000b83565b604051620002c6919062002918565b3480156200031057600080fd5b50620002956200032236600462002967565b62000bfb565b3480156200033557600080fd5b506200034d62000347366004620028c9565b62000c33565b6040516001600160a01b039091168152602001620002c6565b3480156200037357600080fd5b506200029562000385366004620029f4565b62000c6c565b3480156200039857600080fd5b5062000295620003aa366004620028f8565b62000db4565b348015620003bd57600080fd5b5062000295620003cf36600462002a67565b62000ff1565b348015620003e257600080fd5b506200034d620003f436600462002b0e565b62001065565b3480156200040757600080fd5b50620002956200041936600462002b9a565b620014bd565b3480156200042c57600080fd5b50620002956200043e366004620028f8565b620014d2565b3480156200045157600080fd5b50620002956200153e565b3480156200046957600080fd5b50620004816200047b366004620028f8565b62001584565b6040519015158152602001620002c6565b3480156200049f57600080fd5b506200034d620004b1366004620028f8565b620016f9565b348015620004c457600080fd5b50620002bc60705481565b348015620004dc57600080fd5b5062000295620004ee36600462002bbd565b62001744565b3480156200050157600080fd5b50606c546200034d906001600160a01b031681565b3480156200052357600080fd5b506033546001600160a01b03166200034d565b3480156200054357600080fd5b50620002956200055536600462002967565b620017ea565b3480156200056857600080fd5b50620002bc606d5481565b3480156200058057600080fd5b50620005986200059236600462002c1e565b62001822565b604051620002c692919062002c9b565b348015620005b557600080fd5b5062000295620005c736600462002cc1565b62001926565b348015620005da57600080fd5b506200034d620005ec366004620028f8565b620019f3565b348015620005ff57600080fd5b50620002bc62000611366004620028f8565b60666020526000908152604090205481565b3480156200063057600080fd5b50620002f462000642366004620028f8565b62001a3b565b3480156200065557600080fd5b50620002bc62001ab1565b3480156200066d57600080fd5b50620004816200067f36600462002d28565b62001bb2565b3480156200069257600080fd5b50620002bc606f5481565b348015620006aa57600080fd5b506065546200034d906001600160a01b031681565b348015620006cc57600080fd5b5062000295620006de36600462002d99565b62001c4f565b348015620006f157600080fd5b50620002956200070336600462002db3565b62001c89565b3480156200071657600080fd5b50620002956200072836600462002db3565b62001cbe565b3480156200073b57600080fd5b50620002956200074d366004620028f8565b62001ced565b3480156200076057600080fd5b506200029562000772366004620028f8565b62001d60565b3480156200078557600080fd5b506200029562000797366004620028f8565b62001e46565b348015620007aa57600080fd5b506200029562001fac565b348015620007c257600080fd5b506200034d620007d4366004620028c9565b620020c6565b348015620007e757600080fd5b50620002bc606e5481565b348015620007ff57600080fd5b50620002956200081136600462002d99565b620020e3565b6200082162002232565b670de0b6b3a7640000811315620008555760405162461bcd60e51b81526004016200084c9062002e0e565b60405180910390fd5b6001600160a01b03909116600090815260666020526040902055565b6000806001600160a01b03831663c37f68e2336040516001600160e01b031960e084901b1681526001600160a01b039091166004820152602401608060405180830381865afa158015620008c9573d6000803e3d6000fd5b505050506040513d601f19601f82011682018060405250810190620008ef919062002e59565b50925050508062000904575050606e54919050565b6000836001600160a01b0316635fe3b5676040518163ffffffff1660e01b8152600401602060405180830381865afa15801562000945573d6000803e3d6000fd5b505050506040513d601f19601f820116820180604052508101906200096b919062002e90565b90506000816001600160a01b0316637dc0d1d06040518163ffffffff1660e01b8152600401602060405180830381865afa158015620009ae573d6000803e3d6000fd5b505050506040513d601f19601f82011682018060405250810190620009d4919062002e90565b90506000816001600160a01b031663aea91078876001600160a01b0316636f307dc36040518163ffffffff1660e01b8152600401602060405180830381865afa15801562000a26573d6000803e3d6000fd5b505050506040513d601f19601f8201168201806040525081019062000a4c919062002e90565b6040516001600160e01b031960e084901b1681526001600160a01b039091166004820152602401602060405180830381865afa15801562000a91573d6000803e3d6000fd5b505050506040513d601f19601f8201168201806040525081019062000ab7919062002eb0565b90506000866001600160a01b031663313ce5676040518163ffffffff1660e01b8152600401602060405180830381865afa15801562000afa573d6000803e3d6000fd5b505050506040513d601f19601f8201168201806040525081019062000b20919062002eca565b60ff169050600062000b3482600a62002ffd565b62000b4087856200300b565b62000b4c91906200302d565b9050606e5481111562000b6757506000979650505050505050565b80606e5462000b77919062003050565b98975050505050505050565b6001600160a01b0381166000908152606b602090815260409182902080548351818402810184019094528084526060939283018282801562000bef57602002820191906000526020600020905b81546001600160a01b0316815260019091019060200180831162000bd0575b50505050509050919050565b62000c0562002232565b6001600160a01b03918216600090815260696020526040902080546001600160a01b03191691909216179055565b606b602052816000526040600020818154811062000c5057600080fd5b6000918252602090912001546001600160a01b03169150829050565b62000c7662002232565b821580159062000c8557508281145b62000ceb5760405162461bcd60e51b815260206004820152602f60248201527f4172726179206c656e67746873206d75737420626520657175616c20616e642060448201526e33b932b0ba32b9103a3430b710181760891b60648201526084016200084c565b60005b8381101562000dad5762000d9783838381811062000d105762000d106200306a565b905060200281019062000d24919062003080565b8080601f01602080910402602001604051908101604052809392919081815260200183838082843760009201919091525089925088915085905081811062000d705762000d706200306a565b905060200201602081019062000d879190620028f8565b6001600160a01b03169062002290565b508062000da481620030ca565b91505062000cee565b5050505050565b6001600160a01b03811662000ef157478062000e1d5760405162461bcd60e51b815260206004820152602160248201527f4e6f2062616c616e636520617661696c61626c6520746f2077697468647261776044820152601760f91b60648201526084016200084c565b600062000e326033546001600160a01b031690565b6001600160a01b03168260405160006040518083038185875af1925050503d806000811462000e7e576040519150601f19603f3d011682016040523d82523d6000602084013e62000e83565b606091505b505090508062000eec5760405162461bcd60e51b815260206004820152602d60248201527f4661696c656420746f207472616e73666572204554482062616c616e6365207460448201526c379036b9b39739b2b73232b91760991b60648201526084016200084c565b505050565b6040516370a0823160e01b815230600482015281906000906001600160a01b038316906370a0823190602401602060405180830381865afa15801562000f3b573d6000803e3d6000fd5b505050506040513d601f19601f8201168201806040525081019062000f61919062002eb0565b90506000811162000fc55760405162461bcd60e51b815260206004820152602760248201527f4e6f20746f6b656e2062616c616e636520617661696c61626c6520746f2077696044820152663a34323930bb9760c91b60648201526084016200084c565b62000eec62000fdc6033546001600160a01b031690565b6001600160a01b0384169083620022dd565b50565b62000ffb62002232565b6040516389cd985560e01b81526001600160a01b03838116600483015282811660248301528416906389cd985590604401600060405180830381600087803b1580156200104757600080fd5b505af11580156200105c573d6000803e3d6000fd5b50505050505050565b6000808062001078604082888a620030e8565b81019062001087919062002967565b90925090506001600160a01b0381163314620010e65760405162461bcd60e51b815260206004820152601a60248201527f436f6d7074726f6c6c6572206973206e6f742073656e6465722e00000000000060448201526064016200084c565b60003383606d60008154620010fb90620030ca565b91829055506040516bffffffffffffffffffffffff19606094851b811660208301529290931b909116603483015260488201526068016040516020818303038152906040528051906020012090506000604051806020016200115d90620027a9565b601f1982820381018352601f9091011660408190526200118591908b908b9060200162003114565b60405160208183030381529060405290506000620011a66000848462002331565b60ff8c166000908152606860209081526040808320815180830190925280546001600160a01b03168252600181018054959650939491939092840191620011ed906200313e565b80601f01602080910402602001604051908101604052809291908181526020018280546200121b906200313e565b80156200126c5780601f1062001240576101008083540402835291602001916200126c565b820191906000526020600020905b8154815290600101906020018083116200124e57829003601f168201915b50505091909252505081516040516389cd985560e01b81526001600160a01b038083166004830152600060248301529394509092851691506389cd985590604401600060405180830381600087803b158015620012c857600080fd5b505af1158015620012dd573d6000803e3d6000fd5b505050506001600160a01b0381166000908152606b60209081526040808320805482518185028101850190935280835291929091908301828280156200134d57602002820191906000526020600020905b81546001600160a01b031681526001909101906020018083116200132e575b5050505050905060005b81518110156200144557826001600160a01b03168282815181106200138057620013806200306a565b60200260200101516001600160a01b031614156200139e5762001430565b846001600160a01b03166389cd9855838381518110620013c257620013c26200306a565b60209081029190910101516040516001600160e01b031960e084901b1681526001600160a01b03909116600482015260006024820152604401600060405180830381600087803b1580156200141657600080fd5b505af11580156200142b573d6000803e3d6000fd5b505050505b806200143c81620030ca565b91505062001357565b50604051630adccee560e31b81526001600160a01b038516906356e677289062001476908e908e906004016200317b565b600060405180830381600087803b1580156200149157600080fd5b505af1158015620014a6573d6000803e3d6000fd5b50959a505050505050505050505095945050505050565b620014c762002232565b606e91909155606f55565b620014dc62002232565b606580546001600160a01b038381166001600160a01b031983168117909355604080519190921680825260208201939093527fb3d55174552271a4f1aaf36b72f50381e892171636b3fb5447fe00e995e7a37b91015b60405180910390a15050565b6200154862002232565b60405162461bcd60e51b815260206004820152601060248201526f6e6f74207573656420616e796d6f726560801b60448201526064016200084c565b60006200159062002232565b60008290506000816001600160a01b031663ef01df4f6040518163ffffffff1660e01b8152600401602060405180830381865afa158015620015d6573d6000803e3d6000fd5b505050506040513d601f19601f82011682018060405250810190620015fc919062002e90565b6001600160a01b038181166000908152606960205260409081902054905163033e92d960e31b815290821660048201529192508316906319f496c890602401600060405180830381600087803b1580156200165657600080fd5b505af11580156200166b573d6000803e3d6000fd5b505050506000826001600160a01b031663ef01df4f6040518163ffffffff1660e01b8152600401602060405180830381865afa158015620016b0573d6000803e3d6000fd5b505050506040513d601f19601f82011682018060405250810190620016d6919062002e90565b9050816001600160a01b0316816001600160a01b0316141593505050505b919050565b6001600160a01b038181166000908152606960205260408120549091166200172257816200173e565b6001600160a01b03808316600090815260696020526040902054165b92915050565b6200174e62002232565b6040518060400160405280846001600160a01b0316815260200183838080601f016020809104026020016040519081016040528093929190818152602001838380828437600092018290525093909452505060ff87168152606860209081526040909120835181546001600160a01b0319166001600160a01b039091161781558382015180519193506200105c926001850192910190620027b7565b620017f462002232565b6001600160a01b03918216600090815260676020526040902080546001600160a01b03191691909216179055565b60ff81166000908152606860209081526040808320815180830190925280546001600160a01b03168252600181018054606094869493929084019162001868906200313e565b80601f016020809104026020016040519081016040528092919081815260200182805462001896906200313e565b8015620018e75780601f10620018bb57610100808354040283529160200191620018e7565b820191906000526020600020905b815481529060010190602001808311620018c957829003601f168201915b50505091909252505081519192506060916001600160a01b03161515905062001913576000816200191b565b815160208301515b935093505050915091565b6200193062002232565b826200197f5760405162461bcd60e51b815260206004820152601e60248201527f4e6f2074617267657420616464726573736573207370656369666965642e000060448201526064016200084c565b60005b8381101562000dad57620019dd83838080601f01602080910402602001604051908101604052809392919081815260200183838082843760009201919091525089925088915085905081811062000d705762000d706200306a565b5080620019ea81620030ca565b91505062001982565b6001600160a01b0381811660009081526067602052604081205490911662001a1c57816200173e565b506001600160a01b039081166000908152606760205260409020541690565b6001600160a01b0381166000908152606a602090815260409182902080548351818402810184019094528084526060939283018282801562000bef576020028201919060005260206000209081546001600160a01b0316815260019091019060200180831162000bd05750505050509050919050565b60408051600481526024810182526020810180516001600160e01b0316635fe3b56760e01b179052905160009182918291339162001af09190620031aa565b600060405180830381855afa9150503d806000811462001b2d576040519150601f19603f3d011682016040523d82523d6000602084013e62001b32565b606091505b509150915081801562001b46575080516020145b1562001ba85760008180602001905181019062001b64919062002e90565b6001600160a01b03811660009081526066602052604081205491925081131562001b9057949350505050565b600081121562001ba557600094505050505090565b50505b6070549250505090565b606c54604051631beb2b9760e31b81526001600160a01b038681166004830152858116602483015284811660448301526001600160e01b031984166064830152600092169063df595cb890608401602060405180830381865afa15801562001c1e573d6000803e3d6000fd5b505050506040513d601f19601f8201168201806040525081019062001c449190620031c8565b90505b949350505050565b62001c5962002232565b670de0b6b3a764000081111562001c845760405162461bcd60e51b81526004016200084c9062002e0e565b607055565b62001c9362002232565b6001600160a01b0383166000908152606a6020526040902062001cb890838362002846565b50505050565b62001cc862002232565b6001600160a01b0383166000908152606b6020526040902062001cb890838362002846565b62001cf762002232565b606554604080516001600160a01b03928316815291831660208301527fb3d55174552271a4f1aaf36b72f50381e892171636b3fb5447fe00e995e7a37b910160405180910390a1606580546001600160a01b0319166001600160a01b0392909216919091179055565b6033546001600160a01b031633148062001e2357600062001da87fb53127684a568b3173ae13b9f8a6016e243e63b6e8ee1178d6a717850b5d6103546001600160a01b031690565b90506001600160a01b03811633148062001e205760405162461bcd60e51b815260206004820152603260248201527f4f776e61626c653a2063616c6c6572206973206e65697468657220746865206f6044820152713bb732b9103737b9103a34329030b236b4b760711b60648201526084016200084c565b50505b50606c80546001600160a01b0319166001600160a01b0392909216919091179055565b62001e5062002232565b6000816001600160a01b031663b0772d0b6040518163ffffffff1660e01b8152600401600060405180830381865afa15801562001e91573d6000803e3d6000fd5b505050506040513d6000823e601f3d908101601f1916820160405262001ebb91908101906200320f565b9050816001600160a01b031663ba49f54a6040518163ffffffff1660e01b8152600401600060405180830381600087803b15801562001ef957600080fd5b505af115801562001f0e573d6000803e3d6000fd5b5050505060005b81518160ff16101562000eec57818160ff168151811062001f3a5762001f3a6200306a565b60200260200101516001600160a01b031663ba49f54a6040518163ffffffff1660e01b8152600401600060405180830381600087803b15801562001f7d57600080fd5b505af115801562001f92573d6000803e3d6000fd5b50505050808062001fa390620032d6565b91505062001f15565b6065546001600160a01b03163314620020005760405162461bcd60e51b81526020600482015260156024820152743737ba103a3432903832b73234b7339037bbb732b960591b60448201526064016200084c565b6000620020156033546001600160a01b031690565b6065549091506001600160a01b03166200202f8162002438565b606580546001600160a01b0319169055604080516001600160a01b0384168152600060208201527f70aea8d848e8a90fb7661b227dc522eb6395c3dac71b63cb59edd5c9899b2364910160405180910390a1606554604080516001600160a01b03808516825290921660208301527fb3d55174552271a4f1aaf36b72f50381e892171636b3fb5447fe00e995e7a37b910162001532565b606a602052816000526040600020818154811062000c5057600080fd5b600054610100900460ff1615808015620021045750600054600160ff909116105b80620021205750303b15801562002120575060005460ff166001145b620021855760405162461bcd60e51b815260206004820152602e60248201527f496e697469616c697a61626c653a20636f6e747261637420697320616c72656160448201526d191e481a5b9a5d1a585b1a5e995960921b60648201526084016200084c565b6000805460ff191660011790558015620021a9576000805461ff0019166101001790555b670de0b6b3a7640000821115620021d45760405162461bcd60e51b81526004016200084c9062002e0e565b620021df336200248a565b6070829055600019606f5580156200222e576000805461ff0019169055604051600181527f7f26b83ff96e1f2b6a682f133852f6798a09c465da95921460cefb38474024989060200162001532565b5050565b6033546001600160a01b031633146200228e5760405162461bcd60e51b815260206004820181905260248201527f4f776e61626c653a2063616c6c6572206973206e6f7420746865206f776e657260448201526064016200084c565b565b6060620022d6838360006040518060400160405280601e81526020017f416464726573733a206c6f772d6c6576656c2063616c6c206661696c65640000815250620024c9565b9392505050565b604080516001600160a01b038416602482015260448082018490528251808303909101815260649091019091526020810180516001600160e01b031663a9059cbb60e01b17905262000eec908490620025ac565b600083471015620023855760405162461bcd60e51b815260206004820152601d60248201527f437265617465323a20696e73756666696369656e742062616c616e636500000060448201526064016200084c565b8151620023d55760405162461bcd60e51b815260206004820181905260248201527f437265617465323a2062797465636f6465206c656e677468206973207a65726f60448201526064016200084c565b8282516020840186f590506001600160a01b038116620022d65760405162461bcd60e51b815260206004820152601960248201527f437265617465323a204661696c6564206f6e206465706c6f790000000000000060448201526064016200084c565b603380546001600160a01b038381166001600160a01b0319831681179093556040519116919082907f8be0079c531659141344cd1fd0a4f28419497f9722a3daafe3b4186f6b6457e090600090a35050565b600054610100900460ff16620024b45760405162461bcd60e51b81526004016200084c90620032f9565b620024be62002685565b62000fee8162002438565b6060824710156200252c5760405162461bcd60e51b815260206004820152602660248201527f416464726573733a20696e73756666696369656e742062616c616e636520666f6044820152651c8818d85b1b60d21b60648201526084016200084c565b600080866001600160a01b031685876040516200254a9190620031aa565b60006040518083038185875af1925050503d806000811462002589576040519150601f19603f3d011682016040523d82523d6000602084013e6200258e565b606091505b5091509150620025a187838387620026b9565b979650505050505050565b600062002603826040518060400160405280602081526020017f5361666545524332303a206c6f772d6c6576656c2063616c6c206661696c6564815250856001600160a01b0316620027369092919063ffffffff16565b80519091501562000eec5780806020019051810190620026249190620031c8565b62000eec5760405162461bcd60e51b815260206004820152602a60248201527f5361666545524332303a204552433230206f7065726174696f6e20646964206e6044820152691bdd081cdd58d8d9595960b21b60648201526084016200084c565b600054610100900460ff16620026af5760405162461bcd60e51b81526004016200084c90620032f9565b6200228e62002747565b606083156200272a57825162002722576001600160a01b0385163b620027225760405162461bcd60e51b815260206004820152601d60248201527f416464726573733a2063616c6c20746f206e6f6e2d636f6e747261637400000060448201526064016200084c565b508162001c47565b62001c4783836200277c565b606062001c478484600085620024c9565b600054610100900460ff16620027715760405162461bcd60e51b81526004016200084c90620032f9565b6200228e3362002438565b8151156200278d5781518083602001fd5b8060405162461bcd60e51b81526004016200084c919062003344565b612067806200335a83390190565b828054620027c5906200313e565b90600052602060002090601f016020900481019282620027e9576000855562002834565b82601f106200280457805160ff191683800117855562002834565b8280016001018555821562002834579182015b828111156200283457825182559160200191906001019062002817565b50620028429291506200289c565b5090565b82805482825590600052602060002090810192821562002834579160200282015b82811115620028345781546001600160a01b0319166001600160a01b0384351617825560209092019160019091019062002867565b5b808211156200284257600081556001016200289d565b6001600160a01b038116811462000fee57600080fd5b60008060408385031215620028dd57600080fd5b8235620028ea81620028b3565b946020939093013593505050565b6000602082840312156200290b57600080fd5b8135620022d681620028b3565b6020808252825182820181905260009190848201906040850190845b818110156200295b5783516001600160a01b03168352928401929184019160010162002934565b50909695505050505050565b600080604083850312156200297b57600080fd5b82356200298881620028b3565b915060208301356200299a81620028b3565b809150509250929050565b60008083601f840112620029b857600080fd5b50813567ffffffffffffffff811115620029d157600080fd5b6020830191508360208260051b8501011115620029ed57600080fd5b9250929050565b6000806000806040858703121562002a0b57600080fd5b843567ffffffffffffffff8082111562002a2457600080fd5b62002a3288838901620029a5565b9096509450602087013591508082111562002a4c57600080fd5b5062002a5b87828801620029a5565b95989497509550505050565b60008060006060848603121562002a7d57600080fd5b833562002a8a81620028b3565b9250602084013562002a9c81620028b3565b9150604084013562002aae81620028b3565b809150509250925092565b60ff8116811462000fee57600080fd5b60008083601f84011262002adc57600080fd5b50813567ffffffffffffffff81111562002af557600080fd5b602083019150836020828501011115620029ed57600080fd5b60008060008060006060868803121562002b2757600080fd5b853562002b348162002ab9565b9450602086013567ffffffffffffffff8082111562002b5257600080fd5b62002b6089838a0162002ac9565b9096509450604088013591508082111562002b7a57600080fd5b5062002b898882890162002ac9565b969995985093965092949392505050565b6000806040838503121562002bae57600080fd5b50508035926020909101359150565b6000806000806060858703121562002bd457600080fd5b843562002be18162002ab9565b9350602085013562002bf381620028b3565b9250604085013567ffffffffffffffff81111562002c1057600080fd5b62002a5b8782880162002ac9565b60006020828403121562002c3157600080fd5b8135620022d68162002ab9565b60005b8381101562002c5b57818101518382015260200162002c41565b8381111562001cb85750506000910152565b6000815180845262002c8781602086016020860162002c3e565b601f01601f19169290920160200192915050565b6001600160a01b038316815260406020820181905260009062001c479083018462002c6d565b6000806000806040858703121562002cd857600080fd5b843567ffffffffffffffff8082111562002cf157600080fd5b62002cff88838901620029a5565b9096509450602087013591508082111562002d1957600080fd5b5062002a5b8782880162002ac9565b6000806000806080858703121562002d3f57600080fd5b843562002d4c81620028b3565b9350602085013562002d5e81620028b3565b9250604085013562002d7081620028b3565b915060608501356001600160e01b03198116811462002d8e57600080fd5b939692955090935050565b60006020828403121562002dac57600080fd5b5035919050565b60008060006040848603121562002dc957600080fd5b833562002dd681620028b3565b9250602084013567ffffffffffffffff81111562002df357600080fd5b62002e0186828701620029a5565b9497909650939450505050565b6020808252602b908201527f496e7465726573742066656520726174652063616e6e6f74206265206d6f726560408201526a103a3430b710189818129760a91b606082015260800190565b6000806000806080858703121562002e7057600080fd5b505082516020840151604085015160609095015191969095509092509050565b60006020828403121562002ea357600080fd5b8151620022d681620028b3565b60006020828403121562002ec357600080fd5b5051919050565b60006020828403121562002edd57600080fd5b8151620022d68162002ab9565b634e487b7160e01b600052601160045260246000fd5b600181815b8085111562002f4157816000190482111562002f255762002f2562002eea565b8085161562002f3357918102915b93841c939080029062002f05565b509250929050565b60008262002f5a575060016200173e565b8162002f69575060006200173e565b816001811462002f82576002811462002f8d5762002fad565b60019150506200173e565b60ff84111562002fa15762002fa162002eea565b50506001821b6200173e565b5060208310610133831016604e8410600b841016171562002fd2575081810a6200173e565b62002fde838362002f00565b806000190482111562002ff55762002ff562002eea565b029392505050565b6000620022d6838362002f49565b600081600019048311821515161562003028576200302862002eea565b500290565b6000826200304b57634e487b7160e01b600052601260045260246000fd5b500490565b60008282101562003065576200306562002eea565b500390565b634e487b7160e01b600052603260045260246000fd5b6000808335601e198436030181126200309857600080fd5b83018035915067ffffffffffffffff821115620030b457600080fd5b602001915036819003821315620029ed57600080fd5b6000600019821415620030e157620030e162002eea565b5060010190565b60008085851115620030f957600080fd5b838611156200310757600080fd5b5050820193919092039150565b600084516200312881846020890162002c3e565b8201838582376000930192835250909392505050565b600181811c908216806200315357607f821691505b602082108114156200317557634e487b7160e01b600052602260045260246000fd5b50919050565b60208152816020820152818360408301376000818301604090810191909152601f909201601f19160101919050565b60008251620031be81846020870162002c3e565b9190910192915050565b600060208284031215620031db57600080fd5b81518015158114620022d657600080fd5b634e487b7160e01b600052604160045260246000fd5b8051620016f481620028b3565b600060208083850312156200322357600080fd5b825167ffffffffffffffff808211156200323c57600080fd5b818501915085601f8301126200325157600080fd5b815181811115620032665762003266620031ec565b8060051b604051601f19603f830116810181811085821117156200328e576200328e620031ec565b604052918252848201925083810185019188831115620032ad57600080fd5b938501935b8285101562000b7757620032c68562003202565b84529385019392850192620032b2565b600060ff821660ff811415620032f057620032f062002eea565b60010192915050565b6020808252602b908201527f496e697469616c697a61626c653a20636f6e7472616374206973206e6f74206960408201526a6e697469616c697a696e6760a81b606082015260800190565b602081526000620022d6602083018462002c6d56fe60806040523480156200001157600080fd5b5060405162002067380380620020678339810160408190526200003491620006b1565b336001600160a01b038716146200007b5760405162461bcd60e51b815260206004820152600660248201526510b0b236b4b760d11b60448201526064015b60405180910390fd5b6000886001600160a01b031663313ce5676040518163ffffffff1660e01b8152600401602060405180830381865afa158015620000bc573d6000803e3d6000fd5b505050506040513d601f19601f82011682018060405250810190620000e2919062000784565b600080546001600160a01b0319166001600160a01b038a8116919091179091556702c68af0bb14000060055560038054610100600160a81b0319166101008c84160217905543600955670de0b6b3a7640000600a55604080516310c8fc9560e11b8152905192935090881691632191f92a916004808201926020929091908290030181865afa1580156200017a573d6000803e3d6000fd5b505050506040513d601f19601f82011682018060405250810190620001a09190620007b0565b620001d85760405162461bcd60e51b8152602060048201526007602482015266216e6f7449726d60c81b604482015260640162000072565b600480546001600160a01b0319166001600160a01b038816908117909155604080516000815260208101929092527fedffc32e068c7c95dfd4bdfd5c4d939a084d6b11c4199eac8436ed234d72f926910160405180910390a184516200024690600190602088019062000525565b5083516200025c90600290602087019062000525565b506003805460ff191660ff8316179055600754600654670de0b6b3a76400009190620002899086620007d4565b620002959190620007d4565b1115620002cf5760405162461bcd60e51b8152602060048201526007602482015266085c998e9cd95d60ca1b604482015260640162000072565b60088390556040805160008152602081018590527faaa68312e2ea9d50e16af5068410ab56e1a1fd06037b1a35664812c30f821460910160405180910390a16000198214156200031f5760065491505b60008060009054906101000a90046001600160a01b03166001600160a01b031663dd86fea16040518163ffffffff1660e01b8152600401602060405180830381865afa15801562000374573d6000803e3d6000fd5b505050506040513d601f19601f820116820180604052508101906200039a9190620007fb565b9050670de0b6b3a76400008184600854620003b69190620007d4565b620003c29190620007d4565b1115620004025760405162461bcd60e51b815260206004820152600d60248201526c0858591b5a5b9199594e9cd95d609a1b604482015260640162000072565b60068390556040805160008152602081018590527fcdd0b588250e1398549f79cfdb8217c186688822905d6715b0834ea1c865594a910160405180910390a160078190556040805160008152602081018390527fedec4b9c99c2cdb231e7fd036f861e0445b015916700f41b9835f984cb9be4cb910160405180910390a1506000805460ff60a01b1916600160a01b179055601380546001600160a01b038b166001600160a01b03199091168117909155604080516318160ddd60e01b815290516318160ddd916004808201926020929091908290030181865afa158015620004ef573d6000803e3d6000fd5b505050506040513d601f19601f82011682018060405250810190620005159190620007fb565b5050505050505050505062000852565b828054620005339062000815565b90600052602060002090601f016020900481019282620005575760008555620005a2565b82601f106200057257805160ff1916838001178555620005a2565b82800160010185558215620005a2579182015b82811115620005a257825182559160200191906001019062000585565b50620005b0929150620005b4565b5090565b5b80821115620005b05760008155600101620005b5565b6001600160a01b0381168114620005e157600080fd5b50565b634e487b7160e01b600052604160045260246000fd5b600082601f8301126200060c57600080fd5b81516001600160401b0380821115620006295762000629620005e4565b604051601f8301601f19908116603f01168101908282118183101715620006545762000654620005e4565b816040528381526020925086838588010111156200067157600080fd5b600091505b8382101562000695578582018301518183018401529082019062000676565b83821115620006a75760008385830101525b9695505050505050565b600080600080600080600080610100898b031215620006cf57600080fd5b8851620006dc81620005cb565b60208a0151909850620006ef81620005cb565b60408a01519097506200070281620005cb565b60608a01519096506200071581620005cb565b60808a01519095506001600160401b03808211156200073357600080fd5b620007418c838d01620005fa565b955060a08b01519150808211156200075857600080fd5b50620007678b828c01620005fa565b60c08b015160e0909b0151999c989b509699959894979350505050565b6000602082840312156200079757600080fd5b815160ff81168114620007a957600080fd5b9392505050565b600060208284031215620007c357600080fd5b81518015158114620007a957600080fd5b60008219821115620007f657634e487b7160e01b600052601160045260246000fd5b500190565b6000602082840312156200080e57600080fd5b5051919050565b600181811c908216806200082a57607f821691505b602082108114156200084c57634e487b7160e01b600052602260045260246000fd5b50919050565b61180580620008626000396000f3fe608060405234801561001057600080fd5b50600436106101585760003560e01c806389cd9855116100c3578063ba49f54a1161007c578063ba49f54a146102f6578063be99f119146102fe578063c3bf11cd1461030d578063c91a424f14610316578063e207afe214610329578063f3fdb15a1461033c57610158565b806389cd9855146102b55780638d02d9a1146102ca5780638f840ddd146102d357806395d89b41146102dc5780639826394b146102e4578063aa5af0fd146102ed57610158565b80635fe3b567116101155780635fe3b5671461025557806361feacff1461026d5780636333d001146102765780636752e7021461028b5780636c540baf146102995780636f307dc3146102a257610158565b806306fdde03146101cf578063173b9904146101ed57806318160ddd14610204578063313ce5671461020d57806347bd37181461022c5780635c60da1b14610235575b600061016f6000356001600160e01b03191661034f565b90506001600160a01b0381166101ab57604051630a82dd7360e31b81526001600160e01b03196000351660048201526024015b60405180910390fd5b3660008037600080366000845af43d6000803e8080156101ca573d6000f35b3d6000fd5b6101d7610381565b6040516101e491906112c5565b60405180910390f35b6101f660085481565b6040519081526020016101e4565b6101f6600f5481565b60035461021a9060ff1681565b60405160ff90911681526020016101e4565b6101f6600b5481565b61023d61040f565b6040516001600160a01b0390911681526020016101e4565b60035461023d9061010090046001600160a01b031681565b6101f6600d5481565b61027e610465565b6040516101e491906112df565b6101f6666379da05b6000081565b6101f660095481565b60135461023d906001600160a01b031681565b6102c86102c3366004611344565b61046f565b005b6101f660065481565b6101f6600c5481565b6101d76104c7565b6101f6600e5481565b6101f6600a5481565b6102c86104d4565b6101f667016345785d8a000081565b6101f660075481565b60005461023d906001600160a01b031681565b6102c861033736600461137d565b6106b9565b60045461023d906001600160a01b031681565b6001600160e01b03191660009081526000805160206117d983398151915260205260409020546001600160a01b031690565b6001805461038e90611402565b80601f01602080910402602001604051908101604052809291908181526020018280546103ba90611402565b80156104075780601f106103dc57610100808354040283529160200191610407565b820191906000526020600020905b8154815290600101906020018083116103ea57829003601f168201915b505050505081565b60408051808201909152600e81526d64656c656761746554797065282960901b60209091015260006104607f2c436e5bba88e403c36d7a2822cd2b39b360d5c6296839bbf72c5a05167fd3ff61034f565b905090565b606061046061073b565b6000546001600160a01b031633146104b95760405162461bcd60e51b815260206004820152600d60248201526c085d5b985d5d1a1bdc9a5e9959609a1b60448201526064016101a2565b6104c382826107ad565b5050565b6002805461038e90611402565b333014806104e557506104e56107ce565b6105225760405162461bcd60e51b815260206004820152600e60248201526d10b9b2b6331037b91030b236b4b760911b60448201526064016101a2565b60408051600481526024810182526020810180516001600160e01b0316632c436e5b60e01b17905290516000918291309161055c9161143d565b600060405180830381855afa9150503d8060008114610597576040519150601f19603f3d011682016040523d82523d6000602084013e61059c565b606091505b5091509150816105e15760405162461bcd60e51b815260206004820152601060248201526f6e6f2064656c6567617465207479706560801b60448201526064016101a2565b6000818060200190518101906105f79190611459565b60008054604051632aa1058760e21b815260ff84166004820152929350909182916001600160a01b03169063aa84161c90602401600060405180830381865afa158015610648573d6000803e3d6000fd5b505050506040513d6000823e601f3d908101601f1916820160405261067091908101906114c3565b91509150600061067e61040f565b9050826001600160a01b0316816001600160a01b0316146106a8576106a3838361094b565b6106b1565b6106b181610a23565b505050505050565b6106c16107ce565b6106f65760405162461bcd60e51b815260206004820152600660248201526510b0b236b4b760d11b60448201526064016101a2565b6107368383838080601f01602080910402602001604051908101604052809392919081815260200183838082843760009201919091525061094b92505050565b505050565b60606000805160206117d98339815191526002018054806020026020016040519081016040528092919081815260200182805480156107a357602002820191906000526020600020905b81546001600160a01b03168152600190910190602001808311610785575b5050505050905090565b6001600160a01b038116156107c5576107c581610b2b565b6104c382610c5b565b600080600360019054906101000a90046001600160a01b03169050806001600160a01b031663f851a4406040518163ffffffff1660e01b8152600401602060405180830381865afa158015610827573d6000803e3d6000fd5b505050506040513d601f19601f8201168201806040525081019061084b919061156d565b6001600160a01b0316336001600160a01b03161480156108c85750806001600160a01b0316630a755ec26040518163ffffffff1660e01b8152600401602060405180830381865afa1580156108a4573d6000803e3d6000fd5b505050506040513d601f19601f820116820180604052508101906108c8919061158a565b8061094557506000546001600160a01b0316331480156109455750806001600160a01b031663cf6bfd2d6040518163ffffffff1660e01b8152600401602060405180830381865afa158015610921573d6000803e3d6000fd5b505050506040513d601f19601f82011682018060405250810190610945919061158a565b91505090565b600061095561040f565b905061096083610a23565b6109da306356e6772860e01b8460405160240161097d91906112c5565b604051602081830303815290604052906001600160e01b0319166020820180516001600160e01b0383818316178352505050506040518060400160405280600c81526020016b08589958dbdb59481a5b5c1b60a21b815250610d53565b50604080516001600160a01b038084168252851660208201527fd604de94d45953f9138079ec1b82d533cb2160c906d1076d1f7ed54befbca97a910160405180910390a1505050565b600080546040516311a0e21760e01b81526001600160a01b038481166004830152909116906311a0e21790602401600060405180830381865afa158015610a6e573d6000803e3d6000fd5b505050506040513d6000823e601f3d908101601f19168201604052610a9691908101906115d0565b90506000610aa261073b565b905060005b8151811015610ae457610ad2828281518110610ac557610ac561166f565b6020026020010151610b2b565b80610adc8161169b565b915050610aa7565b5060005b8251811015610b2557610b13838281518110610b0657610b0661166f565b6020026020010151610c5b565b80610b1d8161169b565b915050610ae8565b50505050565b6000805160206117d9833981519152610b4382610def565b60005b600282015460ff8216101561073657826001600160a01b0316826002018260ff1681548110610b7757610b7761166f565b6000918252602090912001546001600160a01b03161415610c4957600282018054610ba4906001906116b6565b81548110610bb457610bb461166f565b6000918252602090912001546002830180546001600160a01b039092169160ff8416908110610be557610be561166f565b9060005260206000200160006101000a8154816001600160a01b0302191690836001600160a01b0316021790555081600201805480610c2657610c266116cd565b600082815260209020810160001990810180546001600160a01b03191690550190555b80610c53816116e3565b915050610b46565b6000805160206117d983398151915260005b600282015460ff82161015610d1357826001600160a01b0316826002018260ff1681548110610c9e57610c9e61166f565b6000918252602090912001546001600160a01b03161415610d015760405162461bcd60e51b815260206004820152601760248201527f657874656e73696f6e20616c726561647920616464656400000000000000000060448201526064016101a2565b80610d0b816116e3565b915050610c6d565b50610d1d8261107c565b6002018054600181018255600091825260209091200180546001600160a01b0319166001600160a01b0392909216919091179055565b6060600080856001600160a01b031685604051610d70919061143d565b6000604051808303816000865af19150503d8060008114610dad576040519150601f19603f3d011682016040523d82523d6000602084013e610db2565b606091505b509150915081610de657805115610dcc5780518082602001fd5b8360405162461bcd60e51b81526004016101a291906112c5565b95945050505050565b6000816001600160a01b03166389f8132e6040518163ffffffff1660e01b8152600401600060405180830381865afa158015610e2f573d6000803e3d6000fd5b505050506040513d6000823e601f3d908101601f19168201604052610e579190810190611703565b90506000805160206117d983398151915260005b82518161ffff161015610b25576000838261ffff1681518110610e9057610e9061166f565b6020908102919091018101516001600160e01b031981166000908152918590526040909120549091506001600160a01b03868116911614610ed357610ed36117a0565b6001600160e01b0319811660009081526020849052604090205460018085018054600160a01b90930461ffff16929091610f0c916116b6565b81548110610f1c57610f1c61166f565b90600052602060002090600891828204019190066004029054906101000a900460e01b846001018261ffff1681548110610f5857610f5861166f565b90600052602060002090600891828204019190066004026101000a81548163ffffffff021916908360e01c021790555080846000016000866001018461ffff1681548110610fa857610fa861166f565b6000918252602080832060088304015460079092166004026101000a90910460e01b6001600160e01b03191683528201929092526040019020805461ffff60a01b1916600160a01b61ffff939093169290920291909117905560018401805480611014576110146116cd565b60008281526020808220600860001990940193840401805463ffffffff600460078716026101000a0219169055919092556001600160e01b0319909316815291849052506040902080546001600160b01b031916905580611074816117b6565b915050610e6b565b6000816001600160a01b03166389f8132e6040518163ffffffff1660e01b8152600401600060405180830381865afa1580156110bc573d6000803e3d6000fd5b505050506040513d6000823e601f3d908101601f191682016040526110e49190810190611703565b7fc8fcad8db84d3cc18b4c41d551ea0ee66dd599cde068d998e57d5e09332c131d549091506000805160206117d98339815191529060005b83518110156112665760008482815181106111395761113961166f565b6020908102919091018101516001600160e01b031981166000908152918690526040909120549091506001600160a01b031680156111a557604051632c18df3360e01b81526001600160e01b0319831660048201526001600160a01b03821660248201526044016101a2565b6040805180820182526001600160a01b03808a16825261ffff80881660208085019182526001600160e01b0319881660009081528b8252958620945185549251909316600160a01b026001600160b01b0319909216929093169190911717909155600180880180549182018155835291206008820401805460e085901c60046007909416939093026101000a92830263ffffffff90930219169190911790558361124e816117b6565b9450505050808061125e9061169b565b91505061111c565b5050505050565b60005b83811015611288578181015183820152602001611270565b83811115610b255750506000910152565b600081518084526112b181602086016020860161126d565b601f01601f19169290920160200192915050565b6020815260006112d86020830184611299565b9392505050565b6020808252825182820181905260009190848201906040850190845b818110156113205783516001600160a01b0316835292840192918401916001016112fb565b50909695505050505050565b6001600160a01b038116811461134157600080fd5b50565b6000806040838503121561135757600080fd5b82356113628161132c565b915060208301356113728161132c565b809150509250929050565b60008060006040848603121561139257600080fd5b833561139d8161132c565b9250602084013567ffffffffffffffff808211156113ba57600080fd5b818601915086601f8301126113ce57600080fd5b8135818111156113dd57600080fd5b8760208285010111156113ef57600080fd5b6020830194508093505050509250925092565b600181811c9082168061141657607f821691505b6020821081141561143757634e487b7160e01b600052602260045260246000fd5b50919050565b6000825161144f81846020870161126d565b9190910192915050565b60006020828403121561146b57600080fd5b815160ff811681146112d857600080fd5b634e487b7160e01b600052604160045260246000fd5b604051601f8201601f1916810167ffffffffffffffff811182821017156114bb576114bb61147c565b604052919050565b600080604083850312156114d657600080fd5b82516114e18161132c565b602084015190925067ffffffffffffffff808211156114ff57600080fd5b818501915085601f83011261151357600080fd5b8151818111156115255761152561147c565b611538601f8201601f1916602001611492565b915080825286602082850101111561154f57600080fd5b61156081602084016020860161126d565b5080925050509250929050565b60006020828403121561157f57600080fd5b81516112d88161132c565b60006020828403121561159c57600080fd5b815180151581146112d857600080fd5b600067ffffffffffffffff8211156115c6576115c661147c565b5060051b60200190565b600060208083850312156115e357600080fd5b825167ffffffffffffffff8111156115fa57600080fd5b8301601f8101851361160b57600080fd5b805161161e611619826115ac565b611492565b81815260059190911b8201830190838101908783111561163d57600080fd5b928401925b828410156116645783516116558161132c565b82529284019290840190611642565b979650505050505050565b634e487b7160e01b600052603260045260246000fd5b634e487b7160e01b600052601160045260246000fd5b60006000198214156116af576116af611685565b5060010190565b6000828210156116c8576116c8611685565b500390565b634e487b7160e01b600052603160045260246000fd5b600060ff821660ff8114156116fa576116fa611685565b60010192915050565b6000602080838503121561171657600080fd5b825167ffffffffffffffff81111561172d57600080fd5b8301601f8101851361173e57600080fd5b805161174c611619826115ac565b81815260059190911b8201830190838101908783111561176b57600080fd5b928401925b828410156116645783516001600160e01b0319811681146117915760008081fd5b82529284019290840190611770565b634e487b7160e01b600052600160045260246000fd5b600061ffff808316818114156117ce576117ce611685565b600101939250505056fec8fcad8db84d3cc18b4c41d551ea0ee66dd599cde068d998e57d5e09332c131ca164736f6c634300080a000aa164736f6c634300080a000a",
    "linkReferences": {}
  },
  "methodIdentifiers": {
    "_acceptOwner()": "fc4d33f9",
    "_callPool(address[],bytes)": "b01b86fd",
    "_callPool(address[],bytes[])": "2acbff39",
    "_registerComptrollerExtension(address,address,address)": "3ddd836d",
    "_setCErc20DelegateExtensions(address,address[])": "eab8a388",
    "_setComptrollerExtensions(address,address[])": "e95600be",
    "_setCustomInterestFeeRate(address,int256)": "06bc4611",
    "_setDefaultInterestFeeRate(uint256)": "e35a4801",
    "_setLatestCErc20Delegate(uint8,address,bytes)": "88457be1",
    "_setLatestComptrollerImplementation(address,address)": "930d2438",
    "_setLatestPluginImplementation(address,address)": "1259821c",
    "_setPendingOwner(address)": "6e96dfd7",
    "_setPoolLimits(uint256,uint256)": "642843a5",
    "_upgradePluginToLatestImplementation(address)": "7a1133d6",
    "_withdrawAssets(address)": "3465b6e1",
    "authoritiesRegistry()": "8aac2f0c",
    "autoUpgradePool(address)": "fa7cc72d",
    "cErc20DelegateExtensions(address,uint256)": "2203abb5",
    "canCall(address,address,address,bytes4)": "df595cb8",
    "comptrollerExtensions(address,uint256)": "fc773d33",
    "customInterestFeeRates(address)": "c5232b47",
    "defaultInterestFeeRate()": "84651d73",
    "deployCErc20(uint8,bytes,bytes)": "51f02d6a",
    "getCErc20DelegateExtensions(address)": "11a0e217",
    "getComptrollerExtensions(address)": "cbc505f8",
    "getMinBorrowEth(address)": "0b2a2394",
    "initialize(uint256)": "fe4b84df",
    "interestFeeRate()": "dd86fea1",
    "latestCErc20Delegate(uint8)": "aa84161c",
    "latestComptrollerImplementation(address)": "bbcdd6d3",
    "latestPluginImplementation(address)": "81218ea9",
    "marketsCounter()": "a71d085d",
    "maxUtilizationRate()": "dfcb48bd",
    "minBorrowEth()": "fdb25fb1",
    "owner()": "8da5cb5b",
    "pendingOwner()": "e30c3978",
    "reinitialize(address)": "f7e7d1fd",
    "renounceOwnership()": "715018a6",
    "transferOwnership(address)": "f2fde38b"
  }
}