{
  "address": "0x15F3b250F4FDdA6c1D10ED0F1c093f61bCB29dF5",
  "abi": [
    {
      "inputs": [],
      "name": "NoSuchPosition",
      "type": "error"
    },
    {
      "inputs": [],
      "name": "PairNotWhitelisted",
      "type": "error"
    },
    {
      "inputs": [],
      "name": "PositionNotClosed",
      "type": "error"
    },
    {
      "anonymous": false,
      "inputs": [
        {
          "indexed": true,
          "internalType": "address",
          "name": "previousOwner",
          "type": "address"
        },
        {
          "indexed": true,
          "internalType": "address",
          "name": "newOwner",
          "type": "address"
        }
      ],
      "name": "OwnershipTransferStarted",
      "type": "event"
    },
    {
      "anonymous": false,
      "inputs": [
        {
          "indexed": true,
          "internalType": "address",
          "name": "previousOwner",
          "type": "address"
        },
        {
          "indexed": true,
          "internalType": "address",
          "name": "newOwner",
          "type": "address"
        }
      ],
      "name": "OwnershipTransferred",
      "type": "event"
    },
    {
      "inputs": [],
      "name": "_getExtensionFunctions",
      "outputs": [
        {
          "internalType": "bytes4[]",
          "name": "",
          "type": "bytes4[]"
        }
      ],
      "stateMutability": "pure",
      "type": "function"
    },
    {
      "inputs": [],
      "name": "acceptOwnership",
      "outputs": [],
      "stateMutability": "nonpayable",
      "type": "function"
    },
    {
      "inputs": [],
      "name": "blocksPerYear",
      "outputs": [
        {
          "internalType": "uint256",
          "name": "",
          "type": "uint256"
        }
      ],
      "stateMutability": "view",
      "type": "function"
    },
    {
      "inputs": [
        {
          "internalType": "contract LeveredPosition",
          "name": "position",
          "type": "address"
        }
      ],
      "name": "closeAndRemoveUserPosition",
      "outputs": [
        {
          "internalType": "bool",
          "name": "",
          "type": "bool"
        }
      ],
      "stateMutability": "nonpayable",
      "type": "function"
    },
    {
      "inputs": [
        {
          "internalType": "contract ICErc20",
          "name": "_collateralMarket",
          "type": "address"
        },
        {
          "internalType": "contract ICErc20",
          "name": "_stableMarket",
          "type": "address"
        },
        {
          "internalType": "contract IERC20Upgradeable",
          "name": "_fundingAsset",
          "type": "address"
        },
        {
          "internalType": "uint256",
          "name": "_fundingAmount",
          "type": "uint256"
        }
      ],
      "name": "createAndFundPosition",
      "outputs": [
        {
          "internalType": "contract LeveredPosition",
          "name": "",
          "type": "address"
        }
      ],
      "stateMutability": "nonpayable",
      "type": "function"
    },
    {
      "inputs": [
        {
          "internalType": "contract ICErc20",
          "name": "_collateralMarket",
          "type": "address"
        },
        {
          "internalType": "contract ICErc20",
          "name": "_stableMarket",
          "type": "address"
        },
        {
          "internalType": "contract IERC20Upgradeable",
          "name": "_fundingAsset",
          "type": "address"
        },
        {
          "internalType": "uint256",
          "name": "_fundingAmount",
          "type": "uint256"
        },
        {
          "internalType": "uint256",
          "name": "_leverageRatio",
          "type": "uint256"
        }
      ],
      "name": "createAndFundPositionAtRatio",
      "outputs": [
        {
          "internalType": "contract LeveredPosition",
          "name": "",
          "type": "address"
        }
      ],
      "stateMutability": "nonpayable",
      "type": "function"
    },
    {
      "inputs": [
        {
          "internalType": "contract ICErc20",
          "name": "_collateralMarket",
          "type": "address"
        },
        {
          "internalType": "contract ICErc20",
          "name": "_stableMarket",
          "type": "address"
        }
      ],
      "name": "createPosition",
      "outputs": [
        {
          "internalType": "contract LeveredPosition",
          "name": "",
          "type": "address"
        }
      ],
      "stateMutability": "nonpayable",
      "type": "function"
    },
    {
      "inputs": [],
      "name": "feeDistributor",
      "outputs": [
        {
          "internalType": "contract IFeeDistributor",
          "name": "",
          "type": "address"
        }
      ],
      "stateMutability": "view",
      "type": "function"
    },
    {
      "inputs": [],
      "name": "getAccountsWithOpenPositions",
      "outputs": [
        {
          "internalType": "address[]",
          "name": "",
          "type": "address[]"
        }
      ],
      "stateMutability": "view",
      "type": "function"
    },
    {
      "inputs": [
        {
          "internalType": "contract ICErc20",
          "name": "_collateralMarket",
          "type": "address"
        }
      ],
      "name": "getBorrowableMarketsByCollateral",
      "outputs": [
        {
          "internalType": "address[]",
          "name": "",
          "type": "address[]"
        }
      ],
      "stateMutability": "view",
      "type": "function"
    },
    {
      "inputs": [],
      "name": "getMinBorrowNative",
      "outputs": [
        {
          "internalType": "uint256",
          "name": "",
          "type": "uint256"
        }
      ],
      "stateMutability": "view",
      "type": "function"
    },
    {
      "inputs": [
        {
          "internalType": "address",
          "name": "account",
          "type": "address"
        }
      ],
      "name": "getPositionsByAccount",
      "outputs": [
        {
          "internalType": "address[]",
          "name": "positions",
          "type": "address[]"
        },
        {
          "internalType": "bool[]",
          "name": "closed",
          "type": "bool[]"
        }
      ],
      "stateMutability": "view",
      "type": "function"
    },
    {
      "inputs": [
        {
          "internalType": "bytes4",
          "name": "msgSig",
          "type": "bytes4"
        }
      ],
      "name": "getPositionsExtension",
      "outputs": [
        {
          "internalType": "address",
          "name": "",
          "type": "address"
        }
      ],
      "stateMutability": "view",
      "type": "function"
    },
    {
      "inputs": [
        {
          "internalType": "contract IERC20Upgradeable",
          "name": "inputToken",
          "type": "address"
        },
        {
          "internalType": "contract IERC20Upgradeable",
          "name": "outputToken",
          "type": "address"
        }
      ],
      "name": "getRedemptionStrategies",
      "outputs": [
        {
          "internalType": "contract IRedemptionStrategy[]",
          "name": "strategies",
          "type": "address[]"
        },
        {
          "internalType": "bytes[]",
          "name": "strategiesData",
          "type": "bytes[]"
        }
      ],
      "stateMutability": "view",
      "type": "function"
    },
    {
      "inputs": [],
      "name": "getWhitelistedCollateralMarkets",
      "outputs": [
        {
          "internalType": "address[]",
          "name": "",
          "type": "address[]"
        }
      ],
      "stateMutability": "view",
      "type": "function"
    },
    {
      "inputs": [],
      "name": "liquidatorsRegistry",
      "outputs": [
        {
          "internalType": "contract ILiquidatorsRegistry",
          "name": "",
          "type": "address"
        }
      ],
      "stateMutability": "view",
      "type": "function"
    },
    {
      "inputs": [],
      "name": "owner",
      "outputs": [
        {
          "internalType": "address",
          "name": "",
          "type": "address"
        }
      ],
      "stateMutability": "view",
      "type": "function"
    },
    {
      "inputs": [],
      "name": "pendingOwner",
      "outputs": [
        {
          "internalType": "address",
          "name": "",
          "type": "address"
        }
      ],
      "stateMutability": "view",
      "type": "function"
    },
    {
      "inputs": [
        {
          "internalType": "address",
          "name": "closedPosition",
          "type": "address"
        }
      ],
      "name": "removeClosedPosition",
      "outputs": [
        {
          "internalType": "bool",
          "name": "",
          "type": "bool"
        }
      ],
      "stateMutability": "nonpayable",
      "type": "function"
    },
    {
      "inputs": [],
      "name": "renounceOwnership",
      "outputs": [],
      "stateMutability": "nonpayable",
      "type": "function"
    },
    {
      "inputs": [
        {
          "internalType": "address",
          "name": "newOwner",
          "type": "address"
        }
      ],
      "name": "transferOwnership",
      "outputs": [],
      "stateMutability": "nonpayable",
      "type": "function"
    }
  ],
  "transactionHash": "0xd4c6bdcdce682ec271ce685ef928b95d6747207828821c86d29c924082c686a4",
  "args": [],
  "numDeployments": 1,
  "bytecode": {
    "object": "0x608060405234801561001057600080fd5b5061001a3361001f565b610096565b600180546001600160a01b031916905561004381610046602090811b61105717901c565b50565b600080546001600160a01b038381166001600160a01b0319831681178455604051919092169283917f8be0079c531659141344cd1fd0a4f28419497f9722a3daafe3b4186f6b6457e09190a35050565b61594b80620000a66000396000f3fe60806040523480156200001157600080fd5b5060043610620001515760003560e01c806386ef748211620000c7578063ca2de6bc1162000086578063ca2de6bc14620002aa578063d337a1da14620002d2578063e30c397814620002e9578063ed287f3f14620002fb578063f2fde38b1462000322578063f4e61066146200033957600080fd5b806386ef7482146200025457806389f8132e146200026b5780638da5cb5b1462000284578063a339d7511462000296578063a385fb9614620002a057600080fd5b8063534da4601162000114578063534da46014620001f95780636969e58b1462000210578063715018a6146200022757806379ba509714620002335780637bf8f349146200023d57600080fd5b80630973e91614620001565780630d43e8ad14620001865780630da2262c14620001b357806312468b7714620001cc57806316bb997f14620001e5575b600080fd5b6200016d6200016736600462001734565b62000350565b6040516200017d9291906200179a565b60405180910390f35b6009546200019a906001600160a01b031681565b6040516001600160a01b0390911681526020016200017d565b620001bd62000492565b6040519081526020016200017d565b620001d662000508565b6040516200017d9190620017f7565b600a546200019a906001600160a01b031681565b6200019a6200020a3660046200180c565b62000516565b6200019a620002213660046200186e565b620005a3565b62000231620008b8565b005b620002316200090f565b6200019a6200024e366004620018ac565b6200098d565b6200019a6200026536600462001904565b50600090565b6200027562000a9c565b6040516200017d919062001930565b6000546001600160a01b03166200019a565b620001d662000e1b565b620001bd600b5481565b620002c1620002bb36600462001734565b62000e29565b60405190151581526020016200017d565b620002c1620002e336600462001734565b62000e37565b6001546001600160a01b03166200019a565b620003126200030c3660046200186e565b62000f31565b6040516200017d929190620019dd565b620002316200033336600462001734565b62000fbd565b620001d66200034a36600462001734565b62001031565b6001600160a01b038116600090815260046020526040902060609081906200037890620010a7565b9150815167ffffffffffffffff81111562000397576200039762001a84565b604051908082528060200260200182016040528015620003c1578160200160208202803683370190505b50905060005b82518110156200048c57828181518110620003e657620003e662001a9a565b60200260200101516001600160a01b0316633e2f147f6040518163ffffffff1660e01b8152600401602060405180830381865afa1580156200042c573d6000803e3d6000fd5b505050506040513d601f19601f8201168201806040525081019062000452919062001ab0565b82828151811062000467576200046762001a9a565b9115156020928302919091019091015280620004838162001aea565b915050620003c7565b50915091565b6009546040805163fdb25fb160e01b815290516000926001600160a01b03169163fdb25fb19160048083019260209291908290030181865afa158015620004dd573d6000803e3d6000fd5b505050506040513d601f19601f8201168201806040525081019062000503919062001b08565b905090565b6060620005036002620010a7565b60008062000527878787876200098d565b604051639028493360e01b8152600481018590529091506001600160a01b038216906390284933906024016020604051808303816000875af115801562000572573d6000803e3d6000fd5b505050506040513d601f19601f8201168201806040525081019062000598919062001b08565b509695505050505050565b6001600160a01b0382166000908152600760205260408120620005c79083620010b6565b620005e557604051633f94e3f760e01b815260040160405180910390fd5b6000338484604051620005f89062001710565b6001600160a01b03938416815291831660208301529091166040820152606001604051809103906000f08015801562000635573d6000803e3d6000fd5b50905062000645600233620010d9565b50336000908152600460205260409020620006619082620010d9565b50600954604080516322ab0bc360e21b815290516000926001600160a01b031691638aac2f0c9160048083019260209291908290030181865afa158015620006ad573d6000803e3d6000fd5b505050506040513d601f19601f82011682018060405250810190620006d3919062001b22565b90506000856001600160a01b0316635fe3b5676040518163ffffffff1660e01b8152600401602060405180830381865afa15801562000716573d6000803e3d6000fd5b505050506040513d601f19601f820116820180604052508101906200073c919062001b22565b60405163ec2ffdd160e01b81526001600160a01b03808316600483015291925060009184169063ec2ffdd190602401602060405180830381865afa15801562000789573d6000803e3d6000fd5b505050506040513d601f19601f82011682018060405250810190620007af919062001b22565b90506001600160a01b03811615620008ab57826001600160a01b031663ca224d988386846001600160a01b0316633300183c6040518163ffffffff1660e01b8152600401602060405180830381865afa15801562000811573d6000803e3d6000fd5b505050506040513d601f19601f8201168201806040525081019062000837919062001b42565b6040516001600160e01b031960e086901b1681526001600160a01b03938416600482015292909116602483015260ff16604482015260016064820152608401600060405180830381600087803b1580156200089157600080fd5b505af1158015620008a6573d6000803e3d6000fd5b505050505b5091925050505b92915050565b620008c2620010f0565b60405162461bcd60e51b815260206004820152601e60248201527f72656e6f756e6365206f776e657273686970206e6f7420616c6c6f776564000060448201526064015b60405180910390fd5b60015433906001600160a01b031681146200097f5760405162461bcd60e51b815260206004820152602960248201527f4f776e61626c6532537465703a2063616c6c6572206973206e6f7420746865206044820152683732bb9037bbb732b960b91b606482015260840162000906565b6200098a816200114e565b50565b6000806200099c8686620005a3565b9050620009b56001600160a01b03851633308662001169565b60405163095ea7b360e01b81526001600160a01b0382811660048301526024820185905285169063095ea7b3906044016020604051808303816000875af115801562000a05573d6000803e3d6000fd5b505050506040513d601f19601f8201168201806040525081019062000a2b919062001ab0565b50604051633a8a230760e01b81526001600160a01b03858116600483015260248201859052821690633a8a230790604401600060405180830381600087803b15801562000a7757600080fd5b505af115801562000a8c573d6000803e3d6000fd5b509293505050505b949350505050565b60408051600b808252610180820190925260609190600090826020820161016080368337019050509050636969e58b60e01b8162000ada8462001b67565b93508360ff168151811062000af35762000af362001a9a565b6001600160e01b031990921660209283029190910190910152637bf8f34960e01b8162000b208462001b67565b93508360ff168151811062000b395762000b3962001a9a565b6001600160e01b03199092166020928302919091019091015263029a6d2360e51b8162000b668462001b67565b93508360ff168151811062000b7f5762000b7f62001a9a565b6001600160e01b03199092166020928302919091019091015263328b79af60e21b8162000bac8462001b67565b93508360ff168151811062000bc55762000bc562001a9a565b6001600160e01b031990921660209283029190910190910152630368898b60e21b8162000bf28462001b67565b93508360ff168151811062000c0b5762000c0b62001a9a565b6001600160e01b03199092166020928302919091019091015263ed287f3f60e01b8162000c388462001b67565b93508360ff168151811062000c515762000c5162001a9a565b6001600160e01b031990921660209283029190910190910152637a73083360e11b8162000c7e8462001b67565b93508360ff168151811062000c975762000c9762001a9a565b6001600160e01b03199092166020928302919091019091015263a339d75160e01b8162000cc48462001b67565b93508360ff168151811062000cdd5762000cdd62001a9a565b6001600160e01b0319909216602092830291909101909101526312468b7760e01b8162000d0a8462001b67565b93508360ff168151811062000d235762000d2362001a9a565b6001600160e01b0319909216602092830291909101909101526304b9f48b60e11b8162000d508462001b67565b93508360ff168151811062000d695762000d6962001a9a565b6001600160e01b031990921660209283029190910190910152634377ba4160e11b8162000d968462001b67565b93508360ff168151811062000daf5762000daf62001a9a565b6001600160e01b03199092166020928302919091019091015260ff821615620008b25760405162461bcd60e51b815260206004820152601c60248201527f7573652074686520636f7272656374206172726179206c656e67746800000000604482015260640162000906565b6060620005036005620010a7565b6000620008b28233620011cb565b600062000e43620010f0565b6000826001600160a01b031663cb2af14b6040518163ffffffff1660e01b8152600401602060405180830381865afa15801562000e84573d6000803e3d6000fd5b505050506040513d601f19601f8201168201806040525081019062000eaa919062001b22565b604051632f86e2dd60e01b81526001600160a01b03808316600483015291925090841690632f86e2dd906024016020604051808303816000875af115801562000ef7573d6000803e3d6000fd5b505050506040513d601f19601f8201168201806040525081019062000f1d919062001b08565b5062000f2a8382620011cb565b9392505050565b600a5460405163ed287f3f60e01b81526001600160a01b0384811660048301528381166024830152606092839291169063ed287f3f90604401600060405180830381865afa15801562000f88573d6000803e3d6000fd5b505050506040513d6000823e601f3d908101601f1916820160405262000fb2919081019062001cdd565b915091509250929050565b62000fc7620010f0565b600180546001600160a01b0383166001600160a01b0319909116811790915562000ff96000546001600160a01b031690565b6001600160a01b03167f38d16b8cac22d99fc7c124b9cd0de2d3fa1faef420bfe791d8c362d765e2270060405160405180910390a350565b6001600160a01b0381166000908152600760205260409020606090620008b290620010a7565b600080546001600160a01b038381166001600160a01b0319831681178455604051919092169283917f8be0079c531659141344cd1fd0a4f28419497f9722a3daafe3b4186f6b6457e09190a35050565b6060600062000f2a83620012c4565b6001600160a01b0381166000908152600183016020526040812054151562000f2a565b600062000f2a836001600160a01b03841662001322565b6000546001600160a01b031633146200114c5760405162461bcd60e51b815260206004820181905260248201527f4f776e61626c653a2063616c6c6572206973206e6f7420746865206f776e6572604482015260640162000906565b565b600180546001600160a01b03191690556200098a8162001057565b604080516001600160a01b0385811660248301528416604482015260648082018490528251808303909101815260849091019091526020810180516001600160e01b03166323b872dd60e01b179052620011c590859062001374565b50505050565b6001600160a01b0381166000908152600460205260408120620011ef8185620010b6565b6200120d57604051632af0900d60e21b815260040160405180910390fd5b836001600160a01b0316633e2f147f6040518163ffffffff1660e01b8152600401602060405180830381865afa1580156200124c573d6000803e3d6000fd5b505050506040513d601f19601f8201168201806040525081019062001272919062001ab0565b62001290576040516345916a4760e11b815260040160405180910390fd5b6200129c818562001452565b9150620012a98162001469565b620012bd57620012bb60028462001452565b505b5092915050565b6060816000018054806020026020016040519081016040528092919081815260200182805480156200131657602002820191906000526020600020905b81548152602001906001019080831162001301575b50505050509050919050565b60008181526001830160205260408120546200136b57508154600181810184556000848152602080822090930184905584548482528286019093526040902091909155620008b2565b506000620008b2565b6000620013cb826040518060400160405280602081526020017f5361666545524332303a206c6f772d6c6576656c2063616c6c206661696c6564815250856001600160a01b0316620014749092919063ffffffff16565b8051909150156200144d5780806020019051810190620013ec919062001ab0565b6200144d5760405162461bcd60e51b815260206004820152602a60248201527f5361666545524332303a204552433230206f7065726174696f6e20646964206e6044820152691bdd081cdd58d8d9595960b21b606482015260840162000906565b505050565b600062000f2a836001600160a01b03841662001485565b6000620008b2825490565b606062000a94848460008562001589565b600081815260018301602052604081205480156200157e576000620014ac60018362001db0565b8554909150600090620014c29060019062001db0565b90508181146200152e576000866000018281548110620014e657620014e662001a9a565b90600052602060002001549050808760000184815481106200150c576200150c62001a9a565b6000918252602080832090910192909255918252600188019052604090208390555b855486908062001542576200154262001dca565b600190038181906000526020600020016000905590558560010160008681526020019081526020016000206000905560019350505050620008b2565b6000915050620008b2565b606082471015620015ec5760405162461bcd60e51b815260206004820152602660248201527f416464726573733a20696e73756666696369656e742062616c616e636520666f6044820152651c8818d85b1b60d21b606482015260840162000906565b600080866001600160a01b031685876040516200160a919062001de0565b60006040518083038185875af1925050503d806000811462001649576040519150601f19603f3d011682016040523d82523d6000602084013e6200164e565b606091505b509150915062001661878383876200166c565b979650505050505050565b60608315620016dd578251620016d5576001600160a01b0385163b620016d55760405162461bcd60e51b815260206004820152601d60248201527f416464726573733a2063616c6c20746f206e6f6e2d636f6e7472616374000000604482015260640162000906565b508162000a94565b62000a948383815115620016f45781518083602001fd5b8060405162461bcd60e51b815260040162000906919062001dfe565b613b2b8062001e1483390190565b6001600160a01b03811681146200098a57600080fd5b6000602082840312156200174757600080fd5b813562000f2a816200171e565b600081518084526020808501945080840160005b838110156200178f5781516001600160a01b03168752958201959082019060010162001768565b509495945050505050565b604081526000620017af604083018562001754565b82810360208481019190915284518083528582019282019060005b81811015620017ea578451151583529383019391830191600101620017ca565b5090979650505050505050565b60208152600062000f2a602083018462001754565b600080600080600060a086880312156200182557600080fd5b853562001832816200171e565b9450602086013562001844816200171e565b9350604086013562001856816200171e565b94979396509394606081013594506080013592915050565b600080604083850312156200188257600080fd5b82356200188f816200171e565b91506020830135620018a1816200171e565b809150509250929050565b60008060008060808587031215620018c357600080fd5b8435620018d0816200171e565b93506020850135620018e2816200171e565b92506040850135620018f4816200171e565b9396929550929360600135925050565b6000602082840312156200191757600080fd5b81356001600160e01b03198116811462000f2a57600080fd5b6020808252825182820181905260009190848201906040850190845b81811015620019745783516001600160e01b031916835292840192918401916001016200194c565b50909695505050505050565b60005b838110156200199d57818101518382015260200162001983565b83811115620011c55750506000910152565b60008151808452620019c981602086016020860162001980565b601f01601f19169290920160200192915050565b604080825283519082018190526000906020906060840190828701845b8281101562001a215781516001600160a01b031684529284019290840190600101620019fa565b50505083810382850152845180825282820190600581901b8301840187850160005b8381101562001a7557601f1986840301855262001a62838351620019af565b9487019492509086019060010162001a43565b50909998505050505050505050565b634e487b7160e01b600052604160045260246000fd5b634e487b7160e01b600052603260045260246000fd5b60006020828403121562001ac357600080fd5b8151801515811462000f2a57600080fd5b634e487b7160e01b600052601160045260246000fd5b600060001982141562001b015762001b0162001ad4565b5060010190565b60006020828403121562001b1b57600080fd5b5051919050565b60006020828403121562001b3557600080fd5b815162000f2a816200171e565b60006020828403121562001b5557600080fd5b815160ff8116811462000f2a57600080fd5b600060ff82168062001b7d5762001b7d62001ad4565b6000190192915050565b604051601f8201601f1916810167ffffffffffffffff8111828210171562001bb35762001bb362001a84565b604052919050565b600067ffffffffffffffff82111562001bd85762001bd862001a84565b5060051b60200190565b6000601f838184011262001bf557600080fd5b8251602062001c0e62001c088362001bbb565b62001b87565b82815260059290921b8501810191818101908784111562001c2e57600080fd5b8287015b8481101562001cd157805167ffffffffffffffff8082111562001c555760008081fd5b818a0191508a603f83011262001c6b5760008081fd5b8582015160408282111562001c845762001c8462001a84565b62001c97828b01601f1916890162001b87565b92508183528c8183860101111562001caf5760008081fd5b62001cc08289850183870162001980565b505084525091830191830162001c32565b50979650505050505050565b6000806040838503121562001cf157600080fd5b825167ffffffffffffffff8082111562001d0a57600080fd5b818501915085601f83011262001d1f57600080fd5b8151602062001d3262001c088362001bbb565b82815260059290921b8401810191818101908984111562001d5257600080fd5b948201945b8386101562001d7d57855162001d6d816200171e565b8252948201949082019062001d57565b9188015191965090935050508082111562001d9757600080fd5b5062001da68582860162001be2565b9150509250929050565b60008282101562001dc55762001dc562001ad4565b500390565b634e487b7160e01b600052603160045260246000fd5b6000825162001df481846020870162001980565b9190910192915050565b60208152600062000f2a6020830184620019af56fe60a06040523480156200001157600080fd5b5060405162003b2b38038062003b2b8339810160408190526200003491620002e5565b6001600160a01b0380841660805260408051635fe3b56760e01b81529051600092851691635fe3b5679160048083019260209291908290030181865afa15801562000083573d6000803e3d6000fd5b505050506040513d601f19601f82011682018060405250810190620000a9919062000339565b90506000826001600160a01b0316635fe3b5676040518163ffffffff1660e01b8152600401602060405180830381865afa158015620000ec573d6000803e3d6000fd5b505050506040513d601f19601f8201168201806040525081019062000112919062000339565b9050806001600160a01b0316826001600160a01b0316146200017a5760405162461bcd60e51b815260206004820152601460248201527f6d61726b65747320706f6f6c7320646966666572000000000000000000000000604482015260640160405180910390fd5b600380546001600160a01b038085166001600160a01b03199283161790925560018054928716929091168217905560408051636f307dc360e01b81529051636f307dc3916004808201926020929091908290030181865afa158015620001e4573d6000803e3d6000fd5b505050506040513d601f19601f820116820180604052508101906200020a919062000339565b600480546001600160a01b039283166001600160a01b031991821617825560028054938716939091168317905560408051636f307dc360e01b81529051636f307dc3928281019260209291908290030181865afa15801562000270573d6000803e3d6000fd5b505050506040513d601f19601f8201168201806040525081019062000296919062000339565b600580546001600160a01b03929092166001600160a01b0319928316179055600080549091163317905550620003609350505050565b6001600160a01b0381168114620002e257600080fd5b50565b600080600060608486031215620002fb57600080fd5b83516200030881620002cc565b60208501519093506200031b81620002cc565b60408501519092506200032e81620002cc565b809150509250925092565b6000602082840312156200034c57600080fd5b81516200035981620002cc565b9392505050565b6080516137936200039860003960008181610370015281816103b2015281816112dd015281816118ec0152611aa101526137936000f3fe608060405234801561001057600080fd5b50600436106101375760003560e01c8063958fa280116100b8578063b21fd0291161007c578063b21fd02914610335578063c31443bb14610348578063c393d0e314610350578063c45a015514610358578063cb2af14b1461036b578063ef5cfb8c1461039257610137565b8063958fa280146102e1578063a415deda146102f4578063a7e269a614610307578063a833cb7f1461031a578063aabaecd61461032257610137565b80633e2f147f116100ff5780633e2f147f14610285578063459b9ef11461029d578063555b334a146102a55780636813f999146102bb57806390284933146102ce57610137565b806316f0115b1461020f5780632f86e2dd1461023f578063372500ab14610260578063374607041461026a5780633a8a230714610272575b60008054604051634377ba4160e11b815282356001600160e01b03191660048201526001600160a01b03909116906386ef748290602401602060405180830381865afa15801561018b573d6000803e3d6000fd5b505050506040513d601f19601f820116820180604052508101906101af919061301d565b90506001600160a01b0381166101eb57604051637d60257960e01b81526001600160e01b03196000351660048201526024015b60405180910390fd5b3660008037600080366000845af43d6000803e80801561020a573d6000f35b3d6000fd5b600354610222906001600160a01b031681565b6040516001600160a01b0390911681526020015b60405180910390f35b61025261024d36600461303a565b6103a5565b604051908152602001610236565b6102686106af565b005b6102526106ba565b610268610280366004613057565b610c59565b61028d610dc1565b6040519015158152602001610236565b610252610dd1565b6102ad610f83565b604051610236929190613083565b600554610222906001600160a01b031681565b6102526102dc366004613107565b6112d0565b6102686102ef366004613120565b61139b565b600154610222906001600160a01b031681565b600254610222906001600160a01b031681565b61025261161d565b600454610222906001600160a01b031681565b61025261034336600461303a565b6118df565b6102526119e0565b610252611a86565b600054610222906001600160a01b031681565b6102227f000000000000000000000000000000000000000000000000000000000000000081565b6102686103a036600461303a565b611a96565b6000336001600160a01b037f000000000000000000000000000000000000000000000000000000000000000016148015906103eb57506000546001600160a01b03163314155b15610409576040516370d645e360e01b815260040160405180910390fd5b610414600019611e4a565b600160009054906101000a90046001600160a01b03166001600160a01b031663a6afed956040518163ffffffff1660e01b81526004016020604051808303816000875af1158015610469573d6000803e3d6000fd5b505050506040513d601f19601f8201168201806040525081019061048d91906131a9565b50600354600154604051630ede4edd60e41b81526001600160a01b039182166004820152600092919091169063ede4edd0906024016020604051808303816000875af11580156104e1573d6000803e3d6000fd5b505050506040513d601f19601f8201168201806040525081019061050591906131a9565b905080156105295760405163059548ef60e51b8152600481018290526024016101e2565b6001546040516370a0823160e01b81523060048201526001600160a01b039091169063db006a759082906370a0823190602401602060405180830381865afa158015610579573d6000803e3d6000fd5b505050506040513d601f19601f8201168201806040525081019061059d91906131a9565b6040518263ffffffff1660e01b81526004016105bb91815260200190565b6020604051808303816000875af11580156105da573d6000803e3d6000fd5b505050506040513d601f19601f820116820180604052508101906105fe91906131a9565b905080156106225760405163eeddaac560e01b8152600481018290526024016101e2565b600480546040516370a0823160e01b815230928101929092526001600160a01b0316906370a0823190602401602060405180830381865afa15801561066b573d6000803e3d6000fd5b505050506040513d601f19601f8201168201806040525081019061068f91906131a9565b6004549092506106a9906001600160a01b031684846121cb565b50919050565b6106b833611a96565b565b6000806106c561161d565b9050806106d457600091505090565b600354600254604051638e8f294b60e01b81526001600160a01b0391821660048201526000929190911690638e8f294b906024016040805180830381865afa158015610724573d6000803e3d6000fd5b505050506040513d601f19601f8201168201806040525081019061074891906131d7565b600354600154604051638e8f294b60e01b81526001600160a01b039182166004820152929450600093501690638e8f294b906024016040805180830381865afa158015610799573d6000803e3d6000fd5b505050506040513d601f19601f820116820180604052508101906107bd91906131d7565b9150506000600360009054906101000a90046001600160a01b03166001600160a01b0316637dc0d1d06040518163ffffffff1660e01b8152600401602060405180830381865afa158015610815573d6000803e3d6000fd5b505050506040513d601f19601f82011682018060405250810190610839919061301d565b60025460405163fc57d4df60e01b81526001600160a01b0391821660048201529192506000919083169063fc57d4df90602401602060405180830381865afa158015610889573d6000803e3d6000fd5b505050506040513d601f19601f820116820180604052508101906108ad91906131a9565b60015460405163fc57d4df60e01b81526001600160a01b0391821660048201529192506000919084169063fc57d4df90602401602060405180830381865afa1580156108fd573d6000803e3d6000fd5b505050506040513d601f19601f8201168201806040525081019061092191906131a9565b600354600254604051630cbb414760e11b81523060048201526001600160a01b03918216602482015260016044820152929350600092911690631976828e90606401602060405180830381865afa158015610980573d6000803e3d6000fd5b505050506040513d601f19601f820116820180604052508101906109a491906131a9565b90506000600260009054906101000a90046001600160a01b03166001600160a01b0316633b1d21a26040518163ffffffff1660e01b8152600401602060405180830381865afa1580156109fb573d6000803e3d6000fd5b505050506040513d601f19601f82011682018060405250810190610a1f91906131a9565b905080821115610a2d578091505b6000610a398584613219565b905060008060009054906101000a90046001600160a01b03166001600160a01b03166316bb997f6040518163ffffffff1660e01b8152600401602060405180830381865afa158015610a8f573d6000803e3d6000fd5b505050506040513d601f19601f82011682018060405250810190610ab3919061301d565b60055460048054604051632f53ef2b60e01b81526001600160a01b0394851694632f53ef2b94610aeb94908216939091169101613238565b602060405180830381865afa158015610b08573d6000803e3d6000fd5b505050506040513d601f19601f82011682018060405250810190610b2c91906131a9565b90506000612710610b3d8382613252565b610b479085613219565b610b519190613269565b90506000610b5f8783613269565b90506000610b758c670de0b6b3a7640000613252565b610b7f8d84613219565b610b899190613269565b90506000670de0b6b3a7640000610ba08d84613219565b610baa9190613269565b600154604051633af9e66960e01b81523060048201529192506000916001600160a01b0390911690633af9e66990602401602060405180830381865afa158015610bf8573d6000803e3d6000fd5b505050506040513d601f19601f82011682018060405250810190610c1c91906131a9565b90508e610c29838361328b565b610c3b90670de0b6b3a7640000613219565b610c459190613269565b9f5050505050505050505050505050505090565b610c6e6001600160a01b03831633308461222e565b610c7782612266565b5060035460015460405163929fe9a160e01b81526001600160a01b039283169263929fe9a192610caf92309290911690600401613238565b602060405180830381865afa158015610ccc573d6000803e3d6000fd5b505050506040513d601f19601f82011682018060405250810190610cf091906132a3565b610dbd5760408051600180825281830190925260009160208083019080368337505060015482519293506001600160a01b031691839150600090610d3657610d366132d4565b6001600160a01b039283166020918202929092010152600354604051631853304760e31b815291169063c299823890610d739084906004016132ea565b6000604051808303816000875af1158015610d92573d6000803e3d6000fd5b505050506040513d6000823e601f3d908101601f19168201604052610dba919081019061338c565b50505b5050565b6000610dcb61161d565b15919050565b600080610ddc61161d565b905080610deb57600091505090565b600354604080516307dc0d1d60e41b815290516000926001600160a01b031691637dc0d1d09160048083019260209291908290030181865afa158015610e35573d6000803e3d6000fd5b505050506040513d601f19601f82011682018060405250810190610e59919061301d565b60015460405163fc57d4df60e01b81526001600160a01b03918216600482015291169063fc57d4df90602401602060405180830381865afa158015610ea2573d6000803e3d6000fd5b505050506040513d601f19601f82011682018060405250810190610ec691906131a9565b9050610ed28183613219565b60008054906101000a90046001600160a01b03166001600160a01b0316630da2262c6040518163ffffffff1660e01b8152600401602060405180830381865afa158015610f23573d6000803e3d6000fd5b505050506040513d601f19601f82011682018060405250810190610f4791906131a9565b610f60906ec097ce7bc90715b34b9f1000000000613219565b610f6a9190613269565b610f7c90670de0b6b3a764000061328b565b9250505090565b6060806000600360009054906101000a90046001600160a01b03166001600160a01b0316633605b51b6040518163ffffffff1660e01b8152600401600060405180830381865afa158015610fdb573d6000803e3d6000fd5b505050506040513d6000823e601f3d908101601f191682016040526110039190810190613417565b9050805167ffffffffffffffff81111561101f5761101f6132be565b604051908082528060200260200182016040528015611048578160200160208202803683370190505b509250805167ffffffffffffffff811115611065576110656132be565b60405190808252806020026020018201604052801561108e578160200160208202803683370190505b50915060005b81518110156112ca5760008282815181106110b1576110b16132d4565b6020908102919091010151600154604051632e6f912b60e21b81529192506001600160a01b038084169263b9be44ac926110f19216903090600401613238565b6020604051808303816000875af1158015611110573d6000803e3d6000fd5b505050506040513d601f19601f8201168201806040525081019061113491906131a9565b50600254604051632e6f912b60e21b81526001600160a01b038381169263b9be44ac9261116992909116903090600401613238565b6020604051808303816000875af1158015611188573d6000803e3d6000fd5b505050506040513d601f19601f820116820180604052508101906111ac91906131a9565b50806001600160a01b031663f7c618c16040518163ffffffff1660e01b8152600401602060405180830381865afa1580156111eb573d6000803e3d6000fd5b505050506040513d601f19601f8201168201806040525081019061120f919061301d565b858381518110611221576112216132d4565b6001600160a01b039283166020918202929092010152604051630ff6b5a760e31b815230600482015290821690637fb5ad38906024016020604051808303816000875af1158015611276573d6000803e3d6000fd5b505050506040513d601f19601f8201168201806040525081019061129a91906131a9565b8483815181106112ac576112ac6132d4565b602090810291909101015250806112c2816134a6565b915050611094565b50509091565b6000336001600160a01b037f0000000000000000000000000000000000000000000000000000000000000000161480159061131657506000546001600160a01b03163314155b15611334576040516370d645e360e01b815260040160405180910390fd5b670de0b6b3a764000082101561134f5761134f600019611e4a565b60006113596119e0565b90508281101561137a576113756113708285613252565b61241a565b61138c565b61138c6113878483613252565b611e4a565b6113946119e0565b9392505050565b6001546001600160a01b03163314156114835760006113bc82840184613107565b90506113c781612757565b600480546040516370a0823160e01b815230928101929092526000916001600160a01b03909116906370a0823190602401602060405180830381865afa158015611415573d6000803e3d6000fd5b505050506040513d601f19601f8201168201806040525081019061143991906131a9565b90508481101561147c57600480546040516319ad25f160e11b81526001600160a01b039091169181019190915260248101829052604481018690526064016101e2565b50506115a5565b6002546001600160a01b031633141561155d5760006114a482840184613107565b90506114b0848261281d565b6005546040516370a0823160e01b81523060048201526000916001600160a01b0316906370a0823190602401602060405180830381865afa1580156114f9573d6000803e3d6000fd5b505050506040513d601f19601f8201168201806040525081019061151d91906131a9565b90508481101561147c576005546040516319ad25f160e11b81526001600160a01b03909116600482015260248101829052604481018690526064016101e2565b60405162461bcd60e51b815260206004820152601b60248201527f21666c206e6f742066726f6d20656974686572206d61726b657473000000000060448201526064016101e2565b60405163095ea7b360e01b8152336004820152602481018490526001600160a01b0385169063095ea7b3906044016020604051808303816000875af11580156115f2573d6000803e3d6000fd5b505050506040513d601f19601f8201168201806040525081019061161691906132a3565b5050505050565b600080600360009054906101000a90046001600160a01b03166001600160a01b0316637dc0d1d06040518163ffffffff1660e01b8152600401602060405180830381865afa158015611673573d6000803e3d6000fd5b505050506040513d601f19601f82011682018060405250810190611697919061301d565b60025460405163fc57d4df60e01b81526001600160a01b0391821660048201529192506000919083169063fc57d4df90602401602060405180830381865afa1580156116e7573d6000803e3d6000fd5b505050506040513d601f19601f8201168201806040525081019061170b91906131a9565b60015460405163fc57d4df60e01b81526001600160a01b0391821660048201529192506000919084169063fc57d4df90602401602060405180830381865afa15801561175b573d6000803e3d6000fd5b505050506040513d601f19601f8201168201806040525081019061177f91906131a9565b600154604051633af9e66960e01b81523060048201529192506000916001600160a01b0390911690633af9e66990602401602060405180830381865afa1580156117cd573d6000803e3d6000fd5b505050506040513d601f19601f820116820180604052508101906117f191906131a9565b90506000670de0b6b3a76400006118088385613219565b6118129190613269565b6002546040516305eff7ef60e21b81523060048201529192506000916001600160a01b03909116906317bfdfbc90602401602060405180830381865afa158015611860573d6000803e3d6000fd5b505050506040513d601f19601f8201168201806040525081019061188491906131a9565b90506000670de0b6b3a764000061189b8388613219565b6118a59190613269565b905060006118b38285613252565b9050856118c882670de0b6b3a7640000613219565b6118d29190613269565b9850505050505050505090565b6000336001600160a01b037f0000000000000000000000000000000000000000000000000000000000000000161461192a576040516370d645e360e01b815260040160405180910390fd5b600061193461161d565b11156119535760405163716041e560e01b815260040160405180910390fd5b6005546040516370a0823160e01b81523060048201526000916001600160a01b0316906370a0823190602401602060405180830381865afa15801561199c573d6000803e3d6000fd5b505050506040513d601f19601f820116820180604052508101906119c091906131a9565b6005549091506119da906001600160a01b031684836121cb565b92915050565b6000806119eb61161d565b9050806119fa57600091505090565b600154604051633af9e66960e01b81523060048201526000916001600160a01b031690633af9e66990602401602060405180830381865afa158015611a43573d6000803e3d6000fd5b505050506040513d601f19601f82011682018060405250810190611a6791906131a9565b905081611a7c82670de0b6b3a7640000613219565b610f7c9190613269565b6000611a91336103a5565b905090565b336001600160a01b037f00000000000000000000000000000000000000000000000000000000000000001614801590611ada57506000546001600160a01b03163314155b15611af8576040516370d645e360e01b815260040160405180910390fd5b60035460408051633605b51b60e01b815290516000926001600160a01b031691633605b51b91600480830192869291908290030181865afa158015611b41573d6000803e3d6000fd5b505050506040513d6000823e601f3d908101601f19168201604052611b699190810190613417565b905060005b8151811015611e45576000828281518110611b8b57611b8b6132d4565b6020908102919091010151600154604051632e6f912b60e21b81529192506001600160a01b038084169263b9be44ac92611bcb9216903090600401613238565b6020604051808303816000875af1158015611bea573d6000803e3d6000fd5b505050506040513d601f19601f82011682018060405250810190611c0e91906131a9565b50600254604051632e6f912b60e21b81526001600160a01b038381169263b9be44ac92611c4392909116903090600401613238565b6020604051808303816000875af1158015611c62573d6000803e3d6000fd5b505050506040513d601f19601f82011682018060405250810190611c8691906131a9565b50604051633bd73ee360e21b81523060048201526001600160a01b0382169063ef5cfb8c90602401600060405180830381600087803b158015611cc857600080fd5b505af1158015611cdc573d6000803e3d6000fd5b505050506000816001600160a01b031663f7c618c16040518163ffffffff1660e01b8152600401602060405180830381865afa158015611d20573d6000803e3d6000fd5b505050506040513d601f19601f82011682018060405250810190611d44919061301d565b6040516370a0823160e01b81523060048201529091506000906001600160a01b038316906370a0823190602401602060405180830381865afa158015611d8e573d6000803e3d6000fd5b505050506040513d601f19601f82011682018060405250810190611db291906131a9565b90508015611e2f5760405163a9059cbb60e01b81526001600160a01b0387811660048301526024820183905283169063a9059cbb906044016020604051808303816000875af1158015611e09573d6000803e3d6000fd5b505050506040513d601f19601f82011682018060405250810190611e2d91906132a3565b505b5050508080611e3d906134a6565b915050611b6e565b505050565b600354600254604051638e8f294b60e01b81526001600160a01b03918216600482015260009283928392911690638e8f294b906024016040805180830381865afa158015611e9c573d6000803e3d6000fd5b505050506040513d601f19601f82011682018060405250810190611ec091906131d7565b9150506000600360009054906101000a90046001600160a01b03166001600160a01b0316637dc0d1d06040518163ffffffff1660e01b8152600401602060405180830381865afa158015611f18573d6000803e3d6000fd5b505050506040513d601f19601f82011682018060405250810190611f3c919061301d565b60025460405163fc57d4df60e01b81526001600160a01b0391821660048201529192506000919083169063fc57d4df90602401602060405180830381865afa158015611f8c573d6000803e3d6000fd5b505050506040513d601f19601f82011682018060405250810190611fb091906131a9565b60015460405163fc57d4df60e01b81526001600160a01b0391821660048201529192506000919084169063fc57d4df90602401602060405180830381865afa158015612000573d6000803e3d6000fd5b505050506040513d601f19601f8201168201806040525081019061202491906131a9565b90506000198714156120db576002546040516305eff7ef60e21b81523060048201526001600160a01b03909116906317bfdfbc90602401602060405180830381865afa158015612078573d6000803e3d6000fd5b505050506040513d601f19601f8201168201806040525081019061209c91906131a9565b945060006120aa8387613219565b9050846120b78383613269565b6120c990670de0b6b3a7640000613219565b6120d39190613269565b96505061213d565b670de0b6b3a7640000876120ed61161d565b6120f79190613219565b6121019190613269565b9550600061210f8288613219565b9050670de0b6b3a7640000856121258584613269565b61212f9190613219565b6121399190613269565b9550505b84156121c2576002546040805160208082018a90528251808303909101815281830192839052633c3b4b8960e01b9092526001600160a01b0390921691633c3b4b899161218f91899190604401613519565b600060405180830381600087803b1580156121a957600080fd5b505af11580156121bd573d6000803e3d6000fd5b505050505b50505050505050565b6040516001600160a01b038316602482015260448101829052611e4590849063a9059cbb60e01b906064015b60408051601f198184030181529190526020810180516001600160e01b03166001600160e01b031990931692909217909152612a63565b6040516001600160a01b0380851660248301528316604482015260648101829052610dba9085906323b872dd60e01b906084016121f7565b6004546000906001600160a01b03838116911614612297576004546122959083906001600160a01b0316612b35565b505b600480546040516370a0823160e01b815230928101929092526001600160a01b0316906370a0823190602401602060405180830381865afa1580156122e0573d6000803e3d6000fd5b505050506040513d601f19601f8201168201806040525081019061230491906131a9565b6004805460015460405163095ea7b360e01b81526001600160a01b039182169381019390935260248301849052929350919091169063095ea7b3906044016020604051808303816000875af1158015612361573d6000803e3d6000fd5b505050506040513d601f19601f8201168201806040525081019061238591906132a3565b5060015460405163140e25ad60e31b8152600481018390526000916001600160a01b03169063a0712d68906024016020604051808303816000875af11580156123d2573d6000803e3d6000fd5b505050506040513d601f19601f820116820180604052508101906123f691906131a9565b905080156106a957604051631a25a97b60e31b8152600481018290526024016101e2565b600354604080516307dc0d1d60e41b815290516000926001600160a01b031691637dc0d1d09160048083019260209291908290030181865afa158015612464573d6000803e3d6000fd5b505050506040513d601f19601f82011682018060405250810190612488919061301d565b60025460405163fc57d4df60e01b81526001600160a01b0391821660048201529192506000919083169063fc57d4df90602401602060405180830381865afa1580156124d8573d6000803e3d6000fd5b505050506040513d601f19601f820116820180604052508101906124fc91906131a9565b60015460405163fc57d4df60e01b81526001600160a01b0391821660048201529192506000919084169063fc57d4df90602401602060405180830381865afa15801561254c573d6000803e3d6000fd5b505050506040513d601f19601f8201168201806040525081019061257091906131a9565b90506000670de0b6b3a76400008561258661161d565b6125909190613219565b61259a9190613269565b905060006125a88383613219565b905060006125b68583613269565b905060008060009054906101000a90046001600160a01b03166001600160a01b03166316bb997f6040518163ffffffff1660e01b8152600401602060405180830381865afa15801561260c573d6000803e3d6000fd5b505050506040513d601f19601f82011682018060405250810190612630919061301d565b60055460048054604051632f53ef2b60e01b81526001600160a01b0394851694632f53ef2b9461266894908216939091169101613238565b602060405180830381865afa158015612685573d6000803e3d6000fd5b505050506040513d601f19601f820116820180604052508101906126a991906131a9565b90506127106126b8828261328b565b6126c29084613219565b6126cc9190613269565b6001546040805160208082018590528251808303909101815281830192839052633c3b4b8960e01b9092529294506001600160a01b0390911691633c3b4b899161271b91889190604401613519565b600060405180830381600087803b15801561273557600080fd5b505af1158015612749573d6000803e3d6000fd5b505050505050505050505050565b60045461276c906001600160a01b0316612266565b5060025460405163317afabb60e21b8152600481018390526000916001600160a01b03169063c5ebeaec906024016020604051808303816000875af11580156127b9573d6000803e3d6000fd5b505050506040513d601f19601f820116820180604052508101906127dd91906131a9565b9050801561280157604051636f86fa6b60e11b8152600481018290526024016101e2565b600554600454611e45916001600160a01b039081169116612b35565b6002546040516305eff7ef60e21b81523060048201526000916001600160a01b0316906317bfdfbc90602401602060405180830381865afa158015612866573d6000803e3d6000fd5b505050506040513d601f19601f8201168201806040525081019061288a91906131a9565b9050600081841061289b578161289d565b835b60055460025460405163095ea7b360e01b81526001600160a01b03918216600482015260248101849052929350169063095ea7b3906044016020604051808303816000875af11580156128f4573d6000803e3d6000fd5b505050506040513d601f19601f8201168201806040525081019061291891906132a3565b5060025460405163073a938160e11b8152600481018390526000916001600160a01b031690630e752702906024016020604051808303816000875af1158015612965573d6000803e3d6000fd5b505050506040513d601f19601f8201168201806040525081019061298991906131a9565b905080156129ac5760405162f0f70d60e41b8152600481018290526024016101e2565b60015460405163852a12e360e01b8152600481018690526001600160a01b039091169063852a12e3906024016020604051808303816000875af11580156129f7573d6000803e3d6000fd5b505050506040513d601f19601f82011682018060405250810190612a1b91906131a9565b90508015612a3f5760405163213e72eb60e11b8152600481018290526024016101e2565b600454600554612a5b916001600160a01b039081169116612b35565b505050505050565b6000612ab8826040518060400160405280602081526020017f5361666545524332303a206c6f772d6c6576656c2063616c6c206661696c6564815250856001600160a01b0316612cc59092919063ffffffff16565b805190915015611e455780806020019051810190612ad691906132a3565b611e455760405162461bcd60e51b815260206004820152602a60248201527f5361666545524332303a204552433230206f7065726174696f6e20646964206e6044820152691bdd081cdd58d8d9595960b21b60648201526084016101e2565b6040516370a0823160e01b815230600482015260009081906001600160a01b038516906370a0823190602401602060405180830381865afa158015612b7e573d6000803e3d6000fd5b505050506040513d601f19601f82011682018060405250810190612ba291906131a9565b6000805460405163ed287f3f60e01b8152929350909182916001600160a01b03169063ed287f3f90612bda9089908990600401613238565b600060405180830381865afa158015612bf7573d6000803e3d6000fd5b505050506040513d6000823e601f3d908101601f19168201604052612c1f9190810190613616565b91509150815160001415612c4657604051634fd1fa8360e11b815260040160405180910390fd5b60005b8251811015612cbb576000838281518110612c6657612c666132d4565b602002602001015190506000838381518110612c8457612c846132d4565b60200260200101519050612c9a89878484612cdc565b9099508998509650869550829150612cb39050816134a6565b915050612c49565b5050505092915050565b6060612cd48484600085612d5d565b949350505050565b6000806000612d39856310badf4e60e01b898988604051602401612d02939291906136db565b60408051601f198184030181529190526020810180516001600160e01b03166001600160e01b031990931692909217909152612e38565b905080806020019051810190612d4f9190613702565b925092505094509492505050565b606082471015612dbe5760405162461bcd60e51b815260206004820152602660248201527f416464726573733a20696e73756666696369656e742062616c616e636520666f6044820152651c8818d85b1b60d21b60648201526084016101e2565b600080866001600160a01b03168587604051612dda9190613730565b60006040518083038185875af1925050503d8060008114612e17576040519150601f19603f3d011682016040523d82523d6000602084013e612e1c565b606091505b5091509150612e2d87838387612f2c565b979650505050505050565b60606001600160a01b0383163b612ea05760405162461bcd60e51b815260206004820152602660248201527f416464726573733a2064656c65676174652063616c6c20746f206e6f6e2d636f6044820152651b9d1c9858dd60d21b60648201526084016101e2565b600080846001600160a01b031684604051612ebb9190613730565b600060405180830381855af49150503d8060008114612ef6576040519150601f19603f3d011682016040523d82523d6000602084013e612efb565b606091505b5091509150612f23828260405180606001604052806027815260200161376060279139612fa2565b95945050505050565b60608315612f98578251612f91576001600160a01b0385163b612f915760405162461bcd60e51b815260206004820152601d60248201527f416464726573733a2063616c6c20746f206e6f6e2d636f6e747261637400000060448201526064016101e2565b5081612cd4565b612cd48383612fdb565b60608315612fb1575081611394565b825115612fc15782518084602001fd5b8160405162461bcd60e51b81526004016101e2919061374c565b815115612feb5781518083602001fd5b8060405162461bcd60e51b81526004016101e2919061374c565b6001600160a01b038116811461301a57600080fd5b50565b60006020828403121561302f57600080fd5b815161139481613005565b60006020828403121561304c57600080fd5b813561139481613005565b6000806040838503121561306a57600080fd5b823561307581613005565b946020939093013593505050565b604080825283519082018190526000906020906060840190828701845b828110156130c55781516001600160a01b0316845292840192908401906001016130a0565b5050508381038285015284518082528583019183019060005b818110156130fa578351835292840192918401916001016130de565b5090979650505050505050565b60006020828403121561311957600080fd5b5035919050565b6000806000806060858703121561313657600080fd5b843561314181613005565b935060208501359250604085013567ffffffffffffffff8082111561316557600080fd5b818701915087601f83011261317957600080fd5b81358181111561318857600080fd5b88602082850101111561319a57600080fd5b95989497505060200194505050565b6000602082840312156131bb57600080fd5b5051919050565b805180151581146131d257600080fd5b919050565b600080604083850312156131ea57600080fd5b6131f3836131c2565b9150602083015190509250929050565b634e487b7160e01b600052601160045260246000fd5b600081600019048311821515161561323357613233613203565b500290565b6001600160a01b0392831681529116602082015260400190565b60008282101561326457613264613203565b500390565b60008261328657634e487b7160e01b600052601260045260246000fd5b500490565b6000821982111561329e5761329e613203565b500190565b6000602082840312156132b557600080fd5b611394826131c2565b634e487b7160e01b600052604160045260246000fd5b634e487b7160e01b600052603260045260246000fd5b6020808252825182820181905260009190848201906040850190845b8181101561332b5783516001600160a01b031683529284019291840191600101613306565b50909695505050505050565b604051601f8201601f1916810167ffffffffffffffff81118282101715613360576133606132be565b604052919050565b600067ffffffffffffffff821115613382576133826132be565b5060051b60200190565b6000602080838503121561339f57600080fd5b825167ffffffffffffffff8111156133b657600080fd5b8301601f810185136133c757600080fd5b80516133da6133d582613368565b613337565b81815260059190911b820183019083810190878311156133f957600080fd5b928401925b82841015612e2d578351825292840192908401906133fe565b6000602080838503121561342a57600080fd5b825167ffffffffffffffff81111561344157600080fd5b8301601f8101851361345257600080fd5b80516134606133d582613368565b81815260059190911b8201830190838101908783111561347f57600080fd5b928401925b82841015612e2d57835161349781613005565b82529284019290840190613484565b60006000198214156134ba576134ba613203565b5060010190565b60005b838110156134dc5781810151838201526020016134c4565b83811115610dba5750506000910152565b600081518084526135058160208601602086016134c1565b601f01601f19169290920160200192915050565b828152604060208201526000612cd460408301846134ed565b6000601f838184011261354457600080fd5b825160206135546133d583613368565b82815260059290921b8501810191818101908784111561357357600080fd5b8287015b8481101561360a57805167ffffffffffffffff808211156135985760008081fd5b818a0191508a603f8301126135ad5760008081fd5b858201516040828211156135c3576135c36132be565b6135d4828b01601f19168901613337565b92508183528c818386010111156135eb5760008081fd5b6135fa828985018387016134c1565b5050845250918301918301613577565b50979650505050505050565b6000806040838503121561362957600080fd5b825167ffffffffffffffff8082111561364157600080fd5b818501915085601f83011261365557600080fd5b815160206136656133d583613368565b82815260059290921b8401810191818101908984111561368457600080fd5b948201945b838610156136ab57855161369c81613005565b82529482019490820190613689565b918801519196509093505050808211156136c457600080fd5b506136d185828601613532565b9150509250929050565b60018060a01b0384168152826020820152606060408201526000612f2360608301846134ed565b6000806040838503121561371557600080fd5b825161372081613005565b6020939093015192949293505050565b600082516137428184602087016134c1565b9190910192915050565b60208152600061139460208301846134ed56fe416464726573733a206c6f772d6c6576656c2064656c65676174652063616c6c206661696c6564a164736f6c634300080a000aa164736f6c634300080a000a",
    "linkReferences": {}
  },
  "methodIdentifiers": {
    "_getExtensionFunctions()": "89f8132e",
    "acceptOwnership()": "79ba5097",
    "blocksPerYear()": "a385fb96",
    "closeAndRemoveUserPosition(address)": "d337a1da",
    "createAndFundPosition(address,address,address,uint256)": "7bf8f349",
    "createAndFundPositionAtRatio(address,address,address,uint256,uint256)": "534da460",
    "createPosition(address,address)": "6969e58b",
    "feeDistributor()": "0d43e8ad",
    "getAccountsWithOpenPositions()": "12468b77",
    "getBorrowableMarketsByCollateral(address)": "f4e61066",
    "getMinBorrowNative()": "0da2262c",
    "getPositionsByAccount(address)": "0973e916",
    "getPositionsExtension(bytes4)": "86ef7482",
    "getRedemptionStrategies(address,address)": "ed287f3f",
    "getWhitelistedCollateralMarkets()": "a339d751",
    "liquidatorsRegistry()": "16bb997f",
    "owner()": "8da5cb5b",
    "pendingOwner()": "e30c3978",
    "removeClosedPosition(address)": "ca2de6bc",
    "renounceOwnership()": "715018a6",
    "transferOwnership(address)": "f2fde38b"
  }
}