{
  "address": "0xf51a6bc67Fa00EDE28d8Cd540D1924fA9d50913f",
  "abi": [
    {
      "anonymous": false,
      "inputs": [
        {
          "indexed": false,
          "internalType": "uint8",
          "name": "version",
          "type": "uint8"
        }
      ],
      "name": "Initialized",
      "type": "event"
    },
    {
      "anonymous": false,
      "inputs": [
        {
          "indexed": false,
          "internalType": "address",
          "name": "oldAdmin",
          "type": "address"
        },
        {
          "indexed": false,
          "internalType": "address",
          "name": "newAdmin",
          "type": "address"
        }
      ],
      "name": "NewAdmin",
      "type": "event"
    },
    {
      "anonymous": false,
      "inputs": [
        {
          "indexed": false,
          "internalType": "address",
          "name": "oldOracle",
          "type": "address"
        },
        {
          "indexed": false,
          "internalType": "address",
          "name": "newOracle",
          "type": "address"
        }
      ],
      "name": "NewDefaultOracle",
      "type": "event"
    },
    {
      "anonymous": false,
      "inputs": [
        {
          "indexed": false,
          "internalType": "address",
          "name": "underlying",
          "type": "address"
        },
        {
          "indexed": false,
          "internalType": "address",
          "name": "oldOracle",
          "type": "address"
        },
        {
          "indexed": false,
          "internalType": "address",
          "name": "newOracle",
          "type": "address"
        }
      ],
      "name": "NewOracle",
      "type": "event"
    },
    {
      "inputs": [
        {
          "internalType": "address[]",
          "name": "underlyings",
          "type": "address[]"
        },
        {
          "internalType": "contract BasePriceOracle[]",
          "name": "_oracles",
          "type": "address[]"
        }
      ],
      "name": "add",
      "outputs": [],
      "stateMutability": "nonpayable",
      "type": "function"
    },
    {
      "inputs": [],
      "name": "admin",
      "outputs": [
        {
          "internalType": "address",
          "name": "",
          "type": "address"
        }
      ],
      "stateMutability": "view",
      "type": "function"
    },
    {
      "inputs": [],
      "name": "canAdminOverwrite",
      "outputs": [
        {
          "internalType": "bool",
          "name": "",
          "type": "bool"
        }
      ],
      "stateMutability": "view",
      "type": "function"
    },
    {
      "inputs": [
        {
          "internalType": "address",
          "name": "newAdmin",
          "type": "address"
        }
      ],
      "name": "changeAdmin",
      "outputs": [],
      "stateMutability": "nonpayable",
      "type": "function"
    },
    {
      "inputs": [],
      "name": "defaultOracle",
      "outputs": [
        {
          "internalType": "contract BasePriceOracle",
          "name": "",
          "type": "address"
        }
      ],
      "stateMutability": "view",
      "type": "function"
    },
    {
      "inputs": [
        {
          "internalType": "contract ICErc20",
          "name": "cToken",
          "type": "address"
        }
      ],
      "name": "getUnderlyingPrice",
      "outputs": [
        {
          "internalType": "uint256",
          "name": "",
          "type": "uint256"
        }
      ],
      "stateMutability": "view",
      "type": "function"
    },
    {
      "inputs": [
        {
          "internalType": "address[]",
          "name": "underlyings",
          "type": "address[]"
        },
        {
          "internalType": "contract BasePriceOracle[]",
          "name": "_oracles",
          "type": "address[]"
        },
        {
          "internalType": "contract BasePriceOracle",
          "name": "_defaultOracle",
          "type": "address"
        },
        {
          "internalType": "address",
          "name": "_admin",
          "type": "address"
        },
        {
          "internalType": "bool",
          "name": "_canAdminOverwrite",
          "type": "bool"
        },
        {
          "internalType": "address",
          "name": "_wtoken",
          "type": "address"
        }
      ],
      "name": "initialize",
      "outputs": [],
      "stateMutability": "nonpayable",
      "type": "function"
    },
    {
      "inputs": [
        {
          "internalType": "address",
          "name": "",
          "type": "address"
        }
      ],
      "name": "oracles",
      "outputs": [
        {
          "internalType": "contract BasePriceOracle",
          "name": "",
          "type": "address"
        }
      ],
      "stateMutability": "view",
      "type": "function"
    },
    {
      "inputs": [
        {
          "internalType": "address",
          "name": "underlying",
          "type": "address"
        }
      ],
      "name": "price",
      "outputs": [
        {
          "internalType": "uint256",
          "name": "",
          "type": "uint256"
        }
      ],
      "stateMutability": "view",
      "type": "function"
    },
    {
      "inputs": [
        {
          "internalType": "contract BasePriceOracle",
          "name": "newOracle",
          "type": "address"
        }
      ],
      "name": "setDefaultOracle",
      "outputs": [],
      "stateMutability": "nonpayable",
      "type": "function"
    },
    {
      "inputs": [],
      "name": "wtoken",
      "outputs": [
        {
          "internalType": "address",
          "name": "",
          "type": "address"
        }
      ],
      "stateMutability": "view",
      "type": "function"
    }
  ],
  "transactionHash": "0xed353ba936e68d795d247942bf87d4bd4d7e68dd04e5c9b837a1376bd40aa4ba",
  "args": [],
  "numDeployments": 1,
  "bytecode": {
    "object": "0x608060405234801561001057600080fd5b50610e3c806100206000396000f3fe608060405234801561001057600080fd5b50600436106100a95760003560e01c80639c9192c6116100715780639c9192c614610137578063addd50991461014a578063aea9107814610173578063c44014d214610194578063f851a440146101a7578063fc57d4df146101ba57600080fd5b8063656b0fd1146100ae57806380dce169146100d1578063882b92a7146100fc5780638f283970146101115780639c0591c814610124575b600080fd5b600354600160a01b900460ff161560405190151581526020015b60405180910390f35b6002546100e4906001600160a01b031681565b6040516001600160a01b0390911681526020016100c8565b61010f61010a366004610bab565b6101cd565b005b61010f61011f366004610cae565b610458565b6004546100e4906001600160a01b031681565b61010f610145366004610d17565b6104e4565b6100e4610158366004610cae565b6001602052600090815260409020546001600160a01b031681565b610186610181366004610cae565b61073f565b6040519081526020016100c8565b61010f6101a2366004610cae565b6108ab565b6003546100e4906001600160a01b031681565b6101866101c8366004610cae565b61092f565b600054610100900460ff16158080156101ed5750600054600160ff909116105b806102075750303b158015610207575060005460ff166001145b61026f5760405162461bcd60e51b815260206004820152602e60248201527f496e697469616c697a61626c653a20636f6e747261637420697320616c72656160448201526d191e481a5b9a5d1a585b1a5e995960921b60648201526084015b60405180910390fd5b6000805460ff191660011790558015610292576000805461ff0019166101001790555b85518751146102f15760405162461bcd60e51b815260206004820152602560248201527f4c656e67746873206f6620626f746820617272617973206d757374206265206560448201526438bab0b61760d91b6064820152608401610266565b60005b87518110156103b957600088828151811061031157610311610d83565b60200260200101519050600088838151811061032f5761032f610d83565b6020908102919091018101516001600160a01b03848116600081815260018552604080822080546001600160a01b03191694861694851790558051928352948201529283015291507f10e7c87bebf274db4de1b5f9fc731d6f83096e550bd871b681314578404d31269060600160405180910390a1505080806103b190610d99565b9150506102f4565b50600280546001600160a01b038088166001600160a01b03199283161790925560038054600160a01b8715026001600160a81b0319909116888516171790556004805492851692909116919091179055801561044f576000805461ff0019169055604051600181527f7f26b83ff96e1f2b6a682f133852f6798a09c465da95921460cefb38474024989060200160405180910390a15b50505050505050565b6003546001600160a01b031633146104825760405162461bcd60e51b815260040161026690610dc2565b600380546001600160a01b038381166001600160a01b031983168117909355604080519190921680825260208201939093527ff9ffabca9c8276e99321725bcb43fb076a6c66a54b7f21c4e8146d8519b417dc91015b60405180910390a15050565b6003546001600160a01b0316331461050e5760405162461bcd60e51b815260040161026690610dc2565b821580159061051c57508281145b61058e5760405162461bcd60e51b815260206004820152603860248201527f4c656e67746873206f6620626f746820617272617973206d757374206265206560448201527f7175616c20616e642067726561746572207468616e20302e00000000000000006064820152608401610266565b60005b838110156107385760008585838181106105ad576105ad610d83565b90506020020160208101906105c29190610cae565b6001600160a01b038181166000908152600160205260409020546003549293501690600160a01b900460ff1615610685576001600160a01b038116156106855760405162461bcd60e51b815260206004820152604c60248201527f41646d696e2063616e6e6f74206f7665727772697465206578697374696e672060448201527f61737369676e6d656e7473206f66206f7261636c657320746f20756e6465726c60648201526b3cb4b733903a37b5b2b7399760a11b608482015260a401610266565b600085858581811061069957610699610d83565b90506020020160208101906106ae9190610cae565b6001600160a01b0384811660008181526001602090815260409182902080546001600160a01b0319168686169081179091558251938452938716908301528101919091529091507f10e7c87bebf274db4de1b5f9fc731d6f83096e550bd871b681314578404d31269060600160405180910390a1505050808061073090610d99565b915050610591565b5050505050565b6004546000906001600160a01b03838116911614156107675750670de0b6b3a7640000919050565b6001600160a01b038083166000908152600160205260409020541680156107fa576040516315d5220f60e31b81526001600160a01b03848116600483015282169063aea91078906024015b602060405180830381865afa1580156107cf573d6000803e3d6000fd5b505050506040513d601f19601f820116820180604052508101906107f39190610df9565b9392505050565b6002546001600160a01b03161561083d576002546040516315d5220f60e31b81526001600160a01b0385811660048301529091169063aea91078906024016107b2565b60405162461bcd60e51b815260206004820152603960248201527f5072696365206f7261636c65206e6f7420666f756e6420666f7220746869732060448201527f756e6465726c79696e6720746f6b656e20616464726573732e000000000000006064820152608401610266565b6003546001600160a01b031633146108d55760405162461bcd60e51b815260040161026690610dc2565b600280546001600160a01b038381166001600160a01b031983168117909355604080519190921680825260208201939093527f0df2d61fdd201e9633368dca495e2c469e36c48039263448dd8a2a954c19ef1a91016104d8565b600080826001600160a01b0316636f307dc36040518163ffffffff1660e01b8152600401602060405180830381865afa158015610970573d6000803e3d6000fd5b505050506040513d601f19601f820116820180604052508101906109949190610e12565b6004549091506001600160a01b03808316911614156109bd5750670de0b6b3a764000092915050565b6001600160a01b03808216600090815260016020526040902054168015610a515760405163fc57d4df60e01b81526001600160a01b03858116600483015282169063fc57d4df906024015b602060405180830381865afa158015610a25573d6000803e3d6000fd5b505050506040513d601f19601f82011682018060405250810190610a499190610df9565b949350505050565b6002546001600160a01b03161561083d5760025460405163fc57d4df60e01b81526001600160a01b0386811660048301529091169063fc57d4df90602401610a08565b634e487b7160e01b600052604160045260246000fd5b604051601f8201601f1916810167ffffffffffffffff81118282101715610ad357610ad3610a94565b604052919050565b600067ffffffffffffffff821115610af557610af5610a94565b5060051b60200190565b6001600160a01b0381168114610b1457600080fd5b50565b8035610b2281610aff565b919050565b600082601f830112610b3857600080fd5b81356020610b4d610b4883610adb565b610aaa565b82815260059290921b84018101918181019086841115610b6c57600080fd5b8286015b84811015610b90578035610b8381610aff565b8352918301918301610b70565b509695505050505050565b80358015158114610b2257600080fd5b60008060008060008060c08789031215610bc457600080fd5b863567ffffffffffffffff80821115610bdc57600080fd5b818901915089601f830112610bf057600080fd5b81356020610c00610b4883610adb565b82815260059290921b8401810191818101908d841115610c1f57600080fd5b948201945b83861015610c46578535610c3781610aff565b82529482019490820190610c24565b9a50508a013592505080821115610c5c57600080fd5b50610c6989828a01610b27565b955050610c7860408801610b17565b9350610c8660608801610b17565b9250610c9460808801610b9b565b9150610ca260a08801610b17565b90509295509295509295565b600060208284031215610cc057600080fd5b81356107f381610aff565b60008083601f840112610cdd57600080fd5b50813567ffffffffffffffff811115610cf557600080fd5b6020830191508360208260051b8501011115610d1057600080fd5b9250929050565b60008060008060408587031215610d2d57600080fd5b843567ffffffffffffffff80821115610d4557600080fd5b610d5188838901610ccb565b90965094506020870135915080821115610d6a57600080fd5b50610d7787828801610ccb565b95989497509550505050565b634e487b7160e01b600052603260045260246000fd5b6000600019821415610dbb57634e487b7160e01b600052601160045260246000fd5b5060010190565b60208082526018908201527f53656e646572206973206e6f74207468652061646d696e2e0000000000000000604082015260600190565b600060208284031215610e0b57600080fd5b5051919050565b600060208284031215610e2457600080fd5b81516107f381610aff56fea164736f6c634300080a000a",
    "linkReferences": {}
  },
  "methodIdentifiers": {
    "add(address[],address[])": "9c9192c6",
    "admin()": "f851a440",
    "canAdminOverwrite()": "656b0fd1",
    "changeAdmin(address)": "8f283970",
    "defaultOracle()": "80dce169",
    "getUnderlyingPrice(address)": "fc57d4df",
    "initialize(address[],address[],address,address,bool,address)": "882b92a7",
    "oracles(address)": "addd5099",
    "price(address)": "aea91078",
    "setDefaultOracle(address)": "c44014d2",
    "wtoken()": "9c0591c8"
  }
}