{
  "address": "0x4531e465491c7f2C5cEb087f71D9119dBc07D276",
  "abi": [
    {
      "inputs": [
        {
          "internalType": "address",
          "name": "_rootOracle",
          "type": "address"
        },
        {
          "internalType": "address",
          "name": "_logic",
          "type": "address"
        },
        {
          "internalType": "address",
          "name": "_wtoken",
          "type": "address"
        }
      ],
      "stateMutability": "nonpayable",
      "type": "constructor"
    },
    {
      "inputs": [
        {
          "internalType": "address",
          "name": "uniswapV2Factory",
          "type": "address"
        },
        {
          "internalType": "address",
          "name": "baseToken",
          "type": "address"
        }
      ],
      "name": "deploy",
      "outputs": [
        {
          "internalType": "address",
          "name": "",
          "type": "address"
        }
      ],
      "stateMutability": "nonpayable",
      "type": "function"
    },
    {
      "inputs": [],
      "name": "logic",
      "outputs": [
        {
          "internalType": "address",
          "name": "",
          "type": "address"
        }
      ],
      "stateMutability": "view",
      "type": "function"
    },
    {
      "inputs": [
        {
          "internalType": "address",
          "name": "",
          "type": "address"
        },
        {
          "internalType": "address",
          "name": "",
          "type": "address"
        }
      ],
      "name": "oracles",
      "outputs": [
        {
          "internalType": "contract UniswapTwapPriceOracleV2",
          "name": "",
          "type": "address"
        }
      ],
      "stateMutability": "view",
      "type": "function"
    },
    {
      "inputs": [],
      "name": "rootOracle",
      "outputs": [
        {
          "internalType": "address",
          "name": "",
          "type": "address"
        }
      ],
      "stateMutability": "view",
      "type": "function"
    },
    {
      "inputs": [],
      "name": "wtoken",
      "outputs": [
        {
          "internalType": "address",
          "name": "",
          "type": "address"
        }
      ],
      "stateMutability": "view",
      "type": "function"
    }
  ],
  "transactionHash": "0xb1f5620f68078574fb70f3593d7fd01efd70749edc8e86855f18608088436fea",
  "args": [
    "0xcE42abBE1A63722f76042826BCB1Dee4a665b104",
    "0x908d32bf1434B5dA08B30ca0B90720f279d30Bb6",
    "0xae13d989daC2f0dEbFf460aC112a837C89BAa7cd"
  ],
  "numDeployments": 6,
  "solcInputHash": "cdaa356e21f74b41673ce069a5a3b631",
  "bytecode": "0x60e060405234801561001057600080fd5b5060405161061538038061061583398101604081905261002f9161015d565b6001600160a01b03831661009c5760405162461bcd60e51b815260206004820152602960248201527f556e69737761705477617050726963654f7261636c655632526f6f74206e6f74604482015268103232b334b732b21760b91b60648201526084015b60405180910390fd5b6001600160a01b0382166101245760405162461bcd60e51b815260206004820152604360248201527f556e69737761705477617050726963654f7261636c65563220696d706c656d6560448201527f6e746174696f6e2f6c6f67696320636f6e7472616374206e6f7420646566696e60648201526232b21760e91b608482015260a401610093565b6001600160a01b0392831660a05290821660c052166080526101a0565b80516001600160a01b038116811461015857600080fd5b919050565b60008060006060848603121561017257600080fd5b61017b84610141565b925061018960208501610141565b915061019760408501610141565b90509250925092565b60805160a05160c05161042c6101e96000396000818160e801526101e301526000818161010f015261021f01526000818160c1015281816101430152610257015261042c6000f3fe608060405234801561001057600080fd5b50600436106100575760003560e01c806352a03c031461005c578063545e7c61146100a95780639c0591c8146100bc578063d7dfa0dd146100e3578063e3cb23a51461010a575b600080fd5b61008d61006a3660046103c3565b60006020818152928152604080822090935290815220546001600160a01b031681565b6040516001600160a01b03909116815260200160405180910390f35b61008d6100b73660046103c3565b610131565b61008d7f000000000000000000000000000000000000000000000000000000000000000081565b61008d7f000000000000000000000000000000000000000000000000000000000000000081565b61008d7f000000000000000000000000000000000000000000000000000000000000000081565b60006001600160a01b038216610165577f000000000000000000000000000000000000000000000000000000000000000091505b6001600160a01b0380841660009081526020818152604080832086851684529091529020541680156101985790506102fd565b6040516bffffffffffffffffffffffff19606086811b8216602084015285901b16603482015260009060480160405160208183030381529060405280519060200120905060006102087f000000000000000000000000000000000000000000000000000000000000000083610303565b604051637c643b2f60e11b81526001600160a01b037f000000000000000000000000000000000000000000000000000000000000000081166004830152888116602483015287811660448301527f0000000000000000000000000000000000000000000000000000000000000000811660648301529192509082169063f8c8765e90608401600060405180830381600087803b1580156102a757600080fd5b505af11580156102bb573d6000803e3d6000fd5b505050506001600160a01b038681166000908152602081815260408083208985168452909152902080546001600160a01b031916918316919091179055925050505b92915050565b6000604051733d602d80600a3d3981f3363d3d373d3d3d363d7360601b81528360601b60148201526e5af43d82803e903d91602b57fd5bf360881b6028820152826037826000f59150506001600160a01b0381166102fd5760405162461bcd60e51b815260206004820152601760248201527f455243313136373a2063726561746532206661696c6564000000000000000000604482015260640160405180910390fd5b80356001600160a01b03811681146103be57600080fd5b919050565b600080604083850312156103d657600080fd5b6103df836103a7565b91506103ed602084016103a7565b9050925092905056fea2646970667358221220e94f9eb62c93859a01e3133de193970916c5ad7567f0e3664ab18a93325420b964736f6c634300080b0033",
  "devdoc": {
    "author": "David Lucid <david@rari.capital> (https://github.com/davidlucid)",
    "kind": "dev",
    "methods": {
      "constructor": {
        "details": "Constructor that sets the `UniswapTwapPriceOracleV2Root` and `UniswapTwapPriceOracleV2` implementation contract."
      },
      "deploy(address,address)": {
        "params": {
          "baseToken": "The base token of the pairs for which this oracle will be used.",
          "uniswapV2Factory": "The `UniswapV2Factory` contract of the pairs for which this oracle will be used."
        }
      }
    },
    "stateVariables": {
      "logic": {
        "details": "Implementation address for the `UniswapV3TwapPriceOracleV2`."
      },
      "rootOracle": {
        "details": "`UniswapTwapPriceOracleV2Root` contract address."
      },
      "wtoken": {
        "details": "WETH token contract address."
      }
    },
    "title": "UniswapTwapPriceOracleV2Factory",
    "version": 1
  },
  "userdoc": {
    "kind": "user",
    "methods": {
      "deploy(address,address)": {
        "notice": "Deploys a `UniswapTwapPriceOracleV2`."
      },
      "oracles(address,address)": {
        "notice": "Maps `UniswapV2Factory` contracts to base tokens to `UniswapTwapPriceOracleV2` contract addresses."
      }
    },
    "notice": "Deploys and catalogs UniswapTwapPriceOracleV2 contracts.",
    "version": 1
  },
  "storageLayout": {
    "storage": [
      {
        "astId": 43071,
        "contract": "contracts/oracles/default/UniswapTwapPriceOracleV2Factory.sol:UniswapTwapPriceOracleV2Factory",
        "label": "oracles",
        "offset": 0,
        "slot": "0",
        "type": "t_mapping(t_address,t_mapping(t_address,t_contract(UniswapTwapPriceOracleV2)43049))"
      }
    ],
    "types": {
      "t_address": {
        "encoding": "inplace",
        "label": "address",
        "numberOfBytes": "20"
      },
      "t_contract(UniswapTwapPriceOracleV2)43049": {
        "encoding": "inplace",
        "label": "contract UniswapTwapPriceOracleV2",
        "numberOfBytes": "20"
      },
      "t_mapping(t_address,t_contract(UniswapTwapPriceOracleV2)43049)": {
        "encoding": "mapping",
        "key": "t_address",
        "label": "mapping(address => contract UniswapTwapPriceOracleV2)",
        "numberOfBytes": "32",
        "value": "t_contract(UniswapTwapPriceOracleV2)43049"
      },
      "t_mapping(t_address,t_mapping(t_address,t_contract(UniswapTwapPriceOracleV2)43049))": {
        "encoding": "mapping",
        "key": "t_address",
        "label": "mapping(address => mapping(address => contract UniswapTwapPriceOracleV2))",
        "numberOfBytes": "32",
        "value": "t_mapping(t_address,t_contract(UniswapTwapPriceOracleV2)43049)"
      }
    }
  }
}