{"abi":[{"type":"function","name":"_acceptOwner","inputs":[],"outputs":[],"stateMutability":"nonpayable"},{"type":"function","name":"_setPendingOwner","inputs":[{"name":"newPendingOwner","type":"address","internalType":"address"}],"outputs":[],"stateMutability":"nonpayable"},{"type":"function","name":"allowance","inputs":[{"name":"owner","type":"address","internalType":"address"},{"name":"spender","type":"address","internalType":"address"}],"outputs":[{"name":"","type":"uint256","internalType":"uint256"}],"stateMutability":"view"},{"type":"function","name":"approve","inputs":[{"name":"spender","type":"address","internalType":"address"},{"name":"amount","type":"uint256","internalType":"uint256"}],"outputs":[{"name":"","type":"bool","internalType":"bool"}],"stateMutability":"nonpayable"},{"type":"function","name":"asset","inputs":[],"outputs":[{"name":"","type":"address","internalType":"address"}],"stateMutability":"view"},{"type":"function","name":"balanceOf","inputs":[{"name":"account","type":"address","internalType":"address"}],"outputs":[{"name":"","type":"uint256","internalType":"uint256"}],"stateMutability":"view"},{"type":"function","name":"balanceOfUnderlying","inputs":[{"name":"account","type":"address","internalType":"address"}],"outputs":[{"name":"","type":"uint256","internalType":"uint256"}],"stateMutability":"view"},{"type":"function","name":"convertToAssets","inputs":[{"name":"shares","type":"uint256","internalType":"uint256"}],"outputs":[{"name":"assets","type":"uint256","internalType":"uint256"}],"stateMutability":"view"},{"type":"function","name":"convertToShares","inputs":[{"name":"assets","type":"uint256","internalType":"uint256"}],"outputs":[{"name":"shares","type":"uint256","internalType":"uint256"}],"stateMutability":"view"},{"type":"function","name":"decimals","inputs":[],"outputs":[{"name":"","type":"uint8","internalType":"uint8"}],"stateMutability":"view"},{"type":"function","name":"decreaseAllowance","inputs":[{"name":"spender","type":"address","internalType":"address"},{"name":"subtractedValue","type":"uint256","internalType":"uint256"}],"outputs":[{"name":"","type":"bool","internalType":"bool"}],"stateMutability":"nonpayable"},{"type":"function","name":"deposit","inputs":[{"name":"assets","type":"uint256","internalType":"uint256"},{"name":"receiver","type":"address","internalType":"address"}],"outputs":[{"name":"shares","type":"uint256","internalType":"uint256"}],"stateMutability":"nonpayable"},{"type":"function","name":"emergencyWithdrawAndPause","inputs":[],"outputs":[],"stateMutability":"nonpayable"},{"type":"function","name":"feeRecipient","inputs":[],"outputs":[{"name":"","type":"address","internalType":"address"}],"stateMutability":"view"},{"type":"function","name":"increaseAllowance","inputs":[{"name":"spender","type":"address","internalType":"address"},{"name":"addedValue","type":"uint256","internalType":"uint256"}],"outputs":[{"name":"","type":"bool","internalType":"bool"}],"stateMutability":"nonpayable"},{"type":"function","name":"initialize","inputs":[{"name":"asset","type":"address","internalType":"contract ERC20Upgradeable"},{"name":"_jar","type":"address","internalType":"contract IJAR"}],"outputs":[],"stateMutability":"nonpayable"},{"type":"function","name":"jar","inputs":[],"outputs":[{"name":"","type":"address","internalType":"contract IJAR"}],"stateMutability":"view"},{"type":"function","name":"maxDeposit","inputs":[{"name":"","type":"address","internalType":"address"}],"outputs":[{"name":"","type":"uint256","internalType":"uint256"}],"stateMutability":"view"},{"type":"function","name":"maxMint","inputs":[{"name":"","type":"address","internalType":"address"}],"outputs":[{"name":"","type":"uint256","internalType":"uint256"}],"stateMutability":"view"},{"type":"function","name":"maxRedeem","inputs":[{"name":"owner","type":"address","internalType":"address"}],"outputs":[{"name":"","type":"uint256","internalType":"uint256"}],"stateMutability":"view"},{"type":"function","name":"maxWithdraw","inputs":[{"name":"owner","type":"address","internalType":"address"}],"outputs":[{"name":"","type":"uint256","internalType":"uint256"}],"stateMutability":"view"},{"type":"function","name":"mint","inputs":[{"name":"shares","type":"uint256","internalType":"uint256"},{"name":"receiver","type":"address","internalType":"address"}],"outputs":[{"name":"assets","type":"uint256","internalType":"uint256"}],"stateMutability":"nonpayable"},{"type":"function","name":"name","inputs":[],"outputs":[{"name":"","type":"string","internalType":"string"}],"stateMutability":"view"},{"type":"function","name":"owner","inputs":[],"outputs":[{"name":"","type":"address","internalType":"address"}],"stateMutability":"view"},{"type":"function","name":"paused","inputs":[],"outputs":[{"name":"","type":"bool","internalType":"bool"}],"stateMutability":"view"},{"type":"function","name":"pendingOwner","inputs":[],"outputs":[{"name":"","type":"address","internalType":"address"}],"stateMutability":"view"},{"type":"function","name":"performanceFee","inputs":[],"outputs":[{"name":"","type":"uint256","internalType":"uint256"}],"stateMutability":"view"},{"type":"function","name":"previewDeposit","inputs":[{"name":"assets","type":"uint256","internalType":"uint256"}],"outputs":[{"name":"","type":"uint256","internalType":"uint256"}],"stateMutability":"view"},{"type":"function","name":"previewMint","inputs":[{"name":"shares","type":"uint256","internalType":"uint256"}],"outputs":[{"name":"","type":"uint256","internalType":"uint256"}],"stateMutability":"view"},{"type":"function","name":"previewRedeem","inputs":[{"name":"shares","type":"uint256","internalType":"uint256"}],"outputs":[{"name":"","type":"uint256","internalType":"uint256"}],"stateMutability":"view"},{"type":"function","name":"previewWithdraw","inputs":[{"name":"assets","type":"uint256","internalType":"uint256"}],"outputs":[{"name":"","type":"uint256","internalType":"uint256"}],"stateMutability":"view"},{"type":"function","name":"redeem","inputs":[{"name":"shares","type":"uint256","internalType":"uint256"},{"name":"receiver","type":"address","internalType":"address"},{"name":"owner","type":"address","internalType":"address"}],"outputs":[{"name":"assets","type":"uint256","internalType":"uint256"}],"stateMutability":"nonpayable"},{"type":"function","name":"renounceOwnership","inputs":[],"outputs":[],"stateMutability":"nonpayable"},{"type":"function","name":"shutdown","inputs":[{"name":"market","type":"address","internalType":"address"}],"outputs":[{"name":"","type":"uint256","internalType":"uint256"}],"stateMutability":"nonpayable"},{"type":"function","name":"symbol","inputs":[],"outputs":[{"name":"","type":"string","internalType":"string"}],"stateMutability":"view"},{"type":"function","name":"takePerformanceFee","inputs":[],"outputs":[],"stateMutability":"nonpayable"},{"type":"function","name":"totalAssets","inputs":[],"outputs":[{"name":"","type":"uint256","internalType":"uint256"}],"stateMutability":"view"},{"type":"function","name":"totalSupply","inputs":[],"outputs":[{"name":"","type":"uint256","internalType":"uint256"}],"stateMutability":"view"},{"type":"function","name":"transfer","inputs":[{"name":"to","type":"address","internalType":"address"},{"name":"amount","type":"uint256","internalType":"uint256"}],"outputs":[{"name":"","type":"bool","internalType":"bool"}],"stateMutability":"nonpayable"},{"type":"function","name":"transferFrom","inputs":[{"name":"from","type":"address","internalType":"address"},{"name":"to","type":"address","internalType":"address"},{"name":"amount","type":"uint256","internalType":"uint256"}],"outputs":[{"name":"","type":"bool","internalType":"bool"}],"stateMutability":"nonpayable"},{"type":"function","name":"transferOwnership","inputs":[{"name":"newOwner","type":"address","internalType":"address"}],"outputs":[],"stateMutability":"nonpayable"},{"type":"function","name":"unpause","inputs":[],"outputs":[],"stateMutability":"nonpayable"},{"type":"function","name":"updateFeeSettings","inputs":[{"name":"newPerformanceFee","type":"uint256","internalType":"uint256"},{"name":"newFeeRecipient","type":"address","internalType":"address"}],"outputs":[],"stateMutability":"nonpayable"},{"type":"function","name":"vaultShareHWM","inputs":[],"outputs":[{"name":"","type":"uint256","internalType":"uint256"}],"stateMutability":"view"},{"type":"function","name":"withdraw","inputs":[{"name":"assets","type":"uint256","internalType":"uint256"},{"name":"receiver","type":"address","internalType":"address"},{"name":"owner","type":"address","internalType":"address"}],"outputs":[{"name":"shares","type":"uint256","internalType":"uint256"}],"stateMutability":"nonpayable"},{"type":"function","name":"withdrawAccruedFees","inputs":[],"outputs":[],"stateMutability":"nonpayable"},{"type":"event","name":"Approval","inputs":[{"name":"owner","type":"address","indexed":true,"internalType":"address"},{"name":"spender","type":"address","indexed":true,"internalType":"address"},{"name":"value","type":"uint256","indexed":false,"internalType":"uint256"}],"anonymous":false},{"type":"event","name":"Deposit","inputs":[{"name":"sender","type":"address","indexed":true,"internalType":"address"},{"name":"owner","type":"address","indexed":true,"internalType":"address"},{"name":"assets","type":"uint256","indexed":false,"internalType":"uint256"},{"name":"shares","type":"uint256","indexed":false,"internalType":"uint256"}],"anonymous":false},{"type":"event","name":"Initialized","inputs":[{"name":"version","type":"uint8","indexed":false,"internalType":"uint8"}],"anonymous":false},{"type":"event","name":"NewOwner","inputs":[{"name":"oldOwner","type":"address","indexed":false,"internalType":"address"},{"name":"newOwner","type":"address","indexed":false,"internalType":"address"}],"anonymous":false},{"type":"event","name":"NewPendingOwner","inputs":[{"name":"oldPendingOwner","type":"address","indexed":false,"internalType":"address"},{"name":"newPendingOwner","type":"address","indexed":false,"internalType":"address"}],"anonymous":false},{"type":"event","name":"OwnershipTransferred","inputs":[{"name":"previousOwner","type":"address","indexed":true,"internalType":"address"},{"name":"newOwner","type":"address","indexed":true,"internalType":"address"}],"anonymous":false},{"type":"event","name":"Paused","inputs":[{"name":"account","type":"address","indexed":false,"internalType":"address"}],"anonymous":false},{"type":"event","name":"Transfer","inputs":[{"name":"from","type":"address","indexed":true,"internalType":"address"},{"name":"to","type":"address","indexed":true,"internalType":"address"},{"name":"value","type":"uint256","indexed":false,"internalType":"uint256"}],"anonymous":false},{"type":"event","name":"Unpaused","inputs":[{"name":"account","type":"address","indexed":false,"internalType":"address"}],"anonymous":false},{"type":"event","name":"UpdatedFeeSettings","inputs":[{"name":"oldPerformanceFee","type":"uint256","indexed":false,"internalType":"uint256"},{"name":"newPerformanceFee","type":"uint256","indexed":false,"internalType":"uint256"},{"name":"oldFeeRecipient","type":"address","indexed":false,"internalType":"address"},{"name":"newFeeRecipient","type":"address","indexed":false,"internalType":"address"}],"anonymous":false},{"type":"event","name":"Withdraw","inputs":[{"name":"sender","type":"address","indexed":true,"internalType":"address"},{"name":"receiver","type":"address","indexed":true,"internalType":"address"},{"name":"owner","type":"address","indexed":true,"internalType":"address"},{"name":"assets","type":"uint256","indexed":false,"internalType":"uint256"},{"name":"shares","type":"uint256","indexed":false,"internalType":"uint256"}],"anonymous":false}],"bytecode":{"object":"0x608060405234801561001057600080fd5b5061319d806100206000396000f3fe608060405234801561001057600080fd5b506004361061028a5760003560e01c806370a082311161015c578063ba087652116100ce578063d905777e11610087578063d905777e14610562578063dd62ed3e14610575578063e30c397814610588578063ef8b30f714610529578063f2fde38b1461059b578063fc4d33f9146105ae57600080fd5b8063ba087652146104ee578063be38a4fe14610501578063c63d75b614610514578063c6e6f59214610529578063cce2f3fb1461053c578063ce96cb771461054f57600080fd5b806395d89b411161012057806395d89b4114610492578063a457c2d71461049a578063a9059cbb146104ad578063ada82c7d146104c0578063b3d7f6b9146104c8578063b460af94146104db57600080fd5b806370a0823114610434578063715018a61461045d57806387788782146104655780638da5cb5b1461046e57806394bf804d1461047f57600080fd5b806338d52e0f11610200578063485cc955116101b9578063485cc955146103e15780634cdad506146102bf57806356f89ef9146103f45780635c975abb146103fc5780636e553f651461040e5780636e96dfd71461042157600080fd5b806338d52e0f14610368578063395093511461038d5780633af9e669146103a05780633f4ba83a146103b3578063402d267d146103bb57806346904840146103ce57600080fd5b806310509aa91161025257806310509aa91461030857806318160ddd1461031d578063211493c91461032557806323b872dd1461032e5780632835797814610341578063313ce5671461034957600080fd5b806301e1d1141461028f57806306fdde03146102aa57806307a2d13a146102bf578063095ea7b3146102d25780630a28a477146102f5575b600080fd5b6102976105b6565b6040519081526020015b60405180910390f35b6102b2610722565b6040516102a19190612c40565b6102976102cd366004612c73565b6107b4565b6102e56102e0366004612ca1565b6107c7565b60405190151581526020016102a1565b610297610303366004612c73565b6107df565b61031b610316366004612ccd565b6107ec565b005b609954610297565b61029760fb5481565b6102e561033c366004612cfd565b610912565b61031b610938565b60c954600160a01b900460ff1660405160ff90911681526020016102a1565b60c9546001600160a01b03165b6040516001600160a01b0390911681526020016102a1565b6102e561039b366004612ca1565b610a17565b6102976103ae366004612d3e565b610a39565b61031b610a5b565b6102976103c9366004612d3e565b610b40565b60fd54610375906001600160a01b031681565b61031b6103ef366004612d5b565b610b5e565b61031b610d04565b606554600160a01b900460ff166102e5565b61029761041c366004612ccd565b610ecd565b61031b61042f366004612d3e565b610f96565b610297610442366004612d3e565b6001600160a01b031660009081526097602052604090205490565b61031b611000565b61029760fc5481565b6033546001600160a01b0316610375565b61029761048d366004612ccd565b611043565b6102b26110c0565b6102e56104a8366004612ca1565b6110cf565b6102e56104bb366004612ca1565b611155565b61031b611163565b6102976104d6366004612c73565b611190565b6102976104e9366004612d89565b61119d565b6102976104fc366004612d89565b611366565b60fe54610375906001600160a01b031681565b610297610522366004612d3e565b5060001990565b610297610537366004612c73565b61155a565b61029761054a366004612d3e565b611567565b61029761055d366004612d3e565b611670565b610297610570366004612d3e565b611694565b610297610583366004612d5b565b6116b2565b606554610375906001600160a01b031681565b61031b6105a9366004612d3e565b6116dd565b61031b61174e565b606554600090600160a01b900460ff1615610642576105d3611862565b6040516370a0823160e01b81523060048201526001600160a01b0391909116906370a0823190602401602060405180830381865afa158015610619573d6000803e3d6000fd5b505050506040513d601f19601f8201168201806040525081019061063d9190612dcb565b905090565b60fe546040516246613160e11b81523060048201526001600160a01b0390911690628cc26290602401602060405180830381865afa158015610688573d6000803e3d6000fd5b505050506040513d601f19601f820116820180604052508101906106ac9190612dcb565b60fe546040516370a0823160e01b81523060048201526001600160a01b03909116906370a0823190602401602060405180830381865afa1580156106f4573d6000803e3d6000fd5b505050506040513d601f19601f820116820180604052508101906107189190612dcb565b61063d9190612dfa565b6060609a805461073190612e12565b80601f016020809104026020016040519081016040528092919081815260200182805461075d90612e12565b80156107aa5780601f1061077f576101008083540402835291602001916107aa565b820191906000526020600020905b81548152906001019060200180831161078d57829003601f168201915b5050505050905090565b60006107c1826000611876565b92915050565b6000336107d58185856118ad565b5060019392505050565b60006107c18260016119d1565b6107f4611a03565b60fc5460fd5460408051928352602083018590526001600160a01b0391821690830152821660608201527fb3b62da5184b9e7e2f5d280014bb485d4444b66738025e5fb5738bbddcb6b8489060800160405180910390a160fc82905560fd546001600160a01b038281169116146108ef5760fd546001600160a01b0316156108d15760fd546001600160a01b03166000818152609760205260409020549061089c9082611a5f565b60fd546108c5906001600160a01b03166108be6033546001600160a01b031690565b60006118ad565b6108cf8282611b93565b505b6108ef816108e76033546001600160a01b031690565b6000196118ad565b60fd80546001600160a01b0319166001600160a01b039290921691909117905550565b600033610920858285611c55565b61092b858585611cc9565b60019150505b9392505050565b610940611a03565b60fe546040516370a0823160e01b81523060048201526000916001600160a01b0316906370a0823190602401602060405180830381865afa158015610989573d6000803e3d6000fd5b505050506040513d601f19601f820116820180604052508101906109ad9190612dcb565b60fe54604051637f8661a160e01b8152600481018390529192506001600160a01b031690637f8661a190602401600060405180830381600087803b1580156109f457600080fd5b505af1158015610a08573d6000803e3d6000fd5b50505050610a14611e74565b50565b6000336107d5818585610a2a83836116b2565b610a349190612dfa565b6118ad565b6001600160a01b0381166000908152609760205260408120546107c1906107b4565b610a63611a03565b610a6b611ed4565b60fe546001600160a01b031663049878f3610a84611862565b6040516370a0823160e01b81523060048201526001600160a01b0391909116906370a0823190602401602060405180830381865afa158015610aca573d6000803e3d6000fd5b505050506040513d601f19601f82011682018060405250810190610aee9190612dcb565b6040518263ffffffff1660e01b8152600401610b0c91815260200190565b600060405180830381600087803b158015610b2657600080fd5b505af1158015610b3a573d6000803e3d6000fd5b50505050565b6000610b4a611f10565b610b555760006107c1565b60001992915050565b600054610100900460ff1615808015610b7e5750600054600160ff909116105b80610b985750303b158015610b98575060005460ff166001145b610c005760405162461bcd60e51b815260206004820152602e60248201527f496e697469616c697a61626c653a20636f6e747261637420697320616c72656160448201526d191e481a5b9a5d1a585b1a5e995960921b60648201526084015b60405180910390fd5b6000805460ff191660011790558015610c23576000805461ff0019166101001790555b610c2c83611f2a565b60fe80546001600160a01b0319166001600160a01b0384811691821790925560405163095ea7b360e01b8152600481019190915260001960248201529084169063095ea7b3906044016020604051808303816000875af1158015610c94573d6000803e3d6000fd5b505050506040513d601f19601f82011682018060405250810190610cb89190612e4d565b508015610cff576000805461ff0019169055604051600181527f7f26b83ff96e1f2b6a682f133852f6798a09c465da95921460cefb38474024989060200160405180910390a15b505050565b610d0c611a03565b60fd546001600160a01b0316610d645760405162461bcd60e51b815260206004820152601d60248201527f66656520726563697069656e74206e6f7420696e697469616c697a65640000006044820152606401610bf7565b6000610d6e6105b6565b90506000610de9610d7d611862565b6001600160a01b031663313ce5676040518163ffffffff1660e01b8152600401602060405180830381865afa158015610dba573d6000803e3d6000fd5b505050506040513d601f19601f82011682018060405250810190610dde9190612e6f565b6102cd90600a612f76565b905060fb548111610e3c5760405162461bcd60e51b815260206004820152601b60248201527f736861726556616c756520213e207661756c74536861726548574d00000000006044820152606401610bf7565b6000610e4760995490565b905060006ec097ce7bc90715b34b9f10000000008260fb5485610e6a9190612f85565b60fc54610e779190612f9c565b610e819190612f9c565b610e8b9190612fd1565b60fd54909150610eb9906001600160a01b0316610eb484610eac8589612f85565b85919061210a565b611b93565b610ec4610d7d611862565b60fb5550505050565b6000610ed7612129565b610ee08361155a565b905080610f1d5760405162461bcd60e51b815260206004820152600b60248201526a5a45524f5f53484152455360a81b6044820152606401610bf7565b610f3c333085610f2b611862565b6001600160a01b0316929190612176565b610f468282611b93565b60408051848152602081018390526001600160a01b0384169133917fdcbc1c05240f31ff3ad067ef1ee35ce4997762752e3a095284754544f4c709d7910160405180910390a36107c183826121e1565b610f9e611a03565b606580546001600160a01b038381166001600160a01b031983168117909355604080519190921680825260208201939093527fb3d55174552271a4f1aaf36b72f50381e892171636b3fb5447fe00e995e7a37b91015b60405180910390a15050565b611008611a03565b60405162461bcd60e51b815260206004820152601060248201526f6e6f74207573656420616e796d6f726560801b6044820152606401610bf7565b600061104d612129565b61105683611190565b9050611066333083610f2b611862565b6110708284611b93565b60408051828152602081018590526001600160a01b0384169133917fdcbc1c05240f31ff3ad067ef1ee35ce4997762752e3a095284754544f4c709d7910160405180910390a36107c181846121e1565b6060609b805461073190612e12565b600033816110dd82866116b2565b90508381101561113d5760405162461bcd60e51b815260206004820152602560248201527f45524332303a2064656372656173656420616c6c6f77616e63652062656c6f77604482015264207a65726f60d81b6064820152608401610bf7565b61114a82868684036118ad565b506001949350505050565b6000336107d5818585611cc9565b61116b611a03565b60fd546001600160a01b0316600081815260976020526040902054610a149180611366565b60006107c1826001611876565b60006111a8846107df565b9050336001600160a01b038316146111e25760006111c683336116b2565b905060001981146111e0576111e08333610a348585612f85565b505b606554600160a01b900460ff166112f45760006111fd611862565b6040516370a0823160e01b81523060048201526001600160a01b0391909116906370a0823190602401602060405180830381865afa158015611243573d6000803e3d6000fd5b505050506040513d601f19601f820116820180604052508101906112679190612dcb565b90506112738583612243565b8061127c611862565b6040516370a0823160e01b81523060048201526001600160a01b0391909116906370a0823190602401602060405180830381865afa1580156112c2573d6000803e3d6000fd5b505050506040513d601f19601f820116820180604052508101906112e69190612dcb565b6112f09190612f85565b9450505b6112fe8282611a5f565b60408051858152602081018390526001600160a01b03808516929086169133917ffbde797d201c681b91056529119e0b02407c7bb96a4a2c75c01fc9667232c8db910160405180910390a46109318385611356611862565b6001600160a01b03169190612410565b6000336001600160a01b038316146113a057600061138483336116b2565b9050600019811461139e5761139e8333610a348885612f85565b505b6113a9846107b4565b9050806113e65760405162461bcd60e51b815260206004820152600b60248201526a5a45524f5f41535345545360a81b6044820152606401610bf7565b606554600160a01b900460ff166114f8576000611401611862565b6040516370a0823160e01b81523060048201526001600160a01b0391909116906370a0823190602401602060405180830381865afa158015611447573d6000803e3d6000fd5b505050506040513d601f19601f8201168201806040525081019061146b9190612dcb565b90506114778286612243565b80611480611862565b6040516370a0823160e01b81523060048201526001600160a01b0391909116906370a0823190602401602060405180830381865afa1580156114c6573d6000803e3d6000fd5b505050506040513d601f19601f820116820180604052508101906114ea9190612dcb565b6114f49190612f85565b9150505b6115028285611a5f565b60408051828152602081018690526001600160a01b03808516929086169133917ffbde797d201c681b91056529119e0b02407c7bb96a4a2c75c01fc9667232c8db910160405180910390a46109318382611356611862565b60006107c18260006119d1565b6000611571611a03565b611579612440565b6000611583611862565b6040516370a0823160e01b81523060048201529091506000906001600160a01b038316906370a0823190602401602060405180830381865afa1580156115cd573d6000803e3d6000fd5b505050506040513d601f19601f820116820180604052508101906115f19190612dcb565b60405163a9059cbb60e01b81526001600160a01b038681166004830152602482018390529192509083169063a9059cbb906044016020604051808303816000875af1158015611644573d6000803e3d6000fd5b505050506040513d601f19601f820116820180604052508101906116689190612e4d565b509392505050565b6001600160a01b0381166000908152609760205260408120546107c1906000611876565b6001600160a01b0381166000908152609760205260408120546107c1565b6001600160a01b03918216600090815260986020908152604080832093909416825291909152205490565b6116e5611a03565b606554604080516001600160a01b03928316815291831660208301527fb3d55174552271a4f1aaf36b72f50381e892171636b3fb5447fe00e995e7a37b910160405180910390a1606580546001600160a01b0319166001600160a01b0392909216919091179055565b6065546001600160a01b031633146117a05760405162461bcd60e51b81526020600482015260156024820152743737ba103a3432903832b73234b7339037bbb732b960591b6044820152606401610bf7565b60006117b46033546001600160a01b031690565b6065549091506001600160a01b03166117cc81612490565b606580546001600160a01b0319169055604080516001600160a01b0384168152600060208201527f70aea8d848e8a90fb7661b227dc522eb6395c3dac71b63cb59edd5c9899b2364910160405180910390a1606554604080516001600160a01b03808516825290921660208301527fb3d55174552271a4f1aaf36b72f50381e892171636b3fb5447fe00e995e7a37b9101610ff4565b600061063d60c9546001600160a01b031690565b60008061188260995490565b905080156118a35761189e6118956105b6565b859083866124e2565b6118a5565b835b949350505050565b6001600160a01b03831661190f5760405162461bcd60e51b8152602060048201526024808201527f45524332303a20617070726f76652066726f6d20746865207a65726f206164646044820152637265737360e01b6064820152608401610bf7565b6001600160a01b0382166119705760405162461bcd60e51b815260206004820152602260248201527f45524332303a20617070726f766520746f20746865207a65726f206164647265604482015261737360f01b6064820152608401610bf7565b6001600160a01b0383811660008181526098602090815260408083209487168084529482529182902085905590518481527f8c5be1e5ebec7d5bd14f71427d1e84f3dd0314c0f7b2291e5b200ac8c7c3b925910160405180910390a3505050565b6000806119dd60995490565b90508315806119ea575080155b6118a35761189e816119fa6105b6565b869190866124e2565b6033546001600160a01b03163314611a5d5760405162461bcd60e51b815260206004820181905260248201527f4f776e61626c653a2063616c6c6572206973206e6f7420746865206f776e65726044820152606401610bf7565b565b6001600160a01b038216611abf5760405162461bcd60e51b815260206004820152602160248201527f45524332303a206275726e2066726f6d20746865207a65726f206164647265736044820152607360f81b6064820152608401610bf7565b6001600160a01b03821660009081526097602052604090205481811015611b335760405162461bcd60e51b815260206004820152602260248201527f45524332303a206275726e20616d6f756e7420657863656564732062616c616e604482015261636560f01b6064820152608401610bf7565b6001600160a01b03831660008181526097602090815260408083208686039055609980548790039055518581529192917fddf252ad1be2c89b69c2b068fc378daa952ba7f163c4a11628f55a4df523b3ef910160405180910390a3505050565b6001600160a01b038216611be95760405162461bcd60e51b815260206004820152601f60248201527f45524332303a206d696e7420746f20746865207a65726f2061646472657373006044820152606401610bf7565b8060996000828254611bfb9190612dfa565b90915550506001600160a01b0382166000818152609760209081526040808320805486019055518481527fddf252ad1be2c89b69c2b068fc378daa952ba7f163c4a11628f55a4df523b3ef910160405180910390a35b5050565b6000611c6184846116b2565b90506000198114610b3a5781811015611cbc5760405162461bcd60e51b815260206004820152601d60248201527f45524332303a20696e73756666696369656e7420616c6c6f77616e63650000006044820152606401610bf7565b610b3a84848484036118ad565b6001600160a01b038316611d2d5760405162461bcd60e51b815260206004820152602560248201527f45524332303a207472616e736665722066726f6d20746865207a65726f206164604482015264647265737360d81b6064820152608401610bf7565b6001600160a01b038216611d8f5760405162461bcd60e51b815260206004820152602360248201527f45524332303a207472616e7366657220746f20746865207a65726f206164647260448201526265737360e81b6064820152608401610bf7565b6001600160a01b03831660009081526097602052604090205481811015611e075760405162461bcd60e51b815260206004820152602660248201527f45524332303a207472616e7366657220616d6f756e7420657863656564732062604482015265616c616e636560d01b6064820152608401610bf7565b6001600160a01b0380851660008181526097602052604080822086860390559286168082529083902080548601905591517fddf252ad1be2c89b69c2b068fc378daa952ba7f163c4a11628f55a4df523b3ef90611e679086815260200190565b60405180910390a3610b3a565b611e7c612129565b6065805460ff60a01b1916600160a01b1790557f62e78cea01bee320cd4e420270b5ea74000d11b0c9f74754ebdbfc544b05a258611eb73390565b6040516001600160a01b03909116815260200160405180910390a1565b611edc612440565b6065805460ff60a01b191690557f5db9ee0a495bf2e6ff9c91a7834c1ba4fdd244a5e8aa4e537bd38aeae4b073aa33611eb7565b600080611f1b6105b6565b118061063d5750506099541590565b600054610100900460ff16611f515760405162461bcd60e51b8152600401610bf790612ff3565b611f5a3361253f565b611f62612577565b611f6a6125a6565b61207c816001600160a01b03166306fdde036040518163ffffffff1660e01b8152600401600060405180830381865afa158015611fab573d6000803e3d6000fd5b505050506040513d6000823e601f3d908101601f19168201604052611fd39190810190613054565b604051602001611fe391906130f6565b604051602081830303815290604052826001600160a01b03166395d89b416040518163ffffffff1660e01b8152600401600060405180830381865afa158015612030573d6000803e3d6000fd5b505050506040513d6000823e601f3d908101601f191682016040526120589190810190613054565b6040516020016120689190613134565b6040516020818303038152906040526125cd565b612085816125fe565b806001600160a01b031663313ce5676040518163ffffffff1660e01b8152600401602060405180830381865afa1580156120c3573d6000803e3d6000fd5b505050506040513d601f19601f820116820180604052508101906120e79190612e6f565b6120f290600a612f76565b60fb555060fd80546001600160a01b03191633179055565b82820281151584158583048514171661212257600080fd5b0492915050565b606554600160a01b900460ff1615611a5d5760405162461bcd60e51b815260206004820152601060248201526f14185d5cd8589b194e881c185d5cd95960821b6044820152606401610bf7565b6040516001600160a01b0380851660248301528316604482015260648101829052610b3a9085906323b872dd60e01b906084015b60408051601f198184030181529190526020810180516001600160e01b03166001600160e01b03199093169290921790915261262e565b60fe5460405163049878f360e01b8152600481018490526001600160a01b039091169063049878f390602401600060405180830381600087803b15801561222757600080fd5b505af115801561223b573d6000803e3d6000fd5b505050505050565b600061224d611862565b6040516370a0823160e01b81523060048201526001600160a01b0391909116906370a0823190602401602060405180830381865afa158015612293573d6000803e3d6000fd5b505050506040513d601f19601f820116820180604052508101906122b79190612dcb565b60fe54604051637f8661a160e01b8152600481018690529192506001600160a01b031690637f8661a190602401600060405180830381600087803b1580156122fe57600080fd5b505af1158015612312573d6000803e3d6000fd5b50505050600081612321611862565b6040516370a0823160e01b81523060048201526001600160a01b0391909116906370a0823190602401602060405180830381865afa158015612367573d6000803e3d6000fd5b505050506040513d601f19601f8201168201806040525081019061238b9190612dcb565b6123959190612f85565b905083811115610b3a5760fe546001600160a01b031663049878f36123ba8684612f85565b6040518263ffffffff1660e01b81526004016123d891815260200190565b600060405180830381600087803b1580156123f257600080fd5b505af1158015612406573d6000803e3d6000fd5b5050505050505050565b6040516001600160a01b038316602482015260448101829052610cff90849063a9059cbb60e01b906064016121aa565b606554600160a01b900460ff16611a5d5760405162461bcd60e51b815260206004820152601460248201527314185d5cd8589b194e881b9bdd081c185d5cd95960621b6044820152606401610bf7565b603380546001600160a01b038381166001600160a01b0319831681179093556040519116919082907f8be0079c531659141344cd1fd0a4f28419497f9722a3daafe3b4186f6b6457e090600090a35050565b6000806124f0868686612700565b905060018360028111156125065761250661315e565b14801561252357506000848061251e5761251e612fbb565b868809115b1561253657612533600182612dfa565b90505b95945050505050565b600054610100900460ff166125665760405162461bcd60e51b8152600401610bf790612ff3565b61256e6127b0565b610a1481612490565b600054610100900460ff1661259e5760405162461bcd60e51b8152600401610bf790612ff3565b611a5d6127df565b600054610100900460ff16611a5d5760405162461bcd60e51b8152600401610bf790612ff3565b600054610100900460ff166125f45760405162461bcd60e51b8152600401610bf790612ff3565b611c518282612815565b600054610100900460ff166126255760405162461bcd60e51b8152600401610bf790612ff3565b610a1481612863565b6000612683826040518060400160405280602081526020017f5361666545524332303a206c6f772d6c6576656c2063616c6c206661696c6564815250856001600160a01b03166128e89092919063ffffffff16565b805190915015610cff57808060200190518101906126a19190612e4d565b610cff5760405162461bcd60e51b815260206004820152602a60248201527f5361666545524332303a204552433230206f7065726174696f6e20646964206e6044820152691bdd081cdd58d8d9595960b21b6064820152608401610bf7565b60008080600019858709858702925082811083820303915050806000141561273b5783828161273157612731612fbb565b0492505050610931565b80841161274757600080fd5b60008486880960026001871981018816978890046003810283188082028403028082028403028082028403028082028403028082028403029081029092039091026000889003889004909101858311909403939093029303949094049190911702949350505050565b600054610100900460ff166127d75760405162461bcd60e51b8152600401610bf790612ff3565b611a5d6128f7565b600054610100900460ff166128065760405162461bcd60e51b8152600401610bf790612ff3565b6065805460ff60a01b19169055565b600054610100900460ff1661283c5760405162461bcd60e51b8152600401610bf790612ff3565b815161284f90609a906020850190612b7b565b508051610cff90609b906020840190612b7b565b600054610100900460ff1661288a5760405162461bcd60e51b8152600401610bf790612ff3565b60008061289683612927565b91509150816128a65760126128a8565b805b60c980546001600160a01b039095166001600160a01b031960ff93909316600160a01b02929092166001600160a81b031990951694909417179092555050565b60606118a58484600085612a05565b600054610100900460ff1661291e5760405162461bcd60e51b8152600401610bf790612ff3565b611a5d33612490565b60408051600481526024810182526020810180516001600160e01b031663313ce56760e01b17905290516000918291829182916001600160a01b0387169161296e91613174565b6000604051808303816000865af19150503d80600081146129ab576040519150601f19603f3d011682016040523d82523d6000602084013e6129b0565b606091505b50915091508180156129c457506020815110155b156129f8576000818060200190518101906129df9190612dcb565b905060ff81116129f6576001969095509350505050565b505b5060009485945092505050565b606082471015612a665760405162461bcd60e51b815260206004820152602660248201527f416464726573733a20696e73756666696369656e742062616c616e636520666f6044820152651c8818d85b1b60d21b6064820152608401610bf7565b600080866001600160a01b03168587604051612a829190613174565b60006040518083038185875af1925050503d8060008114612abf576040519150601f19603f3d011682016040523d82523d6000602084013e612ac4565b606091505b5091509150612ad587838387612ae0565b979650505050505050565b60608315612b4c578251612b45576001600160a01b0385163b612b455760405162461bcd60e51b815260206004820152601d60248201527f416464726573733a2063616c6c20746f206e6f6e2d636f6e74726163740000006044820152606401610bf7565b50816118a5565b6118a58383815115612b615781518083602001fd5b8060405162461bcd60e51b8152600401610bf79190612c40565b828054612b8790612e12565b90600052602060002090601f016020900481019282612ba95760008555612bef565b82601f10612bc257805160ff1916838001178555612bef565b82800160010185558215612bef579182015b82811115612bef578251825591602001919060010190612bd4565b50612bfb929150612bff565b5090565b5b80821115612bfb5760008155600101612c00565b60005b83811015612c2f578181015183820152602001612c17565b83811115610b3a5750506000910152565b6020815260008251806020840152612c5f816040850160208701612c14565b601f01601f19169190910160400192915050565b600060208284031215612c8557600080fd5b5035919050565b6001600160a01b0381168114610a1457600080fd5b60008060408385031215612cb457600080fd5b8235612cbf81612c8c565b946020939093013593505050565b60008060408385031215612ce057600080fd5b823591506020830135612cf281612c8c565b809150509250929050565b600080600060608486031215612d1257600080fd5b8335612d1d81612c8c565b92506020840135612d2d81612c8c565b929592945050506040919091013590565b600060208284031215612d5057600080fd5b813561093181612c8c565b60008060408385031215612d6e57600080fd5b8235612d7981612c8c565b91506020830135612cf281612c8c565b600080600060608486031215612d9e57600080fd5b833592506020840135612db081612c8c565b91506040840135612dc081612c8c565b809150509250925092565b600060208284031215612ddd57600080fd5b5051919050565b634e487b7160e01b600052601160045260246000fd5b60008219821115612e0d57612e0d612de4565b500190565b600181811c90821680612e2657607f821691505b60208210811415612e4757634e487b7160e01b600052602260045260246000fd5b50919050565b600060208284031215612e5f57600080fd5b8151801515811461093157600080fd5b600060208284031215612e8157600080fd5b815160ff8116811461093157600080fd5b600181815b80851115612ecd578160001904821115612eb357612eb3612de4565b80851615612ec057918102915b93841c9390800290612e97565b509250929050565b600082612ee4575060016107c1565b81612ef1575060006107c1565b8160018114612f075760028114612f1157612f2d565b60019150506107c1565b60ff841115612f2257612f22612de4565b50506001821b6107c1565b5060208310610133831016604e8410600b8410161715612f50575081810a6107c1565b612f5a8383612e92565b8060001904821115612f6e57612f6e612de4565b029392505050565b600061093160ff841683612ed5565b600082821015612f9757612f97612de4565b500390565b6000816000190483118215151615612fb657612fb6612de4565b500290565b634e487b7160e01b600052601260045260246000fd5b600082612fee57634e487b7160e01b600052601260045260246000fd5b500490565b6020808252602b908201527f496e697469616c697a61626c653a20636f6e7472616374206973206e6f74206960408201526a6e697469616c697a696e6760a81b606082015260800190565b634e487b7160e01b600052604160045260246000fd5b60006020828403121561306657600080fd5b815167ffffffffffffffff8082111561307e57600080fd5b818401915084601f83011261309257600080fd5b8151818111156130a4576130a461303e565b604051601f8201601f19908116603f011681019083821181831017156130cc576130cc61303e565b816040528281528760208487010111156130e557600080fd5b612ad5836020830160208801612c14565b65026b4b230b9960d51b815260008251613117816006850160208701612c14565b650815985d5b1d60d21b6006939091019283015250600c01919050565b6136bb60f11b815260008251613151816002850160208701612c14565b9190910160020192915050565b634e487b7160e01b600052602160045260246000fd5b60008251613186818460208701612c14565b919091019291505056fea164736f6c634300080a000a","linkReferences":{}},"methodIdentifiers":{"_acceptOwner()":"fc4d33f9","_setPendingOwner(address)":"6e96dfd7","allowance(address,address)":"dd62ed3e","approve(address,uint256)":"095ea7b3","asset()":"38d52e0f","balanceOf(address)":"70a08231","balanceOfUnderlying(address)":"3af9e669","convertToAssets(uint256)":"07a2d13a","convertToShares(uint256)":"c6e6f592","decimals()":"313ce567","decreaseAllowance(address,uint256)":"a457c2d7","deposit(uint256,address)":"6e553f65","emergencyWithdrawAndPause()":"28357978","feeRecipient()":"46904840","increaseAllowance(address,uint256)":"39509351","initialize(address,address)":"485cc955","jar()":"be38a4fe","maxDeposit(address)":"402d267d","maxMint(address)":"c63d75b6","maxRedeem(address)":"d905777e","maxWithdraw(address)":"ce96cb77","mint(uint256,address)":"94bf804d","name()":"06fdde03","owner()":"8da5cb5b","paused()":"5c975abb","pendingOwner()":"e30c3978","performanceFee()":"87788782","previewDeposit(uint256)":"ef8b30f7","previewMint(uint256)":"b3d7f6b9","previewRedeem(uint256)":"4cdad506","previewWithdraw(uint256)":"0a28a477","redeem(uint256,address,address)":"ba087652","renounceOwnership()":"715018a6","shutdown(address)":"cce2f3fb","symbol()":"95d89b41","takePerformanceFee()":"56f89ef9","totalAssets()":"01e1d114","totalSupply()":"18160ddd","transfer(address,uint256)":"a9059cbb","transferFrom(address,address,uint256)":"23b872dd","transferOwnership(address)":"f2fde38b","unpause()":"3f4ba83a","updateFeeSettings(uint256,address)":"10509aa9","vaultShareHWM()":"211493c9","withdraw(uint256,address,address)":"b460af94","withdrawAccruedFees()":"ada82c7d"},"id":166}