{"abi":[{"type":"function","name":"_acceptOwner","inputs":[],"outputs":[],"stateMutability":"nonpayable"},{"type":"function","name":"_setPendingOwner","inputs":[{"name":"newPendingOwner","type":"address","internalType":"address"}],"outputs":[],"stateMutability":"nonpayable"},{"type":"function","name":"allowance","inputs":[{"name":"owner","type":"address","internalType":"address"},{"name":"spender","type":"address","internalType":"address"}],"outputs":[{"name":"","type":"uint256","internalType":"uint256"}],"stateMutability":"view"},{"type":"function","name":"approve","inputs":[{"name":"spender","type":"address","internalType":"address"},{"name":"amount","type":"uint256","internalType":"uint256"}],"outputs":[{"name":"","type":"bool","internalType":"bool"}],"stateMutability":"nonpayable"},{"type":"function","name":"asset","inputs":[],"outputs":[{"name":"","type":"address","internalType":"address"}],"stateMutability":"view"},{"type":"function","name":"balanceOf","inputs":[{"name":"account","type":"address","internalType":"address"}],"outputs":[{"name":"","type":"uint256","internalType":"uint256"}],"stateMutability":"view"},{"type":"function","name":"balanceOfUnderlying","inputs":[{"name":"account","type":"address","internalType":"address"}],"outputs":[{"name":"","type":"uint256","internalType":"uint256"}],"stateMutability":"view"},{"type":"function","name":"claimRewards","inputs":[],"outputs":[],"stateMutability":"nonpayable"},{"type":"function","name":"convertToAssets","inputs":[{"name":"shares","type":"uint256","internalType":"uint256"}],"outputs":[{"name":"assets","type":"uint256","internalType":"uint256"}],"stateMutability":"view"},{"type":"function","name":"convertToShares","inputs":[{"name":"assets","type":"uint256","internalType":"uint256"}],"outputs":[{"name":"shares","type":"uint256","internalType":"uint256"}],"stateMutability":"view"},{"type":"function","name":"decimals","inputs":[],"outputs":[{"name":"","type":"uint8","internalType":"uint8"}],"stateMutability":"view"},{"type":"function","name":"decreaseAllowance","inputs":[{"name":"spender","type":"address","internalType":"address"},{"name":"subtractedValue","type":"uint256","internalType":"uint256"}],"outputs":[{"name":"","type":"bool","internalType":"bool"}],"stateMutability":"nonpayable"},{"type":"function","name":"deposit","inputs":[{"name":"assets","type":"uint256","internalType":"uint256"},{"name":"receiver","type":"address","internalType":"address"}],"outputs":[{"name":"shares","type":"uint256","internalType":"uint256"}],"stateMutability":"nonpayable"},{"type":"function","name":"emergencyWithdrawAndPause","inputs":[],"outputs":[],"stateMutability":"nonpayable"},{"type":"function","name":"feeRecipient","inputs":[],"outputs":[{"name":"","type":"address","internalType":"address"}],"stateMutability":"view"},{"type":"function","name":"gauge","inputs":[],"outputs":[{"name":"","type":"address","internalType":"contract IChildGauge"}],"stateMutability":"view"},{"type":"function","name":"increaseAllowance","inputs":[{"name":"spender","type":"address","internalType":"address"},{"name":"addedValue","type":"uint256","internalType":"uint256"}],"outputs":[{"name":"","type":"bool","internalType":"bool"}],"stateMutability":"nonpayable"},{"type":"function","name":"initialize","inputs":[{"name":"_asset","type":"address","internalType":"contract ERC20Upgradeable"},{"name":"_gauge","type":"address","internalType":"contract IChildGauge"},{"name":"_rewardsDestination","type":"address","internalType":"address"},{"name":"_rewardTokens","type":"address[]","internalType":"contract ERC20Upgradeable[]"}],"outputs":[],"stateMutability":"nonpayable"},{"type":"function","name":"maxDeposit","inputs":[{"name":"","type":"address","internalType":"address"}],"outputs":[{"name":"","type":"uint256","internalType":"uint256"}],"stateMutability":"view"},{"type":"function","name":"maxMint","inputs":[{"name":"","type":"address","internalType":"address"}],"outputs":[{"name":"","type":"uint256","internalType":"uint256"}],"stateMutability":"view"},{"type":"function","name":"maxRedeem","inputs":[{"name":"owner","type":"address","internalType":"address"}],"outputs":[{"name":"","type":"uint256","internalType":"uint256"}],"stateMutability":"view"},{"type":"function","name":"maxWithdraw","inputs":[{"name":"owner","type":"address","internalType":"address"}],"outputs":[{"name":"","type":"uint256","internalType":"uint256"}],"stateMutability":"view"},{"type":"function","name":"mint","inputs":[{"name":"shares","type":"uint256","internalType":"uint256"},{"name":"receiver","type":"address","internalType":"address"}],"outputs":[{"name":"assets","type":"uint256","internalType":"uint256"}],"stateMutability":"nonpayable"},{"type":"function","name":"name","inputs":[],"outputs":[{"name":"","type":"string","internalType":"string"}],"stateMutability":"view"},{"type":"function","name":"owner","inputs":[],"outputs":[{"name":"","type":"address","internalType":"address"}],"stateMutability":"view"},{"type":"function","name":"paused","inputs":[],"outputs":[{"name":"","type":"bool","internalType":"bool"}],"stateMutability":"view"},{"type":"function","name":"pendingOwner","inputs":[],"outputs":[{"name":"","type":"address","internalType":"address"}],"stateMutability":"view"},{"type":"function","name":"performanceFee","inputs":[],"outputs":[{"name":"","type":"uint256","internalType":"uint256"}],"stateMutability":"view"},{"type":"function","name":"previewDeposit","inputs":[{"name":"assets","type":"uint256","internalType":"uint256"}],"outputs":[{"name":"","type":"uint256","internalType":"uint256"}],"stateMutability":"view"},{"type":"function","name":"previewMint","inputs":[{"name":"shares","type":"uint256","internalType":"uint256"}],"outputs":[{"name":"","type":"uint256","internalType":"uint256"}],"stateMutability":"view"},{"type":"function","name":"previewRedeem","inputs":[{"name":"shares","type":"uint256","internalType":"uint256"}],"outputs":[{"name":"","type":"uint256","internalType":"uint256"}],"stateMutability":"view"},{"type":"function","name":"previewWithdraw","inputs":[{"name":"assets","type":"uint256","internalType":"uint256"}],"outputs":[{"name":"","type":"uint256","internalType":"uint256"}],"stateMutability":"view"},{"type":"function","name":"redeem","inputs":[{"name":"shares","type":"uint256","internalType":"uint256"},{"name":"receiver","type":"address","internalType":"address"},{"name":"owner","type":"address","internalType":"address"}],"outputs":[{"name":"assets","type":"uint256","internalType":"uint256"}],"stateMutability":"nonpayable"},{"type":"function","name":"renounceOwnership","inputs":[],"outputs":[],"stateMutability":"nonpayable"},{"type":"function","name":"rewardDestination","inputs":[],"outputs":[{"name":"","type":"address","internalType":"address"}],"stateMutability":"view"},{"type":"function","name":"rewardTokens","inputs":[{"name":"","type":"uint256","internalType":"uint256"}],"outputs":[{"name":"","type":"address","internalType":"contract ERC20Upgradeable"}],"stateMutability":"view"},{"type":"function","name":"setRewardDestination","inputs":[{"name":"newDestination","type":"address","internalType":"address"}],"outputs":[],"stateMutability":"nonpayable"},{"type":"function","name":"shutdown","inputs":[{"name":"market","type":"address","internalType":"address"}],"outputs":[{"name":"","type":"uint256","internalType":"uint256"}],"stateMutability":"nonpayable"},{"type":"function","name":"symbol","inputs":[],"outputs":[{"name":"","type":"string","internalType":"string"}],"stateMutability":"view"},{"type":"function","name":"takePerformanceFee","inputs":[],"outputs":[],"stateMutability":"nonpayable"},{"type":"function","name":"totalAssets","inputs":[],"outputs":[{"name":"","type":"uint256","internalType":"uint256"}],"stateMutability":"view"},{"type":"function","name":"totalSupply","inputs":[],"outputs":[{"name":"","type":"uint256","internalType":"uint256"}],"stateMutability":"view"},{"type":"function","name":"transfer","inputs":[{"name":"to","type":"address","internalType":"address"},{"name":"amount","type":"uint256","internalType":"uint256"}],"outputs":[{"name":"","type":"bool","internalType":"bool"}],"stateMutability":"nonpayable"},{"type":"function","name":"transferFrom","inputs":[{"name":"from","type":"address","internalType":"address"},{"name":"to","type":"address","internalType":"address"},{"name":"amount","type":"uint256","internalType":"uint256"}],"outputs":[{"name":"","type":"bool","internalType":"bool"}],"stateMutability":"nonpayable"},{"type":"function","name":"transferOwnership","inputs":[{"name":"newOwner","type":"address","internalType":"address"}],"outputs":[],"stateMutability":"nonpayable"},{"type":"function","name":"unpause","inputs":[],"outputs":[],"stateMutability":"nonpayable"},{"type":"function","name":"updateFeeSettings","inputs":[{"name":"newPerformanceFee","type":"uint256","internalType":"uint256"},{"name":"newFeeRecipient","type":"address","internalType":"address"}],"outputs":[],"stateMutability":"nonpayable"},{"type":"function","name":"vaultShareHWM","inputs":[],"outputs":[{"name":"","type":"uint256","internalType":"uint256"}],"stateMutability":"view"},{"type":"function","name":"withdraw","inputs":[{"name":"assets","type":"uint256","internalType":"uint256"},{"name":"receiver","type":"address","internalType":"address"},{"name":"owner","type":"address","internalType":"address"}],"outputs":[{"name":"shares","type":"uint256","internalType":"uint256"}],"stateMutability":"nonpayable"},{"type":"function","name":"withdrawAccruedFees","inputs":[],"outputs":[],"stateMutability":"nonpayable"},{"type":"event","name":"Approval","inputs":[{"name":"owner","type":"address","indexed":true,"internalType":"address"},{"name":"spender","type":"address","indexed":true,"internalType":"address"},{"name":"value","type":"uint256","indexed":false,"internalType":"uint256"}],"anonymous":false},{"type":"event","name":"ClaimRewards","inputs":[{"name":"rewardToken","type":"address","indexed":true,"internalType":"address"},{"name":"amount","type":"uint256","indexed":false,"internalType":"uint256"}],"anonymous":false},{"type":"event","name":"Deposit","inputs":[{"name":"sender","type":"address","indexed":true,"internalType":"address"},{"name":"owner","type":"address","indexed":true,"internalType":"address"},{"name":"assets","type":"uint256","indexed":false,"internalType":"uint256"},{"name":"shares","type":"uint256","indexed":false,"internalType":"uint256"}],"anonymous":false},{"type":"event","name":"Initialized","inputs":[{"name":"version","type":"uint8","indexed":false,"internalType":"uint8"}],"anonymous":false},{"type":"event","name":"NewOwner","inputs":[{"name":"oldOwner","type":"address","indexed":false,"internalType":"address"},{"name":"newOwner","type":"address","indexed":false,"internalType":"address"}],"anonymous":false},{"type":"event","name":"NewPendingOwner","inputs":[{"name":"oldPendingOwner","type":"address","indexed":false,"internalType":"address"},{"name":"newPendingOwner","type":"address","indexed":false,"internalType":"address"}],"anonymous":false},{"type":"event","name":"OwnershipTransferred","inputs":[{"name":"previousOwner","type":"address","indexed":true,"internalType":"address"},{"name":"newOwner","type":"address","indexed":true,"internalType":"address"}],"anonymous":false},{"type":"event","name":"Paused","inputs":[{"name":"account","type":"address","indexed":false,"internalType":"address"}],"anonymous":false},{"type":"event","name":"RewardDestinationUpdate","inputs":[{"name":"newDestination","type":"address","indexed":true,"internalType":"address"}],"anonymous":false},{"type":"event","name":"Transfer","inputs":[{"name":"from","type":"address","indexed":true,"internalType":"address"},{"name":"to","type":"address","indexed":true,"internalType":"address"},{"name":"value","type":"uint256","indexed":false,"internalType":"uint256"}],"anonymous":false},{"type":"event","name":"Unpaused","inputs":[{"name":"account","type":"address","indexed":false,"internalType":"address"}],"anonymous":false},{"type":"event","name":"UpdatedFeeSettings","inputs":[{"name":"oldPerformanceFee","type":"uint256","indexed":false,"internalType":"uint256"},{"name":"newPerformanceFee","type":"uint256","indexed":false,"internalType":"uint256"},{"name":"oldFeeRecipient","type":"address","indexed":false,"internalType":"address"},{"name":"newFeeRecipient","type":"address","indexed":false,"internalType":"address"}],"anonymous":false},{"type":"event","name":"Withdraw","inputs":[{"name":"sender","type":"address","indexed":true,"internalType":"address"},{"name":"receiver","type":"address","indexed":true,"internalType":"address"},{"name":"owner","type":"address","indexed":true,"internalType":"address"},{"name":"assets","type":"uint256","indexed":false,"internalType":"uint256"},{"name":"shares","type":"uint256","indexed":false,"internalType":"uint256"}],"anonymous":false}],"bytecode":{"object":"0x608060405234801561001057600080fd5b5061351c806100206000396000f3fe608060405234801561001057600080fd5b50600436106102d65760003560e01c80637bb7bed111610182578063ba087652116100e9578063dd62ed3e116100a2578063ef8b30f71161007c578063ef8b30f714610591578063f2fde38b14610616578063fc4d33f914610629578063fda45d861461063157600080fd5b8063dd62ed3e146105dd578063e30c3978146105f0578063e6bfbfd81461060357600080fd5b8063ba08765214610569578063c63d75b61461057c578063c6e6f59214610591578063cce2f3fb146105a4578063ce96cb77146105b7578063d905777e146105ca57600080fd5b8063a457c2d71161013b578063a457c2d714610501578063a6f19c8414610514578063a9059cbb14610528578063ada82c7d1461053b578063b3d7f6b914610543578063b460af941461055657600080fd5b80637bb7bed1146104a65780638457d067146104b957806387788782146104cc5780638da5cb5b146104d557806394bf804d146104e657806395d89b41146104f957600080fd5b806338d52e0f116102415780634cdad506116101fa5780636e553f65116101d45780636e553f651461044f5780636e96dfd71461046257806370a0823114610475578063715018a61461049e57600080fd5b80634cdad5061461030b57806356f89ef9146104355780635c975abb1461043d57600080fd5b806338d52e0f146103bc57806339509351146103e15780633af9e669146103f45780633f4ba83a14610407578063402d267d1461040f578063469048401461042257600080fd5b806318160ddd1161029357806318160ddd14610369578063211493c91461037157806323b872dd1461037a578063283579781461038d578063313ce56714610395578063372500ab146103b457600080fd5b806301e1d114146102db57806306fdde03146102f657806307a2d13a1461030b578063095ea7b31461031e5780630a28a4771461034157806310509aa914610354575b600080fd5b6102e3610644565b6040519081526020015b60405180910390f35b6102fe610718565b6040516102ed9190612e43565b6102e3610319366004612e76565b6107aa565b61033161032c366004612ea4565b6107bd565b60405190151581526020016102ed565b6102e361034f366004612e76565b6107d5565b610367610362366004612ed0565b6107e2565b005b6099546102e3565b6102e360fb5481565b610331610388366004612f00565b610908565b61036761092e565b60c954600160a01b900460ff1660405160ff90911681526020016102ed565b610367610a07565b60c9546001600160a01b03165b6040516001600160a01b0390911681526020016102ed565b6103316103ef366004612ea4565b610b22565b6102e3610402366004612f41565b610b44565b610367610b66565b6102e361041d366004612f41565b610c4f565b60fd546103c9906001600160a01b031681565b610367610c6d565b606554600160a01b900460ff16610331565b6102e361045d366004612ed0565b610e3b565b610367610470366004612f41565b610f04565b6102e3610483366004612f41565b6001600160a01b031660009081526097602052604090205490565b610367610f6e565b6103c96104b4366004612e76565b610fb1565b6103676104c7366004612f41565b610fdb565b6102e360fc5481565b6033546001600160a01b03166103c9565b6102e36104f4366004612ed0565b61106e565b6102fe6110eb565b61033161050f366004612ea4565b6110fa565b610100546103c9906001600160a01b031681565b610331610536366004612ea4565b611180565b61036761118e565b6102e3610551366004612e76565b6111be565b6102e3610564366004612f5e565b6111cb565b6102e3610577366004612f5e565b611394565b6102e361058a366004612f41565b5060001990565b6102e361059f366004612e76565b611588565b6102e36105b2366004612f41565b611595565b6102e36105c5366004612f41565b61169e565b6102e36105d8366004612f41565b6116c2565b6102e36105eb366004612fa0565b6116e0565b6065546103c9906001600160a01b031681565b610367610611366004613015565b61170b565b610367610624366004612f41565b611979565b6103676119ea565b60fe546103c9906001600160a01b031681565b606554600090600160a01b900460ff166106ca57610100546040516370a0823160e01b81523060048201526001600160a01b03909116906370a0823190602401602060405180830381865afa1580156106a1573d6000803e3d6000fd5b505050506040513d601f19601f820116820180604052508101906106c591906130ff565b905090565b6106d2611afe565b6040516370a0823160e01b81523060048201526001600160a01b0391909116906370a0823190602401602060405180830381865afa1580156106a1573d6000803e3d6000fd5b6060609a805461072790613118565b80601f016020809104026020016040519081016040528092919081815260200182805461075390613118565b80156107a05780601f10610775576101008083540402835291602001916107a0565b820191906000526020600020905b81548152906001019060200180831161078357829003601f168201915b5050505050905090565b60006107b7826000611b12565b92915050565b6000336107cb818585611b49565b5060019392505050565b60006107b7826001611c6e565b6107ea611ca0565b60fc5460fd5460408051928352602083018590526001600160a01b0391821690830152821660608201527fb3b62da5184b9e7e2f5d280014bb485d4444b66738025e5fb5738bbddcb6b8489060800160405180910390a160fc82905560fd546001600160a01b038281169116146108e55760fd546001600160a01b0316156108c75760fd546001600160a01b0316600081815260976020526040902054906108929082611cfa565b60fd546108bb906001600160a01b03166108b46033546001600160a01b031690565b6000611b49565b6108c58282611e2b565b505b6108e5816108dd6033546001600160a01b031690565b600019611b49565b60fd80546001600160a01b0319166001600160a01b039290921691909117905550565b600033610916858285611eec565b610921858585611f60565b60019150505b9392505050565b610936611ca0565b610100546040516370a0823160e01b81523060048201526001600160a01b039091169062ebf5dd9082906370a0823190602401602060405180830381865afa158015610986573d6000803e3d6000fd5b505050506040513d601f19601f820116820180604052508101906109aa91906130ff565b3060016040518463ffffffff1660e01b81526004016109cb93929190613153565b600060405180830381600087803b1580156109e557600080fd5b505af11580156109f9573d6000803e3d6000fd5b50505050610a0561210b565b565b610a0f61216b565b60ff5460005b81811015610b1e57600060ff8281548110610a3257610a32613174565b60009182526020822001546040516370a0823160e01b81523060048201526001600160a01b03909116925082906370a0823190602401602060405180830381865afa158015610a85573d6000803e3d6000fd5b505050506040513d601f19601f82011682018060405250810190610aa991906130ff565b60fe54909150610ac6906001600160a01b038481169116836121bc565b816001600160a01b03167f1f89f96333d3133000ee447473151fa9606543368f02271c9d95ae14f13bcc6782604051610b0191815260200190565b60405180910390a250508080610b16906131a0565b915050610a15565b5050565b6000336107cb818585610b3583836116e0565b610b3f91906131bb565b611b49565b6001600160a01b0381166000908152609760205260408120546107b7906107aa565b610b6e611ca0565b610b7661221f565b610100546001600160a01b03166383df6747610b90611afe565b6040516370a0823160e01b81523060048201526001600160a01b0391909116906370a0823190602401602060405180830381865afa158015610bd6573d6000803e3d6000fd5b505050506040513d601f19601f82011682018060405250810190610bfa91906130ff565b3060016040518463ffffffff1660e01b8152600401610c1b93929190613153565b600060405180830381600087803b158015610c3557600080fd5b505af1158015610c49573d6000803e3d6000fd5b50505050565b6000610c5961225b565b610c645760006107b7565b60001992915050565b610c75611ca0565b60fd546001600160a01b0316610cd25760405162461bcd60e51b815260206004820152601d60248201527f66656520726563697069656e74206e6f7420696e697469616c697a656400000060448201526064015b60405180910390fd5b6000610cdc610644565b90506000610d57610ceb611afe565b6001600160a01b031663313ce5676040518163ffffffff1660e01b8152600401602060405180830381865afa158015610d28573d6000803e3d6000fd5b505050506040513d601f19601f82011682018060405250810190610d4c91906131d3565b61031990600a6132da565b905060fb548111610daa5760405162461bcd60e51b815260206004820152601b60248201527f736861726556616c756520213e207661756c74536861726548574d00000000006044820152606401610cc9565b6000610db560995490565b905060006ec097ce7bc90715b34b9f10000000008260fb5485610dd891906132e9565b60fc54610de59190613300565b610def9190613300565b610df99190613335565b60fd54909150610e27906001600160a01b0316610e2284610e1a85896132e9565b859190612275565b611e2b565b610e32610ceb611afe565b60fb5550505050565b6000610e45612294565b610e4e83611588565b905080610e8b5760405162461bcd60e51b815260206004820152600b60248201526a5a45524f5f53484152455360a81b6044820152606401610cc9565b610eaa333085610e99611afe565b6001600160a01b03169291906122e1565b610eb48282611e2b565b60408051848152602081018390526001600160a01b0384169133917fdcbc1c05240f31ff3ad067ef1ee35ce4997762752e3a095284754544f4c709d7910160405180910390a36107b78382612319565b610f0c611ca0565b606580546001600160a01b038381166001600160a01b031983168117909355604080519190921680825260208201939093527fb3d55174552271a4f1aaf36b72f50381e892171636b3fb5447fe00e995e7a37b91015b60405180910390a15050565b610f76611ca0565b60405162461bcd60e51b815260206004820152601060248201526f6e6f74207573656420616e796d6f726560801b6044820152606401610cc9565b60ff8181548110610fc157600080fd5b6000918252602090912001546001600160a01b0316905081565b60fe546001600160a01b031633146110245760405162461bcd60e51b815260206004820152600c60248201526b15539055551213d49256915160a21b6044820152606401610cc9565b60fe80546001600160a01b0319166001600160a01b0383169081179091556040517fb7e97ad603f12568684fc43c82127d953e94f3954cf36344cbbfa34d67b0b0cf90600090a250565b6000611078612294565b611081836111be565b9050611091333083610e99611afe565b61109b8284611e2b565b60408051828152602081018590526001600160a01b0384169133917fdcbc1c05240f31ff3ad067ef1ee35ce4997762752e3a095284754544f4c709d7910160405180910390a36107b78184612319565b6060609b805461072790613118565b6000338161110882866116e0565b9050838110156111685760405162461bcd60e51b815260206004820152602560248201527f45524332303a2064656372656173656420616c6c6f77616e63652062656c6f77604482015264207a65726f60d81b6064820152608401610cc9565b6111758286868403611b49565b506001949350505050565b6000336107cb818585611f60565b611196611ca0565b60fd546001600160a01b03166000818152609760205260409020546111bb9180611394565b50565b60006107b7826001611b12565b60006111d6846107d5565b9050336001600160a01b038316146112105760006111f483336116e0565b9050600019811461120e5761120e8333610b3f85856132e9565b505b606554600160a01b900460ff1661132257600061122b611afe565b6040516370a0823160e01b81523060048201526001600160a01b0391909116906370a0823190602401602060405180830381865afa158015611271573d6000803e3d6000fd5b505050506040513d601f19601f8201168201806040525081019061129591906130ff565b90506112a18583612385565b806112aa611afe565b6040516370a0823160e01b81523060048201526001600160a01b0391909116906370a0823190602401602060405180830381865afa1580156112f0573d6000803e3d6000fd5b505050506040513d601f19601f8201168201806040525081019061131491906130ff565b61131e91906132e9565b9450505b61132c8282611cfa565b60408051858152602081018390526001600160a01b03808516929086169133917ffbde797d201c681b91056529119e0b02407c7bb96a4a2c75c01fc9667232c8db910160405180910390a46109278385611384611afe565b6001600160a01b031691906121bc565b6000336001600160a01b038316146113ce5760006113b283336116e0565b905060001981146113cc576113cc8333610b3f88856132e9565b505b6113d7846107aa565b9050806114145760405162461bcd60e51b815260206004820152600b60248201526a5a45524f5f41535345545360a81b6044820152606401610cc9565b606554600160a01b900460ff1661152657600061142f611afe565b6040516370a0823160e01b81523060048201526001600160a01b0391909116906370a0823190602401602060405180830381865afa158015611475573d6000803e3d6000fd5b505050506040513d601f19601f8201168201806040525081019061149991906130ff565b90506114a58286612385565b806114ae611afe565b6040516370a0823160e01b81523060048201526001600160a01b0391909116906370a0823190602401602060405180830381865afa1580156114f4573d6000803e3d6000fd5b505050506040513d601f19601f8201168201806040525081019061151891906130ff565b61152291906132e9565b9150505b6115308285611cfa565b60408051828152602081018690526001600160a01b03808516929086169133917ffbde797d201c681b91056529119e0b02407c7bb96a4a2c75c01fc9667232c8db910160405180910390a46109278382611384611afe565b60006107b7826000611c6e565b600061159f611ca0565b6115a76123b9565b60006115b1611afe565b6040516370a0823160e01b81523060048201529091506000906001600160a01b038316906370a0823190602401602060405180830381865afa1580156115fb573d6000803e3d6000fd5b505050506040513d601f19601f8201168201806040525081019061161f91906130ff565b60405163a9059cbb60e01b81526001600160a01b038681166004830152602482018390529192509083169063a9059cbb906044016020604051808303816000875af1158015611672573d6000803e3d6000fd5b505050506040513d601f19601f820116820180604052508101906116969190613357565b509392505050565b6001600160a01b0381166000908152609760205260408120546107b7906000611b12565b6001600160a01b0381166000908152609760205260408120546107b7565b6001600160a01b03918216600090815260986020908152604080832093909416825291909152205490565b600054610100900460ff161580801561172b5750600054600160ff909116105b806117455750303b158015611745575060005460ff166001145b6117a85760405162461bcd60e51b815260206004820152602e60248201527f496e697469616c697a61626c653a20636f6e747261637420697320616c72656160448201526d191e481a5b9a5d1a585b1a5e995960921b6064820152608401610cc9565b6000805460ff1916600117905580156117cb576000805461ff0019166101001790555b836001600160a01b03166382c630666040518163ffffffff1660e01b8152600401602060405180830381865afa158015611809573d6000803e3d6000fd5b505050506040513d601f19601f8201168201806040525081019061182d9190613379565b6001600160a01b0316856001600160a01b0316146118805760405162461bcd60e51b815260206004820152601060248201526f30b9b9b2ba10109e9036382a37b5b2b760811b6044820152606401610cc9565b61188985612409565b61189383836125e9565b66b1a2bc2ec5000060fc5561010080546001600160a01b0319166001600160a01b0386811691821790925560405163095ea7b360e01b8152600481019190915260001960248201529086169063095ea7b3906044016020604051808303816000875af1158015611907573d6000803e3d6000fd5b505050506040513d601f19601f8201168201806040525081019061192b9190613357565b508015611972576000805461ff0019169055604051600181527f7f26b83ff96e1f2b6a682f133852f6798a09c465da95921460cefb38474024989060200160405180910390a15b5050505050565b611981611ca0565b606554604080516001600160a01b03928316815291831660208301527fb3d55174552271a4f1aaf36b72f50381e892171636b3fb5447fe00e995e7a37b910160405180910390a1606580546001600160a01b0319166001600160a01b0392909216919091179055565b6065546001600160a01b03163314611a3c5760405162461bcd60e51b81526020600482015260156024820152743737ba103a3432903832b73234b7339037bbb732b960591b6044820152606401610cc9565b6000611a506033546001600160a01b031690565b6065549091506001600160a01b0316611a688161263e565b606580546001600160a01b0319169055604080516001600160a01b0384168152600060208201527f70aea8d848e8a90fb7661b227dc522eb6395c3dac71b63cb59edd5c9899b2364910160405180910390a1606554604080516001600160a01b03808516825290921660208301527fb3d55174552271a4f1aaf36b72f50381e892171636b3fb5447fe00e995e7a37b9101610f62565b60006106c560c9546001600160a01b031690565b600080611b1e60995490565b90508015611b3f57611b3a611b31610644565b85908386612690565b611b41565b835b949350505050565b6001600160a01b038316611bab5760405162461bcd60e51b8152602060048201526024808201527f45524332303a20617070726f76652066726f6d20746865207a65726f206164646044820152637265737360e01b6064820152608401610cc9565b6001600160a01b038216611c0c5760405162461bcd60e51b815260206004820152602260248201527f45524332303a20617070726f766520746f20746865207a65726f206164647265604482015261737360f01b6064820152608401610cc9565b6001600160a01b0383811660008181526098602090815260408083209487168084529482529182902085905590518481527f8c5be1e5ebec7d5bd14f71427d1e84f3dd0314c0f7b2291e5b200ac8c7c3b92591015b60405180910390a3505050565b600080611c7a60995490565b9050831580611c87575080155b611b3f57611b3a81611c97610644565b86919086612690565b6033546001600160a01b03163314610a055760405162461bcd60e51b815260206004820181905260248201527f4f776e61626c653a2063616c6c6572206973206e6f7420746865206f776e65726044820152606401610cc9565b6001600160a01b038216611d5a5760405162461bcd60e51b815260206004820152602160248201527f45524332303a206275726e2066726f6d20746865207a65726f206164647265736044820152607360f81b6064820152608401610cc9565b6001600160a01b03821660009081526097602052604090205481811015611dce5760405162461bcd60e51b815260206004820152602260248201527f45524332303a206275726e20616d6f756e7420657863656564732062616c616e604482015261636560f01b6064820152608401610cc9565b6001600160a01b03831660008181526097602090815260408083208686039055609980548790039055518581529192917fddf252ad1be2c89b69c2b068fc378daa952ba7f163c4a11628f55a4df523b3ef9101611c61565b505050565b6001600160a01b038216611e815760405162461bcd60e51b815260206004820152601f60248201527f45524332303a206d696e7420746f20746865207a65726f2061646472657373006044820152606401610cc9565b8060996000828254611e9391906131bb565b90915550506001600160a01b0382166000818152609760209081526040808320805486019055518481527fddf252ad1be2c89b69c2b068fc378daa952ba7f163c4a11628f55a4df523b3ef910160405180910390a35050565b6000611ef884846116e0565b90506000198114610c495781811015611f535760405162461bcd60e51b815260206004820152601d60248201527f45524332303a20696e73756666696369656e7420616c6c6f77616e63650000006044820152606401610cc9565b610c498484848403611b49565b6001600160a01b038316611fc45760405162461bcd60e51b815260206004820152602560248201527f45524332303a207472616e736665722066726f6d20746865207a65726f206164604482015264647265737360d81b6064820152608401610cc9565b6001600160a01b0382166120265760405162461bcd60e51b815260206004820152602360248201527f45524332303a207472616e7366657220746f20746865207a65726f206164647260448201526265737360e81b6064820152608401610cc9565b6001600160a01b0383166000908152609760205260409020548181101561209e5760405162461bcd60e51b815260206004820152602660248201527f45524332303a207472616e7366657220616d6f756e7420657863656564732062604482015265616c616e636560d01b6064820152608401610cc9565b6001600160a01b0380851660008181526097602052604080822086860390559286168082529083902080548601905591517fddf252ad1be2c89b69c2b068fc378daa952ba7f163c4a11628f55a4df523b3ef906120fe9086815260200190565b60405180910390a3610c49565b612113612294565b6065805460ff60a01b1916600160a01b1790557f62e78cea01bee320cd4e420270b5ea74000d11b0c9f74754ebdbfc544b05a25861214e3390565b6040516001600160a01b03909116815260200160405180910390a1565b61010060009054906101000a90046001600160a01b03166001600160a01b031663e6f1daf26040518163ffffffff1660e01b8152600401600060405180830381600087803b158015610c3557600080fd5b6040516001600160a01b038316602482015260448101829052611e2690849063a9059cbb60e01b906064015b60408051601f198184030181529190526020810180516001600160e01b03166001600160e01b0319909316929092179091526126ed565b6122276123b9565b6065805460ff60a01b191690557f5db9ee0a495bf2e6ff9c91a7834c1ba4fdd244a5e8aa4e537bd38aeae4b073aa3361214e565b600080612266610644565b11806106c55750506099541590565b82820281151584158583048514171661228d57600080fd5b0492915050565b606554600160a01b900460ff1615610a055760405162461bcd60e51b815260206004820152601060248201526f14185d5cd8589b194e881c185d5cd95960821b6044820152606401610cc9565b6040516001600160a01b0380851660248301528316604482015260648101829052610c499085906323b872dd60e01b906084016121e8565b610100546040516383df674760e01b81526001600160a01b03909116906383df67479061234f9085903090600190600401613153565b600060405180830381600087803b15801561236957600080fd5b505af115801561237d573d6000803e3d6000fd5b505050505050565b6101005460405162ebf5dd60e01b81526001600160a01b039091169062ebf5dd9061234f9085903090600190600401613153565b606554600160a01b900460ff16610a055760405162461bcd60e51b815260206004820152601460248201527314185d5cd8589b194e881b9bdd081c185d5cd95960621b6044820152606401610cc9565b600054610100900460ff166124305760405162461bcd60e51b8152600401610cc990613396565b612439336127bf565b6124416127f7565b612449612826565b61255b816001600160a01b03166306fdde036040518163ffffffff1660e01b8152600401600060405180830381865afa15801561248a573d6000803e3d6000fd5b505050506040513d6000823e601f3d908101601f191682016040526124b291908101906133e1565b6040516020016124c29190613475565b604051602081830303815290604052826001600160a01b03166395d89b416040518163ffffffff1660e01b8152600401600060405180830381865afa15801561250f573d6000803e3d6000fd5b505050506040513d6000823e601f3d908101601f1916820160405261253791908101906133e1565b60405160200161254791906134b3565b60405160208183030381529060405261284d565b6125648161287e565b806001600160a01b031663313ce5676040518163ffffffff1660e01b8152600401602060405180830381865afa1580156125a2573d6000803e3d6000fd5b505050506040513d601f19601f820116820180604052508101906125c691906131d3565b6125d190600a6132da565b60fb555060fd80546001600160a01b03191633179055565b600054610100900460ff166126105760405162461bcd60e51b8152600401610cc990613396565b60fe80546001600160a01b0319166001600160a01b0384161790558051611e269060ff906020840190612d29565b603380546001600160a01b038381166001600160a01b0319831681179093556040519116919082907f8be0079c531659141344cd1fd0a4f28419497f9722a3daafe3b4186f6b6457e090600090a35050565b60008061269e8686866128ae565b905060018360028111156126b4576126b46134dd565b1480156126d15750600084806126cc576126cc61331f565b868809115b156126e4576126e16001826131bb565b90505b95945050505050565b6000612742826040518060400160405280602081526020017f5361666545524332303a206c6f772d6c6576656c2063616c6c206661696c6564815250856001600160a01b031661295e9092919063ffffffff16565b805190915015611e2657808060200190518101906127609190613357565b611e265760405162461bcd60e51b815260206004820152602a60248201527f5361666545524332303a204552433230206f7065726174696f6e20646964206e6044820152691bdd081cdd58d8d9595960b21b6064820152608401610cc9565b600054610100900460ff166127e65760405162461bcd60e51b8152600401610cc990613396565b6127ee61296d565b6111bb8161263e565b600054610100900460ff1661281e5760405162461bcd60e51b8152600401610cc990613396565b610a0561299c565b600054610100900460ff16610a055760405162461bcd60e51b8152600401610cc990613396565b600054610100900460ff166128745760405162461bcd60e51b8152600401610cc990613396565b610b1e82826129d2565b600054610100900460ff166128a55760405162461bcd60e51b8152600401610cc990613396565b6111bb81612a20565b6000808060001985870985870292508281108382030391505080600014156128e9578382816128df576128df61331f565b0492505050610927565b8084116128f557600080fd5b60008486880960026001871981018816978890046003810283188082028403028082028403028082028403028082028403028082028403029081029092039091026000889003889004909101858311909403939093029303949094049190911702949350505050565b6060611b418484600085612aa5565b600054610100900460ff166129945760405162461bcd60e51b8152600401610cc990613396565b610a05612b80565b600054610100900460ff166129c35760405162461bcd60e51b8152600401610cc990613396565b6065805460ff60a01b19169055565b600054610100900460ff166129f95760405162461bcd60e51b8152600401610cc990613396565b8151612a0c90609a906020850190612d8e565b508051611e2690609b906020840190612d8e565b600054610100900460ff16612a475760405162461bcd60e51b8152600401610cc990613396565b600080612a5383612bb0565b9150915081612a63576012612a65565b805b60c980546001600160a01b039095166001600160a01b031960ff93909316600160a01b02929092166001600160a81b031990951694909417179092555050565b606082471015612b065760405162461bcd60e51b815260206004820152602660248201527f416464726573733a20696e73756666696369656e742062616c616e636520666f6044820152651c8818d85b1b60d21b6064820152608401610cc9565b600080866001600160a01b03168587604051612b2291906134f3565b60006040518083038185875af1925050503d8060008114612b5f576040519150601f19603f3d011682016040523d82523d6000602084013e612b64565b606091505b5091509150612b7587838387612c8e565b979650505050505050565b600054610100900460ff16612ba75760405162461bcd60e51b8152600401610cc990613396565b610a053361263e565b60408051600481526024810182526020810180516001600160e01b031663313ce56760e01b17905290516000918291829182916001600160a01b03871691612bf7916134f3565b6000604051808303816000865af19150503d8060008114612c34576040519150601f19603f3d011682016040523d82523d6000602084013e612c39565b606091505b5091509150818015612c4d57506020815110155b15612c8157600081806020019051810190612c6891906130ff565b905060ff8111612c7f576001969095509350505050565b505b5060009485945092505050565b60608315612cfa578251612cf3576001600160a01b0385163b612cf35760405162461bcd60e51b815260206004820152601d60248201527f416464726573733a2063616c6c20746f206e6f6e2d636f6e74726163740000006044820152606401610cc9565b5081611b41565b611b418383815115612d0f5781518083602001fd5b8060405162461bcd60e51b8152600401610cc99190612e43565b828054828255906000526020600020908101928215612d7e579160200282015b82811115612d7e57825182546001600160a01b0319166001600160a01b03909116178255602090920191600190910190612d49565b50612d8a929150612e02565b5090565b828054612d9a90613118565b90600052602060002090601f016020900481019282612dbc5760008555612d7e565b82601f10612dd557805160ff1916838001178555612d7e565b82800160010185558215612d7e579182015b82811115612d7e578251825591602001919060010190612de7565b5b80821115612d8a5760008155600101612e03565b60005b83811015612e32578181015183820152602001612e1a565b83811115610c495750506000910152565b6020815260008251806020840152612e62816040850160208701612e17565b601f01601f19169190910160400192915050565b600060208284031215612e8857600080fd5b5035919050565b6001600160a01b03811681146111bb57600080fd5b60008060408385031215612eb757600080fd5b8235612ec281612e8f565b946020939093013593505050565b60008060408385031215612ee357600080fd5b823591506020830135612ef581612e8f565b809150509250929050565b600080600060608486031215612f1557600080fd5b8335612f2081612e8f565b92506020840135612f3081612e8f565b929592945050506040919091013590565b600060208284031215612f5357600080fd5b813561092781612e8f565b600080600060608486031215612f7357600080fd5b833592506020840135612f8581612e8f565b91506040840135612f9581612e8f565b809150509250925092565b60008060408385031215612fb357600080fd5b8235612fbe81612e8f565b91506020830135612ef581612e8f565b634e487b7160e01b600052604160045260246000fd5b604051601f8201601f1916810167ffffffffffffffff8111828210171561300d5761300d612fce565b604052919050565b6000806000806080858703121561302b57600080fd5b843561303681612e8f565b935060208581013561304781612e8f565b9350604086013561305781612e8f565b9250606086013567ffffffffffffffff8082111561307457600080fd5b818801915088601f83011261308857600080fd5b81358181111561309a5761309a612fce565b8060051b91506130ab848301612fe4565b818152918301840191848101908b8411156130c557600080fd5b938501935b838510156130ef57843592506130df83612e8f565b82825293850193908501906130ca565b989b979a50959850505050505050565b60006020828403121561311157600080fd5b5051919050565b600181811c9082168061312c57607f821691505b6020821081141561314d57634e487b7160e01b600052602260045260246000fd5b50919050565b9283526001600160a01b039190911660208301521515604082015260600190565b634e487b7160e01b600052603260045260246000fd5b634e487b7160e01b600052601160045260246000fd5b60006000198214156131b4576131b461318a565b5060010190565b600082198211156131ce576131ce61318a565b500190565b6000602082840312156131e557600080fd5b815160ff8116811461092757600080fd5b600181815b808511156132315781600019048211156132175761321761318a565b8085161561322457918102915b93841c93908002906131fb565b509250929050565b600082613248575060016107b7565b81613255575060006107b7565b816001811461326b576002811461327557613291565b60019150506107b7565b60ff8411156132865761328661318a565b50506001821b6107b7565b5060208310610133831016604e8410600b84101617156132b4575081810a6107b7565b6132be83836131f6565b80600019048211156132d2576132d261318a565b029392505050565b600061092760ff841683613239565b6000828210156132fb576132fb61318a565b500390565b600081600019048311821515161561331a5761331a61318a565b500290565b634e487b7160e01b600052601260045260246000fd5b60008261335257634e487b7160e01b600052601260045260246000fd5b500490565b60006020828403121561336957600080fd5b8151801515811461092757600080fd5b60006020828403121561338b57600080fd5b815161092781612e8f565b6020808252602b908201527f496e697469616c697a61626c653a20636f6e7472616374206973206e6f74206960408201526a6e697469616c697a696e6760a81b606082015260800190565b6000602082840312156133f357600080fd5b815167ffffffffffffffff8082111561340b57600080fd5b818401915084601f83011261341f57600080fd5b81518181111561343157613431612fce565b613444601f8201601f1916602001612fe4565b915080825285602082850101111561345b57600080fd5b61346c816020840160208601612e17565b50949350505050565b65026b4b230b9960d51b815260008251613496816006850160208701612e17565b650815985d5b1d60d21b6006939091019283015250600c01919050565b6136bb60f11b8152600082516134d0816002850160208701612e17565b9190910160020192915050565b634e487b7160e01b600052602160045260246000fd5b60008251613505818460208701612e17565b919091019291505056fea164736f6c634300080a000a","linkReferences":{}},"methodIdentifiers":{"_acceptOwner()":"fc4d33f9","_setPendingOwner(address)":"6e96dfd7","allowance(address,address)":"dd62ed3e","approve(address,uint256)":"095ea7b3","asset()":"38d52e0f","balanceOf(address)":"70a08231","balanceOfUnderlying(address)":"3af9e669","claimRewards()":"372500ab","convertToAssets(uint256)":"07a2d13a","convertToShares(uint256)":"c6e6f592","decimals()":"313ce567","decreaseAllowance(address,uint256)":"a457c2d7","deposit(uint256,address)":"6e553f65","emergencyWithdrawAndPause()":"28357978","feeRecipient()":"46904840","gauge()":"a6f19c84","increaseAllowance(address,uint256)":"39509351","initialize(address,address,address,address[])":"e6bfbfd8","maxDeposit(address)":"402d267d","maxMint(address)":"c63d75b6","maxRedeem(address)":"d905777e","maxWithdraw(address)":"ce96cb77","mint(uint256,address)":"94bf804d","name()":"06fdde03","owner()":"8da5cb5b","paused()":"5c975abb","pendingOwner()":"e30c3978","performanceFee()":"87788782","previewDeposit(uint256)":"ef8b30f7","previewMint(uint256)":"b3d7f6b9","previewRedeem(uint256)":"4cdad506","previewWithdraw(uint256)":"0a28a477","redeem(uint256,address,address)":"ba087652","renounceOwnership()":"715018a6","rewardDestination()":"fda45d86","rewardTokens(uint256)":"7bb7bed1","setRewardDestination(address)":"8457d067","shutdown(address)":"cce2f3fb","symbol()":"95d89b41","takePerformanceFee()":"56f89ef9","totalAssets()":"01e1d114","totalSupply()":"18160ddd","transfer(address,uint256)":"a9059cbb","transferFrom(address,address,uint256)":"23b872dd","transferOwnership(address)":"f2fde38b","unpause()":"3f4ba83a","updateFeeSettings(uint256,address)":"10509aa9","vaultShareHWM()":"211493c9","withdraw(uint256,address,address)":"b460af94","withdrawAccruedFees()":"ada82c7d"},"id":163}