{
  "address": "0x5f4c011BA60a55BEf0eF0428795464562c67abEC",
  "abi": [
    {
      "anonymous": false,
      "inputs": [
        {
          "indexed": false,
          "internalType": "uint256",
          "name": "cashPrior",
          "type": "uint256"
        },
        {
          "indexed": false,
          "internalType": "uint256",
          "name": "interestAccumulated",
          "type": "uint256"
        },
        {
          "indexed": false,
          "internalType": "uint256",
          "name": "borrowIndex",
          "type": "uint256"
        },
        {
          "indexed": false,
          "internalType": "uint256",
          "name": "totalBorrows",
          "type": "uint256"
        }
      ],
      "name": "AccrueInterest",
      "type": "event"
    },
    {
      "anonymous": false,
      "inputs": [
        {
          "indexed": true,
          "internalType": "address",
          "name": "owner",
          "type": "address"
        },
        {
          "indexed": true,
          "internalType": "address",
          "name": "spender",
          "type": "address"
        },
        {
          "indexed": false,
          "internalType": "uint256",
          "name": "amount",
          "type": "uint256"
        }
      ],
      "name": "Approval",
      "type": "event"
    },
    {
      "anonymous": false,
      "inputs": [
        {
          "indexed": false,
          "internalType": "address",
          "name": "borrower",
          "type": "address"
        },
        {
          "indexed": false,
          "internalType": "uint256",
          "name": "borrowAmount",
          "type": "uint256"
        },
        {
          "indexed": false,
          "internalType": "uint256",
          "name": "accountBorrows",
          "type": "uint256"
        },
        {
          "indexed": false,
          "internalType": "uint256",
          "name": "totalBorrows",
          "type": "uint256"
        }
      ],
      "name": "Borrow",
      "type": "event"
    },
    {
      "anonymous": false,
      "inputs": [
        {
          "indexed": false,
          "internalType": "uint256",
          "name": "error",
          "type": "uint256"
        },
        {
          "indexed": false,
          "internalType": "uint256",
          "name": "info",
          "type": "uint256"
        },
        {
          "indexed": false,
          "internalType": "uint256",
          "name": "detail",
          "type": "uint256"
        }
      ],
      "name": "Failure",
      "type": "event"
    },
    {
      "anonymous": false,
      "inputs": [
        {
          "indexed": false,
          "internalType": "address",
          "name": "liquidator",
          "type": "address"
        },
        {
          "indexed": false,
          "internalType": "address",
          "name": "borrower",
          "type": "address"
        },
        {
          "indexed": false,
          "internalType": "uint256",
          "name": "repayAmount",
          "type": "uint256"
        },
        {
          "indexed": false,
          "internalType": "address",
          "name": "cTokenCollateral",
          "type": "address"
        },
        {
          "indexed": false,
          "internalType": "uint256",
          "name": "seizeTokens",
          "type": "uint256"
        }
      ],
      "name": "LiquidateBorrow",
      "type": "event"
    },
    {
      "anonymous": false,
      "inputs": [
        {
          "indexed": false,
          "internalType": "address",
          "name": "minter",
          "type": "address"
        },
        {
          "indexed": false,
          "internalType": "uint256",
          "name": "mintAmount",
          "type": "uint256"
        },
        {
          "indexed": false,
          "internalType": "uint256",
          "name": "mintTokens",
          "type": "uint256"
        }
      ],
      "name": "Mint",
      "type": "event"
    },
    {
      "anonymous": false,
      "inputs": [
        {
          "indexed": false,
          "internalType": "uint256",
          "name": "oldAdminFeeMantissa",
          "type": "uint256"
        },
        {
          "indexed": false,
          "internalType": "uint256",
          "name": "newAdminFeeMantissa",
          "type": "uint256"
        }
      ],
      "name": "NewAdminFee",
      "type": "event"
    },
    {
      "anonymous": false,
      "inputs": [
        {
          "indexed": false,
          "internalType": "uint256",
          "name": "oldFuseFeeMantissa",
          "type": "uint256"
        },
        {
          "indexed": false,
          "internalType": "uint256",
          "name": "newFuseFeeMantissa",
          "type": "uint256"
        }
      ],
      "name": "NewFuseFee",
      "type": "event"
    },
    {
      "anonymous": false,
      "inputs": [
        {
          "indexed": false,
          "internalType": "address",
          "name": "oldImplementation",
          "type": "address"
        },
        {
          "indexed": false,
          "internalType": "address",
          "name": "newImplementation",
          "type": "address"
        }
      ],
      "name": "NewImplementation",
      "type": "event"
    },
    {
      "anonymous": false,
      "inputs": [
        {
          "indexed": false,
          "internalType": "contract InterestRateModel",
          "name": "oldInterestRateModel",
          "type": "address"
        },
        {
          "indexed": false,
          "internalType": "contract InterestRateModel",
          "name": "newInterestRateModel",
          "type": "address"
        }
      ],
      "name": "NewMarketInterestRateModel",
      "type": "event"
    },
    {
      "anonymous": false,
      "inputs": [
        {
          "indexed": false,
          "internalType": "address",
          "name": "oldImpl",
          "type": "address"
        },
        {
          "indexed": false,
          "internalType": "address",
          "name": "newImpl",
          "type": "address"
        }
      ],
      "name": "NewPluginImplementation",
      "type": "event"
    },
    {
      "anonymous": false,
      "inputs": [
        {
          "indexed": false,
          "internalType": "uint256",
          "name": "oldReserveFactorMantissa",
          "type": "uint256"
        },
        {
          "indexed": false,
          "internalType": "uint256",
          "name": "newReserveFactorMantissa",
          "type": "uint256"
        }
      ],
      "name": "NewReserveFactor",
      "type": "event"
    },
    {
      "anonymous": false,
      "inputs": [
        {
          "indexed": false,
          "internalType": "address",
          "name": "redeemer",
          "type": "address"
        },
        {
          "indexed": false,
          "internalType": "uint256",
          "name": "redeemAmount",
          "type": "uint256"
        },
        {
          "indexed": false,
          "internalType": "uint256",
          "name": "redeemTokens",
          "type": "uint256"
        }
      ],
      "name": "Redeem",
      "type": "event"
    },
    {
      "anonymous": false,
      "inputs": [
        {
          "indexed": false,
          "internalType": "address",
          "name": "payer",
          "type": "address"
        },
        {
          "indexed": false,
          "internalType": "address",
          "name": "borrower",
          "type": "address"
        },
        {
          "indexed": false,
          "internalType": "uint256",
          "name": "repayAmount",
          "type": "uint256"
        },
        {
          "indexed": false,
          "internalType": "uint256",
          "name": "accountBorrows",
          "type": "uint256"
        },
        {
          "indexed": false,
          "internalType": "uint256",
          "name": "totalBorrows",
          "type": "uint256"
        }
      ],
      "name": "RepayBorrow",
      "type": "event"
    },
    {
      "anonymous": false,
      "inputs": [
        {
          "indexed": false,
          "internalType": "address",
          "name": "benefactor",
          "type": "address"
        },
        {
          "indexed": false,
          "internalType": "uint256",
          "name": "addAmount",
          "type": "uint256"
        },
        {
          "indexed": false,
          "internalType": "uint256",
          "name": "newTotalReserves",
          "type": "uint256"
        }
      ],
      "name": "ReservesAdded",
      "type": "event"
    },
    {
      "anonymous": false,
      "inputs": [
        {
          "indexed": false,
          "internalType": "address",
          "name": "admin",
          "type": "address"
        },
        {
          "indexed": false,
          "internalType": "uint256",
          "name": "reduceAmount",
          "type": "uint256"
        },
        {
          "indexed": false,
          "internalType": "uint256",
          "name": "newTotalReserves",
          "type": "uint256"
        }
      ],
      "name": "ReservesReduced",
      "type": "event"
    },
    {
      "anonymous": false,
      "inputs": [
        {
          "indexed": true,
          "internalType": "address",
          "name": "from",
          "type": "address"
        },
        {
          "indexed": true,
          "internalType": "address",
          "name": "to",
          "type": "address"
        },
        {
          "indexed": false,
          "internalType": "uint256",
          "name": "amount",
          "type": "uint256"
        }
      ],
      "name": "Transfer",
      "type": "event"
    },
    {
      "inputs": [],
      "name": "PRECISION",
      "outputs": [
        {
          "internalType": "uint256",
          "name": "",
          "type": "uint256"
        }
      ],
      "stateMutability": "view",
      "type": "function"
    },
    {
      "inputs": [
        {
          "internalType": "bytes",
          "name": "data",
          "type": "bytes"
        }
      ],
      "name": "_becomeImplementation",
      "outputs": [],
      "stateMutability": "nonpayable",
      "type": "function"
    },
    {
      "inputs": [],
      "name": "_prepare",
      "outputs": [],
      "stateMutability": "payable",
      "type": "function"
    },
    {
      "inputs": [
        {
          "internalType": "uint256",
          "name": "newAdminFeeMantissa",
          "type": "uint256"
        }
      ],
      "name": "_setAdminFee",
      "outputs": [
        {
          "internalType": "uint256",
          "name": "",
          "type": "uint256"
        }
      ],
      "stateMutability": "nonpayable",
      "type": "function"
    },
    {
      "inputs": [
        {
          "internalType": "address",
          "name": "implementation_",
          "type": "address"
        },
        {
          "internalType": "bool",
          "name": "allowResign",
          "type": "bool"
        },
        {
          "internalType": "bytes",
          "name": "becomeImplementationData",
          "type": "bytes"
        }
      ],
      "name": "_setImplementationSafe",
      "outputs": [],
      "stateMutability": "nonpayable",
      "type": "function"
    },
    {
      "inputs": [
        {
          "internalType": "contract InterestRateModel",
          "name": "newInterestRateModel",
          "type": "address"
        }
      ],
      "name": "_setInterestRateModel",
      "outputs": [
        {
          "internalType": "uint256",
          "name": "",
          "type": "uint256"
        }
      ],
      "stateMutability": "nonpayable",
      "type": "function"
    },
    {
      "inputs": [
        {
          "internalType": "string",
          "name": "_name",
          "type": "string"
        },
        {
          "internalType": "string",
          "name": "_symbol",
          "type": "string"
        }
      ],
      "name": "_setNameAndSymbol",
      "outputs": [],
      "stateMutability": "nonpayable",
      "type": "function"
    },
    {
      "inputs": [
        {
          "internalType": "uint256",
          "name": "newReserveFactorMantissa",
          "type": "uint256"
        }
      ],
      "name": "_setReserveFactor",
      "outputs": [
        {
          "internalType": "uint256",
          "name": "",
          "type": "uint256"
        }
      ],
      "stateMutability": "nonpayable",
      "type": "function"
    },
    {
      "inputs": [
        {
          "internalType": "address",
          "name": "_plugin",
          "type": "address"
        }
      ],
      "name": "_updatePlugin",
      "outputs": [],
      "stateMutability": "nonpayable",
      "type": "function"
    },
    {
      "inputs": [
        {
          "internalType": "uint256",
          "name": "withdrawAmount",
          "type": "uint256"
        }
      ],
      "name": "_withdrawAdminFees",
      "outputs": [
        {
          "internalType": "uint256",
          "name": "",
          "type": "uint256"
        }
      ],
      "stateMutability": "nonpayable",
      "type": "function"
    },
    {
      "inputs": [
        {
          "internalType": "uint256",
          "name": "withdrawAmount",
          "type": "uint256"
        }
      ],
      "name": "_withdrawFuseFees",
      "outputs": [
        {
          "internalType": "uint256",
          "name": "",
          "type": "uint256"
        }
      ],
      "stateMutability": "nonpayable",
      "type": "function"
    },
    {
      "inputs": [],
      "name": "accrualBlockNumber",
      "outputs": [
        {
          "internalType": "uint256",
          "name": "",
          "type": "uint256"
        }
      ],
      "stateMutability": "view",
      "type": "function"
    },
    {
      "inputs": [],
      "name": "accrueInterest",
      "outputs": [
        {
          "internalType": "uint256",
          "name": "",
          "type": "uint256"
        }
      ],
      "stateMutability": "nonpayable",
      "type": "function"
    },
    {
      "inputs": [],
      "name": "adminFeeMantissa",
      "outputs": [
        {
          "internalType": "uint256",
          "name": "",
          "type": "uint256"
        }
      ],
      "stateMutability": "view",
      "type": "function"
    },
    {
      "inputs": [
        {
          "internalType": "address",
          "name": "owner",
          "type": "address"
        },
        {
          "internalType": "address",
          "name": "spender",
          "type": "address"
        }
      ],
      "name": "allowance",
      "outputs": [
        {
          "internalType": "uint256",
          "name": "",
          "type": "uint256"
        }
      ],
      "stateMutability": "view",
      "type": "function"
    },
    {
      "inputs": [
        {
          "internalType": "address",
          "name": "spender",
          "type": "address"
        },
        {
          "internalType": "uint256",
          "name": "amount",
          "type": "uint256"
        }
      ],
      "name": "approve",
      "outputs": [
        {
          "internalType": "bool",
          "name": "",
          "type": "bool"
        }
      ],
      "stateMutability": "nonpayable",
      "type": "function"
    },
    {
      "inputs": [
        {
          "internalType": "address",
          "name": "_token",
          "type": "address"
        },
        {
          "internalType": "address",
          "name": "_spender",
          "type": "address"
        }
      ],
      "name": "approve",
      "outputs": [],
      "stateMutability": "nonpayable",
      "type": "function"
    },
    {
      "inputs": [
        {
          "internalType": "address",
          "name": "owner",
          "type": "address"
        }
      ],
      "name": "balanceOf",
      "outputs": [
        {
          "internalType": "uint256",
          "name": "",
          "type": "uint256"
        }
      ],
      "stateMutability": "view",
      "type": "function"
    },
    {
      "inputs": [
        {
          "internalType": "address",
          "name": "owner",
          "type": "address"
        }
      ],
      "name": "balanceOfUnderlying",
      "outputs": [
        {
          "internalType": "uint256",
          "name": "",
          "type": "uint256"
        }
      ],
      "stateMutability": "nonpayable",
      "type": "function"
    },
    {
      "inputs": [
        {
          "internalType": "uint256",
          "name": "borrowAmount",
          "type": "uint256"
        }
      ],
      "name": "borrow",
      "outputs": [
        {
          "internalType": "uint256",
          "name": "",
          "type": "uint256"
        }
      ],
      "stateMutability": "nonpayable",
      "type": "function"
    },
    {
      "inputs": [
        {
          "internalType": "address",
          "name": "account",
          "type": "address"
        }
      ],
      "name": "borrowBalanceCurrent",
      "outputs": [
        {
          "internalType": "uint256",
          "name": "",
          "type": "uint256"
        }
      ],
      "stateMutability": "nonpayable",
      "type": "function"
    },
    {
      "inputs": [
        {
          "internalType": "address",
          "name": "account",
          "type": "address"
        }
      ],
      "name": "borrowBalanceStored",
      "outputs": [
        {
          "internalType": "uint256",
          "name": "",
          "type": "uint256"
        }
      ],
      "stateMutability": "view",
      "type": "function"
    },
    {
      "inputs": [],
      "name": "borrowIndex",
      "outputs": [
        {
          "internalType": "uint256",
          "name": "",
          "type": "uint256"
        }
      ],
      "stateMutability": "view",
      "type": "function"
    },
    {
      "inputs": [],
      "name": "borrowRatePerBlock",
      "outputs": [
        {
          "internalType": "uint256",
          "name": "",
          "type": "uint256"
        }
      ],
      "stateMutability": "view",
      "type": "function"
    },
    {
      "inputs": [],
      "name": "claim",
      "outputs": [],
      "stateMutability": "nonpayable",
      "type": "function"
    },
    {
      "inputs": [],
      "name": "comptroller",
      "outputs": [
        {
          "internalType": "contract ComptrollerInterface",
          "name": "",
          "type": "address"
        }
      ],
      "stateMutability": "view",
      "type": "function"
    },
    {
      "inputs": [],
      "name": "contractType",
      "outputs": [
        {
          "internalType": "string",
          "name": "",
          "type": "string"
        }
      ],
      "stateMutability": "view",
      "type": "function"
    },
    {
      "inputs": [],
      "name": "decimals",
      "outputs": [
        {
          "internalType": "uint8",
          "name": "",
          "type": "uint8"
        }
      ],
      "stateMutability": "view",
      "type": "function"
    },
    {
      "inputs": [],
      "name": "exchangeRateCurrent",
      "outputs": [
        {
          "internalType": "uint256",
          "name": "",
          "type": "uint256"
        }
      ],
      "stateMutability": "nonpayable",
      "type": "function"
    },
    {
      "inputs": [],
      "name": "exchangeRateStored",
      "outputs": [
        {
          "internalType": "uint256",
          "name": "",
          "type": "uint256"
        }
      ],
      "stateMutability": "view",
      "type": "function"
    },
    {
      "inputs": [],
      "name": "feeSeizeShareMantissa",
      "outputs": [
        {
          "internalType": "uint256",
          "name": "",
          "type": "uint256"
        }
      ],
      "stateMutability": "view",
      "type": "function"
    },
    {
      "inputs": [],
      "name": "fuseAdmin",
      "outputs": [
        {
          "internalType": "address payable",
          "name": "",
          "type": "address"
        }
      ],
      "stateMutability": "view",
      "type": "function"
    },
    {
      "inputs": [],
      "name": "fuseFeeMantissa",
      "outputs": [
        {
          "internalType": "uint256",
          "name": "",
          "type": "uint256"
        }
      ],
      "stateMutability": "view",
      "type": "function"
    },
    {
      "inputs": [
        {
          "internalType": "address",
          "name": "account",
          "type": "address"
        }
      ],
      "name": "getAccountSnapshot",
      "outputs": [
        {
          "internalType": "uint256",
          "name": "",
          "type": "uint256"
        },
        {
          "internalType": "uint256",
          "name": "",
          "type": "uint256"
        },
        {
          "internalType": "uint256",
          "name": "",
          "type": "uint256"
        },
        {
          "internalType": "uint256",
          "name": "",
          "type": "uint256"
        }
      ],
      "stateMutability": "view",
      "type": "function"
    },
    {
      "inputs": [],
      "name": "getCash",
      "outputs": [
        {
          "internalType": "uint256",
          "name": "",
          "type": "uint256"
        }
      ],
      "stateMutability": "view",
      "type": "function"
    },
    {
      "inputs": [],
      "name": "implementation",
      "outputs": [
        {
          "internalType": "address",
          "name": "",
          "type": "address"
        }
      ],
      "stateMutability": "view",
      "type": "function"
    },
    {
      "inputs": [
        {
          "internalType": "address",
          "name": "underlying_",
          "type": "address"
        },
        {
          "internalType": "contract ComptrollerInterface",
          "name": "comptroller_",
          "type": "address"
        },
        {
          "internalType": "address payable",
          "name": "fuseAdmin_",
          "type": "address"
        },
        {
          "internalType": "contract InterestRateModel",
          "name": "interestRateModel_",
          "type": "address"
        },
        {
          "internalType": "string",
          "name": "name_",
          "type": "string"
        },
        {
          "internalType": "string",
          "name": "symbol_",
          "type": "string"
        },
        {
          "internalType": "uint256",
          "name": "reserveFactorMantissa_",
          "type": "uint256"
        },
        {
          "internalType": "uint256",
          "name": "adminFeeMantissa_",
          "type": "uint256"
        }
      ],
      "name": "initialize",
      "outputs": [],
      "stateMutability": "nonpayable",
      "type": "function"
    },
    {
      "inputs": [
        {
          "internalType": "contract ComptrollerInterface",
          "name": "comptroller_",
          "type": "address"
        },
        {
          "internalType": "address payable",
          "name": "fuseAdmin_",
          "type": "address"
        },
        {
          "internalType": "contract InterestRateModel",
          "name": "interestRateModel_",
          "type": "address"
        },
        {
          "internalType": "uint256",
          "name": "initialExchangeRateMantissa_",
          "type": "uint256"
        },
        {
          "internalType": "string",
          "name": "name_",
          "type": "string"
        },
        {
          "internalType": "string",
          "name": "symbol_",
          "type": "string"
        },
        {
          "internalType": "uint8",
          "name": "decimals_",
          "type": "uint8"
        },
        {
          "internalType": "uint256",
          "name": "reserveFactorMantissa_",
          "type": "uint256"
        },
        {
          "internalType": "uint256",
          "name": "adminFeeMantissa_",
          "type": "uint256"
        }
      ],
      "name": "initialize",
      "outputs": [],
      "stateMutability": "nonpayable",
      "type": "function"
    },
    {
      "inputs": [],
      "name": "interestRateModel",
      "outputs": [
        {
          "internalType": "contract InterestRateModel",
          "name": "",
          "type": "address"
        }
      ],
      "stateMutability": "view",
      "type": "function"
    },
    {
      "inputs": [],
      "name": "isCEther",
      "outputs": [
        {
          "internalType": "bool",
          "name": "",
          "type": "bool"
        }
      ],
      "stateMutability": "nonpayable",
      "type": "function"
    },
    {
      "inputs": [],
      "name": "isCToken",
      "outputs": [
        {
          "internalType": "bool",
          "name": "",
          "type": "bool"
        }
      ],
      "stateMutability": "nonpayable",
      "type": "function"
    },
    {
      "inputs": [
        {
          "internalType": "address",
          "name": "borrower",
          "type": "address"
        },
        {
          "internalType": "uint256",
          "name": "repayAmount",
          "type": "uint256"
        },
        {
          "internalType": "contract CTokenInterface",
          "name": "cTokenCollateral",
          "type": "address"
        }
      ],
      "name": "liquidateBorrow",
      "outputs": [
        {
          "internalType": "uint256",
          "name": "",
          "type": "uint256"
        }
      ],
      "stateMutability": "nonpayable",
      "type": "function"
    },
    {
      "inputs": [
        {
          "internalType": "uint256",
          "name": "mintAmount",
          "type": "uint256"
        }
      ],
      "name": "mint",
      "outputs": [
        {
          "internalType": "uint256",
          "name": "",
          "type": "uint256"
        }
      ],
      "stateMutability": "nonpayable",
      "type": "function"
    },
    {
      "inputs": [],
      "name": "name",
      "outputs": [
        {
          "internalType": "string",
          "name": "",
          "type": "string"
        }
      ],
      "stateMutability": "view",
      "type": "function"
    },
    {
      "inputs": [],
      "name": "plugin",
      "outputs": [
        {
          "internalType": "contract IERC4626",
          "name": "",
          "type": "address"
        }
      ],
      "stateMutability": "view",
      "type": "function"
    },
    {
      "inputs": [],
      "name": "protocolSeizeShareMantissa",
      "outputs": [
        {
          "internalType": "uint256",
          "name": "",
          "type": "uint256"
        }
      ],
      "stateMutability": "view",
      "type": "function"
    },
    {
      "inputs": [
        {
          "internalType": "uint256",
          "name": "redeemTokens",
          "type": "uint256"
        }
      ],
      "name": "redeem",
      "outputs": [
        {
          "internalType": "uint256",
          "name": "",
          "type": "uint256"
        }
      ],
      "stateMutability": "nonpayable",
      "type": "function"
    },
    {
      "inputs": [
        {
          "internalType": "uint256",
          "name": "redeemAmount",
          "type": "uint256"
        }
      ],
      "name": "redeemUnderlying",
      "outputs": [
        {
          "internalType": "uint256",
          "name": "",
          "type": "uint256"
        }
      ],
      "stateMutability": "nonpayable",
      "type": "function"
    },
    {
      "inputs": [
        {
          "internalType": "uint256",
          "name": "repayAmount",
          "type": "uint256"
        }
      ],
      "name": "repayBorrow",
      "outputs": [
        {
          "internalType": "uint256",
          "name": "",
          "type": "uint256"
        }
      ],
      "stateMutability": "nonpayable",
      "type": "function"
    },
    {
      "inputs": [
        {
          "internalType": "address",
          "name": "borrower",
          "type": "address"
        },
        {
          "internalType": "uint256",
          "name": "repayAmount",
          "type": "uint256"
        }
      ],
      "name": "repayBorrowBehalf",
      "outputs": [
        {
          "internalType": "uint256",
          "name": "",
          "type": "uint256"
        }
      ],
      "stateMutability": "nonpayable",
      "type": "function"
    },
    {
      "inputs": [],
      "name": "reserveFactorMantissa",
      "outputs": [
        {
          "internalType": "uint256",
          "name": "",
          "type": "uint256"
        }
      ],
      "stateMutability": "view",
      "type": "function"
    },
    {
      "inputs": [
        {
          "internalType": "address",
          "name": "liquidator",
          "type": "address"
        },
        {
          "internalType": "address",
          "name": "borrower",
          "type": "address"
        },
        {
          "internalType": "uint256",
          "name": "seizeTokens",
          "type": "uint256"
        }
      ],
      "name": "seize",
      "outputs": [
        {
          "internalType": "uint256",
          "name": "",
          "type": "uint256"
        }
      ],
      "stateMutability": "nonpayable",
      "type": "function"
    },
    {
      "inputs": [],
      "name": "supplyRatePerBlock",
      "outputs": [
        {
          "internalType": "uint256",
          "name": "",
          "type": "uint256"
        }
      ],
      "stateMutability": "view",
      "type": "function"
    },
    {
      "inputs": [],
      "name": "symbol",
      "outputs": [
        {
          "internalType": "string",
          "name": "",
          "type": "string"
        }
      ],
      "stateMutability": "view",
      "type": "function"
    },
    {
      "inputs": [],
      "name": "totalAdminFees",
      "outputs": [
        {
          "internalType": "uint256",
          "name": "",
          "type": "uint256"
        }
      ],
      "stateMutability": "view",
      "type": "function"
    },
    {
      "inputs": [],
      "name": "totalBorrows",
      "outputs": [
        {
          "internalType": "uint256",
          "name": "",
          "type": "uint256"
        }
      ],
      "stateMutability": "view",
      "type": "function"
    },
    {
      "inputs": [],
      "name": "totalBorrowsCurrent",
      "outputs": [
        {
          "internalType": "uint256",
          "name": "",
          "type": "uint256"
        }
      ],
      "stateMutability": "nonpayable",
      "type": "function"
    },
    {
      "inputs": [],
      "name": "totalFuseFees",
      "outputs": [
        {
          "internalType": "uint256",
          "name": "",
          "type": "uint256"
        }
      ],
      "stateMutability": "view",
      "type": "function"
    },
    {
      "inputs": [],
      "name": "totalReserves",
      "outputs": [
        {
          "internalType": "uint256",
          "name": "",
          "type": "uint256"
        }
      ],
      "stateMutability": "view",
      "type": "function"
    },
    {
      "inputs": [],
      "name": "totalSupply",
      "outputs": [
        {
          "internalType": "uint256",
          "name": "",
          "type": "uint256"
        }
      ],
      "stateMutability": "view",
      "type": "function"
    },
    {
      "inputs": [
        {
          "internalType": "address",
          "name": "dst",
          "type": "address"
        },
        {
          "internalType": "uint256",
          "name": "amount",
          "type": "uint256"
        }
      ],
      "name": "transfer",
      "outputs": [
        {
          "internalType": "bool",
          "name": "",
          "type": "bool"
        }
      ],
      "stateMutability": "nonpayable",
      "type": "function"
    },
    {
      "inputs": [
        {
          "internalType": "address",
          "name": "src",
          "type": "address"
        },
        {
          "internalType": "address",
          "name": "dst",
          "type": "address"
        },
        {
          "internalType": "uint256",
          "name": "amount",
          "type": "uint256"
        }
      ],
      "name": "transferFrom",
      "outputs": [
        {
          "internalType": "bool",
          "name": "",
          "type": "bool"
        }
      ],
      "stateMutability": "nonpayable",
      "type": "function"
    },
    {
      "inputs": [],
      "name": "underlying",
      "outputs": [
        {
          "internalType": "address",
          "name": "",
          "type": "address"
        }
      ],
      "stateMutability": "view",
      "type": "function"
    }
  ],
  "transactionHash": "0x02ce0239c63983319e33472c26d27b21b92123d81b95926dcb5463862d916567",
  "args": [],
  "numDeployments": 11,
  "bytecode": {
    "object": "0x608060405234801561001057600080fd5b50615d5680620000216000396000f3fe6080604052600436106102c85760003560e01c806306db3ecd146102cd57806306fdde03146102ef578063095ea7b31461031a5780630e7527021461034a57806315761d5114610378578063173b9904146103a557806317bfdfbc146103bb57806318160ddd146103db578063182df0f5146103f157806319f496c8146104065780631db7894414610426578063219ef65c1461042e57806323b872dd1461044e5780632608f8181461046e578063313ce5671461048e57806334154d4c146104ba5780633af9e669146104da5780633b1d21a2146104fa57806347bd37181461050f5780634e71d92d1461052557806350d85b731461053457806356e67728146105545780635c60da1b146105745780635fe3b5671461059457806361feacff146105b45780636752e702146105ca5780636c540baf146105e55780636f307dc3146105fb57806370a082311461061b57806373acee98146106515780637e5465ba14610666578063852a12e3146106865780638d02d9a1146106a65780638f840ddd146106bc57806391dd36c6146106d257806395d89b41146106f257806395dd919314610707578063a03dce8d14610727578063a0712d6814610747578063a6afed9514610767578063a7b820df1461077c578063a9059cbb1461079c578063aa5af0fd146107bc578063aaf5eb68146107d2578063ac784ddc146107ee578063ae9d70b014610802578063b2a02ff114610817578063bd6d894d14610837578063be99f1191461084c578063c37f68e214610868578063c5ebeaec14610898578063cb2ef6f7146108b8578063db006a75146108fc578063dbfe7c191461091c578063dc028ab114610932578063dd62ed3e14610948578063ef01df4f1461098e578063f2b3abbd146109ae578063f3fdb15a146109ce578063f5e3c462146109ee578063f8f9da2814610a0e578063fca7820b14610a23578063fe9c44ae14610a43575b600080fd5b3480156102d957600080fd5b506102ed6102e83660046154be565b610a57565b005b3480156102fb57600080fd5b50610304610b65565b60405161031191906155d7565b60405180910390f35b34801561032657600080fd5b5061033a6103353660046155ea565b610bf3565b6040519015158152602001610311565b34801561035657600080fd5b5061036a610365366004615616565b610c63565b604051908152602001610311565b34801561038457600080fd5b50600154610398906001600160a01b031681565b604051610311919061562f565b3480156103b157600080fd5b5061036a600b5481565b3480156103c757600080fd5b5061036a6103d6366004615643565b610c77565b3480156103e757600080fd5b5061036a60125481565b3480156103fd57600080fd5b5061036a610cce565b34801561041257600080fd5b506102ed610421366004615643565b610d3f565b6102ed61116e565b34801561043a57600080fd5b506102ed61044936600461567a565b6112a4565b34801561045a57600080fd5b5061033a610469366004615741565b6114c9565b34801561047a57600080fd5b5061036a6104893660046155ea565b6114ef565b34801561049a57600080fd5b506005546104a89060ff1681565b60405160ff9091168152602001610311565b3480156104c657600080fd5b506102ed6104d53660046157c3565b611505565b3480156104e657600080fd5b5061036a6104f5366004615643565b611549565b34801561050657600080fd5b5061036a6115e4565b34801561051b57600080fd5b5061036a600e5481565b34801561053157600080fd5b50005b34801561054057600080fd5b506102ed61054f36600461583c565b6115f3565b34801561056057600080fd5b506102ed61056f366004615894565b611673565b34801561058057600080fd5b50600054610398906001600160a01b031681565b3480156105a057600080fd5b50600654610398906001600160a01b031681565b3480156105c057600080fd5b5061036a60105481565b3480156105d657600080fd5b5061036a666379da05b6000081565b3480156105f157600080fd5b5061036a600c5481565b34801561060757600080fd5b50601654610398906001600160a01b031681565b34801561062757600080fd5b5061036a610636366004615643565b6001600160a01b031660009081526013602052604090205490565b34801561065d57600080fd5b5061036a6117da565b34801561067257600080fd5b506102ed6106813660046158dc565b611809565b34801561069257600080fd5b5061036a6106a1366004615616565b6118fc565b3480156106b257600080fd5b5061036a60095481565b3480156106c857600080fd5b5061036a600f5481565b3480156106de57600080fd5b5061036a6106ed366004615616565b611907565b3480156106fe57600080fd5b5061030461195e565b34801561071357600080fd5b5061036a610722366004615643565b61196b565b34801561073357600080fd5b5061036a610742366004615616565b6119e5565b34801561075357600080fd5b5061036a610762366004615616565b611a28565b34801561077357600080fd5b5061036a611a34565b34801561078857600080fd5b5061036a610797366004615616565b611bc5565b3480156107a857600080fd5b5061033a6107b73660046155ea565b611c08565b3480156107c857600080fd5b5061036a600d5481565b3480156107de57600080fd5b5061036a670de0b6b3a764000081565b3480156107fa57600080fd5b50600061033a565b34801561080e57600080fd5b5061036a611c35565b34801561082357600080fd5b5061036a610832366004615741565b611cea565b34801561084357600080fd5b5061036a611d0e565b34801561085857600080fd5b5061036a67016345785d8a000081565b34801561087457600080fd5b50610888610883366004615643565b611d3e565b6040516103119493929190615915565b3480156108a457600080fd5b5061036a6108b3366004615616565b611ddf565b3480156108c457600080fd5b5060408051808201909152601b81527a434572633230506c7567696e5265776172647344656c656761746560281b6020820152610304565b34801561090857600080fd5b5061036a610917366004615616565b611dea565b34801561092857600080fd5b5061036a600a5481565b34801561093e57600080fd5b5061036a60115481565b34801561095457600080fd5b5061036a6109633660046158dc565b6001600160a01b03918216600090815260146020908152604080832093909416825291909152205490565b34801561099a57600080fd5b50601754610398906001600160a01b031681565b3480156109ba57600080fd5b5061036a6109c9366004615643565b611df5565b3480156109da57600080fd5b50600754610398906001600160a01b031681565b3480156109fa57600080fd5b5061036a610a09366004615930565b611e2d565b348015610a1a57600080fd5b5061036a611e45565b348015610a2f57600080fd5b5061036a610a3e366004615616565b611e96565b348015610a4f57600080fd5b50600161033a565b60006702c68af0bb14000090506000896001600160a01b031663313ce5676040518163ffffffff1660e01b8152600401602060405180830381865afa158015610aa4573d6000803e3d6000fd5b505050506040513d601f19601f82011682018060405250810190610ac89190615972565b9050610adb898989858a8a878b8b6112a4565b601680546001600160a01b0319166001600160a01b038c16908117909155604080516318160ddd60e01b815290516318160ddd916004808201926020929091908290030181865afa158015610b34573d6000803e3d6000fd5b505050506040513d601f19601f82011682018060405250810190610b58919061598f565b5050505050505050505050565b60038054610b72906159a8565b80601f0160208091040260200160405190810160405280929190818152602001828054610b9e906159a8565b8015610beb5780601f10610bc057610100808354040283529160200191610beb565b820191906000526020600020905b815481529060010190602001808311610bce57829003601f168201915b505050505081565b3360008181526014602090815260408083206001600160a01b03871680855292528083208590555191929182907f8c5be1e5ebec7d5bd14f71427d1e84f3dd0314c0f7b2291e5b200ac8c7c3b92590610c4f9087815260200190565b60405180910390a360019150505b92915050565b600080610c6f83611ed9565b509392505050565b600080610c8381611f41565b6000610c8d611a34565b14610cb35760405162461bcd60e51b8152600401610caa906159f3565b60405180910390fd5b610cbc8361196b565b91505b610cc881612005565b50919050565b6000806000610cdb612084565b90925090506000826003811115610cf457610cf46159dd565b14610c5d5760405162461bcd60e51b815260206004820152601b60248201527a08595e18da185b99d954985d1954dd1bdc9959125b9d195c9b985b602a1b6044820152606401610caa565b33301480610d505750610d50612143565b610db05760405162461bcd60e51b815260206004820152602b60248201527f6f6e6c792073656c6620616e642061646d696e732063616e2063616c6c205f7560448201526a383230ba32a8363ab3b4b760a91b6064820152608401610caa565b6017546000906001600160a01b0316610dc95781610dd6565b6017546001600160a01b03165b600154604051637583efcf60e01b81529192506001600160a01b031690637583efcf90610e099084908690600401615a1c565b602060405180830381865afa158015610e26573d6000803e3d6000fd5b505050506040513d601f19601f82011682018060405250810190610e4a9190615a36565b610ea45760405162461bcd60e51b815260206004820152602560248201527f706c7567696e20696d706c656d656e746174696f6e206e6f742077686974656c6044820152641a5cdd195960da1b6064820152608401610caa565b6017546001600160a01b031615801590610f2d57506017546040516370a0823160e01b81526001600160a01b03909116906370a0823190610ee990309060040161562f565b602060405180830381865afa158015610f06573d6000803e3d6000fd5b505050506040513d601f19601f82011682018060405250810190610f2a919061598f565b15155b15611010576017546040516370a0823160e01b81526001600160a01b039091169063ba0876529082906370a0823190610f6a90309060040161562f565b602060405180830381865afa158015610f87573d6000803e3d6000fd5b505050506040513d601f19601f82011682018060405250810190610fab919061598f565b30306040518463ffffffff1660e01b8152600401610fcb93929190615a53565b6020604051808303816000875af1158015610fea573d6000803e3d6000fd5b505050506040513d601f19601f8201168201806040525081019061100e919061598f565b505b601780546001600160a01b0319166001600160a01b038481169190911790915560165460405163095ea7b360e01b815291169063095ea7b39061105b90859060001990600401615a72565b6020604051808303816000875af115801561107a573d6000803e3d6000fd5b505050506040513d601f19601f8201168201806040525081019061109e9190615a36565b506016546040516370a0823160e01b81526000916001600160a01b0316906370a08231906110d090309060040161562f565b602060405180830381865afa1580156110ed573d6000803e3d6000fd5b505050506040513d601f19601f82011682018060405250810190611111919061598f565b9050801561112257611122816122ae565b6017546040517fb32957d2794aaec3ea2c8852833af2192fe9fb518777de1f883e9e821781da7591611161916001600160a01b03909116908690615a1c565b60405180910390a1505050565b3330148015906111f05750600660009054906101000a90046001600160a01b03166001600160a01b031663dd5cd22c6040518163ffffffff1660e01b8152600401602060405180830381865afa1580156111cc573d6000803e3d6000fd5b505050506040513d601f19601f820116820180604052508101906111f09190615a36565b156112a257600154600080546040516345cc970560e01b81529192839283926001600160a01b03928316926345cc970592611231929091169060040161562f565b600060405180830381865afa15801561124e573d6000803e3d6000fd5b505050506040513d6000823e601f3d908101601f191682016040526112769190810190615a8b565b60005492955090935091506001600160a01b0380851691161461129e5761129e838383612323565b5050505b565b336001600160a01b038916146112cc5760405162461bcd60e51b8152600401610caa90615b2a565b600c541580156112dc5750600d54155b6113175760405162461bcd60e51b815260206004820152600c60248201526b085a5b9a5d1a585b1a5e995960a21b6044820152606401610caa565b600180546001600160a01b0319166001600160a01b038a161790556008869055856113765760405162461bcd60e51b815260206004820152600f60248201526e02165786368616e6765526174653e3608c1b6044820152606401610caa565b600680546001600160a01b0319166001600160a01b038b1617905543600c55670de0b6b3a7640000600d5560006113ac886124b0565b905080156113e75760405162461bcd60e51b8152602060048201526008602482015267085a5c9b4e9cd95d60c21b6044820152606401610caa565b85516113fa906003906020890190615270565b50845161140e906004906020880190615270565b506005805460ff191660ff8616179055611427836125ec565b905080156114615760405162461bcd60e51b8152602060048201526007602482015266085c998e9cd95d60ca1b6044820152606401610caa565b61146a8261268b565b905080156114aa5760405162461bcd60e51b815260206004820152600d60248201526c0858591b5a5b9199594e9cd95d609a1b6044820152606401610caa565b50506002805460ff60b01b1916600160b01b1790555050505050505050565b6000806114d581611f41565b60006114e3338787876127a5565b149150610c6f81612005565b6000806114fc8484612a38565b50949350505050565b61150d612143565b6115295760405162461bcd60e51b8152600401610caa90615b2a565b611535600385856152f4565b50611542600483836152f4565b5050505050565b600080604051806020016040528061155f611d0e565b90526001600160a01b03841660009081526013602052604081205491925090819061158b908490612aa2565b909250905060008260038111156115a4576115a46159dd565b146115dc5760405162461bcd60e51b81526020600482015260086024820152672162616c616e636560c01b6044820152606401610caa565b949350505050565b60006115ee612af5565b905090565b6115fb612143565b6116175760405162461bcd60e51b8152600401610caa90615b2a565b6000546001600160a01b0385811691161461166d5761166d848484848080601f01602080910402602001604051908101604052809392919081815260200183838082843760009201919091525061232392505050565b50505050565b333014806116845750611684612143565b6116ec5760405162461bcd60e51b815260206004820152603360248201527f6f6e6c792073656c6620616e642061646d696e732063616e2063616c6c205f6260448201527232b1b7b6b2a4b6b83632b6b2b73a30ba34b7b760691b6064820152608401610caa565b6000818060200190518101906117029190615b4a565b90506001600160a01b03811615801561172557506017546001600160a01b031615155b156117a2576001546017546040516381218ea960e01b81526001600160a01b03928316926381218ea99261175e9291169060040161562f565b602060405180830381865afa15801561177b573d6000803e3d6000fd5b505050506040513d601f19601f8201168201806040525081019061179f9190615b4a565b90505b6001600160a01b038116158015906117c857506017546001600160a01b03828116911614155b156117d6576117d681610d3f565b5050565b6000806117e5611a34565b146118025760405162461bcd60e51b8152600401610caa906159f3565b50600e5490565b611811612143565b61182d5760405162461bcd60e51b8152600401610caa90615b2a565b6016546001600160a01b0383811691161480159061185957506017546001600160a01b03838116911614155b6118895760405162461bcd60e51b81526020600482015260016024820152602160f81b6044820152606401610caa565b60405163095ea7b360e01b81526001600160a01b0383169063095ea7b3906118b990849060001990600401615a72565b6020604051808303816000875af11580156118d8573d6000803e3d6000fd5b505050506040513d601f19601f8201168201806040525081019061129e9190615a36565b6000610c5d82612b8d565b60008061191381611f41565b600061191d611a34565b905080156119495761194181601181111561193a5761193a6159dd565b6050612bd3565b925050610cbf565b6119528461268b565b925050610cc881612005565b60048054610b72906159a8565b600080600061197984612c33565b90925090506000826003811115611992576119926159dd565b146119de5760405162461bcd60e51b815260206004820152601c60248201527b08589bdc9c9bddd0985b185b98d954dd1bdc9959125b9d195c9b985b60221b6044820152606401610caa565b9392505050565b6000806119f181611f41565b60006119fb611a34565b90508015611a1f57611941816011811115611a1857611a186159dd565b6033612bd3565b61195284612cec565b600080610c6f83612d5f565b600c546000904390811415611a4c5760005b91505090565b6000611a56612af5565b90506000611a68601054601154612da5565b600754600e54600f549293506000926001600160a01b03909216916315f24053918691611a959087612da5565b6040518463ffffffff1660e01b8152600401611ab393929190615b67565b602060405180830381865afa158015611ad0573d6000803e3d6000fd5b505050506040513d601f19601f82011682018060405250810190611af4919061598f565b905065048c27395000811115611b4b5781831115611b425760405162461bcd60e51b815260206004820152600b60248201526a21626f72726f775261746560a81b6044820152606401610caa565b5065048c273950005b600080611b5a86600c54612ddb565b90925090506000826003811115611b7357611b736159dd565b14611bae5760405162461bcd60e51b815260206004820152600b60248201526a21626c6f636b44656c746160a81b6044820152606401610caa565b611bba86868584612e06565b965050505050505090565b600080611bd181611f41565b6000611bdb611a34565b90508015611bff57611941816011811115611bf857611bf86159dd565b6037612bd3565b61195284612f28565b600080611c1481611f41565b6000611c22333387876127a5565b149150611c2e81612005565b5092915050565b6007546000906001600160a01b031663b8168816611c51612af5565b600e54611c6d600f54611c68601054601154612da5565b612da5565b600954600a54600b54611c809190615b93565b611c8a9190615b93565b6040518563ffffffff1660e01b8152600401611ca99493929190615915565b602060405180830381865afa158015611cc6573d6000803e3d6000fd5b505050506040513d601f19601f820116820180604052508101906115ee919061598f565b60006001611cf781611f41565b611d0333868686613006565b9150610c6f81612005565b600080611d19611a34565b14611d365760405162461bcd60e51b8152600401610caa906159f3565b6115ee610cce565b6001600160a01b038116600090815260136020526040812054819081908190818080611d6989612c33565b935090506000816003811115611d8157611d816159dd565b14611d9f5760095b6000806000975097509750975050505050611dd8565b611da7612084565b925090506000816003811115611dbf57611dbf6159dd565b14611dcb576009611d89565b5060009650919450925090505b9193509193565b6000610c5d826134e2565b6000610c5d82613526565b600080611e00611a34565b90508015611e24576119de816011811115611e1d57611e1d6159dd565b604b612bd3565b6119de836124b0565b600080611e3b858585613565565b5095945050505050565b6007546000906001600160a01b03166315f24053611e61612af5565b600e54611e78600f54611c68601054601154612da5565b6040518463ffffffff1660e01b8152600401611ca993929190615b67565b600080611ea281611f41565b6000611eac611a34565b90508015611ed057611941816011811115611ec957611ec96159dd565b6057612bd3565b611952846125ec565b6000806000611ee781611f41565b6000611ef1611a34565b90508015611f2157611f15816011811115611f0e57611f0e6159dd565b6041612bd3565b60009350935050611f32565b611f2c333387613659565b93509350505b611f3b81612005565b50915091565b600254600160b01b900460ff16611f875760405162461bcd60e51b815260206004820152600a6024820152691c994b595b9d195c995960b21b6044820152606401610caa565b80611ff557600660009054906101000a90046001600160a01b03166001600160a01b031663c90c20b16040518163ffffffff1660e01b8152600401600060405180830381600087803b158015611fdc57600080fd5b505af1158015611ff0573d6000803e3d6000fd5b505050505b506002805460ff60b01b19169055565b6002805460ff60b01b1916600160b01b1790558061208157600660009054906101000a90046001600160a01b03166001600160a01b031663632e51426040518163ffffffff1660e01b8152600401600060405180830381600087803b15801561206d57600080fd5b505af1158015611542573d6000803e3d6000fd5b50565b60125460009081908061209e575050600854600092909150565b60006120a8612af5565b905060006120b4615368565b60006120d684600e546120d1600f54611c68601054601154612da5565b613a62565b9350905060008160038111156120ee576120ee6159dd565b14612100579660009650945050505050565b61210a8386613ab4565b925090506000816003811115612122576121226159dd565b14612134579660009650945050505050565b50516000969095509350505050565b600654604080516303e1469160e61b815290516000926001600160a01b031691829163f851a440916004808201926020929091908290030181865afa158015612190573d6000803e3d6000fd5b505050506040513d601f19601f820116820180604052508101906121b49190615b4a565b6001600160a01b0316336001600160a01b03161480156122315750806001600160a01b0316630a755ec26040518163ffffffff1660e01b8152600401602060405180830381865afa15801561220d573d6000803e3d6000fd5b505050506040513d601f19601f820116820180604052508101906122319190615a36565b80611a4657506001546001600160a01b031633148015611a465750806001600160a01b0316632f1069ba6040518163ffffffff1660e01b8152600401602060405180830381865afa15801561228a573d6000803e3d6000fd5b505050506040513d601f19601f82011682018060405250810190611a469190615a36565b601754604051636e553f6560e01b8152600481018390523060248201526001600160a01b0390911690636e553f65906044016020604051808303816000875af11580156122ff573d6000803e3d6000fd5b505050506040513d601f19601f820116820180604052508101906117d6919061598f565b6001546000546040516338e6a07360e11b81526001600160a01b03928316926371cd40e69261235b9291169087908790600401615bab565b602060405180830381865afa158015612378573d6000803e3d6000fd5b505050506040513d601f19601f8201168201806040525081019061239c9190615a36565b6123d05760405162461bcd60e51b8152602060048201526005602482015264085a5b5c1b60da1b6044820152606401610caa565b600080546001600160a01b038581166001600160a01b031983161790925516303b612403576123fe82611673565b612465565b612463308360405160240161241891906155d7565b60408051601f19818403018152918152602080830180516001600160e01b0316630adccee560e31b17905281518083019092526007825266216265636f6d6560c81b90820152613b71565b505b6000546040517fd604de94d45953f9138079ec1b82d533cb2160c906d1076d1f7ed54befbca97a916124a29184916001600160a01b031690615a1c565b60405180910390a150505050565b6000806124bb612143565b6124cb576119de6001604d612bd3565b43600c54146124e0576119de600a604c612bd3565b600760009054906101000a90046001600160a01b03169050826001600160a01b0316632191f92a6040518163ffffffff1660e01b8152600401602060405180830381865afa158015612536573d6000803e3d6000fd5b505050506040513d601f19601f8201168201806040525081019061255a9190615a36565b6125905760405162461bcd60e51b8152602060048201526007602482015266216e6f7449726d60c81b6044820152606401610caa565b600780546001600160a01b0319166001600160a01b0385161790556040517fedffc32e068c7c95dfd4bdfd5c4d939a084d6b11c4199eac8436ed234d72f926906125dd9083908690615a1c565b60405180910390a160006119de565b60006125f6612143565b61260657610c5d60016058612bd3565b43600c541461261b57610c5d600a6059612bd3565b670de0b6b3a764000061263b61263384600954612da5565b600a54612da5565b111561264d57610c5d6002605a612bd3565b600b80549083905560408051828152602081018590527faaa68312e2ea9d50e16af5068410ab56e1a1fd06037b1a35664812c30f82146091016125dd565b600043600c54146126a257610c5d600a6052612bd3565b6000198214156126b25760095491505b60006126bc613c0d565b9050670de0b6b3a76400006126dc6126d6600b5486612da5565b83612da5565b11156126ee576119de60026053612bd3565b8260095414612752576126ff612143565b61270f576119de60016051612bd3565b600980549084905560408051828152602081018690527fcdd0b588250e1398549f79cfdb8217c186688822905d6715b0834ea1c865594a910160405180910390a1505b80600a541461279e57600a80549082905560408051828152602081018490527f92eef861b6533b7d3417f39c2ad7b460eed4e88a32fa3604f30e718b7602e7dc910160405180910390a1505b60006119de565b6006546040516317b9b84b60e31b815260009182916001600160a01b039091169063bdcdc258906127e0903090899089908990600401615bcf565b6020604051808303816000875af11580156127ff573d6000803e3d6000fd5b505050506040513d601f19601f82011682018060405250810190612823919061598f565b90508015612840576128386003605b83613c57565b9150506115dc565b836001600160a01b0316856001600160a01b03161415612866576128386002605c612bd3565b6000856001600160a01b0316876001600160a01b0316141561288b57506000196128b3565b506001600160a01b038086166000908152601460209081526040808320938a16835292905220545b6000806000806128c38589612ddb565b909450925060008460038111156128dc576128dc6159dd565b146128fa576128ed6009605c612bd3565b96505050505050506115dc565b6001600160a01b038a1660009081526013602052604090205461291d9089612ddb565b90945091506000846003811115612936576129366159dd565b14612947576128ed6009605d612bd3565b6001600160a01b03891660009081526013602052604090205461296a9089613ce0565b90945090506000846003811115612983576129836159dd565b14612994576128ed6009605e612bd3565b6001600160a01b03808b16600090815260136020526040808220859055918b1681522081905560001985146129ec576001600160a01b03808b166000908152601460209081526040808320938f168352929052208390555b886001600160a01b03168a6001600160a01b0316600080516020615d2a8339815191528a604051612a1f91815260200190565b60405180910390a35060009a9950505050505050505050565b6000806000612a4681611f41565b6000612a50611a34565b90508015612a8057612a74816011811115612a6d57612a6d6159dd565b6040612bd3565b60009350935050612a91565b612a8b338787613659565b93509350505b612a9a81612005565b509250929050565b600080600080612ab28686613d06565b90925090506000826003811115612acb57612acb6159dd565b14612adc5750915060009050612aee565b6000612ae782613d74565b9350935050505b9250929050565b6017546040516370a0823160e01b81526000916001600160a01b031690634cdad5069082906370a0823190612b2e90309060040161562f565b602060405180830381865afa158015612b4b573d6000803e3d6000fd5b505050506040513d601f19601f82011682018060405250810190612b6f919061598f565b6040518263ffffffff1660e01b8152600401611ca991815260200190565b600080612b9981611f41565b6000612ba3611a34565b90508015612bc757611941816011811115612bc057612bc06159dd565b602a612bd3565b61195233600086613d8c565b6000600080516020615d0a833981519152836011811115612bf657612bf66159dd565b836061811115612c0857612c086159dd565b6000604051612c1993929190615b67565b60405180910390a18260118111156119de576119de6159dd565b6001600160a01b038116600090815260156020526040812080548291829182918291612c685750600096879650945050505050565b612c788160000154600d5461433b565b90945092506000846003811115612c9157612c916159dd565b14612ca457509195600095509350505050565b612cb283826001015461437a565b90945091506000846003811115612ccb57612ccb6159dd565b14612cde57509195600095509350505050565b506000969095509350505050565b60008043600c5414612d04576119de600a6035612bd3565b82612d0d612af5565b1015612d1f576119de600e6034612bd3565b601154831115612d35576119de60026036612bd3565b612d41601154846143a5565b601181905560015490915061279e906001600160a01b0316846143df565b6000806000612d6d81611f41565b6000612d77611a34565b90508015612d9b57611f15816011811115612d9457612d946159dd565b6020612bd3565b611f2c3386614456565b60006119de8383604051806040016040528060118152602001706164646974696f6e206f766572666c6f7760781b8152506147a4565b600080838311612dfa576000612df18486615bf9565b91509150612aee565b50600390506000612aee565b600080612e21604051806020016040528086815250846147d5565b90506000612e3182600e546147ff565b90506000612e4182600e54612da5565b90506000612e626040518060200160405280600b5481525084600f54614817565b90506000612e836040518060200160405280600a5481525085601154614817565b90506000612ea4604051806020016040528060095481525086601054614817565b90506000612eb787600d54600d54614817565b600c8d9055600d819055600e869055600f859055601184905560108390556040519091507f4dec04e750ca11537cabcd8a9eab06494de08da3735bc8871cd41250e190bc0490612f0e908d90899085908a90615915565b60405180910390a160009c9b505050505050505050505050565b60008043600c5414612f40576119de600a6039612bd3565b82612f49612af5565b1015612f5b576119de600e6038612bd3565b601054831115612f71576119de6002603a612bd3565b612f7d601054846143a5565b90508060108190555061279e600660009054906101000a90046001600160a01b03166001600160a01b031663f851a4406040518163ffffffff1660e01b8152600401602060405180830381865afa158015612fdc573d6000803e3d6000fd5b505050506040513d601f19601f820116820180604052508101906130009190615b4a565b846143df565b60065460405163d02f735160e01b815260009182916001600160a01b039091169063d02f7351906130439030908a908a908a908a90600401615c10565b6020604051808303816000875af1158015613062573d6000803e3d6000fd5b505050506040513d601f19601f82011682018060405250810190613086919061598f565b9050801561309b576128386003601d83613c57565b846001600160a01b0316846001600160a01b031614156130c1576128386006601e612bd3565b613126604080516101808101909152806000815260200160008152602001600081526020016000815260200160008152602001600081526020016000815260200160008152602001600081526020016000815260200160008152602001600081525090565b6001600160a01b0385166000908152601360205260409020546131499085612ddb565b6020830181905282826003811115613163576131636159dd565b6003811115613174576131746159dd565b905250600090508151600381111561318e5761318e6159dd565b146131be576131b56009601c836000015160038111156131b0576131b06159dd565b613c57565b925050506115dc565b6131dd846040518060200160405280666379da05b60000815250614838565b6080820152604080516020810190915267016345785d8a00008152613203908590614838565b61014082015260808101516132289061321d9086906143a5565b8261014001516143a5565b6060820152613235612084565b60c083018190528282600381111561324f5761324f6159dd565b6003811115613260576132606159dd565b905250600090508151600381111561327a5761327a6159dd565b146132b75760405162461bcd60e51b815260206004820152600d60248201526c2165786368616e67655261746560981b6044820152606401610caa565b6132d760405180602001604052808360c0015181525082608001516147ff565b60a0820152604080516020810190915260c082015181526101408201516132fe91906147ff565b610160820152600f5460a08201516133169190612da5565b60e082015260125460808201516133309161321d916143a5565b6101208201526011546101608201516133499190612da5565b6101008201526001600160a01b03861660009081526013602052604090205460608201516133779190613ce0565b6040830181905282826003811115613391576133916159dd565b60038111156133a2576133a26159dd565b90525060009050815160038111156133bc576133bc6159dd565b146133de576131b56009601b836000015160038111156131b0576131b06159dd565b60e0810151600f556101208101516012556101008101516011556020808201516001600160a01b0387811660008181526013855260408082209490945583860151928b1680825290849020929092556060850151925192835290929091600080516020615d2a833981519152910160405180910390a3306001600160a01b0316856001600160a01b0316600080516020615d2a833981519152836080015160405161348b91815260200190565b60405180910390a360a081015160e08201516040517fa91e67c5ea634cd43a12c5a482724b03de01e85ca68702a53d0c2f45cb7c1dc5926134cd923092615c43565b60405180910390a16000979650505050505050565b6000806134ee81611f41565b60006134f8611a34565b9050801561351c57611941816011811115613515576135156159dd565b600a612bd3565b611952338561485b565b60008061353281611f41565b600061353c611a34565b9050801561355957611941816011811115612bc057612bc06159dd565b61195233856000613d8c565b600080600061357381611f41565b600061357d611a34565b905080156135ad576135a181601181111561359a5761359a6159dd565b6011612bd3565b60009350935050613647565b846001600160a01b031663a6afed956040518163ffffffff1660e01b81526004016020604051808303816000875af11580156135ed573d6000803e3d6000fd5b505050506040513d601f19601f82011682018060405250810190613611919061598f565b90508015613635576135a181601181111561362e5761362e6159dd565b6012612bd3565b61364133888888614beb565b93509350505b61365081612005565b50935093915050565b600654604051631200453160e11b8152600091829182916001600160a01b0316906324008a62906136949030908a908a908a90600401615bcf565b6020604051808303816000875af11580156136b3573d6000803e3d6000fd5b505050506040513d601f19601f820116820180604052508101906136d7919061598f565b905080156136f8576136ec6003604383613c57565b60009250925050613a5a565b43600c541461370d576136ec600a6044612bd3565b6137566040805161010081019091528060008152602001600081526020016000815260200160008152602001600081526020016000815260200160008152602001600081525090565b6001600160a01b038616600090815260156020526040902060010154606082015261378086612c33565b608083018190526020830182600381111561379d5761379d6159dd565b60038111156137ae576137ae6159dd565b90525060009050816020015160038111156137cb576137cb6159dd565b146137fa576137ed60096042836020015160038111156131b0576131b06159dd565b6000935093505050613a5a565b600019851415613813576080810151604082015261381b565b604081018590525b613829878260400151615087565b60e08201819052608082015161383e91612ddb565b60a083018190526020830182600381111561385b5761385b6159dd565b600381111561386c5761386c6159dd565b9052506000905081602001516003811115613889576138896159dd565b146138f95760405162461bcd60e51b815260206004820152603a60248201527f52455041595f424f52524f575f4e45575f4143434f554e545f424f52524f575f604482015279109053105390d157d0d05310d55310551253d397d1905253115160321b6064820152608401610caa565b613909600e548260e00151612ddb565b60c0830181905260208301826003811115613926576139266159dd565b6003811115613937576139376159dd565b9052506000905081602001516003811115613954576139546159dd565b146139bb5760405162461bcd60e51b815260206004820152603160248201527f52455041595f424f52524f575f4e45575f544f54414c5f42414c414e43455f43604482015270105310d55310551253d397d19052531151607a1b6064820152608401610caa565b60a081810180516001600160a01b03898116600081815260156020908152604091829020948555600d5460019095019490945560c0870151600e81905560e088015195518251948f16855294840192909252820193909352606081019190915260808101919091527f1a2a22cb034d26d1854bdc6666a5b91fe25efbbb5dcad3b0355478d6f5c362a1910160405180910390a160e00151600093509150505b935093915050565b600080600080613a728787613ce0565b90925090506000826003811115613a8b57613a8b6159dd565b14613a9c5750915060009050613a5a565b613aa68186612ddb565b935093505050935093915050565b6000613abe615368565b600080613ad386670de0b6b3a764000061433b565b90925090506000826003811115613aec57613aec6159dd565b14613b0b57506040805160208101909152600081529092509050612aee565b600080613b18838861437a565b90925090506000826003811115613b3157613b316159dd565b14613b545781604051806020016040528060008152509550955050505050612aee565b604080516020810190915290815260009890975095505050505050565b6060600080856001600160a01b031685604051613b8e9190615c64565b6000604051808303816000865af19150503d8060008114613bcb576040519150601f19603f3d011682016040523d82523d6000602084013e613bd0565b606091505b509150915081613c0457805115613bea5780518082602001fd5b8360405162461bcd60e51b8152600401610caa91906155d7565b95945050505050565b6001546040805163dd86fea160e01b815290516000926001600160a01b03169163dd86fea19160048083019260209291908290030181865afa158015611cc6573d6000803e3d6000fd5b6000600080516020615d0a833981519152846011811115613c7a57613c7a6159dd565b846061811115613c8c57613c8c6159dd565b84604051613c9c93929190615b67565b60405180910390a16003846011811115613cb857613cb86159dd565b14613cd457836011811115613ccf57613ccf6159dd565b6115dc565b6115dc826103e8615b93565b600080838301848110613cf857600092509050612aee565b600260009250925050612aee565b6000613d10615368565b600080613d2186600001518661433b565b90925090506000826003811115613d3a57613d3a6159dd565b14613d5957506040805160208101909152600081529092509050612aee565b60408051602081019091529081526000969095509350505050565b8051600090610c5d90670de0b6b3a764000090615c80565b6000821580613d99575081155b613ddf5760405162461bcd60e51b815260206004820152601760248201527602172656465656d546f6b656e73496e6f724f7574213d3604c1b6044820152606401610caa565b613de761537b565b613def612084565b6040830181905260208301826003811115613e0c57613e0c6159dd565b6003811115613e1d57613e1d6159dd565b9052506000905081602001516003811115613e3a57613e3a6159dd565b14613e6457613e5c6009602e836020015160038111156131b0576131b06159dd565b9150506119de565b600019831415613ee957600654604051630cbb414760e11b81526001600160a01b0390911690631976828e90613ea39088903090600090600401615bab565b6020604051808303816000875af1158015613ec2573d6000803e3d6000fd5b505050506040513d601f19601f82011682018060405250810190613ee6919061598f565b92505b8315613f82576060810184905260408051602081018252908201518152613f109085612aa2565b6080830181905260208301826003811115613f2d57613f2d6159dd565b6003811115613f3e57613f3e6159dd565b9052506000905081602001516003811115613f5b57613f5b6159dd565b14613f7d57613e5c6009602c836020015160038111156131b0576131b06159dd565b614013565b613f9e836040518060200160405280846040015181525061513d565b6060830181905260208301826003811115613fbb57613fbb6159dd565b6003811115613fcc57613fcc6159dd565b9052506000905081602001516003811115613fe957613fe96159dd565b1461400b57613e5c6009602d836020015160038111156131b0576131b06159dd565b608081018390525b600654606082015160405163eabe7d9160e01b81526000926001600160a01b03169163eabe7d919161404c9130918b9190600401615ca2565b6020604051808303816000875af115801561406b573d6000803e3d6000fd5b505050506040513d601f19601f8201168201806040525081019061408f919061598f565b905080156140ad576140a46003602b83613c57565b925050506119de565b43600c54146140c2576140a4600a602f612bd3565b6140d26012548360600151612ddb565b60a08401819052602084018260038111156140ef576140ef6159dd565b6003811115614100576141006159dd565b905250600090508260200151600381111561411d5761411d6159dd565b1461413f576140a460096031846020015160038111156131b0576131b06159dd565b6001600160a01b03861660009081526013602052604090205460608301516141679190612ddb565b60c0840181905260208401826003811115614184576141846159dd565b6003811115614195576141956159dd565b90525060009050826020015160038111156141b2576141b26159dd565b146141d4576140a460096030846020015160038111156131b0576131b06159dd565b81608001516141e1612af5565b10156141f3576140a4600e6032612bd3565b60a082015160125560c08201516001600160a01b03871660009081526013602052604090205560808201516142299087906143df565b306001600160a01b0316866001600160a01b0316600080516020615d2a833981519152846060015160405161426091815260200190565b60405180910390a3608082015160608301516040517fe5b754fb1abb7f01b499791d0b820ae3b6af3424ac1c59768edb53f4ec31a929926142a2928a92615c43565b60405180910390a1600654608083015160608401516040516351dff98960e01b81523060048201526001600160a01b038a81166024830152604482019390935260648101919091529116906351dff98990608401600060405180830381600087803b15801561431057600080fd5b505af1158015614324573d6000803e3d6000fd5b5060009250614331915050565b9695505050505050565b6000808361434e57506000905080612aee565b8383028361435c8683615c80565b1461436f57600260009250925050612aee565b600092509050612aee565b6000808261438e5750600190506000612aee565b600061439a8486615c80565b915091509250929050565b60006119de8383604051806040016040528060158152602001747375627472616374696f6e20756e646572666c6f7760581b81525061514d565b601754604051632d182be560e21b81526001600160a01b039091169063b460af949061441390849086903090600401615a53565b6020604051808303816000875af1158015614432573d6000803e3d6000fd5b505050506040513d601f19601f8201168201806040525081019061129e919061598f565b600654604051634ef4c3e160e01b8152600091829182916001600160a01b031690634ef4c3e19061448f90309089908990600401615ca2565b6020604051808303816000875af11580156144ae573d6000803e3d6000fd5b505050506040513d601f19601f820116820180604052508101906144d2919061598f565b905080156144f3576144e76003602183613c57565b60009250925050612aee565b43600c5414614508576144e7600a6024612bd3565b61451061537b565b614518612084565b6040830181905260208301826003811115614535576145356159dd565b6003811115614546576145466159dd565b9052506000905081602001516003811115614563576145636159dd565b146145925761458560096023836020015160038111156131b0576131b06159dd565b6000935093505050612aee565b61459c8686615087565b60c08201819052604080516020810182529083015181526145bd919061513d565b60608301819052602083018260038111156145da576145da6159dd565b60038111156145eb576145eb6159dd565b9052506000905081602001516003811115614608576146086159dd565b146146555760405162461bcd60e51b815260206004820181905260248201527f4d494e545f45584348414e47455f43414c43554c4154494f4e5f4641494c45446044820152606401610caa565b60008160600151116146a65760405162461bcd60e51b815260206004820152601a6024820152791352539517d6915493d7d0d513d2d15394d7d491529150d5115160321b6044820152606401610caa565b6146b66012548260600151612da5565b60808201526001600160a01b03861660009081526013602052604090205460608201516146e39190612da5565b60a0820181905260808201516012556001600160a01b038716600090815260136020526040908190209190915560c0820151606083015191517f4c209b5fc8ad50758f13e2e1088ba56a560dff690a1c6fef26394f4c03821c4f9261474c928a92909190615c43565b60405180910390a1856001600160a01b0316306001600160a01b0316600080516020615d2a833981519152836060015160405161478b91815260200190565b60405180910390a360c001516000969095509350505050565b6000806147b18486615b93565b905082858210156114fc5760405162461bcd60e51b8152600401610caa91906155d7565b6147dd615368565b60405180602001604052806147f685600001518561517c565b90529392505050565b60008061480c84846147d5565b90506115dc81613d74565b60008061482485856147d5565b9050613c0461483282613d74565b84612da5565b6000670de0b6b3a764000061485184846000015161517c565b6119de9190615c80565b60065460405163368f515360e21b815260009182916001600160a01b039091169063da3d454c9061489490309088908890600401615ca2565b6020604051808303816000875af11580156148b3573d6000803e3d6000fd5b505050506040513d601f19601f820116820180604052508101906148d7919061598f565b905080156148f4576148ec6003601083613c57565b915050610c5d565b43600c5414614909576148ec600a600c612bd3565b6000614913612af5565b90508381101561493257614929600e600b612bd3565b92505050610c5d565b61495e604080516080810190915280600081526020016000815260200160008152602001600081525090565b61496786612c33565b6020830181905282826003811115614981576149816159dd565b6003811115614992576149926159dd565b90525060009050815160038111156149ac576149ac6159dd565b146149d7576149cd600980836000015160038111156131b0576131b06159dd565b9350505050610c5d565b6149e5816020015186613ce0565b60408301819052828260038111156149ff576149ff6159dd565b6003811115614a1057614a106159dd565b9052506000905081516003811115614a2a57614a2a6159dd565b14614a4c576149cd6009600e836000015160038111156131b0576131b06159dd565b6006546040808301519051631de6c8a560e21b81526001600160a01b039092169163779b229491614a8291309190600401615a72565b602060405180830381865afa158015614a9f573d6000803e3d6000fd5b505050506040513d601f19601f82011682018060405250810190614ac3919061598f565b92508215614ad8576149cd6003601085613c57565b614ae4600e5486613ce0565b6060830181905282826003811115614afe57614afe6159dd565b6003811115614b0f57614b0f6159dd565b9052506000905081516003811115614b2957614b296159dd565b14614b4b576149cd6009600d836000015160038111156131b0576131b06159dd565b6040808201516001600160a01b0388166000908152601560205291909120908155600d546001909101556060810151600e55614b8786866143df565b60408082015160608084015183516001600160a01b038b168152602081018a9052938401929092528201527f13ed6866d4e1ee6da46f845c46d7e54120883d75c5ea9a2dacc1c4ca8984ab809060800160405180910390a160009695505050505050565b600654604051632fe3f38f60e11b8152600091829182916001600160a01b031690635fc7e71e90614c2890309088908c908c908c90600401615c10565b6020604051808303816000875af1158015614c47573d6000803e3d6000fd5b505050506040513d601f19601f82011682018060405250810190614c6b919061598f565b90508015614c8c57614c806003601483613c57565b6000925092505061507e565b43600c5414614ca157614c80600a6018612bd3565b43846001600160a01b0316636c540baf6040518163ffffffff1660e01b8152600401602060405180830381865afa158015614ce0573d6000803e3d6000fd5b505050506040513d601f19601f82011682018060405250810190614d04919061598f565b14614d1557614c80600a6013612bd3565b866001600160a01b0316866001600160a01b03161415614d3b57614c8060066019612bd3565b84614d4c57614c8060076017612bd3565b600019851415614d6257614c8060076016612bd3565b600080614d70898989613659565b90925090508115614da557614d97826011811115614d9057614d906159dd565b601a612bd3565b60009450945050505061507e565b60065460405163c488847b60e01b815260009182916001600160a01b039091169063c488847b90614dde9030908c908890600401615ca2565b6040805180830381865afa158015614dfa573d6000803e3d6000fd5b505050506040513d601f19601f82011682018060405250810190614e1e9190615cc6565b90925090508115614e8d5760405162461bcd60e51b815260206004820152603360248201527f4c49515549444154455f434f4d5054524f4c4c45525f43414c43554c4154455f604482015272105353d5539517d4d152569157d19052531151606a1b6064820152608401610caa565b6040516370a0823160e01b815281906001600160a01b038a16906370a0823190614ebb908e9060040161562f565b602060405180830381865afa158015614ed8573d6000803e3d6000fd5b505050506040513d601f19601f82011682018060405250810190614efc919061598f565b1015614f455760405162461bcd60e51b815260206004820152601860248201527709892a2aa928882a88abea68a92b48abea89e9ebe9aaa86960431b6044820152606401610caa565b60006001600160a01b038916301415614f6b57614f64308d8d85613006565b9050614fe1565b60405163b2a02ff160e01b81526001600160a01b038a169063b2a02ff190614f9b908f908f908790600401615ca2565b6020604051808303816000875af1158015614fba573d6000803e3d6000fd5b505050506040513d601f19601f82011682018060405250810190614fde919061598f565b90505b80156150185760405162461bcd60e51b8152602060048201526006602482015265217365697a6560d01b6044820152606401610caa565b604080516001600160a01b038e811682528d811660208301528183018790528b1660608201526080810184905290517f298637f684da70674f26509b10f07ec2fbc77a335ab1e7d6215a4b2484d8bb529181900360a00190a16000975092955050505050505b94509492505050565b6016546040516323b872dd60e01b81526000916001600160a01b0316906323b872dd906150bc90869030908790600401615ca2565b6020604051808303816000875af11580156150db573d6000803e3d6000fd5b505050506040513d601f19601f820116820180604052508101906150ff9190615a36565b6151345760405162461bcd60e51b8152600401610caa906020808252600490820152631cd95b9960e21b604082015260600190565b610cc8826122ae565b600080600080612ab286866151b8565b600081848411156151715760405162461bcd60e51b8152600401610caa91906155d7565b506115dc8385615bf9565b60006119de8383604051806040016040528060178152602001766d756c7469706c69636174696f6e206f766572666c6f7760481b81525061521d565b60006151c2615368565b6000806151d7670de0b6b3a76400008761433b565b909250905060008260038111156151f0576151f06159dd565b1461520f57506040805160208101909152600081529092509050612aee565b612ae7818660000151613ab4565b600083158061522a575082155b15615237575060006119de565b60006152438486615cea565b9050836152508683615c80565b1483906114fc5760405162461bcd60e51b8152600401610caa91906155d7565b82805461527c906159a8565b90600052602060002090601f01602090048101928261529e57600085556152e4565b82601f106152b757805160ff19168380011785556152e4565b828001600101855582156152e4579182015b828111156152e45782518255916020019190600101906152c9565b506152f09291506153b9565b5090565b828054615300906159a8565b90600052602060002090601f01602090048101928261532257600085556152e4565b82601f1061533b5782800160ff198235161785556152e4565b828001600101855582156152e4579182015b828111156152e457823582559160200191906001019061534d565b6040518060200160405280600081525090565b6040805160e0810190915280600081526020016000815260200160008152602001600081526020016000815260200160008152602001600081525090565b5b808211156152f057600081556001016153ba565b6001600160a01b038116811461208157600080fd5b80356153ee816153ce565b919050565b634e487b7160e01b600052604160045260246000fd5b604051601f8201601f191681016001600160401b0381118282101715615431576154316153f3565b604052919050565b60006001600160401b03821115615452576154526153f3565b50601f01601f191660200190565b600061547361546e84615439565b615409565b905082815283838301111561548757600080fd5b828260208301376000602084830101529392505050565b600082601f8301126154af57600080fd5b6119de83833560208501615460565b600080600080600080600080610100898b0312156154db57600080fd5b88356154e6816153ce565b975060208901356154f6816153ce565b96506040890135615506816153ce565b95506060890135615516816153ce565b945060808901356001600160401b038082111561553257600080fd5b61553e8c838d0161549e565b955060a08b013591508082111561555457600080fd5b506155618b828c0161549e565b93505060c0890135915060e089013590509295985092959890939650565b60005b8381101561559a578181015183820152602001615582565b8381111561166d5750506000910152565b600081518084526155c381602086016020860161557f565b601f01601f19169290920160200192915050565b6020815260006119de60208301846155ab565b600080604083850312156155fd57600080fd5b8235615608816153ce565b946020939093013593505050565b60006020828403121561562857600080fd5b5035919050565b6001600160a01b0391909116815260200190565b60006020828403121561565557600080fd5b81356119de816153ce565b60ff8116811461208157600080fd5b80356153ee81615660565b60008060008060008060008060006101208a8c03121561569957600080fd5b89356156a4816153ce565b985060208a01356156b4816153ce565b97506156c260408b016153e3565b965060608a0135955060808a01356001600160401b03808211156156e557600080fd5b6156f18d838e0161549e565b965060a08c013591508082111561570757600080fd5b506157148c828d0161549e565b94505061572360c08b0161566f565b925060e08a013591506101008a013590509295985092959850929598565b60008060006060848603121561575657600080fd5b8335615761816153ce565b92506020840135615771816153ce565b929592945050506040919091013590565b60008083601f84011261579457600080fd5b5081356001600160401b038111156157ab57600080fd5b602083019150836020828501011115612aee57600080fd5b600080600080604085870312156157d957600080fd5b84356001600160401b03808211156157f057600080fd5b6157fc88838901615782565b9096509450602087013591508082111561581557600080fd5b5061582287828801615782565b95989497509550505050565b801515811461208157600080fd5b6000806000806060858703121561585257600080fd5b843561585d816153ce565b9350602085013561586d8161582e565b925060408501356001600160401b0381111561588857600080fd5b61582287828801615782565b6000602082840312156158a657600080fd5b81356001600160401b038111156158bc57600080fd5b8201601f810184136158cd57600080fd5b6115dc84823560208401615460565b600080604083850312156158ef57600080fd5b82356158fa816153ce565b9150602083013561590a816153ce565b809150509250929050565b93845260208401929092526040830152606082015260800190565b60008060006060848603121561594557600080fd5b8335615950816153ce565b9250602084013591506040840135615967816153ce565b809150509250925092565b60006020828403121561598457600080fd5b81516119de81615660565b6000602082840312156159a157600080fd5b5051919050565b600181811c908216806159bc57607f821691505b60208210811415610cc857634e487b7160e01b600052602260045260246000fd5b634e487b7160e01b600052602160045260246000fd5b6020808252600f908201526e085858d8dc9d59525b9d195c995cdd608a1b604082015260600190565b6001600160a01b0392831681529116602082015260400190565b600060208284031215615a4857600080fd5b81516119de8161582e565b9283526001600160a01b03918216602084015216604082015260600190565b6001600160a01b03929092168252602082015260400190565b600080600060608486031215615aa057600080fd5b8351615aab816153ce565b6020850151909350615abc8161582e565b60408501519092506001600160401b03811115615ad857600080fd5b8401601f81018613615ae957600080fd5b8051615af761546e82615439565b818152876020838501011115615b0c57600080fd5b615b1d82602083016020860161557f565b8093505050509250925092565b60208082526006908201526510b0b236b4b760d11b604082015260600190565b600060208284031215615b5c57600080fd5b81516119de816153ce565b9283526020830191909152604082015260600190565b634e487b7160e01b600052601160045260246000fd5b60008219821115615ba657615ba6615b7d565b500190565b6001600160a01b039384168152919092166020820152901515604082015260600190565b6001600160a01b039485168152928416602084015292166040820152606081019190915260800190565b600082821015615c0b57615c0b615b7d565b500390565b6001600160a01b039586168152938516602085015291841660408401529092166060820152608081019190915260a00190565b6001600160a01b039390931683526020830191909152604082015260600190565b60008251615c7681846020870161557f565b9190910192915050565b600082615c9d57634e487b7160e01b600052601260045260246000fd5b500490565b6001600160a01b039384168152919092166020820152604081019190915260600190565b60008060408385031215615cd957600080fd5b505080516020909101519092909150565b6000816000190483118215151615615d0457615d04615b7d565b50029056fe45b96fe442630264581b197e84bbada861235052c5a1aadfff9ea4e40a969aa0ddf252ad1be2c89b69c2b068fc378daa952ba7f163c4a11628f55a4df523b3efa164736f6c634300080a000a",
    "linkReferences": {}
  },
  "methodIdentifiers": {
    "PRECISION()": "aaf5eb68",
    "_becomeImplementation(bytes)": "56e67728",
    "_prepare()": "1db78944",
    "_setAdminFee(uint256)": "91dd36c6",
    "_setImplementationSafe(address,bool,bytes)": "50d85b73",
    "_setInterestRateModel(address)": "f2b3abbd",
    "_setNameAndSymbol(string,string)": "34154d4c",
    "_setReserveFactor(uint256)": "fca7820b",
    "_updatePlugin(address)": "19f496c8",
    "_withdrawAdminFees(uint256)": "a7b820df",
    "_withdrawFuseFees(uint256)": "a03dce8d",
    "accrualBlockNumber()": "6c540baf",
    "accrueInterest()": "a6afed95",
    "adminFeeMantissa()": "8d02d9a1",
    "allowance(address,address)": "dd62ed3e",
    "approve(address,address)": "7e5465ba",
    "approve(address,uint256)": "095ea7b3",
    "balanceOf(address)": "70a08231",
    "balanceOfUnderlying(address)": "3af9e669",
    "borrow(uint256)": "c5ebeaec",
    "borrowBalanceCurrent(address)": "17bfdfbc",
    "borrowBalanceStored(address)": "95dd9193",
    "borrowIndex()": "aa5af0fd",
    "borrowRatePerBlock()": "f8f9da28",
    "claim()": "4e71d92d",
    "comptroller()": "5fe3b567",
    "contractType()": "cb2ef6f7",
    "decimals()": "313ce567",
    "exchangeRateCurrent()": "bd6d894d",
    "exchangeRateStored()": "182df0f5",
    "feeSeizeShareMantissa()": "be99f119",
    "fuseAdmin()": "15761d51",
    "fuseFeeMantissa()": "dbfe7c19",
    "getAccountSnapshot(address)": "c37f68e2",
    "getCash()": "3b1d21a2",
    "implementation()": "5c60da1b",
    "initialize(address,address,address,address,string,string,uint256,uint256)": "06db3ecd",
    "initialize(address,address,address,uint256,string,string,uint8,uint256,uint256)": "219ef65c",
    "interestRateModel()": "f3fdb15a",
    "isCEther()": "ac784ddc",
    "isCToken()": "fe9c44ae",
    "liquidateBorrow(address,uint256,address)": "f5e3c462",
    "mint(uint256)": "a0712d68",
    "name()": "06fdde03",
    "plugin()": "ef01df4f",
    "protocolSeizeShareMantissa()": "6752e702",
    "redeem(uint256)": "db006a75",
    "redeemUnderlying(uint256)": "852a12e3",
    "repayBorrow(uint256)": "0e752702",
    "repayBorrowBehalf(address,uint256)": "2608f818",
    "reserveFactorMantissa()": "173b9904",
    "seize(address,address,uint256)": "b2a02ff1",
    "supplyRatePerBlock()": "ae9d70b0",
    "symbol()": "95d89b41",
    "totalAdminFees()": "61feacff",
    "totalBorrows()": "47bd3718",
    "totalBorrowsCurrent()": "73acee98",
    "totalFuseFees()": "dc028ab1",
    "totalReserves()": "8f840ddd",
    "totalSupply()": "18160ddd",
    "transfer(address,uint256)": "a9059cbb",
    "transferFrom(address,address,uint256)": "23b872dd",
    "underlying()": "6f307dc3"
  }
}