{
  "address": "0xCa36D287A561F7C7f162128c990Ec0445ca2A5a2",
  "abi": [
    {
      "anonymous": false,
      "inputs": [
        {
          "indexed": false,
          "internalType": "uint8",
          "name": "version",
          "type": "uint8"
        }
      ],
      "name": "Initialized",
      "type": "event"
    },
    {
      "anonymous": false,
      "inputs": [
        {
          "indexed": false,
          "internalType": "address",
          "name": "oldOwner",
          "type": "address"
        },
        {
          "indexed": false,
          "internalType": "address",
          "name": "newOwner",
          "type": "address"
        }
      ],
      "name": "NewOwner",
      "type": "event"
    },
    {
      "anonymous": false,
      "inputs": [
        {
          "indexed": false,
          "internalType": "address",
          "name": "oldPendingOwner",
          "type": "address"
        },
        {
          "indexed": false,
          "internalType": "address",
          "name": "newPendingOwner",
          "type": "address"
        }
      ],
      "name": "NewPendingOwner",
      "type": "event"
    },
    {
      "anonymous": false,
      "inputs": [
        {
          "indexed": true,
          "internalType": "address",
          "name": "previousOwner",
          "type": "address"
        },
        {
          "indexed": true,
          "internalType": "address",
          "name": "newOwner",
          "type": "address"
        }
      ],
      "name": "OwnershipTransferred",
      "type": "event"
    },
    {
      "inputs": [],
      "name": "_acceptOwner",
      "outputs": [],
      "stateMutability": "nonpayable",
      "type": "function"
    },
    {
      "inputs": [],
      "name": "_resetGap",
      "outputs": [],
      "stateMutability": "nonpayable",
      "type": "function"
    },
    {
      "inputs": [
        {
          "internalType": "address",
          "name": "newPendingOwner",
          "type": "address"
        }
      ],
      "name": "_setPendingOwner",
      "outputs": [],
      "stateMutability": "nonpayable",
      "type": "function"
    },
    {
      "inputs": [
        {
          "internalType": "contract ICToken",
          "name": "cToken",
          "type": "address"
        }
      ],
      "name": "getUnderlyingPrice",
      "outputs": [
        {
          "internalType": "uint256",
          "name": "",
          "type": "uint256"
        }
      ],
      "stateMutability": "view",
      "type": "function"
    },
    {
      "inputs": [
        {
          "internalType": "address[]",
          "name": "_lpTokens",
          "type": "address[]"
        },
        {
          "internalType": "address[]",
          "name": "_pools",
          "type": "address[]"
        },
        {
          "internalType": "address[][]",
          "name": "_poolUnderlyings",
          "type": "address[][]"
        }
      ],
      "name": "initialize",
      "outputs": [],
      "stateMutability": "nonpayable",
      "type": "function"
    },
    {
      "inputs": [],
      "name": "owner",
      "outputs": [
        {
          "internalType": "address",
          "name": "",
          "type": "address"
        }
      ],
      "stateMutability": "view",
      "type": "function"
    },
    {
      "inputs": [],
      "name": "pendingOwner",
      "outputs": [
        {
          "internalType": "address",
          "name": "",
          "type": "address"
        }
      ],
      "stateMutability": "view",
      "type": "function"
    },
    {
      "inputs": [
        {
          "internalType": "address",
          "name": "",
          "type": "address"
        }
      ],
      "name": "poolOf",
      "outputs": [
        {
          "internalType": "address",
          "name": "",
          "type": "address"
        }
      ],
      "stateMutability": "view",
      "type": "function"
    },
    {
      "inputs": [
        {
          "internalType": "address",
          "name": "underlying",
          "type": "address"
        }
      ],
      "name": "price",
      "outputs": [
        {
          "internalType": "uint256",
          "name": "",
          "type": "uint256"
        }
      ],
      "stateMutability": "view",
      "type": "function"
    },
    {
      "inputs": [
        {
          "internalType": "address",
          "name": "_lpToken",
          "type": "address"
        },
        {
          "internalType": "address",
          "name": "_pool",
          "type": "address"
        },
        {
          "internalType": "address[]",
          "name": "_underlyings",
          "type": "address[]"
        }
      ],
      "name": "registerPool",
      "outputs": [],
      "stateMutability": "nonpayable",
      "type": "function"
    },
    {
      "inputs": [],
      "name": "renounceOwnership",
      "outputs": [],
      "stateMutability": "nonpayable",
      "type": "function"
    },
    {
      "inputs": [
        {
          "internalType": "address",
          "name": "newOwner",
          "type": "address"
        }
      ],
      "name": "transferOwnership",
      "outputs": [],
      "stateMutability": "nonpayable",
      "type": "function"
    },
    {
      "inputs": [
        {
          "internalType": "address",
          "name": "",
          "type": "address"
        },
        {
          "internalType": "uint256",
          "name": "",
          "type": "uint256"
        }
      ],
      "name": "underlyingTokens",
      "outputs": [
        {
          "internalType": "address",
          "name": "",
          "type": "address"
        }
      ],
      "stateMutability": "view",
      "type": "function"
    }
  ],
  "transactionHash": "0x350b459574c33a106073e0714e0a4f58131db4c23a98e306e7c9f2266a210551",
  "args": [],
  "numDeployments": 2,
  "bytecode": {
    "object": "0x608060405234801561001057600080fd5b506110fe806100206000396000f3fe608060405234801561001057600080fd5b50600436106100cf5760003560e01c8063988b1fa71161008c578063e30c397811610066578063e30c3978146101aa578063f2fde38b146101bd578063fc4d33f9146101d0578063fc57d4df146101d857600080fd5b8063988b1fa714610158578063aea9107814610181578063c2bd5c2e146101a257600080fd5b806301eadec4146100d457806327a3c201146101045780636e96dfd714610119578063715018a61461012c5780638da5cb5b14610134578063904d4d7514610145575b600080fd5b6100e76100e2366004610c53565b6101eb565b6040516001600160a01b0390911681526020015b60405180910390f35b610117610112366004610d5e565b610223565b005b610117610127366004610e56565b6104bb565b610117610525565b6033546001600160a01b03166100e7565b610117610153366004610e73565b610568565b6100e7610166366004610e56565b606b602052600090815260409020546001600160a01b031681565b61019461018f366004610e56565b6105c2565b6040519081526020016100fb565b6101176105d3565b6069546100e7906001600160a01b031681565b6101176101cb366004610e56565b610525565b610117610611565b6101946101e6366004610e56565b610725565b606a602052816000526040600020818154811061020757600080fd5b6000918252602090912001546001600160a01b03169150829050565b600054610100900460ff16158080156102435750600054600160ff909116105b8061025d5750303b15801561025d575060005460ff166001145b6102c55760405162461bcd60e51b815260206004820152602e60248201527f496e697469616c697a61626c653a20636f6e747261637420697320616c72656160448201526d191e481a5b9a5d1a585b1a5e995960921b60648201526084015b60405180910390fd5b6000805460ff1916600117905580156102e8576000805461ff0019166101001790555b825184511480156102fa575081518451145b6103605760405162461bcd60e51b815260206004820152603160248201527f4e6f204c5020746f6b656e7320737570706c696564206f72206172726179206c60448201527032b733ba3439903737ba1032b8bab0b61760791b60648201526084016102bc565b610368610828565b60005b845181101561046e5783818151811061038657610386610ed5565b6020026020010151606b60008784815181106103a4576103a4610ed5565b60200260200101516001600160a01b03166001600160a01b0316815260200190815260200160002060006101000a8154816001600160a01b0302191690836001600160a01b0316021790555082818151811061040257610402610ed5565b6020026020010151606a600087848151811061042057610420610ed5565b60200260200101516001600160a01b03166001600160a01b03168152602001908152602001600020908051906020019061045b929190610bc1565b508061046681610f01565b91505061036b565b5080156104b5576000805461ff0019169055604051600181527f7f26b83ff96e1f2b6a682f133852f6798a09c465da95921460cefb38474024989060200160405180910390a15b50505050565b6104c3610859565b606980546001600160a01b038381166001600160a01b031983168117909355604080519190921680825260208201939093527fb3d55174552271a4f1aaf36b72f50381e892171636b3fb5447fe00e995e7a37b91015b60405180910390a15050565b61052d610859565b60405162461bcd60e51b815260206004820152601060248201526f6e6f74207573656420616e796d6f726560801b60448201526064016102bc565b610570610859565b6001600160a01b038084166000908152606b6020908152604080832080548786166001600160a01b0319821617909155606a83529220845192909316926105bb929091850190610bc1565b5050505050565b60006105cd826108b3565b92915050565b6105db610859565b606580546001600160a01b0319908116909155606680548216905560678054821690556068805482169055606980549091169055565b6069546001600160a01b031633146106635760405162461bcd60e51b81526020600482015260156024820152743737ba103a3432903832b73234b7339037bbb732b960591b60448201526064016102bc565b60006106776033546001600160a01b031690565b6069549091506001600160a01b031661068f81610b3f565b606980546001600160a01b0319169055604080516001600160a01b0384168152600060208201527f70aea8d848e8a90fb7661b227dc522eb6395c3dac71b63cb59edd5c9899b2364910160405180910390a1606954604080516001600160a01b03808516825290921660208301527fb3d55174552271a4f1aaf36b72f50381e892171636b3fb5447fe00e995e7a37b9101610519565b600080826001600160a01b0316636f307dc36040518163ffffffff1660e01b8152600401602060405180830381865afa158015610766573d6000803e3d6000fd5b505050506040513d601f19601f8201168201806040525081019061078a9190610f1c565b9050806001600160a01b031663313ce5676040518163ffffffff1660e01b8152600401602060405180830381865afa1580156107ca573d6000803e3d6000fd5b505050506040513d601f19601f820116820180604052508101906107ee9190610f39565b6107fc9060ff16600a611040565b610805826108b3565b61081790670de0b6b3a764000061104c565b610821919061106b565b9392505050565b600054610100900460ff1661084f5760405162461bcd60e51b81526004016102bc9061108d565b610857610b91565b565b6033546001600160a01b031633146108575760405162461bcd60e51b815260206004820181905260248201527f4f776e61626c653a2063616c6c6572206973206e6f7420746865206f776e657260448201526064016102bc565b6001600160a01b038082166000908152606b60205260408120549091168061091d5760405162461bcd60e51b815260206004820152601b60248201527f4c5020746f6b656e206973206e6f7420726567697374657265642e000000000060448201526064016102bc565b6001600160a01b0383166000908152606a602090815260408083208054825181850281018501909352808352919290919083018282801561098757602002820191906000526020600020905b81546001600160a01b03168152600190910190602001808311610969575b5050835193945060001993925060009150505b81811015610a525760008482815181106109b6576109b6610ed5565b60209081029190910101516040516315d5220f60e31b81526001600160a01b0382166004820152909150600090339063aea9107890602401602060405180830381865afa158015610a0b573d6000803e3d6000fd5b505050506040513d601f19601f82011682018060405250810190610a2f91906110d8565b905084811015610a3d578094505b50508080610a4a90610f01565b91505061099a565b50600019821415610ab65760405162461bcd60e51b815260206004820152602860248201527f4e6f206d696e696d756d20756e6465726c79696e6720746f6b656e207072696360448201526732903337bab7321760c11b60648201526084016102bc565b670de0b6b3a7640000846001600160a01b031663bb7b8b806040518163ffffffff1660e01b8152600401602060405180830381865afa158015610afd573d6000803e3d6000fd5b505050506040513d601f19601f82011682018060405250810190610b2191906110d8565b610b2b908461104c565b610b35919061106b565b9695505050505050565b603380546001600160a01b038381166001600160a01b0319831681179093556040519116919082907f8be0079c531659141344cd1fd0a4f28419497f9722a3daafe3b4186f6b6457e090600090a35050565b600054610100900460ff16610bb85760405162461bcd60e51b81526004016102bc9061108d565b61085733610b3f565b828054828255906000526020600020908101928215610c16579160200282015b82811115610c1657825182546001600160a01b0319166001600160a01b03909116178255602090920191600190910190610be1565b50610c22929150610c26565b5090565b5b80821115610c225760008155600101610c27565b6001600160a01b0381168114610c5057600080fd5b50565b60008060408385031215610c6657600080fd5b8235610c7181610c3b565b946020939093013593505050565b634e487b7160e01b600052604160045260246000fd5b604051601f8201601f1916810167ffffffffffffffff81118282101715610cbe57610cbe610c7f565b604052919050565b600067ffffffffffffffff821115610ce057610ce0610c7f565b5060051b60200190565b600082601f830112610cfb57600080fd5b81356020610d10610d0b83610cc6565b610c95565b82815260059290921b84018101918181019086841115610d2f57600080fd5b8286015b84811015610d53578035610d4681610c3b565b8352918301918301610d33565b509695505050505050565b600080600060608486031215610d7357600080fd5b833567ffffffffffffffff80821115610d8b57600080fd5b610d9787838801610cea565b9450602091508186013581811115610dae57600080fd5b610dba88828901610cea565b945050604086013581811115610dcf57600080fd5b8601601f81018813610de057600080fd5b8035610dee610d0b82610cc6565b81815260059190911b8201840190848101908a831115610e0d57600080fd5b8584015b83811015610e4557803586811115610e295760008081fd5b610e378d8983890101610cea565b845250918601918601610e11565b508096505050505050509250925092565b600060208284031215610e6857600080fd5b813561082181610c3b565b600080600060608486031215610e8857600080fd5b8335610e9381610c3b565b92506020840135610ea381610c3b565b9150604084013567ffffffffffffffff811115610ebf57600080fd5b610ecb86828701610cea565b9150509250925092565b634e487b7160e01b600052603260045260246000fd5b634e487b7160e01b600052601160045260246000fd5b6000600019821415610f1557610f15610eeb565b5060010190565b600060208284031215610f2e57600080fd5b815161082181610c3b565b600060208284031215610f4b57600080fd5b815160ff8116811461082157600080fd5b600181815b80851115610f97578160001904821115610f7d57610f7d610eeb565b80851615610f8a57918102915b93841c9390800290610f61565b509250929050565b600082610fae575060016105cd565b81610fbb575060006105cd565b8160018114610fd15760028114610fdb57610ff7565b60019150506105cd565b60ff841115610fec57610fec610eeb565b50506001821b6105cd565b5060208310610133831016604e8410600b841016171561101a575081810a6105cd565b6110248383610f5c565b806000190482111561103857611038610eeb565b029392505050565b60006108218383610f9f565b600081600019048311821515161561106657611066610eeb565b500290565b60008261108857634e487b7160e01b600052601260045260246000fd5b500490565b6020808252602b908201527f496e697469616c697a61626c653a20636f6e7472616374206973206e6f74206960408201526a6e697469616c697a696e6760a81b606082015260800190565b6000602082840312156110ea57600080fd5b505191905056fea164736f6c634300080a000a",
    "linkReferences": {}
  },
  "methodIdentifiers": {
    "_acceptOwner()": "fc4d33f9",
    "_resetGap()": "c2bd5c2e",
    "_setPendingOwner(address)": "6e96dfd7",
    "getUnderlyingPrice(address)": "fc57d4df",
    "initialize(address[],address[],address[][])": "27a3c201",
    "owner()": "8da5cb5b",
    "pendingOwner()": "e30c3978",
    "poolOf(address)": "988b1fa7",
    "price(address)": "aea91078",
    "registerPool(address,address,address[])": "904d4d75",
    "renounceOwnership()": "715018a6",
    "transferOwnership(address)": "f2fde38b",
    "underlyingTokens(address,uint256)": "01eadec4"
  }
}