{
  "address": "0x9cC2C617a9F12A4D978037A709e12886b277eD9F",
  "abi": [
    {
      "anonymous": false,
      "inputs": [
        {
          "indexed": true,
          "internalType": "address",
          "name": "owner",
          "type": "address"
        },
        {
          "indexed": true,
          "internalType": "address",
          "name": "spender",
          "type": "address"
        },
        {
          "indexed": false,
          "internalType": "uint256",
          "name": "value",
          "type": "uint256"
        }
      ],
      "name": "Approval",
      "type": "event"
    },
    {
      "anonymous": false,
      "inputs": [
        {
          "indexed": true,
          "internalType": "address",
          "name": "rewardToken",
          "type": "address"
        },
        {
          "indexed": false,
          "internalType": "uint256",
          "name": "amount",
          "type": "uint256"
        }
      ],
      "name": "ClaimRewards",
      "type": "event"
    },
    {
      "anonymous": false,
      "inputs": [
        {
          "indexed": true,
          "internalType": "address",
          "name": "caller",
          "type": "address"
        },
        {
          "indexed": true,
          "internalType": "address",
          "name": "owner",
          "type": "address"
        },
        {
          "indexed": false,
          "internalType": "uint256",
          "name": "assets",
          "type": "uint256"
        },
        {
          "indexed": false,
          "internalType": "uint256",
          "name": "shares",
          "type": "uint256"
        }
      ],
      "name": "Deposit",
      "type": "event"
    },
    {
      "anonymous": false,
      "inputs": [
        {
          "indexed": false,
          "internalType": "uint8",
          "name": "version",
          "type": "uint8"
        }
      ],
      "name": "Initialized",
      "type": "event"
    },
    {
      "anonymous": false,
      "inputs": [
        {
          "indexed": false,
          "internalType": "address",
          "name": "oldOwner",
          "type": "address"
        },
        {
          "indexed": false,
          "internalType": "address",
          "name": "newOwner",
          "type": "address"
        }
      ],
      "name": "NewOwner",
      "type": "event"
    },
    {
      "anonymous": false,
      "inputs": [
        {
          "indexed": false,
          "internalType": "address",
          "name": "oldPendingOwner",
          "type": "address"
        },
        {
          "indexed": false,
          "internalType": "address",
          "name": "newPendingOwner",
          "type": "address"
        }
      ],
      "name": "NewPendingOwner",
      "type": "event"
    },
    {
      "anonymous": false,
      "inputs": [
        {
          "indexed": true,
          "internalType": "address",
          "name": "previousOwner",
          "type": "address"
        },
        {
          "indexed": true,
          "internalType": "address",
          "name": "newOwner",
          "type": "address"
        }
      ],
      "name": "OwnershipTransferred",
      "type": "event"
    },
    {
      "anonymous": false,
      "inputs": [
        {
          "indexed": false,
          "internalType": "address",
          "name": "account",
          "type": "address"
        }
      ],
      "name": "Paused",
      "type": "event"
    },
    {
      "anonymous": false,
      "inputs": [
        {
          "indexed": true,
          "internalType": "address",
          "name": "newDestination",
          "type": "address"
        }
      ],
      "name": "RewardDestinationUpdate",
      "type": "event"
    },
    {
      "anonymous": false,
      "inputs": [
        {
          "indexed": true,
          "internalType": "address",
          "name": "from",
          "type": "address"
        },
        {
          "indexed": true,
          "internalType": "address",
          "name": "to",
          "type": "address"
        },
        {
          "indexed": false,
          "internalType": "uint256",
          "name": "value",
          "type": "uint256"
        }
      ],
      "name": "Transfer",
      "type": "event"
    },
    {
      "anonymous": false,
      "inputs": [
        {
          "indexed": false,
          "internalType": "address",
          "name": "account",
          "type": "address"
        }
      ],
      "name": "Unpaused",
      "type": "event"
    },
    {
      "anonymous": false,
      "inputs": [
        {
          "indexed": false,
          "internalType": "uint256",
          "name": "oldPerformanceFee",
          "type": "uint256"
        },
        {
          "indexed": false,
          "internalType": "uint256",
          "name": "newPerformanceFee",
          "type": "uint256"
        },
        {
          "indexed": false,
          "internalType": "address",
          "name": "oldFeeRecipient",
          "type": "address"
        },
        {
          "indexed": false,
          "internalType": "address",
          "name": "newFeeRecipient",
          "type": "address"
        }
      ],
      "name": "UpdatedFeeSettings",
      "type": "event"
    },
    {
      "anonymous": false,
      "inputs": [
        {
          "indexed": true,
          "internalType": "address",
          "name": "caller",
          "type": "address"
        },
        {
          "indexed": true,
          "internalType": "address",
          "name": "receiver",
          "type": "address"
        },
        {
          "indexed": true,
          "internalType": "address",
          "name": "owner",
          "type": "address"
        },
        {
          "indexed": false,
          "internalType": "uint256",
          "name": "assets",
          "type": "uint256"
        },
        {
          "indexed": false,
          "internalType": "uint256",
          "name": "shares",
          "type": "uint256"
        }
      ],
      "name": "Withdraw",
      "type": "event"
    },
    {
      "inputs": [],
      "name": "_acceptOwner",
      "outputs": [],
      "stateMutability": "nonpayable",
      "type": "function"
    },
    {
      "inputs": [
        {
          "internalType": "address",
          "name": "newPendingOwner",
          "type": "address"
        }
      ],
      "name": "_setPendingOwner",
      "outputs": [],
      "stateMutability": "nonpayable",
      "type": "function"
    },
    {
      "inputs": [
        {
          "internalType": "address",
          "name": "owner",
          "type": "address"
        },
        {
          "internalType": "address",
          "name": "spender",
          "type": "address"
        }
      ],
      "name": "allowance",
      "outputs": [
        {
          "internalType": "uint256",
          "name": "",
          "type": "uint256"
        }
      ],
      "stateMutability": "view",
      "type": "function"
    },
    {
      "inputs": [
        {
          "internalType": "address",
          "name": "spender",
          "type": "address"
        },
        {
          "internalType": "uint256",
          "name": "amount",
          "type": "uint256"
        }
      ],
      "name": "approve",
      "outputs": [
        {
          "internalType": "bool",
          "name": "",
          "type": "bool"
        }
      ],
      "stateMutability": "nonpayable",
      "type": "function"
    },
    {
      "inputs": [],
      "name": "asset",
      "outputs": [
        {
          "internalType": "address",
          "name": "",
          "type": "address"
        }
      ],
      "stateMutability": "view",
      "type": "function"
    },
    {
      "inputs": [
        {
          "internalType": "address",
          "name": "account",
          "type": "address"
        }
      ],
      "name": "balanceOf",
      "outputs": [
        {
          "internalType": "uint256",
          "name": "",
          "type": "uint256"
        }
      ],
      "stateMutability": "view",
      "type": "function"
    },
    {
      "inputs": [
        {
          "internalType": "address",
          "name": "account",
          "type": "address"
        }
      ],
      "name": "balanceOfUnderlying",
      "outputs": [
        {
          "internalType": "uint256",
          "name": "",
          "type": "uint256"
        }
      ],
      "stateMutability": "view",
      "type": "function"
    },
    {
      "inputs": [],
      "name": "claimRewards",
      "outputs": [],
      "stateMutability": "nonpayable",
      "type": "function"
    },
    {
      "inputs": [
        {
          "internalType": "uint256",
          "name": "shares",
          "type": "uint256"
        }
      ],
      "name": "convertToAssets",
      "outputs": [
        {
          "internalType": "uint256",
          "name": "assets",
          "type": "uint256"
        }
      ],
      "stateMutability": "view",
      "type": "function"
    },
    {
      "inputs": [
        {
          "internalType": "uint256",
          "name": "assets",
          "type": "uint256"
        }
      ],
      "name": "convertToShares",
      "outputs": [
        {
          "internalType": "uint256",
          "name": "shares",
          "type": "uint256"
        }
      ],
      "stateMutability": "view",
      "type": "function"
    },
    {
      "inputs": [],
      "name": "decimals",
      "outputs": [
        {
          "internalType": "uint8",
          "name": "",
          "type": "uint8"
        }
      ],
      "stateMutability": "view",
      "type": "function"
    },
    {
      "inputs": [
        {
          "internalType": "address",
          "name": "spender",
          "type": "address"
        },
        {
          "internalType": "uint256",
          "name": "subtractedValue",
          "type": "uint256"
        }
      ],
      "name": "decreaseAllowance",
      "outputs": [
        {
          "internalType": "bool",
          "name": "",
          "type": "bool"
        }
      ],
      "stateMutability": "nonpayable",
      "type": "function"
    },
    {
      "inputs": [
        {
          "internalType": "uint256",
          "name": "assets",
          "type": "uint256"
        },
        {
          "internalType": "address",
          "name": "receiver",
          "type": "address"
        }
      ],
      "name": "deposit",
      "outputs": [
        {
          "internalType": "uint256",
          "name": "shares",
          "type": "uint256"
        }
      ],
      "stateMutability": "nonpayable",
      "type": "function"
    },
    {
      "inputs": [],
      "name": "emergencyWithdrawAndPause",
      "outputs": [],
      "stateMutability": "nonpayable",
      "type": "function"
    },
    {
      "inputs": [],
      "name": "feeRecipient",
      "outputs": [
        {
          "internalType": "address",
          "name": "",
          "type": "address"
        }
      ],
      "stateMutability": "view",
      "type": "function"
    },
    {
      "inputs": [],
      "name": "gauge",
      "outputs": [
        {
          "internalType": "contract IChildGauge",
          "name": "",
          "type": "address"
        }
      ],
      "stateMutability": "view",
      "type": "function"
    },
    {
      "inputs": [
        {
          "internalType": "address",
          "name": "spender",
          "type": "address"
        },
        {
          "internalType": "uint256",
          "name": "addedValue",
          "type": "uint256"
        }
      ],
      "name": "increaseAllowance",
      "outputs": [
        {
          "internalType": "bool",
          "name": "",
          "type": "bool"
        }
      ],
      "stateMutability": "nonpayable",
      "type": "function"
    },
    {
      "inputs": [
        {
          "internalType": "contract ERC20Upgradeable",
          "name": "_asset",
          "type": "address"
        },
        {
          "internalType": "contract IChildGauge",
          "name": "_gauge",
          "type": "address"
        },
        {
          "internalType": "address",
          "name": "_rewardsDestination",
          "type": "address"
        },
        {
          "internalType": "contract ERC20Upgradeable[]",
          "name": "_rewardTokens",
          "type": "address[]"
        }
      ],
      "name": "initialize",
      "outputs": [],
      "stateMutability": "nonpayable",
      "type": "function"
    },
    {
      "inputs": [
        {
          "internalType": "address",
          "name": "",
          "type": "address"
        }
      ],
      "name": "maxDeposit",
      "outputs": [
        {
          "internalType": "uint256",
          "name": "",
          "type": "uint256"
        }
      ],
      "stateMutability": "view",
      "type": "function"
    },
    {
      "inputs": [
        {
          "internalType": "address",
          "name": "",
          "type": "address"
        }
      ],
      "name": "maxMint",
      "outputs": [
        {
          "internalType": "uint256",
          "name": "",
          "type": "uint256"
        }
      ],
      "stateMutability": "view",
      "type": "function"
    },
    {
      "inputs": [
        {
          "internalType": "address",
          "name": "owner",
          "type": "address"
        }
      ],
      "name": "maxRedeem",
      "outputs": [
        {
          "internalType": "uint256",
          "name": "",
          "type": "uint256"
        }
      ],
      "stateMutability": "view",
      "type": "function"
    },
    {
      "inputs": [
        {
          "internalType": "address",
          "name": "owner",
          "type": "address"
        }
      ],
      "name": "maxWithdraw",
      "outputs": [
        {
          "internalType": "uint256",
          "name": "",
          "type": "uint256"
        }
      ],
      "stateMutability": "view",
      "type": "function"
    },
    {
      "inputs": [
        {
          "internalType": "uint256",
          "name": "shares",
          "type": "uint256"
        },
        {
          "internalType": "address",
          "name": "receiver",
          "type": "address"
        }
      ],
      "name": "mint",
      "outputs": [
        {
          "internalType": "uint256",
          "name": "assets",
          "type": "uint256"
        }
      ],
      "stateMutability": "nonpayable",
      "type": "function"
    },
    {
      "inputs": [],
      "name": "name",
      "outputs": [
        {
          "internalType": "string",
          "name": "",
          "type": "string"
        }
      ],
      "stateMutability": "view",
      "type": "function"
    },
    {
      "inputs": [],
      "name": "owner",
      "outputs": [
        {
          "internalType": "address",
          "name": "",
          "type": "address"
        }
      ],
      "stateMutability": "view",
      "type": "function"
    },
    {
      "inputs": [],
      "name": "paused",
      "outputs": [
        {
          "internalType": "bool",
          "name": "",
          "type": "bool"
        }
      ],
      "stateMutability": "view",
      "type": "function"
    },
    {
      "inputs": [],
      "name": "pendingOwner",
      "outputs": [
        {
          "internalType": "address",
          "name": "",
          "type": "address"
        }
      ],
      "stateMutability": "view",
      "type": "function"
    },
    {
      "inputs": [],
      "name": "performanceFee",
      "outputs": [
        {
          "internalType": "uint256",
          "name": "",
          "type": "uint256"
        }
      ],
      "stateMutability": "view",
      "type": "function"
    },
    {
      "inputs": [
        {
          "internalType": "uint256",
          "name": "assets",
          "type": "uint256"
        }
      ],
      "name": "previewDeposit",
      "outputs": [
        {
          "internalType": "uint256",
          "name": "",
          "type": "uint256"
        }
      ],
      "stateMutability": "view",
      "type": "function"
    },
    {
      "inputs": [
        {
          "internalType": "uint256",
          "name": "shares",
          "type": "uint256"
        }
      ],
      "name": "previewMint",
      "outputs": [
        {
          "internalType": "uint256",
          "name": "",
          "type": "uint256"
        }
      ],
      "stateMutability": "view",
      "type": "function"
    },
    {
      "inputs": [
        {
          "internalType": "uint256",
          "name": "shares",
          "type": "uint256"
        }
      ],
      "name": "previewRedeem",
      "outputs": [
        {
          "internalType": "uint256",
          "name": "",
          "type": "uint256"
        }
      ],
      "stateMutability": "view",
      "type": "function"
    },
    {
      "inputs": [
        {
          "internalType": "uint256",
          "name": "assets",
          "type": "uint256"
        }
      ],
      "name": "previewWithdraw",
      "outputs": [
        {
          "internalType": "uint256",
          "name": "",
          "type": "uint256"
        }
      ],
      "stateMutability": "view",
      "type": "function"
    },
    {
      "inputs": [
        {
          "internalType": "uint256",
          "name": "shares",
          "type": "uint256"
        },
        {
          "internalType": "address",
          "name": "receiver",
          "type": "address"
        },
        {
          "internalType": "address",
          "name": "owner",
          "type": "address"
        }
      ],
      "name": "redeem",
      "outputs": [
        {
          "internalType": "uint256",
          "name": "assets",
          "type": "uint256"
        }
      ],
      "stateMutability": "nonpayable",
      "type": "function"
    },
    {
      "inputs": [],
      "name": "renounceOwnership",
      "outputs": [],
      "stateMutability": "nonpayable",
      "type": "function"
    },
    {
      "inputs": [],
      "name": "rewardDestination",
      "outputs": [
        {
          "internalType": "address",
          "name": "",
          "type": "address"
        }
      ],
      "stateMutability": "view",
      "type": "function"
    },
    {
      "inputs": [
        {
          "internalType": "uint256",
          "name": "",
          "type": "uint256"
        }
      ],
      "name": "rewardTokens",
      "outputs": [
        {
          "internalType": "contract ERC20Upgradeable",
          "name": "",
          "type": "address"
        }
      ],
      "stateMutability": "view",
      "type": "function"
    },
    {
      "inputs": [
        {
          "internalType": "address",
          "name": "newDestination",
          "type": "address"
        }
      ],
      "name": "setRewardDestination",
      "outputs": [],
      "stateMutability": "nonpayable",
      "type": "function"
    },
    {
      "inputs": [
        {
          "internalType": "address",
          "name": "market",
          "type": "address"
        }
      ],
      "name": "shutdown",
      "outputs": [
        {
          "internalType": "uint256",
          "name": "",
          "type": "uint256"
        }
      ],
      "stateMutability": "nonpayable",
      "type": "function"
    },
    {
      "inputs": [],
      "name": "symbol",
      "outputs": [
        {
          "internalType": "string",
          "name": "",
          "type": "string"
        }
      ],
      "stateMutability": "view",
      "type": "function"
    },
    {
      "inputs": [],
      "name": "takePerformanceFee",
      "outputs": [],
      "stateMutability": "nonpayable",
      "type": "function"
    },
    {
      "inputs": [],
      "name": "totalAssets",
      "outputs": [
        {
          "internalType": "uint256",
          "name": "",
          "type": "uint256"
        }
      ],
      "stateMutability": "view",
      "type": "function"
    },
    {
      "inputs": [],
      "name": "totalSupply",
      "outputs": [
        {
          "internalType": "uint256",
          "name": "",
          "type": "uint256"
        }
      ],
      "stateMutability": "view",
      "type": "function"
    },
    {
      "inputs": [
        {
          "internalType": "address",
          "name": "to",
          "type": "address"
        },
        {
          "internalType": "uint256",
          "name": "amount",
          "type": "uint256"
        }
      ],
      "name": "transfer",
      "outputs": [
        {
          "internalType": "bool",
          "name": "",
          "type": "bool"
        }
      ],
      "stateMutability": "nonpayable",
      "type": "function"
    },
    {
      "inputs": [
        {
          "internalType": "address",
          "name": "from",
          "type": "address"
        },
        {
          "internalType": "address",
          "name": "to",
          "type": "address"
        },
        {
          "internalType": "uint256",
          "name": "amount",
          "type": "uint256"
        }
      ],
      "name": "transferFrom",
      "outputs": [
        {
          "internalType": "bool",
          "name": "",
          "type": "bool"
        }
      ],
      "stateMutability": "nonpayable",
      "type": "function"
    },
    {
      "inputs": [
        {
          "internalType": "address",
          "name": "newOwner",
          "type": "address"
        }
      ],
      "name": "transferOwnership",
      "outputs": [],
      "stateMutability": "nonpayable",
      "type": "function"
    },
    {
      "inputs": [],
      "name": "unpause",
      "outputs": [],
      "stateMutability": "nonpayable",
      "type": "function"
    },
    {
      "inputs": [
        {
          "internalType": "uint256",
          "name": "newPerformanceFee",
          "type": "uint256"
        },
        {
          "internalType": "address",
          "name": "newFeeRecipient",
          "type": "address"
        }
      ],
      "name": "updateFeeSettings",
      "outputs": [],
      "stateMutability": "nonpayable",
      "type": "function"
    },
    {
      "inputs": [],
      "name": "vaultShareHWM",
      "outputs": [
        {
          "internalType": "uint256",
          "name": "",
          "type": "uint256"
        }
      ],
      "stateMutability": "view",
      "type": "function"
    },
    {
      "inputs": [
        {
          "internalType": "uint256",
          "name": "assets",
          "type": "uint256"
        },
        {
          "internalType": "address",
          "name": "receiver",
          "type": "address"
        },
        {
          "internalType": "address",
          "name": "owner",
          "type": "address"
        }
      ],
      "name": "withdraw",
      "outputs": [
        {
          "internalType": "uint256",
          "name": "shares",
          "type": "uint256"
        }
      ],
      "stateMutability": "nonpayable",
      "type": "function"
    },
    {
      "inputs": [],
      "name": "withdrawAccruedFees",
      "outputs": [],
      "stateMutability": "nonpayable",
      "type": "function"
    }
  ],
  "transactionHash": "0x74238b5ab18beba2112cd429435a2b36b3a1dbb75fc5a1eb41a4d5bfa272a42b",
  "args": [],
  "numDeployments": 1,
  "bytecode": {
    "object": "0x608060405234801561001057600080fd5b5061346a806100206000396000f3fe608060405234801561001057600080fd5b50600436106102d65760003560e01c80637bb7bed111610182578063ba087652116100e9578063dd62ed3e116100a2578063ef8b30f71161007c578063ef8b30f714610581578063f2fde38b14610606578063fc4d33f914610619578063fda45d861461062157600080fd5b8063dd62ed3e146105cd578063e30c3978146105e0578063e6bfbfd8146105f357600080fd5b8063ba08765214610559578063c63d75b61461056c578063c6e6f59214610581578063cce2f3fb14610594578063ce96cb77146105a7578063d905777e146105ba57600080fd5b8063a457c2d71161013b578063a457c2d7146104f1578063a6f19c8414610504578063a9059cbb14610518578063ada82c7d1461052b578063b3d7f6b914610533578063b460af941461054657600080fd5b80637bb7bed1146104965780638457d067146104a957806387788782146104bc5780638da5cb5b146104c557806394bf804d146104d657806395d89b41146104e957600080fd5b806338d52e0f116102415780634cdad506116101fa5780636e553f65116101d45780636e553f651461043f5780636e96dfd71461045257806370a0823114610465578063715018a61461048e57600080fd5b80634cdad5061461030b57806356f89ef9146104255780635c975abb1461042d57600080fd5b806338d52e0f146103ac57806339509351146103d15780633af9e669146103e45780633f4ba83a146103f7578063402d267d146103ff578063469048401461041257600080fd5b806318160ddd1161029357806318160ddd14610369578063211493c91461037157806323b872dd1461037a578063283579781461038d578063313ce56714610395578063372500ab146103a457600080fd5b806301e1d114146102db57806306fdde03146102f657806307a2d13a1461030b578063095ea7b31461031e5780630a28a4771461034157806310509aa914610354575b600080fd5b6102e3610634565b6040519081526020015b60405180910390f35b6102fe610708565b6040516102ed9190612d91565b6102e3610319366004612dc4565b61079a565b61033161032c366004612df2565b6107ad565b60405190151581526020016102ed565b6102e361034f366004612dc4565b6107c5565b610367610362366004612e1e565b6107d2565b005b6099546102e3565b6102e360fb5481565b610331610388366004612e4e565b6108f5565b61036761091b565b604051601281526020016102ed565b6103676109f4565b60c9546001600160a01b03165b6040516001600160a01b0390911681526020016102ed565b6103316103df366004612df2565b610b0b565b6102e36103f2366004612e8f565b610b2d565b610367610b4f565b6102e361040d366004612e8f565b610c38565b60fd546103b9906001600160a01b031681565b610367610c56565b606554600160a01b900460ff16610331565b6102e361044d366004612e1e565b610e24565b610367610460366004612e8f565b610eed565b6102e3610473366004612e8f565b6001600160a01b031660009081526097602052604090205490565b610367610f57565b6103b96104a4366004612dc4565b610f9a565b6103676104b7366004612e8f565b610fc4565b6102e360fc5481565b6033546001600160a01b03166103b9565b6102e36104e4366004612e1e565b611057565b6102fe6110d4565b6103316104ff366004612df2565b6110e3565b610100546103b9906001600160a01b031681565b610331610526366004612df2565b611169565b610367611177565b6102e3610541366004612dc4565b6111a7565b6102e3610554366004612eac565b6111b4565b6102e3610567366004612eac565b61137d565b6102e361057a366004612e8f565b5060001990565b6102e361058f366004612dc4565b611571565b6102e36105a2366004612e8f565b61157e565b6102e36105b5366004612e8f565b611687565b6102e36105c8366004612e8f565b6116ab565b6102e36105db366004612eee565b6116c9565b6065546103b9906001600160a01b031681565b610367610601366004612f63565b6116f4565b610367610614366004612e8f565b610f57565b610367611962565b60fe546103b9906001600160a01b031681565b606554600090600160a01b900460ff166106ba57610100546040516370a0823160e01b81523060048201526001600160a01b03909116906370a0823190602401602060405180830381865afa158015610691573d6000803e3d6000fd5b505050506040513d601f19601f820116820180604052508101906106b5919061304d565b905090565b6106c2611a76565b6040516370a0823160e01b81523060048201526001600160a01b0391909116906370a0823190602401602060405180830381865afa158015610691573d6000803e3d6000fd5b6060609a805461071790613066565b80601f016020809104026020016040519081016040528092919081815260200182805461074390613066565b80156107905780601f1061076557610100808354040283529160200191610790565b820191906000526020600020905b81548152906001019060200180831161077357829003601f168201915b5050505050905090565b60006107a7826000611a8a565b92915050565b6000336107bb818585611b50565b5060019392505050565b60006107a7826001611c75565b6107da611d24565b60fc5460fd5460408051928352602083018590526001600160a01b0391821690830152821660608201527fb3b62da5184b9e7e2f5d280014bb485d4444b66738025e5fb5738bbddcb6b8489060800160405180910390a160fc82905560fd546001600160a01b038281169116146108f15760fd546001600160a01b0316156108d55760fd546001600160a01b0316600081815260976020526040902054906108829082611d7e565b60fd546108ab906001600160a01b03166108a46033546001600160a01b031690565b6000611b50565b6108b58282611eaf565b6108d3826108cb6033546001600160a01b031690565b600019611b50565b505b60fd80546001600160a01b0319166001600160a01b0383161790555b5050565b600033610903858285611f70565b61090e858585611fe4565b60019150505b9392505050565b610923611d24565b610100546040516370a0823160e01b81523060048201526001600160a01b039091169062ebf5dd9082906370a0823190602401602060405180830381865afa158015610973573d6000803e3d6000fd5b505050506040513d601f19601f82011682018060405250810190610997919061304d565b3060016040518463ffffffff1660e01b81526004016109b8939291906130a1565b600060405180830381600087803b1580156109d257600080fd5b505af11580156109e6573d6000803e3d6000fd5b505050506109f261218f565b565b6109fc6121ef565b60ff5460005b818110156108f157600060ff8281548110610a1f57610a1f6130c2565b60009182526020822001546040516370a0823160e01b81523060048201526001600160a01b03909116925082906370a0823190602401602060405180830381865afa158015610a72573d6000803e3d6000fd5b505050506040513d601f19601f82011682018060405250810190610a96919061304d565b60fe54909150610ab3906001600160a01b03848116911683612240565b816001600160a01b03167f1f89f96333d3133000ee447473151fa9606543368f02271c9d95ae14f13bcc6782604051610aee91815260200190565b60405180910390a250508080610b03906130ee565b915050610a02565b6000336107bb818585610b1e83836116c9565b610b289190613109565b611b50565b6001600160a01b0381166000908152609760205260408120546107a79061079a565b610b57611d24565b610b5f6122a3565b610100546001600160a01b03166383df6747610b79611a76565b6040516370a0823160e01b81523060048201526001600160a01b0391909116906370a0823190602401602060405180830381865afa158015610bbf573d6000803e3d6000fd5b505050506040513d601f19601f82011682018060405250810190610be3919061304d565b3060016040518463ffffffff1660e01b8152600401610c04939291906130a1565b600060405180830381600087803b158015610c1e57600080fd5b505af1158015610c32573d6000803e3d6000fd5b50505050565b6000610c426122df565b610c4d5760006107a7565b60001992915050565b610c5e611d24565b60fd546001600160a01b0316610cbb5760405162461bcd60e51b815260206004820152601d60248201527f66656520726563697069656e74206e6f7420696e697469616c697a656400000060448201526064015b60405180910390fd5b6000610cc5610634565b90506000610d40610cd4611a76565b6001600160a01b031663313ce5676040518163ffffffff1660e01b8152600401602060405180830381865afa158015610d11573d6000803e3d6000fd5b505050506040513d601f19601f82011682018060405250810190610d359190613121565b61031990600a613228565b905060fb548111610d935760405162461bcd60e51b815260206004820152601b60248201527f736861726556616c756520213e207661756c74536861726548574d00000000006044820152606401610cb2565b6000610d9e60995490565b905060006ec097ce7bc90715b34b9f10000000008260fb5485610dc19190613237565b60fc54610dce919061324e565b610dd8919061324e565b610de29190613283565b60fd54909150610e10906001600160a01b0316610e0b84610e038589613237565b8591906122f9565b611eaf565b610e1b610cd4611a76565b60fb5550505050565b6000610e2e612318565b610e3783611571565b905080610e745760405162461bcd60e51b815260206004820152600b60248201526a5a45524f5f53484152455360a81b6044820152606401610cb2565b610e93333085610e82611a76565b6001600160a01b0316929190612365565b610e9d8282611eaf565b60408051848152602081018390526001600160a01b0384169133917fdcbc1c05240f31ff3ad067ef1ee35ce4997762752e3a095284754544f4c709d7910160405180910390a36107a7838261239d565b610ef5611d24565b606580546001600160a01b038381166001600160a01b031983168117909355604080519190921680825260208201939093527fb3d55174552271a4f1aaf36b72f50381e892171636b3fb5447fe00e995e7a37b91015b60405180910390a15050565b610f5f611d24565b60405162461bcd60e51b815260206004820152601060248201526f6e6f74207573656420616e796d6f726560801b6044820152606401610cb2565b60ff8181548110610faa57600080fd5b6000918252602090912001546001600160a01b0316905081565b60fe546001600160a01b0316331461100d5760405162461bcd60e51b815260206004820152600c60248201526b15539055551213d49256915160a21b6044820152606401610cb2565b60fe80546001600160a01b0319166001600160a01b0383169081179091556040517fb7e97ad603f12568684fc43c82127d953e94f3954cf36344cbbfa34d67b0b0cf90600090a250565b6000611061612318565b61106a836111a7565b905061107a333083610e82611a76565b6110848284611eaf565b60408051828152602081018590526001600160a01b0384169133917fdcbc1c05240f31ff3ad067ef1ee35ce4997762752e3a095284754544f4c709d7910160405180910390a36107a7818461239d565b6060609b805461071790613066565b600033816110f182866116c9565b9050838110156111515760405162461bcd60e51b815260206004820152602560248201527f45524332303a2064656372656173656420616c6c6f77616e63652062656c6f77604482015264207a65726f60d81b6064820152608401610cb2565b61115e8286868403611b50565b506001949350505050565b6000336107bb818585611fe4565b61117f611d24565b60fd546001600160a01b03166000818152609760205260409020546111a4918061137d565b50565b60006107a7826001611a8a565b60006111bf846107c5565b9050336001600160a01b038316146111f95760006111dd83336116c9565b905060001981146111f7576111f78333610b288585613237565b505b606554600160a01b900460ff1661130b576000611214611a76565b6040516370a0823160e01b81523060048201526001600160a01b0391909116906370a0823190602401602060405180830381865afa15801561125a573d6000803e3d6000fd5b505050506040513d601f19601f8201168201806040525081019061127e919061304d565b905061128a8583612409565b80611293611a76565b6040516370a0823160e01b81523060048201526001600160a01b0391909116906370a0823190602401602060405180830381865afa1580156112d9573d6000803e3d6000fd5b505050506040513d601f19601f820116820180604052508101906112fd919061304d565b6113079190613237565b9450505b6113158282611d7e565b60408051858152602081018390526001600160a01b03808516929086169133917ffbde797d201c681b91056529119e0b02407c7bb96a4a2c75c01fc9667232c8db910160405180910390a4610914838561136d611a76565b6001600160a01b03169190612240565b6000336001600160a01b038316146113b757600061139b83336116c9565b905060001981146113b5576113b58333610b288885613237565b505b6113c08461079a565b9050806113fd5760405162461bcd60e51b815260206004820152600b60248201526a5a45524f5f41535345545360a81b6044820152606401610cb2565b606554600160a01b900460ff1661150f576000611418611a76565b6040516370a0823160e01b81523060048201526001600160a01b0391909116906370a0823190602401602060405180830381865afa15801561145e573d6000803e3d6000fd5b505050506040513d601f19601f82011682018060405250810190611482919061304d565b905061148e8286612409565b80611497611a76565b6040516370a0823160e01b81523060048201526001600160a01b0391909116906370a0823190602401602060405180830381865afa1580156114dd573d6000803e3d6000fd5b505050506040513d601f19601f82011682018060405250810190611501919061304d565b61150b9190613237565b9150505b6115198285611d7e565b60408051828152602081018690526001600160a01b03808516929086169133917ffbde797d201c681b91056529119e0b02407c7bb96a4a2c75c01fc9667232c8db910160405180910390a4610914838261136d611a76565b60006107a7826000611c75565b6000611588611d24565b61159061243d565b600061159a611a76565b6040516370a0823160e01b81523060048201529091506000906001600160a01b038316906370a0823190602401602060405180830381865afa1580156115e4573d6000803e3d6000fd5b505050506040513d601f19601f82011682018060405250810190611608919061304d565b60405163a9059cbb60e01b81526001600160a01b038681166004830152602482018390529192509083169063a9059cbb906044016020604051808303816000875af115801561165b573d6000803e3d6000fd5b505050506040513d601f19601f8201168201806040525081019061167f91906132a5565b509392505050565b6001600160a01b0381166000908152609760205260408120546107a7906000611a8a565b6001600160a01b0381166000908152609760205260408120546107a7565b6001600160a01b03918216600090815260986020908152604080832093909416825291909152205490565b600054610100900460ff16158080156117145750600054600160ff909116105b8061172e5750303b15801561172e575060005460ff166001145b6117915760405162461bcd60e51b815260206004820152602e60248201527f496e697469616c697a61626c653a20636f6e747261637420697320616c72656160448201526d191e481a5b9a5d1a585b1a5e995960921b6064820152608401610cb2565b6000805460ff1916600117905580156117b4576000805461ff0019166101001790555b836001600160a01b03166382c630666040518163ffffffff1660e01b8152600401602060405180830381865afa1580156117f2573d6000803e3d6000fd5b505050506040513d601f19601f8201168201806040525081019061181691906132c7565b6001600160a01b0316856001600160a01b0316146118695760405162461bcd60e51b815260206004820152601060248201526f30b9b9b2ba10109e9036382a37b5b2b760811b6044820152606401610cb2565b6118728561248d565b61187c838361265a565b66b1a2bc2ec5000060fc5561010080546001600160a01b0319166001600160a01b0386811691821790925560405163095ea7b360e01b8152600481019190915260001960248201529086169063095ea7b3906044016020604051808303816000875af11580156118f0573d6000803e3d6000fd5b505050506040513d601f19601f8201168201806040525081019061191491906132a5565b50801561195b576000805461ff0019169055604051600181527f7f26b83ff96e1f2b6a682f133852f6798a09c465da95921460cefb38474024989060200160405180910390a15b5050505050565b6065546001600160a01b031633146119b45760405162461bcd60e51b81526020600482015260156024820152743737ba103a3432903832b73234b7339037bbb732b960591b6044820152606401610cb2565b60006119c86033546001600160a01b031690565b6065549091506001600160a01b03166119e0816126af565b606580546001600160a01b0319169055604080516001600160a01b0384168152600060208201527f70aea8d848e8a90fb7661b227dc522eb6395c3dac71b63cb59edd5c9899b2364910160405180910390a1606554604080516001600160a01b03808516825290921660208301527fb3d55174552271a4f1aaf36b72f50381e892171636b3fb5447fe00e995e7a37b9101610f4b565b60006106b560c9546001600160a01b031690565b600080611a9660995490565b90508015611ab757611ab2611aa9610634565b85908386612701565b611b48565b60c9546040805163313ce56760e01b81529051611b48926001600160a01b03169163313ce5679160048083019260209291908290030181865afa158015611b02573d6000803e3d6000fd5b505050506040513d601f19601f82011682018060405250810190611b269190613121565b611b3190600a613228565b60125b611b3f90600a613228565b86919086612701565b949350505050565b6001600160a01b038316611bb25760405162461bcd60e51b8152602060048201526024808201527f45524332303a20617070726f76652066726f6d20746865207a65726f206164646044820152637265737360e01b6064820152608401610cb2565b6001600160a01b038216611c135760405162461bcd60e51b815260206004820152602260248201527f45524332303a20617070726f766520746f20746865207a65726f206164647265604482015261737360f01b6064820152608401610cb2565b6001600160a01b0383811660008181526098602090815260408083209487168084529482529182902085905590518481527f8c5be1e5ebec7d5bd14f71427d1e84f3dd0314c0f7b2291e5b200ac8c7c3b92591015b60405180910390a3505050565b600080611c8160995490565b9050831580611c8e575080155b611c9e57611ab281611b3f610634565b611b48611cad6012600a613228565b60c960009054906101000a90046001600160a01b03166001600160a01b031663313ce5676040518163ffffffff1660e01b8152600401602060405180830381865afa158015611d00573d6000803e3d6000fd5b505050506040513d601f19601f82011682018060405250810190611b349190613121565b6033546001600160a01b031633146109f25760405162461bcd60e51b815260206004820181905260248201527f4f776e61626c653a2063616c6c6572206973206e6f7420746865206f776e65726044820152606401610cb2565b6001600160a01b038216611dde5760405162461bcd60e51b815260206004820152602160248201527f45524332303a206275726e2066726f6d20746865207a65726f206164647265736044820152607360f81b6064820152608401610cb2565b6001600160a01b03821660009081526097602052604090205481811015611e525760405162461bcd60e51b815260206004820152602260248201527f45524332303a206275726e20616d6f756e7420657863656564732062616c616e604482015261636560f01b6064820152608401610cb2565b6001600160a01b03831660008181526097602090815260408083208686039055609980548790039055518581529192917fddf252ad1be2c89b69c2b068fc378daa952ba7f163c4a11628f55a4df523b3ef9101611c68565b505050565b6001600160a01b038216611f055760405162461bcd60e51b815260206004820152601f60248201527f45524332303a206d696e7420746f20746865207a65726f2061646472657373006044820152606401610cb2565b8060996000828254611f179190613109565b90915550506001600160a01b0382166000818152609760209081526040808320805486019055518481527fddf252ad1be2c89b69c2b068fc378daa952ba7f163c4a11628f55a4df523b3ef910160405180910390a35050565b6000611f7c84846116c9565b90506000198114610c325781811015611fd75760405162461bcd60e51b815260206004820152601d60248201527f45524332303a20696e73756666696369656e7420616c6c6f77616e63650000006044820152606401610cb2565b610c328484848403611b50565b6001600160a01b0383166120485760405162461bcd60e51b815260206004820152602560248201527f45524332303a207472616e736665722066726f6d20746865207a65726f206164604482015264647265737360d81b6064820152608401610cb2565b6001600160a01b0382166120aa5760405162461bcd60e51b815260206004820152602360248201527f45524332303a207472616e7366657220746f20746865207a65726f206164647260448201526265737360e81b6064820152608401610cb2565b6001600160a01b038316600090815260976020526040902054818110156121225760405162461bcd60e51b815260206004820152602660248201527f45524332303a207472616e7366657220616d6f756e7420657863656564732062604482015265616c616e636560d01b6064820152608401610cb2565b6001600160a01b0380851660008181526097602052604080822086860390559286168082529083902080548601905591517fddf252ad1be2c89b69c2b068fc378daa952ba7f163c4a11628f55a4df523b3ef906121829086815260200190565b60405180910390a3610c32565b612197612318565b6065805460ff60a01b1916600160a01b1790557f62e78cea01bee320cd4e420270b5ea74000d11b0c9f74754ebdbfc544b05a2586121d23390565b6040516001600160a01b03909116815260200160405180910390a1565b61010060009054906101000a90046001600160a01b03166001600160a01b031663e6f1daf26040518163ffffffff1660e01b8152600401600060405180830381600087803b158015610c1e57600080fd5b6040516001600160a01b038316602482015260448101829052611eaa90849063a9059cbb60e01b906064015b60408051601f198184030181529190526020810180516001600160e01b03166001600160e01b03199093169290921790915261275e565b6122ab61243d565b6065805460ff60a01b191690557f5db9ee0a495bf2e6ff9c91a7834c1ba4fdd244a5e8aa4e537bd38aeae4b073aa336121d2565b6000806122ea610634565b11806106b55750506099541590565b82820281151584158583048514171661231157600080fd5b0492915050565b606554600160a01b900460ff16156109f25760405162461bcd60e51b815260206004820152601060248201526f14185d5cd8589b194e881c185d5cd95960821b6044820152606401610cb2565b6040516001600160a01b0380851660248301528316604482015260648101829052610c329085906323b872dd60e01b9060840161226c565b610100546040516383df674760e01b81526001600160a01b03909116906383df6747906123d390859030906001906004016130a1565b600060405180830381600087803b1580156123ed57600080fd5b505af1158015612401573d6000803e3d6000fd5b505050505050565b6101005460405162ebf5dd60e01b81526001600160a01b039091169062ebf5dd906123d390859030906001906004016130a1565b606554600160a01b900460ff166109f25760405162461bcd60e51b815260206004820152601460248201527314185d5cd8589b194e881b9bdd081c185d5cd95960621b6044820152606401610cb2565b600054610100900460ff166124b45760405162461bcd60e51b8152600401610cb2906132e4565b6124bc612830565b6124c461285f565b6124cc61288e565b6125de816001600160a01b03166306fdde036040518163ffffffff1660e01b8152600401600060405180830381865afa15801561250d573d6000803e3d6000fd5b505050506040513d6000823e601f3d908101601f19168201604052612535919081019061332f565b60405160200161254591906133c3565b604051602081830303815290604052826001600160a01b03166395d89b416040518163ffffffff1660e01b8152600401600060405180830381865afa158015612592573d6000803e3d6000fd5b505050506040513d6000823e601f3d908101601f191682016040526125ba919081019061332f565b6040516020016125ca9190613401565b6040516020818303038152906040526128b5565b6125e7816128e6565b806001600160a01b031663313ce5676040518163ffffffff1660e01b8152600401602060405180830381865afa158015612625573d6000803e3d6000fd5b505050506040513d601f19601f820116820180604052508101906126499190613121565b61265490600a613228565b60fb5550565b600054610100900460ff166126815760405162461bcd60e51b8152600401610cb2906132e4565b60fe80546001600160a01b0319166001600160a01b0384161790558051611eaa9060ff906020840190612c77565b603380546001600160a01b038381166001600160a01b0319831681179093556040519116919082907f8be0079c531659141344cd1fd0a4f28419497f9722a3daafe3b4186f6b6457e090600090a35050565b60008061270f868686612916565b905060018360028111156127255761272561342b565b14801561274257506000848061273d5761273d61326d565b868809115b1561275557612752600182613109565b90505b95945050505050565b60006127b3826040518060400160405280602081526020017f5361666545524332303a206c6f772d6c6576656c2063616c6c206661696c6564815250856001600160a01b03166129c69092919063ffffffff16565b805190915015611eaa57808060200190518101906127d191906132a5565b611eaa5760405162461bcd60e51b815260206004820152602a60248201527f5361666545524332303a204552433230206f7065726174696f6e20646964206e6044820152691bdd081cdd58d8d9595960b21b6064820152608401610cb2565b600054610100900460ff166128575760405162461bcd60e51b8152600401610cb2906132e4565b6109f26129d5565b600054610100900460ff166128865760405162461bcd60e51b8152600401610cb2906132e4565b6109f2612a04565b600054610100900460ff166109f25760405162461bcd60e51b8152600401610cb2906132e4565b600054610100900460ff166128dc5760405162461bcd60e51b8152600401610cb2906132e4565b6108f18282612a3a565b600054610100900460ff1661290d5760405162461bcd60e51b8152600401610cb2906132e4565b6111a481612a88565b600080806000198587098587029250828110838203039150508060001415612951578382816129475761294761326d565b0492505050610914565b80841161295d57600080fd5b60008486880960026001871981018816978890046003810283188082028403028082028403028082028403028082028403028082028403029081029092039091026000889003889004909101858311909403939093029303949094049190911702949350505050565b6060611b488484600085612ad1565b600054610100900460ff166129fc5760405162461bcd60e51b8152600401610cb2906132e4565b6109f2612bac565b600054610100900460ff16612a2b5760405162461bcd60e51b8152600401610cb2906132e4565b6065805460ff60a01b19169055565b600054610100900460ff16612a615760405162461bcd60e51b8152600401610cb2906132e4565b8151612a7490609a906020850190612cdc565b508051611eaa90609b906020840190612cdc565b600054610100900460ff16612aaf5760405162461bcd60e51b8152600401610cb2906132e4565b60c980546001600160a01b0319166001600160a01b0392909216919091179055565b606082471015612b325760405162461bcd60e51b815260206004820152602660248201527f416464726573733a20696e73756666696369656e742062616c616e636520666f6044820152651c8818d85b1b60d21b6064820152608401610cb2565b600080866001600160a01b03168587604051612b4e9190613441565b60006040518083038185875af1925050503d8060008114612b8b576040519150601f19603f3d011682016040523d82523d6000602084013e612b90565b606091505b5091509150612ba187838387612bdc565b979650505050505050565b600054610100900460ff16612bd35760405162461bcd60e51b8152600401610cb2906132e4565b6109f2336126af565b60608315612c48578251612c41576001600160a01b0385163b612c415760405162461bcd60e51b815260206004820152601d60248201527f416464726573733a2063616c6c20746f206e6f6e2d636f6e74726163740000006044820152606401610cb2565b5081611b48565b611b488383815115612c5d5781518083602001fd5b8060405162461bcd60e51b8152600401610cb29190612d91565b828054828255906000526020600020908101928215612ccc579160200282015b82811115612ccc57825182546001600160a01b0319166001600160a01b03909116178255602090920191600190910190612c97565b50612cd8929150612d50565b5090565b828054612ce890613066565b90600052602060002090601f016020900481019282612d0a5760008555612ccc565b82601f10612d2357805160ff1916838001178555612ccc565b82800160010185558215612ccc579182015b82811115612ccc578251825591602001919060010190612d35565b5b80821115612cd85760008155600101612d51565b60005b83811015612d80578181015183820152602001612d68565b83811115610c325750506000910152565b6020815260008251806020840152612db0816040850160208701612d65565b601f01601f19169190910160400192915050565b600060208284031215612dd657600080fd5b5035919050565b6001600160a01b03811681146111a457600080fd5b60008060408385031215612e0557600080fd5b8235612e1081612ddd565b946020939093013593505050565b60008060408385031215612e3157600080fd5b823591506020830135612e4381612ddd565b809150509250929050565b600080600060608486031215612e6357600080fd5b8335612e6e81612ddd565b92506020840135612e7e81612ddd565b929592945050506040919091013590565b600060208284031215612ea157600080fd5b813561091481612ddd565b600080600060608486031215612ec157600080fd5b833592506020840135612ed381612ddd565b91506040840135612ee381612ddd565b809150509250925092565b60008060408385031215612f0157600080fd5b8235612f0c81612ddd565b91506020830135612e4381612ddd565b634e487b7160e01b600052604160045260246000fd5b604051601f8201601f1916810167ffffffffffffffff81118282101715612f5b57612f5b612f1c565b604052919050565b60008060008060808587031215612f7957600080fd5b8435612f8481612ddd565b9350602085810135612f9581612ddd565b93506040860135612fa581612ddd565b9250606086013567ffffffffffffffff80821115612fc257600080fd5b818801915088601f830112612fd657600080fd5b813581811115612fe857612fe8612f1c565b8060051b9150612ff9848301612f32565b818152918301840191848101908b84111561301357600080fd5b938501935b8385101561303d578435925061302d83612ddd565b8282529385019390850190613018565b989b979a50959850505050505050565b60006020828403121561305f57600080fd5b5051919050565b600181811c9082168061307a57607f821691505b6020821081141561309b57634e487b7160e01b600052602260045260246000fd5b50919050565b9283526001600160a01b039190911660208301521515604082015260600190565b634e487b7160e01b600052603260045260246000fd5b634e487b7160e01b600052601160045260246000fd5b6000600019821415613102576131026130d8565b5060010190565b6000821982111561311c5761311c6130d8565b500190565b60006020828403121561313357600080fd5b815160ff8116811461091457600080fd5b600181815b8085111561317f578160001904821115613165576131656130d8565b8085161561317257918102915b93841c9390800290613149565b509250929050565b600082613196575060016107a7565b816131a3575060006107a7565b81600181146131b957600281146131c3576131df565b60019150506107a7565b60ff8411156131d4576131d46130d8565b50506001821b6107a7565b5060208310610133831016604e8410600b8410161715613202575081810a6107a7565b61320c8383613144565b8060001904821115613220576132206130d8565b029392505050565b600061091460ff841683613187565b600082821015613249576132496130d8565b500390565b6000816000190483118215151615613268576132686130d8565b500290565b634e487b7160e01b600052601260045260246000fd5b6000826132a057634e487b7160e01b600052601260045260246000fd5b500490565b6000602082840312156132b757600080fd5b8151801515811461091457600080fd5b6000602082840312156132d957600080fd5b815161091481612ddd565b6020808252602b908201527f496e697469616c697a61626c653a20636f6e7472616374206973206e6f74206960408201526a6e697469616c697a696e6760a81b606082015260800190565b60006020828403121561334157600080fd5b815167ffffffffffffffff8082111561335957600080fd5b818401915084601f83011261336d57600080fd5b81518181111561337f5761337f612f1c565b613392601f8201601f1916602001612f32565b91508082528560208285010111156133a957600080fd5b6133ba816020840160208601612d65565b50949350505050565b65026b4b230b9960d51b8152600082516133e4816006850160208701612d65565b650815985d5b1d60d21b6006939091019283015250600c01919050565b6136bb60f11b81526000825161341e816002850160208701612d65565b9190910160020192915050565b634e487b7160e01b600052602160045260246000fd5b60008251613453818460208701612d65565b919091019291505056fea164736f6c634300080a000a",
    "linkReferences": {}
  },
  "methodIdentifiers": {
    "_acceptOwner()": "fc4d33f9",
    "_setPendingOwner(address)": "6e96dfd7",
    "allowance(address,address)": "dd62ed3e",
    "approve(address,uint256)": "095ea7b3",
    "asset()": "38d52e0f",
    "balanceOf(address)": "70a08231",
    "balanceOfUnderlying(address)": "3af9e669",
    "claimRewards()": "372500ab",
    "convertToAssets(uint256)": "07a2d13a",
    "convertToShares(uint256)": "c6e6f592",
    "decimals()": "313ce567",
    "decreaseAllowance(address,uint256)": "a457c2d7",
    "deposit(uint256,address)": "6e553f65",
    "emergencyWithdrawAndPause()": "28357978",
    "feeRecipient()": "46904840",
    "gauge()": "a6f19c84",
    "increaseAllowance(address,uint256)": "39509351",
    "initialize(address,address,address,address[])": "e6bfbfd8",
    "maxDeposit(address)": "402d267d",
    "maxMint(address)": "c63d75b6",
    "maxRedeem(address)": "d905777e",
    "maxWithdraw(address)": "ce96cb77",
    "mint(uint256,address)": "94bf804d",
    "name()": "06fdde03",
    "owner()": "8da5cb5b",
    "paused()": "5c975abb",
    "pendingOwner()": "e30c3978",
    "performanceFee()": "87788782",
    "previewDeposit(uint256)": "ef8b30f7",
    "previewMint(uint256)": "b3d7f6b9",
    "previewRedeem(uint256)": "4cdad506",
    "previewWithdraw(uint256)": "0a28a477",
    "redeem(uint256,address,address)": "ba087652",
    "renounceOwnership()": "715018a6",
    "rewardDestination()": "fda45d86",
    "rewardTokens(uint256)": "7bb7bed1",
    "setRewardDestination(address)": "8457d067",
    "shutdown(address)": "cce2f3fb",
    "symbol()": "95d89b41",
    "takePerformanceFee()": "56f89ef9",
    "totalAssets()": "01e1d114",
    "totalSupply()": "18160ddd",
    "transfer(address,uint256)": "a9059cbb",
    "transferFrom(address,address,uint256)": "23b872dd",
    "transferOwnership(address)": "f2fde38b",
    "unpause()": "3f4ba83a",
    "updateFeeSettings(uint256,address)": "10509aa9",
    "vaultShareHWM()": "211493c9",
    "withdraw(uint256,address,address)": "b460af94",
    "withdrawAccruedFees()": "ada82c7d"
  }
}