{
  "address": "0x0D9B5e0637da5f790C372987593f1cE152b4d70D",
  "abi": [
    {
      "anonymous": false,
      "inputs": [
        {
          "indexed": false,
          "internalType": "uint8",
          "name": "version",
          "type": "uint8"
        }
      ],
      "name": "Initialized",
      "type": "event"
    },
    {
      "anonymous": false,
      "inputs": [
        {
          "indexed": false,
          "internalType": "address",
          "name": "oldOwner",
          "type": "address"
        },
        {
          "indexed": false,
          "internalType": "address",
          "name": "newOwner",
          "type": "address"
        }
      ],
      "name": "NewOwner",
      "type": "event"
    },
    {
      "anonymous": false,
      "inputs": [
        {
          "indexed": false,
          "internalType": "address",
          "name": "oldPendingOwner",
          "type": "address"
        },
        {
          "indexed": false,
          "internalType": "address",
          "name": "newPendingOwner",
          "type": "address"
        }
      ],
      "name": "NewPendingOwner",
      "type": "event"
    },
    {
      "anonymous": false,
      "inputs": [
        {
          "indexed": true,
          "internalType": "address",
          "name": "previousOwner",
          "type": "address"
        },
        {
          "indexed": true,
          "internalType": "address",
          "name": "newOwner",
          "type": "address"
        }
      ],
      "name": "OwnershipTransferred",
      "type": "event"
    },
    {
      "inputs": [],
      "name": "_acceptOwner",
      "outputs": [],
      "stateMutability": "nonpayable",
      "type": "function"
    },
    {
      "inputs": [
        {
          "internalType": "address",
          "name": "newPendingOwner",
          "type": "address"
        }
      ],
      "name": "_setPendingOwner",
      "outputs": [],
      "stateMutability": "nonpayable",
      "type": "function"
    },
    {
      "inputs": [],
      "name": "diaStDotOracle",
      "outputs": [
        {
          "internalType": "contract DiaStDotOracle",
          "name": "",
          "type": "address"
        }
      ],
      "stateMutability": "view",
      "type": "function"
    },
    {
      "inputs": [
        {
          "internalType": "contract ICToken",
          "name": "cToken",
          "type": "address"
        }
      ],
      "name": "getUnderlyingPrice",
      "outputs": [
        {
          "internalType": "uint256",
          "name": "",
          "type": "uint256"
        }
      ],
      "stateMutability": "view",
      "type": "function"
    },
    {
      "inputs": [
        {
          "internalType": "contract MasterPriceOracle",
          "name": "_masterPriceOracle",
          "type": "address"
        },
        {
          "internalType": "contract DiaStDotOracle",
          "name": "_diaStDotOracle",
          "type": "address"
        },
        {
          "internalType": "address",
          "name": "_usdToken",
          "type": "address"
        }
      ],
      "name": "initialize",
      "outputs": [],
      "stateMutability": "nonpayable",
      "type": "function"
    },
    {
      "inputs": [],
      "name": "masterPriceOracle",
      "outputs": [
        {
          "internalType": "contract MasterPriceOracle",
          "name": "",
          "type": "address"
        }
      ],
      "stateMutability": "view",
      "type": "function"
    },
    {
      "inputs": [],
      "name": "owner",
      "outputs": [
        {
          "internalType": "address",
          "name": "",
          "type": "address"
        }
      ],
      "stateMutability": "view",
      "type": "function"
    },
    {
      "inputs": [],
      "name": "pendingOwner",
      "outputs": [
        {
          "internalType": "address",
          "name": "",
          "type": "address"
        }
      ],
      "stateMutability": "view",
      "type": "function"
    },
    {
      "inputs": [
        {
          "internalType": "address",
          "name": "underlying",
          "type": "address"
        }
      ],
      "name": "price",
      "outputs": [
        {
          "internalType": "uint256",
          "name": "",
          "type": "uint256"
        }
      ],
      "stateMutability": "view",
      "type": "function"
    },
    {
      "inputs": [],
      "name": "reinitialize",
      "outputs": [],
      "stateMutability": "nonpayable",
      "type": "function"
    },
    {
      "inputs": [],
      "name": "renounceOwnership",
      "outputs": [],
      "stateMutability": "nonpayable",
      "type": "function"
    },
    {
      "inputs": [],
      "name": "stDot",
      "outputs": [
        {
          "internalType": "address",
          "name": "",
          "type": "address"
        }
      ],
      "stateMutability": "view",
      "type": "function"
    },
    {
      "inputs": [
        {
          "internalType": "address",
          "name": "newOwner",
          "type": "address"
        }
      ],
      "name": "transferOwnership",
      "outputs": [],
      "stateMutability": "nonpayable",
      "type": "function"
    },
    {
      "inputs": [],
      "name": "usdToken",
      "outputs": [
        {
          "internalType": "address",
          "name": "",
          "type": "address"
        }
      ],
      "stateMutability": "view",
      "type": "function"
    },
    {
      "inputs": [],
      "name": "wstDot",
      "outputs": [
        {
          "internalType": "address",
          "name": "",
          "type": "address"
        }
      ],
      "stateMutability": "view",
      "type": "function"
    }
  ],
  "transactionHash": "0x4e009b7a2a194f1c272a3d6f99ba7e32ec9c9296d7a59843ed2dc6e40073e36f",
  "args": [],
  "numDeployments": 2,
  "bytecode": {
    "object": "0x608060405234801561001057600080fd5b50610c9b806100206000396000f3fe608060405234801561001057600080fd5b50600436106100f55760003560e01c8063b46493a711610097578063f2fde38b11610066578063f2fde38b146101e0578063f897a22b146101f3578063fc4d33f914610206578063fc57d4df1461020e57600080fd5b8063b46493a714610194578063c0c53b8b146101a7578063d8c0dca8146101ba578063e30c3978146101cd57600080fd5b8063715018a6116100d3578063715018a6146101475780638da5cb5b1461014f578063a774224314610160578063aea910781461017357600080fd5b80630c0e7cd1146100fa5780636c2eb3501461012a5780636e96dfd714610134575b600080fd5b60675461010d906001600160a01b031681565b6040516001600160a01b0390911681526020015b60405180910390f35b610132610221565b005b610132610142366004610b08565b6103da565b610132610444565b6033546001600160a01b031661010d565b60695461010d906001600160a01b031681565b610186610181366004610b08565b610487565b604051908152602001610121565b60665461010d906001600160a01b031681565b6101326101b5366004610b25565b610503565b606a5461010d906001600160a01b031681565b60655461010d906001600160a01b031681565b6101326101ee366004610b08565b610444565b60685461010d906001600160a01b031681565b61013261060d565b61018661021c366004610b08565b610721565b600054600390610100900460ff16158015610243575060005460ff8083169116105b6102685760405162461bcd60e51b815260040161025f90610b70565b60405180910390fd5b6000805461ffff191660ff8316176101001781556102833390565b6001600160a01b031661029e6033546001600160a01b031690565b6001600160a01b03161490508061034d577fb53127684a568b3173ae13b9f8a6016e243e63b6e8ee1178d6a717850b5d6103805481906001600160a01b0316338114806103485760405162461bcd60e51b815260206004820152603260248201527f4f776e61626c653a2063616c6c6572206973206e65697468657220746865206f6044820152713bb732b9103737b9103a34329030b236b4b760711b606482015260840161025f565b505050505b50606980546001600160a01b031990811673fa36fe1da08c89ec72ea1f0143a35bfd5daea10817909155606a805490911673191cf2602ca2e534c5ccae7bcbf4c46a704bb9491790556000805461ff001916905560405160ff821681527f7f26b83ff96e1f2b6a682f133852f6798a09c465da95921460cefb38474024989060200160405180910390a150565b6103e2610803565b606580546001600160a01b038381166001600160a01b031983168117909355604080519190921680825260208201939093527fb3d55174552271a4f1aaf36b72f50381e892171636b3fb5447fe00e995e7a37b91015b60405180910390a15050565b61044c610803565b60405162461bcd60e51b815260206004820152601060248201526f6e6f74207573656420616e796d6f726560801b604482015260640161025f565b6069546000906001600160a01b03838116911614806104b35750606a546001600160a01b038381169116145b6104f45760405162461bcd60e51b8152602060048201526012602482015271496e76616c696420756e6465726c79696e6760701b604482015260640161025f565b6104fd8261085f565b92915050565b600054610100900460ff16158080156105235750600054600160ff909116105b8061053d5750303b15801561053d575060005460ff166001145b6105595760405162461bcd60e51b815260040161025f90610b70565b6000805460ff19166001179055801561057c576000805461ff0019166101001790555b610584610a15565b606680546001600160a01b038087166001600160a01b0319928316179092556067805486841690831617905560688054928516929091169190911790558015610607576000805461ff0019169055604051600181527f7f26b83ff96e1f2b6a682f133852f6798a09c465da95921460cefb38474024989060200160405180910390a15b50505050565b6065546001600160a01b0316331461065f5760405162461bcd60e51b81526020600482015260156024820152743737ba103a3432903832b73234b7339037bbb732b960591b604482015260640161025f565b60006106736033546001600160a01b031690565b6065549091506001600160a01b031661068b81610a44565b606580546001600160a01b0319169055604080516001600160a01b0384168152600060208201527f70aea8d848e8a90fb7661b227dc522eb6395c3dac71b63cb59edd5c9899b2364910160405180910390a1606554604080516001600160a01b03808516825290921660208301527fb3d55174552271a4f1aaf36b72f50381e892171636b3fb5447fe00e995e7a37b9101610438565b600080826001600160a01b0316636f307dc36040518163ffffffff1660e01b8152600401602060405180830381865afa158015610762573d6000803e3d6000fd5b505050506040513d601f19601f820116820180604052508101906107869190610bbe565b6069549091506001600160a01b03808316911614806107b25750606a546001600160a01b038281169116145b6107f35760405162461bcd60e51b8152602060048201526012602482015271496e76616c696420756e6465726c79696e6760701b604482015260640161025f565b6107fc8161085f565b9392505050565b6033546001600160a01b0316331461085d5760405162461bcd60e51b815260206004820181905260248201527f4f776e61626c653a2063616c6c6572206973206e6f7420746865206f776e6572604482015260640161025f565b565b60695460009081906001600160a01b038481169116141561090757606760009054906101000a90046001600160a01b03166001600160a01b031663aa6f6ee76040518163ffffffff1660e01b8152600401602060405180830381865afa1580156108cd573d6000803e3d6000fd5b505050506040513d601f19601f820116820180604052508101906108f19190610bdb565b610900906402540be400610bf4565b9050610979565b606a546001600160a01b038481169116141561097057606760009054906101000a90046001600160a01b03166001600160a01b031663a23681096040518163ffffffff1660e01b8152600401602060405180830381865afa1580156108cd573d6000803e3d6000fd5b50600092915050565b6066546068546040516315d5220f60e31b81526001600160a01b039182166004820152600092919091169063aea9107890602401602060405180830381865afa1580156109ca573d6000803e3d6000fd5b505050506040513d601f19601f820116820180604052508101906109ee9190610bdb565b9050670de0b6b3a7640000610a038284610bf4565b610a0d9190610c21565b949350505050565b600054610100900460ff16610a3c5760405162461bcd60e51b815260040161025f90610c43565b61085d610a96565b603380546001600160a01b038381166001600160a01b0319831681179093556040519116919082907f8be0079c531659141344cd1fd0a4f28419497f9722a3daafe3b4186f6b6457e090600090a35050565b600054610100900460ff16610abd5760405162461bcd60e51b815260040161025f90610c43565b61085d600054610100900460ff16610ae75760405162461bcd60e51b815260040161025f90610c43565b61085d33610a44565b6001600160a01b0381168114610b0557600080fd5b50565b600060208284031215610b1a57600080fd5b81356107fc81610af0565b600080600060608486031215610b3a57600080fd5b8335610b4581610af0565b92506020840135610b5581610af0565b91506040840135610b6581610af0565b809150509250925092565b6020808252602e908201527f496e697469616c697a61626c653a20636f6e747261637420697320616c72656160408201526d191e481a5b9a5d1a585b1a5e995960921b606082015260800190565b600060208284031215610bd057600080fd5b81516107fc81610af0565b600060208284031215610bed57600080fd5b5051919050565b6000816000190483118215151615610c1c57634e487b7160e01b600052601160045260246000fd5b500290565b600082610c3e57634e487b7160e01b600052601260045260246000fd5b500490565b6020808252602b908201527f496e697469616c697a61626c653a20636f6e7472616374206973206e6f74206960408201526a6e697469616c697a696e6760a81b60608201526080019056fea164736f6c634300080a000a",
    "linkReferences": {}
  },
  "methodIdentifiers": {
    "_acceptOwner()": "fc4d33f9",
    "_setPendingOwner(address)": "6e96dfd7",
    "diaStDotOracle()": "0c0e7cd1",
    "getUnderlyingPrice(address)": "fc57d4df",
    "initialize(address,address,address)": "c0c53b8b",
    "masterPriceOracle()": "b46493a7",
    "owner()": "8da5cb5b",
    "pendingOwner()": "e30c3978",
    "price(address)": "aea91078",
    "reinitialize()": "6c2eb350",
    "renounceOwnership()": "715018a6",
    "stDot()": "a7742243",
    "transferOwnership(address)": "f2fde38b",
    "usdToken()": "f897a22b",
    "wstDot()": "d8c0dca8"
  }
}