{
  "address": "0x9D5E8bE640Aa4605Ae668A6C0447C669C07671c3",
  "abi": [
    {
      "anonymous": false,
      "inputs": [
        {
          "indexed": false,
          "internalType": "address[]",
          "name": "admins",
          "type": "address[]"
        },
        {
          "indexed": false,
          "internalType": "bool",
          "name": "status",
          "type": "bool"
        }
      ],
      "name": "AdminWhitelistUpdated",
      "type": "event"
    },
    {
      "anonymous": false,
      "inputs": [
        {
          "indexed": false,
          "internalType": "uint8",
          "name": "version",
          "type": "uint8"
        }
      ],
      "name": "Initialized",
      "type": "event"
    },
    {
      "anonymous": false,
      "inputs": [
        {
          "indexed": false,
          "internalType": "address",
          "name": "oldOwner",
          "type": "address"
        },
        {
          "indexed": false,
          "internalType": "address",
          "name": "newOwner",
          "type": "address"
        }
      ],
      "name": "NewOwner",
      "type": "event"
    },
    {
      "anonymous": false,
      "inputs": [
        {
          "indexed": false,
          "internalType": "address",
          "name": "oldPendingOwner",
          "type": "address"
        },
        {
          "indexed": false,
          "internalType": "address",
          "name": "newPendingOwner",
          "type": "address"
        }
      ],
      "name": "NewPendingOwner",
      "type": "event"
    },
    {
      "anonymous": false,
      "inputs": [
        {
          "indexed": true,
          "internalType": "address",
          "name": "previousOwner",
          "type": "address"
        },
        {
          "indexed": true,
          "internalType": "address",
          "name": "newOwner",
          "type": "address"
        }
      ],
      "name": "OwnershipTransferred",
      "type": "event"
    },
    {
      "anonymous": false,
      "inputs": [
        {
          "indexed": false,
          "internalType": "uint256",
          "name": "index",
          "type": "uint256"
        },
        {
          "components": [
            {
              "internalType": "string",
              "name": "name",
              "type": "string"
            },
            {
              "internalType": "address",
              "name": "creator",
              "type": "address"
            },
            {
              "internalType": "address",
              "name": "comptroller",
              "type": "address"
            },
            {
              "internalType": "uint256",
              "name": "blockPosted",
              "type": "uint256"
            },
            {
              "internalType": "uint256",
              "name": "timestampPosted",
              "type": "uint256"
            }
          ],
          "indexed": false,
          "internalType": "struct FusePoolDirectory.FusePool",
          "name": "pool",
          "type": "tuple"
        }
      ],
      "name": "PoolRegistered",
      "type": "event"
    },
    {
      "inputs": [],
      "name": "_acceptOwner",
      "outputs": [],
      "stateMutability": "nonpayable",
      "type": "function"
    },
    {
      "inputs": [
        {
          "internalType": "address[]",
          "name": "admins",
          "type": "address[]"
        },
        {
          "internalType": "bool",
          "name": "status",
          "type": "bool"
        }
      ],
      "name": "_editAdminWhitelist",
      "outputs": [],
      "stateMutability": "nonpayable",
      "type": "function"
    },
    {
      "inputs": [
        {
          "internalType": "address[]",
          "name": "deployers",
          "type": "address[]"
        },
        {
          "internalType": "bool",
          "name": "status",
          "type": "bool"
        }
      ],
      "name": "_editDeployerWhitelist",
      "outputs": [],
      "stateMutability": "nonpayable",
      "type": "function"
    },
    {
      "inputs": [],
      "name": "_resetGap",
      "outputs": [],
      "stateMutability": "nonpayable",
      "type": "function"
    },
    {
      "inputs": [
        {
          "internalType": "bool",
          "name": "enforce",
          "type": "bool"
        }
      ],
      "name": "_setDeployerWhitelistEnforcement",
      "outputs": [],
      "stateMutability": "nonpayable",
      "type": "function"
    },
    {
      "inputs": [
        {
          "internalType": "address",
          "name": "newPendingOwner",
          "type": "address"
        }
      ],
      "name": "_setPendingOwner",
      "outputs": [],
      "stateMutability": "nonpayable",
      "type": "function"
    },
    {
      "inputs": [
        {
          "internalType": "address",
          "name": "",
          "type": "address"
        }
      ],
      "name": "adminWhitelist",
      "outputs": [
        {
          "internalType": "bool",
          "name": "",
          "type": "bool"
        }
      ],
      "stateMutability": "view",
      "type": "function"
    },
    {
      "inputs": [
        {
          "internalType": "string",
          "name": "name",
          "type": "string"
        },
        {
          "internalType": "address",
          "name": "implementation",
          "type": "address"
        },
        {
          "internalType": "bytes",
          "name": "constructorData",
          "type": "bytes"
        },
        {
          "internalType": "bool",
          "name": "enforceWhitelist",
          "type": "bool"
        },
        {
          "internalType": "uint256",
          "name": "closeFactor",
          "type": "uint256"
        },
        {
          "internalType": "uint256",
          "name": "liquidationIncentive",
          "type": "uint256"
        },
        {
          "internalType": "address",
          "name": "priceOracle",
          "type": "address"
        }
      ],
      "name": "deployPool",
      "outputs": [
        {
          "internalType": "uint256",
          "name": "",
          "type": "uint256"
        },
        {
          "internalType": "address",
          "name": "",
          "type": "address"
        }
      ],
      "stateMutability": "nonpayable",
      "type": "function"
    },
    {
      "inputs": [
        {
          "internalType": "address",
          "name": "",
          "type": "address"
        }
      ],
      "name": "deployerWhitelist",
      "outputs": [
        {
          "internalType": "bool",
          "name": "",
          "type": "bool"
        }
      ],
      "stateMutability": "view",
      "type": "function"
    },
    {
      "inputs": [],
      "name": "enforceDeployerWhitelist",
      "outputs": [
        {
          "internalType": "bool",
          "name": "",
          "type": "bool"
        }
      ],
      "stateMutability": "view",
      "type": "function"
    },
    {
      "inputs": [],
      "name": "getAllPools",
      "outputs": [
        {
          "components": [
            {
              "internalType": "string",
              "name": "name",
              "type": "string"
            },
            {
              "internalType": "address",
              "name": "creator",
              "type": "address"
            },
            {
              "internalType": "address",
              "name": "comptroller",
              "type": "address"
            },
            {
              "internalType": "uint256",
              "name": "blockPosted",
              "type": "uint256"
            },
            {
              "internalType": "uint256",
              "name": "timestampPosted",
              "type": "uint256"
            }
          ],
          "internalType": "struct FusePoolDirectory.FusePool[]",
          "name": "",
          "type": "tuple[]"
        }
      ],
      "stateMutability": "view",
      "type": "function"
    },
    {
      "inputs": [
        {
          "internalType": "address",
          "name": "account",
          "type": "address"
        }
      ],
      "name": "getPoolsByAccount",
      "outputs": [
        {
          "internalType": "uint256[]",
          "name": "",
          "type": "uint256[]"
        },
        {
          "components": [
            {
              "internalType": "string",
              "name": "name",
              "type": "string"
            },
            {
              "internalType": "address",
              "name": "creator",
              "type": "address"
            },
            {
              "internalType": "address",
              "name": "comptroller",
              "type": "address"
            },
            {
              "internalType": "uint256",
              "name": "blockPosted",
              "type": "uint256"
            },
            {
              "internalType": "uint256",
              "name": "timestampPosted",
              "type": "uint256"
            }
          ],
          "internalType": "struct FusePoolDirectory.FusePool[]",
          "name": "",
          "type": "tuple[]"
        }
      ],
      "stateMutability": "view",
      "type": "function"
    },
    {
      "inputs": [
        {
          "internalType": "address",
          "name": "user",
          "type": "address"
        }
      ],
      "name": "getPoolsOfUser",
      "outputs": [
        {
          "internalType": "uint256[]",
          "name": "",
          "type": "uint256[]"
        },
        {
          "components": [
            {
              "internalType": "string",
              "name": "name",
              "type": "string"
            },
            {
              "internalType": "address",
              "name": "creator",
              "type": "address"
            },
            {
              "internalType": "address",
              "name": "comptroller",
              "type": "address"
            },
            {
              "internalType": "uint256",
              "name": "blockPosted",
              "type": "uint256"
            },
            {
              "internalType": "uint256",
              "name": "timestampPosted",
              "type": "uint256"
            }
          ],
          "internalType": "struct FusePoolDirectory.FusePool[]",
          "name": "",
          "type": "tuple[]"
        }
      ],
      "stateMutability": "view",
      "type": "function"
    },
    {
      "inputs": [],
      "name": "getPublicPools",
      "outputs": [
        {
          "internalType": "uint256[]",
          "name": "",
          "type": "uint256[]"
        },
        {
          "components": [
            {
              "internalType": "string",
              "name": "name",
              "type": "string"
            },
            {
              "internalType": "address",
              "name": "creator",
              "type": "address"
            },
            {
              "internalType": "address",
              "name": "comptroller",
              "type": "address"
            },
            {
              "internalType": "uint256",
              "name": "blockPosted",
              "type": "uint256"
            },
            {
              "internalType": "uint256",
              "name": "timestampPosted",
              "type": "uint256"
            }
          ],
          "internalType": "struct FusePoolDirectory.FusePool[]",
          "name": "",
          "type": "tuple[]"
        }
      ],
      "stateMutability": "view",
      "type": "function"
    },
    {
      "inputs": [
        {
          "internalType": "bool",
          "name": "whitelistedAdmin",
          "type": "bool"
        }
      ],
      "name": "getPublicPoolsByVerification",
      "outputs": [
        {
          "internalType": "uint256[]",
          "name": "",
          "type": "uint256[]"
        },
        {
          "components": [
            {
              "internalType": "string",
              "name": "name",
              "type": "string"
            },
            {
              "internalType": "address",
              "name": "creator",
              "type": "address"
            },
            {
              "internalType": "address",
              "name": "comptroller",
              "type": "address"
            },
            {
              "internalType": "uint256",
              "name": "blockPosted",
              "type": "uint256"
            },
            {
              "internalType": "uint256",
              "name": "timestampPosted",
              "type": "uint256"
            }
          ],
          "internalType": "struct FusePoolDirectory.FusePool[]",
          "name": "",
          "type": "tuple[]"
        }
      ],
      "stateMutability": "view",
      "type": "function"
    },
    {
      "inputs": [
        {
          "internalType": "address",
          "name": "account",
          "type": "address"
        }
      ],
      "name": "getVerifiedPoolsOfWhitelistedAccount",
      "outputs": [
        {
          "internalType": "uint256[]",
          "name": "",
          "type": "uint256[]"
        },
        {
          "components": [
            {
              "internalType": "string",
              "name": "name",
              "type": "string"
            },
            {
              "internalType": "address",
              "name": "creator",
              "type": "address"
            },
            {
              "internalType": "address",
              "name": "comptroller",
              "type": "address"
            },
            {
              "internalType": "uint256",
              "name": "blockPosted",
              "type": "uint256"
            },
            {
              "internalType": "uint256",
              "name": "timestampPosted",
              "type": "uint256"
            }
          ],
          "internalType": "struct FusePoolDirectory.FusePool[]",
          "name": "",
          "type": "tuple[]"
        }
      ],
      "stateMutability": "view",
      "type": "function"
    },
    {
      "inputs": [
        {
          "internalType": "bool",
          "name": "_enforceDeployerWhitelist",
          "type": "bool"
        },
        {
          "internalType": "address[]",
          "name": "_deployerWhitelist",
          "type": "address[]"
        }
      ],
      "name": "initialize",
      "outputs": [],
      "stateMutability": "nonpayable",
      "type": "function"
    },
    {
      "inputs": [],
      "name": "owner",
      "outputs": [
        {
          "internalType": "address",
          "name": "",
          "type": "address"
        }
      ],
      "stateMutability": "view",
      "type": "function"
    },
    {
      "inputs": [],
      "name": "pendingOwner",
      "outputs": [
        {
          "internalType": "address",
          "name": "",
          "type": "address"
        }
      ],
      "stateMutability": "view",
      "type": "function"
    },
    {
      "inputs": [
        {
          "internalType": "address",
          "name": "",
          "type": "address"
        }
      ],
      "name": "poolExists",
      "outputs": [
        {
          "internalType": "bool",
          "name": "",
          "type": "bool"
        }
      ],
      "stateMutability": "view",
      "type": "function"
    },
    {
      "inputs": [
        {
          "internalType": "uint256",
          "name": "",
          "type": "uint256"
        }
      ],
      "name": "pools",
      "outputs": [
        {
          "internalType": "string",
          "name": "name",
          "type": "string"
        },
        {
          "internalType": "address",
          "name": "creator",
          "type": "address"
        },
        {
          "internalType": "address",
          "name": "comptroller",
          "type": "address"
        },
        {
          "internalType": "uint256",
          "name": "blockPosted",
          "type": "uint256"
        },
        {
          "internalType": "uint256",
          "name": "timestampPosted",
          "type": "uint256"
        }
      ],
      "stateMutability": "view",
      "type": "function"
    },
    {
      "inputs": [],
      "name": "poolsCounter",
      "outputs": [
        {
          "internalType": "uint256",
          "name": "",
          "type": "uint256"
        }
      ],
      "stateMutability": "view",
      "type": "function"
    },
    {
      "inputs": [],
      "name": "renounceOwnership",
      "outputs": [],
      "stateMutability": "nonpayable",
      "type": "function"
    },
    {
      "inputs": [
        {
          "internalType": "uint256",
          "name": "index",
          "type": "uint256"
        },
        {
          "internalType": "string",
          "name": "name",
          "type": "string"
        }
      ],
      "name": "setPoolName",
      "outputs": [],
      "stateMutability": "nonpayable",
      "type": "function"
    },
    {
      "inputs": [
        {
          "internalType": "address",
          "name": "newOwner",
          "type": "address"
        }
      ],
      "name": "transferOwnership",
      "outputs": [],
      "stateMutability": "nonpayable",
      "type": "function"
    }
  ],
  "transactionHash": "0x5aab0e342a5d71c88277d66b60b5cedf55bb4d04dbb4d4366f5007a4a628cdb6",
  "args": [],
  "numDeployments": 8,
  "bytecode": {
    "object": "0x608060405234801561001057600080fd5b50614170806100206000396000f3fe60806040523480156200001157600080fd5b5060043610620001925760003560e01c8063715018a611620000f0578063b86579d411620000a3578063e30c3978116200007a578063e30c3978146200040a578063f2fde38b146200041e578063f348960d1462000435578063fc4d33f9146200044c57600080fd5b8063b86579d414620003a8578063c2bd5c2e14620003bf578063d88ff1f414620003f157600080fd5b8063715018a614620002fa5780638da5cb5b1462000304578063a155497c146200032a578063a3ed91c61462000341578063a970e76c1462000358578063ac4afa38146200037e57600080fd5b806343e20a1d116200014957806343e20a1d146200024e578063448ca55814620002745780634ae26ea1146200028b57806358b896d314620002955780635d0eb31a14620002ca5780636e96dfd714620002e357600080fd5b806304f03c6f14620001975780630a83d1b014620001b05780631e1c6a0714620001c757806320c32bfe1462000202578063218a3bbe146200021957806326bb81d71462000240575b600080fd5b620001ae620001a836600462002ece565b62000456565b005b620001ae620001c136600462002eee565b62000473565b620001ed620001d836600462002f9d565b606c6020526000908152604090205460ff1681565b60405190151581526020015b60405180910390f35b620001ae6200021336600462003008565b62000583565b620002306200022a36600462002ece565b620006f7565b604051620001f992919062003169565b606d54620001ed9060ff1681565b620001ed6200025f36600462002f9d565b60706020526000908152604090205460ff1681565b620002306200028536600462002f9d565b62000af4565b6200023062000f92565b620002ac620002a63660046200320d565b62001340565b604080519283526001600160a01b03909116602083015201620001f9565b620002d460715481565b604051908152602001620001f9565b620001ae620002f436600462002f9d565b62001af1565b620001ae62001b5d565b6033546001600160a01b03165b6040516001600160a01b039091168152602001620001f9565b620001ae6200033b36600462002eee565b62001b75565b620002306200035236600462002f9d565b62001c47565b620001ed6200036936600462002f9d565b606e6020526000908152604090205460ff1681565b620003956200038f36600462003320565b62001f22565b604051620001f99594939291906200333a565b620001ae620003b93660046200337c565b62002008565b620001ae606680546001600160a01b031990811690915560678054821690556068805482169055606980549091169055565b620003fb6200219f565b604051620001f9919062003451565b60655462000311906001600160a01b031681565b620001ae6200042f36600462002f9d565b620022d6565b620002306200044636600462002f9d565b62002355565b620001ae620026ff565b6200046062002819565b606d805460ff1916911515919091179055565b6200047d62002819565b81620004c65760405162461bcd60e51b815260206004820152601360248201527227379030b236b4b7399039bab8383634b2b21760691b60448201526064015b60405180910390fd5b60005b8281101562000540578160706000868685818110620004ec57620004ec62003466565b905060200201602081019062000503919062002f9d565b6001600160a01b031681526020810191909152604001600020805460ff191691151591909117905580620005378162003492565b915050620004c9565b507f31b67e6853df85403a8c4f4f46dc53f48f700d6917c8e3ec8c77a0e6fd56793b8383836040516200057693929190620034b0565b60405180910390a1505050565b6000606a84815481106200059b576200059b62003466565b600091825260209182902060026005909202010154604080516303e1469160e61b815290516001600160a01b039092169350839263f851a440926004808401938290030181865afa158015620005f5573d6000803e3d6000fd5b505050506040513d601f19601f820116820180604052508101906200061b91906200350d565b6001600160a01b0316336001600160a01b03161480156200069c5750806001600160a01b0316630a755ec26040518163ffffffff1660e01b8152600401602060405180830381865afa15801562000676573d6000803e3d6000fd5b505050506040513d601f19601f820116820180604052508101906200069c91906200352d565b80620006b257506033546001600160a01b031633145b620006bc57600080fd5b8282606a8681548110620006d457620006d462003466565b60009182526020909120620006f0936005909202019162002d3b565b5050505050565b6060806000805b606a54811015620007fb576000606a828154811062000721576200072162003466565b600091825260209182902060026005909202010154604080516303e1469160e61b815290516001600160a01b039092169350839263f851a440926004808401938290030181865afa92505050801562000799575060408051601f3d908101601f1916820190925262000796918101906200350d565b60015b620007a457620007d5565b6001600160a01b03811660009081526070602052604090205460ff16151587151514620007d3575050620007e6565b505b82620007e18162003492565b935050505b80620007f28162003492565b915050620006fe565b506000816001600160401b03811115620008195762000819620031c4565b60405190808252806020026020018201604052801562000843578160200160208202803683370190505b5090506000826001600160401b03811115620008635762000863620031c4565b604051908082528060200260200182016040528015620008a057816020015b6200088c62002dca565b815260200190600190039081620008825790505b5090506000805b606a5481101562000ae7576000606a8281548110620008ca57620008ca62003466565b600091825260209182902060026005909202010154604080516303e1469160e61b815290516001600160a01b039092169350839263f851a440926004808401938290030181865afa92505050801562000942575060408051601f3d908101601f191682019092526200093f918101906200350d565b60015b6200094d576200097e565b6001600160a01b03811660009081526070602052604090205460ff1615158a1515146200097c57505062000ad2565b505b8185848151811062000994576200099462003466565b602002602001018181525050606a8281548110620009b657620009b662003466565b90600052602060002090600502016040518060a0016040529081600082018054620009e1906200354d565b80601f016020809104026020016040519081016040528092919081815260200182805462000a0f906200354d565b801562000a605780601f1062000a345761010080835404028352916020019162000a60565b820191906000526020600020905b81548152906001019060200180831162000a4257829003601f168201915b505050918352505060018201546001600160a01b039081166020830152600283015416604082015260038201546060820152600490910154608090910152845185908590811062000ab55762000ab562003466565b6020026020010181905250828062000acd9062003492565b935050505b8062000ade8162003492565b915050620008a7565b5091969095509350505050565b6060806000805b606a5481101562000c4f576000606a828154811062000b1e5762000b1e62003466565b60009182526020918290206002600590920201015460408051630b09572160e41b815290516001600160a01b039092169350839263b0957210926004808401938290030181865afa92505050801562000b96575060408051601f3d908101601f1916820190925262000b93918101906200352d565b60015b62000ba15762000c29565b80158062000c195750604051634d8c928d60e11b81526001600160a01b038881166004830152831690639b19251a90602401602060405180830381865afa15801562000bf1573d6000803e3d6000fd5b505050506040513d601f19601f8201168201806040525081019062000c1791906200352d565b155b1562000c2757505062000c3a565b505b8262000c358162003492565b935050505b8062000c468162003492565b91505062000afb565b506000816001600160401b0381111562000c6d5762000c6d620031c4565b60405190808252806020026020018201604052801562000c97578160200160208202803683370190505b5090506000826001600160401b0381111562000cb75762000cb7620031c4565b60405190808252806020026020018201604052801562000cf457816020015b62000ce062002dca565b81526020019060019003908162000cd65790505b5090506000805b606a5481101562000ae7576000606a828154811062000d1e5762000d1e62003466565b60009182526020918290206002600590920201015460408051630b09572160e41b815290516001600160a01b039092169350839263b0957210926004808401938290030181865afa92505050801562000d96575060408051601f3d908101601f1916820190925262000d93918101906200352d565b60015b62000da15762000e29565b80158062000e195750604051634d8c928d60e11b81526001600160a01b038b81166004830152831690639b19251a90602401602060405180830381865afa15801562000df1573d6000803e3d6000fd5b505050506040513d601f19601f8201168201806040525081019062000e1791906200352d565b155b1562000e2757505062000f7d565b505b8185848151811062000e3f5762000e3f62003466565b602002602001018181525050606a828154811062000e615762000e6162003466565b90600052602060002090600502016040518060a001604052908160008201805462000e8c906200354d565b80601f016020809104026020016040519081016040528092919081815260200182805462000eba906200354d565b801562000f0b5780601f1062000edf5761010080835404028352916020019162000f0b565b820191906000526020600020905b81548152906001019060200180831162000eed57829003601f168201915b505050918352505060018201546001600160a01b039081166020830152600283015416604082015260038201546060820152600490910154608090910152845185908590811062000f605762000f6062003466565b6020026020010181905250828062000f789062003492565b935050505b8062000f898162003492565b91505062000cfb565b6060806000805b606a548110156200106f57606a818154811062000fba5762000fba62003466565b60009182526020918290206002600590920201015460408051630b09572160e41b815290516001600160a01b039092169263b0957210926004808401938290030181865afa9250505080156200102f575060408051601f3d908101601f191682019092526200102c918101906200352d565b60015b6200103a576200104a565b80156200104857506200105a565b505b81620010568162003492565b9250505b80620010668162003492565b91505062000f99565b506000816001600160401b038111156200108d576200108d620031c4565b604051908082528060200260200182016040528015620010b7578160200160208202803683370190505b5090506000826001600160401b03811115620010d757620010d7620031c4565b6040519080825280602002602001820160405280156200111457816020015b6200110062002dca565b815260200190600190039081620010f65790505b5090506000805b606a548110156200133457606a81815481106200113c576200113c62003466565b60009182526020918290206002600590920201015460408051630b09572160e41b815290516001600160a01b039092169263b0957210926004808401938290030181865afa925050508015620011b1575060408051601f3d908101601f19168201909252620011ae918101906200352d565b60015b620011bc57620011cc565b8015620011ca57506200131f565b505b80848381518110620011e257620011e262003466565b602002602001018181525050606a818154811062001204576200120462003466565b90600052602060002090600502016040518060a00160405290816000820180546200122f906200354d565b80601f01602080910402602001604051908101604052809291908181526020018280546200125d906200354d565b8015620012ae5780601f106200128257610100808354040283529160200191620012ae565b820191906000526020600020905b8154815290600101906020018083116200129057829003601f168201915b505050918352505060018201546001600160a01b039081166020830152600283015416604082015260038201546060820152600490910154608090910152835184908490811062001303576200130362003466565b602002602001018190525081806200131b9062003492565b9250505b806200132b8162003492565b9150506200111b565b50919590945092505050565b6000806001600160a01b038916620013c15760405162461bcd60e51b815260206004820152603960248201527f4e6f20436f6d7074726f6c6c657220696d706c656d656e746174696f6e20636f60448201527f6e74726163742061646472657373207370656369666965642e000000000000006064820152608401620004bd565b6001600160a01b0383166200142c5760405162461bcd60e51b815260206004820152602a60248201527f4e6f2050726963654f7261636c6520636f6e747261637420616464726573732060448201526939b832b1b4b334b2b21760b11b6064820152608401620004bd565b600060405180602001620014409062002e0b565b601f1982820381018352601f9091011660408190526200146891908b908b906020016200358a565b60405160208183030381529060405290506000620014ca6000338e607160008154620014949062003492565b9182905550604051620014ad93929190602001620035b4565b604051602081830303815290604052805190602001208462002875565b60405163e992a04160e01b81526001600160a01b038d81166004830152919250829182169063e992a041906024016020604051808303816000875af115801562001518573d6000803e3d6000fd5b505050506040513d601f19601f820116820180604052508101906200153e9190620035f5565b15620015a95760405162461bcd60e51b815260206004820152603360248201527f4661696c656420746f207365742070656e64696e6720696d706c656d656e74616044820152723a34b7b71037b7102ab734ba3937b63632b91760691b6064820152608401620004bd565b604051630ea826e360e11b81526001600160a01b0382811660048301528d9190821690631d504dc690602401600060405180830381600087803b158015620015f057600080fd5b505af115801562001605573d6000803e3d6000fd5b505060405163317b0b7760e01b8152600481018c90528592506001600160a01b038316915063317b0b77906024016020604051808303816000875af115801562001653573d6000803e3d6000fd5b505050506040513d601f19601f82011682018060405250810190620016799190620035f5565b15620016c85760405162461bcd60e51b815260206004820181905260248201527f4661696c656420746f2073657420706f6f6c20636c6f736520666163746f722e6044820152606401620004bd565b604051634fd42e1760e01b8152600481018a90526001600160a01b03821690634fd42e17906024016020604051808303816000875af115801562001710573d6000803e3d6000fd5b505050506040513d601f19601f82011682018060405250810190620017369190620035f5565b15620017975760405162461bcd60e51b815260206004820152602960248201527f4661696c656420746f2073657420706f6f6c206c69717569646174696f6e20696044820152683731b2b73a34bb329760b91b6064820152608401620004bd565b6040516355ee1fe160e01b81526001600160a01b0389811660048301528216906355ee1fe1906024016020604051808303816000875af1158015620017e0573d6000803e3d6000fd5b505050506040513d601f19601f82011682018060405250810190620018069190620035f5565b15620018555760405162461bcd60e51b815260206004820181905260248201527f4661696c656420746f2073657420706f6f6c207072696365206f7261636c652e6044820152606401620004bd565b8a156200193057604051634a956fad60e11b8152600160048201526001600160a01b0382169063952adf5a906024016020604051808303816000875af1158015620018a4573d6000803e3d6000fd5b505050506040513d601f19601f82011682018060405250810190620018ca9190620035f5565b15620019305760405162461bcd60e51b815260206004820152602e60248201527f4661696c656420746f20656e666f72636520737570706c6965722f626f72726f60448201526d3bb2b9103bb434ba32b634b9ba1760911b6064820152608401620004bd565b604051636a9998b360e11b8152600160048201526001600160a01b0382169063d5333166906024016020604051808303816000875af115801562001978573d6000803e3d6000fd5b505050506040513d601f19601f820116820180604052508101906200199e9190620035f5565b1562001a015760405162461bcd60e51b815260206004820152602b60248201527f4661696c656420746f20656e61626c6520706f6f6c206175746f20696d706c6560448201526a36b2b73a30ba34b7b7399760a91b6064820152608401620004bd565b604051632dc7468360e21b81523360048201526001600160a01b0384169063b71d1a0c906024016020604051808303816000875af115801562001a48573d6000803e3d6000fd5b505050506040513d601f19601f8201168201806040525081019062001a6e9190620035f5565b1562001ad05760405162461bcd60e51b815260206004820152602a60248201527f4661696c656420746f207365742070656e64696e672061646d696e206f6e20556044820152693734ba3937b63632b91760b11b6064820152608401620004bd565b62001adc8f8562002983565b9f939e50929c50505050505050505050505050565b62001afb62002819565b606580546001600160a01b038381166001600160a01b031983168117909355604080519190921680825260208201939093527fb3d55174552271a4f1aaf36b72f50381e892171636b3fb5447fe00e995e7a37b91015b60405180910390a15050565b62001b6762002819565b62001b73600062002c58565b565b62001b7f62002819565b8162001bc75760405162461bcd60e51b81526020600482015260166024820152752737903232b83637bcb2b9399039bab8383634b2b21760511b6044820152606401620004bd565b60005b8281101562001c415781606e600086868581811062001bed5762001bed62003466565b905060200201602081019062001c04919062002f9d565b6001600160a01b031681526020810191909152604001600020805460ff19169115159190911790558062001c388162003492565b91505062001bca565b50505050565b6001600160a01b0381166000908152606b602052604081205460609182916001600160401b0381111562001c7f5762001c7f620031c4565b60405190808252806020026020018201604052801562001ca9578160200160208202803683370190505b506001600160a01b0385166000908152606b6020526040812054919250906001600160401b0381111562001ce15762001ce1620031c4565b60405190808252806020026020018201604052801562001d1e57816020015b62001d0a62002dca565b81526020019060019003908162001d005790505b50905060005b6001600160a01b0386166000908152606b602052604090205481101562001f17576001600160a01b0386166000908152606b6020526040902080548290811062001d725762001d7262003466565b906000526020600020015483828151811062001d925762001d9262003466565b602002602001018181525050606a606b6000886001600160a01b03166001600160a01b03168152602001908152602001600020828154811062001dd95762001dd962003466565b90600052602060002001548154811062001df75762001df762003466565b90600052602060002090600502016040518060a001604052908160008201805462001e22906200354d565b80601f016020809104026020016040519081016040528092919081815260200182805462001e50906200354d565b801562001ea15780601f1062001e755761010080835404028352916020019162001ea1565b820191906000526020600020905b81548152906001019060200180831162001e8357829003601f168201915b505050918352505060018201546001600160a01b039081166020830152600283015416604082015260038201546060820152600490910154608090910152825183908390811062001ef65762001ef662003466565b6020026020010181905250808062001f0e9062003492565b91505062001d24565b509094909350915050565b606a818154811062001f3357600080fd5b906000526020600020906005020160009150905080600001805462001f58906200354d565b80601f016020809104026020016040519081016040528092919081815260200182805462001f86906200354d565b801562001fd75780601f1062001fab5761010080835404028352916020019162001fd7565b820191906000526020600020905b81548152906001019060200180831162001fb957829003601f168201915b5050505060018301546002840154600385015460049095015493946001600160a01b03928316949290911692509085565b600054610100900460ff1615808015620020295750600054600160ff909116105b80620020455750303b15801562002045575060005460ff166001145b620020aa5760405162461bcd60e51b815260206004820152602e60248201527f496e697469616c697a61626c653a20636f6e747261637420697320616c72656160448201526d191e481a5b9a5d1a585b1a5e995960921b6064820152608401620004bd565b6000805460ff191660011790558015620020ce576000805461ff0019166101001790555b620020d862002caa565b606d805460ff191684151517905560005b825181101562002155576001606e60008584815181106200210e576200210e62003466565b6020908102919091018101516001600160a01b03168252810191909152604001600020805460ff1916911515919091179055806200214c8162003492565b915050620020e9565b5080156200219a576000805461ff0019169055604051600181527f7f26b83ff96e1f2b6a682f133852f6798a09c465da95921460cefb38474024989060200162000576565b505050565b6060606a805480602002602001604051908101604052809291908181526020016000905b82821015620022cd57838290600052602060002090600502016040518060a0016040529081600082018054620021f9906200354d565b80601f016020809104026020016040519081016040528092919081815260200182805462002227906200354d565b8015620022785780601f106200224c5761010080835404028352916020019162002278565b820191906000526020600020905b8154815290600101906020018083116200225a57829003601f168201915b50505091835250506001828101546001600160a01b03908116602080850191909152600285015490911660408401526003840154606084015260049093015460809092019190915291835292019101620021c3565b50505050905090565b620022e062002819565b6001600160a01b038116620023475760405162461bcd60e51b815260206004820152602660248201527f4f776e61626c653a206e6577206f776e657220697320746865207a65726f206160448201526564647265737360d01b6064820152608401620004bd565b620023528162002c58565b50565b6060806000805b606a548110156200243657606a81815481106200237d576200237d62003466565b600091825260209091206005909102016002015460405163d9e0ea6b60e01b81526001600160a01b0387811660048301529091169063d9e0ea6b90602401602060405180830381865afa925050508015620023f7575060408051601f3d908101601f19168201909252620023f4918101906200352d565b60015b620024025762002411565b806200240f575062002421565b505b816200241d8162003492565b9250505b806200242d8162003492565b9150506200235c565b506000816001600160401b03811115620024545762002454620031c4565b6040519080825280602002602001820160405280156200247e578160200160208202803683370190505b5090506000826001600160401b038111156200249e576200249e620031c4565b604051908082528060200260200182016040528015620024db57816020015b620024c762002dca565b815260200190600190039081620024bd5790505b5090506000805b606a5481101562000ae757606a818154811062002503576200250362003466565b600091825260209091206005909102016002015460405163d9e0ea6b60e01b81526001600160a01b038a811660048301529091169063d9e0ea6b90602401602060405180830381865afa9250505080156200257d575060408051601f3d908101601f191682019092526200257a918101906200352d565b60015b620025885762002597565b80620025955750620026ea565b505b80848381518110620025ad57620025ad62003466565b602002602001018181525050606a8181548110620025cf57620025cf62003466565b90600052602060002090600502016040518060a0016040529081600082018054620025fa906200354d565b80601f016020809104026020016040519081016040528092919081815260200182805462002628906200354d565b8015620026795780601f106200264d5761010080835404028352916020019162002679565b820191906000526020600020905b8154815290600101906020018083116200265b57829003601f168201915b505050918352505060018201546001600160a01b0390811660208301526002830154166040820152600382015460608201526004909101546080909101528351849084908110620026ce57620026ce62003466565b60200260200101819052508180620026e69062003492565b9250505b80620026f68162003492565b915050620024e2565b6065546001600160a01b03163314620027535760405162461bcd60e51b81526020600482015260156024820152743737ba103a3432903832b73234b7339037bbb732b960591b6044820152606401620004bd565b6000620027686033546001600160a01b031690565b6065549091506001600160a01b0316620027828162002c58565b606580546001600160a01b0319169055604080516001600160a01b0384168152600060208201527f70aea8d848e8a90fb7661b227dc522eb6395c3dac71b63cb59edd5c9899b2364910160405180910390a1606554604080516001600160a01b03808516825290921660208301527fb3d55174552271a4f1aaf36b72f50381e892171636b3fb5447fe00e995e7a37b910162001b51565b6033546001600160a01b0316331462001b735760405162461bcd60e51b815260206004820181905260248201527f4f776e61626c653a2063616c6c6572206973206e6f7420746865206f776e65726044820152606401620004bd565b600083471015620028c95760405162461bcd60e51b815260206004820152601d60248201527f437265617465323a20696e73756666696369656e742062616c616e63650000006044820152606401620004bd565b8151620029195760405162461bcd60e51b815260206004820181905260248201527f437265617465323a2062797465636f6465206c656e677468206973207a65726f6044820152606401620004bd565b8282516020840186f590506001600160a01b0381166200297c5760405162461bcd60e51b815260206004820152601960248201527f437265617465323a204661696c6564206f6e206465706c6f79000000000000006044820152606401620004bd565b9392505050565b6001600160a01b0381166000908152606c602052604081205460ff1615620029fc5760405162461bcd60e51b815260206004820152602560248201527f506f6f6c20616c72656164792065786973747320696e207468652064697265636044820152643a37b93c9760d91b6064820152608401620004bd565b606d5460ff16158062002a1e5750336000908152606e602052604090205460ff165b62002a785760405162461bcd60e51b8152602060048201526024808201527f53656e646572206973206e6f74206f6e206465706c6f7965722077686974656c60448201526334b9ba1760e11b6064820152608401620004bd565b60648351111562002ac55760405162461bcd60e51b81526020600482015260166024820152752737903837b7b6103730b6b29039bab8383634b2b21760511b6044820152606401620004bd565b6040805160a081018252848152336020808301919091526001600160a01b03851692820192909252436060820152426080820152606a8054600181018255600091909152815180519293849360059093027f116fea137db6e131133e7f2bab296045d8f41cc5607279db17b218cab0929a51019262002b48928492019062002e19565b50602082810151600183810180546001600160a01b03199081166001600160a01b0394851617909155604080870151600287018054909316941693909317905560608501516003850155608090940151600490930192909255336000908152606b90915220606a54909162002bbd916200360f565b81546001818101845560009384526020808520909201929092556001600160a01b0386168352606c90526040909120805460ff191682179055606a547f18075ab463b4dc5842f37ecd67abeb192eda5d073f2c08509e189ad173d5c0209162002c26916200360f565b8260405162002c3792919062003629565b60405180910390a1606a5462002c50906001906200360f565b949350505050565b603380546001600160a01b038381166001600160a01b0319831681179093556040519116919082907f8be0079c531659141344cd1fd0a4f28419497f9722a3daafe3b4186f6b6457e090600090a35050565b600054610100900460ff1662002cd45760405162461bcd60e51b8152600401620004bd9062003644565b62001b73600054610100900460ff1662002d025760405162461bcd60e51b8152600401620004bd9062003644565b62001b73600054610100900460ff1662002d305760405162461bcd60e51b8152600401620004bd9062003644565b62001b733362002c58565b82805462002d49906200354d565b90600052602060002090601f01602090048101928262002d6d576000855562002db8565b82601f1062002d885782800160ff1982351617855562002db8565b8280016001018555821562002db8579182015b8281111562002db857823582559160200191906001019062002d9b565b5062002dc692915062002e96565b5090565b6040518060a001604052806060815260200160006001600160a01b0316815260200160006001600160a01b0316815260200160008152602001600081525090565b610ad4806200369083390190565b82805462002e27906200354d565b90600052602060002090601f01602090048101928262002e4b576000855562002db8565b82601f1062002e6657805160ff191683800117855562002db8565b8280016001018555821562002db8579182015b8281111562002db857825182559160200191906001019062002e79565b5b8082111562002dc6576000815560010162002e97565b80151581146200235257600080fd5b803562002ec98162002ead565b919050565b60006020828403121562002ee157600080fd5b81356200297c8162002ead565b60008060006040848603121562002f0457600080fd5b83356001600160401b038082111562002f1c57600080fd5b818601915086601f83011262002f3157600080fd5b81358181111562002f4157600080fd5b8760208260051b850101111562002f5757600080fd5b6020928301955093505084013562002f6f8162002ead565b809150509250925092565b6001600160a01b03811681146200235257600080fd5b803562002ec98162002f7a565b60006020828403121562002fb057600080fd5b81356200297c8162002f7a565b60008083601f84011262002fd057600080fd5b5081356001600160401b0381111562002fe857600080fd5b6020830191508360208285010111156200300157600080fd5b9250929050565b6000806000604084860312156200301e57600080fd5b8335925060208401356001600160401b038111156200303c57600080fd5b6200304a8682870162002fbd565b9497909650939450505050565b60005b83811015620030745781810151838201526020016200305a565b8381111562001c415750506000910152565b60008151808452620030a081602086016020860162003057565b601f01601f19169290920160200192915050565b6000815160a08452620030cb60a085018262003086565b9050602083015160018060a01b038082166020870152806040860151166040870152505060608301516060850152608083015160808501528091505092915050565b600082825180855260208086019550808260051b84010181860160005b848110156200315c57601f1986840301895262003149838351620030b4565b988401989250908301906001016200312a565b5090979650505050505050565b604080825283519082018190526000906020906060840190828701845b82811015620031a45781518452928401929084019060010162003186565b50505083810382850152620031ba81866200310d565b9695505050505050565b634e487b7160e01b600052604160045260246000fd5b604051601f8201601f191681016001600160401b0381118282101715620032055762003205620031c4565b604052919050565b60008060008060008060008060e0898b0312156200322a57600080fd5b88356001600160401b03808211156200324257600080fd5b818b0191508b601f8301126200325757600080fd5b81356020828211156200326e576200326e620031c4565b62003282601f8301601f19168201620031da565b8281528e828487010111156200329757600080fd5b828286018383013760008184018301529b50620032b68d820162002f90565b9a50505060408b0135915080821115620032cf57600080fd5b50620032de8b828c0162002fbd565b9097509550620032f3905060608a0162002ebc565b93506080890135925060a089013591506200331160c08a0162002f90565b90509295985092959890939650565b6000602082840312156200333357600080fd5b5035919050565b60a0815260006200334f60a083018862003086565b6001600160a01b039687166020840152949095166040820152606081019290925260809091015292915050565b600080604083850312156200339057600080fd5b82356200339d8162002ead565b91506020838101356001600160401b0380821115620033bb57600080fd5b818601915086601f830112620033d057600080fd5b813581811115620033e557620033e5620031c4565b8060051b9150620033f8848301620031da565b81815291830184019184810190898411156200341357600080fd5b938501935b83851015620034415784359250620034308362002f7a565b828252938501939085019062003418565b8096505050505050509250929050565b6020815260006200297c60208301846200310d565b634e487b7160e01b600052603260045260246000fd5b634e487b7160e01b600052601160045260246000fd5b6000600019821415620034a957620034a96200347c565b5060010190565b6040808252810183905260008460608301825b86811015620034f7578235620034d98162002f7a565b6001600160a01b0316825260209283019290910190600101620034c3565b5080925050508215156020830152949350505050565b6000602082840312156200352057600080fd5b81516200297c8162002f7a565b6000602082840312156200354057600080fd5b81516200297c8162002ead565b600181811c908216806200356257607f821691505b602082108114156200358457634e487b7160e01b600052602260045260246000fd5b50919050565b600084516200359e81846020890162003057565b8201838582376000930192835250909392505050565b6bffffffffffffffffffffffff198460601b16815260008351620035e081601485016020880162003057565b60149201918201929092526034019392505050565b6000602082840312156200360857600080fd5b5051919050565b6000828210156200362457620036246200347c565b500390565b82815260406020820152600062002c506040830184620030b4565b6020808252602b908201527f496e697469616c697a61626c653a20636f6e7472616374206973206e6f74206960408201526a6e697469616c697a696e6760a81b60608201526080019056fe60806040526002805461ffff60a01b191661010160a01b17905534801561002557600080fd5b50604051610ad4380380610ad483398101604081905261004491610077565b60018054336001600160a01b031991821617909155600080549091166001600160a01b03929092169190911790556100a7565b60006020828403121561008957600080fd5b81516001600160a01b03811681146100a057600080fd5b9392505050565b610a1e806100b66000396000f3fe6080604052600436106100a75760003560e01c8063bb82aa5e11610064578063bb82aa5e146103b5578063c1e80334146103d5578063dcfbc0c7146103ea578063e992a0411461040a578063e9c714f21461042a578063f851a4401461043f576100a7565b80630225ab9d146102b85780630a755ec2146102eb57806315761d511461031c57806326782247146103545780632f1069ba14610374578063b71d1a0c14610395575b33301461023d5760408051600481526024810182526020810180516001600160e01b0316633757348b60e21b1790529051600091829130916100e8916108fc565b600060405180830381855afa9150503d8060008114610123576040519150601f19603f3d011682016040523d82523d6000602084013e610128565b606091505b50915091506000821561014c57818060200190518101906101499190610948565b90505b8015610239576000805460035460405163bbcdd6d360e01b81526001600160a01b03918216600482015291169063bbcdd6d390602401602060405180830381865afa15801561019f573d6000803e3d6000fd5b505050506040513d601f19601f820116820180604052508101906101c3919061097a565b6003549091506001600160a01b0380831691161461023757600380546001600160a01b038381166001600160a01b0319831681179093556040519116917fd604de94d45953f9138079ec1b82d533cb2160c906d1076d1f7ed54befbca97a9161022d918491610997565b60405180910390a1505b505b5050505b6003546040516000916001600160a01b03169061025d90839036906109b1565b600060405180830381855af49150503d8060008114610298576040519150601f19603f3d011682016040523d82523d6000602084013e61029d565b606091505b505090506040513d6000823e8180156102b4573d82f35b3d82fd5b3480156102c457600080fd5b506102d86102d33660046109c1565b61045f565b6040519081526020015b60405180910390f35b3480156102f757600080fd5b5060025461030c90600160a81b900460ff1681565b60405190151581526020016102e2565b34801561032857600080fd5b5060005461033c906001600160a01b031681565b6040516001600160a01b0390911681526020016102e2565b34801561036057600080fd5b5060025461033c906001600160a01b031681565b34801561038057600080fd5b5060025461030c90600160a01b900460ff1681565b3480156103a157600080fd5b506102d86103b03660046109de565b6104fb565b3480156103c157600080fd5b5060035461033c906001600160a01b031681565b3480156103e157600080fd5b506102d861057a565b3480156103f657600080fd5b5060045461033c906001600160a01b031681565b34801561041657600080fd5b506102d86104253660046109de565b61066c565b34801561043657600080fd5b506102d861075f565b34801561044b57600080fd5b5060015461033c906001600160a01b031681565b6000610469610831565b61047f5761047960016005610883565b92915050565b60025460ff600160a81b909104161515821515141561049f576000610479565b60028054831515600160a81b0260ff60a81b199091161790556040517f10f9a0a95673b0837d1dce21fd3bffcb6d760435e9b5300b75a271182f75f822906104ec90841515815260200190565b60405180910390a16000610479565b6000610505610831565b610515576104796001600f610883565b600280546001600160a01b038481166001600160a01b03198316179092556040519116907fca4f2f25d0898edd99413412fb94012f9e54ec8142f9b093e7720646a95b16a9906105689083908690610997565b60405180910390a160005b9392505050565b6004546000906001600160a01b0316331415806105a057506004546001600160a01b0316155b156105b5576105b0600180610883565b905090565b60038054600480546001600160a01b03198084166001600160a01b03838116918217909655911690915560405192909116917fd604de94d45953f9138079ec1b82d533cb2160c906d1076d1f7ed54befbca97a906106169084908490610997565b60405180910390a16004546040517fe945ccee5d701fc83f9b8aa8ca94ea4219ec1fcbd4f4cab4f0ea57c5c3e1d8159161065b9184916001600160a01b031690610997565b60405180910390a160009250505090565b6000610676610831565b6106865761047960016011610883565b600054600354604051639d244f9f60e01b81526001600160a01b0392831692639d244f9f926106bc929116908690600401610997565b602060405180830381865afa1580156106d9573d6000803e3d6000fd5b505050506040513d601f19601f820116820180604052508101906106fd9190610948565b61070d5761047960016010610883565b600480546001600160a01b038481166001600160a01b0319831681179093556040519116917fe945ccee5d701fc83f9b8aa8ca94ea4219ec1fcbd4f4cab4f0ea57c5c3e1d81591610568918491610997565b6002546000906001600160a01b03163314158061077a575033155b1561078b576105b060016000610883565b60018054600280546001600160a01b03198084166001600160a01b03838116918217909655911690915560405192909116917ff9ffabca9c8276e99321725bcb43fb076a6c66a54b7f21c4e8146d8519b417dc906107ec9084908490610997565b60405180910390a16002546040517fca4f2f25d0898edd99413412fb94012f9e54ec8142f9b093e7720646a95b16a99161065b9184916001600160a01b031690610997565b6001546000906001600160a01b0316331480156108575750600254600160a81b900460ff165b806105b057506000546001600160a01b0316331480156105b0575050600254600160a01b900460ff1690565b60007f45b96fe442630264581b197e84bbada861235052c5a1aadfff9ea4e40a969aa08360148111156108b8576108b86109fb565b83601a8111156108ca576108ca6109fb565b60408051928352602083019190915260009082015260600160405180910390a1826014811115610573576105736109fb565b6000825160005b8181101561091d5760208186018101518583015201610903565b8181111561092c576000828501525b509190910192915050565b801515811461094557600080fd5b50565b60006020828403121561095a57600080fd5b815161057381610937565b6001600160a01b038116811461094557600080fd5b60006020828403121561098c57600080fd5b815161057381610965565b6001600160a01b0392831681529116602082015260400190565b8183823760009101908152919050565b6000602082840312156109d357600080fd5b813561057381610937565b6000602082840312156109f057600080fd5b813561057381610965565b634e487b7160e01b600052602160045260246000fdfea164736f6c634300080a000aa164736f6c634300080a000a",
    "linkReferences": {}
  },
  "methodIdentifiers": {
    "_acceptOwner()": "fc4d33f9",
    "_editAdminWhitelist(address[],bool)": "0a83d1b0",
    "_editDeployerWhitelist(address[],bool)": "a155497c",
    "_resetGap()": "c2bd5c2e",
    "_setDeployerWhitelistEnforcement(bool)": "04f03c6f",
    "_setPendingOwner(address)": "6e96dfd7",
    "adminWhitelist(address)": "43e20a1d",
    "deployPool(string,address,bytes,bool,uint256,uint256,address)": "58b896d3",
    "deployerWhitelist(address)": "a970e76c",
    "enforceDeployerWhitelist()": "26bb81d7",
    "getAllPools()": "d88ff1f4",
    "getPoolsByAccount(address)": "a3ed91c6",
    "getPoolsOfUser(address)": "f348960d",
    "getPublicPools()": "4ae26ea1",
    "getPublicPoolsByVerification(bool)": "218a3bbe",
    "getVerifiedPoolsOfWhitelistedAccount(address)": "448ca558",
    "initialize(bool,address[])": "b86579d4",
    "owner()": "8da5cb5b",
    "pendingOwner()": "e30c3978",
    "poolExists(address)": "1e1c6a07",
    "pools(uint256)": "ac4afa38",
    "poolsCounter()": "5d0eb31a",
    "renounceOwnership()": "715018a6",
    "setPoolName(uint256,string)": "20c32bfe",
    "transferOwnership(address)": "f2fde38b"
  }
}