{
  "address": "0x968188FD4Bc26D120368Cec1410677B035848301",
  "abi": [
    {
      "inputs": [
        {
          "internalType": "contract FusePoolDirectory",
          "name": "_fpd",
          "type": "address"
        }
      ],
      "stateMutability": "nonpayable",
      "type": "constructor"
    },
    {
      "inputs": [
        {
          "internalType": "address",
          "name": "user",
          "type": "address"
        }
      ],
      "name": "claimAllRewardTokens",
      "outputs": [
        {
          "internalType": "address[]",
          "name": "",
          "type": "address[]"
        },
        {
          "internalType": "uint256[]",
          "name": "",
          "type": "uint256[]"
        }
      ],
      "stateMutability": "nonpayable",
      "type": "function"
    },
    {
      "inputs": [
        {
          "internalType": "address",
          "name": "user",
          "type": "address"
        },
        {
          "internalType": "contract ERC20",
          "name": "market",
          "type": "address"
        },
        {
          "internalType": "contract MidasFlywheelCore[]",
          "name": "flywheels",
          "type": "address[]"
        },
        {
          "internalType": "bool[]",
          "name": "accrue",
          "type": "bool[]"
        }
      ],
      "name": "claimRewardsForMarket",
      "outputs": [
        {
          "internalType": "contract MidasFlywheelCore[]",
          "name": "",
          "type": "address[]"
        },
        {
          "internalType": "address[]",
          "name": "rewardTokens",
          "type": "address[]"
        },
        {
          "internalType": "uint256[]",
          "name": "rewards",
          "type": "uint256[]"
        }
      ],
      "stateMutability": "nonpayable",
      "type": "function"
    },
    {
      "inputs": [
        {
          "internalType": "address",
          "name": "user",
          "type": "address"
        },
        {
          "internalType": "contract ERC20[]",
          "name": "markets",
          "type": "address[]"
        },
        {
          "internalType": "contract MidasFlywheelCore[]",
          "name": "flywheels",
          "type": "address[]"
        },
        {
          "internalType": "bool[]",
          "name": "accrue",
          "type": "bool[]"
        }
      ],
      "name": "claimRewardsForMarkets",
      "outputs": [
        {
          "internalType": "contract MidasFlywheelCore[]",
          "name": "",
          "type": "address[]"
        },
        {
          "internalType": "address[]",
          "name": "rewardTokens",
          "type": "address[]"
        },
        {
          "internalType": "uint256[]",
          "name": "rewards",
          "type": "uint256[]"
        }
      ],
      "stateMutability": "nonpayable",
      "type": "function"
    },
    {
      "inputs": [
        {
          "internalType": "address",
          "name": "user",
          "type": "address"
        },
        {
          "internalType": "contract IComptroller",
          "name": "comptroller",
          "type": "address"
        }
      ],
      "name": "claimRewardsForPool",
      "outputs": [
        {
          "internalType": "contract MidasFlywheelCore[]",
          "name": "",
          "type": "address[]"
        },
        {
          "internalType": "address[]",
          "name": "",
          "type": "address[]"
        },
        {
          "internalType": "uint256[]",
          "name": "",
          "type": "uint256[]"
        }
      ],
      "stateMutability": "nonpayable",
      "type": "function"
    },
    {
      "inputs": [
        {
          "internalType": "address",
          "name": "user",
          "type": "address"
        },
        {
          "internalType": "address",
          "name": "rewardToken",
          "type": "address"
        }
      ],
      "name": "claimRewardsOfRewardToken",
      "outputs": [
        {
          "internalType": "uint256",
          "name": "rewardsClaimed",
          "type": "uint256"
        }
      ],
      "stateMutability": "nonpayable",
      "type": "function"
    },
    {
      "inputs": [],
      "name": "fpd",
      "outputs": [
        {
          "internalType": "contract FusePoolDirectory",
          "name": "",
          "type": "address"
        }
      ],
      "stateMutability": "view",
      "type": "function"
    },
    {
      "inputs": [],
      "name": "getAllRewardTokens",
      "outputs": [
        {
          "internalType": "address[]",
          "name": "uniqueRewardTokens",
          "type": "address[]"
        }
      ],
      "stateMutability": "view",
      "type": "function"
    },
    {
      "inputs": [
        {
          "internalType": "contract ICErc20[]",
          "name": "markets",
          "type": "address[]"
        }
      ],
      "name": "getMarketRewardsInfo",
      "outputs": [
        {
          "components": [
            {
              "internalType": "uint256",
              "name": "underlyingPrice",
              "type": "uint256"
            },
            {
              "internalType": "contract ICErc20",
              "name": "market",
              "type": "address"
            },
            {
              "components": [
                {
                  "internalType": "uint256",
                  "name": "rewardSpeedPerSecondPerToken",
                  "type": "uint256"
                },
                {
                  "internalType": "uint256",
                  "name": "rewardTokenPrice",
                  "type": "uint256"
                },
                {
                  "internalType": "uint256",
                  "name": "formattedAPR",
                  "type": "uint256"
                },
                {
                  "internalType": "address",
                  "name": "flywheel",
                  "type": "address"
                },
                {
                  "internalType": "address",
                  "name": "rewardToken",
                  "type": "address"
                }
              ],
              "internalType": "struct MidasFlywheelLensRouter.RewardsInfo[]",
              "name": "rewardsInfo",
              "type": "tuple[]"
            }
          ],
          "internalType": "struct MidasFlywheelLensRouter.MarketRewardsInfo[]",
          "name": "",
          "type": "tuple[]"
        }
      ],
      "stateMutability": "nonpayable",
      "type": "function"
    },
    {
      "inputs": [
        {
          "internalType": "contract IComptroller",
          "name": "comptroller",
          "type": "address"
        }
      ],
      "name": "getPoolMarketRewardsInfo",
      "outputs": [
        {
          "components": [
            {
              "internalType": "uint256",
              "name": "underlyingPrice",
              "type": "uint256"
            },
            {
              "internalType": "contract ICErc20",
              "name": "market",
              "type": "address"
            },
            {
              "components": [
                {
                  "internalType": "uint256",
                  "name": "rewardSpeedPerSecondPerToken",
                  "type": "uint256"
                },
                {
                  "internalType": "uint256",
                  "name": "rewardTokenPrice",
                  "type": "uint256"
                },
                {
                  "internalType": "uint256",
                  "name": "formattedAPR",
                  "type": "uint256"
                },
                {
                  "internalType": "address",
                  "name": "flywheel",
                  "type": "address"
                },
                {
                  "internalType": "address",
                  "name": "rewardToken",
                  "type": "address"
                }
              ],
              "internalType": "struct MidasFlywheelLensRouter.RewardsInfo[]",
              "name": "rewardsInfo",
              "type": "tuple[]"
            }
          ],
          "internalType": "struct MidasFlywheelLensRouter.MarketRewardsInfo[]",
          "name": "",
          "type": "tuple[]"
        }
      ],
      "stateMutability": "nonpayable",
      "type": "function"
    }
  ],
  "transactionHash": "0x58cee381f14c764ba792e1d51e4e5b04037be95d2f58ff7bae9d1a3f43c630e5",
  "args": [
    "0x64d9a81F1412c7691e7731C66A290aeE8FA21f10"
  ],
  "numDeployments": 12,
  "bytecode": {
    "object": "0x60806040523480156200001157600080fd5b5060405162002f1838038062002f1883398101604081905262000034916200005a565b600080546001600160a01b0319166001600160a01b03929092169190911790556200008c565b6000602082840312156200006d57600080fd5b81516001600160a01b03811681146200008557600080fd5b9392505050565b612e7c806200009c6000396000f3fe608060405234801561001057600080fd5b50600436106100935760003560e01c80638260a696116100665780638260a6961461010b5780639cf1fd531461011e578063bdfc18391461013f578063d1040bae14610160578063de858c631461017357600080fd5b806312edb24c146100985780633610c407146100b65780634f471e6d146100d85780637e70aa49146100eb575b600080fd5b6100a061019e565b6040516100ad9190612258565b60405180910390f35b6100c96100c4366004612283565b6105ca565b6040516100ad939291906122ec565b6100c96100e63660046123ac565b610888565b6100fe6100f93660046124d1565b610c83565b6040516100ad919061256f565b6100c9610119366004612733565b610dd8565b61013161012c36600461282d565b611197565b6040516100ad92919061284a565b61015261014d366004612283565b611256565b6040519081526020016100ad565b6100fe61016e36600461282d565b611764565b600054610186906001600160a01b031681565b6040516001600160a01b0390911681526020016100ad565b60008054604080516323b020d560e21b81529051606093926001600160a01b031691638ec0835491600480830192869291908290030181865afa1580156101e9573d6000803e3d6000fd5b505050506040513d6000823e601f3d908101601f1916820160405261021191908101906129f4565b915060009050805b82518110156102d257600083828151811061023657610236612aaf565b60200260200101516040015190506000816001600160a01b0316633605b51b6040518163ffffffff1660e01b8152600401600060405180830381865afa158015610284573d6000803e3d6000fd5b505050506040513d6000823e601f3d908101601f191682016040526102ac9190810190612ac5565b90508051846102bb9190612b69565b9350505080806102ca90612b81565b915050610219565b506000816001600160401b038111156102ed576102ed612440565b604051908082528060200260200182016040528015610316578160200160208202803683370190505b5090506000805b845181101561051c57600085828151811061033a5761033a612aaf565b60200260200101516040015190506000816001600160a01b0316633605b51b6040518163ffffffff1660e01b8152600401600060405180830381865afa158015610388573d6000803e3d6000fd5b505050506040513d6000823e601f3d908101601f191682016040526103b09190810190612ac5565b905060005b81518110156105065760008282815181106103d2576103d2612aaf565b60200260200101516001600160a01b031663f7c618c16040518163ffffffff1660e01b8152600401602060405180830381865afa158015610417573d6000803e3d6000fd5b505050506040513d601f19601f8201168201806040525081019061043b9190612b9c565b90506001600160a01b0381166104515750610506565b6000805b88518110156104ac5788818151811061047057610470612aaf565b60200260200101516001600160a01b0316836001600160a01b0316141561049a57600191506104ac565b806104a481612b81565b915050610455565b50806104f1578188886104be81612b81565b9950815181106104d0576104d0612aaf565b60200260200101906001600160a01b031690816001600160a01b0316815250505b505080806104fe90612b81565b9150506103b5565b505050808061051490612b81565b91505061031d565b50806001600160401b0381111561053557610535612440565b60405190808252806020026020018201604052801561055e578160200160208202803683370190505b50945060005b818110156105c25782818151811061057e5761057e612aaf565b602002602001015186828151811061059857610598612aaf565b6001600160a01b0390921660209283029190910190910152806105ba81612b81565b915050610564565b505050505090565b60608060606000846001600160a01b031663b0772d0b6040518163ffffffff1660e01b8152600401600060405180830381865afa15801561060f573d6000803e3d6000fd5b505050506040513d6000823e601f3d908101601f191682016040526106379190810190612bb9565b9050600081516001600160401b0381111561065457610654612440565b60405190808252806020026020018201604052801561067d578160200160208202803683370190505b5090506000866001600160a01b0316634a76e7276040518163ffffffff1660e01b8152600401600060405180830381865afa1580156106c0573d6000803e3d6000fd5b505050506040513d6000823e601f3d908101601f191682016040526106e89190810190612ac5565b9050600081516001600160401b0381111561070557610705612440565b60405190808252806020026020018201604052801561072e578160200160208202803683370190505b509050600082516001600160401b0381111561074c5761074c612440565b604051908082528060200260200182016040528015610775578160200160208202803683370190505b50905060005b83518110156108065783818151811061079657610796612aaf565b60200260200101518382815181106107b0576107b0612aaf565b60200260200101906001600160a01b031690816001600160a01b03168152505060018282815181106107e4576107e4612aaf565b91151560209283029190910190910152806107fe81612b81565b91505061077b565b5060005b85518110156108695785818151811061082557610825612aaf565b602002602001015185828151811061083f5761083f612aaf565b6001600160a01b03909216602092830291909101909101528061086181612b81565b91505061080a565b506108768a858484610dd8565b97509750975050505050509250925092565b6060808085806001600160401b038111156108a5576108a5612440565b6040519080825280602002602001820160405280156108ce578160200160208202803683370190505b509150806001600160401b038111156108e9576108e9612440565b604051908082528060200260200182016040528015610912578160200160208202803683370190505b50925060005b81811015610c3357600087878381811061093457610934612aaf565b90506020020160208101906109499190612c47565b156109f25789898381811061096057610960612aaf565b9050602002016020810190610975919061282d565b604051632e6f912b60e21b81526001600160a01b038d811660048301528e81166024830152919091169063b9be44ac906044016020604051808303816000875af11580156109c7573d6000803e3d6000fd5b505050506040513d601f19601f820116820180604052508101906109eb9190612c62565b9050610a8a565b898983818110610a0457610a04612aaf565b9050602002016020810190610a19919061282d565b604051630ff6b5a760e31b81526001600160a01b038e811660048301529190911690637fb5ad38906024016020604051808303816000875af1158015610a63573d6000803e3d6000fd5b505050506040513d601f19601f82011682018060405250810190610a879190612c62565b90505b80848381518110610a9d57610a9d612aaf565b60200260200101511015610ab15780610acc565b838281518110610ac357610ac3612aaf565b60200260200101515b848381518110610ade57610ade612aaf565b602002602001018181525050898983818110610afc57610afc612aaf565b9050602002016020810190610b11919061282d565b604051633bd73ee360e21b81526001600160a01b038e81166004830152919091169063ef5cfb8c90602401600060405180830381600087803b158015610b5657600080fd5b505af1158015610b6a573d6000803e3d6000fd5b50505050898983818110610b8057610b80612aaf565b9050602002016020810190610b95919061282d565b6001600160a01b031663f7c618c16040518163ffffffff1660e01b8152600401602060405180830381865afa158015610bd2573d6000803e3d6000fd5b505050506040513d601f19601f82011682018060405250810190610bf69190612b9c565b858381518110610c0857610c08612aaf565b6001600160a01b03909216602092830291909101909101525080610c2b81612b81565b915050610918565b5087878484838380806020026020016040519081016040528093929190818152602001838360200280828437600092019190915250929a5093985091965050505050505096509650969350505050565b60606000805b8351811015610dc6576000848281518110610ca657610ca6612aaf565b6020026020010151905060006001600160a01b0316836001600160a01b03161415610d3457806001600160a01b0316635fe3b5676040518163ffffffff1660e01b8152600401602060405180830381865afa158015610d09573d6000803e3d6000fd5b505050506040513d601f19601f82011682018060405250810190610d2d9190612b9c565b9250610db3565b826001600160a01b0316816001600160a01b0316635fe3b5676040518163ffffffff1660e01b8152600401602060405180830381865afa158015610d7c573d6000803e3d6000fd5b505050506040513d601f19601f82011682018060405250810190610da09190612b9c565b6001600160a01b031614610db357600080fd5b5080610dbe81612b81565b915050610c89565b50610dd183826117d6565b9392505050565b606080606084516001600160401b03811115610df657610df6612440565b604051908082528060200260200182016040528015610e1f578160200160208202803683370190505b50905084516001600160401b03811115610e3b57610e3b612440565b604051908082528060200260200182016040528015610e64578160200160208202803683370190505b50915060005b855181101561118a5760005b8751811015611059576000888281518110610e9357610e93612aaf565b602002602001015190506000878481518110610eb157610eb1612aaf565b602002602001015115610f5757888481518110610ed057610ed0612aaf565b6020908102919091010151604051632e6f912b60e21b81526001600160a01b0384811660048301528d811660248301529091169063b9be44ac906044016020604051808303816000875af1158015610f2c573d6000803e3d6000fd5b505050506040513d601f19601f82011682018060405250810190610f509190612c62565b9050610fe4565b888481518110610f6957610f69612aaf565b6020908102919091010151604051630ff6b5a760e31b81526001600160a01b038d8116600483015290911690637fb5ad38906024016020604051808303816000875af1158015610fbd573d6000803e3d6000fd5b505050506040513d601f19601f82011682018060405250810190610fe19190612c62565b90505b80858581518110610ff757610ff7612aaf565b6020026020010151101561100b5780611026565b84848151811061101d5761101d612aaf565b60200260200101515b85858151811061103857611038612aaf565b6020026020010181815250505050808061105190612b81565b915050610e76565b5085818151811061106c5761106c612aaf565b6020908102919091010151604051633bd73ee360e21b81526001600160a01b038a811660048301529091169063ef5cfb8c90602401600060405180830381600087803b1580156110bb57600080fd5b505af11580156110cf573d6000803e3d6000fd5b505050508581815181106110e5576110e5612aaf565b60200260200101516001600160a01b031663f7c618c16040518163ffffffff1660e01b8152600401602060405180830381865afa15801561112a573d6000803e3d6000fd5b505050506040513d601f19601f8201168201806040525081019061114e9190612b9c565b83828151811061116057611160612aaf565b6001600160a01b03909216602092830291909101909101528061118281612b81565b915050610e6a565b5093969095509293505050565b60608060006111a461019e565b9050600081516001600160401b038111156111c1576111c1612440565b6040519080825280602002602001820160405280156111ea578160200160208202803683370190505b50905060005b825181101561124b5761121c8684838151811061120f5761120f612aaf565b6020026020010151611256565b82828151811061122e5761122e612aaf565b60209081029190910101528061124381612b81565b9150506111f0565b509094909350915050565b6040516370a0823160e01b81526001600160a01b03838116600483015260009182918416906370a0823190602401602060405180830381865afa1580156112a1573d6000803e3d6000fd5b505050506040513d601f19601f820116820180604052508101906112c59190612c62565b905060008060009054906101000a90046001600160a01b03166001600160a01b0316638ec083546040518163ffffffff1660e01b8152600401600060405180830381865afa15801561131b573d6000803e3d6000fd5b505050506040513d6000823e601f3d908101601f1916820160405261134391908101906129f4565b91505060005b81518110156116dd57600082828151811061136657611366612aaf565b602002602001015160400151905060606000826001600160a01b031663b0772d0b6040518163ffffffff1660e01b8152600401600060405180830381865afa1580156113b6573d6000803e3d6000fd5b505050506040513d6000823e601f3d908101601f191682016040526113de9190810190612bb9565b905080516001600160401b038111156113f9576113f9612440565b604051908082528060200260200182016040528015611422578160200160208202803683370190505b50915060005b81518110156114875781818151811061144357611443612aaf565b602002602001015183828151811061145d5761145d612aaf565b6001600160a01b03909216602092830291909101909101528061147f81612b81565b915050611428565b50506000826001600160a01b0316634a76e7276040518163ffffffff1660e01b8152600401600060405180830381865afa1580156114c9573d6000803e3d6000fd5b505050506040513d6000823e601f3d908101601f191682016040526114f19190810190612ac5565b905060005b81518110156116c657600082828151811061151357611513612aaf565b60200260200101519050896001600160a01b0316816001600160a01b031663f7c618c16040518163ffffffff1660e01b8152600401602060405180830381865afa158015611565573d6000803e3d6000fd5b505050506040513d601f19601f820116820180604052508101906115899190612b9c565b6001600160a01b031614156116b35760005b845181101561165657816001600160a01b031663b9be44ac8683815181106115c5576115c5612aaf565b60200260200101518e6040518363ffffffff1660e01b81526004016116009291906001600160a01b0392831681529116602082015260400190565b6020604051808303816000875af115801561161f573d6000803e3d6000fd5b505050506040513d601f19601f820116820180604052508101906116439190612c62565b508061164e81612b81565b91505061159b565b50604051633bd73ee360e21b81526001600160a01b038c8116600483015282169063ef5cfb8c90602401600060405180830381600087803b15801561169a57600080fd5b505af11580156116ae573d6000803e3d6000fd5b505050505b50806116be81612b81565b9150506114f6565b5050505080806116d590612b81565b915050611349565b506040516370a0823160e01b81526001600160a01b038681166004830152600091908616906370a0823190602401602060405180830381865afa158015611728573d6000803e3d6000fd5b505050506040513d601f19601f8201168201806040525081019061174c9190612c62565b90506117588382612c7b565b93505050505b92915050565b60606000826001600160a01b031663b0772d0b6040518163ffffffff1660e01b8152600401600060405180830381865afa1580156117a6573d6000803e3d6000fd5b505050506040513d6000823e601f3d908101601f191682016040526117ce9190810190612bb9565b9050610dd181845b60606001600160a01b03821615806117ed57508251155b1561183f576040805160008082526020820190925290611837565b604080516060808201835260008083526020830152918101919091528152602001906001900390816118085790505b50905061175e565b6000826001600160a01b0316634a76e7276040518163ffffffff1660e01b8152600401600060405180830381865afa15801561187f573d6000803e3d6000fd5b505050506040513d6000823e601f3d908101601f191682016040526118a79190810190612ac5565b9050600081516001600160401b038111156118c4576118c4612440565b6040519080825280602002602001820160405280156118ed578160200160208202803683370190505b509050600082516001600160401b0381111561190b5761190b612440565b604051908082528060200260200182016040528015611934578160200160208202803683370190505b509050600083516001600160401b0381111561195257611952612440565b60405190808252806020026020018201604052801561197b578160200160208202803683370190505b5090506000866001600160a01b0316637dc0d1d06040518163ffffffff1660e01b8152600401602060405180830381865afa1580156119be573d6000803e3d6000fd5b505050506040513d601f19601f820116820180604052508101906119e29190612b9c565b9050600088516001600160401b038111156119ff576119ff612440565b604051908082528060200260200182016040528015611a4c57816020015b60408051606080820183526000808352602083015291810191909152815260200190600190039081611a1d5790505b50905060005b8951811015611f8c57600087516001600160401b03811115611a7657611a76612440565b604051908082528060200260200182016040528015611aeb57816020015b611ad86040518060a0016040528060008152602001600081526020016000815260200160006001600160a01b0316815260200160006001600160a01b031681525090565b815260200190600190039081611a945790505b50905060008b8381518110611b0257611b02612aaf565b602002602001015190506000856001600160a01b031663aea91078836001600160a01b0316636f307dc36040518163ffffffff1660e01b8152600401602060405180830381865afa158015611b5b573d6000803e3d6000fd5b505050506040513d601f19601f82011682018060405250810190611b7f9190612b9c565b6040516001600160e01b031960e084901b1681526001600160a01b039091166004820152602401602060405180830381865afa158015611bc3573d6000803e3d6000fd5b505050506040513d601f19601f82011682018060405250810190611be79190612c62565b905083611dba5760005b8a51811015611db85760008b8281518110611c0e57611c0e612aaf565b60200260200101516001600160a01b031663f7c618c16040518163ffffffff1660e01b8152600401602060405180830381865afa158015611c53573d6000803e3d6000fd5b505050506040513d601f19601f82011682018060405250810190611c779190612b9c565b9050808b8381518110611c8c57611c8c612aaf565b6001600160a01b0392831660209182029290920101526040516315d5220f60e31b815282821660048201529089169063aea9107890602401602060405180830381865afa158015611ce1573d6000803e3d6000fd5b505050506040513d601f19601f82011682018060405250810190611d059190612c62565b8a8381518110611d1757611d17612aaf565b602002602001018181525050806001600160a01b031663313ce5676040518163ffffffff1660e01b8152600401602060405180830381865afa158015611d61573d6000803e3d6000fd5b505050506040513d601f19601f82011682018060405250810190611d859190612c92565b60ff16898381518110611d9a57611d9a612aaf565b60209081029190910101525080611db081612b81565b915050611bf1565b505b60005b8a51811015611f345760008b8281518110611dda57611dda612aaf565b602002602001015190506000611e0a82868c8681518110611dfd57611dfd612aaf565b6020026020010151611f99565b90506000611e94828d8681518110611e2457611e24612aaf565b602002602001015187896001600160a01b031663bd6d894d6040518163ffffffff1660e01b8152600401602060405180830381865afa158015611e6b573d6000803e3d6000fd5b505050506040513d601f19601f82011682018060405250810190611e8f9190612c62565b612155565b90506040518060a001604052808381526020018d8681518110611eb957611eb9612aaf565b60200260200101518152602001828152602001846001600160a01b031681526020018e8681518110611eed57611eed612aaf565b60200260200101516001600160a01b0316815250878581518110611f1357611f13612aaf565b60200260200101819052505050508080611f2c90612b81565b915050611dbd565b506040518060600160405280828152602001836001600160a01b0316815260200184815250858581518110611f6b57611f6b612aaf565b60200260200101819052505050508080611f8490612b81565b915050611a52565b5098975050505050505050565b60405163dde684a560e01b81526001600160a01b03808416600483015260009184918391829188169063dde684a59060240160408051808303816000875af1158015611fe9573d6000803e3d6000fd5b505050506040513d601f19601f8201168201806040525081019061200d9190612cb5565b604051632e6f912b60e21b81526001600160a01b038681166004830152600060248301529294509092509088169063b9be44ac906044016020604051808303816000875af1158015612063573d6000803e3d6000fd5b505050506040513d601f19601f820116820180604052508101906120879190612c62565b5060405163dde684a560e01b81526001600160a01b03848116600483015260009182918a169063dde684a59060240160408051808303816000875af11580156120d4573d6000803e3d6000fd5b505050506040513d601f19601f820116820180604052508101906120f89190612cb5565b915091508263ffffffff168163ffffffff1611156121495761211a8382612cf9565b63ffffffff1661213c61212d8685612d1e565b6001600160e01b0316896121c4565b6121469190612d3e565b95505b50505050509392505050565b600084612164575060006121bc565b60006121708587612d60565b90506000612182826301e187e0612d60565b905060006121908683612d3e565b905060006121a682670de0b6b3a7640000612d60565b905060006121b48783612d3e565b955050505050505b949350505050565b600060128211156121f4576121da601283612c7b565b6121e590600a612e63565b6121ef9084612d3e565b610dd1565b6121ff826012612c7b565b61220a90600a612e63565b610dd19084612d60565b600081518084526020808501945080840160005b8381101561224d5781516001600160a01b031687529582019590820190600101612228565b509495945050505050565b602081526000610dd16020830184612214565b6001600160a01b038116811461228057600080fd5b50565b6000806040838503121561229657600080fd5b82356122a18161226b565b915060208301356122b18161226b565b809150509250929050565b600081518084526020808501945080840160005b8381101561224d578151875295820195908201906001016122d0565b606080825284519082018190526000906020906080840190828801845b8281101561232e5781516001600160a01b031684529284019290840190600101612309565b505050838103828501526123428187612214565b915050828103604084015261235781856122bc565b9695505050505050565b60008083601f84011261237357600080fd5b5081356001600160401b0381111561238a57600080fd5b6020830191508360208260051b85010111156123a557600080fd5b9250929050565b600080600080600080608087890312156123c557600080fd5b86356123d08161226b565b955060208701356123e08161226b565b945060408701356001600160401b03808211156123fc57600080fd5b6124088a838b01612361565b9096509450606089013591508082111561242157600080fd5b5061242e89828a01612361565b979a9699509497509295939492505050565b634e487b7160e01b600052604160045260246000fd5b60405160a081016001600160401b038111828210171561247857612478612440565b60405290565b604051601f8201601f191681016001600160401b03811182821017156124a6576124a6612440565b604052919050565b60006001600160401b038211156124c7576124c7612440565b5060051b60200190565b600060208083850312156124e457600080fd5b82356001600160401b038111156124fa57600080fd5b8301601f8101851361250b57600080fd5b803561251e612519826124ae565b61247e565b81815260059190911b8201830190838101908783111561253d57600080fd5b928401925b828410156125645783356125558161226b565b82529284019290840190612542565b979650505050505050565b60006020808301818452808551808352604092508286019150828160051b87010184880160005b8381101561263f57888303603f19018552815180518452878101516001600160a01b03908116898601529087015160608886018190528151818701819052918a019290916080918288019160005b81811015612627578651805185528e8101518f8601528d8101518e86015286810151841687860152850151831685850152958d019560a0909301926001016125e4565b505050978a0197955050509187019150600101612596565b509098975050505050505050565b600082601f83011261265e57600080fd5b8135602061266e612519836124ae565b82815260059290921b8401810191818101908684111561268d57600080fd5b8286015b848110156126b15780356126a48161226b565b8352918301918301612691565b509695505050505050565b803580151581146126cc57600080fd5b919050565b600082601f8301126126e257600080fd5b813560206126f2612519836124ae565b82815260059290921b8401810191818101908684111561271157600080fd5b8286015b848110156126b157612726816126bc565b8352918301918301612715565b6000806000806080858703121561274957600080fd5b84356127548161226b565b93506020858101356001600160401b038082111561277157600080fd5b818801915088601f83011261278557600080fd5b8135612793612519826124ae565b81815260059190911b8301840190848101908b8311156127b257600080fd5b938501935b828510156127d95784356127ca8161226b565b825293850193908501906127b7565b9750505060408801359250808311156127f157600080fd5b6127fd89848a0161264d565b9450606088013592508083111561281357600080fd5b5050612821878288016126d1565b91505092959194509250565b60006020828403121561283f57600080fd5b8135610dd18161226b565b60408152600061285d6040830185612214565b828103602084015261286f81856122bc565b95945050505050565b80516126cc8161226b565b6000601f838184011261289557600080fd5b825160206128a5612519836124ae565b82815260059290921b850181019181810190878411156128c457600080fd5b8287015b848110156129e85780516001600160401b03808211156128e85760008081fd5b9089019060a0601f19838d0381018213156129035760008081fd5b61290b612456565b888501518481111561291d5760008081fd5b8501603f81018f1361292f5760008081fd5b898101518581111561294357612943612440565b6129528b858f8401160161247e565b9550808652604093508f8482840101111561296d5760008081fd5b60005b8181101561298b578281018501518782018d01528b01612970565b8181111561299c5760008c83890101525b5050508381526129ad828601612878565b89820152606093506129c0848601612878565b91810191909152608084810151938201939093529201519082015283529183019183016128c8565b50979650505050505050565b60008060408385031215612a0757600080fd5b82516001600160401b0380821115612a1e57600080fd5b818501915085601f830112612a3257600080fd5b81516020612a42612519836124ae565b82815260059290921b84018101918181019089841115612a6157600080fd5b948201945b83861015612a7f57855182529482019490820190612a66565b91880151919650909350505080821115612a9857600080fd5b50612aa585828601612883565b9150509250929050565b634e487b7160e01b600052603260045260246000fd5b60006020808385031215612ad857600080fd5b82516001600160401b03811115612aee57600080fd5b8301601f81018513612aff57600080fd5b8051612b0d612519826124ae565b81815260059190911b82018301908381019087831115612b2c57600080fd5b928401925b82841015612564578351612b448161226b565b82529284019290840190612b31565b634e487b7160e01b600052601160045260246000fd5b60008219821115612b7c57612b7c612b53565b500190565b6000600019821415612b9557612b95612b53565b5060010190565b600060208284031215612bae57600080fd5b8151610dd18161226b565b60006020808385031215612bcc57600080fd5b82516001600160401b03811115612be257600080fd5b8301601f81018513612bf357600080fd5b8051612c01612519826124ae565b81815260059190911b82018301908381019087831115612c2057600080fd5b928401925b82841015612564578351612c388161226b565b82529284019290840190612c25565b600060208284031215612c5957600080fd5b610dd1826126bc565b600060208284031215612c7457600080fd5b5051919050565b600082821015612c8d57612c8d612b53565b500390565b600060208284031215612ca457600080fd5b815160ff81168114610dd157600080fd5b60008060408385031215612cc857600080fd5b82516001600160e01b0381168114612cdf57600080fd5b602084015190925063ffffffff811681146122b157600080fd5b600063ffffffff83811690831681811015612d1657612d16612b53565b039392505050565b60006001600160e01b0383811690831681811015612d1657612d16612b53565b600082612d5b57634e487b7160e01b600052601260045260246000fd5b500490565b6000816000190483118215151615612d7a57612d7a612b53565b500290565b600181815b80851115612dba578160001904821115612da057612da0612b53565b80851615612dad57918102915b93841c9390800290612d84565b509250929050565b600082612dd15750600161175e565b81612dde5750600061175e565b8160018114612df45760028114612dfe57612e1a565b600191505061175e565b60ff841115612e0f57612e0f612b53565b50506001821b61175e565b5060208310610133831016604e8410600b8410161715612e3d575081810a61175e565b612e478383612d7f565b8060001904821115612e5b57612e5b612b53565b029392505050565b6000610dd18383612dc256fea164736f6c634300080a000a",
    "linkReferences": {}
  },
  "methodIdentifiers": {
    "claimAllRewardTokens(address)": "9cf1fd53",
    "claimRewardsForMarket(address,address,address[],bool[])": "4f471e6d",
    "claimRewardsForMarkets(address,address[],address[],bool[])": "8260a696",
    "claimRewardsForPool(address,address)": "3610c407",
    "claimRewardsOfRewardToken(address,address)": "bdfc1839",
    "fpd()": "de858c63",
    "getAllRewardTokens()": "12edb24c",
    "getMarketRewardsInfo(address[])": "7e70aa49",
    "getPoolMarketRewardsInfo(address)": "d1040bae"
  }
}