{
  "address": "0x7bD9B4F093dA76D5ACe516c49c01968C1daC1AF7",
  "abi": [
    {
      "anonymous": false,
      "inputs": [
        {
          "indexed": false,
          "internalType": "string",
          "name": "",
          "type": "string"
        }
      ],
      "name": "log",
      "type": "event"
    },
    {
      "anonymous": false,
      "inputs": [
        {
          "indexed": false,
          "internalType": "uint256",
          "name": "",
          "type": "uint256"
        }
      ],
      "name": "log_uint",
      "type": "event"
    },
    {
      "inputs": [
        {
          "internalType": "contract IComptroller",
          "name": "comptroller",
          "type": "address"
        }
      ],
      "name": "getMarketRewardsInfo",
      "outputs": [
        {
          "components": [
            {
              "internalType": "uint256",
              "name": "underlyingPrice",
              "type": "uint256"
            },
            {
              "internalType": "contract CErc20Token",
              "name": "market",
              "type": "address"
            },
            {
              "components": [
                {
                  "internalType": "uint256",
                  "name": "rewardSpeedPerSecondPerToken",
                  "type": "uint256"
                },
                {
                  "internalType": "uint256",
                  "name": "rewardTokenPrice",
                  "type": "uint256"
                },
                {
                  "internalType": "uint256",
                  "name": "formattedAPR",
                  "type": "uint256"
                },
                {
                  "internalType": "address",
                  "name": "flywheel",
                  "type": "address"
                },
                {
                  "internalType": "address",
                  "name": "rewardToken",
                  "type": "address"
                }
              ],
              "internalType": "struct MidasFlywheelLensRouter.RewardsInfo[]",
              "name": "rewardsInfo",
              "type": "tuple[]"
            }
          ],
          "internalType": "struct MidasFlywheelLensRouter.MarketRewardsInfo[]",
          "name": "",
          "type": "tuple[]"
        }
      ],
      "stateMutability": "nonpayable",
      "type": "function"
    },
    {
      "inputs": [
        {
          "internalType": "address",
          "name": "user",
          "type": "address"
        },
        {
          "internalType": "contract CErc20Token[]",
          "name": "markets",
          "type": "address[]"
        },
        {
          "internalType": "contract MidasFlywheelCore[]",
          "name": "flywheels",
          "type": "address[]"
        },
        {
          "internalType": "bool[]",
          "name": "accrue",
          "type": "bool[]"
        }
      ],
      "name": "getUnclaimedRewardsByMarkets",
      "outputs": [
        {
          "internalType": "uint256[]",
          "name": "rewards",
          "type": "uint256[]"
        }
      ],
      "stateMutability": "nonpayable",
      "type": "function"
    },
    {
      "inputs": [
        {
          "internalType": "address",
          "name": "user",
          "type": "address"
        },
        {
          "internalType": "contract ERC20",
          "name": "market",
          "type": "address"
        },
        {
          "internalType": "contract MidasFlywheelCore[]",
          "name": "flywheels",
          "type": "address[]"
        },
        {
          "internalType": "bool[]",
          "name": "accrue",
          "type": "bool[]"
        }
      ],
      "name": "getUnclaimedRewardsForMarket",
      "outputs": [
        {
          "internalType": "uint256[]",
          "name": "rewards",
          "type": "uint256[]"
        }
      ],
      "stateMutability": "nonpayable",
      "type": "function"
    }
  ],
  "transactionHash": "0xbcde467e34c99464b671db21ee530e1df95e5bede3b906755fa9c797f1349157",
  "args": [],
  "numDeployments": 3,
  "bytecode": {
    "object": "0x608060405234801561001057600080fd5b50611a1c806100206000396000f3fe608060405234801561001057600080fd5b50600436106100415760003560e01c80630bd96f4814610046578063193bd4481461006f578063c8a6da191461008f575b600080fd5b6100596100543660046112fa565b6100a2565b604051610066919061138e565b60405180910390f35b61008261007d3660046113d2565b610360565b60405161006691906113f6565b61005961009d3660046114d4565b610c49565b606083806001600160401b038111156100bd576100bd611580565b6040519080825280602002602001820160405280156100e6578160200160208202803683370190505b50915060005b8181101561035457600085858381811061010857610108611596565b905060200201602081019061011d91906115ac565b156101c65787878381811061013457610134611596565b905060200201602081019061014991906113d2565b604051632e6f912b60e21b81526001600160a01b038b811660048301528c81166024830152919091169063b9be44ac906044016020604051808303816000875af115801561019b573d6000803e3d6000fd5b505050506040513d601f19601f820116820180604052508101906101bf91906115ce565b905061025c565b8787838181106101d8576101d8611596565b90506020020160208101906101ed91906113d2565b604051630ff6b5a760e31b81526001600160a01b038c811660048301529190911690637fb5ad3890602401602060405180830381865afa158015610235573d6000803e3d6000fd5b505050506040513d601f19601f8201168201806040525081019061025991906115ce565b90505b8084838151811061026f5761026f611596565b60200260200101511015610283578061029e565b83828151811061029557610295611596565b60200260200101515b8483815181106102b0576102b0611596565b6020026020010181815250508787838181106102ce576102ce611596565b90506020020160208101906102e391906113d2565b604051633bd73ee360e21b81526001600160a01b038c81166004830152919091169063ef5cfb8c90602401600060405180830381600087803b15801561032857600080fd5b505af115801561033c573d6000803e3d6000fd5b5050505050808061034c906115fd565b9150506100ec565b50509695505050505050565b60606000826001600160a01b031663b0772d0b6040518163ffffffff1660e01b8152600401600060405180830381865afa1580156103a2573d6000803e3d6000fd5b505050506040513d6000823e601f3d908101601f191682016040526103ca919081019061166b565b90506000836001600160a01b0316633605b51b6040518163ffffffff1660e01b8152600401600060405180830381865afa15801561040c573d6000803e3d6000fd5b505050506040513d6000823e601f3d908101601f191682016040526104349190810190611709565b9050600081516001600160401b0381111561045157610451611580565b60405190808252806020026020018201604052801561047a578160200160208202803683370190505b509050600082516001600160401b0381111561049857610498611580565b6040519080825280602002602001820160405280156104c1578160200160208202803683370190505b5090506000866001600160a01b0316637dc0d1d06040518163ffffffff1660e01b8152600401602060405180830381865afa158015610504573d6000803e3d6000fd5b505050506040513d601f19601f820116820180604052508101906105289190611797565b9050600085516001600160401b0381111561054557610545611580565b60405190808252806020026020018201604052801561059257816020015b604080516060808201835260008083526020830152918101919091528152602001906001900390816105635790505b50905060005b8651811015610c3d57600086516001600160401b038111156105bc576105bc611580565b60405190808252806020026020018201604052801561063157816020015b61061e6040518060a0016040528060008152602001600081526020016000815260200160006001600160a01b0316815260200160006001600160a01b031681525090565b8152602001906001900390816105da5790505b509050600088838151811061064857610648611596565b602002602001015190506000856001600160a01b031663aea91078836001600160a01b0316636f307dc36040518163ffffffff1660e01b8152600401602060405180830381865afa1580156106a1573d6000803e3d6000fd5b505050506040513d601f19601f820116820180604052508101906106c59190611797565b6040516001600160e01b031960e084901b1681526001600160a01b039091166004820152602401602060405180830381865afa158015610709573d6000803e3d6000fd5b505050506040513d601f19601f8201168201806040525081019061072d91906115ce565b905060005b8951811015610be55760008a828151811061074f5761074f611596565b602002602001015190508560001415610874576000816001600160a01b031663f7c618c16040518163ffffffff1660e01b8152600401602060405180830381865afa1580156107a2573d6000803e3d6000fd5b505050506040513d601f19601f820116820180604052508101906107c69190611797565b9050808b84815181106107db576107db611596565b6001600160a01b0392831660209182029290920101526040516315d5220f60e31b81528282166004820152908a169063aea9107890602401602060405180830381865afa158015610830573d6000803e3d6000fd5b505050506040513d601f19601f8201168201806040525081019061085491906115ce565b8a848151811061086657610866611596565b602002602001018181525050505b60405163dde684a560e01b81526001600160a01b038581166004830152600091829182919085169063dde684a5906024016040805180830381865afa1580156108c1573d6000803e3d6000fd5b505050506040513d601f19601f820116820180604052508101906108e591906117b4565b604051632e6f912b60e21b81526001600160a01b038a81166004830152600060248301529294509092509085169063b9be44ac906044016020604051808303816000875af115801561093b573d6000803e3d6000fd5b505050506040513d601f19601f8201168201806040525081019061095f91906115ce565b5060405163dde684a560e01b81526001600160a01b038881166004830152600091829187169063dde684a5906024016040805180830381865afa1580156109aa573d6000803e3d6000fd5b505050506040513d601f19601f820116820180604052508101906109ce91906117b4565b915091508263ffffffff168163ffffffff161115610a16576109f08382611803565b63ffffffff16610a008584611828565b610a0a919061185e565b6001600160e01b031694505b505050506000610aa4828c8681518110610a3257610a32611596565b602002602001015187896001600160a01b031663bd6d894d6040518163ffffffff1660e01b81526004016020604051808303816000875af1158015610a7b573d6000803e3d6000fd5b505050506040513d601f19601f82011682018060405250810190610a9f91906115ce565b610f45565b90506040518060a001604052808381526020018c8681518110610ac957610ac9611596565b602002602001015181526020018d8681518110610ae857610ae8611596565b60200260200101516001600160a01b031663313ce5676040518163ffffffff1660e01b8152600401602060405180830381865afa158015610b2d573d6000803e3d6000fd5b505050506040513d601f19601f82011682018060405250810190610b519190611884565b610b5c90600a61198d565b610b6e84670de0b6b3a764000061199c565b610b7891906119bb565b8152602001846001600160a01b031681526020018d8681518110610b9e57610b9e611596565b60200260200101516001600160a01b0316815250878581518110610bc457610bc4611596565b60200260200101819052505050508080610bdd906115fd565b915050610732565b506040518060600160405280828152602001836001600160a01b0316815260200184815250858581518110610c1c57610c1c611596565b60200260200101819052505050508080610c35906115fd565b915050610598565b50979650505050505050565b6060836001600160401b03811115610c6357610c63611580565b604051908082528060200260200182016040528015610c8c578160200160208202803683370190505b50905060005b84811015610c3d5760005b87811015610ead576000898983818110610cb957610cb9611596565b9050602002016020810190610cce91906113d2565b90506000868685818110610ce457610ce4611596565b9050602002016020810190610cf991906115ac565b15610da257888885818110610d1057610d10611596565b9050602002016020810190610d2591906113d2565b604051632e6f912b60e21b81526001600160a01b0384811660048301528e81166024830152919091169063b9be44ac906044016020604051808303816000875af1158015610d77573d6000803e3d6000fd5b505050506040513d601f19601f82011682018060405250810190610d9b91906115ce565b9050610e38565b888885818110610db457610db4611596565b9050602002016020810190610dc991906113d2565b604051630ff6b5a760e31b81526001600160a01b038e811660048301529190911690637fb5ad3890602401602060405180830381865afa158015610e11573d6000803e3d6000fd5b505050506040513d601f19601f82011682018060405250810190610e3591906115ce565b90505b80858581518110610e4b57610e4b611596565b60200260200101511015610e5f5780610e7a565b848481518110610e7157610e71611596565b60200260200101515b858581518110610e8c57610e8c611596565b60200260200101818152505050508080610ea5906115fd565b915050610c9d565b50858582818110610ec057610ec0611596565b9050602002016020810190610ed591906113d2565b604051633bd73ee360e21b81526001600160a01b038b81166004830152919091169063ef5cfb8c90602401600060405180830381600087803b158015610f1a57600080fd5b505af1158015610f2e573d6000803e3d6000fd5b505050508080610f3d906115fd565b915050610c92565b60006000805160206119d0833981519152604051610f6e90602080825260009082015260400190565b60405180910390a16000805160206119d0833981519152604051610fc3906020808252601c908201527f72657761726453706565645065725365636f6e64506572546f6b656e00000000604082015260600190565b60405180910390a16040518581526000805160206119f08339815191529060200160405180910390a16000610ff8858761199c565b90506000805160206119d0833981519152604051611047906020808252601d908201527f6e617469766553706565645065725365636f6e6450657243546f6b656e000000604082015260600190565b60405180910390a16040518181526000805160206119f08339815191529060200160405180910390a16000611080826301e187e061199c565b90506000805160206119d08339815191526040516110cf906020808252601b908201527f6e617469766553706565645065725965617250657243546f6b656e0000000000604082015260600190565b60405180910390a16040518181526000805160206119f08339815191529060200160405180910390a1600061110486836119bb565b90506000805160206119d0833981519152604051611153906020808252601a908201527f617373657453706565645065725965617250657243546f6b656e000000000000604082015260600190565b60405180910390a16040518181526000805160206119f08339815191529060200160405180910390a1600061119082670de0b6b3a764000061199c565b90506000805160206119d08339815191526040516111dd906020808252818101527f617373657453706565645065725965617250657243546f6b656e5363616c6564604082015260600190565b60405180910390a16040518181526000805160206119f08339815191529060200160405180910390a1600061121287836119bb565b90506000805160206119d08339815191526040516112619060208082526019908201527f617072496e52657761726473546f6b656e446563696d616c7300000000000000604082015260600190565b60405180910390a16040518181526000805160206119f08339815191529060200160405180910390a19998505050505050505050565b6001600160a01b03811681146112ac57600080fd5b50565b60008083601f8401126112c157600080fd5b5081356001600160401b038111156112d857600080fd5b6020830191508360208260051b85010111156112f357600080fd5b9250929050565b6000806000806000806080878903121561131357600080fd5b863561131e81611297565b9550602087013561132e81611297565b945060408701356001600160401b038082111561134a57600080fd5b6113568a838b016112af565b9096509450606089013591508082111561136f57600080fd5b5061137c89828a016112af565b979a9699509497509295939492505050565b6020808252825182820181905260009190848201906040850190845b818110156113c6578351835292840192918401916001016113aa565b50909695505050505050565b6000602082840312156113e457600080fd5b81356113ef81611297565b9392505050565b60006020808301818452808551808352604092508286019150828160051b87010184880160005b838110156114c657888303603f19018552815180518452878101516001600160a01b03908116898601529087015160608886018190528151818701819052918a019290916080918288019160005b818110156114ae578651805185528e8101518f8601528d8101518e86015286810151841687860152850151831685850152958d019560a09093019260010161146b565b505050978a019795505050918701915060010161141d565b509098975050505050505050565b60008060008060008060006080888a0312156114ef57600080fd5b87356114fa81611297565b965060208801356001600160401b038082111561151657600080fd5b6115228b838c016112af565b909850965060408a013591508082111561153b57600080fd5b6115478b838c016112af565b909650945060608a013591508082111561156057600080fd5b5061156d8a828b016112af565b989b979a50959850939692959293505050565b634e487b7160e01b600052604160045260246000fd5b634e487b7160e01b600052603260045260246000fd5b6000602082840312156115be57600080fd5b813580151581146113ef57600080fd5b6000602082840312156115e057600080fd5b5051919050565b634e487b7160e01b600052601160045260246000fd5b6000600019821415611611576116116115e7565b5060010190565b604051601f8201601f191681016001600160401b038111828210171561164057611640611580565b604052919050565b60006001600160401b0382111561166157611661611580565b5060051b60200190565b6000602080838503121561167e57600080fd5b82516001600160401b0381111561169457600080fd5b8301601f810185136116a557600080fd5b80516116b86116b382611648565b611618565b81815260059190911b820183019083810190878311156116d757600080fd5b928401925b828410156116fe5783516116ef81611297565b825292840192908401906116dc565b979650505050505050565b6000602080838503121561171c57600080fd5b82516001600160401b0381111561173257600080fd5b8301601f8101851361174357600080fd5b80516117516116b382611648565b81815260059190911b8201830190838101908783111561177057600080fd5b928401925b828410156116fe57835161178881611297565b82529284019290840190611775565b6000602082840312156117a957600080fd5b81516113ef81611297565b600080604083850312156117c757600080fd5b82516001600160e01b03811681146117de57600080fd5b602084015190925063ffffffff811681146117f857600080fd5b809150509250929050565b600063ffffffff83811690831681811015611820576118206115e7565b039392505050565b60006001600160e01b0383811690831681811015611820576118206115e7565b634e487b7160e01b600052601260045260246000fd5b60006001600160e01b038381168061187857611878611848565b92169190910492915050565b60006020828403121561189657600080fd5b815160ff811681146113ef57600080fd5b600181815b808511156118e25781600019048211156118c8576118c86115e7565b808516156118d557918102915b93841c93908002906118ac565b509250929050565b6000826118f957506001611987565b8161190657506000611987565b816001811461191c576002811461192657611942565b6001915050611987565b60ff841115611937576119376115e7565b50506001821b611987565b5060208310610133831016604e8410600b8410161715611965575081810a611987565b61196f83836118a7565b8060001904821115611983576119836115e7565b0290505b92915050565b60006113ef60ff8416836118ea565b60008160001904831182151516156119b6576119b66115e7565b500290565b6000826119ca576119ca611848565b50049056fe41304facd9323d75b11bcdd609cb38effffdb05710f7caf0e9b16c6d9d709f502cab9790510fd8bdfbd2115288db33fec66691d476efc5427cfd4c0969301755a164736f6c634300080a000a",
    "linkReferences": {}
  },
  "methodIdentifiers": {
    "getMarketRewardsInfo(address)": "193bd448",
    "getUnclaimedRewardsByMarkets(address,address[],address[],bool[])": "c8a6da19",
    "getUnclaimedRewardsForMarket(address,address,address[],bool[])": "0bd96f48"
  }
}