{
  "address": "0x9E13EAEe1f5EA8D57Da8Beb45AECF31832B6577a",
  "abi": [
    {
      "anonymous": false,
      "inputs": [
        {
          "indexed": false,
          "internalType": "string",
          "name": "",
          "type": "string"
        }
      ],
      "name": "log",
      "type": "event"
    },
    {
      "anonymous": false,
      "inputs": [
        {
          "indexed": false,
          "internalType": "uint256",
          "name": "",
          "type": "uint256"
        }
      ],
      "name": "log_uint",
      "type": "event"
    },
    {
      "inputs": [
        {
          "internalType": "contract IComptroller",
          "name": "comptroller",
          "type": "address"
        }
      ],
      "name": "getMarketRewardsInfo",
      "outputs": [
        {
          "components": [
            {
              "internalType": "uint256",
              "name": "underlyingPrice",
              "type": "uint256"
            },
            {
              "internalType": "contract CErc20Token",
              "name": "market",
              "type": "address"
            },
            {
              "components": [
                {
                  "internalType": "uint256",
                  "name": "rewardSpeedPerSecondPerToken",
                  "type": "uint256"
                },
                {
                  "internalType": "uint256",
                  "name": "rewardTokenPrice",
                  "type": "uint256"
                },
                {
                  "internalType": "uint256",
                  "name": "formattedAPR",
                  "type": "uint256"
                },
                {
                  "internalType": "address",
                  "name": "flywheel",
                  "type": "address"
                },
                {
                  "internalType": "address",
                  "name": "rewardToken",
                  "type": "address"
                }
              ],
              "internalType": "struct MidasFlywheelLensRouter.RewardsInfo[]",
              "name": "rewardsInfo",
              "type": "tuple[]"
            }
          ],
          "internalType": "struct MidasFlywheelLensRouter.MarketRewardsInfo[]",
          "name": "",
          "type": "tuple[]"
        }
      ],
      "stateMutability": "nonpayable",
      "type": "function"
    },
    {
      "inputs": [
        {
          "internalType": "address",
          "name": "user",
          "type": "address"
        },
        {
          "internalType": "contract CErc20Token[]",
          "name": "markets",
          "type": "address[]"
        },
        {
          "internalType": "contract MidasFlywheelCore[]",
          "name": "flywheels",
          "type": "address[]"
        },
        {
          "internalType": "bool[]",
          "name": "accrue",
          "type": "bool[]"
        }
      ],
      "name": "getUnclaimedRewardsByMarkets",
      "outputs": [
        {
          "internalType": "uint256[]",
          "name": "rewards",
          "type": "uint256[]"
        }
      ],
      "stateMutability": "nonpayable",
      "type": "function"
    },
    {
      "inputs": [
        {
          "internalType": "address",
          "name": "user",
          "type": "address"
        },
        {
          "internalType": "contract ERC20",
          "name": "market",
          "type": "address"
        },
        {
          "internalType": "contract MidasFlywheelCore[]",
          "name": "flywheels",
          "type": "address[]"
        },
        {
          "internalType": "bool[]",
          "name": "accrue",
          "type": "bool[]"
        }
      ],
      "name": "getUnclaimedRewardsForMarket",
      "outputs": [
        {
          "internalType": "uint256[]",
          "name": "rewards",
          "type": "uint256[]"
        }
      ],
      "stateMutability": "nonpayable",
      "type": "function"
    }
  ],
  "transactionHash": "0x3d5c84f66dc5bcc55624b842042859579d5e4c5d4cf2a40cd22bbc94097e3097",
  "args": [],
  "numDeployments": 4,
  "bytecode": {
    "object": "0x608060405234801561001057600080fd5b506117ee806100206000396000f3fe608060405234801561001057600080fd5b50600436106100415760003560e01c80630bd96f4814610046578063193bd4481461006f578063c8a6da191461008f575b600080fd5b610059610054366004611194565b6100a2565b6040516100669190611229565b60405180910390f35b61008261007d36600461126d565b610361565b6040516100669190611291565b61005961009d36600461136f565b610c33565b6060838067ffffffffffffffff8111156100be576100be61141c565b6040519080825280602002602001820160405280156100e7578160200160208202803683370190505b50915060005b8181101561035557600085858381811061010957610109611432565b905060200201602081019061011e9190611448565b156101c75787878381811061013557610135611432565b905060200201602081019061014a919061126d565b604051632e6f912b60e21b81526001600160a01b038b811660048301528c81166024830152919091169063b9be44ac906044016020604051808303816000875af115801561019c573d6000803e3d6000fd5b505050506040513d601f19601f820116820180604052508101906101c0919061146a565b905061025d565b8787838181106101d9576101d9611432565b90506020020160208101906101ee919061126d565b604051630ff6b5a760e31b81526001600160a01b038c811660048301529190911690637fb5ad3890602401602060405180830381865afa158015610236573d6000803e3d6000fd5b505050506040513d601f19601f8201168201806040525081019061025a919061146a565b90505b8084838151811061027057610270611432565b60200260200101511015610284578061029f565b83828151811061029657610296611432565b60200260200101515b8483815181106102b1576102b1611432565b6020026020010181815250508787838181106102cf576102cf611432565b90506020020160208101906102e4919061126d565b604051633bd73ee360e21b81526001600160a01b038c81166004830152919091169063ef5cfb8c90602401600060405180830381600087803b15801561032957600080fd5b505af115801561033d573d6000803e3d6000fd5b5050505050808061034d90611499565b9150506100ed565b50509695505050505050565b60606000826001600160a01b031663b0772d0b6040518163ffffffff1660e01b8152600401600060405180830381865afa1580156103a3573d6000803e3d6000fd5b505050506040513d6000823e601f3d908101601f191682016040526103cb91908101906114c4565b905060006103d884610f30565b90506000815167ffffffffffffffff8111156103f6576103f661141c565b60405190808252806020026020018201604052801561041f578160200160208202803683370190505b5090506000825167ffffffffffffffff81111561043e5761043e61141c565b604051908082528060200260200182016040528015610467578160200160208202803683370190505b5090506000866001600160a01b0316637dc0d1d06040518163ffffffff1660e01b8152600401602060405180830381865afa1580156104aa573d6000803e3d6000fd5b505050506040513d601f19601f820116820180604052508101906104ce9190611589565b90506000855167ffffffffffffffff8111156104ec576104ec61141c565b60405190808252806020026020018201604052801561053957816020015b6040805160608082018352600080835260208301529181019190915281526020019060019003908161050a5790505b50905060005b8651811015610c27576000865167ffffffffffffffff8111156105645761056461141c565b6040519080825280602002602001820160405280156105d957816020015b6105c66040518060a0016040528060008152602001600081526020016000815260200160006001600160a01b0316815260200160006001600160a01b031681525090565b8152602001906001900390816105825790505b50905060008883815181106105f0576105f0611432565b602002602001015190506000856001600160a01b031663aea91078836001600160a01b0316636f307dc36040518163ffffffff1660e01b8152600401602060405180830381865afa158015610649573d6000803e3d6000fd5b505050506040513d601f19601f8201168201806040525081019061066d9190611589565b6040516001600160e01b031960e084901b1681526001600160a01b039091166004820152602401602060405180830381865afa1580156106b1573d6000803e3d6000fd5b505050506040513d601f19601f820116820180604052508101906106d5919061146a565b9050836108255760005b89518110156108235760008a82815181106106fc576106fc611432565b60200260200101516001600160a01b031663f7c618c16040518163ffffffff1660e01b8152600401602060405180830381865afa158015610741573d6000803e3d6000fd5b505050506040513d601f19601f820116820180604052508101906107659190611589565b9050808a838151811061077a5761077a611432565b6001600160a01b0392831660209182029290920101526040516315d5220f60e31b815282821660048201529089169063aea9107890602401602060405180830381865afa1580156107cf573d6000803e3d6000fd5b505050506040513d601f19601f820116820180604052508101906107f3919061146a565b89838151811061080557610805611432565b6020908102919091010152508061081b81611499565b9150506106df565b505b60005b8951811015610bcf5760008a828151811061084557610845611432565b602002602001015190506000806000836001600160a01b031663dde684a5886040518263ffffffff1660e01b815260040161088f91906001600160a01b0391909116815260200190565b6040805180830381865afa1580156108ab573d6000803e3d6000fd5b505050506040513d601f19601f820116820180604052508101906108cf91906115a6565b604051632e6f912b60e21b81526001600160a01b038a81166004830152600060248301529294509092509085169063b9be44ac906044016020604051808303816000875af1158015610925573d6000803e3d6000fd5b505050506040513d601f19601f82011682018060405250810190610949919061146a565b5060405163dde684a560e01b81526001600160a01b038881166004830152600091829187169063dde684a5906024016040805180830381865afa158015610994573d6000803e3d6000fd5b505050506040513d601f19601f820116820180604052508101906109b891906115a6565b915091508263ffffffff168163ffffffff161115610a00576109da83826115f5565b63ffffffff166109ea858461161a565b6109f49190611650565b6001600160e01b031694505b505050506000610a8e828c8681518110610a1c57610a1c611432565b602002602001015187896001600160a01b031663bd6d894d6040518163ffffffff1660e01b81526004016020604051808303816000875af1158015610a65573d6000803e3d6000fd5b505050506040513d601f19601f82011682018060405250810190610a89919061146a565b6110c1565b90506040518060a001604052808381526020018c8681518110610ab357610ab3611432565b602002602001015181526020018d8681518110610ad257610ad2611432565b60200260200101516001600160a01b031663313ce5676040518163ffffffff1660e01b8152600401602060405180830381865afa158015610b17573d6000803e3d6000fd5b505050506040513d601f19601f82011682018060405250810190610b3b9190611676565b610b4690600a61177f565b610b5884670de0b6b3a764000061178e565b610b6291906117ad565b8152602001846001600160a01b031681526020018d8681518110610b8857610b88611432565b60200260200101516001600160a01b0316815250878581518110610bae57610bae611432565b60200260200101819052505050508080610bc790611499565b915050610828565b506040518060600160405280828152602001836001600160a01b0316815260200184815250858581518110610c0657610c06611432565b60200260200101819052505050508080610c1f90611499565b91505061053f565b50979650505050505050565b60608367ffffffffffffffff811115610c4e57610c4e61141c565b604051908082528060200260200182016040528015610c77578160200160208202803683370190505b50905060005b84811015610c275760005b87811015610e98576000898983818110610ca457610ca4611432565b9050602002016020810190610cb9919061126d565b90506000868685818110610ccf57610ccf611432565b9050602002016020810190610ce49190611448565b15610d8d57888885818110610cfb57610cfb611432565b9050602002016020810190610d10919061126d565b604051632e6f912b60e21b81526001600160a01b0384811660048301528e81166024830152919091169063b9be44ac906044016020604051808303816000875af1158015610d62573d6000803e3d6000fd5b505050506040513d601f19601f82011682018060405250810190610d86919061146a565b9050610e23565b888885818110610d9f57610d9f611432565b9050602002016020810190610db4919061126d565b604051630ff6b5a760e31b81526001600160a01b038e811660048301529190911690637fb5ad3890602401602060405180830381865afa158015610dfc573d6000803e3d6000fd5b505050506040513d601f19601f82011682018060405250810190610e20919061146a565b90505b80858581518110610e3657610e36611432565b60200260200101511015610e4a5780610e65565b848481518110610e5c57610e5c611432565b60200260200101515b858581518110610e7757610e77611432565b60200260200101818152505050508080610e9090611499565b915050610c88565b50858582818110610eab57610eab611432565b9050602002016020810190610ec0919061126d565b604051633bd73ee360e21b81526001600160a01b038b81166004830152919091169063ef5cfb8c90602401600060405180830381600087803b158015610f0557600080fd5b505af1158015610f19573d6000803e3d6000fd5b505050508080610f2890611499565b915050610c7d565b606060005b60405163c6c5b0dd60e01b815260ff821660048201526001600160a01b0384169063c6c5b0dd90602401602060405180830381865afa925050508015610f98575060408051601f3d908101601f19168201909252610f9591810190611589565b60015b610fa157610fb4565b5080610fac816117c1565b915050610f35565b60008160ff1667ffffffffffffffff811115610fd257610fd261141c565b604051908082528060200260200182016040528015610ffb578160200160208202803683370190505b50905060005b8260ff168160ff1610156110b95760405163c6c5b0dd60e01b815260ff821660048201526001600160a01b0386169063c6c5b0dd90602401602060405180830381865afa158015611056573d6000803e3d6000fd5b505050506040513d601f19601f8201168201806040525081019061107a9190611589565b828260ff168151811061108f5761108f611432565b6001600160a01b0390921660209283029190910190910152806110b1816117c1565b915050611001565b509392505050565b6000846110d057506000611128565b60006110dc858761178e565b905060006110ee826301e187e061178e565b905060006110fc86836117ad565b9050600061111282670de0b6b3a764000061178e565b9050600061112087836117ad565b955050505050505b949350505050565b6001600160a01b038116811461114557600080fd5b50565b60008083601f84011261115a57600080fd5b50813567ffffffffffffffff81111561117257600080fd5b6020830191508360208260051b850101111561118d57600080fd5b9250929050565b600080600080600080608087890312156111ad57600080fd5b86356111b881611130565b955060208701356111c881611130565b9450604087013567ffffffffffffffff808211156111e557600080fd5b6111f18a838b01611148565b9096509450606089013591508082111561120a57600080fd5b5061121789828a01611148565b979a9699509497509295939492505050565b6020808252825182820181905260009190848201906040850190845b8181101561126157835183529284019291840191600101611245565b50909695505050505050565b60006020828403121561127f57600080fd5b813561128a81611130565b9392505050565b60006020808301818452808551808352604092508286019150828160051b87010184880160005b8381101561136157888303603f19018552815180518452878101516001600160a01b03908116898601529087015160608886018190528151818701819052918a019290916080918288019160005b81811015611349578651805185528e8101518f8601528d8101518e86015286810151841687860152850151831685850152958d019560a090930192600101611306565b505050978a01979550505091870191506001016112b8565b509098975050505050505050565b60008060008060008060006080888a03121561138a57600080fd5b873561139581611130565b9650602088013567ffffffffffffffff808211156113b257600080fd5b6113be8b838c01611148565b909850965060408a01359150808211156113d757600080fd5b6113e38b838c01611148565b909650945060608a01359150808211156113fc57600080fd5b506114098a828b01611148565b989b979a50959850939692959293505050565b634e487b7160e01b600052604160045260246000fd5b634e487b7160e01b600052603260045260246000fd5b60006020828403121561145a57600080fd5b8135801515811461128a57600080fd5b60006020828403121561147c57600080fd5b5051919050565b634e487b7160e01b600052601160045260246000fd5b60006000198214156114ad576114ad611483565b5060010190565b80516114bf81611130565b919050565b600060208083850312156114d757600080fd5b825167ffffffffffffffff808211156114ef57600080fd5b818501915085601f83011261150357600080fd5b8151818111156115155761151561141c565b8060051b604051601f19603f8301168101818110858211171561153a5761153a61141c565b60405291825284820192508381018501918883111561155857600080fd5b938501935b8285101561157d5761156e856114b4565b8452938501939285019261155d565b98975050505050505050565b60006020828403121561159b57600080fd5b815161128a81611130565b600080604083850312156115b957600080fd5b82516001600160e01b03811681146115d057600080fd5b602084015190925063ffffffff811681146115ea57600080fd5b809150509250929050565b600063ffffffff8381169083168181101561161257611612611483565b039392505050565b60006001600160e01b038381169083168181101561161257611612611483565b634e487b7160e01b600052601260045260246000fd5b60006001600160e01b038381168061166a5761166a61163a565b92169190910492915050565b60006020828403121561168857600080fd5b815160ff8116811461128a57600080fd5b600181815b808511156116d45781600019048211156116ba576116ba611483565b808516156116c757918102915b93841c939080029061169e565b509250929050565b6000826116eb57506001611779565b816116f857506000611779565b816001811461170e576002811461171857611734565b6001915050611779565b60ff84111561172957611729611483565b50506001821b611779565b5060208310610133831016604e8410600b8410161715611757575081810a611779565b6117618383611699565b806000190482111561177557611775611483565b0290505b92915050565b600061128a60ff8416836116dc565b60008160001904831182151516156117a8576117a8611483565b500290565b6000826117bc576117bc61163a565b500490565b600060ff821660ff8114156117d8576117d8611483565b6001019291505056fea164736f6c634300080a000a",
    "linkReferences": {}
  },
  "methodIdentifiers": {
    "getMarketRewardsInfo(address)": "193bd448",
    "getUnclaimedRewardsByMarkets(address,address[],address[],bool[])": "c8a6da19",
    "getUnclaimedRewardsForMarket(address,address,address[],bool[])": "0bd96f48"
  }
}