{
  "address": "0xD50fEDDAa25cE334476F8D3F0dafEea0dEb57021",
  "abi": [
    {
      "inputs": [
        {
          "internalType": "contract FlywheelCore",
          "name": "_replacedFlywheel",
          "type": "address"
        },
        {
          "internalType": "contract FlywheelCore",
          "name": "_flywheel",
          "type": "address"
        },
        {
          "internalType": "uint32",
          "name": "_cycleLength",
          "type": "uint32"
        }
      ],
      "stateMutability": "nonpayable",
      "type": "constructor"
    },
    {
      "inputs": [],
      "name": "FlywheelError",
      "type": "error"
    },
    {
      "anonymous": false,
      "inputs": [
        {
          "indexed": true,
          "internalType": "uint32",
          "name": "start",
          "type": "uint32"
        },
        {
          "indexed": true,
          "internalType": "uint32",
          "name": "end",
          "type": "uint32"
        },
        {
          "indexed": false,
          "internalType": "uint192",
          "name": "reward",
          "type": "uint192"
        }
      ],
      "name": "NewRewardsCycle",
      "type": "event"
    },
    {
      "inputs": [],
      "name": "flywheel",
      "outputs": [
        {
          "internalType": "contract FlywheelCore",
          "name": "",
          "type": "address"
        }
      ],
      "stateMutability": "view",
      "type": "function"
    },
    {
      "inputs": [
        {
          "internalType": "contract ERC20",
          "name": "strategy",
          "type": "address"
        },
        {
          "internalType": "uint32",
          "name": "lastUpdatedTimestamp",
          "type": "uint32"
        }
      ],
      "name": "getAccruedRewards",
      "outputs": [
        {
          "internalType": "uint256",
          "name": "amount",
          "type": "uint256"
        }
      ],
      "stateMutability": "nonpayable",
      "type": "function"
    },
    {
      "inputs": [],
      "name": "replacedFlywheel",
      "outputs": [
        {
          "internalType": "contract FlywheelCore",
          "name": "",
          "type": "address"
        }
      ],
      "stateMutability": "view",
      "type": "function"
    },
    {
      "inputs": [],
      "name": "rewardToken",
      "outputs": [
        {
          "internalType": "contract ERC20",
          "name": "",
          "type": "address"
        }
      ],
      "stateMutability": "view",
      "type": "function"
    },
    {
      "inputs": [
        {
          "internalType": "contract ERC20",
          "name": "",
          "type": "address"
        }
      ],
      "name": "rewardsCycle",
      "outputs": [
        {
          "internalType": "uint32",
          "name": "start",
          "type": "uint32"
        },
        {
          "internalType": "uint32",
          "name": "end",
          "type": "uint32"
        },
        {
          "internalType": "uint192",
          "name": "reward",
          "type": "uint192"
        }
      ],
      "stateMutability": "view",
      "type": "function"
    },
    {
      "inputs": [],
      "name": "rewardsCycleLength",
      "outputs": [
        {
          "internalType": "uint32",
          "name": "",
          "type": "uint32"
        }
      ],
      "stateMutability": "view",
      "type": "function"
    }
  ],
  "transactionHash": "0xe9026894800cbf4a7381e6b03fe46b024b965520387045ae94df00cf9cd42cf1",
  "args": [
    "0x0000000000000000000000000000000000000000",
    "0x752957511af9092Ce3fcD8d2e70256Cf0d75bF88",
    1
  ],
  "numDeployments": 2,
  "bytecode": {
    "object": "0x60e060405234801561001057600080fd5b50604051610bce380380610bce83398101604081905261002f916101a7565b818181806001600160a01b031660a0816001600160a01b0316815250506000816001600160a01b031663f7c618c16040518163ffffffff1660e01b8152600401602060405180830381865afa15801561008c573d6000803e3d6000fd5b505050506040513d601f19601f820116820180604052508101906100b091906101fd565b6001600160a01b03811660808190529091506100da908360001961010e602090811b6104be17901c565b505063ffffffff1660c0525050600180546001600160a01b0319166001600160a01b03939093169290921790915550610221565b600060405163095ea7b360e01b8152836004820152826024820152602060006044836000895af13d15601f3d11600160005114161716915050806101895760405162461bcd60e51b815260206004820152600e60248201526d1054141493d59157d1905253115160921b604482015260640160405180910390fd5b50505050565b6001600160a01b03811681146101a457600080fd5b50565b6000806000606084860312156101bc57600080fd5b83516101c78161018f565b60208501519093506101d88161018f565b604085015190925063ffffffff811681146101f257600080fd5b809150509250925092565b60006020828403121561020f57600080fd5b815161021a8161018f565b9392505050565b60805160a05160c05161096461026a60003960008181606c015261033e01526000818160ad01526101c00152600081816101200152818161064b01526106cd01526109646000f3fe608060405234801561001057600080fd5b50600436106100625760003560e01c80636fcf5e5f146100675780637acf5b92146100a8578063b0802e36146100e7578063b334db7b146100fa578063f7c618c11461011b578063faa6c3c814610142575b600080fd5b61008e7f000000000000000000000000000000000000000000000000000000000000000081565b60405163ffffffff90911681526020015b60405180910390f35b6100cf7f000000000000000000000000000000000000000000000000000000000000000081565b6040516001600160a01b03909116815260200161009f565b6001546100cf906001600160a01b031681565b61010d61010836600461079d565b6101b3565b60405190815260200161009f565b6100cf7f000000000000000000000000000000000000000000000000000000000000000081565b6101876101503660046107df565b60006020819052908152604090205463ffffffff80821691640100000000810490911690600160401b90046001600160c01b031683565b6040805163ffffffff94851681529390921660208401526001600160c01b03169082015260600161009f565b6000336001600160a01b037f000000000000000000000000000000000000000000000000000000000000000016146101fe5760405163739e221160e01b815260040160405180910390fd5b6001600160a01b0383166000908152602081815260408083208151606081018352905463ffffffff808216835264010000000082041693820193909352600160401b9092046001600160c01b0316908201529061025a42610540565b90506000826020015163ffffffff168263ffffffff16101561027c5781610282565b82602001515b90506000836000015163ffffffff168663ffffffff1611156102a457856102a7565b83515b9050836020015163ffffffff1660001461032357835160208501516102cc9190610819565b63ffffffff166102dc8284610819565b63ffffffff1685604001516102f1919061083e565b6102fb9190610883565b6001600160c01b0316945083604001516001600160c01b0316851115610323576103236108a9565b836020015163ffffffff168363ffffffff16106104b45760007f00000000000000000000000000000000000000000000000000000000000000008061036881876108bf565b61037291906108e7565b61037c91906108fe565b9050600061038989610557565b905060405180606001604052808663ffffffff1681526020018363ffffffff168152602001826001600160c01b03168152506000808b6001600160a01b03166001600160a01b0316815260200190815260200160002060008201518160000160006101000a81548163ffffffff021916908363ffffffff16021790555060208201518160000160046101000a81548163ffffffff021916908363ffffffff16021790555060408201518160000160086101000a8154816001600160c01b0302191690836001600160c01b031602179055509050508163ffffffff168563ffffffff167f2bc72eed7f7ea7cb3bf6969b33e204748849532a1f8e4ca68ba1bc97c4cf2e00836040516104a991906001600160c01b0391909116815260200190565b60405180910390a350505b5050505092915050565b600060405163095ea7b360e01b8152836004820152826024820152602060006044836000895af13d15601f3d116001600051141617169150508061053a5760405162461bcd60e51b815260206004820152600e60248201526d1054141493d59157d1905253115160921b60448201526064015b60405180910390fd5b50505050565b6000640100000000821061055357600080fd5b5090565b6001546000906001600160a01b031633141561057557506000919050565b816001600160a01b031663ef01df4f6040518163ffffffff1660e01b81526004016020604051808303816000875af19250505080156105d1575060408051601f3d908101601f191682019092526105ce91810190610921565b60015b6105da57610629565b806001600160a01b031663372500ab6040518163ffffffff1660e01b8152600401600060405180830381600087803b15801561061557600080fd5b505af1925050508015610626575060015b50505b6040516370a0823160e01b81526001600160a01b0383811660048301526000917f0000000000000000000000000000000000000000000000000000000000000000909116906370a0823190602401602060405180830381865afa158015610694573d6000803e3d6000fd5b505050506040513d601f19601f820116820180604052508101906106b8919061093e565b905080156106f5576106f56001600160a01b037f0000000000000000000000000000000000000000000000000000000000000000168430846106fb565b92915050565b60006040516323b872dd60e01b81528460048201528360248201528260448201526020600060648360008a5af13d15601f3d116001600051141617169150508061077e5760405162461bcd60e51b81526020600482015260146024820152731514905394d1915497d19493d357d1905253115160621b6044820152606401610531565b5050505050565b6001600160a01b038116811461079a57600080fd5b50565b600080604083850312156107b057600080fd5b82356107bb81610785565b9150602083013563ffffffff811681146107d457600080fd5b809150509250929050565b6000602082840312156107f157600080fd5b81356107fc81610785565b9392505050565b634e487b7160e01b600052601160045260246000fd5b600063ffffffff8381169083168181101561083657610836610803565b039392505050565b60006001600160c01b038281168482168115158284048211161561086457610864610803565b02949350505050565b634e487b7160e01b600052601260045260246000fd5b60006001600160c01b038381168061089d5761089d61086d565b92169190910492915050565b634e487b7160e01b600052600160045260246000fd5b600063ffffffff8083168185168083038211156108de576108de610803565b01949350505050565b600063ffffffff8084168061089d5761089d61086d565b600063ffffffff8083168185168183048111821515161561086457610864610803565b60006020828403121561093357600080fd5b81516107fc81610785565b60006020828403121561095057600080fd5b505191905056fea164736f6c634300080a000a",
    "linkReferences": {}
  },
  "methodIdentifiers": {
    "flywheel()": "7acf5b92",
    "getAccruedRewards(address,uint32)": "b334db7b",
    "replacedFlywheel()": "b0802e36",
    "rewardToken()": "f7c618c1",
    "rewardsCycle(address)": "faa6c3c8",
    "rewardsCycleLength()": "6fcf5e5f"
  }
}