{
  "address": "0x6B98340336cE524835F14d354a36ad880Ef30782",
  "abi": [
    {
      "inputs": [
        {
          "components": [
            {
              "internalType": "address",
              "name": "pair",
              "type": "address"
            },
            {
              "internalType": "address",
              "name": "baseToken",
              "type": "address"
            },
            {
              "internalType": "uint256",
              "name": "minPeriod",
              "type": "uint256"
            },
            {
              "internalType": "uint256",
              "name": "deviationThreshold",
              "type": "uint256"
            }
          ],
          "internalType": "struct UniswapTwapPriceOracleV2Resolver.PairConfig[]",
          "name": "_pairConfigs",
          "type": "tuple[]"
        },
        {
          "internalType": "contract UniswapTwapPriceOracleV2Root",
          "name": "_root",
          "type": "address"
        }
      ],
      "stateMutability": "nonpayable",
      "type": "constructor"
    },
    {
      "anonymous": false,
      "inputs": [
        {
          "indexed": true,
          "internalType": "address",
          "name": "previousOwner",
          "type": "address"
        },
        {
          "indexed": true,
          "internalType": "address",
          "name": "newOwner",
          "type": "address"
        }
      ],
      "name": "OwnershipTransferred",
      "type": "event"
    },
    {
      "inputs": [
        {
          "components": [
            {
              "internalType": "address",
              "name": "pair",
              "type": "address"
            },
            {
              "internalType": "address",
              "name": "baseToken",
              "type": "address"
            },
            {
              "internalType": "uint256",
              "name": "minPeriod",
              "type": "uint256"
            },
            {
              "internalType": "uint256",
              "name": "deviationThreshold",
              "type": "uint256"
            }
          ],
          "internalType": "struct UniswapTwapPriceOracleV2Resolver.PairConfig",
          "name": "pair",
          "type": "tuple"
        }
      ],
      "name": "addPair",
      "outputs": [],
      "stateMutability": "nonpayable",
      "type": "function"
    },
    {
      "inputs": [
        {
          "internalType": "contract UniswapTwapPriceOracleV2Root",
          "name": "_root",
          "type": "address"
        }
      ],
      "name": "changeRoot",
      "outputs": [],
      "stateMutability": "nonpayable",
      "type": "function"
    },
    {
      "inputs": [],
      "name": "checker",
      "outputs": [
        {
          "internalType": "bool",
          "name": "canExec",
          "type": "bool"
        },
        {
          "internalType": "bytes",
          "name": "execPayload",
          "type": "bytes"
        }
      ],
      "stateMutability": "view",
      "type": "function"
    },
    {
      "inputs": [],
      "name": "getWorkablePairs",
      "outputs": [
        {
          "internalType": "address[]",
          "name": "",
          "type": "address[]"
        }
      ],
      "stateMutability": "view",
      "type": "function"
    },
    {
      "inputs": [],
      "name": "lastUpdate",
      "outputs": [
        {
          "internalType": "uint256",
          "name": "",
          "type": "uint256"
        }
      ],
      "stateMutability": "view",
      "type": "function"
    },
    {
      "inputs": [],
      "name": "owner",
      "outputs": [
        {
          "internalType": "address",
          "name": "",
          "type": "address"
        }
      ],
      "stateMutability": "view",
      "type": "function"
    },
    {
      "inputs": [
        {
          "internalType": "uint256",
          "name": "index",
          "type": "uint256"
        }
      ],
      "name": "removeFromPairs",
      "outputs": [],
      "stateMutability": "nonpayable",
      "type": "function"
    },
    {
      "inputs": [],
      "name": "renounceOwnership",
      "outputs": [],
      "stateMutability": "nonpayable",
      "type": "function"
    },
    {
      "inputs": [],
      "name": "root",
      "outputs": [
        {
          "internalType": "contract UniswapTwapPriceOracleV2Root",
          "name": "",
          "type": "address"
        }
      ],
      "stateMutability": "view",
      "type": "function"
    },
    {
      "inputs": [
        {
          "internalType": "address",
          "name": "newOwner",
          "type": "address"
        }
      ],
      "name": "transferOwnership",
      "outputs": [],
      "stateMutability": "nonpayable",
      "type": "function"
    },
    {
      "inputs": [
        {
          "internalType": "address[]",
          "name": "workablePairs",
          "type": "address[]"
        }
      ],
      "name": "updatePairs",
      "outputs": [],
      "stateMutability": "nonpayable",
      "type": "function"
    }
  ],
  "transactionHash": "0xf51f1f639fccd10149e533b1d3c260cb35f5c1ed5dce52c9d8dd2313cd86db8d",
  "args": [
    [],
    "0x7645f0A9F814286857E937cB1b3fa9659B03385b"
  ],
  "numDeployments": 1,
  "bytecode": {
    "object": "0x60806040523480156200001157600080fd5b506040516200119d3803806200119d8339810160408190526200003491620002ca565b6200003f33620001db565b60005b8251811015620001b357828181518110620000615762000061620003e1565b60200260200101516000015160018281548110620000835762000083620003e1565b9060005260206000200160006101000a8154816001600160a01b0302191690836001600160a01b03160217905550828181518110620000c657620000c6620003e1565b60200260200101516020015160028281548110620000e857620000e8620003e1565b9060005260206000200160006101000a8154816001600160a01b0302191690836001600160a01b031602179055508281815181106200012b576200012b620003e1565b602002602001015160400151600382815481106200014d576200014d620003e1565b9060005260206000200181905550828181518110620001705762000170620003e1565b60200260200101516060015160048281548110620001925762000192620003e1565b60009182526020909120015580620001aa81620003f7565b91505062000042565b50600580546001600160a01b0319166001600160a01b03929092169190911790555062000421565b600080546001600160a01b038381166001600160a01b0319831681178455604051919092169283917f8be0079c531659141344cd1fd0a4f28419497f9722a3daafe3b4186f6b6457e09190a35050565b634e487b7160e01b600052604160045260246000fd5b604051608081016001600160401b03811182821017156200026657620002666200022b565b60405290565b604051601f8201601f191681016001600160401b03811182821017156200029757620002976200022b565b604052919050565b6001600160a01b0381168114620002b557600080fd5b50565b8051620002c5816200029f565b919050565b6000806040808486031215620002df57600080fd5b83516001600160401b0380821115620002f757600080fd5b818601915086601f8301126200030c57600080fd5b81516020828211156200032357620003236200022b565b62000333818360051b016200026c565b828152818101935060079290921b8401810191898311156200035457600080fd5b938101935b82851015620003c4576080858b031215620003745760008081fd5b6200037e62000241565b85516200038b816200029f565b8152858301516200039c816200029f565b8184015285870151878201526060808701519082015284526080909401939281019262000359565b9650620003d3888201620002b8565b955050505050509250929050565b634e487b7160e01b600052603260045260246000fd5b60006000198214156200041a57634e487b7160e01b600052601160045260246000fd5b5060010190565b610d6c80620004316000396000f3fe608060405234801561001057600080fd5b50600436106100a95760003560e01c8063bfe8ebc511610071578063bfe8ebc51461011b578063c04637111461012e578063cf5303cf14610145578063ebf0c7171461015b578063f2fde38b1461016e578063f62aa97f1461018157600080fd5b806331c837f8146100ae5780634a7902d2146100c357806365155195146100d6578063715018a6146100e95780638da5cb5b146100f1575b600080fd5b6100c16100bc366004610934565b610196565b005b6100c16100d1366004610962565b6103fd565b6100c16100e4366004610986565b610427565b6100c1610498565b6000546001600160a01b03165b6040516001600160a01b0390911681526020015b60405180910390f35b6100c16101293660046109fb565b6104ac565b61013760065481565b604051908152602001610112565b61014d6105a9565b604051610112929190610a13565b6005546100fe906001600160a01b031681565b6100c161017c366004610962565b61064c565b6101896106c7565b6040516101129190610a72565b61019e61088a565b60015481106101aa5750565b805b600180546101ba9190610ad5565b8110156103445760016101cd8282610aec565b815481106101dd576101dd610b04565b600091825260209091200154600180546001600160a01b03909216918390811061020957610209610b04565b600091825260209091200180546001600160a01b0319166001600160a01b0392909216919091179055600261023f826001610aec565b8154811061024f5761024f610b04565b600091825260209091200154600280546001600160a01b03909216918390811061027b5761027b610b04565b600091825260209091200180546001600160a01b0319166001600160a01b039290921691909117905560036102b1826001610aec565b815481106102c1576102c1610b04565b9060005260206000200154600382815481106102df576102df610b04565b60009182526020909120015560046102f8826001610aec565b8154811061030857610308610b04565b90600052602060002001546004828154811061032657610326610b04565b6000918252602090912001558061033c81610b1a565b9150506101ac565b50600180548061035657610356610b35565b600082815260209020810160001990810180546001600160a01b0319169055019055600280548061038957610389610b35565b600082815260209020810160001990810180546001600160a01b031916905501905560038054806103bc576103bc610b35565b6001900381819060005260206000200160009055905560048054806103e3576103e3610b35565b600190038181906000526020600020016000905590555b50565b61040561088a565b600580546001600160a01b0319166001600160a01b0392909216919091179055565b80610430575050565b600554604051630c5fc5f760e21b81526001600160a01b039091169063317f17dc906104629085908590600401610b4b565b600060405180830381600087803b15801561047c57600080fd5b505af1158015610490573d6000803e3d6000fd5b505050505050565b6104a061088a565b6104aa60006108e4565b565b6104b461088a565b60016104c36020830183610962565b815460018101835560009283526020928390200180546001600160a01b0319166001600160a01b03929092169190911790556002906105089060408401908401610962565b81546001808201845560009384526020842090910180546001600160a01b0319166001600160a01b0393909316929092179091556003805480830190915560408401357fc2575a0e9e593c00f959f8c92f12db2869c3395a3b0502d05e2516446f71f85b909101556004805491820181559091526060909101357f8a35acfbc15ff81a39ae7d344fd709f28e8600b4aa8c65c6b64bfe7fe36bd19b90910155565b6000606060006105b76106c7565b90508051600014156105f55750506040805180820190915260118152704e6f20776f726b61626c6520706169727360781b6020820152600092909150565b60405160019350636515519560e01b90610613908390602401610a72565b60408051601f198184030181529190526020810180516001600160e01b03166001600160e01b0319909316929092179091529293915050565b61065461088a565b6001600160a01b0381166106be5760405162461bcd60e51b815260206004820152602660248201527f4f776e61626c653a206e6577206f776e657220697320746865207a65726f206160448201526564647265737360d01b60648201526084015b60405180910390fd5b6103fa816108e4565b600554604051636f2aaca160e11b81526060916000916001600160a01b039091169063de55594290610706906001906002906003906004908101610c17565b600060405180830381865afa158015610723573d6000803e3d6000fd5b505050506040513d6000823e601f3d908101601f1916820160405261074b9190810190610c9a565b90506000805b82518110156107995782818151811061076c5761076c610b04565b60200260200101511561078757610784600183610aec565b91505b610792600182610aec565b9050610751565b5060008167ffffffffffffffff8111156107b5576107b5610c6f565b6040519080825280602002602001820160405280156107de578160200160208202803683370190505b50905060005b8351811015610882578381815181106107ff576107ff610b04565b602002602001015115610870576001818154811061081f5761081f610b04565b9060005260206000200160009054906101000a90046001600160a01b031682828151811061084f5761084f610b04565b60200260200101906001600160a01b031690816001600160a01b0316815250505b8061087a81610b1a565b9150506107e4565b509392505050565b6000546001600160a01b031633146104aa5760405162461bcd60e51b815260206004820181905260248201527f4f776e61626c653a2063616c6c6572206973206e6f7420746865206f776e657260448201526064016106b5565b600080546001600160a01b038381166001600160a01b0319831681178455604051919092169283917f8be0079c531659141344cd1fd0a4f28419497f9722a3daafe3b4186f6b6457e09190a35050565b60006020828403121561094657600080fd5b5035919050565b6001600160a01b03811681146103fa57600080fd5b60006020828403121561097457600080fd5b813561097f8161094d565b9392505050565b6000806020838503121561099957600080fd5b823567ffffffffffffffff808211156109b157600080fd5b818501915085601f8301126109c557600080fd5b8135818111156109d457600080fd5b8660208260051b85010111156109e957600080fd5b60209290920196919550909350505050565b600060808284031215610a0d57600080fd5b50919050565b821515815260006020604081840152835180604085015260005b81811015610a4957858101830151858201606001528201610a2d565b81811115610a5b576000606083870101525b50601f01601f191692909201606001949350505050565b6020808252825182820181905260009190848201906040850190845b81811015610ab35783516001600160a01b031683529284019291840191600101610a8e565b50909695505050505050565b634e487b7160e01b600052601160045260246000fd5b600082821015610ae757610ae7610abf565b500390565b60008219821115610aff57610aff610abf565b500190565b634e487b7160e01b600052603260045260246000fd5b6000600019821415610b2e57610b2e610abf565b5060010190565b634e487b7160e01b600052603160045260246000fd5b60208082528181018390526000908460408401835b86811015610b8e578235610b738161094d565b6001600160a01b031682529183019190830190600101610b60565b509695505050505050565b6000815480845260208085019450836000528060002060005b83811015610bd75781546001600160a01b031687529582019560019182019101610bb2565b509495945050505050565b6000815480845260208085019450836000528060002060005b83811015610bd757815487529582019560019182019101610bfb565b608081526000610c2a6080830187610b99565b8281036020840152610c3c8187610b99565b90508281036040840152610c508186610be2565b90508281036060840152610c648185610be2565b979650505050505050565b634e487b7160e01b600052604160045260246000fd5b80518015158114610c9557600080fd5b919050565b60006020808385031215610cad57600080fd5b825167ffffffffffffffff80821115610cc557600080fd5b818501915085601f830112610cd957600080fd5b815181811115610ceb57610ceb610c6f565b8060051b604051601f19603f83011681018181108582111715610d1057610d10610c6f565b604052918252848201925083810185019188831115610d2e57600080fd5b938501935b82851015610d5357610d4485610c85565b84529385019392850192610d33565b9897505050505050505056fea164736f6c634300080a000a",
    "linkReferences": {}
  },
  "methodIdentifiers": {
    "addPair((address,address,uint256,uint256))": "bfe8ebc5",
    "changeRoot(address)": "4a7902d2",
    "checker()": "cf5303cf",
    "getWorkablePairs()": "f62aa97f",
    "lastUpdate()": "c0463711",
    "owner()": "8da5cb5b",
    "removeFromPairs(uint256)": "31c837f8",
    "renounceOwnership()": "715018a6",
    "root()": "ebf0c717",
    "transferOwnership(address)": "f2fde38b",
    "updatePairs(address[])": "65155195"
  }
}