{
  "address": "0x6f310Cb96eFbC9da0b3d517428336E60dB7ffa93",
  "abi": [
    {
      "anonymous": false,
      "inputs": [
        {
          "indexed": false,
          "internalType": "uint8",
          "name": "version",
          "type": "uint8"
        }
      ],
      "name": "Initialized",
      "type": "event"
    },
    {
      "anonymous": false,
      "inputs": [
        {
          "indexed": false,
          "internalType": "address",
          "name": "oldOwner",
          "type": "address"
        },
        {
          "indexed": false,
          "internalType": "address",
          "name": "newOwner",
          "type": "address"
        }
      ],
      "name": "NewOwner",
      "type": "event"
    },
    {
      "anonymous": false,
      "inputs": [
        {
          "indexed": false,
          "internalType": "address",
          "name": "oldPendingOwner",
          "type": "address"
        },
        {
          "indexed": false,
          "internalType": "address",
          "name": "newPendingOwner",
          "type": "address"
        }
      ],
      "name": "NewPendingOwner",
      "type": "event"
    },
    {
      "anonymous": false,
      "inputs": [
        {
          "indexed": true,
          "internalType": "address",
          "name": "previousOwner",
          "type": "address"
        },
        {
          "indexed": true,
          "internalType": "address",
          "name": "newOwner",
          "type": "address"
        }
      ],
      "name": "OwnershipTransferred",
      "type": "event"
    },
    {
      "inputs": [],
      "name": "NATIVE_TOKEN_USD_PRICE_FEED",
      "outputs": [
        {
          "internalType": "address",
          "name": "",
          "type": "address"
        }
      ],
      "stateMutability": "view",
      "type": "function"
    },
    {
      "inputs": [],
      "name": "USD_TOKEN",
      "outputs": [
        {
          "internalType": "address",
          "name": "",
          "type": "address"
        }
      ],
      "stateMutability": "view",
      "type": "function"
    },
    {
      "inputs": [],
      "name": "_acceptOwner",
      "outputs": [],
      "stateMutability": "nonpayable",
      "type": "function"
    },
    {
      "inputs": [
        {
          "internalType": "address",
          "name": "newPendingOwner",
          "type": "address"
        }
      ],
      "name": "_setPendingOwner",
      "outputs": [],
      "stateMutability": "nonpayable",
      "type": "function"
    },
    {
      "inputs": [
        {
          "internalType": "address",
          "name": "",
          "type": "address"
        }
      ],
      "name": "feedBaseCurrencies",
      "outputs": [
        {
          "internalType": "enum ChainlinkPriceOracleV2.FeedBaseCurrency",
          "name": "",
          "type": "uint8"
        }
      ],
      "stateMutability": "view",
      "type": "function"
    },
    {
      "inputs": [
        {
          "internalType": "contract ICErc20",
          "name": "cToken",
          "type": "address"
        }
      ],
      "name": "getUnderlyingPrice",
      "outputs": [
        {
          "internalType": "uint256",
          "name": "",
          "type": "uint256"
        }
      ],
      "stateMutability": "view",
      "type": "function"
    },
    {
      "inputs": [
        {
          "internalType": "address",
          "name": "_usdToken",
          "type": "address"
        },
        {
          "internalType": "address",
          "name": "nativeTokenUsd",
          "type": "address"
        }
      ],
      "name": "initialize",
      "outputs": [],
      "stateMutability": "nonpayable",
      "type": "function"
    },
    {
      "inputs": [],
      "name": "owner",
      "outputs": [
        {
          "internalType": "address",
          "name": "",
          "type": "address"
        }
      ],
      "stateMutability": "view",
      "type": "function"
    },
    {
      "inputs": [],
      "name": "pendingOwner",
      "outputs": [
        {
          "internalType": "address",
          "name": "",
          "type": "address"
        }
      ],
      "stateMutability": "view",
      "type": "function"
    },
    {
      "inputs": [
        {
          "internalType": "address",
          "name": "underlying",
          "type": "address"
        }
      ],
      "name": "price",
      "outputs": [
        {
          "internalType": "uint256",
          "name": "",
          "type": "uint256"
        }
      ],
      "stateMutability": "view",
      "type": "function"
    },
    {
      "inputs": [
        {
          "internalType": "address",
          "name": "",
          "type": "address"
        }
      ],
      "name": "priceFeeds",
      "outputs": [
        {
          "internalType": "contract AggregatorV3Interface",
          "name": "",
          "type": "address"
        }
      ],
      "stateMutability": "view",
      "type": "function"
    },
    {
      "inputs": [],
      "name": "renounceOwnership",
      "outputs": [],
      "stateMutability": "nonpayable",
      "type": "function"
    },
    {
      "inputs": [
        {
          "internalType": "address[]",
          "name": "underlyings",
          "type": "address[]"
        },
        {
          "internalType": "address[]",
          "name": "feeds",
          "type": "address[]"
        },
        {
          "internalType": "enum ChainlinkPriceOracleV2.FeedBaseCurrency",
          "name": "baseCurrency",
          "type": "uint8"
        }
      ],
      "name": "setPriceFeeds",
      "outputs": [],
      "stateMutability": "nonpayable",
      "type": "function"
    },
    {
      "inputs": [
        {
          "internalType": "address",
          "name": "newOwner",
          "type": "address"
        }
      ],
      "name": "transferOwnership",
      "outputs": [],
      "stateMutability": "nonpayable",
      "type": "function"
    }
  ],
  "transactionHash": "0x74c526112f7233b66714175cd6fc6fd4216037fd70f0f7ff2b9cfa45d30d0ce1",
  "args": [],
  "numDeployments": 1,
  "bytecode": {
    "object": "0x608060405234801561001057600080fd5b5061132e806100206000396000f3fe608060405234801561001057600080fd5b50600436106100ea5760003560e01c80639dcb511a1161008c578063e30c397811610066578063e30c397814610200578063f2fde38b14610213578063fc4d33f914610226578063fc57d4df1461022e57600080fd5b80639dcb511a14610186578063aea91078146101af578063cebae71d146101d057600080fd5b8063715018a6116100c8578063715018a61461014757806371f3245a1461014f5780638da5cb5b146101625780639d23c8121461017357600080fd5b80633a750685146100ef578063485cc9551461011f5780636e96dfd714610134575b600080fd5b606854610102906001600160a01b031681565b6040516001600160a01b0390911681526020015b60405180910390f35b61013261012d366004610ec0565b610241565b005b610132610142366004610ef9565b61038a565b6101326103f4565b61013261015d366004610fca565b610437565b6033546001600160a01b0316610102565b606954610102906001600160a01b031681565b610102610194366004610ef9565b6066602052600090815260409020546001600160a01b031681565b6101c26101bd366004610ef9565b61057c565b604051908152602001610116565b6101f36101de366004610ef9565b60676020526000908152604090205460ff1681565b604051610116919061105c565b606554610102906001600160a01b031681565b610132610221366004610ef9565b61058d565b6101326105fe565b6101c261023c366004610ef9565b610712565b600054610100900460ff16158080156102615750600054600160ff909116105b8061027b5750303b15801561027b575060005460ff166001145b6102e35760405162461bcd60e51b815260206004820152602e60248201527f496e697469616c697a61626c653a20636f6e747261637420697320616c72656160448201526d191e481a5b9a5d1a585b1a5e995960921b60648201526084015b60405180910390fd5b6000805460ff191660011790558015610306576000805461ff0019166101001790555b61030f33610846565b606980546001600160a01b038086166001600160a01b03199283161790925560688054928516929091169190911790558015610385576000805461ff0019169055604051600181527f7f26b83ff96e1f2b6a682f133852f6798a09c465da95921460cefb38474024989060200160405180910390a15b505050565b610392610881565b606580546001600160a01b038381166001600160a01b031983168117909355604080519190921680825260208201939093527fb3d55174552271a4f1aaf36b72f50381e892171636b3fb5447fe00e995e7a37b91015b60405180910390a15050565b6103fc610881565b60405162461bcd60e51b815260206004820152601060248201526f6e6f74207573656420616e796d6f726560801b60448201526064016102da565b61043f610881565b60008351118015610451575081518351145b6104c35760405162461bcd60e51b815260206004820152603860248201527f4c656e67746873206f6620626f746820617272617973206d757374206265206560448201527f7175616c20616e642067726561746572207468616e20302e000000000000000060648201526084016102da565b60005b83518110156105765760008482815181106104e3576104e3611084565b602002602001015190508382815181106104ff576104ff611084565b6020908102919091018101516001600160a01b03838116600090815260668452604080822080546001600160a01b0319169390941692909217909255606790925220805484919060ff19166001838181111561055d5761055d611046565b021790555050808061056e906110b0565b9150506104c6565b50505050565b6000610587826108dd565b92915050565b610595610881565b606554604080516001600160a01b03928316815291831660208301527fb3d55174552271a4f1aaf36b72f50381e892171636b3fb5447fe00e995e7a37b910160405180910390a1606580546001600160a01b0319166001600160a01b0392909216919091179055565b6065546001600160a01b031633146106505760405162461bcd60e51b81526020600482015260156024820152743737ba103a3432903832b73234b7339037bbb732b960591b60448201526064016102da565b60006106646033546001600160a01b031690565b6065549091506001600160a01b031661067c81610def565b606580546001600160a01b0319169055604080516001600160a01b0384168152600060208201527f70aea8d848e8a90fb7661b227dc522eb6395c3dac71b63cb59edd5c9899b2364910160405180910390a1606554604080516001600160a01b03808516825290921660208301527fb3d55174552271a4f1aaf36b72f50381e892171636b3fb5447fe00e995e7a37b91016103e8565b600080826001600160a01b0316636f307dc36040518163ffffffff1660e01b8152600401602060405180830381865afa158015610753573d6000803e3d6000fd5b505050506040513d601f19601f8201168201806040525081019061077791906110cb565b90506000610784826108dd565b90506000826001600160a01b031663313ce5676040518163ffffffff1660e01b8152600401602060405180830381865afa1580156107c6573d6000803e3d6000fd5b505050506040513d601f19601f820116820180604052508101906107ea91906110e8565b60ff169050601281111561081d5761080360128261110b565b61080e90600a611206565b6108189083611212565b61083d565b61082881601261110b565b61083390600a611206565b61083d9083611234565b95945050505050565b600054610100900460ff1661086d5760405162461bcd60e51b81526004016102da90611253565b610875610e41565b61087e81610def565b50565b6033546001600160a01b031633146108db5760405162461bcd60e51b815260206004820181905260248201527f4f776e61626c653a2063616c6c6572206973206e6f7420746865206f776e657260448201526064016102da565b565b6001600160a01b038082166000908152606660205260408120549091168061096d5760405162461bcd60e51b815260206004820152603e60248201527f4e6f20436861696e6c696e6b207072696365206665656420666f756e6420666f60448201527f72207468697320756e6465726c79696e6720455243323020746f6b656e2e000060648201526084016102da565b6001600160a01b03831660009081526067602052604081205460ff169081600181111561099c5761099c611046565b1415610aa8576000826001600160a01b031663feaf968c6040518163ffffffff1660e01b815260040160a060405180830381865afa1580156109e2573d6000803e3d6000fd5b505050506040513d601f19601f82011682018060405250810190610a0691906112b8565b5050509150506000811215610a1c57600061083d565b826001600160a01b031663313ce5676040518163ffffffff1660e01b8152600401602060405180830381865afa158015610a5a573d6000803e3d6000fd5b505050506040513d601f19601f82011682018060405250810190610a7e91906110e8565b610a8c9060ff16600a611206565b610a9e82670de0b6b3a7640000611234565b61083d9190611212565b6001816001811115610abc57610abc611046565b1415610daf5760685460009081906001600160a01b0316610b6d576069546040516315d5220f60e31b81526001600160a01b039091166004820152600090339063aea9107890602401602060405180830381865afa158015610b22573d6000803e3d6000fd5b505050506040513d601f19601f82011682018060405250810190610b469190611308565b9050610b61816ec097ce7bc90715b34b9f1000000000611212565b92506012915050610c7b565b606860009054906101000a90046001600160a01b03166001600160a01b031663feaf968c6040518163ffffffff1660e01b815260040160a060405180830381865afa158015610bc0573d6000803e3d6000fd5b505050506040513d601f19601f82011682018060405250810190610be491906112b8565b5091945050600084139150610c0190505750600095945050505050565b606860009054906101000a90046001600160a01b03166001600160a01b031663313ce5676040518163ffffffff1660e01b8152600401602060405180830381865afa158015610c54573d6000803e3d6000fd5b505050506040513d601f19601f82011682018060405250810190610c7891906110e8565b90505b6000846001600160a01b031663feaf968c6040518163ffffffff1660e01b815260040160a060405180830381865afa158015610cbb573d6000803e3d6000fd5b505050506040513d601f19601f82011682018060405250810190610cdf91906112b8565b5050509150506000811215610cf5576000610da4565b82856001600160a01b031663313ce5676040518163ffffffff1660e01b8152600401602060405180830381865afa158015610d34573d6000803e3d6000fd5b505050506040513d601f19601f82011682018060405250810190610d5891906110e8565b610d669060ff16600a611206565b610d7460ff8516600a611206565b610d8684670de0b6b3a7640000611234565b610d909190611234565b610d9a9190611212565b610da49190611212565b979650505050505050565b60405162461bcd60e51b8152602060048201526015602482015274756e6b6e6f776e20626173652063757272656e637960581b60448201526064016102da565b603380546001600160a01b038381166001600160a01b0319831681179093556040519116919082907f8be0079c531659141344cd1fd0a4f28419497f9722a3daafe3b4186f6b6457e090600090a35050565b600054610100900460ff16610e685760405162461bcd60e51b81526004016102da90611253565b6108db600054610100900460ff16610e925760405162461bcd60e51b81526004016102da90611253565b6108db33610def565b6001600160a01b038116811461087e57600080fd5b8035610ebb81610e9b565b919050565b60008060408385031215610ed357600080fd5b8235610ede81610e9b565b91506020830135610eee81610e9b565b809150509250929050565b600060208284031215610f0b57600080fd5b8135610f1681610e9b565b9392505050565b634e487b7160e01b600052604160045260246000fd5b600082601f830112610f4457600080fd5b8135602067ffffffffffffffff80831115610f6157610f61610f1d565b8260051b604051601f19603f83011681018181108482111715610f8657610f86610f1d565b604052938452858101830193838101925087851115610fa457600080fd5b83870191505b84821015610da457610fbb82610eb0565b83529183019190830190610faa565b600080600060608486031215610fdf57600080fd5b833567ffffffffffffffff80821115610ff757600080fd5b61100387838801610f33565b9450602086013591508082111561101957600080fd5b5061102686828701610f33565b92505060408401356002811061103b57600080fd5b809150509250925092565b634e487b7160e01b600052602160045260246000fd5b602081016002831061107e57634e487b7160e01b600052602160045260246000fd5b91905290565b634e487b7160e01b600052603260045260246000fd5b634e487b7160e01b600052601160045260246000fd5b60006000198214156110c4576110c461109a565b5060010190565b6000602082840312156110dd57600080fd5b8151610f1681610e9b565b6000602082840312156110fa57600080fd5b815160ff81168114610f1657600080fd5b60008282101561111d5761111d61109a565b500390565b600181815b8085111561115d5781600019048211156111435761114361109a565b8085161561115057918102915b93841c9390800290611127565b509250929050565b60008261117457506001610587565b8161118157506000610587565b816001811461119757600281146111a1576111bd565b6001915050610587565b60ff8411156111b2576111b261109a565b50506001821b610587565b5060208310610133831016604e8410600b84101617156111e0575081810a610587565b6111ea8383611122565b80600019048211156111fe576111fe61109a565b029392505050565b6000610f168383611165565b60008261122f57634e487b7160e01b600052601260045260246000fd5b500490565b600081600019048311821515161561124e5761124e61109a565b500290565b6020808252602b908201527f496e697469616c697a61626c653a20636f6e7472616374206973206e6f74206960408201526a6e697469616c697a696e6760a81b606082015260800190565b805169ffffffffffffffffffff81168114610ebb57600080fd5b600080600080600060a086880312156112d057600080fd5b6112d98661129e565b94506020860151935060408601519250606086015191506112fc6080870161129e565b90509295509295909350565b60006020828403121561131a57600080fd5b505191905056fea164736f6c634300080a000a",
    "linkReferences": {}
  },
  "methodIdentifiers": {
    "NATIVE_TOKEN_USD_PRICE_FEED()": "3a750685",
    "USD_TOKEN()": "9d23c812",
    "_acceptOwner()": "fc4d33f9",
    "_setPendingOwner(address)": "6e96dfd7",
    "feedBaseCurrencies(address)": "cebae71d",
    "getUnderlyingPrice(address)": "fc57d4df",
    "initialize(address,address)": "485cc955",
    "owner()": "8da5cb5b",
    "pendingOwner()": "e30c3978",
    "price(address)": "aea91078",
    "priceFeeds(address)": "9dcb511a",
    "renounceOwnership()": "715018a6",
    "setPriceFeeds(address[],address[],uint8)": "71f3245a",
    "transferOwnership(address)": "f2fde38b"
  }
}