{
  "address": "0xAaa58C909706b8f3f089c9113C98fb771C443721",
  "abi": [
    {
      "anonymous": false,
      "inputs": [
        {
          "indexed": false,
          "internalType": "uint8",
          "name": "version",
          "type": "uint8"
        }
      ],
      "name": "Initialized",
      "type": "event"
    },
    {
      "inputs": [],
      "name": "directory",
      "outputs": [
        {
          "internalType": "contract PoolDirectory",
          "name": "",
          "type": "address"
        }
      ],
      "stateMutability": "view",
      "type": "function"
    },
    {
      "inputs": [
        {
          "internalType": "contract ICErc20",
          "name": "asset",
          "type": "address"
        }
      ],
      "name": "getBorrowCapsDataForAsset",
      "outputs": [
        {
          "internalType": "address[]",
          "name": "collateral",
          "type": "address[]"
        },
        {
          "internalType": "uint256[]",
          "name": "borrowCapsPerCollateral",
          "type": "uint256[]"
        },
        {
          "internalType": "bool[]",
          "name": "collateralBlacklisted",
          "type": "bool[]"
        },
        {
          "internalType": "uint256",
          "name": "totalBorrowCap",
          "type": "uint256"
        },
        {
          "internalType": "uint256",
          "name": "nonWhitelistedTotalBorrows",
          "type": "uint256"
        }
      ],
      "stateMutability": "view",
      "type": "function"
    },
    {
      "inputs": [
        {
          "internalType": "contract ICErc20",
          "name": "asset",
          "type": "address"
        }
      ],
      "name": "getBorrowCapsForAsset",
      "outputs": [
        {
          "internalType": "address[]",
          "name": "collateral",
          "type": "address[]"
        },
        {
          "internalType": "uint256[]",
          "name": "borrowCapsPerCollateral",
          "type": "uint256[]"
        },
        {
          "internalType": "bool[]",
          "name": "collateralBlacklisted",
          "type": "bool[]"
        },
        {
          "internalType": "uint256",
          "name": "totalBorrowCap",
          "type": "uint256"
        }
      ],
      "stateMutability": "view",
      "type": "function"
    },
    {
      "inputs": [
        {
          "internalType": "contract IonicComptroller",
          "name": "comptroller",
          "type": "address"
        },
        {
          "internalType": "address",
          "name": "user",
          "type": "address"
        }
      ],
      "name": "getPoolAssetsByUser",
      "outputs": [
        {
          "components": [
            {
              "internalType": "address",
              "name": "cToken",
              "type": "address"
            },
            {
              "internalType": "address",
              "name": "underlyingToken",
              "type": "address"
            },
            {
              "internalType": "string",
              "name": "underlyingName",
              "type": "string"
            },
            {
              "internalType": "string",
              "name": "underlyingSymbol",
              "type": "string"
            },
            {
              "internalType": "uint256",
              "name": "underlyingDecimals",
              "type": "uint256"
            },
            {
              "internalType": "uint256",
              "name": "underlyingBalance",
              "type": "uint256"
            },
            {
              "internalType": "uint256",
              "name": "supplyRatePerBlock",
              "type": "uint256"
            },
            {
              "internalType": "uint256",
              "name": "borrowRatePerBlock",
              "type": "uint256"
            },
            {
              "internalType": "uint256",
              "name": "totalSupply",
              "type": "uint256"
            },
            {
              "internalType": "uint256",
              "name": "totalBorrow",
              "type": "uint256"
            },
            {
              "internalType": "uint256",
              "name": "supplyBalance",
              "type": "uint256"
            },
            {
              "internalType": "uint256",
              "name": "borrowBalance",
              "type": "uint256"
            },
            {
              "internalType": "uint256",
              "name": "liquidity",
              "type": "uint256"
            },
            {
              "internalType": "bool",
              "name": "membership",
              "type": "bool"
            },
            {
              "internalType": "uint256",
              "name": "exchangeRate",
              "type": "uint256"
            },
            {
              "internalType": "uint256",
              "name": "underlyingPrice",
              "type": "uint256"
            },
            {
              "internalType": "address",
              "name": "oracle",
              "type": "address"
            },
            {
              "internalType": "uint256",
              "name": "collateralFactor",
              "type": "uint256"
            },
            {
              "internalType": "uint256",
              "name": "reserveFactor",
              "type": "uint256"
            },
            {
              "internalType": "uint256",
              "name": "adminFee",
              "type": "uint256"
            },
            {
              "internalType": "uint256",
              "name": "ionicFee",
              "type": "uint256"
            },
            {
              "internalType": "bool",
              "name": "borrowGuardianPaused",
              "type": "bool"
            },
            {
              "internalType": "bool",
              "name": "mintGuardianPaused",
              "type": "bool"
            }
          ],
          "internalType": "struct PoolLens.PoolAsset[]",
          "name": "",
          "type": "tuple[]"
        }
      ],
      "stateMutability": "nonpayable",
      "type": "function"
    },
    {
      "inputs": [
        {
          "internalType": "contract IonicComptroller",
          "name": "comptroller",
          "type": "address"
        }
      ],
      "name": "getPoolAssetsWithData",
      "outputs": [
        {
          "components": [
            {
              "internalType": "address",
              "name": "cToken",
              "type": "address"
            },
            {
              "internalType": "address",
              "name": "underlyingToken",
              "type": "address"
            },
            {
              "internalType": "string",
              "name": "underlyingName",
              "type": "string"
            },
            {
              "internalType": "string",
              "name": "underlyingSymbol",
              "type": "string"
            },
            {
              "internalType": "uint256",
              "name": "underlyingDecimals",
              "type": "uint256"
            },
            {
              "internalType": "uint256",
              "name": "underlyingBalance",
              "type": "uint256"
            },
            {
              "internalType": "uint256",
              "name": "supplyRatePerBlock",
              "type": "uint256"
            },
            {
              "internalType": "uint256",
              "name": "borrowRatePerBlock",
              "type": "uint256"
            },
            {
              "internalType": "uint256",
              "name": "totalSupply",
              "type": "uint256"
            },
            {
              "internalType": "uint256",
              "name": "totalBorrow",
              "type": "uint256"
            },
            {
              "internalType": "uint256",
              "name": "supplyBalance",
              "type": "uint256"
            },
            {
              "internalType": "uint256",
              "name": "borrowBalance",
              "type": "uint256"
            },
            {
              "internalType": "uint256",
              "name": "liquidity",
              "type": "uint256"
            },
            {
              "internalType": "bool",
              "name": "membership",
              "type": "bool"
            },
            {
              "internalType": "uint256",
              "name": "exchangeRate",
              "type": "uint256"
            },
            {
              "internalType": "uint256",
              "name": "underlyingPrice",
              "type": "uint256"
            },
            {
              "internalType": "address",
              "name": "oracle",
              "type": "address"
            },
            {
              "internalType": "uint256",
              "name": "collateralFactor",
              "type": "uint256"
            },
            {
              "internalType": "uint256",
              "name": "reserveFactor",
              "type": "uint256"
            },
            {
              "internalType": "uint256",
              "name": "adminFee",
              "type": "uint256"
            },
            {
              "internalType": "uint256",
              "name": "ionicFee",
              "type": "uint256"
            },
            {
              "internalType": "bool",
              "name": "borrowGuardianPaused",
              "type": "bool"
            },
            {
              "internalType": "bool",
              "name": "mintGuardianPaused",
              "type": "bool"
            }
          ],
          "internalType": "struct PoolLens.PoolAsset[]",
          "name": "",
          "type": "tuple[]"
        }
      ],
      "stateMutability": "nonpayable",
      "type": "function"
    },
    {
      "inputs": [
        {
          "internalType": "contract IonicComptroller",
          "name": "comptroller",
          "type": "address"
        }
      ],
      "name": "getPoolSummary",
      "outputs": [
        {
          "internalType": "uint256",
          "name": "",
          "type": "uint256"
        },
        {
          "internalType": "uint256",
          "name": "",
          "type": "uint256"
        },
        {
          "internalType": "address[]",
          "name": "",
          "type": "address[]"
        },
        {
          "internalType": "string[]",
          "name": "",
          "type": "string[]"
        },
        {
          "internalType": "bool",
          "name": "",
          "type": "bool"
        }
      ],
      "stateMutability": "nonpayable",
      "type": "function"
    },
    {
      "inputs": [
        {
          "internalType": "address",
          "name": "account",
          "type": "address"
        }
      ],
      "name": "getPoolsByAccountWithData",
      "outputs": [
        {
          "internalType": "uint256[]",
          "name": "",
          "type": "uint256[]"
        },
        {
          "components": [
            {
              "internalType": "string",
              "name": "name",
              "type": "string"
            },
            {
              "internalType": "address",
              "name": "creator",
              "type": "address"
            },
            {
              "internalType": "address",
              "name": "comptroller",
              "type": "address"
            },
            {
              "internalType": "uint256",
              "name": "blockPosted",
              "type": "uint256"
            },
            {
              "internalType": "uint256",
              "name": "timestampPosted",
              "type": "uint256"
            }
          ],
          "internalType": "struct PoolDirectory.Pool[]",
          "name": "",
          "type": "tuple[]"
        },
        {
          "components": [
            {
              "internalType": "uint256",
              "name": "totalSupply",
              "type": "uint256"
            },
            {
              "internalType": "uint256",
              "name": "totalBorrow",
              "type": "uint256"
            },
            {
              "internalType": "address[]",
              "name": "underlyingTokens",
              "type": "address[]"
            },
            {
              "internalType": "string[]",
              "name": "underlyingSymbols",
              "type": "string[]"
            },
            {
              "internalType": "bool",
              "name": "whitelistedAdmin",
              "type": "bool"
            }
          ],
          "internalType": "struct PoolLens.IonicPoolData[]",
          "name": "",
          "type": "tuple[]"
        },
        {
          "internalType": "bool[]",
          "name": "",
          "type": "bool[]"
        }
      ],
      "stateMutability": "nonpayable",
      "type": "function"
    },
    {
      "inputs": [
        {
          "internalType": "address",
          "name": "user",
          "type": "address"
        }
      ],
      "name": "getPoolsOIonicrWithData",
      "outputs": [
        {
          "internalType": "uint256[]",
          "name": "",
          "type": "uint256[]"
        },
        {
          "components": [
            {
              "internalType": "string",
              "name": "name",
              "type": "string"
            },
            {
              "internalType": "address",
              "name": "creator",
              "type": "address"
            },
            {
              "internalType": "address",
              "name": "comptroller",
              "type": "address"
            },
            {
              "internalType": "uint256",
              "name": "blockPosted",
              "type": "uint256"
            },
            {
              "internalType": "uint256",
              "name": "timestampPosted",
              "type": "uint256"
            }
          ],
          "internalType": "struct PoolDirectory.Pool[]",
          "name": "",
          "type": "tuple[]"
        },
        {
          "components": [
            {
              "internalType": "uint256",
              "name": "totalSupply",
              "type": "uint256"
            },
            {
              "internalType": "uint256",
              "name": "totalBorrow",
              "type": "uint256"
            },
            {
              "internalType": "address[]",
              "name": "underlyingTokens",
              "type": "address[]"
            },
            {
              "internalType": "string[]",
              "name": "underlyingSymbols",
              "type": "string[]"
            },
            {
              "internalType": "bool",
              "name": "whitelistedAdmin",
              "type": "bool"
            }
          ],
          "internalType": "struct PoolLens.IonicPoolData[]",
          "name": "",
          "type": "tuple[]"
        },
        {
          "internalType": "bool[]",
          "name": "",
          "type": "bool[]"
        }
      ],
      "stateMutability": "nonpayable",
      "type": "function"
    },
    {
      "inputs": [
        {
          "internalType": "bool",
          "name": "whitelistedAdmin",
          "type": "bool"
        }
      ],
      "name": "getPublicPoolsByVerificationWithData",
      "outputs": [
        {
          "internalType": "uint256[]",
          "name": "",
          "type": "uint256[]"
        },
        {
          "components": [
            {
              "internalType": "string",
              "name": "name",
              "type": "string"
            },
            {
              "internalType": "address",
              "name": "creator",
              "type": "address"
            },
            {
              "internalType": "address",
              "name": "comptroller",
              "type": "address"
            },
            {
              "internalType": "uint256",
              "name": "blockPosted",
              "type": "uint256"
            },
            {
              "internalType": "uint256",
              "name": "timestampPosted",
              "type": "uint256"
            }
          ],
          "internalType": "struct PoolDirectory.Pool[]",
          "name": "",
          "type": "tuple[]"
        },
        {
          "components": [
            {
              "internalType": "uint256",
              "name": "totalSupply",
              "type": "uint256"
            },
            {
              "internalType": "uint256",
              "name": "totalBorrow",
              "type": "uint256"
            },
            {
              "internalType": "address[]",
              "name": "underlyingTokens",
              "type": "address[]"
            },
            {
              "internalType": "string[]",
              "name": "underlyingSymbols",
              "type": "string[]"
            },
            {
              "internalType": "bool",
              "name": "whitelistedAdmin",
              "type": "bool"
            }
          ],
          "internalType": "struct PoolLens.IonicPoolData[]",
          "name": "",
          "type": "tuple[]"
        },
        {
          "internalType": "bool[]",
          "name": "",
          "type": "bool[]"
        }
      ],
      "stateMutability": "nonpayable",
      "type": "function"
    },
    {
      "inputs": [],
      "name": "getPublicPoolsWithData",
      "outputs": [
        {
          "internalType": "uint256[]",
          "name": "",
          "type": "uint256[]"
        },
        {
          "components": [
            {
              "internalType": "string",
              "name": "name",
              "type": "string"
            },
            {
              "internalType": "address",
              "name": "creator",
              "type": "address"
            },
            {
              "internalType": "address",
              "name": "comptroller",
              "type": "address"
            },
            {
              "internalType": "uint256",
              "name": "blockPosted",
              "type": "uint256"
            },
            {
              "internalType": "uint256",
              "name": "timestampPosted",
              "type": "uint256"
            }
          ],
          "internalType": "struct PoolDirectory.Pool[]",
          "name": "",
          "type": "tuple[]"
        },
        {
          "components": [
            {
              "internalType": "uint256",
              "name": "totalSupply",
              "type": "uint256"
            },
            {
              "internalType": "uint256",
              "name": "totalBorrow",
              "type": "uint256"
            },
            {
              "internalType": "address[]",
              "name": "underlyingTokens",
              "type": "address[]"
            },
            {
              "internalType": "string[]",
              "name": "underlyingSymbols",
              "type": "string[]"
            },
            {
              "internalType": "bool",
              "name": "whitelistedAdmin",
              "type": "bool"
            }
          ],
          "internalType": "struct PoolLens.IonicPoolData[]",
          "name": "",
          "type": "tuple[]"
        },
        {
          "internalType": "bool[]",
          "name": "",
          "type": "bool[]"
        }
      ],
      "stateMutability": "nonpayable",
      "type": "function"
    },
    {
      "inputs": [
        {
          "internalType": "contract IonicComptroller",
          "name": "comptroller",
          "type": "address"
        }
      ],
      "name": "getSupplyCapsDataForPool",
      "outputs": [
        {
          "internalType": "address[]",
          "name": "",
          "type": "address[]"
        },
        {
          "internalType": "uint256[]",
          "name": "",
          "type": "uint256[]"
        },
        {
          "internalType": "uint256[]",
          "name": "",
          "type": "uint256[]"
        }
      ],
      "stateMutability": "view",
      "type": "function"
    },
    {
      "inputs": [
        {
          "internalType": "contract IonicComptroller",
          "name": "comptroller",
          "type": "address"
        }
      ],
      "name": "getSupplyCapsForPool",
      "outputs": [
        {
          "internalType": "address[]",
          "name": "",
          "type": "address[]"
        },
        {
          "internalType": "uint256[]",
          "name": "",
          "type": "uint256[]"
        }
      ],
      "stateMutability": "view",
      "type": "function"
    },
    {
      "inputs": [
        {
          "internalType": "address",
          "name": "account",
          "type": "address"
        }
      ],
      "name": "getWhitelistedPoolsByAccount",
      "outputs": [
        {
          "internalType": "uint256[]",
          "name": "",
          "type": "uint256[]"
        },
        {
          "components": [
            {
              "internalType": "string",
              "name": "name",
              "type": "string"
            },
            {
              "internalType": "address",
              "name": "creator",
              "type": "address"
            },
            {
              "internalType": "address",
              "name": "comptroller",
              "type": "address"
            },
            {
              "internalType": "uint256",
              "name": "blockPosted",
              "type": "uint256"
            },
            {
              "internalType": "uint256",
              "name": "timestampPosted",
              "type": "uint256"
            }
          ],
          "internalType": "struct PoolDirectory.Pool[]",
          "name": "",
          "type": "tuple[]"
        }
      ],
      "stateMutability": "view",
      "type": "function"
    },
    {
      "inputs": [
        {
          "internalType": "address",
          "name": "account",
          "type": "address"
        }
      ],
      "name": "getWhitelistedPoolsByAccountWithData",
      "outputs": [
        {
          "internalType": "uint256[]",
          "name": "",
          "type": "uint256[]"
        },
        {
          "components": [
            {
              "internalType": "string",
              "name": "name",
              "type": "string"
            },
            {
              "internalType": "address",
              "name": "creator",
              "type": "address"
            },
            {
              "internalType": "address",
              "name": "comptroller",
              "type": "address"
            },
            {
              "internalType": "uint256",
              "name": "blockPosted",
              "type": "uint256"
            },
            {
              "internalType": "uint256",
              "name": "timestampPosted",
              "type": "uint256"
            }
          ],
          "internalType": "struct PoolDirectory.Pool[]",
          "name": "",
          "type": "tuple[]"
        },
        {
          "components": [
            {
              "internalType": "uint256",
              "name": "totalSupply",
              "type": "uint256"
            },
            {
              "internalType": "uint256",
              "name": "totalBorrow",
              "type": "uint256"
            },
            {
              "internalType": "address[]",
              "name": "underlyingTokens",
              "type": "address[]"
            },
            {
              "internalType": "string[]",
              "name": "underlyingSymbols",
              "type": "string[]"
            },
            {
              "internalType": "bool",
              "name": "whitelistedAdmin",
              "type": "bool"
            }
          ],
          "internalType": "struct PoolLens.IonicPoolData[]",
          "name": "",
          "type": "tuple[]"
        },
        {
          "internalType": "bool[]",
          "name": "",
          "type": "bool[]"
        }
      ],
      "stateMutability": "nonpayable",
      "type": "function"
    },
    {
      "inputs": [
        {
          "internalType": "contract PoolDirectory",
          "name": "_directory",
          "type": "address"
        },
        {
          "internalType": "string",
          "name": "_name",
          "type": "string"
        },
        {
          "internalType": "string",
          "name": "_symbol",
          "type": "string"
        },
        {
          "internalType": "address[]",
          "name": "_hardcodedAddresses",
          "type": "address[]"
        },
        {
          "internalType": "string[]",
          "name": "_hardcodedNames",
          "type": "string[]"
        },
        {
          "internalType": "string[]",
          "name": "_hardcodedSymbols",
          "type": "string[]"
        },
        {
          "internalType": "string[]",
          "name": "_uniswapLPTokenNames",
          "type": "string[]"
        },
        {
          "internalType": "string[]",
          "name": "_uniswapLPTokenSymbols",
          "type": "string[]"
        },
        {
          "internalType": "string[]",
          "name": "_uniswapLPTokenDisplayNames",
          "type": "string[]"
        }
      ],
      "name": "initialize",
      "outputs": [],
      "stateMutability": "nonpayable",
      "type": "function"
    },
    {
      "inputs": [],
      "name": "name",
      "outputs": [
        {
          "internalType": "string",
          "name": "",
          "type": "string"
        }
      ],
      "stateMutability": "view",
      "type": "function"
    },
    {
      "inputs": [],
      "name": "symbol",
      "outputs": [
        {
          "internalType": "string",
          "name": "",
          "type": "string"
        }
      ],
      "stateMutability": "view",
      "type": "function"
    }
  ],
  "transactionHash": "0x4e6edd2a449f3d29d5c4cebe02f0ee31a437b6c6903b10c84599b311cf08456a",
  "args": [],
  "numDeployments": 1,
  "bytecode": {
    "object": "0x608060405234801561001057600080fd5b50614359806100206000396000f3fe608060405234801561001057600080fd5b506004361061010b5760003560e01c8063798b9780116100a2578063c3530a6311610071578063c3530a6314610262578063c41c2f2414610283578063d0a164fb146102ae578063d64996e5146102b6578063ef88b53c146102c957600080fd5b8063798b9780146101f357806395d89b4114610214578063a07954871461021c578063a505596a1461023e57600080fd5b80633a1eb656116100de5780633a1eb65614610184578063516786841461019957806359d2fea6146101bc57806370733375146101e057600080fd5b806306fdde03146101105780630c5eb5a41461012e5780631568683a1461014e57806327e16c1f14610171575b600080fd5b6101186102dc565b604051610125919061340c565b60405180910390f35b61014161013c36600461343e565b61036a565b6040516101259190613477565b61016161015c366004613604565b6103f2565b60405161012594939291906136c7565b61014161017f366004613604565b6104e5565b61019761019236600461391e565b61055d565b005b6101ac6101a7366004613604565b6109d2565b6040516101259493929190613b4d565b6101cf6101ca366004613604565b610a75565b604051610125959493929190613c2d565b6101ac6101ee366004613604565b6111d8565b610206610201366004613604565b6111ea565b604051610125929190613c73565b61011861140d565b61022f61022a366004613604565b61141a565b60405161012593929190613ca1565b61025161024c366004613604565b6117fa565b604051610125959493929190613ce4565b610275610270366004613604565b6119e6565b604051610125929190613d32565b600554610296906001600160a01b031681565b6040516001600160a01b039091168152602001610125565b6101ac611d4e565b6101ac6102c4366004613d65565b611df3565b6101ac6102d7366004613604565b611e33565b600180546102e990613d82565b80601f016020809104026020016040519081016040528092919081815260200182805461031590613d82565b80156103625780601f1061033757610100808354040283529160200191610362565b820191906000526020600020905b81548152906001019060200180831161034557829003601f168201915b505050505081565b604051632aff3bff60e21b81526001600160a01b0382811660048301526060916000916103ea91869182169063abfceffc90602401600060405180830381865afa1580156103bc573d6000803e3d6000fd5b505050506040513d6000823e601f3d908101601f191682016040526103e49190810190613dbd565b85611e73565b949350505050565b6060806060600080856001600160a01b0316635fe3b5676040518163ffffffff1660e01b8152600401602060405180830381865afa158015610438573d6000803e3d6000fd5b505050506040513d601f19601f8201168201806040525081019061045c9190613e56565b90506104688682612b09565b60405163252c221960e11b81526001600160a01b038a81166004830152939850919650945090821690634a58443290602401602060405180830381865afa1580156104b7573d6000803e3d6000fd5b505050506040513d601f19601f820116820180604052508101906104db9190613e73565b9150509193509193565b606061055782836001600160a01b031663b0772d0b6040518163ffffffff1660e01b8152600401600060405180830381865afa158015610529573d6000803e3d6000fd5b505050506040513d6000823e601f3d908101601f191682016040526105519190810190613dbd565b33611e73565b92915050565b600054610100900460ff161580801561057d5750600054600160ff909116105b806105975750303b158015610597575060005460ff166001145b6105ff5760405162461bcd60e51b815260206004820152602e60248201527f496e697469616c697a61626c653a20636f6e747261637420697320616c72656160448201526d191e481a5b9a5d1a585b1a5e995960921b60648201526084015b60405180910390fd5b6000805460ff191660011790558015610622576000805461ff0019166101001790555b6001600160a01b038a166106935760405162461bcd60e51b815260206004820152603260248201527f506f6f6c4469726563746f727920696e7374616e63652063616e6e6f74206265604482015271103a3432903d32b9379030b2323932b9b99760711b60648201526084016105f6565b855187511480156106a5575084518751145b6107005760405162461bcd60e51b815260206004820152602660248201527f48617264636f64656420616464726573736573206c656e67746873206e6f742060448201526532b8bab0b61760d11b60648201526084016105f6565b82518451148015610712575081518451145b6107705760405162461bcd60e51b815260206004820152602960248201527f556e6973776170204c5020746f6b656e206e616d6573206c656e67746873206e60448201526837ba1032b8bab0b61760b91b60648201526084016105f6565b600580546001600160a01b0319166001600160a01b038c16179055885161079e9060019060208c0190613248565b5087516107b29060029060208b0190613248565b5060005b87518110156108905760405180604001604052808883815181106107dc576107dc613e8c565b602002602001015181526020018783815181106107fb576107fb613e8c565b6020026020010151815250600360008a848151811061081c5761081c613e8c565b60200260200101516001600160a01b03166001600160a01b031681526020019081526020016000206000820151816000019080519060200190610860929190613248565b5060208281015180516108799260018501920190613248565b50905050808061088890613eb8565b9150506107b6565b5060005b845181101561097f57600460405180606001604052808784815181106108bc576108bc613e8c565b602002602001015181526020018684815181106108db576108db613e8c565b602002602001015181526020018584815181106108fa576108fa613e8c565b6020908102919091018101519091528254600181018455600093845292819020825180519394600302909101926109349284920190613248565b50602082810151805161094d9260018501920190613248565b5060408201518051610969916002840191602090910190613248565b505050808061097790613eb8565b915050610894565b5080156109c6576000805461ff0019169055604051600181527f7f26b83ff96e1f2b6a682f133852f6798a09c465da95921460cefb38474024989060200160405180910390a15b50505050505050505050565b6005546040516351f6c8e360e11b81526001600160a01b03838116600483015260609283928392839260009283929091169063a3ed91c6906024015b600060405180830381865afa158015610a2b573d6000803e3d6000fd5b505050506040513d6000823e601f3d908101601f19168201604052610a53919081019061400d565b91509150600080610a6383612dec565b949a9399509750929550909350505050565b60008060608060008060009050600080886001600160a01b031663b0772d0b6040518163ffffffff1660e01b8152600401600060405180830381865afa158015610ac3573d6000803e3d6000fd5b505050506040513d6000823e601f3d908101601f19168201604052610aeb9190810190613dbd565b9050600081516001600160401b03811115610b0857610b08613722565b604051908082528060200260200182016040528015610b31578160200160208202803683370190505b509050600082516001600160401b03811115610b4f57610b4f613722565b604051908082528060200260200182016040528015610b8257816020015b6060815260200190600190039081610b6d5790505b50905060008b6001600160a01b0316637dc0d1d06040518163ffffffff1660e01b8152600401602060405180830381865afa158015610bc5573d6000803e3d6000fd5b505050506040513d601f19601f82011682018060405250810190610be99190613e56565b905060005b84518110156110d0576000858281518110610c0b57610c0b613e8c565b6020026020010151905060008e6001600160a01b0316638e8f294b836040518263ffffffff1660e01b8152600401610c5291906001600160a01b0391909116815260200190565b6040805180830381865afa158015610c6e573d6000803e3d6000fd5b505050506040513d601f19601f82011682018060405250810190610c9291906140d3565b50905080610ca15750506110be565b816001600160a01b031663a6afed956040518163ffffffff1660e01b81526004016020604051808303816000875af1158015610ce1573d6000803e3d6000fd5b505050506040513d601f19601f82011682018060405250810190610d059190613e73565b506000826001600160a01b03166373acee986040518163ffffffff1660e01b8152600401602060405180830381865afa158015610d46573d6000803e3d6000fd5b505050506040513d601f19601f82011682018060405250810190610d6a9190613e73565b90506000836001600160a01b0316639826394b6040518163ffffffff1660e01b8152600401602060405180830381865afa158015610dac573d6000803e3d6000fd5b505050506040513d601f19601f82011682018060405250810190610dd09190613e73565b846001600160a01b03166361feacff6040518163ffffffff1660e01b8152600401602060405180830381865afa158015610e0e573d6000803e3d6000fd5b505050506040513d601f19601f82011682018060405250810190610e329190613e73565b856001600160a01b0316638f840ddd6040518163ffffffff1660e01b8152600401602060405180830381865afa158015610e70573d6000803e3d6000fd5b505050506040513d601f19601f82011682018060405250810190610e949190613e73565b610e9e9190614101565b610ea89190614101565b82856001600160a01b0316633b1d21a26040518163ffffffff1660e01b8152600401602060405180830381865afa158015610ee7573d6000803e3d6000fd5b505050506040513d601f19601f82011682018060405250810190610f0b9190613e73565b610f159190614101565b610f1f9190614119565b60405163fc57d4df60e01b81526001600160a01b03868116600483015291925060009188169063fc57d4df90602401602060405180830381865afa158015610f6b573d6000803e3d6000fd5b505050506040513d601f19601f82011682018060405250810190610f8f9190613e73565b9050670de0b6b3a7640000610fa48285614130565b610fae919061414f565b610fb8908d614101565b9b50670de0b6b3a7640000610fcd8284614130565b610fd7919061414f565b610fe1908c614101565b9a50846001600160a01b0316636f307dc36040518163ffffffff1660e01b8152600401602060405180830381865afa158015611021573d6000803e3d6000fd5b505050506040513d601f19601f820116820180604052508101906110459190613e56565b89878151811061105757611057613e8c565b60200260200101906001600160a01b031690816001600160a01b03168152505061109989878151811061108c5761108c613e8c565b6020026020010151612ff3565b90508887815181106110ad576110ad613e8c565b602002602001018190525050505050505b806110c881613eb8565b915050610bee565b506000600560009054906101000a90046001600160a01b03166001600160a01b03166343e20a1d8e6001600160a01b031663f851a4406040518163ffffffff1660e01b8152600401602060405180830381865afa158015611135573d6000803e3d6000fd5b505050506040513d601f19601f820116820180604052508101906111599190613e56565b6040516001600160e01b031960e084901b1681526001600160a01b039091166004820152602401602060405180830381865afa15801561119d573d6000803e3d6000fd5b505050506040513d601f19601f820116820180604052508101906111c19190614171565b959d969c50929a5090985092965092945050505050565b606080606080600080610a53876119e6565b6060806000836001600160a01b031663b0772d0b6040518163ffffffff1660e01b8152600401600060405180830381865afa15801561122d573d6000803e3d6000fd5b505050506040513d6000823e601f3d908101601f191682016040526112559190810190613dbd565b9050600081516001600160401b0381111561127257611272613722565b60405190808252806020026020018201604052801561129b578160200160208202803683370190505b509050600082516001600160401b038111156112b9576112b9613722565b6040519080825280602002602001820160405280156112e2578160200160208202803683370190505b50905060005b83518110156114015783818151811061130357611303613e8c565b602002602001015183828151811061131d5761131d613e8c565b60200260200101906001600160a01b031690816001600160a01b031681525050866001600160a01b03166302c3bcbb84838151811061135e5761135e613e8c565b60200260200101516040518263ffffffff1660e01b815260040161139191906001600160a01b0391909116815260200190565b602060405180830381865afa1580156113ae573d6000803e3d6000fd5b505050506040513d601f19601f820116820180604052508101906113d29190613e73565b8282815181106113e4576113e4613e8c565b6020908102919091010152806113f981613eb8565b9150506112e8565b50909590945092505050565b600280546102e990613d82565b60608060606000846001600160a01b031663b0772d0b6040518163ffffffff1660e01b8152600401600060405180830381865afa15801561145f573d6000803e3d6000fd5b505050506040513d6000823e601f3d908101601f191682016040526114879190810190613dbd565b9050600081516001600160401b038111156114a4576114a4613722565b6040519080825280602002602001820160405280156114cd578160200160208202803683370190505b509050600082516001600160401b038111156114eb576114eb613722565b604051908082528060200260200182016040528015611514578160200160208202803683370190505b509050600083516001600160401b0381111561153257611532613722565b60405190808252806020026020018201604052801561155b578160200160208202803683370190505b50905060005b84518110156117eb5784818151811061157c5761157c613e8c565b602002602001015184828151811061159657611596613e8c565b60200260200101906001600160a01b031690816001600160a01b031681525050886001600160a01b03166302c3bcbb8583815181106115d7576115d7613e8c565b60200260200101516040518263ffffffff1660e01b815260040161160a91906001600160a01b0391909116815260200190565b602060405180830381865afa158015611627573d6000803e3d6000fd5b505050506040513d601f19601f8201168201806040525081019061164b9190613e73565b83828151811061165d5761165d613e8c565b602002602001018181525050600085828151811061167d5761167d613e8c565b60200260200101516001600160a01b0316634aeb3d9a6040518163ffffffff1660e01b8152600401602060405180830381865afa1580156116c2573d6000803e3d6000fd5b505050506040513d601f19601f820116820180604052508101906116e69190613e73565b905060008a6001600160a01b031663fb6243fa87858151811061170b5761170b613e8c565b60200260200101516040518263ffffffff1660e01b815260040161173e91906001600160a01b0391909116815260200190565b602060405180830381865afa15801561175b573d6000803e3d6000fd5b505050506040513d601f19601f8201168201806040525081019061177f9190613e73565b90508181106117ad57600084848151811061179c5761179c613e8c565b6020026020010181815250506117d6565b6117b78183614119565b8484815181106117c9576117c9613e8c565b6020026020010181815250505b505080806117e390613eb8565b915050611561565b50919790965090945092505050565b60608060606000806000866001600160a01b0316635fe3b5676040518163ffffffff1660e01b8152600401602060405180830381865afa158015611842573d6000803e3d6000fd5b505050506040513d601f19601f820116820180604052508101906118669190613e56565b90506118728782612b09565b60405163252c221960e11b81526001600160a01b038b81166004830152939950919750955090821690634a58443290602401602060405180830381865afa1580156118c1573d6000803e3d6000fd5b505050506040513d601f19601f820116820180604052508101906118e59190613e73565b92506000876001600160a01b03166373acee986040518163ffffffff1660e01b8152600401602060405180830381865afa158015611927573d6000803e3d6000fd5b505050506040513d601f19601f8201168201806040525081019061194b9190613e73565b604051631d3965af60e11b81526001600160a01b038a81166004830152919250600091841690633a72cb5e90602401602060405180830381865afa158015611997573d6000803e3d6000fd5b505050506040513d601f19601f820116820180604052508101906119bb9190613e73565b90508181106119cd57600093506119da565b6119d78183614119565b93505b50505091939590929450565b6060806000600560009054906101000a90046001600160a01b03166001600160a01b0316638ec083546040518163ffffffff1660e01b8152600401600060405180830381865afa158015611a3e573d6000803e3d6000fd5b505050506040513d6000823e601f3d908101601f19168201604052611a66919081019061400d565b9150506000805b8251811015611b3a576000838281518110611a8a57611a8a613e8c565b6020026020010151604001519050806001600160a01b0316639b19251a886040518263ffffffff1660e01b8152600401611ad391906001600160a01b0391909116815260200190565b602060405180830381865afa158015611af0573d6000803e3d6000fd5b505050506040513d601f19601f82011682018060405250810190611b149190614171565b15611b275782611b2381613eb8565b9350505b5080611b3281613eb8565b915050611a6d565b506000816001600160401b03811115611b5557611b55613722565b604051908082528060200260200182016040528015611b7e578160200160208202803683370190505b5090506000826001600160401b03811115611b9b57611b9b613722565b604051908082528060200260200182016040528015611c1057816020015b611bfd6040518060a001604052806060815260200160006001600160a01b0316815260200160006001600160a01b0316815260200160008152602001600081525090565b815260200190600190039081611bb95790505b5090506000805b8551811015611d40576000868281518110611c3457611c34613e8c565b6020026020010151604001519050806001600160a01b0316639b19251a8b6040518263ffffffff1660e01b8152600401611c7d91906001600160a01b0391909116815260200190565b602060405180830381865afa158015611c9a573d6000803e3d6000fd5b505050506040513d601f19601f82011682018060405250810190611cbe9190614171565b15611d2d5781858481518110611cd657611cd6613e8c565b602002602001018181525050868281518110611cf457611cf4613e8c565b6020026020010151848481518110611d0e57611d0e613e8c565b60200260200101819052508280611d2490613eb8565b93505050611d40565b5080611d3881613eb8565b915050611c17565b509197909650945050505050565b606080606080600080600560009054906101000a90046001600160a01b03166001600160a01b0316634ae26ea16040518163ffffffff1660e01b8152600401600060405180830381865afa158015611daa573d6000803e3d6000fd5b505050506040513d6000823e601f3d908101601f19168201604052611dd2919081019061400d565b91509150600080611de283612dec565b949993985096509294509092505050565b6005546040516310c51ddf60e11b8152821515600482015260609182918291829160009182916001600160a01b039091169063218a3bbe90602401610a0e565b60055460405163f348960d60e01b81526001600160a01b03838116600483015260609283928392839260009283929091169063f348960d90602401610a0e565b60606000805b8451811015611f42576000866001600160a01b0316638e8f294b878481518110611ea557611ea5613e8c565b60200260200101516040518263ffffffff1660e01b8152600401611ed891906001600160a01b0391909116815260200190565b6040805180830381865afa158015611ef4573d6000803e3d6000fd5b505050506040513d601f19601f82011682018060405250810190611f1891906140d3565b5090508015611f2f5782611f2b81613eb8565b9350505b5080611f3a81613eb8565b915050611e79565b506000816001600160401b03811115611f5d57611f5d613722565b604051908082528060200260200182016040528015611f9657816020015b611f836132cc565b815260200190600190039081611f7b5790505b509050600080876001600160a01b0316637dc0d1d06040518163ffffffff1660e01b8152600401602060405180830381865afa158015611fda573d6000803e3d6000fd5b505050506040513d601f19601f82011682018060405250810190611ffe9190613e56565b905060005b8751811015612afc576000808a6001600160a01b0316638e8f294b8b858151811061203057612030613e8c565b60200260200101516040518263ffffffff1660e01b815260040161206391906001600160a01b0391909116815260200190565b6040805180830381865afa15801561207f573d6000803e3d6000fd5b505050506040513d601f19601f820116820180604052508101906120a391906140d3565b91509150816120b3575050612aea565b6120bb6132cc565b60008b85815181106120cf576120cf613e8c565b6020908102919091018101516001600160a01b0381168085526040805163a6afed9560e01b81529051929450909263a6afed959260048084019382900301816000875af1158015612124573d6000803e3d6000fd5b505050506040513d601f19601f820116820180604052508101906121489190613e73565b50806001600160a01b0316636f307dc36040518163ffffffff1660e01b8152600401602060405180830381865afa158015612187573d6000803e3d6000fd5b505050506040513d601f19601f820116820180604052508101906121ab9190613e56565b6001600160a01b0316602083018190526121c481612ff3565b84604001856060018290528290525050806001600160a01b031663313ce5676040518163ffffffff1660e01b8152600401602060405180830381865afa158015612212573d6000803e3d6000fd5b505050506040513d601f19601f82011682018060405250810190612236919061418e565b60ff1660808401526040516370a0823160e01b81526001600160a01b038d811660048301528216906370a0823190602401602060405180830381865afa158015612284573d6000803e3d6000fd5b505050506040513d601f19601f820116820180604052508101906122a89190613e73565b8360a0018181525050816001600160a01b031663ae9d70b06040518163ffffffff1660e01b8152600401602060405180830381865afa1580156122ef573d6000803e3d6000fd5b505050506040513d601f19601f820116820180604052508101906123139190613e73565b8360c0018181525050816001600160a01b031663f8f9da286040518163ffffffff1660e01b8152600401602060405180830381865afa15801561235a573d6000803e3d6000fd5b505050506040513d601f19601f8201168201806040525081019061237e9190613e73565b8360e0018181525050816001600160a01b0316633b1d21a26040518163ffffffff1660e01b8152600401602060405180830381865afa1580156123c5573d6000803e3d6000fd5b505050506040513d601f19601f820116820180604052508101906123e99190613e73565b83610180018181525050816001600160a01b03166373acee986040518163ffffffff1660e01b8152600401602060405180830381865afa158015612431573d6000803e3d6000fd5b505050506040513d601f19601f820116820180604052508101906124559190613e73565b83610120018181525050816001600160a01b0316639826394b6040518163ffffffff1660e01b8152600401602060405180830381865afa15801561249d573d6000803e3d6000fd5b505050506040513d601f19601f820116820180604052508101906124c19190613e73565b826001600160a01b03166361feacff6040518163ffffffff1660e01b8152600401602060405180830381865afa1580156124ff573d6000803e3d6000fd5b505050506040513d601f19601f820116820180604052508101906125239190613e73565b836001600160a01b0316638f840ddd6040518163ffffffff1660e01b8152600401602060405180830381865afa158015612561573d6000803e3d6000fd5b505050506040513d601f19601f820116820180604052508101906125859190613e73565b61258f9190614101565b6125999190614101565b8361012001518461018001516125af9190614101565b6125b99190614119565b610100840152604051633af9e66960e01b81526001600160a01b038d81166004830152831690633af9e66990602401602060405180830381865afa158015612605573d6000803e3d6000fd5b505050506040513d601f19601f820116820180604052508101906126299190613e73565b6101408401526040516305eff7ef60e21b81526001600160a01b038d811660048301528316906317bfdfbc90602401602060405180830381865afa158015612675573d6000803e3d6000fd5b505050506040513d601f19601f820116820180604052508101906126999190613e73565b61016084015260405163929fe9a160e01b81526001600160a01b038d8116600483015283811660248301528f169063929fe9a190604401602060405180830381865afa1580156126ed573d6000803e3d6000fd5b505050506040513d601f19601f820116820180604052508101906127119190614171565b15156101a08401526040805163bd6d894d60e01b815290516001600160a01b0384169163bd6d894d9160048083019260209291908290030181865afa15801561275e573d6000803e3d6000fd5b505050506040513d601f19601f820116820180604052508101906127829190613e73565b6101c084015260208301516040516315d5220f60e31b81526001600160a01b0391821660048201529088169063aea9107890602401602060405180830381865afa1580156127d4573d6000803e3d6000fd5b505050506040513d601f19601f820116820180604052508101906127f89190613e73565b6101e08401526001600160a01b038781166102008501819052602085015160405163addd509960e01b8152921660048301529063addd509990602401602060405180830381865afa92505050801561286d575060408051601f3d908101601f1916820190925261286a91810190613e56565b60015b61287657612886565b6001600160a01b03166102008401525b8383610220018181525050816001600160a01b031663173b99046040518163ffffffff1660e01b8152600401602060405180830381865afa1580156128cf573d6000803e3d6000fd5b505050506040513d601f19601f820116820180604052508101906128f39190613e73565b83610240018181525050816001600160a01b0316638d02d9a16040518163ffffffff1660e01b8152600401602060405180830381865afa15801561293b573d6000803e3d6000fd5b505050506040513d601f19601f8201168201806040525081019061295f9190613e73565b83610260018181525050816001600160a01b031663c3bf11cd6040518163ffffffff1660e01b8152600401602060405180830381865afa1580156129a7573d6000803e3d6000fd5b505050506040513d601f19601f820116820180604052508101906129cb9190613e73565b610280840152604051636d154ea560e01b81526001600160a01b0383811660048301528f1690636d154ea590602401602060405180830381865afa158015612a17573d6000803e3d6000fd5b505050506040513d601f19601f82011682018060405250810190612a3b9190614171565b15156102a084015260405163731f0c2b60e01b81526001600160a01b0383811660048301528f169063731f0c2b90602401602060405180830381865afa158015612a89573d6000803e3d6000fd5b505050506040513d601f19601f82011682018060405250810190612aad9190614171565b15156102c0840152885183908a908a908110612acb57612acb613e8c565b60200260200101819052508780612ae190613eb8565b98505050505050505b80612af481613eb8565b915050612003565b5091979650505050505050565b60608060606000846001600160a01b031663b0772d0b6040518163ffffffff1660e01b8152600401600060405180830381865afa158015612b4e573d6000803e3d6000fd5b505050506040513d6000823e601f3d908101601f19168201604052612b769190810190613dbd565b905080516001600160401b03811115612b9157612b91613722565b604051908082528060200260200182016040528015612bba578160200160208202803683370190505b50935080516001600160401b03811115612bd657612bd6613722565b604051908082528060200260200182016040528015612bff578160200160208202803683370190505b50925080516001600160401b03811115612c1b57612c1b613722565b604051908082528060200260200182016040528015612c44578160200160208202803683370190505b50915060005b8151811015612de3576000828281518110612c6757612c67613e8c565b60200260200101519050876001600160a01b0316816001600160a01b031614612dd05780868381518110612c9d57612c9d613e8c565b6001600160a01b03928316602091820292909201015260405163940cd6f160e01b8152898216600482015282821660248201529088169063940cd6f190604401602060405180830381865afa158015612cfa573d6000803e3d6000fd5b505050506040513d601f19601f82011682018060405250810190612d1e9190613e73565b858381518110612d3057612d30613e8c565b6020908102919091010152604051631c819e4360e01b81526001600160a01b0389811660048301528281166024830152881690631c819e4390604401602060405180830381865afa158015612d89573d6000803e3d6000fd5b505050506040513d601f19601f82011682018060405250810190612dad9190614171565b848381518110612dbf57612dbf613e8c565b911515602092830291909101909101525b5080612ddb81613eb8565b915050612c4a565b50509250925092565b606080600083516001600160401b03811115612e0a57612e0a613722565b604051908082528060200260200182016040528015612e6f57816020015b612e5c6040518060a00160405280600081526020016000815260200160608152602001606081526020016000151581525090565b815260200190600190039081612e285790505b509050600084516001600160401b03811115612e8d57612e8d613722565b604051908082528060200260200182016040528015612eb6578160200160208202803683370190505b50905060005b8551811015612fe857306001600160a01b03166359d2fea6878381518110612ee657612ee6613e8c565b6020026020010151604001516040518263ffffffff1660e01b8152600401612f1d91906001600160a01b0391909116815260200190565b6000604051808303816000875af1925050508015612f5d57506040513d6000823e601f3d908101601f19168201604052612f5a9190810190614230565b60015b612f8a576001828281518110612f7557612f75613e8c565b91151560209283029190910190910152612fd6565b6040518060a00160405280868152602001858152602001848152602001838152602001821515815250888781518110612fc557612fc5613e8c565b602002602001018190525050505050505b80612fe081613eb8565b915050612ebc565b509094909350915050565b6001600160a01b03811660009081526003602052604090206001018054606091829161301e90613d82565b159050613164576001600160a01b038316600090815260036020526040902080546001820190829061304f90613d82565b80601f016020809104026020016040519081016040528092919081815260200182805461307b90613d82565b80156130c85780601f1061309d576101008083540402835291602001916130c8565b820191906000526020600020905b8154815290600101906020018083116130ab57829003601f168201915b505050505091508080546130db90613d82565b80601f016020809104026020016040519081016040528092919081815260200182805461310790613d82565b80156131545780601f1061312957610100808354040283529160200191613154565b820191906000526020600020905b81548152906001019060200180831161313757829003601f168201915b5050505050905091509150915091565b60008390506000816001600160a01b03166306fdde036040518163ffffffff1660e01b8152600401600060405180830381865afa1580156131a9573d6000803e3d6000fd5b505050506040513d6000823e601f3d908101601f191682016040526131d19190810190614318565b90506000826001600160a01b03166395d89b416040518163ffffffff1660e01b8152600401600060405180830381865afa158015613213573d6000803e3d6000fd5b505050506040513d6000823e601f3d908101601f1916820160405261323b9190810190614318565b9196919550909350505050565b82805461325490613d82565b90600052602060002090601f01602090048101928261327657600085556132bc565b82601f1061328f57805160ff19168380011785556132bc565b828001600101855582156132bc579182015b828111156132bc5782518255916020019190600101906132a1565b506132c892915061339b565b5090565b604051806102e0016040528060006001600160a01b0316815260200160006001600160a01b031681526020016060815260200160608152602001600081526020016000815260200160008152602001600081526020016000815260200160008152602001600081526020016000815260200160008152602001600015158152602001600081526020016000815260200160006001600160a01b03168152602001600081526020016000815260200160008152602001600081526020016000151581526020016000151581525090565b5b808211156132c8576000815560010161339c565b60005b838110156133cb5781810151838201526020016133b3565b838111156133da576000848401525b50505050565b600081518084526133f88160208601602086016133b0565b601f01601f19169290920160200192915050565b60208152600061341f60208301846133e0565b9392505050565b6001600160a01b038116811461343b57600080fd5b50565b6000806040838503121561345157600080fd5b823561345c81613426565b9150602083013561346c81613426565b809150509250929050565b60006020808301818452808551808352604092508286019150828160051b87010184880160005b838110156135f657888303603f19018552815180516001600160a01b031684526102e0818901516001600160a01b038116868b0152508782015181898701526134e9828701826133e0565b9150506060808301518683038288015261350383826133e0565b6080858101519089015260a0808601519089015260c0808601519089015260e08086015190890152610100808601519089015261012080860151908901526101408086015190890152610160808601519089015261018080860151908901526101a0808601511515908901526101c080860151908901526101e08086015190890152610200808601516001600160a01b03169089015261022080860151908901526102408086015190890152610260808601519089015261028080860151908901526102a0808601511515908901526102c09485015115159490970193909352505050938601939086019060010161349e565b509098975050505050505050565b60006020828403121561361657600080fd5b813561341f81613426565b600081518084526020808501945080840160005b8381101561365a5781516001600160a01b031687529582019590820190600101613635565b509495945050505050565b600081518084526020808501945080840160005b8381101561365a57815187529582019590820190600101613679565b600081518084526020808501945080840160005b8381101561365a5781511515875295820195908201906001016136a9565b6080815260006136da6080830187613621565b82810360208401526136ec8187613665565b905082810360408401526137008186613695565b91505082606083015295945050505050565b803561371d81613426565b919050565b634e487b7160e01b600052604160045260246000fd5b60405160a081016001600160401b038111828210171561375a5761375a613722565b60405290565b604051601f8201601f191681016001600160401b038111828210171561378857613788613722565b604052919050565b60006001600160401b038211156137a9576137a9613722565b50601f01601f191660200190565b600082601f8301126137c857600080fd5b81356137db6137d682613790565b613760565b8181528460208386010111156137f057600080fd5b816020850160208301376000918101602001919091529392505050565b60006001600160401b0382111561382657613826613722565b5060051b60200190565b600082601f83011261384157600080fd5b813560206138516137d68361380d565b82815260059290921b8401810191818101908684111561387057600080fd5b8286015b8481101561389457803561388781613426565b8352918301918301613874565b509695505050505050565b600082601f8301126138b057600080fd5b813560206138c06137d68361380d565b82815260059290921b840181019181810190868411156138df57600080fd5b8286015b848110156138945780356001600160401b038111156139025760008081fd5b6139108986838b01016137b7565b8452509183019183016138e3565b60008060008060008060008060006101208a8c03121561393d57600080fd5b6139468a613712565b985060208a01356001600160401b038082111561396257600080fd5b61396e8d838e016137b7565b995060408c013591508082111561398457600080fd5b6139908d838e016137b7565b985060608c01359150808211156139a657600080fd5b6139b28d838e01613830565b975060808c01359150808211156139c857600080fd5b6139d48d838e0161389f565b965060a08c01359150808211156139ea57600080fd5b6139f68d838e0161389f565b955060c08c0135915080821115613a0c57600080fd5b613a188d838e0161389f565b945060e08c0135915080821115613a2e57600080fd5b613a3a8d838e0161389f565b93506101008c0135915080821115613a5157600080fd5b50613a5e8c828d0161389f565b9150509295985092959850929598565b600082825180855260208086019550808260051b84010181860160005b84811015613afb57601f19868403018952815160a08151818652613ab1828701826133e0565b838801516001600160a01b03908116888a01526040808601519091169088015260608085015190880152608093840151939096019290925250509783019790830190600101613a8b565b5090979650505050505050565b6000815180845260208085019450848260051b860182860160005b85811015613afb578383038952613b3b8383516133e0565b98850198925090840190600101613b23565b60006080808352613b6081840188613665565b602084820381860152613b738289613a6e565b91506040858303818701528288518085528385019150838160051b860101848b0160005b83811015613c0857601f19888403018552815160a0815185528882015189860152878201518189870152613bcd82870182613621565b91505060608083015186830382880152613be78382613b08565b938d01511515968d0196909652505094870194925090860190600101613b97565b505088810360608a0152613c1c818b613695565b9d9c50505050505050505050505050565b85815284602082015260a060408201526000613c4c60a0830186613621565b8281036060840152613c5e8186613b08565b91505082151560808301529695505050505050565b604081526000613c866040830185613621565b8281036020840152613c988185613665565b95945050505050565b606081526000613cb46060830186613621565b8281036020840152613cc68186613665565b90508281036040840152613cda8185613665565b9695505050505050565b60a081526000613cf760a0830188613621565b8281036020840152613d098188613665565b90508281036040840152613d1d8187613695565b60608401959095525050608001529392505050565b604081526000613d456040830185613665565b8281036020840152613c988185613a6e565b801515811461343b57600080fd5b600060208284031215613d7757600080fd5b813561341f81613d57565b600181811c90821680613d9657607f821691505b60208210811415613db757634e487b7160e01b600052602260045260246000fd5b50919050565b60006020808385031215613dd057600080fd5b82516001600160401b03811115613de657600080fd5b8301601f81018513613df757600080fd5b8051613e056137d68261380d565b81815260059190911b82018301908381019087831115613e2457600080fd5b928401925b82841015613e4b578351613e3c81613426565b82529284019290840190613e29565b979650505050505050565b600060208284031215613e6857600080fd5b815161341f81613426565b600060208284031215613e8557600080fd5b5051919050565b634e487b7160e01b600052603260045260246000fd5b634e487b7160e01b600052601160045260246000fd5b6000600019821415613ecc57613ecc613ea2565b5060010190565b600082601f830112613ee457600080fd5b8151613ef26137d682613790565b818152846020838601011115613f0757600080fd5b6103ea8260208301602087016133b0565b600082601f830112613f2957600080fd5b81516020613f396137d68361380d565b82815260059290921b84018101918181019086841115613f5857600080fd5b8286015b848110156138945780516001600160401b0380821115613f7c5760008081fd5b9088019060a0828b03601f1901811315613f965760008081fd5b613f9e613738565b8784015183811115613fb05760008081fd5b613fbe8d8a83880101613ed3565b8252506040925082840151613fd281613426565b81890152606084810151613fe581613426565b9382019390935260808481015193820193909352920151908201528352918301918301613f5c565b6000806040838503121561402057600080fd5b82516001600160401b038082111561403757600080fd5b818501915085601f83011261404b57600080fd5b8151602061405b6137d68361380d565b82815260059290921b8401810191818101908984111561407a57600080fd5b948201945b838610156140985785518252948201949082019061407f565b918801519196509093505050808211156140b157600080fd5b506140be85828601613f18565b9150509250929050565b805161371d81613d57565b600080604083850312156140e657600080fd5b82516140f181613d57565b6020939093015192949293505050565b6000821982111561411457614114613ea2565b500190565b60008282101561412b5761412b613ea2565b500390565b600081600019048311821515161561414a5761414a613ea2565b500290565b60008261416c57634e487b7160e01b600052601260045260246000fd5b500490565b60006020828403121561418357600080fd5b815161341f81613d57565b6000602082840312156141a057600080fd5b815160ff8116811461341f57600080fd5b600082601f8301126141c257600080fd5b815160206141d26137d68361380d565b82815260059290921b840181019181810190868411156141f157600080fd5b8286015b848110156138945780516001600160401b038111156142145760008081fd5b6142228986838b0101613ed3565b8452509183019183016141f5565b600080600080600060a0868803121561424857600080fd5b85519450602080870151945060408701516001600160401b038082111561426e57600080fd5b818901915089601f83011261428257600080fd5b81516142906137d68261380d565b81815260059190911b8301840190848101908c8311156142af57600080fd5b938501935b828510156142d65784516142c781613426565b825293850193908501906142b4565b60608c015190985094505050808311156142ef57600080fd5b50506142fd888289016141b1565b92505061430c608087016140c8565b90509295509295909350565b60006020828403121561432a57600080fd5b81516001600160401b0381111561434057600080fd5b6103ea84828501613ed356fea164736f6c634300080a000a",
    "linkReferences": {}
  },
  "methodIdentifiers": {
    "directory()": "c41c2f24",
    "getBorrowCapsDataForAsset(address)": "a505596a",
    "getBorrowCapsForAsset(address)": "1568683a",
    "getPoolAssetsByUser(address,address)": "0c5eb5a4",
    "getPoolAssetsWithData(address)": "27e16c1f",
    "getPoolSummary(address)": "59d2fea6",
    "getPoolsByAccountWithData(address)": "51678684",
    "getPoolsOIonicrWithData(address)": "ef88b53c",
    "getPublicPoolsByVerificationWithData(bool)": "d64996e5",
    "getPublicPoolsWithData()": "d0a164fb",
    "getSupplyCapsDataForPool(address)": "a0795487",
    "getSupplyCapsForPool(address)": "798b9780",
    "getWhitelistedPoolsByAccount(address)": "c3530a63",
    "getWhitelistedPoolsByAccountWithData(address)": "70733375",
    "initialize(address,string,string,address[],string[],string[],string[],string[],string[])": "3a1eb656",
    "name()": "06fdde03",
    "symbol()": "95d89b41"
  }
}