{
  "address": "0xad7de301758eBFC5Bd0Fabc9cFF4bd77Daf23C2A",
  "abi": [
    {
      "inputs": [
        {
          "internalType": "bytes4",
          "name": "_functionSelector",
          "type": "bytes4"
        }
      ],
      "name": "ExtensionNotFound",
      "type": "error"
    },
    {
      "inputs": [
        {
          "internalType": "bytes4",
          "name": "_functionSelector",
          "type": "bytes4"
        },
        {
          "internalType": "address",
          "name": "_currentImpl",
          "type": "address"
        }
      ],
      "name": "FunctionAlreadyAdded",
      "type": "error"
    },
    {
      "inputs": [
        {
          "internalType": "bytes4",
          "name": "_functionSelector",
          "type": "bytes4"
        }
      ],
      "name": "FunctionNotFound",
      "type": "error"
    },
    {
      "anonymous": false,
      "inputs": [
        {
          "indexed": false,
          "internalType": "uint256",
          "name": "cashPrior",
          "type": "uint256"
        },
        {
          "indexed": false,
          "internalType": "uint256",
          "name": "interestAccumulated",
          "type": "uint256"
        },
        {
          "indexed": false,
          "internalType": "uint256",
          "name": "borrowIndex",
          "type": "uint256"
        },
        {
          "indexed": false,
          "internalType": "uint256",
          "name": "totalBorrows",
          "type": "uint256"
        }
      ],
      "name": "AccrueInterest",
      "type": "event"
    },
    {
      "anonymous": false,
      "inputs": [
        {
          "indexed": true,
          "internalType": "address",
          "name": "owner",
          "type": "address"
        },
        {
          "indexed": true,
          "internalType": "address",
          "name": "spender",
          "type": "address"
        },
        {
          "indexed": false,
          "internalType": "uint256",
          "name": "amount",
          "type": "uint256"
        }
      ],
      "name": "Approval",
      "type": "event"
    },
    {
      "anonymous": false,
      "inputs": [
        {
          "indexed": false,
          "internalType": "address",
          "name": "borrower",
          "type": "address"
        },
        {
          "indexed": false,
          "internalType": "uint256",
          "name": "borrowAmount",
          "type": "uint256"
        },
        {
          "indexed": false,
          "internalType": "uint256",
          "name": "accountBorrows",
          "type": "uint256"
        },
        {
          "indexed": false,
          "internalType": "uint256",
          "name": "totalBorrows",
          "type": "uint256"
        }
      ],
      "name": "Borrow",
      "type": "event"
    },
    {
      "anonymous": false,
      "inputs": [
        {
          "indexed": false,
          "internalType": "uint256",
          "name": "error",
          "type": "uint256"
        },
        {
          "indexed": false,
          "internalType": "uint256",
          "name": "info",
          "type": "uint256"
        },
        {
          "indexed": false,
          "internalType": "uint256",
          "name": "detail",
          "type": "uint256"
        }
      ],
      "name": "Failure",
      "type": "event"
    },
    {
      "anonymous": false,
      "inputs": [
        {
          "indexed": false,
          "internalType": "address",
          "name": "liquidator",
          "type": "address"
        },
        {
          "indexed": false,
          "internalType": "address",
          "name": "borrower",
          "type": "address"
        },
        {
          "indexed": false,
          "internalType": "uint256",
          "name": "repayAmount",
          "type": "uint256"
        },
        {
          "indexed": false,
          "internalType": "address",
          "name": "cTokenCollateral",
          "type": "address"
        },
        {
          "indexed": false,
          "internalType": "uint256",
          "name": "seizeTokens",
          "type": "uint256"
        }
      ],
      "name": "LiquidateBorrow",
      "type": "event"
    },
    {
      "anonymous": false,
      "inputs": [
        {
          "indexed": false,
          "internalType": "address",
          "name": "minter",
          "type": "address"
        },
        {
          "indexed": false,
          "internalType": "uint256",
          "name": "mintAmount",
          "type": "uint256"
        },
        {
          "indexed": false,
          "internalType": "uint256",
          "name": "mintTokens",
          "type": "uint256"
        }
      ],
      "name": "Mint",
      "type": "event"
    },
    {
      "anonymous": false,
      "inputs": [
        {
          "indexed": false,
          "internalType": "uint256",
          "name": "oldAdminFeeMantissa",
          "type": "uint256"
        },
        {
          "indexed": false,
          "internalType": "uint256",
          "name": "newAdminFeeMantissa",
          "type": "uint256"
        }
      ],
      "name": "NewAdminFee",
      "type": "event"
    },
    {
      "anonymous": false,
      "inputs": [
        {
          "indexed": false,
          "internalType": "uint256",
          "name": "oldFuseFeeMantissa",
          "type": "uint256"
        },
        {
          "indexed": false,
          "internalType": "uint256",
          "name": "newFuseFeeMantissa",
          "type": "uint256"
        }
      ],
      "name": "NewFuseFee",
      "type": "event"
    },
    {
      "anonymous": false,
      "inputs": [
        {
          "indexed": false,
          "internalType": "address",
          "name": "oldImplementation",
          "type": "address"
        },
        {
          "indexed": false,
          "internalType": "address",
          "name": "newImplementation",
          "type": "address"
        }
      ],
      "name": "NewImplementation",
      "type": "event"
    },
    {
      "anonymous": false,
      "inputs": [
        {
          "indexed": false,
          "internalType": "contract InterestRateModel",
          "name": "oldInterestRateModel",
          "type": "address"
        },
        {
          "indexed": false,
          "internalType": "contract InterestRateModel",
          "name": "newInterestRateModel",
          "type": "address"
        }
      ],
      "name": "NewMarketInterestRateModel",
      "type": "event"
    },
    {
      "anonymous": false,
      "inputs": [
        {
          "indexed": false,
          "internalType": "address",
          "name": "oldImpl",
          "type": "address"
        },
        {
          "indexed": false,
          "internalType": "address",
          "name": "newImpl",
          "type": "address"
        }
      ],
      "name": "NewPluginImplementation",
      "type": "event"
    },
    {
      "anonymous": false,
      "inputs": [
        {
          "indexed": false,
          "internalType": "uint256",
          "name": "oldReserveFactorMantissa",
          "type": "uint256"
        },
        {
          "indexed": false,
          "internalType": "uint256",
          "name": "newReserveFactorMantissa",
          "type": "uint256"
        }
      ],
      "name": "NewReserveFactor",
      "type": "event"
    },
    {
      "anonymous": false,
      "inputs": [
        {
          "indexed": false,
          "internalType": "address",
          "name": "redeemer",
          "type": "address"
        },
        {
          "indexed": false,
          "internalType": "uint256",
          "name": "redeemAmount",
          "type": "uint256"
        },
        {
          "indexed": false,
          "internalType": "uint256",
          "name": "redeemTokens",
          "type": "uint256"
        }
      ],
      "name": "Redeem",
      "type": "event"
    },
    {
      "anonymous": false,
      "inputs": [
        {
          "indexed": false,
          "internalType": "address",
          "name": "payer",
          "type": "address"
        },
        {
          "indexed": false,
          "internalType": "address",
          "name": "borrower",
          "type": "address"
        },
        {
          "indexed": false,
          "internalType": "uint256",
          "name": "repayAmount",
          "type": "uint256"
        },
        {
          "indexed": false,
          "internalType": "uint256",
          "name": "accountBorrows",
          "type": "uint256"
        },
        {
          "indexed": false,
          "internalType": "uint256",
          "name": "totalBorrows",
          "type": "uint256"
        }
      ],
      "name": "RepayBorrow",
      "type": "event"
    },
    {
      "anonymous": false,
      "inputs": [
        {
          "indexed": false,
          "internalType": "address",
          "name": "benefactor",
          "type": "address"
        },
        {
          "indexed": false,
          "internalType": "uint256",
          "name": "addAmount",
          "type": "uint256"
        },
        {
          "indexed": false,
          "internalType": "uint256",
          "name": "newTotalReserves",
          "type": "uint256"
        }
      ],
      "name": "ReservesAdded",
      "type": "event"
    },
    {
      "anonymous": false,
      "inputs": [
        {
          "indexed": false,
          "internalType": "address",
          "name": "admin",
          "type": "address"
        },
        {
          "indexed": false,
          "internalType": "uint256",
          "name": "reduceAmount",
          "type": "uint256"
        },
        {
          "indexed": false,
          "internalType": "uint256",
          "name": "newTotalReserves",
          "type": "uint256"
        }
      ],
      "name": "ReservesReduced",
      "type": "event"
    },
    {
      "anonymous": false,
      "inputs": [
        {
          "indexed": true,
          "internalType": "address",
          "name": "from",
          "type": "address"
        },
        {
          "indexed": true,
          "internalType": "address",
          "name": "to",
          "type": "address"
        },
        {
          "indexed": false,
          "internalType": "uint256",
          "name": "amount",
          "type": "uint256"
        }
      ],
      "name": "Transfer",
      "type": "event"
    },
    {
      "stateMutability": "nonpayable",
      "type": "fallback"
    },
    {
      "inputs": [
        {
          "internalType": "bytes",
          "name": "data",
          "type": "bytes"
        }
      ],
      "name": "_becomeImplementation",
      "outputs": [],
      "stateMutability": "nonpayable",
      "type": "function"
    },
    {
      "inputs": [],
      "name": "_listExtensions",
      "outputs": [
        {
          "internalType": "address[]",
          "name": "",
          "type": "address[]"
        }
      ],
      "stateMutability": "view",
      "type": "function"
    },
    {
      "inputs": [],
      "name": "_prepare",
      "outputs": [],
      "stateMutability": "payable",
      "type": "function"
    },
    {
      "inputs": [
        {
          "internalType": "contract DiamondExtension",
          "name": "extensionToAdd",
          "type": "address"
        },
        {
          "internalType": "contract DiamondExtension",
          "name": "extensionToReplace",
          "type": "address"
        }
      ],
      "name": "_registerExtension",
      "outputs": [],
      "stateMutability": "nonpayable",
      "type": "function"
    },
    {
      "inputs": [
        {
          "internalType": "address",
          "name": "implementation_",
          "type": "address"
        },
        {
          "internalType": "bool",
          "name": "allowResign",
          "type": "bool"
        },
        {
          "internalType": "bytes",
          "name": "becomeImplementationData",
          "type": "bytes"
        }
      ],
      "name": "_setImplementationSafe",
      "outputs": [],
      "stateMutability": "nonpayable",
      "type": "function"
    },
    {
      "inputs": [
        {
          "internalType": "address",
          "name": "_plugin",
          "type": "address"
        }
      ],
      "name": "_updatePlugin",
      "outputs": [],
      "stateMutability": "nonpayable",
      "type": "function"
    },
    {
      "inputs": [
        {
          "internalType": "uint256",
          "name": "withdrawAmount",
          "type": "uint256"
        }
      ],
      "name": "_withdrawAdminFees",
      "outputs": [
        {
          "internalType": "uint256",
          "name": "",
          "type": "uint256"
        }
      ],
      "stateMutability": "nonpayable",
      "type": "function"
    },
    {
      "inputs": [
        {
          "internalType": "uint256",
          "name": "withdrawAmount",
          "type": "uint256"
        }
      ],
      "name": "_withdrawFuseFees",
      "outputs": [
        {
          "internalType": "uint256",
          "name": "",
          "type": "uint256"
        }
      ],
      "stateMutability": "nonpayable",
      "type": "function"
    },
    {
      "inputs": [],
      "name": "accrualBlockNumber",
      "outputs": [
        {
          "internalType": "uint256",
          "name": "",
          "type": "uint256"
        }
      ],
      "stateMutability": "view",
      "type": "function"
    },
    {
      "inputs": [],
      "name": "adminFeeMantissa",
      "outputs": [
        {
          "internalType": "uint256",
          "name": "",
          "type": "uint256"
        }
      ],
      "stateMutability": "view",
      "type": "function"
    },
    {
      "inputs": [
        {
          "internalType": "address",
          "name": "_token",
          "type": "address"
        },
        {
          "internalType": "address",
          "name": "_spender",
          "type": "address"
        }
      ],
      "name": "approve",
      "outputs": [],
      "stateMutability": "nonpayable",
      "type": "function"
    },
    {
      "inputs": [
        {
          "internalType": "uint256",
          "name": "borrowAmount",
          "type": "uint256"
        }
      ],
      "name": "borrow",
      "outputs": [
        {
          "internalType": "uint256",
          "name": "",
          "type": "uint256"
        }
      ],
      "stateMutability": "nonpayable",
      "type": "function"
    },
    {
      "inputs": [],
      "name": "borrowIndex",
      "outputs": [
        {
          "internalType": "uint256",
          "name": "",
          "type": "uint256"
        }
      ],
      "stateMutability": "view",
      "type": "function"
    },
    {
      "inputs": [],
      "name": "claim",
      "outputs": [],
      "stateMutability": "nonpayable",
      "type": "function"
    },
    {
      "inputs": [],
      "name": "comptroller",
      "outputs": [
        {
          "internalType": "contract IComptroller",
          "name": "",
          "type": "address"
        }
      ],
      "stateMutability": "view",
      "type": "function"
    },
    {
      "inputs": [],
      "name": "contractType",
      "outputs": [
        {
          "internalType": "string",
          "name": "",
          "type": "string"
        }
      ],
      "stateMutability": "pure",
      "type": "function"
    },
    {
      "inputs": [],
      "name": "decimals",
      "outputs": [
        {
          "internalType": "uint8",
          "name": "",
          "type": "uint8"
        }
      ],
      "stateMutability": "view",
      "type": "function"
    },
    {
      "inputs": [],
      "name": "feeSeizeShareMantissa",
      "outputs": [
        {
          "internalType": "uint256",
          "name": "",
          "type": "uint256"
        }
      ],
      "stateMutability": "view",
      "type": "function"
    },
    {
      "inputs": [],
      "name": "fuseAdmin",
      "outputs": [
        {
          "internalType": "address payable",
          "name": "",
          "type": "address"
        }
      ],
      "stateMutability": "view",
      "type": "function"
    },
    {
      "inputs": [],
      "name": "fuseFeeMantissa",
      "outputs": [
        {
          "internalType": "uint256",
          "name": "",
          "type": "uint256"
        }
      ],
      "stateMutability": "view",
      "type": "function"
    },
    {
      "inputs": [],
      "name": "getCash",
      "outputs": [
        {
          "internalType": "uint256",
          "name": "",
          "type": "uint256"
        }
      ],
      "stateMutability": "view",
      "type": "function"
    },
    {
      "inputs": [],
      "name": "implementation",
      "outputs": [
        {
          "internalType": "address",
          "name": "",
          "type": "address"
        }
      ],
      "stateMutability": "view",
      "type": "function"
    },
    {
      "inputs": [
        {
          "internalType": "address",
          "name": "underlying_",
          "type": "address"
        },
        {
          "internalType": "contract IComptroller",
          "name": "comptroller_",
          "type": "address"
        },
        {
          "internalType": "address payable",
          "name": "fuseAdmin_",
          "type": "address"
        },
        {
          "internalType": "contract InterestRateModel",
          "name": "interestRateModel_",
          "type": "address"
        },
        {
          "internalType": "string",
          "name": "name_",
          "type": "string"
        },
        {
          "internalType": "string",
          "name": "symbol_",
          "type": "string"
        },
        {
          "internalType": "uint256",
          "name": "reserveFactorMantissa_",
          "type": "uint256"
        },
        {
          "internalType": "uint256",
          "name": "adminFeeMantissa_",
          "type": "uint256"
        }
      ],
      "name": "initialize",
      "outputs": [],
      "stateMutability": "nonpayable",
      "type": "function"
    },
    {
      "inputs": [
        {
          "internalType": "contract IComptroller",
          "name": "comptroller_",
          "type": "address"
        },
        {
          "internalType": "address payable",
          "name": "fuseAdmin_",
          "type": "address"
        },
        {
          "internalType": "contract InterestRateModel",
          "name": "interestRateModel_",
          "type": "address"
        },
        {
          "internalType": "uint256",
          "name": "initialExchangeRateMantissa_",
          "type": "uint256"
        },
        {
          "internalType": "string",
          "name": "name_",
          "type": "string"
        },
        {
          "internalType": "string",
          "name": "symbol_",
          "type": "string"
        },
        {
          "internalType": "uint8",
          "name": "decimals_",
          "type": "uint8"
        },
        {
          "internalType": "uint256",
          "name": "reserveFactorMantissa_",
          "type": "uint256"
        },
        {
          "internalType": "uint256",
          "name": "adminFeeMantissa_",
          "type": "uint256"
        }
      ],
      "name": "initialize",
      "outputs": [],
      "stateMutability": "nonpayable",
      "type": "function"
    },
    {
      "inputs": [],
      "name": "interestRateModel",
      "outputs": [
        {
          "internalType": "contract InterestRateModel",
          "name": "",
          "type": "address"
        }
      ],
      "stateMutability": "view",
      "type": "function"
    },
    {
      "inputs": [],
      "name": "isCEther",
      "outputs": [
        {
          "internalType": "bool",
          "name": "",
          "type": "bool"
        }
      ],
      "stateMutability": "view",
      "type": "function"
    },
    {
      "inputs": [
        {
          "internalType": "address",
          "name": "borrower",
          "type": "address"
        },
        {
          "internalType": "uint256",
          "name": "repayAmount",
          "type": "uint256"
        },
        {
          "internalType": "address",
          "name": "cTokenCollateral",
          "type": "address"
        }
      ],
      "name": "liquidateBorrow",
      "outputs": [
        {
          "internalType": "uint256",
          "name": "",
          "type": "uint256"
        }
      ],
      "stateMutability": "nonpayable",
      "type": "function"
    },
    {
      "inputs": [
        {
          "internalType": "uint256",
          "name": "mintAmount",
          "type": "uint256"
        }
      ],
      "name": "mint",
      "outputs": [
        {
          "internalType": "uint256",
          "name": "",
          "type": "uint256"
        }
      ],
      "stateMutability": "nonpayable",
      "type": "function"
    },
    {
      "inputs": [],
      "name": "name",
      "outputs": [
        {
          "internalType": "string",
          "name": "",
          "type": "string"
        }
      ],
      "stateMutability": "view",
      "type": "function"
    },
    {
      "inputs": [],
      "name": "plugin",
      "outputs": [
        {
          "internalType": "contract IERC4626",
          "name": "",
          "type": "address"
        }
      ],
      "stateMutability": "view",
      "type": "function"
    },
    {
      "inputs": [],
      "name": "protocolSeizeShareMantissa",
      "outputs": [
        {
          "internalType": "uint256",
          "name": "",
          "type": "uint256"
        }
      ],
      "stateMutability": "view",
      "type": "function"
    },
    {
      "inputs": [
        {
          "internalType": "uint256",
          "name": "redeemTokens",
          "type": "uint256"
        }
      ],
      "name": "redeem",
      "outputs": [
        {
          "internalType": "uint256",
          "name": "",
          "type": "uint256"
        }
      ],
      "stateMutability": "nonpayable",
      "type": "function"
    },
    {
      "inputs": [
        {
          "internalType": "uint256",
          "name": "redeemAmount",
          "type": "uint256"
        }
      ],
      "name": "redeemUnderlying",
      "outputs": [
        {
          "internalType": "uint256",
          "name": "",
          "type": "uint256"
        }
      ],
      "stateMutability": "nonpayable",
      "type": "function"
    },
    {
      "inputs": [
        {
          "internalType": "uint256",
          "name": "repayAmount",
          "type": "uint256"
        }
      ],
      "name": "repayBorrow",
      "outputs": [
        {
          "internalType": "uint256",
          "name": "",
          "type": "uint256"
        }
      ],
      "stateMutability": "nonpayable",
      "type": "function"
    },
    {
      "inputs": [
        {
          "internalType": "address",
          "name": "borrower",
          "type": "address"
        },
        {
          "internalType": "uint256",
          "name": "repayAmount",
          "type": "uint256"
        }
      ],
      "name": "repayBorrowBehalf",
      "outputs": [
        {
          "internalType": "uint256",
          "name": "",
          "type": "uint256"
        }
      ],
      "stateMutability": "nonpayable",
      "type": "function"
    },
    {
      "inputs": [],
      "name": "reserveFactorMantissa",
      "outputs": [
        {
          "internalType": "uint256",
          "name": "",
          "type": "uint256"
        }
      ],
      "stateMutability": "view",
      "type": "function"
    },
    {
      "inputs": [
        {
          "internalType": "address",
          "name": "liquidator",
          "type": "address"
        },
        {
          "internalType": "address",
          "name": "borrower",
          "type": "address"
        },
        {
          "internalType": "uint256",
          "name": "seizeTokens",
          "type": "uint256"
        }
      ],
      "name": "seize",
      "outputs": [
        {
          "internalType": "uint256",
          "name": "",
          "type": "uint256"
        }
      ],
      "stateMutability": "nonpayable",
      "type": "function"
    },
    {
      "inputs": [
        {
          "internalType": "address",
          "name": "from",
          "type": "address"
        },
        {
          "internalType": "uint256",
          "name": "amount",
          "type": "uint256"
        }
      ],
      "name": "selfTransferIn",
      "outputs": [
        {
          "internalType": "uint256",
          "name": "",
          "type": "uint256"
        }
      ],
      "stateMutability": "nonpayable",
      "type": "function"
    },
    {
      "inputs": [
        {
          "internalType": "address",
          "name": "to",
          "type": "address"
        },
        {
          "internalType": "uint256",
          "name": "amount",
          "type": "uint256"
        }
      ],
      "name": "selfTransferOut",
      "outputs": [],
      "stateMutability": "nonpayable",
      "type": "function"
    },
    {
      "inputs": [],
      "name": "symbol",
      "outputs": [
        {
          "internalType": "string",
          "name": "",
          "type": "string"
        }
      ],
      "stateMutability": "view",
      "type": "function"
    },
    {
      "inputs": [],
      "name": "totalAdminFees",
      "outputs": [
        {
          "internalType": "uint256",
          "name": "",
          "type": "uint256"
        }
      ],
      "stateMutability": "view",
      "type": "function"
    },
    {
      "inputs": [],
      "name": "totalBorrows",
      "outputs": [
        {
          "internalType": "uint256",
          "name": "",
          "type": "uint256"
        }
      ],
      "stateMutability": "view",
      "type": "function"
    },
    {
      "inputs": [],
      "name": "totalFuseFees",
      "outputs": [
        {
          "internalType": "uint256",
          "name": "",
          "type": "uint256"
        }
      ],
      "stateMutability": "view",
      "type": "function"
    },
    {
      "inputs": [],
      "name": "totalReserves",
      "outputs": [
        {
          "internalType": "uint256",
          "name": "",
          "type": "uint256"
        }
      ],
      "stateMutability": "view",
      "type": "function"
    },
    {
      "inputs": [],
      "name": "totalSupply",
      "outputs": [
        {
          "internalType": "uint256",
          "name": "",
          "type": "uint256"
        }
      ],
      "stateMutability": "view",
      "type": "function"
    },
    {
      "inputs": [],
      "name": "underlying",
      "outputs": [
        {
          "internalType": "address",
          "name": "",
          "type": "address"
        }
      ],
      "stateMutability": "view",
      "type": "function"
    }
  ],
  "transactionHash": "0x3762c460dbb53957b9941c673473cf7ab512e59d18a448c198abfecb6c62944e",
  "args": [],
  "numDeployments": 35,
  "bytecode": {
    "object": "0x608060405234801561001057600080fd5b50615f4180620000216000396000f3fe60806040526004361061027d5760003560e01c80636c540baf1161014f578063aa5af0fd116100c1578063db006a751161007a578063db006a75146107d5578063dbfe7c19146107f5578063dc028ab11461080b578063ef01df4f14610821578063f3fdb15a14610841578063f5e3c462146108615761027d565b8063aa5af0fd146106f8578063ac784ddc1461070e578063b2a02ff114610733578063be99f11914610753578063c5ebeaec1461076f578063cb2ef6f71461078f5761027d565b80638d02d9a1116101135780638d02d9a1146106575780638f840ddd1461066d57806395d89b4114610683578063a03dce8d14610698578063a0712d68146106b8578063a7b820df146106d85761027d565b80636c540baf146105c15780636f307dc3146105d75780637e5465ba146105f7578063852a12e31461061757806389cd9855146106375761027d565b80632608f818116101f357806356e67728116101ac57806356e677281461050e5780635c60da1b1461052e5780635fe3b5671461054e57806361feacff1461056e5780636333d001146105845780636752e702146105a65761027d565b80632608f81814610468578063313ce567146104885780633b1d21a2146104b457806347bd3718146104c95780634e71d92d146104df57806350d85b73146104ee5761027d565b806315761d511161024557806315761d51146103bc578063173b9904146103f457806318160ddd1461040a57806319f496c8146104205780631db7894414610440578063219ef65c146104485761027d565b8063067db1b31461030157806306db3ecd1461032357806306fdde03146103435780630e7527021461036e578063135f13341461039c575b34801561028957600080fd5b5060006102a16000356001600160e01b031916610881565b90506001600160a01b0381166102dd57604051630a82dd7360e31b81526001600160e01b03196000351660048201526024015b60405180910390fd5b3660008037600080366000845af43d6000803e8080156102fc573d6000f35b3d6000fd5b34801561030d57600080fd5b5061032161031c3660046154e3565b6108e4565b005b34801561032f57600080fd5b5061032161033e3660046155e7565b610929565b34801561034f57600080fd5b50610358610a37565b6040516103659190615701565b60405180910390f35b34801561037a57600080fd5b5061038e610389366004615714565b610ac5565b604051908152602001610365565b3480156103a857600080fd5b5061038e6103b73660046154e3565b610b80565b3480156103c857600080fd5b506001546103dc906001600160a01b031681565b6040516001600160a01b039091168152602001610365565b34801561040057600080fd5b5061038e600b5481565b34801561041657600080fd5b5061038e60125481565b34801561042c57600080fd5b5061032161043b36600461572d565b610bcc565b610321610ffd565b34801561045457600080fd5b50610321610463366004615764565b61113b565b34801561047457600080fd5b5061038e6104833660046154e3565b61157e565b34801561049457600080fd5b506005546104a29060ff1681565b60405160ff9091168152602001610365565b3480156104c057600080fd5b5061038e611639565b3480156104d557600080fd5b5061038e600e5481565b3480156104eb57600080fd5b50005b3480156104fa57600080fd5b5061032161050936600461583a565b611648565b34801561051a57600080fd5b506103216105293660046158cc565b6116b3565b34801561053a57600080fd5b506000546103dc906001600160a01b031681565b34801561055a57600080fd5b506006546103dc906001600160a01b031681565b34801561057a57600080fd5b5061038e60105481565b34801561059057600080fd5b50610599611811565b6040516103659190615915565b3480156105b257600080fd5b5061038e666379da05b6000081565b3480156105cd57600080fd5b5061038e600c5481565b3480156105e357600080fd5b506016546103dc906001600160a01b031681565b34801561060357600080fd5b50610321610612366004615962565b61181b565b34801561062357600080fd5b5061038e610632366004615714565b611914565b34801561064357600080fd5b50610321610652366004615962565b6119c3565b34801561066357600080fd5b5061038e60095481565b34801561067957600080fd5b5061038e600f5481565b34801561068f57600080fd5b50610358611a97565b3480156106a457600080fd5b5061038e6106b3366004615714565b611aa4565b3480156106c457600080fd5b5061038e6106d3366004615714565b611ba5565b3480156106e457600080fd5b5061038e6106f3366004615714565b611c56565b34801561070457600080fd5b5061038e600d5481565b34801561071a57600080fd5b50610723600081565b6040519015158152602001610365565b34801561073f57600080fd5b5061038e61074e36600461599b565b611da1565b34801561075f57600080fd5b5061038e67016345785d8a000081565b34801561077b57600080fd5b5061038e61078a366004615714565b611dcd565b34801561079b57600080fd5b5060408051808201909152601b81527f434572633230506c7567696e5265776172647344656c656761746500000000006020820152610358565b3480156107e157600080fd5b5061038e6107f0366004615714565b611e7c565b34801561080157600080fd5b5061038e600a5481565b34801561081757600080fd5b5061038e60115481565b34801561082d57600080fd5b506017546103dc906001600160a01b031681565b34801561084d57600080fd5b506007546103dc906001600160a01b031681565b34801561086d57600080fd5b5061038e61087c3660046159dc565b611f2b565b6001600160e01b031981166000908152600080516020615ef5833981519152602081905260408220546001600160a01b0316806108dd57604051631f3f429960e31b81526001600160e01b0319851660048201526024016102d4565b9392505050565b33301461091b5760405162461bcd60e51b815260206004820152600560248201526410b9b2b63360d91b60448201526064016102d4565b6109258282611fe8565b5050565b60006702c68af0bb14000090506000896001600160a01b031663313ce5676040518163ffffffff1660e01b8152600401602060405180830381865afa158015610976573d6000803e3d6000fd5b505050506040513d601f19601f8201168201806040525081019061099a9190615a1e565b90506109ad898989858a8a878b8b61113b565b601680546001600160a01b0319166001600160a01b038c16908117909155604080516318160ddd60e01b815290516318160ddd916004808201926020929091908290030181865afa158015610a06573d6000803e3d6000fd5b505050506040513d601f19601f82011682018060405250810190610a2a9190615a3b565b5050505050505050505050565b60038054610a4490615a54565b80601f0160208091040260200160405190810160405280929190818152602001828054610a7090615a54565b8015610abd5780601f10610a9257610100808354040283529160200191610abd565b820191906000526020600020905b815481529060010190602001808311610aa057829003601f168201915b505050505081565b600154600654604051631beb2b9760e31b81526000926001600160a01b039081169263df595cb892610b0e92909116903390309087356001600160e01b03191690600401615a89565b602060405180830381865afa158015610b2b573d6000803e3d6000fd5b505050506040513d601f19601f82011682018060405250810190610b4f9190615abc565b610b6b5760405162461bcd60e51b81526004016102d490615ad9565b6000610b7683612065565b509150505b919050565b6000333014610bb95760405162461bcd60e51b815260206004820152600560248201526410b9b2b63360d91b60448201526064016102d4565b610bc383836120f6565b90505b92915050565b33301480610bdd5750610bdd6121ac565b610c3d5760405162461bcd60e51b815260206004820152602b60248201527f6f6e6c792073656c6620616e642061646d696e732063616e2063616c6c205f7560448201526a383230ba32a8363ab3b4b760a91b60648201526084016102d4565b6017546000906001600160a01b0316610c565781610c63565b6017546001600160a01b03165b600154604051637583efcf60e01b81526001600160a01b0380841660048301528581166024830152929350911690637583efcf90604401602060405180830381865afa158015610cb7573d6000803e3d6000fd5b505050506040513d601f19601f82011682018060405250810190610cdb9190615abc565b610d355760405162461bcd60e51b815260206004820152602560248201527f706c7567696e20696d706c656d656e746174696f6e206e6f742077686974656c6044820152641a5cdd195960da1b60648201526084016102d4565b6017546001600160a01b031615801590610db957506017546040516370a0823160e01b81523060048201526001600160a01b03909116906370a0823190602401602060405180830381865afa158015610d92573d6000803e3d6000fd5b505050506040513d601f19601f82011682018060405250810190610db69190615a3b565b15155b15610ea3576017546040516370a0823160e01b81523060048201526001600160a01b039091169063ba0876529082906370a0823190602401602060405180830381865afa158015610e0e573d6000803e3d6000fd5b505050506040513d601f19601f82011682018060405250810190610e329190615a3b565b6040516001600160e01b031960e084901b1681526004810191909152306024820181905260448201526064016020604051808303816000875af1158015610e7d573d6000803e3d6000fd5b505050506040513d601f19601f82011682018060405250810190610ea19190615a3b565b505b601780546001600160a01b0319166001600160a01b0384811691821790925560165460405163095ea7b360e01b8152600481019290925260001960248301529091169063095ea7b3906044016020604051808303816000875af1158015610f0e573d6000803e3d6000fd5b505050506040513d601f19601f82011682018060405250810190610f329190615abc565b506016546040516370a0823160e01b81523060048201526000916001600160a01b0316906370a0823190602401602060405180830381865afa158015610f7c573d6000803e3d6000fd5b505050506040513d601f19601f82011682018060405250810190610fa09190615a3b565b90508015610fb157610fb18161231d565b601754604080516001600160a01b03928316815291851660208301527fb32957d2794aaec3ea2c8852833af2192fe9fb518777de1f883e9e821781da75910160405180910390a1505050565b33301480159061107f5750600660009054906101000a90046001600160a01b03166001600160a01b031663dd5cd22c6040518163ffffffff1660e01b8152600401602060405180830381865afa15801561105b573d6000803e3d6000fd5b505050506040513d601f19601f8201168201806040525081019061107f9190615abc565b1561113957600154600080546040516345cc970560e01b81526001600160a01b039182166004820152919283928392909116906345cc970590602401600060405180830381865afa1580156110d8573d6000803e3d6000fd5b505050506040513d6000823e601f3d908101601f191682016040526111009190810190615b01565b60005492955090935091506001600160a01b0380851691161461112d57611128838383612392565b611135565b611135612530565b5050505b565b336001600160a01b038916146111635760405162461bcd60e51b81526004016102d490615ba1565b600c541580156111735750600d54155b6111ae5760405162461bcd60e51b815260206004820152600c60248201526b085a5b9a5d1a585b1a5e995960a21b60448201526064016102d4565b600180546001600160a01b0319166001600160a01b038a1617905560088690558561120d5760405162461bcd60e51b815260206004820152600f60248201526e02165786368616e6765526174653e3608c1b60448201526064016102d4565b600680546001600160a01b0319166001600160a01b038b81169190911790915543600c55670de0b6b3a7640000600d55604080516310c8fc9560e11b8152905191891691632191f92a916004808201926020929091908290030181865afa15801561127c573d6000803e3d6000fd5b505050506040513d601f19601f820116820180604052508101906112a09190615abc565b6112d65760405162461bcd60e51b8152602060048201526007602482015266216e6f7449726d60c81b60448201526064016102d4565b600780546001600160a01b0319166001600160a01b038916908117909155604080516000815260208101929092527fedffc32e068c7c95dfd4bdfd5c4d939a084d6b11c4199eac8436ed234d72f926910160405180910390a18451611342906003906020880190615435565b508351611356906004906020870190615435565b506005805460ff191660ff8516179055600a54600954670de0b6b3a764000091906113819085615bd7565b61138b9190615bd7565b11156113c35760405162461bcd60e51b8152602060048201526007602482015266085c998e9cd95d60ca1b60448201526064016102d4565b600b8290556040805160008152602081018490527faaa68312e2ea9d50e16af5068410ab56e1a1fd06037b1a35664812c30f821460910160405180910390a160001981141561141157506009545b6001546040805163dd86fea160e01b815290516000926001600160a01b03169163dd86fea19160048083019260209291908290030181865afa15801561145b573d6000803e3d6000fd5b505050506040513d601f19601f8201168201806040525081019061147f9190615a3b565b9050670de0b6b3a76400008183600b546114999190615bd7565b6114a39190615bd7565b11156114e15760405162461bcd60e51b815260206004820152600d60248201526c0858591b5a5b9199594e9cd95d609a1b60448201526064016102d4565b60098290556040805160008152602081018490527fcdd0b588250e1398549f79cfdb8217c186688822905d6715b0834ea1c865594a910160405180910390a1600a8190556040805160008152602081018390527f92eef861b6533b7d3417f39c2ad7b460eed4e88a32fa3604f30e718b7602e7dc910160405180910390a150506002805460ff60b01b1916600160b01b1790555050505050505050565b600154600654604051631beb2b9760e31b81526000926001600160a01b039081169263df595cb8926115c792909116903390309087356001600160e01b03191690600401615a89565b602060405180830381865afa1580156115e4573d6000803e3d6000fd5b505050506040513d601f19601f820116820180604052508101906116089190615abc565b6116245760405162461bcd60e51b81526004016102d490615ad9565b600061163084846126a1565b50949350505050565b6000611643612734565b905090565b6116506121ac565b61166c5760405162461bcd60e51b81526004016102d490615ba1565b6116ad848484848080601f01602080910402602001604051908101604052809392919081815260200183838082843760009201919091525061239292505050565b50505050565b333014806116c457506116c46121ac565b61172c5760405162461bcd60e51b815260206004820152603360248201527f6f6e6c792073656c6620616e642061646d696e732063616e2063616c6c205f6260448201527232b1b7b6b2a4b6b83632b6b2b73a30ba34b7b760691b60648201526084016102d4565b6000818060200190518101906117429190615bef565b90506001600160a01b03811615801561176557506017546001600160a01b031615155b156117dd576001546017546040516381218ea960e01b81526001600160a01b0391821660048201529116906381218ea990602401602060405180830381865afa1580156117b6573d6000803e3d6000fd5b505050506040513d601f19601f820116820180604052508101906117da9190615bef565b90505b6001600160a01b0381161580159061180357506017546001600160a01b03828116911614155b156109255761092581610bcc565b6060611643612808565b6118236121ac565b61183f5760405162461bcd60e51b81526004016102d490615ba1565b6016546001600160a01b0383811691161480159061186b57506017546001600160a01b03838116911614155b6118a05760405162461bcd60e51b815260206004820152600660248201526510ba37b5b2b760d11b60448201526064016102d4565b60405163095ea7b360e01b81526001600160a01b038281166004830152600019602483015283169063095ea7b3906044016020604051808303816000875af11580156118f0573d6000803e3d6000fd5b505050506040513d601f19601f820116820180604052508101906111359190615abc565b600154600654604051631beb2b9760e31b81526000926001600160a01b039081169263df595cb89261195d92909116903390309087356001600160e01b03191690600401615a89565b602060405180830381865afa15801561197a573d6000803e3d6000fd5b505050506040513d601f19601f8201168201806040525081019061199e9190615abc565b6119ba5760405162461bcd60e51b81526004016102d490615ad9565b610bc68261287a565b6006546001546001600160a01b03918216911633148015611a415750806001600160a01b0316632f1069ba6040518163ffffffff1660e01b8152600401602060405180830381865afa158015611a1d573d6000803e3d6000fd5b505050506040513d601f19601f82011682018060405250810190611a419190615abc565b611a8d5760405162461bcd60e51b815260206004820152601f60248201527f21756e617574686f72697a6564202d206e6f2061646d696e207269676874730060448201526064016102d4565b61113583836128f7565b60048054610a4490615a54565b600080611ab081612918565b306001600160a01b031663a6afed956040518163ffffffff1660e01b81526004016020604051808303816000875af1158015611af0573d6000803e3d6000fd5b505050506040513d601f19601f82011682018060405250810190611b149190615a3b565b5043600c5414611b3157611b2a600a60356129dc565b9150611b96565b82611b3a612734565b1015611b4c57611b2a600e60346129dc565b601154831115611b6257611b2a600260366129dc565b600083601154611b729190615c0c565b6011819055600154909150611b90906001600160a01b031685611fe8565b60009250505b611b9f81612a55565b50919050565b600154600654604051631beb2b9760e31b81526000926001600160a01b039081169263df595cb892611bee92909116903390309087356001600160e01b03191690600401615a89565b602060405180830381865afa158015611c0b573d6000803e3d6000fd5b505050506040513d601f19601f82011682018060405250810190611c2f9190615abc565b611c4b5760405162461bcd60e51b81526004016102d490615ad9565b6000610b7683612ad9565b600080611c6281612918565b306001600160a01b031663a6afed956040518163ffffffff1660e01b81526004016020604051808303816000875af1158015611ca2573d6000803e3d6000fd5b505050506040513d601f19601f82011682018060405250810190611cc69190615a3b565b5043600c5414611cdc57611b2a600a60396129dc565b82611ce5612734565b1015611cf757611b2a600e60386129dc565b601054831115611d0d57611b2a6002603a6129dc565b82601054611d1b9190615c0c565b601055600654604080516303e1469160e61b81529051611d93926001600160a01b03169163f851a4409160048083019260209291908290030181865afa158015611d69573d6000803e3d6000fd5b505050506040513d601f19601f82011682018060405250810190611d8d9190615bef565b84611fe8565b60005b9150611b9f81612a55565b60006001611dae81612918565b611dba33868686612b56565b9150611dc581612a55565b509392505050565b600154600654604051631beb2b9760e31b81526000926001600160a01b039081169263df595cb892611e1692909116903390309087356001600160e01b03191690600401615a89565b602060405180830381865afa158015611e33573d6000803e3d6000fd5b505050506040513d601f19601f82011682018060405250810190611e579190615abc565b611e735760405162461bcd60e51b81526004016102d490615ad9565b610bc68261303a565b600154600654604051631beb2b9760e31b81526000926001600160a01b039081169263df595cb892611ec592909116903390309087356001600160e01b03191690600401615a89565b602060405180830381865afa158015611ee2573d6000803e3d6000fd5b505050506040513d601f19601f82011682018060405250810190611f069190615abc565b611f225760405162461bcd60e51b81526004016102d490615ad9565b610bc6826130b5565b600154600654604051631beb2b9760e31b81526000926001600160a01b039081169263df595cb892611f7492909116903390309087356001600160e01b03191690600401615a89565b602060405180830381865afa158015611f91573d6000803e3d6000fd5b505050506040513d601f19601f82011682018060405250810190611fb59190615abc565b611fd15760405162461bcd60e51b81526004016102d490615ad9565b6000611fde858585613132565b5095945050505050565b601754604051632d182be560e21b8152600481018390526001600160a01b0384811660248301523060448301529091169063b460af94906064016020604051808303816000875af1158015612041573d6000803e3d6000fd5b505050506040513d601f19601f820116820180604052508101906111359190615a3b565b600080600061207381612918565b306001600160a01b031663a6afed956040518163ffffffff1660e01b81526004016020604051808303816000875af11580156120b3573d6000803e3d6000fd5b505050506040513d601f19601f820116820180604052508101906120d79190615a3b565b506120e333338661322c565b925092506120f081612a55565b50915091565b6016546040516323b872dd60e01b81526000916001600160a01b0316906323b872dd9061212b90869030908790600401615c39565b6020604051808303816000875af115801561214a573d6000803e3d6000fd5b505050506040513d601f19601f8201168201806040525081019061216e9190615abc565b6121a35760405162461bcd60e51b81526004016102d4906020808252600490820152631cd95b9960e21b604082015260600190565b611b9f8261231d565b600654604080516303e1469160e61b815290516000926001600160a01b031691829163f851a440916004808201926020929091908290030181865afa1580156121f9573d6000803e3d6000fd5b505050506040513d601f19601f8201168201806040525081019061221d9190615bef565b6001600160a01b0316336001600160a01b031614801561229a5750806001600160a01b0316630a755ec26040518163ffffffff1660e01b8152600401602060405180830381865afa158015612276573d6000803e3d6000fd5b505050506040513d601f19601f8201168201806040525081019061229a9190615abc565b8061231757506001546001600160a01b0316331480156123175750806001600160a01b0316632f1069ba6040518163ffffffff1660e01b8152600401602060405180830381865afa1580156122f3573d6000803e3d6000fd5b505050506040513d601f19601f820116820180604052508101906123179190615abc565b91505090565b601754604051636e553f6560e01b8152600481018390523060248201526001600160a01b0390911690636e553f65906044016020604051808303816000875af115801561236e573d6000803e3d6000fd5b505050506040513d601f19601f820116820180604052508101906109259190615a3b565b6001546000546040516338e6a07360e11b81526001600160a01b039182166004820152858216602482015284151560448201529116906371cd40e690606401602060405180830381865afa1580156123ee573d6000803e3d6000fd5b505050506040513d601f19601f820116820180604052508101906124129190615abc565b6124465760405162461bcd60e51b8152602060048201526005602482015264085a5b5c1b60da1b60448201526064016102d4565b600080546001600160a01b038581166001600160a01b03198316179092551661246d612530565b303b6124815761247c826116b3565b6124e3565b6124e130836040516024016124969190615701565b60408051601f19818403018152918152602080830180516001600160e01b0316630adccee560e31b17905281518083019092526007825266216265636f6d6560c81b90820152613635565b505b600054604080516001600160a01b03808516825290921660208301527fd604de94d45953f9138079ec1b82d533cb2160c906d1076d1f7ed54befbca97a910160405180910390a150505050565b600154600080546040516311a0e21760e01b81526001600160a01b039182166004820152919216906311a0e21790602401600060405180830381865afa15801561257e573d6000803e3d6000fd5b505050506040513d6000823e601f3d908101601f191682016040526125a69190810190615c81565b905060006125b2612808565b9050815160011480156125c6575080516001145b80156126175750806000815181106125e0576125e0615d1b565b60200260200101516001600160a01b03168260008151811061260457612604615d1b565b60200260200101516001600160a01b0316145b15612620575050565b60005b81518110156126605761264e82828151811061264157612641615d1b565b60200260200101516136d1565b8061265881615d31565b915050612623565b5060005b82518110156111355761268f83828151811061268257612682615d1b565b6020026020010151613801565b8061269981615d31565b915050612664565b60008060006126af81612918565b306001600160a01b031663a6afed956040518163ffffffff1660e01b81526004016020604051808303816000875af11580156126ef573d6000803e3d6000fd5b505050506040513d601f19601f820116820180604052508101906127139190615a3b565b5061271f33868661322c565b9250925061272c81612a55565b509250929050565b6017546040516370a0823160e01b81523060048201526000916001600160a01b031690634cdad5069082906370a0823190602401602060405180830381865afa158015612785573d6000803e3d6000fd5b505050506040513d601f19601f820116820180604052508101906127a99190615a3b565b6040518263ffffffff1660e01b81526004016127c791815260200190565b602060405180830381865afa1580156127e4573d6000803e3d6000fd5b505050506040513d601f19601f820116820180604052508101906116439190615a3b565b6060600080516020615ef583398151915260020180548060200260200160405190810160405280929190818152602001828054801561287057602002820191906000526020600020905b81546001600160a01b03168152600190910190602001808311612852575b5050505050905090565b60008061288681612918565b306001600160a01b031663a6afed956040518163ffffffff1660e01b81526004016020604051808303816000875af11580156128c6573d6000803e3d6000fd5b505050506040513d601f19601f820116820180604052508101906128ea9190615a3b565b50611d96336000856138f9565b6001600160a01b0381161561290f5761290f816136d1565b61092582613801565b600254600160b01b900460ff1661295e5760405162461bcd60e51b815260206004820152600a6024820152691c994b595b9d195c995960b21b60448201526064016102d4565b806129cc57600660009054906101000a90046001600160a01b03166001600160a01b031663c90c20b16040518163ffffffff1660e01b8152600401600060405180830381600087803b1580156129b357600080fd5b505af11580156129c7573d6000803e3d6000fd5b505050505b506002805460ff60b01b19169055565b60007f45b96fe442630264581b197e84bbada861235052c5a1aadfff9ea4e40a969aa0836011811115612a1157612a11615c23565b836061811115612a2357612a23615c23565b60408051928352602083019190915260009082015260600160405180910390a1826011811115610bc357610bc3615c23565b6002805460ff60b01b1916600160b01b17905580612ad657600660009054906101000a90046001600160a01b03166001600160a01b031663632e51426040518163ffffffff1660e01b8152600401600060405180830381600087803b158015612abd57600080fd5b505af1158015612ad1573d6000803e3d6000fd5b505050505b50565b6000806000612ae781612918565b306001600160a01b031663a6afed956040518163ffffffff1660e01b81526004016020604051808303816000875af1158015612b27573d6000803e3d6000fd5b505050506040513d601f19601f82011682018060405250810190612b4b9190615a3b565b506120e33385613f31565b60065460405163d02f735160e01b81523060048201526001600160a01b0386811660248301528581166044830152848116606483015260848201849052600092839291169063d02f73519060a4016020604051808303816000875af1158015612bc3573d6000803e3d6000fd5b505050506040513d601f19601f82011682018060405250810190612be79190615a3b565b90508015612c0457612bfc6003601d836142ab565b915050613032565b846001600160a01b0316846001600160a01b03161415612c2a57612bfc6006601e6129dc565b612c8f604080516101808101909152806000815260200160008152602001600081526020016000815260200160008152602001600081526020016000815260200160008152602001600081526020016000815260200160008152602001600081525090565b6001600160a01b038516600090815260136020526040902054612cb2908561434d565b6020830181905282826003811115612ccc57612ccc615c23565b6003811115612cdd57612cdd615c23565b9052506000905081516003811115612cf757612cf7615c23565b14612d2757612d1e6009601c83600001516003811115612d1957612d19615c23565b6142ab565b92505050613032565b612d46846040518060200160405280666379da05b60000815250614378565b6080820152604080516020810190915267016345785d8a00008152612d6c908590614378565b61014082018190526080820151612d839086615c0c565b612d8d9190615c0c565b6060820152306001600160a01b031663bd6d894d6040518163ffffffff1660e01b8152600401602060405180830381865afa158015612dd0573d6000803e3d6000fd5b505050506040513d601f19601f82011682018060405250810190612df49190615a3b565b60c082019081526040805160208101909152905181526080820151612e19919061439b565b60a0820152604080516020810190915260c08201518152610140820151612e40919061439b565b61016082015260a0810151600f54612e589190615bd7565b60e08201526101408101516080820151601254612e759190615c0c565b612e7f9190615c0c565b610120820152610160810151601154612e989190615bd7565b6101008201526001600160a01b0386166000908152601360205260409020546060820151612ec691906143b3565b6040830181905282826003811115612ee057612ee0615c23565b6003811115612ef157612ef1615c23565b9052506000905081516003811115612f0b57612f0b615c23565b14612f2d57612d1e6009601b83600001516003811115612d1957612d19615c23565b60e0810151600f556101208101516012556101008101516011556020808201516001600160a01b0387811660008181526013855260408082209490945583860151928b1680825290849020929092556060850151925192835290929091600080516020615f15833981519152910160405180910390a3306001600160a01b0316856001600160a01b0316600080516020615f158339815191528360800151604051612fda91815260200190565b60405180910390a360a081015160e08201516040805130815260208101939093528201527fa91e67c5ea634cd43a12c5a482724b03de01e85ca68702a53d0c2f45cb7c1dc59060600160405180910390a16000925050505b949350505050565b60008061304681612918565b306001600160a01b031663a6afed956040518163ffffffff1660e01b81526004016020604051808303816000875af1158015613086573d6000803e3d6000fd5b505050506040513d601f19601f820116820180604052508101906130aa9190615a3b565b50611d9633846143d9565b6000806130c181612918565b306001600160a01b031663a6afed956040518163ffffffff1660e01b81526004016020604051808303816000875af1158015613101573d6000803e3d6000fd5b505050506040513d601f19601f820116820180604052508101906131259190615a3b565b50611d96338460006138f9565b600080600061314081612918565b306001600160a01b031663a6afed956040518163ffffffff1660e01b81526004016020604051808303816000875af1158015613180573d6000803e3d6000fd5b505050506040513d601f19601f820116820180604052508101906131a49190615a3b565b50836001600160a01b031663a6afed956040518163ffffffff1660e01b81526004016020604051808303816000875af11580156131e5573d6000803e3d6000fd5b505050506040513d601f19601f820116820180604052508101906132099190615a3b565b506132163387878761476c565b9250925061322381612a55565b50935093915050565b600654604051631200453160e11b81523060048201526001600160a01b03858116602483015284811660448301526064820184905260009283928392909116906324008a62906084016020604051808303816000875af1158015613294573d6000803e3d6000fd5b505050506040513d601f19601f820116820180604052508101906132b89190615a3b565b905080156132d9576132cd60036043836142ab565b6000925092505061362d565b43600c54146132ee576132cd600a60446129dc565b6133376040805161010081019091528060008152602001600081526020016000815260200160008152602001600081526020016000815260200160008152602001600081525090565b6001600160a01b0386166000908152601560205260409020600101546060820152306040516305eff7ef60e21b81526001600160a01b03888116600483015291909116906317bfdfbc90602401602060405180830381865afa1580156133a1573d6000803e3d6000fd5b505050506040513d601f19601f820116820180604052508101906133c59190615a3b565b60808201526000198514156133e357608081015160408201526133eb565b604081018590525b6133f98782604001516120f6565b60e08201819052608082015161340e9161434d565b60a083018190526020830182600381111561342b5761342b615c23565b600381111561343c5761343c615c23565b905250600090508160200151600381111561345957613459615c23565b146134cc5760405162461bcd60e51b815260206004820152603a60248201527f52455041595f424f52524f575f4e45575f4143434f554e545f424f52524f575f60448201527f42414c414e43455f43414c43554c4154494f4e5f4641494c454400000000000060648201526084016102d4565b6134dc600e548260e0015161434d565b60c08301819052602083018260038111156134f9576134f9615c23565b600381111561350a5761350a615c23565b905250600090508160200151600381111561352757613527615c23565b1461358e5760405162461bcd60e51b815260206004820152603160248201527f52455041595f424f52524f575f4e45575f544f54414c5f42414c414e43455f43604482015270105310d55310551253d397d19052531151607a1b60648201526084016102d4565b60a081810180516001600160a01b03898116600081815260156020908152604091829020948555600d5460019095019490945560c0870151600e81905560e088015195518251948f16855294840192909252820193909352606081019190915260808101919091527f1a2a22cb034d26d1854bdc6666a5b91fe25efbbb5dcad3b0355478d6f5c362a1910160405180910390a160e00151600093509150505b935093915050565b6060600080856001600160a01b0316856040516136529190615d4c565b6000604051808303816000865af19150503d806000811461368f576040519150601f19603f3d011682016040523d82523d6000602084013e613694565b606091505b5091509150816136c8578051156136ae5780518082602001fd5b8360405162461bcd60e51b81526004016102d49190615701565b95945050505050565b600080516020615ef58339815191526136e982614c1f565b60005b600282015460ff8216101561113557826001600160a01b0316826002018260ff168154811061371d5761371d615d1b565b6000918252602090912001546001600160a01b031614156137ef5760028201805461374a90600190615c0c565b8154811061375a5761375a615d1b565b6000918252602090912001546002830180546001600160a01b039092169160ff841690811061378b5761378b615d1b565b9060005260206000200160006101000a8154816001600160a01b0302191690836001600160a01b03160217905550816002018054806137cc576137cc615d68565b600082815260209020810160001990810180546001600160a01b03191690550190555b806137f981615d7e565b9150506136ec565b600080516020615ef583398151915260005b600282015460ff821610156138b957826001600160a01b0316826002018260ff168154811061384457613844615d1b565b6000918252602090912001546001600160a01b031614156138a75760405162461bcd60e51b815260206004820152601760248201527f657874656e73696f6e20616c726561647920616464656400000000000000000060448201526064016102d4565b806138b181615d7e565b915050613813565b506138c382614eac565b6002018054600181018255600091825260209091200180546001600160a01b0319166001600160a01b0392909216919091179055565b6000821580613906575081155b6139525760405162461bcd60e51b815260206004820152601860248201527f2172656465656d20746f6b656e73206f7220616d6f756e74000000000000000060448201526064016102d4565b6139936040805160e0810190915280600081526020016000815260200160008152602001600081526020016000815260200160008152602001600081525090565b306001600160a01b031663bd6d894d6040518163ffffffff1660e01b8152600401602060405180830381865afa1580156139d1573d6000803e3d6000fd5b505050506040513d601f19601f820116820180604052508101906139f59190615a3b565b60408201528315613ab85761138884601254613a119190615c0c565b1015613a1d5760125493505b6060810184905260408051602081018252908201518152613a3e9085615096565b6080830181905260208301826003811115613a5b57613a5b615c23565b6003811115613a6c57613a6c615c23565b9052506000905081602001516003811115613a8957613a89615c23565b14613ab357613aab6009602c83602001516003811115612d1957612d19615c23565b9150506108dd565b613bfa565b600019831415613b4057600654604051630cbb414760e11b81526001600160a01b0387811660048301523060248301526000604483015290911690631976828e90606401602060405180830381865afa158015613b19573d6000803e3d6000fd5b505050506040513d601f19601f82011682018060405250810190613b3d9190615a3b565b92505b6000306001600160a01b0316634aeb3d9a6040518163ffffffff1660e01b8152600401602060405180830381865afa158015613b80573d6000803e3d6000fd5b505050506040513d601f19601f82011682018060405250810190613ba49190615a3b565b90506103e8613bb38583615c0c565b1015613bbd578093505b613bcb8483604001516150e8565b606083018190526012546103e891613be291615c0c565b1015613bf15760125460608301525b50608081018390525b600654606082015160405163eabe7d9160e01b81526000926001600160a01b03169163eabe7d9191613c339130918b9190600401615c39565b6020604051808303816000875af1158015613c52573d6000803e3d6000fd5b505050506040513d601f19601f82011682018060405250810190613c769190615a3b565b90508015613c9457613c8b6003602b836142ab565b925050506108dd565b43600c5414613ca957613c8b600a602f6129dc565b613cb9601254836060015161434d565b60a0840181905260208401826003811115613cd657613cd6615c23565b6003811115613ce757613ce7615c23565b9052506000905082602001516003811115613d0457613d04615c23565b14613d2657613c8b6009603184602001516003811115612d1957612d19615c23565b6001600160a01b0386166000908152601360205260409020546060830151613d4e919061434d565b60c0840181905260208401826003811115613d6b57613d6b615c23565b6003811115613d7c57613d7c615c23565b9052506000905082602001516003811115613d9957613d99615c23565b14613dbb57613c8b6009603084602001516003811115612d1957612d19615c23565b8160800151613dc8612734565b1015613dda57613c8b600e60326129dc565b60a082015160125560c08201516001600160a01b0387166000908152601360205260409020556080820151613e10908790611fe8565b306001600160a01b0316866001600160a01b0316600080516020615f158339815191528460600151604051613e4791815260200190565b60405180910390a36080820151606080840151604080516001600160a01b038b16815260208101949094528301527fe5b754fb1abb7f01b499791d0b820ae3b6af3424ac1c59768edb53f4ec31a929910160405180910390a1600654608083015160608401516040516351dff98960e01b81523060048201526001600160a01b038a81166024830152604482019390935260648101919091529116906351dff98990608401600060405180830381600087803b158015613f0657600080fd5b505af1158015613f1a573d6000803e3d6000fd5b5060009250613f27915050565b9695505050505050565b600654604051634ef4c3e160e01b8152600091829182916001600160a01b031690634ef4c3e190613f6a90309089908990600401615c39565b6020604051808303816000875af1158015613f89573d6000803e3d6000fd5b505050506040513d601f19601f82011682018060405250810190613fad9190615a3b565b90508015613fce57613fc260036021836142ab565b600092509250506142a4565b43600c5414613fe357613fc2600a60246129dc565b6140246040805160e0810190915280600081526020016000815260200160008152602001600081526020016000815260200160008152602001600081525090565b306001600160a01b031663bd6d894d6040518163ffffffff1660e01b8152600401602060405180830381865afa158015614062573d6000803e3d6000fd5b505050506040513d601f19601f820116820180604052508101906140869190615a3b565b604082015261409586866120f6565b60c08201819052604080516020810182529083015181526140b69190615123565b60608301819052602083018260038111156140d3576140d3615c23565b60038111156140e4576140e4615c23565b905250600090508160200151600381111561410157614101615c23565b1461414e5760405162461bcd60e51b815260206004820181905260248201527f4d494e545f45584348414e47455f43414c43554c4154494f4e5f4641494c454460448201526064016102d4565b60008160600151116141a25760405162461bcd60e51b815260206004820152601a60248201527f4d494e545f5a45524f5f43544f4b454e535f52454a454354454400000000000060448201526064016102d4565b80606001516012546141b49190615bd7565b608082015260608101516001600160a01b0387166000908152601360205260409020546141e19190615bd7565b60a0820181905260808201516012556001600160a01b0387166000818152601360209081526040918290209390935560c0840151606080860151835194855294840191909152908201929092527f4c209b5fc8ad50758f13e2e1088ba56a560dff690a1c6fef26394f4c03821c4f910160405180910390a1856001600160a01b0316306001600160a01b0316600080516020615f15833981519152836060015160405161429091815260200190565b60405180910390a360c00151600093509150505b9250929050565b60007f45b96fe442630264581b197e84bbada861235052c5a1aadfff9ea4e40a969aa08460118111156142e0576142e0615c23565b8460618111156142f2576142f2615c23565b604080519283526020830191909152810184905260600160405180910390a1600384601181111561432557614325615c23565b146143415783601181111561433c5761433c615c23565b613032565b613032826103e8615bd7565b60008083831161436c5760006143638486615c0c565b915091506142a4565b506003905060006142a4565b6000670de0b6b3a7640000614391848460000151615133565b610bc39190615db4565b6000806143a88484615175565b9050613032816151a6565b6000808383018481106143cb576000925090506142a4565b6002600092509250506142a4565b60065460405163368f515360e21b815260009182916001600160a01b039091169063da3d454c9061441290309088908890600401615c39565b6020604051808303816000875af1158015614431573d6000803e3d6000fd5b505050506040513d601f19601f820116820180604052508101906144559190615a3b565b905080156144725761446a60036010836142ab565b915050610bc6565b43600c54146144875761446a600a600c6129dc565b6000614491612734565b9050838110156144b0576144a7600e600b6129dc565b92505050610bc6565b6144dc604080516080810190915280600081526020016000815260200160008152602001600081525090565b306040516305eff7ef60e21b81526001600160a01b03888116600483015291909116906317bfdfbc90602401602060405180830381865afa158015614525573d6000803e3d6000fd5b505050506040513d601f19601f820116820180604052508101906145499190615a3b565b6020820181905261455a90866143b3565b604083018190528282600381111561457457614574615c23565b600381111561458557614585615c23565b905250600090508151600381111561459f5761459f615c23565b146145cb576145c16009600e83600001516003811115612d1957612d19615c23565b9350505050610bc6565b6006546040828101519051631de6c8a560e21b815230600482015260248101919091526001600160a01b039091169063779b229490604401602060405180830381865afa158015614620573d6000803e3d6000fd5b505050506040513d601f19601f820116820180604052508101906146449190615a3b565b92508215614659576145c160036010856142ab565b614665600e54866143b3565b606083018190528282600381111561467f5761467f615c23565b600381111561469057614690615c23565b90525060009050815160038111156146aa576146aa615c23565b146146cc576145c16009600d83600001516003811115612d1957612d19615c23565b6040808201516001600160a01b0388166000908152601560205291909120908155600d546001909101556060810151600e556147088686611fe8565b60408082015160608084015183516001600160a01b038b168152602081018a9052938401929092528201527f13ed6866d4e1ee6da46f845c46d7e54120883d75c5ea9a2dacc1c4ca8984ab809060800160405180910390a160009695505050505050565b600654604051632fe3f38f60e11b81523060048201526001600160a01b03838116602483015286811660448301528581166064830152608482018590526000928392839290911690635fc7e71e9060a4016020604051808303816000875af11580156147dc573d6000803e3d6000fd5b505050506040513d601f19601f820116820180604052508101906148009190615a3b565b905080156148215761481560036014836142ab565b60009250925050614c16565b43600c541461483657614815600a60186129dc565b43846001600160a01b0316636c540baf6040518163ffffffff1660e01b8152600401602060405180830381865afa158015614875573d6000803e3d6000fd5b505050506040513d601f19601f820116820180604052508101906148999190615a3b565b146148aa57614815600a60136129dc565b866001600160a01b0316866001600160a01b031614156148d057614815600660196129dc565b846148e157614815600760176129dc565b6000198514156148f757614815600760166129dc565b60008061490589898961322c565b9092509050811561493a5761492c82601181111561492557614925615c23565b601a6129dc565b600094509450505050614c16565b60065460405163c488847b60e01b815260009182916001600160a01b039091169063c488847b906149739030908c908890600401615c39565b6040805180830381865afa15801561498f573d6000803e3d6000fd5b505050506040513d601f19601f820116820180604052508101906149b39190615dc8565b90925090508115614a225760405162461bcd60e51b815260206004820152603360248201527f4c49515549444154455f434f4d5054524f4c4c45525f43414c43554c4154455f604482015272105353d5539517d4d152569157d19052531151606a1b60648201526084016102d4565b6040516370a0823160e01b81526001600160a01b038b811660048301528291908a16906370a0823190602401602060405180830381865afa158015614a6b573d6000803e3d6000fd5b505050506040513d601f19601f82011682018060405250810190614a8f9190615a3b565b1015614add5760405162461bcd60e51b815260206004820152601860248201527f4c49515549444154455f5345495a455f544f4f5f4d554348000000000000000060448201526064016102d4565b60006001600160a01b038916301415614b0357614afc308d8d85612b56565b9050614b79565b60405163b2a02ff160e01b81526001600160a01b038a169063b2a02ff190614b33908f908f908790600401615c39565b6020604051808303816000875af1158015614b52573d6000803e3d6000fd5b505050506040513d601f19601f82011682018060405250810190614b769190615a3b565b90505b8015614bb05760405162461bcd60e51b8152602060048201526006602482015265217365697a6560d01b60448201526064016102d4565b604080516001600160a01b038e811682528d811660208301528183018790528b1660608201526080810184905290517f298637f684da70674f26509b10f07ec2fbc77a335ab1e7d6215a4b2484d8bb529181900360a00190a16000975092955050505050505b94509492505050565b6000816001600160a01b03166389f8132e6040518163ffffffff1660e01b8152600401600060405180830381865afa158015614c5f573d6000803e3d6000fd5b505050506040513d6000823e601f3d908101601f19168201604052614c879190810190615dec565b9050600080516020615ef583398151915260005b82518161ffff1610156116ad576000838261ffff1681518110614cc057614cc0615d1b565b6020908102919091018101516001600160e01b031981166000908152918590526040909120549091506001600160a01b03868116911614614d0357614d03615e89565b6001600160e01b0319811660009081526020849052604090205460018085018054600160a01b90930461ffff16929091614d3c91615c0c565b81548110614d4c57614d4c615d1b565b90600052602060002090600891828204019190066004029054906101000a900460e01b846001018261ffff1681548110614d8857614d88615d1b565b90600052602060002090600891828204019190066004026101000a81548163ffffffff021916908360e01c021790555080846000016000866001018461ffff1681548110614dd857614dd8615d1b565b6000918252602080832060088304015460079092166004026101000a90910460e01b6001600160e01b03191683528201929092526040019020805461ffff60a01b1916600160a01b61ffff939093169290920291909117905560018401805480614e4457614e44615d68565b60008281526020808220600860001990940193840401805463ffffffff600460078716026101000a0219169055919092556001600160e01b0319909316815291849052506040902080546001600160b01b031916905580614ea481615e9f565b915050614c9b565b6000816001600160a01b03166389f8132e6040518163ffffffff1660e01b8152600401600060405180830381865afa158015614eec573d6000803e3d6000fd5b505050506040513d6000823e601f3d908101601f19168201604052614f149190810190615dec565b7fc8fcad8db84d3cc18b4c41d551ea0ee66dd599cde068d998e57d5e09332c131d54909150600080516020615ef58339815191529060005b8351811015612ad1576000848281518110614f6957614f69615d1b565b6020908102919091018101516001600160e01b031981166000908152918690526040909120549091506001600160a01b03168015614fd557604051632c18df3360e01b81526001600160e01b0319831660048201526001600160a01b03821660248201526044016102d4565b6040805180820182526001600160a01b03808a16825261ffff80881660208085019182526001600160e01b0319881660009081528b8252958620945185549251909316600160a01b026001600160b01b0319909216929093169190911717909155600180880180549182018155835291206008820401805460e085901c60046007909416939093026101000a92830263ffffffff90930219169190911790558361507e81615e9f565b9450505050808061508e90615d31565b915050614f4c565b6000806000806150a686866151be565b909250905060008260038111156150bf576150bf615c23565b146150d057509150600090506142a4565b60006150db826151a6565b9350935050509250929050565b6000816150fd84670de0b6b3a7640000615ec1565b6151079190615db4565b90506151138284615ee0565b15610bc657610bc3600182615bd7565b6000806000806150a6868661523a565b6000610bc383836040518060400160405280601781526020017f6d756c7469706c69636174696f6e206f766572666c6f770000000000000000008152506152ad565b604080516020810190915260008152604051806020016040528061519d856000015185615133565b90529392505050565b8051600090610bc690670de0b6b3a764000090615db4565b60006151d66040518060200160405280600081525090565b6000806151e7866000015186615300565b9092509050600082600381111561520057615200615c23565b1461521f575060408051602081019091526000815290925090506142a4565b60408051602081019091529081526000969095509350505050565b60006152526040518060200160405280600081525090565b600080615267670de0b6b3a764000087615300565b9092509050600082600381111561528057615280615c23565b1461529f575060408051602081019091526000815290925090506142a4565b6150db81866000015161533f565b60008315806152ba575082155b156152c7575060006108dd565b60006152d38486615ec1565b9050836152e08683615db4565b1483906116305760405162461bcd60e51b81526004016102d49190615701565b60008083615313575060009050806142a4565b838302836153218683615db4565b14615334576002600092509250506142a4565b6000925090506142a4565b60006153576040518060200160405280600081525090565b60008061536c86670de0b6b3a7640000615300565b9092509050600082600381111561538557615385615c23565b146153a4575060408051602081019091526000815290925090506142a4565b6000806153b1838861540a565b909250905060008260038111156153ca576153ca615c23565b146153ed57816040518060200160405280600081525095509550505050506142a4565b604080516020810190915290815260009890975095505050505050565b6000808261541e57506001905060006142a4565b600061542a8486615db4565b915091509250929050565b82805461544190615a54565b90600052602060002090601f01602090048101928261546357600085556154a9565b82601f1061547c57805160ff19168380011785556154a9565b828001600101855582156154a9579182015b828111156154a957825182559160200191906001019061548e565b506154b59291506154b9565b5090565b5b808211156154b557600081556001016154ba565b6001600160a01b0381168114612ad657600080fd5b600080604083850312156154f657600080fd5b8235615501816154ce565b946020939093013593505050565b8035610b7b816154ce565b634e487b7160e01b600052604160045260246000fd5b604051601f8201601f1916810167ffffffffffffffff811182821017156155595761555961551a565b604052919050565b600067ffffffffffffffff82111561557b5761557b61551a565b50601f01601f191660200190565b600061559c61559784615561565b615530565b90508281528383830111156155b057600080fd5b828260208301376000602084830101529392505050565b600082601f8301126155d857600080fd5b610bc383833560208501615589565b600080600080600080600080610100898b03121561560457600080fd5b883561560f816154ce565b9750602089013561561f816154ce565b9650604089013561562f816154ce565b9550606089013561563f816154ce565b9450608089013567ffffffffffffffff8082111561565c57600080fd5b6156688c838d016155c7565b955060a08b013591508082111561567e57600080fd5b5061568b8b828c016155c7565b93505060c0890135915060e089013590509295985092959890939650565b60005b838110156156c45781810151838201526020016156ac565b838111156116ad5750506000910152565b600081518084526156ed8160208601602086016156a9565b601f01601f19169290920160200192915050565b602081526000610bc360208301846156d5565b60006020828403121561572657600080fd5b5035919050565b60006020828403121561573f57600080fd5b81356108dd816154ce565b60ff81168114612ad657600080fd5b8035610b7b8161574a565b60008060008060008060008060006101208a8c03121561578357600080fd5b893561578e816154ce565b985060208a013561579e816154ce565b97506157ac60408b0161550f565b965060608a0135955060808a013567ffffffffffffffff808211156157d057600080fd5b6157dc8d838e016155c7565b965060a08c01359150808211156157f257600080fd5b506157ff8c828d016155c7565b94505061580e60c08b01615759565b925060e08a013591506101008a013590509295985092959850929598565b8015158114612ad657600080fd5b6000806000806060858703121561585057600080fd5b843561585b816154ce565b9350602085013561586b8161582c565b9250604085013567ffffffffffffffff8082111561588857600080fd5b818701915087601f83011261589c57600080fd5b8135818111156158ab57600080fd5b8860208285010111156158bd57600080fd5b95989497505060200194505050565b6000602082840312156158de57600080fd5b813567ffffffffffffffff8111156158f557600080fd5b8201601f8101841361590657600080fd5b61303284823560208401615589565b6020808252825182820181905260009190848201906040850190845b818110156159565783516001600160a01b031683529284019291840191600101615931565b50909695505050505050565b6000806040838503121561597557600080fd5b8235615980816154ce565b91506020830135615990816154ce565b809150509250929050565b6000806000606084860312156159b057600080fd5b83356159bb816154ce565b925060208401356159cb816154ce565b929592945050506040919091013590565b6000806000606084860312156159f157600080fd5b83356159fc816154ce565b9250602084013591506040840135615a13816154ce565b809150509250925092565b600060208284031215615a3057600080fd5b81516108dd8161574a565b600060208284031215615a4d57600080fd5b5051919050565b600181811c90821680615a6857607f821691505b60208210811415611b9f57634e487b7160e01b600052602260045260246000fd5b6001600160a01b0394851681529284166020840152921660408201526001600160e01b0319909116606082015260800190565b600060208284031215615ace57600080fd5b81516108dd8161582c565b6020808252600e908201526d1b9bdd08185d5d1a1bdc9a5e995960921b604082015260600190565b600080600060608486031215615b1657600080fd5b8351615b21816154ce565b6020850151909350615b328161582c565b604085015190925067ffffffffffffffff811115615b4f57600080fd5b8401601f81018613615b6057600080fd5b8051615b6e61559782615561565b818152876020838501011115615b8357600080fd5b615b948260208301602086016156a9565b8093505050509250925092565b60208082526006908201526510b0b236b4b760d11b604082015260600190565b634e487b7160e01b600052601160045260246000fd5b60008219821115615bea57615bea615bc1565b500190565b600060208284031215615c0157600080fd5b81516108dd816154ce565b600082821015615c1e57615c1e615bc1565b500390565b634e487b7160e01b600052602160045260246000fd5b6001600160a01b039384168152919092166020820152604081019190915260600190565b600067ffffffffffffffff821115615c7757615c7761551a565b5060051b60200190565b60006020808385031215615c9457600080fd5b825167ffffffffffffffff811115615cab57600080fd5b8301601f81018513615cbc57600080fd5b8051615cca61559782615c5d565b81815260059190911b82018301908381019087831115615ce957600080fd5b928401925b82841015615d10578351615d01816154ce565b82529284019290840190615cee565b979650505050505050565b634e487b7160e01b600052603260045260246000fd5b6000600019821415615d4557615d45615bc1565b5060010190565b60008251615d5e8184602087016156a9565b9190910192915050565b634e487b7160e01b600052603160045260246000fd5b600060ff821660ff811415615d9557615d95615bc1565b60010192915050565b634e487b7160e01b600052601260045260246000fd5b600082615dc357615dc3615d9e565b500490565b60008060408385031215615ddb57600080fd5b505080516020909101519092909150565b60006020808385031215615dff57600080fd5b825167ffffffffffffffff811115615e1657600080fd5b8301601f81018513615e2757600080fd5b8051615e3561559782615c5d565b81815260059190911b82018301908381019087831115615e5457600080fd5b928401925b82841015615d105783516001600160e01b031981168114615e7a5760008081fd5b82529284019290840190615e59565b634e487b7160e01b600052600160045260246000fd5b600061ffff80831681811415615eb757615eb7615bc1565b6001019392505050565b6000816000190483118215151615615edb57615edb615bc1565b500290565b600082615eef57615eef615d9e565b50069056fec8fcad8db84d3cc18b4c41d551ea0ee66dd599cde068d998e57d5e09332c131cddf252ad1be2c89b69c2b068fc378daa952ba7f163c4a11628f55a4df523b3efa164736f6c634300080a000a",
    "linkReferences": {}
  },
  "methodIdentifiers": {
    "_becomeImplementation(bytes)": "56e67728",
    "_listExtensions()": "6333d001",
    "_prepare()": "1db78944",
    "_registerExtension(address,address)": "89cd9855",
    "_setImplementationSafe(address,bool,bytes)": "50d85b73",
    "_updatePlugin(address)": "19f496c8",
    "_withdrawAdminFees(uint256)": "a7b820df",
    "_withdrawFuseFees(uint256)": "a03dce8d",
    "accrualBlockNumber()": "6c540baf",
    "adminFeeMantissa()": "8d02d9a1",
    "approve(address,address)": "7e5465ba",
    "borrow(uint256)": "c5ebeaec",
    "borrowIndex()": "aa5af0fd",
    "claim()": "4e71d92d",
    "comptroller()": "5fe3b567",
    "contractType()": "cb2ef6f7",
    "decimals()": "313ce567",
    "feeSeizeShareMantissa()": "be99f119",
    "fuseAdmin()": "15761d51",
    "fuseFeeMantissa()": "dbfe7c19",
    "getCash()": "3b1d21a2",
    "implementation()": "5c60da1b",
    "initialize(address,address,address,address,string,string,uint256,uint256)": "06db3ecd",
    "initialize(address,address,address,uint256,string,string,uint8,uint256,uint256)": "219ef65c",
    "interestRateModel()": "f3fdb15a",
    "isCEther()": "ac784ddc",
    "liquidateBorrow(address,uint256,address)": "f5e3c462",
    "mint(uint256)": "a0712d68",
    "name()": "06fdde03",
    "plugin()": "ef01df4f",
    "protocolSeizeShareMantissa()": "6752e702",
    "redeem(uint256)": "db006a75",
    "redeemUnderlying(uint256)": "852a12e3",
    "repayBorrow(uint256)": "0e752702",
    "repayBorrowBehalf(address,uint256)": "2608f818",
    "reserveFactorMantissa()": "173b9904",
    "seize(address,address,uint256)": "b2a02ff1",
    "selfTransferIn(address,uint256)": "135f1334",
    "selfTransferOut(address,uint256)": "067db1b3",
    "symbol()": "95d89b41",
    "totalAdminFees()": "61feacff",
    "totalBorrows()": "47bd3718",
    "totalFuseFees()": "dc028ab1",
    "totalReserves()": "8f840ddd",
    "totalSupply()": "18160ddd",
    "underlying()": "6f307dc3"
  }
}