{
  "address": "0xfC92fE417b1b40C0A023C8Ec3f216ba6Eb26233A",
  "abi": [
    {
      "inputs": [],
      "stateMutability": "nonpayable",
      "type": "constructor"
    },
    {
      "anonymous": false,
      "inputs": [
        {
          "indexed": false,
          "internalType": "uint256",
          "name": "cashPrior",
          "type": "uint256"
        },
        {
          "indexed": false,
          "internalType": "uint256",
          "name": "interestAccumulated",
          "type": "uint256"
        },
        {
          "indexed": false,
          "internalType": "uint256",
          "name": "borrowIndex",
          "type": "uint256"
        },
        {
          "indexed": false,
          "internalType": "uint256",
          "name": "totalBorrows",
          "type": "uint256"
        }
      ],
      "name": "AccrueInterest",
      "type": "event"
    },
    {
      "anonymous": false,
      "inputs": [
        {
          "indexed": true,
          "internalType": "address",
          "name": "owner",
          "type": "address"
        },
        {
          "indexed": true,
          "internalType": "address",
          "name": "spender",
          "type": "address"
        },
        {
          "indexed": false,
          "internalType": "uint256",
          "name": "amount",
          "type": "uint256"
        }
      ],
      "name": "Approval",
      "type": "event"
    },
    {
      "anonymous": false,
      "inputs": [
        {
          "indexed": false,
          "internalType": "address",
          "name": "borrower",
          "type": "address"
        },
        {
          "indexed": false,
          "internalType": "uint256",
          "name": "borrowAmount",
          "type": "uint256"
        },
        {
          "indexed": false,
          "internalType": "uint256",
          "name": "accountBorrows",
          "type": "uint256"
        },
        {
          "indexed": false,
          "internalType": "uint256",
          "name": "totalBorrows",
          "type": "uint256"
        }
      ],
      "name": "Borrow",
      "type": "event"
    },
    {
      "anonymous": false,
      "inputs": [
        {
          "indexed": false,
          "internalType": "uint256",
          "name": "error",
          "type": "uint256"
        },
        {
          "indexed": false,
          "internalType": "uint256",
          "name": "info",
          "type": "uint256"
        },
        {
          "indexed": false,
          "internalType": "uint256",
          "name": "detail",
          "type": "uint256"
        }
      ],
      "name": "Failure",
      "type": "event"
    },
    {
      "anonymous": false,
      "inputs": [
        {
          "indexed": false,
          "internalType": "address",
          "name": "liquidator",
          "type": "address"
        },
        {
          "indexed": false,
          "internalType": "address",
          "name": "borrower",
          "type": "address"
        },
        {
          "indexed": false,
          "internalType": "uint256",
          "name": "repayAmount",
          "type": "uint256"
        },
        {
          "indexed": false,
          "internalType": "address",
          "name": "cTokenCollateral",
          "type": "address"
        },
        {
          "indexed": false,
          "internalType": "uint256",
          "name": "seizeTokens",
          "type": "uint256"
        }
      ],
      "name": "LiquidateBorrow",
      "type": "event"
    },
    {
      "anonymous": false,
      "inputs": [
        {
          "indexed": false,
          "internalType": "address",
          "name": "minter",
          "type": "address"
        },
        {
          "indexed": false,
          "internalType": "uint256",
          "name": "mintAmount",
          "type": "uint256"
        },
        {
          "indexed": false,
          "internalType": "uint256",
          "name": "mintTokens",
          "type": "uint256"
        }
      ],
      "name": "Mint",
      "type": "event"
    },
    {
      "anonymous": false,
      "inputs": [
        {
          "indexed": false,
          "internalType": "uint256",
          "name": "oldAdminFeeMantissa",
          "type": "uint256"
        },
        {
          "indexed": false,
          "internalType": "uint256",
          "name": "newAdminFeeMantissa",
          "type": "uint256"
        }
      ],
      "name": "NewAdminFee",
      "type": "event"
    },
    {
      "anonymous": false,
      "inputs": [
        {
          "indexed": false,
          "internalType": "uint256",
          "name": "oldFuseFeeMantissa",
          "type": "uint256"
        },
        {
          "indexed": false,
          "internalType": "uint256",
          "name": "newFuseFeeMantissa",
          "type": "uint256"
        }
      ],
      "name": "NewFuseFee",
      "type": "event"
    },
    {
      "anonymous": false,
      "inputs": [
        {
          "indexed": false,
          "internalType": "address",
          "name": "oldImplementation",
          "type": "address"
        },
        {
          "indexed": false,
          "internalType": "address",
          "name": "newImplementation",
          "type": "address"
        }
      ],
      "name": "NewImplementation",
      "type": "event"
    },
    {
      "anonymous": false,
      "inputs": [
        {
          "indexed": false,
          "internalType": "contract InterestRateModel",
          "name": "oldInterestRateModel",
          "type": "address"
        },
        {
          "indexed": false,
          "internalType": "contract InterestRateModel",
          "name": "newInterestRateModel",
          "type": "address"
        }
      ],
      "name": "NewMarketInterestRateModel",
      "type": "event"
    },
    {
      "anonymous": false,
      "inputs": [
        {
          "indexed": false,
          "internalType": "uint256",
          "name": "oldReserveFactorMantissa",
          "type": "uint256"
        },
        {
          "indexed": false,
          "internalType": "uint256",
          "name": "newReserveFactorMantissa",
          "type": "uint256"
        }
      ],
      "name": "NewReserveFactor",
      "type": "event"
    },
    {
      "anonymous": false,
      "inputs": [
        {
          "indexed": false,
          "internalType": "address",
          "name": "redeemer",
          "type": "address"
        },
        {
          "indexed": false,
          "internalType": "uint256",
          "name": "redeemAmount",
          "type": "uint256"
        },
        {
          "indexed": false,
          "internalType": "uint256",
          "name": "redeemTokens",
          "type": "uint256"
        }
      ],
      "name": "Redeem",
      "type": "event"
    },
    {
      "anonymous": false,
      "inputs": [
        {
          "indexed": false,
          "internalType": "address",
          "name": "payer",
          "type": "address"
        },
        {
          "indexed": false,
          "internalType": "address",
          "name": "borrower",
          "type": "address"
        },
        {
          "indexed": false,
          "internalType": "uint256",
          "name": "repayAmount",
          "type": "uint256"
        },
        {
          "indexed": false,
          "internalType": "uint256",
          "name": "accountBorrows",
          "type": "uint256"
        },
        {
          "indexed": false,
          "internalType": "uint256",
          "name": "totalBorrows",
          "type": "uint256"
        }
      ],
      "name": "RepayBorrow",
      "type": "event"
    },
    {
      "anonymous": false,
      "inputs": [
        {
          "indexed": false,
          "internalType": "address",
          "name": "benefactor",
          "type": "address"
        },
        {
          "indexed": false,
          "internalType": "uint256",
          "name": "addAmount",
          "type": "uint256"
        },
        {
          "indexed": false,
          "internalType": "uint256",
          "name": "newTotalReserves",
          "type": "uint256"
        }
      ],
      "name": "ReservesAdded",
      "type": "event"
    },
    {
      "anonymous": false,
      "inputs": [
        {
          "indexed": false,
          "internalType": "address",
          "name": "admin",
          "type": "address"
        },
        {
          "indexed": false,
          "internalType": "uint256",
          "name": "reduceAmount",
          "type": "uint256"
        },
        {
          "indexed": false,
          "internalType": "uint256",
          "name": "newTotalReserves",
          "type": "uint256"
        }
      ],
      "name": "ReservesReduced",
      "type": "event"
    },
    {
      "anonymous": false,
      "inputs": [
        {
          "indexed": true,
          "internalType": "address",
          "name": "from",
          "type": "address"
        },
        {
          "indexed": true,
          "internalType": "address",
          "name": "to",
          "type": "address"
        },
        {
          "indexed": false,
          "internalType": "uint256",
          "name": "amount",
          "type": "uint256"
        }
      ],
      "name": "Transfer",
      "type": "event"
    },
    {
      "inputs": [
        {
          "internalType": "bytes",
          "name": "data",
          "type": "bytes"
        }
      ],
      "name": "_becomeImplementation",
      "outputs": [],
      "stateMutability": "nonpayable",
      "type": "function"
    },
    {
      "inputs": [],
      "name": "_prepare",
      "outputs": [],
      "stateMutability": "payable",
      "type": "function"
    },
    {
      "inputs": [
        {
          "internalType": "uint256",
          "name": "newAdminFeeMantissa",
          "type": "uint256"
        }
      ],
      "name": "_setAdminFee",
      "outputs": [
        {
          "internalType": "uint256",
          "name": "",
          "type": "uint256"
        }
      ],
      "stateMutability": "nonpayable",
      "type": "function"
    },
    {
      "inputs": [
        {
          "internalType": "address",
          "name": "implementation_",
          "type": "address"
        },
        {
          "internalType": "bool",
          "name": "allowResign",
          "type": "bool"
        },
        {
          "internalType": "bytes",
          "name": "becomeImplementationData",
          "type": "bytes"
        }
      ],
      "name": "_setImplementationSafe",
      "outputs": [],
      "stateMutability": "nonpayable",
      "type": "function"
    },
    {
      "inputs": [
        {
          "internalType": "contract InterestRateModel",
          "name": "newInterestRateModel",
          "type": "address"
        }
      ],
      "name": "_setInterestRateModel",
      "outputs": [
        {
          "internalType": "uint256",
          "name": "",
          "type": "uint256"
        }
      ],
      "stateMutability": "nonpayable",
      "type": "function"
    },
    {
      "inputs": [
        {
          "internalType": "string",
          "name": "_name",
          "type": "string"
        },
        {
          "internalType": "string",
          "name": "_symbol",
          "type": "string"
        }
      ],
      "name": "_setNameAndSymbol",
      "outputs": [],
      "stateMutability": "nonpayable",
      "type": "function"
    },
    {
      "inputs": [
        {
          "internalType": "uint256",
          "name": "newReserveFactorMantissa",
          "type": "uint256"
        }
      ],
      "name": "_setReserveFactor",
      "outputs": [
        {
          "internalType": "uint256",
          "name": "",
          "type": "uint256"
        }
      ],
      "stateMutability": "nonpayable",
      "type": "function"
    },
    {
      "inputs": [
        {
          "internalType": "uint256",
          "name": "withdrawAmount",
          "type": "uint256"
        }
      ],
      "name": "_withdrawAdminFees",
      "outputs": [
        {
          "internalType": "uint256",
          "name": "",
          "type": "uint256"
        }
      ],
      "stateMutability": "nonpayable",
      "type": "function"
    },
    {
      "inputs": [
        {
          "internalType": "uint256",
          "name": "withdrawAmount",
          "type": "uint256"
        }
      ],
      "name": "_withdrawFuseFees",
      "outputs": [
        {
          "internalType": "uint256",
          "name": "",
          "type": "uint256"
        }
      ],
      "stateMutability": "nonpayable",
      "type": "function"
    },
    {
      "inputs": [],
      "name": "accrualBlockNumber",
      "outputs": [
        {
          "internalType": "uint256",
          "name": "",
          "type": "uint256"
        }
      ],
      "stateMutability": "view",
      "type": "function"
    },
    {
      "inputs": [],
      "name": "accrueInterest",
      "outputs": [
        {
          "internalType": "uint256",
          "name": "",
          "type": "uint256"
        }
      ],
      "stateMutability": "nonpayable",
      "type": "function"
    },
    {
      "inputs": [],
      "name": "adminFeeMantissa",
      "outputs": [
        {
          "internalType": "uint256",
          "name": "",
          "type": "uint256"
        }
      ],
      "stateMutability": "view",
      "type": "function"
    },
    {
      "inputs": [
        {
          "internalType": "address",
          "name": "owner",
          "type": "address"
        },
        {
          "internalType": "address",
          "name": "spender",
          "type": "address"
        }
      ],
      "name": "allowance",
      "outputs": [
        {
          "internalType": "uint256",
          "name": "",
          "type": "uint256"
        }
      ],
      "stateMutability": "view",
      "type": "function"
    },
    {
      "inputs": [
        {
          "internalType": "address",
          "name": "spender",
          "type": "address"
        },
        {
          "internalType": "uint256",
          "name": "amount",
          "type": "uint256"
        }
      ],
      "name": "approve",
      "outputs": [
        {
          "internalType": "bool",
          "name": "",
          "type": "bool"
        }
      ],
      "stateMutability": "nonpayable",
      "type": "function"
    },
    {
      "inputs": [
        {
          "internalType": "address",
          "name": "owner",
          "type": "address"
        }
      ],
      "name": "balanceOf",
      "outputs": [
        {
          "internalType": "uint256",
          "name": "",
          "type": "uint256"
        }
      ],
      "stateMutability": "view",
      "type": "function"
    },
    {
      "inputs": [
        {
          "internalType": "address",
          "name": "owner",
          "type": "address"
        }
      ],
      "name": "balanceOfUnderlying",
      "outputs": [
        {
          "internalType": "uint256",
          "name": "",
          "type": "uint256"
        }
      ],
      "stateMutability": "nonpayable",
      "type": "function"
    },
    {
      "inputs": [
        {
          "internalType": "uint256",
          "name": "borrowAmount",
          "type": "uint256"
        }
      ],
      "name": "borrow",
      "outputs": [
        {
          "internalType": "uint256",
          "name": "",
          "type": "uint256"
        }
      ],
      "stateMutability": "nonpayable",
      "type": "function"
    },
    {
      "inputs": [
        {
          "internalType": "address",
          "name": "account",
          "type": "address"
        }
      ],
      "name": "borrowBalanceCurrent",
      "outputs": [
        {
          "internalType": "uint256",
          "name": "",
          "type": "uint256"
        }
      ],
      "stateMutability": "nonpayable",
      "type": "function"
    },
    {
      "inputs": [
        {
          "internalType": "address",
          "name": "account",
          "type": "address"
        }
      ],
      "name": "borrowBalanceStored",
      "outputs": [
        {
          "internalType": "uint256",
          "name": "",
          "type": "uint256"
        }
      ],
      "stateMutability": "view",
      "type": "function"
    },
    {
      "inputs": [],
      "name": "borrowIndex",
      "outputs": [
        {
          "internalType": "uint256",
          "name": "",
          "type": "uint256"
        }
      ],
      "stateMutability": "view",
      "type": "function"
    },
    {
      "inputs": [],
      "name": "borrowRatePerBlock",
      "outputs": [
        {
          "internalType": "uint256",
          "name": "",
          "type": "uint256"
        }
      ],
      "stateMutability": "view",
      "type": "function"
    },
    {
      "inputs": [],
      "name": "comptroller",
      "outputs": [
        {
          "internalType": "contract ComptrollerInterface",
          "name": "",
          "type": "address"
        }
      ],
      "stateMutability": "view",
      "type": "function"
    },
    {
      "inputs": [],
      "name": "contractType",
      "outputs": [
        {
          "internalType": "string",
          "name": "",
          "type": "string"
        }
      ],
      "stateMutability": "view",
      "type": "function"
    },
    {
      "inputs": [],
      "name": "decimals",
      "outputs": [
        {
          "internalType": "uint8",
          "name": "",
          "type": "uint8"
        }
      ],
      "stateMutability": "view",
      "type": "function"
    },
    {
      "inputs": [],
      "name": "exchangeRateCurrent",
      "outputs": [
        {
          "internalType": "uint256",
          "name": "",
          "type": "uint256"
        }
      ],
      "stateMutability": "nonpayable",
      "type": "function"
    },
    {
      "inputs": [],
      "name": "exchangeRateStored",
      "outputs": [
        {
          "internalType": "uint256",
          "name": "",
          "type": "uint256"
        }
      ],
      "stateMutability": "view",
      "type": "function"
    },
    {
      "inputs": [],
      "name": "feeSeizeShareMantissa",
      "outputs": [
        {
          "internalType": "uint256",
          "name": "",
          "type": "uint256"
        }
      ],
      "stateMutability": "view",
      "type": "function"
    },
    {
      "inputs": [],
      "name": "fuseAdmin",
      "outputs": [
        {
          "internalType": "address payable",
          "name": "",
          "type": "address"
        }
      ],
      "stateMutability": "view",
      "type": "function"
    },
    {
      "inputs": [],
      "name": "fuseFeeMantissa",
      "outputs": [
        {
          "internalType": "uint256",
          "name": "",
          "type": "uint256"
        }
      ],
      "stateMutability": "view",
      "type": "function"
    },
    {
      "inputs": [
        {
          "internalType": "address",
          "name": "account",
          "type": "address"
        }
      ],
      "name": "getAccountSnapshot",
      "outputs": [
        {
          "internalType": "uint256",
          "name": "",
          "type": "uint256"
        },
        {
          "internalType": "uint256",
          "name": "",
          "type": "uint256"
        },
        {
          "internalType": "uint256",
          "name": "",
          "type": "uint256"
        },
        {
          "internalType": "uint256",
          "name": "",
          "type": "uint256"
        }
      ],
      "stateMutability": "view",
      "type": "function"
    },
    {
      "inputs": [],
      "name": "getCash",
      "outputs": [
        {
          "internalType": "uint256",
          "name": "",
          "type": "uint256"
        }
      ],
      "stateMutability": "view",
      "type": "function"
    },
    {
      "inputs": [],
      "name": "implementation",
      "outputs": [
        {
          "internalType": "address",
          "name": "",
          "type": "address"
        }
      ],
      "stateMutability": "view",
      "type": "function"
    },
    {
      "inputs": [
        {
          "internalType": "address",
          "name": "underlying_",
          "type": "address"
        },
        {
          "internalType": "contract ComptrollerInterface",
          "name": "comptroller_",
          "type": "address"
        },
        {
          "internalType": "address payable",
          "name": "fuseAdmin_",
          "type": "address"
        },
        {
          "internalType": "contract InterestRateModel",
          "name": "interestRateModel_",
          "type": "address"
        },
        {
          "internalType": "string",
          "name": "name_",
          "type": "string"
        },
        {
          "internalType": "string",
          "name": "symbol_",
          "type": "string"
        },
        {
          "internalType": "uint256",
          "name": "reserveFactorMantissa_",
          "type": "uint256"
        },
        {
          "internalType": "uint256",
          "name": "adminFeeMantissa_",
          "type": "uint256"
        }
      ],
      "name": "initialize",
      "outputs": [],
      "stateMutability": "nonpayable",
      "type": "function"
    },
    {
      "inputs": [
        {
          "internalType": "contract ComptrollerInterface",
          "name": "comptroller_",
          "type": "address"
        },
        {
          "internalType": "address payable",
          "name": "fuseAdmin_",
          "type": "address"
        },
        {
          "internalType": "contract InterestRateModel",
          "name": "interestRateModel_",
          "type": "address"
        },
        {
          "internalType": "uint256",
          "name": "initialExchangeRateMantissa_",
          "type": "uint256"
        },
        {
          "internalType": "string",
          "name": "name_",
          "type": "string"
        },
        {
          "internalType": "string",
          "name": "symbol_",
          "type": "string"
        },
        {
          "internalType": "uint8",
          "name": "decimals_",
          "type": "uint8"
        },
        {
          "internalType": "uint256",
          "name": "reserveFactorMantissa_",
          "type": "uint256"
        },
        {
          "internalType": "uint256",
          "name": "adminFeeMantissa_",
          "type": "uint256"
        }
      ],
      "name": "initialize",
      "outputs": [],
      "stateMutability": "nonpayable",
      "type": "function"
    },
    {
      "inputs": [],
      "name": "interestRateModel",
      "outputs": [
        {
          "internalType": "contract InterestRateModel",
          "name": "",
          "type": "address"
        }
      ],
      "stateMutability": "view",
      "type": "function"
    },
    {
      "inputs": [],
      "name": "isCEther",
      "outputs": [
        {
          "internalType": "bool",
          "name": "",
          "type": "bool"
        }
      ],
      "stateMutability": "nonpayable",
      "type": "function"
    },
    {
      "inputs": [],
      "name": "isCToken",
      "outputs": [
        {
          "internalType": "bool",
          "name": "",
          "type": "bool"
        }
      ],
      "stateMutability": "nonpayable",
      "type": "function"
    },
    {
      "inputs": [
        {
          "internalType": "address",
          "name": "borrower",
          "type": "address"
        },
        {
          "internalType": "uint256",
          "name": "repayAmount",
          "type": "uint256"
        },
        {
          "internalType": "contract CTokenInterface",
          "name": "cTokenCollateral",
          "type": "address"
        }
      ],
      "name": "liquidateBorrow",
      "outputs": [
        {
          "internalType": "uint256",
          "name": "",
          "type": "uint256"
        }
      ],
      "stateMutability": "nonpayable",
      "type": "function"
    },
    {
      "inputs": [
        {
          "internalType": "uint256",
          "name": "mintAmount",
          "type": "uint256"
        }
      ],
      "name": "mint",
      "outputs": [
        {
          "internalType": "uint256",
          "name": "",
          "type": "uint256"
        }
      ],
      "stateMutability": "nonpayable",
      "type": "function"
    },
    {
      "inputs": [],
      "name": "name",
      "outputs": [
        {
          "internalType": "string",
          "name": "",
          "type": "string"
        }
      ],
      "stateMutability": "view",
      "type": "function"
    },
    {
      "inputs": [],
      "name": "protocolSeizeShareMantissa",
      "outputs": [
        {
          "internalType": "uint256",
          "name": "",
          "type": "uint256"
        }
      ],
      "stateMutability": "view",
      "type": "function"
    },
    {
      "inputs": [
        {
          "internalType": "uint256",
          "name": "redeemTokens",
          "type": "uint256"
        }
      ],
      "name": "redeem",
      "outputs": [
        {
          "internalType": "uint256",
          "name": "",
          "type": "uint256"
        }
      ],
      "stateMutability": "nonpayable",
      "type": "function"
    },
    {
      "inputs": [
        {
          "internalType": "uint256",
          "name": "redeemAmount",
          "type": "uint256"
        }
      ],
      "name": "redeemUnderlying",
      "outputs": [
        {
          "internalType": "uint256",
          "name": "",
          "type": "uint256"
        }
      ],
      "stateMutability": "nonpayable",
      "type": "function"
    },
    {
      "inputs": [
        {
          "internalType": "uint256",
          "name": "repayAmount",
          "type": "uint256"
        }
      ],
      "name": "repayBorrow",
      "outputs": [
        {
          "internalType": "uint256",
          "name": "",
          "type": "uint256"
        }
      ],
      "stateMutability": "nonpayable",
      "type": "function"
    },
    {
      "inputs": [
        {
          "internalType": "address",
          "name": "borrower",
          "type": "address"
        },
        {
          "internalType": "uint256",
          "name": "repayAmount",
          "type": "uint256"
        }
      ],
      "name": "repayBorrowBehalf",
      "outputs": [
        {
          "internalType": "uint256",
          "name": "",
          "type": "uint256"
        }
      ],
      "stateMutability": "nonpayable",
      "type": "function"
    },
    {
      "inputs": [],
      "name": "reserveFactorMantissa",
      "outputs": [
        {
          "internalType": "uint256",
          "name": "",
          "type": "uint256"
        }
      ],
      "stateMutability": "view",
      "type": "function"
    },
    {
      "inputs": [
        {
          "internalType": "address",
          "name": "liquidator",
          "type": "address"
        },
        {
          "internalType": "address",
          "name": "borrower",
          "type": "address"
        },
        {
          "internalType": "uint256",
          "name": "seizeTokens",
          "type": "uint256"
        }
      ],
      "name": "seize",
      "outputs": [
        {
          "internalType": "uint256",
          "name": "",
          "type": "uint256"
        }
      ],
      "stateMutability": "nonpayable",
      "type": "function"
    },
    {
      "inputs": [],
      "name": "supplyRatePerBlock",
      "outputs": [
        {
          "internalType": "uint256",
          "name": "",
          "type": "uint256"
        }
      ],
      "stateMutability": "view",
      "type": "function"
    },
    {
      "inputs": [],
      "name": "symbol",
      "outputs": [
        {
          "internalType": "string",
          "name": "",
          "type": "string"
        }
      ],
      "stateMutability": "view",
      "type": "function"
    },
    {
      "inputs": [],
      "name": "totalAdminFees",
      "outputs": [
        {
          "internalType": "uint256",
          "name": "",
          "type": "uint256"
        }
      ],
      "stateMutability": "view",
      "type": "function"
    },
    {
      "inputs": [],
      "name": "totalBorrows",
      "outputs": [
        {
          "internalType": "uint256",
          "name": "",
          "type": "uint256"
        }
      ],
      "stateMutability": "view",
      "type": "function"
    },
    {
      "inputs": [],
      "name": "totalBorrowsCurrent",
      "outputs": [
        {
          "internalType": "uint256",
          "name": "",
          "type": "uint256"
        }
      ],
      "stateMutability": "nonpayable",
      "type": "function"
    },
    {
      "inputs": [],
      "name": "totalFuseFees",
      "outputs": [
        {
          "internalType": "uint256",
          "name": "",
          "type": "uint256"
        }
      ],
      "stateMutability": "view",
      "type": "function"
    },
    {
      "inputs": [],
      "name": "totalReserves",
      "outputs": [
        {
          "internalType": "uint256",
          "name": "",
          "type": "uint256"
        }
      ],
      "stateMutability": "view",
      "type": "function"
    },
    {
      "inputs": [],
      "name": "totalSupply",
      "outputs": [
        {
          "internalType": "uint256",
          "name": "",
          "type": "uint256"
        }
      ],
      "stateMutability": "view",
      "type": "function"
    },
    {
      "inputs": [
        {
          "internalType": "address",
          "name": "dst",
          "type": "address"
        },
        {
          "internalType": "uint256",
          "name": "amount",
          "type": "uint256"
        }
      ],
      "name": "transfer",
      "outputs": [
        {
          "internalType": "bool",
          "name": "",
          "type": "bool"
        }
      ],
      "stateMutability": "nonpayable",
      "type": "function"
    },
    {
      "inputs": [
        {
          "internalType": "address",
          "name": "src",
          "type": "address"
        },
        {
          "internalType": "address",
          "name": "dst",
          "type": "address"
        },
        {
          "internalType": "uint256",
          "name": "amount",
          "type": "uint256"
        }
      ],
      "name": "transferFrom",
      "outputs": [
        {
          "internalType": "bool",
          "name": "",
          "type": "bool"
        }
      ],
      "stateMutability": "nonpayable",
      "type": "function"
    },
    {
      "inputs": [],
      "name": "underlying",
      "outputs": [
        {
          "internalType": "address",
          "name": "",
          "type": "address"
        }
      ],
      "stateMutability": "view",
      "type": "function"
    }
  ],
  "transactionHash": "0x46f0db162cf288fb9f274fc4669caa3899a263f99022740208e2d4b0dbc2e64c",
  "args": [],
  "numDeployments": 25,
  "bytecode": {
    "object": "0x608060405234801561001057600080fd5b5061571780620000216000396000f3fe6080604052600436106102915760003560e01c806306db3ecd1461029657806306fdde03146102b8578063095ea7b3146102e35780630e7527021461031357806315761d5114610341578063173b99041461036e57806317bfdfbc1461038457806318160ddd146103a4578063182df0f5146103ba5780631db78944146103cf578063219ef65c146103d757806323b872dd146103f75780632608f81814610417578063313ce5671461043757806334154d4c146104635780633af9e669146104835780633b1d21a2146104a357806347bd3718146104b857806350d85b73146104ce57806356e67728146104ee5780635c60da1b1461050e5780635fe3b5671461052e57806361feacff1461054e5780636752e702146105645780636c540baf1461057f5780636f307dc31461059557806370a08231146105b557806373acee98146105eb578063852a12e3146106005780638d02d9a1146106205780638f840ddd1461063657806391dd36c61461064c57806395d89b411461066c57806395dd919314610681578063a03dce8d146106a1578063a0712d68146106c1578063a6afed95146106e1578063a7b820df146106f6578063a9059cbb14610716578063aa5af0fd14610736578063ac784ddc1461074c578063ae9d70b014610760578063b2a02ff114610775578063bd6d894d14610795578063be99f119146107aa578063c37f68e2146107c6578063c5ebeaec146107f6578063cb2ef6f714610816578063db006a751461084d578063dbfe7c191461086d578063dc028ab114610883578063dd62ed3e14610899578063f2b3abbd146108df578063f3fdb15a146108ff578063f5e3c4621461091f578063f8f9da281461093f578063fca7820b14610954578063fe9c44ae14610974575b600080fd5b3480156102a257600080fd5b506102b66102b1366004614e9e565b610988565b005b3480156102c457600080fd5b506102cd610a96565b6040516102da9190614fb7565b60405180910390f35b3480156102ef57600080fd5b506103036102fe366004614fca565b610b24565b60405190151581526020016102da565b34801561031f57600080fd5b5061033361032e366004614ff6565b610b94565b6040519081526020016102da565b34801561034d57600080fd5b50600154610361906001600160a01b031681565b6040516102da919061500f565b34801561037a57600080fd5b50610333600b5481565b34801561039057600080fd5b5061033361039f366004615023565b610ba8565b3480156103b057600080fd5b5061033360125481565b3480156103c657600080fd5b50610333610bff565b6102b6610c70565b3480156103e357600080fd5b506102b66103f236600461505a565b610da6565b34801561040357600080fd5b50610303610412366004615121565b610fcb565b34801561042357600080fd5b50610333610432366004614fca565b610ff1565b34801561044357600080fd5b506005546104519060ff1681565b60405160ff90911681526020016102da565b34801561046f57600080fd5b506102b661047e3660046151a3565b611007565b34801561048f57600080fd5b5061033361049e366004615023565b61104b565b3480156104af57600080fd5b506103336110e6565b3480156104c457600080fd5b50610333600e5481565b3480156104da57600080fd5b506102b66104e936600461521c565b6110f5565b3480156104fa57600080fd5b506102b6610509366004615274565b611175565b34801561051a57600080fd5b50600054610361906001600160a01b031681565b34801561053a57600080fd5b50600654610361906001600160a01b031681565b34801561055a57600080fd5b5061033360105481565b34801561057057600080fd5b50610333666379da05b6000081565b34801561058b57600080fd5b50610333600c5481565b3480156105a157600080fd5b50601654610361906001600160a01b031681565b3480156105c157600080fd5b506103336105d0366004615023565b6001600160a01b031660009081526013602052604090205490565b3480156105f757600080fd5b506103336111c7565b34801561060c57600080fd5b5061033361061b366004614ff6565b6111f6565b34801561062c57600080fd5b5061033360095481565b34801561064257600080fd5b50610333600f5481565b34801561065857600080fd5b50610333610667366004614ff6565b611201565b34801561067857600080fd5b506102cd611258565b34801561068d57600080fd5b5061033361069c366004615023565b611265565b3480156106ad57600080fd5b506103336106bc366004614ff6565b6112df565b3480156106cd57600080fd5b506103336106dc366004614ff6565b611322565b3480156106ed57600080fd5b5061033361132e565b34801561070257600080fd5b50610333610711366004614ff6565b6114bf565b34801561072257600080fd5b50610303610731366004614fca565b611502565b34801561074257600080fd5b50610333600d5481565b34801561075857600080fd5b506000610303565b34801561076c57600080fd5b5061033361152f565b34801561078157600080fd5b50610333610790366004615121565b6115e4565b3480156107a157600080fd5b50610333611608565b3480156107b657600080fd5b5061033367016345785d8a000081565b3480156107d257600080fd5b506107e66107e1366004615023565b611638565b6040516102da94939291906152bc565b34801561080257600080fd5b50610333610811366004614ff6565b6116d9565b34801561082257600080fd5b5060408051808201909152600e81526d43457263323044656c656761746560901b60208201526102cd565b34801561085957600080fd5b50610333610868366004614ff6565b6116e4565b34801561087957600080fd5b50610333600a5481565b34801561088f57600080fd5b5061033360115481565b3480156108a557600080fd5b506103336108b43660046152d7565b6001600160a01b03918216600090815260146020908152604080832093909416825291909152205490565b3480156108eb57600080fd5b506103336108fa366004615023565b6116ef565b34801561090b57600080fd5b50600754610361906001600160a01b031681565b34801561092b57600080fd5b5061033361093a366004615310565b611727565b34801561094b57600080fd5b5061033361173f565b34801561096057600080fd5b5061033361096f366004614ff6565b611790565b34801561098057600080fd5b506001610303565b60006702c68af0bb14000090506000896001600160a01b031663313ce5676040518163ffffffff1660e01b8152600401602060405180830381865afa1580156109d5573d6000803e3d6000fd5b505050506040513d601f19601f820116820180604052508101906109f99190615352565b9050610a0c898989858a8a878b8b610da6565b601680546001600160a01b0319166001600160a01b038c16908117909155604080516318160ddd60e01b815290516318160ddd916004808201926020929091908290030181865afa158015610a65573d6000803e3d6000fd5b505050506040513d601f19601f82011682018060405250810190610a89919061536f565b5050505050505050505050565b60038054610aa390615388565b80601f0160208091040260200160405190810160405280929190818152602001828054610acf90615388565b8015610b1c5780601f10610af157610100808354040283529160200191610b1c565b820191906000526020600020905b815481529060010190602001808311610aff57829003601f168201915b505050505081565b3360008181526014602090815260408083206001600160a01b03871680855292528083208590555191929182907f8c5be1e5ebec7d5bd14f71427d1e84f3dd0314c0f7b2291e5b200ac8c7c3b92590610b809087815260200190565b60405180910390a360019150505b92915050565b600080610ba0836117d3565b509392505050565b600080610bb48161183b565b6000610bbe61132e565b14610be45760405162461bcd60e51b8152600401610bdb906153d3565b60405180910390fd5b610bed83611265565b91505b610bf9816118ff565b50919050565b6000806000610c0c61197b565b90925090506000826003811115610c2557610c256153bd565b14610b8e5760405162461bcd60e51b815260206004820152601b60248201527a08595e18da185b99d954985d1954dd1bdc9959125b9d195c9b985b602a1b6044820152606401610bdb565b333014801590610cf25750600660009054906101000a90046001600160a01b03166001600160a01b031663dd5cd22c6040518163ffffffff1660e01b8152600401602060405180830381865afa158015610cce573d6000803e3d6000fd5b505050506040513d601f19601f82011682018060405250810190610cf291906153fc565b15610da457600154600080546040516345cc970560e01b81529192839283926001600160a01b03928316926345cc970592610d33929091169060040161500f565b600060405180830381865afa158015610d50573d6000803e3d6000fd5b505050506040513d6000823e601f3d908101601f19168201604052610d789190810190615419565b60005492955090935091506001600160a01b03808516911614610da057610da0838383611a3a565b5050505b565b336001600160a01b03891614610dce5760405162461bcd60e51b8152600401610bdb906154b8565b600c54158015610dde5750600d54155b610e195760405162461bcd60e51b815260206004820152600c60248201526b085a5b9a5d1a585b1a5e995960a21b6044820152606401610bdb565b600180546001600160a01b0319166001600160a01b038a16179055600886905585610e785760405162461bcd60e51b815260206004820152600f60248201526e02165786368616e6765526174653e3608c1b6044820152606401610bdb565b600680546001600160a01b0319166001600160a01b038b1617905543600c55670de0b6b3a7640000600d556000610eae88611bc7565b90508015610ee95760405162461bcd60e51b8152602060048201526008602482015267085a5c9b4e9cd95d60c21b6044820152606401610bdb565b8551610efc906003906020890190614c50565b508451610f10906004906020880190614c50565b506005805460ff191660ff8616179055610f2983611d03565b90508015610f635760405162461bcd60e51b8152602060048201526007602482015266085c998e9cd95d60ca1b6044820152606401610bdb565b610f6c82611da2565b90508015610fac5760405162461bcd60e51b815260206004820152600d60248201526c0858591b5a5b9199594e9cd95d609a1b6044820152606401610bdb565b50506002805460ff60b01b1916600160b01b1790555050505050505050565b600080610fd78161183b565b6000610fe533878787611ebc565b149150610ba0816118ff565b600080610ffe848461214f565b50949350505050565b61100f6121b9565b61102b5760405162461bcd60e51b8152600401610bdb906154b8565b61103760038585614cd4565b5061104460048383614cd4565b5050505050565b6000806040518060200160405280611061611608565b90526001600160a01b03841660009081526013602052604081205491925090819061108d908490612324565b909250905060008260038111156110a6576110a66153bd565b146110de5760405162461bcd60e51b81526020600482015260086024820152672162616c616e636560c01b6044820152606401610bdb565b949350505050565b60006110f0612377565b905090565b6110fd6121b9565b6111195760405162461bcd60e51b8152600401610bdb906154b8565b6000546001600160a01b0385811691161461116f5761116f848484848080601f016020809104026020016040519081016040528093929190818152602001838380828437600092019190915250611a3a92505050565b50505050565b3330148061118657506111866121b9565b6111c45760405162461bcd60e51b815260206004820152600f60248201526e10b9b2b633103e3e1010b0b236b4b760891b6044820152606401610bdb565b50565b6000806111d261132e565b146111ef5760405162461bcd60e51b8152600401610bdb906153d3565b50600e5490565b6000610b8e826123eb565b60008061120d8161183b565b600061121761132e565b905080156112435761123b816011811115611234576112346153bd565b6050612431565b925050610bf0565b61124c84611da2565b925050610bf9816118ff565b60048054610aa390615388565b600080600061127384612491565b9092509050600082600381111561128c5761128c6153bd565b146112d85760405162461bcd60e51b815260206004820152601c60248201527b08589bdc9c9bddd0985b185b98d954dd1bdc9959125b9d195c9b985b60221b6044820152606401610bdb565b9392505050565b6000806112eb8161183b565b60006112f561132e565b905080156113195761123b816011811115611312576113126153bd565b6033612431565b61124c8461254a565b600080610ba0836125bd565b600c5460009043908114156113465760005b91505090565b6000611350612377565b90506000611362601054601154612603565b600754600e54600f549293506000926001600160a01b03909216916315f2405391869161138f9087612603565b6040518463ffffffff1660e01b81526004016113ad939291906154d8565b602060405180830381865afa1580156113ca573d6000803e3d6000fd5b505050506040513d601f19601f820116820180604052508101906113ee919061536f565b905065048c27395000811115611445578183111561143c5760405162461bcd60e51b815260206004820152600b60248201526a21626f72726f775261746560a81b6044820152606401610bdb565b5065048c273950005b60008061145486600c54612639565b9092509050600082600381111561146d5761146d6153bd565b146114a85760405162461bcd60e51b815260206004820152600b60248201526a21626c6f636b44656c746160a81b6044820152606401610bdb565b6114b486868584612664565b965050505050505090565b6000806114cb8161183b565b60006114d561132e565b905080156114f95761123b8160118111156114f2576114f26153bd565b6037612431565b61124c84612786565b60008061150e8161183b565b600061151c33338787611ebc565b149150611528816118ff565b5092915050565b6007546000906001600160a01b031663b816881661154b612377565b600e54611567600f54611562601054601154612603565b612603565b600954600a54600b5461157a9190615504565b6115849190615504565b6040518563ffffffff1660e01b81526004016115a394939291906152bc565b602060405180830381865afa1580156115c0573d6000803e3d6000fd5b505050506040513d601f19601f820116820180604052508101906110f0919061536f565b600060016115f18161183b565b6115fd33868686612864565b9150610ba0816118ff565b60008061161361132e565b146116305760405162461bcd60e51b8152600401610bdb906153d3565b6110f0610bff565b6001600160a01b03811660009081526013602052604081205481908190819081808061166389612491565b93509050600081600381111561167b5761167b6153bd565b146116995760095b60008060009750975097509750505050506116d2565b6116a161197b565b9250905060008160038111156116b9576116b96153bd565b146116c5576009611683565b5060009650919450925090505b9193509193565b6000610b8e82612d40565b6000610b8e82612d84565b6000806116fa61132e565b9050801561171e576112d8816011811115611717576117176153bd565b604b612431565b6112d883611bc7565b600080611735858585612dc3565b5095945050505050565b6007546000906001600160a01b03166315f2405361175b612377565b600e54611772600f54611562601054601154612603565b6040518463ffffffff1660e01b81526004016115a3939291906154d8565b60008061179c8161183b565b60006117a661132e565b905080156117ca5761123b8160118111156117c3576117c36153bd565b6057612431565b61124c84611d03565b60008060006117e18161183b565b60006117eb61132e565b9050801561181b5761180f816011811115611808576118086153bd565b6041612431565b6000935093505061182c565b611826333387612eb7565b93509350505b611835816118ff565b50915091565b600254600160b01b900460ff166118815760405162461bcd60e51b815260206004820152600a6024820152691c994b595b9d195c995960b21b6044820152606401610bdb565b806118ef57600660009054906101000a90046001600160a01b03166001600160a01b031663c90c20b16040518163ffffffff1660e01b8152600401600060405180830381600087803b1580156118d657600080fd5b505af11580156118ea573d6000803e3d6000fd5b505050505b506002805460ff60b01b19169055565b6002805460ff60b01b1916600160b01b179055806111c457600660009054906101000a90046001600160a01b03166001600160a01b031663632e51426040518163ffffffff1660e01b8152600401600060405180830381600087803b15801561196757600080fd5b505af1158015611044573d6000803e3d6000fd5b601254600090819080611995575050600854600092909150565b600061199f612377565b905060006119ab614d48565b60006119cd84600e546119c8600f54611562601054601154612603565b6132c0565b9350905060008160038111156119e5576119e56153bd565b146119f7579660009650945050505050565b611a018386613312565b925090506000816003811115611a1957611a196153bd565b14611a2b579660009650945050505050565b50516000969095509350505050565b6001546000546040516338e6a07360e11b81526001600160a01b03928316926371cd40e692611a72929116908790879060040161551c565b602060405180830381865afa158015611a8f573d6000803e3d6000fd5b505050506040513d601f19601f82011682018060405250810190611ab391906153fc565b611ae75760405162461bcd60e51b8152602060048201526005602482015264085a5b5c1b60da1b6044820152606401610bdb565b600080546001600160a01b038581166001600160a01b031983161790925516303b611b1a57611b1582611175565b611b7c565b611b7a3083604051602401611b2f9190614fb7565b60408051601f19818403018152918152602080830180516001600160e01b0316630adccee560e31b17905281518083019092526007825266216265636f6d6560c81b908201526133cf565b505b6000546040517fd604de94d45953f9138079ec1b82d533cb2160c906d1076d1f7ed54befbca97a91611bb99184916001600160a01b031690615540565b60405180910390a150505050565b600080611bd26121b9565b611be2576112d86001604d612431565b43600c5414611bf7576112d8600a604c612431565b600760009054906101000a90046001600160a01b03169050826001600160a01b0316632191f92a6040518163ffffffff1660e01b8152600401602060405180830381865afa158015611c4d573d6000803e3d6000fd5b505050506040513d601f19601f82011682018060405250810190611c7191906153fc565b611ca75760405162461bcd60e51b8152602060048201526007602482015266216e6f7449726d60c81b6044820152606401610bdb565b600780546001600160a01b0319166001600160a01b0385161790556040517fedffc32e068c7c95dfd4bdfd5c4d939a084d6b11c4199eac8436ed234d72f92690611cf49083908690615540565b60405180910390a160006112d8565b6000611d0d6121b9565b611d1d57610b8e60016058612431565b43600c5414611d3257610b8e600a6059612431565b670de0b6b3a7640000611d52611d4a84600954612603565b600a54612603565b1115611d6457610b8e6002605a612431565b600b80549083905560408051828152602081018590527faaa68312e2ea9d50e16af5068410ab56e1a1fd06037b1a35664812c30f8214609101611cf4565b600043600c5414611db957610b8e600a6052612431565b600019821415611dc95760095491505b6000611dd361346b565b9050670de0b6b3a7640000611df3611ded600b5486612603565b83612603565b1115611e05576112d860026053612431565b8260095414611e6957611e166121b9565b611e26576112d860016051612431565b600980549084905560408051828152602081018690527fcdd0b588250e1398549f79cfdb8217c186688822905d6715b0834ea1c865594a910160405180910390a1505b80600a5414611eb557600a80549082905560408051828152602081018490527f92eef861b6533b7d3417f39c2ad7b460eed4e88a32fa3604f30e718b7602e7dc910160405180910390a1505b60006112d8565b6006546040516317b9b84b60e31b815260009182916001600160a01b039091169063bdcdc25890611ef790309089908990899060040161555a565b6020604051808303816000875af1158015611f16573d6000803e3d6000fd5b505050506040513d601f19601f82011682018060405250810190611f3a919061536f565b90508015611f5757611f4f6003605b836134b5565b9150506110de565b836001600160a01b0316856001600160a01b03161415611f7d57611f4f6002605c612431565b6000856001600160a01b0316876001600160a01b03161415611fa25750600019611fca565b506001600160a01b038086166000908152601460209081526040808320938a16835292905220545b600080600080611fda8589612639565b90945092506000846003811115611ff357611ff36153bd565b14612011576120046009605c612431565b96505050505050506110de565b6001600160a01b038a166000908152601360205260409020546120349089612639565b9094509150600084600381111561204d5761204d6153bd565b1461205e576120046009605d612431565b6001600160a01b038916600090815260136020526040902054612081908961353e565b9094509050600084600381111561209a5761209a6153bd565b146120ab576120046009605e612431565b6001600160a01b03808b16600090815260136020526040808220859055918b168152208190556000198514612103576001600160a01b03808b166000908152601460209081526040808320938f168352929052208390555b886001600160a01b03168a6001600160a01b03166000805160206156eb8339815191528a60405161213691815260200190565b60405180910390a35060009a9950505050505050505050565b600080600061215d8161183b565b600061216761132e565b905080156121975761218b816011811115612184576121846153bd565b6040612431565b600093509350506121a8565b6121a2338787612eb7565b93509350505b6121b1816118ff565b509250929050565b600654604080516303e1469160e61b815290516000926001600160a01b031691829163f851a440916004808201926020929091908290030181865afa158015612206573d6000803e3d6000fd5b505050506040513d601f19601f8201168201806040525081019061222a9190615584565b6001600160a01b0316336001600160a01b03161480156122a75750806001600160a01b0316630a755ec26040518163ffffffff1660e01b8152600401602060405180830381865afa158015612283573d6000803e3d6000fd5b505050506040513d601f19601f820116820180604052508101906122a791906153fc565b8061134057506001546001600160a01b0316331480156113405750806001600160a01b0316632f1069ba6040518163ffffffff1660e01b8152600401602060405180830381865afa158015612300573d6000803e3d6000fd5b505050506040513d601f19601f8201168201806040525081019061134091906153fc565b6000806000806123348686613564565b9092509050600082600381111561234d5761234d6153bd565b1461235e5750915060009050612370565b6000612369826135d2565b9350935050505b9250929050565b6016546040516370a0823160e01b81526000916001600160a01b03169081906370a08231906123aa90309060040161500f565b602060405180830381865afa1580156123c7573d6000803e3d6000fd5b505050506040513d601f19601f82011682018060405250810190611340919061536f565b6000806123f78161183b565b600061240161132e565b905080156124255761123b81601181111561241e5761241e6153bd565b602a612431565b61124c336000866135ea565b60006000805160206156cb833981519152836011811115612454576124546153bd565b836061811115612466576124666153bd565b6000604051612477939291906154d8565b60405180910390a18260118111156112d8576112d86153bd565b6001600160a01b0381166000908152601560205260408120805482918291829182916124c65750600096879650945050505050565b6124d68160000154600d54613b99565b909450925060008460038111156124ef576124ef6153bd565b1461250257509195600095509350505050565b612510838260010154613bd8565b90945091506000846003811115612529576125296153bd565b1461253c57509195600095509350505050565b506000969095509350505050565b60008043600c5414612562576112d8600a6035612431565b8261256b612377565b101561257d576112d8600e6034612431565b601154831115612593576112d860026036612431565b61259f60115484613c03565b6011819055600154909150611eb5906001600160a01b031684613c3d565b60008060006125cb8161183b565b60006125d561132e565b905080156125f95761180f8160118111156125f2576125f26153bd565b6020612431565b6118263386613cc9565b60006112d88383604051806040016040528060118152602001706164646974696f6e206f766572666c6f7760781b815250614017565b60008083831161265857600061264f84866155a1565b91509150612370565b50600390506000612370565b60008061267f60405180602001604052808681525084614048565b9050600061268f82600e54614072565b9050600061269f82600e54612603565b905060006126c06040518060200160405280600b5481525084600f5461408a565b905060006126e16040518060200160405280600a548152508560115461408a565b9050600061270260405180602001604052806009548152508660105461408a565b9050600061271587600d54600d5461408a565b600c8d9055600d819055600e869055600f859055601184905560108390556040519091507f4dec04e750ca11537cabcd8a9eab06494de08da3735bc8871cd41250e190bc049061276c908d90899085908a906152bc565b60405180910390a160009c9b505050505050505050505050565b60008043600c541461279e576112d8600a6039612431565b826127a7612377565b10156127b9576112d8600e6038612431565b6010548311156127cf576112d86002603a612431565b6127db60105484613c03565b905080601081905550611eb5600660009054906101000a90046001600160a01b03166001600160a01b031663f851a4406040518163ffffffff1660e01b8152600401602060405180830381865afa15801561283a573d6000803e3d6000fd5b505050506040513d601f19601f8201168201806040525081019061285e9190615584565b84613c3d565b60065460405163d02f735160e01b815260009182916001600160a01b039091169063d02f7351906128a19030908a908a908a908a906004016155b8565b6020604051808303816000875af11580156128c0573d6000803e3d6000fd5b505050506040513d601f19601f820116820180604052508101906128e4919061536f565b905080156128f957611f4f6003601d836134b5565b846001600160a01b0316846001600160a01b0316141561291f57611f4f6006601e612431565b612984604080516101808101909152806000815260200160008152602001600081526020016000815260200160008152602001600081526020016000815260200160008152602001600081526020016000815260200160008152602001600081525090565b6001600160a01b0385166000908152601360205260409020546129a79085612639565b60208301819052828260038111156129c1576129c16153bd565b60038111156129d2576129d26153bd565b90525060009050815160038111156129ec576129ec6153bd565b14612a1c57612a136009601c83600001516003811115612a0e57612a0e6153bd565b6134b5565b925050506110de565b612a3b846040518060200160405280666379da05b600008152506140ab565b6080820152604080516020810190915267016345785d8a00008152612a619085906140ab565b6101408201526080810151612a8690612a7b908690613c03565b826101400151613c03565b6060820152612a9361197b565b60c0830181905282826003811115612aad57612aad6153bd565b6003811115612abe57612abe6153bd565b9052506000905081516003811115612ad857612ad86153bd565b14612b155760405162461bcd60e51b815260206004820152600d60248201526c2165786368616e67655261746560981b6044820152606401610bdb565b612b3560405180602001604052808360c001518152508260800151614072565b60a0820152604080516020810190915260c08201518152610140820151612b5c9190614072565b610160820152600f5460a0820151612b749190612603565b60e08201526012546080820151612b8e91612a7b91613c03565b610120820152601154610160820151612ba79190612603565b6101008201526001600160a01b0386166000908152601360205260409020546060820151612bd5919061353e565b6040830181905282826003811115612bef57612bef6153bd565b6003811115612c0057612c006153bd565b9052506000905081516003811115612c1a57612c1a6153bd565b14612c3c57612a136009601b83600001516003811115612a0e57612a0e6153bd565b60e0810151600f556101208101516012556101008101516011556020808201516001600160a01b0387811660008181526013855260408082209490945583860151928b16808252908490209290925560608501519251928352909290916000805160206156eb833981519152910160405180910390a3306001600160a01b0316856001600160a01b03166000805160206156eb8339815191528360800151604051612ce991815260200190565b60405180910390a360a081015160e08201516040517fa91e67c5ea634cd43a12c5a482724b03de01e85ca68702a53d0c2f45cb7c1dc592612d2b9230926155eb565b60405180910390a16000979650505050505050565b600080612d4c8161183b565b6000612d5661132e565b90508015612d7a5761123b816011811115612d7357612d736153bd565b600a612431565b61124c33856140ce565b600080612d908161183b565b6000612d9a61132e565b90508015612db75761123b81601181111561241e5761241e6153bd565b61124c338560006135ea565b6000806000612dd18161183b565b6000612ddb61132e565b90508015612e0b57612dff816011811115612df857612df86153bd565b6011612431565b60009350935050612ea5565b846001600160a01b031663a6afed956040518163ffffffff1660e01b81526004016020604051808303816000875af1158015612e4b573d6000803e3d6000fd5b505050506040513d601f19601f82011682018060405250810190612e6f919061536f565b90508015612e9357612dff816011811115612e8c57612e8c6153bd565b6012612431565b612e9f3388888861445e565b93509350505b612eae816118ff565b50935093915050565b600654604051631200453160e11b8152600091829182916001600160a01b0316906324008a6290612ef29030908a908a908a9060040161555a565b6020604051808303816000875af1158015612f11573d6000803e3d6000fd5b505050506040513d601f19601f82011682018060405250810190612f35919061536f565b90508015612f5657612f4a60036043836134b5565b600092509250506132b8565b43600c5414612f6b57612f4a600a6044612431565b612fb46040805161010081019091528060008152602001600081526020016000815260200160008152602001600081526020016000815260200160008152602001600081525090565b6001600160a01b0386166000908152601560205260409020600101546060820152612fde86612491565b6080830181905260208301826003811115612ffb57612ffb6153bd565b600381111561300c5761300c6153bd565b9052506000905081602001516003811115613029576130296153bd565b146130585761304b6009604283602001516003811115612a0e57612a0e6153bd565b60009350935050506132b8565b6000198514156130715760808101516040820152613079565b604081018590525b6130878782604001516148fa565b60e08201819052608082015161309c91612639565b60a08301819052602083018260038111156130b9576130b96153bd565b60038111156130ca576130ca6153bd565b90525060009050816020015160038111156130e7576130e76153bd565b146131575760405162461bcd60e51b815260206004820152603a60248201527f52455041595f424f52524f575f4e45575f4143434f554e545f424f52524f575f604482015279109053105390d157d0d05310d55310551253d397d1905253115160321b6064820152608401610bdb565b613167600e548260e00151612639565b60c0830181905260208301826003811115613184576131846153bd565b6003811115613195576131956153bd565b90525060009050816020015160038111156131b2576131b26153bd565b146132195760405162461bcd60e51b815260206004820152603160248201527f52455041595f424f52524f575f4e45575f544f54414c5f42414c414e43455f43604482015270105310d55310551253d397d19052531151607a1b6064820152608401610bdb565b60a081810180516001600160a01b03898116600081815260156020908152604091829020948555600d5460019095019490945560c0870151600e81905560e088015195518251948f16855294840192909252820193909352606081019190915260808101919091527f1a2a22cb034d26d1854bdc6666a5b91fe25efbbb5dcad3b0355478d6f5c362a1910160405180910390a160e00151600093509150505b935093915050565b6000806000806132d0878761353e565b909250905060008260038111156132e9576132e96153bd565b146132fa57509150600090506132b8565b6133048186612639565b935093505050935093915050565b600061331c614d48565b60008061333186670de0b6b3a7640000613b99565b9092509050600082600381111561334a5761334a6153bd565b1461336957506040805160208101909152600081529092509050612370565b6000806133768388613bd8565b9092509050600082600381111561338f5761338f6153bd565b146133b25781604051806020016040528060008152509550955050505050612370565b604080516020810190915290815260009890975095505050505050565b6060600080856001600160a01b0316856040516133ec919061560c565b6000604051808303816000865af19150503d8060008114613429576040519150601f19603f3d011682016040523d82523d6000602084013e61342e565b606091505b509150915081613462578051156134485780518082602001fd5b8360405162461bcd60e51b8152600401610bdb9190614fb7565b95945050505050565b6001546040805163dd86fea160e01b815290516000926001600160a01b03169163dd86fea19160048083019260209291908290030181865afa1580156115c0573d6000803e3d6000fd5b60006000805160206156cb8339815191528460118111156134d8576134d86153bd565b8460618111156134ea576134ea6153bd565b846040516134fa939291906154d8565b60405180910390a16003846011811115613516576135166153bd565b146135325783601181111561352d5761352d6153bd565b6110de565b6110de826103e8615504565b60008083830184811061355657600092509050612370565b600260009250925050612370565b600061356e614d48565b60008061357f866000015186613b99565b90925090506000826003811115613598576135986153bd565b146135b757506040805160208101909152600081529092509050612370565b60408051602081019091529081526000969095509350505050565b8051600090610b8e90670de0b6b3a764000090615628565b60008215806135f7575081155b61363d5760405162461bcd60e51b815260206004820152601760248201527602172656465656d546f6b656e73496e6f724f7574213d3604c1b6044820152606401610bdb565b613645614d5b565b61364d61197b565b604083018190526020830182600381111561366a5761366a6153bd565b600381111561367b5761367b6153bd565b9052506000905081602001516003811115613698576136986153bd565b146136c2576136ba6009602e83602001516003811115612a0e57612a0e6153bd565b9150506112d8565b60001983141561374757600654604051630cbb414760e11b81526001600160a01b0390911690631976828e90613701908890309060009060040161551c565b6020604051808303816000875af1158015613720573d6000803e3d6000fd5b505050506040513d601f19601f82011682018060405250810190613744919061536f565b92505b83156137e057606081018490526040805160208101825290820151815261376e9085612324565b608083018190526020830182600381111561378b5761378b6153bd565b600381111561379c5761379c6153bd565b90525060009050816020015160038111156137b9576137b96153bd565b146137db576136ba6009602c83602001516003811115612a0e57612a0e6153bd565b613871565b6137fc8360405180602001604052808460400151815250614ac6565b6060830181905260208301826003811115613819576138196153bd565b600381111561382a5761382a6153bd565b9052506000905081602001516003811115613847576138476153bd565b14613869576136ba6009602d83602001516003811115612a0e57612a0e6153bd565b608081018390525b600654606082015160405163eabe7d9160e01b81526000926001600160a01b03169163eabe7d91916138aa9130918b919060040161564a565b6020604051808303816000875af11580156138c9573d6000803e3d6000fd5b505050506040513d601f19601f820116820180604052508101906138ed919061536f565b9050801561390b576139026003602b836134b5565b925050506112d8565b43600c541461392057613902600a602f612431565b6139306012548360600151612639565b60a084018190526020840182600381111561394d5761394d6153bd565b600381111561395e5761395e6153bd565b905250600090508260200151600381111561397b5761397b6153bd565b1461399d576139026009603184602001516003811115612a0e57612a0e6153bd565b6001600160a01b03861660009081526013602052604090205460608301516139c59190612639565b60c08401819052602084018260038111156139e2576139e26153bd565b60038111156139f3576139f36153bd565b9052506000905082602001516003811115613a1057613a106153bd565b14613a32576139026009603084602001516003811115612a0e57612a0e6153bd565b8160800151613a3f612377565b1015613a5157613902600e6032612431565b60a082015160125560c08201516001600160a01b0387166000908152601360205260409020556080820151613a87908790613c3d565b306001600160a01b0316866001600160a01b03166000805160206156eb8339815191528460600151604051613abe91815260200190565b60405180910390a3608082015160608301516040517fe5b754fb1abb7f01b499791d0b820ae3b6af3424ac1c59768edb53f4ec31a92992613b00928a926155eb565b60405180910390a1600654608083015160608401516040516351dff98960e01b81523060048201526001600160a01b038a81166024830152604482019390935260648101919091529116906351dff98990608401600060405180830381600087803b158015613b6e57600080fd5b505af1158015613b82573d6000803e3d6000fd5b5060009250613b8f915050565b9695505050505050565b60008083613bac57506000905080612370565b83830283613bba8683615628565b14613bcd57600260009250925050612370565b600092509050612370565b60008082613bec5750600190506000612370565b6000613bf88486615628565b915091509250929050565b60006112d88383604051806040016040528060158152602001747375627472616374696f6e20756e646572666c6f7760581b815250614ad6565b613cc563a9059cbb60e01b8383604051602401613c5b92919061566e565b604051602081830303815290604052906001600160e01b0319166020820180516001600160e01b038381831617835250505050604051806040016040528060198152602001781513d2d15397d514905394d1915497d3d55517d19052531151603a1b815250614b05565b5050565b600654604051634ef4c3e160e01b8152600091829182916001600160a01b031690634ef4c3e190613d029030908990899060040161564a565b6020604051808303816000875af1158015613d21573d6000803e3d6000fd5b505050506040513d601f19601f82011682018060405250810190613d45919061536f565b90508015613d6657613d5a60036021836134b5565b60009250925050612370565b43600c5414613d7b57613d5a600a6024612431565b613d83614d5b565b613d8b61197b565b6040830181905260208301826003811115613da857613da86153bd565b6003811115613db957613db96153bd565b9052506000905081602001516003811115613dd657613dd66153bd565b14613e0557613df86009602383602001516003811115612a0e57612a0e6153bd565b6000935093505050612370565b613e0f86866148fa565b60c0820181905260408051602081018252908301518152613e309190614ac6565b6060830181905260208301826003811115613e4d57613e4d6153bd565b6003811115613e5e57613e5e6153bd565b9052506000905081602001516003811115613e7b57613e7b6153bd565b14613ec85760405162461bcd60e51b815260206004820181905260248201527f4d494e545f45584348414e47455f43414c43554c4154494f4e5f4641494c45446044820152606401610bdb565b6000816060015111613f195760405162461bcd60e51b815260206004820152601a6024820152791352539517d6915493d7d0d513d2d15394d7d491529150d5115160321b6044820152606401610bdb565b613f296012548260600151612603565b60808201526001600160a01b0386166000908152601360205260409020546060820151613f569190612603565b60a0820181905260808201516012556001600160a01b038716600090815260136020526040908190209190915560c0820151606083015191517f4c209b5fc8ad50758f13e2e1088ba56a560dff690a1c6fef26394f4c03821c4f92613fbf928a929091906155eb565b60405180910390a1856001600160a01b0316306001600160a01b03166000805160206156eb8339815191528360600151604051613ffe91815260200190565b60405180910390a360c001516000969095509350505050565b6000806140248486615504565b90508285821015610ffe5760405162461bcd60e51b8152600401610bdb9190614fb7565b614050614d48565b6040518060200160405280614069856000015185614b5c565b90529392505050565b60008061407f8484614048565b90506110de816135d2565b6000806140978585614048565b90506134626140a5826135d2565b84612603565b6000670de0b6b3a76400006140c4848460000151614b5c565b6112d89190615628565b60065460405163368f515360e21b815260009182916001600160a01b039091169063da3d454c906141079030908890889060040161564a565b6020604051808303816000875af1158015614126573d6000803e3d6000fd5b505050506040513d601f19601f8201168201806040525081019061414a919061536f565b905080156141675761415f60036010836134b5565b915050610b8e565b43600c541461417c5761415f600a600c612431565b6000614186612377565b9050838110156141a55761419c600e600b612431565b92505050610b8e565b6141d1604080516080810190915280600081526020016000815260200160008152602001600081525090565b6141da86612491565b60208301819052828260038111156141f4576141f46153bd565b6003811115614205576142056153bd565b905250600090508151600381111561421f5761421f6153bd565b1461424a5761424060098083600001516003811115612a0e57612a0e6153bd565b9350505050610b8e565b61425881602001518661353e565b6040830181905282826003811115614272576142726153bd565b6003811115614283576142836153bd565b905250600090508151600381111561429d5761429d6153bd565b146142bf576142406009600e83600001516003811115612a0e57612a0e6153bd565b6006546040808301519051631de6c8a560e21b81526001600160a01b039092169163779b2294916142f59130919060040161566e565b602060405180830381865afa158015614312573d6000803e3d6000fd5b505050506040513d601f19601f82011682018060405250810190614336919061536f565b9250821561434b5761424060036010856134b5565b614357600e548661353e565b6060830181905282826003811115614371576143716153bd565b6003811115614382576143826153bd565b905250600090508151600381111561439c5761439c6153bd565b146143be576142406009600d83600001516003811115612a0e57612a0e6153bd565b6040808201516001600160a01b0388166000908152601560205291909120908155600d546001909101556060810151600e556143fa8686613c3d565b60408082015160608084015183516001600160a01b038b168152602081018a9052938401929092528201527f13ed6866d4e1ee6da46f845c46d7e54120883d75c5ea9a2dacc1c4ca8984ab809060800160405180910390a160009695505050505050565b600654604051632fe3f38f60e11b8152600091829182916001600160a01b031690635fc7e71e9061449b90309088908c908c908c906004016155b8565b6020604051808303816000875af11580156144ba573d6000803e3d6000fd5b505050506040513d601f19601f820116820180604052508101906144de919061536f565b905080156144ff576144f360036014836134b5565b600092509250506148f1565b43600c5414614514576144f3600a6018612431565b43846001600160a01b0316636c540baf6040518163ffffffff1660e01b8152600401602060405180830381865afa158015614553573d6000803e3d6000fd5b505050506040513d601f19601f82011682018060405250810190614577919061536f565b14614588576144f3600a6013612431565b866001600160a01b0316866001600160a01b031614156145ae576144f360066019612431565b846145bf576144f360076017612431565b6000198514156145d5576144f360076016612431565b6000806145e3898989612eb7565b909250905081156146185761460a826011811115614603576146036153bd565b601a612431565b6000945094505050506148f1565b60065460405163c488847b60e01b815260009182916001600160a01b039091169063c488847b906146519030908c90889060040161564a565b6040805180830381865afa15801561466d573d6000803e3d6000fd5b505050506040513d601f19601f820116820180604052508101906146919190615687565b909250905081156147005760405162461bcd60e51b815260206004820152603360248201527f4c49515549444154455f434f4d5054524f4c4c45525f43414c43554c4154455f604482015272105353d5539517d4d152569157d19052531151606a1b6064820152608401610bdb565b6040516370a0823160e01b815281906001600160a01b038a16906370a082319061472e908e9060040161500f565b602060405180830381865afa15801561474b573d6000803e3d6000fd5b505050506040513d601f19601f8201168201806040525081019061476f919061536f565b10156147b85760405162461bcd60e51b815260206004820152601860248201527709892a2aa928882a88abea68a92b48abea89e9ebe9aaa86960431b6044820152606401610bdb565b60006001600160a01b0389163014156147de576147d7308d8d85612864565b9050614854565b60405163b2a02ff160e01b81526001600160a01b038a169063b2a02ff19061480e908f908f90879060040161564a565b6020604051808303816000875af115801561482d573d6000803e3d6000fd5b505050506040513d601f19601f82011682018060405250810190614851919061536f565b90505b801561488b5760405162461bcd60e51b8152602060048201526006602482015265217365697a6560d01b6044820152606401610bdb565b604080516001600160a01b038e811682528d811660208301528183018790528b1660608201526080810184905290517f298637f684da70674f26509b10f07ec2fbc77a335ab1e7d6215a4b2484d8bb529181900360a00190a16000975092955050505050505b94509492505050565b6016546040516370a0823160e01b815260009182916001600160a01b03909116906370a082319061492f90309060040161500f565b602060405180830381865afa15801561494c573d6000803e3d6000fd5b505050506040513d601f19601f82011682018060405250810190614970919061536f565b90506149fb6323b872dd60e01b8530866040516024016149929392919061564a565b604051602081830303815290604052906001600160e01b0319166020820180516001600160e01b038381831617835250505050604051806040016040528060188152602001771513d2d15397d514905394d1915497d25397d1905253115160421b815250614b05565b6016546040516370a0823160e01b81526000916001600160a01b0316906370a0823190614a2c90309060040161500f565b602060405180830381865afa158015614a49573d6000803e3d6000fd5b505050506040513d601f19601f82011682018060405250810190614a6d919061536f565b905081811015614abc5760405162461bcd60e51b815260206004820152601a602482015279544f4b454e5f5452414e534645525f494e5f4f564552464c4f5760301b6044820152606401610bdb565b61346282826155a1565b6000806000806123348686614b98565b60008184841115614afa5760405162461bcd60e51b8152600401610bdb9190614fb7565b506110de83856155a1565b601654600090614b1f906001600160a01b031684846133cf565b805190915015610da05780806020019051810190614b3d91906153fc565b829061116f5760405162461bcd60e51b8152600401610bdb9190614fb7565b60006112d88383604051806040016040528060178152602001766d756c7469706c69636174696f6e206f766572666c6f7760481b815250614bfd565b6000614ba2614d48565b600080614bb7670de0b6b3a764000087613b99565b90925090506000826003811115614bd057614bd06153bd565b14614bef57506040805160208101909152600081529092509050612370565b612369818660000151613312565b6000831580614c0a575082155b15614c17575060006112d8565b6000614c2384866156ab565b905083614c308683615628565b148390610ffe5760405162461bcd60e51b8152600401610bdb9190614fb7565b828054614c5c90615388565b90600052602060002090601f016020900481019282614c7e5760008555614cc4565b82601f10614c9757805160ff1916838001178555614cc4565b82800160010185558215614cc4579182015b82811115614cc4578251825591602001919060010190614ca9565b50614cd0929150614d99565b5090565b828054614ce090615388565b90600052602060002090601f016020900481019282614d025760008555614cc4565b82601f10614d1b5782800160ff19823516178555614cc4565b82800160010185558215614cc4579182015b82811115614cc4578235825591602001919060010190614d2d565b6040518060200160405280600081525090565b6040805160e0810190915280600081526020016000815260200160008152602001600081526020016000815260200160008152602001600081525090565b5b80821115614cd05760008155600101614d9a565b6001600160a01b03811681146111c457600080fd5b8035614dce81614dae565b919050565b634e487b7160e01b600052604160045260246000fd5b604051601f8201601f191681016001600160401b0381118282101715614e1157614e11614dd3565b604052919050565b60006001600160401b03821115614e3257614e32614dd3565b50601f01601f191660200190565b6000614e53614e4e84614e19565b614de9565b9050828152838383011115614e6757600080fd5b828260208301376000602084830101529392505050565b600082601f830112614e8f57600080fd5b6112d883833560208501614e40565b600080600080600080600080610100898b031215614ebb57600080fd5b8835614ec681614dae565b97506020890135614ed681614dae565b96506040890135614ee681614dae565b95506060890135614ef681614dae565b945060808901356001600160401b0380821115614f1257600080fd5b614f1e8c838d01614e7e565b955060a08b0135915080821115614f3457600080fd5b50614f418b828c01614e7e565b93505060c0890135915060e089013590509295985092959890939650565b60005b83811015614f7a578181015183820152602001614f62565b8381111561116f5750506000910152565b60008151808452614fa3816020860160208601614f5f565b601f01601f19169290920160200192915050565b6020815260006112d86020830184614f8b565b60008060408385031215614fdd57600080fd5b8235614fe881614dae565b946020939093013593505050565b60006020828403121561500857600080fd5b5035919050565b6001600160a01b0391909116815260200190565b60006020828403121561503557600080fd5b81356112d881614dae565b60ff811681146111c457600080fd5b8035614dce81615040565b60008060008060008060008060006101208a8c03121561507957600080fd5b893561508481614dae565b985060208a013561509481614dae565b97506150a260408b01614dc3565b965060608a0135955060808a01356001600160401b03808211156150c557600080fd5b6150d18d838e01614e7e565b965060a08c01359150808211156150e757600080fd5b506150f48c828d01614e7e565b94505061510360c08b0161504f565b925060e08a013591506101008a013590509295985092959850929598565b60008060006060848603121561513657600080fd5b833561514181614dae565b9250602084013561515181614dae565b929592945050506040919091013590565b60008083601f84011261517457600080fd5b5081356001600160401b0381111561518b57600080fd5b60208301915083602082850101111561237057600080fd5b600080600080604085870312156151b957600080fd5b84356001600160401b03808211156151d057600080fd5b6151dc88838901615162565b909650945060208701359150808211156151f557600080fd5b5061520287828801615162565b95989497509550505050565b80151581146111c457600080fd5b6000806000806060858703121561523257600080fd5b843561523d81614dae565b9350602085013561524d8161520e565b925060408501356001600160401b0381111561526857600080fd5b61520287828801615162565b60006020828403121561528657600080fd5b81356001600160401b0381111561529c57600080fd5b8201601f810184136152ad57600080fd5b6110de84823560208401614e40565b93845260208401929092526040830152606082015260800190565b600080604083850312156152ea57600080fd5b82356152f581614dae565b9150602083013561530581614dae565b809150509250929050565b60008060006060848603121561532557600080fd5b833561533081614dae565b925060208401359150604084013561534781614dae565b809150509250925092565b60006020828403121561536457600080fd5b81516112d881615040565b60006020828403121561538157600080fd5b5051919050565b600181811c9082168061539c57607f821691505b60208210811415610bf957634e487b7160e01b600052602260045260246000fd5b634e487b7160e01b600052602160045260246000fd5b6020808252600f908201526e085858d8dc9d59525b9d195c995cdd608a1b604082015260600190565b60006020828403121561540e57600080fd5b81516112d88161520e565b60008060006060848603121561542e57600080fd5b835161543981614dae565b602085015190935061544a8161520e565b60408501519092506001600160401b0381111561546657600080fd5b8401601f8101861361547757600080fd5b8051615485614e4e82614e19565b81815287602083850101111561549a57600080fd5b6154ab826020830160208601614f5f565b8093505050509250925092565b60208082526006908201526510b0b236b4b760d11b604082015260600190565b9283526020830191909152604082015260600190565b634e487b7160e01b600052601160045260246000fd5b60008219821115615517576155176154ee565b500190565b6001600160a01b039384168152919092166020820152901515604082015260600190565b6001600160a01b0392831681529116602082015260400190565b6001600160a01b039485168152928416602084015292166040820152606081019190915260800190565b60006020828403121561559657600080fd5b81516112d881614dae565b6000828210156155b3576155b36154ee565b500390565b6001600160a01b039586168152938516602085015291841660408401529092166060820152608081019190915260a00190565b6001600160a01b039390931683526020830191909152604082015260600190565b6000825161561e818460208701614f5f565b9190910192915050565b60008261564557634e487b7160e01b600052601260045260246000fd5b500490565b6001600160a01b039384168152919092166020820152604081019190915260600190565b6001600160a01b03929092168252602082015260400190565b6000806040838503121561569a57600080fd5b505080516020909101519092909150565b60008160001904831182151516156156c5576156c56154ee565b50029056fe45b96fe442630264581b197e84bbada861235052c5a1aadfff9ea4e40a969aa0ddf252ad1be2c89b69c2b068fc378daa952ba7f163c4a11628f55a4df523b3efa164736f6c634300080a000a",
    "linkReferences": {}
  },
  "methodIdentifiers": {
    "_becomeImplementation(bytes)": "56e67728",
    "_prepare()": "1db78944",
    "_setAdminFee(uint256)": "91dd36c6",
    "_setImplementationSafe(address,bool,bytes)": "50d85b73",
    "_setInterestRateModel(address)": "f2b3abbd",
    "_setNameAndSymbol(string,string)": "34154d4c",
    "_setReserveFactor(uint256)": "fca7820b",
    "_withdrawAdminFees(uint256)": "a7b820df",
    "_withdrawFuseFees(uint256)": "a03dce8d",
    "accrualBlockNumber()": "6c540baf",
    "accrueInterest()": "a6afed95",
    "adminFeeMantissa()": "8d02d9a1",
    "allowance(address,address)": "dd62ed3e",
    "approve(address,uint256)": "095ea7b3",
    "balanceOf(address)": "70a08231",
    "balanceOfUnderlying(address)": "3af9e669",
    "borrow(uint256)": "c5ebeaec",
    "borrowBalanceCurrent(address)": "17bfdfbc",
    "borrowBalanceStored(address)": "95dd9193",
    "borrowIndex()": "aa5af0fd",
    "borrowRatePerBlock()": "f8f9da28",
    "comptroller()": "5fe3b567",
    "contractType()": "cb2ef6f7",
    "decimals()": "313ce567",
    "exchangeRateCurrent()": "bd6d894d",
    "exchangeRateStored()": "182df0f5",
    "feeSeizeShareMantissa()": "be99f119",
    "fuseAdmin()": "15761d51",
    "fuseFeeMantissa()": "dbfe7c19",
    "getAccountSnapshot(address)": "c37f68e2",
    "getCash()": "3b1d21a2",
    "implementation()": "5c60da1b",
    "initialize(address,address,address,address,string,string,uint256,uint256)": "06db3ecd",
    "initialize(address,address,address,uint256,string,string,uint8,uint256,uint256)": "219ef65c",
    "interestRateModel()": "f3fdb15a",
    "isCEther()": "ac784ddc",
    "isCToken()": "fe9c44ae",
    "liquidateBorrow(address,uint256,address)": "f5e3c462",
    "mint(uint256)": "a0712d68",
    "name()": "06fdde03",
    "protocolSeizeShareMantissa()": "6752e702",
    "redeem(uint256)": "db006a75",
    "redeemUnderlying(uint256)": "852a12e3",
    "repayBorrow(uint256)": "0e752702",
    "repayBorrowBehalf(address,uint256)": "2608f818",
    "reserveFactorMantissa()": "173b9904",
    "seize(address,address,uint256)": "b2a02ff1",
    "supplyRatePerBlock()": "ae9d70b0",
    "symbol()": "95d89b41",
    "totalAdminFees()": "61feacff",
    "totalBorrows()": "47bd3718",
    "totalBorrowsCurrent()": "73acee98",
    "totalFuseFees()": "dc028ab1",
    "totalReserves()": "8f840ddd",
    "totalSupply()": "18160ddd",
    "transfer(address,uint256)": "a9059cbb",
    "transferFrom(address,address,uint256)": "23b872dd",
    "underlying()": "6f307dc3"
  }
}