{
  "address": "0xC6D57300974368BE5B979e62EA76cab5C6bc3130",
  "abi": [
    {
      "anonymous": false,
      "inputs": [
        {
          "indexed": false,
          "internalType": "uint256",
          "name": "cashPrior",
          "type": "uint256"
        },
        {
          "indexed": false,
          "internalType": "uint256",
          "name": "interestAccumulated",
          "type": "uint256"
        },
        {
          "indexed": false,
          "internalType": "uint256",
          "name": "borrowIndex",
          "type": "uint256"
        },
        {
          "indexed": false,
          "internalType": "uint256",
          "name": "totalBorrows",
          "type": "uint256"
        }
      ],
      "name": "AccrueInterest",
      "type": "event"
    },
    {
      "anonymous": false,
      "inputs": [
        {
          "indexed": true,
          "internalType": "address",
          "name": "owner",
          "type": "address"
        },
        {
          "indexed": true,
          "internalType": "address",
          "name": "spender",
          "type": "address"
        },
        {
          "indexed": false,
          "internalType": "uint256",
          "name": "amount",
          "type": "uint256"
        }
      ],
      "name": "Approval",
      "type": "event"
    },
    {
      "anonymous": false,
      "inputs": [
        {
          "indexed": false,
          "internalType": "address",
          "name": "borrower",
          "type": "address"
        },
        {
          "indexed": false,
          "internalType": "uint256",
          "name": "borrowAmount",
          "type": "uint256"
        },
        {
          "indexed": false,
          "internalType": "uint256",
          "name": "accountBorrows",
          "type": "uint256"
        },
        {
          "indexed": false,
          "internalType": "uint256",
          "name": "totalBorrows",
          "type": "uint256"
        }
      ],
      "name": "Borrow",
      "type": "event"
    },
    {
      "anonymous": false,
      "inputs": [
        {
          "indexed": false,
          "internalType": "uint256",
          "name": "error",
          "type": "uint256"
        },
        {
          "indexed": false,
          "internalType": "uint256",
          "name": "info",
          "type": "uint256"
        },
        {
          "indexed": false,
          "internalType": "uint256",
          "name": "detail",
          "type": "uint256"
        }
      ],
      "name": "Failure",
      "type": "event"
    },
    {
      "anonymous": false,
      "inputs": [
        {
          "indexed": false,
          "internalType": "address",
          "name": "liquidator",
          "type": "address"
        },
        {
          "indexed": false,
          "internalType": "address",
          "name": "borrower",
          "type": "address"
        },
        {
          "indexed": false,
          "internalType": "uint256",
          "name": "repayAmount",
          "type": "uint256"
        },
        {
          "indexed": false,
          "internalType": "address",
          "name": "cTokenCollateral",
          "type": "address"
        },
        {
          "indexed": false,
          "internalType": "uint256",
          "name": "seizeTokens",
          "type": "uint256"
        }
      ],
      "name": "LiquidateBorrow",
      "type": "event"
    },
    {
      "anonymous": false,
      "inputs": [
        {
          "indexed": false,
          "internalType": "address",
          "name": "minter",
          "type": "address"
        },
        {
          "indexed": false,
          "internalType": "uint256",
          "name": "mintAmount",
          "type": "uint256"
        },
        {
          "indexed": false,
          "internalType": "uint256",
          "name": "mintTokens",
          "type": "uint256"
        }
      ],
      "name": "Mint",
      "type": "event"
    },
    {
      "anonymous": false,
      "inputs": [
        {
          "indexed": false,
          "internalType": "uint256",
          "name": "oldAdminFeeMantissa",
          "type": "uint256"
        },
        {
          "indexed": false,
          "internalType": "uint256",
          "name": "newAdminFeeMantissa",
          "type": "uint256"
        }
      ],
      "name": "NewAdminFee",
      "type": "event"
    },
    {
      "anonymous": false,
      "inputs": [
        {
          "indexed": false,
          "internalType": "contract ComptrollerInterface",
          "name": "oldComptroller",
          "type": "address"
        },
        {
          "indexed": false,
          "internalType": "contract ComptrollerInterface",
          "name": "newComptroller",
          "type": "address"
        }
      ],
      "name": "NewComptroller",
      "type": "event"
    },
    {
      "anonymous": false,
      "inputs": [
        {
          "indexed": false,
          "internalType": "uint256",
          "name": "oldFuseFeeMantissa",
          "type": "uint256"
        },
        {
          "indexed": false,
          "internalType": "uint256",
          "name": "newFuseFeeMantissa",
          "type": "uint256"
        }
      ],
      "name": "NewFuseFee",
      "type": "event"
    },
    {
      "anonymous": false,
      "inputs": [
        {
          "indexed": false,
          "internalType": "address",
          "name": "oldImplementation",
          "type": "address"
        },
        {
          "indexed": false,
          "internalType": "address",
          "name": "newImplementation",
          "type": "address"
        }
      ],
      "name": "NewImplementation",
      "type": "event"
    },
    {
      "anonymous": false,
      "inputs": [
        {
          "indexed": false,
          "internalType": "contract InterestRateModel",
          "name": "oldInterestRateModel",
          "type": "address"
        },
        {
          "indexed": false,
          "internalType": "contract InterestRateModel",
          "name": "newInterestRateModel",
          "type": "address"
        }
      ],
      "name": "NewMarketInterestRateModel",
      "type": "event"
    },
    {
      "anonymous": false,
      "inputs": [
        {
          "indexed": false,
          "internalType": "address",
          "name": "oldImpl",
          "type": "address"
        },
        {
          "indexed": false,
          "internalType": "address",
          "name": "newImpl",
          "type": "address"
        }
      ],
      "name": "NewPluginImplementation",
      "type": "event"
    },
    {
      "anonymous": false,
      "inputs": [
        {
          "indexed": false,
          "internalType": "uint256",
          "name": "oldReserveFactorMantissa",
          "type": "uint256"
        },
        {
          "indexed": false,
          "internalType": "uint256",
          "name": "newReserveFactorMantissa",
          "type": "uint256"
        }
      ],
      "name": "NewReserveFactor",
      "type": "event"
    },
    {
      "anonymous": false,
      "inputs": [
        {
          "indexed": false,
          "internalType": "address",
          "name": "redeemer",
          "type": "address"
        },
        {
          "indexed": false,
          "internalType": "uint256",
          "name": "redeemAmount",
          "type": "uint256"
        },
        {
          "indexed": false,
          "internalType": "uint256",
          "name": "redeemTokens",
          "type": "uint256"
        }
      ],
      "name": "Redeem",
      "type": "event"
    },
    {
      "anonymous": false,
      "inputs": [
        {
          "indexed": false,
          "internalType": "address",
          "name": "payer",
          "type": "address"
        },
        {
          "indexed": false,
          "internalType": "address",
          "name": "borrower",
          "type": "address"
        },
        {
          "indexed": false,
          "internalType": "uint256",
          "name": "repayAmount",
          "type": "uint256"
        },
        {
          "indexed": false,
          "internalType": "uint256",
          "name": "accountBorrows",
          "type": "uint256"
        },
        {
          "indexed": false,
          "internalType": "uint256",
          "name": "totalBorrows",
          "type": "uint256"
        }
      ],
      "name": "RepayBorrow",
      "type": "event"
    },
    {
      "anonymous": false,
      "inputs": [
        {
          "indexed": false,
          "internalType": "address",
          "name": "benefactor",
          "type": "address"
        },
        {
          "indexed": false,
          "internalType": "uint256",
          "name": "addAmount",
          "type": "uint256"
        },
        {
          "indexed": false,
          "internalType": "uint256",
          "name": "newTotalReserves",
          "type": "uint256"
        }
      ],
      "name": "ReservesAdded",
      "type": "event"
    },
    {
      "anonymous": false,
      "inputs": [
        {
          "indexed": false,
          "internalType": "address",
          "name": "admin",
          "type": "address"
        },
        {
          "indexed": false,
          "internalType": "uint256",
          "name": "reduceAmount",
          "type": "uint256"
        },
        {
          "indexed": false,
          "internalType": "uint256",
          "name": "newTotalReserves",
          "type": "uint256"
        }
      ],
      "name": "ReservesReduced",
      "type": "event"
    },
    {
      "anonymous": false,
      "inputs": [
        {
          "indexed": true,
          "internalType": "address",
          "name": "from",
          "type": "address"
        },
        {
          "indexed": true,
          "internalType": "address",
          "name": "to",
          "type": "address"
        },
        {
          "indexed": false,
          "internalType": "uint256",
          "name": "amount",
          "type": "uint256"
        }
      ],
      "name": "Transfer",
      "type": "event"
    },
    {
      "inputs": [],
      "name": "PRECISION",
      "outputs": [
        {
          "internalType": "uint256",
          "name": "",
          "type": "uint256"
        }
      ],
      "stateMutability": "view",
      "type": "function"
    },
    {
      "inputs": [
        {
          "internalType": "bytes",
          "name": "data",
          "type": "bytes"
        }
      ],
      "name": "_becomeImplementation",
      "outputs": [],
      "stateMutability": "nonpayable",
      "type": "function"
    },
    {
      "inputs": [],
      "name": "_prepare",
      "outputs": [],
      "stateMutability": "payable",
      "type": "function"
    },
    {
      "inputs": [
        {
          "internalType": "uint256",
          "name": "newAdminFeeMantissa",
          "type": "uint256"
        }
      ],
      "name": "_setAdminFee",
      "outputs": [
        {
          "internalType": "uint256",
          "name": "",
          "type": "uint256"
        }
      ],
      "stateMutability": "nonpayable",
      "type": "function"
    },
    {
      "inputs": [
        {
          "internalType": "address",
          "name": "implementation_",
          "type": "address"
        },
        {
          "internalType": "bool",
          "name": "allowResign",
          "type": "bool"
        },
        {
          "internalType": "bytes",
          "name": "becomeImplementationData",
          "type": "bytes"
        }
      ],
      "name": "_setImplementationSafe",
      "outputs": [],
      "stateMutability": "nonpayable",
      "type": "function"
    },
    {
      "inputs": [
        {
          "internalType": "contract InterestRateModel",
          "name": "newInterestRateModel",
          "type": "address"
        }
      ],
      "name": "_setInterestRateModel",
      "outputs": [
        {
          "internalType": "uint256",
          "name": "",
          "type": "uint256"
        }
      ],
      "stateMutability": "nonpayable",
      "type": "function"
    },
    {
      "inputs": [
        {
          "internalType": "string",
          "name": "_name",
          "type": "string"
        },
        {
          "internalType": "string",
          "name": "_symbol",
          "type": "string"
        }
      ],
      "name": "_setNameAndSymbol",
      "outputs": [],
      "stateMutability": "nonpayable",
      "type": "function"
    },
    {
      "inputs": [
        {
          "internalType": "uint256",
          "name": "newReserveFactorMantissa",
          "type": "uint256"
        }
      ],
      "name": "_setReserveFactor",
      "outputs": [
        {
          "internalType": "uint256",
          "name": "",
          "type": "uint256"
        }
      ],
      "stateMutability": "nonpayable",
      "type": "function"
    },
    {
      "inputs": [
        {
          "internalType": "address",
          "name": "_plugin",
          "type": "address"
        }
      ],
      "name": "_updatePlugin",
      "outputs": [],
      "stateMutability": "nonpayable",
      "type": "function"
    },
    {
      "inputs": [
        {
          "internalType": "uint256",
          "name": "withdrawAmount",
          "type": "uint256"
        }
      ],
      "name": "_withdrawAdminFees",
      "outputs": [
        {
          "internalType": "uint256",
          "name": "",
          "type": "uint256"
        }
      ],
      "stateMutability": "nonpayable",
      "type": "function"
    },
    {
      "inputs": [
        {
          "internalType": "uint256",
          "name": "withdrawAmount",
          "type": "uint256"
        }
      ],
      "name": "_withdrawFuseFees",
      "outputs": [
        {
          "internalType": "uint256",
          "name": "",
          "type": "uint256"
        }
      ],
      "stateMutability": "nonpayable",
      "type": "function"
    },
    {
      "inputs": [],
      "name": "accrualBlockNumber",
      "outputs": [
        {
          "internalType": "uint256",
          "name": "",
          "type": "uint256"
        }
      ],
      "stateMutability": "view",
      "type": "function"
    },
    {
      "inputs": [],
      "name": "accrueInterest",
      "outputs": [
        {
          "internalType": "uint256",
          "name": "",
          "type": "uint256"
        }
      ],
      "stateMutability": "nonpayable",
      "type": "function"
    },
    {
      "inputs": [],
      "name": "adminFeeMantissa",
      "outputs": [
        {
          "internalType": "uint256",
          "name": "",
          "type": "uint256"
        }
      ],
      "stateMutability": "view",
      "type": "function"
    },
    {
      "inputs": [
        {
          "internalType": "address",
          "name": "owner",
          "type": "address"
        },
        {
          "internalType": "address",
          "name": "spender",
          "type": "address"
        }
      ],
      "name": "allowance",
      "outputs": [
        {
          "internalType": "uint256",
          "name": "",
          "type": "uint256"
        }
      ],
      "stateMutability": "view",
      "type": "function"
    },
    {
      "inputs": [
        {
          "internalType": "address",
          "name": "spender",
          "type": "address"
        },
        {
          "internalType": "uint256",
          "name": "amount",
          "type": "uint256"
        }
      ],
      "name": "approve",
      "outputs": [
        {
          "internalType": "bool",
          "name": "",
          "type": "bool"
        }
      ],
      "stateMutability": "nonpayable",
      "type": "function"
    },
    {
      "inputs": [
        {
          "internalType": "address",
          "name": "owner",
          "type": "address"
        }
      ],
      "name": "balanceOf",
      "outputs": [
        {
          "internalType": "uint256",
          "name": "",
          "type": "uint256"
        }
      ],
      "stateMutability": "view",
      "type": "function"
    },
    {
      "inputs": [
        {
          "internalType": "address",
          "name": "owner",
          "type": "address"
        }
      ],
      "name": "balanceOfUnderlying",
      "outputs": [
        {
          "internalType": "uint256",
          "name": "",
          "type": "uint256"
        }
      ],
      "stateMutability": "nonpayable",
      "type": "function"
    },
    {
      "inputs": [
        {
          "internalType": "uint256",
          "name": "borrowAmount",
          "type": "uint256"
        }
      ],
      "name": "borrow",
      "outputs": [
        {
          "internalType": "uint256",
          "name": "",
          "type": "uint256"
        }
      ],
      "stateMutability": "nonpayable",
      "type": "function"
    },
    {
      "inputs": [
        {
          "internalType": "address",
          "name": "account",
          "type": "address"
        }
      ],
      "name": "borrowBalanceCurrent",
      "outputs": [
        {
          "internalType": "uint256",
          "name": "",
          "type": "uint256"
        }
      ],
      "stateMutability": "nonpayable",
      "type": "function"
    },
    {
      "inputs": [
        {
          "internalType": "address",
          "name": "account",
          "type": "address"
        }
      ],
      "name": "borrowBalanceStored",
      "outputs": [
        {
          "internalType": "uint256",
          "name": "",
          "type": "uint256"
        }
      ],
      "stateMutability": "view",
      "type": "function"
    },
    {
      "inputs": [],
      "name": "borrowIndex",
      "outputs": [
        {
          "internalType": "uint256",
          "name": "",
          "type": "uint256"
        }
      ],
      "stateMutability": "view",
      "type": "function"
    },
    {
      "inputs": [],
      "name": "borrowRatePerBlock",
      "outputs": [
        {
          "internalType": "uint256",
          "name": "",
          "type": "uint256"
        }
      ],
      "stateMutability": "view",
      "type": "function"
    },
    {
      "inputs": [],
      "name": "comptroller",
      "outputs": [
        {
          "internalType": "contract ComptrollerInterface",
          "name": "",
          "type": "address"
        }
      ],
      "stateMutability": "view",
      "type": "function"
    },
    {
      "inputs": [],
      "name": "decimals",
      "outputs": [
        {
          "internalType": "uint8",
          "name": "",
          "type": "uint8"
        }
      ],
      "stateMutability": "view",
      "type": "function"
    },
    {
      "inputs": [],
      "name": "exchangeRateCurrent",
      "outputs": [
        {
          "internalType": "uint256",
          "name": "",
          "type": "uint256"
        }
      ],
      "stateMutability": "nonpayable",
      "type": "function"
    },
    {
      "inputs": [],
      "name": "exchangeRateStored",
      "outputs": [
        {
          "internalType": "uint256",
          "name": "",
          "type": "uint256"
        }
      ],
      "stateMutability": "view",
      "type": "function"
    },
    {
      "inputs": [],
      "name": "feeSeizeShareMantissa",
      "outputs": [
        {
          "internalType": "uint256",
          "name": "",
          "type": "uint256"
        }
      ],
      "stateMutability": "view",
      "type": "function"
    },
    {
      "inputs": [],
      "name": "fuseAdmin",
      "outputs": [
        {
          "internalType": "address payable",
          "name": "",
          "type": "address"
        }
      ],
      "stateMutability": "view",
      "type": "function"
    },
    {
      "inputs": [],
      "name": "fuseFeeMantissa",
      "outputs": [
        {
          "internalType": "uint256",
          "name": "",
          "type": "uint256"
        }
      ],
      "stateMutability": "view",
      "type": "function"
    },
    {
      "inputs": [
        {
          "internalType": "address",
          "name": "account",
          "type": "address"
        }
      ],
      "name": "getAccountSnapshot",
      "outputs": [
        {
          "internalType": "uint256",
          "name": "",
          "type": "uint256"
        },
        {
          "internalType": "uint256",
          "name": "",
          "type": "uint256"
        },
        {
          "internalType": "uint256",
          "name": "",
          "type": "uint256"
        },
        {
          "internalType": "uint256",
          "name": "",
          "type": "uint256"
        }
      ],
      "stateMutability": "view",
      "type": "function"
    },
    {
      "inputs": [],
      "name": "getCash",
      "outputs": [
        {
          "internalType": "uint256",
          "name": "",
          "type": "uint256"
        }
      ],
      "stateMutability": "view",
      "type": "function"
    },
    {
      "inputs": [],
      "name": "implementation",
      "outputs": [
        {
          "internalType": "address",
          "name": "",
          "type": "address"
        }
      ],
      "stateMutability": "view",
      "type": "function"
    },
    {
      "inputs": [
        {
          "internalType": "address",
          "name": "underlying_",
          "type": "address"
        },
        {
          "internalType": "contract ComptrollerInterface",
          "name": "comptroller_",
          "type": "address"
        },
        {
          "internalType": "address payable",
          "name": "fuseAdmin_",
          "type": "address"
        },
        {
          "internalType": "contract InterestRateModel",
          "name": "interestRateModel_",
          "type": "address"
        },
        {
          "internalType": "string",
          "name": "name_",
          "type": "string"
        },
        {
          "internalType": "string",
          "name": "symbol_",
          "type": "string"
        },
        {
          "internalType": "uint256",
          "name": "reserveFactorMantissa_",
          "type": "uint256"
        },
        {
          "internalType": "uint256",
          "name": "adminFeeMantissa_",
          "type": "uint256"
        }
      ],
      "name": "initialize",
      "outputs": [],
      "stateMutability": "nonpayable",
      "type": "function"
    },
    {
      "inputs": [
        {
          "internalType": "contract ComptrollerInterface",
          "name": "comptroller_",
          "type": "address"
        },
        {
          "internalType": "address payable",
          "name": "fuseAdmin_",
          "type": "address"
        },
        {
          "internalType": "contract InterestRateModel",
          "name": "interestRateModel_",
          "type": "address"
        },
        {
          "internalType": "uint256",
          "name": "initialExchangeRateMantissa_",
          "type": "uint256"
        },
        {
          "internalType": "string",
          "name": "name_",
          "type": "string"
        },
        {
          "internalType": "string",
          "name": "symbol_",
          "type": "string"
        },
        {
          "internalType": "uint8",
          "name": "decimals_",
          "type": "uint8"
        },
        {
          "internalType": "uint256",
          "name": "reserveFactorMantissa_",
          "type": "uint256"
        },
        {
          "internalType": "uint256",
          "name": "adminFeeMantissa_",
          "type": "uint256"
        }
      ],
      "name": "initialize",
      "outputs": [],
      "stateMutability": "nonpayable",
      "type": "function"
    },
    {
      "inputs": [],
      "name": "interestRateModel",
      "outputs": [
        {
          "internalType": "contract InterestRateModel",
          "name": "",
          "type": "address"
        }
      ],
      "stateMutability": "view",
      "type": "function"
    },
    {
      "inputs": [],
      "name": "isCEther",
      "outputs": [
        {
          "internalType": "bool",
          "name": "",
          "type": "bool"
        }
      ],
      "stateMutability": "nonpayable",
      "type": "function"
    },
    {
      "inputs": [],
      "name": "isCToken",
      "outputs": [
        {
          "internalType": "bool",
          "name": "",
          "type": "bool"
        }
      ],
      "stateMutability": "nonpayable",
      "type": "function"
    },
    {
      "inputs": [
        {
          "internalType": "address",
          "name": "borrower",
          "type": "address"
        },
        {
          "internalType": "uint256",
          "name": "repayAmount",
          "type": "uint256"
        },
        {
          "internalType": "contract CTokenInterface",
          "name": "cTokenCollateral",
          "type": "address"
        }
      ],
      "name": "liquidateBorrow",
      "outputs": [
        {
          "internalType": "uint256",
          "name": "",
          "type": "uint256"
        }
      ],
      "stateMutability": "nonpayable",
      "type": "function"
    },
    {
      "inputs": [
        {
          "internalType": "uint256",
          "name": "mintAmount",
          "type": "uint256"
        }
      ],
      "name": "mint",
      "outputs": [
        {
          "internalType": "uint256",
          "name": "",
          "type": "uint256"
        }
      ],
      "stateMutability": "nonpayable",
      "type": "function"
    },
    {
      "inputs": [],
      "name": "name",
      "outputs": [
        {
          "internalType": "string",
          "name": "",
          "type": "string"
        }
      ],
      "stateMutability": "view",
      "type": "function"
    },
    {
      "inputs": [],
      "name": "plugin",
      "outputs": [
        {
          "internalType": "contract IERC4626",
          "name": "",
          "type": "address"
        }
      ],
      "stateMutability": "view",
      "type": "function"
    },
    {
      "inputs": [],
      "name": "protocolSeizeShareMantissa",
      "outputs": [
        {
          "internalType": "uint256",
          "name": "",
          "type": "uint256"
        }
      ],
      "stateMutability": "view",
      "type": "function"
    },
    {
      "inputs": [
        {
          "internalType": "uint256",
          "name": "redeemTokens",
          "type": "uint256"
        }
      ],
      "name": "redeem",
      "outputs": [
        {
          "internalType": "uint256",
          "name": "",
          "type": "uint256"
        }
      ],
      "stateMutability": "nonpayable",
      "type": "function"
    },
    {
      "inputs": [
        {
          "internalType": "uint256",
          "name": "redeemAmount",
          "type": "uint256"
        }
      ],
      "name": "redeemUnderlying",
      "outputs": [
        {
          "internalType": "uint256",
          "name": "",
          "type": "uint256"
        }
      ],
      "stateMutability": "nonpayable",
      "type": "function"
    },
    {
      "inputs": [
        {
          "internalType": "uint256",
          "name": "repayAmount",
          "type": "uint256"
        }
      ],
      "name": "repayBorrow",
      "outputs": [
        {
          "internalType": "uint256",
          "name": "",
          "type": "uint256"
        }
      ],
      "stateMutability": "nonpayable",
      "type": "function"
    },
    {
      "inputs": [
        {
          "internalType": "address",
          "name": "borrower",
          "type": "address"
        },
        {
          "internalType": "uint256",
          "name": "repayAmount",
          "type": "uint256"
        }
      ],
      "name": "repayBorrowBehalf",
      "outputs": [
        {
          "internalType": "uint256",
          "name": "",
          "type": "uint256"
        }
      ],
      "stateMutability": "nonpayable",
      "type": "function"
    },
    {
      "inputs": [],
      "name": "reserveFactorMantissa",
      "outputs": [
        {
          "internalType": "uint256",
          "name": "",
          "type": "uint256"
        }
      ],
      "stateMutability": "view",
      "type": "function"
    },
    {
      "inputs": [
        {
          "internalType": "address",
          "name": "liquidator",
          "type": "address"
        },
        {
          "internalType": "address",
          "name": "borrower",
          "type": "address"
        },
        {
          "internalType": "uint256",
          "name": "seizeTokens",
          "type": "uint256"
        }
      ],
      "name": "seize",
      "outputs": [
        {
          "internalType": "uint256",
          "name": "",
          "type": "uint256"
        }
      ],
      "stateMutability": "nonpayable",
      "type": "function"
    },
    {
      "inputs": [],
      "name": "supplyRatePerBlock",
      "outputs": [
        {
          "internalType": "uint256",
          "name": "",
          "type": "uint256"
        }
      ],
      "stateMutability": "view",
      "type": "function"
    },
    {
      "inputs": [],
      "name": "symbol",
      "outputs": [
        {
          "internalType": "string",
          "name": "",
          "type": "string"
        }
      ],
      "stateMutability": "view",
      "type": "function"
    },
    {
      "inputs": [],
      "name": "totalAdminFees",
      "outputs": [
        {
          "internalType": "uint256",
          "name": "",
          "type": "uint256"
        }
      ],
      "stateMutability": "view",
      "type": "function"
    },
    {
      "inputs": [],
      "name": "totalBorrows",
      "outputs": [
        {
          "internalType": "uint256",
          "name": "",
          "type": "uint256"
        }
      ],
      "stateMutability": "view",
      "type": "function"
    },
    {
      "inputs": [],
      "name": "totalBorrowsCurrent",
      "outputs": [
        {
          "internalType": "uint256",
          "name": "",
          "type": "uint256"
        }
      ],
      "stateMutability": "nonpayable",
      "type": "function"
    },
    {
      "inputs": [],
      "name": "totalFuseFees",
      "outputs": [
        {
          "internalType": "uint256",
          "name": "",
          "type": "uint256"
        }
      ],
      "stateMutability": "view",
      "type": "function"
    },
    {
      "inputs": [],
      "name": "totalReserves",
      "outputs": [
        {
          "internalType": "uint256",
          "name": "",
          "type": "uint256"
        }
      ],
      "stateMutability": "view",
      "type": "function"
    },
    {
      "inputs": [],
      "name": "totalSupply",
      "outputs": [
        {
          "internalType": "uint256",
          "name": "",
          "type": "uint256"
        }
      ],
      "stateMutability": "view",
      "type": "function"
    },
    {
      "inputs": [
        {
          "internalType": "address",
          "name": "dst",
          "type": "address"
        },
        {
          "internalType": "uint256",
          "name": "amount",
          "type": "uint256"
        }
      ],
      "name": "transfer",
      "outputs": [
        {
          "internalType": "bool",
          "name": "",
          "type": "bool"
        }
      ],
      "stateMutability": "nonpayable",
      "type": "function"
    },
    {
      "inputs": [
        {
          "internalType": "address",
          "name": "src",
          "type": "address"
        },
        {
          "internalType": "address",
          "name": "dst",
          "type": "address"
        },
        {
          "internalType": "uint256",
          "name": "amount",
          "type": "uint256"
        }
      ],
      "name": "transferFrom",
      "outputs": [
        {
          "internalType": "bool",
          "name": "",
          "type": "bool"
        }
      ],
      "stateMutability": "nonpayable",
      "type": "function"
    },
    {
      "inputs": [],
      "name": "underlying",
      "outputs": [
        {
          "internalType": "address",
          "name": "",
          "type": "address"
        }
      ],
      "stateMutability": "view",
      "type": "function"
    }
  ],
  "transactionHash": "0x2a9c2089e644960b306633d7aafc15ed3c4b75f8897753dac181cca3be78fa01",
  "args": [],
  "numDeployments": 19,
  "bytecode": {
    "object": "0x608060405234801561001057600080fd5b50615eac80620000216000396000f3fe6080604052600436106102a75760003560e01c806306db3ecd146102ac57806306fdde03146102ce578063095ea7b3146102f95780630e7527021461032957806315761d5114610357578063173b99041461038457806317bfdfbc1461039a57806318160ddd146103ba578063182df0f5146103d057806319f496c8146103e55780631db7894414610405578063219ef65c1461040d57806323b872dd1461042d5780632608f8181461044d578063313ce5671461046d57806334154d4c146104995780633af9e669146104b95780633b1d21a2146104d957806347bd3718146104ee57806350d85b731461050457806356e67728146105245780635c60da1b146105445780635fe3b5671461056457806361feacff146105845780636752e7021461059a5780636c540baf146105b55780636f307dc3146105cb57806370a08231146105eb57806373acee9814610621578063852a12e3146106365780638d02d9a1146106565780638f840ddd1461066c57806391dd36c61461068257806395d89b41146106a257806395dd9193146106b7578063a03dce8d146106d7578063a0712d68146106f7578063a6afed9514610717578063a7b820df1461072c578063a9059cbb1461074c578063aa5af0fd1461076c578063aaf5eb6814610782578063ac784ddc1461079e578063ae9d70b0146107b2578063b2a02ff1146107c7578063bd6d894d146107e7578063be99f119146107fc578063c37f68e214610818578063c5ebeaec14610848578063db006a7514610868578063dbfe7c1914610888578063dc028ab11461089e578063dd62ed3e146108b4578063ef01df4f146108fa578063f2b3abbd1461091a578063f3fdb15a1461093a578063f5e3c4621461095a578063f8f9da281461097a578063fca7820b1461098f578063fe9c44ae146109af575b600080fd5b3480156102b857600080fd5b506102cc6102c73660046155f7565b6109c3565b005b3480156102da57600080fd5b506102e3610ad1565b6040516102f09190615710565b60405180910390f35b34801561030557600080fd5b50610319610314366004615723565b610b5f565b60405190151581526020016102f0565b34801561033557600080fd5b5061034961034436600461574f565b610bcf565b6040519081526020016102f0565b34801561036357600080fd5b50600154610377906001600160a01b031681565b6040516102f09190615768565b34801561039057600080fd5b50610349600b5481565b3480156103a657600080fd5b506103496103b536600461577c565b610be3565b3480156103c657600080fd5b5061034960125481565b3480156103dc57600080fd5b50610349610c3a565b3480156103f157600080fd5b506102cc61040036600461577c565b610ccb565b6102cc6110fa565b34801561041957600080fd5b506102cc6104283660046157b3565b611230565b34801561043957600080fd5b5061031961044836600461587a565b611557565b34801561045957600080fd5b50610349610468366004615723565b61157d565b34801561047957600080fd5b506005546104879060ff1681565b60405160ff90911681526020016102f0565b3480156104a557600080fd5b506102cc6104b43660046158fc565b611593565b3480156104c557600080fd5b506103496104d436600461577c565b6115fa565b3480156104e557600080fd5b506103496116aa565b3480156104fa57600080fd5b50610349600e5481565b34801561051057600080fd5b506102cc61051f366004615975565b6116b9565b34801561053057600080fd5b506102cc61053f3660046159cd565b611752565b34801561055057600080fd5b50600054610377906001600160a01b031681565b34801561057057600080fd5b50600654610377906001600160a01b031681565b34801561059057600080fd5b5061034960105481565b3480156105a657600080fd5b50610349666379da05b6000081565b3480156105c157600080fd5b50610349600c5481565b3480156105d757600080fd5b50601654610377906001600160a01b031681565b3480156105f757600080fd5b5061034961060636600461577c565b6001600160a01b031660009081526013602052604090205490565b34801561062d57600080fd5b506103496118b9565b34801561064257600080fd5b5061034961065136600461574f565b6118e8565b34801561066257600080fd5b5061034960095481565b34801561067857600080fd5b50610349600f5481565b34801561068e57600080fd5b5061034961069d36600461574f565b6118f3565b3480156106ae57600080fd5b506102e361194a565b3480156106c357600080fd5b506103496106d236600461577c565b611957565b3480156106e357600080fd5b506103496106f236600461574f565b6119f2565b34801561070357600080fd5b5061034961071236600461574f565b611a35565b34801561072357600080fd5b50610349611a41565b34801561073857600080fd5b5061034961074736600461574f565b611bf5565b34801561075857600080fd5b50610319610767366004615723565b611c38565b34801561077857600080fd5b50610349600d5481565b34801561078e57600080fd5b50610349670de0b6b3a764000081565b3480156107aa57600080fd5b506000610319565b3480156107be57600080fd5b50610349611c65565b3480156107d357600080fd5b506103496107e236600461587a565b611d1a565b3480156107f357600080fd5b50610349611d3e565b34801561080857600080fd5b5061034967016345785d8a000081565b34801561082457600080fd5b5061083861083336600461577c565b611d6e565b6040516102f09493929190615a15565b34801561085457600080fd5b5061034961086336600461574f565b611e0f565b34801561087457600080fd5b5061034961088336600461574f565b611e1a565b34801561089457600080fd5b50610349600a5481565b3480156108aa57600080fd5b5061034960115481565b3480156108c057600080fd5b506103496108cf366004615a30565b6001600160a01b03918216600090815260146020908152604080832093909416825291909152205490565b34801561090657600080fd5b50601754610377906001600160a01b031681565b34801561092657600080fd5b5061034961093536600461577c565b611e25565b34801561094657600080fd5b50600754610377906001600160a01b031681565b34801561096657600080fd5b50610349610975366004615a69565b611e5d565b34801561098657600080fd5b50610349611e75565b34801561099b57600080fd5b506103496109aa36600461574f565b611ec6565b3480156109bb57600080fd5b506001610319565b60006702c68af0bb14000090506000896001600160a01b031663313ce5676040518163ffffffff1660e01b8152600401602060405180830381865afa158015610a10573d6000803e3d6000fd5b505050506040513d601f19601f82011682018060405250810190610a349190615aab565b9050610a47898989858a8a878b8b611230565b601680546001600160a01b0319166001600160a01b038c16908117909155604080516318160ddd60e01b815290516318160ddd916004808201926020929091908290030181865afa158015610aa0573d6000803e3d6000fd5b505050506040513d601f19601f82011682018060405250810190610ac49190615ac8565b5050505050505050505050565b60038054610ade90615ae1565b80601f0160208091040260200160405190810160405280929190818152602001828054610b0a90615ae1565b8015610b575780601f10610b2c57610100808354040283529160200191610b57565b820191906000526020600020905b815481529060010190602001808311610b3a57829003601f168201915b505050505081565b3360008181526014602090815260408083206001600160a01b03871680855292528083208590555191929182907f8c5be1e5ebec7d5bd14f71427d1e84f3dd0314c0f7b2291e5b200ac8c7c3b92590610bbb9087815260200190565b60405180910390a360019150505b92915050565b600080610bdb83611f09565b509392505050565b600080610bef81611f71565b6000610bf9611a41565b14610c1f5760405162461bcd60e51b8152600401610c1690615b2c565b60405180910390fd5b610c2883611957565b91505b610c3481612035565b50919050565b6000806000610c476120b4565b90925090506000826003811115610c6057610c60615b16565b14610bc95760405162461bcd60e51b815260206004820152603560248201527f65786368616e67655261746553746f7265643a2065786368616e67655261746560448201527414dd1bdc9959125b9d195c9b985b0819985a5b1959605a1b6064820152608401610c16565b33301480610cdc5750610cdc612173565b610d3c5760405162461bcd60e51b815260206004820152602b60248201527f6f6e6c792073656c6620616e642061646d696e732063616e2063616c6c205f7560448201526a383230ba32a8363ab3b4b760a91b6064820152608401610c16565b6017546000906001600160a01b0316610d555781610d62565b6017546001600160a01b03165b600154604051637583efcf60e01b81529192506001600160a01b031690637583efcf90610d959084908690600401615b5c565b602060405180830381865afa158015610db2573d6000803e3d6000fd5b505050506040513d601f19601f82011682018060405250810190610dd69190615b76565b610e305760405162461bcd60e51b815260206004820152602560248201527f706c7567696e20696d706c656d656e746174696f6e206e6f742077686974656c6044820152641a5cdd195960da1b6064820152608401610c16565b6017546001600160a01b031615801590610eb957506017546040516370a0823160e01b81526001600160a01b03909116906370a0823190610e75903090600401615768565b602060405180830381865afa158015610e92573d6000803e3d6000fd5b505050506040513d601f19601f82011682018060405250810190610eb69190615ac8565b15155b15610f9c576017546040516370a0823160e01b81526001600160a01b039091169063ba0876529082906370a0823190610ef6903090600401615768565b602060405180830381865afa158015610f13573d6000803e3d6000fd5b505050506040513d601f19601f82011682018060405250810190610f379190615ac8565b30306040518463ffffffff1660e01b8152600401610f5793929190615b93565b6020604051808303816000875af1158015610f76573d6000803e3d6000fd5b505050506040513d601f19601f82011682018060405250810190610f9a9190615ac8565b505b601780546001600160a01b0319166001600160a01b038481169190911790915560165460405163095ea7b360e01b815291169063095ea7b390610fe790859060001990600401615bb2565b6020604051808303816000875af1158015611006573d6000803e3d6000fd5b505050506040513d601f19601f8201168201806040525081019061102a9190615b76565b506016546040516370a0823160e01b81526000916001600160a01b0316906370a082319061105c903090600401615768565b602060405180830381865afa158015611079573d6000803e3d6000fd5b505050506040513d601f19601f8201168201806040525081019061109d9190615ac8565b905080156110ae576110ae816122de565b6017546040517fb32957d2794aaec3ea2c8852833af2192fe9fb518777de1f883e9e821781da75916110ed916001600160a01b03909116908690615b5c565b60405180910390a1505050565b33301480159061117c5750600660009054906101000a90046001600160a01b03166001600160a01b031663dd5cd22c6040518163ffffffff1660e01b8152600401602060405180830381865afa158015611158573d6000803e3d6000fd5b505050506040513d601f19601f8201168201806040525081019061117c9190615b76565b1561122e57600154600080546040516345cc970560e01b81529192839283926001600160a01b03928316926345cc9705926111bd9290911690600401615768565b600060405180830381865afa1580156111da573d6000803e3d6000fd5b505050506040513d6000823e601f3d908101601f191682016040526112029190810190615bcb565b60005492955090935091506001600160a01b0380851691161461122a5761122a838383612353565b5050505b565b336001600160a01b0389161461129a5760405162461bcd60e51b815260206004820152602960248201527f6f6e6c7920467573652061646d696e206d617920696e697469616c697a6520746044820152681a19481b585c9ad95d60ba1b6064820152608401610c16565b600c541580156112aa5750600d54155b6113025760405162461bcd60e51b815260206004820152602360248201527f6d61726b6574206d6179206f6e6c7920626520696e697469616c697a6564206f6044820152626e636560e81b6064820152608401610c16565b600180546001600160a01b0319166001600160a01b038a161790556008869055856113885760405162461bcd60e51b815260206004820152603060248201527f696e697469616c2065786368616e67652072617465206d75737420626520677260448201526f32b0ba32b9103a3430b7103d32b9379760811b6064820152608401610c16565b60006113938a6124e0565b905080156113e05760405162461bcd60e51b815260206004820152601a6024820152791cd95d1d1a5b99c818dbdb5c1d1c9bdb1b195c8819985a5b195960321b6044820152606401610c16565b43600c55670de0b6b3a7640000600d556113f9886125d4565b905080156114545760405162461bcd60e51b815260206004820152602260248201527f73657474696e6720696e7465726573742072617465206d6f64656c206661696c604482015261195960f21b6064820152608401610c16565b85516114679060039060208901906153a9565b50845161147b9060049060208801906153a9565b506005805460ff191660ff8616179055611494836126e7565b905080156114e45760405162461bcd60e51b815260206004820152601d60248201527f73657474696e67207265736572766520666163746f72206661696c65640000006044820152606401610c16565b6114ed82612786565b905080156115385760405162461bcd60e51b81526020600482015260186024820152771cd95d1d1a5b99c818591b5a5b881999594819985a5b195960421b6044820152606401610c16565b50506002805460ff60b01b1916600160b01b1790555050505050505050565b60008061156381611f71565b6000611571338787876128a0565b149150610bdb81612035565b60008061158a8484612b33565b50949350505050565b61159b612173565b6115da5760405162461bcd60e51b815260206004820152601060248201526f31b0b63632b9103737ba1030b236b4b760811b6044820152606401610c16565b6115e66003858561542d565b506115f36004838361542d565b5050505050565b6000806040518060200160405280611610611d3e565b90526001600160a01b03841660009081526013602052604081205491925090819061163c908490612b9d565b9092509050600082600381111561165557611655615b16565b146116a25760405162461bcd60e51b815260206004820152601f60248201527f62616c616e636520636f756c64206e6f742062652063616c63756c61746564006044820152606401610c16565b949350505050565b60006116b4612bf0565b905090565b6116c1612173565b6116f65760405162461bcd60e51b815260206004820152600660248201526510b0b236b4b760d11b6044820152606401610c16565b6000546001600160a01b0385811691161461174c5761174c848484848080601f01602080910402602001604051908101604052809392919081815260200183838082843760009201919091525061235392505050565b50505050565b333014806117635750611763612173565b6117cb5760405162461bcd60e51b815260206004820152603360248201527f6f6e6c792073656c6620616e642061646d696e732063616e2063616c6c205f6260448201527232b1b7b6b2a4b6b83632b6b2b73a30ba34b7b760691b6064820152608401610c16565b6000818060200190518101906117e19190615c6a565b90506001600160a01b03811615801561180457506017546001600160a01b031615155b15611881576001546017546040516381218ea960e01b81526001600160a01b03928316926381218ea99261183d92911690600401615768565b602060405180830381865afa15801561185a573d6000803e3d6000fd5b505050506040513d601f19601f8201168201806040525081019061187e9190615c6a565b90505b6001600160a01b038116158015906118a757506017546001600160a01b03828116911614155b156118b5576118b581610ccb565b5050565b6000806118c4611a41565b146118e15760405162461bcd60e51b8152600401610c1690615b2c565b50600e5490565b6000610bc982612c88565b6000806118ff81611f71565b6000611909611a41565b905080156119355761192d81601181111561192657611926615b16565b6052612cce565b925050610c2b565b61193e84612786565b925050610c3481612035565b60048054610ade90615ae1565b600080600061196584612d2e565b9092509050600082600381111561197e5761197e615b16565b146119eb5760405162461bcd60e51b815260206004820152603760248201527f626f72726f7742616c616e636553746f7265643a20626f72726f7742616c616e60448201527618d954dd1bdc9959125b9d195c9b985b0819985a5b1959604a1b6064820152608401610c16565b9392505050565b6000806119fe81611f71565b6000611a08611a41565b90508015611a2c5761192d816011811115611a2557611a25615b16565b6033612cce565b61193e84612de7565b600080610bdb83612e5a565b600c546000904390811415611a595760005b91505090565b6000611a63612bf0565b90506000611a75601054601154612ea0565b600754600e54600f549293506000926001600160a01b03909216916315f24053918691611aa29087612ea0565b6040518463ffffffff1660e01b8152600401611ac093929190615c87565b602060405180830381865afa158015611add573d6000803e3d6000fd5b505050506040513d601f19601f82011682018060405250810190611b019190615ac8565b905065048c27395000811115611b695781831115611b605760405162461bcd60e51b815260206004820152601c60248201527b0c4dee4e4deee40e4c2e8ca40d2e640c2c4e6eae4c8d8f240d0d2ced60231b6044820152606401610c16565b5065048c273950005b600080611b7886600c54612ed6565b90925090506000826003811115611b9157611b91615b16565b14611bde5760405162461bcd60e51b815260206004820152601f60248201527f636f756c64206e6f742063616c63756c61746520626c6f636b2064656c7461006044820152606401610c16565b611bea86868584612f01565b965050505050505090565b600080611c0181611f71565b6000611c0b611a41565b90508015611c2f5761192d816011811115611c2857611c28615b16565b6037612cce565b61193e84613023565b600080611c4481611f71565b6000611c52333387876128a0565b149150611c5e81612035565b5092915050565b6007546000906001600160a01b031663b8168816611c81612bf0565b600e54611c9d600f54611c98601054601154612ea0565b612ea0565b600954600a54600b54611cb09190615cb3565b611cba9190615cb3565b6040518563ffffffff1660e01b8152600401611cd99493929190615a15565b602060405180830381865afa158015611cf6573d6000803e3d6000fd5b505050506040513d601f19601f820116820180604052508101906116b49190615ac8565b60006001611d2781611f71565b611d3333868686613101565b9150610bdb81612035565b600080611d49611a41565b14611d665760405162461bcd60e51b8152600401610c1690615b2c565b6116b4610c3a565b6001600160a01b038116600090815260136020526040812054819081908190818080611d9989612d2e565b935090506000816003811115611db157611db1615b16565b14611dcf5760095b6000806000975097509750975050505050611e08565b611dd76120b4565b925090506000816003811115611def57611def615b16565b14611dfb576009611db9565b5060009650919450925090505b9193509193565b6000610bc9826135e8565b6000610bc98261362c565b600080611e30611a41565b90508015611e54576119eb816011811115611e4d57611e4d615b16565b604b612cce565b6119eb836125d4565b600080611e6b85858561366b565b5095945050505050565b6007546000906001600160a01b03166315f24053611e91612bf0565b600e54611ea8600f54611c98601054601154612ea0565b6040518463ffffffff1660e01b8152600401611cd993929190615c87565b600080611ed281611f71565b6000611edc611a41565b90508015611f005761192d816011811115611ef957611ef9615b16565b6059612cce565b61193e846126e7565b6000806000611f1781611f71565b6000611f21611a41565b90508015611f5157611f45816011811115611f3e57611f3e615b16565b6041612cce565b60009350935050611f62565b611f5c33338761375f565b93509350505b611f6b81612035565b50915091565b600254600160b01b900460ff16611fb75760405162461bcd60e51b815260206004820152600a6024820152691c994b595b9d195c995960b21b6044820152606401610c16565b8061202557600660009054906101000a90046001600160a01b03166001600160a01b031663c90c20b16040518163ffffffff1660e01b8152600401600060405180830381600087803b15801561200c57600080fd5b505af1158015612020573d6000803e3d6000fd5b505050505b506002805460ff60b01b19169055565b6002805460ff60b01b1916600160b01b179055806120b157600660009054906101000a90046001600160a01b03166001600160a01b031663632e51426040518163ffffffff1660e01b8152600401600060405180830381600087803b15801561209d57600080fd5b505af11580156115f3573d6000803e3d6000fd5b50565b6012546000908190806120ce575050600854600092909150565b60006120d8612bf0565b905060006120e46154a1565b600061210684600e54612101600f54611c98601054601154612ea0565b613b68565b93509050600081600381111561211e5761211e615b16565b14612130579660009650945050505050565b61213a8386613bba565b92509050600081600381111561215257612152615b16565b14612164579660009650945050505050565b50516000969095509350505050565b600654604080516303e1469160e61b815290516000926001600160a01b031691829163f851a440916004808201926020929091908290030181865afa1580156121c0573d6000803e3d6000fd5b505050506040513d601f19601f820116820180604052508101906121e49190615c6a565b6001600160a01b0316336001600160a01b03161480156122615750806001600160a01b0316630a755ec26040518163ffffffff1660e01b8152600401602060405180830381865afa15801561223d573d6000803e3d6000fd5b505050506040513d601f19601f820116820180604052508101906122619190615b76565b80611a5357506001546001600160a01b031633148015611a535750806001600160a01b0316632f1069ba6040518163ffffffff1660e01b8152600401602060405180830381865afa1580156122ba573d6000803e3d6000fd5b505050506040513d601f19601f82011682018060405250810190611a539190615b76565b601754604051636e553f6560e01b8152600481018390523060248201526001600160a01b0390911690636e553f65906044016020604051808303816000875af115801561232f573d6000803e3d6000fd5b505050506040513d601f19601f820116820180604052508101906118b59190615ac8565b6001546000546040516338e6a07360e11b81526001600160a01b03928316926371cd40e69261238b9291169087908790600401615ccb565b602060405180830381865afa1580156123a8573d6000803e3d6000fd5b505050506040513d601f19601f820116820180604052508101906123cc9190615b76565b6124005760405162461bcd60e51b8152602060048201526005602482015264085a5b5c1b60da1b6044820152606401610c16565b600080546001600160a01b038581166001600160a01b031983161790925516303b6124335761242e82611752565b612495565b61249330836040516024016124489190615710565b60408051601f19818403018152918152602080830180516001600160e01b0316630adccee560e31b17905281518083019092526007825266216265636f6d6560c81b90820152613c77565b505b6000546040517fd604de94d45953f9138079ec1b82d533cb2160c906d1076d1f7ed54befbca97a916124d29184916001600160a01b031690615b5c565b60405180910390a150505050565b600080600660009054906101000a90046001600160a01b03169050826001600160a01b0316627e3dd26040518163ffffffff1660e01b8152600401602060405180830381865afa158015612538573d6000803e3d6000fd5b505050506040513d601f19601f8201168201806040525081019061255c9190615b76565b6125785760405162461bcd60e51b8152600401610c1690615cef565b600680546001600160a01b0319166001600160a01b0385161790556040517f7ac369dbd14fa5ea3f473ed67cc9d598964a77501540ba6751eb0b3decf5870d906125c59083908690615b5c565b60405180910390a160006119eb565b6000806125df612173565b6125ef576119eb6001604d612cce565b43600c5414612604576119eb600a604c612cce565b600760009054906101000a90046001600160a01b03169050826001600160a01b0316632191f92a6040518163ffffffff1660e01b8152600401602060405180830381865afa15801561265a573d6000803e3d6000fd5b505050506040513d601f19601f8201168201806040525081019061267e9190615b76565b61269a5760405162461bcd60e51b8152600401610c1690615cef565b600780546001600160a01b0319166001600160a01b0385161790556040517fedffc32e068c7c95dfd4bdfd5c4d939a084d6b11c4199eac8436ed234d72f926906125c59083908690615b5c565b60006126f1612173565b61270157610bc96001605a612cce565b43600c541461271657610bc9600a605b612cce565b670de0b6b3a764000061273661272e84600954612ea0565b600a54612ea0565b111561274857610bc96002605c612cce565b600b80549083905560408051828152602081018590527faaa68312e2ea9d50e16af5068410ab56e1a1fd06037b1a35664812c30f82146091016125c5565b600043600c541461279d57610bc9600a6054612cce565b6000198214156127ad5760095491505b60006127b7613d13565b9050670de0b6b3a76400006127d76127d1600b5486612ea0565b83612ea0565b11156127e9576119eb60026055612cce565b826009541461284d576127fa612173565b61280a576119eb60016053612cce565b600980549084905560408051828152602081018690527fcdd0b588250e1398549f79cfdb8217c186688822905d6715b0834ea1c865594a910160405180910390a1505b80600a541461289957600a80549082905560408051828152602081018490527f92eef861b6533b7d3417f39c2ad7b460eed4e88a32fa3604f30e718b7602e7dc910160405180910390a1505b60006119eb565b6006546040516317b9b84b60e31b815260009182916001600160a01b039091169063bdcdc258906128db903090899089908990600401615d25565b6020604051808303816000875af11580156128fa573d6000803e3d6000fd5b505050506040513d601f19601f8201168201806040525081019061291e9190615ac8565b9050801561293b576129336003605d83613d5d565b9150506116a2565b836001600160a01b0316856001600160a01b03161415612961576129336002605e612cce565b6000856001600160a01b0316876001600160a01b0316141561298657506000196129ae565b506001600160a01b038086166000908152601460209081526040808320938a16835292905220545b6000806000806129be8589612ed6565b909450925060008460038111156129d7576129d7615b16565b146129f5576129e86009605e612cce565b96505050505050506116a2565b6001600160a01b038a16600090815260136020526040902054612a189089612ed6565b90945091506000846003811115612a3157612a31615b16565b14612a42576129e86009605f612cce565b6001600160a01b038916600090815260136020526040902054612a659089613de6565b90945090506000846003811115612a7e57612a7e615b16565b14612a8f576129e860096060612cce565b6001600160a01b03808b16600090815260136020526040808220859055918b168152208190556000198514612ae7576001600160a01b03808b166000908152601460209081526040808320938f168352929052208390555b886001600160a01b03168a6001600160a01b0316600080516020615e808339815191528a604051612b1a91815260200190565b60405180910390a35060009a9950505050505050505050565b6000806000612b4181611f71565b6000612b4b611a41565b90508015612b7b57612b6f816011811115612b6857612b68615b16565b6040612cce565b60009350935050612b8c565b612b8633878761375f565b93509350505b612b9581612035565b509250929050565b600080600080612bad8686613e0c565b90925090506000826003811115612bc657612bc6615b16565b14612bd75750915060009050612be9565b6000612be282613e7a565b9350935050505b9250929050565b6017546040516370a0823160e01b81526000916001600160a01b031690634cdad5069082906370a0823190612c29903090600401615768565b602060405180830381865afa158015612c46573d6000803e3d6000fd5b505050506040513d601f19601f82011682018060405250810190612c6a9190615ac8565b6040518263ffffffff1660e01b8152600401611cd991815260200190565b600080612c9481611f71565b6000612c9e611a41565b90508015612cc25761192d816011811115612cbb57612cbb615b16565b602a612cce565b61193e33600086613e92565b6000600080516020615e60833981519152836011811115612cf157612cf1615b16565b836063811115612d0357612d03615b16565b6000604051612d1493929190615c87565b60405180910390a18260118111156119eb576119eb615b16565b6001600160a01b038116600090815260156020526040812080548291829182918291612d635750600096879650945050505050565b612d738160000154600d54614464565b90945092506000846003811115612d8c57612d8c615b16565b14612d9f57509195600095509350505050565b612dad8382600101546144a3565b90945091506000846003811115612dc657612dc6615b16565b14612dd957509195600095509350505050565b506000969095509350505050565b60008043600c5414612dff576119eb600a6035612cce565b82612e08612bf0565b1015612e1a576119eb600e6034612cce565b601154831115612e30576119eb60026036612cce565b612e3c601154846144ce565b6011819055600154909150612899906001600160a01b031684614508565b6000806000612e6881611f71565b6000612e72611a41565b90508015612e9657611f45816011811115612e8f57612e8f615b16565b6020612cce565b611f5c338661457f565b60006119eb8383604051806040016040528060118152602001706164646974696f6e206f766572666c6f7760781b8152506148cd565b600080838311612ef5576000612eec8486615d4f565b91509150612be9565b50600390506000612be9565b600080612f1c604051806020016040528086815250846148fe565b90506000612f2c82600e54614928565b90506000612f3c82600e54612ea0565b90506000612f5d6040518060200160405280600b5481525084600f54614940565b90506000612f7e6040518060200160405280600a5481525085601154614940565b90506000612f9f604051806020016040528060095481525086601054614940565b90506000612fb287600d54600d54614940565b600c8d9055600d819055600e869055600f859055601184905560108390556040519091507f4dec04e750ca11537cabcd8a9eab06494de08da3735bc8871cd41250e190bc0490613009908d90899085908a90615a15565b60405180910390a160009c9b505050505050505050505050565b60008043600c541461303b576119eb600a6039612cce565b82613044612bf0565b1015613056576119eb600e6038612cce565b60105483111561306c576119eb6002603a612cce565b613078601054846144ce565b905080601081905550612899600660009054906101000a90046001600160a01b03166001600160a01b031663f851a4406040518163ffffffff1660e01b8152600401602060405180830381865afa1580156130d7573d6000803e3d6000fd5b505050506040513d601f19601f820116820180604052508101906130fb9190615c6a565b84614508565b60065460405163d02f735160e01b815260009182916001600160a01b039091169063d02f73519061313e9030908a908a908a908a90600401615d66565b6020604051808303816000875af115801561315d573d6000803e3d6000fd5b505050506040513d601f19601f820116820180604052508101906131819190615ac8565b90508015613196576129336003601d83613d5d565b846001600160a01b0316846001600160a01b031614156131bc576129336006601e612cce565b613221604080516101808101909152806000815260200160008152602001600081526020016000815260200160008152602001600081526020016000815260200160008152602001600081526020016000815260200160008152602001600081525090565b6001600160a01b0385166000908152601360205260409020546132449085612ed6565b602083018190528282600381111561325e5761325e615b16565b600381111561326f5761326f615b16565b905250600090508151600381111561328957613289615b16565b146132b9576132b06009601c836000015160038111156132ab576132ab615b16565b613d5d565b925050506116a2565b6132d8846040518060200160405280666379da05b60000815250614961565b6080820152604080516020810190915267016345785d8a000081526132fe908590614961565b6101408201526080810151613323906133189086906144ce565b8261014001516144ce565b60608201526133306120b4565b60c083018190528282600381111561334a5761334a615b16565b600381111561335b5761335b615b16565b905250600090508151600381111561337557613375615b16565b146133bd5760405162461bcd60e51b815260206004820152601860248201527732bc31b430b733b2903930ba329036b0ba341032b93937b960411b6044820152606401610c16565b6133dd60405180602001604052808360c001518152508260800151614928565b60a0820152604080516020810190915260c082015181526101408201516134049190614928565b610160820152600f5460a082015161341c9190612ea0565b60e0820152601254608082015161343691613318916144ce565b61012082015260115461016082015161344f9190612ea0565b6101008201526001600160a01b038616600090815260136020526040902054606082015161347d9190613de6565b604083018190528282600381111561349757613497615b16565b60038111156134a8576134a8615b16565b90525060009050815160038111156134c2576134c2615b16565b146134e4576132b06009601b836000015160038111156132ab576132ab615b16565b60e0810151600f556101208101516012556101008101516011556020808201516001600160a01b0387811660008181526013855260408082209490945583860151928b1680825290849020929092556060850151925192835290929091600080516020615e80833981519152910160405180910390a3306001600160a01b0316856001600160a01b0316600080516020615e80833981519152836080015160405161359191815260200190565b60405180910390a360a081015160e08201516040517fa91e67c5ea634cd43a12c5a482724b03de01e85ca68702a53d0c2f45cb7c1dc5926135d3923092615d99565b60405180910390a16000979650505050505050565b6000806135f481611f71565b60006135fe611a41565b905080156136225761192d81601181111561361b5761361b615b16565b600a612cce565b61193e3385614984565b60008061363881611f71565b6000613642611a41565b9050801561365f5761192d816011811115612cbb57612cbb615b16565b61193e33856000613e92565b600080600061367981611f71565b6000613683611a41565b905080156136b3576136a78160118111156136a0576136a0615b16565b6011612cce565b6000935093505061374d565b846001600160a01b031663a6afed956040518163ffffffff1660e01b81526004016020604051808303816000875af11580156136f3573d6000803e3d6000fd5b505050506040513d601f19601f820116820180604052508101906137179190615ac8565b9050801561373b576136a781601181111561373457613734615b16565b6012612cce565b61374733888888614d16565b93509350505b61375681612035565b50935093915050565b600654604051631200453160e11b8152600091829182916001600160a01b0316906324008a629061379a9030908a908a908a90600401615d25565b6020604051808303816000875af11580156137b9573d6000803e3d6000fd5b505050506040513d601f19601f820116820180604052508101906137dd9190615ac8565b905080156137fe576137f26003604383613d5d565b60009250925050613b60565b43600c5414613813576137f2600a6044612cce565b61385c6040805161010081019091528060008152602001600081526020016000815260200160008152602001600081526020016000815260200160008152602001600081525090565b6001600160a01b038616600090815260156020526040902060010154606082015261388686612d2e565b60808301819052602083018260038111156138a3576138a3615b16565b60038111156138b4576138b4615b16565b90525060009050816020015160038111156138d1576138d1615b16565b14613900576138f360096042836020015160038111156132ab576132ab615b16565b6000935093505050613b60565b6000198514156139195760808101516040820152613921565b604081018590525b61392f8782604001516151c0565b60e08201819052608082015161394491612ed6565b60a083018190526020830182600381111561396157613961615b16565b600381111561397257613972615b16565b905250600090508160200151600381111561398f5761398f615b16565b146139ff5760405162461bcd60e51b815260206004820152603a60248201527f52455041595f424f52524f575f4e45575f4143434f554e545f424f52524f575f604482015279109053105390d157d0d05310d55310551253d397d1905253115160321b6064820152608401610c16565b613a0f600e548260e00151612ed6565b60c0830181905260208301826003811115613a2c57613a2c615b16565b6003811115613a3d57613a3d615b16565b9052506000905081602001516003811115613a5a57613a5a615b16565b14613ac15760405162461bcd60e51b815260206004820152603160248201527f52455041595f424f52524f575f4e45575f544f54414c5f42414c414e43455f43604482015270105310d55310551253d397d19052531151607a1b6064820152608401610c16565b60a081810180516001600160a01b03898116600081815260156020908152604091829020948555600d5460019095019490945560c0870151600e81905560e088015195518251948f16855294840192909252820193909352606081019190915260808101919091527f1a2a22cb034d26d1854bdc6666a5b91fe25efbbb5dcad3b0355478d6f5c362a1910160405180910390a160e00151600093509150505b935093915050565b600080600080613b788787613de6565b90925090506000826003811115613b9157613b91615b16565b14613ba25750915060009050613b60565b613bac8186612ed6565b935093505050935093915050565b6000613bc46154a1565b600080613bd986670de0b6b3a7640000614464565b90925090506000826003811115613bf257613bf2615b16565b14613c1157506040805160208101909152600081529092509050612be9565b600080613c1e83886144a3565b90925090506000826003811115613c3757613c37615b16565b14613c5a5781604051806020016040528060008152509550955050505050612be9565b604080516020810190915290815260009890975095505050505050565b6060600080856001600160a01b031685604051613c949190615dba565b6000604051808303816000865af19150503d8060008114613cd1576040519150601f19603f3d011682016040523d82523d6000602084013e613cd6565b606091505b509150915081613d0a57805115613cf05780518082602001fd5b8360405162461bcd60e51b8152600401610c169190615710565b95945050505050565b6001546040805163dd86fea160e01b815290516000926001600160a01b03169163dd86fea19160048083019260209291908290030181865afa158015611cf6573d6000803e3d6000fd5b6000600080516020615e60833981519152846011811115613d8057613d80615b16565b846063811115613d9257613d92615b16565b84604051613da293929190615c87565b60405180910390a16003846011811115613dbe57613dbe615b16565b14613dda57836011811115613dd557613dd5615b16565b6116a2565b6116a2826103e8615cb3565b600080838301848110613dfe57600092509050612be9565b600260009250925050612be9565b6000613e166154a1565b600080613e27866000015186614464565b90925090506000826003811115613e4057613e40615b16565b14613e5f57506040805160208101909152600081529092509050612be9565b60408051602081019091529081526000969095509350505050565b8051600090610bc990670de0b6b3a764000090615dd6565b6000821580613e9f575081155b613f085760405162461bcd60e51b815260206004820152603460248201527f6f6e65206f662072656465656d546f6b656e73496e206f722072656465656d416044820152736d6f756e74496e206d757374206265207a65726f60601b6064820152608401610c16565b613f106154b4565b613f186120b4565b6040830181905260208301826003811115613f3557613f35615b16565b6003811115613f4657613f46615b16565b9052506000905081602001516003811115613f6357613f63615b16565b14613f8d57613f856009602e836020015160038111156132ab576132ab615b16565b9150506119eb565b60001983141561401257600654604051630cbb414760e11b81526001600160a01b0390911690631976828e90613fcc9088903090600090600401615ccb565b6020604051808303816000875af1158015613feb573d6000803e3d6000fd5b505050506040513d601f19601f8201168201806040525081019061400f9190615ac8565b92505b83156140ab5760608101849052604080516020810182529082015181526140399085612b9d565b608083018190526020830182600381111561405657614056615b16565b600381111561406757614067615b16565b905250600090508160200151600381111561408457614084615b16565b146140a657613f856009602c836020015160038111156132ab576132ab615b16565b61413c565b6140c78360405180602001604052808460400151815250615276565b60608301819052602083018260038111156140e4576140e4615b16565b60038111156140f5576140f5615b16565b905250600090508160200151600381111561411257614112615b16565b1461413457613f856009602d836020015160038111156132ab576132ab615b16565b608081018390525b600654606082015160405163eabe7d9160e01b81526000926001600160a01b03169163eabe7d91916141759130918b9190600401615df8565b6020604051808303816000875af1158015614194573d6000803e3d6000fd5b505050506040513d601f19601f820116820180604052508101906141b89190615ac8565b905080156141d6576141cd6003602b83613d5d565b925050506119eb565b43600c54146141eb576141cd600a602f612cce565b6141fb6012548360600151612ed6565b60a084018190526020840182600381111561421857614218615b16565b600381111561422957614229615b16565b905250600090508260200151600381111561424657614246615b16565b14614268576141cd60096031846020015160038111156132ab576132ab615b16565b6001600160a01b03861660009081526013602052604090205460608301516142909190612ed6565b60c08401819052602084018260038111156142ad576142ad615b16565b60038111156142be576142be615b16565b90525060009050826020015160038111156142db576142db615b16565b146142fd576141cd60096030846020015160038111156132ab576132ab615b16565b816080015161430a612bf0565b101561431c576141cd600e6032612cce565b60a082015160125560c08201516001600160a01b0387166000908152601360205260409020556080820151614352908790614508565b306001600160a01b0316866001600160a01b0316600080516020615e80833981519152846060015160405161438991815260200190565b60405180910390a3608082015160608301516040517fe5b754fb1abb7f01b499791d0b820ae3b6af3424ac1c59768edb53f4ec31a929926143cb928a92615d99565b60405180910390a1600654608083015160608401516040516351dff98960e01b81523060048201526001600160a01b038a81166024830152604482019390935260648101919091529116906351dff98990608401600060405180830381600087803b15801561443957600080fd5b505af115801561444d573d6000803e3d6000fd5b506000925061445a915050565b9695505050505050565b6000808361447757506000905080612be9565b838302836144858683615dd6565b1461449857600260009250925050612be9565b600092509050612be9565b600080826144b75750600190506000612be9565b60006144c38486615dd6565b915091509250929050565b60006119eb8383604051806040016040528060158152602001747375627472616374696f6e20756e646572666c6f7760581b815250615286565b601754604051632d182be560e21b81526001600160a01b039091169063b460af949061453c90849086903090600401615b93565b6020604051808303816000875af115801561455b573d6000803e3d6000fd5b505050506040513d601f19601f8201168201806040525081019061122a9190615ac8565b600654604051634ef4c3e160e01b8152600091829182916001600160a01b031690634ef4c3e1906145b890309089908990600401615df8565b6020604051808303816000875af11580156145d7573d6000803e3d6000fd5b505050506040513d601f19601f820116820180604052508101906145fb9190615ac8565b9050801561461c576146106003602183613d5d565b60009250925050612be9565b43600c541461463157614610600a6024612cce565b6146396154b4565b6146416120b4565b604083018190526020830182600381111561465e5761465e615b16565b600381111561466f5761466f615b16565b905250600090508160200151600381111561468c5761468c615b16565b146146bb576146ae60096023836020015160038111156132ab576132ab615b16565b6000935093505050612be9565b6146c586866151c0565b60c08201819052604080516020810182529083015181526146e69190615276565b606083018190526020830182600381111561470357614703615b16565b600381111561471457614714615b16565b905250600090508160200151600381111561473157614731615b16565b1461477e5760405162461bcd60e51b815260206004820181905260248201527f4d494e545f45584348414e47455f43414c43554c4154494f4e5f4641494c45446044820152606401610c16565b60008160600151116147cf5760405162461bcd60e51b815260206004820152601a6024820152791352539517d6915493d7d0d513d2d15394d7d491529150d5115160321b6044820152606401610c16565b6147df6012548260600151612ea0565b60808201526001600160a01b038616600090815260136020526040902054606082015161480c9190612ea0565b60a0820181905260808201516012556001600160a01b038716600090815260136020526040908190209190915560c0820151606083015191517f4c209b5fc8ad50758f13e2e1088ba56a560dff690a1c6fef26394f4c03821c4f92614875928a92909190615d99565b60405180910390a1856001600160a01b0316306001600160a01b0316600080516020615e8083398151915283606001516040516148b491815260200190565b60405180910390a360c001516000969095509350505050565b6000806148da8486615cb3565b9050828582101561158a5760405162461bcd60e51b8152600401610c169190615710565b6149066154a1565b604051806020016040528061491f8560000151856152b5565b90529392505050565b60008061493584846148fe565b90506116a281613e7a565b60008061494d85856148fe565b9050613d0a61495b82613e7a565b84612ea0565b6000670de0b6b3a764000061497a8484600001516152b5565b6119eb9190615dd6565b60065460405163368f515360e21b815260009182916001600160a01b039091169063da3d454c906149bd90309088908890600401615df8565b6020604051808303816000875af11580156149dc573d6000803e3d6000fd5b505050506040513d601f19601f82011682018060405250810190614a009190615ac8565b90508015614a1d57614a156003601083613d5d565b915050610bc9565b43600c5414614a3257614a15600a600c612cce565b6000614a3c612bf0565b905083811015614a5b57614a52600e600b612cce565b92505050610bc9565b614a87604080516080810190915280600081526020016000815260200160008152602001600081525090565b614a9086612d2e565b6020830181905282826003811115614aaa57614aaa615b16565b6003811115614abb57614abb615b16565b9052506000905081516003811115614ad557614ad5615b16565b14614b0057614af6600980836000015160038111156132ab576132ab615b16565b9350505050610bc9565b614b0e816020015186613de6565b6040830181905282826003811115614b2857614b28615b16565b6003811115614b3957614b39615b16565b9052506000905081516003811115614b5357614b53615b16565b14614b7557614af66009600e836000015160038111156132ab576132ab615b16565b6006546040808301519051631de6c8a560e21b81526001600160a01b039092169163779b229491614bab91309190600401615bb2565b6020604051808303816000875af1158015614bca573d6000803e3d6000fd5b505050506040513d601f19601f82011682018060405250810190614bee9190615ac8565b92508215614c0357614af66003601085613d5d565b614c0f600e5486613de6565b6060830181905282826003811115614c2957614c29615b16565b6003811115614c3a57614c3a615b16565b9052506000905081516003811115614c5457614c54615b16565b14614c7657614af66009600d836000015160038111156132ab576132ab615b16565b6040808201516001600160a01b0388166000908152601560205291909120908155600d546001909101556060810151600e55614cb28686614508565b60408082015160608084015183516001600160a01b038b168152602081018a9052938401929092528201527f13ed6866d4e1ee6da46f845c46d7e54120883d75c5ea9a2dacc1c4ca8984ab809060800160405180910390a160009695505050505050565b600654604051632fe3f38f60e11b8152600091829182916001600160a01b031690635fc7e71e90614d5390309088908c908c908c90600401615d66565b6020604051808303816000875af1158015614d72573d6000803e3d6000fd5b505050506040513d601f19601f82011682018060405250810190614d969190615ac8565b90508015614db757614dab6003601483613d5d565b600092509250506151b7565b43600c5414614dcc57614dab600a6018612cce565b43846001600160a01b0316636c540baf6040518163ffffffff1660e01b8152600401602060405180830381865afa158015614e0b573d6000803e3d6000fd5b505050506040513d601f19601f82011682018060405250810190614e2f9190615ac8565b14614e4057614dab600a6013612cce565b866001600160a01b0316866001600160a01b03161415614e6657614dab60066019612cce565b84614e7757614dab60076017612cce565b600019851415614e8d57614dab60076016612cce565b600080614e9b89898961375f565b90925090508115614ed057614ec2826011811115614ebb57614ebb615b16565b601a612cce565b6000945094505050506151b7565b60065460405163c488847b60e01b815260009182916001600160a01b039091169063c488847b90614f099030908c908890600401615df8565b6040805180830381865afa158015614f25573d6000803e3d6000fd5b505050506040513d601f19601f82011682018060405250810190614f499190615e1c565b90925090508115614fb85760405162461bcd60e51b815260206004820152603360248201527f4c49515549444154455f434f4d5054524f4c4c45525f43414c43554c4154455f604482015272105353d5539517d4d152569157d19052531151606a1b6064820152608401610c16565b6040516370a0823160e01b815281906001600160a01b038a16906370a0823190614fe6908e90600401615768565b602060405180830381865afa158015615003573d6000803e3d6000fd5b505050506040513d601f19601f820116820180604052508101906150279190615ac8565b10156150705760405162461bcd60e51b815260206004820152601860248201527709892a2aa928882a88abea68a92b48abea89e9ebe9aaa86960431b6044820152606401610c16565b60006001600160a01b0389163014156150965761508f308d8d85613101565b905061510c565b60405163b2a02ff160e01b81526001600160a01b038a169063b2a02ff1906150c6908f908f908790600401615df8565b6020604051808303816000875af11580156150e5573d6000803e3d6000fd5b505050506040513d601f19601f820116820180604052508101906151099190615ac8565b90505b80156151515760405162461bcd60e51b81526020600482015260146024820152731d1bdad95b881cd95a5e9d5c994819985a5b195960621b6044820152606401610c16565b604080516001600160a01b038e811682528d811660208301528183018790528b1660608201526080810184905290517f298637f684da70674f26509b10f07ec2fbc77a335ab1e7d6215a4b2484d8bb529181900360a00190a16000975092955050505050505b94509492505050565b6016546040516323b872dd60e01b81526000916001600160a01b0316906323b872dd906151f590869030908790600401615df8565b6020604051808303816000875af1158015615214573d6000803e3d6000fd5b505050506040513d601f19601f820116820180604052508101906152389190615b76565b61526d5760405162461bcd60e51b8152600401610c16906020808252600490820152631cd95b9960e21b604082015260600190565b610c34826122de565b600080600080612bad86866152f1565b600081848411156152aa5760405162461bcd60e51b8152600401610c169190615710565b506116a28385615d4f565b60006119eb8383604051806040016040528060178152602001766d756c7469706c69636174696f6e206f766572666c6f7760481b815250615356565b60006152fb6154a1565b600080615310670de0b6b3a764000087614464565b9092509050600082600381111561532957615329615b16565b1461534857506040805160208101909152600081529092509050612be9565b612be2818660000151613bba565b6000831580615363575082155b15615370575060006119eb565b600061537c8486615e40565b9050836153898683615dd6565b14839061158a5760405162461bcd60e51b8152600401610c169190615710565b8280546153b590615ae1565b90600052602060002090601f0160209004810192826153d7576000855561541d565b82601f106153f057805160ff191683800117855561541d565b8280016001018555821561541d579182015b8281111561541d578251825591602001919060010190615402565b506154299291506154f2565b5090565b82805461543990615ae1565b90600052602060002090601f01602090048101928261545b576000855561541d565b82601f106154745782800160ff1982351617855561541d565b8280016001018555821561541d579182015b8281111561541d578235825591602001919060010190615486565b6040518060200160405280600081525090565b6040805160e0810190915280600081526020016000815260200160008152602001600081526020016000815260200160008152602001600081525090565b5b8082111561542957600081556001016154f3565b6001600160a01b03811681146120b157600080fd5b803561552781615507565b919050565b634e487b7160e01b600052604160045260246000fd5b604051601f8201601f191681016001600160401b038111828210171561556a5761556a61552c565b604052919050565b60006001600160401b0382111561558b5761558b61552c565b50601f01601f191660200190565b60006155ac6155a784615572565b615542565b90508281528383830111156155c057600080fd5b828260208301376000602084830101529392505050565b600082601f8301126155e857600080fd5b6119eb83833560208501615599565b600080600080600080600080610100898b03121561561457600080fd5b883561561f81615507565b9750602089013561562f81615507565b9650604089013561563f81615507565b9550606089013561564f81615507565b945060808901356001600160401b038082111561566b57600080fd5b6156778c838d016155d7565b955060a08b013591508082111561568d57600080fd5b5061569a8b828c016155d7565b93505060c0890135915060e089013590509295985092959890939650565b60005b838110156156d35781810151838201526020016156bb565b8381111561174c5750506000910152565b600081518084526156fc8160208601602086016156b8565b601f01601f19169290920160200192915050565b6020815260006119eb60208301846156e4565b6000806040838503121561573657600080fd5b823561574181615507565b946020939093013593505050565b60006020828403121561576157600080fd5b5035919050565b6001600160a01b0391909116815260200190565b60006020828403121561578e57600080fd5b81356119eb81615507565b60ff811681146120b157600080fd5b803561552781615799565b60008060008060008060008060006101208a8c0312156157d257600080fd5b89356157dd81615507565b985060208a01356157ed81615507565b97506157fb60408b0161551c565b965060608a0135955060808a01356001600160401b038082111561581e57600080fd5b61582a8d838e016155d7565b965060a08c013591508082111561584057600080fd5b5061584d8c828d016155d7565b94505061585c60c08b016157a8565b925060e08a013591506101008a013590509295985092959850929598565b60008060006060848603121561588f57600080fd5b833561589a81615507565b925060208401356158aa81615507565b929592945050506040919091013590565b60008083601f8401126158cd57600080fd5b5081356001600160401b038111156158e457600080fd5b602083019150836020828501011115612be957600080fd5b6000806000806040858703121561591257600080fd5b84356001600160401b038082111561592957600080fd5b615935888389016158bb565b9096509450602087013591508082111561594e57600080fd5b5061595b878288016158bb565b95989497509550505050565b80151581146120b157600080fd5b6000806000806060858703121561598b57600080fd5b843561599681615507565b935060208501356159a681615967565b925060408501356001600160401b038111156159c157600080fd5b61595b878288016158bb565b6000602082840312156159df57600080fd5b81356001600160401b038111156159f557600080fd5b8201601f81018413615a0657600080fd5b6116a284823560208401615599565b93845260208401929092526040830152606082015260800190565b60008060408385031215615a4357600080fd5b8235615a4e81615507565b91506020830135615a5e81615507565b809150509250929050565b600080600060608486031215615a7e57600080fd5b8335615a8981615507565b9250602084013591506040840135615aa081615507565b809150509250925092565b600060208284031215615abd57600080fd5b81516119eb81615799565b600060208284031215615ada57600080fd5b5051919050565b600181811c90821680615af557607f821691505b60208210811415610c3457634e487b7160e01b600052602260045260246000fd5b634e487b7160e01b600052602160045260246000fd5b6020808252601690820152751858d8dc9d59481a5b9d195c995cdd0819985a5b195960521b604082015260600190565b6001600160a01b0392831681529116602082015260400190565b600060208284031215615b8857600080fd5b81516119eb81615967565b9283526001600160a01b03918216602084015216604082015260600190565b6001600160a01b03929092168252602082015260400190565b600080600060608486031215615be057600080fd5b8351615beb81615507565b6020850151909350615bfc81615967565b60408501519092506001600160401b03811115615c1857600080fd5b8401601f81018613615c2957600080fd5b8051615c376155a782615572565b818152876020838501011115615c4c57600080fd5b615c5d8260208301602086016156b8565b8093505050509250925092565b600060208284031215615c7c57600080fd5b81516119eb81615507565b9283526020830191909152604082015260600190565b634e487b7160e01b600052601160045260246000fd5b60008219821115615cc657615cc6615c9d565b500190565b6001600160a01b039384168152919092166020820152901515604082015260600190565b6020808252601c908201527b6d61726b6572206d6574686f642072657475726e65642066616c736560201b604082015260600190565b6001600160a01b039485168152928416602084015292166040820152606081019190915260800190565b600082821015615d6157615d61615c9d565b500390565b6001600160a01b039586168152938516602085015291841660408401529092166060820152608081019190915260a00190565b6001600160a01b039390931683526020830191909152604082015260600190565b60008251615dcc8184602087016156b8565b9190910192915050565b600082615df357634e487b7160e01b600052601260045260246000fd5b500490565b6001600160a01b039384168152919092166020820152604081019190915260600190565b60008060408385031215615e2f57600080fd5b505080516020909101519092909150565b6000816000190483118215151615615e5a57615e5a615c9d565b50029056fe45b96fe442630264581b197e84bbada861235052c5a1aadfff9ea4e40a969aa0ddf252ad1be2c89b69c2b068fc378daa952ba7f163c4a11628f55a4df523b3efa164736f6c634300080a000a",
    "linkReferences": {}
  },
  "methodIdentifiers": {
    "PRECISION()": "aaf5eb68",
    "_becomeImplementation(bytes)": "56e67728",
    "_prepare()": "1db78944",
    "_setAdminFee(uint256)": "91dd36c6",
    "_setImplementationSafe(address,bool,bytes)": "50d85b73",
    "_setInterestRateModel(address)": "f2b3abbd",
    "_setNameAndSymbol(string,string)": "34154d4c",
    "_setReserveFactor(uint256)": "fca7820b",
    "_updatePlugin(address)": "19f496c8",
    "_withdrawAdminFees(uint256)": "a7b820df",
    "_withdrawFuseFees(uint256)": "a03dce8d",
    "accrualBlockNumber()": "6c540baf",
    "accrueInterest()": "a6afed95",
    "adminFeeMantissa()": "8d02d9a1",
    "allowance(address,address)": "dd62ed3e",
    "approve(address,uint256)": "095ea7b3",
    "balanceOf(address)": "70a08231",
    "balanceOfUnderlying(address)": "3af9e669",
    "borrow(uint256)": "c5ebeaec",
    "borrowBalanceCurrent(address)": "17bfdfbc",
    "borrowBalanceStored(address)": "95dd9193",
    "borrowIndex()": "aa5af0fd",
    "borrowRatePerBlock()": "f8f9da28",
    "comptroller()": "5fe3b567",
    "decimals()": "313ce567",
    "exchangeRateCurrent()": "bd6d894d",
    "exchangeRateStored()": "182df0f5",
    "feeSeizeShareMantissa()": "be99f119",
    "fuseAdmin()": "15761d51",
    "fuseFeeMantissa()": "dbfe7c19",
    "getAccountSnapshot(address)": "c37f68e2",
    "getCash()": "3b1d21a2",
    "implementation()": "5c60da1b",
    "initialize(address,address,address,address,string,string,uint256,uint256)": "06db3ecd",
    "initialize(address,address,address,uint256,string,string,uint8,uint256,uint256)": "219ef65c",
    "interestRateModel()": "f3fdb15a",
    "isCEther()": "ac784ddc",
    "isCToken()": "fe9c44ae",
    "liquidateBorrow(address,uint256,address)": "f5e3c462",
    "mint(uint256)": "a0712d68",
    "name()": "06fdde03",
    "plugin()": "ef01df4f",
    "protocolSeizeShareMantissa()": "6752e702",
    "redeem(uint256)": "db006a75",
    "redeemUnderlying(uint256)": "852a12e3",
    "repayBorrow(uint256)": "0e752702",
    "repayBorrowBehalf(address,uint256)": "2608f818",
    "reserveFactorMantissa()": "173b9904",
    "seize(address,address,uint256)": "b2a02ff1",
    "supplyRatePerBlock()": "ae9d70b0",
    "symbol()": "95d89b41",
    "totalAdminFees()": "61feacff",
    "totalBorrows()": "47bd3718",
    "totalBorrowsCurrent()": "73acee98",
    "totalFuseFees()": "dc028ab1",
    "totalReserves()": "8f840ddd",
    "totalSupply()": "18160ddd",
    "transfer(address,uint256)": "a9059cbb",
    "transferFrom(address,address,uint256)": "23b872dd",
    "underlying()": "6f307dc3"
  }
}