{
  "address": "0x2E12ADdA797203C6354C7Fc7E4256Fad0d11067E",
  "abi": [
    {
      "inputs": [
        {
          "internalType": "bytes4",
          "name": "_functionSelector",
          "type": "bytes4"
        }
      ],
      "name": "ExtensionNotFound",
      "type": "error"
    },
    {
      "inputs": [
        {
          "internalType": "bytes4",
          "name": "_functionSelector",
          "type": "bytes4"
        },
        {
          "internalType": "address",
          "name": "_currentImpl",
          "type": "address"
        }
      ],
      "name": "FunctionAlreadyAdded",
      "type": "error"
    },
    {
      "inputs": [
        {
          "internalType": "bytes4",
          "name": "_functionSelector",
          "type": "bytes4"
        }
      ],
      "name": "FunctionNotFound",
      "type": "error"
    },
    {
      "anonymous": false,
      "inputs": [
        {
          "indexed": false,
          "internalType": "address",
          "name": "borrower",
          "type": "address"
        },
        {
          "indexed": false,
          "internalType": "uint256",
          "name": "borrowAmount",
          "type": "uint256"
        },
        {
          "indexed": false,
          "internalType": "uint256",
          "name": "accountBorrows",
          "type": "uint256"
        },
        {
          "indexed": false,
          "internalType": "uint256",
          "name": "totalBorrows",
          "type": "uint256"
        }
      ],
      "name": "Borrow",
      "type": "event"
    },
    {
      "anonymous": false,
      "inputs": [
        {
          "indexed": false,
          "internalType": "uint256",
          "name": "error",
          "type": "uint256"
        },
        {
          "indexed": false,
          "internalType": "uint256",
          "name": "info",
          "type": "uint256"
        },
        {
          "indexed": false,
          "internalType": "uint256",
          "name": "detail",
          "type": "uint256"
        }
      ],
      "name": "Failure",
      "type": "event"
    },
    {
      "anonymous": false,
      "inputs": [
        {
          "indexed": false,
          "internalType": "address",
          "name": "liquidator",
          "type": "address"
        },
        {
          "indexed": false,
          "internalType": "address",
          "name": "borrower",
          "type": "address"
        },
        {
          "indexed": false,
          "internalType": "uint256",
          "name": "repayAmount",
          "type": "uint256"
        },
        {
          "indexed": false,
          "internalType": "address",
          "name": "cTokenCollateral",
          "type": "address"
        },
        {
          "indexed": false,
          "internalType": "uint256",
          "name": "seizeTokens",
          "type": "uint256"
        }
      ],
      "name": "LiquidateBorrow",
      "type": "event"
    },
    {
      "anonymous": false,
      "inputs": [
        {
          "indexed": false,
          "internalType": "address",
          "name": "minter",
          "type": "address"
        },
        {
          "indexed": false,
          "internalType": "uint256",
          "name": "mintAmount",
          "type": "uint256"
        },
        {
          "indexed": false,
          "internalType": "uint256",
          "name": "mintTokens",
          "type": "uint256"
        }
      ],
      "name": "Mint",
      "type": "event"
    },
    {
      "anonymous": false,
      "inputs": [
        {
          "indexed": false,
          "internalType": "uint256",
          "name": "oldAdminFeeMantissa",
          "type": "uint256"
        },
        {
          "indexed": false,
          "internalType": "uint256",
          "name": "newAdminFeeMantissa",
          "type": "uint256"
        }
      ],
      "name": "NewAdminFee",
      "type": "event"
    },
    {
      "anonymous": false,
      "inputs": [
        {
          "indexed": false,
          "internalType": "uint256",
          "name": "oldFuseFeeMantissa",
          "type": "uint256"
        },
        {
          "indexed": false,
          "internalType": "uint256",
          "name": "newFuseFeeMantissa",
          "type": "uint256"
        }
      ],
      "name": "NewFuseFee",
      "type": "event"
    },
    {
      "anonymous": false,
      "inputs": [
        {
          "indexed": false,
          "internalType": "address",
          "name": "oldImplementation",
          "type": "address"
        },
        {
          "indexed": false,
          "internalType": "address",
          "name": "newImplementation",
          "type": "address"
        }
      ],
      "name": "NewImplementation",
      "type": "event"
    },
    {
      "anonymous": false,
      "inputs": [
        {
          "indexed": false,
          "internalType": "contract InterestRateModel",
          "name": "oldInterestRateModel",
          "type": "address"
        },
        {
          "indexed": false,
          "internalType": "contract InterestRateModel",
          "name": "newInterestRateModel",
          "type": "address"
        }
      ],
      "name": "NewMarketInterestRateModel",
      "type": "event"
    },
    {
      "anonymous": false,
      "inputs": [
        {
          "indexed": false,
          "internalType": "uint256",
          "name": "oldReserveFactorMantissa",
          "type": "uint256"
        },
        {
          "indexed": false,
          "internalType": "uint256",
          "name": "newReserveFactorMantissa",
          "type": "uint256"
        }
      ],
      "name": "NewReserveFactor",
      "type": "event"
    },
    {
      "anonymous": false,
      "inputs": [
        {
          "indexed": false,
          "internalType": "address",
          "name": "redeemer",
          "type": "address"
        },
        {
          "indexed": false,
          "internalType": "uint256",
          "name": "redeemAmount",
          "type": "uint256"
        },
        {
          "indexed": false,
          "internalType": "uint256",
          "name": "redeemTokens",
          "type": "uint256"
        }
      ],
      "name": "Redeem",
      "type": "event"
    },
    {
      "anonymous": false,
      "inputs": [
        {
          "indexed": false,
          "internalType": "address",
          "name": "payer",
          "type": "address"
        },
        {
          "indexed": false,
          "internalType": "address",
          "name": "borrower",
          "type": "address"
        },
        {
          "indexed": false,
          "internalType": "uint256",
          "name": "repayAmount",
          "type": "uint256"
        },
        {
          "indexed": false,
          "internalType": "uint256",
          "name": "accountBorrows",
          "type": "uint256"
        },
        {
          "indexed": false,
          "internalType": "uint256",
          "name": "totalBorrows",
          "type": "uint256"
        }
      ],
      "name": "RepayBorrow",
      "type": "event"
    },
    {
      "anonymous": false,
      "inputs": [
        {
          "indexed": false,
          "internalType": "address",
          "name": "benefactor",
          "type": "address"
        },
        {
          "indexed": false,
          "internalType": "uint256",
          "name": "addAmount",
          "type": "uint256"
        },
        {
          "indexed": false,
          "internalType": "uint256",
          "name": "newTotalReserves",
          "type": "uint256"
        }
      ],
      "name": "ReservesAdded",
      "type": "event"
    },
    {
      "anonymous": false,
      "inputs": [
        {
          "indexed": false,
          "internalType": "address",
          "name": "admin",
          "type": "address"
        },
        {
          "indexed": false,
          "internalType": "uint256",
          "name": "reduceAmount",
          "type": "uint256"
        },
        {
          "indexed": false,
          "internalType": "uint256",
          "name": "newTotalReserves",
          "type": "uint256"
        }
      ],
      "name": "ReservesReduced",
      "type": "event"
    },
    {
      "anonymous": false,
      "inputs": [
        {
          "indexed": true,
          "internalType": "address",
          "name": "from",
          "type": "address"
        },
        {
          "indexed": true,
          "internalType": "address",
          "name": "to",
          "type": "address"
        },
        {
          "indexed": false,
          "internalType": "uint256",
          "name": "amount",
          "type": "uint256"
        }
      ],
      "name": "Transfer",
      "type": "event"
    },
    {
      "stateMutability": "nonpayable",
      "type": "fallback"
    },
    {
      "inputs": [
        {
          "internalType": "bytes",
          "name": "data",
          "type": "bytes"
        }
      ],
      "name": "_becomeImplementation",
      "outputs": [],
      "stateMutability": "nonpayable",
      "type": "function"
    },
    {
      "inputs": [],
      "name": "_listExtensions",
      "outputs": [
        {
          "internalType": "address[]",
          "name": "",
          "type": "address[]"
        }
      ],
      "stateMutability": "view",
      "type": "function"
    },
    {
      "inputs": [],
      "name": "_prepare",
      "outputs": [],
      "stateMutability": "payable",
      "type": "function"
    },
    {
      "inputs": [
        {
          "internalType": "contract DiamondExtension",
          "name": "extensionToAdd",
          "type": "address"
        },
        {
          "internalType": "contract DiamondExtension",
          "name": "extensionToReplace",
          "type": "address"
        }
      ],
      "name": "_registerExtension",
      "outputs": [],
      "stateMutability": "nonpayable",
      "type": "function"
    },
    {
      "inputs": [
        {
          "internalType": "address",
          "name": "implementation_",
          "type": "address"
        },
        {
          "internalType": "bool",
          "name": "allowResign",
          "type": "bool"
        },
        {
          "internalType": "bytes",
          "name": "becomeImplementationData",
          "type": "bytes"
        }
      ],
      "name": "_setImplementationSafe",
      "outputs": [],
      "stateMutability": "nonpayable",
      "type": "function"
    },
    {
      "inputs": [
        {
          "internalType": "uint256",
          "name": "withdrawAmount",
          "type": "uint256"
        }
      ],
      "name": "_withdrawAdminFees",
      "outputs": [
        {
          "internalType": "uint256",
          "name": "",
          "type": "uint256"
        }
      ],
      "stateMutability": "nonpayable",
      "type": "function"
    },
    {
      "inputs": [
        {
          "internalType": "uint256",
          "name": "withdrawAmount",
          "type": "uint256"
        }
      ],
      "name": "_withdrawFuseFees",
      "outputs": [
        {
          "internalType": "uint256",
          "name": "",
          "type": "uint256"
        }
      ],
      "stateMutability": "nonpayable",
      "type": "function"
    },
    {
      "inputs": [],
      "name": "accrualBlockNumber",
      "outputs": [
        {
          "internalType": "uint256",
          "name": "",
          "type": "uint256"
        }
      ],
      "stateMutability": "view",
      "type": "function"
    },
    {
      "inputs": [],
      "name": "adminFeeMantissa",
      "outputs": [
        {
          "internalType": "uint256",
          "name": "",
          "type": "uint256"
        }
      ],
      "stateMutability": "view",
      "type": "function"
    },
    {
      "inputs": [],
      "name": "asCTokenExtensionInterface",
      "outputs": [
        {
          "internalType": "contract CTokenExtensionInterface",
          "name": "",
          "type": "address"
        }
      ],
      "stateMutability": "view",
      "type": "function"
    },
    {
      "inputs": [
        {
          "internalType": "uint256",
          "name": "borrowAmount",
          "type": "uint256"
        }
      ],
      "name": "borrow",
      "outputs": [
        {
          "internalType": "uint256",
          "name": "",
          "type": "uint256"
        }
      ],
      "stateMutability": "nonpayable",
      "type": "function"
    },
    {
      "inputs": [
        {
          "internalType": "address",
          "name": "account",
          "type": "address"
        }
      ],
      "name": "borrowBalanceCurrent",
      "outputs": [
        {
          "internalType": "uint256",
          "name": "",
          "type": "uint256"
        }
      ],
      "stateMutability": "nonpayable",
      "type": "function"
    },
    {
      "inputs": [
        {
          "internalType": "address",
          "name": "account",
          "type": "address"
        }
      ],
      "name": "borrowBalanceStored",
      "outputs": [
        {
          "internalType": "uint256",
          "name": "",
          "type": "uint256"
        }
      ],
      "stateMutability": "view",
      "type": "function"
    },
    {
      "inputs": [],
      "name": "borrowIndex",
      "outputs": [
        {
          "internalType": "uint256",
          "name": "",
          "type": "uint256"
        }
      ],
      "stateMutability": "view",
      "type": "function"
    },
    {
      "inputs": [],
      "name": "comptroller",
      "outputs": [
        {
          "internalType": "contract ComptrollerInterface",
          "name": "",
          "type": "address"
        }
      ],
      "stateMutability": "view",
      "type": "function"
    },
    {
      "inputs": [],
      "name": "contractType",
      "outputs": [
        {
          "internalType": "string",
          "name": "",
          "type": "string"
        }
      ],
      "stateMutability": "pure",
      "type": "function"
    },
    {
      "inputs": [],
      "name": "decimals",
      "outputs": [
        {
          "internalType": "uint8",
          "name": "",
          "type": "uint8"
        }
      ],
      "stateMutability": "view",
      "type": "function"
    },
    {
      "inputs": [],
      "name": "feeSeizeShareMantissa",
      "outputs": [
        {
          "internalType": "uint256",
          "name": "",
          "type": "uint256"
        }
      ],
      "stateMutability": "view",
      "type": "function"
    },
    {
      "inputs": [],
      "name": "fuseAdmin",
      "outputs": [
        {
          "internalType": "address payable",
          "name": "",
          "type": "address"
        }
      ],
      "stateMutability": "view",
      "type": "function"
    },
    {
      "inputs": [],
      "name": "fuseFeeMantissa",
      "outputs": [
        {
          "internalType": "uint256",
          "name": "",
          "type": "uint256"
        }
      ],
      "stateMutability": "view",
      "type": "function"
    },
    {
      "inputs": [
        {
          "internalType": "address",
          "name": "account",
          "type": "address"
        }
      ],
      "name": "getAccountSnapshot",
      "outputs": [
        {
          "internalType": "uint256",
          "name": "",
          "type": "uint256"
        },
        {
          "internalType": "uint256",
          "name": "",
          "type": "uint256"
        },
        {
          "internalType": "uint256",
          "name": "",
          "type": "uint256"
        },
        {
          "internalType": "uint256",
          "name": "",
          "type": "uint256"
        }
      ],
      "stateMutability": "view",
      "type": "function"
    },
    {
      "inputs": [],
      "name": "getCash",
      "outputs": [
        {
          "internalType": "uint256",
          "name": "",
          "type": "uint256"
        }
      ],
      "stateMutability": "view",
      "type": "function"
    },
    {
      "inputs": [],
      "name": "implementation",
      "outputs": [
        {
          "internalType": "address",
          "name": "",
          "type": "address"
        }
      ],
      "stateMutability": "view",
      "type": "function"
    },
    {
      "inputs": [
        {
          "internalType": "address",
          "name": "underlying_",
          "type": "address"
        },
        {
          "internalType": "contract ComptrollerInterface",
          "name": "comptroller_",
          "type": "address"
        },
        {
          "internalType": "address payable",
          "name": "fuseAdmin_",
          "type": "address"
        },
        {
          "internalType": "contract InterestRateModel",
          "name": "interestRateModel_",
          "type": "address"
        },
        {
          "internalType": "string",
          "name": "name_",
          "type": "string"
        },
        {
          "internalType": "string",
          "name": "symbol_",
          "type": "string"
        },
        {
          "internalType": "uint256",
          "name": "reserveFactorMantissa_",
          "type": "uint256"
        },
        {
          "internalType": "uint256",
          "name": "adminFeeMantissa_",
          "type": "uint256"
        }
      ],
      "name": "initialize",
      "outputs": [],
      "stateMutability": "nonpayable",
      "type": "function"
    },
    {
      "inputs": [
        {
          "internalType": "contract ComptrollerInterface",
          "name": "comptroller_",
          "type": "address"
        },
        {
          "internalType": "address payable",
          "name": "fuseAdmin_",
          "type": "address"
        },
        {
          "internalType": "contract InterestRateModel",
          "name": "interestRateModel_",
          "type": "address"
        },
        {
          "internalType": "uint256",
          "name": "initialExchangeRateMantissa_",
          "type": "uint256"
        },
        {
          "internalType": "string",
          "name": "name_",
          "type": "string"
        },
        {
          "internalType": "string",
          "name": "symbol_",
          "type": "string"
        },
        {
          "internalType": "uint8",
          "name": "decimals_",
          "type": "uint8"
        },
        {
          "internalType": "uint256",
          "name": "reserveFactorMantissa_",
          "type": "uint256"
        },
        {
          "internalType": "uint256",
          "name": "adminFeeMantissa_",
          "type": "uint256"
        }
      ],
      "name": "initialize",
      "outputs": [],
      "stateMutability": "nonpayable",
      "type": "function"
    },
    {
      "inputs": [],
      "name": "interestRateModel",
      "outputs": [
        {
          "internalType": "contract InterestRateModel",
          "name": "",
          "type": "address"
        }
      ],
      "stateMutability": "view",
      "type": "function"
    },
    {
      "inputs": [],
      "name": "isCEther",
      "outputs": [
        {
          "internalType": "bool",
          "name": "",
          "type": "bool"
        }
      ],
      "stateMutability": "nonpayable",
      "type": "function"
    },
    {
      "inputs": [],
      "name": "isCToken",
      "outputs": [
        {
          "internalType": "bool",
          "name": "",
          "type": "bool"
        }
      ],
      "stateMutability": "nonpayable",
      "type": "function"
    },
    {
      "inputs": [
        {
          "internalType": "address",
          "name": "borrower",
          "type": "address"
        },
        {
          "internalType": "uint256",
          "name": "repayAmount",
          "type": "uint256"
        },
        {
          "internalType": "contract CTokenInterface",
          "name": "cTokenCollateral",
          "type": "address"
        }
      ],
      "name": "liquidateBorrow",
      "outputs": [
        {
          "internalType": "uint256",
          "name": "",
          "type": "uint256"
        }
      ],
      "stateMutability": "nonpayable",
      "type": "function"
    },
    {
      "inputs": [
        {
          "internalType": "uint256",
          "name": "mintAmount",
          "type": "uint256"
        }
      ],
      "name": "mint",
      "outputs": [
        {
          "internalType": "uint256",
          "name": "",
          "type": "uint256"
        }
      ],
      "stateMutability": "nonpayable",
      "type": "function"
    },
    {
      "inputs": [
        {
          "internalType": "bytes[]",
          "name": "data",
          "type": "bytes[]"
        }
      ],
      "name": "multicall",
      "outputs": [
        {
          "internalType": "bytes[]",
          "name": "results",
          "type": "bytes[]"
        }
      ],
      "stateMutability": "payable",
      "type": "function"
    },
    {
      "inputs": [],
      "name": "name",
      "outputs": [
        {
          "internalType": "string",
          "name": "",
          "type": "string"
        }
      ],
      "stateMutability": "view",
      "type": "function"
    },
    {
      "inputs": [],
      "name": "protocolSeizeShareMantissa",
      "outputs": [
        {
          "internalType": "uint256",
          "name": "",
          "type": "uint256"
        }
      ],
      "stateMutability": "view",
      "type": "function"
    },
    {
      "inputs": [
        {
          "internalType": "uint256",
          "name": "redeemTokens",
          "type": "uint256"
        }
      ],
      "name": "redeem",
      "outputs": [
        {
          "internalType": "uint256",
          "name": "",
          "type": "uint256"
        }
      ],
      "stateMutability": "nonpayable",
      "type": "function"
    },
    {
      "inputs": [
        {
          "internalType": "uint256",
          "name": "redeemAmount",
          "type": "uint256"
        }
      ],
      "name": "redeemUnderlying",
      "outputs": [
        {
          "internalType": "uint256",
          "name": "",
          "type": "uint256"
        }
      ],
      "stateMutability": "nonpayable",
      "type": "function"
    },
    {
      "inputs": [
        {
          "internalType": "uint256",
          "name": "repayAmount",
          "type": "uint256"
        }
      ],
      "name": "repayBorrow",
      "outputs": [
        {
          "internalType": "uint256",
          "name": "",
          "type": "uint256"
        }
      ],
      "stateMutability": "nonpayable",
      "type": "function"
    },
    {
      "inputs": [
        {
          "internalType": "address",
          "name": "borrower",
          "type": "address"
        },
        {
          "internalType": "uint256",
          "name": "repayAmount",
          "type": "uint256"
        }
      ],
      "name": "repayBorrowBehalf",
      "outputs": [
        {
          "internalType": "uint256",
          "name": "",
          "type": "uint256"
        }
      ],
      "stateMutability": "nonpayable",
      "type": "function"
    },
    {
      "inputs": [],
      "name": "reserveFactorMantissa",
      "outputs": [
        {
          "internalType": "uint256",
          "name": "",
          "type": "uint256"
        }
      ],
      "stateMutability": "view",
      "type": "function"
    },
    {
      "inputs": [
        {
          "internalType": "address",
          "name": "liquidator",
          "type": "address"
        },
        {
          "internalType": "address",
          "name": "borrower",
          "type": "address"
        },
        {
          "internalType": "uint256",
          "name": "seizeTokens",
          "type": "uint256"
        }
      ],
      "name": "seize",
      "outputs": [
        {
          "internalType": "uint256",
          "name": "",
          "type": "uint256"
        }
      ],
      "stateMutability": "nonpayable",
      "type": "function"
    },
    {
      "inputs": [],
      "name": "symbol",
      "outputs": [
        {
          "internalType": "string",
          "name": "",
          "type": "string"
        }
      ],
      "stateMutability": "view",
      "type": "function"
    },
    {
      "inputs": [],
      "name": "totalAdminFees",
      "outputs": [
        {
          "internalType": "uint256",
          "name": "",
          "type": "uint256"
        }
      ],
      "stateMutability": "view",
      "type": "function"
    },
    {
      "inputs": [],
      "name": "totalBorrows",
      "outputs": [
        {
          "internalType": "uint256",
          "name": "",
          "type": "uint256"
        }
      ],
      "stateMutability": "view",
      "type": "function"
    },
    {
      "inputs": [],
      "name": "totalFuseFees",
      "outputs": [
        {
          "internalType": "uint256",
          "name": "",
          "type": "uint256"
        }
      ],
      "stateMutability": "view",
      "type": "function"
    },
    {
      "inputs": [],
      "name": "totalReserves",
      "outputs": [
        {
          "internalType": "uint256",
          "name": "",
          "type": "uint256"
        }
      ],
      "stateMutability": "view",
      "type": "function"
    },
    {
      "inputs": [],
      "name": "totalSupply",
      "outputs": [
        {
          "internalType": "uint256",
          "name": "",
          "type": "uint256"
        }
      ],
      "stateMutability": "view",
      "type": "function"
    },
    {
      "inputs": [],
      "name": "underlying",
      "outputs": [
        {
          "internalType": "address",
          "name": "",
          "type": "address"
        }
      ],
      "stateMutability": "view",
      "type": "function"
    }
  ],
  "transactionHash": "0xd3613cdad8f167dd43a3b61fe212b2086c3fdca92678933ed262bfc0e8449b12",
  "args": [],
  "numDeployments": 28,
  "bytecode": {
    "object": "0x608060405234801561001057600080fd5b5061598b80620000216000396000f3fe60806040526004361061020d5760003560e01c806306db3ecd1461029557806306fdde03146102b75780630e752702146102e257806315761d5114610310578063173b99041461033d57806317bfdfbc1461035357806318160ddd146103735780631db7894414610389578063219ef65c146103915780632608f818146103b1578063313ce567146103d15780633b1d21a2146103fd57806347bd37181461041257806350d85b731461042857806356e67728146104485780635c60da1b146104685780635fe3b5671461048857806361feacff146104a85780636333d001146104be5780636752e702146104e05780636c540baf146104fb5780636f307dc314610511578063852a12e31461053157806389cd9855146105515780638d02d9a1146105715780638f840ddd1461058757806395d89b411461059d57806395dd9193146105b25780639f5ef272146105d2578063a03dce8d146105e5578063a0712d6814610605578063a7b820df14610625578063aa5af0fd14610645578063ac784ddc1461065b578063ac9650d81461067b578063b2a02ff11461069b578063be99f119146106bb578063c37f68e2146106d7578063c5ebeaec14610717578063cb2ef6f714610737578063db006a751461076e578063dbfe7c191461078e578063dc028ab1146107a4578063f3fdb15a146107ba578063f5e3c462146107da578063fe9c44ae146107fa575b34801561021957600080fd5b5060006102316000356001600160e01b03191661080e565b90506001600160a01b038116610271576000356001600160e01b031916604051630a82dd7360e31b81526004016102689190614d2e565b60405180910390fd5b3660008037600080366000845af43d6000803e808015610290573d6000f35b3d6000fd5b3480156102a157600080fd5b506102b56102b0366004614e33565b610866565b005b3480156102c357600080fd5b506102cc610974565b6040516102d99190614f4c565b60405180910390f35b3480156102ee57600080fd5b506103026102fd366004614f5f565b610a02565b6040519081526020016102d9565b34801561031c57600080fd5b50600154610330906001600160a01b031681565b6040516102d99190614f78565b34801561034957600080fd5b50610302600b5481565b34801561035f57600080fd5b5061030261036e366004614f8c565b610a16565b34801561037f57600080fd5b5061030260125481565b6102b5610ae2565b34801561039d57600080fd5b506102b56103ac366004614fc3565b610c18565b3480156103bd57600080fd5b506103026103cc36600461508a565b611058565b3480156103dd57600080fd5b506005546103eb9060ff1681565b60405160ff90911681526020016102d9565b34801561040957600080fd5b50610302611070565b34801561041e57600080fd5b50610302600e5481565b34801561043457600080fd5b506102b56104433660046150c4565b61107f565b34801561045457600080fd5b506102b5610463366004615155565b6110ff565b34801561047457600080fd5b50600054610330906001600160a01b031681565b34801561049457600080fd5b50600654610330906001600160a01b031681565b3480156104b457600080fd5b5061030260105481565b3480156104ca57600080fd5b506104d3611151565b6040516102d9919061519d565b3480156104ec57600080fd5b50610302666379da05b6000081565b34801561050757600080fd5b50610302600c5481565b34801561051d57600080fd5b50601654610330906001600160a01b031681565b34801561053d57600080fd5b5061030261054c366004614f5f565b61115b565b34801561055d57600080fd5b506102b561056c3660046151ea565b611166565b34801561057d57600080fd5b5061030260095481565b34801561059357600080fd5b50610302600f5481565b3480156105a957600080fd5b506102cc61123a565b3480156105be57600080fd5b506103026105cd366004614f8c565b611247565b3480156105de57600080fd5b5030610330565b3480156105f157600080fd5b50610302610600366004614f5f565b61136b565b34801561061157600080fd5b50610302610620366004614f5f565b61148c565b34801561063157600080fd5b50610302610640366004614f5f565b611498565b34801561065157600080fd5b50610302600d5481565b34801561066757600080fd5b5060005b60405190151581526020016102d9565b61068e610689366004615223565b611609565b6040516102d99190615297565b3480156106a757600080fd5b506103026106b63660046152f9565b611760565b3480156106c757600080fd5b5061030267016345785d8a000081565b3480156106e357600080fd5b506106f76106f2366004614f8c565b611784565b6040805194855260208501939093529183015260608201526080016102d9565b34801561072357600080fd5b50610302610732366004614f5f565b611827565b34801561074357600080fd5b5060408051808201909152600e81526d43457263323044656c656761746560901b60208201526102cc565b34801561077a57600080fd5b50610302610789366004614f5f565b611832565b34801561079a57600080fd5b50610302600a5481565b3480156107b057600080fd5b5061030260115481565b3480156107c657600080fd5b50600754610330906001600160a01b031681565b3480156107e657600080fd5b506103026107f536600461533a565b61183d565b34801561080657600080fd5b50600161066b565b600080610819611855565b6001600160e01b031984166000908152602082905260409020549091506001600160a01b03168061085f5783604051631f3f429960e31b81526004016102689190614d2e565b9392505050565b60006702c68af0bb14000090506000896001600160a01b031663313ce5676040518163ffffffff1660e01b8152600401602060405180830381865afa1580156108b3573d6000803e3d6000fd5b505050506040513d601f19601f820116820180604052508101906108d7919061537c565b90506108ea898989858a8a878b8b610c18565b601680546001600160a01b0319166001600160a01b038c16908117909155604080516318160ddd60e01b815290516318160ddd916004808201926020929091908290030181865afa158015610943573d6000803e3d6000fd5b505050506040513d601f19601f820116820180604052508101906109679190615399565b5050505050505050505050565b60038054610981906153b2565b80601f01602080910402602001604051908101604052809291908181526020018280546109ad906153b2565b80156109fa5780601f106109cf576101008083540402835291602001916109fa565b820191906000526020600020905b8154815290600101906020018083116109dd57829003601f168201915b505050505081565b600080610a0e83611879565b509392505050565b600080610a228161193d565b6000306001600160a01b031663a6afed956040518163ffffffff1660e01b81526004016020604051808303816000875af1158015610a64573d6000803e3d6000fd5b505050506040513d601f19601f82011682018060405250810190610a889190615399565b14610ac75760405162461bcd60e51b815260206004820152600f60248201526e085858d8dc9d59525b9d195c995cdd608a1b6044820152606401610268565b610ad083611247565b91505b610adc81611a01565b50919050565b333014801590610b645750600660009054906101000a90046001600160a01b03166001600160a01b031663dd5cd22c6040518163ffffffff1660e01b8152600401602060405180830381865afa158015610b40573d6000803e3d6000fd5b505050506040513d601f19601f82011682018060405250810190610b6491906153fd565b15610c1657600154600080546040516345cc970560e01b81529192839283926001600160a01b03928316926345cc970592610ba59290911690600401614f78565b600060405180830381865afa158015610bc2573d6000803e3d6000fd5b505050506040513d6000823e601f3d908101601f19168201604052610bea919081019061544a565b60005492955090935091506001600160a01b03808516911614610c1257610c12838383611a84565b5050505b565b336001600160a01b03891614610c405760405162461bcd60e51b8152600401610268906154c1565b600c54158015610c505750600d54155b610c8b5760405162461bcd60e51b815260206004820152600c60248201526b085a5b9a5d1a585b1a5e995960a21b6044820152606401610268565b600180546001600160a01b0319166001600160a01b038a16179055600886905585610cea5760405162461bcd60e51b815260206004820152600f60248201526e02165786368616e6765526174653e3608c1b6044820152606401610268565b600680546001600160a01b0319166001600160a01b038b81169190911790915543600c55670de0b6b3a7640000600d55604080516310c8fc9560e11b8152905191891691632191f92a916004808201926020929091908290030181865afa158015610d59573d6000803e3d6000fd5b505050506040513d601f19601f82011682018060405250810190610d7d91906153fd565b610db35760405162461bcd60e51b8152602060048201526007602482015266216e6f7449726d60c81b6044820152606401610268565b600780546001600160a01b0319166001600160a01b0389161790556040517fedffc32e068c7c95dfd4bdfd5c4d939a084d6b11c4199eac8436ed234d72f92690610e01906000908a906154e1565b60405180910390a18451610e1c906003906020880190614c44565b508351610e30906004906020870190614c44565b506005805460ff191660ff8516179055600a54600954670de0b6b3a76400009190610e5b9085615511565b610e659190615511565b1115610e9d5760405162461bcd60e51b8152602060048201526007602482015266085c998e9cd95d60ca1b6044820152606401610268565b600b8290556040805160008152602081018490527faaa68312e2ea9d50e16af5068410ab56e1a1fd06037b1a35664812c30f821460910160405180910390a1600019811415610eeb57506009545b6001546040805163dd86fea160e01b815290516000926001600160a01b03169163dd86fea19160048083019260209291908290030181865afa158015610f35573d6000803e3d6000fd5b505050506040513d601f19601f82011682018060405250810190610f599190615399565b9050670de0b6b3a76400008183600b54610f739190615511565b610f7d9190615511565b1115610fbb5760405162461bcd60e51b815260206004820152600d60248201526c0858591b5a5b9199594e9cd95d609a1b6044820152606401610268565b60098290556040805160008152602081018490527fcdd0b588250e1398549f79cfdb8217c186688822905d6715b0834ea1c865594a910160405180910390a1600a8190556040805160008152602081018390527f92eef861b6533b7d3417f39c2ad7b460eed4e88a32fa3604f30e718b7602e7dc910160405180910390a150506002805460ff60b01b1916600160b01b1790555050505050505050565b6000806110658484611d11565b509150505b92915050565b600061107a611dd7565b905090565b611087611e51565b6110a35760405162461bcd60e51b8152600401610268906154c1565b6000546001600160a01b038581169116146110f9576110f9848484848080601f016020809104026020016040519081016040528093929190818152602001838380828437600092019190915250611a8492505050565b50505050565b333014806111105750611110611e51565b61114e5760405162461bcd60e51b815260206004820152600f60248201526e10b9b2b633103e3e1010b0b236b4b760891b6044820152606401610268565b50565b606061107a611fbc565b600061106a82612027565b6006546001546001600160a01b039182169116331480156111e45750806001600160a01b0316632f1069ba6040518163ffffffff1660e01b8152600401602060405180830381865afa1580156111c0573d6000803e3d6000fd5b505050506040513d601f19601f820116820180604052508101906111e491906153fd565b6112305760405162461bcd60e51b815260206004820152601f60248201527f21756e617574686f72697a6564202d206e6f2061646d696e20726967687473006044820152606401610268565b610c1283836120c9565b60048054610981906153b2565b6001600160a01b03811660009081526015602052604081208054829182918291906112785750600095945050505050565b6112888160000154600d546120ee565b909450925060008460038111156112a1576112a16153e7565b146112ee5760405162461bcd60e51b815260206004820152601e60248201527f216d756c55496e74206f766572666c6f7720636865636b206661696c656400006044820152606401610268565b6112fc838260010154612130565b90945091506000846003811115611315576113156153e7565b146113625760405162461bcd60e51b815260206004820152601e60248201527f2164697655496e74206f766572666c6f7720636865636b206661696c656400006044820152606401610268565b50949350505050565b6000806113778161193d565b6000306001600160a01b031663a6afed956040518163ffffffff1660e01b81526004016020604051808303816000875af11580156113b9573d6000803e3d6000fd5b505050506040513d601f19601f820116820180604052508101906113dd9190615399565b90508015611409576114018160118111156113fa576113fa6153e7565b603361215b565b925050610ad3565b43600c541461141e57611401600a603561215b565b83611427611dd7565b101561143957611401600e603461215b565b60115484111561144f576114016002603661215b565b60008460115461145f9190615529565b601181905560015490915061147d906001600160a01b0316866121bb565b600093505050610adc81611a01565b600080610a0e83612243565b6000806114a48161193d565b6000306001600160a01b031663a6afed956040518163ffffffff1660e01b81526004016020604051808303816000875af11580156114e6573d6000803e3d6000fd5b505050506040513d601f19601f8201168201806040525081019061150a9190615399565b9050801561152e57611401816011811115611527576115276153e7565b603761215b565b43600c541461154357611401600a603961215b565b8361154c611dd7565b101561155e57611401600e603861215b565b601054841115611574576114016002603a61215b565b836010546115829190615529565b601055600654604080516303e1469160e61b815290516115fa926001600160a01b03169163f851a4409160048083019260209291908290030181865afa1580156115d0573d6000803e3d6000fd5b505050506040513d601f19601f820116820180604052508101906115f49190615540565b856121bb565b60005b925050610adc81611a01565b6060816001600160401b0381111561162357611623614d68565b60405190808252806020026020018201604052801561165657816020015b60608152602001906001900390816116415790505b50905060005b82811015611759576000803086868581811061167a5761167a61555d565b905060200281019061168c9190615573565b60405161169a9291906155b9565b600060405180830381855af49150503d80600081146116d5576040519150601f19603f3d011682016040523d82523d6000602084013e6116da565b606091505b509150915081611726576044815110156116f357600080fd5b6004810190508080602001905181019061170d91906155c9565b60405162461bcd60e51b81526004016102689190614f4c565b808484815181106117395761173961555d565b60200260200101819052505050808061175190615611565b91505061165c565b5092915050565b6000600161176d8161193d565b611779338686866122e5565b9150610a0e81611a01565b6001600160a01b0381166000908152601360205260408120548190819081908180806117af89611247565b9250306001600160a01b031663182df0f56040518163ffffffff1660e01b8152600401602060405180830381865afa1580156117ef573d6000803e3d6000fd5b505050506040513d601f19601f820116820180604052508101906118139190615399565b915060009993985091965094509092505050565b600061106a826127b1565b600061106a82612851565b60008061184b8585856128ec565b5095945050505050565b7fc8fcad8db84d3cc18b4c41d551ea0ee66dd599cde068d998e57d5e09332c131c90565b60008060006118878161193d565b6000306001600160a01b031663a6afed956040518163ffffffff1660e01b81526004016020604051808303816000875af11580156118c9573d6000803e3d6000fd5b505050506040513d601f19601f820116820180604052508101906118ed9190615399565b9050801561191d5761191181601181111561190a5761190a6153e7565b604161215b565b6000935093505061192e565b611928333387612a9d565b93509350505b61193781611a01565b50915091565b600254600160b01b900460ff166119835760405162461bcd60e51b815260206004820152600a6024820152691c994b595b9d195c995960b21b6044820152606401610268565b806119f157600660009054906101000a90046001600160a01b03166001600160a01b031663c90c20b16040518163ffffffff1660e01b8152600401600060405180830381600087803b1580156119d857600080fd5b505af11580156119ec573d6000803e3d6000fd5b505050505b506002805460ff60b01b19169055565b6002805460ff60b01b1916600160b01b1790558061114e57600660009054906101000a90046001600160a01b03166001600160a01b031663632e51426040518163ffffffff1660e01b8152600401600060405180830381600087803b158015611a6957600080fd5b505af1158015611a7d573d6000803e3d6000fd5b5050505050565b6001546000546040516338e6a07360e11b81526001600160a01b03928316926371cd40e692611abc929116908790879060040161562c565b602060405180830381865afa158015611ad9573d6000803e3d6000fd5b505050506040513d601f19601f82011682018060405250810190611afd91906153fd565b611b315760405162461bcd60e51b8152602060048201526005602482015264085a5b5c1b60da1b6044820152606401610268565b600080546001600160a01b038581166001600160a01b03198316811784556001546040516311a0e21760e01b815293831694939216916311a0e21791611b7991600401614f78565b600060405180830381865afa158015611b96573d6000803e3d6000fd5b505050506040513d6000823e601f3d908101601f19168201604052611bbe9190810190615673565b90506000611bca611fbc565b905060005b8151811015611c0c57611bfa828281518110611bed57611bed61555d565b6020026020010151612e3f565b80611c0481615611565b915050611bcf565b5060005b8251811015611c4d57611c3b838281518110611c2e57611c2e61555d565b6020026020010151612f6c565b80611c4581615611565b915050611c10565b50303b611c6257611c5d846110ff565b611cc4565b611cc23085604051602401611c779190614f4c565b60408051601f19818403018152918152602080830180516001600160e01b0316630adccee560e31b17905281518083019092526007825266216265636f6d6560c81b9082015261305b565b505b6000546040517fd604de94d45953f9138079ec1b82d533cb2160c906d1076d1f7ed54befbca97a91611d019186916001600160a01b0316906154e1565b60405180910390a1505050505050565b6000806000611d1f8161193d565b6000306001600160a01b031663a6afed956040518163ffffffff1660e01b81526004016020604051808303816000875af1158015611d61573d6000803e3d6000fd5b505050506040513d601f19601f82011682018060405250810190611d859190615399565b90508015611db557611da9816011811115611da257611da26153e7565b604061215b565b60009350935050611dc6565b611dc0338787612a9d565b93509350505b611dcf81611a01565b509250929050565b6016546040516370a0823160e01b81526000916001600160a01b03169081906370a0823190611e0a903090600401614f78565b602060405180830381865afa158015611e27573d6000803e3d6000fd5b505050506040513d601f19601f82011682018060405250810190611e4b9190615399565b91505090565b600654604080516303e1469160e61b815290516000926001600160a01b031691829163f851a440916004808201926020929091908290030181865afa158015611e9e573d6000803e3d6000fd5b505050506040513d601f19601f82011682018060405250810190611ec29190615540565b6001600160a01b0316336001600160a01b0316148015611f3f5750806001600160a01b0316630a755ec26040518163ffffffff1660e01b8152600401602060405180830381865afa158015611f1b573d6000803e3d6000fd5b505050506040513d601f19601f82011682018060405250810190611f3f91906153fd565b80611e4b57506001546001600160a01b031633148015611e4b5750806001600160a01b0316632f1069ba6040518163ffffffff1660e01b8152600401602060405180830381865afa158015611f98573d6000803e3d6000fd5b505050506040513d601f19601f82011682018060405250810190611e4b91906153fd565b6060611fc6611855565b60020180548060200260200160405190810160405280929190818152602001828054801561201d57602002820191906000526020600020905b81546001600160a01b03168152600190910190602001808311611fff575b5050505050905090565b6000806120338161193d565b6000306001600160a01b031663a6afed956040518163ffffffff1660e01b81526004016020604051808303816000875af1158015612075573d6000803e3d6000fd5b505050506040513d601f19601f820116820180604052508101906120999190615399565b905080156120bd576114018160118111156120b6576120b66153e7565b602a61215b565b6115fd336000866130f7565b6001600160a01b038116156120e1576120e181612e3f565b6120ea82612f6c565b5050565b6000808361210157506000905080612129565b8383028361210f868361570c565b1461212257600260009250925050612129565b6000925090505b9250929050565b600080826121445750600190506000612129565b6000612150848661570c565b915091509250929050565b600060008051602061593f83398151915283601181111561217e5761217e6153e7565b836061811115612190576121906153e7565b60006040516121a19392919061572e565b60405180910390a182601181111561085f5761085f6153e7565b6120ea63a9059cbb60e01b83836040516024016121d9929190615744565b604051602081830303815290604052906001600160e01b0319166020820180516001600160e01b038381831617835250505050604051806040016040528060198152602001781513d2d15397d514905394d1915497d3d55517d19052531151603a1b815250613698565b60008060006122518161193d565b6000306001600160a01b031663a6afed956040518163ffffffff1660e01b81526004016020604051808303816000875af1158015612293573d6000803e3d6000fd5b505050506040513d601f19601f820116820180604052508101906122b79190615399565b905080156122db576119118160118111156122d4576122d46153e7565b602061215b565b61192833866136ef565b60065460405163d02f735160e01b815260009182916001600160a01b039091169063d02f7351906123229030908a908a908a908a9060040161575d565b6020604051808303816000875af1158015612341573d6000803e3d6000fd5b505050506040513d601f19601f820116820180604052508101906123659190615399565b905080156123825761237a6003601d83613a24565b9150506127a9565b846001600160a01b0316846001600160a01b031614156123a85761237a6006601e61215b565b61240d604080516101808101909152806000815260200160008152602001600081526020016000815260200160008152602001600081526020016000815260200160008152602001600081526020016000815260200160008152602001600081525090565b6001600160a01b0385166000908152601360205260409020546124309085613aad565b602083018190528282600381111561244a5761244a6153e7565b600381111561245b5761245b6153e7565b9052506000905081516003811115612475576124756153e7565b146124a55761249c6009601c83600001516003811115612497576124976153e7565b613a24565b925050506127a9565b6124c4846040518060200160405280666379da05b60000815250613ad8565b6080820152604080516020810190915267016345785d8a000081526124ea908590613ad8565b610140820181905260808201516125019086615529565b61250b9190615529565b6060820152306001600160a01b031663182df0f56040518163ffffffff1660e01b8152600401602060405180830381865afa15801561254e573d6000803e3d6000fd5b505050506040513d601f19601f820116820180604052508101906125729190615399565b60c0820190815260408051602081019091529051815260808201516125979190613afb565b60a0820152604080516020810190915260c082015181526101408201516125be9190613afb565b61016082015260a0810151600f546125d69190615511565b60e082015261014081015160808201516012546125f39190615529565b6125fd9190615529565b6101208201526101608101516011546126169190615511565b6101008201526001600160a01b03861660009081526013602052604090205460608201516126449190613b13565b604083018190528282600381111561265e5761265e6153e7565b600381111561266f5761266f6153e7565b9052506000905081516003811115612689576126896153e7565b146126ab5761249c6009601b83600001516003811115612497576124976153e7565b60e0810151600f556101208101516012556101008101516011556020808201516001600160a01b0387811660008181526013855260408082209490945583860151928b168082529084902092909255606085015192519283529092909160008051602061595f833981519152910160405180910390a3306001600160a01b0316856001600160a01b031660008051602061595f833981519152836080015160405161275891815260200190565b60405180910390a360a081015160e08201516040517fa91e67c5ea634cd43a12c5a482724b03de01e85ca68702a53d0c2f45cb7c1dc59261279a923092615790565b60405180910390a16000925050505b949350505050565b6000806127bd8161193d565b6000306001600160a01b031663a6afed956040518163ffffffff1660e01b81526004016020604051808303816000875af11580156127ff573d6000803e3d6000fd5b505050506040513d601f19601f820116820180604052508101906128239190615399565b9050801561284757611401816011811115612840576128406153e7565b600a61215b565b6115fd3385613b39565b60008061285d8161193d565b6000306001600160a01b031663a6afed956040518163ffffffff1660e01b81526004016020604051808303816000875af115801561289f573d6000803e3d6000fd5b505050506040513d601f19601f820116820180604052508101906128c39190615399565b905080156128e0576114018160118111156120b6576120b66153e7565b6115fd338560006130f7565b60008060006128fa8161193d565b6000306001600160a01b031663a6afed956040518163ffffffff1660e01b81526004016020604051808303816000875af115801561293c573d6000803e3d6000fd5b505050506040513d601f19601f820116820180604052508101906129609190615399565b905080156129905761298481601181111561297d5761297d6153e7565b601161215b565b60009350935050612a8b565b846001600160a01b0316639f5ef2726040518163ffffffff1660e01b8152600401602060405180830381865afa1580156129ce573d6000803e3d6000fd5b505050506040513d601f19601f820116820180604052508101906129f29190615540565b6001600160a01b031663a6afed956040518163ffffffff1660e01b81526004016020604051808303816000875af1158015612a31573d6000803e3d6000fd5b505050506040513d601f19601f82011682018060405250810190612a559190615399565b90508015612a7957612984816011811115612a7257612a726153e7565b601261215b565b612a8533888888613e66565b93509350505b612a9481611a01565b50935093915050565b600654604051631200453160e11b81523060048201526001600160a01b03858116602483015284811660448301526064820184905260009283928392909116906324008a62906084016020604051808303816000875af1158015612b05573d6000803e3d6000fd5b505050506040513d601f19601f82011682018060405250810190612b299190615399565b90508015612b4a57612b3e6003604383613a24565b60009250925050612e37565b43600c5414612b5f57612b3e600a604461215b565b612ba86040805161010081019091528060008152602001600081526020016000815260200160008152602001600081526020016000815260200160008152602001600081525090565b6001600160a01b0386166000908152601560205260409020600101546060820152612bd286611247565b6080820152600019851415612bf05760808101516040820152612bf8565b604081018590525b612c06878260400151614362565b60e082018190526080820151612c1b91613aad565b60a0830181905260208301826003811115612c3857612c386153e7565b6003811115612c4957612c496153e7565b9052506000905081602001516003811115612c6657612c666153e7565b14612cd65760405162461bcd60e51b815260206004820152603a60248201527f52455041595f424f52524f575f4e45575f4143434f554e545f424f52524f575f604482015279109053105390d157d0d05310d55310551253d397d1905253115160321b6064820152608401610268565b612ce6600e548260e00151613aad565b60c0830181905260208301826003811115612d0357612d036153e7565b6003811115612d1457612d146153e7565b9052506000905081602001516003811115612d3157612d316153e7565b14612d985760405162461bcd60e51b815260206004820152603160248201527f52455041595f424f52524f575f4e45575f544f54414c5f42414c414e43455f43604482015270105310d55310551253d397d19052531151607a1b6064820152608401610268565b60a081810180516001600160a01b03898116600081815260156020908152604091829020948555600d5460019095019490945560c0870151600e81905560e088015195518251948f16855294840192909252820193909352606081019190915260808101919091527f1a2a22cb034d26d1854bdc6666a5b91fe25efbbb5dcad3b0355478d6f5c362a1910160405180910390a160e00151600093509150505b935093915050565b6000612e49611855565b9050612e548261452e565b60005b600282015460ff82161015610c1257826001600160a01b0316826002018260ff1681548110612e8857612e8861555d565b6000918252602090912001546001600160a01b03161415612f5a57600282018054612eb590600190615529565b81548110612ec557612ec561555d565b6000918252602090912001546002830180546001600160a01b039092169160ff8416908110612ef657612ef661555d565b9060005260206000200160006101000a8154816001600160a01b0302191690836001600160a01b0316021790555081600201805480612f3757612f376157b1565b600082815260209020810160001990810180546001600160a01b03191690550190555b80612f64816157c7565b915050612e57565b6000612f76611855565b905060005b600282015460ff8216101561301b57826001600160a01b0316826002018260ff1681548110612fac57612fac61555d565b6000918252602090912001546001600160a01b031614156130095760405162461bcd60e51b8152602060048201526017602482015276195e1d195b9cda5bdb88185b1c9958591e481859191959604a1b6044820152606401610268565b80613013816157c7565b915050612f7b565b50613025826147b8565b6002018054600181018255600091825260209091200180546001600160a01b0319166001600160a01b0392909216919091179055565b6060600080856001600160a01b03168560405161307891906157e7565b6000604051808303816000865af19150503d80600081146130b5576040519150601f19603f3d011682016040523d82523d6000602084013e6130ba565b606091505b5091509150816130ee578051156130d45780518082602001fd5b8360405162461bcd60e51b81526004016102689190614f4c565b95945050505050565b6000821580613104575081155b61314a5760405162461bcd60e51b815260206004820152601760248201527602172656465656d546f6b656e73496e6f724f7574213d3604c1b6044820152606401610268565b613152614cc8565b306001600160a01b031663182df0f56040518163ffffffff1660e01b8152600401602060405180830381865afa158015613190573d6000803e3d6000fd5b505050506040513d601f19601f820116820180604052508101906131b49190615399565b604082015260001983141561323e57600654604051630cbb414760e11b81526001600160a01b0390911690631976828e906131f8908890309060009060040161562c565b6020604051808303816000875af1158015613217573d6000803e3d6000fd5b505050506040513d601f19601f8201168201806040525081019061323b9190615399565b92505b83156132df5760608101849052604080516020810182529082015181526132659085614981565b6080830181905260208301826003811115613282576132826153e7565b6003811115613293576132936153e7565b90525060009050816020015160038111156132b0576132b06153e7565b146132da576132d26009602c83602001516003811115612497576124976153e7565b91505061085f565b613370565b6132fb83604051806020016040528084604001518152506149d3565b6060830181905260208301826003811115613318576133186153e7565b6003811115613329576133296153e7565b9052506000905081602001516003811115613346576133466153e7565b14613368576132d26009602d83602001516003811115612497576124976153e7565b608081018390525b600654606082015160405163eabe7d9160e01b81526000926001600160a01b03169163eabe7d91916133a99130918b9190600401615803565b6020604051808303816000875af11580156133c8573d6000803e3d6000fd5b505050506040513d601f19601f820116820180604052508101906133ec9190615399565b9050801561340a576134016003602b83613a24565b9250505061085f565b43600c541461341f57613401600a602f61215b565b61342f6012548360600151613aad565b60a084018190526020840182600381111561344c5761344c6153e7565b600381111561345d5761345d6153e7565b905250600090508260200151600381111561347a5761347a6153e7565b1461349c576134016009603184602001516003811115612497576124976153e7565b6001600160a01b03861660009081526013602052604090205460608301516134c49190613aad565b60c08401819052602084018260038111156134e1576134e16153e7565b60038111156134f2576134f26153e7565b905250600090508260200151600381111561350f5761350f6153e7565b14613531576134016009603084602001516003811115612497576124976153e7565b816080015161353e611dd7565b101561355057613401600e603261215b565b60a082015160125560c08201516001600160a01b03871660009081526013602052604090205560808201516135869087906121bb565b306001600160a01b0316866001600160a01b031660008051602061595f83398151915284606001516040516135bd91815260200190565b60405180910390a3608082015160608301516040517fe5b754fb1abb7f01b499791d0b820ae3b6af3424ac1c59768edb53f4ec31a929926135ff928a92615790565b60405180910390a1600654608083015160608401516040516351dff98960e01b81523060048201526001600160a01b038a81166024830152604482019390935260648101919091529116906351dff98990608401600060405180830381600087803b15801561366d57600080fd5b505af1158015613681573d6000803e3d6000fd5b506000925061368e915050565b9695505050505050565b6016546000906136b2906001600160a01b0316848461305b565b805190915015610c1257808060200190518101906136d091906153fd565b82906110f95760405162461bcd60e51b81526004016102689190614f4c565b600654604051634ef4c3e160e01b8152600091829182916001600160a01b031690634ef4c3e19061372890309089908990600401615803565b6020604051808303816000875af1158015613747573d6000803e3d6000fd5b505050506040513d601f19601f8201168201806040525081019061376b9190615399565b9050801561378c576137806003602183613a24565b60009250925050612129565b43600c54146137a157613780600a602461215b565b6137a9614cc8565b306001600160a01b031663182df0f56040518163ffffffff1660e01b8152600401602060405180830381865afa1580156137e7573d6000803e3d6000fd5b505050506040513d601f19601f8201168201806040525081019061380b9190615399565b604082015261381a8686614362565b60c082018190526040805160208101825290830151815261383b91906149d3565b6060830181905260208301826003811115613858576138586153e7565b6003811115613869576138696153e7565b9052506000905081602001516003811115613886576138866153e7565b146138d35760405162461bcd60e51b815260206004820181905260248201527f4d494e545f45584348414e47455f43414c43554c4154494f4e5f4641494c45446044820152606401610268565b60008160600151116139245760405162461bcd60e51b815260206004820152601a6024820152791352539517d6915493d7d0d513d2d15394d7d491529150d5115160321b6044820152606401610268565b80606001516012546139369190615511565b608082015260608101516001600160a01b0387166000908152601360205260409020546139639190615511565b60a0820181905260808201516012556001600160a01b038716600090815260136020526040908190209190915560c0820151606083015191517f4c209b5fc8ad50758f13e2e1088ba56a560dff690a1c6fef26394f4c03821c4f926139cc928a92909190615790565b60405180910390a1856001600160a01b0316306001600160a01b031660008051602061595f8339815191528360600151604051613a0b91815260200190565b60405180910390a360c001516000969095509350505050565b600060008051602061593f833981519152846011811115613a4757613a476153e7565b846061811115613a5957613a596153e7565b84604051613a699392919061572e565b60405180910390a16003846011811115613a8557613a856153e7565b14613aa157836011811115613a9c57613a9c6153e7565b6127a9565b6127a9826103e8615511565b600080838311613acc576000613ac38486615529565b91509150612129565b50600390506000612129565b6000670de0b6b3a7640000613af18484600001516149e3565b61085f919061570c565b600080613b088484614a1f565b90506127a981614a49565b600080838301848110613b2b57600092509050612129565b600260009250925050612129565b60065460405163368f515360e21b815260009182916001600160a01b039091169063da3d454c90613b7290309088908890600401615803565b6020604051808303816000875af1158015613b91573d6000803e3d6000fd5b505050506040513d601f19601f82011682018060405250810190613bb59190615399565b90508015613bd257613bca6003601083613a24565b91505061106a565b43600c5414613be757613bca600a600c61215b565b6000613bf1611dd7565b905083811015613c1057613c07600e600b61215b565b9250505061106a565b613c3c604080516080810190915280600081526020016000815260200160008152602001600081525090565b613c4586611247565b60208201819052613c569086613b13565b6040830181905282826003811115613c7057613c706153e7565b6003811115613c8157613c816153e7565b9052506000905081516003811115613c9b57613c9b6153e7565b14613cc757613cbd6009600e83600001516003811115612497576124976153e7565b935050505061106a565b6006546040808301519051631de6c8a560e21b81526001600160a01b039092169163779b229491613cfd91309190600401615744565b602060405180830381865afa158015613d1a573d6000803e3d6000fd5b505050506040513d601f19601f82011682018060405250810190613d3e9190615399565b92508215613d5357613cbd6003601085613a24565b613d5f600e5486613b13565b6060830181905282826003811115613d7957613d796153e7565b6003811115613d8a57613d8a6153e7565b9052506000905081516003811115613da457613da46153e7565b14613dc657613cbd6009600d83600001516003811115612497576124976153e7565b6040808201516001600160a01b0388166000908152601560205291909120908155600d546001909101556060810151600e55613e0286866121bb565b60408082015160608084015183516001600160a01b038b168152602081018a9052938401929092528201527f13ed6866d4e1ee6da46f845c46d7e54120883d75c5ea9a2dacc1c4ca8984ab809060800160405180910390a160009695505050505050565b600654604051632fe3f38f60e11b8152600091829182916001600160a01b031690635fc7e71e90613ea390309088908c908c908c9060040161575d565b6020604051808303816000875af1158015613ec2573d6000803e3d6000fd5b505050506040513d601f19601f82011682018060405250810190613ee69190615399565b90508015613f0757613efb6003601483613a24565b60009250925050614359565b43600c5414613f1c57613efb600a601861215b565b43846001600160a01b0316636c540baf6040518163ffffffff1660e01b8152600401602060405180830381865afa158015613f5b573d6000803e3d6000fd5b505050506040513d601f19601f82011682018060405250810190613f7f9190615399565b14613f9057613efb600a601361215b565b866001600160a01b0316866001600160a01b03161415613fb657613efb6006601961215b565b84613fc757613efb6007601761215b565b600019851415613fdd57613efb6007601661215b565b600080613feb898989612a9d565b909250905081156140205761401282601181111561400b5761400b6153e7565b601a61215b565b600094509450505050614359565b60065460405163c488847b60e01b815260009182916001600160a01b039091169063c488847b906140599030908c908890600401615803565b6040805180830381865afa158015614075573d6000803e3d6000fd5b505050506040513d601f19601f820116820180604052508101906140999190615827565b909250905081156141085760405162461bcd60e51b815260206004820152603360248201527f4c49515549444154455f434f4d5054524f4c4c45525f43414c43554c4154455f604482015272105353d5539517d4d152569157d19052531151606a1b6064820152608401610268565b80886001600160a01b0316639f5ef2726040518163ffffffff1660e01b8152600401602060405180830381865afa158015614147573d6000803e3d6000fd5b505050506040513d601f19601f8201168201806040525081019061416b9190615540565b6001600160a01b03166370a082318c6040518263ffffffff1660e01b81526004016141969190614f78565b602060405180830381865afa1580156141b3573d6000803e3d6000fd5b505050506040513d601f19601f820116820180604052508101906141d79190615399565b10156142205760405162461bcd60e51b815260206004820152601860248201527709892a2aa928882a88abea68a92b48abea89e9ebe9aaa86960431b6044820152606401610268565b60006001600160a01b0389163014156142465761423f308d8d856122e5565b90506142bc565b60405163b2a02ff160e01b81526001600160a01b038a169063b2a02ff190614276908f908f908790600401615803565b6020604051808303816000875af1158015614295573d6000803e3d6000fd5b505050506040513d601f19601f820116820180604052508101906142b99190615399565b90505b80156142f35760405162461bcd60e51b8152602060048201526006602482015265217365697a6560d01b6044820152606401610268565b604080516001600160a01b038e811682528d811660208301528183018790528b1660608201526080810184905290517f298637f684da70674f26509b10f07ec2fbc77a335ab1e7d6215a4b2484d8bb529181900360a00190a16000975092955050505050505b94509492505050565b6016546040516370a0823160e01b815260009182916001600160a01b03909116906370a0823190614397903090600401614f78565b602060405180830381865afa1580156143b4573d6000803e3d6000fd5b505050506040513d601f19601f820116820180604052508101906143d89190615399565b90506144636323b872dd60e01b8530866040516024016143fa93929190615803565b604051602081830303815290604052906001600160e01b0319166020820180516001600160e01b038381831617835250505050604051806040016040528060188152602001771513d2d15397d514905394d1915497d25397d1905253115160421b815250613698565b6016546040516370a0823160e01b81526000916001600160a01b0316906370a0823190614494903090600401614f78565b602060405180830381865afa1580156144b1573d6000803e3d6000fd5b505050506040513d601f19601f820116820180604052508101906144d59190615399565b9050818110156145245760405162461bcd60e51b815260206004820152601a602482015279544f4b454e5f5452414e534645525f494e5f4f564552464c4f5760301b6044820152606401610268565b6130ee8282615529565b6000816001600160a01b03166389f8132e6040518163ffffffff1660e01b8152600401600060405180830381865afa15801561456e573d6000803e3d6000fd5b505050506040513d6000823e601f3d908101601f19168201604052614596919081019061584b565b905060006145a2611855565b905060005b82518161ffff1610156110f9576000838261ffff16815181106145cc576145cc61555d565b6020908102919091018101516001600160e01b031981166000908152918590526040909120549091506001600160a01b0386811691161461460f5761460f6158e7565b6001600160e01b0319811660009081526020849052604090205460018085018054600160a01b90930461ffff1692909161464891615529565b815481106146585761465861555d565b90600052602060002090600891828204019190066004029054906101000a900460e01b846001018261ffff16815481106146945761469461555d565b90600052602060002090600891828204019190066004026101000a81548163ffffffff021916908360e01c021790555080846000016000866001018461ffff16815481106146e4576146e461555d565b6000918252602080832060088304015460079092166004026101000a90910460e01b6001600160e01b03191683528201929092526040019020805461ffff60a01b1916600160a01b61ffff939093169290920291909117905560018401805480614750576147506157b1565b60008281526020808220600860001990940193840401805463ffffffff600460078716026101000a0219169055919092556001600160e01b0319909316815291849052506040902080546001600160b01b0319169055806147b0816158fd565b9150506145a7565b6000816001600160a01b03166389f8132e6040518163ffffffff1660e01b8152600401600060405180830381865afa1580156147f8573d6000803e3d6000fd5b505050506040513d6000823e601f3d908101601f19168201604052614820919081019061584b565b9050600061482c611855565b600181015490915060005b8351811015611a7d5760008482815181106148545761485461555d565b6020908102919091018101516001600160e01b031981166000908152918690526040909120549091506001600160a01b031680156148c057604051632c18df3360e01b81526001600160e01b0319831660048201526001600160a01b0382166024820152604401610268565b6040805180820182526001600160a01b03808a16825261ffff80881660208085019182526001600160e01b0319881660009081528b8252958620945185549251909316600160a01b026001600160b01b0319909216929093169190911717909155600180880180549182018155835291206008820401805460e085901c60046007909416939093026101000a92830263ffffffff909302191691909117905583614969816158fd565b9450505050808061497990615611565b915050614837565b6000806000806149918686614a61565b909250905060008260038111156149aa576149aa6153e7565b146149bb5750915060009050612129565b60006149c682614a49565b9350935050509250929050565b6000806000806149918686614acf565b600061085f8383604051806040016040528060178152602001766d756c7469706c69636174696f6e206f766572666c6f7760481b815250614b34565b614a27614d06565b6040518060200160405280614a408560000151856149e3565b90529392505050565b805160009061106a90670de0b6b3a76400009061570c565b6000614a6b614d06565b600080614a7c8660000151866120ee565b90925090506000826003811115614a9557614a956153e7565b14614ab457506040805160208101909152600081529092509050612129565b60408051602081019091529081526000969095509350505050565b6000614ad9614d06565b600080614aee670de0b6b3a7640000876120ee565b90925090506000826003811115614b0757614b076153e7565b14614b2657506040805160208101909152600081529092509050612129565b6149c6818660000151614b87565b6000831580614b41575082155b15614b4e5750600061085f565b6000614b5a848661591f565b905083614b67868361570c565b1483906113625760405162461bcd60e51b81526004016102689190614f4c565b6000614b91614d06565b600080614ba686670de0b6b3a76400006120ee565b90925090506000826003811115614bbf57614bbf6153e7565b14614bde57506040805160208101909152600081529092509050612129565b600080614beb8388612130565b90925090506000826003811115614c0457614c046153e7565b14614c275781604051806020016040528060008152509550955050505050612129565b604080516020810190915290815260009890975095505050505050565b828054614c50906153b2565b90600052602060002090601f016020900481019282614c725760008555614cb8565b82601f10614c8b57805160ff1916838001178555614cb8565b82800160010185558215614cb8579182015b82811115614cb8578251825591602001919060010190614c9d565b50614cc4929150614d19565b5090565b6040805160e0810190915280600081526020016000815260200160008152602001600081526020016000815260200160008152602001600081525090565b6040518060200160405280600081525090565b5b80821115614cc45760008155600101614d1a565b6001600160e01b031991909116815260200190565b6001600160a01b038116811461114e57600080fd5b8035614d6381614d43565b919050565b634e487b7160e01b600052604160045260246000fd5b604051601f8201601f191681016001600160401b0381118282101715614da657614da6614d68565b604052919050565b60006001600160401b03821115614dc757614dc7614d68565b50601f01601f191660200190565b6000614de8614de384614dae565b614d7e565b9050828152838383011115614dfc57600080fd5b828260208301376000602084830101529392505050565b600082601f830112614e2457600080fd5b61085f83833560208501614dd5565b600080600080600080600080610100898b031215614e5057600080fd5b8835614e5b81614d43565b97506020890135614e6b81614d43565b96506040890135614e7b81614d43565b95506060890135614e8b81614d43565b945060808901356001600160401b0380821115614ea757600080fd5b614eb38c838d01614e13565b955060a08b0135915080821115614ec957600080fd5b50614ed68b828c01614e13565b93505060c0890135915060e089013590509295985092959890939650565b60005b83811015614f0f578181015183820152602001614ef7565b838111156110f95750506000910152565b60008151808452614f38816020860160208601614ef4565b601f01601f19169290920160200192915050565b60208152600061085f6020830184614f20565b600060208284031215614f7157600080fd5b5035919050565b6001600160a01b0391909116815260200190565b600060208284031215614f9e57600080fd5b813561085f81614d43565b60ff8116811461114e57600080fd5b8035614d6381614fa9565b60008060008060008060008060006101208a8c031215614fe257600080fd5b8935614fed81614d43565b985060208a0135614ffd81614d43565b975061500b60408b01614d58565b965060608a0135955060808a01356001600160401b038082111561502e57600080fd5b61503a8d838e01614e13565b965060a08c013591508082111561505057600080fd5b5061505d8c828d01614e13565b94505061506c60c08b01614fb8565b925060e08a013591506101008a013590509295985092959850929598565b6000806040838503121561509d57600080fd5b82356150a881614d43565b946020939093013593505050565b801515811461114e57600080fd5b600080600080606085870312156150da57600080fd5b84356150e581614d43565b935060208501356150f5816150b6565b925060408501356001600160401b038082111561511157600080fd5b818701915087601f83011261512557600080fd5b81358181111561513457600080fd5b88602082850101111561514657600080fd5b95989497505060200194505050565b60006020828403121561516757600080fd5b81356001600160401b0381111561517d57600080fd5b8201601f8101841361518e57600080fd5b6127a984823560208401614dd5565b6020808252825182820181905260009190848201906040850190845b818110156151de5783516001600160a01b0316835292840192918401916001016151b9565b50909695505050505050565b600080604083850312156151fd57600080fd5b823561520881614d43565b9150602083013561521881614d43565b809150509250929050565b6000806020838503121561523657600080fd5b82356001600160401b038082111561524d57600080fd5b818501915085601f83011261526157600080fd5b81358181111561527057600080fd5b8660208260051b850101111561528557600080fd5b60209290920196919550909350505050565b6000602080830181845280855180835260408601915060408160051b870101925083870160005b828110156152ec57603f198886030184526152da858351614f20565b945092850192908501906001016152be565b5092979650505050505050565b60008060006060848603121561530e57600080fd5b833561531981614d43565b9250602084013561532981614d43565b929592945050506040919091013590565b60008060006060848603121561534f57600080fd5b833561535a81614d43565b925060208401359150604084013561537181614d43565b809150509250925092565b60006020828403121561538e57600080fd5b815161085f81614fa9565b6000602082840312156153ab57600080fd5b5051919050565b600181811c908216806153c657607f821691505b60208210811415610adc57634e487b7160e01b600052602260045260246000fd5b634e487b7160e01b600052602160045260246000fd5b60006020828403121561540f57600080fd5b815161085f816150b6565b6000615428614de384614dae565b905082815283838301111561543c57600080fd5b61085f836020830184614ef4565b60008060006060848603121561545f57600080fd5b835161546a81614d43565b602085015190935061547b816150b6565b60408501519092506001600160401b0381111561549757600080fd5b8401601f810186136154a857600080fd5b6154b78682516020840161541a565b9150509250925092565b60208082526006908201526510b0b236b4b760d11b604082015260600190565b6001600160a01b0392831681529116602082015260400190565b634e487b7160e01b600052601160045260246000fd5b60008219821115615524576155246154fb565b500190565b60008282101561553b5761553b6154fb565b500390565b60006020828403121561555257600080fd5b815161085f81614d43565b634e487b7160e01b600052603260045260246000fd5b6000808335601e1984360301811261558a57600080fd5b8301803591506001600160401b038211156155a457600080fd5b60200191503681900382131561212957600080fd5b8183823760009101908152919050565b6000602082840312156155db57600080fd5b81516001600160401b038111156155f157600080fd5b8201601f8101841361560257600080fd5b6127a98482516020840161541a565b6000600019821415615625576156256154fb565b5060010190565b6001600160a01b039384168152919092166020820152901515604082015260600190565b60006001600160401b0382111561566957615669614d68565b5060051b60200190565b6000602080838503121561568657600080fd5b82516001600160401b0381111561569c57600080fd5b8301601f810185136156ad57600080fd5b80516156bb614de382615650565b81815260059190911b820183019083810190878311156156da57600080fd5b928401925b828410156157015783516156f281614d43565b825292840192908401906156df565b979650505050505050565b60008261572957634e487b7160e01b600052601260045260246000fd5b500490565b9283526020830191909152604082015260600190565b6001600160a01b03929092168252602082015260400190565b6001600160a01b039586168152938516602085015291841660408401529092166060820152608081019190915260a00190565b6001600160a01b039390931683526020830191909152604082015260600190565b634e487b7160e01b600052603160045260246000fd5b600060ff821660ff8114156157de576157de6154fb565b60010192915050565b600082516157f9818460208701614ef4565b9190910192915050565b6001600160a01b039384168152919092166020820152604081019190915260600190565b6000806040838503121561583a57600080fd5b505080516020909101519092909150565b6000602080838503121561585e57600080fd5b82516001600160401b0381111561587457600080fd5b8301601f8101851361588557600080fd5b8051615893614de382615650565b81815260059190911b820183019083810190878311156158b257600080fd5b928401925b828410156157015783516001600160e01b0319811681146158d85760008081fd5b825292840192908401906158b7565b634e487b7160e01b600052600160045260246000fd5b600061ffff80831681811415615915576159156154fb565b6001019392505050565b6000816000190483118215151615615939576159396154fb565b50029056fe45b96fe442630264581b197e84bbada861235052c5a1aadfff9ea4e40a969aa0ddf252ad1be2c89b69c2b068fc378daa952ba7f163c4a11628f55a4df523b3efa164736f6c634300080a000a",
    "linkReferences": {}
  },
  "methodIdentifiers": {
    "_becomeImplementation(bytes)": "56e67728",
    "_listExtensions()": "6333d001",
    "_prepare()": "1db78944",
    "_registerExtension(address,address)": "89cd9855",
    "_setImplementationSafe(address,bool,bytes)": "50d85b73",
    "_withdrawAdminFees(uint256)": "a7b820df",
    "_withdrawFuseFees(uint256)": "a03dce8d",
    "accrualBlockNumber()": "6c540baf",
    "adminFeeMantissa()": "8d02d9a1",
    "asCTokenExtensionInterface()": "9f5ef272",
    "borrow(uint256)": "c5ebeaec",
    "borrowBalanceCurrent(address)": "17bfdfbc",
    "borrowBalanceStored(address)": "95dd9193",
    "borrowIndex()": "aa5af0fd",
    "comptroller()": "5fe3b567",
    "contractType()": "cb2ef6f7",
    "decimals()": "313ce567",
    "feeSeizeShareMantissa()": "be99f119",
    "fuseAdmin()": "15761d51",
    "fuseFeeMantissa()": "dbfe7c19",
    "getAccountSnapshot(address)": "c37f68e2",
    "getCash()": "3b1d21a2",
    "implementation()": "5c60da1b",
    "initialize(address,address,address,address,string,string,uint256,uint256)": "06db3ecd",
    "initialize(address,address,address,uint256,string,string,uint8,uint256,uint256)": "219ef65c",
    "interestRateModel()": "f3fdb15a",
    "isCEther()": "ac784ddc",
    "isCToken()": "fe9c44ae",
    "liquidateBorrow(address,uint256,address)": "f5e3c462",
    "mint(uint256)": "a0712d68",
    "multicall(bytes[])": "ac9650d8",
    "name()": "06fdde03",
    "protocolSeizeShareMantissa()": "6752e702",
    "redeem(uint256)": "db006a75",
    "redeemUnderlying(uint256)": "852a12e3",
    "repayBorrow(uint256)": "0e752702",
    "repayBorrowBehalf(address,uint256)": "2608f818",
    "reserveFactorMantissa()": "173b9904",
    "seize(address,address,uint256)": "b2a02ff1",
    "symbol()": "95d89b41",
    "totalAdminFees()": "61feacff",
    "totalBorrows()": "47bd3718",
    "totalFuseFees()": "dc028ab1",
    "totalReserves()": "8f840ddd",
    "totalSupply()": "18160ddd",
    "underlying()": "6f307dc3"
  }
}