{
  "address": "0xfb8ED2Ac0C9B59eE2642415E1749fe26b10a3ecb",
  "abi": [
    {
      "inputs": [
        {
          "internalType": "bytes4",
          "name": "_functionSelector",
          "type": "bytes4"
        }
      ],
      "name": "ExtensionNotFound",
      "type": "error"
    },
    {
      "inputs": [
        {
          "internalType": "bytes4",
          "name": "_functionSelector",
          "type": "bytes4"
        },
        {
          "internalType": "address",
          "name": "_currentImpl",
          "type": "address"
        }
      ],
      "name": "FunctionAlreadyAdded",
      "type": "error"
    },
    {
      "inputs": [
        {
          "internalType": "bytes4",
          "name": "_functionSelector",
          "type": "bytes4"
        }
      ],
      "name": "FunctionNotFound",
      "type": "error"
    },
    {
      "anonymous": false,
      "inputs": [
        {
          "indexed": false,
          "internalType": "uint256",
          "name": "cashPrior",
          "type": "uint256"
        },
        {
          "indexed": false,
          "internalType": "uint256",
          "name": "interestAccumulated",
          "type": "uint256"
        },
        {
          "indexed": false,
          "internalType": "uint256",
          "name": "borrowIndex",
          "type": "uint256"
        },
        {
          "indexed": false,
          "internalType": "uint256",
          "name": "totalBorrows",
          "type": "uint256"
        }
      ],
      "name": "AccrueInterest",
      "type": "event"
    },
    {
      "anonymous": false,
      "inputs": [
        {
          "indexed": true,
          "internalType": "address",
          "name": "owner",
          "type": "address"
        },
        {
          "indexed": true,
          "internalType": "address",
          "name": "spender",
          "type": "address"
        },
        {
          "indexed": false,
          "internalType": "uint256",
          "name": "amount",
          "type": "uint256"
        }
      ],
      "name": "Approval",
      "type": "event"
    },
    {
      "anonymous": false,
      "inputs": [
        {
          "indexed": false,
          "internalType": "address",
          "name": "borrower",
          "type": "address"
        },
        {
          "indexed": false,
          "internalType": "uint256",
          "name": "borrowAmount",
          "type": "uint256"
        },
        {
          "indexed": false,
          "internalType": "uint256",
          "name": "accountBorrows",
          "type": "uint256"
        },
        {
          "indexed": false,
          "internalType": "uint256",
          "name": "totalBorrows",
          "type": "uint256"
        }
      ],
      "name": "Borrow",
      "type": "event"
    },
    {
      "anonymous": false,
      "inputs": [
        {
          "indexed": false,
          "internalType": "uint256",
          "name": "error",
          "type": "uint256"
        },
        {
          "indexed": false,
          "internalType": "uint256",
          "name": "info",
          "type": "uint256"
        },
        {
          "indexed": false,
          "internalType": "uint256",
          "name": "detail",
          "type": "uint256"
        }
      ],
      "name": "Failure",
      "type": "event"
    },
    {
      "anonymous": false,
      "inputs": [
        {
          "indexed": false,
          "internalType": "address",
          "name": "liquidator",
          "type": "address"
        },
        {
          "indexed": false,
          "internalType": "address",
          "name": "borrower",
          "type": "address"
        },
        {
          "indexed": false,
          "internalType": "uint256",
          "name": "repayAmount",
          "type": "uint256"
        },
        {
          "indexed": false,
          "internalType": "address",
          "name": "cTokenCollateral",
          "type": "address"
        },
        {
          "indexed": false,
          "internalType": "uint256",
          "name": "seizeTokens",
          "type": "uint256"
        }
      ],
      "name": "LiquidateBorrow",
      "type": "event"
    },
    {
      "anonymous": false,
      "inputs": [
        {
          "indexed": false,
          "internalType": "address",
          "name": "minter",
          "type": "address"
        },
        {
          "indexed": false,
          "internalType": "uint256",
          "name": "mintAmount",
          "type": "uint256"
        },
        {
          "indexed": false,
          "internalType": "uint256",
          "name": "mintTokens",
          "type": "uint256"
        }
      ],
      "name": "Mint",
      "type": "event"
    },
    {
      "anonymous": false,
      "inputs": [
        {
          "indexed": false,
          "internalType": "uint256",
          "name": "oldAdminFeeMantissa",
          "type": "uint256"
        },
        {
          "indexed": false,
          "internalType": "uint256",
          "name": "newAdminFeeMantissa",
          "type": "uint256"
        }
      ],
      "name": "NewAdminFee",
      "type": "event"
    },
    {
      "anonymous": false,
      "inputs": [
        {
          "indexed": false,
          "internalType": "uint256",
          "name": "oldFuseFeeMantissa",
          "type": "uint256"
        },
        {
          "indexed": false,
          "internalType": "uint256",
          "name": "newFuseFeeMantissa",
          "type": "uint256"
        }
      ],
      "name": "NewFuseFee",
      "type": "event"
    },
    {
      "anonymous": false,
      "inputs": [
        {
          "indexed": false,
          "internalType": "address",
          "name": "oldImplementation",
          "type": "address"
        },
        {
          "indexed": false,
          "internalType": "address",
          "name": "newImplementation",
          "type": "address"
        }
      ],
      "name": "NewImplementation",
      "type": "event"
    },
    {
      "anonymous": false,
      "inputs": [
        {
          "indexed": false,
          "internalType": "contract InterestRateModel",
          "name": "oldInterestRateModel",
          "type": "address"
        },
        {
          "indexed": false,
          "internalType": "contract InterestRateModel",
          "name": "newInterestRateModel",
          "type": "address"
        }
      ],
      "name": "NewMarketInterestRateModel",
      "type": "event"
    },
    {
      "anonymous": false,
      "inputs": [
        {
          "indexed": false,
          "internalType": "address",
          "name": "oldImpl",
          "type": "address"
        },
        {
          "indexed": false,
          "internalType": "address",
          "name": "newImpl",
          "type": "address"
        }
      ],
      "name": "NewPluginImplementation",
      "type": "event"
    },
    {
      "anonymous": false,
      "inputs": [
        {
          "indexed": false,
          "internalType": "uint256",
          "name": "oldReserveFactorMantissa",
          "type": "uint256"
        },
        {
          "indexed": false,
          "internalType": "uint256",
          "name": "newReserveFactorMantissa",
          "type": "uint256"
        }
      ],
      "name": "NewReserveFactor",
      "type": "event"
    },
    {
      "anonymous": false,
      "inputs": [
        {
          "indexed": false,
          "internalType": "address",
          "name": "redeemer",
          "type": "address"
        },
        {
          "indexed": false,
          "internalType": "uint256",
          "name": "redeemAmount",
          "type": "uint256"
        },
        {
          "indexed": false,
          "internalType": "uint256",
          "name": "redeemTokens",
          "type": "uint256"
        }
      ],
      "name": "Redeem",
      "type": "event"
    },
    {
      "anonymous": false,
      "inputs": [
        {
          "indexed": false,
          "internalType": "address",
          "name": "payer",
          "type": "address"
        },
        {
          "indexed": false,
          "internalType": "address",
          "name": "borrower",
          "type": "address"
        },
        {
          "indexed": false,
          "internalType": "uint256",
          "name": "repayAmount",
          "type": "uint256"
        },
        {
          "indexed": false,
          "internalType": "uint256",
          "name": "accountBorrows",
          "type": "uint256"
        },
        {
          "indexed": false,
          "internalType": "uint256",
          "name": "totalBorrows",
          "type": "uint256"
        }
      ],
      "name": "RepayBorrow",
      "type": "event"
    },
    {
      "anonymous": false,
      "inputs": [
        {
          "indexed": false,
          "internalType": "address",
          "name": "benefactor",
          "type": "address"
        },
        {
          "indexed": false,
          "internalType": "uint256",
          "name": "addAmount",
          "type": "uint256"
        },
        {
          "indexed": false,
          "internalType": "uint256",
          "name": "newTotalReserves",
          "type": "uint256"
        }
      ],
      "name": "ReservesAdded",
      "type": "event"
    },
    {
      "anonymous": false,
      "inputs": [
        {
          "indexed": false,
          "internalType": "address",
          "name": "admin",
          "type": "address"
        },
        {
          "indexed": false,
          "internalType": "uint256",
          "name": "reduceAmount",
          "type": "uint256"
        },
        {
          "indexed": false,
          "internalType": "uint256",
          "name": "newTotalReserves",
          "type": "uint256"
        }
      ],
      "name": "ReservesReduced",
      "type": "event"
    },
    {
      "anonymous": false,
      "inputs": [
        {
          "indexed": true,
          "internalType": "address",
          "name": "from",
          "type": "address"
        },
        {
          "indexed": true,
          "internalType": "address",
          "name": "to",
          "type": "address"
        },
        {
          "indexed": false,
          "internalType": "uint256",
          "name": "amount",
          "type": "uint256"
        }
      ],
      "name": "Transfer",
      "type": "event"
    },
    {
      "stateMutability": "nonpayable",
      "type": "fallback"
    },
    {
      "inputs": [
        {
          "internalType": "bytes",
          "name": "data",
          "type": "bytes"
        }
      ],
      "name": "_becomeImplementation",
      "outputs": [],
      "stateMutability": "nonpayable",
      "type": "function"
    },
    {
      "inputs": [],
      "name": "_listExtensions",
      "outputs": [
        {
          "internalType": "address[]",
          "name": "",
          "type": "address[]"
        }
      ],
      "stateMutability": "view",
      "type": "function"
    },
    {
      "inputs": [],
      "name": "_prepare",
      "outputs": [],
      "stateMutability": "payable",
      "type": "function"
    },
    {
      "inputs": [
        {
          "internalType": "contract DiamondExtension",
          "name": "extensionToAdd",
          "type": "address"
        },
        {
          "internalType": "contract DiamondExtension",
          "name": "extensionToReplace",
          "type": "address"
        }
      ],
      "name": "_registerExtension",
      "outputs": [],
      "stateMutability": "nonpayable",
      "type": "function"
    },
    {
      "inputs": [
        {
          "internalType": "address",
          "name": "implementation_",
          "type": "address"
        },
        {
          "internalType": "bool",
          "name": "allowResign",
          "type": "bool"
        },
        {
          "internalType": "bytes",
          "name": "becomeImplementationData",
          "type": "bytes"
        }
      ],
      "name": "_setImplementationSafe",
      "outputs": [],
      "stateMutability": "nonpayable",
      "type": "function"
    },
    {
      "inputs": [
        {
          "internalType": "address",
          "name": "_plugin",
          "type": "address"
        }
      ],
      "name": "_updatePlugin",
      "outputs": [],
      "stateMutability": "nonpayable",
      "type": "function"
    },
    {
      "inputs": [
        {
          "internalType": "uint256",
          "name": "withdrawAmount",
          "type": "uint256"
        }
      ],
      "name": "_withdrawAdminFees",
      "outputs": [
        {
          "internalType": "uint256",
          "name": "",
          "type": "uint256"
        }
      ],
      "stateMutability": "nonpayable",
      "type": "function"
    },
    {
      "inputs": [
        {
          "internalType": "uint256",
          "name": "withdrawAmount",
          "type": "uint256"
        }
      ],
      "name": "_withdrawFuseFees",
      "outputs": [
        {
          "internalType": "uint256",
          "name": "",
          "type": "uint256"
        }
      ],
      "stateMutability": "nonpayable",
      "type": "function"
    },
    {
      "inputs": [],
      "name": "accrualBlockNumber",
      "outputs": [
        {
          "internalType": "uint256",
          "name": "",
          "type": "uint256"
        }
      ],
      "stateMutability": "view",
      "type": "function"
    },
    {
      "inputs": [],
      "name": "adminFeeMantissa",
      "outputs": [
        {
          "internalType": "uint256",
          "name": "",
          "type": "uint256"
        }
      ],
      "stateMutability": "view",
      "type": "function"
    },
    {
      "inputs": [
        {
          "internalType": "uint256",
          "name": "borrowAmount",
          "type": "uint256"
        }
      ],
      "name": "borrow",
      "outputs": [
        {
          "internalType": "uint256",
          "name": "",
          "type": "uint256"
        }
      ],
      "stateMutability": "nonpayable",
      "type": "function"
    },
    {
      "inputs": [],
      "name": "borrowIndex",
      "outputs": [
        {
          "internalType": "uint256",
          "name": "",
          "type": "uint256"
        }
      ],
      "stateMutability": "view",
      "type": "function"
    },
    {
      "inputs": [],
      "name": "comptroller",
      "outputs": [
        {
          "internalType": "contract IComptroller",
          "name": "",
          "type": "address"
        }
      ],
      "stateMutability": "view",
      "type": "function"
    },
    {
      "inputs": [],
      "name": "contractType",
      "outputs": [
        {
          "internalType": "string",
          "name": "",
          "type": "string"
        }
      ],
      "stateMutability": "pure",
      "type": "function"
    },
    {
      "inputs": [],
      "name": "decimals",
      "outputs": [
        {
          "internalType": "uint8",
          "name": "",
          "type": "uint8"
        }
      ],
      "stateMutability": "view",
      "type": "function"
    },
    {
      "inputs": [],
      "name": "feeSeizeShareMantissa",
      "outputs": [
        {
          "internalType": "uint256",
          "name": "",
          "type": "uint256"
        }
      ],
      "stateMutability": "view",
      "type": "function"
    },
    {
      "inputs": [],
      "name": "fuseAdmin",
      "outputs": [
        {
          "internalType": "address payable",
          "name": "",
          "type": "address"
        }
      ],
      "stateMutability": "view",
      "type": "function"
    },
    {
      "inputs": [],
      "name": "fuseFeeMantissa",
      "outputs": [
        {
          "internalType": "uint256",
          "name": "",
          "type": "uint256"
        }
      ],
      "stateMutability": "view",
      "type": "function"
    },
    {
      "inputs": [],
      "name": "getCash",
      "outputs": [
        {
          "internalType": "uint256",
          "name": "",
          "type": "uint256"
        }
      ],
      "stateMutability": "view",
      "type": "function"
    },
    {
      "inputs": [],
      "name": "implementation",
      "outputs": [
        {
          "internalType": "address",
          "name": "",
          "type": "address"
        }
      ],
      "stateMutability": "view",
      "type": "function"
    },
    {
      "inputs": [
        {
          "internalType": "address",
          "name": "underlying_",
          "type": "address"
        },
        {
          "internalType": "contract IComptroller",
          "name": "comptroller_",
          "type": "address"
        },
        {
          "internalType": "address payable",
          "name": "fuseAdmin_",
          "type": "address"
        },
        {
          "internalType": "contract InterestRateModel",
          "name": "interestRateModel_",
          "type": "address"
        },
        {
          "internalType": "string",
          "name": "name_",
          "type": "string"
        },
        {
          "internalType": "string",
          "name": "symbol_",
          "type": "string"
        },
        {
          "internalType": "uint256",
          "name": "reserveFactorMantissa_",
          "type": "uint256"
        },
        {
          "internalType": "uint256",
          "name": "adminFeeMantissa_",
          "type": "uint256"
        }
      ],
      "name": "initialize",
      "outputs": [],
      "stateMutability": "nonpayable",
      "type": "function"
    },
    {
      "inputs": [
        {
          "internalType": "contract IComptroller",
          "name": "comptroller_",
          "type": "address"
        },
        {
          "internalType": "address payable",
          "name": "fuseAdmin_",
          "type": "address"
        },
        {
          "internalType": "contract InterestRateModel",
          "name": "interestRateModel_",
          "type": "address"
        },
        {
          "internalType": "uint256",
          "name": "initialExchangeRateMantissa_",
          "type": "uint256"
        },
        {
          "internalType": "string",
          "name": "name_",
          "type": "string"
        },
        {
          "internalType": "string",
          "name": "symbol_",
          "type": "string"
        },
        {
          "internalType": "uint8",
          "name": "decimals_",
          "type": "uint8"
        },
        {
          "internalType": "uint256",
          "name": "reserveFactorMantissa_",
          "type": "uint256"
        },
        {
          "internalType": "uint256",
          "name": "adminFeeMantissa_",
          "type": "uint256"
        }
      ],
      "name": "initialize",
      "outputs": [],
      "stateMutability": "nonpayable",
      "type": "function"
    },
    {
      "inputs": [],
      "name": "interestRateModel",
      "outputs": [
        {
          "internalType": "contract InterestRateModel",
          "name": "",
          "type": "address"
        }
      ],
      "stateMutability": "view",
      "type": "function"
    },
    {
      "inputs": [],
      "name": "isCEther",
      "outputs": [
        {
          "internalType": "bool",
          "name": "",
          "type": "bool"
        }
      ],
      "stateMutability": "view",
      "type": "function"
    },
    {
      "inputs": [
        {
          "internalType": "address",
          "name": "borrower",
          "type": "address"
        },
        {
          "internalType": "uint256",
          "name": "repayAmount",
          "type": "uint256"
        },
        {
          "internalType": "address",
          "name": "cTokenCollateral",
          "type": "address"
        }
      ],
      "name": "liquidateBorrow",
      "outputs": [
        {
          "internalType": "uint256",
          "name": "",
          "type": "uint256"
        }
      ],
      "stateMutability": "nonpayable",
      "type": "function"
    },
    {
      "inputs": [
        {
          "internalType": "uint256",
          "name": "mintAmount",
          "type": "uint256"
        }
      ],
      "name": "mint",
      "outputs": [
        {
          "internalType": "uint256",
          "name": "",
          "type": "uint256"
        }
      ],
      "stateMutability": "nonpayable",
      "type": "function"
    },
    {
      "inputs": [],
      "name": "name",
      "outputs": [
        {
          "internalType": "string",
          "name": "",
          "type": "string"
        }
      ],
      "stateMutability": "view",
      "type": "function"
    },
    {
      "inputs": [],
      "name": "plugin",
      "outputs": [
        {
          "internalType": "contract IERC4626",
          "name": "",
          "type": "address"
        }
      ],
      "stateMutability": "view",
      "type": "function"
    },
    {
      "inputs": [],
      "name": "protocolSeizeShareMantissa",
      "outputs": [
        {
          "internalType": "uint256",
          "name": "",
          "type": "uint256"
        }
      ],
      "stateMutability": "view",
      "type": "function"
    },
    {
      "inputs": [
        {
          "internalType": "uint256",
          "name": "redeemTokens",
          "type": "uint256"
        }
      ],
      "name": "redeem",
      "outputs": [
        {
          "internalType": "uint256",
          "name": "",
          "type": "uint256"
        }
      ],
      "stateMutability": "nonpayable",
      "type": "function"
    },
    {
      "inputs": [
        {
          "internalType": "uint256",
          "name": "redeemAmount",
          "type": "uint256"
        }
      ],
      "name": "redeemUnderlying",
      "outputs": [
        {
          "internalType": "uint256",
          "name": "",
          "type": "uint256"
        }
      ],
      "stateMutability": "nonpayable",
      "type": "function"
    },
    {
      "inputs": [
        {
          "internalType": "uint256",
          "name": "repayAmount",
          "type": "uint256"
        }
      ],
      "name": "repayBorrow",
      "outputs": [
        {
          "internalType": "uint256",
          "name": "",
          "type": "uint256"
        }
      ],
      "stateMutability": "nonpayable",
      "type": "function"
    },
    {
      "inputs": [
        {
          "internalType": "address",
          "name": "borrower",
          "type": "address"
        },
        {
          "internalType": "uint256",
          "name": "repayAmount",
          "type": "uint256"
        }
      ],
      "name": "repayBorrowBehalf",
      "outputs": [
        {
          "internalType": "uint256",
          "name": "",
          "type": "uint256"
        }
      ],
      "stateMutability": "nonpayable",
      "type": "function"
    },
    {
      "inputs": [],
      "name": "reserveFactorMantissa",
      "outputs": [
        {
          "internalType": "uint256",
          "name": "",
          "type": "uint256"
        }
      ],
      "stateMutability": "view",
      "type": "function"
    },
    {
      "inputs": [
        {
          "internalType": "address",
          "name": "liquidator",
          "type": "address"
        },
        {
          "internalType": "address",
          "name": "borrower",
          "type": "address"
        },
        {
          "internalType": "uint256",
          "name": "seizeTokens",
          "type": "uint256"
        }
      ],
      "name": "seize",
      "outputs": [
        {
          "internalType": "uint256",
          "name": "",
          "type": "uint256"
        }
      ],
      "stateMutability": "nonpayable",
      "type": "function"
    },
    {
      "inputs": [
        {
          "internalType": "address",
          "name": "from",
          "type": "address"
        },
        {
          "internalType": "uint256",
          "name": "amount",
          "type": "uint256"
        }
      ],
      "name": "selfTransferIn",
      "outputs": [
        {
          "internalType": "uint256",
          "name": "",
          "type": "uint256"
        }
      ],
      "stateMutability": "nonpayable",
      "type": "function"
    },
    {
      "inputs": [
        {
          "internalType": "address",
          "name": "to",
          "type": "address"
        },
        {
          "internalType": "uint256",
          "name": "amount",
          "type": "uint256"
        }
      ],
      "name": "selfTransferOut",
      "outputs": [],
      "stateMutability": "nonpayable",
      "type": "function"
    },
    {
      "inputs": [],
      "name": "symbol",
      "outputs": [
        {
          "internalType": "string",
          "name": "",
          "type": "string"
        }
      ],
      "stateMutability": "view",
      "type": "function"
    },
    {
      "inputs": [],
      "name": "totalAdminFees",
      "outputs": [
        {
          "internalType": "uint256",
          "name": "",
          "type": "uint256"
        }
      ],
      "stateMutability": "view",
      "type": "function"
    },
    {
      "inputs": [],
      "name": "totalBorrows",
      "outputs": [
        {
          "internalType": "uint256",
          "name": "",
          "type": "uint256"
        }
      ],
      "stateMutability": "view",
      "type": "function"
    },
    {
      "inputs": [],
      "name": "totalFuseFees",
      "outputs": [
        {
          "internalType": "uint256",
          "name": "",
          "type": "uint256"
        }
      ],
      "stateMutability": "view",
      "type": "function"
    },
    {
      "inputs": [],
      "name": "totalReserves",
      "outputs": [
        {
          "internalType": "uint256",
          "name": "",
          "type": "uint256"
        }
      ],
      "stateMutability": "view",
      "type": "function"
    },
    {
      "inputs": [],
      "name": "totalSupply",
      "outputs": [
        {
          "internalType": "uint256",
          "name": "",
          "type": "uint256"
        }
      ],
      "stateMutability": "view",
      "type": "function"
    },
    {
      "inputs": [],
      "name": "underlying",
      "outputs": [
        {
          "internalType": "address",
          "name": "",
          "type": "address"
        }
      ],
      "stateMutability": "view",
      "type": "function"
    }
  ],
  "transactionHash": "0xab041810c627fb345f2dacc1bdca4befde877c0f9b59a00f7f3b33a4d20e072c",
  "args": [],
  "numDeployments": 35,
  "bytecode": {
    "object": "0x608060405234801561001057600080fd5b5061592c80620000216000396000f3fe6080604052600436106102675760003560e01c80636c540baf11610144578063ac784ddc116100b6578063db006a751161007a578063db006a7514610787578063dbfe7c19146107a7578063dc028ab1146107bd578063ef01df4f146107d3578063f3fdb15a146107f3578063f5e3c4621461081357610267565b8063ac784ddc146106c9578063b2a02ff1146106ee578063be99f1191461070e578063c5ebeaec1461072a578063cb2ef6f71461074a57610267565b80638f840ddd116101085780638f840ddd1461062857806395d89b411461063e578063a03dce8d14610653578063a0712d6814610673578063a7b820df14610693578063aa5af0fd146106b357610267565b80636c540baf1461059c5780636f307dc3146105b2578063852a12e3146105d257806389cd9855146105f25780638d02d9a11461061257610267565b80632608f818116101dd57806356e67728116101a157806356e67728146104e95780635c60da1b146105095780635fe3b5671461052957806361feacff146105495780636333d0011461055f5780636752e7021461058157610267565b80632608f81814610452578063313ce567146104725780633b1d21a21461049e57806347bd3718146104b357806350d85b73146104c957610267565b806315761d511161022f57806315761d51146103a6578063173b9904146103de57806318160ddd146103f457806319f496c81461040a5780631db789441461042a578063219ef65c1461043257610267565b8063067db1b3146102eb57806306db3ecd1461030d57806306fdde031461032d5780630e75270214610358578063135f133414610386575b34801561027357600080fd5b50600061028b6000356001600160e01b031916610833565b90506001600160a01b0381166102c757604051630a82dd7360e31b81526001600160e01b03196000351660048201526024015b60405180910390fd5b3660008037600080366000845af43d6000803e8080156102e6573d6000f35b3d6000fd5b3480156102f757600080fd5b5061030b610306366004614f44565b610896565b005b34801561031957600080fd5b5061030b61032836600461504d565b6108db565b34801561033957600080fd5b506103426109e9565b60405161034f9190615167565b60405180910390f35b34801561036457600080fd5b5061037861037336600461517a565b610a77565b60405190815260200161034f565b34801561039257600080fd5b506103786103a1366004614f44565b610a8b565b3480156103b257600080fd5b506001546103c6906001600160a01b031681565b6040516001600160a01b03909116815260200161034f565b3480156103ea57600080fd5b50610378600b5481565b34801561040057600080fd5b5061037860125481565b34801561041657600080fd5b5061030b610425366004615193565b610ad7565b61030b610f08565b34801561043e57600080fd5b5061030b61044d3660046151ca565b611046565b34801561045e57600080fd5b5061037861046d366004614f44565b6114a2565b34801561047e57600080fd5b5060055461048c9060ff1681565b60405160ff909116815260200161034f565b3480156104aa57600080fd5b506103786114b8565b3480156104bf57600080fd5b50610378600e5481565b3480156104d557600080fd5b5061030b6104e43660046152a0565b6114c7565b3480156104f557600080fd5b5061030b610504366004615332565b61154b565b34801561051557600080fd5b506000546103c6906001600160a01b031681565b34801561053557600080fd5b506006546103c6906001600160a01b031681565b34801561055557600080fd5b5061037860105481565b34801561056b57600080fd5b506105746116a9565b60405161034f919061537b565b34801561058d57600080fd5b50610378666379da05b6000081565b3480156105a857600080fd5b50610378600c5481565b3480156105be57600080fd5b506016546103c6906001600160a01b031681565b3480156105de57600080fd5b506103786105ed36600461517a565b6116b3565b3480156105fe57600080fd5b5061030b61060d3660046153c8565b6116be565b34801561061e57600080fd5b5061037860095481565b34801561063457600080fd5b50610378600f5481565b34801561064a57600080fd5b50610342611792565b34801561065f57600080fd5b5061037861066e36600461517a565b61179f565b34801561067f57600080fd5b5061037861068e36600461517a565b6118a0565b34801561069f57600080fd5b506103786106ae36600461517a565b6118ac565b3480156106bf57600080fd5b50610378600d5481565b3480156106d557600080fd5b506106de600081565b604051901515815260200161034f565b3480156106fa57600080fd5b50610378610709366004615401565b6119f7565b34801561071a57600080fd5b5061037867016345785d8a000081565b34801561073657600080fd5b5061037861074536600461517a565b611a1b565b34801561075657600080fd5b50604080518082019091526014815273434572633230506c7567696e44656c656761746560601b6020820152610342565b34801561079357600080fd5b506103786107a236600461517a565b611a26565b3480156107b357600080fd5b50610378600a5481565b3480156107c957600080fd5b5061037860115481565b3480156107df57600080fd5b506017546103c6906001600160a01b031681565b3480156107ff57600080fd5b506007546103c6906001600160a01b031681565b34801561081f57600080fd5b5061037861082e366004615442565b611a31565b6001600160e01b0319811660009081526000805160206158e0833981519152602081905260408220546001600160a01b03168061088f57604051631f3f429960e31b81526001600160e01b0319851660048201526024016102be565b9392505050565b3330146108cd5760405162461bcd60e51b815260206004820152600560248201526410b9b2b63360d91b60448201526064016102be565b6108d78282611a49565b5050565b60006702c68af0bb14000090506000896001600160a01b031663313ce5676040518163ffffffff1660e01b8152600401602060405180830381865afa158015610928573d6000803e3d6000fd5b505050506040513d601f19601f8201168201806040525081019061094c9190615484565b905061095f898989858a8a878b8b611046565b601680546001600160a01b0319166001600160a01b038c16908117909155604080516318160ddd60e01b815290516318160ddd916004808201926020929091908290030181865afa1580156109b8573d6000803e3d6000fd5b505050506040513d601f19601f820116820180604052508101906109dc91906154a1565b5050505050505050505050565b600380546109f6906154ba565b80601f0160208091040260200160405190810160405280929190818152602001828054610a22906154ba565b8015610a6f5780601f10610a4457610100808354040283529160200191610a6f565b820191906000526020600020905b815481529060010190602001808311610a5257829003601f168201915b505050505081565b600080610a8383611ac6565b509392505050565b6000333014610ac45760405162461bcd60e51b815260206004820152600560248201526410b9b2b63360d91b60448201526064016102be565b610ace8383611b57565b90505b92915050565b33301480610ae85750610ae8611c0d565b610b485760405162461bcd60e51b815260206004820152602b60248201527f6f6e6c792073656c6620616e642061646d696e732063616e2063616c6c205f7560448201526a383230ba32a8363ab3b4b760a91b60648201526084016102be565b6017546000906001600160a01b0316610b615781610b6e565b6017546001600160a01b03165b600154604051637583efcf60e01b81526001600160a01b0380841660048301528581166024830152929350911690637583efcf90604401602060405180830381865afa158015610bc2573d6000803e3d6000fd5b505050506040513d601f19601f82011682018060405250810190610be691906154ef565b610c405760405162461bcd60e51b815260206004820152602560248201527f706c7567696e20696d706c656d656e746174696f6e206e6f742077686974656c6044820152641a5cdd195960da1b60648201526084016102be565b6017546001600160a01b031615801590610cc457506017546040516370a0823160e01b81523060048201526001600160a01b03909116906370a0823190602401602060405180830381865afa158015610c9d573d6000803e3d6000fd5b505050506040513d601f19601f82011682018060405250810190610cc191906154a1565b15155b15610dae576017546040516370a0823160e01b81523060048201526001600160a01b039091169063ba0876529082906370a0823190602401602060405180830381865afa158015610d19573d6000803e3d6000fd5b505050506040513d601f19601f82011682018060405250810190610d3d91906154a1565b6040516001600160e01b031960e084901b1681526004810191909152306024820181905260448201526064016020604051808303816000875af1158015610d88573d6000803e3d6000fd5b505050506040513d601f19601f82011682018060405250810190610dac91906154a1565b505b601780546001600160a01b0319166001600160a01b0384811691821790925560165460405163095ea7b360e01b8152600481019290925260001960248301529091169063095ea7b3906044016020604051808303816000875af1158015610e19573d6000803e3d6000fd5b505050506040513d601f19601f82011682018060405250810190610e3d91906154ef565b506016546040516370a0823160e01b81523060048201526000916001600160a01b0316906370a0823190602401602060405180830381865afa158015610e87573d6000803e3d6000fd5b505050506040513d601f19601f82011682018060405250810190610eab91906154a1565b90508015610ebc57610ebc81611d7e565b601754604080516001600160a01b03928316815291851660208301527fb32957d2794aaec3ea2c8852833af2192fe9fb518777de1f883e9e821781da75910160405180910390a1505050565b333014801590610f8a5750600660009054906101000a90046001600160a01b03166001600160a01b031663dd5cd22c6040518163ffffffff1660e01b8152600401602060405180830381865afa158015610f66573d6000803e3d6000fd5b505050506040513d601f19601f82011682018060405250810190610f8a91906154ef565b1561104457600154600080546040516345cc970560e01b81526001600160a01b039182166004820152919283928392909116906345cc970590602401600060405180830381865afa158015610fe3573d6000803e3d6000fd5b505050506040513d6000823e601f3d908101601f1916820160405261100b919081019061550c565b60005492955090935091506001600160a01b0380851691161461103857611033838383611df3565b611040565b611040611f91565b5050505b565b336001600160a01b038916146110875760405162461bcd60e51b815260206004820152600660248201526510b0b236b4b760d11b60448201526064016102be565b600c541580156110975750600d54155b6110d25760405162461bcd60e51b815260206004820152600c60248201526b085a5b9a5d1a585b1a5e995960a21b60448201526064016102be565b600180546001600160a01b0319166001600160a01b038a161790556008869055856111315760405162461bcd60e51b815260206004820152600f60248201526e02165786368616e6765526174653e3608c1b60448201526064016102be565b600680546001600160a01b0319166001600160a01b038b81169190911790915543600c55670de0b6b3a7640000600d55604080516310c8fc9560e11b8152905191891691632191f92a916004808201926020929091908290030181865afa1580156111a0573d6000803e3d6000fd5b505050506040513d601f19601f820116820180604052508101906111c491906154ef565b6111fa5760405162461bcd60e51b8152602060048201526007602482015266216e6f7449726d60c81b60448201526064016102be565b600780546001600160a01b0319166001600160a01b038916908117909155604080516000815260208101929092527fedffc32e068c7c95dfd4bdfd5c4d939a084d6b11c4199eac8436ed234d72f926910160405180910390a18451611266906003906020880190614e96565b50835161127a906004906020870190614e96565b506005805460ff191660ff8516179055600a54600954670de0b6b3a764000091906112a590856155c2565b6112af91906155c2565b11156112e75760405162461bcd60e51b8152602060048201526007602482015266085c998e9cd95d60ca1b60448201526064016102be565b600b8290556040805160008152602081018490527faaa68312e2ea9d50e16af5068410ab56e1a1fd06037b1a35664812c30f821460910160405180910390a160001981141561133557506009545b6001546040805163dd86fea160e01b815290516000926001600160a01b03169163dd86fea19160048083019260209291908290030181865afa15801561137f573d6000803e3d6000fd5b505050506040513d601f19601f820116820180604052508101906113a391906154a1565b9050670de0b6b3a76400008183600b546113bd91906155c2565b6113c791906155c2565b11156114055760405162461bcd60e51b815260206004820152600d60248201526c0858591b5a5b9199594e9cd95d609a1b60448201526064016102be565b60098290556040805160008152602081018490527fcdd0b588250e1398549f79cfdb8217c186688822905d6715b0834ea1c865594a910160405180910390a1600a8190556040805160008152602081018390527f92eef861b6533b7d3417f39c2ad7b460eed4e88a32fa3604f30e718b7602e7dc910160405180910390a150506002805460ff60b01b1916600160b01b1790555050505050505050565b6000806114af8484612102565b50949350505050565b60006114c2612195565b905090565b6114cf611c0d565b6115045760405162461bcd60e51b815260206004820152600660248201526510b0b236b4b760d11b60448201526064016102be565b611545848484848080601f016020809104026020016040519081016040528093929190818152602001838380828437600092019190915250611df392505050565b50505050565b3330148061155c575061155c611c0d565b6115c45760405162461bcd60e51b815260206004820152603360248201527f6f6e6c792073656c6620616e642061646d696e732063616e2063616c6c205f6260448201527232b1b7b6b2a4b6b83632b6b2b73a30ba34b7b760691b60648201526084016102be565b6000818060200190518101906115da91906155da565b90506001600160a01b0381161580156115fd57506017546001600160a01b031615155b15611675576001546017546040516381218ea960e01b81526001600160a01b0391821660048201529116906381218ea990602401602060405180830381865afa15801561164e573d6000803e3d6000fd5b505050506040513d601f19601f8201168201806040525081019061167291906155da565b90505b6001600160a01b0381161580159061169b57506017546001600160a01b03828116911614155b156108d7576108d781610ad7565b60606114c2612269565b6000610ad1826122db565b6006546001546001600160a01b0391821691163314801561173c5750806001600160a01b0316632f1069ba6040518163ffffffff1660e01b8152600401602060405180830381865afa158015611718573d6000803e3d6000fd5b505050506040513d601f19601f8201168201806040525081019061173c91906154ef565b6117885760405162461bcd60e51b815260206004820152601f60248201527f21756e617574686f72697a6564202d206e6f2061646d696e207269676874730060448201526064016102be565b6110408383612358565b600480546109f6906154ba565b6000806117ab81612379565b306001600160a01b031663a6afed956040518163ffffffff1660e01b81526004016020604051808303816000875af11580156117eb573d6000803e3d6000fd5b505050506040513d601f19601f8201168201806040525081019061180f91906154a1565b5043600c541461182c57611825600a603561243d565b9150611891565b82611835612195565b101561184757611825600e603461243d565b60115483111561185d576118256002603661243d565b60008360115461186d91906155f7565b601181905560015490915061188b906001600160a01b031685611a49565b60009250505b61189a816124b6565b50919050565b600080610a838361253a565b6000806118b881612379565b306001600160a01b031663a6afed956040518163ffffffff1660e01b81526004016020604051808303816000875af11580156118f8573d6000803e3d6000fd5b505050506040513d601f19601f8201168201806040525081019061191c91906154a1565b5043600c541461193257611825600a603961243d565b8261193b612195565b101561194d57611825600e603861243d565b601054831115611963576118256002603a61243d565b8260105461197191906155f7565b601055600654604080516303e1469160e61b815290516119e9926001600160a01b03169163f851a4409160048083019260209291908290030181865afa1580156119bf573d6000803e3d6000fd5b505050506040513d601f19601f820116820180604052508101906119e391906155da565b84611a49565b60005b915061189a816124b6565b60006001611a0481612379565b611a10338686866125b7565b9150610a83816124b6565b6000610ad182612a9b565b6000610ad182612b16565b600080611a3f858585612b93565b5095945050505050565b601754604051632d182be560e21b8152600481018390526001600160a01b0384811660248301523060448301529091169063b460af94906064016020604051808303816000875af1158015611aa2573d6000803e3d6000fd5b505050506040513d601f19601f8201168201806040525081019061104091906154a1565b6000806000611ad481612379565b306001600160a01b031663a6afed956040518163ffffffff1660e01b81526004016020604051808303816000875af1158015611b14573d6000803e3d6000fd5b505050506040513d601f19601f82011682018060405250810190611b3891906154a1565b50611b44333386612c8d565b92509250611b51816124b6565b50915091565b6016546040516323b872dd60e01b81526000916001600160a01b0316906323b872dd90611b8c90869030908790600401615624565b6020604051808303816000875af1158015611bab573d6000803e3d6000fd5b505050506040513d601f19601f82011682018060405250810190611bcf91906154ef565b611c045760405162461bcd60e51b81526004016102be906020808252600490820152631cd95b9960e21b604082015260600190565b61189a82611d7e565b600654604080516303e1469160e61b815290516000926001600160a01b031691829163f851a440916004808201926020929091908290030181865afa158015611c5a573d6000803e3d6000fd5b505050506040513d601f19601f82011682018060405250810190611c7e91906155da565b6001600160a01b0316336001600160a01b0316148015611cfb5750806001600160a01b0316630a755ec26040518163ffffffff1660e01b8152600401602060405180830381865afa158015611cd7573d6000803e3d6000fd5b505050506040513d601f19601f82011682018060405250810190611cfb91906154ef565b80611d7857506001546001600160a01b031633148015611d785750806001600160a01b0316632f1069ba6040518163ffffffff1660e01b8152600401602060405180830381865afa158015611d54573d6000803e3d6000fd5b505050506040513d601f19601f82011682018060405250810190611d7891906154ef565b91505090565b601754604051636e553f6560e01b8152600481018390523060248201526001600160a01b0390911690636e553f65906044016020604051808303816000875af1158015611dcf573d6000803e3d6000fd5b505050506040513d601f19601f820116820180604052508101906108d791906154a1565b6001546000546040516338e6a07360e11b81526001600160a01b039182166004820152858216602482015284151560448201529116906371cd40e690606401602060405180830381865afa158015611e4f573d6000803e3d6000fd5b505050506040513d601f19601f82011682018060405250810190611e7391906154ef565b611ea75760405162461bcd60e51b8152602060048201526005602482015264085a5b5c1b60da1b60448201526064016102be565b600080546001600160a01b038581166001600160a01b031983161790925516611ece611f91565b303b611ee257611edd8261154b565b611f44565b611f423083604051602401611ef79190615167565b60408051601f19818403018152918152602080830180516001600160e01b0316630adccee560e31b17905281518083019092526007825266216265636f6d6560c81b90820152613096565b505b600054604080516001600160a01b03808516825290921660208301527fd604de94d45953f9138079ec1b82d533cb2160c906d1076d1f7ed54befbca97a910160405180910390a150505050565b600154600080546040516311a0e21760e01b81526001600160a01b039182166004820152919216906311a0e21790602401600060405180830381865afa158015611fdf573d6000803e3d6000fd5b505050506040513d6000823e601f3d908101601f19168201604052612007919081019061566c565b90506000612013612269565b905081516001148015612027575080516001145b801561207857508060008151811061204157612041615706565b60200260200101516001600160a01b03168260008151811061206557612065615706565b60200260200101516001600160a01b0316145b15612081575050565b60005b81518110156120c1576120af8282815181106120a2576120a2615706565b6020026020010151613132565b806120b98161571c565b915050612084565b5060005b8251811015611040576120f08382815181106120e3576120e3615706565b6020026020010151613262565b806120fa8161571c565b9150506120c5565b600080600061211081612379565b306001600160a01b031663a6afed956040518163ffffffff1660e01b81526004016020604051808303816000875af1158015612150573d6000803e3d6000fd5b505050506040513d601f19601f8201168201806040525081019061217491906154a1565b50612180338686612c8d565b9250925061218d816124b6565b509250929050565b6017546040516370a0823160e01b81523060048201526000916001600160a01b031690634cdad5069082906370a0823190602401602060405180830381865afa1580156121e6573d6000803e3d6000fd5b505050506040513d601f19601f8201168201806040525081019061220a91906154a1565b6040518263ffffffff1660e01b815260040161222891815260200190565b602060405180830381865afa158015612245573d6000803e3d6000fd5b505050506040513d601f19601f820116820180604052508101906114c291906154a1565b60606000805160206158e08339815191526002018054806020026020016040519081016040528092919081815260200182805480156122d157602002820191906000526020600020905b81546001600160a01b031681526001909101906020018083116122b3575b5050505050905090565b6000806122e781612379565b306001600160a01b031663a6afed956040518163ffffffff1660e01b81526004016020604051808303816000875af1158015612327573d6000803e3d6000fd5b505050506040513d601f19601f8201168201806040525081019061234b91906154a1565b506119ec3360008561335a565b6001600160a01b038116156123705761237081613132565b6108d782613262565b600254600160b01b900460ff166123bf5760405162461bcd60e51b815260206004820152600a6024820152691c994b595b9d195c995960b21b60448201526064016102be565b8061242d57600660009054906101000a90046001600160a01b03166001600160a01b031663c90c20b16040518163ffffffff1660e01b8152600401600060405180830381600087803b15801561241457600080fd5b505af1158015612428573d6000803e3d6000fd5b505050505b506002805460ff60b01b19169055565b60007f45b96fe442630264581b197e84bbada861235052c5a1aadfff9ea4e40a969aa08360118111156124725761247261560e565b8360618111156124845761248461560e565b60408051928352602083019190915260009082015260600160405180910390a1826011811115610ace57610ace61560e565b6002805460ff60b01b1916600160b01b1790558061253757600660009054906101000a90046001600160a01b03166001600160a01b031663632e51426040518163ffffffff1660e01b8152600401600060405180830381600087803b15801561251e57600080fd5b505af1158015612532573d6000803e3d6000fd5b505050505b50565b600080600061254881612379565b306001600160a01b031663a6afed956040518163ffffffff1660e01b81526004016020604051808303816000875af1158015612588573d6000803e3d6000fd5b505050506040513d601f19601f820116820180604052508101906125ac91906154a1565b50611b443385613992565b60065460405163d02f735160e01b81523060048201526001600160a01b0386811660248301528581166044830152848116606483015260848201849052600092839291169063d02f73519060a4016020604051808303816000875af1158015612624573d6000803e3d6000fd5b505050506040513d601f19601f8201168201806040525081019061264891906154a1565b905080156126655761265d6003601d83613d0c565b915050612a93565b846001600160a01b0316846001600160a01b0316141561268b5761265d6006601e61243d565b6126f0604080516101808101909152806000815260200160008152602001600081526020016000815260200160008152602001600081526020016000815260200160008152602001600081526020016000815260200160008152602001600081525090565b6001600160a01b0385166000908152601360205260409020546127139085613dae565b602083018190528282600381111561272d5761272d61560e565b600381111561273e5761273e61560e565b90525060009050815160038111156127585761275861560e565b146127885761277f6009601c8360000151600381111561277a5761277a61560e565b613d0c565b92505050612a93565b6127a7846040518060200160405280666379da05b60000815250613dd9565b6080820152604080516020810190915267016345785d8a000081526127cd908590613dd9565b610140820181905260808201516127e490866155f7565b6127ee91906155f7565b6060820152306001600160a01b031663bd6d894d6040518163ffffffff1660e01b8152600401602060405180830381865afa158015612831573d6000803e3d6000fd5b505050506040513d601f19601f8201168201806040525081019061285591906154a1565b60c08201908152604080516020810190915290518152608082015161287a9190613dfc565b60a0820152604080516020810190915260c082015181526101408201516128a19190613dfc565b61016082015260a0810151600f546128b991906155c2565b60e082015261014081015160808201516012546128d691906155f7565b6128e091906155f7565b6101208201526101608101516011546128f991906155c2565b6101008201526001600160a01b03861660009081526013602052604090205460608201516129279190613e14565b60408301819052828260038111156129415761294161560e565b60038111156129525761295261560e565b905250600090508151600381111561296c5761296c61560e565b1461298e5761277f6009601b8360000151600381111561277a5761277a61560e565b60e0810151600f556101208101516012556101008101516011556020808201516001600160a01b0387811660008181526013855260408082209490945583860151928b1680825290849020929092556060850151925192835290929091600080516020615900833981519152910160405180910390a3306001600160a01b0316856001600160a01b03166000805160206159008339815191528360800151604051612a3b91815260200190565b60405180910390a360a081015160e08201516040805130815260208101939093528201527fa91e67c5ea634cd43a12c5a482724b03de01e85ca68702a53d0c2f45cb7c1dc59060600160405180910390a16000925050505b949350505050565b600080612aa781612379565b306001600160a01b031663a6afed956040518163ffffffff1660e01b81526004016020604051808303816000875af1158015612ae7573d6000803e3d6000fd5b505050506040513d601f19601f82011682018060405250810190612b0b91906154a1565b506119ec3384613e3a565b600080612b2281612379565b306001600160a01b031663a6afed956040518163ffffffff1660e01b81526004016020604051808303816000875af1158015612b62573d6000803e3d6000fd5b505050506040513d601f19601f82011682018060405250810190612b8691906154a1565b506119ec3384600061335a565b6000806000612ba181612379565b306001600160a01b031663a6afed956040518163ffffffff1660e01b81526004016020604051808303816000875af1158015612be1573d6000803e3d6000fd5b505050506040513d601f19601f82011682018060405250810190612c0591906154a1565b50836001600160a01b031663a6afed956040518163ffffffff1660e01b81526004016020604051808303816000875af1158015612c46573d6000803e3d6000fd5b505050506040513d601f19601f82011682018060405250810190612c6a91906154a1565b50612c77338787876141cd565b92509250612c84816124b6565b50935093915050565b600654604051631200453160e11b81523060048201526001600160a01b03858116602483015284811660448301526064820184905260009283928392909116906324008a62906084016020604051808303816000875af1158015612cf5573d6000803e3d6000fd5b505050506040513d601f19601f82011682018060405250810190612d1991906154a1565b90508015612d3a57612d2e6003604383613d0c565b6000925092505061308e565b43600c5414612d4f57612d2e600a604461243d565b612d986040805161010081019091528060008152602001600081526020016000815260200160008152602001600081526020016000815260200160008152602001600081525090565b6001600160a01b0386166000908152601560205260409020600101546060820152306040516305eff7ef60e21b81526001600160a01b03888116600483015291909116906317bfdfbc90602401602060405180830381865afa158015612e02573d6000803e3d6000fd5b505050506040513d601f19601f82011682018060405250810190612e2691906154a1565b6080820152600019851415612e445760808101516040820152612e4c565b604081018590525b612e5a878260400151611b57565b60e082018190526080820151612e6f91613dae565b60a0830181905260208301826003811115612e8c57612e8c61560e565b6003811115612e9d57612e9d61560e565b9052506000905081602001516003811115612eba57612eba61560e565b14612f2d5760405162461bcd60e51b815260206004820152603a60248201527f52455041595f424f52524f575f4e45575f4143434f554e545f424f52524f575f60448201527f42414c414e43455f43414c43554c4154494f4e5f4641494c454400000000000060648201526084016102be565b612f3d600e548260e00151613dae565b60c0830181905260208301826003811115612f5a57612f5a61560e565b6003811115612f6b57612f6b61560e565b9052506000905081602001516003811115612f8857612f8861560e565b14612fef5760405162461bcd60e51b815260206004820152603160248201527f52455041595f424f52524f575f4e45575f544f54414c5f42414c414e43455f43604482015270105310d55310551253d397d19052531151607a1b60648201526084016102be565b60a081810180516001600160a01b03898116600081815260156020908152604091829020948555600d5460019095019490945560c0870151600e81905560e088015195518251948f16855294840192909252820193909352606081019190915260808101919091527f1a2a22cb034d26d1854bdc6666a5b91fe25efbbb5dcad3b0355478d6f5c362a1910160405180910390a160e00151600093509150505b935093915050565b6060600080856001600160a01b0316856040516130b39190615737565b6000604051808303816000865af19150503d80600081146130f0576040519150601f19603f3d011682016040523d82523d6000602084013e6130f5565b606091505b5091509150816131295780511561310f5780518082602001fd5b8360405162461bcd60e51b81526004016102be9190615167565b95945050505050565b6000805160206158e083398151915261314a82614680565b60005b600282015460ff8216101561104057826001600160a01b0316826002018260ff168154811061317e5761317e615706565b6000918252602090912001546001600160a01b03161415613250576002820180546131ab906001906155f7565b815481106131bb576131bb615706565b6000918252602090912001546002830180546001600160a01b039092169160ff84169081106131ec576131ec615706565b9060005260206000200160006101000a8154816001600160a01b0302191690836001600160a01b031602179055508160020180548061322d5761322d615753565b600082815260209020810160001990810180546001600160a01b03191690550190555b8061325a81615769565b91505061314d565b6000805160206158e083398151915260005b600282015460ff8216101561331a57826001600160a01b0316826002018260ff16815481106132a5576132a5615706565b6000918252602090912001546001600160a01b031614156133085760405162461bcd60e51b815260206004820152601760248201527f657874656e73696f6e20616c726561647920616464656400000000000000000060448201526064016102be565b8061331281615769565b915050613274565b506133248261490d565b6002018054600181018255600091825260209091200180546001600160a01b0319166001600160a01b0392909216919091179055565b6000821580613367575081155b6133b35760405162461bcd60e51b815260206004820152601860248201527f2172656465656d20746f6b656e73206f7220616d6f756e74000000000000000060448201526064016102be565b6133f46040805160e0810190915280600081526020016000815260200160008152602001600081526020016000815260200160008152602001600081525090565b306001600160a01b031663bd6d894d6040518163ffffffff1660e01b8152600401602060405180830381865afa158015613432573d6000803e3d6000fd5b505050506040513d601f19601f8201168201806040525081019061345691906154a1565b60408201528315613519576113888460125461347291906155f7565b101561347e5760125493505b606081018490526040805160208101825290820151815261349f9085614af7565b60808301819052602083018260038111156134bc576134bc61560e565b60038111156134cd576134cd61560e565b90525060009050816020015160038111156134ea576134ea61560e565b146135145761350c6009602c8360200151600381111561277a5761277a61560e565b91505061088f565b61365b565b6000198314156135a157600654604051630cbb414760e11b81526001600160a01b0387811660048301523060248301526000604483015290911690631976828e90606401602060405180830381865afa15801561357a573d6000803e3d6000fd5b505050506040513d601f19601f8201168201806040525081019061359e91906154a1565b92505b6000306001600160a01b0316634aeb3d9a6040518163ffffffff1660e01b8152600401602060405180830381865afa1580156135e1573d6000803e3d6000fd5b505050506040513d601f19601f8201168201806040525081019061360591906154a1565b90506103e861361485836155f7565b101561361e578093505b61362c848360400151614b49565b606083018190526012546103e891613643916155f7565b10156136525760125460608301525b50608081018390525b600654606082015160405163eabe7d9160e01b81526000926001600160a01b03169163eabe7d91916136949130918b9190600401615624565b6020604051808303816000875af11580156136b3573d6000803e3d6000fd5b505050506040513d601f19601f820116820180604052508101906136d791906154a1565b905080156136f5576136ec6003602b83613d0c565b9250505061088f565b43600c541461370a576136ec600a602f61243d565b61371a6012548360600151613dae565b60a08401819052602084018260038111156137375761373761560e565b60038111156137485761374861560e565b90525060009050826020015160038111156137655761376561560e565b14613787576136ec600960318460200151600381111561277a5761277a61560e565b6001600160a01b03861660009081526013602052604090205460608301516137af9190613dae565b60c08401819052602084018260038111156137cc576137cc61560e565b60038111156137dd576137dd61560e565b90525060009050826020015160038111156137fa576137fa61560e565b1461381c576136ec600960308460200151600381111561277a5761277a61560e565b8160800151613829612195565b101561383b576136ec600e603261243d565b60a082015160125560c08201516001600160a01b0387166000908152601360205260409020556080820151613871908790611a49565b306001600160a01b0316866001600160a01b031660008051602061590083398151915284606001516040516138a891815260200190565b60405180910390a36080820151606080840151604080516001600160a01b038b16815260208101949094528301527fe5b754fb1abb7f01b499791d0b820ae3b6af3424ac1c59768edb53f4ec31a929910160405180910390a1600654608083015160608401516040516351dff98960e01b81523060048201526001600160a01b038a81166024830152604482019390935260648101919091529116906351dff98990608401600060405180830381600087803b15801561396757600080fd5b505af115801561397b573d6000803e3d6000fd5b5060009250613988915050565b9695505050505050565b600654604051634ef4c3e160e01b8152600091829182916001600160a01b031690634ef4c3e1906139cb90309089908990600401615624565b6020604051808303816000875af11580156139ea573d6000803e3d6000fd5b505050506040513d601f19601f82011682018060405250810190613a0e91906154a1565b90508015613a2f57613a236003602183613d0c565b60009250925050613d05565b43600c5414613a4457613a23600a602461243d565b613a856040805160e0810190915280600081526020016000815260200160008152602001600081526020016000815260200160008152602001600081525090565b306001600160a01b031663bd6d894d6040518163ffffffff1660e01b8152600401602060405180830381865afa158015613ac3573d6000803e3d6000fd5b505050506040513d601f19601f82011682018060405250810190613ae791906154a1565b6040820152613af68686611b57565b60c0820181905260408051602081018252908301518152613b179190614b84565b6060830181905260208301826003811115613b3457613b3461560e565b6003811115613b4557613b4561560e565b9052506000905081602001516003811115613b6257613b6261560e565b14613baf5760405162461bcd60e51b815260206004820181905260248201527f4d494e545f45584348414e47455f43414c43554c4154494f4e5f4641494c454460448201526064016102be565b6000816060015111613c035760405162461bcd60e51b815260206004820152601a60248201527f4d494e545f5a45524f5f43544f4b454e535f52454a454354454400000000000060448201526064016102be565b8060600151601254613c1591906155c2565b608082015260608101516001600160a01b038716600090815260136020526040902054613c4291906155c2565b60a0820181905260808201516012556001600160a01b0387166000818152601360209081526040918290209390935560c0840151606080860151835194855294840191909152908201929092527f4c209b5fc8ad50758f13e2e1088ba56a560dff690a1c6fef26394f4c03821c4f910160405180910390a1856001600160a01b0316306001600160a01b03166000805160206159008339815191528360600151604051613cf191815260200190565b60405180910390a360c00151600093509150505b9250929050565b60007f45b96fe442630264581b197e84bbada861235052c5a1aadfff9ea4e40a969aa0846011811115613d4157613d4161560e565b846061811115613d5357613d5361560e565b604080519283526020830191909152810184905260600160405180910390a16003846011811115613d8657613d8661560e565b14613da257836011811115613d9d57613d9d61560e565b612a93565b612a93826103e86155c2565b600080838311613dcd576000613dc484866155f7565b91509150613d05565b50600390506000613d05565b6000670de0b6b3a7640000613df2848460000151614b94565b610ace919061579f565b600080613e098484614bd6565b9050612a9381614c07565b600080838301848110613e2c57600092509050613d05565b600260009250925050613d05565b60065460405163368f515360e21b815260009182916001600160a01b039091169063da3d454c90613e7390309088908890600401615624565b6020604051808303816000875af1158015613e92573d6000803e3d6000fd5b505050506040513d601f19601f82011682018060405250810190613eb691906154a1565b90508015613ed357613ecb6003601083613d0c565b915050610ad1565b43600c5414613ee857613ecb600a600c61243d565b6000613ef2612195565b905083811015613f1157613f08600e600b61243d565b92505050610ad1565b613f3d604080516080810190915280600081526020016000815260200160008152602001600081525090565b306040516305eff7ef60e21b81526001600160a01b03888116600483015291909116906317bfdfbc90602401602060405180830381865afa158015613f86573d6000803e3d6000fd5b505050506040513d601f19601f82011682018060405250810190613faa91906154a1565b60208201819052613fbb9086613e14565b6040830181905282826003811115613fd557613fd561560e565b6003811115613fe657613fe661560e565b90525060009050815160038111156140005761400061560e565b1461402c576140226009600e8360000151600381111561277a5761277a61560e565b9350505050610ad1565b6006546040828101519051631de6c8a560e21b815230600482015260248101919091526001600160a01b039091169063779b229490604401602060405180830381865afa158015614081573d6000803e3d6000fd5b505050506040513d601f19601f820116820180604052508101906140a591906154a1565b925082156140ba576140226003601085613d0c565b6140c6600e5486613e14565b60608301819052828260038111156140e0576140e061560e565b60038111156140f1576140f161560e565b905250600090508151600381111561410b5761410b61560e565b1461412d576140226009600d8360000151600381111561277a5761277a61560e565b6040808201516001600160a01b0388166000908152601560205291909120908155600d546001909101556060810151600e556141698686611a49565b60408082015160608084015183516001600160a01b038b168152602081018a9052938401929092528201527f13ed6866d4e1ee6da46f845c46d7e54120883d75c5ea9a2dacc1c4ca8984ab809060800160405180910390a160009695505050505050565b600654604051632fe3f38f60e11b81523060048201526001600160a01b03838116602483015286811660448301528581166064830152608482018590526000928392839290911690635fc7e71e9060a4016020604051808303816000875af115801561423d573d6000803e3d6000fd5b505050506040513d601f19601f8201168201806040525081019061426191906154a1565b90508015614282576142766003601483613d0c565b60009250925050614677565b43600c541461429757614276600a601861243d565b43846001600160a01b0316636c540baf6040518163ffffffff1660e01b8152600401602060405180830381865afa1580156142d6573d6000803e3d6000fd5b505050506040513d601f19601f820116820180604052508101906142fa91906154a1565b1461430b57614276600a601361243d565b866001600160a01b0316866001600160a01b03161415614331576142766006601961243d565b84614342576142766007601761243d565b600019851415614358576142766007601661243d565b600080614366898989612c8d565b9092509050811561439b5761438d8260118111156143865761438661560e565b601a61243d565b600094509450505050614677565b60065460405163c488847b60e01b815260009182916001600160a01b039091169063c488847b906143d49030908c908890600401615624565b6040805180830381865afa1580156143f0573d6000803e3d6000fd5b505050506040513d601f19601f8201168201806040525081019061441491906157b3565b909250905081156144835760405162461bcd60e51b815260206004820152603360248201527f4c49515549444154455f434f4d5054524f4c4c45525f43414c43554c4154455f604482015272105353d5539517d4d152569157d19052531151606a1b60648201526084016102be565b6040516370a0823160e01b81526001600160a01b038b811660048301528291908a16906370a0823190602401602060405180830381865afa1580156144cc573d6000803e3d6000fd5b505050506040513d601f19601f820116820180604052508101906144f091906154a1565b101561453e5760405162461bcd60e51b815260206004820152601860248201527f4c49515549444154455f5345495a455f544f4f5f4d554348000000000000000060448201526064016102be565b60006001600160a01b0389163014156145645761455d308d8d856125b7565b90506145da565b60405163b2a02ff160e01b81526001600160a01b038a169063b2a02ff190614594908f908f908790600401615624565b6020604051808303816000875af11580156145b3573d6000803e3d6000fd5b505050506040513d601f19601f820116820180604052508101906145d791906154a1565b90505b80156146115760405162461bcd60e51b8152602060048201526006602482015265217365697a6560d01b60448201526064016102be565b604080516001600160a01b038e811682528d811660208301528183018790528b1660608201526080810184905290517f298637f684da70674f26509b10f07ec2fbc77a335ab1e7d6215a4b2484d8bb529181900360a00190a16000975092955050505050505b94509492505050565b6000816001600160a01b03166389f8132e6040518163ffffffff1660e01b8152600401600060405180830381865afa1580156146c0573d6000803e3d6000fd5b505050506040513d6000823e601f3d908101601f191682016040526146e891908101906157d7565b90506000805160206158e083398151915260005b82518161ffff161015611545576000838261ffff168151811061472157614721615706565b6020908102919091018101516001600160e01b031981166000908152918590526040909120549091506001600160a01b0386811691161461476457614764615874565b6001600160e01b0319811660009081526020849052604090205460018085018054600160a01b90930461ffff1692909161479d916155f7565b815481106147ad576147ad615706565b90600052602060002090600891828204019190066004029054906101000a900460e01b846001018261ffff16815481106147e9576147e9615706565b90600052602060002090600891828204019190066004026101000a81548163ffffffff021916908360e01c021790555080846000016000866001018461ffff168154811061483957614839615706565b6000918252602080832060088304015460079092166004026101000a90910460e01b6001600160e01b03191683528201929092526040019020805461ffff60a01b1916600160a01b61ffff9390931692909202919091179055600184018054806148a5576148a5615753565b60008281526020808220600860001990940193840401805463ffffffff600460078716026101000a0219169055919092556001600160e01b0319909316815291849052506040902080546001600160b01b0319169055806149058161588a565b9150506146fc565b6000816001600160a01b03166389f8132e6040518163ffffffff1660e01b8152600401600060405180830381865afa15801561494d573d6000803e3d6000fd5b505050506040513d6000823e601f3d908101601f1916820160405261497591908101906157d7565b7fc8fcad8db84d3cc18b4c41d551ea0ee66dd599cde068d998e57d5e09332c131d549091506000805160206158e08339815191529060005b83518110156125325760008482815181106149ca576149ca615706565b6020908102919091018101516001600160e01b031981166000908152918690526040909120549091506001600160a01b03168015614a3657604051632c18df3360e01b81526001600160e01b0319831660048201526001600160a01b03821660248201526044016102be565b6040805180820182526001600160a01b03808a16825261ffff80881660208085019182526001600160e01b0319881660009081528b8252958620945185549251909316600160a01b026001600160b01b0319909216929093169190911717909155600180880180549182018155835291206008820401805460e085901c60046007909416939093026101000a92830263ffffffff909302191691909117905583614adf8161588a565b94505050508080614aef9061571c565b9150506149ad565b600080600080614b078686614c1f565b90925090506000826003811115614b2057614b2061560e565b14614b315750915060009050613d05565b6000614b3c82614c07565b9350935050509250929050565b600081614b5e84670de0b6b3a76400006158ac565b614b68919061579f565b9050614b7482846158cb565b15610ad157610ace6001826155c2565b600080600080614b078686614c9b565b6000610ace83836040518060400160405280601781526020017f6d756c7469706c69636174696f6e206f766572666c6f77000000000000000000815250614d0e565b6040805160208101909152600081526040518060200160405280614bfe856000015185614b94565b90529392505050565b8051600090610ad190670de0b6b3a76400009061579f565b6000614c376040518060200160405280600081525090565b600080614c48866000015186614d61565b90925090506000826003811115614c6157614c6161560e565b14614c8057506040805160208101909152600081529092509050613d05565b60408051602081019091529081526000969095509350505050565b6000614cb36040518060200160405280600081525090565b600080614cc8670de0b6b3a764000087614d61565b90925090506000826003811115614ce157614ce161560e565b14614d0057506040805160208101909152600081529092509050613d05565b614b3c818660000151614da0565b6000831580614d1b575082155b15614d285750600061088f565b6000614d3484866158ac565b905083614d41868361579f565b1483906114af5760405162461bcd60e51b81526004016102be9190615167565b60008083614d7457506000905080613d05565b83830283614d82868361579f565b14614d9557600260009250925050613d05565b600092509050613d05565b6000614db86040518060200160405280600081525090565b600080614dcd86670de0b6b3a7640000614d61565b90925090506000826003811115614de657614de661560e565b14614e0557506040805160208101909152600081529092509050613d05565b600080614e128388614e6b565b90925090506000826003811115614e2b57614e2b61560e565b14614e4e5781604051806020016040528060008152509550955050505050613d05565b604080516020810190915290815260009890975095505050505050565b60008082614e7f5750600190506000613d05565b6000614e8b848661579f565b915091509250929050565b828054614ea2906154ba565b90600052602060002090601f016020900481019282614ec45760008555614f0a565b82601f10614edd57805160ff1916838001178555614f0a565b82800160010185558215614f0a579182015b82811115614f0a578251825591602001919060010190614eef565b50614f16929150614f1a565b5090565b5b80821115614f165760008155600101614f1b565b6001600160a01b038116811461253757600080fd5b60008060408385031215614f5757600080fd5b8235614f6281614f2f565b946020939093013593505050565b8035614f7b81614f2f565b919050565b634e487b7160e01b600052604160045260246000fd5b604051601f8201601f1916810167ffffffffffffffff81118282101715614fbf57614fbf614f80565b604052919050565b600067ffffffffffffffff821115614fe157614fe1614f80565b50601f01601f191660200190565b6000615002614ffd84614fc7565b614f96565b905082815283838301111561501657600080fd5b828260208301376000602084830101529392505050565b600082601f83011261503e57600080fd5b610ace83833560208501614fef565b600080600080600080600080610100898b03121561506a57600080fd5b883561507581614f2f565b9750602089013561508581614f2f565b9650604089013561509581614f2f565b955060608901356150a581614f2f565b9450608089013567ffffffffffffffff808211156150c257600080fd5b6150ce8c838d0161502d565b955060a08b01359150808211156150e457600080fd5b506150f18b828c0161502d565b93505060c0890135915060e089013590509295985092959890939650565b60005b8381101561512a578181015183820152602001615112565b838111156115455750506000910152565b6000815180845261515381602086016020860161510f565b601f01601f19169290920160200192915050565b602081526000610ace602083018461513b565b60006020828403121561518c57600080fd5b5035919050565b6000602082840312156151a557600080fd5b813561088f81614f2f565b60ff8116811461253757600080fd5b8035614f7b816151b0565b60008060008060008060008060006101208a8c0312156151e957600080fd5b89356151f481614f2f565b985060208a013561520481614f2f565b975061521260408b01614f70565b965060608a0135955060808a013567ffffffffffffffff8082111561523657600080fd5b6152428d838e0161502d565b965060a08c013591508082111561525857600080fd5b506152658c828d0161502d565b94505061527460c08b016151bf565b925060e08a013591506101008a013590509295985092959850929598565b801515811461253757600080fd5b600080600080606085870312156152b657600080fd5b84356152c181614f2f565b935060208501356152d181615292565b9250604085013567ffffffffffffffff808211156152ee57600080fd5b818701915087601f83011261530257600080fd5b81358181111561531157600080fd5b88602082850101111561532357600080fd5b95989497505060200194505050565b60006020828403121561534457600080fd5b813567ffffffffffffffff81111561535b57600080fd5b8201601f8101841361536c57600080fd5b612a9384823560208401614fef565b6020808252825182820181905260009190848201906040850190845b818110156153bc5783516001600160a01b031683529284019291840191600101615397565b50909695505050505050565b600080604083850312156153db57600080fd5b82356153e681614f2f565b915060208301356153f681614f2f565b809150509250929050565b60008060006060848603121561541657600080fd5b833561542181614f2f565b9250602084013561543181614f2f565b929592945050506040919091013590565b60008060006060848603121561545757600080fd5b833561546281614f2f565b925060208401359150604084013561547981614f2f565b809150509250925092565b60006020828403121561549657600080fd5b815161088f816151b0565b6000602082840312156154b357600080fd5b5051919050565b600181811c908216806154ce57607f821691505b6020821081141561189a57634e487b7160e01b600052602260045260246000fd5b60006020828403121561550157600080fd5b815161088f81615292565b60008060006060848603121561552157600080fd5b835161552c81614f2f565b602085015190935061553d81615292565b604085015190925067ffffffffffffffff81111561555a57600080fd5b8401601f8101861361556b57600080fd5b8051615579614ffd82614fc7565b81815287602083850101111561558e57600080fd5b61559f82602083016020860161510f565b8093505050509250925092565b634e487b7160e01b600052601160045260246000fd5b600082198211156155d5576155d56155ac565b500190565b6000602082840312156155ec57600080fd5b815161088f81614f2f565b600082821015615609576156096155ac565b500390565b634e487b7160e01b600052602160045260246000fd5b6001600160a01b039384168152919092166020820152604081019190915260600190565b600067ffffffffffffffff82111561566257615662614f80565b5060051b60200190565b6000602080838503121561567f57600080fd5b825167ffffffffffffffff81111561569657600080fd5b8301601f810185136156a757600080fd5b80516156b5614ffd82615648565b81815260059190911b820183019083810190878311156156d457600080fd5b928401925b828410156156fb5783516156ec81614f2f565b825292840192908401906156d9565b979650505050505050565b634e487b7160e01b600052603260045260246000fd5b6000600019821415615730576157306155ac565b5060010190565b6000825161574981846020870161510f565b9190910192915050565b634e487b7160e01b600052603160045260246000fd5b600060ff821660ff811415615780576157806155ac565b60010192915050565b634e487b7160e01b600052601260045260246000fd5b6000826157ae576157ae615789565b500490565b600080604083850312156157c657600080fd5b505080516020909101519092909150565b600060208083850312156157ea57600080fd5b825167ffffffffffffffff81111561580157600080fd5b8301601f8101851361581257600080fd5b8051615820614ffd82615648565b81815260059190911b8201830190838101908783111561583f57600080fd5b928401925b828410156156fb5783516001600160e01b0319811681146158655760008081fd5b82529284019290840190615844565b634e487b7160e01b600052600160045260246000fd5b600061ffff808316818114156158a2576158a26155ac565b6001019392505050565b60008160001904831182151516156158c6576158c66155ac565b500290565b6000826158da576158da615789565b50069056fec8fcad8db84d3cc18b4c41d551ea0ee66dd599cde068d998e57d5e09332c131cddf252ad1be2c89b69c2b068fc378daa952ba7f163c4a11628f55a4df523b3efa164736f6c634300080a000a",
    "linkReferences": {}
  },
  "methodIdentifiers": {
    "_becomeImplementation(bytes)": "56e67728",
    "_listExtensions()": "6333d001",
    "_prepare()": "1db78944",
    "_registerExtension(address,address)": "89cd9855",
    "_setImplementationSafe(address,bool,bytes)": "50d85b73",
    "_updatePlugin(address)": "19f496c8",
    "_withdrawAdminFees(uint256)": "a7b820df",
    "_withdrawFuseFees(uint256)": "a03dce8d",
    "accrualBlockNumber()": "6c540baf",
    "adminFeeMantissa()": "8d02d9a1",
    "borrow(uint256)": "c5ebeaec",
    "borrowIndex()": "aa5af0fd",
    "comptroller()": "5fe3b567",
    "contractType()": "cb2ef6f7",
    "decimals()": "313ce567",
    "feeSeizeShareMantissa()": "be99f119",
    "fuseAdmin()": "15761d51",
    "fuseFeeMantissa()": "dbfe7c19",
    "getCash()": "3b1d21a2",
    "implementation()": "5c60da1b",
    "initialize(address,address,address,address,string,string,uint256,uint256)": "06db3ecd",
    "initialize(address,address,address,uint256,string,string,uint8,uint256,uint256)": "219ef65c",
    "interestRateModel()": "f3fdb15a",
    "isCEther()": "ac784ddc",
    "liquidateBorrow(address,uint256,address)": "f5e3c462",
    "mint(uint256)": "a0712d68",
    "name()": "06fdde03",
    "plugin()": "ef01df4f",
    "protocolSeizeShareMantissa()": "6752e702",
    "redeem(uint256)": "db006a75",
    "redeemUnderlying(uint256)": "852a12e3",
    "repayBorrow(uint256)": "0e752702",
    "repayBorrowBehalf(address,uint256)": "2608f818",
    "reserveFactorMantissa()": "173b9904",
    "seize(address,address,uint256)": "b2a02ff1",
    "selfTransferIn(address,uint256)": "135f1334",
    "selfTransferOut(address,uint256)": "067db1b3",
    "symbol()": "95d89b41",
    "totalAdminFees()": "61feacff",
    "totalBorrows()": "47bd3718",
    "totalFuseFees()": "dc028ab1",
    "totalReserves()": "8f840ddd",
    "totalSupply()": "18160ddd",
    "underlying()": "6f307dc3"
  }
}