{
  "address": "0x48eDd9d6998D5F5C5D3d93Cf9355611d17A74Ea0",
  "abi": [
    {
      "anonymous": false,
      "inputs": [
        {
          "indexed": false,
          "internalType": "uint256",
          "name": "cashPrior",
          "type": "uint256"
        },
        {
          "indexed": false,
          "internalType": "uint256",
          "name": "interestAccumulated",
          "type": "uint256"
        },
        {
          "indexed": false,
          "internalType": "uint256",
          "name": "borrowIndex",
          "type": "uint256"
        },
        {
          "indexed": false,
          "internalType": "uint256",
          "name": "totalBorrows",
          "type": "uint256"
        }
      ],
      "name": "AccrueInterest",
      "type": "event"
    },
    {
      "anonymous": false,
      "inputs": [
        {
          "indexed": true,
          "internalType": "address",
          "name": "owner",
          "type": "address"
        },
        {
          "indexed": true,
          "internalType": "address",
          "name": "spender",
          "type": "address"
        },
        {
          "indexed": false,
          "internalType": "uint256",
          "name": "amount",
          "type": "uint256"
        }
      ],
      "name": "Approval",
      "type": "event"
    },
    {
      "anonymous": false,
      "inputs": [
        {
          "indexed": false,
          "internalType": "address",
          "name": "borrower",
          "type": "address"
        },
        {
          "indexed": false,
          "internalType": "uint256",
          "name": "borrowAmount",
          "type": "uint256"
        },
        {
          "indexed": false,
          "internalType": "uint256",
          "name": "accountBorrows",
          "type": "uint256"
        },
        {
          "indexed": false,
          "internalType": "uint256",
          "name": "totalBorrows",
          "type": "uint256"
        }
      ],
      "name": "Borrow",
      "type": "event"
    },
    {
      "anonymous": false,
      "inputs": [
        {
          "indexed": false,
          "internalType": "uint256",
          "name": "error",
          "type": "uint256"
        },
        {
          "indexed": false,
          "internalType": "uint256",
          "name": "info",
          "type": "uint256"
        },
        {
          "indexed": false,
          "internalType": "uint256",
          "name": "detail",
          "type": "uint256"
        }
      ],
      "name": "Failure",
      "type": "event"
    },
    {
      "anonymous": false,
      "inputs": [
        {
          "indexed": false,
          "internalType": "address",
          "name": "liquidator",
          "type": "address"
        },
        {
          "indexed": false,
          "internalType": "address",
          "name": "borrower",
          "type": "address"
        },
        {
          "indexed": false,
          "internalType": "uint256",
          "name": "repayAmount",
          "type": "uint256"
        },
        {
          "indexed": false,
          "internalType": "address",
          "name": "cTokenCollateral",
          "type": "address"
        },
        {
          "indexed": false,
          "internalType": "uint256",
          "name": "seizeTokens",
          "type": "uint256"
        }
      ],
      "name": "LiquidateBorrow",
      "type": "event"
    },
    {
      "anonymous": false,
      "inputs": [
        {
          "indexed": false,
          "internalType": "address",
          "name": "minter",
          "type": "address"
        },
        {
          "indexed": false,
          "internalType": "uint256",
          "name": "mintAmount",
          "type": "uint256"
        },
        {
          "indexed": false,
          "internalType": "uint256",
          "name": "mintTokens",
          "type": "uint256"
        }
      ],
      "name": "Mint",
      "type": "event"
    },
    {
      "anonymous": false,
      "inputs": [
        {
          "indexed": false,
          "internalType": "uint256",
          "name": "oldAdminFeeMantissa",
          "type": "uint256"
        },
        {
          "indexed": false,
          "internalType": "uint256",
          "name": "newAdminFeeMantissa",
          "type": "uint256"
        }
      ],
      "name": "NewAdminFee",
      "type": "event"
    },
    {
      "anonymous": false,
      "inputs": [
        {
          "indexed": false,
          "internalType": "contract ComptrollerInterface",
          "name": "oldComptroller",
          "type": "address"
        },
        {
          "indexed": false,
          "internalType": "contract ComptrollerInterface",
          "name": "newComptroller",
          "type": "address"
        }
      ],
      "name": "NewComptroller",
      "type": "event"
    },
    {
      "anonymous": false,
      "inputs": [
        {
          "indexed": false,
          "internalType": "uint256",
          "name": "oldFuseFeeMantissa",
          "type": "uint256"
        },
        {
          "indexed": false,
          "internalType": "uint256",
          "name": "newFuseFeeMantissa",
          "type": "uint256"
        }
      ],
      "name": "NewFuseFee",
      "type": "event"
    },
    {
      "anonymous": false,
      "inputs": [
        {
          "indexed": false,
          "internalType": "address",
          "name": "oldImplementation",
          "type": "address"
        },
        {
          "indexed": false,
          "internalType": "address",
          "name": "newImplementation",
          "type": "address"
        }
      ],
      "name": "NewImplementation",
      "type": "event"
    },
    {
      "anonymous": false,
      "inputs": [
        {
          "indexed": false,
          "internalType": "contract InterestRateModel",
          "name": "oldInterestRateModel",
          "type": "address"
        },
        {
          "indexed": false,
          "internalType": "contract InterestRateModel",
          "name": "newInterestRateModel",
          "type": "address"
        }
      ],
      "name": "NewMarketInterestRateModel",
      "type": "event"
    },
    {
      "anonymous": false,
      "inputs": [
        {
          "indexed": false,
          "internalType": "uint256",
          "name": "oldReserveFactorMantissa",
          "type": "uint256"
        },
        {
          "indexed": false,
          "internalType": "uint256",
          "name": "newReserveFactorMantissa",
          "type": "uint256"
        }
      ],
      "name": "NewReserveFactor",
      "type": "event"
    },
    {
      "anonymous": false,
      "inputs": [
        {
          "indexed": false,
          "internalType": "address",
          "name": "redeemer",
          "type": "address"
        },
        {
          "indexed": false,
          "internalType": "uint256",
          "name": "redeemAmount",
          "type": "uint256"
        },
        {
          "indexed": false,
          "internalType": "uint256",
          "name": "redeemTokens",
          "type": "uint256"
        }
      ],
      "name": "Redeem",
      "type": "event"
    },
    {
      "anonymous": false,
      "inputs": [
        {
          "indexed": false,
          "internalType": "address",
          "name": "payer",
          "type": "address"
        },
        {
          "indexed": false,
          "internalType": "address",
          "name": "borrower",
          "type": "address"
        },
        {
          "indexed": false,
          "internalType": "uint256",
          "name": "repayAmount",
          "type": "uint256"
        },
        {
          "indexed": false,
          "internalType": "uint256",
          "name": "accountBorrows",
          "type": "uint256"
        },
        {
          "indexed": false,
          "internalType": "uint256",
          "name": "totalBorrows",
          "type": "uint256"
        }
      ],
      "name": "RepayBorrow",
      "type": "event"
    },
    {
      "anonymous": false,
      "inputs": [
        {
          "indexed": false,
          "internalType": "address",
          "name": "benefactor",
          "type": "address"
        },
        {
          "indexed": false,
          "internalType": "uint256",
          "name": "addAmount",
          "type": "uint256"
        },
        {
          "indexed": false,
          "internalType": "uint256",
          "name": "newTotalReserves",
          "type": "uint256"
        }
      ],
      "name": "ReservesAdded",
      "type": "event"
    },
    {
      "anonymous": false,
      "inputs": [
        {
          "indexed": false,
          "internalType": "address",
          "name": "admin",
          "type": "address"
        },
        {
          "indexed": false,
          "internalType": "uint256",
          "name": "reduceAmount",
          "type": "uint256"
        },
        {
          "indexed": false,
          "internalType": "uint256",
          "name": "newTotalReserves",
          "type": "uint256"
        }
      ],
      "name": "ReservesReduced",
      "type": "event"
    },
    {
      "anonymous": false,
      "inputs": [
        {
          "indexed": true,
          "internalType": "address",
          "name": "from",
          "type": "address"
        },
        {
          "indexed": true,
          "internalType": "address",
          "name": "to",
          "type": "address"
        },
        {
          "indexed": false,
          "internalType": "uint256",
          "name": "amount",
          "type": "uint256"
        }
      ],
      "name": "Transfer",
      "type": "event"
    },
    {
      "inputs": [],
      "name": "PRECISION",
      "outputs": [
        {
          "internalType": "uint256",
          "name": "",
          "type": "uint256"
        }
      ],
      "stateMutability": "view",
      "type": "function"
    },
    {
      "inputs": [
        {
          "internalType": "bytes",
          "name": "data",
          "type": "bytes"
        }
      ],
      "name": "_becomeImplementation",
      "outputs": [],
      "stateMutability": "nonpayable",
      "type": "function"
    },
    {
      "inputs": [
        {
          "internalType": "address",
          "name": "compLikeDelegatee",
          "type": "address"
        }
      ],
      "name": "_delegateCompLikeTo",
      "outputs": [],
      "stateMutability": "nonpayable",
      "type": "function"
    },
    {
      "inputs": [],
      "name": "_prepare",
      "outputs": [],
      "stateMutability": "payable",
      "type": "function"
    },
    {
      "inputs": [
        {
          "internalType": "uint256",
          "name": "reduceAmount",
          "type": "uint256"
        }
      ],
      "name": "_reduceReserves",
      "outputs": [
        {
          "internalType": "uint256",
          "name": "",
          "type": "uint256"
        }
      ],
      "stateMutability": "nonpayable",
      "type": "function"
    },
    {
      "inputs": [
        {
          "internalType": "uint256",
          "name": "newAdminFeeMantissa",
          "type": "uint256"
        }
      ],
      "name": "_setAdminFee",
      "outputs": [
        {
          "internalType": "uint256",
          "name": "",
          "type": "uint256"
        }
      ],
      "stateMutability": "nonpayable",
      "type": "function"
    },
    {
      "inputs": [
        {
          "internalType": "address",
          "name": "implementation_",
          "type": "address"
        },
        {
          "internalType": "bool",
          "name": "allowResign",
          "type": "bool"
        },
        {
          "internalType": "bytes",
          "name": "becomeImplementationData",
          "type": "bytes"
        }
      ],
      "name": "_setImplementationSafe",
      "outputs": [],
      "stateMutability": "nonpayable",
      "type": "function"
    },
    {
      "inputs": [
        {
          "internalType": "contract InterestRateModel",
          "name": "newInterestRateModel",
          "type": "address"
        }
      ],
      "name": "_setInterestRateModel",
      "outputs": [
        {
          "internalType": "uint256",
          "name": "",
          "type": "uint256"
        }
      ],
      "stateMutability": "nonpayable",
      "type": "function"
    },
    {
      "inputs": [
        {
          "internalType": "string",
          "name": "_name",
          "type": "string"
        },
        {
          "internalType": "string",
          "name": "_symbol",
          "type": "string"
        }
      ],
      "name": "_setNameAndSymbol",
      "outputs": [],
      "stateMutability": "nonpayable",
      "type": "function"
    },
    {
      "inputs": [
        {
          "internalType": "uint256",
          "name": "newReserveFactorMantissa",
          "type": "uint256"
        }
      ],
      "name": "_setReserveFactor",
      "outputs": [
        {
          "internalType": "uint256",
          "name": "",
          "type": "uint256"
        }
      ],
      "stateMutability": "nonpayable",
      "type": "function"
    },
    {
      "inputs": [
        {
          "internalType": "uint256",
          "name": "withdrawAmount",
          "type": "uint256"
        }
      ],
      "name": "_withdrawAdminFees",
      "outputs": [
        {
          "internalType": "uint256",
          "name": "",
          "type": "uint256"
        }
      ],
      "stateMutability": "nonpayable",
      "type": "function"
    },
    {
      "inputs": [
        {
          "internalType": "uint256",
          "name": "withdrawAmount",
          "type": "uint256"
        }
      ],
      "name": "_withdrawFuseFees",
      "outputs": [
        {
          "internalType": "uint256",
          "name": "",
          "type": "uint256"
        }
      ],
      "stateMutability": "nonpayable",
      "type": "function"
    },
    {
      "inputs": [],
      "name": "accrualBlockNumber",
      "outputs": [
        {
          "internalType": "uint256",
          "name": "",
          "type": "uint256"
        }
      ],
      "stateMutability": "view",
      "type": "function"
    },
    {
      "inputs": [],
      "name": "accrueInterest",
      "outputs": [
        {
          "internalType": "uint256",
          "name": "",
          "type": "uint256"
        }
      ],
      "stateMutability": "nonpayable",
      "type": "function"
    },
    {
      "inputs": [],
      "name": "adminFeeMantissa",
      "outputs": [
        {
          "internalType": "uint256",
          "name": "",
          "type": "uint256"
        }
      ],
      "stateMutability": "view",
      "type": "function"
    },
    {
      "inputs": [
        {
          "internalType": "address",
          "name": "owner",
          "type": "address"
        },
        {
          "internalType": "address",
          "name": "spender",
          "type": "address"
        }
      ],
      "name": "allowance",
      "outputs": [
        {
          "internalType": "uint256",
          "name": "",
          "type": "uint256"
        }
      ],
      "stateMutability": "view",
      "type": "function"
    },
    {
      "inputs": [
        {
          "internalType": "address",
          "name": "spender",
          "type": "address"
        },
        {
          "internalType": "uint256",
          "name": "amount",
          "type": "uint256"
        }
      ],
      "name": "approve",
      "outputs": [
        {
          "internalType": "bool",
          "name": "",
          "type": "bool"
        }
      ],
      "stateMutability": "nonpayable",
      "type": "function"
    },
    {
      "inputs": [
        {
          "internalType": "address",
          "name": "_token",
          "type": "address"
        },
        {
          "internalType": "address",
          "name": "_spender",
          "type": "address"
        }
      ],
      "name": "approve",
      "outputs": [],
      "stateMutability": "nonpayable",
      "type": "function"
    },
    {
      "inputs": [
        {
          "internalType": "address",
          "name": "owner",
          "type": "address"
        }
      ],
      "name": "balanceOf",
      "outputs": [
        {
          "internalType": "uint256",
          "name": "",
          "type": "uint256"
        }
      ],
      "stateMutability": "view",
      "type": "function"
    },
    {
      "inputs": [
        {
          "internalType": "address",
          "name": "owner",
          "type": "address"
        }
      ],
      "name": "balanceOfUnderlying",
      "outputs": [
        {
          "internalType": "uint256",
          "name": "",
          "type": "uint256"
        }
      ],
      "stateMutability": "nonpayable",
      "type": "function"
    },
    {
      "inputs": [
        {
          "internalType": "uint256",
          "name": "borrowAmount",
          "type": "uint256"
        }
      ],
      "name": "borrow",
      "outputs": [
        {
          "internalType": "uint256",
          "name": "",
          "type": "uint256"
        }
      ],
      "stateMutability": "nonpayable",
      "type": "function"
    },
    {
      "inputs": [
        {
          "internalType": "address",
          "name": "account",
          "type": "address"
        }
      ],
      "name": "borrowBalanceCurrent",
      "outputs": [
        {
          "internalType": "uint256",
          "name": "",
          "type": "uint256"
        }
      ],
      "stateMutability": "nonpayable",
      "type": "function"
    },
    {
      "inputs": [
        {
          "internalType": "address",
          "name": "account",
          "type": "address"
        }
      ],
      "name": "borrowBalanceStored",
      "outputs": [
        {
          "internalType": "uint256",
          "name": "",
          "type": "uint256"
        }
      ],
      "stateMutability": "view",
      "type": "function"
    },
    {
      "inputs": [],
      "name": "borrowIndex",
      "outputs": [
        {
          "internalType": "uint256",
          "name": "",
          "type": "uint256"
        }
      ],
      "stateMutability": "view",
      "type": "function"
    },
    {
      "inputs": [],
      "name": "borrowRatePerBlock",
      "outputs": [
        {
          "internalType": "uint256",
          "name": "",
          "type": "uint256"
        }
      ],
      "stateMutability": "view",
      "type": "function"
    },
    {
      "inputs": [],
      "name": "claim",
      "outputs": [],
      "stateMutability": "nonpayable",
      "type": "function"
    },
    {
      "inputs": [],
      "name": "comptroller",
      "outputs": [
        {
          "internalType": "contract ComptrollerInterface",
          "name": "",
          "type": "address"
        }
      ],
      "stateMutability": "view",
      "type": "function"
    },
    {
      "inputs": [],
      "name": "decimals",
      "outputs": [
        {
          "internalType": "uint8",
          "name": "",
          "type": "uint8"
        }
      ],
      "stateMutability": "view",
      "type": "function"
    },
    {
      "inputs": [],
      "name": "exchangeRateCurrent",
      "outputs": [
        {
          "internalType": "uint256",
          "name": "",
          "type": "uint256"
        }
      ],
      "stateMutability": "nonpayable",
      "type": "function"
    },
    {
      "inputs": [],
      "name": "exchangeRateStored",
      "outputs": [
        {
          "internalType": "uint256",
          "name": "",
          "type": "uint256"
        }
      ],
      "stateMutability": "view",
      "type": "function"
    },
    {
      "inputs": [],
      "name": "feeSeizeShareMantissa",
      "outputs": [
        {
          "internalType": "uint256",
          "name": "",
          "type": "uint256"
        }
      ],
      "stateMutability": "view",
      "type": "function"
    },
    {
      "inputs": [],
      "name": "fuseAdmin",
      "outputs": [
        {
          "internalType": "address payable",
          "name": "",
          "type": "address"
        }
      ],
      "stateMutability": "view",
      "type": "function"
    },
    {
      "inputs": [],
      "name": "fuseFeeMantissa",
      "outputs": [
        {
          "internalType": "uint256",
          "name": "",
          "type": "uint256"
        }
      ],
      "stateMutability": "view",
      "type": "function"
    },
    {
      "inputs": [
        {
          "internalType": "address",
          "name": "account",
          "type": "address"
        }
      ],
      "name": "getAccountSnapshot",
      "outputs": [
        {
          "internalType": "uint256",
          "name": "",
          "type": "uint256"
        },
        {
          "internalType": "uint256",
          "name": "",
          "type": "uint256"
        },
        {
          "internalType": "uint256",
          "name": "",
          "type": "uint256"
        },
        {
          "internalType": "uint256",
          "name": "",
          "type": "uint256"
        }
      ],
      "stateMutability": "view",
      "type": "function"
    },
    {
      "inputs": [],
      "name": "getCash",
      "outputs": [
        {
          "internalType": "uint256",
          "name": "",
          "type": "uint256"
        }
      ],
      "stateMutability": "view",
      "type": "function"
    },
    {
      "inputs": [],
      "name": "implementation",
      "outputs": [
        {
          "internalType": "address",
          "name": "",
          "type": "address"
        }
      ],
      "stateMutability": "view",
      "type": "function"
    },
    {
      "inputs": [
        {
          "internalType": "address",
          "name": "underlying_",
          "type": "address"
        },
        {
          "internalType": "contract ComptrollerInterface",
          "name": "comptroller_",
          "type": "address"
        },
        {
          "internalType": "address payable",
          "name": "fuseAdmin_",
          "type": "address"
        },
        {
          "internalType": "contract InterestRateModel",
          "name": "interestRateModel_",
          "type": "address"
        },
        {
          "internalType": "string",
          "name": "name_",
          "type": "string"
        },
        {
          "internalType": "string",
          "name": "symbol_",
          "type": "string"
        },
        {
          "internalType": "uint256",
          "name": "reserveFactorMantissa_",
          "type": "uint256"
        },
        {
          "internalType": "uint256",
          "name": "adminFeeMantissa_",
          "type": "uint256"
        }
      ],
      "name": "initialize",
      "outputs": [],
      "stateMutability": "nonpayable",
      "type": "function"
    },
    {
      "inputs": [
        {
          "internalType": "contract ComptrollerInterface",
          "name": "comptroller_",
          "type": "address"
        },
        {
          "internalType": "address payable",
          "name": "fuseAdmin_",
          "type": "address"
        },
        {
          "internalType": "contract InterestRateModel",
          "name": "interestRateModel_",
          "type": "address"
        },
        {
          "internalType": "uint256",
          "name": "initialExchangeRateMantissa_",
          "type": "uint256"
        },
        {
          "internalType": "string",
          "name": "name_",
          "type": "string"
        },
        {
          "internalType": "string",
          "name": "symbol_",
          "type": "string"
        },
        {
          "internalType": "uint8",
          "name": "decimals_",
          "type": "uint8"
        },
        {
          "internalType": "uint256",
          "name": "reserveFactorMantissa_",
          "type": "uint256"
        },
        {
          "internalType": "uint256",
          "name": "adminFeeMantissa_",
          "type": "uint256"
        }
      ],
      "name": "initialize",
      "outputs": [],
      "stateMutability": "nonpayable",
      "type": "function"
    },
    {
      "inputs": [],
      "name": "interestRateModel",
      "outputs": [
        {
          "internalType": "contract InterestRateModel",
          "name": "",
          "type": "address"
        }
      ],
      "stateMutability": "view",
      "type": "function"
    },
    {
      "inputs": [],
      "name": "isCEther",
      "outputs": [
        {
          "internalType": "bool",
          "name": "",
          "type": "bool"
        }
      ],
      "stateMutability": "nonpayable",
      "type": "function"
    },
    {
      "inputs": [],
      "name": "isCToken",
      "outputs": [
        {
          "internalType": "bool",
          "name": "",
          "type": "bool"
        }
      ],
      "stateMutability": "nonpayable",
      "type": "function"
    },
    {
      "inputs": [
        {
          "internalType": "address",
          "name": "borrower",
          "type": "address"
        },
        {
          "internalType": "uint256",
          "name": "repayAmount",
          "type": "uint256"
        },
        {
          "internalType": "contract CTokenInterface",
          "name": "cTokenCollateral",
          "type": "address"
        }
      ],
      "name": "liquidateBorrow",
      "outputs": [
        {
          "internalType": "uint256",
          "name": "",
          "type": "uint256"
        }
      ],
      "stateMutability": "nonpayable",
      "type": "function"
    },
    {
      "inputs": [
        {
          "internalType": "uint256",
          "name": "mintAmount",
          "type": "uint256"
        }
      ],
      "name": "mint",
      "outputs": [
        {
          "internalType": "uint256",
          "name": "",
          "type": "uint256"
        }
      ],
      "stateMutability": "nonpayable",
      "type": "function"
    },
    {
      "inputs": [],
      "name": "name",
      "outputs": [
        {
          "internalType": "string",
          "name": "",
          "type": "string"
        }
      ],
      "stateMutability": "view",
      "type": "function"
    },
    {
      "inputs": [],
      "name": "plugin",
      "outputs": [
        {
          "internalType": "contract IERC4626",
          "name": "",
          "type": "address"
        }
      ],
      "stateMutability": "view",
      "type": "function"
    },
    {
      "inputs": [],
      "name": "protocolSeizeShareMantissa",
      "outputs": [
        {
          "internalType": "uint256",
          "name": "",
          "type": "uint256"
        }
      ],
      "stateMutability": "view",
      "type": "function"
    },
    {
      "inputs": [
        {
          "internalType": "uint256",
          "name": "redeemTokens",
          "type": "uint256"
        }
      ],
      "name": "redeem",
      "outputs": [
        {
          "internalType": "uint256",
          "name": "",
          "type": "uint256"
        }
      ],
      "stateMutability": "nonpayable",
      "type": "function"
    },
    {
      "inputs": [
        {
          "internalType": "uint256",
          "name": "redeemAmount",
          "type": "uint256"
        }
      ],
      "name": "redeemUnderlying",
      "outputs": [
        {
          "internalType": "uint256",
          "name": "",
          "type": "uint256"
        }
      ],
      "stateMutability": "nonpayable",
      "type": "function"
    },
    {
      "inputs": [
        {
          "internalType": "uint256",
          "name": "repayAmount",
          "type": "uint256"
        }
      ],
      "name": "repayBorrow",
      "outputs": [
        {
          "internalType": "uint256",
          "name": "",
          "type": "uint256"
        }
      ],
      "stateMutability": "nonpayable",
      "type": "function"
    },
    {
      "inputs": [
        {
          "internalType": "address",
          "name": "borrower",
          "type": "address"
        },
        {
          "internalType": "uint256",
          "name": "repayAmount",
          "type": "uint256"
        }
      ],
      "name": "repayBorrowBehalf",
      "outputs": [
        {
          "internalType": "uint256",
          "name": "",
          "type": "uint256"
        }
      ],
      "stateMutability": "nonpayable",
      "type": "function"
    },
    {
      "inputs": [],
      "name": "reserveFactorMantissa",
      "outputs": [
        {
          "internalType": "uint256",
          "name": "",
          "type": "uint256"
        }
      ],
      "stateMutability": "view",
      "type": "function"
    },
    {
      "inputs": [
        {
          "internalType": "address",
          "name": "liquidator",
          "type": "address"
        },
        {
          "internalType": "address",
          "name": "borrower",
          "type": "address"
        },
        {
          "internalType": "uint256",
          "name": "seizeTokens",
          "type": "uint256"
        }
      ],
      "name": "seize",
      "outputs": [
        {
          "internalType": "uint256",
          "name": "",
          "type": "uint256"
        }
      ],
      "stateMutability": "nonpayable",
      "type": "function"
    },
    {
      "inputs": [],
      "name": "supplyRatePerBlock",
      "outputs": [
        {
          "internalType": "uint256",
          "name": "",
          "type": "uint256"
        }
      ],
      "stateMutability": "view",
      "type": "function"
    },
    {
      "inputs": [],
      "name": "symbol",
      "outputs": [
        {
          "internalType": "string",
          "name": "",
          "type": "string"
        }
      ],
      "stateMutability": "view",
      "type": "function"
    },
    {
      "inputs": [],
      "name": "totalAdminFees",
      "outputs": [
        {
          "internalType": "uint256",
          "name": "",
          "type": "uint256"
        }
      ],
      "stateMutability": "view",
      "type": "function"
    },
    {
      "inputs": [],
      "name": "totalBorrows",
      "outputs": [
        {
          "internalType": "uint256",
          "name": "",
          "type": "uint256"
        }
      ],
      "stateMutability": "view",
      "type": "function"
    },
    {
      "inputs": [],
      "name": "totalBorrowsCurrent",
      "outputs": [
        {
          "internalType": "uint256",
          "name": "",
          "type": "uint256"
        }
      ],
      "stateMutability": "nonpayable",
      "type": "function"
    },
    {
      "inputs": [],
      "name": "totalFuseFees",
      "outputs": [
        {
          "internalType": "uint256",
          "name": "",
          "type": "uint256"
        }
      ],
      "stateMutability": "view",
      "type": "function"
    },
    {
      "inputs": [],
      "name": "totalReserves",
      "outputs": [
        {
          "internalType": "uint256",
          "name": "",
          "type": "uint256"
        }
      ],
      "stateMutability": "view",
      "type": "function"
    },
    {
      "inputs": [],
      "name": "totalSupply",
      "outputs": [
        {
          "internalType": "uint256",
          "name": "",
          "type": "uint256"
        }
      ],
      "stateMutability": "view",
      "type": "function"
    },
    {
      "inputs": [
        {
          "internalType": "address",
          "name": "dst",
          "type": "address"
        },
        {
          "internalType": "uint256",
          "name": "amount",
          "type": "uint256"
        }
      ],
      "name": "transfer",
      "outputs": [
        {
          "internalType": "bool",
          "name": "",
          "type": "bool"
        }
      ],
      "stateMutability": "nonpayable",
      "type": "function"
    },
    {
      "inputs": [
        {
          "internalType": "address",
          "name": "src",
          "type": "address"
        },
        {
          "internalType": "address",
          "name": "dst",
          "type": "address"
        },
        {
          "internalType": "uint256",
          "name": "amount",
          "type": "uint256"
        }
      ],
      "name": "transferFrom",
      "outputs": [
        {
          "internalType": "bool",
          "name": "",
          "type": "bool"
        }
      ],
      "stateMutability": "nonpayable",
      "type": "function"
    },
    {
      "inputs": [],
      "name": "underlying",
      "outputs": [
        {
          "internalType": "address",
          "name": "",
          "type": "address"
        }
      ],
      "stateMutability": "view",
      "type": "function"
    }
  ],
  "transactionHash": "0xef9ab2b82187f6401ee04362978a4eff8ef4cbdffa99907cf5fd20a33f344fc6",
  "args": [],
  "numDeployments": 6,
  "bytecode": {
    "object": "0x608060405234801561001057600080fd5b50615e9280620000216000396000f3fe6080604052600436106102c85760003560e01c806306db3ecd146102cd57806306fdde03146102ef578063095ea7b31461031a5780630e7527021461034a57806315761d5114610378578063173b9904146103a557806317bfdfbc146103bb57806318160ddd146103db578063182df0f5146103f15780631db7894414610406578063219ef65c1461040e57806323b872dd1461042e5780632608f8181461044e578063313ce5671461046e57806334154d4c1461049a5780633af9e669146104ba5780633b1d21a2146104da57806347bd3718146104ef5780634e71d92d1461050557806350d85b731461051457806356e67728146105345780635c60da1b146105545780635fe3b56714610574578063601a0bf11461059457806361feacff146105b45780636752e702146105ca5780636c540baf146105e55780636f307dc3146105fb57806370a082311461061b57806373acee98146106515780637e5465ba146106665780637f1e06be14610686578063852a12e3146106a65780638d02d9a1146106c65780638f840ddd146106dc57806391dd36c6146106f257806395d89b411461071257806395dd919314610727578063a03dce8d14610747578063a0712d6814610767578063a6afed9514610787578063a7b820df1461079c578063a9059cbb146107bc578063aa5af0fd146107dc578063aaf5eb68146107f2578063ac784ddc1461080e578063ae9d70b014610822578063b2a02ff114610837578063bd6d894d14610857578063be99f1191461086c578063c37f68e214610888578063c5ebeaec146108b8578063db006a75146108d8578063dbfe7c19146108f8578063dc028ab11461090e578063dd62ed3e14610924578063ef01df4f1461096a578063f2b3abbd1461098a578063f3fdb15a146109aa578063f5e3c462146109ca578063f8f9da28146109ea578063fca7820b146109ff578063fe9c44ae14610a1f575b600080fd5b3480156102d957600080fd5b506102ed6102e83660046155bf565b610a33565b005b3480156102fb57600080fd5b50610304610b41565b60405161031191906156d8565b60405180910390f35b34801561032657600080fd5b5061033a6103353660046156eb565b610bcf565b6040519015158152602001610311565b34801561035657600080fd5b5061036a610365366004615717565b610c3f565b604051908152602001610311565b34801561038457600080fd5b50600154610398906001600160a01b031681565b6040516103119190615730565b3480156103b157600080fd5b5061036a600b5481565b3480156103c757600080fd5b5061036a6103d6366004615744565b610c53565b3480156103e757600080fd5b5061036a60125481565b3480156103fd57600080fd5b5061036a610caa565b6102ed610d3b565b34801561041a57600080fd5b506102ed61042936600461577b565b610e71565b34801561043a57600080fd5b5061033a610449366004615842565b611198565b34801561045a57600080fd5b5061036a6104693660046156eb565b6111be565b34801561047a57600080fd5b506005546104889060ff1681565b60405160ff9091168152602001610311565b3480156104a657600080fd5b506102ed6104b53660046158c4565b6111d4565b3480156104c657600080fd5b5061036a6104d5366004615744565b61123b565b3480156104e657600080fd5b5061036a6112eb565b3480156104fb57600080fd5b5061036a600e5481565b34801561051157600080fd5b50005b34801561052057600080fd5b506102ed61052f36600461593d565b6112fa565b34801561054057600080fd5b506102ed61054f366004615995565b611365565b34801561056057600080fd5b50600054610398906001600160a01b031681565b34801561058057600080fd5b50600654610398906001600160a01b031681565b3480156105a057600080fd5b5061036a6105af366004615717565b611647565b3480156105c057600080fd5b5061036a60105481565b3480156105d657600080fd5b5061036a666379da05b6000081565b3480156105f157600080fd5b5061036a600c5481565b34801561060757600080fd5b50601654610398906001600160a01b031681565b34801561062757600080fd5b5061036a610636366004615744565b6001600160a01b031660009081526013602052604090205490565b34801561065d57600080fd5b5061036a61169e565b34801561067257600080fd5b506102ed6106813660046159d6565b6116e3565b34801561069257600080fd5b506102ed6106a1366004615744565b6117d6565b3480156106b257600080fd5b5061036a6106c1366004615717565b61189e565b3480156106d257600080fd5b5061036a60095481565b3480156106e857600080fd5b5061036a600f5481565b3480156106fe57600080fd5b5061036a61070d366004615717565b6118a9565b34801561071e57600080fd5b506103046118ec565b34801561073357600080fd5b5061036a610742366004615744565b6118f9565b34801561075357600080fd5b5061036a610762366004615717565b611994565b34801561077357600080fd5b5061036a610782366004615717565b6119d7565b34801561079357600080fd5b5061036a6119e3565b3480156107a857600080fd5b5061036a6107b7366004615717565b611b8b565b3480156107c857600080fd5b5061033a6107d73660046156eb565b611bce565b3480156107e857600080fd5b5061036a600d5481565b3480156107fe57600080fd5b5061036a670de0b6b3a764000081565b34801561081a57600080fd5b50600061033a565b34801561082e57600080fd5b5061036a611bfb565b34801561084357600080fd5b5061036a610852366004615842565b611cab565b34801561086357600080fd5b5061036a611ccf565b34801561087857600080fd5b5061036a67016345785d8a000081565b34801561089457600080fd5b506108a86108a3366004615744565b611d15565b6040516103119493929190615a0f565b3480156108c457600080fd5b5061036a6108d3366004615717565b611db6565b3480156108e457600080fd5b5061036a6108f3366004615717565b611dc1565b34801561090457600080fd5b5061036a600a5481565b34801561091a57600080fd5b5061036a60115481565b34801561093057600080fd5b5061036a61093f3660046159d6565b6001600160a01b03918216600090815260146020908152604080832093909416825291909152205490565b34801561097657600080fd5b50601754610398906001600160a01b031681565b34801561099657600080fd5b5061036a6109a5366004615744565b611dcc565b3480156109b657600080fd5b50600754610398906001600160a01b031681565b3480156109d657600080fd5b5061036a6109e5366004615a2a565b611e04565b3480156109f657600080fd5b5061036a611e1c565b348015610a0b57600080fd5b5061036a610a1a366004615717565b611e6d565b348015610a2b57600080fd5b50600161033a565b60006702c68af0bb14000090506000896001600160a01b031663313ce5676040518163ffffffff1660e01b8152600401602060405180830381865afa158015610a80573d6000803e3d6000fd5b505050506040513d601f19601f82011682018060405250810190610aa49190615a6c565b9050610ab7898989858a8a878b8b610e71565b601680546001600160a01b0319166001600160a01b038c16908117909155604080516318160ddd60e01b815290516318160ddd916004808201926020929091908290030181865afa158015610b10573d6000803e3d6000fd5b505050506040513d601f19601f82011682018060405250810190610b349190615a89565b5050505050505050505050565b60038054610b4e90615aa2565b80601f0160208091040260200160405190810160405280929190818152602001828054610b7a90615aa2565b8015610bc75780601f10610b9c57610100808354040283529160200191610bc7565b820191906000526020600020905b815481529060010190602001808311610baa57829003601f168201915b505050505081565b3360008181526014602090815260408083206001600160a01b03871680855292528083208590555191929182907f8c5be1e5ebec7d5bd14f71427d1e84f3dd0314c0f7b2291e5b200ac8c7c3b92590610c2b9087815260200190565b60405180910390a360019150505b92915050565b600080610c4b83611eb0565b509392505050565b600080610c5f81611f18565b6000610c696119e3565b14610c8f5760405162461bcd60e51b8152600401610c8690615aed565b60405180910390fd5b610c98836118f9565b91505b610ca481611fdc565b50919050565b6000806000610cb7612047565b90925090506000826003811115610cd057610cd0615ad7565b14610c395760405162461bcd60e51b815260206004820152603560248201527f65786368616e67655261746553746f7265643a2065786368616e67655261746560448201527414dd1bdc9959125b9d195c9b985b0819985a5b1959605a1b6064820152608401610c86565b333014801590610dbd5750600660009054906101000a90046001600160a01b03166001600160a01b031663dd5cd22c6040518163ffffffff1660e01b8152600401602060405180830381865afa158015610d99573d6000803e3d6000fd5b505050506040513d601f19601f82011682018060405250810190610dbd9190615b1d565b15610e6f57600154600080546040516345cc970560e01b81529192839283926001600160a01b03928316926345cc970592610dfe9290911690600401615730565b600060405180830381865afa158015610e1b573d6000803e3d6000fd5b505050506040513d6000823e601f3d908101601f19168201604052610e439190810190615b3a565b60005492955090935091506001600160a01b03808516911614610e6b57610e6b838383612106565b5050505b565b336001600160a01b03891614610edb5760405162461bcd60e51b815260206004820152602960248201527f6f6e6c7920467573652061646d696e206d617920696e697469616c697a6520746044820152681a19481b585c9ad95d60ba1b6064820152608401610c86565b600c54158015610eeb5750600d54155b610f435760405162461bcd60e51b815260206004820152602360248201527f6d61726b6574206d6179206f6e6c7920626520696e697469616c697a6564206f6044820152626e636560e81b6064820152608401610c86565b600180546001600160a01b0319166001600160a01b038a16179055600886905585610fc95760405162461bcd60e51b815260206004820152603060248201527f696e697469616c2065786368616e67652072617465206d75737420626520677260448201526f32b0ba32b9103a3430b7103d32b9379760811b6064820152608401610c86565b6000610fd48a612289565b905080156110215760405162461bcd60e51b815260206004820152601a6024820152791cd95d1d1a5b99c818dbdb5c1d1c9bdb1b195c8819985a5b195960321b6044820152606401610c86565b43600c55670de0b6b3a7640000600d5561103a8861237d565b905080156110955760405162461bcd60e51b815260206004820152602260248201527f73657474696e6720696e7465726573742072617465206d6f64656c206661696c604482015261195960f21b6064820152608401610c86565b85516110a890600390602089019061537d565b5084516110bc90600490602088019061537d565b506005805460ff191660ff86161790556110d583612490565b905080156111255760405162461bcd60e51b815260206004820152601d60248201527f73657474696e67207265736572766520666163746f72206661696c65640000006044820152606401610c86565b61112e8261252f565b905080156111795760405162461bcd60e51b81526020600482015260186024820152771cd95d1d1a5b99c818591b5a5b881999594819985a5b195960421b6044820152606401610c86565b50506002805460ff60b01b1916600160b01b1790555050505050505050565b6000806111a481611f18565b60006111b233878787612649565b149150610c4b81611fdc565b6000806111cb84846128dc565b50949350505050565b6111dc612946565b61121b5760405162461bcd60e51b815260206004820152601060248201526f31b0b63632b9103737ba1030b236b4b760811b6044820152606401610c86565b611227600385856153fd565b50611234600483836153fd565b5050505050565b6000806040518060200160405280611251611ccf565b90526001600160a01b03841660009081526013602052604081205491925090819061127d908490612ab1565b9092509050600082600381111561129657611296615ad7565b146112e35760405162461bcd60e51b815260206004820152601f60248201527f62616c616e636520636f756c64206e6f742062652063616c63756c61746564006044820152606401610c86565b949350505050565b60006112f5612b04565b905090565b611302612946565b61131e5760405162461bcd60e51b8152600401610c8690615bd9565b61135f848484848080601f01602080910402602001604051908101604052809392919081815260200183838082843760009201919091525061210692505050565b50505050565b333014806113765750611376612946565b61137f57600080fd5b600061138d82840184615744565b90506001600160a01b0381166113c95760405162461bcd60e51b81526020600482015260016024820152600360fc1b6044820152606401610c86565b6017546001600160a01b03161580159061145257506017546040516370a0823160e01b81526001600160a01b03909116906370a082319061140e903090600401615730565b602060405180830381865afa15801561142b573d6000803e3d6000fd5b505050506040513d601f19601f8201168201806040525081019061144f9190615a89565b15155b15611535576017546040516370a0823160e01b81526001600160a01b039091169063ba0876529082906370a082319061148f903090600401615730565b602060405180830381865afa1580156114ac573d6000803e3d6000fd5b505050506040513d601f19601f820116820180604052508101906114d09190615a89565b30306040518463ffffffff1660e01b81526004016114f093929190615bf9565b6020604051808303816000875af115801561150f573d6000803e3d6000fd5b505050506040513d601f19601f820116820180604052508101906115339190615a89565b505b601780546001600160a01b0319166001600160a01b038381169190911790915560165460405163095ea7b360e01b815291169063095ea7b39061158090849060001990600401615c18565b6020604051808303816000875af115801561159f573d6000803e3d6000fd5b505050506040513d601f19601f820116820180604052508101906115c39190615b1d565b506016546040516370a0823160e01b81526000916001600160a01b0316906370a08231906115f5903090600401615730565b602060405180830381865afa158015611612573d6000803e3d6000fd5b505050506040513d601f19601f820116820180604052508101906116369190615a89565b9050801561135f5761135f81612b9c565b60008061165381611f18565b600061165d6119e3565b905080156116895761168181601181111561167a5761167a615ad7565b603b612c15565b925050610c9b565b61169284612c75565b925050610ca481611fdc565b6000806116aa81611f18565b60006116b46119e3565b146116d15760405162461bcd60e51b8152600401610c8690615aed565b600e5491506116df81611fdc565b5090565b6116eb612946565b6117075760405162461bcd60e51b8152600401610c8690615bd9565b6016546001600160a01b0383811691161480159061173357506017546001600160a01b03838116911614155b6117635760405162461bcd60e51b81526020600482015260016024820152602160f81b6044820152606401610c86565b60405163095ea7b360e01b81526001600160a01b0383169063095ea7b39061179390849060001990600401615c18565b6020604051808303816000875af11580156117b2573d6000803e3d6000fd5b505050506040513d601f19601f82011682018060405250810190610e6b9190615b1d565b6117de612946565b6118405760405162461bcd60e51b815260206004820152602d60248201527f6f6e6c79207468652061646d696e206d6179207365742074686520636f6d702d60448201526c6c696b652064656c656761746560981b6064820152608401610c86565b6016546040516317066a5760e21b81526001600160a01b0390911690635c19a95c90611870908490600401615730565b600060405180830381600087803b15801561188a57600080fd5b505af1158015611234573d6000803e3d6000fd5b6000610c3982612d26565b6000806118b581611f18565b60006118bf6119e3565b905080156118e3576116818160118111156118dc576118dc615ad7565b6052612c15565b6116928461252f565b60048054610b4e90615aa2565b600080600061190784612d6c565b9092509050600082600381111561192057611920615ad7565b1461198d5760405162461bcd60e51b815260206004820152603760248201527f626f72726f7742616c616e636553746f7265643a20626f72726f7742616c616e60448201527618d954dd1bdc9959125b9d195c9b985b0819985a5b1959604a1b6064820152608401610c86565b9392505050565b6000806119a081611f18565b60006119aa6119e3565b905080156119ce576116818160118111156119c7576119c7615ad7565b6033612c15565b61169284612e25565b600080610c4b83612e98565b600c5460009043908114156119fb5760005b91505090565b6000611a05612b04565b90506000600760009054906101000a90046001600160a01b03166001600160a01b03166315f2405383600e54611a4a600f54611a45601054601154612ede565b612ede565b6040518463ffffffff1660e01b8152600401611a6893929190615c31565b602060405180830381865afa158015611a85573d6000803e3d6000fd5b505050506040513d601f19601f82011682018060405250810190611aa99190615a89565b905065048c27395000811115611b005760405162461bcd60e51b815260206004820152601c60248201527b0c4dee4e4deee40e4c2e8ca40d2e640c2c4e6eae4c8d8f240d0d2ced60231b6044820152606401610c86565b600080611b0f85600c54612f14565b90925090506000826003811115611b2857611b28615ad7565b14611b755760405162461bcd60e51b815260206004820152601f60248201527f636f756c64206e6f742063616c63756c61746520626c6f636b2064656c7461006044820152606401610c86565b611b8185858584612f3f565b9550505050505090565b600080611b9781611f18565b6000611ba16119e3565b90508015611bc557611681816011811115611bbe57611bbe615ad7565b6037612c15565b61169284613061565b600080611bda81611f18565b6000611be833338787612649565b149150611bf481611fdc565b5092915050565b6007546000906001600160a01b031663b8168816611c17612b04565b600e54611c2e600f54611a45601054601154612ede565b600954600a54600b54611c419190615c5d565b611c4b9190615c5d565b6040518563ffffffff1660e01b8152600401611c6a9493929190615a0f565b602060405180830381865afa158015611c87573d6000803e3d6000fd5b505050506040513d601f19601f820116820180604052508101906112f59190615a89565b60006001611cb881611f18565b611cc43386868661313f565b9150610c4b81611fdc565b600080611cdb81611f18565b6000611ce56119e3565b14611d025760405162461bcd60e51b8152600401610c8690615aed565b611d0a610caa565b91506116df81611fdc565b6001600160a01b038116600090815260136020526040812054819081908190818080611d4089612d6c565b935090506000816003811115611d5857611d58615ad7565b14611d765760095b6000806000975097509750975050505050611daf565b611d7e612047565b925090506000816003811115611d9657611d96615ad7565b14611da2576009611d60565b5060009650919450925090505b9193509193565b6000610c3982613626565b6000610c398261366a565b600080611dd76119e3565b90508015611dfb5761198d816011811115611df457611df4615ad7565b604b612c15565b61198d8361237d565b600080611e128585856136a9565b5095945050505050565b6007546000906001600160a01b03166315f24053611e38612b04565b600e54611e4f600f54611a45601054601154612ede565b6040518463ffffffff1660e01b8152600401611c6a93929190615c31565b600080611e7981611f18565b6000611e836119e3565b90508015611ea757611681816011811115611ea057611ea0615ad7565b6059612c15565b61169284612490565b6000806000611ebe81611f18565b6000611ec86119e3565b90508015611ef857611eec816011811115611ee557611ee5615ad7565b6041612c15565b60009350935050611f09565b611f0333338761379d565b93509350505b611f1281611fdc565b50915091565b600254600160b01b900460ff16611f5e5760405162461bcd60e51b815260206004820152600a6024820152691c994b595b9d195c995960b21b6044820152606401610c86565b80611fcc57600660009054906101000a90046001600160a01b03166001600160a01b031663c90c20b16040518163ffffffff1660e01b8152600401600060405180830381600087803b158015611fb357600080fd5b505af1158015611fc7573d6000803e3d6000fd5b505050505b506002805460ff60b01b19169055565b6002805460ff60b01b1916600160b01b1790558061204457600660009054906101000a90046001600160a01b03166001600160a01b031663632e51426040518163ffffffff1660e01b8152600401600060405180830381600087803b15801561188a57600080fd5b50565b601254600090819080612061575050600854600092909150565b600061206b612b04565b90506000612077615471565b600061209984600e54612094600f54611a45601054601154612ede565b613ba6565b9350905060008160038111156120b1576120b1615ad7565b146120c3579660009650945050505050565b6120cd8386613bf8565b9250905060008160038111156120e5576120e5615ad7565b146120f7579660009650945050505050565b50516000969095509350505050565b6001546000546040516338e6a07360e11b81526001600160a01b039182166004820152858216602482015284151560448201529116906371cd40e690606401602060405180830381865afa158015612162573d6000803e3d6000fd5b505050506040513d601f19601f820116820180604052508101906121869190615b1d565b6121ba5760405162461bcd60e51b8152602060048201526005602482015264085a5b5c1b60da1b6044820152606401610c86565b600080546001600160a01b038581166001600160a01b031983161790925560405191169061223d9030906121f29085906024016156d8565b60408051601f19818403018152918152602080830180516001600160e01b0316630adccee560e31b17905281518083019092526007825266216265636f6d6560c81b90820152613cb5565b506000546040517fd604de94d45953f9138079ec1b82d533cb2160c906d1076d1f7ed54befbca97a9161227b9184916001600160a01b031690615c75565b60405180910390a150505050565b600080600660009054906101000a90046001600160a01b03169050826001600160a01b0316627e3dd26040518163ffffffff1660e01b8152600401602060405180830381865afa1580156122e1573d6000803e3d6000fd5b505050506040513d601f19601f820116820180604052508101906123059190615b1d565b6123215760405162461bcd60e51b8152600401610c8690615c8f565b600680546001600160a01b0319166001600160a01b0385161790556040517f7ac369dbd14fa5ea3f473ed67cc9d598964a77501540ba6751eb0b3decf5870d9061236e9083908690615c75565b60405180910390a1600061198d565b600080612388612946565b6123985761198d6001604d612c15565b43600c54146123ad5761198d600a604c612c15565b600760009054906101000a90046001600160a01b03169050826001600160a01b0316632191f92a6040518163ffffffff1660e01b8152600401602060405180830381865afa158015612403573d6000803e3d6000fd5b505050506040513d601f19601f820116820180604052508101906124279190615b1d565b6124435760405162461bcd60e51b8152600401610c8690615c8f565b600780546001600160a01b0319166001600160a01b0385161790556040517fedffc32e068c7c95dfd4bdfd5c4d939a084d6b11c4199eac8436ed234d72f9269061236e9083908690615c75565b600061249a612946565b6124aa57610c396001605a612c15565b43600c54146124bf57610c39600a605b612c15565b670de0b6b3a76400006124df6124d784600954612ede565b600a54612ede565b11156124f157610c396002605c612c15565b600b80549083905560408051828152602081018590527faaa68312e2ea9d50e16af5068410ab56e1a1fd06037b1a35664812c30f821460910161236e565b600043600c541461254657610c39600a6054612c15565b6000198214156125565760095491505b6000612560613d51565b9050670de0b6b3a764000061258061257a600b5486612ede565b83612ede565b11156125925761198d60026055612c15565b82600954146125f6576125a3612946565b6125b35761198d60016053612c15565b600980549084905560408051828152602081018690527fcdd0b588250e1398549f79cfdb8217c186688822905d6715b0834ea1c865594a910160405180910390a1505b80600a541461264257600a80549082905560408051828152602081018490527f92eef861b6533b7d3417f39c2ad7b460eed4e88a32fa3604f30e718b7602e7dc910160405180910390a1505b600061198d565b6006546040516317b9b84b60e31b815260009182916001600160a01b039091169063bdcdc25890612684903090899089908990600401615cc5565b6020604051808303816000875af11580156126a3573d6000803e3d6000fd5b505050506040513d601f19601f820116820180604052508101906126c79190615a89565b905080156126e4576126dc6003605d83613d9b565b9150506112e3565b836001600160a01b0316856001600160a01b0316141561270a576126dc6002605e612c15565b6000856001600160a01b0316876001600160a01b0316141561272f5750600019612757565b506001600160a01b038086166000908152601460209081526040808320938a16835292905220545b6000806000806127678589612f14565b9094509250600084600381111561278057612780615ad7565b1461279e576127916009605e612c15565b96505050505050506112e3565b6001600160a01b038a166000908152601360205260409020546127c19089612f14565b909450915060008460038111156127da576127da615ad7565b146127eb576127916009605f612c15565b6001600160a01b03891660009081526013602052604090205461280e9089613e24565b9094509050600084600381111561282757612827615ad7565b146128385761279160096060612c15565b6001600160a01b03808b16600090815260136020526040808220859055918b168152208190556000198514612890576001600160a01b03808b166000908152601460209081526040808320938f168352929052208390555b886001600160a01b03168a6001600160a01b0316600080516020615e668339815191528a6040516128c391815260200190565b60405180910390a35060009a9950505050505050505050565b60008060006128ea81611f18565b60006128f46119e3565b905080156129245761291881601181111561291157612911615ad7565b6040612c15565b60009350935050612935565b61292f33878761379d565b93509350505b61293e81611fdc565b509250929050565b600654604080516303e1469160e61b815290516000926001600160a01b031691829163f851a440916004808201926020929091908290030181865afa158015612993573d6000803e3d6000fd5b505050506040513d601f19601f820116820180604052508101906129b79190615cef565b6001600160a01b0316336001600160a01b0316148015612a345750806001600160a01b0316630a755ec26040518163ffffffff1660e01b8152600401602060405180830381865afa158015612a10573d6000803e3d6000fd5b505050506040513d601f19601f82011682018060405250810190612a349190615b1d565b806119f557506001546001600160a01b0316331480156119f55750806001600160a01b0316632f1069ba6040518163ffffffff1660e01b8152600401602060405180830381865afa158015612a8d573d6000803e3d6000fd5b505050506040513d601f19601f820116820180604052508101906119f59190615b1d565b600080600080612ac18686613e4a565b90925090506000826003811115612ada57612ada615ad7565b14612aeb5750915060009050612afd565b6000612af682613eb8565b9350935050505b9250929050565b6017546040516370a0823160e01b81526000916001600160a01b031690634cdad5069082906370a0823190612b3d903090600401615730565b602060405180830381865afa158015612b5a573d6000803e3d6000fd5b505050506040513d601f19601f82011682018060405250810190612b7e9190615a89565b6040518263ffffffff1660e01b8152600401611c6a91815260200190565b601754604051636e553f6560e01b8152600481018390523060248201526001600160a01b0390911690636e553f65906044016020604051808303816000875af1158015612bed573d6000803e3d6000fd5b505050506040513d601f19601f82011682018060405250810190612c119190615a89565b5050565b6000600080516020615e46833981519152836011811115612c3857612c38615ad7565b836063811115612c4a57612c4a615ad7565b6000604051612c5b93929190615c31565b60405180910390a182601181111561198d5761198d615ad7565b600080612c80612946565b612c905761198d6001603c612c15565b43600c5414612ca55761198d600a603e612c15565b82612cae612b04565b1015612cc05761198d600e603d612c15565b600f54831115612cd65761198d6002603f612c15565b612ce2600f5484613ed0565b600f8190559050612cf33384613f0a565b7f3bad0c59cf2f06e7314077049f48a93578cd16f5ef92329f1dab1420a99c177e33848360405161236e93929190615d0c565b600080612d3281611f18565b6000612d3c6119e3565b90508015612d6057611681816011811115612d5957612d59615ad7565b602a612c15565b61169233600086613f81565b6001600160a01b038116600090815260156020526040812080548291829182918291612da15750600096879650945050505050565b612db18160000154600d546144c0565b90945092506000846003811115612dca57612dca615ad7565b14612ddd57509195600095509350505050565b612deb8382600101546144ff565b90945091506000846003811115612e0457612e04615ad7565b14612e1757509195600095509350505050565b506000969095509350505050565b60008043600c5414612e3d5761198d600a6035612c15565b82612e46612b04565b1015612e585761198d600e6034612c15565b601154831115612e6e5761198d60026036612c15565b612e7a60115484613ed0565b6011819055600154909150612642906001600160a01b031684613f0a565b6000806000612ea681611f18565b6000612eb06119e3565b90508015612ed457611eec816011811115612ecd57612ecd615ad7565b6020612c15565b611f03338661452a565b600061198d8383604051806040016040528060118152602001706164646974696f6e206f766572666c6f7760781b8152506148a1565b600080838311612f33576000612f2a8486615d2d565b91509150612afd565b50600390506000612afd565b600080612f5a604051806020016040528086815250846148d2565b90506000612f6a82600e546148fc565b90506000612f7a82600e54612ede565b90506000612f9b6040518060200160405280600b5481525084600f54614914565b90506000612fbc6040518060200160405280600a5481525085601154614914565b90506000612fdd604051806020016040528060095481525086601054614914565b90506000612ff087600d54600d54614914565b600c8d9055600d819055600e869055600f859055601184905560108390556040519091507f4dec04e750ca11537cabcd8a9eab06494de08da3735bc8871cd41250e190bc0490613047908d90899085908a90615a0f565b60405180910390a160009c9b505050505050505050505050565b60008043600c54146130795761198d600a6039612c15565b82613082612b04565b10156130945761198d600e6038612c15565b6010548311156130aa5761198d6002603a612c15565b6130b660105484613ed0565b905080601081905550612642600660009054906101000a90046001600160a01b03166001600160a01b031663f851a4406040518163ffffffff1660e01b8152600401602060405180830381865afa158015613115573d6000803e3d6000fd5b505050506040513d601f19601f820116820180604052508101906131399190615cef565b84613f0a565b60065460405163d02f735160e01b815260009182916001600160a01b039091169063d02f73519061317c9030908a908a908a908a90600401615d44565b6020604051808303816000875af115801561319b573d6000803e3d6000fd5b505050506040513d601f19601f820116820180604052508101906131bf9190615a89565b905080156131d4576126dc6003601d83613d9b565b846001600160a01b0316846001600160a01b031614156131fa576126dc6006601e612c15565b61325f604080516101808101909152806000815260200160008152602001600081526020016000815260200160008152602001600081526020016000815260200160008152602001600081526020016000815260200160008152602001600081525090565b6001600160a01b0385166000908152601360205260409020546132829085612f14565b602083018190528282600381111561329c5761329c615ad7565b60038111156132ad576132ad615ad7565b90525060009050815160038111156132c7576132c7615ad7565b146132f7576132ee6009601c836000015160038111156132e9576132e9615ad7565b613d9b565b925050506112e3565b613316846040518060200160405280666379da05b60000815250614935565b6080820152604080516020810190915267016345785d8a0000815261333c908590614935565b610140820152608081015161336190613356908690613ed0565b826101400151613ed0565b606082015261336e612047565b60c083018190528282600381111561338857613388615ad7565b600381111561339957613399615ad7565b90525060009050815160038111156133b3576133b3615ad7565b146133fb5760405162461bcd60e51b815260206004820152601860248201527732bc31b430b733b2903930ba329036b0ba341032b93937b960411b6044820152606401610c86565b61341b60405180602001604052808360c0015181525082608001516148fc565b60a0820152604080516020810190915260c0820151815261014082015161344291906148fc565b610160820152600f5460a082015161345a9190612ede565b60e082015260125460808201516134749161335691613ed0565b61012082015260115461016082015161348d9190612ede565b6101008201526001600160a01b03861660009081526013602052604090205460608201516134bb9190613e24565b60408301819052828260038111156134d5576134d5615ad7565b60038111156134e6576134e6615ad7565b905250600090508151600381111561350057613500615ad7565b14613522576132ee6009601b836000015160038111156132e9576132e9615ad7565b60e0810151600f556101208101516012556101008101516011556020808201516001600160a01b0387811660008181526013855260408082209490945583860151928b1680825290849020929092556060850151925192835290929091600080516020615e66833981519152910160405180910390a3306001600160a01b0316856001600160a01b0316600080516020615e6683398151915283608001516040516135cf91815260200190565b60405180910390a360a081015160e08201516040517fa91e67c5ea634cd43a12c5a482724b03de01e85ca68702a53d0c2f45cb7c1dc592613611923092615d0c565b60405180910390a16000979650505050505050565b60008061363281611f18565b600061363c6119e3565b905080156136605761168181601181111561365957613659615ad7565b600a612c15565b6116923385614958565b60008061367681611f18565b60006136806119e3565b9050801561369d57611681816011811115612d5957612d59615ad7565b61169233856000613f81565b60008060006136b781611f18565b60006136c16119e3565b905080156136f1576136e58160118111156136de576136de615ad7565b6011612c15565b6000935093505061378b565b846001600160a01b031663a6afed956040518163ffffffff1660e01b81526004016020604051808303816000875af1158015613731573d6000803e3d6000fd5b505050506040513d601f19601f820116820180604052508101906137559190615a89565b90508015613779576136e581601181111561377257613772615ad7565b6012612c15565b61378533888888614cea565b93509350505b61379481611fdc565b50935093915050565b600654604051631200453160e11b8152600091829182916001600160a01b0316906324008a62906137d89030908a908a908a90600401615cc5565b6020604051808303816000875af11580156137f7573d6000803e3d6000fd5b505050506040513d601f19601f8201168201806040525081019061381b9190615a89565b9050801561383c576138306003604383613d9b565b60009250925050613b9e565b43600c541461385157613830600a6044612c15565b61389a6040805161010081019091528060008152602001600081526020016000815260200160008152602001600081526020016000815260200160008152602001600081525090565b6001600160a01b03861660009081526015602052604090206001015460608201526138c486612d6c565b60808301819052602083018260038111156138e1576138e1615ad7565b60038111156138f2576138f2615ad7565b905250600090508160200151600381111561390f5761390f615ad7565b1461393e5761393160096042836020015160038111156132e9576132e9615ad7565b6000935093505050613b9e565b600019851415613957576080810151604082015261395f565b604081018590525b61396d878260400151615194565b60e08201819052608082015161398291612f14565b60a083018190526020830182600381111561399f5761399f615ad7565b60038111156139b0576139b0615ad7565b90525060009050816020015160038111156139cd576139cd615ad7565b14613a3d5760405162461bcd60e51b815260206004820152603a60248201527f52455041595f424f52524f575f4e45575f4143434f554e545f424f52524f575f604482015279109053105390d157d0d05310d55310551253d397d1905253115160321b6064820152608401610c86565b613a4d600e548260e00151612f14565b60c0830181905260208301826003811115613a6a57613a6a615ad7565b6003811115613a7b57613a7b615ad7565b9052506000905081602001516003811115613a9857613a98615ad7565b14613aff5760405162461bcd60e51b815260206004820152603160248201527f52455041595f424f52524f575f4e45575f544f54414c5f42414c414e43455f43604482015270105310d55310551253d397d19052531151607a1b6064820152608401610c86565b60a081810180516001600160a01b03898116600081815260156020908152604091829020948555600d5460019095019490945560c0870151600e81905560e088015195518251948f16855294840192909252820193909352606081019190915260808101919091527f1a2a22cb034d26d1854bdc6666a5b91fe25efbbb5dcad3b0355478d6f5c362a1910160405180910390a160e00151600093509150505b935093915050565b600080600080613bb68787613e24565b90925090506000826003811115613bcf57613bcf615ad7565b14613be05750915060009050613b9e565b613bea8186612f14565b935093505050935093915050565b6000613c02615471565b600080613c1786670de0b6b3a76400006144c0565b90925090506000826003811115613c3057613c30615ad7565b14613c4f57506040805160208101909152600081529092509050612afd565b600080613c5c83886144ff565b90925090506000826003811115613c7557613c75615ad7565b14613c985781604051806020016040528060008152509550955050505050612afd565b604080516020810190915290815260009890975095505050505050565b6060600080856001600160a01b031685604051613cd29190615d77565b6000604051808303816000865af19150503d8060008114613d0f576040519150601f19603f3d011682016040523d82523d6000602084013e613d14565b606091505b509150915081613d4857805115613d2e5780518082602001fd5b8360405162461bcd60e51b8152600401610c8691906156d8565b95945050505050565b6001546040805163dd86fea160e01b815290516000926001600160a01b03169163dd86fea19160048083019260209291908290030181865afa158015611c87573d6000803e3d6000fd5b6000600080516020615e46833981519152846011811115613dbe57613dbe615ad7565b846063811115613dd057613dd0615ad7565b84604051613de093929190615c31565b60405180910390a16003846011811115613dfc57613dfc615ad7565b14613e1857836011811115613e1357613e13615ad7565b6112e3565b6112e3826103e8615c5d565b600080838301848110613e3c57600092509050612afd565b600260009250925050612afd565b6000613e54615471565b600080613e658660000151866144c0565b90925090506000826003811115613e7e57613e7e615ad7565b14613e9d57506040805160208101909152600081529092509050612afd565b60408051602081019091529081526000969095509350505050565b8051600090610c3990670de0b6b3a764000090615d93565b600061198d8383604051806040016040528060158152602001747375627472616374696f6e20756e646572666c6f7760581b81525061524a565b601754604051632d182be560e21b81526001600160a01b039091169063b460af9490613f3e90849086903090600401615bf9565b6020604051808303816000875af1158015613f5d573d6000803e3d6000fd5b505050506040513d601f19601f82011682018060405250810190610e6b9190615a89565b6000821580613f8e575081155b613ff75760405162461bcd60e51b815260206004820152603460248201527f6f6e65206f662072656465656d546f6b656e73496e206f722072656465656d416044820152736d6f756e74496e206d757374206265207a65726f60601b6064820152608401610c86565b613fff615484565b614007612047565b604083018190526020830182600381111561402457614024615ad7565b600381111561403557614035615ad7565b905250600090508160200151600381111561405257614052615ad7565b1461407c576140746009602e836020015160038111156132e9576132e9615ad7565b91505061198d565b83156141155760608101849052604080516020810182529082015181526140a39085612ab1565b60808301819052602083018260038111156140c0576140c0615ad7565b60038111156140d1576140d1615ad7565b90525060009050816020015160038111156140ee576140ee615ad7565b14614110576140746009602c836020015160038111156132e9576132e9615ad7565b6141a6565b6141318360405180602001604052808460400151815250615279565b606083018190526020830182600381111561414e5761414e615ad7565b600381111561415f5761415f615ad7565b905250600090508160200151600381111561417c5761417c615ad7565b1461419e576140746009602d836020015160038111156132e9576132e9615ad7565b608081018390525b600654606082015160405163eabe7d9160e01b81526000926001600160a01b03169163eabe7d91916141df9130918b9190600401615db5565b6020604051808303816000875af11580156141fe573d6000803e3d6000fd5b505050506040513d601f19601f820116820180604052508101906142229190615a89565b90508015614240576142376003602b83613d9b565b9250505061198d565b43600c541461425557614237600a602f612c15565b6142656012548360600151612f14565b60a084018190526020840182600381111561428257614282615ad7565b600381111561429357614293615ad7565b90525060009050826020015160038111156142b0576142b0615ad7565b146142d25761423760096031846020015160038111156132e9576132e9615ad7565b6001600160a01b03861660009081526013602052604090205460608301516142fa9190612f14565b60c084018190526020840182600381111561431757614317615ad7565b600381111561432857614328615ad7565b905250600090508260200151600381111561434557614345615ad7565b146143675761423760096030846020015160038111156132e9576132e9615ad7565b8160800151614374612b04565b101561438657614237600e6032612c15565b60a082015160125560c08201516001600160a01b03871660009081526013602052604090205560808201516143bc908790613f0a565b306001600160a01b0316866001600160a01b0316600080516020615e6683398151915284606001516040516143f391815260200190565b60405180910390a3608082015160608301516040517fe5b754fb1abb7f01b499791d0b820ae3b6af3424ac1c59768edb53f4ec31a92992614435928a92615d0c565b60405180910390a1600654608083015160608401516040516351dff98960e01b81526001600160a01b03909316926351dff9899261447b9230928c929190600401615dd9565b600060405180830381600087803b15801561449557600080fd5b505af11580156144a9573d6000803e3d6000fd5b50600092506144b6915050565b9695505050505050565b600080836144d357506000905080612afd565b838302836144e18683615d93565b146144f457600260009250925050612afd565b600092509050612afd565b600080826145135750600190506000612afd565b600061451f8486615d93565b915091509250929050565b600654604051634ef4c3e160e01b8152600091829182916001600160a01b031690634ef4c3e19061456390309089908990600401615db5565b6020604051808303816000875af1158015614582573d6000803e3d6000fd5b505050506040513d601f19601f820116820180604052508101906145a69190615a89565b905080156145c7576145bb6003602183613d9b565b60009250925050612afd565b43600c54146145dc576145bb600a6024612c15565b6145e4615484565b6145ec612047565b604083018190526020830182600381111561460957614609615ad7565b600381111561461a5761461a615ad7565b905250600090508160200151600381111561463757614637615ad7565b146146665761465960096023836020015160038111156132e9576132e9615ad7565b6000935093505050612afd565b6146708686615194565b60c08201819052604080516020810182529083015181526146919190615279565b60608301819052602083018260038111156146ae576146ae615ad7565b60038111156146bf576146bf615ad7565b90525060009050816020015160038111156146dc576146dc615ad7565b146147295760405162461bcd60e51b815260206004820181905260248201527f4d494e545f45584348414e47455f43414c43554c4154494f4e5f4641494c45446044820152606401610c86565b6147396012548260600151612ede565b60808201526001600160a01b03861660009081526013602052604090205460608201516147669190612ede565b60a0820181905260808201516012556001600160a01b038716600090815260136020526040908190209190915560c0820151606083015191517f4c209b5fc8ad50758f13e2e1088ba56a560dff690a1c6fef26394f4c03821c4f926147cf928a92909190615d0c565b60405180910390a1856001600160a01b0316306001600160a01b0316600080516020615e66833981519152836060015160405161480e91815260200190565b60405180910390a360065460c082015160608301516040516341c728b960e01b81526001600160a01b03909316926341c728b9926148549230928c929190600401615dd9565b600060405180830381600087803b15801561486e57600080fd5b505af1158015614882573d6000803e3d6000fd5b506000925061488f915050565b8160c001519350935050509250929050565b6000806148ae8486615c5d565b905082858210156111cb5760405162461bcd60e51b8152600401610c8691906156d8565b6148da615471565b60405180602001604052806148f3856000015185615289565b90529392505050565b60008061490984846148d2565b90506112e381613eb8565b60008061492185856148d2565b9050613d4861492f82613eb8565b84612ede565b6000670de0b6b3a764000061494e848460000151615289565b61198d9190615d93565b60065460405163368f515360e21b815260009182916001600160a01b039091169063da3d454c9061499190309088908890600401615db5565b6020604051808303816000875af11580156149b0573d6000803e3d6000fd5b505050506040513d601f19601f820116820180604052508101906149d49190615a89565b905080156149f1576149e96003601083613d9b565b915050610c39565b43600c5414614a06576149e9600a600c612c15565b6000614a10612b04565b905083811015614a2f57614a26600e600b612c15565b92505050610c39565b614a5b604080516080810190915280600081526020016000815260200160008152602001600081525090565b614a6486612d6c565b6020830181905282826003811115614a7e57614a7e615ad7565b6003811115614a8f57614a8f615ad7565b9052506000905081516003811115614aa957614aa9615ad7565b14614ad457614aca600980836000015160038111156132e9576132e9615ad7565b9350505050610c39565b614ae2816020015186613e24565b6040830181905282826003811115614afc57614afc615ad7565b6003811115614b0d57614b0d615ad7565b9052506000905081516003811115614b2757614b27615ad7565b14614b4957614aca6009600e836000015160038111156132e9576132e9615ad7565b6006546040808301519051631de6c8a560e21b81526001600160a01b039092169163779b229491614b7f91309190600401615c18565b6020604051808303816000875af1158015614b9e573d6000803e3d6000fd5b505050506040513d601f19601f82011682018060405250810190614bc29190615a89565b92508215614bd757614aca6003601085613d9b565b614be3600e5486613e24565b6060830181905282826003811115614bfd57614bfd615ad7565b6003811115614c0e57614c0e615ad7565b9052506000905081516003811115614c2857614c28615ad7565b14614c4a57614aca6009600d836000015160038111156132e9576132e9615ad7565b6040808201516001600160a01b0388166000908152601560205291909120908155600d546001909101556060810151600e55614c868686613f0a565b60408082015160608084015183516001600160a01b038b168152602081018a9052938401929092528201527f13ed6866d4e1ee6da46f845c46d7e54120883d75c5ea9a2dacc1c4ca8984ab809060800160405180910390a160009695505050505050565b600654604051632fe3f38f60e11b8152600091829182916001600160a01b031690635fc7e71e90614d2790309088908c908c908c90600401615d44565b6020604051808303816000875af1158015614d46573d6000803e3d6000fd5b505050506040513d601f19601f82011682018060405250810190614d6a9190615a89565b90508015614d8b57614d7f6003601483613d9b565b6000925092505061518b565b43600c5414614da057614d7f600a6018612c15565b43846001600160a01b0316636c540baf6040518163ffffffff1660e01b8152600401602060405180830381865afa158015614ddf573d6000803e3d6000fd5b505050506040513d601f19601f82011682018060405250810190614e039190615a89565b14614e1457614d7f600a6013612c15565b866001600160a01b0316866001600160a01b03161415614e3a57614d7f60066019612c15565b84614e4b57614d7f60076017612c15565b600019851415614e6157614d7f60076016612c15565b600080614e6f89898961379d565b90925090508115614ea457614e96826011811115614e8f57614e8f615ad7565b601a612c15565b60009450945050505061518b565b60065460405163c488847b60e01b815260009182916001600160a01b039091169063c488847b90614edd9030908c908890600401615db5565b6040805180830381865afa158015614ef9573d6000803e3d6000fd5b505050506040513d601f19601f82011682018060405250810190614f1d9190615e02565b90925090508115614f8c5760405162461bcd60e51b815260206004820152603360248201527f4c49515549444154455f434f4d5054524f4c4c45525f43414c43554c4154455f604482015272105353d5539517d4d152569157d19052531151606a1b6064820152608401610c86565b6040516370a0823160e01b815281906001600160a01b038a16906370a0823190614fba908e90600401615730565b602060405180830381865afa158015614fd7573d6000803e3d6000fd5b505050506040513d601f19601f82011682018060405250810190614ffb9190615a89565b10156150445760405162461bcd60e51b815260206004820152601860248201527709892a2aa928882a88abea68a92b48abea89e9ebe9aaa86960431b6044820152606401610c86565b60006001600160a01b03891630141561506a57615063308d8d8561313f565b90506150e0565b60405163b2a02ff160e01b81526001600160a01b038a169063b2a02ff19061509a908f908f908790600401615db5565b6020604051808303816000875af11580156150b9573d6000803e3d6000fd5b505050506040513d601f19601f820116820180604052508101906150dd9190615a89565b90505b80156151255760405162461bcd60e51b81526020600482015260146024820152731d1bdad95b881cd95a5e9d5c994819985a5b195960621b6044820152606401610c86565b604080516001600160a01b038e811682528d811660208301528183018790528b1660608201526080810184905290517f298637f684da70674f26509b10f07ec2fbc77a335ab1e7d6215a4b2484d8bb529181900360a00190a16000975092955050505050505b94509492505050565b6016546040516323b872dd60e01b81526000916001600160a01b0316906323b872dd906151c990869030908790600401615db5565b6020604051808303816000875af11580156151e8573d6000803e3d6000fd5b505050506040513d601f19601f8201168201806040525081019061520c9190615b1d565b6152415760405162461bcd60e51b8152600401610c86906020808252600490820152631cd95b9960e21b604082015260600190565b610ca482612b9c565b6000818484111561526e5760405162461bcd60e51b8152600401610c8691906156d8565b506112e38385615d2d565b600080600080612ac186866152c5565b600061198d8383604051806040016040528060178152602001766d756c7469706c69636174696f6e206f766572666c6f7760481b81525061532a565b60006152cf615471565b6000806152e4670de0b6b3a7640000876144c0565b909250905060008260038111156152fd576152fd615ad7565b1461531c57506040805160208101909152600081529092509050612afd565b612af6818660000151613bf8565b6000831580615337575082155b156153445750600061198d565b60006153508486615e26565b90508361535d8683615d93565b1483906111cb5760405162461bcd60e51b8152600401610c8691906156d8565b82805461538990615aa2565b90600052602060002090601f0160209004810192826153ab57600085556153f1565b82601f106153c457805160ff19168380011785556153f1565b828001600101855582156153f1579182015b828111156153f15782518255916020019190600101906153d6565b506116df9291506154c2565b82805461540990615aa2565b90600052602060002090601f01602090048101928261542b57600085556153f1565b82601f106154445782800160ff198235161785556153f1565b828001600101855582156153f1579182015b828111156153f1578235825591602001919060010190615456565b6040518060200160405280600081525090565b6040805160e0810190915280600081526020016000815260200160008152602001600081526020016000815260200160008152602001600081525090565b5b808211156116df57600081556001016154c3565b6001600160a01b038116811461204457600080fd5b80356154f7816154d7565b919050565b634e487b7160e01b600052604160045260246000fd5b604051601f8201601f191681016001600160401b038111828210171561553a5761553a6154fc565b604052919050565b60006001600160401b0382111561555b5761555b6154fc565b50601f01601f191660200190565b600082601f83011261557a57600080fd5b813561558d61558882615542565b615512565b8181528460208386010111156155a257600080fd5b816020850160208301376000918101602001919091529392505050565b600080600080600080600080610100898b0312156155dc57600080fd5b88356155e7816154d7565b975060208901356155f7816154d7565b96506040890135615607816154d7565b95506060890135615617816154d7565b945060808901356001600160401b038082111561563357600080fd5b61563f8c838d01615569565b955060a08b013591508082111561565557600080fd5b506156628b828c01615569565b93505060c0890135915060e089013590509295985092959890939650565b60005b8381101561569b578181015183820152602001615683565b8381111561135f5750506000910152565b600081518084526156c4816020860160208601615680565b601f01601f19169290920160200192915050565b60208152600061198d60208301846156ac565b600080604083850312156156fe57600080fd5b8235615709816154d7565b946020939093013593505050565b60006020828403121561572957600080fd5b5035919050565b6001600160a01b0391909116815260200190565b60006020828403121561575657600080fd5b813561198d816154d7565b60ff8116811461204457600080fd5b80356154f781615761565b60008060008060008060008060006101208a8c03121561579a57600080fd5b89356157a5816154d7565b985060208a01356157b5816154d7565b97506157c360408b016154ec565b965060608a0135955060808a01356001600160401b03808211156157e657600080fd5b6157f28d838e01615569565b965060a08c013591508082111561580857600080fd5b506158158c828d01615569565b94505061582460c08b01615770565b925060e08a013591506101008a013590509295985092959850929598565b60008060006060848603121561585757600080fd5b8335615862816154d7565b92506020840135615872816154d7565b929592945050506040919091013590565b60008083601f84011261589557600080fd5b5081356001600160401b038111156158ac57600080fd5b602083019150836020828501011115612afd57600080fd5b600080600080604085870312156158da57600080fd5b84356001600160401b03808211156158f157600080fd5b6158fd88838901615883565b9096509450602087013591508082111561591657600080fd5b5061592387828801615883565b95989497509550505050565b801515811461204457600080fd5b6000806000806060858703121561595357600080fd5b843561595e816154d7565b9350602085013561596e8161592f565b925060408501356001600160401b0381111561598957600080fd5b61592387828801615883565b600080602083850312156159a857600080fd5b82356001600160401b038111156159be57600080fd5b6159ca85828601615883565b90969095509350505050565b600080604083850312156159e957600080fd5b82356159f4816154d7565b91506020830135615a04816154d7565b809150509250929050565b93845260208401929092526040830152606082015260800190565b600080600060608486031215615a3f57600080fd5b8335615a4a816154d7565b9250602084013591506040840135615a61816154d7565b809150509250925092565b600060208284031215615a7e57600080fd5b815161198d81615761565b600060208284031215615a9b57600080fd5b5051919050565b600181811c90821680615ab657607f821691505b60208210811415610ca457634e487b7160e01b600052602260045260246000fd5b634e487b7160e01b600052602160045260246000fd5b6020808252601690820152751858d8dc9d59481a5b9d195c995cdd0819985a5b195960521b604082015260600190565b600060208284031215615b2f57600080fd5b815161198d8161592f565b600080600060608486031215615b4f57600080fd5b8351615b5a816154d7565b6020850151909350615b6b8161592f565b60408501519092506001600160401b03811115615b8757600080fd5b8401601f81018613615b9857600080fd5b8051615ba661558882615542565b818152876020838501011115615bbb57600080fd5b615bcc826020830160208601615680565b8093505050509250925092565b60208082526006908201526510b0b236b4b760d11b604082015260600190565b9283526001600160a01b03918216602084015216604082015260600190565b6001600160a01b03929092168252602082015260400190565b9283526020830191909152604082015260600190565b634e487b7160e01b600052601160045260246000fd5b60008219821115615c7057615c70615c47565b500190565b6001600160a01b0392831681529116602082015260400190565b6020808252601c908201527b6d61726b6572206d6574686f642072657475726e65642066616c736560201b604082015260600190565b6001600160a01b039485168152928416602084015292166040820152606081019190915260800190565b600060208284031215615d0157600080fd5b815161198d816154d7565b6001600160a01b039390931683526020830191909152604082015260600190565b600082821015615d3f57615d3f615c47565b500390565b6001600160a01b039586168152938516602085015291841660408401529092166060820152608081019190915260a00190565b60008251615d89818460208701615680565b9190910192915050565b600082615db057634e487b7160e01b600052601260045260246000fd5b500490565b6001600160a01b039384168152919092166020820152604081019190915260600190565b6001600160a01b0394851681529290931660208301526040820152606081019190915260800190565b60008060408385031215615e1557600080fd5b505080516020909101519092909150565b6000816000190483118215151615615e4057615e40615c47565b50029056fe45b96fe442630264581b197e84bbada861235052c5a1aadfff9ea4e40a969aa0ddf252ad1be2c89b69c2b068fc378daa952ba7f163c4a11628f55a4df523b3efa164736f6c634300080a000a",
    "linkReferences": {}
  },
  "methodIdentifiers": {
    "PRECISION()": "aaf5eb68",
    "_becomeImplementation(bytes)": "56e67728",
    "_delegateCompLikeTo(address)": "7f1e06be",
    "_prepare()": "1db78944",
    "_reduceReserves(uint256)": "601a0bf1",
    "_setAdminFee(uint256)": "91dd36c6",
    "_setImplementationSafe(address,bool,bytes)": "50d85b73",
    "_setInterestRateModel(address)": "f2b3abbd",
    "_setNameAndSymbol(string,string)": "34154d4c",
    "_setReserveFactor(uint256)": "fca7820b",
    "_withdrawAdminFees(uint256)": "a7b820df",
    "_withdrawFuseFees(uint256)": "a03dce8d",
    "accrualBlockNumber()": "6c540baf",
    "accrueInterest()": "a6afed95",
    "adminFeeMantissa()": "8d02d9a1",
    "allowance(address,address)": "dd62ed3e",
    "approve(address,address)": "7e5465ba",
    "approve(address,uint256)": "095ea7b3",
    "balanceOf(address)": "70a08231",
    "balanceOfUnderlying(address)": "3af9e669",
    "borrow(uint256)": "c5ebeaec",
    "borrowBalanceCurrent(address)": "17bfdfbc",
    "borrowBalanceStored(address)": "95dd9193",
    "borrowIndex()": "aa5af0fd",
    "borrowRatePerBlock()": "f8f9da28",
    "claim()": "4e71d92d",
    "comptroller()": "5fe3b567",
    "decimals()": "313ce567",
    "exchangeRateCurrent()": "bd6d894d",
    "exchangeRateStored()": "182df0f5",
    "feeSeizeShareMantissa()": "be99f119",
    "fuseAdmin()": "15761d51",
    "fuseFeeMantissa()": "dbfe7c19",
    "getAccountSnapshot(address)": "c37f68e2",
    "getCash()": "3b1d21a2",
    "implementation()": "5c60da1b",
    "initialize(address,address,address,address,string,string,uint256,uint256)": "06db3ecd",
    "initialize(address,address,address,uint256,string,string,uint8,uint256,uint256)": "219ef65c",
    "interestRateModel()": "f3fdb15a",
    "isCEther()": "ac784ddc",
    "isCToken()": "fe9c44ae",
    "liquidateBorrow(address,uint256,address)": "f5e3c462",
    "mint(uint256)": "a0712d68",
    "name()": "06fdde03",
    "plugin()": "ef01df4f",
    "protocolSeizeShareMantissa()": "6752e702",
    "redeem(uint256)": "db006a75",
    "redeemUnderlying(uint256)": "852a12e3",
    "repayBorrow(uint256)": "0e752702",
    "repayBorrowBehalf(address,uint256)": "2608f818",
    "reserveFactorMantissa()": "173b9904",
    "seize(address,address,uint256)": "b2a02ff1",
    "supplyRatePerBlock()": "ae9d70b0",
    "symbol()": "95d89b41",
    "totalAdminFees()": "61feacff",
    "totalBorrows()": "47bd3718",
    "totalBorrowsCurrent()": "73acee98",
    "totalFuseFees()": "dc028ab1",
    "totalReserves()": "8f840ddd",
    "totalSupply()": "18160ddd",
    "transfer(address,uint256)": "a9059cbb",
    "transferFrom(address,address,uint256)": "23b872dd",
    "underlying()": "6f307dc3"
  }
}