{
  "address": "0x7CdBA5A3D3951Da8A2f8C4736693C015A42FAB56",
  "abi": [
    {
      "inputs": [
        {
          "internalType": "bytes4",
          "name": "_functionSelector",
          "type": "bytes4"
        }
      ],
      "name": "ExtensionNotFound",
      "type": "error"
    },
    {
      "inputs": [
        {
          "internalType": "bytes4",
          "name": "_functionSelector",
          "type": "bytes4"
        },
        {
          "internalType": "address",
          "name": "_currentImpl",
          "type": "address"
        }
      ],
      "name": "FunctionAlreadyAdded",
      "type": "error"
    },
    {
      "inputs": [
        {
          "internalType": "bytes4",
          "name": "_functionSelector",
          "type": "bytes4"
        }
      ],
      "name": "FunctionNotFound",
      "type": "error"
    },
    {
      "anonymous": false,
      "inputs": [
        {
          "indexed": false,
          "internalType": "uint256",
          "name": "cashPrior",
          "type": "uint256"
        },
        {
          "indexed": false,
          "internalType": "uint256",
          "name": "interestAccumulated",
          "type": "uint256"
        },
        {
          "indexed": false,
          "internalType": "uint256",
          "name": "borrowIndex",
          "type": "uint256"
        },
        {
          "indexed": false,
          "internalType": "uint256",
          "name": "totalBorrows",
          "type": "uint256"
        }
      ],
      "name": "AccrueInterest",
      "type": "event"
    },
    {
      "anonymous": false,
      "inputs": [
        {
          "indexed": true,
          "internalType": "address",
          "name": "owner",
          "type": "address"
        },
        {
          "indexed": true,
          "internalType": "address",
          "name": "spender",
          "type": "address"
        },
        {
          "indexed": false,
          "internalType": "uint256",
          "name": "amount",
          "type": "uint256"
        }
      ],
      "name": "Approval",
      "type": "event"
    },
    {
      "anonymous": false,
      "inputs": [
        {
          "indexed": false,
          "internalType": "address",
          "name": "borrower",
          "type": "address"
        },
        {
          "indexed": false,
          "internalType": "uint256",
          "name": "borrowAmount",
          "type": "uint256"
        },
        {
          "indexed": false,
          "internalType": "uint256",
          "name": "accountBorrows",
          "type": "uint256"
        },
        {
          "indexed": false,
          "internalType": "uint256",
          "name": "totalBorrows",
          "type": "uint256"
        }
      ],
      "name": "Borrow",
      "type": "event"
    },
    {
      "anonymous": false,
      "inputs": [
        {
          "indexed": false,
          "internalType": "uint256",
          "name": "error",
          "type": "uint256"
        },
        {
          "indexed": false,
          "internalType": "uint256",
          "name": "info",
          "type": "uint256"
        },
        {
          "indexed": false,
          "internalType": "uint256",
          "name": "detail",
          "type": "uint256"
        }
      ],
      "name": "Failure",
      "type": "event"
    },
    {
      "anonymous": false,
      "inputs": [
        {
          "indexed": false,
          "internalType": "address",
          "name": "liquidator",
          "type": "address"
        },
        {
          "indexed": false,
          "internalType": "address",
          "name": "borrower",
          "type": "address"
        },
        {
          "indexed": false,
          "internalType": "uint256",
          "name": "repayAmount",
          "type": "uint256"
        },
        {
          "indexed": false,
          "internalType": "address",
          "name": "cTokenCollateral",
          "type": "address"
        },
        {
          "indexed": false,
          "internalType": "uint256",
          "name": "seizeTokens",
          "type": "uint256"
        }
      ],
      "name": "LiquidateBorrow",
      "type": "event"
    },
    {
      "anonymous": false,
      "inputs": [
        {
          "indexed": false,
          "internalType": "address",
          "name": "minter",
          "type": "address"
        },
        {
          "indexed": false,
          "internalType": "uint256",
          "name": "mintAmount",
          "type": "uint256"
        },
        {
          "indexed": false,
          "internalType": "uint256",
          "name": "mintTokens",
          "type": "uint256"
        }
      ],
      "name": "Mint",
      "type": "event"
    },
    {
      "anonymous": false,
      "inputs": [
        {
          "indexed": false,
          "internalType": "uint256",
          "name": "oldAdminFeeMantissa",
          "type": "uint256"
        },
        {
          "indexed": false,
          "internalType": "uint256",
          "name": "newAdminFeeMantissa",
          "type": "uint256"
        }
      ],
      "name": "NewAdminFee",
      "type": "event"
    },
    {
      "anonymous": false,
      "inputs": [
        {
          "indexed": false,
          "internalType": "uint256",
          "name": "oldFuseFeeMantissa",
          "type": "uint256"
        },
        {
          "indexed": false,
          "internalType": "uint256",
          "name": "newFuseFeeMantissa",
          "type": "uint256"
        }
      ],
      "name": "NewFuseFee",
      "type": "event"
    },
    {
      "anonymous": false,
      "inputs": [
        {
          "indexed": false,
          "internalType": "address",
          "name": "oldImplementation",
          "type": "address"
        },
        {
          "indexed": false,
          "internalType": "address",
          "name": "newImplementation",
          "type": "address"
        }
      ],
      "name": "NewImplementation",
      "type": "event"
    },
    {
      "anonymous": false,
      "inputs": [
        {
          "indexed": false,
          "internalType": "contract InterestRateModel",
          "name": "oldInterestRateModel",
          "type": "address"
        },
        {
          "indexed": false,
          "internalType": "contract InterestRateModel",
          "name": "newInterestRateModel",
          "type": "address"
        }
      ],
      "name": "NewMarketInterestRateModel",
      "type": "event"
    },
    {
      "anonymous": false,
      "inputs": [
        {
          "indexed": false,
          "internalType": "uint256",
          "name": "oldReserveFactorMantissa",
          "type": "uint256"
        },
        {
          "indexed": false,
          "internalType": "uint256",
          "name": "newReserveFactorMantissa",
          "type": "uint256"
        }
      ],
      "name": "NewReserveFactor",
      "type": "event"
    },
    {
      "anonymous": false,
      "inputs": [
        {
          "indexed": false,
          "internalType": "address",
          "name": "redeemer",
          "type": "address"
        },
        {
          "indexed": false,
          "internalType": "uint256",
          "name": "redeemAmount",
          "type": "uint256"
        },
        {
          "indexed": false,
          "internalType": "uint256",
          "name": "redeemTokens",
          "type": "uint256"
        }
      ],
      "name": "Redeem",
      "type": "event"
    },
    {
      "anonymous": false,
      "inputs": [
        {
          "indexed": false,
          "internalType": "address",
          "name": "payer",
          "type": "address"
        },
        {
          "indexed": false,
          "internalType": "address",
          "name": "borrower",
          "type": "address"
        },
        {
          "indexed": false,
          "internalType": "uint256",
          "name": "repayAmount",
          "type": "uint256"
        },
        {
          "indexed": false,
          "internalType": "uint256",
          "name": "accountBorrows",
          "type": "uint256"
        },
        {
          "indexed": false,
          "internalType": "uint256",
          "name": "totalBorrows",
          "type": "uint256"
        }
      ],
      "name": "RepayBorrow",
      "type": "event"
    },
    {
      "anonymous": false,
      "inputs": [
        {
          "indexed": false,
          "internalType": "address",
          "name": "benefactor",
          "type": "address"
        },
        {
          "indexed": false,
          "internalType": "uint256",
          "name": "addAmount",
          "type": "uint256"
        },
        {
          "indexed": false,
          "internalType": "uint256",
          "name": "newTotalReserves",
          "type": "uint256"
        }
      ],
      "name": "ReservesAdded",
      "type": "event"
    },
    {
      "anonymous": false,
      "inputs": [
        {
          "indexed": false,
          "internalType": "address",
          "name": "admin",
          "type": "address"
        },
        {
          "indexed": false,
          "internalType": "uint256",
          "name": "reduceAmount",
          "type": "uint256"
        },
        {
          "indexed": false,
          "internalType": "uint256",
          "name": "newTotalReserves",
          "type": "uint256"
        }
      ],
      "name": "ReservesReduced",
      "type": "event"
    },
    {
      "anonymous": false,
      "inputs": [
        {
          "indexed": true,
          "internalType": "address",
          "name": "from",
          "type": "address"
        },
        {
          "indexed": true,
          "internalType": "address",
          "name": "to",
          "type": "address"
        },
        {
          "indexed": false,
          "internalType": "uint256",
          "name": "amount",
          "type": "uint256"
        }
      ],
      "name": "Transfer",
      "type": "event"
    },
    {
      "stateMutability": "nonpayable",
      "type": "fallback"
    },
    {
      "inputs": [
        {
          "internalType": "bytes",
          "name": "",
          "type": "bytes"
        }
      ],
      "name": "_becomeImplementation",
      "outputs": [],
      "stateMutability": "nonpayable",
      "type": "function"
    },
    {
      "inputs": [],
      "name": "_listExtensions",
      "outputs": [
        {
          "internalType": "address[]",
          "name": "",
          "type": "address[]"
        }
      ],
      "stateMutability": "view",
      "type": "function"
    },
    {
      "inputs": [],
      "name": "_prepare",
      "outputs": [],
      "stateMutability": "payable",
      "type": "function"
    },
    {
      "inputs": [
        {
          "internalType": "contract DiamondExtension",
          "name": "extensionToAdd",
          "type": "address"
        },
        {
          "internalType": "contract DiamondExtension",
          "name": "extensionToReplace",
          "type": "address"
        }
      ],
      "name": "_registerExtension",
      "outputs": [],
      "stateMutability": "nonpayable",
      "type": "function"
    },
    {
      "inputs": [
        {
          "internalType": "address",
          "name": "implementation_",
          "type": "address"
        },
        {
          "internalType": "bool",
          "name": "allowResign",
          "type": "bool"
        },
        {
          "internalType": "bytes",
          "name": "becomeImplementationData",
          "type": "bytes"
        }
      ],
      "name": "_setImplementationSafe",
      "outputs": [],
      "stateMutability": "nonpayable",
      "type": "function"
    },
    {
      "inputs": [
        {
          "internalType": "uint256",
          "name": "withdrawAmount",
          "type": "uint256"
        }
      ],
      "name": "_withdrawAdminFees",
      "outputs": [
        {
          "internalType": "uint256",
          "name": "",
          "type": "uint256"
        }
      ],
      "stateMutability": "nonpayable",
      "type": "function"
    },
    {
      "inputs": [
        {
          "internalType": "uint256",
          "name": "withdrawAmount",
          "type": "uint256"
        }
      ],
      "name": "_withdrawFuseFees",
      "outputs": [
        {
          "internalType": "uint256",
          "name": "",
          "type": "uint256"
        }
      ],
      "stateMutability": "nonpayable",
      "type": "function"
    },
    {
      "inputs": [],
      "name": "accrualBlockNumber",
      "outputs": [
        {
          "internalType": "uint256",
          "name": "",
          "type": "uint256"
        }
      ],
      "stateMutability": "view",
      "type": "function"
    },
    {
      "inputs": [],
      "name": "adminFeeMantissa",
      "outputs": [
        {
          "internalType": "uint256",
          "name": "",
          "type": "uint256"
        }
      ],
      "stateMutability": "view",
      "type": "function"
    },
    {
      "inputs": [
        {
          "internalType": "uint256",
          "name": "borrowAmount",
          "type": "uint256"
        }
      ],
      "name": "borrow",
      "outputs": [
        {
          "internalType": "uint256",
          "name": "",
          "type": "uint256"
        }
      ],
      "stateMutability": "nonpayable",
      "type": "function"
    },
    {
      "inputs": [],
      "name": "borrowIndex",
      "outputs": [
        {
          "internalType": "uint256",
          "name": "",
          "type": "uint256"
        }
      ],
      "stateMutability": "view",
      "type": "function"
    },
    {
      "inputs": [],
      "name": "comptroller",
      "outputs": [
        {
          "internalType": "contract IComptroller",
          "name": "",
          "type": "address"
        }
      ],
      "stateMutability": "view",
      "type": "function"
    },
    {
      "inputs": [],
      "name": "contractType",
      "outputs": [
        {
          "internalType": "string",
          "name": "",
          "type": "string"
        }
      ],
      "stateMutability": "pure",
      "type": "function"
    },
    {
      "inputs": [],
      "name": "decimals",
      "outputs": [
        {
          "internalType": "uint8",
          "name": "",
          "type": "uint8"
        }
      ],
      "stateMutability": "view",
      "type": "function"
    },
    {
      "inputs": [],
      "name": "feeSeizeShareMantissa",
      "outputs": [
        {
          "internalType": "uint256",
          "name": "",
          "type": "uint256"
        }
      ],
      "stateMutability": "view",
      "type": "function"
    },
    {
      "inputs": [],
      "name": "fuseAdmin",
      "outputs": [
        {
          "internalType": "address payable",
          "name": "",
          "type": "address"
        }
      ],
      "stateMutability": "view",
      "type": "function"
    },
    {
      "inputs": [],
      "name": "fuseFeeMantissa",
      "outputs": [
        {
          "internalType": "uint256",
          "name": "",
          "type": "uint256"
        }
      ],
      "stateMutability": "view",
      "type": "function"
    },
    {
      "inputs": [],
      "name": "getCash",
      "outputs": [
        {
          "internalType": "uint256",
          "name": "",
          "type": "uint256"
        }
      ],
      "stateMutability": "view",
      "type": "function"
    },
    {
      "inputs": [],
      "name": "implementation",
      "outputs": [
        {
          "internalType": "address",
          "name": "",
          "type": "address"
        }
      ],
      "stateMutability": "view",
      "type": "function"
    },
    {
      "inputs": [
        {
          "internalType": "address",
          "name": "underlying_",
          "type": "address"
        },
        {
          "internalType": "contract IComptroller",
          "name": "comptroller_",
          "type": "address"
        },
        {
          "internalType": "address payable",
          "name": "fuseAdmin_",
          "type": "address"
        },
        {
          "internalType": "contract InterestRateModel",
          "name": "interestRateModel_",
          "type": "address"
        },
        {
          "internalType": "string",
          "name": "name_",
          "type": "string"
        },
        {
          "internalType": "string",
          "name": "symbol_",
          "type": "string"
        },
        {
          "internalType": "uint256",
          "name": "reserveFactorMantissa_",
          "type": "uint256"
        },
        {
          "internalType": "uint256",
          "name": "adminFeeMantissa_",
          "type": "uint256"
        }
      ],
      "name": "initialize",
      "outputs": [],
      "stateMutability": "nonpayable",
      "type": "function"
    },
    {
      "inputs": [
        {
          "internalType": "contract IComptroller",
          "name": "comptroller_",
          "type": "address"
        },
        {
          "internalType": "address payable",
          "name": "fuseAdmin_",
          "type": "address"
        },
        {
          "internalType": "contract InterestRateModel",
          "name": "interestRateModel_",
          "type": "address"
        },
        {
          "internalType": "uint256",
          "name": "initialExchangeRateMantissa_",
          "type": "uint256"
        },
        {
          "internalType": "string",
          "name": "name_",
          "type": "string"
        },
        {
          "internalType": "string",
          "name": "symbol_",
          "type": "string"
        },
        {
          "internalType": "uint8",
          "name": "decimals_",
          "type": "uint8"
        },
        {
          "internalType": "uint256",
          "name": "reserveFactorMantissa_",
          "type": "uint256"
        },
        {
          "internalType": "uint256",
          "name": "adminFeeMantissa_",
          "type": "uint256"
        }
      ],
      "name": "initialize",
      "outputs": [],
      "stateMutability": "nonpayable",
      "type": "function"
    },
    {
      "inputs": [],
      "name": "interestRateModel",
      "outputs": [
        {
          "internalType": "contract InterestRateModel",
          "name": "",
          "type": "address"
        }
      ],
      "stateMutability": "view",
      "type": "function"
    },
    {
      "inputs": [],
      "name": "isCEther",
      "outputs": [
        {
          "internalType": "bool",
          "name": "",
          "type": "bool"
        }
      ],
      "stateMutability": "view",
      "type": "function"
    },
    {
      "inputs": [
        {
          "internalType": "address",
          "name": "borrower",
          "type": "address"
        },
        {
          "internalType": "uint256",
          "name": "repayAmount",
          "type": "uint256"
        },
        {
          "internalType": "address",
          "name": "cTokenCollateral",
          "type": "address"
        }
      ],
      "name": "liquidateBorrow",
      "outputs": [
        {
          "internalType": "uint256",
          "name": "",
          "type": "uint256"
        }
      ],
      "stateMutability": "nonpayable",
      "type": "function"
    },
    {
      "inputs": [
        {
          "internalType": "uint256",
          "name": "mintAmount",
          "type": "uint256"
        }
      ],
      "name": "mint",
      "outputs": [
        {
          "internalType": "uint256",
          "name": "",
          "type": "uint256"
        }
      ],
      "stateMutability": "nonpayable",
      "type": "function"
    },
    {
      "inputs": [],
      "name": "name",
      "outputs": [
        {
          "internalType": "string",
          "name": "",
          "type": "string"
        }
      ],
      "stateMutability": "view",
      "type": "function"
    },
    {
      "inputs": [],
      "name": "protocolSeizeShareMantissa",
      "outputs": [
        {
          "internalType": "uint256",
          "name": "",
          "type": "uint256"
        }
      ],
      "stateMutability": "view",
      "type": "function"
    },
    {
      "inputs": [
        {
          "internalType": "uint256",
          "name": "redeemTokens",
          "type": "uint256"
        }
      ],
      "name": "redeem",
      "outputs": [
        {
          "internalType": "uint256",
          "name": "",
          "type": "uint256"
        }
      ],
      "stateMutability": "nonpayable",
      "type": "function"
    },
    {
      "inputs": [
        {
          "internalType": "uint256",
          "name": "redeemAmount",
          "type": "uint256"
        }
      ],
      "name": "redeemUnderlying",
      "outputs": [
        {
          "internalType": "uint256",
          "name": "",
          "type": "uint256"
        }
      ],
      "stateMutability": "nonpayable",
      "type": "function"
    },
    {
      "inputs": [
        {
          "internalType": "uint256",
          "name": "repayAmount",
          "type": "uint256"
        }
      ],
      "name": "repayBorrow",
      "outputs": [
        {
          "internalType": "uint256",
          "name": "",
          "type": "uint256"
        }
      ],
      "stateMutability": "nonpayable",
      "type": "function"
    },
    {
      "inputs": [
        {
          "internalType": "address",
          "name": "borrower",
          "type": "address"
        },
        {
          "internalType": "uint256",
          "name": "repayAmount",
          "type": "uint256"
        }
      ],
      "name": "repayBorrowBehalf",
      "outputs": [
        {
          "internalType": "uint256",
          "name": "",
          "type": "uint256"
        }
      ],
      "stateMutability": "nonpayable",
      "type": "function"
    },
    {
      "inputs": [],
      "name": "reserveFactorMantissa",
      "outputs": [
        {
          "internalType": "uint256",
          "name": "",
          "type": "uint256"
        }
      ],
      "stateMutability": "view",
      "type": "function"
    },
    {
      "inputs": [
        {
          "internalType": "address",
          "name": "liquidator",
          "type": "address"
        },
        {
          "internalType": "address",
          "name": "borrower",
          "type": "address"
        },
        {
          "internalType": "uint256",
          "name": "seizeTokens",
          "type": "uint256"
        }
      ],
      "name": "seize",
      "outputs": [
        {
          "internalType": "uint256",
          "name": "",
          "type": "uint256"
        }
      ],
      "stateMutability": "nonpayable",
      "type": "function"
    },
    {
      "inputs": [
        {
          "internalType": "address",
          "name": "from",
          "type": "address"
        },
        {
          "internalType": "uint256",
          "name": "amount",
          "type": "uint256"
        }
      ],
      "name": "selfTransferIn",
      "outputs": [
        {
          "internalType": "uint256",
          "name": "",
          "type": "uint256"
        }
      ],
      "stateMutability": "nonpayable",
      "type": "function"
    },
    {
      "inputs": [
        {
          "internalType": "address",
          "name": "to",
          "type": "address"
        },
        {
          "internalType": "uint256",
          "name": "amount",
          "type": "uint256"
        }
      ],
      "name": "selfTransferOut",
      "outputs": [],
      "stateMutability": "nonpayable",
      "type": "function"
    },
    {
      "inputs": [],
      "name": "symbol",
      "outputs": [
        {
          "internalType": "string",
          "name": "",
          "type": "string"
        }
      ],
      "stateMutability": "view",
      "type": "function"
    },
    {
      "inputs": [],
      "name": "totalAdminFees",
      "outputs": [
        {
          "internalType": "uint256",
          "name": "",
          "type": "uint256"
        }
      ],
      "stateMutability": "view",
      "type": "function"
    },
    {
      "inputs": [],
      "name": "totalBorrows",
      "outputs": [
        {
          "internalType": "uint256",
          "name": "",
          "type": "uint256"
        }
      ],
      "stateMutability": "view",
      "type": "function"
    },
    {
      "inputs": [],
      "name": "totalFuseFees",
      "outputs": [
        {
          "internalType": "uint256",
          "name": "",
          "type": "uint256"
        }
      ],
      "stateMutability": "view",
      "type": "function"
    },
    {
      "inputs": [],
      "name": "totalReserves",
      "outputs": [
        {
          "internalType": "uint256",
          "name": "",
          "type": "uint256"
        }
      ],
      "stateMutability": "view",
      "type": "function"
    },
    {
      "inputs": [],
      "name": "totalSupply",
      "outputs": [
        {
          "internalType": "uint256",
          "name": "",
          "type": "uint256"
        }
      ],
      "stateMutability": "view",
      "type": "function"
    },
    {
      "inputs": [],
      "name": "underlying",
      "outputs": [
        {
          "internalType": "address",
          "name": "",
          "type": "address"
        }
      ],
      "stateMutability": "view",
      "type": "function"
    }
  ],
  "transactionHash": "0x7f9b44ace46ed0976ccfb5d440022d4bc489e67a15f9354729bf01d50a4bcf55",
  "args": [],
  "numDeployments": 47,
  "bytecode": {
    "object": "0x608060405234801561001057600080fd5b506158e880620000216000396000f3fe6080604052600436106102515760003560e01c80636c540baf11610139578063aa5af0fd116100b6578063cb2ef6f71161007a578063cb2ef6f714610714578063db006a751461074b578063dbfe7c191461076b578063dc028ab114610781578063f3fdb15a14610797578063f5e3c462146107b757610251565b8063aa5af0fd1461067d578063ac784ddc14610693578063b2a02ff1146106b8578063be99f119146106d8578063c5ebeaec146106f457610251565b80638f840ddd116100fd5780638f840ddd146105f257806395d89b4114610608578063a03dce8d1461061d578063a0712d681461063d578063a7b820df1461065d57610251565b80636c540baf146105665780636f307dc31461057c578063852a12e31461059c57806389cd9855146105bc5780638d02d9a1146105dc57610251565b80632608f818116101d257806356e677281161019657806356e67728146104b35780635c60da1b146104d35780635fe3b567146104f357806361feacff146105135780636333d001146105295780636752e7021461054b57610251565b80632608f8181461041c578063313ce5671461043c5780633b1d21a21461046857806347bd37181461047d57806350d85b731461049357610251565b806315761d511161021957806315761d5114610390578063173b9904146103c857806318160ddd146103de5780631db78944146103f4578063219ef65c146103fc57610251565b8063067db1b3146102d557806306db3ecd146102f757806306fdde03146103175780630e75270214610342578063135f133414610370575b34801561025d57600080fd5b5060006102756000356001600160e01b0319166107d7565b90506001600160a01b0381166102b157604051630a82dd7360e31b81526001600160e01b03196000351660048201526024015b60405180910390fd5b3660008037600080366000845af43d6000803e8080156102d0573d6000f35b3d6000fd5b3480156102e157600080fd5b506102f56102f0366004614ec7565b61083a565b005b34801561030357600080fd5b506102f5610312366004614fcb565b61087f565b34801561032357600080fd5b5061032c61098d565b60405161033991906150e5565b60405180910390f35b34801561034e57600080fd5b5061036261035d3660046150f8565b610a1b565b604051908152602001610339565b34801561037c57600080fd5b5061036261038b366004614ec7565b610ad6565b34801561039c57600080fd5b506001546103b0906001600160a01b031681565b6040516001600160a01b039091168152602001610339565b3480156103d457600080fd5b50610362600b5481565b3480156103ea57600080fd5b5061036260125481565b6102f5610b22565b34801561040857600080fd5b506102f561041736600461512b565b610c60565b34801561042857600080fd5b50610362610437366004614ec7565b6110bc565b34801561044857600080fd5b506005546104569060ff1681565b60405160ff9091168152602001610339565b34801561047457600080fd5b50610362611177565b34801561048957600080fd5b50610362600e5481565b34801561049f57600080fd5b506102f56104ae366004615201565b611186565b3480156104bf57600080fd5b506102f56104ce366004615293565b61120a565b3480156104df57600080fd5b506000546103b0906001600160a01b031681565b3480156104ff57600080fd5b506006546103b0906001600160a01b031681565b34801561051f57600080fd5b5061036260105481565b34801561053557600080fd5b5061053e61125c565b60405161033991906152dc565b34801561055757600080fd5b50610362666379da05b6000081565b34801561057257600080fd5b50610362600c5481565b34801561058857600080fd5b506016546103b0906001600160a01b031681565b3480156105a857600080fd5b506103626105b73660046150f8565b611266565b3480156105c857600080fd5b506102f56105d7366004615329565b611315565b3480156105e857600080fd5b5061036260095481565b3480156105fe57600080fd5b50610362600f5481565b34801561061457600080fd5b5061032c6113e9565b34801561062957600080fd5b506103626106383660046150f8565b6113f6565b34801561064957600080fd5b506103626106583660046150f8565b6114f7565b34801561066957600080fd5b506103626106783660046150f8565b6115a8565b34801561068957600080fd5b50610362600d5481565b34801561069f57600080fd5b506106a8600081565b6040519015158152602001610339565b3480156106c457600080fd5b506103626106d3366004615362565b6116f3565b3480156106e457600080fd5b5061036267016345785d8a000081565b34801561070057600080fd5b5061036261070f3660046150f8565b61171f565b34801561072057600080fd5b5060408051808201909152600e81526d43457263323044656c656761746560901b602082015261032c565b34801561075757600080fd5b506103626107663660046150f8565b6117ce565b34801561077757600080fd5b50610362600a5481565b34801561078d57600080fd5b5061036260115481565b3480156107a357600080fd5b506007546103b0906001600160a01b031681565b3480156107c357600080fd5b506103626107d23660046153a3565b61187d565b6001600160e01b03198116600090815260008051602061589c833981519152602081905260408220546001600160a01b03168061083357604051631f3f429960e31b81526001600160e01b0319851660048201526024016102a8565b9392505050565b3330146108715760405162461bcd60e51b815260206004820152600560248201526410b9b2b63360d91b60448201526064016102a8565b61087b828261193a565b5050565b60006702c68af0bb14000090506000896001600160a01b031663313ce5676040518163ffffffff1660e01b8152600401602060405180830381865afa1580156108cc573d6000803e3d6000fd5b505050506040513d601f19601f820116820180604052508101906108f091906153e5565b9050610903898989858a8a878b8b610c60565b601680546001600160a01b0319166001600160a01b038c16908117909155604080516318160ddd60e01b815290516318160ddd916004808201926020929091908290030181865afa15801561095c573d6000803e3d6000fd5b505050506040513d601f19601f820116820180604052508101906109809190615402565b5050505050505050505050565b6003805461099a9061541b565b80601f01602080910402602001604051908101604052809291908181526020018280546109c69061541b565b8015610a135780601f106109e857610100808354040283529160200191610a13565b820191906000526020600020905b8154815290600101906020018083116109f657829003601f168201915b505050505081565b600154600654604051631beb2b9760e31b81526000926001600160a01b039081169263df595cb892610a6492909116903390309087356001600160e01b03191690600401615450565b602060405180830381865afa158015610a81573d6000803e3d6000fd5b505050506040513d601f19601f82011682018060405250810190610aa59190615483565b610ac15760405162461bcd60e51b81526004016102a8906154a0565b6000610acc836119bb565b509150505b919050565b6000333014610b0f5760405162461bcd60e51b815260206004820152600560248201526410b9b2b63360d91b60448201526064016102a8565b610b198383611a4c565b90505b92915050565b333014801590610ba45750600660009054906101000a90046001600160a01b03166001600160a01b031663dd5cd22c6040518163ffffffff1660e01b8152600401602060405180830381865afa158015610b80573d6000803e3d6000fd5b505050506040513d601f19601f82011682018060405250810190610ba49190615483565b15610c5e57600154600080546040516345cc970560e01b81526001600160a01b039182166004820152919283928392909116906345cc970590602401600060405180830381865afa158015610bfd573d6000803e3d6000fd5b505050506040513d6000823e601f3d908101601f19168201604052610c2591908101906154c8565b60005492955090935091506001600160a01b03808516911614610c5257610c4d838383611c1f565b610c5a565b610c5a611dbd565b5050505b565b336001600160a01b03891614610ca15760405162461bcd60e51b815260206004820152600660248201526510b0b236b4b760d11b60448201526064016102a8565b600c54158015610cb15750600d54155b610cec5760405162461bcd60e51b815260206004820152600c60248201526b085a5b9a5d1a585b1a5e995960a21b60448201526064016102a8565b600180546001600160a01b0319166001600160a01b038a16179055600886905585610d4b5760405162461bcd60e51b815260206004820152600f60248201526e02165786368616e6765526174653e3608c1b60448201526064016102a8565b600680546001600160a01b0319166001600160a01b038b81169190911790915543600c55670de0b6b3a7640000600d55604080516310c8fc9560e11b8152905191891691632191f92a916004808201926020929091908290030181865afa158015610dba573d6000803e3d6000fd5b505050506040513d601f19601f82011682018060405250810190610dde9190615483565b610e145760405162461bcd60e51b8152602060048201526007602482015266216e6f7449726d60c81b60448201526064016102a8565b600780546001600160a01b0319166001600160a01b038916908117909155604080516000815260208101929092527fedffc32e068c7c95dfd4bdfd5c4d939a084d6b11c4199eac8436ed234d72f926910160405180910390a18451610e80906003906020880190614e19565b508351610e94906004906020870190614e19565b506005805460ff191660ff8516179055600a54600954670de0b6b3a76400009190610ebf908561557e565b610ec9919061557e565b1115610f015760405162461bcd60e51b8152602060048201526007602482015266085c998e9cd95d60ca1b60448201526064016102a8565b600b8290556040805160008152602081018490527faaa68312e2ea9d50e16af5068410ab56e1a1fd06037b1a35664812c30f821460910160405180910390a1600019811415610f4f57506009545b6001546040805163dd86fea160e01b815290516000926001600160a01b03169163dd86fea19160048083019260209291908290030181865afa158015610f99573d6000803e3d6000fd5b505050506040513d601f19601f82011682018060405250810190610fbd9190615402565b9050670de0b6b3a76400008183600b54610fd7919061557e565b610fe1919061557e565b111561101f5760405162461bcd60e51b815260206004820152600d60248201526c0858591b5a5b9199594e9cd95d609a1b60448201526064016102a8565b60098290556040805160008152602081018490527fcdd0b588250e1398549f79cfdb8217c186688822905d6715b0834ea1c865594a910160405180910390a1600a8190556040805160008152602081018390527f92eef861b6533b7d3417f39c2ad7b460eed4e88a32fa3604f30e718b7602e7dc910160405180910390a150506002805460ff60b01b1916600160b01b1790555050505050505050565b600154600654604051631beb2b9760e31b81526000926001600160a01b039081169263df595cb89261110592909116903390309087356001600160e01b03191690600401615450565b602060405180830381865afa158015611122573d6000803e3d6000fd5b505050506040513d601f19601f820116820180604052508101906111469190615483565b6111625760405162461bcd60e51b81526004016102a8906154a0565b600061116e8484611f2e565b50949350505050565b6000611181611fc1565b905090565b61118e61202e565b6111c35760405162461bcd60e51b815260206004820152600660248201526510b0b236b4b760d11b60448201526064016102a8565b611204848484848080601f016020809104026020016040519081016040528093929190818152602001838380828437600092019190915250611c1f92505050565b50505050565b3330148061121b575061121b61202e565b6112595760405162461bcd60e51b815260206004820152600f60248201526e10b9b2b633103e3e1010b0b236b4b760891b60448201526064016102a8565b50565b606061118161219f565b600154600654604051631beb2b9760e31b81526000926001600160a01b039081169263df595cb8926112af92909116903390309087356001600160e01b03191690600401615450565b602060405180830381865afa1580156112cc573d6000803e3d6000fd5b505050506040513d601f19601f820116820180604052508101906112f09190615483565b61130c5760405162461bcd60e51b81526004016102a8906154a0565b610b1c82612211565b6006546001546001600160a01b039182169116331480156113935750806001600160a01b0316632f1069ba6040518163ffffffff1660e01b8152600401602060405180830381865afa15801561136f573d6000803e3d6000fd5b505050506040513d601f19601f820116820180604052508101906113939190615483565b6113df5760405162461bcd60e51b815260206004820152601f60248201527f21756e617574686f72697a6564202d206e6f2061646d696e207269676874730060448201526064016102a8565b610c5a838361228e565b6004805461099a9061541b565b600080611402816122af565b306001600160a01b031663a6afed956040518163ffffffff1660e01b81526004016020604051808303816000875af1158015611442573d6000803e3d6000fd5b505050506040513d601f19601f820116820180604052508101906114669190615402565b5043600c54146114835761147c600a6035612373565b91506114e8565b8261148c611fc1565b101561149e5761147c600e6034612373565b6011548311156114b45761147c60026036612373565b6000836011546114c49190615596565b60118190556001549091506114e2906001600160a01b03168561193a565b60009250505b6114f1816123ec565b50919050565b600154600654604051631beb2b9760e31b81526000926001600160a01b039081169263df595cb89261154092909116903390309087356001600160e01b03191690600401615450565b602060405180830381865afa15801561155d573d6000803e3d6000fd5b505050506040513d601f19601f820116820180604052508101906115819190615483565b61159d5760405162461bcd60e51b81526004016102a8906154a0565b6000610acc8361246f565b6000806115b4816122af565b306001600160a01b031663a6afed956040518163ffffffff1660e01b81526004016020604051808303816000875af11580156115f4573d6000803e3d6000fd5b505050506040513d601f19601f820116820180604052508101906116189190615402565b5043600c541461162e5761147c600a6039612373565b82611637611fc1565b10156116495761147c600e6038612373565b60105483111561165f5761147c6002603a612373565b8260105461166d9190615596565b601055600654604080516303e1469160e61b815290516116e5926001600160a01b03169163f851a4409160048083019260209291908290030181865afa1580156116bb573d6000803e3d6000fd5b505050506040513d601f19601f820116820180604052508101906116df91906155c3565b8461193a565b60005b91506114f1816123ec565b60006001611700816122af565b61170c338686866124ec565b9150611717816123ec565b509392505050565b600154600654604051631beb2b9760e31b81526000926001600160a01b039081169263df595cb89261176892909116903390309087356001600160e01b03191690600401615450565b602060405180830381865afa158015611785573d6000803e3d6000fd5b505050506040513d601f19601f820116820180604052508101906117a99190615483565b6117c55760405162461bcd60e51b81526004016102a8906154a0565b610b1c826129d0565b600154600654604051631beb2b9760e31b81526000926001600160a01b039081169263df595cb89261181792909116903390309087356001600160e01b03191690600401615450565b602060405180830381865afa158015611834573d6000803e3d6000fd5b505050506040513d601f19601f820116820180604052508101906118589190615483565b6118745760405162461bcd60e51b81526004016102a8906154a0565b610b1c82612a4b565b600154600654604051631beb2b9760e31b81526000926001600160a01b039081169263df595cb8926118c692909116903390309087356001600160e01b03191690600401615450565b602060405180830381865afa1580156118e3573d6000803e3d6000fd5b505050506040513d601f19601f820116820180604052508101906119079190615483565b6119235760405162461bcd60e51b81526004016102a8906154a0565b6000611930858585612ac8565b5095945050505050565b604080516001600160a01b038416602482015260448082018490528251808303909101815260649091018252602080820180516001600160e01b031663a9059cbb60e01b1790528251808401909352601983527f544f4b454e5f5452414e534645525f4f55545f4641494c4544000000000000009083015261087b91612bc2565b60008060006119c9816122af565b306001600160a01b031663a6afed956040518163ffffffff1660e01b81526004016020604051808303816000875af1158015611a09573d6000803e3d6000fd5b505050506040513d601f19601f82011682018060405250810190611a2d9190615402565b50611a39333386612c19565b92509250611a46816123ec565b50915091565b6016546040516370a0823160e01b815230600482015260009182916001600160a01b03909116906370a0823190602401602060405180830381865afa158015611a99573d6000803e3d6000fd5b505050506040513d601f19601f82011682018060405250810190611abd9190615402565b9050611b4d6323b872dd60e01b853086604051602401611adf939291906155e0565b604051602081830303815290604052906001600160e01b0319166020820180516001600160e01b0383818316178352505050506040518060400160405280601881526020017f544f4b454e5f5452414e534645525f494e5f4641494c45440000000000000000815250612bc2565b6016546040516370a0823160e01b81523060048201526000916001600160a01b0316906370a0823190602401602060405180830381865afa158015611b96573d6000803e3d6000fd5b505050506040513d601f19601f82011682018060405250810190611bba9190615402565b905081811015611c0c5760405162461bcd60e51b815260206004820152601a60248201527f544f4b454e5f5452414e534645525f494e5f4f564552464c4f5700000000000060448201526064016102a8565b611c168282615596565b95945050505050565b6001546000546040516338e6a07360e11b81526001600160a01b039182166004820152858216602482015284151560448201529116906371cd40e690606401602060405180830381865afa158015611c7b573d6000803e3d6000fd5b505050506040513d601f19601f82011682018060405250810190611c9f9190615483565b611cd35760405162461bcd60e51b8152602060048201526005602482015264085a5b5c1b60da1b60448201526064016102a8565b600080546001600160a01b038581166001600160a01b031983161790925516611cfa611dbd565b303b611d0e57611d098261120a565b611d70565b611d6e3083604051602401611d2391906150e5565b60408051601f19818403018152918152602080830180516001600160e01b0316630adccee560e31b17905281518083019092526007825266216265636f6d6560c81b90820152613022565b505b600054604080516001600160a01b03808516825290921660208301527fd604de94d45953f9138079ec1b82d533cb2160c906d1076d1f7ed54befbca97a910160405180910390a150505050565b600154600080546040516311a0e21760e01b81526001600160a01b039182166004820152919216906311a0e21790602401600060405180830381865afa158015611e0b573d6000803e3d6000fd5b505050506040513d6000823e601f3d908101601f19168201604052611e339190810190615628565b90506000611e3f61219f565b905081516001148015611e53575080516001145b8015611ea4575080600081518110611e6d57611e6d6156c2565b60200260200101516001600160a01b031682600081518110611e9157611e916156c2565b60200260200101516001600160a01b0316145b15611ead575050565b60005b8151811015611eed57611edb828281518110611ece57611ece6156c2565b60200260200101516130b5565b80611ee5816156d8565b915050611eb0565b5060005b8251811015610c5a57611f1c838281518110611f0f57611f0f6156c2565b60200260200101516131e5565b80611f26816156d8565b915050611ef1565b6000806000611f3c816122af565b306001600160a01b031663a6afed956040518163ffffffff1660e01b81526004016020604051808303816000875af1158015611f7c573d6000803e3d6000fd5b505050506040513d601f19601f82011682018060405250810190611fa09190615402565b50611fac338686612c19565b92509250611fb9816123ec565b509250929050565b6016546040516370a0823160e01b81523060048201526000916001600160a01b0316906370a0823190602401602060405180830381865afa15801561200a573d6000803e3d6000fd5b505050506040513d601f19601f820116820180604052508101906111819190615402565b600654604080516303e1469160e61b815290516000926001600160a01b031691829163f851a440916004808201926020929091908290030181865afa15801561207b573d6000803e3d6000fd5b505050506040513d601f19601f8201168201806040525081019061209f91906155c3565b6001600160a01b0316336001600160a01b031614801561211c5750806001600160a01b0316630a755ec26040518163ffffffff1660e01b8152600401602060405180830381865afa1580156120f8573d6000803e3d6000fd5b505050506040513d601f19601f8201168201806040525081019061211c9190615483565b8061219957506001546001600160a01b0316331480156121995750806001600160a01b0316632f1069ba6040518163ffffffff1660e01b8152600401602060405180830381865afa158015612175573d6000803e3d6000fd5b505050506040513d601f19601f820116820180604052508101906121999190615483565b91505090565b606060008051602061589c83398151915260020180548060200260200160405190810160405280929190818152602001828054801561220757602002820191906000526020600020905b81546001600160a01b031681526001909101906020018083116121e9575b5050505050905090565b60008061221d816122af565b306001600160a01b031663a6afed956040518163ffffffff1660e01b81526004016020604051808303816000875af115801561225d573d6000803e3d6000fd5b505050506040513d601f19601f820116820180604052508101906122819190615402565b506116e8336000856132dd565b6001600160a01b038116156122a6576122a6816130b5565b61087b826131e5565b600254600160b01b900460ff166122f55760405162461bcd60e51b815260206004820152600a6024820152691c994b595b9d195c995960b21b60448201526064016102a8565b8061236357600660009054906101000a90046001600160a01b03166001600160a01b031663c90c20b16040518163ffffffff1660e01b8152600401600060405180830381600087803b15801561234a57600080fd5b505af115801561235e573d6000803e3d6000fd5b505050505b506002805460ff60b01b19169055565b60007f45b96fe442630264581b197e84bbada861235052c5a1aadfff9ea4e40a969aa08360118111156123a8576123a86155ad565b8360618111156123ba576123ba6155ad565b60408051928352602083019190915260009082015260600160405180910390a1826011811115610b1957610b196155ad565b6002805460ff60b01b1916600160b01b1790558061125957600660009054906101000a90046001600160a01b03166001600160a01b031663632e51426040518163ffffffff1660e01b8152600401600060405180830381600087803b15801561245457600080fd5b505af1158015612468573d6000803e3d6000fd5b5050505050565b600080600061247d816122af565b306001600160a01b031663a6afed956040518163ffffffff1660e01b81526004016020604051808303816000875af11580156124bd573d6000803e3d6000fd5b505050506040513d601f19601f820116820180604052508101906124e19190615402565b50611a393385613915565b60065460405163d02f735160e01b81523060048201526001600160a01b0386811660248301528581166044830152848116606483015260848201849052600092839291169063d02f73519060a4016020604051808303816000875af1158015612559573d6000803e3d6000fd5b505050506040513d601f19601f8201168201806040525081019061257d9190615402565b9050801561259a576125926003601d83613c8f565b9150506129c8565b846001600160a01b0316846001600160a01b031614156125c0576125926006601e612373565b612625604080516101808101909152806000815260200160008152602001600081526020016000815260200160008152602001600081526020016000815260200160008152602001600081526020016000815260200160008152602001600081525090565b6001600160a01b0385166000908152601360205260409020546126489085613d31565b6020830181905282826003811115612662576126626155ad565b6003811115612673576126736155ad565b905250600090508151600381111561268d5761268d6155ad565b146126bd576126b46009601c836000015160038111156126af576126af6155ad565b613c8f565b925050506129c8565b6126dc846040518060200160405280666379da05b60000815250613d5c565b6080820152604080516020810190915267016345785d8a00008152612702908590613d5c565b610140820181905260808201516127199086615596565b6127239190615596565b6060820152306001600160a01b031663bd6d894d6040518163ffffffff1660e01b8152600401602060405180830381865afa158015612766573d6000803e3d6000fd5b505050506040513d601f19601f8201168201806040525081019061278a9190615402565b60c0820190815260408051602081019091529051815260808201516127af9190613d7f565b60a0820152604080516020810190915260c082015181526101408201516127d69190613d7f565b61016082015260a0810151600f546127ee919061557e565b60e0820152610140810151608082015160125461280b9190615596565b6128159190615596565b61012082015261016081015160115461282e919061557e565b6101008201526001600160a01b038616600090815260136020526040902054606082015161285c9190613d97565b6040830181905282826003811115612876576128766155ad565b6003811115612887576128876155ad565b90525060009050815160038111156128a1576128a16155ad565b146128c3576126b46009601b836000015160038111156126af576126af6155ad565b60e0810151600f556101208101516012556101008101516011556020808201516001600160a01b0387811660008181526013855260408082209490945583860151928b16808252908490209290925560608501519251928352909290916000805160206158bc833981519152910160405180910390a3306001600160a01b0316856001600160a01b03166000805160206158bc833981519152836080015160405161297091815260200190565b60405180910390a360a081015160e08201516040805130815260208101939093528201527fa91e67c5ea634cd43a12c5a482724b03de01e85ca68702a53d0c2f45cb7c1dc59060600160405180910390a16000925050505b949350505050565b6000806129dc816122af565b306001600160a01b031663a6afed956040518163ffffffff1660e01b81526004016020604051808303816000875af1158015612a1c573d6000803e3d6000fd5b505050506040513d601f19601f82011682018060405250810190612a409190615402565b506116e83384613dbd565b600080612a57816122af565b306001600160a01b031663a6afed956040518163ffffffff1660e01b81526004016020604051808303816000875af1158015612a97573d6000803e3d6000fd5b505050506040513d601f19601f82011682018060405250810190612abb9190615402565b506116e8338460006132dd565b6000806000612ad6816122af565b306001600160a01b031663a6afed956040518163ffffffff1660e01b81526004016020604051808303816000875af1158015612b16573d6000803e3d6000fd5b505050506040513d601f19601f82011682018060405250810190612b3a9190615402565b50836001600160a01b031663a6afed956040518163ffffffff1660e01b81526004016020604051808303816000875af1158015612b7b573d6000803e3d6000fd5b505050506040513d601f19601f82011682018060405250810190612b9f9190615402565b50612bac33878787614150565b92509250612bb9816123ec565b50935093915050565b601654600090612bdc906001600160a01b03168484613022565b805190915015610c5a5780806020019051810190612bfa9190615483565b82906112045760405162461bcd60e51b81526004016102a891906150e5565b600654604051631200453160e11b81523060048201526001600160a01b03858116602483015284811660448301526064820184905260009283928392909116906324008a62906084016020604051808303816000875af1158015612c81573d6000803e3d6000fd5b505050506040513d601f19601f82011682018060405250810190612ca59190615402565b90508015612cc657612cba6003604383613c8f565b6000925092505061301a565b43600c5414612cdb57612cba600a6044612373565b612d246040805161010081019091528060008152602001600081526020016000815260200160008152602001600081526020016000815260200160008152602001600081525090565b6001600160a01b0386166000908152601560205260409020600101546060820152306040516305eff7ef60e21b81526001600160a01b03888116600483015291909116906317bfdfbc90602401602060405180830381865afa158015612d8e573d6000803e3d6000fd5b505050506040513d601f19601f82011682018060405250810190612db29190615402565b6080820152600019851415612dd05760808101516040820152612dd8565b604081018590525b612de6878260400151611a4c565b60e082018190526080820151612dfb91613d31565b60a0830181905260208301826003811115612e1857612e186155ad565b6003811115612e2957612e296155ad565b9052506000905081602001516003811115612e4657612e466155ad565b14612eb95760405162461bcd60e51b815260206004820152603a60248201527f52455041595f424f52524f575f4e45575f4143434f554e545f424f52524f575f60448201527f42414c414e43455f43414c43554c4154494f4e5f4641494c454400000000000060648201526084016102a8565b612ec9600e548260e00151613d31565b60c0830181905260208301826003811115612ee657612ee66155ad565b6003811115612ef757612ef76155ad565b9052506000905081602001516003811115612f1457612f146155ad565b14612f7b5760405162461bcd60e51b815260206004820152603160248201527f52455041595f424f52524f575f4e45575f544f54414c5f42414c414e43455f43604482015270105310d55310551253d397d19052531151607a1b60648201526084016102a8565b60a081810180516001600160a01b03898116600081815260156020908152604091829020948555600d5460019095019490945560c0870151600e81905560e088015195518251948f16855294840192909252820193909352606081019190915260808101919091527f1a2a22cb034d26d1854bdc6666a5b91fe25efbbb5dcad3b0355478d6f5c362a1910160405180910390a160e00151600093509150505b935093915050565b6060600080856001600160a01b03168560405161303f91906156f3565b6000604051808303816000865af19150503d806000811461307c576040519150601f19603f3d011682016040523d82523d6000602084013e613081565b606091505b509150915081611c165780511561309b5780518082602001fd5b8360405162461bcd60e51b81526004016102a891906150e5565b60008051602061589c8339815191526130cd82614603565b60005b600282015460ff82161015610c5a57826001600160a01b0316826002018260ff1681548110613101576131016156c2565b6000918252602090912001546001600160a01b031614156131d35760028201805461312e90600190615596565b8154811061313e5761313e6156c2565b6000918252602090912001546002830180546001600160a01b039092169160ff841690811061316f5761316f6156c2565b9060005260206000200160006101000a8154816001600160a01b0302191690836001600160a01b03160217905550816002018054806131b0576131b061570f565b600082815260209020810160001990810180546001600160a01b03191690550190555b806131dd81615725565b9150506130d0565b60008051602061589c83398151915260005b600282015460ff8216101561329d57826001600160a01b0316826002018260ff1681548110613228576132286156c2565b6000918252602090912001546001600160a01b0316141561328b5760405162461bcd60e51b815260206004820152601760248201527f657874656e73696f6e20616c726561647920616464656400000000000000000060448201526064016102a8565b8061329581615725565b9150506131f7565b506132a782614890565b6002018054600181018255600091825260209091200180546001600160a01b0319166001600160a01b0392909216919091179055565b60008215806132ea575081155b6133365760405162461bcd60e51b815260206004820152601860248201527f2172656465656d20746f6b656e73206f7220616d6f756e74000000000000000060448201526064016102a8565b6133776040805160e0810190915280600081526020016000815260200160008152602001600081526020016000815260200160008152602001600081525090565b306001600160a01b031663bd6d894d6040518163ffffffff1660e01b8152600401602060405180830381865afa1580156133b5573d6000803e3d6000fd5b505050506040513d601f19601f820116820180604052508101906133d99190615402565b6040820152831561349c57611388846012546133f59190615596565b10156134015760125493505b60608101849052604080516020810182529082015181526134229085614a7a565b608083018190526020830182600381111561343f5761343f6155ad565b6003811115613450576134506155ad565b905250600090508160200151600381111561346d5761346d6155ad565b146134975761348f6009602c836020015160038111156126af576126af6155ad565b915050610833565b6135de565b60001983141561352457600654604051630cbb414760e11b81526001600160a01b0387811660048301523060248301526000604483015290911690631976828e90606401602060405180830381865afa1580156134fd573d6000803e3d6000fd5b505050506040513d601f19601f820116820180604052508101906135219190615402565b92505b6000306001600160a01b0316634aeb3d9a6040518163ffffffff1660e01b8152600401602060405180830381865afa158015613564573d6000803e3d6000fd5b505050506040513d601f19601f820116820180604052508101906135889190615402565b90506103e86135978583615596565b10156135a1578093505b6135af848360400151614acc565b606083018190526012546103e8916135c691615596565b10156135d55760125460608301525b50608081018390525b600654606082015160405163eabe7d9160e01b81526000926001600160a01b03169163eabe7d91916136179130918b91906004016155e0565b6020604051808303816000875af1158015613636573d6000803e3d6000fd5b505050506040513d601f19601f8201168201806040525081019061365a9190615402565b905080156136785761366f6003602b83613c8f565b92505050610833565b43600c541461368d5761366f600a602f612373565b61369d6012548360600151613d31565b60a08401819052602084018260038111156136ba576136ba6155ad565b60038111156136cb576136cb6155ad565b90525060009050826020015160038111156136e8576136e86155ad565b1461370a5761366f60096031846020015160038111156126af576126af6155ad565b6001600160a01b03861660009081526013602052604090205460608301516137329190613d31565b60c084018190526020840182600381111561374f5761374f6155ad565b6003811115613760576137606155ad565b905250600090508260200151600381111561377d5761377d6155ad565b1461379f5761366f60096030846020015160038111156126af576126af6155ad565b81608001516137ac611fc1565b10156137be5761366f600e6032612373565b60a082015160125560c08201516001600160a01b03871660009081526013602052604090205560808201516137f490879061193a565b306001600160a01b0316866001600160a01b03166000805160206158bc833981519152846060015160405161382b91815260200190565b60405180910390a36080820151606080840151604080516001600160a01b038b16815260208101949094528301527fe5b754fb1abb7f01b499791d0b820ae3b6af3424ac1c59768edb53f4ec31a929910160405180910390a1600654608083015160608401516040516351dff98960e01b81523060048201526001600160a01b038a81166024830152604482019390935260648101919091529116906351dff98990608401600060405180830381600087803b1580156138ea57600080fd5b505af11580156138fe573d6000803e3d6000fd5b506000925061390b915050565b9695505050505050565b600654604051634ef4c3e160e01b8152600091829182916001600160a01b031690634ef4c3e19061394e903090899089906004016155e0565b6020604051808303816000875af115801561396d573d6000803e3d6000fd5b505050506040513d601f19601f820116820180604052508101906139919190615402565b905080156139b2576139a66003602183613c8f565b60009250925050613c88565b43600c54146139c7576139a6600a6024612373565b613a086040805160e0810190915280600081526020016000815260200160008152602001600081526020016000815260200160008152602001600081525090565b306001600160a01b031663bd6d894d6040518163ffffffff1660e01b8152600401602060405180830381865afa158015613a46573d6000803e3d6000fd5b505050506040513d601f19601f82011682018060405250810190613a6a9190615402565b6040820152613a798686611a4c565b60c0820181905260408051602081018252908301518152613a9a9190614b07565b6060830181905260208301826003811115613ab757613ab76155ad565b6003811115613ac857613ac86155ad565b9052506000905081602001516003811115613ae557613ae56155ad565b14613b325760405162461bcd60e51b815260206004820181905260248201527f4d494e545f45584348414e47455f43414c43554c4154494f4e5f4641494c454460448201526064016102a8565b6000816060015111613b865760405162461bcd60e51b815260206004820152601a60248201527f4d494e545f5a45524f5f43544f4b454e535f52454a454354454400000000000060448201526064016102a8565b8060600151601254613b98919061557e565b608082015260608101516001600160a01b038716600090815260136020526040902054613bc5919061557e565b60a0820181905260808201516012556001600160a01b0387166000818152601360209081526040918290209390935560c0840151606080860151835194855294840191909152908201929092527f4c209b5fc8ad50758f13e2e1088ba56a560dff690a1c6fef26394f4c03821c4f910160405180910390a1856001600160a01b0316306001600160a01b03166000805160206158bc8339815191528360600151604051613c7491815260200190565b60405180910390a360c00151600093509150505b9250929050565b60007f45b96fe442630264581b197e84bbada861235052c5a1aadfff9ea4e40a969aa0846011811115613cc457613cc46155ad565b846061811115613cd657613cd66155ad565b604080519283526020830191909152810184905260600160405180910390a16003846011811115613d0957613d096155ad565b14613d2557836011811115613d2057613d206155ad565b6129c8565b6129c8826103e861557e565b600080838311613d50576000613d478486615596565b91509150613c88565b50600390506000613c88565b6000670de0b6b3a7640000613d75848460000151614b17565b610b19919061575b565b600080613d8c8484614b59565b90506129c881614b8a565b600080838301848110613daf57600092509050613c88565b600260009250925050613c88565b60065460405163368f515360e21b815260009182916001600160a01b039091169063da3d454c90613df6903090889088906004016155e0565b6020604051808303816000875af1158015613e15573d6000803e3d6000fd5b505050506040513d601f19601f82011682018060405250810190613e399190615402565b90508015613e5657613e4e6003601083613c8f565b915050610b1c565b43600c5414613e6b57613e4e600a600c612373565b6000613e75611fc1565b905083811015613e9457613e8b600e600b612373565b92505050610b1c565b613ec0604080516080810190915280600081526020016000815260200160008152602001600081525090565b306040516305eff7ef60e21b81526001600160a01b03888116600483015291909116906317bfdfbc90602401602060405180830381865afa158015613f09573d6000803e3d6000fd5b505050506040513d601f19601f82011682018060405250810190613f2d9190615402565b60208201819052613f3e9086613d97565b6040830181905282826003811115613f5857613f586155ad565b6003811115613f6957613f696155ad565b9052506000905081516003811115613f8357613f836155ad565b14613faf57613fa56009600e836000015160038111156126af576126af6155ad565b9350505050610b1c565b6006546040828101519051631de6c8a560e21b815230600482015260248101919091526001600160a01b039091169063779b229490604401602060405180830381865afa158015614004573d6000803e3d6000fd5b505050506040513d601f19601f820116820180604052508101906140289190615402565b9250821561403d57613fa56003601085613c8f565b614049600e5486613d97565b6060830181905282826003811115614063576140636155ad565b6003811115614074576140746155ad565b905250600090508151600381111561408e5761408e6155ad565b146140b057613fa56009600d836000015160038111156126af576126af6155ad565b6040808201516001600160a01b0388166000908152601560205291909120908155600d546001909101556060810151600e556140ec868661193a565b60408082015160608084015183516001600160a01b038b168152602081018a9052938401929092528201527f13ed6866d4e1ee6da46f845c46d7e54120883d75c5ea9a2dacc1c4ca8984ab809060800160405180910390a160009695505050505050565b600654604051632fe3f38f60e11b81523060048201526001600160a01b03838116602483015286811660448301528581166064830152608482018590526000928392839290911690635fc7e71e9060a4016020604051808303816000875af11580156141c0573d6000803e3d6000fd5b505050506040513d601f19601f820116820180604052508101906141e49190615402565b90508015614205576141f96003601483613c8f565b600092509250506145fa565b43600c541461421a576141f9600a6018612373565b43846001600160a01b0316636c540baf6040518163ffffffff1660e01b8152600401602060405180830381865afa158015614259573d6000803e3d6000fd5b505050506040513d601f19601f8201168201806040525081019061427d9190615402565b1461428e576141f9600a6013612373565b866001600160a01b0316866001600160a01b031614156142b4576141f960066019612373565b846142c5576141f960076017612373565b6000198514156142db576141f960076016612373565b6000806142e9898989612c19565b9092509050811561431e57614310826011811115614309576143096155ad565b601a612373565b6000945094505050506145fa565b60065460405163c488847b60e01b815260009182916001600160a01b039091169063c488847b906143579030908c9088906004016155e0565b6040805180830381865afa158015614373573d6000803e3d6000fd5b505050506040513d601f19601f82011682018060405250810190614397919061576f565b909250905081156144065760405162461bcd60e51b815260206004820152603360248201527f4c49515549444154455f434f4d5054524f4c4c45525f43414c43554c4154455f604482015272105353d5539517d4d152569157d19052531151606a1b60648201526084016102a8565b6040516370a0823160e01b81526001600160a01b038b811660048301528291908a16906370a0823190602401602060405180830381865afa15801561444f573d6000803e3d6000fd5b505050506040513d601f19601f820116820180604052508101906144739190615402565b10156144c15760405162461bcd60e51b815260206004820152601860248201527f4c49515549444154455f5345495a455f544f4f5f4d554348000000000000000060448201526064016102a8565b60006001600160a01b0389163014156144e7576144e0308d8d856124ec565b905061455d565b60405163b2a02ff160e01b81526001600160a01b038a169063b2a02ff190614517908f908f9087906004016155e0565b6020604051808303816000875af1158015614536573d6000803e3d6000fd5b505050506040513d601f19601f8201168201806040525081019061455a9190615402565b90505b80156145945760405162461bcd60e51b8152602060048201526006602482015265217365697a6560d01b60448201526064016102a8565b604080516001600160a01b038e811682528d811660208301528183018790528b1660608201526080810184905290517f298637f684da70674f26509b10f07ec2fbc77a335ab1e7d6215a4b2484d8bb529181900360a00190a16000975092955050505050505b94509492505050565b6000816001600160a01b03166389f8132e6040518163ffffffff1660e01b8152600401600060405180830381865afa158015614643573d6000803e3d6000fd5b505050506040513d6000823e601f3d908101601f1916820160405261466b9190810190615793565b905060008051602061589c83398151915260005b82518161ffff161015611204576000838261ffff16815181106146a4576146a46156c2565b6020908102919091018101516001600160e01b031981166000908152918590526040909120549091506001600160a01b038681169116146146e7576146e7615830565b6001600160e01b0319811660009081526020849052604090205460018085018054600160a01b90930461ffff1692909161472091615596565b81548110614730576147306156c2565b90600052602060002090600891828204019190066004029054906101000a900460e01b846001018261ffff168154811061476c5761476c6156c2565b90600052602060002090600891828204019190066004026101000a81548163ffffffff021916908360e01c021790555080846000016000866001018461ffff16815481106147bc576147bc6156c2565b6000918252602080832060088304015460079092166004026101000a90910460e01b6001600160e01b03191683528201929092526040019020805461ffff60a01b1916600160a01b61ffff9390931692909202919091179055600184018054806148285761482861570f565b60008281526020808220600860001990940193840401805463ffffffff600460078716026101000a0219169055919092556001600160e01b0319909316815291849052506040902080546001600160b01b03191690558061488881615846565b91505061467f565b6000816001600160a01b03166389f8132e6040518163ffffffff1660e01b8152600401600060405180830381865afa1580156148d0573d6000803e3d6000fd5b505050506040513d6000823e601f3d908101601f191682016040526148f89190810190615793565b7fc8fcad8db84d3cc18b4c41d551ea0ee66dd599cde068d998e57d5e09332c131d5490915060008051602061589c8339815191529060005b835181101561246857600084828151811061494d5761494d6156c2565b6020908102919091018101516001600160e01b031981166000908152918690526040909120549091506001600160a01b031680156149b957604051632c18df3360e01b81526001600160e01b0319831660048201526001600160a01b03821660248201526044016102a8565b6040805180820182526001600160a01b03808a16825261ffff80881660208085019182526001600160e01b0319881660009081528b8252958620945185549251909316600160a01b026001600160b01b0319909216929093169190911717909155600180880180549182018155835291206008820401805460e085901c60046007909416939093026101000a92830263ffffffff909302191691909117905583614a6281615846565b94505050508080614a72906156d8565b915050614930565b600080600080614a8a8686614ba2565b90925090506000826003811115614aa357614aa36155ad565b14614ab45750915060009050613c88565b6000614abf82614b8a565b9350935050509250929050565b600081614ae184670de0b6b3a7640000615868565b614aeb919061575b565b9050614af78284615887565b15610b1c57610b1960018261557e565b600080600080614a8a8686614c1e565b6000610b1983836040518060400160405280601781526020017f6d756c7469706c69636174696f6e206f766572666c6f77000000000000000000815250614c91565b6040805160208101909152600081526040518060200160405280614b81856000015185614b17565b90529392505050565b8051600090610b1c90670de0b6b3a76400009061575b565b6000614bba6040518060200160405280600081525090565b600080614bcb866000015186614ce4565b90925090506000826003811115614be457614be46155ad565b14614c0357506040805160208101909152600081529092509050613c88565b60408051602081019091529081526000969095509350505050565b6000614c366040518060200160405280600081525090565b600080614c4b670de0b6b3a764000087614ce4565b90925090506000826003811115614c6457614c646155ad565b14614c8357506040805160208101909152600081529092509050613c88565b614abf818660000151614d23565b6000831580614c9e575082155b15614cab57506000610833565b6000614cb78486615868565b905083614cc4868361575b565b14839061116e5760405162461bcd60e51b81526004016102a891906150e5565b60008083614cf757506000905080613c88565b83830283614d05868361575b565b14614d1857600260009250925050613c88565b600092509050613c88565b6000614d3b6040518060200160405280600081525090565b600080614d5086670de0b6b3a7640000614ce4565b90925090506000826003811115614d6957614d696155ad565b14614d8857506040805160208101909152600081529092509050613c88565b600080614d958388614dee565b90925090506000826003811115614dae57614dae6155ad565b14614dd15781604051806020016040528060008152509550955050505050613c88565b604080516020810190915290815260009890975095505050505050565b60008082614e025750600190506000613c88565b6000614e0e848661575b565b915091509250929050565b828054614e259061541b565b90600052602060002090601f016020900481019282614e475760008555614e8d565b82601f10614e6057805160ff1916838001178555614e8d565b82800160010185558215614e8d579182015b82811115614e8d578251825591602001919060010190614e72565b50614e99929150614e9d565b5090565b5b80821115614e995760008155600101614e9e565b6001600160a01b038116811461125957600080fd5b60008060408385031215614eda57600080fd5b8235614ee581614eb2565b946020939093013593505050565b8035610ad181614eb2565b634e487b7160e01b600052604160045260246000fd5b604051601f8201601f1916810167ffffffffffffffff81118282101715614f3d57614f3d614efe565b604052919050565b600067ffffffffffffffff821115614f5f57614f5f614efe565b50601f01601f191660200190565b6000614f80614f7b84614f45565b614f14565b9050828152838383011115614f9457600080fd5b828260208301376000602084830101529392505050565b600082601f830112614fbc57600080fd5b610b1983833560208501614f6d565b600080600080600080600080610100898b031215614fe857600080fd5b8835614ff381614eb2565b9750602089013561500381614eb2565b9650604089013561501381614eb2565b9550606089013561502381614eb2565b9450608089013567ffffffffffffffff8082111561504057600080fd5b61504c8c838d01614fab565b955060a08b013591508082111561506257600080fd5b5061506f8b828c01614fab565b93505060c0890135915060e089013590509295985092959890939650565b60005b838110156150a8578181015183820152602001615090565b838111156112045750506000910152565b600081518084526150d181602086016020860161508d565b601f01601f19169290920160200192915050565b602081526000610b1960208301846150b9565b60006020828403121561510a57600080fd5b5035919050565b60ff8116811461125957600080fd5b8035610ad181615111565b60008060008060008060008060006101208a8c03121561514a57600080fd5b893561515581614eb2565b985060208a013561516581614eb2565b975061517360408b01614ef3565b965060608a0135955060808a013567ffffffffffffffff8082111561519757600080fd5b6151a38d838e01614fab565b965060a08c01359150808211156151b957600080fd5b506151c68c828d01614fab565b9450506151d560c08b01615120565b925060e08a013591506101008a013590509295985092959850929598565b801515811461125957600080fd5b6000806000806060858703121561521757600080fd5b843561522281614eb2565b93506020850135615232816151f3565b9250604085013567ffffffffffffffff8082111561524f57600080fd5b818701915087601f83011261526357600080fd5b81358181111561527257600080fd5b88602082850101111561528457600080fd5b95989497505060200194505050565b6000602082840312156152a557600080fd5b813567ffffffffffffffff8111156152bc57600080fd5b8201601f810184136152cd57600080fd5b6129c884823560208401614f6d565b6020808252825182820181905260009190848201906040850190845b8181101561531d5783516001600160a01b0316835292840192918401916001016152f8565b50909695505050505050565b6000806040838503121561533c57600080fd5b823561534781614eb2565b9150602083013561535781614eb2565b809150509250929050565b60008060006060848603121561537757600080fd5b833561538281614eb2565b9250602084013561539281614eb2565b929592945050506040919091013590565b6000806000606084860312156153b857600080fd5b83356153c381614eb2565b92506020840135915060408401356153da81614eb2565b809150509250925092565b6000602082840312156153f757600080fd5b815161083381615111565b60006020828403121561541457600080fd5b5051919050565b600181811c9082168061542f57607f821691505b602082108114156114f157634e487b7160e01b600052602260045260246000fd5b6001600160a01b0394851681529284166020840152921660408201526001600160e01b0319909116606082015260800190565b60006020828403121561549557600080fd5b8151610833816151f3565b6020808252600e908201526d1b9bdd08185d5d1a1bdc9a5e995960921b604082015260600190565b6000806000606084860312156154dd57600080fd5b83516154e881614eb2565b60208501519093506154f9816151f3565b604085015190925067ffffffffffffffff81111561551657600080fd5b8401601f8101861361552757600080fd5b8051615535614f7b82614f45565b81815287602083850101111561554a57600080fd5b61555b82602083016020860161508d565b8093505050509250925092565b634e487b7160e01b600052601160045260246000fd5b6000821982111561559157615591615568565b500190565b6000828210156155a8576155a8615568565b500390565b634e487b7160e01b600052602160045260246000fd5b6000602082840312156155d557600080fd5b815161083381614eb2565b6001600160a01b039384168152919092166020820152604081019190915260600190565b600067ffffffffffffffff82111561561e5761561e614efe565b5060051b60200190565b6000602080838503121561563b57600080fd5b825167ffffffffffffffff81111561565257600080fd5b8301601f8101851361566357600080fd5b8051615671614f7b82615604565b81815260059190911b8201830190838101908783111561569057600080fd5b928401925b828410156156b75783516156a881614eb2565b82529284019290840190615695565b979650505050505050565b634e487b7160e01b600052603260045260246000fd5b60006000198214156156ec576156ec615568565b5060010190565b6000825161570581846020870161508d565b9190910192915050565b634e487b7160e01b600052603160045260246000fd5b600060ff821660ff81141561573c5761573c615568565b60010192915050565b634e487b7160e01b600052601260045260246000fd5b60008261576a5761576a615745565b500490565b6000806040838503121561578257600080fd5b505080516020909101519092909150565b600060208083850312156157a657600080fd5b825167ffffffffffffffff8111156157bd57600080fd5b8301601f810185136157ce57600080fd5b80516157dc614f7b82615604565b81815260059190911b820183019083810190878311156157fb57600080fd5b928401925b828410156156b75783516001600160e01b0319811681146158215760008081fd5b82529284019290840190615800565b634e487b7160e01b600052600160045260246000fd5b600061ffff8083168181141561585e5761585e615568565b6001019392505050565b600081600019048311821515161561588257615882615568565b500290565b60008261589657615896615745565b50069056fec8fcad8db84d3cc18b4c41d551ea0ee66dd599cde068d998e57d5e09332c131cddf252ad1be2c89b69c2b068fc378daa952ba7f163c4a11628f55a4df523b3efa164736f6c634300080a000a",
    "linkReferences": {}
  },
  "methodIdentifiers": {
    "_becomeImplementation(bytes)": "56e67728",
    "_listExtensions()": "6333d001",
    "_prepare()": "1db78944",
    "_registerExtension(address,address)": "89cd9855",
    "_setImplementationSafe(address,bool,bytes)": "50d85b73",
    "_withdrawAdminFees(uint256)": "a7b820df",
    "_withdrawFuseFees(uint256)": "a03dce8d",
    "accrualBlockNumber()": "6c540baf",
    "adminFeeMantissa()": "8d02d9a1",
    "borrow(uint256)": "c5ebeaec",
    "borrowIndex()": "aa5af0fd",
    "comptroller()": "5fe3b567",
    "contractType()": "cb2ef6f7",
    "decimals()": "313ce567",
    "feeSeizeShareMantissa()": "be99f119",
    "fuseAdmin()": "15761d51",
    "fuseFeeMantissa()": "dbfe7c19",
    "getCash()": "3b1d21a2",
    "implementation()": "5c60da1b",
    "initialize(address,address,address,address,string,string,uint256,uint256)": "06db3ecd",
    "initialize(address,address,address,uint256,string,string,uint8,uint256,uint256)": "219ef65c",
    "interestRateModel()": "f3fdb15a",
    "isCEther()": "ac784ddc",
    "liquidateBorrow(address,uint256,address)": "f5e3c462",
    "mint(uint256)": "a0712d68",
    "name()": "06fdde03",
    "protocolSeizeShareMantissa()": "6752e702",
    "redeem(uint256)": "db006a75",
    "redeemUnderlying(uint256)": "852a12e3",
    "repayBorrow(uint256)": "0e752702",
    "repayBorrowBehalf(address,uint256)": "2608f818",
    "reserveFactorMantissa()": "173b9904",
    "seize(address,address,uint256)": "b2a02ff1",
    "selfTransferIn(address,uint256)": "135f1334",
    "selfTransferOut(address,uint256)": "067db1b3",
    "symbol()": "95d89b41",
    "totalAdminFees()": "61feacff",
    "totalBorrows()": "47bd3718",
    "totalFuseFees()": "dc028ab1",
    "totalReserves()": "8f840ddd",
    "totalSupply()": "18160ddd",
    "underlying()": "6f307dc3"
  }
}