{
  "address": "0xec1f902e7d5E06fB20C3606806047A6B0Db9b029",
  "abi": [
    {
      "inputs": [
        {
          "internalType": "bytes4",
          "name": "_functionSelector",
          "type": "bytes4"
        }
      ],
      "name": "ExtensionNotFound",
      "type": "error"
    },
    {
      "inputs": [
        {
          "internalType": "bytes4",
          "name": "_functionSelector",
          "type": "bytes4"
        },
        {
          "internalType": "address",
          "name": "_currentImpl",
          "type": "address"
        }
      ],
      "name": "FunctionAlreadyAdded",
      "type": "error"
    },
    {
      "inputs": [
        {
          "internalType": "bytes4",
          "name": "_functionSelector",
          "type": "bytes4"
        }
      ],
      "name": "FunctionNotFound",
      "type": "error"
    },
    {
      "anonymous": false,
      "inputs": [
        {
          "indexed": false,
          "internalType": "address",
          "name": "borrower",
          "type": "address"
        },
        {
          "indexed": false,
          "internalType": "uint256",
          "name": "borrowAmount",
          "type": "uint256"
        },
        {
          "indexed": false,
          "internalType": "uint256",
          "name": "accountBorrows",
          "type": "uint256"
        },
        {
          "indexed": false,
          "internalType": "uint256",
          "name": "totalBorrows",
          "type": "uint256"
        }
      ],
      "name": "Borrow",
      "type": "event"
    },
    {
      "anonymous": false,
      "inputs": [
        {
          "indexed": false,
          "internalType": "uint256",
          "name": "error",
          "type": "uint256"
        },
        {
          "indexed": false,
          "internalType": "uint256",
          "name": "info",
          "type": "uint256"
        },
        {
          "indexed": false,
          "internalType": "uint256",
          "name": "detail",
          "type": "uint256"
        }
      ],
      "name": "Failure",
      "type": "event"
    },
    {
      "anonymous": false,
      "inputs": [
        {
          "indexed": false,
          "internalType": "address",
          "name": "liquidator",
          "type": "address"
        },
        {
          "indexed": false,
          "internalType": "address",
          "name": "borrower",
          "type": "address"
        },
        {
          "indexed": false,
          "internalType": "uint256",
          "name": "repayAmount",
          "type": "uint256"
        },
        {
          "indexed": false,
          "internalType": "address",
          "name": "cTokenCollateral",
          "type": "address"
        },
        {
          "indexed": false,
          "internalType": "uint256",
          "name": "seizeTokens",
          "type": "uint256"
        }
      ],
      "name": "LiquidateBorrow",
      "type": "event"
    },
    {
      "anonymous": false,
      "inputs": [
        {
          "indexed": false,
          "internalType": "address",
          "name": "minter",
          "type": "address"
        },
        {
          "indexed": false,
          "internalType": "uint256",
          "name": "mintAmount",
          "type": "uint256"
        },
        {
          "indexed": false,
          "internalType": "uint256",
          "name": "mintTokens",
          "type": "uint256"
        }
      ],
      "name": "Mint",
      "type": "event"
    },
    {
      "anonymous": false,
      "inputs": [
        {
          "indexed": false,
          "internalType": "uint256",
          "name": "oldAdminFeeMantissa",
          "type": "uint256"
        },
        {
          "indexed": false,
          "internalType": "uint256",
          "name": "newAdminFeeMantissa",
          "type": "uint256"
        }
      ],
      "name": "NewAdminFee",
      "type": "event"
    },
    {
      "anonymous": false,
      "inputs": [
        {
          "indexed": false,
          "internalType": "uint256",
          "name": "oldFuseFeeMantissa",
          "type": "uint256"
        },
        {
          "indexed": false,
          "internalType": "uint256",
          "name": "newFuseFeeMantissa",
          "type": "uint256"
        }
      ],
      "name": "NewFuseFee",
      "type": "event"
    },
    {
      "anonymous": false,
      "inputs": [
        {
          "indexed": false,
          "internalType": "address",
          "name": "oldImplementation",
          "type": "address"
        },
        {
          "indexed": false,
          "internalType": "address",
          "name": "newImplementation",
          "type": "address"
        }
      ],
      "name": "NewImplementation",
      "type": "event"
    },
    {
      "anonymous": false,
      "inputs": [
        {
          "indexed": false,
          "internalType": "contract InterestRateModel",
          "name": "oldInterestRateModel",
          "type": "address"
        },
        {
          "indexed": false,
          "internalType": "contract InterestRateModel",
          "name": "newInterestRateModel",
          "type": "address"
        }
      ],
      "name": "NewMarketInterestRateModel",
      "type": "event"
    },
    {
      "anonymous": false,
      "inputs": [
        {
          "indexed": false,
          "internalType": "address",
          "name": "oldImpl",
          "type": "address"
        },
        {
          "indexed": false,
          "internalType": "address",
          "name": "newImpl",
          "type": "address"
        }
      ],
      "name": "NewPluginImplementation",
      "type": "event"
    },
    {
      "anonymous": false,
      "inputs": [
        {
          "indexed": false,
          "internalType": "uint256",
          "name": "oldReserveFactorMantissa",
          "type": "uint256"
        },
        {
          "indexed": false,
          "internalType": "uint256",
          "name": "newReserveFactorMantissa",
          "type": "uint256"
        }
      ],
      "name": "NewReserveFactor",
      "type": "event"
    },
    {
      "anonymous": false,
      "inputs": [
        {
          "indexed": false,
          "internalType": "address",
          "name": "redeemer",
          "type": "address"
        },
        {
          "indexed": false,
          "internalType": "uint256",
          "name": "redeemAmount",
          "type": "uint256"
        },
        {
          "indexed": false,
          "internalType": "uint256",
          "name": "redeemTokens",
          "type": "uint256"
        }
      ],
      "name": "Redeem",
      "type": "event"
    },
    {
      "anonymous": false,
      "inputs": [
        {
          "indexed": false,
          "internalType": "address",
          "name": "payer",
          "type": "address"
        },
        {
          "indexed": false,
          "internalType": "address",
          "name": "borrower",
          "type": "address"
        },
        {
          "indexed": false,
          "internalType": "uint256",
          "name": "repayAmount",
          "type": "uint256"
        },
        {
          "indexed": false,
          "internalType": "uint256",
          "name": "accountBorrows",
          "type": "uint256"
        },
        {
          "indexed": false,
          "internalType": "uint256",
          "name": "totalBorrows",
          "type": "uint256"
        }
      ],
      "name": "RepayBorrow",
      "type": "event"
    },
    {
      "anonymous": false,
      "inputs": [
        {
          "indexed": false,
          "internalType": "address",
          "name": "benefactor",
          "type": "address"
        },
        {
          "indexed": false,
          "internalType": "uint256",
          "name": "addAmount",
          "type": "uint256"
        },
        {
          "indexed": false,
          "internalType": "uint256",
          "name": "newTotalReserves",
          "type": "uint256"
        }
      ],
      "name": "ReservesAdded",
      "type": "event"
    },
    {
      "anonymous": false,
      "inputs": [
        {
          "indexed": false,
          "internalType": "address",
          "name": "admin",
          "type": "address"
        },
        {
          "indexed": false,
          "internalType": "uint256",
          "name": "reduceAmount",
          "type": "uint256"
        },
        {
          "indexed": false,
          "internalType": "uint256",
          "name": "newTotalReserves",
          "type": "uint256"
        }
      ],
      "name": "ReservesReduced",
      "type": "event"
    },
    {
      "anonymous": false,
      "inputs": [
        {
          "indexed": true,
          "internalType": "address",
          "name": "from",
          "type": "address"
        },
        {
          "indexed": true,
          "internalType": "address",
          "name": "to",
          "type": "address"
        },
        {
          "indexed": false,
          "internalType": "uint256",
          "name": "amount",
          "type": "uint256"
        }
      ],
      "name": "Transfer",
      "type": "event"
    },
    {
      "stateMutability": "nonpayable",
      "type": "fallback"
    },
    {
      "inputs": [
        {
          "internalType": "bytes",
          "name": "data",
          "type": "bytes"
        }
      ],
      "name": "_becomeImplementation",
      "outputs": [],
      "stateMutability": "nonpayable",
      "type": "function"
    },
    {
      "inputs": [],
      "name": "_listExtensions",
      "outputs": [
        {
          "internalType": "address[]",
          "name": "",
          "type": "address[]"
        }
      ],
      "stateMutability": "view",
      "type": "function"
    },
    {
      "inputs": [],
      "name": "_prepare",
      "outputs": [],
      "stateMutability": "payable",
      "type": "function"
    },
    {
      "inputs": [
        {
          "internalType": "contract DiamondExtension",
          "name": "extensionToAdd",
          "type": "address"
        },
        {
          "internalType": "contract DiamondExtension",
          "name": "extensionToReplace",
          "type": "address"
        }
      ],
      "name": "_registerExtension",
      "outputs": [],
      "stateMutability": "nonpayable",
      "type": "function"
    },
    {
      "inputs": [
        {
          "internalType": "address",
          "name": "implementation_",
          "type": "address"
        },
        {
          "internalType": "bool",
          "name": "allowResign",
          "type": "bool"
        },
        {
          "internalType": "bytes",
          "name": "becomeImplementationData",
          "type": "bytes"
        }
      ],
      "name": "_setImplementationSafe",
      "outputs": [],
      "stateMutability": "nonpayable",
      "type": "function"
    },
    {
      "inputs": [
        {
          "internalType": "address",
          "name": "_plugin",
          "type": "address"
        }
      ],
      "name": "_updatePlugin",
      "outputs": [],
      "stateMutability": "nonpayable",
      "type": "function"
    },
    {
      "inputs": [
        {
          "internalType": "uint256",
          "name": "withdrawAmount",
          "type": "uint256"
        }
      ],
      "name": "_withdrawAdminFees",
      "outputs": [
        {
          "internalType": "uint256",
          "name": "",
          "type": "uint256"
        }
      ],
      "stateMutability": "nonpayable",
      "type": "function"
    },
    {
      "inputs": [
        {
          "internalType": "uint256",
          "name": "withdrawAmount",
          "type": "uint256"
        }
      ],
      "name": "_withdrawFuseFees",
      "outputs": [
        {
          "internalType": "uint256",
          "name": "",
          "type": "uint256"
        }
      ],
      "stateMutability": "nonpayable",
      "type": "function"
    },
    {
      "inputs": [],
      "name": "accrualBlockNumber",
      "outputs": [
        {
          "internalType": "uint256",
          "name": "",
          "type": "uint256"
        }
      ],
      "stateMutability": "view",
      "type": "function"
    },
    {
      "inputs": [],
      "name": "adminFeeMantissa",
      "outputs": [
        {
          "internalType": "uint256",
          "name": "",
          "type": "uint256"
        }
      ],
      "stateMutability": "view",
      "type": "function"
    },
    {
      "inputs": [
        {
          "internalType": "address",
          "name": "_token",
          "type": "address"
        },
        {
          "internalType": "address",
          "name": "_spender",
          "type": "address"
        }
      ],
      "name": "approve",
      "outputs": [],
      "stateMutability": "nonpayable",
      "type": "function"
    },
    {
      "inputs": [],
      "name": "asCTokenExtensionInterface",
      "outputs": [
        {
          "internalType": "contract CTokenExtensionInterface",
          "name": "",
          "type": "address"
        }
      ],
      "stateMutability": "view",
      "type": "function"
    },
    {
      "inputs": [
        {
          "internalType": "uint256",
          "name": "borrowAmount",
          "type": "uint256"
        }
      ],
      "name": "borrow",
      "outputs": [
        {
          "internalType": "uint256",
          "name": "",
          "type": "uint256"
        }
      ],
      "stateMutability": "nonpayable",
      "type": "function"
    },
    {
      "inputs": [
        {
          "internalType": "address",
          "name": "account",
          "type": "address"
        }
      ],
      "name": "borrowBalanceCurrent",
      "outputs": [
        {
          "internalType": "uint256",
          "name": "",
          "type": "uint256"
        }
      ],
      "stateMutability": "nonpayable",
      "type": "function"
    },
    {
      "inputs": [
        {
          "internalType": "address",
          "name": "account",
          "type": "address"
        }
      ],
      "name": "borrowBalanceStored",
      "outputs": [
        {
          "internalType": "uint256",
          "name": "",
          "type": "uint256"
        }
      ],
      "stateMutability": "view",
      "type": "function"
    },
    {
      "inputs": [],
      "name": "borrowIndex",
      "outputs": [
        {
          "internalType": "uint256",
          "name": "",
          "type": "uint256"
        }
      ],
      "stateMutability": "view",
      "type": "function"
    },
    {
      "inputs": [],
      "name": "claim",
      "outputs": [],
      "stateMutability": "nonpayable",
      "type": "function"
    },
    {
      "inputs": [],
      "name": "comptroller",
      "outputs": [
        {
          "internalType": "contract ComptrollerInterface",
          "name": "",
          "type": "address"
        }
      ],
      "stateMutability": "view",
      "type": "function"
    },
    {
      "inputs": [],
      "name": "contractType",
      "outputs": [
        {
          "internalType": "string",
          "name": "",
          "type": "string"
        }
      ],
      "stateMutability": "pure",
      "type": "function"
    },
    {
      "inputs": [],
      "name": "decimals",
      "outputs": [
        {
          "internalType": "uint8",
          "name": "",
          "type": "uint8"
        }
      ],
      "stateMutability": "view",
      "type": "function"
    },
    {
      "inputs": [],
      "name": "feeSeizeShareMantissa",
      "outputs": [
        {
          "internalType": "uint256",
          "name": "",
          "type": "uint256"
        }
      ],
      "stateMutability": "view",
      "type": "function"
    },
    {
      "inputs": [],
      "name": "fuseAdmin",
      "outputs": [
        {
          "internalType": "address payable",
          "name": "",
          "type": "address"
        }
      ],
      "stateMutability": "view",
      "type": "function"
    },
    {
      "inputs": [],
      "name": "fuseFeeMantissa",
      "outputs": [
        {
          "internalType": "uint256",
          "name": "",
          "type": "uint256"
        }
      ],
      "stateMutability": "view",
      "type": "function"
    },
    {
      "inputs": [
        {
          "internalType": "address",
          "name": "account",
          "type": "address"
        }
      ],
      "name": "getAccountSnapshot",
      "outputs": [
        {
          "internalType": "uint256",
          "name": "",
          "type": "uint256"
        },
        {
          "internalType": "uint256",
          "name": "",
          "type": "uint256"
        },
        {
          "internalType": "uint256",
          "name": "",
          "type": "uint256"
        },
        {
          "internalType": "uint256",
          "name": "",
          "type": "uint256"
        }
      ],
      "stateMutability": "view",
      "type": "function"
    },
    {
      "inputs": [],
      "name": "getCash",
      "outputs": [
        {
          "internalType": "uint256",
          "name": "",
          "type": "uint256"
        }
      ],
      "stateMutability": "view",
      "type": "function"
    },
    {
      "inputs": [],
      "name": "implementation",
      "outputs": [
        {
          "internalType": "address",
          "name": "",
          "type": "address"
        }
      ],
      "stateMutability": "view",
      "type": "function"
    },
    {
      "inputs": [
        {
          "internalType": "address",
          "name": "underlying_",
          "type": "address"
        },
        {
          "internalType": "contract ComptrollerInterface",
          "name": "comptroller_",
          "type": "address"
        },
        {
          "internalType": "address payable",
          "name": "fuseAdmin_",
          "type": "address"
        },
        {
          "internalType": "contract InterestRateModel",
          "name": "interestRateModel_",
          "type": "address"
        },
        {
          "internalType": "string",
          "name": "name_",
          "type": "string"
        },
        {
          "internalType": "string",
          "name": "symbol_",
          "type": "string"
        },
        {
          "internalType": "uint256",
          "name": "reserveFactorMantissa_",
          "type": "uint256"
        },
        {
          "internalType": "uint256",
          "name": "adminFeeMantissa_",
          "type": "uint256"
        }
      ],
      "name": "initialize",
      "outputs": [],
      "stateMutability": "nonpayable",
      "type": "function"
    },
    {
      "inputs": [
        {
          "internalType": "contract ComptrollerInterface",
          "name": "comptroller_",
          "type": "address"
        },
        {
          "internalType": "address payable",
          "name": "fuseAdmin_",
          "type": "address"
        },
        {
          "internalType": "contract InterestRateModel",
          "name": "interestRateModel_",
          "type": "address"
        },
        {
          "internalType": "uint256",
          "name": "initialExchangeRateMantissa_",
          "type": "uint256"
        },
        {
          "internalType": "string",
          "name": "name_",
          "type": "string"
        },
        {
          "internalType": "string",
          "name": "symbol_",
          "type": "string"
        },
        {
          "internalType": "uint8",
          "name": "decimals_",
          "type": "uint8"
        },
        {
          "internalType": "uint256",
          "name": "reserveFactorMantissa_",
          "type": "uint256"
        },
        {
          "internalType": "uint256",
          "name": "adminFeeMantissa_",
          "type": "uint256"
        }
      ],
      "name": "initialize",
      "outputs": [],
      "stateMutability": "nonpayable",
      "type": "function"
    },
    {
      "inputs": [],
      "name": "interestRateModel",
      "outputs": [
        {
          "internalType": "contract InterestRateModel",
          "name": "",
          "type": "address"
        }
      ],
      "stateMutability": "view",
      "type": "function"
    },
    {
      "inputs": [],
      "name": "isCEther",
      "outputs": [
        {
          "internalType": "bool",
          "name": "",
          "type": "bool"
        }
      ],
      "stateMutability": "nonpayable",
      "type": "function"
    },
    {
      "inputs": [],
      "name": "isCToken",
      "outputs": [
        {
          "internalType": "bool",
          "name": "",
          "type": "bool"
        }
      ],
      "stateMutability": "nonpayable",
      "type": "function"
    },
    {
      "inputs": [
        {
          "internalType": "address",
          "name": "borrower",
          "type": "address"
        },
        {
          "internalType": "uint256",
          "name": "repayAmount",
          "type": "uint256"
        },
        {
          "internalType": "contract CTokenInterface",
          "name": "cTokenCollateral",
          "type": "address"
        }
      ],
      "name": "liquidateBorrow",
      "outputs": [
        {
          "internalType": "uint256",
          "name": "",
          "type": "uint256"
        }
      ],
      "stateMutability": "nonpayable",
      "type": "function"
    },
    {
      "inputs": [
        {
          "internalType": "uint256",
          "name": "mintAmount",
          "type": "uint256"
        }
      ],
      "name": "mint",
      "outputs": [
        {
          "internalType": "uint256",
          "name": "",
          "type": "uint256"
        }
      ],
      "stateMutability": "nonpayable",
      "type": "function"
    },
    {
      "inputs": [],
      "name": "name",
      "outputs": [
        {
          "internalType": "string",
          "name": "",
          "type": "string"
        }
      ],
      "stateMutability": "view",
      "type": "function"
    },
    {
      "inputs": [],
      "name": "plugin",
      "outputs": [
        {
          "internalType": "contract IERC4626",
          "name": "",
          "type": "address"
        }
      ],
      "stateMutability": "view",
      "type": "function"
    },
    {
      "inputs": [],
      "name": "protocolSeizeShareMantissa",
      "outputs": [
        {
          "internalType": "uint256",
          "name": "",
          "type": "uint256"
        }
      ],
      "stateMutability": "view",
      "type": "function"
    },
    {
      "inputs": [
        {
          "internalType": "uint256",
          "name": "redeemTokens",
          "type": "uint256"
        }
      ],
      "name": "redeem",
      "outputs": [
        {
          "internalType": "uint256",
          "name": "",
          "type": "uint256"
        }
      ],
      "stateMutability": "nonpayable",
      "type": "function"
    },
    {
      "inputs": [
        {
          "internalType": "uint256",
          "name": "redeemAmount",
          "type": "uint256"
        }
      ],
      "name": "redeemUnderlying",
      "outputs": [
        {
          "internalType": "uint256",
          "name": "",
          "type": "uint256"
        }
      ],
      "stateMutability": "nonpayable",
      "type": "function"
    },
    {
      "inputs": [
        {
          "internalType": "uint256",
          "name": "repayAmount",
          "type": "uint256"
        }
      ],
      "name": "repayBorrow",
      "outputs": [
        {
          "internalType": "uint256",
          "name": "",
          "type": "uint256"
        }
      ],
      "stateMutability": "nonpayable",
      "type": "function"
    },
    {
      "inputs": [
        {
          "internalType": "address",
          "name": "borrower",
          "type": "address"
        },
        {
          "internalType": "uint256",
          "name": "repayAmount",
          "type": "uint256"
        }
      ],
      "name": "repayBorrowBehalf",
      "outputs": [
        {
          "internalType": "uint256",
          "name": "",
          "type": "uint256"
        }
      ],
      "stateMutability": "nonpayable",
      "type": "function"
    },
    {
      "inputs": [],
      "name": "reserveFactorMantissa",
      "outputs": [
        {
          "internalType": "uint256",
          "name": "",
          "type": "uint256"
        }
      ],
      "stateMutability": "view",
      "type": "function"
    },
    {
      "inputs": [
        {
          "internalType": "address",
          "name": "liquidator",
          "type": "address"
        },
        {
          "internalType": "address",
          "name": "borrower",
          "type": "address"
        },
        {
          "internalType": "uint256",
          "name": "seizeTokens",
          "type": "uint256"
        }
      ],
      "name": "seize",
      "outputs": [
        {
          "internalType": "uint256",
          "name": "",
          "type": "uint256"
        }
      ],
      "stateMutability": "nonpayable",
      "type": "function"
    },
    {
      "inputs": [],
      "name": "symbol",
      "outputs": [
        {
          "internalType": "string",
          "name": "",
          "type": "string"
        }
      ],
      "stateMutability": "view",
      "type": "function"
    },
    {
      "inputs": [],
      "name": "totalAdminFees",
      "outputs": [
        {
          "internalType": "uint256",
          "name": "",
          "type": "uint256"
        }
      ],
      "stateMutability": "view",
      "type": "function"
    },
    {
      "inputs": [],
      "name": "totalBorrows",
      "outputs": [
        {
          "internalType": "uint256",
          "name": "",
          "type": "uint256"
        }
      ],
      "stateMutability": "view",
      "type": "function"
    },
    {
      "inputs": [],
      "name": "totalFuseFees",
      "outputs": [
        {
          "internalType": "uint256",
          "name": "",
          "type": "uint256"
        }
      ],
      "stateMutability": "view",
      "type": "function"
    },
    {
      "inputs": [],
      "name": "totalReserves",
      "outputs": [
        {
          "internalType": "uint256",
          "name": "",
          "type": "uint256"
        }
      ],
      "stateMutability": "view",
      "type": "function"
    },
    {
      "inputs": [],
      "name": "totalSupply",
      "outputs": [
        {
          "internalType": "uint256",
          "name": "",
          "type": "uint256"
        }
      ],
      "stateMutability": "view",
      "type": "function"
    },
    {
      "inputs": [],
      "name": "underlying",
      "outputs": [
        {
          "internalType": "address",
          "name": "",
          "type": "address"
        }
      ],
      "stateMutability": "view",
      "type": "function"
    }
  ],
  "transactionHash": "0x0f24a11c36282a1c20ab199ac5d3b05c7aa694f7cb0d43a644ecf3d09fe51111",
  "args": [],
  "numDeployments": 18,
  "bytecode": {
    "object": "0x608060405234801561001057600080fd5b50615d0b80620000216000396000f3fe60806040526004361061022e5760003560e01c806306db3ecd146102b657806306fdde03146102d85780630e7527021461030357806315761d5114610331578063173b99041461035e57806317bfdfbc1461037457806318160ddd1461039457806319f496c8146103aa5780631db78944146103ca578063219ef65c146103d25780632608f818146103f2578063313ce567146104125780633b1d21a21461043e57806347bd3718146104535780634e71d92d1461046957806350d85b731461047857806356e67728146104985780635c60da1b146104b85780635fe3b567146104d857806361feacff146104f85780636333d0011461050e5780636752e702146105305780636c540baf1461054b5780636f307dc3146105615780637e5465ba14610581578063852a12e3146105a157806389cd9855146105c15780638d02d9a1146105e15780638f840ddd146105f757806395d89b411461060d57806395dd9193146106225780639f5ef27214610642578063a03dce8d14610655578063a0712d6814610675578063a7b820df14610695578063aa5af0fd146106b5578063ac784ddc146106cb578063b2a02ff1146106eb578063be99f1191461070b578063c37f68e214610727578063c5ebeaec14610767578063cb2ef6f714610787578063db006a75146107cb578063dbfe7c19146107eb578063dc028ab114610801578063ef01df4f14610817578063f3fdb15a14610837578063f5e3c46214610857578063fe9c44ae14610877575b34801561023a57600080fd5b5060006102526000356001600160e01b03191661088b565b90506001600160a01b038116610292576000356001600160e01b031916604051630a82dd7360e31b8152600401610289919061520b565b60405180910390fd5b3660008037600080366000845af43d6000803e8080156102b1573d6000f35b3d6000fd5b3480156102c257600080fd5b506102d66102d1366004615310565b6108e3565b005b3480156102e457600080fd5b506102ed6109f1565b6040516102fa9190615429565b60405180910390f35b34801561030f57600080fd5b5061032361031e36600461543c565b610a7f565b6040519081526020016102fa565b34801561033d57600080fd5b50600154610351906001600160a01b031681565b6040516102fa9190615455565b34801561036a57600080fd5b50610323600b5481565b34801561038057600080fd5b5061032361038f366004615469565b610a93565b3480156103a057600080fd5b5061032360125481565b3480156103b657600080fd5b506102d66103c5366004615469565b610b5f565b6102d6610f8e565b3480156103de57600080fd5b506102d66103ed3660046154a0565b6110c4565b3480156103fe57600080fd5b5061032361040d366004615567565b611504565b34801561041e57600080fd5b5060055461042c9060ff1681565b60405160ff90911681526020016102fa565b34801561044a57600080fd5b5061032361151c565b34801561045f57600080fd5b50610323600e5481565b34801561047557600080fd5b50005b34801561048457600080fd5b506102d66104933660046155a1565b61152b565b3480156104a457600080fd5b506102d66104b3366004615632565b6115c5565b3480156104c457600080fd5b50600054610351906001600160a01b031681565b3480156104e457600080fd5b50600654610351906001600160a01b031681565b34801561050457600080fd5b5061032360105481565b34801561051a57600080fd5b50610523611839565b6040516102fa919061567a565b34801561053c57600080fd5b50610323666379da05b6000081565b34801561055757600080fd5b50610323600c5481565b34801561056d57600080fd5b50601654610351906001600160a01b031681565b34801561058d57600080fd5b506102d661059c3660046156c7565b611843565b3480156105ad57600080fd5b506103236105bc36600461543c565b611936565b3480156105cd57600080fd5b506102d66105dc3660046156c7565b611941565b3480156105ed57600080fd5b5061032360095481565b34801561060357600080fd5b50610323600f5481565b34801561061957600080fd5b506102ed611a15565b34801561062e57600080fd5b5061032361063d366004615469565b611a22565b34801561064e57600080fd5b5030610351565b34801561066157600080fd5b5061032361067036600461543c565b611b46565b34801561068157600080fd5b5061032361069036600461543c565b611c67565b3480156106a157600080fd5b506103236106b036600461543c565b611c73565b3480156106c157600080fd5b50610323600d5481565b3480156106d757600080fd5b5060005b60405190151581526020016102fa565b3480156106f757600080fd5b50610323610706366004615700565b611de4565b34801561071757600080fd5b5061032367016345785d8a000081565b34801561073357600080fd5b50610747610742366004615469565b611e08565b6040805194855260208501939093529183015260608201526080016102fa565b34801561077357600080fd5b5061032361078236600461543c565b611eab565b34801561079357600080fd5b5060408051808201909152601b81527a434572633230506c7567696e5265776172647344656c656761746560281b60208201526102ed565b3480156107d757600080fd5b506103236107e636600461543c565b611eb6565b3480156107f757600080fd5b50610323600a5481565b34801561080d57600080fd5b5061032360115481565b34801561082357600080fd5b50601754610351906001600160a01b031681565b34801561084357600080fd5b50600754610351906001600160a01b031681565b34801561086357600080fd5b50610323610872366004615741565b611ec1565b34801561088357600080fd5b5060016106db565b600080610896611ed9565b6001600160e01b031984166000908152602082905260409020549091506001600160a01b0316806108dc5783604051631f3f429960e31b8152600401610289919061520b565b9392505050565b60006702c68af0bb14000090506000896001600160a01b031663313ce5676040518163ffffffff1660e01b8152600401602060405180830381865afa158015610930573d6000803e3d6000fd5b505050506040513d601f19601f820116820180604052508101906109549190615783565b9050610967898989858a8a878b8b6110c4565b601680546001600160a01b0319166001600160a01b038c16908117909155604080516318160ddd60e01b815290516318160ddd916004808201926020929091908290030181865afa1580156109c0573d6000803e3d6000fd5b505050506040513d601f19601f820116820180604052508101906109e491906157a0565b5050505050505050505050565b600380546109fe906157b9565b80601f0160208091040260200160405190810160405280929190818152602001828054610a2a906157b9565b8015610a775780601f10610a4c57610100808354040283529160200191610a77565b820191906000526020600020905b815481529060010190602001808311610a5a57829003601f168201915b505050505081565b600080610a8b83611efd565b509392505050565b600080610a9f81611fc1565b6000306001600160a01b031663a6afed956040518163ffffffff1660e01b81526004016020604051808303816000875af1158015610ae1573d6000803e3d6000fd5b505050506040513d601f19601f82011682018060405250810190610b0591906157a0565b14610b445760405162461bcd60e51b815260206004820152600f60248201526e085858d8dc9d59525b9d195c995cdd608a1b6044820152606401610289565b610b4d83611a22565b91505b610b5981612085565b50919050565b33301480610b705750610b70612109565b610bd05760405162461bcd60e51b815260206004820152602b60248201527f6f6e6c792073656c6620616e642061646d696e732063616e2063616c6c205f7560448201526a383230ba32a8363ab3b4b760a91b6064820152608401610289565b6017546000906001600160a01b0316610be95781610bf6565b6017546001600160a01b03165b600154604051637583efcf60e01b81529192506001600160a01b031690637583efcf90610c299084908690600401615804565b602060405180830381865afa158015610c46573d6000803e3d6000fd5b505050506040513d601f19601f82011682018060405250810190610c6a919061581e565b610cc45760405162461bcd60e51b815260206004820152602560248201527f706c7567696e20696d706c656d656e746174696f6e206e6f742077686974656c6044820152641a5cdd195960da1b6064820152608401610289565b6017546001600160a01b031615801590610d4d57506017546040516370a0823160e01b81526001600160a01b03909116906370a0823190610d09903090600401615455565b602060405180830381865afa158015610d26573d6000803e3d6000fd5b505050506040513d601f19601f82011682018060405250810190610d4a91906157a0565b15155b15610e30576017546040516370a0823160e01b81526001600160a01b039091169063ba0876529082906370a0823190610d8a903090600401615455565b602060405180830381865afa158015610da7573d6000803e3d6000fd5b505050506040513d601f19601f82011682018060405250810190610dcb91906157a0565b30306040518463ffffffff1660e01b8152600401610deb9392919061583b565b6020604051808303816000875af1158015610e0a573d6000803e3d6000fd5b505050506040513d601f19601f82011682018060405250810190610e2e91906157a0565b505b601780546001600160a01b0319166001600160a01b038481169190911790915560165460405163095ea7b360e01b815291169063095ea7b390610e7b9085906000199060040161585a565b6020604051808303816000875af1158015610e9a573d6000803e3d6000fd5b505050506040513d601f19601f82011682018060405250810190610ebe919061581e565b506016546040516370a0823160e01b81526000916001600160a01b0316906370a0823190610ef0903090600401615455565b602060405180830381865afa158015610f0d573d6000803e3d6000fd5b505050506040513d601f19601f82011682018060405250810190610f3191906157a0565b90508015610f4257610f428161227a565b6017546040517fb32957d2794aaec3ea2c8852833af2192fe9fb518777de1f883e9e821781da7591610f81916001600160a01b03909116908690615804565b60405180910390a1505050565b3330148015906110105750600660009054906101000a90046001600160a01b03166001600160a01b031663dd5cd22c6040518163ffffffff1660e01b8152600401602060405180830381865afa158015610fec573d6000803e3d6000fd5b505050506040513d601f19601f82011682018060405250810190611010919061581e565b156110c257600154600080546040516345cc970560e01b81529192839283926001600160a01b03928316926345cc9705926110519290911690600401615455565b600060405180830381865afa15801561106e573d6000803e3d6000fd5b505050506040513d6000823e601f3d908101601f191682016040526110969190810190615873565b60005492955090935091506001600160a01b038085169116146110be576110be8383836122ef565b5050505b565b336001600160a01b038916146110ec5760405162461bcd60e51b815260040161028990615912565b600c541580156110fc5750600d54155b6111375760405162461bcd60e51b815260206004820152600c60248201526b085a5b9a5d1a585b1a5e995960a21b6044820152606401610289565b600180546001600160a01b0319166001600160a01b038a161790556008869055856111965760405162461bcd60e51b815260206004820152600f60248201526e02165786368616e6765526174653e3608c1b6044820152606401610289565b600680546001600160a01b0319166001600160a01b038b81169190911790915543600c55670de0b6b3a7640000600d55604080516310c8fc9560e11b8152905191891691632191f92a916004808201926020929091908290030181865afa158015611205573d6000803e3d6000fd5b505050506040513d601f19601f82011682018060405250810190611229919061581e565b61125f5760405162461bcd60e51b8152602060048201526007602482015266216e6f7449726d60c81b6044820152606401610289565b600780546001600160a01b0319166001600160a01b0389161790556040517fedffc32e068c7c95dfd4bdfd5c4d939a084d6b11c4199eac8436ed234d72f926906112ad906000908a90615804565b60405180910390a184516112c8906003906020880190615121565b5083516112dc906004906020870190615121565b506005805460ff191660ff8516179055600a54600954670de0b6b3a764000091906113079085615948565b6113119190615948565b11156113495760405162461bcd60e51b8152602060048201526007602482015266085c998e9cd95d60ca1b6044820152606401610289565b600b8290556040805160008152602081018490527faaa68312e2ea9d50e16af5068410ab56e1a1fd06037b1a35664812c30f821460910160405180910390a160001981141561139757506009545b6001546040805163dd86fea160e01b815290516000926001600160a01b03169163dd86fea19160048083019260209291908290030181865afa1580156113e1573d6000803e3d6000fd5b505050506040513d601f19601f8201168201806040525081019061140591906157a0565b9050670de0b6b3a76400008183600b5461141f9190615948565b6114299190615948565b11156114675760405162461bcd60e51b815260206004820152600d60248201526c0858591b5a5b9199594e9cd95d609a1b6044820152606401610289565b60098290556040805160008152602081018490527fcdd0b588250e1398549f79cfdb8217c186688822905d6715b0834ea1c865594a910160405180910390a1600a8190556040805160008152602081018390527f92eef861b6533b7d3417f39c2ad7b460eed4e88a32fa3604f30e718b7602e7dc910160405180910390a150506002805460ff60b01b1916600160b01b1790555050505050505050565b600080611511848461247c565b509150505b92915050565b6000611526612542565b905090565b611533612109565b6115695760405162461bcd60e51b8152602060048201526007602482015266010b0b236b4b7160cd1b6044820152606401610289565b6000546001600160a01b038581169116146115bf576115bf848484848080601f0160208091040260200160405190810160405280939291908181526020018383808284376000920191909152506122ef92505050565b50505050565b333014806115d657506115d6612109565b61163e5760405162461bcd60e51b815260206004820152603360248201527f6f6e6c792073656c6620616e642061646d696e732063616e2063616c6c205f6260448201527232b1b7b6b2a4b6b83632b6b2b73a30ba34b7b760691b6064820152608401610289565b600154600080546040516311a0e21760e01b815291926001600160a01b03908116926311a0e21792611674921690600401615455565b600060405180830381865afa158015611691573d6000803e3d6000fd5b505050506040513d6000823e601f3d908101601f191682016040526116b99190810190615983565b905060006116c561261b565b905060005b8151811015611707576116f58282815181106116e8576116e8615a1c565b6020026020010151612686565b806116ff81615a32565b9150506116ca565b5060005b82518110156117485761173683828151811061172957611729615a1c565b60200260200101516127b3565b8061174081615a32565b91505061170b565b5050506000818060200190518101906117619190615a4d565b90506001600160a01b03811615801561178457506017546001600160a01b031615155b15611801576001546017546040516381218ea960e01b81526001600160a01b03928316926381218ea9926117bd92911690600401615455565b602060405180830381865afa1580156117da573d6000803e3d6000fd5b505050506040513d601f19601f820116820180604052508101906117fe9190615a4d565b90505b6001600160a01b0381161580159061182757506017546001600160a01b03828116911614155b156118355761183581610b5f565b5050565b606061152661261b565b61184b612109565b6118675760405162461bcd60e51b815260040161028990615912565b6016546001600160a01b0383811691161480159061189357506017546001600160a01b03838116911614155b6118c35760405162461bcd60e51b81526020600482015260016024820152602160f81b6044820152606401610289565b60405163095ea7b360e01b81526001600160a01b0383169063095ea7b3906118f39084906000199060040161585a565b6020604051808303816000875af1158015611912573d6000803e3d6000fd5b505050506040513d601f19601f820116820180604052508101906110be919061581e565b6000611516826128a2565b6006546001546001600160a01b039182169116331480156119bf5750806001600160a01b0316632f1069ba6040518163ffffffff1660e01b8152600401602060405180830381865afa15801561199b573d6000803e3d6000fd5b505050506040513d601f19601f820116820180604052508101906119bf919061581e565b611a0b5760405162461bcd60e51b815260206004820152601f60248201527f21756e617574686f72697a6564202d206e6f2061646d696e20726967687473006044820152606401610289565b6110be8383612944565b600480546109fe906157b9565b6001600160a01b0381166000908152601560205260408120805482918291829190611a535750600095945050505050565b611a638160000154600d54612965565b90945092506000846003811115611a7c57611a7c6157ee565b14611ac95760405162461bcd60e51b815260206004820152601e60248201527f216d756c55496e74206f766572666c6f7720636865636b206661696c656400006044820152606401610289565b611ad78382600101546129a7565b90945091506000846003811115611af057611af06157ee565b14611b3d5760405162461bcd60e51b815260206004820152601e60248201527f2164697655496e74206f766572666c6f7720636865636b206661696c656400006044820152606401610289565b50949350505050565b600080611b5281611fc1565b6000306001600160a01b031663a6afed956040518163ffffffff1660e01b81526004016020604051808303816000875af1158015611b94573d6000803e3d6000fd5b505050506040513d601f19601f82011682018060405250810190611bb891906157a0565b90508015611be457611bdc816011811115611bd557611bd56157ee565b60336129d2565b925050610b50565b43600c5414611bf957611bdc600a60356129d2565b83611c02612542565b1015611c1457611bdc600e60346129d2565b601154841115611c2a57611bdc600260366129d2565b600084601154611c3a9190615a6a565b6011819055600154909150611c58906001600160a01b031686612a32565b600093505050610b5981612085565b600080610a8b83612aa9565b600080611c7f81611fc1565b6000306001600160a01b031663a6afed956040518163ffffffff1660e01b81526004016020604051808303816000875af1158015611cc1573d6000803e3d6000fd5b505050506040513d601f19601f82011682018060405250810190611ce591906157a0565b90508015611d0957611bdc816011811115611d0257611d026157ee565b60376129d2565b43600c5414611d1e57611bdc600a60396129d2565b83611d27612542565b1015611d3957611bdc600e60386129d2565b601054841115611d4f57611bdc6002603a6129d2565b83601054611d5d9190615a6a565b601055600654604080516303e1469160e61b81529051611dd5926001600160a01b03169163f851a4409160048083019260209291908290030181865afa158015611dab573d6000803e3d6000fd5b505050506040513d601f19601f82011682018060405250810190611dcf9190615a4d565b85612a32565b60005b925050610b5981612085565b60006001611df181611fc1565b611dfd33868686612b4b565b9150610a8b81612085565b6001600160a01b038116600090815260136020526040812054819081908190818080611e3389611a22565b9250306001600160a01b031663182df0f56040518163ffffffff1660e01b8152600401602060405180830381865afa158015611e73573d6000803e3d6000fd5b505050506040513d601f19601f82011682018060405250810190611e9791906157a0565b915060009993985091965094509092505050565b600061151682613017565b6000611516826130b7565b600080611ecf858585613152565b5095945050505050565b7fc8fcad8db84d3cc18b4c41d551ea0ee66dd599cde068d998e57d5e09332c131c90565b6000806000611f0b81611fc1565b6000306001600160a01b031663a6afed956040518163ffffffff1660e01b81526004016020604051808303816000875af1158015611f4d573d6000803e3d6000fd5b505050506040513d601f19601f82011682018060405250810190611f7191906157a0565b90508015611fa157611f95816011811115611f8e57611f8e6157ee565b60416129d2565b60009350935050611fb2565b611fac333387613303565b93509350505b611fbb81612085565b50915091565b600254600160b01b900460ff166120075760405162461bcd60e51b815260206004820152600a6024820152691c994b595b9d195c995960b21b6044820152606401610289565b8061207557600660009054906101000a90046001600160a01b03166001600160a01b031663c90c20b16040518163ffffffff1660e01b8152600401600060405180830381600087803b15801561205c57600080fd5b505af1158015612070573d6000803e3d6000fd5b505050505b506002805460ff60b01b19169055565b6002805460ff60b01b1916600160b01b1790558061210657600660009054906101000a90046001600160a01b03166001600160a01b031663632e51426040518163ffffffff1660e01b8152600401600060405180830381600087803b1580156120ed57600080fd5b505af1158015612101573d6000803e3d6000fd5b505050505b50565b600654604080516303e1469160e61b815290516000926001600160a01b031691829163f851a440916004808201926020929091908290030181865afa158015612156573d6000803e3d6000fd5b505050506040513d601f19601f8201168201806040525081019061217a9190615a4d565b6001600160a01b0316336001600160a01b03161480156121f75750806001600160a01b0316630a755ec26040518163ffffffff1660e01b8152600401602060405180830381865afa1580156121d3573d6000803e3d6000fd5b505050506040513d601f19601f820116820180604052508101906121f7919061581e565b8061227457506001546001600160a01b0316331480156122745750806001600160a01b0316632f1069ba6040518163ffffffff1660e01b8152600401602060405180830381865afa158015612250573d6000803e3d6000fd5b505050506040513d601f19601f82011682018060405250810190612274919061581e565b91505090565b601754604051636e553f6560e01b8152600481018390523060248201526001600160a01b0390911690636e553f65906044016020604051808303816000875af11580156122cb573d6000803e3d6000fd5b505050506040513d601f19601f8201168201806040525081019061183591906157a0565b6001546000546040516338e6a07360e11b81526001600160a01b03928316926371cd40e6926123279291169087908790600401615a81565b602060405180830381865afa158015612344573d6000803e3d6000fd5b505050506040513d601f19601f82011682018060405250810190612368919061581e565b61239c5760405162461bcd60e51b8152602060048201526005602482015264085a5b5c1b60da1b6044820152606401610289565b600080546001600160a01b038581166001600160a01b031983161790925516303b6123cf576123ca826115c5565b612431565b61242f30836040516024016123e49190615429565b60408051601f19818403018152918152602080830180516001600160e01b0316630adccee560e31b17905281518083019092526007825266216265636f6d6560c81b908201526136a5565b505b6000546040517fd604de94d45953f9138079ec1b82d533cb2160c906d1076d1f7ed54befbca97a9161246e9184916001600160a01b031690615804565b60405180910390a150505050565b600080600061248a81611fc1565b6000306001600160a01b031663a6afed956040518163ffffffff1660e01b81526004016020604051808303816000875af11580156124cc573d6000803e3d6000fd5b505050506040513d601f19601f820116820180604052508101906124f091906157a0565b905080156125205761251481601181111561250d5761250d6157ee565b60406129d2565b60009350935050612531565b61252b338787613303565b93509350505b61253a81612085565b509250929050565b6017546040516370a0823160e01b81526000916001600160a01b031690634cdad5069082906370a082319061257b903090600401615455565b602060405180830381865afa158015612598573d6000803e3d6000fd5b505050506040513d601f19601f820116820180604052508101906125bc91906157a0565b6040518263ffffffff1660e01b81526004016125da91815260200190565b602060405180830381865afa1580156125f7573d6000803e3d6000fd5b505050506040513d601f19601f8201168201806040525081019061152691906157a0565b6060612625611ed9565b60020180548060200260200160405190810160405280929190818152602001828054801561267c57602002820191906000526020600020905b81546001600160a01b0316815260019091019060200180831161265e575b5050505050905090565b6000612690611ed9565b905061269b82613741565b60005b600282015460ff821610156110be57826001600160a01b0316826002018260ff16815481106126cf576126cf615a1c565b6000918252602090912001546001600160a01b031614156127a1576002820180546126fc90600190615a6a565b8154811061270c5761270c615a1c565b6000918252602090912001546002830180546001600160a01b039092169160ff841690811061273d5761273d615a1c565b9060005260206000200160006101000a8154816001600160a01b0302191690836001600160a01b031602179055508160020180548061277e5761277e615aa5565b600082815260209020810160001990810180546001600160a01b03191690550190555b806127ab81615abb565b91505061269e565b60006127bd611ed9565b905060005b600282015460ff8216101561286257826001600160a01b0316826002018260ff16815481106127f3576127f3615a1c565b6000918252602090912001546001600160a01b031614156128505760405162461bcd60e51b8152602060048201526017602482015276195e1d195b9cda5bdb88185b1c9958591e481859191959604a1b6044820152606401610289565b8061285a81615abb565b9150506127c2565b5061286c826139cb565b6002018054600181018255600091825260209091200180546001600160a01b0319166001600160a01b0392909216919091179055565b6000806128ae81611fc1565b6000306001600160a01b031663a6afed956040518163ffffffff1660e01b81526004016020604051808303816000875af11580156128f0573d6000803e3d6000fd5b505050506040513d601f19601f8201168201806040525081019061291491906157a0565b9050801561293857611bdc816011811115612931576129316157ee565b602a6129d2565b611dd833600086613b94565b6001600160a01b0381161561295c5761295c81612686565b611835826127b3565b60008083612978575060009050806129a0565b838302836129868683615adb565b14612999576002600092509250506129a0565b6000925090505b9250929050565b600080826129bb57506001905060006129a0565b60006129c78486615adb565b915091509250929050565b6000600080516020615cbf8339815191528360118111156129f5576129f56157ee565b836061811115612a0757612a076157ee565b6000604051612a1893929190615afd565b60405180910390a18260118111156108dc576108dc6157ee565b601754604051632d182be560e21b81526001600160a01b039091169063b460af9490612a669084908690309060040161583b565b6020604051808303816000875af1158015612a85573d6000803e3d6000fd5b505050506040513d601f19601f820116820180604052508101906110be91906157a0565b6000806000612ab781611fc1565b6000306001600160a01b031663a6afed956040518163ffffffff1660e01b81526004016020604051808303816000875af1158015612af9573d6000803e3d6000fd5b505050506040513d601f19601f82011682018060405250810190612b1d91906157a0565b90508015612b4157611f95816011811115612b3a57612b3a6157ee565b60206129d2565b611fac3386614135565b60065460405163d02f735160e01b815260009182916001600160a01b039091169063d02f735190612b889030908a908a908a908a90600401615b13565b6020604051808303816000875af1158015612ba7573d6000803e3d6000fd5b505050506040513d601f19601f82011682018060405250810190612bcb91906157a0565b90508015612be857612be06003601d8361446a565b91505061300f565b846001600160a01b0316846001600160a01b03161415612c0e57612be06006601e6129d2565b612c73604080516101808101909152806000815260200160008152602001600081526020016000815260200160008152602001600081526020016000815260200160008152602001600081526020016000815260200160008152602001600081525090565b6001600160a01b038516600090815260136020526040902054612c9690856144f3565b6020830181905282826003811115612cb057612cb06157ee565b6003811115612cc157612cc16157ee565b9052506000905081516003811115612cdb57612cdb6157ee565b14612d0b57612d026009601c83600001516003811115612cfd57612cfd6157ee565b61446a565b9250505061300f565b612d2a846040518060200160405280666379da05b6000081525061451e565b6080820152604080516020810190915267016345785d8a00008152612d5090859061451e565b61014082018190526080820151612d679086615a6a565b612d719190615a6a565b6060820152306001600160a01b031663182df0f56040518163ffffffff1660e01b8152600401602060405180830381865afa158015612db4573d6000803e3d6000fd5b505050506040513d601f19601f82011682018060405250810190612dd891906157a0565b60c082019081526040805160208101909152905181526080820151612dfd9190614541565b60a0820152604080516020810190915260c08201518152610140820151612e249190614541565b61016082015260a0810151600f54612e3c9190615948565b60e08201526101408101516080820151601254612e599190615a6a565b612e639190615a6a565b610120820152610160810151601154612e7c9190615948565b6101008201526001600160a01b0386166000908152601360205260409020546060820151612eaa9190614559565b6040830181905282826003811115612ec457612ec46157ee565b6003811115612ed557612ed56157ee565b9052506000905081516003811115612eef57612eef6157ee565b14612f1157612d026009601b83600001516003811115612cfd57612cfd6157ee565b60e0810151600f556101208101516012556101008101516011556020808201516001600160a01b0387811660008181526013855260408082209490945583860151928b1680825290849020929092556060850151925192835290929091600080516020615cdf833981519152910160405180910390a3306001600160a01b0316856001600160a01b0316600080516020615cdf8339815191528360800151604051612fbe91815260200190565b60405180910390a360a081015160e08201516040517fa91e67c5ea634cd43a12c5a482724b03de01e85ca68702a53d0c2f45cb7c1dc592613000923092615b46565b60405180910390a16000925050505b949350505050565b60008061302381611fc1565b6000306001600160a01b031663a6afed956040518163ffffffff1660e01b81526004016020604051808303816000875af1158015613065573d6000803e3d6000fd5b505050506040513d601f19601f8201168201806040525081019061308991906157a0565b905080156130ad57611bdc8160118111156130a6576130a66157ee565b600a6129d2565b611dd8338561457f565b6000806130c381611fc1565b6000306001600160a01b031663a6afed956040518163ffffffff1660e01b81526004016020604051808303816000875af1158015613105573d6000803e3d6000fd5b505050506040513d601f19601f8201168201806040525081019061312991906157a0565b9050801561314657611bdc816011811115612931576129316157ee565b611dd833856000613b94565b600080600061316081611fc1565b6000306001600160a01b031663a6afed956040518163ffffffff1660e01b81526004016020604051808303816000875af11580156131a2573d6000803e3d6000fd5b505050506040513d601f19601f820116820180604052508101906131c691906157a0565b905080156131f6576131ea8160118111156131e3576131e36157ee565b60116129d2565b600093509350506132f1565b846001600160a01b0316639f5ef2726040518163ffffffff1660e01b8152600401602060405180830381865afa158015613234573d6000803e3d6000fd5b505050506040513d601f19601f820116820180604052508101906132589190615a4d565b6001600160a01b031663a6afed956040518163ffffffff1660e01b81526004016020604051808303816000875af1158015613297573d6000803e3d6000fd5b505050506040513d601f19601f820116820180604052508101906132bb91906157a0565b905080156132df576131ea8160118111156132d8576132d86157ee565b60126129d2565b6132eb338888886148ac565b93509350505b6132fa81612085565b50935093915050565b600654604051631200453160e11b81523060048201526001600160a01b03858116602483015284811660448301526064820184905260009283928392909116906324008a62906084016020604051808303816000875af115801561336b573d6000803e3d6000fd5b505050506040513d601f19601f8201168201806040525081019061338f91906157a0565b905080156133b0576133a4600360438361446a565b6000925092505061369d565b43600c54146133c5576133a4600a60446129d2565b61340e6040805161010081019091528060008152602001600081526020016000815260200160008152602001600081526020016000815260200160008152602001600081525090565b6001600160a01b038616600090815260156020526040902060010154606082015261343886611a22565b6080820152600019851415613456576080810151604082015261345e565b604081018590525b61346c878260400151614da8565b60e082018190526080820151613481916144f3565b60a083018190526020830182600381111561349e5761349e6157ee565b60038111156134af576134af6157ee565b90525060009050816020015160038111156134cc576134cc6157ee565b1461353c5760405162461bcd60e51b815260206004820152603a60248201527f52455041595f424f52524f575f4e45575f4143434f554e545f424f52524f575f604482015279109053105390d157d0d05310d55310551253d397d1905253115160321b6064820152608401610289565b61354c600e548260e001516144f3565b60c0830181905260208301826003811115613569576135696157ee565b600381111561357a5761357a6157ee565b9052506000905081602001516003811115613597576135976157ee565b146135fe5760405162461bcd60e51b815260206004820152603160248201527f52455041595f424f52524f575f4e45575f544f54414c5f42414c414e43455f43604482015270105310d55310551253d397d19052531151607a1b6064820152608401610289565b60a081810180516001600160a01b03898116600081815260156020908152604091829020948555600d5460019095019490945560c0870151600e81905560e088015195518251948f16855294840192909252820193909352606081019190915260808101919091527f1a2a22cb034d26d1854bdc6666a5b91fe25efbbb5dcad3b0355478d6f5c362a1910160405180910390a160e00151600093509150505b935093915050565b6060600080856001600160a01b0316856040516136c29190615b67565b6000604051808303816000865af19150503d80600081146136ff576040519150601f19603f3d011682016040523d82523d6000602084013e613704565b606091505b5091509150816137385780511561371e5780518082602001fd5b8360405162461bcd60e51b81526004016102899190615429565b95945050505050565b6000816001600160a01b03166389f8132e6040518163ffffffff1660e01b8152600401600060405180830381865afa158015613781573d6000803e3d6000fd5b505050506040513d6000823e601f3d908101601f191682016040526137a99190810190615b83565b905060006137b5611ed9565b905060005b82518161ffff1610156115bf576000838261ffff16815181106137df576137df615a1c565b6020908102919091018101516001600160e01b031981166000908152918590526040909120549091506001600160a01b0386811691161461382257613822615c1f565b6001600160e01b0319811660009081526020849052604090205460018085018054600160a01b90930461ffff1692909161385b91615a6a565b8154811061386b5761386b615a1c565b90600052602060002090600891828204019190066004029054906101000a900460e01b846001018261ffff16815481106138a7576138a7615a1c565b90600052602060002090600891828204019190066004026101000a81548163ffffffff021916908360e01c021790555080846000016000866001018461ffff16815481106138f7576138f7615a1c565b6000918252602080832060088304015460079092166004026101000a90910460e01b6001600160e01b03191683528201929092526040019020805461ffff60a01b1916600160a01b61ffff93909316929092029190911790556001840180548061396357613963615aa5565b60008281526020808220600860001990940193840401805463ffffffff600460078716026101000a0219169055919092556001600160e01b0319909316815291849052506040902080546001600160b01b0319169055806139c381615c35565b9150506137ba565b6000816001600160a01b03166389f8132e6040518163ffffffff1660e01b8152600401600060405180830381865afa158015613a0b573d6000803e3d6000fd5b505050506040513d6000823e601f3d908101601f19168201604052613a339190810190615b83565b90506000613a3f611ed9565b600181015490915060005b8351811015612101576000848281518110613a6757613a67615a1c565b6020908102919091018101516001600160e01b031981166000908152918690526040909120549091506001600160a01b03168015613ad357604051632c18df3360e01b81526001600160e01b0319831660048201526001600160a01b0382166024820152604401610289565b6040805180820182526001600160a01b03808a16825261ffff80881660208085019182526001600160e01b0319881660009081528b8252958620945185549251909316600160a01b026001600160b01b0319909216929093169190911717909155600180880180549182018155835291206008820401805460e085901c60046007909416939093026101000a92830263ffffffff909302191691909117905583613b7c81615c35565b94505050508080613b8c90615a32565b915050613a4a565b6000821580613ba1575081155b613be75760405162461bcd60e51b815260206004820152601760248201527602172656465656d546f6b656e73496e6f724f7574213d3604c1b6044820152606401610289565b613bef6151a5565b306001600160a01b031663182df0f56040518163ffffffff1660e01b8152600401602060405180830381865afa158015613c2d573d6000803e3d6000fd5b505050506040513d601f19601f82011682018060405250810190613c5191906157a0565b6040820152600019831415613cdb57600654604051630cbb414760e11b81526001600160a01b0390911690631976828e90613c959088903090600090600401615a81565b6020604051808303816000875af1158015613cb4573d6000803e3d6000fd5b505050506040513d601f19601f82011682018060405250810190613cd891906157a0565b92505b8315613d7c576060810184905260408051602081018252908201518152613d029085614e5e565b6080830181905260208301826003811115613d1f57613d1f6157ee565b6003811115613d3057613d306157ee565b9052506000905081602001516003811115613d4d57613d4d6157ee565b14613d7757613d6f6009602c83602001516003811115612cfd57612cfd6157ee565b9150506108dc565b613e0d565b613d988360405180602001604052808460400151815250614eb0565b6060830181905260208301826003811115613db557613db56157ee565b6003811115613dc657613dc66157ee565b9052506000905081602001516003811115613de357613de36157ee565b14613e0557613d6f6009602d83602001516003811115612cfd57612cfd6157ee565b608081018390525b600654606082015160405163eabe7d9160e01b81526000926001600160a01b03169163eabe7d9191613e469130918b9190600401615c57565b6020604051808303816000875af1158015613e65573d6000803e3d6000fd5b505050506040513d601f19601f82011682018060405250810190613e8991906157a0565b90508015613ea757613e9e6003602b8361446a565b925050506108dc565b43600c5414613ebc57613e9e600a602f6129d2565b613ecc60125483606001516144f3565b60a0840181905260208401826003811115613ee957613ee96157ee565b6003811115613efa57613efa6157ee565b9052506000905082602001516003811115613f1757613f176157ee565b14613f3957613e9e6009603184602001516003811115612cfd57612cfd6157ee565b6001600160a01b0386166000908152601360205260409020546060830151613f6191906144f3565b60c0840181905260208401826003811115613f7e57613f7e6157ee565b6003811115613f8f57613f8f6157ee565b9052506000905082602001516003811115613fac57613fac6157ee565b14613fce57613e9e6009603084602001516003811115612cfd57612cfd6157ee565b8160800151613fdb612542565b1015613fed57613e9e600e60326129d2565b60a082015160125560c08201516001600160a01b0387166000908152601360205260409020556080820151614023908790612a32565b306001600160a01b0316866001600160a01b0316600080516020615cdf833981519152846060015160405161405a91815260200190565b60405180910390a3608082015160608301516040517fe5b754fb1abb7f01b499791d0b820ae3b6af3424ac1c59768edb53f4ec31a9299261409c928a92615b46565b60405180910390a1600654608083015160608401516040516351dff98960e01b81523060048201526001600160a01b038a81166024830152604482019390935260648101919091529116906351dff98990608401600060405180830381600087803b15801561410a57600080fd5b505af115801561411e573d6000803e3d6000fd5b506000925061412b915050565b9695505050505050565b600654604051634ef4c3e160e01b8152600091829182916001600160a01b031690634ef4c3e19061416e90309089908990600401615c57565b6020604051808303816000875af115801561418d573d6000803e3d6000fd5b505050506040513d601f19601f820116820180604052508101906141b191906157a0565b905080156141d2576141c6600360218361446a565b600092509250506129a0565b43600c54146141e7576141c6600a60246129d2565b6141ef6151a5565b306001600160a01b031663182df0f56040518163ffffffff1660e01b8152600401602060405180830381865afa15801561422d573d6000803e3d6000fd5b505050506040513d601f19601f8201168201806040525081019061425191906157a0565b60408201526142608686614da8565b60c08201819052604080516020810182529083015181526142819190614eb0565b606083018190526020830182600381111561429e5761429e6157ee565b60038111156142af576142af6157ee565b90525060009050816020015160038111156142cc576142cc6157ee565b146143195760405162461bcd60e51b815260206004820181905260248201527f4d494e545f45584348414e47455f43414c43554c4154494f4e5f4641494c45446044820152606401610289565b600081606001511161436a5760405162461bcd60e51b815260206004820152601a6024820152791352539517d6915493d7d0d513d2d15394d7d491529150d5115160321b6044820152606401610289565b806060015160125461437c9190615948565b608082015260608101516001600160a01b0387166000908152601360205260409020546143a99190615948565b60a0820181905260808201516012556001600160a01b038716600090815260136020526040908190209190915560c0820151606083015191517f4c209b5fc8ad50758f13e2e1088ba56a560dff690a1c6fef26394f4c03821c4f92614412928a92909190615b46565b60405180910390a1856001600160a01b0316306001600160a01b0316600080516020615cdf833981519152836060015160405161445191815260200190565b60405180910390a360c001516000969095509350505050565b6000600080516020615cbf83398151915284601181111561448d5761448d6157ee565b84606181111561449f5761449f6157ee565b846040516144af93929190615afd565b60405180910390a160038460118111156144cb576144cb6157ee565b146144e7578360118111156144e2576144e26157ee565b61300f565b61300f826103e8615948565b6000808383116145125760006145098486615a6a565b915091506129a0565b506003905060006129a0565b6000670de0b6b3a7640000614537848460000151614ec0565b6108dc9190615adb565b60008061454e8484614efc565b905061300f81614f26565b600080838301848110614571576000925090506129a0565b6002600092509250506129a0565b60065460405163368f515360e21b815260009182916001600160a01b039091169063da3d454c906145b890309088908890600401615c57565b6020604051808303816000875af11580156145d7573d6000803e3d6000fd5b505050506040513d601f19601f820116820180604052508101906145fb91906157a0565b9050801561461857614610600360108361446a565b915050611516565b43600c541461462d57614610600a600c6129d2565b6000614637612542565b9050838110156146565761464d600e600b6129d2565b92505050611516565b614682604080516080810190915280600081526020016000815260200160008152602001600081525090565b61468b86611a22565b6020820181905261469c9086614559565b60408301819052828260038111156146b6576146b66157ee565b60038111156146c7576146c76157ee565b90525060009050815160038111156146e1576146e16157ee565b1461470d576147036009600e83600001516003811115612cfd57612cfd6157ee565b9350505050611516565b6006546040808301519051631de6c8a560e21b81526001600160a01b039092169163779b2294916147439130919060040161585a565b602060405180830381865afa158015614760573d6000803e3d6000fd5b505050506040513d601f19601f8201168201806040525081019061478491906157a0565b9250821561479957614703600360108561446a565b6147a5600e5486614559565b60608301819052828260038111156147bf576147bf6157ee565b60038111156147d0576147d06157ee565b90525060009050815160038111156147ea576147ea6157ee565b1461480c576147036009600d83600001516003811115612cfd57612cfd6157ee565b6040808201516001600160a01b0388166000908152601560205291909120908155600d546001909101556060810151600e556148488686612a32565b60408082015160608084015183516001600160a01b038b168152602081018a9052938401929092528201527f13ed6866d4e1ee6da46f845c46d7e54120883d75c5ea9a2dacc1c4ca8984ab809060800160405180910390a160009695505050505050565b600654604051632fe3f38f60e11b8152600091829182916001600160a01b031690635fc7e71e906148e990309088908c908c908c90600401615b13565b6020604051808303816000875af1158015614908573d6000803e3d6000fd5b505050506040513d601f19601f8201168201806040525081019061492c91906157a0565b9050801561494d57614941600360148361446a565b60009250925050614d9f565b43600c541461496257614941600a60186129d2565b43846001600160a01b0316636c540baf6040518163ffffffff1660e01b8152600401602060405180830381865afa1580156149a1573d6000803e3d6000fd5b505050506040513d601f19601f820116820180604052508101906149c591906157a0565b146149d657614941600a60136129d2565b866001600160a01b0316866001600160a01b031614156149fc57614941600660196129d2565b84614a0d57614941600760176129d2565b600019851415614a2357614941600760166129d2565b600080614a31898989613303565b90925090508115614a6657614a58826011811115614a5157614a516157ee565b601a6129d2565b600094509450505050614d9f565b60065460405163c488847b60e01b815260009182916001600160a01b039091169063c488847b90614a9f9030908c908890600401615c57565b6040805180830381865afa158015614abb573d6000803e3d6000fd5b505050506040513d601f19601f82011682018060405250810190614adf9190615c7b565b90925090508115614b4e5760405162461bcd60e51b815260206004820152603360248201527f4c49515549444154455f434f4d5054524f4c4c45525f43414c43554c4154455f604482015272105353d5539517d4d152569157d19052531151606a1b6064820152608401610289565b80886001600160a01b0316639f5ef2726040518163ffffffff1660e01b8152600401602060405180830381865afa158015614b8d573d6000803e3d6000fd5b505050506040513d601f19601f82011682018060405250810190614bb19190615a4d565b6001600160a01b03166370a082318c6040518263ffffffff1660e01b8152600401614bdc9190615455565b602060405180830381865afa158015614bf9573d6000803e3d6000fd5b505050506040513d601f19601f82011682018060405250810190614c1d91906157a0565b1015614c665760405162461bcd60e51b815260206004820152601860248201527709892a2aa928882a88abea68a92b48abea89e9ebe9aaa86960431b6044820152606401610289565b60006001600160a01b038916301415614c8c57614c85308d8d85612b4b565b9050614d02565b60405163b2a02ff160e01b81526001600160a01b038a169063b2a02ff190614cbc908f908f908790600401615c57565b6020604051808303816000875af1158015614cdb573d6000803e3d6000fd5b505050506040513d601f19601f82011682018060405250810190614cff91906157a0565b90505b8015614d395760405162461bcd60e51b8152602060048201526006602482015265217365697a6560d01b6044820152606401610289565b604080516001600160a01b038e811682528d811660208301528183018790528b1660608201526080810184905290517f298637f684da70674f26509b10f07ec2fbc77a335ab1e7d6215a4b2484d8bb529181900360a00190a16000975092955050505050505b94509492505050565b6016546040516323b872dd60e01b81526000916001600160a01b0316906323b872dd90614ddd90869030908790600401615c57565b6020604051808303816000875af1158015614dfc573d6000803e3d6000fd5b505050506040513d601f19601f82011682018060405250810190614e20919061581e565b614e555760405162461bcd60e51b8152600401610289906020808252600490820152631cd95b9960e21b604082015260600190565b610b598261227a565b600080600080614e6e8686614f3e565b90925090506000826003811115614e8757614e876157ee565b14614e9857509150600090506129a0565b6000614ea382614f26565b9350935050509250929050565b600080600080614e6e8686614fac565b60006108dc8383604051806040016040528060178152602001766d756c7469706c69636174696f6e206f766572666c6f7760481b815250615011565b614f046151e3565b6040518060200160405280614f1d856000015185614ec0565b90529392505050565b805160009061151690670de0b6b3a764000090615adb565b6000614f486151e3565b600080614f59866000015186612965565b90925090506000826003811115614f7257614f726157ee565b14614f91575060408051602081019091526000815290925090506129a0565b60408051602081019091529081526000969095509350505050565b6000614fb66151e3565b600080614fcb670de0b6b3a764000087612965565b90925090506000826003811115614fe457614fe46157ee565b14615003575060408051602081019091526000815290925090506129a0565b614ea3818660000151615064565b600083158061501e575082155b1561502b575060006108dc565b60006150378486615c9f565b9050836150448683615adb565b148390611b3d5760405162461bcd60e51b81526004016102899190615429565b600061506e6151e3565b60008061508386670de0b6b3a7640000612965565b9092509050600082600381111561509c5761509c6157ee565b146150bb575060408051602081019091526000815290925090506129a0565b6000806150c883886129a7565b909250905060008260038111156150e1576150e16157ee565b1461510457816040518060200160405280600081525095509550505050506129a0565b604080516020810190915290815260009890975095505050505050565b82805461512d906157b9565b90600052602060002090601f01602090048101928261514f5760008555615195565b82601f1061516857805160ff1916838001178555615195565b82800160010185558215615195579182015b8281111561519557825182559160200191906001019061517a565b506151a19291506151f6565b5090565b6040805160e0810190915280600081526020016000815260200160008152602001600081526020016000815260200160008152602001600081525090565b6040518060200160405280600081525090565b5b808211156151a157600081556001016151f7565b6001600160e01b031991909116815260200190565b6001600160a01b038116811461210657600080fd5b803561524081615220565b919050565b634e487b7160e01b600052604160045260246000fd5b604051601f8201601f191681016001600160401b038111828210171561528357615283615245565b604052919050565b60006001600160401b038211156152a4576152a4615245565b50601f01601f191660200190565b60006152c56152c08461528b565b61525b565b90508281528383830111156152d957600080fd5b828260208301376000602084830101529392505050565b600082601f83011261530157600080fd5b6108dc838335602085016152b2565b600080600080600080600080610100898b03121561532d57600080fd5b883561533881615220565b9750602089013561534881615220565b9650604089013561535881615220565b9550606089013561536881615220565b945060808901356001600160401b038082111561538457600080fd5b6153908c838d016152f0565b955060a08b01359150808211156153a657600080fd5b506153b38b828c016152f0565b93505060c0890135915060e089013590509295985092959890939650565b60005b838110156153ec5781810151838201526020016153d4565b838111156115bf5750506000910152565b600081518084526154158160208601602086016153d1565b601f01601f19169290920160200192915050565b6020815260006108dc60208301846153fd565b60006020828403121561544e57600080fd5b5035919050565b6001600160a01b0391909116815260200190565b60006020828403121561547b57600080fd5b81356108dc81615220565b60ff8116811461210657600080fd5b803561524081615486565b60008060008060008060008060006101208a8c0312156154bf57600080fd5b89356154ca81615220565b985060208a01356154da81615220565b97506154e860408b01615235565b965060608a0135955060808a01356001600160401b038082111561550b57600080fd5b6155178d838e016152f0565b965060a08c013591508082111561552d57600080fd5b5061553a8c828d016152f0565b94505061554960c08b01615495565b925060e08a013591506101008a013590509295985092959850929598565b6000806040838503121561557a57600080fd5b823561558581615220565b946020939093013593505050565b801515811461210657600080fd5b600080600080606085870312156155b757600080fd5b84356155c281615220565b935060208501356155d281615593565b925060408501356001600160401b03808211156155ee57600080fd5b818701915087601f83011261560257600080fd5b81358181111561561157600080fd5b88602082850101111561562357600080fd5b95989497505060200194505050565b60006020828403121561564457600080fd5b81356001600160401b0381111561565a57600080fd5b8201601f8101841361566b57600080fd5b61300f848235602084016152b2565b6020808252825182820181905260009190848201906040850190845b818110156156bb5783516001600160a01b031683529284019291840191600101615696565b50909695505050505050565b600080604083850312156156da57600080fd5b82356156e581615220565b915060208301356156f581615220565b809150509250929050565b60008060006060848603121561571557600080fd5b833561572081615220565b9250602084013561573081615220565b929592945050506040919091013590565b60008060006060848603121561575657600080fd5b833561576181615220565b925060208401359150604084013561577881615220565b809150509250925092565b60006020828403121561579557600080fd5b81516108dc81615486565b6000602082840312156157b257600080fd5b5051919050565b600181811c908216806157cd57607f821691505b60208210811415610b5957634e487b7160e01b600052602260045260246000fd5b634e487b7160e01b600052602160045260246000fd5b6001600160a01b0392831681529116602082015260400190565b60006020828403121561583057600080fd5b81516108dc81615593565b9283526001600160a01b03918216602084015216604082015260600190565b6001600160a01b03929092168252602082015260400190565b60008060006060848603121561588857600080fd5b835161589381615220565b60208501519093506158a481615593565b60408501519092506001600160401b038111156158c057600080fd5b8401601f810186136158d157600080fd5b80516158df6152c08261528b565b8181528760208385010111156158f457600080fd5b6159058260208301602086016153d1565b8093505050509250925092565b60208082526006908201526510b0b236b4b760d11b604082015260600190565b634e487b7160e01b600052601160045260246000fd5b6000821982111561595b5761595b615932565b500190565b60006001600160401b0382111561597957615979615245565b5060051b60200190565b6000602080838503121561599657600080fd5b82516001600160401b038111156159ac57600080fd5b8301601f810185136159bd57600080fd5b80516159cb6152c082615960565b81815260059190911b820183019083810190878311156159ea57600080fd5b928401925b82841015615a11578351615a0281615220565b825292840192908401906159ef565b979650505050505050565b634e487b7160e01b600052603260045260246000fd5b6000600019821415615a4657615a46615932565b5060010190565b600060208284031215615a5f57600080fd5b81516108dc81615220565b600082821015615a7c57615a7c615932565b500390565b6001600160a01b039384168152919092166020820152901515604082015260600190565b634e487b7160e01b600052603160045260246000fd5b600060ff821660ff811415615ad257615ad2615932565b60010192915050565b600082615af857634e487b7160e01b600052601260045260246000fd5b500490565b9283526020830191909152604082015260600190565b6001600160a01b039586168152938516602085015291841660408401529092166060820152608081019190915260a00190565b6001600160a01b039390931683526020830191909152604082015260600190565b60008251615b798184602087016153d1565b9190910192915050565b60006020808385031215615b9657600080fd5b82516001600160401b03811115615bac57600080fd5b8301601f81018513615bbd57600080fd5b8051615bcb6152c082615960565b81815260059190911b82018301908381019087831115615bea57600080fd5b928401925b82841015615a115783516001600160e01b031981168114615c105760008081fd5b82529284019290840190615bef565b634e487b7160e01b600052600160045260246000fd5b600061ffff80831681811415615c4d57615c4d615932565b6001019392505050565b6001600160a01b039384168152919092166020820152604081019190915260600190565b60008060408385031215615c8e57600080fd5b505080516020909101519092909150565b6000816000190483118215151615615cb957615cb9615932565b50029056fe45b96fe442630264581b197e84bbada861235052c5a1aadfff9ea4e40a969aa0ddf252ad1be2c89b69c2b068fc378daa952ba7f163c4a11628f55a4df523b3efa164736f6c634300080a000a",
    "linkReferences": {}
  },
  "methodIdentifiers": {
    "_becomeImplementation(bytes)": "56e67728",
    "_listExtensions()": "6333d001",
    "_prepare()": "1db78944",
    "_registerExtension(address,address)": "89cd9855",
    "_setImplementationSafe(address,bool,bytes)": "50d85b73",
    "_updatePlugin(address)": "19f496c8",
    "_withdrawAdminFees(uint256)": "a7b820df",
    "_withdrawFuseFees(uint256)": "a03dce8d",
    "accrualBlockNumber()": "6c540baf",
    "adminFeeMantissa()": "8d02d9a1",
    "approve(address,address)": "7e5465ba",
    "asCTokenExtensionInterface()": "9f5ef272",
    "borrow(uint256)": "c5ebeaec",
    "borrowBalanceCurrent(address)": "17bfdfbc",
    "borrowBalanceStored(address)": "95dd9193",
    "borrowIndex()": "aa5af0fd",
    "claim()": "4e71d92d",
    "comptroller()": "5fe3b567",
    "contractType()": "cb2ef6f7",
    "decimals()": "313ce567",
    "feeSeizeShareMantissa()": "be99f119",
    "fuseAdmin()": "15761d51",
    "fuseFeeMantissa()": "dbfe7c19",
    "getAccountSnapshot(address)": "c37f68e2",
    "getCash()": "3b1d21a2",
    "implementation()": "5c60da1b",
    "initialize(address,address,address,address,string,string,uint256,uint256)": "06db3ecd",
    "initialize(address,address,address,uint256,string,string,uint8,uint256,uint256)": "219ef65c",
    "interestRateModel()": "f3fdb15a",
    "isCEther()": "ac784ddc",
    "isCToken()": "fe9c44ae",
    "liquidateBorrow(address,uint256,address)": "f5e3c462",
    "mint(uint256)": "a0712d68",
    "name()": "06fdde03",
    "plugin()": "ef01df4f",
    "protocolSeizeShareMantissa()": "6752e702",
    "redeem(uint256)": "db006a75",
    "redeemUnderlying(uint256)": "852a12e3",
    "repayBorrow(uint256)": "0e752702",
    "repayBorrowBehalf(address,uint256)": "2608f818",
    "reserveFactorMantissa()": "173b9904",
    "seize(address,address,uint256)": "b2a02ff1",
    "symbol()": "95d89b41",
    "totalAdminFees()": "61feacff",
    "totalBorrows()": "47bd3718",
    "totalFuseFees()": "dc028ab1",
    "totalReserves()": "8f840ddd",
    "totalSupply()": "18160ddd",
    "underlying()": "6f307dc3"
  }
}