{
  "address": "0xCdCd2Fc5883147d509b33fc6B6b37ACbE1441521",
  "abi": [
    {
      "inputs": [
        {
          "internalType": "address payable",
          "name": "_fuseAdmin",
          "type": "address"
        }
      ],
      "stateMutability": "nonpayable",
      "type": "constructor"
    },
    {
      "inputs": [
        {
          "internalType": "bytes4",
          "name": "_functionSelector",
          "type": "bytes4"
        }
      ],
      "name": "ExtensionNotFound",
      "type": "error"
    },
    {
      "inputs": [
        {
          "internalType": "bytes4",
          "name": "_functionSelector",
          "type": "bytes4"
        },
        {
          "internalType": "address",
          "name": "_currentImpl",
          "type": "address"
        }
      ],
      "name": "FunctionAlreadyAdded",
      "type": "error"
    },
    {
      "inputs": [
        {
          "internalType": "bytes4",
          "name": "_functionSelector",
          "type": "bytes4"
        }
      ],
      "name": "FunctionNotFound",
      "type": "error"
    },
    {
      "anonymous": false,
      "inputs": [
        {
          "indexed": false,
          "internalType": "address",
          "name": "rewardsDistributor",
          "type": "address"
        }
      ],
      "name": "AddedRewardsDistributor",
      "type": "event"
    },
    {
      "anonymous": false,
      "inputs": [
        {
          "indexed": false,
          "internalType": "bool",
          "name": "enabled",
          "type": "bool"
        }
      ],
      "name": "AutoImplementationsToggled",
      "type": "event"
    },
    {
      "anonymous": false,
      "inputs": [
        {
          "indexed": false,
          "internalType": "uint256",
          "name": "error",
          "type": "uint256"
        },
        {
          "indexed": false,
          "internalType": "uint256",
          "name": "info",
          "type": "uint256"
        },
        {
          "indexed": false,
          "internalType": "uint256",
          "name": "detail",
          "type": "uint256"
        }
      ],
      "name": "Failure",
      "type": "event"
    },
    {
      "anonymous": false,
      "inputs": [
        {
          "indexed": false,
          "internalType": "contract CTokenInterface",
          "name": "cToken",
          "type": "address"
        },
        {
          "indexed": false,
          "internalType": "address",
          "name": "account",
          "type": "address"
        }
      ],
      "name": "MarketEntered",
      "type": "event"
    },
    {
      "anonymous": false,
      "inputs": [
        {
          "indexed": false,
          "internalType": "contract CTokenInterface",
          "name": "cToken",
          "type": "address"
        },
        {
          "indexed": false,
          "internalType": "address",
          "name": "account",
          "type": "address"
        }
      ],
      "name": "MarketExited",
      "type": "event"
    },
    {
      "anonymous": false,
      "inputs": [
        {
          "indexed": false,
          "internalType": "contract CTokenInterface",
          "name": "cToken",
          "type": "address"
        }
      ],
      "name": "MarketListed",
      "type": "event"
    },
    {
      "anonymous": false,
      "inputs": [
        {
          "indexed": false,
          "internalType": "uint256",
          "name": "oldCloseFactorMantissa",
          "type": "uint256"
        },
        {
          "indexed": false,
          "internalType": "uint256",
          "name": "newCloseFactorMantissa",
          "type": "uint256"
        }
      ],
      "name": "NewCloseFactor",
      "type": "event"
    },
    {
      "anonymous": false,
      "inputs": [
        {
          "indexed": false,
          "internalType": "contract CTokenInterface",
          "name": "cToken",
          "type": "address"
        },
        {
          "indexed": false,
          "internalType": "uint256",
          "name": "oldCollateralFactorMantissa",
          "type": "uint256"
        },
        {
          "indexed": false,
          "internalType": "uint256",
          "name": "newCollateralFactorMantissa",
          "type": "uint256"
        }
      ],
      "name": "NewCollateralFactor",
      "type": "event"
    },
    {
      "anonymous": false,
      "inputs": [
        {
          "indexed": false,
          "internalType": "uint256",
          "name": "oldLiquidationIncentiveMantissa",
          "type": "uint256"
        },
        {
          "indexed": false,
          "internalType": "uint256",
          "name": "newLiquidationIncentiveMantissa",
          "type": "uint256"
        }
      ],
      "name": "NewLiquidationIncentive",
      "type": "event"
    },
    {
      "anonymous": false,
      "inputs": [
        {
          "indexed": false,
          "internalType": "contract PriceOracle",
          "name": "oldPriceOracle",
          "type": "address"
        },
        {
          "indexed": false,
          "internalType": "contract PriceOracle",
          "name": "newPriceOracle",
          "type": "address"
        }
      ],
      "name": "NewPriceOracle",
      "type": "event"
    },
    {
      "anonymous": false,
      "inputs": [
        {
          "indexed": false,
          "internalType": "bool",
          "name": "enforce",
          "type": "bool"
        }
      ],
      "name": "WhitelistEnforcementChanged",
      "type": "event"
    },
    {
      "stateMutability": "nonpayable",
      "type": "fallback"
    },
    {
      "inputs": [
        {
          "internalType": "address",
          "name": "distributor",
          "type": "address"
        }
      ],
      "name": "_addRewardsDistributor",
      "outputs": [
        {
          "internalType": "uint256",
          "name": "",
          "type": "uint256"
        }
      ],
      "stateMutability": "nonpayable",
      "type": "function"
    },
    {
      "inputs": [],
      "name": "_afterNonReentrant",
      "outputs": [],
      "stateMutability": "nonpayable",
      "type": "function"
    },
    {
      "inputs": [
        {
          "internalType": "contract Unitroller",
          "name": "unitroller",
          "type": "address"
        }
      ],
      "name": "_become",
      "outputs": [],
      "stateMutability": "nonpayable",
      "type": "function"
    },
    {
      "inputs": [],
      "name": "_becomeImplementation",
      "outputs": [],
      "stateMutability": "nonpayable",
      "type": "function"
    },
    {
      "inputs": [],
      "name": "_beforeNonReentrant",
      "outputs": [],
      "stateMutability": "nonpayable",
      "type": "function"
    },
    {
      "inputs": [],
      "name": "_borrowGuardianPaused",
      "outputs": [
        {
          "internalType": "bool",
          "name": "",
          "type": "bool"
        }
      ],
      "stateMutability": "view",
      "type": "function"
    },
    {
      "inputs": [
        {
          "internalType": "bool",
          "name": "isCEther",
          "type": "bool"
        },
        {
          "internalType": "bytes",
          "name": "constructorData",
          "type": "bytes"
        },
        {
          "internalType": "uint256",
          "name": "collateralFactorMantissa",
          "type": "uint256"
        }
      ],
      "name": "_deployMarket",
      "outputs": [
        {
          "internalType": "uint256",
          "name": "",
          "type": "uint256"
        }
      ],
      "stateMutability": "nonpayable",
      "type": "function"
    },
    {
      "inputs": [],
      "name": "_listExtensions",
      "outputs": [
        {
          "internalType": "address[]",
          "name": "",
          "type": "address[]"
        }
      ],
      "stateMutability": "view",
      "type": "function"
    },
    {
      "inputs": [],
      "name": "_mintGuardianPaused",
      "outputs": [
        {
          "internalType": "bool",
          "name": "",
          "type": "bool"
        }
      ],
      "stateMutability": "view",
      "type": "function"
    },
    {
      "inputs": [
        {
          "internalType": "contract DiamondExtension",
          "name": "extensionToAdd",
          "type": "address"
        },
        {
          "internalType": "contract DiamondExtension",
          "name": "extensionToReplace",
          "type": "address"
        }
      ],
      "name": "_registerExtension",
      "outputs": [],
      "stateMutability": "nonpayable",
      "type": "function"
    },
    {
      "inputs": [
        {
          "internalType": "uint256",
          "name": "newCloseFactorMantissa",
          "type": "uint256"
        }
      ],
      "name": "_setCloseFactor",
      "outputs": [
        {
          "internalType": "uint256",
          "name": "",
          "type": "uint256"
        }
      ],
      "stateMutability": "nonpayable",
      "type": "function"
    },
    {
      "inputs": [
        {
          "internalType": "contract CTokenInterface",
          "name": "cToken",
          "type": "address"
        },
        {
          "internalType": "uint256",
          "name": "newCollateralFactorMantissa",
          "type": "uint256"
        }
      ],
      "name": "_setCollateralFactor",
      "outputs": [
        {
          "internalType": "uint256",
          "name": "",
          "type": "uint256"
        }
      ],
      "stateMutability": "nonpayable",
      "type": "function"
    },
    {
      "inputs": [
        {
          "internalType": "uint256",
          "name": "newLiquidationIncentiveMantissa",
          "type": "uint256"
        }
      ],
      "name": "_setLiquidationIncentive",
      "outputs": [
        {
          "internalType": "uint256",
          "name": "",
          "type": "uint256"
        }
      ],
      "stateMutability": "nonpayable",
      "type": "function"
    },
    {
      "inputs": [
        {
          "internalType": "contract PriceOracle",
          "name": "newOracle",
          "type": "address"
        }
      ],
      "name": "_setPriceOracle",
      "outputs": [
        {
          "internalType": "uint256",
          "name": "",
          "type": "uint256"
        }
      ],
      "stateMutability": "nonpayable",
      "type": "function"
    },
    {
      "inputs": [
        {
          "internalType": "bool",
          "name": "enforce",
          "type": "bool"
        }
      ],
      "name": "_setWhitelistEnforcement",
      "outputs": [
        {
          "internalType": "uint256",
          "name": "",
          "type": "uint256"
        }
      ],
      "stateMutability": "nonpayable",
      "type": "function"
    },
    {
      "inputs": [
        {
          "internalType": "address[]",
          "name": "suppliers",
          "type": "address[]"
        },
        {
          "internalType": "bool[]",
          "name": "statuses",
          "type": "bool[]"
        }
      ],
      "name": "_setWhitelistStatuses",
      "outputs": [
        {
          "internalType": "uint256",
          "name": "",
          "type": "uint256"
        }
      ],
      "stateMutability": "nonpayable",
      "type": "function"
    },
    {
      "inputs": [
        {
          "internalType": "bool",
          "name": "enabled",
          "type": "bool"
        }
      ],
      "name": "_toggleAutoImplementations",
      "outputs": [
        {
          "internalType": "uint256",
          "name": "",
          "type": "uint256"
        }
      ],
      "stateMutability": "nonpayable",
      "type": "function"
    },
    {
      "inputs": [
        {
          "internalType": "address",
          "name": "",
          "type": "address"
        },
        {
          "internalType": "uint256",
          "name": "",
          "type": "uint256"
        }
      ],
      "name": "accountAssets",
      "outputs": [
        {
          "internalType": "contract CTokenInterface",
          "name": "",
          "type": "address"
        }
      ],
      "stateMutability": "view",
      "type": "function"
    },
    {
      "inputs": [],
      "name": "admin",
      "outputs": [
        {
          "internalType": "address",
          "name": "",
          "type": "address"
        }
      ],
      "stateMutability": "view",
      "type": "function"
    },
    {
      "inputs": [],
      "name": "adminHasRights",
      "outputs": [
        {
          "internalType": "bool",
          "name": "",
          "type": "bool"
        }
      ],
      "stateMutability": "view",
      "type": "function"
    },
    {
      "inputs": [
        {
          "internalType": "uint256",
          "name": "",
          "type": "uint256"
        }
      ],
      "name": "allBorrowers",
      "outputs": [
        {
          "internalType": "address",
          "name": "",
          "type": "address"
        }
      ],
      "stateMutability": "view",
      "type": "function"
    },
    {
      "inputs": [
        {
          "internalType": "uint256",
          "name": "",
          "type": "uint256"
        }
      ],
      "name": "allMarkets",
      "outputs": [
        {
          "internalType": "contract CTokenInterface",
          "name": "",
          "type": "address"
        }
      ],
      "stateMutability": "view",
      "type": "function"
    },
    {
      "inputs": [],
      "name": "asComptrollerFirstExtension",
      "outputs": [
        {
          "internalType": "contract ComptrollerFirstExtension",
          "name": "",
          "type": "address"
        }
      ],
      "stateMutability": "view",
      "type": "function"
    },
    {
      "inputs": [],
      "name": "autoImplementation",
      "outputs": [
        {
          "internalType": "bool",
          "name": "",
          "type": "bool"
        }
      ],
      "stateMutability": "view",
      "type": "function"
    },
    {
      "inputs": [
        {
          "internalType": "address",
          "name": "cToken",
          "type": "address"
        },
        {
          "internalType": "address",
          "name": "borrower",
          "type": "address"
        },
        {
          "internalType": "uint256",
          "name": "borrowAmount",
          "type": "uint256"
        }
      ],
      "name": "borrowAllowed",
      "outputs": [
        {
          "internalType": "uint256",
          "name": "",
          "type": "uint256"
        }
      ],
      "stateMutability": "nonpayable",
      "type": "function"
    },
    {
      "inputs": [
        {
          "internalType": "address",
          "name": "",
          "type": "address"
        },
        {
          "internalType": "address",
          "name": "",
          "type": "address"
        }
      ],
      "name": "borrowCapForCollateral",
      "outputs": [
        {
          "internalType": "uint256",
          "name": "",
          "type": "uint256"
        }
      ],
      "stateMutability": "view",
      "type": "function"
    },
    {
      "inputs": [
        {
          "internalType": "address",
          "name": "",
          "type": "address"
        },
        {
          "internalType": "address",
          "name": "",
          "type": "address"
        },
        {
          "internalType": "address",
          "name": "",
          "type": "address"
        }
      ],
      "name": "borrowCapForCollateralWhitelist",
      "outputs": [
        {
          "internalType": "bool",
          "name": "",
          "type": "bool"
        }
      ],
      "stateMutability": "view",
      "type": "function"
    },
    {
      "inputs": [],
      "name": "borrowCapGuardian",
      "outputs": [
        {
          "internalType": "address",
          "name": "",
          "type": "address"
        }
      ],
      "stateMutability": "view",
      "type": "function"
    },
    {
      "inputs": [
        {
          "internalType": "address",
          "name": "",
          "type": "address"
        },
        {
          "internalType": "address",
          "name": "",
          "type": "address"
        }
      ],
      "name": "borrowCapWhitelist",
      "outputs": [
        {
          "internalType": "bool",
          "name": "",
          "type": "bool"
        }
      ],
      "stateMutability": "view",
      "type": "function"
    },
    {
      "inputs": [
        {
          "internalType": "address",
          "name": "",
          "type": "address"
        }
      ],
      "name": "borrowCaps",
      "outputs": [
        {
          "internalType": "uint256",
          "name": "",
          "type": "uint256"
        }
      ],
      "stateMutability": "view",
      "type": "function"
    },
    {
      "inputs": [
        {
          "internalType": "address",
          "name": "",
          "type": "address"
        }
      ],
      "name": "borrowGuardianPaused",
      "outputs": [
        {
          "internalType": "bool",
          "name": "",
          "type": "bool"
        }
      ],
      "stateMutability": "view",
      "type": "function"
    },
    {
      "inputs": [
        {
          "internalType": "address",
          "name": "cToken",
          "type": "address"
        },
        {
          "internalType": "uint256",
          "name": "accountBorrowsNew",
          "type": "uint256"
        }
      ],
      "name": "borrowWithinLimits",
      "outputs": [
        {
          "internalType": "uint256",
          "name": "",
          "type": "uint256"
        }
      ],
      "stateMutability": "view",
      "type": "function"
    },
    {
      "inputs": [
        {
          "internalType": "address",
          "name": "",
          "type": "address"
        },
        {
          "internalType": "address",
          "name": "",
          "type": "address"
        }
      ],
      "name": "borrowingAgainstCollateralBlacklist",
      "outputs": [
        {
          "internalType": "bool",
          "name": "",
          "type": "bool"
        }
      ],
      "stateMutability": "view",
      "type": "function"
    },
    {
      "inputs": [
        {
          "internalType": "address",
          "name": "",
          "type": "address"
        },
        {
          "internalType": "address",
          "name": "",
          "type": "address"
        },
        {
          "internalType": "address",
          "name": "",
          "type": "address"
        }
      ],
      "name": "borrowingAgainstCollateralBlacklistWhitelist",
      "outputs": [
        {
          "internalType": "bool",
          "name": "",
          "type": "bool"
        }
      ],
      "stateMutability": "view",
      "type": "function"
    },
    {
      "inputs": [
        {
          "internalType": "address",
          "name": "",
          "type": "address"
        }
      ],
      "name": "cTokensByUnderlying",
      "outputs": [
        {
          "internalType": "contract CTokenInterface",
          "name": "",
          "type": "address"
        }
      ],
      "stateMutability": "view",
      "type": "function"
    },
    {
      "inputs": [
        {
          "internalType": "address",
          "name": "account",
          "type": "address"
        },
        {
          "internalType": "contract CTokenInterface",
          "name": "cToken",
          "type": "address"
        }
      ],
      "name": "checkMembership",
      "outputs": [
        {
          "internalType": "bool",
          "name": "",
          "type": "bool"
        }
      ],
      "stateMutability": "view",
      "type": "function"
    },
    {
      "inputs": [],
      "name": "closeFactorMantissa",
      "outputs": [
        {
          "internalType": "uint256",
          "name": "",
          "type": "uint256"
        }
      ],
      "stateMutability": "view",
      "type": "function"
    },
    {
      "inputs": [],
      "name": "comptrollerImplementation",
      "outputs": [
        {
          "internalType": "address",
          "name": "",
          "type": "address"
        }
      ],
      "stateMutability": "view",
      "type": "function"
    },
    {
      "inputs": [],
      "name": "enforceWhitelist",
      "outputs": [
        {
          "internalType": "bool",
          "name": "",
          "type": "bool"
        }
      ],
      "stateMutability": "view",
      "type": "function"
    },
    {
      "inputs": [
        {
          "internalType": "address[]",
          "name": "cTokens",
          "type": "address[]"
        }
      ],
      "name": "enterMarkets",
      "outputs": [
        {
          "internalType": "uint256[]",
          "name": "",
          "type": "uint256[]"
        }
      ],
      "stateMutability": "nonpayable",
      "type": "function"
    },
    {
      "inputs": [
        {
          "internalType": "address",
          "name": "cTokenAddress",
          "type": "address"
        }
      ],
      "name": "exitMarket",
      "outputs": [
        {
          "internalType": "uint256",
          "name": "",
          "type": "uint256"
        }
      ],
      "stateMutability": "nonpayable",
      "type": "function"
    },
    {
      "inputs": [],
      "name": "fuseAdmin",
      "outputs": [
        {
          "internalType": "address payable",
          "name": "",
          "type": "address"
        }
      ],
      "stateMutability": "view",
      "type": "function"
    },
    {
      "inputs": [],
      "name": "fuseAdminHasRights",
      "outputs": [
        {
          "internalType": "bool",
          "name": "",
          "type": "bool"
        }
      ],
      "stateMutability": "view",
      "type": "function"
    },
    {
      "inputs": [
        {
          "internalType": "address",
          "name": "account",
          "type": "address"
        }
      ],
      "name": "getAccountLiquidity",
      "outputs": [
        {
          "internalType": "uint256",
          "name": "",
          "type": "uint256"
        },
        {
          "internalType": "uint256",
          "name": "",
          "type": "uint256"
        },
        {
          "internalType": "uint256",
          "name": "",
          "type": "uint256"
        }
      ],
      "stateMutability": "view",
      "type": "function"
    },
    {
      "inputs": [
        {
          "internalType": "address",
          "name": "account",
          "type": "address"
        }
      ],
      "name": "getAssetsIn",
      "outputs": [
        {
          "internalType": "contract CTokenInterface[]",
          "name": "",
          "type": "address[]"
        }
      ],
      "stateMutability": "view",
      "type": "function"
    },
    {
      "inputs": [
        {
          "internalType": "address",
          "name": "account",
          "type": "address"
        },
        {
          "internalType": "address",
          "name": "cTokenModify",
          "type": "address"
        },
        {
          "internalType": "uint256",
          "name": "redeemTokens",
          "type": "uint256"
        },
        {
          "internalType": "uint256",
          "name": "borrowAmount",
          "type": "uint256"
        }
      ],
      "name": "getHypotheticalAccountLiquidity",
      "outputs": [
        {
          "internalType": "uint256",
          "name": "",
          "type": "uint256"
        },
        {
          "internalType": "uint256",
          "name": "",
          "type": "uint256"
        },
        {
          "internalType": "uint256",
          "name": "",
          "type": "uint256"
        }
      ],
      "stateMutability": "view",
      "type": "function"
    },
    {
      "inputs": [
        {
          "internalType": "address",
          "name": "account",
          "type": "address"
        },
        {
          "internalType": "address",
          "name": "cToken",
          "type": "address"
        },
        {
          "internalType": "bool",
          "name": "isBorrow",
          "type": "bool"
        }
      ],
      "name": "getMaxRedeemOrBorrow",
      "outputs": [
        {
          "internalType": "uint256",
          "name": "",
          "type": "uint256"
        }
      ],
      "stateMutability": "nonpayable",
      "type": "function"
    },
    {
      "inputs": [],
      "name": "isComptroller",
      "outputs": [
        {
          "internalType": "bool",
          "name": "",
          "type": "bool"
        }
      ],
      "stateMutability": "view",
      "type": "function"
    },
    {
      "inputs": [
        {
          "internalType": "contract CTokenInterface",
          "name": "cToken",
          "type": "address"
        }
      ],
      "name": "isDeprecated",
      "outputs": [
        {
          "internalType": "bool",
          "name": "",
          "type": "bool"
        }
      ],
      "stateMutability": "view",
      "type": "function"
    },
    {
      "inputs": [
        {
          "internalType": "address",
          "name": "cTokenBorrowed",
          "type": "address"
        },
        {
          "internalType": "address",
          "name": "cTokenCollateral",
          "type": "address"
        },
        {
          "internalType": "address",
          "name": "liquidator",
          "type": "address"
        },
        {
          "internalType": "address",
          "name": "borrower",
          "type": "address"
        },
        {
          "internalType": "uint256",
          "name": "repayAmount",
          "type": "uint256"
        }
      ],
      "name": "liquidateBorrowAllowed",
      "outputs": [
        {
          "internalType": "uint256",
          "name": "",
          "type": "uint256"
        }
      ],
      "stateMutability": "nonpayable",
      "type": "function"
    },
    {
      "inputs": [
        {
          "internalType": "address",
          "name": "cTokenBorrowed",
          "type": "address"
        },
        {
          "internalType": "address",
          "name": "cTokenCollateral",
          "type": "address"
        },
        {
          "internalType": "uint256",
          "name": "actualRepayAmount",
          "type": "uint256"
        }
      ],
      "name": "liquidateCalculateSeizeTokens",
      "outputs": [
        {
          "internalType": "uint256",
          "name": "",
          "type": "uint256"
        },
        {
          "internalType": "uint256",
          "name": "",
          "type": "uint256"
        }
      ],
      "stateMutability": "view",
      "type": "function"
    },
    {
      "inputs": [],
      "name": "liquidationIncentiveMantissa",
      "outputs": [
        {
          "internalType": "uint256",
          "name": "",
          "type": "uint256"
        }
      ],
      "stateMutability": "view",
      "type": "function"
    },
    {
      "inputs": [
        {
          "internalType": "address",
          "name": "",
          "type": "address"
        }
      ],
      "name": "markets",
      "outputs": [
        {
          "internalType": "bool",
          "name": "isListed",
          "type": "bool"
        },
        {
          "internalType": "uint256",
          "name": "collateralFactorMantissa",
          "type": "uint256"
        }
      ],
      "stateMutability": "view",
      "type": "function"
    },
    {
      "inputs": [
        {
          "internalType": "address",
          "name": "cToken",
          "type": "address"
        },
        {
          "internalType": "address",
          "name": "minter",
          "type": "address"
        },
        {
          "internalType": "uint256",
          "name": "mintAmount",
          "type": "uint256"
        }
      ],
      "name": "mintAllowed",
      "outputs": [
        {
          "internalType": "uint256",
          "name": "",
          "type": "uint256"
        }
      ],
      "stateMutability": "nonpayable",
      "type": "function"
    },
    {
      "inputs": [
        {
          "internalType": "address",
          "name": "",
          "type": "address"
        }
      ],
      "name": "mintGuardianPaused",
      "outputs": [
        {
          "internalType": "bool",
          "name": "",
          "type": "bool"
        }
      ],
      "stateMutability": "view",
      "type": "function"
    },
    {
      "inputs": [
        {
          "internalType": "uint256",
          "name": "",
          "type": "uint256"
        }
      ],
      "name": "nonAccruingRewardsDistributors",
      "outputs": [
        {
          "internalType": "address",
          "name": "",
          "type": "address"
        }
      ],
      "stateMutability": "view",
      "type": "function"
    },
    {
      "inputs": [],
      "name": "oracle",
      "outputs": [
        {
          "internalType": "contract PriceOracle",
          "name": "",
          "type": "address"
        }
      ],
      "stateMutability": "view",
      "type": "function"
    },
    {
      "inputs": [],
      "name": "pauseGuardian",
      "outputs": [
        {
          "internalType": "address",
          "name": "",
          "type": "address"
        }
      ],
      "stateMutability": "view",
      "type": "function"
    },
    {
      "inputs": [],
      "name": "pendingAdmin",
      "outputs": [
        {
          "internalType": "address",
          "name": "",
          "type": "address"
        }
      ],
      "stateMutability": "view",
      "type": "function"
    },
    {
      "inputs": [],
      "name": "pendingComptrollerImplementation",
      "outputs": [
        {
          "internalType": "address",
          "name": "",
          "type": "address"
        }
      ],
      "stateMutability": "view",
      "type": "function"
    },
    {
      "inputs": [
        {
          "internalType": "address",
          "name": "cToken",
          "type": "address"
        },
        {
          "internalType": "address",
          "name": "redeemer",
          "type": "address"
        },
        {
          "internalType": "uint256",
          "name": "redeemTokens",
          "type": "uint256"
        }
      ],
      "name": "redeemAllowed",
      "outputs": [
        {
          "internalType": "uint256",
          "name": "",
          "type": "uint256"
        }
      ],
      "stateMutability": "nonpayable",
      "type": "function"
    },
    {
      "inputs": [
        {
          "internalType": "address",
          "name": "cToken",
          "type": "address"
        },
        {
          "internalType": "address",
          "name": "redeemer",
          "type": "address"
        },
        {
          "internalType": "uint256",
          "name": "redeemAmount",
          "type": "uint256"
        },
        {
          "internalType": "uint256",
          "name": "redeemTokens",
          "type": "uint256"
        }
      ],
      "name": "redeemVerify",
      "outputs": [],
      "stateMutability": "nonpayable",
      "type": "function"
    },
    {
      "inputs": [
        {
          "internalType": "address",
          "name": "cToken",
          "type": "address"
        },
        {
          "internalType": "address",
          "name": "payer",
          "type": "address"
        },
        {
          "internalType": "address",
          "name": "borrower",
          "type": "address"
        },
        {
          "internalType": "uint256",
          "name": "repayAmount",
          "type": "uint256"
        }
      ],
      "name": "repayBorrowAllowed",
      "outputs": [
        {
          "internalType": "uint256",
          "name": "",
          "type": "uint256"
        }
      ],
      "stateMutability": "nonpayable",
      "type": "function"
    },
    {
      "inputs": [
        {
          "internalType": "uint256",
          "name": "",
          "type": "uint256"
        }
      ],
      "name": "rewardsDistributors",
      "outputs": [
        {
          "internalType": "address",
          "name": "",
          "type": "address"
        }
      ],
      "stateMutability": "view",
      "type": "function"
    },
    {
      "inputs": [
        {
          "internalType": "address",
          "name": "cTokenCollateral",
          "type": "address"
        },
        {
          "internalType": "address",
          "name": "cTokenBorrowed",
          "type": "address"
        },
        {
          "internalType": "address",
          "name": "liquidator",
          "type": "address"
        },
        {
          "internalType": "address",
          "name": "borrower",
          "type": "address"
        },
        {
          "internalType": "uint256",
          "name": "seizeTokens",
          "type": "uint256"
        }
      ],
      "name": "seizeAllowed",
      "outputs": [
        {
          "internalType": "uint256",
          "name": "",
          "type": "uint256"
        }
      ],
      "stateMutability": "nonpayable",
      "type": "function"
    },
    {
      "inputs": [],
      "name": "seizeGuardianPaused",
      "outputs": [
        {
          "internalType": "bool",
          "name": "",
          "type": "bool"
        }
      ],
      "stateMutability": "view",
      "type": "function"
    },
    {
      "inputs": [
        {
          "internalType": "address",
          "name": "",
          "type": "address"
        }
      ],
      "name": "suppliers",
      "outputs": [
        {
          "internalType": "bool",
          "name": "",
          "type": "bool"
        }
      ],
      "stateMutability": "view",
      "type": "function"
    },
    {
      "inputs": [
        {
          "internalType": "address",
          "name": "",
          "type": "address"
        },
        {
          "internalType": "address",
          "name": "",
          "type": "address"
        }
      ],
      "name": "supplyCapWhitelist",
      "outputs": [
        {
          "internalType": "bool",
          "name": "",
          "type": "bool"
        }
      ],
      "stateMutability": "view",
      "type": "function"
    },
    {
      "inputs": [
        {
          "internalType": "address",
          "name": "",
          "type": "address"
        }
      ],
      "name": "supplyCaps",
      "outputs": [
        {
          "internalType": "uint256",
          "name": "",
          "type": "uint256"
        }
      ],
      "stateMutability": "view",
      "type": "function"
    },
    {
      "inputs": [
        {
          "internalType": "address",
          "name": "cToken",
          "type": "address"
        },
        {
          "internalType": "address",
          "name": "src",
          "type": "address"
        },
        {
          "internalType": "address",
          "name": "dst",
          "type": "address"
        },
        {
          "internalType": "uint256",
          "name": "transferTokens",
          "type": "uint256"
        }
      ],
      "name": "transferAllowed",
      "outputs": [
        {
          "internalType": "uint256",
          "name": "",
          "type": "uint256"
        }
      ],
      "stateMutability": "nonpayable",
      "type": "function"
    },
    {
      "inputs": [],
      "name": "transferGuardianPaused",
      "outputs": [
        {
          "internalType": "bool",
          "name": "",
          "type": "bool"
        }
      ],
      "stateMutability": "view",
      "type": "function"
    },
    {
      "inputs": [
        {
          "internalType": "address",
          "name": "",
          "type": "address"
        }
      ],
      "name": "whitelist",
      "outputs": [
        {
          "internalType": "bool",
          "name": "",
          "type": "bool"
        }
      ],
      "stateMutability": "view",
      "type": "function"
    },
    {
      "inputs": [
        {
          "internalType": "uint256",
          "name": "",
          "type": "uint256"
        }
      ],
      "name": "whitelistArray",
      "outputs": [
        {
          "internalType": "address",
          "name": "",
          "type": "address"
        }
      ],
      "stateMutability": "view",
      "type": "function"
    }
  ],
  "transactionHash": "0x43767188c07d9fce6dd7d9a5536c08ae2a2bc4fcead50883517ff81946b53ce2",
  "args": [
    "0xFc1f56C58286E7215701A773b61bFf2e18A177dE"
  ],
  "numDeployments": 31,
  "bytecode": {
    "object": "0x60806040526002805461ffff60a01b191661010160a01b1790553480156200002657600080fd5b5060405162005a4938038062005a4983398101604081905262000049916200006f565b600080546001600160a01b0319166001600160a01b0392909216919091179055620000a1565b6000602082840312156200008257600080fd5b81516001600160a01b03811681146200009a57600080fd5b9392505050565b61599880620000b16000396000f3fe608060405234801561001057600080fd5b50600436106104325760003560e01c8063779b229411610236578063c29982381161013b578063da3d454c116100c3578063e6653f3d11610087578063e6653f3d14610b64578063e875544614610b78578063eabe7d9114610b81578063ede4edd014610b94578063f851a44014610ba757610432565b8063da3d454c14610b0b578063dce1544914610b1e578063dcfbc0c714610b31578063dd5cd22c14610b44578063e4028eee14610b5157610432565b8063c90c20b11161010a578063c90c20b114610a98578063ca36d40a14610aa0578063d02f735114610ad2578063d251fefc14610ae5578063d533316614610af857610432565b8063c299823814610a2a578063c488847b14610a4a578063c6c5b0dd14610a72578063c8c9c97514610a8557610432565b80639b19251a116101be578063b09572101161018d578063b0957210146109b6578063b9b5b153146109c3578063bb82aa5e146109d6578063bc89f68a146109e9578063bdcdc25814610a1757610432565b80639b19251a14610959578063aba35b981461097c578063abfceffc1461098f578063ac0b0bb7146109a257610432565b80638e8f294b116102055780638e8f294b14610883578063929fe9a1146108c7578063940cd6f11461090857806394543c1514610933578063952adf5a1461094657610432565b8063779b2294146108365780637dc0d1d01461084957806387f763031461085c57806389cd98551461087057610432565b80633c94786f1161033c5780635d72de62116102c45780636333d001116102935780636333d001146107b55780636bd02b8a146107ca5780636d154ea5146107dd578063731f0c2b146108005780637515bafa1461082357610432565b80635d72de621461077f5780635ec88c79146107875780635fc7e71e1461079a578063632e5142146107ad57610432565b80634ef4c3e11161030b5780634ef4c3e1146107205780634fd42e171461073357806351dff9891461074657806352d84d1e1461075957806355ee1fe11461076c57610432565b80633c94786f146106b55780634a584432146106c95780634ada90af146106e95780634e79238f146106f257610432565b80631d504dc6116103bf57806324a3d6221161038e57806324a3d6221461063f57806326782247146106525780632f1069ba14610665578063317b0b771461067957806331ff47fa1461068c57610432565b80631d504dc6146105cb5780631dadaa84146105e057806321af45691461061457806324008a621461062c57610432565b806316dc15fe1161040657806316dc15fe146105335780631879dbc5146105565780631976828e146105845780631ace5957146105975780631c819e431461059d57610432565b80627e3dd2146104a957806302c3bcbb146104c65780630a755ec2146104f457806315761d5114610508575b60006104496000356001600160e01b031916610bba565b90506001600160a01b03811661048557604051630a82dd7360e31b81526001600160e01b03196000351660048201526024015b60405180910390fd5b3660008037600080366000845af43d6000803e8080156104a4573d6000f35b3d6000fd5b6104b1600181565b60405190151581526020015b60405180910390f35b6104e66104d43660046150aa565b601a6020526000908152604090205481565b6040519081526020016104bd565b6002546104b190600160a81b900460ff1681565b60005461051b906001600160a01b031681565b6040516001600160a01b0390911681526020016104bd565b6104b16105413660046150aa565b600f6020526000908152604090205460ff1681565b6104b16105643660046150c7565b602260209081526000928352604080842090915290825290205460ff1681565b6104e661059236600461510e565b610c1d565b3061051b565b6104b16105ab3660046150c7565b601f60209081526000928352604080842090915290825290205460ff1681565b6105de6105d93660046150aa565b610e6c565b005b6104b16105ee366004615159565b602160209081526000938452604080852082529284528284209052825290205460ff1681565b60185461051b9061010090046001600160a01b031681565b6104e661063a366004615199565b61110a565b60155461051b906001600160a01b031681565b60025461051b906001600160a01b031681565b6002546104b190600160a01b900460ff1681565b6104e66106873660046151ea565b61114c565b61051b61069a3660046150aa565b6010602052600090815260409020546001600160a01b031681565b6015546104b190600160a01b900460ff1681565b6104e66106d73660046150aa565b60196020526000908152604090205481565b6104e660075481565b610705610700366004615203565b611226565b604080519384526020840192909252908201526060016104bd565b6104e661072e366004615249565b611266565b6104e66107413660046151ea565b61149c565b6105de610754366004615203565b611558565b61051b6107673660046151ea565b6115ea565b6104e661077a3660046150aa565b611614565b6105de611694565b6107056107953660046150aa565b611808565b6104e66107a836600461528a565b611843565b6105de6119f4565b6107bd611a62565b6040516104bd91906152ee565b61051b6107d83660046151ea565b611a71565b6104b16107eb3660046150aa565b60176020526000908152604090205460ff1681565b6104b161080e3660046150aa565b60166020526000908152604090205460ff1681565b61051b6108313660046151ea565b611a81565b6104e661084436600461533b565b611a91565b60055461051b906001600160a01b031681565b6015546104b190600160b01b900460ff1681565b6105de61087e3660046150c7565b611bec565b6108b06108913660046150aa565b600a602052600090815260409020805460019091015460ff9091169082565b6040805192151583526020830191909152016104bd565b6104b16108d53660046150c7565b6001600160a01b038082166000908152600a60209081526040808320938616835260029093019052205460ff1692915050565b6104e66109163660046150c7565b601e60209081526000928352604080842090915290825290205481565b6104b16109413660046150aa565b611c65565b6104e6610954366004615367565b611dcf565b6104b16109673660046150aa565b60126020526000908152604090205460ff1681565b6104e661098a366004615384565b611e4d565b6107bd61099d3660046150aa565b611f43565b6015546104b190600160b81b900460ff1681565b6011546104b19060ff1681565b6104e66109d13660046150aa565b611fb9565b60035461051b906001600160a01b031681565b6104b16109f73660046150c7565b602360209081526000928352604080842090915290825290205460ff1681565b6104e6610a25366004615199565b61217c565b610a3d610a3836600461547a565b6121ff565b6040516104bd919061550e565b610a5d610a58366004615249565b6122c7565b604080519283526020830191909152016104bd565b61051b610a803660046151ea565b612654565b6104e6610a9336600461558b565b612664565b6105de61290b565b6104b1610aae366004615159565b60208080526000938452604080852082529284528284209052825290205460ff1681565b6104e6610ae036600461528a565b6129b5565b61051b610af33660046151ea565b612b3c565b6104e6610b06366004615367565b612b4c565b6104e6610b19366004615249565b612bbf565b61051b610b2c36600461533b565b612f51565b60045461051b906001600160a01b031681565b6018546104b19060ff1681565b6104e6610b5f36600461533b565b612f89565b6015546104b190600160a81b900460ff1681565b6104e660065481565b6104e6610b8f366004615249565b613113565b6104e6610ba23660046150aa565b613130565b60015461051b906001600160a01b031681565b6001600160e01b03198116600090815260008051602061596c833981519152602081905260408220546001600160a01b031680610c1657604051631f3f429960e31b81526001600160e01b03198516600482015260240161047c565b9392505050565b6000808390506000816001600160a01b0316639f5ef2726040518163ffffffff1660e01b8152600401602060405180830381865afa158015610c63573d6000803e3d6000fd5b505050506040513d601f19601f82011682018060405250810190610c8791906155f7565b604051633af9e66960e01b81526001600160a01b0388811660048301529190911690633af9e669906024016020604051808303816000875af1158015610cd1573d6000803e3d6000fd5b505050506040513d601f19601f82011682018060405250810190610cf59190615614565b90506000806000610d168988610d0c576000610d0e565b865b600080613593565b919450925090506000836014811115610d3157610d3161562d565b14610d6b5760405162461bcd60e51b815260206004820152600a602482015269216c697175696469747960b01b604482015260640161047c565b8015610d7f57600095505050505050610c16565b600087158015610db957506001600160a01b03808a166000908152600a60209081526040808320938e16835260029093019052205460ff16155b15610dc5575083610de7565b610dd083878a613b3c565b905087158015610ddf57508085105b15610de75750835b6000866001600160a01b0316633b1d21a26040518163ffffffff1660e01b8152600401602060405180830381865afa158015610e27573d6000803e3d6000fd5b505050506040513d601f19601f82011682018060405250810190610e4b9190615614565b905080821115610e5b5780610e5d565b815b9b9a5050505050505050505050565b6000546001600160a01b031633148015610ee35750806001600160a01b0316632f1069ba6040518163ffffffff1660e01b8152600401602060405180830381865afa158015610ebf573d6000803e3d6000fd5b505050506040513d601f19601f82011682018060405250810190610ee39190615643565b80610fc85750806001600160a01b031663f851a4406040518163ffffffff1660e01b8152600401602060405180830381865afa158015610f27573d6000803e3d6000fd5b505050506040513d601f19601f82011682018060405250810190610f4b91906155f7565b6001600160a01b0316336001600160a01b0316148015610fc85750806001600160a01b0316630a755ec26040518163ffffffff1660e01b8152600401602060405180830381865afa158015610fa4573d6000803e3d6000fd5b505050506040513d601f19601f82011682018060405250810190610fc89190615643565b610ffd5760405162461bcd60e51b815260206004820152600660248201526510b0b236b4b760d11b604482015260640161047c565b6000816001600160a01b031663c1e803346040518163ffffffff1660e01b81526004016020604051808303816000875af115801561103f573d6000803e3d6000fd5b505050506040513d601f19601f820116820180604052508101906110639190615614565b905080156110b35760405162461bcd60e51b815260206004820181905260248201527f21756e617574686f72697a6564202d206e6f742070656e64696e6720696d706c604482015260640161047c565b816001600160a01b0316635d72de626040518163ffffffff1660e01b8152600401600060405180830381600087803b1580156110ee57600080fd5b505af1158015611102573d6000803e3d6000fd5b505050505050565b6001600160a01b0384166000908152600a602052604081205460ff166111345760085b9050611144565b61113e8584613c55565b60005b90505b949350505050565b6000611156613cfd565b61116c5761116660016007613d4f565b92915050565b6040805160208082018352848252825190810190925266b1a2bc2ec500008083528151919291116111a35761114460056008613d4f565b6040805160208101909152670c7d713b49da0000808252835111156111d7576111ce60056008613d4f565b95945050505050565b600680549086905560408051828152602081018890527f3b9670cf975d26958e754b57098eaa2ac914d8d2a31b83257997b9f346110fd991015b60405180910390a160005b9695505050505050565b60008060008060008061123b8a8a8a8a613593565b9250925092508260148111156112535761125361562d565b95509093509150505b9450945094915050565b6001600160a01b03831660009081526016602052604081205460ff16156112be5760405162461bcd60e51b815260206004820152600c60248201526b085b5a5b9d0e9c185d5cd95960a21b604482015260640161047c565b6001600160a01b0384166000908152600a602052604090205460ff166112e85760085b9050610c16565b60115460ff16801561131357506001600160a01b03831660009081526012602052604090205460ff16155b1561131f5760116112e1565b6001600160a01b0384166000908152601a6020526040902054801580159061136d57506001600160a01b0380861660009081526022602090815260408083209388168352929052205460ff16155b15611487576000856001600160a01b0316639f5ef2726040518163ffffffff1660e01b8152600401602060405180830381865afa1580156113b2573d6000803e3d6000fd5b505050506040513d601f19601f820116820180604052508101906113d691906155f7565b90506000816001600160a01b0316634aeb3d9a6040518163ffffffff1660e01b8152600401602060405180830381865afa158015611418573d6000803e3d6000fd5b505050506040513d601f19601f8201168201806040525081019061143c9190615614565b9050826114498683615676565b106114845760405162461bcd60e51b815260206004820152600b60248201526a021737570706c79206361760ac1b604482015260640161047c565b50505b6114918585613dc8565b600095945050505050565b60006114a6613cfd565b6114b6576111666001600d613d4f565b60408051602080820183528482528251908101909252670de0b6b3a7640000808352815191929110156114ef576111446007600e613d4f565b60408051602081019091526714d1120d7b1600008082528351111561151a576111ce6007600e613d4f565b600780549086905560408051828152602081018890527faeba5a6c40a8ac138134bff1aaa65debf25971188a58804bad717f82f0ec13169101611211565b336000908152600a602052604090205460ff166115a15760405162461bcd60e51b8152602060048201526007602482015266085b585c9ad95d60ca1b604482015260640161047c565b801580156115af5750600082115b156115e45760405162461bcd60e51b8152602060048201526005602482015264217a65726f60d81b604482015260640161047c565b50505050565b600b81815481106115fa57600080fd5b6000918252602090912001546001600160a01b0316905081565b600061161e613cfd565b61162e5761116660016012613d4f565b600580546001600160a01b038481166001600160a01b031983168117909355604080519190921680825260208201939093527fd52b2b9b7e9ee655fcb95d2e5b9e0c9f69e7ef2b8e9d2d0ea78402d576d22e22910160405180910390a160009392505050565b6003546001600160a01b031633146116e05760405162461bcd60e51b815260206004820152600f60248201526e10b4b6b83632b6b2b73a30ba34b7b760891b604482015260640161047c565b60006116ea613e6a565b905060005b815181101561172c5761171a82828151811061170d5761170d61568e565b6020026020010151613edc565b80611724816156a4565b9150506116ef565b5060008054600354604051631978a0bf60e31b81526001600160a01b03918216600482015291169063cbc505f890602401600060405180830381865afa15801561177a573d6000803e3d6000fd5b505050506040513d6000823e601f3d908101601f191682016040526117a291908101906156bf565b905060005b81518110156117e4576117d28282815181106117c5576117c561568e565b602002602001015161400c565b806117dc816156a4565b9150506117a7565b50601c54610100900460ff1661180457601c805461ffff19166101011790555b5050565b60008060008060008061181f876000806000613593565b9250925092508260148111156118375761183761562d565b97919650945092505050565b6001600160a01b0385166000908152600a602052604081205460ff16158061188457506001600160a01b0385166000908152600a602052604090205460ff16155b156118935760085b90506111ce565b6040516395dd919360e01b81526001600160a01b038481166004830152600091908816906395dd919390602401602060405180830381865afa1580156118dd573d6000803e3d6000fd5b505050506040513d601f19601f820116820180604052508101906119019190615614565b905061190c87611c65565b1561195657828110156119515760405162461bcd60e51b815260206004820152600d60248201526c21626f72726f773e726570617960981b604482015260640161047c565b6119e7565b600080611967866000806000613593565b919350909150600090508260148111156119835761198361562d565b146119a45781601481111561199a5761199a61562d565b93505050506111ce565b806119b057600361199a565b60006119cc604051806020016040528060065481525085614104565b9050808611156119e35760109450505050506111ce565b5050505b5060009695505050505050565b336000908152600a602052604090205460ff16611a535760405162461bcd60e51b815260206004820152601f60248201527f21436f6d7074726f6c6c65723a5f61667465724e6f6e5265656e7472616e7400604482015260640161047c565b601c805460ff19166001179055565b6060611a6c613e6a565b905090565b601d81815481106115fa57600080fd5b600d81815481106115fa57600080fd5b600080546040805163fdb25fb160e01b8152905183926001600160a01b03169163fdb25fb19160048083019260209291908290030181865afa158015611adb573d6000803e3d6000fd5b505050506040513d601f19601f82011682018060405250810190611aff9190615614565b90508015611be25760055460405163fc57d4df60e01b81526001600160a01b038681166004830152600092169063fc57d4df90602401602060405180830381865afa158015611b52573d6000803e3d6000fd5b505050506040513d601f19601f82011682018060405250810190611b769190615614565b905080611b8857600c92505050611166565b600080611ba36040518060200160405280858152508761411c565b90925090506000826003811115611bbc57611bbc61562d565b14611bcf57600a5b945050505050611166565b83811015611bde576012611bc4565b5050505b6000949350505050565b6000546001600160a01b031633148015611c0f5750600254600160a01b900460ff165b611c5b5760405162461bcd60e51b815260206004820152601f60248201527f21756e617574686f72697a6564202d206e6f2061646d696e2072696768747300604482015260640161047c565b611804828261416f565b6001600160a01b0381166000908152600a6020526040812060010154158015611cab57506001600160a01b03821660009081526017602052604090205460ff1615156001145b80156111665750611dbf611d81836001600160a01b031663173b99046040518163ffffffff1660e01b8152600401602060405180830381865afa158015611cf6573d6000803e3d6000fd5b505050506040513d601f19601f82011682018060405250810190611d1a9190615614565b846001600160a01b0316638d02d9a16040518163ffffffff1660e01b8152600401602060405180830381865afa158015611d58573d6000803e3d6000fd5b505050506040513d601f19601f82011682018060405250810190611d7c9190615614565b614190565b836001600160a01b031663dbfe7c196040518163ffffffff1660e01b8152600401602060405180830381865afa158015611d58573d6000803e3d6000fd5b670de0b6b3a76400001492915050565b6000611dd9613cfd565b611de95761116660016013613d4f565b60115460ff1615158215151415611e01576000611166565b6011805460ff19168315159081179091556040519081527f84c7d948374a180eddab35d27d2f7a94167a1ff4e79467f1e89c061984190a1e906020015b60405180910390a16000611166565b6000611e57613cfd565b611e675761112d60016016613d4f565b60028054600160a01b60ff60a01b198216811790925560008054604051638754e4fd60e01b81529390920460ff169290916001600160a01b031690638754e4fd90611eb8908990899060040161574e565b6020604051808303816000875af1158015611ed7573d6000803e3d6000fd5b505050506040513d601f19601f82011682018060405250810190611efb91906155f7565b6002805460ff60a01b1916600160a01b8515150217905590506000611f1f826141c6565b90508015611f2d5780611f37565b611f378286612f89565b98975050505050505050565b6001600160a01b0381166000908152600960209081526040808320805482518185028101850190935280835260609493830182828015611fac57602002820191906000526020600020905b81546001600160a01b03168152600190910190602001808311611f8e575b5093979650505050505050565b6000611fc3613cfd565b611fd35761116660016002613d4f565b816001600160a01b031663abc6d72d6040518163ffffffff1660e01b81526004016020604051808303816000875af1158015612013573d6000803e3d6000fd5b505050506040513d601f19601f820116820180604052508101906120379190615643565b61207b5760405162461bcd60e51b815260206004820152601560248201527410b4b9a932bbb0b93239a234b9ba3934b13aba37b960591b604482015260640161047c565b60005b601b548110156120fd57601b818154811061209b5761209b61568e565b6000918252602090912001546001600160a01b03848116911614156120eb5760405162461bcd60e51b815260206004820152600660248201526508585919195960d21b604482015260640161047c565b806120f5816156a4565b91505061207e565b50601b80546001810182556000919091527f3ad8aa4f87544323a9d1e5dd902f40c356527a7955687113db5f9a85ad579dc10180546001600160a01b0319166001600160a01b0384169081179091556040519081527f98ef1187fb6fd2bc85f8996489877eb2b5428f9e9bdfc068c9ad6c2ea82eacc790602001611e3e565b601554600090600160b01b900460ff16156121cc5760405162461bcd60e51b815260206004820152601060248201526f085d1c985b9cd9995c8e9c185d5cd95960821b604482015260640161047c565b60006121d98686856144b0565b905080156121e8579050611144565b6121f38686866145ad565b60009695505050505050565b805160609060008167ffffffffffffffff81111561221f5761221f61540f565b604051908082528060200260200182016040528015612248578160200160208202803683370190505b50905060005b828110156122bf57600085828151811061226a5761226a61568e565b6020026020010151905061227e8133614658565b601481111561228f5761228f61562d565b8383815181106122a1576122a161568e565b602090810291909101015250806122b7816156a4565b91505061224e565b509392505050565b60055460405163fc57d4df60e01b81526001600160a01b038581166004830152600092839283929091169063fc57d4df90602401602060405180830381865afa158015612318573d6000803e3d6000fd5b505050506040513d601f19601f8201168201806040525081019061233c9190615614565b60055460405163fc57d4df60e01b81526001600160a01b0388811660048301529293506000929091169063fc57d4df90602401602060405180830381865afa15801561238c573d6000803e3d6000fd5b505050506040513d601f19601f820116820180604052508101906123b09190615614565b90508115806123bd575080155b156123d157600c600093509350505061264c565b60008690506000816001600160a01b0316639f5ef2726040518163ffffffff1660e01b8152600401602060405180830381865afa158015612416573d6000803e3d6000fd5b505050506040513d601f19601f8201168201806040525081019061243a91906155f7565b6001600160a01b031663182df0f56040518163ffffffff1660e01b8152600401602060405180830381865afa158015612477573d6000803e3d6000fd5b505050506040513d601f19601f8201168201806040525081019061249b9190615614565b905060006124b56040518060200160405280600081525090565b6040805160208101909152600081526040805160208101909152600081526000866001600160a01b0316636752e7026040518163ffffffff1660e01b8152600401602060405180830381865afa158015612513573d6000803e3d6000fd5b505050506040513d601f19601f820116820180604052508101906125379190615614565b90506000876001600160a01b031663be99f1196040518163ffffffff1660e01b8152600401602060405180830381865afa158015612579573d6000803e3d6000fd5b505050506040513d601f19601f8201168201806040525081019061259d9190615614565b905060006125e06125cc60405180602001604052806007548152506040518060200160405280878152506147f3565b6040518060200160405280858152506147f3565b90506125fa8160405180602001604052808e815250614828565b955061262260405180602001604052808c81525060405180602001604052808b815250614828565b945061262e8686614867565b935061263a848f614104565b60009d509b5050505050505050505050505b935093915050565b601b81815481106115fa57600080fd5b600061266e613cfd565b61267e5761112d60016014613d4f565b60005b8481101561290357600086868381811061269d5761269d61568e565b90506020020160208101906126b291906150aa565b90508484838181106126c6576126c661568e565b90506020020160208101906126db9190615367565b15612793576001600160a01b03811660009081526012602052604090205460ff1661278e576001600160a01b0381166000818152601260205260408120805460ff19166001908117909155601380548083018255928190527f66de8ffda797e3de9c05e8fc57b3bf0ec28a930d40b0d285d93c06501cf6a09090920180546001600160a01b03191690931790925554612774919061577d565b6001600160a01b0382166000908152601460205260409020555b6128f0565b6001600160a01b03811660009081526012602052604090205460ff16156128f057601380546127c49060019061577d565b815481106127d4576127d461568e565b60009182526020808320909101546001600160a01b03848116845260149092526040909220546013805492909316929181106128125761281261568e565b9060005260206000200160006101000a8154816001600160a01b0302191690836001600160a01b03160217905550601380548061285157612851615794565b60008281526020808220830160001990810180546001600160a01b03191690559092019092556001600160a01b0383168252601490819052604082205460138054919391849081106128a5576128a561568e565b60009182526020808320909101546001600160a01b039081168452838201949094526040928301822094909455918416825260148352808220829055601290925220805460ff191690555b50806128fb816156a4565b915050612681565b506000611141565b336000908152600a602052604090205460ff1661296a5760405162461bcd60e51b815260206004820181905260248201527f21436f6d7074726f6c6c65723a5f6265666f72654e6f6e5265656e7472616e74604482015260640161047c565b601c5460ff166129a95760405162461bcd60e51b815260206004820152600a602482015269085c99595b9d195c995960b21b604482015260640161047c565b601c805460ff19169055565b601554600090600160b81b900460ff1615612a025760405162461bcd60e51b815260206004820152600d60248201526c085cd95a5e994e9c185d5cd959609a1b604482015260640161047c565b6001600160a01b0386166000908152600a602052604090205460ff161580612a4357506001600160a01b0385166000908152600a602052604090205460ff16155b15612a4f57600861188c565b846001600160a01b0316635fe3b5676040518163ffffffff1660e01b8152600401602060405180830381865afa158015612a8d573d6000803e3d6000fd5b505050506040513d601f19601f82011682018060405250810190612ab191906155f7565b6001600160a01b0316866001600160a01b0316635fe3b5676040518163ffffffff1660e01b8152600401602060405180830381865afa158015612af8573d6000803e3d6000fd5b505050506040513d601f19601f82011682018060405250810190612b1c91906155f7565b6001600160a01b031614612b3157600261188c565b6121f38684866145ad565b601381815481106115fa57600080fd5b6000612b56613cfd565b612b665761116660016006613d4f565b60185460ff1615158215151415612b7e576000611166565b6018805460ff19168315159081179091556040519081527faa40ee94af55250363b91641a0a615c47690148901505f89b01dafae03fff28190602001611e3e565b6001600160a01b03831660009081526017602052604081205460ff1615612c195760405162461bcd60e51b815260206004820152600e60248201526d08589bdc9c9bddce9c185d5cd95960921b604482015260640161047c565b6001600160a01b0384166000908152600a602052604090205460ff16612c405760086112e1565b6001600160a01b038085166000908152600a60209081526040808320938716835260029093019052205460ff16612d2f57336001600160a01b03851614612cb35760405162461bcd60e51b815260206004820152600760248201526610b1ba37b5b2b760c91b604482015260640161047c565b6000612cbf3385614658565b90506000816014811115612cd557612cd561562d565b14612cf457806014811115612cec57612cec61562d565b915050610c16565b6001600160a01b038086166000908152600a60209081526040808320938816835260029093019052205460ff16612d2d57612d2d6157aa565b505b60055460405163fc57d4df60e01b81526001600160a01b0386811660048301529091169063fc57d4df90602401602060405180830381865afa158015612d79573d6000803e3d6000fd5b505050506040513d601f19601f82011682018060405250810190612d9d9190615614565b612da857600c6112e1565b60115460ff168015612dd357506001600160a01b03831660009081526012602052604090205460ff16155b15612ddf5760116112e1565b6001600160a01b0384166000908152601960205260409020548015801590612e2d57506001600160a01b0380861660009081526023602090815260408083209388168352929052205460ff16155b15612ee0576000856001600160a01b03166347bd37186040518163ffffffff1660e01b8152600401602060405180830381865afa158015612e72573d6000803e3d6000fd5b505050506040513d601f19601f82011682018060405250810190612e969190615614565b905081612ea38583615676565b10612ede5760405162461bcd60e51b815260206004820152600b60248201526a021626f72726f773a6361760ac1b604482015260640161047c565b505b612eea8585613c55565b600080612efa8688600088613593565b91935090915060009050826014811115612f1657612f1661562d565b14612f3757816014811115612f2d57612f2d61562d565b9350505050610c16565b8015612f44576004612f2d565b6000979650505050505050565b60096020528160005260406000208181548110612f6d57600080fd5b6000918252602090912001546001600160a01b03169150829050565b6000612f93613cfd565b612faa57612fa360016009613d4f565b9050611166565b6001600160a01b0383166000908152600a60205260409020805460ff16612fdf57612fd76008600a613d4f565b915050611166565b60408051602080820183528582528251908101909252670c7d713b49da000082529061300d81835190511090565b156130285761301e6006600b613d4f565b9350505050611166565b84158015906130a2575060055460405163fc57d4df60e01b81526001600160a01b0388811660048301529091169063fc57d4df90602401602060405180830381865afa15801561307c573d6000803e3d6000fd5b505050506040513d601f19601f820116820180604052508101906130a09190615614565b155b156130b25761301e600c80613d4f565b60018301805490869055604080516001600160a01b0389168152602081018390529081018790527f70483e6592cd5182d45ac970e05bc62cdcc90e9d8ef2c2dbe686cf383bcd7fc59060600160405180910390a16000979650505050505050565b6000806131218585856144b0565b90508015611487579050610c16565b6040516361bfb47160e11b815233600482015260009082908290819081906001600160a01b0385169063c37f68e290602401608060405180830381865afa15801561317f573d6000803e3d6000fd5b505050506040513d601f19601f820116820180604052508101906131a391906157c0565b50925092509250826000146131e85760405162461bcd60e51b815260206004820152600b60248201526a08595e1a5d13585c9ad95d60aa1b604482015260640161047c565b80156131fa5761121c600b6003613d4f565b60006132078733856144b0565b905080156132275761321c600d6004836148a1565b979650505050505050565b6001600160a01b0385166000908152600a60209081526040808320338452600281019092529091205460ff1661326557600098975050505050505050565b3360009081526002820160209081526040808320805460ff1916905560098252808320805482518185028101850190935280835291929091908301828280156132d757602002820191906000526020600020905b81546001600160a01b031681526001909101906020018083116132b9575b5050835193945083925060009150505b8281101561333c57896001600160a01b031684828151811061330b5761330b61568e565b60200260200101516001600160a01b0316141561332a5780915061333c565b80613334816156a4565b9150506132e7565b5081811061334c5761334c6157aa565b3360009081526009602052604090208054819061336b9060019061577d565b8154811061337b5761337b61568e565b9060005260206000200160009054906101000a90046001600160a01b03168183815481106133ab576133ab61568e565b9060005260206000200160006101000a8154816001600160a01b0302191690836001600160a01b03160217905550808054806133e9576133e9615794565b600082815260209020810160001990810180546001600160a01b0319169055019055805461354057600d80546134219060019061577d565b815481106134315761343161568e565b6000918252602080832090910154338352600e909152604090912054600d80546001600160a01b0390931692909190811061346e5761346e61568e565b9060005260206000200160006101000a8154816001600160a01b0302191690836001600160a01b03160217905550600d8054806134ad576134ad615794565b60008281526020808220830160001990810180546001600160a01b0319169055909201909255338252600e908190526040822054600d8054919391849081106134f8576134f861568e565b60009182526020808320909101546001600160a01b03168352828101939093526040918201812093909355338352600e8252808320839055600c9091529020805460ff191690555b604080516001600160a01b038c1681523360208201527fe699a64c18b07ac5b7301aa273f36a2287239eb9501d81950672794afba29a0d910160405180910390a160009c9b505050505050505050505050565b60008060006135a0614fe1565b60006001600160a01b038816156136265760055460405163fc57d4df60e01b81526001600160a01b038a811660048301529091169063fc57d4df90602401602060405180830381865afa1580156135fb573d6000803e3d6000fd5b505050506040513d601f19601f8201168201806040525081019061361f9190615614565b6101608301525b6001600160a01b03891660009081526009602090815260408083208054825181850281018501909352808352919290919083018282801561369057602002820191906000526020600020905b81546001600160a01b03168152600190910190602001808311613672575b5050505050905060005b8151811015613ae65760008282815181106136b7576136b761568e565b60209081029190910101516040516361bfb47160e11b81526001600160a01b038e811660048301529192509082169063c37f68e290602401608060405180830381865afa15801561370c573d6000803e3d6000fd5b505050506040513d601f19601f8201168201806040525081019061373091906157c0565b6080890152606088015260408701529350831561375c57600e600080975097509750505050505061125c565b60408051602080820183526001600160a01b038481166000818152600a845285902060010154845260c08a0193909352835191820184526080890151825260e0890191909152600554925163fc57d4df60e01b81526004810192909252919091169063fc57d4df90602401602060405180830381865afa1580156137e4573d6000803e3d6000fd5b505050506040513d601f19601f820116820180604052508101906138089190615614565b60a0860181905261382857600c600080975097509750505050505061125c565b604080516020810190915260a0860151815261010086015260c085015160e08601516138629161385791614828565b866101000151614828565b6101208601526000196001600160a01b03828116908d16141580613886575060008b115b15613a6e576001600160a01b038c1615613a35576001600160a01b03808d166000908152601f602090815260408083209386168352929052205460ff1680156139455750602160008d6001600160a01b03166001600160a01b031681526020019081526020016000206000836001600160a01b03166001600160a01b0316815260200190815260200160002060008e6001600160a01b03166001600160a01b0316815260200190815260200160002060009054906101000a900460ff16155b1561395257506000613a35565b6001600160a01b03808d166000908152601e6020908152604080832093861683529290522054610140870181905215801590613a045750602060008d6001600160a01b03166001600160a01b031681526020019081526020016000206000836001600160a01b03166001600160a01b0316815260200190815260200160002060008e6001600160a01b03166001600160a01b0316815260200190815260200160002060009054906101000a900460ff16155b15613a3557670de0b6b3a7640000866101600151876101400151613a2891906157f6565b613a329190615815565b90505b6000613a4a8761012001518860400151614104565b905081811115613a575750805b8087600001818151613a699190615676565b905250505b613a8686610100015187606001518860200151614919565b60208701526001600160a01b03828116908d161415613ad157613ab38661012001518c8860200151614919565b60208701819052610100870151613acb918c90614919565b60208701525b50508080613ade906156a4565b91505061369a565b50602083015183511115613b175760208301518351600091613b079161577d565b600095509550955050505061125c565b60008084600001518560200151613b2e919061577d565b95509550955050505061125c565b600083613b4b57506000610c16565b60055460405163fc57d4df60e01b81526001600160a01b038581166004830152600092169063fc57d4df90602401602060405180830381865afa158015613b96573d6000803e3d6000fd5b505050506040513d601f19601f82011682018060405250810190613bba9190615614565b905060008111613bf65760405162461bcd60e51b8152602060048201526007602482015266216f7261636c6560c81b604482015260640161047c565b82613c38576001600160a01b0384166000908152600a6020526040902060010154670de0b6b3a7640000613c2a83836157f6565b613c349190615815565b9150505b80613c4b86670de0b6b3a76400006157f6565b6111ce9190615815565b60005b601b54811015613cf857601b8181548110613c7557613c7561568e565b600091825260209091200154604051631cdc2c5d60e31b81526001600160a01b03858116600483015284811660248301529091169063e6e162e890604401600060405180830381600087803b158015613ccd57600080fd5b505af1158015613ce1573d6000803e3d6000fd5b505050508080613cf0906156a4565b915050613c58565b505050565b6001546000906001600160a01b031633148015613d235750600254600160a81b900460ff165b80611a6c57506000546001600160a01b031633148015611a6c575050600254600160a01b900460ff1690565b60007f45b96fe442630264581b197e84bbada861235052c5a1aadfff9ea4e40a969aa0836014811115613d8457613d8461562d565b83601a811115613d9657613d9661562d565b60408051928352602083019190915260009082015260600160405180910390a1826014811115610c1657610c1661562d565b60005b601b54811015613cf857601b8181548110613de857613de861568e565b60009182526020909120015460405162e48b0f60e51b81526001600160a01b038581166004830152848116602483015290911690631c9161e090604401600060405180830381600087803b158015613e3f57600080fd5b505af1158015613e53573d6000803e3d6000fd5b505050508080613e62906156a4565b915050613dcb565b606060008051602061596c833981519152600201805480602002602001604051908101604052809291908181526020018280548015613ed257602002820191906000526020600020905b81546001600160a01b03168152600190910190602001808311613eb4575b5050505050905090565b60008051602061596c833981519152613ef48261493a565b60005b600282015460ff82161015613cf857826001600160a01b0316826002018260ff1681548110613f2857613f2861568e565b6000918252602090912001546001600160a01b03161415613ffa57600282018054613f559060019061577d565b81548110613f6557613f6561568e565b6000918252602090912001546002830180546001600160a01b039092169160ff8416908110613f9657613f9661568e565b9060005260206000200160006101000a8154816001600160a01b0302191690836001600160a01b0316021790555081600201805480613fd757613fd7615794565b600082815260209020810160001990810180546001600160a01b03191690550190555b8061400481615837565b915050613ef7565b60008051602061596c83398151915260005b600282015460ff821610156140c457826001600160a01b0316826002018260ff168154811061404f5761404f61568e565b6000918252602090912001546001600160a01b031614156140b25760405162461bcd60e51b815260206004820152601760248201527f657874656e73696f6e20616c7265616479206164646564000000000000000000604482015260640161047c565b806140bc81615837565b91505061401e565b506140ce82614bc7565b6002018054600181018255600091825260209091200180546001600160a01b0319166001600160a01b0392909216919091179055565b6000806141118484614db8565b905061114481614de0565b60008060008061412c8686614df8565b909250905060008260038111156141455761414561562d565b146141565750915060009050614168565b600061416182614de0565b9350935050505b9250929050565b6001600160a01b038116156141875761418781613edc565b6118048261400c565b6000610c168383604051806040016040528060118152602001706164646974696f6e206f766572666c6f7760781b815250614e74565b60006141d0613cfd565b6141e05761116660016016613d4f565b6001600160a01b0382166000908152600a602052604090205460ff161561420d5761116660096015613d4f565b816001600160a01b031663fe9c44ae6040518163ffffffff1660e01b81526004016020604051808303816000875af115801561424d573d6000803e3d6000fd5b505050506040513d601f19601f820116820180604052508101906142719190615643565b6142b05760405162461bcd60e51b815260206004820152601060248201526f10b6b0b935b2ba1d34b9b1ba37b5b2b760811b604482015260640161047c565b306001600160a01b0316826001600160a01b0316635fe3b5676040518163ffffffff1660e01b8152600401602060405180830381865afa1580156142f8573d6000803e3d6000fd5b505050506040513d601f19601f8201168201806040525081019061431c91906155f7565b6001600160a01b0316146143615760405162461bcd60e51b815260206004820152600c60248201526b10b1b7b6b83a3937b63632b960a11b604482015260640161047c565b6000826001600160a01b0316636f307dc36040518163ffffffff1660e01b8152600401602060405180830381865afa1580156143a1573d6000803e3d6000fd5b505050506040513d601f19601f820116820180604052508101906143c591906155f7565b6001600160a01b0380821660009081526010602052604090205491925016156143f457610c1660096015613d4f565b6001600160a01b038381166000818152600a60209081526040808320805460ff191660019081178255808201859055600b805491820190557f0175b7a638427703f0dbe7bb9bbf987a2551717b34e79f33b5b1008d1fa01db90180546001600160a01b0319908116871790915595871684526010835292819020805490951684179094559251918252917fcf583bb0c569eb967f806b11601c4cb93c10310485c67add5f8362c2f212321f910160405180910390a16000611144565b60008082856001600160a01b03166318160ddd6040518163ffffffff1660e01b8152600401602060405180830381865afa1580156144f2573d6000803e3d6000fd5b505050506040513d601f19601f820116820180604052508101906145169190615614565b614520919061577d565b9050801580159061453257506103e881105b1561453e57600d612cec565b6001600160a01b0385166000908152600a602052604090205460ff16614565576008612cec565b6001600160a01b038086166000908152600a60209081526040808320938816835260029093019052205460ff1661459d576000612cec565b600080612efa8688876000613593565b60005b601b548110156115e457601b81815481106145cd576145cd61568e565b600091825260209091200154604051634e081c9560e01b81526001600160a01b0386811660048301528581166024830152848116604483015290911690634e081c9590606401600060405180830381600087803b15801561462d57600080fd5b505af1158015614641573d6000803e3d6000fd5b505050508080614650906156a4565b9150506145b0565b6001600160a01b0382166000908152600a60205260408120805460ff16614683576008915050611166565b6001600160a01b038316600090815260028201602052604090205460ff161515600114156146b5576000915050611166565b6001600160a01b03838116600081815260028401602090815260408083208054600160ff199091168117909155600983528184208054918201815584528284200180546001600160a01b031916958a1695909517909455918152600c909152205460ff166147a657600d8054600180820183557fd7b6990105719101dabeb77144f2a3385c8033acd3af97e9423a695e81ad1eb590910180546001600160a01b0319166001600160a01b0387169081179091556000908152600c60205260409020805460ff191682179055905461478c919061577d565b6001600160a01b0384166000908152600e60205260409020555b604080516001600160a01b038087168252851660208201527f3ab23ab0d51cccc0c3085aec51f99228625aa1a922b3a8ca89a26b0f2027a1a5910160405180910390a15060009392505050565b604080516020810190915260008152604051806020016040528061481f85600001518560000151614190565b90529392505050565b6040805160208101909152600081526040518060200160405280670de0b6b3a764000061485d86600001518660000151614eae565b61481f9190615815565b604080516020810190915260008152604051806020016040528061481f61489a8660000151670de0b6b3a7640000614eae565b8551614ef0565b60007f45b96fe442630264581b197e84bbada861235052c5a1aadfff9ea4e40a969aa08460148111156148d6576148d661562d565b84601a8111156148e8576148e861562d565b604080519283526020830191909152810184905260600160405180910390a18360148111156111445761114461562d565b6000806149268585614db8565b90506111ce61493482614de0565b84614190565b6000816001600160a01b03166389f8132e6040518163ffffffff1660e01b8152600401600060405180830381865afa15801561497a573d6000803e3d6000fd5b505050506040513d6000823e601f3d908101601f191682016040526149a29190810190615857565b905060008051602061596c83398151915260005b82518161ffff1610156115e4576000838261ffff16815181106149db576149db61568e565b6020908102919091018101516001600160e01b031981166000908152918590526040909120549091506001600160a01b03868116911614614a1e57614a1e6157aa565b6001600160e01b0319811660009081526020849052604090205460018085018054600160a01b90930461ffff16929091614a579161577d565b81548110614a6757614a6761568e565b90600052602060002090600891828204019190066004029054906101000a900460e01b846001018261ffff1681548110614aa357614aa361568e565b90600052602060002090600891828204019190066004026101000a81548163ffffffff021916908360e01c021790555080846000016000866001018461ffff1681548110614af357614af361568e565b6000918252602080832060088304015460079092166004026101000a90910460e01b6001600160e01b03191683528201929092526040019020805461ffff60a01b1916600160a01b61ffff939093169290920291909117905560018401805480614b5f57614b5f615794565b60008281526020808220600860001990940193840401805463ffffffff600460078716026101000a0219169055919092556001600160e01b0319909316815291849052506040902080546001600160b01b031916905580614bbf816158f4565b9150506149b6565b6000816001600160a01b03166389f8132e6040518163ffffffff1660e01b8152600401600060405180830381865afa158015614c07573d6000803e3d6000fd5b505050506040513d6000823e601f3d908101601f19168201604052614c2f9190810190615857565b7fc8fcad8db84d3cc18b4c41d551ea0ee66dd599cde068d998e57d5e09332c131d5490915060008051602061596c8339815191529060005b8351811015614db1576000848281518110614c8457614c8461568e565b6020908102919091018101516001600160e01b031981166000908152918690526040909120549091506001600160a01b03168015614cf057604051632c18df3360e01b81526001600160e01b0319831660048201526001600160a01b038216602482015260440161047c565b6040805180820182526001600160a01b03808a16825261ffff80881660208085019182526001600160e01b0319881660009081528b8252958620945185549251909316600160a01b026001600160b01b0319909216929093169190911717909155600180880180549182018155835291206008820401805460e085901c60046007909416939093026101000a92830263ffffffff909302191691909117905583614d99816158f4565b94505050508080614da9906156a4565b915050614c67565b5050505050565b604080516020810190915260008152604051806020016040528061481f856000015185614eae565b805160009061116690670de0b6b3a764000090615815565b6000614e106040518060200160405280600081525090565b600080614e21866000015186614f23565b90925090506000826003811115614e3a57614e3a61562d565b14614e5957506040805160208101909152600081529092509050614168565b60408051602081019091529081526000969095509350505050565b600080614e818486615676565b90508285821015614ea55760405162461bcd60e51b815260040161047c9190615916565b50949350505050565b6000610c1683836040518060400160405280601781526020017f6d756c7469706c69636174696f6e206f766572666c6f77000000000000000000815250614f62565b6000610c1683836040518060400160405280600e81526020016d646976696465206279207a65726f60901b815250614fb5565b60008083614f3657506000905080614168565b83830283614f448683615815565b14614f5757600260009250925050614168565b600092509050614168565b6000831580614f6f575082155b15614f7c57506000610c16565b6000614f8884866157f6565b905083614f958683615815565b148390614ea55760405162461bcd60e51b815260040161047c9190615916565b60008183614fd65760405162461bcd60e51b815260040161047c9190615916565b506111448385615815565b60405180610180016040528060008152602001600081526020016000815260200160008152602001600081526020016000815260200161502d6040518060200160405280600081525090565b81526020016150486040518060200160405280600081525090565b81526020016150636040518060200160405280600081525090565b815260200161507e6040518060200160405280600081525090565b815260200160008152602001600081525090565b6001600160a01b03811681146150a757600080fd5b50565b6000602082840312156150bc57600080fd5b8135610c1681615092565b600080604083850312156150da57600080fd5b82356150e581615092565b915060208301356150f581615092565b809150509250929050565b80151581146150a757600080fd5b60008060006060848603121561512357600080fd5b833561512e81615092565b9250602084013561513e81615092565b9150604084013561514e81615100565b809150509250925092565b60008060006060848603121561516e57600080fd5b833561517981615092565b9250602084013561518981615092565b9150604084013561514e81615092565b600080600080608085870312156151af57600080fd5b84356151ba81615092565b935060208501356151ca81615092565b925060408501356151da81615092565b9396929550929360600135925050565b6000602082840312156151fc57600080fd5b5035919050565b6000806000806080858703121561521957600080fd5b843561522481615092565b9350602085013561523481615092565b93969395505050506040820135916060013590565b60008060006060848603121561525e57600080fd5b833561526981615092565b9250602084013561527981615092565b929592945050506040919091013590565b600080600080600060a086880312156152a257600080fd5b85356152ad81615092565b945060208601356152bd81615092565b935060408601356152cd81615092565b925060608601356152dd81615092565b949793965091946080013592915050565b6020808252825182820181905260009190848201906040850190845b8181101561532f5783516001600160a01b03168352928401929184019160010161530a565b50909695505050505050565b6000806040838503121561534e57600080fd5b823561535981615092565b946020939093013593505050565b60006020828403121561537957600080fd5b8135610c1681615100565b6000806000806060858703121561539a57600080fd5b84356153a581615100565b9350602085013567ffffffffffffffff808211156153c257600080fd5b818701915087601f8301126153d657600080fd5b8135818111156153e557600080fd5b8860208285010111156153f757600080fd5b95986020929092019750949560400135945092505050565b634e487b7160e01b600052604160045260246000fd5b604051601f8201601f1916810167ffffffffffffffff8111828210171561544e5761544e61540f565b604052919050565b600067ffffffffffffffff8211156154705761547061540f565b5060051b60200190565b6000602080838503121561548d57600080fd5b823567ffffffffffffffff8111156154a457600080fd5b8301601f810185136154b557600080fd5b80356154c86154c382615456565b615425565b81815260059190911b820183019083810190878311156154e757600080fd5b928401925b8284101561321c5783356154ff81615092565b825292840192908401906154ec565b6020808252825182820181905260009190848201906040850190845b8181101561532f5783518352928401929184019160010161552a565b60008083601f84011261555857600080fd5b50813567ffffffffffffffff81111561557057600080fd5b6020830191508360208260051b850101111561416857600080fd5b600080600080604085870312156155a157600080fd5b843567ffffffffffffffff808211156155b957600080fd5b6155c588838901615546565b909650945060208701359150808211156155de57600080fd5b506155eb87828801615546565b95989497509550505050565b60006020828403121561560957600080fd5b8151610c1681615092565b60006020828403121561562657600080fd5b5051919050565b634e487b7160e01b600052602160045260246000fd5b60006020828403121561565557600080fd5b8151610c1681615100565b634e487b7160e01b600052601160045260246000fd5b6000821982111561568957615689615660565b500190565b634e487b7160e01b600052603260045260246000fd5b60006000198214156156b8576156b8615660565b5060010190565b600060208083850312156156d257600080fd5b825167ffffffffffffffff8111156156e957600080fd5b8301601f810185136156fa57600080fd5b80516157086154c382615456565b81815260059190911b8201830190838101908783111561572757600080fd5b928401925b8284101561321c57835161573f81615092565b8252928401929084019061572c565b60208152816020820152818360408301376000818301604090810191909152601f909201601f19160101919050565b60008282101561578f5761578f615660565b500390565b634e487b7160e01b600052603160045260246000fd5b634e487b7160e01b600052600160045260246000fd5b600080600080608085870312156157d657600080fd5b505082516020840151604085015160609095015191969095509092509050565b600081600019048311821515161561581057615810615660565b500290565b60008261583257634e487b7160e01b600052601260045260246000fd5b500490565b600060ff821660ff81141561584e5761584e615660565b60010192915050565b6000602080838503121561586a57600080fd5b825167ffffffffffffffff81111561588157600080fd5b8301601f8101851361589257600080fd5b80516158a06154c382615456565b81815260059190911b820183019083810190878311156158bf57600080fd5b928401925b8284101561321c5783516001600160e01b0319811681146158e55760008081fd5b825292840192908401906158c4565b600061ffff8083168181141561590c5761590c615660565b6001019392505050565b600060208083528351808285015260005b8181101561594357858101830151858201604001528201615927565b81811115615955576000604083870101525b50601f01601f191692909201604001939250505056fec8fcad8db84d3cc18b4c41d551ea0ee66dd599cde068d998e57d5e09332c131ca164736f6c634300080a000a",
    "linkReferences": {}
  },
  "methodIdentifiers": {
    "_addRewardsDistributor(address)": "b9b5b153",
    "_afterNonReentrant()": "632e5142",
    "_become(address)": "1d504dc6",
    "_becomeImplementation()": "5d72de62",
    "_beforeNonReentrant()": "c90c20b1",
    "_borrowGuardianPaused()": "e6653f3d",
    "_deployMarket(bool,bytes,uint256)": "aba35b98",
    "_listExtensions()": "6333d001",
    "_mintGuardianPaused()": "3c94786f",
    "_registerExtension(address,address)": "89cd9855",
    "_setCloseFactor(uint256)": "317b0b77",
    "_setCollateralFactor(address,uint256)": "e4028eee",
    "_setLiquidationIncentive(uint256)": "4fd42e17",
    "_setPriceOracle(address)": "55ee1fe1",
    "_setWhitelistEnforcement(bool)": "952adf5a",
    "_setWhitelistStatuses(address[],bool[])": "c8c9c975",
    "_toggleAutoImplementations(bool)": "d5333166",
    "accountAssets(address,uint256)": "dce15449",
    "admin()": "f851a440",
    "adminHasRights()": "0a755ec2",
    "allBorrowers(uint256)": "7515bafa",
    "allMarkets(uint256)": "52d84d1e",
    "asComptrollerFirstExtension()": "1ace5957",
    "autoImplementation()": "dd5cd22c",
    "borrowAllowed(address,address,uint256)": "da3d454c",
    "borrowCapForCollateral(address,address)": "940cd6f1",
    "borrowCapForCollateralWhitelist(address,address,address)": "ca36d40a",
    "borrowCapGuardian()": "21af4569",
    "borrowCapWhitelist(address,address)": "bc89f68a",
    "borrowCaps(address)": "4a584432",
    "borrowGuardianPaused(address)": "6d154ea5",
    "borrowWithinLimits(address,uint256)": "779b2294",
    "borrowingAgainstCollateralBlacklist(address,address)": "1c819e43",
    "borrowingAgainstCollateralBlacklistWhitelist(address,address,address)": "1dadaa84",
    "cTokensByUnderlying(address)": "31ff47fa",
    "checkMembership(address,address)": "929fe9a1",
    "closeFactorMantissa()": "e8755446",
    "comptrollerImplementation()": "bb82aa5e",
    "enforceWhitelist()": "b0957210",
    "enterMarkets(address[])": "c2998238",
    "exitMarket(address)": "ede4edd0",
    "fuseAdmin()": "15761d51",
    "fuseAdminHasRights()": "2f1069ba",
    "getAccountLiquidity(address)": "5ec88c79",
    "getAssetsIn(address)": "abfceffc",
    "getHypotheticalAccountLiquidity(address,address,uint256,uint256)": "4e79238f",
    "getMaxRedeemOrBorrow(address,address,bool)": "1976828e",
    "isComptroller()": "007e3dd2",
    "isDeprecated(address)": "94543c15",
    "liquidateBorrowAllowed(address,address,address,address,uint256)": "5fc7e71e",
    "liquidateCalculateSeizeTokens(address,address,uint256)": "c488847b",
    "liquidationIncentiveMantissa()": "4ada90af",
    "markets(address)": "8e8f294b",
    "mintAllowed(address,address,uint256)": "4ef4c3e1",
    "mintGuardianPaused(address)": "731f0c2b",
    "nonAccruingRewardsDistributors(uint256)": "6bd02b8a",
    "oracle()": "7dc0d1d0",
    "pauseGuardian()": "24a3d622",
    "pendingAdmin()": "26782247",
    "pendingComptrollerImplementation()": "dcfbc0c7",
    "redeemAllowed(address,address,uint256)": "eabe7d91",
    "redeemVerify(address,address,uint256,uint256)": "51dff989",
    "repayBorrowAllowed(address,address,address,uint256)": "24008a62",
    "rewardsDistributors(uint256)": "c6c5b0dd",
    "seizeAllowed(address,address,address,address,uint256)": "d02f7351",
    "seizeGuardianPaused()": "ac0b0bb7",
    "suppliers(address)": "16dc15fe",
    "supplyCapWhitelist(address,address)": "1879dbc5",
    "supplyCaps(address)": "02c3bcbb",
    "transferAllowed(address,address,address,uint256)": "bdcdc258",
    "transferGuardianPaused()": "87f76303",
    "whitelist(address)": "9b19251a",
    "whitelistArray(uint256)": "d251fefc"
  }
}