{
  "address": "0x2fe516D093715aD7702f1b21b37c0936dd04F5C8",
  "abi": [
    {
      "anonymous": false,
      "inputs": [
        {
          "indexed": false,
          "internalType": "string",
          "name": "action",
          "type": "string"
        },
        {
          "indexed": false,
          "internalType": "bool",
          "name": "pauseState",
          "type": "bool"
        }
      ],
      "name": "ActionPaused",
      "type": "event"
    },
    {
      "anonymous": false,
      "inputs": [
        {
          "indexed": false,
          "internalType": "uint256",
          "name": "error",
          "type": "uint256"
        },
        {
          "indexed": false,
          "internalType": "uint256",
          "name": "info",
          "type": "uint256"
        },
        {
          "indexed": false,
          "internalType": "uint256",
          "name": "detail",
          "type": "uint256"
        }
      ],
      "name": "Failure",
      "type": "event"
    },
    {
      "anonymous": false,
      "inputs": [
        {
          "indexed": false,
          "internalType": "contract CTokenInterface",
          "name": "cToken",
          "type": "address"
        },
        {
          "indexed": false,
          "internalType": "string",
          "name": "action",
          "type": "string"
        },
        {
          "indexed": false,
          "internalType": "bool",
          "name": "pauseState",
          "type": "bool"
        }
      ],
      "name": "MarketActionPaused",
      "type": "event"
    },
    {
      "anonymous": false,
      "inputs": [
        {
          "indexed": false,
          "internalType": "contract CTokenInterface",
          "name": "cToken",
          "type": "address"
        }
      ],
      "name": "MarketUnlisted",
      "type": "event"
    },
    {
      "anonymous": false,
      "inputs": [
        {
          "indexed": true,
          "internalType": "contract CTokenInterface",
          "name": "cToken",
          "type": "address"
        },
        {
          "indexed": false,
          "internalType": "uint256",
          "name": "newBorrowCap",
          "type": "uint256"
        }
      ],
      "name": "NewBorrowCap",
      "type": "event"
    },
    {
      "anonymous": false,
      "inputs": [
        {
          "indexed": false,
          "internalType": "address",
          "name": "oldBorrowCapGuardian",
          "type": "address"
        },
        {
          "indexed": false,
          "internalType": "address",
          "name": "newBorrowCapGuardian",
          "type": "address"
        }
      ],
      "name": "NewBorrowCapGuardian",
      "type": "event"
    },
    {
      "anonymous": false,
      "inputs": [
        {
          "indexed": false,
          "internalType": "address",
          "name": "oldPauseGuardian",
          "type": "address"
        },
        {
          "indexed": false,
          "internalType": "address",
          "name": "newPauseGuardian",
          "type": "address"
        }
      ],
      "name": "NewPauseGuardian",
      "type": "event"
    },
    {
      "anonymous": false,
      "inputs": [
        {
          "indexed": true,
          "internalType": "contract CTokenInterface",
          "name": "cToken",
          "type": "address"
        },
        {
          "indexed": false,
          "internalType": "uint256",
          "name": "newSupplyCap",
          "type": "uint256"
        }
      ],
      "name": "NewSupplyCap",
      "type": "event"
    },
    {
      "inputs": [
        {
          "internalType": "address",
          "name": "cTokenBorrow",
          "type": "address"
        },
        {
          "internalType": "address",
          "name": "cTokenCollateral",
          "type": "address"
        },
        {
          "internalType": "bool",
          "name": "blacklisted",
          "type": "bool"
        }
      ],
      "name": "_blacklistBorrowingAgainstCollateral",
      "outputs": [],
      "stateMutability": "nonpayable",
      "type": "function"
    },
    {
      "inputs": [
        {
          "internalType": "address",
          "name": "cTokenBorrow",
          "type": "address"
        },
        {
          "internalType": "address",
          "name": "cTokenCollateral",
          "type": "address"
        },
        {
          "internalType": "address",
          "name": "account",
          "type": "address"
        },
        {
          "internalType": "bool",
          "name": "whitelisted",
          "type": "bool"
        }
      ],
      "name": "_blacklistBorrowingAgainstCollateralWhitelist",
      "outputs": [],
      "stateMutability": "nonpayable",
      "type": "function"
    },
    {
      "inputs": [
        {
          "internalType": "address",
          "name": "cToken",
          "type": "address"
        },
        {
          "internalType": "address",
          "name": "account",
          "type": "address"
        }
      ],
      "name": "_borrowCapWhitelist",
      "outputs": [],
      "stateMutability": "nonpayable",
      "type": "function"
    },
    {
      "inputs": [],
      "name": "_borrowGuardianPaused",
      "outputs": [
        {
          "internalType": "bool",
          "name": "",
          "type": "bool"
        }
      ],
      "stateMutability": "view",
      "type": "function"
    },
    {
      "inputs": [],
      "name": "_getExtensionFunctions",
      "outputs": [
        {
          "internalType": "bytes4[]",
          "name": "",
          "type": "bytes4[]"
        }
      ],
      "stateMutability": "pure",
      "type": "function"
    },
    {
      "inputs": [],
      "name": "_mintGuardianPaused",
      "outputs": [
        {
          "internalType": "bool",
          "name": "",
          "type": "bool"
        }
      ],
      "stateMutability": "view",
      "type": "function"
    },
    {
      "inputs": [
        {
          "internalType": "address",
          "name": "flywheelAddress",
          "type": "address"
        }
      ],
      "name": "_removeFlywheel",
      "outputs": [
        {
          "internalType": "bool",
          "name": "",
          "type": "bool"
        }
      ],
      "stateMutability": "nonpayable",
      "type": "function"
    },
    {
      "inputs": [
        {
          "internalType": "address",
          "name": "cTokenBorrow",
          "type": "address"
        },
        {
          "internalType": "address",
          "name": "cTokenCollateral",
          "type": "address"
        },
        {
          "internalType": "uint256",
          "name": "borrowCap",
          "type": "uint256"
        }
      ],
      "name": "_setBorrowCapForCollateral",
      "outputs": [],
      "stateMutability": "nonpayable",
      "type": "function"
    },
    {
      "inputs": [
        {
          "internalType": "address",
          "name": "cTokenBorrow",
          "type": "address"
        },
        {
          "internalType": "address",
          "name": "cTokenCollateral",
          "type": "address"
        },
        {
          "internalType": "address",
          "name": "account",
          "type": "address"
        },
        {
          "internalType": "bool",
          "name": "whitelisted",
          "type": "bool"
        }
      ],
      "name": "_setBorrowCapForCollateralWhitelist",
      "outputs": [],
      "stateMutability": "nonpayable",
      "type": "function"
    },
    {
      "inputs": [
        {
          "internalType": "address",
          "name": "newBorrowCapGuardian",
          "type": "address"
        }
      ],
      "name": "_setBorrowCapGuardian",
      "outputs": [],
      "stateMutability": "nonpayable",
      "type": "function"
    },
    {
      "inputs": [
        {
          "internalType": "contract CTokenInterface",
          "name": "cToken",
          "type": "address"
        },
        {
          "internalType": "bool",
          "name": "state",
          "type": "bool"
        }
      ],
      "name": "_setBorrowPaused",
      "outputs": [
        {
          "internalType": "bool",
          "name": "",
          "type": "bool"
        }
      ],
      "stateMutability": "nonpayable",
      "type": "function"
    },
    {
      "inputs": [
        {
          "internalType": "contract CTokenInterface[]",
          "name": "cTokens",
          "type": "address[]"
        },
        {
          "internalType": "uint256[]",
          "name": "newBorrowCaps",
          "type": "uint256[]"
        }
      ],
      "name": "_setMarketBorrowCaps",
      "outputs": [],
      "stateMutability": "nonpayable",
      "type": "function"
    },
    {
      "inputs": [
        {
          "internalType": "contract CTokenInterface[]",
          "name": "cTokens",
          "type": "address[]"
        },
        {
          "internalType": "uint256[]",
          "name": "newSupplyCaps",
          "type": "uint256[]"
        }
      ],
      "name": "_setMarketSupplyCaps",
      "outputs": [],
      "stateMutability": "nonpayable",
      "type": "function"
    },
    {
      "inputs": [
        {
          "internalType": "contract CTokenInterface",
          "name": "cToken",
          "type": "address"
        },
        {
          "internalType": "bool",
          "name": "state",
          "type": "bool"
        }
      ],
      "name": "_setMintPaused",
      "outputs": [
        {
          "internalType": "bool",
          "name": "",
          "type": "bool"
        }
      ],
      "stateMutability": "nonpayable",
      "type": "function"
    },
    {
      "inputs": [
        {
          "internalType": "address",
          "name": "newPauseGuardian",
          "type": "address"
        }
      ],
      "name": "_setPauseGuardian",
      "outputs": [
        {
          "internalType": "uint256",
          "name": "",
          "type": "uint256"
        }
      ],
      "stateMutability": "nonpayable",
      "type": "function"
    },
    {
      "inputs": [
        {
          "internalType": "bool",
          "name": "state",
          "type": "bool"
        }
      ],
      "name": "_setSeizePaused",
      "outputs": [
        {
          "internalType": "bool",
          "name": "",
          "type": "bool"
        }
      ],
      "stateMutability": "nonpayable",
      "type": "function"
    },
    {
      "inputs": [
        {
          "internalType": "bool",
          "name": "state",
          "type": "bool"
        }
      ],
      "name": "_setTransferPaused",
      "outputs": [
        {
          "internalType": "bool",
          "name": "",
          "type": "bool"
        }
      ],
      "stateMutability": "nonpayable",
      "type": "function"
    },
    {
      "inputs": [
        {
          "internalType": "address",
          "name": "cToken",
          "type": "address"
        },
        {
          "internalType": "address",
          "name": "account",
          "type": "address"
        }
      ],
      "name": "_supplyCapWhitelist",
      "outputs": [],
      "stateMutability": "nonpayable",
      "type": "function"
    },
    {
      "inputs": [
        {
          "internalType": "contract CTokenInterface",
          "name": "cToken",
          "type": "address"
        }
      ],
      "name": "_unsupportMarket",
      "outputs": [
        {
          "internalType": "uint256",
          "name": "",
          "type": "uint256"
        }
      ],
      "stateMutability": "nonpayable",
      "type": "function"
    },
    {
      "inputs": [
        {
          "internalType": "address",
          "name": "",
          "type": "address"
        },
        {
          "internalType": "uint256",
          "name": "",
          "type": "uint256"
        }
      ],
      "name": "accountAssets",
      "outputs": [
        {
          "internalType": "contract CTokenInterface",
          "name": "",
          "type": "address"
        }
      ],
      "stateMutability": "view",
      "type": "function"
    },
    {
      "inputs": [
        {
          "internalType": "address",
          "name": "flywheelAddress",
          "type": "address"
        }
      ],
      "name": "addNonAccruingFlywheel",
      "outputs": [
        {
          "internalType": "bool",
          "name": "",
          "type": "bool"
        }
      ],
      "stateMutability": "nonpayable",
      "type": "function"
    },
    {
      "inputs": [],
      "name": "admin",
      "outputs": [
        {
          "internalType": "address",
          "name": "",
          "type": "address"
        }
      ],
      "stateMutability": "view",
      "type": "function"
    },
    {
      "inputs": [],
      "name": "adminHasRights",
      "outputs": [
        {
          "internalType": "bool",
          "name": "",
          "type": "bool"
        }
      ],
      "stateMutability": "view",
      "type": "function"
    },
    {
      "inputs": [
        {
          "internalType": "uint256",
          "name": "",
          "type": "uint256"
        }
      ],
      "name": "allBorrowers",
      "outputs": [
        {
          "internalType": "address",
          "name": "",
          "type": "address"
        }
      ],
      "stateMutability": "view",
      "type": "function"
    },
    {
      "inputs": [
        {
          "internalType": "uint256",
          "name": "",
          "type": "uint256"
        }
      ],
      "name": "allMarkets",
      "outputs": [
        {
          "internalType": "contract CTokenInterface",
          "name": "",
          "type": "address"
        }
      ],
      "stateMutability": "view",
      "type": "function"
    },
    {
      "inputs": [],
      "name": "autoImplementation",
      "outputs": [
        {
          "internalType": "bool",
          "name": "",
          "type": "bool"
        }
      ],
      "stateMutability": "view",
      "type": "function"
    },
    {
      "inputs": [
        {
          "internalType": "address",
          "name": "",
          "type": "address"
        },
        {
          "internalType": "address",
          "name": "",
          "type": "address"
        }
      ],
      "name": "borrowCapForCollateral",
      "outputs": [
        {
          "internalType": "uint256",
          "name": "",
          "type": "uint256"
        }
      ],
      "stateMutability": "view",
      "type": "function"
    },
    {
      "inputs": [
        {
          "internalType": "address",
          "name": "",
          "type": "address"
        },
        {
          "internalType": "address",
          "name": "",
          "type": "address"
        },
        {
          "internalType": "address",
          "name": "",
          "type": "address"
        }
      ],
      "name": "borrowCapForCollateralWhitelist",
      "outputs": [
        {
          "internalType": "bool",
          "name": "",
          "type": "bool"
        }
      ],
      "stateMutability": "view",
      "type": "function"
    },
    {
      "inputs": [],
      "name": "borrowCapGuardian",
      "outputs": [
        {
          "internalType": "address",
          "name": "",
          "type": "address"
        }
      ],
      "stateMutability": "view",
      "type": "function"
    },
    {
      "inputs": [
        {
          "internalType": "address",
          "name": "",
          "type": "address"
        },
        {
          "internalType": "address",
          "name": "",
          "type": "address"
        }
      ],
      "name": "borrowCapWhitelist",
      "outputs": [
        {
          "internalType": "bool",
          "name": "",
          "type": "bool"
        }
      ],
      "stateMutability": "view",
      "type": "function"
    },
    {
      "inputs": [
        {
          "internalType": "address",
          "name": "",
          "type": "address"
        }
      ],
      "name": "borrowCaps",
      "outputs": [
        {
          "internalType": "uint256",
          "name": "",
          "type": "uint256"
        }
      ],
      "stateMutability": "view",
      "type": "function"
    },
    {
      "inputs": [
        {
          "internalType": "address",
          "name": "",
          "type": "address"
        }
      ],
      "name": "borrowGuardianPaused",
      "outputs": [
        {
          "internalType": "bool",
          "name": "",
          "type": "bool"
        }
      ],
      "stateMutability": "view",
      "type": "function"
    },
    {
      "inputs": [
        {
          "internalType": "address",
          "name": "",
          "type": "address"
        },
        {
          "internalType": "address",
          "name": "",
          "type": "address"
        }
      ],
      "name": "borrowingAgainstCollateralBlacklist",
      "outputs": [
        {
          "internalType": "bool",
          "name": "",
          "type": "bool"
        }
      ],
      "stateMutability": "view",
      "type": "function"
    },
    {
      "inputs": [
        {
          "internalType": "address",
          "name": "",
          "type": "address"
        },
        {
          "internalType": "address",
          "name": "",
          "type": "address"
        },
        {
          "internalType": "address",
          "name": "",
          "type": "address"
        }
      ],
      "name": "borrowingAgainstCollateralBlacklistWhitelist",
      "outputs": [
        {
          "internalType": "bool",
          "name": "",
          "type": "bool"
        }
      ],
      "stateMutability": "view",
      "type": "function"
    },
    {
      "inputs": [
        {
          "internalType": "address",
          "name": "",
          "type": "address"
        }
      ],
      "name": "cTokensByUnderlying",
      "outputs": [
        {
          "internalType": "contract CTokenInterface",
          "name": "",
          "type": "address"
        }
      ],
      "stateMutability": "view",
      "type": "function"
    },
    {
      "inputs": [],
      "name": "closeFactorMantissa",
      "outputs": [
        {
          "internalType": "uint256",
          "name": "",
          "type": "uint256"
        }
      ],
      "stateMutability": "view",
      "type": "function"
    },
    {
      "inputs": [],
      "name": "comptrollerImplementation",
      "outputs": [
        {
          "internalType": "address",
          "name": "",
          "type": "address"
        }
      ],
      "stateMutability": "view",
      "type": "function"
    },
    {
      "inputs": [],
      "name": "enforceWhitelist",
      "outputs": [
        {
          "internalType": "bool",
          "name": "",
          "type": "bool"
        }
      ],
      "stateMutability": "view",
      "type": "function"
    },
    {
      "inputs": [],
      "name": "fuseAdmin",
      "outputs": [
        {
          "internalType": "address payable",
          "name": "",
          "type": "address"
        }
      ],
      "stateMutability": "view",
      "type": "function"
    },
    {
      "inputs": [],
      "name": "fuseAdminHasRights",
      "outputs": [
        {
          "internalType": "bool",
          "name": "",
          "type": "bool"
        }
      ],
      "stateMutability": "view",
      "type": "function"
    },
    {
      "inputs": [],
      "name": "getAccruingFlywheels",
      "outputs": [
        {
          "internalType": "address[]",
          "name": "",
          "type": "address[]"
        }
      ],
      "stateMutability": "view",
      "type": "function"
    },
    {
      "inputs": [],
      "name": "getAllBorrowers",
      "outputs": [
        {
          "internalType": "address[]",
          "name": "",
          "type": "address[]"
        }
      ],
      "stateMutability": "view",
      "type": "function"
    },
    {
      "inputs": [],
      "name": "getAllMarkets",
      "outputs": [
        {
          "internalType": "contract CTokenInterface[]",
          "name": "",
          "type": "address[]"
        }
      ],
      "stateMutability": "view",
      "type": "function"
    },
    {
      "inputs": [],
      "name": "getRewardsDistributors",
      "outputs": [
        {
          "internalType": "address[]",
          "name": "",
          "type": "address[]"
        }
      ],
      "stateMutability": "view",
      "type": "function"
    },
    {
      "inputs": [],
      "name": "getWhitelist",
      "outputs": [
        {
          "internalType": "address[]",
          "name": "",
          "type": "address[]"
        }
      ],
      "stateMutability": "view",
      "type": "function"
    },
    {
      "inputs": [
        {
          "internalType": "address",
          "name": "user",
          "type": "address"
        }
      ],
      "name": "isUserOfPool",
      "outputs": [
        {
          "internalType": "bool",
          "name": "",
          "type": "bool"
        }
      ],
      "stateMutability": "view",
      "type": "function"
    },
    {
      "inputs": [],
      "name": "liquidationIncentiveMantissa",
      "outputs": [
        {
          "internalType": "uint256",
          "name": "",
          "type": "uint256"
        }
      ],
      "stateMutability": "view",
      "type": "function"
    },
    {
      "inputs": [
        {
          "internalType": "address",
          "name": "",
          "type": "address"
        }
      ],
      "name": "markets",
      "outputs": [
        {
          "internalType": "bool",
          "name": "isListed",
          "type": "bool"
        },
        {
          "internalType": "uint256",
          "name": "collateralFactorMantissa",
          "type": "uint256"
        }
      ],
      "stateMutability": "view",
      "type": "function"
    },
    {
      "inputs": [
        {
          "internalType": "address",
          "name": "",
          "type": "address"
        }
      ],
      "name": "mintGuardianPaused",
      "outputs": [
        {
          "internalType": "bool",
          "name": "",
          "type": "bool"
        }
      ],
      "stateMutability": "view",
      "type": "function"
    },
    {
      "inputs": [
        {
          "internalType": "uint256",
          "name": "",
          "type": "uint256"
        }
      ],
      "name": "nonAccruingRewardsDistributors",
      "outputs": [
        {
          "internalType": "address",
          "name": "",
          "type": "address"
        }
      ],
      "stateMutability": "view",
      "type": "function"
    },
    {
      "inputs": [],
      "name": "oracle",
      "outputs": [
        {
          "internalType": "contract PriceOracle",
          "name": "",
          "type": "address"
        }
      ],
      "stateMutability": "view",
      "type": "function"
    },
    {
      "inputs": [],
      "name": "pauseGuardian",
      "outputs": [
        {
          "internalType": "address",
          "name": "",
          "type": "address"
        }
      ],
      "stateMutability": "view",
      "type": "function"
    },
    {
      "inputs": [],
      "name": "pendingAdmin",
      "outputs": [
        {
          "internalType": "address",
          "name": "",
          "type": "address"
        }
      ],
      "stateMutability": "view",
      "type": "function"
    },
    {
      "inputs": [],
      "name": "pendingComptrollerImplementation",
      "outputs": [
        {
          "internalType": "address",
          "name": "",
          "type": "address"
        }
      ],
      "stateMutability": "view",
      "type": "function"
    },
    {
      "inputs": [
        {
          "internalType": "uint256",
          "name": "",
          "type": "uint256"
        }
      ],
      "name": "rewardsDistributors",
      "outputs": [
        {
          "internalType": "address",
          "name": "",
          "type": "address"
        }
      ],
      "stateMutability": "view",
      "type": "function"
    },
    {
      "inputs": [],
      "name": "seizeGuardianPaused",
      "outputs": [
        {
          "internalType": "bool",
          "name": "",
          "type": "bool"
        }
      ],
      "stateMutability": "view",
      "type": "function"
    },
    {
      "inputs": [
        {
          "internalType": "address",
          "name": "",
          "type": "address"
        }
      ],
      "name": "suppliers",
      "outputs": [
        {
          "internalType": "bool",
          "name": "",
          "type": "bool"
        }
      ],
      "stateMutability": "view",
      "type": "function"
    },
    {
      "inputs": [
        {
          "internalType": "address",
          "name": "",
          "type": "address"
        },
        {
          "internalType": "address",
          "name": "",
          "type": "address"
        }
      ],
      "name": "supplyCapWhitelist",
      "outputs": [
        {
          "internalType": "bool",
          "name": "",
          "type": "bool"
        }
      ],
      "stateMutability": "view",
      "type": "function"
    },
    {
      "inputs": [
        {
          "internalType": "address",
          "name": "",
          "type": "address"
        }
      ],
      "name": "supplyCaps",
      "outputs": [
        {
          "internalType": "uint256",
          "name": "",
          "type": "uint256"
        }
      ],
      "stateMutability": "view",
      "type": "function"
    },
    {
      "inputs": [],
      "name": "transferGuardianPaused",
      "outputs": [
        {
          "internalType": "bool",
          "name": "",
          "type": "bool"
        }
      ],
      "stateMutability": "view",
      "type": "function"
    },
    {
      "inputs": [
        {
          "internalType": "address",
          "name": "",
          "type": "address"
        }
      ],
      "name": "whitelist",
      "outputs": [
        {
          "internalType": "bool",
          "name": "",
          "type": "bool"
        }
      ],
      "stateMutability": "view",
      "type": "function"
    },
    {
      "inputs": [
        {
          "internalType": "uint256",
          "name": "",
          "type": "uint256"
        }
      ],
      "name": "whitelistArray",
      "outputs": [
        {
          "internalType": "address",
          "name": "",
          "type": "address"
        }
      ],
      "stateMutability": "view",
      "type": "function"
    }
  ],
  "transactionHash": "0x850d72b95ef5bd8829081589f7f8f25e6fac81e7a157fbf064de6c80619618c3",
  "args": [],
  "numDeployments": 6,
  "bytecode": {
    "object": "0x60806040526002805461ffff60a01b191661010160a01b17905534801561002557600080fd5b50612bec806100356000396000f3fe608060405234801561001057600080fd5b50600436106103ba5760003560e01c80637515bafa116101f4578063bb82aa5e1161011a578063d9e0ea6b116100ad578063e6653f3d1161007c578063e6653f3d14610960578063e875544614610974578063ee5b9a2f1461097d578063f851a4401461099057600080fd5b8063d9e0ea6b1461091a578063dce154491461092d578063dcfbc0c714610940578063dd5cd22c1461095357600080fd5b8063ca36d40a116100e9578063ca36d40a146108ba578063d01f63f5146108ec578063d219fca7146108f4578063d251fefc1461090757600080fd5b8063bb82aa5e14610853578063bc89f68a14610866578063c6c5b0dd14610894578063c76ae260146108a757600080fd5b8063940cd6f111610192578063a5fb485711610161578063a5fb485714610817578063ac0b0bb71461082a578063b0772d0b1461083e578063b09572101461084657600080fd5b8063940cd6f1146107a35780639b19251a146107ce578063a52c7847146107f1578063a5f5d45d1461080457600080fd5b806387f76303116101ce57806387f763031461072357806389f8132e146107375780638e8f294b1461074c5780638ebf63641461079057600080fd5b80637515bafa146106ea5780637dc0d1d0146106fd578063819605a81461071057600080fd5b806332abcdbe116102e457806351a485e411610277578063692fd2a911610246578063692fd2a91461067e5780636bd02b8a146106915780636d154ea5146106a4578063731f0c2b146106c757600080fd5b806351a485e41461063257806352d84d1e146106455780635f5af1aa14610658578063607ef6c11461066b57600080fd5b80633c94786f116102b35780633c94786f146105ed5780634a584432146106015780634a76e727146106215780634ada90af1461062957600080fd5b806332abcdbe146105a85780633605b51b146105bd578063391957d7146105c55780633bcf7ec1146105da57600080fd5b80631c819e431161035c578063267822471161032b57806326782247146105455780632d70db78146105585780632f1069ba1461056b57806331ff47fa1461057f57600080fd5b80631c819e43146104b85780631dadaa84146104e657806321af45691461051a57806324a3d6221461053257600080fd5b806315761d511161039857806315761d511461042957806316dc15fe146104545780631879dbc51461047757806318c882a5146104a557600080fd5b806302c3bcbb146103bf5780630a755ec2146103f2578063109908ce14610416575b600080fd5b6103df6103cd3660046126c2565b601a6020526000908152604090205481565b6040519081526020015b60405180910390f35b60025461040690600160a81b900460ff1681565b60405190151581526020016103e9565b6104066104243660046126c2565b6109a3565b60005461043c906001600160a01b031681565b6040516001600160a01b0390911681526020016103e9565b6104066104623660046126c2565b600f6020526000908152604090205460ff1681565b6104066104853660046126df565b602260209081526000928352604080842090915290825290205460ff1681565b6104066104b336600461272d565b610c01565b6104066104c63660046126df565b601f60209081526000928352604080842090915290825290205460ff1681565b6104066104f4366004612762565b602160209081526000938452604080852082529284528284209052825290205460ff1681565b60185461043c9061010090046001600160a01b031681565b60155461043c906001600160a01b031681565b60025461043c906001600160a01b031681565b6104066105663660046127ad565b610d44565b60025461040690600160a01b900460ff1681565b61043c61058d3660046126c2565b6010602052600090815260409020546001600160a01b031681565b6105b0610e27565b6040516103e991906127c8565b6105b0610e89565b6105d86105d33660046126c2565b610ff1565b005b6104066105e836600461272d565b611086565b60155461040690600160a01b900460ff1681565b6103df61060f3660046126c2565b60196020526000908152604090205481565b6105b06111d9565b6103df60075481565b6105d8610640366004612861565b611239565b61043c6106533660046128cd565b6113c7565b6103df6106663660046126c2565b6113f1565b6105d8610679366004612861565b611478565b61040661068c3660046126c2565b6115fd565b61043c61069f3660046128cd565b611798565b6104066106b23660046126c2565b60176020526000908152604090205460ff1681565b6104066106d53660046126c2565b60166020526000908152604090205460ff1681565b61043c6106f83660046128cd565b6117a8565b60055461043c906001600160a01b031681565b6103df61071e3660046126c2565b6117b8565b60155461040690600160b01b900460ff1681565b61073f611aee565b6040516103e991906128e6565b61077961075a3660046126c2565b600a602052600090815260409020805460019091015460ff9091169082565b6040805192151583526020830191909152016103e9565b61040661079e3660046127ad565b612140565b6103df6107b13660046126df565b601e60209081526000928352604080842090915290825290205481565b6104066107dc3660046126c2565b60126020526000908152604090205460ff1681565b6105d86107ff3660046126df565b61221a565b6105d86108123660046126df565b612272565b6105d8610825366004612928565b6122ca565b60155461040690600160b81b900460ff1681565b6105b061231a565b6011546104069060ff1681565b60035461043c906001600160a01b031681565b6104066108743660046126df565b602360209081526000928352604080842090915290825290205460ff1681565b61043c6108a23660046128cd565b61237a565b6105d86108b5366004612969565b61238a565b6104066108c8366004612762565b60208080526000938452604080852082529284528284209052825290205460ff1681565b6105b06123f1565b6105d8610902366004612969565b612451565b61043c6109153660046128cd565b6124b6565b6104066109283660046126c2565b6124c6565b61043c61093b3660046129c3565b612547565b60045461043c906001600160a01b031681565b6018546104069060ff1681565b60155461040690600160a81b900460ff1681565b6103df60065481565b6105d861098b3660046129ef565b61257f565b60015461043c906001600160a01b031681565b60006109ad6125dd565b6109d25760405162461bcd60e51b81526004016109c990612a36565b60405180910390fd5b6001600160a01b038216610a145760405162461bcd60e51b815260206004820152600960248201526808599b1e5dda19595b60ba1b60448201526064016109c9565b60005b601b54811015610b1b57601b8181548110610a3457610a34612a56565b6000918252602090912001546001600160a01b0384811691161415610b0957601b8054610a6390600190612a82565b81548110610a7357610a73612a56565b600091825260209091200154601b80546001600160a01b039092169183908110610a9f57610a9f612a56565b9060005260206000200160006101000a8154816001600160a01b0302191690836001600160a01b03160217905550601b805480610ade57610ade612a99565b600082815260209020810160001990810180546001600160a01b031916905501905550600192915050565b80610b1381612aaf565b915050610a17565b5060005b601d54811015610bf857601d8181548110610b3c57610b3c612a56565b6000918252602090912001546001600160a01b0384811691161415610be657601d8054610b6b90600190612a82565b81548110610b7b57610b7b612a56565b600091825260209091200154601d80546001600160a01b039092169183908110610ba757610ba7612a56565b9060005260206000200160006101000a8154816001600160a01b0302191690836001600160a01b03160217905550601d805480610ade57610ade612a99565b80610bf081612aaf565b915050610b1f565b50600092915050565b6001600160a01b0382166000908152600a602052604081205460ff16610c535760405162461bcd60e51b8152602060048201526007602482015266085b585c9ad95d60ca1b60448201526064016109c9565b6015546001600160a01b0316331480610c6f5750610c6f6125dd565b610c8b5760405162461bcd60e51b81526004016109c990612aca565b610c936125dd565b80610ca057506001821515145b610cbc5760405162461bcd60e51b81526004016109c990612a36565b6001600160a01b038316600081815260176020908152604091829020805460ff19168615159081179091558251938452606091840182905260069184019190915265426f72726f7760d01b6080840152908201527f4ab2c577b7459254dd330a38beef1d66ae70ba1ab28db7147d52d3a752a03cdc9060a0015b60405180910390a150919050565b6015546000906001600160a01b0316331480610d635750610d636125dd565b610d7f5760405162461bcd60e51b81526004016109c990612aca565b610d876125dd565b80610d9457506001821515145b610db05760405162461bcd60e51b81526004016109c990612a36565b60158054831515600160b81b0260ff60b81b199091161790556040517fef159d9a32b2472e32b098f954f3ce62d232939f1c207070b584df1814de2de090610e1b9084906040808252600590820152645365697a6560d81b6060820152901515602082015260800190565b60405180910390a15090565b6060600d805480602002602001604051908101604052809291908181526020018280548015610e7f57602002820191906000526020600020905b81546001600160a01b03168152600190910190602001808311610e61575b5050505050905090565b601d54601b54606091600091610e9f9190612aed565b67ffffffffffffffff811115610eb757610eb7612b05565b604051908082528060200260200182016040528015610ee0578160200160208202803683370190505b50905060005b601b5460ff82161015610f6657601b8160ff1681548110610f0957610f09612a56565b9060005260206000200160009054906101000a90046001600160a01b0316828260ff1681518110610f3c57610f3c612a56565b6001600160a01b039092166020928302919091019091015280610f5e81612b1b565b915050610ee6565b60005b601d5460ff82161015610fe957601d8160ff1681548110610f8c57610f8c612a56565b6000918252602090912001546001600160a01b031683610fac8385612b3b565b60ff1681518110610fbf57610fbf612a56565b6001600160a01b039092166020928302919091019091015280610fe181612b1b565b915050610f69565b509092915050565b6001546001600160a01b0316331461101b5760405162461bcd60e51b81526004016109c990612a36565b601880546001600160a01b03838116610100818102610100600160a81b031985161790945560408051949093049091168084526020840191909152917feda98690e518e9a05f8ec6837663e188211b2da8f4906648b323f2c1d4434e29910160405180910390a15050565b6001600160a01b0382166000908152600a602052604081205460ff166110d85760405162461bcd60e51b8152602060048201526007602482015266085b585c9ad95d60ca1b60448201526064016109c9565b6015546001600160a01b03163314806110f457506110f46125dd565b61112c5760405162461bcd60e51b815260206004820152600960248201526810b3b0bab93234b0b760b91b60448201526064016109c9565b6111346125dd565b8061114157506001821515145b61115d5760405162461bcd60e51b81526004016109c990612a36565b6001600160a01b038316600081815260166020908152604091829020805460ff19168615159081179091558251938452606091840182905260049184019190915263135a5b9d60e21b6080840152908201527f4ab2c577b7459254dd330a38beef1d66ae70ba1ab28db7147d52d3a752a03cdc9060a001610d36565b6060601b805480602002602001604051908101604052809291908181526020018280548015610e7f576020028201919060005260206000209081546001600160a01b03168152600190910190602001808311610e61575050505050905090565b6001546001600160a01b0316331480611261575060185461010090046001600160a01b031633145b61127d5760405162461bcd60e51b81526004016109c990612a36565b8281811580159061128d57508082145b6112c25760405162461bcd60e51b8152602060048201526006602482015265085a5b9c1d5d60d21b60448201526064016109c9565b60005b828110156113be578484828181106112df576112df612a56565b90506020020135601a60008989858181106112fc576112fc612a56565b905060200201602081019061131191906126c2565b6001600160a01b0316815260208101919091526040016000205586868281811061133d5761133d612a56565b905060200201602081019061135291906126c2565b6001600160a01b03167f9e0ad9cee10bdf36b7fbd38910c0bdff0f275ace679b45b922381c2723d676f886868481811061138e5761138e612a56565b905060200201356040516113a491815260200190565b60405180910390a2806113b681612aaf565b9150506112c5565b50505050505050565b600b81815481106113d757600080fd5b6000918252602090912001546001600160a01b0316905081565b60006113fb6125dd565b6114115761140b60016017612631565b92915050565b601580546001600160a01b038481166001600160a01b031983168117909355604080519190921680825260208201939093527f0613b6ee6a04f0d09f390e4d9318894b9f6ac7fd83897cd8d18896ba579c401e910160405180910390a160005b9392505050565b6001546001600160a01b03163314806114a0575060185461010090046001600160a01b031633145b6114bc5760405162461bcd60e51b81526004016109c990612a36565b828181158015906114cc57508082145b6115015760405162461bcd60e51b8152602060048201526006602482015265085a5b9c1d5d60d21b60448201526064016109c9565b60005b828110156113be5784848281811061151e5761151e612a56565b905060200201356019600089898581811061153b5761153b612a56565b905060200201602081019061155091906126c2565b6001600160a01b0316815260208101919091526040016000205586868281811061157c5761157c612a56565b905060200201602081019061159191906126c2565b6001600160a01b03167f6f1951b2aad10f3fc81b86d91105b413a5b3f847a34bbc5ce1904201b14438f68686848181106115cd576115cd612a56565b905060200201356040516115e391815260200190565b60405180910390a2806115f581612aaf565b915050611504565b60006116076125dd565b6116235760405162461bcd60e51b81526004016109c990612a36565b6001600160a01b0382166116655760405162461bcd60e51b815260206004820152600960248201526808599b1e5dda19595b60ba1b60448201526064016109c9565b60005b601d548110156116ee57601d818154811061168557611685612a56565b6000918252602090912001546001600160a01b03848116911614156116dc5760405162461bcd60e51b815260206004820152600d60248201526c08585b1c9958591e5859191959609a1b60448201526064016109c9565b806116e681612aaf565b915050611668565b50601d805460018101825560009182527f6d4407e7be21f808e6509aa9fa9143369579dd7d760fe20a2c09680fc146134f0180546001600160a01b0319166001600160a01b0385161790555b601b54811015610bf857601b818154811061175757611757612a56565b6000918252602090912001546001600160a01b038481169116141561178657601b8054610a6390600190612a82565b8061179081612aaf565b91505061173a565b601d81815481106113d757600080fd5b600d81815481106113d757600080fd5b60006117c26125dd565b6117d25761140b60016018612631565b6001600160a01b0382166000908152600a602052604090205460ff166117fe5761140b60086019612631565b6000826001600160a01b03166318160ddd6040518163ffffffff1660e01b8152600401602060405180830381865afa15801561183e573d6000803e3d6000fd5b505050506040513d601f19601f820116820180604052508101906118629190612b76565b11156118745761140b6014601a612631565b6001600160a01b0382166000908152600a60209081526040808320805460ff19168155600101839055600b805482518185028101850190935280835291929091908301828280156118ee57602002820191906000526020600020905b81546001600160a01b031681526001909101906020018083116118d0575b5050835193945083925060009150505b8281101561195357856001600160a01b031684828151811061192257611922612a56565b60200260200101516001600160a01b0316141561194157809150611953565b8061194b81612aaf565b9150506118fe565b5081811061196357611963612b8f565b600b805461197390600190612a82565b8154811061198357611983612a56565b600091825260209091200154600b80546001600160a01b0390921691839081106119af576119af612a56565b9060005260206000200160006101000a8154816001600160a01b0302191690836001600160a01b03160217905550600b8054806119ee576119ee612a99565b6001900381819060005260206000200160006101000a8154906001600160a01b0302191690559055600060106000876001600160a01b0316636f307dc36040518163ffffffff1660e01b8152600401602060405180830381865afa158015611a5a573d6000803e3d6000fd5b505050506040513d601f19601f82011682018060405250810190611a7e9190612ba5565b6001600160a01b039081168252602080830193909352604091820160002080546001600160a01b031916948216949094179093555191871682527f302feb03efd5741df80efe7f97f5d93d74d46a542a3d312d0faae64fa1f3e0e9910160405180910390a1600095945050505050565b60408051601780825261030082019092526060919060009082602082016102e08036833701905050905063692fd2a960e01b81611b2a84612bc2565b93508360ff1681518110611b4057611b40612a56565b6001600160e01b031990921660209283029190910190910152631469217960e21b81611b6b84612bc2565b93508360ff1681518110611b8157611b81612a56565b6001600160e01b03199092166020928302919091019091015263607ef6c160e01b81611bac84612bc2565b93508360ff1681518110611bc257611bc2612a56565b6001600160e01b03199092166020928302919091019091015263d219fca760e01b81611bed84612bc2565b93508360ff1681518110611c0357611c03612a56565b6001600160e01b03199092166020928302919091019091015263063b571360e51b81611c2e84612bc2565b93508360ff1681518110611c4457611c44612a56565b6001600160e01b03199092166020928302919091019091015263a5f5d45d60e01b81611c6f84612bc2565b93508360ff1681518110611c8557611c85612a56565b6001600160e01b03199092166020928302919091019091015263a52c784760e01b81611cb084612bc2565b93508360ff1681518110611cc657611cc6612a56565b6001600160e01b03199092166020928302919091019091015263391957d760e01b81611cf184612bc2565b93508360ff1681518110611d0757611d07612a56565b6001600160e01b031990921660209283029190910190910152632fad78d560e11b81611d3284612bc2565b93508360ff1681518110611d4857611d48612a56565b6001600160e01b031990921660209283029190910190910152633bcf7ec160e01b81611d7384612bc2565b93508360ff1681518110611d8957611d89612a56565b6001600160e01b0319909216602092830291909101909101526318c882a560e01b81611db484612bc2565b93508360ff1681518110611dca57611dca612a56565b6001600160e01b0319909216602092830291909101909101526323afd8d960e21b81611df584612bc2565b93508360ff1681518110611e0b57611e0b612a56565b6001600160e01b0319909216602092830291909101909101526305ae1b6f60e31b81611e3684612bc2565b93508360ff1681518110611e4c57611e4c612a56565b6001600160e01b031990921660209283029190910190910152631032c0b560e31b81611e7784612bc2565b93508360ff1681518110611e8d57611e8d612a56565b6001600160e01b03199092166020928302919091019091015263b0772d0b60e01b81611eb884612bc2565b93508360ff1681518110611ece57611ece612a56565b6001600160e01b031990921660209283029190910190910152631955e6df60e11b81611ef984612bc2565b93508360ff1681518110611f0f57611f0f612a56565b6001600160e01b03199092166020928302919091019091015263d01f63f560e01b81611f3a84612bc2565b93508360ff1681518110611f5057611f50612a56565b6001600160e01b031990921660209283029190910190910152633605b51b60e01b81611f7b84612bc2565b93508360ff1681518110611f9157611f91612a56565b6001600160e01b03199092166020928302919091019091015263d9e0ea6b60e01b81611fbc84612bc2565b93508360ff1681518110611fd257611fd2612a56565b6001600160e01b031990921660209283029190910190910152634a76e72760e01b81611ffd84612bc2565b93508360ff168151811061201357612013612a56565b6001600160e01b03199092166020928302919091019091015263084c846760e11b8161203e84612bc2565b93508360ff168151811061205457612054612a56565b6001600160e01b03199092166020928302919091019091015263a5fb485760e01b8161207f84612bc2565b93508360ff168151811061209557612095612a56565b6001600160e01b03199092166020928302919091019091015263ee5b9a2f60e01b816120c084612bc2565b93508360ff16815181106120d6576120d6612a56565b6001600160e01b03199092166020928302919091019091015260ff82161561140b5760405162461bcd60e51b815260206004820152601c60248201527f7573652074686520636f7272656374206172726179206c656e6774680000000060448201526064016109c9565b6015546000906001600160a01b031633148061215f575061215f6125dd565b61217b5760405162461bcd60e51b81526004016109c990612aca565b6121836125dd565b8061219057506001821515145b6121ac5760405162461bcd60e51b81526004016109c990612a36565b60158054831515600160b01b0260ff60b01b199091161790556040517fef159d9a32b2472e32b098f954f3ce62d232939f1c207070b584df1814de2de090610e1b9084906040808252600890820152672a3930b739b332b960c11b6060820152901515602082015260800190565b6122226125dd565b61223e5760405162461bcd60e51b81526004016109c990612a36565b6001600160a01b0391821660009081526023602090815260408083209390941682529190915220805460ff19166001179055565b61227a6125dd565b6122965760405162461bcd60e51b81526004016109c990612a36565b6001600160a01b0391821660009081526022602090815260408083209390941682529190915220805460ff19166001179055565b6122d26125dd565b6122ee5760405162461bcd60e51b81526004016109c990612a36565b6001600160a01b039283166000908152601e602090815260408083209490951682529290925291902055565b6060600b805480602002602001604051908101604052809291908181526020018280548015610e7f576020028201919060005260206000209081546001600160a01b03168152600190910190602001808311610e61575050505050905090565b601b81815481106113d757600080fd5b6123926125dd565b6123ae5760405162461bcd60e51b81526004016109c990612a36565b6001600160a01b03938416600090815260216020908152604080832095871683529481528482209390951681529190935220805460ff1916911515919091179055565b60606013805480602002602001604051908101604052809291908181526020018280548015610e7f576020028201919060005260206000209081546001600160a01b03168152600190910190602001808311610e61575050505050905090565b6124596125dd565b6124755760405162461bcd60e51b81526004016109c990612a36565b6001600160a01b0393841660009081526020808052604080832095871683529481528482209390951681529190935220805460ff1916911515919091179055565b601381815481106113d757600080fd5b6000805b600b54811015610bf8576000600b82815481106124e9576124e9612a56565b60009182526020808320909101546001600160a01b03908116808452600a83526040808520928916855260029092019092529091205490915060ff1615612534575060019392505050565b508061253f81612aaf565b9150506124ca565b6009602052816000526040600020818154811061256357600080fd5b6000918252602090912001546001600160a01b03169150829050565b6125876125dd565b6125a35760405162461bcd60e51b81526004016109c990612a36565b6001600160a01b039283166000908152601f6020908152604080832094909516825292909252919020805460ff1916911515919091179055565b6001546000906001600160a01b0316331480156126035750600254600160a81b900460ff165b8061262c57506000546001600160a01b03163314801561262c5750600254600160a01b900460ff165b905090565b60007f45b96fe442630264581b197e84bbada861235052c5a1aadfff9ea4e40a969aa083601481111561266657612666612b60565b83601a81111561267857612678612b60565b60408051928352602083019190915260009082015260600160405180910390a182601481111561147157611471612b60565b6001600160a01b03811681146126bf57600080fd5b50565b6000602082840312156126d457600080fd5b8135611471816126aa565b600080604083850312156126f257600080fd5b82356126fd816126aa565b9150602083013561270d816126aa565b809150509250929050565b8035801515811461272857600080fd5b919050565b6000806040838503121561274057600080fd5b823561274b816126aa565b915061275960208401612718565b90509250929050565b60008060006060848603121561277757600080fd5b8335612782816126aa565b92506020840135612792816126aa565b915060408401356127a2816126aa565b809150509250925092565b6000602082840312156127bf57600080fd5b61147182612718565b6020808252825182820181905260009190848201906040850190845b818110156128095783516001600160a01b0316835292840192918401916001016127e4565b50909695505050505050565b60008083601f84011261282757600080fd5b50813567ffffffffffffffff81111561283f57600080fd5b6020830191508360208260051b850101111561285a57600080fd5b9250929050565b6000806000806040858703121561287757600080fd5b843567ffffffffffffffff8082111561288f57600080fd5b61289b88838901612815565b909650945060208701359150808211156128b457600080fd5b506128c187828801612815565b95989497509550505050565b6000602082840312156128df57600080fd5b5035919050565b6020808252825182820181905260009190848201906040850190845b818110156128095783516001600160e01b03191683529284019291840191600101612902565b60008060006060848603121561293d57600080fd5b8335612948816126aa565b92506020840135612958816126aa565b929592945050506040919091013590565b6000806000806080858703121561297f57600080fd5b843561298a816126aa565b9350602085013561299a816126aa565b925060408501356129aa816126aa565b91506129b860608601612718565b905092959194509250565b600080604083850312156129d657600080fd5b82356129e1816126aa565b946020939093013593505050565b600080600060608486031215612a0457600080fd5b8335612a0f816126aa565b92506020840135612a1f816126aa565b9150612a2d60408501612718565b90509250925092565b60208082526006908201526510b0b236b4b760d11b604082015260600190565b634e487b7160e01b600052603260045260246000fd5b634e487b7160e01b600052601160045260246000fd5b600082821015612a9457612a94612a6c565b500390565b634e487b7160e01b600052603160045260246000fd5b6000600019821415612ac357612ac3612a6c565b5060010190565b60208082526009908201526810b3bab0b93234b0b760b91b604082015260600190565b60008219821115612b0057612b00612a6c565b500190565b634e487b7160e01b600052604160045260246000fd5b600060ff821660ff811415612b3257612b32612a6c565b60010192915050565b600060ff821660ff84168060ff03821115612b5857612b58612a6c565b019392505050565b634e487b7160e01b600052602160045260246000fd5b600060208284031215612b8857600080fd5b5051919050565b634e487b7160e01b600052600160045260246000fd5b600060208284031215612bb757600080fd5b8151611471816126aa565b600060ff821680612bd557612bd5612a6c565b600019019291505056fea164736f6c634300080a000a",
    "linkReferences": {}
  },
  "methodIdentifiers": {
    "_blacklistBorrowingAgainstCollateral(address,address,bool)": "ee5b9a2f",
    "_blacklistBorrowingAgainstCollateralWhitelist(address,address,address,bool)": "c76ae260",
    "_borrowCapWhitelist(address,address)": "a52c7847",
    "_borrowGuardianPaused()": "e6653f3d",
    "_getExtensionFunctions()": "89f8132e",
    "_mintGuardianPaused()": "3c94786f",
    "_removeFlywheel(address)": "109908ce",
    "_setBorrowCapForCollateral(address,address,uint256)": "a5fb4857",
    "_setBorrowCapForCollateralWhitelist(address,address,address,bool)": "d219fca7",
    "_setBorrowCapGuardian(address)": "391957d7",
    "_setBorrowPaused(address,bool)": "18c882a5",
    "_setMarketBorrowCaps(address[],uint256[])": "607ef6c1",
    "_setMarketSupplyCaps(address[],uint256[])": "51a485e4",
    "_setMintPaused(address,bool)": "3bcf7ec1",
    "_setPauseGuardian(address)": "5f5af1aa",
    "_setSeizePaused(bool)": "2d70db78",
    "_setTransferPaused(bool)": "8ebf6364",
    "_supplyCapWhitelist(address,address)": "a5f5d45d",
    "_unsupportMarket(address)": "819605a8",
    "accountAssets(address,uint256)": "dce15449",
    "addNonAccruingFlywheel(address)": "692fd2a9",
    "admin()": "f851a440",
    "adminHasRights()": "0a755ec2",
    "allBorrowers(uint256)": "7515bafa",
    "allMarkets(uint256)": "52d84d1e",
    "autoImplementation()": "dd5cd22c",
    "borrowCapForCollateral(address,address)": "940cd6f1",
    "borrowCapForCollateralWhitelist(address,address,address)": "ca36d40a",
    "borrowCapGuardian()": "21af4569",
    "borrowCapWhitelist(address,address)": "bc89f68a",
    "borrowCaps(address)": "4a584432",
    "borrowGuardianPaused(address)": "6d154ea5",
    "borrowingAgainstCollateralBlacklist(address,address)": "1c819e43",
    "borrowingAgainstCollateralBlacklistWhitelist(address,address,address)": "1dadaa84",
    "cTokensByUnderlying(address)": "31ff47fa",
    "closeFactorMantissa()": "e8755446",
    "comptrollerImplementation()": "bb82aa5e",
    "enforceWhitelist()": "b0957210",
    "fuseAdmin()": "15761d51",
    "fuseAdminHasRights()": "2f1069ba",
    "getAccruingFlywheels()": "4a76e727",
    "getAllBorrowers()": "32abcdbe",
    "getAllMarkets()": "b0772d0b",
    "getRewardsDistributors()": "3605b51b",
    "getWhitelist()": "d01f63f5",
    "isUserOfPool(address)": "d9e0ea6b",
    "liquidationIncentiveMantissa()": "4ada90af",
    "markets(address)": "8e8f294b",
    "mintGuardianPaused(address)": "731f0c2b",
    "nonAccruingRewardsDistributors(uint256)": "6bd02b8a",
    "oracle()": "7dc0d1d0",
    "pauseGuardian()": "24a3d622",
    "pendingAdmin()": "26782247",
    "pendingComptrollerImplementation()": "dcfbc0c7",
    "rewardsDistributors(uint256)": "c6c5b0dd",
    "seizeGuardianPaused()": "ac0b0bb7",
    "suppliers(address)": "16dc15fe",
    "supplyCapWhitelist(address,address)": "1879dbc5",
    "supplyCaps(address)": "02c3bcbb",
    "transferGuardianPaused()": "87f76303",
    "whitelist(address)": "9b19251a",
    "whitelistArray(uint256)": "d251fefc"
  }
}