{
  "address": "0x1BB0B39d186Ad4cF6510986048aA899d5B71cdbF",
  "abi": [
    {
      "inputs": [
        {
          "internalType": "address payable",
          "name": "_fuseAdmin",
          "type": "address"
        }
      ],
      "stateMutability": "nonpayable",
      "type": "constructor"
    },
    {
      "anonymous": false,
      "inputs": [
        {
          "indexed": false,
          "internalType": "address",
          "name": "rewardsDistributor",
          "type": "address"
        }
      ],
      "name": "AddedRewardsDistributor",
      "type": "event"
    },
    {
      "anonymous": false,
      "inputs": [
        {
          "indexed": false,
          "internalType": "bool",
          "name": "enabled",
          "type": "bool"
        }
      ],
      "name": "AutoImplementationsToggled",
      "type": "event"
    },
    {
      "anonymous": false,
      "inputs": [
        {
          "indexed": false,
          "internalType": "uint256",
          "name": "error",
          "type": "uint256"
        },
        {
          "indexed": false,
          "internalType": "uint256",
          "name": "info",
          "type": "uint256"
        },
        {
          "indexed": false,
          "internalType": "uint256",
          "name": "detail",
          "type": "uint256"
        }
      ],
      "name": "Failure",
      "type": "event"
    },
    {
      "anonymous": false,
      "inputs": [
        {
          "indexed": false,
          "internalType": "contract CTokenInterface",
          "name": "cToken",
          "type": "address"
        },
        {
          "indexed": false,
          "internalType": "address",
          "name": "account",
          "type": "address"
        }
      ],
      "name": "MarketEntered",
      "type": "event"
    },
    {
      "anonymous": false,
      "inputs": [
        {
          "indexed": false,
          "internalType": "contract CTokenInterface",
          "name": "cToken",
          "type": "address"
        },
        {
          "indexed": false,
          "internalType": "address",
          "name": "account",
          "type": "address"
        }
      ],
      "name": "MarketExited",
      "type": "event"
    },
    {
      "anonymous": false,
      "inputs": [
        {
          "indexed": false,
          "internalType": "contract CTokenInterface",
          "name": "cToken",
          "type": "address"
        }
      ],
      "name": "MarketListed",
      "type": "event"
    },
    {
      "anonymous": false,
      "inputs": [
        {
          "indexed": false,
          "internalType": "uint256",
          "name": "oldCloseFactorMantissa",
          "type": "uint256"
        },
        {
          "indexed": false,
          "internalType": "uint256",
          "name": "newCloseFactorMantissa",
          "type": "uint256"
        }
      ],
      "name": "NewCloseFactor",
      "type": "event"
    },
    {
      "anonymous": false,
      "inputs": [
        {
          "indexed": false,
          "internalType": "contract CTokenInterface",
          "name": "cToken",
          "type": "address"
        },
        {
          "indexed": false,
          "internalType": "uint256",
          "name": "oldCollateralFactorMantissa",
          "type": "uint256"
        },
        {
          "indexed": false,
          "internalType": "uint256",
          "name": "newCollateralFactorMantissa",
          "type": "uint256"
        }
      ],
      "name": "NewCollateralFactor",
      "type": "event"
    },
    {
      "anonymous": false,
      "inputs": [
        {
          "indexed": false,
          "internalType": "uint256",
          "name": "oldLiquidationIncentiveMantissa",
          "type": "uint256"
        },
        {
          "indexed": false,
          "internalType": "uint256",
          "name": "newLiquidationIncentiveMantissa",
          "type": "uint256"
        }
      ],
      "name": "NewLiquidationIncentive",
      "type": "event"
    },
    {
      "anonymous": false,
      "inputs": [
        {
          "indexed": false,
          "internalType": "contract PriceOracle",
          "name": "oldPriceOracle",
          "type": "address"
        },
        {
          "indexed": false,
          "internalType": "contract PriceOracle",
          "name": "newPriceOracle",
          "type": "address"
        }
      ],
      "name": "NewPriceOracle",
      "type": "event"
    },
    {
      "anonymous": false,
      "inputs": [
        {
          "indexed": false,
          "internalType": "bool",
          "name": "enforce",
          "type": "bool"
        }
      ],
      "name": "WhitelistEnforcementChanged",
      "type": "event"
    },
    {
      "stateMutability": "payable",
      "type": "fallback"
    },
    {
      "inputs": [
        {
          "internalType": "address",
          "name": "distributor",
          "type": "address"
        }
      ],
      "name": "_addRewardsDistributor",
      "outputs": [
        {
          "internalType": "uint256",
          "name": "",
          "type": "uint256"
        }
      ],
      "stateMutability": "nonpayable",
      "type": "function"
    },
    {
      "inputs": [],
      "name": "_afterNonReentrant",
      "outputs": [],
      "stateMutability": "nonpayable",
      "type": "function"
    },
    {
      "inputs": [
        {
          "internalType": "contract Unitroller",
          "name": "unitroller",
          "type": "address"
        }
      ],
      "name": "_become",
      "outputs": [],
      "stateMutability": "nonpayable",
      "type": "function"
    },
    {
      "inputs": [],
      "name": "_becomeImplementation",
      "outputs": [],
      "stateMutability": "nonpayable",
      "type": "function"
    },
    {
      "inputs": [],
      "name": "_beforeNonReentrant",
      "outputs": [],
      "stateMutability": "nonpayable",
      "type": "function"
    },
    {
      "inputs": [],
      "name": "_borrowGuardianPaused",
      "outputs": [
        {
          "internalType": "bool",
          "name": "",
          "type": "bool"
        }
      ],
      "stateMutability": "view",
      "type": "function"
    },
    {
      "inputs": [
        {
          "internalType": "bool",
          "name": "isCEther",
          "type": "bool"
        },
        {
          "internalType": "bytes",
          "name": "constructorData",
          "type": "bytes"
        },
        {
          "internalType": "uint256",
          "name": "collateralFactorMantissa",
          "type": "uint256"
        }
      ],
      "name": "_deployMarket",
      "outputs": [
        {
          "internalType": "uint256",
          "name": "",
          "type": "uint256"
        }
      ],
      "stateMutability": "nonpayable",
      "type": "function"
    },
    {
      "inputs": [],
      "name": "_fixStorage",
      "outputs": [],
      "stateMutability": "nonpayable",
      "type": "function"
    },
    {
      "inputs": [],
      "name": "_listExtensions",
      "outputs": [
        {
          "internalType": "address[]",
          "name": "",
          "type": "address[]"
        }
      ],
      "stateMutability": "nonpayable",
      "type": "function"
    },
    {
      "inputs": [],
      "name": "_mintGuardianPaused",
      "outputs": [
        {
          "internalType": "bool",
          "name": "",
          "type": "bool"
        }
      ],
      "stateMutability": "view",
      "type": "function"
    },
    {
      "inputs": [
        {
          "internalType": "contract DiamondExtension",
          "name": "extensionToAdd",
          "type": "address"
        },
        {
          "internalType": "contract DiamondExtension",
          "name": "extensionToReplace",
          "type": "address"
        }
      ],
      "name": "_registerExtension",
      "outputs": [],
      "stateMutability": "nonpayable",
      "type": "function"
    },
    {
      "inputs": [
        {
          "internalType": "uint256",
          "name": "newCloseFactorMantissa",
          "type": "uint256"
        }
      ],
      "name": "_setCloseFactor",
      "outputs": [
        {
          "internalType": "uint256",
          "name": "",
          "type": "uint256"
        }
      ],
      "stateMutability": "nonpayable",
      "type": "function"
    },
    {
      "inputs": [
        {
          "internalType": "contract CTokenInterface",
          "name": "cToken",
          "type": "address"
        },
        {
          "internalType": "uint256",
          "name": "newCollateralFactorMantissa",
          "type": "uint256"
        }
      ],
      "name": "_setCollateralFactor",
      "outputs": [
        {
          "internalType": "uint256",
          "name": "",
          "type": "uint256"
        }
      ],
      "stateMutability": "nonpayable",
      "type": "function"
    },
    {
      "inputs": [
        {
          "internalType": "uint256",
          "name": "newLiquidationIncentiveMantissa",
          "type": "uint256"
        }
      ],
      "name": "_setLiquidationIncentive",
      "outputs": [
        {
          "internalType": "uint256",
          "name": "",
          "type": "uint256"
        }
      ],
      "stateMutability": "nonpayable",
      "type": "function"
    },
    {
      "inputs": [
        {
          "internalType": "contract PriceOracle",
          "name": "newOracle",
          "type": "address"
        }
      ],
      "name": "_setPriceOracle",
      "outputs": [
        {
          "internalType": "uint256",
          "name": "",
          "type": "uint256"
        }
      ],
      "stateMutability": "nonpayable",
      "type": "function"
    },
    {
      "inputs": [
        {
          "internalType": "bool",
          "name": "enforce",
          "type": "bool"
        }
      ],
      "name": "_setWhitelistEnforcement",
      "outputs": [
        {
          "internalType": "uint256",
          "name": "",
          "type": "uint256"
        }
      ],
      "stateMutability": "nonpayable",
      "type": "function"
    },
    {
      "inputs": [
        {
          "internalType": "address[]",
          "name": "suppliers",
          "type": "address[]"
        },
        {
          "internalType": "bool[]",
          "name": "statuses",
          "type": "bool[]"
        }
      ],
      "name": "_setWhitelistStatuses",
      "outputs": [
        {
          "internalType": "uint256",
          "name": "",
          "type": "uint256"
        }
      ],
      "stateMutability": "nonpayable",
      "type": "function"
    },
    {
      "inputs": [
        {
          "internalType": "bool",
          "name": "enabled",
          "type": "bool"
        }
      ],
      "name": "_toggleAutoImplementations",
      "outputs": [
        {
          "internalType": "uint256",
          "name": "",
          "type": "uint256"
        }
      ],
      "stateMutability": "nonpayable",
      "type": "function"
    },
    {
      "inputs": [
        {
          "internalType": "address",
          "name": "",
          "type": "address"
        },
        {
          "internalType": "uint256",
          "name": "",
          "type": "uint256"
        }
      ],
      "name": "accountAssets",
      "outputs": [
        {
          "internalType": "contract CTokenInterface",
          "name": "",
          "type": "address"
        }
      ],
      "stateMutability": "view",
      "type": "function"
    },
    {
      "inputs": [],
      "name": "admin",
      "outputs": [
        {
          "internalType": "address",
          "name": "",
          "type": "address"
        }
      ],
      "stateMutability": "view",
      "type": "function"
    },
    {
      "inputs": [],
      "name": "adminHasRights",
      "outputs": [
        {
          "internalType": "bool",
          "name": "",
          "type": "bool"
        }
      ],
      "stateMutability": "view",
      "type": "function"
    },
    {
      "inputs": [
        {
          "internalType": "uint256",
          "name": "",
          "type": "uint256"
        }
      ],
      "name": "allBorrowers",
      "outputs": [
        {
          "internalType": "address",
          "name": "",
          "type": "address"
        }
      ],
      "stateMutability": "view",
      "type": "function"
    },
    {
      "inputs": [
        {
          "internalType": "uint256",
          "name": "",
          "type": "uint256"
        }
      ],
      "name": "allMarkets",
      "outputs": [
        {
          "internalType": "contract CTokenInterface",
          "name": "",
          "type": "address"
        }
      ],
      "stateMutability": "view",
      "type": "function"
    },
    {
      "inputs": [],
      "name": "autoImplementation",
      "outputs": [
        {
          "internalType": "bool",
          "name": "",
          "type": "bool"
        }
      ],
      "stateMutability": "view",
      "type": "function"
    },
    {
      "inputs": [
        {
          "internalType": "address",
          "name": "cToken",
          "type": "address"
        },
        {
          "internalType": "address",
          "name": "borrower",
          "type": "address"
        },
        {
          "internalType": "uint256",
          "name": "borrowAmount",
          "type": "uint256"
        }
      ],
      "name": "borrowAllowed",
      "outputs": [
        {
          "internalType": "uint256",
          "name": "",
          "type": "uint256"
        }
      ],
      "stateMutability": "nonpayable",
      "type": "function"
    },
    {
      "inputs": [],
      "name": "borrowCapGuardian",
      "outputs": [
        {
          "internalType": "address",
          "name": "",
          "type": "address"
        }
      ],
      "stateMutability": "view",
      "type": "function"
    },
    {
      "inputs": [
        {
          "internalType": "address",
          "name": "",
          "type": "address"
        }
      ],
      "name": "borrowCaps",
      "outputs": [
        {
          "internalType": "uint256",
          "name": "",
          "type": "uint256"
        }
      ],
      "stateMutability": "view",
      "type": "function"
    },
    {
      "inputs": [
        {
          "internalType": "address",
          "name": "",
          "type": "address"
        }
      ],
      "name": "borrowGuardianPaused",
      "outputs": [
        {
          "internalType": "bool",
          "name": "",
          "type": "bool"
        }
      ],
      "stateMutability": "view",
      "type": "function"
    },
    {
      "inputs": [
        {
          "internalType": "address",
          "name": "cToken",
          "type": "address"
        },
        {
          "internalType": "uint256",
          "name": "accountBorrowsNew",
          "type": "uint256"
        }
      ],
      "name": "borrowWithinLimits",
      "outputs": [
        {
          "internalType": "uint256",
          "name": "",
          "type": "uint256"
        }
      ],
      "stateMutability": "nonpayable",
      "type": "function"
    },
    {
      "inputs": [
        {
          "internalType": "address",
          "name": "",
          "type": "address"
        }
      ],
      "name": "cTokensByUnderlying",
      "outputs": [
        {
          "internalType": "contract CTokenInterface",
          "name": "",
          "type": "address"
        }
      ],
      "stateMutability": "view",
      "type": "function"
    },
    {
      "inputs": [
        {
          "internalType": "address",
          "name": "account",
          "type": "address"
        },
        {
          "internalType": "contract CTokenInterface",
          "name": "cToken",
          "type": "address"
        }
      ],
      "name": "checkMembership",
      "outputs": [
        {
          "internalType": "bool",
          "name": "",
          "type": "bool"
        }
      ],
      "stateMutability": "view",
      "type": "function"
    },
    {
      "inputs": [],
      "name": "closeFactorMantissa",
      "outputs": [
        {
          "internalType": "uint256",
          "name": "",
          "type": "uint256"
        }
      ],
      "stateMutability": "view",
      "type": "function"
    },
    {
      "inputs": [],
      "name": "comptrollerImplementation",
      "outputs": [
        {
          "internalType": "address",
          "name": "",
          "type": "address"
        }
      ],
      "stateMutability": "view",
      "type": "function"
    },
    {
      "inputs": [],
      "name": "enforceWhitelist",
      "outputs": [
        {
          "internalType": "bool",
          "name": "",
          "type": "bool"
        }
      ],
      "stateMutability": "view",
      "type": "function"
    },
    {
      "inputs": [
        {
          "internalType": "address[]",
          "name": "cTokens",
          "type": "address[]"
        }
      ],
      "name": "enterMarkets",
      "outputs": [
        {
          "internalType": "uint256[]",
          "name": "",
          "type": "uint256[]"
        }
      ],
      "stateMutability": "nonpayable",
      "type": "function"
    },
    {
      "inputs": [
        {
          "internalType": "address",
          "name": "cTokenAddress",
          "type": "address"
        }
      ],
      "name": "exitMarket",
      "outputs": [
        {
          "internalType": "uint256",
          "name": "",
          "type": "uint256"
        }
      ],
      "stateMutability": "nonpayable",
      "type": "function"
    },
    {
      "inputs": [],
      "name": "fuseAdmin",
      "outputs": [
        {
          "internalType": "address payable",
          "name": "",
          "type": "address"
        }
      ],
      "stateMutability": "view",
      "type": "function"
    },
    {
      "inputs": [],
      "name": "fuseAdminHasRights",
      "outputs": [
        {
          "internalType": "bool",
          "name": "",
          "type": "bool"
        }
      ],
      "stateMutability": "view",
      "type": "function"
    },
    {
      "inputs": [],
      "name": "getAllBorrowers",
      "outputs": [
        {
          "internalType": "address[]",
          "name": "",
          "type": "address[]"
        }
      ],
      "stateMutability": "view",
      "type": "function"
    },
    {
      "inputs": [],
      "name": "getAllMarkets",
      "outputs": [
        {
          "internalType": "contract CTokenInterface[]",
          "name": "",
          "type": "address[]"
        }
      ],
      "stateMutability": "view",
      "type": "function"
    },
    {
      "inputs": [
        {
          "internalType": "address",
          "name": "account",
          "type": "address"
        }
      ],
      "name": "getAssetsIn",
      "outputs": [
        {
          "internalType": "contract CTokenInterface[]",
          "name": "",
          "type": "address[]"
        }
      ],
      "stateMutability": "view",
      "type": "function"
    },
    {
      "inputs": [
        {
          "internalType": "address",
          "name": "account",
          "type": "address"
        },
        {
          "internalType": "address",
          "name": "cTokenModify",
          "type": "address"
        },
        {
          "internalType": "uint256",
          "name": "redeemTokens",
          "type": "uint256"
        },
        {
          "internalType": "uint256",
          "name": "borrowAmount",
          "type": "uint256"
        }
      ],
      "name": "getHypotheticalAccountLiquidity",
      "outputs": [
        {
          "internalType": "uint256",
          "name": "",
          "type": "uint256"
        },
        {
          "internalType": "uint256",
          "name": "",
          "type": "uint256"
        },
        {
          "internalType": "uint256",
          "name": "",
          "type": "uint256"
        }
      ],
      "stateMutability": "view",
      "type": "function"
    },
    {
      "inputs": [
        {
          "internalType": "address",
          "name": "account",
          "type": "address"
        },
        {
          "internalType": "address",
          "name": "cToken",
          "type": "address"
        },
        {
          "internalType": "bool",
          "name": "isBorrow",
          "type": "bool"
        }
      ],
      "name": "getMaxRedeemOrBorrow",
      "outputs": [
        {
          "internalType": "uint256",
          "name": "",
          "type": "uint256"
        }
      ],
      "stateMutability": "nonpayable",
      "type": "function"
    },
    {
      "inputs": [],
      "name": "getRewardsDistributors",
      "outputs": [
        {
          "internalType": "address[]",
          "name": "",
          "type": "address[]"
        }
      ],
      "stateMutability": "view",
      "type": "function"
    },
    {
      "inputs": [],
      "name": "getWhitelist",
      "outputs": [
        {
          "internalType": "address[]",
          "name": "",
          "type": "address[]"
        }
      ],
      "stateMutability": "view",
      "type": "function"
    },
    {
      "inputs": [],
      "name": "isComptroller",
      "outputs": [
        {
          "internalType": "bool",
          "name": "",
          "type": "bool"
        }
      ],
      "stateMutability": "view",
      "type": "function"
    },
    {
      "inputs": [
        {
          "internalType": "contract CTokenInterface",
          "name": "cToken",
          "type": "address"
        }
      ],
      "name": "isDeprecated",
      "outputs": [
        {
          "internalType": "bool",
          "name": "",
          "type": "bool"
        }
      ],
      "stateMutability": "view",
      "type": "function"
    },
    {
      "inputs": [
        {
          "internalType": "address",
          "name": "user",
          "type": "address"
        }
      ],
      "name": "isUserOfPool",
      "outputs": [
        {
          "internalType": "bool",
          "name": "",
          "type": "bool"
        }
      ],
      "stateMutability": "view",
      "type": "function"
    },
    {
      "inputs": [
        {
          "internalType": "address",
          "name": "cTokenBorrowed",
          "type": "address"
        },
        {
          "internalType": "address",
          "name": "cTokenCollateral",
          "type": "address"
        },
        {
          "internalType": "address",
          "name": "liquidator",
          "type": "address"
        },
        {
          "internalType": "address",
          "name": "borrower",
          "type": "address"
        },
        {
          "internalType": "uint256",
          "name": "repayAmount",
          "type": "uint256"
        }
      ],
      "name": "liquidateBorrowAllowed",
      "outputs": [
        {
          "internalType": "uint256",
          "name": "",
          "type": "uint256"
        }
      ],
      "stateMutability": "nonpayable",
      "type": "function"
    },
    {
      "inputs": [
        {
          "internalType": "address",
          "name": "cTokenBorrowed",
          "type": "address"
        },
        {
          "internalType": "address",
          "name": "cTokenCollateral",
          "type": "address"
        },
        {
          "internalType": "uint256",
          "name": "actualRepayAmount",
          "type": "uint256"
        }
      ],
      "name": "liquidateCalculateSeizeTokens",
      "outputs": [
        {
          "internalType": "uint256",
          "name": "",
          "type": "uint256"
        },
        {
          "internalType": "uint256",
          "name": "",
          "type": "uint256"
        }
      ],
      "stateMutability": "view",
      "type": "function"
    },
    {
      "inputs": [],
      "name": "liquidationIncentiveMantissa",
      "outputs": [
        {
          "internalType": "uint256",
          "name": "",
          "type": "uint256"
        }
      ],
      "stateMutability": "view",
      "type": "function"
    },
    {
      "inputs": [
        {
          "internalType": "address",
          "name": "",
          "type": "address"
        }
      ],
      "name": "markets",
      "outputs": [
        {
          "internalType": "bool",
          "name": "isListed",
          "type": "bool"
        },
        {
          "internalType": "uint256",
          "name": "collateralFactorMantissa",
          "type": "uint256"
        }
      ],
      "stateMutability": "view",
      "type": "function"
    },
    {
      "inputs": [
        {
          "internalType": "address",
          "name": "cToken",
          "type": "address"
        },
        {
          "internalType": "address",
          "name": "minter",
          "type": "address"
        },
        {
          "internalType": "uint256",
          "name": "mintAmount",
          "type": "uint256"
        }
      ],
      "name": "mintAllowed",
      "outputs": [
        {
          "internalType": "uint256",
          "name": "",
          "type": "uint256"
        }
      ],
      "stateMutability": "nonpayable",
      "type": "function"
    },
    {
      "inputs": [
        {
          "internalType": "address",
          "name": "",
          "type": "address"
        }
      ],
      "name": "mintGuardianPaused",
      "outputs": [
        {
          "internalType": "bool",
          "name": "",
          "type": "bool"
        }
      ],
      "stateMutability": "view",
      "type": "function"
    },
    {
      "inputs": [
        {
          "internalType": "uint256",
          "name": "",
          "type": "uint256"
        }
      ],
      "name": "nonAccruingRewardsDistributors",
      "outputs": [
        {
          "internalType": "address",
          "name": "",
          "type": "address"
        }
      ],
      "stateMutability": "view",
      "type": "function"
    },
    {
      "inputs": [],
      "name": "oracle",
      "outputs": [
        {
          "internalType": "contract PriceOracle",
          "name": "",
          "type": "address"
        }
      ],
      "stateMutability": "view",
      "type": "function"
    },
    {
      "inputs": [],
      "name": "pauseGuardian",
      "outputs": [
        {
          "internalType": "address",
          "name": "",
          "type": "address"
        }
      ],
      "stateMutability": "view",
      "type": "function"
    },
    {
      "inputs": [],
      "name": "pendingAdmin",
      "outputs": [
        {
          "internalType": "address",
          "name": "",
          "type": "address"
        }
      ],
      "stateMutability": "view",
      "type": "function"
    },
    {
      "inputs": [],
      "name": "pendingComptrollerImplementation",
      "outputs": [
        {
          "internalType": "address",
          "name": "",
          "type": "address"
        }
      ],
      "stateMutability": "view",
      "type": "function"
    },
    {
      "inputs": [
        {
          "internalType": "address",
          "name": "cToken",
          "type": "address"
        },
        {
          "internalType": "address",
          "name": "redeemer",
          "type": "address"
        },
        {
          "internalType": "uint256",
          "name": "redeemTokens",
          "type": "uint256"
        }
      ],
      "name": "redeemAllowed",
      "outputs": [
        {
          "internalType": "uint256",
          "name": "",
          "type": "uint256"
        }
      ],
      "stateMutability": "nonpayable",
      "type": "function"
    },
    {
      "inputs": [
        {
          "internalType": "address",
          "name": "cToken",
          "type": "address"
        },
        {
          "internalType": "address",
          "name": "redeemer",
          "type": "address"
        },
        {
          "internalType": "uint256",
          "name": "redeemAmount",
          "type": "uint256"
        },
        {
          "internalType": "uint256",
          "name": "redeemTokens",
          "type": "uint256"
        }
      ],
      "name": "redeemVerify",
      "outputs": [],
      "stateMutability": "nonpayable",
      "type": "function"
    },
    {
      "inputs": [
        {
          "internalType": "address",
          "name": "cToken",
          "type": "address"
        },
        {
          "internalType": "address",
          "name": "payer",
          "type": "address"
        },
        {
          "internalType": "address",
          "name": "borrower",
          "type": "address"
        },
        {
          "internalType": "uint256",
          "name": "repayAmount",
          "type": "uint256"
        }
      ],
      "name": "repayBorrowAllowed",
      "outputs": [
        {
          "internalType": "uint256",
          "name": "",
          "type": "uint256"
        }
      ],
      "stateMutability": "nonpayable",
      "type": "function"
    },
    {
      "inputs": [
        {
          "internalType": "uint256",
          "name": "",
          "type": "uint256"
        }
      ],
      "name": "rewardsDistributors",
      "outputs": [
        {
          "internalType": "address",
          "name": "",
          "type": "address"
        }
      ],
      "stateMutability": "view",
      "type": "function"
    },
    {
      "inputs": [
        {
          "internalType": "address",
          "name": "cTokenCollateral",
          "type": "address"
        },
        {
          "internalType": "address",
          "name": "cTokenBorrowed",
          "type": "address"
        },
        {
          "internalType": "address",
          "name": "liquidator",
          "type": "address"
        },
        {
          "internalType": "address",
          "name": "borrower",
          "type": "address"
        },
        {
          "internalType": "uint256",
          "name": "seizeTokens",
          "type": "uint256"
        }
      ],
      "name": "seizeAllowed",
      "outputs": [
        {
          "internalType": "uint256",
          "name": "",
          "type": "uint256"
        }
      ],
      "stateMutability": "nonpayable",
      "type": "function"
    },
    {
      "inputs": [],
      "name": "seizeGuardianPaused",
      "outputs": [
        {
          "internalType": "bool",
          "name": "",
          "type": "bool"
        }
      ],
      "stateMutability": "view",
      "type": "function"
    },
    {
      "inputs": [
        {
          "internalType": "address",
          "name": "",
          "type": "address"
        }
      ],
      "name": "suppliers",
      "outputs": [
        {
          "internalType": "bool",
          "name": "",
          "type": "bool"
        }
      ],
      "stateMutability": "view",
      "type": "function"
    },
    {
      "inputs": [
        {
          "internalType": "address",
          "name": "",
          "type": "address"
        }
      ],
      "name": "supplyCaps",
      "outputs": [
        {
          "internalType": "uint256",
          "name": "",
          "type": "uint256"
        }
      ],
      "stateMutability": "view",
      "type": "function"
    },
    {
      "inputs": [
        {
          "internalType": "address",
          "name": "cToken",
          "type": "address"
        },
        {
          "internalType": "address",
          "name": "src",
          "type": "address"
        },
        {
          "internalType": "address",
          "name": "dst",
          "type": "address"
        },
        {
          "internalType": "uint256",
          "name": "transferTokens",
          "type": "uint256"
        }
      ],
      "name": "transferAllowed",
      "outputs": [
        {
          "internalType": "uint256",
          "name": "",
          "type": "uint256"
        }
      ],
      "stateMutability": "nonpayable",
      "type": "function"
    },
    {
      "inputs": [],
      "name": "transferGuardianPaused",
      "outputs": [
        {
          "internalType": "bool",
          "name": "",
          "type": "bool"
        }
      ],
      "stateMutability": "view",
      "type": "function"
    },
    {
      "inputs": [
        {
          "internalType": "address",
          "name": "",
          "type": "address"
        }
      ],
      "name": "whitelist",
      "outputs": [
        {
          "internalType": "bool",
          "name": "",
          "type": "bool"
        }
      ],
      "stateMutability": "view",
      "type": "function"
    },
    {
      "inputs": [
        {
          "internalType": "uint256",
          "name": "",
          "type": "uint256"
        }
      ],
      "name": "whitelistArray",
      "outputs": [
        {
          "internalType": "address",
          "name": "",
          "type": "address"
        }
      ],
      "stateMutability": "view",
      "type": "function"
    }
  ],
  "transactionHash": "0xebff739f436bc3a7f2a6c4e46bf28003cd0d1b50c7e7d6bc39073d7dc7a07533",
  "args": [
    "0xFc1f56C58286E7215701A773b61bFf2e18A177dE"
  ],
  "numDeployments": 21,
  "bytecode": {
    "object": "0x60806040526002805461ffff60a01b191661010160a01b1790553480156200002657600080fd5b5060405162005f2738038062005f2783398101604081905262000049916200006f565b600080546001600160a01b0319166001600160a01b0392909216919091179055620000a1565b6000602082840312156200008257600080fd5b81516001600160a01b03811681146200009a57600080fd5b9392505050565b615e7680620000b16000396000f3fe60806040526004361061040f5760003560e01c806387f763031161021e578063c6c5b0dd11610123578063dce15449116100ab578063e6653f3d1161007a578063e6653f3d14610d68578063e875544614610d89578063eabe7d9114610d9f578063ede4edd014610dbf578063f851a44014610ddf5761040f565b8063dce1544914610cee578063dcfbc0c714610d0e578063dd5cd22c14610d2e578063e4028eee14610d485761040f565b8063d02f7351116100f2578063d02f735114610c4e578063d251fefc14610c6e578063d533316614610c8e578063d9e0ea6b14610cae578063da3d454c14610cce5761040f565b8063c6c5b0dd14610be4578063c8c9c97514610c04578063c90c20b114610c24578063d01f63f514610c395761040f565b8063ac0b0bb7116101a6578063bb82aa5e11610175578063bb82aa5e14610b2d578063bdcdc25814610b4d578063befbd60814610b6d578063c299823814610b82578063c488847b14610baf5761040f565b8063ac0b0bb714610abd578063b0772d0b14610ade578063b095721014610af3578063b9b5b15314610b0d5761040f565b806394543c15116101ed57806394543c1514610a0d578063952adf5a14610a2d5780639b19251a14610a4d578063aba35b9814610a7d578063abfceffc14610a9d5761040f565b806387f763031461092d57806389cd98551461094e5780638e8f294b1461096e578063929fe9a1146109bf5761040f565b80634a584432116103245780635fc7e71e116102ac5780636d154ea51161027b5780636d154ea51461086d578063731f0c2b1461089d5780637515bafa146108cd578063779b2294146108ed5780637dc0d1d01461090d5761040f565b80635fc7e71e14610803578063632e5142146108235780636333d001146108385780636bd02b8a1461084d5761040f565b80634fd42e17116102f35780634fd42e171461076e57806351dff9891461078e57806352d84d1e146107ae57806355ee1fe1146107ce5780635d72de62146107ee5761040f565b80634a584432146106d05780634ada90af146106fd5780634e79238f146107135780634ef4c3e11461074e5761040f565b806324008a62116103a7578063317b0b7711610376578063317b0b771461062257806331ff47fa1461064257806332abcdbe146106785780633605b51b1461069a5780633c94786f146106af5761040f565b806324008a62146105a157806324a3d622146105c157806326782247146105e15780632f1069ba146106015761040f565b806316dc15fe116103e357806316dc15fe1461050a5780631976828e1461053a5780631d504dc61461055a57806321af45691461057c5761040f565b80627e3dd21461044c57806302c3bcbb146104765780630a755ec2146104b157806315761d51146104d2575b60006104266000356001600160e01b031916610dff565b90503660008037600080366000845af43d6000803e808015610447573d6000f35b3d6000fd5b34801561045857600080fd5b50610461600181565b60405190151581526020015b60405180910390f35b34801561048257600080fd5b506104a36104913660046155a3565b601a6020526000908152604090205481565b60405190815260200161046d565b3480156104bd57600080fd5b5060025461046190600160a81b900460ff1681565b3480156104de57600080fd5b506000546104f2906001600160a01b031681565b6040516001600160a01b03909116815260200161046d565b34801561051657600080fd5b506104616105253660046155a3565b600f6020526000908152604090205460ff1681565b34801561054657600080fd5b506104a36105553660046155ce565b610e8a565b34801561056657600080fd5b5061057a6105753660046155a3565b611075565b005b34801561058857600080fd5b506018546104f29061010090046001600160a01b031681565b3480156105ad57600080fd5b506104a36105bc366004615619565b611313565b3480156105cd57600080fd5b506015546104f2906001600160a01b031681565b3480156105ed57600080fd5b506002546104f2906001600160a01b031681565b34801561060d57600080fd5b5060025461046190600160a01b900460ff1681565b34801561062e57600080fd5b506104a361063d36600461566a565b611355565b34801561064e57600080fd5b506104f261065d3660046155a3565b6010602052600090815260409020546001600160a01b031681565b34801561068457600080fd5b5061068d61142f565b60405161046d9190615683565b3480156106a657600080fd5b5061068d611491565b3480156106bb57600080fd5b5060155461046190600160a01b900460ff1681565b3480156106dc57600080fd5b506104a36106eb3660046155a3565b60196020526000908152604090205481565b34801561070957600080fd5b506104a360075481565b34801561071f57600080fd5b5061073361072e3660046156d0565b6115f9565b6040805193845260208401929092529082015260600161046d565b34801561075a57600080fd5b506104a3610769366004615716565b611639565b34801561077a57600080fd5b506104a361078936600461566a565b6119f5565b34801561079a57600080fd5b5061057a6107a93660046156d0565b611ab1565b3480156107ba57600080fd5b506104f26107c936600461566a565b611afa565b3480156107da57600080fd5b506104a36107e93660046155a3565b611b24565b3480156107fa57600080fd5b5061057a611ba4565b34801561080f57600080fd5b506104a361081e366004615757565b611d20565b34801561082f57600080fd5b5061057a611ed1565b34801561084457600080fd5b5061068d611f3f565b34801561085957600080fd5b506104f261086836600461566a565b611f4e565b34801561087957600080fd5b506104616108883660046155a3565b60176020526000908152604090205460ff1681565b3480156108a957600080fd5b506104616108b83660046155a3565b60166020526000908152604090205460ff1681565b3480156108d957600080fd5b506104f26108e836600461566a565b611f5e565b3480156108f957600080fd5b506104a36109083660046157bb565b611f6e565b34801561091957600080fd5b506005546104f2906001600160a01b031681565b34801561093957600080fd5b5060155461046190600160b01b900460ff1681565b34801561095a57600080fd5b5061057a6109693660046157e7565b6120c9565b34801561097a57600080fd5b506109a86109893660046155a3565b600a602052600090815260409020805460019091015460ff9091169082565b60408051921515835260208301919091520161046d565b3480156109cb57600080fd5b506104616109da3660046157e7565b6001600160a01b038082166000908152600a60209081526040808320938616835260029093019052205460ff1692915050565b348015610a1957600080fd5b50610461610a283660046155a3565b612142565b348015610a3957600080fd5b506104a3610a48366004615820565b6122ac565b348015610a5957600080fd5b50610461610a683660046155a3565b60126020526000908152604090205460ff1681565b348015610a8957600080fd5b506104a3610a9836600461583d565b61232a565b348015610aa957600080fd5b5061068d610ab83660046155a3565b612420565b348015610ac957600080fd5b5060155461046190600160b81b900460ff1681565b348015610aea57600080fd5b5061068d612496565b348015610aff57600080fd5b506011546104619060ff1681565b348015610b1957600080fd5b506104a3610b283660046155a3565b6124f6565b348015610b3957600080fd5b506003546104f2906001600160a01b031681565b348015610b5957600080fd5b506104a3610b68366004615619565b6126b9565b348015610b7957600080fd5b5061057a61273c565b348015610b8e57600080fd5b50610ba2610b9d366004615933565b612746565b60405161046d91906159c7565b348015610bbb57600080fd5b50610bcf610bca366004615716565b61280e565b6040805192835260208301919091520161046d565b348015610bf057600080fd5b506104f2610bff36600461566a565b612b3a565b348015610c1057600080fd5b506104a3610c1f366004615a44565b612b4a565b348015610c3057600080fd5b5061057a612df1565b348015610c4557600080fd5b5061068d612e9b565b348015610c5a57600080fd5b506104a3610c69366004615757565b612efb565b348015610c7a57600080fd5b506104f2610c8936600461566a565b613082565b348015610c9a57600080fd5b506104a3610ca9366004615820565b613092565b348015610cba57600080fd5b50610461610cc93660046155a3565b613105565b348015610cda57600080fd5b506104a3610ce9366004615716565b61318f565b348015610cfa57600080fd5b506104f2610d093660046157bb565b61351e565b348015610d1a57600080fd5b506004546104f2906001600160a01b031681565b348015610d3a57600080fd5b506018546104619060ff1681565b348015610d5457600080fd5b506104a3610d633660046157bb565b613556565b348015610d7457600080fd5b5060155461046190600160a81b900460ff1681565b348015610d9557600080fd5b506104a360065481565b348015610dab57600080fd5b506104a3610dba366004615716565b6136e0565b348015610dcb57600080fd5b506104a3610dda3660046155a3565b6136fd565b348015610deb57600080fd5b506001546104f2906001600160a01b031681565b6001600160e01b031981166000908152600080516020615e4a833981519152602081905260408220546001600160a01b031680610e835760405162461bcd60e51b815260206004820181905260248201527f4469616d6f6e643a2046756e6374696f6e20646f6573206e6f7420657869737460448201526064015b60405180910390fd5b9392505050565b604051633af9e66960e01b81526001600160a01b0384811660048301526000918491839190831690633af9e669906024016020604051808303816000875af1158015610eda573d6000803e3d6000fd5b505050506040513d601f19601f82011682018060405250810190610efe9190615ab0565b90506000806000610f1f8988610f15576000610f17565b865b600080613b60565b919450925090506000836014811115610f3a57610f3a615ac9565b14610f745760405162461bcd60e51b815260206004820152600a602482015269216c697175696469747960b01b6044820152606401610e7a565b8015610f8857600095505050505050610e83565b600087158015610fc257506001600160a01b03808a166000908152600a60209081526040808320938e16835260029093019052205460ff16155b15610fce575083610ff0565b610fd983878a613eb1565b905087158015610fe857508085105b15610ff05750835b6000866001600160a01b0316633b1d21a26040518163ffffffff1660e01b8152600401602060405180830381865afa158015611030573d6000803e3d6000fd5b505050506040513d601f19601f820116820180604052508101906110549190615ab0565b9050808211156110645780611066565b815b9b9a5050505050505050505050565b6000546001600160a01b0316331480156110ec5750806001600160a01b0316632f1069ba6040518163ffffffff1660e01b8152600401602060405180830381865afa1580156110c8573d6000803e3d6000fd5b505050506040513d601f19601f820116820180604052508101906110ec9190615adf565b806111d15750806001600160a01b031663f851a4406040518163ffffffff1660e01b8152600401602060405180830381865afa158015611130573d6000803e3d6000fd5b505050506040513d601f19601f820116820180604052508101906111549190615afc565b6001600160a01b0316336001600160a01b03161480156111d15750806001600160a01b0316630a755ec26040518163ffffffff1660e01b8152600401602060405180830381865afa1580156111ad573d6000803e3d6000fd5b505050506040513d601f19601f820116820180604052508101906111d19190615adf565b6112065760405162461bcd60e51b815260206004820152600660248201526510b0b236b4b760d11b6044820152606401610e7a565b6000816001600160a01b031663c1e803346040518163ffffffff1660e01b81526004016020604051808303816000875af1158015611248573d6000803e3d6000fd5b505050506040513d601f19601f8201168201806040525081019061126c9190615ab0565b905080156112bc5760405162461bcd60e51b815260206004820181905260248201527f21756e617574686f72697a6564202d206e6f742070656e64696e6720696d706c6044820152606401610e7a565b816001600160a01b0316635d72de626040518163ffffffff1660e01b8152600401600060405180830381600087803b1580156112f757600080fd5b505af115801561130b573d6000803e3d6000fd5b505050505050565b6001600160a01b0384166000908152600a602052604081205460ff1661133d5760085b905061134d565b6113478584613fcc565b60005b90505b949350505050565b600061135f614074565b6113755761136f600160076140c6565b92915050565b6040805160208082018352848252825190810190925266b1a2bc2ec500008083528151919291116113ac5761134d600560086140c6565b6040805160208101909152670c7d713b49da0000808252835111156113e0576113d7600560086140c6565b95945050505050565b600680549086905560408051828152602081018890527f3b9670cf975d26958e754b57098eaa2ac914d8d2a31b83257997b9f346110fd991015b60405180910390a160005b9695505050505050565b6060600d80548060200260200160405190810160405280929190818152602001828054801561148757602002820191906000526020600020905b81546001600160a01b03168152600190910190602001808311611469575b5050505050905090565b601d54601b546060916000916114a79190615b2f565b67ffffffffffffffff8111156114bf576114bf6158c8565b6040519080825280602002602001820160405280156114e8578160200160208202803683370190505b50905060005b601b5460ff8216101561156e57601b8160ff168154811061151157611511615b47565b9060005260206000200160009054906101000a90046001600160a01b0316828260ff168151811061154457611544615b47565b6001600160a01b03909216602092830291909101909101528061156681615b5d565b9150506114ee565b60005b601d5460ff821610156115f157601d8160ff168154811061159457611594615b47565b6000918252602090912001546001600160a01b0316836115b48385615b7d565b60ff16815181106115c7576115c7615b47565b6001600160a01b0390921660209283029190910190910152806115e981615b5d565b915050611571565b509092915050565b60008060008060008061160e8a8a8a8a613b60565b92509250925082601481111561162657611626615ac9565b95509093509150505b9450945094915050565b6001600160a01b03831660009081526016602052604081205460ff16156116915760405162461bcd60e51b815260206004820152600c60248201526b085b5a5b9d0e9c185d5cd95960a21b6044820152606401610e7a565b6001600160a01b0384166000908152600a602052604090205460ff166116bb5760085b9050610e83565b60115460ff1680156116e657506001600160a01b03831660009081526012602052604090205460ff16155b156116f25760116116b4565b6001600160a01b0384166000908152601a602052604090205480156119e0576000856001600160a01b0316633b1d21a26040518163ffffffff1660e01b8152600401602060405180830381865afa158015611751573d6000803e3d6000fd5b505050506040513d601f19601f820116820180604052508101906117759190615ab0565b90506000866001600160a01b03166347bd37186040518163ffffffff1660e01b8152600401602060405180830381865afa1580156117b7573d6000803e3d6000fd5b505050506040513d601f19601f820116820180604052508101906117db9190615ab0565b90506000876001600160a01b0316638f840ddd6040518163ffffffff1660e01b8152600401602060405180830381865afa15801561181d573d6000803e3d6000fd5b505050506040513d601f19601f820116820180604052508101906118419190615ab0565b90506000886001600160a01b031663dc028ab16040518163ffffffff1660e01b8152600401602060405180830381865afa158015611883573d6000803e3d6000fd5b505050506040513d601f19601f820116820180604052508101906118a79190615ab0565b90506000896001600160a01b03166361feacff6040518163ffffffff1660e01b8152600401602060405180830381865afa1580156118e9573d6000803e3d6000fd5b505050506040513d601f19601f8201168201806040525081019061190d9190615ab0565b905060008061192f878761192a611924898961413f565b8761413f565b614175565b9092509050600082600381111561194857611948615ac9565b1461195e57600a98505050505050505050610e83565b600061196a828c6141c7565b9093509050600083600381111561198357611983615ac9565b1461199a57600a9950505050505050505050610e83565b8881106119d75760405162461bcd60e51b815260206004820152600b60248201526a021737570706c79206361760ac1b6044820152606401610e7a565b50505050505050505b6119ea85856141f0565b600095945050505050565b60006119ff614074565b611a0f5761136f6001600d6140c6565b60408051602080820183528482528251908101909252670de0b6b3a764000080835281519192911015611a485761134d6007600e6140c6565b60408051602081019091526714d1120d7b16000080825283511115611a73576113d76007600e6140c6565b600780549086905560408051828152602081018890527faeba5a6c40a8ac138134bff1aaa65debf25971188a58804bad717f82f0ec1316910161141a565b80158015611abf5750600082115b15611af45760405162461bcd60e51b8152602060048201526005602482015264217a65726f60d81b6044820152606401610e7a565b50505050565b600b8181548110611b0a57600080fd5b6000918252602090912001546001600160a01b0316905081565b6000611b2e614074565b611b3e5761136f600160126140c6565b600580546001600160a01b038481166001600160a01b031983168117909355604080519190921680825260208201939093527fd52b2b9b7e9ee655fcb95d2e5b9e0c9f69e7ef2b8e9d2d0ea78402d576d22e22910160405180910390a160009392505050565b6003546001600160a01b03163314611bf05760405162461bcd60e51b815260206004820152600f60248201526e10b4b6b83632b6b2b73a30ba34b7b760891b6044820152606401610e7a565b611bf861273c565b6000611c02614292565b905060005b8151811015611c4457611c32828281518110611c2557611c25615b47565b6020026020010151614302565b80611c3c81615ba2565b915050611c07565b5060008054600354604051631978a0bf60e31b81526001600160a01b03918216600482015291169063cbc505f890602401600060405180830381865afa158015611c92573d6000803e3d6000fd5b505050506040513d6000823e601f3d908101601f19168201604052611cba9190810190615bbd565b905060005b8151811015611cfc57611cea828281518110611cdd57611cdd615b47565b6020026020010151614432565b80611cf481615ba2565b915050611cbf565b50601c54610100900460ff16611d1c57601c805461ffff19166101011790555b5050565b6001600160a01b0385166000908152600a602052604081205460ff161580611d6157506001600160a01b0385166000908152600a602052604090205460ff16155b15611d705760085b90506113d7565b6040516395dd919360e01b81526001600160a01b038481166004830152600091908816906395dd919390602401602060405180830381865afa158015611dba573d6000803e3d6000fd5b505050506040513d601f19601f82011682018060405250810190611dde9190615ab0565b9050611de987612142565b15611e335782811015611e2e5760405162461bcd60e51b815260206004820152600d60248201526c21626f72726f773e726570617960981b6044820152606401610e7a565b611ec4565b600080611e44866000806000613b60565b91935090915060009050826014811115611e6057611e60615ac9565b14611e8157816014811115611e7757611e77615ac9565b93505050506113d7565b80611e8d576003611e77565b6000611ea960405180602001604052806006548152508561452a565b905080861115611ec05760109450505050506113d7565b5050505b5060009695505050505050565b336000908152600a602052604090205460ff16611f305760405162461bcd60e51b815260206004820152601f60248201527f21436f6d7074726f6c6c65723a5f61667465724e6f6e5265656e7472616e74006044820152606401610e7a565b601c805460ff19166001179055565b6060611f49614292565b905090565b601d8181548110611b0a57600080fd5b600d8181548110611b0a57600080fd5b600080546040805163fdb25fb160e01b8152905183926001600160a01b03169163fdb25fb19160048083019260209291908290030181865afa158015611fb8573d6000803e3d6000fd5b505050506040513d601f19601f82011682018060405250810190611fdc9190615ab0565b905080156120bf5760055460405163fc57d4df60e01b81526001600160a01b038681166004830152600092169063fc57d4df90602401602060405180830381865afa15801561202f573d6000803e3d6000fd5b505050506040513d601f19601f820116820180604052508101906120539190615ab0565b90508061206557600c9250505061136f565b60008061208060405180602001604052808581525087614542565b9092509050600082600381111561209957612099615ac9565b146120ac57600a5b94505050505061136f565b838110156120bb5760126120a1565b5050505b6000949350505050565b6000546001600160a01b0316331480156120ec5750600254600160a01b900460ff165b6121385760405162461bcd60e51b815260206004820152601f60248201527f21756e617574686f72697a6564202d206e6f2061646d696e20726967687473006044820152606401610e7a565b611d1c8282614594565b6001600160a01b0381166000908152600a602052604081206001015415801561218857506001600160a01b03821660009081526017602052604090205460ff1615156001145b801561136f575061229c61225e836001600160a01b031663173b99046040518163ffffffff1660e01b8152600401602060405180830381865afa1580156121d3573d6000803e3d6000fd5b505050506040513d601f19601f820116820180604052508101906121f79190615ab0565b846001600160a01b0316638d02d9a16040518163ffffffff1660e01b8152600401602060405180830381865afa158015612235573d6000803e3d6000fd5b505050506040513d601f19601f820116820180604052508101906122599190615ab0565b61413f565b836001600160a01b031663dbfe7c196040518163ffffffff1660e01b8152600401602060405180830381865afa158015612235573d6000803e3d6000fd5b670de0b6b3a76400001492915050565b60006122b6614074565b6122c65761136f600160136140c6565b60115460ff16151582151514156122de57600061136f565b6011805460ff19168315159081179091556040519081527f84c7d948374a180eddab35d27d2f7a94167a1ff4e79467f1e89c061984190a1e906020015b60405180910390a1600061136f565b6000612334614074565b61234457611336600160166140c6565b60028054600160a01b60ff60a01b198216811790925560008054604051638754e4fd60e01b81529390920460ff169290916001600160a01b031690638754e4fd906123959089908990600401615c4c565b6020604051808303816000875af11580156123b4573d6000803e3d6000fd5b505050506040513d601f19601f820116820180604052508101906123d89190615afc565b6002805460ff60a01b1916600160a01b85151502179055905060006123fc826145b5565b9050801561240a5780612414565b6124148286613556565b98975050505050505050565b6001600160a01b038116600090815260096020908152604080832080548251818502810185019093528083526060949383018282801561248957602002820191906000526020600020905b81546001600160a01b0316815260019091019060200180831161246b575b5093979650505050505050565b6060600b805480602002602001604051908101604052809291908181526020018280548015611487576020028201919060005260206000209081546001600160a01b03168152600190910190602001808311611469575050505050905090565b6000612500614074565b6125105761136f600160026140c6565b816001600160a01b031663abc6d72d6040518163ffffffff1660e01b81526004016020604051808303816000875af1158015612550573d6000803e3d6000fd5b505050506040513d601f19601f820116820180604052508101906125749190615adf565b6125b85760405162461bcd60e51b815260206004820152601560248201527410b4b9a932bbb0b93239a234b9ba3934b13aba37b960591b6044820152606401610e7a565b60005b601b5481101561263a57601b81815481106125d8576125d8615b47565b6000918252602090912001546001600160a01b03848116911614156126285760405162461bcd60e51b815260206004820152600660248201526508585919195960d21b6044820152606401610e7a565b8061263281615ba2565b9150506125bb565b50601b80546001810182556000919091527f3ad8aa4f87544323a9d1e5dd902f40c356527a7955687113db5f9a85ad579dc10180546001600160a01b0319166001600160a01b0384169081179091556040519081527f98ef1187fb6fd2bc85f8996489877eb2b5428f9e9bdfc068c9ad6c2ea82eacc79060200161231b565b601554600090600160b01b900460ff16156127095760405162461bcd60e51b815260206004820152601060248201526f085d1c985b9cd9995c8e9c185d5cd95960821b6044820152606401610e7a565b600061271686868561489f565b9050801561272557905061134d565b612730868686614957565b60009695505050505050565b612744614a02565b565b805160609060008167ffffffffffffffff811115612766576127666158c8565b60405190808252806020026020018201604052801561278f578160200160208202803683370190505b50905060005b828110156128065760008582815181106127b1576127b1615b47565b602002602001015190506127c58133614b0d565b60148111156127d6576127d6615ac9565b8383815181106127e8576127e8615b47565b602090810291909101015250806127fe81615ba2565b915050612795565b509392505050565b60055460405163fc57d4df60e01b81526001600160a01b038581166004830152600092839283929091169063fc57d4df90602401602060405180830381865afa15801561285f573d6000803e3d6000fd5b505050506040513d601f19601f820116820180604052508101906128839190615ab0565b60055460405163fc57d4df60e01b81526001600160a01b0388811660048301529293506000929091169063fc57d4df90602401602060405180830381865afa1580156128d3573d6000803e3d6000fd5b505050506040513d601f19601f820116820180604052508101906128f79190615ab0565b9050811580612904575080155b1561291857600c6000935093505050612b32565b60008690506000816001600160a01b031663182df0f56040518163ffffffff1660e01b8152600401602060405180830381865afa15801561295d573d6000803e3d6000fd5b505050506040513d601f19601f820116820180604052508101906129819190615ab0565b9050600061299b6040518060200160405280600081525090565b6040805160208101909152600081526040805160208101909152600081526000866001600160a01b0316636752e7026040518163ffffffff1660e01b8152600401602060405180830381865afa1580156129f9573d6000803e3d6000fd5b505050506040513d601f19601f82011682018060405250810190612a1d9190615ab0565b90506000876001600160a01b031663be99f1196040518163ffffffff1660e01b8152600401602060405180830381865afa158015612a5f573d6000803e3d6000fd5b505050506040513d601f19601f82011682018060405250810190612a839190615ab0565b90506000612ac6612ab26040518060200160405280600754815250604051806020016040528087815250614ca8565b604051806020016040528085815250614ca8565b9050612ae08160405180602001604052808e815250614cdd565b9550612b0860405180602001604052808c81525060405180602001604052808b815250614cdd565b9450612b148686614d1c565b9350612b20848f61452a565b60009d509b5050505050505050505050505b935093915050565b601b8181548110611b0a57600080fd5b6000612b54614074565b612b6457611336600160146140c6565b60005b84811015612de9576000868683818110612b8357612b83615b47565b9050602002016020810190612b9891906155a3565b9050848483818110612bac57612bac615b47565b9050602002016020810190612bc19190615820565b15612c79576001600160a01b03811660009081526012602052604090205460ff16612c74576001600160a01b0381166000818152601260205260408120805460ff19166001908117909155601380548083018255928190527f66de8ffda797e3de9c05e8fc57b3bf0ec28a930d40b0d285d93c06501cf6a09090920180546001600160a01b03191690931790925554612c5a9190615c7b565b6001600160a01b0382166000908152601460205260409020555b612dd6565b6001600160a01b03811660009081526012602052604090205460ff1615612dd65760138054612caa90600190615c7b565b81548110612cba57612cba615b47565b60009182526020808320909101546001600160a01b0384811684526014909252604090922054601380549290931692918110612cf857612cf8615b47565b9060005260206000200160006101000a8154816001600160a01b0302191690836001600160a01b031602179055506013805480612d3757612d37615c92565b60008281526020808220830160001990810180546001600160a01b03191690559092019092556001600160a01b038316825260149081905260408220546013805491939184908110612d8b57612d8b615b47565b60009182526020808320909101546001600160a01b039081168452838201949094526040928301822094909455918416825260148352808220829055601290925220805460ff191690555b5080612de181615ba2565b915050612b67565b50600061134a565b336000908152600a602052604090205460ff16612e505760405162461bcd60e51b815260206004820181905260248201527f21436f6d7074726f6c6c65723a5f6265666f72654e6f6e5265656e7472616e746044820152606401610e7a565b601c5460ff16612e8f5760405162461bcd60e51b815260206004820152600a602482015269085c99595b9d195c995960b21b6044820152606401610e7a565b601c805460ff19169055565b60606013805480602002602001604051908101604052809291908181526020018280548015611487576020028201919060005260206000209081546001600160a01b03168152600190910190602001808311611469575050505050905090565b601554600090600160b81b900460ff1615612f485760405162461bcd60e51b815260206004820152600d60248201526c085cd95a5e994e9c185d5cd959609a1b6044820152606401610e7a565b6001600160a01b0386166000908152600a602052604090205460ff161580612f8957506001600160a01b0385166000908152600a602052604090205460ff16155b15612f95576008611d69565b846001600160a01b0316635fe3b5676040518163ffffffff1660e01b8152600401602060405180830381865afa158015612fd3573d6000803e3d6000fd5b505050506040513d601f19601f82011682018060405250810190612ff79190615afc565b6001600160a01b0316866001600160a01b0316635fe3b5676040518163ffffffff1660e01b8152600401602060405180830381865afa15801561303e573d6000803e3d6000fd5b505050506040513d601f19601f820116820180604052508101906130629190615afc565b6001600160a01b031614613077576002611d69565b612730868486614957565b60138181548110611b0a57600080fd5b600061309c614074565b6130ac5761136f600160066140c6565b60185460ff16151582151514156130c457600061136f565b6018805460ff19168315159081179091556040519081527faa40ee94af55250363b91641a0a615c47690148901505f89b01dafae03fff2819060200161231b565b6000805b600b54811015613186576000600b828154811061312857613128615b47565b60009182526020808320909101546001600160a01b03908116808452600a83526040808520928916855260029092019092529091205490915060ff1615613173575060019392505050565b508061317e81615ba2565b915050613109565b50600092915050565b6001600160a01b03831660009081526017602052604081205460ff16156131e95760405162461bcd60e51b815260206004820152600e60248201526d08589bdc9c9bddce9c185d5cd95960921b6044820152606401610e7a565b6001600160a01b0384166000908152600a602052604090205460ff166132105760086116b4565b6001600160a01b038085166000908152600a60209081526040808320938716835260029093019052205460ff166132ff57336001600160a01b038516146132835760405162461bcd60e51b815260206004820152600760248201526610b1ba37b5b2b760c91b6044820152606401610e7a565b600061328f3385614b0d565b905060008160148111156132a5576132a5615ac9565b146132c4578060148111156132bc576132bc615ac9565b915050610e83565b6001600160a01b038086166000908152600a60209081526040808320938816835260029093019052205460ff166132fd576132fd615ca8565b505b60055460405163fc57d4df60e01b81526001600160a01b0386811660048301529091169063fc57d4df90602401602060405180830381865afa158015613349573d6000803e3d6000fd5b505050506040513d601f19601f8201168201806040525081019061336d9190615ab0565b61337857600c6116b4565b60115460ff1680156133a357506001600160a01b03831660009081526012602052604090205460ff16155b156133af5760116116b4565b6001600160a01b03841660009081526019602052604090205480156134ad576000856001600160a01b03166347bd37186040518163ffffffff1660e01b8152600401602060405180830381865afa15801561340e573d6000803e3d6000fd5b505050506040513d601f19601f820116820180604052508101906134329190615ab0565b905060008061344183876141c7565b9092509050600082600381111561345a5761345a615ac9565b1461346c57600a945050505050610e83565b8381106134a95760405162461bcd60e51b815260206004820152600b60248201526a021626f72726f773a6361760ac1b6044820152606401610e7a565b5050505b6134b78585613fcc565b6000806134c78688600088613b60565b919350909150600090508260148111156134e3576134e3615ac9565b14613504578160148111156134fa576134fa615ac9565b9350505050610e83565b80156135115760046134fa565b6000979650505050505050565b6009602052816000526040600020818154811061353a57600080fd5b6000918252602090912001546001600160a01b03169150829050565b6000613560614074565b61357757613570600160096140c6565b905061136f565b6001600160a01b0383166000908152600a60205260409020805460ff166135ac576135a46008600a6140c6565b91505061136f565b60408051602080820183528582528251908101909252670c7d713b49da00008252906135da81835190511090565b156135f5576135eb6006600b6140c6565b935050505061136f565b841580159061366f575060055460405163fc57d4df60e01b81526001600160a01b0388811660048301529091169063fc57d4df90602401602060405180830381865afa158015613649573d6000803e3d6000fd5b505050506040513d601f19601f8201168201806040525081019061366d9190615ab0565b155b1561367f576135eb600c806140c6565b60018301805490869055604080516001600160a01b0389168152602081018390529081018790527f70483e6592cd5182d45ac970e05bc62cdcc90e9d8ef2c2dbe686cf383bcd7fc59060600160405180910390a16000979650505050505050565b6000806136ee85858561489f565b905080156119e0579050610e83565b6040516361bfb47160e11b815233600482015260009082908290819081906001600160a01b0385169063c37f68e290602401608060405180830381865afa15801561374c573d6000803e3d6000fd5b505050506040513d601f19601f820116820180604052508101906137709190615cbe565b50925092509250826000146137b55760405162461bcd60e51b815260206004820152600b60248201526a08595e1a5d13585c9ad95d60aa1b6044820152606401610e7a565b80156137c757611425600b60036140c6565b60006137d487338561489f565b905080156137f4576137e9600d600483614d56565b979650505050505050565b6001600160a01b0385166000908152600a60209081526040808320338452600281019092529091205460ff1661383257600098975050505050505050565b3360009081526002820160209081526040808320805460ff1916905560098252808320805482518185028101850190935280835291929091908301828280156138a457602002820191906000526020600020905b81546001600160a01b03168152600190910190602001808311613886575b5050835193945083925060009150505b8281101561390957896001600160a01b03168482815181106138d8576138d8615b47565b60200260200101516001600160a01b031614156138f757809150613909565b8061390181615ba2565b9150506138b4565b5081811061391957613919615ca8565b3360009081526009602052604090208054819061393890600190615c7b565b8154811061394857613948615b47565b9060005260206000200160009054906101000a90046001600160a01b031681838154811061397857613978615b47565b9060005260206000200160006101000a8154816001600160a01b0302191690836001600160a01b03160217905550808054806139b6576139b6615c92565b600082815260209020810160001990810180546001600160a01b03191690550190558054613b0d57600d80546139ee90600190615c7b565b815481106139fe576139fe615b47565b6000918252602080832090910154338352600e909152604090912054600d80546001600160a01b03909316929091908110613a3b57613a3b615b47565b9060005260206000200160006101000a8154816001600160a01b0302191690836001600160a01b03160217905550600d805480613a7a57613a7a615c92565b60008281526020808220830160001990810180546001600160a01b0319169055909201909255338252600e908190526040822054600d805491939184908110613ac557613ac5615b47565b60009182526020808320909101546001600160a01b03168352828101939093526040918201812093909355338352600e8252808320839055600c9091529020805460ff191690555b604080516001600160a01b038c1681523360208201527fe699a64c18b07ac5b7301aa273f36a2287239eb9501d81950672794afba29a0d910160405180910390a160009c9b505050505050505050505050565b6000806000613b6d6154e9565b6001600160a01b038816600090815260096020908152604080832080548251818502810185019093528083528493830182828015613bd457602002820191906000526020600020905b81546001600160a01b03168152600190910190602001808311613bb6575b5050505050905060005b8151811015613e5b576000828281518110613bfb57613bfb615b47565b60209081029190910101516040516361bfb47160e11b81526001600160a01b038e811660048301529192509082169063c37f68e290602401608060405180830381865afa158015613c50573d6000803e3d6000fd5b505050506040513d601f19601f82011682018060405250810190613c749190615cbe565b60808901526060880152604087015293508315613ca057600e600080975097509750505050505061162f565b60408051602080820183526001600160a01b038481166000818152600a845285902060010154845260c08a0193909352835191820184526080890151825260e0890191909152600554925163fc57d4df60e01b81526004810192909252919091169063fc57d4df90602401602060405180830381865afa158015613d28573d6000803e3d6000fd5b505050506040513d601f19601f82011682018060405250810190613d4c9190615ab0565b60a08601819052613d6c57600c600080975097509750505050505061162f565b604080516020810190915260a0860151815261010086015260c085015160e0860151613da691613d9b91614cdd565b866101000151614cdd565b6101208601526001600160a01b03818116908c16141580613dc5575088155b15613de557613de285610120015186604001518760000151614dce565b85525b613dfd85610100015186606001518760200151614dce565b60208601526001600160a01b03818116908c161415613e4857613e2a8561012001518b8760200151614dce565b60208601819052610100860151613e42918b90614dce565b60208601525b5080613e5381615ba2565b915050613bde565b50602083015183511115613e8c5760208301518351600091613e7c91615c7b565b600095509550955050505061162f565b60008084600001518560200151613ea39190615c7b565b95509550955050505061162f565b6000808411613ec257506000610e83565b60055460405163fc57d4df60e01b81526001600160a01b038581166004830152600092169063fc57d4df90602401602060405180830381865afa158015613f0d573d6000803e3d6000fd5b505050506040513d601f19601f82011682018060405250810190613f319190615ab0565b905060008111613f6d5760405162461bcd60e51b8152602060048201526007602482015266216f7261636c6560c81b6044820152606401610e7a565b82613faf576001600160a01b0384166000908152600a6020526040902060010154670de0b6b3a7640000613fa18383615cf4565b613fab9190615d13565b9150505b80613fc286670de0b6b3a7640000615cf4565b6113d79190615d13565b60005b601b5481101561406f57601b8181548110613fec57613fec615b47565b600091825260209091200154604051631cdc2c5d60e31b81526001600160a01b03858116600483015284811660248301529091169063e6e162e890604401600060405180830381600087803b15801561404457600080fd5b505af1158015614058573d6000803e3d6000fd5b50505050808061406790615ba2565b915050613fcf565b505050565b6001546000906001600160a01b03163314801561409a5750600254600160a81b900460ff165b80611f4957506000546001600160a01b031633148015611f49575050600254600160a01b900460ff1690565b60007f45b96fe442630264581b197e84bbada861235052c5a1aadfff9ea4e40a969aa08360148111156140fb576140fb615ac9565b83601a81111561410d5761410d615ac9565b60408051928352602083019190915260009082015260600160405180910390a1826014811115610e8357610e83615ac9565b6000610e838383604051806040016040528060118152602001706164646974696f6e206f766572666c6f7760781b815250614def565b60008060008061418587876141c7565b9092509050600082600381111561419e5761419e615ac9565b146141af5750915060009050612b32565b6141b98186614e29565b935093505050935093915050565b6000808383018481106141df576000925090506141e9565b6002600092509250505b9250929050565b60005b601b5481101561406f57601b818154811061421057614210615b47565b60009182526020909120015460405162e48b0f60e51b81526001600160a01b038581166004830152848116602483015290911690631c9161e090604401600060405180830381600087803b15801561426757600080fd5b505af115801561427b573d6000803e3d6000fd5b50505050808061428a90615ba2565b9150506141f3565b6060600080516020615e4a833981519152600201805480602002602001604051908101604052809291908181526020018280548015611487576020028201919060005260206000209081546001600160a01b03168152600190910190602001808311611469575050505050905090565b600080516020615e4a83398151915261431a82614e54565b60005b600282015460ff8216101561406f57826001600160a01b0316826002018260ff168154811061434e5761434e615b47565b6000918252602090912001546001600160a01b031614156144205760028201805461437b90600190615c7b565b8154811061438b5761438b615b47565b6000918252602090912001546002830180546001600160a01b039092169160ff84169081106143bc576143bc615b47565b9060005260206000200160006101000a8154816001600160a01b0302191690836001600160a01b03160217905550816002018054806143fd576143fd615c92565b600082815260209020810160001990810180546001600160a01b03191690550190555b8061442a81615b5d565b91505061431d565b600080516020615e4a83398151915260005b600282015460ff821610156144ea57826001600160a01b0316826002018260ff168154811061447557614475615b47565b6000918252602090912001546001600160a01b031614156144d85760405162461bcd60e51b815260206004820152601760248201527f657874656e73696f6e20616c72656164792061646465640000000000000000006044820152606401610e7a565b806144e281615b5d565b915050614444565b506144f4826150e1565b6002018054600181018255600091825260209091200180546001600160a01b0319166001600160a01b0392909216919091179055565b60008061453784846152fa565b905061134d81615322565b600080600080614552868661533a565b9092509050600082600381111561456b5761456b615ac9565b1461457c57509150600090506141e9565b600061458782615322565b9350935050509250929050565b6001600160a01b038116156145ac576145ac81614302565b611d1c82614432565b60006145bf614074565b6145cf5761136f600160166140c6565b6001600160a01b0382166000908152600a602052604090205460ff16156145fc5761136f600960156140c6565b816001600160a01b031663fe9c44ae6040518163ffffffff1660e01b81526004016020604051808303816000875af115801561463c573d6000803e3d6000fd5b505050506040513d601f19601f820116820180604052508101906146609190615adf565b61469f5760405162461bcd60e51b815260206004820152601060248201526f10b6b0b935b2ba1d34b9b1ba37b5b2b760811b6044820152606401610e7a565b306001600160a01b0316826001600160a01b0316635fe3b5676040518163ffffffff1660e01b8152600401602060405180830381865afa1580156146e7573d6000803e3d6000fd5b505050506040513d601f19601f8201168201806040525081019061470b9190615afc565b6001600160a01b0316146147505760405162461bcd60e51b815260206004820152600c60248201526b10b1b7b6b83a3937b63632b960a11b6044820152606401610e7a565b6000826001600160a01b0316636f307dc36040518163ffffffff1660e01b8152600401602060405180830381865afa158015614790573d6000803e3d6000fd5b505050506040513d601f19601f820116820180604052508101906147b49190615afc565b6001600160a01b0380821660009081526010602052604090205491925016156147e357610e83600960156140c6565b6001600160a01b038381166000818152600a60209081526040808320805460ff191660019081178255808201859055600b805491820190557f0175b7a638427703f0dbe7bb9bbf987a2551717b34e79f33b5b1008d1fa01db90180546001600160a01b0319908116871790915595871684526010835292819020805490951684179094559251918252917fcf583bb0c569eb967f806b11601c4cb93c10310485c67add5f8362c2f212321f910160405180910390a1600061134d565b6001600160a01b0383166000908152600a602052604081205460ff166148c65760086116b4565b6001600160a01b038085166000908152600a60209081526040808320938716835260029093019052205460ff166148fe5760006116b4565b60008061490e8587866000613b60565b9193509091506000905082601481111561492a5761492a615ac9565b1461494a5781601481111561494157614941615ac9565b92505050610e83565b8015612730576004614941565b60005b601b54811015611af457601b818154811061497757614977615b47565b600091825260209091200154604051634e081c9560e01b81526001600160a01b0386811660048301528581166024830152848116604483015290911690634e081c9590606401600060405180830381600087803b1580156149d757600080fd5b505af11580156149eb573d6000803e3d6000fd5b5050505080806149fa90615ba2565b91505061495a565b600080516020615e4a83398151915260005b6001820154811015611d1c576000826001018281548110614a3757614a37615b47565b6000918252602080832060088304015460079092166004026101000a90910460e01b6001600160e01b0319811683529085905260408220549092506001600160a01b031690805b6002860154811015614adf57826001600160a01b0316866002018281548110614aa957614aa9615b47565b6000918252602090912001546001600160a01b03161415614acd5760019150614adf565b80614ad781615ba2565b915050614a7e565b5080614af757614aee82614302565b614af782614432565b5050508080614b0590615ba2565b915050614a14565b6001600160a01b0382166000908152600a60205260408120805460ff16614b3857600891505061136f565b6001600160a01b038316600090815260028201602052604090205460ff16151560011415614b6a57600091505061136f565b6001600160a01b03838116600081815260028401602090815260408083208054600160ff199091168117909155600983528184208054918201815584528284200180546001600160a01b031916958a1695909517909455918152600c909152205460ff16614c5b57600d8054600180820183557fd7b6990105719101dabeb77144f2a3385c8033acd3af97e9423a695e81ad1eb590910180546001600160a01b0319166001600160a01b0387169081179091556000908152600c60205260409020805460ff1916821790559054614c419190615c7b565b6001600160a01b0384166000908152600e60205260409020555b604080516001600160a01b038087168252851660208201527f3ab23ab0d51cccc0c3085aec51f99228625aa1a922b3a8ca89a26b0f2027a1a5910160405180910390a15060009392505050565b6040805160208101909152600081526040518060200160405280614cd48560000151856000015161413f565b90529392505050565b6040805160208101909152600081526040518060200160405280670de0b6b3a7640000614d12866000015186600001516153b6565b614cd49190615d13565b6040805160208101909152600081526040518060200160405280614cd4614d4f8660000151670de0b6b3a76400006153b6565b85516153f8565b60007f45b96fe442630264581b197e84bbada861235052c5a1aadfff9ea4e40a969aa0846014811115614d8b57614d8b615ac9565b84601a811115614d9d57614d9d615ac9565b604080519283526020830191909152810184905260600160405180910390a183601481111561134d5761134d615ac9565b600080614ddb85856152fa565b90506113d7614de982615322565b8461413f565b600080614dfc8486615b2f565b90508285821015614e205760405162461bcd60e51b8152600401610e7a9190615d35565b50949350505050565b600080838311614e48576000614e3f8486615c7b565b915091506141e9565b506003905060006141e9565b6000816001600160a01b03166389f8132e6040518163ffffffff1660e01b8152600401600060405180830381865afa158015614e94573d6000803e3d6000fd5b505050506040513d6000823e601f3d908101601f19168201604052614ebc9190810190615d8a565b9050600080516020615e4a83398151915260005b82518161ffff161015611af4576000838261ffff1681518110614ef557614ef5615b47565b6020908102919091018101516001600160e01b031981166000908152918590526040909120549091506001600160a01b03868116911614614f3857614f38615ca8565b6001600160e01b0319811660009081526020849052604090205460018085018054600160a01b90930461ffff16929091614f7191615c7b565b81548110614f8157614f81615b47565b90600052602060002090600891828204019190066004029054906101000a900460e01b846001018261ffff1681548110614fbd57614fbd615b47565b90600052602060002090600891828204019190066004026101000a81548163ffffffff021916908360e01c021790555080846000016000866001018461ffff168154811061500d5761500d615b47565b6000918252602080832060088304015460079092166004026101000a90910460e01b6001600160e01b03191683528201929092526040019020805461ffff60a01b1916600160a01b61ffff93909316929092029190911790556001840180548061507957615079615c92565b60008281526020808220600860001990940193840401805463ffffffff600460078716026101000a0219169055919092556001600160e01b0319909316815291849052506040902080546001600160b01b0319169055806150d981615e27565b915050614ed0565b6000816001600160a01b03166389f8132e6040518163ffffffff1660e01b8152600401600060405180830381865afa158015615121573d6000803e3d6000fd5b505050506040513d6000823e601f3d908101601f191682016040526151499190810190615d8a565b7fc8fcad8db84d3cc18b4c41d551ea0ee66dd599cde068d998e57d5e09332c131d54909150600080516020615e4a8339815191529060005b83518110156152f357600084828151811061519e5761519e615b47565b6020908102919091018101516001600160e01b031981166000908152918690526040909120549091506001600160a01b031680156152325760405162461bcd60e51b815260206004820152602b60248201527f43616e6e6f7441646446756e6374696f6e546f4469616d6f6e6454686174416c60448201526a726561647945786973747360a81b6064820152608401610e7a565b6040805180820182526001600160a01b03808a16825261ffff80881660208085019182526001600160e01b0319881660009081528b8252958620945185549251909316600160a01b026001600160b01b0319909216929093169190911717909155600180880180549182018155835291206008820401805460e085901c60046007909416939093026101000a92830263ffffffff9093021916919091179055836152db81615e27565b945050505080806152eb90615ba2565b915050615181565b5050505050565b6040805160208101909152600081526040518060200160405280614cd48560000151856153b6565b805160009061136f90670de0b6b3a764000090615d13565b60006153526040518060200160405280600081525090565b60008061536386600001518661542b565b9092509050600082600381111561537c5761537c615ac9565b1461539b575060408051602081019091526000815290925090506141e9565b60408051602081019091529081526000969095509350505050565b6000610e8383836040518060400160405280601781526020017f6d756c7469706c69636174696f6e206f766572666c6f7700000000000000000081525061546a565b6000610e8383836040518060400160405280600e81526020016d646976696465206279207a65726f60901b8152506154bd565b6000808361543e575060009050806141e9565b8383028361544c8683615d13565b1461545f576002600092509250506141e9565b6000925090506141e9565b6000831580615477575082155b1561548457506000610e83565b60006154908486615cf4565b90508361549d8683615d13565b148390614e205760405162461bcd60e51b8152600401610e7a9190615d35565b600081836154de5760405162461bcd60e51b8152600401610e7a9190615d35565b5061134d8385615d13565b6040518061014001604052806000815260200160008152602001600081526020016000815260200160008152602001600081526020016155356040518060200160405280600081525090565b81526020016155506040518060200160405280600081525090565b815260200161556b6040518060200160405280600081525090565b81526020016155866040518060200160405280600081525090565b905290565b6001600160a01b03811681146155a057600080fd5b50565b6000602082840312156155b557600080fd5b8135610e838161558b565b80151581146155a057600080fd5b6000806000606084860312156155e357600080fd5b83356155ee8161558b565b925060208401356155fe8161558b565b9150604084013561560e816155c0565b809150509250925092565b6000806000806080858703121561562f57600080fd5b843561563a8161558b565b9350602085013561564a8161558b565b9250604085013561565a8161558b565b9396929550929360600135925050565b60006020828403121561567c57600080fd5b5035919050565b6020808252825182820181905260009190848201906040850190845b818110156156c45783516001600160a01b03168352928401929184019160010161569f565b50909695505050505050565b600080600080608085870312156156e657600080fd5b84356156f18161558b565b935060208501356157018161558b565b93969395505050506040820135916060013590565b60008060006060848603121561572b57600080fd5b83356157368161558b565b925060208401356157468161558b565b929592945050506040919091013590565b600080600080600060a0868803121561576f57600080fd5b853561577a8161558b565b9450602086013561578a8161558b565b9350604086013561579a8161558b565b925060608601356157aa8161558b565b949793965091946080013592915050565b600080604083850312156157ce57600080fd5b82356157d98161558b565b946020939093013593505050565b600080604083850312156157fa57600080fd5b82356158058161558b565b915060208301356158158161558b565b809150509250929050565b60006020828403121561583257600080fd5b8135610e83816155c0565b6000806000806060858703121561585357600080fd5b843561585e816155c0565b9350602085013567ffffffffffffffff8082111561587b57600080fd5b818701915087601f83011261588f57600080fd5b81358181111561589e57600080fd5b8860208285010111156158b057600080fd5b95986020929092019750949560400135945092505050565b634e487b7160e01b600052604160045260246000fd5b604051601f8201601f1916810167ffffffffffffffff81118282101715615907576159076158c8565b604052919050565b600067ffffffffffffffff821115615929576159296158c8565b5060051b60200190565b6000602080838503121561594657600080fd5b823567ffffffffffffffff81111561595d57600080fd5b8301601f8101851361596e57600080fd5b803561598161597c8261590f565b6158de565b81815260059190911b820183019083810190878311156159a057600080fd5b928401925b828410156137e95783356159b88161558b565b825292840192908401906159a5565b6020808252825182820181905260009190848201906040850190845b818110156156c4578351835292840192918401916001016159e3565b60008083601f840112615a1157600080fd5b50813567ffffffffffffffff811115615a2957600080fd5b6020830191508360208260051b85010111156141e957600080fd5b60008060008060408587031215615a5a57600080fd5b843567ffffffffffffffff80821115615a7257600080fd5b615a7e888389016159ff565b90965094506020870135915080821115615a9757600080fd5b50615aa4878288016159ff565b95989497509550505050565b600060208284031215615ac257600080fd5b5051919050565b634e487b7160e01b600052602160045260246000fd5b600060208284031215615af157600080fd5b8151610e83816155c0565b600060208284031215615b0e57600080fd5b8151610e838161558b565b634e487b7160e01b600052601160045260246000fd5b60008219821115615b4257615b42615b19565b500190565b634e487b7160e01b600052603260045260246000fd5b600060ff821660ff811415615b7457615b74615b19565b60010192915050565b600060ff821660ff84168060ff03821115615b9a57615b9a615b19565b019392505050565b6000600019821415615bb657615bb6615b19565b5060010190565b60006020808385031215615bd057600080fd5b825167ffffffffffffffff811115615be757600080fd5b8301601f81018513615bf857600080fd5b8051615c0661597c8261590f565b81815260059190911b82018301908381019087831115615c2557600080fd5b928401925b828410156137e9578351615c3d8161558b565b82529284019290840190615c2a565b60208152816020820152818360408301376000818301604090810191909152601f909201601f19160101919050565b600082821015615c8d57615c8d615b19565b500390565b634e487b7160e01b600052603160045260246000fd5b634e487b7160e01b600052600160045260246000fd5b60008060008060808587031215615cd457600080fd5b505082516020840151604085015160609095015191969095509092509050565b6000816000190483118215151615615d0e57615d0e615b19565b500290565b600082615d3057634e487b7160e01b600052601260045260246000fd5b500490565b600060208083528351808285015260005b81811015615d6257858101830151858201604001528201615d46565b81811115615d74576000604083870101525b50601f01601f1916929092016040019392505050565b60006020808385031215615d9d57600080fd5b825167ffffffffffffffff811115615db457600080fd5b8301601f81018513615dc557600080fd5b8051615dd361597c8261590f565b81815260059190911b82018301908381019087831115615df257600080fd5b928401925b828410156137e95783516001600160e01b031981168114615e185760008081fd5b82529284019290840190615df7565b600061ffff80831681811415615e3f57615e3f615b19565b600101939250505056fec8fcad8db84d3cc18b4c41d551ea0ee66dd599cde068d998e57d5e09332c131ca164736f6c634300080a000a",
    "linkReferences": {}
  },
  "methodIdentifiers": {
    "_addRewardsDistributor(address)": "b9b5b153",
    "_afterNonReentrant()": "632e5142",
    "_become(address)": "1d504dc6",
    "_becomeImplementation()": "5d72de62",
    "_beforeNonReentrant()": "c90c20b1",
    "_borrowGuardianPaused()": "e6653f3d",
    "_deployMarket(bool,bytes,uint256)": "aba35b98",
    "_fixStorage()": "befbd608",
    "_listExtensions()": "6333d001",
    "_mintGuardianPaused()": "3c94786f",
    "_registerExtension(address,address)": "89cd9855",
    "_setCloseFactor(uint256)": "317b0b77",
    "_setCollateralFactor(address,uint256)": "e4028eee",
    "_setLiquidationIncentive(uint256)": "4fd42e17",
    "_setPriceOracle(address)": "55ee1fe1",
    "_setWhitelistEnforcement(bool)": "952adf5a",
    "_setWhitelistStatuses(address[],bool[])": "c8c9c975",
    "_toggleAutoImplementations(bool)": "d5333166",
    "accountAssets(address,uint256)": "dce15449",
    "admin()": "f851a440",
    "adminHasRights()": "0a755ec2",
    "allBorrowers(uint256)": "7515bafa",
    "allMarkets(uint256)": "52d84d1e",
    "autoImplementation()": "dd5cd22c",
    "borrowAllowed(address,address,uint256)": "da3d454c",
    "borrowCapGuardian()": "21af4569",
    "borrowCaps(address)": "4a584432",
    "borrowGuardianPaused(address)": "6d154ea5",
    "borrowWithinLimits(address,uint256)": "779b2294",
    "cTokensByUnderlying(address)": "31ff47fa",
    "checkMembership(address,address)": "929fe9a1",
    "closeFactorMantissa()": "e8755446",
    "comptrollerImplementation()": "bb82aa5e",
    "enforceWhitelist()": "b0957210",
    "enterMarkets(address[])": "c2998238",
    "exitMarket(address)": "ede4edd0",
    "fuseAdmin()": "15761d51",
    "fuseAdminHasRights()": "2f1069ba",
    "getAllBorrowers()": "32abcdbe",
    "getAllMarkets()": "b0772d0b",
    "getAssetsIn(address)": "abfceffc",
    "getHypotheticalAccountLiquidity(address,address,uint256,uint256)": "4e79238f",
    "getMaxRedeemOrBorrow(address,address,bool)": "1976828e",
    "getRewardsDistributors()": "3605b51b",
    "getWhitelist()": "d01f63f5",
    "isComptroller()": "007e3dd2",
    "isDeprecated(address)": "94543c15",
    "isUserOfPool(address)": "d9e0ea6b",
    "liquidateBorrowAllowed(address,address,address,address,uint256)": "5fc7e71e",
    "liquidateCalculateSeizeTokens(address,address,uint256)": "c488847b",
    "liquidationIncentiveMantissa()": "4ada90af",
    "markets(address)": "8e8f294b",
    "mintAllowed(address,address,uint256)": "4ef4c3e1",
    "mintGuardianPaused(address)": "731f0c2b",
    "nonAccruingRewardsDistributors(uint256)": "6bd02b8a",
    "oracle()": "7dc0d1d0",
    "pauseGuardian()": "24a3d622",
    "pendingAdmin()": "26782247",
    "pendingComptrollerImplementation()": "dcfbc0c7",
    "redeemAllowed(address,address,uint256)": "eabe7d91",
    "redeemVerify(address,address,uint256,uint256)": "51dff989",
    "repayBorrowAllowed(address,address,address,uint256)": "24008a62",
    "rewardsDistributors(uint256)": "c6c5b0dd",
    "seizeAllowed(address,address,address,address,uint256)": "d02f7351",
    "seizeGuardianPaused()": "ac0b0bb7",
    "suppliers(address)": "16dc15fe",
    "supplyCaps(address)": "02c3bcbb",
    "transferAllowed(address,address,address,uint256)": "bdcdc258",
    "transferGuardianPaused()": "87f76303",
    "whitelist(address)": "9b19251a",
    "whitelistArray(uint256)": "d251fefc"
  }
}