{
  "address": "0x2F475CbCdeDbCcb010aF1a7A2E49DC7AadE5c423",
  "abi": [
    {
      "inputs": [],
      "stateMutability": "nonpayable",
      "type": "constructor"
    },
    {
      "anonymous": false,
      "inputs": [
        {
          "indexed": true,
          "internalType": "address",
          "name": "owner",
          "type": "address"
        },
        {
          "indexed": true,
          "internalType": "address",
          "name": "spender",
          "type": "address"
        },
        {
          "indexed": false,
          "internalType": "uint256",
          "name": "value",
          "type": "uint256"
        }
      ],
      "name": "Approval",
      "type": "event"
    },
    {
      "anonymous": false,
      "inputs": [
        {
          "indexed": true,
          "internalType": "address",
          "name": "sender",
          "type": "address"
        },
        {
          "indexed": true,
          "internalType": "address",
          "name": "owner",
          "type": "address"
        },
        {
          "indexed": false,
          "internalType": "uint256",
          "name": "assets",
          "type": "uint256"
        },
        {
          "indexed": false,
          "internalType": "uint256",
          "name": "shares",
          "type": "uint256"
        }
      ],
      "name": "Deposit",
      "type": "event"
    },
    {
      "anonymous": false,
      "inputs": [
        {
          "indexed": false,
          "internalType": "uint8",
          "name": "version",
          "type": "uint8"
        }
      ],
      "name": "Initialized",
      "type": "event"
    },
    {
      "anonymous": false,
      "inputs": [
        {
          "indexed": false,
          "internalType": "address",
          "name": "oldOwner",
          "type": "address"
        },
        {
          "indexed": false,
          "internalType": "address",
          "name": "newOwner",
          "type": "address"
        }
      ],
      "name": "NewOwner",
      "type": "event"
    },
    {
      "anonymous": false,
      "inputs": [
        {
          "indexed": false,
          "internalType": "address",
          "name": "oldPendingOwner",
          "type": "address"
        },
        {
          "indexed": false,
          "internalType": "address",
          "name": "newPendingOwner",
          "type": "address"
        }
      ],
      "name": "NewPendingOwner",
      "type": "event"
    },
    {
      "anonymous": false,
      "inputs": [
        {
          "indexed": true,
          "internalType": "address",
          "name": "previousOwner",
          "type": "address"
        },
        {
          "indexed": true,
          "internalType": "address",
          "name": "newOwner",
          "type": "address"
        }
      ],
      "name": "OwnershipTransferred",
      "type": "event"
    },
    {
      "anonymous": false,
      "inputs": [
        {
          "indexed": false,
          "internalType": "address",
          "name": "account",
          "type": "address"
        }
      ],
      "name": "Paused",
      "type": "event"
    },
    {
      "anonymous": false,
      "inputs": [
        {
          "indexed": true,
          "internalType": "address",
          "name": "from",
          "type": "address"
        },
        {
          "indexed": true,
          "internalType": "address",
          "name": "to",
          "type": "address"
        },
        {
          "indexed": false,
          "internalType": "uint256",
          "name": "value",
          "type": "uint256"
        }
      ],
      "name": "Transfer",
      "type": "event"
    },
    {
      "anonymous": false,
      "inputs": [
        {
          "indexed": false,
          "internalType": "address",
          "name": "account",
          "type": "address"
        }
      ],
      "name": "Unpaused",
      "type": "event"
    },
    {
      "anonymous": false,
      "inputs": [
        {
          "indexed": false,
          "internalType": "uint256",
          "name": "oldPerformanceFee",
          "type": "uint256"
        },
        {
          "indexed": false,
          "internalType": "uint256",
          "name": "newPerformanceFee",
          "type": "uint256"
        },
        {
          "indexed": false,
          "internalType": "address",
          "name": "oldFeeRecipient",
          "type": "address"
        },
        {
          "indexed": false,
          "internalType": "address",
          "name": "newFeeRecipient",
          "type": "address"
        }
      ],
      "name": "UpdatedFeeSettings",
      "type": "event"
    },
    {
      "anonymous": false,
      "inputs": [
        {
          "indexed": true,
          "internalType": "address",
          "name": "sender",
          "type": "address"
        },
        {
          "indexed": true,
          "internalType": "address",
          "name": "receiver",
          "type": "address"
        },
        {
          "indexed": true,
          "internalType": "address",
          "name": "owner",
          "type": "address"
        },
        {
          "indexed": false,
          "internalType": "uint256",
          "name": "assets",
          "type": "uint256"
        },
        {
          "indexed": false,
          "internalType": "uint256",
          "name": "shares",
          "type": "uint256"
        }
      ],
      "name": "Withdraw",
      "type": "event"
    },
    {
      "inputs": [],
      "name": "_acceptOwner",
      "outputs": [],
      "stateMutability": "nonpayable",
      "type": "function"
    },
    {
      "inputs": [
        {
          "internalType": "address",
          "name": "newPendingOwner",
          "type": "address"
        }
      ],
      "name": "_setPendingOwner",
      "outputs": [],
      "stateMutability": "nonpayable",
      "type": "function"
    },
    {
      "inputs": [
        {
          "internalType": "address",
          "name": "owner",
          "type": "address"
        },
        {
          "internalType": "address",
          "name": "spender",
          "type": "address"
        }
      ],
      "name": "allowance",
      "outputs": [
        {
          "internalType": "uint256",
          "name": "",
          "type": "uint256"
        }
      ],
      "stateMutability": "view",
      "type": "function"
    },
    {
      "inputs": [
        {
          "internalType": "address",
          "name": "spender",
          "type": "address"
        },
        {
          "internalType": "uint256",
          "name": "amount",
          "type": "uint256"
        }
      ],
      "name": "approve",
      "outputs": [
        {
          "internalType": "bool",
          "name": "",
          "type": "bool"
        }
      ],
      "stateMutability": "nonpayable",
      "type": "function"
    },
    {
      "inputs": [],
      "name": "apr",
      "outputs": [
        {
          "internalType": "uint256",
          "name": "",
          "type": "uint256"
        }
      ],
      "stateMutability": "view",
      "type": "function"
    },
    {
      "inputs": [
        {
          "internalType": "uint256",
          "name": "amount",
          "type": "uint256"
        }
      ],
      "name": "aprAfterDeposit",
      "outputs": [
        {
          "internalType": "uint256",
          "name": "",
          "type": "uint256"
        }
      ],
      "stateMutability": "view",
      "type": "function"
    },
    {
      "inputs": [
        {
          "internalType": "uint256",
          "name": "amount",
          "type": "uint256"
        }
      ],
      "name": "aprAfterWithdraw",
      "outputs": [
        {
          "internalType": "uint256",
          "name": "",
          "type": "uint256"
        }
      ],
      "stateMutability": "view",
      "type": "function"
    },
    {
      "inputs": [],
      "name": "asset",
      "outputs": [
        {
          "internalType": "address",
          "name": "",
          "type": "address"
        }
      ],
      "stateMutability": "view",
      "type": "function"
    },
    {
      "inputs": [
        {
          "internalType": "address",
          "name": "account",
          "type": "address"
        }
      ],
      "name": "balanceOf",
      "outputs": [
        {
          "internalType": "uint256",
          "name": "",
          "type": "uint256"
        }
      ],
      "stateMutability": "view",
      "type": "function"
    },
    {
      "inputs": [
        {
          "internalType": "address",
          "name": "account",
          "type": "address"
        }
      ],
      "name": "balanceOfUnderlying",
      "outputs": [
        {
          "internalType": "uint256",
          "name": "",
          "type": "uint256"
        }
      ],
      "stateMutability": "view",
      "type": "function"
    },
    {
      "inputs": [],
      "name": "blocksPerYear",
      "outputs": [
        {
          "internalType": "uint256",
          "name": "",
          "type": "uint256"
        }
      ],
      "stateMutability": "view",
      "type": "function"
    },
    {
      "inputs": [
        {
          "internalType": "uint256",
          "name": "shares",
          "type": "uint256"
        }
      ],
      "name": "convertToAssets",
      "outputs": [
        {
          "internalType": "uint256",
          "name": "assets",
          "type": "uint256"
        }
      ],
      "stateMutability": "view",
      "type": "function"
    },
    {
      "inputs": [
        {
          "internalType": "uint256",
          "name": "assets",
          "type": "uint256"
        }
      ],
      "name": "convertToShares",
      "outputs": [
        {
          "internalType": "uint256",
          "name": "shares",
          "type": "uint256"
        }
      ],
      "stateMutability": "view",
      "type": "function"
    },
    {
      "inputs": [],
      "name": "decimals",
      "outputs": [
        {
          "internalType": "uint8",
          "name": "",
          "type": "uint8"
        }
      ],
      "stateMutability": "view",
      "type": "function"
    },
    {
      "inputs": [
        {
          "internalType": "address",
          "name": "spender",
          "type": "address"
        },
        {
          "internalType": "uint256",
          "name": "subtractedValue",
          "type": "uint256"
        }
      ],
      "name": "decreaseAllowance",
      "outputs": [
        {
          "internalType": "bool",
          "name": "",
          "type": "bool"
        }
      ],
      "stateMutability": "nonpayable",
      "type": "function"
    },
    {
      "inputs": [
        {
          "internalType": "uint256",
          "name": "assets",
          "type": "uint256"
        },
        {
          "internalType": "address",
          "name": "receiver",
          "type": "address"
        }
      ],
      "name": "deposit",
      "outputs": [
        {
          "internalType": "uint256",
          "name": "shares",
          "type": "uint256"
        }
      ],
      "stateMutability": "nonpayable",
      "type": "function"
    },
    {
      "inputs": [
        {
          "internalType": "uint256",
          "name": "amount",
          "type": "uint256"
        }
      ],
      "name": "deposit",
      "outputs": [],
      "stateMutability": "nonpayable",
      "type": "function"
    },
    {
      "inputs": [],
      "name": "deposit",
      "outputs": [],
      "stateMutability": "nonpayable",
      "type": "function"
    },
    {
      "inputs": [],
      "name": "emergencyWithdrawAndPause",
      "outputs": [],
      "stateMutability": "nonpayable",
      "type": "function"
    },
    {
      "inputs": [],
      "name": "feeRecipient",
      "outputs": [
        {
          "internalType": "address",
          "name": "",
          "type": "address"
        }
      ],
      "stateMutability": "view",
      "type": "function"
    },
    {
      "inputs": [],
      "name": "hasAssets",
      "outputs": [
        {
          "internalType": "bool",
          "name": "",
          "type": "bool"
        }
      ],
      "stateMutability": "view",
      "type": "function"
    },
    {
      "inputs": [
        {
          "internalType": "address",
          "name": "spender",
          "type": "address"
        },
        {
          "internalType": "uint256",
          "name": "addedValue",
          "type": "uint256"
        }
      ],
      "name": "increaseAllowance",
      "outputs": [
        {
          "internalType": "bool",
          "name": "",
          "type": "bool"
        }
      ],
      "stateMutability": "nonpayable",
      "type": "function"
    },
    {
      "inputs": [
        {
          "internalType": "contract ICErc20",
          "name": "market_",
          "type": "address"
        },
        {
          "internalType": "uint256",
          "name": "blocksPerYear_",
          "type": "uint256"
        }
      ],
      "name": "initialize",
      "outputs": [],
      "stateMutability": "nonpayable",
      "type": "function"
    },
    {
      "inputs": [],
      "name": "lenderName",
      "outputs": [
        {
          "internalType": "string",
          "name": "",
          "type": "string"
        }
      ],
      "stateMutability": "view",
      "type": "function"
    },
    {
      "inputs": [],
      "name": "market",
      "outputs": [
        {
          "internalType": "contract ICErc20",
          "name": "",
          "type": "address"
        }
      ],
      "stateMutability": "view",
      "type": "function"
    },
    {
      "inputs": [
        {
          "internalType": "address",
          "name": "",
          "type": "address"
        }
      ],
      "name": "maxDeposit",
      "outputs": [
        {
          "internalType": "uint256",
          "name": "",
          "type": "uint256"
        }
      ],
      "stateMutability": "view",
      "type": "function"
    },
    {
      "inputs": [
        {
          "internalType": "address",
          "name": "",
          "type": "address"
        }
      ],
      "name": "maxMint",
      "outputs": [
        {
          "internalType": "uint256",
          "name": "",
          "type": "uint256"
        }
      ],
      "stateMutability": "view",
      "type": "function"
    },
    {
      "inputs": [
        {
          "internalType": "address",
          "name": "owner",
          "type": "address"
        }
      ],
      "name": "maxRedeem",
      "outputs": [
        {
          "internalType": "uint256",
          "name": "",
          "type": "uint256"
        }
      ],
      "stateMutability": "view",
      "type": "function"
    },
    {
      "inputs": [
        {
          "internalType": "address",
          "name": "owner",
          "type": "address"
        }
      ],
      "name": "maxWithdraw",
      "outputs": [
        {
          "internalType": "uint256",
          "name": "",
          "type": "uint256"
        }
      ],
      "stateMutability": "view",
      "type": "function"
    },
    {
      "inputs": [
        {
          "internalType": "uint256",
          "name": "shares",
          "type": "uint256"
        },
        {
          "internalType": "address",
          "name": "receiver",
          "type": "address"
        }
      ],
      "name": "mint",
      "outputs": [
        {
          "internalType": "uint256",
          "name": "assets",
          "type": "uint256"
        }
      ],
      "stateMutability": "nonpayable",
      "type": "function"
    },
    {
      "inputs": [],
      "name": "name",
      "outputs": [
        {
          "internalType": "string",
          "name": "",
          "type": "string"
        }
      ],
      "stateMutability": "view",
      "type": "function"
    },
    {
      "inputs": [],
      "name": "nav",
      "outputs": [
        {
          "internalType": "uint256",
          "name": "",
          "type": "uint256"
        }
      ],
      "stateMutability": "view",
      "type": "function"
    },
    {
      "inputs": [],
      "name": "owner",
      "outputs": [
        {
          "internalType": "address",
          "name": "",
          "type": "address"
        }
      ],
      "stateMutability": "view",
      "type": "function"
    },
    {
      "inputs": [],
      "name": "paused",
      "outputs": [
        {
          "internalType": "bool",
          "name": "",
          "type": "bool"
        }
      ],
      "stateMutability": "view",
      "type": "function"
    },
    {
      "inputs": [],
      "name": "pendingOwner",
      "outputs": [
        {
          "internalType": "address",
          "name": "",
          "type": "address"
        }
      ],
      "stateMutability": "view",
      "type": "function"
    },
    {
      "inputs": [],
      "name": "performanceFee",
      "outputs": [
        {
          "internalType": "uint256",
          "name": "",
          "type": "uint256"
        }
      ],
      "stateMutability": "view",
      "type": "function"
    },
    {
      "inputs": [
        {
          "internalType": "uint256",
          "name": "assets",
          "type": "uint256"
        }
      ],
      "name": "previewDeposit",
      "outputs": [
        {
          "internalType": "uint256",
          "name": "",
          "type": "uint256"
        }
      ],
      "stateMutability": "view",
      "type": "function"
    },
    {
      "inputs": [
        {
          "internalType": "uint256",
          "name": "shares",
          "type": "uint256"
        }
      ],
      "name": "previewMint",
      "outputs": [
        {
          "internalType": "uint256",
          "name": "",
          "type": "uint256"
        }
      ],
      "stateMutability": "view",
      "type": "function"
    },
    {
      "inputs": [
        {
          "internalType": "uint256",
          "name": "shares",
          "type": "uint256"
        }
      ],
      "name": "previewRedeem",
      "outputs": [
        {
          "internalType": "uint256",
          "name": "",
          "type": "uint256"
        }
      ],
      "stateMutability": "view",
      "type": "function"
    },
    {
      "inputs": [
        {
          "internalType": "uint256",
          "name": "assets",
          "type": "uint256"
        }
      ],
      "name": "previewWithdraw",
      "outputs": [
        {
          "internalType": "uint256",
          "name": "",
          "type": "uint256"
        }
      ],
      "stateMutability": "view",
      "type": "function"
    },
    {
      "inputs": [
        {
          "internalType": "uint256",
          "name": "shares",
          "type": "uint256"
        },
        {
          "internalType": "address",
          "name": "receiver",
          "type": "address"
        },
        {
          "internalType": "address",
          "name": "owner",
          "type": "address"
        }
      ],
      "name": "redeem",
      "outputs": [
        {
          "internalType": "uint256",
          "name": "assets",
          "type": "uint256"
        }
      ],
      "stateMutability": "nonpayable",
      "type": "function"
    },
    {
      "inputs": [],
      "name": "renounceOwnership",
      "outputs": [],
      "stateMutability": "nonpayable",
      "type": "function"
    },
    {
      "inputs": [
        {
          "internalType": "address",
          "name": "market",
          "type": "address"
        }
      ],
      "name": "shutdown",
      "outputs": [
        {
          "internalType": "uint256",
          "name": "",
          "type": "uint256"
        }
      ],
      "stateMutability": "nonpayable",
      "type": "function"
    },
    {
      "inputs": [
        {
          "internalType": "address",
          "name": "_token",
          "type": "address"
        },
        {
          "internalType": "address",
          "name": "to",
          "type": "address"
        }
      ],
      "name": "sweep",
      "outputs": [],
      "stateMutability": "nonpayable",
      "type": "function"
    },
    {
      "inputs": [],
      "name": "symbol",
      "outputs": [
        {
          "internalType": "string",
          "name": "",
          "type": "string"
        }
      ],
      "stateMutability": "view",
      "type": "function"
    },
    {
      "inputs": [],
      "name": "takePerformanceFee",
      "outputs": [],
      "stateMutability": "nonpayable",
      "type": "function"
    },
    {
      "inputs": [],
      "name": "totalAssets",
      "outputs": [
        {
          "internalType": "uint256",
          "name": "",
          "type": "uint256"
        }
      ],
      "stateMutability": "view",
      "type": "function"
    },
    {
      "inputs": [],
      "name": "totalSupply",
      "outputs": [
        {
          "internalType": "uint256",
          "name": "",
          "type": "uint256"
        }
      ],
      "stateMutability": "view",
      "type": "function"
    },
    {
      "inputs": [
        {
          "internalType": "address",
          "name": "to",
          "type": "address"
        },
        {
          "internalType": "uint256",
          "name": "amount",
          "type": "uint256"
        }
      ],
      "name": "transfer",
      "outputs": [
        {
          "internalType": "bool",
          "name": "",
          "type": "bool"
        }
      ],
      "stateMutability": "nonpayable",
      "type": "function"
    },
    {
      "inputs": [
        {
          "internalType": "address",
          "name": "from",
          "type": "address"
        },
        {
          "internalType": "address",
          "name": "to",
          "type": "address"
        },
        {
          "internalType": "uint256",
          "name": "amount",
          "type": "uint256"
        }
      ],
      "name": "transferFrom",
      "outputs": [
        {
          "internalType": "bool",
          "name": "",
          "type": "bool"
        }
      ],
      "stateMutability": "nonpayable",
      "type": "function"
    },
    {
      "inputs": [
        {
          "internalType": "address",
          "name": "",
          "type": "address"
        }
      ],
      "name": "transferOwnership",
      "outputs": [],
      "stateMutability": "nonpayable",
      "type": "function"
    },
    {
      "inputs": [],
      "name": "underlyingBalanceStored",
      "outputs": [
        {
          "internalType": "uint256",
          "name": "",
          "type": "uint256"
        }
      ],
      "stateMutability": "view",
      "type": "function"
    },
    {
      "inputs": [],
      "name": "unpause",
      "outputs": [],
      "stateMutability": "nonpayable",
      "type": "function"
    },
    {
      "inputs": [
        {
          "internalType": "uint256",
          "name": "newPerformanceFee",
          "type": "uint256"
        },
        {
          "internalType": "address",
          "name": "newFeeRecipient",
          "type": "address"
        }
      ],
      "name": "updateFeeSettings",
      "outputs": [],
      "stateMutability": "nonpayable",
      "type": "function"
    },
    {
      "inputs": [],
      "name": "vaultShareHWM",
      "outputs": [
        {
          "internalType": "uint256",
          "name": "",
          "type": "uint256"
        }
      ],
      "stateMutability": "view",
      "type": "function"
    },
    {
      "inputs": [],
      "name": "weightedApr",
      "outputs": [
        {
          "internalType": "uint256",
          "name": "",
          "type": "uint256"
        }
      ],
      "stateMutability": "view",
      "type": "function"
    },
    {
      "inputs": [
        {
          "internalType": "uint256",
          "name": "amount",
          "type": "uint256"
        }
      ],
      "name": "weightedAprAfterDeposit",
      "outputs": [
        {
          "internalType": "uint256",
          "name": "",
          "type": "uint256"
        }
      ],
      "stateMutability": "view",
      "type": "function"
    },
    {
      "inputs": [
        {
          "internalType": "uint256",
          "name": "amount",
          "type": "uint256"
        }
      ],
      "name": "withdraw",
      "outputs": [
        {
          "internalType": "uint256",
          "name": "",
          "type": "uint256"
        }
      ],
      "stateMutability": "nonpayable",
      "type": "function"
    },
    {
      "inputs": [
        {
          "internalType": "uint256",
          "name": "assets",
          "type": "uint256"
        },
        {
          "internalType": "address",
          "name": "receiver",
          "type": "address"
        },
        {
          "internalType": "address",
          "name": "owner",
          "type": "address"
        }
      ],
      "name": "withdraw",
      "outputs": [
        {
          "internalType": "uint256",
          "name": "shares",
          "type": "uint256"
        }
      ],
      "stateMutability": "nonpayable",
      "type": "function"
    },
    {
      "inputs": [],
      "name": "withdrawAccruedFees",
      "outputs": [],
      "stateMutability": "nonpayable",
      "type": "function"
    },
    {
      "inputs": [],
      "name": "withdrawAll",
      "outputs": [
        {
          "internalType": "bool",
          "name": "",
          "type": "bool"
        }
      ],
      "stateMutability": "nonpayable",
      "type": "function"
    }
  ],
  "transactionHash": "0xe0c9a8c73f8e1e9bde702482937395180419d98d52b786bf03f064630b633da2",
  "args": [],
  "numDeployments": 2,
  "bytecode": {
    "object": "0x60806040523480156200001157600080fd5b506200001c62000022565b620000e4565b600054610100900460ff16156200008f5760405162461bcd60e51b815260206004820152602760248201527f496e697469616c697a61626c653a20636f6e747261637420697320696e697469604482015266616c697a696e6760c81b606482015260840160405180910390fd5b60005460ff9081161015620000e2576000805460ff191660ff9081179091556040519081527f7f26b83ff96e1f2b6a682f133852f6798a09c465da95921460cefb38474024989060200160405180910390a15b565b61369780620000f46000396000f3fe608060405234801561001057600080fd5b50600436106103af5760003560e01c8063715018a6116101f4578063b8dc491b1161011a578063ce96cb77116100ad578063e30c39781161007c578063e30c397814610760578063ef8b30f7146106e6578063f2fde38b14610773578063fc4d33f91461078657600080fd5b8063ce96cb771461071f578063d0e30db014610732578063d905777e1461073a578063dd62ed3e1461074d57600080fd5b8063c6afba3c116100e9578063c6afba3c146106de578063c6e6f592146106e6578063cce2f3fb146106f9578063cd6dc6871461070c57600080fd5b8063b8dc491b146106a3578063ba087652146106b6578063c1590cd7146103b4578063c63d75b6146106c957600080fd5b806395d89b4111610192578063ada82c7d11610161578063ada82c7d14610662578063b3d7f6b91461066a578063b460af941461067d578063b6b55f251461069057600080fd5b806395d89b411461062b578063a385fb9614610633578063a457c2d71461063c578063a9059cbb1461064f57600080fd5b806387788782116101ce57806387788782146105f65780638b202176146105ff5780638da5cb5b1461060757806394bf804d1461061857600080fd5b8063715018a6146105d357806380f55605146105db578063853828b6146105ee57600080fd5b806339509351116102d957806356f89ef91161027757806366d4d2951161024657806366d4d295146105715780636e553f65146105845780636e96dfd71461059757806370a08231146105aa57600080fd5b806356f89ef91461054757806357ded9c91461054f5780635be9b2d3146105575780635c975abb1461055f57600080fd5b8063402d267d116102b3578063402d267d1461050e57806346904840146105215780634cdad506146103e45780635470eaad1461053457600080fd5b806339509351146104e05780633af9e669146104f35780633f4ba83a1461050657600080fd5b8063149a4ae411610351578063283579781161032057806328357978146104815780632e1a7d4d14610489578063313ce5671461049c57806338d52e0f146104bb57600080fd5b8063149a4ae41461044a57806318160ddd1461045d578063211493c91461046557806323b872dd1461046e57600080fd5b8063095ea7b31161038d578063095ea7b3146103f75780630a28a4771461041a57806310509aa91461042d578063116ac4a31461044257600080fd5b806301e1d114146103b457806306fdde03146103cf57806307a2d13a146103e4575b600080fd5b6103bc61078e565b6040519081526020015b60405180910390f35b6103d7610895565b6040516103c691906130e5565b6103bc6103f2366004613118565b610927565b61040a610405366004613146565b61093a565b60405190151581526020016103c6565b6103bc610428366004613118565b610952565b61044061043b366004613172565b61095f565b005b6103bc610a85565b6103bc610458366004613118565b610aa0565b6099546103bc565b6103bc60fb5481565b61040a61047c3660046131a2565b610b1d565b610440610b43565b6103bc610497366004613118565b610cb7565b60c954600160a01b900460ff1660405160ff90911681526020016103c6565b60c9546001600160a01b03165b6040516001600160a01b0390911681526020016103c6565b61040a6104ee366004613146565b610ccb565b6103bc6105013660046131e3565b610ced565b610440610d0f565b6103bc61051c3660046131e3565b610d27565b60fd546104c8906001600160a01b031681565b6103bc610542366004613118565b610d45565b610440610d7b565b6103bc610f44565b61040a610fc0565b606554600160a01b900460ff1661040a565b6103bc61057f366004613118565b611038565b6103bc610592366004613172565b611073565b6104406105a53660046131e3565b61113c565b6103bc6105b83660046131e3565b6001600160a01b031660009081526097602052604090205490565b6104406111a6565b60fe546104c8906001600160a01b031681565b61040a6111e9565b6103bc60fc5481565b6103d76111ff565b6033546001600160a01b03166104c8565b6103bc610626366004613172565b61122d565b6103d76112aa565b6103bc60ff5481565b61040a61064a366004613146565b6112b9565b61040a61065d366004613146565b61133f565b61044061134d565b6103bc610678366004613118565b61137d565b6103bc61068b366004613200565b61138a565b61044061069e366004613118565b611553565b6104406106b1366004613242565b611561565b6103bc6106c4366004613200565b611699565b6103bc6106d73660046131e3565b5060001990565b6103bc61188d565b6103bc6106f4366004613118565b611897565b6103bc6107073660046131e3565b6118a4565b61044061071a366004613146565b6119ad565b6103bc61072d3660046131e3565b611b42565b610440611b66565b6103bc6107483660046131e3565b611bf3565b6103bc61075b366004613242565b611c11565b6065546104c8906001600160a01b031681565b6104406107813660046131e3565b6111a6565b610440611c3c565b6000670de0b6b3a764000060fe60009054906101000a90046001600160a01b03166001600160a01b0316633648b3996040518163ffffffff1660e01b8152600401602060405180830381865afa1580156107ec573d6000803e3d6000fd5b505050506040513d601f19601f820116820180604052508101906108109190613270565b60fe546040516370a0823160e01b81523060048201526001600160a01b03909116906370a0823190602401602060405180830381865afa158015610858573d6000803e3d6000fd5b505050506040513d601f19601f8201168201806040525081019061087c9190613270565b610886919061329f565b61089091906132d4565b905090565b6060609a80546108a4906132f6565b80601f01602080910402602001604051908101604052809291908181526020018280546108d0906132f6565b801561091d5780601f106108f25761010080835404028352916020019161091d565b820191906000526020600020905b81548152906001019060200180831161090057829003601f168201915b5050505050905090565b6000610934826000611d50565b92915050565b600033610948818585611d87565b5060019392505050565b6000610934826001611eab565b610967611edd565b60fc5460fd5460408051928352602083018590526001600160a01b0391821690830152821660608201527fb3b62da5184b9e7e2f5d280014bb485d4444b66738025e5fb5738bbddcb6b8489060800160405180910390a160fc82905560fd546001600160a01b03828116911614610a625760fd546001600160a01b031615610a445760fd546001600160a01b031660008181526097602052604090205490610a0f9082611f37565b60fd54610a38906001600160a01b0316610a316033546001600160a01b031690565b6000611d87565b610a42828261206b565b505b610a6281610a5a6033546001600160a01b031690565b600019611d87565b60fd80546001600160a01b0319166001600160a01b039290921691909117905550565b6000670de0b6b3a7640000610a9861078e565b61087c610f44565b60ff5460fe5460405163b1e23dbb60e01b815260048101849052600092916001600160a01b03169063b1e23dbb906024015b602060405180830381865afa158015610aef573d6000803e3d6000fd5b505050506040513d601f19601f82011682018060405250810190610b139190613270565b610934919061329f565b600033610b2b85828561212c565b610b368585856121a0565b60019150505b9392505050565b6033546001600160a01b03163314610b975760405162461bcd60e51b81526020600482015260126024820152711b9bdd081bdddb995c881bdc881d985d5b1d60721b60448201526064015b60405180910390fd5b60fe546040516370a0823160e01b81523060048201526001600160a01b039091169063db006a759082906370a0823190602401602060405180830381865afa158015610be7573d6000803e3d6000fd5b505050506040513d601f19601f82011682018060405250810190610c0b9190613270565b6040518263ffffffff1660e01b8152600401610c2991815260200190565b6020604051808303816000875af1158015610c48573d6000803e3d6000fd5b505050506040513d601f19601f82011682018060405250810190610c6c9190613270565b15610cad5760405162461bcd60e51b81526020600482015260116024820152701c995919595b48185b1b0819985a5b1959607a1b6044820152606401610b8e565b610cb561234b565b565b6000610cc482333361138a565b5090919050565b600033610948818585610cde8383611c11565b610ce89190613331565b611d87565b6001600160a01b03811660009081526097602052604081205461093490610927565b610d17611edd565b610d1f611b66565b610cb56123ab565b6000610d316123e7565b610d3c576000610934565b60001992915050565b60ff5460fe54604051630d76ba9960e21b815260048101849052600092916001600160a01b0316906335daea6490602401610ad2565b610d83611edd565b60fd546001600160a01b0316610ddb5760405162461bcd60e51b815260206004820152601d60248201527f66656520726563697069656e74206e6f7420696e697469616c697a65640000006044820152606401610b8e565b6000610de561078e565b90506000610e60610df4612401565b6001600160a01b031663313ce5676040518163ffffffff1660e01b8152600401602060405180830381865afa158015610e31573d6000803e3d6000fd5b505050506040513d601f19601f82011682018060405250810190610e559190613349565b6103f290600a613450565b905060fb548111610eb35760405162461bcd60e51b815260206004820152601b60248201527f736861726556616c756520213e207661756c74536861726548574d00000000006044820152606401610b8e565b6000610ebe60995490565b905060006ec097ce7bc90715b34b9f10000000008260fb5485610ee1919061345f565b60fc54610eee919061329f565b610ef8919061329f565b610f0291906132d4565b60fd54909150610f30906001600160a01b0316610f2b84610f23858961345f565b859190612415565b61206b565b610f3b610df4612401565b60fb5550505050565b60ff5460fe5460408051630ae9d70b60e41b81529051600093926001600160a01b03169163ae9d70b09160048083019260209291908290030181865afa158015610f92573d6000803e3d6000fd5b505050506040513d601f19601f82011682018060405250810190610fb69190613270565b610890919061329f565b60fe546040516370a0823160e01b8152306004820152600091600a916001600160a01b03909116906370a0823190602401602060405180830381865afa15801561100e573d6000803e3d6000fd5b505050506040513d601f19601f820116820180604052508101906110329190613270565b11905090565b6000670de0b6b3a76400008261104c61078e565b6110569190613331565b61105f84610aa0565b611069919061329f565b61093491906132d4565b600061107d612434565b61108683611897565b9050806110c35760405162461bcd60e51b815260206004820152600b60248201526a5a45524f5f53484152455360a81b6044820152606401610b8e565b6110e23330856110d1612401565b6001600160a01b0316929190612481565b6110ec828261206b565b60408051848152602081018390526001600160a01b0384169133917fdcbc1c05240f31ff3ad067ef1ee35ce4997762752e3a095284754544f4c709d7910160405180910390a361093483826124ec565b611144611edd565b606580546001600160a01b038381166001600160a01b031983168117909355604080519190921680825260208201939093527fb3d55174552271a4f1aaf36b72f50381e892171636b3fb5447fe00e995e7a37b91015b60405180910390a15050565b6111ae611edd565b60405162461bcd60e51b815260206004820152601060248201526f6e6f74207573656420616e796d6f726560801b6044820152606401610b8e565b6000806110326111f833611b42565b333361138a565b6060611209610895565b6040516020016112199190613476565b604051602081830303815290604052905090565b6000611237612434565b6112408361137d565b90506112503330836110d1612401565b61125a828461206b565b60408051828152602081018590526001600160a01b0384169133917fdcbc1c05240f31ff3ad067ef1ee35ce4997762752e3a095284754544f4c709d7910160405180910390a361093481846124ec565b6060609b80546108a4906132f6565b600033816112c78286611c11565b9050838110156113275760405162461bcd60e51b815260206004820152602560248201527f45524332303a2064656372656173656420616c6c6f77616e63652062656c6f77604482015264207a65726f60d81b6064820152608401610b8e565b6113348286868403611d87565b506001949350505050565b6000336109488185856121a0565b611355611edd565b60fd546001600160a01b031660008181526097602052604090205461137a9180611699565b50565b6000610934826001611d50565b600061139584610952565b9050336001600160a01b038316146113cf5760006113b38333611c11565b905060001981146113cd576113cd8333610ce8858561345f565b505b606554600160a01b900460ff166114e15760006113ea612401565b6040516370a0823160e01b81523060048201526001600160a01b0391909116906370a0823190602401602060405180830381865afa158015611430573d6000803e3d6000fd5b505050506040513d601f19601f820116820180604052508101906114549190613270565b9050611460858361262b565b80611469612401565b6040516370a0823160e01b81523060048201526001600160a01b0391909116906370a0823190602401602060405180830381865afa1580156114af573d6000803e3d6000fd5b505050506040513d601f19601f820116820180604052508101906114d39190613270565b6114dd919061345f565b9450505b6114eb8282611f37565b60408051858152602081018390526001600160a01b03808516929086169133917ffbde797d201c681b91056529119e0b02407c7bb96a4a2c75c01fc9667232c8db910160405180910390a4610b3c8385611543612401565b6001600160a01b031691906126e7565b61155d8130611073565b5050565b611569611edd565b60c9546001600160a01b03838116911614156115b05760405162461bcd60e51b815260206004820152600660248201526508585cdcd95d60d21b6044820152606401610b8e565b6040516370a0823160e01b815230600482015282906001600160a01b0382169063a9059cbb90849083906370a0823190602401602060405180830381865afa158015611600573d6000803e3d6000fd5b505050506040513d601f19601f820116820180604052508101906116249190613270565b6040516001600160e01b031960e085901b1681526001600160a01b03909216600483015260248201526044016020604051808303816000875af115801561166f573d6000803e3d6000fd5b505050506040513d601f19601f8201168201806040525081019061169391906134ae565b50505050565b6000336001600160a01b038316146116d35760006116b78333611c11565b905060001981146116d1576116d18333610ce8888561345f565b505b6116dc84610927565b9050806117195760405162461bcd60e51b815260206004820152600b60248201526a5a45524f5f41535345545360a81b6044820152606401610b8e565b606554600160a01b900460ff1661182b576000611734612401565b6040516370a0823160e01b81523060048201526001600160a01b0391909116906370a0823190602401602060405180830381865afa15801561177a573d6000803e3d6000fd5b505050506040513d601f19601f8201168201806040525081019061179e9190613270565b90506117aa828661262b565b806117b3612401565b6040516370a0823160e01b81523060048201526001600160a01b0391909116906370a0823190602401602060405180830381865afa1580156117f9573d6000803e3d6000fd5b505050506040513d601f19601f8201168201806040525081019061181d9190613270565b611827919061345f565b9150505b6118358285611f37565b60408051828152602081018690526001600160a01b03808516929086169133917ffbde797d201c681b91056529119e0b02407c7bb96a4a2c75c01fc9667232c8db910160405180910390a4610b3c8382611543612401565b600061089061078e565b6000610934826000611eab565b60006118ae611edd565b6118b6612717565b60006118c0612401565b6040516370a0823160e01b81523060048201529091506000906001600160a01b038316906370a0823190602401602060405180830381865afa15801561190a573d6000803e3d6000fd5b505050506040513d601f19601f8201168201806040525081019061192e9190613270565b60405163a9059cbb60e01b81526001600160a01b038681166004830152602482018390529192509083169063a9059cbb906044016020604051808303816000875af1158015611981573d6000803e3d6000fd5b505050506040513d601f19601f820116820180604052508101906119a591906134ae565b509392505050565b600054610100900460ff16158080156119cd5750600054600160ff909116105b806119e75750303b1580156119e7575060005460ff166001145b611a4a5760405162461bcd60e51b815260206004820152602e60248201527f496e697469616c697a61626c653a20636f6e747261637420697320616c72656160448201526d191e481a5b9a5d1a585b1a5e995960921b6064820152608401610b8e565b6000805460ff191660011790558015611a6d576000805461ff0019166101001790555b611ad7836001600160a01b0316636f307dc36040518163ffffffff1660e01b8152600401602060405180830381865afa158015611aae573d6000803e3d6000fd5b505050506040513d601f19601f82011682018060405250810190611ad291906134d0565b612767565b60fe80546001600160a01b0319166001600160a01b03851617905560ff8290558015611b3d576000805461ff0019169055604051600181527f7f26b83ff96e1f2b6a682f133852f6798a09c465da95921460cefb38474024989060200160405180910390a15b505050565b6001600160a01b038116600090815260976020526040812054610934906000611d50565b611b6e611edd565b61137a611b8360c9546001600160a01b031690565b6040516370a0823160e01b81523060048201526001600160a01b0391909116906370a0823190602401602060405180830381865afa158015611bc9573d6000803e3d6000fd5b505050506040513d601f19601f82011682018060405250810190611bed9190613270565b30611073565b6001600160a01b038116600090815260976020526040812054610934565b6001600160a01b03918216600090815260986020908152604080832093909416825291909152205490565b6065546001600160a01b03163314611c8e5760405162461bcd60e51b81526020600482015260156024820152743737ba103a3432903832b73234b7339037bbb732b960591b6044820152606401610b8e565b6000611ca26033546001600160a01b031690565b6065549091506001600160a01b0316611cba81612935565b606580546001600160a01b0319169055604080516001600160a01b0384168152600060208201527f70aea8d848e8a90fb7661b227dc522eb6395c3dac71b63cb59edd5c9899b2364910160405180910390a1606554604080516001600160a01b03808516825290921660208301527fb3d55174552271a4f1aaf36b72f50381e892171636b3fb5447fe00e995e7a37b910161119a565b600080611d5c60995490565b90508015611d7d57611d78611d6f61078e565b85908386612987565b611d7f565b835b949350505050565b6001600160a01b038316611de95760405162461bcd60e51b8152602060048201526024808201527f45524332303a20617070726f76652066726f6d20746865207a65726f206164646044820152637265737360e01b6064820152608401610b8e565b6001600160a01b038216611e4a5760405162461bcd60e51b815260206004820152602260248201527f45524332303a20617070726f766520746f20746865207a65726f206164647265604482015261737360f01b6064820152608401610b8e565b6001600160a01b0383811660008181526098602090815260408083209487168084529482529182902085905590518481527f8c5be1e5ebec7d5bd14f71427d1e84f3dd0314c0f7b2291e5b200ac8c7c3b925910160405180910390a3505050565b600080611eb760995490565b9050831580611ec4575080155b611d7d57611d7881611ed461078e565b86919086612987565b6033546001600160a01b03163314610cb55760405162461bcd60e51b815260206004820181905260248201527f4f776e61626c653a2063616c6c6572206973206e6f7420746865206f776e65726044820152606401610b8e565b6001600160a01b038216611f975760405162461bcd60e51b815260206004820152602160248201527f45524332303a206275726e2066726f6d20746865207a65726f206164647265736044820152607360f81b6064820152608401610b8e565b6001600160a01b0382166000908152609760205260409020548181101561200b5760405162461bcd60e51b815260206004820152602260248201527f45524332303a206275726e20616d6f756e7420657863656564732062616c616e604482015261636560f01b6064820152608401610b8e565b6001600160a01b03831660008181526097602090815260408083208686039055609980548790039055518581529192917fddf252ad1be2c89b69c2b068fc378daa952ba7f163c4a11628f55a4df523b3ef910160405180910390a3505050565b6001600160a01b0382166120c15760405162461bcd60e51b815260206004820152601f60248201527f45524332303a206d696e7420746f20746865207a65726f2061646472657373006044820152606401610b8e565b80609960008282546120d39190613331565b90915550506001600160a01b0382166000818152609760209081526040808320805486019055518481527fddf252ad1be2c89b69c2b068fc378daa952ba7f163c4a11628f55a4df523b3ef910160405180910390a35050565b60006121388484611c11565b9050600019811461169357818110156121935760405162461bcd60e51b815260206004820152601d60248201527f45524332303a20696e73756666696369656e7420616c6c6f77616e63650000006044820152606401610b8e565b6116938484848403611d87565b6001600160a01b0383166122045760405162461bcd60e51b815260206004820152602560248201527f45524332303a207472616e736665722066726f6d20746865207a65726f206164604482015264647265737360d81b6064820152608401610b8e565b6001600160a01b0382166122665760405162461bcd60e51b815260206004820152602360248201527f45524332303a207472616e7366657220746f20746865207a65726f206164647260448201526265737360e81b6064820152608401610b8e565b6001600160a01b038316600090815260976020526040902054818110156122de5760405162461bcd60e51b815260206004820152602660248201527f45524332303a207472616e7366657220616d6f756e7420657863656564732062604482015265616c616e636560d01b6064820152608401610b8e565b6001600160a01b0380851660008181526097602052604080822086860390559286168082529083902080548601905591517fddf252ad1be2c89b69c2b068fc378daa952ba7f163c4a11628f55a4df523b3ef9061233e9086815260200190565b60405180910390a3611693565b612353612434565b6065805460ff60a01b1916600160a01b1790557f62e78cea01bee320cd4e420270b5ea74000d11b0c9f74754ebdbfc544b05a25861238e3390565b6040516001600160a01b03909116815260200160405180910390a1565b6123b3612717565b6065805460ff60a01b191690557f5db9ee0a495bf2e6ff9c91a7834c1ba4fdd244a5e8aa4e537bd38aeae4b073aa3361238e565b6000806123f261078e565b11806108905750506099541590565b600061089060c9546001600160a01b031690565b82820281151584158583048514171661242d57600080fd5b0492915050565b606554600160a01b900460ff1615610cb55760405162461bcd60e51b815260206004820152601060248201526f14185d5cd8589b194e881c185d5cd95960821b6044820152606401610b8e565b6040516001600160a01b03808516602483015283166044820152606481018290526116939085906323b872dd60e01b906084015b60408051601f198184030181529190526020810180516001600160e01b03166001600160e01b0319909316929092179091526129e4565b60c9546001600160a01b031660fe5460405163095ea7b360e01b81526001600160a01b0391821660048201526024810185905291169063095ea7b3906044016020604051808303816000875af115801561254a573d6000803e3d6000fd5b505050506040513d601f19601f8201168201806040525081019061256e91906134ae565b5060fe5460405163140e25ad60e31b8152600481018490526001600160a01b039091169063a0712d68906024016020604051808303816000875af11580156125ba573d6000803e3d6000fd5b505050506040513d601f19601f820116820180604052508101906125de9190613270565b1561155d5760405162461bcd60e51b815260206004820152601860248201527f6465706f73697420746f206d61726b6574206661696c656400000000000000006044820152606401610b8e565b60fe5460405163852a12e360e01b8152600481018490526001600160a01b039091169063852a12e3906024016020604051808303816000875af1158015612676573d6000803e3d6000fd5b505050506040513d601f19601f8201168201806040525081019061269a9190613270565b1561155d5760405162461bcd60e51b815260206004820152601960248201527f72656465656d2066726f6d206d61726b6574206661696c6564000000000000006044820152606401610b8e565b6040516001600160a01b038316602482015260448101829052611b3d90849063a9059cbb60e01b906064016124b5565b606554600160a01b900460ff16610cb55760405162461bcd60e51b815260206004820152601460248201527314185d5cd8589b194e881b9bdd081c185d5cd95960621b6044820152606401610b8e565b600054610100900460ff1661278e5760405162461bcd60e51b8152600401610b8e906134ed565b61279733612ab6565b61279f612aee565b6127a7612b1d565b6128b9816001600160a01b03166306fdde036040518163ffffffff1660e01b8152600401600060405180830381865afa1580156127e8573d6000803e3d6000fd5b505050506040513d6000823e601f3d908101601f19168201604052612810919081019061354e565b60405160200161282091906135f0565b604051602081830303815290604052826001600160a01b03166395d89b416040518163ffffffff1660e01b8152600401600060405180830381865afa15801561286d573d6000803e3d6000fd5b505050506040513d6000823e601f3d908101601f19168201604052612895919081019061354e565b6040516020016128a5919061362e565b604051602081830303815290604052612b44565b6128c281612b75565b806001600160a01b031663313ce5676040518163ffffffff1660e01b8152600401602060405180830381865afa158015612900573d6000803e3d6000fd5b505050506040513d601f19601f820116820180604052508101906129249190613349565b61292f90600a613450565b60fb5550565b603380546001600160a01b038381166001600160a01b0319831681179093556040519116919082907f8be0079c531659141344cd1fd0a4f28419497f9722a3daafe3b4186f6b6457e090600090a35050565b600080612995868686612ba5565b905060018360028111156129ab576129ab613658565b1480156129c85750600084806129c3576129c36132be565b868809115b156129db576129d8600182613331565b90505b95945050505050565b6000612a39826040518060400160405280602081526020017f5361666545524332303a206c6f772d6c6576656c2063616c6c206661696c6564815250856001600160a01b0316612c559092919063ffffffff16565b805190915015611b3d5780806020019051810190612a5791906134ae565b611b3d5760405162461bcd60e51b815260206004820152602a60248201527f5361666545524332303a204552433230206f7065726174696f6e20646964206e6044820152691bdd081cdd58d8d9595960b21b6064820152608401610b8e565b600054610100900460ff16612add5760405162461bcd60e51b8152600401610b8e906134ed565b612ae5612c64565b61137a81612935565b600054610100900460ff16612b155760405162461bcd60e51b8152600401610b8e906134ed565b610cb5612c93565b600054610100900460ff16610cb55760405162461bcd60e51b8152600401610b8e906134ed565b600054610100900460ff16612b6b5760405162461bcd60e51b8152600401610b8e906134ed565b61155d8282612cc9565b600054610100900460ff16612b9c5760405162461bcd60e51b8152600401610b8e906134ed565b61137a81612d17565b600080806000198587098587029250828110838203039150508060001415612be057838281612bd657612bd66132be565b0492505050610b3c565b808411612bec57600080fd5b60008486880960026001871981018816978890046003810283188082028403028082028403028082028403028082028403028082028403029081029092039091026000889003889004909101858311909403939093029303949094049190911702949350505050565b6060611d7f8484600085612d9c565b600054610100900460ff16612c8b5760405162461bcd60e51b8152600401610b8e906134ed565b610cb5612e77565b600054610100900460ff16612cba5760405162461bcd60e51b8152600401610b8e906134ed565b6065805460ff60a01b19169055565b600054610100900460ff16612cf05760405162461bcd60e51b8152600401610b8e906134ed565b8151612d0390609a906020850190613020565b508051611b3d90609b906020840190613020565b600054610100900460ff16612d3e5760405162461bcd60e51b8152600401610b8e906134ed565b600080612d4a83612ea7565b9150915081612d5a576012612d5c565b805b60c980546001600160a01b039095166001600160a01b031960ff93909316600160a01b02929092166001600160a81b031990951694909417179092555050565b606082471015612dfd5760405162461bcd60e51b815260206004820152602660248201527f416464726573733a20696e73756666696369656e742062616c616e636520666f6044820152651c8818d85b1b60d21b6064820152608401610b8e565b600080866001600160a01b03168587604051612e19919061366e565b60006040518083038185875af1925050503d8060008114612e56576040519150601f19603f3d011682016040523d82523d6000602084013e612e5b565b606091505b5091509150612e6c87838387612f85565b979650505050505050565b600054610100900460ff16612e9e5760405162461bcd60e51b8152600401610b8e906134ed565b610cb533612935565b60408051600481526024810182526020810180516001600160e01b031663313ce56760e01b17905290516000918291829182916001600160a01b03871691612eee9161366e565b6000604051808303816000865af19150503d8060008114612f2b576040519150601f19603f3d011682016040523d82523d6000602084013e612f30565b606091505b5091509150818015612f4457506020815110155b15612f7857600081806020019051810190612f5f9190613270565b905060ff8111612f76576001969095509350505050565b505b5060009485945092505050565b60608315612ff1578251612fea576001600160a01b0385163b612fea5760405162461bcd60e51b815260206004820152601d60248201527f416464726573733a2063616c6c20746f206e6f6e2d636f6e74726163740000006044820152606401610b8e565b5081611d7f565b611d7f83838151156130065781518083602001fd5b8060405162461bcd60e51b8152600401610b8e91906130e5565b82805461302c906132f6565b90600052602060002090601f01602090048101928261304e5760008555613094565b82601f1061306757805160ff1916838001178555613094565b82800160010185558215613094579182015b82811115613094578251825591602001919060010190613079565b506130a09291506130a4565b5090565b5b808211156130a057600081556001016130a5565b60005b838110156130d45781810151838201526020016130bc565b838111156116935750506000910152565b60208152600082518060208401526131048160408501602087016130b9565b601f01601f19169190910160400192915050565b60006020828403121561312a57600080fd5b5035919050565b6001600160a01b038116811461137a57600080fd5b6000806040838503121561315957600080fd5b823561316481613131565b946020939093013593505050565b6000806040838503121561318557600080fd5b82359150602083013561319781613131565b809150509250929050565b6000806000606084860312156131b757600080fd5b83356131c281613131565b925060208401356131d281613131565b929592945050506040919091013590565b6000602082840312156131f557600080fd5b8135610b3c81613131565b60008060006060848603121561321557600080fd5b83359250602084013561322781613131565b9150604084013561323781613131565b809150509250925092565b6000806040838503121561325557600080fd5b823561326081613131565b9150602083013561319781613131565b60006020828403121561328257600080fd5b5051919050565b634e487b7160e01b600052601160045260246000fd5b60008160001904831182151516156132b9576132b9613289565b500290565b634e487b7160e01b600052601260045260246000fd5b6000826132f157634e487b7160e01b600052601260045260246000fd5b500490565b600181811c9082168061330a57607f821691505b6020821081141561332b57634e487b7160e01b600052602260045260246000fd5b50919050565b6000821982111561334457613344613289565b500190565b60006020828403121561335b57600080fd5b815160ff81168114610b3c57600080fd5b600181815b808511156133a757816000190482111561338d5761338d613289565b8085161561339a57918102915b93841c9390800290613371565b509250929050565b6000826133be57506001610934565b816133cb57506000610934565b81600181146133e157600281146133eb57613407565b6001915050610934565b60ff8411156133fc576133fc613289565b50506001821b610934565b5060208310610133831016604e8410600b841016171561342a575081810a610934565b613434838361336c565b806000190482111561344857613448613289565b029392505050565b6000610b3c60ff8416836133af565b60008282101561347157613471613289565b500390565b6f026b4b230b99027b83a34b6b4bd32b2160851b8152600082516134a18160108501602087016130b9565b9190910160100192915050565b6000602082840312156134c057600080fd5b81518015158114610b3c57600080fd5b6000602082840312156134e257600080fd5b8151610b3c81613131565b6020808252602b908201527f496e697469616c697a61626c653a20636f6e7472616374206973206e6f74206960408201526a6e697469616c697a696e6760a81b606082015260800190565b634e487b7160e01b600052604160045260246000fd5b60006020828403121561356057600080fd5b815167ffffffffffffffff8082111561357857600080fd5b818401915084601f83011261358c57600080fd5b81518181111561359e5761359e613538565b604051601f8201601f19908116603f011681019083821181831017156135c6576135c6613538565b816040528281528760208487010111156135df57600080fd5b612e6c8360208301602088016130b9565b65026b4b230b9960d51b8152600082516136118160068501602087016130b9565b650815985d5b1d60d21b6006939091019283015250600c01919050565b6136bb60f11b81526000825161364b8160028501602087016130b9565b9190910160020192915050565b634e487b7160e01b600052602160045260246000fd5b600082516136808184602087016130b9565b919091019291505056fea164736f6c634300080a000a",
    "linkReferences": {}
  },
  "methodIdentifiers": {
    "_acceptOwner()": "fc4d33f9",
    "_setPendingOwner(address)": "6e96dfd7",
    "allowance(address,address)": "dd62ed3e",
    "approve(address,uint256)": "095ea7b3",
    "apr()": "57ded9c9",
    "aprAfterDeposit(uint256)": "149a4ae4",
    "aprAfterWithdraw(uint256)": "5470eaad",
    "asset()": "38d52e0f",
    "balanceOf(address)": "70a08231",
    "balanceOfUnderlying(address)": "3af9e669",
    "blocksPerYear()": "a385fb96",
    "convertToAssets(uint256)": "07a2d13a",
    "convertToShares(uint256)": "c6e6f592",
    "decimals()": "313ce567",
    "decreaseAllowance(address,uint256)": "a457c2d7",
    "deposit()": "d0e30db0",
    "deposit(uint256)": "b6b55f25",
    "deposit(uint256,address)": "6e553f65",
    "emergencyWithdrawAndPause()": "28357978",
    "feeRecipient()": "46904840",
    "hasAssets()": "5be9b2d3",
    "increaseAllowance(address,uint256)": "39509351",
    "initialize(address,uint256)": "cd6dc687",
    "lenderName()": "8b202176",
    "market()": "80f55605",
    "maxDeposit(address)": "402d267d",
    "maxMint(address)": "c63d75b6",
    "maxRedeem(address)": "d905777e",
    "maxWithdraw(address)": "ce96cb77",
    "mint(uint256,address)": "94bf804d",
    "name()": "06fdde03",
    "nav()": "c1590cd7",
    "owner()": "8da5cb5b",
    "paused()": "5c975abb",
    "pendingOwner()": "e30c3978",
    "performanceFee()": "87788782",
    "previewDeposit(uint256)": "ef8b30f7",
    "previewMint(uint256)": "b3d7f6b9",
    "previewRedeem(uint256)": "4cdad506",
    "previewWithdraw(uint256)": "0a28a477",
    "redeem(uint256,address,address)": "ba087652",
    "renounceOwnership()": "715018a6",
    "shutdown(address)": "cce2f3fb",
    "sweep(address,address)": "b8dc491b",
    "symbol()": "95d89b41",
    "takePerformanceFee()": "56f89ef9",
    "totalAssets()": "01e1d114",
    "totalSupply()": "18160ddd",
    "transfer(address,uint256)": "a9059cbb",
    "transferFrom(address,address,uint256)": "23b872dd",
    "transferOwnership(address)": "f2fde38b",
    "underlyingBalanceStored()": "c6afba3c",
    "unpause()": "3f4ba83a",
    "updateFeeSettings(uint256,address)": "10509aa9",
    "vaultShareHWM()": "211493c9",
    "weightedApr()": "116ac4a3",
    "weightedAprAfterDeposit(uint256)": "66d4d295",
    "withdraw(uint256)": "2e1a7d4d",
    "withdraw(uint256,address,address)": "b460af94",
    "withdrawAccruedFees()": "ada82c7d",
    "withdrawAll()": "853828b6"
  }
}