{
  "address": "0xDD50016bfa513860cf886935479F8750E01bb89D",
  "abi": [
    {
      "inputs": [
        {
          "internalType": "address payable",
          "name": "_fuseAdmin",
          "type": "address"
        }
      ],
      "stateMutability": "nonpayable",
      "type": "constructor"
    },
    {
      "inputs": [
        {
          "internalType": "bytes4",
          "name": "_functionSelector",
          "type": "bytes4"
        }
      ],
      "name": "ExtensionNotFound",
      "type": "error"
    },
    {
      "inputs": [
        {
          "internalType": "bytes4",
          "name": "_functionSelector",
          "type": "bytes4"
        },
        {
          "internalType": "address",
          "name": "_currentImpl",
          "type": "address"
        }
      ],
      "name": "FunctionAlreadyAdded",
      "type": "error"
    },
    {
      "inputs": [
        {
          "internalType": "bytes4",
          "name": "_functionSelector",
          "type": "bytes4"
        }
      ],
      "name": "FunctionNotFound",
      "type": "error"
    },
    {
      "anonymous": false,
      "inputs": [
        {
          "indexed": false,
          "internalType": "address",
          "name": "rewardsDistributor",
          "type": "address"
        }
      ],
      "name": "AddedRewardsDistributor",
      "type": "event"
    },
    {
      "anonymous": false,
      "inputs": [
        {
          "indexed": false,
          "internalType": "bool",
          "name": "enabled",
          "type": "bool"
        }
      ],
      "name": "AutoImplementationsToggled",
      "type": "event"
    },
    {
      "anonymous": false,
      "inputs": [
        {
          "indexed": false,
          "internalType": "uint256",
          "name": "error",
          "type": "uint256"
        },
        {
          "indexed": false,
          "internalType": "uint256",
          "name": "info",
          "type": "uint256"
        },
        {
          "indexed": false,
          "internalType": "uint256",
          "name": "detail",
          "type": "uint256"
        }
      ],
      "name": "Failure",
      "type": "event"
    },
    {
      "anonymous": false,
      "inputs": [
        {
          "indexed": false,
          "internalType": "contract CTokenInterface",
          "name": "cToken",
          "type": "address"
        },
        {
          "indexed": false,
          "internalType": "address",
          "name": "account",
          "type": "address"
        }
      ],
      "name": "MarketEntered",
      "type": "event"
    },
    {
      "anonymous": false,
      "inputs": [
        {
          "indexed": false,
          "internalType": "contract CTokenInterface",
          "name": "cToken",
          "type": "address"
        },
        {
          "indexed": false,
          "internalType": "address",
          "name": "account",
          "type": "address"
        }
      ],
      "name": "MarketExited",
      "type": "event"
    },
    {
      "anonymous": false,
      "inputs": [
        {
          "indexed": false,
          "internalType": "contract CTokenInterface",
          "name": "cToken",
          "type": "address"
        }
      ],
      "name": "MarketListed",
      "type": "event"
    },
    {
      "anonymous": false,
      "inputs": [
        {
          "indexed": false,
          "internalType": "uint256",
          "name": "oldCloseFactorMantissa",
          "type": "uint256"
        },
        {
          "indexed": false,
          "internalType": "uint256",
          "name": "newCloseFactorMantissa",
          "type": "uint256"
        }
      ],
      "name": "NewCloseFactor",
      "type": "event"
    },
    {
      "anonymous": false,
      "inputs": [
        {
          "indexed": false,
          "internalType": "contract CTokenInterface",
          "name": "cToken",
          "type": "address"
        },
        {
          "indexed": false,
          "internalType": "uint256",
          "name": "oldCollateralFactorMantissa",
          "type": "uint256"
        },
        {
          "indexed": false,
          "internalType": "uint256",
          "name": "newCollateralFactorMantissa",
          "type": "uint256"
        }
      ],
      "name": "NewCollateralFactor",
      "type": "event"
    },
    {
      "anonymous": false,
      "inputs": [
        {
          "indexed": false,
          "internalType": "uint256",
          "name": "oldLiquidationIncentiveMantissa",
          "type": "uint256"
        },
        {
          "indexed": false,
          "internalType": "uint256",
          "name": "newLiquidationIncentiveMantissa",
          "type": "uint256"
        }
      ],
      "name": "NewLiquidationIncentive",
      "type": "event"
    },
    {
      "anonymous": false,
      "inputs": [
        {
          "indexed": false,
          "internalType": "contract PriceOracle",
          "name": "oldPriceOracle",
          "type": "address"
        },
        {
          "indexed": false,
          "internalType": "contract PriceOracle",
          "name": "newPriceOracle",
          "type": "address"
        }
      ],
      "name": "NewPriceOracle",
      "type": "event"
    },
    {
      "anonymous": false,
      "inputs": [
        {
          "indexed": false,
          "internalType": "bool",
          "name": "enforce",
          "type": "bool"
        }
      ],
      "name": "WhitelistEnforcementChanged",
      "type": "event"
    },
    {
      "stateMutability": "nonpayable",
      "type": "fallback"
    },
    {
      "inputs": [
        {
          "internalType": "address",
          "name": "distributor",
          "type": "address"
        }
      ],
      "name": "_addRewardsDistributor",
      "outputs": [
        {
          "internalType": "uint256",
          "name": "",
          "type": "uint256"
        }
      ],
      "stateMutability": "nonpayable",
      "type": "function"
    },
    {
      "inputs": [],
      "name": "_afterNonReentrant",
      "outputs": [],
      "stateMutability": "nonpayable",
      "type": "function"
    },
    {
      "inputs": [
        {
          "internalType": "contract Unitroller",
          "name": "unitroller",
          "type": "address"
        }
      ],
      "name": "_become",
      "outputs": [],
      "stateMutability": "nonpayable",
      "type": "function"
    },
    {
      "inputs": [],
      "name": "_becomeImplementation",
      "outputs": [],
      "stateMutability": "nonpayable",
      "type": "function"
    },
    {
      "inputs": [],
      "name": "_beforeNonReentrant",
      "outputs": [],
      "stateMutability": "nonpayable",
      "type": "function"
    },
    {
      "inputs": [],
      "name": "_borrowGuardianPaused",
      "outputs": [
        {
          "internalType": "bool",
          "name": "",
          "type": "bool"
        }
      ],
      "stateMutability": "view",
      "type": "function"
    },
    {
      "inputs": [
        {
          "internalType": "bool",
          "name": "isCEther",
          "type": "bool"
        },
        {
          "internalType": "bytes",
          "name": "constructorData",
          "type": "bytes"
        },
        {
          "internalType": "uint256",
          "name": "collateralFactorMantissa",
          "type": "uint256"
        }
      ],
      "name": "_deployMarket",
      "outputs": [
        {
          "internalType": "uint256",
          "name": "",
          "type": "uint256"
        }
      ],
      "stateMutability": "nonpayable",
      "type": "function"
    },
    {
      "inputs": [],
      "name": "_listExtensions",
      "outputs": [
        {
          "internalType": "address[]",
          "name": "",
          "type": "address[]"
        }
      ],
      "stateMutability": "view",
      "type": "function"
    },
    {
      "inputs": [],
      "name": "_mintGuardianPaused",
      "outputs": [
        {
          "internalType": "bool",
          "name": "",
          "type": "bool"
        }
      ],
      "stateMutability": "view",
      "type": "function"
    },
    {
      "inputs": [
        {
          "internalType": "contract DiamondExtension",
          "name": "extensionToAdd",
          "type": "address"
        },
        {
          "internalType": "contract DiamondExtension",
          "name": "extensionToReplace",
          "type": "address"
        }
      ],
      "name": "_registerExtension",
      "outputs": [],
      "stateMutability": "nonpayable",
      "type": "function"
    },
    {
      "inputs": [
        {
          "internalType": "uint256",
          "name": "newCloseFactorMantissa",
          "type": "uint256"
        }
      ],
      "name": "_setCloseFactor",
      "outputs": [
        {
          "internalType": "uint256",
          "name": "",
          "type": "uint256"
        }
      ],
      "stateMutability": "nonpayable",
      "type": "function"
    },
    {
      "inputs": [
        {
          "internalType": "contract CTokenInterface",
          "name": "cToken",
          "type": "address"
        },
        {
          "internalType": "uint256",
          "name": "newCollateralFactorMantissa",
          "type": "uint256"
        }
      ],
      "name": "_setCollateralFactor",
      "outputs": [
        {
          "internalType": "uint256",
          "name": "",
          "type": "uint256"
        }
      ],
      "stateMutability": "nonpayable",
      "type": "function"
    },
    {
      "inputs": [
        {
          "internalType": "uint256",
          "name": "newLiquidationIncentiveMantissa",
          "type": "uint256"
        }
      ],
      "name": "_setLiquidationIncentive",
      "outputs": [
        {
          "internalType": "uint256",
          "name": "",
          "type": "uint256"
        }
      ],
      "stateMutability": "nonpayable",
      "type": "function"
    },
    {
      "inputs": [
        {
          "internalType": "contract PriceOracle",
          "name": "newOracle",
          "type": "address"
        }
      ],
      "name": "_setPriceOracle",
      "outputs": [
        {
          "internalType": "uint256",
          "name": "",
          "type": "uint256"
        }
      ],
      "stateMutability": "nonpayable",
      "type": "function"
    },
    {
      "inputs": [
        {
          "internalType": "bool",
          "name": "enforce",
          "type": "bool"
        }
      ],
      "name": "_setWhitelistEnforcement",
      "outputs": [
        {
          "internalType": "uint256",
          "name": "",
          "type": "uint256"
        }
      ],
      "stateMutability": "nonpayable",
      "type": "function"
    },
    {
      "inputs": [
        {
          "internalType": "address[]",
          "name": "suppliers",
          "type": "address[]"
        },
        {
          "internalType": "bool[]",
          "name": "statuses",
          "type": "bool[]"
        }
      ],
      "name": "_setWhitelistStatuses",
      "outputs": [
        {
          "internalType": "uint256",
          "name": "",
          "type": "uint256"
        }
      ],
      "stateMutability": "nonpayable",
      "type": "function"
    },
    {
      "inputs": [
        {
          "internalType": "bool",
          "name": "enabled",
          "type": "bool"
        }
      ],
      "name": "_toggleAutoImplementations",
      "outputs": [
        {
          "internalType": "uint256",
          "name": "",
          "type": "uint256"
        }
      ],
      "stateMutability": "nonpayable",
      "type": "function"
    },
    {
      "inputs": [
        {
          "internalType": "address",
          "name": "",
          "type": "address"
        },
        {
          "internalType": "uint256",
          "name": "",
          "type": "uint256"
        }
      ],
      "name": "accountAssets",
      "outputs": [
        {
          "internalType": "contract CTokenInterface",
          "name": "",
          "type": "address"
        }
      ],
      "stateMutability": "view",
      "type": "function"
    },
    {
      "inputs": [],
      "name": "admin",
      "outputs": [
        {
          "internalType": "address",
          "name": "",
          "type": "address"
        }
      ],
      "stateMutability": "view",
      "type": "function"
    },
    {
      "inputs": [],
      "name": "adminHasRights",
      "outputs": [
        {
          "internalType": "bool",
          "name": "",
          "type": "bool"
        }
      ],
      "stateMutability": "view",
      "type": "function"
    },
    {
      "inputs": [
        {
          "internalType": "uint256",
          "name": "",
          "type": "uint256"
        }
      ],
      "name": "allBorrowers",
      "outputs": [
        {
          "internalType": "address",
          "name": "",
          "type": "address"
        }
      ],
      "stateMutability": "view",
      "type": "function"
    },
    {
      "inputs": [
        {
          "internalType": "uint256",
          "name": "",
          "type": "uint256"
        }
      ],
      "name": "allMarkets",
      "outputs": [
        {
          "internalType": "contract CTokenInterface",
          "name": "",
          "type": "address"
        }
      ],
      "stateMutability": "view",
      "type": "function"
    },
    {
      "inputs": [],
      "name": "asComptrollerFirstExtension",
      "outputs": [
        {
          "internalType": "contract ComptrollerFirstExtension",
          "name": "",
          "type": "address"
        }
      ],
      "stateMutability": "view",
      "type": "function"
    },
    {
      "inputs": [],
      "name": "autoImplementation",
      "outputs": [
        {
          "internalType": "bool",
          "name": "",
          "type": "bool"
        }
      ],
      "stateMutability": "view",
      "type": "function"
    },
    {
      "inputs": [
        {
          "internalType": "address",
          "name": "cToken",
          "type": "address"
        },
        {
          "internalType": "address",
          "name": "borrower",
          "type": "address"
        },
        {
          "internalType": "uint256",
          "name": "borrowAmount",
          "type": "uint256"
        }
      ],
      "name": "borrowAllowed",
      "outputs": [
        {
          "internalType": "uint256",
          "name": "",
          "type": "uint256"
        }
      ],
      "stateMutability": "nonpayable",
      "type": "function"
    },
    {
      "inputs": [
        {
          "internalType": "address",
          "name": "",
          "type": "address"
        },
        {
          "internalType": "address",
          "name": "",
          "type": "address"
        }
      ],
      "name": "borrowCapForCollateral",
      "outputs": [
        {
          "internalType": "uint256",
          "name": "",
          "type": "uint256"
        }
      ],
      "stateMutability": "view",
      "type": "function"
    },
    {
      "inputs": [
        {
          "internalType": "address",
          "name": "",
          "type": "address"
        },
        {
          "internalType": "address",
          "name": "",
          "type": "address"
        },
        {
          "internalType": "address",
          "name": "",
          "type": "address"
        }
      ],
      "name": "borrowCapForCollateralWhitelist",
      "outputs": [
        {
          "internalType": "bool",
          "name": "",
          "type": "bool"
        }
      ],
      "stateMutability": "view",
      "type": "function"
    },
    {
      "inputs": [],
      "name": "borrowCapGuardian",
      "outputs": [
        {
          "internalType": "address",
          "name": "",
          "type": "address"
        }
      ],
      "stateMutability": "view",
      "type": "function"
    },
    {
      "inputs": [
        {
          "internalType": "address",
          "name": "",
          "type": "address"
        },
        {
          "internalType": "address",
          "name": "",
          "type": "address"
        }
      ],
      "name": "borrowCapWhitelist",
      "outputs": [
        {
          "internalType": "bool",
          "name": "",
          "type": "bool"
        }
      ],
      "stateMutability": "view",
      "type": "function"
    },
    {
      "inputs": [
        {
          "internalType": "address",
          "name": "",
          "type": "address"
        }
      ],
      "name": "borrowCaps",
      "outputs": [
        {
          "internalType": "uint256",
          "name": "",
          "type": "uint256"
        }
      ],
      "stateMutability": "view",
      "type": "function"
    },
    {
      "inputs": [
        {
          "internalType": "address",
          "name": "",
          "type": "address"
        }
      ],
      "name": "borrowGuardianPaused",
      "outputs": [
        {
          "internalType": "bool",
          "name": "",
          "type": "bool"
        }
      ],
      "stateMutability": "view",
      "type": "function"
    },
    {
      "inputs": [
        {
          "internalType": "address",
          "name": "cToken",
          "type": "address"
        },
        {
          "internalType": "uint256",
          "name": "accountBorrowsNew",
          "type": "uint256"
        }
      ],
      "name": "borrowWithinLimits",
      "outputs": [
        {
          "internalType": "uint256",
          "name": "",
          "type": "uint256"
        }
      ],
      "stateMutability": "view",
      "type": "function"
    },
    {
      "inputs": [
        {
          "internalType": "address",
          "name": "",
          "type": "address"
        },
        {
          "internalType": "address",
          "name": "",
          "type": "address"
        }
      ],
      "name": "borrowingAgainstCollateralBlacklist",
      "outputs": [
        {
          "internalType": "bool",
          "name": "",
          "type": "bool"
        }
      ],
      "stateMutability": "view",
      "type": "function"
    },
    {
      "inputs": [
        {
          "internalType": "address",
          "name": "",
          "type": "address"
        },
        {
          "internalType": "address",
          "name": "",
          "type": "address"
        },
        {
          "internalType": "address",
          "name": "",
          "type": "address"
        }
      ],
      "name": "borrowingAgainstCollateralBlacklistWhitelist",
      "outputs": [
        {
          "internalType": "bool",
          "name": "",
          "type": "bool"
        }
      ],
      "stateMutability": "view",
      "type": "function"
    },
    {
      "inputs": [
        {
          "internalType": "address",
          "name": "",
          "type": "address"
        }
      ],
      "name": "cTokensByUnderlying",
      "outputs": [
        {
          "internalType": "contract CTokenInterface",
          "name": "",
          "type": "address"
        }
      ],
      "stateMutability": "view",
      "type": "function"
    },
    {
      "inputs": [
        {
          "internalType": "address",
          "name": "account",
          "type": "address"
        },
        {
          "internalType": "contract CTokenInterface",
          "name": "cToken",
          "type": "address"
        }
      ],
      "name": "checkMembership",
      "outputs": [
        {
          "internalType": "bool",
          "name": "",
          "type": "bool"
        }
      ],
      "stateMutability": "view",
      "type": "function"
    },
    {
      "inputs": [],
      "name": "closeFactorMantissa",
      "outputs": [
        {
          "internalType": "uint256",
          "name": "",
          "type": "uint256"
        }
      ],
      "stateMutability": "view",
      "type": "function"
    },
    {
      "inputs": [],
      "name": "comptrollerImplementation",
      "outputs": [
        {
          "internalType": "address",
          "name": "",
          "type": "address"
        }
      ],
      "stateMutability": "view",
      "type": "function"
    },
    {
      "inputs": [],
      "name": "enforceWhitelist",
      "outputs": [
        {
          "internalType": "bool",
          "name": "",
          "type": "bool"
        }
      ],
      "stateMutability": "view",
      "type": "function"
    },
    {
      "inputs": [
        {
          "internalType": "address[]",
          "name": "cTokens",
          "type": "address[]"
        }
      ],
      "name": "enterMarkets",
      "outputs": [
        {
          "internalType": "uint256[]",
          "name": "",
          "type": "uint256[]"
        }
      ],
      "stateMutability": "nonpayable",
      "type": "function"
    },
    {
      "inputs": [
        {
          "internalType": "address",
          "name": "cTokenAddress",
          "type": "address"
        }
      ],
      "name": "exitMarket",
      "outputs": [
        {
          "internalType": "uint256",
          "name": "",
          "type": "uint256"
        }
      ],
      "stateMutability": "nonpayable",
      "type": "function"
    },
    {
      "inputs": [],
      "name": "fuseAdmin",
      "outputs": [
        {
          "internalType": "address payable",
          "name": "",
          "type": "address"
        }
      ],
      "stateMutability": "view",
      "type": "function"
    },
    {
      "inputs": [],
      "name": "fuseAdminHasRights",
      "outputs": [
        {
          "internalType": "bool",
          "name": "",
          "type": "bool"
        }
      ],
      "stateMutability": "view",
      "type": "function"
    },
    {
      "inputs": [
        {
          "internalType": "address",
          "name": "account",
          "type": "address"
        }
      ],
      "name": "getAccountLiquidity",
      "outputs": [
        {
          "internalType": "uint256",
          "name": "",
          "type": "uint256"
        },
        {
          "internalType": "uint256",
          "name": "",
          "type": "uint256"
        },
        {
          "internalType": "uint256",
          "name": "",
          "type": "uint256"
        }
      ],
      "stateMutability": "view",
      "type": "function"
    },
    {
      "inputs": [
        {
          "internalType": "address",
          "name": "account",
          "type": "address"
        }
      ],
      "name": "getAssetsIn",
      "outputs": [
        {
          "internalType": "contract CTokenInterface[]",
          "name": "",
          "type": "address[]"
        }
      ],
      "stateMutability": "view",
      "type": "function"
    },
    {
      "inputs": [
        {
          "internalType": "address",
          "name": "account",
          "type": "address"
        },
        {
          "internalType": "address",
          "name": "cTokenModify",
          "type": "address"
        },
        {
          "internalType": "uint256",
          "name": "redeemTokens",
          "type": "uint256"
        },
        {
          "internalType": "uint256",
          "name": "borrowAmount",
          "type": "uint256"
        }
      ],
      "name": "getHypotheticalAccountLiquidity",
      "outputs": [
        {
          "internalType": "uint256",
          "name": "",
          "type": "uint256"
        },
        {
          "internalType": "uint256",
          "name": "",
          "type": "uint256"
        },
        {
          "internalType": "uint256",
          "name": "",
          "type": "uint256"
        }
      ],
      "stateMutability": "view",
      "type": "function"
    },
    {
      "inputs": [
        {
          "internalType": "address",
          "name": "account",
          "type": "address"
        },
        {
          "internalType": "address",
          "name": "cToken",
          "type": "address"
        },
        {
          "internalType": "bool",
          "name": "isBorrow",
          "type": "bool"
        }
      ],
      "name": "getMaxRedeemOrBorrow",
      "outputs": [
        {
          "internalType": "uint256",
          "name": "",
          "type": "uint256"
        }
      ],
      "stateMutability": "nonpayable",
      "type": "function"
    },
    {
      "inputs": [],
      "name": "isComptroller",
      "outputs": [
        {
          "internalType": "bool",
          "name": "",
          "type": "bool"
        }
      ],
      "stateMutability": "view",
      "type": "function"
    },
    {
      "inputs": [
        {
          "internalType": "contract CTokenInterface",
          "name": "cToken",
          "type": "address"
        }
      ],
      "name": "isDeprecated",
      "outputs": [
        {
          "internalType": "bool",
          "name": "",
          "type": "bool"
        }
      ],
      "stateMutability": "view",
      "type": "function"
    },
    {
      "inputs": [
        {
          "internalType": "address",
          "name": "cTokenBorrowed",
          "type": "address"
        },
        {
          "internalType": "address",
          "name": "cTokenCollateral",
          "type": "address"
        },
        {
          "internalType": "address",
          "name": "liquidator",
          "type": "address"
        },
        {
          "internalType": "address",
          "name": "borrower",
          "type": "address"
        },
        {
          "internalType": "uint256",
          "name": "repayAmount",
          "type": "uint256"
        }
      ],
      "name": "liquidateBorrowAllowed",
      "outputs": [
        {
          "internalType": "uint256",
          "name": "",
          "type": "uint256"
        }
      ],
      "stateMutability": "nonpayable",
      "type": "function"
    },
    {
      "inputs": [
        {
          "internalType": "address",
          "name": "cTokenBorrowed",
          "type": "address"
        },
        {
          "internalType": "address",
          "name": "cTokenCollateral",
          "type": "address"
        },
        {
          "internalType": "uint256",
          "name": "actualRepayAmount",
          "type": "uint256"
        }
      ],
      "name": "liquidateCalculateSeizeTokens",
      "outputs": [
        {
          "internalType": "uint256",
          "name": "",
          "type": "uint256"
        },
        {
          "internalType": "uint256",
          "name": "",
          "type": "uint256"
        }
      ],
      "stateMutability": "view",
      "type": "function"
    },
    {
      "inputs": [],
      "name": "liquidationIncentiveMantissa",
      "outputs": [
        {
          "internalType": "uint256",
          "name": "",
          "type": "uint256"
        }
      ],
      "stateMutability": "view",
      "type": "function"
    },
    {
      "inputs": [
        {
          "internalType": "address",
          "name": "",
          "type": "address"
        }
      ],
      "name": "markets",
      "outputs": [
        {
          "internalType": "bool",
          "name": "isListed",
          "type": "bool"
        },
        {
          "internalType": "uint256",
          "name": "collateralFactorMantissa",
          "type": "uint256"
        }
      ],
      "stateMutability": "view",
      "type": "function"
    },
    {
      "inputs": [
        {
          "internalType": "address",
          "name": "cToken",
          "type": "address"
        },
        {
          "internalType": "address",
          "name": "minter",
          "type": "address"
        },
        {
          "internalType": "uint256",
          "name": "mintAmount",
          "type": "uint256"
        }
      ],
      "name": "mintAllowed",
      "outputs": [
        {
          "internalType": "uint256",
          "name": "",
          "type": "uint256"
        }
      ],
      "stateMutability": "nonpayable",
      "type": "function"
    },
    {
      "inputs": [
        {
          "internalType": "address",
          "name": "",
          "type": "address"
        }
      ],
      "name": "mintGuardianPaused",
      "outputs": [
        {
          "internalType": "bool",
          "name": "",
          "type": "bool"
        }
      ],
      "stateMutability": "view",
      "type": "function"
    },
    {
      "inputs": [
        {
          "internalType": "uint256",
          "name": "",
          "type": "uint256"
        }
      ],
      "name": "nonAccruingRewardsDistributors",
      "outputs": [
        {
          "internalType": "address",
          "name": "",
          "type": "address"
        }
      ],
      "stateMutability": "view",
      "type": "function"
    },
    {
      "inputs": [],
      "name": "oracle",
      "outputs": [
        {
          "internalType": "contract PriceOracle",
          "name": "",
          "type": "address"
        }
      ],
      "stateMutability": "view",
      "type": "function"
    },
    {
      "inputs": [],
      "name": "pauseGuardian",
      "outputs": [
        {
          "internalType": "address",
          "name": "",
          "type": "address"
        }
      ],
      "stateMutability": "view",
      "type": "function"
    },
    {
      "inputs": [],
      "name": "pendingAdmin",
      "outputs": [
        {
          "internalType": "address",
          "name": "",
          "type": "address"
        }
      ],
      "stateMutability": "view",
      "type": "function"
    },
    {
      "inputs": [],
      "name": "pendingComptrollerImplementation",
      "outputs": [
        {
          "internalType": "address",
          "name": "",
          "type": "address"
        }
      ],
      "stateMutability": "view",
      "type": "function"
    },
    {
      "inputs": [
        {
          "internalType": "address",
          "name": "cToken",
          "type": "address"
        },
        {
          "internalType": "address",
          "name": "redeemer",
          "type": "address"
        },
        {
          "internalType": "uint256",
          "name": "redeemTokens",
          "type": "uint256"
        }
      ],
      "name": "redeemAllowed",
      "outputs": [
        {
          "internalType": "uint256",
          "name": "",
          "type": "uint256"
        }
      ],
      "stateMutability": "nonpayable",
      "type": "function"
    },
    {
      "inputs": [
        {
          "internalType": "address",
          "name": "cToken",
          "type": "address"
        },
        {
          "internalType": "address",
          "name": "redeemer",
          "type": "address"
        },
        {
          "internalType": "uint256",
          "name": "redeemAmount",
          "type": "uint256"
        },
        {
          "internalType": "uint256",
          "name": "redeemTokens",
          "type": "uint256"
        }
      ],
      "name": "redeemVerify",
      "outputs": [],
      "stateMutability": "nonpayable",
      "type": "function"
    },
    {
      "inputs": [
        {
          "internalType": "address",
          "name": "cToken",
          "type": "address"
        },
        {
          "internalType": "address",
          "name": "payer",
          "type": "address"
        },
        {
          "internalType": "address",
          "name": "borrower",
          "type": "address"
        },
        {
          "internalType": "uint256",
          "name": "repayAmount",
          "type": "uint256"
        }
      ],
      "name": "repayBorrowAllowed",
      "outputs": [
        {
          "internalType": "uint256",
          "name": "",
          "type": "uint256"
        }
      ],
      "stateMutability": "nonpayable",
      "type": "function"
    },
    {
      "inputs": [
        {
          "internalType": "uint256",
          "name": "",
          "type": "uint256"
        }
      ],
      "name": "rewardsDistributors",
      "outputs": [
        {
          "internalType": "address",
          "name": "",
          "type": "address"
        }
      ],
      "stateMutability": "view",
      "type": "function"
    },
    {
      "inputs": [
        {
          "internalType": "address",
          "name": "cTokenCollateral",
          "type": "address"
        },
        {
          "internalType": "address",
          "name": "cTokenBorrowed",
          "type": "address"
        },
        {
          "internalType": "address",
          "name": "liquidator",
          "type": "address"
        },
        {
          "internalType": "address",
          "name": "borrower",
          "type": "address"
        },
        {
          "internalType": "uint256",
          "name": "seizeTokens",
          "type": "uint256"
        }
      ],
      "name": "seizeAllowed",
      "outputs": [
        {
          "internalType": "uint256",
          "name": "",
          "type": "uint256"
        }
      ],
      "stateMutability": "nonpayable",
      "type": "function"
    },
    {
      "inputs": [],
      "name": "seizeGuardianPaused",
      "outputs": [
        {
          "internalType": "bool",
          "name": "",
          "type": "bool"
        }
      ],
      "stateMutability": "view",
      "type": "function"
    },
    {
      "inputs": [
        {
          "internalType": "address",
          "name": "",
          "type": "address"
        }
      ],
      "name": "suppliers",
      "outputs": [
        {
          "internalType": "bool",
          "name": "",
          "type": "bool"
        }
      ],
      "stateMutability": "view",
      "type": "function"
    },
    {
      "inputs": [
        {
          "internalType": "address",
          "name": "",
          "type": "address"
        },
        {
          "internalType": "address",
          "name": "",
          "type": "address"
        }
      ],
      "name": "supplyCapWhitelist",
      "outputs": [
        {
          "internalType": "bool",
          "name": "",
          "type": "bool"
        }
      ],
      "stateMutability": "view",
      "type": "function"
    },
    {
      "inputs": [
        {
          "internalType": "address",
          "name": "",
          "type": "address"
        }
      ],
      "name": "supplyCaps",
      "outputs": [
        {
          "internalType": "uint256",
          "name": "",
          "type": "uint256"
        }
      ],
      "stateMutability": "view",
      "type": "function"
    },
    {
      "inputs": [
        {
          "internalType": "address",
          "name": "cToken",
          "type": "address"
        },
        {
          "internalType": "address",
          "name": "src",
          "type": "address"
        },
        {
          "internalType": "address",
          "name": "dst",
          "type": "address"
        },
        {
          "internalType": "uint256",
          "name": "transferTokens",
          "type": "uint256"
        }
      ],
      "name": "transferAllowed",
      "outputs": [
        {
          "internalType": "uint256",
          "name": "",
          "type": "uint256"
        }
      ],
      "stateMutability": "nonpayable",
      "type": "function"
    },
    {
      "inputs": [],
      "name": "transferGuardianPaused",
      "outputs": [
        {
          "internalType": "bool",
          "name": "",
          "type": "bool"
        }
      ],
      "stateMutability": "view",
      "type": "function"
    },
    {
      "inputs": [
        {
          "internalType": "address",
          "name": "",
          "type": "address"
        }
      ],
      "name": "whitelist",
      "outputs": [
        {
          "internalType": "bool",
          "name": "",
          "type": "bool"
        }
      ],
      "stateMutability": "view",
      "type": "function"
    },
    {
      "inputs": [
        {
          "internalType": "uint256",
          "name": "",
          "type": "uint256"
        }
      ],
      "name": "whitelistArray",
      "outputs": [
        {
          "internalType": "address",
          "name": "",
          "type": "address"
        }
      ],
      "stateMutability": "view",
      "type": "function"
    }
  ],
  "transactionHash": "0x8b9f84f9d157b994cf6be6192f42ae00be104ecacf6d31533deee9290677953b",
  "args": [
    "0xFc1f56C58286E7215701A773b61bFf2e18A177dE"
  ],
  "numDeployments": 30,
  "bytecode": {
    "object": "0x60806040526002805461ffff60a01b191661010160a01b1790553480156200002657600080fd5b5060405162005cd938038062005cd983398101604081905262000049916200006f565b600080546001600160a01b0319166001600160a01b0392909216919091179055620000a1565b6000602082840312156200008257600080fd5b81516001600160a01b03811681146200009a57600080fd5b9392505050565b615c2880620000b16000396000f3fe608060405234801561001057600080fd5b50600436106104325760003560e01c8063779b229411610236578063c29982381161013b578063da3d454c116100c3578063e6653f3d11610087578063e6653f3d14610b64578063e875544614610b78578063eabe7d9114610b81578063ede4edd014610b94578063f851a44014610ba757610432565b8063da3d454c14610b0b578063dce1544914610b1e578063dcfbc0c714610b31578063dd5cd22c14610b44578063e4028eee14610b5157610432565b8063c90c20b11161010a578063c90c20b114610a98578063ca36d40a14610aa0578063d02f735114610ad2578063d251fefc14610ae5578063d533316614610af857610432565b8063c299823814610a2a578063c488847b14610a4a578063c6c5b0dd14610a72578063c8c9c97514610a8557610432565b80639b19251a116101be578063b09572101161018d578063b0957210146109b6578063b9b5b153146109c3578063bb82aa5e146109d6578063bc89f68a146109e9578063bdcdc25814610a1757610432565b80639b19251a14610959578063aba35b981461097c578063abfceffc1461098f578063ac0b0bb7146109a257610432565b80638e8f294b116102055780638e8f294b14610883578063929fe9a1146108c7578063940cd6f11461090857806394543c1514610933578063952adf5a1461094657610432565b8063779b2294146108365780637dc0d1d01461084957806387f763031461085c57806389cd98551461087057610432565b80633c94786f1161033c5780635d72de62116102c45780636333d001116102935780636333d001146107b55780636bd02b8a146107ca5780636d154ea5146107dd578063731f0c2b146108005780637515bafa1461082357610432565b80635d72de621461077f5780635ec88c79146107875780635fc7e71e1461079a578063632e5142146107ad57610432565b80634ef4c3e11161030b5780634ef4c3e1146107205780634fd42e171461073357806351dff9891461074657806352d84d1e1461075957806355ee1fe11461076c57610432565b80633c94786f146106b55780634a584432146106c95780634ada90af146106e95780634e79238f146106f257610432565b80631d504dc6116103bf57806324a3d6221161038e57806324a3d6221461063f57806326782247146106525780632f1069ba14610665578063317b0b771461067957806331ff47fa1461068c57610432565b80631d504dc6146105cb5780631dadaa84146105e057806321af45691461061457806324008a621461062c57610432565b806316dc15fe1161040657806316dc15fe146105335780631879dbc5146105565780631976828e146105845780631ace5957146105975780631c819e431461059d57610432565b80627e3dd2146104a957806302c3bcbb146104c65780630a755ec2146104f457806315761d5114610508575b60006104496000356001600160e01b031916610bba565b90506001600160a01b03811661048557604051630a82dd7360e31b81526001600160e01b03196000351660048201526024015b60405180910390fd5b3660008037600080366000845af43d6000803e8080156104a4573d6000f35b3d6000fd5b6104b1600181565b60405190151581526020015b60405180910390f35b6104e66104d436600461533a565b601a6020526000908152604090205481565b6040519081526020016104bd565b6002546104b190600160a81b900460ff1681565b60005461051b906001600160a01b031681565b6040516001600160a01b0390911681526020016104bd565b6104b161054136600461533a565b600f6020526000908152604090205460ff1681565b6104b1610564366004615357565b602260209081526000928352604080842090915290825290205460ff1681565b6104e661059236600461539e565b610c1d565b3061051b565b6104b16105ab366004615357565b601f60209081526000928352604080842090915290825290205460ff1681565b6105de6105d936600461533a565b610e6c565b005b6104b16105ee3660046153e9565b602160209081526000938452604080852082529284528284209052825290205460ff1681565b60185461051b9061010090046001600160a01b031681565b6104e661063a366004615429565b61110a565b60155461051b906001600160a01b031681565b60025461051b906001600160a01b031681565b6002546104b190600160a01b900460ff1681565b6104e661068736600461547a565b61114c565b61051b61069a36600461533a565b6010602052600090815260409020546001600160a01b031681565b6015546104b190600160a01b900460ff1681565b6104e66106d736600461533a565b60196020526000908152604090205481565b6104e660075481565b610705610700366004615493565b611226565b604080519384526020840192909252908201526060016104bd565b6104e661072e3660046154d9565b611266565b6104e661074136600461547a565b611656565b6105de610754366004615493565b611712565b61051b61076736600461547a565b6117a4565b6104e661077a36600461533a565b6117ce565b6105de61184e565b61070561079536600461533a565b6119c2565b6104e66107a836600461551a565b6119fd565b6105de611bae565b6107bd611c1c565b6040516104bd919061557e565b61051b6107d836600461547a565b611c2b565b6104b16107eb36600461533a565b60176020526000908152604090205460ff1681565b6104b161080e36600461533a565b60166020526000908152604090205460ff1681565b61051b61083136600461547a565b611c3b565b6104e66108443660046155cb565b611c4b565b60055461051b906001600160a01b031681565b6015546104b190600160b01b900460ff1681565b6105de61087e366004615357565b611da6565b6108b061089136600461533a565b600a602052600090815260409020805460019091015460ff9091169082565b6040805192151583526020830191909152016104bd565b6104b16108d5366004615357565b6001600160a01b038082166000908152600a60209081526040808320938616835260029093019052205460ff1692915050565b6104e6610916366004615357565b601e60209081526000928352604080842090915290825290205481565b6104b161094136600461533a565b611e1f565b6104e66109543660046155f7565b611f89565b6104b161096736600461533a565b60126020526000908152604090205460ff1681565b6104e661098a366004615614565b612007565b6107bd61099d36600461533a565b6120fd565b6015546104b190600160b81b900460ff1681565b6011546104b19060ff1681565b6104e66109d136600461533a565b612173565b60035461051b906001600160a01b031681565b6104b16109f7366004615357565b602360209081526000928352604080842090915290825290205460ff1681565b6104e6610a25366004615429565b612336565b610a3d610a3836600461570a565b6123b9565b6040516104bd919061579e565b610a5d610a583660046154d9565b612481565b604080519283526020830191909152016104bd565b61051b610a8036600461547a565b61280e565b6104e6610a9336600461581b565b61281e565b6105de612ac5565b6104b1610aae3660046153e9565b60208080526000938452604080852082529284528284209052825290205460ff1681565b6104e6610ae036600461551a565b612b6f565b61051b610af336600461547a565b612cf6565b6104e6610b063660046155f7565b612d06565b6104e6610b193660046154d9565b612d79565b61051b610b2c3660046155cb565b61313c565b60045461051b906001600160a01b031681565b6018546104b19060ff1681565b6104e6610b5f3660046155cb565b613174565b6015546104b190600160a81b900460ff1681565b6104e660065481565b6104e6610b8f3660046154d9565b6132fe565b6104e6610ba236600461533a565b61331b565b60015461051b906001600160a01b031681565b6001600160e01b031981166000908152600080516020615bfc833981519152602081905260408220546001600160a01b031680610c1657604051631f3f429960e31b81526001600160e01b03198516600482015260240161047c565b9392505050565b6000808390506000816001600160a01b0316639f5ef2726040518163ffffffff1660e01b8152600401602060405180830381865afa158015610c63573d6000803e3d6000fd5b505050506040513d601f19601f82011682018060405250810190610c879190615887565b604051633af9e66960e01b81526001600160a01b0388811660048301529190911690633af9e669906024016020604051808303816000875af1158015610cd1573d6000803e3d6000fd5b505050506040513d601f19601f82011682018060405250810190610cf591906158a4565b90506000806000610d168988610d0c576000610d0e565b865b60008061377e565b919450925090506000836014811115610d3157610d316158bd565b14610d6b5760405162461bcd60e51b815260206004820152600a602482015269216c697175696469747960b01b604482015260640161047c565b8015610d7f57600095505050505050610c16565b600087158015610db957506001600160a01b03808a166000908152600a60209081526040808320938e16835260029093019052205460ff16155b15610dc5575083610de7565b610dd083878a613d27565b905087158015610ddf57508085105b15610de75750835b6000866001600160a01b0316633b1d21a26040518163ffffffff1660e01b8152600401602060405180830381865afa158015610e27573d6000803e3d6000fd5b505050506040513d601f19601f82011682018060405250810190610e4b91906158a4565b905080821115610e5b5780610e5d565b815b9b9a5050505050505050505050565b6000546001600160a01b031633148015610ee35750806001600160a01b0316632f1069ba6040518163ffffffff1660e01b8152600401602060405180830381865afa158015610ebf573d6000803e3d6000fd5b505050506040513d601f19601f82011682018060405250810190610ee391906158d3565b80610fc85750806001600160a01b031663f851a4406040518163ffffffff1660e01b8152600401602060405180830381865afa158015610f27573d6000803e3d6000fd5b505050506040513d601f19601f82011682018060405250810190610f4b9190615887565b6001600160a01b0316336001600160a01b0316148015610fc85750806001600160a01b0316630a755ec26040518163ffffffff1660e01b8152600401602060405180830381865afa158015610fa4573d6000803e3d6000fd5b505050506040513d601f19601f82011682018060405250810190610fc891906158d3565b610ffd5760405162461bcd60e51b815260206004820152600660248201526510b0b236b4b760d11b604482015260640161047c565b6000816001600160a01b031663c1e803346040518163ffffffff1660e01b81526004016020604051808303816000875af115801561103f573d6000803e3d6000fd5b505050506040513d601f19601f8201168201806040525081019061106391906158a4565b905080156110b35760405162461bcd60e51b815260206004820181905260248201527f21756e617574686f72697a6564202d206e6f742070656e64696e6720696d706c604482015260640161047c565b816001600160a01b0316635d72de626040518163ffffffff1660e01b8152600401600060405180830381600087803b1580156110ee57600080fd5b505af1158015611102573d6000803e3d6000fd5b505050505050565b6001600160a01b0384166000908152600a602052604081205460ff166111345760085b9050611144565b61113e8584613e40565b60005b90505b949350505050565b6000611156613ee8565b61116c5761116660016007613f3a565b92915050565b6040805160208082018352848252825190810190925266b1a2bc2ec500008083528151919291116111a35761114460056008613f3a565b6040805160208101909152670c7d713b49da0000808252835111156111d7576111ce60056008613f3a565b95945050505050565b600680549086905560408051828152602081018890527f3b9670cf975d26958e754b57098eaa2ac914d8d2a31b83257997b9f346110fd991015b60405180910390a160005b9695505050505050565b60008060008060008061123b8a8a8a8a61377e565b925092509250826014811115611253576112536158bd565b95509093509150505b9450945094915050565b6001600160a01b03831660009081526016602052604081205460ff16156112be5760405162461bcd60e51b815260206004820152600c60248201526b085b5a5b9d0e9c185d5cd95960a21b604482015260640161047c565b6001600160a01b0384166000908152600a602052604090205460ff166112e85760085b9050610c16565b60115460ff16801561131357506001600160a01b03831660009081526012602052604090205460ff16155b1561131f5760116112e1565b6001600160a01b0384166000908152601a6020526040902054801580159061136d57506001600160a01b0380861660009081526022602090815260408083209388168352929052205460ff16155b15611641576000856001600160a01b0316633b1d21a26040518163ffffffff1660e01b8152600401602060405180830381865afa1580156113b2573d6000803e3d6000fd5b505050506040513d601f19601f820116820180604052508101906113d691906158a4565b90506000866001600160a01b03166347bd37186040518163ffffffff1660e01b8152600401602060405180830381865afa158015611418573d6000803e3d6000fd5b505050506040513d601f19601f8201168201806040525081019061143c91906158a4565b90506000876001600160a01b0316638f840ddd6040518163ffffffff1660e01b8152600401602060405180830381865afa15801561147e573d6000803e3d6000fd5b505050506040513d601f19601f820116820180604052508101906114a291906158a4565b90506000886001600160a01b031663dc028ab16040518163ffffffff1660e01b8152600401602060405180830381865afa1580156114e4573d6000803e3d6000fd5b505050506040513d601f19601f8201168201806040525081019061150891906158a4565b90506000896001600160a01b03166361feacff6040518163ffffffff1660e01b8152600401602060405180830381865afa15801561154a573d6000803e3d6000fd5b505050506040513d601f19601f8201168201806040525081019061156e91906158a4565b9050600080611590878761158b6115858989613fb3565b87613fb3565b613fe9565b909250905060008260038111156115a9576115a96158bd565b146115bf57600a98505050505050505050610c16565b60006115cb828c61403b565b909350905060008360038111156115e4576115e46158bd565b146115fb57600a9950505050505050505050610c16565b8881106116385760405162461bcd60e51b815260206004820152600b60248201526a021737570706c79206361760ac1b604482015260640161047c565b50505050505050505b61164b8585614064565b600095945050505050565b6000611660613ee8565b611670576111666001600d613f3a565b60408051602080820183528482528251908101909252670de0b6b3a7640000808352815191929110156116a9576111446007600e613f3a565b60408051602081019091526714d1120d7b160000808252835111156116d4576111ce6007600e613f3a565b600780549086905560408051828152602081018890527faeba5a6c40a8ac138134bff1aaa65debf25971188a58804bad717f82f0ec13169101611211565b336000908152600a602052604090205460ff1661175b5760405162461bcd60e51b8152602060048201526007602482015266085b585c9ad95d60ca1b604482015260640161047c565b801580156117695750600082115b1561179e5760405162461bcd60e51b8152602060048201526005602482015264217a65726f60d81b604482015260640161047c565b50505050565b600b81815481106117b457600080fd5b6000918252602090912001546001600160a01b0316905081565b60006117d8613ee8565b6117e85761116660016012613f3a565b600580546001600160a01b038481166001600160a01b031983168117909355604080519190921680825260208201939093527fd52b2b9b7e9ee655fcb95d2e5b9e0c9f69e7ef2b8e9d2d0ea78402d576d22e22910160405180910390a160009392505050565b6003546001600160a01b0316331461189a5760405162461bcd60e51b815260206004820152600f60248201526e10b4b6b83632b6b2b73a30ba34b7b760891b604482015260640161047c565b60006118a4614106565b905060005b81518110156118e6576118d48282815181106118c7576118c76158f0565b6020026020010151614178565b806118de8161591c565b9150506118a9565b5060008054600354604051631978a0bf60e31b81526001600160a01b03918216600482015291169063cbc505f890602401600060405180830381865afa158015611934573d6000803e3d6000fd5b505050506040513d6000823e601f3d908101601f1916820160405261195c9190810190615937565b905060005b815181101561199e5761198c82828151811061197f5761197f6158f0565b60200260200101516142a8565b806119968161591c565b915050611961565b50601c54610100900460ff166119be57601c805461ffff19166101011790555b5050565b6000806000806000806119d987600080600061377e565b9250925092508260148111156119f1576119f16158bd565b97919650945092505050565b6001600160a01b0385166000908152600a602052604081205460ff161580611a3e57506001600160a01b0385166000908152600a602052604090205460ff16155b15611a4d5760085b90506111ce565b6040516395dd919360e01b81526001600160a01b038481166004830152600091908816906395dd919390602401602060405180830381865afa158015611a97573d6000803e3d6000fd5b505050506040513d601f19601f82011682018060405250810190611abb91906158a4565b9050611ac687611e1f565b15611b105782811015611b0b5760405162461bcd60e51b815260206004820152600d60248201526c21626f72726f773e726570617960981b604482015260640161047c565b611ba1565b600080611b2186600080600061377e565b91935090915060009050826014811115611b3d57611b3d6158bd565b14611b5e57816014811115611b5457611b546158bd565b93505050506111ce565b80611b6a576003611b54565b6000611b866040518060200160405280600654815250856143a0565b905080861115611b9d5760109450505050506111ce565b5050505b5060009695505050505050565b336000908152600a602052604090205460ff16611c0d5760405162461bcd60e51b815260206004820152601f60248201527f21436f6d7074726f6c6c65723a5f61667465724e6f6e5265656e7472616e7400604482015260640161047c565b601c805460ff19166001179055565b6060611c26614106565b905090565b601d81815481106117b457600080fd5b600d81815481106117b457600080fd5b600080546040805163fdb25fb160e01b8152905183926001600160a01b03169163fdb25fb19160048083019260209291908290030181865afa158015611c95573d6000803e3d6000fd5b505050506040513d601f19601f82011682018060405250810190611cb991906158a4565b90508015611d9c5760055460405163fc57d4df60e01b81526001600160a01b038681166004830152600092169063fc57d4df90602401602060405180830381865afa158015611d0c573d6000803e3d6000fd5b505050506040513d601f19601f82011682018060405250810190611d3091906158a4565b905080611d4257600c92505050611166565b600080611d5d604051806020016040528085815250876143b8565b90925090506000826003811115611d7657611d766158bd565b14611d8957600a5b945050505050611166565b83811015611d98576012611d7e565b5050505b6000949350505050565b6000546001600160a01b031633148015611dc95750600254600160a01b900460ff165b611e155760405162461bcd60e51b815260206004820152601f60248201527f21756e617574686f72697a6564202d206e6f2061646d696e2072696768747300604482015260640161047c565b6119be828261440a565b6001600160a01b0381166000908152600a6020526040812060010154158015611e6557506001600160a01b03821660009081526017602052604090205460ff1615156001145b80156111665750611f79611f3b836001600160a01b031663173b99046040518163ffffffff1660e01b8152600401602060405180830381865afa158015611eb0573d6000803e3d6000fd5b505050506040513d601f19601f82011682018060405250810190611ed491906158a4565b846001600160a01b0316638d02d9a16040518163ffffffff1660e01b8152600401602060405180830381865afa158015611f12573d6000803e3d6000fd5b505050506040513d601f19601f82011682018060405250810190611f3691906158a4565b613fb3565b836001600160a01b031663dbfe7c196040518163ffffffff1660e01b8152600401602060405180830381865afa158015611f12573d6000803e3d6000fd5b670de0b6b3a76400001492915050565b6000611f93613ee8565b611fa35761116660016013613f3a565b60115460ff1615158215151415611fbb576000611166565b6011805460ff19168315159081179091556040519081527f84c7d948374a180eddab35d27d2f7a94167a1ff4e79467f1e89c061984190a1e906020015b60405180910390a16000611166565b6000612011613ee8565b6120215761112d60016016613f3a565b60028054600160a01b60ff60a01b198216811790925560008054604051638754e4fd60e01b81529390920460ff169290916001600160a01b031690638754e4fd9061207290899089906004016159c6565b6020604051808303816000875af1158015612091573d6000803e3d6000fd5b505050506040513d601f19601f820116820180604052508101906120b59190615887565b6002805460ff60a01b1916600160a01b85151502179055905060006120d98261442b565b905080156120e757806120f1565b6120f18286613174565b98975050505050505050565b6001600160a01b038116600090815260096020908152604080832080548251818502810185019093528083526060949383018282801561216657602002820191906000526020600020905b81546001600160a01b03168152600190910190602001808311612148575b5093979650505050505050565b600061217d613ee8565b61218d5761116660016002613f3a565b816001600160a01b031663abc6d72d6040518163ffffffff1660e01b81526004016020604051808303816000875af11580156121cd573d6000803e3d6000fd5b505050506040513d601f19601f820116820180604052508101906121f191906158d3565b6122355760405162461bcd60e51b815260206004820152601560248201527410b4b9a932bbb0b93239a234b9ba3934b13aba37b960591b604482015260640161047c565b60005b601b548110156122b757601b8181548110612255576122556158f0565b6000918252602090912001546001600160a01b03848116911614156122a55760405162461bcd60e51b815260206004820152600660248201526508585919195960d21b604482015260640161047c565b806122af8161591c565b915050612238565b50601b80546001810182556000919091527f3ad8aa4f87544323a9d1e5dd902f40c356527a7955687113db5f9a85ad579dc10180546001600160a01b0319166001600160a01b0384169081179091556040519081527f98ef1187fb6fd2bc85f8996489877eb2b5428f9e9bdfc068c9ad6c2ea82eacc790602001611ff8565b601554600090600160b01b900460ff16156123865760405162461bcd60e51b815260206004820152601060248201526f085d1c985b9cd9995c8e9c185d5cd95960821b604482015260640161047c565b6000612393868685614715565b905080156123a2579050611144565b6123ad868686614812565b60009695505050505050565b805160609060008167ffffffffffffffff8111156123d9576123d961569f565b604051908082528060200260200182016040528015612402578160200160208202803683370190505b50905060005b82811015612479576000858281518110612424576124246158f0565b6020026020010151905061243881336148bd565b6014811115612449576124496158bd565b83838151811061245b5761245b6158f0565b602090810291909101015250806124718161591c565b915050612408565b509392505050565b60055460405163fc57d4df60e01b81526001600160a01b038581166004830152600092839283929091169063fc57d4df90602401602060405180830381865afa1580156124d2573d6000803e3d6000fd5b505050506040513d601f19601f820116820180604052508101906124f691906158a4565b60055460405163fc57d4df60e01b81526001600160a01b0388811660048301529293506000929091169063fc57d4df90602401602060405180830381865afa158015612546573d6000803e3d6000fd5b505050506040513d601f19601f8201168201806040525081019061256a91906158a4565b9050811580612577575080155b1561258b57600c6000935093505050612806565b60008690506000816001600160a01b0316639f5ef2726040518163ffffffff1660e01b8152600401602060405180830381865afa1580156125d0573d6000803e3d6000fd5b505050506040513d601f19601f820116820180604052508101906125f49190615887565b6001600160a01b031663182df0f56040518163ffffffff1660e01b8152600401602060405180830381865afa158015612631573d6000803e3d6000fd5b505050506040513d601f19601f8201168201806040525081019061265591906158a4565b9050600061266f6040518060200160405280600081525090565b6040805160208101909152600081526040805160208101909152600081526000866001600160a01b0316636752e7026040518163ffffffff1660e01b8152600401602060405180830381865afa1580156126cd573d6000803e3d6000fd5b505050506040513d601f19601f820116820180604052508101906126f191906158a4565b90506000876001600160a01b031663be99f1196040518163ffffffff1660e01b8152600401602060405180830381865afa158015612733573d6000803e3d6000fd5b505050506040513d601f19601f8201168201806040525081019061275791906158a4565b9050600061279a6127866040518060200160405280600754815250604051806020016040528087815250614a58565b604051806020016040528085815250614a58565b90506127b48160405180602001604052808e815250614a8d565b95506127dc60405180602001604052808c81525060405180602001604052808b815250614a8d565b94506127e88686614acc565b93506127f4848f6143a0565b60009d509b5050505050505050505050505b935093915050565b601b81815481106117b457600080fd5b6000612828613ee8565b6128385761112d60016014613f3a565b60005b84811015612abd576000868683818110612857576128576158f0565b905060200201602081019061286c919061533a565b9050848483818110612880576128806158f0565b905060200201602081019061289591906155f7565b1561294d576001600160a01b03811660009081526012602052604090205460ff16612948576001600160a01b0381166000818152601260205260408120805460ff19166001908117909155601380548083018255928190527f66de8ffda797e3de9c05e8fc57b3bf0ec28a930d40b0d285d93c06501cf6a09090920180546001600160a01b0319169093179092555461292e91906159f5565b6001600160a01b0382166000908152601460205260409020555b612aaa565b6001600160a01b03811660009081526012602052604090205460ff1615612aaa576013805461297e906001906159f5565b8154811061298e5761298e6158f0565b60009182526020808320909101546001600160a01b03848116845260149092526040909220546013805492909316929181106129cc576129cc6158f0565b9060005260206000200160006101000a8154816001600160a01b0302191690836001600160a01b031602179055506013805480612a0b57612a0b615a0c565b60008281526020808220830160001990810180546001600160a01b03191690559092019092556001600160a01b038316825260149081905260408220546013805491939184908110612a5f57612a5f6158f0565b60009182526020808320909101546001600160a01b039081168452838201949094526040928301822094909455918416825260148352808220829055601290925220805460ff191690555b5080612ab58161591c565b91505061283b565b506000611141565b336000908152600a602052604090205460ff16612b245760405162461bcd60e51b815260206004820181905260248201527f21436f6d7074726f6c6c65723a5f6265666f72654e6f6e5265656e7472616e74604482015260640161047c565b601c5460ff16612b635760405162461bcd60e51b815260206004820152600a602482015269085c99595b9d195c995960b21b604482015260640161047c565b601c805460ff19169055565b601554600090600160b81b900460ff1615612bbc5760405162461bcd60e51b815260206004820152600d60248201526c085cd95a5e994e9c185d5cd959609a1b604482015260640161047c565b6001600160a01b0386166000908152600a602052604090205460ff161580612bfd57506001600160a01b0385166000908152600a602052604090205460ff16155b15612c09576008611a46565b846001600160a01b0316635fe3b5676040518163ffffffff1660e01b8152600401602060405180830381865afa158015612c47573d6000803e3d6000fd5b505050506040513d601f19601f82011682018060405250810190612c6b9190615887565b6001600160a01b0316866001600160a01b0316635fe3b5676040518163ffffffff1660e01b8152600401602060405180830381865afa158015612cb2573d6000803e3d6000fd5b505050506040513d601f19601f82011682018060405250810190612cd69190615887565b6001600160a01b031614612ceb576002611a46565b6123ad868486614812565b601381815481106117b457600080fd5b6000612d10613ee8565b612d205761116660016006613f3a565b60185460ff1615158215151415612d38576000611166565b6018805460ff19168315159081179091556040519081527faa40ee94af55250363b91641a0a615c47690148901505f89b01dafae03fff28190602001611ff8565b6001600160a01b03831660009081526017602052604081205460ff1615612dd35760405162461bcd60e51b815260206004820152600e60248201526d08589bdc9c9bddce9c185d5cd95960921b604482015260640161047c565b6001600160a01b0384166000908152600a602052604090205460ff16612dfa5760086112e1565b6001600160a01b038085166000908152600a60209081526040808320938716835260029093019052205460ff16612ee957336001600160a01b03851614612e6d5760405162461bcd60e51b815260206004820152600760248201526610b1ba37b5b2b760c91b604482015260640161047c565b6000612e7933856148bd565b90506000816014811115612e8f57612e8f6158bd565b14612eae57806014811115612ea657612ea66158bd565b915050610c16565b6001600160a01b038086166000908152600a60209081526040808320938816835260029093019052205460ff16612ee757612ee7615a22565b505b60055460405163fc57d4df60e01b81526001600160a01b0386811660048301529091169063fc57d4df90602401602060405180830381865afa158015612f33573d6000803e3d6000fd5b505050506040513d601f19601f82011682018060405250810190612f5791906158a4565b612f6257600c6112e1565b60115460ff168015612f8d57506001600160a01b03831660009081526012602052604090205460ff16155b15612f995760116112e1565b6001600160a01b0384166000908152601960205260409020548015801590612fe757506001600160a01b0380861660009081526023602090815260408083209388168352929052205460ff16155b156130cb576000856001600160a01b03166347bd37186040518163ffffffff1660e01b8152600401602060405180830381865afa15801561302c573d6000803e3d6000fd5b505050506040513d601f19601f8201168201806040525081019061305091906158a4565b905060008061305f838761403b565b90925090506000826003811115613078576130786158bd565b1461308a57600a945050505050610c16565b8381106130c75760405162461bcd60e51b815260206004820152600b60248201526a021626f72726f773a6361760ac1b604482015260640161047c565b5050505b6130d58585613e40565b6000806130e5868860008861377e565b91935090915060009050826014811115613101576131016158bd565b1461312257816014811115613118576131186158bd565b9350505050610c16565b801561312f576004613118565b6000979650505050505050565b6009602052816000526040600020818154811061315857600080fd5b6000918252602090912001546001600160a01b03169150829050565b600061317e613ee8565b6131955761318e60016009613f3a565b9050611166565b6001600160a01b0383166000908152600a60205260409020805460ff166131ca576131c26008600a613f3a565b915050611166565b60408051602080820183528582528251908101909252670c7d713b49da00008252906131f881835190511090565b15613213576132096006600b613f3a565b9350505050611166565b841580159061328d575060055460405163fc57d4df60e01b81526001600160a01b0388811660048301529091169063fc57d4df90602401602060405180830381865afa158015613267573d6000803e3d6000fd5b505050506040513d601f19601f8201168201806040525081019061328b91906158a4565b155b1561329d57613209600c80613f3a565b60018301805490869055604080516001600160a01b0389168152602081018390529081018790527f70483e6592cd5182d45ac970e05bc62cdcc90e9d8ef2c2dbe686cf383bcd7fc59060600160405180910390a16000979650505050505050565b60008061330c858585614715565b90508015611641579050610c16565b6040516361bfb47160e11b815233600482015260009082908290819081906001600160a01b0385169063c37f68e290602401608060405180830381865afa15801561336a573d6000803e3d6000fd5b505050506040513d601f19601f8201168201806040525081019061338e9190615a38565b50925092509250826000146133d35760405162461bcd60e51b815260206004820152600b60248201526a08595e1a5d13585c9ad95d60aa1b604482015260640161047c565b80156133e55761121c600b6003613f3a565b60006133f2873385614715565b9050801561341257613407600d600483614b06565b979650505050505050565b6001600160a01b0385166000908152600a60209081526040808320338452600281019092529091205460ff1661345057600098975050505050505050565b3360009081526002820160209081526040808320805460ff1916905560098252808320805482518185028101850190935280835291929091908301828280156134c257602002820191906000526020600020905b81546001600160a01b031681526001909101906020018083116134a4575b5050835193945083925060009150505b8281101561352757896001600160a01b03168482815181106134f6576134f66158f0565b60200260200101516001600160a01b0316141561351557809150613527565b8061351f8161591c565b9150506134d2565b5081811061353757613537615a22565b33600090815260096020526040902080548190613556906001906159f5565b81548110613566576135666158f0565b9060005260206000200160009054906101000a90046001600160a01b0316818381548110613596576135966158f0565b9060005260206000200160006101000a8154816001600160a01b0302191690836001600160a01b03160217905550808054806135d4576135d4615a0c565b600082815260209020810160001990810180546001600160a01b0319169055019055805461372b57600d805461360c906001906159f5565b8154811061361c5761361c6158f0565b6000918252602080832090910154338352600e909152604090912054600d80546001600160a01b03909316929091908110613659576136596158f0565b9060005260206000200160006101000a8154816001600160a01b0302191690836001600160a01b03160217905550600d80548061369857613698615a0c565b60008281526020808220830160001990810180546001600160a01b0319169055909201909255338252600e908190526040822054600d8054919391849081106136e3576136e36158f0565b60009182526020808320909101546001600160a01b03168352828101939093526040918201812093909355338352600e8252808320839055600c9091529020805460ff191690555b604080516001600160a01b038c1681523360208201527fe699a64c18b07ac5b7301aa273f36a2287239eb9501d81950672794afba29a0d910160405180910390a160009c9b505050505050505050505050565b600080600061378b615271565b60006001600160a01b038816156138115760055460405163fc57d4df60e01b81526001600160a01b038a811660048301529091169063fc57d4df90602401602060405180830381865afa1580156137e6573d6000803e3d6000fd5b505050506040513d601f19601f8201168201806040525081019061380a91906158a4565b6101608301525b6001600160a01b03891660009081526009602090815260408083208054825181850281018501909352808352919290919083018282801561387b57602002820191906000526020600020905b81546001600160a01b0316815260019091019060200180831161385d575b5050505050905060005b8151811015613cd15760008282815181106138a2576138a26158f0565b60209081029190910101516040516361bfb47160e11b81526001600160a01b038e811660048301529192509082169063c37f68e290602401608060405180830381865afa1580156138f7573d6000803e3d6000fd5b505050506040513d601f19601f8201168201806040525081019061391b9190615a38565b6080890152606088015260408701529350831561394757600e600080975097509750505050505061125c565b60408051602080820183526001600160a01b038481166000818152600a845285902060010154845260c08a0193909352835191820184526080890151825260e0890191909152600554925163fc57d4df60e01b81526004810192909252919091169063fc57d4df90602401602060405180830381865afa1580156139cf573d6000803e3d6000fd5b505050506040513d601f19601f820116820180604052508101906139f391906158a4565b60a08601819052613a1357600c600080975097509750505050505061125c565b604080516020810190915260a0860151815261010086015260c085015160e0860151613a4d91613a4291614a8d565b866101000151614a8d565b6101208601526000196001600160a01b03828116908d16141580613a71575060008b115b15613c59576001600160a01b038c1615613c20576001600160a01b03808d166000908152601f602090815260408083209386168352929052205460ff168015613b305750602160008d6001600160a01b03166001600160a01b031681526020019081526020016000206000836001600160a01b03166001600160a01b0316815260200190815260200160002060008e6001600160a01b03166001600160a01b0316815260200190815260200160002060009054906101000a900460ff16155b15613b3d57506000613c20565b6001600160a01b03808d166000908152601e6020908152604080832093861683529290522054610140870181905215801590613bef5750602060008d6001600160a01b03166001600160a01b031681526020019081526020016000206000836001600160a01b03166001600160a01b0316815260200190815260200160002060008e6001600160a01b03166001600160a01b0316815260200190815260200160002060009054906101000a900460ff16155b15613c2057670de0b6b3a7640000866101600151876101400151613c139190615a6e565b613c1d9190615a8d565b90505b6000613c3587610120015188604001516143a0565b905081811115613c425750805b8087600001818151613c549190615aaf565b905250505b613c7186610100015187606001518860200151614b7e565b60208701526001600160a01b03828116908d161415613cbc57613c9e8661012001518c8860200151614b7e565b60208701819052610100870151613cb6918c90614b7e565b60208701525b50508080613cc99061591c565b915050613885565b50602083015183511115613d025760208301518351600091613cf2916159f5565b600095509550955050505061125c565b60008084600001518560200151613d1991906159f5565b95509550955050505061125c565b600083613d3657506000610c16565b60055460405163fc57d4df60e01b81526001600160a01b038581166004830152600092169063fc57d4df90602401602060405180830381865afa158015613d81573d6000803e3d6000fd5b505050506040513d601f19601f82011682018060405250810190613da591906158a4565b905060008111613de15760405162461bcd60e51b8152602060048201526007602482015266216f7261636c6560c81b604482015260640161047c565b82613e23576001600160a01b0384166000908152600a6020526040902060010154670de0b6b3a7640000613e158383615a6e565b613e1f9190615a8d565b9150505b80613e3686670de0b6b3a7640000615a6e565b6111ce9190615a8d565b60005b601b54811015613ee357601b8181548110613e6057613e606158f0565b600091825260209091200154604051631cdc2c5d60e31b81526001600160a01b03858116600483015284811660248301529091169063e6e162e890604401600060405180830381600087803b158015613eb857600080fd5b505af1158015613ecc573d6000803e3d6000fd5b505050508080613edb9061591c565b915050613e43565b505050565b6001546000906001600160a01b031633148015613f0e5750600254600160a81b900460ff165b80611c2657506000546001600160a01b031633148015611c26575050600254600160a01b900460ff1690565b60007f45b96fe442630264581b197e84bbada861235052c5a1aadfff9ea4e40a969aa0836014811115613f6f57613f6f6158bd565b83601a811115613f8157613f816158bd565b60408051928352602083019190915260009082015260600160405180910390a1826014811115610c1657610c166158bd565b6000610c168383604051806040016040528060118152602001706164646974696f6e206f766572666c6f7760781b815250614b9f565b600080600080613ff9878761403b565b90925090506000826003811115614012576140126158bd565b146140235750915060009050612806565b61402d8186614bd9565b935093505050935093915050565b6000808383018481106140535760009250905061405d565b6002600092509250505b9250929050565b60005b601b54811015613ee357601b8181548110614084576140846158f0565b60009182526020909120015460405162e48b0f60e51b81526001600160a01b038581166004830152848116602483015290911690631c9161e090604401600060405180830381600087803b1580156140db57600080fd5b505af11580156140ef573d6000803e3d6000fd5b5050505080806140fe9061591c565b915050614067565b6060600080516020615bfc83398151915260020180548060200260200160405190810160405280929190818152602001828054801561416e57602002820191906000526020600020905b81546001600160a01b03168152600190910190602001808311614150575b5050505050905090565b600080516020615bfc83398151915261419082614c04565b60005b600282015460ff82161015613ee357826001600160a01b0316826002018260ff16815481106141c4576141c46158f0565b6000918252602090912001546001600160a01b03161415614296576002820180546141f1906001906159f5565b81548110614201576142016158f0565b6000918252602090912001546002830180546001600160a01b039092169160ff8416908110614232576142326158f0565b9060005260206000200160006101000a8154816001600160a01b0302191690836001600160a01b031602179055508160020180548061427357614273615a0c565b600082815260209020810160001990810180546001600160a01b03191690550190555b806142a081615ac7565b915050614193565b600080516020615bfc83398151915260005b600282015460ff8216101561436057826001600160a01b0316826002018260ff16815481106142eb576142eb6158f0565b6000918252602090912001546001600160a01b0316141561434e5760405162461bcd60e51b815260206004820152601760248201527f657874656e73696f6e20616c7265616479206164646564000000000000000000604482015260640161047c565b8061435881615ac7565b9150506142ba565b5061436a82614e91565b6002018054600181018255600091825260209091200180546001600160a01b0319166001600160a01b0392909216919091179055565b6000806143ad8484615082565b9050611144816150aa565b6000806000806143c886866150c2565b909250905060008260038111156143e1576143e16158bd565b146143f2575091506000905061405d565b60006143fd826150aa565b9350935050509250929050565b6001600160a01b038116156144225761442281614178565b6119be826142a8565b6000614435613ee8565b6144455761116660016016613f3a565b6001600160a01b0382166000908152600a602052604090205460ff16156144725761116660096015613f3a565b816001600160a01b031663fe9c44ae6040518163ffffffff1660e01b81526004016020604051808303816000875af11580156144b2573d6000803e3d6000fd5b505050506040513d601f19601f820116820180604052508101906144d691906158d3565b6145155760405162461bcd60e51b815260206004820152601060248201526f10b6b0b935b2ba1d34b9b1ba37b5b2b760811b604482015260640161047c565b306001600160a01b0316826001600160a01b0316635fe3b5676040518163ffffffff1660e01b8152600401602060405180830381865afa15801561455d573d6000803e3d6000fd5b505050506040513d601f19601f820116820180604052508101906145819190615887565b6001600160a01b0316146145c65760405162461bcd60e51b815260206004820152600c60248201526b10b1b7b6b83a3937b63632b960a11b604482015260640161047c565b6000826001600160a01b0316636f307dc36040518163ffffffff1660e01b8152600401602060405180830381865afa158015614606573d6000803e3d6000fd5b505050506040513d601f19601f8201168201806040525081019061462a9190615887565b6001600160a01b03808216600090815260106020526040902054919250161561465957610c1660096015613f3a565b6001600160a01b038381166000818152600a60209081526040808320805460ff191660019081178255808201859055600b805491820190557f0175b7a638427703f0dbe7bb9bbf987a2551717b34e79f33b5b1008d1fa01db90180546001600160a01b0319908116871790915595871684526010835292819020805490951684179094559251918252917fcf583bb0c569eb967f806b11601c4cb93c10310485c67add5f8362c2f212321f910160405180910390a16000611144565b60008082856001600160a01b03166318160ddd6040518163ffffffff1660e01b8152600401602060405180830381865afa158015614757573d6000803e3d6000fd5b505050506040513d601f19601f8201168201806040525081019061477b91906158a4565b61478591906159f5565b9050801580159061479757506103e881105b156147a357600d612ea6565b6001600160a01b0385166000908152600a602052604090205460ff166147ca576008612ea6565b6001600160a01b038086166000908152600a60209081526040808320938816835260029093019052205460ff16614802576000612ea6565b6000806130e5868887600061377e565b60005b601b5481101561179e57601b8181548110614832576148326158f0565b600091825260209091200154604051634e081c9560e01b81526001600160a01b0386811660048301528581166024830152848116604483015290911690634e081c9590606401600060405180830381600087803b15801561489257600080fd5b505af11580156148a6573d6000803e3d6000fd5b5050505080806148b59061591c565b915050614815565b6001600160a01b0382166000908152600a60205260408120805460ff166148e8576008915050611166565b6001600160a01b038316600090815260028201602052604090205460ff1615156001141561491a576000915050611166565b6001600160a01b03838116600081815260028401602090815260408083208054600160ff199091168117909155600983528184208054918201815584528284200180546001600160a01b031916958a1695909517909455918152600c909152205460ff16614a0b57600d8054600180820183557fd7b6990105719101dabeb77144f2a3385c8033acd3af97e9423a695e81ad1eb590910180546001600160a01b0319166001600160a01b0387169081179091556000908152600c60205260409020805460ff19168217905590546149f191906159f5565b6001600160a01b0384166000908152600e60205260409020555b604080516001600160a01b038087168252851660208201527f3ab23ab0d51cccc0c3085aec51f99228625aa1a922b3a8ca89a26b0f2027a1a5910160405180910390a15060009392505050565b6040805160208101909152600081526040518060200160405280614a8485600001518560000151613fb3565b90529392505050565b6040805160208101909152600081526040518060200160405280670de0b6b3a7640000614ac28660000151866000015161513e565b614a849190615a8d565b6040805160208101909152600081526040518060200160405280614a84614aff8660000151670de0b6b3a764000061513e565b8551615180565b60007f45b96fe442630264581b197e84bbada861235052c5a1aadfff9ea4e40a969aa0846014811115614b3b57614b3b6158bd565b84601a811115614b4d57614b4d6158bd565b604080519283526020830191909152810184905260600160405180910390a1836014811115611144576111446158bd565b600080614b8b8585615082565b90506111ce614b99826150aa565b84613fb3565b600080614bac8486615aaf565b90508285821015614bd05760405162461bcd60e51b815260040161047c9190615ae7565b50949350505050565b600080838311614bf8576000614bef84866159f5565b9150915061405d565b5060039050600061405d565b6000816001600160a01b03166389f8132e6040518163ffffffff1660e01b8152600401600060405180830381865afa158015614c44573d6000803e3d6000fd5b505050506040513d6000823e601f3d908101601f19168201604052614c6c9190810190615b3c565b9050600080516020615bfc83398151915260005b82518161ffff16101561179e576000838261ffff1681518110614ca557614ca56158f0565b6020908102919091018101516001600160e01b031981166000908152918590526040909120549091506001600160a01b03868116911614614ce857614ce8615a22565b6001600160e01b0319811660009081526020849052604090205460018085018054600160a01b90930461ffff16929091614d21916159f5565b81548110614d3157614d316158f0565b90600052602060002090600891828204019190066004029054906101000a900460e01b846001018261ffff1681548110614d6d57614d6d6158f0565b90600052602060002090600891828204019190066004026101000a81548163ffffffff021916908360e01c021790555080846000016000866001018461ffff1681548110614dbd57614dbd6158f0565b6000918252602080832060088304015460079092166004026101000a90910460e01b6001600160e01b03191683528201929092526040019020805461ffff60a01b1916600160a01b61ffff939093169290920291909117905560018401805480614e2957614e29615a0c565b60008281526020808220600860001990940193840401805463ffffffff600460078716026101000a0219169055919092556001600160e01b0319909316815291849052506040902080546001600160b01b031916905580614e8981615bd9565b915050614c80565b6000816001600160a01b03166389f8132e6040518163ffffffff1660e01b8152600401600060405180830381865afa158015614ed1573d6000803e3d6000fd5b505050506040513d6000823e601f3d908101601f19168201604052614ef99190810190615b3c565b7fc8fcad8db84d3cc18b4c41d551ea0ee66dd599cde068d998e57d5e09332c131d54909150600080516020615bfc8339815191529060005b835181101561507b576000848281518110614f4e57614f4e6158f0565b6020908102919091018101516001600160e01b031981166000908152918690526040909120549091506001600160a01b03168015614fba57604051632c18df3360e01b81526001600160e01b0319831660048201526001600160a01b038216602482015260440161047c565b6040805180820182526001600160a01b03808a16825261ffff80881660208085019182526001600160e01b0319881660009081528b8252958620945185549251909316600160a01b026001600160b01b0319909216929093169190911717909155600180880180549182018155835291206008820401805460e085901c60046007909416939093026101000a92830263ffffffff90930219169190911790558361506381615bd9565b945050505080806150739061591c565b915050614f31565b5050505050565b6040805160208101909152600081526040518060200160405280614a8485600001518561513e565b805160009061116690670de0b6b3a764000090615a8d565b60006150da6040518060200160405280600081525090565b6000806150eb8660000151866151b3565b90925090506000826003811115615104576151046158bd565b146151235750604080516020810190915260008152909250905061405d565b60408051602081019091529081526000969095509350505050565b6000610c1683836040518060400160405280601781526020017f6d756c7469706c69636174696f6e206f766572666c6f770000000000000000008152506151f2565b6000610c1683836040518060400160405280600e81526020016d646976696465206279207a65726f60901b815250615245565b600080836151c65750600090508061405d565b838302836151d48683615a8d565b146151e75760026000925092505061405d565b60009250905061405d565b60008315806151ff575082155b1561520c57506000610c16565b60006152188486615a6e565b9050836152258683615a8d565b148390614bd05760405162461bcd60e51b815260040161047c9190615ae7565b600081836152665760405162461bcd60e51b815260040161047c9190615ae7565b506111448385615a8d565b6040518061018001604052806000815260200160008152602001600081526020016000815260200160008152602001600081526020016152bd6040518060200160405280600081525090565b81526020016152d86040518060200160405280600081525090565b81526020016152f36040518060200160405280600081525090565b815260200161530e6040518060200160405280600081525090565b815260200160008152602001600081525090565b6001600160a01b038116811461533757600080fd5b50565b60006020828403121561534c57600080fd5b8135610c1681615322565b6000806040838503121561536a57600080fd5b823561537581615322565b9150602083013561538581615322565b809150509250929050565b801515811461533757600080fd5b6000806000606084860312156153b357600080fd5b83356153be81615322565b925060208401356153ce81615322565b915060408401356153de81615390565b809150509250925092565b6000806000606084860312156153fe57600080fd5b833561540981615322565b9250602084013561541981615322565b915060408401356153de81615322565b6000806000806080858703121561543f57600080fd5b843561544a81615322565b9350602085013561545a81615322565b9250604085013561546a81615322565b9396929550929360600135925050565b60006020828403121561548c57600080fd5b5035919050565b600080600080608085870312156154a957600080fd5b84356154b481615322565b935060208501356154c481615322565b93969395505050506040820135916060013590565b6000806000606084860312156154ee57600080fd5b83356154f981615322565b9250602084013561550981615322565b929592945050506040919091013590565b600080600080600060a0868803121561553257600080fd5b853561553d81615322565b9450602086013561554d81615322565b9350604086013561555d81615322565b9250606086013561556d81615322565b949793965091946080013592915050565b6020808252825182820181905260009190848201906040850190845b818110156155bf5783516001600160a01b03168352928401929184019160010161559a565b50909695505050505050565b600080604083850312156155de57600080fd5b82356155e981615322565b946020939093013593505050565b60006020828403121561560957600080fd5b8135610c1681615390565b6000806000806060858703121561562a57600080fd5b843561563581615390565b9350602085013567ffffffffffffffff8082111561565257600080fd5b818701915087601f83011261566657600080fd5b81358181111561567557600080fd5b88602082850101111561568757600080fd5b95986020929092019750949560400135945092505050565b634e487b7160e01b600052604160045260246000fd5b604051601f8201601f1916810167ffffffffffffffff811182821017156156de576156de61569f565b604052919050565b600067ffffffffffffffff8211156157005761570061569f565b5060051b60200190565b6000602080838503121561571d57600080fd5b823567ffffffffffffffff81111561573457600080fd5b8301601f8101851361574557600080fd5b8035615758615753826156e6565b6156b5565b81815260059190911b8201830190838101908783111561577757600080fd5b928401925b8284101561340757833561578f81615322565b8252928401929084019061577c565b6020808252825182820181905260009190848201906040850190845b818110156155bf578351835292840192918401916001016157ba565b60008083601f8401126157e857600080fd5b50813567ffffffffffffffff81111561580057600080fd5b6020830191508360208260051b850101111561405d57600080fd5b6000806000806040858703121561583157600080fd5b843567ffffffffffffffff8082111561584957600080fd5b615855888389016157d6565b9096509450602087013591508082111561586e57600080fd5b5061587b878288016157d6565b95989497509550505050565b60006020828403121561589957600080fd5b8151610c1681615322565b6000602082840312156158b657600080fd5b5051919050565b634e487b7160e01b600052602160045260246000fd5b6000602082840312156158e557600080fd5b8151610c1681615390565b634e487b7160e01b600052603260045260246000fd5b634e487b7160e01b600052601160045260246000fd5b600060001982141561593057615930615906565b5060010190565b6000602080838503121561594a57600080fd5b825167ffffffffffffffff81111561596157600080fd5b8301601f8101851361597257600080fd5b8051615980615753826156e6565b81815260059190911b8201830190838101908783111561599f57600080fd5b928401925b828410156134075783516159b781615322565b825292840192908401906159a4565b60208152816020820152818360408301376000818301604090810191909152601f909201601f19160101919050565b600082821015615a0757615a07615906565b500390565b634e487b7160e01b600052603160045260246000fd5b634e487b7160e01b600052600160045260246000fd5b60008060008060808587031215615a4e57600080fd5b505082516020840151604085015160609095015191969095509092509050565b6000816000190483118215151615615a8857615a88615906565b500290565b600082615aaa57634e487b7160e01b600052601260045260246000fd5b500490565b60008219821115615ac257615ac2615906565b500190565b600060ff821660ff811415615ade57615ade615906565b60010192915050565b600060208083528351808285015260005b81811015615b1457858101830151858201604001528201615af8565b81811115615b26576000604083870101525b50601f01601f1916929092016040019392505050565b60006020808385031215615b4f57600080fd5b825167ffffffffffffffff811115615b6657600080fd5b8301601f81018513615b7757600080fd5b8051615b85615753826156e6565b81815260059190911b82018301908381019087831115615ba457600080fd5b928401925b828410156134075783516001600160e01b031981168114615bca5760008081fd5b82529284019290840190615ba9565b600061ffff80831681811415615bf157615bf1615906565b600101939250505056fec8fcad8db84d3cc18b4c41d551ea0ee66dd599cde068d998e57d5e09332c131ca164736f6c634300080a000a",
    "linkReferences": {}
  },
  "methodIdentifiers": {
    "_addRewardsDistributor(address)": "b9b5b153",
    "_afterNonReentrant()": "632e5142",
    "_become(address)": "1d504dc6",
    "_becomeImplementation()": "5d72de62",
    "_beforeNonReentrant()": "c90c20b1",
    "_borrowGuardianPaused()": "e6653f3d",
    "_deployMarket(bool,bytes,uint256)": "aba35b98",
    "_listExtensions()": "6333d001",
    "_mintGuardianPaused()": "3c94786f",
    "_registerExtension(address,address)": "89cd9855",
    "_setCloseFactor(uint256)": "317b0b77",
    "_setCollateralFactor(address,uint256)": "e4028eee",
    "_setLiquidationIncentive(uint256)": "4fd42e17",
    "_setPriceOracle(address)": "55ee1fe1",
    "_setWhitelistEnforcement(bool)": "952adf5a",
    "_setWhitelistStatuses(address[],bool[])": "c8c9c975",
    "_toggleAutoImplementations(bool)": "d5333166",
    "accountAssets(address,uint256)": "dce15449",
    "admin()": "f851a440",
    "adminHasRights()": "0a755ec2",
    "allBorrowers(uint256)": "7515bafa",
    "allMarkets(uint256)": "52d84d1e",
    "asComptrollerFirstExtension()": "1ace5957",
    "autoImplementation()": "dd5cd22c",
    "borrowAllowed(address,address,uint256)": "da3d454c",
    "borrowCapForCollateral(address,address)": "940cd6f1",
    "borrowCapForCollateralWhitelist(address,address,address)": "ca36d40a",
    "borrowCapGuardian()": "21af4569",
    "borrowCapWhitelist(address,address)": "bc89f68a",
    "borrowCaps(address)": "4a584432",
    "borrowGuardianPaused(address)": "6d154ea5",
    "borrowWithinLimits(address,uint256)": "779b2294",
    "borrowingAgainstCollateralBlacklist(address,address)": "1c819e43",
    "borrowingAgainstCollateralBlacklistWhitelist(address,address,address)": "1dadaa84",
    "cTokensByUnderlying(address)": "31ff47fa",
    "checkMembership(address,address)": "929fe9a1",
    "closeFactorMantissa()": "e8755446",
    "comptrollerImplementation()": "bb82aa5e",
    "enforceWhitelist()": "b0957210",
    "enterMarkets(address[])": "c2998238",
    "exitMarket(address)": "ede4edd0",
    "fuseAdmin()": "15761d51",
    "fuseAdminHasRights()": "2f1069ba",
    "getAccountLiquidity(address)": "5ec88c79",
    "getAssetsIn(address)": "abfceffc",
    "getHypotheticalAccountLiquidity(address,address,uint256,uint256)": "4e79238f",
    "getMaxRedeemOrBorrow(address,address,bool)": "1976828e",
    "isComptroller()": "007e3dd2",
    "isDeprecated(address)": "94543c15",
    "liquidateBorrowAllowed(address,address,address,address,uint256)": "5fc7e71e",
    "liquidateCalculateSeizeTokens(address,address,uint256)": "c488847b",
    "liquidationIncentiveMantissa()": "4ada90af",
    "markets(address)": "8e8f294b",
    "mintAllowed(address,address,uint256)": "4ef4c3e1",
    "mintGuardianPaused(address)": "731f0c2b",
    "nonAccruingRewardsDistributors(uint256)": "6bd02b8a",
    "oracle()": "7dc0d1d0",
    "pauseGuardian()": "24a3d622",
    "pendingAdmin()": "26782247",
    "pendingComptrollerImplementation()": "dcfbc0c7",
    "redeemAllowed(address,address,uint256)": "eabe7d91",
    "redeemVerify(address,address,uint256,uint256)": "51dff989",
    "repayBorrowAllowed(address,address,address,uint256)": "24008a62",
    "rewardsDistributors(uint256)": "c6c5b0dd",
    "seizeAllowed(address,address,address,address,uint256)": "d02f7351",
    "seizeGuardianPaused()": "ac0b0bb7",
    "suppliers(address)": "16dc15fe",
    "supplyCapWhitelist(address,address)": "1879dbc5",
    "supplyCaps(address)": "02c3bcbb",
    "transferAllowed(address,address,address,uint256)": "bdcdc258",
    "transferGuardianPaused()": "87f76303",
    "whitelist(address)": "9b19251a",
    "whitelistArray(uint256)": "d251fefc"
  }
}