{
  "address": "0x3038d5a244BC01E9Ed2A6732dB54016Fc8393967",
  "abi": [
    {
      "anonymous": false,
      "inputs": [
        {
          "indexed": false,
          "internalType": "string",
          "name": "action",
          "type": "string"
        },
        {
          "indexed": false,
          "internalType": "bool",
          "name": "pauseState",
          "type": "bool"
        }
      ],
      "name": "ActionPaused",
      "type": "event"
    },
    {
      "anonymous": false,
      "inputs": [
        {
          "indexed": false,
          "internalType": "uint256",
          "name": "error",
          "type": "uint256"
        },
        {
          "indexed": false,
          "internalType": "uint256",
          "name": "info",
          "type": "uint256"
        },
        {
          "indexed": false,
          "internalType": "uint256",
          "name": "detail",
          "type": "uint256"
        }
      ],
      "name": "Failure",
      "type": "event"
    },
    {
      "anonymous": false,
      "inputs": [
        {
          "indexed": false,
          "internalType": "contract ICErc20",
          "name": "cToken",
          "type": "address"
        },
        {
          "indexed": false,
          "internalType": "string",
          "name": "action",
          "type": "string"
        },
        {
          "indexed": false,
          "internalType": "bool",
          "name": "pauseState",
          "type": "bool"
        }
      ],
      "name": "MarketActionPaused",
      "type": "event"
    },
    {
      "anonymous": false,
      "inputs": [
        {
          "indexed": false,
          "internalType": "contract ICErc20",
          "name": "cToken",
          "type": "address"
        }
      ],
      "name": "MarketUnlisted",
      "type": "event"
    },
    {
      "anonymous": false,
      "inputs": [
        {
          "indexed": true,
          "internalType": "contract ICErc20",
          "name": "cToken",
          "type": "address"
        },
        {
          "indexed": false,
          "internalType": "uint256",
          "name": "newBorrowCap",
          "type": "uint256"
        }
      ],
      "name": "NewBorrowCap",
      "type": "event"
    },
    {
      "anonymous": false,
      "inputs": [
        {
          "indexed": false,
          "internalType": "address",
          "name": "oldBorrowCapGuardian",
          "type": "address"
        },
        {
          "indexed": false,
          "internalType": "address",
          "name": "newBorrowCapGuardian",
          "type": "address"
        }
      ],
      "name": "NewBorrowCapGuardian",
      "type": "event"
    },
    {
      "anonymous": false,
      "inputs": [
        {
          "indexed": false,
          "internalType": "address",
          "name": "oldPauseGuardian",
          "type": "address"
        },
        {
          "indexed": false,
          "internalType": "address",
          "name": "newPauseGuardian",
          "type": "address"
        }
      ],
      "name": "NewPauseGuardian",
      "type": "event"
    },
    {
      "anonymous": false,
      "inputs": [
        {
          "indexed": true,
          "internalType": "contract ICErc20",
          "name": "cToken",
          "type": "address"
        },
        {
          "indexed": false,
          "internalType": "uint256",
          "name": "newSupplyCap",
          "type": "uint256"
        }
      ],
      "name": "NewSupplyCap",
      "type": "event"
    },
    {
      "inputs": [
        {
          "internalType": "address",
          "name": "cTokenBorrow",
          "type": "address"
        },
        {
          "internalType": "address",
          "name": "cTokenCollateral",
          "type": "address"
        },
        {
          "internalType": "bool",
          "name": "blacklisted",
          "type": "bool"
        }
      ],
      "name": "_blacklistBorrowingAgainstCollateral",
      "outputs": [],
      "stateMutability": "nonpayable",
      "type": "function"
    },
    {
      "inputs": [
        {
          "internalType": "address",
          "name": "cTokenBorrow",
          "type": "address"
        },
        {
          "internalType": "address",
          "name": "cTokenCollateral",
          "type": "address"
        },
        {
          "internalType": "address",
          "name": "account",
          "type": "address"
        },
        {
          "internalType": "bool",
          "name": "whitelisted",
          "type": "bool"
        }
      ],
      "name": "_blacklistBorrowingAgainstCollateralWhitelist",
      "outputs": [],
      "stateMutability": "nonpayable",
      "type": "function"
    },
    {
      "inputs": [
        {
          "internalType": "address",
          "name": "cToken",
          "type": "address"
        },
        {
          "internalType": "address",
          "name": "account",
          "type": "address"
        },
        {
          "internalType": "bool",
          "name": "whitelisted",
          "type": "bool"
        }
      ],
      "name": "_borrowCapWhitelist",
      "outputs": [],
      "stateMutability": "nonpayable",
      "type": "function"
    },
    {
      "inputs": [],
      "name": "_borrowGuardianPaused",
      "outputs": [
        {
          "internalType": "bool",
          "name": "",
          "type": "bool"
        }
      ],
      "stateMutability": "view",
      "type": "function"
    },
    {
      "inputs": [],
      "name": "_getExtensionFunctions",
      "outputs": [
        {
          "internalType": "bytes4[]",
          "name": "",
          "type": "bytes4[]"
        }
      ],
      "stateMutability": "pure",
      "type": "function"
    },
    {
      "inputs": [],
      "name": "_mintGuardianPaused",
      "outputs": [
        {
          "internalType": "bool",
          "name": "",
          "type": "bool"
        }
      ],
      "stateMutability": "view",
      "type": "function"
    },
    {
      "inputs": [
        {
          "internalType": "address",
          "name": "flywheelAddress",
          "type": "address"
        }
      ],
      "name": "_removeFlywheel",
      "outputs": [
        {
          "internalType": "bool",
          "name": "",
          "type": "bool"
        }
      ],
      "stateMutability": "nonpayable",
      "type": "function"
    },
    {
      "inputs": [
        {
          "internalType": "address",
          "name": "cTokenBorrow",
          "type": "address"
        },
        {
          "internalType": "address",
          "name": "cTokenCollateral",
          "type": "address"
        },
        {
          "internalType": "uint256",
          "name": "borrowCap",
          "type": "uint256"
        }
      ],
      "name": "_setBorrowCapForCollateral",
      "outputs": [],
      "stateMutability": "nonpayable",
      "type": "function"
    },
    {
      "inputs": [
        {
          "internalType": "address",
          "name": "cTokenBorrow",
          "type": "address"
        },
        {
          "internalType": "address",
          "name": "cTokenCollateral",
          "type": "address"
        },
        {
          "internalType": "address",
          "name": "account",
          "type": "address"
        },
        {
          "internalType": "bool",
          "name": "whitelisted",
          "type": "bool"
        }
      ],
      "name": "_setBorrowCapForCollateralWhitelist",
      "outputs": [],
      "stateMutability": "nonpayable",
      "type": "function"
    },
    {
      "inputs": [
        {
          "internalType": "address",
          "name": "newBorrowCapGuardian",
          "type": "address"
        }
      ],
      "name": "_setBorrowCapGuardian",
      "outputs": [],
      "stateMutability": "nonpayable",
      "type": "function"
    },
    {
      "inputs": [
        {
          "internalType": "contract ICErc20",
          "name": "cToken",
          "type": "address"
        },
        {
          "internalType": "bool",
          "name": "state",
          "type": "bool"
        }
      ],
      "name": "_setBorrowPaused",
      "outputs": [
        {
          "internalType": "bool",
          "name": "",
          "type": "bool"
        }
      ],
      "stateMutability": "nonpayable",
      "type": "function"
    },
    {
      "inputs": [
        {
          "internalType": "contract ICErc20[]",
          "name": "cTokens",
          "type": "address[]"
        },
        {
          "internalType": "uint256[]",
          "name": "newBorrowCaps",
          "type": "uint256[]"
        }
      ],
      "name": "_setMarketBorrowCaps",
      "outputs": [],
      "stateMutability": "nonpayable",
      "type": "function"
    },
    {
      "inputs": [
        {
          "internalType": "contract ICErc20[]",
          "name": "cTokens",
          "type": "address[]"
        },
        {
          "internalType": "uint256[]",
          "name": "newSupplyCaps",
          "type": "uint256[]"
        }
      ],
      "name": "_setMarketSupplyCaps",
      "outputs": [],
      "stateMutability": "nonpayable",
      "type": "function"
    },
    {
      "inputs": [
        {
          "internalType": "contract ICErc20",
          "name": "cToken",
          "type": "address"
        },
        {
          "internalType": "bool",
          "name": "state",
          "type": "bool"
        }
      ],
      "name": "_setMintPaused",
      "outputs": [
        {
          "internalType": "bool",
          "name": "",
          "type": "bool"
        }
      ],
      "stateMutability": "nonpayable",
      "type": "function"
    },
    {
      "inputs": [
        {
          "internalType": "address",
          "name": "newPauseGuardian",
          "type": "address"
        }
      ],
      "name": "_setPauseGuardian",
      "outputs": [
        {
          "internalType": "uint256",
          "name": "",
          "type": "uint256"
        }
      ],
      "stateMutability": "nonpayable",
      "type": "function"
    },
    {
      "inputs": [
        {
          "internalType": "bool",
          "name": "state",
          "type": "bool"
        }
      ],
      "name": "_setSeizePaused",
      "outputs": [
        {
          "internalType": "bool",
          "name": "",
          "type": "bool"
        }
      ],
      "stateMutability": "nonpayable",
      "type": "function"
    },
    {
      "inputs": [
        {
          "internalType": "bool",
          "name": "state",
          "type": "bool"
        }
      ],
      "name": "_setTransferPaused",
      "outputs": [
        {
          "internalType": "bool",
          "name": "",
          "type": "bool"
        }
      ],
      "stateMutability": "nonpayable",
      "type": "function"
    },
    {
      "inputs": [
        {
          "internalType": "address",
          "name": "cToken",
          "type": "address"
        },
        {
          "internalType": "address",
          "name": "account",
          "type": "address"
        },
        {
          "internalType": "bool",
          "name": "whitelisted",
          "type": "bool"
        }
      ],
      "name": "_supplyCapWhitelist",
      "outputs": [],
      "stateMutability": "nonpayable",
      "type": "function"
    },
    {
      "inputs": [
        {
          "internalType": "contract ICErc20",
          "name": "cToken",
          "type": "address"
        }
      ],
      "name": "_unsupportMarket",
      "outputs": [
        {
          "internalType": "uint256",
          "name": "",
          "type": "uint256"
        }
      ],
      "stateMutability": "nonpayable",
      "type": "function"
    },
    {
      "inputs": [
        {
          "internalType": "address",
          "name": "",
          "type": "address"
        },
        {
          "internalType": "uint256",
          "name": "",
          "type": "uint256"
        }
      ],
      "name": "accountAssets",
      "outputs": [
        {
          "internalType": "contract ICErc20",
          "name": "",
          "type": "address"
        }
      ],
      "stateMutability": "view",
      "type": "function"
    },
    {
      "inputs": [
        {
          "internalType": "address",
          "name": "flywheelAddress",
          "type": "address"
        }
      ],
      "name": "addNonAccruingFlywheel",
      "outputs": [
        {
          "internalType": "bool",
          "name": "",
          "type": "bool"
        }
      ],
      "stateMutability": "nonpayable",
      "type": "function"
    },
    {
      "inputs": [],
      "name": "admin",
      "outputs": [
        {
          "internalType": "address",
          "name": "",
          "type": "address"
        }
      ],
      "stateMutability": "view",
      "type": "function"
    },
    {
      "inputs": [],
      "name": "adminHasRights",
      "outputs": [
        {
          "internalType": "bool",
          "name": "",
          "type": "bool"
        }
      ],
      "stateMutability": "view",
      "type": "function"
    },
    {
      "inputs": [
        {
          "internalType": "uint256",
          "name": "",
          "type": "uint256"
        }
      ],
      "name": "allBorrowers",
      "outputs": [
        {
          "internalType": "address",
          "name": "",
          "type": "address"
        }
      ],
      "stateMutability": "view",
      "type": "function"
    },
    {
      "inputs": [
        {
          "internalType": "uint256",
          "name": "",
          "type": "uint256"
        }
      ],
      "name": "allMarkets",
      "outputs": [
        {
          "internalType": "contract ICErc20",
          "name": "",
          "type": "address"
        }
      ],
      "stateMutability": "view",
      "type": "function"
    },
    {
      "inputs": [],
      "name": "autoImplementation",
      "outputs": [
        {
          "internalType": "bool",
          "name": "",
          "type": "bool"
        }
      ],
      "stateMutability": "view",
      "type": "function"
    },
    {
      "inputs": [
        {
          "internalType": "address",
          "name": "",
          "type": "address"
        },
        {
          "internalType": "address",
          "name": "",
          "type": "address"
        }
      ],
      "name": "borrowCapForCollateral",
      "outputs": [
        {
          "internalType": "uint256",
          "name": "",
          "type": "uint256"
        }
      ],
      "stateMutability": "view",
      "type": "function"
    },
    {
      "inputs": [],
      "name": "borrowCapGuardian",
      "outputs": [
        {
          "internalType": "address",
          "name": "",
          "type": "address"
        }
      ],
      "stateMutability": "view",
      "type": "function"
    },
    {
      "inputs": [
        {
          "internalType": "address",
          "name": "",
          "type": "address"
        }
      ],
      "name": "borrowCaps",
      "outputs": [
        {
          "internalType": "uint256",
          "name": "",
          "type": "uint256"
        }
      ],
      "stateMutability": "view",
      "type": "function"
    },
    {
      "inputs": [
        {
          "internalType": "address",
          "name": "",
          "type": "address"
        }
      ],
      "name": "borrowGuardianPaused",
      "outputs": [
        {
          "internalType": "bool",
          "name": "",
          "type": "bool"
        }
      ],
      "stateMutability": "view",
      "type": "function"
    },
    {
      "inputs": [
        {
          "internalType": "address",
          "name": "",
          "type": "address"
        },
        {
          "internalType": "address",
          "name": "",
          "type": "address"
        }
      ],
      "name": "borrowingAgainstCollateralBlacklist",
      "outputs": [
        {
          "internalType": "bool",
          "name": "",
          "type": "bool"
        }
      ],
      "stateMutability": "view",
      "type": "function"
    },
    {
      "inputs": [
        {
          "internalType": "address",
          "name": "",
          "type": "address"
        }
      ],
      "name": "cTokensByUnderlying",
      "outputs": [
        {
          "internalType": "contract ICErc20",
          "name": "",
          "type": "address"
        }
      ],
      "stateMutability": "view",
      "type": "function"
    },
    {
      "inputs": [],
      "name": "closeFactorMantissa",
      "outputs": [
        {
          "internalType": "uint256",
          "name": "",
          "type": "uint256"
        }
      ],
      "stateMutability": "view",
      "type": "function"
    },
    {
      "inputs": [],
      "name": "comptrollerImplementation",
      "outputs": [
        {
          "internalType": "address",
          "name": "",
          "type": "address"
        }
      ],
      "stateMutability": "view",
      "type": "function"
    },
    {
      "inputs": [],
      "name": "enforceWhitelist",
      "outputs": [
        {
          "internalType": "bool",
          "name": "",
          "type": "bool"
        }
      ],
      "stateMutability": "view",
      "type": "function"
    },
    {
      "inputs": [],
      "name": "getAccruingFlywheels",
      "outputs": [
        {
          "internalType": "address[]",
          "name": "",
          "type": "address[]"
        }
      ],
      "stateMutability": "view",
      "type": "function"
    },
    {
      "inputs": [],
      "name": "getAllBorrowers",
      "outputs": [
        {
          "internalType": "address[]",
          "name": "",
          "type": "address[]"
        }
      ],
      "stateMutability": "view",
      "type": "function"
    },
    {
      "inputs": [],
      "name": "getAllMarkets",
      "outputs": [
        {
          "internalType": "contract ICErc20[]",
          "name": "",
          "type": "address[]"
        }
      ],
      "stateMutability": "view",
      "type": "function"
    },
    {
      "inputs": [
        {
          "internalType": "contract ICErc20",
          "name": "collateral",
          "type": "address"
        },
        {
          "internalType": "contract ICErc20",
          "name": "cTokenModify",
          "type": "address"
        },
        {
          "internalType": "bool",
          "name": "redeeming",
          "type": "bool"
        },
        {
          "internalType": "address",
          "name": "account",
          "type": "address"
        }
      ],
      "name": "getAssetAsCollateralValueCap",
      "outputs": [
        {
          "internalType": "uint256",
          "name": "",
          "type": "uint256"
        }
      ],
      "stateMutability": "view",
      "type": "function"
    },
    {
      "inputs": [],
      "name": "getRewardsDistributors",
      "outputs": [
        {
          "internalType": "address[]",
          "name": "",
          "type": "address[]"
        }
      ],
      "stateMutability": "view",
      "type": "function"
    },
    {
      "inputs": [],
      "name": "getWhitelist",
      "outputs": [
        {
          "internalType": "address[]",
          "name": "",
          "type": "address[]"
        }
      ],
      "stateMutability": "view",
      "type": "function"
    },
    {
      "inputs": [
        {
          "internalType": "address",
          "name": "cToken",
          "type": "address"
        }
      ],
      "name": "getWhitelistedBorrowersBorrows",
      "outputs": [
        {
          "internalType": "uint256",
          "name": "borrowed",
          "type": "uint256"
        }
      ],
      "stateMutability": "view",
      "type": "function"
    },
    {
      "inputs": [
        {
          "internalType": "address",
          "name": "cToken",
          "type": "address"
        }
      ],
      "name": "getWhitelistedSuppliersSupply",
      "outputs": [
        {
          "internalType": "uint256",
          "name": "supplied",
          "type": "uint256"
        }
      ],
      "stateMutability": "view",
      "type": "function"
    },
    {
      "inputs": [],
      "name": "ionicAdmin",
      "outputs": [
        {
          "internalType": "address payable",
          "name": "",
          "type": "address"
        }
      ],
      "stateMutability": "view",
      "type": "function"
    },
    {
      "inputs": [],
      "name": "ionicAdminHasRights",
      "outputs": [
        {
          "internalType": "bool",
          "name": "",
          "type": "bool"
        }
      ],
      "stateMutability": "view",
      "type": "function"
    },
    {
      "inputs": [
        {
          "internalType": "address",
          "name": "cTokenBorrow",
          "type": "address"
        },
        {
          "internalType": "address",
          "name": "cTokenCollateral",
          "type": "address"
        },
        {
          "internalType": "address",
          "name": "account",
          "type": "address"
        }
      ],
      "name": "isBlacklistBorrowingAgainstCollateralWhitelisted",
      "outputs": [
        {
          "internalType": "bool",
          "name": "",
          "type": "bool"
        }
      ],
      "stateMutability": "view",
      "type": "function"
    },
    {
      "inputs": [
        {
          "internalType": "address",
          "name": "cTokenBorrow",
          "type": "address"
        },
        {
          "internalType": "address",
          "name": "cTokenCollateral",
          "type": "address"
        },
        {
          "internalType": "address",
          "name": "account",
          "type": "address"
        }
      ],
      "name": "isBorrowCapForCollateralWhitelisted",
      "outputs": [
        {
          "internalType": "bool",
          "name": "",
          "type": "bool"
        }
      ],
      "stateMutability": "view",
      "type": "function"
    },
    {
      "inputs": [
        {
          "internalType": "address",
          "name": "cToken",
          "type": "address"
        },
        {
          "internalType": "address",
          "name": "account",
          "type": "address"
        }
      ],
      "name": "isBorrowCapWhitelisted",
      "outputs": [
        {
          "internalType": "bool",
          "name": "",
          "type": "bool"
        }
      ],
      "stateMutability": "view",
      "type": "function"
    },
    {
      "inputs": [
        {
          "internalType": "address",
          "name": "cToken",
          "type": "address"
        },
        {
          "internalType": "address",
          "name": "account",
          "type": "address"
        }
      ],
      "name": "isSupplyCapWhitelisted",
      "outputs": [
        {
          "internalType": "bool",
          "name": "",
          "type": "bool"
        }
      ],
      "stateMutability": "view",
      "type": "function"
    },
    {
      "inputs": [
        {
          "internalType": "address",
          "name": "user",
          "type": "address"
        }
      ],
      "name": "isUserOfPool",
      "outputs": [
        {
          "internalType": "bool",
          "name": "",
          "type": "bool"
        }
      ],
      "stateMutability": "view",
      "type": "function"
    },
    {
      "inputs": [],
      "name": "liquidationIncentiveMantissa",
      "outputs": [
        {
          "internalType": "uint256",
          "name": "",
          "type": "uint256"
        }
      ],
      "stateMutability": "view",
      "type": "function"
    },
    {
      "inputs": [
        {
          "internalType": "address",
          "name": "",
          "type": "address"
        }
      ],
      "name": "markets",
      "outputs": [
        {
          "internalType": "bool",
          "name": "isListed",
          "type": "bool"
        },
        {
          "internalType": "uint256",
          "name": "collateralFactorMantissa",
          "type": "uint256"
        }
      ],
      "stateMutability": "view",
      "type": "function"
    },
    {
      "inputs": [
        {
          "internalType": "address",
          "name": "",
          "type": "address"
        }
      ],
      "name": "mintGuardianPaused",
      "outputs": [
        {
          "internalType": "bool",
          "name": "",
          "type": "bool"
        }
      ],
      "stateMutability": "view",
      "type": "function"
    },
    {
      "inputs": [
        {
          "internalType": "uint256",
          "name": "",
          "type": "uint256"
        }
      ],
      "name": "nonAccruingRewardsDistributors",
      "outputs": [
        {
          "internalType": "address",
          "name": "",
          "type": "address"
        }
      ],
      "stateMutability": "view",
      "type": "function"
    },
    {
      "inputs": [],
      "name": "oracle",
      "outputs": [
        {
          "internalType": "contract BasePriceOracle",
          "name": "",
          "type": "address"
        }
      ],
      "stateMutability": "view",
      "type": "function"
    },
    {
      "inputs": [],
      "name": "pauseGuardian",
      "outputs": [
        {
          "internalType": "address",
          "name": "",
          "type": "address"
        }
      ],
      "stateMutability": "view",
      "type": "function"
    },
    {
      "inputs": [],
      "name": "pendingAdmin",
      "outputs": [
        {
          "internalType": "address",
          "name": "",
          "type": "address"
        }
      ],
      "stateMutability": "view",
      "type": "function"
    },
    {
      "inputs": [],
      "name": "pendingComptrollerImplementation",
      "outputs": [
        {
          "internalType": "address",
          "name": "",
          "type": "address"
        }
      ],
      "stateMutability": "view",
      "type": "function"
    },
    {
      "inputs": [
        {
          "internalType": "uint256",
          "name": "",
          "type": "uint256"
        }
      ],
      "name": "rewardsDistributors",
      "outputs": [
        {
          "internalType": "address",
          "name": "",
          "type": "address"
        }
      ],
      "stateMutability": "view",
      "type": "function"
    },
    {
      "inputs": [],
      "name": "seizeGuardianPaused",
      "outputs": [
        {
          "internalType": "bool",
          "name": "",
          "type": "bool"
        }
      ],
      "stateMutability": "view",
      "type": "function"
    },
    {
      "inputs": [
        {
          "internalType": "address",
          "name": "",
          "type": "address"
        }
      ],
      "name": "suppliers",
      "outputs": [
        {
          "internalType": "bool",
          "name": "",
          "type": "bool"
        }
      ],
      "stateMutability": "view",
      "type": "function"
    },
    {
      "inputs": [
        {
          "internalType": "address",
          "name": "",
          "type": "address"
        }
      ],
      "name": "supplyCaps",
      "outputs": [
        {
          "internalType": "uint256",
          "name": "",
          "type": "uint256"
        }
      ],
      "stateMutability": "view",
      "type": "function"
    },
    {
      "inputs": [],
      "name": "transferGuardianPaused",
      "outputs": [
        {
          "internalType": "bool",
          "name": "",
          "type": "bool"
        }
      ],
      "stateMutability": "view",
      "type": "function"
    },
    {
      "inputs": [
        {
          "internalType": "address",
          "name": "",
          "type": "address"
        }
      ],
      "name": "whitelist",
      "outputs": [
        {
          "internalType": "bool",
          "name": "",
          "type": "bool"
        }
      ],
      "stateMutability": "view",
      "type": "function"
    },
    {
      "inputs": [
        {
          "internalType": "uint256",
          "name": "",
          "type": "uint256"
        }
      ],
      "name": "whitelistArray",
      "outputs": [
        {
          "internalType": "address",
          "name": "",
          "type": "address"
        }
      ],
      "stateMutability": "view",
      "type": "function"
    }
  ],
  "transactionHash": "0x07c86165dbb0f4dd96a1acb2782624e36d7d570a312476623cda95e54054bf61",
  "args": [],
  "numDeployments": 1,
  "bytecode": {
    "object": "0x60806040526002805461ffff60a01b191661010160a01b17905534801561002557600080fd5b506135fd806100356000396000f3fe608060405234801561001057600080fd5b50600436106103db5760003560e01c8063783f10961161020a578063c6c5b0dd11610125578063dce15449116100b8578063e875544611610087578063e875544614610932578063ee5b9a2f1461093b578063f851a4401461094e578063f874eb0c14610961578063fb6243fa1461097457600080fd5b8063dce15449146108eb578063dcfbc0c7146108fe578063dd5cd22c14610911578063e6653f3d1461091e57600080fd5b8063d01f63f5116100f4578063d01f63f5146108aa578063d219fca7146108b2578063d251fefc146108c5578063d9e0ea6b146108d857600080fd5b8063c6c5b0dd1461085d578063c76ae26014610870578063c91a424f14610883578063cf6bfd2d1461089657600080fd5b80639b19251a1161019d578063b09572101161016c578063b095721014610817578063b325380114610824578063bb82aa5e14610837578063be945a641461084a57600080fd5b80639b19251a146107c5578063a5fb4857146107e8578063ac0b0bb7146107fb578063b0772d0b1461080f57600080fd5b806389f8132e116101d957806389f8132e1461072e5780638e8f294b146107435780638ebf636414610787578063940cd6f11461079a57600080fd5b8063783f1096146106e15780637dc0d1d0146106f4578063819605a81461070757806387f763031461071a57600080fd5b80633a72cb5e116102fa57806352d84d1e1161028d5780636bd02b8a1161025c5780636bd02b8a146106755780636d154ea514610688578063731f0c2b146106ab5780637515bafa146106ce57600080fd5b806352d84d1e146106295780635f5af1aa1461063c578063607ef6c11461064f578063692fd2a91461066257600080fd5b80634a76e727116102c95780634a76e727146105f25780634ada90af146105fa57806351a485e41461060357806351c8491d1461061657600080fd5b80633a72cb5e146105985780633bcf7ec1146105ab5780633c94786f146105be5780634a584432146105d257600080fd5b80632273f40e1161037257806331ff47fa1161034157806331ff47fa1461053d57806332abcdbe146105665780633605b51b1461057b578063391957d71461058357600080fd5b80632273f40e146104f157806324a3d6221461050457806326782247146105175780632d70db781461052a57600080fd5b806316dc15fe116103ae57806316dc15fe1461045d57806318c882a5146104805780631c819e431461049357806321af4569146104c157600080fd5b806302c3bcbb146103e0578063088e0fce146104135780630a755ec214610436578063109908ce1461044a575b600080fd5b6104006103ee366004613038565b601a6020526000908152604090205481565b6040519081526020015b60405180910390f35b610426610421366004613055565b610987565b604051901515815260200161040a565b60025461042690600160a81b900460ff1681565b610426610458366004613038565b6109be565b61042661046b366004613038565b600f6020526000908152604090205460ff1681565b61042661048e3660046130b5565b610c1c565b6104266104a13660046130ea565b601f60209081526000928352604080842090915290825290205460ff1681565b6018546104d99061010090046001600160a01b031681565b6040516001600160a01b03909116815260200161040a565b6104266104ff3660046130ea565b610d62565b6015546104d9906001600160a01b031681565b6002546104d9906001600160a01b031681565b610426610538366004613123565b610d8b565b6104d961054b366004613038565b6010602052600090815260409020546001600160a01b031681565b61056e610e6e565b60405161040a919061313e565b61056e610ed0565b610596610591366004613038565b611038565b005b6104006105a6366004613038565b6110cd565b6104266105b93660046130b5565b6111b8565b60155461042690600160a01b900460ff1681565b6104006105e0366004613038565b60196020526000908152604090205481565b61056e6112ef565b61040060075481565b6105966106113660046131d7565b61134f565b610596610624366004613243565b6114dd565b6104d961063736600461328a565b611551565b61040061064a366004613038565b61157b565b61059661065d3660046131d7565b6115fb565b610426610670366004613038565b611780565b6104d961068336600461328a565b61191b565b610426610696366004613038565b60176020526000908152604090205460ff1681565b6104266106b9366004613038565b60166020526000908152604090205460ff1681565b6104d96106dc36600461328a565b61192b565b6104006106ef3660046132a3565b61193b565b6005546104d9906001600160a01b031681565b610400610715366004613038565b611c2e565b60155461042690600160b01b900460ff1681565b610736611f64565b60405161040a91906132fd565b610770610751366004613038565b600a602052600090815260409020805460019091015460ff9091169082565b60408051921515835260208301919091520161040a565b610426610795366004613123565b61277d565b6104006107a83660046130ea565b601e60209081526000928352604080842090915290825290205481565b6104266107d3366004613038565b60126020526000908152604090205460ff1681565b6105966107f636600461333f565b612857565b60155461042690600160b81b900460ff1681565b61056e6128a7565b6011546104269060ff1681565b6104266108323660046130ea565b612907565b6003546104d9906001600160a01b031681565b610596610858366004613243565b612929565b6104d961086b36600461328a565b612997565b61059661087e366004613380565b6129a7565b6000546104d9906001600160a01b031681565b60025461042690600160a01b900460ff1681565b61056e612a3c565b6105966108c0366004613380565b612a9c565b6104d96108d336600461328a565b612b20565b6104266108e6366004613038565b612b30565b6104d96108f93660046133da565b612bb1565b6004546104d9906001600160a01b031681565b6018546104269060ff1681565b60155461042690600160a81b900460ff1681565b61040060065481565b610596610949366004613243565b612be9565b6001546104d9906001600160a01b031681565b61042661096f366004613055565b612c47565b610400610982366004613038565b612c78565b6001600160a01b0380841660009081526020808052604080832093861683529290529081206109b69083612d5c565b949350505050565b60006109c8612d7e565b6109ed5760405162461bcd60e51b81526004016109e490613406565b60405180910390fd5b6001600160a01b038216610a2f5760405162461bcd60e51b815260206004820152600960248201526808599b1e5dda19595b60ba1b60448201526064016109e4565b60005b601b54811015610b3657601b8181548110610a4f57610a4f613426565b6000918252602090912001546001600160a01b0384811691161415610b2457601b8054610a7e90600190613452565b81548110610a8e57610a8e613426565b600091825260209091200154601b80546001600160a01b039092169183908110610aba57610aba613426565b9060005260206000200160006101000a8154816001600160a01b0302191690836001600160a01b03160217905550601b805480610af957610af9613469565b600082815260209020810160001990810180546001600160a01b031916905501905550600192915050565b80610b2e8161347f565b915050610a32565b5060005b601d54811015610c1357601d8181548110610b5757610b57613426565b6000918252602090912001546001600160a01b0384811691161415610c0157601d8054610b8690600190613452565b81548110610b9657610b96613426565b600091825260209091200154601d80546001600160a01b039092169183908110610bc257610bc2613426565b9060005260206000200160006101000a8154816001600160a01b0302191690836001600160a01b03160217905550601d805480610af957610af9613469565b80610c0b8161347f565b915050610b3a565b50600092915050565b6001600160a01b0382166000908152600a602052604081205460ff16610c6e5760405162461bcd60e51b8152602060048201526007602482015266085b585c9ad95d60ca1b60448201526064016109e4565b6015546001600160a01b0316331480610c8a5750610c8a612d7e565b610ca65760405162461bcd60e51b81526004016109e49061349a565b610cae612d7e565b80610cbb57506001821515145b610cd75760405162461bcd60e51b81526004016109e490613406565b6001600160a01b038316600081815260176020908152604091829020805460ff19168615159081179091558251938452606091840182905260069184019190915265426f72726f7760d01b6080840152908201527f4ab2c577b7459254dd330a38beef1d66ae70ba1ab28db7147d52d3a752a03cdc9060a0015b60405180910390a150805b92915050565b6001600160a01b0382166000908152602260205260408120610d849083612d5c565b9392505050565b6015546000906001600160a01b0316331480610daa5750610daa612d7e565b610dc65760405162461bcd60e51b81526004016109e49061349a565b610dce612d7e565b80610ddb57506001821515145b610df75760405162461bcd60e51b81526004016109e490613406565b60158054831515600160b81b0260ff60b81b199091161790556040517fef159d9a32b2472e32b098f954f3ce62d232939f1c207070b584df1814de2de090610e629084906040808252600590820152645365697a6560d81b6060820152901515602082015260800190565b60405180910390a15090565b6060600d805480602002602001604051908101604052809291908181526020018280548015610ec657602002820191906000526020600020905b81546001600160a01b03168152600190910190602001808311610ea8575b5050505050905090565b601d54601b54606091600091610ee691906134bd565b67ffffffffffffffff811115610efe57610efe6134d5565b604051908082528060200260200182016040528015610f27578160200160208202803683370190505b50905060005b601b5460ff82161015610fad57601b8160ff1681548110610f5057610f50613426565b9060005260206000200160009054906101000a90046001600160a01b0316828260ff1681518110610f8357610f83613426565b6001600160a01b039092166020928302919091019091015280610fa5816134eb565b915050610f2d565b60005b601d5460ff8216101561103057601d8160ff1681548110610fd357610fd3613426565b6000918252602090912001546001600160a01b031683610ff3838561350b565b60ff168151811061100657611006613426565b6001600160a01b039092166020928302919091019091015280611028816134eb565b915050610fb0565b509092915050565b6001546001600160a01b031633146110625760405162461bcd60e51b81526004016109e490613406565b601880546001600160a01b03838116610100818102610100600160a81b031985161790945560408051949093049091168084526020840191909152917feda98690e518e9a05f8ec6837663e188211b2da8f4906648b323f2c1d4434e29910160405180910390a15050565b6001600160a01b038116600090815260236020526040812081906110f090612dd2565b905060005b81518110156111b157836001600160a01b03166317bfdfbc83838151811061111f5761111f613426565b60200260200101516040518263ffffffff1660e01b815260040161115291906001600160a01b0391909116815260200190565b602060405180830381865afa15801561116f573d6000803e3d6000fd5b505050506040513d601f19601f820116820180604052508101906111939190613530565b61119d90846134bd565b9250806111a98161347f565b9150506110f5565b5050919050565b6001600160a01b0382166000908152600a602052604081205460ff1661120a5760405162461bcd60e51b8152602060048201526007602482015266085b585c9ad95d60ca1b60448201526064016109e4565b6015546001600160a01b03163314806112265750611226612d7e565b6112425760405162461bcd60e51b81526004016109e49061349a565b61124a612d7e565b8061125757506001821515145b6112735760405162461bcd60e51b81526004016109e490613406565b6001600160a01b038316600081815260166020908152604091829020805460ff19168615159081179091558251938452606091840182905260049184019190915263135a5b9d60e21b6080840152908201527f4ab2c577b7459254dd330a38beef1d66ae70ba1ab28db7147d52d3a752a03cdc9060a001610d51565b6060601b805480602002602001604051908101604052809291908181526020018280548015610ec6576020028201919060005260206000209081546001600160a01b03168152600190910190602001808311610ea8575050505050905090565b6001546001600160a01b0316331480611377575060185461010090046001600160a01b031633145b6113935760405162461bcd60e51b81526004016109e490613406565b828181158015906113a357508082145b6113d85760405162461bcd60e51b8152602060048201526006602482015265085a5b9c1d5d60d21b60448201526064016109e4565b60005b828110156114d4578484828181106113f5576113f5613426565b90506020020135601a600089898581811061141257611412613426565b90506020020160208101906114279190613038565b6001600160a01b0316815260208101919091526040016000205586868281811061145357611453613426565b90506020020160208101906114689190613038565b6001600160a01b03167f9e0ad9cee10bdf36b7fbd38910c0bdff0f275ace679b45b922381c2723d676f88686848181106114a4576114a4613426565b905060200201356040516114ba91815260200190565b60405180910390a2806114cc8161347f565b9150506113db565b50505050505050565b6114e5612d7e565b6115015760405162461bcd60e51b81526004016109e490613406565b801561152f576001600160a01b03831660009081526022602052604090206115299083612ddf565b50505050565b6001600160a01b03831660009081526022602052604090206115299083612df4565b600b818154811061156157600080fd5b6000918252602090912001546001600160a01b0316905081565b6000611585612d7e565b61159557610d5c60016017612e09565b601580546001600160a01b038481166001600160a01b031983168117909355604080519190921680825260208201939093527f0613b6ee6a04f0d09f390e4d9318894b9f6ac7fd83897cd8d18896ba579c401e910160405180910390a160009392505050565b6001546001600160a01b0316331480611623575060185461010090046001600160a01b031633145b61163f5760405162461bcd60e51b81526004016109e490613406565b8281811580159061164f57508082145b6116845760405162461bcd60e51b8152602060048201526006602482015265085a5b9c1d5d60d21b60448201526064016109e4565b60005b828110156114d4578484828181106116a1576116a1613426565b90506020020135601960008989858181106116be576116be613426565b90506020020160208101906116d39190613038565b6001600160a01b031681526020810191909152604001600020558686828181106116ff576116ff613426565b90506020020160208101906117149190613038565b6001600160a01b03167f6f1951b2aad10f3fc81b86d91105b413a5b3f847a34bbc5ce1904201b14438f686868481811061175057611750613426565b9050602002013560405161176691815260200190565b60405180910390a2806117788161347f565b915050611687565b600061178a612d7e565b6117a65760405162461bcd60e51b81526004016109e490613406565b6001600160a01b0382166117e85760405162461bcd60e51b815260206004820152600960248201526808599b1e5dda19595b60ba1b60448201526064016109e4565b60005b601d5481101561187157601d818154811061180857611808613426565b6000918252602090912001546001600160a01b038481169116141561185f5760405162461bcd60e51b815260206004820152600d60248201526c08585b1c9958591e5859191959609a1b60448201526064016109e4565b806118698161347f565b9150506117eb565b50601d805460018101825560009182527f6d4407e7be21f808e6509aa9fa9143369579dd7d760fe20a2c09680fc146134f0180546001600160a01b0319166001600160a01b0385161790555b601b54811015610c1357601b81815481106118da576118da613426565b6000918252602090912001546001600160a01b038481169116141561190957601b8054610a7e90600190613452565b806119138161347f565b9150506118bd565b601d818154811061156157600080fd5b600d818154811061156157600080fd5b6000836001600160a01b0316856001600160a01b031614801561195c575082155b15611969575060006109b6565b6000196001600160a01b03851615611ae1576001600160a01b038086166000908152601f60209081526040808320938a168352929052205460ff1680156119dc57506001600160a01b038086166000908152602160209081526040808320938a168352929052206119da9084612d5c565b155b156119e957506000611ae1565b6001600160a01b038086166000908152601e60209081526040808320938a16835292905220548015801590611a4857506001600160a01b03808716600090815260208080526040808320938b16835292905220611a469085612d5c565b155b15611adf5760055460405163fc57d4df60e01b81526001600160a01b038881166004830152600092169063fc57d4df90602401602060405180830381865afa158015611a98573d6000803e3d6000fd5b505050506040513d601f19601f82011682018060405250810190611abc9190613530565b9050670de0b6b3a7640000611ad1828461355f565b611adb919061357e565b9250505b505b6001600160a01b0386166000908152601a602052604090205415801590611b2757506001600160a01b0386166000908152602260205260409020611b259084612d5c565b155b15611c255760055460405163fc57d4df60e01b81526001600160a01b038881166004830152600092169063fc57d4df90602401602060405180830381865afa158015611b77573d6000803e3d6000fd5b505050506040513d601f19601f82011682018060405250810190611b9b9190613530565b6001600160a01b0388166000908152601a602052604081205491925090670de0b6b3a764000090611bcd90849061355f565b611bd7919061357e565b6001600160a01b0389166000908152600a6020526040902060010154909150670de0b6b3a764000090611c0a908361355f565b611c14919061357e565b905082811015611c22578092505b50505b95945050505050565b6000611c38612d7e565b611c4857610d5c60016018612e09565b6001600160a01b0382166000908152600a602052604090205460ff16611c7457610d5c60086019612e09565b6000826001600160a01b03166318160ddd6040518163ffffffff1660e01b8152600401602060405180830381865afa158015611cb4573d6000803e3d6000fd5b505050506040513d601f19601f82011682018060405250810190611cd89190613530565b1115611cea57610d5c6014601a612e09565b6001600160a01b0382166000908152600a60209081526040808320805460ff19168155600101839055600b80548251818502810185019093528083529192909190830182828015611d6457602002820191906000526020600020905b81546001600160a01b03168152600190910190602001808311611d46575b5050835193945083925060009150505b82811015611dc957856001600160a01b0316848281518110611d9857611d98613426565b60200260200101516001600160a01b03161415611db757809150611dc9565b80611dc18161347f565b915050611d74565b50818110611dd957611dd96135a0565b600b8054611de990600190613452565b81548110611df957611df9613426565b600091825260209091200154600b80546001600160a01b039092169183908110611e2557611e25613426565b9060005260206000200160006101000a8154816001600160a01b0302191690836001600160a01b03160217905550600b805480611e6457611e64613469565b6001900381819060005260206000200160006101000a8154906001600160a01b0302191690559055600060106000876001600160a01b0316636f307dc36040518163ffffffff1660e01b8152600401602060405180830381865afa158015611ed0573d6000803e3d6000fd5b505050506040513d601f19601f82011682018060405250810190611ef491906135b6565b6001600160a01b039081168252602080830193909352604091820160002080546001600160a01b031916948216949094179093555191871682527f302feb03efd5741df80efe7f97f5d93d74d46a542a3d312d0faae64fa1f3e0e9910160405180910390a1600095945050505050565b60408051601e8082526103e082019092526060919060009082602082016103c08036833701905050905063692fd2a960e01b81611fa0846135d3565b93508360ff1681518110611fb657611fb6613426565b6001600160e01b031990921660209283029190910190910152631469217960e21b81611fe1846135d3565b93508360ff1681518110611ff757611ff7613426565b6001600160e01b03199092166020928302919091019091015263607ef6c160e01b81612022846135d3565b93508360ff168151811061203857612038613426565b6001600160e01b03199092166020928302919091019091015263d219fca760e01b81612063846135d3565b93508360ff168151811061207957612079613426565b6001600160e01b03199092166020928302919091019091015263063b571360e51b816120a4846135d3565b93508360ff16815181106120ba576120ba613426565b6001600160e01b0319909216602092830291909101909101526351c8491d60e01b816120e5846135d3565b93508360ff16815181106120fb576120fb613426565b6001600160e01b031990921660209283029190910190910152632fa5169960e21b81612126846135d3565b93508360ff168151811061213c5761213c613426565b6001600160e01b03199092166020928302919091019091015263391957d760e01b81612167846135d3565b93508360ff168151811061217d5761217d613426565b6001600160e01b031990921660209283029190910190910152632fad78d560e11b816121a8846135d3565b93508360ff16815181106121be576121be613426565b6001600160e01b031990921660209283029190910190910152633bcf7ec160e01b816121e9846135d3565b93508360ff16815181106121ff576121ff613426565b6001600160e01b0319909216602092830291909101909101526318c882a560e01b8161222a846135d3565b93508360ff168151811061224057612240613426565b6001600160e01b0319909216602092830291909101909101526323afd8d960e21b8161226b846135d3565b93508360ff168151811061228157612281613426565b6001600160e01b0319909216602092830291909101909101526305ae1b6f60e31b816122ac846135d3565b93508360ff16815181106122c2576122c2613426565b6001600160e01b031990921660209283029190910190910152631032c0b560e31b816122ed846135d3565b93508360ff168151811061230357612303613426565b6001600160e01b03199092166020928302919091019091015263b0772d0b60e01b8161232e846135d3565b93508360ff168151811061234457612344613426565b6001600160e01b031990921660209283029190910190910152631955e6df60e11b8161236f846135d3565b93508360ff168151811061238557612385613426565b6001600160e01b03199092166020928302919091019091015263d01f63f560e01b816123b0846135d3565b93508360ff16815181106123c6576123c6613426565b6001600160e01b031990921660209283029190910190910152633605b51b60e01b816123f1846135d3565b93508360ff168151811061240757612407613426565b6001600160e01b03199092166020928302919091019091015263d9e0ea6b60e01b81612432846135d3565b93508360ff168151811061244857612448613426565b6001600160e01b031990921660209283029190910190910152634a76e72760e01b81612473846135d3565b93508360ff168151811061248957612489613426565b6001600160e01b03199092166020928302919091019091015263084c846760e11b816124b4846135d3565b93508360ff16815181106124ca576124ca613426565b6001600160e01b03199092166020928302919091019091015263a5fb485760e01b816124f5846135d3565b93508360ff168151811061250b5761250b613426565b6001600160e01b03199092166020928302919091019091015263ee5b9a2f60e01b81612536846135d3565b93508360ff168151811061254c5761254c613426565b6001600160e01b03199092166020928302919091019091015263044707e760e11b81612577846135d3565b93508360ff168151811061258d5761258d613426565b6001600160e01b031990921660209283029190910190910152633e1d3ac360e21b816125b8846135d3565b93508360ff16815181106125ce576125ce613426565b6001600160e01b031990921660209283029190910190910152631139fa0760e11b816125f9846135d3565b93508360ff168151811061260f5761260f613426565b6001600160e01b03199092166020928302919091019091015263b325380160e01b8161263a846135d3565b93508360ff168151811061265057612650613426565b6001600160e01b031990921660209283029190910190910152637db121fd60e11b8161267b846135d3565b93508360ff168151811061269157612691613426565b6001600160e01b031990921660209283029190910190910152631d3965af60e11b816126bc846135d3565b93508360ff16815181106126d2576126d2613426565b6001600160e01b031990921660209283029190910190910152633c1f884b60e11b816126fd846135d3565b93508360ff168151811061271357612713613426565b6001600160e01b03199092166020928302919091019091015260ff821615610d5c5760405162461bcd60e51b815260206004820152601c60248201527f7573652074686520636f7272656374206172726179206c656e6774680000000060448201526064016109e4565b6015546000906001600160a01b031633148061279c575061279c612d7e565b6127b85760405162461bcd60e51b81526004016109e49061349a565b6127c0612d7e565b806127cd57506001821515145b6127e95760405162461bcd60e51b81526004016109e490613406565b60158054831515600160b01b0260ff60b01b199091161790556040517fef159d9a32b2472e32b098f954f3ce62d232939f1c207070b584df1814de2de090610e629084906040808252600890820152672a3930b739b332b960c11b6060820152901515602082015260800190565b61285f612d7e565b61287b5760405162461bcd60e51b81526004016109e490613406565b6001600160a01b039283166000908152601e602090815260408083209490951682529290925291902055565b6060600b805480602002602001604051908101604052809291908181526020018280548015610ec6576020028201919060005260206000209081546001600160a01b03168152600190910190602001808311610ea8575050505050905090565b6001600160a01b0382166000908152602360205260408120610d849083612d5c565b612931612d7e565b61294d5760405162461bcd60e51b81526004016109e490613406565b8015612975576001600160a01b03831660009081526023602052604090206115299083612ddf565b6001600160a01b03831660009081526023602052604090206115299083612df4565b601b818154811061156157600080fd5b6129af612d7e565b6129cb5760405162461bcd60e51b81526004016109e490613406565b8015612a06576001600160a01b038085166000908152602160209081526040808320938716835292905220612a009083612ddf565b50611529565b6001600160a01b038085166000908152602160209081526040808320938716835292905220612a359083612df4565b5050505050565b60606013805480602002602001604051908101604052809291908181526020018280548015610ec6576020028201919060005260206000209081546001600160a01b03168152600190910190602001808311610ea8575050505050905090565b612aa4612d7e565b612ac05760405162461bcd60e51b81526004016109e490613406565b8015612af3576001600160a01b03808516600090815260208080526040808320938716835292905220612a009083612ddf565b6001600160a01b03808516600090815260208080526040808320938716835292905220612a359083612df4565b6013818154811061156157600080fd5b6000805b600b54811015610c13576000600b8281548110612b5357612b53613426565b60009182526020808320909101546001600160a01b03908116808452600a83526040808520928916855260029092019092529091205490915060ff1615612b9e575060019392505050565b5080612ba98161347f565b915050612b34565b60096020528160005260406000208181548110612bcd57600080fd5b6000918252602090912001546001600160a01b03169150829050565b612bf1612d7e565b612c0d5760405162461bcd60e51b81526004016109e490613406565b6001600160a01b039283166000908152601f6020908152604080832094909516825292909252919020805460ff1916911515919091179055565b6001600160a01b03808416600090815260216020908152604080832093861683529290529081206109b69083612d5c565b6001600160a01b03811660009081526022602052604081208190612c9b90612dd2565b905060005b81518110156111b157836001600160a01b0316633af9e669838381518110612cca57612cca613426565b60200260200101516040518263ffffffff1660e01b8152600401612cfd91906001600160a01b0391909116815260200190565b602060405180830381865afa158015612d1a573d6000803e3d6000fd5b505050506040513d601f19601f82011682018060405250810190612d3e9190613530565b612d4890846134bd565b925080612d548161347f565b915050612ca0565b6001600160a01b03811660009081526001830160205260408120541515610d84565b6001546000906001600160a01b031633148015612da45750600254600160a81b900460ff165b80612dcd57506000546001600160a01b031633148015612dcd5750600254600160a01b900460ff165b905090565b60606000610d8483612e82565b6000610d84836001600160a01b038416612ede565b6000610d84836001600160a01b038416612f2d565b60007f45b96fe442630264581b197e84bbada861235052c5a1aadfff9ea4e40a969aa0836014811115612e3e57612e3e613549565b83601a811115612e5057612e50613549565b60408051928352602083019190915260009082015260600160405180910390a1826014811115610d8457610d84613549565b606081600001805480602002602001604051908101604052809291908181526020018280548015612ed257602002820191906000526020600020905b815481526020019060010190808311612ebe575b50505050509050919050565b6000818152600183016020526040812054612f2557508154600181810184556000848152602080822090930184905584548482528286019093526040902091909155610d5c565b506000610d5c565b60008181526001830160205260408120548015613016576000612f51600183613452565b8554909150600090612f6590600190613452565b9050818114612fca576000866000018281548110612f8557612f85613426565b9060005260206000200154905080876000018481548110612fa857612fa8613426565b6000918252602080832090910192909255918252600188019052604090208390555b8554869080612fdb57612fdb613469565b600190038181906000526020600020016000905590558560010160008681526020019081526020016000206000905560019350505050610d5c565b6000915050610d5c565b6001600160a01b038116811461303557600080fd5b50565b60006020828403121561304a57600080fd5b8135610d8481613020565b60008060006060848603121561306a57600080fd5b833561307581613020565b9250602084013561308581613020565b9150604084013561309581613020565b809150509250925092565b803580151581146130b057600080fd5b919050565b600080604083850312156130c857600080fd5b82356130d381613020565b91506130e1602084016130a0565b90509250929050565b600080604083850312156130fd57600080fd5b823561310881613020565b9150602083013561311881613020565b809150509250929050565b60006020828403121561313557600080fd5b610d84826130a0565b6020808252825182820181905260009190848201906040850190845b8181101561317f5783516001600160a01b03168352928401929184019160010161315a565b50909695505050505050565b60008083601f84011261319d57600080fd5b50813567ffffffffffffffff8111156131b557600080fd5b6020830191508360208260051b85010111156131d057600080fd5b9250929050565b600080600080604085870312156131ed57600080fd5b843567ffffffffffffffff8082111561320557600080fd5b6132118883890161318b565b9096509450602087013591508082111561322a57600080fd5b506132378782880161318b565b95989497509550505050565b60008060006060848603121561325857600080fd5b833561326381613020565b9250602084013561327381613020565b9150613281604085016130a0565b90509250925092565b60006020828403121561329c57600080fd5b5035919050565b600080600080608085870312156132b957600080fd5b84356132c481613020565b935060208501356132d481613020565b92506132e2604086016130a0565b915060608501356132f281613020565b939692955090935050565b6020808252825182820181905260009190848201906040850190845b8181101561317f5783516001600160e01b03191683529284019291840191600101613319565b60008060006060848603121561335457600080fd5b833561335f81613020565b9250602084013561336f81613020565b929592945050506040919091013590565b6000806000806080858703121561339657600080fd5b84356133a181613020565b935060208501356133b181613020565b925060408501356133c181613020565b91506133cf606086016130a0565b905092959194509250565b600080604083850312156133ed57600080fd5b82356133f881613020565b946020939093013593505050565b60208082526006908201526510b0b236b4b760d11b604082015260600190565b634e487b7160e01b600052603260045260246000fd5b634e487b7160e01b600052601160045260246000fd5b6000828210156134645761346461343c565b500390565b634e487b7160e01b600052603160045260246000fd5b60006000198214156134935761349361343c565b5060010190565b60208082526009908201526810b3bab0b93234b0b760b91b604082015260600190565b600082198211156134d0576134d061343c565b500190565b634e487b7160e01b600052604160045260246000fd5b600060ff821660ff8114156135025761350261343c565b60010192915050565b600060ff821660ff84168060ff038211156135285761352861343c565b019392505050565b60006020828403121561354257600080fd5b5051919050565b634e487b7160e01b600052602160045260246000fd5b60008160001904831182151516156135795761357961343c565b500290565b60008261359b57634e487b7160e01b600052601260045260246000fd5b500490565b634e487b7160e01b600052600160045260246000fd5b6000602082840312156135c857600080fd5b8151610d8481613020565b600060ff8216806135e6576135e661343c565b600019019291505056fea164736f6c634300080a000a",
    "linkReferences": {}
  },
  "methodIdentifiers": {
    "_blacklistBorrowingAgainstCollateral(address,address,bool)": "ee5b9a2f",
    "_blacklistBorrowingAgainstCollateralWhitelist(address,address,address,bool)": "c76ae260",
    "_borrowCapWhitelist(address,address,bool)": "be945a64",
    "_borrowGuardianPaused()": "e6653f3d",
    "_getExtensionFunctions()": "89f8132e",
    "_mintGuardianPaused()": "3c94786f",
    "_removeFlywheel(address)": "109908ce",
    "_setBorrowCapForCollateral(address,address,uint256)": "a5fb4857",
    "_setBorrowCapForCollateralWhitelist(address,address,address,bool)": "d219fca7",
    "_setBorrowCapGuardian(address)": "391957d7",
    "_setBorrowPaused(address,bool)": "18c882a5",
    "_setMarketBorrowCaps(address[],uint256[])": "607ef6c1",
    "_setMarketSupplyCaps(address[],uint256[])": "51a485e4",
    "_setMintPaused(address,bool)": "3bcf7ec1",
    "_setPauseGuardian(address)": "5f5af1aa",
    "_setSeizePaused(bool)": "2d70db78",
    "_setTransferPaused(bool)": "8ebf6364",
    "_supplyCapWhitelist(address,address,bool)": "51c8491d",
    "_unsupportMarket(address)": "819605a8",
    "accountAssets(address,uint256)": "dce15449",
    "addNonAccruingFlywheel(address)": "692fd2a9",
    "admin()": "f851a440",
    "adminHasRights()": "0a755ec2",
    "allBorrowers(uint256)": "7515bafa",
    "allMarkets(uint256)": "52d84d1e",
    "autoImplementation()": "dd5cd22c",
    "borrowCapForCollateral(address,address)": "940cd6f1",
    "borrowCapGuardian()": "21af4569",
    "borrowCaps(address)": "4a584432",
    "borrowGuardianPaused(address)": "6d154ea5",
    "borrowingAgainstCollateralBlacklist(address,address)": "1c819e43",
    "cTokensByUnderlying(address)": "31ff47fa",
    "closeFactorMantissa()": "e8755446",
    "comptrollerImplementation()": "bb82aa5e",
    "enforceWhitelist()": "b0957210",
    "getAccruingFlywheels()": "4a76e727",
    "getAllBorrowers()": "32abcdbe",
    "getAllMarkets()": "b0772d0b",
    "getAssetAsCollateralValueCap(address,address,bool,address)": "783f1096",
    "getRewardsDistributors()": "3605b51b",
    "getWhitelist()": "d01f63f5",
    "getWhitelistedBorrowersBorrows(address)": "3a72cb5e",
    "getWhitelistedSuppliersSupply(address)": "fb6243fa",
    "ionicAdmin()": "c91a424f",
    "ionicAdminHasRights()": "cf6bfd2d",
    "isBlacklistBorrowingAgainstCollateralWhitelisted(address,address,address)": "f874eb0c",
    "isBorrowCapForCollateralWhitelisted(address,address,address)": "088e0fce",
    "isBorrowCapWhitelisted(address,address)": "b3253801",
    "isSupplyCapWhitelisted(address,address)": "2273f40e",
    "isUserOfPool(address)": "d9e0ea6b",
    "liquidationIncentiveMantissa()": "4ada90af",
    "markets(address)": "8e8f294b",
    "mintGuardianPaused(address)": "731f0c2b",
    "nonAccruingRewardsDistributors(uint256)": "6bd02b8a",
    "oracle()": "7dc0d1d0",
    "pauseGuardian()": "24a3d622",
    "pendingAdmin()": "26782247",
    "pendingComptrollerImplementation()": "dcfbc0c7",
    "rewardsDistributors(uint256)": "c6c5b0dd",
    "seizeGuardianPaused()": "ac0b0bb7",
    "suppliers(address)": "16dc15fe",
    "supplyCaps(address)": "02c3bcbb",
    "transferGuardianPaused()": "87f76303",
    "whitelist(address)": "9b19251a",
    "whitelistArray(uint256)": "d251fefc"
  }
}