{
  "address": "0x4b4FED36346D9a7F25C4ECCCC65D10f1ed814D00",
  "abi": [
    {
      "inputs": [],
      "stateMutability": "nonpayable",
      "type": "constructor"
    },
    {
      "anonymous": false,
      "inputs": [
        {
          "indexed": true,
          "internalType": "address",
          "name": "owner",
          "type": "address"
        },
        {
          "indexed": true,
          "internalType": "address",
          "name": "spender",
          "type": "address"
        },
        {
          "indexed": false,
          "internalType": "uint256",
          "name": "value",
          "type": "uint256"
        }
      ],
      "name": "Approval",
      "type": "event"
    },
    {
      "anonymous": false,
      "inputs": [
        {
          "indexed": true,
          "internalType": "address",
          "name": "sender",
          "type": "address"
        },
        {
          "indexed": true,
          "internalType": "address",
          "name": "owner",
          "type": "address"
        },
        {
          "indexed": false,
          "internalType": "uint256",
          "name": "assets",
          "type": "uint256"
        },
        {
          "indexed": false,
          "internalType": "uint256",
          "name": "shares",
          "type": "uint256"
        }
      ],
      "name": "Deposit",
      "type": "event"
    },
    {
      "anonymous": false,
      "inputs": [
        {
          "indexed": false,
          "internalType": "uint8",
          "name": "version",
          "type": "uint8"
        }
      ],
      "name": "Initialized",
      "type": "event"
    },
    {
      "anonymous": false,
      "inputs": [
        {
          "indexed": false,
          "internalType": "address",
          "name": "oldOwner",
          "type": "address"
        },
        {
          "indexed": false,
          "internalType": "address",
          "name": "newOwner",
          "type": "address"
        }
      ],
      "name": "NewOwner",
      "type": "event"
    },
    {
      "anonymous": false,
      "inputs": [
        {
          "indexed": false,
          "internalType": "address",
          "name": "oldPendingOwner",
          "type": "address"
        },
        {
          "indexed": false,
          "internalType": "address",
          "name": "newPendingOwner",
          "type": "address"
        }
      ],
      "name": "NewPendingOwner",
      "type": "event"
    },
    {
      "anonymous": false,
      "inputs": [
        {
          "indexed": true,
          "internalType": "address",
          "name": "previousOwner",
          "type": "address"
        },
        {
          "indexed": true,
          "internalType": "address",
          "name": "newOwner",
          "type": "address"
        }
      ],
      "name": "OwnershipTransferred",
      "type": "event"
    },
    {
      "anonymous": false,
      "inputs": [
        {
          "indexed": false,
          "internalType": "address",
          "name": "account",
          "type": "address"
        }
      ],
      "name": "Paused",
      "type": "event"
    },
    {
      "anonymous": false,
      "inputs": [
        {
          "indexed": true,
          "internalType": "address",
          "name": "from",
          "type": "address"
        },
        {
          "indexed": true,
          "internalType": "address",
          "name": "to",
          "type": "address"
        },
        {
          "indexed": false,
          "internalType": "uint256",
          "name": "value",
          "type": "uint256"
        }
      ],
      "name": "Transfer",
      "type": "event"
    },
    {
      "anonymous": false,
      "inputs": [
        {
          "indexed": false,
          "internalType": "address",
          "name": "account",
          "type": "address"
        }
      ],
      "name": "Unpaused",
      "type": "event"
    },
    {
      "anonymous": false,
      "inputs": [
        {
          "indexed": false,
          "internalType": "uint256",
          "name": "oldPerformanceFee",
          "type": "uint256"
        },
        {
          "indexed": false,
          "internalType": "uint256",
          "name": "newPerformanceFee",
          "type": "uint256"
        },
        {
          "indexed": false,
          "internalType": "address",
          "name": "oldFeeRecipient",
          "type": "address"
        },
        {
          "indexed": false,
          "internalType": "address",
          "name": "newFeeRecipient",
          "type": "address"
        }
      ],
      "name": "UpdatedFeeSettings",
      "type": "event"
    },
    {
      "anonymous": false,
      "inputs": [
        {
          "indexed": true,
          "internalType": "address",
          "name": "sender",
          "type": "address"
        },
        {
          "indexed": true,
          "internalType": "address",
          "name": "receiver",
          "type": "address"
        },
        {
          "indexed": true,
          "internalType": "address",
          "name": "owner",
          "type": "address"
        },
        {
          "indexed": false,
          "internalType": "uint256",
          "name": "assets",
          "type": "uint256"
        },
        {
          "indexed": false,
          "internalType": "uint256",
          "name": "shares",
          "type": "uint256"
        }
      ],
      "name": "Withdraw",
      "type": "event"
    },
    {
      "inputs": [],
      "name": "_acceptOwner",
      "outputs": [],
      "stateMutability": "nonpayable",
      "type": "function"
    },
    {
      "inputs": [
        {
          "internalType": "address",
          "name": "newPendingOwner",
          "type": "address"
        }
      ],
      "name": "_setPendingOwner",
      "outputs": [],
      "stateMutability": "nonpayable",
      "type": "function"
    },
    {
      "inputs": [
        {
          "internalType": "address",
          "name": "owner",
          "type": "address"
        },
        {
          "internalType": "address",
          "name": "spender",
          "type": "address"
        }
      ],
      "name": "allowance",
      "outputs": [
        {
          "internalType": "uint256",
          "name": "",
          "type": "uint256"
        }
      ],
      "stateMutability": "view",
      "type": "function"
    },
    {
      "inputs": [
        {
          "internalType": "address",
          "name": "spender",
          "type": "address"
        },
        {
          "internalType": "uint256",
          "name": "amount",
          "type": "uint256"
        }
      ],
      "name": "approve",
      "outputs": [
        {
          "internalType": "bool",
          "name": "",
          "type": "bool"
        }
      ],
      "stateMutability": "nonpayable",
      "type": "function"
    },
    {
      "inputs": [],
      "name": "apr",
      "outputs": [
        {
          "internalType": "uint256",
          "name": "",
          "type": "uint256"
        }
      ],
      "stateMutability": "view",
      "type": "function"
    },
    {
      "inputs": [
        {
          "internalType": "uint256",
          "name": "amount",
          "type": "uint256"
        }
      ],
      "name": "aprAfterDeposit",
      "outputs": [
        {
          "internalType": "uint256",
          "name": "",
          "type": "uint256"
        }
      ],
      "stateMutability": "view",
      "type": "function"
    },
    {
      "inputs": [
        {
          "internalType": "uint256",
          "name": "amount",
          "type": "uint256"
        }
      ],
      "name": "aprAfterWithdraw",
      "outputs": [
        {
          "internalType": "uint256",
          "name": "",
          "type": "uint256"
        }
      ],
      "stateMutability": "view",
      "type": "function"
    },
    {
      "inputs": [],
      "name": "asset",
      "outputs": [
        {
          "internalType": "address",
          "name": "",
          "type": "address"
        }
      ],
      "stateMutability": "view",
      "type": "function"
    },
    {
      "inputs": [
        {
          "internalType": "address",
          "name": "account",
          "type": "address"
        }
      ],
      "name": "balanceOf",
      "outputs": [
        {
          "internalType": "uint256",
          "name": "",
          "type": "uint256"
        }
      ],
      "stateMutability": "view",
      "type": "function"
    },
    {
      "inputs": [
        {
          "internalType": "address",
          "name": "account",
          "type": "address"
        }
      ],
      "name": "balanceOfUnderlying",
      "outputs": [
        {
          "internalType": "uint256",
          "name": "",
          "type": "uint256"
        }
      ],
      "stateMutability": "view",
      "type": "function"
    },
    {
      "inputs": [],
      "name": "blocksPerYear",
      "outputs": [
        {
          "internalType": "uint256",
          "name": "",
          "type": "uint256"
        }
      ],
      "stateMutability": "view",
      "type": "function"
    },
    {
      "inputs": [
        {
          "internalType": "uint256",
          "name": "shares",
          "type": "uint256"
        }
      ],
      "name": "convertToAssets",
      "outputs": [
        {
          "internalType": "uint256",
          "name": "assets",
          "type": "uint256"
        }
      ],
      "stateMutability": "view",
      "type": "function"
    },
    {
      "inputs": [
        {
          "internalType": "uint256",
          "name": "assets",
          "type": "uint256"
        }
      ],
      "name": "convertToShares",
      "outputs": [
        {
          "internalType": "uint256",
          "name": "shares",
          "type": "uint256"
        }
      ],
      "stateMutability": "view",
      "type": "function"
    },
    {
      "inputs": [],
      "name": "decimals",
      "outputs": [
        {
          "internalType": "uint8",
          "name": "",
          "type": "uint8"
        }
      ],
      "stateMutability": "view",
      "type": "function"
    },
    {
      "inputs": [
        {
          "internalType": "address",
          "name": "spender",
          "type": "address"
        },
        {
          "internalType": "uint256",
          "name": "subtractedValue",
          "type": "uint256"
        }
      ],
      "name": "decreaseAllowance",
      "outputs": [
        {
          "internalType": "bool",
          "name": "",
          "type": "bool"
        }
      ],
      "stateMutability": "nonpayable",
      "type": "function"
    },
    {
      "inputs": [
        {
          "internalType": "uint256",
          "name": "assets",
          "type": "uint256"
        },
        {
          "internalType": "address",
          "name": "receiver",
          "type": "address"
        }
      ],
      "name": "deposit",
      "outputs": [
        {
          "internalType": "uint256",
          "name": "shares",
          "type": "uint256"
        }
      ],
      "stateMutability": "nonpayable",
      "type": "function"
    },
    {
      "inputs": [
        {
          "internalType": "uint256",
          "name": "amount",
          "type": "uint256"
        }
      ],
      "name": "deposit",
      "outputs": [],
      "stateMutability": "nonpayable",
      "type": "function"
    },
    {
      "inputs": [],
      "name": "deposit",
      "outputs": [],
      "stateMutability": "nonpayable",
      "type": "function"
    },
    {
      "inputs": [],
      "name": "emergencyWithdrawAndPause",
      "outputs": [],
      "stateMutability": "nonpayable",
      "type": "function"
    },
    {
      "inputs": [],
      "name": "feeRecipient",
      "outputs": [
        {
          "internalType": "address",
          "name": "",
          "type": "address"
        }
      ],
      "stateMutability": "view",
      "type": "function"
    },
    {
      "inputs": [],
      "name": "hasAssets",
      "outputs": [
        {
          "internalType": "bool",
          "name": "",
          "type": "bool"
        }
      ],
      "stateMutability": "view",
      "type": "function"
    },
    {
      "inputs": [
        {
          "internalType": "address",
          "name": "spender",
          "type": "address"
        },
        {
          "internalType": "uint256",
          "name": "addedValue",
          "type": "uint256"
        }
      ],
      "name": "increaseAllowance",
      "outputs": [
        {
          "internalType": "bool",
          "name": "",
          "type": "bool"
        }
      ],
      "stateMutability": "nonpayable",
      "type": "function"
    },
    {
      "inputs": [
        {
          "internalType": "contract ICErc20",
          "name": "market_",
          "type": "address"
        },
        {
          "internalType": "uint256",
          "name": "blocksPerYear_",
          "type": "uint256"
        }
      ],
      "name": "initialize",
      "outputs": [],
      "stateMutability": "nonpayable",
      "type": "function"
    },
    {
      "inputs": [],
      "name": "lenderName",
      "outputs": [
        {
          "internalType": "string",
          "name": "",
          "type": "string"
        }
      ],
      "stateMutability": "view",
      "type": "function"
    },
    {
      "inputs": [],
      "name": "market",
      "outputs": [
        {
          "internalType": "contract ICErc20",
          "name": "",
          "type": "address"
        }
      ],
      "stateMutability": "view",
      "type": "function"
    },
    {
      "inputs": [
        {
          "internalType": "address",
          "name": "",
          "type": "address"
        }
      ],
      "name": "maxDeposit",
      "outputs": [
        {
          "internalType": "uint256",
          "name": "",
          "type": "uint256"
        }
      ],
      "stateMutability": "view",
      "type": "function"
    },
    {
      "inputs": [
        {
          "internalType": "address",
          "name": "",
          "type": "address"
        }
      ],
      "name": "maxMint",
      "outputs": [
        {
          "internalType": "uint256",
          "name": "",
          "type": "uint256"
        }
      ],
      "stateMutability": "view",
      "type": "function"
    },
    {
      "inputs": [
        {
          "internalType": "address",
          "name": "owner",
          "type": "address"
        }
      ],
      "name": "maxRedeem",
      "outputs": [
        {
          "internalType": "uint256",
          "name": "",
          "type": "uint256"
        }
      ],
      "stateMutability": "view",
      "type": "function"
    },
    {
      "inputs": [
        {
          "internalType": "address",
          "name": "owner",
          "type": "address"
        }
      ],
      "name": "maxWithdraw",
      "outputs": [
        {
          "internalType": "uint256",
          "name": "",
          "type": "uint256"
        }
      ],
      "stateMutability": "view",
      "type": "function"
    },
    {
      "inputs": [
        {
          "internalType": "uint256",
          "name": "shares",
          "type": "uint256"
        },
        {
          "internalType": "address",
          "name": "receiver",
          "type": "address"
        }
      ],
      "name": "mint",
      "outputs": [
        {
          "internalType": "uint256",
          "name": "assets",
          "type": "uint256"
        }
      ],
      "stateMutability": "nonpayable",
      "type": "function"
    },
    {
      "inputs": [],
      "name": "name",
      "outputs": [
        {
          "internalType": "string",
          "name": "",
          "type": "string"
        }
      ],
      "stateMutability": "view",
      "type": "function"
    },
    {
      "inputs": [],
      "name": "nav",
      "outputs": [
        {
          "internalType": "uint256",
          "name": "",
          "type": "uint256"
        }
      ],
      "stateMutability": "view",
      "type": "function"
    },
    {
      "inputs": [],
      "name": "owner",
      "outputs": [
        {
          "internalType": "address",
          "name": "",
          "type": "address"
        }
      ],
      "stateMutability": "view",
      "type": "function"
    },
    {
      "inputs": [],
      "name": "paused",
      "outputs": [
        {
          "internalType": "bool",
          "name": "",
          "type": "bool"
        }
      ],
      "stateMutability": "view",
      "type": "function"
    },
    {
      "inputs": [],
      "name": "pendingOwner",
      "outputs": [
        {
          "internalType": "address",
          "name": "",
          "type": "address"
        }
      ],
      "stateMutability": "view",
      "type": "function"
    },
    {
      "inputs": [],
      "name": "performanceFee",
      "outputs": [
        {
          "internalType": "uint256",
          "name": "",
          "type": "uint256"
        }
      ],
      "stateMutability": "view",
      "type": "function"
    },
    {
      "inputs": [
        {
          "internalType": "uint256",
          "name": "assets",
          "type": "uint256"
        }
      ],
      "name": "previewDeposit",
      "outputs": [
        {
          "internalType": "uint256",
          "name": "",
          "type": "uint256"
        }
      ],
      "stateMutability": "view",
      "type": "function"
    },
    {
      "inputs": [
        {
          "internalType": "uint256",
          "name": "shares",
          "type": "uint256"
        }
      ],
      "name": "previewMint",
      "outputs": [
        {
          "internalType": "uint256",
          "name": "",
          "type": "uint256"
        }
      ],
      "stateMutability": "view",
      "type": "function"
    },
    {
      "inputs": [
        {
          "internalType": "uint256",
          "name": "shares",
          "type": "uint256"
        }
      ],
      "name": "previewRedeem",
      "outputs": [
        {
          "internalType": "uint256",
          "name": "",
          "type": "uint256"
        }
      ],
      "stateMutability": "view",
      "type": "function"
    },
    {
      "inputs": [
        {
          "internalType": "uint256",
          "name": "assets",
          "type": "uint256"
        }
      ],
      "name": "previewWithdraw",
      "outputs": [
        {
          "internalType": "uint256",
          "name": "",
          "type": "uint256"
        }
      ],
      "stateMutability": "view",
      "type": "function"
    },
    {
      "inputs": [
        {
          "internalType": "uint256",
          "name": "shares",
          "type": "uint256"
        },
        {
          "internalType": "address",
          "name": "receiver",
          "type": "address"
        },
        {
          "internalType": "address",
          "name": "owner",
          "type": "address"
        }
      ],
      "name": "redeem",
      "outputs": [
        {
          "internalType": "uint256",
          "name": "assets",
          "type": "uint256"
        }
      ],
      "stateMutability": "nonpayable",
      "type": "function"
    },
    {
      "inputs": [],
      "name": "renounceOwnership",
      "outputs": [],
      "stateMutability": "nonpayable",
      "type": "function"
    },
    {
      "inputs": [
        {
          "internalType": "address",
          "name": "market",
          "type": "address"
        }
      ],
      "name": "shutdown",
      "outputs": [
        {
          "internalType": "uint256",
          "name": "",
          "type": "uint256"
        }
      ],
      "stateMutability": "nonpayable",
      "type": "function"
    },
    {
      "inputs": [
        {
          "internalType": "address",
          "name": "_token",
          "type": "address"
        },
        {
          "internalType": "address",
          "name": "to",
          "type": "address"
        }
      ],
      "name": "sweep",
      "outputs": [],
      "stateMutability": "nonpayable",
      "type": "function"
    },
    {
      "inputs": [],
      "name": "symbol",
      "outputs": [
        {
          "internalType": "string",
          "name": "",
          "type": "string"
        }
      ],
      "stateMutability": "view",
      "type": "function"
    },
    {
      "inputs": [],
      "name": "takePerformanceFee",
      "outputs": [],
      "stateMutability": "nonpayable",
      "type": "function"
    },
    {
      "inputs": [],
      "name": "totalAssets",
      "outputs": [
        {
          "internalType": "uint256",
          "name": "",
          "type": "uint256"
        }
      ],
      "stateMutability": "view",
      "type": "function"
    },
    {
      "inputs": [],
      "name": "totalSupply",
      "outputs": [
        {
          "internalType": "uint256",
          "name": "",
          "type": "uint256"
        }
      ],
      "stateMutability": "view",
      "type": "function"
    },
    {
      "inputs": [
        {
          "internalType": "address",
          "name": "to",
          "type": "address"
        },
        {
          "internalType": "uint256",
          "name": "amount",
          "type": "uint256"
        }
      ],
      "name": "transfer",
      "outputs": [
        {
          "internalType": "bool",
          "name": "",
          "type": "bool"
        }
      ],
      "stateMutability": "nonpayable",
      "type": "function"
    },
    {
      "inputs": [
        {
          "internalType": "address",
          "name": "from",
          "type": "address"
        },
        {
          "internalType": "address",
          "name": "to",
          "type": "address"
        },
        {
          "internalType": "uint256",
          "name": "amount",
          "type": "uint256"
        }
      ],
      "name": "transferFrom",
      "outputs": [
        {
          "internalType": "bool",
          "name": "",
          "type": "bool"
        }
      ],
      "stateMutability": "nonpayable",
      "type": "function"
    },
    {
      "inputs": [
        {
          "internalType": "address",
          "name": "",
          "type": "address"
        }
      ],
      "name": "transferOwnership",
      "outputs": [],
      "stateMutability": "nonpayable",
      "type": "function"
    },
    {
      "inputs": [],
      "name": "underlyingBalanceStored",
      "outputs": [
        {
          "internalType": "uint256",
          "name": "",
          "type": "uint256"
        }
      ],
      "stateMutability": "view",
      "type": "function"
    },
    {
      "inputs": [],
      "name": "unpause",
      "outputs": [],
      "stateMutability": "nonpayable",
      "type": "function"
    },
    {
      "inputs": [
        {
          "internalType": "uint256",
          "name": "newPerformanceFee",
          "type": "uint256"
        },
        {
          "internalType": "address",
          "name": "newFeeRecipient",
          "type": "address"
        }
      ],
      "name": "updateFeeSettings",
      "outputs": [],
      "stateMutability": "nonpayable",
      "type": "function"
    },
    {
      "inputs": [],
      "name": "vaultShareHWM",
      "outputs": [
        {
          "internalType": "uint256",
          "name": "",
          "type": "uint256"
        }
      ],
      "stateMutability": "view",
      "type": "function"
    },
    {
      "inputs": [],
      "name": "weightedApr",
      "outputs": [
        {
          "internalType": "uint256",
          "name": "",
          "type": "uint256"
        }
      ],
      "stateMutability": "view",
      "type": "function"
    },
    {
      "inputs": [
        {
          "internalType": "uint256",
          "name": "amount",
          "type": "uint256"
        }
      ],
      "name": "withdraw",
      "outputs": [
        {
          "internalType": "uint256",
          "name": "",
          "type": "uint256"
        }
      ],
      "stateMutability": "nonpayable",
      "type": "function"
    },
    {
      "inputs": [
        {
          "internalType": "uint256",
          "name": "assets",
          "type": "uint256"
        },
        {
          "internalType": "address",
          "name": "receiver",
          "type": "address"
        },
        {
          "internalType": "address",
          "name": "owner",
          "type": "address"
        }
      ],
      "name": "withdraw",
      "outputs": [
        {
          "internalType": "uint256",
          "name": "shares",
          "type": "uint256"
        }
      ],
      "stateMutability": "nonpayable",
      "type": "function"
    },
    {
      "inputs": [],
      "name": "withdrawAccruedFees",
      "outputs": [],
      "stateMutability": "nonpayable",
      "type": "function"
    },
    {
      "inputs": [],
      "name": "withdrawAll",
      "outputs": [
        {
          "internalType": "bool",
          "name": "",
          "type": "bool"
        }
      ],
      "stateMutability": "nonpayable",
      "type": "function"
    }
  ],
  "transactionHash": "0x3e37b48ce4e00a38cff3f89f96276b04aa0e858827218b9da4104fcfeb6c72d9",
  "args": [],
  "numDeployments": 1,
  "bytecode": {
    "object": "0x60806040523480156200001157600080fd5b506200001c62000022565b620000e4565b600054610100900460ff16156200008f5760405162461bcd60e51b815260206004820152602760248201527f496e697469616c697a61626c653a20636f6e747261637420697320696e697469604482015266616c697a696e6760c81b606482015260840160405180910390fd5b60005460ff9081161015620000e2576000805460ff191660ff9081179091556040519081527f7f26b83ff96e1f2b6a682f133852f6798a09c465da95921460cefb38474024989060200160405180910390a15b565b61363e80620000f46000396000f3fe608060405234801561001057600080fd5b50600436106103a45760003560e01c806380f55605116101e9578063ba0876521161010f578063ce96cb77116100ad578063e30c39781161007c578063e30c397814610742578063ef8b30f7146106c8578063f2fde38b14610755578063fc4d33f91461076857600080fd5b8063ce96cb7714610701578063d0e30db014610714578063d905777e1461071c578063dd62ed3e1461072f57600080fd5b8063c6afba3c116100e9578063c6afba3c146106c0578063c6e6f592146106c8578063cce2f3fb146106db578063cd6dc687146106ee57600080fd5b8063ba08765214610698578063c1590cd7146103a9578063c63d75b6146106ab57600080fd5b8063a385fb9611610187578063b3d7f6b911610156578063b3d7f6b91461064c578063b460af941461065f578063b6b55f2514610672578063b8dc491b1461068557600080fd5b8063a385fb9614610615578063a457c2d71461061e578063a9059cbb14610631578063ada82c7d1461064457600080fd5b80638b202176116101c35780638b202176146105e15780638da5cb5b146105e957806394bf804d146105fa57806395d89b411461060d57600080fd5b806380f55605146105bd578063853828b6146105d057806387788782146105d857600080fd5b806339509351116102ce57806356f89ef91161026c5780636e553f651161023b5780636e553f65146105665780636e96dfd71461057957806370a082311461058c578063715018a6146105b557600080fd5b806356f89ef91461053c57806357ded9c9146105445780635be9b2d31461054c5780635c975abb1461055457600080fd5b8063402d267d116102a8578063402d267d1461050357806346904840146105165780634cdad506146103d95780635470eaad1461052957600080fd5b806339509351146104d55780633af9e669146104e85780633f4ba83a146104fb57600080fd5b8063149a4ae411610346578063283579781161031557806328357978146104765780632e1a7d4d1461047e578063313ce5671461049157806338d52e0f146104b057600080fd5b8063149a4ae41461043f57806318160ddd14610452578063211493c91461045a57806323b872dd1461046357600080fd5b8063095ea7b311610382578063095ea7b3146103ec5780630a28a4771461040f57806310509aa914610422578063116ac4a31461043757600080fd5b806301e1d114146103a957806306fdde03146103c457806307a2d13a146103d9575b600080fd5b6103b1610770565b6040519081526020015b60405180910390f35b6103cc610877565b6040516103bb919061308c565b6103b16103e73660046130bf565b610909565b6103ff6103fa3660046130ed565b61091c565b60405190151581526020016103bb565b6103b161041d3660046130bf565b610934565b610435610430366004613119565b610941565b005b6103b1610a67565b6103b161044d3660046130bf565b610a82565b6099546103b1565b6103b160fb5481565b6103ff610471366004613149565b610aff565b610435610b25565b6103b161048c3660046130bf565b610c99565b60c954600160a01b900460ff1660405160ff90911681526020016103bb565b60c9546001600160a01b03165b6040516001600160a01b0390911681526020016103bb565b6103ff6104e33660046130ed565b610cad565b6103b16104f636600461318a565b610ccf565b610435610cf1565b6103b161051136600461318a565b610d09565b60fd546104bd906001600160a01b031681565b6103b16105373660046130bf565b610d27565b610435610d5d565b6103b1610f26565b6103ff610fa2565b606554600160a01b900460ff166103ff565b6103b1610574366004613119565b61101a565b61043561058736600461318a565b6110e3565b6103b161059a36600461318a565b6001600160a01b031660009081526097602052604090205490565b61043561114d565b60fe546104bd906001600160a01b031681565b6103ff611190565b6103b160fc5481565b6103cc6111a6565b6033546001600160a01b03166104bd565b6103b1610608366004613119565b6111d4565b6103cc611251565b6103b160ff5481565b6103ff61062c3660046130ed565b611260565b6103ff61063f3660046130ed565b6112e6565b6104356112f4565b6103b161065a3660046130bf565b611324565b6103b161066d3660046131a7565b611331565b6104356106803660046130bf565b6114fa565b6104356106933660046131e9565b611508565b6103b16106a63660046131a7565b611640565b6103b16106b936600461318a565b5060001990565b6103b1611834565b6103b16106d63660046130bf565b61183e565b6103b16106e936600461318a565b61184b565b6104356106fc3660046130ed565b611954565b6103b161070f36600461318a565b611ae9565b610435611b0d565b6103b161072a36600461318a565b611b9a565b6103b161073d3660046131e9565b611bb8565b6065546104bd906001600160a01b031681565b61043561076336600461318a565b61114d565b610435611be3565b6000670de0b6b3a764000060fe60009054906101000a90046001600160a01b03166001600160a01b0316633648b3996040518163ffffffff1660e01b8152600401602060405180830381865afa1580156107ce573d6000803e3d6000fd5b505050506040513d601f19601f820116820180604052508101906107f29190613217565b60fe546040516370a0823160e01b81523060048201526001600160a01b03909116906370a0823190602401602060405180830381865afa15801561083a573d6000803e3d6000fd5b505050506040513d601f19601f8201168201806040525081019061085e9190613217565b6108689190613246565b610872919061327b565b905090565b6060609a80546108869061329d565b80601f01602080910402602001604051908101604052809291908181526020018280546108b29061329d565b80156108ff5780601f106108d4576101008083540402835291602001916108ff565b820191906000526020600020905b8154815290600101906020018083116108e257829003601f168201915b5050505050905090565b6000610916826000611cf7565b92915050565b60003361092a818585611d2e565b5060019392505050565b6000610916826001611e52565b610949611e84565b60fc5460fd5460408051928352602083018590526001600160a01b0391821690830152821660608201527fb3b62da5184b9e7e2f5d280014bb485d4444b66738025e5fb5738bbddcb6b8489060800160405180910390a160fc82905560fd546001600160a01b03828116911614610a445760fd546001600160a01b031615610a265760fd546001600160a01b0316600081815260976020526040902054906109f19082611ede565b60fd54610a1a906001600160a01b0316610a136033546001600160a01b031690565b6000611d2e565b610a248282612012565b505b610a4481610a3c6033546001600160a01b031690565b600019611d2e565b60fd80546001600160a01b0319166001600160a01b039290921691909117905550565b6000670de0b6b3a7640000610a7a610770565b61085e610f26565b60ff5460fe5460405163b1e23dbb60e01b815260048101849052600092916001600160a01b03169063b1e23dbb906024015b602060405180830381865afa158015610ad1573d6000803e3d6000fd5b505050506040513d601f19601f82011682018060405250810190610af59190613217565b6109169190613246565b600033610b0d8582856120d3565b610b18858585612147565b60019150505b9392505050565b6033546001600160a01b03163314610b795760405162461bcd60e51b81526020600482015260126024820152711b9bdd081bdddb995c881bdc881d985d5b1d60721b60448201526064015b60405180910390fd5b60fe546040516370a0823160e01b81523060048201526001600160a01b039091169063db006a759082906370a0823190602401602060405180830381865afa158015610bc9573d6000803e3d6000fd5b505050506040513d601f19601f82011682018060405250810190610bed9190613217565b6040518263ffffffff1660e01b8152600401610c0b91815260200190565b6020604051808303816000875af1158015610c2a573d6000803e3d6000fd5b505050506040513d601f19601f82011682018060405250810190610c4e9190613217565b15610c8f5760405162461bcd60e51b81526020600482015260116024820152701c995919595b48185b1b0819985a5b1959607a1b6044820152606401610b70565b610c976122f2565b565b6000610ca6823333611331565b5090919050565b60003361092a818585610cc08383611bb8565b610cca91906132d8565b611d2e565b6001600160a01b03811660009081526097602052604081205461091690610909565b610cf9611e84565b610d01611b0d565b610c97612352565b6000610d1361238e565b610d1e576000610916565b60001992915050565b60ff5460fe54604051630d76ba9960e21b815260048101849052600092916001600160a01b0316906335daea6490602401610ab4565b610d65611e84565b60fd546001600160a01b0316610dbd5760405162461bcd60e51b815260206004820152601d60248201527f66656520726563697069656e74206e6f7420696e697469616c697a65640000006044820152606401610b70565b6000610dc7610770565b90506000610e42610dd66123a8565b6001600160a01b031663313ce5676040518163ffffffff1660e01b8152600401602060405180830381865afa158015610e13573d6000803e3d6000fd5b505050506040513d601f19601f82011682018060405250810190610e3791906132f0565b6103e790600a6133f7565b905060fb548111610e955760405162461bcd60e51b815260206004820152601b60248201527f736861726556616c756520213e207661756c74536861726548574d00000000006044820152606401610b70565b6000610ea060995490565b905060006ec097ce7bc90715b34b9f10000000008260fb5485610ec39190613406565b60fc54610ed09190613246565b610eda9190613246565b610ee4919061327b565b60fd54909150610f12906001600160a01b0316610f0d84610f058589613406565b8591906123bc565b612012565b610f1d610dd66123a8565b60fb5550505050565b60ff5460fe5460408051630ae9d70b60e41b81529051600093926001600160a01b03169163ae9d70b09160048083019260209291908290030181865afa158015610f74573d6000803e3d6000fd5b505050506040513d601f19601f82011682018060405250810190610f989190613217565b6108729190613246565b60fe546040516370a0823160e01b8152306004820152600091600a916001600160a01b03909116906370a0823190602401602060405180830381865afa158015610ff0573d6000803e3d6000fd5b505050506040513d601f19601f820116820180604052508101906110149190613217565b11905090565b60006110246123db565b61102d8361183e565b90508061106a5760405162461bcd60e51b815260206004820152600b60248201526a5a45524f5f53484152455360a81b6044820152606401610b70565b6110893330856110786123a8565b6001600160a01b0316929190612428565b6110938282612012565b60408051848152602081018390526001600160a01b0384169133917fdcbc1c05240f31ff3ad067ef1ee35ce4997762752e3a095284754544f4c709d7910160405180910390a36109168382612493565b6110eb611e84565b606580546001600160a01b038381166001600160a01b031983168117909355604080519190921680825260208201939093527fb3d55174552271a4f1aaf36b72f50381e892171636b3fb5447fe00e995e7a37b91015b60405180910390a15050565b611155611e84565b60405162461bcd60e51b815260206004820152601060248201526f6e6f74207573656420616e796d6f726560801b6044820152606401610b70565b60008061101461119f33611ae9565b3333611331565b60606111b0610877565b6040516020016111c0919061341d565b604051602081830303815290604052905090565b60006111de6123db565b6111e783611324565b90506111f73330836110786123a8565b6112018284612012565b60408051828152602081018590526001600160a01b0384169133917fdcbc1c05240f31ff3ad067ef1ee35ce4997762752e3a095284754544f4c709d7910160405180910390a36109168184612493565b6060609b80546108869061329d565b6000338161126e8286611bb8565b9050838110156112ce5760405162461bcd60e51b815260206004820152602560248201527f45524332303a2064656372656173656420616c6c6f77616e63652062656c6f77604482015264207a65726f60d81b6064820152608401610b70565b6112db8286868403611d2e565b506001949350505050565b60003361092a818585612147565b6112fc611e84565b60fd546001600160a01b03166000818152609760205260409020546113219180611640565b50565b6000610916826001611cf7565b600061133c84610934565b9050336001600160a01b0383161461137657600061135a8333611bb8565b90506000198114611374576113748333610cca8585613406565b505b606554600160a01b900460ff166114885760006113916123a8565b6040516370a0823160e01b81523060048201526001600160a01b0391909116906370a0823190602401602060405180830381865afa1580156113d7573d6000803e3d6000fd5b505050506040513d601f19601f820116820180604052508101906113fb9190613217565b905061140785836125d2565b806114106123a8565b6040516370a0823160e01b81523060048201526001600160a01b0391909116906370a0823190602401602060405180830381865afa158015611456573d6000803e3d6000fd5b505050506040513d601f19601f8201168201806040525081019061147a9190613217565b6114849190613406565b9450505b6114928282611ede565b60408051858152602081018390526001600160a01b03808516929086169133917ffbde797d201c681b91056529119e0b02407c7bb96a4a2c75c01fc9667232c8db910160405180910390a4610b1e83856114ea6123a8565b6001600160a01b0316919061268e565b611504813061101a565b5050565b611510611e84565b60c9546001600160a01b03838116911614156115575760405162461bcd60e51b815260206004820152600660248201526508585cdcd95d60d21b6044820152606401610b70565b6040516370a0823160e01b815230600482015282906001600160a01b0382169063a9059cbb90849083906370a0823190602401602060405180830381865afa1580156115a7573d6000803e3d6000fd5b505050506040513d601f19601f820116820180604052508101906115cb9190613217565b6040516001600160e01b031960e085901b1681526001600160a01b03909216600483015260248201526044016020604051808303816000875af1158015611616573d6000803e3d6000fd5b505050506040513d601f19601f8201168201806040525081019061163a9190613455565b50505050565b6000336001600160a01b0383161461167a57600061165e8333611bb8565b90506000198114611678576116788333610cca8885613406565b505b61168384610909565b9050806116c05760405162461bcd60e51b815260206004820152600b60248201526a5a45524f5f41535345545360a81b6044820152606401610b70565b606554600160a01b900460ff166117d25760006116db6123a8565b6040516370a0823160e01b81523060048201526001600160a01b0391909116906370a0823190602401602060405180830381865afa158015611721573d6000803e3d6000fd5b505050506040513d601f19601f820116820180604052508101906117459190613217565b905061175182866125d2565b8061175a6123a8565b6040516370a0823160e01b81523060048201526001600160a01b0391909116906370a0823190602401602060405180830381865afa1580156117a0573d6000803e3d6000fd5b505050506040513d601f19601f820116820180604052508101906117c49190613217565b6117ce9190613406565b9150505b6117dc8285611ede565b60408051828152602081018690526001600160a01b03808516929086169133917ffbde797d201c681b91056529119e0b02407c7bb96a4a2c75c01fc9667232c8db910160405180910390a4610b1e83826114ea6123a8565b6000610872610770565b6000610916826000611e52565b6000611855611e84565b61185d6126be565b60006118676123a8565b6040516370a0823160e01b81523060048201529091506000906001600160a01b038316906370a0823190602401602060405180830381865afa1580156118b1573d6000803e3d6000fd5b505050506040513d601f19601f820116820180604052508101906118d59190613217565b60405163a9059cbb60e01b81526001600160a01b038681166004830152602482018390529192509083169063a9059cbb906044016020604051808303816000875af1158015611928573d6000803e3d6000fd5b505050506040513d601f19601f8201168201806040525081019061194c9190613455565b509392505050565b600054610100900460ff16158080156119745750600054600160ff909116105b8061198e5750303b15801561198e575060005460ff166001145b6119f15760405162461bcd60e51b815260206004820152602e60248201527f496e697469616c697a61626c653a20636f6e747261637420697320616c72656160448201526d191e481a5b9a5d1a585b1a5e995960921b6064820152608401610b70565b6000805460ff191660011790558015611a14576000805461ff0019166101001790555b611a7e836001600160a01b0316636f307dc36040518163ffffffff1660e01b8152600401602060405180830381865afa158015611a55573d6000803e3d6000fd5b505050506040513d601f19601f82011682018060405250810190611a799190613477565b61270e565b60fe80546001600160a01b0319166001600160a01b03851617905560ff8290558015611ae4576000805461ff0019169055604051600181527f7f26b83ff96e1f2b6a682f133852f6798a09c465da95921460cefb38474024989060200160405180910390a15b505050565b6001600160a01b038116600090815260976020526040812054610916906000611cf7565b611b15611e84565b611321611b2a60c9546001600160a01b031690565b6040516370a0823160e01b81523060048201526001600160a01b0391909116906370a0823190602401602060405180830381865afa158015611b70573d6000803e3d6000fd5b505050506040513d601f19601f82011682018060405250810190611b949190613217565b3061101a565b6001600160a01b038116600090815260976020526040812054610916565b6001600160a01b03918216600090815260986020908152604080832093909416825291909152205490565b6065546001600160a01b03163314611c355760405162461bcd60e51b81526020600482015260156024820152743737ba103a3432903832b73234b7339037bbb732b960591b6044820152606401610b70565b6000611c496033546001600160a01b031690565b6065549091506001600160a01b0316611c61816128dc565b606580546001600160a01b0319169055604080516001600160a01b0384168152600060208201527f70aea8d848e8a90fb7661b227dc522eb6395c3dac71b63cb59edd5c9899b2364910160405180910390a1606554604080516001600160a01b03808516825290921660208301527fb3d55174552271a4f1aaf36b72f50381e892171636b3fb5447fe00e995e7a37b9101611141565b600080611d0360995490565b90508015611d2457611d1f611d16610770565b8590838661292e565b611d26565b835b949350505050565b6001600160a01b038316611d905760405162461bcd60e51b8152602060048201526024808201527f45524332303a20617070726f76652066726f6d20746865207a65726f206164646044820152637265737360e01b6064820152608401610b70565b6001600160a01b038216611df15760405162461bcd60e51b815260206004820152602260248201527f45524332303a20617070726f766520746f20746865207a65726f206164647265604482015261737360f01b6064820152608401610b70565b6001600160a01b0383811660008181526098602090815260408083209487168084529482529182902085905590518481527f8c5be1e5ebec7d5bd14f71427d1e84f3dd0314c0f7b2291e5b200ac8c7c3b925910160405180910390a3505050565b600080611e5e60995490565b9050831580611e6b575080155b611d2457611d1f81611e7b610770565b8691908661292e565b6033546001600160a01b03163314610c975760405162461bcd60e51b815260206004820181905260248201527f4f776e61626c653a2063616c6c6572206973206e6f7420746865206f776e65726044820152606401610b70565b6001600160a01b038216611f3e5760405162461bcd60e51b815260206004820152602160248201527f45524332303a206275726e2066726f6d20746865207a65726f206164647265736044820152607360f81b6064820152608401610b70565b6001600160a01b03821660009081526097602052604090205481811015611fb25760405162461bcd60e51b815260206004820152602260248201527f45524332303a206275726e20616d6f756e7420657863656564732062616c616e604482015261636560f01b6064820152608401610b70565b6001600160a01b03831660008181526097602090815260408083208686039055609980548790039055518581529192917fddf252ad1be2c89b69c2b068fc378daa952ba7f163c4a11628f55a4df523b3ef910160405180910390a3505050565b6001600160a01b0382166120685760405162461bcd60e51b815260206004820152601f60248201527f45524332303a206d696e7420746f20746865207a65726f2061646472657373006044820152606401610b70565b806099600082825461207a91906132d8565b90915550506001600160a01b0382166000818152609760209081526040808320805486019055518481527fddf252ad1be2c89b69c2b068fc378daa952ba7f163c4a11628f55a4df523b3ef910160405180910390a35050565b60006120df8484611bb8565b9050600019811461163a578181101561213a5760405162461bcd60e51b815260206004820152601d60248201527f45524332303a20696e73756666696369656e7420616c6c6f77616e63650000006044820152606401610b70565b61163a8484848403611d2e565b6001600160a01b0383166121ab5760405162461bcd60e51b815260206004820152602560248201527f45524332303a207472616e736665722066726f6d20746865207a65726f206164604482015264647265737360d81b6064820152608401610b70565b6001600160a01b03821661220d5760405162461bcd60e51b815260206004820152602360248201527f45524332303a207472616e7366657220746f20746865207a65726f206164647260448201526265737360e81b6064820152608401610b70565b6001600160a01b038316600090815260976020526040902054818110156122855760405162461bcd60e51b815260206004820152602660248201527f45524332303a207472616e7366657220616d6f756e7420657863656564732062604482015265616c616e636560d01b6064820152608401610b70565b6001600160a01b0380851660008181526097602052604080822086860390559286168082529083902080548601905591517fddf252ad1be2c89b69c2b068fc378daa952ba7f163c4a11628f55a4df523b3ef906122e59086815260200190565b60405180910390a361163a565b6122fa6123db565b6065805460ff60a01b1916600160a01b1790557f62e78cea01bee320cd4e420270b5ea74000d11b0c9f74754ebdbfc544b05a2586123353390565b6040516001600160a01b03909116815260200160405180910390a1565b61235a6126be565b6065805460ff60a01b191690557f5db9ee0a495bf2e6ff9c91a7834c1ba4fdd244a5e8aa4e537bd38aeae4b073aa33612335565b600080612399610770565b11806108725750506099541590565b600061087260c9546001600160a01b031690565b8282028115158415858304851417166123d457600080fd5b0492915050565b606554600160a01b900460ff1615610c975760405162461bcd60e51b815260206004820152601060248201526f14185d5cd8589b194e881c185d5cd95960821b6044820152606401610b70565b6040516001600160a01b038085166024830152831660448201526064810182905261163a9085906323b872dd60e01b906084015b60408051601f198184030181529190526020810180516001600160e01b03166001600160e01b03199093169290921790915261298b565b60c9546001600160a01b031660fe5460405163095ea7b360e01b81526001600160a01b0391821660048201526024810185905291169063095ea7b3906044016020604051808303816000875af11580156124f1573d6000803e3d6000fd5b505050506040513d601f19601f820116820180604052508101906125159190613455565b5060fe5460405163140e25ad60e31b8152600481018490526001600160a01b039091169063a0712d68906024016020604051808303816000875af1158015612561573d6000803e3d6000fd5b505050506040513d601f19601f820116820180604052508101906125859190613217565b156115045760405162461bcd60e51b815260206004820152601860248201527f6465706f73697420746f206d61726b6574206661696c656400000000000000006044820152606401610b70565b60fe5460405163852a12e360e01b8152600481018490526001600160a01b039091169063852a12e3906024016020604051808303816000875af115801561261d573d6000803e3d6000fd5b505050506040513d601f19601f820116820180604052508101906126419190613217565b156115045760405162461bcd60e51b815260206004820152601960248201527f72656465656d2066726f6d206d61726b6574206661696c6564000000000000006044820152606401610b70565b6040516001600160a01b038316602482015260448101829052611ae490849063a9059cbb60e01b9060640161245c565b606554600160a01b900460ff16610c975760405162461bcd60e51b815260206004820152601460248201527314185d5cd8589b194e881b9bdd081c185d5cd95960621b6044820152606401610b70565b600054610100900460ff166127355760405162461bcd60e51b8152600401610b7090613494565b61273e33612a5d565b612746612a95565b61274e612ac4565b612860816001600160a01b03166306fdde036040518163ffffffff1660e01b8152600401600060405180830381865afa15801561278f573d6000803e3d6000fd5b505050506040513d6000823e601f3d908101601f191682016040526127b791908101906134f5565b6040516020016127c79190613597565b604051602081830303815290604052826001600160a01b03166395d89b416040518163ffffffff1660e01b8152600401600060405180830381865afa158015612814573d6000803e3d6000fd5b505050506040513d6000823e601f3d908101601f1916820160405261283c91908101906134f5565b60405160200161284c91906135d5565b604051602081830303815290604052612aeb565b61286981612b1c565b806001600160a01b031663313ce5676040518163ffffffff1660e01b8152600401602060405180830381865afa1580156128a7573d6000803e3d6000fd5b505050506040513d601f19601f820116820180604052508101906128cb91906132f0565b6128d690600a6133f7565b60fb5550565b603380546001600160a01b038381166001600160a01b0319831681179093556040519116919082907f8be0079c531659141344cd1fd0a4f28419497f9722a3daafe3b4186f6b6457e090600090a35050565b60008061293c868686612b4c565b90506001836002811115612952576129526135ff565b14801561296f57506000848061296a5761296a613265565b868809115b156129825761297f6001826132d8565b90505b95945050505050565b60006129e0826040518060400160405280602081526020017f5361666545524332303a206c6f772d6c6576656c2063616c6c206661696c6564815250856001600160a01b0316612bfc9092919063ffffffff16565b805190915015611ae457808060200190518101906129fe9190613455565b611ae45760405162461bcd60e51b815260206004820152602a60248201527f5361666545524332303a204552433230206f7065726174696f6e20646964206e6044820152691bdd081cdd58d8d9595960b21b6064820152608401610b70565b600054610100900460ff16612a845760405162461bcd60e51b8152600401610b7090613494565b612a8c612c0b565b611321816128dc565b600054610100900460ff16612abc5760405162461bcd60e51b8152600401610b7090613494565b610c97612c3a565b600054610100900460ff16610c975760405162461bcd60e51b8152600401610b7090613494565b600054610100900460ff16612b125760405162461bcd60e51b8152600401610b7090613494565b6115048282612c70565b600054610100900460ff16612b435760405162461bcd60e51b8152600401610b7090613494565b61132181612cbe565b600080806000198587098587029250828110838203039150508060001415612b8757838281612b7d57612b7d613265565b0492505050610b1e565b808411612b9357600080fd5b60008486880960026001871981018816978890046003810283188082028403028082028403028082028403028082028403028082028403029081029092039091026000889003889004909101858311909403939093029303949094049190911702949350505050565b6060611d268484600085612d43565b600054610100900460ff16612c325760405162461bcd60e51b8152600401610b7090613494565b610c97612e1e565b600054610100900460ff16612c615760405162461bcd60e51b8152600401610b7090613494565b6065805460ff60a01b19169055565b600054610100900460ff16612c975760405162461bcd60e51b8152600401610b7090613494565b8151612caa90609a906020850190612fc7565b508051611ae490609b906020840190612fc7565b600054610100900460ff16612ce55760405162461bcd60e51b8152600401610b7090613494565b600080612cf183612e4e565b9150915081612d01576012612d03565b805b60c980546001600160a01b039095166001600160a01b031960ff93909316600160a01b02929092166001600160a81b031990951694909417179092555050565b606082471015612da45760405162461bcd60e51b815260206004820152602660248201527f416464726573733a20696e73756666696369656e742062616c616e636520666f6044820152651c8818d85b1b60d21b6064820152608401610b70565b600080866001600160a01b03168587604051612dc09190613615565b60006040518083038185875af1925050503d8060008114612dfd576040519150601f19603f3d011682016040523d82523d6000602084013e612e02565b606091505b5091509150612e1387838387612f2c565b979650505050505050565b600054610100900460ff16612e455760405162461bcd60e51b8152600401610b7090613494565b610c97336128dc565b60408051600481526024810182526020810180516001600160e01b031663313ce56760e01b17905290516000918291829182916001600160a01b03871691612e9591613615565b6000604051808303816000865af19150503d8060008114612ed2576040519150601f19603f3d011682016040523d82523d6000602084013e612ed7565b606091505b5091509150818015612eeb57506020815110155b15612f1f57600081806020019051810190612f069190613217565b905060ff8111612f1d576001969095509350505050565b505b5060009485945092505050565b60608315612f98578251612f91576001600160a01b0385163b612f915760405162461bcd60e51b815260206004820152601d60248201527f416464726573733a2063616c6c20746f206e6f6e2d636f6e74726163740000006044820152606401610b70565b5081611d26565b611d268383815115612fad5781518083602001fd5b8060405162461bcd60e51b8152600401610b70919061308c565b828054612fd39061329d565b90600052602060002090601f016020900481019282612ff5576000855561303b565b82601f1061300e57805160ff191683800117855561303b565b8280016001018555821561303b579182015b8281111561303b578251825591602001919060010190613020565b5061304792915061304b565b5090565b5b80821115613047576000815560010161304c565b60005b8381101561307b578181015183820152602001613063565b8381111561163a5750506000910152565b60208152600082518060208401526130ab816040850160208701613060565b601f01601f19169190910160400192915050565b6000602082840312156130d157600080fd5b5035919050565b6001600160a01b038116811461132157600080fd5b6000806040838503121561310057600080fd5b823561310b816130d8565b946020939093013593505050565b6000806040838503121561312c57600080fd5b82359150602083013561313e816130d8565b809150509250929050565b60008060006060848603121561315e57600080fd5b8335613169816130d8565b92506020840135613179816130d8565b929592945050506040919091013590565b60006020828403121561319c57600080fd5b8135610b1e816130d8565b6000806000606084860312156131bc57600080fd5b8335925060208401356131ce816130d8565b915060408401356131de816130d8565b809150509250925092565b600080604083850312156131fc57600080fd5b8235613207816130d8565b9150602083013561313e816130d8565b60006020828403121561322957600080fd5b5051919050565b634e487b7160e01b600052601160045260246000fd5b600081600019048311821515161561326057613260613230565b500290565b634e487b7160e01b600052601260045260246000fd5b60008261329857634e487b7160e01b600052601260045260246000fd5b500490565b600181811c908216806132b157607f821691505b602082108114156132d257634e487b7160e01b600052602260045260246000fd5b50919050565b600082198211156132eb576132eb613230565b500190565b60006020828403121561330257600080fd5b815160ff81168114610b1e57600080fd5b600181815b8085111561334e57816000190482111561333457613334613230565b8085161561334157918102915b93841c9390800290613318565b509250929050565b60008261336557506001610916565b8161337257506000610916565b81600181146133885760028114613392576133ae565b6001915050610916565b60ff8411156133a3576133a3613230565b50506001821b610916565b5060208310610133831016604e8410600b84101617156133d1575081810a610916565b6133db8383613313565b80600019048211156133ef576133ef613230565b029392505050565b6000610b1e60ff841683613356565b60008282101561341857613418613230565b500390565b6f026b4b230b99027b83a34b6b4bd32b2160851b815260008251613448816010850160208701613060565b9190910160100192915050565b60006020828403121561346757600080fd5b81518015158114610b1e57600080fd5b60006020828403121561348957600080fd5b8151610b1e816130d8565b6020808252602b908201527f496e697469616c697a61626c653a20636f6e7472616374206973206e6f74206960408201526a6e697469616c697a696e6760a81b606082015260800190565b634e487b7160e01b600052604160045260246000fd5b60006020828403121561350757600080fd5b815167ffffffffffffffff8082111561351f57600080fd5b818401915084601f83011261353357600080fd5b815181811115613545576135456134df565b604051601f8201601f19908116603f0116810190838211818310171561356d5761356d6134df565b8160405282815287602084870101111561358657600080fd5b612e13836020830160208801613060565b65026b4b230b9960d51b8152600082516135b8816006850160208701613060565b650815985d5b1d60d21b6006939091019283015250600c01919050565b6136bb60f11b8152600082516135f2816002850160208701613060565b9190910160020192915050565b634e487b7160e01b600052602160045260246000fd5b60008251613627818460208701613060565b919091019291505056fea164736f6c634300080a000a",
    "linkReferences": {}
  },
  "methodIdentifiers": {
    "_acceptOwner()": "fc4d33f9",
    "_setPendingOwner(address)": "6e96dfd7",
    "allowance(address,address)": "dd62ed3e",
    "approve(address,uint256)": "095ea7b3",
    "apr()": "57ded9c9",
    "aprAfterDeposit(uint256)": "149a4ae4",
    "aprAfterWithdraw(uint256)": "5470eaad",
    "asset()": "38d52e0f",
    "balanceOf(address)": "70a08231",
    "balanceOfUnderlying(address)": "3af9e669",
    "blocksPerYear()": "a385fb96",
    "convertToAssets(uint256)": "07a2d13a",
    "convertToShares(uint256)": "c6e6f592",
    "decimals()": "313ce567",
    "decreaseAllowance(address,uint256)": "a457c2d7",
    "deposit()": "d0e30db0",
    "deposit(uint256)": "b6b55f25",
    "deposit(uint256,address)": "6e553f65",
    "emergencyWithdrawAndPause()": "28357978",
    "feeRecipient()": "46904840",
    "hasAssets()": "5be9b2d3",
    "increaseAllowance(address,uint256)": "39509351",
    "initialize(address,uint256)": "cd6dc687",
    "lenderName()": "8b202176",
    "market()": "80f55605",
    "maxDeposit(address)": "402d267d",
    "maxMint(address)": "c63d75b6",
    "maxRedeem(address)": "d905777e",
    "maxWithdraw(address)": "ce96cb77",
    "mint(uint256,address)": "94bf804d",
    "name()": "06fdde03",
    "nav()": "c1590cd7",
    "owner()": "8da5cb5b",
    "paused()": "5c975abb",
    "pendingOwner()": "e30c3978",
    "performanceFee()": "87788782",
    "previewDeposit(uint256)": "ef8b30f7",
    "previewMint(uint256)": "b3d7f6b9",
    "previewRedeem(uint256)": "4cdad506",
    "previewWithdraw(uint256)": "0a28a477",
    "redeem(uint256,address,address)": "ba087652",
    "renounceOwnership()": "715018a6",
    "shutdown(address)": "cce2f3fb",
    "sweep(address,address)": "b8dc491b",
    "symbol()": "95d89b41",
    "takePerformanceFee()": "56f89ef9",
    "totalAssets()": "01e1d114",
    "totalSupply()": "18160ddd",
    "transfer(address,uint256)": "a9059cbb",
    "transferFrom(address,address,uint256)": "23b872dd",
    "transferOwnership(address)": "f2fde38b",
    "underlyingBalanceStored()": "c6afba3c",
    "unpause()": "3f4ba83a",
    "updateFeeSettings(uint256,address)": "10509aa9",
    "vaultShareHWM()": "211493c9",
    "weightedApr()": "116ac4a3",
    "withdraw(uint256)": "2e1a7d4d",
    "withdraw(uint256,address,address)": "b460af94",
    "withdrawAccruedFees()": "ada82c7d",
    "withdrawAll()": "853828b6"
  }
}