{
  "address": "0xAecc411ADD4732003DcB14dAAA7dFb611B82d76C",
  "abi": [
    {
      "inputs": [
        {
          "internalType": "bytes4",
          "name": "_functionSelector",
          "type": "bytes4"
        }
      ],
      "name": "ExtensionNotFound",
      "type": "error"
    },
    {
      "anonymous": false,
      "inputs": [
        {
          "indexed": false,
          "internalType": "uint256",
          "name": "cashPrior",
          "type": "uint256"
        },
        {
          "indexed": false,
          "internalType": "uint256",
          "name": "interestAccumulated",
          "type": "uint256"
        },
        {
          "indexed": false,
          "internalType": "uint256",
          "name": "borrowIndex",
          "type": "uint256"
        },
        {
          "indexed": false,
          "internalType": "uint256",
          "name": "totalBorrows",
          "type": "uint256"
        }
      ],
      "name": "AccrueInterest",
      "type": "event"
    },
    {
      "anonymous": false,
      "inputs": [
        {
          "indexed": true,
          "internalType": "address",
          "name": "owner",
          "type": "address"
        },
        {
          "indexed": true,
          "internalType": "address",
          "name": "spender",
          "type": "address"
        },
        {
          "indexed": false,
          "internalType": "uint256",
          "name": "amount",
          "type": "uint256"
        }
      ],
      "name": "Approval",
      "type": "event"
    },
    {
      "anonymous": false,
      "inputs": [
        {
          "indexed": false,
          "internalType": "uint256",
          "name": "error",
          "type": "uint256"
        },
        {
          "indexed": false,
          "internalType": "uint256",
          "name": "info",
          "type": "uint256"
        },
        {
          "indexed": false,
          "internalType": "uint256",
          "name": "detail",
          "type": "uint256"
        }
      ],
      "name": "Failure",
      "type": "event"
    },
    {
      "anonymous": false,
      "inputs": [
        {
          "indexed": false,
          "internalType": "address",
          "name": "receiver",
          "type": "address"
        },
        {
          "indexed": false,
          "internalType": "uint256",
          "name": "amount",
          "type": "uint256"
        }
      ],
      "name": "Flash",
      "type": "event"
    },
    {
      "anonymous": false,
      "inputs": [
        {
          "indexed": false,
          "internalType": "uint256",
          "name": "oldAdminFeeMantissa",
          "type": "uint256"
        },
        {
          "indexed": false,
          "internalType": "uint256",
          "name": "newAdminFeeMantissa",
          "type": "uint256"
        }
      ],
      "name": "NewAdminFee",
      "type": "event"
    },
    {
      "anonymous": false,
      "inputs": [
        {
          "indexed": false,
          "internalType": "uint256",
          "name": "oldFuseFeeMantissa",
          "type": "uint256"
        },
        {
          "indexed": false,
          "internalType": "uint256",
          "name": "newFuseFeeMantissa",
          "type": "uint256"
        }
      ],
      "name": "NewFuseFee",
      "type": "event"
    },
    {
      "anonymous": false,
      "inputs": [
        {
          "indexed": false,
          "internalType": "contract InterestRateModel",
          "name": "oldInterestRateModel",
          "type": "address"
        },
        {
          "indexed": false,
          "internalType": "contract InterestRateModel",
          "name": "newInterestRateModel",
          "type": "address"
        }
      ],
      "name": "NewMarketInterestRateModel",
      "type": "event"
    },
    {
      "anonymous": false,
      "inputs": [
        {
          "indexed": false,
          "internalType": "uint256",
          "name": "oldReserveFactorMantissa",
          "type": "uint256"
        },
        {
          "indexed": false,
          "internalType": "uint256",
          "name": "newReserveFactorMantissa",
          "type": "uint256"
        }
      ],
      "name": "NewReserveFactor",
      "type": "event"
    },
    {
      "anonymous": false,
      "inputs": [
        {
          "indexed": true,
          "internalType": "address",
          "name": "from",
          "type": "address"
        },
        {
          "indexed": true,
          "internalType": "address",
          "name": "to",
          "type": "address"
        },
        {
          "indexed": false,
          "internalType": "uint256",
          "name": "amount",
          "type": "uint256"
        }
      ],
      "name": "Transfer",
      "type": "event"
    },
    {
      "inputs": [],
      "name": "_getExtensionFunctions",
      "outputs": [
        {
          "internalType": "bytes4[]",
          "name": "",
          "type": "bytes4[]"
        }
      ],
      "stateMutability": "pure",
      "type": "function"
    },
    {
      "inputs": [
        {
          "internalType": "uint256",
          "name": "newAdminFeeMantissa",
          "type": "uint256"
        }
      ],
      "name": "_setAdminFee",
      "outputs": [
        {
          "internalType": "uint256",
          "name": "",
          "type": "uint256"
        }
      ],
      "stateMutability": "nonpayable",
      "type": "function"
    },
    {
      "inputs": [
        {
          "internalType": "contract InterestRateModel",
          "name": "newInterestRateModel",
          "type": "address"
        }
      ],
      "name": "_setInterestRateModel",
      "outputs": [
        {
          "internalType": "uint256",
          "name": "",
          "type": "uint256"
        }
      ],
      "stateMutability": "nonpayable",
      "type": "function"
    },
    {
      "inputs": [
        {
          "internalType": "string",
          "name": "_name",
          "type": "string"
        },
        {
          "internalType": "string",
          "name": "_symbol",
          "type": "string"
        }
      ],
      "name": "_setNameAndSymbol",
      "outputs": [],
      "stateMutability": "nonpayable",
      "type": "function"
    },
    {
      "inputs": [
        {
          "internalType": "uint256",
          "name": "newReserveFactorMantissa",
          "type": "uint256"
        }
      ],
      "name": "_setReserveFactor",
      "outputs": [
        {
          "internalType": "uint256",
          "name": "",
          "type": "uint256"
        }
      ],
      "stateMutability": "nonpayable",
      "type": "function"
    },
    {
      "inputs": [],
      "name": "accrualBlockNumber",
      "outputs": [
        {
          "internalType": "uint256",
          "name": "",
          "type": "uint256"
        }
      ],
      "stateMutability": "view",
      "type": "function"
    },
    {
      "inputs": [],
      "name": "accrueInterest",
      "outputs": [
        {
          "internalType": "uint256",
          "name": "",
          "type": "uint256"
        }
      ],
      "stateMutability": "nonpayable",
      "type": "function"
    },
    {
      "inputs": [],
      "name": "adminFeeMantissa",
      "outputs": [
        {
          "internalType": "uint256",
          "name": "",
          "type": "uint256"
        }
      ],
      "stateMutability": "view",
      "type": "function"
    },
    {
      "inputs": [
        {
          "internalType": "address",
          "name": "owner",
          "type": "address"
        },
        {
          "internalType": "address",
          "name": "spender",
          "type": "address"
        }
      ],
      "name": "allowance",
      "outputs": [
        {
          "internalType": "uint256",
          "name": "",
          "type": "uint256"
        }
      ],
      "stateMutability": "view",
      "type": "function"
    },
    {
      "inputs": [
        {
          "internalType": "address",
          "name": "spender",
          "type": "address"
        },
        {
          "internalType": "uint256",
          "name": "amount",
          "type": "uint256"
        }
      ],
      "name": "approve",
      "outputs": [
        {
          "internalType": "bool",
          "name": "",
          "type": "bool"
        }
      ],
      "stateMutability": "nonpayable",
      "type": "function"
    },
    {
      "inputs": [
        {
          "internalType": "address",
          "name": "owner",
          "type": "address"
        }
      ],
      "name": "balanceOf",
      "outputs": [
        {
          "internalType": "uint256",
          "name": "",
          "type": "uint256"
        }
      ],
      "stateMutability": "view",
      "type": "function"
    },
    {
      "inputs": [
        {
          "internalType": "address",
          "name": "owner",
          "type": "address"
        }
      ],
      "name": "balanceOfUnderlying",
      "outputs": [
        {
          "internalType": "uint256",
          "name": "",
          "type": "uint256"
        }
      ],
      "stateMutability": "view",
      "type": "function"
    },
    {
      "inputs": [
        {
          "internalType": "address",
          "name": "account",
          "type": "address"
        }
      ],
      "name": "borrowBalanceCurrent",
      "outputs": [
        {
          "internalType": "uint256",
          "name": "",
          "type": "uint256"
        }
      ],
      "stateMutability": "view",
      "type": "function"
    },
    {
      "inputs": [],
      "name": "borrowIndex",
      "outputs": [
        {
          "internalType": "uint256",
          "name": "",
          "type": "uint256"
        }
      ],
      "stateMutability": "view",
      "type": "function"
    },
    {
      "inputs": [],
      "name": "borrowRatePerBlock",
      "outputs": [
        {
          "internalType": "uint256",
          "name": "",
          "type": "uint256"
        }
      ],
      "stateMutability": "view",
      "type": "function"
    },
    {
      "inputs": [
        {
          "internalType": "uint256",
          "name": "borrowAmount",
          "type": "uint256"
        }
      ],
      "name": "borrowRatePerBlockAfterBorrow",
      "outputs": [
        {
          "internalType": "uint256",
          "name": "",
          "type": "uint256"
        }
      ],
      "stateMutability": "view",
      "type": "function"
    },
    {
      "inputs": [],
      "name": "comptroller",
      "outputs": [
        {
          "internalType": "contract IComptroller",
          "name": "",
          "type": "address"
        }
      ],
      "stateMutability": "view",
      "type": "function"
    },
    {
      "inputs": [],
      "name": "decimals",
      "outputs": [
        {
          "internalType": "uint8",
          "name": "",
          "type": "uint8"
        }
      ],
      "stateMutability": "view",
      "type": "function"
    },
    {
      "inputs": [],
      "name": "exchangeRateCurrent",
      "outputs": [
        {
          "internalType": "uint256",
          "name": "",
          "type": "uint256"
        }
      ],
      "stateMutability": "view",
      "type": "function"
    },
    {
      "inputs": [],
      "name": "feeSeizeShareMantissa",
      "outputs": [
        {
          "internalType": "uint256",
          "name": "",
          "type": "uint256"
        }
      ],
      "stateMutability": "view",
      "type": "function"
    },
    {
      "inputs": [
        {
          "internalType": "uint256",
          "name": "amount",
          "type": "uint256"
        },
        {
          "internalType": "bytes",
          "name": "data",
          "type": "bytes"
        }
      ],
      "name": "flash",
      "outputs": [],
      "stateMutability": "nonpayable",
      "type": "function"
    },
    {
      "inputs": [],
      "name": "fuseAdmin",
      "outputs": [
        {
          "internalType": "address payable",
          "name": "",
          "type": "address"
        }
      ],
      "stateMutability": "view",
      "type": "function"
    },
    {
      "inputs": [],
      "name": "fuseFeeMantissa",
      "outputs": [
        {
          "internalType": "uint256",
          "name": "",
          "type": "uint256"
        }
      ],
      "stateMutability": "view",
      "type": "function"
    },
    {
      "inputs": [
        {
          "internalType": "address",
          "name": "account",
          "type": "address"
        }
      ],
      "name": "getAccountSnapshot",
      "outputs": [
        {
          "internalType": "uint256",
          "name": "",
          "type": "uint256"
        },
        {
          "internalType": "uint256",
          "name": "",
          "type": "uint256"
        },
        {
          "internalType": "uint256",
          "name": "",
          "type": "uint256"
        },
        {
          "internalType": "uint256",
          "name": "",
          "type": "uint256"
        }
      ],
      "stateMutability": "view",
      "type": "function"
    },
    {
      "inputs": [
        {
          "internalType": "bytes4",
          "name": "fnSig",
          "type": "bytes4"
        }
      ],
      "name": "getExtensionForSig",
      "outputs": [
        {
          "internalType": "address",
          "name": "",
          "type": "address"
        }
      ],
      "stateMutability": "view",
      "type": "function"
    },
    {
      "inputs": [],
      "name": "getTotalUnderlyingSupplied",
      "outputs": [
        {
          "internalType": "uint256",
          "name": "",
          "type": "uint256"
        }
      ],
      "stateMutability": "view",
      "type": "function"
    },
    {
      "inputs": [],
      "name": "implementation",
      "outputs": [
        {
          "internalType": "address",
          "name": "",
          "type": "address"
        }
      ],
      "stateMutability": "view",
      "type": "function"
    },
    {
      "inputs": [],
      "name": "interestRateModel",
      "outputs": [
        {
          "internalType": "contract InterestRateModel",
          "name": "",
          "type": "address"
        }
      ],
      "stateMutability": "view",
      "type": "function"
    },
    {
      "inputs": [],
      "name": "isCEther",
      "outputs": [
        {
          "internalType": "bool",
          "name": "",
          "type": "bool"
        }
      ],
      "stateMutability": "view",
      "type": "function"
    },
    {
      "inputs": [
        {
          "internalType": "bytes[]",
          "name": "data",
          "type": "bytes[]"
        }
      ],
      "name": "multicall",
      "outputs": [
        {
          "internalType": "bytes[]",
          "name": "results",
          "type": "bytes[]"
        }
      ],
      "stateMutability": "payable",
      "type": "function"
    },
    {
      "inputs": [],
      "name": "name",
      "outputs": [
        {
          "internalType": "string",
          "name": "",
          "type": "string"
        }
      ],
      "stateMutability": "view",
      "type": "function"
    },
    {
      "inputs": [],
      "name": "protocolSeizeShareMantissa",
      "outputs": [
        {
          "internalType": "uint256",
          "name": "",
          "type": "uint256"
        }
      ],
      "stateMutability": "view",
      "type": "function"
    },
    {
      "inputs": [],
      "name": "reserveFactorMantissa",
      "outputs": [
        {
          "internalType": "uint256",
          "name": "",
          "type": "uint256"
        }
      ],
      "stateMutability": "view",
      "type": "function"
    },
    {
      "inputs": [],
      "name": "supplyRatePerBlock",
      "outputs": [
        {
          "internalType": "uint256",
          "name": "",
          "type": "uint256"
        }
      ],
      "stateMutability": "view",
      "type": "function"
    },
    {
      "inputs": [
        {
          "internalType": "uint256",
          "name": "mintAmount",
          "type": "uint256"
        }
      ],
      "name": "supplyRatePerBlockAfterDeposit",
      "outputs": [
        {
          "internalType": "uint256",
          "name": "",
          "type": "uint256"
        }
      ],
      "stateMutability": "view",
      "type": "function"
    },
    {
      "inputs": [
        {
          "internalType": "uint256",
          "name": "withdrawAmount",
          "type": "uint256"
        }
      ],
      "name": "supplyRatePerBlockAfterWithdraw",
      "outputs": [
        {
          "internalType": "uint256",
          "name": "",
          "type": "uint256"
        }
      ],
      "stateMutability": "view",
      "type": "function"
    },
    {
      "inputs": [],
      "name": "symbol",
      "outputs": [
        {
          "internalType": "string",
          "name": "",
          "type": "string"
        }
      ],
      "stateMutability": "view",
      "type": "function"
    },
    {
      "inputs": [],
      "name": "totalAdminFees",
      "outputs": [
        {
          "internalType": "uint256",
          "name": "",
          "type": "uint256"
        }
      ],
      "stateMutability": "view",
      "type": "function"
    },
    {
      "inputs": [],
      "name": "totalBorrows",
      "outputs": [
        {
          "internalType": "uint256",
          "name": "",
          "type": "uint256"
        }
      ],
      "stateMutability": "view",
      "type": "function"
    },
    {
      "inputs": [],
      "name": "totalBorrowsCurrent",
      "outputs": [
        {
          "internalType": "uint256",
          "name": "",
          "type": "uint256"
        }
      ],
      "stateMutability": "view",
      "type": "function"
    },
    {
      "inputs": [],
      "name": "totalFuseFees",
      "outputs": [
        {
          "internalType": "uint256",
          "name": "",
          "type": "uint256"
        }
      ],
      "stateMutability": "view",
      "type": "function"
    },
    {
      "inputs": [],
      "name": "totalReserves",
      "outputs": [
        {
          "internalType": "uint256",
          "name": "",
          "type": "uint256"
        }
      ],
      "stateMutability": "view",
      "type": "function"
    },
    {
      "inputs": [],
      "name": "totalSupply",
      "outputs": [
        {
          "internalType": "uint256",
          "name": "",
          "type": "uint256"
        }
      ],
      "stateMutability": "view",
      "type": "function"
    },
    {
      "inputs": [
        {
          "internalType": "address",
          "name": "dst",
          "type": "address"
        },
        {
          "internalType": "uint256",
          "name": "amount",
          "type": "uint256"
        }
      ],
      "name": "transfer",
      "outputs": [
        {
          "internalType": "bool",
          "name": "",
          "type": "bool"
        }
      ],
      "stateMutability": "nonpayable",
      "type": "function"
    },
    {
      "inputs": [
        {
          "internalType": "address",
          "name": "src",
          "type": "address"
        },
        {
          "internalType": "address",
          "name": "dst",
          "type": "address"
        },
        {
          "internalType": "uint256",
          "name": "amount",
          "type": "uint256"
        }
      ],
      "name": "transferFrom",
      "outputs": [
        {
          "internalType": "bool",
          "name": "",
          "type": "bool"
        }
      ],
      "stateMutability": "nonpayable",
      "type": "function"
    },
    {
      "inputs": [],
      "name": "underlying",
      "outputs": [
        {
          "internalType": "address",
          "name": "",
          "type": "address"
        }
      ],
      "stateMutability": "view",
      "type": "function"
    }
  ],
  "transactionHash": "0x8374cd22ce3192b98c22c35fe80626bd798726273dafbf9ea1ea30a0e693c453",
  "args": [],
  "numDeployments": 19,
  "bytecode": {
    "object": "0x608060405234801561001057600080fd5b5061392b806100206000396000f3fe60806040526004361061027d5760003560e01c80638d02d9a11161014f578063b1e23dbb116100c1578063dc028ab11161007a578063dc028ab114610759578063dd62ed3e1461076f578063f2b3abbd146107b5578063f3fdb15a146107d5578063f8f9da28146107f5578063fca7820b1461080a57600080fd5b8063b1e23dbb14610692578063bd6d894d146106b2578063be99f119146106c7578063c37f68e2146106e3578063cfcd4c0714610723578063dbfe7c191461074357600080fd5b8063a7408b6c11610113578063a7408b6c146105f2578063a9059cbb14610612578063aa5af0fd14610632578063ac784ddc14610648578063ac9650d81461065d578063ae9d70b01461067d57600080fd5b80638d02d9a11461057c5780638f840ddd1461059257806391dd36c6146105a857806395d89b41146105c8578063a6afed95146105dd57600080fd5b80633c3b4b89116101f35780636752e702116101ac5780636752e702146104be5780636c540baf146104d95780636f307dc3146104ef57806370a082311461050f57806373acee981461054557806389f8132e1461055a57600080fd5b80633c3b4b891461041d57806347bd37181461043d5780634aeb3d9a146104535780635c60da1b146104685780635fe3b5671461048857806361feacff146104a857600080fd5b806318160ddd1161024557806318160ddd1461035957806323b872dd1461036f578063313ce5671461038f57806334154d4c146103bb57806335daea64146103dd5780633af9e669146103fd57600080fd5b806306fdde0314610282578063095ea7b3146102ad57806315761d51146102dd578063173b99041461031557806317bfdfbc14610339575b600080fd5b34801561028e57600080fd5b5061029761082a565b6040516102a49190613303565b60405180910390f35b3480156102b957600080fd5b506102cd6102c836600461332b565b6108b8565b60405190151581526020016102a4565b3480156102e957600080fd5b506001546102fd906001600160a01b031681565b6040516001600160a01b0390911681526020016102a4565b34801561032157600080fd5b5061032b600b5481565b6040519081526020016102a4565b34801561034557600080fd5b5061032b610354366004613357565b610926565b34801561036557600080fd5b5061032b60125481565b34801561037b57600080fd5b506102cd61038a366004613374565b610adb565b34801561039b57600080fd5b506005546103a99060ff1681565b60405160ff90911681526020016102a4565b3480156103c757600080fd5b506103db6103d63660046133f7565b610b09565b005b3480156103e957600080fd5b5061032b6103f8366004613463565b610b66565b34801561040957600080fd5b5061032b610418366004613357565b610ce8565b34801561042957600080fd5b506103db61043836600461347c565b610d83565b34801561044957600080fd5b5061032b600e5481565b34801561045f57600080fd5b5061032b610f3d565b34801561047457600080fd5b506000546102fd906001600160a01b031681565b34801561049457600080fd5b506006546102fd906001600160a01b031681565b3480156104b457600080fd5b5061032b60105481565b3480156104ca57600080fd5b5061032b666379da05b6000081565b3480156104e557600080fd5b5061032b600c5481565b3480156104fb57600080fd5b506016546102fd906001600160a01b031681565b34801561051b57600080fd5b5061032b61052a366004613357565b6001600160a01b031660009081526013602052604090205490565b34801561055157600080fd5b5061032b610fda565b34801561056657600080fd5b5061056f61106a565b6040516102a491906134c8565b34801561058857600080fd5b5061032b60095481565b34801561059e57600080fd5b5061032b600f5481565b3480156105b457600080fd5b5061032b6105c3366004613463565b611703565b3480156105d457600080fd5b506102976118b6565b3480156105e957600080fd5b5061032b6118c3565b3480156105fe57600080fd5b506102fd61060d366004613516565b6119d6565b34801561061e57600080fd5b506102cd61062d36600461332b565b6119e1565b34801561063e57600080fd5b5061032b600d5481565b34801561065457600080fd5b506102cd600081565b61067061066b366004613540565b611a0e565b6040516102a491906135b5565b34801561068957600080fd5b5061032b611a1a565b34801561069e57600080fd5b5061032b6106ad366004613463565b611b40565b3480156106be57600080fd5b5061032b611c70565b3480156106d357600080fd5b5061032b67016345785d8a000081565b3480156106ef57600080fd5b506107036106fe366004613357565b611d9e565b6040805194855260208501939093529183015260608201526080016102a4565b34801561072f57600080fd5b5061032b61073e366004613463565b611de4565b34801561074f57600080fd5b5061032b600a5481565b34801561076557600080fd5b5061032b60115481565b34801561077b57600080fd5b5061032b61078a366004613617565b6001600160a01b03918216600090815260146020908152604080832093909416825291909152205490565b3480156107c157600080fd5b5061032b6107d0366004613357565b611f0b565b3480156107e157600080fd5b506007546102fd906001600160a01b031681565b34801561080157600080fd5b5061032b61204a565b34801561081657600080fd5b5061032b610825366004613463565b612111565b6003805461083790613650565b80601f016020809104026020016040519081016040528092919081815260200182805461086390613650565b80156108b05780601f10610885576101008083540402835291602001916108b0565b820191906000526020600020905b81548152906001019060200180831161089357829003601f168201915b505050505081565b3360008181526014602090815260408083206001600160a01b03871680855292528083208590555191929182907f8c5be1e5ebec7d5bd14f71427d1e84f3dd0314c0f7b2291e5b200ac8c7c3b925906109149087815260200190565b60405180910390a35060019392505050565b60008043600c54141561093c5750600d546109b7565b6000306001600160a01b0316633b1d21a26040518163ffffffff1660e01b8152600401602060405180830381865afa15801561097c573d6000803e3d6000fd5b505050506040513d601f19601f820116820180604052508101906109a09190613685565b905060006109ae43836121c7565b60200151925050505b6001600160a01b03831660009081526015602052604081208054829182916109e6575060009695505050505050565b80546109f2908661245d565b90945092506000846003811115610a0b57610a0b61369e565b14610a5d5760405162461bcd60e51b815260206004820152601e60248201527f216d756c55496e74206f766572666c6f7720636865636b206661696c6564000060448201526064015b60405180910390fd5b610a6b83826001015461249f565b90945091506000846003811115610a8457610a8461369e565b14610ad15760405162461bcd60e51b815260206004820152601e60248201527f2164697655496e74206f766572666c6f7720636865636b206661696c656400006044820152606401610a54565b5095945050505050565b600080610ae7816124ca565b6000610af53387878761258e565b149150610b018161283e565b509392505050565b610b116128bd565b610b465760405162461bcd60e51b815260206004820152600660248201526510b0b236b4b760d11b6044820152606401610a54565b610b526003858561320e565b50610b5f6004838361320e565b5050505050565b600080306001600160a01b0316633b1d21a26040518163ffffffff1660e01b8152600401602060405180830381865afa158015610ba7573d6000803e3d6000fd5b505050506040513d601f19601f82011682018060405250810190610bcb9190613685565b905082811015610c165760405162461bcd60e51b81526020600482015260166024820152750dac2e4d6cae840c6c2e6d040dcdee840cadcdeeaced60531b6044820152606401610a54565b6007546001600160a01b031663b8168816610c3185846136ca565b600e54601154601054600f54610c4791906136e1565b610c5191906136e1565b600954600a54600b54610c6491906136e1565b610c6e91906136e1565b6040516001600160e01b031960e087901b16815260048101949094526024840192909252604483015260648201526084015b602060405180830381865afa158015610cbd573d6000803e3d6000fd5b505050506040513d601f19601f82011682018060405250810190610ce19190613685565b9392505050565b6000806040518060200160405280610cfe611c70565b90526001600160a01b038416600090815260136020526040812054919250908190610d2a908490612a28565b90925090506000826003811115610d4357610d4361369e565b14610d7b5760405162461bcd60e51b81526020600482015260086024820152672162616c616e636560c01b6044820152606401610a54565b949350505050565b610d8b6118c3565b5082600e6000828254610d9e91906136e1565b9091555030905060405163067db1b360e01b8152336004820152602481018590526001600160a01b03919091169063067db1b390604401600060405180830381600087803b158015610def57600080fd5b505af1158015610e03573d6000803e3d6000fd5b505060165460405163012b1f4560e71b815233935063958fa2809250610e3b916001600160a01b0316908790879087906004016136f9565b600060405180830381600087803b158015610e5557600080fd5b505af1158015610e69573d6000803e3d6000fd5b50505050610e743090565b6040516304d7c4cd60e21b8152336004820152602481018590526001600160a01b03919091169063135f1334906044016020604051808303816000875af1158015610ec3573d6000803e3d6000fd5b505050506040513d601f19601f82011682018060405250810190610ee79190613685565b5082600e6000828254610efa91906136ca565b909155505060408051338152602081018590527fe756d016d0e956882a6de9c72a2fe06d7d488ecbe6d76628713077ea7930cff8910160405180910390a1505050565b6000601054601154600f54610f5291906136e1565b610f5c91906136e1565b600e54306001600160a01b0316633b1d21a26040518163ffffffff1660e01b8152600401602060405180830381865afa158015610f9d573d6000803e3d6000fd5b505050506040513d601f19601f82011682018060405250810190610fc19190613685565b610fcb91906136e1565b610fd591906136ca565b905090565b600043600c541415610fed5750600e5490565b6000306001600160a01b0316633b1d21a26040518163ffffffff1660e01b8152600401602060405180830381865afa15801561102d573d6000803e3d6000fd5b505050506040513d601f19601f820116820180604052508101906110519190613685565b9050600061105f43836121c7565b606001519392505050565b60408051601880825261032082019092526060919060009082602082016103008036833701905050905063a9059cbb60e01b816110a684613757565b93508360ff16815181106110bc576110bc613774565b6001600160e01b0319909216602092830291909101909101526323b872dd60e01b816110e784613757565b93508360ff16815181106110fd576110fd613774565b6001600160e01b031990921660209283029190910190910152636eb1769f60e11b8161112884613757565b93508360ff168151811061113e5761113e613774565b6001600160e01b03199092166020928302919091019091015263095ea7b360e01b8161116984613757565b93508360ff168151811061117f5761117f613774565b6001600160e01b0319909216602092830291909101909101526370a0823160e01b816111aa84613757565b93508360ff16815181106111c0576111c0613774565b6001600160e01b0319909216602092830291909101909101526348ee9b6360e11b816111eb84613757565b93508360ff168151811061120157611201613774565b6001600160e01b03199092166020928302919091019091015263f2b3abbd60e01b8161122c84613757565b93508360ff168151811061124257611242613774565b6001600160e01b031990921660209283029190910190910152630d05535360e21b8161126d84613757565b93508360ff168151811061128357611283613774565b6001600160e01b03199092166020928302919091019091015263fca7820b60e01b816112ae84613757565b93508360ff16815181106112c4576112c4613774565b6001600160e01b031990921660209283029190910190910152630ae9d70b60e41b816112ef84613757565b93508360ff168151811061130557611305613774565b6001600160e01b031990921660209283029190910190910152631f1f3b4560e31b8161133084613757565b93508360ff168151811061134657611346613774565b6001600160e01b03199092166020928302919091019091015263bd6d894d60e01b8161137184613757565b93508360ff168151811061138757611387613774565b6001600160e01b03199092166020928302919091019091015263a6afed9560e01b816113b284613757565b93508360ff16815181106113c8576113c8613774565b6001600160e01b031990921660209283029190910190910152630e759dd360e31b816113f384613757565b93508360ff168151811061140957611409613774565b6001600160e01b031990921660209283029190910190910152633af9e66960e01b8161143484613757565b93508360ff168151811061144a5761144a613774565b6001600160e01b031990921660209283029190910190910152631592ca1b60e31b8161147584613757565b93508360ff168151811061148b5761148b613774565b6001600160e01b03199092166020928302919091019091015263b1e23dbb60e01b816114b684613757565b93508360ff16815181106114cc576114cc613774565b6001600160e01b031990921660209283029190910190910152630d76ba9960e21b816114f784613757565b93508360ff168151811061150d5761150d613774565b6001600160e01b03199092166020928302919091019091015263cfcd4c0760e01b8161153884613757565b93508360ff168151811061154e5761154e613774565b6001600160e01b0319909216602092830291909101909101526325759ecd60e11b8161157984613757565b93508360ff168151811061158f5761158f613774565b6001600160e01b031990921660209283029190910190910152633c3b4b8960e01b816115ba84613757565b93508360ff16815181106115d0576115d0613774565b6001600160e01b0319909216602092830291909101909101526361bfb47160e11b816115fb84613757565b93508360ff168151811061161157611611613774565b6001600160e01b0319909216602092830291909101909101526305eff7ef60e21b8161163c84613757565b93508360ff168151811061165257611652613774565b6001600160e01b0319909216602092830291909101909101526329d022db60e21b8161167d84613757565b93508360ff168151811061169357611693613774565b6001600160e01b03199092166020928302919091019091015260ff8216156116fd5760405162461bcd60e51b815260206004820152601c60248201527f7573652074686520636f7272656374206172726179206c656e677468000000006044820152606401610a54565b92915050565b60008061170f816124ca565b6117176118c3565b5043600c54146117345761172d600a6052612a7a565b91506118a7565b6000198314156117445760095492505b6001546040805163dd86fea160e01b815290516000926001600160a01b03169163dd86fea19160048083019260209291908290030181865afa15801561178e573d6000803e3d6000fd5b505050506040513d601f19601f820116820180604052508101906117b29190613685565b9050670de0b6b3a76400008185600b546117cc91906136e1565b6117d691906136e1565b11156117f0576117e860026053612a7a565b9250506118a7565b8360095414611854576118016128bd565b611811576117e860016051612a7a565b600980549085905560408051828152602081018790527fcdd0b588250e1398549f79cfdb8217c186688822905d6715b0834ea1c865594a910160405180910390a1505b80600a54146118a057600a80549082905560408051828152602081018490527f92eef861b6533b7d3417f39c2ad7b460eed4e88a32fa3604f30e718b7602e7dc910160405180910390a1505b60005b9250505b6118b08161283e565b50919050565b6004805461083790613650565b600c5460009043908114156118db5760005b91505090565b6000306001600160a01b0316633b1d21a26040518163ffffffff1660e01b8152600401602060405180830381865afa15801561191b573d6000803e3d6000fd5b505050506040513d601f19601f8201168201806040525081019061193f9190613685565b9050600061194d83836121c7565b600c849055602081810151600d819055606080840151600e819055608080860151600f5560a086015160115560c086015160105560e0860151604080518a815296870191909152850193909352908301529192507f4dec04e750ca11537cabcd8a9eab06494de08da3735bc8871cd41250e190bc04910160405180910390a16000935050505090565b60006116fd82612af3565b6000806119ed816124ca565b60006119fb3333878761258e565b149150611a078161283e565b5092915050565b6060610ce18383612b61565b6007546000906001600160a01b031663b8168816306001600160a01b0316633b1d21a26040518163ffffffff1660e01b8152600401602060405180830381865afa158015611a6c573d6000803e3d6000fd5b505050506040513d601f19601f82011682018060405250810190611a909190613685565b600e54601154601054600f54611aa691906136e1565b611ab091906136e1565b600954600a54600b54611ac391906136e1565b611acd91906136e1565b6040516001600160e01b031960e087901b16815260048101949094526024840192909252604483015260648201526084015b602060405180830381865afa158015611b1c573d6000803e3d6000fd5b505050506040513d601f19601f82011682018060405250810190610fd59190613685565b6007546000906001600160a01b031663b816881683306001600160a01b0316633b1d21a26040518163ffffffff1660e01b8152600401602060405180830381865afa158015611b93573d6000803e3d6000fd5b505050506040513d601f19601f82011682018060405250810190611bb79190613685565b611bc191906136e1565b600e54601154601054600f54611bd791906136e1565b611be191906136e1565b600954600a54600b54611bf491906136e1565b611bfe91906136e1565b6040516001600160e01b031960e087901b1681526004810194909452602484019290925260448301526064820152608401602060405180830381865afa158015611c4c573d6000803e3d6000fd5b505050506040513d601f19601f820116820180604052508101906116fd9190613685565b6000600c54431415611cfe57610fd5601254600854611c8c3090565b6001600160a01b0316633b1d21a26040518163ffffffff1660e01b8152600401602060405180830381865afa158015611cc9573d6000803e3d6000fd5b505050506040513d601f19601f82011682018060405250810190611ced9190613685565b600e54600f54601054601154612cb2565b6000306001600160a01b0316633b1d21a26040518163ffffffff1660e01b8152600401602060405180830381865afa158015611d3e573d6000803e3d6000fd5b505050506040513d601f19601f82011682018060405250810190611d629190613685565b90506000611d7043836121c7565b9050611d97816040015160085484846060015185608001518660c001518760a00151612cb2565b9250505090565b6001600160a01b0381166000908152601360205260408120548190819081908180611dc888610926565b9150611dd2611c70565b90506000989297509095509350915050565b600080306001600160a01b0316633b1d21a26040518163ffffffff1660e01b8152600401602060405180830381865afa158015611e25573d6000803e3d6000fd5b505050506040513d601f19601f82011682018060405250810190611e499190613685565b905082811015611e945760405162461bcd60e51b81526020600482015260166024820152750dac2e4d6cae840c6c2e6d040dcdee840cadcdeeaced60531b6044820152606401610a54565b6007546001600160a01b03166315f24053611eaf85846136ca565b85600e54611ebd91906136e1565b601154601054600f54611ed091906136e1565b611eda91906136e1565b6040516001600160e01b031960e086901b168152600481019390935260248301919091526044820152606401610ca0565b600080611f17816124ca565b611f1f6118c3565b50611f286128bd565b611f385761172d6001604d612a7a565b43600c5414611f4d5761172d600a604c612a7a565b826001600160a01b0316632191f92a6040518163ffffffff1660e01b8152600401602060405180830381865afa158015611f8b573d6000803e3d6000fd5b505050506040513d601f19601f82011682018060405250810190611faf919061378a565b611fe55760405162461bcd60e51b8152602060048201526007602482015266216e6f7449726d60c81b6044820152606401610a54565b600780546001600160a01b038581166001600160a01b031983168117909355604080519190921680825260208201939093527fedffc32e068c7c95dfd4bdfd5c4d939a084d6b11c4199eac8436ed234d72f92691015b60405180910390a160006118a3565b6007546000906001600160a01b03166315f24053306001600160a01b0316633b1d21a26040518163ffffffff1660e01b8152600401602060405180830381865afa15801561209c573d6000803e3d6000fd5b505050506040513d601f19601f820116820180604052508101906120c09190613685565b600e54601154601054600f546120d691906136e1565b6120e091906136e1565b6040516001600160e01b031960e086901b168152600481019390935260248301919091526044820152606401611aff565b60008061211d816124ca565b6121256118c3565b5061212e6128bd565b61213e5761172d60016058612a7a565b43600c54146121535761172d600a6059612a7a565b670de0b6b3a7640000600a546009548561216d91906136e1565b61217791906136e1565b11156121895761172d6002605a612a7a565b600b80549084905560408051828152602081018690527faaa68312e2ea9d50e16af5068410ab56e1a1fd06037b1a35664812c30f821460910161203b565b61220f60405180610100016040528060008152602001600081526020016000815260200160008152602001600081526020016000815260200160008152602001600081525090565b600060115460105461222191906136e1565b600754600e54600f549293506000926001600160a01b03909216916315f2405391879161224f9087906136e1565b6040516001600160e01b031960e086901b168152600481019390935260248301919091526044820152606401602060405180830381865afa158015612298573d6000803e3d6000fd5b505050506040513d601f19601f820116820180604052508101906122bc9190613685565b905065048c27395000811115612314578184111561230b5760405162461bcd60e51b815260206004820152600c60248201526b010b137b93937bba930ba32960a51b6044820152606401610a54565b5065048c273950005b60008061232387600c54612df1565b9092509050600082600381111561233c5761233c61369e565b146123775760405162461bcd60e51b815260206004820152600b60248201526a21626c6f636b44656c746160a81b6044820152606401610a54565b86855260125460408087019190915280516020810190915283815260009061239f9083612e1c565b90506123ad81600e54612e4d565b60e08701819052600e546123c0916136e1565b60608701526040805160208101909152600b54815260e0870151600f546123e8929190612e65565b60808701526040805160208101909152600a54815260e0870151601154612410929190612e65565b60a08701526040805160208101909152600954815260e0870151601054612438929190612e65565b60c0870152600d5461244c90829080612e65565b602087015250939695505050505050565b6000808361247057506000905080612498565b8383028361247e86836137ac565b1461249157600260009250925050612498565b6000925090505b9250929050565b600080826124b35750600190506000612498565b60006124bf84866137ac565b915091509250929050565b600254600160b01b900460ff166125105760405162461bcd60e51b815260206004820152600a6024820152691c994b595b9d195c995960b21b6044820152606401610a54565b8061257e57600660009054906101000a90046001600160a01b03166001600160a01b031663c90c20b16040518163ffffffff1660e01b8152600401600060405180830381600087803b15801561256557600080fd5b505af1158015612579573d6000803e3d6000fd5b505050505b506002805460ff60b01b19169055565b6006546040516317b9b84b60e31b81523060048201526001600160a01b038581166024830152848116604483015260648201849052600092839291169063bdcdc258906084016020604051808303816000875af11580156125f3573d6000803e3d6000fd5b505050506040513d601f19601f820116820180604052508101906126179190613685565b905080156126345761262c6003605b83612e8f565b915050610d7b565b836001600160a01b0316856001600160a01b0316141561265a5761262c6002605c612a7a565b6000856001600160a01b0316876001600160a01b0316141561267f57506000196126a7565b506001600160a01b038086166000908152601460209081526040808320938a16835292905220545b6000806000806126b78589612df1565b909450925060008460038111156126d0576126d061369e565b146126ee576126e16009605c612a7a565b9650505050505050610d7b565b6001600160a01b038a166000908152601360205260409020546127119089612df1565b9094509150600084600381111561272a5761272a61369e565b1461273b576126e16009605d612a7a565b6001600160a01b03891660009081526013602052604090205461275e9089612f31565b909450905060008460038111156127775761277761369e565b14612788576126e16009605e612a7a565b6001600160a01b03808b16600090815260136020526040808220859055918b1681522081905560001985146127e0576001600160a01b03808b166000908152601460209081526040808320938f168352929052208390555b886001600160a01b03168a6001600160a01b03167fddf252ad1be2c89b69c2b068fc378daa952ba7f163c4a11628f55a4df523b3ef8a60405161282591815260200190565b60405180910390a35060009a9950505050505050505050565b6002805460ff60b01b1916600160b01b179055806128ba57600660009054906101000a90046001600160a01b03166001600160a01b031663632e51426040518163ffffffff1660e01b8152600401600060405180830381600087803b1580156128a657600080fd5b505af1158015610b5f573d6000803e3d6000fd5b50565b600654604080516303e1469160e61b815290516000926001600160a01b031691829163f851a440916004808201926020929091908290030181865afa15801561290a573d6000803e3d6000fd5b505050506040513d601f19601f8201168201806040525081019061292e91906137ce565b6001600160a01b0316336001600160a01b03161480156129ab5750806001600160a01b0316630a755ec26040518163ffffffff1660e01b8152600401602060405180830381865afa158015612987573d6000803e3d6000fd5b505050506040513d601f19601f820116820180604052508101906129ab919061378a565b806118d557506001546001600160a01b0316331480156118d55750806001600160a01b0316632f1069ba6040518163ffffffff1660e01b8152600401602060405180830381865afa158015612a04573d6000803e3d6000fd5b505050506040513d601f19601f820116820180604052508101906118d5919061378a565b600080600080612a388686612f57565b90925090506000826003811115612a5157612a5161369e565b14612a625750915060009050612498565b6000612a6d82612fd3565b9350935050509250929050565b60007f45b96fe442630264581b197e84bbada861235052c5a1aadfff9ea4e40a969aa0836011811115612aaf57612aaf61369e565b836061811115612ac157612ac161369e565b60408051928352602083019190915260009082015260600160405180910390a1826011811115610ce157610ce161369e565b6001600160e01b0319811660009081527fc8fcad8db84d3cc18b4c41d551ea0ee66dd599cde068d998e57d5e09332c131c602081905260408220546001600160a01b031680610ce157604051631f3f429960e31b81526001600160e01b031985166004820152602401610a54565b60608167ffffffffffffffff811115612b7c57612b7c613741565b604051908082528060200260200182016040528015612baf57816020015b6060815260200190600190039081612b9a5790505b50905060005b82811015611a075760008030868685818110612bd357612bd3613774565b9050602002810190612be591906137eb565b604051612bf3929190613832565b600060405180830381855af49150503d8060008114612c2e576040519150601f19603f3d011682016040523d82523d6000602084013e612c33565b606091505b509150915081612c7f57604481511015612c4c57600080fd5b60048101905080806020019051810190612c669190613842565b60405162461bcd60e51b8152600401610a549190613303565b80848481518110612c9257612c92613774565b602002602001018190525050508080612caa906138e4565b915050612bb5565b600087612cc0575085612de6565b6000612cd86040518060200160405280600081525090565b6000612cf9898987612cea8a8c6136e1565b612cf491906136e1565b612feb565b935090506000816003811115612d1157612d1161369e565b14612d6c5760405162461bcd60e51b815260206004820152602560248201527f216164645468656e53756255496e74206f766572666c6f7720636865636b2066604482015264185a5b195960da1b6064820152608401610a54565b612d76838c61303e565b925090506000816003811115612d8e57612d8e61369e565b14612ddb5760405162461bcd60e51b815260206004820152601d60248201527f21676574457870206f766572666c6f7720636865636b206661696c65640000006044820152606401610a54565b50519150612de69050565b979650505050505050565b600080838311612e10576000612e0784866136ca565b91509150612498565b50600390506000612498565b6040805160208101909152600081526040518060200160405280612e44856000015185613109565b90529392505050565b600080612e5a8484612e1c565b9050610d7b81612fd3565b600080612e728585612e1c565b9050612e86612e8082612fd3565b8461314b565b95945050505050565b60007f45b96fe442630264581b197e84bbada861235052c5a1aadfff9ea4e40a969aa0846011811115612ec457612ec461369e565b846061811115612ed657612ed661369e565b604080519283526020830191909152810184905260600160405180910390a16003846011811115612f0957612f0961369e565b14612f2557836011811115612f2057612f2061369e565b610d7b565b610d7b826103e86136e1565b600080838301848110612f4957600092509050612498565b600260009250925050612498565b6000612f6f6040518060200160405280600081525090565b600080612f8086600001518661245d565b90925090506000826003811115612f9957612f9961369e565b14612fb857506040805160208101909152600081529092509050612498565b60408051602081019091529081526000969095509350505050565b80516000906116fd90670de0b6b3a7640000906137ac565b600080600080612ffb8787612f31565b909250905060008260038111156130145761301461369e565b146130255750915060009050613036565b61302f8186612df1565b9350935050505b935093915050565b60006130566040518060200160405280600081525090565b60008061306b86670de0b6b3a764000061245d565b909250905060008260038111156130845761308461369e565b146130a357506040805160208101909152600081529092509050612498565b6000806130b0838861249f565b909250905060008260038111156130c9576130c961369e565b146130ec5781604051806020016040528060008152509550955050505050612498565b604080516020810190915290815260009890975095505050505050565b6000610ce183836040518060400160405280601781526020017f6d756c7469706c69636174696f6e206f766572666c6f77000000000000000000815250613181565b6000610ce18383604051806040016040528060118152602001706164646974696f6e206f766572666c6f7760781b8152506131dd565b600083158061318e575082155b1561319b57506000610ce1565b60006131a784866138ff565b9050836131b486836137ac565b1483906131d45760405162461bcd60e51b8152600401610a549190613303565b50949350505050565b6000806131ea84866136e1565b905082858210156131d45760405162461bcd60e51b8152600401610a549190613303565b82805461321a90613650565b90600052602060002090601f01602090048101928261323c5760008555613282565b82601f106132555782800160ff19823516178555613282565b82800160010185558215613282579182015b82811115613282578235825591602001919060010190613267565b5061328e929150613292565b5090565b5b8082111561328e5760008155600101613293565b60005b838110156132c25781810151838201526020016132aa565b838111156132d1576000848401525b50505050565b600081518084526132ef8160208601602086016132a7565b601f01601f19169290920160200192915050565b602081526000610ce160208301846132d7565b6001600160a01b03811681146128ba57600080fd5b6000806040838503121561333e57600080fd5b823561334981613316565b946020939093013593505050565b60006020828403121561336957600080fd5b8135610ce181613316565b60008060006060848603121561338957600080fd5b833561339481613316565b925060208401356133a481613316565b929592945050506040919091013590565b60008083601f8401126133c757600080fd5b50813567ffffffffffffffff8111156133df57600080fd5b60208301915083602082850101111561249857600080fd5b6000806000806040858703121561340d57600080fd5b843567ffffffffffffffff8082111561342557600080fd5b613431888389016133b5565b9096509450602087013591508082111561344a57600080fd5b50613457878288016133b5565b95989497509550505050565b60006020828403121561347557600080fd5b5035919050565b60008060006040848603121561349157600080fd5b83359250602084013567ffffffffffffffff8111156134af57600080fd5b6134bb868287016133b5565b9497909650939450505050565b6020808252825182820181905260009190848201906040850190845b8181101561350a5783516001600160e01b031916835292840192918401916001016134e4565b50909695505050505050565b60006020828403121561352857600080fd5b81356001600160e01b031981168114610ce157600080fd5b6000806020838503121561355357600080fd5b823567ffffffffffffffff8082111561356b57600080fd5b818501915085601f83011261357f57600080fd5b81358181111561358e57600080fd5b8660208260051b85010111156135a357600080fd5b60209290920196919550909350505050565b6000602080830181845280855180835260408601915060408160051b870101925083870160005b8281101561360a57603f198886030184526135f88583516132d7565b945092850192908501906001016135dc565b5092979650505050505050565b6000806040838503121561362a57600080fd5b823561363581613316565b9150602083013561364581613316565b809150509250929050565b600181811c9082168061366457607f821691505b602082108114156118b057634e487b7160e01b600052602260045260246000fd5b60006020828403121561369757600080fd5b5051919050565b634e487b7160e01b600052602160045260246000fd5b634e487b7160e01b600052601160045260246000fd5b6000828210156136dc576136dc6136b4565b500390565b600082198211156136f4576136f46136b4565b500190565b6001600160a01b0385168152602081018490526060604082018190528101829052818360808301376000818301608090810191909152601f909201601f191601019392505050565b634e487b7160e01b600052604160045260246000fd5b600060ff82168061376a5761376a6136b4565b6000190192915050565b634e487b7160e01b600052603260045260246000fd5b60006020828403121561379c57600080fd5b81518015158114610ce157600080fd5b6000826137c957634e487b7160e01b600052601260045260246000fd5b500490565b6000602082840312156137e057600080fd5b8151610ce181613316565b6000808335601e1984360301811261380257600080fd5b83018035915067ffffffffffffffff82111561381d57600080fd5b60200191503681900382131561249857600080fd5b8183823760009101908152919050565b60006020828403121561385457600080fd5b815167ffffffffffffffff8082111561386c57600080fd5b818401915084601f83011261388057600080fd5b81518181111561389257613892613741565b604051601f8201601f19908116603f011681019083821181831017156138ba576138ba613741565b816040528281528760208487010111156138d357600080fd5b612de68360208301602088016132a7565b60006000198214156138f8576138f86136b4565b5060010190565b6000816000190483118215151615613919576139196136b4565b50029056fea164736f6c634300080a000a",
    "linkReferences": {}
  },
  "methodIdentifiers": {
    "_getExtensionFunctions()": "89f8132e",
    "_setAdminFee(uint256)": "91dd36c6",
    "_setInterestRateModel(address)": "f2b3abbd",
    "_setNameAndSymbol(string,string)": "34154d4c",
    "_setReserveFactor(uint256)": "fca7820b",
    "accrualBlockNumber()": "6c540baf",
    "accrueInterest()": "a6afed95",
    "adminFeeMantissa()": "8d02d9a1",
    "allowance(address,address)": "dd62ed3e",
    "approve(address,uint256)": "095ea7b3",
    "balanceOf(address)": "70a08231",
    "balanceOfUnderlying(address)": "3af9e669",
    "borrowBalanceCurrent(address)": "17bfdfbc",
    "borrowIndex()": "aa5af0fd",
    "borrowRatePerBlock()": "f8f9da28",
    "borrowRatePerBlockAfterBorrow(uint256)": "cfcd4c07",
    "comptroller()": "5fe3b567",
    "decimals()": "313ce567",
    "exchangeRateCurrent()": "bd6d894d",
    "feeSeizeShareMantissa()": "be99f119",
    "flash(uint256,bytes)": "3c3b4b89",
    "fuseAdmin()": "15761d51",
    "fuseFeeMantissa()": "dbfe7c19",
    "getAccountSnapshot(address)": "c37f68e2",
    "getExtensionForSig(bytes4)": "a7408b6c",
    "getTotalUnderlyingSupplied()": "4aeb3d9a",
    "implementation()": "5c60da1b",
    "interestRateModel()": "f3fdb15a",
    "isCEther()": "ac784ddc",
    "multicall(bytes[])": "ac9650d8",
    "name()": "06fdde03",
    "protocolSeizeShareMantissa()": "6752e702",
    "reserveFactorMantissa()": "173b9904",
    "supplyRatePerBlock()": "ae9d70b0",
    "supplyRatePerBlockAfterDeposit(uint256)": "b1e23dbb",
    "supplyRatePerBlockAfterWithdraw(uint256)": "35daea64",
    "symbol()": "95d89b41",
    "totalAdminFees()": "61feacff",
    "totalBorrows()": "47bd3718",
    "totalBorrowsCurrent()": "73acee98",
    "totalFuseFees()": "dc028ab1",
    "totalReserves()": "8f840ddd",
    "totalSupply()": "18160ddd",
    "transfer(address,uint256)": "a9059cbb",
    "transferFrom(address,address,uint256)": "23b872dd",
    "underlying()": "6f307dc3"
  }
}