{
  "address": "0x604805B587C939042120D2e22398f299547A130c",
  "abi": [
    {
      "anonymous": false,
      "inputs": [
        {
          "indexed": false,
          "internalType": "uint8",
          "name": "version",
          "type": "uint8"
        }
      ],
      "name": "Initialized",
      "type": "event"
    },
    {
      "inputs": [],
      "name": "directory",
      "outputs": [
        {
          "internalType": "contract FusePoolDirectory",
          "name": "",
          "type": "address"
        }
      ],
      "stateMutability": "view",
      "type": "function"
    },
    {
      "inputs": [
        {
          "internalType": "contract ICToken",
          "name": "asset",
          "type": "address"
        }
      ],
      "name": "getBorrowCapsDataForAsset",
      "outputs": [
        {
          "internalType": "address[]",
          "name": "collateral",
          "type": "address[]"
        },
        {
          "internalType": "uint256[]",
          "name": "borrowCapsPerCollateral",
          "type": "uint256[]"
        },
        {
          "internalType": "bool[]",
          "name": "collateralBlacklisted",
          "type": "bool[]"
        },
        {
          "internalType": "uint256",
          "name": "totalBorrowCap",
          "type": "uint256"
        },
        {
          "internalType": "uint256",
          "name": "nonWhitelistedTotalBorrows",
          "type": "uint256"
        }
      ],
      "stateMutability": "view",
      "type": "function"
    },
    {
      "inputs": [
        {
          "internalType": "contract ICToken",
          "name": "asset",
          "type": "address"
        }
      ],
      "name": "getBorrowCapsForAsset",
      "outputs": [
        {
          "internalType": "address[]",
          "name": "collateral",
          "type": "address[]"
        },
        {
          "internalType": "uint256[]",
          "name": "borrowCapsPerCollateral",
          "type": "uint256[]"
        },
        {
          "internalType": "bool[]",
          "name": "collateralBlacklisted",
          "type": "bool[]"
        },
        {
          "internalType": "uint256",
          "name": "totalBorrowCap",
          "type": "uint256"
        }
      ],
      "stateMutability": "view",
      "type": "function"
    },
    {
      "inputs": [
        {
          "internalType": "contract IComptroller",
          "name": "comptroller",
          "type": "address"
        },
        {
          "internalType": "address",
          "name": "user",
          "type": "address"
        }
      ],
      "name": "getPoolAssetsByUser",
      "outputs": [
        {
          "components": [
            {
              "internalType": "address",
              "name": "cToken",
              "type": "address"
            },
            {
              "internalType": "address",
              "name": "underlyingToken",
              "type": "address"
            },
            {
              "internalType": "string",
              "name": "underlyingName",
              "type": "string"
            },
            {
              "internalType": "string",
              "name": "underlyingSymbol",
              "type": "string"
            },
            {
              "internalType": "uint256",
              "name": "underlyingDecimals",
              "type": "uint256"
            },
            {
              "internalType": "uint256",
              "name": "underlyingBalance",
              "type": "uint256"
            },
            {
              "internalType": "uint256",
              "name": "supplyRatePerBlock",
              "type": "uint256"
            },
            {
              "internalType": "uint256",
              "name": "borrowRatePerBlock",
              "type": "uint256"
            },
            {
              "internalType": "uint256",
              "name": "totalSupply",
              "type": "uint256"
            },
            {
              "internalType": "uint256",
              "name": "totalBorrow",
              "type": "uint256"
            },
            {
              "internalType": "uint256",
              "name": "supplyBalance",
              "type": "uint256"
            },
            {
              "internalType": "uint256",
              "name": "borrowBalance",
              "type": "uint256"
            },
            {
              "internalType": "uint256",
              "name": "liquidity",
              "type": "uint256"
            },
            {
              "internalType": "bool",
              "name": "membership",
              "type": "bool"
            },
            {
              "internalType": "uint256",
              "name": "exchangeRate",
              "type": "uint256"
            },
            {
              "internalType": "uint256",
              "name": "underlyingPrice",
              "type": "uint256"
            },
            {
              "internalType": "address",
              "name": "oracle",
              "type": "address"
            },
            {
              "internalType": "uint256",
              "name": "collateralFactor",
              "type": "uint256"
            },
            {
              "internalType": "uint256",
              "name": "reserveFactor",
              "type": "uint256"
            },
            {
              "internalType": "uint256",
              "name": "adminFee",
              "type": "uint256"
            },
            {
              "internalType": "uint256",
              "name": "fuseFee",
              "type": "uint256"
            },
            {
              "internalType": "bool",
              "name": "borrowGuardianPaused",
              "type": "bool"
            },
            {
              "internalType": "bool",
              "name": "mintGuardianPaused",
              "type": "bool"
            }
          ],
          "internalType": "struct FusePoolLens.FusePoolAsset[]",
          "name": "",
          "type": "tuple[]"
        }
      ],
      "stateMutability": "nonpayable",
      "type": "function"
    },
    {
      "inputs": [
        {
          "internalType": "contract IComptroller",
          "name": "comptroller",
          "type": "address"
        }
      ],
      "name": "getPoolAssetsWithData",
      "outputs": [
        {
          "components": [
            {
              "internalType": "address",
              "name": "cToken",
              "type": "address"
            },
            {
              "internalType": "address",
              "name": "underlyingToken",
              "type": "address"
            },
            {
              "internalType": "string",
              "name": "underlyingName",
              "type": "string"
            },
            {
              "internalType": "string",
              "name": "underlyingSymbol",
              "type": "string"
            },
            {
              "internalType": "uint256",
              "name": "underlyingDecimals",
              "type": "uint256"
            },
            {
              "internalType": "uint256",
              "name": "underlyingBalance",
              "type": "uint256"
            },
            {
              "internalType": "uint256",
              "name": "supplyRatePerBlock",
              "type": "uint256"
            },
            {
              "internalType": "uint256",
              "name": "borrowRatePerBlock",
              "type": "uint256"
            },
            {
              "internalType": "uint256",
              "name": "totalSupply",
              "type": "uint256"
            },
            {
              "internalType": "uint256",
              "name": "totalBorrow",
              "type": "uint256"
            },
            {
              "internalType": "uint256",
              "name": "supplyBalance",
              "type": "uint256"
            },
            {
              "internalType": "uint256",
              "name": "borrowBalance",
              "type": "uint256"
            },
            {
              "internalType": "uint256",
              "name": "liquidity",
              "type": "uint256"
            },
            {
              "internalType": "bool",
              "name": "membership",
              "type": "bool"
            },
            {
              "internalType": "uint256",
              "name": "exchangeRate",
              "type": "uint256"
            },
            {
              "internalType": "uint256",
              "name": "underlyingPrice",
              "type": "uint256"
            },
            {
              "internalType": "address",
              "name": "oracle",
              "type": "address"
            },
            {
              "internalType": "uint256",
              "name": "collateralFactor",
              "type": "uint256"
            },
            {
              "internalType": "uint256",
              "name": "reserveFactor",
              "type": "uint256"
            },
            {
              "internalType": "uint256",
              "name": "adminFee",
              "type": "uint256"
            },
            {
              "internalType": "uint256",
              "name": "fuseFee",
              "type": "uint256"
            },
            {
              "internalType": "bool",
              "name": "borrowGuardianPaused",
              "type": "bool"
            },
            {
              "internalType": "bool",
              "name": "mintGuardianPaused",
              "type": "bool"
            }
          ],
          "internalType": "struct FusePoolLens.FusePoolAsset[]",
          "name": "",
          "type": "tuple[]"
        }
      ],
      "stateMutability": "nonpayable",
      "type": "function"
    },
    {
      "inputs": [
        {
          "internalType": "contract IComptroller",
          "name": "comptroller",
          "type": "address"
        }
      ],
      "name": "getPoolSummary",
      "outputs": [
        {
          "internalType": "uint256",
          "name": "",
          "type": "uint256"
        },
        {
          "internalType": "uint256",
          "name": "",
          "type": "uint256"
        },
        {
          "internalType": "address[]",
          "name": "",
          "type": "address[]"
        },
        {
          "internalType": "string[]",
          "name": "",
          "type": "string[]"
        },
        {
          "internalType": "bool",
          "name": "",
          "type": "bool"
        }
      ],
      "stateMutability": "nonpayable",
      "type": "function"
    },
    {
      "inputs": [
        {
          "internalType": "address",
          "name": "account",
          "type": "address"
        }
      ],
      "name": "getPoolsByAccountWithData",
      "outputs": [
        {
          "internalType": "uint256[]",
          "name": "",
          "type": "uint256[]"
        },
        {
          "components": [
            {
              "internalType": "string",
              "name": "name",
              "type": "string"
            },
            {
              "internalType": "address",
              "name": "creator",
              "type": "address"
            },
            {
              "internalType": "address",
              "name": "comptroller",
              "type": "address"
            },
            {
              "internalType": "uint256",
              "name": "blockPosted",
              "type": "uint256"
            },
            {
              "internalType": "uint256",
              "name": "timestampPosted",
              "type": "uint256"
            }
          ],
          "internalType": "struct FusePoolDirectory.FusePool[]",
          "name": "",
          "type": "tuple[]"
        },
        {
          "components": [
            {
              "internalType": "uint256",
              "name": "totalSupply",
              "type": "uint256"
            },
            {
              "internalType": "uint256",
              "name": "totalBorrow",
              "type": "uint256"
            },
            {
              "internalType": "address[]",
              "name": "underlyingTokens",
              "type": "address[]"
            },
            {
              "internalType": "string[]",
              "name": "underlyingSymbols",
              "type": "string[]"
            },
            {
              "internalType": "bool",
              "name": "whitelistedAdmin",
              "type": "bool"
            }
          ],
          "internalType": "struct FusePoolLens.FusePoolData[]",
          "name": "",
          "type": "tuple[]"
        },
        {
          "internalType": "bool[]",
          "name": "",
          "type": "bool[]"
        }
      ],
      "stateMutability": "nonpayable",
      "type": "function"
    },
    {
      "inputs": [
        {
          "internalType": "address",
          "name": "user",
          "type": "address"
        }
      ],
      "name": "getPoolsOfUserWithData",
      "outputs": [
        {
          "internalType": "uint256[]",
          "name": "",
          "type": "uint256[]"
        },
        {
          "components": [
            {
              "internalType": "string",
              "name": "name",
              "type": "string"
            },
            {
              "internalType": "address",
              "name": "creator",
              "type": "address"
            },
            {
              "internalType": "address",
              "name": "comptroller",
              "type": "address"
            },
            {
              "internalType": "uint256",
              "name": "blockPosted",
              "type": "uint256"
            },
            {
              "internalType": "uint256",
              "name": "timestampPosted",
              "type": "uint256"
            }
          ],
          "internalType": "struct FusePoolDirectory.FusePool[]",
          "name": "",
          "type": "tuple[]"
        },
        {
          "components": [
            {
              "internalType": "uint256",
              "name": "totalSupply",
              "type": "uint256"
            },
            {
              "internalType": "uint256",
              "name": "totalBorrow",
              "type": "uint256"
            },
            {
              "internalType": "address[]",
              "name": "underlyingTokens",
              "type": "address[]"
            },
            {
              "internalType": "string[]",
              "name": "underlyingSymbols",
              "type": "string[]"
            },
            {
              "internalType": "bool",
              "name": "whitelistedAdmin",
              "type": "bool"
            }
          ],
          "internalType": "struct FusePoolLens.FusePoolData[]",
          "name": "",
          "type": "tuple[]"
        },
        {
          "internalType": "bool[]",
          "name": "",
          "type": "bool[]"
        }
      ],
      "stateMutability": "nonpayable",
      "type": "function"
    },
    {
      "inputs": [
        {
          "internalType": "bool",
          "name": "whitelistedAdmin",
          "type": "bool"
        }
      ],
      "name": "getPublicPoolsByVerificationWithData",
      "outputs": [
        {
          "internalType": "uint256[]",
          "name": "",
          "type": "uint256[]"
        },
        {
          "components": [
            {
              "internalType": "string",
              "name": "name",
              "type": "string"
            },
            {
              "internalType": "address",
              "name": "creator",
              "type": "address"
            },
            {
              "internalType": "address",
              "name": "comptroller",
              "type": "address"
            },
            {
              "internalType": "uint256",
              "name": "blockPosted",
              "type": "uint256"
            },
            {
              "internalType": "uint256",
              "name": "timestampPosted",
              "type": "uint256"
            }
          ],
          "internalType": "struct FusePoolDirectory.FusePool[]",
          "name": "",
          "type": "tuple[]"
        },
        {
          "components": [
            {
              "internalType": "uint256",
              "name": "totalSupply",
              "type": "uint256"
            },
            {
              "internalType": "uint256",
              "name": "totalBorrow",
              "type": "uint256"
            },
            {
              "internalType": "address[]",
              "name": "underlyingTokens",
              "type": "address[]"
            },
            {
              "internalType": "string[]",
              "name": "underlyingSymbols",
              "type": "string[]"
            },
            {
              "internalType": "bool",
              "name": "whitelistedAdmin",
              "type": "bool"
            }
          ],
          "internalType": "struct FusePoolLens.FusePoolData[]",
          "name": "",
          "type": "tuple[]"
        },
        {
          "internalType": "bool[]",
          "name": "",
          "type": "bool[]"
        }
      ],
      "stateMutability": "nonpayable",
      "type": "function"
    },
    {
      "inputs": [],
      "name": "getPublicPoolsWithData",
      "outputs": [
        {
          "internalType": "uint256[]",
          "name": "",
          "type": "uint256[]"
        },
        {
          "components": [
            {
              "internalType": "string",
              "name": "name",
              "type": "string"
            },
            {
              "internalType": "address",
              "name": "creator",
              "type": "address"
            },
            {
              "internalType": "address",
              "name": "comptroller",
              "type": "address"
            },
            {
              "internalType": "uint256",
              "name": "blockPosted",
              "type": "uint256"
            },
            {
              "internalType": "uint256",
              "name": "timestampPosted",
              "type": "uint256"
            }
          ],
          "internalType": "struct FusePoolDirectory.FusePool[]",
          "name": "",
          "type": "tuple[]"
        },
        {
          "components": [
            {
              "internalType": "uint256",
              "name": "totalSupply",
              "type": "uint256"
            },
            {
              "internalType": "uint256",
              "name": "totalBorrow",
              "type": "uint256"
            },
            {
              "internalType": "address[]",
              "name": "underlyingTokens",
              "type": "address[]"
            },
            {
              "internalType": "string[]",
              "name": "underlyingSymbols",
              "type": "string[]"
            },
            {
              "internalType": "bool",
              "name": "whitelistedAdmin",
              "type": "bool"
            }
          ],
          "internalType": "struct FusePoolLens.FusePoolData[]",
          "name": "",
          "type": "tuple[]"
        },
        {
          "internalType": "bool[]",
          "name": "",
          "type": "bool[]"
        }
      ],
      "stateMutability": "nonpayable",
      "type": "function"
    },
    {
      "inputs": [
        {
          "internalType": "contract IComptroller",
          "name": "comptroller",
          "type": "address"
        }
      ],
      "name": "getSupplyCapsDataForPool",
      "outputs": [
        {
          "internalType": "address[]",
          "name": "",
          "type": "address[]"
        },
        {
          "internalType": "uint256[]",
          "name": "",
          "type": "uint256[]"
        },
        {
          "internalType": "uint256[]",
          "name": "",
          "type": "uint256[]"
        }
      ],
      "stateMutability": "view",
      "type": "function"
    },
    {
      "inputs": [
        {
          "internalType": "contract IComptroller",
          "name": "comptroller",
          "type": "address"
        }
      ],
      "name": "getSupplyCapsForPool",
      "outputs": [
        {
          "internalType": "address[]",
          "name": "",
          "type": "address[]"
        },
        {
          "internalType": "uint256[]",
          "name": "",
          "type": "uint256[]"
        }
      ],
      "stateMutability": "view",
      "type": "function"
    },
    {
      "inputs": [
        {
          "internalType": "address",
          "name": "account",
          "type": "address"
        }
      ],
      "name": "getWhitelistedPoolsByAccount",
      "outputs": [
        {
          "internalType": "uint256[]",
          "name": "",
          "type": "uint256[]"
        },
        {
          "components": [
            {
              "internalType": "string",
              "name": "name",
              "type": "string"
            },
            {
              "internalType": "address",
              "name": "creator",
              "type": "address"
            },
            {
              "internalType": "address",
              "name": "comptroller",
              "type": "address"
            },
            {
              "internalType": "uint256",
              "name": "blockPosted",
              "type": "uint256"
            },
            {
              "internalType": "uint256",
              "name": "timestampPosted",
              "type": "uint256"
            }
          ],
          "internalType": "struct FusePoolDirectory.FusePool[]",
          "name": "",
          "type": "tuple[]"
        }
      ],
      "stateMutability": "view",
      "type": "function"
    },
    {
      "inputs": [
        {
          "internalType": "address",
          "name": "account",
          "type": "address"
        }
      ],
      "name": "getWhitelistedPoolsByAccountWithData",
      "outputs": [
        {
          "internalType": "uint256[]",
          "name": "",
          "type": "uint256[]"
        },
        {
          "components": [
            {
              "internalType": "string",
              "name": "name",
              "type": "string"
            },
            {
              "internalType": "address",
              "name": "creator",
              "type": "address"
            },
            {
              "internalType": "address",
              "name": "comptroller",
              "type": "address"
            },
            {
              "internalType": "uint256",
              "name": "blockPosted",
              "type": "uint256"
            },
            {
              "internalType": "uint256",
              "name": "timestampPosted",
              "type": "uint256"
            }
          ],
          "internalType": "struct FusePoolDirectory.FusePool[]",
          "name": "",
          "type": "tuple[]"
        },
        {
          "components": [
            {
              "internalType": "uint256",
              "name": "totalSupply",
              "type": "uint256"
            },
            {
              "internalType": "uint256",
              "name": "totalBorrow",
              "type": "uint256"
            },
            {
              "internalType": "address[]",
              "name": "underlyingTokens",
              "type": "address[]"
            },
            {
              "internalType": "string[]",
              "name": "underlyingSymbols",
              "type": "string[]"
            },
            {
              "internalType": "bool",
              "name": "whitelistedAdmin",
              "type": "bool"
            }
          ],
          "internalType": "struct FusePoolLens.FusePoolData[]",
          "name": "",
          "type": "tuple[]"
        },
        {
          "internalType": "bool[]",
          "name": "",
          "type": "bool[]"
        }
      ],
      "stateMutability": "nonpayable",
      "type": "function"
    },
    {
      "inputs": [
        {
          "internalType": "contract FusePoolDirectory",
          "name": "_directory",
          "type": "address"
        },
        {
          "internalType": "string",
          "name": "_name",
          "type": "string"
        },
        {
          "internalType": "string",
          "name": "_symbol",
          "type": "string"
        },
        {
          "internalType": "address[]",
          "name": "_hardcodedAddresses",
          "type": "address[]"
        },
        {
          "internalType": "string[]",
          "name": "_hardcodedNames",
          "type": "string[]"
        },
        {
          "internalType": "string[]",
          "name": "_hardcodedSymbols",
          "type": "string[]"
        },
        {
          "internalType": "string[]",
          "name": "_uniswapLPTokenNames",
          "type": "string[]"
        },
        {
          "internalType": "string[]",
          "name": "_uniswapLPTokenSymbols",
          "type": "string[]"
        },
        {
          "internalType": "string[]",
          "name": "_uniswapLPTokenDisplayNames",
          "type": "string[]"
        }
      ],
      "name": "initialize",
      "outputs": [],
      "stateMutability": "nonpayable",
      "type": "function"
    },
    {
      "inputs": [],
      "name": "name",
      "outputs": [
        {
          "internalType": "string",
          "name": "",
          "type": "string"
        }
      ],
      "stateMutability": "view",
      "type": "function"
    },
    {
      "inputs": [],
      "name": "symbol",
      "outputs": [
        {
          "internalType": "string",
          "name": "",
          "type": "string"
        }
      ],
      "stateMutability": "view",
      "type": "function"
    }
  ],
  "transactionHash": "0xefaf23728e2596936c7cfb1e147971545fb984e0e0637d0ae4c205bba5d866b6",
  "args": [],
  "numDeployments": 24,
  "bytecode": {
    "object": "0x608060405234801561001057600080fd5b50614578806100206000396000f3fe608060405234801561001057600080fd5b506004361061010b5760003560e01c8063798b9780116100a2578063c3530a6311610071578063c3530a6314610262578063c41c2f2414610283578063d0a164fb146102ae578063d64996e5146102b6578063e0581140146102c957600080fd5b8063798b9780146101f357806395d89b4114610214578063a07954871461021c578063a505596a1461023e57600080fd5b80633a1eb656116100de5780633a1eb65614610184578063516786841461019957806359d2fea6146101bc57806370733375146101e057600080fd5b806306fdde03146101105780630c5eb5a41461012e5780631568683a1461014e57806327e16c1f14610171575b600080fd5b6101186102dc565b6040516101259190613638565b60405180910390f35b61014161013c36600461366a565b61036a565b60405161012591906136a3565b61016161015c366004613830565b6103f2565b60405161012594939291906138f3565b61014161017f366004613830565b6104e5565b610197610192366004613b4a565b61055d565b005b6101ac6101a7366004613830565b6109d6565b6040516101259493929190613d6c565b6101cf6101ca366004613830565b610a79565b604051610125959493929190613e4c565b6101ac6101ee366004613830565b6112c2565b610206610201366004613830565b6112d4565b604051610125929190613e92565b6101186114f7565b61022f61022a366004613830565b611504565b60405161012593929190613ec0565b61025161024c366004613830565b6118e4565b604051610125959493929190613f03565b610275610270366004613830565b611ad0565b604051610125929190613f51565b600554610296906001600160a01b031681565b6040516001600160a01b039091168152602001610125565b6101ac611e38565b6101ac6102c4366004613f84565b611edd565b6101ac6102d7366004613830565b611f1d565b600180546102e990613fa1565b80601f016020809104026020016040519081016040528092919081815260200182805461031590613fa1565b80156103625780601f1061033757610100808354040283529160200191610362565b820191906000526020600020905b81548152906001019060200180831161034557829003601f168201915b505050505081565b604051632aff3bff60e21b81526001600160a01b0382811660048301526060916000916103ea91869182169063abfceffc90602401600060405180830381865afa1580156103bc573d6000803e3d6000fd5b505050506040513d6000823e601f3d908101601f191682016040526103e49190810190613fdc565b85611f5d565b949350505050565b6060806060600080856001600160a01b0316635fe3b5676040518163ffffffff1660e01b8152600401602060405180830381865afa158015610438573d6000803e3d6000fd5b505050506040513d601f19601f8201168201806040525081019061045c9190614075565b90506104688682612d35565b60405163252c221960e11b81526001600160a01b038a81166004830152939850919650945090821690634a58443290602401602060405180830381865afa1580156104b7573d6000803e3d6000fd5b505050506040513d601f19601f820116820180604052508101906104db9190614092565b9150509193509193565b606061055782836001600160a01b031663b0772d0b6040518163ffffffff1660e01b8152600401600060405180830381865afa158015610529573d6000803e3d6000fd5b505050506040513d6000823e601f3d908101601f191682016040526105519190810190613fdc565b33611f5d565b92915050565b600054610100900460ff161580801561057d5750600054600160ff909116105b806105975750303b158015610597575060005460ff166001145b6105ff5760405162461bcd60e51b815260206004820152602e60248201527f496e697469616c697a61626c653a20636f6e747261637420697320616c72656160448201526d191e481a5b9a5d1a585b1a5e995960921b60648201526084015b60405180910390fd5b6000805460ff191660011790558015610622576000805461ff0019166101001790555b6001600160a01b038a166106975760405162461bcd60e51b815260206004820152603660248201527f46757365506f6f6c4469726563746f727920696e7374616e63652063616e6e6f6044820152753a103132903a3432903d32b9379030b2323932b9b99760511b60648201526084016105f6565b855187511480156106a9575084518751145b6107045760405162461bcd60e51b815260206004820152602660248201527f48617264636f64656420616464726573736573206c656e67746873206e6f742060448201526532b8bab0b61760d11b60648201526084016105f6565b82518451148015610716575081518451145b6107745760405162461bcd60e51b815260206004820152602960248201527f556e6973776170204c5020746f6b656e206e616d6573206c656e67746873206e60448201526837ba1032b8bab0b61760b91b60648201526084016105f6565b600580546001600160a01b0319166001600160a01b038c1617905588516107a29060019060208c0190613474565b5087516107b69060029060208b0190613474565b5060005b87518110156108945760405180604001604052808883815181106107e0576107e06140ab565b602002602001015181526020018783815181106107ff576107ff6140ab565b6020026020010151815250600360008a8481518110610820576108206140ab565b60200260200101516001600160a01b03166001600160a01b031681526020019081526020016000206000820151816000019080519060200190610864929190613474565b50602082810151805161087d9260018501920190613474565b50905050808061088c906140d7565b9150506107ba565b5060005b845181101561098357600460405180606001604052808784815181106108c0576108c06140ab565b602002602001015181526020018684815181106108df576108df6140ab565b602002602001015181526020018584815181106108fe576108fe6140ab565b6020908102919091018101519091528254600181018455600093845292819020825180519394600302909101926109389284920190613474565b5060208281015180516109519260018501920190613474565b506040820151805161096d916002840191602090910190613474565b505050808061097b906140d7565b915050610898565b5080156109ca576000805461ff0019169055604051600181527f7f26b83ff96e1f2b6a682f133852f6798a09c465da95921460cefb38474024989060200160405180910390a15b50505050505050505050565b6005546040516351f6c8e360e11b81526001600160a01b03838116600483015260609283928392839260009283929091169063a3ed91c6906024015b600060405180830381865afa158015610a2f573d6000803e3d6000fd5b505050506040513d6000823e601f3d908101601f19168201604052610a57919081019061422c565b91509150600080610a6783613018565b949a9399509750929550909350505050565b60008060608060008060009050600080886001600160a01b031663b0772d0b6040518163ffffffff1660e01b8152600401600060405180830381865afa158015610ac7573d6000803e3d6000fd5b505050506040513d6000823e601f3d908101601f19168201604052610aef9190810190613fdc565b9050600081516001600160401b03811115610b0c57610b0c61394e565b604051908082528060200260200182016040528015610b35578160200160208202803683370190505b509050600082516001600160401b03811115610b5357610b5361394e565b604051908082528060200260200182016040528015610b8657816020015b6060815260200190600190039081610b715790505b50905060008b6001600160a01b0316637dc0d1d06040518163ffffffff1660e01b8152600401602060405180830381865afa158015610bc9573d6000803e3d6000fd5b505050506040513d601f19601f82011682018060405250810190610bed9190614075565b905060005b84518110156111ba576000858281518110610c0f57610c0f6140ab565b6020026020010151905060008e6001600160a01b0316638e8f294b836040518263ffffffff1660e01b8152600401610c5691906001600160a01b0391909116815260200190565b6040805180830381865afa158015610c72573d6000803e3d6000fd5b505050506040513d601f19601f82011682018060405250810190610c9691906142f2565b50905080610ca55750506111a8565b6000826001600160a01b03166373acee986040518163ffffffff1660e01b81526004016020604051808303816000875af1158015610ce7573d6000803e3d6000fd5b505050506040513d601f19601f82011682018060405250810190610d0b9190614092565b90506000836001600160a01b031663dc028ab16040518163ffffffff1660e01b8152600401602060405180830381865afa158015610d4d573d6000803e3d6000fd5b505050506040513d601f19601f82011682018060405250810190610d719190614092565b846001600160a01b03166361feacff6040518163ffffffff1660e01b8152600401602060405180830381865afa158015610daf573d6000803e3d6000fd5b505050506040513d601f19601f82011682018060405250810190610dd39190614092565b856001600160a01b0316638f840ddd6040518163ffffffff1660e01b8152600401602060405180830381865afa158015610e11573d6000803e3d6000fd5b505050506040513d601f19601f82011682018060405250810190610e359190614092565b610e3f9190614320565b610e499190614320565b82856001600160a01b0316633b1d21a26040518163ffffffff1660e01b8152600401602060405180830381865afa158015610e88573d6000803e3d6000fd5b505050506040513d601f19601f82011682018060405250810190610eac9190614092565b610eb69190614320565b610ec09190614338565b60405163fc57d4df60e01b81526001600160a01b03868116600483015291925060009188169063fc57d4df90602401602060405180830381865afa158015610f0c573d6000803e3d6000fd5b505050506040513d601f19601f82011682018060405250810190610f309190614092565b9050670de0b6b3a7640000610f45828561434f565b610f4f919061436e565b610f59908d614320565b9b50670de0b6b3a7640000610f6e828461434f565b610f78919061436e565b610f82908c614320565b9a50846001600160a01b031663ac784ddc6040518163ffffffff1660e01b8152600401602060405180830381865afa158015610fc2573d6000803e3d6000fd5b505050506040513d601f19601f82011682018060405250810190610fe69190614390565b156110cc576000898781518110610fff57610fff6140ab565b60200260200101906001600160a01b031690816001600160a01b0316815250506002805461102c90613fa1565b80601f016020809104026020016040519081016040528092919081815260200182805461105890613fa1565b80156110a55780601f1061107a576101008083540402835291602001916110a5565b820191906000526020600020905b81548152906001019060200180831161108857829003601f168201915b50505050508887815181106110bc576110bc6140ab565b60200260200101819052506111a2565b846001600160a01b0316636f307dc36040518163ffffffff1660e01b8152600401602060405180830381865afa15801561110a573d6000803e3d6000fd5b505050506040513d601f19601f8201168201806040525081019061112e9190614075565b898781518110611140576111406140ab565b60200260200101906001600160a01b031690816001600160a01b031681525050611182898781518110611175576111756140ab565b602002602001015161321f565b9050888781518110611196576111966140ab565b60200260200101819052505b50505050505b806111b2816140d7565b915050610bf2565b506000600560009054906101000a90046001600160a01b03166001600160a01b03166343e20a1d8e6001600160a01b031663f851a4406040518163ffffffff1660e01b8152600401602060405180830381865afa15801561121f573d6000803e3d6000fd5b505050506040513d601f19601f820116820180604052508101906112439190614075565b6040516001600160e01b031960e084901b1681526001600160a01b039091166004820152602401602060405180830381865afa158015611287573d6000803e3d6000fd5b505050506040513d601f19601f820116820180604052508101906112ab9190614390565b959d969c50929a5090985092965092945050505050565b606080606080600080610a5787611ad0565b6060806000836001600160a01b031663b0772d0b6040518163ffffffff1660e01b8152600401600060405180830381865afa158015611317573d6000803e3d6000fd5b505050506040513d6000823e601f3d908101601f1916820160405261133f9190810190613fdc565b9050600081516001600160401b0381111561135c5761135c61394e565b604051908082528060200260200182016040528015611385578160200160208202803683370190505b509050600082516001600160401b038111156113a3576113a361394e565b6040519080825280602002602001820160405280156113cc578160200160208202803683370190505b50905060005b83518110156114eb578381815181106113ed576113ed6140ab565b6020026020010151838281518110611407576114076140ab565b60200260200101906001600160a01b031690816001600160a01b031681525050866001600160a01b03166302c3bcbb848381518110611448576114486140ab565b60200260200101516040518263ffffffff1660e01b815260040161147b91906001600160a01b0391909116815260200190565b602060405180830381865afa158015611498573d6000803e3d6000fd5b505050506040513d601f19601f820116820180604052508101906114bc9190614092565b8282815181106114ce576114ce6140ab565b6020908102919091010152806114e3816140d7565b9150506113d2565b50909590945092505050565b600280546102e990613fa1565b60608060606000846001600160a01b031663b0772d0b6040518163ffffffff1660e01b8152600401600060405180830381865afa158015611549573d6000803e3d6000fd5b505050506040513d6000823e601f3d908101601f191682016040526115719190810190613fdc565b9050600081516001600160401b0381111561158e5761158e61394e565b6040519080825280602002602001820160405280156115b7578160200160208202803683370190505b509050600082516001600160401b038111156115d5576115d561394e565b6040519080825280602002602001820160405280156115fe578160200160208202803683370190505b509050600083516001600160401b0381111561161c5761161c61394e565b604051908082528060200260200182016040528015611645578160200160208202803683370190505b50905060005b84518110156118d557848181518110611666576116666140ab565b6020026020010151848281518110611680576116806140ab565b60200260200101906001600160a01b031690816001600160a01b031681525050886001600160a01b03166302c3bcbb8583815181106116c1576116c16140ab565b60200260200101516040518263ffffffff1660e01b81526004016116f491906001600160a01b0391909116815260200190565b602060405180830381865afa158015611711573d6000803e3d6000fd5b505050506040513d601f19601f820116820180604052508101906117359190614092565b838281518110611747576117476140ab565b6020026020010181815250506000858281518110611767576117676140ab565b60200260200101516001600160a01b0316634aeb3d9a6040518163ffffffff1660e01b8152600401602060405180830381865afa1580156117ac573d6000803e3d6000fd5b505050506040513d601f19601f820116820180604052508101906117d09190614092565b905060008a6001600160a01b031663fb6243fa8785815181106117f5576117f56140ab565b60200260200101516040518263ffffffff1660e01b815260040161182891906001600160a01b0391909116815260200190565b602060405180830381865afa158015611845573d6000803e3d6000fd5b505050506040513d601f19601f820116820180604052508101906118699190614092565b9050818110611897576000848481518110611886576118866140ab565b6020026020010181815250506118c0565b6118a18183614338565b8484815181106118b3576118b36140ab565b6020026020010181815250505b505080806118cd906140d7565b91505061164b565b50919790965090945092505050565b60608060606000806000866001600160a01b0316635fe3b5676040518163ffffffff1660e01b8152600401602060405180830381865afa15801561192c573d6000803e3d6000fd5b505050506040513d601f19601f820116820180604052508101906119509190614075565b905061195c8782612d35565b60405163252c221960e11b81526001600160a01b038b81166004830152939950919750955090821690634a58443290602401602060405180830381865afa1580156119ab573d6000803e3d6000fd5b505050506040513d601f19601f820116820180604052508101906119cf9190614092565b92506000876001600160a01b03166347bd37186040518163ffffffff1660e01b8152600401602060405180830381865afa158015611a11573d6000803e3d6000fd5b505050506040513d601f19601f82011682018060405250810190611a359190614092565b604051631d3965af60e11b81526001600160a01b038a81166004830152919250600091841690633a72cb5e90602401602060405180830381865afa158015611a81573d6000803e3d6000fd5b505050506040513d601f19601f82011682018060405250810190611aa59190614092565b9050818110611ab75760009350611ac4565b611ac18183614338565b93505b50505091939590929450565b6060806000600560009054906101000a90046001600160a01b03166001600160a01b0316638ec083546040518163ffffffff1660e01b8152600401600060405180830381865afa158015611b28573d6000803e3d6000fd5b505050506040513d6000823e601f3d908101601f19168201604052611b50919081019061422c565b9150506000805b8251811015611c24576000838281518110611b7457611b746140ab565b6020026020010151604001519050806001600160a01b0316639b19251a886040518263ffffffff1660e01b8152600401611bbd91906001600160a01b0391909116815260200190565b602060405180830381865afa158015611bda573d6000803e3d6000fd5b505050506040513d601f19601f82011682018060405250810190611bfe9190614390565b15611c115782611c0d816140d7565b9350505b5080611c1c816140d7565b915050611b57565b506000816001600160401b03811115611c3f57611c3f61394e565b604051908082528060200260200182016040528015611c68578160200160208202803683370190505b5090506000826001600160401b03811115611c8557611c8561394e565b604051908082528060200260200182016040528015611cfa57816020015b611ce76040518060a001604052806060815260200160006001600160a01b0316815260200160006001600160a01b0316815260200160008152602001600081525090565b815260200190600190039081611ca35790505b5090506000805b8551811015611e2a576000868281518110611d1e57611d1e6140ab565b6020026020010151604001519050806001600160a01b0316639b19251a8b6040518263ffffffff1660e01b8152600401611d6791906001600160a01b0391909116815260200190565b602060405180830381865afa158015611d84573d6000803e3d6000fd5b505050506040513d601f19601f82011682018060405250810190611da89190614390565b15611e175781858481518110611dc057611dc06140ab565b602002602001018181525050868281518110611dde57611dde6140ab565b6020026020010151848481518110611df857611df86140ab565b60200260200101819052508280611e0e906140d7565b93505050611e2a565b5080611e22816140d7565b915050611d01565b509197909650945050505050565b606080606080600080600560009054906101000a90046001600160a01b03166001600160a01b0316634ae26ea16040518163ffffffff1660e01b8152600401600060405180830381865afa158015611e94573d6000803e3d6000fd5b505050506040513d6000823e601f3d908101601f19168201604052611ebc919081019061422c565b91509150600080611ecc83613018565b949993985096509294509092505050565b6005546040516310c51ddf60e11b8152821515600482015260609182918291829160009182916001600160a01b039091169063218a3bbe90602401610a12565b60055460405163f348960d60e01b81526001600160a01b03838116600483015260609283928392839260009283929091169063f348960d90602401610a12565b60606000805b845181101561202c576000866001600160a01b0316638e8f294b878481518110611f8f57611f8f6140ab565b60200260200101516040518263ffffffff1660e01b8152600401611fc291906001600160a01b0391909116815260200190565b6040805180830381865afa158015611fde573d6000803e3d6000fd5b505050506040513d601f19601f8201168201806040525081019061200291906142f2565b50905080156120195782612015816140d7565b9350505b5080612024816140d7565b915050611f63565b506000816001600160401b038111156120475761204761394e565b60405190808252806020026020018201604052801561208057816020015b61206d6134f8565b8152602001906001900390816120655790505b509050600080876001600160a01b0316637dc0d1d06040518163ffffffff1660e01b8152600401602060405180830381865afa1580156120c4573d6000803e3d6000fd5b505050506040513d601f19601f820116820180604052508101906120e89190614075565b905060005b8751811015612d28576000808a6001600160a01b0316638e8f294b8b858151811061211a5761211a6140ab565b60200260200101516040518263ffffffff1660e01b815260040161214d91906001600160a01b0391909116815260200190565b6040805180830381865afa158015612169573d6000803e3d6000fd5b505050506040513d601f19601f8201168201806040525081019061218d91906142f2565b915091508161219d575050612d16565b6121a56134f8565b60008b85815181106121b9576121b96140ab565b6020908102919091018101516001600160a01b03811680855260408051632b1e137760e21b81529051929450909263ac784ddc926004808401938290030181865afa15801561220c573d6000803e3d6000fd5b505050506040513d601f19601f820116820180604052508101906122309190614390565b15612374576001805461224290613fa1565b80601f016020809104026020016040519081016040528092919081815260200182805461226e90613fa1565b80156122bb5780601f10612290576101008083540402835291602001916122bb565b820191906000526020600020905b81548152906001019060200180831161229e57829003601f168201915b50505050508260400181905250600280546122d590613fa1565b80601f016020809104026020016040519081016040528092919081815260200182805461230190613fa1565b801561234e5780601f106123235761010080835404028352916020019161234e565b820191906000526020600020905b81548152906001019060200180831161233157829003601f168201915b50505050506060830152601260808301526001600160a01b038b163160a08301526124da565b806001600160a01b0316636f307dc36040518163ffffffff1660e01b8152600401602060405180830381865afa1580156123b2573d6000803e3d6000fd5b505050506040513d601f19601f820116820180604052508101906123d69190614075565b6001600160a01b0316602083018190526123ef8161321f565b84604001856060018290528290525050806001600160a01b031663313ce5676040518163ffffffff1660e01b8152600401602060405180830381865afa15801561243d573d6000803e3d6000fd5b505050506040513d601f19601f8201168201806040525081019061246191906143ad565b60ff1660808401526040516370a0823160e01b81526001600160a01b038d811660048301528216906370a0823190602401602060405180830381865afa1580156124af573d6000803e3d6000fd5b505050506040513d601f19601f820116820180604052508101906124d39190614092565b60a0840152505b806001600160a01b031663ae9d70b06040518163ffffffff1660e01b8152600401602060405180830381865afa158015612518573d6000803e3d6000fd5b505050506040513d601f19601f8201168201806040525081019061253c9190614092565b8260c0018181525050806001600160a01b031663f8f9da286040518163ffffffff1660e01b8152600401602060405180830381865afa158015612583573d6000803e3d6000fd5b505050506040513d601f19601f820116820180604052508101906125a79190614092565b8260e0018181525050806001600160a01b0316633b1d21a26040518163ffffffff1660e01b8152600401602060405180830381865afa1580156125ee573d6000803e3d6000fd5b505050506040513d601f19601f820116820180604052508101906126129190614092565b82610180018181525050806001600160a01b03166373acee986040518163ffffffff1660e01b81526004016020604051808303816000875af115801561265c573d6000803e3d6000fd5b505050506040513d601f19601f820116820180604052508101906126809190614092565b82610120018181525050806001600160a01b031663dc028ab16040518163ffffffff1660e01b8152600401602060405180830381865afa1580156126c8573d6000803e3d6000fd5b505050506040513d601f19601f820116820180604052508101906126ec9190614092565b816001600160a01b03166361feacff6040518163ffffffff1660e01b8152600401602060405180830381865afa15801561272a573d6000803e3d6000fd5b505050506040513d601f19601f8201168201806040525081019061274e9190614092565b826001600160a01b0316638f840ddd6040518163ffffffff1660e01b8152600401602060405180830381865afa15801561278c573d6000803e3d6000fd5b505050506040513d601f19601f820116820180604052508101906127b09190614092565b6127ba9190614320565b6127c49190614320565b8261012001518361018001516127da9190614320565b6127e49190614338565b610100830152604051633af9e66960e01b81526001600160a01b038c81166004830152821690633af9e669906024016020604051808303816000875af1158015612832573d6000803e3d6000fd5b505050506040513d601f19601f820116820180604052508101906128569190614092565b6101408301526040516395dd919360e01b81526001600160a01b038c811660048301528216906395dd919390602401602060405180830381865afa1580156128a2573d6000803e3d6000fd5b505050506040513d601f19601f820116820180604052508101906128c69190614092565b61016083015260405163929fe9a160e01b81526001600160a01b038c8116600483015282811660248301528e169063929fe9a190604401602060405180830381865afa15801561291a573d6000803e3d6000fd5b505050506040513d601f19601f8201168201806040525081019061293e9190614390565b15156101a08301526040805163182df0f560e01b815290516001600160a01b0383169163182df0f59160048083019260209291908290030181865afa15801561298b573d6000803e3d6000fd5b505050506040513d601f19601f820116820180604052508101906129af9190614092565b6101c083015260208201516040516315d5220f60e31b81526001600160a01b0391821660048201529087169063aea9107890602401602060405180830381865afa158015612a01573d6000803e3d6000fd5b505050506040513d601f19601f82011682018060405250810190612a259190614092565b6101e08301526001600160a01b038681166102008401819052602084015160405163addd509960e01b8152921660048301529063addd509990602401602060405180830381865afa925050508015612a9a575060408051601f3d908101601f19168201909252612a9791810190614075565b60015b612aa357612ab3565b6001600160a01b03166102008301525b8282610220018181525050806001600160a01b031663173b99046040518163ffffffff1660e01b8152600401602060405180830381865afa158015612afc573d6000803e3d6000fd5b505050506040513d601f19601f82011682018060405250810190612b209190614092565b82610240018181525050806001600160a01b0316638d02d9a16040518163ffffffff1660e01b8152600401602060405180830381865afa158015612b68573d6000803e3d6000fd5b505050506040513d601f19601f82011682018060405250810190612b8c9190614092565b82610260018181525050806001600160a01b031663dbfe7c196040518163ffffffff1660e01b8152600401602060405180830381865afa158015612bd4573d6000803e3d6000fd5b505050506040513d601f19601f82011682018060405250810190612bf89190614092565b610280830152604051636d154ea560e01b81526001600160a01b0382811660048301528e1690636d154ea590602401602060405180830381865afa158015612c44573d6000803e3d6000fd5b505050506040513d601f19601f82011682018060405250810190612c689190614390565b15156102a083015260405163731f0c2b60e01b81526001600160a01b0382811660048301528e169063731f0c2b90602401602060405180830381865afa158015612cb6573d6000803e3d6000fd5b505050506040513d601f19601f82011682018060405250810190612cda9190614390565b15156102c083015287518290899089908110612cf857612cf86140ab565b60200260200101819052508680612d0e906140d7565b975050505050505b80612d20816140d7565b9150506120ed565b5091979650505050505050565b60608060606000846001600160a01b031663b0772d0b6040518163ffffffff1660e01b8152600401600060405180830381865afa158015612d7a573d6000803e3d6000fd5b505050506040513d6000823e601f3d908101601f19168201604052612da29190810190613fdc565b905080516001600160401b03811115612dbd57612dbd61394e565b604051908082528060200260200182016040528015612de6578160200160208202803683370190505b50935080516001600160401b03811115612e0257612e0261394e565b604051908082528060200260200182016040528015612e2b578160200160208202803683370190505b50925080516001600160401b03811115612e4757612e4761394e565b604051908082528060200260200182016040528015612e70578160200160208202803683370190505b50915060005b815181101561300f576000828281518110612e9357612e936140ab565b60200260200101519050876001600160a01b0316816001600160a01b031614612ffc5780868381518110612ec957612ec96140ab565b6001600160a01b03928316602091820292909201015260405163940cd6f160e01b8152898216600482015282821660248201529088169063940cd6f190604401602060405180830381865afa158015612f26573d6000803e3d6000fd5b505050506040513d601f19601f82011682018060405250810190612f4a9190614092565b858381518110612f5c57612f5c6140ab565b6020908102919091010152604051631c819e4360e01b81526001600160a01b0389811660048301528281166024830152881690631c819e4390604401602060405180830381865afa158015612fb5573d6000803e3d6000fd5b505050506040513d601f19601f82011682018060405250810190612fd99190614390565b848381518110612feb57612feb6140ab565b911515602092830291909101909101525b5080613007816140d7565b915050612e76565b50509250925092565b606080600083516001600160401b038111156130365761303661394e565b60405190808252806020026020018201604052801561309b57816020015b6130886040518060a00160405280600081526020016000815260200160608152602001606081526020016000151581525090565b8152602001906001900390816130545790505b509050600084516001600160401b038111156130b9576130b961394e565b6040519080825280602002602001820160405280156130e2578160200160208202803683370190505b50905060005b855181101561321457306001600160a01b03166359d2fea6878381518110613112576131126140ab565b6020026020010151604001516040518263ffffffff1660e01b815260040161314991906001600160a01b0391909116815260200190565b6000604051808303816000875af192505050801561318957506040513d6000823e601f3d908101601f19168201604052613186919081019061444f565b60015b6131b65760018282815181106131a1576131a16140ab565b91151560209283029190910190910152613202565b6040518060a001604052808681526020018581526020018481526020018381526020018215158152508887815181106131f1576131f16140ab565b602002602001018190525050505050505b8061320c816140d7565b9150506130e8565b509094909350915050565b6001600160a01b03811660009081526003602052604090206001018054606091829161324a90613fa1565b159050613390576001600160a01b038316600090815260036020526040902080546001820190829061327b90613fa1565b80601f01602080910402602001604051908101604052809291908181526020018280546132a790613fa1565b80156132f45780601f106132c9576101008083540402835291602001916132f4565b820191906000526020600020905b8154815290600101906020018083116132d757829003601f168201915b5050505050915080805461330790613fa1565b80601f016020809104026020016040519081016040528092919081815260200182805461333390613fa1565b80156133805780601f1061335557610100808354040283529160200191613380565b820191906000526020600020905b81548152906001019060200180831161336357829003601f168201915b5050505050905091509150915091565b60008390506000816001600160a01b03166306fdde036040518163ffffffff1660e01b8152600401600060405180830381865afa1580156133d5573d6000803e3d6000fd5b505050506040513d6000823e601f3d908101601f191682016040526133fd9190810190614537565b90506000826001600160a01b03166395d89b416040518163ffffffff1660e01b8152600401600060405180830381865afa15801561343f573d6000803e3d6000fd5b505050506040513d6000823e601f3d908101601f191682016040526134679190810190614537565b9196919550909350505050565b82805461348090613fa1565b90600052602060002090601f0160209004810192826134a257600085556134e8565b82601f106134bb57805160ff19168380011785556134e8565b828001600101855582156134e8579182015b828111156134e85782518255916020019190600101906134cd565b506134f49291506135c7565b5090565b604051806102e0016040528060006001600160a01b0316815260200160006001600160a01b031681526020016060815260200160608152602001600081526020016000815260200160008152602001600081526020016000815260200160008152602001600081526020016000815260200160008152602001600015158152602001600081526020016000815260200160006001600160a01b03168152602001600081526020016000815260200160008152602001600081526020016000151581526020016000151581525090565b5b808211156134f457600081556001016135c8565b60005b838110156135f75781810151838201526020016135df565b83811115613606576000848401525b50505050565b600081518084526136248160208601602086016135dc565b601f01601f19169290920160200192915050565b60208152600061364b602083018461360c565b9392505050565b6001600160a01b038116811461366757600080fd5b50565b6000806040838503121561367d57600080fd5b823561368881613652565b9150602083013561369881613652565b809150509250929050565b60006020808301818452808551808352604092508286019150828160051b87010184880160005b8381101561382257888303603f19018552815180516001600160a01b031684526102e0818901516001600160a01b038116868b0152508782015181898701526137158287018261360c565b9150506060808301518683038288015261372f838261360c565b6080858101519089015260a0808601519089015260c0808601519089015260e08086015190890152610100808601519089015261012080860151908901526101408086015190890152610160808601519089015261018080860151908901526101a0808601511515908901526101c080860151908901526101e08086015190890152610200808601516001600160a01b03169089015261022080860151908901526102408086015190890152610260808601519089015261028080860151908901526102a0808601511515908901526102c0948501511515949097019390935250505093860193908601906001016136ca565b509098975050505050505050565b60006020828403121561384257600080fd5b813561364b81613652565b600081518084526020808501945080840160005b838110156138865781516001600160a01b031687529582019590820190600101613861565b509495945050505050565b600081518084526020808501945080840160005b83811015613886578151875295820195908201906001016138a5565b600081518084526020808501945080840160005b838110156138865781511515875295820195908201906001016138d5565b608081526000613906608083018761384d565b82810360208401526139188187613891565b9050828103604084015261392c81866138c1565b91505082606083015295945050505050565b803561394981613652565b919050565b634e487b7160e01b600052604160045260246000fd5b60405160a081016001600160401b03811182821017156139865761398661394e565b60405290565b604051601f8201601f191681016001600160401b03811182821017156139b4576139b461394e565b604052919050565b60006001600160401b038211156139d5576139d561394e565b50601f01601f191660200190565b600082601f8301126139f457600080fd5b8135613a07613a02826139bc565b61398c565b818152846020838601011115613a1c57600080fd5b816020850160208301376000918101602001919091529392505050565b60006001600160401b03821115613a5257613a5261394e565b5060051b60200190565b600082601f830112613a6d57600080fd5b81356020613a7d613a0283613a39565b82815260059290921b84018101918181019086841115613a9c57600080fd5b8286015b84811015613ac0578035613ab381613652565b8352918301918301613aa0565b509695505050505050565b600082601f830112613adc57600080fd5b81356020613aec613a0283613a39565b82815260059290921b84018101918181019086841115613b0b57600080fd5b8286015b84811015613ac05780356001600160401b03811115613b2e5760008081fd5b613b3c8986838b01016139e3565b845250918301918301613b0f565b60008060008060008060008060006101208a8c031215613b6957600080fd5b613b728a61393e565b985060208a01356001600160401b0380821115613b8e57600080fd5b613b9a8d838e016139e3565b995060408c0135915080821115613bb057600080fd5b613bbc8d838e016139e3565b985060608c0135915080821115613bd257600080fd5b613bde8d838e01613a5c565b975060808c0135915080821115613bf457600080fd5b613c008d838e01613acb565b965060a08c0135915080821115613c1657600080fd5b613c228d838e01613acb565b955060c08c0135915080821115613c3857600080fd5b613c448d838e01613acb565b945060e08c0135915080821115613c5a57600080fd5b613c668d838e01613acb565b93506101008c0135915080821115613c7d57600080fd5b50613c8a8c828d01613acb565b9150509295985092959850929598565b600081518084526020808501808196508360051b8101915082860160005b85811015612d28578284038952815160a08151818752613cda8288018261360c565b838901516001600160a01b03908116898b01526040808601519091169089015260608085015190890152608093840151939097019290925250509784019790840190600101613cb8565b600081518084526020808501808196508360051b8101915082860160005b85811015612d28578284038952613d5a84835161360c565b98850198935090840190600101613d42565b60006080808352613d7f81840188613891565b602084820381860152613d928289613c9a565b91506040858303818701528288518085528385019150838160051b860101848b0160005b83811015613e2757601f19888403018552815160a0815185528882015189860152878201518189870152613dec8287018261384d565b91505060608083015186830382880152613e068382613d24565b938d01511515968d0196909652505094870194925090860190600101613db6565b505088810360608a0152613e3b818b6138c1565b9d9c50505050505050505050505050565b85815284602082015260a060408201526000613e6b60a083018661384d565b8281036060840152613e7d8186613d24565b91505082151560808301529695505050505050565b604081526000613ea5604083018561384d565b8281036020840152613eb78185613891565b95945050505050565b606081526000613ed3606083018661384d565b8281036020840152613ee58186613891565b90508281036040840152613ef98185613891565b9695505050505050565b60a081526000613f1660a083018861384d565b8281036020840152613f288188613891565b90508281036040840152613f3c81876138c1565b60608401959095525050608001529392505050565b604081526000613f646040830185613891565b8281036020840152613eb78185613c9a565b801515811461366757600080fd5b600060208284031215613f9657600080fd5b813561364b81613f76565b600181811c90821680613fb557607f821691505b60208210811415613fd657634e487b7160e01b600052602260045260246000fd5b50919050565b60006020808385031215613fef57600080fd5b82516001600160401b0381111561400557600080fd5b8301601f8101851361401657600080fd5b8051614024613a0282613a39565b81815260059190911b8201830190838101908783111561404357600080fd5b928401925b8284101561406a57835161405b81613652565b82529284019290840190614048565b979650505050505050565b60006020828403121561408757600080fd5b815161364b81613652565b6000602082840312156140a457600080fd5b5051919050565b634e487b7160e01b600052603260045260246000fd5b634e487b7160e01b600052601160045260246000fd5b60006000198214156140eb576140eb6140c1565b5060010190565b600082601f83011261410357600080fd5b8151614111613a02826139bc565b81815284602083860101111561412657600080fd5b6103ea8260208301602087016135dc565b600082601f83011261414857600080fd5b81516020614158613a0283613a39565b82815260059290921b8401810191818101908684111561417757600080fd5b8286015b84811015613ac05780516001600160401b038082111561419b5760008081fd5b9088019060a0828b03601f19018113156141b55760008081fd5b6141bd613964565b87840151838111156141cf5760008081fd5b6141dd8d8a838801016140f2565b82525060409250828401516141f181613652565b8189015260608481015161420481613652565b938201939093526080848101519382019390935292015190820152835291830191830161417b565b6000806040838503121561423f57600080fd5b82516001600160401b038082111561425657600080fd5b818501915085601f83011261426a57600080fd5b8151602061427a613a0283613a39565b82815260059290921b8401810191818101908984111561429957600080fd5b948201945b838610156142b75785518252948201949082019061429e565b918801519196509093505050808211156142d057600080fd5b506142dd85828601614137565b9150509250929050565b805161394981613f76565b6000806040838503121561430557600080fd5b825161431081613f76565b6020939093015192949293505050565b60008219821115614333576143336140c1565b500190565b60008282101561434a5761434a6140c1565b500390565b6000816000190483118215151615614369576143696140c1565b500290565b60008261438b57634e487b7160e01b600052601260045260246000fd5b500490565b6000602082840312156143a257600080fd5b815161364b81613f76565b6000602082840312156143bf57600080fd5b815160ff8116811461364b57600080fd5b600082601f8301126143e157600080fd5b815160206143f1613a0283613a39565b82815260059290921b8401810191818101908684111561441057600080fd5b8286015b84811015613ac05780516001600160401b038111156144335760008081fd5b6144418986838b01016140f2565b845250918301918301614414565b600080600080600060a0868803121561446757600080fd5b85519450602080870151945060408701516001600160401b038082111561448d57600080fd5b818901915089601f8301126144a157600080fd5b81516144af613a0282613a39565b81815260059190911b8301840190848101908c8311156144ce57600080fd5b938501935b828510156144f55784516144e681613652565b825293850193908501906144d3565b60608c0151909850945050508083111561450e57600080fd5b505061451c888289016143d0565b92505061452b608087016142e7565b90509295509295909350565b60006020828403121561454957600080fd5b81516001600160401b0381111561455f57600080fd5b6103ea848285016140f256fea164736f6c634300080a000a",
    "linkReferences": {}
  },
  "methodIdentifiers": {
    "directory()": "c41c2f24",
    "getBorrowCapsDataForAsset(address)": "a505596a",
    "getBorrowCapsForAsset(address)": "1568683a",
    "getPoolAssetsByUser(address,address)": "0c5eb5a4",
    "getPoolAssetsWithData(address)": "27e16c1f",
    "getPoolSummary(address)": "59d2fea6",
    "getPoolsByAccountWithData(address)": "51678684",
    "getPoolsOfUserWithData(address)": "e0581140",
    "getPublicPoolsByVerificationWithData(bool)": "d64996e5",
    "getPublicPoolsWithData()": "d0a164fb",
    "getSupplyCapsDataForPool(address)": "a0795487",
    "getSupplyCapsForPool(address)": "798b9780",
    "getWhitelistedPoolsByAccount(address)": "c3530a63",
    "getWhitelistedPoolsByAccountWithData(address)": "70733375",
    "initialize(address,string,string,address[],string[],string[],string[],string[],string[])": "3a1eb656",
    "name()": "06fdde03",
    "symbol()": "95d89b41"
  }
}