{
  "address": "0x2e938643208099649c2007F7571EA6F55e4A9e2a",
  "abi": [
    {
      "anonymous": false,
      "inputs": [
        {
          "indexed": false,
          "internalType": "uint8",
          "name": "version",
          "type": "uint8"
        }
      ],
      "name": "Initialized",
      "type": "event"
    },
    {
      "inputs": [],
      "name": "directory",
      "outputs": [
        {
          "internalType": "contract FusePoolDirectory",
          "name": "",
          "type": "address"
        }
      ],
      "stateMutability": "view",
      "type": "function"
    },
    {
      "inputs": [
        {
          "internalType": "address",
          "name": "account",
          "type": "address"
        },
        {
          "internalType": "contract ICToken",
          "name": "cTokenModify",
          "type": "address"
        }
      ],
      "name": "getMaxBorrow",
      "outputs": [
        {
          "internalType": "uint256",
          "name": "",
          "type": "uint256"
        }
      ],
      "stateMutability": "nonpayable",
      "type": "function"
    },
    {
      "inputs": [
        {
          "internalType": "address",
          "name": "account",
          "type": "address"
        },
        {
          "internalType": "contract ICToken",
          "name": "cTokenModify",
          "type": "address"
        }
      ],
      "name": "getMaxRedeem",
      "outputs": [
        {
          "internalType": "uint256",
          "name": "",
          "type": "uint256"
        }
      ],
      "stateMutability": "nonpayable",
      "type": "function"
    },
    {
      "inputs": [
        {
          "internalType": "contract IComptroller",
          "name": "comptroller",
          "type": "address"
        }
      ],
      "name": "getPoolOwnership",
      "outputs": [
        {
          "internalType": "address",
          "name": "",
          "type": "address"
        },
        {
          "internalType": "bool",
          "name": "",
          "type": "bool"
        },
        {
          "internalType": "bool",
          "name": "",
          "type": "bool"
        },
        {
          "components": [
            {
              "internalType": "address",
              "name": "cToken",
              "type": "address"
            },
            {
              "internalType": "address",
              "name": "admin",
              "type": "address"
            },
            {
              "internalType": "bool",
              "name": "adminHasRights",
              "type": "bool"
            },
            {
              "internalType": "bool",
              "name": "fuseAdminHasRights",
              "type": "bool"
            }
          ],
          "internalType": "struct FusePoolLensSecondary.CTokenOwnership[]",
          "name": "",
          "type": "tuple[]"
        }
      ],
      "stateMutability": "view",
      "type": "function"
    },
    {
      "inputs": [
        {
          "internalType": "contract IComptroller",
          "name": "comptroller",
          "type": "address"
        }
      ],
      "name": "getRewardSpeedsByPool",
      "outputs": [
        {
          "internalType": "contract ICToken[]",
          "name": "",
          "type": "address[]"
        },
        {
          "internalType": "contract IRewardsDistributor[]",
          "name": "",
          "type": "address[]"
        },
        {
          "internalType": "address[]",
          "name": "",
          "type": "address[]"
        },
        {
          "internalType": "uint256[][]",
          "name": "",
          "type": "uint256[][]"
        },
        {
          "internalType": "uint256[][]",
          "name": "",
          "type": "uint256[][]"
        }
      ],
      "stateMutability": "view",
      "type": "function"
    },
    {
      "inputs": [
        {
          "internalType": "contract IComptroller[]",
          "name": "comptrollers",
          "type": "address[]"
        }
      ],
      "name": "getRewardSpeedsByPools",
      "outputs": [
        {
          "internalType": "contract ICToken[][]",
          "name": "",
          "type": "address[][]"
        },
        {
          "internalType": "contract IRewardsDistributor[][]",
          "name": "",
          "type": "address[][]"
        },
        {
          "internalType": "address[][]",
          "name": "",
          "type": "address[][]"
        },
        {
          "internalType": "uint256[][][]",
          "name": "",
          "type": "uint256[][][]"
        },
        {
          "internalType": "uint256[][][]",
          "name": "",
          "type": "uint256[][][]"
        }
      ],
      "stateMutability": "view",
      "type": "function"
    },
    {
      "inputs": [
        {
          "internalType": "address",
          "name": "supplier",
          "type": "address"
        }
      ],
      "name": "getRewardsDistributorsBySupplier",
      "outputs": [
        {
          "internalType": "uint256[]",
          "name": "",
          "type": "uint256[]"
        },
        {
          "internalType": "contract IComptroller[]",
          "name": "",
          "type": "address[]"
        },
        {
          "internalType": "contract IRewardsDistributor[][]",
          "name": "",
          "type": "address[][]"
        }
      ],
      "stateMutability": "view",
      "type": "function"
    },
    {
      "inputs": [
        {
          "internalType": "address",
          "name": "holder",
          "type": "address"
        },
        {
          "internalType": "contract IRewardsDistributor[]",
          "name": "distributors",
          "type": "address[]"
        }
      ],
      "name": "getUnclaimedRewardsByDistributors",
      "outputs": [
        {
          "internalType": "address[]",
          "name": "",
          "type": "address[]"
        },
        {
          "internalType": "uint256[]",
          "name": "",
          "type": "uint256[]"
        },
        {
          "internalType": "contract ICToken[][]",
          "name": "",
          "type": "address[][]"
        },
        {
          "internalType": "uint256[2][][]",
          "name": "",
          "type": "uint256[2][][]"
        },
        {
          "internalType": "uint256[]",
          "name": "",
          "type": "uint256[]"
        }
      ],
      "stateMutability": "nonpayable",
      "type": "function"
    },
    {
      "inputs": [
        {
          "internalType": "contract FusePoolDirectory",
          "name": "_directory",
          "type": "address"
        }
      ],
      "name": "initialize",
      "outputs": [],
      "stateMutability": "nonpayable",
      "type": "function"
    }
  ],
  "transactionHash": "0x460bd8c269552248dd2e1f88e9c86e67ebdb38c868c1ccc4fc2b4100f2af0814",
  "args": [],
  "numDeployments": 8,
  "bytecode": {
    "object": "0x608060405234801561001057600080fd5b50612f40806100206000396000f3fe608060405234801561001057600080fd5b50600436106100935760003560e01c806384b3403d1161006657806384b3403d1461011957806397f35ff01461013d578063c41c2f2414610160578063c4d66de814610191578063d24eaf13146101a657600080fd5b80631ec18ec014610098578063338038fa146100be5780633fc5fab5146100e25780636412904214610106575b600080fd5b6100ab6100a6366004612405565b6101c8565b6040519081526020015b60405180910390f35b6100d16100cc3660046124cf565b6101dd565b6040516100b595949392919061264b565b6100f56100f0366004612744565b610786565b6040516100b59594939291906128a1565b6100ab610114366004612405565b610a08565b61012c610127366004612980565b610a16565b6040516100b595949392919061299d565b61015061014b366004612980565b610f33565b6040516100b594939291906129fe565b600054610179906201000090046001600160a01b031681565b6040516001600160a01b0390911681526020016100b5565b6101a461019f366004612980565b61163b565b005b6101b96101b4366004612980565b6117e1565b6040516100b593929190612a8e565b60006101d683836001611bcf565b9392505050565b6060806060806060600086516001600160401b038111156102005761020061243e565b604051908082528060200260200182016040528015610229578160200160208202803683370190505b509050600087516001600160401b038111156102475761024761243e565b604051908082528060200260200182016040528015610270578160200160208202803683370190505b509050600088516001600160401b0381111561028e5761028e61243e565b6040519080825280602002602001820160405280156102c157816020015b60608152602001906001900390816102ac5790505b509050600089516001600160401b038111156102df576102df61243e565b60405190808252806020026020018201604052801561031257816020015b60608152602001906001900390816102fd5790505b50905060008a516001600160401b038111156103305761033061243e565b604051908082528060200260200182016040528015610359578160200160208202803683370190505b50905060005b8b518110156107725760008c828151811061037c5761037c612af5565b60200260200101519050806001600160a01b031663f7c618c16040518163ffffffff1660e01b8152600401602060405180830381865afa1580156103c4573d6000803e3d6000fd5b505050506040513d601f19601f820116820180604052508101906103e89190612b1b565b8783815181106103fa576103fa612af5565b60200260200101906001600160a01b031690816001600160a01b031681525050806001600160a01b031663b0772d0b6040518163ffffffff1660e01b8152600401600060405180830381865afa158015610458573d6000803e3d6000fd5b505050506040513d6000823e601f3d908101601f191682016040526104809190810190612b38565b85838151811061049257610492612af5565b60200260200101819052508482815181106104af576104af612af5565b6020026020010151516001600160401b038111156104cf576104cf61243e565b60405190808252806020026020018201604052801561050857816020015b6104f56123cf565b8152602001906001900390816104ed5790505b5084838151811061051b5761051b612af5565b602002602001018190525060005b85838151811061053b5761053b612af5565b602002602001015151811015610631576105888f8388868151811061056257610562612af5565b6020026020010151848151811061057b5761057b612af5565b6020026020010151611ed4565b86858151811061059a5761059a612af5565b602002602001015183815181106105b3576105b3612af5565b60200260200101516000600281106105cd576105cd612af5565b602002018786815181106105e3576105e3612af5565b602002602001015184815181106105fc576105fc612af5565b602002602001015160016002811061061657610616612af5565b6020020191909152528061062981612bdc565b915050610529565b5060405163331faf7160e21b81526001600160a01b038f8116600483015282169063cc7ebdc490602401602060405180830381865afa158015610678573d6000803e3d6000fd5b505050506040513d601f19601f8201168201806040525081019061069c9190612bf7565b8683815181106106ae576106ae612af5565b6020026020010181815250508682815181106106cc576106cc612af5565b60209081029190910101516040516370a0823160e01b81526001600160a01b038381166004830152909116906370a0823190602401602060405180830381865afa15801561071e573d6000803e3d6000fd5b505050506040513d601f19601f820116820180604052508101906107429190612bf7565b83838151811061075457610754612af5565b6020908102919091010152508061076a81612bdc565b91505061035f565b50939b929a50909850965090945092505050565b6060806060806060600086516001600160401b038111156107a9576107a961243e565b6040519080825280602002602001820160405280156107dc57816020015b60608152602001906001900390816107c75790505b509050600087516001600160401b038111156107fa576107fa61243e565b60405190808252806020026020018201604052801561082d57816020015b60608152602001906001900390816108185790505b509050600088516001600160401b0381111561084b5761084b61243e565b60405190808252806020026020018201604052801561087e57816020015b60608152602001906001900390816108695790505b509050600089516001600160401b0381111561089c5761089c61243e565b6040519080825280602002602001820160405280156108cf57816020015b60608152602001906001900390816108ba5790505b50905060008a516001600160401b038111156108ed576108ed61243e565b60405190808252806020026020018201604052801561092057816020015b606081526020019060019003908161090b5790505b50905060005b8b518110156109f5576109518c828151811061094457610944612af5565b6020026020010151610a16565b8a868151811061096357610963612af5565b602002602001018a878151811061097c5761097c612af5565b602002602001018a888151811061099557610995612af5565b602002602001018a89815181106109ae576109ae612af5565b602002602001018a8a815181106109c7576109c7612af5565b60200260200101859052859052859052859052859052505050505080806109ed90612bdc565b915050610926565b50939a9299509097509550909350915050565b60006101d683836000611bcf565b60608060608060606000866001600160a01b031663b0772d0b6040518163ffffffff1660e01b8152600401600060405180830381865afa158015610a5e573d6000803e3d6000fd5b505050506040513d6000823e601f3d908101601f19168201604052610a869190810190612b38565b90506060876001600160a01b0316633605b51b6040518163ffffffff1660e01b8152600401600060405180830381865afa925050508015610ae957506040513d6000823e601f3d908101601f19168201604052610ae69190810190612c10565b60015b610b025750604080516000815260208101909152610b05565b90505b600081516001600160401b03811115610b2057610b2061243e565b604051908082528060200260200182016040528015610b49578160200160208202803683370190505b509050600083516001600160401b03811115610b6757610b6761243e565b604051908082528060200260200182016040528015610b9a57816020015b6060815260200190600190039081610b855790505b509050600084516001600160401b03811115610bb857610bb861243e565b604051908082528060200260200182016040528015610beb57816020015b6060815260200190600190039081610bd65790505b50905060005b8451811015610cb157848181518110610c0c57610c0c612af5565b60200260200101516001600160a01b031663f7c618c16040518163ffffffff1660e01b8152600401602060405180830381865afa158015610c51573d6000803e3d6000fd5b505050506040513d601f19601f82011682018060405250810190610c759190612b1b565b848281518110610c8757610c87612af5565b6001600160a01b039092166020928302919091019091015280610ca981612bdc565b915050610bf1565b5060005b85518110156109f5576000868281518110610cd257610cd2612af5565b6020026020010151905085516001600160401b03811115610cf557610cf561243e565b604051908082528060200260200182016040528015610d1e578160200160208202803683370190505b50848381518110610d3157610d31612af5565b602002602001018190525085516001600160401b03811115610d5557610d5561243e565b604051908082528060200260200182016040528015610d7e578160200160208202803683370190505b50838381518110610d9157610d91612af5565b602002602001018190525060005b8651811015610f1e576000878281518110610dbc57610dbc612af5565b6020908102919091010151604051636aa875b560e01b81526001600160a01b03858116600483015291925090821690636aa875b590602401602060405180830381865afa158015610e11573d6000803e3d6000fd5b505050506040513d601f19601f82011682018060405250810190610e359190612bf7565b868581518110610e4757610e47612af5565b60200260200101518381518110610e6057610e60612af5565b60209081029190910101526040516303d290cf60e61b81526001600160a01b03848116600483015282169063f4a433c090602401602060405180830381865afa158015610eb1573d6000803e3d6000fd5b505050506040513d601f19601f82011682018060405250810190610ed59190612bf7565b858581518110610ee757610ee7612af5565b60200260200101518381518110610f0057610f00612af5565b60209081029190910101525080610f1681612bdc565b915050610d9f565b50508080610f2b90612bdc565b915050610cb5565b600080600060606000856001600160a01b031663f851a4406040518163ffffffff1660e01b8152600401602060405180830381865afa158015610f7a573d6000803e3d6000fd5b505050506040513d601f19601f82011682018060405250810190610f9e9190612b1b565b90506000866001600160a01b0316630a755ec26040518163ffffffff1660e01b8152600401602060405180830381865afa158015610fe0573d6000803e3d6000fd5b505050506040513d601f19601f820116820180604052508101906110049190612cae565b90506000876001600160a01b0316632f1069ba6040518163ffffffff1660e01b8152600401602060405180830381865afa158015611046573d6000803e3d6000fd5b505050506040513d601f19601f8201168201806040525081019061106a9190612cae565b90506000886001600160a01b031663b0772d0b6040518163ffffffff1660e01b8152600401600060405180830381865afa1580156110ac573d6000803e3d6000fd5b505050506040513d6000823e601f3d908101601f191682016040526110d49190810190612b38565b90506000805b82518110156113155760008382815181106110f7576110f7612af5565b6020908102919091010151604051638e8f294b60e01b81526001600160a01b0380831660048301529192506000918e1690638e8f294b906024016040805180830381865afa15801561114d573d6000803e3d6000fd5b505050506040513d601f19601f820116820180604052508101906111719190612cc9565b50905080611180575050611303565b6000826001600160a01b031663f851a4406040518163ffffffff1660e01b8152600401602060405180830381865afa9250505080156111dc575060408051601f3d908101601f191682019092526111d991810190612b1b565b60015b6111e857505050611303565b90506000836001600160a01b0316630a755ec26040518163ffffffff1660e01b8152600401602060405180830381865afa15801561122a573d6000803e3d6000fd5b505050506040513d601f19601f8201168201806040525081019061124e9190612cae565b90506000846001600160a01b0316632f1069ba6040518163ffffffff1660e01b8152600401602060405180830381865afa158015611290573d6000803e3d6000fd5b505050506040513d601f19601f820116820180604052508101906112b49190612cae565b90508a6001600160a01b0316836001600160a01b03161415806112db575089151582151514155b806112ea575088151581151514155b156112fd57866112f981612bdc565b9750505b50505050505b8061130d81612bdc565b9150506110da565b506000816001600160401b038111156113305761133061243e565b60405190808252806020026020018201604052801561138257816020015b60408051608081018252600080825260208083018290529282018190526060820152825260001990920191018161134e5790505b5090506000805b84518110156116265760008582815181106113a6576113a6612af5565b6020026020010151905060008e6001600160a01b0316638e8f294b836040518263ffffffff1660e01b81526004016113ed91906001600160a01b0391909116815260200190565b6040805180830381865afa158015611409573d6000803e3d6000fd5b505050506040513d601f19601f8201168201806040525081019061142d9190612cc9565b5090508061143c575050611614565b6000826001600160a01b031663f851a4406040518163ffffffff1660e01b8152600401602060405180830381865afa925050508015611498575060408051601f3d908101601f1916820190925261149591810190612b1b565b60015b6114a457505050611614565b90506000836001600160a01b0316630a755ec26040518163ffffffff1660e01b8152600401602060405180830381865afa1580156114e6573d6000803e3d6000fd5b505050506040513d601f19601f8201168201806040525081019061150a9190612cae565b90506000846001600160a01b0316632f1069ba6040518163ffffffff1660e01b8152600401602060405180830381865afa15801561154c573d6000803e3d6000fd5b505050506040513d601f19601f820116820180604052508101906115709190612cae565b90508c6001600160a01b0316836001600160a01b031614158061159757508b151582151514155b806115a657508a151581151514155b1561160e576040518060800160405280866001600160a01b03168152602001846001600160a01b0316815260200183151581526020018215158152508888815181106115f4576115f4612af5565b6020026020010181905250868061160a90612bdc565b9750505b50505050505b8061161e81612bdc565b915050611389565b50959b949a5092985091965091945050505050565b600054610100900460ff161580801561165b5750600054600160ff909116105b806116755750303b158015611675575060005460ff166001145b6116dd5760405162461bcd60e51b815260206004820152602e60248201527f496e697469616c697a61626c653a20636f6e747261637420697320616c72656160448201526d191e481a5b9a5d1a585b1a5e995960921b60648201526084015b60405180910390fd5b6000805460ff191660011790558015611700576000805461ff0019166101001790555b6001600160a01b0382166117755760405162461bcd60e51b815260206004820152603660248201527f46757365506f6f6c4469726563746f727920696e7374616e63652063616e6e6f6044820152753a103132903a3432903d32b9379030b2323932b9b99760511b60648201526084016116d4565b6000805462010000600160b01b031916620100006001600160a01b0385160217905580156117dd576000805461ff0019169055604051600181527f7f26b83ff96e1f2b6a682f133852f6798a09c465da95921460cefb38474024989060200160405180910390a15b5050565b606080606060008060029054906101000a90046001600160a01b03166001600160a01b031663d88ff1f46040518163ffffffff1660e01b8152600401600060405180830381865afa15801561183a573d6000803e3d6000fd5b505050506040513d6000823e601f3d908101601f191682016040526118629190810190612cf5565b90506000805b82518110156119335782818151811061188357611883612af5565b6020026020010151604001516001600160a01b03166316dc15fe886040518263ffffffff1660e01b81526004016118c991906001600160a01b0391909116815260200190565b602060405180830381865afa925050508015611902575060408051601f3d908101601f191682019092526118ff91810190612cae565b60015b61190b57611921565b801561191f578261191b81612bdc565b9350505b505b8061192b81612bdc565b915050611868565b506000816001600160401b0381111561194e5761194e61243e565b604051908082528060200260200182016040528015611977578160200160208202803683370190505b5090506000826001600160401b038111156119945761199461243e565b6040519080825280602002602001820160405280156119bd578160200160208202803683370190505b5090506000836001600160401b038111156119da576119da61243e565b604051908082528060200260200182016040528015611a0d57816020015b60608152602001906001900390816119f85790505b5090506000805b8651811015611bbf576000878281518110611a3157611a31612af5565b6020026020010151604001519050806001600160a01b03166316dc15fe8d6040518263ffffffff1660e01b8152600401611a7a91906001600160a01b0391909116815260200190565b602060405180830381865afa925050508015611ab3575060408051601f3d908101601f19168201909252611ab091810190612cae565b60015b611abc57611bac565b8015611baa5782878581518110611ad557611ad5612af5565b60200260200101818152505081868581518110611af457611af4612af5565b60200260200101906001600160a01b031690816001600160a01b031681525050816001600160a01b0316633605b51b6040518163ffffffff1660e01b8152600401600060405180830381865afa925050508015611b7357506040513d6000823e601f3d908101601f19168201604052611b709190810190612c10565b60015b611b7c57611b9c565b80868681518110611b8f57611b8f612af5565b6020026020010181905250505b83611ba681612bdc565b9450505b505b5080611bb781612bdc565b915050611a14565b5092999198509650945050505050565b604051633af9e66960e01b81526001600160a01b0384811660048301526000918291851690633af9e669906024016020604051808303816000875af1158015611c1c573d6000803e3d6000fd5b505050506040513d601f19601f82011682018060405250810190611c409190612bf7565b90506000846001600160a01b0316635fe3b5676040518163ffffffff1660e01b8152600401602060405180830381865afa158015611c82573d6000803e3d6000fd5b505050506040513d601f19601f82011682018060405250810190611ca69190612b1b565b604051635ec88c7960e01b81526001600160a01b03888116600483015291925060009182918291851690635ec88c7990602401606060405180830381865afa158015611cf6573d6000803e3d6000fd5b505050506040513d601f19601f82011682018060405250810190611d1a9190612e84565b92509250925082600014611d8e5760405162461bcd60e51b815260206004820152603560248201527f436f6d7074726f6c6c6572206572726f72207768656e2063616c63756c61746960448201527437339030b1b1b7bab73a103634b8bab4b234ba3c9760591b60648201526084016116d4565b8015611da2576000955050505050506101d6565b600087158015611e21575060405163929fe9a160e01b81526001600160a01b038b811660048301528a8116602483015286169063929fe9a190604401602060405180830381865afa158015611dfb573d6000803e3d6000fd5b505050506040513d601f19601f82011682018060405250810190611e1f9190612cae565b155b15611e2d575084611e4f565b611e38838a8a612182565b905087158015611e4757508086105b15611e4f5750845b6000896001600160a01b0316633b1d21a26040518163ffffffff1660e01b8152600401602060405180830381865afa158015611e8f573d6000803e3d6000fd5b505050506040513d601f19601f82011682018060405250810190611eb39190612bf7565b905080821115611ec35780611ec5565b815b9b9a5050505050505050505050565b60405163331faf7160e21b81526001600160a01b038481166004830152600091829182919086169063cc7ebdc490602401602060405180830381865afa158015611f22573d6000803e3d6000fd5b505050506040513d601f19601f82011682018060405250810190611f469190612bf7565b60405162e48b0f60e51b81526001600160a01b038681166004830152888116602483015291925090861690631c9161e090604401600060405180830381600087803b158015611f9457600080fd5b505af1158015611fa8573d6000803e3d6000fd5b505060405163331faf7160e21b81526001600160a01b0389811660048301526000935084925088169063cc7ebdc490602401602060405180830381865afa158015611ff7573d6000803e3d6000fd5b505050506040513d601f19601f8201168201806040525081019061201b9190612bf7565b6120259190612eb2565b60405163331faf7160e21b81526001600160a01b0389811660048301529192509087169063cc7ebdc490602401602060405180830381865afa15801561206f573d6000803e3d6000fd5b505050506040513d601f19601f820116820180604052508101906120939190612bf7565b604051631cdc2c5d60e31b81526001600160a01b03878116600483015289811660248301529193509087169063e6e162e890604401600060405180830381600087803b1580156120e257600080fd5b505af11580156120f6573d6000803e3d6000fd5b505060405163331faf7160e21b81526001600160a01b038a811660048301526000935085925089169063cc7ebdc490602401602060405180830381865afa158015612145573d6000803e3d6000fd5b505050506040513d601f19601f820116820180604052508101906121699190612bf7565b6121739190612eb2565b91989197509095505050505050565b6000808411612193575060006101d6565b6000836001600160a01b0316635fe3b5676040518163ffffffff1660e01b8152600401602060405180830381865afa1580156121d3573d6000803e3d6000fd5b505050506040513d601f19601f820116820180604052508101906121f79190612b1b565b90506000816001600160a01b0316637dc0d1d06040518163ffffffff1660e01b8152600401602060405180830381865afa158015612239573d6000803e3d6000fd5b505050506040513d601f19601f8201168201806040525081019061225d9190612b1b565b60405163fc57d4df60e01b81526001600160a01b038781166004830152919091169063fc57d4df90602401602060405180830381865afa1580156122a5573d6000803e3d6000fd5b505050506040513d601f19601f820116820180604052508101906122c99190612bf7565b9050600081116123115760405162461bcd60e51b815260206004820152601360248201527227b930b1b63290383934b1b29032b93937b91760691b60448201526064016116d4565b836123a857604051638e8f294b60e01b81526001600160a01b03868116600483015260009190841690638e8f294b906024016040805180830381865afa15801561235f573d6000803e3d6000fd5b505050506040513d601f19601f820116820180604052508101906123839190612cc9565b9150670de0b6b3a7640000905061239a8383612ec9565b6123a49190612ee8565b9150505b806123bb87670de0b6b3a7640000612ec9565b6123c59190612ee8565b9695505050505050565b60405180604001604052806002906020820280368337509192915050565b6001600160a01b038116811461240257600080fd5b50565b6000806040838503121561241857600080fd5b8235612423816123ed565b91506020830135612433816123ed565b809150509250929050565b634e487b7160e01b600052604160045260246000fd5b60405160a081016001600160401b03811182821017156124765761247661243e565b60405290565b604051601f8201601f191681016001600160401b03811182821017156124a4576124a461243e565b604052919050565b60006001600160401b038211156124c5576124c561243e565b5060051b60200190565b600080604083850312156124e257600080fd5b82356124ed816123ed565b91506020838101356001600160401b0381111561250957600080fd5b8401601f8101861361251a57600080fd5b803561252d612528826124ac565b61247c565b81815260059190911b8201830190838101908883111561254c57600080fd5b928401925b82841015612573578335612564816123ed565b82529284019290840190612551565b80955050505050509250929050565b600081518084526020808501945080840160005b838110156125bb5781516001600160a01b031687529582019590820190600101612596565b509495945050505050565b600081518084526020808501945080840160005b838110156125bb578151875295820195908201906001016125da565b600081518084526020808501808196508360051b8101915082860160005b8581101561263e57828403895261262c848351612582565b98850198935090840190600101612614565b5091979650505050505050565b60a08152600061265e60a0830188612582565b60208382038185015261267182896125c6565b915060408483038186015261268683896125f6565b925084830360608601528287518085528385019150838160051b860101848a0160005b8381101561271f57878303601f1901855281518051808552908801908885019060005b8181101561270a5783518360005b60028110156126f75782518252918d0191908d01906001016126da565b505050928a0192918901916001016126cc565b505095880195935050908601906001016126a9565b50508781036080890152612733818a6125c6565b9d9c50505050505050505050505050565b6000602080838503121561275757600080fd5b82356001600160401b0381111561276d57600080fd5b8301601f8101851361277e57600080fd5b803561278c612528826124ac565b81815260059190911b820183019083810190878311156127ab57600080fd5b928401925b828410156127d25783356127c3816123ed565b825292840192908401906127b0565b979650505050505050565b600081518084526020808501808196508360051b810191508286016000805b8681101561284b578385038a52825180518087529087019087870190845b818110156128365783518352928901929189019160010161281a565b50509a87019a955050918501916001016127fc565b509298975050505050505050565b600081518084526020808501808196508360051b8101915082860160005b8581101561263e57828403895261288f8483516127dd565b98850198935090840190600101612877565b60a0815260006128b460a08301886125f6565b6020838203818501526128c782896125f6565b915083820360408501528187518084528284019150828160051b850101838a016000805b8481101561294757878403601f19018652825180518086529088019088860190845b818110156129325783516001600160a01b03168352928a0192918a019160010161290d565b505096880196945050918601916001016128eb565b505050868103606088015261295c818a612859565b94505050505082810360808401526129748185612859565b98975050505050505050565b60006020828403121561299257600080fd5b81356101d6816123ed565b60a0815260006129b060a0830188612582565b82810360208401526129c28188612582565b905082810360408401526129d68187612582565b905082810360608401526129ea81866127dd565b9050828103608084015261297481856127dd565b6000608080830160018060a01b0380891685526020881515818701526040881515818801526060858189015284895180875260a08a019150848b01965060005b81811015612a7b57875180518816845286810151881687850152858101511515868501528401511515848401529685019691880191600101612a3e565b50909d9c50505050505050505050505050565b606081526000612aa160608301866125c6565b82810360208481019190915285518083528682019282019060005b81811015612ae15784516001600160a01b031683529383019391830191600101612abc565b5050848103604086015261297481876125f6565b634e487b7160e01b600052603260045260246000fd5b8051612b16816123ed565b919050565b600060208284031215612b2d57600080fd5b81516101d6816123ed565b60006020808385031215612b4b57600080fd5b82516001600160401b03811115612b6157600080fd5b8301601f81018513612b7257600080fd5b8051612b80612528826124ac565b81815260059190911b82018301908381019087831115612b9f57600080fd5b928401925b828410156127d2578351612bb7816123ed565b82529284019290840190612ba4565b634e487b7160e01b600052601160045260246000fd5b6000600019821415612bf057612bf0612bc6565b5060010190565b600060208284031215612c0957600080fd5b5051919050565b60006020808385031215612c2357600080fd5b82516001600160401b03811115612c3957600080fd5b8301601f81018513612c4a57600080fd5b8051612c58612528826124ac565b81815260059190911b82018301908381019087831115612c7757600080fd5b928401925b828410156127d2578351612c8f816123ed565b82529284019290840190612c7c565b80518015158114612b1657600080fd5b600060208284031215612cc057600080fd5b6101d682612c9e565b60008060408385031215612cdc57600080fd5b612ce583612c9e565b9150602083015190509250929050565b60006020808385031215612d0857600080fd5b82516001600160401b0380821115612d1f57600080fd5b818501915085601f830112612d3357600080fd5b8151612d41612528826124ac565b81815260059190911b83018401908481019088831115612d6057600080fd5b8585015b83811015612e7757805185811115612d7b57600080fd5b8601601f1960a0828d0382011215612d935760008081fd5b612d9b612454565b8983015188811115612dad5760008081fd5b8301603f81018e13612dbf5760008081fd5b8a81015189811115612dd357612dd361243e565b612de38c85601f8401160161247c565b935080845260408f81838501011115612dfc5760008081fd5b60005b82811015612e1a578381018201518682018f01528d01612dff565b82811115612e2b5760008e84880101525b50848452612e3a818701612b0b565b8d85015260609450612e4d858701612b0b565b9084015250506080838101519282019290925260a090920151908201528352918601918601612d64565b5098975050505050505050565b600080600060608486031215612e9957600080fd5b8351925060208401519150604084015190509250925092565b600082821015612ec457612ec4612bc6565b500390565b6000816000190483118215151615612ee357612ee3612bc6565b500290565b600082612f0557634e487b7160e01b600052601260045260246000fd5b50049056fea2646970667358221220541b353b27444f4f63dcea81b027b3a763259a2cdd02e61bcec7434f21c692ca64736f6c634300080a0033",
    "linkReferences": {}
  },
  "methodIdentifiers": {
    "directory()": "c41c2f24",
    "getMaxBorrow(address,address)": "1ec18ec0",
    "getMaxRedeem(address,address)": "64129042",
    "getPoolOwnership(address)": "97f35ff0",
    "getRewardSpeedsByPool(address)": "84b3403d",
    "getRewardSpeedsByPools(address[])": "3fc5fab5",
    "getRewardsDistributorsBySupplier(address)": "d24eaf13",
    "getUnclaimedRewardsByDistributors(address,address[])": "338038fa",
    "initialize(address)": "c4d66de8"
  }
}