{
  "address": "0xc40080ddD7122c256c3555f9D804C1d43D9914D1",
  "abi": [
    {
      "anonymous": false,
      "inputs": [
        {
          "indexed": false,
          "internalType": "uint8",
          "name": "version",
          "type": "uint8"
        }
      ],
      "name": "Initialized",
      "type": "event"
    },
    {
      "inputs": [],
      "name": "directory",
      "outputs": [
        {
          "internalType": "contract FusePoolDirectory",
          "name": "",
          "type": "address"
        }
      ],
      "stateMutability": "view",
      "type": "function"
    },
    {
      "inputs": [
        {
          "internalType": "contract IComptroller",
          "name": "comptroller",
          "type": "address"
        },
        {
          "internalType": "address",
          "name": "user",
          "type": "address"
        }
      ],
      "name": "getPoolAssetsByUser",
      "outputs": [
        {
          "components": [
            {
              "internalType": "address",
              "name": "cToken",
              "type": "address"
            },
            {
              "internalType": "address",
              "name": "underlyingToken",
              "type": "address"
            },
            {
              "internalType": "string",
              "name": "underlyingName",
              "type": "string"
            },
            {
              "internalType": "string",
              "name": "underlyingSymbol",
              "type": "string"
            },
            {
              "internalType": "uint256",
              "name": "underlyingDecimals",
              "type": "uint256"
            },
            {
              "internalType": "uint256",
              "name": "underlyingBalance",
              "type": "uint256"
            },
            {
              "internalType": "uint256",
              "name": "supplyRatePerBlock",
              "type": "uint256"
            },
            {
              "internalType": "uint256",
              "name": "borrowRatePerBlock",
              "type": "uint256"
            },
            {
              "internalType": "uint256",
              "name": "totalSupply",
              "type": "uint256"
            },
            {
              "internalType": "uint256",
              "name": "totalBorrow",
              "type": "uint256"
            },
            {
              "internalType": "uint256",
              "name": "supplyBalance",
              "type": "uint256"
            },
            {
              "internalType": "uint256",
              "name": "borrowBalance",
              "type": "uint256"
            },
            {
              "internalType": "uint256",
              "name": "liquidity",
              "type": "uint256"
            },
            {
              "internalType": "bool",
              "name": "membership",
              "type": "bool"
            },
            {
              "internalType": "uint256",
              "name": "exchangeRate",
              "type": "uint256"
            },
            {
              "internalType": "uint256",
              "name": "underlyingPrice",
              "type": "uint256"
            },
            {
              "internalType": "address",
              "name": "oracle",
              "type": "address"
            },
            {
              "internalType": "uint256",
              "name": "collateralFactor",
              "type": "uint256"
            },
            {
              "internalType": "uint256",
              "name": "reserveFactor",
              "type": "uint256"
            },
            {
              "internalType": "uint256",
              "name": "adminFee",
              "type": "uint256"
            },
            {
              "internalType": "uint256",
              "name": "fuseFee",
              "type": "uint256"
            },
            {
              "internalType": "bool",
              "name": "borrowGuardianPaused",
              "type": "bool"
            }
          ],
          "internalType": "struct FusePoolLens.FusePoolAsset[]",
          "name": "",
          "type": "tuple[]"
        }
      ],
      "stateMutability": "nonpayable",
      "type": "function"
    },
    {
      "inputs": [
        {
          "internalType": "contract IComptroller",
          "name": "comptroller",
          "type": "address"
        }
      ],
      "name": "getPoolAssetsWithData",
      "outputs": [
        {
          "components": [
            {
              "internalType": "address",
              "name": "cToken",
              "type": "address"
            },
            {
              "internalType": "address",
              "name": "underlyingToken",
              "type": "address"
            },
            {
              "internalType": "string",
              "name": "underlyingName",
              "type": "string"
            },
            {
              "internalType": "string",
              "name": "underlyingSymbol",
              "type": "string"
            },
            {
              "internalType": "uint256",
              "name": "underlyingDecimals",
              "type": "uint256"
            },
            {
              "internalType": "uint256",
              "name": "underlyingBalance",
              "type": "uint256"
            },
            {
              "internalType": "uint256",
              "name": "supplyRatePerBlock",
              "type": "uint256"
            },
            {
              "internalType": "uint256",
              "name": "borrowRatePerBlock",
              "type": "uint256"
            },
            {
              "internalType": "uint256",
              "name": "totalSupply",
              "type": "uint256"
            },
            {
              "internalType": "uint256",
              "name": "totalBorrow",
              "type": "uint256"
            },
            {
              "internalType": "uint256",
              "name": "supplyBalance",
              "type": "uint256"
            },
            {
              "internalType": "uint256",
              "name": "borrowBalance",
              "type": "uint256"
            },
            {
              "internalType": "uint256",
              "name": "liquidity",
              "type": "uint256"
            },
            {
              "internalType": "bool",
              "name": "membership",
              "type": "bool"
            },
            {
              "internalType": "uint256",
              "name": "exchangeRate",
              "type": "uint256"
            },
            {
              "internalType": "uint256",
              "name": "underlyingPrice",
              "type": "uint256"
            },
            {
              "internalType": "address",
              "name": "oracle",
              "type": "address"
            },
            {
              "internalType": "uint256",
              "name": "collateralFactor",
              "type": "uint256"
            },
            {
              "internalType": "uint256",
              "name": "reserveFactor",
              "type": "uint256"
            },
            {
              "internalType": "uint256",
              "name": "adminFee",
              "type": "uint256"
            },
            {
              "internalType": "uint256",
              "name": "fuseFee",
              "type": "uint256"
            },
            {
              "internalType": "bool",
              "name": "borrowGuardianPaused",
              "type": "bool"
            }
          ],
          "internalType": "struct FusePoolLens.FusePoolAsset[]",
          "name": "",
          "type": "tuple[]"
        }
      ],
      "stateMutability": "nonpayable",
      "type": "function"
    },
    {
      "inputs": [
        {
          "internalType": "contract IComptroller",
          "name": "comptroller",
          "type": "address"
        }
      ],
      "name": "getPoolSummary",
      "outputs": [
        {
          "internalType": "uint256",
          "name": "",
          "type": "uint256"
        },
        {
          "internalType": "uint256",
          "name": "",
          "type": "uint256"
        },
        {
          "internalType": "address[]",
          "name": "",
          "type": "address[]"
        },
        {
          "internalType": "string[]",
          "name": "",
          "type": "string[]"
        },
        {
          "internalType": "bool",
          "name": "",
          "type": "bool"
        }
      ],
      "stateMutability": "nonpayable",
      "type": "function"
    },
    {
      "inputs": [
        {
          "internalType": "address",
          "name": "account",
          "type": "address"
        }
      ],
      "name": "getPoolsByAccountWithData",
      "outputs": [
        {
          "internalType": "uint256[]",
          "name": "",
          "type": "uint256[]"
        },
        {
          "components": [
            {
              "internalType": "string",
              "name": "name",
              "type": "string"
            },
            {
              "internalType": "address",
              "name": "creator",
              "type": "address"
            },
            {
              "internalType": "address",
              "name": "comptroller",
              "type": "address"
            },
            {
              "internalType": "uint256",
              "name": "blockPosted",
              "type": "uint256"
            },
            {
              "internalType": "uint256",
              "name": "timestampPosted",
              "type": "uint256"
            }
          ],
          "internalType": "struct FusePoolDirectory.FusePool[]",
          "name": "",
          "type": "tuple[]"
        },
        {
          "components": [
            {
              "internalType": "uint256",
              "name": "totalSupply",
              "type": "uint256"
            },
            {
              "internalType": "uint256",
              "name": "totalBorrow",
              "type": "uint256"
            },
            {
              "internalType": "address[]",
              "name": "underlyingTokens",
              "type": "address[]"
            },
            {
              "internalType": "string[]",
              "name": "underlyingSymbols",
              "type": "string[]"
            },
            {
              "internalType": "bool",
              "name": "whitelistedAdmin",
              "type": "bool"
            }
          ],
          "internalType": "struct FusePoolLens.FusePoolData[]",
          "name": "",
          "type": "tuple[]"
        },
        {
          "internalType": "bool[]",
          "name": "",
          "type": "bool[]"
        }
      ],
      "stateMutability": "nonpayable",
      "type": "function"
    },
    {
      "inputs": [
        {
          "internalType": "bool",
          "name": "whitelistedAdmin",
          "type": "bool"
        }
      ],
      "name": "getPublicPoolsByVerificationWithData",
      "outputs": [
        {
          "internalType": "uint256[]",
          "name": "",
          "type": "uint256[]"
        },
        {
          "components": [
            {
              "internalType": "string",
              "name": "name",
              "type": "string"
            },
            {
              "internalType": "address",
              "name": "creator",
              "type": "address"
            },
            {
              "internalType": "address",
              "name": "comptroller",
              "type": "address"
            },
            {
              "internalType": "uint256",
              "name": "blockPosted",
              "type": "uint256"
            },
            {
              "internalType": "uint256",
              "name": "timestampPosted",
              "type": "uint256"
            }
          ],
          "internalType": "struct FusePoolDirectory.FusePool[]",
          "name": "",
          "type": "tuple[]"
        },
        {
          "components": [
            {
              "internalType": "uint256",
              "name": "totalSupply",
              "type": "uint256"
            },
            {
              "internalType": "uint256",
              "name": "totalBorrow",
              "type": "uint256"
            },
            {
              "internalType": "address[]",
              "name": "underlyingTokens",
              "type": "address[]"
            },
            {
              "internalType": "string[]",
              "name": "underlyingSymbols",
              "type": "string[]"
            },
            {
              "internalType": "bool",
              "name": "whitelistedAdmin",
              "type": "bool"
            }
          ],
          "internalType": "struct FusePoolLens.FusePoolData[]",
          "name": "",
          "type": "tuple[]"
        },
        {
          "internalType": "bool[]",
          "name": "",
          "type": "bool[]"
        }
      ],
      "stateMutability": "nonpayable",
      "type": "function"
    },
    {
      "inputs": [],
      "name": "getPublicPoolsWithData",
      "outputs": [
        {
          "internalType": "uint256[]",
          "name": "",
          "type": "uint256[]"
        },
        {
          "components": [
            {
              "internalType": "string",
              "name": "name",
              "type": "string"
            },
            {
              "internalType": "address",
              "name": "creator",
              "type": "address"
            },
            {
              "internalType": "address",
              "name": "comptroller",
              "type": "address"
            },
            {
              "internalType": "uint256",
              "name": "blockPosted",
              "type": "uint256"
            },
            {
              "internalType": "uint256",
              "name": "timestampPosted",
              "type": "uint256"
            }
          ],
          "internalType": "struct FusePoolDirectory.FusePool[]",
          "name": "",
          "type": "tuple[]"
        },
        {
          "components": [
            {
              "internalType": "uint256",
              "name": "totalSupply",
              "type": "uint256"
            },
            {
              "internalType": "uint256",
              "name": "totalBorrow",
              "type": "uint256"
            },
            {
              "internalType": "address[]",
              "name": "underlyingTokens",
              "type": "address[]"
            },
            {
              "internalType": "string[]",
              "name": "underlyingSymbols",
              "type": "string[]"
            },
            {
              "internalType": "bool",
              "name": "whitelistedAdmin",
              "type": "bool"
            }
          ],
          "internalType": "struct FusePoolLens.FusePoolData[]",
          "name": "",
          "type": "tuple[]"
        },
        {
          "internalType": "bool[]",
          "name": "",
          "type": "bool[]"
        }
      ],
      "stateMutability": "nonpayable",
      "type": "function"
    },
    {
      "inputs": [
        {
          "internalType": "address",
          "name": "account",
          "type": "address"
        }
      ],
      "name": "getWhitelistedPoolsByAccount",
      "outputs": [
        {
          "internalType": "uint256[]",
          "name": "",
          "type": "uint256[]"
        },
        {
          "components": [
            {
              "internalType": "string",
              "name": "name",
              "type": "string"
            },
            {
              "internalType": "address",
              "name": "creator",
              "type": "address"
            },
            {
              "internalType": "address",
              "name": "comptroller",
              "type": "address"
            },
            {
              "internalType": "uint256",
              "name": "blockPosted",
              "type": "uint256"
            },
            {
              "internalType": "uint256",
              "name": "timestampPosted",
              "type": "uint256"
            }
          ],
          "internalType": "struct FusePoolDirectory.FusePool[]",
          "name": "",
          "type": "tuple[]"
        }
      ],
      "stateMutability": "view",
      "type": "function"
    },
    {
      "inputs": [
        {
          "internalType": "address",
          "name": "account",
          "type": "address"
        }
      ],
      "name": "getWhitelistedPoolsByAccountWithData",
      "outputs": [
        {
          "internalType": "uint256[]",
          "name": "",
          "type": "uint256[]"
        },
        {
          "components": [
            {
              "internalType": "string",
              "name": "name",
              "type": "string"
            },
            {
              "internalType": "address",
              "name": "creator",
              "type": "address"
            },
            {
              "internalType": "address",
              "name": "comptroller",
              "type": "address"
            },
            {
              "internalType": "uint256",
              "name": "blockPosted",
              "type": "uint256"
            },
            {
              "internalType": "uint256",
              "name": "timestampPosted",
              "type": "uint256"
            }
          ],
          "internalType": "struct FusePoolDirectory.FusePool[]",
          "name": "",
          "type": "tuple[]"
        },
        {
          "components": [
            {
              "internalType": "uint256",
              "name": "totalSupply",
              "type": "uint256"
            },
            {
              "internalType": "uint256",
              "name": "totalBorrow",
              "type": "uint256"
            },
            {
              "internalType": "address[]",
              "name": "underlyingTokens",
              "type": "address[]"
            },
            {
              "internalType": "string[]",
              "name": "underlyingSymbols",
              "type": "string[]"
            },
            {
              "internalType": "bool",
              "name": "whitelistedAdmin",
              "type": "bool"
            }
          ],
          "internalType": "struct FusePoolLens.FusePoolData[]",
          "name": "",
          "type": "tuple[]"
        },
        {
          "internalType": "bool[]",
          "name": "",
          "type": "bool[]"
        }
      ],
      "stateMutability": "nonpayable",
      "type": "function"
    },
    {
      "inputs": [
        {
          "internalType": "contract FusePoolDirectory",
          "name": "_directory",
          "type": "address"
        },
        {
          "internalType": "string",
          "name": "_name",
          "type": "string"
        },
        {
          "internalType": "string",
          "name": "_symbol",
          "type": "string"
        },
        {
          "internalType": "address[]",
          "name": "_hardcodedAddresses",
          "type": "address[]"
        },
        {
          "internalType": "string[]",
          "name": "_hardcodedNames",
          "type": "string[]"
        },
        {
          "internalType": "string[]",
          "name": "_hardcodedSymbols",
          "type": "string[]"
        },
        {
          "internalType": "string[]",
          "name": "_uniswapLPTokenNames",
          "type": "string[]"
        },
        {
          "internalType": "string[]",
          "name": "_uniswapLPTokenSymbols",
          "type": "string[]"
        },
        {
          "internalType": "string[]",
          "name": "_uniswapLPTokenDisplayNames",
          "type": "string[]"
        }
      ],
      "name": "initialize",
      "outputs": [],
      "stateMutability": "nonpayable",
      "type": "function"
    },
    {
      "inputs": [],
      "name": "name",
      "outputs": [
        {
          "internalType": "string",
          "name": "",
          "type": "string"
        }
      ],
      "stateMutability": "view",
      "type": "function"
    },
    {
      "inputs": [],
      "name": "symbol",
      "outputs": [
        {
          "internalType": "string",
          "name": "",
          "type": "string"
        }
      ],
      "stateMutability": "view",
      "type": "function"
    },
    {
      "inputs": [
        {
          "internalType": "contract ICToken",
          "name": "cToken",
          "type": "address"
        },
        {
          "components": [
            {
              "internalType": "bytes",
              "name": "block",
              "type": "bytes"
            },
            {
              "internalType": "bytes",
              "name": "accountProofNodesRlp",
              "type": "bytes"
            },
            {
              "internalType": "bytes",
              "name": "reserveAndTimestampProofNodesRlp",
              "type": "bytes"
            },
            {
              "internalType": "bytes",
              "name": "priceAccumulatorProofNodesRlp",
              "type": "bytes"
            }
          ],
          "internalType": "struct UniswapOracle.ProofData",
          "name": "proofData",
          "type": "tuple"
        }
      ],
      "name": "verifyPrice",
      "outputs": [
        {
          "internalType": "uint256",
          "name": "",
          "type": "uint256"
        },
        {
          "internalType": "uint256",
          "name": "",
          "type": "uint256"
        }
      ],
      "stateMutability": "nonpayable",
      "type": "function"
    }
  ],
  "transactionHash": "0x3e64e0d3540d25a40d751a6e139da10ee36abc091f000c3f0ac9ba086944ae2f",
  "args": [],
  "numDeployments": 11,
  "bytecode": {
    "object": "0x608060405234801561001057600080fd5b50613a38806100206000396000f3fe608060405234801561001057600080fd5b50600436106100cf5760003560e01c8063707333751161008c578063c41c2f2411610066578063c41c2f24146101bd578063cd344be8146101e8578063d0a164fb14610210578063d64996e51461021857600080fd5b8063707333751461018157806395d89b4114610194578063c3530a631461019c57600080fd5b806306fdde03146100d45780630c5eb5a4146100f257806327e16c1f146101125780633a1eb65614610125578063516786841461013a57806359d2fea61461015d575b600080fd5b6100dc61022b565b6040516100e99190612a48565b60405180910390f35b610105610100366004612a7a565b6102b9565b6040516100e99190612ab3565b610105610120366004612c33565b610341565b610138610133366004612e5c565b6103b9565b005b61014d610148366004612c33565b610832565b6040516100e99493929190613124565b61017061016b366004612c33565b6108d5565b6040516100e9959493929190613204565b61014d61018f366004612c33565b61111e565b6100dc611130565b6101af6101aa366004612c33565b61113d565b6040516100e992919061324a565b6005546101d0906001600160a01b031681565b6040516001600160a01b0390911681526020016100e9565b6101fb6101f6366004613278565b6114a4565b604080519283526020830191909152016100e9565b61014d6115ec565b61014d6102263660046132d1565b611691565b60018054610238906132ee565b80601f0160208091040260200160405190810160405280929190818152602001828054610264906132ee565b80156102b15780601f10610286576101008083540402835291602001916102b1565b820191906000526020600020905b81548152906001019060200180831161029457829003601f168201915b505050505081565b604051632aff3bff60e21b81526001600160a01b03828116600483015260609160009161033991869182169063abfceffc90602401600060405180830381865afa15801561030b573d6000803e3d6000fd5b505050506040513d6000823e601f3d908101601f191682016040526103339190810190613329565b856116d1565b949350505050565b60606103b382836001600160a01b031663b0772d0b6040518163ffffffff1660e01b8152600401600060405180830381865afa158015610385573d6000803e3d6000fd5b505050506040513d6000823e601f3d908101601f191682016040526103ad9190810190613329565b336116d1565b92915050565b600054610100900460ff16158080156103d95750600054600160ff909116105b806103f35750303b1580156103f3575060005460ff166001145b61045b5760405162461bcd60e51b815260206004820152602e60248201527f496e697469616c697a61626c653a20636f6e747261637420697320616c72656160448201526d191e481a5b9a5d1a585b1a5e995960921b60648201526084015b60405180910390fd5b6000805460ff19166001179055801561047e576000805461ff0019166101001790555b6001600160a01b038a166104f35760405162461bcd60e51b815260206004820152603660248201527f46757365506f6f6c4469726563746f727920696e7374616e63652063616e6e6f6044820152753a103132903a3432903d32b9379030b2323932b9b99760511b6064820152608401610452565b85518751148015610505575084518751145b6105605760405162461bcd60e51b815260206004820152602660248201527f48617264636f64656420616464726573736573206c656e67746873206e6f742060448201526532b8bab0b61760d11b6064820152608401610452565b82518451148015610572575081518451145b6105d05760405162461bcd60e51b815260206004820152602960248201527f556e6973776170204c5020746f6b656e206e616d6573206c656e67746873206e60448201526837ba1032b8bab0b61760b91b6064820152608401610452565b600580546001600160a01b0319166001600160a01b038c1617905588516105fe9060019060208c019061288d565b5087516106129060029060208b019061288d565b5060005b87518110156106f057604051806040016040528088838151811061063c5761063c6133c2565b6020026020010151815260200187838151811061065b5761065b6133c2565b6020026020010151815250600360008a848151811061067c5761067c6133c2565b60200260200101516001600160a01b03166001600160a01b0316815260200190815260200160002060008201518160000190805190602001906106c092919061288d565b5060208281015180516106d9926001850192019061288d565b5090505080806106e8906133ee565b915050610616565b5060005b84518110156107df576004604051806060016040528087848151811061071c5761071c6133c2565b6020026020010151815260200186848151811061073b5761073b6133c2565b6020026020010151815260200185848151811061075a5761075a6133c2565b602090810291909101810151909152825460018101845560009384529281902082518051939460030290910192610794928492019061288d565b5060208281015180516107ad926001850192019061288d565b50604082015180516107c991600284019160209091019061288d565b50505080806107d7906133ee565b9150506106f4565b508015610826576000805461ff0019169055604051600181527f7f26b83ff96e1f2b6a682f133852f6798a09c465da95921460cefb38474024989060200160405180910390a15b50505050505050505050565b6005546040516351f6c8e360e11b81526001600160a01b03838116600483015260609283928392839260009283929091169063a3ed91c6906024015b600060405180830381865afa15801561088b573d6000803e3d6000fd5b505050506040513d6000823e601f3d908101601f191682016040526108b39190810190613543565b915091506000806108c383612431565b949a9399509750929550909350505050565b60008060608060008060009050600080886001600160a01b031663b0772d0b6040518163ffffffff1660e01b8152600401600060405180830381865afa158015610923573d6000803e3d6000fd5b505050506040513d6000823e601f3d908101601f1916820160405261094b9190810190613329565b9050600081516001600160401b0381111561096857610968612c60565b604051908082528060200260200182016040528015610991578160200160208202803683370190505b509050600082516001600160401b038111156109af576109af612c60565b6040519080825280602002602001820160405280156109e257816020015b60608152602001906001900390816109cd5790505b50905060008b6001600160a01b0316637dc0d1d06040518163ffffffff1660e01b8152600401602060405180830381865afa158015610a25573d6000803e3d6000fd5b505050506040513d601f19601f82011682018060405250810190610a4991906135fe565b905060005b8451811015611016576000858281518110610a6b57610a6b6133c2565b6020026020010151905060008e6001600160a01b0316638e8f294b836040518263ffffffff1660e01b8152600401610ab291906001600160a01b0391909116815260200190565b6040805180830381865afa158015610ace573d6000803e3d6000fd5b505050506040513d601f19601f82011682018060405250810190610af29190613626565b50905080610b01575050611004565b6000826001600160a01b03166373acee986040518163ffffffff1660e01b81526004016020604051808303816000875af1158015610b43573d6000803e3d6000fd5b505050506040513d601f19601f82011682018060405250810190610b679190613654565b90506000836001600160a01b031663dc028ab16040518163ffffffff1660e01b8152600401602060405180830381865afa158015610ba9573d6000803e3d6000fd5b505050506040513d601f19601f82011682018060405250810190610bcd9190613654565b846001600160a01b03166361feacff6040518163ffffffff1660e01b8152600401602060405180830381865afa158015610c0b573d6000803e3d6000fd5b505050506040513d601f19601f82011682018060405250810190610c2f9190613654565b856001600160a01b0316638f840ddd6040518163ffffffff1660e01b8152600401602060405180830381865afa158015610c6d573d6000803e3d6000fd5b505050506040513d601f19601f82011682018060405250810190610c919190613654565b610c9b919061366d565b610ca5919061366d565b82856001600160a01b0316633b1d21a26040518163ffffffff1660e01b8152600401602060405180830381865afa158015610ce4573d6000803e3d6000fd5b505050506040513d601f19601f82011682018060405250810190610d089190613654565b610d12919061366d565b610d1c9190613685565b60405163fc57d4df60e01b81526001600160a01b03868116600483015291925060009188169063fc57d4df90602401602060405180830381865afa158015610d68573d6000803e3d6000fd5b505050506040513d601f19601f82011682018060405250810190610d8c9190613654565b9050670de0b6b3a7640000610da1828561369c565b610dab91906136bb565b610db5908d61366d565b9b50670de0b6b3a7640000610dca828461369c565b610dd491906136bb565b610dde908c61366d565b9a50846001600160a01b031663ac784ddc6040518163ffffffff1660e01b8152600401602060405180830381865afa158015610e1e573d6000803e3d6000fd5b505050506040513d601f19601f82011682018060405250810190610e4291906136dd565b15610f28576000898781518110610e5b57610e5b6133c2565b60200260200101906001600160a01b031690816001600160a01b03168152505060028054610e88906132ee565b80601f0160208091040260200160405190810160405280929190818152602001828054610eb4906132ee565b8015610f015780601f10610ed657610100808354040283529160200191610f01565b820191906000526020600020905b815481529060010190602001808311610ee457829003601f168201915b5050505050888781518110610f1857610f186133c2565b6020026020010181905250610ffe565b846001600160a01b0316636f307dc36040518163ffffffff1660e01b8152600401602060405180830381865afa158015610f66573d6000803e3d6000fd5b505050506040513d601f19601f82011682018060405250810190610f8a91906135fe565b898781518110610f9c57610f9c6133c2565b60200260200101906001600160a01b031690816001600160a01b031681525050610fde898781518110610fd157610fd16133c2565b6020026020010151612638565b9050888781518110610ff257610ff26133c2565b60200260200101819052505b50505050505b8061100e816133ee565b915050610a4e565b506000600560009054906101000a90046001600160a01b03166001600160a01b03166343e20a1d8e6001600160a01b031663f851a4406040518163ffffffff1660e01b8152600401602060405180830381865afa15801561107b573d6000803e3d6000fd5b505050506040513d601f19601f8201168201806040525081019061109f91906135fe565b6040516001600160e01b031960e084901b1681526001600160a01b039091166004820152602401602060405180830381865afa1580156110e3573d6000803e3d6000fd5b505050506040513d601f19601f8201168201806040525081019061110791906136dd565b959d969c50929a5090985092965092945050505050565b6060806060806000806108b38761113d565b60028054610238906132ee565b6060806000600560009054906101000a90046001600160a01b03166001600160a01b031663d88ff1f46040518163ffffffff1660e01b8152600401600060405180830381865afa158015611195573d6000803e3d6000fd5b505050506040513d6000823e601f3d908101601f191682016040526111bd91908101906136fa565b90506000805b82518110156112905760008382815181106111e0576111e06133c2565b6020026020010151604001519050806001600160a01b0316639b19251a886040518263ffffffff1660e01b815260040161122991906001600160a01b0391909116815260200190565b602060405180830381865afa158015611246573d6000803e3d6000fd5b505050506040513d601f19601f8201168201806040525081019061126a91906136dd565b1561127d5782611279816133ee565b9350505b5080611288816133ee565b9150506111c3565b506000816001600160401b038111156112ab576112ab612c60565b6040519080825280602002602001820160405280156112d4578160200160208202803683370190505b5090506000826001600160401b038111156112f1576112f1612c60565b60405190808252806020026020018201604052801561136657816020015b6113536040518060a001604052806060815260200160006001600160a01b0316815260200160006001600160a01b0316815260200160008152602001600081525090565b81526020019060019003908161130f5790505b5090506000805b855181101561149657600086828151811061138a5761138a6133c2565b6020026020010151604001519050806001600160a01b0316639b19251a8b6040518263ffffffff1660e01b81526004016113d391906001600160a01b0391909116815260200190565b602060405180830381865afa1580156113f0573d6000803e3d6000fd5b505050506040513d601f19601f8201168201806040525081019061141491906136dd565b15611483578185848151811061142c5761142c6133c2565b60200260200101818152505086828151811061144a5761144a6133c2565b6020026020010151848481518110611464576114646133c2565b6020026020010181905250828061147a906133ee565b93505050611496565b508061148e816133ee565b91505061136d565b509197909650945050505050565b6000806000846001600160a01b0316635fe3b5676040518163ffffffff1660e01b8152600401602060405180830381865afa1580156114e7573d6000803e3d6000fd5b505050506040513d601f19601f8201168201806040525081019061150b91906135fe565b6001600160a01b0316637dc0d1d06040518163ffffffff1660e01b8152600401602060405180830381865afa158015611548573d6000803e3d6000fd5b505050506040513d601f19601f8201168201806040525081019061156c91906135fe565b6040516319a6897d60e31b81529091506001600160a01b0382169063cd344be89061159d908890889060040161379c565b60408051808303816000875af11580156115bb573d6000803e3d6000fd5b505050506040513d601f19601f820116820180604052508101906115df9190613849565b92509250505b9250929050565b606080606080600080600560009054906101000a90046001600160a01b03166001600160a01b0316634ae26ea16040518163ffffffff1660e01b8152600401600060405180830381865afa158015611648573d6000803e3d6000fd5b505050506040513d6000823e601f3d908101601f191682016040526116709190810190613543565b9150915060008061168083612431565b949993985096509294509092505050565b6005546040516310c51ddf60e11b8152821515600482015260609182918291829160009182916001600160a01b039091169063218a3bbe9060240161086e565b60606000805b84518110156117a0576000866001600160a01b0316638e8f294b878481518110611703576117036133c2565b60200260200101516040518263ffffffff1660e01b815260040161173691906001600160a01b0391909116815260200190565b6040805180830381865afa158015611752573d6000803e3d6000fd5b505050506040513d601f19601f820116820180604052508101906117769190613626565b509050801561178d5782611789816133ee565b9350505b5080611798816133ee565b9150506116d7565b506000816001600160401b038111156117bb576117bb612c60565b6040519080825280602002602001820160405280156117f457816020015b6117e1612911565b8152602001906001900390816117d95790505b509050600080876001600160a01b0316637dc0d1d06040518163ffffffff1660e01b8152600401602060405180830381865afa158015611838573d6000803e3d6000fd5b505050506040513d601f19601f8201168201806040525081019061185c91906135fe565b905060005b8751811015612424576000808a6001600160a01b0316638e8f294b8b858151811061188e5761188e6133c2565b60200260200101516040518263ffffffff1660e01b81526004016118c191906001600160a01b0391909116815260200190565b6040805180830381865afa1580156118dd573d6000803e3d6000fd5b505050506040513d601f19601f820116820180604052508101906119019190613626565b9150915081611911575050612412565b611919612911565b60008b858151811061192d5761192d6133c2565b6020908102919091018101516001600160a01b03811680855260408051632b1e137760e21b81529051929450909263ac784ddc926004808401938290030181865afa158015611980573d6000803e3d6000fd5b505050506040513d601f19601f820116820180604052508101906119a491906136dd565b15611ae857600180546119b6906132ee565b80601f01602080910402602001604051908101604052809291908181526020018280546119e2906132ee565b8015611a2f5780601f10611a0457610100808354040283529160200191611a2f565b820191906000526020600020905b815481529060010190602001808311611a1257829003601f168201915b5050505050826040018190525060028054611a49906132ee565b80601f0160208091040260200160405190810160405280929190818152602001828054611a75906132ee565b8015611ac25780601f10611a9757610100808354040283529160200191611ac2565b820191906000526020600020905b815481529060010190602001808311611aa557829003601f168201915b50505050506060830152601260808301526001600160a01b038b163160a0830152611c4e565b806001600160a01b0316636f307dc36040518163ffffffff1660e01b8152600401602060405180830381865afa158015611b26573d6000803e3d6000fd5b505050506040513d601f19601f82011682018060405250810190611b4a91906135fe565b6001600160a01b031660208301819052611b6381612638565b84604001856060018290528290525050806001600160a01b031663313ce5676040518163ffffffff1660e01b8152600401602060405180830381865afa158015611bb1573d6000803e3d6000fd5b505050506040513d601f19601f82011682018060405250810190611bd5919061386d565b60ff1660808401526040516370a0823160e01b81526001600160a01b038d811660048301528216906370a0823190602401602060405180830381865afa158015611c23573d6000803e3d6000fd5b505050506040513d601f19601f82011682018060405250810190611c479190613654565b60a0840152505b806001600160a01b031663ae9d70b06040518163ffffffff1660e01b8152600401602060405180830381865afa158015611c8c573d6000803e3d6000fd5b505050506040513d601f19601f82011682018060405250810190611cb09190613654565b8260c0018181525050806001600160a01b031663f8f9da286040518163ffffffff1660e01b8152600401602060405180830381865afa158015611cf7573d6000803e3d6000fd5b505050506040513d601f19601f82011682018060405250810190611d1b9190613654565b8260e0018181525050806001600160a01b0316633b1d21a26040518163ffffffff1660e01b8152600401602060405180830381865afa158015611d62573d6000803e3d6000fd5b505050506040513d601f19601f82011682018060405250810190611d869190613654565b82610180018181525050806001600160a01b03166373acee986040518163ffffffff1660e01b81526004016020604051808303816000875af1158015611dd0573d6000803e3d6000fd5b505050506040513d601f19601f82011682018060405250810190611df49190613654565b82610120018181525050806001600160a01b031663dc028ab16040518163ffffffff1660e01b8152600401602060405180830381865afa158015611e3c573d6000803e3d6000fd5b505050506040513d601f19601f82011682018060405250810190611e609190613654565b816001600160a01b03166361feacff6040518163ffffffff1660e01b8152600401602060405180830381865afa158015611e9e573d6000803e3d6000fd5b505050506040513d601f19601f82011682018060405250810190611ec29190613654565b826001600160a01b0316638f840ddd6040518163ffffffff1660e01b8152600401602060405180830381865afa158015611f00573d6000803e3d6000fd5b505050506040513d601f19601f82011682018060405250810190611f249190613654565b611f2e919061366d565b611f38919061366d565b826101200151836101800151611f4e919061366d565b611f589190613685565b610100830152604051633af9e66960e01b81526001600160a01b038c81166004830152821690633af9e669906024016020604051808303816000875af1158015611fa6573d6000803e3d6000fd5b505050506040513d601f19601f82011682018060405250810190611fca9190613654565b6101408301526040516395dd919360e01b81526001600160a01b038c811660048301528216906395dd919390602401602060405180830381865afa158015612016573d6000803e3d6000fd5b505050506040513d601f19601f8201168201806040525081019061203a9190613654565b61016083015260405163929fe9a160e01b81526001600160a01b038c8116600483015282811660248301528e169063929fe9a190604401602060405180830381865afa15801561208e573d6000803e3d6000fd5b505050506040513d601f19601f820116820180604052508101906120b291906136dd565b15156101a08301526040805163182df0f560e01b815290516001600160a01b0383169163182df0f59160048083019260209291908290030181865afa1580156120ff573d6000803e3d6000fd5b505050506040513d601f19601f820116820180604052508101906121239190613654565b6101c083015260405163fc57d4df60e01b81526001600160a01b03828116600483015287169063fc57d4df90602401602060405180830381865afa15801561216f573d6000803e3d6000fd5b505050506040513d601f19601f820116820180604052508101906121939190613654565b6101e08301526001600160a01b038681166102008401819052602084015160405163addd509960e01b8152921660048301529063addd509990602401602060405180830381865afa925050508015612208575060408051601f3d908101601f19168201909252612205918101906135fe565b60015b61221157612221565b6001600160a01b03166102008301525b8282610220018181525050806001600160a01b031663173b99046040518163ffffffff1660e01b8152600401602060405180830381865afa15801561226a573d6000803e3d6000fd5b505050506040513d601f19601f8201168201806040525081019061228e9190613654565b82610240018181525050806001600160a01b0316638d02d9a16040518163ffffffff1660e01b8152600401602060405180830381865afa1580156122d6573d6000803e3d6000fd5b505050506040513d601f19601f820116820180604052508101906122fa9190613654565b82610260018181525050806001600160a01b031663dbfe7c196040518163ffffffff1660e01b8152600401602060405180830381865afa158015612342573d6000803e3d6000fd5b505050506040513d601f19601f820116820180604052508101906123669190613654565b610280830152604051636d154ea560e01b81526001600160a01b0382811660048301528e1690636d154ea590602401602060405180830381865afa1580156123b2573d6000803e3d6000fd5b505050506040513d601f19601f820116820180604052508101906123d691906136dd565b15156102a0830152875182908990899081106123f4576123f46133c2565b6020026020010181905250868061240a906133ee565b975050505050505b8061241c816133ee565b915050611861565b5091979650505050505050565b606080600083516001600160401b0381111561244f5761244f612c60565b6040519080825280602002602001820160405280156124b457816020015b6124a16040518060a00160405280600081526020016000815260200160608152602001606081526020016000151581525090565b81526020019060019003908161246d5790505b509050600084516001600160401b038111156124d2576124d2612c60565b6040519080825280602002602001820160405280156124fb578160200160208202803683370190505b50905060005b855181101561262d57306001600160a01b03166359d2fea687838151811061252b5761252b6133c2565b6020026020010151604001516040518263ffffffff1660e01b815260040161256291906001600160a01b0391909116815260200190565b6000604051808303816000875af19250505080156125a257506040513d6000823e601f3d908101601f1916820160405261259f919081019061390f565b60015b6125cf5760018282815181106125ba576125ba6133c2565b9115156020928302919091019091015261261b565b6040518060a0016040528086815260200185815260200184815260200183815260200182151581525088878151811061260a5761260a6133c2565b602002602001018190525050505050505b80612625816133ee565b915050612501565b509094909350915050565b6001600160a01b038116600090815260036020526040902060010180546060918291612663906132ee565b1590506127a9576001600160a01b0383166000908152600360205260409020805460018201908290612694906132ee565b80601f01602080910402602001604051908101604052809291908181526020018280546126c0906132ee565b801561270d5780601f106126e25761010080835404028352916020019161270d565b820191906000526020600020905b8154815290600101906020018083116126f057829003601f168201915b50505050509150808054612720906132ee565b80601f016020809104026020016040519081016040528092919081815260200182805461274c906132ee565b80156127995780601f1061276e57610100808354040283529160200191612799565b820191906000526020600020905b81548152906001019060200180831161277c57829003601f168201915b5050505050905091509150915091565b60008390506000816001600160a01b03166306fdde036040518163ffffffff1660e01b8152600401600060405180830381865afa1580156127ee573d6000803e3d6000fd5b505050506040513d6000823e601f3d908101601f1916820160405261281691908101906139f7565b90506000826001600160a01b03166395d89b416040518163ffffffff1660e01b8152600401600060405180830381865afa158015612858573d6000803e3d6000fd5b505050506040513d6000823e601f3d908101601f1916820160405261288091908101906139f7565b9196919550909350505050565b828054612899906132ee565b90600052602060002090601f0160209004810192826128bb5760008555612901565b82601f106128d457805160ff1916838001178555612901565b82800160010185558215612901579182015b828111156129015782518255916020019190600101906128e6565b5061290d9291506129d7565b5090565b604051806102c0016040528060006001600160a01b0316815260200160006001600160a01b031681526020016060815260200160608152602001600081526020016000815260200160008152602001600081526020016000815260200160008152602001600081526020016000815260200160008152602001600015158152602001600081526020016000815260200160006001600160a01b03168152602001600081526020016000815260200160008152602001600081526020016000151581525090565b5b8082111561290d57600081556001016129d8565b60005b83811015612a075781810151838201526020016129ef565b83811115612a16576000848401525b50505050565b60008151808452612a348160208601602086016129ec565b601f01601f19169290920160200192915050565b602081526000612a5b6020830184612a1c565b9392505050565b6001600160a01b0381168114612a7757600080fd5b50565b60008060408385031215612a8d57600080fd5b8235612a9881612a62565b91506020830135612aa881612a62565b809150509250929050565b60006020808301818452808551808352604092508286019150828160051b87010184880160005b83811015612c2557888303603f19018552815180516001600160a01b031684526102c0818901516001600160a01b038116868b015250878201518189870152612b2582870182612a1c565b91505060608083015186830382880152612b3f8382612a1c565b6080858101519089015260a0808601519089015260c0808601519089015260e08086015190890152610100808601519089015261012080860151908901526101408086015190890152610160808601519089015261018080860151908901526101a0808601511515908901526101c080860151908901526101e08086015190890152610200808601516001600160a01b03169089015261022080860151908901526102408086015190890152610260808601519089015261028080860151908901526102a094850151151594909701939093525050509386019390860190600101612ada565b509098975050505050505050565b600060208284031215612c4557600080fd5b8135612a5b81612a62565b8035612c5b81612a62565b919050565b634e487b7160e01b600052604160045260246000fd5b60405160a081016001600160401b0381118282101715612c9857612c98612c60565b60405290565b604051601f8201601f191681016001600160401b0381118282101715612cc657612cc6612c60565b604052919050565b60006001600160401b03821115612ce757612ce7612c60565b50601f01601f191660200190565b600082601f830112612d0657600080fd5b8135612d19612d1482612cce565b612c9e565b818152846020838601011115612d2e57600080fd5b816020850160208301376000918101602001919091529392505050565b60006001600160401b03821115612d6457612d64612c60565b5060051b60200190565b600082601f830112612d7f57600080fd5b81356020612d8f612d1483612d4b565b82815260059290921b84018101918181019086841115612dae57600080fd5b8286015b84811015612dd2578035612dc581612a62565b8352918301918301612db2565b509695505050505050565b600082601f830112612dee57600080fd5b81356020612dfe612d1483612d4b565b82815260059290921b84018101918181019086841115612e1d57600080fd5b8286015b84811015612dd25780356001600160401b03811115612e405760008081fd5b612e4e8986838b0101612cf5565b845250918301918301612e21565b60008060008060008060008060006101208a8c031215612e7b57600080fd5b612e848a612c50565b985060208a01356001600160401b0380821115612ea057600080fd5b612eac8d838e01612cf5565b995060408c0135915080821115612ec257600080fd5b612ece8d838e01612cf5565b985060608c0135915080821115612ee457600080fd5b612ef08d838e01612d6e565b975060808c0135915080821115612f0657600080fd5b612f128d838e01612ddd565b965060a08c0135915080821115612f2857600080fd5b612f348d838e01612ddd565b955060c08c0135915080821115612f4a57600080fd5b612f568d838e01612ddd565b945060e08c0135915080821115612f6c57600080fd5b612f788d838e01612ddd565b93506101008c0135915080821115612f8f57600080fd5b50612f9c8c828d01612ddd565b9150509295985092959850929598565b600081518084526020808501945080840160005b83811015612fdc57815187529582019590820190600101612fc0565b509495945050505050565b600081518084526020808501808196508360051b8101915082860160005b85811015612424578284038952815160a0815181875261302782880182612a1c565b838901516001600160a01b03908116898b01526040808601519091169089015260608085015190890152608093840151939097019290925250509784019790840190600101613005565b600081518084526020808501945080840160005b83811015612fdc5781516001600160a01b031687529582019590820190600101613085565b600081518084526020808501808196508360051b8101915082860160005b858110156124245782840389526130e0848351612a1c565b988501989350908401906001016130c8565b600081518084526020808501945080840160005b83811015612fdc578151151587529582019590820190600101613106565b6000608080835261313781840188612fac565b60208482038186015261314a8289612fe7565b91506040858303818701528288518085528385019150838160051b860101848b0160005b838110156131df57601f19888403018552815160a08151855288820151898601528782015181898701526131a482870182613071565b915050606080830151868303828801526131be83826130aa565b938d01511515968d019690965250509487019492509086019060010161316e565b505088810360608a01526131f3818b6130f2565b9d9c50505050505050505050505050565b85815284602082015260a06040820152600061322360a0830186613071565b828103606084015261323581866130aa565b91505082151560808301529695505050505050565b60408152600061325d6040830185612fac565b828103602084015261326f8185612fe7565b95945050505050565b6000806040838503121561328b57600080fd5b823561329681612a62565b915060208301356001600160401b038111156132b157600080fd5b830160808186031215612aa857600080fd5b8015158114612a7757600080fd5b6000602082840312156132e357600080fd5b8135612a5b816132c3565b600181811c9082168061330257607f821691505b6020821081141561332357634e487b7160e01b600052602260045260246000fd5b50919050565b6000602080838503121561333c57600080fd5b82516001600160401b0381111561335257600080fd5b8301601f8101851361336357600080fd5b8051613371612d1482612d4b565b81815260059190911b8201830190838101908783111561339057600080fd5b928401925b828410156133b75783516133a881612a62565b82529284019290840190613395565b979650505050505050565b634e487b7160e01b600052603260045260246000fd5b634e487b7160e01b600052601160045260246000fd5b6000600019821415613402576134026133d8565b5060010190565b600082601f83011261341a57600080fd5b8151613428612d1482612cce565b81815284602083860101111561343d57600080fd5b6103398260208301602087016129ec565b600082601f83011261345f57600080fd5b8151602061346f612d1483612d4b565b82815260059290921b8401810191818101908684111561348e57600080fd5b8286015b84811015612dd25780516001600160401b03808211156134b25760008081fd5b9088019060a0828b03601f19018113156134cc5760008081fd5b6134d4612c76565b87840151838111156134e65760008081fd5b6134f48d8a83880101613409565b825250604092508284015161350881612a62565b8189015260608481015161351b81612a62565b9382019390935260808481015193820193909352920151908201528352918301918301613492565b6000806040838503121561355657600080fd5b82516001600160401b038082111561356d57600080fd5b818501915085601f83011261358157600080fd5b81516020613591612d1483612d4b565b82815260059290921b840181019181810190898411156135b057600080fd5b948201945b838610156135ce578551825294820194908201906135b5565b918801519196509093505050808211156135e757600080fd5b506135f48582860161344e565b9150509250929050565b60006020828403121561361057600080fd5b8151612a5b81612a62565b8051612c5b816132c3565b6000806040838503121561363957600080fd5b8251613644816132c3565b6020939093015192949293505050565b60006020828403121561366657600080fd5b5051919050565b60008219821115613680576136806133d8565b500190565b600082821015613697576136976133d8565b500390565b60008160001904831182151516156136b6576136b66133d8565b500290565b6000826136d857634e487b7160e01b600052601260045260246000fd5b500490565b6000602082840312156136ef57600080fd5b8151612a5b816132c3565b60006020828403121561370c57600080fd5b81516001600160401b0381111561372257600080fd5b6103398482850161344e565b6000808335601e1984360301811261374557600080fd5b83016020810192503590506001600160401b0381111561376457600080fd5b8036038313156115e557600080fd5b81835281816020850137506000828201602090810191909152601f909101601f19169091010190565b6001600160a01b03831681526040602082015260006137bb838061372e565b608060408501526137d060c085018284613773565b9150506137e0602085018561372e565b603f19808685030160608701526137f8848385613773565b9350613807604088018861372e565b9350915080868503016080870152613820848484613773565b935061382f606088018861372e565b93509150808685030160a0870152506133b7838383613773565b6000806040838503121561385c57600080fd5b505080516020909101519092909150565b60006020828403121561387f57600080fd5b815160ff81168114612a5b57600080fd5b600082601f8301126138a157600080fd5b815160206138b1612d1483612d4b565b82815260059290921b840181019181810190868411156138d057600080fd5b8286015b84811015612dd25780516001600160401b038111156138f35760008081fd5b6139018986838b0101613409565b8452509183019183016138d4565b600080600080600060a0868803121561392757600080fd5b85519450602080870151945060408701516001600160401b038082111561394d57600080fd5b818901915089601f83011261396157600080fd5b815161396f612d1482612d4b565b81815260059190911b8301840190848101908c83111561398e57600080fd5b938501935b828510156139b55784516139a681612a62565b82529385019390850190613993565b60608c015190985094505050808311156139ce57600080fd5b50506139dc88828901613890565b9250506139eb6080870161361b565b90509295509295909350565b600060208284031215613a0957600080fd5b81516001600160401b03811115613a1f57600080fd5b6103398482850161340956fea164736f6c634300080a000a",
    "linkReferences": {}
  },
  "methodIdentifiers": {
    "directory()": "c41c2f24",
    "getPoolAssetsByUser(address,address)": "0c5eb5a4",
    "getPoolAssetsWithData(address)": "27e16c1f",
    "getPoolSummary(address)": "59d2fea6",
    "getPoolsByAccountWithData(address)": "51678684",
    "getPublicPoolsByVerificationWithData(bool)": "d64996e5",
    "getPublicPoolsWithData()": "d0a164fb",
    "getWhitelistedPoolsByAccount(address)": "c3530a63",
    "getWhitelistedPoolsByAccountWithData(address)": "70733375",
    "initialize(address,string,string,address[],string[],string[],string[],string[],string[])": "3a1eb656",
    "name()": "06fdde03",
    "symbol()": "95d89b41",
    "verifyPrice(address,(bytes,bytes,bytes,bytes))": "cd344be8"
  }
}