{
  "address": "0x746605A40AEe3af98579F5Cc7a1D0546b85F493b",
  "abi": [
    {
      "anonymous": false,
      "inputs": [
        {
          "indexed": false,
          "internalType": "uint8",
          "name": "version",
          "type": "uint8"
        }
      ],
      "name": "Initialized",
      "type": "event"
    },
    {
      "anonymous": false,
      "inputs": [
        {
          "indexed": true,
          "internalType": "address",
          "name": "previousOwner",
          "type": "address"
        },
        {
          "indexed": true,
          "internalType": "address",
          "name": "newOwner",
          "type": "address"
        }
      ],
      "name": "OwnershipTransferred",
      "type": "event"
    },
    {
      "inputs": [],
      "name": "BTC_TOKEN",
      "outputs": [
        {
          "internalType": "address",
          "name": "",
          "type": "address"
        }
      ],
      "stateMutability": "view",
      "type": "function"
    },
    {
      "inputs": [],
      "name": "STABLE_TOKEN",
      "outputs": [
        {
          "internalType": "address",
          "name": "",
          "type": "address"
        }
      ],
      "stateMutability": "view",
      "type": "function"
    },
    {
      "inputs": [],
      "name": "UNISWAP_V2_ROUTER_02",
      "outputs": [
        {
          "internalType": "contract IUniswapV2Router02",
          "name": "",
          "type": "address"
        }
      ],
      "stateMutability": "view",
      "type": "function"
    },
    {
      "inputs": [],
      "name": "UNISWAP_V2_ROUTER_02_ADDRESS",
      "outputs": [
        {
          "internalType": "address",
          "name": "",
          "type": "address"
        }
      ],
      "stateMutability": "view",
      "type": "function"
    },
    {
      "inputs": [],
      "name": "W_NATIVE",
      "outputs": [
        {
          "internalType": "contract IW_NATIVE",
          "name": "",
          "type": "address"
        }
      ],
      "stateMutability": "view",
      "type": "function"
    },
    {
      "inputs": [],
      "name": "W_NATIVE_ADDRESS",
      "outputs": [
        {
          "internalType": "address",
          "name": "",
          "type": "address"
        }
      ],
      "stateMutability": "view",
      "type": "function"
    },
    {
      "inputs": [
        {
          "internalType": "bytes",
          "name": "data",
          "type": "bytes"
        }
      ],
      "name": "_becomeImplementation",
      "outputs": [],
      "stateMutability": "nonpayable",
      "type": "function"
    },
    {
      "inputs": [
        {
          "internalType": "contract IRedemptionStrategy[]",
          "name": "strategies",
          "type": "address[]"
        },
        {
          "internalType": "bool[]",
          "name": "whitelisted",
          "type": "bool[]"
        }
      ],
      "name": "_whitelistRedemptionStrategies",
      "outputs": [],
      "stateMutability": "nonpayable",
      "type": "function"
    },
    {
      "inputs": [
        {
          "internalType": "contract IRedemptionStrategy",
          "name": "strategy",
          "type": "address"
        },
        {
          "internalType": "bool",
          "name": "whitelisted",
          "type": "bool"
        }
      ],
      "name": "_whitelistRedemptionStrategy",
      "outputs": [],
      "stateMutability": "nonpayable",
      "type": "function"
    },
    {
      "inputs": [
        {
          "internalType": "address",
          "name": "_wtoken",
          "type": "address"
        },
        {
          "internalType": "address",
          "name": "_uniswapV2router",
          "type": "address"
        },
        {
          "internalType": "address",
          "name": "_stableToken",
          "type": "address"
        },
        {
          "internalType": "address",
          "name": "_btcToken",
          "type": "address"
        },
        {
          "internalType": "bytes",
          "name": "_uniswapPairInitHashCode",
          "type": "bytes"
        }
      ],
      "name": "initialize",
      "outputs": [],
      "stateMutability": "nonpayable",
      "type": "function"
    },
    {
      "inputs": [],
      "name": "owner",
      "outputs": [
        {
          "internalType": "address",
          "name": "",
          "type": "address"
        }
      ],
      "stateMutability": "view",
      "type": "function"
    },
    {
      "inputs": [
        {
          "internalType": "address",
          "name": "sender",
          "type": "address"
        },
        {
          "internalType": "uint256",
          "name": "amount0",
          "type": "uint256"
        },
        {
          "internalType": "uint256",
          "name": "amount1",
          "type": "uint256"
        },
        {
          "internalType": "bytes",
          "name": "data",
          "type": "bytes"
        }
      ],
      "name": "pancakeCall",
      "outputs": [],
      "stateMutability": "nonpayable",
      "type": "function"
    },
    {
      "inputs": [
        {
          "internalType": "contract IERC20Upgradeable",
          "name": "underlyingCollateral",
          "type": "address"
        },
        {
          "internalType": "uint256",
          "name": "underlyingCollateralSeized",
          "type": "uint256"
        },
        {
          "internalType": "contract IRedemptionStrategy",
          "name": "strategy",
          "type": "address"
        },
        {
          "internalType": "bytes",
          "name": "strategyData",
          "type": "bytes"
        }
      ],
      "name": "redeemCustomCollateral",
      "outputs": [
        {
          "internalType": "contract IERC20Upgradeable",
          "name": "",
          "type": "address"
        },
        {
          "internalType": "uint256",
          "name": "",
          "type": "uint256"
        }
      ],
      "stateMutability": "nonpayable",
      "type": "function"
    },
    {
      "inputs": [
        {
          "internalType": "address",
          "name": "",
          "type": "address"
        }
      ],
      "name": "redemptionStrategiesWhitelist",
      "outputs": [
        {
          "internalType": "bool",
          "name": "",
          "type": "bool"
        }
      ],
      "stateMutability": "view",
      "type": "function"
    },
    {
      "inputs": [],
      "name": "renounceOwnership",
      "outputs": [],
      "stateMutability": "nonpayable",
      "type": "function"
    },
    {
      "inputs": [
        {
          "internalType": "address",
          "name": "borrower",
          "type": "address"
        },
        {
          "internalType": "contract ICEther",
          "name": "cEther",
          "type": "address"
        },
        {
          "internalType": "contract ICErc20",
          "name": "cErc20Collateral",
          "type": "address"
        },
        {
          "internalType": "uint256",
          "name": "minOutputAmount",
          "type": "uint256"
        },
        {
          "internalType": "address",
          "name": "exchangeSeizedTo",
          "type": "address"
        },
        {
          "internalType": "contract IUniswapV2Router02",
          "name": "uniswapV2Router",
          "type": "address"
        },
        {
          "internalType": "contract IRedemptionStrategy[]",
          "name": "redemptionStrategies",
          "type": "address[]"
        },
        {
          "internalType": "bytes[]",
          "name": "strategyData",
          "type": "bytes[]"
        }
      ],
      "name": "safeLiquidate",
      "outputs": [
        {
          "internalType": "uint256",
          "name": "",
          "type": "uint256"
        }
      ],
      "stateMutability": "payable",
      "type": "function"
    },
    {
      "inputs": [
        {
          "internalType": "address",
          "name": "borrower",
          "type": "address"
        },
        {
          "internalType": "uint256",
          "name": "repayAmount",
          "type": "uint256"
        },
        {
          "internalType": "contract ICErc20",
          "name": "cErc20",
          "type": "address"
        },
        {
          "internalType": "contract ICToken",
          "name": "cTokenCollateral",
          "type": "address"
        },
        {
          "internalType": "uint256",
          "name": "minOutputAmount",
          "type": "uint256"
        },
        {
          "internalType": "address",
          "name": "exchangeSeizedTo",
          "type": "address"
        },
        {
          "internalType": "contract IUniswapV2Router02",
          "name": "uniswapV2Router",
          "type": "address"
        },
        {
          "internalType": "contract IRedemptionStrategy[]",
          "name": "redemptionStrategies",
          "type": "address[]"
        },
        {
          "internalType": "bytes[]",
          "name": "strategyData",
          "type": "bytes[]"
        }
      ],
      "name": "safeLiquidate",
      "outputs": [
        {
          "internalType": "uint256",
          "name": "",
          "type": "uint256"
        }
      ],
      "stateMutability": "nonpayable",
      "type": "function"
    },
    {
      "inputs": [
        {
          "internalType": "address",
          "name": "borrower",
          "type": "address"
        },
        {
          "internalType": "uint256",
          "name": "repayAmount",
          "type": "uint256"
        },
        {
          "internalType": "contract ICEther",
          "name": "cEther",
          "type": "address"
        },
        {
          "internalType": "contract ICErc20",
          "name": "cErc20Collateral",
          "type": "address"
        },
        {
          "internalType": "uint256",
          "name": "minProfitAmount",
          "type": "uint256"
        },
        {
          "internalType": "address",
          "name": "exchangeProfitTo",
          "type": "address"
        },
        {
          "internalType": "contract IUniswapV2Router02",
          "name": "uniswapV2RouterForCollateral",
          "type": "address"
        },
        {
          "internalType": "contract IRedemptionStrategy[]",
          "name": "redemptionStrategies",
          "type": "address[]"
        },
        {
          "internalType": "bytes[]",
          "name": "strategyData",
          "type": "bytes[]"
        },
        {
          "internalType": "uint256",
          "name": "ethToCoinbase",
          "type": "uint256"
        }
      ],
      "name": "safeLiquidateToEthWithFlashLoan",
      "outputs": [
        {
          "internalType": "uint256",
          "name": "",
          "type": "uint256"
        }
      ],
      "stateMutability": "nonpayable",
      "type": "function"
    },
    {
      "inputs": [
        {
          "internalType": "address",
          "name": "borrower",
          "type": "address"
        },
        {
          "internalType": "uint256",
          "name": "repayAmount",
          "type": "uint256"
        },
        {
          "internalType": "contract ICErc20",
          "name": "cErc20",
          "type": "address"
        },
        {
          "internalType": "contract ICToken",
          "name": "cTokenCollateral",
          "type": "address"
        },
        {
          "internalType": "uint256",
          "name": "minProfitAmount",
          "type": "uint256"
        },
        {
          "internalType": "address",
          "name": "exchangeProfitTo",
          "type": "address"
        },
        {
          "internalType": "contract IUniswapV2Router02",
          "name": "uniswapV2RouterForBorrow",
          "type": "address"
        },
        {
          "internalType": "contract IUniswapV2Router02",
          "name": "uniswapV2RouterForCollateral",
          "type": "address"
        },
        {
          "internalType": "contract IRedemptionStrategy[]",
          "name": "redemptionStrategies",
          "type": "address[]"
        },
        {
          "internalType": "bytes[]",
          "name": "strategyData",
          "type": "bytes[]"
        },
        {
          "internalType": "uint256",
          "name": "ethToCoinbase",
          "type": "uint256"
        }
      ],
      "name": "safeLiquidateToTokensWithFlashLoan",
      "outputs": [
        {
          "internalType": "uint256",
          "name": "",
          "type": "uint256"
        }
      ],
      "stateMutability": "nonpayable",
      "type": "function"
    },
    {
      "inputs": [
        {
          "internalType": "address",
          "name": "newOwner",
          "type": "address"
        }
      ],
      "name": "transferOwnership",
      "outputs": [],
      "stateMutability": "nonpayable",
      "type": "function"
    },
    {
      "inputs": [
        {
          "internalType": "address",
          "name": "sender",
          "type": "address"
        },
        {
          "internalType": "uint256",
          "name": "amount0",
          "type": "uint256"
        },
        {
          "internalType": "uint256",
          "name": "amount1",
          "type": "uint256"
        },
        {
          "internalType": "bytes",
          "name": "data",
          "type": "bytes"
        }
      ],
      "name": "uniswapV2Call",
      "outputs": [],
      "stateMutability": "nonpayable",
      "type": "function"
    },
    {
      "stateMutability": "payable",
      "type": "receive"
    }
  ],
  "transactionHash": "0xe8e22a868932e187b9f707ba8f89d947e5f5ca801887266f9ecfbd172dd4c1e9",
  "args": [],
  "numDeployments": 8,
  "bytecode": {
    "object": "0x608060405234801561001057600080fd5b5061591980620000216000396000f3fe60806040526004361061012e5760003560e01c806381738f13116100ab578063a94c12bc1161006f578063a94c12bc1461039e578063b5966258146103be578063b798d3ff146103fd578063ba8bca5a1461041d578063c8348b541461043d578063f2fde38b1461045d57600080fd5b806381738f131461030057806384800812146103205780638a0b9090146103405780638da5cb5b14610360578063a68ee1191461037e57600080fd5b80635b672371116100f25780635b67237114610233578063700d5dd714610273578063715018a6146102935780637754f887146102a8578063789fc9ad146102e057600080fd5b80630d1b27631461018d57806310d1e85c146101b35780634a936417146101d357806356e67728146101f35780635a4313651461021357600080fd5b3661018857333b6101865760405162461bcd60e51b815260206004820152601960248201527f53656e646572206973206e6f74206120636f6e74726163742e0000000000000060448201526064015b60405180910390fd5b005b600080fd5b6101a061019b3660046148f4565b61047d565b6040519081526020015b60405180910390f35b3480156101bf57600080fd5b506101866101ce3660046149ff565b61080d565b3480156101df57600080fd5b506101866101ee366004614a68565b610a21565b3480156101ff57600080fd5b5061018661020e366004614aef565b610b67565b34801561021f57600080fd5b5061018661022e366004614b3e565b610ba9565b34801561023f57600080fd5b5061026361024e366004614b77565b606d6020526000908152604090205460ff1681565b60405190151581526020016101aa565b34801561027f57600080fd5b506101a061028e366004614b94565b610bfe565b34801561029f57600080fd5b50610186610e79565b3480156102b457600080fd5b506068546102c8906001600160a01b031681565b6040516001600160a01b0390911681526020016101aa565b3480156102ec57600080fd5b506069546102c8906001600160a01b031681565b34801561030c57600080fd5b506065546102c8906001600160a01b031681565b34801561032c57600080fd5b5061018661033b3660046149ff565b610eaf565b34801561034c57600080fd5b5061018661035b366004614cc4565b610ec3565b34801561036c57600080fd5b506033546001600160a01b03166102c8565b34801561038a57600080fd5b506101a0610399366004614d2f565b611004565b3480156103aa57600080fd5b506067546102c8906001600160a01b031681565b3480156103ca57600080fd5b506103de6103d9366004614dfd565b611487565b604080516001600160a01b0390931683526020830191909152016101aa565b34801561040957600080fd5b506066546102c8906001600160a01b031681565b34801561042957600080fd5b50606b546102c8906001600160a01b031681565b34801561044957600080fd5b506101a0610458366004614e68565b61158a565b34801561046957600080fd5b50610186610478366004614b77565b61189d565b600080341161049e5760405162461bcd60e51b815260040161017d90614f3d565b604051635572051560e11b81526001600160a01b038a81166004830152888116602483015289169063aae40a2a9034906044016000604051808303818588803b1580156104ea57600080fd5b505af11580156104fe573d6000803e3d6000fd5b5050505050866001600160a01b0316856001600160a01b0316146107f6576040516370a0823160e01b81523060048201526000906001600160a01b038916906370a0823190602401602060405180830381865afa158015610563573d6000803e3d6000fd5b505050506040513d601f19601f820116820180604052508101906105879190614f9a565b905080156107f45760405163db006a7560e01b8152600481018290526000906001600160a01b038a169063db006a75906024016020604051808303816000875af11580156105d9573d6000803e3d6000fd5b505050506040513d601f19601f820116820180604052508101906105fd9190614f9a565b9050801561061d5760405162461bcd60e51b815260040161017d90614fb3565b6000896001600160a01b0316636f307dc36040518163ffffffff1660e01b8152600401602060405180830381865afa15801561065d573d6000803e3d6000fd5b505050506040513d601f19601f820116820180604052508101906106819190615011565b8651909150156107e55784518651146106ac5760405162461bcd60e51b815260040161017d9061502e565b6040516370a0823160e01b81523060048201526000906001600160a01b038316906370a0823190602401602060405180830381865afa1580156106f3573d6000803e3d6000fd5b505050506040513d601f19601f820116820180604052508101906107179190614f9a565b905060005b87518110156107e257306001600160a01b031663b596625884848b8581518110610748576107486150b1565b60200260200101518b8681518110610762576107626150b1565b60200260200101516040518563ffffffff1660e01b8152600401610789949392919061511f565b60408051808303816000875af11580156107a7573d6000803e3d6000fd5b505050506040513d601f19601f820116820180604052508101906107cb9190615152565b9093509150806107da81615196565b91505061071c565b50505b6107f181898b8a611938565b50505b505b6108008587611d61565b9998505050505050505050565b600061081d6064604484866151b1565b81019061082a9190614b77565b9050806001600160a01b031663ac784ddc6040518163ffffffff1660e01b8152600401602060405180830381865afa15801561086a573d6000803e3d6000fd5b505050506040513d601f19601f8201168201806040525081019061088e91906151db565b15610956576000808080808080806108a98a6004818e6151b1565b8101906108b6919061525c565b985098509850985098509850509750975060006103e5886103e86108da91906152f6565b6108e4919061532b565b905060006103e56108f78a6103e86152f6565b610901919061533f565b1115610915578061091181615196565b9150505b61092789898c8a8a8a878b8b8b611f86565b606c80546001600160a01b0319166001600160a01b039290921691909117905550610a19975050505050505050565b6000808080808080808061096d8b6004818f6151b1565b81019061097a9190615353565b9950995099509950995099509950509850985060006103e5896103e86109a091906152f6565b6109aa919061532b565b905060006103e56109bd8b6103e86152f6565b6109c7919061533f565b11156109db57806109d781615196565b9150505b6109ee8a8a8d8b8b8b878c8c8c8c612199565b606c80546001600160a01b0319166001600160a01b0392909216919091179055505050505050505050505b505050505050565b6000610a2d600161242d565b90508015610a45576000805461ff0019166101001790555b610a4d6124ba565b6001600160a01b038516610aa35760405162461bcd60e51b815260206004820152601d60248201527f556e69737761705632466163746f7279206e6f7420646566696e65642e000000604482015260640161017d565b606580546001600160a01b03199081166001600160a01b03898116918217909355606780548316898516908117909155606880548416898616179055606980548416948816949094179093556066805483169091179055606b805490911690911790558151610b1990606a906020850190614670565b508015610a19576000805461ff0019169055604051600181527f7f26b83ff96e1f2b6a682f133852f6798a09c465da95921460cefb38474024989060200160405180910390a1505050505050565b6000610b7b6033546001600160a01b031690565b6001600160a01b03161415610ba5576000610b9882840184614b77565b9050610ba3816124e9565b505b5050565b6033546001600160a01b03163314610bd35760405162461bcd60e51b815260040161017d9061542f565b6001600160a01b03919091166000908152606d60205260409020805460ff1916911515919091179055565b6000808b11610c1f5760405162461bcd60e51b815260040161017d90615464565b60008060008c6001600160a01b0316636f307dc36040518163ffffffff1660e01b8152600401602060405180830381865afa158015610c62573d6000803e3d6000fd5b505050506040513d601f19601f82011682018060405250810190610c869190615011565b9050886001600160a01b031663c45a01556040518163ffffffff1660e01b8152600401602060405180830381865afa158015610cc6573d6000803e3d6000fd5b505050506040513d601f19601f82011682018060405250810190610cea9190615011565b60655460405163e6a4390560e01b81526001600160a01b038481166004830152918216602482015291169063e6a4390590604401602060405180830381865afa158015610d3b573d6000803e3d6000fd5b505050506040513d601f19601f82011682018060405250810190610d5f9190615011565b9250806001600160a01b0316836001600160a01b0316630dfe16816040518163ffffffff1660e01b8152600401602060405180830381865afa158015610da9573d6000803e3d6000fd5b505050506040513d601f19601f82011682018060405250810190610dcd9190615011565b6001600160a01b031614915050816001600160a01b031663022c0d9f82610df5576000610df7565b8e5b8315610e04576000610e06565b8f5b306000366040518663ffffffff1660e01b8152600401610e2a9594939291906154a8565b600060405180830381600087803b158015610e4457600080fd5b505af1158015610e58573d6000803e3d6000fd5b50505050610e67898b8661253b565b9e9d5050505050505050505050505050565b6033546001600160a01b03163314610ea35760405162461bcd60e51b815260040161017d9061542f565b610ead60006124e9565b565b610ebc858585858561080d565b5050505050565b6033546001600160a01b03163314610eed5760405162461bcd60e51b815260040161017d9061542f565b8215801590610efb57508281145b610f6d5760405162461bcd60e51b815260206004820152603f60248201527f6c697374206f66207374726174656769657320656d707479206f72207768697460448201527f656c69737420646f6573206e6f74206d6174636820697473206c656e67746800606482015260840161017d565b60005b83811015610ebc57828282818110610f8a57610f8a6150b1565b9050602002016020810190610f9f91906154f7565b606d6000878785818110610fb557610fb56150b1565b9050602002016020810190610fca9190614b77565b6001600160a01b031681526020810191909152604001600020805460ff191691151591909117905580610ffc81615196565b915050610f70565b60008089116110255760405162461bcd60e51b815260040161017d90614f3d565b6000886001600160a01b0316636f307dc36040518163ffffffff1660e01b8152600401602060405180830381865afa158015611065573d6000803e3d6000fd5b505050506040513d601f19601f820116820180604052508101906110899190615011565b90506110a06001600160a01b03821633308d61265f565b6110ab818a8c6126ca565b604051637af1e23160e11b81526001600160a01b038c81166004830152602482018c905289811660448301528a169063f5e3c462906064016020604051808303816000875af1158015611102573d6000803e3d6000fd5b505050506040513d601f19601f820116820180604052508101906111269190614f9a565b156111695760405162461bcd60e51b81526020600482015260136024820152722634b8bab4b230ba34b7b7103330b4b632b21760691b604482015260640161017d565b876001600160a01b0316866001600160a01b03161461146e576040516370a0823160e01b81523060048201526000906001600160a01b038a16906370a0823190602401602060405180830381865afa1580156111c9573d6000803e3d6000fd5b505050506040513d601f19601f820116820180604052508101906111ed9190614f9a565b9050801561146c5760405163db006a7560e01b8152600481018290526000906001600160a01b038b169063db006a75906024016020604051808303816000875af115801561123f573d6000803e3d6000fd5b505050506040513d601f19601f820116820180604052508101906112639190614f9a565b905080156112835760405162461bcd60e51b815260040161017d90614fb3565b896001600160a01b031663ac784ddc6040518163ffffffff1660e01b8152600401602060405180830381865afa1580156112c1573d6000803e3d6000fd5b505050506040513d601f19601f820116820180604052508101906112e591906151db565b156112fc576112f76000898b8a611938565b61146a565b60008a6001600160a01b0316636f307dc36040518163ffffffff1660e01b8152600401602060405180830381865afa15801561133c573d6000803e3d6000fd5b505050506040513d601f19601f820116820180604052508101906113609190615011565b87519091501561145c57855187511461138b5760405162461bcd60e51b815260040161017d9061502e565b6040516370a0823160e01b81523060048201526000906001600160a01b038316906370a0823190602401602060405180830381865afa1580156113d2573d6000803e3d6000fd5b505050506040513d601f19601f820116820180604052508101906113f69190614f9a565b905060005b88518110156114595761144283838b848151811061141b5761141b6150b1565b60200260200101518b8581518110611435576114356150b1565b6020026020010151611487565b90935091508061145181615196565b9150506113fb565b50505b611468818a8c8b611938565b505b505b505b6114788688611d61565b9b9a5050505050505050505050565b6001600160a01b0382166000908152606d6020526040812054819060ff1661150c5760405162461bcd60e51b815260206004820152603260248201527f6f6e6c792077686974656c697374656420726564656d7074696f6e20737472616044820152711d1959da595cc818d85b881899481d5cd95960721b606482015260840161017d565b6000611566856310badf4e60e01b89898860405160240161152f93929190615514565b60408051601f198184030181529190526020810180516001600160e01b03166001600160e01b031990931692909217909152612779565b90508080602001905181019061157c9190615152565b925092505094509492505050565b6000808a116115ab5760405162461bcd60e51b815260040161017d90615464565b600061177b606b60009054906101000a90046001600160a01b03166001600160a01b031663c45a01556040518163ffffffff1660e01b8152600401602060405180830381865afa158015611603573d6000803e3d6000fd5b505050506040513d601f19601f820116820180604052508101906116279190615011565b6067546001600160a01b0389811691161480156116ba575060685460408051636f307dc360e01b815290516001600160a01b03928316928e1691636f307dc39160048083019260209291908290030181865afa15801561168b573d6000803e3d6000fd5b505050506040513d601f19601f820116820180604052508101906116af9190615011565b6001600160a01b0316145b6116cf576068546001600160a01b03166116dc565b6069546001600160a01b03165b606554606a80546001600160a01b03909216916116f89061553b565b80601f01602080910402602001604051908101604052809291908181526020018280546117249061553b565b80156117715780601f1061174657610100808354040283529160200191611771565b820191906000526020600020905b81548152906001019060200180831161175457829003601f168201915b505050505061286d565b90506000816001600160a01b0316630dfe16816040518163ffffffff1660e01b8152600401602060405180830381865afa1580156117bd573d6000803e3d6000fd5b505050506040513d601f19601f820116820180604052508101906117e19190615011565b6065549091506001600160a01b038084169163022c0d9f9180851691161461180a57600061180c565b8d5b6065546001600160a01b038581169116141561182957600061182b565b8e5b306000366040518663ffffffff1660e01b815260040161184f9594939291906154a8565b600060405180830381600087803b15801561186957600080fd5b505af115801561187d573d6000803e3d6000fd5b5050505061188c888a8661253b565b9d9c50505050505050505050505050565b6033546001600160a01b031633146118c75760405162461bcd60e51b815260040161017d9061542f565b6001600160a01b03811661192c5760405162461bcd60e51b815260206004820152602660248201527f4f776e61626c653a206e6577206f776e657220697320746865207a65726f206160448201526564647265737360d01b606482015260840161017d565b611935816124e9565b50565b836001600160a01b0316836001600160a01b0316141561195757611d5b565b6001600160a01b038416611a7b576065546001600160a01b03848116911614156119e957606660009054906101000a90046001600160a01b03166001600160a01b031663d0e30db0476040518263ffffffff1660e01b81526004016000604051808303818588803b1580156119cb57600080fd5b505af11580156119df573d6000803e3d6000fd5b5050505050611d5b565b6065546001600160a01b0380831691637ff36ab59147918691611a0d9116886128f8565b30426040518663ffffffff1660e01b8152600401611a2e94939291906155ba565b60006040518083038185885af1158015611a4c573d6000803e3d6000fd5b50505050506040513d6000823e601f3d908101601f19168201604052611a7591908101906155ef565b50611d5b565b6065546001600160a01b038581169116148015611a9f57506001600160a01b038316155b15611b70576066546065546040516370a0823160e01b81523060048201526001600160a01b0392831692632e1a7d4d9216906370a0823190602401602060405180830381865afa158015611af7573d6000803e3d6000fd5b505050506040513d601f19601f82011682018060405250810190611b1b9190614f9a565b6040518263ffffffff1660e01b8152600401611b3991815260200190565b600060405180830381600087803b158015611b5357600080fd5b505af1158015611b67573d6000803e3d6000fd5b50505050611d5b565b6040516370a0823160e01b815230600482015284906000906001600160a01b038316906370a0823190602401602060405180830381865afa158015611bb9573d6000803e3d6000fd5b505050506040513d601f19601f82011682018060405250810190611bdd9190614f9a565b9050611bea8284836126ca565b6001600160a01b038516611c8c576065546001600160a01b03808516916318cbafe59184918891611c1d918c91166128f8565b30426040518663ffffffff1660e01b8152600401611c3f959493929190615674565b6000604051808303816000875af1158015611c5e573d6000803e3d6000fd5b505050506040513d6000823e601f3d908101601f19168201604052611c8691908101906155ef565b50610a19565b6065546001600160a01b03808516916338ed173991849188918b811691161480611cc357506065546001600160a01b038a81169116145b611ce457606554611cdf908b906001600160a01b03168b612985565b611cee565b611cee8a8a6128f8565b30426040518663ffffffff1660e01b8152600401611d10959493929190615674565b6000604051808303816000875af1158015611d2f573d6000803e3d6000fd5b505050506040513d6000823e601f3d908101601f19168201604052611d5791908101906155ef565b5050505b50505050565b6000806001600160a01b038416611e9557504782811015611dd85760405162461bcd60e51b815260206004820152602b60248201527f4d696e696d756d204e4154495645206f757470757420616d6f756e74206e6f7460448201526a1039b0ba34b9b334b2b21760a91b606482015260840161017d565b8015611e9057604051600090339083908381818185875af1925050503d8060008114611e20576040519150601f19603f3d011682016040523d82523d6000602084013e611e25565b606091505b5050905080611e8e5760405162461bcd60e51b815260206004820152602f60248201527f4661696c656420746f207472616e73666572206f7574707574204e415449564560448201526e103a379036b9b39739b2b73232b91760891b606482015260840161017d565b505b611f7f565b6040516370a0823160e01b815230600482015284906001600160a01b038216906370a0823190602401602060405180830381865afa158015611edb573d6000803e3d6000fd5b505050506040513d601f19601f82011682018060405250810190611eff9190614f9a565b915083821015611f635760405162461bcd60e51b815260206004820152602960248201527f4d696e696d756d20746f6b656e206f757470757420616d6f756e74206e6f742060448201526839b0ba34b334b2b21760b91b606482015260840161017d565b8115611f7d57611f7d6001600160a01b0382163384612a48565b505b9392505050565b606654604051632e1a7d4d60e01b8152600481018b90526000916001600160a01b031690632e1a7d4d90602401600060405180830381600087803b158015611fcd57600080fd5b505af1158015611fe1573d6000803e3d6000fd5b5050604051635572051560e11b81526001600160a01b038e811660048301528b811660248301528c16925063aae40a2a91508c906044016000604051808303818588803b15801561203157600080fd5b505af1158015612045573d6000803e3d6000fd5b50506040516370a0823160e01b8152306004820152600093506001600160a01b038c1692506370a082319150602401602060405180830381865afa158015612091573d6000803e3d6000fd5b505050506040513d601f19601f820116820180604052508101906120b59190614f9a565b9050600081116120fc5760405162461bcd60e51b815260206004820152601260248201527127379031aa37b5b2b7399039b2b4bd32b21760711b604482015260640161017d565b60405163db006a7560e01b8152600481018290526000906001600160a01b038b169063db006a75906024016020604051808303816000875af1158015612146573d6000803e3d6000fd5b505050506040513d601f19601f8201168201806040525081019061216a9190614f9a565b9050801561218a5760405162461bcd60e51b815260040161017d90614fb3565b61188c8c8b8a8a8a8a8a612a78565b6000808a6001600160a01b0316636f307dc36040518163ffffffff1660e01b8152600401602060405180830381865afa1580156121da573d6000803e3d6000fd5b505050506040513d601f19601f820116820180604052508101906121fe9190615011565b905061220b818c8e6126ca565b604051637af1e23160e11b81526001600160a01b038e81166004830152602482018e90528b811660448301528c169063f5e3c462906064016020604051808303816000875af1158015612262573d6000803e3d6000fd5b505050506040513d601f19601f820116820180604052508101906122869190614f9a565b156122c95760405162461bcd60e51b81526020600482015260136024820152722634b8bab4b230ba34b7b7103330b4b632b21760691b604482015260640161017d565b6040516370a0823160e01b81523060048201526000906001600160a01b038c16906370a0823190602401602060405180830381865afa158015612310573d6000803e3d6000fd5b505050506040513d601f19601f820116820180604052508101906123349190614f9a565b90506000811161237b5760405162461bcd60e51b815260206004820152601260248201527127379031aa37b5b2b7399039b2b4bd32b21760711b604482015260640161017d565b60405163db006a7560e01b8152600481018290526000906001600160a01b038d169063db006a75906024016020604051808303816000875af11580156123c5573d6000803e3d6000fd5b505050506040513d601f19601f820116820180604052508101906123e99190614f9a565b905080156124095760405162461bcd60e51b815260040161017d90614fb3565b61241a8e8d8c8c8c8c8c8c8b613262565b9f9e505050505050505050505050505050565b60008054610100900460ff1615612474578160ff1660011480156124505750303b155b61246c5760405162461bcd60e51b815260040161017d906156b0565b506000919050565b60005460ff80841691161061249b5760405162461bcd60e51b815260040161017d906156b0565b506000805460ff191660ff92909216919091179055600190565b919050565b600054610100900460ff166124e15760405162461bcd60e51b815260040161017d906156fe565b610ead613c6a565b603380546001600160a01b038381166001600160a01b0319831681179093556040519116919082907f8be0079c531659141344cd1fd0a4f28419497f9722a3daafe3b4186f6b6457e090600090a35050565b60006001600160a01b0384166125d757606c54612577906001600160a01b0316856125668587615749565b606b546001600160a01b0316611938565b81156125c65760405141908390600081818185875af1925050503d80600081146125bd576040519150601f19603f3d011682016040523d82523d6000602084013e6125c2565b606091505b5050505b6125d08484611d61565b9050611f7f565b811561264457606c54606b546125fb916001600160a01b0390811691859116613c9a565b60405141908390600081818185875af1925050503d806000811461263b576040519150601f19603f3d011682016040523d82523d6000602084013e612640565b606091505b5050505b606c546125c6906001600160a01b0316856125668587615749565b6040516001600160a01b0380851660248301528316604482015260648101829052611d5b9085906323b872dd60e01b906084015b60408051601f198184030181529190526020810180516001600160e01b03166001600160e01b031990931692909217909152613e2e565b604051636eb1769f60e11b81523060048201526001600160a01b0383811660248301526000919085169063dd62ed3e90604401602060405180830381865afa15801561271a573d6000803e3d6000fd5b505050506040513d601f19601f8201168201806040525081019061273e9190614f9a565b905081811015611d5b578015612763576127636001600160a01b038516846000613f00565b611d5b6001600160a01b03851684600019613f00565b60606001600160a01b0383163b6127e15760405162461bcd60e51b815260206004820152602660248201527f416464726573733a2064656c65676174652063616c6c20746f206e6f6e2d636f6044820152651b9d1c9858dd60d21b606482015260840161017d565b600080846001600160a01b0316846040516127fc9190615761565b600060405180830381855af49150503d8060008114612837576040519150601f19603f3d011682016040523d82523d6000602084013e61283c565b606091505b509150915061286482826040518060600160405280602781526020016158e660279139614015565b95945050505050565b600080600061287c868661404e565b6040516bffffffffffffffffffffffff19606084811b8216602084015283901b1660348201529193509150879060480160405160208183030381529060405280519060200120856040516020016128d59392919061577d565b60408051601f198184030181529190528051602090910120979650505050505050565b604080516002808252606080830184529260009291906020830190803683370190505090508381600081518110612931576129316150b1565b60200260200101906001600160a01b031690816001600160a01b0316815250508281600181518110612965576129656150b1565b6001600160a01b0390921660209283029190910190910152905092915050565b604080516003808252608082019092526060916000919060208201848036833701905050905084816000815181106129bf576129bf6150b1565b60200260200101906001600160a01b031690816001600160a01b03168152505083816001815181106129f3576129f36150b1565b60200260200101906001600160a01b031690816001600160a01b0316815250508281600281518110612a2757612a276150b1565b6001600160a01b039092166020928302919091019091015290509392505050565b6040516001600160a01b038316602482015260448101829052610ba390849063a9059cbb60e01b90606401612693565b600080876001600160a01b0316636f307dc36040518163ffffffff1660e01b8152600401602060405180830381865afa158015612ab9573d6000803e3d6000fd5b505050506040513d601f19601f82011682018060405250810190612add9190615011565b6040516370a0823160e01b81523060048201529091506000906001600160a01b038316906370a0823190602401602060405180830381865afa158015612b27573d6000803e3d6000fd5b505050506040513d601f19601f82011682018060405250810190612b4b9190614f9a565b855190915015612bcc578351855114612b765760405162461bcd60e51b815260040161017d9061502e565b60005b8551811015612bca57612bb38383888481518110612b9957612b996150b1565b6020026020010151888581518110611435576114356150b1565b909350915080612bc281615196565b915050612b79565b505b6067546001600160a01b038781169116148015612c95575060685460408051636f307dc360e01b815290516001600160a01b03928316928c1691636f307dc39160048083019260209291908290030181865afa158015612c30573d6000803e3d6000fd5b505050506040513d601f19601f82011682018060405250810190612c549190615011565b6001600160a01b031614612c73576068546001600160a01b0316612c80565b6069546001600160a01b03165b6001600160a01b0316826001600160a01b0316145b15612e9a576000612d1f876001600160a01b031663c45a01556040518163ffffffff1660e01b8152600401602060405180830381865afa158015612cdd573d6000803e3d6000fd5b505050506040513d601f19601f82011682018060405250810190612d019190615011565b6065548d90612d1a9087906001600160a01b03166128f8565b614144565b600081518110612d3157612d316150b1565b6020026020010151905081811115612db15760405162461bcd60e51b815260206004820152603760248201527f466c6173686c6f616e2072657475726e20616d6f756e7420677265617465722060448201527f7468616e207365697a656420636f6c6c61746572616c2e000000000000000000606482015260840161017d565b60405163a9059cbb60e01b8152336004820152602481018290526001600160a01b0384169063a9059cbb906044016020604051808303816000875af1158015612dfe573d6000803e3d6000fd5b505050506040513d601f19601f82011682018060405250810190612e2291906151db565b612e945760405162461bcd60e51b815260206004820152603b60248201527f4661696c656420746f207472616e73666572206e6f6e2d575f4e41544956452060448201527f746f6b656e73206261636b20746f20666c6173686c656e6465722e0000000000606482015260840161017d565b50613255565b6065546001600160a01b03838116911614613082576001600160a01b038216612f2b57606660009054906101000a90046001600160a01b03166001600160a01b031663d0e30db0886040518263ffffffff1660e01b81526004016000604051808303818588803b158015612f0d57600080fd5b505af1158015612f21573d6000803e3d6000fd5b5050505050613082565b612f368287836126ca565b816001600160a01b0316886001600160a01b03161415612fe4576065546001600160a01b0380881691638803dbee918a918591612f75918891166128f8565b30426040518663ffffffff1660e01b8152600401612f97959493929190615674565b6000604051808303816000875af1158015612fb6573d6000803e3d6000fd5b505050506040513d6000823e601f3d908101601f19168201604052612fde91908101906155ef565b50613082565b6065546001600160a01b03808816916338ed17399184918b91613009918891166128f8565b30426040518663ffffffff1660e01b815260040161302b959493929190615674565b6000604051808303816000875af115801561304a573d6000803e3d6000fd5b505050506040513d6000823e601f3d908101601f1916820160405261307291908101906155ef565b506065546001600160a01b031691505b6065546040516370a0823160e01b81523060048201526001600160a01b03909116906370a0823190602401602060405180830381865afa1580156130ca573d6000803e3d6000fd5b505050506040513d601f19601f820116820180604052508101906130ee9190614f9a565b87111561317b5760405162461bcd60e51b815260206004820152604f60248201527f466c6173686c6f616e2072657475726e20616d6f756e7420677265617465722060448201527f7468616e20575f4e41544956452065786368616e6765642066726f6d2073656960648201526e3d32b21031b7b63630ba32b930b61760891b608482015260a40161017d565b60665460405163a9059cbb60e01b8152336004820152602481018990526001600160a01b039091169063a9059cbb906044016020604051808303816000875af11580156131cc573d6000803e3d6000fd5b505050506040513d601f19601f820116820180604052508101906131f091906151db565b6132555760405162461bcd60e51b815260206004820152603060248201527f4661696c656420746f207472616e7366657220575f4e4154495645206261636b60448201526f103a3790333630b9b43632b73232b91760811b606482015260840161017d565b5098975050505050505050565b6000886001600160a01b031663ac784ddc6040518163ffffffff1660e01b8152600401602060405180830381865afa1580156132a2573d6000803e3d6000fd5b505050506040513d601f19601f820116820180604052508101906132c691906151db565b156134e7576000479050600061334f886001600160a01b031663c45a01556040518163ffffffff1660e01b8152600401602060405180830381865afa158015613313573d6000803e3d6000fd5b505050506040513d601f19601f820116820180604052508101906133379190615011565b6065548e90612d1a906001600160a01b0316886128f8565b600081518110613361576133616150b1565b60200260200101519050818111156133e15760405162461bcd60e51b815260206004820152603760248201527f5365697a6564204e415449564520636f6c6c61746572616c206e6f7420656e6f60448201527f75676820746f20726570617920666c6173686c6f616e2e000000000000000000606482015260840161017d565b606660009054906101000a90046001600160a01b03166001600160a01b031663d0e30db0826040518263ffffffff1660e01b81526004016000604051808303818588803b15801561343157600080fd5b505af1158015613445573d6000803e3d6000fd5b505060665460405163a9059cbb60e01b8152336004820152602481018690526001600160a01b03909116935063a9059cbb925060440190506020604051808303816000875af115801561349c573d6000803e3d6000fd5b505050506040513d601f19601f820116820180604052508101906134c091906151db565b6134dc5760405162461bcd60e51b815260040161017d906157c6565b600092505050610800565b6000896001600160a01b0316636f307dc36040518163ffffffff1660e01b8152600401602060405180830381865afa158015613527573d6000803e3d6000fd5b505050506040513d601f19601f8201168201806040525081019061354b9190615011565b6040516370a0823160e01b81523060048201529091506000906001600160a01b038316906370a0823190602401602060405180830381865afa158015613595573d6000803e3d6000fd5b505050506040513d601f19601f820116820180604052508101906135b99190614f9a565b8651909150156136b65784518651146136605760405162461bcd60e51b815260206004820152605b60248201527f49526564656d7074696f6e537472617465677920636f6e74726163742061727260448201527f617920616e64207374726174656779206461746120627974657320617272617960648201527f206d6e75737420746865207468652073616d65206c656e6774682e0000000000608482015260a40161017d565b60005b86518110156136b45761369d8383898481518110613683576136836150b1565b6020026020010151898581518110611435576114356150b1565b9093509150806136ac81615196565b915050613663565b505b836001600160a01b0316826001600160a01b031614156138b4576040516370a0823160e01b81523060048201526001600160a01b038516906370a0823190602401602060405180830381865afa158015613714573d6000803e3d6000fd5b505050506040513d601f19601f820116820180604052508101906137389190614f9a565b8911156137c95760405162461bcd60e51b815260206004820152605360248201527f546f6b656e20666c6173686c6f616e2072657475726e20616d6f756e7420677260448201527f6561746572207468616e20746f6b656e732065786368616e6765642066726f6d6064820152721039b2b4bd32b21031b7b63630ba32b930b61760691b608482015260a40161017d565b60405163a9059cbb60e01b8152336004820152602481018a90526001600160a01b0385169063a9059cbb906044016020604051808303816000875af1158015613816573d6000803e3d6000fd5b505050506040513d601f19601f8201168201806040525081019061383a91906151db565b6138ac5760405162461bcd60e51b815260206004820152603e60248201527f4661696c656420746f20726570617920746f6b656e20666c6173686c6f616e2060448201527f6f6e20626f72726f7720286e6f6e2d575f4e41544956452920736964652e0000606482015260840161017d565b509050610800565b6000613933896001600160a01b031663c45a01556040518163ffffffff1660e01b8152600401602060405180830381865afa1580156138f7573d6000803e3d6000fd5b505050506040513d601f19601f8201168201806040525081019061391b9190615011565b6065548f90612d1a906001600160a01b0316896128f8565b600081518110613945576139456150b1565b60209081029190910101516065549091506001600160a01b03848116911614613ab1576139738389846126ca565b826001600160a01b03168b6001600160a01b03161415613a21576065546001600160a01b03808a1691638803dbee91849186916139b2918991166128f8565b30426040518663ffffffff1660e01b81526004016139d4959493929190615674565b6000604051808303816000875af11580156139f3573d6000803e3d6000fd5b505050506040513d6000823e601f3d908101601f19168201604052613a1b91908101906155ef565b50613ab1565b6065546001600160a01b03808a16916338ed17399185918591613a46918991166128f8565b30426040518663ffffffff1660e01b8152600401613a68959493929190615674565b6000604051808303816000875af1158015613a87573d6000803e3d6000fd5b505050506040513d6000823e601f3d908101601f19168201604052613aaf91908101906155ef565b505b6065546040516370a0823160e01b81523060048201526001600160a01b03909116906370a0823190602401602060405180830381865afa158015613af9573d6000803e3d6000fd5b505050506040513d601f19601f82011682018060405250810190613b1d9190614f9a565b811115613ba35760405162461bcd60e51b815260206004820152604860248201527f4e6f7420656e6f75676820575f4e41544956452065786368616e67656420667260448201527f6f6d207365697a656420636f6c6c61746572616c20746f20726570617920666c60648201526730b9b43637b0b71760c11b608482015260a40161017d565b60665460405163a9059cbb60e01b8152336004820152602481018390526001600160a01b039091169063a9059cbb906044016020604051808303816000875af1158015613bf4573d6000803e3d6000fd5b505050506040513d601f19601f82011682018060405250810190613c1891906151db565b613c345760405162461bcd60e51b815260040161017d906157c6565b826001600160a01b03168b6001600160a01b031614613c5e576065546001600160a01b0316613c60565b825b9350505050610800565b600054610100900460ff16613c915760405162461bcd60e51b815260040161017d906156fe565b610ead336124e9565b6001600160a01b038316613cad57505050565b6065546001600160a01b0384811691161415613d2657606654604051632e1a7d4d60e01b8152600481018490526001600160a01b0390911690632e1a7d4d90602401600060405180830381600087803b158015613d0957600080fd5b505af1158015613d1d573d6000803e3d6000fd5b50505050610ba3565b6040516370a0823160e01b815230600482015283906000906001600160a01b038316906370a0823190602401602060405180830381865afa158015613d6f573d6000803e3d6000fd5b505050506040513d601f19601f82011682018060405250810190613d939190614f9a565b9050613da08284836126ca565b6065546001600160a01b0380851691634a25d94a9187918591613dc5918b91166128f8565b30426040518663ffffffff1660e01b8152600401613de7959493929190615674565b6000604051808303816000875af1158015613e06573d6000803e3d6000fd5b505050506040513d6000823e601f3d908101601f19168201604052610a1991908101906155ef565b6000613e83826040518060400160405280602081526020017f5361666545524332303a206c6f772d6c6576656c2063616c6c206661696c6564815250856001600160a01b03166142d19092919063ffffffff16565b805190915015610ba35780806020019051810190613ea191906151db565b610ba35760405162461bcd60e51b815260206004820152602a60248201527f5361666545524332303a204552433230206f7065726174696f6e20646964206e6044820152691bdd081cdd58d8d9595960b21b606482015260840161017d565b801580613f7a5750604051636eb1769f60e11b81523060048201526001600160a01b03838116602483015284169063dd62ed3e90604401602060405180830381865afa158015613f54573d6000803e3d6000fd5b505050506040513d601f19601f82011682018060405250810190613f789190614f9a565b155b613fe55760405162461bcd60e51b815260206004820152603660248201527f5361666545524332303a20617070726f76652066726f6d206e6f6e2d7a65726f60448201527520746f206e6f6e2d7a65726f20616c6c6f77616e636560501b606482015260840161017d565b6040516001600160a01b038316602482015260448101829052610ba390849063095ea7b360e01b90606401612693565b60608315614024575081611f7f565b8251156140345782518084602001fd5b8160405162461bcd60e51b815260040161017d919061583d565b600080826001600160a01b0316846001600160a01b031614156140bf5760405162461bcd60e51b815260206004820152602360248201527f50616e63616b654c6962726172793a204944454e544943414c5f41444452455360448201526253455360e81b606482015260840161017d565b826001600160a01b0316846001600160a01b0316106140df5782846140e2565b83835b90925090506001600160a01b03821661413d5760405162461bcd60e51b815260206004820152601c60248201527f50616e63616b654c6962726172793a205a45524f5f4144445245535300000000604482015260640161017d565b9250929050565b60606002825110156141985760405162461bcd60e51b815260206004820152601c60248201527f50616e63616b654c6962726172793a20494e56414c49445f5041544800000000604482015260640161017d565b81516001600160401b038111156141b1576141b1614729565b6040519080825280602002602001820160405280156141da578160200160208202803683370190505b5090508281600183516141ed9190615850565b815181106141fd576141fd6150b1565b6020026020010181815250506000600183516142199190615850565b90505b8015611f7d5760008061426c8786614235600187615850565b81518110614245576142456150b1565b602002602001015187868151811061425f5761425f6150b1565b60200260200101516142e8565b91509150614294848481518110614285576142856150b1565b6020026020010151838361441d565b846142a0600186615850565b815181106142b0576142b06150b1565b602002602001018181525050505080806142c990615867565b91505061421c565b60606142e0848460008561453f565b949350505050565b60008060006142f7858561404e565b5060405163e6a4390560e01b81526001600160a01b038781166004830152868116602483015291925060009182919089169063e6a4390590604401602060405180830381865afa15801561434f573d6000803e3d6000fd5b505050506040513d601f19601f820116820180604052508101906143739190615011565b6001600160a01b0316630902f1ac6040518163ffffffff1660e01b8152600401606060405180830381865afa1580156143b0573d6000803e3d6000fd5b505050506040513d601f19601f820116820180604052508101906143d49190615895565b506001600160701b031691506001600160701b03169150826001600160a01b0316876001600160a01b03161461440b57808261440e565b81815b90999098509650505050505050565b60008084116144815760405162461bcd60e51b815260206004820152602a60248201527f50616e63616b654c6962726172793a20494e53554646494349454e545f4f555460448201526914155517d05353d5539560b21b606482015260840161017d565b6000831180156144915750600082115b6144ec5760405162461bcd60e51b815260206004820152602660248201527f50616e63616b654c6962726172793a20494e53554646494349454e545f4c495160448201526555494449545960d01b606482015260840161017d565b60006144f885856152f6565b614504906103e86152f6565b905060006145128685615850565b61451e906103e56152f6565b905061452a818361532b565b614535906001615749565b9695505050505050565b6060824710156145a05760405162461bcd60e51b815260206004820152602660248201527f416464726573733a20696e73756666696369656e742062616c616e636520666f6044820152651c8818d85b1b60d21b606482015260840161017d565b6001600160a01b0385163b6145f75760405162461bcd60e51b815260206004820152601d60248201527f416464726573733a2063616c6c20746f206e6f6e2d636f6e7472616374000000604482015260640161017d565b600080866001600160a01b031685876040516146139190615761565b60006040518083038185875af1925050503d8060008114614650576040519150601f19603f3d011682016040523d82523d6000602084013e614655565b606091505b5091509150614665828286614015565b979650505050505050565b82805461467c9061553b565b90600052602060002090601f01602090048101928261469e57600085556146e4565b82601f106146b757805160ff19168380011785556146e4565b828001600101855582156146e4579182015b828111156146e45782518255916020019190600101906146c9565b506146f09291506146f4565b5090565b5b808211156146f057600081556001016146f5565b6001600160a01b038116811461193557600080fd5b80356124b581614709565b634e487b7160e01b600052604160045260246000fd5b604051601f8201601f191681016001600160401b038111828210171561476757614767614729565b604052919050565b60006001600160401b0382111561478857614788614729565b5060051b60200190565b600082601f8301126147a357600080fd5b813560206147b86147b38361476f565b61473f565b82815260059290921b840181019181810190868411156147d757600080fd5b8286015b848110156147fb5780356147ee81614709565b83529183019183016147db565b509695505050505050565b600082601f83011261481757600080fd5b81356001600160401b0381111561483057614830614729565b614843601f8201601f191660200161473f565b81815284602083860101111561485857600080fd5b816020850160208301376000918101602001919091529392505050565b600082601f83011261488657600080fd5b813560206148966147b38361476f565b82815260059290921b840181019181810190868411156148b557600080fd5b8286015b848110156147fb5780356001600160401b038111156148d85760008081fd5b6148e68986838b0101614806565b8452509183019183016148b9565b600080600080600080600080610100898b03121561491157600080fd5b883561491c81614709565b9750602089013561492c81614709565b9650604089013561493c81614709565b955060608901359450608089013561495381614709565b935060a089013561496381614709565b925060c08901356001600160401b038082111561497f57600080fd5b61498b8c838d01614792565b935060e08b01359150808211156149a157600080fd5b506149ae8b828c01614875565b9150509295985092959890939650565b60008083601f8401126149d057600080fd5b5081356001600160401b038111156149e757600080fd5b60208301915083602082850101111561413d57600080fd5b600080600080600060808688031215614a1757600080fd5b8535614a2281614709565b9450602086013593506040860135925060608601356001600160401b03811115614a4b57600080fd5b614a57888289016149be565b969995985093965092949392505050565b600080600080600060a08688031215614a8057600080fd5b8535614a8b81614709565b94506020860135614a9b81614709565b93506040860135614aab81614709565b92506060860135614abb81614709565b915060808601356001600160401b03811115614ad657600080fd5b614ae288828901614806565b9150509295509295909350565b60008060208385031215614b0257600080fd5b82356001600160401b03811115614b1857600080fd5b614b24858286016149be565b90969095509350505050565b801515811461193557600080fd5b60008060408385031215614b5157600080fd5b8235614b5c81614709565b91506020830135614b6c81614b30565b809150509250929050565b600060208284031215614b8957600080fd5b8135611f7f81614709565b60008060008060008060008060008060006101608c8e031215614bb657600080fd5b614bbf8c61471e565b9a5060208c01359950614bd460408d0161471e565b9850614be260608d0161471e565b975060808c01359650614bf760a08d0161471e565b9550614c0560c08d0161471e565b9450614c1360e08d0161471e565b93506001600160401b03806101008e01351115614c2f57600080fd5b614c408e6101008f01358f01614792565b9350806101208e01351115614c5457600080fd5b50614c668d6101208e01358e01614875565b91506101408c013590509295989b509295989b9093969950565b60008083601f840112614c9257600080fd5b5081356001600160401b03811115614ca957600080fd5b6020830191508360208260051b850101111561413d57600080fd5b60008060008060408587031215614cda57600080fd5b84356001600160401b0380821115614cf157600080fd5b614cfd88838901614c80565b90965094506020870135915080821115614d1657600080fd5b50614d2387828801614c80565b95989497509550505050565b60008060008060008060008060006101208a8c031215614d4e57600080fd5b8935614d5981614709565b985060208a0135975060408a0135614d7081614709565b9650614d7e60608b0161471e565b955060808a01359450614d9360a08b0161471e565b9350614da160c08b0161471e565b925060e08a01356001600160401b0380821115614dbd57600080fd5b614dc98d838e01614792565b93506101008c0135915080821115614de057600080fd5b50614ded8c828d01614875565b9150509295985092959850929598565b60008060008060808587031215614e1357600080fd5b8435614e1e81614709565b9350602085013592506040850135614e3581614709565b915060608501356001600160401b03811115614e5057600080fd5b614e5c87828801614806565b91505092959194509250565b6000806000806000806000806000806101408b8d031215614e8857600080fd5b614e918b61471e565b995060208b01359850614ea660408c0161471e565b9750614eb460608c0161471e565b965060808b01359550614ec960a08c0161471e565b9450614ed760c08c0161471e565b935060e08b01356001600160401b0380821115614ef357600080fd5b614eff8e838f01614792565b94506101008d0135915080821115614f1657600080fd5b50614f238d828e01614875565b9250506101208b013590509295989b9194979a5092959850565b60208082526038908201527f526570617920616d6f756e7420287472616e73616374696f6e2076616c75652960408201527f206d7573742062652067726561746572207468616e20302e0000000000000000606082015260800190565b600060208284031215614fac57600080fd5b5051919050565b602080825260409082018190527f4572726f722063616c6c696e672072656465656d696e67207365697a65642063908201527f546f6b656e3a206572726f7220636f6465206e6f7420657175616c20746f2030606082015260800190565b60006020828403121561502357600080fd5b8151611f7f81614709565b60208082526059908201527f49526564656d7074696f6e537472617465677920636f6e74726163742061727260408201527f617920616e64207374726174656779206461746120627974657320617272617960608201527f206d757374206265207468652073616d65206c656e6774682e00000000000000608082015260a00190565b634e487b7160e01b600052603260045260246000fd5b60005b838110156150e25781810151838201526020016150ca565b83811115611d5b5750506000910152565b6000815180845261510b8160208601602086016150c7565b601f01601f19169290920160200192915050565b6001600160a01b0385811682526020820185905283166040820152608060608201819052600090614535908301846150f3565b6000806040838503121561516557600080fd5b825161517081614709565b6020939093015192949293505050565b634e487b7160e01b600052601160045260246000fd5b60006000198214156151aa576151aa615180565b5060010190565b600080858511156151c157600080fd5b838611156151ce57600080fd5b5050820193919092039150565b6000602082840312156151ed57600080fd5b8151611f7f81614b30565b600082601f83011261520957600080fd5b813560206152196147b38361476f565b82815260059290921b8401810191818101908684111561523857600080fd5b8286015b848110156147fb57803561524f81614709565b835291830191830161523c565b60008060008060008060008060006101208a8c03121561527b57600080fd5b893561528681614709565b985060208a0135975060408a013561529d81614709565b96506152ab60608b0161471e565b955060808a013594506152c060a08b0161471e565b93506152ce60c08b0161471e565b925060e08a01356001600160401b03808211156152ea57600080fd5b614dc98d838e016151f8565b600081600019048311821515161561531057615310615180565b500290565b634e487b7160e01b600052601260045260246000fd5b60008261533a5761533a615315565b500490565b60008261534e5761534e615315565b500690565b6000806000806000806000806000806101408b8d03121561537357600080fd5b61537c8b61471e565b995060208b0135985061539160408c0161471e565b975061539f60608c0161471e565b965060808b013595506153b460a08c0161471e565b94506153c260c08c0161471e565b93506153d060e08c0161471e565b92506101008b01356001600160401b03808211156153ed57600080fd5b6153f98e838f016151f8565b93506101208d013591508082111561541057600080fd5b5061541d8d828e01614875565b9150509295989b9194979a5092959850565b6020808252818101527f4f776e61626c653a2063616c6c6572206973206e6f7420746865206f776e6572604082015260600190565b60208082526024908201527f526570617920616d6f756e74206d7573742062652067726561746572207468616040820152633710181760e11b606082015260800190565b858152602081018590526001600160a01b03841660408201526080606082018190528101829052818360a0830137600081830160a090810191909152601f909201601f19160101949350505050565b60006020828403121561550957600080fd5b8135611f7f81614b30565b60018060a01b038416815282602082015260606040820152600061286460608301846150f3565b600181811c9082168061554f57607f821691505b6020821081141561557057634e487b7160e01b600052602260045260246000fd5b50919050565b600081518084526020808501945080840160005b838110156155af5781516001600160a01b03168752958201959082019060010161558a565b509495945050505050565b8481526080602082015260006155d36080830186615576565b6001600160a01b03949094166040830152506060015292915050565b6000602080838503121561560257600080fd5b82516001600160401b0381111561561857600080fd5b8301601f8101851361562957600080fd5b80516156376147b38261476f565b81815260059190911b8201830190838101908783111561565657600080fd5b928401925b828410156146655783518252928401929084019061565b565b85815284602082015260a06040820152600061569360a0830186615576565b6001600160a01b0394909416606083015250608001529392505050565b6020808252602e908201527f496e697469616c697a61626c653a20636f6e747261637420697320616c72656160408201526d191e481a5b9a5d1a585b1a5e995960921b606082015260800190565b6020808252602b908201527f496e697469616c697a61626c653a20636f6e7472616374206973206e6f74206960408201526a6e697469616c697a696e6760a81b606082015260800190565b6000821982111561575c5761575c615180565b500190565b600082516157738184602087016150c7565b9190910192915050565b60ff60f81b81526bffffffffffffffffffffffff198460601b166001820152826015820152600082516157b78160358501602087016150c7565b91909101603501949350505050565b60208082526051908201527f4661696c656420746f20726570617920556e697377617020666c6173686c6f6160408201527f6e207769746820575f4e41544956452065786368616e6765642066726f6d207360608201527032b4bd32b21031b7b63630ba32b930b61760791b608082015260a00190565b602081526000611f7f60208301846150f3565b60008282101561586257615862615180565b500390565b60008161587657615876615180565b506000190190565b80516001600160701b03811681146124b557600080fd5b6000806000606084860312156158aa57600080fd5b6158b38461587e565b92506158c16020850161587e565b9150604084015163ffffffff811681146158da57600080fd5b80915050925092509256fe416464726573733a206c6f772d6c6576656c2064656c65676174652063616c6c206661696c6564a164736f6c634300080a000a",
    "linkReferences": {}
  },
  "methodIdentifiers": {
    "BTC_TOKEN()": "789fc9ad",
    "STABLE_TOKEN()": "7754f887",
    "UNISWAP_V2_ROUTER_02()": "ba8bca5a",
    "UNISWAP_V2_ROUTER_02_ADDRESS()": "a94c12bc",
    "W_NATIVE()": "b798d3ff",
    "W_NATIVE_ADDRESS()": "81738f13",
    "_becomeImplementation(bytes)": "56e67728",
    "_whitelistRedemptionStrategies(address[],bool[])": "8a0b9090",
    "_whitelistRedemptionStrategy(address,bool)": "5a431365",
    "initialize(address,address,address,address,bytes)": "4a936417",
    "owner()": "8da5cb5b",
    "pancakeCall(address,uint256,uint256,bytes)": "84800812",
    "redeemCustomCollateral(address,uint256,address,bytes)": "b5966258",
    "redemptionStrategiesWhitelist(address)": "5b672371",
    "renounceOwnership()": "715018a6",
    "safeLiquidate(address,address,address,uint256,address,address,address[],bytes[])": "0d1b2763",
    "safeLiquidate(address,uint256,address,address,uint256,address,address,address[],bytes[])": "a68ee119",
    "safeLiquidateToEthWithFlashLoan(address,uint256,address,address,uint256,address,address,address[],bytes[],uint256)": "c8348b54",
    "safeLiquidateToTokensWithFlashLoan(address,uint256,address,address,uint256,address,address,address,address[],bytes[],uint256)": "700d5dd7",
    "transferOwnership(address)": "f2fde38b",
    "uniswapV2Call(address,uint256,uint256,bytes)": "10d1e85c"
  }
}