{
  "address": "0x40004e37a341a40Be0BE2f4d8c67dD04e848Cd7C",
  "abi": [
    {
      "anonymous": false,
      "inputs": [
        {
          "indexed": false,
          "internalType": "uint8",
          "name": "version",
          "type": "uint8"
        }
      ],
      "name": "Initialized",
      "type": "event"
    },
    {
      "inputs": [],
      "name": "factory",
      "outputs": [
        {
          "internalType": "contract ILeveredPositionFactory",
          "name": "",
          "type": "address"
        }
      ],
      "stateMutability": "view",
      "type": "function"
    },
    {
      "inputs": [
        {
          "internalType": "contract ICErc20",
          "name": "_collateralMarket",
          "type": "address"
        },
        {
          "internalType": "contract ICErc20",
          "name": "_stableMarket",
          "type": "address"
        },
        {
          "internalType": "uint256",
          "name": "_baseCollateral",
          "type": "uint256"
        },
        {
          "internalType": "uint256",
          "name": "_targetLeverageRatio",
          "type": "uint256"
        }
      ],
      "name": "getBorrowRateAtRatio",
      "outputs": [
        {
          "internalType": "uint256",
          "name": "",
          "type": "uint256"
        }
      ],
      "stateMutability": "view",
      "type": "function"
    },
    {
      "inputs": [
        {
          "internalType": "contract ICErc20",
          "name": "_collateralMarket",
          "type": "address"
        }
      ],
      "name": "getBorrowableMarketsAndRates",
      "outputs": [
        {
          "internalType": "address[]",
          "name": "markets",
          "type": "address[]"
        },
        {
          "internalType": "address[]",
          "name": "underlyings",
          "type": "address[]"
        },
        {
          "internalType": "string[]",
          "name": "names",
          "type": "string[]"
        },
        {
          "internalType": "string[]",
          "name": "symbols",
          "type": "string[]"
        },
        {
          "internalType": "uint256[]",
          "name": "rates",
          "type": "uint256[]"
        },
        {
          "internalType": "uint8[]",
          "name": "decimals",
          "type": "uint8[]"
        }
      ],
      "stateMutability": "view",
      "type": "function"
    },
    {
      "inputs": [],
      "name": "getCollateralMarkets",
      "outputs": [
        {
          "internalType": "address[]",
          "name": "markets",
          "type": "address[]"
        },
        {
          "internalType": "contract IComptroller[]",
          "name": "poolOfMarket",
          "type": "address[]"
        },
        {
          "internalType": "address[]",
          "name": "underlyings",
          "type": "address[]"
        },
        {
          "internalType": "uint256[]",
          "name": "underlyingPrices",
          "type": "uint256[]"
        },
        {
          "internalType": "string[]",
          "name": "names",
          "type": "string[]"
        },
        {
          "internalType": "string[]",
          "name": "symbols",
          "type": "string[]"
        },
        {
          "internalType": "uint8[]",
          "name": "decimals",
          "type": "uint8[]"
        },
        {
          "internalType": "uint256[]",
          "name": "totalUnderlyingSupplied",
          "type": "uint256[]"
        },
        {
          "internalType": "uint256[]",
          "name": "ratesPerBlock",
          "type": "uint256[]"
        }
      ],
      "stateMutability": "view",
      "type": "function"
    },
    {
      "inputs": [
        {
          "internalType": "uint256",
          "name": "_supplyAPY",
          "type": "uint256"
        },
        {
          "internalType": "uint256",
          "name": "_supplyAmount",
          "type": "uint256"
        },
        {
          "internalType": "contract ICErc20",
          "name": "_collateralMarket",
          "type": "address"
        },
        {
          "internalType": "contract ICErc20",
          "name": "_stableMarket",
          "type": "address"
        },
        {
          "internalType": "uint256",
          "name": "_targetLeverageRatio",
          "type": "uint256"
        }
      ],
      "name": "getNetAPY",
      "outputs": [
        {
          "internalType": "int256",
          "name": "netAPY",
          "type": "int256"
        }
      ],
      "stateMutability": "view",
      "type": "function"
    },
    {
      "inputs": [
        {
          "internalType": "contract LeveredPosition",
          "name": "pos",
          "type": "address"
        },
        {
          "internalType": "uint256",
          "name": "_supplyAPY",
          "type": "uint256"
        }
      ],
      "name": "getNetApyForPosition",
      "outputs": [
        {
          "internalType": "int256",
          "name": "",
          "type": "int256"
        }
      ],
      "stateMutability": "view",
      "type": "function"
    },
    {
      "inputs": [
        {
          "internalType": "contract LeveredPosition",
          "name": "pos",
          "type": "address"
        },
        {
          "internalType": "uint256",
          "name": "supplyApy",
          "type": "uint256"
        }
      ],
      "name": "getPositionInfo",
      "outputs": [
        {
          "components": [
            {
              "internalType": "uint256",
              "name": "collateralAssetPrice",
              "type": "uint256"
            },
            {
              "internalType": "uint256",
              "name": "borrowedAssetPrice",
              "type": "uint256"
            },
            {
              "internalType": "uint256",
              "name": "positionSupplyAmount",
              "type": "uint256"
            },
            {
              "internalType": "uint256",
              "name": "positionValue",
              "type": "uint256"
            },
            {
              "internalType": "uint256",
              "name": "debtAmount",
              "type": "uint256"
            },
            {
              "internalType": "uint256",
              "name": "debtValue",
              "type": "uint256"
            },
            {
              "internalType": "uint256",
              "name": "equityAmount",
              "type": "uint256"
            },
            {
              "internalType": "uint256",
              "name": "equityValue",
              "type": "uint256"
            },
            {
              "internalType": "int256",
              "name": "currentApy",
              "type": "int256"
            },
            {
              "internalType": "uint256",
              "name": "debtRatio",
              "type": "uint256"
            },
            {
              "internalType": "uint256",
              "name": "liquidationThreshold",
              "type": "uint256"
            },
            {
              "internalType": "uint256",
              "name": "safetyBuffer",
              "type": "uint256"
            }
          ],
          "internalType": "struct LeveredPositionsLens.PositionInfo",
          "name": "info",
          "type": "tuple"
        }
      ],
      "stateMutability": "view",
      "type": "function"
    },
    {
      "inputs": [
        {
          "internalType": "contract LeveredPosition[]",
          "name": "positions",
          "type": "address[]"
        },
        {
          "internalType": "uint256[]",
          "name": "supplyApys",
          "type": "uint256[]"
        }
      ],
      "name": "getPositionsInfo",
      "outputs": [
        {
          "components": [
            {
              "internalType": "uint256",
              "name": "collateralAssetPrice",
              "type": "uint256"
            },
            {
              "internalType": "uint256",
              "name": "borrowedAssetPrice",
              "type": "uint256"
            },
            {
              "internalType": "uint256",
              "name": "positionSupplyAmount",
              "type": "uint256"
            },
            {
              "internalType": "uint256",
              "name": "positionValue",
              "type": "uint256"
            },
            {
              "internalType": "uint256",
              "name": "debtAmount",
              "type": "uint256"
            },
            {
              "internalType": "uint256",
              "name": "debtValue",
              "type": "uint256"
            },
            {
              "internalType": "uint256",
              "name": "equityAmount",
              "type": "uint256"
            },
            {
              "internalType": "uint256",
              "name": "equityValue",
              "type": "uint256"
            },
            {
              "internalType": "int256",
              "name": "currentApy",
              "type": "int256"
            },
            {
              "internalType": "uint256",
              "name": "debtRatio",
              "type": "uint256"
            },
            {
              "internalType": "uint256",
              "name": "liquidationThreshold",
              "type": "uint256"
            },
            {
              "internalType": "uint256",
              "name": "safetyBuffer",
              "type": "uint256"
            }
          ],
          "internalType": "struct LeveredPositionsLens.PositionInfo[]",
          "name": "infos",
          "type": "tuple[]"
        }
      ],
      "stateMutability": "view",
      "type": "function"
    },
    {
      "inputs": [
        {
          "internalType": "contract ILeveredPositionFactory",
          "name": "_factory",
          "type": "address"
        }
      ],
      "name": "initialize",
      "outputs": [],
      "stateMutability": "nonpayable",
      "type": "function"
    }
  ],
  "transactionHash": "0xda9093fb29e2d810f4b16db7408c25182d4019ebee06886fa0c08454162cf646",
  "args": [],
  "numDeployments": 8,
  "bytecode": {
    "object": "0x608060405234801561001057600080fd5b5061272b806100206000396000f3fe608060405234801561001057600080fd5b50600436106100935760003560e01c80638de1624d116100665780638de1624d1461011a5780638f4b11661461012d578063c03497c01461014d578063c45a01551461016a578063c4d66de81461019b57600080fd5b80631327d7fb146100985780631a610317146100c157806360ff773e146100e25780636bbdc78014610107575b600080fd5b6100ab6100a6366004611e42565b6101b0565b6040516100b89190611eec565b60405180910390f35b6100d46100cf366004611e42565b6107b9565b6040519081526020016100b8565b6100f56100f0366004611efb565b610950565b6040516100b896959493929190612063565b6100d46101153660046120e5565b610e3b565b6100d461012836600461212b565b6110a8565b61014061013b3660046121c8565b6113cc565b6040516100b89190612233565b6101556114ae565b6040516100b899989796959493929190612282565b600054610183906201000090046001600160a01b031681565b6040516001600160a01b0390911681526020016100b8565b6101ae6101a9366004611efb565b611c99565b005b6101b8611dc9565b6000836001600160a01b031663a415deda6040518163ffffffff1660e01b8152600401602060405180830381865afa1580156101f8573d6000803e3d6000fd5b505050506040513d601f19601f8201168201806040525081019061021c9190612378565b90506000846001600160a01b03166316f0115b6040518163ffffffff1660e01b8152600401602060405180830381865afa15801561025e573d6000803e3d6000fd5b505050506040513d601f19601f820116820180604052508101906102829190612378565b9050806001600160a01b0316637dc0d1d06040518163ffffffff1660e01b8152600401602060405180830381865afa1580156102c2573d6000803e3d6000fd5b505050506040513d601f19601f820116820180604052508101906102e69190612378565b60405163fc57d4df60e01b81526001600160a01b038481166004830152919091169063fc57d4df90602401602060405180830381865afa15801561032e573d6000803e3d6000fd5b505050506040513d601f19601f820116820180604052508101906103529190612395565b8352604051633af9e66960e01b81526001600160a01b038681166004830152831690633af9e66990602401602060405180830381865afa15801561039a573d6000803e3d6000fd5b505050506040513d601f19601f820116820180604052508101906103be9190612395565b604084018190528351670de0b6b3a7640000916103da916123c4565b6103e491906123f9565b60608401526103f385856107b9565b836101000181815250506000856001600160a01b031663a7e269a66040518163ffffffff1660e01b8152600401602060405180830381865afa15801561043d573d6000803e3d6000fd5b505050506040513d601f19601f820116820180604052508101906104619190612378565b9050816001600160a01b0316637dc0d1d06040518163ffffffff1660e01b8152600401602060405180830381865afa1580156104a1573d6000803e3d6000fd5b505050506040513d601f19601f820116820180604052508101906104c59190612378565b60405163fc57d4df60e01b81526001600160a01b038381166004830152919091169063fc57d4df90602401602060405180830381865afa15801561050d573d6000803e3d6000fd5b505050506040513d601f19601f820116820180604052508101906105319190612395565b60208501526040516305eff7ef60e21b81526001600160a01b0387811660048301528216906317bfdfbc90602401602060405180830381865afa15801561057c573d6000803e3d6000fd5b505050506040513d601f19601f820116820180604052508101906105a09190612395565b608085018190526020850151670de0b6b3a7640000916105bf916123c4565b6105c991906123f9565b8460a0018181525050670de0b6b3a7640000866001600160a01b0316639b5ddf096040518163ffffffff1660e01b8152600401602060405180830381865afa158015610619573d6000803e3d6000fd5b505050506040513d601f19601f8201168201806040525081019061063d9190612395565b855161064991906123c4565b61065391906123f9565b60e0850181905260a085015161067190670de0b6b3a76400006123c4565b61067b91906123f9565b610120850152835160a08501516060860151610697919061240d565b6106a990670de0b6b3a76400006123c4565b6106b391906123f9565b60c085015250604051638e8f294b60e01b81526001600160a01b03838116600483015260009190831690638e8f294b906024016040805180830381865afa158015610702573d6000803e3d6000fd5b505050506040513d601f19601f820116820180604052508101906107269190612424565b9150506000670de0b6b3a764000082866060015161074491906123c4565b61074e91906123f9565b60e086015190915061076882670de0b6b3a76400006123c4565b61077291906123f9565b61014086015260e085015160a086015161078c908361240d565b61079e90670de0b6b3a76400006123c4565b6107a891906123f9565b610160860152509295945050505050565b600061094782846001600160a01b0316639b5ddf096040518163ffffffff1660e01b8152600401602060405180830381865afa1580156107fd573d6000803e3d6000fd5b505050506040513d601f19601f820116820180604052508101906108219190612395565b856001600160a01b031663a415deda6040518163ffffffff1660e01b8152600401602060405180830381865afa15801561085f573d6000803e3d6000fd5b505050506040513d601f19601f820116820180604052508101906108839190612378565b866001600160a01b031663a7e269a66040518163ffffffff1660e01b8152600401602060405180830381865afa1580156108c1573d6000803e3d6000fd5b505050506040513d601f19601f820116820180604052508101906108e59190612378565b876001600160a01b031663c31443bb6040518163ffffffff1660e01b8152600401602060405180830381865afa158015610923573d6000803e3d6000fd5b505050506040513d601f19601f820116820180604052508101906101289190612395565b90505b92915050565b600054604051637a73083360e11b81526001600160a01b03838116600483015260609283928392839283928392620100009092049091169063f4e6106690602401600060405180830381865afa1580156109ae573d6000803e3d6000fd5b505050506040513d6000823e601f3d908101601f191682016040526109d6919081019061249d565b955085516001600160401b038111156109f1576109f1612457565b604051908082528060200260200182016040528015610a1a578160200160208202803683370190505b50945085516001600160401b03811115610a3657610a36612457565b604051908082528060200260200182016040528015610a6957816020015b6060815260200190600190039081610a545790505b50935085516001600160401b03811115610a8557610a85612457565b604051908082528060200260200182016040528015610ab857816020015b6060815260200190600190039081610aa35790505b50925085516001600160401b03811115610ad457610ad4612457565b604051908082528060200260200182016040528015610afd578160200160208202803683370190505b50915085516001600160401b03811115610b1957610b19612457565b604051908082528060200260200182016040528015610b42578160200160208202803683370190505b50905060005b8651811015610e31576000878281518110610b6557610b6561254e565b602002602001015190506000816001600160a01b0316636f307dc36040518163ffffffff1660e01b8152600401602060405180830381865afa158015610baf573d6000803e3d6000fd5b505050506040513d601f19601f82011682018060405250810190610bd39190612378565b905080888481518110610be857610be861254e565b60200260200101906001600160a01b031690816001600160a01b0316815250506000819050806001600160a01b03166306fdde036040518163ffffffff1660e01b8152600401600060405180830381865afa158015610c4b573d6000803e3d6000fd5b505050506040513d6000823e601f3d908101601f19168201604052610c739190810190612564565b888581518110610c8557610c8561254e565b6020026020010181905250806001600160a01b03166395d89b416040518163ffffffff1660e01b8152600401600060405180830381865afa158015610cce573d6000803e3d6000fd5b505050506040513d6000823e601f3d908101601f19168201604052610cf69190810190612564565b878581518110610d0857610d0861254e565b6020026020010181905250826001600160a01b031663f8f9da286040518163ffffffff1660e01b8152600401602060405180830381865afa158015610d51573d6000803e3d6000fd5b505050506040513d601f19601f82011682018060405250810190610d759190612395565b868581518110610d8757610d8761254e565b602002602001018181525050806001600160a01b031663313ce5676040518163ffffffff1660e01b8152600401602060405180830381865afa158015610dd1573d6000803e3d6000fd5b505050506040513d601f19601f82011682018060405250810190610df591906125ee565b858581518110610e0757610e0761254e565b602002602001019060ff16908160ff16815250505050508080610e2990612611565b915050610b48565b5091939550919395565b600080846001600160a01b0316635fe3b5676040518163ffffffff1660e01b8152600401602060405180830381865afa158015610e7c573d6000803e3d6000fd5b505050506040513d601f19601f82011682018060405250810190610ea09190612378565b90506000816001600160a01b0316637dc0d1d06040518163ffffffff1660e01b8152600401602060405180830381865afa158015610ee2573d6000803e3d6000fd5b505050506040513d601f19601f82011682018060405250810190610f069190612378565b60405163fc57d4df60e01b81526001600160a01b03888116600483015291925060009183169063fc57d4df90602401602060405180830381865afa158015610f52573d6000803e3d6000fd5b505050506040513d601f19601f82011682018060405250810190610f769190612395565b60405163fc57d4df60e01b81526001600160a01b038a8116600483015291925060009184169063fc57d4df90602401602060405180830381865afa158015610fc2573d6000803e3d6000fd5b505050506040513d601f19601f82011682018060405250810190610fe69190612395565b90506000610ffc83670de0b6b3a76400006123c4565b8289611010670de0b6b3a76400008b61240d565b61101a91906123c4565b61102491906123c4565b61102e91906123f9565b60405163cfcd4c0760e01b8152600481018290529091506001600160a01b038a169063cfcd4c0790602401602060405180830381865afa158015611076573d6000803e3d6000fd5b505050506040513d601f19601f8201168201806040525081019061109a9190612395565b9a9950505050505050505050565b60008515806110b5575084155b806110c85750670de0b6b3a76400008211155b156110d5575060006113c3565b6000846001600160a01b0316635fe3b5676040518163ffffffff1660e01b8152600401602060405180830381865afa158015611115573d6000803e3d6000fd5b505050506040513d601f19601f820116820180604052508101906111399190612378565b90506000816001600160a01b0316637dc0d1d06040518163ffffffff1660e01b8152600401602060405180830381865afa15801561117b573d6000803e3d6000fd5b505050506040513d601f19601f8201168201806040525081019061119f9190612378565b60405163fc57d4df60e01b81526001600160a01b03888116600483015291925060009183169063fc57d4df90602401602060405180830381865afa1580156111eb573d6000803e3d6000fd5b505050506040513d601f19601f8201168201806040525081019061120f9190612395565b90506000670de0b6b3a7640000611226878b6123c4565b61123091906123f9565b9050600061123e828c6123c4565b90506000670de0b6b3a764000061125585846123c4565b61125f91906123f9565b905060008461126e8d8661240d565b61127891906123c4565b905060008060029054906101000a90046001600160a01b03166001600160a01b031663a385fb966040518163ffffffff1660e01b8152600401602060405180830381865afa1580156112ce573d6000803e3d6000fd5b505050506040513d601f19601f820116820180604052508101906112f29190612395565b8b6001600160a01b031663f8f9da286040518163ffffffff1660e01b8152600401602060405180830381865afa158015611330573d6000803e3d6000fd5b505050506040513d601f19601f820116820180604052508101906113549190612395565b61135e91906123c4565b90506000670de0b6b3a764000061137584846123c4565b61137f91906123f9565b9050600061138d828661262c565b90508e61139a898361266b565b6113ac90670de0b6b3a7640000612699565b6113b6919061266b565b9a50505050505050505050505b95945050505050565b6060836001600160401b038111156113e6576113e6612457565b60405190808252806020026020018201604052801561141f57816020015b61140c611dc9565b8152602001906001900390816114045790505b50905060005b848110156114a5576114758686838181106114425761144261254e565b90506020020160208101906114579190611efb565b8585848181106114695761146961254e565b905060200201356101b0565b8282815181106114875761148761254e565b6020026020010181905250808061149d90612611565b915050611425565b50949350505050565b6060806060806060806060806060600060029054906101000a90046001600160a01b03166001600160a01b031663a339d7516040518163ffffffff1660e01b8152600401600060405180830381865afa15801561150f573d6000803e3d6000fd5b505050506040513d6000823e601f3d908101601f19168201604052611537919081019061249d565b985088516001600160401b0381111561155257611552612457565b60405190808252806020026020018201604052801561157b578160200160208202803683370190505b50975088516001600160401b0381111561159757611597612457565b6040519080825280602002602001820160405280156115c0578160200160208202803683370190505b50965088516001600160401b038111156115dc576115dc612457565b604051908082528060200260200182016040528015611605578160200160208202803683370190505b50955088516001600160401b0381111561162157611621612457565b60405190808252806020026020018201604052801561165457816020015b606081526020019060019003908161163f5790505b50945088516001600160401b0381111561167057611670612457565b6040519080825280602002602001820160405280156116a357816020015b606081526020019060019003908161168e5790505b50935088516001600160401b038111156116bf576116bf612457565b6040519080825280602002602001820160405280156116e8578160200160208202803683370190505b50915088516001600160401b0381111561170457611704612457565b60405190808252806020026020018201604052801561172d578160200160208202803683370190505b50925088516001600160401b0381111561174957611749612457565b604051908082528060200260200182016040528015611772578160200160208202803683370190505b50905060005b8951811015611c8d5760008a82815181106117955761179561254e565b60200260200101519050806001600160a01b0316635fe3b5676040518163ffffffff1660e01b8152600401602060405180830381865afa1580156117dd573d6000803e3d6000fd5b505050506040513d601f19601f820116820180604052508101906118019190612378565b8a83815181106118135761181361254e565b60200260200101906001600160a01b031690816001600160a01b0316815250508982815181106118455761184561254e565b60200260200101516001600160a01b0316637dc0d1d06040518163ffffffff1660e01b8152600401602060405180830381865afa15801561188a573d6000803e3d6000fd5b505050506040513d601f19601f820116820180604052508101906118ae9190612378565b60405163fc57d4df60e01b81526001600160a01b038381166004830152919091169063fc57d4df90602401602060405180830381865afa1580156118f6573d6000803e3d6000fd5b505050506040513d601f19601f8201168201806040525081019061191a9190612395565b88838151811061192c5761192c61254e565b602002602001018181525050806001600160a01b0316636f307dc36040518163ffffffff1660e01b8152600401602060405180830381865afa158015611976573d6000803e3d6000fd5b505050506040513d601f19601f8201168201806040525081019061199a9190612378565b8983815181106119ac576119ac61254e565b60200260200101906001600160a01b031690816001600160a01b03168152505060008983815181106119e0576119e061254e565b60200260200101519050806001600160a01b03166306fdde036040518163ffffffff1660e01b8152600401600060405180830381865afa158015611a28573d6000803e3d6000fd5b505050506040513d6000823e601f3d908101601f19168201604052611a509190810190612564565b888481518110611a6257611a6261254e565b6020026020010181905250806001600160a01b03166395d89b416040518163ffffffff1660e01b8152600401600060405180830381865afa158015611aab573d6000803e3d6000fd5b505050506040513d6000823e601f3d908101601f19168201604052611ad39190810190612564565b878481518110611ae557611ae561254e565b6020026020010181905250806001600160a01b031663313ce5676040518163ffffffff1660e01b8152600401602060405180830381865afa158015611b2e573d6000803e3d6000fd5b505050506040513d601f19601f82011682018060405250810190611b5291906125ee565b868481518110611b6457611b6461254e565b602002602001019060ff16908160ff1681525050816001600160a01b0316634aeb3d9a6040518163ffffffff1660e01b8152600401602060405180830381865afa158015611bb6573d6000803e3d6000fd5b505050506040513d601f19601f82011682018060405250810190611bda9190612395565b858481518110611bec57611bec61254e565b602002602001018181525050816001600160a01b031663ae9d70b06040518163ffffffff1660e01b8152600401602060405180830381865afa158015611c36573d6000803e3d6000fd5b505050506040513d601f19601f82011682018060405250810190611c5a9190612395565b848481518110611c6c57611c6c61254e565b60200260200101818152505050508080611c8590612611565b915050611778565b50909192939495969798565b600054610100900460ff1615808015611cb95750600054600160ff909116105b80611cd35750303b158015611cd3575060005460ff166001145b611d3a5760405162461bcd60e51b815260206004820152602e60248201527f496e697469616c697a61626c653a20636f6e747261637420697320616c72656160448201526d191e481a5b9a5d1a585b1a5e995960921b606482015260840160405180910390fd5b6000805460ff191660011790558015611d5d576000805461ff0019166101001790555b6000805462010000600160b01b031916620100006001600160a01b038516021790558015611dc5576000805461ff0019169055604051600181527f7f26b83ff96e1f2b6a682f133852f6798a09c465da95921460cefb38474024989060200160405180910390a15b5050565b6040518061018001604052806000815260200160008152602001600081526020016000815260200160008152602001600081526020016000815260200160008152602001600081526020016000815260200160008152602001600081525090565b6001600160a01b0381168114611e3f57600080fd5b50565b60008060408385031215611e5557600080fd5b8235611e6081611e2a565b946020939093013593505050565b805182526020810151602083015260408101516040830152606081015160608301526080810151608083015260a081015160a083015260c081015160c083015260e081015160e08301526101008082015181840152506101208082015181840152506101408082015181840152506101608082015181840152505050565b610180810161094a8284611e6e565b600060208284031215611f0d57600080fd5b8135611f1881611e2a565b9392505050565b600081518084526020808501945080840160005b83811015611f585781516001600160a01b031687529582019590820190600101611f33565b509495945050505050565b60005b83811015611f7e578181015183820152602001611f66565b83811115611f8d576000848401525b50505050565b600081518084526020808501808196508360051b8101915082860160005b85811015611ff357828403895281518051808652611fd481888801898501611f63565b99860199601f01601f1916949094018501935090840190600101611fb1565b5091979650505050505050565b600081518084526020808501945080840160005b83811015611f5857815187529582019590820190600101612014565b600081518084526020808501945080840160005b83811015611f5857815160ff1687529582019590820190600101612044565b60c08152600061207660c0830189611f1f565b82810360208401526120888189611f1f565b9050828103604084015261209c8188611f93565b905082810360608401526120b08187611f93565b905082810360808401526120c48186612000565b905082810360a08401526120d88185612030565b9998505050505050505050565b600080600080608085870312156120fb57600080fd5b843561210681611e2a565b9350602085013561211681611e2a565b93969395505050506040820135916060013590565b600080600080600060a0868803121561214357600080fd5b8535945060208601359350604086013561215c81611e2a565b9250606086013561216c81611e2a565b949793965091946080013592915050565b60008083601f84011261218f57600080fd5b5081356001600160401b038111156121a657600080fd5b6020830191508360208260051b85010111156121c157600080fd5b9250929050565b600080600080604085870312156121de57600080fd5b84356001600160401b03808211156121f557600080fd5b6122018883890161217d565b9096509450602087013591508082111561221a57600080fd5b506122278782880161217d565b95989497509550505050565b6020808252825182820181905260009190848201906040850190845b8181101561227657612262838551611e6e565b92840192610180929092019160010161224f565b50909695505050505050565b60006101208083526122968184018d611f1f565b9050602083820381850152818c518084528284019150828e01935060005b818110156122d95784516001600160a01b0316835293830193918301916001016122b4565b505084810360408601526122ed818d611f1f565b925050508281036060840152612303818a612000565b905082810360808401526123178189611f93565b905082810360a084015261232b8188611f93565b905082810360c084015261233f8187612030565b905082810360e08401526123538186612000565b90508281036101008401526123688185612000565b9c9b505050505050505050505050565b60006020828403121561238a57600080fd5b8151611f1881611e2a565b6000602082840312156123a757600080fd5b5051919050565b634e487b7160e01b600052601160045260246000fd5b60008160001904831182151516156123de576123de6123ae565b500290565b634e487b7160e01b600052601260045260246000fd5b600082612408576124086123e3565b500490565b60008282101561241f5761241f6123ae565b500390565b6000806040838503121561243757600080fd5b8251801515811461244757600080fd5b6020939093015192949293505050565b634e487b7160e01b600052604160045260246000fd5b604051601f8201601f191681016001600160401b038111828210171561249557612495612457565b604052919050565b600060208083850312156124b057600080fd5b82516001600160401b03808211156124c757600080fd5b818501915085601f8301126124db57600080fd5b8151818111156124ed576124ed612457565b8060051b91506124fe84830161246d565b818152918301840191848101908884111561251857600080fd5b938501935b83851015612542578451925061253283611e2a565b828252938501939085019061251d565b98975050505050505050565b634e487b7160e01b600052603260045260246000fd5b60006020828403121561257657600080fd5b81516001600160401b038082111561258d57600080fd5b818401915084601f8301126125a157600080fd5b8151818111156125b3576125b3612457565b6125c6601f8201601f191660200161246d565b91508082528560208285010111156125dd57600080fd5b6114a5816020840160208601611f63565b60006020828403121561260057600080fd5b815160ff81168114611f1857600080fd5b6000600019821415612625576126256123ae565b5060010190565b60008083128015600160ff1b85018412161561264a5761264a6123ae565b6001600160ff1b0384018313811615612665576126656123ae565b50500390565b60008261267a5761267a6123e3565b600160ff1b821460001984141615612694576126946123ae565b500590565b60006001600160ff1b03818413828413808216868404861116156126bf576126bf6123ae565b600160ff1b60008712828116878305891216156126de576126de6123ae565b600087129250878205871284841616156126fa576126fa6123ae565b87850587128184161615612710576127106123ae565b50505092909302939250505056fea164736f6c634300080a000a",
    "linkReferences": {}
  },
  "methodIdentifiers": {
    "factory()": "c45a0155",
    "getBorrowRateAtRatio(address,address,uint256,uint256)": "6bbdc780",
    "getBorrowableMarketsAndRates(address)": "60ff773e",
    "getCollateralMarkets()": "c03497c0",
    "getNetAPY(uint256,uint256,address,address,uint256)": "8de1624d",
    "getNetApyForPosition(address,uint256)": "1a610317",
    "getPositionInfo(address,uint256)": "1327d7fb",
    "getPositionsInfo(address[],uint256[])": "8f4b1166",
    "initialize(address)": "c4d66de8"
  }
}