{
  "address": "0x927F22bfC0976A83463A48D9E9A0eFC169A5Efe6",
  "abi": [
    {
      "inputs": [],
      "stateMutability": "nonpayable",
      "type": "constructor"
    },
    {
      "inputs": [],
      "name": "NoSuchPosition",
      "type": "error"
    },
    {
      "inputs": [],
      "name": "PairNotWhitelisted",
      "type": "error"
    },
    {
      "inputs": [],
      "name": "PositionNotClosed",
      "type": "error"
    },
    {
      "anonymous": false,
      "inputs": [
        {
          "indexed": false,
          "internalType": "uint8",
          "name": "version",
          "type": "uint8"
        }
      ],
      "name": "Initialized",
      "type": "event"
    },
    {
      "anonymous": false,
      "inputs": [
        {
          "indexed": false,
          "internalType": "address",
          "name": "oldOwner",
          "type": "address"
        },
        {
          "indexed": false,
          "internalType": "address",
          "name": "newOwner",
          "type": "address"
        }
      ],
      "name": "NewOwner",
      "type": "event"
    },
    {
      "anonymous": false,
      "inputs": [
        {
          "indexed": false,
          "internalType": "address",
          "name": "oldPendingOwner",
          "type": "address"
        },
        {
          "indexed": false,
          "internalType": "address",
          "name": "newPendingOwner",
          "type": "address"
        }
      ],
      "name": "NewPendingOwner",
      "type": "event"
    },
    {
      "anonymous": false,
      "inputs": [
        {
          "indexed": true,
          "internalType": "address",
          "name": "previousOwner",
          "type": "address"
        },
        {
          "indexed": true,
          "internalType": "address",
          "name": "newOwner",
          "type": "address"
        }
      ],
      "name": "OwnershipTransferred",
      "type": "event"
    },
    {
      "inputs": [],
      "name": "MAX_SLIPPAGE",
      "outputs": [
        {
          "internalType": "uint256",
          "name": "",
          "type": "uint256"
        }
      ],
      "stateMutability": "view",
      "type": "function"
    },
    {
      "inputs": [],
      "name": "_acceptOwner",
      "outputs": [],
      "stateMutability": "nonpayable",
      "type": "function"
    },
    {
      "inputs": [
        {
          "internalType": "contract ILiquidatorsRegistry",
          "name": "_liquidatorsRegistry",
          "type": "address"
        }
      ],
      "name": "_setLiquidatorsRegistry",
      "outputs": [],
      "stateMutability": "nonpayable",
      "type": "function"
    },
    {
      "inputs": [
        {
          "internalType": "contract ICErc20",
          "name": "_collateralMarket",
          "type": "address"
        },
        {
          "internalType": "contract ICErc20",
          "name": "_stableMarket",
          "type": "address"
        },
        {
          "internalType": "bool",
          "name": "_whitelisted",
          "type": "bool"
        }
      ],
      "name": "_setPairWhitelisted",
      "outputs": [],
      "stateMutability": "nonpayable",
      "type": "function"
    },
    {
      "inputs": [
        {
          "internalType": "address",
          "name": "newPendingOwner",
          "type": "address"
        }
      ],
      "name": "_setPendingOwner",
      "outputs": [],
      "stateMutability": "nonpayable",
      "type": "function"
    },
    {
      "inputs": [
        {
          "internalType": "contract IERC20Upgradeable[]",
          "name": "inputTokens",
          "type": "address[]"
        },
        {
          "internalType": "contract IERC20Upgradeable[]",
          "name": "outputTokens",
          "type": "address[]"
        },
        {
          "internalType": "uint256[]",
          "name": "slippages",
          "type": "uint256[]"
        }
      ],
      "name": "_setSlippages",
      "outputs": [],
      "stateMutability": "nonpayable",
      "type": "function"
    },
    {
      "inputs": [],
      "name": "blocksPerYear",
      "outputs": [
        {
          "internalType": "uint256",
          "name": "",
          "type": "uint256"
        }
      ],
      "stateMutability": "view",
      "type": "function"
    },
    {
      "inputs": [
        {
          "internalType": "contract ICErc20",
          "name": "_collateralMarket",
          "type": "address"
        },
        {
          "internalType": "contract ICErc20",
          "name": "_stableMarket",
          "type": "address"
        },
        {
          "internalType": "contract IERC20Upgradeable",
          "name": "_fundingAsset",
          "type": "address"
        },
        {
          "internalType": "uint256",
          "name": "_fundingAmount",
          "type": "uint256"
        }
      ],
      "name": "createAndFundPosition",
      "outputs": [
        {
          "internalType": "contract LeveredPosition",
          "name": "",
          "type": "address"
        }
      ],
      "stateMutability": "nonpayable",
      "type": "function"
    },
    {
      "inputs": [
        {
          "internalType": "contract ICErc20",
          "name": "_collateralMarket",
          "type": "address"
        },
        {
          "internalType": "contract ICErc20",
          "name": "_stableMarket",
          "type": "address"
        },
        {
          "internalType": "contract IERC20Upgradeable",
          "name": "_fundingAsset",
          "type": "address"
        },
        {
          "internalType": "uint256",
          "name": "_fundingAmount",
          "type": "uint256"
        },
        {
          "internalType": "uint256",
          "name": "_leverageRatio",
          "type": "uint256"
        }
      ],
      "name": "createAndFundPositionAtRatio",
      "outputs": [
        {
          "internalType": "contract LeveredPosition",
          "name": "",
          "type": "address"
        }
      ],
      "stateMutability": "nonpayable",
      "type": "function"
    },
    {
      "inputs": [
        {
          "internalType": "contract ICErc20",
          "name": "_collateralMarket",
          "type": "address"
        },
        {
          "internalType": "contract ICErc20",
          "name": "_stableMarket",
          "type": "address"
        }
      ],
      "name": "createPosition",
      "outputs": [
        {
          "internalType": "contract LeveredPosition",
          "name": "",
          "type": "address"
        }
      ],
      "stateMutability": "nonpayable",
      "type": "function"
    },
    {
      "inputs": [],
      "name": "fuseFeeDistributor",
      "outputs": [
        {
          "internalType": "contract IFuseFeeDistributor",
          "name": "",
          "type": "address"
        }
      ],
      "stateMutability": "view",
      "type": "function"
    },
    {
      "inputs": [],
      "name": "getAccountsWithOpenPositions",
      "outputs": [
        {
          "internalType": "address[]",
          "name": "",
          "type": "address[]"
        }
      ],
      "stateMutability": "view",
      "type": "function"
    },
    {
      "inputs": [
        {
          "internalType": "contract ICErc20",
          "name": "_collateralMarket",
          "type": "address"
        },
        {
          "internalType": "contract ICErc20",
          "name": "_stableMarket",
          "type": "address"
        },
        {
          "internalType": "uint256",
          "name": "_baseCollateral",
          "type": "uint256"
        },
        {
          "internalType": "uint256",
          "name": "_targetLeverageRatio",
          "type": "uint256"
        }
      ],
      "name": "getBorrowRateAtRatio",
      "outputs": [
        {
          "internalType": "uint256",
          "name": "",
          "type": "uint256"
        }
      ],
      "stateMutability": "view",
      "type": "function"
    },
    {
      "inputs": [
        {
          "internalType": "contract ICErc20",
          "name": "_collateralMarket",
          "type": "address"
        }
      ],
      "name": "getBorrowableMarketsAndRates",
      "outputs": [
        {
          "internalType": "address[]",
          "name": "markets",
          "type": "address[]"
        },
        {
          "internalType": "address[]",
          "name": "underlyings",
          "type": "address[]"
        },
        {
          "internalType": "string[]",
          "name": "names",
          "type": "string[]"
        },
        {
          "internalType": "string[]",
          "name": "symbols",
          "type": "string[]"
        },
        {
          "internalType": "uint256[]",
          "name": "rates",
          "type": "uint256[]"
        },
        {
          "internalType": "uint8[]",
          "name": "decimals",
          "type": "uint8[]"
        }
      ],
      "stateMutability": "view",
      "type": "function"
    },
    {
      "inputs": [
        {
          "internalType": "contract ICErc20",
          "name": "_collateralMarket",
          "type": "address"
        }
      ],
      "name": "getBorrowableMarketsByCollateral",
      "outputs": [
        {
          "internalType": "address[]",
          "name": "",
          "type": "address[]"
        }
      ],
      "stateMutability": "view",
      "type": "function"
    },
    {
      "inputs": [],
      "name": "getCollateralMarkets",
      "outputs": [
        {
          "internalType": "address[]",
          "name": "markets",
          "type": "address[]"
        },
        {
          "internalType": "address[]",
          "name": "poolOfMarket",
          "type": "address[]"
        },
        {
          "internalType": "address[]",
          "name": "underlyings",
          "type": "address[]"
        },
        {
          "internalType": "string[]",
          "name": "names",
          "type": "string[]"
        },
        {
          "internalType": "string[]",
          "name": "symbols",
          "type": "string[]"
        },
        {
          "internalType": "uint8[]",
          "name": "decimals",
          "type": "uint8[]"
        },
        {
          "internalType": "uint256[]",
          "name": "totalUnderlyingSupplied",
          "type": "uint256[]"
        },
        {
          "internalType": "uint256[]",
          "name": "ratesPerBlock",
          "type": "uint256[]"
        }
      ],
      "stateMutability": "view",
      "type": "function"
    },
    {
      "inputs": [],
      "name": "getMinBorrowNative",
      "outputs": [
        {
          "internalType": "uint256",
          "name": "",
          "type": "uint256"
        }
      ],
      "stateMutability": "view",
      "type": "function"
    },
    {
      "inputs": [
        {
          "internalType": "address",
          "name": "account",
          "type": "address"
        }
      ],
      "name": "getPositionsByAccount",
      "outputs": [
        {
          "internalType": "address[]",
          "name": "",
          "type": "address[]"
        }
      ],
      "stateMutability": "view",
      "type": "function"
    },
    {
      "inputs": [
        {
          "internalType": "contract IERC20Upgradeable",
          "name": "inputToken",
          "type": "address"
        },
        {
          "internalType": "contract IERC20Upgradeable",
          "name": "outputToken",
          "type": "address"
        }
      ],
      "name": "getRedemptionStrategies",
      "outputs": [
        {
          "internalType": "contract IRedemptionStrategy[]",
          "name": "strategies",
          "type": "address[]"
        },
        {
          "internalType": "bytes[]",
          "name": "strategiesData",
          "type": "bytes[]"
        }
      ],
      "stateMutability": "view",
      "type": "function"
    },
    {
      "inputs": [
        {
          "internalType": "contract IERC20Upgradeable",
          "name": "inputToken",
          "type": "address"
        },
        {
          "internalType": "contract IERC20Upgradeable",
          "name": "outputToken",
          "type": "address"
        }
      ],
      "name": "getSlippage",
      "outputs": [
        {
          "internalType": "uint256",
          "name": "slippage",
          "type": "uint256"
        }
      ],
      "stateMutability": "view",
      "type": "function"
    },
    {
      "inputs": [],
      "name": "getWhitelistedCollateralMarkets",
      "outputs": [
        {
          "internalType": "address[]",
          "name": "",
          "type": "address[]"
        }
      ],
      "stateMutability": "view",
      "type": "function"
    },
    {
      "inputs": [
        {
          "internalType": "contract IFuseFeeDistributor",
          "name": "_fuseFeeDistributor",
          "type": "address"
        },
        {
          "internalType": "contract ILiquidatorsRegistry",
          "name": "_registry",
          "type": "address"
        },
        {
          "internalType": "uint256",
          "name": "_blocksPerYear",
          "type": "uint256"
        }
      ],
      "name": "initialize",
      "outputs": [],
      "stateMutability": "nonpayable",
      "type": "function"
    },
    {
      "inputs": [
        {
          "internalType": "contract IERC20Upgradeable",
          "name": "inputToken",
          "type": "address"
        },
        {
          "internalType": "contract IERC20Upgradeable",
          "name": "outputToken",
          "type": "address"
        }
      ],
      "name": "isFundingAllowed",
      "outputs": [
        {
          "internalType": "bool",
          "name": "",
          "type": "bool"
        }
      ],
      "stateMutability": "view",
      "type": "function"
    },
    {
      "inputs": [],
      "name": "liquidatorsRegistry",
      "outputs": [
        {
          "internalType": "contract ILiquidatorsRegistry",
          "name": "",
          "type": "address"
        }
      ],
      "stateMutability": "view",
      "type": "function"
    },
    {
      "inputs": [],
      "name": "owner",
      "outputs": [
        {
          "internalType": "address",
          "name": "",
          "type": "address"
        }
      ],
      "stateMutability": "view",
      "type": "function"
    },
    {
      "inputs": [],
      "name": "pendingOwner",
      "outputs": [
        {
          "internalType": "address",
          "name": "",
          "type": "address"
        }
      ],
      "stateMutability": "view",
      "type": "function"
    },
    {
      "inputs": [
        {
          "internalType": "address",
          "name": "closedPosition",
          "type": "address"
        }
      ],
      "name": "removeClosedPosition",
      "outputs": [
        {
          "internalType": "bool",
          "name": "removed",
          "type": "bool"
        }
      ],
      "stateMutability": "nonpayable",
      "type": "function"
    },
    {
      "inputs": [],
      "name": "renounceOwnership",
      "outputs": [],
      "stateMutability": "nonpayable",
      "type": "function"
    },
    {
      "inputs": [
        {
          "internalType": "address",
          "name": "newOwner",
          "type": "address"
        }
      ],
      "name": "transferOwnership",
      "outputs": [],
      "stateMutability": "nonpayable",
      "type": "function"
    }
  ],
  "transactionHash": "0xca2b56afdab190ff70b8c7f782518530acc7f1df3944fb81eb5d28e7983e535f",
  "args": [],
  "numDeployments": 15,
  "bytecode": {
    "object": "0x60806040523480156200001157600080fd5b506200001c62000022565b620000e4565b600054610100900460ff16156200008f5760405162461bcd60e51b815260206004820152602760248201527f496e697469616c697a61626c653a20636f6e747261637420697320696e697469604482015266616c697a696e6760c81b606482015260840160405180910390fd5b60005460ff9081161015620000e2576000805460ff191660ff9081179091556040519081527f7f26b83ff96e1f2b6a682f133852f6798a09c465da95921460cefb38474024989060200160405180910390a15b565b615f6480620000f46000396000f3fe60806040523480156200001157600080fd5b5060043610620001f55760003560e01c8063715018a61162000119578063c03497c011620000af578063f2fde38b116200007a578063f2fde38b146200046a578063f4e610661462000481578063f97595181462000498578063fc4d33f914620004a257600080fd5b8063c03497c014620003f8578063ca2de6bc1462000418578063e30c3978146200042f578063ed287f3f146200044357600080fd5b80638715b16b11620000f05780638715b16b14620003bb5780638da5cb5b14620003d2578063a339d75114620003e4578063a385fb9614620003ee57600080fd5b8063715018a614620003725780637bf8f349146200037c5780637c5ec997146200039357600080fd5b8063534da460116200018f5780636817de8111620001665780636817de8114620003195780636969e58b146200032d5780636bbdc78014620003445780636e96dfd7146200035b57600080fd5b8063534da46014620002c05780635495a6d714620002d757806360ff773e14620002ee57600080fd5b806312468b7711620001d057806312468b77146200025b57806316bb997f14620002655780631794bb3c14620002925780632f53ef2b14620002a957600080fd5b8063035d2a3814620001fa5780630973e91614620002135780630da2262c1462000242575b600080fd5b620002116200020b366004620025b6565b620004ac565b005b6200022a6200022436600462002608565b62000683565b6040516200023991906200266e565b60405180910390f35b6200024c620006af565b60405190815260200162000239565b6200022a62000725565b60675462000279906001600160a01b031681565b6040516001600160a01b03909116815260200162000239565b62000211620002a336600462002683565b62000733565b6200024c620002ba366004620026c9565b62000885565b62000279620002d136600462002707565b620008bb565b62000211620002e8366004620027b0565b62000a37565b62000305620002ff36600462002608565b62000b6a565b604051620002399695949392919062002970565b60665462000279906001600160a01b031681565b620002796200033e366004620026c9565b62001042565b6200024c62000355366004620029fe565b62001108565b620002116200036c36600462002608565b62001390565b62000211620013fc565b620002796200038d36600462002a49565b62001442565b620003aa620003a4366004620026c9565b6200154f565b604051901515815260200162000239565b62000211620003cc36600462002608565b620015d0565b6033546001600160a01b031662000279565b6200022a620015fc565b6200024c60685481565b620004026200160a565b6040516200023998979695949392919062002aa1565b620003aa6200042936600462002608565b62001c75565b60655462000279906001600160a01b031681565b6200045a62000454366004620026c9565b62001d64565b6040516200023992919062002b60565b620002116200047b36600462002608565b62001df1565b6200022a6200049236600462002608565b62001e64565b6200024c61038481565b6200021162001e8a565b620004b662001fa4565b816001600160a01b0316635fe3b5676040518163ffffffff1660e01b8152600401602060405180830381865afa158015620004f5573d6000803e3d6000fd5b505050506040513d601f19601f820116820180604052508101906200051b919062002c07565b6001600160a01b0316836001600160a01b0316635fe3b5676040518163ffffffff1660e01b8152600401602060405180830381865afa15801562000563573d6000803e3d6000fd5b505050506040513d601f19601f8201168201806040525081019062000589919062002c07565b6001600160a01b031614620005e55760405162461bcd60e51b815260206004820152601c60248201527f6d61726b657473206e6f74206f66207468652073616d6520706f6f6c0000000060448201526064015b60405180910390fd5b80156200062457620005f9606a8462002002565b506001600160a01b0383166000908152606c602052604090206200061e908362002002565b50505050565b6001600160a01b0383166000908152606c6020526040902062000648908362002019565b506001600160a01b0383166000908152606c602052604090206200066c9062002030565b6200067e576200061e606a8462002019565b505050565b6001600160a01b0381166000908152606960205260409020606090620006a9906200203b565b92915050565b6066546040805163fdb25fb160e01b815290516000926001600160a01b03169163fdb25fb19160048083019260209291908290030181865afa158015620006fa573d6000803e3d6000fd5b505050506040513d601f19601f8201168201806040525081019062000720919062002c27565b905090565b606062000720606e6200203b565b600054610100900460ff1615808015620007545750600054600160ff909116105b80620007705750303b15801562000770575060005460ff166001145b620007d55760405162461bcd60e51b815260206004820152602e60248201527f496e697469616c697a61626c653a20636f6e747261637420697320616c72656160448201526d191e481a5b9a5d1a585b1a5e995960921b6064820152608401620005dc565b6000805460ff191660011790558015620007f9576000805461ff0019166101001790555b62000804336200204a565b606680546001600160a01b038087166001600160a01b0319928316179092556067805492861692909116919091179055606882905580156200061e576000805461ff0019169055604051600181527f7f26b83ff96e1f2b6a682f133852f6798a09c465da95921460cefb38474024989060200160405180910390a150505050565b6001600160a01b038083166000908152606d602090815260408083209385168352929052205480620006a9575061038492915050565b600080620008ca878762001042565b9050620008e36001600160a01b0386163330876200208c565b60405163095ea7b360e01b81526001600160a01b0382811660048301526024820186905286169063095ea7b3906044016020604051808303816000875af115801562000933573d6000803e3d6000fd5b505050506040513d601f19601f8201168201806040525081019062000959919062002c41565b50604051633a8a230760e01b81526001600160a01b03868116600483015260248201869052821690633a8a230790604401600060405180830381600087803b158015620009a557600080fd5b505af1158015620009ba573d6000803e3d6000fd5b5050604051639028493360e01b8152600481018690526001600160a01b0384169250639028493391506024016020604051808303816000875af115801562000a06573d6000803e3d6000fd5b505050506040513d601f19601f8201168201806040525081019062000a2c919062002c27565b509695505050505050565b62000a4162001fa4565b808514801562000a5057508483145b62000a8c5760405162461bcd60e51b815260206004820152600b60248201526a10b0b93930bcb9903632b760a91b6044820152606401620005dc565b60005b8181101562000b615782828281811062000aad5762000aad62002c61565b90506020020135606d600089898581811062000acd5762000acd62002c61565b905060200201602081019062000ae4919062002608565b6001600160a01b03166001600160a01b03168152602001908152602001600020600087878581811062000b1b5762000b1b62002c61565b905060200201602081019062000b32919062002608565b6001600160a01b031681526020810191909152604001600020558062000b588162002c8d565b91505062000a8f565b50505050505050565b60608060608060608062000ba2606c6000896001600160a01b03166001600160a01b031681526020019081526020016000206200203b565b955085516001600160401b0381111562000bc05762000bc062002cab565b60405190808252806020026020018201604052801562000bea578160200160208202803683370190505b50945085516001600160401b0381111562000c095762000c0962002cab565b60405190808252806020026020018201604052801562000c3e57816020015b606081526020019060019003908162000c285790505b50935085516001600160401b0381111562000c5d5762000c5d62002cab565b60405190808252806020026020018201604052801562000c9257816020015b606081526020019060019003908162000c7c5790505b50925085516001600160401b0381111562000cb15762000cb162002cab565b60405190808252806020026020018201604052801562000cdb578160200160208202803683370190505b50915085516001600160401b0381111562000cfa5762000cfa62002cab565b60405190808252806020026020018201604052801562000d24578160200160208202803683370190505b50905060005b86518110156200103857600087828151811062000d4b5762000d4b62002c61565b602002602001015190506000816001600160a01b0316636f307dc36040518163ffffffff1660e01b8152600401602060405180830381865afa15801562000d96573d6000803e3d6000fd5b505050506040513d601f19601f8201168201806040525081019062000dbc919062002c07565b90508088848151811062000dd45762000dd462002c61565b60200260200101906001600160a01b031690816001600160a01b0316815250506000819050806001600160a01b03166306fdde036040518163ffffffff1660e01b8152600401600060405180830381865afa15801562000e38573d6000803e3d6000fd5b505050506040513d6000823e601f3d908101601f1916820160405262000e62919081019062002d4a565b88858151811062000e775762000e7762002c61565b6020026020010181905250806001600160a01b03166395d89b416040518163ffffffff1660e01b8152600401600060405180830381865afa15801562000ec1573d6000803e3d6000fd5b505050506040513d6000823e601f3d908101601f1916820160405262000eeb919081019062002d4a565b87858151811062000f005762000f0062002c61565b6020026020010181905250826001600160a01b031663f8f9da286040518163ffffffff1660e01b8152600401602060405180830381865afa15801562000f4a573d6000803e3d6000fd5b505050506040513d601f19601f8201168201806040525081019062000f70919062002c27565b86858151811062000f855762000f8562002c61565b602002602001018181525050806001600160a01b031663313ce5676040518163ffffffff1660e01b8152600401602060405180830381865afa15801562000fd0573d6000803e3d6000fd5b505050506040513d601f19601f8201168201806040525081019062000ff6919062002d97565b8585815181106200100b576200100b62002c61565b602002602001019060ff16908160ff168152505050505080806200102f9062002c8d565b91505062000d2a565b5091939550919395565b6001600160a01b0382166000908152606c60205260408120620010669083620020e8565b6200108457604051633f94e3f760e01b815260040160405180910390fd5b6000338484604051620010979062002583565b6001600160a01b03938416815291831660208301529091166040820152606001604051809103906000f080158015620010d4573d6000803e3d6000fd5b509050620010e4606e3362002002565b5033600090815260696020526040902062001100908262002002565b509392505050565b600080846001600160a01b0316635fe3b5676040518163ffffffff1660e01b8152600401602060405180830381865afa1580156200114a573d6000803e3d6000fd5b505050506040513d601f19601f8201168201806040525081019062001170919062002c07565b90506000816001600160a01b0316637dc0d1d06040518163ffffffff1660e01b8152600401602060405180830381865afa158015620011b3573d6000803e3d6000fd5b505050506040513d601f19601f82011682018060405250810190620011d9919062002c07565b60405163fc57d4df60e01b81526001600160a01b03888116600483015291925060009183169063fc57d4df90602401602060405180830381865afa15801562001226573d6000803e3d6000fd5b505050506040513d601f19601f820116820180604052508101906200124c919062002c27565b60405163fc57d4df60e01b81526001600160a01b038a8116600483015291925060009184169063fc57d4df90602401602060405180830381865afa15801562001299573d6000803e3d6000fd5b505050506040513d601f19601f82011682018060405250810190620012bf919062002c27565b90506000620012d783670de0b6b3a764000062002dbc565b8289620012ed670de0b6b3a76400008b62002dde565b620012f9919062002dbc565b62001305919062002dbc565b62001311919062002df8565b60405163cfcd4c0760e01b8152600481018290529091506001600160a01b038a169063cfcd4c0790602401602060405180830381865afa1580156200135a573d6000803e3d6000fd5b505050506040513d601f19601f8201168201806040525081019062001380919062002c27565b955050505050505b949350505050565b6200139a62001fa4565b606580546001600160a01b038381166001600160a01b031983168117909355604080519190921680825260208201939093527fb3d55174552271a4f1aaf36b72f50381e892171636b3fb5447fe00e995e7a37b91015b60405180910390a15050565b6200140662001fa4565b60405162461bcd60e51b815260206004820152601060248201526f6e6f74207573656420616e796d6f726560801b6044820152606401620005dc565b60008062001451868662001042565b90506200146a6001600160a01b0385163330866200208c565b60405163095ea7b360e01b81526001600160a01b0382811660048301526024820185905285169063095ea7b3906044016020604051808303816000875af1158015620014ba573d6000803e3d6000fd5b505050506040513d601f19601f82011682018060405250810190620014e0919062002c41565b50604051633a8a230760e01b81526001600160a01b03858116600483015260248201859052821690633a8a230790604401600060405180830381600087803b1580156200152c57600080fd5b505af115801562001541573d6000803e3d6000fd5b509298975050505050505050565b60675460405163b29e79af60e01b81526001600160a01b0384811660048301528381166024830152600092169063b29e79af90604401602060405180830381865afa158015620015a3573d6000803e3d6000fd5b505050506040513d601f19601f82011682018060405250810190620015c9919062002c41565b9392505050565b620015da62001fa4565b606780546001600160a01b0319166001600160a01b0392909216919091179055565b606062000720606a6200203b565b60608060608060608060608062001622606a6200203b565b975087516001600160401b0381111562001640576200164062002cab565b6040519080825280602002602001820160405280156200166a578160200160208202803683370190505b50965087516001600160401b0381111562001689576200168962002cab565b604051908082528060200260200182016040528015620016b3578160200160208202803683370190505b50955087516001600160401b03811115620016d257620016d262002cab565b6040519080825280602002602001820160405280156200170757816020015b6060815260200190600190039081620016f15790505b50945087516001600160401b0381111562001726576200172662002cab565b6040519080825280602002602001820160405280156200175b57816020015b6060815260200190600190039081620017455790505b50935087516001600160401b038111156200177a576200177a62002cab565b604051908082528060200260200182016040528015620017a4578160200160208202803683370190505b50915087516001600160401b03811115620017c357620017c362002cab565b604051908082528060200260200182016040528015620017ed578160200160208202803683370190505b50925087516001600160401b038111156200180c576200180c62002cab565b60405190808252806020026020018201604052801562001836578160200160208202803683370190505b50905060005b885181101562001c6a5760008982815181106200185d576200185d62002c61565b60200260200101519050806001600160a01b0316635fe3b5676040518163ffffffff1660e01b8152600401602060405180830381865afa158015620018a6573d6000803e3d6000fd5b505050506040513d601f19601f82011682018060405250810190620018cc919062002c07565b898381518110620018e157620018e162002c61565b60200260200101906001600160a01b031690816001600160a01b0316815250506000816001600160a01b0316636f307dc36040518163ffffffff1660e01b8152600401602060405180830381865afa15801562001942573d6000803e3d6000fd5b505050506040513d601f19601f8201168201806040525081019062001968919062002c07565b90508089848151811062001980576200198062002c61565b60200260200101906001600160a01b031690816001600160a01b0316815250506000819050806001600160a01b03166306fdde036040518163ffffffff1660e01b8152600401600060405180830381865afa158015620019e4573d6000803e3d6000fd5b505050506040513d6000823e601f3d908101601f1916820160405262001a0e919081019062002d4a565b89858151811062001a235762001a2362002c61565b6020026020010181905250806001600160a01b03166395d89b416040518163ffffffff1660e01b8152600401600060405180830381865afa15801562001a6d573d6000803e3d6000fd5b505050506040513d6000823e601f3d908101601f1916820160405262001a97919081019062002d4a565b88858151811062001aac5762001aac62002c61565b6020026020010181905250806001600160a01b031663313ce5676040518163ffffffff1660e01b8152600401602060405180830381865afa15801562001af6573d6000803e3d6000fd5b505050506040513d601f19601f8201168201806040525081019062001b1c919062002d97565b87858151811062001b315762001b3162002c61565b602002602001019060ff16908160ff1681525050826001600160a01b0316634aeb3d9a6040518163ffffffff1660e01b8152600401602060405180830381865afa15801562001b84573d6000803e3d6000fd5b505050506040513d601f19601f8201168201806040525081019062001baa919062002c27565b86858151811062001bbf5762001bbf62002c61565b602002602001018181525050826001600160a01b031663ae9d70b06040518163ffffffff1660e01b8152600401602060405180830381865afa15801562001c0a573d6000803e3d6000fd5b505050506040513d601f19601f8201168201806040525081019062001c30919062002c27565b85858151811062001c455762001c4562002c61565b602002602001018181525050505050808062001c619062002c8d565b9150506200183c565b509091929394959697565b33600090815260696020526040812062001c908184620020e8565b62001cae57604051632af0900d60e21b815260040160405180910390fd5b826001600160a01b0316633e2f147f6040518163ffffffff1660e01b8152600401602060405180830381865afa15801562001ced573d6000803e3d6000fd5b505050506040513d601f19601f8201168201806040525081019062001d13919062002c41565b62001d31576040516345916a4760e11b815260040160405180910390fd5b62001d3d818462002019565b915062001d4a8162002030565b62001d5e5762001d5c606e3362002019565b505b50919050565b60675460405163ed287f3f60e01b81526001600160a01b0384811660048301528381166024830152606092839291169063ed287f3f90604401600060405180830381865afa15801562001dbb573d6000803e3d6000fd5b505050506040513d6000823e601f3d908101601f1916820160405262001de5919081019062002ee6565b915091505b9250929050565b62001dfb62001fa4565b606554604080516001600160a01b03928316815291831660208301527fb3d55174552271a4f1aaf36b72f50381e892171636b3fb5447fe00e995e7a37b910160405180910390a1606580546001600160a01b0319166001600160a01b0392909216919091179055565b6001600160a01b0381166000908152606c60205260409020606090620006a9906200203b565b6065546001600160a01b0316331462001ede5760405162461bcd60e51b81526020600482015260156024820152743737ba103a3432903832b73234b7339037bbb732b960591b6044820152606401620005dc565b600062001ef36033546001600160a01b031690565b6065549091506001600160a01b031662001f0d816200210b565b606580546001600160a01b0319169055604080516001600160a01b0384168152600060208201527f70aea8d848e8a90fb7661b227dc522eb6395c3dac71b63cb59edd5c9899b2364910160405180910390a1606554604080516001600160a01b03808516825290921660208301527fb3d55174552271a4f1aaf36b72f50381e892171636b3fb5447fe00e995e7a37b9101620013f0565b6033546001600160a01b03163314620020005760405162461bcd60e51b815260206004820181905260248201527f4f776e61626c653a2063616c6c6572206973206e6f7420746865206f776e65726044820152606401620005dc565b565b6000620015c9836001600160a01b0384166200215d565b6000620015c9836001600160a01b038416620021af565b6000620006a9825490565b60606000620015c983620022b3565b600054610100900460ff16620020745760405162461bcd60e51b8152600401620005dc9062002fb8565b6200207e62002311565b62002089816200210b565b50565b604080516001600160a01b0385811660248301528416604482015260648082018490528251808303909101815260849091019091526020810180516001600160e01b03166323b872dd60e01b1790526200061e90859062002345565b6001600160a01b03811660009081526001830160205260408120541515620015c9565b603380546001600160a01b038381166001600160a01b0319831681179093556040519116919082907f8be0079c531659141344cd1fd0a4f28419497f9722a3daafe3b4186f6b6457e090600090a35050565b6000818152600183016020526040812054620021a657508154600181810184556000848152602080822090930184905584548482528286019093526040902091909155620006a9565b506000620006a9565b60008181526001830160205260408120548015620022a8576000620021d660018362002dde565b8554909150600090620021ec9060019062002dde565b90508181146200225857600086600001828154811062002210576200221062002c61565b906000526020600020015490508087600001848154811062002236576200223662002c61565b6000918252602080832090910192909255918252600188019052604090208390555b85548690806200226c576200226c62003003565b600190038181906000526020600020016000905590558560010160008681526020019081526020016000206000905560019350505050620006a9565b6000915050620006a9565b6060816000018054806020026020016040519081016040528092919081815260200182805480156200230557602002820191906000526020600020905b815481526020019060010190808311620022f0575b50505050509050919050565b600054610100900460ff166200233b5760405162461bcd60e51b8152600401620005dc9062002fb8565b620020006200241e565b60006200239c826040518060400160405280602081526020017f5361666545524332303a206c6f772d6c6576656c2063616c6c206661696c6564815250856001600160a01b0316620024539092919063ffffffff16565b8051909150156200067e5780806020019051810190620023bd919062002c41565b6200067e5760405162461bcd60e51b815260206004820152602a60248201527f5361666545524332303a204552433230206f7065726174696f6e20646964206e6044820152691bdd081cdd58d8d9595960b21b6064820152608401620005dc565b600054610100900460ff16620024485760405162461bcd60e51b8152600401620005dc9062002fb8565b62002000336200210b565b606062001388848460008585600080866001600160a01b031685876040516200247d919062003019565b60006040518083038185875af1925050503d8060008114620024bc576040519150601f19603f3d011682016040523d82523d6000602084013e620024c1565b606091505b5091509150620024d487838387620024df565b979650505050505050565b606083156200255057825162002548576001600160a01b0385163b620025485760405162461bcd60e51b815260206004820152601d60248201527f416464726573733a2063616c6c20746f206e6f6e2d636f6e74726163740000006044820152606401620005dc565b508162001388565b620013888383815115620025675781518083602001fd5b8060405162461bcd60e51b8152600401620005dc919062003037565b612f0b806200304d83390190565b6001600160a01b03811681146200208957600080fd5b80151581146200208957600080fd5b600080600060608486031215620025cc57600080fd5b8335620025d98162002591565b92506020840135620025eb8162002591565b91506040840135620025fd81620025a7565b809150509250925092565b6000602082840312156200261b57600080fd5b8135620015c98162002591565b600081518084526020808501945080840160005b83811015620026635781516001600160a01b0316875295820195908201906001016200263c565b509495945050505050565b602081526000620015c9602083018462002628565b6000806000606084860312156200269957600080fd5b8335620026a68162002591565b92506020840135620026b88162002591565b929592945050506040919091013590565b60008060408385031215620026dd57600080fd5b8235620026ea8162002591565b91506020830135620026fc8162002591565b809150509250929050565b600080600080600060a086880312156200272057600080fd5b85356200272d8162002591565b945060208601356200273f8162002591565b93506040860135620027518162002591565b94979396509394606081013594506080013592915050565b60008083601f8401126200277c57600080fd5b5081356001600160401b038111156200279457600080fd5b6020830191508360208260051b850101111562001dea57600080fd5b60008060008060008060608789031215620027ca57600080fd5b86356001600160401b0380821115620027e257600080fd5b620027f08a838b0162002769565b909850965060208901359150808211156200280a57600080fd5b620028188a838b0162002769565b909650945060408901359150808211156200283257600080fd5b506200284189828a0162002769565b979a9699509497509295939492505050565b60005b838110156200287057818101518382015260200162002856565b838111156200061e5750506000910152565b600081518084526200289c81602086016020860162002853565b601f01601f19169290920160200192915050565b600081518084526020808501808196508360051b8101915082860160005b85811015620028fc578284038952620028e984835162002882565b98850198935090840190600101620028ce565b5091979650505050505050565b600081518084526020808501945080840160005b8381101562002663578151875295820195908201906001016200291d565b600081518084526020808501945080840160005b838110156200266357815160ff16875295820195908201906001016200294f565b60c0815260006200298560c083018962002628565b828103602084015262002999818962002628565b90508281036040840152620029af8188620028b0565b90508281036060840152620029c58187620028b0565b90508281036080840152620029db818662002909565b905082810360a0840152620029f181856200293b565b9998505050505050505050565b6000806000806080858703121562002a1557600080fd5b843562002a228162002591565b9350602085013562002a348162002591565b93969395505050506040820135916060013590565b6000806000806080858703121562002a6057600080fd5b843562002a6d8162002591565b9350602085013562002a7f8162002591565b9250604085013562002a918162002591565b9396929550929360600135925050565b600061010080835262002ab78184018c62002628565b9050828103602084015262002acd818b62002628565b9050828103604084015262002ae3818a62002628565b9050828103606084015262002af98189620028b0565b9050828103608084015262002b0f8188620028b0565b905082810360a084015262002b2581876200293b565b905082810360c084015262002b3b818662002909565b905082810360e084015262002b51818562002909565b9b9a5050505050505050505050565b604080825283519082018190526000906020906060840190828701845b8281101562002ba45781516001600160a01b03168452928401929084019060010162002b7d565b50505083810382850152845180825282820190600581901b8301840187850160005b8381101562002bf857601f1986840301855262002be583835162002882565b9487019492509086019060010162002bc6565b50909998505050505050505050565b60006020828403121562002c1a57600080fd5b8151620015c98162002591565b60006020828403121562002c3a57600080fd5b5051919050565b60006020828403121562002c5457600080fd5b8151620015c981620025a7565b634e487b7160e01b600052603260045260246000fd5b634e487b7160e01b600052601160045260246000fd5b600060001982141562002ca45762002ca462002c77565b5060010190565b634e487b7160e01b600052604160045260246000fd5b604051601f8201601f191681016001600160401b038111828210171562002cec5762002cec62002cab565b604052919050565b60006001600160401b0383111562002d105762002d1062002cab565b62002d25601f8401601f191660200162002cc1565b905082815283838301111562002d3a57600080fd5b620015c983602083018462002853565b60006020828403121562002d5d57600080fd5b81516001600160401b0381111562002d7457600080fd5b8201601f8101841362002d8657600080fd5b620013888482516020840162002cf4565b60006020828403121562002daa57600080fd5b815160ff81168114620015c957600080fd5b600081600019048311821515161562002dd95762002dd962002c77565b500290565b60008282101562002df35762002df362002c77565b500390565b60008262002e1657634e487b7160e01b600052601260045260246000fd5b500490565b60006001600160401b0382111562002e375762002e3762002cab565b5060051b60200190565b600082601f83011262002e5357600080fd5b8151602062002e6c62002e668362002e1b565b62002cc1565b82815260059290921b8401810191818101908684111562002e8c57600080fd5b8286015b8481101562000a2c5780516001600160401b0381111562002eb15760008081fd5b8701603f8101891362002ec45760008081fd5b62002ed789868301516040840162002cf4565b84525091830191830162002e90565b6000806040838503121562002efa57600080fd5b82516001600160401b038082111562002f1257600080fd5b818501915085601f83011262002f2757600080fd5b8151602062002f3a62002e668362002e1b565b82815260059290921b8401810191818101908984111562002f5a57600080fd5b948201945b8386101562002f8557855162002f758162002591565b8252948201949082019062002f5f565b9188015191965090935050508082111562002f9f57600080fd5b5062002fae8582860162002e41565b9150509250929050565b6020808252602b908201527f496e697469616c697a61626c653a20636f6e7472616374206973206e6f74206960408201526a6e697469616c697a696e6760a81b606082015260800190565b634e487b7160e01b600052603160045260246000fd5b600082516200302d81846020870162002853565b9190910192915050565b602081526000620015c960208301846200288256fe60a06040523480156200001157600080fd5b5060405162002f0b38038062002f0b8339810160408190526200003491620002e3565b6000826001600160a01b0316635fe3b5676040518163ffffffff1660e01b8152600401602060405180830381865afa15801562000075573d6000803e3d6000fd5b505050506040513d601f19601f820116820180604052508101906200009b919062000337565b90506000826001600160a01b0316635fe3b5676040518163ffffffff1660e01b8152600401602060405180830381865afa158015620000de573d6000803e3d6000fd5b505050506040513d601f19601f8201168201806040525081019062000104919062000337565b9050806001600160a01b0316826001600160a01b0316146200016c5760405162461bcd60e51b815260206004820152601460248201527f6d61726b65747320706f6f6c7320646966666572000000000000000000000000604482015260640160405180910390fd5b600480546001600160a01b038085166001600160a01b03199283161783558781166080526002805491881691909216811790915560408051636f307dc360e01b815290519192636f307dc39282820192602092908290030181865afa158015620001da573d6000803e3d6000fd5b505050506040513d601f19601f8201168201806040525081019062000200919062000337565b600580546001600160a01b039283166001600160a01b03199182161790915560038054928616929091168217905560408051636f307dc360e01b81529051636f307dc3916004808201926020929091908290030181865afa1580156200026a573d6000803e3d6000fd5b505050506040513d601f19601f8201168201806040525081019062000290919062000337565b600680546001600160a01b03929092166001600160a01b0319928316179055600080556001805490911633179055506200035e9350505050565b6001600160a01b0381168114620002e057600080fd5b50565b600080600060608486031215620002f957600080fd5b83516200030681620002ca565b60208501519093506200031981620002ca565b60408501519092506200032c81620002ca565b809150509250925092565b6000602082840312156200034a57600080fd5b81516200035781620002ca565b9392505050565b608051612b7c6200038f6000396000818161027e0152818161033001528181610f0f01526112540152612b7c6000f3fe608060405234801561001057600080fd5b50600436106101215760003560e01c8063958fa280116100ad578063b21fd02911610071578063b21fd02914610243578063c31443bb14610256578063c393d0e31461025e578063c45a015514610266578063cb2af14b1461027957600080fd5b8063958fa280146101ee5780639b5ddf0914610201578063a415deda1461020a578063a7e269a61461021d578063aabaecd61461023057600080fd5b80633a8a2307116100f45780633a8a2307146101a25780633e2f147f146101b7578063459b9ef1146101c05780636813f999146101c857806390284933146101db57600080fd5b806316f0115b146101265780631b15e474146101565780632f86e2dd14610179578063374607041461019a575b600080fd5b600454610139906001600160a01b031681565b6040516001600160a01b0390911681526020015b60405180910390f35b610169610164366004612533565b6102a0565b604051901515815260200161014d565b61018c610187366004612533565b610323565b60405190815260200161014d565b61018c61069d565b6101b56101b0366004612550565b610bc9565b005b60005415610169565b61018c610d44565b600654610139906001600160a01b031681565b61018c6101e936600461257c565b610f02565b6101b56101fc366004612595565b610fcd565b61018c60005481565b600254610139906001600160a01b031681565b600354610139906001600160a01b031681565b600554610139906001600160a01b031681565b61018c610251366004612533565b611247565b61018c61133a565b61018c6113dd565b600154610139906001600160a01b031681565b6101397f000000000000000000000000000000000000000000000000000000000000000081565b600154600554604051637c5ec99760e01b81526001600160a01b03848116600483015291821660248201526000929190911690637c5ec99790604401602060405180830381865afa1580156102f9573d6000803e3d6000fd5b505050506040513d601f19601f8201168201806040525081019061031d9190612633565b92915050565b6000336001600160a01b037f0000000000000000000000000000000000000000000000000000000000000000161461036e576040516370d645e360e01b815260040160405180910390fd5b6103796000196113ed565b6002546040805163a6afed9560e01b815290516000926001600160a01b03169163a6afed95916004808301926020929190829003018187875af11580156103c4573d6000803e3d6000fd5b505050506040513d601f19601f820116820180604052508101906103e8919061264e565b90508015610411576040516328a6edd160e11b8152600481018290526024015b60405180910390fd5b60048054600254604051630ede4edd60e41b81526001600160a01b0391821693810193909352169063ede4edd0906024016020604051808303816000875af1158015610461573d6000803e3d6000fd5b505050506040513d601f19601f82011682018060405250810190610485919061264e565b905080156104a95760405163059548ef60e51b815260048101829052602401610408565b6002546040516370a0823160e01b81523060048201526001600160a01b039091169063db006a759082906370a0823190602401602060405180830381865afa1580156104f9573d6000803e3d6000fd5b505050506040513d601f19601f8201168201806040525081019061051d919061264e565b6040518263ffffffff1660e01b815260040161053b91815260200190565b6020604051808303816000875af115801561055a573d6000803e3d6000fd5b505050506040513d601f19601f8201168201806040525081019061057e919061264e565b905080156105a25760405163eeddaac560e01b815260048101829052602401610408565b60025460405163f3b1315360e01b81523060048201526001600160a01b039091169063f3b1315390602401602060405180830381865afa1580156105ea573d6000803e3d6000fd5b505050506040513d601f19601f8201168201806040525081019061060e919061264e565b6000556005546040516370a0823160e01b81523060048201526001600160a01b03909116906370a0823190602401602060405180830381865afa158015610659573d6000803e3d6000fd5b505050506040513d601f19601f8201168201806040525081019061067d919061264e565b600554909250610697906001600160a01b0316848461176d565b50919050565b600080546106ab5750600090565b60048054600354604051638e8f294b60e01b81526001600160a01b0391821693810193909352600092911690638e8f294b906024016040805180830381865afa1580156106fc573d6000803e3d6000fd5b505050506040513d601f19601f820116820180604052508101906107209190612667565b60048054600254604051638e8f294b60e01b81526001600160a01b0391821693810193909352929450600093509190911690638e8f294b906024016040805180830381865afa158015610777573d6000803e3d6000fd5b505050506040513d601f19601f8201168201806040525081019061079b9190612667565b9150506000600460009054906101000a90046001600160a01b03166001600160a01b0316637dc0d1d06040518163ffffffff1660e01b8152600401602060405180830381865afa1580156107f3573d6000803e3d6000fd5b505050506040513d601f19601f820116820180604052508101906108179190612693565b60035460405163fc57d4df60e01b81526001600160a01b0391821660048201529192506000919083169063fc57d4df90602401602060405180830381865afa158015610867573d6000803e3d6000fd5b505050506040513d601f19601f8201168201806040525081019061088b919061264e565b60025460405163fc57d4df60e01b81526001600160a01b0391821660048201529192506000919084169063fc57d4df90602401602060405180830381865afa1580156108db573d6000803e3d6000fd5b505050506040513d601f19601f820116820180604052508101906108ff919061264e565b60048054600354604051630cbb414760e11b815230938101939093526001600160a01b039081166024840152600160448401529293506000921690631976828e90606401602060405180830381865afa158015610960573d6000803e3d6000fd5b505050506040513d601f19601f82011682018060405250810190610984919061264e565b90506000600360009054906101000a90046001600160a01b03166001600160a01b0316633b1d21a26040518163ffffffff1660e01b8152600401602060405180830381865afa1580156109db573d6000803e3d6000fd5b505050506040513d601f19601f820116820180604052508101906109ff919061264e565b905080821115610a0d578091505b6000610a1985846126c6565b600154600654600554604051632f53ef2b60e01b81526001600160a01b0392831660048201529082166024820152929350600092911690632f53ef2b90604401602060405180830381865afa158015610a76573d6000803e3d6000fd5b505050506040513d601f19601f82011682018060405250810190610a9a919061264e565b90506000612710610aab83826126e5565b610ab590856126c6565b610abf91906126fc565b90506000610acd87836126fc565b90506000610ae38c670de0b6b3a76400006126e5565b610aed8d846126c6565b610af791906126fc565b90506000670de0b6b3a7640000610b0e8d846126c6565b610b1891906126fc565b60025460405163f3b1315360e01b81523060048201529192506000916001600160a01b039091169063f3b1315390602401602060405180830381865afa158015610b66573d6000803e3d6000fd5b505050506040513d601f19601f82011682018060405250810190610b8a919061264e565b600054909150610b9a838361271e565b610bac90670de0b6b3a76400006126c6565b610bb691906126fc565b9e50505050505050505050505050505090565b610bde6001600160a01b0383163330846117d5565b610be78261180d565b600080828254610bf7919061271e565b90915550506004805460025460405163929fe9a160e01b815230938101939093526001600160a01b039081166024840152169063929fe9a190604401602060405180830381865afa158015610c50573d6000803e3d6000fd5b505050506040513d601f19601f82011682018060405250810190610c749190612633565b610d405760408051600180825281830190925260009160208083019080368337505060025482519293506001600160a01b031691839150600090610cba57610cba61274c565b6001600160a01b03928316602091820292909201015260048054604051631853304760e31b815292169163c299823891610cf691859101612762565b6000604051808303816000875af1158015610d15573d6000803e3d6000fd5b505050506040513d6000823e601f3d908101601f19168201604052610d3d9190810190612804565b50505b5050565b60008054610d525750600090565b6000600460009054906101000a90046001600160a01b03166001600160a01b0316637dc0d1d06040518163ffffffff1660e01b8152600401602060405180830381865afa158015610da7573d6000803e3d6000fd5b505050506040513d601f19601f82011682018060405250810190610dcb9190612693565b60025460405163fc57d4df60e01b81526001600160a01b0391821660048201529192506000919083169063fc57d4df90602401602060405180830381865afa158015610e1b573d6000803e3d6000fd5b505050506040513d601f19601f82011682018060405250810190610e3f919061264e565b905080600054610e4f91906126c6565b600160009054906101000a90046001600160a01b03166001600160a01b0316630da2262c6040518163ffffffff1660e01b8152600401602060405180830381865afa158015610ea2573d6000803e3d6000fd5b505050506040513d601f19601f82011682018060405250810190610ec6919061264e565b610edf906ec097ce7bc90715b34b9f10000000006126c6565b610ee991906126fc565b610efb90670de0b6b3a764000061271e565b9250505090565b6000336001600160a01b037f00000000000000000000000000000000000000000000000000000000000000001614801590610f4857506001546001600160a01b03163314155b15610f66576040516370d645e360e01b815260040160405180910390fd5b670de0b6b3a7640000821015610f8157610f816000196113ed565b6000610f8b61133a565b905082811015610fac57610fa7610fa282856126e5565b6119ba565b610fbe565b610fbe610fb984836126e5565b6113ed565b610fc661133a565b9392505050565b6002546001600160a01b03163314156110ad576000610fee8284018461257c565b9050610ff981611c8b565b6005546040516370a0823160e01b81523060048201526000916001600160a01b0316906370a0823190602401602060405180830381865afa158015611042573d6000803e3d6000fd5b505050506040513d601f19601f82011682018060405250810190611066919061264e565b9050848110156110a6576005546040516319ad25f160e11b81526001600160a01b0390911660048201526024810182905260448101869052606401610408565b50506111cf565b6003546001600160a01b03163314156111875760006110ce8284018461257c565b90506110da8482611d51565b6006546040516370a0823160e01b81523060048201526000916001600160a01b0316906370a0823190602401602060405180830381865afa158015611123573d6000803e3d6000fd5b505050506040513d601f19601f82011682018060405250810190611147919061264e565b9050848110156110a6576006546040516319ad25f160e11b81526001600160a01b0390911660048201526024810182905260448101869052606401610408565b60405162461bcd60e51b815260206004820152601b60248201527f21666c206e6f742066726f6d20656974686572206d61726b65747300000000006044820152606401610408565b60405163095ea7b360e01b8152336004820152602481018490526001600160a01b0385169063095ea7b3906044016020604051808303816000875af115801561121c573d6000803e3d6000fd5b505050506040513d601f19601f820116820180604052508101906112409190612633565b5050505050565b6000336001600160a01b037f00000000000000000000000000000000000000000000000000000000000000001614611292576040516370d645e360e01b815260040160405180910390fd5b600054156112b35760405163716041e560e01b815260040160405180910390fd5b6006546040516370a0823160e01b81523060048201526000916001600160a01b0316906370a0823190602401602060405180830381865afa1580156112fc573d6000803e3d6000fd5b505050506040513d601f19601f82011682018060405250810190611320919061264e565b60065490915061031d906001600160a01b0316848361176d565b600080546113485750600090565b60025460405163f3b1315360e01b81523060048201526000916001600160a01b03169063f3b1315390602401602060405180830381865afa158015611391573d6000803e3d6000fd5b505050506040513d601f19601f820116820180604052508101906113b5919061264e565b6000549091506113cd82670de0b6b3a76400006126c6565b6113d791906126fc565b91505090565b60006113e833610323565b905090565b60048054600354604051638e8f294b60e01b81526001600160a01b0391821693810193909352600092839283921690638e8f294b906024016040805180830381865afa158015611441573d6000803e3d6000fd5b505050506040513d601f19601f820116820180604052508101906114659190612667565b9150506000600460009054906101000a90046001600160a01b03166001600160a01b0316637dc0d1d06040518163ffffffff1660e01b8152600401602060405180830381865afa1580156114bd573d6000803e3d6000fd5b505050506040513d601f19601f820116820180604052508101906114e19190612693565b60035460405163fc57d4df60e01b81526001600160a01b0391821660048201529192506000919083169063fc57d4df90602401602060405180830381865afa158015611531573d6000803e3d6000fd5b505050506040513d601f19601f82011682018060405250810190611555919061264e565b60025460405163fc57d4df60e01b81526001600160a01b0391821660048201529192506000919084169063fc57d4df90602401602060405180830381865afa1580156115a5573d6000803e3d6000fd5b505050506040513d601f19601f820116820180604052508101906115c9919061264e565b9050600019871415611682576003546040516305eff7ef60e21b81523060048201526001600160a01b03909116906317bfdfbc906024016020604051808303816000875af115801561161f573d6000803e3d6000fd5b505050506040513d601f19601f82011682018060405250810190611643919061264e565b9450600061165183876126c6565b90508461165e83836126fc565b61167090670de0b6b3a76400006126c6565b61167a91906126fc565b9650506116df565b670de0b6b3a76400008760005461169991906126c6565b6116a391906126fc565b955060006116b182886126c6565b9050670de0b6b3a7640000856116c785846126fc565b6116d191906126c6565b6116db91906126fc565b9550505b8415611764576003546040805160208082018a90528251808303909101815281830192839052633c3b4b8960e01b9092526001600160a01b0390921691633c3b4b8991611731918991906044016128e7565b600060405180830381600087803b15801561174b57600080fd5b505af115801561175f573d6000803e3d6000fd5b505050505b50505050505050565b6040516001600160a01b0383166024820152604481018290526117d090849063a9059cbb60e01b906064015b60408051601f198184030181529190526020810180516001600160e01b03166001600160e01b031990931692909217909152611f99565b505050565b6040516001600160a01b0380851660248301528316604482015260648101829052610d3d9085906323b872dd60e01b90608401611799565b6005546000906001600160a01b0383811691161461183e5760055461183c9083906001600160a01b031661206b565b505b6005546040516370a0823160e01b81523060048201526001600160a01b03909116906370a0823190602401602060405180830381865afa158015611886573d6000803e3d6000fd5b505050506040513d601f19601f820116820180604052508101906118aa919061264e565b60055460025460405163095ea7b360e01b81526001600160a01b03918216600482015260248101849052929350169063095ea7b3906044016020604051808303816000875af1158015611901573d6000803e3d6000fd5b505050506040513d601f19601f820116820180604052508101906119259190612633565b5060025460405163140e25ad60e31b8152600481018390526000916001600160a01b03169063a0712d68906024016020604051808303816000875af1158015611972573d6000803e3d6000fd5b505050506040513d601f19601f82011682018060405250810190611996919061264e565b9050801561069757604051631a25a97b60e31b815260048101829052602401610408565b6000600460009054906101000a90046001600160a01b03166001600160a01b0316637dc0d1d06040518163ffffffff1660e01b8152600401602060405180830381865afa158015611a0f573d6000803e3d6000fd5b505050506040513d601f19601f82011682018060405250810190611a339190612693565b60035460405163fc57d4df60e01b81526001600160a01b0391821660048201529192506000919083169063fc57d4df90602401602060405180830381865afa158015611a83573d6000803e3d6000fd5b505050506040513d601f19601f82011682018060405250810190611aa7919061264e565b60025460405163fc57d4df60e01b81526001600160a01b0391821660048201529192506000919084169063fc57d4df90602401602060405180830381865afa158015611af7573d6000803e3d6000fd5b505050506040513d601f19601f82011682018060405250810190611b1b919061264e565b90506000670de0b6b3a764000085600054611b3691906126c6565b611b4091906126fc565b90506000611b4e83836126c6565b90506000611b5c85836126fc565b600154600654600554604051632f53ef2b60e01b81526001600160a01b0392831660048201529082166024820152929350600092911690632f53ef2b90604401602060405180830381865afa158015611bb9573d6000803e3d6000fd5b505050506040513d601f19601f82011682018060405250810190611bdd919061264e565b9050612710611bec828261271e565b611bf690846126c6565b611c0091906126fc565b6002546040805160208082018590528251808303909101815281830192839052633c3b4b8960e01b9092529294506001600160a01b0390911691633c3b4b8991611c4f918891906044016128e7565b600060405180830381600087803b158015611c6957600080fd5b505af1158015611c7d573d6000803e3d6000fd5b505050505050505050505050565b600554611ca0906001600160a01b031661180d565b5060035460405163317afabb60e21b8152600481018390526000916001600160a01b03169063c5ebeaec906024016020604051808303816000875af1158015611ced573d6000803e3d6000fd5b505050506040513d601f19601f82011682018060405250810190611d11919061264e565b90508015611d3557604051636f86fa6b60e11b815260048101829052602401610408565b6006546005546117d0916001600160a01b03908116911661206b565b6003546040516305eff7ef60e21b81523060048201526000916001600160a01b0316906317bfdfbc906024016020604051808303816000875af1158015611d9c573d6000803e3d6000fd5b505050506040513d601f19601f82011682018060405250810190611dc0919061264e565b90506000818410611dd15781611dd3565b835b60065460035460405163095ea7b360e01b81526001600160a01b03918216600482015260248101849052929350169063095ea7b3906044016020604051808303816000875af1158015611e2a573d6000803e3d6000fd5b505050506040513d601f19601f82011682018060405250810190611e4e9190612633565b5060035460405163073a938160e11b8152600481018390526000916001600160a01b031690630e752702906024016020604051808303816000875af1158015611e9b573d6000803e3d6000fd5b505050506040513d601f19601f82011682018060405250810190611ebf919061264e565b90508015611ee25760405162f0f70d60e41b815260048101829052602401610408565b60025460405163852a12e360e01b8152600481018690526001600160a01b039091169063852a12e3906024016020604051808303816000875af1158015611f2d573d6000803e3d6000fd5b505050506040513d601f19601f82011682018060405250810190611f51919061264e565b90508015611f755760405163213e72eb60e11b815260048101829052602401610408565b600554600654611f91916001600160a01b03908116911661206b565b505050505050565b6000611fee826040518060400160405280602081526020017f5361666545524332303a206c6f772d6c6576656c2063616c6c206661696c6564815250856001600160a01b03166121db9092919063ffffffff16565b8051909150156117d0578080602001905181019061200c9190612633565b6117d05760405162461bcd60e51b815260206004820152602a60248201527f5361666545524332303a204552433230206f7065726174696f6e20646964206e6044820152691bdd081cdd58d8d9595960b21b6064820152608401610408565b6040516370a0823160e01b815230600482015260009081906001600160a01b038516906370a0823190602401602060405180830381865afa1580156120b4573d6000803e3d6000fd5b505050506040513d601f19601f820116820180604052508101906120d8919061264e565b60015460405163ed287f3f60e01b81526001600160a01b03878116600483015286811660248301529293506000928392169063ed287f3f90604401600060405180830381865afa158015612130573d6000803e3d6000fd5b505050506040513d6000823e601f3d908101601f1916820160405261215891908101906129e4565b9150915060005b82518110156121d157600083828151811061217c5761217c61274c565b60200260200101519050600083838151811061219a5761219a61274c565b602002602001015190506121b0898784846121f2565b90995089985096508695508291506121c9905081612aa9565b91505061215f565b5050505092915050565b60606121ea8484600085612273565b949350505050565b600080600061224f856310badf4e60e01b89898860405160240161221893929190612ac4565b60408051601f198184030181529190526020810180516001600160e01b03166001600160e01b03199093169290921790915261234e565b9050808060200190518101906122659190612aeb565b925092505094509492505050565b6060824710156122d45760405162461bcd60e51b815260206004820152602660248201527f416464726573733a20696e73756666696369656e742062616c616e636520666f6044820152651c8818d85b1b60d21b6064820152608401610408565b600080866001600160a01b031685876040516122f09190612b19565b60006040518083038185875af1925050503d806000811461232d576040519150601f19603f3d011682016040523d82523d6000602084013e612332565b606091505b509150915061234387838387612442565b979650505050505050565b60606001600160a01b0383163b6123b65760405162461bcd60e51b815260206004820152602660248201527f416464726573733a2064656c65676174652063616c6c20746f206e6f6e2d636f6044820152651b9d1c9858dd60d21b6064820152608401610408565b600080846001600160a01b0316846040516123d19190612b19565b600060405180830381855af49150503d806000811461240c576040519150601f19603f3d011682016040523d82523d6000602084013e612411565b606091505b50915091506124398282604051806060016040528060278152602001612b49602791396124b8565b95945050505050565b606083156124ae5782516124a7576001600160a01b0385163b6124a75760405162461bcd60e51b815260206004820152601d60248201527f416464726573733a2063616c6c20746f206e6f6e2d636f6e74726163740000006044820152606401610408565b50816121ea565b6121ea83836124f1565b606083156124c7575081610fc6565b8251156124d75782518084602001fd5b8160405162461bcd60e51b81526004016104089190612b35565b8151156125015781518083602001fd5b8060405162461bcd60e51b81526004016104089190612b35565b6001600160a01b038116811461253057600080fd5b50565b60006020828403121561254557600080fd5b8135610fc68161251b565b6000806040838503121561256357600080fd5b823561256e8161251b565b946020939093013593505050565b60006020828403121561258e57600080fd5b5035919050565b600080600080606085870312156125ab57600080fd5b84356125b68161251b565b935060208501359250604085013567ffffffffffffffff808211156125da57600080fd5b818701915087601f8301126125ee57600080fd5b8135818111156125fd57600080fd5b88602082850101111561260f57600080fd5b95989497505060200194505050565b8051801515811461262e57600080fd5b919050565b60006020828403121561264557600080fd5b610fc68261261e565b60006020828403121561266057600080fd5b5051919050565b6000806040838503121561267a57600080fd5b6126838361261e565b9150602083015190509250929050565b6000602082840312156126a557600080fd5b8151610fc68161251b565b634e487b7160e01b600052601160045260246000fd5b60008160001904831182151516156126e0576126e06126b0565b500290565b6000828210156126f7576126f76126b0565b500390565b60008261271957634e487b7160e01b600052601260045260246000fd5b500490565b60008219821115612731576127316126b0565b500190565b634e487b7160e01b600052604160045260246000fd5b634e487b7160e01b600052603260045260246000fd5b6020808252825182820181905260009190848201906040850190845b818110156127a35783516001600160a01b03168352928401929184019160010161277e565b50909695505050505050565b604051601f8201601f1916810167ffffffffffffffff811182821017156127d8576127d8612736565b604052919050565b600067ffffffffffffffff8211156127fa576127fa612736565b5060051b60200190565b6000602080838503121561281757600080fd5b825167ffffffffffffffff81111561282e57600080fd5b8301601f8101851361283f57600080fd5b805161285261284d826127e0565b6127af565b81815260059190911b8201830190838101908783111561287157600080fd5b928401925b8284101561234357835182529284019290840190612876565b60005b838110156128aa578181015183820152602001612892565b83811115610d3d5750506000910152565b600081518084526128d381602086016020860161288f565b601f01601f19169290920160200192915050565b8281526040602082015260006121ea60408301846128bb565b6000601f838184011261291257600080fd5b8251602061292261284d836127e0565b82815260059290921b8501810191818101908784111561294157600080fd5b8287015b848110156129d857805167ffffffffffffffff808211156129665760008081fd5b818a0191508a603f83011261297b5760008081fd5b8582015160408282111561299157612991612736565b6129a2828b01601f191689016127af565b92508183528c818386010111156129b95760008081fd5b6129c88289850183870161288f565b5050845250918301918301612945565b50979650505050505050565b600080604083850312156129f757600080fd5b825167ffffffffffffffff80821115612a0f57600080fd5b818501915085601f830112612a2357600080fd5b81516020612a3361284d836127e0565b82815260059290921b84018101918181019089841115612a5257600080fd5b948201945b83861015612a79578551612a6a8161251b565b82529482019490820190612a57565b91880151919650909350505080821115612a9257600080fd5b50612a9f85828601612900565b9150509250929050565b6000600019821415612abd57612abd6126b0565b5060010190565b60018060a01b038416815282602082015260606040820152600061243960608301846128bb565b60008060408385031215612afe57600080fd5b8251612b098161251b565b6020939093015192949293505050565b60008251612b2b81846020870161288f565b9190910192915050565b602081526000610fc660208301846128bb56fe416464726573733a206c6f772d6c6576656c2064656c65676174652063616c6c206661696c6564a164736f6c634300080a000aa164736f6c634300080a000a",
    "linkReferences": {}
  },
  "methodIdentifiers": {
    "MAX_SLIPPAGE()": "f9759518",
    "_acceptOwner()": "fc4d33f9",
    "_setLiquidatorsRegistry(address)": "8715b16b",
    "_setPairWhitelisted(address,address,bool)": "035d2a38",
    "_setPendingOwner(address)": "6e96dfd7",
    "_setSlippages(address[],address[],uint256[])": "5495a6d7",
    "blocksPerYear()": "a385fb96",
    "createAndFundPosition(address,address,address,uint256)": "7bf8f349",
    "createAndFundPositionAtRatio(address,address,address,uint256,uint256)": "534da460",
    "createPosition(address,address)": "6969e58b",
    "fuseFeeDistributor()": "6817de81",
    "getAccountsWithOpenPositions()": "12468b77",
    "getBorrowRateAtRatio(address,address,uint256,uint256)": "6bbdc780",
    "getBorrowableMarketsAndRates(address)": "60ff773e",
    "getBorrowableMarketsByCollateral(address)": "f4e61066",
    "getCollateralMarkets()": "c03497c0",
    "getMinBorrowNative()": "0da2262c",
    "getPositionsByAccount(address)": "0973e916",
    "getRedemptionStrategies(address,address)": "ed287f3f",
    "getSlippage(address,address)": "2f53ef2b",
    "getWhitelistedCollateralMarkets()": "a339d751",
    "initialize(address,address,uint256)": "1794bb3c",
    "isFundingAllowed(address,address)": "7c5ec997",
    "liquidatorsRegistry()": "16bb997f",
    "owner()": "8da5cb5b",
    "pendingOwner()": "e30c3978",
    "removeClosedPosition(address)": "ca2de6bc",
    "renounceOwnership()": "715018a6",
    "transferOwnership(address)": "f2fde38b"
  }
}