{
  "address": "0x642d9cB1ECCb296BfDe1b34045e4450DD36a935e",
  "abi": [
    {
      "inputs": [
        {
          "internalType": "contract IFeeDistributor",
          "name": "_feeDistributor",
          "type": "address"
        },
        {
          "internalType": "contract ILiquidatorsRegistry",
          "name": "_registry",
          "type": "address"
        },
        {
          "internalType": "uint256",
          "name": "_blocksPerYear",
          "type": "uint256"
        }
      ],
      "stateMutability": "nonpayable",
      "type": "constructor"
    },
    {
      "inputs": [
        {
          "internalType": "bytes4",
          "name": "_functionSelector",
          "type": "bytes4"
        },
        {
          "internalType": "address",
          "name": "_currentImpl",
          "type": "address"
        }
      ],
      "name": "FunctionAlreadyAdded",
      "type": "error"
    },
    {
      "inputs": [
        {
          "internalType": "bytes4",
          "name": "_functionSelector",
          "type": "bytes4"
        }
      ],
      "name": "FunctionNotFound",
      "type": "error"
    },
    {
      "anonymous": false,
      "inputs": [
        {
          "indexed": true,
          "internalType": "address",
          "name": "previousOwner",
          "type": "address"
        },
        {
          "indexed": true,
          "internalType": "address",
          "name": "newOwner",
          "type": "address"
        }
      ],
      "name": "OwnershipTransferStarted",
      "type": "event"
    },
    {
      "anonymous": false,
      "inputs": [
        {
          "indexed": true,
          "internalType": "address",
          "name": "previousOwner",
          "type": "address"
        },
        {
          "indexed": true,
          "internalType": "address",
          "name": "newOwner",
          "type": "address"
        }
      ],
      "name": "OwnershipTransferred",
      "type": "event"
    },
    {
      "stateMutability": "nonpayable",
      "type": "fallback"
    },
    {
      "inputs": [],
      "name": "_listExtensions",
      "outputs": [
        {
          "internalType": "address[]",
          "name": "",
          "type": "address[]"
        }
      ],
      "stateMutability": "view",
      "type": "function"
    },
    {
      "inputs": [
        {
          "internalType": "contract DiamondExtension",
          "name": "extensionToAdd",
          "type": "address"
        },
        {
          "internalType": "contract DiamondExtension",
          "name": "extensionToReplace",
          "type": "address"
        }
      ],
      "name": "_registerExtension",
      "outputs": [],
      "stateMutability": "nonpayable",
      "type": "function"
    },
    {
      "inputs": [
        {
          "internalType": "contract ILiquidatorsRegistry",
          "name": "_liquidatorsRegistry",
          "type": "address"
        }
      ],
      "name": "_setLiquidatorsRegistry",
      "outputs": [],
      "stateMutability": "nonpayable",
      "type": "function"
    },
    {
      "inputs": [
        {
          "internalType": "contract ICErc20",
          "name": "_collateralMarket",
          "type": "address"
        },
        {
          "internalType": "contract ICErc20",
          "name": "_stableMarket",
          "type": "address"
        },
        {
          "internalType": "bool",
          "name": "_whitelisted",
          "type": "bool"
        }
      ],
      "name": "_setPairWhitelisted",
      "outputs": [],
      "stateMutability": "nonpayable",
      "type": "function"
    },
    {
      "inputs": [],
      "name": "acceptOwnership",
      "outputs": [],
      "stateMutability": "nonpayable",
      "type": "function"
    },
    {
      "inputs": [],
      "name": "blocksPerYear",
      "outputs": [
        {
          "internalType": "uint256",
          "name": "",
          "type": "uint256"
        }
      ],
      "stateMutability": "view",
      "type": "function"
    },
    {
      "inputs": [],
      "name": "feeDistributor",
      "outputs": [
        {
          "internalType": "contract IFeeDistributor",
          "name": "",
          "type": "address"
        }
      ],
      "stateMutability": "view",
      "type": "function"
    },
    {
      "inputs": [],
      "name": "liquidatorsRegistry",
      "outputs": [
        {
          "internalType": "contract ILiquidatorsRegistry",
          "name": "",
          "type": "address"
        }
      ],
      "stateMutability": "view",
      "type": "function"
    },
    {
      "inputs": [],
      "name": "owner",
      "outputs": [
        {
          "internalType": "address",
          "name": "",
          "type": "address"
        }
      ],
      "stateMutability": "view",
      "type": "function"
    },
    {
      "inputs": [],
      "name": "pendingOwner",
      "outputs": [
        {
          "internalType": "address",
          "name": "",
          "type": "address"
        }
      ],
      "stateMutability": "view",
      "type": "function"
    },
    {
      "inputs": [],
      "name": "renounceOwnership",
      "outputs": [],
      "stateMutability": "nonpayable",
      "type": "function"
    },
    {
      "inputs": [
        {
          "internalType": "address",
          "name": "newOwner",
          "type": "address"
        }
      ],
      "name": "transferOwnership",
      "outputs": [],
      "stateMutability": "nonpayable",
      "type": "function"
    }
  ],
  "transactionHash": "0xb0ebe679a935c91c80fe728a9dc2a71db813dd55177eacbc18affd4a6c27d449",
  "args": [
    "0xC8e4Bcf738BECE5Dd0f6685181fa429a510fE141",
    "0x135fF045efaF131B8ea00D2a30e53cC7cB551F34",
    10512000
  ],
  "numDeployments": 1,
  "bytecode": {
    "object": "0x60806040523480156200001157600080fd5b506040516200136938038062001369833981016040819052620000349162000108565b6200003f3362000078565b600980546001600160a01b039485166001600160a01b031991821617909155600a805493909416921691909117909155600b5562000150565b600180546001600160a01b03191690556200009f81620000a2602090811b6200056f17901c565b50565b600080546001600160a01b038381166001600160a01b0319831681178455604051919092169283917f8be0079c531659141344cd1fd0a4f28419497f9722a3daafe3b4186f6b6457e09190a35050565b6001600160a01b03811681146200009f57600080fd5b6000806000606084860312156200011e57600080fd5b83516200012b81620000f2565b60208501519093506200013e81620000f2565b80925050604084015190509250925092565b61120980620001606000396000f3fe608060405234801561001057600080fd5b50600436106100b45760003560e01c80638715b16b116100715780638715b16b146101b657806389cd9855146101c95780638da5cb5b146101dc578063a385fb96146101ed578063e30c397814610204578063f2fde38b14610215576100b4565b8063035d2a38146101395780630d43e8ad1461014e57806316bb997f1461017e5780636333d00114610191578063715018a6146101a657806379ba5097146101ae575b600080356001600160e01b03191681526000805160206111dd83398151915260205260409020546001600160a01b03168061011557604051630a82dd7360e31b81526001600160e01b03196000351660048201526024015b60405180910390fd5b3660008037600080366000845af43d6000803e808015610134573d6000f35b3d6000fd5b61014c610147366004610f01565b610228565b005b600954610161906001600160a01b031681565b6040516001600160a01b0390911681526020015b60405180910390f35b600a54610161906001600160a01b031681565b6101996103e5565b6040516101759190610f51565b61014c6103f4565b61014c610444565b61014c6101c4366004610f9e565b6104be565b61014c6101d7366004610fc2565b6104e8565b6000546001600160a01b0316610161565b6101f6600b5481565b604051908152602001610175565b6001546001600160a01b0316610161565b61014c610223366004610f9e565b6104fe565b6102306105bf565b816001600160a01b0316635fe3b5676040518163ffffffff1660e01b8152600401602060405180830381865afa15801561026e573d6000803e3d6000fd5b505050506040513d601f19601f820116820180604052508101906102929190610ffb565b6001600160a01b0316836001600160a01b0316635fe3b5676040518163ffffffff1660e01b8152600401602060405180830381865afa1580156102d9573d6000803e3d6000fd5b505050506040513d601f19601f820116820180604052508101906102fd9190610ffb565b6001600160a01b0316146103535760405162461bcd60e51b815260206004820152601c60248201527f6d61726b657473206e6f74206f66207468652073616d6520706f6f6c00000000604482015260640161010c565b801561038d5761036460058461061b565b506001600160a01b0383166000908152600760205260409020610387908361061b565b50505050565b6001600160a01b03831660009081526007602052604090206103af9083610639565b506001600160a01b03831660009081526007602052604090206103d19061064e565b6103e057610387600584610639565b505050565b60606103ef610658565b905090565b6103fc6105bf565b60405162461bcd60e51b815260206004820152601e60248201527f72656e6f756e6365206f776e657273686970206e6f7420616c6c6f7765640000604482015260640161010c565b60015433906001600160a01b031681146104b25760405162461bcd60e51b815260206004820152602960248201527f4f776e61626c6532537465703a2063616c6c6572206973206e6f7420746865206044820152683732bb9037bbb732b960b91b606482015260840161010c565b6104bb816106ca565b50565b6104c66105bf565b600a80546001600160a01b0319166001600160a01b0392909216919091179055565b6104f06105bf565b6104fa82826106e3565b5050565b6105066105bf565b600180546001600160a01b0383166001600160a01b031990911681179091556105376000546001600160a01b031690565b6001600160a01b03167f38d16b8cac22d99fc7c124b9cd0de2d3fa1faef420bfe791d8c362d765e2270060405160405180910390a350565b600080546001600160a01b038381166001600160a01b0319831681178455604051919092169283917f8be0079c531659141344cd1fd0a4f28419497f9722a3daafe3b4186f6b6457e09190a35050565b6000546001600160a01b031633146106195760405162461bcd60e51b815260206004820181905260248201527f4f776e61626c653a2063616c6c6572206973206e6f7420746865206f776e6572604482015260640161010c565b565b6000610630836001600160a01b038416610704565b90505b92915050565b6000610630836001600160a01b038416610753565b6000610633825490565b60606000805160206111dd8339815191526002018054806020026020016040519081016040528092919081815260200182805480156106c057602002820191906000526020600020905b81546001600160a01b031681526001909101906020018083116106a2575b5050505050905090565b600180546001600160a01b03191690556104bb8161056f565b6001600160a01b038116156106fb576106fb81610846565b6104fa82610976565b600081815260018301602052604081205461074b57508154600181810184556000848152602080822090930184905584548482528286019093526040902091909155610633565b506000610633565b6000818152600183016020526040812054801561083c57600061077760018361102e565b855490915060009061078b9060019061102e565b90508181146107f05760008660000182815481106107ab576107ab611045565b90600052602060002001549050808760000184815481106107ce576107ce611045565b6000918252602080832090910192909255918252600188019052604090208390555b85548690806108015761080161105b565b600190038181906000526020600020016000905590558560010160008681526020019081526020016000206000905560019350505050610633565b6000915050610633565b6000805160206111dd83398151915261085e82610a6e565b60005b600282015460ff821610156103e057826001600160a01b0316826002018260ff168154811061089257610892611045565b6000918252602090912001546001600160a01b03161415610964576002820180546108bf9060019061102e565b815481106108cf576108cf611045565b6000918252602090912001546002830180546001600160a01b039092169160ff841690811061090057610900611045565b9060005260206000200160006101000a8154816001600160a01b0302191690836001600160a01b03160217905550816002018054806109415761094161105b565b600082815260209020810160001990810180546001600160a01b03191690550190555b8061096e81611071565b915050610861565b6000805160206111dd83398151915260005b600282015460ff82161015610a2e57826001600160a01b0316826002018260ff16815481106109b9576109b9611045565b6000918252602090912001546001600160a01b03161415610a1c5760405162461bcd60e51b815260206004820152601760248201527f657874656e73696f6e20616c7265616479206164646564000000000000000000604482015260640161010c565b80610a2681611071565b915050610988565b50610a3882610cfb565b6002018054600181018255600091825260209091200180546001600160a01b0319166001600160a01b0392909216919091179055565b6000816001600160a01b03166389f8132e6040518163ffffffff1660e01b8152600401600060405180830381865afa158015610aae573d6000803e3d6000fd5b505050506040513d6000823e601f3d908101601f19168201604052610ad691908101906110c4565b90506000805160206111dd83398151915260005b82518161ffff161015610387576000838261ffff1681518110610b0f57610b0f611045565b6020908102919091018101516001600160e01b031981166000908152918590526040909120549091506001600160a01b03868116911614610b5257610b52611189565b6001600160e01b0319811660009081526020849052604090205460018085018054600160a01b90930461ffff16929091610b8b9161102e565b81548110610b9b57610b9b611045565b90600052602060002090600891828204019190066004029054906101000a900460e01b846001018261ffff1681548110610bd757610bd7611045565b90600052602060002090600891828204019190066004026101000a81548163ffffffff021916908360e01c021790555080846000016000866001018461ffff1681548110610c2757610c27611045565b6000918252602080832060088304015460079092166004026101000a90910460e01b6001600160e01b03191683528201929092526040019020805461ffff60a01b1916600160a01b61ffff939093169290920291909117905560018401805480610c9357610c9361105b565b60008281526020808220600860001990940193840401805463ffffffff600460078716026101000a0219169055919092556001600160e01b0319909316815291849052506040902080546001600160b01b031916905580610cf38161119f565b915050610aea565b6000816001600160a01b03166389f8132e6040518163ffffffff1660e01b8152600401600060405180830381865afa158015610d3b573d6000803e3d6000fd5b505050506040513d6000823e601f3d908101601f19168201604052610d6391908101906110c4565b7fc8fcad8db84d3cc18b4c41d551ea0ee66dd599cde068d998e57d5e09332c131d549091506000805160206111dd8339815191529060005b8351811015610ee5576000848281518110610db857610db8611045565b6020908102919091018101516001600160e01b031981166000908152918690526040909120549091506001600160a01b03168015610e2457604051632c18df3360e01b81526001600160e01b0319831660048201526001600160a01b038216602482015260440161010c565b6040805180820182526001600160a01b03808a16825261ffff80881660208085019182526001600160e01b0319881660009081528b8252958620945185549251909316600160a01b026001600160b01b0319909216929093169190911717909155600180880180549182018155835291206008820401805460e085901c60046007909416939093026101000a92830263ffffffff909302191691909117905583610ecd8161119f565b94505050508080610edd906111c1565b915050610d9b565b5050505050565b6001600160a01b03811681146104bb57600080fd5b600080600060608486031215610f1657600080fd5b8335610f2181610eec565b92506020840135610f3181610eec565b915060408401358015158114610f4657600080fd5b809150509250925092565b6020808252825182820181905260009190848201906040850190845b81811015610f925783516001600160a01b031683529284019291840191600101610f6d565b50909695505050505050565b600060208284031215610fb057600080fd5b8135610fbb81610eec565b9392505050565b60008060408385031215610fd557600080fd5b8235610fe081610eec565b91506020830135610ff081610eec565b809150509250929050565b60006020828403121561100d57600080fd5b8151610fbb81610eec565b634e487b7160e01b600052601160045260246000fd5b60008282101561104057611040611018565b500390565b634e487b7160e01b600052603260045260246000fd5b634e487b7160e01b600052603160045260246000fd5b600060ff821660ff81141561108857611088611018565b60010192915050565b634e487b7160e01b600052604160045260246000fd5b80516001600160e01b0319811681146110bf57600080fd5b919050565b600060208083850312156110d757600080fd5b825167ffffffffffffffff808211156110ef57600080fd5b818501915085601f83011261110357600080fd5b81518181111561111557611115611091565b8060051b604051601f19603f8301168101818110858211171561113a5761113a611091565b60405291825284820192508381018501918883111561115857600080fd5b938501935b8285101561117d5761116e856110a7565b8452938501939285019261115d565b98975050505050505050565b634e487b7160e01b600052600160045260246000fd5b600061ffff808316818114156111b7576111b7611018565b6001019392505050565b60006000198214156111d5576111d5611018565b506001019056fec8fcad8db84d3cc18b4c41d551ea0ee66dd599cde068d998e57d5e09332c131ca164736f6c634300080a000a",
    "linkReferences": {}
  },
  "methodIdentifiers": {
    "_listExtensions()": "6333d001",
    "_registerExtension(address,address)": "89cd9855",
    "_setLiquidatorsRegistry(address)": "8715b16b",
    "_setPairWhitelisted(address,address,bool)": "035d2a38",
    "acceptOwnership()": "79ba5097",
    "blocksPerYear()": "a385fb96",
    "feeDistributor()": "0d43e8ad",
    "liquidatorsRegistry()": "16bb997f",
    "owner()": "8da5cb5b",
    "pendingOwner()": "e30c3978",
    "renounceOwnership()": "715018a6",
    "transferOwnership(address)": "f2fde38b"
  }
}