{
  "address": "0xFbf563F640F9712aaE9b1ad2219822Fe47283534",
  "abi": [
    {
      "inputs": [],
      "name": "NoSuchPosition",
      "type": "error"
    },
    {
      "inputs": [],
      "name": "PairNotWhitelisted",
      "type": "error"
    },
    {
      "inputs": [],
      "name": "PositionNotClosed",
      "type": "error"
    },
    {
      "anonymous": false,
      "inputs": [
        {
          "indexed": true,
          "internalType": "address",
          "name": "previousOwner",
          "type": "address"
        },
        {
          "indexed": true,
          "internalType": "address",
          "name": "newOwner",
          "type": "address"
        }
      ],
      "name": "OwnershipTransferStarted",
      "type": "event"
    },
    {
      "anonymous": false,
      "inputs": [
        {
          "indexed": true,
          "internalType": "address",
          "name": "previousOwner",
          "type": "address"
        },
        {
          "indexed": true,
          "internalType": "address",
          "name": "newOwner",
          "type": "address"
        }
      ],
      "name": "OwnershipTransferred",
      "type": "event"
    },
    {
      "inputs": [],
      "name": "MAX_SLIPPAGE",
      "outputs": [
        {
          "internalType": "uint256",
          "name": "",
          "type": "uint256"
        }
      ],
      "stateMutability": "view",
      "type": "function"
    },
    {
      "inputs": [],
      "name": "_getExtensionFunctions",
      "outputs": [
        {
          "internalType": "bytes4[]",
          "name": "",
          "type": "bytes4[]"
        }
      ],
      "stateMutability": "pure",
      "type": "function"
    },
    {
      "inputs": [],
      "name": "acceptOwnership",
      "outputs": [],
      "stateMutability": "nonpayable",
      "type": "function"
    },
    {
      "inputs": [],
      "name": "blocksPerYear",
      "outputs": [
        {
          "internalType": "uint256",
          "name": "",
          "type": "uint256"
        }
      ],
      "stateMutability": "view",
      "type": "function"
    },
    {
      "inputs": [
        {
          "internalType": "contract ICErc20",
          "name": "_collateralMarket",
          "type": "address"
        },
        {
          "internalType": "contract ICErc20",
          "name": "_stableMarket",
          "type": "address"
        },
        {
          "internalType": "contract IERC20Upgradeable",
          "name": "_fundingAsset",
          "type": "address"
        },
        {
          "internalType": "uint256",
          "name": "_fundingAmount",
          "type": "uint256"
        }
      ],
      "name": "createAndFundPosition",
      "outputs": [
        {
          "internalType": "contract LeveredPosition",
          "name": "",
          "type": "address"
        }
      ],
      "stateMutability": "nonpayable",
      "type": "function"
    },
    {
      "inputs": [
        {
          "internalType": "contract ICErc20",
          "name": "_collateralMarket",
          "type": "address"
        },
        {
          "internalType": "contract ICErc20",
          "name": "_stableMarket",
          "type": "address"
        },
        {
          "internalType": "contract IERC20Upgradeable",
          "name": "_fundingAsset",
          "type": "address"
        },
        {
          "internalType": "uint256",
          "name": "_fundingAmount",
          "type": "uint256"
        },
        {
          "internalType": "uint256",
          "name": "_leverageRatio",
          "type": "uint256"
        }
      ],
      "name": "createAndFundPositionAtRatio",
      "outputs": [
        {
          "internalType": "contract LeveredPosition",
          "name": "",
          "type": "address"
        }
      ],
      "stateMutability": "nonpayable",
      "type": "function"
    },
    {
      "inputs": [
        {
          "internalType": "contract ICErc20",
          "name": "_collateralMarket",
          "type": "address"
        },
        {
          "internalType": "contract ICErc20",
          "name": "_stableMarket",
          "type": "address"
        }
      ],
      "name": "createPosition",
      "outputs": [
        {
          "internalType": "contract LeveredPosition",
          "name": "",
          "type": "address"
        }
      ],
      "stateMutability": "nonpayable",
      "type": "function"
    },
    {
      "inputs": [],
      "name": "fixChapelPositions",
      "outputs": [],
      "stateMutability": "nonpayable",
      "type": "function"
    },
    {
      "inputs": [],
      "name": "fuseFeeDistributor",
      "outputs": [
        {
          "internalType": "contract IFuseFeeDistributor",
          "name": "",
          "type": "address"
        }
      ],
      "stateMutability": "view",
      "type": "function"
    },
    {
      "inputs": [],
      "name": "getAccountsWithOpenPositions",
      "outputs": [
        {
          "internalType": "address[]",
          "name": "",
          "type": "address[]"
        }
      ],
      "stateMutability": "view",
      "type": "function"
    },
    {
      "inputs": [
        {
          "internalType": "contract ICErc20",
          "name": "_collateralMarket",
          "type": "address"
        }
      ],
      "name": "getBorrowableMarketsByCollateral",
      "outputs": [
        {
          "internalType": "address[]",
          "name": "",
          "type": "address[]"
        }
      ],
      "stateMutability": "view",
      "type": "function"
    },
    {
      "inputs": [],
      "name": "getMinBorrowNative",
      "outputs": [
        {
          "internalType": "uint256",
          "name": "",
          "type": "uint256"
        }
      ],
      "stateMutability": "view",
      "type": "function"
    },
    {
      "inputs": [
        {
          "internalType": "address",
          "name": "account",
          "type": "address"
        }
      ],
      "name": "getPositionsByAccount",
      "outputs": [
        {
          "internalType": "address[]",
          "name": "positions",
          "type": "address[]"
        },
        {
          "internalType": "bool[]",
          "name": "closed",
          "type": "bool[]"
        }
      ],
      "stateMutability": "view",
      "type": "function"
    },
    {
      "inputs": [
        {
          "internalType": "bytes4",
          "name": "msgSig",
          "type": "bytes4"
        }
      ],
      "name": "getPositionsExtension",
      "outputs": [
        {
          "internalType": "address",
          "name": "",
          "type": "address"
        }
      ],
      "stateMutability": "view",
      "type": "function"
    },
    {
      "inputs": [
        {
          "internalType": "contract IERC20Upgradeable",
          "name": "inputToken",
          "type": "address"
        },
        {
          "internalType": "contract IERC20Upgradeable",
          "name": "outputToken",
          "type": "address"
        }
      ],
      "name": "getRedemptionStrategies",
      "outputs": [
        {
          "internalType": "contract IRedemptionStrategy[]",
          "name": "strategies",
          "type": "address[]"
        },
        {
          "internalType": "bytes[]",
          "name": "strategiesData",
          "type": "bytes[]"
        }
      ],
      "stateMutability": "view",
      "type": "function"
    },
    {
      "inputs": [
        {
          "internalType": "contract IERC20Upgradeable",
          "name": "inputToken",
          "type": "address"
        },
        {
          "internalType": "contract IERC20Upgradeable",
          "name": "outputToken",
          "type": "address"
        }
      ],
      "name": "getSlippage",
      "outputs": [
        {
          "internalType": "uint256",
          "name": "slippage",
          "type": "uint256"
        }
      ],
      "stateMutability": "view",
      "type": "function"
    },
    {
      "inputs": [],
      "name": "getWhitelistedCollateralMarkets",
      "outputs": [
        {
          "internalType": "address[]",
          "name": "",
          "type": "address[]"
        }
      ],
      "stateMutability": "view",
      "type": "function"
    },
    {
      "inputs": [
        {
          "internalType": "contract IERC20Upgradeable",
          "name": "inputToken",
          "type": "address"
        },
        {
          "internalType": "contract IERC20Upgradeable",
          "name": "outputToken",
          "type": "address"
        }
      ],
      "name": "isFundingAllowed",
      "outputs": [
        {
          "internalType": "bool",
          "name": "",
          "type": "bool"
        }
      ],
      "stateMutability": "view",
      "type": "function"
    },
    {
      "inputs": [],
      "name": "liquidatorsRegistry",
      "outputs": [
        {
          "internalType": "contract ILiquidatorsRegistry",
          "name": "",
          "type": "address"
        }
      ],
      "stateMutability": "view",
      "type": "function"
    },
    {
      "inputs": [],
      "name": "owner",
      "outputs": [
        {
          "internalType": "address",
          "name": "",
          "type": "address"
        }
      ],
      "stateMutability": "view",
      "type": "function"
    },
    {
      "inputs": [],
      "name": "pendingOwner",
      "outputs": [
        {
          "internalType": "address",
          "name": "",
          "type": "address"
        }
      ],
      "stateMutability": "view",
      "type": "function"
    },
    {
      "inputs": [
        {
          "internalType": "address",
          "name": "closedPosition",
          "type": "address"
        }
      ],
      "name": "removeClosedPosition",
      "outputs": [
        {
          "internalType": "bool",
          "name": "removed",
          "type": "bool"
        }
      ],
      "stateMutability": "nonpayable",
      "type": "function"
    },
    {
      "inputs": [],
      "name": "renounceOwnership",
      "outputs": [],
      "stateMutability": "nonpayable",
      "type": "function"
    },
    {
      "inputs": [
        {
          "internalType": "address",
          "name": "newOwner",
          "type": "address"
        }
      ],
      "name": "transferOwnership",
      "outputs": [],
      "stateMutability": "nonpayable",
      "type": "function"
    }
  ],
  "transactionHash": "0x5304bdf731969f546d1ddeaa5f1ae0dddbc25b92b738d787f51217a24a59f341",
  "args": [],
  "numDeployments": 7,
  "bytecode": {
    "object": "0x608060405234801561001057600080fd5b5061001a3361001f565b610096565b600180546001600160a01b031916905561004381610046602090811b61124517901c565b50565b600080546001600160a01b038381166001600160a01b0319831681178455604051919092169283917f8be0079c531659141344cd1fd0a4f28419497f9722a3daafe3b4186f6b6457e09190a35050565b61571b80620000a66000396000f3fe60806040523480156200001157600080fd5b5060043610620001755760003560e01c80637c5ec99711620000d3578063ca2de6bc1162000086578063ca2de6bc1462000317578063e30c3978146200032e578063ed287f3f1462000340578063f2fde38b1462000367578063f4e61066146200037e578063f9759518146200039557600080fd5b80637c5ec997146200029957806386ef748214620002c157806389f8132e14620002d85780638da5cb5b14620002f1578063a339d7511462000303578063a385fb96146200030d57600080fd5b80635d546dca116200012c5780635d546dca14620002375780636817de8114620002435780636969e58b1462000257578063715018a6146200026e57806379ba509714620002785780637bf8f349146200028257600080fd5b80630973e916146200017a5780630da2262c14620001aa57806312468b7714620001c357806316bb997f14620001dc5780632f53ef2b1462000209578063534da4601462000220575b600080fd5b620001916200018b366004620017bf565b6200039f565b604051620001a192919062001825565b60405180910390f35b620001b4620004e1565b604051908152602001620001a1565b620001cd62000557565b604051620001a1919062001882565b600a54620001f0906001600160a01b031681565b6040516001600160a01b039091168152602001620001a1565b620001b46200021a36600462001897565b62000565565b620001f062000231366004620018d5565b6200059c565b6200024162000629565b005b600954620001f0906001600160a01b031681565b620001f06200026836600462001897565b620008a6565b620002416200096c565b62000241620009c3565b620001f06200029336600462001937565b62000a41565b620002b0620002aa36600462001897565b62000b50565b6040519015158152602001620001a1565b620001f0620002d23660046200198f565b50600090565b620002e262000bd1565b604051620001a19190620019bb565b6000546001600160a01b0316620001f0565b620001cd62001022565b620001b4600b5481565b620002b062000328366004620017bf565b62001030565b6001546001600160a01b0316620001f0565b620003576200035136600462001897565b6200111f565b604051620001a192919062001a68565b6200024162000378366004620017bf565b620011ab565b620001cd6200038f366004620017bf565b6200121f565b620001b461038481565b6001600160a01b03811660009081526004602052604090206060908190620003c79062001295565b9150815167ffffffffffffffff811115620003e657620003e662001b0f565b60405190808252806020026020018201604052801562000410578160200160208202803683370190505b50905060005b8251811015620004db5782818151811062000435576200043562001b25565b60200260200101516001600160a01b0316633e2f147f6040518163ffffffff1660e01b8152600401602060405180830381865afa1580156200047b573d6000803e3d6000fd5b505050506040513d601f19601f82011682018060405250810190620004a1919062001b3b565b828281518110620004b657620004b662001b25565b9115156020928302919091019091015280620004d28162001b75565b91505062000416565b50915091565b6009546040805163fdb25fb160e01b815290516000926001600160a01b03169163fdb25fb19160048083019260209291908290030181865afa1580156200052c573d6000803e3d6000fd5b505050506040513d601f19601f8201168201806040525081019062000552919062001b93565b905090565b606062000552600262001295565b6001600160a01b03808316600090815260086020908152604080832093851683529290522054806200059657506103845b92915050565b600080620005ad8787878762000a41565b604051639028493360e01b8152600481018590529091506001600160a01b038216906390284933906024016020604051808303816000875af1158015620005f8573d6000803e3d6000fd5b505050506040513d601f19601f820116820180604052508101906200061e919062001b93565b509695505050505050565b4660611415620008a45760006200063f62000557565b905060005b8151811015620008a157600080620006788484815181106200066a576200066a62001b25565b60200260200101516200039f565b9150915060005b825181101562000888578181815181106200069e576200069e62001b25565b602002602001015115620006da57620006d3838281518110620006c557620006c562001b25565b602002602001015162001030565b5062000873565b828181518110620006ef57620006ef62001b25565b60200260200101516001600160a01b031663c31443bb6040518163ffffffff1660e01b8152600401602060405180830381865afa92505050801562000753575060408051601f3d908101601f19168201909252620007509181019062001b93565b60015b62000871573d80801562000784576040519150601f19603f3d011682016040523d82523d6000602084013e62000789565b606091505b50631f3f429960e31b6200079d8262001bad565b6001600160e01b0319161415620006d357600060046000888881518110620007c957620007c962001b25565b60200260200101516001600160a01b03166001600160a01b031681526020019081526020016000209050620008248584815181106200080c576200080c62001b25565b602002602001015182620012a490919063ffffffff16565b506200083081620012bb565b6200086957620008678787815181106200084e576200084e62001b25565b60200260200101516002620012a490919063ffffffff16565b505b505062000873565b505b806200087f8162001b75565b9150506200067f565b5050508080620008989062001b75565b91505062000644565b50505b565b6001600160a01b0382166000908152600760205260408120620008ca9083620012c6565b620008e857604051633f94e3f760e01b815260040160405180910390fd5b6000338484604051620008fb906200179b565b6001600160a01b03938416815291831660208301529091166040820152606001604051809103906000f08015801562000938573d6000803e3d6000fd5b50905062000948600233620012e9565b50336000908152600460205260409020620009649082620012e9565b509392505050565b6200097662001300565b60405162461bcd60e51b815260206004820152601e60248201527f72656e6f756e6365206f776e657273686970206e6f7420616c6c6f776564000060448201526064015b60405180910390fd5b60015433906001600160a01b0316811462000a335760405162461bcd60e51b815260206004820152602960248201527f4f776e61626c6532537465703a2063616c6c6572206973206e6f7420746865206044820152683732bb9037bbb732b960b91b6064820152608401620009ba565b62000a3e816200135c565b50565b60008062000a508686620008a6565b905062000a696001600160a01b03851633308662001377565b60405163095ea7b360e01b81526001600160a01b0382811660048301526024820185905285169063095ea7b3906044016020604051808303816000875af115801562000ab9573d6000803e3d6000fd5b505050506040513d601f19601f8201168201806040525081019062000adf919062001b3b565b50604051633a8a230760e01b81526001600160a01b03858116600483015260248201859052821690633a8a230790604401600060405180830381600087803b15801562000b2b57600080fd5b505af115801562000b40573d6000803e3d6000fd5b509293505050505b949350505050565b600a5460405163b29e79af60e01b81526001600160a01b0384811660048301528381166024830152600092169063b29e79af90604401602060405180830381865afa15801562000ba4573d6000803e3d6000fd5b505050506040513d601f19601f8201168201806040525081019062000bca919062001b3b565b9392505050565b60408051600e8082526101e082019092526060919060009082602082016101c080368337019050509050636969e58b60e01b8162000c0f8462001be5565b93508360ff168151811062000c285762000c2862001b25565b6001600160e01b031990921660209283029190910190910152637bf8f34960e01b8162000c558462001be5565b93508360ff168151811062000c6e5762000c6e62001b25565b6001600160e01b03199092166020928302919091019091015263029a6d2360e51b8162000c9b8462001be5565b93508360ff168151811062000cb45762000cb462001b25565b6001600160e01b03199092166020928302919091019091015263328b79af60e21b8162000ce18462001be5565b93508360ff168151811062000cfa5762000cfa62001b25565b6001600160e01b031990921660209283029190910190910152637c5ec99760e01b8162000d278462001be5565b93508360ff168151811062000d405762000d4062001b25565b6001600160e01b031990921660209283029190910190910152630368898b60e21b8162000d6d8462001be5565b93508360ff168151811062000d865762000d8662001b25565b6001600160e01b03199092166020928302919091019091015263ed287f3f60e01b8162000db38462001be5565b93508360ff168151811062000dcc5762000dcc62001b25565b6001600160e01b031990921660209283029190910190910152632f53ef2b60e01b8162000df98462001be5565b93508360ff168151811062000e125762000e1262001b25565b6001600160e01b031990921660209283029190910190910152637a73083360e11b8162000e3f8462001be5565b93508360ff168151811062000e585762000e5862001b25565b6001600160e01b03199092166020928302919091019091015263a339d75160e01b8162000e858462001be5565b93508360ff168151811062000e9e5762000e9e62001b25565b6001600160e01b0319909216602092830291909101909101526312468b7760e01b8162000ecb8462001be5565b93508360ff168151811062000ee45762000ee462001b25565b6001600160e01b0319909216602092830291909101909101526304b9f48b60e11b8162000f118462001be5565b93508360ff168151811062000f2a5762000f2a62001b25565b6001600160e01b031990921660209283029190910190910152634377ba4160e11b8162000f578462001be5565b93508360ff168151811062000f705762000f7062001b25565b6001600160e01b031990921660209283029190910190910152632eaa36e560e11b8162000f9d8462001be5565b93508360ff168151811062000fb65762000fb662001b25565b6001600160e01b03199092166020928302919091019091015260ff821615620005965760405162461bcd60e51b815260206004820152601c60248201527f7573652074686520636f7272656374206172726179206c656e677468000000006044820152606401620009ba565b606062000552600562001295565b3360009081526004602052604081206200104b8184620012c6565b6200106957604051632af0900d60e21b815260040160405180910390fd5b826001600160a01b0316633e2f147f6040518163ffffffff1660e01b8152600401602060405180830381865afa158015620010a8573d6000803e3d6000fd5b505050506040513d601f19601f82011682018060405250810190620010ce919062001b3b565b620010ec576040516345916a4760e11b815260040160405180910390fd5b620010f88184620012a4565b91506200110581620012bb565b620011195762001117600233620012a4565b505b50919050565b600a5460405163ed287f3f60e01b81526001600160a01b0384811660048301528381166024830152606092839291169063ed287f3f90604401600060405180830381865afa15801562001176573d6000803e3d6000fd5b505050506040513d6000823e601f3d908101601f19168201604052620011a0919081019062001d5b565b915091509250929050565b620011b562001300565b600180546001600160a01b0383166001600160a01b03199091168117909155620011e76000546001600160a01b031690565b6001600160a01b03167f38d16b8cac22d99fc7c124b9cd0de2d3fa1faef420bfe791d8c362d765e2270060405160405180910390a350565b6001600160a01b0381166000908152600760205260409020606090620005969062001295565b600080546001600160a01b038381166001600160a01b0319831681178455604051919092169283917f8be0079c531659141344cd1fd0a4f28419497f9722a3daafe3b4186f6b6457e09190a35050565b6060600062000bca83620013d9565b600062000bca836001600160a01b03841662001437565b600062000596825490565b6001600160a01b0381166000908152600183016020526040812054151562000bca565b600062000bca836001600160a01b0384166200153b565b6000546001600160a01b03163314620008a45760405162461bcd60e51b815260206004820181905260248201527f4f776e61626c653a2063616c6c6572206973206e6f7420746865206f776e65726044820152606401620009ba565b600180546001600160a01b031916905562000a3e8162001245565b604080516001600160a01b0385811660248301528416604482015260648082018490528251808303909101815260849091019091526020810180516001600160e01b03166323b872dd60e01b179052620013d39085906200158d565b50505050565b6060816000018054806020026020016040519081016040528092919081815260200182805480156200142b57602002820191906000526020600020905b81548152602001906001019080831162001416575b50505050509050919050565b60008181526001830160205260408120548015620015305760006200145e60018362001e2e565b8554909150600090620014749060019062001e2e565b9050818114620014e057600086600001828154811062001498576200149862001b25565b9060005260206000200154905080876000018481548110620014be57620014be62001b25565b6000918252602080832090910192909255918252600188019052604090208390555b8554869080620014f457620014f462001e48565b60019003818190600052602060002001600090559055856001016000868152602001908152602001600020600090556001935050505062000596565b600091505062000596565b6000818152600183016020526040812054620015845750815460018181018455600084815260208082209093018490558454848252828601909352604090209190915562000596565b50600062000596565b6000620015e4826040518060400160405280602081526020017f5361666545524332303a206c6f772d6c6576656c2063616c6c206661696c6564815250856001600160a01b03166200166b9092919063ffffffff16565b80519091501562001666578080602001905181019062001605919062001b3b565b620016665760405162461bcd60e51b815260206004820152602a60248201527f5361666545524332303a204552433230206f7065726174696f6e20646964206e6044820152691bdd081cdd58d8d9595960b21b6064820152608401620009ba565b505050565b606062000b48848460008585600080866001600160a01b0316858760405162001695919062001e5e565b60006040518083038185875af1925050503d8060008114620016d4576040519150601f19603f3d011682016040523d82523d6000602084013e620016d9565b606091505b5091509150620016ec87838387620016f7565b979650505050505050565b606083156200176857825162001760576001600160a01b0385163b620017605760405162461bcd60e51b815260206004820152601d60248201527f416464726573733a2063616c6c20746f206e6f6e2d636f6e74726163740000006044820152606401620009ba565b508162000b48565b62000b4883838151156200177f5781518083602001fd5b8060405162461bcd60e51b8152600401620009ba919062001e7c565b61387d8062001e9283390190565b6001600160a01b038116811462000a3e57600080fd5b600060208284031215620017d257600080fd5b813562000bca81620017a9565b600081518084526020808501945080840160005b838110156200181a5781516001600160a01b031687529582019590820190600101620017f3565b509495945050505050565b6040815260006200183a6040830185620017df565b82810360208481019190915284518083528582019282019060005b818110156200187557845115158352938301939183019160010162001855565b5090979650505050505050565b60208152600062000bca6020830184620017df565b60008060408385031215620018ab57600080fd5b8235620018b881620017a9565b91506020830135620018ca81620017a9565b809150509250929050565b600080600080600060a08688031215620018ee57600080fd5b8535620018fb81620017a9565b945060208601356200190d81620017a9565b935060408601356200191f81620017a9565b94979396509394606081013594506080013592915050565b600080600080608085870312156200194e57600080fd5b84356200195b81620017a9565b935060208501356200196d81620017a9565b925060408501356200197f81620017a9565b9396929550929360600135925050565b600060208284031215620019a257600080fd5b81356001600160e01b03198116811462000bca57600080fd5b6020808252825182820181905260009190848201906040850190845b81811015620019ff5783516001600160e01b03191683529284019291840191600101620019d7565b50909695505050505050565b60005b8381101562001a2857818101518382015260200162001a0e565b83811115620013d35750506000910152565b6000815180845262001a5481602086016020860162001a0b565b601f01601f19169290920160200192915050565b604080825283519082018190526000906020906060840190828701845b8281101562001aac5781516001600160a01b03168452928401929084019060010162001a85565b50505083810382850152845180825282820190600581901b8301840187850160005b8381101562001b0057601f1986840301855262001aed83835162001a3a565b9487019492509086019060010162001ace565b50909998505050505050505050565b634e487b7160e01b600052604160045260246000fd5b634e487b7160e01b600052603260045260246000fd5b60006020828403121562001b4e57600080fd5b8151801515811462000bca57600080fd5b634e487b7160e01b600052601160045260246000fd5b600060001982141562001b8c5762001b8c62001b5f565b5060010190565b60006020828403121562001ba657600080fd5b5051919050565b805160208201516001600160e01b0319808216929190600483101562001bdd5780818460040360031b1b83161693505b505050919050565b600060ff82168062001bfb5762001bfb62001b5f565b6000190192915050565b604051601f8201601f1916810167ffffffffffffffff8111828210171562001c315762001c3162001b0f565b604052919050565b600067ffffffffffffffff82111562001c565762001c5662001b0f565b5060051b60200190565b6000601f838184011262001c7357600080fd5b8251602062001c8c62001c868362001c39565b62001c05565b82815260059290921b8501810191818101908784111562001cac57600080fd5b8287015b8481101562001d4f57805167ffffffffffffffff8082111562001cd35760008081fd5b818a0191508a603f83011262001ce95760008081fd5b8582015160408282111562001d025762001d0262001b0f565b62001d15828b01601f1916890162001c05565b92508183528c8183860101111562001d2d5760008081fd5b62001d3e8289850183870162001a0b565b505084525091830191830162001cb0565b50979650505050505050565b6000806040838503121562001d6f57600080fd5b825167ffffffffffffffff8082111562001d8857600080fd5b818501915085601f83011262001d9d57600080fd5b8151602062001db062001c868362001c39565b82815260059290921b8401810191818101908984111562001dd057600080fd5b948201945b8386101562001dfb57855162001deb81620017a9565b8252948201949082019062001dd5565b9188015191965090935050508082111562001e1557600080fd5b5062001e248582860162001c60565b9150509250929050565b60008282101562001e435762001e4362001b5f565b500390565b634e487b7160e01b600052603160045260246000fd5b6000825162001e7281846020870162001a0b565b9190910192915050565b60208152600062000bca602083018462001a3a56fe60a06040523480156200001157600080fd5b506040516200387d3803806200387d8339810160408190526200003491620002eb565b6001600160a01b0380841660805260408051635fe3b56760e01b81529051600092851691635fe3b5679160048083019260209291908290030181865afa15801562000083573d6000803e3d6000fd5b505050506040513d601f19601f82011682018060405250810190620000a991906200033f565b90506000826001600160a01b0316635fe3b5676040518163ffffffff1660e01b8152600401602060405180830381865afa158015620000ec573d6000803e3d6000fd5b505050506040513d601f19601f820116820180604052508101906200011291906200033f565b9050806001600160a01b0316826001600160a01b0316146200017a5760405162461bcd60e51b815260206004820152601460248201527f6d61726b65747320706f6f6c7320646966666572000000000000000000000000604482015260640160405180910390fd5b600480546001600160a01b038085166001600160a01b03199283161783556002805491881691909216811790915560408051636f307dc360e01b815290519192636f307dc39282820192602092908290030181865afa158015620001e2573d6000803e3d6000fd5b505050506040513d601f19601f820116820180604052508101906200020891906200033f565b600580546001600160a01b039283166001600160a01b03199182161790915560038054928616929091168217905560408051636f307dc360e01b81529051636f307dc3916004808201926020929091908290030181865afa15801562000272573d6000803e3d6000fd5b505050506040513d601f19601f820116820180604052508101906200029891906200033f565b600680546001600160a01b03929092166001600160a01b031992831617905560008055600180549091163317905550620003669350505050565b6001600160a01b0381168114620002e857600080fd5b50565b6000806000606084860312156200030157600080fd5b83516200030e81620002d2565b60208501519093506200032181620002d2565b60408501519092506200033481620002d2565b809150509250925092565b6000602082840312156200035257600080fd5b81516200035f81620002d2565b9392505050565b6080516134df6200039e60003960008181610390015281816104510152818161136d015281816116b2015261185601526134df6000f3fe608060405234801561001057600080fd5b50600436106101425760003560e01c8063958fa280116100b8578063b21fd0291161007c578063b21fd02914610355578063c31443bb14610368578063c393d0e314610370578063c45a015514610378578063cb2af14b1461038b578063ef5cfb8c146103b257610142565b8063958fa280146103005780639b5ddf0914610313578063a415deda1461031c578063a7e269a61461032f578063aabaecd61461034257610142565b80633a8a23071161010a5780633a8a2307146102a05780633e2f147f146102b3578063459b9ef1146102bc578063555b334a146102c45780636813f999146102da57806390284933146102ed57610142565b806316f0115b1461021a5780631b15e4741461024a5780632f86e2dd1461026d578063372500ab1461028e5780633746070414610298575b600154604051634377ba4160e11b8152600080356001600160e01b0319166004830152916001600160a01b0316906386ef748290602401602060405180830381865afa158015610196573d6000803e3d6000fd5b505050506040513d601f19601f820116820180604052508101906101ba9190612d69565b90506001600160a01b0381166101f657604051637d60257960e01b81526001600160e01b03196000351660048201526024015b60405180910390fd5b3660008037600080366000845af43d6000803e808015610215573d6000f35b3d6000fd5b60045461022d906001600160a01b031681565b6040516001600160a01b0390911681526020015b60405180910390f35b61025d610258366004612d86565b6103c5565b6040519015158152602001610241565b61028061027b366004612d86565b610444565b604051908152602001610241565b6102966107a4565b005b6102806107af565b6102966102ae366004612da3565b610cdc565b6000541561025d565b610280610e55565b6102cc611013565b604051610241929190612dcf565b60065461022d906001600160a01b031681565b6102806102fb366004612e53565b611360565b61029661030e366004612e6c565b61142b565b61028060005481565b60025461022d906001600160a01b031681565b60035461022d906001600160a01b031681565b60055461022d906001600160a01b031681565b610280610363366004612d86565b6116a5565b610280611798565b61028061183b565b60015461022d906001600160a01b031681565b61022d7f000000000000000000000000000000000000000000000000000000000000000081565b6102966103c0366004612d86565b61184b565b600154600554604051637c5ec99760e01b81526000926001600160a01b0390811692637c5ec997926103fd9287921690600401612ef5565b602060405180830381865afa15801561041a573d6000803e3d6000fd5b505050506040513d601f19601f8201168201806040525081019061043e9190612f24565b92915050565b6000336001600160a01b037f0000000000000000000000000000000000000000000000000000000000000000161461048f576040516370d645e360e01b815260040160405180910390fd5b61049a600019611c0b565b600260009054906101000a90046001600160a01b03166001600160a01b031663a6afed956040518163ffffffff1660e01b81526004016020604051808303816000875af11580156104ef573d6000803e3d6000fd5b505050506040513d601f19601f820116820180604052508101906105139190612f3f565b5060048054600254604051630ede4edd60e41b81526001600160a01b039182169381019390935260009291169063ede4edd0906024016020604051808303816000875af1158015610568573d6000803e3d6000fd5b505050506040513d601f19601f8201168201806040525081019061058c9190612f3f565b905080156105b05760405163059548ef60e51b8152600481018290526024016101ed565b6002546040516370a0823160e01b81523060048201526001600160a01b039091169063db006a759082906370a0823190602401602060405180830381865afa158015610600573d6000803e3d6000fd5b505050506040513d601f19601f820116820180604052508101906106249190612f3f565b6040518263ffffffff1660e01b815260040161064291815260200190565b6020604051808303816000875af1158015610661573d6000803e3d6000fd5b505050506040513d601f19601f820116820180604052508101906106859190612f3f565b905080156106a95760405163eeddaac560e01b8152600481018290526024016101ed565b600254604051633af9e66960e01b81523060048201526001600160a01b0390911690633af9e66990602401602060405180830381865afa1580156106f1573d6000803e3d6000fd5b505050506040513d601f19601f820116820180604052508101906107159190612f3f565b6000556005546040516370a0823160e01b81523060048201526001600160a01b03909116906370a0823190602401602060405180830381865afa158015610760573d6000803e3d6000fd5b505050506040513d601f19601f820116820180604052508101906107849190612f3f565b60055490925061079e906001600160a01b03168484611f89565b50919050565b6107ad3361184b565b565b600080546107bd5750600090565b60048054600354604051638e8f294b60e01b81526001600160a01b0391821693810193909352600092911690638e8f294b906024016040805180830381865afa15801561080e573d6000803e3d6000fd5b505050506040513d601f19601f820116820180604052508101906108329190612f58565b60048054600254604051638e8f294b60e01b81526001600160a01b0391821693810193909352929450600093509190911690638e8f294b906024016040805180830381865afa158015610889573d6000803e3d6000fd5b505050506040513d601f19601f820116820180604052508101906108ad9190612f58565b9150506000600460009054906101000a90046001600160a01b03166001600160a01b0316637dc0d1d06040518163ffffffff1660e01b8152600401602060405180830381865afa158015610905573d6000803e3d6000fd5b505050506040513d601f19601f820116820180604052508101906109299190612d69565b60035460405163fc57d4df60e01b81526001600160a01b0391821660048201529192506000919083169063fc57d4df90602401602060405180830381865afa158015610979573d6000803e3d6000fd5b505050506040513d601f19601f8201168201806040525081019061099d9190612f3f565b60025460405163fc57d4df60e01b81526001600160a01b0391821660048201529192506000919084169063fc57d4df90602401602060405180830381865afa1580156109ed573d6000803e3d6000fd5b505050506040513d601f19601f82011682018060405250810190610a119190612f3f565b60048054600354604051630cbb414760e11b815230938101939093526001600160a01b039081166024840152600160448401529293506000921690631976828e90606401602060405180830381865afa158015610a72573d6000803e3d6000fd5b505050506040513d601f19601f82011682018060405250810190610a969190612f3f565b90506000600360009054906101000a90046001600160a01b03166001600160a01b0316633b1d21a26040518163ffffffff1660e01b8152600401602060405180830381865afa158015610aed573d6000803e3d6000fd5b505050506040513d601f19601f82011682018060405250810190610b119190612f3f565b905080821115610b1f578091505b6000610b2b8584612f9a565b600154600654600554604051632f53ef2b60e01b81529394506000936001600160a01b0393841693632f53ef2b93610b6c9390821692911690600401612ef5565b602060405180830381865afa158015610b89573d6000803e3d6000fd5b505050506040513d601f19601f82011682018060405250810190610bad9190612f3f565b90506000612710610bbe8382612fb9565b610bc89085612f9a565b610bd29190612fd0565b90506000610be08783612fd0565b90506000610bf68c670de0b6b3a7640000612fb9565b610c008d84612f9a565b610c0a9190612fd0565b90506000670de0b6b3a7640000610c218d84612f9a565b610c2b9190612fd0565b600254604051633af9e66960e01b81523060048201529192506000916001600160a01b0390911690633af9e66990602401602060405180830381865afa158015610c79573d6000803e3d6000fd5b505050506040513d601f19601f82011682018060405250810190610c9d9190612f3f565b600054909150610cad8383612ff2565b610cbf90670de0b6b3a7640000612f9a565b610cc99190612fd0565b9e50505050505050505050505050505090565b610cf16001600160a01b038316333084611fec565b610cfa82612024565b600080828254610d0a9190612ff2565b90915550506004805460025460405163929fe9a160e01b81526001600160a01b039283169363929fe9a193610d4493309391169101612ef5565b602060405180830381865afa158015610d61573d6000803e3d6000fd5b505050506040513d601f19601f82011682018060405250810190610d859190612f24565b610e515760408051600180825281830190925260009160208083019080368337505060025482519293506001600160a01b031691839150600090610dcb57610dcb613020565b6001600160a01b03928316602091820292909201015260048054604051631853304760e31b815292169163c299823891610e0791859101613036565b6000604051808303816000875af1158015610e26573d6000803e3d6000fd5b505050506040513d6000823e601f3d908101601f19168201604052610e4e91908101906130d8565b50505b5050565b60008054610e635750600090565b6000600460009054906101000a90046001600160a01b03166001600160a01b0316637dc0d1d06040518163ffffffff1660e01b8152600401602060405180830381865afa158015610eb8573d6000803e3d6000fd5b505050506040513d601f19601f82011682018060405250810190610edc9190612d69565b60025460405163fc57d4df60e01b81526001600160a01b0391821660048201529192506000919083169063fc57d4df90602401602060405180830381865afa158015610f2c573d6000803e3d6000fd5b505050506040513d601f19601f82011682018060405250810190610f509190612f3f565b905080600054610f609190612f9a565b600160009054906101000a90046001600160a01b03166001600160a01b0316630da2262c6040518163ffffffff1660e01b8152600401602060405180830381865afa158015610fb3573d6000803e3d6000fd5b505050506040513d601f19601f82011682018060405250810190610fd79190612f3f565b610ff0906ec097ce7bc90715b34b9f1000000000612f9a565b610ffa9190612fd0565b61100c90670de0b6b3a7640000612ff2565b9250505090565b6060806000600460009054906101000a90046001600160a01b03166001600160a01b0316633605b51b6040518163ffffffff1660e01b8152600401600060405180830381865afa15801561106b573d6000803e3d6000fd5b505050506040513d6000823e601f3d908101601f191682016040526110939190810190613163565b9050805167ffffffffffffffff8111156110af576110af61300a565b6040519080825280602002602001820160405280156110d8578160200160208202803683370190505b509250805167ffffffffffffffff8111156110f5576110f561300a565b60405190808252806020026020018201604052801561111e578160200160208202803683370190505b50915060005b815181101561135a57600082828151811061114157611141613020565b6020908102919091010151600254604051632e6f912b60e21b81529192506001600160a01b038084169263b9be44ac926111819216903090600401612ef5565b6020604051808303816000875af11580156111a0573d6000803e3d6000fd5b505050506040513d601f19601f820116820180604052508101906111c49190612f3f565b50600354604051632e6f912b60e21b81526001600160a01b038381169263b9be44ac926111f992909116903090600401612ef5565b6020604051808303816000875af1158015611218573d6000803e3d6000fd5b505050506040513d601f19601f8201168201806040525081019061123c9190612f3f565b50806001600160a01b031663f7c618c16040518163ffffffff1660e01b8152600401602060405180830381865afa15801561127b573d6000803e3d6000fd5b505050506040513d601f19601f8201168201806040525081019061129f9190612d69565b8583815181106112b1576112b1613020565b6001600160a01b039283166020918202929092010152604051630ff6b5a760e31b815230600482015290821690637fb5ad38906024016020604051808303816000875af1158015611306573d6000803e3d6000fd5b505050506040513d601f19601f8201168201806040525081019061132a9190612f3f565b84838151811061133c5761133c613020565b60209081029190910101525080611352816131f2565b915050611124565b50509091565b6000336001600160a01b037f000000000000000000000000000000000000000000000000000000000000000016148015906113a657506001546001600160a01b03163314155b156113c4576040516370d645e360e01b815260040160405180910390fd5b670de0b6b3a76400008210156113df576113df600019611c0b565b60006113e9611798565b90508281101561140a576114056114008285612fb9565b6121d1565b61141c565b61141c6114178483612fb9565b611c0b565b611424611798565b9392505050565b6002546001600160a01b031633141561150b57600061144c82840184612e53565b9050611457816124a3565b6005546040516370a0823160e01b81523060048201526000916001600160a01b0316906370a0823190602401602060405180830381865afa1580156114a0573d6000803e3d6000fd5b505050506040513d601f19601f820116820180604052508101906114c49190612f3f565b905084811015611504576005546040516319ad25f160e11b81526001600160a01b03909116600482015260248101829052604481018690526064016101ed565b505061162d565b6003546001600160a01b03163314156115e557600061152c82840184612e53565b90506115388482612569565b6006546040516370a0823160e01b81523060048201526000916001600160a01b0316906370a0823190602401602060405180830381865afa158015611581573d6000803e3d6000fd5b505050506040513d601f19601f820116820180604052508101906115a59190612f3f565b905084811015611504576006546040516319ad25f160e11b81526001600160a01b03909116600482015260248101829052604481018690526064016101ed565b60405162461bcd60e51b815260206004820152601b60248201527f21666c206e6f742066726f6d20656974686572206d61726b657473000000000060448201526064016101ed565b60405163095ea7b360e01b8152336004820152602481018490526001600160a01b0385169063095ea7b3906044016020604051808303816000875af115801561167a573d6000803e3d6000fd5b505050506040513d601f19601f8201168201806040525081019061169e9190612f24565b5050505050565b6000336001600160a01b037f000000000000000000000000000000000000000000000000000000000000000016146116f0576040516370d645e360e01b815260040160405180910390fd5b600054156117115760405163716041e560e01b815260040160405180910390fd5b6006546040516370a0823160e01b81523060048201526000916001600160a01b0316906370a0823190602401602060405180830381865afa15801561175a573d6000803e3d6000fd5b505050506040513d601f19601f8201168201806040525081019061177e9190612f3f565b60065490915061043e906001600160a01b03168483611f89565b600080546117a65750600090565b600254604051633af9e66960e01b81523060048201526000916001600160a01b031690633af9e66990602401602060405180830381865afa1580156117ef573d6000803e3d6000fd5b505050506040513d601f19601f820116820180604052508101906118139190612f3f565b60005490915061182b82670de0b6b3a7640000612f9a565b6118359190612fd0565b91505090565b600061184633610444565b905090565b336001600160a01b037f0000000000000000000000000000000000000000000000000000000000000000161480159061188f57506001546001600160a01b03163314155b156118ad576040516370d645e360e01b815260040160405180910390fd5b6000600460009054906101000a90046001600160a01b03166001600160a01b0316633605b51b6040518163ffffffff1660e01b8152600401600060405180830381865afa158015611902573d6000803e3d6000fd5b505050506040513d6000823e601f3d908101601f1916820160405261192a9190810190613163565b905060005b8151811015611c0657600082828151811061194c5761194c613020565b6020908102919091010151600254604051632e6f912b60e21b81529192506001600160a01b038084169263b9be44ac9261198c9216903090600401612ef5565b6020604051808303816000875af11580156119ab573d6000803e3d6000fd5b505050506040513d601f19601f820116820180604052508101906119cf9190612f3f565b50600354604051632e6f912b60e21b81526001600160a01b038381169263b9be44ac92611a0492909116903090600401612ef5565b6020604051808303816000875af1158015611a23573d6000803e3d6000fd5b505050506040513d601f19601f82011682018060405250810190611a479190612f3f565b50604051633bd73ee360e21b81523060048201526001600160a01b0382169063ef5cfb8c90602401600060405180830381600087803b158015611a8957600080fd5b505af1158015611a9d573d6000803e3d6000fd5b505050506000816001600160a01b031663f7c618c16040518163ffffffff1660e01b8152600401602060405180830381865afa158015611ae1573d6000803e3d6000fd5b505050506040513d601f19601f82011682018060405250810190611b059190612d69565b6040516370a0823160e01b81523060048201529091506000906001600160a01b038316906370a0823190602401602060405180830381865afa158015611b4f573d6000803e3d6000fd5b505050506040513d601f19601f82011682018060405250810190611b739190612f3f565b90508015611bf05760405163a9059cbb60e01b81526001600160a01b0387811660048301526024820183905283169063a9059cbb906044016020604051808303816000875af1158015611bca573d6000803e3d6000fd5b505050506040513d601f19601f82011682018060405250810190611bee9190612f24565b505b5050508080611bfe906131f2565b91505061192f565b505050565b60048054600354604051638e8f294b60e01b81526001600160a01b0391821693810193909352600092839283921690638e8f294b906024016040805180830381865afa158015611c5f573d6000803e3d6000fd5b505050506040513d601f19601f82011682018060405250810190611c839190612f58565b9150506000600460009054906101000a90046001600160a01b03166001600160a01b0316637dc0d1d06040518163ffffffff1660e01b8152600401602060405180830381865afa158015611cdb573d6000803e3d6000fd5b505050506040513d601f19601f82011682018060405250810190611cff9190612d69565b60035460405163fc57d4df60e01b81526001600160a01b0391821660048201529192506000919083169063fc57d4df90602401602060405180830381865afa158015611d4f573d6000803e3d6000fd5b505050506040513d601f19601f82011682018060405250810190611d739190612f3f565b60025460405163fc57d4df60e01b81526001600160a01b0391821660048201529192506000919084169063fc57d4df90602401602060405180830381865afa158015611dc3573d6000803e3d6000fd5b505050506040513d601f19601f82011682018060405250810190611de79190612f3f565b9050600019871415611e9e576003546040516305eff7ef60e21b81523060048201526001600160a01b03909116906317bfdfbc90602401602060405180830381865afa158015611e3b573d6000803e3d6000fd5b505050506040513d601f19601f82011682018060405250810190611e5f9190612f3f565b94506000611e6d8387612f9a565b905084611e7a8383612fd0565b611e8c90670de0b6b3a7640000612f9a565b611e969190612fd0565b965050611efb565b670de0b6b3a764000087600054611eb59190612f9a565b611ebf9190612fd0565b95506000611ecd8288612f9a565b9050670de0b6b3a764000085611ee38584612fd0565b611eed9190612f9a565b611ef79190612fd0565b9550505b8415611f80576003546040805160208082018a90528251808303909101815281830192839052633c3b4b8960e01b9092526001600160a01b0390921691633c3b4b8991611f4d91899190604401613265565b600060405180830381600087803b158015611f6757600080fd5b505af1158015611f7b573d6000803e3d6000fd5b505050505b50505050505050565b6040516001600160a01b038316602482015260448101829052611c0690849063a9059cbb60e01b906064015b60408051601f198184030181529190526020810180516001600160e01b03166001600160e01b0319909316929092179091526127af565b6040516001600160a01b0380851660248301528316604482015260648101829052610e4e9085906323b872dd60e01b90608401611fb5565b6005546000906001600160a01b03838116911614612055576005546120539083906001600160a01b0316612881565b505b6005546040516370a0823160e01b81523060048201526001600160a01b03909116906370a0823190602401602060405180830381865afa15801561209d573d6000803e3d6000fd5b505050506040513d601f19601f820116820180604052508101906120c19190612f3f565b60055460025460405163095ea7b360e01b81526001600160a01b03918216600482015260248101849052929350169063095ea7b3906044016020604051808303816000875af1158015612118573d6000803e3d6000fd5b505050506040513d601f19601f8201168201806040525081019061213c9190612f24565b5060025460405163140e25ad60e31b8152600481018390526000916001600160a01b03169063a0712d68906024016020604051808303816000875af1158015612189573d6000803e3d6000fd5b505050506040513d601f19601f820116820180604052508101906121ad9190612f3f565b9050801561079e57604051631a25a97b60e31b8152600481018290526024016101ed565b6000600460009054906101000a90046001600160a01b03166001600160a01b0316637dc0d1d06040518163ffffffff1660e01b8152600401602060405180830381865afa158015612226573d6000803e3d6000fd5b505050506040513d601f19601f8201168201806040525081019061224a9190612d69565b60035460405163fc57d4df60e01b81526001600160a01b0391821660048201529192506000919083169063fc57d4df90602401602060405180830381865afa15801561229a573d6000803e3d6000fd5b505050506040513d601f19601f820116820180604052508101906122be9190612f3f565b60025460405163fc57d4df60e01b81526001600160a01b0391821660048201529192506000919084169063fc57d4df90602401602060405180830381865afa15801561230e573d6000803e3d6000fd5b505050506040513d601f19601f820116820180604052508101906123329190612f3f565b90506000670de0b6b3a76400008560005461234d9190612f9a565b6123579190612fd0565b905060006123658383612f9a565b905060006123738583612fd0565b600154600654600554604051632f53ef2b60e01b81529394506000936001600160a01b0393841693632f53ef2b936123b49390821692911690600401612ef5565b602060405180830381865afa1580156123d1573d6000803e3d6000fd5b505050506040513d601f19601f820116820180604052508101906123f59190612f3f565b90506127106124048282612ff2565b61240e9084612f9a565b6124189190612fd0565b6002546040805160208082018590528251808303909101815281830192839052633c3b4b8960e01b9092529294506001600160a01b0390911691633c3b4b899161246791889190604401613265565b600060405180830381600087803b15801561248157600080fd5b505af1158015612495573d6000803e3d6000fd5b505050505050505050505050565b6005546124b8906001600160a01b0316612024565b5060035460405163317afabb60e21b8152600481018390526000916001600160a01b03169063c5ebeaec906024016020604051808303816000875af1158015612505573d6000803e3d6000fd5b505050506040513d601f19601f820116820180604052508101906125299190612f3f565b9050801561254d57604051636f86fa6b60e11b8152600481018290526024016101ed565b600654600554611c06916001600160a01b039081169116612881565b6003546040516305eff7ef60e21b81523060048201526000916001600160a01b0316906317bfdfbc90602401602060405180830381865afa1580156125b2573d6000803e3d6000fd5b505050506040513d601f19601f820116820180604052508101906125d69190612f3f565b905060008184106125e757816125e9565b835b60065460035460405163095ea7b360e01b81526001600160a01b03918216600482015260248101849052929350169063095ea7b3906044016020604051808303816000875af1158015612640573d6000803e3d6000fd5b505050506040513d601f19601f820116820180604052508101906126649190612f24565b5060035460405163073a938160e11b8152600481018390526000916001600160a01b031690630e752702906024016020604051808303816000875af11580156126b1573d6000803e3d6000fd5b505050506040513d601f19601f820116820180604052508101906126d59190612f3f565b905080156126f85760405162f0f70d60e41b8152600481018290526024016101ed565b60025460405163852a12e360e01b8152600481018690526001600160a01b039091169063852a12e3906024016020604051808303816000875af1158015612743573d6000803e3d6000fd5b505050506040513d601f19601f820116820180604052508101906127679190612f3f565b9050801561278b5760405163213e72eb60e11b8152600481018290526024016101ed565b6005546006546127a7916001600160a01b039081169116612881565b505050505050565b6000612804826040518060400160405280602081526020017f5361666545524332303a206c6f772d6c6576656c2063616c6c206661696c6564815250856001600160a01b0316612a119092919063ffffffff16565b805190915015611c0657808060200190518101906128229190612f24565b611c065760405162461bcd60e51b815260206004820152602a60248201527f5361666545524332303a204552433230206f7065726174696f6e20646964206e6044820152691bdd081cdd58d8d9595960b21b60648201526084016101ed565b6040516370a0823160e01b815230600482015260009081906001600160a01b038516906370a0823190602401602060405180830381865afa1580156128ca573d6000803e3d6000fd5b505050506040513d601f19601f820116820180604052508101906128ee9190612f3f565b60015460405163ed287f3f60e01b815291925060009182916001600160a01b03169063ed287f3f906129269089908990600401612ef5565b600060405180830381865afa158015612943573d6000803e3d6000fd5b505050506040513d6000823e601f3d908101601f1916820160405261296b9190810190613362565b9150915081516000141561299257604051634fd1fa8360e11b815260040160405180910390fd5b60005b8251811015612a075760008382815181106129b2576129b2613020565b6020026020010151905060008383815181106129d0576129d0613020565b602002602001015190506129e689878484612a28565b90995089985096508695508291506129ff9050816131f2565b915050612995565b5050505092915050565b6060612a208484600085612aa9565b949350505050565b6000806000612a85856310badf4e60e01b898988604051602401612a4e93929190613427565b60408051601f198184030181529190526020810180516001600160e01b03166001600160e01b031990931692909217909152612b84565b905080806020019051810190612a9b919061344e565b925092505094509492505050565b606082471015612b0a5760405162461bcd60e51b815260206004820152602660248201527f416464726573733a20696e73756666696369656e742062616c616e636520666f6044820152651c8818d85b1b60d21b60648201526084016101ed565b600080866001600160a01b03168587604051612b26919061347c565b60006040518083038185875af1925050503d8060008114612b63576040519150601f19603f3d011682016040523d82523d6000602084013e612b68565b606091505b5091509150612b7987838387612c78565b979650505050505050565b60606001600160a01b0383163b612bec5760405162461bcd60e51b815260206004820152602660248201527f416464726573733a2064656c65676174652063616c6c20746f206e6f6e2d636f6044820152651b9d1c9858dd60d21b60648201526084016101ed565b600080846001600160a01b031684604051612c07919061347c565b600060405180830381855af49150503d8060008114612c42576040519150601f19603f3d011682016040523d82523d6000602084013e612c47565b606091505b5091509150612c6f82826040518060600160405280602781526020016134ac60279139612cee565b95945050505050565b60608315612ce4578251612cdd576001600160a01b0385163b612cdd5760405162461bcd60e51b815260206004820152601d60248201527f416464726573733a2063616c6c20746f206e6f6e2d636f6e747261637400000060448201526064016101ed565b5081612a20565b612a208383612d27565b60608315612cfd575081611424565b825115612d0d5782518084602001fd5b8160405162461bcd60e51b81526004016101ed9190613498565b815115612d375781518083602001fd5b8060405162461bcd60e51b81526004016101ed9190613498565b6001600160a01b0381168114612d6657600080fd5b50565b600060208284031215612d7b57600080fd5b815161142481612d51565b600060208284031215612d9857600080fd5b813561142481612d51565b60008060408385031215612db657600080fd5b8235612dc181612d51565b946020939093013593505050565b604080825283519082018190526000906020906060840190828701845b82811015612e115781516001600160a01b031684529284019290840190600101612dec565b5050508381038285015284518082528583019183019060005b81811015612e4657835183529284019291840191600101612e2a565b5090979650505050505050565b600060208284031215612e6557600080fd5b5035919050565b60008060008060608587031215612e8257600080fd5b8435612e8d81612d51565b935060208501359250604085013567ffffffffffffffff80821115612eb157600080fd5b818701915087601f830112612ec557600080fd5b813581811115612ed457600080fd5b886020828501011115612ee657600080fd5b95989497505060200194505050565b6001600160a01b0392831681529116602082015260400190565b80518015158114612f1f57600080fd5b919050565b600060208284031215612f3657600080fd5b61142482612f0f565b600060208284031215612f5157600080fd5b5051919050565b60008060408385031215612f6b57600080fd5b612f7483612f0f565b9150602083015190509250929050565b634e487b7160e01b600052601160045260246000fd5b6000816000190483118215151615612fb457612fb4612f84565b500290565b600082821015612fcb57612fcb612f84565b500390565b600082612fed57634e487b7160e01b600052601260045260246000fd5b500490565b6000821982111561300557613005612f84565b500190565b634e487b7160e01b600052604160045260246000fd5b634e487b7160e01b600052603260045260246000fd5b6020808252825182820181905260009190848201906040850190845b818110156130775783516001600160a01b031683529284019291840191600101613052565b50909695505050505050565b604051601f8201601f1916810167ffffffffffffffff811182821017156130ac576130ac61300a565b604052919050565b600067ffffffffffffffff8211156130ce576130ce61300a565b5060051b60200190565b600060208083850312156130eb57600080fd5b825167ffffffffffffffff81111561310257600080fd5b8301601f8101851361311357600080fd5b8051613126613121826130b4565b613083565b81815260059190911b8201830190838101908783111561314557600080fd5b928401925b82841015612b795783518252928401929084019061314a565b6000602080838503121561317657600080fd5b825167ffffffffffffffff81111561318d57600080fd5b8301601f8101851361319e57600080fd5b80516131ac613121826130b4565b81815260059190911b820183019083810190878311156131cb57600080fd5b928401925b82841015612b795783516131e381612d51565b825292840192908401906131d0565b600060001982141561320657613206612f84565b5060010190565b60005b83811015613228578181015183820152602001613210565b83811115610e4e5750506000910152565b6000815180845261325181602086016020860161320d565b601f01601f19169290920160200192915050565b828152604060208201526000612a206040830184613239565b6000601f838184011261329057600080fd5b825160206132a0613121836130b4565b82815260059290921b850181019181810190878411156132bf57600080fd5b8287015b8481101561335657805167ffffffffffffffff808211156132e45760008081fd5b818a0191508a603f8301126132f95760008081fd5b8582015160408282111561330f5761330f61300a565b613320828b01601f19168901613083565b92508183528c818386010111156133375760008081fd5b6133468289850183870161320d565b50508452509183019183016132c3565b50979650505050505050565b6000806040838503121561337557600080fd5b825167ffffffffffffffff8082111561338d57600080fd5b818501915085601f8301126133a157600080fd5b815160206133b1613121836130b4565b82815260059290921b840181019181810190898411156133d057600080fd5b948201945b838610156133f75785516133e881612d51565b825294820194908201906133d5565b9188015191965090935050508082111561341057600080fd5b5061341d8582860161327e565b9150509250929050565b60018060a01b0384168152826020820152606060408201526000612c6f6060830184613239565b6000806040838503121561346157600080fd5b825161346c81612d51565b6020939093015192949293505050565b6000825161348e81846020870161320d565b9190910192915050565b602081526000611424602083018461323956fe416464726573733a206c6f772d6c6576656c2064656c65676174652063616c6c206661696c6564a164736f6c634300080a000aa164736f6c634300080a000a",
    "linkReferences": {}
  },
  "methodIdentifiers": {
    "MAX_SLIPPAGE()": "f9759518",
    "_getExtensionFunctions()": "89f8132e",
    "acceptOwnership()": "79ba5097",
    "blocksPerYear()": "a385fb96",
    "createAndFundPosition(address,address,address,uint256)": "7bf8f349",
    "createAndFundPositionAtRatio(address,address,address,uint256,uint256)": "534da460",
    "createPosition(address,address)": "6969e58b",
    "fixChapelPositions()": "5d546dca",
    "fuseFeeDistributor()": "6817de81",
    "getAccountsWithOpenPositions()": "12468b77",
    "getBorrowableMarketsByCollateral(address)": "f4e61066",
    "getMinBorrowNative()": "0da2262c",
    "getPositionsByAccount(address)": "0973e916",
    "getPositionsExtension(bytes4)": "86ef7482",
    "getRedemptionStrategies(address,address)": "ed287f3f",
    "getSlippage(address,address)": "2f53ef2b",
    "getWhitelistedCollateralMarkets()": "a339d751",
    "isFundingAllowed(address,address)": "7c5ec997",
    "liquidatorsRegistry()": "16bb997f",
    "owner()": "8da5cb5b",
    "pendingOwner()": "e30c3978",
    "removeClosedPosition(address)": "ca2de6bc",
    "renounceOwnership()": "715018a6",
    "transferOwnership(address)": "f2fde38b"
  }
}