{
  "address": "0xF57cf3EF95743D396Ab0fd1D6a2DdE1922f3E47b",
  "abi": [
    {
      "inputs": [],
      "stateMutability": "nonpayable",
      "type": "constructor"
    },
    {
      "anonymous": false,
      "inputs": [
        {
          "indexed": false,
          "internalType": "uint8",
          "name": "version",
          "type": "uint8"
        }
      ],
      "name": "Initialized",
      "type": "event"
    },
    {
      "anonymous": false,
      "inputs": [
        {
          "indexed": false,
          "internalType": "address",
          "name": "oldOwner",
          "type": "address"
        },
        {
          "indexed": false,
          "internalType": "address",
          "name": "newOwner",
          "type": "address"
        }
      ],
      "name": "NewOwner",
      "type": "event"
    },
    {
      "anonymous": false,
      "inputs": [
        {
          "indexed": false,
          "internalType": "address",
          "name": "oldPendingOwner",
          "type": "address"
        },
        {
          "indexed": false,
          "internalType": "address",
          "name": "newPendingOwner",
          "type": "address"
        }
      ],
      "name": "NewPendingOwner",
      "type": "event"
    },
    {
      "anonymous": false,
      "inputs": [
        {
          "indexed": true,
          "internalType": "address",
          "name": "previousOwner",
          "type": "address"
        },
        {
          "indexed": true,
          "internalType": "address",
          "name": "newOwner",
          "type": "address"
        }
      ],
      "name": "OwnershipTransferred",
      "type": "event"
    },
    {
      "inputs": [],
      "name": "MAX_SLIPPAGE",
      "outputs": [
        {
          "internalType": "uint256",
          "name": "",
          "type": "uint256"
        }
      ],
      "stateMutability": "view",
      "type": "function"
    },
    {
      "inputs": [],
      "name": "_acceptOwner",
      "outputs": [],
      "stateMutability": "nonpayable",
      "type": "function"
    },
    {
      "inputs": [
        {
          "internalType": "contract ILiquidatorsRegistry",
          "name": "_liquidatorsRegistry",
          "type": "address"
        }
      ],
      "name": "_setLiquidatorsRegistry",
      "outputs": [],
      "stateMutability": "nonpayable",
      "type": "function"
    },
    {
      "inputs": [
        {
          "internalType": "contract ICErc20",
          "name": "_collateralMarket",
          "type": "address"
        },
        {
          "internalType": "contract ICErc20",
          "name": "_stableMarket",
          "type": "address"
        },
        {
          "internalType": "bool",
          "name": "_whitelisted",
          "type": "bool"
        }
      ],
      "name": "_setPairWhitelisted",
      "outputs": [],
      "stateMutability": "nonpayable",
      "type": "function"
    },
    {
      "inputs": [
        {
          "internalType": "address",
          "name": "newPendingOwner",
          "type": "address"
        }
      ],
      "name": "_setPendingOwner",
      "outputs": [],
      "stateMutability": "nonpayable",
      "type": "function"
    },
    {
      "inputs": [
        {
          "internalType": "contract IERC20Upgradeable[]",
          "name": "inputTokens",
          "type": "address[]"
        },
        {
          "internalType": "contract IERC20Upgradeable[]",
          "name": "outputTokens",
          "type": "address[]"
        },
        {
          "internalType": "uint256[]",
          "name": "slippages",
          "type": "uint256[]"
        }
      ],
      "name": "_setSlippages",
      "outputs": [],
      "stateMutability": "nonpayable",
      "type": "function"
    },
    {
      "inputs": [],
      "name": "blocksPerYear",
      "outputs": [
        {
          "internalType": "uint256",
          "name": "",
          "type": "uint256"
        }
      ],
      "stateMutability": "view",
      "type": "function"
    },
    {
      "inputs": [
        {
          "internalType": "contract ICErc20",
          "name": "_collateralMarket",
          "type": "address"
        },
        {
          "internalType": "contract ICErc20",
          "name": "_stableMarket",
          "type": "address"
        },
        {
          "internalType": "contract IERC20Upgradeable",
          "name": "_fundingAsset",
          "type": "address"
        },
        {
          "internalType": "uint256",
          "name": "_fundingAmount",
          "type": "uint256"
        }
      ],
      "name": "createAndFundPosition",
      "outputs": [
        {
          "internalType": "contract LeveredPosition",
          "name": "",
          "type": "address"
        }
      ],
      "stateMutability": "nonpayable",
      "type": "function"
    },
    {
      "inputs": [
        {
          "internalType": "contract ICErc20",
          "name": "_collateralMarket",
          "type": "address"
        },
        {
          "internalType": "contract ICErc20",
          "name": "_stableMarket",
          "type": "address"
        }
      ],
      "name": "createPosition",
      "outputs": [
        {
          "internalType": "contract LeveredPosition",
          "name": "",
          "type": "address"
        }
      ],
      "stateMutability": "nonpayable",
      "type": "function"
    },
    {
      "inputs": [],
      "name": "ffd",
      "outputs": [
        {
          "internalType": "contract IFuseFeeDistributor",
          "name": "",
          "type": "address"
        }
      ],
      "stateMutability": "view",
      "type": "function"
    },
    {
      "inputs": [
        {
          "internalType": "contract ICErc20",
          "name": "_collateralMarket",
          "type": "address"
        },
        {
          "internalType": "contract ICErc20",
          "name": "_stableMarket",
          "type": "address"
        },
        {
          "internalType": "uint256",
          "name": "_baseCollateral",
          "type": "uint256"
        },
        {
          "internalType": "uint256",
          "name": "_targetLeverageRatio",
          "type": "uint256"
        }
      ],
      "name": "getBorrowRateAtRatio",
      "outputs": [
        {
          "internalType": "uint256",
          "name": "",
          "type": "uint256"
        }
      ],
      "stateMutability": "view",
      "type": "function"
    },
    {
      "inputs": [
        {
          "internalType": "address[]",
          "name": "_markets",
          "type": "address[]"
        }
      ],
      "name": "getBorrowRates",
      "outputs": [
        {
          "internalType": "uint256[]",
          "name": "rates",
          "type": "uint256[]"
        }
      ],
      "stateMutability": "view",
      "type": "function"
    },
    {
      "inputs": [
        {
          "internalType": "contract ICErc20",
          "name": "_collateralMarket",
          "type": "address"
        }
      ],
      "name": "getBorrowableMarketsAndRates",
      "outputs": [
        {
          "internalType": "address[]",
          "name": "markets",
          "type": "address[]"
        },
        {
          "internalType": "address[]",
          "name": "underlyings",
          "type": "address[]"
        },
        {
          "internalType": "string[]",
          "name": "names",
          "type": "string[]"
        },
        {
          "internalType": "string[]",
          "name": "symbols",
          "type": "string[]"
        },
        {
          "internalType": "uint256[]",
          "name": "rates",
          "type": "uint256[]"
        },
        {
          "internalType": "uint8[]",
          "name": "decimals",
          "type": "uint8[]"
        }
      ],
      "stateMutability": "view",
      "type": "function"
    },
    {
      "inputs": [
        {
          "internalType": "contract ICErc20",
          "name": "_collateralMarket",
          "type": "address"
        }
      ],
      "name": "getBorrowableMarketsByCollateral",
      "outputs": [
        {
          "internalType": "address[]",
          "name": "",
          "type": "address[]"
        }
      ],
      "stateMutability": "view",
      "type": "function"
    },
    {
      "inputs": [],
      "name": "getCollateralMarkets",
      "outputs": [
        {
          "internalType": "address[]",
          "name": "markets",
          "type": "address[]"
        },
        {
          "internalType": "address[]",
          "name": "poolOfMarket",
          "type": "address[]"
        },
        {
          "internalType": "address[]",
          "name": "underlyings",
          "type": "address[]"
        },
        {
          "internalType": "string[]",
          "name": "names",
          "type": "string[]"
        },
        {
          "internalType": "string[]",
          "name": "symbols",
          "type": "string[]"
        },
        {
          "internalType": "uint8[]",
          "name": "decimals",
          "type": "uint8[]"
        },
        {
          "internalType": "uint256[]",
          "name": "rates",
          "type": "uint256[]"
        },
        {
          "internalType": "uint256[]",
          "name": "totalUnderlyingSupplied",
          "type": "uint256[]"
        },
        {
          "internalType": "uint256[]",
          "name": "ratesPerBlock",
          "type": "uint256[]"
        }
      ],
      "stateMutability": "view",
      "type": "function"
    },
    {
      "inputs": [],
      "name": "getMinBorrowNative",
      "outputs": [
        {
          "internalType": "uint256",
          "name": "",
          "type": "uint256"
        }
      ],
      "stateMutability": "view",
      "type": "function"
    },
    {
      "inputs": [
        {
          "internalType": "address",
          "name": "account",
          "type": "address"
        }
      ],
      "name": "getPositionsByAccount",
      "outputs": [
        {
          "internalType": "address[]",
          "name": "",
          "type": "address[]"
        }
      ],
      "stateMutability": "view",
      "type": "function"
    },
    {
      "inputs": [
        {
          "internalType": "contract IERC20Upgradeable",
          "name": "inputToken",
          "type": "address"
        },
        {
          "internalType": "contract IERC20Upgradeable",
          "name": "outputToken",
          "type": "address"
        }
      ],
      "name": "getRedemptionStrategies",
      "outputs": [
        {
          "internalType": "contract IRedemptionStrategy[]",
          "name": "strategies",
          "type": "address[]"
        },
        {
          "internalType": "bytes[]",
          "name": "strategiesData",
          "type": "bytes[]"
        }
      ],
      "stateMutability": "view",
      "type": "function"
    },
    {
      "inputs": [
        {
          "internalType": "contract IERC20Upgradeable",
          "name": "inputToken",
          "type": "address"
        },
        {
          "internalType": "contract IERC20Upgradeable",
          "name": "outputToken",
          "type": "address"
        }
      ],
      "name": "getSlippage",
      "outputs": [
        {
          "internalType": "uint256",
          "name": "slippage",
          "type": "uint256"
        }
      ],
      "stateMutability": "view",
      "type": "function"
    },
    {
      "inputs": [],
      "name": "getWhitelistedCollateralMarkets",
      "outputs": [
        {
          "internalType": "address[]",
          "name": "",
          "type": "address[]"
        }
      ],
      "stateMutability": "view",
      "type": "function"
    },
    {
      "inputs": [
        {
          "internalType": "contract IFuseFeeDistributor",
          "name": "_ffd",
          "type": "address"
        },
        {
          "internalType": "contract ILiquidatorsRegistry",
          "name": "_registry",
          "type": "address"
        },
        {
          "internalType": "uint256",
          "name": "_blocksPerYear",
          "type": "uint256"
        }
      ],
      "name": "initialize",
      "outputs": [],
      "stateMutability": "nonpayable",
      "type": "function"
    },
    {
      "inputs": [
        {
          "internalType": "contract IERC20Upgradeable",
          "name": "inputToken",
          "type": "address"
        },
        {
          "internalType": "contract IERC20Upgradeable",
          "name": "outputToken",
          "type": "address"
        }
      ],
      "name": "isFundingAllowed",
      "outputs": [
        {
          "internalType": "bool",
          "name": "",
          "type": "bool"
        }
      ],
      "stateMutability": "view",
      "type": "function"
    },
    {
      "inputs": [],
      "name": "liquidatorsRegistry",
      "outputs": [
        {
          "internalType": "contract ILiquidatorsRegistry",
          "name": "",
          "type": "address"
        }
      ],
      "stateMutability": "view",
      "type": "function"
    },
    {
      "inputs": [],
      "name": "owner",
      "outputs": [
        {
          "internalType": "address",
          "name": "",
          "type": "address"
        }
      ],
      "stateMutability": "view",
      "type": "function"
    },
    {
      "inputs": [],
      "name": "pendingOwner",
      "outputs": [
        {
          "internalType": "address",
          "name": "",
          "type": "address"
        }
      ],
      "stateMutability": "view",
      "type": "function"
    },
    {
      "inputs": [
        {
          "internalType": "address",
          "name": "closedPosition",
          "type": "address"
        }
      ],
      "name": "removeClosedPosition",
      "outputs": [
        {
          "internalType": "bool",
          "name": "",
          "type": "bool"
        }
      ],
      "stateMutability": "nonpayable",
      "type": "function"
    },
    {
      "inputs": [],
      "name": "renounceOwnership",
      "outputs": [],
      "stateMutability": "nonpayable",
      "type": "function"
    },
    {
      "inputs": [
        {
          "internalType": "address",
          "name": "newOwner",
          "type": "address"
        }
      ],
      "name": "transferOwnership",
      "outputs": [],
      "stateMutability": "nonpayable",
      "type": "function"
    }
  ],
  "transactionHash": "0x3f129e2aa4c462ae3b63a58c3f27802c94368377d4157a4a4f79947b7e97d92f",
  "args": [],
  "numDeployments": 11,
  "bytecode": {
    "object": "0x60806040523480156200001157600080fd5b506200001c62000022565b620000e4565b600054610100900460ff16156200008f5760405162461bcd60e51b815260206004820152602760248201527f496e697469616c697a61626c653a20636f6e747261637420697320696e697469604482015266616c697a696e6760c81b606482015260840160405180910390fd5b60005460ff9081161015620000e2576000805460ff191660ff9081179091556040519081527f7f26b83ff96e1f2b6a682f133852f6798a09c465da95921460cefb38474024989060200160405180910390a15b565b615ee580620000f46000396000f3fe60806040523480156200001157600080fd5b5060043610620001e95760003560e01c80638715b16b116200010d578063de04180111620000a3578063f2fde38b116200007a578063f2fde38b1462000464578063f4e61066146200047b578063f97595181462000492578063fc4d33f9146200049c57600080fd5b8063de0418011462000403578063e30c39781462000429578063ed287f3f146200043d57600080fd5b8063a385fb9611620000e4578063a385fb9614620003ad578063c03497c014620003b7578063ca1eea3d14620003d8578063ca2de6bc14620003ec57600080fd5b80638715b16b146200037a5780638da5cb5b1462000391578063a339d75114620003a357600080fd5b806360ff773e11620001835780636e96dfd7116200015a5780636e96dfd7146200031a578063715018a614620003315780637bf8f349146200033b5780637c5ec997146200035257600080fd5b806360ff773e14620002c15780636969e58b14620002ec5780636bbdc780146200030357600080fd5b806316bb997f11620001c457806316bb997f146200024f5780631794bb3c146200027c5780632f53ef2b14620002935780635495a6d714620002aa57600080fd5b8063035d2a3814620001ee5780630973e91614620002075780630da2262c1462000236575b600080fd5b62000205620001ff3660046200245e565b620004a6565b005b6200021e62000218366004620024b0565b6200054e565b6040516200022d919062002516565b60405180910390f35b620002406200057a565b6040519081526020016200022d565b60675462000263906001600160a01b031681565b6040516001600160a01b0390911681526020016200022d565b620002056200028d3660046200252b565b620005f0565b62000240620002a436600462002571565b62000746565b62000205620002bb366004620025f6565b6200077c565b620002d8620002d2366004620024b0565b620008af565b6040516200022d96959493929190620027b6565b62000263620002fd36600462002571565b62000cbf565b620002406200031436600462002844565b62000da0565b620002056200032b366004620024b0565b62001028565b6200020562001094565b620002636200034c3660046200288f565b620010da565b620003696200036336600462002571565b620011e7565b60405190151581526020016200022d565b620002056200038b366004620024b0565b62001268565b6033546001600160a01b031662000263565b6200021e62001294565b6200024060685481565b620003c1620012a2565b6040516200022d99989796959493929190620028e7565b60665462000263906001600160a01b031681565b62000369620003fd366004620024b0565b620019ee565b6200041a6200041436600462002a2d565b62001af8565b6040516200022d919062002acc565b60655462000263906001600160a01b031681565b620004546200044e36600462002571565b62001c0c565b6040516200022d92919062002ae1565b6200020562000475366004620024b0565b62001c99565b6200021e6200048c366004620024b0565b62001d0c565b6200024061038481565b6200020562001d32565b620004b062001e4c565b8015620004ef57620004c4606a8462001eaa565b506001600160a01b0383166000908152606c60205260409020620004e9908362001eaa565b50505050565b6001600160a01b0383166000908152606c6020526040902062000513908362001ec1565b506001600160a01b0383166000908152606c60205260409020620005379062001ed8565b6200054957620004e9606a8462001ec1565b505050565b6001600160a01b0381166000908152606960205260409020606090620005749062001ee3565b92915050565b6066546040805163fdb25fb160e01b815290516000926001600160a01b03169163fdb25fb19160048083019260209291908290030181865afa158015620005c5573d6000803e3d6000fd5b505050506040513d601f19601f82011682018060405250810190620005eb919062002b88565b905090565b600054610100900460ff1615808015620006115750600054600160ff909116105b806200062d5750303b1580156200062d575060005460ff166001145b620006965760405162461bcd60e51b815260206004820152602e60248201527f496e697469616c697a61626c653a20636f6e747261637420697320616c72656160448201526d191e481a5b9a5d1a585b1a5e995960921b60648201526084015b60405180910390fd5b6000805460ff191660011790558015620006ba576000805461ff0019166101001790555b620006c53362001ef2565b606680546001600160a01b038087166001600160a01b031992831617909255606780549286169290911691909117905560688290558015620004e9576000805461ff0019169055604051600181527f7f26b83ff96e1f2b6a682f133852f6798a09c465da95921460cefb38474024989060200160405180910390a150505050565b6001600160a01b038083166000908152606d60209081526040808320938516835292905220548062000574575061038492915050565b6200078662001e4c565b80851480156200079557508483145b620007d15760405162461bcd60e51b815260206004820152600b60248201526a10b0b93930bcb9903632b760a91b60448201526064016200068d565b60005b81811015620008a657828282818110620007f257620007f262002ba2565b90506020020135606d600089898581811062000812576200081262002ba2565b9050602002016020810190620008299190620024b0565b6001600160a01b03166001600160a01b03168152602001908152602001600020600087878581811062000860576200086062002ba2565b9050602002016020810190620008779190620024b0565b6001600160a01b03168152602081019190915260400160002055806200089d8162002bce565b915050620007d4565b50505050505050565b606080606080606080620008e7606c6000896001600160a01b03166001600160a01b0316815260200190815260200160002062001ee3565b955085516001600160401b03811115620009055762000905620029be565b6040519080825280602002602001820160405280156200092f578160200160208202803683370190505b50945085516001600160401b038111156200094e576200094e620029be565b6040519080825280602002602001820160405280156200098357816020015b60608152602001906001900390816200096d5790505b50935085516001600160401b03811115620009a257620009a2620029be565b604051908082528060200260200182016040528015620009d757816020015b6060815260200190600190039081620009c15790505b50925085516001600160401b03811115620009f657620009f6620029be565b60405190808252806020026020018201604052801562000a20578160200160208202803683370190505b50905060005b865181101562000ca857600087828151811062000a475762000a4762002ba2565b60200260200101516001600160a01b0316636f307dc36040518163ffffffff1660e01b8152600401602060405180830381865afa15801562000a8d573d6000803e3d6000fd5b505050506040513d601f19601f8201168201806040525081019062000ab3919062002bec565b90506000819050806001600160a01b03166306fdde036040518163ffffffff1660e01b8152600401600060405180830381865afa15801562000af9573d6000803e3d6000fd5b505050506040513d6000823e601f3d908101601f1916820160405262000b23919081019062002c62565b87848151811062000b385762000b3862002ba2565b6020026020010181905250806001600160a01b03166395d89b416040518163ffffffff1660e01b8152600401600060405180830381865afa15801562000b82573d6000803e3d6000fd5b505050506040513d6000823e601f3d908101601f1916820160405262000bac919081019062002c62565b86848151811062000bc15762000bc162002ba2565b60200260200101819052508188848151811062000be25762000be262002ba2565b60200260200101906001600160a01b031690816001600160a01b031681525050806001600160a01b031663313ce5676040518163ffffffff1660e01b8152600401602060405180830381865afa15801562000c41573d6000803e3d6000fd5b505050506040513d601f19601f8201168201806040525081019062000c67919062002caf565b84848151811062000c7c5762000c7c62002ba2565b602002602001019060ff16908160ff16815250505050808062000c9f9062002bce565b91505062000a26565b5062000cb48662001af8565b915091939550919395565b6001600160a01b0382166000908152606c6020526040812062000ce3908362001f34565b62000d295760405162461bcd60e51b8152602060048201526015602482015274085c185a5c881b9bdd081dda1a5d195b1a5cdd1959605a1b60448201526064016200068d565b600033848460405162000d3c906200242b565b6001600160a01b03938416815291831660208301529091166040820152606001604051809103906000f08015801562000d79573d6000803e3d6000fd5b5033600090815260696020526040902090915062000d98908262001eaa565b509392505050565b600080846001600160a01b0316635fe3b5676040518163ffffffff1660e01b8152600401602060405180830381865afa15801562000de2573d6000803e3d6000fd5b505050506040513d601f19601f8201168201806040525081019062000e08919062002bec565b90506000816001600160a01b0316637dc0d1d06040518163ffffffff1660e01b8152600401602060405180830381865afa15801562000e4b573d6000803e3d6000fd5b505050506040513d601f19601f8201168201806040525081019062000e71919062002bec565b60405163fc57d4df60e01b81526001600160a01b03888116600483015291925060009183169063fc57d4df90602401602060405180830381865afa15801562000ebe573d6000803e3d6000fd5b505050506040513d601f19601f8201168201806040525081019062000ee4919062002b88565b60405163fc57d4df60e01b81526001600160a01b038a8116600483015291925060009184169063fc57d4df90602401602060405180830381865afa15801562000f31573d6000803e3d6000fd5b505050506040513d601f19601f8201168201806040525081019062000f57919062002b88565b9050600062000f6f83670de0b6b3a764000062002cd4565b828962000f85670de0b6b3a76400008b62002cf6565b62000f91919062002cd4565b62000f9d919062002cd4565b62000fa9919062002d10565b60405163cfcd4c0760e01b8152600481018290529091506001600160a01b038a169063cfcd4c0790602401602060405180830381865afa15801562000ff2573d6000803e3d6000fd5b505050506040513d601f19601f8201168201806040525081019062001018919062002b88565b955050505050505b949350505050565b6200103262001e4c565b606580546001600160a01b038381166001600160a01b031983168117909355604080519190921680825260208201939093527fb3d55174552271a4f1aaf36b72f50381e892171636b3fb5447fe00e995e7a37b91015b60405180910390a15050565b6200109e62001e4c565b60405162461bcd60e51b815260206004820152601060248201526f6e6f74207573656420616e796d6f726560801b60448201526064016200068d565b600080620010e9868662000cbf565b9050620011026001600160a01b03851633308662001f57565b60405163095ea7b360e01b81526001600160a01b0382811660048301526024820185905285169063095ea7b3906044016020604051808303816000875af115801562001152573d6000803e3d6000fd5b505050506040513d601f19601f8201168201806040525081019062001178919062002d33565b50604051633a8a230760e01b81526001600160a01b03858116600483015260248201859052821690633a8a230790604401600060405180830381600087803b158015620011c457600080fd5b505af1158015620011d9573d6000803e3d6000fd5b509298975050505050505050565b6067546040516367c5f53d60e01b81526001600160a01b038481166004830152838116602483015260009216906367c5f53d90604401602060405180830381865afa1580156200123b573d6000803e3d6000fd5b505050506040513d601f19601f8201168201806040525081019062001261919062002d33565b9392505050565b6200127262001e4c565b606780546001600160a01b0319166001600160a01b0392909216919091179055565b6060620005eb606a62001ee3565b6060806060806060806060806060620012bc606a62001ee3565b985088516001600160401b03811115620012da57620012da620029be565b60405190808252806020026020018201604052801562001304578160200160208202803683370190505b50975088516001600160401b03811115620013235762001323620029be565b6040519080825280602002602001820160405280156200134d578160200160208202803683370190505b50965088516001600160401b038111156200136c576200136c620029be565b604051908082528060200260200182016040528015620013a157816020015b60608152602001906001900390816200138b5790505b50955088516001600160401b03811115620013c057620013c0620029be565b604051908082528060200260200182016040528015620013f557816020015b6060815260200190600190039081620013df5790505b50945088516001600160401b03811115620014145762001414620029be565b6040519080825280602002602001820160405280156200143e578160200160208202803683370190505b50925088516001600160401b038111156200145d576200145d620029be565b60405190808252806020026020018201604052801562001487578160200160208202803683370190505b50915088516001600160401b03811115620014a657620014a6620029be565b604051908082528060200260200182016040528015620014d0578160200160208202803683370190505b50935088516001600160401b03811115620014ef57620014ef620029be565b60405190808252806020026020018201604052801562001519578160200160208202803683370190505b50905060005b8951811015620019e25760008a828151811062001540576200154062002ba2565b60200260200101519050806001600160a01b0316635fe3b5676040518163ffffffff1660e01b8152600401602060405180830381865afa15801562001589573d6000803e3d6000fd5b505050506040513d601f19601f82011682018060405250810190620015af919062002bec565b8a8381518110620015c457620015c462002ba2565b60200260200101906001600160a01b031690816001600160a01b0316815250506000816001600160a01b0316636f307dc36040518163ffffffff1660e01b8152600401602060405180830381865afa15801562001625573d6000803e3d6000fd5b505050506040513d601f19601f820116820180604052508101906200164b919062002bec565b9050808a848151811062001663576200166362002ba2565b60200260200101906001600160a01b031690816001600160a01b0316815250506000819050806001600160a01b03166306fdde036040518163ffffffff1660e01b8152600401600060405180830381865afa158015620016c7573d6000803e3d6000fd5b505050506040513d6000823e601f3d908101601f19168201604052620016f1919081019062002c62565b8a858151811062001706576200170662002ba2565b6020026020010181905250806001600160a01b03166395d89b416040518163ffffffff1660e01b8152600401600060405180830381865afa15801562001750573d6000803e3d6000fd5b505050506040513d6000823e601f3d908101601f191682016040526200177a919081019062002c62565b8985815181106200178f576200178f62002ba2565b6020026020010181905250806001600160a01b031663313ce5676040518163ffffffff1660e01b8152600401602060405180830381865afa158015620017d9573d6000803e3d6000fd5b505050506040513d601f19601f82011682018060405250810190620017ff919062002caf565b88858151811062001814576200181462002ba2565b602002602001019060ff16908160ff1681525050826001600160a01b0316634aeb3d9a6040518163ffffffff1660e01b8152600401602060405180830381865afa15801562001867573d6000803e3d6000fd5b505050506040513d601f19601f820116820180604052508101906200188d919062002b88565b868581518110620018a257620018a262002ba2565b602002602001018181525050606854836001600160a01b031663ae9d70b06040518163ffffffff1660e01b8152600401602060405180830381865afa158015620018f0573d6000803e3d6000fd5b505050506040513d601f19601f8201168201806040525081019062001916919062002b88565b62001922919062002cd4565b87858151811062001937576200193762002ba2565b602002602001018181525050826001600160a01b031663ae9d70b06040518163ffffffff1660e01b8152600401602060405180830381865afa15801562001982573d6000803e3d6000fd5b505050506040513d601f19601f82011682018060405250810190620019a8919062002b88565b858581518110620019bd57620019bd62002ba2565b6020026020010181815250505050508080620019d99062002bce565b9150506200151f565b50909192939495969798565b33600090815260696020526040812062001a09818462001f34565b62001a4b5760405162461bcd60e51b815260206004820152601160248201527010b7379039bab1b4103837b9b4ba34b7b760791b60448201526064016200068d565b826001600160a01b0316633e2f147f6040518163ffffffff1660e01b8152600401602060405180830381865afa15801562001a8a573d6000803e3d6000fd5b505050506040513d601f19601f8201168201806040525081019062001ab0919062002d33565b62001aec5760405162461bcd60e51b815260206004820152600b60248201526a085b9bdd0818db1bdcd95960aa1b60448201526064016200068d565b62001261818462001ec1565b606081516001600160401b0381111562001b165762001b16620029be565b60405190808252806020026020018201604052801562001b40578160200160208202803683370190505b50905060005b825181101562001c065782818151811062001b655762001b6562002ba2565b60200260200101516001600160a01b031663f8f9da286040518163ffffffff1660e01b8152600401602060405180830381865afa15801562001bab573d6000803e3d6000fd5b505050506040513d601f19601f8201168201806040525081019062001bd1919062002b88565b82828151811062001be65762001be662002ba2565b60209081029190910101528062001bfd8162002bce565b91505062001b46565b50919050565b60675460405163ed287f3f60e01b81526001600160a01b0384811660048301528381166024830152606092839291169063ed287f3f90604401600060405180830381865afa15801562001c63573d6000803e3d6000fd5b505050506040513d6000823e601f3d908101601f1916820160405262001c8d919081019062002dfd565b915091505b9250929050565b62001ca362001e4c565b606554604080516001600160a01b03928316815291831660208301527fb3d55174552271a4f1aaf36b72f50381e892171636b3fb5447fe00e995e7a37b910160405180910390a1606580546001600160a01b0319166001600160a01b0392909216919091179055565b6001600160a01b0381166000908152606c60205260409020606090620005749062001ee3565b6065546001600160a01b0316331462001d865760405162461bcd60e51b81526020600482015260156024820152743737ba103a3432903832b73234b7339037bbb732b960591b60448201526064016200068d565b600062001d9b6033546001600160a01b031690565b6065549091506001600160a01b031662001db58162001fb3565b606580546001600160a01b0319169055604080516001600160a01b0384168152600060208201527f70aea8d848e8a90fb7661b227dc522eb6395c3dac71b63cb59edd5c9899b2364910160405180910390a1606554604080516001600160a01b03808516825290921660208301527fb3d55174552271a4f1aaf36b72f50381e892171636b3fb5447fe00e995e7a37b910162001088565b6033546001600160a01b0316331462001ea85760405162461bcd60e51b815260206004820181905260248201527f4f776e61626c653a2063616c6c6572206973206e6f7420746865206f776e657260448201526064016200068d565b565b600062001261836001600160a01b03841662002005565b600062001261836001600160a01b03841662002057565b600062000574825490565b6060600062001261836200215b565b600054610100900460ff1662001f1c5760405162461bcd60e51b81526004016200068d9062002ecf565b62001f26620021b9565b62001f318162001fb3565b50565b6001600160a01b0381166000908152600183016020526040812054151562001261565b604080516001600160a01b0385811660248301528416604482015260648082018490528251808303909101815260849091019091526020810180516001600160e01b03166323b872dd60e01b179052620004e9908590620021ed565b603380546001600160a01b038381166001600160a01b0319831681179093556040519116919082907f8be0079c531659141344cd1fd0a4f28419497f9722a3daafe3b4186f6b6457e090600090a35050565b60008181526001830160205260408120546200204e5750815460018181018455600084815260208082209093018490558454848252828601909352604090209190915562000574565b50600062000574565b60008181526001830160205260408120548015620021505760006200207e60018362002cf6565b8554909150600090620020949060019062002cf6565b905081811462002100576000866000018281548110620020b857620020b862002ba2565b9060005260206000200154905080876000018481548110620020de57620020de62002ba2565b6000918252602080832090910192909255918252600188019052604090208390555b855486908062002114576200211462002f1a565b60019003818190600052602060002001600090559055856001016000868152602001908152602001600020600090556001935050505062000574565b600091505062000574565b606081600001805480602002602001604051908101604052809291908181526020018280548015620021ad57602002820191906000526020600020905b81548152602001906001019080831162002198575b50505050509050919050565b600054610100900460ff16620021e35760405162461bcd60e51b81526004016200068d9062002ecf565b62001ea8620022c6565b600062002244826040518060400160405280602081526020017f5361666545524332303a206c6f772d6c6576656c2063616c6c206661696c6564815250856001600160a01b0316620022fb9092919063ffffffff16565b80519091501562000549578080602001905181019062002265919062002d33565b620005495760405162461bcd60e51b815260206004820152602a60248201527f5361666545524332303a204552433230206f7065726174696f6e20646964206e6044820152691bdd081cdd58d8d9595960b21b60648201526084016200068d565b600054610100900460ff16620022f05760405162461bcd60e51b81526004016200068d9062002ecf565b62001ea83362001fb3565b606062001020848460008585600080866001600160a01b0316858760405162002325919062002f30565b60006040518083038185875af1925050503d806000811462002364576040519150601f19603f3d011682016040523d82523d6000602084013e62002369565b606091505b50915091506200237c8783838762002387565b979650505050505050565b60608315620023f8578251620023f0576001600160a01b0385163b620023f05760405162461bcd60e51b815260206004820152601d60248201527f416464726573733a2063616c6c20746f206e6f6e2d636f6e747261637400000060448201526064016200068d565b508162001020565b6200102083838151156200240f5781518083602001fd5b8060405162461bcd60e51b81526004016200068d919062002f4e565b612f758062002f6483390190565b6001600160a01b038116811462001f3157600080fd5b801515811462001f3157600080fd5b6000806000606084860312156200247457600080fd5b8335620024818162002439565b92506020840135620024938162002439565b91506040840135620024a5816200244f565b809150509250925092565b600060208284031215620024c357600080fd5b8135620012618162002439565b600081518084526020808501945080840160005b838110156200250b5781516001600160a01b031687529582019590820190600101620024e4565b509495945050505050565b602081526000620012616020830184620024d0565b6000806000606084860312156200254157600080fd5b83356200254e8162002439565b92506020840135620025608162002439565b929592945050506040919091013590565b600080604083850312156200258557600080fd5b8235620025928162002439565b91506020830135620025a48162002439565b809150509250929050565b60008083601f840112620025c257600080fd5b5081356001600160401b03811115620025da57600080fd5b6020830191508360208260051b850101111562001c9257600080fd5b600080600080600080606087890312156200261057600080fd5b86356001600160401b03808211156200262857600080fd5b620026368a838b01620025af565b909850965060208901359150808211156200265057600080fd5b6200265e8a838b01620025af565b909650945060408901359150808211156200267857600080fd5b506200268789828a01620025af565b979a9699509497509295939492505050565b60005b83811015620026b65781810151838201526020016200269c565b83811115620004e95750506000910152565b60008151808452620026e281602086016020860162002699565b601f01601f19169290920160200192915050565b600081518084526020808501808196508360051b8101915082860160005b85811015620027425782840389526200272f848351620026c8565b9885019893509084019060010162002714565b5091979650505050505050565b600081518084526020808501945080840160005b838110156200250b5781518752958201959082019060010162002763565b600081518084526020808501945080840160005b838110156200250b57815160ff168752958201959082019060010162002795565b60c081526000620027cb60c0830189620024d0565b8281036020840152620027df8189620024d0565b90508281036040840152620027f58188620026f6565b905082810360608401526200280b8187620026f6565b905082810360808401526200282181866200274f565b905082810360a084015262002837818562002781565b9998505050505050505050565b600080600080608085870312156200285b57600080fd5b8435620028688162002439565b935060208501356200287a8162002439565b93969395505050506040820135916060013590565b60008060008060808587031215620028a657600080fd5b8435620028b38162002439565b93506020850135620028c58162002439565b92506040850135620028d78162002439565b9396929550929360600135925050565b6000610120808352620028fd8184018d620024d0565b9050828103602084015262002913818c620024d0565b9050828103604084015262002929818b620024d0565b905082810360608401526200293f818a620026f6565b90508281036080840152620029558189620026f6565b905082810360a08401526200296b818862002781565b905082810360c08401526200298181876200274f565b905082810360e08401526200299781866200274f565b9050828103610100840152620029ae81856200274f565b9c9b505050505050505050505050565b634e487b7160e01b600052604160045260246000fd5b604051601f8201601f191681016001600160401b0381118282101715620029ff57620029ff620029be565b604052919050565b60006001600160401b0382111562002a235762002a23620029be565b5060051b60200190565b6000602080838503121562002a4157600080fd5b82356001600160401b0381111562002a5857600080fd5b8301601f8101851362002a6a57600080fd5b803562002a8162002a7b8262002a07565b620029d4565b81815260059190911b8201830190838101908783111562002aa157600080fd5b928401925b828410156200237c57833562002abc8162002439565b8252928401929084019062002aa6565b6020815260006200126160208301846200274f565b604080825283519082018190526000906020906060840190828701845b8281101562002b255781516001600160a01b03168452928401929084019060010162002afe565b50505083810382850152845180825282820190600581901b8301840187850160005b8381101562002b7957601f1986840301855262002b66838351620026c8565b9487019492509086019060010162002b47565b50909998505050505050505050565b60006020828403121562002b9b57600080fd5b5051919050565b634e487b7160e01b600052603260045260246000fd5b634e487b7160e01b600052601160045260246000fd5b600060001982141562002be55762002be562002bb8565b5060010190565b60006020828403121562002bff57600080fd5b8151620012618162002439565b60006001600160401b0383111562002c285762002c28620029be565b62002c3d601f8401601f1916602001620029d4565b905082815283838301111562002c5257600080fd5b6200126183602083018462002699565b60006020828403121562002c7557600080fd5b81516001600160401b0381111562002c8c57600080fd5b8201601f8101841362002c9e57600080fd5b620010208482516020840162002c0c565b60006020828403121562002cc257600080fd5b815160ff811681146200126157600080fd5b600081600019048311821515161562002cf15762002cf162002bb8565b500290565b60008282101562002d0b5762002d0b62002bb8565b500390565b60008262002d2e57634e487b7160e01b600052601260045260246000fd5b500490565b60006020828403121562002d4657600080fd5b815162001261816200244f565b600082601f83011262002d6557600080fd5b8151602062002d7862002a7b8362002a07565b82815260059290921b8401810191818101908684111562002d9857600080fd5b8286015b8481101562002df25780516001600160401b0381111562002dbd5760008081fd5b8701603f8101891362002dd05760008081fd5b62002de389868301516040840162002c0c565b84525091830191830162002d9c565b509695505050505050565b6000806040838503121562002e1157600080fd5b82516001600160401b038082111562002e2957600080fd5b818501915085601f83011262002e3e57600080fd5b8151602062002e5162002a7b8362002a07565b82815260059290921b8401810191818101908984111562002e7157600080fd5b948201945b8386101562002e9c57855162002e8c8162002439565b8252948201949082019062002e76565b9188015191965090935050508082111562002eb657600080fd5b5062002ec58582860162002d53565b9150509250929050565b6020808252602b908201527f496e697469616c697a61626c653a20636f6e7472616374206973206e6f74206960408201526a6e697469616c697a696e6760a81b606082015260800190565b634e487b7160e01b600052603160045260246000fd5b6000825162002f4481846020870162002699565b9190910192915050565b602081526000620012616020830184620026c856fe60a06040523480156200001157600080fd5b5060405162002f7538038062002f758339810160408190526200003491620002e3565b6000826001600160a01b0316635fe3b5676040518163ffffffff1660e01b8152600401602060405180830381865afa15801562000075573d6000803e3d6000fd5b505050506040513d601f19601f820116820180604052508101906200009b919062000337565b90506000826001600160a01b0316635fe3b5676040518163ffffffff1660e01b8152600401602060405180830381865afa158015620000de573d6000803e3d6000fd5b505050506040513d601f19601f8201168201806040525081019062000104919062000337565b9050806001600160a01b0316826001600160a01b0316146200016c5760405162461bcd60e51b815260206004820152601460248201527f6d61726b65747320706f6f6c7320646966666572000000000000000000000000604482015260640160405180910390fd5b600480546001600160a01b038085166001600160a01b03199283161783558781166080526002805491881691909216811790915560408051636f307dc360e01b815290519192636f307dc39282820192602092908290030181865afa158015620001da573d6000803e3d6000fd5b505050506040513d601f19601f8201168201806040525081019062000200919062000337565b600580546001600160a01b039283166001600160a01b03199182161790915560038054928616929091168217905560408051636f307dc360e01b81529051636f307dc3916004808201926020929091908290030181865afa1580156200026a573d6000803e3d6000fd5b505050506040513d601f19601f8201168201806040525081019062000290919062000337565b600680546001600160a01b03929092166001600160a01b0319928316179055600080556001805490911633179055506200035e9350505050565b6001600160a01b0381168114620002e057600080fd5b50565b600080600060608486031215620002f957600080fd5b83516200030681620002ca565b60208501519093506200031981620002ca565b60408501519092506200032c81620002ca565b809150509250925092565b6000602082840312156200034a57600080fd5b81516200035781620002ca565b9392505050565b608051612be66200038f6000396000818161027e015281816104dc01528181610eca015261120e0152612be66000f3fe608060405234801561001057600080fd5b50600436106101215760003560e01c8063958fa280116100ad578063b21fd02911610071578063b21fd02914610243578063c31443bb14610256578063c393d0e31461025e578063c45a015514610266578063cb2af14b1461027957600080fd5b8063958fa280146101ee5780639b5ddf0914610201578063a415deda1461020a578063a7e269a61461021d578063aabaecd61461023057600080fd5b806337460704116100f457806337460704146101a25780633a8a2307146101aa5780633e2f147f146101bf5780636813f999146101c857806390284933146101db57600080fd5b8063042ff7731461012657806316f0115b146101415780631b15e4741461016c5780632f86e2dd1461018f575b600080fd5b61012e6102a0565b6040519081526020015b60405180910390f35b600454610154906001600160a01b031681565b6040516001600160a01b039091168152602001610138565b61017f61017a36600461257e565b61044c565b6040519015158152602001610138565b61012e61019d36600461257e565b6104cf565b61012e61089e565b6101bd6101b836600461259b565b610d42565b005b6000541561017f565b600654610154906001600160a01b031681565b61012e6101e93660046125c7565b610ebd565b6101bd6101fc3660046125e0565b610f6e565b61012e60005481565b600254610154906001600160a01b031681565b600354610154906001600160a01b031681565b600554610154906001600160a01b031681565b61012e61025136600461257e565b611201565b61012e611315565b61012e6113b8565b600154610154906001600160a01b031681565b6101547f000000000000000000000000000000000000000000000000000000000000000081565b600080546102ae5750600090565b6000600460009054906101000a90046001600160a01b03166001600160a01b0316637dc0d1d06040518163ffffffff1660e01b8152600401602060405180830381865afa158015610303573d6000803e3d6000fd5b505050506040513d601f19601f820116820180604052508101906103279190612669565b60025460405163fc57d4df60e01b81526001600160a01b0391821660048201529192506000919083169063fc57d4df90602401602060405180830381865afa158015610377573d6000803e3d6000fd5b505050506040513d601f19601f8201168201806040525081019061039b9190612686565b9050806000546103ab91906126b5565b600160009054906101000a90046001600160a01b03166001600160a01b0316630da2262c6040518163ffffffff1660e01b8152600401602060405180830381865afa1580156103fe573d6000803e3d6000fd5b505050506040513d601f19601f820116820180604052508101906104229190612686565b61043b906ec097ce7bc90715b34b9f10000000006126b5565b61044591906126d4565b9250505090565b600154600554604051637c5ec99760e01b81526001600160a01b03848116600483015291821660248201526000929190911690637c5ec99790604401602060405180830381865afa1580156104a5573d6000803e3d6000fd5b505050506040513d601f19601f820116820180604052508101906104c99190612706565b92915050565b6000336001600160a01b037f000000000000000000000000000000000000000000000000000000000000000016146105225760405162461bcd60e51b815260040161051990612721565b60405180910390fd5b61052d6000196113c8565b600260009054906101000a90046001600160a01b03166001600160a01b031663a6afed956040518163ffffffff1660e01b81526004016020604051808303816000875af1158015610582573d6000803e3d6000fd5b505050506040513d601f19601f820116820180604052508101906105a69190612686565b156105e35760405162461bcd60e51b815260206004820152600d60248201526c1858d8dc9d594819985a5b1959609a1b6044820152606401610519565b60048054600254604051630ede4edd60e41b81526001600160a01b0391821693810193909352169063ede4edd0906024016020604051808303816000875af1158015610633573d6000803e3d6000fd5b505050506040513d601f19601f820116820180604052508101906106579190612686565b156106925760405162461bcd60e51b815260206004820152600b60248201526a195e1a5d0819985a5b195960aa1b6044820152606401610519565b6002546040516370a0823160e01b81523060048201526001600160a01b039091169063db006a759082906370a0823190602401602060405180830381865afa1580156106e2573d6000803e3d6000fd5b505050506040513d601f19601f820116820180604052508101906107069190612686565b6040518263ffffffff1660e01b815260040161072491815260200190565b6020604051808303816000875af1158015610743573d6000803e3d6000fd5b505050506040513d601f19601f820116820180604052508101906107679190612686565b156107a45760405162461bcd60e51b815260206004820152600d60248201526c1c995919595b4819985a5b1959609a1b6044820152606401610519565b60025460405163f3b1315360e01b81523060048201526001600160a01b039091169063f3b1315390602401602060405180830381865afa1580156107ec573d6000803e3d6000fd5b505050506040513d601f19601f820116820180604052508101906108109190612686565b6000556005546040516370a0823160e01b81523060048201526001600160a01b03909116906370a0823190602401602060405180830381865afa15801561085b573d6000803e3d6000fd5b505050506040513d601f19601f8201168201806040525081019061087f9190612686565b600554909150610899906001600160a01b03168383611748565b919050565b600080546108ac5750600090565b60048054600354604051638e8f294b60e01b81526001600160a01b0391821693810193909352600092911690638e8f294b906024016040805180830381865afa1580156108fd573d6000803e3d6000fd5b505050506040513d601f19601f820116820180604052508101906109219190612745565b60048054600254604051638e8f294b60e01b81526001600160a01b0391821693810193909352929450600093509190911690638e8f294b906024016040805180830381865afa158015610978573d6000803e3d6000fd5b505050506040513d601f19601f8201168201806040525081019061099c9190612745565b9150506000600460009054906101000a90046001600160a01b03166001600160a01b0316637dc0d1d06040518163ffffffff1660e01b8152600401602060405180830381865afa1580156109f4573d6000803e3d6000fd5b505050506040513d601f19601f82011682018060405250810190610a189190612669565b60035460405163fc57d4df60e01b81526001600160a01b0391821660048201529192506000919083169063fc57d4df90602401602060405180830381865afa158015610a68573d6000803e3d6000fd5b505050506040513d601f19601f82011682018060405250810190610a8c9190612686565b60025460405163fc57d4df60e01b81526001600160a01b0391821660048201529192506000919084169063fc57d4df90602401602060405180830381865afa158015610adc573d6000803e3d6000fd5b505050506040513d601f19601f82011682018060405250810190610b009190612686565b60048054600354604051630cbb414760e11b815230938101939093526001600160a01b039081166024840152600160448401529293506000921690631976828e90606401602060405180830381865afa158015610b61573d6000803e3d6000fd5b505050506040513d601f19601f82011682018060405250810190610b859190612686565b90506000610b9384836126b5565b600154600654600554604051632f53ef2b60e01b81526001600160a01b0392831660048201529082166024820152929350600092911690632f53ef2b90604401602060405180830381865afa158015610bf0573d6000803e3d6000fd5b505050506040513d601f19601f82011682018060405250810190610c149190612686565b90506000612710610c258382612771565b610c2f90856126b5565b610c3991906126d4565b90506000610c4786836126d4565b90506000610c5d8b670de0b6b3a7640000612771565b610c678c846126b5565b610c7191906126d4565b90506000670de0b6b3a7640000610c888c846126b5565b610c9291906126d4565b60025460405163f3b1315360e01b81523060048201529192506000916001600160a01b039091169063f3b1315390602401602060405180830381865afa158015610ce0573d6000803e3d6000fd5b505050506040513d601f19601f82011682018060405250810190610d049190612686565b600054909150610d148383612788565b610d2690670de0b6b3a76400006126b5565b610d3091906126d4565b9d505050505050505050505050505090565b610d576001600160a01b0383163330846117b0565b610d60826117e8565b600080828254610d709190612788565b90915550506004805460025460405163929fe9a160e01b815230938101939093526001600160a01b039081166024840152169063929fe9a190604401602060405180830381865afa158015610dc9573d6000803e3d6000fd5b505050506040513d601f19601f82011682018060405250810190610ded9190612706565b610eb95760408051600180825281830190925260009160208083019080368337505060025482519293506001600160a01b031691839150600090610e3357610e336127b6565b6001600160a01b03928316602091820292909201015260048054604051631853304760e31b815292169163c299823891610e6f918591016127cc565b6000604051808303816000875af1158015610e8e573d6000803e3d6000fd5b505050506040513d6000823e601f3d908101601f19168201604052610eb6919081019061286e565b50505b5050565b6000336001600160a01b037f00000000000000000000000000000000000000000000000000000000000000001614610f075760405162461bcd60e51b815260040161051990612721565b670de0b6b3a7640000821015610f2257610f226000196113c8565b6000610f2c611315565b905082811015610f4d57610f48610f438285612771565b6119bd565b610f5f565b610f5f610f5a8483612771565b6113c8565b610f67611315565b9392505050565b6002546001600160a01b031633141561105a576000610f8f828401846125c7565b9050610f9a81611c8e565b6005546040516370a0823160e01b815230600482015285916001600160a01b0316906370a0823190602401602060405180830381865afa158015610fe2573d6000803e3d6000fd5b505050506040513d601f19601f820116820180604052508101906110069190612686565b10156110545760405162461bcd60e51b815260206004820152601b60248201527f2163616e6e6f7420726570617920636f6c6c61746572616c20464c00000000006044820152606401610519565b50611189565b6003546001600160a01b031633141561114157600061107b828401846125c7565b90506110878482611d73565b6006546040516370a0823160e01b815230600482015285916001600160a01b0316906370a0823190602401602060405180830381865afa1580156110cf573d6000803e3d6000fd5b505050506040513d601f19601f820116820180604052508101906110f39190612686565b10156110545760405162461bcd60e51b815260206004820152601760248201527f2163616e6e6f7420726570617920737461626c6520464c0000000000000000006044820152606401610519565b60405162461bcd60e51b815260206004820152601b60248201527f21666c206e6f742066726f6d20656974686572206d61726b65747300000000006044820152606401610519565b60405163095ea7b360e01b8152336004820152602481018490526001600160a01b0385169063095ea7b3906044016020604051808303816000875af11580156111d6573d6000803e3d6000fd5b505050506040513d601f19601f820116820180604052508101906111fa9190612706565b5050505050565b6000336001600160a01b037f0000000000000000000000000000000000000000000000000000000000000000161461124b5760405162461bcd60e51b815260040161051990612721565b6000541561128e5760405162461bcd60e51b815260206004820152601060248201526f1bdb9b1e481dda195b8818db1bdcd95960821b6044820152606401610519565b6006546040516370a0823160e01b81523060048201526000916001600160a01b0316906370a0823190602401602060405180830381865afa1580156112d7573d6000803e3d6000fd5b505050506040513d601f19601f820116820180604052508101906112fb9190612686565b6006549091506104c9906001600160a01b03168483611748565b600080546113235750600090565b60025460405163f3b1315360e01b81523060048201526000916001600160a01b03169063f3b1315390602401602060405180830381865afa15801561136c573d6000803e3d6000fd5b505050506040513d601f19601f820116820180604052508101906113909190612686565b6000549091506113a882670de0b6b3a76400006126b5565b6113b291906126d4565b91505090565b60006113c3336104cf565b905090565b60048054600354604051638e8f294b60e01b81526001600160a01b0391821693810193909352600092839283921690638e8f294b906024016040805180830381865afa15801561141c573d6000803e3d6000fd5b505050506040513d601f19601f820116820180604052508101906114409190612745565b9150506000600460009054906101000a90046001600160a01b03166001600160a01b0316637dc0d1d06040518163ffffffff1660e01b8152600401602060405180830381865afa158015611498573d6000803e3d6000fd5b505050506040513d601f19601f820116820180604052508101906114bc9190612669565b60035460405163fc57d4df60e01b81526001600160a01b0391821660048201529192506000919083169063fc57d4df90602401602060405180830381865afa15801561150c573d6000803e3d6000fd5b505050506040513d601f19601f820116820180604052508101906115309190612686565b60025460405163fc57d4df60e01b81526001600160a01b0391821660048201529192506000919084169063fc57d4df90602401602060405180830381865afa158015611580573d6000803e3d6000fd5b505050506040513d601f19601f820116820180604052508101906115a49190612686565b905060001987141561165d576003546040516305eff7ef60e21b81523060048201526001600160a01b03909116906317bfdfbc906024016020604051808303816000875af11580156115fa573d6000803e3d6000fd5b505050506040513d601f19601f8201168201806040525081019061161e9190612686565b9450600061162c83876126b5565b90508461163983836126d4565b61164b90670de0b6b3a76400006126b5565b61165591906126d4565b9650506116ba565b670de0b6b3a76400008760005461167491906126b5565b61167e91906126d4565b9550600061168c82886126b5565b9050670de0b6b3a7640000856116a285846126d4565b6116ac91906126b5565b6116b691906126d4565b9550505b841561173f576003546040805160208082018a90528251808303909101815281830192839052633c3b4b8960e01b9092526001600160a01b0390921691633c3b4b899161170c91899190604401612951565b600060405180830381600087803b15801561172657600080fd5b505af115801561173a573d6000803e3d6000fd5b505050505b50505050505050565b6040516001600160a01b0383166024820152604481018290526117ab90849063a9059cbb60e01b906064015b60408051601f198184030181529190526020810180516001600160e01b03166001600160e01b031990931692909217909152611fe4565b505050565b6040516001600160a01b0380851660248301528316604482015260648101829052610eb69085906323b872dd60e01b90608401611774565b6005546000906001600160a01b03838116911614611819576005546118179083906001600160a01b03166120b6565b505b6005546040516370a0823160e01b81523060048201526001600160a01b03909116906370a0823190602401602060405180830381865afa158015611861573d6000803e3d6000fd5b505050506040513d601f19601f820116820180604052508101906118859190612686565b60055460025460405163095ea7b360e01b81526001600160a01b03918216600482015260248101849052929350169063095ea7b3906044016020604051808303816000875af11580156118dc573d6000803e3d6000fd5b505050506040513d601f19601f820116820180604052508101906119009190612706565b5060025460405163140e25ad60e31b8152600481018390526001600160a01b039091169063a0712d68906024016020604051808303816000875af115801561194c573d6000803e3d6000fd5b505050506040513d601f19601f820116820180604052508101906119709190612686565b156108995760405162461bcd60e51b815260206004820152601860248201527f737570706c7920636f6c6c61746572616c206661696c656400000000000000006044820152606401610519565b6000600460009054906101000a90046001600160a01b03166001600160a01b0316637dc0d1d06040518163ffffffff1660e01b8152600401602060405180830381865afa158015611a12573d6000803e3d6000fd5b505050506040513d601f19601f82011682018060405250810190611a369190612669565b60035460405163fc57d4df60e01b81526001600160a01b0391821660048201529192506000919083169063fc57d4df90602401602060405180830381865afa158015611a86573d6000803e3d6000fd5b505050506040513d601f19601f82011682018060405250810190611aaa9190612686565b60025460405163fc57d4df60e01b81526001600160a01b0391821660048201529192506000919084169063fc57d4df90602401602060405180830381865afa158015611afa573d6000803e3d6000fd5b505050506040513d601f19601f82011682018060405250810190611b1e9190612686565b90506000670de0b6b3a764000085600054611b3991906126b5565b611b4391906126d4565b90506000611b5183836126b5565b90506000611b5f85836126d4565b600154600654600554604051632f53ef2b60e01b81526001600160a01b0392831660048201529082166024820152929350600092911690632f53ef2b90604401602060405180830381865afa158015611bbc573d6000803e3d6000fd5b505050506040513d601f19601f82011682018060405250810190611be09190612686565b9050612710611bef8282612788565b611bf990846126b5565b611c0391906126d4565b6002546040805160208082018590528251808303909101815281830192839052633c3b4b8960e01b9092529294506001600160a01b0390911691633c3b4b8991611c5291889190604401612951565b600060405180830381600087803b158015611c6c57600080fd5b505af1158015611c80573d6000803e3d6000fd5b505050505050505050505050565b600554611ca3906001600160a01b03166117e8565b5060035460405163317afabb60e21b8152600481018390526001600160a01b039091169063c5ebeaec906024016020604051808303816000875af1158015611cef573d6000803e3d6000fd5b505050506040513d601f19601f82011682018060405250810190611d139190612686565b15611d575760405162461bcd60e51b8152602060048201526014602482015273189bdc9c9bddc81cdd18589b194819985a5b195960621b6044820152606401610519565b600654600554610eb9916001600160a01b0390811691166120b6565b6003546040516305eff7ef60e21b81523060048201526000916001600160a01b0316906317bfdfbc906024016020604051808303816000875af1158015611dbe573d6000803e3d6000fd5b505050506040513d601f19601f82011682018060405250810190611de29190612686565b90506000818410611df35781611df5565b835b60065460035460405163095ea7b360e01b81526001600160a01b03918216600482015260248101849052929350169063095ea7b3906044016020604051808303816000875af1158015611e4c573d6000803e3d6000fd5b505050506040513d601f19601f82011682018060405250810190611e709190612706565b5060035460405163073a938160e11b8152600481018390526001600160a01b0390911690630e752702906024016020604051808303816000875af1158015611ebc573d6000803e3d6000fd5b505050506040513d601f19601f82011682018060405250810190611ee09190612686565b15611f1c5760405162461bcd60e51b815260206004820152600c60248201526b1c995c185e4819985a5b195960a21b6044820152606401610519565b60025460405163852a12e360e01b8152600481018590526001600160a01b039091169063852a12e3906024016020604051808303816000875af1158015611f67573d6000803e3d6000fd5b505050506040513d601f19601f82011682018060405250810190611f8b9190612686565b15611fc85760405162461bcd60e51b815260206004820152600d60248201526c1c995919595b4819985a5b1959609a1b6044820152606401610519565b6005546006546111fa916001600160a01b0390811691166120b6565b6000612039826040518060400160405280602081526020017f5361666545524332303a206c6f772d6c6576656c2063616c6c206661696c6564815250856001600160a01b03166122269092919063ffffffff16565b8051909150156117ab57808060200190518101906120579190612706565b6117ab5760405162461bcd60e51b815260206004820152602a60248201527f5361666545524332303a204552433230206f7065726174696f6e20646964206e6044820152691bdd081cdd58d8d9595960b21b6064820152608401610519565b6040516370a0823160e01b815230600482015260009081906001600160a01b038516906370a0823190602401602060405180830381865afa1580156120ff573d6000803e3d6000fd5b505050506040513d601f19601f820116820180604052508101906121239190612686565b60015460405163ed287f3f60e01b81526001600160a01b03878116600483015286811660248301529293506000928392169063ed287f3f90604401600060405180830381865afa15801561217b573d6000803e3d6000fd5b505050506040513d6000823e601f3d908101601f191682016040526121a39190810190612a4e565b9150915060005b825181101561221c5760008382815181106121c7576121c76127b6565b6020026020010151905060008383815181106121e5576121e56127b6565b602002602001015190506121fb8987848461223d565b9099508998509650869550829150612214905081612b13565b9150506121aa565b5050505092915050565b606061223584846000856122be565b949350505050565b600080600061229a856310badf4e60e01b89898860405160240161226393929190612b2e565b60408051601f198184030181529190526020810180516001600160e01b03166001600160e01b031990931692909217909152612399565b9050808060200190518101906122b09190612b55565b925092505094509492505050565b60608247101561231f5760405162461bcd60e51b815260206004820152602660248201527f416464726573733a20696e73756666696369656e742062616c616e636520666f6044820152651c8818d85b1b60d21b6064820152608401610519565b600080866001600160a01b0316858760405161233b9190612b83565b60006040518083038185875af1925050503d8060008114612378576040519150601f19603f3d011682016040523d82523d6000602084013e61237d565b606091505b509150915061238e8783838761248d565b979650505050505050565b60606001600160a01b0383163b6124015760405162461bcd60e51b815260206004820152602660248201527f416464726573733a2064656c65676174652063616c6c20746f206e6f6e2d636f6044820152651b9d1c9858dd60d21b6064820152608401610519565b600080846001600160a01b03168460405161241c9190612b83565b600060405180830381855af49150503d8060008114612457576040519150601f19603f3d011682016040523d82523d6000602084013e61245c565b606091505b50915091506124848282604051806060016040528060278152602001612bb360279139612503565b95945050505050565b606083156124f95782516124f2576001600160a01b0385163b6124f25760405162461bcd60e51b815260206004820152601d60248201527f416464726573733a2063616c6c20746f206e6f6e2d636f6e74726163740000006044820152606401610519565b5081612235565b612235838361253c565b60608315612512575081610f67565b8251156125225782518084602001fd5b8160405162461bcd60e51b81526004016105199190612b9f565b81511561254c5781518083602001fd5b8060405162461bcd60e51b81526004016105199190612b9f565b6001600160a01b038116811461257b57600080fd5b50565b60006020828403121561259057600080fd5b8135610f6781612566565b600080604083850312156125ae57600080fd5b82356125b981612566565b946020939093013593505050565b6000602082840312156125d957600080fd5b5035919050565b600080600080606085870312156125f657600080fd5b843561260181612566565b935060208501359250604085013567ffffffffffffffff8082111561262557600080fd5b818701915087601f83011261263957600080fd5b81358181111561264857600080fd5b88602082850101111561265a57600080fd5b95989497505060200194505050565b60006020828403121561267b57600080fd5b8151610f6781612566565b60006020828403121561269857600080fd5b5051919050565b634e487b7160e01b600052601160045260246000fd5b60008160001904831182151516156126cf576126cf61269f565b500290565b6000826126f157634e487b7160e01b600052601260045260246000fd5b500490565b8051801515811461089957600080fd5b60006020828403121561271857600080fd5b610f67826126f6565b6020808252600a908201526937b7363c9037bbb732b960b11b604082015260600190565b6000806040838503121561275857600080fd5b612761836126f6565b9150602083015190509250929050565b6000828210156127835761278361269f565b500390565b6000821982111561279b5761279b61269f565b500190565b634e487b7160e01b600052604160045260246000fd5b634e487b7160e01b600052603260045260246000fd5b6020808252825182820181905260009190848201906040850190845b8181101561280d5783516001600160a01b0316835292840192918401916001016127e8565b50909695505050505050565b604051601f8201601f1916810167ffffffffffffffff81118282101715612842576128426127a0565b604052919050565b600067ffffffffffffffff821115612864576128646127a0565b5060051b60200190565b6000602080838503121561288157600080fd5b825167ffffffffffffffff81111561289857600080fd5b8301601f810185136128a957600080fd5b80516128bc6128b78261284a565b612819565b81815260059190911b820183019083810190878311156128db57600080fd5b928401925b8284101561238e578351825292840192908401906128e0565b60005b838110156129145781810151838201526020016128fc565b83811115610eb65750506000910152565b6000815180845261293d8160208601602086016128f9565b601f01601f19169290920160200192915050565b8281526040602082015260006122356040830184612925565b6000601f838184011261297c57600080fd5b8251602061298c6128b78361284a565b82815260059290921b850181019181810190878411156129ab57600080fd5b8287015b84811015612a4257805167ffffffffffffffff808211156129d05760008081fd5b818a0191508a603f8301126129e55760008081fd5b858201516040828211156129fb576129fb6127a0565b612a0c828b01601f19168901612819565b92508183528c81838601011115612a235760008081fd5b612a32828985018387016128f9565b50508452509183019183016129af565b50979650505050505050565b60008060408385031215612a6157600080fd5b825167ffffffffffffffff80821115612a7957600080fd5b818501915085601f830112612a8d57600080fd5b81516020612a9d6128b78361284a565b82815260059290921b84018101918181019089841115612abc57600080fd5b948201945b83861015612ae3578551612ad481612566565b82529482019490820190612ac1565b91880151919650909350505080821115612afc57600080fd5b50612b098582860161296a565b9150509250929050565b6000600019821415612b2757612b2761269f565b5060010190565b60018060a01b03841681528260208201526060604082015260006124846060830184612925565b60008060408385031215612b6857600080fd5b8251612b7381612566565b6020939093015192949293505050565b60008251612b958184602087016128f9565b9190910192915050565b602081526000610f67602083018461292556fe416464726573733a206c6f772d6c6576656c2064656c65676174652063616c6c206661696c6564a164736f6c634300080a000aa164736f6c634300080a000a",
    "linkReferences": {}
  },
  "methodIdentifiers": {
    "MAX_SLIPPAGE()": "f9759518",
    "_acceptOwner()": "fc4d33f9",
    "_setLiquidatorsRegistry(address)": "8715b16b",
    "_setPairWhitelisted(address,address,bool)": "035d2a38",
    "_setPendingOwner(address)": "6e96dfd7",
    "_setSlippages(address[],address[],uint256[])": "5495a6d7",
    "blocksPerYear()": "a385fb96",
    "createAndFundPosition(address,address,address,uint256)": "7bf8f349",
    "createPosition(address,address)": "6969e58b",
    "ffd()": "ca1eea3d",
    "getBorrowRateAtRatio(address,address,uint256,uint256)": "6bbdc780",
    "getBorrowRates(address[])": "de041801",
    "getBorrowableMarketsAndRates(address)": "60ff773e",
    "getBorrowableMarketsByCollateral(address)": "f4e61066",
    "getCollateralMarkets()": "c03497c0",
    "getMinBorrowNative()": "0da2262c",
    "getPositionsByAccount(address)": "0973e916",
    "getRedemptionStrategies(address,address)": "ed287f3f",
    "getSlippage(address,address)": "2f53ef2b",
    "getWhitelistedCollateralMarkets()": "a339d751",
    "initialize(address,address,uint256)": "1794bb3c",
    "isFundingAllowed(address,address)": "7c5ec997",
    "liquidatorsRegistry()": "16bb997f",
    "owner()": "8da5cb5b",
    "pendingOwner()": "e30c3978",
    "removeClosedPosition(address)": "ca2de6bc",
    "renounceOwnership()": "715018a6",
    "transferOwnership(address)": "f2fde38b"
  }
}