{
  "address": "0xd48001f7e5ac0989576CCAD53D6c2c6e9647C002",
  "abi": [
    {
      "inputs": [],
      "name": "NoSuchPosition",
      "type": "error"
    },
    {
      "inputs": [],
      "name": "PairNotWhitelisted",
      "type": "error"
    },
    {
      "inputs": [],
      "name": "PositionNotClosed",
      "type": "error"
    },
    {
      "anonymous": false,
      "inputs": [
        {
          "indexed": true,
          "internalType": "address",
          "name": "previousOwner",
          "type": "address"
        },
        {
          "indexed": true,
          "internalType": "address",
          "name": "newOwner",
          "type": "address"
        }
      ],
      "name": "OwnershipTransferStarted",
      "type": "event"
    },
    {
      "anonymous": false,
      "inputs": [
        {
          "indexed": true,
          "internalType": "address",
          "name": "previousOwner",
          "type": "address"
        },
        {
          "indexed": true,
          "internalType": "address",
          "name": "newOwner",
          "type": "address"
        }
      ],
      "name": "OwnershipTransferred",
      "type": "event"
    },
    {
      "inputs": [],
      "name": "MAX_SLIPPAGE",
      "outputs": [
        {
          "internalType": "uint256",
          "name": "",
          "type": "uint256"
        }
      ],
      "stateMutability": "view",
      "type": "function"
    },
    {
      "inputs": [],
      "name": "_getExtensionFunctions",
      "outputs": [
        {
          "internalType": "bytes4[]",
          "name": "",
          "type": "bytes4[]"
        }
      ],
      "stateMutability": "pure",
      "type": "function"
    },
    {
      "inputs": [],
      "name": "acceptOwnership",
      "outputs": [],
      "stateMutability": "nonpayable",
      "type": "function"
    },
    {
      "inputs": [],
      "name": "blocksPerYear",
      "outputs": [
        {
          "internalType": "uint256",
          "name": "",
          "type": "uint256"
        }
      ],
      "stateMutability": "view",
      "type": "function"
    },
    {
      "inputs": [
        {
          "internalType": "contract LeveredPosition",
          "name": "position",
          "type": "address"
        }
      ],
      "name": "closeAndRemoveUserPosition",
      "outputs": [
        {
          "internalType": "bool",
          "name": "",
          "type": "bool"
        }
      ],
      "stateMutability": "nonpayable",
      "type": "function"
    },
    {
      "inputs": [
        {
          "internalType": "contract ICErc20",
          "name": "_collateralMarket",
          "type": "address"
        },
        {
          "internalType": "contract ICErc20",
          "name": "_stableMarket",
          "type": "address"
        },
        {
          "internalType": "contract IERC20Upgradeable",
          "name": "_fundingAsset",
          "type": "address"
        },
        {
          "internalType": "uint256",
          "name": "_fundingAmount",
          "type": "uint256"
        }
      ],
      "name": "createAndFundPosition",
      "outputs": [
        {
          "internalType": "contract LeveredPosition",
          "name": "",
          "type": "address"
        }
      ],
      "stateMutability": "nonpayable",
      "type": "function"
    },
    {
      "inputs": [
        {
          "internalType": "contract ICErc20",
          "name": "_collateralMarket",
          "type": "address"
        },
        {
          "internalType": "contract ICErc20",
          "name": "_stableMarket",
          "type": "address"
        },
        {
          "internalType": "contract IERC20Upgradeable",
          "name": "_fundingAsset",
          "type": "address"
        },
        {
          "internalType": "uint256",
          "name": "_fundingAmount",
          "type": "uint256"
        },
        {
          "internalType": "uint256",
          "name": "_leverageRatio",
          "type": "uint256"
        }
      ],
      "name": "createAndFundPositionAtRatio",
      "outputs": [
        {
          "internalType": "contract LeveredPosition",
          "name": "",
          "type": "address"
        }
      ],
      "stateMutability": "nonpayable",
      "type": "function"
    },
    {
      "inputs": [
        {
          "internalType": "contract ICErc20",
          "name": "_collateralMarket",
          "type": "address"
        },
        {
          "internalType": "contract ICErc20",
          "name": "_stableMarket",
          "type": "address"
        }
      ],
      "name": "createPosition",
      "outputs": [
        {
          "internalType": "contract LeveredPosition",
          "name": "",
          "type": "address"
        }
      ],
      "stateMutability": "nonpayable",
      "type": "function"
    },
    {
      "inputs": [],
      "name": "fuseFeeDistributor",
      "outputs": [
        {
          "internalType": "contract IFuseFeeDistributor",
          "name": "",
          "type": "address"
        }
      ],
      "stateMutability": "view",
      "type": "function"
    },
    {
      "inputs": [],
      "name": "getAccountsWithOpenPositions",
      "outputs": [
        {
          "internalType": "address[]",
          "name": "",
          "type": "address[]"
        }
      ],
      "stateMutability": "view",
      "type": "function"
    },
    {
      "inputs": [
        {
          "internalType": "contract ICErc20",
          "name": "_collateralMarket",
          "type": "address"
        }
      ],
      "name": "getBorrowableMarketsByCollateral",
      "outputs": [
        {
          "internalType": "address[]",
          "name": "",
          "type": "address[]"
        }
      ],
      "stateMutability": "view",
      "type": "function"
    },
    {
      "inputs": [],
      "name": "getMinBorrowNative",
      "outputs": [
        {
          "internalType": "uint256",
          "name": "",
          "type": "uint256"
        }
      ],
      "stateMutability": "view",
      "type": "function"
    },
    {
      "inputs": [
        {
          "internalType": "address",
          "name": "account",
          "type": "address"
        }
      ],
      "name": "getPositionsByAccount",
      "outputs": [
        {
          "internalType": "address[]",
          "name": "positions",
          "type": "address[]"
        },
        {
          "internalType": "bool[]",
          "name": "closed",
          "type": "bool[]"
        }
      ],
      "stateMutability": "view",
      "type": "function"
    },
    {
      "inputs": [
        {
          "internalType": "bytes4",
          "name": "msgSig",
          "type": "bytes4"
        }
      ],
      "name": "getPositionsExtension",
      "outputs": [
        {
          "internalType": "address",
          "name": "",
          "type": "address"
        }
      ],
      "stateMutability": "view",
      "type": "function"
    },
    {
      "inputs": [
        {
          "internalType": "contract IERC20Upgradeable",
          "name": "inputToken",
          "type": "address"
        },
        {
          "internalType": "contract IERC20Upgradeable",
          "name": "outputToken",
          "type": "address"
        }
      ],
      "name": "getRedemptionStrategies",
      "outputs": [
        {
          "internalType": "contract IRedemptionStrategy[]",
          "name": "strategies",
          "type": "address[]"
        },
        {
          "internalType": "bytes[]",
          "name": "strategiesData",
          "type": "bytes[]"
        }
      ],
      "stateMutability": "view",
      "type": "function"
    },
    {
      "inputs": [
        {
          "internalType": "contract IERC20Upgradeable",
          "name": "inputToken",
          "type": "address"
        },
        {
          "internalType": "contract IERC20Upgradeable",
          "name": "outputToken",
          "type": "address"
        }
      ],
      "name": "getSlippage",
      "outputs": [
        {
          "internalType": "uint256",
          "name": "slippage",
          "type": "uint256"
        }
      ],
      "stateMutability": "view",
      "type": "function"
    },
    {
      "inputs": [],
      "name": "getWhitelistedCollateralMarkets",
      "outputs": [
        {
          "internalType": "address[]",
          "name": "",
          "type": "address[]"
        }
      ],
      "stateMutability": "view",
      "type": "function"
    },
    {
      "inputs": [],
      "name": "liquidatorsRegistry",
      "outputs": [
        {
          "internalType": "contract ILiquidatorsRegistry",
          "name": "",
          "type": "address"
        }
      ],
      "stateMutability": "view",
      "type": "function"
    },
    {
      "inputs": [],
      "name": "owner",
      "outputs": [
        {
          "internalType": "address",
          "name": "",
          "type": "address"
        }
      ],
      "stateMutability": "view",
      "type": "function"
    },
    {
      "inputs": [],
      "name": "pendingOwner",
      "outputs": [
        {
          "internalType": "address",
          "name": "",
          "type": "address"
        }
      ],
      "stateMutability": "view",
      "type": "function"
    },
    {
      "inputs": [
        {
          "internalType": "address",
          "name": "closedPosition",
          "type": "address"
        }
      ],
      "name": "removeClosedPosition",
      "outputs": [
        {
          "internalType": "bool",
          "name": "",
          "type": "bool"
        }
      ],
      "stateMutability": "nonpayable",
      "type": "function"
    },
    {
      "inputs": [],
      "name": "renounceOwnership",
      "outputs": [],
      "stateMutability": "nonpayable",
      "type": "function"
    },
    {
      "inputs": [
        {
          "internalType": "address",
          "name": "newOwner",
          "type": "address"
        }
      ],
      "name": "transferOwnership",
      "outputs": [],
      "stateMutability": "nonpayable",
      "type": "function"
    }
  ],
  "transactionHash": "0xdb8556271e8244316afb29e8441b942305e415bf62f404603db36b71be6ce623",
  "args": [],
  "numDeployments": 11,
  "bytecode": {
    "object": "0x608060405234801561001057600080fd5b5061001a3361001f565b610096565b600180546001600160a01b031916905561004381610046602090811b61110717901c565b50565b600080546001600160a01b038381166001600160a01b0319831681178455604051919092169283917f8be0079c531659141344cd1fd0a4f28419497f9722a3daafe3b4186f6b6457e09190a35050565b61591580620000a66000396000f3fe60806040523480156200001157600080fd5b5060043610620001695760003560e01c806386ef748211620000d3578063d337a1da1162000086578063d337a1da1462000301578063e30c39781462000318578063ed287f3f146200032a578063f2fde38b1462000351578063f4e610661462000368578063f9759518146200037f57600080fd5b806386ef7482146200028357806389f8132e146200029a5780638da5cb5b14620002b3578063a339d75114620002c5578063a385fb9614620002cf578063ca2de6bc14620002d957600080fd5b8063534da460116200012c578063534da46014620002145780636817de81146200022b5780636969e58b146200023f578063715018a6146200025657806379ba509714620002625780637bf8f349146200026c57600080fd5b80630973e916146200016e5780630da2262c146200019e57806312468b7714620001b757806316bb997f14620001d05780632f53ef2b14620001fd575b600080fd5b620001856200017f366004620017e4565b62000389565b604051620001959291906200184a565b60405180910390f35b620001a8620004cb565b60405190815260200162000195565b620001c162000541565b604051620001959190620018a7565b600a54620001e4906001600160a01b031681565b6040516001600160a01b03909116815260200162000195565b620001a86200020e366004620018bc565b6200054f565b620001e462000225366004620018fa565b62000586565b600954620001e4906001600160a01b031681565b620001e462000250366004620018bc565b62000613565b6200026062000922565b005b6200026062000979565b620001e46200027d3660046200195c565b620009f7565b620001e462000294366004620019b4565b50600090565b620002a462000b06565b604051620001959190620019e0565b6000546001600160a01b0316620001e4565b620001c162000ecb565b620001a8600b5481565b620002f0620002ea366004620017e4565b62000ed9565b604051901515815260200162000195565b620002f062000312366004620017e4565b62000ee7565b6001546001600160a01b0316620001e4565b620003416200033b366004620018bc565b62000fe1565b6040516200019592919062001a8d565b6200026062000362366004620017e4565b6200106d565b620001c162000379366004620017e4565b620010e1565b620001a861038481565b6001600160a01b03811660009081526004602052604090206060908190620003b19062001157565b9150815167ffffffffffffffff811115620003d057620003d062001b34565b604051908082528060200260200182016040528015620003fa578160200160208202803683370190505b50905060005b8251811015620004c5578281815181106200041f576200041f62001b4a565b60200260200101516001600160a01b0316633e2f147f6040518163ffffffff1660e01b8152600401602060405180830381865afa15801562000465573d6000803e3d6000fd5b505050506040513d601f19601f820116820180604052508101906200048b919062001b60565b828281518110620004a057620004a062001b4a565b9115156020928302919091019091015280620004bc8162001b9a565b91505062000400565b50915091565b6009546040805163fdb25fb160e01b815290516000926001600160a01b03169163fdb25fb19160048083019260209291908290030181865afa15801562000516573d6000803e3d6000fd5b505050506040513d601f19601f820116820180604052508101906200053c919062001bb8565b905090565b60606200053c600262001157565b6001600160a01b03808316600090815260086020908152604080832093851683529290522054806200058057506103845b92915050565b6000806200059787878787620009f7565b604051639028493360e01b8152600481018590529091506001600160a01b038216906390284933906024016020604051808303816000875af1158015620005e2573d6000803e3d6000fd5b505050506040513d601f19601f8201168201806040525081019062000608919062001bb8565b509695505050505050565b6001600160a01b038216600090815260076020526040812062000637908362001166565b6200065557604051633f94e3f760e01b815260040160405180910390fd5b60003384846040516200066890620017c0565b6001600160a01b03938416815291831660208301529091166040820152606001604051809103906000f080158015620006a5573d6000803e3d6000fd5b509050620006b560023362001189565b50336000908152600460205260409020620006d1908262001189565b50600954604080516322ab0bc360e21b815290516000926001600160a01b031691638aac2f0c9160048083019260209291908290030181865afa1580156200071d573d6000803e3d6000fd5b505050506040513d601f19601f8201168201806040525081019062000743919062001bd2565b90506000816001600160a01b031663ec2ffdd1876001600160a01b0316635fe3b5676040518163ffffffff1660e01b8152600401602060405180830381865afa15801562000795573d6000803e3d6000fd5b505050506040513d601f19601f82011682018060405250810190620007bb919062001bd2565b6040516001600160e01b031960e084901b1681526001600160a01b039091166004820152602401602060405180830381865afa15801562000800573d6000803e3d6000fd5b505050506040513d601f19601f8201168201806040525081019062000826919062001bd2565b90506001600160a01b038116156200091857806001600160a01b03166367aff48484836001600160a01b0316633300183c6040518163ffffffff1660e01b8152600401602060405180830381865afa15801562000887573d6000803e3d6000fd5b505050506040513d601f19601f82011682018060405250810190620008ad919062001bf2565b6040516001600160e01b031960e085901b1681526001600160a01b03909216600483015260ff16602482015260016044820152606401600060405180830381600087803b158015620008fe57600080fd5b505af115801562000913573d6000803e3d6000fd5b505050505b5090949350505050565b6200092c620011a0565b60405162461bcd60e51b815260206004820152601e60248201527f72656e6f756e6365206f776e657273686970206e6f7420616c6c6f776564000060448201526064015b60405180910390fd5b60015433906001600160a01b03168114620009e95760405162461bcd60e51b815260206004820152602960248201527f4f776e61626c6532537465703a2063616c6c6572206973206e6f7420746865206044820152683732bb9037bbb732b960b91b606482015260840162000970565b620009f481620011fe565b50565b60008062000a06868662000613565b905062000a1f6001600160a01b03851633308662001219565b60405163095ea7b360e01b81526001600160a01b0382811660048301526024820185905285169063095ea7b3906044016020604051808303816000875af115801562000a6f573d6000803e3d6000fd5b505050506040513d601f19601f8201168201806040525081019062000a95919062001b60565b50604051633a8a230760e01b81526001600160a01b03858116600483015260248201859052821690633a8a230790604401600060405180830381600087803b15801562000ae157600080fd5b505af115801562000af6573d6000803e3d6000fd5b509293505050505b949350505050565b60408051600c8082526101a0820190925260609190600090826020820161018080368337019050509050636969e58b60e01b8162000b448462001c17565b93508360ff168151811062000b5d5762000b5d62001b4a565b6001600160e01b031990921660209283029190910190910152637bf8f34960e01b8162000b8a8462001c17565b93508360ff168151811062000ba35762000ba362001b4a565b6001600160e01b03199092166020928302919091019091015263029a6d2360e51b8162000bd08462001c17565b93508360ff168151811062000be95762000be962001b4a565b6001600160e01b03199092166020928302919091019091015263328b79af60e21b8162000c168462001c17565b93508360ff168151811062000c2f5762000c2f62001b4a565b6001600160e01b031990921660209283029190910190910152630368898b60e21b8162000c5c8462001c17565b93508360ff168151811062000c755762000c7562001b4a565b6001600160e01b03199092166020928302919091019091015263ed287f3f60e01b8162000ca28462001c17565b93508360ff168151811062000cbb5762000cbb62001b4a565b6001600160e01b031990921660209283029190910190910152632f53ef2b60e01b8162000ce88462001c17565b93508360ff168151811062000d015762000d0162001b4a565b6001600160e01b031990921660209283029190910190910152637a73083360e11b8162000d2e8462001c17565b93508360ff168151811062000d475762000d4762001b4a565b6001600160e01b03199092166020928302919091019091015263a339d75160e01b8162000d748462001c17565b93508360ff168151811062000d8d5762000d8d62001b4a565b6001600160e01b0319909216602092830291909101909101526312468b7760e01b8162000dba8462001c17565b93508360ff168151811062000dd35762000dd362001b4a565b6001600160e01b0319909216602092830291909101909101526304b9f48b60e11b8162000e008462001c17565b93508360ff168151811062000e195762000e1962001b4a565b6001600160e01b031990921660209283029190910190910152634377ba4160e11b8162000e468462001c17565b93508360ff168151811062000e5f5762000e5f62001b4a565b6001600160e01b03199092166020928302919091019091015260ff821615620005805760405162461bcd60e51b815260206004820152601c60248201527f7573652074686520636f7272656374206172726179206c656e67746800000000604482015260640162000970565b60606200053c600562001157565b60006200058082336200127b565b600062000ef3620011a0565b6000826001600160a01b031663cb2af14b6040518163ffffffff1660e01b8152600401602060405180830381865afa15801562000f34573d6000803e3d6000fd5b505050506040513d601f19601f8201168201806040525081019062000f5a919062001bd2565b604051632f86e2dd60e01b81526001600160a01b03808316600483015291925090841690632f86e2dd906024016020604051808303816000875af115801562000fa7573d6000803e3d6000fd5b505050506040513d601f19601f8201168201806040525081019062000fcd919062001bb8565b5062000fda83826200127b565b9392505050565b600a5460405163ed287f3f60e01b81526001600160a01b0384811660048301528381166024830152606092839291169063ed287f3f90604401600060405180830381865afa15801562001038573d6000803e3d6000fd5b505050506040513d6000823e601f3d908101601f1916820160405262001062919081019062001d8d565b915091509250929050565b62001077620011a0565b600180546001600160a01b0383166001600160a01b03199091168117909155620010a96000546001600160a01b031690565b6001600160a01b03167f38d16b8cac22d99fc7c124b9cd0de2d3fa1faef420bfe791d8c362d765e2270060405160405180910390a350565b6001600160a01b0381166000908152600760205260409020606090620005809062001157565b600080546001600160a01b038381166001600160a01b0319831681178455604051919092169283917f8be0079c531659141344cd1fd0a4f28419497f9722a3daafe3b4186f6b6457e09190a35050565b6060600062000fda8362001374565b6001600160a01b0381166000908152600183016020526040812054151562000fda565b600062000fda836001600160a01b038416620013d2565b6000546001600160a01b03163314620011fc5760405162461bcd60e51b815260206004820181905260248201527f4f776e61626c653a2063616c6c6572206973206e6f7420746865206f776e6572604482015260640162000970565b565b600180546001600160a01b0319169055620009f48162001107565b604080516001600160a01b0385811660248301528416604482015260648082018490528251808303909101815260849091019091526020810180516001600160e01b03166323b872dd60e01b1790526200127590859062001424565b50505050565b6001600160a01b03811660009081526004602052604081206200129f818562001166565b620012bd57604051632af0900d60e21b815260040160405180910390fd5b836001600160a01b0316633e2f147f6040518163ffffffff1660e01b8152600401602060405180830381865afa158015620012fc573d6000803e3d6000fd5b505050506040513d601f19601f8201168201806040525081019062001322919062001b60565b62001340576040516345916a4760e11b815260040160405180910390fd5b6200134c818562001502565b9150620013598162001519565b6200136d576200136b60028462001502565b505b5092915050565b606081600001805480602002602001604051908101604052809291908181526020018280548015620013c657602002820191906000526020600020905b815481526020019060010190808311620013b1575b50505050509050919050565b60008181526001830160205260408120546200141b5750815460018181018455600084815260208082209093018490558454848252828601909352604090209190915562000580565b50600062000580565b60006200147b826040518060400160405280602081526020017f5361666545524332303a206c6f772d6c6576656c2063616c6c206661696c6564815250856001600160a01b0316620015249092919063ffffffff16565b805190915015620014fd57808060200190518101906200149c919062001b60565b620014fd5760405162461bcd60e51b815260206004820152602a60248201527f5361666545524332303a204552433230206f7065726174696f6e20646964206e6044820152691bdd081cdd58d8d9595960b21b606482015260840162000970565b505050565b600062000fda836001600160a01b03841662001535565b600062000580825490565b606062000afe848460008562001639565b600081815260018301602052604081205480156200162e5760006200155c60018362001e60565b8554909150600090620015729060019062001e60565b9050818114620015de57600086600001828154811062001596576200159662001b4a565b9060005260206000200154905080876000018481548110620015bc57620015bc62001b4a565b6000918252602080832090910192909255918252600188019052604090208390555b8554869080620015f257620015f262001e7a565b60019003818190600052602060002001600090559055856001016000868152602001908152602001600020600090556001935050505062000580565b600091505062000580565b6060824710156200169c5760405162461bcd60e51b815260206004820152602660248201527f416464726573733a20696e73756666696369656e742062616c616e636520666f6044820152651c8818d85b1b60d21b606482015260840162000970565b600080866001600160a01b03168587604051620016ba919062001e90565b60006040518083038185875af1925050503d8060008114620016f9576040519150601f19603f3d011682016040523d82523d6000602084013e620016fe565b606091505b509150915062001711878383876200171c565b979650505050505050565b606083156200178d57825162001785576001600160a01b0385163b620017855760405162461bcd60e51b815260206004820152601d60248201527f416464726573733a2063616c6c20746f206e6f6e2d636f6e7472616374000000604482015260640162000970565b508162000afe565b62000afe8383815115620017a45781518083602001fd5b8060405162461bcd60e51b815260040162000970919062001eae565b613a458062001ec483390190565b6001600160a01b0381168114620009f457600080fd5b600060208284031215620017f757600080fd5b813562000fda81620017ce565b600081518084526020808501945080840160005b838110156200183f5781516001600160a01b03168752958201959082019060010162001818565b509495945050505050565b6040815260006200185f604083018562001804565b82810360208481019190915284518083528582019282019060005b818110156200189a5784511515835293830193918301916001016200187a565b5090979650505050505050565b60208152600062000fda602083018462001804565b60008060408385031215620018d057600080fd5b8235620018dd81620017ce565b91506020830135620018ef81620017ce565b809150509250929050565b600080600080600060a086880312156200191357600080fd5b85356200192081620017ce565b945060208601356200193281620017ce565b935060408601356200194481620017ce565b94979396509394606081013594506080013592915050565b600080600080608085870312156200197357600080fd5b84356200198081620017ce565b935060208501356200199281620017ce565b92506040850135620019a481620017ce565b9396929550929360600135925050565b600060208284031215620019c757600080fd5b81356001600160e01b03198116811462000fda57600080fd5b6020808252825182820181905260009190848201906040850190845b8181101562001a245783516001600160e01b03191683529284019291840191600101620019fc565b50909695505050505050565b60005b8381101562001a4d57818101518382015260200162001a33565b83811115620012755750506000910152565b6000815180845262001a7981602086016020860162001a30565b601f01601f19169290920160200192915050565b604080825283519082018190526000906020906060840190828701845b8281101562001ad15781516001600160a01b03168452928401929084019060010162001aaa565b50505083810382850152845180825282820190600581901b8301840187850160005b8381101562001b2557601f1986840301855262001b1283835162001a5f565b9487019492509086019060010162001af3565b50909998505050505050505050565b634e487b7160e01b600052604160045260246000fd5b634e487b7160e01b600052603260045260246000fd5b60006020828403121562001b7357600080fd5b8151801515811462000fda57600080fd5b634e487b7160e01b600052601160045260246000fd5b600060001982141562001bb15762001bb162001b84565b5060010190565b60006020828403121562001bcb57600080fd5b5051919050565b60006020828403121562001be557600080fd5b815162000fda81620017ce565b60006020828403121562001c0557600080fd5b815160ff8116811462000fda57600080fd5b600060ff82168062001c2d5762001c2d62001b84565b6000190192915050565b604051601f8201601f1916810167ffffffffffffffff8111828210171562001c635762001c6362001b34565b604052919050565b600067ffffffffffffffff82111562001c885762001c8862001b34565b5060051b60200190565b6000601f838184011262001ca557600080fd5b8251602062001cbe62001cb88362001c6b565b62001c37565b82815260059290921b8501810191818101908784111562001cde57600080fd5b8287015b8481101562001d8157805167ffffffffffffffff8082111562001d055760008081fd5b818a0191508a603f83011262001d1b5760008081fd5b8582015160408282111562001d345762001d3462001b34565b62001d47828b01601f1916890162001c37565b92508183528c8183860101111562001d5f5760008081fd5b62001d708289850183870162001a30565b505084525091830191830162001ce2565b50979650505050505050565b6000806040838503121562001da157600080fd5b825167ffffffffffffffff8082111562001dba57600080fd5b818501915085601f83011262001dcf57600080fd5b8151602062001de262001cb88362001c6b565b82815260059290921b8401810191818101908984111562001e0257600080fd5b948201945b8386101562001e2d57855162001e1d81620017ce565b8252948201949082019062001e07565b9188015191965090935050508082111562001e4757600080fd5b5062001e568582860162001c92565b9150509250929050565b60008282101562001e755762001e7562001b84565b500390565b634e487b7160e01b600052603160045260246000fd5b6000825162001ea481846020870162001a30565b9190910192915050565b60208152600062000fda602083018462001a5f56fe60a06040523480156200001157600080fd5b5060405162003a4538038062003a458339810160408190526200003491620002e5565b6001600160a01b0380841660805260408051635fe3b56760e01b81529051600092851691635fe3b5679160048083019260209291908290030181865afa15801562000083573d6000803e3d6000fd5b505050506040513d601f19601f82011682018060405250810190620000a9919062000339565b90506000826001600160a01b0316635fe3b5676040518163ffffffff1660e01b8152600401602060405180830381865afa158015620000ec573d6000803e3d6000fd5b505050506040513d601f19601f8201168201806040525081019062000112919062000339565b9050806001600160a01b0316826001600160a01b0316146200017a5760405162461bcd60e51b815260206004820152601460248201527f6d61726b65747320706f6f6c7320646966666572000000000000000000000000604482015260640160405180910390fd5b600380546001600160a01b038085166001600160a01b03199283161790925560018054928716929091168217905560408051636f307dc360e01b81529051636f307dc3916004808201926020929091908290030181865afa158015620001e4573d6000803e3d6000fd5b505050506040513d601f19601f820116820180604052508101906200020a919062000339565b600480546001600160a01b039283166001600160a01b031991821617825560028054938716939091168317905560408051636f307dc360e01b81529051636f307dc3928281019260209291908290030181865afa15801562000270573d6000803e3d6000fd5b505050506040513d601f19601f8201168201806040525081019062000296919062000339565b600580546001600160a01b03929092166001600160a01b0319928316179055600080549091163317905550620003609350505050565b6001600160a01b0381168114620002e257600080fd5b50565b600080600060608486031215620002fb57600080fd5b83516200030881620002cc565b60208501519093506200031b81620002cc565b60408501519092506200032e81620002cc565b809150509250925092565b6000602082840312156200034c57600080fd5b81516200035981620002cc565b9392505050565b6080516136ad6200039860003960008181610370015281816103b20152818161126a015281816118790152611a2e01526136ad6000f3fe608060405234801561001057600080fd5b50600436106101375760003560e01c8063958fa280116100b8578063b21fd0291161007c578063b21fd02914610335578063c31443bb14610348578063c393d0e314610350578063c45a015514610358578063cb2af14b1461036b578063ef5cfb8c1461039257610137565b8063958fa280146102e1578063a415deda146102f4578063a7e269a614610307578063a833cb7f1461031a578063aabaecd61461032257610137565b80633e2f147f116100ff5780633e2f147f14610285578063459b9ef11461029d578063555b334a146102a55780636813f999146102bb57806390284933146102ce57610137565b806316f0115b1461020f5780632f86e2dd1461023f578063372500ab14610260578063374607041461026a5780633a8a230714610272575b60008054604051634377ba4160e11b815282356001600160e01b03191660048201526001600160a01b03909116906386ef748290602401602060405180830381865afa15801561018b573d6000803e3d6000fd5b505050506040513d601f19601f820116820180604052508101906101af9190612f37565b90506001600160a01b0381166101eb57604051637d60257960e01b81526001600160e01b03196000351660048201526024015b60405180910390fd5b3660008037600080366000845af43d6000803e80801561020a573d6000f35b3d6000fd5b600354610222906001600160a01b031681565b6040516001600160a01b0390911681526020015b60405180910390f35b61025261024d366004612f54565b6103a5565b604051908152602001610236565b6102686106af565b005b6102526106ba565b610268610280366004612f71565b610be6565b61028d610d4e565b6040519015158152602001610236565b610252610d5e565b6102ad610f10565b604051610236929190612f9d565b600554610222906001600160a01b031681565b6102526102dc366004613021565b61125d565b6102686102ef36600461303a565b611328565b600154610222906001600160a01b031681565b600254610222906001600160a01b031681565b6102526115aa565b600454610222906001600160a01b031681565b610252610343366004612f54565b61186c565b61025261196d565b610252611a13565b600054610222906001600160a01b031681565b6102227f000000000000000000000000000000000000000000000000000000000000000081565b6102686103a0366004612f54565b611a23565b6000336001600160a01b037f000000000000000000000000000000000000000000000000000000000000000016148015906103eb57506000546001600160a01b03163314155b15610409576040516370d645e360e01b815260040160405180910390fd5b610414600019611dd7565b600160009054906101000a90046001600160a01b03166001600160a01b031663a6afed956040518163ffffffff1660e01b81526004016020604051808303816000875af1158015610469573d6000803e3d6000fd5b505050506040513d601f19601f8201168201806040525081019061048d91906130c3565b50600354600154604051630ede4edd60e41b81526001600160a01b039182166004820152600092919091169063ede4edd0906024016020604051808303816000875af11580156104e1573d6000803e3d6000fd5b505050506040513d601f19601f8201168201806040525081019061050591906130c3565b905080156105295760405163059548ef60e51b8152600481018290526024016101e2565b6001546040516370a0823160e01b81523060048201526001600160a01b039091169063db006a759082906370a0823190602401602060405180830381865afa158015610579573d6000803e3d6000fd5b505050506040513d601f19601f8201168201806040525081019061059d91906130c3565b6040518263ffffffff1660e01b81526004016105bb91815260200190565b6020604051808303816000875af11580156105da573d6000803e3d6000fd5b505050506040513d601f19601f820116820180604052508101906105fe91906130c3565b905080156106225760405163eeddaac560e01b8152600481018290526024016101e2565b600480546040516370a0823160e01b815230928101929092526001600160a01b0316906370a0823190602401602060405180830381865afa15801561066b573d6000803e3d6000fd5b505050506040513d601f19601f8201168201806040525081019061068f91906130c3565b6004549092506106a9906001600160a01b03168484612158565b50919050565b6106b833611a23565b565b6000806106c56115aa565b9050806106d457600091505090565b600354600254604051638e8f294b60e01b81526001600160a01b0391821660048201526000929190911690638e8f294b906024016040805180830381865afa158015610724573d6000803e3d6000fd5b505050506040513d601f19601f8201168201806040525081019061074891906130f1565b600354600154604051638e8f294b60e01b81526001600160a01b039182166004820152929450600093501690638e8f294b906024016040805180830381865afa158015610799573d6000803e3d6000fd5b505050506040513d601f19601f820116820180604052508101906107bd91906130f1565b9150506000600360009054906101000a90046001600160a01b03166001600160a01b0316637dc0d1d06040518163ffffffff1660e01b8152600401602060405180830381865afa158015610815573d6000803e3d6000fd5b505050506040513d601f19601f820116820180604052508101906108399190612f37565b60025460405163fc57d4df60e01b81526001600160a01b0391821660048201529192506000919083169063fc57d4df90602401602060405180830381865afa158015610889573d6000803e3d6000fd5b505050506040513d601f19601f820116820180604052508101906108ad91906130c3565b60015460405163fc57d4df60e01b81526001600160a01b0391821660048201529192506000919084169063fc57d4df90602401602060405180830381865afa1580156108fd573d6000803e3d6000fd5b505050506040513d601f19601f8201168201806040525081019061092191906130c3565b600354600254604051630cbb414760e11b81523060048201526001600160a01b03918216602482015260016044820152929350600092911690631976828e90606401602060405180830381865afa158015610980573d6000803e3d6000fd5b505050506040513d601f19601f820116820180604052508101906109a491906130c3565b90506000600260009054906101000a90046001600160a01b03166001600160a01b0316633b1d21a26040518163ffffffff1660e01b8152600401602060405180830381865afa1580156109fb573d6000803e3d6000fd5b505050506040513d601f19601f82011682018060405250810190610a1f91906130c3565b905080821115610a2d578091505b6000610a398584613133565b6000805460055460048054604051632f53ef2b60e01b815295965093946001600160a01b0393841694632f53ef2b94610a789481169391169101613152565b602060405180830381865afa158015610a95573d6000803e3d6000fd5b505050506040513d601f19601f82011682018060405250810190610ab991906130c3565b90506000612710610aca838261316c565b610ad49085613133565b610ade9190613183565b90506000610aec8783613183565b90506000610b028c670de0b6b3a764000061316c565b610b0c8d84613133565b610b169190613183565b90506000670de0b6b3a7640000610b2d8d84613133565b610b379190613183565b600154604051633af9e66960e01b81523060048201529192506000916001600160a01b0390911690633af9e66990602401602060405180830381865afa158015610b85573d6000803e3d6000fd5b505050506040513d601f19601f82011682018060405250810190610ba991906130c3565b90508e610bb683836131a5565b610bc890670de0b6b3a7640000613133565b610bd29190613183565b9f5050505050505050505050505050505090565b610bfb6001600160a01b0383163330846121bb565b610c04826121f3565b5060035460015460405163929fe9a160e01b81526001600160a01b039283169263929fe9a192610c3c92309290911690600401613152565b602060405180830381865afa158015610c59573d6000803e3d6000fd5b505050506040513d601f19601f82011682018060405250810190610c7d91906131bd565b610d4a5760408051600180825281830190925260009160208083019080368337505060015482519293506001600160a01b031691839150600090610cc357610cc36131ee565b6001600160a01b039283166020918202929092010152600354604051631853304760e31b815291169063c299823890610d00908490600401613204565b6000604051808303816000875af1158015610d1f573d6000803e3d6000fd5b505050506040513d6000823e601f3d908101601f19168201604052610d4791908101906132a6565b50505b5050565b6000610d586115aa565b15919050565b600080610d696115aa565b905080610d7857600091505090565b600354604080516307dc0d1d60e41b815290516000926001600160a01b031691637dc0d1d09160048083019260209291908290030181865afa158015610dc2573d6000803e3d6000fd5b505050506040513d601f19601f82011682018060405250810190610de69190612f37565b60015460405163fc57d4df60e01b81526001600160a01b03918216600482015291169063fc57d4df90602401602060405180830381865afa158015610e2f573d6000803e3d6000fd5b505050506040513d601f19601f82011682018060405250810190610e5391906130c3565b9050610e5f8183613133565b60008054906101000a90046001600160a01b03166001600160a01b0316630da2262c6040518163ffffffff1660e01b8152600401602060405180830381865afa158015610eb0573d6000803e3d6000fd5b505050506040513d601f19601f82011682018060405250810190610ed491906130c3565b610eed906ec097ce7bc90715b34b9f1000000000613133565b610ef79190613183565b610f0990670de0b6b3a76400006131a5565b9250505090565b6060806000600360009054906101000a90046001600160a01b03166001600160a01b0316633605b51b6040518163ffffffff1660e01b8152600401600060405180830381865afa158015610f68573d6000803e3d6000fd5b505050506040513d6000823e601f3d908101601f19168201604052610f909190810190613331565b9050805167ffffffffffffffff811115610fac57610fac6131d8565b604051908082528060200260200182016040528015610fd5578160200160208202803683370190505b509250805167ffffffffffffffff811115610ff257610ff26131d8565b60405190808252806020026020018201604052801561101b578160200160208202803683370190505b50915060005b815181101561125757600082828151811061103e5761103e6131ee565b6020908102919091010151600154604051632e6f912b60e21b81529192506001600160a01b038084169263b9be44ac9261107e9216903090600401613152565b6020604051808303816000875af115801561109d573d6000803e3d6000fd5b505050506040513d601f19601f820116820180604052508101906110c191906130c3565b50600254604051632e6f912b60e21b81526001600160a01b038381169263b9be44ac926110f692909116903090600401613152565b6020604051808303816000875af1158015611115573d6000803e3d6000fd5b505050506040513d601f19601f8201168201806040525081019061113991906130c3565b50806001600160a01b031663f7c618c16040518163ffffffff1660e01b8152600401602060405180830381865afa158015611178573d6000803e3d6000fd5b505050506040513d601f19601f8201168201806040525081019061119c9190612f37565b8583815181106111ae576111ae6131ee565b6001600160a01b039283166020918202929092010152604051630ff6b5a760e31b815230600482015290821690637fb5ad38906024016020604051808303816000875af1158015611203573d6000803e3d6000fd5b505050506040513d601f19601f8201168201806040525081019061122791906130c3565b848381518110611239576112396131ee565b6020908102919091010152508061124f816133c0565b915050611021565b50509091565b6000336001600160a01b037f000000000000000000000000000000000000000000000000000000000000000016148015906112a357506000546001600160a01b03163314155b156112c1576040516370d645e360e01b815260040160405180910390fd5b670de0b6b3a76400008210156112dc576112dc600019611dd7565b60006112e661196d565b905082811015611307576113026112fd828561316c565b6123a7565b611319565b611319611314848361316c565b611dd7565b61132161196d565b9392505050565b6001546001600160a01b031633141561141057600061134982840184613021565b905061135481612671565b600480546040516370a0823160e01b815230928101929092526000916001600160a01b03909116906370a0823190602401602060405180830381865afa1580156113a2573d6000803e3d6000fd5b505050506040513d601f19601f820116820180604052508101906113c691906130c3565b90508481101561140957600480546040516319ad25f160e11b81526001600160a01b039091169181019190915260248101829052604481018690526064016101e2565b5050611532565b6002546001600160a01b03163314156114ea57600061143182840184613021565b905061143d8482612737565b6005546040516370a0823160e01b81523060048201526000916001600160a01b0316906370a0823190602401602060405180830381865afa158015611486573d6000803e3d6000fd5b505050506040513d601f19601f820116820180604052508101906114aa91906130c3565b905084811015611409576005546040516319ad25f160e11b81526001600160a01b03909116600482015260248101829052604481018690526064016101e2565b60405162461bcd60e51b815260206004820152601b60248201527f21666c206e6f742066726f6d20656974686572206d61726b657473000000000060448201526064016101e2565b60405163095ea7b360e01b8152336004820152602481018490526001600160a01b0385169063095ea7b3906044016020604051808303816000875af115801561157f573d6000803e3d6000fd5b505050506040513d601f19601f820116820180604052508101906115a391906131bd565b5050505050565b600080600360009054906101000a90046001600160a01b03166001600160a01b0316637dc0d1d06040518163ffffffff1660e01b8152600401602060405180830381865afa158015611600573d6000803e3d6000fd5b505050506040513d601f19601f820116820180604052508101906116249190612f37565b60025460405163fc57d4df60e01b81526001600160a01b0391821660048201529192506000919083169063fc57d4df90602401602060405180830381865afa158015611674573d6000803e3d6000fd5b505050506040513d601f19601f8201168201806040525081019061169891906130c3565b60015460405163fc57d4df60e01b81526001600160a01b0391821660048201529192506000919084169063fc57d4df90602401602060405180830381865afa1580156116e8573d6000803e3d6000fd5b505050506040513d601f19601f8201168201806040525081019061170c91906130c3565b600154604051633af9e66960e01b81523060048201529192506000916001600160a01b0390911690633af9e66990602401602060405180830381865afa15801561175a573d6000803e3d6000fd5b505050506040513d601f19601f8201168201806040525081019061177e91906130c3565b90506000670de0b6b3a76400006117958385613133565b61179f9190613183565b6002546040516305eff7ef60e21b81523060048201529192506000916001600160a01b03909116906317bfdfbc90602401602060405180830381865afa1580156117ed573d6000803e3d6000fd5b505050506040513d601f19601f8201168201806040525081019061181191906130c3565b90506000670de0b6b3a76400006118288388613133565b6118329190613183565b90506000611840828561316c565b90508561185582670de0b6b3a7640000613133565b61185f9190613183565b9850505050505050505090565b6000336001600160a01b037f000000000000000000000000000000000000000000000000000000000000000016146118b7576040516370d645e360e01b815260040160405180910390fd5b60006118c16115aa565b11156118e05760405163716041e560e01b815260040160405180910390fd5b6005546040516370a0823160e01b81523060048201526000916001600160a01b0316906370a0823190602401602060405180830381865afa158015611929573d6000803e3d6000fd5b505050506040513d601f19601f8201168201806040525081019061194d91906130c3565b600554909150611967906001600160a01b03168483612158565b92915050565b6000806119786115aa565b90508061198757600091505090565b600154604051633af9e66960e01b81523060048201526000916001600160a01b031690633af9e66990602401602060405180830381865afa1580156119d0573d6000803e3d6000fd5b505050506040513d601f19601f820116820180604052508101906119f491906130c3565b905081611a0982670de0b6b3a7640000613133565b610f099190613183565b6000611a1e336103a5565b905090565b336001600160a01b037f00000000000000000000000000000000000000000000000000000000000000001614801590611a6757506000546001600160a01b03163314155b15611a85576040516370d645e360e01b815260040160405180910390fd5b60035460408051633605b51b60e01b815290516000926001600160a01b031691633605b51b91600480830192869291908290030181865afa158015611ace573d6000803e3d6000fd5b505050506040513d6000823e601f3d908101601f19168201604052611af69190810190613331565b905060005b8151811015611dd2576000828281518110611b1857611b186131ee565b6020908102919091010151600154604051632e6f912b60e21b81529192506001600160a01b038084169263b9be44ac92611b589216903090600401613152565b6020604051808303816000875af1158015611b77573d6000803e3d6000fd5b505050506040513d601f19601f82011682018060405250810190611b9b91906130c3565b50600254604051632e6f912b60e21b81526001600160a01b038381169263b9be44ac92611bd092909116903090600401613152565b6020604051808303816000875af1158015611bef573d6000803e3d6000fd5b505050506040513d601f19601f82011682018060405250810190611c1391906130c3565b50604051633bd73ee360e21b81523060048201526001600160a01b0382169063ef5cfb8c90602401600060405180830381600087803b158015611c5557600080fd5b505af1158015611c69573d6000803e3d6000fd5b505050506000816001600160a01b031663f7c618c16040518163ffffffff1660e01b8152600401602060405180830381865afa158015611cad573d6000803e3d6000fd5b505050506040513d601f19601f82011682018060405250810190611cd19190612f37565b6040516370a0823160e01b81523060048201529091506000906001600160a01b038316906370a0823190602401602060405180830381865afa158015611d1b573d6000803e3d6000fd5b505050506040513d601f19601f82011682018060405250810190611d3f91906130c3565b90508015611dbc5760405163a9059cbb60e01b81526001600160a01b0387811660048301526024820183905283169063a9059cbb906044016020604051808303816000875af1158015611d96573d6000803e3d6000fd5b505050506040513d601f19601f82011682018060405250810190611dba91906131bd565b505b5050508080611dca906133c0565b915050611afb565b505050565b600354600254604051638e8f294b60e01b81526001600160a01b03918216600482015260009283928392911690638e8f294b906024016040805180830381865afa158015611e29573d6000803e3d6000fd5b505050506040513d601f19601f82011682018060405250810190611e4d91906130f1565b9150506000600360009054906101000a90046001600160a01b03166001600160a01b0316637dc0d1d06040518163ffffffff1660e01b8152600401602060405180830381865afa158015611ea5573d6000803e3d6000fd5b505050506040513d601f19601f82011682018060405250810190611ec99190612f37565b60025460405163fc57d4df60e01b81526001600160a01b0391821660048201529192506000919083169063fc57d4df90602401602060405180830381865afa158015611f19573d6000803e3d6000fd5b505050506040513d601f19601f82011682018060405250810190611f3d91906130c3565b60015460405163fc57d4df60e01b81526001600160a01b0391821660048201529192506000919084169063fc57d4df90602401602060405180830381865afa158015611f8d573d6000803e3d6000fd5b505050506040513d601f19601f82011682018060405250810190611fb191906130c3565b9050600019871415612068576002546040516305eff7ef60e21b81523060048201526001600160a01b03909116906317bfdfbc90602401602060405180830381865afa158015612005573d6000803e3d6000fd5b505050506040513d601f19601f8201168201806040525081019061202991906130c3565b945060006120378387613133565b9050846120448383613183565b61205690670de0b6b3a7640000613133565b6120609190613183565b9650506120ca565b670de0b6b3a76400008761207a6115aa565b6120849190613133565b61208e9190613183565b9550600061209c8288613133565b9050670de0b6b3a7640000856120b28584613183565b6120bc9190613133565b6120c69190613183565b9550505b841561214f576002546040805160208082018a90528251808303909101815281830192839052633c3b4b8960e01b9092526001600160a01b0390921691633c3b4b899161211c91899190604401613433565b600060405180830381600087803b15801561213657600080fd5b505af115801561214a573d6000803e3d6000fd5b505050505b50505050505050565b6040516001600160a01b038316602482015260448101829052611dd290849063a9059cbb60e01b906064015b60408051601f198184030181529190526020810180516001600160e01b03166001600160e01b03199093169290921790915261297d565b6040516001600160a01b0380851660248301528316604482015260648101829052610d479085906323b872dd60e01b90608401612184565b6004546000906001600160a01b03838116911614612224576004546122229083906001600160a01b0316612a4f565b505b600480546040516370a0823160e01b815230928101929092526001600160a01b0316906370a0823190602401602060405180830381865afa15801561226d573d6000803e3d6000fd5b505050506040513d601f19601f8201168201806040525081019061229191906130c3565b6004805460015460405163095ea7b360e01b81526001600160a01b039182169381019390935260248301849052929350919091169063095ea7b3906044016020604051808303816000875af11580156122ee573d6000803e3d6000fd5b505050506040513d601f19601f8201168201806040525081019061231291906131bd565b5060015460405163140e25ad60e31b8152600481018390526000916001600160a01b03169063a0712d68906024016020604051808303816000875af115801561235f573d6000803e3d6000fd5b505050506040513d601f19601f8201168201806040525081019061238391906130c3565b905080156106a957604051631a25a97b60e31b8152600481018290526024016101e2565b600354604080516307dc0d1d60e41b815290516000926001600160a01b031691637dc0d1d09160048083019260209291908290030181865afa1580156123f1573d6000803e3d6000fd5b505050506040513d601f19601f820116820180604052508101906124159190612f37565b60025460405163fc57d4df60e01b81526001600160a01b0391821660048201529192506000919083169063fc57d4df90602401602060405180830381865afa158015612465573d6000803e3d6000fd5b505050506040513d601f19601f8201168201806040525081019061248991906130c3565b60015460405163fc57d4df60e01b81526001600160a01b0391821660048201529192506000919084169063fc57d4df90602401602060405180830381865afa1580156124d9573d6000803e3d6000fd5b505050506040513d601f19601f820116820180604052508101906124fd91906130c3565b90506000670de0b6b3a7640000856125136115aa565b61251d9190613133565b6125279190613183565b905060006125358383613133565b905060006125438583613183565b6000805460055460048054604051632f53ef2b60e01b815295965093946001600160a01b0393841694632f53ef2b946125829481169391169101613152565b602060405180830381865afa15801561259f573d6000803e3d6000fd5b505050506040513d601f19601f820116820180604052508101906125c391906130c3565b90506127106125d282826131a5565b6125dc9084613133565b6125e69190613183565b6001546040805160208082018590528251808303909101815281830192839052633c3b4b8960e01b9092529294506001600160a01b0390911691633c3b4b899161263591889190604401613433565b600060405180830381600087803b15801561264f57600080fd5b505af1158015612663573d6000803e3d6000fd5b505050505050505050505050565b600454612686906001600160a01b03166121f3565b5060025460405163317afabb60e21b8152600481018390526000916001600160a01b03169063c5ebeaec906024016020604051808303816000875af11580156126d3573d6000803e3d6000fd5b505050506040513d601f19601f820116820180604052508101906126f791906130c3565b9050801561271b57604051636f86fa6b60e11b8152600481018290526024016101e2565b600554600454611dd2916001600160a01b039081169116612a4f565b6002546040516305eff7ef60e21b81523060048201526000916001600160a01b0316906317bfdfbc90602401602060405180830381865afa158015612780573d6000803e3d6000fd5b505050506040513d601f19601f820116820180604052508101906127a491906130c3565b905060008184106127b557816127b7565b835b60055460025460405163095ea7b360e01b81526001600160a01b03918216600482015260248101849052929350169063095ea7b3906044016020604051808303816000875af115801561280e573d6000803e3d6000fd5b505050506040513d601f19601f8201168201806040525081019061283291906131bd565b5060025460405163073a938160e11b8152600481018390526000916001600160a01b031690630e752702906024016020604051808303816000875af115801561287f573d6000803e3d6000fd5b505050506040513d601f19601f820116820180604052508101906128a391906130c3565b905080156128c65760405162f0f70d60e41b8152600481018290526024016101e2565b60015460405163852a12e360e01b8152600481018690526001600160a01b039091169063852a12e3906024016020604051808303816000875af1158015612911573d6000803e3d6000fd5b505050506040513d601f19601f8201168201806040525081019061293591906130c3565b905080156129595760405163213e72eb60e11b8152600481018290526024016101e2565b600454600554612975916001600160a01b039081169116612a4f565b505050505050565b60006129d2826040518060400160405280602081526020017f5361666545524332303a206c6f772d6c6576656c2063616c6c206661696c6564815250856001600160a01b0316612bdf9092919063ffffffff16565b805190915015611dd257808060200190518101906129f091906131bd565b611dd25760405162461bcd60e51b815260206004820152602a60248201527f5361666545524332303a204552433230206f7065726174696f6e20646964206e6044820152691bdd081cdd58d8d9595960b21b60648201526084016101e2565b6040516370a0823160e01b815230600482015260009081906001600160a01b038516906370a0823190602401602060405180830381865afa158015612a98573d6000803e3d6000fd5b505050506040513d601f19601f82011682018060405250810190612abc91906130c3565b6000805460405163ed287f3f60e01b8152929350909182916001600160a01b03169063ed287f3f90612af49089908990600401613152565b600060405180830381865afa158015612b11573d6000803e3d6000fd5b505050506040513d6000823e601f3d908101601f19168201604052612b399190810190613530565b91509150815160001415612b6057604051634fd1fa8360e11b815260040160405180910390fd5b60005b8251811015612bd5576000838281518110612b8057612b806131ee565b602002602001015190506000838381518110612b9e57612b9e6131ee565b60200260200101519050612bb489878484612bf6565b9099508998509650869550829150612bcd9050816133c0565b915050612b63565b5050505092915050565b6060612bee8484600085612c77565b949350505050565b6000806000612c53856310badf4e60e01b898988604051602401612c1c939291906135f5565b60408051601f198184030181529190526020810180516001600160e01b03166001600160e01b031990931692909217909152612d52565b905080806020019051810190612c69919061361c565b925092505094509492505050565b606082471015612cd85760405162461bcd60e51b815260206004820152602660248201527f416464726573733a20696e73756666696369656e742062616c616e636520666f6044820152651c8818d85b1b60d21b60648201526084016101e2565b600080866001600160a01b03168587604051612cf4919061364a565b60006040518083038185875af1925050503d8060008114612d31576040519150601f19603f3d011682016040523d82523d6000602084013e612d36565b606091505b5091509150612d4787838387612e46565b979650505050505050565b60606001600160a01b0383163b612dba5760405162461bcd60e51b815260206004820152602660248201527f416464726573733a2064656c65676174652063616c6c20746f206e6f6e2d636f6044820152651b9d1c9858dd60d21b60648201526084016101e2565b600080846001600160a01b031684604051612dd5919061364a565b600060405180830381855af49150503d8060008114612e10576040519150601f19603f3d011682016040523d82523d6000602084013e612e15565b606091505b5091509150612e3d828260405180606001604052806027815260200161367a60279139612ebc565b95945050505050565b60608315612eb2578251612eab576001600160a01b0385163b612eab5760405162461bcd60e51b815260206004820152601d60248201527f416464726573733a2063616c6c20746f206e6f6e2d636f6e747261637400000060448201526064016101e2565b5081612bee565b612bee8383612ef5565b60608315612ecb575081611321565b825115612edb5782518084602001fd5b8160405162461bcd60e51b81526004016101e29190613666565b815115612f055781518083602001fd5b8060405162461bcd60e51b81526004016101e29190613666565b6001600160a01b0381168114612f3457600080fd5b50565b600060208284031215612f4957600080fd5b815161132181612f1f565b600060208284031215612f6657600080fd5b813561132181612f1f565b60008060408385031215612f8457600080fd5b8235612f8f81612f1f565b946020939093013593505050565b604080825283519082018190526000906020906060840190828701845b82811015612fdf5781516001600160a01b031684529284019290840190600101612fba565b5050508381038285015284518082528583019183019060005b8181101561301457835183529284019291840191600101612ff8565b5090979650505050505050565b60006020828403121561303357600080fd5b5035919050565b6000806000806060858703121561305057600080fd5b843561305b81612f1f565b935060208501359250604085013567ffffffffffffffff8082111561307f57600080fd5b818701915087601f83011261309357600080fd5b8135818111156130a257600080fd5b8860208285010111156130b457600080fd5b95989497505060200194505050565b6000602082840312156130d557600080fd5b5051919050565b805180151581146130ec57600080fd5b919050565b6000806040838503121561310457600080fd5b61310d836130dc565b9150602083015190509250929050565b634e487b7160e01b600052601160045260246000fd5b600081600019048311821515161561314d5761314d61311d565b500290565b6001600160a01b0392831681529116602082015260400190565b60008282101561317e5761317e61311d565b500390565b6000826131a057634e487b7160e01b600052601260045260246000fd5b500490565b600082198211156131b8576131b861311d565b500190565b6000602082840312156131cf57600080fd5b611321826130dc565b634e487b7160e01b600052604160045260246000fd5b634e487b7160e01b600052603260045260246000fd5b6020808252825182820181905260009190848201906040850190845b818110156132455783516001600160a01b031683529284019291840191600101613220565b50909695505050505050565b604051601f8201601f1916810167ffffffffffffffff8111828210171561327a5761327a6131d8565b604052919050565b600067ffffffffffffffff82111561329c5761329c6131d8565b5060051b60200190565b600060208083850312156132b957600080fd5b825167ffffffffffffffff8111156132d057600080fd5b8301601f810185136132e157600080fd5b80516132f46132ef82613282565b613251565b81815260059190911b8201830190838101908783111561331357600080fd5b928401925b82841015612d4757835182529284019290840190613318565b6000602080838503121561334457600080fd5b825167ffffffffffffffff81111561335b57600080fd5b8301601f8101851361336c57600080fd5b805161337a6132ef82613282565b81815260059190911b8201830190838101908783111561339957600080fd5b928401925b82841015612d475783516133b181612f1f565b8252928401929084019061339e565b60006000198214156133d4576133d461311d565b5060010190565b60005b838110156133f65781810151838201526020016133de565b83811115610d475750506000910152565b6000815180845261341f8160208601602086016133db565b601f01601f19169290920160200192915050565b828152604060208201526000612bee6040830184613407565b6000601f838184011261345e57600080fd5b8251602061346e6132ef83613282565b82815260059290921b8501810191818101908784111561348d57600080fd5b8287015b8481101561352457805167ffffffffffffffff808211156134b25760008081fd5b818a0191508a603f8301126134c75760008081fd5b858201516040828211156134dd576134dd6131d8565b6134ee828b01601f19168901613251565b92508183528c818386010111156135055760008081fd5b613514828985018387016133db565b5050845250918301918301613491565b50979650505050505050565b6000806040838503121561354357600080fd5b825167ffffffffffffffff8082111561355b57600080fd5b818501915085601f83011261356f57600080fd5b8151602061357f6132ef83613282565b82815260059290921b8401810191818101908984111561359e57600080fd5b948201945b838610156135c55785516135b681612f1f565b825294820194908201906135a3565b918801519196509093505050808211156135de57600080fd5b506135eb8582860161344c565b9150509250929050565b60018060a01b0384168152826020820152606060408201526000612e3d6060830184613407565b6000806040838503121561362f57600080fd5b825161363a81612f1f565b6020939093015192949293505050565b6000825161365c8184602087016133db565b9190910192915050565b602081526000611321602083018461340756fe416464726573733a206c6f772d6c6576656c2064656c65676174652063616c6c206661696c6564a164736f6c634300080a000aa164736f6c634300080a000a",
    "linkReferences": {}
  },
  "methodIdentifiers": {
    "MAX_SLIPPAGE()": "f9759518",
    "_getExtensionFunctions()": "89f8132e",
    "acceptOwnership()": "79ba5097",
    "blocksPerYear()": "a385fb96",
    "closeAndRemoveUserPosition(address)": "d337a1da",
    "createAndFundPosition(address,address,address,uint256)": "7bf8f349",
    "createAndFundPositionAtRatio(address,address,address,uint256,uint256)": "534da460",
    "createPosition(address,address)": "6969e58b",
    "fuseFeeDistributor()": "6817de81",
    "getAccountsWithOpenPositions()": "12468b77",
    "getBorrowableMarketsByCollateral(address)": "f4e61066",
    "getMinBorrowNative()": "0da2262c",
    "getPositionsByAccount(address)": "0973e916",
    "getPositionsExtension(bytes4)": "86ef7482",
    "getRedemptionStrategies(address,address)": "ed287f3f",
    "getSlippage(address,address)": "2f53ef2b",
    "getWhitelistedCollateralMarkets()": "a339d751",
    "liquidatorsRegistry()": "16bb997f",
    "owner()": "8da5cb5b",
    "pendingOwner()": "e30c3978",
    "removeClosedPosition(address)": "ca2de6bc",
    "renounceOwnership()": "715018a6",
    "transferOwnership(address)": "f2fde38b"
  }
}