{
  "address": "0x159a2C6955D043aD4922e77c05EF7aa3E7A5eEA3",
  "abi": [
    {
      "anonymous": false,
      "inputs": [
        {
          "indexed": false,
          "internalType": "uint8",
          "name": "version",
          "type": "uint8"
        }
      ],
      "name": "Initialized",
      "type": "event"
    },
    {
      "inputs": [],
      "name": "factory",
      "outputs": [
        {
          "internalType": "contract ILeveredPositionFactory",
          "name": "",
          "type": "address"
        }
      ],
      "stateMutability": "view",
      "type": "function"
    },
    {
      "inputs": [
        {
          "internalType": "contract ICErc20",
          "name": "_collateralMarket",
          "type": "address"
        },
        {
          "internalType": "contract ICErc20",
          "name": "_stableMarket",
          "type": "address"
        },
        {
          "internalType": "uint256",
          "name": "_equityAmount",
          "type": "uint256"
        },
        {
          "internalType": "uint256",
          "name": "_targetLeverageRatio",
          "type": "uint256"
        }
      ],
      "name": "getBorrowRateAtRatio",
      "outputs": [
        {
          "internalType": "uint256",
          "name": "",
          "type": "uint256"
        }
      ],
      "stateMutability": "view",
      "type": "function"
    },
    {
      "inputs": [
        {
          "internalType": "contract ICErc20",
          "name": "_collateralMarket",
          "type": "address"
        }
      ],
      "name": "getBorrowableMarketsAndRates",
      "outputs": [
        {
          "internalType": "address[]",
          "name": "markets",
          "type": "address[]"
        },
        {
          "internalType": "address[]",
          "name": "underlyings",
          "type": "address[]"
        },
        {
          "internalType": "uint256[]",
          "name": "underlyingsPrices",
          "type": "uint256[]"
        },
        {
          "internalType": "string[]",
          "name": "names",
          "type": "string[]"
        },
        {
          "internalType": "string[]",
          "name": "symbols",
          "type": "string[]"
        },
        {
          "internalType": "uint256[]",
          "name": "rates",
          "type": "uint256[]"
        },
        {
          "internalType": "uint8[]",
          "name": "decimals",
          "type": "uint8[]"
        }
      ],
      "stateMutability": "view",
      "type": "function"
    },
    {
      "inputs": [],
      "name": "getCollateralMarkets",
      "outputs": [
        {
          "internalType": "address[]",
          "name": "markets",
          "type": "address[]"
        },
        {
          "internalType": "contract IComptroller[]",
          "name": "poolOfMarket",
          "type": "address[]"
        },
        {
          "internalType": "address[]",
          "name": "underlyings",
          "type": "address[]"
        },
        {
          "internalType": "uint256[]",
          "name": "underlyingPrices",
          "type": "uint256[]"
        },
        {
          "internalType": "string[]",
          "name": "names",
          "type": "string[]"
        },
        {
          "internalType": "string[]",
          "name": "symbols",
          "type": "string[]"
        },
        {
          "internalType": "uint8[]",
          "name": "decimals",
          "type": "uint8[]"
        },
        {
          "internalType": "uint256[]",
          "name": "totalUnderlyingSupplied",
          "type": "uint256[]"
        },
        {
          "internalType": "uint256[]",
          "name": "ratesPerBlock",
          "type": "uint256[]"
        }
      ],
      "stateMutability": "view",
      "type": "function"
    },
    {
      "inputs": [
        {
          "internalType": "contract LeveredPosition",
          "name": "pos",
          "type": "address"
        },
        {
          "internalType": "uint256",
          "name": "newFunding",
          "type": "uint256"
        }
      ],
      "name": "getLeverageRatioAfterFunding",
      "outputs": [
        {
          "internalType": "uint256",
          "name": "",
          "type": "uint256"
        }
      ],
      "stateMutability": "view",
      "type": "function"
    },
    {
      "inputs": [
        {
          "internalType": "uint256",
          "name": "_supplyAPY",
          "type": "uint256"
        },
        {
          "internalType": "uint256",
          "name": "_supplyAmount",
          "type": "uint256"
        },
        {
          "internalType": "contract ICErc20",
          "name": "_collateralMarket",
          "type": "address"
        },
        {
          "internalType": "contract ICErc20",
          "name": "_stableMarket",
          "type": "address"
        },
        {
          "internalType": "uint256",
          "name": "_targetLeverageRatio",
          "type": "uint256"
        }
      ],
      "name": "getNetAPY",
      "outputs": [
        {
          "internalType": "int256",
          "name": "netAPY",
          "type": "int256"
        }
      ],
      "stateMutability": "view",
      "type": "function"
    },
    {
      "inputs": [
        {
          "internalType": "contract LeveredPosition",
          "name": "pos",
          "type": "address"
        },
        {
          "internalType": "uint256",
          "name": "supplyAPY",
          "type": "uint256"
        }
      ],
      "name": "getNetApyForPosition",
      "outputs": [
        {
          "internalType": "int256",
          "name": "",
          "type": "int256"
        }
      ],
      "stateMutability": "view",
      "type": "function"
    },
    {
      "inputs": [
        {
          "internalType": "contract LeveredPosition",
          "name": "pos",
          "type": "address"
        },
        {
          "internalType": "uint256",
          "name": "supplyAPY",
          "type": "uint256"
        },
        {
          "internalType": "uint256",
          "name": "newFunding",
          "type": "uint256"
        }
      ],
      "name": "getNetApyForPositionAfterFunding",
      "outputs": [
        {
          "internalType": "int256",
          "name": "",
          "type": "int256"
        }
      ],
      "stateMutability": "view",
      "type": "function"
    },
    {
      "inputs": [
        {
          "internalType": "contract LeveredPosition",
          "name": "pos",
          "type": "address"
        },
        {
          "internalType": "uint256",
          "name": "supplyApy",
          "type": "uint256"
        }
      ],
      "name": "getPositionInfo",
      "outputs": [
        {
          "components": [
            {
              "internalType": "uint256",
              "name": "collateralAssetPrice",
              "type": "uint256"
            },
            {
              "internalType": "uint256",
              "name": "borrowedAssetPrice",
              "type": "uint256"
            },
            {
              "internalType": "uint256",
              "name": "positionSupplyAmount",
              "type": "uint256"
            },
            {
              "internalType": "uint256",
              "name": "positionValue",
              "type": "uint256"
            },
            {
              "internalType": "uint256",
              "name": "debtAmount",
              "type": "uint256"
            },
            {
              "internalType": "uint256",
              "name": "debtValue",
              "type": "uint256"
            },
            {
              "internalType": "uint256",
              "name": "equityAmount",
              "type": "uint256"
            },
            {
              "internalType": "uint256",
              "name": "equityValue",
              "type": "uint256"
            },
            {
              "internalType": "int256",
              "name": "currentApy",
              "type": "int256"
            },
            {
              "internalType": "uint256",
              "name": "debtRatio",
              "type": "uint256"
            },
            {
              "internalType": "uint256",
              "name": "liquidationThreshold",
              "type": "uint256"
            },
            {
              "internalType": "uint256",
              "name": "safetyBuffer",
              "type": "uint256"
            }
          ],
          "internalType": "struct LeveredPositionsLens.PositionInfo",
          "name": "info",
          "type": "tuple"
        }
      ],
      "stateMutability": "view",
      "type": "function"
    },
    {
      "inputs": [
        {
          "internalType": "contract LeveredPosition[]",
          "name": "positions",
          "type": "address[]"
        },
        {
          "internalType": "uint256[]",
          "name": "supplyApys",
          "type": "uint256[]"
        }
      ],
      "name": "getPositionsInfo",
      "outputs": [
        {
          "components": [
            {
              "internalType": "uint256",
              "name": "collateralAssetPrice",
              "type": "uint256"
            },
            {
              "internalType": "uint256",
              "name": "borrowedAssetPrice",
              "type": "uint256"
            },
            {
              "internalType": "uint256",
              "name": "positionSupplyAmount",
              "type": "uint256"
            },
            {
              "internalType": "uint256",
              "name": "positionValue",
              "type": "uint256"
            },
            {
              "internalType": "uint256",
              "name": "debtAmount",
              "type": "uint256"
            },
            {
              "internalType": "uint256",
              "name": "debtValue",
              "type": "uint256"
            },
            {
              "internalType": "uint256",
              "name": "equityAmount",
              "type": "uint256"
            },
            {
              "internalType": "uint256",
              "name": "equityValue",
              "type": "uint256"
            },
            {
              "internalType": "int256",
              "name": "currentApy",
              "type": "int256"
            },
            {
              "internalType": "uint256",
              "name": "debtRatio",
              "type": "uint256"
            },
            {
              "internalType": "uint256",
              "name": "liquidationThreshold",
              "type": "uint256"
            },
            {
              "internalType": "uint256",
              "name": "safetyBuffer",
              "type": "uint256"
            }
          ],
          "internalType": "struct LeveredPositionsLens.PositionInfo[]",
          "name": "infos",
          "type": "tuple[]"
        }
      ],
      "stateMutability": "view",
      "type": "function"
    },
    {
      "inputs": [
        {
          "internalType": "contract ILeveredPositionFactory",
          "name": "_factory",
          "type": "address"
        }
      ],
      "name": "initialize",
      "outputs": [],
      "stateMutability": "nonpayable",
      "type": "function"
    }
  ],
  "transactionHash": "0xe64d6c294e0a5db26009de66c5336d4800fe57497147b2cd4feed0af755e9687",
  "args": [],
  "numDeployments": 13,
  "bytecode": {
    "object": "0x608060405234801561001057600080fd5b50612b3a806100206000396000f3fe608060405234801561001057600080fd5b50600436106100a95760003560e01c80638de1624d116100715780638de1624d146101405780638f4b116614610153578063c03497c014610173578063c45a015514610190578063c4d66de8146101c1578063cc3e7804146101d657600080fd5b8063012db95c146100ae5780631327d7fb146100d45780631a610317146100f457806360ff773e146101075780636bbdc7801461012d575b600080fd5b6100c16100bc366004612204565b6101e9565b6040519081526020015b60405180910390f35b6100e76100e2366004612204565b610376565b6040516100cb91906122ae565b6100c1610102366004612204565b6108aa565b61011a6101153660046122bd565b610a3f565b6040516100cb979695949392919061241e565b6100c161013b3660046124a7565b6110bd565b6100c161014e3660046124ed565b61132a565b61016661016136600461258a565b611645565b6040516100cb91906125f5565b61017b611727565b6040516100cb99989796959493929190612644565b6000546101a9906201000090046001600160a01b031681565b6040516001600160a01b0390911681526020016100cb565b6101d46101cf3660046122bd565b611f12565b005b6100c16101e436600461273a565b612042565b600080836001600160a01b031663a833cb7f6040518163ffffffff1660e01b8152600401602060405180830381865afa15801561022a573d6000803e3d6000fd5b505050506040513d601f19601f8201168201806040525081019061024e919061276f565b90508015801561025c575082155b1561026b576000915050610370565b6000846001600160a01b031663a415deda6040518163ffffffff1660e01b8152600401602060405180830381865afa1580156102ab573d6000803e3d6000fd5b505050506040513d601f19601f820116820180604052508101906102cf9190612788565b604051633af9e66960e01b81523060048201526001600160a01b039190911690633af9e66990602401602060405180830381865afa158015610315573d6000803e3d6000fd5b505050506040513d601f19601f82011682018060405250810190610339919061276f565b905061034584836127bb565b61034f85836127bb565b61036190670de0b6b3a76400006127d3565b61036b9190612808565b925050505b92915050565b61037e61218b565b6000836001600160a01b031663a415deda6040518163ffffffff1660e01b8152600401602060405180830381865afa1580156103be573d6000803e3d6000fd5b505050506040513d601f19601f820116820180604052508101906103e29190612788565b90506000846001600160a01b03166316f0115b6040518163ffffffff1660e01b8152600401602060405180830381865afa158015610424573d6000803e3d6000fd5b505050506040513d601f19601f820116820180604052508101906104489190612788565b9050806001600160a01b0316637dc0d1d06040518163ffffffff1660e01b8152600401602060405180830381865afa158015610488573d6000803e3d6000fd5b505050506040513d601f19601f820116820180604052508101906104ac9190612788565b60405163fc57d4df60e01b81526001600160a01b038481166004830152919091169063fc57d4df90602401602060405180830381865afa1580156104f4573d6000803e3d6000fd5b505050506040513d601f19601f82011682018060405250810190610518919061276f565b8352604051633af9e66960e01b81526001600160a01b038681166004830152831690633af9e66990602401602060405180830381865afa158015610560573d6000803e3d6000fd5b505050506040513d601f19601f82011682018060405250810190610584919061276f565b604084018190528351670de0b6b3a7640000916105a0916127d3565b6105aa9190612808565b60608401526105b985856108aa565b836101000181815250506000856001600160a01b031663a7e269a66040518163ffffffff1660e01b8152600401602060405180830381865afa158015610603573d6000803e3d6000fd5b505050506040513d601f19601f820116820180604052508101906106279190612788565b9050816001600160a01b0316637dc0d1d06040518163ffffffff1660e01b8152600401602060405180830381865afa158015610667573d6000803e3d6000fd5b505050506040513d601f19601f8201168201806040525081019061068b9190612788565b60405163fc57d4df60e01b81526001600160a01b038381166004830152919091169063fc57d4df90602401602060405180830381865afa1580156106d3573d6000803e3d6000fd5b505050506040513d601f19601f820116820180604052508101906106f7919061276f565b60208501526040516305eff7ef60e21b81526001600160a01b0387811660048301528216906317bfdfbc90602401602060405180830381865afa158015610742573d6000803e3d6000fd5b505050506040513d601f19601f82011682018060405250810190610766919061276f565b608085018190526020850151670de0b6b3a764000091610785916127d3565b61078f9190612808565b60a0850181905260608501516107a5919061281c565b60e08501526060840151156107df57606084015160a08501516107d090670de0b6b3a76400006127d3565b6107da9190612808565b6107e2565b60005b610120850152835160e085015161080190670de0b6b3a76400006127d3565b61080b9190612808565b60c085015250604051638e8f294b60e01b81526001600160a01b03838116600483015260009190831690638e8f294b906024016040805180830381865afa15801561085a573d6000803e3d6000fd5b505050506040513d601f19601f8201168201806040525081019061087e9190612833565b610140860181905261012086015190925061089a91508261281c565b6101608501525091949350505050565b6000610a3882846001600160a01b031663a833cb7f6040518163ffffffff1660e01b8152600401602060405180830381865afa1580156108ee573d6000803e3d6000fd5b505050506040513d601f19601f82011682018060405250810190610912919061276f565b856001600160a01b031663a415deda6040518163ffffffff1660e01b8152600401602060405180830381865afa158015610950573d6000803e3d6000fd5b505050506040513d601f19601f820116820180604052508101906109749190612788565b866001600160a01b031663a7e269a66040518163ffffffff1660e01b8152600401602060405180830381865afa1580156109b2573d6000803e3d6000fd5b505050506040513d601f19601f820116820180604052508101906109d69190612788565b876001600160a01b031663c31443bb6040518163ffffffff1660e01b8152600401602060405180830381865afa158015610a14573d6000803e3d6000fd5b505050506040513d601f19601f8201168201806040525081019061014e919061276f565b9392505050565b600054604051637a73083360e11b81526001600160a01b038381166004830152606092839283928392839283928392620100009004169063f4e6106690602401600060405180830381865afa158015610a9c573d6000803e3d6000fd5b505050506040513d6000823e601f3d908101601f19168201604052610ac491908101906128ac565b965086516001600160401b03811115610adf57610adf612866565b604051908082528060200260200182016040528015610b08578160200160208202803683370190505b50955086516001600160401b03811115610b2457610b24612866565b604051908082528060200260200182016040528015610b5757816020015b6060815260200190600190039081610b425790505b50935086516001600160401b03811115610b7357610b73612866565b604051908082528060200260200182016040528015610ba657816020015b6060815260200190600190039081610b915790505b50925086516001600160401b03811115610bc257610bc2612866565b604051908082528060200260200182016040528015610beb578160200160208202803683370190505b50915086516001600160401b03811115610c0757610c07612866565b604051908082528060200260200182016040528015610c30578160200160208202803683370190505b50905086516001600160401b03811115610c4c57610c4c612866565b604051908082528060200260200182016040528015610c75578160200160208202803683370190505b50945060005b87518110156110b1576000888281518110610c9857610c9861295d565b602002602001015190506000816001600160a01b0316636f307dc36040518163ffffffff1660e01b8152600401602060405180830381865afa158015610ce2573d6000803e3d6000fd5b505050506040513d601f19601f82011682018060405250810190610d069190612788565b905080898481518110610d1b57610d1b61295d565b60200260200101906001600160a01b031690816001600160a01b0316815250506000819050806001600160a01b03166306fdde036040518163ffffffff1660e01b8152600401600060405180830381865afa158015610d7e573d6000803e3d6000fd5b505050506040513d6000823e601f3d908101601f19168201604052610da69190810190612973565b888581518110610db857610db861295d565b6020026020010181905250806001600160a01b03166395d89b416040518163ffffffff1660e01b8152600401600060405180830381865afa158015610e01573d6000803e3d6000fd5b505050506040513d6000823e601f3d908101601f19168201604052610e299190810190612973565b878581518110610e3b57610e3b61295d565b6020026020010181905250826001600160a01b031663f8f9da286040518163ffffffff1660e01b8152600401602060405180830381865afa158015610e84573d6000803e3d6000fd5b505050506040513d601f19601f82011682018060405250810190610ea8919061276f565b868581518110610eba57610eba61295d565b602002602001018181525050806001600160a01b031663313ce5676040518163ffffffff1660e01b8152600401602060405180830381865afa158015610f04573d6000803e3d6000fd5b505050506040513d601f19601f82011682018060405250810190610f2891906129fd565b858581518110610f3a57610f3a61295d565b602002602001019060ff16908160ff1681525050826001600160a01b0316635fe3b5676040518163ffffffff1660e01b8152600401602060405180830381865afa158015610f8c573d6000803e3d6000fd5b505050506040513d601f19601f82011682018060405250810190610fb09190612788565b6001600160a01b0316637dc0d1d06040518163ffffffff1660e01b8152600401602060405180830381865afa158015610fed573d6000803e3d6000fd5b505050506040513d601f19601f820116820180604052508101906110119190612788565b60405163fc57d4df60e01b81526001600160a01b038581166004830152919091169063fc57d4df90602401602060405180830381865afa158015611059573d6000803e3d6000fd5b505050506040513d601f19601f8201168201806040525081019061107d919061276f565b89858151811061108f5761108f61295d565b60200260200101818152505050505080806110a990612a20565b915050610c7b565b50919395979092949650565b600080846001600160a01b0316635fe3b5676040518163ffffffff1660e01b8152600401602060405180830381865afa1580156110fe573d6000803e3d6000fd5b505050506040513d601f19601f820116820180604052508101906111229190612788565b90506000816001600160a01b0316637dc0d1d06040518163ffffffff1660e01b8152600401602060405180830381865afa158015611164573d6000803e3d6000fd5b505050506040513d601f19601f820116820180604052508101906111889190612788565b60405163fc57d4df60e01b81526001600160a01b03888116600483015291925060009183169063fc57d4df90602401602060405180830381865afa1580156111d4573d6000803e3d6000fd5b505050506040513d601f19601f820116820180604052508101906111f8919061276f565b60405163fc57d4df60e01b81526001600160a01b038a8116600483015291925060009184169063fc57d4df90602401602060405180830381865afa158015611244573d6000803e3d6000fd5b505050506040513d601f19601f82011682018060405250810190611268919061276f565b9050600061127e83670de0b6b3a76400006127d3565b8289611292670de0b6b3a76400008b61281c565b61129c91906127d3565b6112a691906127d3565b6112b09190612808565b60405163cfcd4c0760e01b8152600481018290529091506001600160a01b038a169063cfcd4c0790602401602060405180830381865afa1580156112f8573d6000803e3d6000fd5b505050506040513d601f19601f8201168201806040525081019061131c919061276f565b9a9950505050505050505050565b60008415806113415750670de0b6b3a76400008211155b1561134e5750600061163c565b6000846001600160a01b0316635fe3b5676040518163ffffffff1660e01b8152600401602060405180830381865afa15801561138e573d6000803e3d6000fd5b505050506040513d601f19601f820116820180604052508101906113b29190612788565b90506000816001600160a01b0316637dc0d1d06040518163ffffffff1660e01b8152600401602060405180830381865afa1580156113f4573d6000803e3d6000fd5b505050506040513d601f19601f820116820180604052508101906114189190612788565b60405163fc57d4df60e01b81526001600160a01b03888116600483015291925060009183169063fc57d4df90602401602060405180830381865afa158015611464573d6000803e3d6000fd5b505050506040513d601f19601f82011682018060405250810190611488919061276f565b90506000670de0b6b3a764000061149f878b6127d3565b6114a99190612808565b905060006114b7828c6127d3565b90506000670de0b6b3a76400006114ce85846127d3565b6114d89190612808565b90506000846114e78d8661281c565b6114f191906127d3565b905060008060029054906101000a90046001600160a01b03166001600160a01b031663a385fb966040518163ffffffff1660e01b8152600401602060405180830381865afa158015611547573d6000803e3d6000fd5b505050506040513d601f19601f8201168201806040525081019061156b919061276f565b8b6001600160a01b031663f8f9da286040518163ffffffff1660e01b8152600401602060405180830381865afa1580156115a9573d6000803e3d6000fd5b505050506040513d601f19601f820116820180604052508101906115cd919061276f565b6115d791906127d3565b90506000670de0b6b3a76400006115ee84846127d3565b6115f89190612808565b905060006116068286612a3b565b90508e6116138983612a7a565b61162590670de0b6b3a7640000612aa8565b61162f9190612a7a565b9a50505050505050505050505b95945050505050565b6060836001600160401b0381111561165f5761165f612866565b60405190808252806020026020018201604052801561169857816020015b61168561218b565b81526020019060019003908161167d5790505b50905060005b8481101561171e576116ee8686838181106116bb576116bb61295d565b90506020020160208101906116d091906122bd565b8585848181106116e2576116e261295d565b90506020020135610376565b8282815181106117005761170061295d565b6020026020010181905250808061171690612a20565b91505061169e565b50949350505050565b6060806060806060806060806060600060029054906101000a90046001600160a01b03166001600160a01b031663a339d7516040518163ffffffff1660e01b8152600401600060405180830381865afa158015611788573d6000803e3d6000fd5b505050506040513d6000823e601f3d908101601f191682016040526117b091908101906128ac565b985088516001600160401b038111156117cb576117cb612866565b6040519080825280602002602001820160405280156117f4578160200160208202803683370190505b50975088516001600160401b0381111561181057611810612866565b604051908082528060200260200182016040528015611839578160200160208202803683370190505b50965088516001600160401b0381111561185557611855612866565b60405190808252806020026020018201604052801561187e578160200160208202803683370190505b50955088516001600160401b0381111561189a5761189a612866565b6040519080825280602002602001820160405280156118cd57816020015b60608152602001906001900390816118b85790505b50945088516001600160401b038111156118e9576118e9612866565b60405190808252806020026020018201604052801561191c57816020015b60608152602001906001900390816119075790505b50935088516001600160401b0381111561193857611938612866565b604051908082528060200260200182016040528015611961578160200160208202803683370190505b50915088516001600160401b0381111561197d5761197d612866565b6040519080825280602002602001820160405280156119a6578160200160208202803683370190505b50925088516001600160401b038111156119c2576119c2612866565b6040519080825280602002602001820160405280156119eb578160200160208202803683370190505b50905060005b8951811015611f065760008a8281518110611a0e57611a0e61295d565b60200260200101519050806001600160a01b0316635fe3b5676040518163ffffffff1660e01b8152600401602060405180830381865afa158015611a56573d6000803e3d6000fd5b505050506040513d601f19601f82011682018060405250810190611a7a9190612788565b8a8381518110611a8c57611a8c61295d565b60200260200101906001600160a01b031690816001600160a01b031681525050898281518110611abe57611abe61295d565b60200260200101516001600160a01b0316637dc0d1d06040518163ffffffff1660e01b8152600401602060405180830381865afa158015611b03573d6000803e3d6000fd5b505050506040513d601f19601f82011682018060405250810190611b279190612788565b60405163fc57d4df60e01b81526001600160a01b038381166004830152919091169063fc57d4df90602401602060405180830381865afa158015611b6f573d6000803e3d6000fd5b505050506040513d601f19601f82011682018060405250810190611b93919061276f565b888381518110611ba557611ba561295d565b602002602001018181525050806001600160a01b0316636f307dc36040518163ffffffff1660e01b8152600401602060405180830381865afa158015611bef573d6000803e3d6000fd5b505050506040513d601f19601f82011682018060405250810190611c139190612788565b898381518110611c2557611c2561295d565b60200260200101906001600160a01b031690816001600160a01b0316815250506000898381518110611c5957611c5961295d565b60200260200101519050806001600160a01b03166306fdde036040518163ffffffff1660e01b8152600401600060405180830381865afa158015611ca1573d6000803e3d6000fd5b505050506040513d6000823e601f3d908101601f19168201604052611cc99190810190612973565b888481518110611cdb57611cdb61295d565b6020026020010181905250806001600160a01b03166395d89b416040518163ffffffff1660e01b8152600401600060405180830381865afa158015611d24573d6000803e3d6000fd5b505050506040513d6000823e601f3d908101601f19168201604052611d4c9190810190612973565b878481518110611d5e57611d5e61295d565b6020026020010181905250806001600160a01b031663313ce5676040518163ffffffff1660e01b8152600401602060405180830381865afa158015611da7573d6000803e3d6000fd5b505050506040513d601f19601f82011682018060405250810190611dcb91906129fd565b868481518110611ddd57611ddd61295d565b602002602001019060ff16908160ff1681525050816001600160a01b0316634aeb3d9a6040518163ffffffff1660e01b8152600401602060405180830381865afa158015611e2f573d6000803e3d6000fd5b505050506040513d601f19601f82011682018060405250810190611e53919061276f565b858481518110611e6557611e6561295d565b602002602001018181525050816001600160a01b031663ae9d70b06040518163ffffffff1660e01b8152600401602060405180830381865afa158015611eaf573d6000803e3d6000fd5b505050506040513d601f19601f82011682018060405250810190611ed3919061276f565b848481518110611ee557611ee561295d565b60200260200101818152505050508080611efe90612a20565b9150506119f1565b50909192939495969798565b600054610100900460ff1615808015611f325750600054600160ff909116105b80611f4c5750303b158015611f4c575060005460ff166001145b611fb35760405162461bcd60e51b815260206004820152602e60248201527f496e697469616c697a61626c653a20636f6e747261637420697320616c72656160448201526d191e481a5b9a5d1a585b1a5e995960921b606482015260840160405180910390fd5b6000805460ff191660011790558015611fd6576000805461ff0019166101001790555b6000805462010000600160b01b031916620100006001600160a01b03851602179055801561203e576000805461ff0019169055604051600181527f7f26b83ff96e1f2b6a682f133852f6798a09c465da95921460cefb38474024989060200160405180910390a15b5050565b60006121838383866001600160a01b031663a833cb7f6040518163ffffffff1660e01b8152600401602060405180830381865afa158015612087573d6000803e3d6000fd5b505050506040513d601f19601f820116820180604052508101906120ab919061276f565b6120b591906127bb565b866001600160a01b031663a415deda6040518163ffffffff1660e01b8152600401602060405180830381865afa1580156120f3573d6000803e3d6000fd5b505050506040513d601f19601f820116820180604052508101906121179190612788565b876001600160a01b031663a7e269a66040518163ffffffff1660e01b8152600401602060405180830381865afa158015612155573d6000803e3d6000fd5b505050506040513d601f19601f820116820180604052508101906121799190612788565b61014e89886101e9565b949350505050565b6040518061018001604052806000815260200160008152602001600081526020016000815260200160008152602001600081526020016000815260200160008152602001600081526020016000815260200160008152602001600081525090565b6001600160a01b038116811461220157600080fd5b50565b6000806040838503121561221757600080fd5b8235612222816121ec565b946020939093013593505050565b805182526020810151602083015260408101516040830152606081015160608301526080810151608083015260a081015160a083015260c081015160c083015260e081015160e08301526101008082015181840152506101208082015181840152506101408082015181840152506101608082015181840152505050565b61018081016103708284612230565b6000602082840312156122cf57600080fd5b8135610a38816121ec565b600081518084526020808501945080840160005b838110156123135781516001600160a01b0316875295820195908201906001016122ee565b509495945050505050565b600081518084526020808501945080840160005b8381101561231357815187529582019590820190600101612332565b60005b83811015612369578181015183820152602001612351565b83811115612378576000848401525b50505050565b600081518084526020808501808196508360051b8101915082860160005b858110156123de578284038952815180518086526123bf8188880189850161234e565b99860199601f01601f191694909401850193509084019060010161239c565b5091979650505050505050565b600081518084526020808501945080840160005b8381101561231357815160ff16875295820195908201906001016123ff565b60e08152600061243160e083018a6122da565b8281036020840152612443818a6122da565b90508281036040840152612457818961231e565b9050828103606084015261246b818861237e565b9050828103608084015261247f818761237e565b905082810360a0840152612493818661231e565b905082810360c084015261131c81856123eb565b600080600080608085870312156124bd57600080fd5b84356124c8816121ec565b935060208501356124d8816121ec565b93969395505050506040820135916060013590565b600080600080600060a0868803121561250557600080fd5b8535945060208601359350604086013561251e816121ec565b9250606086013561252e816121ec565b949793965091946080013592915050565b60008083601f84011261255157600080fd5b5081356001600160401b0381111561256857600080fd5b6020830191508360208260051b850101111561258357600080fd5b9250929050565b600080600080604085870312156125a057600080fd5b84356001600160401b03808211156125b757600080fd5b6125c38883890161253f565b909650945060208701359150808211156125dc57600080fd5b506125e98782880161253f565b95989497509550505050565b6020808252825182820181905260009190848201906040850190845b8181101561263857612624838551612230565b928401926101809290920191600101612611565b50909695505050505050565b60006101208083526126588184018d6122da565b9050602083820381850152818c518084528284019150828e01935060005b8181101561269b5784516001600160a01b031683529383019391830191600101612676565b505084810360408601526126af818d6122da565b9250505082810360608401526126c5818a61231e565b905082810360808401526126d9818961237e565b905082810360a08401526126ed818861237e565b905082810360c084015261270181876123eb565b905082810360e0840152612715818661231e565b905082810361010084015261272a818561231e565b9c9b505050505050505050505050565b60008060006060848603121561274f57600080fd5b833561275a816121ec565b95602085013595506040909401359392505050565b60006020828403121561278157600080fd5b5051919050565b60006020828403121561279a57600080fd5b8151610a38816121ec565b634e487b7160e01b600052601160045260246000fd5b600082198211156127ce576127ce6127a5565b500190565b60008160001904831182151516156127ed576127ed6127a5565b500290565b634e487b7160e01b600052601260045260246000fd5b600082612817576128176127f2565b500490565b60008282101561282e5761282e6127a5565b500390565b6000806040838503121561284657600080fd5b8251801515811461285657600080fd5b6020939093015192949293505050565b634e487b7160e01b600052604160045260246000fd5b604051601f8201601f191681016001600160401b03811182821017156128a4576128a4612866565b604052919050565b600060208083850312156128bf57600080fd5b82516001600160401b03808211156128d657600080fd5b818501915085601f8301126128ea57600080fd5b8151818111156128fc576128fc612866565b8060051b915061290d84830161287c565b818152918301840191848101908884111561292757600080fd5b938501935b838510156129515784519250612941836121ec565b828252938501939085019061292c565b98975050505050505050565b634e487b7160e01b600052603260045260246000fd5b60006020828403121561298557600080fd5b81516001600160401b038082111561299c57600080fd5b818401915084601f8301126129b057600080fd5b8151818111156129c2576129c2612866565b6129d5601f8201601f191660200161287c565b91508082528560208285010111156129ec57600080fd5b61171e81602084016020860161234e565b600060208284031215612a0f57600080fd5b815160ff81168114610a3857600080fd5b6000600019821415612a3457612a346127a5565b5060010190565b60008083128015600160ff1b850184121615612a5957612a596127a5565b6001600160ff1b0384018313811615612a7457612a746127a5565b50500390565b600082612a8957612a896127f2565b600160ff1b821460001984141615612aa357612aa36127a5565b500590565b60006001600160ff1b0381841382841380821686840486111615612ace57612ace6127a5565b600160ff1b6000871282811687830589121615612aed57612aed6127a5565b60008712925087820587128484161615612b0957612b096127a5565b87850587128184161615612b1f57612b1f6127a5565b50505092909302939250505056fea164736f6c634300080a000a",
    "linkReferences": {}
  },
  "methodIdentifiers": {
    "factory()": "c45a0155",
    "getBorrowRateAtRatio(address,address,uint256,uint256)": "6bbdc780",
    "getBorrowableMarketsAndRates(address)": "60ff773e",
    "getCollateralMarkets()": "c03497c0",
    "getLeverageRatioAfterFunding(address,uint256)": "012db95c",
    "getNetAPY(uint256,uint256,address,address,uint256)": "8de1624d",
    "getNetApyForPosition(address,uint256)": "1a610317",
    "getNetApyForPositionAfterFunding(address,uint256,uint256)": "cc3e7804",
    "getPositionInfo(address,uint256)": "1327d7fb",
    "getPositionsInfo(address[],uint256[])": "8f4b1166",
    "initialize(address)": "c4d66de8"
  }
}