{
  "address": "0x8BE6118918898894b72F889320b1f702068838C4",
  "abi": [
    {
      "anonymous": false,
      "inputs": [
        {
          "indexed": true,
          "internalType": "address",
          "name": "previousOwner",
          "type": "address"
        },
        {
          "indexed": true,
          "internalType": "address",
          "name": "newOwner",
          "type": "address"
        }
      ],
      "name": "OwnershipTransferStarted",
      "type": "event"
    },
    {
      "anonymous": false,
      "inputs": [
        {
          "indexed": true,
          "internalType": "address",
          "name": "previousOwner",
          "type": "address"
        },
        {
          "indexed": true,
          "internalType": "address",
          "name": "newOwner",
          "type": "address"
        }
      ],
      "name": "OwnershipTransferred",
      "type": "event"
    },
    {
      "inputs": [],
      "name": "_getExtensionFunctions",
      "outputs": [
        {
          "internalType": "bytes4[]",
          "name": "",
          "type": "bytes4[]"
        }
      ],
      "stateMutability": "pure",
      "type": "function"
    },
    {
      "inputs": [],
      "name": "acceptOwnership",
      "outputs": [],
      "stateMutability": "nonpayable",
      "type": "function"
    },
    {
      "inputs": [],
      "name": "ap",
      "outputs": [
        {
          "internalType": "contract AddressesProvider",
          "name": "",
          "type": "address"
        }
      ],
      "stateMutability": "view",
      "type": "function"
    },
    {
      "inputs": [
        {
          "internalType": "contract IERC20Upgradeable",
          "name": "inputToken",
          "type": "address"
        },
        {
          "internalType": "contract IERC20Upgradeable",
          "name": "outputToken",
          "type": "address"
        }
      ],
      "name": "getRedemptionStrategies",
      "outputs": [
        {
          "internalType": "contract IRedemptionStrategy[]",
          "name": "strategies",
          "type": "address[]"
        },
        {
          "internalType": "bytes[]",
          "name": "strategiesData",
          "type": "bytes[]"
        }
      ],
      "stateMutability": "view",
      "type": "function"
    },
    {
      "inputs": [
        {
          "internalType": "contract IERC20Upgradeable",
          "name": "inputToken",
          "type": "address"
        },
        {
          "internalType": "contract IERC20Upgradeable",
          "name": "outputToken",
          "type": "address"
        }
      ],
      "name": "getRedemptionStrategy",
      "outputs": [
        {
          "internalType": "contract IRedemptionStrategy",
          "name": "strategy",
          "type": "address"
        },
        {
          "internalType": "bytes",
          "name": "strategyData",
          "type": "bytes"
        }
      ],
      "stateMutability": "view",
      "type": "function"
    },
    {
      "inputs": [
        {
          "internalType": "contract IERC20Upgradeable",
          "name": "inputToken",
          "type": "address"
        },
        {
          "internalType": "contract IERC20Upgradeable",
          "name": "outputToken",
          "type": "address"
        }
      ],
      "name": "hasRedemptionStrategyForTokens",
      "outputs": [
        {
          "internalType": "bool",
          "name": "",
          "type": "bool"
        }
      ],
      "stateMutability": "view",
      "type": "function"
    },
    {
      "inputs": [],
      "name": "owner",
      "outputs": [
        {
          "internalType": "address",
          "name": "",
          "type": "address"
        }
      ],
      "stateMutability": "view",
      "type": "function"
    },
    {
      "inputs": [],
      "name": "pendingOwner",
      "outputs": [
        {
          "internalType": "address",
          "name": "",
          "type": "address"
        }
      ],
      "stateMutability": "view",
      "type": "function"
    },
    {
      "inputs": [
        {
          "internalType": "string",
          "name": "",
          "type": "string"
        }
      ],
      "name": "redemptionStrategiesByName",
      "outputs": [
        {
          "internalType": "contract IRedemptionStrategy",
          "name": "",
          "type": "address"
        }
      ],
      "stateMutability": "view",
      "type": "function"
    },
    {
      "inputs": [
        {
          "internalType": "contract IERC20Upgradeable",
          "name": "",
          "type": "address"
        },
        {
          "internalType": "contract IERC20Upgradeable",
          "name": "",
          "type": "address"
        }
      ],
      "name": "redemptionStrategiesByTokens",
      "outputs": [
        {
          "internalType": "contract IRedemptionStrategy",
          "name": "",
          "type": "address"
        }
      ],
      "stateMutability": "view",
      "type": "function"
    },
    {
      "inputs": [],
      "name": "renounceOwnership",
      "outputs": [],
      "stateMutability": "nonpayable",
      "type": "function"
    },
    {
      "inputs": [
        {
          "internalType": "address",
          "name": "newOwner",
          "type": "address"
        }
      ],
      "name": "transferOwnership",
      "outputs": [],
      "stateMutability": "nonpayable",
      "type": "function"
    }
  ],
  "transactionHash": "0x032eca0bda5f60b64a671e85306a3474a67c1f73fd4b0f9db0ea684aa9cc58ee",
  "args": [],
  "numDeployments": 2,
  "bytecode": {
    "object": "0x60806040523480156200001157600080fd5b506200001d3362000023565b6200009d565b600180546001600160a01b03191690556200004a816200004d602090811b6200095a17901c565b50565b600080546001600160a01b038381166001600160a01b0319831681178455604051919092169283917f8be0079c531659141344cd1fd0a4f28419497f9722a3daafe3b4186f6b6457e09190a35050565b6128f180620000ad6000396000f3fe608060405234801561001057600080fd5b50600436106100b45760003560e01c8063a700f9e411610071578063a700f9e414610144578063b6b928fd14610178578063dee7fe4814610199578063e30c3978146101cd578063ed287f3f146101de578063f2fde38b146101ff57600080fd5b80633c4f743c146100b957806367c5f53d146100e9578063715018a61461010c57806379ba50971461011657806389f8132e1461011e5780638da5cb5b14610133575b600080fd5b6004546100cc906001600160a01b031681565b6040516001600160a01b0390911681526020015b60405180910390f35b6100fc6100f73660046121ad565b610212565b60405190151581526020016100e0565b610114610243565b005b610114610298565b610126610312565b6040516100e091906121e6565b6000546001600160a01b03166100cc565b6100cc6101523660046121ad565b60026020908152600092835260408084209091529082529020546001600160a01b031681565b61018b6101863660046121ad565b61044d565b6040516100e0929190612290565b6100cc6101a736600461232c565b80516020818301810180516003825292820191909301209152546001600160a01b031681565b6001546001600160a01b03166100cc565b6101f16101ec3660046121ad565b610838565b6040516100e09291906123c1565b61011461020d366004612462565b6108e9565b6001600160a01b03808316600090815260026020908152604080832085851684529091529020541615155b92915050565b61024b6109aa565b60405162461bcd60e51b815260206004820152601e60248201527f72656e6f756e6365206f776e657273686970206e6f7420616c6c6f776564000060448201526064015b60405180910390fd5b60015433906001600160a01b031681146103065760405162461bcd60e51b815260206004820152602960248201527f4f776e61626c6532537465703a2063616c6c6572206973206e6f7420746865206044820152683732bb9037bbb732b960b91b606482015260840161028f565b61030f81610a06565b50565b60408051600380825260808201909252606091906000908260208201858036833701905050905063ed287f3f60e01b8161034b8461249c565b93508360ff1681518110610361576103616124b9565b6001600160e01b03199092166020928302919091019091015263b6b928fd60e01b8161038c8461249c565b93508360ff16815181106103a2576103a26124b9565b6001600160e01b0319909216602092830291909101909101526367c5f53d60e01b816103cd8461249c565b93508360ff16815181106103e3576103e36124b9565b6001600160e01b03199092166020928302919091019091015260ff82161561023d5760405162461bcd60e51b815260206004820152601c60248201527f7573652074686520636f7272656374206172726179206c656e67746800000000604482015260640161028f565b6001600160a01b0380831660009081526002602090815260408083208585168452825291829020548251808401909352601583527429b7b634b2363ca9bbb0b82634b8bab4b230ba37b960591b91830191909152909116906060906104b3908390610a1f565b156104c9576104c28484610a57565b9050610831565b610508826040518060400160405280601881526020017f536f6c69646c794c70546f6b656e4c697175696461746f720000000000000000815250610a1f565b15610517576104c28484610f4d565b610556826040518060400160405280601981526020017f556e697377617056324c697175696461746f7246756e64657200000000000000815250610a1f565b15610565576104c2848461112b565b61059c826040518060400160405280601581526020017420b633b2b13930a9bbb0b82634b8bab4b230ba37b960591b815250610a1f565b156105ab576104c284846111d3565b6105e382604051806040016040528060168152602001752130b630b731b2b929bbb0b82634b8bab4b230ba37b960511b815250610a1f565b806106285750610628826040518060400160405280601981526020017f42616c616e6365724c70546f6b656e4c697175696461746f7200000000000000815250610a1f565b15610637576104c284846112a3565b610676826040518060400160405280601881526020017f556e69737761704c70546f6b656e4c697175696461746f720000000000000000815250610a1f565b806106b257506106b2826040518060400160405280601481526020017323b2b630ba37a3aab734a634b8bab4b230ba37b960611b815250610a1f565b156106c1576104c284846112bf565b610700826040518060400160405280601781526020017f536164646c654c70546f6b656e4c697175696461746f72000000000000000000815250610a1f565b1561070f576104c284846115a4565b61074e826040518060400160405280602081526020017f43757276654c70546f6b656e4c697175696461746f724e6f5265676973747279815250610a1f565b1561075d576104c28484611786565b610792826040518060400160405280601381526020017221bab93b32a9bbb0b82634b8bab4b230ba37b960691b815250610a1f565b156107a1576104c28484611940565b6107d982604051806040016040528060168152602001752530b93b34b9a634b8bab4b230ba37b9233ab73232b960511b815250610a1f565b156107e8576104c28484611b21565b61081f82604051806040016040528060158152602001742c2137b6b12634b8bab4b230ba37b9233ab73232b960591b815250610a1f565b156108315761082e8484611cab565b90505b9250929050565b6040805160018082528183019092526060918291906020808301908036833701905050604080516001808252818301909252919350816020015b6060815260200190600190039081610872579050509050610893848461044d565b836000815181106108a6576108a66124b9565b60200260200101836000815181106108c0576108c06124b9565b60200260200101829052826001600160a01b03166001600160a01b031681525050509250929050565b6108f16109aa565b600180546001600160a01b0383166001600160a01b031990911681179091556109226000546001600160a01b031690565b6001600160a01b03167f38d16b8cac22d99fc7c124b9cd0de2d3fa1faef420bfe791d8c362d765e2270060405160405180910390a350565b600080546001600160a01b038381166001600160a01b0319831681178455604051919092169283917f8be0079c531659141344cd1fd0a4f28419497f9722a3daafe3b4186f6b6457e09190a35050565b6000546001600160a01b03163314610a045760405162461bcd60e51b815260206004820181905260248201527f4f776e61626c653a2063616c6c6572206973206e6f7420746865206f776e6572604482015260640161028f565b565b600180546001600160a01b031916905561030f8161095a565b6000600382604051610a3191906124cf565b908152604051908190036020019020546001600160a01b03848116911614905092915050565b6004805460405163bf40fac160e01b81526060926000926001600160a01b03169163bf40fac191610ab0910160208082526013908201527229a7a624a2262cafa9aba0a82fa927aaaa22a960691b604082015260600190565b602060405180830381865afa158015610acd573d6000803e3d6000fd5b505050506040513d601f19601f82011682018060405250810190610af191906124eb565b60405163260f701f60e11b815290915083906000906001600160a01b03841690634c1ee03e90610b2990899086908690600401612508565b602060405180830381865afa158015610b46573d6000803e3d6000fd5b505050506040513d601f19601f82011682018060405250810190610b6a91906124eb565b90506000836001600160a01b0316634c1ee03e888560016040518463ffffffff1660e01b8152600401610b9f93929190612508565b602060405180830381865afa158015610bbc573d6000803e3d6000fd5b505050506040513d601f19601f82011682018060405250810190610be091906124eb565b60405163e5e31b1360e01b81526001600160a01b0380831660048301529192509085169063e5e31b1390602401602060405180830381865afa158015610c2a573d6000803e3d6000fd5b505050506040513d601f19601f82011682018060405250810190610c4e919061252c565b80610cbe575060405163e5e31b1360e01b81526001600160a01b03838116600483015285169063e5e31b1390602401602060405180830381865afa158015610c9a573d6000803e3d6000fd5b505050506040513d601f19601f82011682018060405250810190610cbe919061252c565b610d165760405162461bcd60e51b8152602060048201526024808201527f496e76616c696420536f6c69646c794c697175696461746f722073776170207060448201526330ba341760e11b606482015260840161028f565b60405163e5e31b1360e01b81526001600160a01b0382811660048301526000919086169063e5e31b1390602401602060405180830381865afa158015610d60573d6000803e3d6000fd5b505050506040513d601f19601f82011682018060405250810190610d84919061252c565b610d9057506000610f1c565b60405163e5e31b1360e01b81526001600160a01b03848116600483015286169063e5e31b1390602401602060405180830381865afa158015610dd6573d6000803e3d6000fd5b505050506040513d601f19601f82011682018060405250810190610dfa919061252c565b610e0657506001610f1c565b600080866001600160a01b0316635e60dab58b8860016040518463ffffffff1660e01b8152600401610e3a93929190612508565b6040805180830381865afa158015610e56573d6000803e3d6000fd5b505050506040513d601f19601f82011682018060405250810190610e7a919061254e565b91509150600080886001600160a01b0316635e60dab58d8a60006040518463ffffffff1660e01b8152600401610eb293929190612508565b6040805180830381865afa158015610ece573d6000803e3d6000fd5b505050506040513d601f19601f82011682018060405250810190610ef2919061254e565b915091508184118015610f0457508083115b15610f125760019450610f17565b600094505b505050505b848782604051602001610f3193929190612508565b6040516020818303038152906040529550505050505092915050565b60606000839050806001600160a01b0316630dfe16816040518163ffffffff1660e01b8152600401602060405180830381865afa158015610f92573d6000803e3d6000fd5b505050506040513d601f19601f82011682018060405250810190610fb691906124eb565b6001600160a01b0316836001600160a01b031614806110475750806001600160a01b031663d21220a76040518163ffffffff1660e01b8152600401602060405180830381865afa15801561100e573d6000803e3d6000fd5b505050506040513d601f19601f8201168201806040525081019061103291906124eb565b6001600160a01b0316836001600160a01b0316145b6110635760405162461bcd60e51b815260040161028f90612572565b6004805460405163bf40fac160e01b8152602092810192909252601360248301527229a7a624a2262cafa9aba0a82fa927aaaa22a960691b60448301526001600160a01b03169063bf40fac190606401602060405180830381865afa1580156110d0573d6000803e3d6000fd5b505050506040513d601f19601f820116820180604052508101906110f491906124eb565b604080516001600160a01b039283166020820152918516908201526060015b60405160208183030381529060405291505092915050565b604080516002808252606080830184529260009291906020830190803683370190505090508381600081518110611164576111646124b9565b60200260200101906001600160a01b031690816001600160a01b0316815250508281600181518110611198576111986124b9565b60200260200101906001600160a01b031690816001600160a01b0316815250506111c184611dd4565b816040516020016111139291906125c8565b6004805460405163bf40fac160e01b815260609284926001600160a01b03169163bf40fac19161122b910160208082526013908201527220a623a2a12920afa9aba0a82fa927aaaa22a960691b604082015260600190565b602060405180830381865afa158015611248573d6000803e3d6000fd5b505050506040513d601f19601f8201168201806040525081019061126c91906124eb565b604080516001600160a01b03938416602082015292909116908201526060015b604051602081830303815290604052905092915050565b604080516001600160a01b03831660208201526060910161128c565b606060008390506000816001600160a01b0316630dfe16816040518163ffffffff1660e01b8152600401602060405180830381865afa158015611306573d6000803e3d6000fd5b505050506040513d601f19601f8201168201806040525081019061132a91906124eb565b90506000826001600160a01b031663d21220a76040518163ffffffff1660e01b8152600401602060405180830381865afa15801561136c573d6000803e3d6000fd5b505050506040513d601f19601f8201168201806040525081019061139091906124eb565b90506000836001600160a01b0316630dfe16816040518163ffffffff1660e01b8152600401602060405180830381865afa1580156113d2573d6000803e3d6000fd5b505050506040513d601f19601f820116820180604052508101906113f691906124eb565b6001600160a01b0316866001600160a01b03161490506000846001600160a01b031663d21220a76040518163ffffffff1660e01b8152600401602060405180830381865afa15801561144c573d6000803e3d6000fd5b505050506040513d601f19601f8201168201806040525081019061147091906124eb565b6001600160a01b0316876001600160a01b0316149050818061148f5750805b6114ab5760405162461bcd60e51b815260040161028f90612572565b604080516002808252606082018352600092602083019080368337019050509050826114d757846114d9565b835b816000815181106114ec576114ec6124b9565b60200260200101906001600160a01b031690816001600160a01b031681525050816115175783611519565b845b8160018151811061152c5761152c6124b9565b6001600160a01b03929092166020928302919091018201526040805160008152918201905261155a8a611dd4565b846115655782611567565b815b846115725783611574565b825b60405160200161158693929190612668565b60405160208183030381529060405297505050505050505092915050565b6004805460405163bf40fac160e01b81526060926000926001600160a01b03169163bf40fac1916115fd9101602080825260139082015272536164646c654c7050726963654f7261636c6560681b604082015260600190565b602060405180830381865afa15801561161a573d6000803e3d6000fd5b505050506040513d601f19601f8201168201806040525081019061163e91906124eb565b60405163195b70b960e21b81526001600160a01b03868116600483015291925060009183169063656dc2e490602401600060405180830381865afa15801561168a573d6000803e3d6000fd5b505050506040513d6000823e601f3d908101601f191682016040526116b291908101906126cc565b6004805460405163bf40fac160e01b81529293506000926001600160a01b039091169163bf40fac1916116e5910161276b565b602060405180830381865afa158015611702573d6000803e3d6000fd5b505050506040513d601f19601f8201168201806040525081019061172691906124eb565b905060006117348387611e6c565b9050806001600160a01b0381161580611769575073eeeeeeeeeeeeeeeeeeeeeeeeeeeeeeeeeeeeeeee6001600160a01b038316145b156117715750815b818584604051602001610f319392919061278b565b6004805460405163bf40fac160e01b81526060926000926001600160a01b03169163bf40fac1916117b791016127ae565b602060405180830381865afa1580156117d4573d6000803e3d6000fd5b505050506040513d601f19601f820116820180604052508101906117f891906124eb565b60405163195b70b960e21b81526001600160a01b03868116600483015291925060009183169063656dc2e490602401600060405180830381865afa158015611844573d6000803e3d6000fd5b505050506040513d6000823e601f3d908101601f1916820160405261186c91908101906126cc565b6004805460405163bf40fac160e01b81529293506000926001600160a01b039091169163bf40fac19161189f910161276b565b602060405180830381865afa1580156118bc573d6000803e3d6000fd5b505050506040513d601f19601f820116820180604052508101906118e091906124eb565b905060006118ee8387611e6c565b9050806001600160a01b0381161580611923575073eeeeeeeeeeeeeeeeeeeeeeeeeeeeeeeeeeeeeeee6001600160a01b038316145b1561192b5750815b818386604051602001610f319392919061278b565b6004805460405163bf40fac160e01b81526060926000926001600160a01b03169163bf40fac19161197191016127ae565b602060405180830381865afa15801561198e573d6000803e3d6000fd5b505050506040513d601f19601f820116820180604052508101906119b291906124eb565b6004805460405163bf40fac160e01b8152602092810192909252602360248301527f437572766556324c70546f6b656e50726963654f7261636c654e6f526567697360448301526274727960e81b60648301529192506000916001600160a01b03169063bf40fac190608401602060405180830381865afa158015611a3b573d6000803e3d6000fd5b505050506040513d601f19601f82011682018060405250810190611a5f91906124eb565b6004805460405163bf40fac160e01b81529293506000926001600160a01b039091169163bf40fac191611a92910161276b565b602060405180830381865afa158015611aaf573d6000803e3d6000fd5b505050506040513d601f19601f82011682018060405250810190611ad391906124eb565b604080516001600160a01b039586166020820152938516848201529684166060840152948316608083015250921660a0808401919091528351808403909101815260c0909201909252919050565b60048054604080516377d7921960e01b815290516060936000936001600160a01b0316926377d79219928183019286928290030181865afa158015611b6a573d6000803e3d6000fd5b505050506040513d6000823e601f3d908101601f19168201604052611b9291908101906127ef565b905060005b8151811015611ca3576000828281518110611bb457611bb46124b9565b60200260200101519050856001600160a01b031681600001516001600160a01b03161415611c2057805160408083015160609384015182516001600160a01b03948516602082015293909116838301528284015280518083039093018352608090910190529250611ca3565b856001600160a01b031681602001516001600160a01b03161415611c9057806020015181604001518260600151604051602001611c7e939291906001600160a01b039384168152919092166020820152604081019190915260600190565b60405160208183030381529060405293505b5080611c9b816128c9565b915050611b97565b505092915050565b60604660611415611d7a5773e45589fbad3a1fb90f5b2a8a3e8958a8bab5f768734f1885d25ef219d3d4fa064809d6d4985fab9a0b7347bf57bb81c82af4116ca2ff76d063c698cfcd766001600160a01b038616831415611d3157808183604051602001611d1b9392919061278b565b6040516020818303038152906040529350611d72565b816001600160a01b0316866001600160a01b03161415611d7257818183604051602001611d609392919061278b565b60405160208183030381529060405293505b50505061023d565b60405173af16cb45b8149da403af41c63abfebfbcd16264b9073522348779dcb2911539e76a1042aa922f9c47ee390611dbb9086908490849060200161278b565b6040516020818303038152906040529250505092915050565b6004805460405163bf40fac160e01b81526000926001600160a01b039092169163bf40fac191611e2b910160208082526012908201527124aab734b9bbb0b82b192937baba32b9181960711b604082015260600190565b602060405180830381865afa158015611e48573d6000803e3d6000fd5b505050506040513d601f19601f8201168201806040525081019061023d91906124eb565b6004805460405163bf40fac160e01b815260009283926001600160a01b03169163bf40fac191611e9c910161276b565b602060405180830381865afa158015611eb9573d6000803e3d6000fd5b505050506040513d601f19601f82011682018060405250810190611edd91906124eb565b6004805460405163bf40fac160e01b8152602092810192909252600b60248301526a39ba30b13632aa37b5b2b760a91b60448301529192506000916001600160a01b03169063bf40fac190606401602060405180830381865afa158015611f48573d6000803e3d6000fd5b505050506040513d601f19601f82011682018060405250810190611f6c91906124eb565b6004805460405163bf40fac160e01b815260209281019290925260096024830152683ba12a21aa37b5b2b760b91b60448301529192506000916001600160a01b03169063bf40fac190606401602060405180830381865afa158015611fd5573d6000803e3d6000fd5b505050506040513d601f19601f82011682018060405250810190611ff991906124eb565b905060005b865181101561205857856001600160a01b0316878281518110612023576120236124b9565b60200260200101516001600160a01b03161415612046578594505050505061023d565b80612050816128c9565b915050611ffe565b5060005b86518110156120b657836001600160a01b0316878281518110612081576120816124b9565b60200260200101516001600160a01b031614156120a4578394505050505061023d565b806120ae816128c9565b91505061205c565b5060005b865181101561211457826001600160a01b03168782815181106120df576120df6124b9565b60200260200101516001600160a01b03161415612102578294505050505061023d565b8061210c816128c9565b9150506120ba565b5060005b865181101561217157816001600160a01b031687828151811061213d5761213d6124b9565b60200260200101516001600160a01b0316141561215f5750925061023d915050565b80612169816128c9565b915050612118565b5085600081518110612185576121856124b9565b6020026020010151935050505092915050565b6001600160a01b038116811461030f57600080fd5b600080604083850312156121c057600080fd5b82356121cb81612198565b915060208301356121db81612198565b809150509250929050565b6020808252825182820181905260009190848201906040850190845b818110156122285783516001600160e01b03191683529284019291840191600101612202565b50909695505050505050565b60005b8381101561224f578181015183820152602001612237565b8381111561225e576000848401525b50505050565b6000815180845261227c816020860160208601612234565b601f01601f19169290920160200192915050565b6001600160a01b03831681526040602082018190526000906122b490830184612264565b949350505050565b634e487b7160e01b600052604160045260246000fd5b6040516080810167ffffffffffffffff811182821017156122f5576122f56122bc565b60405290565b604051601f8201601f1916810167ffffffffffffffff81118282101715612324576123246122bc565b604052919050565b6000602080838503121561233f57600080fd5b823567ffffffffffffffff8082111561235757600080fd5b818501915085601f83011261236b57600080fd5b81358181111561237d5761237d6122bc565b61238f601f8201601f191685016122fb565b915080825286848285010111156123a557600080fd5b8084840185840137600090820190930192909252509392505050565b604080825283519082018190526000906020906060840190828701845b828110156124035781516001600160a01b0316845292840192908401906001016123de565b50505083810382850152845180825282820190600581901b8301840187850160005b8381101561245357601f19868403018552612441838351612264565b94870194925090860190600101612425565b50909998505050505050505050565b60006020828403121561247457600080fd5b813561247f81612198565b9392505050565b634e487b7160e01b600052601160045260246000fd5b600060ff8216806124af576124af612486565b6000190192915050565b634e487b7160e01b600052603260045260246000fd5b600082516124e1818460208701612234565b9190910192915050565b6000602082840312156124fd57600080fd5b815161247f81612198565b6001600160a01b039384168152919092166020820152901515604082015260600190565b60006020828403121561253e57600080fd5b8151801515811461247f57600080fd5b6000806040838503121561256157600080fd5b505080516020909101519092909150565b60208082526036908201527f4f757470757420746f6b656e20646f6573206e6f74206d6174636820656974686040820152756572206f6620746865207061697220746f6b656e732160501b606082015260800190565b6001600160a01b038381168252604060208084018290528451918401829052600092858201929091906060860190855b818110156126165785518516835294830194918301916001016125f8565b509098975050505050505050565b600081518084526020808501945080840160005b8381101561265d5781516001600160a01b031687529582019590820190600101612638565b509495945050505050565b6001600160a01b038416815260606020820181905260009061268c90830185612624565b828103604084015261269e8185612624565b9695505050505050565b600067ffffffffffffffff8211156126c2576126c26122bc565b5060051b60200190565b600060208083850312156126df57600080fd5b825167ffffffffffffffff8111156126f657600080fd5b8301601f8101851361270757600080fd5b805161271a612715826126a8565b6122fb565b81815260059190911b8201830190838101908783111561273957600080fd5b928401925b8284101561276057835161275181612198565b8252928401929084019061273e565b979650505050505050565b6020808252600690820152653bba37b5b2b760d11b604082015260600190565b6001600160a01b0393841681529183166020830152909116604082015260600190565b60208082526021908201527f43757276654c70546f6b656e50726963654f7261636c654e6f526567697374726040820152607960f81b606082015260800190565b6000602080838503121561280257600080fd5b825167ffffffffffffffff81111561281957600080fd5b8301601f8101851361282a57600080fd5b8051612838612715826126a8565b81815260079190911b8201830190838101908783111561285757600080fd5b928401925b8284101561276057608084890312156128755760008081fd5b61287d6122d2565b845161288881612198565b81528486015161289781612198565b818701526040858101516128aa81612198565b908201526060858101519082015282526080909301929084019061285c565b60006000198214156128dd576128dd612486565b506001019056fea164736f6c634300080a000a",
    "linkReferences": {}
  },
  "methodIdentifiers": {
    "_getExtensionFunctions()": "89f8132e",
    "acceptOwnership()": "79ba5097",
    "ap()": "3c4f743c",
    "getRedemptionStrategies(address,address)": "ed287f3f",
    "getRedemptionStrategy(address,address)": "b6b928fd",
    "hasRedemptionStrategyForTokens(address,address)": "67c5f53d",
    "owner()": "8da5cb5b",
    "pendingOwner()": "e30c3978",
    "redemptionStrategiesByName(string)": "dee7fe48",
    "redemptionStrategiesByTokens(address,address)": "a700f9e4",
    "renounceOwnership()": "715018a6",
    "transferOwnership(address)": "f2fde38b"
  }
}