{
  "address": "0x05c16f69596566259812226B7DBbB1EcF361A1C5",
  "abi": [
    {
      "anonymous": false,
      "inputs": [
        {
          "indexed": true,
          "internalType": "address",
          "name": "previousOwner",
          "type": "address"
        },
        {
          "indexed": true,
          "internalType": "address",
          "name": "newOwner",
          "type": "address"
        }
      ],
      "name": "OwnershipTransferStarted",
      "type": "event"
    },
    {
      "anonymous": false,
      "inputs": [
        {
          "indexed": true,
          "internalType": "address",
          "name": "previousOwner",
          "type": "address"
        },
        {
          "indexed": true,
          "internalType": "address",
          "name": "newOwner",
          "type": "address"
        }
      ],
      "name": "OwnershipTransferred",
      "type": "event"
    },
    {
      "inputs": [],
      "name": "_getExtensionFunctions",
      "outputs": [
        {
          "internalType": "bytes4[]",
          "name": "",
          "type": "bytes4[]"
        }
      ],
      "stateMutability": "pure",
      "type": "function"
    },
    {
      "inputs": [
        {
          "internalType": "address",
          "name": "strategyToRemove",
          "type": "address"
        },
        {
          "internalType": "string",
          "name": "name",
          "type": "string"
        },
        {
          "internalType": "contract IERC20Upgradeable",
          "name": "inputToken",
          "type": "address"
        }
      ],
      "name": "_removeRedemptionStrategy",
      "outputs": [],
      "stateMutability": "nonpayable",
      "type": "function"
    },
    {
      "inputs": [
        {
          "internalType": "contract IRedemptionStrategy[]",
          "name": "strategies",
          "type": "address[]"
        },
        {
          "internalType": "contract IERC20Upgradeable[]",
          "name": "inputTokens",
          "type": "address[]"
        },
        {
          "internalType": "contract IERC20Upgradeable[]",
          "name": "outputTokens",
          "type": "address[]"
        }
      ],
      "name": "_setRedemptionStrategies",
      "outputs": [],
      "stateMutability": "nonpayable",
      "type": "function"
    },
    {
      "inputs": [
        {
          "internalType": "contract IRedemptionStrategy",
          "name": "strategy",
          "type": "address"
        },
        {
          "internalType": "contract IERC20Upgradeable",
          "name": "inputToken",
          "type": "address"
        },
        {
          "internalType": "contract IERC20Upgradeable",
          "name": "outputToken",
          "type": "address"
        }
      ],
      "name": "_setRedemptionStrategy",
      "outputs": [],
      "stateMutability": "nonpayable",
      "type": "function"
    },
    {
      "inputs": [],
      "name": "acceptOwnership",
      "outputs": [],
      "stateMutability": "nonpayable",
      "type": "function"
    },
    {
      "inputs": [],
      "name": "ap",
      "outputs": [
        {
          "internalType": "contract AddressesProvider",
          "name": "",
          "type": "address"
        }
      ],
      "stateMutability": "view",
      "type": "function"
    },
    {
      "inputs": [],
      "name": "asExtension",
      "outputs": [
        {
          "internalType": "contract LiquidatorsRegistryExtension",
          "name": "",
          "type": "address"
        }
      ],
      "stateMutability": "view",
      "type": "function"
    },
    {
      "inputs": [
        {
          "internalType": "contract IERC20Upgradeable",
          "name": "inputToken",
          "type": "address"
        },
        {
          "internalType": "contract IERC20Upgradeable",
          "name": "outputToken",
          "type": "address"
        }
      ],
      "name": "getRedemptionStrategies",
      "outputs": [
        {
          "internalType": "contract IRedemptionStrategy[]",
          "name": "strategies",
          "type": "address[]"
        },
        {
          "internalType": "bytes[]",
          "name": "strategiesData",
          "type": "bytes[]"
        }
      ],
      "stateMutability": "view",
      "type": "function"
    },
    {
      "inputs": [
        {
          "internalType": "contract IERC20Upgradeable",
          "name": "inputToken",
          "type": "address"
        },
        {
          "internalType": "contract IERC20Upgradeable",
          "name": "outputToken",
          "type": "address"
        }
      ],
      "name": "getRedemptionStrategy",
      "outputs": [
        {
          "internalType": "contract IRedemptionStrategy",
          "name": "strategy",
          "type": "address"
        },
        {
          "internalType": "bytes",
          "name": "strategyData",
          "type": "bytes"
        }
      ],
      "stateMutability": "view",
      "type": "function"
    },
    {
      "inputs": [
        {
          "internalType": "contract IERC20Upgradeable",
          "name": "inputToken",
          "type": "address"
        },
        {
          "internalType": "contract IERC20Upgradeable",
          "name": "outputToken",
          "type": "address"
        }
      ],
      "name": "hasRedemptionStrategyForTokens",
      "outputs": [
        {
          "internalType": "bool",
          "name": "",
          "type": "bool"
        }
      ],
      "stateMutability": "view",
      "type": "function"
    },
    {
      "inputs": [
        {
          "internalType": "contract IERC20Upgradeable",
          "name": "",
          "type": "address"
        }
      ],
      "name": "outputTokensByInputToken",
      "outputs": [
        {
          "internalType": "contract IERC20Upgradeable",
          "name": "",
          "type": "address"
        }
      ],
      "stateMutability": "view",
      "type": "function"
    },
    {
      "inputs": [],
      "name": "owner",
      "outputs": [
        {
          "internalType": "address",
          "name": "",
          "type": "address"
        }
      ],
      "stateMutability": "view",
      "type": "function"
    },
    {
      "inputs": [],
      "name": "pendingOwner",
      "outputs": [
        {
          "internalType": "address",
          "name": "",
          "type": "address"
        }
      ],
      "stateMutability": "view",
      "type": "function"
    },
    {
      "inputs": [
        {
          "internalType": "string",
          "name": "",
          "type": "string"
        }
      ],
      "name": "redemptionStrategiesByName",
      "outputs": [
        {
          "internalType": "contract IRedemptionStrategy",
          "name": "",
          "type": "address"
        }
      ],
      "stateMutability": "view",
      "type": "function"
    },
    {
      "inputs": [
        {
          "internalType": "contract IERC20Upgradeable",
          "name": "",
          "type": "address"
        },
        {
          "internalType": "contract IERC20Upgradeable",
          "name": "",
          "type": "address"
        }
      ],
      "name": "redemptionStrategiesByTokens",
      "outputs": [
        {
          "internalType": "contract IRedemptionStrategy",
          "name": "",
          "type": "address"
        }
      ],
      "stateMutability": "view",
      "type": "function"
    },
    {
      "inputs": [],
      "name": "renounceOwnership",
      "outputs": [],
      "stateMutability": "nonpayable",
      "type": "function"
    },
    {
      "inputs": [
        {
          "internalType": "address",
          "name": "newOwner",
          "type": "address"
        }
      ],
      "name": "transferOwnership",
      "outputs": [],
      "stateMutability": "nonpayable",
      "type": "function"
    }
  ],
  "transactionHash": "0x0b79c03fa4b4e422b7ad90f75740aaa76b9661e7d95f0a34ae1cc9abe5f38d10",
  "args": [],
  "numDeployments": 5,
  "bytecode": {
    "object": "0x60806040523480156200001157600080fd5b506200001d3362000023565b6200009d565b600180546001600160a01b03191690556200004a816200004d602090811b6200130017901c565b50565b600080546001600160a01b038381166001600160a01b0319831681178455604051919092169283917f8be0079c531659141344cd1fd0a4f28419497f9722a3daafe3b4186f6b6457e09190a35050565b613ab980620000ad6000396000f3fe608060405234801561001057600080fd5b506004361061010b5760003560e01c80638da5cb5b116100a2578063dc54bc8111610071578063dc54bc8114610252578063dee7fe4814610258578063e30c39781461028c578063ed287f3f1461029d578063f2fde38b146102be57600080fd5b80638da5cb5b146101d9578063a700f9e4146101ea578063b6b928fd1461021e578063d7341acf1461023f57600080fd5b80636e4f9b99116100de5780636e4f9b99146101a1578063715018a6146101b457806379ba5097146101bc57806389f8132e146101c457600080fd5b80631bab4b9614610110578063366eda2e146101565780633c4f743c1461016b57806367c5f53d1461017e575b600080fd5b61013961011e366004613074565b6007602052600090815260409020546001600160a01b031681565b6040516001600160a01b0390911681526020015b60405180910390f35b6101696101643660046130d5565b6102d1565b005b600254610139906001600160a01b031681565b61019161018c36600461316e565b610600565b604051901515815260200161014d565b6101696101af3660046131a7565b610631565b6101696106db565b61016961072b565b6101cc6107a5565b60405161014d919061323e565b6000546001600160a01b0316610139565b6101396101f836600461316e565b60066020908152600092835260408084209091529082529020546001600160a01b031681565b61023161022c36600461316e565b6109a4565b60405161014d9291906132e8565b61016961024d366004613314565b610dfe565b30610139565b6101396102663660046133f4565b80516020818301810180516005825292820191909301209152546001600160a01b031681565b6001546001600160a01b0316610139565b6102b06102ab36600461316e565b610f55565b60405161014d929190613473565b6101696102cc366004613074565b61128f565b6102d9611350565b84831480156102e757508281145b6103265760405162461bcd60e51b815260206004820152600b60248201526a10b0b93930bcb9903632b760a91b60448201526064015b60405180910390fd5b60005b858110156105f757600087878381811061034557610345613514565b905060200201602081019061035a9190613074565b6001600160a01b03166306fdde036040518163ffffffff1660e01b8152600401600060405180830381865afa158015610397573d6000803e3d6000fd5b505050506040513d6000823e601f3d908101601f191682016040526103bf919081019061352a565b905060006005826040516103d391906135a0565b908152604051908190036020019020546001600160a01b0316905088888481811061040057610400613514565b90506020020160208101906104159190613074565b6006600089898781811061042b5761042b613514565b90506020020160208101906104409190613074565b6001600160a01b03166001600160a01b03168152602001908152602001600020600087878781811061047457610474613514565b90506020020160208101906104899190613074565b6001600160a01b039081168252602082019290925260400160002080546001600160a01b031916929091169190911790558888848181106104cc576104cc613514565b90506020020160208101906104e19190613074565b6005836040516104f191906135a0565b90815260405190819003602001902080546001600160a01b03929092166001600160a01b031990921691909117905561052b6003826113ac565b5061055e89898581811061054157610541613514565b90506020020160208101906105569190613074565b6003906113c8565b5084848481811061057157610571613514565b90506020020160208101906105869190613074565b6007600089898781811061059c5761059c613514565b90506020020160208101906105b19190613074565b6001600160a01b039081168252602082019290925260400160002080546001600160a01b03191692909116919091179055508190506105ef816135d2565b915050610329565b50505050505050565b6001600160a01b03808316600090815260066020908152604080832085851684529091529020541615155b92915050565b610639611350565b6001600160a01b0380821660009081526007602052604080822054905192169160059061066990879087906135ed565b908152604080516020928190038301902080546001600160a01b03199081166001600160a01b0395861617909155858416600081815260068552838120958716815294845282852080548316905584526007909252909120805490911690556106d36003866113ac565b505050505050565b6106e3611350565b60405162461bcd60e51b815260206004820152601e60248201527f72656e6f756e6365206f776e657273686970206e6f7420616c6c6f7765640000604482015260640161031d565b60015433906001600160a01b031681146107995760405162461bcd60e51b815260206004820152602960248201527f4f776e61626c6532537465703a2063616c6c6572206973206e6f7420746865206044820152683732bb9037bbb732b960b91b606482015260840161031d565b6107a2816113dd565b50565b60408051600680825260e0820190925260609190600090826020820160c08036833701905050905063ed287f3f60e01b816107df846135fd565b93508360ff16815181106107f5576107f5613514565b6001600160e01b03199092166020928302919091019091015263b6b928fd60e01b81610820846135fd565b93508360ff168151811061083657610836613514565b6001600160e01b0319909216602092830291909101909101526367c5f53d60e01b81610861846135fd565b93508360ff168151811061087757610877613514565b6001600160e01b03199092166020928302919091019091015263d7341acf60e01b816108a2846135fd565b93508360ff16815181106108b8576108b8613514565b6001600160e01b031990921660209283029190910190910152631b376d1760e11b816108e3846135fd565b93508360ff16815181106108f9576108f9613514565b6001600160e01b031990921660209283029190910190910152636e4f9b9960e01b81610924846135fd565b93508360ff168151811061093a5761093a613514565b6001600160e01b03199092166020928302919091019091015260ff82161561062b5760405162461bcd60e51b815260206004820152601c60248201527f7573652074686520636f7272656374206172726179206c656e67746800000000604482015260640161031d565b6001600160a01b0380831660009081526006602090815260408083208585168452825291829020548251808401909352601583527429b7b634b2363ca9bbb0b82634b8bab4b230ba37b960591b9183019190915290911690606090610a0a9083906113f6565b15610a2057610a19848461142e565b9050610df7565b610a5f826040518060400160405280601881526020017f536f6c69646c794c70546f6b656e4c697175696461746f7200000000000000008152506113f6565b15610a6e57610a1984846118ff565b610aad826040518060400160405280601981526020017f556e697377617056324c697175696461746f7246756e646572000000000000008152506113f6565b15610abc57610a198484611abb565b610af3826040518060400160405280601581526020017420b633b2b13930a9bbb0b82634b8bab4b230ba37b960591b8152506113f6565b80610b315750610b31826040518060400160405280601681526020017523b0b6b6b0a6382a37b5b2b72634b8bab4b230ba37b960511b8152506113f6565b15610b4057610a198484611b63565b610b7882604051806040016040528060168152602001752130b630b731b2b929bbb0b82634b8bab4b230ba37b960511b8152506113f6565b80610bbd5750610bbd826040518060400160405280601981526020017f42616c616e6365724c70546f6b656e4c697175696461746f72000000000000008152506113f6565b15610bcc57610a198484611c50565b610c0b826040518060400160405280601881526020017f556e69737761704c70546f6b656e4c697175696461746f7200000000000000008152506113f6565b80610c475750610c47826040518060400160405280601481526020017323b2b630ba37a3aab734a634b8bab4b230ba37b960611b8152506113f6565b15610c5657610a198484611c6c565b610c95826040518060400160405280601781526020017f536164646c654c70546f6b656e4c697175696461746f720000000000000000008152506113f6565b15610ca457610a198484611f51565b610ce3826040518060400160405280602081526020017f43757276654c70546f6b656e4c697175696461746f724e6f52656769737472798152506113f6565b15610cf257610a198484612130565b610d27826040518060400160405280601381526020017221bab93b32a9bbb0b82634b8bab4b230ba37b960691b8152506113f6565b15610d3657610a1984846122ee565b610d6e82604051806040016040528060168152602001752530b93b34b9a634b8bab4b230ba37b9233ab73232b960511b8152506113f6565b15610d7d57610a1984846124d2565b610db482604051806040016040528060158152602001742c2137b6b12634b8bab4b230ba37b9233ab73232b960591b8152506113f6565b15610dc357610a19848461266a565b610de582604051806060016040528060218152602001613a8c602191396113f6565b15610df757610df48484612793565b90505b9250929050565b610e06611350565b6000836001600160a01b03166306fdde036040518163ffffffff1660e01b8152600401600060405180830381865afa158015610e46573d6000803e3d6000fd5b505050506040513d6000823e601f3d908101601f19168201604052610e6e919081019061352a565b90506000600582604051610e8291906135a0565b9081526040805160209281900383018120546001600160a01b0388811660009081526006865284812089831682529095529290932080546001600160a01b031916898416179055911691508590600590610edd9085906135a0565b90815260405190819003602001902080546001600160a01b03929092166001600160a01b0319909216919091179055610f176003826113ac565b50610f236003866113c8565b5050506001600160a01b03918216600090815260076020526040902080546001600160a01b0319169190921617905550565b60408051600a80825261016082019092526060918291859185916000916020820161014080368337505060408051600a80825261016082019092529293506000929150602082015b6060815260200190600190039081610f9d57505060408051600a808252610160820190925291925060009190602082016101408036833701905050905060005b846001600160a01b0316866001600160a01b03161461113f576001600160a01b03808716600090815260076020526040812054909116905b83518110156110685783818151811061103057611030613514565b60200260200101516001600160a01b0316826001600160a01b0316141561105657611068565b80611060816135d2565b915050611015565b5060008061107689846109a4565b90925090506001600160a01b0382166110915750505061113f565b818785815181106110a4576110a4613514565b60200260200101906001600160a01b031690816001600160a01b031681525050808685815181106110d7576110d7613514565b6020026020010181905250828585815181106110f5576110f5613514565b60200260200101906001600160a01b031690816001600160a01b0316815250508298508380611123906135d2565b94505083600a14156111375750505061113f565b505050610fdd565b806001600160401b038111156111575761115761335f565b604051908082528060200260200182016040528015611180578160200160208202803683370190505b509750806001600160401b0381111561119b5761119b61335f565b6040519080825280602002602001820160405280156111ce57816020015b60608152602001906001900390816111b95790505b50965060005b818160ff16101561128157848160ff16815181106111f4576111f4613514565b6020026020010151898260ff168151811061121157611211613514565b60200260200101906001600160a01b031690816001600160a01b031681525050838160ff168151811061124657611246613514565b6020026020010151888260ff168151811061126357611263613514565b602002602001018190525080806112799061361a565b9150506111d4565b505050505050509250929050565b611297611350565b600180546001600160a01b0383166001600160a01b031990911681179091556112c86000546001600160a01b031690565b6001600160a01b03167f38d16b8cac22d99fc7c124b9cd0de2d3fa1faef420bfe791d8c362d765e2270060405160405180910390a350565b600080546001600160a01b038381166001600160a01b0319831681178455604051919092169283917f8be0079c531659141344cd1fd0a4f28419497f9722a3daafe3b4186f6b6457e09190a35050565b6000546001600160a01b031633146113aa5760405162461bcd60e51b815260206004820181905260248201527f4f776e61626c653a2063616c6c6572206973206e6f7420746865206f776e6572604482015260640161031d565b565b60006113c1836001600160a01b038416612b60565b9392505050565b60006113c1836001600160a01b038416612c53565b600180546001600160a01b03191690556107a281611300565b600060058260405161140891906135a0565b908152604051908190036020019020546001600160a01b03848116911614905092915050565b60025460405163bf40fac160e01b81526060916000916001600160a01b039091169063bf40fac1906114629060040161363a565b602060405180830381865afa15801561147f573d6000803e3d6000fd5b505050506040513d601f19601f820116820180604052508101906114a39190613688565b60405163260f701f60e11b815290915083906000906001600160a01b03841690634c1ee03e906114db908990869086906004016136a5565b602060405180830381865afa1580156114f8573d6000803e3d6000fd5b505050506040513d601f19601f8201168201806040525081019061151c9190613688565b90506000836001600160a01b0316634c1ee03e888560016040518463ffffffff1660e01b8152600401611551939291906136a5565b602060405180830381865afa15801561156e573d6000803e3d6000fd5b505050506040513d601f19601f820116820180604052508101906115929190613688565b60405163e5e31b1360e01b81526001600160a01b0380831660048301529192509085169063e5e31b1390602401602060405180830381865afa1580156115dc573d6000803e3d6000fd5b505050506040513d601f19601f8201168201806040525081019061160091906136c9565b80611670575060405163e5e31b1360e01b81526001600160a01b03838116600483015285169063e5e31b1390602401602060405180830381865afa15801561164c573d6000803e3d6000fd5b505050506040513d601f19601f8201168201806040525081019061167091906136c9565b6116c85760405162461bcd60e51b8152602060048201526024808201527f496e76616c696420536f6c69646c794c697175696461746f722073776170207060448201526330ba341760e11b606482015260840161031d565b60405163e5e31b1360e01b81526001600160a01b0382811660048301526000919086169063e5e31b1390602401602060405180830381865afa158015611712573d6000803e3d6000fd5b505050506040513d601f19601f8201168201806040525081019061173691906136c9565b611742575060006118ce565b60405163e5e31b1360e01b81526001600160a01b03848116600483015286169063e5e31b1390602401602060405180830381865afa158015611788573d6000803e3d6000fd5b505050506040513d601f19601f820116820180604052508101906117ac91906136c9565b6117b8575060016118ce565b600080866001600160a01b0316635e60dab58b8860016040518463ffffffff1660e01b81526004016117ec939291906136a5565b6040805180830381865afa158015611808573d6000803e3d6000fd5b505050506040513d601f19601f8201168201806040525081019061182c91906136eb565b91509150600080886001600160a01b0316635e60dab58d8a60006040518463ffffffff1660e01b8152600401611864939291906136a5565b6040805180830381865afa158015611880573d6000803e3d6000fd5b505050506040513d601f19601f820116820180604052508101906118a491906136eb565b9150915081841180156118b657508083115b156118c457600194506118c9565b600094505b505050505b8487826040516020016118e3939291906136a5565b6040516020818303038152906040529550505050505092915050565b60606000839050806001600160a01b0316630dfe16816040518163ffffffff1660e01b8152600401602060405180830381865afa158015611944573d6000803e3d6000fd5b505050506040513d601f19601f820116820180604052508101906119689190613688565b6001600160a01b0316836001600160a01b031614806119f95750806001600160a01b031663d21220a76040518163ffffffff1660e01b8152600401602060405180830381865afa1580156119c0573d6000803e3d6000fd5b505050506040513d601f19601f820116820180604052508101906119e49190613688565b6001600160a01b0316836001600160a01b0316145b611a155760405162461bcd60e51b815260040161031d9061370f565b60025460405163bf40fac160e01b81526001600160a01b039091169063bf40fac190611a439060040161363a565b602060405180830381865afa158015611a60573d6000803e3d6000fd5b505050506040513d601f19601f82011682018060405250810190611a849190613688565b604080516001600160a01b039283166020820152918516908201526060015b60405160208183030381529060405291505092915050565b604080516002808252606080830184529260009291906020830190803683370190505090508381600081518110611af457611af4613514565b60200260200101906001600160a01b031690816001600160a01b0316815250508281600181518110611b2857611b28613514565b60200260200101906001600160a01b031690816001600160a01b031681525050611b5184612ca2565b81604051602001611aa3929190613765565b60025460405163bf40fac160e01b815260206004820152602e60248201527f636861696e436f6e6669672e636861696e4164647265737365732e414c47454260448201526d2920afa9aba0a82fa927aaaa22a960911b606482015260609183916001600160a01b039091169063bf40fac190608401602060405180830381865afa158015611bf5573d6000803e3d6000fd5b505050506040513d601f19601f82011682018060405250810190611c199190613688565b604080516001600160a01b03938416602082015292909116908201526060015b604051602081830303815290604052905092915050565b604080516001600160a01b038316602082015260609101611c39565b606060008390506000816001600160a01b0316630dfe16816040518163ffffffff1660e01b8152600401602060405180830381865afa158015611cb3573d6000803e3d6000fd5b505050506040513d601f19601f82011682018060405250810190611cd79190613688565b90506000826001600160a01b031663d21220a76040518163ffffffff1660e01b8152600401602060405180830381865afa158015611d19573d6000803e3d6000fd5b505050506040513d601f19601f82011682018060405250810190611d3d9190613688565b90506000836001600160a01b0316630dfe16816040518163ffffffff1660e01b8152600401602060405180830381865afa158015611d7f573d6000803e3d6000fd5b505050506040513d601f19601f82011682018060405250810190611da39190613688565b6001600160a01b0316866001600160a01b03161490506000846001600160a01b031663d21220a76040518163ffffffff1660e01b8152600401602060405180830381865afa158015611df9573d6000803e3d6000fd5b505050506040513d601f19601f82011682018060405250810190611e1d9190613688565b6001600160a01b0316876001600160a01b03161490508180611e3c5750805b611e585760405162461bcd60e51b815260040161031d9061370f565b60408051600280825260608201835260009260208301908036833701905050905082611e845784611e86565b835b81600081518110611e9957611e99613514565b60200260200101906001600160a01b031690816001600160a01b03168152505081611ec45783611ec6565b845b81600181518110611ed957611ed9613514565b6001600160a01b039290921660209283029190910182015260408051600081529182019052611f078a612ca2565b84611f125782611f14565b815b84611f1f5783611f21565b825b604051602001611f3393929190613805565b60405160208183030381529060405297505050505050505092915050565b60025460405163bf40fac160e01b8152602060048201526013602482015272536164646c654c7050726963654f7261636c6560681b60448201526060916000916001600160a01b039091169063bf40fac190606401602060405180830381865afa158015611fc3573d6000803e3d6000fd5b505050506040513d601f19601f82011682018060405250810190611fe79190613688565b60405163195b70b960e21b81526001600160a01b03868116600483015291925060009183169063656dc2e490602401600060405180830381865afa158015612033573d6000803e3d6000fd5b505050506040513d6000823e601f3d908101601f1916820160405261205b9190810190613868565b60025460405163bf40fac160e01b81529192506000916001600160a01b039091169063bf40fac19061208f90600401613901565b602060405180830381865afa1580156120ac573d6000803e3d6000fd5b505050506040513d601f19601f820116820180604052508101906120d09190613688565b905060006120de8387612d32565b9050806001600160a01b0381161580612113575073eeeeeeeeeeeeeeeeeeeeeeeeeeeeeeeeeeeeeeee6001600160a01b038316145b1561211b5750815b8185846040516020016118e393929190613921565b60025460405163bf40fac160e01b81526060916000916001600160a01b039091169063bf40fac19061216490600401613944565b602060405180830381865afa158015612181573d6000803e3d6000fd5b505050506040513d601f19601f820116820180604052508101906121a59190613688565b60405163195b70b960e21b81526001600160a01b03868116600483015291925060009183169063656dc2e490602401600060405180830381865afa1580156121f1573d6000803e3d6000fd5b505050506040513d6000823e601f3d908101601f191682016040526122199190810190613868565b60025460405163bf40fac160e01b81529192506000916001600160a01b039091169063bf40fac19061224d90600401613901565b602060405180830381865afa15801561226a573d6000803e3d6000fd5b505050506040513d601f19601f8201168201806040525081019061228e9190613688565b9050600061229c8387612d32565b9050806001600160a01b03811615806122d1575073eeeeeeeeeeeeeeeeeeeeeeeeeeeeeeeeeeeeeeee6001600160a01b038316145b156122d95750815b8183866040516020016118e393929190613921565b60025460405163bf40fac160e01b81526060916000916001600160a01b039091169063bf40fac19061232290600401613944565b602060405180830381865afa15801561233f573d6000803e3d6000fd5b505050506040513d601f19601f820116820180604052508101906123639190613688565b60025460405163bf40fac160e01b815260206004820152602360248201527f437572766556324c70546f6b656e50726963654f7261636c654e6f526567697360448201526274727960e81b60648201529192506000916001600160a01b039091169063bf40fac190608401602060405180830381865afa1580156123eb573d6000803e3d6000fd5b505050506040513d601f19601f8201168201806040525081019061240f9190613688565b60025460405163bf40fac160e01b81529192506000916001600160a01b039091169063bf40fac19061244390600401613901565b602060405180830381865afa158015612460573d6000803e3d6000fd5b505050506040513d601f19601f820116820180604052508101906124849190613688565b604080516001600160a01b039586166020820152938516848201529684166060840152948316608083015250921660a0808401919091528351808403909101815260c0909201909252919050565b60606000600260009054906101000a90046001600160a01b03166001600160a01b03166377d792196040518163ffffffff1660e01b8152600401600060405180830381865afa158015612529573d6000803e3d6000fd5b505050506040513d6000823e601f3d908101601f191682016040526125519190810190613985565b905060005b815181101561266257600082828151811061257357612573613514565b60200260200101519050856001600160a01b031681600001516001600160a01b031614156125df57805160408083015160609384015182516001600160a01b03948516602082015293909116838301528284015280518083039093018352608090910190529250612662565b856001600160a01b031681602001516001600160a01b0316141561264f5780602001518160400151826060015160405160200161263d939291906001600160a01b039384168152919092166020820152604081019190915260600190565b60405160208183030381529060405293505b508061265a816135d2565b915050612556565b505092915050565b606046606114156127395773e45589fbad3a1fb90f5b2a8a3e8958a8bab5f768734f1885d25ef219d3d4fa064809d6d4985fab9a0b7347bf57bb81c82af4116ca2ff76d063c698cfcd766001600160a01b0386168314156126f0578081836040516020016126da93929190613921565b6040516020818303038152906040529350612731565b816001600160a01b0316866001600160a01b031614156127315781818360405160200161271f93929190613921565b60405160208183030381529060405293505b50505061062b565b60405173af16cb45b8149da403af41c63abfebfbcd16264b9073522348779dcb2911539e76a1042aa922f9c47ee39061277a90869084908490602001613921565b6040516020818303038152906040529250505092915050565b60025460405163bf40fac160e01b81526060916000916001600160a01b039091169063bf40fac1906127c790600401613901565b602060405180830381865afa1580156127e4573d6000803e3d6000fd5b505050506040513d601f19601f820116820180604052508101906128089190613688565b6001600160a01b0316846001600160a01b03161480156128445750733a58a54c066fdc0f2d55fc9c89f0415c92ebf3c46001600160a01b038416145b806128f55750733a58a54c066fdc0f2d55fc9c89f0415c92ebf3c46001600160a01b0385161480156128f5575060025460405163bf40fac160e01b81526001600160a01b039091169063bf40fac19061289f90600401613901565b602060405180830381865afa1580156128bc573d6000803e3d6000fd5b505050506040513d601f19601f820116820180604052508101906128e09190613688565b6001600160a01b0316836001600160a01b0316145b156129115750738159462d255c1d24915cb51ec361f700174cd9945b60025460405163bf40fac160e01b81526001600160a01b039091169063bf40fac19061293f90600401613901565b602060405180830381865afa15801561295c573d6000803e3d6000fd5b505050506040513d601f19601f820116820180604052508101906129809190613688565b6001600160a01b0316846001600160a01b03161480156129bc575073fa68fb4628dff1028cfec22b4162fccd0d45efb66001600160a01b038416145b80612a6d575073fa68fb4628dff1028cfec22b4162fccd0d45efb66001600160a01b038516148015612a6d575060025460405163bf40fac160e01b81526001600160a01b039091169063bf40fac190612a1790600401613901565b602060405180830381865afa158015612a34573d6000803e3d6000fd5b505050506040513d601f19601f82011682018060405250810190612a589190613688565b6001600160a01b0316836001600160a01b0316145b15612a89575073b20fc01d21a50d2c734c4a1262b4404d41fa7bf05b73e2aa7db6da1dae97c5f5c6914d285fbfcc32a1286001600160a01b038516148015612ad1575073513cdee00251f39de280d9e5f771a6eafebcc88e6001600160a01b038416145b80612b1f575073513cdee00251f39de280d9e5f771a6eafebcc88e6001600160a01b038516148015612b1f575073e2aa7db6da1dae97c5f5c6914d285fbfcc32a1286001600160a01b038416145b15612b3b575073513cdee00251f39de280d9e5f771a6eafebcc88e5b604080516001600160a01b038084166020830152851691810191909152606001611aa3565b60008181526001830160205260408120548015612c49576000612b84600183613a5e565b8554909150600090612b9890600190613a5e565b9050818114612bfd576000866000018281548110612bb857612bb8613514565b9060005260206000200154905080876000018481548110612bdb57612bdb613514565b6000918252602080832090910192909255918252600188019052604090208390555b8554869080612c0e57612c0e613a75565b60019003818190600052602060002001600090559055856001016000868152602001908152602001600020600090556001935050505061062b565b600091505061062b565b6000818152600183016020526040812054612c9a5750815460018181018455600084815260208082209093018490558454848252828601909352604090209190915561062b565b50600061062b565b60025460405163bf40fac160e01b815260206004820152601260248201527124aab734b9bbb0b82b192937baba32b9181960711b60448201526000916001600160a01b03169063bf40fac190606401602060405180830381865afa158015612d0e573d6000803e3d6000fd5b505050506040513d601f19601f8201168201806040525081019061062b9190613688565b60025460405163bf40fac160e01b815260009182916001600160a01b039091169063bf40fac190612d6590600401613901565b602060405180830381865afa158015612d82573d6000803e3d6000fd5b505050506040513d601f19601f82011682018060405250810190612da69190613688565b60025460405163bf40fac160e01b815260206004820152600b60248201526a39ba30b13632aa37b5b2b760a91b60448201529192506000916001600160a01b039091169063bf40fac190606401602060405180830381865afa158015612e10573d6000803e3d6000fd5b505050506040513d601f19601f82011682018060405250810190612e349190613688565b60025460405163bf40fac160e01b81526020600482015260096024820152683ba12a21aa37b5b2b760b91b60448201529192506000916001600160a01b039091169063bf40fac190606401602060405180830381865afa158015612e9c573d6000803e3d6000fd5b505050506040513d601f19601f82011682018060405250810190612ec09190613688565b905060005b8651811015612f1f57856001600160a01b0316878281518110612eea57612eea613514565b60200260200101516001600160a01b03161415612f0d578594505050505061062b565b80612f17816135d2565b915050612ec5565b5060005b8651811015612f7d57836001600160a01b0316878281518110612f4857612f48613514565b60200260200101516001600160a01b03161415612f6b578394505050505061062b565b80612f75816135d2565b915050612f23565b5060005b8651811015612fdb57826001600160a01b0316878281518110612fa657612fa6613514565b60200260200101516001600160a01b03161415612fc9578294505050505061062b565b80612fd3816135d2565b915050612f81565b5060005b865181101561303857816001600160a01b031687828151811061300457613004613514565b60200260200101516001600160a01b031614156130265750925061062b915050565b80613030816135d2565b915050612fdf565b508560008151811061304c5761304c613514565b6020026020010151935050505092915050565b6001600160a01b03811681146107a257600080fd5b60006020828403121561308657600080fd5b81356113c18161305f565b60008083601f8401126130a357600080fd5b5081356001600160401b038111156130ba57600080fd5b6020830191508360208260051b8501011115610df757600080fd5b600080600080600080606087890312156130ee57600080fd5b86356001600160401b038082111561310557600080fd5b6131118a838b01613091565b9098509650602089013591508082111561312a57600080fd5b6131368a838b01613091565b9096509450604089013591508082111561314f57600080fd5b5061315c89828a01613091565b979a9699509497509295939492505050565b6000806040838503121561318157600080fd5b823561318c8161305f565b9150602083013561319c8161305f565b809150509250929050565b600080600080606085870312156131bd57600080fd5b84356131c88161305f565b935060208501356001600160401b03808211156131e457600080fd5b818701915087601f8301126131f857600080fd5b81358181111561320757600080fd5b88602082850101111561321957600080fd5b60208301955080945050505060408501356132338161305f565b939692955090935050565b6020808252825182820181905260009190848201906040850190845b818110156132805783516001600160e01b0319168352928401929184019160010161325a565b50909695505050505050565b60005b838110156132a757818101518382015260200161328f565b838111156132b6576000848401525b50505050565b600081518084526132d481602086016020860161328c565b601f01601f19169290920160200192915050565b6001600160a01b038316815260406020820181905260009061330c908301846132bc565b949350505050565b60008060006060848603121561332957600080fd5b83356133348161305f565b925060208401356133448161305f565b915060408401356133548161305f565b809150509250925092565b634e487b7160e01b600052604160045260246000fd5b604051608081016001600160401b03811182821017156133975761339761335f565b60405290565b604051601f8201601f191681016001600160401b03811182821017156133c5576133c561335f565b604052919050565b60006001600160401b038211156133e6576133e661335f565b50601f01601f191660200190565b60006020828403121561340657600080fd5b81356001600160401b0381111561341c57600080fd5b8201601f8101841361342d57600080fd5b803561344061343b826133cd565b61339d565b81815285602083850101111561345557600080fd5b81602084016020830137600091810160200191909152949350505050565b604080825283519082018190526000906020906060840190828701845b828110156134b55781516001600160a01b031684529284019290840190600101613490565b50505083810382850152845180825282820190600581901b8301840187850160005b8381101561350557601f198684030185526134f38383516132bc565b948701949250908601906001016134d7565b50909998505050505050505050565b634e487b7160e01b600052603260045260246000fd5b60006020828403121561353c57600080fd5b81516001600160401b0381111561355257600080fd5b8201601f8101841361356357600080fd5b805161357161343b826133cd565b81815285602083850101111561358657600080fd5b61359782602083016020860161328c565b95945050505050565b600082516135b281846020870161328c565b9190910192915050565b634e487b7160e01b600052601160045260246000fd5b60006000198214156135e6576135e66135bc565b5060010190565b8183823760009101908152919050565b600060ff821680613610576136106135bc565b6000190192915050565b600060ff821660ff811415613631576136316135bc565b60010192915050565b6020808252602e908201527f636861696e436f6e6669672e636861696e4164647265737365732e534f4c494460408201526d262cafa9aba0a82fa927aaaa22a960911b606082015260800190565b60006020828403121561369a57600080fd5b81516113c18161305f565b6001600160a01b039384168152919092166020820152901515604082015260600190565b6000602082840312156136db57600080fd5b815180151581146113c157600080fd5b600080604083850312156136fe57600080fd5b505080516020909101519092909150565b60208082526036908201527f4f757470757420746f6b656e20646f6573206e6f74206d6174636820656974686040820152756572206f6620746865207061697220746f6b656e732160501b606082015260800190565b6001600160a01b038381168252604060208084018290528451918401829052600092858201929091906060860190855b818110156137b3578551851683529483019491830191600101613795565b509098975050505050505050565b600081518084526020808501945080840160005b838110156137fa5781516001600160a01b0316875295820195908201906001016137d5565b509495945050505050565b6001600160a01b0384168152606060208201819052600090613829908301856137c1565b828103604084015261383b81856137c1565b9695505050505050565b60006001600160401b0382111561385e5761385e61335f565b5060051b60200190565b6000602080838503121561387b57600080fd5b82516001600160401b0381111561389157600080fd5b8301601f810185136138a257600080fd5b80516138b061343b82613845565b81815260059190911b820183019083810190878311156138cf57600080fd5b928401925b828410156138f65783516138e78161305f565b825292840192908401906138d4565b979650505050505050565b6020808252600690820152653bba37b5b2b760d11b604082015260600190565b6001600160a01b0393841681529183166020830152909116604082015260600190565b60208082526021908201527f43757276654c70546f6b656e50726963654f7261636c654e6f526567697374726040820152607960f81b606082015260800190565b6000602080838503121561399857600080fd5b82516001600160401b038111156139ae57600080fd5b8301601f810185136139bf57600080fd5b80516139cd61343b82613845565b81815260079190911b820183019083810190878311156139ec57600080fd5b928401925b828410156138f65760808489031215613a0a5760008081fd5b613a12613375565b8451613a1d8161305f565b815284860151613a2c8161305f565b81870152604085810151613a3f8161305f565b90820152606085810151908201528252608090930192908401906139f1565b600082821015613a7057613a706135bc565b500390565b634e487b7160e01b600052603160045260246000fdfe42616c616e6365724c696e656172506f6f6c546f6b656e4c697175696461746f72a164736f6c634300080a000a",
    "linkReferences": {}
  },
  "methodIdentifiers": {
    "_getExtensionFunctions()": "89f8132e",
    "_removeRedemptionStrategy(address,string,address)": "6e4f9b99",
    "_setRedemptionStrategies(address[],address[],address[])": "366eda2e",
    "_setRedemptionStrategy(address,address,address)": "d7341acf",
    "acceptOwnership()": "79ba5097",
    "ap()": "3c4f743c",
    "asExtension()": "dc54bc81",
    "getRedemptionStrategies(address,address)": "ed287f3f",
    "getRedemptionStrategy(address,address)": "b6b928fd",
    "hasRedemptionStrategyForTokens(address,address)": "67c5f53d",
    "outputTokensByInputToken(address)": "1bab4b96",
    "owner()": "8da5cb5b",
    "pendingOwner()": "e30c3978",
    "redemptionStrategiesByName(string)": "dee7fe48",
    "redemptionStrategiesByTokens(address,address)": "a700f9e4",
    "renounceOwnership()": "715018a6",
    "transferOwnership(address)": "f2fde38b"
  }
}