{
  "address": "0x244E87B134CFa924DB9e6867a0E7AF50ca3A9e12",
  "abi": [
    {
      "anonymous": false,
      "inputs": [
        {
          "indexed": true,
          "internalType": "address",
          "name": "previousOwner",
          "type": "address"
        },
        {
          "indexed": true,
          "internalType": "address",
          "name": "newOwner",
          "type": "address"
        }
      ],
      "name": "OwnershipTransferStarted",
      "type": "event"
    },
    {
      "anonymous": false,
      "inputs": [
        {
          "indexed": true,
          "internalType": "address",
          "name": "previousOwner",
          "type": "address"
        },
        {
          "indexed": true,
          "internalType": "address",
          "name": "newOwner",
          "type": "address"
        }
      ],
      "name": "OwnershipTransferred",
      "type": "event"
    },
    {
      "inputs": [],
      "name": "_getExtensionFunctions",
      "outputs": [
        {
          "internalType": "bytes4[]",
          "name": "",
          "type": "bytes4[]"
        }
      ],
      "stateMutability": "pure",
      "type": "function"
    },
    {
      "inputs": [
        {
          "internalType": "address",
          "name": "strategyToRemove",
          "type": "address"
        },
        {
          "internalType": "string",
          "name": "name",
          "type": "string"
        },
        {
          "internalType": "contract IERC20Upgradeable",
          "name": "inputToken",
          "type": "address"
        }
      ],
      "name": "_removeRedemptionStrategy",
      "outputs": [],
      "stateMutability": "nonpayable",
      "type": "function"
    },
    {
      "inputs": [
        {
          "internalType": "contract IRedemptionStrategy[]",
          "name": "strategies",
          "type": "address[]"
        },
        {
          "internalType": "contract IERC20Upgradeable[]",
          "name": "inputTokens",
          "type": "address[]"
        },
        {
          "internalType": "contract IERC20Upgradeable[]",
          "name": "outputTokens",
          "type": "address[]"
        }
      ],
      "name": "_setRedemptionStrategies",
      "outputs": [],
      "stateMutability": "nonpayable",
      "type": "function"
    },
    {
      "inputs": [
        {
          "internalType": "contract IRedemptionStrategy",
          "name": "strategy",
          "type": "address"
        },
        {
          "internalType": "contract IERC20Upgradeable",
          "name": "inputToken",
          "type": "address"
        },
        {
          "internalType": "contract IERC20Upgradeable",
          "name": "outputToken",
          "type": "address"
        }
      ],
      "name": "_setRedemptionStrategy",
      "outputs": [],
      "stateMutability": "nonpayable",
      "type": "function"
    },
    {
      "inputs": [],
      "name": "acceptOwnership",
      "outputs": [],
      "stateMutability": "nonpayable",
      "type": "function"
    },
    {
      "inputs": [],
      "name": "ap",
      "outputs": [
        {
          "internalType": "contract AddressesProvider",
          "name": "",
          "type": "address"
        }
      ],
      "stateMutability": "view",
      "type": "function"
    },
    {
      "inputs": [
        {
          "internalType": "contract IERC20Upgradeable",
          "name": "inputToken",
          "type": "address"
        },
        {
          "internalType": "contract IERC20Upgradeable",
          "name": "outputToken",
          "type": "address"
        }
      ],
      "name": "getRedemptionStrategies",
      "outputs": [
        {
          "internalType": "contract IRedemptionStrategy[]",
          "name": "strategies",
          "type": "address[]"
        },
        {
          "internalType": "bytes[]",
          "name": "strategiesData",
          "type": "bytes[]"
        }
      ],
      "stateMutability": "view",
      "type": "function"
    },
    {
      "inputs": [
        {
          "internalType": "contract IERC20Upgradeable",
          "name": "inputToken",
          "type": "address"
        },
        {
          "internalType": "contract IERC20Upgradeable",
          "name": "outputToken",
          "type": "address"
        }
      ],
      "name": "getRedemptionStrategy",
      "outputs": [
        {
          "internalType": "contract IRedemptionStrategy",
          "name": "strategy",
          "type": "address"
        },
        {
          "internalType": "bytes",
          "name": "strategyData",
          "type": "bytes"
        }
      ],
      "stateMutability": "view",
      "type": "function"
    },
    {
      "inputs": [
        {
          "internalType": "contract IERC20Upgradeable",
          "name": "inputToken",
          "type": "address"
        },
        {
          "internalType": "contract IERC20Upgradeable",
          "name": "outputToken",
          "type": "address"
        }
      ],
      "name": "isRedemptionPathSupported",
      "outputs": [
        {
          "internalType": "bool",
          "name": "",
          "type": "bool"
        }
      ],
      "stateMutability": "view",
      "type": "function"
    },
    {
      "inputs": [
        {
          "internalType": "contract IERC20Upgradeable",
          "name": "",
          "type": "address"
        }
      ],
      "name": "outputTokensByInputToken",
      "outputs": [
        {
          "internalType": "contract IERC20Upgradeable",
          "name": "",
          "type": "address"
        }
      ],
      "stateMutability": "view",
      "type": "function"
    },
    {
      "inputs": [],
      "name": "owner",
      "outputs": [
        {
          "internalType": "address",
          "name": "",
          "type": "address"
        }
      ],
      "stateMutability": "view",
      "type": "function"
    },
    {
      "inputs": [],
      "name": "pendingOwner",
      "outputs": [
        {
          "internalType": "address",
          "name": "",
          "type": "address"
        }
      ],
      "stateMutability": "view",
      "type": "function"
    },
    {
      "inputs": [
        {
          "internalType": "string",
          "name": "",
          "type": "string"
        }
      ],
      "name": "redemptionStrategiesByName",
      "outputs": [
        {
          "internalType": "contract IRedemptionStrategy",
          "name": "",
          "type": "address"
        }
      ],
      "stateMutability": "view",
      "type": "function"
    },
    {
      "inputs": [
        {
          "internalType": "contract IERC20Upgradeable",
          "name": "",
          "type": "address"
        },
        {
          "internalType": "contract IERC20Upgradeable",
          "name": "",
          "type": "address"
        }
      ],
      "name": "redemptionStrategiesByTokens",
      "outputs": [
        {
          "internalType": "contract IRedemptionStrategy",
          "name": "",
          "type": "address"
        }
      ],
      "stateMutability": "view",
      "type": "function"
    },
    {
      "inputs": [],
      "name": "renounceOwnership",
      "outputs": [],
      "stateMutability": "nonpayable",
      "type": "function"
    },
    {
      "inputs": [
        {
          "internalType": "address",
          "name": "newOwner",
          "type": "address"
        }
      ],
      "name": "transferOwnership",
      "outputs": [],
      "stateMutability": "nonpayable",
      "type": "function"
    }
  ],
  "transactionHash": "0x9e52fae23d18ae14754126328ee76ed626e08ae53670c6bcc52eb57740bca9f8",
  "args": [],
  "numDeployments": 15,
  "bytecode": {
    "object": "0x60806040523480156200001157600080fd5b506200001d3362000023565b6200009d565b600180546001600160a01b03191690556200004a816200004d602090811b6200115c17901c565b50565b600080546001600160a01b038381166001600160a01b0319831681178455604051919092169283917f8be0079c531659141344cd1fd0a4f28419497f9722a3daafe3b4186f6b6457e09190a35050565b61399880620000ad6000396000f3fe608060405234801561001057600080fd5b50600436106101005760003560e01c8063a700f9e411610097578063dee7fe4811610066578063dee7fe4814610247578063e30c39781461027b578063ed287f3f1461028c578063f2fde38b146102ad57600080fd5b8063a700f9e4146101bc578063b29e79af146101f0578063b6b928fd14610213578063d7341acf1461023457600080fd5b8063715018a6116100d3578063715018a61461018657806379ba50971461018e57806389f8132e146101965780638da5cb5b146101ab57600080fd5b80631bab4b9614610105578063366eda2e1461014b5780633c4f743c146101605780636e4f9b9914610173575b600080fd5b61012e610113366004612fef565b6007602052600090815260409020546001600160a01b031681565b6040516001600160a01b0390911681526020015b60405180910390f35b61015e610159366004613050565b6102c0565b005b60025461012e906001600160a01b031681565b61015e6101813660046130e9565b6103b3565b61015e61045d565b61015e6104ad565b61019e610527565b6040516101429190613180565b6000546001600160a01b031661012e565b61012e6101ca3660046131ce565b60066020908152600092835260408084209091529082529020546001600160a01b031681565b6102036101fe3660046131ce565b61072c565b6040519015158152602001610142565b6102266102213660046131ce565b610800565b604051610142929190613263565b61015e61024236600461328f565b610c5a565b61012e61025536600461336f565b80516020818301810180516005825292820191909301209152546001600160a01b031681565b6001546001600160a01b031661012e565b61029f61029a3660046131ce565b610db1565b6040516101429291906133ee565b61015e6102bb366004612fef565b6110eb565b6102c86111ac565b84831480156102d657508281145b6103155760405162461bcd60e51b815260206004820152600b60248201526a10b0b93930bcb9903632b760a91b60448201526064015b60405180910390fd5b60005b858110156103aa576103988787838181106103355761033561348f565b905060200201602081019061034a9190612fef565b86868481811061035c5761035c61348f565b90506020020160208101906103719190612fef565b8585858181106103835761038361348f565b90506020020160208101906102429190612fef565b806103a2816134bb565b915050610318565b50505050505050565b6103bb6111ac565b6001600160a01b038082166000908152600760205260408082205490519216916005906103eb90879087906134d6565b908152604080516020928190038301902080546001600160a01b03199081166001600160a01b039586161790915585841660008181526006855283812095871681529484528285208054831690558452600790925290912080549091169055610455600386611208565b505050505050565b6104656111ac565b60405162461bcd60e51b815260206004820152601e60248201527f72656e6f756e6365206f776e657273686970206e6f7420616c6c6f7765640000604482015260640161030c565b60015433906001600160a01b0316811461051b5760405162461bcd60e51b815260206004820152602960248201527f4f776e61626c6532537465703a2063616c6c6572206973206e6f7420746865206044820152683732bb9037bbb732b960b91b606482015260840161030c565b61052481611224565b50565b60408051600680825260e0820190925260609190600090826020820160c08036833701905050905063ed287f3f60e01b81610561846134e6565b93508360ff16815181106105775761057761348f565b6001600160e01b03199092166020928302919091019091015263b6b928fd60e01b816105a2846134e6565b93508360ff16815181106105b8576105b861348f565b6001600160e01b03199092166020928302919091019091015263b29e79af60e01b816105e3846134e6565b93508360ff16815181106105f9576105f961348f565b6001600160e01b03199092166020928302919091019091015263d7341acf60e01b81610624846134e6565b93508360ff168151811061063a5761063a61348f565b6001600160e01b031990921660209283029190910190910152631b376d1760e11b81610665846134e6565b93508360ff168151811061067b5761067b61348f565b6001600160e01b031990921660209283029190910190910152636e4f9b9960e01b816106a6846134e6565b93508360ff16815181106106bc576106bc61348f565b6001600160e01b03199092166020928302919091019091015260ff8216156107265760405162461bcd60e51b815260206004820152601c60248201527f7573652074686520636f7272656374206172726179206c656e67746800000000604482015260640161030c565b92915050565b6000816001600160a01b0316836001600160a01b0316141561075057506000610726565b8260005b836001600160a01b0316826001600160a01b0316146107e1576001600160a01b038083166000908152600760209081526040808320548985168452600683528184208986168552909252909120549082169116806107b9576000945050505050610726565b81935082806107c7906134bb565b93505082600a14156107da5750506107e1565b5050610754565b836001600160a01b0316826001600160a01b0316149250505092915050565b6001600160a01b0380831660009081526006602090815260408083208585168452825291829020548251808401909352601583527429b7b634b2363ca9bbb0b82634b8bab4b230ba37b960591b918301919091529091169060609061086690839061123d565b1561087c576108758484611288565b9050610c53565b6108bb826040518060400160405280601881526020017f536f6c69646c794c70546f6b656e4c697175696461746f72000000000000000081525061123d565b156108ca57610875848461177a565b610909826040518060400160405280601981526020017f556e697377617056324c697175696461746f7246756e6465720000000000000081525061123d565b156109185761087584846119a6565b61094f826040518060400160405280601581526020017420b633b2b13930a9bbb0b82634b8bab4b230ba37b960591b81525061123d565b8061098d575061098d826040518060400160405280601681526020017523b0b6b6b0a6382a37b5b2b72634b8bab4b230ba37b960511b81525061123d565b1561099c576108758484611a4e565b6109d482604051806040016040528060168152602001752130b630b731b2b929bbb0b82634b8bab4b230ba37b960511b81525061123d565b80610a195750610a19826040518060400160405280601981526020017f42616c616e6365724c70546f6b656e4c697175696461746f720000000000000081525061123d565b15610a28576108758484611b1a565b610a67826040518060400160405280601881526020017f556e69737761704c70546f6b656e4c697175696461746f72000000000000000081525061123d565b80610aa35750610aa3826040518060400160405280601481526020017323b2b630ba37a3aab734a634b8bab4b230ba37b960611b81525061123d565b15610ab2576108758484611b36565b610af1826040518060400160405280601781526020017f536164646c654c70546f6b656e4c697175696461746f7200000000000000000081525061123d565b15610b00576108758484611e69565b610b3f826040518060400160405280602081526020017f43757276654c70546f6b656e4c697175696461746f724e6f526567697374727981525061123d565b15610b4e576108758484612061565b610b83826040518060400160405280601381526020017221bab93b32a9bbb0b82634b8bab4b230ba37b960691b81525061123d565b15610b92576108758484612238565b610bca82604051806040016040528060168152602001752530b93b34b9a634b8bab4b230ba37b9233ab73232b960511b81525061123d565b15610bd957610875848461241c565b610c1082604051806040016040528060158152602001742c2137b6b12634b8bab4b230ba37b9233ab73232b960591b81525061123d565b15610c1f5761087584846125b4565b610c418260405180606001604052806021815260200161396b6021913961123d565b15610c5357610c508484612746565b90505b9250929050565b610c626111ac565b6000836001600160a01b03166306fdde036040518163ffffffff1660e01b8152600401600060405180830381865afa158015610ca2573d6000803e3d6000fd5b505050506040513d6000823e601f3d908101601f19168201604052610cca9190810190613503565b90506000600582604051610cde9190613579565b9081526040805160209281900383018120546001600160a01b0388811660009081526006865284812089831682529095529290932080546001600160a01b031916898416179055911691508590600590610d39908590613579565b90815260405190819003602001902080546001600160a01b03929092166001600160a01b0319909216919091179055610d73600382611208565b50610d7f600386612ac6565b5050506001600160a01b03918216600090815260076020526040902080546001600160a01b0319169190921617905550565b60408051600a80825261016082019092526060918291859185916000916020820161014080368337505060408051600a80825261016082019092529293506000929150602082015b6060815260200190600190039081610df957505060408051600a808252610160820190925291925060009190602082016101408036833701905050905060005b846001600160a01b0316866001600160a01b031614610f9b576001600160a01b03808716600090815260076020526040812054909116905b8351811015610ec457838181518110610e8c57610e8c61348f565b60200260200101516001600160a01b0316826001600160a01b03161415610eb257610ec4565b80610ebc816134bb565b915050610e71565b50600080610ed28984610800565b90925090506001600160a01b038216610eed57505050610f9b565b81878581518110610f0057610f0061348f565b60200260200101906001600160a01b031690816001600160a01b03168152505080868581518110610f3357610f3361348f565b602002602001018190525082858581518110610f5157610f5161348f565b60200260200101906001600160a01b031690816001600160a01b0316815250508298508380610f7f906134bb565b94505083600a1415610f9357505050610f9b565b505050610e39565b806001600160401b03811115610fb357610fb36132da565b604051908082528060200260200182016040528015610fdc578160200160208202803683370190505b509750806001600160401b03811115610ff757610ff76132da565b60405190808252806020026020018201604052801561102a57816020015b60608152602001906001900390816110155790505b50965060005b818160ff1610156110dd57848160ff16815181106110505761105061348f565b6020026020010151898260ff168151811061106d5761106d61348f565b60200260200101906001600160a01b031690816001600160a01b031681525050838160ff16815181106110a2576110a261348f565b6020026020010151888260ff16815181106110bf576110bf61348f565b602002602001018190525080806110d590613595565b915050611030565b505050505050509250929050565b6110f36111ac565b600180546001600160a01b0383166001600160a01b031990911681179091556111246000546001600160a01b031690565b6001600160a01b03167f38d16b8cac22d99fc7c124b9cd0de2d3fa1faef420bfe791d8c362d765e2270060405160405180910390a350565b600080546001600160a01b038381166001600160a01b0319831681178455604051919092169283917f8be0079c531659141344cd1fd0a4f28419497f9722a3daafe3b4186f6b6457e09190a35050565b6000546001600160a01b031633146112065760405162461bcd60e51b815260206004820181905260248201527f4f776e61626c653a2063616c6c6572206973206e6f7420746865206f776e6572604482015260640161030c565b565b600061121d836001600160a01b038416612adb565b9392505050565b600180546001600160a01b03191690556105248161115c565b60006001600160a01b0383161580159061121d57506005826040516112629190613579565b908152604051908190036020019020546001600160a01b03848116911614905092915050565b60025460405163bf40fac160e01b815260206004820152601360248201527229a7a624a2262cafa9aba0a82fa927aaaa22a960691b60448201526060916000916001600160a01b039091169063bf40fac190606401602060405180830381865afa1580156112fa573d6000803e3d6000fd5b505050506040513d601f19601f8201168201806040525081019061131e91906135b5565b60405163260f701f60e11b815290915083906000906001600160a01b03841690634c1ee03e90611356908990869086906004016135d2565b602060405180830381865afa158015611373573d6000803e3d6000fd5b505050506040513d601f19601f8201168201806040525081019061139791906135b5565b90506000836001600160a01b0316634c1ee03e888560016040518463ffffffff1660e01b81526004016113cc939291906135d2565b602060405180830381865afa1580156113e9573d6000803e3d6000fd5b505050506040513d601f19601f8201168201806040525081019061140d91906135b5565b60405163e5e31b1360e01b81526001600160a01b0380831660048301529192509085169063e5e31b1390602401602060405180830381865afa158015611457573d6000803e3d6000fd5b505050506040513d601f19601f8201168201806040525081019061147b91906135f6565b806114eb575060405163e5e31b1360e01b81526001600160a01b03838116600483015285169063e5e31b1390602401602060405180830381865afa1580156114c7573d6000803e3d6000fd5b505050506040513d601f19601f820116820180604052508101906114eb91906135f6565b6115435760405162461bcd60e51b8152602060048201526024808201527f496e76616c696420536f6c69646c794c697175696461746f722073776170207060448201526330ba341760e11b606482015260840161030c565b60405163e5e31b1360e01b81526001600160a01b0382811660048301526000919086169063e5e31b1390602401602060405180830381865afa15801561158d573d6000803e3d6000fd5b505050506040513d601f19601f820116820180604052508101906115b191906135f6565b6115bd57506000611749565b60405163e5e31b1360e01b81526001600160a01b03848116600483015286169063e5e31b1390602401602060405180830381865afa158015611603573d6000803e3d6000fd5b505050506040513d601f19601f8201168201806040525081019061162791906135f6565b61163357506001611749565b600080866001600160a01b0316635e60dab58b8860016040518463ffffffff1660e01b8152600401611667939291906135d2565b6040805180830381865afa158015611683573d6000803e3d6000fd5b505050506040513d601f19601f820116820180604052508101906116a79190613618565b91509150600080886001600160a01b0316635e60dab58d8a60006040518463ffffffff1660e01b81526004016116df939291906135d2565b6040805180830381865afa1580156116fb573d6000803e3d6000fd5b505050506040513d601f19601f8201168201806040525081019061171f9190613618565b91509150818411801561173157508083115b1561173f5760019450611744565b600094505b505050505b84878260405160200161175e939291906135d2565b6040516020818303038152906040529550505050505092915050565b60606000839050806001600160a01b0316630dfe16816040518163ffffffff1660e01b8152600401602060405180830381865afa1580156117bf573d6000803e3d6000fd5b505050506040513d601f19601f820116820180604052508101906117e391906135b5565b6001600160a01b0316836001600160a01b031614806118745750806001600160a01b031663d21220a76040518163ffffffff1660e01b8152600401602060405180830381865afa15801561183b573d6000803e3d6000fd5b505050506040513d601f19601f8201168201806040525081019061185f91906135b5565b6001600160a01b0316836001600160a01b0316145b6118df5760405162461bcd60e51b815260206004820152603660248201527f4f757470757420746f6b656e20646f6573206e6f74206d6174636820656974686044820152756572206f6620746865207061697220746f6b656e732160501b606482015260840161030c565b60025460405163bf40fac160e01b815260206004820152601360248201527229a7a624a2262cafa9aba0a82fa927aaaa22a960691b60448201526001600160a01b039091169063bf40fac190606401602060405180830381865afa15801561194b573d6000803e3d6000fd5b505050506040513d601f19601f8201168201806040525081019061196f91906135b5565b604080516001600160a01b039283166020820152918516908201526060015b60405160208183030381529060405291505092915050565b6040805160028082526060808301845292600092919060208301908036833701905050905083816000815181106119df576119df61348f565b60200260200101906001600160a01b031690816001600160a01b0316815250508281600181518110611a1357611a1361348f565b60200260200101906001600160a01b031690816001600160a01b031681525050611a3c84612bce565b8160405160200161198e92919061363c565b60025460405163bf40fac160e01b815260206004820152601360248201527220a623a2a12920afa9aba0a82fa927aaaa22a960691b604482015260609183916001600160a01b039091169063bf40fac190606401602060405180830381865afa158015611abf573d6000803e3d6000fd5b505050506040513d601f19601f82011682018060405250810190611ae391906135b5565b604080516001600160a01b03938416602082015292909116908201526060015b604051602081830303815290604052905092915050565b604080516001600160a01b038316602082015260609101611b03565b606060008390506000816001600160a01b0316630dfe16816040518163ffffffff1660e01b8152600401602060405180830381865afa158015611b7d573d6000803e3d6000fd5b505050506040513d601f19601f82011682018060405250810190611ba191906135b5565b90506000826001600160a01b031663d21220a76040518163ffffffff1660e01b8152600401602060405180830381865afa158015611be3573d6000803e3d6000fd5b505050506040513d601f19601f82011682018060405250810190611c0791906135b5565b90506000836001600160a01b0316630dfe16816040518163ffffffff1660e01b8152600401602060405180830381865afa158015611c49573d6000803e3d6000fd5b505050506040513d601f19601f82011682018060405250810190611c6d91906135b5565b6001600160a01b0316866001600160a01b03161490506000846001600160a01b031663d21220a76040518163ffffffff1660e01b8152600401602060405180830381865afa158015611cc3573d6000803e3d6000fd5b505050506040513d601f19601f82011682018060405250810190611ce791906135b5565b6001600160a01b0316876001600160a01b03161490508180611d065750805b611d705760405162461bcd60e51b815260206004820152603560248201527f4f757470757420746f6b656e20646f6573206e6f74206d6174636820656974686044820152746572206f6620746865207061697220746f6b656e7360581b606482015260840161030c565b60408051600280825260608201835260009260208301908036833701905050905082611d9c5784611d9e565b835b81600081518110611db157611db161348f565b60200260200101906001600160a01b031690816001600160a01b03168152505081611ddc5783611dde565b845b81600181518110611df157611df161348f565b6001600160a01b039290921660209283029190910182015260408051600081529182019052611e1f8a612bce565b84611e2a5782611e2c565b815b84611e375783611e39565b825b604051602001611e4b939291906136dc565b60405160208183030381529060405297505050505050505092915050565b60025460405163bf40fac160e01b8152602060048201526013602482015272536164646c654c7050726963654f7261636c6560681b60448201526060916000916001600160a01b039091169063bf40fac190606401602060405180830381865afa158015611edb573d6000803e3d6000fd5b505050506040513d601f19601f82011682018060405250810190611eff91906135b5565b60405163195b70b960e21b81526001600160a01b03868116600483015291925060009183169063656dc2e490602401600060405180830381865afa158015611f4b573d6000803e3d6000fd5b505050506040513d6000823e601f3d908101601f19168201604052611f73919081019061373f565b60025460405163bf40fac160e01b81529192506000916001600160a01b039091169063bf40fac190611fa7906004016137d8565b602060405180830381865afa158015611fc4573d6000803e3d6000fd5b505050506040513d601f19601f82011682018060405250810190611fe891906135b5565b90506000611ff68387612c5e565b9050806001600160a01b038116158061202b575073eeeeeeeeeeeeeeeeeeeeeeeeeeeeeeeeeeeeeeee6001600160a01b038316145b156120335750815b604080516001600160a01b03808516602083015280881692820192909252908416606082015260800161175e565b60025460405163bf40fac160e01b81526060916000916001600160a01b039091169063bf40fac190612095906004016137f8565b602060405180830381865afa1580156120b2573d6000803e3d6000fd5b505050506040513d601f19601f820116820180604052508101906120d691906135b5565b60405163195b70b960e21b81526001600160a01b03868116600483015291925060009183169063656dc2e490602401600060405180830381865afa158015612122573d6000803e3d6000fd5b505050506040513d6000823e601f3d908101601f1916820160405261214a919081019061373f565b60025460405163bf40fac160e01b81529192506000916001600160a01b039091169063bf40fac19061217e906004016137d8565b602060405180830381865afa15801561219b573d6000803e3d6000fd5b505050506040513d601f19601f820116820180604052508101906121bf91906135b5565b905060006121cd8387612c5e565b9050806001600160a01b0381161580612202575073eeeeeeeeeeeeeeeeeeeeeeeeeeeeeeeeeeeeeeee6001600160a01b038316145b1561220a5750815b604080516001600160a01b03808516602083015280861692820192909252908616606082015260800161175e565b60025460405163bf40fac160e01b81526060916000916001600160a01b039091169063bf40fac19061226c906004016137f8565b602060405180830381865afa158015612289573d6000803e3d6000fd5b505050506040513d601f19601f820116820180604052508101906122ad91906135b5565b60025460405163bf40fac160e01b815260206004820152602360248201527f437572766556324c70546f6b656e50726963654f7261636c654e6f526567697360448201526274727960e81b60648201529192506000916001600160a01b039091169063bf40fac190608401602060405180830381865afa158015612335573d6000803e3d6000fd5b505050506040513d601f19601f8201168201806040525081019061235991906135b5565b60025460405163bf40fac160e01b81529192506000916001600160a01b039091169063bf40fac19061238d906004016137d8565b602060405180830381865afa1580156123aa573d6000803e3d6000fd5b505050506040513d601f19601f820116820180604052508101906123ce91906135b5565b604080516001600160a01b039586166020820152938516848201529684166060840152948316608083015250921660a0808401919091528351808403909101815260c0909201909252919050565b60606000600260009054906101000a90046001600160a01b03166001600160a01b03166377d792196040518163ffffffff1660e01b8152600401600060405180830381865afa158015612473573d6000803e3d6000fd5b505050506040513d6000823e601f3d908101601f1916820160405261249b9190810190613839565b905060005b81518110156125ac5760008282815181106124bd576124bd61348f565b60200260200101519050856001600160a01b031681600001516001600160a01b0316141561252957805160408083015160609384015182516001600160a01b039485166020820152939091168383015282840152805180830390930183526080909101905292506125ac565b856001600160a01b031681602001516001600160a01b0316141561259957806020015181604001518260600151604051602001612587939291906001600160a01b039384168152919092166020820152604081019190915260600190565b60405160208183030381529060405293505b50806125a4816134bb565b9150506124a0565b505092915050565b606046606114156126e45773e45589fbad3a1fb90f5b2a8a3e8958a8bab5f768734f1885d25ef219d3d4fa064809d6d4985fab9a0b738870f7102f1dcb1c35b01af10f1baf1b00ad680573161fbe0943af4a39a50262026a81a243b635982d73d816eb4660615bbf080ddf425f28ea4af30d04d56001600160a01b03881685141561266657818288896040516020016126509493929190613912565b60405160208183030381529060405295506126da565b836001600160a01b0316886001600160a01b0316141561269757878289876040516020016126509493929190613912565b826001600160a01b0316886001600160a01b031614156126da57878189876040516020016126c89493929190613912565b60405160208183030381529060405295505b5050505050610726565b5050604080516001600160a01b0392909216602083015273af16cb45b8149da403af41c63abfebfbcd16264b8282015273522348779dcb2911539e76a1042aa922f9c47ee3606080840191909152815180840390910181526080909201905290565b60025460405163959fc09760e01b81526001600160a01b038481166004830152838116602483015260609260009291169063959fc09790604401602060405180830381865afa15801561279d573d6000803e3d6000fd5b505050506040513d601f19601f820116820180604052508101906127c191906135b5565b90506001600160a01b038116612aa15760025460405163bf40fac160e01b81526000916001600160a01b03169063bf40fac190612800906004016137d8565b602060405180830381865afa15801561281d573d6000803e3d6000fd5b505050506040513d601f19601f8201168201806040525081019061284191906135b5565b9050733a58a54c066fdc0f2d55fc9c89f0415c92ebf3c473fa68fb4628dff1028cfec22b4162fccd0d45efb673513cdee00251f39de280d9e5f771a6eafebcc88e73e2aa7db6da1dae97c5f5c6914d285fbfcc32a12873e78b25c06db117fdf8f98583cdaaa6c92b79e9176001600160a01b038a81169087161480156128d85750846001600160a01b0316896001600160a01b0316145b806129105750846001600160a01b03168a6001600160a01b03161480156129105750856001600160a01b0316896001600160a01b0316145b1561292d57738159462d255c1d24915cb51ec361f700174cd99496505b856001600160a01b03168a6001600160a01b031614801561295f5750836001600160a01b0316896001600160a01b0316145b806129975750836001600160a01b03168a6001600160a01b03161480156129975750856001600160a01b0316896001600160a01b0316145b156129b45773b20fc01d21a50d2c734c4a1262b4404d41fa7bf096505b816001600160a01b03168a6001600160a01b03161480156129e65750826001600160a01b0316896001600160a01b0316145b80612a1e5750826001600160a01b03168a6001600160a01b0316148015612a1e5750816001600160a01b0316896001600160a01b0316145b15612a27578296505b806001600160a01b03168a6001600160a01b0316148015612a595750836001600160a01b0316896001600160a01b0316145b80612a915750836001600160a01b03168a6001600160a01b0316148015612a915750806001600160a01b0316896001600160a01b0316145b15612a9a578096505b5050505050505b604080516001600160a01b03808416602083015285169181019190915260600161198e565b600061121d836001600160a01b038416612f8b565b60008181526001830160205260408120548015612bc4576000612aff60018361393d565b8554909150600090612b139060019061393d565b9050818114612b78576000866000018281548110612b3357612b3361348f565b9060005260206000200154905080876000018481548110612b5657612b5661348f565b6000918252602080832090910192909255918252600188019052604090208390555b8554869080612b8957612b89613954565b600190038181906000526020600020016000905590558560010160008681526020019081526020016000206000905560019350505050610726565b6000915050610726565b60025460405163bf40fac160e01b815260206004820152601260248201527124aab734b9bbb0b82b192937baba32b9181960711b60448201526000916001600160a01b03169063bf40fac190606401602060405180830381865afa158015612c3a573d6000803e3d6000fd5b505050506040513d601f19601f8201168201806040525081019061072691906135b5565b60025460405163bf40fac160e01b815260009182916001600160a01b039091169063bf40fac190612c91906004016137d8565b602060405180830381865afa158015612cae573d6000803e3d6000fd5b505050506040513d601f19601f82011682018060405250810190612cd291906135b5565b60025460405163bf40fac160e01b815260206004820152600b60248201526a39ba30b13632aa37b5b2b760a91b60448201529192506000916001600160a01b039091169063bf40fac190606401602060405180830381865afa158015612d3c573d6000803e3d6000fd5b505050506040513d601f19601f82011682018060405250810190612d6091906135b5565b60025460405163bf40fac160e01b81526020600482015260096024820152683ba12a21aa37b5b2b760b91b60448201529192506000916001600160a01b039091169063bf40fac190606401602060405180830381865afa158015612dc8573d6000803e3d6000fd5b505050506040513d601f19601f82011682018060405250810190612dec91906135b5565b905060005b8651811015612e4b57856001600160a01b0316878281518110612e1657612e1661348f565b60200260200101516001600160a01b03161415612e395785945050505050610726565b80612e43816134bb565b915050612df1565b5060005b8651811015612ea957836001600160a01b0316878281518110612e7457612e7461348f565b60200260200101516001600160a01b03161415612e975783945050505050610726565b80612ea1816134bb565b915050612e4f565b5060005b8651811015612f0757826001600160a01b0316878281518110612ed257612ed261348f565b60200260200101516001600160a01b03161415612ef55782945050505050610726565b80612eff816134bb565b915050612ead565b5060005b8651811015612f6457816001600160a01b0316878281518110612f3057612f3061348f565b60200260200101516001600160a01b03161415612f5257509250610726915050565b80612f5c816134bb565b915050612f0b565b5085600081518110612f7857612f7861348f565b6020026020010151935050505092915050565b6000818152600183016020526040812054612fd257508154600181810184556000848152602080822090930184905584548482528286019093526040902091909155610726565b506000610726565b6001600160a01b038116811461052457600080fd5b60006020828403121561300157600080fd5b813561121d81612fda565b60008083601f84011261301e57600080fd5b5081356001600160401b0381111561303557600080fd5b6020830191508360208260051b8501011115610c5357600080fd5b6000806000806000806060878903121561306957600080fd5b86356001600160401b038082111561308057600080fd5b61308c8a838b0161300c565b909850965060208901359150808211156130a557600080fd5b6130b18a838b0161300c565b909650945060408901359150808211156130ca57600080fd5b506130d789828a0161300c565b979a9699509497509295939492505050565b600080600080606085870312156130ff57600080fd5b843561310a81612fda565b935060208501356001600160401b038082111561312657600080fd5b818701915087601f83011261313a57600080fd5b81358181111561314957600080fd5b88602082850101111561315b57600080fd5b602083019550809450505050604085013561317581612fda565b939692955090935050565b6020808252825182820181905260009190848201906040850190845b818110156131c25783516001600160e01b0319168352928401929184019160010161319c565b50909695505050505050565b600080604083850312156131e157600080fd5b82356131ec81612fda565b915060208301356131fc81612fda565b809150509250929050565b60005b8381101561322257818101518382015260200161320a565b83811115613231576000848401525b50505050565b6000815180845261324f816020860160208601613207565b601f01601f19169290920160200192915050565b6001600160a01b038316815260406020820181905260009061328790830184613237565b949350505050565b6000806000606084860312156132a457600080fd5b83356132af81612fda565b925060208401356132bf81612fda565b915060408401356132cf81612fda565b809150509250925092565b634e487b7160e01b600052604160045260246000fd5b604051608081016001600160401b0381118282101715613312576133126132da565b60405290565b604051601f8201601f191681016001600160401b0381118282101715613340576133406132da565b604052919050565b60006001600160401b03821115613361576133616132da565b50601f01601f191660200190565b60006020828403121561338157600080fd5b81356001600160401b0381111561339757600080fd5b8201601f810184136133a857600080fd5b80356133bb6133b682613348565b613318565b8181528560208385010111156133d057600080fd5b81602084016020830137600091810160200191909152949350505050565b604080825283519082018190526000906020906060840190828701845b828110156134305781516001600160a01b03168452928401929084019060010161340b565b50505083810382850152845180825282820190600581901b8301840187850160005b8381101561348057601f1986840301855261346e838351613237565b94870194925090860190600101613452565b50909998505050505050505050565b634e487b7160e01b600052603260045260246000fd5b634e487b7160e01b600052601160045260246000fd5b60006000198214156134cf576134cf6134a5565b5060010190565b8183823760009101908152919050565b600060ff8216806134f9576134f96134a5565b6000190192915050565b60006020828403121561351557600080fd5b81516001600160401b0381111561352b57600080fd5b8201601f8101841361353c57600080fd5b805161354a6133b682613348565b81815285602083850101111561355f57600080fd5b613570826020830160208601613207565b95945050505050565b6000825161358b818460208701613207565b9190910192915050565b600060ff821660ff8114156135ac576135ac6134a5565b60010192915050565b6000602082840312156135c757600080fd5b815161121d81612fda565b6001600160a01b039384168152919092166020820152901515604082015260600190565b60006020828403121561360857600080fd5b8151801515811461121d57600080fd5b6000806040838503121561362b57600080fd5b505080516020909101519092909150565b6001600160a01b038381168252604060208084018290528451918401829052600092858201929091906060860190855b8181101561368a57855185168352948301949183019160010161366c565b509098975050505050505050565b600081518084526020808501945080840160005b838110156136d15781516001600160a01b0316875295820195908201906001016136ac565b509495945050505050565b6001600160a01b038416815260606020820181905260009061370090830185613698565b82810360408401526137128185613698565b9695505050505050565b60006001600160401b03821115613735576137356132da565b5060051b60200190565b6000602080838503121561375257600080fd5b82516001600160401b0381111561376857600080fd5b8301601f8101851361377957600080fd5b80516137876133b68261371c565b81815260059190911b820183019083810190878311156137a657600080fd5b928401925b828410156137cd5783516137be81612fda565b825292840192908401906137ab565b979650505050505050565b6020808252600690820152653bba37b5b2b760d11b604082015260600190565b60208082526021908201527f43757276654c70546f6b656e50726963654f7261636c654e6f526567697374726040820152607960f81b606082015260800190565b6000602080838503121561384c57600080fd5b82516001600160401b0381111561386257600080fd5b8301601f8101851361387357600080fd5b80516138816133b68261371c565b81815260079190911b820183019083810190878311156138a057600080fd5b928401925b828410156137cd57608084890312156138be5760008081fd5b6138c66132f0565b84516138d181612fda565b8152848601516138e081612fda565b818701526040858101516138f381612fda565b90820152606085810151908201528252608090930192908401906138a5565b6001600160a01b03948516815292841660208401529083166040830152909116606082015260800190565b60008282101561394f5761394f6134a5565b500390565b634e487b7160e01b600052603160045260246000fdfe42616c616e6365724c696e656172506f6f6c546f6b656e4c697175696461746f72a164736f6c634300080a000a",
    "linkReferences": {}
  },
  "methodIdentifiers": {
    "_getExtensionFunctions()": "89f8132e",
    "_removeRedemptionStrategy(address,string,address)": "6e4f9b99",
    "_setRedemptionStrategies(address[],address[],address[])": "366eda2e",
    "_setRedemptionStrategy(address,address,address)": "d7341acf",
    "acceptOwnership()": "79ba5097",
    "ap()": "3c4f743c",
    "getRedemptionStrategies(address,address)": "ed287f3f",
    "getRedemptionStrategy(address,address)": "b6b928fd",
    "isRedemptionPathSupported(address,address)": "b29e79af",
    "outputTokensByInputToken(address)": "1bab4b96",
    "owner()": "8da5cb5b",
    "pendingOwner()": "e30c3978",
    "redemptionStrategiesByName(string)": "dee7fe48",
    "redemptionStrategiesByTokens(address,address)": "a700f9e4",
    "renounceOwnership()": "715018a6",
    "transferOwnership(address)": "f2fde38b"
  }
}