{
  "address": "0x823E0B28f1014eAec993081230Fc9Cb19589B218",
  "abi": [
    {
      "anonymous": false,
      "inputs": [
        {
          "indexed": true,
          "internalType": "address",
          "name": "previousOwner",
          "type": "address"
        },
        {
          "indexed": true,
          "internalType": "address",
          "name": "newOwner",
          "type": "address"
        }
      ],
      "name": "OwnershipTransferStarted",
      "type": "event"
    },
    {
      "anonymous": false,
      "inputs": [
        {
          "indexed": true,
          "internalType": "address",
          "name": "previousOwner",
          "type": "address"
        },
        {
          "indexed": true,
          "internalType": "address",
          "name": "newOwner",
          "type": "address"
        }
      ],
      "name": "OwnershipTransferred",
      "type": "event"
    },
    {
      "inputs": [],
      "name": "_getExtensionFunctions",
      "outputs": [
        {
          "internalType": "bytes4[]",
          "name": "",
          "type": "bytes4[]"
        }
      ],
      "stateMutability": "pure",
      "type": "function"
    },
    {
      "inputs": [],
      "name": "acceptOwnership",
      "outputs": [],
      "stateMutability": "nonpayable",
      "type": "function"
    },
    {
      "inputs": [],
      "name": "ap",
      "outputs": [
        {
          "internalType": "contract AddressesProvider",
          "name": "",
          "type": "address"
        }
      ],
      "stateMutability": "view",
      "type": "function"
    },
    {
      "inputs": [
        {
          "internalType": "contract IERC20Upgradeable",
          "name": "inputToken",
          "type": "address"
        },
        {
          "internalType": "contract IERC20Upgradeable",
          "name": "outputToken",
          "type": "address"
        }
      ],
      "name": "getRedemptionStrategies",
      "outputs": [
        {
          "internalType": "contract IRedemptionStrategy[]",
          "name": "strategies",
          "type": "address[]"
        },
        {
          "internalType": "bytes[]",
          "name": "strategiesData",
          "type": "bytes[]"
        }
      ],
      "stateMutability": "view",
      "type": "function"
    },
    {
      "inputs": [
        {
          "internalType": "contract IERC20Upgradeable",
          "name": "inputToken",
          "type": "address"
        },
        {
          "internalType": "contract IERC20Upgradeable",
          "name": "outputToken",
          "type": "address"
        }
      ],
      "name": "getRedemptionStrategy",
      "outputs": [
        {
          "internalType": "contract IRedemptionStrategy",
          "name": "strategy",
          "type": "address"
        },
        {
          "internalType": "bytes",
          "name": "strategyData",
          "type": "bytes"
        }
      ],
      "stateMutability": "view",
      "type": "function"
    },
    {
      "inputs": [
        {
          "internalType": "contract IERC20Upgradeable",
          "name": "inputToken",
          "type": "address"
        },
        {
          "internalType": "contract IERC20Upgradeable",
          "name": "outputToken",
          "type": "address"
        }
      ],
      "name": "hasRedemptionStrategyForTokens",
      "outputs": [
        {
          "internalType": "bool",
          "name": "",
          "type": "bool"
        }
      ],
      "stateMutability": "view",
      "type": "function"
    },
    {
      "inputs": [
        {
          "internalType": "contract IERC20Upgradeable",
          "name": "",
          "type": "address"
        }
      ],
      "name": "outputTokensByInputToken",
      "outputs": [
        {
          "internalType": "contract IERC20Upgradeable",
          "name": "",
          "type": "address"
        }
      ],
      "stateMutability": "view",
      "type": "function"
    },
    {
      "inputs": [],
      "name": "owner",
      "outputs": [
        {
          "internalType": "address",
          "name": "",
          "type": "address"
        }
      ],
      "stateMutability": "view",
      "type": "function"
    },
    {
      "inputs": [],
      "name": "pendingOwner",
      "outputs": [
        {
          "internalType": "address",
          "name": "",
          "type": "address"
        }
      ],
      "stateMutability": "view",
      "type": "function"
    },
    {
      "inputs": [
        {
          "internalType": "string",
          "name": "",
          "type": "string"
        }
      ],
      "name": "redemptionStrategiesByName",
      "outputs": [
        {
          "internalType": "contract IRedemptionStrategy",
          "name": "",
          "type": "address"
        }
      ],
      "stateMutability": "view",
      "type": "function"
    },
    {
      "inputs": [
        {
          "internalType": "contract IERC20Upgradeable",
          "name": "",
          "type": "address"
        },
        {
          "internalType": "contract IERC20Upgradeable",
          "name": "",
          "type": "address"
        }
      ],
      "name": "redemptionStrategiesByTokens",
      "outputs": [
        {
          "internalType": "contract IRedemptionStrategy",
          "name": "",
          "type": "address"
        }
      ],
      "stateMutability": "view",
      "type": "function"
    },
    {
      "inputs": [],
      "name": "renounceOwnership",
      "outputs": [],
      "stateMutability": "nonpayable",
      "type": "function"
    },
    {
      "inputs": [
        {
          "internalType": "address",
          "name": "newOwner",
          "type": "address"
        }
      ],
      "name": "transferOwnership",
      "outputs": [],
      "stateMutability": "nonpayable",
      "type": "function"
    }
  ],
  "transactionHash": "0x61007154460c4ec45d55682b1868d761c44949bbb1b19709b454efa36466aeec",
  "args": [],
  "numDeployments": 3,
  "bytecode": {
    "object": "0x60806040523480156200001157600080fd5b506200001d3362000023565b6200009d565b600180546001600160a01b03191690556200004a816200004d602090811b62000c5a17901c565b50565b600080546001600160a01b038381166001600160a01b0319831681178455604051919092169283917f8be0079c531659141344cd1fd0a4f28419497f9722a3daafe3b4186f6b6457e09190a35050565b612e1e80620000ad6000396000f3fe608060405234801561001057600080fd5b50600436106100cf5760003560e01c80638da5cb5b1161008c578063dee7fe4811610066578063dee7fe48146101dd578063e30c397814610211578063ed287f3f14610222578063f2fde38b1461024357600080fd5b80638da5cb5b14610177578063a700f9e414610188578063b6b928fd146101bc57600080fd5b80631bab4b96146100d45780633c4f743c1461011a57806367c5f53d1461012d578063715018a61461015057806379ba50971461015a57806389f8132e14610162575b600080fd5b6100fd6100e236600461264b565b6007602052600090815260409020546001600160a01b031681565b6040516001600160a01b0390911681526020015b60405180910390f35b6002546100fd906001600160a01b031681565b61014061013b36600461266f565b610256565b6040519015158152602001610111565b610158610287565b005b6101586102dc565b61016a610356565b60405161011191906126a8565b6000546001600160a01b03166100fd565b6100fd61019636600461266f565b60066020908152600092835260408084209091529082529020546001600160a01b031681565b6101cf6101ca36600461266f565b610491565b604051610111929190612752565b6100fd6101eb3660046127ee565b80516020818301810180516005825292820191909301209152546001600160a01b031681565b6001546001600160a01b03166100fd565b61023561023036600461266f565b6108ad565b604051610111929190612883565b61015861025136600461264b565b610be9565b6001600160a01b03808316600090815260066020908152604080832085851684529091529020541615155b92915050565b61028f610caa565b60405162461bcd60e51b815260206004820152601e60248201527f72656e6f756e6365206f776e657273686970206e6f7420616c6c6f776564000060448201526064015b60405180910390fd5b60015433906001600160a01b0316811461034a5760405162461bcd60e51b815260206004820152602960248201527f4f776e61626c6532537465703a2063616c6c6572206973206e6f7420746865206044820152683732bb9037bbb732b960b91b60648201526084016102d3565b61035381610d06565b50565b60408051600380825260808201909252606091906000908260208201858036833701905050905063ed287f3f60e01b8161038f8461293a565b93508360ff16815181106103a5576103a5612957565b6001600160e01b03199092166020928302919091019091015263b6b928fd60e01b816103d08461293a565b93508360ff16815181106103e6576103e6612957565b6001600160e01b0319909216602092830291909101909101526367c5f53d60e01b816104118461293a565b93508360ff168151811061042757610427612957565b6001600160e01b03199092166020928302919091019091015260ff8216156102815760405162461bcd60e51b815260206004820152601c60248201527f7573652074686520636f7272656374206172726179206c656e6774680000000060448201526064016102d3565b6001600160a01b0380831660009081526006602090815260408083208585168452825291829020548251808401909352601583527429b7b634b2363ca9bbb0b82634b8bab4b230ba37b960591b91830191909152909116906060906104f7908390610d1f565b1561050d576105068484610d57565b90506108a6565b61054c826040518060400160405280601881526020017f536f6c69646c794c70546f6b656e4c697175696461746f720000000000000000815250610d1f565b1561055b576105068484611228565b61059a826040518060400160405280601981526020017f556e697377617056324c697175696461746f7246756e64657200000000000000815250610d1f565b156105a95761050684846113e4565b6105e0826040518060400160405280601581526020017420b633b2b13930a9bbb0b82634b8bab4b230ba37b960591b815250610d1f565b156105ef57610506848461148c565b61062782604051806040016040528060168152602001752130b630b731b2b929bbb0b82634b8bab4b230ba37b960511b815250610d1f565b8061066c575061066c826040518060400160405280601981526020017f42616c616e6365724c70546f6b656e4c697175696461746f7200000000000000815250610d1f565b1561067b576105068484611579565b6106ba826040518060400160405280601881526020017f556e69737761704c70546f6b656e4c697175696461746f720000000000000000815250610d1f565b806106f657506106f6826040518060400160405280601481526020017323b2b630ba37a3aab734a634b8bab4b230ba37b960611b815250610d1f565b15610705576105068484611595565b610744826040518060400160405280601781526020017f536164646c654c70546f6b656e4c697175696461746f72000000000000000000815250610d1f565b1561075357610506848461187a565b610792826040518060400160405280602081526020017f43757276654c70546f6b656e4c697175696461746f724e6f5265676973747279815250610d1f565b156107a1576105068484611a59565b6107d6826040518060400160405280601381526020017221bab93b32a9bbb0b82634b8bab4b230ba37b960691b815250610d1f565b156107e5576105068484611c17565b61081d82604051806040016040528060168152602001752530b93b34b9a634b8bab4b230ba37b9233ab73232b960511b815250610d1f565b1561082c576105068484611dfb565b61086382604051806040016040528060158152602001742c2137b6b12634b8bab4b230ba37b9233ab73232b960591b815250610d1f565b15610872576105068484611f93565b61089482604051806060016040528060218152602001612df160219139610d1f565b156108a6576108a384846120bc565b90505b9250929050565b60408051600a80825261016082019092526060918291859185916000916020820161014080368337505060408051600a80825261016082019092529293506000929150602082015b60608152602001906001900390816108f557505060408051600a808252610160820190925291925060009190602082016101408036833701905050905060005b846001600160a01b0316866001600160a01b031614610a97576001600160a01b03808716600090815260076020526040812054909116905b83518110156109c05783818151811061098857610988612957565b60200260200101516001600160a01b0316826001600160a01b031614156109ae576109c0565b806109b88161296d565b91505061096d565b506000806109ce8984610491565b90925090506001600160a01b0382166109e957505050610a97565b818785815181106109fc576109fc612957565b60200260200101906001600160a01b031690816001600160a01b03168152505080868581518110610a2f57610a2f612957565b602002602001018190525082858581518110610a4d57610a4d612957565b60200260200101906001600160a01b031690816001600160a01b0316815250508298508380610a7b9061296d565b94505083600a1415610a8f57505050610a97565b505050610935565b8067ffffffffffffffff811115610ab057610ab061277e565b604051908082528060200260200182016040528015610ad9578160200160208202803683370190505b5097508067ffffffffffffffff811115610af557610af561277e565b604051908082528060200260200182016040528015610b2857816020015b6060815260200190600190039081610b135790505b50965060005b818160ff161015610bdb57848160ff1681518110610b4e57610b4e612957565b6020026020010151898260ff1681518110610b6b57610b6b612957565b60200260200101906001600160a01b031690816001600160a01b031681525050838160ff1681518110610ba057610ba0612957565b6020026020010151888260ff1681518110610bbd57610bbd612957565b60200260200101819052508080610bd390612988565b915050610b2e565b505050505050509250929050565b610bf1610caa565b600180546001600160a01b0383166001600160a01b03199091168117909155610c226000546001600160a01b031690565b6001600160a01b03167f38d16b8cac22d99fc7c124b9cd0de2d3fa1faef420bfe791d8c362d765e2270060405160405180910390a350565b600080546001600160a01b038381166001600160a01b0319831681178455604051919092169283917f8be0079c531659141344cd1fd0a4f28419497f9722a3daafe3b4186f6b6457e09190a35050565b6000546001600160a01b03163314610d045760405162461bcd60e51b815260206004820181905260248201527f4f776e61626c653a2063616c6c6572206973206e6f7420746865206f776e657260448201526064016102d3565b565b600180546001600160a01b031916905561035381610c5a565b6000600582604051610d3191906129a8565b908152604051908190036020019020546001600160a01b03848116911614905092915050565b60025460405163bf40fac160e01b81526060916000916001600160a01b039091169063bf40fac190610d8b906004016129c4565b602060405180830381865afa158015610da8573d6000803e3d6000fd5b505050506040513d601f19601f82011682018060405250810190610dcc9190612a12565b60405163260f701f60e11b815290915083906000906001600160a01b03841690634c1ee03e90610e0490899086908690600401612a2f565b602060405180830381865afa158015610e21573d6000803e3d6000fd5b505050506040513d601f19601f82011682018060405250810190610e459190612a12565b90506000836001600160a01b0316634c1ee03e888560016040518463ffffffff1660e01b8152600401610e7a93929190612a2f565b602060405180830381865afa158015610e97573d6000803e3d6000fd5b505050506040513d601f19601f82011682018060405250810190610ebb9190612a12565b60405163e5e31b1360e01b81526001600160a01b0380831660048301529192509085169063e5e31b1390602401602060405180830381865afa158015610f05573d6000803e3d6000fd5b505050506040513d601f19601f82011682018060405250810190610f299190612a53565b80610f99575060405163e5e31b1360e01b81526001600160a01b03838116600483015285169063e5e31b1390602401602060405180830381865afa158015610f75573d6000803e3d6000fd5b505050506040513d601f19601f82011682018060405250810190610f999190612a53565b610ff15760405162461bcd60e51b8152602060048201526024808201527f496e76616c696420536f6c69646c794c697175696461746f722073776170207060448201526330ba341760e11b60648201526084016102d3565b60405163e5e31b1360e01b81526001600160a01b0382811660048301526000919086169063e5e31b1390602401602060405180830381865afa15801561103b573d6000803e3d6000fd5b505050506040513d601f19601f8201168201806040525081019061105f9190612a53565b61106b575060006111f7565b60405163e5e31b1360e01b81526001600160a01b03848116600483015286169063e5e31b1390602401602060405180830381865afa1580156110b1573d6000803e3d6000fd5b505050506040513d601f19601f820116820180604052508101906110d59190612a53565b6110e1575060016111f7565b600080866001600160a01b0316635e60dab58b8860016040518463ffffffff1660e01b815260040161111593929190612a2f565b6040805180830381865afa158015611131573d6000803e3d6000fd5b505050506040513d601f19601f820116820180604052508101906111559190612a75565b91509150600080886001600160a01b0316635e60dab58d8a60006040518463ffffffff1660e01b815260040161118d93929190612a2f565b6040805180830381865afa1580156111a9573d6000803e3d6000fd5b505050506040513d601f19601f820116820180604052508101906111cd9190612a75565b9150915081841180156111df57508083115b156111ed57600194506111f2565b600094505b505050505b84878260405160200161120c93929190612a2f565b6040516020818303038152906040529550505050505092915050565b60606000839050806001600160a01b0316630dfe16816040518163ffffffff1660e01b8152600401602060405180830381865afa15801561126d573d6000803e3d6000fd5b505050506040513d601f19601f820116820180604052508101906112919190612a12565b6001600160a01b0316836001600160a01b031614806113225750806001600160a01b031663d21220a76040518163ffffffff1660e01b8152600401602060405180830381865afa1580156112e9573d6000803e3d6000fd5b505050506040513d601f19601f8201168201806040525081019061130d9190612a12565b6001600160a01b0316836001600160a01b0316145b61133e5760405162461bcd60e51b81526004016102d390612a99565b60025460405163bf40fac160e01b81526001600160a01b039091169063bf40fac19061136c906004016129c4565b602060405180830381865afa158015611389573d6000803e3d6000fd5b505050506040513d601f19601f820116820180604052508101906113ad9190612a12565b604080516001600160a01b039283166020820152918516908201526060015b60405160208183030381529060405291505092915050565b60408051600280825260608083018452926000929190602083019080368337019050509050838160008151811061141d5761141d612957565b60200260200101906001600160a01b031690816001600160a01b031681525050828160018151811061145157611451612957565b60200260200101906001600160a01b031690816001600160a01b03168152505061147a84612279565b816040516020016113cc929190612aef565b60025460405163bf40fac160e01b815260206004820152602e60248201527f636861696e436f6e6669672e636861696e4164647265737365732e414c47454260448201526d2920afa9aba0a82fa927aaaa22a960911b606482015260609183916001600160a01b039091169063bf40fac190608401602060405180830381865afa15801561151e573d6000803e3d6000fd5b505050506040513d601f19601f820116820180604052508101906115429190612a12565b604080516001600160a01b03938416602082015292909116908201526060015b604051602081830303815290604052905092915050565b604080516001600160a01b038316602082015260609101611562565b606060008390506000816001600160a01b0316630dfe16816040518163ffffffff1660e01b8152600401602060405180830381865afa1580156115dc573d6000803e3d6000fd5b505050506040513d601f19601f820116820180604052508101906116009190612a12565b90506000826001600160a01b031663d21220a76040518163ffffffff1660e01b8152600401602060405180830381865afa158015611642573d6000803e3d6000fd5b505050506040513d601f19601f820116820180604052508101906116669190612a12565b90506000836001600160a01b0316630dfe16816040518163ffffffff1660e01b8152600401602060405180830381865afa1580156116a8573d6000803e3d6000fd5b505050506040513d601f19601f820116820180604052508101906116cc9190612a12565b6001600160a01b0316866001600160a01b03161490506000846001600160a01b031663d21220a76040518163ffffffff1660e01b8152600401602060405180830381865afa158015611722573d6000803e3d6000fd5b505050506040513d601f19601f820116820180604052508101906117469190612a12565b6001600160a01b0316876001600160a01b031614905081806117655750805b6117815760405162461bcd60e51b81526004016102d390612a99565b604080516002808252606082018352600092602083019080368337019050509050826117ad57846117af565b835b816000815181106117c2576117c2612957565b60200260200101906001600160a01b031690816001600160a01b031681525050816117ed57836117ef565b845b8160018151811061180257611802612957565b6001600160a01b0392909216602092830291909101820152604080516000815291820190526118308a612279565b8461183b578261183d565b815b84611848578361184a565b825b60405160200161185c93929190612b8f565b60405160208183030381529060405297505050505050505092915050565b60025460405163bf40fac160e01b8152602060048201526013602482015272536164646c654c7050726963654f7261636c6560681b60448201526060916000916001600160a01b039091169063bf40fac190606401602060405180830381865afa1580156118ec573d6000803e3d6000fd5b505050506040513d601f19601f820116820180604052508101906119109190612a12565b60405163195b70b960e21b81526001600160a01b03868116600483015291925060009183169063656dc2e490602401600060405180830381865afa15801561195c573d6000803e3d6000fd5b505050506040513d6000823e601f3d908101601f191682016040526119849190810190612bf3565b60025460405163bf40fac160e01b81529192506000916001600160a01b039091169063bf40fac1906119b890600401612c92565b602060405180830381865afa1580156119d5573d6000803e3d6000fd5b505050506040513d601f19601f820116820180604052508101906119f99190612a12565b90506000611a078387612309565b9050806001600160a01b0381161580611a3c575073eeeeeeeeeeeeeeeeeeeeeeeeeeeeeeeeeeeeeeee6001600160a01b038316145b15611a445750815b81858460405160200161120c93929190612cb2565b60025460405163bf40fac160e01b81526060916000916001600160a01b039091169063bf40fac190611a8d90600401612cd5565b602060405180830381865afa158015611aaa573d6000803e3d6000fd5b505050506040513d601f19601f82011682018060405250810190611ace9190612a12565b60405163195b70b960e21b81526001600160a01b03868116600483015291925060009183169063656dc2e490602401600060405180830381865afa158015611b1a573d6000803e3d6000fd5b505050506040513d6000823e601f3d908101601f19168201604052611b429190810190612bf3565b60025460405163bf40fac160e01b81529192506000916001600160a01b039091169063bf40fac190611b7690600401612c92565b602060405180830381865afa158015611b93573d6000803e3d6000fd5b505050506040513d601f19601f82011682018060405250810190611bb79190612a12565b90506000611bc58387612309565b9050806001600160a01b0381161580611bfa575073eeeeeeeeeeeeeeeeeeeeeeeeeeeeeeeeeeeeeeee6001600160a01b038316145b15611c025750815b81838660405160200161120c93929190612cb2565b60025460405163bf40fac160e01b81526060916000916001600160a01b039091169063bf40fac190611c4b90600401612cd5565b602060405180830381865afa158015611c68573d6000803e3d6000fd5b505050506040513d601f19601f82011682018060405250810190611c8c9190612a12565b60025460405163bf40fac160e01b815260206004820152602360248201527f437572766556324c70546f6b656e50726963654f7261636c654e6f526567697360448201526274727960e81b60648201529192506000916001600160a01b039091169063bf40fac190608401602060405180830381865afa158015611d14573d6000803e3d6000fd5b505050506040513d601f19601f82011682018060405250810190611d389190612a12565b60025460405163bf40fac160e01b81529192506000916001600160a01b039091169063bf40fac190611d6c90600401612c92565b602060405180830381865afa158015611d89573d6000803e3d6000fd5b505050506040513d601f19601f82011682018060405250810190611dad9190612a12565b604080516001600160a01b039586166020820152938516848201529684166060840152948316608083015250921660a0808401919091528351808403909101815260c0909201909252919050565b60606000600260009054906101000a90046001600160a01b03166001600160a01b03166377d792196040518163ffffffff1660e01b8152600401600060405180830381865afa158015611e52573d6000803e3d6000fd5b505050506040513d6000823e601f3d908101601f19168201604052611e7a9190810190612d16565b905060005b8151811015611f8b576000828281518110611e9c57611e9c612957565b60200260200101519050856001600160a01b031681600001516001600160a01b03161415611f0857805160408083015160609384015182516001600160a01b03948516602082015293909116838301528284015280518083039093018352608090910190529250611f8b565b856001600160a01b031681602001516001600160a01b03161415611f7857806020015181604001518260600151604051602001611f66939291906001600160a01b039384168152919092166020820152604081019190915260600190565b60405160208183030381529060405293505b5080611f838161296d565b915050611e7f565b505092915050565b606046606114156120625773e45589fbad3a1fb90f5b2a8a3e8958a8bab5f768734f1885d25ef219d3d4fa064809d6d4985fab9a0b7347bf57bb81c82af4116ca2ff76d063c698cfcd766001600160a01b0386168314156120195780818360405160200161200393929190612cb2565b604051602081830303815290604052935061205a565b816001600160a01b0316866001600160a01b0316141561205a5781818360405160200161204893929190612cb2565b60405160208183030381529060405293505b505050610281565b60405173af16cb45b8149da403af41c63abfebfbcd16264b9073522348779dcb2911539e76a1042aa922f9c47ee3906120a390869084908490602001612cb2565b6040516020818303038152906040529250505092915050565b60025460405163bf40fac160e01b81526060916000916001600160a01b039091169063bf40fac1906120f090600401612c92565b602060405180830381865afa15801561210d573d6000803e3d6000fd5b505050506040513d601f19601f820116820180604052508101906121319190612a12565b6001600160a01b0316846001600160a01b031614801561216d5750733a58a54c066fdc0f2d55fc9c89f0415c92ebf3c46001600160a01b038416145b1561218d5750738159462d255c1d24915cb51ec361f700174cd994612254565b733a58a54c066fdc0f2d55fc9c89f0415c92ebf3c46001600160a01b038516148015612238575060025460405163bf40fac160e01b81526001600160a01b039091169063bf40fac1906121e290600401612c92565b602060405180830381865afa1580156121ff573d6000803e3d6000fd5b505050506040513d601f19601f820116820180604052508101906122239190612a12565b6001600160a01b0316836001600160a01b0316145b156122545750738159462d255c1d24915cb51ec361f700174cd9945b604080516001600160a01b0380841660208301528516918101919091526060016113cc565b60025460405163bf40fac160e01b815260206004820152601260248201527124aab734b9bbb0b82b192937baba32b9181960711b60448201526000916001600160a01b03169063bf40fac190606401602060405180830381865afa1580156122e5573d6000803e3d6000fd5b505050506040513d601f19601f820116820180604052508101906102819190612a12565b60025460405163bf40fac160e01b815260009182916001600160a01b039091169063bf40fac19061233c90600401612c92565b602060405180830381865afa158015612359573d6000803e3d6000fd5b505050506040513d601f19601f8201168201806040525081019061237d9190612a12565b60025460405163bf40fac160e01b815260206004820152600b60248201526a39ba30b13632aa37b5b2b760a91b60448201529192506000916001600160a01b039091169063bf40fac190606401602060405180830381865afa1580156123e7573d6000803e3d6000fd5b505050506040513d601f19601f8201168201806040525081019061240b9190612a12565b60025460405163bf40fac160e01b81526020600482015260096024820152683ba12a21aa37b5b2b760b91b60448201529192506000916001600160a01b039091169063bf40fac190606401602060405180830381865afa158015612473573d6000803e3d6000fd5b505050506040513d601f19601f820116820180604052508101906124979190612a12565b905060005b86518110156124f657856001600160a01b03168782815181106124c1576124c1612957565b60200260200101516001600160a01b031614156124e45785945050505050610281565b806124ee8161296d565b91505061249c565b5060005b865181101561255457836001600160a01b031687828151811061251f5761251f612957565b60200260200101516001600160a01b031614156125425783945050505050610281565b8061254c8161296d565b9150506124fa565b5060005b86518110156125b257826001600160a01b031687828151811061257d5761257d612957565b60200260200101516001600160a01b031614156125a05782945050505050610281565b806125aa8161296d565b915050612558565b5060005b865181101561260f57816001600160a01b03168782815181106125db576125db612957565b60200260200101516001600160a01b031614156125fd57509250610281915050565b806126078161296d565b9150506125b6565b508560008151811061262357612623612957565b6020026020010151935050505092915050565b6001600160a01b038116811461035357600080fd5b60006020828403121561265d57600080fd5b813561266881612636565b9392505050565b6000806040838503121561268257600080fd5b823561268d81612636565b9150602083013561269d81612636565b809150509250929050565b6020808252825182820181905260009190848201906040850190845b818110156126ea5783516001600160e01b031916835292840192918401916001016126c4565b50909695505050505050565b60005b838110156127115781810151838201526020016126f9565b83811115612720576000848401525b50505050565b6000815180845261273e8160208601602086016126f6565b601f01601f19169290920160200192915050565b6001600160a01b038316815260406020820181905260009061277690830184612726565b949350505050565b634e487b7160e01b600052604160045260246000fd5b6040516080810167ffffffffffffffff811182821017156127b7576127b761277e565b60405290565b604051601f8201601f1916810167ffffffffffffffff811182821017156127e6576127e661277e565b604052919050565b6000602080838503121561280157600080fd5b823567ffffffffffffffff8082111561281957600080fd5b818501915085601f83011261282d57600080fd5b81358181111561283f5761283f61277e565b612851601f8201601f191685016127bd565b9150808252868482850101111561286757600080fd5b8084840185840137600090820190930192909252509392505050565b604080825283519082018190526000906020906060840190828701845b828110156128c55781516001600160a01b0316845292840192908401906001016128a0565b50505083810382850152845180825282820190600581901b8301840187850160005b8381101561291557601f19868403018552612903838351612726565b948701949250908601906001016128e7565b50909998505050505050505050565b634e487b7160e01b600052601160045260246000fd5b600060ff82168061294d5761294d612924565b6000190192915050565b634e487b7160e01b600052603260045260246000fd5b600060001982141561298157612981612924565b5060010190565b600060ff821660ff81141561299f5761299f612924565b60010192915050565b600082516129ba8184602087016126f6565b9190910192915050565b6020808252602e908201527f636861696e436f6e6669672e636861696e4164647265737365732e534f4c494460408201526d262cafa9aba0a82fa927aaaa22a960911b606082015260800190565b600060208284031215612a2457600080fd5b815161266881612636565b6001600160a01b039384168152919092166020820152901515604082015260600190565b600060208284031215612a6557600080fd5b8151801515811461266857600080fd5b60008060408385031215612a8857600080fd5b505080516020909101519092909150565b60208082526036908201527f4f757470757420746f6b656e20646f6573206e6f74206d6174636820656974686040820152756572206f6620746865207061697220746f6b656e732160501b606082015260800190565b6001600160a01b038381168252604060208084018290528451918401829052600092858201929091906060860190855b81811015612b3d578551851683529483019491830191600101612b1f565b509098975050505050505050565b600081518084526020808501945080840160005b83811015612b845781516001600160a01b031687529582019590820190600101612b5f565b509495945050505050565b6001600160a01b0384168152606060208201819052600090612bb390830185612b4b565b8281036040840152612bc58185612b4b565b9695505050505050565b600067ffffffffffffffff821115612be957612be961277e565b5060051b60200190565b60006020808385031215612c0657600080fd5b825167ffffffffffffffff811115612c1d57600080fd5b8301601f81018513612c2e57600080fd5b8051612c41612c3c82612bcf565b6127bd565b81815260059190911b82018301908381019087831115612c6057600080fd5b928401925b82841015612c87578351612c7881612636565b82529284019290840190612c65565b979650505050505050565b6020808252600690820152653bba37b5b2b760d11b604082015260600190565b6001600160a01b0393841681529183166020830152909116604082015260600190565b60208082526021908201527f43757276654c70546f6b656e50726963654f7261636c654e6f526567697374726040820152607960f81b606082015260800190565b60006020808385031215612d2957600080fd5b825167ffffffffffffffff811115612d4057600080fd5b8301601f81018513612d5157600080fd5b8051612d5f612c3c82612bcf565b81815260079190911b82018301908381019087831115612d7e57600080fd5b928401925b82841015612c875760808489031215612d9c5760008081fd5b612da4612794565b8451612daf81612636565b815284860151612dbe81612636565b81870152604085810151612dd181612636565b9082015260608581015190820152825260809093019290840190612d8356fe42616c616e6365724c696e656172506f6f6c546f6b656e4c697175696461746f72a164736f6c634300080a000a",
    "linkReferences": {}
  },
  "methodIdentifiers": {
    "_getExtensionFunctions()": "89f8132e",
    "acceptOwnership()": "79ba5097",
    "ap()": "3c4f743c",
    "getRedemptionStrategies(address,address)": "ed287f3f",
    "getRedemptionStrategy(address,address)": "b6b928fd",
    "hasRedemptionStrategyForTokens(address,address)": "67c5f53d",
    "outputTokensByInputToken(address)": "1bab4b96",
    "owner()": "8da5cb5b",
    "pendingOwner()": "e30c3978",
    "redemptionStrategiesByName(string)": "dee7fe48",
    "redemptionStrategiesByTokens(address,address)": "a700f9e4",
    "renounceOwnership()": "715018a6",
    "transferOwnership(address)": "f2fde38b"
  }
}