{
  "address": "0xd41b3308Bc5FbB2101ED8B4c3508adAC410B0Ba0",
  "abi": [
    {
      "anonymous": false,
      "inputs": [
        {
          "indexed": true,
          "internalType": "address",
          "name": "previousOwner",
          "type": "address"
        },
        {
          "indexed": true,
          "internalType": "address",
          "name": "newOwner",
          "type": "address"
        }
      ],
      "name": "OwnershipTransferStarted",
      "type": "event"
    },
    {
      "anonymous": false,
      "inputs": [
        {
          "indexed": true,
          "internalType": "address",
          "name": "previousOwner",
          "type": "address"
        },
        {
          "indexed": true,
          "internalType": "address",
          "name": "newOwner",
          "type": "address"
        }
      ],
      "name": "OwnershipTransferred",
      "type": "event"
    },
    {
      "inputs": [],
      "name": "_getExtensionFunctions",
      "outputs": [
        {
          "internalType": "bytes4[]",
          "name": "",
          "type": "bytes4[]"
        }
      ],
      "stateMutability": "pure",
      "type": "function"
    },
    {
      "inputs": [
        {
          "internalType": "address",
          "name": "strategyToRemove",
          "type": "address"
        },
        {
          "internalType": "string",
          "name": "name",
          "type": "string"
        },
        {
          "internalType": "contract IERC20Upgradeable",
          "name": "inputToken",
          "type": "address"
        }
      ],
      "name": "_removeRedemptionStrategy",
      "outputs": [],
      "stateMutability": "nonpayable",
      "type": "function"
    },
    {
      "inputs": [
        {
          "internalType": "contract IRedemptionStrategy[]",
          "name": "strategies",
          "type": "address[]"
        },
        {
          "internalType": "contract IERC20Upgradeable[]",
          "name": "inputTokens",
          "type": "address[]"
        },
        {
          "internalType": "contract IERC20Upgradeable[]",
          "name": "outputTokens",
          "type": "address[]"
        }
      ],
      "name": "_setRedemptionStrategies",
      "outputs": [],
      "stateMutability": "nonpayable",
      "type": "function"
    },
    {
      "inputs": [
        {
          "internalType": "contract IRedemptionStrategy",
          "name": "strategy",
          "type": "address"
        },
        {
          "internalType": "contract IERC20Upgradeable",
          "name": "inputToken",
          "type": "address"
        },
        {
          "internalType": "contract IERC20Upgradeable",
          "name": "outputToken",
          "type": "address"
        }
      ],
      "name": "_setRedemptionStrategy",
      "outputs": [],
      "stateMutability": "nonpayable",
      "type": "function"
    },
    {
      "inputs": [],
      "name": "acceptOwnership",
      "outputs": [],
      "stateMutability": "nonpayable",
      "type": "function"
    },
    {
      "inputs": [],
      "name": "ap",
      "outputs": [
        {
          "internalType": "contract AddressesProvider",
          "name": "",
          "type": "address"
        }
      ],
      "stateMutability": "view",
      "type": "function"
    },
    {
      "inputs": [
        {
          "internalType": "contract IERC20Upgradeable",
          "name": "inputToken",
          "type": "address"
        },
        {
          "internalType": "contract IERC20Upgradeable",
          "name": "outputToken",
          "type": "address"
        }
      ],
      "name": "getRedemptionStrategies",
      "outputs": [
        {
          "internalType": "contract IRedemptionStrategy[]",
          "name": "strategies",
          "type": "address[]"
        },
        {
          "internalType": "bytes[]",
          "name": "strategiesData",
          "type": "bytes[]"
        }
      ],
      "stateMutability": "view",
      "type": "function"
    },
    {
      "inputs": [
        {
          "internalType": "contract IERC20Upgradeable",
          "name": "inputToken",
          "type": "address"
        },
        {
          "internalType": "contract IERC20Upgradeable",
          "name": "outputToken",
          "type": "address"
        }
      ],
      "name": "getRedemptionStrategy",
      "outputs": [
        {
          "internalType": "contract IRedemptionStrategy",
          "name": "strategy",
          "type": "address"
        },
        {
          "internalType": "bytes",
          "name": "strategyData",
          "type": "bytes"
        }
      ],
      "stateMutability": "view",
      "type": "function"
    },
    {
      "inputs": [
        {
          "internalType": "contract IERC20Upgradeable",
          "name": "inputToken",
          "type": "address"
        },
        {
          "internalType": "contract IERC20Upgradeable",
          "name": "outputToken",
          "type": "address"
        }
      ],
      "name": "isRedemptionPathSupported",
      "outputs": [
        {
          "internalType": "bool",
          "name": "",
          "type": "bool"
        }
      ],
      "stateMutability": "view",
      "type": "function"
    },
    {
      "inputs": [
        {
          "internalType": "contract IERC20Upgradeable",
          "name": "",
          "type": "address"
        }
      ],
      "name": "outputTokensByInputToken",
      "outputs": [
        {
          "internalType": "contract IERC20Upgradeable",
          "name": "",
          "type": "address"
        }
      ],
      "stateMutability": "view",
      "type": "function"
    },
    {
      "inputs": [],
      "name": "owner",
      "outputs": [
        {
          "internalType": "address",
          "name": "",
          "type": "address"
        }
      ],
      "stateMutability": "view",
      "type": "function"
    },
    {
      "inputs": [],
      "name": "pendingOwner",
      "outputs": [
        {
          "internalType": "address",
          "name": "",
          "type": "address"
        }
      ],
      "stateMutability": "view",
      "type": "function"
    },
    {
      "inputs": [
        {
          "internalType": "string",
          "name": "",
          "type": "string"
        }
      ],
      "name": "redemptionStrategiesByName",
      "outputs": [
        {
          "internalType": "contract IRedemptionStrategy",
          "name": "",
          "type": "address"
        }
      ],
      "stateMutability": "view",
      "type": "function"
    },
    {
      "inputs": [
        {
          "internalType": "contract IERC20Upgradeable",
          "name": "",
          "type": "address"
        },
        {
          "internalType": "contract IERC20Upgradeable",
          "name": "",
          "type": "address"
        }
      ],
      "name": "redemptionStrategiesByTokens",
      "outputs": [
        {
          "internalType": "contract IRedemptionStrategy",
          "name": "",
          "type": "address"
        }
      ],
      "stateMutability": "view",
      "type": "function"
    },
    {
      "inputs": [],
      "name": "renounceOwnership",
      "outputs": [],
      "stateMutability": "nonpayable",
      "type": "function"
    },
    {
      "inputs": [
        {
          "internalType": "address",
          "name": "newOwner",
          "type": "address"
        }
      ],
      "name": "transferOwnership",
      "outputs": [],
      "stateMutability": "nonpayable",
      "type": "function"
    }
  ],
  "transactionHash": "0x6a79f28554f1202fdc2b344e569fcd4a5db9f0737a49fcc072e0e780d77397dd",
  "args": [],
  "numDeployments": 10,
  "bytecode": {
    "object": "0x60806040523480156200001157600080fd5b506200001d3362000023565b6200009d565b600180546001600160a01b03191690556200004a816200004d602090811b6200139817901c565b50565b600080546001600160a01b038381166001600160a01b0319831681178455604051919092169283917f8be0079c531659141344cd1fd0a4f28419497f9722a3daafe3b4186f6b6457e09190a35050565b613b1780620000ad6000396000f3fe608060405234801561001057600080fd5b50600436106101005760003560e01c8063a700f9e411610097578063dee7fe4811610066578063dee7fe4814610247578063e30c39781461027b578063ed287f3f1461028c578063f2fde38b146102ad57600080fd5b8063a700f9e4146101bc578063b29e79af146101f0578063b6b928fd14610213578063d7341acf1461023457600080fd5b8063715018a6116100d3578063715018a61461018657806379ba50971461018e57806389f8132e146101965780638da5cb5b146101ab57600080fd5b80631bab4b9614610105578063366eda2e1461014b5780633c4f743c146101605780636e4f9b9914610173575b600080fd5b61012e610113366004613176565b6007602052600090815260409020546001600160a01b031681565b6040516001600160a01b0390911681526020015b60405180910390f35b61015e6101593660046131d7565b6102c0565b005b60025461012e906001600160a01b031681565b61015e610181366004613270565b6105ef565b61015e610699565b61015e6106e9565b61019e610763565b6040516101429190613307565b6000546001600160a01b031661012e565b61012e6101ca366004613355565b60066020908152600092835260408084209091529082529020546001600160a01b031681565b6102036101fe366004613355565b610968565b6040519015158152602001610142565b610226610221366004613355565b610a3c565b6040516101429291906133ea565b61015e610242366004613416565b610e96565b61012e6102553660046134f6565b80516020818301810180516005825292820191909301209152546001600160a01b031681565b6001546001600160a01b031661012e565b61029f61029a366004613355565b610fed565b604051610142929190613575565b61015e6102bb366004613176565b611327565b6102c86113e8565b84831480156102d657508281145b6103155760405162461bcd60e51b815260206004820152600b60248201526a10b0b93930bcb9903632b760a91b60448201526064015b60405180910390fd5b60005b858110156105e657600087878381811061033457610334613616565b90506020020160208101906103499190613176565b6001600160a01b03166306fdde036040518163ffffffff1660e01b8152600401600060405180830381865afa158015610386573d6000803e3d6000fd5b505050506040513d6000823e601f3d908101601f191682016040526103ae919081019061362c565b905060006005826040516103c291906136a2565b908152604051908190036020019020546001600160a01b031690508888848181106103ef576103ef613616565b90506020020160208101906104049190613176565b6006600089898781811061041a5761041a613616565b905060200201602081019061042f9190613176565b6001600160a01b03166001600160a01b03168152602001908152602001600020600087878781811061046357610463613616565b90506020020160208101906104789190613176565b6001600160a01b039081168252602082019290925260400160002080546001600160a01b031916929091169190911790558888848181106104bb576104bb613616565b90506020020160208101906104d09190613176565b6005836040516104e091906136a2565b90815260405190819003602001902080546001600160a01b03929092166001600160a01b031990921691909117905561051a600382611444565b5061054d89898581811061053057610530613616565b90506020020160208101906105459190613176565b600390611460565b5084848481811061056057610560613616565b90506020020160208101906105759190613176565b6007600089898781811061058b5761058b613616565b90506020020160208101906105a09190613176565b6001600160a01b039081168252602082019290925260400160002080546001600160a01b03191692909116919091179055508190506105de816136d4565b915050610318565b50505050505050565b6105f76113e8565b6001600160a01b0380821660009081526007602052604080822054905192169160059061062790879087906136ef565b908152604080516020928190038301902080546001600160a01b03199081166001600160a01b039586161790915585841660008181526006855283812095871681529484528285208054831690558452600790925290912080549091169055610691600386611444565b505050505050565b6106a16113e8565b60405162461bcd60e51b815260206004820152601e60248201527f72656e6f756e6365206f776e657273686970206e6f7420616c6c6f7765640000604482015260640161030c565b60015433906001600160a01b031681146107575760405162461bcd60e51b815260206004820152602960248201527f4f776e61626c6532537465703a2063616c6c6572206973206e6f7420746865206044820152683732bb9037bbb732b960b91b606482015260840161030c565b61076081611475565b50565b60408051600680825260e0820190925260609190600090826020820160c08036833701905050905063ed287f3f60e01b8161079d846136ff565b93508360ff16815181106107b3576107b3613616565b6001600160e01b03199092166020928302919091019091015263b6b928fd60e01b816107de846136ff565b93508360ff16815181106107f4576107f4613616565b6001600160e01b03199092166020928302919091019091015263b29e79af60e01b8161081f846136ff565b93508360ff168151811061083557610835613616565b6001600160e01b03199092166020928302919091019091015263d7341acf60e01b81610860846136ff565b93508360ff168151811061087657610876613616565b6001600160e01b031990921660209283029190910190910152631b376d1760e11b816108a1846136ff565b93508360ff16815181106108b7576108b7613616565b6001600160e01b031990921660209283029190910190910152636e4f9b9960e01b816108e2846136ff565b93508360ff16815181106108f8576108f8613616565b6001600160e01b03199092166020928302919091019091015260ff8216156109625760405162461bcd60e51b815260206004820152601c60248201527f7573652074686520636f7272656374206172726179206c656e67746800000000604482015260640161030c565b92915050565b6000816001600160a01b0316836001600160a01b0316141561098c57506000610962565b8260005b836001600160a01b0316826001600160a01b031614610a1d576001600160a01b038083166000908152600760209081526040808320548985168452600683528184208986168552909252909120549082169116806109f5576000945050505050610962565b8193508280610a03906136d4565b93505082600a1415610a16575050610a1d565b5050610990565b836001600160a01b0316826001600160a01b0316149250505092915050565b6001600160a01b0380831660009081526006602090815260408083208585168452825291829020548251808401909352601583527429b7b634b2363ca9bbb0b82634b8bab4b230ba37b960591b9183019190915290911690606090610aa290839061148e565b15610ab857610ab184846114d9565b9050610e8f565b610af7826040518060400160405280601881526020017f536f6c69646c794c70546f6b656e4c697175696461746f72000000000000000081525061148e565b15610b0657610ab184846119cb565b610b45826040518060400160405280601981526020017f556e697377617056324c697175696461746f7246756e6465720000000000000081525061148e565b15610b5457610ab18484611bf7565b610b8b826040518060400160405280601581526020017420b633b2b13930a9bbb0b82634b8bab4b230ba37b960591b81525061148e565b80610bc95750610bc9826040518060400160405280601681526020017523b0b6b6b0a6382a37b5b2b72634b8bab4b230ba37b960511b81525061148e565b15610bd857610ab18484611c9f565b610c1082604051806040016040528060168152602001752130b630b731b2b929bbb0b82634b8bab4b230ba37b960511b81525061148e565b80610c555750610c55826040518060400160405280601981526020017f42616c616e6365724c70546f6b656e4c697175696461746f720000000000000081525061148e565b15610c6457610ab18484611d6b565b610ca3826040518060400160405280601881526020017f556e69737761704c70546f6b656e4c697175696461746f72000000000000000081525061148e565b80610cdf5750610cdf826040518060400160405280601481526020017323b2b630ba37a3aab734a634b8bab4b230ba37b960611b81525061148e565b15610cee57610ab18484611d87565b610d2d826040518060400160405280601781526020017f536164646c654c70546f6b656e4c697175696461746f7200000000000000000081525061148e565b15610d3c57610ab184846120ba565b610d7b826040518060400160405280602081526020017f43757276654c70546f6b656e4c697175696461746f724e6f526567697374727981525061148e565b15610d8a57610ab18484612299565b610dbf826040518060400160405280601381526020017221bab93b32a9bbb0b82634b8bab4b230ba37b960691b81525061148e565b15610dce57610ab18484612457565b610e0682604051806040016040528060168152602001752530b93b34b9a634b8bab4b230ba37b9233ab73232b960511b81525061148e565b15610e1557610ab1848461263b565b610e4c82604051806040016040528060158152602001742c2137b6b12634b8bab4b230ba37b9233ab73232b960591b81525061148e565b15610e5b57610ab184846127d3565b610e7d82604051806060016040528060218152602001613aea6021913961148e565b15610e8f57610e8c84846128e2565b90505b9250929050565b610e9e6113e8565b6000836001600160a01b03166306fdde036040518163ffffffff1660e01b8152600401600060405180830381865afa158015610ede573d6000803e3d6000fd5b505050506040513d6000823e601f3d908101601f19168201604052610f06919081019061362c565b90506000600582604051610f1a91906136a2565b9081526040805160209281900383018120546001600160a01b0388811660009081526006865284812089831682529095529290932080546001600160a01b031916898416179055911691508590600590610f759085906136a2565b90815260405190819003602001902080546001600160a01b03929092166001600160a01b0319909216919091179055610faf600382611444565b50610fbb600386611460565b5050506001600160a01b03918216600090815260076020526040902080546001600160a01b0319169190921617905550565b60408051600a80825261016082019092526060918291859185916000916020820161014080368337505060408051600a80825261016082019092529293506000929150602082015b606081526020019060019003908161103557505060408051600a808252610160820190925291925060009190602082016101408036833701905050905060005b846001600160a01b0316866001600160a01b0316146111d7576001600160a01b03808716600090815260076020526040812054909116905b8351811015611100578381815181106110c8576110c8613616565b60200260200101516001600160a01b0316826001600160a01b031614156110ee57611100565b806110f8816136d4565b9150506110ad565b5060008061110e8984610a3c565b90925090506001600160a01b038216611129575050506111d7565b8187858151811061113c5761113c613616565b60200260200101906001600160a01b031690816001600160a01b0316815250508086858151811061116f5761116f613616565b60200260200101819052508285858151811061118d5761118d613616565b60200260200101906001600160a01b031690816001600160a01b03168152505082985083806111bb906136d4565b94505083600a14156111cf575050506111d7565b505050611075565b806001600160401b038111156111ef576111ef613461565b604051908082528060200260200182016040528015611218578160200160208202803683370190505b509750806001600160401b0381111561123357611233613461565b60405190808252806020026020018201604052801561126657816020015b60608152602001906001900390816112515790505b50965060005b818160ff16101561131957848160ff168151811061128c5761128c613616565b6020026020010151898260ff16815181106112a9576112a9613616565b60200260200101906001600160a01b031690816001600160a01b031681525050838160ff16815181106112de576112de613616565b6020026020010151888260ff16815181106112fb576112fb613616565b602002602001018190525080806113119061371c565b91505061126c565b505050505050509250929050565b61132f6113e8565b600180546001600160a01b0383166001600160a01b031990911681179091556113606000546001600160a01b031690565b6001600160a01b03167f38d16b8cac22d99fc7c124b9cd0de2d3fa1faef420bfe791d8c362d765e2270060405160405180910390a350565b600080546001600160a01b038381166001600160a01b0319831681178455604051919092169283917f8be0079c531659141344cd1fd0a4f28419497f9722a3daafe3b4186f6b6457e09190a35050565b6000546001600160a01b031633146114425760405162461bcd60e51b815260206004820181905260248201527f4f776e61626c653a2063616c6c6572206973206e6f7420746865206f776e6572604482015260640161030c565b565b6000611459836001600160a01b038416612c62565b9392505050565b6000611459836001600160a01b038416612d55565b600180546001600160a01b031916905561076081611398565b60006001600160a01b0383161580159061145957506005826040516114b391906136a2565b908152604051908190036020019020546001600160a01b03848116911614905092915050565b60025460405163bf40fac160e01b815260206004820152601360248201527229a7a624a2262cafa9aba0a82fa927aaaa22a960691b60448201526060916000916001600160a01b039091169063bf40fac190606401602060405180830381865afa15801561154b573d6000803e3d6000fd5b505050506040513d601f19601f8201168201806040525081019061156f919061373c565b60405163260f701f60e11b815290915083906000906001600160a01b03841690634c1ee03e906115a790899086908690600401613759565b602060405180830381865afa1580156115c4573d6000803e3d6000fd5b505050506040513d601f19601f820116820180604052508101906115e8919061373c565b90506000836001600160a01b0316634c1ee03e888560016040518463ffffffff1660e01b815260040161161d93929190613759565b602060405180830381865afa15801561163a573d6000803e3d6000fd5b505050506040513d601f19601f8201168201806040525081019061165e919061373c565b60405163e5e31b1360e01b81526001600160a01b0380831660048301529192509085169063e5e31b1390602401602060405180830381865afa1580156116a8573d6000803e3d6000fd5b505050506040513d601f19601f820116820180604052508101906116cc919061377d565b8061173c575060405163e5e31b1360e01b81526001600160a01b03838116600483015285169063e5e31b1390602401602060405180830381865afa158015611718573d6000803e3d6000fd5b505050506040513d601f19601f8201168201806040525081019061173c919061377d565b6117945760405162461bcd60e51b8152602060048201526024808201527f496e76616c696420536f6c69646c794c697175696461746f722073776170207060448201526330ba341760e11b606482015260840161030c565b60405163e5e31b1360e01b81526001600160a01b0382811660048301526000919086169063e5e31b1390602401602060405180830381865afa1580156117de573d6000803e3d6000fd5b505050506040513d601f19601f82011682018060405250810190611802919061377d565b61180e5750600061199a565b60405163e5e31b1360e01b81526001600160a01b03848116600483015286169063e5e31b1390602401602060405180830381865afa158015611854573d6000803e3d6000fd5b505050506040513d601f19601f82011682018060405250810190611878919061377d565b6118845750600161199a565b600080866001600160a01b0316635e60dab58b8860016040518463ffffffff1660e01b81526004016118b893929190613759565b6040805180830381865afa1580156118d4573d6000803e3d6000fd5b505050506040513d601f19601f820116820180604052508101906118f8919061379f565b91509150600080886001600160a01b0316635e60dab58d8a60006040518463ffffffff1660e01b815260040161193093929190613759565b6040805180830381865afa15801561194c573d6000803e3d6000fd5b505050506040513d601f19601f82011682018060405250810190611970919061379f565b91509150818411801561198257508083115b156119905760019450611995565b600094505b505050505b8487826040516020016119af93929190613759565b6040516020818303038152906040529550505050505092915050565b60606000839050806001600160a01b0316630dfe16816040518163ffffffff1660e01b8152600401602060405180830381865afa158015611a10573d6000803e3d6000fd5b505050506040513d601f19601f82011682018060405250810190611a34919061373c565b6001600160a01b0316836001600160a01b03161480611ac55750806001600160a01b031663d21220a76040518163ffffffff1660e01b8152600401602060405180830381865afa158015611a8c573d6000803e3d6000fd5b505050506040513d601f19601f82011682018060405250810190611ab0919061373c565b6001600160a01b0316836001600160a01b0316145b611b305760405162461bcd60e51b815260206004820152603660248201527f4f757470757420746f6b656e20646f6573206e6f74206d6174636820656974686044820152756572206f6620746865207061697220746f6b656e732160501b606482015260840161030c565b60025460405163bf40fac160e01b815260206004820152601360248201527229a7a624a2262cafa9aba0a82fa927aaaa22a960691b60448201526001600160a01b039091169063bf40fac190606401602060405180830381865afa158015611b9c573d6000803e3d6000fd5b505050506040513d601f19601f82011682018060405250810190611bc0919061373c565b604080516001600160a01b039283166020820152918516908201526060015b60405160208183030381529060405291505092915050565b604080516002808252606080830184529260009291906020830190803683370190505090508381600081518110611c3057611c30613616565b60200260200101906001600160a01b031690816001600160a01b0316815250508281600181518110611c6457611c64613616565b60200260200101906001600160a01b031690816001600160a01b031681525050611c8d84612da4565b81604051602001611bdf9291906137c3565b60025460405163bf40fac160e01b815260206004820152601360248201527220a623a2a12920afa9aba0a82fa927aaaa22a960691b604482015260609183916001600160a01b039091169063bf40fac190606401602060405180830381865afa158015611d10573d6000803e3d6000fd5b505050506040513d601f19601f82011682018060405250810190611d34919061373c565b604080516001600160a01b03938416602082015292909116908201526060015b604051602081830303815290604052905092915050565b604080516001600160a01b038316602082015260609101611d54565b606060008390506000816001600160a01b0316630dfe16816040518163ffffffff1660e01b8152600401602060405180830381865afa158015611dce573d6000803e3d6000fd5b505050506040513d601f19601f82011682018060405250810190611df2919061373c565b90506000826001600160a01b031663d21220a76040518163ffffffff1660e01b8152600401602060405180830381865afa158015611e34573d6000803e3d6000fd5b505050506040513d601f19601f82011682018060405250810190611e58919061373c565b90506000836001600160a01b0316630dfe16816040518163ffffffff1660e01b8152600401602060405180830381865afa158015611e9a573d6000803e3d6000fd5b505050506040513d601f19601f82011682018060405250810190611ebe919061373c565b6001600160a01b0316866001600160a01b03161490506000846001600160a01b031663d21220a76040518163ffffffff1660e01b8152600401602060405180830381865afa158015611f14573d6000803e3d6000fd5b505050506040513d601f19601f82011682018060405250810190611f38919061373c565b6001600160a01b0316876001600160a01b03161490508180611f575750805b611fc15760405162461bcd60e51b815260206004820152603560248201527f4f757470757420746f6b656e20646f6573206e6f74206d6174636820656974686044820152746572206f6620746865207061697220746f6b656e7360581b606482015260840161030c565b60408051600280825260608201835260009260208301908036833701905050905082611fed5784611fef565b835b8160008151811061200257612002613616565b60200260200101906001600160a01b031690816001600160a01b0316815250508161202d578361202f565b845b8160018151811061204257612042613616565b6001600160a01b0392909216602092830291909101820152604080516000815291820190526120708a612da4565b8461207b578261207d565b815b84612088578361208a565b825b60405160200161209c93929190613863565b60405160208183030381529060405297505050505050505092915050565b60025460405163bf40fac160e01b8152602060048201526013602482015272536164646c654c7050726963654f7261636c6560681b60448201526060916000916001600160a01b039091169063bf40fac190606401602060405180830381865afa15801561212c573d6000803e3d6000fd5b505050506040513d601f19601f82011682018060405250810190612150919061373c565b60405163195b70b960e21b81526001600160a01b03868116600483015291925060009183169063656dc2e490602401600060405180830381865afa15801561219c573d6000803e3d6000fd5b505050506040513d6000823e601f3d908101601f191682016040526121c491908101906138c6565b60025460405163bf40fac160e01b81529192506000916001600160a01b039091169063bf40fac1906121f89060040161395f565b602060405180830381865afa158015612215573d6000803e3d6000fd5b505050506040513d601f19601f82011682018060405250810190612239919061373c565b905060006122478387612e34565b9050806001600160a01b038116158061227c575073eeeeeeeeeeeeeeeeeeeeeeeeeeeeeeeeeeeeeeee6001600160a01b038316145b156122845750815b8185846040516020016119af9392919061397f565b60025460405163bf40fac160e01b81526060916000916001600160a01b039091169063bf40fac1906122cd906004016139a2565b602060405180830381865afa1580156122ea573d6000803e3d6000fd5b505050506040513d601f19601f8201168201806040525081019061230e919061373c565b60405163195b70b960e21b81526001600160a01b03868116600483015291925060009183169063656dc2e490602401600060405180830381865afa15801561235a573d6000803e3d6000fd5b505050506040513d6000823e601f3d908101601f1916820160405261238291908101906138c6565b60025460405163bf40fac160e01b81529192506000916001600160a01b039091169063bf40fac1906123b69060040161395f565b602060405180830381865afa1580156123d3573d6000803e3d6000fd5b505050506040513d601f19601f820116820180604052508101906123f7919061373c565b905060006124058387612e34565b9050806001600160a01b038116158061243a575073eeeeeeeeeeeeeeeeeeeeeeeeeeeeeeeeeeeeeeee6001600160a01b038316145b156124425750815b8183866040516020016119af9392919061397f565b60025460405163bf40fac160e01b81526060916000916001600160a01b039091169063bf40fac19061248b906004016139a2565b602060405180830381865afa1580156124a8573d6000803e3d6000fd5b505050506040513d601f19601f820116820180604052508101906124cc919061373c565b60025460405163bf40fac160e01b815260206004820152602360248201527f437572766556324c70546f6b656e50726963654f7261636c654e6f526567697360448201526274727960e81b60648201529192506000916001600160a01b039091169063bf40fac190608401602060405180830381865afa158015612554573d6000803e3d6000fd5b505050506040513d601f19601f82011682018060405250810190612578919061373c565b60025460405163bf40fac160e01b81529192506000916001600160a01b039091169063bf40fac1906125ac9060040161395f565b602060405180830381865afa1580156125c9573d6000803e3d6000fd5b505050506040513d601f19601f820116820180604052508101906125ed919061373c565b604080516001600160a01b039586166020820152938516848201529684166060840152948316608083015250921660a0808401919091528351808403909101815260c0909201909252919050565b60606000600260009054906101000a90046001600160a01b03166001600160a01b03166377d792196040518163ffffffff1660e01b8152600401600060405180830381865afa158015612692573d6000803e3d6000fd5b505050506040513d6000823e601f3d908101601f191682016040526126ba91908101906139e3565b905060005b81518110156127cb5760008282815181106126dc576126dc613616565b60200260200101519050856001600160a01b031681600001516001600160a01b0316141561274857805160408083015160609384015182516001600160a01b039485166020820152939091168383015282840152805180830390930183526080909101905292506127cb565b856001600160a01b031681602001516001600160a01b031614156127b8578060200151816040015182606001516040516020016127a6939291906001600160a01b039384168152919092166020820152604081019190915260600190565b60405160208183030381529060405293505b50806127c3816136d4565b9150506126bf565b505092915050565b606046606114156128885773e45589fbad3a1fb90f5b2a8a3e8958a8bab5f768734f1885d25ef219d3d4fa064809d6d4985fab9a0b7347bf57bb81c82af4116ca2ff76d063c698cfcd766001600160a01b038616831415612859578081836040516020016128439392919061397f565b6040516020818303038152906040529350612880565b81818360405160200161286e9392919061397f565b60405160208183030381529060405293505b505050610962565b60405173af16cb45b8149da403af41c63abfebfbcd16264b9073522348779dcb2911539e76a1042aa922f9c47ee3906128c99086908490849060200161397f565b6040516020818303038152906040529250505092915050565b60025460405163959fc09760e01b81526001600160a01b038481166004830152838116602483015260609260009291169063959fc09790604401602060405180830381865afa158015612939573d6000803e3d6000fd5b505050506040513d601f19601f8201168201806040525081019061295d919061373c565b90506001600160a01b038116612c3d5760025460405163bf40fac160e01b81526000916001600160a01b03169063bf40fac19061299c9060040161395f565b602060405180830381865afa1580156129b9573d6000803e3d6000fd5b505050506040513d601f19601f820116820180604052508101906129dd919061373c565b9050733a58a54c066fdc0f2d55fc9c89f0415c92ebf3c473fa68fb4628dff1028cfec22b4162fccd0d45efb673513cdee00251f39de280d9e5f771a6eafebcc88e73e2aa7db6da1dae97c5f5c6914d285fbfcc32a12873e78b25c06db117fdf8f98583cdaaa6c92b79e9176001600160a01b038a8116908716148015612a745750846001600160a01b0316896001600160a01b0316145b80612aac5750846001600160a01b03168a6001600160a01b0316148015612aac5750856001600160a01b0316896001600160a01b0316145b15612ac957738159462d255c1d24915cb51ec361f700174cd99496505b856001600160a01b03168a6001600160a01b0316148015612afb5750836001600160a01b0316896001600160a01b0316145b80612b335750836001600160a01b03168a6001600160a01b0316148015612b335750856001600160a01b0316896001600160a01b0316145b15612b505773b20fc01d21a50d2c734c4a1262b4404d41fa7bf096505b816001600160a01b03168a6001600160a01b0316148015612b825750826001600160a01b0316896001600160a01b0316145b80612bba5750826001600160a01b03168a6001600160a01b0316148015612bba5750816001600160a01b0316896001600160a01b0316145b15612bc3578296505b806001600160a01b03168a6001600160a01b0316148015612bf55750836001600160a01b0316896001600160a01b0316145b80612c2d5750836001600160a01b03168a6001600160a01b0316148015612c2d5750806001600160a01b0316896001600160a01b0316145b15612c36578096505b5050505050505b604080516001600160a01b038084166020830152851691810191909152606001611bdf565b60008181526001830160205260408120548015612d4b576000612c86600183613abc565b8554909150600090612c9a90600190613abc565b9050818114612cff576000866000018281548110612cba57612cba613616565b9060005260206000200154905080876000018481548110612cdd57612cdd613616565b6000918252602080832090910192909255918252600188019052604090208390555b8554869080612d1057612d10613ad3565b600190038181906000526020600020016000905590558560010160008681526020019081526020016000206000905560019350505050610962565b6000915050610962565b6000818152600183016020526040812054612d9c57508154600181810184556000848152602080822090930184905584548482528286019093526040902091909155610962565b506000610962565b60025460405163bf40fac160e01b815260206004820152601260248201527124aab734b9bbb0b82b192937baba32b9181960711b60448201526000916001600160a01b03169063bf40fac190606401602060405180830381865afa158015612e10573d6000803e3d6000fd5b505050506040513d601f19601f82011682018060405250810190610962919061373c565b60025460405163bf40fac160e01b815260009182916001600160a01b039091169063bf40fac190612e679060040161395f565b602060405180830381865afa158015612e84573d6000803e3d6000fd5b505050506040513d601f19601f82011682018060405250810190612ea8919061373c565b60025460405163bf40fac160e01b815260206004820152600b60248201526a39ba30b13632aa37b5b2b760a91b60448201529192506000916001600160a01b039091169063bf40fac190606401602060405180830381865afa158015612f12573d6000803e3d6000fd5b505050506040513d601f19601f82011682018060405250810190612f36919061373c565b60025460405163bf40fac160e01b81526020600482015260096024820152683ba12a21aa37b5b2b760b91b60448201529192506000916001600160a01b039091169063bf40fac190606401602060405180830381865afa158015612f9e573d6000803e3d6000fd5b505050506040513d601f19601f82011682018060405250810190612fc2919061373c565b905060005b865181101561302157856001600160a01b0316878281518110612fec57612fec613616565b60200260200101516001600160a01b0316141561300f5785945050505050610962565b80613019816136d4565b915050612fc7565b5060005b865181101561307f57836001600160a01b031687828151811061304a5761304a613616565b60200260200101516001600160a01b0316141561306d5783945050505050610962565b80613077816136d4565b915050613025565b5060005b86518110156130dd57826001600160a01b03168782815181106130a8576130a8613616565b60200260200101516001600160a01b031614156130cb5782945050505050610962565b806130d5816136d4565b915050613083565b5060005b865181101561313a57816001600160a01b031687828151811061310657613106613616565b60200260200101516001600160a01b0316141561312857509250610962915050565b80613132816136d4565b9150506130e1565b508560008151811061314e5761314e613616565b6020026020010151935050505092915050565b6001600160a01b038116811461076057600080fd5b60006020828403121561318857600080fd5b813561145981613161565b60008083601f8401126131a557600080fd5b5081356001600160401b038111156131bc57600080fd5b6020830191508360208260051b8501011115610e8f57600080fd5b600080600080600080606087890312156131f057600080fd5b86356001600160401b038082111561320757600080fd5b6132138a838b01613193565b9098509650602089013591508082111561322c57600080fd5b6132388a838b01613193565b9096509450604089013591508082111561325157600080fd5b5061325e89828a01613193565b979a9699509497509295939492505050565b6000806000806060858703121561328657600080fd5b843561329181613161565b935060208501356001600160401b03808211156132ad57600080fd5b818701915087601f8301126132c157600080fd5b8135818111156132d057600080fd5b8860208285010111156132e257600080fd5b60208301955080945050505060408501356132fc81613161565b939692955090935050565b6020808252825182820181905260009190848201906040850190845b818110156133495783516001600160e01b03191683529284019291840191600101613323565b50909695505050505050565b6000806040838503121561336857600080fd5b823561337381613161565b9150602083013561338381613161565b809150509250929050565b60005b838110156133a9578181015183820152602001613391565b838111156133b8576000848401525b50505050565b600081518084526133d681602086016020860161338e565b601f01601f19169290920160200192915050565b6001600160a01b038316815260406020820181905260009061340e908301846133be565b949350505050565b60008060006060848603121561342b57600080fd5b833561343681613161565b9250602084013561344681613161565b9150604084013561345681613161565b809150509250925092565b634e487b7160e01b600052604160045260246000fd5b604051608081016001600160401b038111828210171561349957613499613461565b60405290565b604051601f8201601f191681016001600160401b03811182821017156134c7576134c7613461565b604052919050565b60006001600160401b038211156134e8576134e8613461565b50601f01601f191660200190565b60006020828403121561350857600080fd5b81356001600160401b0381111561351e57600080fd5b8201601f8101841361352f57600080fd5b803561354261353d826134cf565b61349f565b81815285602083850101111561355757600080fd5b81602084016020830137600091810160200191909152949350505050565b604080825283519082018190526000906020906060840190828701845b828110156135b75781516001600160a01b031684529284019290840190600101613592565b50505083810382850152845180825282820190600581901b8301840187850160005b8381101561360757601f198684030185526135f58383516133be565b948701949250908601906001016135d9565b50909998505050505050505050565b634e487b7160e01b600052603260045260246000fd5b60006020828403121561363e57600080fd5b81516001600160401b0381111561365457600080fd5b8201601f8101841361366557600080fd5b805161367361353d826134cf565b81815285602083850101111561368857600080fd5b61369982602083016020860161338e565b95945050505050565b600082516136b481846020870161338e565b9190910192915050565b634e487b7160e01b600052601160045260246000fd5b60006000198214156136e8576136e86136be565b5060010190565b8183823760009101908152919050565b600060ff821680613712576137126136be565b6000190192915050565b600060ff821660ff811415613733576137336136be565b60010192915050565b60006020828403121561374e57600080fd5b815161145981613161565b6001600160a01b039384168152919092166020820152901515604082015260600190565b60006020828403121561378f57600080fd5b8151801515811461145957600080fd5b600080604083850312156137b257600080fd5b505080516020909101519092909150565b6001600160a01b038381168252604060208084018290528451918401829052600092858201929091906060860190855b818110156138115785518516835294830194918301916001016137f3565b509098975050505050505050565b600081518084526020808501945080840160005b838110156138585781516001600160a01b031687529582019590820190600101613833565b509495945050505050565b6001600160a01b03841681526060602082018190526000906138879083018561381f565b8281036040840152613899818561381f565b9695505050505050565b60006001600160401b038211156138bc576138bc613461565b5060051b60200190565b600060208083850312156138d957600080fd5b82516001600160401b038111156138ef57600080fd5b8301601f8101851361390057600080fd5b805161390e61353d826138a3565b81815260059190911b8201830190838101908783111561392d57600080fd5b928401925b8284101561395457835161394581613161565b82529284019290840190613932565b979650505050505050565b6020808252600690820152653bba37b5b2b760d11b604082015260600190565b6001600160a01b0393841681529183166020830152909116604082015260600190565b60208082526021908201527f43757276654c70546f6b656e50726963654f7261636c654e6f526567697374726040820152607960f81b606082015260800190565b600060208083850312156139f657600080fd5b82516001600160401b03811115613a0c57600080fd5b8301601f81018513613a1d57600080fd5b8051613a2b61353d826138a3565b81815260079190911b82018301908381019087831115613a4a57600080fd5b928401925b828410156139545760808489031215613a685760008081fd5b613a70613477565b8451613a7b81613161565b815284860151613a8a81613161565b81870152604085810151613a9d81613161565b9082015260608581015190820152825260809093019290840190613a4f565b600082821015613ace57613ace6136be565b500390565b634e487b7160e01b600052603160045260246000fdfe42616c616e6365724c696e656172506f6f6c546f6b656e4c697175696461746f72a164736f6c634300080a000a",
    "linkReferences": {}
  },
  "methodIdentifiers": {
    "_getExtensionFunctions()": "89f8132e",
    "_removeRedemptionStrategy(address,string,address)": "6e4f9b99",
    "_setRedemptionStrategies(address[],address[],address[])": "366eda2e",
    "_setRedemptionStrategy(address,address,address)": "d7341acf",
    "acceptOwnership()": "79ba5097",
    "ap()": "3c4f743c",
    "getRedemptionStrategies(address,address)": "ed287f3f",
    "getRedemptionStrategy(address,address)": "b6b928fd",
    "isRedemptionPathSupported(address,address)": "b29e79af",
    "outputTokensByInputToken(address)": "1bab4b96",
    "owner()": "8da5cb5b",
    "pendingOwner()": "e30c3978",
    "redemptionStrategiesByName(string)": "dee7fe48",
    "redemptionStrategiesByTokens(address,address)": "a700f9e4",
    "renounceOwnership()": "715018a6",
    "transferOwnership(address)": "f2fde38b"
  }
}