{
  "address": "0x99925FE02AFed8Df6d8a470647b0d637b9f42ea4",
  "abi": [
    {
      "anonymous": false,
      "inputs": [
        {
          "indexed": true,
          "internalType": "address",
          "name": "previousOwner",
          "type": "address"
        },
        {
          "indexed": true,
          "internalType": "address",
          "name": "newOwner",
          "type": "address"
        }
      ],
      "name": "OwnershipTransferStarted",
      "type": "event"
    },
    {
      "anonymous": false,
      "inputs": [
        {
          "indexed": true,
          "internalType": "address",
          "name": "previousOwner",
          "type": "address"
        },
        {
          "indexed": true,
          "internalType": "address",
          "name": "newOwner",
          "type": "address"
        }
      ],
      "name": "OwnershipTransferred",
      "type": "event"
    },
    {
      "inputs": [],
      "name": "_getExtensionFunctions",
      "outputs": [
        {
          "internalType": "bytes4[]",
          "name": "",
          "type": "bytes4[]"
        }
      ],
      "stateMutability": "pure",
      "type": "function"
    },
    {
      "inputs": [],
      "name": "acceptOwnership",
      "outputs": [],
      "stateMutability": "nonpayable",
      "type": "function"
    },
    {
      "inputs": [],
      "name": "ap",
      "outputs": [
        {
          "internalType": "contract AddressesProvider",
          "name": "",
          "type": "address"
        }
      ],
      "stateMutability": "view",
      "type": "function"
    },
    {
      "inputs": [
        {
          "internalType": "contract IERC20Upgradeable",
          "name": "inputToken",
          "type": "address"
        },
        {
          "internalType": "contract IERC20Upgradeable",
          "name": "outputToken",
          "type": "address"
        }
      ],
      "name": "getRedemptionStrategies",
      "outputs": [
        {
          "internalType": "contract IRedemptionStrategy[]",
          "name": "strategies",
          "type": "address[]"
        },
        {
          "internalType": "bytes[]",
          "name": "strategiesData",
          "type": "bytes[]"
        }
      ],
      "stateMutability": "view",
      "type": "function"
    },
    {
      "inputs": [
        {
          "internalType": "contract IERC20Upgradeable",
          "name": "inputToken",
          "type": "address"
        },
        {
          "internalType": "contract IERC20Upgradeable",
          "name": "outputToken",
          "type": "address"
        }
      ],
      "name": "getRedemptionStrategy",
      "outputs": [
        {
          "internalType": "contract IRedemptionStrategy",
          "name": "strategy",
          "type": "address"
        },
        {
          "internalType": "bytes",
          "name": "strategyData",
          "type": "bytes"
        }
      ],
      "stateMutability": "view",
      "type": "function"
    },
    {
      "inputs": [
        {
          "internalType": "contract IERC20Upgradeable",
          "name": "inputToken",
          "type": "address"
        },
        {
          "internalType": "contract IERC20Upgradeable",
          "name": "outputToken",
          "type": "address"
        }
      ],
      "name": "hasRedemptionStrategyForTokens",
      "outputs": [
        {
          "internalType": "bool",
          "name": "",
          "type": "bool"
        }
      ],
      "stateMutability": "view",
      "type": "function"
    },
    {
      "inputs": [],
      "name": "owner",
      "outputs": [
        {
          "internalType": "address",
          "name": "",
          "type": "address"
        }
      ],
      "stateMutability": "view",
      "type": "function"
    },
    {
      "inputs": [],
      "name": "pendingOwner",
      "outputs": [
        {
          "internalType": "address",
          "name": "",
          "type": "address"
        }
      ],
      "stateMutability": "view",
      "type": "function"
    },
    {
      "inputs": [
        {
          "internalType": "string",
          "name": "",
          "type": "string"
        }
      ],
      "name": "redemptionStrategiesByName",
      "outputs": [
        {
          "internalType": "contract IRedemptionStrategy",
          "name": "",
          "type": "address"
        }
      ],
      "stateMutability": "view",
      "type": "function"
    },
    {
      "inputs": [
        {
          "internalType": "contract IERC20Upgradeable",
          "name": "",
          "type": "address"
        },
        {
          "internalType": "contract IERC20Upgradeable",
          "name": "",
          "type": "address"
        }
      ],
      "name": "redemptionStrategiesByTokens",
      "outputs": [
        {
          "internalType": "contract IRedemptionStrategy",
          "name": "",
          "type": "address"
        }
      ],
      "stateMutability": "view",
      "type": "function"
    },
    {
      "inputs": [],
      "name": "renounceOwnership",
      "outputs": [],
      "stateMutability": "nonpayable",
      "type": "function"
    },
    {
      "inputs": [
        {
          "internalType": "address",
          "name": "newOwner",
          "type": "address"
        }
      ],
      "name": "transferOwnership",
      "outputs": [],
      "stateMutability": "nonpayable",
      "type": "function"
    }
  ],
  "transactionHash": "0xc2facfeb7a1147ef55a489beb30137e2c357733b5eb794f38defd5119c95f2d1",
  "args": [],
  "numDeployments": 3,
  "bytecode": {
    "object": "0x60806040523480156200001157600080fd5b506200001d3362000023565b6200009d565b600180546001600160a01b03191690556200004a816200004d602090811b6200095a17901c565b50565b600080546001600160a01b038381166001600160a01b0319831681178455604051919092169283917f8be0079c531659141344cd1fd0a4f28419497f9722a3daafe3b4186f6b6457e09190a35050565b61291580620000ad6000396000f3fe608060405234801561001057600080fd5b50600436106100b45760003560e01c8063a700f9e411610071578063a700f9e414610144578063b6b928fd14610178578063dee7fe4814610199578063e30c3978146101cd578063ed287f3f146101de578063f2fde38b146101ff57600080fd5b80633c4f743c146100b957806367c5f53d146100e9578063715018a61461010c57806379ba50971461011657806389f8132e1461011e5780638da5cb5b14610133575b600080fd5b6004546100cc906001600160a01b031681565b6040516001600160a01b0390911681526020015b60405180910390f35b6100fc6100f7366004612183565b610212565b60405190151581526020016100e0565b610114610243565b005b610114610298565b610126610312565b6040516100e091906121bc565b6000546001600160a01b03166100cc565b6100cc610152366004612183565b60026020908152600092835260408084209091529082529020546001600160a01b031681565b61018b610186366004612183565b61044d565b6040516100e0929190612266565b6100cc6101a7366004612302565b80516020818301810180516003825292820191909301209152546001600160a01b031681565b6001546001600160a01b03166100cc565b6101f16101ec366004612183565b610838565b6040516100e0929190612397565b61011461020d366004612438565b6108e9565b6001600160a01b03808316600090815260026020908152604080832085851684529091529020541615155b92915050565b61024b6109aa565b60405162461bcd60e51b815260206004820152601e60248201527f72656e6f756e6365206f776e657273686970206e6f7420616c6c6f776564000060448201526064015b60405180910390fd5b60015433906001600160a01b031681146103065760405162461bcd60e51b815260206004820152602960248201527f4f776e61626c6532537465703a2063616c6c6572206973206e6f7420746865206044820152683732bb9037bbb732b960b91b606482015260840161028f565b61030f81610a06565b50565b60408051600380825260808201909252606091906000908260208201858036833701905050905063ed287f3f60e01b8161034b84612472565b93508360ff16815181106103615761036161248f565b6001600160e01b03199092166020928302919091019091015263b6b928fd60e01b8161038c84612472565b93508360ff16815181106103a2576103a261248f565b6001600160e01b0319909216602092830291909101909101526367c5f53d60e01b816103cd84612472565b93508360ff16815181106103e3576103e361248f565b6001600160e01b03199092166020928302919091019091015260ff82161561023d5760405162461bcd60e51b815260206004820152601c60248201527f7573652074686520636f7272656374206172726179206c656e67746800000000604482015260640161028f565b6001600160a01b0380831660009081526002602090815260408083208585168452825291829020548251808401909352601583527429b7b634b2363ca9bbb0b82634b8bab4b230ba37b960591b91830191909152909116906060906104b3908390610a1f565b156104c9576104c28484610a57565b9050610831565b610508826040518060400160405280601881526020017f536f6c69646c794c70546f6b656e4c697175696461746f720000000000000000815250610a1f565b15610517576104c28484610f25565b610556826040518060400160405280601981526020017f556e697377617056324c697175696461746f7246756e64657200000000000000815250610a1f565b15610565576104c284846110e0565b61059c826040518060400160405280601581526020017420b633b2b13930a9bbb0b82634b8bab4b230ba37b960591b815250610a1f565b156105ab576104c28484611188565b6105e382604051806040016040528060168152602001752130b630b731b2b929bbb0b82634b8bab4b230ba37b960511b815250610a1f565b806106285750610628826040518060400160405280601981526020017f42616c616e6365724c70546f6b656e4c697175696461746f7200000000000000815250610a1f565b15610637576104c28484611279565b610676826040518060400160405280601881526020017f556e69737761704c70546f6b656e4c697175696461746f720000000000000000815250610a1f565b806106b257506106b2826040518060400160405280601481526020017323b2b630ba37a3aab734a634b8bab4b230ba37b960611b815250610a1f565b156106c1576104c28484611295565b610700826040518060400160405280601781526020017f536164646c654c70546f6b656e4c697175696461746f72000000000000000000815250610a1f565b1561070f576104c2848461157a565b61074e826040518060400160405280602081526020017f43757276654c70546f6b656e4c697175696461746f724e6f5265676973747279815250610a1f565b1561075d576104c2848461175c565b610792826040518060400160405280601381526020017221bab93b32a9bbb0b82634b8bab4b230ba37b960691b815250610a1f565b156107a1576104c28484611916565b6107d982604051806040016040528060168152602001752530b93b34b9a634b8bab4b230ba37b9233ab73232b960511b815250610a1f565b156107e8576104c28484611af7565b61081f82604051806040016040528060158152602001742c2137b6b12634b8bab4b230ba37b9233ab73232b960591b815250610a1f565b156108315761082e8484611c81565b90505b9250929050565b6040805160018082528183019092526060918291906020808301908036833701905050604080516001808252818301909252919350816020015b6060815260200190600190039081610872579050509050610893848461044d565b836000815181106108a6576108a661248f565b60200260200101836000815181106108c0576108c061248f565b60200260200101829052826001600160a01b03166001600160a01b031681525050509250929050565b6108f16109aa565b600180546001600160a01b0383166001600160a01b031990911681179091556109226000546001600160a01b031690565b6001600160a01b03167f38d16b8cac22d99fc7c124b9cd0de2d3fa1faef420bfe791d8c362d765e2270060405160405180910390a350565b600080546001600160a01b038381166001600160a01b0319831681178455604051919092169283917f8be0079c531659141344cd1fd0a4f28419497f9722a3daafe3b4186f6b6457e09190a35050565b6000546001600160a01b03163314610a045760405162461bcd60e51b815260206004820181905260248201527f4f776e61626c653a2063616c6c6572206973206e6f7420746865206f776e6572604482015260640161028f565b565b600180546001600160a01b031916905561030f8161095a565b6000600382604051610a3191906124a5565b908152604051908190036020019020546001600160a01b03848116911614905092915050565b6004805460405163bf40fac160e01b81526060926000926001600160a01b03169163bf40fac191610a8891016124c1565b602060405180830381865afa158015610aa5573d6000803e3d6000fd5b505050506040513d601f19601f82011682018060405250810190610ac9919061250f565b60405163260f701f60e11b815290915083906000906001600160a01b03841690634c1ee03e90610b019089908690869060040161252c565b602060405180830381865afa158015610b1e573d6000803e3d6000fd5b505050506040513d601f19601f82011682018060405250810190610b42919061250f565b90506000836001600160a01b0316634c1ee03e888560016040518463ffffffff1660e01b8152600401610b779392919061252c565b602060405180830381865afa158015610b94573d6000803e3d6000fd5b505050506040513d601f19601f82011682018060405250810190610bb8919061250f565b60405163e5e31b1360e01b81526001600160a01b0380831660048301529192509085169063e5e31b1390602401602060405180830381865afa158015610c02573d6000803e3d6000fd5b505050506040513d601f19601f82011682018060405250810190610c269190612550565b80610c96575060405163e5e31b1360e01b81526001600160a01b03838116600483015285169063e5e31b1390602401602060405180830381865afa158015610c72573d6000803e3d6000fd5b505050506040513d601f19601f82011682018060405250810190610c969190612550565b610cee5760405162461bcd60e51b8152602060048201526024808201527f496e76616c696420536f6c69646c794c697175696461746f722073776170207060448201526330ba341760e11b606482015260840161028f565b60405163e5e31b1360e01b81526001600160a01b0382811660048301526000919086169063e5e31b1390602401602060405180830381865afa158015610d38573d6000803e3d6000fd5b505050506040513d601f19601f82011682018060405250810190610d5c9190612550565b610d6857506000610ef4565b60405163e5e31b1360e01b81526001600160a01b03848116600483015286169063e5e31b1390602401602060405180830381865afa158015610dae573d6000803e3d6000fd5b505050506040513d601f19601f82011682018060405250810190610dd29190612550565b610dde57506001610ef4565b600080866001600160a01b0316635e60dab58b8860016040518463ffffffff1660e01b8152600401610e129392919061252c565b6040805180830381865afa158015610e2e573d6000803e3d6000fd5b505050506040513d601f19601f82011682018060405250810190610e529190612572565b91509150600080886001600160a01b0316635e60dab58d8a60006040518463ffffffff1660e01b8152600401610e8a9392919061252c565b6040805180830381865afa158015610ea6573d6000803e3d6000fd5b505050506040513d601f19601f82011682018060405250810190610eca9190612572565b915091508184118015610edc57508083115b15610eea5760019450610eef565b600094505b505050505b848782604051602001610f099392919061252c565b6040516020818303038152906040529550505050505092915050565b60606000839050806001600160a01b0316630dfe16816040518163ffffffff1660e01b8152600401602060405180830381865afa158015610f6a573d6000803e3d6000fd5b505050506040513d601f19601f82011682018060405250810190610f8e919061250f565b6001600160a01b0316836001600160a01b0316148061101f5750806001600160a01b031663d21220a76040518163ffffffff1660e01b8152600401602060405180830381865afa158015610fe6573d6000803e3d6000fd5b505050506040513d601f19601f8201168201806040525081019061100a919061250f565b6001600160a01b0316836001600160a01b0316145b61103b5760405162461bcd60e51b815260040161028f90612596565b6004805460405163bf40fac160e01b81526001600160a01b039091169163bf40fac19161106891016124c1565b602060405180830381865afa158015611085573d6000803e3d6000fd5b505050506040513d601f19601f820116820180604052508101906110a9919061250f565b604080516001600160a01b039283166020820152918516908201526060015b60405160208183030381529060405291505092915050565b6040805160028082526060808301845292600092919060208301908036833701905050905083816000815181106111195761111961248f565b60200260200101906001600160a01b031690816001600160a01b031681525050828160018151811061114d5761114d61248f565b60200260200101906001600160a01b031690816001600160a01b03168152505061117684611daa565b816040516020016110c89291906125ec565b6004805460405163bf40fac160e01b815260609284926001600160a01b03169163bf40fac19161120191016020808252602e908201527f636861696e436f6e6669672e636861696e4164647265737365732e414c47454260408201526d2920afa9aba0a82fa927aaaa22a960911b606082015260800190565b602060405180830381865afa15801561121e573d6000803e3d6000fd5b505050506040513d601f19601f82011682018060405250810190611242919061250f565b604080516001600160a01b03938416602082015292909116908201526060015b604051602081830303815290604052905092915050565b604080516001600160a01b038316602082015260609101611262565b606060008390506000816001600160a01b0316630dfe16816040518163ffffffff1660e01b8152600401602060405180830381865afa1580156112dc573d6000803e3d6000fd5b505050506040513d601f19601f82011682018060405250810190611300919061250f565b90506000826001600160a01b031663d21220a76040518163ffffffff1660e01b8152600401602060405180830381865afa158015611342573d6000803e3d6000fd5b505050506040513d601f19601f82011682018060405250810190611366919061250f565b90506000836001600160a01b0316630dfe16816040518163ffffffff1660e01b8152600401602060405180830381865afa1580156113a8573d6000803e3d6000fd5b505050506040513d601f19601f820116820180604052508101906113cc919061250f565b6001600160a01b0316866001600160a01b03161490506000846001600160a01b031663d21220a76040518163ffffffff1660e01b8152600401602060405180830381865afa158015611422573d6000803e3d6000fd5b505050506040513d601f19601f82011682018060405250810190611446919061250f565b6001600160a01b0316876001600160a01b031614905081806114655750805b6114815760405162461bcd60e51b815260040161028f90612596565b604080516002808252606082018352600092602083019080368337019050509050826114ad57846114af565b835b816000815181106114c2576114c261248f565b60200260200101906001600160a01b031690816001600160a01b031681525050816114ed57836114ef565b845b816001815181106115025761150261248f565b6001600160a01b0392909216602092830291909101820152604080516000815291820190526115308a611daa565b8461153b578261153d565b815b84611548578361154a565b825b60405160200161155c9392919061268c565b60405160208183030381529060405297505050505050505092915050565b6004805460405163bf40fac160e01b81526060926000926001600160a01b03169163bf40fac1916115d39101602080825260139082015272536164646c654c7050726963654f7261636c6560681b604082015260600190565b602060405180830381865afa1580156115f0573d6000803e3d6000fd5b505050506040513d601f19601f82011682018060405250810190611614919061250f565b60405163195b70b960e21b81526001600160a01b03868116600483015291925060009183169063656dc2e490602401600060405180830381865afa158015611660573d6000803e3d6000fd5b505050506040513d6000823e601f3d908101601f1916820160405261168891908101906126f0565b6004805460405163bf40fac160e01b81529293506000926001600160a01b039091169163bf40fac1916116bb910161278f565b602060405180830381865afa1580156116d8573d6000803e3d6000fd5b505050506040513d601f19601f820116820180604052508101906116fc919061250f565b9050600061170a8387611e42565b9050806001600160a01b038116158061173f575073eeeeeeeeeeeeeeeeeeeeeeeeeeeeeeeeeeeeeeee6001600160a01b038316145b156117475750815b818584604051602001610f09939291906127af565b6004805460405163bf40fac160e01b81526060926000926001600160a01b03169163bf40fac19161178d91016127d2565b602060405180830381865afa1580156117aa573d6000803e3d6000fd5b505050506040513d601f19601f820116820180604052508101906117ce919061250f565b60405163195b70b960e21b81526001600160a01b03868116600483015291925060009183169063656dc2e490602401600060405180830381865afa15801561181a573d6000803e3d6000fd5b505050506040513d6000823e601f3d908101601f1916820160405261184291908101906126f0565b6004805460405163bf40fac160e01b81529293506000926001600160a01b039091169163bf40fac191611875910161278f565b602060405180830381865afa158015611892573d6000803e3d6000fd5b505050506040513d601f19601f820116820180604052508101906118b6919061250f565b905060006118c48387611e42565b9050806001600160a01b03811615806118f9575073eeeeeeeeeeeeeeeeeeeeeeeeeeeeeeeeeeeeeeee6001600160a01b038316145b156119015750815b818386604051602001610f09939291906127af565b6004805460405163bf40fac160e01b81526060926000926001600160a01b03169163bf40fac19161194791016127d2565b602060405180830381865afa158015611964573d6000803e3d6000fd5b505050506040513d601f19601f82011682018060405250810190611988919061250f565b6004805460405163bf40fac160e01b8152602092810192909252602360248301527f437572766556324c70546f6b656e50726963654f7261636c654e6f526567697360448301526274727960e81b60648301529192506000916001600160a01b03169063bf40fac190608401602060405180830381865afa158015611a11573d6000803e3d6000fd5b505050506040513d601f19601f82011682018060405250810190611a35919061250f565b6004805460405163bf40fac160e01b81529293506000926001600160a01b039091169163bf40fac191611a68910161278f565b602060405180830381865afa158015611a85573d6000803e3d6000fd5b505050506040513d601f19601f82011682018060405250810190611aa9919061250f565b604080516001600160a01b039586166020820152938516848201529684166060840152948316608083015250921660a0808401919091528351808403909101815260c0909201909252919050565b60048054604080516377d7921960e01b815290516060936000936001600160a01b0316926377d79219928183019286928290030181865afa158015611b40573d6000803e3d6000fd5b505050506040513d6000823e601f3d908101601f19168201604052611b689190810190612813565b905060005b8151811015611c79576000828281518110611b8a57611b8a61248f565b60200260200101519050856001600160a01b031681600001516001600160a01b03161415611bf657805160408083015160609384015182516001600160a01b03948516602082015293909116838301528284015280518083039093018352608090910190529250611c79565b856001600160a01b031681602001516001600160a01b03161415611c6657806020015181604001518260600151604051602001611c54939291906001600160a01b039384168152919092166020820152604081019190915260600190565b60405160208183030381529060405293505b5080611c71816128ed565b915050611b6d565b505092915050565b60604660611415611d505773e45589fbad3a1fb90f5b2a8a3e8958a8bab5f768734f1885d25ef219d3d4fa064809d6d4985fab9a0b7347bf57bb81c82af4116ca2ff76d063c698cfcd766001600160a01b038616831415611d0757808183604051602001611cf1939291906127af565b6040516020818303038152906040529350611d48565b816001600160a01b0316866001600160a01b03161415611d4857818183604051602001611d36939291906127af565b60405160208183030381529060405293505b50505061023d565b60405173af16cb45b8149da403af41c63abfebfbcd16264b9073522348779dcb2911539e76a1042aa922f9c47ee390611d91908690849084906020016127af565b6040516020818303038152906040529250505092915050565b6004805460405163bf40fac160e01b81526000926001600160a01b039092169163bf40fac191611e01910160208082526012908201527124aab734b9bbb0b82b192937baba32b9181960711b604082015260600190565b602060405180830381865afa158015611e1e573d6000803e3d6000fd5b505050506040513d601f19601f8201168201806040525081019061023d919061250f565b6004805460405163bf40fac160e01b815260009283926001600160a01b03169163bf40fac191611e72910161278f565b602060405180830381865afa158015611e8f573d6000803e3d6000fd5b505050506040513d601f19601f82011682018060405250810190611eb3919061250f565b6004805460405163bf40fac160e01b8152602092810192909252600b60248301526a39ba30b13632aa37b5b2b760a91b60448301529192506000916001600160a01b03169063bf40fac190606401602060405180830381865afa158015611f1e573d6000803e3d6000fd5b505050506040513d601f19601f82011682018060405250810190611f42919061250f565b6004805460405163bf40fac160e01b815260209281019290925260096024830152683ba12a21aa37b5b2b760b91b60448301529192506000916001600160a01b03169063bf40fac190606401602060405180830381865afa158015611fab573d6000803e3d6000fd5b505050506040513d601f19601f82011682018060405250810190611fcf919061250f565b905060005b865181101561202e57856001600160a01b0316878281518110611ff957611ff961248f565b60200260200101516001600160a01b0316141561201c578594505050505061023d565b80612026816128ed565b915050611fd4565b5060005b865181101561208c57836001600160a01b03168782815181106120575761205761248f565b60200260200101516001600160a01b0316141561207a578394505050505061023d565b80612084816128ed565b915050612032565b5060005b86518110156120ea57826001600160a01b03168782815181106120b5576120b561248f565b60200260200101516001600160a01b031614156120d8578294505050505061023d565b806120e2816128ed565b915050612090565b5060005b865181101561214757816001600160a01b03168782815181106121135761211361248f565b60200260200101516001600160a01b031614156121355750925061023d915050565b8061213f816128ed565b9150506120ee565b508560008151811061215b5761215b61248f565b6020026020010151935050505092915050565b6001600160a01b038116811461030f57600080fd5b6000806040838503121561219657600080fd5b82356121a18161216e565b915060208301356121b18161216e565b809150509250929050565b6020808252825182820181905260009190848201906040850190845b818110156121fe5783516001600160e01b031916835292840192918401916001016121d8565b50909695505050505050565b60005b8381101561222557818101518382015260200161220d565b83811115612234576000848401525b50505050565b6000815180845261225281602086016020860161220a565b601f01601f19169290920160200192915050565b6001600160a01b038316815260406020820181905260009061228a9083018461223a565b949350505050565b634e487b7160e01b600052604160045260246000fd5b6040516080810167ffffffffffffffff811182821017156122cb576122cb612292565b60405290565b604051601f8201601f1916810167ffffffffffffffff811182821017156122fa576122fa612292565b604052919050565b6000602080838503121561231557600080fd5b823567ffffffffffffffff8082111561232d57600080fd5b818501915085601f83011261234157600080fd5b81358181111561235357612353612292565b612365601f8201601f191685016122d1565b9150808252868482850101111561237b57600080fd5b8084840185840137600090820190930192909252509392505050565b604080825283519082018190526000906020906060840190828701845b828110156123d95781516001600160a01b0316845292840192908401906001016123b4565b50505083810382850152845180825282820190600581901b8301840187850160005b8381101561242957601f1986840301855261241783835161223a565b948701949250908601906001016123fb565b50909998505050505050505050565b60006020828403121561244a57600080fd5b81356124558161216e565b9392505050565b634e487b7160e01b600052601160045260246000fd5b600060ff8216806124855761248561245c565b6000190192915050565b634e487b7160e01b600052603260045260246000fd5b600082516124b781846020870161220a565b9190910192915050565b6020808252602e908201527f636861696e436f6e6669672e636861696e4164647265737365732e534f4c494460408201526d262cafa9aba0a82fa927aaaa22a960911b606082015260800190565b60006020828403121561252157600080fd5b81516124558161216e565b6001600160a01b039384168152919092166020820152901515604082015260600190565b60006020828403121561256257600080fd5b8151801515811461245557600080fd5b6000806040838503121561258557600080fd5b505080516020909101519092909150565b60208082526036908201527f4f757470757420746f6b656e20646f6573206e6f74206d6174636820656974686040820152756572206f6620746865207061697220746f6b656e732160501b606082015260800190565b6001600160a01b038381168252604060208084018290528451918401829052600092858201929091906060860190855b8181101561263a57855185168352948301949183019160010161261c565b509098975050505050505050565b600081518084526020808501945080840160005b838110156126815781516001600160a01b03168752958201959082019060010161265c565b509495945050505050565b6001600160a01b03841681526060602082018190526000906126b090830185612648565b82810360408401526126c28185612648565b9695505050505050565b600067ffffffffffffffff8211156126e6576126e6612292565b5060051b60200190565b6000602080838503121561270357600080fd5b825167ffffffffffffffff81111561271a57600080fd5b8301601f8101851361272b57600080fd5b805161273e612739826126cc565b6122d1565b81815260059190911b8201830190838101908783111561275d57600080fd5b928401925b828410156127845783516127758161216e565b82529284019290840190612762565b979650505050505050565b6020808252600690820152653bba37b5b2b760d11b604082015260600190565b6001600160a01b0393841681529183166020830152909116604082015260600190565b60208082526021908201527f43757276654c70546f6b656e50726963654f7261636c654e6f526567697374726040820152607960f81b606082015260800190565b6000602080838503121561282657600080fd5b825167ffffffffffffffff81111561283d57600080fd5b8301601f8101851361284e57600080fd5b805161285c612739826126cc565b81815260079190911b8201830190838101908783111561287b57600080fd5b928401925b8284101561278457608084890312156128995760008081fd5b6128a16122a8565b84516128ac8161216e565b8152848601516128bb8161216e565b818701526040858101516128ce8161216e565b9082015260608581015190820152825260809093019290840190612880565b60006000198214156129015761290161245c565b506001019056fea164736f6c634300080a000a",
    "linkReferences": {}
  },
  "methodIdentifiers": {
    "_getExtensionFunctions()": "89f8132e",
    "acceptOwnership()": "79ba5097",
    "ap()": "3c4f743c",
    "getRedemptionStrategies(address,address)": "ed287f3f",
    "getRedemptionStrategy(address,address)": "b6b928fd",
    "hasRedemptionStrategyForTokens(address,address)": "67c5f53d",
    "owner()": "8da5cb5b",
    "pendingOwner()": "e30c3978",
    "redemptionStrategiesByName(string)": "dee7fe48",
    "redemptionStrategiesByTokens(address,address)": "a700f9e4",
    "renounceOwnership()": "715018a6",
    "transferOwnership(address)": "f2fde38b"
  }
}