{
  "address": "0x135fF045efaF131B8ea00D2a30e53cC7cB551F34",
  "abi": [
    {
      "inputs": [
        {
          "internalType": "contract AddressesProvider",
          "name": "_ap",
          "type": "address"
        }
      ],
      "stateMutability": "nonpayable",
      "type": "constructor"
    },
    {
      "inputs": [
        {
          "internalType": "bytes4",
          "name": "_functionSelector",
          "type": "bytes4"
        },
        {
          "internalType": "address",
          "name": "_currentImpl",
          "type": "address"
        }
      ],
      "name": "FunctionAlreadyAdded",
      "type": "error"
    },
    {
      "inputs": [
        {
          "internalType": "bytes4",
          "name": "_functionSelector",
          "type": "bytes4"
        }
      ],
      "name": "FunctionNotFound",
      "type": "error"
    },
    {
      "anonymous": false,
      "inputs": [
        {
          "indexed": true,
          "internalType": "address",
          "name": "previousOwner",
          "type": "address"
        },
        {
          "indexed": true,
          "internalType": "address",
          "name": "newOwner",
          "type": "address"
        }
      ],
      "name": "OwnershipTransferStarted",
      "type": "event"
    },
    {
      "anonymous": false,
      "inputs": [
        {
          "indexed": true,
          "internalType": "address",
          "name": "previousOwner",
          "type": "address"
        },
        {
          "indexed": true,
          "internalType": "address",
          "name": "newOwner",
          "type": "address"
        }
      ],
      "name": "OwnershipTransferred",
      "type": "event"
    },
    {
      "stateMutability": "nonpayable",
      "type": "fallback"
    },
    {
      "inputs": [],
      "name": "_listExtensions",
      "outputs": [
        {
          "internalType": "address[]",
          "name": "",
          "type": "address[]"
        }
      ],
      "stateMutability": "view",
      "type": "function"
    },
    {
      "inputs": [
        {
          "internalType": "contract DiamondExtension",
          "name": "extensionToAdd",
          "type": "address"
        },
        {
          "internalType": "contract DiamondExtension",
          "name": "extensionToReplace",
          "type": "address"
        }
      ],
      "name": "_registerExtension",
      "outputs": [],
      "stateMutability": "nonpayable",
      "type": "function"
    },
    {
      "inputs": [],
      "name": "acceptOwnership",
      "outputs": [],
      "stateMutability": "nonpayable",
      "type": "function"
    },
    {
      "inputs": [],
      "name": "ap",
      "outputs": [
        {
          "internalType": "contract AddressesProvider",
          "name": "",
          "type": "address"
        }
      ],
      "stateMutability": "view",
      "type": "function"
    },
    {
      "inputs": [],
      "name": "asExtension",
      "outputs": [
        {
          "internalType": "contract LiquidatorsRegistryExtension",
          "name": "",
          "type": "address"
        }
      ],
      "stateMutability": "view",
      "type": "function"
    },
    {
      "inputs": [
        {
          "internalType": "contract IERC20Upgradeable",
          "name": "",
          "type": "address"
        }
      ],
      "name": "defaultOutputToken",
      "outputs": [
        {
          "internalType": "contract IERC20Upgradeable",
          "name": "",
          "type": "address"
        }
      ],
      "stateMutability": "view",
      "type": "function"
    },
    {
      "inputs": [],
      "name": "owner",
      "outputs": [
        {
          "internalType": "address",
          "name": "",
          "type": "address"
        }
      ],
      "stateMutability": "view",
      "type": "function"
    },
    {
      "inputs": [],
      "name": "pendingOwner",
      "outputs": [
        {
          "internalType": "address",
          "name": "",
          "type": "address"
        }
      ],
      "stateMutability": "view",
      "type": "function"
    },
    {
      "inputs": [
        {
          "internalType": "string",
          "name": "",
          "type": "string"
        }
      ],
      "name": "redemptionStrategiesByName",
      "outputs": [
        {
          "internalType": "contract IRedemptionStrategy",
          "name": "",
          "type": "address"
        }
      ],
      "stateMutability": "view",
      "type": "function"
    },
    {
      "inputs": [
        {
          "internalType": "contract IERC20Upgradeable",
          "name": "",
          "type": "address"
        },
        {
          "internalType": "contract IERC20Upgradeable",
          "name": "",
          "type": "address"
        }
      ],
      "name": "redemptionStrategiesByTokens",
      "outputs": [
        {
          "internalType": "contract IRedemptionStrategy",
          "name": "",
          "type": "address"
        }
      ],
      "stateMutability": "view",
      "type": "function"
    },
    {
      "inputs": [],
      "name": "renounceOwnership",
      "outputs": [],
      "stateMutability": "nonpayable",
      "type": "function"
    },
    {
      "inputs": [
        {
          "internalType": "address",
          "name": "newOwner",
          "type": "address"
        }
      ],
      "name": "transferOwnership",
      "outputs": [],
      "stateMutability": "nonpayable",
      "type": "function"
    }
  ],
  "transactionHash": "0x24769dc911d577ce03045edeb28949a410bfe16b0bfc37af64c5f2a550771339",
  "args": [
    "0x3dc8CE9f581e49B9E5304CF580940ad341F64c3f"
  ],
  "numDeployments": 1,
  "bytecode": {
    "object": "0x608060405234801561001057600080fd5b5060405161103f38038061103f83398101604081905261002f916100d4565b6100383361005d565b600280546001600160a01b0319166001600160a01b0392909216919091179055610104565b600180546001600160a01b031916905561008181610084602090811b6103cf17901c565b50565b600080546001600160a01b038381166001600160a01b0319831681178455604051919092169283917f8be0079c531659141344cd1fd0a4f28419497f9722a3daafe3b4186f6b6457e09190a35050565b6000602082840312156100e657600080fd5b81516001600160a01b03811681146100fd57600080fd5b9392505050565b610f2c806101136000396000f3fe608060405234801561001057600080fd5b50600436106100b45760003560e01c80638db87c27116100715780638db87c27146101b4578063a700f9e4146101dd578063dc54bc8114610211578063dee7fe4814610217578063e30c39781461024b578063f2fde38b1461025c576100b4565b80633c4f743c146101395780636333d00114610169578063715018a61461017e57806379ba50971461018857806389cd9855146101905780638da5cb5b146101a3575b600080356001600160e01b0319168152600080516020610f0083398151915260205260409020546001600160a01b03168061011557604051630a82dd7360e31b81526001600160e01b03196000351660048201526024015b60405180910390fd5b3660008037600080366000845af43d6000803e808015610134573d6000f35b3d6000fd5b60025461014c906001600160a01b031681565b6040516001600160a01b0390911681526020015b60405180910390f35b61017161026f565b6040516101609190610bd8565b61018661027e565b005b6101866102ce565b61018661019e366004610c3a565b610348565b6000546001600160a01b031661014c565b61014c6101c2366004610c73565b6007602052600090815260409020546001600160a01b031681565b61014c6101eb366004610c3a565b60066020908152600092835260408084209091529082529020546001600160a01b031681565b3061014c565b61014c610225366004610cde565b80516020818301810180516005825292820191909301209152546001600160a01b031681565b6001546001600160a01b031661014c565b61018661026a366004610c73565b61035e565b606061027961041f565b905090565b610286610491565b60405162461bcd60e51b815260206004820152601e60248201527f72656e6f756e6365206f776e657273686970206e6f7420616c6c6f7765640000604482015260640161010c565b60015433906001600160a01b0316811461033c5760405162461bcd60e51b815260206004820152602960248201527f4f776e61626c6532537465703a2063616c6c6572206973206e6f7420746865206044820152683732bb9037bbb732b960b91b606482015260840161010c565b610345816104ed565b50565b610350610491565b61035a8282610506565b5050565b610366610491565b600180546001600160a01b0383166001600160a01b031990911681179091556103976000546001600160a01b031690565b6001600160a01b03167f38d16b8cac22d99fc7c124b9cd0de2d3fa1faef420bfe791d8c362d765e2270060405160405180910390a350565b600080546001600160a01b038381166001600160a01b0319831681178455604051919092169283917f8be0079c531659141344cd1fd0a4f28419497f9722a3daafe3b4186f6b6457e09190a35050565b6060600080516020610f0083398151915260020180548060200260200160405190810160405280929190818152602001828054801561048757602002820191906000526020600020905b81546001600160a01b03168152600190910190602001808311610469575b5050505050905090565b6000546001600160a01b031633146104eb5760405162461bcd60e51b815260206004820181905260248201527f4f776e61626c653a2063616c6c6572206973206e6f7420746865206f776e6572604482015260640161010c565b565b600180546001600160a01b0319169055610345816103cf565b6001600160a01b0381161561051e5761051e81610527565b61035a8261065c565b600080516020610f0083398151915261053f82610754565b60005b600282015460ff8216101561065757826001600160a01b0316826002018260ff168154811061057357610573610d73565b6000918252602090912001546001600160a01b03161415610645576002820180546105a090600190610d9f565b815481106105b0576105b0610d73565b6000918252602090912001546002830180546001600160a01b039092169160ff84169081106105e1576105e1610d73565b9060005260206000200160006101000a8154816001600160a01b0302191690836001600160a01b031602179055508160020180548061062257610622610db6565b600082815260209020810160001990810180546001600160a01b03191690550190555b8061064f81610dcc565b915050610542565b505050565b600080516020610f0083398151915260005b600282015460ff8216101561071457826001600160a01b0316826002018260ff168154811061069f5761069f610d73565b6000918252602090912001546001600160a01b031614156107025760405162461bcd60e51b815260206004820152601760248201527f657874656e73696f6e20616c7265616479206164646564000000000000000000604482015260640161010c565b8061070c81610dcc565b91505061066e565b5061071e826109e7565b6002018054600181018255600091825260209091200180546001600160a01b0319166001600160a01b0392909216919091179055565b6000816001600160a01b03166389f8132e6040518163ffffffff1660e01b8152600401600060405180830381865afa158015610794573d6000803e3d6000fd5b505050506040513d6000823e601f3d908101601f191682016040526107bc9190810190610dec565b9050600080516020610f0083398151915260005b82518161ffff1610156109e1576000838261ffff16815181106107f5576107f5610d73565b6020908102919091018101516001600160e01b031981166000908152918590526040909120549091506001600160a01b0386811691161461083857610838610eac565b6001600160e01b0319811660009081526020849052604090205460018085018054600160a01b90930461ffff1692909161087191610d9f565b8154811061088157610881610d73565b90600052602060002090600891828204019190066004029054906101000a900460e01b846001018261ffff16815481106108bd576108bd610d73565b90600052602060002090600891828204019190066004026101000a81548163ffffffff021916908360e01c021790555080846000016000866001018461ffff168154811061090d5761090d610d73565b6000918252602080832060088304015460079092166004026101000a90910460e01b6001600160e01b03191683528201929092526040019020805461ffff60a01b1916600160a01b61ffff93909316929092029190911790556001840180548061097957610979610db6565b60008281526020808220600860001990940193840401805463ffffffff600460078716026101000a0219169055919092556001600160e01b0319909316815291849052506040902080546001600160b01b0319169055806109d981610ec2565b9150506107d0565b50505050565b6000816001600160a01b03166389f8132e6040518163ffffffff1660e01b8152600401600060405180830381865afa158015610a27573d6000803e3d6000fd5b505050506040513d6000823e601f3d908101601f19168201604052610a4f9190810190610dec565b7fc8fcad8db84d3cc18b4c41d551ea0ee66dd599cde068d998e57d5e09332c131d54909150600080516020610f008339815191529060005b8351811015610bd1576000848281518110610aa457610aa4610d73565b6020908102919091018101516001600160e01b031981166000908152918690526040909120549091506001600160a01b03168015610b1057604051632c18df3360e01b81526001600160e01b0319831660048201526001600160a01b038216602482015260440161010c565b6040805180820182526001600160a01b03808a16825261ffff80881660208085019182526001600160e01b0319881660009081528b8252958620945185549251909316600160a01b026001600160b01b0319909216929093169190911717909155600180880180549182018155835291206008820401805460e085901c60046007909416939093026101000a92830263ffffffff909302191691909117905583610bb981610ec2565b94505050508080610bc990610ee4565b915050610a87565b5050505050565b6020808252825182820181905260009190848201906040850190845b81811015610c195783516001600160a01b031683529284019291840191600101610bf4565b50909695505050505050565b6001600160a01b038116811461034557600080fd5b60008060408385031215610c4d57600080fd5b8235610c5881610c25565b91506020830135610c6881610c25565b809150509250929050565b600060208284031215610c8557600080fd5b8135610c9081610c25565b9392505050565b634e487b7160e01b600052604160045260246000fd5b604051601f8201601f1916810167ffffffffffffffff81118282101715610cd657610cd6610c97565b604052919050565b60006020808385031215610cf157600080fd5b823567ffffffffffffffff80821115610d0957600080fd5b818501915085601f830112610d1d57600080fd5b813581811115610d2f57610d2f610c97565b610d41601f8201601f19168501610cad565b91508082528684828501011115610d5757600080fd5b8084840185840137600090820190930192909252509392505050565b634e487b7160e01b600052603260045260246000fd5b634e487b7160e01b600052601160045260246000fd5b600082821015610db157610db1610d89565b500390565b634e487b7160e01b600052603160045260246000fd5b600060ff821660ff811415610de357610de3610d89565b60010192915050565b60006020808385031215610dff57600080fd5b825167ffffffffffffffff80821115610e1757600080fd5b818501915085601f830112610e2b57600080fd5b815181811115610e3d57610e3d610c97565b8060051b9150610e4e848301610cad565b8181529183018401918481019088841115610e6857600080fd5b938501935b83851015610ea057845192506001600160e01b031983168314610e905760008081fd5b8282529385019390850190610e6d565b98975050505050505050565b634e487b7160e01b600052600160045260246000fd5b600061ffff80831681811415610eda57610eda610d89565b6001019392505050565b6000600019821415610ef857610ef8610d89565b506001019056fec8fcad8db84d3cc18b4c41d551ea0ee66dd599cde068d998e57d5e09332c131ca164736f6c634300080a000a",
    "linkReferences": {}
  },
  "methodIdentifiers": {
    "_listExtensions()": "6333d001",
    "_registerExtension(address,address)": "89cd9855",
    "acceptOwnership()": "79ba5097",
    "ap()": "3c4f743c",
    "asExtension()": "dc54bc81",
    "defaultOutputToken(address)": "8db87c27",
    "owner()": "8da5cb5b",
    "pendingOwner()": "e30c3978",
    "redemptionStrategiesByName(string)": "dee7fe48",
    "redemptionStrategiesByTokens(address,address)": "a700f9e4",
    "renounceOwnership()": "715018a6",
    "transferOwnership(address)": "f2fde38b"
  }
}