{
  "address": "0x79d01d376e05710B8AB5473ecF9C9c960B1078Eb",
  "abi": [
    {
      "inputs": [],
      "name": "BOOSTER_TYPE",
      "outputs": [
        {
          "internalType": "string",
          "name": "",
          "type": "string"
        }
      ],
      "stateMutability": "view",
      "type": "function"
    },
    {
      "inputs": [
        {
          "internalType": "contract ERC20",
          "name": "strategy",
          "type": "address"
        },
        {
          "internalType": "address",
          "name": "user",
          "type": "address"
        }
      ],
      "name": "boostedBalanceOf",
      "outputs": [
        {
          "internalType": "uint256",
          "name": "",
          "type": "uint256"
        }
      ],
      "stateMutability": "view",
      "type": "function"
    },
    {
      "inputs": [
        {
          "internalType": "contract ERC20",
          "name": "strategy",
          "type": "address"
        }
      ],
      "name": "boostedTotalSupply",
      "outputs": [
        {
          "internalType": "uint256",
          "name": "",
          "type": "uint256"
        }
      ],
      "stateMutability": "view",
      "type": "function"
    }
  ],
  "transactionHash": "0xa162045a34c1ff74b2e3e80bfb30c40bd0776fd659fc34551da91bc72fb54630",
  "args": [],
  "numDeployments": 1,
  "bytecode": {
    "object": "0x608060405234801561001057600080fd5b50610414806100206000396000f3fe608060405234801561001057600080fd5b50600436106100415760003560e01c80631a50ef2f146100465780631e1932fb1461006c5780639a8cca551461007f575b600080fd5b6100596100543660046102ce565b6100c8565b6040519081526020015b60405180910390f35b61005961007a366004610307565b61024c565b6100bb6040518060400160405280601781526020017f4c6f6f706c657373466c79776865656c426f6f7374657200000000000000000081525081565b604051610063919061032b565b6040516370a0823160e01b81526001600160a01b03828116600483015260009182918516906370a0823190602401602060405180830381865afa158015610113573d6000803e3d6000fd5b505050506040513d601f19601f820116820180604052508101906101379190610380565b905060008490506000816001600160a01b031663bd6d894d6040518163ffffffff1660e01b8152600401602060405180830381865afa15801561017e573d6000803e3d6000fd5b505050506040513d601f19601f820116820180604052508101906101a29190610380565b6040516305eff7ef60e21b81526001600160a01b0387811660048301528416906317bfdfbc90602401602060405180830381865afa1580156101e8573d6000803e3d6000fd5b505050506040513d601f19601f8201168201806040525081019061020c9190610380565b61021e90670de0b6b3a76400006103af565b61022891906103ce565b9050808311610238576000610242565b61024281846103f0565b9695505050505050565b6000816001600160a01b03166318160ddd6040518163ffffffff1660e01b8152600401602060405180830381865afa15801561028c573d6000803e3d6000fd5b505050506040513d601f19601f820116820180604052508101906102b09190610380565b92915050565b6001600160a01b03811681146102cb57600080fd5b50565b600080604083850312156102e157600080fd5b82356102ec816102b6565b915060208301356102fc816102b6565b809150509250929050565b60006020828403121561031957600080fd5b8135610324816102b6565b9392505050565b600060208083528351808285015260005b818110156103585785810183015185820160400152820161033c565b8181111561036a576000604083870101525b50601f01601f1916929092016040019392505050565b60006020828403121561039257600080fd5b5051919050565b634e487b7160e01b600052601160045260246000fd5b60008160001904831182151516156103c9576103c9610399565b500290565b6000826103eb57634e487b7160e01b600052601260045260246000fd5b500490565b60008282101561040257610402610399565b50039056fea164736f6c634300080a000a",
    "linkReferences": {}
  },
  "methodIdentifiers": {
    "BOOSTER_TYPE()": "9a8cca55",
    "boostedBalanceOf(address,address)": "1a50ef2f",
    "boostedTotalSupply(address)": "1e1932fb"
  }
}