{
  "address": "0x07354Fe993AC75f034d6d2B04f070aFC9D97e1B1",
  "abi": [
    {
      "inputs": [
        {
          "internalType": "contract IComptroller",
          "name": "comptroller",
          "type": "address"
        }
      ],
      "name": "getMarketRewardsInfo",
      "outputs": [
        {
          "components": [
            {
              "internalType": "uint256",
              "name": "underlyingPrice",
              "type": "uint256"
            },
            {
              "internalType": "contract CErc20Token",
              "name": "market",
              "type": "address"
            },
            {
              "components": [
                {
                  "internalType": "uint256",
                  "name": "rewardSpeedPerSecondPerToken",
                  "type": "uint256"
                },
                {
                  "internalType": "uint256",
                  "name": "rewardTokenPrice",
                  "type": "uint256"
                },
                {
                  "internalType": "uint256",
                  "name": "formattedAPR",
                  "type": "uint256"
                },
                {
                  "internalType": "address",
                  "name": "flywheel",
                  "type": "address"
                },
                {
                  "internalType": "address",
                  "name": "rewardToken",
                  "type": "address"
                }
              ],
              "internalType": "struct MidasFlywheelLensRouter.RewardsInfo[]",
              "name": "rewardsInfo",
              "type": "tuple[]"
            }
          ],
          "internalType": "struct MidasFlywheelLensRouter.MarketRewardsInfo[]",
          "name": "",
          "type": "tuple[]"
        }
      ],
      "stateMutability": "nonpayable",
      "type": "function"
    },
    {
      "inputs": [
        {
          "internalType": "contract CErc20Token[]",
          "name": "markets",
          "type": "address[]"
        }
      ],
      "name": "getMarketRewardsInfo",
      "outputs": [
        {
          "components": [
            {
              "internalType": "uint256",
              "name": "underlyingPrice",
              "type": "uint256"
            },
            {
              "internalType": "contract CErc20Token",
              "name": "market",
              "type": "address"
            },
            {
              "components": [
                {
                  "internalType": "uint256",
                  "name": "rewardSpeedPerSecondPerToken",
                  "type": "uint256"
                },
                {
                  "internalType": "uint256",
                  "name": "rewardTokenPrice",
                  "type": "uint256"
                },
                {
                  "internalType": "uint256",
                  "name": "formattedAPR",
                  "type": "uint256"
                },
                {
                  "internalType": "address",
                  "name": "flywheel",
                  "type": "address"
                },
                {
                  "internalType": "address",
                  "name": "rewardToken",
                  "type": "address"
                }
              ],
              "internalType": "struct MidasFlywheelLensRouter.RewardsInfo[]",
              "name": "rewardsInfo",
              "type": "tuple[]"
            }
          ],
          "internalType": "struct MidasFlywheelLensRouter.MarketRewardsInfo[]",
          "name": "",
          "type": "tuple[]"
        }
      ],
      "stateMutability": "nonpayable",
      "type": "function"
    },
    {
      "inputs": [
        {
          "internalType": "address",
          "name": "user",
          "type": "address"
        },
        {
          "internalType": "contract CErc20Token[]",
          "name": "markets",
          "type": "address[]"
        },
        {
          "internalType": "contract MidasFlywheelCore[]",
          "name": "flywheels",
          "type": "address[]"
        },
        {
          "internalType": "bool[]",
          "name": "accrue",
          "type": "bool[]"
        }
      ],
      "name": "getUnclaimedRewardsByMarkets",
      "outputs": [
        {
          "internalType": "uint256[]",
          "name": "rewards",
          "type": "uint256[]"
        }
      ],
      "stateMutability": "nonpayable",
      "type": "function"
    },
    {
      "inputs": [
        {
          "internalType": "address",
          "name": "user",
          "type": "address"
        },
        {
          "internalType": "contract ERC20",
          "name": "market",
          "type": "address"
        },
        {
          "internalType": "contract MidasFlywheelCore[]",
          "name": "flywheels",
          "type": "address[]"
        },
        {
          "internalType": "bool[]",
          "name": "accrue",
          "type": "bool[]"
        }
      ],
      "name": "getUnclaimedRewardsForMarket",
      "outputs": [
        {
          "internalType": "uint256[]",
          "name": "rewards",
          "type": "uint256[]"
        }
      ],
      "stateMutability": "nonpayable",
      "type": "function"
    }
  ],
  "transactionHash": "0x655b7ab74b37d61b27730c430816ccd079e825cac129fcc7d6fbbae559132620",
  "args": [],
  "numDeployments": 7,
  "bytecode": {
    "object": "0x608060405234801561001057600080fd5b506119e4806100206000396000f3fe608060405234801561001057600080fd5b506004361061004c5760003560e01c80630bd96f4814610051578063193bd4481461007a5780637e70aa491461009a578063c8a6da19146100ad575b600080fd5b61006461005f366004611297565b6100c0565b604051610071919061132b565b60405180910390f35b61008d61008836600461136f565b610380565b604051610071919061138c565b61008d6100a83660046114d3565b6103fd565b6100646100bb366004611571565b610551565b606083806001600160401b038111156100db576100db61146a565b604051908082528060200260200182016040528015610104578160200160208202803683370190505b50915060005b818110156103745760008585838181106101265761012661161d565b905060200201602081019061013b9190611633565b156101e4578787838181106101525761015261161d565b9050602002016020810190610167919061136f565b604051632e6f912b60e21b81526001600160a01b038b811660048301528c81166024830152919091169063b9be44ac906044016020604051808303816000875af11580156101b9573d6000803e3d6000fd5b505050506040513d601f19601f820116820180604052508101906101dd9190611655565b905061027c565b8787838181106101f6576101f661161d565b905060200201602081019061020b919061136f565b604051630ff6b5a760e31b81526001600160a01b038c811660048301529190911690637fb5ad38906024016020604051808303816000875af1158015610255573d6000803e3d6000fd5b505050506040513d601f19601f820116820180604052508101906102799190611655565b90505b8084838151811061028f5761028f61161d565b602002602001015110156102a357806102be565b8382815181106102b5576102b561161d565b60200260200101515b8483815181106102d0576102d061161d565b6020026020010181815250508787838181106102ee576102ee61161d565b9050602002016020810190610303919061136f565b604051633bd73ee360e21b81526001600160a01b038c81166004830152919091169063ef5cfb8c90602401600060405180830381600087803b15801561034857600080fd5b505af115801561035c573d6000803e3d6000fd5b5050505050808061036c90611684565b91505061010a565b50509695505050505050565b60606000826001600160a01b031663b0772d0b6040518163ffffffff1660e01b8152600401600060405180830381865afa1580156103c2573d6000803e3d6000fd5b505050506040513d6000823e601f3d908101601f191682016040526103ea919081019061169f565b90506103f6818461085b565b9392505050565b60606000805b8351811015610546576001600160a01b03821661049c5783818151811061042c5761042c61161d565b60200260200101516001600160a01b0316635fe3b5676040518163ffffffff1660e01b8152600401602060405180830381865afa158015610471573d6000803e3d6000fd5b505050506040513d601f19601f82011682018060405250810190610495919061172d565b9150610534565b816001600160a01b03168482815181106104b8576104b861161d565b60200260200101516001600160a01b0316635fe3b5676040518163ffffffff1660e01b8152600401602060405180830381865afa1580156104fd573d6000803e3d6000fd5b505050506040513d601f19601f82011682018060405250810190610521919061172d565b6001600160a01b03161461053457600080fd5b8061053e81611684565b915050610403565b506103f6838261085b565b6060836001600160401b0381111561056b5761056b61146a565b604051908082528060200260200182016040528015610594578160200160208202803683370190505b50905060005b8481101561084f5760005b878110156107b75760008989838181106105c1576105c161161d565b90506020020160208101906105d6919061136f565b905060008686858181106105ec576105ec61161d565b90506020020160208101906106019190611633565b156106aa578888858181106106185761061861161d565b905060200201602081019061062d919061136f565b604051632e6f912b60e21b81526001600160a01b0384811660048301528e81166024830152919091169063b9be44ac906044016020604051808303816000875af115801561067f573d6000803e3d6000fd5b505050506040513d601f19601f820116820180604052508101906106a39190611655565b9050610742565b8888858181106106bc576106bc61161d565b90506020020160208101906106d1919061136f565b604051630ff6b5a760e31b81526001600160a01b038e811660048301529190911690637fb5ad38906024016020604051808303816000875af115801561071b573d6000803e3d6000fd5b505050506040513d601f19601f8201168201806040525081019061073f9190611655565b90505b808585815181106107555761075561161d565b602002602001015110156107695780610784565b84848151811061077b5761077b61161d565b60200260200101515b8585815181106107965761079661161d565b602002602001018181525050505080806107af90611684565b9150506105a5565b508585828181106107ca576107ca61161d565b90506020020160208101906107df919061136f565b604051633bd73ee360e21b81526001600160a01b038b81166004830152919091169063ef5cfb8c90602401600060405180830381600087803b15801561082457600080fd5b505af1158015610838573d6000803e3d6000fd5b50505050808061084790611684565b91505061059a565b50979650505050505050565b60606000826001600160a01b0316634a76e7276040518163ffffffff1660e01b8152600401600060405180830381865afa15801561089d573d6000803e3d6000fd5b505050506040513d6000823e601f3d908101601f191682016040526108c5919081019061174a565b9050600081516001600160401b038111156108e2576108e261146a565b60405190808252806020026020018201604052801561090b578160200160208202803683370190505b509050600082516001600160401b038111156109295761092961146a565b604051908082528060200260200182016040528015610952578160200160208202803683370190505b509050600083516001600160401b038111156109705761097061146a565b604051908082528060200260200182016040528015610999578160200160208202803683370190505b5090506000866001600160a01b0316637dc0d1d06040518163ffffffff1660e01b8152600401602060405180830381865afa1580156109dc573d6000803e3d6000fd5b505050506040513d601f19601f82011682018060405250810190610a00919061172d565b9050600088516001600160401b03811115610a1d57610a1d61146a565b604051908082528060200260200182016040528015610a6a57816020015b60408051606080820183526000808352602083015291810191909152815260200190600190039081610a3b5790505b50905060005b8951811015610fac57600087516001600160401b03811115610a9457610a9461146a565b604051908082528060200260200182016040528015610b0957816020015b610af66040518060a0016040528060008152602001600081526020016000815260200160006001600160a01b0316815260200160006001600160a01b031681525090565b815260200190600190039081610ab25790505b50905060008b8381518110610b2057610b2061161d565b602002602001015190506000856001600160a01b031663aea91078836001600160a01b0316636f307dc36040518163ffffffff1660e01b8152600401602060405180830381865afa158015610b79573d6000803e3d6000fd5b505050506040513d601f19601f82011682018060405250810190610b9d919061172d565b6040516001600160e01b031960e084901b1681526001600160a01b039091166004820152602401602060405180830381865afa158015610be1573d6000803e3d6000fd5b505050506040513d601f19601f82011682018060405250810190610c059190611655565b905083610dd85760005b8a51811015610dd65760008b8281518110610c2c57610c2c61161d565b60200260200101516001600160a01b031663f7c618c16040518163ffffffff1660e01b8152600401602060405180830381865afa158015610c71573d6000803e3d6000fd5b505050506040513d601f19601f82011682018060405250810190610c95919061172d565b9050808b8381518110610caa57610caa61161d565b6001600160a01b0392831660209182029290920101526040516315d5220f60e31b815282821660048201529089169063aea9107890602401602060405180830381865afa158015610cff573d6000803e3d6000fd5b505050506040513d601f19601f82011682018060405250810190610d239190611655565b8a8381518110610d3557610d3561161d565b602002602001018181525050806001600160a01b031663313ce5676040518163ffffffff1660e01b8152600401602060405180830381865afa158015610d7f573d6000803e3d6000fd5b505050506040513d601f19601f82011682018060405250810190610da391906117d8565b60ff16898381518110610db857610db861161d565b60209081029190910101525080610dce81611684565b915050610c0f565b505b60005b8a51811015610f545760008b8281518110610df857610df861161d565b602002602001015190506000610e2882868c8681518110610e1b57610e1b61161d565b6020026020010151610fbb565b90506000610eb4828d8681518110610e4257610e4261161d565b602002602001015187896001600160a01b031663bd6d894d6040518163ffffffff1660e01b81526004016020604051808303816000875af1158015610e8b573d6000803e3d6000fd5b505050506040513d601f19601f82011682018060405250810190610eaf9190611655565b611175565b90506040518060a001604052808381526020018d8681518110610ed957610ed961161d565b60200260200101518152602001828152602001846001600160a01b031681526020018e8681518110610f0d57610f0d61161d565b60200260200101516001600160a01b0316815250878581518110610f3357610f3361161d565b60200260200101819052505050508080610f4c90611684565b915050610ddb565b506040518060600160405280828152602001836001600160a01b0316815260200184815250858581518110610f8b57610f8b61161d565b60200260200101819052505050508080610fa490611684565b915050610a70565b50955050505050505b92915050565b60405163dde684a560e01b81526001600160a01b038381166004830152600091829182919087169063dde684a59060240160408051808303816000875af115801561100a573d6000803e3d6000fd5b505050506040513d601f19601f8201168201806040525081019061102e91906117fb565b604051632e6f912b60e21b81526001600160a01b038881166004830152600060248301529294509092509087169063b9be44ac906044016020604051808303816000875af1158015611084573d6000803e3d6000fd5b505050506040513d601f19601f820116820180604052508101906110a89190611655565b5060405163dde684a560e01b81526001600160a01b038681166004830152600091829189169063dde684a59060240160408051808303816000875af11580156110f5573d6000803e3d6000fd5b505050506040513d601f19601f8201168201806040525081019061111991906117fb565b915091508263ffffffff168163ffffffff16111561116a5761113b838261184a565b63ffffffff1661115d61114e868561186f565b6001600160e01b0316886111e4565b611167919061188f565b94505b505050509392505050565b600084611184575060006111dc565b600061119085876118b1565b905060006111a2826301e187e06118b1565b905060006111b0868361188f565b905060006111c682670de0b6b3a76400006118b1565b905060006111d4878361188f565b955050505050505b949350505050565b60006012821115611214576111fa6012836118d0565b61120590600a6119cb565b61120f908461188f565b6103f6565b61121f8260126118d0565b61122a90600a6119cb565b6103f690846118b1565b6001600160a01b038116811461124957600080fd5b50565b60008083601f84011261125e57600080fd5b5081356001600160401b0381111561127557600080fd5b6020830191508360208260051b850101111561129057600080fd5b9250929050565b600080600080600080608087890312156112b057600080fd5b86356112bb81611234565b955060208701356112cb81611234565b945060408701356001600160401b03808211156112e757600080fd5b6112f38a838b0161124c565b9096509450606089013591508082111561130c57600080fd5b5061131989828a0161124c565b979a9699509497509295939492505050565b6020808252825182820181905260009190848201906040850190845b8181101561136357835183529284019291840191600101611347565b50909695505050505050565b60006020828403121561138157600080fd5b81356103f681611234565b60006020808301818452808551808352604092508286019150828160051b87010184880160005b8381101561145c57888303603f19018552815180518452878101516001600160a01b03908116898601529087015160608886018190528151818701819052918a019290916080918288019160005b81811015611444578651805185528e8101518f8601528d8101518e86015286810151841687860152850151831685850152958d019560a090930192600101611401565b505050978a01979550505091870191506001016113b3565b509098975050505050505050565b634e487b7160e01b600052604160045260246000fd5b604051601f8201601f191681016001600160401b03811182821017156114a8576114a861146a565b604052919050565b60006001600160401b038211156114c9576114c961146a565b5060051b60200190565b600060208083850312156114e657600080fd5b82356001600160401b038111156114fc57600080fd5b8301601f8101851361150d57600080fd5b803561152061151b826114b0565b611480565b81815260059190911b8201830190838101908783111561153f57600080fd5b928401925b8284101561156657833561155781611234565b82529284019290840190611544565b979650505050505050565b60008060008060008060006080888a03121561158c57600080fd5b873561159781611234565b965060208801356001600160401b03808211156115b357600080fd5b6115bf8b838c0161124c565b909850965060408a01359150808211156115d857600080fd5b6115e48b838c0161124c565b909650945060608a01359150808211156115fd57600080fd5b5061160a8a828b0161124c565b989b979a50959850939692959293505050565b634e487b7160e01b600052603260045260246000fd5b60006020828403121561164557600080fd5b813580151581146103f657600080fd5b60006020828403121561166757600080fd5b5051919050565b634e487b7160e01b600052601160045260246000fd5b60006000198214156116985761169861166e565b5060010190565b600060208083850312156116b257600080fd5b82516001600160401b038111156116c857600080fd5b8301601f810185136116d957600080fd5b80516116e761151b826114b0565b81815260059190911b8201830190838101908783111561170657600080fd5b928401925b8284101561156657835161171e81611234565b8252928401929084019061170b565b60006020828403121561173f57600080fd5b81516103f681611234565b6000602080838503121561175d57600080fd5b82516001600160401b0381111561177357600080fd5b8301601f8101851361178457600080fd5b805161179261151b826114b0565b81815260059190911b820183019083810190878311156117b157600080fd5b928401925b828410156115665783516117c981611234565b825292840192908401906117b6565b6000602082840312156117ea57600080fd5b815160ff811681146103f657600080fd5b6000806040838503121561180e57600080fd5b82516001600160e01b038116811461182557600080fd5b602084015190925063ffffffff8116811461183f57600080fd5b809150509250929050565b600063ffffffff838116908316818110156118675761186761166e565b039392505050565b60006001600160e01b03838116908316818110156118675761186761166e565b6000826118ac57634e487b7160e01b600052601260045260246000fd5b500490565b60008160001904831182151516156118cb576118cb61166e565b500290565b6000828210156118e2576118e261166e565b500390565b600181815b808511156119225781600019048211156119085761190861166e565b8085161561191557918102915b93841c93908002906118ec565b509250929050565b60008261193957506001610fb5565b8161194657506000610fb5565b816001811461195c576002811461196657611982565b6001915050610fb5565b60ff8411156119775761197761166e565b50506001821b610fb5565b5060208310610133831016604e8410600b84101617156119a5575081810a610fb5565b6119af83836118e7565b80600019048211156119c3576119c361166e565b029392505050565b60006103f6838361192a56fea164736f6c634300080a000a",
    "linkReferences": {}
  },
  "methodIdentifiers": {
    "getMarketRewardsInfo(address)": "193bd448",
    "getMarketRewardsInfo(address[])": "7e70aa49",
    "getUnclaimedRewardsByMarkets(address,address[],address[],bool[])": "c8a6da19",
    "getUnclaimedRewardsForMarket(address,address,address[],bool[])": "0bd96f48"
  }
}