{
  "address": "0xdA2A0f6Bc88d5A023A04b8E59C36DE8CC2f828a4",
  "abi": [
    {
      "anonymous": false,
      "inputs": [
        {
          "indexed": false,
          "internalType": "uint8",
          "name": "version",
          "type": "uint8"
        }
      ],
      "name": "Initialized",
      "type": "event"
    },
    {
      "anonymous": false,
      "inputs": [
        {
          "indexed": false,
          "internalType": "address",
          "name": "oldOwner",
          "type": "address"
        },
        {
          "indexed": false,
          "internalType": "address",
          "name": "newOwner",
          "type": "address"
        }
      ],
      "name": "NewOwner",
      "type": "event"
    },
    {
      "anonymous": false,
      "inputs": [
        {
          "indexed": false,
          "internalType": "address",
          "name": "oldPendingOwner",
          "type": "address"
        },
        {
          "indexed": false,
          "internalType": "address",
          "name": "newPendingOwner",
          "type": "address"
        }
      ],
      "name": "NewPendingOwner",
      "type": "event"
    },
    {
      "anonymous": false,
      "inputs": [
        {
          "indexed": true,
          "internalType": "address",
          "name": "previousOwner",
          "type": "address"
        },
        {
          "indexed": true,
          "internalType": "address",
          "name": "newOwner",
          "type": "address"
        }
      ],
      "name": "OwnershipTransferred",
      "type": "event"
    },
    {
      "inputs": [],
      "name": "_acceptOwner",
      "outputs": [],
      "stateMutability": "nonpayable",
      "type": "function"
    },
    {
      "inputs": [
        {
          "internalType": "address",
          "name": "newPendingOwner",
          "type": "address"
        }
      ],
      "name": "_setPendingOwner",
      "outputs": [],
      "stateMutability": "nonpayable",
      "type": "function"
    },
    {
      "inputs": [
        {
          "internalType": "address",
          "name": "vault",
          "type": "address"
        }
      ],
      "name": "addVault",
      "outputs": [
        {
          "internalType": "bool",
          "name": "",
          "type": "bool"
        }
      ],
      "stateMutability": "nonpayable",
      "type": "function"
    },
    {
      "inputs": [],
      "name": "getAllVaults",
      "outputs": [
        {
          "internalType": "contract MultiStrategyVault[]",
          "name": "",
          "type": "address[]"
        }
      ],
      "stateMutability": "view",
      "type": "function"
    },
    {
      "inputs": [],
      "name": "initialize",
      "outputs": [],
      "stateMutability": "nonpayable",
      "type": "function"
    },
    {
      "inputs": [],
      "name": "owner",
      "outputs": [
        {
          "internalType": "address",
          "name": "",
          "type": "address"
        }
      ],
      "stateMutability": "view",
      "type": "function"
    },
    {
      "inputs": [],
      "name": "pendingOwner",
      "outputs": [
        {
          "internalType": "address",
          "name": "",
          "type": "address"
        }
      ],
      "stateMutability": "view",
      "type": "function"
    },
    {
      "inputs": [
        {
          "internalType": "address",
          "name": "vault",
          "type": "address"
        }
      ],
      "name": "removeVault",
      "outputs": [
        {
          "internalType": "bool",
          "name": "",
          "type": "bool"
        }
      ],
      "stateMutability": "nonpayable",
      "type": "function"
    },
    {
      "inputs": [],
      "name": "renounceOwnership",
      "outputs": [],
      "stateMutability": "nonpayable",
      "type": "function"
    },
    {
      "inputs": [
        {
          "internalType": "address",
          "name": "",
          "type": "address"
        }
      ],
      "name": "transferOwnership",
      "outputs": [],
      "stateMutability": "nonpayable",
      "type": "function"
    },
    {
      "inputs": [
        {
          "internalType": "uint256",
          "name": "",
          "type": "uint256"
        }
      ],
      "name": "vaults",
      "outputs": [
        {
          "internalType": "contract MultiStrategyVault",
          "name": "",
          "type": "address"
        }
      ],
      "stateMutability": "view",
      "type": "function"
    }
  ],
  "transactionHash": "0xca308f2bdc0a6de43964e7279aa919ba9c94a4c49026af24d37aa598ccc2661f",
  "args": [],
  "numDeployments": 1,
  "bytecode": {
    "object": "0x608060405234801561001057600080fd5b50610959806100206000396000f3fe608060405234801561001057600080fd5b50600436106100a95760003560e01c80638da5cb5b116100715780638da5cb5b1461012657806397331bf914610137578063ceb68c231461014c578063e30c39781461015f578063f2fde38b14610172578063fc4d33f91461018557600080fd5b8063256b5a02146100ae5780636e96dfd7146100d6578063715018a6146100eb5780638129fc1c146100f35780638c64ea4a146100fb575b600080fd5b6100c16100bc36600461080d565b61018d565b60405190151581526020015b60405180910390f35b6100e96100e436600461080d565b61024c565b005b6100e96102b6565b6100e96102fe565b61010e61010936600461083d565b610410565b6040516001600160a01b0390911681526020016100cd565b6033546001600160a01b031661010e565b61013f61043a565b6040516100cd9190610856565b6100c161015a36600461080d565b61049c565b60655461010e906001600160a01b031681565b6100e961018036600461080d565b6102b6565b6100e96105bd565b60006101976106d1565b60005b6066548110156101f757826001600160a01b0316606682815481106101c1576101c16108a3565b6000918252602090912001546001600160a01b031614156101e55750600092915050565b806101ef816108cf565b91505061019a565b505060668054600181810183556000929092527f46501879b8ca8525e8c2fd519e2fbfcfa2ebea26501294aa02cbfcfb12e943540180546001600160a01b0384166001600160a01b0319909116179055919050565b6102546106d1565b606580546001600160a01b038381166001600160a01b031983168117909355604080519190921680825260208201939093527fb3d55174552271a4f1aaf36b72f50381e892171636b3fb5447fe00e995e7a37b91015b60405180910390a15050565b6102be6106d1565b60405162461bcd60e51b815260206004820152601060248201526f6e6f74207573656420616e796d6f726560801b60448201526064015b60405180910390fd5b600054610100900460ff161580801561031e5750600054600160ff909116105b806103385750303b158015610338575060005460ff166001145b61039b5760405162461bcd60e51b815260206004820152602e60248201527f496e697469616c697a61626c653a20636f6e747261637420697320616c72656160448201526d191e481a5b9a5d1a585b1a5e995960921b60648201526084016102f5565b6000805460ff1916600117905580156103be576000805461ff0019166101001790555b6103c73361072d565b801561040d576000805461ff0019169055604051600181527f7f26b83ff96e1f2b6a682f133852f6798a09c465da95921460cefb38474024989060200160405180910390a15b50565b6066818154811061042057600080fd5b6000918252602090912001546001600160a01b0316905081565b6060606680548060200260200160405190810160405280929190818152602001828054801561049257602002820191906000526020600020905b81546001600160a01b03168152600190910190602001808311610474575b5050505050905090565b60006104a66106d1565b60005b6066548110156105b457826001600160a01b0316606682815481106104d0576104d06108a3565b6000918252602090912001546001600160a01b031614156105a257606680546104fb906001906108ea565b8154811061050b5761050b6108a3565b600091825260209091200154606680546001600160a01b039092169183908110610537576105376108a3565b600091825260209091200180546001600160a01b0319166001600160a01b039290921691909117905560668054610570906001906108ea565b81548110610580576105806108a3565b600091825260209091200180546001600160a01b031916905550600192915050565b806105ac816108cf565b9150506104a9565b50600092915050565b6065546001600160a01b0316331461060f5760405162461bcd60e51b81526020600482015260156024820152743737ba103a3432903832b73234b7339037bbb732b960591b60448201526064016102f5565b60006106236033546001600160a01b031690565b6065549091506001600160a01b031661063b81610761565b606580546001600160a01b0319169055604080516001600160a01b0384168152600060208201527f70aea8d848e8a90fb7661b227dc522eb6395c3dac71b63cb59edd5c9899b2364910160405180910390a1606554604080516001600160a01b03808516825290921660208301527fb3d55174552271a4f1aaf36b72f50381e892171636b3fb5447fe00e995e7a37b91016102aa565b6033546001600160a01b0316331461072b5760405162461bcd60e51b815260206004820181905260248201527f4f776e61626c653a2063616c6c6572206973206e6f7420746865206f776e657260448201526064016102f5565b565b600054610100900460ff166107545760405162461bcd60e51b81526004016102f590610901565b61075c6107b3565b61040d815b603380546001600160a01b038381166001600160a01b0319831681179093556040519116919082907f8be0079c531659141344cd1fd0a4f28419497f9722a3daafe3b4186f6b6457e090600090a35050565b600054610100900460ff166107da5760405162461bcd60e51b81526004016102f590610901565b61072b600054610100900460ff166108045760405162461bcd60e51b81526004016102f590610901565b61072b33610761565b60006020828403121561081f57600080fd5b81356001600160a01b038116811461083657600080fd5b9392505050565b60006020828403121561084f57600080fd5b5035919050565b6020808252825182820181905260009190848201906040850190845b818110156108975783516001600160a01b031683529284019291840191600101610872565b50909695505050505050565b634e487b7160e01b600052603260045260246000fd5b634e487b7160e01b600052601160045260246000fd5b60006000198214156108e3576108e36108b9565b5060010190565b6000828210156108fc576108fc6108b9565b500390565b6020808252602b908201527f496e697469616c697a61626c653a20636f6e7472616374206973206e6f74206960408201526a6e697469616c697a696e6760a81b60608201526080019056fea164736f6c634300080a000a",
    "linkReferences": {}
  },
  "methodIdentifiers": {
    "_acceptOwner()": "fc4d33f9",
    "_setPendingOwner(address)": "6e96dfd7",
    "addVault(address)": "256b5a02",
    "getAllVaults()": "97331bf9",
    "initialize()": "8129fc1c",
    "owner()": "8da5cb5b",
    "pendingOwner()": "e30c3978",
    "removeVault(address)": "ceb68c23",
    "renounceOwnership()": "715018a6",
    "transferOwnership(address)": "f2fde38b",
    "vaults(uint256)": "8c64ea4a"
  }
}