{
  "address": "0xD5341D499980237012e16F430Ff6E266c4d472e4",
  "abi": [
    {
      "anonymous": false,
      "inputs": [
        {
          "indexed": false,
          "internalType": "uint8",
          "name": "version",
          "type": "uint8"
        }
      ],
      "name": "Initialized",
      "type": "event"
    },
    {
      "anonymous": false,
      "inputs": [
        {
          "indexed": false,
          "internalType": "address",
          "name": "oldOwner",
          "type": "address"
        },
        {
          "indexed": false,
          "internalType": "address",
          "name": "newOwner",
          "type": "address"
        }
      ],
      "name": "NewOwner",
      "type": "event"
    },
    {
      "anonymous": false,
      "inputs": [
        {
          "indexed": false,
          "internalType": "address",
          "name": "oldPendingOwner",
          "type": "address"
        },
        {
          "indexed": false,
          "internalType": "address",
          "name": "newPendingOwner",
          "type": "address"
        }
      ],
      "name": "NewPendingOwner",
      "type": "event"
    },
    {
      "anonymous": false,
      "inputs": [
        {
          "indexed": true,
          "internalType": "address",
          "name": "previousOwner",
          "type": "address"
        },
        {
          "indexed": true,
          "internalType": "address",
          "name": "newOwner",
          "type": "address"
        }
      ],
      "name": "OwnershipTransferred",
      "type": "event"
    },
    {
      "inputs": [],
      "name": "_acceptOwner",
      "outputs": [],
      "stateMutability": "nonpayable",
      "type": "function"
    },
    {
      "inputs": [
        {
          "internalType": "address",
          "name": "newPendingOwner",
          "type": "address"
        }
      ],
      "name": "_setPendingOwner",
      "outputs": [],
      "stateMutability": "nonpayable",
      "type": "function"
    },
    {
      "inputs": [
        {
          "internalType": "address",
          "name": "vault",
          "type": "address"
        }
      ],
      "name": "addVault",
      "outputs": [
        {
          "internalType": "bool",
          "name": "",
          "type": "bool"
        }
      ],
      "stateMutability": "nonpayable",
      "type": "function"
    },
    {
      "inputs": [],
      "name": "getAllVaults",
      "outputs": [
        {
          "internalType": "contract OptimizedAPRVault[]",
          "name": "",
          "type": "address[]"
        }
      ],
      "stateMutability": "view",
      "type": "function"
    },
    {
      "inputs": [
        {
          "internalType": "address",
          "name": "account",
          "type": "address"
        }
      ],
      "name": "getClaimableRewards",
      "outputs": [
        {
          "internalType": "address[]",
          "name": "flywheels_",
          "type": "address[]"
        },
        {
          "internalType": "uint256[]",
          "name": "rewards_",
          "type": "uint256[]"
        }
      ],
      "stateMutability": "nonpayable",
      "type": "function"
    },
    {
      "inputs": [],
      "name": "getVaultsData",
      "outputs": [
        {
          "components": [
            {
              "internalType": "address",
              "name": "asset",
              "type": "address"
            },
            {
              "internalType": "string",
              "name": "assetSymbol",
              "type": "string"
            },
            {
              "internalType": "uint8",
              "name": "assetDecimals",
              "type": "uint8"
            },
            {
              "internalType": "uint256",
              "name": "estimatedTotalAssets",
              "type": "uint256"
            },
            {
              "internalType": "uint256",
              "name": "apr",
              "type": "uint256"
            },
            {
              "internalType": "uint256",
              "name": "adaptersCount",
              "type": "uint256"
            },
            {
              "internalType": "bool",
              "name": "isEmergencyStopped",
              "type": "bool"
            },
            {
              "internalType": "uint64",
              "name": "performanceFee",
              "type": "uint64"
            },
            {
              "internalType": "uint64",
              "name": "depositFee",
              "type": "uint64"
            },
            {
              "internalType": "uint64",
              "name": "withdrawalFee",
              "type": "uint64"
            },
            {
              "internalType": "uint64",
              "name": "managementFee",
              "type": "uint64"
            },
            {
              "components": [
                {
                  "internalType": "address",
                  "name": "adapter",
                  "type": "address"
                },
                {
                  "internalType": "address",
                  "name": "market",
                  "type": "address"
                },
                {
                  "internalType": "address",
                  "name": "pool",
                  "type": "address"
                }
              ],
              "internalType": "struct OptimizedVaultsRegistry.AdapterInfo[]",
              "name": "adaptersData",
              "type": "tuple[]"
            }
          ],
          "internalType": "struct OptimizedVaultsRegistry.VaultInfo[]",
          "name": "vaultsData",
          "type": "tuple[]"
        }
      ],
      "stateMutability": "view",
      "type": "function"
    },
    {
      "inputs": [],
      "name": "initialize",
      "outputs": [],
      "stateMutability": "nonpayable",
      "type": "function"
    },
    {
      "inputs": [],
      "name": "owner",
      "outputs": [
        {
          "internalType": "address",
          "name": "",
          "type": "address"
        }
      ],
      "stateMutability": "view",
      "type": "function"
    },
    {
      "inputs": [],
      "name": "pendingOwner",
      "outputs": [
        {
          "internalType": "address",
          "name": "",
          "type": "address"
        }
      ],
      "stateMutability": "view",
      "type": "function"
    },
    {
      "inputs": [
        {
          "internalType": "address",
          "name": "vault",
          "type": "address"
        }
      ],
      "name": "removeVault",
      "outputs": [
        {
          "internalType": "bool",
          "name": "",
          "type": "bool"
        }
      ],
      "stateMutability": "nonpayable",
      "type": "function"
    },
    {
      "inputs": [],
      "name": "renounceOwnership",
      "outputs": [],
      "stateMutability": "nonpayable",
      "type": "function"
    },
    {
      "inputs": [],
      "name": "setEmergencyExit",
      "outputs": [],
      "stateMutability": "nonpayable",
      "type": "function"
    },
    {
      "inputs": [
        {
          "internalType": "address",
          "name": "",
          "type": "address"
        }
      ],
      "name": "transferOwnership",
      "outputs": [],
      "stateMutability": "nonpayable",
      "type": "function"
    },
    {
      "inputs": [
        {
          "internalType": "uint256",
          "name": "",
          "type": "uint256"
        }
      ],
      "name": "vaults",
      "outputs": [
        {
          "internalType": "contract OptimizedAPRVault",
          "name": "",
          "type": "address"
        }
      ],
      "stateMutability": "view",
      "type": "function"
    }
  ],
  "transactionHash": "0x077152347988f79bf622f20a1f865e526ec8ffc378f88fd7e90652fd4231e097",
  "args": [],
  "numDeployments": 1,
  "bytecode": {
    "object": "0x608060405234801561001057600080fd5b50611c98806100206000396000f3fe608060405234801561001057600080fd5b50600436106100ea5760003560e01c80638da5cb5b1161008c578063e30c397811610066578063e30c3978146101d6578063f2fde38b146101e9578063fc4d33f9146101fc578063fcf2d0ad1461020457600080fd5b80638da5cb5b1461019d57806397331bf9146101ae578063ceb68c23146101c357600080fd5b80636e96dfd7116100c85780636e96dfd71461014d578063715018a6146101625780638129fc1c1461016a5780638c64ea4a1461017257600080fd5b8063256b5a02146100ef578063308e401e146101175780634a672a5414610138575b600080fd5b6101026100fd366004611621565b61020c565b60405190151581526020015b60405180910390f35b61012a610125366004611621565b6102ca565b60405161010e929190611645565b6101406105f8565b60405161010e9190611784565b61016061015b366004611621565b610e2e565b005b610160610e98565b610160610ee0565b6101856101803660046118a0565b610ff2565b6040516001600160a01b03909116815260200161010e565b6033546001600160a01b0316610185565b6101b661101c565b60405161010e91906118b9565b6101026101d1366004611621565b61107e565b606554610185906001600160a01b031681565b6101606101f7366004611621565b610e98565b61016061119f565b6101606112b3565b60006102166114d0565b60005b60665481101561027657826001600160a01b03166066828154811061024057610240611906565b6000918252602090912001546001600160a01b031614156102645750600092915050565b8061026e81611932565b915050610219565b505060668054600180820183556000929092527f46501879b8ca8525e8c2fd519e2fbfcfa2ebea26501294aa02cbfcfb12e943540180546001600160a01b0319166001600160a01b0384161790555b919050565b6060806000805b606654811015610389576000606682815481106102f0576102f0611906565b600091825260208220015460408051630e9fa58760e31b815290516001600160a01b03909216926374fd2c38926004808401938290030181865afa15801561033c573d6000803e3d6000fd5b505050506040513d6000823e601f3d908101601f191682016040526103649190810190611993565b90508051836103739190611a44565b925050808061038190611932565b9150506102d1565b50806001600160401b038111156103a2576103a261194d565b6040519080825280602002602001820160405280156103cb578160200160208202803683370190505b509250806001600160401b038111156103e6576103e661194d565b60405190808252806020026020018201604052801561040f578160200160208202803683370190505b50915060005b6066548110156105f15760006066828154811061043457610434611906565b9060005260206000200160009054906101000a90046001600160a01b031690506000816001600160a01b03166374fd2c386040518163ffffffff1660e01b8152600401600060405180830381865afa158015610494573d6000803e3d6000fd5b505050506040513d6000823e601f3d908101601f191682016040526104bc9190810190611993565b805190915060005b818110156105da5760008382815181106104e0576104e0611906565b6020026020010151905080898385896104f99190611a5c565b6105039190611a44565b8151811061051357610513611906565b6001600160a01b039283166020918202929092010152604051632e6f912b60e21b815286821660048201528b821660248201529082169063b9be44ac906044016020604051808303816000875af1158015610572573d6000803e3d6000fd5b505050506040513d601f19601f820116820180604052508101906105969190611a7b565b88836105a2868a611a5c565b6105ac9190611a44565b815181106105bc576105bc611906565b602090810291909101015250806105d281611932565b9150506104c4565b5050505080806105e990611932565b915050610415565b5050915091565b6066546060906001600160401b038111156106155761061561194d565b6040519080825280602002602001820160405280156106a657816020015b604080516101808101825260008082526060602083018190529282018190528282018190526080820181905260a0820181905260c0820181905260e08201819052610100820181905261012082018190526101408201526101608101919091528152602001906001900390816106335790505b50905060005b606654811015610e2a576000606682815481106106cb576106cb611906565b6000918252602082200154606680546001600160a01b03909216935090849081106106f8576106f8611906565b6000918252602091829020015460408051637c7a561b60e01b815290516001600160a01b0390921692637c7a561b926004808401938290030181865afa158015610746573d6000803e3d6000fd5b505050506040513d601f19601f8201168201806040525081019061076a9190611a94565b905060008160ff166001600160401b038111156107895761078961194d565b6040519080825280602002602001820160405280156107d457816020015b60408051606081018252600080825260208083018290529282015282526000199092019101816107a75790505b50905060005b8260ff168110156109f1576000606686815481106107fa576107fa611906565b6000918252602090912001546040516313bd406b60e21b8152600481018490526001600160a01b0390911690634ef501ac906024016040805180830381865afa15801561084b573d6000803e3d6000fd5b505050506040513d601f19601f8201168201806040525081019061086f9190611ace565b5090506000816001600160a01b03166380f556056040518163ffffffff1660e01b8152600401602060405180830381865afa1580156108b2573d6000803e3d6000fd5b505050506040513d601f19601f820116820180604052508101906108d69190611b03565b9050818484815181106108eb576108eb611906565b6020026020010151600001906001600160a01b031690816001600160a01b0316815250508084848151811061092257610922611906565b6020026020010151602001906001600160a01b031690816001600160a01b031681525050806001600160a01b0316635fe3b5676040518163ffffffff1660e01b8152600401602060405180830381865afa158015610984573d6000803e3d6000fd5b505050506040513d601f19601f820116820180604052508101906109a89190611b03565b8484815181106109ba576109ba611906565b6020026020010151604001906001600160a01b031690816001600160a01b0316815250505050806109ea90611932565b90506107da565b50600080600080866001600160a01b0316639af1d35a6040518163ffffffff1660e01b8152600401608060405180830381865afa158015610a36573d6000803e3d6000fd5b505050506040513d601f19601f82011682018060405250810190610a5a9190611b20565b9350935093509350604051806101800160405280886001600160a01b03166338d52e0f6040518163ffffffff1660e01b8152600401602060405180830381865afa158015610aac573d6000803e3d6000fd5b505050506040513d601f19601f82011682018060405250810190610ad09190611b03565b6001600160a01b03168152602001886001600160a01b03166338d52e0f6040518163ffffffff1660e01b8152600401602060405180830381865afa158015610b1c573d6000803e3d6000fd5b505050506040513d601f19601f82011682018060405250810190610b409190611b03565b6001600160a01b03166395d89b416040518163ffffffff1660e01b8152600401600060405180830381865afa158015610b7d573d6000803e3d6000fd5b505050506040513d6000823e601f3d908101601f19168201604052610ba59190810190611b74565b8152602001886001600160a01b03166338d52e0f6040518163ffffffff1660e01b8152600401602060405180830381865afa158015610be8573d6000803e3d6000fd5b505050506040513d601f19601f82011682018060405250810190610c0c9190611b03565b6001600160a01b031663313ce5676040518163ffffffff1660e01b8152600401602060405180830381865afa158015610c49573d6000803e3d6000fd5b505050506040513d601f19601f82011682018060405250810190610c6d9190611a94565b60ff168152602001886001600160a01b031663efbb5cb06040518163ffffffff1660e01b8152600401602060405180830381865afa158015610cb3573d6000803e3d6000fd5b505050506040513d601f19601f82011682018060405250810190610cd79190611a7b565b8152602001886001600160a01b0316635a5cd45e6040518163ffffffff1660e01b8152600401602060405180830381865afa158015610d1a573d6000803e3d6000fd5b505050506040513d601f19601f82011682018060405250810190610d3e9190611a7b565b81526020018760ff168152602001886001600160a01b0316635641ec036040518163ffffffff1660e01b8152600401602060405180830381865afa158015610d8a573d6000803e3d6000fd5b505050506040513d601f19601f82011682018060405250810190610dae9190611c07565b15158152602001856001600160401b03168152602001846001600160401b03168152602001836001600160401b03168152602001826001600160401b0316815260200186815250898981518110610e0757610e07611906565b60200260200101819052505050505050505080610e2390611932565b90506106ac565b5090565b610e366114d0565b606580546001600160a01b038381166001600160a01b031983168117909355604080519190921680825260208201939093527fb3d55174552271a4f1aaf36b72f50381e892171636b3fb5447fe00e995e7a37b91015b60405180910390a15050565b610ea06114d0565b60405162461bcd60e51b815260206004820152601060248201526f6e6f74207573656420616e796d6f726560801b60448201526064015b60405180910390fd5b600054610100900460ff1615808015610f005750600054600160ff909116105b80610f1a5750303b158015610f1a575060005460ff166001145b610f7d5760405162461bcd60e51b815260206004820152602e60248201527f496e697469616c697a61626c653a20636f6e747261637420697320616c72656160448201526d191e481a5b9a5d1a585b1a5e995960921b6064820152608401610ed7565b6000805460ff191660011790558015610fa0576000805461ff0019166101001790555b610fa93361152c565b8015610fef576000805461ff0019169055604051600181527f7f26b83ff96e1f2b6a682f133852f6798a09c465da95921460cefb38474024989060200160405180910390a15b50565b6066818154811061100257600080fd5b6000918252602090912001546001600160a01b0316905081565b6060606680548060200260200160405190810160405280929190818152602001828054801561107457602002820191906000526020600020905b81546001600160a01b03168152600190910190602001808311611056575b5050505050905090565b60006110886114d0565b60005b60665481101561119657826001600160a01b0316606682815481106110b2576110b2611906565b6000918252602090912001546001600160a01b0316141561118457606680546110dd90600190611c29565b815481106110ed576110ed611906565b600091825260209091200154606680546001600160a01b03909216918390811061111957611119611906565b600091825260209091200180546001600160a01b0319166001600160a01b03929092169190911790556066805461115290600190611c29565b8154811061116257611162611906565b600091825260209091200180546001600160a01b031916905550600192915050565b8061118e81611932565b91505061108b565b50600092915050565b6065546001600160a01b031633146111f15760405162461bcd60e51b81526020600482015260156024820152743737ba103a3432903832b73234b7339037bbb732b960591b6044820152606401610ed7565b60006112056033546001600160a01b031690565b6065549091506001600160a01b031661121d81611560565b606580546001600160a01b0319169055604080516001600160a01b0384168152600060208201527f70aea8d848e8a90fb7661b227dc522eb6395c3dac71b63cb59edd5c9899b2364910160405180910390a1606554604080516001600160a01b03808516825290921660208301527fb3d55174552271a4f1aaf36b72f50381e892171636b3fb5447fe00e995e7a37b9101610e8c565b6112bb6114d0565b60005b606654811015610fef576000606682815481106112dd576112dd611906565b6000918252602091829020015460408051637c7a561b60e01b815290516001600160a01b0390921692637c7a561b926004808401938290030181865afa15801561132b573d6000803e3d6000fd5b505050506040513d601f19601f8201168201806040525081019061134f9190611a94565b905060005b8160ff1681101561144a5760006066848154811061137457611374611906565b6000918252602090912001546040516313bd406b60e21b8152600481018490526001600160a01b0390911690634ef501ac906024016040805180830381865afa1580156113c5573d6000803e3d6000fd5b505050506040513d601f19601f820116820180604052508101906113e99190611ace565b509050806001600160a01b031663283579786040518163ffffffff1660e01b8152600401600060405180830381600087803b15801561142757600080fd5b505af1925050508015611438575060015b505061144381611932565b9050611354565b506066828154811061145e5761145e611906565b60009182526020822001546040805163fcf2d0ad60e01b815290516001600160a01b039092169263fcf2d0ad9260048084019382900301818387803b1580156114a657600080fd5b505af11580156114ba573d6000803e3d6000fd5b5050505050806114c990611932565b90506112be565b6033546001600160a01b0316331461152a5760405162461bcd60e51b815260206004820181905260248201527f4f776e61626c653a2063616c6c6572206973206e6f7420746865206f776e65726044820152606401610ed7565b565b600054610100900460ff166115535760405162461bcd60e51b8152600401610ed790611c40565b61155b6115b2565b610fef815b603380546001600160a01b038381166001600160a01b0319831681179093556040519116919082907f8be0079c531659141344cd1fd0a4f28419497f9722a3daafe3b4186f6b6457e090600090a35050565b600054610100900460ff166115d95760405162461bcd60e51b8152600401610ed790611c40565b61152a600054610100900460ff166116035760405162461bcd60e51b8152600401610ed790611c40565b61152a33611560565b6001600160a01b0381168114610fef57600080fd5b60006020828403121561163357600080fd5b813561163e8161160c565b9392505050565b604080825283519082018190526000906020906060840190828701845b828110156116875781516001600160a01b031684529284019290840190600101611662565b5050508381038285015284518082528583019183019060005b818110156116bc578351835292840192918401916001016116a0565b5090979650505050505050565b60005b838110156116e45781810151838201526020016116cc565b838111156116f3576000848401525b50505050565b600081518084526117118160208601602086016116c9565b601f01601f19169290920160200192915050565b600081518084526020808501945080840160005b8381101561177957815180516001600160a01b039081168952848201518116858a0152604091820151169088015260609096019590820190600101611739565b509495945050505050565b60006020808301818452808551808352604092508286019150828160051b87010184880160005b8381101561189257888303603f19018552815180516001600160a01b0316845261018088820151818a8701526117e3828701826116f9565b915050878201516117f88987018260ff169052565b50606082810151908601526080808301519086015260a0808301519086015260c08083015115159086015260e0808301516001600160401b039081169187019190915261010080840151821690870152610120808401518216908701526101408084015190911690860152610160918201518582039286019290925261187e8183611725565b9689019694505050908601906001016117ab565b509098975050505050505050565b6000602082840312156118b257600080fd5b5035919050565b6020808252825182820181905260009190848201906040850190845b818110156118fa5783516001600160a01b0316835292840192918401916001016118d5565b50909695505050505050565b634e487b7160e01b600052603260045260246000fd5b634e487b7160e01b600052601160045260246000fd5b60006000198214156119465761194661191c565b5060010190565b634e487b7160e01b600052604160045260246000fd5b604051601f8201601f191681016001600160401b038111828210171561198b5761198b61194d565b604052919050565b600060208083850312156119a657600080fd5b82516001600160401b03808211156119bd57600080fd5b818501915085601f8301126119d157600080fd5b8151818111156119e3576119e361194d565b8060051b91506119f4848301611963565b8181529183018401918481019088841115611a0e57600080fd5b938501935b83851015611a385784519250611a288361160c565b8282529385019390850190611a13565b98975050505050505050565b60008219821115611a5757611a5761191c565b500190565b6000816000190483118215151615611a7657611a7661191c565b500290565b600060208284031215611a8d57600080fd5b5051919050565b600060208284031215611aa657600080fd5b815160ff8116811461163e57600080fd5b80516001600160401b03811681146102c557600080fd5b60008060408385031215611ae157600080fd5b8251611aec8161160c565b9150611afa60208401611ab7565b90509250929050565b600060208284031215611b1557600080fd5b815161163e8161160c565b60008060008060808587031215611b3657600080fd5b611b3f85611ab7565b9350611b4d60208601611ab7565b9250611b5b60408601611ab7565b9150611b6960608601611ab7565b905092959194509250565b600060208284031215611b8657600080fd5b81516001600160401b0380821115611b9d57600080fd5b818401915084601f830112611bb157600080fd5b815181811115611bc357611bc361194d565b611bd6601f8201601f1916602001611963565b9150808252856020828501011115611bed57600080fd5b611bfe8160208401602086016116c9565b50949350505050565b600060208284031215611c1957600080fd5b8151801515811461163e57600080fd5b600082821015611c3b57611c3b61191c565b500390565b6020808252602b908201527f496e697469616c697a61626c653a20636f6e7472616374206973206e6f74206960408201526a6e697469616c697a696e6760a81b60608201526080019056fea164736f6c634300080a000a",
    "linkReferences": {}
  },
  "methodIdentifiers": {
    "_acceptOwner()": "fc4d33f9",
    "_setPendingOwner(address)": "6e96dfd7",
    "addVault(address)": "256b5a02",
    "getAllVaults()": "97331bf9",
    "getClaimableRewards(address)": "308e401e",
    "getVaultsData()": "4a672a54",
    "initialize()": "8129fc1c",
    "owner()": "8da5cb5b",
    "pendingOwner()": "e30c3978",
    "removeVault(address)": "ceb68c23",
    "renounceOwnership()": "715018a6",
    "setEmergencyExit()": "fcf2d0ad",
    "transferOwnership(address)": "f2fde38b",
    "vaults(uint256)": "8c64ea4a"
  }
}