{
  "address": "0x571CFc376566231E2592Fc9Bf998469ea49A604F",
  "abi": [
    {
      "inputs": [],
      "stateMutability": "nonpayable",
      "type": "constructor"
    },
    {
      "inputs": [],
      "name": "AssetInvalid",
      "type": "error"
    },
    {
      "inputs": [
        {
          "internalType": "bytes4",
          "name": "_functionSelector",
          "type": "bytes4"
        },
        {
          "internalType": "address",
          "name": "_currentImpl",
          "type": "address"
        }
      ],
      "name": "FunctionAlreadyAdded",
      "type": "error"
    },
    {
      "inputs": [],
      "name": "InvalidConfig",
      "type": "error"
    },
    {
      "inputs": [],
      "name": "InvalidFeeRecipient",
      "type": "error"
    },
    {
      "inputs": [],
      "name": "InvalidVaultFees",
      "type": "error"
    },
    {
      "inputs": [],
      "name": "NotPassedQuitPeriod",
      "type": "error"
    },
    {
      "anonymous": false,
      "inputs": [
        {
          "indexed": true,
          "internalType": "address",
          "name": "owner",
          "type": "address"
        },
        {
          "indexed": true,
          "internalType": "address",
          "name": "spender",
          "type": "address"
        },
        {
          "indexed": false,
          "internalType": "uint256",
          "name": "value",
          "type": "uint256"
        }
      ],
      "name": "Approval",
      "type": "event"
    },
    {
      "anonymous": false,
      "inputs": [
        {
          "indexed": true,
          "internalType": "address",
          "name": "sender",
          "type": "address"
        },
        {
          "indexed": true,
          "internalType": "address",
          "name": "owner",
          "type": "address"
        },
        {
          "indexed": false,
          "internalType": "uint256",
          "name": "assets",
          "type": "uint256"
        },
        {
          "indexed": false,
          "internalType": "uint256",
          "name": "shares",
          "type": "uint256"
        }
      ],
      "name": "Deposit",
      "type": "event"
    },
    {
      "anonymous": false,
      "inputs": [
        {
          "indexed": false,
          "internalType": "uint8",
          "name": "version",
          "type": "uint8"
        }
      ],
      "name": "Initialized",
      "type": "event"
    },
    {
      "anonymous": false,
      "inputs": [
        {
          "components": [
            {
              "internalType": "contract CompoundMarketERC4626",
              "name": "adapter",
              "type": "address"
            },
            {
              "internalType": "uint64",
              "name": "allocation",
              "type": "uint64"
            }
          ],
          "indexed": false,
          "internalType": "struct AdapterConfig[10]",
          "name": "newAdapter",
          "type": "tuple[10]"
        },
        {
          "indexed": false,
          "internalType": "uint8",
          "name": "adaptersCount",
          "type": "uint8"
        },
        {
          "indexed": false,
          "internalType": "uint256",
          "name": "timestamp",
          "type": "uint256"
        }
      ],
      "name": "NewAdaptersProposed",
      "type": "event"
    },
    {
      "anonymous": false,
      "inputs": [
        {
          "indexed": true,
          "internalType": "address",
          "name": "previousOwner",
          "type": "address"
        },
        {
          "indexed": true,
          "internalType": "address",
          "name": "newOwner",
          "type": "address"
        }
      ],
      "name": "OwnershipTransferStarted",
      "type": "event"
    },
    {
      "anonymous": false,
      "inputs": [
        {
          "indexed": true,
          "internalType": "address",
          "name": "previousOwner",
          "type": "address"
        },
        {
          "indexed": true,
          "internalType": "address",
          "name": "newOwner",
          "type": "address"
        }
      ],
      "name": "OwnershipTransferred",
      "type": "event"
    },
    {
      "anonymous": false,
      "inputs": [
        {
          "indexed": false,
          "internalType": "address",
          "name": "account",
          "type": "address"
        }
      ],
      "name": "Paused",
      "type": "event"
    },
    {
      "anonymous": false,
      "inputs": [
        {
          "indexed": true,
          "internalType": "address",
          "name": "newDestination",
          "type": "address"
        }
      ],
      "name": "RewardDestinationUpdate",
      "type": "event"
    },
    {
      "anonymous": false,
      "inputs": [
        {
          "indexed": true,
          "internalType": "address",
          "name": "from",
          "type": "address"
        },
        {
          "indexed": true,
          "internalType": "address",
          "name": "to",
          "type": "address"
        },
        {
          "indexed": false,
          "internalType": "uint256",
          "name": "value",
          "type": "uint256"
        }
      ],
      "name": "Transfer",
      "type": "event"
    },
    {
      "anonymous": false,
      "inputs": [
        {
          "indexed": false,
          "internalType": "address",
          "name": "account",
          "type": "address"
        }
      ],
      "name": "Unpaused",
      "type": "event"
    },
    {
      "anonymous": false,
      "inputs": [
        {
          "indexed": true,
          "internalType": "address",
          "name": "sender",
          "type": "address"
        },
        {
          "indexed": true,
          "internalType": "address",
          "name": "receiver",
          "type": "address"
        },
        {
          "indexed": true,
          "internalType": "address",
          "name": "owner",
          "type": "address"
        },
        {
          "indexed": false,
          "internalType": "uint256",
          "name": "assets",
          "type": "uint256"
        },
        {
          "indexed": false,
          "internalType": "uint256",
          "name": "shares",
          "type": "uint256"
        }
      ],
      "name": "Withdraw",
      "type": "event"
    },
    {
      "inputs": [],
      "name": "DECIMAL_OFFSET",
      "outputs": [
        {
          "internalType": "uint8",
          "name": "",
          "type": "uint8"
        }
      ],
      "stateMutability": "view",
      "type": "function"
    },
    {
      "inputs": [],
      "name": "_getExtensionFunctions",
      "outputs": [
        {
          "internalType": "bytes4[]",
          "name": "",
          "type": "bytes4[]"
        }
      ],
      "stateMutability": "pure",
      "type": "function"
    },
    {
      "inputs": [],
      "name": "acceptOwnership",
      "outputs": [],
      "stateMutability": "nonpayable",
      "type": "function"
    },
    {
      "inputs": [
        {
          "internalType": "uint256",
          "name": "",
          "type": "uint256"
        }
      ],
      "name": "adapters",
      "outputs": [
        {
          "internalType": "contract CompoundMarketERC4626",
          "name": "adapter",
          "type": "address"
        },
        {
          "internalType": "uint64",
          "name": "allocation",
          "type": "uint64"
        }
      ],
      "stateMutability": "view",
      "type": "function"
    },
    {
      "inputs": [],
      "name": "adaptersCount",
      "outputs": [
        {
          "internalType": "uint8",
          "name": "",
          "type": "uint8"
        }
      ],
      "stateMutability": "view",
      "type": "function"
    },
    {
      "inputs": [
        {
          "internalType": "contract IERC20Upgradeable",
          "name": "token_",
          "type": "address"
        }
      ],
      "name": "addRewardToken",
      "outputs": [],
      "stateMutability": "nonpayable",
      "type": "function"
    },
    {
      "inputs": [
        {
          "internalType": "address",
          "name": "owner",
          "type": "address"
        },
        {
          "internalType": "address",
          "name": "spender",
          "type": "address"
        }
      ],
      "name": "allowance",
      "outputs": [
        {
          "internalType": "uint256",
          "name": "",
          "type": "uint256"
        }
      ],
      "stateMutability": "view",
      "type": "function"
    },
    {
      "inputs": [
        {
          "internalType": "address",
          "name": "spender",
          "type": "address"
        },
        {
          "internalType": "uint256",
          "name": "amount",
          "type": "uint256"
        }
      ],
      "name": "approve",
      "outputs": [
        {
          "internalType": "bool",
          "name": "",
          "type": "bool"
        }
      ],
      "stateMutability": "nonpayable",
      "type": "function"
    },
    {
      "inputs": [],
      "name": "asset",
      "outputs": [
        {
          "internalType": "address",
          "name": "",
          "type": "address"
        }
      ],
      "stateMutability": "view",
      "type": "function"
    },
    {
      "inputs": [],
      "name": "assetsCheckpoint",
      "outputs": [
        {
          "internalType": "uint256",
          "name": "",
          "type": "uint256"
        }
      ],
      "stateMutability": "view",
      "type": "function"
    },
    {
      "inputs": [
        {
          "internalType": "address",
          "name": "account",
          "type": "address"
        }
      ],
      "name": "balanceOf",
      "outputs": [
        {
          "internalType": "uint256",
          "name": "",
          "type": "uint256"
        }
      ],
      "stateMutability": "view",
      "type": "function"
    },
    {
      "inputs": [],
      "name": "claimRewards",
      "outputs": [],
      "stateMutability": "nonpayable",
      "type": "function"
    },
    {
      "inputs": [
        {
          "internalType": "uint256",
          "name": "shares",
          "type": "uint256"
        }
      ],
      "name": "convertToAssets",
      "outputs": [
        {
          "internalType": "uint256",
          "name": "assets",
          "type": "uint256"
        }
      ],
      "stateMutability": "view",
      "type": "function"
    },
    {
      "inputs": [
        {
          "internalType": "uint256",
          "name": "assets",
          "type": "uint256"
        }
      ],
      "name": "convertToShares",
      "outputs": [
        {
          "internalType": "uint256",
          "name": "shares",
          "type": "uint256"
        }
      ],
      "stateMutability": "view",
      "type": "function"
    },
    {
      "inputs": [],
      "name": "decimals",
      "outputs": [
        {
          "internalType": "uint8",
          "name": "",
          "type": "uint8"
        }
      ],
      "stateMutability": "view",
      "type": "function"
    },
    {
      "inputs": [
        {
          "internalType": "address",
          "name": "spender",
          "type": "address"
        },
        {
          "internalType": "uint256",
          "name": "subtractedValue",
          "type": "uint256"
        }
      ],
      "name": "decreaseAllowance",
      "outputs": [
        {
          "internalType": "bool",
          "name": "",
          "type": "bool"
        }
      ],
      "stateMutability": "nonpayable",
      "type": "function"
    },
    {
      "inputs": [
        {
          "internalType": "uint256",
          "name": "assets",
          "type": "uint256"
        },
        {
          "internalType": "address",
          "name": "receiver",
          "type": "address"
        }
      ],
      "name": "deposit",
      "outputs": [
        {
          "internalType": "uint256",
          "name": "",
          "type": "uint256"
        }
      ],
      "stateMutability": "nonpayable",
      "type": "function"
    },
    {
      "inputs": [],
      "name": "depositLimit",
      "outputs": [
        {
          "internalType": "uint256",
          "name": "",
          "type": "uint256"
        }
      ],
      "stateMutability": "view",
      "type": "function"
    },
    {
      "inputs": [],
      "name": "emergencyExit",
      "outputs": [
        {
          "internalType": "bool",
          "name": "",
          "type": "bool"
        }
      ],
      "stateMutability": "view",
      "type": "function"
    },
    {
      "inputs": [],
      "name": "feeRecipient",
      "outputs": [
        {
          "internalType": "address",
          "name": "",
          "type": "address"
        }
      ],
      "stateMutability": "view",
      "type": "function"
    },
    {
      "inputs": [],
      "name": "fees",
      "outputs": [
        {
          "internalType": "uint64",
          "name": "deposit",
          "type": "uint64"
        },
        {
          "internalType": "uint64",
          "name": "withdrawal",
          "type": "uint64"
        },
        {
          "internalType": "uint64",
          "name": "management",
          "type": "uint64"
        },
        {
          "internalType": "uint64",
          "name": "performance",
          "type": "uint64"
        }
      ],
      "stateMutability": "view",
      "type": "function"
    },
    {
      "inputs": [],
      "name": "feesUpdatedAt",
      "outputs": [
        {
          "internalType": "uint256",
          "name": "",
          "type": "uint256"
        }
      ],
      "stateMutability": "view",
      "type": "function"
    },
    {
      "inputs": [
        {
          "internalType": "contract IERC20Upgradeable",
          "name": "",
          "type": "address"
        }
      ],
      "name": "flywheelForRewardToken",
      "outputs": [
        {
          "internalType": "contract MidasFlywheel",
          "name": "",
          "type": "address"
        }
      ],
      "stateMutability": "view",
      "type": "function"
    },
    {
      "inputs": [],
      "name": "flywheelLogic",
      "outputs": [
        {
          "internalType": "address",
          "name": "",
          "type": "address"
        }
      ],
      "stateMutability": "view",
      "type": "function"
    },
    {
      "inputs": [],
      "name": "getAllFlywheels",
      "outputs": [
        {
          "internalType": "contract MidasFlywheel[]",
          "name": "allFlywheels",
          "type": "address[]"
        }
      ],
      "stateMutability": "view",
      "type": "function"
    },
    {
      "inputs": [],
      "name": "highWaterMark",
      "outputs": [
        {
          "internalType": "uint256",
          "name": "",
          "type": "uint256"
        }
      ],
      "stateMutability": "view",
      "type": "function"
    },
    {
      "inputs": [
        {
          "internalType": "address",
          "name": "spender",
          "type": "address"
        },
        {
          "internalType": "uint256",
          "name": "addedValue",
          "type": "uint256"
        }
      ],
      "name": "increaseAllowance",
      "outputs": [
        {
          "internalType": "bool",
          "name": "",
          "type": "bool"
        }
      ],
      "stateMutability": "nonpayable",
      "type": "function"
    },
    {
      "inputs": [
        {
          "internalType": "bytes",
          "name": "data",
          "type": "bytes"
        }
      ],
      "name": "initialize",
      "outputs": [],
      "stateMutability": "nonpayable",
      "type": "function"
    },
    {
      "inputs": [
        {
          "internalType": "address",
          "name": "",
          "type": "address"
        }
      ],
      "name": "maxDeposit",
      "outputs": [
        {
          "internalType": "uint256",
          "name": "",
          "type": "uint256"
        }
      ],
      "stateMutability": "view",
      "type": "function"
    },
    {
      "inputs": [
        {
          "internalType": "address",
          "name": "",
          "type": "address"
        }
      ],
      "name": "maxMint",
      "outputs": [
        {
          "internalType": "uint256",
          "name": "",
          "type": "uint256"
        }
      ],
      "stateMutability": "view",
      "type": "function"
    },
    {
      "inputs": [
        {
          "internalType": "address",
          "name": "owner",
          "type": "address"
        }
      ],
      "name": "maxRedeem",
      "outputs": [
        {
          "internalType": "uint256",
          "name": "",
          "type": "uint256"
        }
      ],
      "stateMutability": "view",
      "type": "function"
    },
    {
      "inputs": [
        {
          "internalType": "address",
          "name": "owner",
          "type": "address"
        }
      ],
      "name": "maxWithdraw",
      "outputs": [
        {
          "internalType": "uint256",
          "name": "",
          "type": "uint256"
        }
      ],
      "stateMutability": "view",
      "type": "function"
    },
    {
      "inputs": [
        {
          "internalType": "uint256",
          "name": "shares",
          "type": "uint256"
        },
        {
          "internalType": "address",
          "name": "receiver",
          "type": "address"
        }
      ],
      "name": "mint",
      "outputs": [
        {
          "internalType": "uint256",
          "name": "",
          "type": "uint256"
        }
      ],
      "stateMutability": "nonpayable",
      "type": "function"
    },
    {
      "inputs": [],
      "name": "name",
      "outputs": [
        {
          "internalType": "string",
          "name": "",
          "type": "string"
        }
      ],
      "stateMutability": "view",
      "type": "function"
    },
    {
      "inputs": [
        {
          "internalType": "address",
          "name": "",
          "type": "address"
        }
      ],
      "name": "nonces",
      "outputs": [
        {
          "internalType": "uint256",
          "name": "",
          "type": "uint256"
        }
      ],
      "stateMutability": "view",
      "type": "function"
    },
    {
      "inputs": [],
      "name": "owner",
      "outputs": [
        {
          "internalType": "address",
          "name": "",
          "type": "address"
        }
      ],
      "stateMutability": "view",
      "type": "function"
    },
    {
      "inputs": [],
      "name": "paused",
      "outputs": [
        {
          "internalType": "bool",
          "name": "",
          "type": "bool"
        }
      ],
      "stateMutability": "view",
      "type": "function"
    },
    {
      "inputs": [],
      "name": "pendingOwner",
      "outputs": [
        {
          "internalType": "address",
          "name": "",
          "type": "address"
        }
      ],
      "stateMutability": "view",
      "type": "function"
    },
    {
      "inputs": [
        {
          "internalType": "uint256",
          "name": "assets",
          "type": "uint256"
        }
      ],
      "name": "previewDeposit",
      "outputs": [
        {
          "internalType": "uint256",
          "name": "",
          "type": "uint256"
        }
      ],
      "stateMutability": "view",
      "type": "function"
    },
    {
      "inputs": [
        {
          "internalType": "uint256",
          "name": "shares",
          "type": "uint256"
        }
      ],
      "name": "previewMint",
      "outputs": [
        {
          "internalType": "uint256",
          "name": "",
          "type": "uint256"
        }
      ],
      "stateMutability": "view",
      "type": "function"
    },
    {
      "inputs": [
        {
          "internalType": "uint256",
          "name": "shares",
          "type": "uint256"
        }
      ],
      "name": "previewRedeem",
      "outputs": [
        {
          "internalType": "uint256",
          "name": "",
          "type": "uint256"
        }
      ],
      "stateMutability": "view",
      "type": "function"
    },
    {
      "inputs": [
        {
          "internalType": "uint256",
          "name": "assets",
          "type": "uint256"
        }
      ],
      "name": "previewWithdraw",
      "outputs": [
        {
          "internalType": "uint256",
          "name": "",
          "type": "uint256"
        }
      ],
      "stateMutability": "view",
      "type": "function"
    },
    {
      "inputs": [
        {
          "components": [
            {
              "internalType": "contract CompoundMarketERC4626",
              "name": "adapter",
              "type": "address"
            },
            {
              "internalType": "uint64",
              "name": "allocation",
              "type": "uint64"
            }
          ],
          "internalType": "struct AdapterConfig[10]",
          "name": "newAdapters",
          "type": "tuple[10]"
        },
        {
          "internalType": "uint8",
          "name": "newAdaptersCount",
          "type": "uint8"
        }
      ],
      "name": "proposeAdapters",
      "outputs": [],
      "stateMutability": "nonpayable",
      "type": "function"
    },
    {
      "inputs": [],
      "name": "proposedAdapterTime",
      "outputs": [
        {
          "internalType": "uint256",
          "name": "",
          "type": "uint256"
        }
      ],
      "stateMutability": "view",
      "type": "function"
    },
    {
      "inputs": [
        {
          "internalType": "uint256",
          "name": "",
          "type": "uint256"
        }
      ],
      "name": "proposedAdapters",
      "outputs": [
        {
          "internalType": "contract CompoundMarketERC4626",
          "name": "adapter",
          "type": "address"
        },
        {
          "internalType": "uint64",
          "name": "allocation",
          "type": "uint64"
        }
      ],
      "stateMutability": "view",
      "type": "function"
    },
    {
      "inputs": [],
      "name": "proposedAdaptersCount",
      "outputs": [
        {
          "internalType": "uint8",
          "name": "",
          "type": "uint8"
        }
      ],
      "stateMutability": "view",
      "type": "function"
    },
    {
      "inputs": [],
      "name": "proposedFeeTime",
      "outputs": [
        {
          "internalType": "uint256",
          "name": "",
          "type": "uint256"
        }
      ],
      "stateMutability": "view",
      "type": "function"
    },
    {
      "inputs": [],
      "name": "proposedFees",
      "outputs": [
        {
          "internalType": "uint64",
          "name": "deposit",
          "type": "uint64"
        },
        {
          "internalType": "uint64",
          "name": "withdrawal",
          "type": "uint64"
        },
        {
          "internalType": "uint64",
          "name": "management",
          "type": "uint64"
        },
        {
          "internalType": "uint64",
          "name": "performance",
          "type": "uint64"
        }
      ],
      "stateMutability": "view",
      "type": "function"
    },
    {
      "inputs": [],
      "name": "quitPeriod",
      "outputs": [
        {
          "internalType": "uint256",
          "name": "",
          "type": "uint256"
        }
      ],
      "stateMutability": "view",
      "type": "function"
    },
    {
      "inputs": [
        {
          "internalType": "uint256",
          "name": "shares",
          "type": "uint256"
        },
        {
          "internalType": "address",
          "name": "receiver",
          "type": "address"
        },
        {
          "internalType": "address",
          "name": "owner",
          "type": "address"
        }
      ],
      "name": "redeem",
      "outputs": [
        {
          "internalType": "uint256",
          "name": "",
          "type": "uint256"
        }
      ],
      "stateMutability": "nonpayable",
      "type": "function"
    },
    {
      "inputs": [],
      "name": "registry",
      "outputs": [
        {
          "internalType": "contract OptimizedVaultsRegistry",
          "name": "",
          "type": "address"
        }
      ],
      "stateMutability": "view",
      "type": "function"
    },
    {
      "inputs": [],
      "name": "renounceOwnership",
      "outputs": [],
      "stateMutability": "nonpayable",
      "type": "function"
    },
    {
      "inputs": [
        {
          "internalType": "uint256",
          "name": "",
          "type": "uint256"
        }
      ],
      "name": "rewardTokens",
      "outputs": [
        {
          "internalType": "contract IERC20Upgradeable",
          "name": "",
          "type": "address"
        }
      ],
      "stateMutability": "view",
      "type": "function"
    },
    {
      "inputs": [],
      "name": "symbol",
      "outputs": [
        {
          "internalType": "string",
          "name": "",
          "type": "string"
        }
      ],
      "stateMutability": "view",
      "type": "function"
    },
    {
      "inputs": [],
      "name": "totalAssets",
      "outputs": [
        {
          "internalType": "uint256",
          "name": "",
          "type": "uint256"
        }
      ],
      "stateMutability": "view",
      "type": "function"
    },
    {
      "inputs": [],
      "name": "totalSupply",
      "outputs": [
        {
          "internalType": "uint256",
          "name": "",
          "type": "uint256"
        }
      ],
      "stateMutability": "view",
      "type": "function"
    },
    {
      "inputs": [
        {
          "internalType": "address",
          "name": "to",
          "type": "address"
        },
        {
          "internalType": "uint256",
          "name": "amount",
          "type": "uint256"
        }
      ],
      "name": "transfer",
      "outputs": [
        {
          "internalType": "bool",
          "name": "",
          "type": "bool"
        }
      ],
      "stateMutability": "nonpayable",
      "type": "function"
    },
    {
      "inputs": [
        {
          "internalType": "address",
          "name": "from",
          "type": "address"
        },
        {
          "internalType": "address",
          "name": "to",
          "type": "address"
        },
        {
          "internalType": "uint256",
          "name": "amount",
          "type": "uint256"
        }
      ],
      "name": "transferFrom",
      "outputs": [
        {
          "internalType": "bool",
          "name": "",
          "type": "bool"
        }
      ],
      "stateMutability": "nonpayable",
      "type": "function"
    },
    {
      "inputs": [
        {
          "internalType": "address",
          "name": "newOwner",
          "type": "address"
        }
      ],
      "name": "transferOwnership",
      "outputs": [],
      "stateMutability": "nonpayable",
      "type": "function"
    },
    {
      "inputs": [],
      "name": "upgradeVault",
      "outputs": [],
      "stateMutability": "nonpayable",
      "type": "function"
    },
    {
      "inputs": [
        {
          "internalType": "uint256",
          "name": "assets",
          "type": "uint256"
        },
        {
          "internalType": "address",
          "name": "receiver",
          "type": "address"
        },
        {
          "internalType": "address",
          "name": "owner",
          "type": "address"
        }
      ],
      "name": "withdraw",
      "outputs": [
        {
          "internalType": "uint256",
          "name": "",
          "type": "uint256"
        }
      ],
      "stateMutability": "nonpayable",
      "type": "function"
    },
    {
      "inputs": [],
      "name": "withdrawalThreshold",
      "outputs": [
        {
          "internalType": "uint256",
          "name": "",
          "type": "uint256"
        }
      ],
      "stateMutability": "view",
      "type": "function"
    }
  ],
  "transactionHash": "0xa531ba7a0b0246cebdf54459048e880033a4603011a04aabce8900372aee6b81",
  "args": [],
  "numDeployments": 1,
  "bytecode": {
    "object": "0x60806040523480156200001157600080fd5b506200001d336200002d565b6200002762000057565b62000169565b600180546001600160a01b0319169055620000548162000119602090811b620020bb17901c565b50565b602c54610100900460ff1615620000c45760405162461bcd60e51b815260206004820152602760248201527f496e697469616c697a61626c653a20636f6e747261637420697320696e697469604482015266616c697a696e6760c81b606482015260840160405180910390fd5b602c5460ff90811610156200011757602c805460ff191660ff9081179091556040519081527f7f26b83ff96e1f2b6a682f133852f6798a09c465da95921460cefb38474024989060200160405180910390a15b565b600080546001600160a01b038381166001600160a01b0319831681178455604051919092169283917f8be0079c531659141344cd1fd0a4f28419497f9722a3daafe3b4186f6b6457e09190a35050565b615f2280620001796000396000f3fe60806040523480156200001157600080fd5b5060043610620004095760003560e01c80637c7a561b116200021d578063b460af941162000131578063dd62ed3e11620000bb578063ef8b30f71162000086578063ef8b30f71462000876578063f2fde38b146200090b578063f62f1d531462000922578063f9828cff146200094e57600080fd5b8063dd62ed3e14620008cf578063de7d4d6a14620008e6578063e30c397814620008ef578063ecf70858146200090157600080fd5b8063ce96cb7711620000fc578063ce96cb77146200088d578063d905777e14620008a4578063d96880a814620008bb578063daa671ac14620008c557600080fd5b8063b460af941462000830578063ba0876521462000847578063c63d75b6146200085e578063c6e6f592146200087657600080fd5b806395d89b4111620001b3578063a71933a7116200017e578063a71933a714620007d8578063a9059cbb14620007eb578063ac11f2121462000802578063b3d7f6b9146200081957600080fd5b806395d89b4114620007465780639af1d35a14620007505780639f3d0a4814620007b7578063a457c2d714620007c157600080fd5b806389f8132e11620001f457806389f8132e14620006ed5780638da5cb5b146200070657806393b998f9146200071857806394bf804d146200072f57600080fd5b80637c7a561b14620006b25780637ecebe0014620006c05780638787b17a14620006e357600080fd5b8063439fab9111620003215780636e553f6511620002ab5780637985fd5111620002765780637985fd51146200067357806379ba5097146200067d5780637b10399914620006875780637bb7bed1146200069b57600080fd5b80636e553f65146200060d57806370a082311462000624578063715018a6146200065057806374fd2c38146200065a57600080fd5b80634ef501ac11620002ec5780634ef501ac14620005aa5780634fa6459814620005e95780635641ec0314620005f35780635c975abb146200060157600080fd5b8063439fab91146200057557806346904840146200058c57806349d4139f14620005a05780634cdad506146200044457600080fd5b80631c03e6cc11620003a3578063372500ab116200036e578063372500ab146200052b57806338d52e0f1462000535578063395093511462000547578063402d267d146200055e57600080fd5b80631c03e6cc14620004d05780631e8410da14620004e957806323b872dd14620004f3578063313ce567146200050a57600080fd5b8063095ea7b311620003e4578063095ea7b3146200045b5780630a28a47714620004835780630f25b764146200049a57806318160ddd14620004c757600080fd5b806301e1d114146200040e57806306fdde03146200042b57806307a2d13a1462000444575b600080fd5b6200041862000981565b6040519081526020015b60405180910390f35b62000435620009f6565b60405162000422919062003997565b6200041862000455366004620039cc565b62000a90565b620004726200046c366004620039fc565b62000aa5565b604051901515815260200162000422565b6200041862000494366004620039cc565b62000abf565b602a54620004ae906001600160a01b031681565b6040516001600160a01b03909116815260200162000422565b60c55462000418565b620004e7620004e136600462003a2b565b62000ace565b005b6200041860045481565b620004726200050436600462003a4b565b62000f32565b60f554600160a01b900460ff165b60405160ff909116815260200162000422565b620004e762000f5c565b60f5546001600160a01b0316620004ae565b6200047262000558366004620039fc565b62000ff9565b620004186200056f36600462003a2b565b62001021565b620004e76200058636600462003a91565b62001043565b600a54620004ae906001600160a01b031681565b6200041860215481565b620005c1620005bb366004620039cc565b620016de565b604080516001600160a01b0390931683526001600160401b0390911660208301520162000422565b620004e762001710565b602654620004729060ff1681565b605f5460ff1662000472565b620004186200061e36600462003b07565b62001831565b620004186200063536600462003a2b565b6001600160a01b0316600090815260c3602052604090205490565b620004e7620018ac565b62000664620018ff565b60405162000422919062003b3a565b6200041860275481565b620004e7620019e9565b602854620004ae906001600160a01b031681565b620004ae620006ac366004620039cc565b62001a64565b601f54620005189060ff1681565b62000418620006d136600462003a2b565b60256020526000908152604090205481565b6200041860205481565b620006f762001a8f565b60405162000422919062003b89565b6000546001600160a01b0316620004ae565b620004e76200072936600462003bef565b62001cae565b620004186200074036600462003b07565b62001ddd565b6200043562001dfb565b60075462000783906001600160401b0380821691600160401b8104821691600160801b8204811691600160c01b90041684565b604080516001600160401b039586168152938516602085015291841691830191909152909116606082015260800162000422565b6200041860065481565b62000472620007d2366004620039fc565b62001e0c565b601f546200051890610100900460ff1681565b62000472620007fc366004620039fc565b62001e98565b620005c162000813366004620039cc565b62001ea8565b620004186200082a366004620039cc565b62001eb9565b620004186200084136600462003c26565b62001ec8565b620004186200085836600462003c26565b62001f4c565b620004186200086f36600462003a2b565b5060001990565b6200041862000887366004620039cc565b62001fc8565b620004186200089e36600462003a2b565b62001fd7565b62000418620008b536600462003a2b565b62001ffd565b6200041860095481565b6200041860055481565b62000418620008e036600462003c6d565b6200201c565b62000518600981565b6001546001600160a01b0316620004ae565b6200041860225481565b620004e76200091c36600462003a2b565b62002047565b620004ae6200093336600462003a2b565b6029602052600090815260409020546001600160a01b031681565b60085462000783906001600160401b0380821691600160401b8104821691600160801b8204811691600160c01b90041684565b60f5546040516370a0823160e01b81523060048201526000916001600160a01b0316906370a0823190602401602060405180830381865afa158015620009cb573d6000803e3d6000fd5b505050506040513d601f19601f82011682018060405250810190620009f1919062003ca0565b905090565b606060c6805462000a079062003cba565b80601f016020809104026020016040519081016040528092919081815260200182805462000a359062003cba565b801562000a865780601f1062000a5a5761010080835404028352916020019162000a86565b820191906000526020600020905b81548152906001019060200180831162000a6857829003601f168201915b5050505050905090565b600062000a9f8260006200210b565b92915050565b60003362000ab581858562002146565b5060019392505050565b600062000a9f8260016200226e565b6000546001600160a01b031633148062000ae757503330145b62000b2a5760405162461bcd60e51b815260206004820152600e60248201526d10b7bbb732b91037b91039b2b63360911b60448201526064015b60405180910390fd5b6001600160a01b03818116600090815260296020526040902054161562000b845760405162461bcd60e51b815260206004820152600d60248201526c185b1c9958591e481859191959609a1b604482015260640162000b21565b602a546028546040516000926001600160a01b0390811692169062000ba990620038b0565b6001600160a01b03928316815291166020820152606060408201819052600090820152608001604051809103906000f08015801562000bec573d6000803e3d6000fd5b50604051637c643b2f60e11b81526001600160a01b0384811660048301523060248301819052600060448401526064830152919250829182169063f8c8765e90608401600060405180830381600087803b15801562000c4a57600080fd5b505af115801562000c5f573d6000803e3d6000fd5b505050506000816201518060405162000c7890620038be565b6001600160a01b03909216825263ffffffff166020820152604001604051809103906000f08015801562000cb0573d6000803e3d6000fd5b50604051638fb0091360e01b81526001600160a01b03808316600483015291925090831690638fb0091390602401600060405180830381600087803b15801562000cf957600080fd5b505af115801562000d0e573d6000803e3d6000fd5b505060405163095ea7b360e01b81526001600160a01b03848116600483015260001960248301528716925063095ea7b391506044016020604051808303816000875af115801562000d63573d6000803e3d6000fd5b505050506040513d601f19601f8201168201806040525081019062000d89919062003cf7565b506040516310509aa960e01b8152600060048201523060248201526001600160a01b038316906310509aa990604401600060405180830381600087803b15801562000dd357600080fd5b505af115801562000de8573d6000803e3d6000fd5b50505050816001600160a01b0316636e96dfd762000e0e6000546001600160a01b031690565b6040516001600160e01b031960e084901b1681526001600160a01b039091166004820152602401600060405180830381600087803b15801562000e5057600080fd5b505af115801562000e65573d6000803e3d6000fd5b50506040516338ae568b60e11b81523060048201526001600160a01b038516925063715cad169150602401600060405180830381600087803b15801562000eab57600080fd5b505af115801562000ec0573d6000803e3d6000fd5b5050506001600160a01b0394851660008181526029602052604081208054979095166001600160a01b031997881617909455602b805460018101825594527f11c44e4875b74d31ff9fd779bf2566af7bd15b87fc985d01f5094b89e3669e4f9093018054909516909217909355505050565b60003362000f42858285620022a7565b62000f4f85858562002328565b60019150505b9392505050565b60005b601f5460ff1681101562000ff657600b81600a811062000f835762000f8362003d1b565b01546040805163372500ab60e01b815290516001600160a01b039092169163372500ab9160048082019260009290919082900301818387803b15801562000fc957600080fd5b505af115801562000fde573d6000803e3d6000fd5b505050508062000fee9062003d47565b905062000f5f565b50565b60003362000ab58185856200100f83836200201c565b6200101b919062003d65565b62002146565b60006200102d620024e2565b6200103a57600062000a9f565b60001992915050565b602c54610100900460ff1615808015620010645750602c54600160ff909116105b80620010805750303b158015620010805750602c5460ff166001145b620010e55760405162461bcd60e51b815260206004820152602e60248201527f496e697469616c697a61626c653a20636f6e747261637420697320616c72656160448201526d191e481a5b9a5d1a585b1a5e995960921b606482015260840162000b21565b602c805460ff1916600117905580156200110957602c805461ff0019166101001790555b3330146200114b5760405162461bcd60e51b815260206004820152600e60248201526d085b9bdd081cd95b198818d85b1b60921b604482015260640162000b21565b600080808080808080620011628a8c018c62003f16565b9750975097509750975097509750975060006001600160a01b0316886001600160a01b03161415620011a757604051630d90d41560e11b815260040160405180910390fd5b620011b288620024ff565b876001600160a01b03166306fdde036040518163ffffffff1660e01b8152600401600060405180830381865afa158015620011f1573d6000803e3d6000fd5b505050506040513d6000823e601f3d908101601f191682016040526200121b91908101906200400a565b6040516020016200122d9190620040a8565b6040516020818303038152906040526002908051906020019062001253929190620038cc565b50876001600160a01b03166395d89b416040518163ffffffff1660e01b8152600401600060405180830381865afa15801562001293573d6000803e3d6000fd5b505050506040513d6000823e601f3d908101601f19168201604052620012bd91908101906200400a565b604051602001620012cf9190620040f2565b60405160208183030381529060405260039080519060200190620012f5929190620038cc565b506009886001600160a01b031663313ce5676040518163ffffffff1660e01b8152600401602060405180830381865afa15801562001337573d6000803e3d6000fd5b505050506040513d601f19601f820116820180604052508101906200135d91906200411f565b6200136991906200413f565b6001805460ff92909216600160a01b0260ff60a01b199092169190911790556022839055602880546001600160a01b038085166001600160a01b031992831617909255602a80549284169290911691909117905546602355620013cb62002534565b60245542600655633b9aca006004556203f4806021558451670de0b6b3a76400006001600160401b039091161015806200141a5750670de0b6b3a764000085602001516001600160401b031610155b806200143b5750670de0b6b3a764000085604001516001600160401b031610155b806200145c5750670de0b6b3a764000085606001516001600160401b031610155b156200147b57604051631eec0fab60e11b815260040160405180910390fd5b8451600780546020880151604089015160608a01516001600160401b03908116600160c01b026001600160c01b03928216600160801b02929092166fffffffffffffffffffffffffffffffff938216600160401b026fffffffffffffffffffffffffffffffff1990951691909616179290921716929092179190911790556001600160a01b0384166200152157604051630ed1b8b360e31b815260040160405180910390fd5b600a80546001600160a01b0319166001600160a01b038616179055620015488787620025d0565b601f805460ff191660ff881617905560005b8660ff168160ff1610156200168957878160ff16600a811062001581576200158162003d1b565b6020020151600b8260ff16600a81106200159f576200159f62003d1b565b8251910180546020909301516001600160401b0316600160a01b026001600160e01b03199093166001600160a01b039283161792909217909155891663095ea7b38960ff8416600a8110620015f857620015f862003d1b565b60200201515160405160e083901b6001600160e01b03191681526001600160a01b03909116600482015260001960248201526044016020604051808303816000875af11580156200164d573d6000803e3d6000fd5b505050506040513d601f19601f8201168201806040525081019062001673919062003cf7565b5080620016808162004167565b9150506200155a565b5050505050505050508015620016d957602c805461ff0019169055604051600181527f7f26b83ff96e1f2b6a682f133852f6798a09c465da95921460cefb38474024989060200160405180910390a15b505050565b600b81600a8110620016ef57600080fd5b01546001600160a01b0381169150600160a01b90046001600160401b031682565b6200171a6200276f565b600062001726620027cd565b905060005b815181101562001771576200175c8282815181106200174e576200174e62003d1b565b602002602001015162002841565b80620017688162003d47565b9150506200172b565b5060285460405163d9d1764560e01b81523060048201526000916001600160a01b03169063d9d1764590602401600060405180830381865afa158015620017bc573d6000803e3d6000fd5b505050506040513d6000823e601f3d908101601f19168201604052620017e69190810190620041b0565b905060005b8151811015620016d9576200181c8282815181106200180e576200180e62003d1b565b602002602001015162002987565b80620018288162003d47565b915050620017eb565b60006200183e8262001021565b8311156200188f5760405162461bcd60e51b815260206004820152601e60248201527f455243343632363a206465706f736974206d6f7265207468616e206d61780000604482015260640162000b21565b60006200189c8462001fc8565b905062000f553384868462002a8b565b620018b66200276f565b60405162461bcd60e51b815260206004820152601e60248201527f72656e6f756e6365206f776e657273686970206e6f7420616c6c6f7765640000604482015260640162000b21565b602b546060906001600160401b038111156200191f576200191f62003d80565b60405190808252806020026020018201604052801562001949578160200160208202803683370190505b50905060005b602b54811015620019e55760296000602b838154811062001974576200197462003d1b565b60009182526020808320909101546001600160a01b0390811684529083019390935260409091019020548351911690839083908110620019b857620019b862003d1b565b6001600160a01b039092166020928302919091019091015280620019dc8162003d47565b9150506200194f565b5090565b60015433906001600160a01b0316811462001a595760405162461bcd60e51b815260206004820152602960248201527f4f776e61626c6532537465703a2063616c6c6572206973206e6f7420746865206044820152683732bb9037bbb732b960b91b606482015260840162000b21565b62000ff68162002b0e565b602b818154811062001a7557600080fd5b6000918252602090912001546001600160a01b0316905081565b60408051600680825260e0820190925260609190600090826020820160c08036833701905050905063439fab9160e01b8162001acb846200424f565b93508360ff168151811062001ae45762001ae462003d1b565b6001600160e01b0319909216602092830291909101909101526393b998f960e01b8162001b11846200424f565b93508360ff168151811062001b2a5762001b2a62003d1b565b6001600160e01b03199092166020928302919091019091015263372500ab60e01b8162001b57846200424f565b93508360ff168151811062001b705762001b7062003d1b565b6001600160e01b031990921660209283029190910190910152630e9fa58760e31b8162001b9d846200424f565b93508360ff168151811062001bb65762001bb662003d1b565b6001600160e01b031990921660209283029190910190910152630700f9b360e21b8162001be3846200424f565b93508360ff168151811062001bfc5762001bfc62003d1b565b6001600160e01b0319909216602092830291909101909101526309f4c8b360e31b8162001c29846200424f565b93508360ff168151811062001c425762001c4262003d1b565b6001600160e01b03199092166020928302919091019091015260ff82161562000a9f5760405162461bcd60e51b815260206004820152601c60248201527f7573652074686520636f7272656374206172726179206c656e67746800000000604482015260640162000b21565b62001cb86200276f565b60408051610140810190915262001d0b9083600a6000835b8282101562001d005762001cf0604083028501368190038101906200426f565b8152602001906001019062001cd0565b5050505082620025d0565b60005b8160ff168160ff16101562001d7757828160ff16600a811062001d355762001d3562003d1b565b6040020160158260ff16600a811062001d525762001d5262003d1b565b0162001d5f82826200428e565b5081905062001d6e8162004167565b91505062001d0e565b50601f805461ff00191661010060ff848116820292909217928390554260208190556040517fc986464d8ed5369b54eb0c1f0ff9def1dcf6fe13c41617aa086590c4946d53859462001dd1948894909104169190620042f2565b60405180910390a15050565b60008062001deb8462001eb9565b905062000f553384838762002a8b565b606060c7805462000a079062003cba565b6000338162001e1c82866200201c565b90508381101562001e7e5760405162461bcd60e51b815260206004820152602560248201527f45524332303a2064656372656173656420616c6c6f77616e63652062656c6f77604482015264207a65726f60d81b606482015260840162000b21565b62001e8d828686840362002146565b506001949350505050565b60003362000ab581858562002328565b601581600a8110620016ef57600080fd5b600062000a9f8260016200210b565b600062001ed58262001fd7565b84111562001f265760405162461bcd60e51b815260206004820152601f60248201527f455243343632363a207769746864726177206d6f7265207468616e206d617800604482015260640162000b21565b600062001f338562000abf565b905062001f44338585888562002b29565b949350505050565b600062001f598262001ffd565b84111562001faa5760405162461bcd60e51b815260206004820152601d60248201527f455243343632363a2072656465656d206d6f7265207468616e206d6178000000604482015260640162000b21565b600062001fb78562000a90565b905062001f44338585848962002b29565b600062000a9f8260006200226e565b6001600160a01b038116600090815260c3602052604081205462000a9f9060006200210b565b6001600160a01b038116600090815260c3602052604081205462000a9f565b6001600160a01b03918216600090815260c46020908152604080832093909416825291909152205490565b620020516200276f565b600180546001600160a01b0383166001600160a01b03199091168117909155620020836000546001600160a01b031690565b6001600160a01b03167f38d16b8cac22d99fc7c124b9cd0de2d3fa1faef420bfe791d8c362d765e2270060405160405180910390a350565b600080546001600160a01b038381166001600160a01b0319831681178455604051919092169283917f8be0079c531659141344cd1fd0a4f28419497f9722a3daafe3b4186f6b6457e09190a35050565b6000806200211860c55490565b905080156200213f57620021396200212f62000981565b8590838662002bdd565b62001f44565b8362001f44565b6001600160a01b038316620021aa5760405162461bcd60e51b8152602060048201526024808201527f45524332303a20617070726f76652066726f6d20746865207a65726f206164646044820152637265737360e01b606482015260840162000b21565b6001600160a01b0382166200220d5760405162461bcd60e51b815260206004820152602260248201527f45524332303a20617070726f766520746f20746865207a65726f206164647265604482015261737360f01b606482015260840162000b21565b6001600160a01b03838116600081815260c4602090815260408083209487168084529482529182902085905590518481527f8c5be1e5ebec7d5bd14f71427d1e84f3dd0314c0f7b2291e5b200ac8c7c3b925910160405180910390a3505050565b6000806200227b60c55490565b905083158062002289575080155b6200213f5762002139816200229d62000981565b8691908662002bdd565b6000620022b584846200201c565b90506000198114620023225781811015620023135760405162461bcd60e51b815260206004820152601d60248201527f45524332303a20696e73756666696369656e7420616c6c6f77616e6365000000604482015260640162000b21565b62002322848484840362002146565b50505050565b6001600160a01b0383166200238e5760405162461bcd60e51b815260206004820152602560248201527f45524332303a207472616e736665722066726f6d20746865207a65726f206164604482015264647265737360d81b606482015260840162000b21565b6001600160a01b038216620023f25760405162461bcd60e51b815260206004820152602360248201527f45524332303a207472616e7366657220746f20746865207a65726f206164647260448201526265737360e81b606482015260840162000b21565b6001600160a01b038316600090815260c36020526040902054818110156200246c5760405162461bcd60e51b815260206004820152602660248201527f45524332303a207472616e7366657220616d6f756e7420657863656564732062604482015265616c616e636560d01b606482015260840162000b21565b6001600160a01b03808516600081815260c3602052604080822086860390559286168082529083902080548601905591517fddf252ad1be2c89b69c2b068fc378daa952ba7f163c4a11628f55a4df523b3ef90620024cd9086815260200190565b60405180910390a36200232284848462002c46565b600080620024ef62000981565b1180620009f157505060c5541590565b602c54610100900460ff16620025295760405162461bcd60e51b815260040162000b219062004369565b62000ff68162002d22565b60007f8b73c3c69bb8fe3d512ecc4cf759cc79239f7b179b0ffacaa9a75d522b39400f6002604051620025689190620043b4565b6040805191829003822060208301939093528101919091527fc89efdaa54c0f20c7adf612882df0950f5a951637e0307cdcb4c672f298b8bc660608201524660808201523060a082015260c00160405160208183030381529060405280519060200120905090565b60ff81161580620025e45750600a8160ff16115b1562002603576040516306b7c75960e31b815260040160405180910390fd5b6000805b8260ff168160ff161015620027455760f5546001600160a01b03168460ff8316600a81106200263a576200263a62003d1b565b6020020151600001516001600160a01b03166338d52e0f6040518163ffffffff1660e01b8152600401602060405180830381865afa15801562002681573d6000803e3d6000fd5b505050506040513d601f19601f82011682018060405250810190620026a7919062004458565b6001600160a01b031614620026cf57604051630d90d41560e11b815260040160405180910390fd5b6000848260ff16600a8110620026e957620026e962003d1b565b6020020151602001516001600160401b03169050806000141562002720576040516306b7c75960e31b815260040160405180910390fd5b6200272c818462003d65565b92505080806200273c9062004167565b91505062002607565b5080670de0b6b3a764000014620016d9576040516306b7c75960e31b815260040160405180910390fd5b6000546001600160a01b03163314620027cb5760405162461bcd60e51b815260206004820181905260248201527f4f776e61626c653a2063616c6c6572206973206e6f7420746865206f776e6572604482015260640162000b21565b565b606060008051602062005ef683398151915260020180548060200260200160405190810160405280929190818152602001828054801562000a8657602002820191906000526020600020905b81546001600160a01b0316815260019091019060200180831162002819575050505050905090565b60008051602062005ef68339815191526200285c8262002dae565b60005b600282015460ff82161015620016d957826001600160a01b0316826002018260ff168154811062002894576200289462003d1b565b6000918252602090912001546001600160a01b031614156200297257600282018054620028c49060019062004478565b81548110620028d757620028d762003d1b565b6000918252602090912001546002830180546001600160a01b039092169160ff84169081106200290b576200290b62003d1b565b9060005260206000200160006101000a8154816001600160a01b0302191690836001600160a01b03160217905550816002018054806200294f576200294f62004492565b600082815260209020810160001990810180546001600160a01b03191690550190555b806200297e8162004167565b9150506200285f565b60008051602062005ef683398151915260005b600282015460ff8216101562002a4957826001600160a01b0316826002018260ff1681548110620029cf57620029cf62003d1b565b6000918252602090912001546001600160a01b0316141562002a345760405162461bcd60e51b815260206004820152601760248201527f657874656e73696f6e20616c7265616479206164646564000000000000000000604482015260640162000b21565b8062002a408162004167565b9150506200299a565b5062002a558262003057565b6002018054600181018255600091825260209091200180546001600160a01b0319166001600160a01b0392909216919091179055565b60f55462002aa5906001600160a01b031685308562003257565b62002ab18382620032c4565b826001600160a01b0316846001600160a01b03167fdcbc1c05240f31ff3ad067ef1ee35ce4997762752e3a095284754544f4c709d7848460405162002b00929190918252602082015260400190565b60405180910390a350505050565b600180546001600160a01b031916905562000ff681620020bb565b826001600160a01b0316856001600160a01b03161462002b505762002b50838683620022a7565b62002b5c838262003397565b60f55462002b75906001600160a01b03168584620034d8565b826001600160a01b0316846001600160a01b0316866001600160a01b03167ffbde797d201c681b91056529119e0b02407c7bb96a4a2c75c01fc9667232c8db858560405162002bce929190918252602082015260400190565b60405180910390a45050505050565b60008062002bed8686866200350a565b9050600183600281111562002c065762002c06620044a8565b14801562002c2757506000848062002c225762002c22620044be565b868809115b1562002c3d5762002c3a60018262003d65565b90505b95945050505050565b60005b602b54811015620023225760296000602b838154811062002c6e5762002c6e62003d1b565b6000918252602080832091909101546001600160a01b039081168452908301939093526040918201902054905163cc6bc10160e01b81523060048201528683166024820152858316604482015291169063cc6bc1019060640160408051808303816000875af115801562002ce6573d6000803e3d6000fd5b505050506040513d601f19601f8201168201806040525081019062002d0c9190620044d4565b50508062002d1a9062003d47565b905062002c49565b602c54610100900460ff1662002d4c5760405162461bcd60e51b815260040162000b219062004369565b60008062002d5a83620035c0565b915091508162002d6c57601262002d6e565b805b60f580546001600160a01b039095166001600160a01b031960ff93909316600160a01b02929092166001600160a81b031990951694909417179092555050565b6000816001600160a01b03166389f8132e6040518163ffffffff1660e01b8152600401600060405180830381865afa15801562002def573d6000803e3d6000fd5b505050506040513d6000823e601f3d908101601f1916820160405262002e199190810190620044f9565b905060008051602062005ef683398151915260005b82518161ffff16101562002322576000838261ffff168151811062002e575762002e5762003d1b565b6020908102919091018101516001600160e01b031981166000908152918590526040909120549091506001600160a01b0386811691161462002e9d5762002e9d6200459f565b6001600160e01b0319811660009081526020849052604090205460018085018054600160a01b90930461ffff1692909162002ed89162004478565b8154811062002eeb5762002eeb62003d1b565b90600052602060002090600891828204019190066004029054906101000a900460e01b846001018261ffff168154811062002f2a5762002f2a62003d1b565b90600052602060002090600891828204019190066004026101000a81548163ffffffff021916908360e01c021790555080846000016000866001018461ffff168154811062002f7d5762002f7d62003d1b565b6000918252602080832060088304015460079092166004026101000a90910460e01b6001600160e01b03191683528201929092526040019020805461ffff60a01b1916600160a01b61ffff93909316929092029190911790556001840180548062002fec5762002fec62004492565b60008281526020808220600860001990940193840401805463ffffffff600460078716026101000a0219169055919092556001600160e01b0319909316815291849052506040902080546001600160b01b0319169055806200304e81620045b5565b91505062002e2e565b6000816001600160a01b03166389f8132e6040518163ffffffff1660e01b8152600401600060405180830381865afa15801562003098573d6000803e3d6000fd5b505050506040513d6000823e601f3d908101601f19168201604052620030c29190810190620044f9565b7fc8fcad8db84d3cc18b4c41d551ea0ee66dd599cde068d998e57d5e09332c131d5490915060008051602062005ef68339815191529060005b8351811015620032505760008482815181106200311c576200311c62003d1b565b6020908102919091018101516001600160e01b031981166000908152918690526040909120549091506001600160a01b031680156200318a57604051632c18df3360e01b81526001600160e01b0319831660048201526001600160a01b038216602482015260440162000b21565b6040805180820182526001600160a01b03808a16825261ffff80881660208085019182526001600160e01b0319881660009081528b8252958620945185549251909316600160a01b026001600160b01b0319909216929093169190911717909155600180880180549182018155835291206008820401805460e085901c60046007909416939093026101000a92830263ffffffff9093021916919091179055836200323581620045b5565b94505050508080620032479062003d47565b915050620030fb565b5050505050565b6040516001600160a01b0380851660248301528316604482015260648101829052620023229085906323b872dd60e01b906084015b60408051601f198184030181529190526020810180516001600160e01b03166001600160e01b031990931692909217909152620036a7565b6001600160a01b0382166200331c5760405162461bcd60e51b815260206004820152601f60248201527f45524332303a206d696e7420746f20746865207a65726f206164647265737300604482015260640162000b21565b8060c5600082825462003330919062003d65565b90915550506001600160a01b038216600081815260c360209081526040808320805486019055518481527fddf252ad1be2c89b69c2b068fc378daa952ba7f163c4a11628f55a4df523b3ef910160405180910390a3620033936000838362002c46565b5050565b6001600160a01b038216620033f95760405162461bcd60e51b815260206004820152602160248201527f45524332303a206275726e2066726f6d20746865207a65726f206164647265736044820152607360f81b606482015260840162000b21565b6001600160a01b038216600090815260c36020526040902054818110156200346f5760405162461bcd60e51b815260206004820152602260248201527f45524332303a206275726e20616d6f756e7420657863656564732062616c616e604482015261636560f01b606482015260840162000b21565b6001600160a01b038316600081815260c360209081526040808320868603905560c580548790039055518581529192917fddf252ad1be2c89b69c2b068fc378daa952ba7f163c4a11628f55a4df523b3ef910160405180910390a3620016d98360008462002c46565b6040516001600160a01b038316602482015260448101829052620016d990849063a9059cbb60e01b906064016200328c565b6000808060001985870985870292508281108382030391505080600014156200354a578382816200353f576200353f620044be565b049250505062000f55565b8084116200355757600080fd5b60008486880960026001871981018816978890046003810283188082028403028082028403028082028403028082028403028082028403029081029092039091026000889003889004909101858311909403939093029303949094049190911702949350505050565b60408051600481526024810182526020810180516001600160e01b031663313ce56760e01b17905290516000918291829182916001600160a01b038716916200360991620045da565b6000604051808303816000865af19150503d806000811462003648576040519150601f19603f3d011682016040523d82523d6000602084013e6200364d565b606091505b50915091508180156200366257506020815110155b156200369a5760008180602001905181019062003680919062003ca0565b905060ff811162003698576001969095509350505050565b505b5060009485945092505050565b6000620036fe826040518060400160405280602081526020017f5361666545524332303a206c6f772d6c6576656c2063616c6c206661696c6564815250856001600160a01b0316620037809092919063ffffffff16565b805190915015620016d957808060200190518101906200371f919062003cf7565b620016d95760405162461bcd60e51b815260206004820152602a60248201527f5361666545524332303a204552433230206f7065726174696f6e20646964206e6044820152691bdd081cdd58d8d9595960b21b606482015260840162000b21565b606062001f44848460008585600080866001600160a01b03168587604051620037aa9190620045da565b60006040518083038185875af1925050503d8060008114620037e9576040519150601f19603f3d011682016040523d82523d6000602084013e620037ee565b606091505b509150915062003801878383876200380c565b979650505050505050565b606083156200387d57825162003875576001600160a01b0385163b620038755760405162461bcd60e51b815260206004820152601d60248201527f416464726573733a2063616c6c20746f206e6f6e2d636f6e7472616374000000604482015260640162000b21565b508162001f44565b62001f448383815115620038945781518083602001fd5b8060405162461bcd60e51b815260040162000b21919062003997565b610e6f80620045f983390190565b610a8e806200546883390190565b828054620038da9062003cba565b90600052602060002090601f016020900481019282620038fe576000855562003949565b82601f106200391957805160ff191683800117855562003949565b8280016001018555821562003949579182015b82811115620039495782518255916020019190600101906200392c565b50620019e59291505b80821115620019e5576000815560010162003952565b60005b83811015620039855781810151838201526020016200396b565b83811115620023225750506000910152565b6020815260008251806020840152620039b881604085016020870162003968565b601f01601f19169190910160400192915050565b600060208284031215620039df57600080fd5b5035919050565b6001600160a01b038116811462000ff657600080fd5b6000806040838503121562003a1057600080fd5b823562003a1d81620039e6565b946020939093013593505050565b60006020828403121562003a3e57600080fd5b813562000f5581620039e6565b60008060006060848603121562003a6157600080fd5b833562003a6e81620039e6565b9250602084013562003a8081620039e6565b929592945050506040919091013590565b6000806020838503121562003aa557600080fd5b82356001600160401b038082111562003abd57600080fd5b818501915085601f83011262003ad257600080fd5b81358181111562003ae257600080fd5b86602082850101111562003af557600080fd5b60209290920196919550909350505050565b6000806040838503121562003b1b57600080fd5b82359150602083013562003b2f81620039e6565b809150509250929050565b6020808252825182820181905260009190848201906040850190845b8181101562003b7d5783516001600160a01b03168352928401929184019160010162003b56565b50909695505050505050565b6020808252825182820181905260009190848201906040850190845b8181101562003b7d5783516001600160e01b0319168352928401929184019160010162003ba5565b60ff8116811462000ff657600080fd5b803562003bea8162003bcd565b919050565b6000806102a0838503121562003c0457600080fd5b61028083018481111562003c1757600080fd5b8392503562003b2f8162003bcd565b60008060006060848603121562003c3c57600080fd5b83359250602084013562003c5081620039e6565b9150604084013562003c6281620039e6565b809150509250925092565b6000806040838503121562003c8157600080fd5b823562003c8e81620039e6565b9150602083013562003b2f81620039e6565b60006020828403121562003cb357600080fd5b5051919050565b600181811c9082168062003ccf57607f821691505b6020821081141562003cf157634e487b7160e01b600052602260045260246000fd5b50919050565b60006020828403121562003d0a57600080fd5b8151801515811462000f5557600080fd5b634e487b7160e01b600052603260045260246000fd5b634e487b7160e01b600052601160045260246000fd5b600060001982141562003d5e5762003d5e62003d31565b5060010190565b6000821982111562003d7b5762003d7b62003d31565b500190565b634e487b7160e01b600052604160045260246000fd5b60405161014081016001600160401b038111828210171562003dbc5762003dbc62003d80565b60405290565b604051601f8201601f191681016001600160401b038111828210171562003ded5762003ded62003d80565b604052919050565b6001600160401b038116811462000ff657600080fd5b60006040828403121562003e1e57600080fd5b604051604081018181106001600160401b038211171562003e435762003e4362003d80565b604052905080823562003e5681620039e6565b8152602083013562003e688162003df5565b6020919091015292915050565b60006080828403121562003e8857600080fd5b604051608081018181106001600160401b038211171562003ead5762003ead62003d80565b604052905080823562003ec08162003df5565b8152602083013562003ed28162003df5565b6020820152604083013562003ee78162003df5565b6040820152606083013562003efc8162003df5565b6060919091015292915050565b803562003bea81620039e6565b6000806000806000806000806103c0898b03121562003f3457600080fd5b883562003f4181620039e6565b97506020603f8a018b1362003f5557600080fd5b62003f5f62003d96565b806102a08c018d81111562003f7357600080fd5b838d015b8181101562003f9b5762003f8c8f8262003e0b565b84529284019260400162003f77565b50819a5062003faa8162003bdd565b99505050505062003fc08a6102c08b0162003e75565b945062003fd16103408a0162003f09565b9350610360890135925062003fea6103808a0162003f09565b915062003ffb6103a08a0162003f09565b90509295985092959890939650565b6000602082840312156200401d57600080fd5b81516001600160401b03808211156200403557600080fd5b818401915084601f8301126200404a57600080fd5b8151818111156200405f576200405f62003d80565b62004074601f8201601f191660200162003dc2565b91508082528560208285010111156200408c57600080fd5b6200409f81602084016020860162003968565b50949350505050565b6f026b4b230b99027b83a34b6b4bd32b2160851b815260008251620040d581601085016020870162003968565b650815985d5b1d60d21b6010939091019283015250601601919050565b626d6f2d60e81b8152600082516200411281600385016020870162003968565b9190910160030192915050565b6000602082840312156200413257600080fd5b815162000f558162003bcd565b600060ff821660ff84168060ff038211156200415f576200415f62003d31565b019392505050565b600060ff821660ff81141562004181576200418162003d31565b60010192915050565b60006001600160401b03821115620041a657620041a662003d80565b5060051b60200190565b60006020808385031215620041c457600080fd5b82516001600160401b03811115620041db57600080fd5b8301601f81018513620041ed57600080fd5b805162004204620041fe826200418a565b62003dc2565b81815260059190911b820183019083810190878311156200422457600080fd5b928401925b82841015620038015783516200423f81620039e6565b8252928401929084019062004229565b600060ff82168062004265576200426562003d31565b6000190192915050565b6000604082840312156200428257600080fd5b62000f55838362003e0b565b81356200429b81620039e6565b81546001600160a01b031981166001600160a01b039290921691821783556020840135620042c98162003df5565b6001600160e01b03199190911690911760a09190911b67ffffffffffffffff60a01b1617905550565b6102c08101818560005b600a811015620043505781356200431381620039e6565b6001600160a01b031683526020828101356200432f8162003df5565b6001600160401b0316908401526040928301929190910190600101620042fc565b50505060ff939093166102808201526102a00152919050565b6020808252602b908201527f496e697469616c697a61626c653a20636f6e7472616374206973206e6f74206960408201526a6e697469616c697a696e6760a81b606082015260800190565b600080835481600182811c915080831680620043d157607f831692505b6020808410821415620043f257634e487b7160e01b86526022600452602486fd5b8180156200440957600181146200441b576200444a565b60ff198616895284890196506200444a565b60008a81526020902060005b86811015620044425781548b82015290850190830162004427565b505084890196505b509498975050505050505050565b6000602082840312156200446b57600080fd5b815162000f5581620039e6565b6000828210156200448d576200448d62003d31565b500390565b634e487b7160e01b600052603160045260246000fd5b634e487b7160e01b600052602160045260246000fd5b634e487b7160e01b600052601260045260246000fd5b60008060408385031215620044e857600080fd5b505080516020909101519092909150565b600060208083850312156200450d57600080fd5b82516001600160401b038111156200452457600080fd5b8301601f810185136200453657600080fd5b805162004547620041fe826200418a565b81815260059190911b820183019083810190878311156200456757600080fd5b928401925b82841015620038015783516001600160e01b0319811681146200458f5760008081fd5b825292840192908401906200456c565b634e487b7160e01b600052600160045260246000fd5b600061ffff80831681811415620045d057620045d062003d31565b6001019392505050565b60008251620045ee81846020870162003968565b919091019291505056fe608060405260405162000e6f38038062000e6f83398101604081905262000026916200049d565b828162000036828260006200004d565b50620000449050826200008a565b505050620005d0565b6200005883620000e5565b600082511180620000665750805b1562000085576200008383836200012760201b620002601760201c565b505b505050565b7f7e644d79422f17c01e4894b5f4f588d331ebfa28653d42ae832dc59e38c9798f620000b562000156565b604080516001600160a01b03928316815291841660208301520160405180910390a1620000e2816200018f565b50565b620000f08162000244565b6040516001600160a01b038216907fbc7cd75a20ee27fd9adebab32041f755214dbc6bffa90cc0225b39da2e5c2d3b90600090a250565b60606200014f838360405180606001604052806027815260200162000e4860279139620002f8565b9392505050565b60006200018060008051602062000e2883398151915260001b6200037760201b620002081760201c565b546001600160a01b0316919050565b6001600160a01b038116620001fa5760405162461bcd60e51b815260206004820152602660248201527f455243313936373a206e65772061646d696e20697320746865207a65726f206160448201526564647265737360d01b60648201526084015b60405180910390fd5b806200022360008051602062000e2883398151915260001b6200037760201b620002081760201c565b80546001600160a01b0319166001600160a01b039290921691909117905550565b6200025a816200037a60201b6200028c1760201c565b620002be5760405162461bcd60e51b815260206004820152602d60248201527f455243313936373a206e657720696d706c656d656e746174696f6e206973206e60448201526c1bdd08184818dbdb9d1c9858dd609a1b6064820152608401620001f1565b80620002237f360894a13ba1a3210667c828492db98dca3e2076cc3735a920a3ca505d382bbc60001b6200037760201b620002081760201c565b6060600080856001600160a01b0316856040516200031791906200057d565b600060405180830381855af49150503d806000811462000354576040519150601f19603f3d011682016040523d82523d6000602084013e62000359565b606091505b5090925090506200036d8683838762000389565b9695505050505050565b90565b6001600160a01b03163b151590565b60608315620003fa578251620003f2576001600160a01b0385163b620003f25760405162461bcd60e51b815260206004820152601d60248201527f416464726573733a2063616c6c20746f206e6f6e2d636f6e74726163740000006044820152606401620001f1565b508162000406565b6200040683836200040e565b949350505050565b8151156200041f5781518083602001fd5b8060405162461bcd60e51b8152600401620001f191906200059b565b80516001600160a01b03811681146200045357600080fd5b919050565b634e487b7160e01b600052604160045260246000fd5b60005b838110156200048b57818101518382015260200162000471565b83811115620000835750506000910152565b600080600060608486031215620004b357600080fd5b620004be846200043b565b9250620004ce602085016200043b565b60408501519092506001600160401b0380821115620004ec57600080fd5b818601915086601f8301126200050157600080fd5b81518181111562000516576200051662000458565b604051601f8201601f19908116603f0116810190838211818310171562000541576200054162000458565b816040528281528960208487010111156200055b57600080fd5b6200056e8360208301602088016200046e565b80955050505050509250925092565b60008251620005918184602087016200046e565b9190910192915050565b6020815260008251806020840152620005bc8160408501602087016200046e565b601f01601f19169190910160400192915050565b61084880620005e06000396000f3fe60806040526004361061004e5760003560e01c80633659cfe6146100655780634f1ef286146100855780635c60da1b146100985780638f283970146100c9578063f851a440146100e95761005d565b3661005d5761005b6100fe565b005b61005b6100fe565b34801561007157600080fd5b5061005b6100803660046106fb565b610118565b61005b610093366004610716565b61015f565b3480156100a457600080fd5b506100ad6101d0565b6040516001600160a01b03909116815260200160405180910390f35b3480156100d557600080fd5b5061005b6100e43660046106fb565b61020b565b3480156100f557600080fd5b506100ad610235565b61010661029b565b61011661011161033a565b610344565b565b610120610368565b6001600160a01b0316336001600160a01b03161415610157576101548160405180602001604052806000815250600061039b565b50565b6101546100fe565b610167610368565b6001600160a01b0316336001600160a01b031614156101c8576101c38383838080601f0160208091040260200160405190810160405280939291908181526020018383808284376000920191909152506001925061039b915050565b505050565b6101c36100fe565b60006101da610368565b6001600160a01b0316336001600160a01b03161415610200576101fb61033a565b905090565b6102086100fe565b90565b610213610368565b6001600160a01b0316336001600160a01b0316141561015757610154816103c6565b600061023f610368565b6001600160a01b0316336001600160a01b03161415610200576101fb610368565b606061028583836040518060600160405280602781526020016108156027913961041a565b9392505050565b6001600160a01b03163b151590565b6102a3610368565b6001600160a01b0316336001600160a01b031614156101165760405162461bcd60e51b815260206004820152604260248201527f5472616e73706172656e745570677261646561626c6550726f78793a2061646d60448201527f696e2063616e6e6f742066616c6c6261636b20746f2070726f78792074617267606482015261195d60f21b608482015260a4015b60405180910390fd5b60006101fb610492565b3660008037600080366000845af43d6000803e808015610363573d6000f35b3d6000fd5b60007fb53127684a568b3173ae13b9f8a6016e243e63b6e8ee1178d6a717850b5d61035b546001600160a01b0316919050565b6103a4836104ba565b6000825111806103b15750805b156101c3576103c08383610260565b50505050565b7f7e644d79422f17c01e4894b5f4f588d331ebfa28653d42ae832dc59e38c9798f6103ef610368565b604080516001600160a01b03928316815291841660208301520160405180910390a1610154816104fa565b6060600080856001600160a01b03168560405161043791906107c5565b600060405180830381855af49150503d8060008114610472576040519150601f19603f3d011682016040523d82523d6000602084013e610477565b606091505b5091509150610488868383876105a3565b9695505050505050565b60007f360894a13ba1a3210667c828492db98dca3e2076cc3735a920a3ca505d382bbc61038c565b6104c381610621565b6040516001600160a01b038216907fbc7cd75a20ee27fd9adebab32041f755214dbc6bffa90cc0225b39da2e5c2d3b90600090a250565b6001600160a01b03811661055f5760405162461bcd60e51b815260206004820152602660248201527f455243313936373a206e65772061646d696e20697320746865207a65726f206160448201526564647265737360d01b6064820152608401610331565b807fb53127684a568b3173ae13b9f8a6016e243e63b6e8ee1178d6a717850b5d61035b80546001600160a01b0319166001600160a01b039290921691909117905550565b6060831561060f578251610608576001600160a01b0385163b6106085760405162461bcd60e51b815260206004820152601d60248201527f416464726573733a2063616c6c20746f206e6f6e2d636f6e74726163740000006044820152606401610331565b5081610619565b61061983836106b5565b949350505050565b6001600160a01b0381163b61068e5760405162461bcd60e51b815260206004820152602d60248201527f455243313936373a206e657720696d706c656d656e746174696f6e206973206e60448201526c1bdd08184818dbdb9d1c9858dd609a1b6064820152608401610331565b807f360894a13ba1a3210667c828492db98dca3e2076cc3735a920a3ca505d382bbc610582565b8151156106c55781518083602001fd5b8060405162461bcd60e51b815260040161033191906107e1565b80356001600160a01b03811681146106f657600080fd5b919050565b60006020828403121561070d57600080fd5b610285826106df565b60008060006040848603121561072b57600080fd5b610734846106df565b9250602084013567ffffffffffffffff8082111561075157600080fd5b818601915086601f83011261076557600080fd5b81358181111561077457600080fd5b87602082850101111561078657600080fd5b6020830194508093505050509250925092565b60005b838110156107b457818101518382015260200161079c565b838111156103c05750506000910152565b600082516107d7818460208701610799565b9190910192915050565b6020815260008251806020840152610800816040850160208701610799565b601f01601f1916919091016040019291505056fe416464726573733a206c6f772d6c6576656c2064656c65676174652063616c6c206661696c6564a164736f6c634300080a000ab53127684a568b3173ae13b9f8a6016e243e63b6e8ee1178d6a717850b5d6103416464726573733a206c6f772d6c6576656c2064656c65676174652063616c6c206661696c656460e060405234801561001057600080fd5b50604051610a8e380380610a8e83398101604081905261002f91610187565b818181806001600160a01b031660a0816001600160a01b0316815250506000816001600160a01b031663f7c618c16040518163ffffffff1660e01b8152600401602060405180830381865afa15801561008c573d6000803e3d6000fd5b505050506040513d601f19601f820116820180604052508101906100b091906101ca565b6001600160a01b03811660808190529091506100da90836000196100ee602090811b6104a017901c565b505063ffffffff1660c052506101ee915050565b600060405163095ea7b360e01b8152836004820152826024820152602060006044836000895af13d15601f3d11600160005114161716915050806101695760405162461bcd60e51b815260206004820152600e60248201526d1054141493d59157d1905253115160921b604482015260640160405180910390fd5b50505050565b6001600160a01b038116811461018457600080fd5b50565b6000806040838503121561019a57600080fd5b82516101a58161016f565b602084015190925063ffffffff811681146101bf57600080fd5b809150509250929050565b6000602082840312156101dc57600080fd5b81516101e78161016f565b9392505050565b60805160a05160c051610857610237600039600081816061015261032001526000818160a201526101a20152600081816101020152818161055d01526105dd01526108576000f3fe608060405234801561001057600080fd5b50600436106100575760003560e01c80636fcf5e5f1461005c5780637acf5b921461009d578063b334db7b146100dc578063f7c618c1146100fd578063faa6c3c814610124575b600080fd5b6100837f000000000000000000000000000000000000000000000000000000000000000081565b60405163ffffffff90911681526020015b60405180910390f35b6100c47f000000000000000000000000000000000000000000000000000000000000000081565b6040516001600160a01b039091168152602001610094565b6100ef6100ea3660046106b1565b610195565b604051908152602001610094565b6100c47f000000000000000000000000000000000000000000000000000000000000000081565b6101696101323660046106f1565b60006020819052908152604090205463ffffffff80821691640100000000810490911690600160401b90046001600160c01b031683565b6040805163ffffffff94851681529390921660208401526001600160c01b031690820152606001610094565b6000336001600160a01b037f000000000000000000000000000000000000000000000000000000000000000016146101e05760405163739e221160e01b815260040160405180910390fd5b6001600160a01b0383166000908152602081815260408083208151606081018352905463ffffffff808216835264010000000082041693820193909352600160401b9092046001600160c01b0316908201529061023c42610522565b90506000826020015163ffffffff168263ffffffff16101561025e5781610264565b82602001515b90506000836000015163ffffffff168663ffffffff1611156102865785610289565b83515b9050836020015163ffffffff1660001461030557835160208501516102ae9190610729565b63ffffffff166102be8284610729565b63ffffffff1685604001516102d3919061074e565b6102dd9190610793565b6001600160c01b0316945083604001516001600160c01b0316851115610305576103056107b9565b836020015163ffffffff168363ffffffff16106104965760007f00000000000000000000000000000000000000000000000000000000000000008061034a81876107cf565b61035491906107f7565b61035e919061080e565b9050600061036b89610539565b905060405180606001604052808663ffffffff1681526020018363ffffffff168152602001826001600160c01b03168152506000808b6001600160a01b03166001600160a01b0316815260200190815260200160002060008201518160000160006101000a81548163ffffffff021916908363ffffffff16021790555060208201518160000160046101000a81548163ffffffff021916908363ffffffff16021790555060408201518160000160086101000a8154816001600160c01b0302191690836001600160c01b031602179055509050508163ffffffff168563ffffffff167f2bc72eed7f7ea7cb3bf6969b33e204748849532a1f8e4ca68ba1bc97c4cf2e008360405161048b91906001600160c01b0391909116815260200190565b60405180910390a350505b5050505092915050565b600060405163095ea7b360e01b8152836004820152826024820152602060006044836000895af13d15601f3d116001600051141617169150508061051c5760405162461bcd60e51b815260206004820152600e60248201526d1054141493d59157d1905253115160921b60448201526064015b60405180910390fd5b50505050565b6000640100000000821061053557600080fd5b5090565b6040516370a0823160e01b81526001600160a01b03828116600483015260009182917f000000000000000000000000000000000000000000000000000000000000000016906370a0823190602401602060405180830381865afa1580156105a4573d6000803e3d6000fd5b505050506040513d601f19601f820116820180604052508101906105c89190610831565b90508015610605576106056001600160a01b037f00000000000000000000000000000000000000000000000000000000000000001684308461060b565b92915050565b60006040516323b872dd60e01b81528460048201528360248201528260448201526020600060648360008a5af13d15601f3d116001600051141617169150508061068e5760405162461bcd60e51b81526020600482015260146024820152731514905394d1915497d19493d357d1905253115160621b6044820152606401610513565b5050505050565b80356001600160a01b03811681146106ac57600080fd5b919050565b600080604083850312156106c457600080fd5b6106cd83610695565b9150602083013563ffffffff811681146106e657600080fd5b809150509250929050565b60006020828403121561070357600080fd5b61070c82610695565b9392505050565b634e487b7160e01b600052601160045260246000fd5b600063ffffffff8381169083168181101561074657610746610713565b039392505050565b60006001600160c01b038281168482168115158284048211161561077457610774610713565b02949350505050565b634e487b7160e01b600052601260045260246000fd5b60006001600160c01b03838116806107ad576107ad61077d565b92169190910492915050565b634e487b7160e01b600052600160045260246000fd5b600063ffffffff8083168185168083038211156107ee576107ee610713565b01949350505050565b600063ffffffff808416806107ad576107ad61077d565b600063ffffffff8083168185168183048111821515161561077457610774610713565b60006020828403121561084357600080fd5b505191905056fea164736f6c634300080a000ac8fcad8db84d3cc18b4c41d551ea0ee66dd599cde068d998e57d5e09332c131ca164736f6c634300080a000a",
    "linkReferences": {}
  },
  "methodIdentifiers": {
    "DECIMAL_OFFSET()": "de7d4d6a",
    "_getExtensionFunctions()": "89f8132e",
    "acceptOwnership()": "79ba5097",
    "adapters(uint256)": "4ef501ac",
    "adaptersCount()": "7c7a561b",
    "addRewardToken(address)": "1c03e6cc",
    "allowance(address,address)": "dd62ed3e",
    "approve(address,uint256)": "095ea7b3",
    "asset()": "38d52e0f",
    "assetsCheckpoint()": "daa671ac",
    "balanceOf(address)": "70a08231",
    "claimRewards()": "372500ab",
    "convertToAssets(uint256)": "07a2d13a",
    "convertToShares(uint256)": "c6e6f592",
    "decimals()": "313ce567",
    "decreaseAllowance(address,uint256)": "a457c2d7",
    "deposit(uint256,address)": "6e553f65",
    "depositLimit()": "ecf70858",
    "emergencyExit()": "5641ec03",
    "feeRecipient()": "46904840",
    "fees()": "9af1d35a",
    "feesUpdatedAt()": "9f3d0a48",
    "flywheelForRewardToken(address)": "f62f1d53",
    "flywheelLogic()": "0f25b764",
    "getAllFlywheels()": "74fd2c38",
    "highWaterMark()": "1e8410da",
    "increaseAllowance(address,uint256)": "39509351",
    "initialize(bytes)": "439fab91",
    "maxDeposit(address)": "402d267d",
    "maxMint(address)": "c63d75b6",
    "maxRedeem(address)": "d905777e",
    "maxWithdraw(address)": "ce96cb77",
    "mint(uint256,address)": "94bf804d",
    "name()": "06fdde03",
    "nonces(address)": "7ecebe00",
    "owner()": "8da5cb5b",
    "paused()": "5c975abb",
    "pendingOwner()": "e30c3978",
    "previewDeposit(uint256)": "ef8b30f7",
    "previewMint(uint256)": "b3d7f6b9",
    "previewRedeem(uint256)": "4cdad506",
    "previewWithdraw(uint256)": "0a28a477",
    "proposeAdapters((address,uint64)[10],uint8)": "93b998f9",
    "proposedAdapterTime()": "8787b17a",
    "proposedAdapters(uint256)": "ac11f212",
    "proposedAdaptersCount()": "a71933a7",
    "proposedFeeTime()": "d96880a8",
    "proposedFees()": "f9828cff",
    "quitPeriod()": "49d4139f",
    "redeem(uint256,address,address)": "ba087652",
    "registry()": "7b103999",
    "renounceOwnership()": "715018a6",
    "rewardTokens(uint256)": "7bb7bed1",
    "symbol()": "95d89b41",
    "totalAssets()": "01e1d114",
    "totalSupply()": "18160ddd",
    "transfer(address,uint256)": "a9059cbb",
    "transferFrom(address,address,uint256)": "23b872dd",
    "transferOwnership(address)": "f2fde38b",
    "upgradeVault()": "4fa64598",
    "withdraw(uint256,address,address)": "b460af94",
    "withdrawalThreshold()": "7985fd51"
  }
}