{
  "address": "0x6204027E412F7102E03d72C53a36B2C188d7048D",
  "abi": [
    {
      "inputs": [
        {
          "internalType": "bytes4",
          "name": "_functionSelector",
          "type": "bytes4"
        }
      ],
      "name": "ExtensionNotFound",
      "type": "error"
    },
    {
      "inputs": [
        {
          "internalType": "bytes4",
          "name": "_functionSelector",
          "type": "bytes4"
        },
        {
          "internalType": "address",
          "name": "_currentImpl",
          "type": "address"
        }
      ],
      "name": "FunctionAlreadyAdded",
      "type": "error"
    },
    {
      "inputs": [
        {
          "internalType": "bytes4",
          "name": "_functionSelector",
          "type": "bytes4"
        }
      ],
      "name": "FunctionNotFound",
      "type": "error"
    },
    {
      "anonymous": false,
      "inputs": [
        {
          "indexed": true,
          "internalType": "address",
          "name": "previousOwner",
          "type": "address"
        },
        {
          "indexed": true,
          "internalType": "address",
          "name": "newOwner",
          "type": "address"
        }
      ],
      "name": "OwnershipTransferStarted",
      "type": "event"
    },
    {
      "anonymous": false,
      "inputs": [
        {
          "indexed": true,
          "internalType": "address",
          "name": "previousOwner",
          "type": "address"
        },
        {
          "indexed": true,
          "internalType": "address",
          "name": "newOwner",
          "type": "address"
        }
      ],
      "name": "OwnershipTransferred",
      "type": "event"
    },
    {
      "stateMutability": "nonpayable",
      "type": "fallback"
    },
    {
      "inputs": [],
      "name": "DECIMAL_OFFSET",
      "outputs": [
        {
          "internalType": "uint8",
          "name": "",
          "type": "uint8"
        }
      ],
      "stateMutability": "view",
      "type": "function"
    },
    {
      "inputs": [],
      "name": "_listExtensions",
      "outputs": [
        {
          "internalType": "address[]",
          "name": "",
          "type": "address[]"
        }
      ],
      "stateMutability": "view",
      "type": "function"
    },
    {
      "inputs": [
        {
          "internalType": "contract DiamondExtension",
          "name": "extensionToAdd",
          "type": "address"
        },
        {
          "internalType": "contract DiamondExtension",
          "name": "extensionToReplace",
          "type": "address"
        }
      ],
      "name": "_registerExtension",
      "outputs": [],
      "stateMutability": "nonpayable",
      "type": "function"
    },
    {
      "inputs": [],
      "name": "acceptOwnership",
      "outputs": [],
      "stateMutability": "nonpayable",
      "type": "function"
    },
    {
      "inputs": [
        {
          "internalType": "uint256",
          "name": "",
          "type": "uint256"
        }
      ],
      "name": "adapters",
      "outputs": [
        {
          "internalType": "contract CompoundMarketERC4626",
          "name": "adapter",
          "type": "address"
        },
        {
          "internalType": "uint64",
          "name": "allocation",
          "type": "uint64"
        }
      ],
      "stateMutability": "view",
      "type": "function"
    },
    {
      "inputs": [],
      "name": "adaptersCount",
      "outputs": [
        {
          "internalType": "uint8",
          "name": "",
          "type": "uint8"
        }
      ],
      "stateMutability": "view",
      "type": "function"
    },
    {
      "inputs": [],
      "name": "asFirstExtension",
      "outputs": [
        {
          "internalType": "contract OptimizedAPRVaultFirstExtension",
          "name": "",
          "type": "address"
        }
      ],
      "stateMutability": "view",
      "type": "function"
    },
    {
      "inputs": [],
      "name": "asSecondExtension",
      "outputs": [
        {
          "internalType": "contract OptimizedAPRVaultSecondExtension",
          "name": "",
          "type": "address"
        }
      ],
      "stateMutability": "view",
      "type": "function"
    },
    {
      "inputs": [],
      "name": "assetsCheckpoint",
      "outputs": [
        {
          "internalType": "uint256",
          "name": "",
          "type": "uint256"
        }
      ],
      "stateMutability": "view",
      "type": "function"
    },
    {
      "inputs": [],
      "name": "depositLimit",
      "outputs": [
        {
          "internalType": "uint256",
          "name": "",
          "type": "uint256"
        }
      ],
      "stateMutability": "view",
      "type": "function"
    },
    {
      "inputs": [],
      "name": "emergencyExit",
      "outputs": [
        {
          "internalType": "bool",
          "name": "",
          "type": "bool"
        }
      ],
      "stateMutability": "view",
      "type": "function"
    },
    {
      "inputs": [],
      "name": "feeRecipient",
      "outputs": [
        {
          "internalType": "address",
          "name": "",
          "type": "address"
        }
      ],
      "stateMutability": "view",
      "type": "function"
    },
    {
      "inputs": [],
      "name": "fees",
      "outputs": [
        {
          "internalType": "uint64",
          "name": "deposit",
          "type": "uint64"
        },
        {
          "internalType": "uint64",
          "name": "withdrawal",
          "type": "uint64"
        },
        {
          "internalType": "uint64",
          "name": "management",
          "type": "uint64"
        },
        {
          "internalType": "uint64",
          "name": "performance",
          "type": "uint64"
        }
      ],
      "stateMutability": "view",
      "type": "function"
    },
    {
      "inputs": [],
      "name": "feesUpdatedAt",
      "outputs": [
        {
          "internalType": "uint256",
          "name": "",
          "type": "uint256"
        }
      ],
      "stateMutability": "view",
      "type": "function"
    },
    {
      "inputs": [
        {
          "internalType": "contract IERC20Upgradeable",
          "name": "",
          "type": "address"
        }
      ],
      "name": "flywheelForRewardToken",
      "outputs": [
        {
          "internalType": "contract MidasFlywheel",
          "name": "",
          "type": "address"
        }
      ],
      "stateMutability": "view",
      "type": "function"
    },
    {
      "inputs": [],
      "name": "flywheelLogic",
      "outputs": [
        {
          "internalType": "address",
          "name": "",
          "type": "address"
        }
      ],
      "stateMutability": "view",
      "type": "function"
    },
    {
      "inputs": [],
      "name": "highWaterMark",
      "outputs": [
        {
          "internalType": "uint256",
          "name": "",
          "type": "uint256"
        }
      ],
      "stateMutability": "view",
      "type": "function"
    },
    {
      "inputs": [
        {
          "internalType": "contract OptimizedAPRVaultExtension[]",
          "name": "extensions",
          "type": "address[]"
        },
        {
          "internalType": "bytes",
          "name": "initData",
          "type": "bytes"
        }
      ],
      "name": "initialize",
      "outputs": [],
      "stateMutability": "nonpayable",
      "type": "function"
    },
    {
      "inputs": [
        {
          "internalType": "address",
          "name": "",
          "type": "address"
        }
      ],
      "name": "nonces",
      "outputs": [
        {
          "internalType": "uint256",
          "name": "",
          "type": "uint256"
        }
      ],
      "stateMutability": "view",
      "type": "function"
    },
    {
      "inputs": [],
      "name": "owner",
      "outputs": [
        {
          "internalType": "address",
          "name": "",
          "type": "address"
        }
      ],
      "stateMutability": "view",
      "type": "function"
    },
    {
      "inputs": [],
      "name": "pendingOwner",
      "outputs": [
        {
          "internalType": "address",
          "name": "",
          "type": "address"
        }
      ],
      "stateMutability": "view",
      "type": "function"
    },
    {
      "inputs": [],
      "name": "proposedAdapterTime",
      "outputs": [
        {
          "internalType": "uint256",
          "name": "",
          "type": "uint256"
        }
      ],
      "stateMutability": "view",
      "type": "function"
    },
    {
      "inputs": [
        {
          "internalType": "uint256",
          "name": "",
          "type": "uint256"
        }
      ],
      "name": "proposedAdapters",
      "outputs": [
        {
          "internalType": "contract CompoundMarketERC4626",
          "name": "adapter",
          "type": "address"
        },
        {
          "internalType": "uint64",
          "name": "allocation",
          "type": "uint64"
        }
      ],
      "stateMutability": "view",
      "type": "function"
    },
    {
      "inputs": [],
      "name": "proposedAdaptersCount",
      "outputs": [
        {
          "internalType": "uint8",
          "name": "",
          "type": "uint8"
        }
      ],
      "stateMutability": "view",
      "type": "function"
    },
    {
      "inputs": [],
      "name": "proposedFeeTime",
      "outputs": [
        {
          "internalType": "uint256",
          "name": "",
          "type": "uint256"
        }
      ],
      "stateMutability": "view",
      "type": "function"
    },
    {
      "inputs": [],
      "name": "proposedFees",
      "outputs": [
        {
          "internalType": "uint64",
          "name": "deposit",
          "type": "uint64"
        },
        {
          "internalType": "uint64",
          "name": "withdrawal",
          "type": "uint64"
        },
        {
          "internalType": "uint64",
          "name": "management",
          "type": "uint64"
        },
        {
          "internalType": "uint64",
          "name": "performance",
          "type": "uint64"
        }
      ],
      "stateMutability": "view",
      "type": "function"
    },
    {
      "inputs": [],
      "name": "quitPeriod",
      "outputs": [
        {
          "internalType": "uint256",
          "name": "",
          "type": "uint256"
        }
      ],
      "stateMutability": "view",
      "type": "function"
    },
    {
      "inputs": [],
      "name": "registry",
      "outputs": [
        {
          "internalType": "contract OptimizedVaultsRegistry",
          "name": "",
          "type": "address"
        }
      ],
      "stateMutability": "view",
      "type": "function"
    },
    {
      "inputs": [],
      "name": "renounceOwnership",
      "outputs": [],
      "stateMutability": "nonpayable",
      "type": "function"
    },
    {
      "inputs": [
        {
          "internalType": "uint256",
          "name": "",
          "type": "uint256"
        }
      ],
      "name": "rewardTokens",
      "outputs": [
        {
          "internalType": "contract IERC20Upgradeable",
          "name": "",
          "type": "address"
        }
      ],
      "stateMutability": "view",
      "type": "function"
    },
    {
      "inputs": [
        {
          "internalType": "address",
          "name": "newOwner",
          "type": "address"
        }
      ],
      "name": "transferOwnership",
      "outputs": [],
      "stateMutability": "nonpayable",
      "type": "function"
    },
    {
      "inputs": [],
      "name": "withdrawalThreshold",
      "outputs": [
        {
          "internalType": "uint256",
          "name": "",
          "type": "uint256"
        }
      ],
      "stateMutability": "view",
      "type": "function"
    }
  ],
  "transactionHash": "0xabc5b750d8b1f1fe2db27cb8e577b6c4b4e7118f09e373fd235d3d84a84bc5fd",
  "args": [],
  "numDeployments": 1,
  "bytecode": {
    "object": "0x608060405234801561001057600080fd5b5061001a3361001f565b610096565b600180546001600160a01b031916905561004381610046602090811b61086a17901c565b50565b600080546001600160a01b038381166001600160a01b0319831681178455604051919092169283917f8be0079c531659141344cd1fd0a4f28419497f9722a3daafe3b4186f6b6457e09190a35050565b611429806100a56000396000f3fe608060405234801561001057600080fd5b50600436106101f05760003560e01c806389cd98551161010f578063daa671ac116100a2578063ecf7085811610071578063ecf70858146104bd578063f2fde38b146104c6578063f62f1d53146104d9578063f9828cff14610502576101f0565b8063daa671ac14610488578063de7d4d6a14610491578063e30c397814610499578063e69e24a8146104aa576101f0565b8063a71933a7116100de578063a71933a71461045a578063ac11f2121461046c578063b542114c146102ae578063d96880a81461047f576101f0565b806389cd9855146103c65780638da5cb5b146103d95780639af1d35a146103ea5780639f3d0a4814610451576101f0565b8063715018a6116101875780637bb7bed1116101565780637bb7bed11461036b5780637c7a561b1461037e5780637ecebe001461039d5780638787b17a146103bd576101f0565b8063715018a61461033d5780637985fd511461034757806379ba5097146103505780637b10399914610358576101f0565b806349d4139f116101c357806349d4139f146102c75780634ef501ac146102d05780635641ec031461030b5780636333d00114610328576101f0565b80630f25b764146102675780631e8410da14610297578063338859f6146102ae57806346904840146102b4575b60006102076000356001600160e01b031916610535565b90506001600160a01b03811661024357604051630a82dd7360e31b81526001600160e01b03196000351660048201526024015b60405180910390fd5b3660008037600080366000845af43d6000803e808015610262573d6000f35b3d6000fd5b602a5461027a906001600160a01b031681565b6040516001600160a01b0390911681526020015b60405180910390f35b6102a060045481565b60405190815260200161028e565b3061027a565b600a5461027a906001600160a01b031681565b6102a060215481565b6102e36102de366004611073565b610598565b604080516001600160a01b03909316835267ffffffffffffffff90911660208301520161028e565b6026546103189060ff1681565b604051901515815260200161028e565b6103306105ca565b60405161028e919061108c565b6103456105d9565b005b6102a060275481565b610345610629565b60285461027a906001600160a01b031681565b61027a610379366004611073565b6106a3565b601f5461038b9060ff1681565b60405160ff909116815260200161028e565b6102a06103ab3660046110ee565b60256020526000908152604090205481565b6102a060205481565b6103456103d436600461110b565b6106cd565b6000546001600160a01b031661027a565b60075461041d9067ffffffffffffffff80821691600160401b8104821691600160801b8204811691600160c01b90041684565b6040805167ffffffffffffffff9586168152938516602085015291841691830191909152909116606082015260800161028e565b6102a060065481565b601f5461038b90610100900460ff1681565b6102e361047a366004611073565b610735565b6102a060095481565b6102a060055481565b61038b600981565b6001546001600160a01b031661027a565b6103456104b8366004611144565b610745565b6102a060225481565b6103456104d43660046110ee565b6107f9565b61027a6104e73660046110ee565b6029602052600090815260409020546001600160a01b031681565b60085461041d9067ffffffffffffffff80821691600160401b8104821691600160801b8204811691600160c01b90041684565b6001600160e01b0319811660009081526000805160206113fd833981519152602081905260408220546001600160a01b03168061059157604051631f3f429960e31b81526001600160e01b03198516600482015260240161023a565b9392505050565b600b81600a81106105a857600080fd5b01546001600160a01b0381169150600160a01b900467ffffffffffffffff1682565b60606105d46108ba565b905090565b6105e161092c565b60405162461bcd60e51b815260206004820152601e60248201527f72656e6f756e6365206f776e657273686970206e6f7420616c6c6f7765640000604482015260640161023a565b60015433906001600160a01b031681146106975760405162461bcd60e51b815260206004820152602960248201527f4f776e61626c6532537465703a2063616c6c6572206973206e6f7420746865206044820152683732bb9037bbb732b960b91b606482015260840161023a565b6106a081610988565b50565b602b81815481106106b357600080fd5b6000918252602090912001546001600160a01b0316905081565b6000546001600160a01b031633146107275760405162461bcd60e51b815260206004820152601f60248201527f21756e617574686f72697a6564202d206e6f2061646d696e2072696768747300604482015260640161023a565b61073182826109a1565b5050565b601581600a81106105a857600080fd5b61074d61092c565b60005b8381101561079b5761078985858381811061076d5761076d611209565b905060200201602081019061078291906110ee565b60006109a1565b8061079381611235565b915050610750565b5060405163439fab9160e01b8152309063439fab91906107c19085908590600401611250565b600060405180830381600087803b1580156107db57600080fd5b505af11580156107ef573d6000803e3d6000fd5b5050505050505050565b61080161092c565b600180546001600160a01b0383166001600160a01b031990911681179091556108326000546001600160a01b031690565b6001600160a01b03167f38d16b8cac22d99fc7c124b9cd0de2d3fa1faef420bfe791d8c362d765e2270060405160405180910390a350565b600080546001600160a01b038381166001600160a01b0319831681178455604051919092169283917f8be0079c531659141344cd1fd0a4f28419497f9722a3daafe3b4186f6b6457e09190a35050565b60606000805160206113fd83398151915260020180548060200260200160405190810160405280929190818152602001828054801561092257602002820191906000526020600020905b81546001600160a01b03168152600190910190602001808311610904575b5050505050905090565b6000546001600160a01b031633146109865760405162461bcd60e51b815260206004820181905260248201527f4f776e61626c653a2063616c6c6572206973206e6f7420746865206f776e6572604482015260640161023a565b565b600180546001600160a01b03191690556106a08161086a565b6001600160a01b038116156109b9576109b9816109c2565b61073182610af7565b6000805160206113fd8339815191526109da82610bef565b60005b600282015460ff82161015610af257826001600160a01b0316826002018260ff1681548110610a0e57610a0e611209565b6000918252602090912001546001600160a01b03161415610ae057600282018054610a3b9060019061127f565b81548110610a4b57610a4b611209565b6000918252602090912001546002830180546001600160a01b039092169160ff8416908110610a7c57610a7c611209565b9060005260206000200160006101000a8154816001600160a01b0302191690836001600160a01b0316021790555081600201805480610abd57610abd611296565b600082815260209020810160001990810180546001600160a01b03191690550190555b80610aea816112ac565b9150506109dd565b505050565b6000805160206113fd83398151915260005b600282015460ff82161015610baf57826001600160a01b0316826002018260ff1681548110610b3a57610b3a611209565b6000918252602090912001546001600160a01b03161415610b9d5760405162461bcd60e51b815260206004820152601760248201527f657874656e73696f6e20616c7265616479206164646564000000000000000000604482015260640161023a565b80610ba7816112ac565b915050610b09565b50610bb982610e82565b6002018054600181018255600091825260209091200180546001600160a01b0319166001600160a01b0392909216919091179055565b6000816001600160a01b03166389f8132e6040518163ffffffff1660e01b8152600401600060405180830381865afa158015610c2f573d6000803e3d6000fd5b505050506040513d6000823e601f3d908101601f19168201604052610c5791908101906112ff565b90506000805160206113fd83398151915260005b82518161ffff161015610e7c576000838261ffff1681518110610c9057610c90611209565b6020908102919091018101516001600160e01b031981166000908152918590526040909120549091506001600160a01b03868116911614610cd357610cd36113c4565b6001600160e01b0319811660009081526020849052604090205460018085018054600160a01b90930461ffff16929091610d0c9161127f565b81548110610d1c57610d1c611209565b90600052602060002090600891828204019190066004029054906101000a900460e01b846001018261ffff1681548110610d5857610d58611209565b90600052602060002090600891828204019190066004026101000a81548163ffffffff021916908360e01c021790555080846000016000866001018461ffff1681548110610da857610da8611209565b6000918252602080832060088304015460079092166004026101000a90910460e01b6001600160e01b03191683528201929092526040019020805461ffff60a01b1916600160a01b61ffff939093169290920291909117905560018401805480610e1457610e14611296565b60008281526020808220600860001990940193840401805463ffffffff600460078716026101000a0219169055919092556001600160e01b0319909316815291849052506040902080546001600160b01b031916905580610e74816113da565b915050610c6b565b50505050565b6000816001600160a01b03166389f8132e6040518163ffffffff1660e01b8152600401600060405180830381865afa158015610ec2573d6000803e3d6000fd5b505050506040513d6000823e601f3d908101601f19168201604052610eea91908101906112ff565b7fc8fcad8db84d3cc18b4c41d551ea0ee66dd599cde068d998e57d5e09332c131d549091506000805160206113fd8339815191529060005b835181101561106c576000848281518110610f3f57610f3f611209565b6020908102919091018101516001600160e01b031981166000908152918690526040909120549091506001600160a01b03168015610fab57604051632c18df3360e01b81526001600160e01b0319831660048201526001600160a01b038216602482015260440161023a565b6040805180820182526001600160a01b03808a16825261ffff80881660208085019182526001600160e01b0319881660009081528b8252958620945185549251909316600160a01b026001600160b01b0319909216929093169190911717909155600180880180549182018155835291206008820401805460e085901c60046007909416939093026101000a92830263ffffffff909302191691909117905583611054816113da565b9450505050808061106490611235565b915050610f22565b5050505050565b60006020828403121561108557600080fd5b5035919050565b6020808252825182820181905260009190848201906040850190845b818110156110cd5783516001600160a01b0316835292840192918401916001016110a8565b50909695505050505050565b6001600160a01b03811681146106a057600080fd5b60006020828403121561110057600080fd5b8135610591816110d9565b6000806040838503121561111e57600080fd5b8235611129816110d9565b91506020830135611139816110d9565b809150509250929050565b6000806000806040858703121561115a57600080fd5b843567ffffffffffffffff8082111561117257600080fd5b818701915087601f83011261118657600080fd5b81358181111561119557600080fd5b8860208260051b85010111156111aa57600080fd5b6020928301965094509086013590808211156111c557600080fd5b818701915087601f8301126111d957600080fd5b8135818111156111e857600080fd5b8860208285010111156111fa57600080fd5b95989497505060200194505050565b634e487b7160e01b600052603260045260246000fd5b634e487b7160e01b600052601160045260246000fd5b60006000198214156112495761124961121f565b5060010190565b60208152816020820152818360408301376000818301604090810191909152601f909201601f19160101919050565b6000828210156112915761129161121f565b500390565b634e487b7160e01b600052603160045260246000fd5b600060ff821660ff8114156112c3576112c361121f565b60010192915050565b634e487b7160e01b600052604160045260246000fd5b80516001600160e01b0319811681146112fa57600080fd5b919050565b6000602080838503121561131257600080fd5b825167ffffffffffffffff8082111561132a57600080fd5b818501915085601f83011261133e57600080fd5b815181811115611350576113506112cc565b8060051b604051601f19603f83011681018181108582111715611375576113756112cc565b60405291825284820192508381018501918883111561139357600080fd5b938501935b828510156113b8576113a9856112e2565b84529385019392850192611398565b98975050505050505050565b634e487b7160e01b600052600160045260246000fd5b600061ffff808316818114156113f2576113f261121f565b600101939250505056fec8fcad8db84d3cc18b4c41d551ea0ee66dd599cde068d998e57d5e09332c131ca164736f6c634300080a000a",
    "linkReferences": {}
  },
  "methodIdentifiers": {
    "DECIMAL_OFFSET()": "de7d4d6a",
    "_listExtensions()": "6333d001",
    "_registerExtension(address,address)": "89cd9855",
    "acceptOwnership()": "79ba5097",
    "adapters(uint256)": "4ef501ac",
    "adaptersCount()": "7c7a561b",
    "asFirstExtension()": "338859f6",
    "asSecondExtension()": "b542114c",
    "assetsCheckpoint()": "daa671ac",
    "depositLimit()": "ecf70858",
    "emergencyExit()": "5641ec03",
    "feeRecipient()": "46904840",
    "fees()": "9af1d35a",
    "feesUpdatedAt()": "9f3d0a48",
    "flywheelForRewardToken(address)": "f62f1d53",
    "flywheelLogic()": "0f25b764",
    "highWaterMark()": "1e8410da",
    "initialize(address[],bytes)": "e69e24a8",
    "nonces(address)": "7ecebe00",
    "owner()": "8da5cb5b",
    "pendingOwner()": "e30c3978",
    "proposedAdapterTime()": "8787b17a",
    "proposedAdapters(uint256)": "ac11f212",
    "proposedAdaptersCount()": "a71933a7",
    "proposedFeeTime()": "d96880a8",
    "proposedFees()": "f9828cff",
    "quitPeriod()": "49d4139f",
    "registry()": "7b103999",
    "renounceOwnership()": "715018a6",
    "rewardTokens(uint256)": "7bb7bed1",
    "transferOwnership(address)": "f2fde38b",
    "withdrawalThreshold()": "7985fd51"
  }
}