{
  "address": "0x739A2A4eD68503c9B74558aa09723aBE3C9c820D",
  "abi": [
    {
      "anonymous": false,
      "inputs": [
        {
          "indexed": false,
          "internalType": "uint8",
          "name": "version",
          "type": "uint8"
        }
      ],
      "name": "Initialized",
      "type": "event"
    },
    {
      "inputs": [],
      "name": "baseToken",
      "outputs": [
        {
          "internalType": "address",
          "name": "",
          "type": "address"
        }
      ],
      "stateMutability": "view",
      "type": "function"
    },
    {
      "inputs": [
        {
          "internalType": "contract ICErc20",
          "name": "cToken",
          "type": "address"
        }
      ],
      "name": "getUnderlyingPrice",
      "outputs": [
        {
          "internalType": "uint256",
          "name": "",
          "type": "uint256"
        }
      ],
      "stateMutability": "view",
      "type": "function"
    },
    {
      "inputs": [
        {
          "internalType": "address",
          "name": "_rootOracle",
          "type": "address"
        },
        {
          "internalType": "address",
          "name": "_uniswapV2Factory",
          "type": "address"
        },
        {
          "internalType": "address",
          "name": "_baseToken",
          "type": "address"
        },
        {
          "internalType": "address",
          "name": "_wtoken",
          "type": "address"
        }
      ],
      "name": "initialize",
      "outputs": [],
      "stateMutability": "nonpayable",
      "type": "function"
    },
    {
      "inputs": [
        {
          "internalType": "address",
          "name": "underlying",
          "type": "address"
        }
      ],
      "name": "price",
      "outputs": [
        {
          "internalType": "uint256",
          "name": "",
          "type": "uint256"
        }
      ],
      "stateMutability": "view",
      "type": "function"
    },
    {
      "inputs": [],
      "name": "rootOracle",
      "outputs": [
        {
          "internalType": "contract UniswapTwapPriceOracleV2Root",
          "name": "",
          "type": "address"
        }
      ],
      "stateMutability": "view",
      "type": "function"
    },
    {
      "inputs": [],
      "name": "uniswapV2Factory",
      "outputs": [
        {
          "internalType": "address",
          "name": "",
          "type": "address"
        }
      ],
      "stateMutability": "view",
      "type": "function"
    },
    {
      "inputs": [],
      "name": "wtoken",
      "outputs": [
        {
          "internalType": "address",
          "name": "",
          "type": "address"
        }
      ],
      "stateMutability": "view",
      "type": "function"
    }
  ],
  "transactionHash": "0x33e138b74afd14fcdb8bc6aabc66f4cece06509414316d1a47962ec4dda6c9f4",
  "args": [],
  "numDeployments": 1,
  "bytecode": {
    "object": "0x608060405234801561001057600080fd5b506108d4806100206000396000f3fe608060405234801561001057600080fd5b506004361061007d5760003560e01c8063c55dae631161005b578063c55dae63146100ec578063e3cb23a5146100ff578063f8c8765e14610112578063fc57d4df1461012757600080fd5b806359d0f713146100825780639c0591c8146100b2578063aea91078146100cb575b600080fd5b600254610095906001600160a01b031681565b6040516001600160a01b0390911681526020015b60405180910390f35b600054610095906201000090046001600160a01b031681565b6100de6100d93660046106ae565b61013a565b6040519081526020016100a9565b600354610095906001600160a01b031681565b600154610095906001600160a01b031681565b6101256101203660046106cb565b61014b565b005b6100de6101353660046106ae565b6103a5565b6000610145826104ae565b92915050565b600054610100900460ff161580801561016b5750600054600160ff909116105b806101855750303b158015610185575060005460ff166001145b6101ed5760405162461bcd60e51b815260206004820152602e60248201527f496e697469616c697a61626c653a20636f6e747261637420697320616c72656160448201526d191e481a5b9a5d1a585b1a5e995960921b60648201526084015b60405180910390fd5b6000805460ff191660011790558015610210576000805461ff0019166101001790555b6001600160a01b0385166102785760405162461bcd60e51b815260206004820152602960248201527f556e69737761705477617050726963654f7261636c655632526f6f74206e6f74604482015268103232b334b732b21760b91b60648201526084016101e4565b6001600160a01b0384166102ce5760405162461bcd60e51b815260206004820152601d60248201527f556e69737761705632466163746f7279206e6f7420646566696e65642e00000060448201526064016101e4565b600180546001600160a01b03199081166001600160a01b0388811691909117909255600280549091168683161790556000805462010000600160b01b03191662010000858416021790558316156103255782610338565b6000546201000090046001600160a01b03165b600380546001600160a01b0319166001600160a01b0392909216919091179055801561039e576000805461ff0019169055604051600181527f7f26b83ff96e1f2b6a682f133852f6798a09c465da95921460cefb38474024989060200160405180910390a15b5050505050565b600080826001600160a01b0316636f307dc36040518163ffffffff1660e01b8152600401602060405180830381865afa1580156103e6573d6000803e3d6000fd5b505050506040513d601f19601f8201168201806040525081019061040a9190610727565b90506000816001600160a01b031663313ce5676040518163ffffffff1660e01b8152600401602060405180830381865afa15801561044c573d6000803e3d6000fd5b505050506040513d601f19601f820116820180604052508101906104709190610744565b61047e9060ff16600a610861565b90508061048a836104ae565b61049c90670de0b6b3a764000061086d565b6104a6919061088c565b949350505050565b600080546001600160a01b03838116620100009092041614156104da5750670de0b6b3a7640000919050565b60015460035460025460405163b9b2e68f60e01b81526001600160a01b03868116600483015292831660248201529082166044820152600092919091169063b9b2e68f90606401602060405180830381865afa15801561053e573d6000803e3d6000fd5b505050506040513d601f19601f8201168201806040525081019061056291906108ae565b6000546003549192506201000090046001600160a01b0390811691161461068d57600360009054906101000a90046001600160a01b03166001600160a01b031663313ce5676040518163ffffffff1660e01b8152600401602060405180830381865afa1580156105d6573d6000803e3d6000fd5b505050506040513d601f19601f820116820180604052508101906105fa9190610744565b6106089060ff16600a610861565b6003546040516315d5220f60e31b81526001600160a01b039091166004820152339063aea9107890602401602060405180830381865afa158015610650573d6000803e3d6000fd5b505050506040513d601f19601f8201168201806040525081019061067491906108ae565b61067e908361086d565b610688919061088c565b61068f565b805b9392505050565b6001600160a01b03811681146106ab57600080fd5b50565b6000602082840312156106c057600080fd5b813561068f81610696565b600080600080608085870312156106e157600080fd5b84356106ec81610696565b935060208501356106fc81610696565b9250604085013561070c81610696565b9150606085013561071c81610696565b939692955090935050565b60006020828403121561073957600080fd5b815161068f81610696565b60006020828403121561075657600080fd5b815160ff8116811461068f57600080fd5b634e487b7160e01b600052601160045260246000fd5b600181815b808511156107b857816000190482111561079e5761079e610767565b808516156107ab57918102915b93841c9390800290610782565b509250929050565b6000826107cf57506001610145565b816107dc57506000610145565b81600181146107f257600281146107fc57610818565b6001915050610145565b60ff84111561080d5761080d610767565b50506001821b610145565b5060208310610133831016604e8410600b841016171561083b575081810a610145565b610845838361077d565b806000190482111561085957610859610767565b029392505050565b600061068f83836107c0565b600081600019048311821515161561088757610887610767565b500290565b6000826108a957634e487b7160e01b600052601260045260246000fd5b500490565b6000602082840312156108c057600080fd5b505191905056fea164736f6c634300080a000a",
    "linkReferences": {}
  },
  "methodIdentifiers": {
    "baseToken()": "c55dae63",
    "getUnderlyingPrice(address)": "fc57d4df",
    "initialize(address,address,address,address)": "f8c8765e",
    "price(address)": "aea91078",
    "rootOracle()": "e3cb23a5",
    "uniswapV2Factory()": "59d0f713",
    "wtoken()": "9c0591c8"
  }
}