{"abi":[{"type":"constructor","inputs":[{"name":"_positionOwner","type":"address","internalType":"address"},{"name":"_collateralMarket","type":"address","internalType":"contract ICErc20"},{"name":"_stableMarket","type":"address","internalType":"contract ICErc20"}],"stateMutability":"nonpayable"},{"type":"fallback","stateMutability":"nonpayable"},{"type":"function","name":"adjustLeverageRatio","inputs":[{"name":"targetRatioMantissa","type":"uint256","internalType":"uint256"}],"outputs":[{"name":"","type":"uint256","internalType":"uint256"}],"stateMutability":"nonpayable"},{"type":"function","name":"claimRewards","inputs":[],"outputs":[],"stateMutability":"nonpayable"},{"type":"function","name":"claimRewards","inputs":[{"name":"withdrawTo","type":"address","internalType":"address"}],"outputs":[],"stateMutability":"nonpayable"},{"type":"function","name":"closePosition","inputs":[{"name":"withdrawTo","type":"address","internalType":"address"}],"outputs":[{"name":"withdrawAmount","type":"uint256","internalType":"uint256"}],"stateMutability":"nonpayable"},{"type":"function","name":"closePosition","inputs":[],"outputs":[{"name":"","type":"uint256","internalType":"uint256"}],"stateMutability":"nonpayable"},{"type":"function","name":"collateralAsset","inputs":[],"outputs":[{"name":"","type":"address","internalType":"contract IERC20Upgradeable"}],"stateMutability":"view"},{"type":"function","name":"collateralMarket","inputs":[],"outputs":[{"name":"","type":"address","internalType":"contract ICErc20"}],"stateMutability":"view"},{"type":"function","name":"factory","inputs":[],"outputs":[{"name":"","type":"address","internalType":"contract ILeveredPositionFactory"}],"stateMutability":"view"},{"type":"function","name":"fundPosition","inputs":[{"name":"fundingAsset","type":"address","internalType":"contract IERC20Upgradeable"},{"name":"amount","type":"uint256","internalType":"uint256"}],"outputs":[],"stateMutability":"nonpayable"},{"type":"function","name":"getAccruedRewards","inputs":[],"outputs":[{"name":"rewardTokens","type":"address[]","internalType":"contract ERC20[]"},{"name":"amounts","type":"uint256[]","internalType":"uint256[]"}],"stateMutability":"nonpayable"},{"type":"function","name":"getCurrentLeverageRatio","inputs":[],"outputs":[{"name":"","type":"uint256","internalType":"uint256"}],"stateMutability":"view"},{"type":"function","name":"getEquityAmount","inputs":[],"outputs":[{"name":"equityAmount","type":"uint256","internalType":"uint256"}],"stateMutability":"view"},{"type":"function","name":"getMaxLeverageRatio","inputs":[],"outputs":[{"name":"","type":"uint256","internalType":"uint256"}],"stateMutability":"view"},{"type":"function","name":"getMinLeverageRatio","inputs":[],"outputs":[{"name":"","type":"uint256","internalType":"uint256"}],"stateMutability":"view"},{"type":"function","name":"getSupplyAmountDelta","inputs":[{"name":"targetRatio","type":"uint256","internalType":"uint256"}],"outputs":[{"name":"","type":"uint256","internalType":"uint256"},{"name":"","type":"uint256","internalType":"uint256"}],"stateMutability":"view"},{"type":"function","name":"isPositionClosed","inputs":[],"outputs":[{"name":"","type":"bool","internalType":"bool"}],"stateMutability":"view"},{"type":"function","name":"pool","inputs":[],"outputs":[{"name":"","type":"address","internalType":"contract IonicComptroller"}],"stateMutability":"view"},{"type":"function","name":"positionOwner","inputs":[],"outputs":[{"name":"","type":"address","internalType":"address"}],"stateMutability":"view"},{"type":"function","name":"receiveFlashLoan","inputs":[{"name":"assetAddress","type":"address","internalType":"address"},{"name":"borrowedAmount","type":"uint256","internalType":"uint256"},{"name":"data","type":"bytes","internalType":"bytes"}],"outputs":[],"stateMutability":"nonpayable"},{"type":"function","name":"stableAsset","inputs":[],"outputs":[{"name":"","type":"address","internalType":"contract IERC20Upgradeable"}],"stateMutability":"view"},{"type":"function","name":"stableMarket","inputs":[],"outputs":[{"name":"","type":"address","internalType":"contract ICErc20"}],"stateMutability":"view"},{"type":"function","name":"withdrawStableLeftovers","inputs":[{"name":"withdrawTo","type":"address","internalType":"address"}],"outputs":[{"name":"","type":"uint256","internalType":"uint256"}],"stateMutability":"nonpayable"},{"type":"error","name":"BorrowStableFailed","inputs":[{"name":"errorCode","type":"uint256","internalType":"uint256"}]},{"type":"error","name":"ConvertFundsFailed","inputs":[]},{"type":"error","name":"ExitFailed","inputs":[{"name":"errorCode","type":"uint256","internalType":"uint256"}]},{"type":"error","name":"ExtNotFound","inputs":[{"name":"_functionSelector","type":"bytes4","internalType":"bytes4"}]},{"type":"error","name":"NotPositionOwner","inputs":[]},{"type":"error","name":"OnlyWhenClosed","inputs":[]},{"type":"error","name":"RedeemCollateralFailed","inputs":[{"name":"errorCode","type":"uint256","internalType":"uint256"}]},{"type":"error","name":"RedeemFailed","inputs":[{"name":"errorCode","type":"uint256","internalType":"uint256"}]},{"type":"error","name":"RepayBorrowFailed","inputs":[{"name":"errorCode","type":"uint256","internalType":"uint256"}]},{"type":"error","name":"RepayFlashLoanFailed","inputs":[{"name":"asset","type":"address","internalType":"address"},{"name":"currentBalance","type":"uint256","internalType":"uint256"},{"name":"repayAmount","type":"uint256","internalType":"uint256"}]},{"type":"error","name":"SupplyCollateralFailed","inputs":[{"name":"errorCode","type":"uint256","internalType":"uint256"}]}],"bytecode":{"object":"0x60a06040523480156200001157600080fd5b5060405162004749380380620047498339810160408190526200003491620002e5565b6001600160a01b0380841660805260408051635fe3b56760e01b81529051600092851691635fe3b5679160048083019260209291908290030181865afa15801562000083573d6000803e3d6000fd5b505050506040513d601f19601f82011682018060405250810190620000a9919062000339565b90506000826001600160a01b0316635fe3b5676040518163ffffffff1660e01b8152600401602060405180830381865afa158015620000ec573d6000803e3d6000fd5b505050506040513d601f19601f8201168201806040525081019062000112919062000339565b9050806001600160a01b0316826001600160a01b0316146200017a5760405162461bcd60e51b815260206004820152601460248201527f6d61726b65747320706f6f6c7320646966666572000000000000000000000000604482015260640160405180910390fd5b600380546001600160a01b038085166001600160a01b03199283161790925560018054928716929091168217905560408051636f307dc360e01b81529051636f307dc3916004808201926020929091908290030181865afa158015620001e4573d6000803e3d6000fd5b505050506040513d601f19601f820116820180604052508101906200020a919062000339565b600480546001600160a01b039283166001600160a01b031991821617825560028054938716939091168317905560408051636f307dc360e01b81529051636f307dc3928281019260209291908290030181865afa15801562000270573d6000803e3d6000fd5b505050506040513d601f19601f8201168201806040525081019062000296919062000339565b600580546001600160a01b03929092166001600160a01b0319928316179055600080549091163317905550620003609350505050565b6001600160a01b0381168114620002e257600080fd5b50565b600080600060608486031215620002fb57600080fd5b83516200030881620002cc565b60208501519093506200031b81620002cc565b60408501519092506200032e81620002cc565b809150509250925092565b6000602082840312156200034c57600080fd5b81516200035981620002cc565b9392505050565b6080516143b162000398600039600081816103a301528181610574015281816111e0015281816117dc0152611ba201526143b16000f3fe608060405234801561001057600080fd5b50600436106101425760003560e01c8063958fa280116100b8578063b21fd0291161007c578063b21fd02914610368578063c31443bb1461037b578063c393d0e314610383578063c45a01551461038b578063cb2af14b1461039e578063ef5cfb8c146103c557610142565b8063958fa28014610314578063a415deda14610327578063a7e269a61461033a578063a833cb7f1461034d578063aabaecd61461035557610142565b80633a8a23071161010a5780633a8a2307146102a55780633e2f147f146102b8578063459b9ef1146102d0578063555b334a146102d85780636813f999146102ee578063902849331461030157610142565b806316f0115b1461021a5780631d7d45b31461024a5780632f86e2dd14610272578063372500ab14610293578063374607041461029d575b60008054604051634377ba4160e11b815282356001600160e01b03191660048201526001600160a01b03909116906386ef748290602401602060405180830381865afa158015610196573d6000803e3d6000fd5b505050506040513d601f19601f820116820180604052508101906101ba9190613b12565b90506001600160a01b0381166101f657604051637d60257960e01b81526001600160e01b03196000351660048201526024015b60405180910390fd5b3660008037600080366000845af43d6000803e808015610215573d6000f35b3d6000fd5b60035461022d906001600160a01b031681565b6040516001600160a01b0390911681526020015b60405180910390f35b61025d610258366004613b2f565b6103d8565b60408051928352602083019190915201610241565b610285610280366004613b48565b610567565b604051908152602001610241565b61029b610908565b005b610285610913565b61029b6102b3366004613b65565b610a9c565b6102c0610c04565b6040519015158152602001610241565b610285610c77565b6102e0610e86565b604051610241929190613b91565b60055461022d906001600160a01b031681565b61028561030f366004613b2f565b6111d3565b61029b610322366004613c15565b61128b565b60015461022d906001600160a01b031681565b60025461022d906001600160a01b031681565b61028561150d565b60045461022d906001600160a01b031681565b610285610376366004613b48565b6117cf565b6102856118c6565b610285611b87565b60005461022d906001600160a01b031681565b61022d7f000000000000000000000000000000000000000000000000000000000000000081565b61029b6103d3366004613b48565b611b97565b6000806000600360009054906101000a90046001600160a01b03166001600160a01b0316637dc0d1d06040518163ffffffff1660e01b8152600401602060405180830381865afa158015610430573d6000803e3d6000fd5b505050506040513d601f19601f820116820180604052508101906104549190613b12565b60025460405163fc57d4df60e01b81526001600160a01b0391821660048201529192506000919083169063fc57d4df90602401602060405180830381865afa1580156104a4573d6000803e3d6000fd5b505050506040513d601f19601f820116820180604052508101906104c89190613c9e565b60015460405163fc57d4df60e01b81526001600160a01b0391821660048201529192506000919084169063fc57d4df90602401602060405180830381865afa158015610518573d6000803e3d6000fd5b505050506040513d601f19601f8201168201806040525081019061053c9190613c9e565b905060006105486118c6565b905080871161055981898587611f4b565b965096505050505050915091565b6000336001600160a01b037f000000000000000000000000000000000000000000000000000000000000000016148015906105ad57506000546001600160a01b03163314155b156105cb576040516370d645e360e01b815260040160405180910390fd5b6105dc670de0b6b3a76400006123c0565b600160009054906101000a90046001600160a01b03166001600160a01b031663a6afed956040518163ffffffff1660e01b81526004016020604051808303816000875af1158015610631573d6000803e3d6000fd5b505050506040513d601f19601f820116820180604052508101906106559190613c9e565b50600354600154604051630ede4edd60e41b81526001600160a01b039182166004820152600092919091169063ede4edd0906024016020604051808303816000875af11580156106a9573d6000803e3d6000fd5b505050506040513d601f19601f820116820180604052508101906106cd9190613c9e565b905080156106f15760405163059548ef60e51b8152600481018290526024016101ed565b6001546040516370a0823160e01b81523060048201526001600160a01b039091169063db006a759082906370a0823190602401602060405180830381865afa158015610741573d6000803e3d6000fd5b505050506040513d601f19601f820116820180604052508101906107659190613c9e565b6040518263ffffffff1660e01b815260040161078391815260200190565b6020604051808303816000875af11580156107a2573d6000803e3d6000fd5b505050506040513d601f19601f820116820180604052508101906107c69190613c9e565b905080156107ea5760405163eeddaac560e01b8152600481018290526024016101ed565b6005546040516370a0823160e01b81523060048201526000916001600160a01b0316906370a0823190602401602060405180830381865afa158015610833573d6000803e3d6000fd5b505050506040513d601f19601f820116820180604052508101906108579190613c9e565b111561087b57600554600454610879916001600160a01b039081169116612968565b505b600480546040516370a0823160e01b815230928101929092526001600160a01b0316906370a0823190602401602060405180830381865afa1580156108c4573d6000803e3d6000fd5b505050506040513d601f19601f820116820180604052508101906108e89190613c9e565b600454909250610902906001600160a01b03168484612af8565b50919050565b61091133611b97565b565b600154604051633af9e66960e01b815230600482015260009182916001600160a01b0390911690633af9e66990602401602060405180830381865afa158015610960573d6000803e3d6000fd5b505050506040513d601f19601f820116820180604052508101906109849190613c9e565b90508061099357600091505090565b600354600254604051630cbb414760e11b81523060048201526001600160a01b039182166024820152600160448201526000929190911690631976828e90606401602060405180830381865afa1580156109f1573d6000803e3d6000fd5b505050506040513d601f19601f82011682018060405250810190610a159190613c9e565b6002546040516305eff7ef60e21b81523060048201529192506000916001600160a01b03909116906317bfdfbc90602401602060405180830381865afa158015610a63573d6000803e3d6000fd5b505050506040513d601f19601f82011682018060405250810190610a879190613c9e565b9050610a94828483612b5b565b935050505090565b610ab16001600160a01b038316333084612ea4565b610aba82612edc565b5060035460015460405163929fe9a160e01b81526001600160a01b039283169263929fe9a192610af292309290911690600401613cb7565b602060405180830381865afa158015610b0f573d6000803e3d6000fd5b505050506040513d601f19601f82011682018060405250810190610b339190613cd1565b610c005760408051600180825281830190925260009160208083019080368337505060015482519293506001600160a01b031691839150600090610b7957610b79613d09565b6001600160a01b039283166020918202929092010152600354604051631853304760e31b815291169063c299823890610bb6908490600401613d1f565b6000604051808303816000875af1158015610bd5573d6000803e3d6000fd5b505050506040513d6000823e601f3d908101601f19168201604052610bfd9190810190613dc1565b50505b5050565b600154604051633af9e66960e01b81523060048201526000916001600160a01b031690633af9e66990602401602060405180830381865afa158015610c4d573d6000803e3d6000fd5b505050506040513d601f19601f82011682018060405250810190610c719190613c9e565b15919050565b600154604051633af9e66960e01b815230600482015260009182916001600160a01b0390911690633af9e66990602401602060405180830381865afa158015610cc4573d6000803e3d6000fd5b505050506040513d601f19601f82011682018060405250810190610ce89190613c9e565b905080610cf757600091505090565b600354604080516307dc0d1d60e41b815290516000926001600160a01b031691637dc0d1d09160048083019260209291908290030181865afa158015610d41573d6000803e3d6000fd5b505050506040513d601f19601f82011682018060405250810190610d659190613b12565b60025460405163fc57d4df60e01b81526001600160a01b0391821660048201529192506000919083169063fc57d4df90602401602060405180830381865afa158015610db5573d6000803e3d6000fd5b505050506040513d601f19601f82011682018060405250810190610dd99190613c9e565b905060008160008054906101000a90046001600160a01b03166001600160a01b0316630da2262c6040518163ffffffff1660e01b8152600401602060405180830381865afa158015610e2f573d6000803e3d6000fd5b505050506040513d601f19601f82011682018060405250810190610e539190613c9e565b610e6590670de0b6b3a7640000613e6d565b610e6f9190613ea2565b9050610e7d81856000612b5b565b94505050505090565b6060806000600360009054906101000a90046001600160a01b03166001600160a01b0316633605b51b6040518163ffffffff1660e01b8152600401600060405180830381865afa158015610ede573d6000803e3d6000fd5b505050506040513d6000823e601f3d908101601f19168201604052610f069190810190613eb6565b9050805167ffffffffffffffff811115610f2257610f22613cf3565b604051908082528060200260200182016040528015610f4b578160200160208202803683370190505b509250805167ffffffffffffffff811115610f6857610f68613cf3565b604051908082528060200260200182016040528015610f91578160200160208202803683370190505b50915060005b81518110156111cd576000828281518110610fb457610fb4613d09565b6020908102919091010151600154604051632e6f912b60e21b81529192506001600160a01b038084169263b9be44ac92610ff49216903090600401613cb7565b6020604051808303816000875af1158015611013573d6000803e3d6000fd5b505050506040513d601f19601f820116820180604052508101906110379190613c9e565b50600254604051632e6f912b60e21b81526001600160a01b038381169263b9be44ac9261106c92909116903090600401613cb7565b6020604051808303816000875af115801561108b573d6000803e3d6000fd5b505050506040513d601f19601f820116820180604052508101906110af9190613c9e565b50806001600160a01b031663f7c618c16040518163ffffffff1660e01b8152600401602060405180830381865afa1580156110ee573d6000803e3d6000fd5b505050506040513d601f19601f820116820180604052508101906111129190613b12565b85838151811061112457611124613d09565b6001600160a01b039283166020918202929092010152604051630ff6b5a760e31b815230600482015290821690637fb5ad38906024016020604051808303816000875af1158015611179573d6000803e3d6000fd5b505050506040513d601f19601f8201168201806040525081019061119d9190613c9e565b8483815181106111af576111af613d09565b602090810291909101015250806111c581613f45565b915050610f97565b50509091565b6000336001600160a01b037f0000000000000000000000000000000000000000000000000000000000000000161480159061121957506000546001600160a01b03163314155b15611237576040516370d645e360e01b815260040160405180910390fd5b670de0b6b3a7640000821161125757611257670de0b6b3a76400006123c0565b816112606118c6565b10156112745761126f82613090565b61127d565b61127d826123c0565b6112856118c6565b92915050565b6001546001600160a01b03163314156113735760006112ac82840184613b2f565b90506112b7816133dd565b600480546040516370a0823160e01b815230928101929092526000916001600160a01b03909116906370a0823190602401602060405180830381865afa158015611305573d6000803e3d6000fd5b505050506040513d601f19601f820116820180604052508101906113299190613c9e565b90508481101561136c57600480546040516319ad25f160e11b81526001600160a01b039091169181019190915260248101829052604481018690526064016101ed565b5050611495565b6002546001600160a01b031633141561144d57600061139482840184613b2f565b90506113a084826134a3565b6005546040516370a0823160e01b81523060048201526000916001600160a01b0316906370a0823190602401602060405180830381865afa1580156113e9573d6000803e3d6000fd5b505050506040513d601f19601f8201168201806040525081019061140d9190613c9e565b90508481101561136c576005546040516319ad25f160e11b81526001600160a01b03909116600482015260248101829052604481018690526064016101ed565b60405162461bcd60e51b815260206004820152601b60248201527f21666c206e6f742066726f6d20656974686572206d61726b657473000000000060448201526064016101ed565b60405163095ea7b360e01b8152336004820152602481018490526001600160a01b0385169063095ea7b3906044016020604051808303816000875af11580156114e2573d6000803e3d6000fd5b505050506040513d601f19601f820116820180604052508101906115069190613cd1565b5050505050565b600080600360009054906101000a90046001600160a01b03166001600160a01b0316637dc0d1d06040518163ffffffff1660e01b8152600401602060405180830381865afa158015611563573d6000803e3d6000fd5b505050506040513d601f19601f820116820180604052508101906115879190613b12565b60025460405163fc57d4df60e01b81526001600160a01b0391821660048201529192506000919083169063fc57d4df90602401602060405180830381865afa1580156115d7573d6000803e3d6000fd5b505050506040513d601f19601f820116820180604052508101906115fb9190613c9e565b60015460405163fc57d4df60e01b81526001600160a01b0391821660048201529192506000919084169063fc57d4df90602401602060405180830381865afa15801561164b573d6000803e3d6000fd5b505050506040513d601f19601f8201168201806040525081019061166f9190613c9e565b600154604051633af9e66960e01b81523060048201529192506000916001600160a01b0390911690633af9e66990602401602060405180830381865afa1580156116bd573d6000803e3d6000fd5b505050506040513d601f19601f820116820180604052508101906116e19190613c9e565b90506000670de0b6b3a76400006116f88385613e6d565b6117029190613ea2565b6002546040516305eff7ef60e21b81523060048201529192506000916001600160a01b03909116906317bfdfbc90602401602060405180830381865afa158015611750573d6000803e3d6000fd5b505050506040513d601f19601f820116820180604052508101906117749190613c9e565b90506000670de0b6b3a764000061178b8388613e6d565b6117959190613ea2565b905060006117a38285613f60565b9050856117b882670de0b6b3a7640000613e6d565b6117c29190613ea2565b9850505050505050505090565b6000336001600160a01b037f0000000000000000000000000000000000000000000000000000000000000000161461181a576040516370d645e360e01b815260040160405180910390fd5b611822610c04565b61183f5760405163716041e560e01b815260040160405180910390fd5b6005546040516370a0823160e01b81523060048201526000916001600160a01b0316906370a0823190602401602060405180830381865afa158015611888573d6000803e3d6000fd5b505050506040513d601f19601f820116820180604052508101906118ac9190613c9e565b600554909150611285906001600160a01b03168483612af8565b600154604051633af9e66960e01b815230600482015260009182916001600160a01b0390911690633af9e66990602401602060405180830381865afa158015611913573d6000803e3d6000fd5b505050506040513d601f19601f820116820180604052508101906119379190613c9e565b90508061194657600091505090565b600354604080516307dc0d1d60e41b815290516000926001600160a01b031691637dc0d1d09160048083019260209291908290030181865afa158015611990573d6000803e3d6000fd5b505050506040513d601f19601f820116820180604052508101906119b49190613b12565b60015460405163fc57d4df60e01b81526001600160a01b0391821660048201529192506000919083169063fc57d4df90602401602060405180830381865afa158015611a04573d6000803e3d6000fd5b505050506040513d601f19601f82011682018060405250810190611a289190613c9e565b90506000670de0b6b3a7640000611a3f8584613e6d565b611a499190613ea2565b6002546040516305eff7ef60e21b815230600482015291925060009182916001600160a01b0316906317bfdfbc90602401602060405180830381865afa158015611a97573d6000803e3d6000fd5b505050506040513d601f19601f82011682018060405250810190611abb9190613c9e565b90508015611b565760025460405163fc57d4df60e01b81526001600160a01b03918216600482015260009187169063fc57d4df90602401602060405180830381865afa158015611b0f573d6000803e3d6000fd5b505050506040513d601f19601f82011682018060405250810190611b339190613c9e565b9050670de0b6b3a7640000611b488383613e6d565b611b529190613ea2565b9250505b611b608284613f60565b611b7284670de0b6b3a7640000613e6d565b611b7c9190613ea2565b965050505050505090565b6000611b9233610567565b905090565b336001600160a01b037f00000000000000000000000000000000000000000000000000000000000000001614801590611bdb57506000546001600160a01b03163314155b15611bf9576040516370d645e360e01b815260040160405180910390fd5b60035460408051633605b51b60e01b815290516000926001600160a01b031691633605b51b91600480830192869291908290030181865afa158015611c42573d6000803e3d6000fd5b505050506040513d6000823e601f3d908101601f19168201604052611c6a9190810190613eb6565b905060005b8151811015611f46576000828281518110611c8c57611c8c613d09565b6020908102919091010151600154604051632e6f912b60e21b81529192506001600160a01b038084169263b9be44ac92611ccc9216903090600401613cb7565b6020604051808303816000875af1158015611ceb573d6000803e3d6000fd5b505050506040513d601f19601f82011682018060405250810190611d0f9190613c9e565b50600254604051632e6f912b60e21b81526001600160a01b038381169263b9be44ac92611d4492909116903090600401613cb7565b6020604051808303816000875af1158015611d63573d6000803e3d6000fd5b505050506040513d601f19601f82011682018060405250810190611d879190613c9e565b50604051633bd73ee360e21b81523060048201526001600160a01b0382169063ef5cfb8c90602401600060405180830381600087803b158015611dc957600080fd5b505af1158015611ddd573d6000803e3d6000fd5b505050506000816001600160a01b031663f7c618c16040518163ffffffff1660e01b8152600401602060405180830381865afa158015611e21573d6000803e3d6000fd5b505050506040513d601f19601f82011682018060405250810190611e459190613b12565b6040516370a0823160e01b81523060048201529091506000906001600160a01b038316906370a0823190602401602060405180830381865afa158015611e8f573d6000803e3d6000fd5b505050506040513d601f19601f82011682018060405250810190611eb39190613c9e565b90508015611f305760405163a9059cbb60e01b81526001600160a01b0387811660048301526024820183905283169063a9059cbb906044016020604051808303816000875af1158015611f0a573d6000803e3d6000fd5b505050506040513d601f19601f82011682018060405250810190611f2e9190613cd1565b505b5050508080611f3e90613f45565b915050611c6f565b505050565b600154604051633af9e66960e01b8152306004820152600091829182916001600160a01b031690633af9e66990602401602060405180830381865afa158015611f98573d6000803e3d6000fd5b505050506040513d601f19601f82011682018060405250810190611fbc9190613c9e565b6002546040516305eff7ef60e21b81523060048201529192506000916001600160a01b03909116906317bfdfbc90602401602060405180830381865afa15801561200a573d6000803e3d6000fd5b505050506040513d601f19601f8201168201806040525081019061202e9190613c9e565b90506000881561212d5760008054906101000a90046001600160a01b03166001600160a01b03166316bb997f6040518163ffffffff1660e01b8152600401602060405180830381865afa158015612089573d6000803e3d6000fd5b505050506040513d601f19601f820116820180604052508101906120ad9190613b12565b60055460048054604051632f53ef2b60e01b81526001600160a01b0394851694632f53ef2b946120e594908216939091169101613cb7565b602060405180830381865afa158015612102573d6000803e3d6000fd5b505050506040513d601f19601f820116820180604052508101906121269190613c9e565b905061221d565b60008054906101000a90046001600160a01b03166001600160a01b03166316bb997f6040518163ffffffff1660e01b8152600401602060405180830381865afa15801561217e573d6000803e3d6000fd5b505050506040513d601f19601f820116820180604052508101906121a29190613b12565b60048054600554604051632f53ef2b60e01b81526001600160a01b0394851694632f53ef2b946121d9948216939091169101613cb7565b602060405180830381865afa1580156121f6573d6000803e3d6000fd5b505050506040513d601f19601f8201168201806040525081019061221a9190613c9e565b90505b600061271061222c8382613f77565b61223e90670de0b6b3a7640000613e6d565b6122489190613ea2565b9050600080670de0b6b3a7640000612260878c613e6d565b61226a9190613ea2565b90506000670de0b6b3a7640000612281878c613e6d565b61228b9190613ea2565b90508b60006122a2670de0b6b3a764000083613f8f565b90508560006122b983670de0b6b3a7640000613fce565b6122c38584613fce565b6122cd9190613f8f565b6122d78587613fce565b6122e18886613fce565b6122eb9190613f8f565b6122fd90670de0b6b3a7640000613fce565b6123079190614053565b9050600081126123175780612320565b61232081614081565b96505050505050508881670de0b6b3a764000061233d9190613e6d565b6123479190613ea2565b96508761235c82670de0b6b3a7640000613e6d565b6123669190613ea2565b95508a1561239257670de0b6b3a76400006123818388613e6d565b61238b9190613ea2565b95506123b2565b670de0b6b3a76400006123a58389613e6d565b6123af9190613ea2565b96505b505050505094509492505050565b6000806000600360009054906101000a90046001600160a01b03166001600160a01b0316637dc0d1d06040518163ffffffff1660e01b8152600401602060405180830381865afa158015612418573d6000803e3d6000fd5b505050506040513d601f19601f8201168201806040525081019061243c9190613b12565b60025460405163fc57d4df60e01b81526001600160a01b0391821660048201529192506000919083169063fc57d4df90602401602060405180830381865afa15801561248c573d6000803e3d6000fd5b505050506040513d601f19601f820116820180604052508101906124b09190613c9e565b60015460405163fc57d4df60e01b81526001600160a01b0391821660048201529192506000919084169063fc57d4df90602401602060405180830381865afa158015612500573d6000803e3d6000fd5b505050506040513d601f19601f820116820180604052508101906125249190613c9e565b9050670de0b6b3a764000086116126dc576002546040516305eff7ef60e21b81523060048201526001600160a01b03909116906317bfdfbc90602401602060405180830381865afa15801561257d573d6000803e3d6000fd5b505050506040513d601f19601f820116820180604052508101906125a19190613c9e565b935060006125af8386613e6d565b905060008060009054906101000a90046001600160a01b03166001600160a01b03166316bb997f6040518163ffffffff1660e01b8152600401602060405180830381865afa158015612605573d6000803e3d6000fd5b505050506040513d601f19601f820116820180604052508101906126299190613b12565b60048054600554604051632f53ef2b60e01b81526001600160a01b0394851694632f53ef2b94612660948216939091169101613cb7565b602060405180830381865afa15801561267d573d6000803e3d6000fd5b505050506040513d601f19601f820116820180604052508101906126a19190613c9e565b905060006127106126b28382613f77565b6126bc9085613e6d565b6126c69190613ea2565b90506126d28482613ea2565b97505050506126ef565b6126e96000878385611f4b565b90955093505b8315612774576002546040805160208082018990528251808303909101815281830192839052633c3b4b8960e01b9092526001600160a01b0390921691633c3b4b8991612741918891906044016140f6565b600060405180830381600087803b15801561275b57600080fd5b505af115801561276f573d6000803e3d6000fd5b505050505b6005546040516370a0823160e01b81523060048201526000916001600160a01b0316906370a0823190602401602060405180830381865afa1580156127bd573d6000803e3d6000fd5b505050506040513d601f19601f820116820180604052508101906127e19190613c9e565b9050801561295f576002546040516305eff7ef60e21b81523060048201526000916001600160a01b0316906317bfdfbc90602401602060405180830381865afa158015612832573d6000803e3d6000fd5b505050506040513d601f19601f820116820180604052508101906128569190613c9e565b9050801561295d57600082821161286d578161286f565b825b60055460025460405163095ea7b360e01b81526001600160a01b03918216600482015260248101849052929350169063095ea7b3906044016020604051808303816000875af11580156128c6573d6000803e3d6000fd5b505050506040513d601f19601f820116820180604052508101906128ea9190613cd1565b5060025460405163073a938160e11b8152600481018390526001600160a01b0390911690630e752702906024016020604051808303816000875af1158015612936573d6000803e3d6000fd5b505050506040513d601f19601f8201168201806040525081019061295a9190613c9e565b50505b505b50505050505050565b6040516370a0823160e01b815230600482015260009081906001600160a01b038516906370a0823190602401602060405180830381865afa1580156129b1573d6000803e3d6000fd5b505050506040513d601f19601f820116820180604052508101906129d59190613c9e565b6000805460405163ed287f3f60e01b8152929350909182916001600160a01b03169063ed287f3f90612a0d9089908990600401613cb7565b600060405180830381865afa158015612a2a573d6000803e3d6000fd5b505050506040513d6000823e601f3d908101601f19168201604052612a5291908101906141f3565b91509150815160001415612a7957604051634fd1fa8360e11b815260040160405180910390fd5b60005b8251811015612aee576000838281518110612a9957612a99613d09565b602002602001015190506000838381518110612ab757612ab7613d09565b60200260200101519050612acd898784846136e9565b9099508998509650869550829150612ae6905081613f45565b915050612a7c565b5050505092915050565b6040516001600160a01b038316602482015260448101829052611f4690849063a9059cbb60e01b906064015b60408051601f198184030181529190526020810180516001600160e01b03166001600160e01b03199093169290921790915261376a565b600080600360009054906101000a90046001600160a01b03166001600160a01b0316637dc0d1d06040518163ffffffff1660e01b8152600401602060405180830381865afa158015612bb1573d6000803e3d6000fd5b505050506040513d601f19601f82011682018060405250810190612bd59190613b12565b60025460405163fc57d4df60e01b81526001600160a01b0391821660048201529192506000919083169063fc57d4df90602401602060405180830381865afa158015612c25573d6000803e3d6000fd5b505050506040513d601f19601f82011682018060405250810190612c499190613c9e565b60015460405163fc57d4df60e01b81526001600160a01b0391821660048201529192506000919084169063fc57d4df90602401602060405180830381865afa158015612c99573d6000803e3d6000fd5b505050506040513d601f19601f82011682018060405250810190612cbd9190613c9e565b90506000670de0b6b3a7640000612cd48488613e6d565b612cde9190613ea2565b90506000670de0b6b3a7640000612cf5858b613e6d565b612cff9190613ea2565b90506000670de0b6b3a7640000612d16858b613e6d565b612d209190613ea2565b905060008060009054906101000a90046001600160a01b03166001600160a01b03166316bb997f6040518163ffffffff1660e01b8152600401602060405180830381865afa158015612d76573d6000803e3d6000fd5b505050506040513d601f19601f82011682018060405250810190612d9a9190613b12565b60055460048054604051632f53ef2b60e01b81526001600160a01b0394851694632f53ef2b94612dd294908216939091169101613cb7565b602060405180830381865afa158015612def573d6000803e3d6000fd5b505050506040513d601f19601f82011682018060405250810190612e139190613c9e565b9050612e20600a82613f77565b90506000612e3082612710613f77565b612e3c85612710613e6d565b612e469190613ea2565b90508285828682612e5783866142b8565b612e619190613f8f565b612e6b9190613f8f565b612e7582856142b8565b612e8790670de0b6b3a7640000613fce565b612e919190614053565b9f9e505050505050505050505050505050565b6040516001600160a01b0380851660248301528316604482015260648101829052610bfd9085906323b872dd60e01b90608401612b24565b6004546000906001600160a01b03838116911614612f0d57600454612f0b9083906001600160a01b0316612968565b505b600480546040516370a0823160e01b815230928101929092526001600160a01b0316906370a0823190602401602060405180830381865afa158015612f56573d6000803e3d6000fd5b505050506040513d601f19601f82011682018060405250810190612f7a9190613c9e565b6004805460015460405163095ea7b360e01b81526001600160a01b039182169381019390935260248301849052929350919091169063095ea7b3906044016020604051808303816000875af1158015612fd7573d6000803e3d6000fd5b505050506040513d601f19601f82011682018060405250810190612ffb9190613cd1565b5060015460405163140e25ad60e31b8152600481018390526000916001600160a01b03169063a0712d68906024016020604051808303816000875af1158015613048573d6000803e3d6000fd5b505050506040513d601f19601f8201168201806040525081019061306c9190613c9e565b9050801561090257604051631a25a97b60e31b8152600481018290526024016101ed565b600354604080516307dc0d1d60e41b815290516000926001600160a01b031691637dc0d1d09160048083019260209291908290030181865afa1580156130da573d6000803e3d6000fd5b505050506040513d601f19601f820116820180604052508101906130fe9190613b12565b60025460405163fc57d4df60e01b81526001600160a01b0391821660048201529192506000919083169063fc57d4df90602401602060405180830381865afa15801561314e573d6000803e3d6000fd5b505050506040513d601f19601f820116820180604052508101906131729190613c9e565b60015460405163fc57d4df60e01b81526001600160a01b0391821660048201529192506000919084169063fc57d4df90602401602060405180830381865afa1580156131c2573d6000803e3d6000fd5b505050506040513d601f19601f820116820180604052508101906131e69190613c9e565b90506000806131f86001878587611f4b565b6001546040805160208082018590528251808303909101815281830192839052633c3b4b8960e01b9092529395509193506001600160a01b031691633c3b4b8991613248918691906044016140f6565b600060405180830381600087803b15801561326257600080fd5b505af1158015613276573d6000803e3d6000fd5b5050600480546040516370a0823160e01b81523092810192909252600093506001600160a01b031691506370a0823190602401602060405180830381865afa1580156132c6573d6000803e3d6000fd5b505050506040513d601f19601f820116820180604052508101906132ea9190613c9e565b9050801561295f576004805460015460405163095ea7b360e01b81526001600160a01b039182169381019390935260248301849052169063095ea7b3906044016020604051808303816000875af1158015613349573d6000803e3d6000fd5b505050506040513d601f19601f8201168201806040525081019061336d9190613cd1565b5060015460405163140e25ad60e31b8152600481018390526001600160a01b039091169063a0712d68906024016020604051808303816000875af11580156133b9573d6000803e3d6000fd5b505050506040513d601f19601f8201168201806040525081019061295d9190613c9e565b6004546133f2906001600160a01b0316612edc565b5060025460405163317afabb60e21b8152600481018390526000916001600160a01b03169063c5ebeaec906024016020604051808303816000875af115801561343f573d6000803e3d6000fd5b505050506040513d601f19601f820116820180604052508101906134639190613c9e565b9050801561348757604051636f86fa6b60e11b8152600481018290526024016101ed565b600554600454611f46916001600160a01b039081169116612968565b6002546040516305eff7ef60e21b81523060048201526000916001600160a01b0316906317bfdfbc90602401602060405180830381865afa1580156134ec573d6000803e3d6000fd5b505050506040513d601f19601f820116820180604052508101906135109190613c9e565b905060008184106135215781613523565b835b60055460025460405163095ea7b360e01b81526001600160a01b03918216600482015260248101849052929350169063095ea7b3906044016020604051808303816000875af115801561357a573d6000803e3d6000fd5b505050506040513d601f19601f8201168201806040525081019061359e9190613cd1565b5060025460405163073a938160e11b8152600481018390526000916001600160a01b031690630e752702906024016020604051808303816000875af11580156135eb573d6000803e3d6000fd5b505050506040513d601f19601f8201168201806040525081019061360f9190613c9e565b905080156136325760405162f0f70d60e41b8152600481018290526024016101ed565b60015460405163852a12e360e01b8152600481018690526001600160a01b039091169063852a12e3906024016020604051808303816000875af115801561367d573d6000803e3d6000fd5b505050506040513d601f19601f820116820180604052508101906136a19190613c9e565b905080156136c55760405163213e72eb60e11b8152600481018290526024016101ed565b6004546005546136e1916001600160a01b039081169116612968565b505050505050565b6000806000613746856310badf4e60e01b89898860405160240161370f939291906142f9565b60408051601f198184030181529190526020810180516001600160e01b03166001600160e01b03199093169290921790915261383c565b90508080602001905181019061375c9190614320565b925092505094509492505050565b60006137bf826040518060400160405280602081526020017f5361666545524332303a206c6f772d6c6576656c2063616c6c206661696c6564815250856001600160a01b03166139309092919063ffffffff16565b805190915015611f4657808060200190518101906137dd9190613cd1565b611f465760405162461bcd60e51b815260206004820152602a60248201527f5361666545524332303a204552433230206f7065726174696f6e20646964206e6044820152691bdd081cdd58d8d9595960b21b60648201526084016101ed565b60606001600160a01b0383163b6138a45760405162461bcd60e51b815260206004820152602660248201527f416464726573733a2064656c65676174652063616c6c20746f206e6f6e2d636f6044820152651b9d1c9858dd60d21b60648201526084016101ed565b600080846001600160a01b0316846040516138bf919061434e565b600060405180830381855af49150503d80600081146138fa576040519150601f19603f3d011682016040523d82523d6000602084013e6138ff565b606091505b5091509150613927828260405180606001604052806027815260200161437e60279139613949565b95945050505050565b606061393f8484600085613982565b90505b9392505050565b60608315613958575081613942565b8251156139685782518084602001fd5b8160405162461bcd60e51b81526004016101ed919061436a565b6060824710156139e35760405162461bcd60e51b815260206004820152602660248201527f416464726573733a20696e73756666696369656e742062616c616e636520666f6044820152651c8818d85b1b60d21b60648201526084016101ed565b600080866001600160a01b031685876040516139ff919061434e565b60006040518083038185875af1925050503d8060008114613a3c576040519150601f19603f3d011682016040523d82523d6000602084013e613a41565b606091505b5091509150613a5287838387613a5f565b925050505b949350505050565b60608315613acb578251613ac4576001600160a01b0385163b613ac45760405162461bcd60e51b815260206004820152601d60248201527f416464726573733a2063616c6c20746f206e6f6e2d636f6e747261637400000060448201526064016101ed565b5081613a57565b613a578383815115613ae05781518083602001fd5b8060405162461bcd60e51b81526004016101ed919061436a565b6001600160a01b0381168114613b0f57600080fd5b50565b600060208284031215613b2457600080fd5b815161394281613afa565b600060208284031215613b4157600080fd5b5035919050565b600060208284031215613b5a57600080fd5b813561394281613afa565b60008060408385031215613b7857600080fd5b8235613b8381613afa565b946020939093013593505050565b604080825283519082018190526000906020906060840190828701845b82811015613bd35781516001600160a01b031684529284019290840190600101613bae565b5050508381038285015284518082528583019183019060005b81811015613c0857835183529284019291840191600101613bec565b5090979650505050505050565b60008060008060608587031215613c2b57600080fd5b8435613c3681613afa565b935060208501359250604085013567ffffffffffffffff80821115613c5a57600080fd5b818701915087601f830112613c6e57600080fd5b813581811115613c7d57600080fd5b886020828501011115613c8f57600080fd5b95989497505060200194505050565b600060208284031215613cb057600080fd5b5051919050565b6001600160a01b0392831681529116602082015260400190565b600060208284031215613ce357600080fd5b8151801515811461394257600080fd5b634e487b7160e01b600052604160045260246000fd5b634e487b7160e01b600052603260045260246000fd5b6020808252825182820181905260009190848201906040850190845b81811015613d605783516001600160a01b031683529284019291840191600101613d3b565b50909695505050505050565b604051601f8201601f1916810167ffffffffffffffff81118282101715613d9557613d95613cf3565b604052919050565b600067ffffffffffffffff821115613db757613db7613cf3565b5060051b60200190565b60006020808385031215613dd457600080fd5b825167ffffffffffffffff811115613deb57600080fd5b8301601f81018513613dfc57600080fd5b8051613e0f613e0a82613d9d565b613d6c565b81815260059190911b82018301908381019087831115613e2e57600080fd5b928401925b82841015613e4c57835182529284019290840190613e33565b979650505050505050565b634e487b7160e01b600052601160045260246000fd5b6000816000190483118215151615613e8757613e87613e57565b500290565b634e487b7160e01b600052601260045260246000fd5b600082613eb157613eb1613e8c565b500490565b60006020808385031215613ec957600080fd5b825167ffffffffffffffff811115613ee057600080fd5b8301601f81018513613ef157600080fd5b8051613eff613e0a82613d9d565b81815260059190911b82018301908381019087831115613f1e57600080fd5b928401925b82841015613e4c578351613f3681613afa565b82529284019290840190613f23565b6000600019821415613f5957613f59613e57565b5060010190565b600082821015613f7257613f72613e57565b500390565b60008219821115613f8a57613f8a613e57565b500190565b60008083128015600160ff1b850184121615613fad57613fad613e57565b6001600160ff1b0384018313811615613fc857613fc8613e57565b50500390565b60006001600160ff1b0381841382841380821686840486111615613ff457613ff4613e57565b600160ff1b600087128281168783058912161561401357614013613e57565b6000871292508782058712848416161561402f5761402f613e57565b8785058712818416161561404557614045613e57565b505050929093029392505050565b60008261406257614062613e8c565b600160ff1b82146000198414161561407c5761407c613e57565b500590565b6000600160ff1b82141561409757614097613e57565b5060000390565b60005b838110156140b95781810151838201526020016140a1565b83811115610bfd5750506000910152565b600081518084526140e281602086016020860161409e565b601f01601f19169290920160200192915050565b82815260406020820152600061393f60408301846140ca565b6000601f838184011261412157600080fd5b82516020614131613e0a83613d9d565b82815260059290921b8501810191818101908784111561415057600080fd5b8287015b848110156141e757805167ffffffffffffffff808211156141755760008081fd5b818a0191508a603f83011261418a5760008081fd5b858201516040828211156141a0576141a0613cf3565b6141b1828b01601f19168901613d6c565b92508183528c818386010111156141c85760008081fd5b6141d78289850183870161409e565b5050845250918301918301614154565b50979650505050505050565b6000806040838503121561420657600080fd5b825167ffffffffffffffff8082111561421e57600080fd5b818501915085601f83011261423257600080fd5b81516020614242613e0a83613d9d565b82815260059290921b8401810191818101908984111561426157600080fd5b948201945b8386101561428857855161427981613afa565b82529482019490820190614266565b918801519196509093505050808211156142a157600080fd5b506142ae8582860161410f565b9150509250929050565b600080821280156001600160ff1b03849003851316156142da576142da613e57565b600160ff1b83900384128116156142f3576142f3613e57565b50500190565b60018060a01b038416815282602082015260606040820152600061392760608301846140ca565b6000806040838503121561433357600080fd5b825161433e81613afa565b6020939093015192949293505050565b6000825161436081846020870161409e565b9190910192915050565b60208152600061394260208301846140ca56fe416464726573733a206c6f772d6c6576656c2064656c65676174652063616c6c206661696c6564a164736f6c634300080a000a","linkReferences":{}},"methodIdentifiers":{"adjustLeverageRatio(uint256)":"90284933","claimRewards()":"372500ab","claimRewards(address)":"ef5cfb8c","closePosition()":"c393d0e3","closePosition(address)":"2f86e2dd","collateralAsset()":"aabaecd6","collateralMarket()":"a415deda","factory()":"c45a0155","fundPosition(address,uint256)":"3a8a2307","getAccruedRewards()":"555b334a","getCurrentLeverageRatio()":"c31443bb","getEquityAmount()":"a833cb7f","getMaxLeverageRatio()":"37460704","getMinLeverageRatio()":"459b9ef1","getSupplyAmountDelta(uint256)":"1d7d45b3","isPositionClosed()":"3e2f147f","pool()":"16f0115b","positionOwner()":"cb2af14b","receiveFlashLoan(address,uint256,bytes)":"958fa280","stableAsset()":"6813f999","stableMarket()":"a7e269a6","withdrawStableLeftovers(address)":"b21fd029"},"id":148}