{
  "address": "0xb50De36105F6053006306553AB54e77224818B9B",
  "abi": [
    {
      "inputs": [],
      "stateMutability": "nonpayable",
      "type": "constructor"
    },
    {
      "anonymous": false,
      "inputs": [
        {
          "indexed": true,
          "internalType": "address",
          "name": "previousOwner",
          "type": "address"
        },
        {
          "indexed": true,
          "internalType": "address",
          "name": "newOwner",
          "type": "address"
        }
      ],
      "name": "OwnershipTransferStarted",
      "type": "event"
    },
    {
      "anonymous": false,
      "inputs": [
        {
          "indexed": true,
          "internalType": "address",
          "name": "previousOwner",
          "type": "address"
        },
        {
          "indexed": true,
          "internalType": "address",
          "name": "newOwner",
          "type": "address"
        }
      ],
      "name": "OwnershipTransferred",
      "type": "event"
    },
    {
      "inputs": [],
      "name": "acceptOwnership",
      "outputs": [],
      "stateMutability": "nonpayable",
      "type": "function"
    },
    {
      "inputs": [],
      "name": "name",
      "outputs": [
        {
          "internalType": "string",
          "name": "",
          "type": "string"
        }
      ],
      "stateMutability": "pure",
      "type": "function"
    },
    {
      "inputs": [],
      "name": "owner",
      "outputs": [
        {
          "internalType": "address",
          "name": "",
          "type": "address"
        }
      ],
      "stateMutability": "view",
      "type": "function"
    },
    {
      "inputs": [],
      "name": "pendingOwner",
      "outputs": [
        {
          "internalType": "address",
          "name": "",
          "type": "address"
        }
      ],
      "stateMutability": "view",
      "type": "function"
    },
    {
      "inputs": [
        {
          "internalType": "contract IERC20Upgradeable",
          "name": "inputToken",
          "type": "address"
        },
        {
          "internalType": "uint256",
          "name": "inputAmount",
          "type": "uint256"
        },
        {
          "internalType": "bytes",
          "name": "strategyData",
          "type": "bytes"
        }
      ],
      "name": "redeem",
      "outputs": [
        {
          "internalType": "contract IERC20Upgradeable",
          "name": "outputToken",
          "type": "address"
        },
        {
          "internalType": "uint256",
          "name": "outputAmount",
          "type": "uint256"
        }
      ],
      "stateMutability": "nonpayable",
      "type": "function"
    },
    {
      "inputs": [],
      "name": "renounceOwnership",
      "outputs": [],
      "stateMutability": "nonpayable",
      "type": "function"
    },
    {
      "inputs": [
        {
          "internalType": "address",
          "name": "inputToken",
          "type": "address"
        },
        {
          "internalType": "address",
          "name": "outputToken",
          "type": "address"
        },
        {
          "internalType": "int24",
          "name": "tickSpacing",
          "type": "int24"
        }
      ],
      "name": "setTickSpacing",
      "outputs": [],
      "stateMutability": "nonpayable",
      "type": "function"
    },
    {
      "inputs": [
        {
          "internalType": "address",
          "name": "token",
          "type": "address"
        },
        {
          "internalType": "address",
          "name": "unwrapped",
          "type": "address"
        }
      ],
      "name": "setWrappedToUnwrapped",
      "outputs": [],
      "stateMutability": "nonpayable",
      "type": "function"
    },
    {
      "inputs": [
        {
          "internalType": "address",
          "name": "",
          "type": "address"
        },
        {
          "internalType": "address",
          "name": "",
          "type": "address"
        }
      ],
      "name": "tickSpacings",
      "outputs": [
        {
          "internalType": "int24",
          "name": "",
          "type": "int24"
        }
      ],
      "stateMutability": "view",
      "type": "function"
    },
    {
      "inputs": [
        {
          "internalType": "address",
          "name": "newOwner",
          "type": "address"
        }
      ],
      "name": "transferOwnership",
      "outputs": [],
      "stateMutability": "nonpayable",
      "type": "function"
    },
    {
      "inputs": [
        {
          "internalType": "address",
          "name": "",
          "type": "address"
        }
      ],
      "name": "wrappedToUnwrapped",
      "outputs": [
        {
          "internalType": "address",
          "name": "",
          "type": "address"
        }
      ],
      "stateMutability": "view",
      "type": "function"
    }
  ],
  "transactionHash": "0xd38ffded9120a11a18d7f5caedc07df9bc40cc78fc37adbe2542f17b250c80ef",
  "args": [],
  "numDeployments": 1,
  "solcInputHash": "7213ec192c202214aede8bfa6f35fee9",
  "bytecode": "0x608060405234801561001057600080fd5b5061001a3361001f565b61008b565b600180546001600160a01b03191690556100388161003b565b50565b600080546001600160a01b038381166001600160a01b0319831681178455604051919092169283917f8be0079c531659141344cd1fd0a4f28419497f9722a3daafe3b4186f6b6457e09190a35050565b610bd08061009a6000396000f3fe608060405234801561001057600080fd5b50600436106100a95760003560e01c80638da5cb5b116100715780638da5cb5b1461014557806391587b8f1461016a578063cb6a471a1461017d578063e30c3978146101be578063e589d6d2146101cf578063f2fde38b146101f857600080fd5b806306fdde03146100ae57806310badf4e146100ee578063715018a61461012057806379ba50971461012a5780638a19065714610132575b600080fd5b604080518082018252601581527420b2b937b23937b6b2a1a62634b8bab4b230ba37b960591b602082015290516100e591906108ac565b60405180910390f35b6101016100fc366004610926565b61020b565b604080516001600160a01b0390931683526020830191909152016100e5565b610128610225565b005b610128610239565b6101286101403660046109f3565b6102b8565b6000546001600160a01b03165b6040516001600160a01b0390911681526020016100e5565b610128610178366004610a45565b61031b565b6101ab61018b366004610a45565b600360209081526000928352604080842090915290825290205460020b81565b60405160029190910b81526020016100e5565b6001546001600160a01b0316610152565b6101526101dd366004610a7e565b6002602052600090815260409020546001600160a01b031681565b610128610206366004610a7e565b610351565b6000806102198585856103c2565b91509150935093915050565b61022d6107ee565b6102376000610848565b565b60015433906001600160a01b031681146102ac5760405162461bcd60e51b815260206004820152602960248201527f4f776e61626c6532537465703a2063616c6c6572206973206e6f7420746865206044820152683732bb9037bbb732b960b91b60648201526084015b60405180910390fd5b6102b581610848565b50565b6102c06107ee565b6001600160a01b039283166000818152600360208181526040808420969097168352948552858220805462ffffff90951662ffffff199586168117909155908552858220928252919093529290912080549091169091179055565b6103236107ee565b6001600160a01b03918216600090815260026020526040902080546001600160a01b03191691909216179055565b6103596107ee565b600180546001600160a01b0383166001600160a01b0319909116811790915561038a6000546001600160a01b031690565b6001600160a01b03167f38d16b8cac22d99fc7c124b9cd0de2d3fa1faef420bfe791d8c362d765e2270060405160405180910390a350565b600080600080848060200190518101906103dc9190610aa2565b6001600160a01b03808316600090815260026020526040902054929550909350169050801561040d57809450610411565b8294505b6001600160a01b038089166000908152600260205260409020541680156105225760405163095ea7b360e01b81526001600160a01b038a1660048201819052602482018a90529063095ea7b3906044016020604051808303816000875af1158015610480573d6000803e3d6000fd5b505050506040513d601f19601f820116820180604052508101906104a49190610ae4565b50604051635d043b2960e11b815260048101899052306024820181905260448201526001600160a01b038a169063ba087652906064016020604051808303816000875af11580156104f9573d6000803e3d6000fd5b505050506040513d601f19601f8201168201806040525081019061051d9190610b06565b508098505b60405163095ea7b360e01b81526001600160a01b038481166004830152602482018a90528a169063095ea7b3906044016020604051808303816000875af1158015610571573d6000803e3d6000fd5b505050506040513d601f19601f820116820180604052508101906105959190610ae4565b506001600160a01b03808a166000908152600360209081526040808320938a1683529290529081205460020b908190036105cd575060015b60408051610100810182526001600160a01b038c811682528981166020830152600284900b8284015230606083015242608083015260a082018c9052600060c0830181905260e083015291516350131c1f60e11b81529186169163a026383e9161063991600401610b1f565b6020604051808303816000875af1158015610658573d6000803e3d6000fd5b505050506040513d601f19601f8201168201806040525081019061067c9190610b06565b95506001600160a01b038316156107e15760405163095ea7b360e01b81526001600160a01b0386811660048301526024820188905284169063095ea7b3906044016020604051808303816000875af11580156106dc573d6000803e3d6000fd5b505050506040513d601f19601f820116820180604052508101906107009190610ae4565b50604051636e553f6560e01b8152600481018790523060248201526001600160a01b03861690636e553f65906044016020604051808303816000875af115801561074e573d6000803e3d6000fd5b505050506040513d601f19601f820116820180604052508101906107729190610b06565b506040516370a0823160e01b81523060048201526001600160a01b038416906370a0823190602401602060405180830381865afa1580156107b7573d6000803e3d6000fd5b505050506040513d601f19601f820116820180604052508101906107db9190610b06565b95508496505b5050505050935093915050565b6000546001600160a01b031633146102375760405162461bcd60e51b815260206004820181905260248201527f4f776e61626c653a2063616c6c6572206973206e6f7420746865206f776e657260448201526064016102a3565b600180546001600160a01b03191690556102b581600080546001600160a01b038381166001600160a01b0319831681178455604051919092169283917f8be0079c531659141344cd1fd0a4f28419497f9722a3daafe3b4186f6b6457e09190a35050565b60006020808352835180602085015260005b818110156108da578581018301518582016040015282016108be565b506000604082860101526040601f19601f8301168501019250505092915050565b6001600160a01b03811681146102b557600080fd5b634e487b7160e01b600052604160045260246000fd5b60008060006060848603121561093b57600080fd5b8335610946816108fb565b925060208401359150604084013567ffffffffffffffff8082111561096a57600080fd5b818601915086601f83011261097e57600080fd5b81358181111561099057610990610910565b604051601f8201601f19908116603f011681019083821181831017156109b8576109b8610910565b816040528281528960208487010111156109d157600080fd5b8260208601602083013760006020848301015280955050505050509250925092565b600080600060608486031215610a0857600080fd5b8335610a13816108fb565b92506020840135610a23816108fb565b91506040840135600281900b8114610a3a57600080fd5b809150509250925092565b60008060408385031215610a5857600080fd5b8235610a63816108fb565b91506020830135610a73816108fb565b809150509250929050565b600060208284031215610a9057600080fd5b8135610a9b816108fb565b9392505050565b600080600060608486031215610ab757600080fd5b8351610ac2816108fb565b6020850151909350610ad3816108fb565b6040850151909250610a3a816108fb565b600060208284031215610af657600080fd5b81518015158114610a9b57600080fd5b600060208284031215610b1857600080fd5b5051919050565b60006101008201905060018060a01b03808451168352806020850151166020840152604084015160020b6040840152806060850151166060840152506080830151608083015260a083015160a083015260c083015160c083015260e0830151610b9360e08401826001600160a01b03169052565b509291505056fea26469706673582212205401650b7d8e7804768776a53c6467ec0ec3b367aa9c9fd3dd80ab53892bd7bf64736f6c63430008160033",
  "devdoc": {
    "kind": "dev",
    "methods": {
      "acceptOwnership()": {
        "details": "The new owner accepts the ownership transfer."
      },
      "owner()": {
        "details": "Returns the address of the current owner."
      },
      "pendingOwner()": {
        "details": "Returns the address of the pending owner."
      },
      "redeem(address,uint256,bytes)": {
        "details": "Redeems `inputToken` for `outputToken` where `inputAmount` < `outputAmount`",
        "params": {
          "inputAmount": "input amount",
          "inputToken": "Address of the token",
          "strategyData": "context specific data like input token, pool address and tx expiratio period"
        }
      },
      "renounceOwnership()": {
        "details": "Leaves the contract without owner. It will not be possible to call `onlyOwner` functions anymore. Can only be called by the current owner. NOTE: Renouncing ownership will leave the contract without an owner, thereby removing any functionality that is only available to the owner."
      },
      "transferOwnership(address)": {
        "details": "Starts the ownership transfer of the contract to a new account. Replaces the pending transfer if there is one. Can only be called by the current owner."
      }
    },
    "version": 1
  },
  "userdoc": {
    "kind": "user",
    "methods": {},
    "version": 1
  },
  "storageLayout": {
    "storage": [
      {
        "astId": 7,
        "contract": "contracts/liquidators/AerodromeCLLiquidator.sol:AerodromeCLLiquidator",
        "label": "_owner",
        "offset": 0,
        "slot": "0",
        "type": "t_address"
      },
      {
        "astId": 120,
        "contract": "contracts/liquidators/AerodromeCLLiquidator.sol:AerodromeCLLiquidator",
        "label": "_pendingOwner",
        "offset": 0,
        "slot": "1",
        "type": "t_address"
      },
      {
        "astId": 46300,
        "contract": "contracts/liquidators/AerodromeCLLiquidator.sol:AerodromeCLLiquidator",
        "label": "wrappedToUnwrapped",
        "offset": 0,
        "slot": "2",
        "type": "t_mapping(t_address,t_address)"
      },
      {
        "astId": 46306,
        "contract": "contracts/liquidators/AerodromeCLLiquidator.sol:AerodromeCLLiquidator",
        "label": "tickSpacings",
        "offset": 0,
        "slot": "3",
        "type": "t_mapping(t_address,t_mapping(t_address,t_int24))"
      }
    ],
    "types": {
      "t_address": {
        "encoding": "inplace",
        "label": "address",
        "numberOfBytes": "20"
      },
      "t_int24": {
        "encoding": "inplace",
        "label": "int24",
        "numberOfBytes": "3"
      },
      "t_mapping(t_address,t_address)": {
        "encoding": "mapping",
        "key": "t_address",
        "label": "mapping(address => address)",
        "numberOfBytes": "32",
        "value": "t_address"
      },
      "t_mapping(t_address,t_int24)": {
        "encoding": "mapping",
        "key": "t_address",
        "label": "mapping(address => int24)",
        "numberOfBytes": "32",
        "value": "t_int24"
      },
      "t_mapping(t_address,t_mapping(t_address,t_int24))": {
        "encoding": "mapping",
        "key": "t_address",
        "label": "mapping(address => mapping(address => int24))",
        "numberOfBytes": "32",
        "value": "t_mapping(t_address,t_int24)"
      }
    }
  }
}