{
  "address": "0x986F1289B2E803B0bf7ac29b777bbAcBDb3dE872",
  "abi": [
    {
      "inputs": [
        {
          "internalType": "enum ComptrollerErrorReporter.Error",
          "name": "",
          "type": "uint8"
        }
      ],
      "name": "IonicMarketERC4626__CompoundError",
      "type": "error"
    },
    {
      "anonymous": false,
      "inputs": [
        {
          "indexed": true,
          "internalType": "address",
          "name": "owner",
          "type": "address"
        },
        {
          "indexed": true,
          "internalType": "address",
          "name": "spender",
          "type": "address"
        },
        {
          "indexed": false,
          "internalType": "uint256",
          "name": "value",
          "type": "uint256"
        }
      ],
      "name": "Approval",
      "type": "event"
    },
    {
      "anonymous": false,
      "inputs": [
        {
          "indexed": true,
          "internalType": "address",
          "name": "sender",
          "type": "address"
        },
        {
          "indexed": true,
          "internalType": "address",
          "name": "owner",
          "type": "address"
        },
        {
          "indexed": false,
          "internalType": "uint256",
          "name": "assets",
          "type": "uint256"
        },
        {
          "indexed": false,
          "internalType": "uint256",
          "name": "shares",
          "type": "uint256"
        }
      ],
      "name": "Deposit",
      "type": "event"
    },
    {
      "anonymous": false,
      "inputs": [
        {
          "indexed": false,
          "internalType": "uint8",
          "name": "version",
          "type": "uint8"
        }
      ],
      "name": "Initialized",
      "type": "event"
    },
    {
      "anonymous": false,
      "inputs": [
        {
          "indexed": false,
          "internalType": "address",
          "name": "oldOwner",
          "type": "address"
        },
        {
          "indexed": false,
          "internalType": "address",
          "name": "newOwner",
          "type": "address"
        }
      ],
      "name": "NewOwner",
      "type": "event"
    },
    {
      "anonymous": false,
      "inputs": [
        {
          "indexed": false,
          "internalType": "address",
          "name": "oldPendingOwner",
          "type": "address"
        },
        {
          "indexed": false,
          "internalType": "address",
          "name": "newPendingOwner",
          "type": "address"
        }
      ],
      "name": "NewPendingOwner",
      "type": "event"
    },
    {
      "anonymous": false,
      "inputs": [
        {
          "indexed": true,
          "internalType": "address",
          "name": "previousOwner",
          "type": "address"
        },
        {
          "indexed": true,
          "internalType": "address",
          "name": "newOwner",
          "type": "address"
        }
      ],
      "name": "OwnershipTransferred",
      "type": "event"
    },
    {
      "anonymous": false,
      "inputs": [
        {
          "indexed": false,
          "internalType": "address",
          "name": "account",
          "type": "address"
        }
      ],
      "name": "Paused",
      "type": "event"
    },
    {
      "anonymous": false,
      "inputs": [
        {
          "indexed": true,
          "internalType": "address",
          "name": "from",
          "type": "address"
        },
        {
          "indexed": true,
          "internalType": "address",
          "name": "to",
          "type": "address"
        },
        {
          "indexed": false,
          "internalType": "uint256",
          "name": "value",
          "type": "uint256"
        }
      ],
      "name": "Transfer",
      "type": "event"
    },
    {
      "anonymous": false,
      "inputs": [
        {
          "indexed": false,
          "internalType": "address",
          "name": "account",
          "type": "address"
        }
      ],
      "name": "Unpaused",
      "type": "event"
    },
    {
      "anonymous": false,
      "inputs": [
        {
          "indexed": false,
          "internalType": "uint256",
          "name": "oldPerformanceFee",
          "type": "uint256"
        },
        {
          "indexed": false,
          "internalType": "uint256",
          "name": "newPerformanceFee",
          "type": "uint256"
        },
        {
          "indexed": false,
          "internalType": "address",
          "name": "oldFeeRecipient",
          "type": "address"
        },
        {
          "indexed": false,
          "internalType": "address",
          "name": "newFeeRecipient",
          "type": "address"
        }
      ],
      "name": "UpdatedFeeSettings",
      "type": "event"
    },
    {
      "anonymous": false,
      "inputs": [
        {
          "indexed": false,
          "internalType": "address",
          "name": "oldRewardsRecipient",
          "type": "address"
        },
        {
          "indexed": false,
          "internalType": "address",
          "name": "newRewardsRecipient",
          "type": "address"
        }
      ],
      "name": "UpdatedRewardsRecipient",
      "type": "event"
    },
    {
      "anonymous": false,
      "inputs": [
        {
          "indexed": true,
          "internalType": "address",
          "name": "sender",
          "type": "address"
        },
        {
          "indexed": true,
          "internalType": "address",
          "name": "receiver",
          "type": "address"
        },
        {
          "indexed": true,
          "internalType": "address",
          "name": "owner",
          "type": "address"
        },
        {
          "indexed": false,
          "internalType": "uint256",
          "name": "assets",
          "type": "uint256"
        },
        {
          "indexed": false,
          "internalType": "uint256",
          "name": "shares",
          "type": "uint256"
        }
      ],
      "name": "Withdraw",
      "type": "event"
    },
    {
      "inputs": [],
      "name": "_acceptOwner",
      "outputs": [],
      "stateMutability": "nonpayable",
      "type": "function"
    },
    {
      "inputs": [
        {
          "internalType": "address",
          "name": "newPendingOwner",
          "type": "address"
        }
      ],
      "name": "_setPendingOwner",
      "outputs": [],
      "stateMutability": "nonpayable",
      "type": "function"
    },
    {
      "inputs": [
        {
          "internalType": "address",
          "name": "owner",
          "type": "address"
        },
        {
          "internalType": "address",
          "name": "spender",
          "type": "address"
        }
      ],
      "name": "allowance",
      "outputs": [
        {
          "internalType": "uint256",
          "name": "",
          "type": "uint256"
        }
      ],
      "stateMutability": "view",
      "type": "function"
    },
    {
      "inputs": [
        {
          "internalType": "address",
          "name": "spender",
          "type": "address"
        },
        {
          "internalType": "uint256",
          "name": "amount",
          "type": "uint256"
        }
      ],
      "name": "approve",
      "outputs": [
        {
          "internalType": "bool",
          "name": "",
          "type": "bool"
        }
      ],
      "stateMutability": "nonpayable",
      "type": "function"
    },
    {
      "inputs": [],
      "name": "asset",
      "outputs": [
        {
          "internalType": "address",
          "name": "",
          "type": "address"
        }
      ],
      "stateMutability": "view",
      "type": "function"
    },
    {
      "inputs": [
        {
          "internalType": "address",
          "name": "account",
          "type": "address"
        }
      ],
      "name": "balanceOf",
      "outputs": [
        {
          "internalType": "uint256",
          "name": "",
          "type": "uint256"
        }
      ],
      "stateMutability": "view",
      "type": "function"
    },
    {
      "inputs": [],
      "name": "cToken",
      "outputs": [
        {
          "internalType": "contract ICErc20",
          "name": "",
          "type": "address"
        }
      ],
      "stateMutability": "view",
      "type": "function"
    },
    {
      "inputs": [],
      "name": "claimRewards",
      "outputs": [],
      "stateMutability": "nonpayable",
      "type": "function"
    },
    {
      "inputs": [
        {
          "internalType": "uint256",
          "name": "shares",
          "type": "uint256"
        }
      ],
      "name": "convertToAssets",
      "outputs": [
        {
          "internalType": "uint256",
          "name": "assets",
          "type": "uint256"
        }
      ],
      "stateMutability": "view",
      "type": "function"
    },
    {
      "inputs": [
        {
          "internalType": "uint256",
          "name": "assets",
          "type": "uint256"
        }
      ],
      "name": "convertToShares",
      "outputs": [
        {
          "internalType": "uint256",
          "name": "shares",
          "type": "uint256"
        }
      ],
      "stateMutability": "view",
      "type": "function"
    },
    {
      "inputs": [],
      "name": "decimals",
      "outputs": [
        {
          "internalType": "uint8",
          "name": "",
          "type": "uint8"
        }
      ],
      "stateMutability": "view",
      "type": "function"
    },
    {
      "inputs": [
        {
          "internalType": "address",
          "name": "spender",
          "type": "address"
        },
        {
          "internalType": "uint256",
          "name": "subtractedValue",
          "type": "uint256"
        }
      ],
      "name": "decreaseAllowance",
      "outputs": [
        {
          "internalType": "bool",
          "name": "",
          "type": "bool"
        }
      ],
      "stateMutability": "nonpayable",
      "type": "function"
    },
    {
      "inputs": [
        {
          "internalType": "uint256",
          "name": "assets",
          "type": "uint256"
        },
        {
          "internalType": "address",
          "name": "receiver",
          "type": "address"
        }
      ],
      "name": "deposit",
      "outputs": [
        {
          "internalType": "uint256",
          "name": "shares",
          "type": "uint256"
        }
      ],
      "stateMutability": "nonpayable",
      "type": "function"
    },
    {
      "inputs": [],
      "name": "emergencyWithdrawAndPause",
      "outputs": [],
      "stateMutability": "nonpayable",
      "type": "function"
    },
    {
      "inputs": [],
      "name": "feeRecipient",
      "outputs": [
        {
          "internalType": "address",
          "name": "",
          "type": "address"
        }
      ],
      "stateMutability": "view",
      "type": "function"
    },
    {
      "inputs": [],
      "name": "flywheelLensRouter",
      "outputs": [
        {
          "internalType": "contract IonicFlywheelLensRouter_4626",
          "name": "",
          "type": "address"
        }
      ],
      "stateMutability": "view",
      "type": "function"
    },
    {
      "inputs": [
        {
          "internalType": "address",
          "name": "spender",
          "type": "address"
        },
        {
          "internalType": "uint256",
          "name": "addedValue",
          "type": "uint256"
        }
      ],
      "name": "increaseAllowance",
      "outputs": [
        {
          "internalType": "bool",
          "name": "",
          "type": "bool"
        }
      ],
      "stateMutability": "nonpayable",
      "type": "function"
    },
    {
      "inputs": [
        {
          "internalType": "contract ICErc20",
          "name": "cToken_",
          "type": "address"
        },
        {
          "internalType": "address",
          "name": "flywheelLensRouter_",
          "type": "address"
        },
        {
          "internalType": "address",
          "name": "rewardsRecipient_",
          "type": "address"
        }
      ],
      "name": "initialize",
      "outputs": [],
      "stateMutability": "nonpayable",
      "type": "function"
    },
    {
      "inputs": [
        {
          "internalType": "address",
          "name": "",
          "type": "address"
        }
      ],
      "name": "maxDeposit",
      "outputs": [
        {
          "internalType": "uint256",
          "name": "",
          "type": "uint256"
        }
      ],
      "stateMutability": "view",
      "type": "function"
    },
    {
      "inputs": [
        {
          "internalType": "address",
          "name": "",
          "type": "address"
        }
      ],
      "name": "maxMint",
      "outputs": [
        {
          "internalType": "uint256",
          "name": "",
          "type": "uint256"
        }
      ],
      "stateMutability": "view",
      "type": "function"
    },
    {
      "inputs": [
        {
          "internalType": "address",
          "name": "owner",
          "type": "address"
        }
      ],
      "name": "maxRedeem",
      "outputs": [
        {
          "internalType": "uint256",
          "name": "",
          "type": "uint256"
        }
      ],
      "stateMutability": "view",
      "type": "function"
    },
    {
      "inputs": [
        {
          "internalType": "address",
          "name": "owner",
          "type": "address"
        }
      ],
      "name": "maxWithdraw",
      "outputs": [
        {
          "internalType": "uint256",
          "name": "",
          "type": "uint256"
        }
      ],
      "stateMutability": "view",
      "type": "function"
    },
    {
      "inputs": [
        {
          "internalType": "uint256",
          "name": "shares",
          "type": "uint256"
        },
        {
          "internalType": "address",
          "name": "receiver",
          "type": "address"
        }
      ],
      "name": "mint",
      "outputs": [
        {
          "internalType": "uint256",
          "name": "assets",
          "type": "uint256"
        }
      ],
      "stateMutability": "nonpayable",
      "type": "function"
    },
    {
      "inputs": [],
      "name": "name",
      "outputs": [
        {
          "internalType": "string",
          "name": "",
          "type": "string"
        }
      ],
      "stateMutability": "view",
      "type": "function"
    },
    {
      "inputs": [],
      "name": "owner",
      "outputs": [
        {
          "internalType": "address",
          "name": "",
          "type": "address"
        }
      ],
      "stateMutability": "view",
      "type": "function"
    },
    {
      "inputs": [],
      "name": "paused",
      "outputs": [
        {
          "internalType": "bool",
          "name": "",
          "type": "bool"
        }
      ],
      "stateMutability": "view",
      "type": "function"
    },
    {
      "inputs": [],
      "name": "pendingOwner",
      "outputs": [
        {
          "internalType": "address",
          "name": "",
          "type": "address"
        }
      ],
      "stateMutability": "view",
      "type": "function"
    },
    {
      "inputs": [],
      "name": "performanceFee",
      "outputs": [
        {
          "internalType": "uint256",
          "name": "",
          "type": "uint256"
        }
      ],
      "stateMutability": "view",
      "type": "function"
    },
    {
      "inputs": [
        {
          "internalType": "uint256",
          "name": "assets",
          "type": "uint256"
        }
      ],
      "name": "previewDeposit",
      "outputs": [
        {
          "internalType": "uint256",
          "name": "",
          "type": "uint256"
        }
      ],
      "stateMutability": "view",
      "type": "function"
    },
    {
      "inputs": [
        {
          "internalType": "uint256",
          "name": "shares",
          "type": "uint256"
        }
      ],
      "name": "previewMint",
      "outputs": [
        {
          "internalType": "uint256",
          "name": "",
          "type": "uint256"
        }
      ],
      "stateMutability": "view",
      "type": "function"
    },
    {
      "inputs": [
        {
          "internalType": "uint256",
          "name": "shares",
          "type": "uint256"
        }
      ],
      "name": "previewRedeem",
      "outputs": [
        {
          "internalType": "uint256",
          "name": "",
          "type": "uint256"
        }
      ],
      "stateMutability": "view",
      "type": "function"
    },
    {
      "inputs": [
        {
          "internalType": "uint256",
          "name": "assets",
          "type": "uint256"
        }
      ],
      "name": "previewWithdraw",
      "outputs": [
        {
          "internalType": "uint256",
          "name": "",
          "type": "uint256"
        }
      ],
      "stateMutability": "view",
      "type": "function"
    },
    {
      "inputs": [
        {
          "internalType": "uint256",
          "name": "shares",
          "type": "uint256"
        },
        {
          "internalType": "address",
          "name": "receiver",
          "type": "address"
        },
        {
          "internalType": "address",
          "name": "owner",
          "type": "address"
        }
      ],
      "name": "redeem",
      "outputs": [
        {
          "internalType": "uint256",
          "name": "assets",
          "type": "uint256"
        }
      ],
      "stateMutability": "nonpayable",
      "type": "function"
    },
    {
      "inputs": [],
      "name": "renounceOwnership",
      "outputs": [],
      "stateMutability": "nonpayable",
      "type": "function"
    },
    {
      "inputs": [],
      "name": "rewardsRecipient",
      "outputs": [
        {
          "internalType": "address",
          "name": "",
          "type": "address"
        }
      ],
      "stateMutability": "view",
      "type": "function"
    },
    {
      "inputs": [
        {
          "internalType": "address",
          "name": "market",
          "type": "address"
        }
      ],
      "name": "shutdown",
      "outputs": [
        {
          "internalType": "uint256",
          "name": "",
          "type": "uint256"
        }
      ],
      "stateMutability": "nonpayable",
      "type": "function"
    },
    {
      "inputs": [],
      "name": "symbol",
      "outputs": [
        {
          "internalType": "string",
          "name": "",
          "type": "string"
        }
      ],
      "stateMutability": "view",
      "type": "function"
    },
    {
      "inputs": [],
      "name": "takePerformanceFee",
      "outputs": [],
      "stateMutability": "nonpayable",
      "type": "function"
    },
    {
      "inputs": [],
      "name": "totalAssets",
      "outputs": [
        {
          "internalType": "uint256",
          "name": "",
          "type": "uint256"
        }
      ],
      "stateMutability": "view",
      "type": "function"
    },
    {
      "inputs": [],
      "name": "totalSupply",
      "outputs": [
        {
          "internalType": "uint256",
          "name": "",
          "type": "uint256"
        }
      ],
      "stateMutability": "view",
      "type": "function"
    },
    {
      "inputs": [
        {
          "internalType": "address",
          "name": "to",
          "type": "address"
        },
        {
          "internalType": "uint256",
          "name": "amount",
          "type": "uint256"
        }
      ],
      "name": "transfer",
      "outputs": [
        {
          "internalType": "bool",
          "name": "",
          "type": "bool"
        }
      ],
      "stateMutability": "nonpayable",
      "type": "function"
    },
    {
      "inputs": [
        {
          "internalType": "address",
          "name": "from",
          "type": "address"
        },
        {
          "internalType": "address",
          "name": "to",
          "type": "address"
        },
        {
          "internalType": "uint256",
          "name": "amount",
          "type": "uint256"
        }
      ],
      "name": "transferFrom",
      "outputs": [
        {
          "internalType": "bool",
          "name": "",
          "type": "bool"
        }
      ],
      "stateMutability": "nonpayable",
      "type": "function"
    },
    {
      "inputs": [
        {
          "internalType": "address",
          "name": "newOwner",
          "type": "address"
        }
      ],
      "name": "transferOwnership",
      "outputs": [],
      "stateMutability": "nonpayable",
      "type": "function"
    },
    {
      "inputs": [],
      "name": "unpause",
      "outputs": [],
      "stateMutability": "nonpayable",
      "type": "function"
    },
    {
      "inputs": [
        {
          "internalType": "uint256",
          "name": "newPerformanceFee",
          "type": "uint256"
        },
        {
          "internalType": "address",
          "name": "newFeeRecipient",
          "type": "address"
        }
      ],
      "name": "updateFeeSettings",
      "outputs": [],
      "stateMutability": "nonpayable",
      "type": "function"
    },
    {
      "inputs": [
        {
          "internalType": "address",
          "name": "newRewardsRecipient",
          "type": "address"
        }
      ],
      "name": "updateRewardsRecipient",
      "outputs": [],
      "stateMutability": "nonpayable",
      "type": "function"
    },
    {
      "inputs": [],
      "name": "vaultShareHWM",
      "outputs": [
        {
          "internalType": "uint256",
          "name": "",
          "type": "uint256"
        }
      ],
      "stateMutability": "view",
      "type": "function"
    },
    {
      "inputs": [
        {
          "internalType": "uint256",
          "name": "assets",
          "type": "uint256"
        },
        {
          "internalType": "address",
          "name": "receiver",
          "type": "address"
        },
        {
          "internalType": "address",
          "name": "owner",
          "type": "address"
        }
      ],
      "name": "withdraw",
      "outputs": [
        {
          "internalType": "uint256",
          "name": "shares",
          "type": "uint256"
        }
      ],
      "stateMutability": "nonpayable",
      "type": "function"
    },
    {
      "inputs": [],
      "name": "withdrawAccruedFees",
      "outputs": [],
      "stateMutability": "nonpayable",
      "type": "function"
    }
  ],
  "transactionHash": "0xa59bc0e2c556a3072297b0499e95248ab0a32c23ab036042abde6b8542ffda2f",
  "args": [],
  "numDeployments": 1,
  "solcInputHash": "34a0d1556aea7d4f3124b66dedee8846",
  "bytecode": "0x608060405234801561001057600080fd5b5061373a806100206000396000f3fe608060405234801561001057600080fd5b50600436106102bb5760003560e01c8063715018a611610182578063c0c53b8b116100e9578063dd62ed3e116100a2578063f2eb2a4b1161007c578063f2eb2a4b146105d3578063f2fde38b146105e6578063fc4d33f9146105f9578063ff2a7d301461060157600080fd5b8063dd62ed3e146105ad578063e30c3978146105c0578063ef8b30f71461056157600080fd5b8063c0c53b8b1461053b578063c63d75b61461054e578063c6e6f59214610561578063cce2f3fb14610574578063ce96cb7714610587578063d905777e1461059a57600080fd5b8063a9059cbb1161013b578063a9059cbb146104d4578063ada82c7d146104e7578063b3d7f6b9146104ef578063b460af9414610502578063ba08765214610515578063bb83b0e91461052857600080fd5b8063715018a614610484578063877887821461048c5780638da5cb5b1461049557806394bf804d146104a657806395d89b41146104b9578063a457c2d7146104c157600080fd5b806338d52e0f1161022657806356f89ef9116101df57806356f89ef9146104075780635c975abb1461040f57806369e527da146104215780636e553f65146104355780636e96dfd71461044857806370a082311461045b57600080fd5b806338d52e0f146103a157806339509351146103c65780633f4ba83a146103d9578063402d267d146103e157806346904840146103f45780634cdad506146102f057600080fd5b806318160ddd1161027857806318160ddd1461034e578063211493c91461035657806323b872dd1461035f5780632835797814610372578063313ce5671461037a578063372500ab1461039957600080fd5b806301e1d114146102c057806306fdde03146102db57806307a2d13a146102f0578063095ea7b3146103035780630a28a4771461032657806310509aa914610339575b600080fd5b6102c8610614565b6040519081526020015b60405180910390f35b6102e3610687565b6040516102d29190612eb0565b6102c86102fe366004612ee3565b610719565b610316610311366004612f11565b61072c565b60405190151581526020016102d2565b6102c8610334366004612ee3565b610744565b61034c610347366004612f3d565b610751565b005b6099546102c8565b6102c860fb5481565b61031661036d366004612f6d565b610877565b61034c61089d565b60c954600160a01b900460ff1660405160ff90911681526020016102d2565b61034c6108af565b60c9546001600160a01b03165b6040516001600160a01b0390911681526020016102d2565b6103166103d4366004612f11565b610988565b61034c6109aa565b6102c86103ef366004612fae565b6109ba565b60fd546103ae906001600160a01b031681565b61034c610cde565b606554600160a01b900460ff16610316565b610100546103ae906001600160a01b031681565b6102c8610443366004612f3d565b610eac565b61034c610456366004612fae565b610f78565b6102c8610469366004612fae565b6001600160a01b031660009081526097602052604090205490565b61034c610fe2565b6102c860fc5481565b6033546001600160a01b03166103ae565b6102c86104b4366004612f3d565b611025565b6102e36110a2565b6103166104cf366004612f11565b6110b1565b6103166104e2366004612f11565b611137565b61034c611145565b6102c86104fd366004612ee3565b611175565b6102c8610510366004612fcb565b611182565b6102c8610523366004612fcb565b61133b565b61034c610536366004612fae565b611532565b61034c61054936600461300d565b6115a3565b6102c861055c366004612fae565b611757565b6102c861056f366004612ee3565b61177d565b6102c8610582366004612fae565b61178a565b6102c8610595366004612fae565b611893565b6102c86105a8366004612fae565b61194d565b6102c86105bb36600461303d565b611a12565b6065546103ae906001600160a01b031681565b60ff546103ae906001600160a01b031681565b61034c6105f4366004612fae565b611a3d565b61034c611aae565b60fe546103ae906001600160a01b031681565b61010054604051633af9e66960e01b81523060048201526000916001600160a01b031690633af9e66990602401602060405180830381865afa15801561065e573d6000803e3d6000fd5b505050506040513d601f19601f82011682018060405250810190610682919061306b565b905090565b6060609a805461069690613084565b80601f01602080910402602001604051908101604052809291908181526020018280546106c290613084565b801561070f5780601f106106e45761010080835404028352916020019161070f565b820191906000526020600020905b8154815290600101906020018083116106f257829003601f168201915b5050505050905090565b6000610726826000611bc2565b92915050565b60003361073a818585611bf5565b5060019392505050565b6000610726826001611d19565b610759611d4b565b60fc5460fd5460408051928352602083018590526001600160a01b0391821690830152821660608201527fb3b62da5184b9e7e2f5d280014bb485d4444b66738025e5fb5738bbddcb6b8489060800160405180910390a160fc82905560fd546001600160a01b038281169116146108545760fd546001600160a01b0316156108365760fd546001600160a01b0316600081815260976020526040902054906108019082611da5565b60fd5461082a906001600160a01b03166108236033546001600160a01b031690565b6000611bf5565b6108348282611ed9565b505b6108548161084c6033546001600160a01b031690565b600019611bf5565b60fd80546001600160a01b0319166001600160a01b039290921691909117905550565b600033610885858285611f9b565b61089085858561200f565b60019150505b9392505050565b6108a5611d4b565b6108ad6121ba565b565b60ff54604051639cf1fd5360e01b815230600482015260009182916001600160a01b0390911690639cf1fd53906024016000604051808303816000875af11580156108fe573d6000803e3d6000fd5b505050506040513d6000823e601f3d908101601f191682016040526109269190810190613198565b9150915060005b82518110156109835760fe54825161097b916001600160a01b03169084908490811061095b5761095b61325d565b602002602001015161096b61221a565b6001600160a01b0316919061222e565b60010161092d565b505050565b60003361073a81858561099b8383611a12565b6109a59190613289565b611bf5565b6109b2611d4b565b6108ad612291565b6101005460408051635fe3b56760e01b815290516000926001600160a01b031691635fe3b5679160048083019260209291908290030181865afa158015610a05573d6000803e3d6000fd5b505050506040513d601f19601f82011682018060405250810190610a29919061329c565b6101005460405163731f0c2b60e01b81526001600160a01b03918216600482015291169063731f0c2b90602401602060405180830381865afa158015610a73573d6000803e3d6000fd5b505050506040513d601f19601f82011682018060405250810190610a9791906132b9565b15610aa457506000919050565b6101005460408051635fe3b56760e01b815290516000926001600160a01b031691635fe3b5679160048083019260209291908290030181865afa158015610aef573d6000803e3d6000fd5b505050506040513d601f19601f82011682018060405250810190610b13919061329c565b610100546040516302c3bcbb60e01b81526001600160a01b0391821660048201529116906302c3bcbb90602401602060405180830381865afa158015610b5d573d6000803e3d6000fd5b505050506040513d601f19601f82011682018060405250810190610b81919061306b565b90508015610cd457610100546040805163bd6d894d60e01b815290516000926001600160a01b03169163bd6d894d9160048083019260209291908290030181865afa158015610bd4573d6000803e3d6000fd5b505050506040513d601f19601f82011682018060405250810190610bf8919061306b565b9050600061010060009054906101000a90046001600160a01b03166001600160a01b03166318160ddd6040518163ffffffff1660e01b8152600401602060405180830381865afa158015610c50573d6000803e3d6000fd5b505050506040513d601f19601f82011682018060405250810190610c74919061306b565b90506000670de0b6b3a7640000610c8b84846132db565b610c959190613308565b905083610ca3826002613289565b10610cb45750600095945050505050565b6002610cc0828661332a565b610cca919061332a565b9695505050505050565b5060001992915050565b610ce6611d4b565b60fd546001600160a01b0316610d435760405162461bcd60e51b815260206004820152601d60248201527f66656520726563697069656e74206e6f7420696e697469616c697a656400000060448201526064015b60405180910390fd5b6000610d4d610614565b90506000610dc8610d5c61221a565b6001600160a01b031663313ce5676040518163ffffffff1660e01b8152600401602060405180830381865afa158015610d99573d6000803e3d6000fd5b505050506040513d601f19601f82011682018060405250810190610dbd919061333d565b6102fe90600a613444565b905060fb548111610e1b5760405162461bcd60e51b815260206004820152601b60248201527f736861726556616c756520213e207661756c74536861726548574d00000000006044820152606401610d3a565b6000610e2660995490565b905060006ec097ce7bc90715b34b9f10000000008260fb5485610e49919061332a565b60fc54610e5691906132db565b610e6091906132db565b610e6a9190613308565b60fd54909150610e98906001600160a01b0316610e9384610e8b858961332a565b8591906122cd565b611ed9565b610ea3610d5c61221a565b60fb5550505050565b6000610eb66122ec565b610ebf8361177d565b905080600003610eff5760405162461bcd60e51b815260206004820152600b60248201526a5a45524f5f53484152455360a81b6044820152606401610d3a565b610f1e333085610f0d61221a565b6001600160a01b0316929190612339565b610f288282611ed9565b60408051848152602081018390526001600160a01b0384169133917fdcbc1c05240f31ff3ad067ef1ee35ce4997762752e3a095284754544f4c709d7910160405180910390a36107268382612371565b610f80611d4b565b606580546001600160a01b038381166001600160a01b031983168117909355604080519190921680825260208201939093527fb3d55174552271a4f1aaf36b72f50381e892171636b3fb5447fe00e995e7a37b91015b60405180910390a15050565b610fea611d4b565b60405162461bcd60e51b815260206004820152601060248201526f6e6f74207573656420616e796d6f726560801b6044820152606401610d3a565b600061102f6122ec565b61103883611175565b9050611048333083610f0d61221a565b6110528284611ed9565b60408051828152602081018590526001600160a01b0384169133917fdcbc1c05240f31ff3ad067ef1ee35ce4997762752e3a095284754544f4c709d7910160405180910390a36107268184612371565b6060609b805461069690613084565b600033816110bf8286611a12565b90508381101561111f5760405162461bcd60e51b815260206004820152602560248201527f45524332303a2064656372656173656420616c6c6f77616e63652062656c6f77604482015264207a65726f60d81b6064820152608401610d3a565b61112c8286868403611bf5565b506001949350505050565b60003361073a81858561200f565b61114d611d4b565b60fd546001600160a01b0316600081815260976020526040902054611172918061133b565b50565b6000610726826001611bc2565b600061118d84610744565b9050336001600160a01b038316146111c75760006111ab8333611a12565b905060001981146111c5576111c583336109a5858561332a565b505b606554600160a01b900460ff166112d95760006111e261221a565b6040516370a0823160e01b81523060048201526001600160a01b0391909116906370a0823190602401602060405180830381865afa158015611228573d6000803e3d6000fd5b505050506040513d601f19601f8201168201806040525081019061124c919061306b565b90506112588583612441565b8061126161221a565b6040516370a0823160e01b81523060048201526001600160a01b0391909116906370a0823190602401602060405180830381865afa1580156112a7573d6000803e3d6000fd5b505050506040513d601f19601f820116820180604052508101906112cb919061306b565b6112d5919061332a565b9450505b6112e38282611da5565b60408051858152602081018390526001600160a01b03808516929086169133917ffbde797d201c681b91056529119e0b02407c7bb96a4a2c75c01fc9667232c8db910160405180910390a4610896838561096b61221a565b6000336001600160a01b038316146113755760006113598333611a12565b905060001981146113735761137383336109a5888561332a565b505b61137e84610719565b9050806000036113be5760405162461bcd60e51b815260206004820152600b60248201526a5a45524f5f41535345545360a81b6044820152606401610d3a565b606554600160a01b900460ff166114d05760006113d961221a565b6040516370a0823160e01b81523060048201526001600160a01b0391909116906370a0823190602401602060405180830381865afa15801561141f573d6000803e3d6000fd5b505050506040513d601f19601f82011682018060405250810190611443919061306b565b905061144f8286612441565b8061145861221a565b6040516370a0823160e01b81523060048201526001600160a01b0391909116906370a0823190602401602060405180830381865afa15801561149e573d6000803e3d6000fd5b505050506040513d601f19601f820116820180604052508101906114c2919061306b565b6114cc919061332a565b9150505b6114da8285611da5565b60408051828152602081018690526001600160a01b03808516929086169133917ffbde797d201c681b91056529119e0b02407c7bb96a4a2c75c01fc9667232c8db910160405180910390a4610896838261096b61221a565b61153a611d4b565b60fe54604080516001600160a01b03928316815291831660208301527f2d9427f2d488d8f8716dae31ad2f0d476bcea0664cce8822d8dc76dde104b09e910160405180910390a160fe80546001600160a01b0319166001600160a01b0392909216919091179055565b600054610100900460ff16158080156115c35750600054600160ff909116105b806115dd5750303b1580156115dd575060005460ff166001145b6116405760405162461bcd60e51b815260206004820152602e60248201527f496e697469616c697a61626c653a20636f6e747261637420697320616c72656160448201526d191e481a5b9a5d1a585b1a5e995960921b6064820152608401610d3a565b6000805460ff191660011790558015611663576000805461ff0019166101001790555b6116cd846001600160a01b0316636f307dc36040518163ffffffff1660e01b8152600401602060405180830381865afa1580156116a4573d6000803e3d6000fd5b505050506040513d601f19601f820116820180604052508101906116c8919061329c565b612474565b61010080546001600160a01b038087166001600160a01b03199283161790925560fe805485841690831617905560ff8054928616929091169190911790558015611751576000805461ff0019169055604051600181527f7f26b83ff96e1f2b6a682f133852f6798a09c465da95921460cefb38474024989060200160405180910390a15b50505050565b60008061176460006109ba565b90506000198114610726576117788161177d565b610896565b6000610726826000611d19565b6000611794611d4b565b61179c612654565b60006117a661221a565b6040516370a0823160e01b81523060048201529091506000906001600160a01b038316906370a0823190602401602060405180830381865afa1580156117f0573d6000803e3d6000fd5b505050506040513d601f19601f82011682018060405250810190611814919061306b565b60405163a9059cbb60e01b81526001600160a01b038681166004830152602482018390529192509083169063a9059cbb906044016020604051808303816000875af1158015611867573d6000803e3d6000fd5b505050506040513d601f19601f8201168201806040525081019061188b91906132b9565b509392505050565b60008061010060009054906101000a90046001600160a01b03166001600160a01b0316633b1d21a26040518163ffffffff1660e01b8152600401602060405180830381865afa1580156118ea573d6000803e3d6000fd5b505050506040513d601f19601f8201168201806040525081019061190e919061306b565b905060006119346102fe856001600160a01b031660009081526097602052604090205490565b90508082106119435780611945565b815b949350505050565b60008061010060009054906101000a90046001600160a01b03166001600160a01b0316633b1d21a26040518163ffffffff1660e01b8152600401602060405180830381865afa1580156119a4573d6000803e3d6000fd5b505050506040513d601f19601f820116820180604052508101906119c8919061306b565b905060006119d58261177d565b905060006119f8856001600160a01b031660009081526097602052604090205490565b9050808210611a075780611a09565b815b95945050505050565b6001600160a01b03918216600090815260986020908152604080832093909416825291909152205490565b611a45611d4b565b606554604080516001600160a01b03928316815291831660208301527fb3d55174552271a4f1aaf36b72f50381e892171636b3fb5447fe00e995e7a37b910160405180910390a1606580546001600160a01b0319166001600160a01b0392909216919091179055565b6065546001600160a01b03163314611b005760405162461bcd60e51b81526020600482015260156024820152743737ba103a3432903832b73234b7339037bbb732b960591b6044820152606401610d3a565b6000611b146033546001600160a01b031690565b6065549091506001600160a01b0316611b2c816126a4565b606580546001600160a01b0319169055604080516001600160a01b0384168152600060208201527f70aea8d848e8a90fb7661b227dc522eb6395c3dac71b63cb59edd5c9899b2364910160405180910390a1606554604080516001600160a01b03808516825290921660208301527fb3d55174552271a4f1aaf36b72f50381e892171636b3fb5447fe00e995e7a37b9101610fd6565b600080611bce60995490565b90508015611bef57611bea611be1610614565b859083866126f6565b611945565b83611945565b6001600160a01b038316611c575760405162461bcd60e51b8152602060048201526024808201527f45524332303a20617070726f76652066726f6d20746865207a65726f206164646044820152637265737360e01b6064820152608401610d3a565b6001600160a01b038216611cb85760405162461bcd60e51b815260206004820152602260248201527f45524332303a20617070726f766520746f20746865207a65726f206164647265604482015261737360f01b6064820152608401610d3a565b6001600160a01b0383811660008181526098602090815260408083209487168084529482529182902085905590518481527f8c5be1e5ebec7d5bd14f71427d1e84f3dd0314c0f7b2291e5b200ac8c7c3b925910160405180910390a3505050565b600080611d2560995490565b9050831580611d32575080155b611bef57611bea81611d42610614565b869190866126f6565b6033546001600160a01b031633146108ad5760405162461bcd60e51b815260206004820181905260248201527f4f776e61626c653a2063616c6c6572206973206e6f7420746865206f776e65726044820152606401610d3a565b6001600160a01b038216611e055760405162461bcd60e51b815260206004820152602160248201527f45524332303a206275726e2066726f6d20746865207a65726f206164647265736044820152607360f81b6064820152608401610d3a565b6001600160a01b03821660009081526097602052604090205481811015611e795760405162461bcd60e51b815260206004820152602260248201527f45524332303a206275726e20616d6f756e7420657863656564732062616c616e604482015261636560f01b6064820152608401610d3a565b6001600160a01b03831660008181526097602090815260408083208686039055609980548790039055518581529192917fddf252ad1be2c89b69c2b068fc378daa952ba7f163c4a11628f55a4df523b3ef910160405180910390a3505050565b6001600160a01b038216611f2f5760405162461bcd60e51b815260206004820152601f60248201527f45524332303a206d696e7420746f20746865207a65726f2061646472657373006044820152606401610d3a565b8060996000828254611f419190613289565b90915550506001600160a01b0382166000818152609760209081526040808320805486019055518481527fddf252ad1be2c89b69c2b068fc378daa952ba7f163c4a11628f55a4df523b3ef910160405180910390a35b5050565b6000611fa78484611a12565b9050600019811461175157818110156120025760405162461bcd60e51b815260206004820152601d60248201527f45524332303a20696e73756666696369656e7420616c6c6f77616e63650000006044820152606401610d3a565b6117518484848403611bf5565b6001600160a01b0383166120735760405162461bcd60e51b815260206004820152602560248201527f45524332303a207472616e736665722066726f6d20746865207a65726f206164604482015264647265737360d81b6064820152608401610d3a565b6001600160a01b0382166120d55760405162461bcd60e51b815260206004820152602360248201527f45524332303a207472616e7366657220746f20746865207a65726f206164647260448201526265737360e81b6064820152608401610d3a565b6001600160a01b0383166000908152609760205260409020548181101561214d5760405162461bcd60e51b815260206004820152602660248201527f45524332303a207472616e7366657220616d6f756e7420657863656564732062604482015265616c616e636560d01b6064820152608401610d3a565b6001600160a01b0380851660008181526097602052604080822086860390559286168082529083902080548601905591517fddf252ad1be2c89b69c2b068fc378daa952ba7f163c4a11628f55a4df523b3ef906121ad9086815260200190565b60405180910390a3611751565b6121c26122ec565b6065805460ff60a01b1916600160a01b1790557f62e78cea01bee320cd4e420270b5ea74000d11b0c9f74754ebdbfc544b05a2586121fd3390565b6040516001600160a01b03909116815260200160405180910390a1565b600061068260c9546001600160a01b031690565b6040516001600160a01b03831660248201526044810182905261098390849063a9059cbb60e01b906064015b60408051601f198184030181529190526020810180516001600160e01b03166001600160e01b031990931692909217909152612747565b612299612654565b6065805460ff60a01b191690557f5db9ee0a495bf2e6ff9c91a7834c1ba4fdd244a5e8aa4e537bd38aeae4b073aa336121fd565b8282028115158415858304851417166122e557600080fd5b0492915050565b606554600160a01b900460ff16156108ad5760405162461bcd60e51b815260206004820152601060248201526f14185d5cd8589b194e881c185d5cd95960821b6044820152606401610d3a565b6040516001600160a01b03808516602483015283166044820152606481018290526117519085906323b872dd60e01b9060840161225a565b6101005461239b906001600160a01b03168361238b61221a565b6001600160a01b03169190612819565b6101005460405163140e25ad60e31b8152600481018490526000916001600160a01b03169063a0712d68906024015b6020604051808303816000875af11580156123e9573d6000803e3d6000fd5b505050506040513d601f19601f8201168201806040525081019061240d919061306b565b905080156109835780601481111561242757612427613453565b604051633172b7f760e11b8152600401610d3a9190613469565b6101005460405163852a12e360e01b8152600481018490526000916001600160a01b03169063852a12e3906024016123ca565b600054610100900460ff1661249b5760405162461bcd60e51b8152600401610d3a90613491565b6124a43361292e565b6124ac612966565b6124b4612995565b6125c6816001600160a01b03166306fdde036040518163ffffffff1660e01b8152600401600060405180830381865afa1580156124f5573d6000803e3d6000fd5b505050506040513d6000823e601f3d908101601f1916820160405261251d91908101906134dc565b60405160200161252d9190613570565b604051602081830303815290604052826001600160a01b03166395d89b416040518163ffffffff1660e01b8152600401600060405180830381865afa15801561257a573d6000803e3d6000fd5b505050506040513d6000823e601f3d908101601f191682016040526125a291908101906134dc565b6040516020016125b291906135ae565b6040516020818303038152906040526129bc565b6125cf816129ed565b806001600160a01b031663313ce5676040518163ffffffff1660e01b8152600401602060405180830381865afa15801561260d573d6000803e3d6000fd5b505050506040513d601f19601f82011682018060405250810190612631919061333d565b61263c90600a613444565b60fb555060fd80546001600160a01b03191633179055565b606554600160a01b900460ff166108ad5760405162461bcd60e51b815260206004820152601460248201527314185d5cd8589b194e881b9bdd081c185d5cd95960621b6044820152606401610d3a565b603380546001600160a01b038381166001600160a01b0319831681179093556040519116919082907f8be0079c531659141344cd1fd0a4f28419497f9722a3daafe3b4186f6b6457e090600090a35050565b600080612704868686612a1d565b9050600183600281111561271a5761271a613453565b148015612737575060008480612732576127326132f2565b868809115b15611a0957610cca600182613289565b600061279c826040518060400160405280602081526020017f5361666545524332303a206c6f772d6c6576656c2063616c6c206661696c6564815250856001600160a01b0316612acc9092919063ffffffff16565b80519091501561098357808060200190518101906127ba91906132b9565b6109835760405162461bcd60e51b815260206004820152602a60248201527f5361666545524332303a204552433230206f7065726174696f6e20646964206e6044820152691bdd081cdd58d8d9595960b21b6064820152608401610d3a565b8015806128935750604051636eb1769f60e11b81523060048201526001600160a01b03838116602483015284169063dd62ed3e90604401602060405180830381865afa15801561286d573d6000803e3d6000fd5b505050506040513d601f19601f82011682018060405250810190612891919061306b565b155b6128fe5760405162461bcd60e51b815260206004820152603660248201527f5361666545524332303a20617070726f76652066726f6d206e6f6e2d7a65726f60448201527520746f206e6f6e2d7a65726f20616c6c6f77616e636560501b6064820152608401610d3a565b6040516001600160a01b03831660248201526044810182905261098390849063095ea7b360e01b9060640161225a565b600054610100900460ff166129555760405162461bcd60e51b8152600401610d3a90613491565b61295d612adb565b611172816126a4565b600054610100900460ff1661298d5760405162461bcd60e51b8152600401610d3a90613491565b6108ad612b0a565b600054610100900460ff166108ad5760405162461bcd60e51b8152600401610d3a90613491565b600054610100900460ff166129e35760405162461bcd60e51b8152600401610d3a90613491565b611f978282612b40565b600054610100900460ff16612a145760405162461bcd60e51b8152600401610d3a90613491565b61117281612b80565b6000808060001985870985870292508281108382030391505080600003612a5757838281612a4d57612a4d6132f2565b0492505050610896565b808411612a6357600080fd5b60008486880960026001871981018816978890046003810283188082028403028082028403028082028403028082028403028082028403029081029092039091026000889003889004909101858311909403939093029303949094049190911702949350505050565b60606119458484600085612c05565b600054610100900460ff16612b025760405162461bcd60e51b8152600401610d3a90613491565b6108ad612ce0565b600054610100900460ff16612b315760405162461bcd60e51b8152600401610d3a90613491565b6065805460ff60a01b19169055565b600054610100900460ff16612b675760405162461bcd60e51b8152600401610d3a90613491565b609a612b738382613628565b50609b6109838282613628565b600054610100900460ff16612ba75760405162461bcd60e51b8152600401610d3a90613491565b600080612bb383612d10565b9150915081612bc3576012612bc5565b805b60c980546001600160a01b039095166001600160a01b031960ff93909316600160a01b02929092166001600160a81b031990951694909417179092555050565b606082471015612c665760405162461bcd60e51b815260206004820152602660248201527f416464726573733a20696e73756666696369656e742062616c616e636520666f6044820152651c8818d85b1b60d21b6064820152608401610d3a565b600080866001600160a01b03168587604051612c8291906136e8565b60006040518083038185875af1925050503d8060008114612cbf576040519150601f19603f3d011682016040523d82523d6000602084013e612cc4565b606091505b5091509150612cd587838387612dee565b979650505050505050565b600054610100900460ff16612d075760405162461bcd60e51b8152600401610d3a90613491565b6108ad336126a4565b60408051600481526024810182526020810180516001600160e01b031663313ce56760e01b17905290516000918291829182916001600160a01b03871691612d57916136e8565b6000604051808303816000865af19150503d8060008114612d94576040519150601f19603f3d011682016040523d82523d6000602084013e612d99565b606091505b5091509150818015612dad57506020815110155b15612de157600081806020019051810190612dc8919061306b565b905060ff8111612ddf576001969095509350505050565b505b5060009485945092505050565b60608315612e5d578251600003612e56576001600160a01b0385163b612e565760405162461bcd60e51b815260206004820152601d60248201527f416464726573733a2063616c6c20746f206e6f6e2d636f6e74726163740000006044820152606401610d3a565b5081611945565b6119458383815115612e725781518083602001fd5b8060405162461bcd60e51b8152600401610d3a9190612eb0565b60005b83811015612ea7578181015183820152602001612e8f565b50506000910152565b6020815260008251806020840152612ecf816040850160208701612e8c565b601f01601f19169190910160400192915050565b600060208284031215612ef557600080fd5b5035919050565b6001600160a01b038116811461117257600080fd5b60008060408385031215612f2457600080fd5b8235612f2f81612efc565b946020939093013593505050565b60008060408385031215612f5057600080fd5b823591506020830135612f6281612efc565b809150509250929050565b600080600060608486031215612f8257600080fd5b8335612f8d81612efc565b92506020840135612f9d81612efc565b929592945050506040919091013590565b600060208284031215612fc057600080fd5b813561089681612efc565b600080600060608486031215612fe057600080fd5b833592506020840135612ff281612efc565b9150604084013561300281612efc565b809150509250925092565b60008060006060848603121561302257600080fd5b833561302d81612efc565b92506020840135612ff281612efc565b6000806040838503121561305057600080fd5b823561305b81612efc565b91506020830135612f6281612efc565b60006020828403121561307d57600080fd5b5051919050565b600181811c9082168061309857607f821691505b6020821081036130b857634e487b7160e01b600052602260045260246000fd5b50919050565b634e487b7160e01b600052604160045260246000fd5b604051601f8201601f1916810167ffffffffffffffff811182821017156130fd576130fd6130be565b604052919050565b600067ffffffffffffffff82111561311f5761311f6130be565b5060051b60200190565b600082601f83011261313a57600080fd5b8151602061314f61314a83613105565b6130d4565b8083825260208201915060208460051b87010193508684111561317157600080fd5b602086015b8481101561318d5780518352918301918301613176565b509695505050505050565b600080604083850312156131ab57600080fd5b825167ffffffffffffffff808211156131c357600080fd5b818501915085601f8301126131d757600080fd5b815160206131e761314a83613105565b82815260059290921b8401810191818101908984111561320657600080fd5b948201945b8386101561322d57855161321e81612efc565b8252948201949082019061320b565b9188015191965090935050508082111561324657600080fd5b5061325385828601613129565b9150509250929050565b634e487b7160e01b600052603260045260246000fd5b634e487b7160e01b600052601160045260246000fd5b8082018082111561072657610726613273565b6000602082840312156132ae57600080fd5b815161089681612efc565b6000602082840312156132cb57600080fd5b8151801515811461089657600080fd5b808202811582820484141761072657610726613273565b634e487b7160e01b600052601260045260246000fd5b60008261332557634e487b7160e01b600052601260045260246000fd5b500490565b8181038181111561072657610726613273565b60006020828403121561334f57600080fd5b815160ff8116811461089657600080fd5b600181815b8085111561339b57816000190482111561338157613381613273565b8085161561338e57918102915b93841c9390800290613365565b509250929050565b6000826133b257506001610726565b816133bf57506000610726565b81600181146133d557600281146133df576133fb565b6001915050610726565b60ff8411156133f0576133f0613273565b50506001821b610726565b5060208310610133831016604e8410600b841016171561341e575081810a610726565b6134288383613360565b806000190482111561343c5761343c613273565b029392505050565b600061089660ff8416836133a3565b634e487b7160e01b600052602160045260246000fd5b602081016015831061348b57634e487b7160e01b600052602160045260246000fd5b91905290565b6020808252602b908201527f496e697469616c697a61626c653a20636f6e7472616374206973206e6f74206960408201526a6e697469616c697a696e6760a81b606082015260800190565b6000602082840312156134ee57600080fd5b815167ffffffffffffffff8082111561350657600080fd5b818401915084601f83011261351a57600080fd5b81518181111561352c5761352c6130be565b61353f601f8201601f19166020016130d4565b915080825285602082850101111561355657600080fd5b613567816020840160208601612e8c565b50949350505050565b65024b7b734b1960d51b815260008251613591816006850160208701612e8c565b650815985d5b1d60d21b6006939091019283015250600c01919050565b6134bb60f11b8152600082516135cb816002850160208701612e8c565b9190910160020192915050565b601f821115610983576000816000526020600020601f850160051c810160208610156136015750805b601f850160051c820191505b818110156136205782815560010161360d565b505050505050565b815167ffffffffffffffff811115613642576136426130be565b613656816136508454613084565b846135d8565b602080601f83116001811461368b57600084156136735750858301515b600019600386901b1c1916600185901b178555613620565b600085815260208120601f198616915b828110156136ba5788860151825594840194600190910190840161369b565b50858210156136d85787850151600019600388901b60f8161c191681555b5050505050600190811b01905550565b600082516136fa818460208701612e8c565b919091019291505056fea2646970667358221220e9c1329438f31472150b9c984d508926d8a8b93cd339e65570636454cde0a40a64736f6c63430008160033",
  "devdoc": {
    "events": {
      "Approval(address,address,uint256)": {
        "details": "Emitted when the allowance of a `spender` for an `owner` is set by a call to {approve}. `value` is the new allowance."
      },
      "Initialized(uint8)": {
        "details": "Triggered when the contract has been initialized or reinitialized."
      },
      "Paused(address)": {
        "details": "Emitted when the pause is triggered by `account`."
      },
      "Transfer(address,address,uint256)": {
        "details": "Emitted when `value` tokens are moved from one account (`from`) to another (`to`). Note that `value` may be zero."
      },
      "Unpaused(address)": {
        "details": "Emitted when the pause is lifted by `account`."
      }
    },
    "kind": "dev",
    "methods": {
      "_acceptOwner()": {
        "details": "Owner function for pending owner to accept role and update owner"
      },
      "_setPendingOwner(address)": {
        "details": "Owner function to begin change of owner. The newPendingOwner must call `_acceptOwner` to finalize the transfer.",
        "params": {
          "newPendingOwner": "New pending owner."
        }
      },
      "allowance(address,address)": {
        "details": "See {IERC20-allowance}."
      },
      "approve(address,uint256)": {
        "details": "See {IERC20-approve}. NOTE: If `amount` is the maximum `uint256`, the allowance is not updated on `transferFrom`. This is semantically equivalent to an infinite approval. Requirements: - `spender` cannot be the zero address."
      },
      "asset()": {
        "details": "See {IERC4626-asset}. "
      },
      "balanceOf(address)": {
        "details": "See {IERC20-balanceOf}."
      },
      "convertToAssets(uint256)": {
        "details": "See {IERC4626-convertToAssets}. "
      },
      "convertToShares(uint256)": {
        "details": "See {IERC4626-convertToShares}. "
      },
      "decimals()": {
        "details": "Decimals are read from the underlying asset in the constructor and cached. If this fails (e.g., the asset has not been created yet), the cached value is set to a default obtained by `super.decimals()` (which depends on inheritance but is most likely 18). Override this function in order to set a guaranteed hardcoded value. See {IERC20Metadata-decimals}."
      },
      "decreaseAllowance(address,uint256)": {
        "details": "Atomically decreases the allowance granted to `spender` by the caller. This is an alternative to {approve} that can be used as a mitigation for problems described in {IERC20-approve}. Emits an {Approval} event indicating the updated allowance. Requirements: - `spender` cannot be the zero address. - `spender` must have allowance for the caller of at least `subtractedValue`."
      },
      "deposit(uint256,address)": {
        "details": "See {IERC4626-deposit}. "
      },
      "increaseAllowance(address,uint256)": {
        "details": "Atomically increases the allowance granted to `spender` by the caller. This is an alternative to {approve} that can be used as a mitigation for problems described in {IERC20-approve}. Emits an {Approval} event indicating the updated allowance. Requirements: - `spender` cannot be the zero address."
      },
      "maxMint(address)": {
        "details": "accrue interest must be called before this function is called, otherwise an outdated value will be fetched, and the returned value will be incorrect (greater than actual amount available to be minted will be returned)"
      },
      "maxRedeem(address)": {
        "params": {
          "owner": "The address that owns the shares"
        }
      },
      "maxWithdraw(address)": {
        "params": {
          "owner": "The address that owns the shares"
        }
      },
      "mint(uint256,address)": {
        "details": "See {IERC4626-mint}. "
      },
      "name()": {
        "details": "Returns the name of the token."
      },
      "owner()": {
        "details": "Returns the address of the current owner."
      },
      "paused()": {
        "details": "Returns true if the contract is paused, and false otherwise."
      },
      "previewDeposit(uint256)": {
        "details": "See {IERC4626-previewDeposit}. "
      },
      "previewMint(uint256)": {
        "details": "See {IERC4626-previewMint}. "
      },
      "previewRedeem(uint256)": {
        "details": "See {IERC4626-previewRedeem}. "
      },
      "previewWithdraw(uint256)": {
        "details": "See {IERC4626-previewWithdraw}. "
      },
      "redeem(uint256,address,address)": {
        "details": "See {IERC4626-redeem}. "
      },
      "renounceOwnership()": {
        "details": "Leaves the contract without owner. It will not be possible to call `onlyOwner` functions anymore. Can only be called by the current owner. NOTE: Renouncing ownership will leave the contract without an owner, thereby removing any functionality that is only available to the owner."
      },
      "symbol()": {
        "details": "Returns the symbol of the token, usually a shorter version of the name."
      },
      "takePerformanceFee()": {
        "details": "Performance fee is based on a vault share high water mark value. If vault share value has increased above the   HWM in a fee period, issue fee shares to the vault equal to the performance fee."
      },
      "totalAssets()": {
        "details": "See {IERC4626-totalAssets}. "
      },
      "totalSupply()": {
        "details": "See {IERC20-totalSupply}."
      },
      "transfer(address,uint256)": {
        "details": "See {IERC20-transfer}. Requirements: - `to` cannot be the zero address. - the caller must have a balance of at least `amount`."
      },
      "transferFrom(address,address,uint256)": {
        "details": "See {IERC20-transferFrom}. Emits an {Approval} event indicating the updated allowance. This is not required by the EIP. See the note at the beginning of {ERC20}. NOTE: Does not update the allowance if the current allowance is the maximum `uint256`. Requirements: - `from` and `to` cannot be the zero address. - `from` must have a balance of at least `amount`. - the caller must have allowance for ``from``'s tokens of at least `amount`."
      },
      "transferOwnership(address)": {
        "details": "Transfers ownership of the contract to a new account (`newOwner`). Can only be called by the current owner."
      },
      "withdraw(uint256,address,address)": {
        "details": "See {IERC4626-withdraw}. "
      },
      "withdrawAccruedFees()": {
        "details": "We must make sure that feeRecipient is not address(0) before withdrawing fees"
      }
    },
    "version": 1
  },
  "userdoc": {
    "events": {
      "NewOwner(address,address)": {
        "notice": "Emitted when pendingOwner is accepted, which means owner is updated"
      },
      "NewPendingOwner(address,address)": {
        "notice": "Emitted when pendingOwner is changed"
      }
    },
    "kind": "user",
    "methods": {
      "_acceptOwner()": {
        "notice": "Accepts transfer of owner rights. msg.sender must be pendingOwner"
      },
      "_setPendingOwner(address)": {
        "notice": "Begins transfer of owner rights. The newPendingOwner must call `_acceptOwner` to finalize the transfer."
      },
      "maxDeposit(address)": {
        "notice": "maximum amount of underlying tokens that can be deposited into the underlying protocol"
      },
      "maxMint(address)": {
        "notice": "Returns the maximum amount of tokens that can be supplied no way for this function to ever revert unless comptroller or mToken is broken"
      },
      "maxRedeem(address)": {
        "notice": "maximum amount of shares that can be withdrawn"
      },
      "maxWithdraw(address)": {
        "notice": "maximum amount of underlying tokens that can be withdrawn"
      },
      "pendingOwner()": {
        "notice": "Pending owner of this contract"
      },
      "takePerformanceFee()": {
        "notice": "Take the performance fee that has accrued since last fee harvest."
      },
      "updateFeeSettings(uint256,address)": {
        "notice": "Update performanceFee and/or feeRecipient"
      },
      "withdrawAccruedFees()": {
        "notice": "Transfer accrued fees to rewards manager contract. Caller must be a registered keeper."
      }
    },
    "version": 1
  },
  "storageLayout": {
    "storage": [
      {
        "astId": 3343,
        "contract": "contracts/src/ionic/strategies/IonicMarketERC4626.sol:IonicMarketERC4626",
        "label": "_initialized",
        "offset": 0,
        "slot": "0",
        "type": "t_uint8"
      },
      {
        "astId": 3346,
        "contract": "contracts/src/ionic/strategies/IonicMarketERC4626.sol:IonicMarketERC4626",
        "label": "_initializing",
        "offset": 1,
        "slot": "0",
        "type": "t_bool"
      },
      {
        "astId": 6909,
        "contract": "contracts/src/ionic/strategies/IonicMarketERC4626.sol:IonicMarketERC4626",
        "label": "__gap",
        "offset": 0,
        "slot": "1",
        "type": "t_array(t_uint256)50_storage"
      },
      {
        "astId": 2967,
        "contract": "contracts/src/ionic/strategies/IonicMarketERC4626.sol:IonicMarketERC4626",
        "label": "_owner",
        "offset": 0,
        "slot": "51",
        "type": "t_address"
      },
      {
        "astId": 3087,
        "contract": "contracts/src/ionic/strategies/IonicMarketERC4626.sol:IonicMarketERC4626",
        "label": "__gap",
        "offset": 0,
        "slot": "52",
        "type": "t_array(t_uint256)49_storage"
      },
      {
        "astId": 55662,
        "contract": "contracts/src/ionic/strategies/IonicMarketERC4626.sol:IonicMarketERC4626",
        "label": "pendingOwner",
        "offset": 0,
        "slot": "101",
        "type": "t_address"
      },
      {
        "astId": 3526,
        "contract": "contracts/src/ionic/strategies/IonicMarketERC4626.sol:IonicMarketERC4626",
        "label": "_paused",
        "offset": 20,
        "slot": "101",
        "type": "t_bool"
      },
      {
        "astId": 3631,
        "contract": "contracts/src/ionic/strategies/IonicMarketERC4626.sol:IonicMarketERC4626",
        "label": "__gap",
        "offset": 0,
        "slot": "102",
        "type": "t_array(t_uint256)49_storage"
      },
      {
        "astId": 3724,
        "contract": "contracts/src/ionic/strategies/IonicMarketERC4626.sol:IonicMarketERC4626",
        "label": "_balances",
        "offset": 0,
        "slot": "151",
        "type": "t_mapping(t_address,t_uint256)"
      },
      {
        "astId": 3730,
        "contract": "contracts/src/ionic/strategies/IonicMarketERC4626.sol:IonicMarketERC4626",
        "label": "_allowances",
        "offset": 0,
        "slot": "152",
        "type": "t_mapping(t_address,t_mapping(t_address,t_uint256))"
      },
      {
        "astId": 3732,
        "contract": "contracts/src/ionic/strategies/IonicMarketERC4626.sol:IonicMarketERC4626",
        "label": "_totalSupply",
        "offset": 0,
        "slot": "153",
        "type": "t_uint256"
      },
      {
        "astId": 3734,
        "contract": "contracts/src/ionic/strategies/IonicMarketERC4626.sol:IonicMarketERC4626",
        "label": "_name",
        "offset": 0,
        "slot": "154",
        "type": "t_string_storage"
      },
      {
        "astId": 3736,
        "contract": "contracts/src/ionic/strategies/IonicMarketERC4626.sol:IonicMarketERC4626",
        "label": "_symbol",
        "offset": 0,
        "slot": "155",
        "type": "t_string_storage"
      },
      {
        "astId": 4316,
        "contract": "contracts/src/ionic/strategies/IonicMarketERC4626.sol:IonicMarketERC4626",
        "label": "__gap",
        "offset": 0,
        "slot": "156",
        "type": "t_array(t_uint256)45_storage"
      },
      {
        "astId": 4415,
        "contract": "contracts/src/ionic/strategies/IonicMarketERC4626.sol:IonicMarketERC4626",
        "label": "_asset",
        "offset": 0,
        "slot": "201",
        "type": "t_contract(IERC20Upgradeable)4395"
      },
      {
        "astId": 4417,
        "contract": "contracts/src/ionic/strategies/IonicMarketERC4626.sol:IonicMarketERC4626",
        "label": "_decimals",
        "offset": 20,
        "slot": "201",
        "type": "t_uint8"
      },
      {
        "astId": 5099,
        "contract": "contracts/src/ionic/strategies/IonicMarketERC4626.sol:IonicMarketERC4626",
        "label": "__gap",
        "offset": 0,
        "slot": "202",
        "type": "t_array(t_uint256)49_storage"
      },
      {
        "astId": 60776,
        "contract": "contracts/src/ionic/strategies/IonicMarketERC4626.sol:IonicMarketERC4626",
        "label": "vaultShareHWM",
        "offset": 0,
        "slot": "251",
        "type": "t_uint256"
      },
      {
        "astId": 60778,
        "contract": "contracts/src/ionic/strategies/IonicMarketERC4626.sol:IonicMarketERC4626",
        "label": "performanceFee",
        "offset": 0,
        "slot": "252",
        "type": "t_uint256"
      },
      {
        "astId": 60780,
        "contract": "contracts/src/ionic/strategies/IonicMarketERC4626.sol:IonicMarketERC4626",
        "label": "feeRecipient",
        "offset": 0,
        "slot": "253",
        "type": "t_address"
      },
      {
        "astId": 61454,
        "contract": "contracts/src/ionic/strategies/IonicMarketERC4626.sol:IonicMarketERC4626",
        "label": "rewardsRecipient",
        "offset": 0,
        "slot": "254",
        "type": "t_address"
      },
      {
        "astId": 61457,
        "contract": "contracts/src/ionic/strategies/IonicMarketERC4626.sol:IonicMarketERC4626",
        "label": "flywheelLensRouter",
        "offset": 0,
        "slot": "255",
        "type": "t_contract(IonicFlywheelLensRouter_4626)61441"
      },
      {
        "astId": 61460,
        "contract": "contracts/src/ionic/strategies/IonicMarketERC4626.sol:IonicMarketERC4626",
        "label": "cToken",
        "offset": 0,
        "slot": "256",
        "type": "t_contract(ICErc20)32392"
      }
    ],
    "types": {
      "t_address": {
        "encoding": "inplace",
        "label": "address",
        "numberOfBytes": "20"
      },
      "t_array(t_uint256)45_storage": {
        "base": "t_uint256",
        "encoding": "inplace",
        "label": "uint256[45]",
        "numberOfBytes": "1440"
      },
      "t_array(t_uint256)49_storage": {
        "base": "t_uint256",
        "encoding": "inplace",
        "label": "uint256[49]",
        "numberOfBytes": "1568"
      },
      "t_array(t_uint256)50_storage": {
        "base": "t_uint256",
        "encoding": "inplace",
        "label": "uint256[50]",
        "numberOfBytes": "1600"
      },
      "t_bool": {
        "encoding": "inplace",
        "label": "bool",
        "numberOfBytes": "1"
      },
      "t_contract(ICErc20)32392": {
        "encoding": "inplace",
        "label": "contract ICErc20",
        "numberOfBytes": "20"
      },
      "t_contract(IERC20Upgradeable)4395": {
        "encoding": "inplace",
        "label": "contract IERC20Upgradeable",
        "numberOfBytes": "20"
      },
      "t_contract(IonicFlywheelLensRouter_4626)61441": {
        "encoding": "inplace",
        "label": "contract IonicFlywheelLensRouter_4626",
        "numberOfBytes": "20"
      },
      "t_mapping(t_address,t_mapping(t_address,t_uint256))": {
        "encoding": "mapping",
        "key": "t_address",
        "label": "mapping(address => mapping(address => uint256))",
        "numberOfBytes": "32",
        "value": "t_mapping(t_address,t_uint256)"
      },
      "t_mapping(t_address,t_uint256)": {
        "encoding": "mapping",
        "key": "t_address",
        "label": "mapping(address => uint256)",
        "numberOfBytes": "32",
        "value": "t_uint256"
      },
      "t_string_storage": {
        "encoding": "bytes",
        "label": "string",
        "numberOfBytes": "32"
      },
      "t_uint256": {
        "encoding": "inplace",
        "label": "uint256",
        "numberOfBytes": "32"
      },
      "t_uint8": {
        "encoding": "inplace",
        "label": "uint8",
        "numberOfBytes": "1"
      }
    }
  }
}