{
  "address": "0xE19815995BeAe56278CF2C99d5fFe0A37127f144",
  "abi": [
    {
      "anonymous": false,
      "inputs": [
        {
          "indexed": true,
          "internalType": "address",
          "name": "previousOwner",
          "type": "address"
        },
        {
          "indexed": true,
          "internalType": "address",
          "name": "newOwner",
          "type": "address"
        }
      ],
      "name": "OwnershipTransferStarted",
      "type": "event"
    },
    {
      "anonymous": false,
      "inputs": [
        {
          "indexed": true,
          "internalType": "address",
          "name": "previousOwner",
          "type": "address"
        },
        {
          "indexed": true,
          "internalType": "address",
          "name": "newOwner",
          "type": "address"
        }
      ],
      "name": "OwnershipTransferred",
      "type": "event"
    },
    {
      "inputs": [],
      "name": "_getExtensionFunctions",
      "outputs": [
        {
          "internalType": "bytes4[]",
          "name": "",
          "type": "bytes4[]"
        }
      ],
      "stateMutability": "pure",
      "type": "function"
    },
    {
      "inputs": [
        {
          "internalType": "contract IRedemptionStrategy",
          "name": "strategyToRemove",
          "type": "address"
        }
      ],
      "name": "_removeRedemptionStrategy",
      "outputs": [],
      "stateMutability": "nonpayable",
      "type": "function"
    },
    {
      "inputs": [
        {
          "internalType": "contract IRedemptionStrategy[]",
          "name": "strategies",
          "type": "address[]"
        },
        {
          "internalType": "contract IERC20Upgradeable[]",
          "name": "inputTokens",
          "type": "address[]"
        },
        {
          "internalType": "contract IERC20Upgradeable[]",
          "name": "outputTokens",
          "type": "address[]"
        }
      ],
      "name": "_resetRedemptionStrategies",
      "outputs": [],
      "stateMutability": "nonpayable",
      "type": "function"
    },
    {
      "inputs": [
        {
          "internalType": "contract IERC20Upgradeable",
          "name": "inputToken",
          "type": "address"
        },
        {
          "internalType": "contract IERC20Upgradeable",
          "name": "outputToken",
          "type": "address"
        }
      ],
      "name": "_setDefaultOutputToken",
      "outputs": [],
      "stateMutability": "nonpayable",
      "type": "function"
    },
    {
      "inputs": [
        {
          "internalType": "contract IRedemptionStrategy[]",
          "name": "strategies",
          "type": "address[]"
        },
        {
          "internalType": "contract IERC20Upgradeable[]",
          "name": "inputTokens",
          "type": "address[]"
        },
        {
          "internalType": "contract IERC20Upgradeable[]",
          "name": "outputTokens",
          "type": "address[]"
        }
      ],
      "name": "_setRedemptionStrategies",
      "outputs": [],
      "stateMutability": "nonpayable",
      "type": "function"
    },
    {
      "inputs": [
        {
          "internalType": "contract IRedemptionStrategy",
          "name": "strategy",
          "type": "address"
        },
        {
          "internalType": "contract IERC20Upgradeable",
          "name": "inputToken",
          "type": "address"
        },
        {
          "internalType": "contract IERC20Upgradeable",
          "name": "outputToken",
          "type": "address"
        }
      ],
      "name": "_setRedemptionStrategy",
      "outputs": [],
      "stateMutability": "nonpayable",
      "type": "function"
    },
    {
      "inputs": [
        {
          "internalType": "contract IERC20Upgradeable[]",
          "name": "inputTokens",
          "type": "address[]"
        },
        {
          "internalType": "contract IERC20Upgradeable[]",
          "name": "outputTokens",
          "type": "address[]"
        },
        {
          "internalType": "uint256[]",
          "name": "slippages",
          "type": "uint256[]"
        }
      ],
      "name": "_setSlippages",
      "outputs": [],
      "stateMutability": "nonpayable",
      "type": "function"
    },
    {
      "inputs": [
        {
          "internalType": "contract IERC20Upgradeable[]",
          "name": "inputTokens",
          "type": "address[]"
        },
        {
          "internalType": "contract IERC20Upgradeable[]",
          "name": "outputTokens",
          "type": "address[]"
        },
        {
          "internalType": "uint24[]",
          "name": "fees",
          "type": "uint24[]"
        }
      ],
      "name": "_setUniswapV3Fees",
      "outputs": [],
      "stateMutability": "nonpayable",
      "type": "function"
    },
    {
      "inputs": [
        {
          "internalType": "contract IERC20Upgradeable[]",
          "name": "inputTokens",
          "type": "address[]"
        },
        {
          "internalType": "contract IERC20Upgradeable[]",
          "name": "outputTokens",
          "type": "address[]"
        },
        {
          "internalType": "address[]",
          "name": "routers",
          "type": "address[]"
        }
      ],
      "name": "_setUniswapV3Routers",
      "outputs": [],
      "stateMutability": "nonpayable",
      "type": "function"
    },
    {
      "inputs": [],
      "name": "acceptOwnership",
      "outputs": [],
      "stateMutability": "nonpayable",
      "type": "function"
    },
    {
      "inputs": [],
      "name": "ap",
      "outputs": [
        {
          "internalType": "contract AddressesProvider",
          "name": "",
          "type": "address"
        }
      ],
      "stateMutability": "view",
      "type": "function"
    },
    {
      "inputs": [
        {
          "internalType": "contract IERC20Upgradeable",
          "name": "",
          "type": "address"
        },
        {
          "internalType": "contract IERC20Upgradeable",
          "name": "",
          "type": "address"
        }
      ],
      "name": "customUniV3Router",
      "outputs": [
        {
          "internalType": "address",
          "name": "",
          "type": "address"
        }
      ],
      "stateMutability": "view",
      "type": "function"
    },
    {
      "inputs": [
        {
          "internalType": "contract IERC20Upgradeable",
          "name": "",
          "type": "address"
        }
      ],
      "name": "defaultOutputToken",
      "outputs": [
        {
          "internalType": "contract IERC20Upgradeable",
          "name": "",
          "type": "address"
        }
      ],
      "stateMutability": "view",
      "type": "function"
    },
    {
      "inputs": [],
      "name": "getAllPairsStrategies",
      "outputs": [
        {
          "internalType": "contract IRedemptionStrategy[]",
          "name": "strategies",
          "type": "address[]"
        },
        {
          "internalType": "contract IERC20Upgradeable[]",
          "name": "inputTokens",
          "type": "address[]"
        },
        {
          "internalType": "contract IERC20Upgradeable[]",
          "name": "outputTokens",
          "type": "address[]"
        }
      ],
      "stateMutability": "view",
      "type": "function"
    },
    {
      "inputs": [],
      "name": "owner",
      "outputs": [
        {
          "internalType": "address",
          "name": "",
          "type": "address"
        }
      ],
      "stateMutability": "view",
      "type": "function"
    },
    {
      "inputs": [
        {
          "internalType": "contract IRedemptionStrategy[]",
          "name": "configStrategies",
          "type": "address[]"
        },
        {
          "internalType": "contract IERC20Upgradeable[]",
          "name": "configInputTokens",
          "type": "address[]"
        },
        {
          "internalType": "contract IERC20Upgradeable[]",
          "name": "configOutputTokens",
          "type": "address[]"
        }
      ],
      "name": "pairsStrategiesMatch",
      "outputs": [
        {
          "internalType": "bool",
          "name": "",
          "type": "bool"
        }
      ],
      "stateMutability": "view",
      "type": "function"
    },
    {
      "inputs": [],
      "name": "pendingOwner",
      "outputs": [
        {
          "internalType": "address",
          "name": "",
          "type": "address"
        }
      ],
      "stateMutability": "view",
      "type": "function"
    },
    {
      "inputs": [
        {
          "internalType": "string",
          "name": "",
          "type": "string"
        }
      ],
      "name": "redemptionStrategiesByName",
      "outputs": [
        {
          "internalType": "contract IRedemptionStrategy",
          "name": "",
          "type": "address"
        }
      ],
      "stateMutability": "view",
      "type": "function"
    },
    {
      "inputs": [
        {
          "internalType": "contract IERC20Upgradeable",
          "name": "",
          "type": "address"
        },
        {
          "internalType": "contract IERC20Upgradeable",
          "name": "",
          "type": "address"
        }
      ],
      "name": "redemptionStrategiesByTokens",
      "outputs": [
        {
          "internalType": "contract IRedemptionStrategy",
          "name": "",
          "type": "address"
        }
      ],
      "stateMutability": "view",
      "type": "function"
    },
    {
      "inputs": [],
      "name": "renounceOwnership",
      "outputs": [],
      "stateMutability": "nonpayable",
      "type": "function"
    },
    {
      "inputs": [
        {
          "internalType": "address",
          "name": "newOwner",
          "type": "address"
        }
      ],
      "name": "transferOwnership",
      "outputs": [],
      "stateMutability": "nonpayable",
      "type": "function"
    },
    {
      "inputs": [
        {
          "internalType": "contract IERC20Upgradeable[]",
          "name": "configInputTokens",
          "type": "address[]"
        },
        {
          "internalType": "contract IERC20Upgradeable[]",
          "name": "configOutputTokens",
          "type": "address[]"
        },
        {
          "internalType": "uint256[]",
          "name": "configFees",
          "type": "uint256[]"
        }
      ],
      "name": "uniswapPairsFeesMatch",
      "outputs": [
        {
          "internalType": "bool",
          "name": "",
          "type": "bool"
        }
      ],
      "stateMutability": "view",
      "type": "function"
    },
    {
      "inputs": [
        {
          "internalType": "contract IERC20Upgradeable[]",
          "name": "configInputTokens",
          "type": "address[]"
        },
        {
          "internalType": "contract IERC20Upgradeable[]",
          "name": "configOutputTokens",
          "type": "address[]"
        },
        {
          "internalType": "address[]",
          "name": "configRouters",
          "type": "address[]"
        }
      ],
      "name": "uniswapPairsRoutersMatch",
      "outputs": [
        {
          "internalType": "bool",
          "name": "",
          "type": "bool"
        }
      ],
      "stateMutability": "view",
      "type": "function"
    },
    {
      "inputs": [
        {
          "internalType": "contract IERC20Upgradeable",
          "name": "",
          "type": "address"
        },
        {
          "internalType": "contract IERC20Upgradeable",
          "name": "",
          "type": "address"
        }
      ],
      "name": "uniswapV3Fees",
      "outputs": [
        {
          "internalType": "uint24",
          "name": "",
          "type": "uint24"
        }
      ],
      "stateMutability": "view",
      "type": "function"
    }
  ],
  "transactionHash": "0xfa06ac77ed9631b8571a55829f31050aa339f5649dadce1eceaa56e90675e398",
  "args": [],
  "numDeployments": 2,
  "solcInputHash": "0f216c69ca7d69b5e67c1cffac004e22",
  "bytecode": "0x608060405234801561001057600080fd5b5061001a3361001f565b61008b565b600180546001600160a01b03191690556100388161003b565b50565b600080546001600160a01b038381166001600160a01b0319831681178455604051919092169283917f8be0079c531659141344cd1fd0a4f28419497f9722a3daafe3b4186f6b6457e09190a35050565b6123d9806200009b6000396000f3fe608060405234801561001057600080fd5b50600436106101585760003560e01c80638da5cb5b116100c3578063d7341acf1161007c578063d7341acf1461035d578063dee7fe4814610370578063e187a7dd146103a4578063e30c3978146103b7578063eb29d9f8146103c8578063f2fde38b146103db57600080fd5b80638da5cb5b146102955780638db87c27146102a6578063a1bb91e3146102cf578063a700f9e4146102e2578063aeabb62114610316578063c8ff6fee1461032957600080fd5b8063514b49d911610115578063514b49d9146102375780635495a6d71461024a578063715018a61461025d57806372c9889c1461026557806379ba50971461027857806389f8132e1461028057600080fd5b80630d856eef1461015d5780632434cb7f1461017d5780633322d87714610192578063366eda2e146101b5578063398cd955146101c85780633c4f743c1461020c575b600080fd5b6101656103ee565b60405161017493929190611ebf565b60405180910390f35b61019061018b366004611f40565b6106b9565b005b6101a56101a0366004611fc5565b6106ef565b6040519015158152602001610174565b6101906101c3366004611fc5565b6109c5565b6101f86101d6366004611f40565b600d60209081526000928352604080842090915290825290205462ffffff1681565b60405162ffffff9091168152602001610174565b60025461021f906001600160a01b031681565b6040516001600160a01b039091168152602001610174565b61019061024536600461205f565b610a94565b610190610258366004611fc5565b610d38565b610190610e24565b610190610273366004611fc5565b610e74565b610190610f85565b610288610fff565b604051610174919061207c565b6000546001600160a01b031661021f565b61021f6102b436600461205f565b6007602052600090815260409020546001600160a01b031681565b6101906102dd366004611fc5565b61138c565b61021f6102f0366004611f40565b60066020908152600092835260408084209091529082529020546001600160a01b031681565b6101a5610324366004611fc5565b6116e4565b61021f610337366004611f40565b600e6020908152600092835260408084209091529082529020546001600160a01b031681565b61019061036b3660046120ca565b6117d6565b61021f61037e366004612184565b80516020818301810180516005825292820191909301209152546001600160a01b031681565b6101906103b2366004611fc5565b611980565b6001546001600160a01b031661021f565b6101a56103d6366004611fc5565b611a8f565b6101906103e936600461205f565b611b5e565b606080606060006103ff6009611bcf565b90506000805b825181101561047657600083828151811061042257610422612204565b60200260200101519050600061045b60086000846001600160a01b03166001600160a01b03168152602001908152602001600020611bcf565b905080518461046a9190612230565b93505050600101610405565b508067ffffffffffffffff81111561049057610490612115565b6040519080825280602002602001820160405280156104b9578160200160208202803683370190505b5094508067ffffffffffffffff8111156104d5576104d5612115565b6040519080825280602002602001820160405280156104fe578160200160208202803683370190505b5093508067ffffffffffffffff81111561051a5761051a612115565b604051908082528060200260200182016040528015610543578160200160208202803683370190505b5092506000905060005b82518110156106b157600083828151811061056a5761056a612204565b6020026020010151905060006105a360086000846001600160a01b03166001600160a01b03168152602001908152602001600020611bcf565b905060005b81518110156106a65760008282815181106105c5576105c5612204565b6020908102919091018101516001600160a01b038082166000908152600684526040808220898416835290945292909220548c51919350909116908b908890811061061257610612612204565b60200260200101906001600160a01b031690816001600160a01b0316815250508089878151811061064557610645612204565b60200260200101906001600160a01b031690816001600160a01b0316815250508388878151811061067857610678612204565b6001600160a01b03909216602092830291909101909101528561069a81612243565b965050506001016105a8565b50505060010161054d565b505050909192565b6106c1611be3565b6001600160a01b03918216600090815260076020526040902080546001600160a01b03191691909216179055565b6000806000806106fd6103ee565b92509250925060005b8981101561085a576000805b855181101561083d578c8c8481811061072d5761072d612204565b9050602002016020810190610742919061205f565b6001600160a01b031686828151811061075d5761075d612204565b60200260200101516001600160a01b03161480156107cb57508a8a8481811061078857610788612204565b905060200201602081019061079d919061205f565b6001600160a01b03168582815181106107b8576107b8612204565b60200260200101516001600160a01b0316145b801561082757508888848181106107e4576107e4612204565b90506020020160208101906107f9919061205f565b6001600160a01b031684828151811061081457610814612204565b60200260200101516001600160a01b0316145b15610835576001915061083d565b600101610712565b5080610851576000955050505050506109bb565b50600101610706565b5060005b83518110156109b2576000805b8b811015610995578c8c8281811061088557610885612204565b905060200201602081019061089a919061205f565b6001600160a01b03168684815181106108b5576108b5612204565b60200260200101516001600160a01b031614801561092357508a8a828181106108e0576108e0612204565b90506020020160208101906108f5919061205f565b6001600160a01b031685848151811061091057610910612204565b60200260200101516001600160a01b0316145b801561097f575088888281811061093c5761093c612204565b9050602002016020810190610951919061205f565b6001600160a01b031684848151811061096c5761096c612204565b60200260200101516001600160a01b0316145b1561098d5760019150610995565b60010161086b565b50806109a9576000955050505050506109bb565b5060010161085e565b50600193505050505b9695505050505050565b6109cd611be3565b84831480156109db57508281145b610a005760405162461bcd60e51b81526004016109f79061225c565b60405180910390fd5b60005b85811015610a8b57610a83878783818110610a2057610a20612204565b9050602002016020810190610a35919061205f565b868684818110610a4757610a47612204565b9050602002016020810190610a5c919061205f565b858585818110610a6e57610a6e612204565b905060200201602081019061036b919061205f565b600101610a03565b50505050505050565b610a9c611be3565b6000610aa86009611bcf565b905060005b8151811015610c81576000828281518110610aca57610aca612204565b602002602001015190506000610b0360086000846001600160a01b03166001600160a01b03168152602001908152602001600020611bcf565b905060005b8151811015610c41576000828281518110610b2557610b25612204565b6020908102919091018101516001600160a01b0380821660009081526006845260408082208984168352909452929092205490925081169088168103610c37576001600160a01b03808316600090815260066020908152604080832093891683529290522080546001600160a01b03191690558351610beb90859085908110610bb057610bb0612204565b602002602001015160086000886001600160a01b03166001600160a01b03168152602001908152602001600020611c3f90919063ffffffff16565b506001600160a01b03828116600090815260076020526040902054818716911603610c37576001600160a01b038216600090815260076020526040902080546001600160a01b03191690555b5050600101610b08565b506001600160a01b0382166000908152600860205260409020610c6390611c54565b600003610c7757610c75600983611c3f565b505b5050600101610aad565b5060006005836001600160a01b03166306fdde036040518163ffffffff1660e01b8152600401600060405180830381865afa158015610cc4573d6000803e3d6000fd5b505050506040513d6000823e601f3d908101601f19168201604052610cec91908101906122a5565b604051610cf9919061231c565b90815260405190819003602001902080546001600160a01b03929092166001600160a01b0319909216919091179055610d33600383611c3f565b505050565b610d40611be3565b8085148015610d4e57508483145b610d6a5760405162461bcd60e51b81526004016109f79061225c565b60005b81811015610a8b57828282818110610d8757610d87612204565b90506020020135600b6000898985818110610da457610da4612204565b9050602002016020810190610db9919061205f565b6001600160a01b03166001600160a01b031681526020019081526020016000206000878785818110610ded57610ded612204565b9050602002016020810190610e02919061205f565b6001600160a01b03168152602081019190915260400160002055600101610d6d565b610e2c611be3565b60405162461bcd60e51b815260206004820152601e60248201527f72656e6f756e6365206f776e657273686970206e6f7420616c6c6f776564000060448201526064016109f7565b610e7c611be3565b8085148015610e8a57508483145b610ea65760405162461bcd60e51b81526004016109f79061225c565b60005b81811015610a8b57828282818110610ec357610ec3612204565b9050602002016020810190610ed8919061205f565b600e6000898985818110610eee57610eee612204565b9050602002016020810190610f03919061205f565b6001600160a01b03166001600160a01b031681526020019081526020016000206000878785818110610f3757610f37612204565b9050602002016020810190610f4c919061205f565b6001600160a01b039081168252602082019290925260400160002080546001600160a01b03191692909116919091179055600101610ea9565b60015433906001600160a01b03168114610ff35760405162461bcd60e51b815260206004820152602960248201527f4f776e61626c6532537465703a2063616c6c6572206973206e6f7420746865206044820152683732bb9037bbb732b960b91b60648201526084016109f7565b610ffc81611c5e565b50565b60408051600c8082526101a0820190925260609190600090826020820161018080368337019050509050630d856eef60e01b8161103b84612338565b93508360ff168151811061105157611051612204565b6001600160e01b031990921660209283029190910190910152633322d87760e01b8161107c84612338565b93508360ff168151811061109257611092612204565b6001600160e01b031990921660209283029190910190910152631d653b3f60e31b816110bd84612338565b93508360ff16815181106110d3576110d3612204565b6001600160e01b03199092166020928302919091019091015263aeabb62160e01b816110fe84612338565b93508360ff168151811061111457611114612204565b6001600160e01b031990921660209283029190910190910152635495a6d760e01b8161113f84612338565b93508360ff168151811061115557611155612204565b6001600160e01b03199092166020928302919091019091015263e187a7dd60e01b8161118084612338565b93508360ff168151811061119657611196612204565b6001600160e01b031990921660209283029190910190910152631cb2622760e21b816111c184612338565b93508360ff16815181106111d7576111d7612204565b6001600160e01b031990921660209283029190910190910152632434cb7f60e01b8161120284612338565b93508360ff168151811061121857611218612204565b6001600160e01b03199092166020928302919091019091015263d7341acf60e01b8161124384612338565b93508360ff168151811061125957611259612204565b6001600160e01b031990921660209283029190910190910152631b376d1760e11b8161128484612338565b93508360ff168151811061129a5761129a612204565b6001600160e01b03199092166020928302919091019091015263514b49d960e01b816112c584612338565b93508360ff16815181106112db576112db612204565b6001600160e01b03199092166020928302919091019091015263a1bb91e360e01b8161130684612338565b93508360ff168151811061131c5761131c612204565b6001600160e01b03199092166020928302919091019091015260ff8216156113865760405162461bcd60e51b815260206004820152601c60248201527f7573652074686520636f7272656374206172726179206c656e6774680000000060448201526064016109f7565b92915050565b611394611be3565b84831480156113a257508281145b6113be5760405162461bcd60e51b81526004016109f79061225c565b60006113ca6009611bcf565b905060005b81518110156115435760008282815181106113ec576113ec612204565b60200260200101519050600061142560086000846001600160a01b03166001600160a01b03168152602001908152602001600020611bcf565b905060005b815181101561150a57600082828151811061144757611447612204565b6020908102919091018101516001600160a01b03808216600090815260068452604080822092891682529190935290912080546001600160a01b031916905583519091506114dc908490849081106114a1576114a1612204565b602002602001015160086000876001600160a01b03166001600160a01b03168152602001908152602001600020611c3f90919063ffffffff16565b506001600160a01b0316600090815260076020526040902080546001600160a01b031916905560010161142a565b5061153884848151811061152057611520612204565b60200260200101516009611c3f90919063ffffffff16565b5050506001016113cf565b5060006115506003611bcf565b905060005b815181101561166257600082828151811061157257611572612204565b602002602001015190506000816001600160a01b03166306fdde036040518163ffffffff1660e01b8152600401600060405180830381865afa1580156115bc573d6000803e3d6000fd5b505050506040513d6000823e601f3d908101601f191682016040526115e491908101906122a5565b905060006005826040516115f8919061231c565b908152602001604051809103902060006101000a8154816001600160a01b0302191690836001600160a01b0316021790555061165784848151811061163f5761163f612204565b60200260200101516003611c3f90919063ffffffff16565b505050600101611555565b5060005b878110156116d9576116d189898381811061168357611683612204565b9050602002016020810190611698919061205f565b8888848181106116aa576116aa612204565b90506020020160208101906116bf919061205f565b878785818110610a6e57610a6e612204565b600101611666565b505050505050505050565b6000805b828110156117c85783838281811061170257611702612204565b9050602002016020810190611717919061205f565b6001600160a01b0316600e60008a8a8581811061173657611736612204565b905060200201602081019061174b919061205f565b6001600160a01b03166001600160a01b03168152602001908152602001600020600088888581811061177f5761177f612204565b9050602002016020810190611794919061205f565b6001600160a01b03908116825260208201929092526040016000205416146117c05760009150506109bb565b6001016116e8565b506001979650505050505050565b6117de611be3565b6000836001600160a01b03166306fdde036040518163ffffffff1660e01b8152600401600060405180830381865afa15801561181e573d6000803e3d6000fd5b505050506040513d6000823e601f3d908101601f1916820160405261184691908101906122a5565b9050600060058260405161185a919061231c565b9081526040805160209281900383018120546001600160a01b0388811660009081526006865284812089831682529095529290932080546001600160a01b0319168984161790559116915085906005906118b590859061231c565b90815260405190819003602001902080546001600160a01b03929092166001600160a01b03199092169190911790556118ef600382611c3f565b506118fb600386611c77565b506001600160a01b038481166000908152600760205260409020541661194a576001600160a01b03848116600090815260076020526040902080546001600160a01b0319169185169190911790555b6001600160a01b038316600090815260086020526040902061196c9085611c77565b50611978600984611c77565b505050505050565b611988611be3565b808514801561199657508483145b6119b25760405162461bcd60e51b81526004016109f79061225c565b60005b81811015610a8b578282828181106119cf576119cf612204565b90506020020160208101906119e49190612355565b600d60008989858181106119fa576119fa612204565b9050602002016020810190611a0f919061205f565b6001600160a01b03166001600160a01b031681526020019081526020016000206000878785818110611a4357611a43612204565b9050602002016020810190611a58919061205f565b6001600160a01b031681526020810191909152604001600020805462ffffff191662ffffff929092169190911790556001016119b5565b6000805b828110156117c857838382818110611aad57611aad612204565b90506020020135600d60008a8a85818110611aca57611aca612204565b9050602002016020810190611adf919061205f565b6001600160a01b03166001600160a01b031681526020019081526020016000206000888885818110611b1357611b13612204565b9050602002016020810190611b28919061205f565b6001600160a01b0316815260208101919091526040016000205462ffffff1614611b565760009150506109bb565b600101611a93565b611b66611be3565b600180546001600160a01b0383166001600160a01b03199091168117909155611b976000546001600160a01b031690565b6001600160a01b03167f38d16b8cac22d99fc7c124b9cd0de2d3fa1faef420bfe791d8c362d765e2270060405160405180910390a350565b60606000611bdc83611c8c565b9392505050565b6000546001600160a01b03163314611c3d5760405162461bcd60e51b815260206004820181905260248201527f4f776e61626c653a2063616c6c6572206973206e6f7420746865206f776e657260448201526064016109f7565b565b6000611bdc836001600160a01b038416611ce8565b6000611386825490565b600180546001600160a01b0319169055610ffc81611ddb565b6000611bdc836001600160a01b038416611e2b565b606081600001805480602002602001604051908101604052809291908181526020018280548015611cdc57602002820191906000526020600020905b815481526020019060010190808311611cc8575b50505050509050919050565b60008181526001830160205260408120548015611dd1576000611d0c60018361237a565b8554909150600090611d209060019061237a565b9050818114611d85576000866000018281548110611d4057611d40612204565b9060005260206000200154905080876000018481548110611d6357611d63612204565b6000918252602080832090910192909255918252600188019052604090208390555b8554869080611d9657611d9661238d565b600190038181906000526020600020016000905590558560010160008681526020019081526020016000206000905560019350505050611386565b6000915050611386565b600080546001600160a01b038381166001600160a01b0319831681178455604051919092169283917f8be0079c531659141344cd1fd0a4f28419497f9722a3daafe3b4186f6b6457e09190a35050565b6000818152600183016020526040812054611e7257508154600181810184556000848152602080822090930184905584548482528286019093526040902091909155611386565b506000611386565b60008151808452602080850194506020840160005b83811015611eb45781516001600160a01b031687529582019590820190600101611e8f565b509495945050505050565b606080825284519082018190526000906020906080840190828801845b82811015611f015781516001600160a01b031684529284019290840190600101611edc565b5050508381036020850152611f168187611e7a565b91505082810360408401526109bb8185611e7a565b6001600160a01b0381168114610ffc57600080fd5b60008060408385031215611f5357600080fd5b8235611f5e81611f2b565b91506020830135611f6e81611f2b565b809150509250929050565b60008083601f840112611f8b57600080fd5b50813567ffffffffffffffff811115611fa357600080fd5b6020830191508360208260051b8501011115611fbe57600080fd5b9250929050565b60008060008060008060608789031215611fde57600080fd5b863567ffffffffffffffff80821115611ff657600080fd5b6120028a838b01611f79565b9098509650602089013591508082111561201b57600080fd5b6120278a838b01611f79565b9096509450604089013591508082111561204057600080fd5b5061204d89828a01611f79565b979a9699509497509295939492505050565b60006020828403121561207157600080fd5b8135611bdc81611f2b565b6020808252825182820181905260009190848201906040850190845b818110156120be5783516001600160e01b03191683529284019291840191600101612098565b50909695505050505050565b6000806000606084860312156120df57600080fd5b83356120ea81611f2b565b925060208401356120fa81611f2b565b9150604084013561210a81611f2b565b809150509250925092565b634e487b7160e01b600052604160045260246000fd5b604051601f8201601f1916810167ffffffffffffffff8111828210171561215457612154612115565b604052919050565b600067ffffffffffffffff82111561217657612176612115565b50601f01601f191660200190565b60006020828403121561219657600080fd5b813567ffffffffffffffff8111156121ad57600080fd5b8201601f810184136121be57600080fd5b80356121d16121cc8261215c565b61212b565b8181528560208385010111156121e657600080fd5b81602084016020830137600091810160200191909152949350505050565b634e487b7160e01b600052603260045260246000fd5b634e487b7160e01b600052601160045260246000fd5b808201808211156113865761138661221a565b6000600182016122555761225561221a565b5060010190565b6020808252600b908201526a10b0b93930bcb9903632b760a91b604082015260600190565b60005b8381101561229c578181015183820152602001612284565b50506000910152565b6000602082840312156122b757600080fd5b815167ffffffffffffffff8111156122ce57600080fd5b8201601f810184136122df57600080fd5b80516122ed6121cc8261215c565b81815285602083850101111561230257600080fd5b612313826020830160208601612281565b95945050505050565b6000825161232e818460208701612281565b9190910192915050565b600060ff82168061234b5761234b61221a565b6000190192915050565b60006020828403121561236757600080fd5b813562ffffff81168114611bdc57600080fd5b818103818111156113865761138661221a565b634e487b7160e01b600052603160045260246000fdfea26469706673582212209e8f4189fc0faef94878d702b434e834a0f9612c0fb14d716c70469302c063d864736f6c63430008160033",
  "devdoc": {
    "kind": "dev",
    "methods": {
      "_getExtensionFunctions()": {
        "returns": {
          "_0": "a list of all the function selectors that this logic extension exposes"
        }
      },
      "acceptOwnership()": {
        "details": "The new owner accepts the ownership transfer."
      },
      "owner()": {
        "details": "Returns the address of the current owner."
      },
      "pendingOwner()": {
        "details": "Returns the address of the pending owner."
      },
      "renounceOwnership()": {
        "details": "Leaves the contract without owner. It will not be possible to call `onlyOwner` functions anymore. Can only be called by the current owner. NOTE: Renouncing ownership will leave the contract without an owner, thereby removing any functionality that is only available to the owner."
      },
      "transferOwnership(address)": {
        "details": "Starts the ownership transfer of the contract to a new account. Replaces the pending transfer if there is one. Can only be called by the current owner."
      }
    },
    "version": 1
  },
  "userdoc": {
    "kind": "user",
    "methods": {},
    "version": 1
  },
  "storageLayout": {
    "storage": [
      {
        "astId": 1326,
        "contract": "contracts/liquidators/registry/LiquidatorsRegistrySecondExtension.sol:LiquidatorsRegistrySecondExtension",
        "label": "_owner",
        "offset": 0,
        "slot": "0",
        "type": "t_address"
      },
      {
        "astId": 1439,
        "contract": "contracts/liquidators/registry/LiquidatorsRegistrySecondExtension.sol:LiquidatorsRegistrySecondExtension",
        "label": "_pendingOwner",
        "offset": 0,
        "slot": "1",
        "type": "t_address"
      },
      {
        "astId": 71598,
        "contract": "contracts/liquidators/registry/LiquidatorsRegistrySecondExtension.sol:LiquidatorsRegistrySecondExtension",
        "label": "ap",
        "offset": 0,
        "slot": "2",
        "type": "t_contract(AddressesProvider)45887"
      },
      {
        "astId": 71601,
        "contract": "contracts/liquidators/registry/LiquidatorsRegistrySecondExtension.sol:LiquidatorsRegistrySecondExtension",
        "label": "redemptionStrategies",
        "offset": 0,
        "slot": "3",
        "type": "t_struct(AddressSet)4223_storage"
      },
      {
        "astId": 71606,
        "contract": "contracts/liquidators/registry/LiquidatorsRegistrySecondExtension.sol:LiquidatorsRegistrySecondExtension",
        "label": "redemptionStrategiesByName",
        "offset": 0,
        "slot": "5",
        "type": "t_mapping(t_string_memory_ptr,t_contract(IRedemptionStrategy)62551)"
      },
      {
        "astId": 71615,
        "contract": "contracts/liquidators/registry/LiquidatorsRegistrySecondExtension.sol:LiquidatorsRegistrySecondExtension",
        "label": "redemptionStrategiesByTokens",
        "offset": 0,
        "slot": "6",
        "type": "t_mapping(t_contract(IERC20Upgradeable)177180,t_mapping(t_contract(IERC20Upgradeable)177180,t_contract(IRedemptionStrategy)62551))"
      },
      {
        "astId": 71621,
        "contract": "contracts/liquidators/registry/LiquidatorsRegistrySecondExtension.sol:LiquidatorsRegistrySecondExtension",
        "label": "defaultOutputToken",
        "offset": 0,
        "slot": "7",
        "type": "t_mapping(t_contract(IERC20Upgradeable)177180,t_contract(IERC20Upgradeable)177180)"
      },
      {
        "astId": 71627,
        "contract": "contracts/liquidators/registry/LiquidatorsRegistrySecondExtension.sol:LiquidatorsRegistrySecondExtension",
        "label": "inputTokensByOutputToken",
        "offset": 0,
        "slot": "8",
        "type": "t_mapping(t_contract(IERC20Upgradeable)177180,t_struct(AddressSet)4223_storage)"
      },
      {
        "astId": 71630,
        "contract": "contracts/liquidators/registry/LiquidatorsRegistrySecondExtension.sol:LiquidatorsRegistrySecondExtension",
        "label": "outputTokensSet",
        "offset": 0,
        "slot": "9",
        "type": "t_struct(AddressSet)4223_storage"
      },
      {
        "astId": 71638,
        "contract": "contracts/liquidators/registry/LiquidatorsRegistrySecondExtension.sol:LiquidatorsRegistrySecondExtension",
        "label": "conversionSlippage",
        "offset": 0,
        "slot": "11",
        "type": "t_mapping(t_contract(IERC20Upgradeable)177180,t_mapping(t_contract(IERC20Upgradeable)177180,t_uint256))"
      },
      {
        "astId": 71646,
        "contract": "contracts/liquidators/registry/LiquidatorsRegistrySecondExtension.sol:LiquidatorsRegistrySecondExtension",
        "label": "conversionSlippageUpdated",
        "offset": 0,
        "slot": "12",
        "type": "t_mapping(t_contract(IERC20Upgradeable)177180,t_mapping(t_contract(IERC20Upgradeable)177180,t_uint256))"
      },
      {
        "astId": 71654,
        "contract": "contracts/liquidators/registry/LiquidatorsRegistrySecondExtension.sol:LiquidatorsRegistrySecondExtension",
        "label": "uniswapV3Fees",
        "offset": 0,
        "slot": "13",
        "type": "t_mapping(t_contract(IERC20Upgradeable)177180,t_mapping(t_contract(IERC20Upgradeable)177180,t_uint24))"
      },
      {
        "astId": 71662,
        "contract": "contracts/liquidators/registry/LiquidatorsRegistrySecondExtension.sol:LiquidatorsRegistrySecondExtension",
        "label": "customUniV3Router",
        "offset": 0,
        "slot": "14",
        "type": "t_mapping(t_contract(IERC20Upgradeable)177180,t_mapping(t_contract(IERC20Upgradeable)177180,t_address))"
      }
    ],
    "types": {
      "t_address": {
        "encoding": "inplace",
        "label": "address",
        "numberOfBytes": "20"
      },
      "t_array(t_bytes32)dyn_storage": {
        "base": "t_bytes32",
        "encoding": "dynamic_array",
        "label": "bytes32[]",
        "numberOfBytes": "32"
      },
      "t_bytes32": {
        "encoding": "inplace",
        "label": "bytes32",
        "numberOfBytes": "32"
      },
      "t_contract(AddressesProvider)45887": {
        "encoding": "inplace",
        "label": "contract AddressesProvider",
        "numberOfBytes": "20"
      },
      "t_contract(IERC20Upgradeable)177180": {
        "encoding": "inplace",
        "label": "contract IERC20Upgradeable",
        "numberOfBytes": "20"
      },
      "t_contract(IRedemptionStrategy)62551": {
        "encoding": "inplace",
        "label": "contract IRedemptionStrategy",
        "numberOfBytes": "20"
      },
      "t_mapping(t_bytes32,t_uint256)": {
        "encoding": "mapping",
        "key": "t_bytes32",
        "label": "mapping(bytes32 => uint256)",
        "numberOfBytes": "32",
        "value": "t_uint256"
      },
      "t_mapping(t_contract(IERC20Upgradeable)177180,t_address)": {
        "encoding": "mapping",
        "key": "t_contract(IERC20Upgradeable)177180",
        "label": "mapping(contract IERC20Upgradeable => address)",
        "numberOfBytes": "32",
        "value": "t_address"
      },
      "t_mapping(t_contract(IERC20Upgradeable)177180,t_contract(IERC20Upgradeable)177180)": {
        "encoding": "mapping",
        "key": "t_contract(IERC20Upgradeable)177180",
        "label": "mapping(contract IERC20Upgradeable => contract IERC20Upgradeable)",
        "numberOfBytes": "32",
        "value": "t_contract(IERC20Upgradeable)177180"
      },
      "t_mapping(t_contract(IERC20Upgradeable)177180,t_contract(IRedemptionStrategy)62551)": {
        "encoding": "mapping",
        "key": "t_contract(IERC20Upgradeable)177180",
        "label": "mapping(contract IERC20Upgradeable => contract IRedemptionStrategy)",
        "numberOfBytes": "32",
        "value": "t_contract(IRedemptionStrategy)62551"
      },
      "t_mapping(t_contract(IERC20Upgradeable)177180,t_mapping(t_contract(IERC20Upgradeable)177180,t_address))": {
        "encoding": "mapping",
        "key": "t_contract(IERC20Upgradeable)177180",
        "label": "mapping(contract IERC20Upgradeable => mapping(contract IERC20Upgradeable => address))",
        "numberOfBytes": "32",
        "value": "t_mapping(t_contract(IERC20Upgradeable)177180,t_address)"
      },
      "t_mapping(t_contract(IERC20Upgradeable)177180,t_mapping(t_contract(IERC20Upgradeable)177180,t_contract(IRedemptionStrategy)62551))": {
        "encoding": "mapping",
        "key": "t_contract(IERC20Upgradeable)177180",
        "label": "mapping(contract IERC20Upgradeable => mapping(contract IERC20Upgradeable => contract IRedemptionStrategy))",
        "numberOfBytes": "32",
        "value": "t_mapping(t_contract(IERC20Upgradeable)177180,t_contract(IRedemptionStrategy)62551)"
      },
      "t_mapping(t_contract(IERC20Upgradeable)177180,t_mapping(t_contract(IERC20Upgradeable)177180,t_uint24))": {
        "encoding": "mapping",
        "key": "t_contract(IERC20Upgradeable)177180",
        "label": "mapping(contract IERC20Upgradeable => mapping(contract IERC20Upgradeable => uint24))",
        "numberOfBytes": "32",
        "value": "t_mapping(t_contract(IERC20Upgradeable)177180,t_uint24)"
      },
      "t_mapping(t_contract(IERC20Upgradeable)177180,t_mapping(t_contract(IERC20Upgradeable)177180,t_uint256))": {
        "encoding": "mapping",
        "key": "t_contract(IERC20Upgradeable)177180",
        "label": "mapping(contract IERC20Upgradeable => mapping(contract IERC20Upgradeable => uint256))",
        "numberOfBytes": "32",
        "value": "t_mapping(t_contract(IERC20Upgradeable)177180,t_uint256)"
      },
      "t_mapping(t_contract(IERC20Upgradeable)177180,t_struct(AddressSet)4223_storage)": {
        "encoding": "mapping",
        "key": "t_contract(IERC20Upgradeable)177180",
        "label": "mapping(contract IERC20Upgradeable => struct EnumerableSet.AddressSet)",
        "numberOfBytes": "32",
        "value": "t_struct(AddressSet)4223_storage"
      },
      "t_mapping(t_contract(IERC20Upgradeable)177180,t_uint24)": {
        "encoding": "mapping",
        "key": "t_contract(IERC20Upgradeable)177180",
        "label": "mapping(contract IERC20Upgradeable => uint24)",
        "numberOfBytes": "32",
        "value": "t_uint24"
      },
      "t_mapping(t_contract(IERC20Upgradeable)177180,t_uint256)": {
        "encoding": "mapping",
        "key": "t_contract(IERC20Upgradeable)177180",
        "label": "mapping(contract IERC20Upgradeable => uint256)",
        "numberOfBytes": "32",
        "value": "t_uint256"
      },
      "t_mapping(t_string_memory_ptr,t_contract(IRedemptionStrategy)62551)": {
        "encoding": "mapping",
        "key": "t_string_memory_ptr",
        "label": "mapping(string => contract IRedemptionStrategy)",
        "numberOfBytes": "32",
        "value": "t_contract(IRedemptionStrategy)62551"
      },
      "t_string_memory_ptr": {
        "encoding": "bytes",
        "label": "string",
        "numberOfBytes": "32"
      },
      "t_struct(AddressSet)4223_storage": {
        "encoding": "inplace",
        "label": "struct EnumerableSet.AddressSet",
        "members": [
          {
            "astId": 4222,
            "contract": "contracts/liquidators/registry/LiquidatorsRegistrySecondExtension.sol:LiquidatorsRegistrySecondExtension",
            "label": "_inner",
            "offset": 0,
            "slot": "0",
            "type": "t_struct(Set)3908_storage"
          }
        ],
        "numberOfBytes": "64"
      },
      "t_struct(Set)3908_storage": {
        "encoding": "inplace",
        "label": "struct EnumerableSet.Set",
        "members": [
          {
            "astId": 3903,
            "contract": "contracts/liquidators/registry/LiquidatorsRegistrySecondExtension.sol:LiquidatorsRegistrySecondExtension",
            "label": "_values",
            "offset": 0,
            "slot": "0",
            "type": "t_array(t_bytes32)dyn_storage"
          },
          {
            "astId": 3907,
            "contract": "contracts/liquidators/registry/LiquidatorsRegistrySecondExtension.sol:LiquidatorsRegistrySecondExtension",
            "label": "_indexes",
            "offset": 0,
            "slot": "1",
            "type": "t_mapping(t_bytes32,t_uint256)"
          }
        ],
        "numberOfBytes": "64"
      },
      "t_uint24": {
        "encoding": "inplace",
        "label": "uint24",
        "numberOfBytes": "3"
      },
      "t_uint256": {
        "encoding": "inplace",
        "label": "uint256",
        "numberOfBytes": "32"
      }
    }
  }
}