{
  "address": "0xaAd5D9BeFD10Bb788ab23343C8fB662D7C6Ad61E",
  "abi": [
    {
      "inputs": [
        {
          "internalType": "contract IonicFlywheelCore",
          "name": "_flywheel",
          "type": "address"
        },
        {
          "internalType": "uint32",
          "name": "_cycleLength",
          "type": "uint32"
        }
      ],
      "stateMutability": "nonpayable",
      "type": "constructor"
    },
    {
      "inputs": [],
      "name": "FlywheelError",
      "type": "error"
    },
    {
      "anonymous": false,
      "inputs": [
        {
          "indexed": true,
          "internalType": "uint32",
          "name": "start",
          "type": "uint32"
        },
        {
          "indexed": true,
          "internalType": "uint32",
          "name": "end",
          "type": "uint32"
        },
        {
          "indexed": false,
          "internalType": "uint192",
          "name": "reward",
          "type": "uint192"
        }
      ],
      "name": "NewRewardsCycle",
      "type": "event"
    },
    {
      "inputs": [],
      "name": "flywheel",
      "outputs": [
        {
          "internalType": "contract IonicFlywheelCore",
          "name": "",
          "type": "address"
        }
      ],
      "stateMutability": "view",
      "type": "function"
    },
    {
      "inputs": [
        {
          "internalType": "contract ERC20",
          "name": "strategy",
          "type": "address"
        },
        {
          "internalType": "uint32",
          "name": "lastUpdatedTimestamp",
          "type": "uint32"
        }
      ],
      "name": "getAccruedRewards",
      "outputs": [
        {
          "internalType": "uint256",
          "name": "amount",
          "type": "uint256"
        }
      ],
      "stateMutability": "nonpayable",
      "type": "function"
    },
    {
      "inputs": [],
      "name": "rewardToken",
      "outputs": [
        {
          "internalType": "contract ERC20",
          "name": "",
          "type": "address"
        }
      ],
      "stateMutability": "view",
      "type": "function"
    },
    {
      "inputs": [
        {
          "internalType": "contract ERC20",
          "name": "",
          "type": "address"
        }
      ],
      "name": "rewardsCycle",
      "outputs": [
        {
          "internalType": "uint32",
          "name": "start",
          "type": "uint32"
        },
        {
          "internalType": "uint32",
          "name": "end",
          "type": "uint32"
        },
        {
          "internalType": "uint192",
          "name": "reward",
          "type": "uint192"
        }
      ],
      "stateMutability": "view",
      "type": "function"
    },
    {
      "inputs": [],
      "name": "rewardsCycleLength",
      "outputs": [
        {
          "internalType": "uint32",
          "name": "",
          "type": "uint32"
        }
      ],
      "stateMutability": "view",
      "type": "function"
    },
    {
      "inputs": [
        {
          "internalType": "uint256",
          "name": "amount",
          "type": "uint256"
        }
      ],
      "name": "withdraw",
      "outputs": [],
      "stateMutability": "nonpayable",
      "type": "function"
    }
  ],
  "transactionHash": "0x8c75e8e6d6f7d6df83a6900cb8520e7bb130d936c9ea891be15a33de57f15c1c",
  "args": [
    "0xf42dBd423970fd6735a7CE2d850aA85897C79eeE",
    2484000
  ],
  "numDeployments": 1,
  "solcInputHash": "496aebedb7b33904eb04631ee08f25f0",
  "bytecode": "0x60e060405234801561001057600080fd5b50604051610c69380380610c6983398101604081905261002f9161017c565b818181806001600160a01b031660a0816001600160a01b0316815250506000816001600160a01b031663f7c618c16040518163ffffffff1660e01b8152600401602060405180830381865afa15801561008c573d6000803e3d6000fd5b505050506040513d601f19601f820116820180604052508101906100b091906101bf565b6001600160a01b03811660808190529091506100cf90836000196100e3565b505063ffffffff1660c052506101e3915050565b600060405163095ea7b360e01b8152836004820152826024820152602060006044836000895af13d15601f3d116001600051141617169150508061015e5760405162461bcd60e51b815260206004820152600e60248201526d1054141493d59157d1905253115160921b604482015260640160405180910390fd5b50505050565b6001600160a01b038116811461017957600080fd5b50565b6000806040838503121561018f57600080fd5b825161019a81610164565b602084015190925063ffffffff811681146101b457600080fd5b809150509250929050565b6000602082840312156101d157600080fd5b81516101dc81610164565b9392505050565b60805160a05160c051610a28610241600039600081816081015261049801526000818160c2015281816101b701528181610259015261031a015260008181610122015281816102e3015281816106d601526107560152610a286000f3fe608060405234801561001057600080fd5b50600436106100625760003560e01c80632e1a7d4d146100675780636fcf5e5f1461007c5780637acf5b92146100bd578063b334db7b146100fc578063f7c618c11461011d578063faa6c3c814610144575b600080fd5b61007a61007536600461080e565b6101b5565b005b6100a37f000000000000000000000000000000000000000000000000000000000000000081565b60405163ffffffff90911681526020015b60405180910390f35b6100e47f000000000000000000000000000000000000000000000000000000000000000081565b6040516001600160a01b0390911681526020016100b4565b61010f61010a36600461083c565b61030d565b6040519081526020016100b4565b6100e47f000000000000000000000000000000000000000000000000000000000000000081565b61018961015236600461087e565b60006020819052908152604090205463ffffffff80821691640100000000810490911690600160401b90046001600160c01b031683565b6040805163ffffffff94851681529390921660208401526001600160c01b0316908201526060016100b4565b7f00000000000000000000000000000000000000000000000000000000000000006001600160a01b0316638da5cb5b6040518163ffffffff1660e01b8152600401602060405180830381865afa158015610213573d6000803e3d6000fd5b505050506040513d601f19601f8201168201806040525081019061023791906108a2565b6001600160a01b0316336001600160a01b03161461025457600080fd5b61030a7f00000000000000000000000000000000000000000000000000000000000000006001600160a01b0316638da5cb5b6040518163ffffffff1660e01b8152600401602060405180830381865afa1580156102b5573d6000803e3d6000fd5b505050506040513d601f19601f820116820180604052508101906102d991906108a2565b6001600160a01b037f0000000000000000000000000000000000000000000000000000000000000000169083610618565b50565b6000336001600160a01b037f000000000000000000000000000000000000000000000000000000000000000016146103585760405163739e221160e01b815260040160405180910390fd5b6001600160a01b0383166000908152602081815260408083208151606081018352905463ffffffff808216835264010000000082041693820193909352600160401b9092046001600160c01b031690820152906103b44261069b565b90506000826020015163ffffffff168263ffffffff1610156103d657816103dc565b82602001515b90506000836000015163ffffffff168663ffffffff1611156103fe5785610401565b83515b9050836020015163ffffffff1660001461047d578351602085015161042691906108d5565b63ffffffff1661043682846108d5565b63ffffffff16856040015161044b91906108f9565b6104559190610941565b6001600160c01b0316945083604001516001600160c01b031685111561047d5761047d610967565b836020015163ffffffff168363ffffffff161061060e5760007f0000000000000000000000000000000000000000000000000000000000000000806104c2818761097d565b6104cc919061099a565b6104d691906109b1565b905060006104e3896106b2565b905060405180606001604052808663ffffffff1681526020018363ffffffff168152602001826001600160c01b03168152506000808b6001600160a01b03166001600160a01b0316815260200190815260200160002060008201518160000160006101000a81548163ffffffff021916908363ffffffff16021790555060208201518160000160046101000a81548163ffffffff021916908363ffffffff16021790555060408201518160000160086101000a8154816001600160c01b0302191690836001600160c01b031602179055509050508163ffffffff168563ffffffff167f2bc72eed7f7ea7cb3bf6969b33e204748849532a1f8e4ca68ba1bc97c4cf2e008360405161060391906001600160c01b0391909116815260200190565b60405180910390a350505b5050505092915050565b600060405163a9059cbb60e01b8152836004820152826024820152602060006044836000895af13d15601f3d11600160005114161716915050806106955760405162461bcd60e51b815260206004820152600f60248201526e1514905394d1915497d19052531151608a1b60448201526064015b60405180910390fd5b50505050565b600064010000000082106106ae57600080fd5b5090565b6040516370a0823160e01b81526001600160a01b03828116600483015260009182917f000000000000000000000000000000000000000000000000000000000000000016906370a0823190602401602060405180830381865afa15801561071d573d6000803e3d6000fd5b505050506040513d601f19601f8201168201806040525081019061074191906109d9565b9050801561077e5761077e6001600160a01b037f000000000000000000000000000000000000000000000000000000000000000016843084610784565b92915050565b60006040516323b872dd60e01b81528460048201528360248201528260448201526020600060648360008a5af13d15601f3d11600160005114161716915050806108075760405162461bcd60e51b81526020600482015260146024820152731514905394d1915497d19493d357d1905253115160621b604482015260640161068c565b5050505050565b60006020828403121561082057600080fd5b5035919050565b6001600160a01b038116811461030a57600080fd5b6000806040838503121561084f57600080fd5b823561085a81610827565b9150602083013563ffffffff8116811461087357600080fd5b809150509250929050565b60006020828403121561089057600080fd5b813561089b81610827565b9392505050565b6000602082840312156108b457600080fd5b815161089b81610827565b634e487b7160e01b600052601160045260246000fd5b63ffffffff8281168282160390808211156108f2576108f26108bf565b5092915050565b6001600160c01b03828116828216818102831692918115828504821417610922576109226108bf565b50505092915050565b634e487b7160e01b600052601260045260246000fd5b60006001600160c01b038381168061095b5761095b61092b565b92169190910492915050565b634e487b7160e01b600052600160045260246000fd5b63ffffffff8181168382160190808211156108f2576108f26108bf565b600063ffffffff8084168061095b5761095b61092b565b63ffffffff8181168382160280821691908281146109d1576109d16108bf565b505092915050565b6000602082840312156109eb57600080fd5b505191905056fea2646970667358221220b97746edb2e795aa9345135379000069087a9cd8b19923d324daf68adfd2013f64736f6c63430008160033",
  "devdoc": {
    "kind": "dev",
    "methods": {
      "getAccruedRewards(address,uint32)": {
        "params": {
          "strategy": "the strategy to accrue rewards for"
        },
        "returns": {
          "amount": "the amount of tokens accrued and transferred"
        }
      }
    },
    "version": 1
  },
  "userdoc": {
    "errors": {
      "FlywheelError()": [
        {
          "notice": "thrown when caller is not the flywheel"
        }
      ]
    },
    "kind": "user",
    "methods": {
      "flywheel()": {
        "notice": "the flywheel core contract"
      },
      "getAccruedRewards(address,uint32)": {
        "notice": "calculate and transfer accrued rewards to flywheel core"
      },
      "rewardToken()": {
        "notice": "the reward token paid"
      },
      "rewardsCycleLength()": {
        "notice": "the length of a rewards cycle"
      }
    },
    "version": 1
  },
  "storageLayout": {
    "storage": [
      {
        "astId": 1158,
        "contract": "contracts/ionic/strategies/flywheel/rewards/WithdrawableIonicFlywheelDynamicRewards.sol:WithdrawableIonicFlywheelDynamicRewards",
        "label": "rewardsCycle",
        "offset": 0,
        "slot": "0",
        "type": "t_mapping(t_contract(ERC20)2453,t_struct(RewardsCycle)1152_storage)"
      }
    ],
    "types": {
      "t_contract(ERC20)2453": {
        "encoding": "inplace",
        "label": "contract ERC20",
        "numberOfBytes": "20"
      },
      "t_mapping(t_contract(ERC20)2453,t_struct(RewardsCycle)1152_storage)": {
        "encoding": "mapping",
        "key": "t_contract(ERC20)2453",
        "label": "mapping(contract ERC20 => struct FlywheelDynamicRewards.RewardsCycle)",
        "numberOfBytes": "32",
        "value": "t_struct(RewardsCycle)1152_storage"
      },
      "t_struct(RewardsCycle)1152_storage": {
        "encoding": "inplace",
        "label": "struct FlywheelDynamicRewards.RewardsCycle",
        "members": [
          {
            "astId": 1147,
            "contract": "contracts/ionic/strategies/flywheel/rewards/WithdrawableIonicFlywheelDynamicRewards.sol:WithdrawableIonicFlywheelDynamicRewards",
            "label": "start",
            "offset": 0,
            "slot": "0",
            "type": "t_uint32"
          },
          {
            "astId": 1149,
            "contract": "contracts/ionic/strategies/flywheel/rewards/WithdrawableIonicFlywheelDynamicRewards.sol:WithdrawableIonicFlywheelDynamicRewards",
            "label": "end",
            "offset": 4,
            "slot": "0",
            "type": "t_uint32"
          },
          {
            "astId": 1151,
            "contract": "contracts/ionic/strategies/flywheel/rewards/WithdrawableIonicFlywheelDynamicRewards.sol:WithdrawableIonicFlywheelDynamicRewards",
            "label": "reward",
            "offset": 8,
            "slot": "0",
            "type": "t_uint192"
          }
        ],
        "numberOfBytes": "32"
      },
      "t_uint192": {
        "encoding": "inplace",
        "label": "uint192",
        "numberOfBytes": "24"
      },
      "t_uint32": {
        "encoding": "inplace",
        "label": "uint32",
        "numberOfBytes": "4"
      }
    }
  }
}