{"abi":[{"type":"function","name":"_acceptOwner","inputs":[],"outputs":[],"stateMutability":"nonpayable"},{"type":"function","name":"_setPendingOwner","inputs":[{"name":"newPendingOwner","type":"address","internalType":"address"}],"outputs":[],"stateMutability":"nonpayable"},{"type":"function","name":"getUnderlyingPrice","inputs":[{"name":"cToken","type":"address","internalType":"contract ICErc20"}],"outputs":[{"name":"","type":"uint256","internalType":"uint256"}],"stateMutability":"view"},{"type":"function","name":"initialize","inputs":[],"outputs":[],"stateMutability":"nonpayable"},{"type":"function","name":"owner","inputs":[],"outputs":[{"name":"","type":"address","internalType":"address"}],"stateMutability":"view"},{"type":"function","name":"pendingOwner","inputs":[],"outputs":[{"name":"","type":"address","internalType":"address"}],"stateMutability":"view"},{"type":"function","name":"price","inputs":[{"name":"underlying","type":"address","internalType":"address"}],"outputs":[{"name":"","type":"uint256","internalType":"uint256"}],"stateMutability":"view"},{"type":"function","name":"renounceOwnership","inputs":[],"outputs":[],"stateMutability":"nonpayable"},{"type":"function","name":"transferOwnership","inputs":[{"name":"newOwner","type":"address","internalType":"address"}],"outputs":[],"stateMutability":"nonpayable"},{"type":"event","name":"Initialized","inputs":[{"name":"version","type":"uint8","indexed":false,"internalType":"uint8"}],"anonymous":false},{"type":"event","name":"NewOwner","inputs":[{"name":"oldOwner","type":"address","indexed":false,"internalType":"address"},{"name":"newOwner","type":"address","indexed":false,"internalType":"address"}],"anonymous":false},{"type":"event","name":"NewPendingOwner","inputs":[{"name":"oldPendingOwner","type":"address","indexed":false,"internalType":"address"},{"name":"newPendingOwner","type":"address","indexed":false,"internalType":"address"}],"anonymous":false},{"type":"event","name":"OwnershipTransferred","inputs":[{"name":"previousOwner","type":"address","indexed":true,"internalType":"address"},{"name":"newOwner","type":"address","indexed":true,"internalType":"address"}],"anonymous":false}],"bytecode":{"object":"0x608060405234801561001057600080fd5b50610b63806100206000396000f3fe608060405234801561001057600080fd5b50600436106100935760003560e01c8063aea9107811610066578063aea91078146100e7578063e30c397814610108578063f2fde38b1461011b578063fc4d33f91461012e578063fc57d4df1461013657600080fd5b80636e96dfd714610098578063715018a6146100ad5780638129fc1c146100b55780638da5cb5b146100bd575b600080fd5b6100ab6100a636600461093f565b610149565b005b6100ab6101b3565b6100ab6101fb565b6033546001600160a01b03165b6040516001600160a01b0390911681526020015b60405180910390f35b6100fa6100f536600461093f565b61030d565b6040519081526020016100de565b6065546100ca906001600160a01b031681565b6100ab61012936600461093f565b61031e565b6100ab61038f565b6100fa61014436600461093f565b6104a3565b6101516105a6565b606580546001600160a01b038381166001600160a01b031983168117909355604080519190921680825260208201939093527fb3d55174552271a4f1aaf36b72f50381e892171636b3fb5447fe00e995e7a37b91015b60405180910390a15050565b6101bb6105a6565b60405162461bcd60e51b815260206004820152601060248201526f6e6f74207573656420616e796d6f726560801b60448201526064015b60405180910390fd5b600054610100900460ff161580801561021b5750600054600160ff909116105b806102355750303b158015610235575060005460ff166001145b6102985760405162461bcd60e51b815260206004820152602e60248201527f496e697469616c697a61626c653a20636f6e747261637420697320616c72656160448201526d191e481a5b9a5d1a585b1a5e995960921b60648201526084016101f2565b6000805460ff1916600117905580156102bb576000805461ff0019166101001790555b6102c433610602565b801561030a576000805461ff0019169055604051600181527f7f26b83ff96e1f2b6a682f133852f6798a09c465da95921460cefb38474024989060200160405180910390a15b50565b60006103188261063a565b92915050565b6103266105a6565b606554604080516001600160a01b03928316815291831660208301527fb3d55174552271a4f1aaf36b72f50381e892171636b3fb5447fe00e995e7a37b910160405180910390a1606580546001600160a01b0319166001600160a01b0392909216919091179055565b6065546001600160a01b031633146103e15760405162461bcd60e51b81526020600482015260156024820152743737ba103a3432903832b73234b7339037bbb732b960591b60448201526064016101f2565b60006103f56033546001600160a01b031690565b6065549091506001600160a01b031661040d8161087e565b606580546001600160a01b0319169055604080516001600160a01b0384168152600060208201527f70aea8d848e8a90fb7661b227dc522eb6395c3dac71b63cb59edd5c9899b2364910160405180910390a1606554604080516001600160a01b03808516825290921660208301527fb3d55174552271a4f1aaf36b72f50381e892171636b3fb5447fe00e995e7a37b91016101a7565b600080826001600160a01b0316636f307dc36040518163ffffffff1660e01b8152600401602060405180830381865afa1580156104e4573d6000803e3d6000fd5b505050506040513d601f19601f82011682018060405250810190610508919061095c565b9050806001600160a01b031663313ce5676040518163ffffffff1660e01b8152600401602060405180830381865afa158015610548573d6000803e3d6000fd5b505050506040513d601f19601f8201168201806040525081019061056c9190610979565b61057a9060ff16600a610a96565b6105838261063a565b61059590670de0b6b3a7640000610aa2565b61059f9190610ac1565b9392505050565b6033546001600160a01b031633146106005760405162461bcd60e51b815260206004820181905260248201527f4f776e61626c653a2063616c6c6572206973206e6f7420746865206f776e657260448201526064016101f2565b565b600054610100900460ff166106295760405162461bcd60e51b81526004016101f290610ae3565b6106316108d0565b61030a8161087e565b6000808290506000816001600160a01b03166338d52e0f6040518163ffffffff1660e01b8152600401602060405180830381865afa158015610680573d6000803e3d6000fd5b505050506040513d601f19601f820116820180604052508101906106a4919061095c565b90506000826001600160a01b0316634cdad506846001600160a01b031663313ce5676040518163ffffffff1660e01b8152600401602060405180830381865afa1580156106f5573d6000803e3d6000fd5b505050506040513d601f19601f820116820180604052508101906107199190610979565b61072490600a610b2e565b6040518263ffffffff1660e01b815260040161074291815260200190565b602060405180830381865afa15801561075f573d6000803e3d6000fd5b505050506040513d601f19601f820116820180604052508101906107839190610b3d565b6040516315d5220f60e31b81526001600160a01b0384166004820152909150600090339063aea9107890602401602060405180830381865afa1580156107cd573d6000803e3d6000fd5b505050506040513d601f19601f820116820180604052508101906107f19190610b3d565b9050826001600160a01b031663313ce5676040518163ffffffff1660e01b8152600401602060405180830381865afa158015610831573d6000803e3d6000fd5b505050506040513d601f19601f820116820180604052508101906108559190610979565b61086090600a610b2e565b61086a8284610aa2565b6108749190610ac1565b9695505050505050565b603380546001600160a01b038381166001600160a01b0319831681179093556040519116919082907f8be0079c531659141344cd1fd0a4f28419497f9722a3daafe3b4186f6b6457e090600090a35050565b600054610100900460ff166108f75760405162461bcd60e51b81526004016101f290610ae3565b610600600054610100900460ff166109215760405162461bcd60e51b81526004016101f290610ae3565b6106003361087e565b6001600160a01b038116811461030a57600080fd5b60006020828403121561095157600080fd5b813561059f8161092a565b60006020828403121561096e57600080fd5b815161059f8161092a565b60006020828403121561098b57600080fd5b815160ff8116811461059f57600080fd5b634e487b7160e01b600052601160045260246000fd5b600181815b808511156109ed5781600019048211156109d3576109d361099c565b808516156109e057918102915b93841c93908002906109b7565b509250929050565b600082610a0457506001610318565b81610a1157506000610318565b8160018114610a275760028114610a3157610a4d565b6001915050610318565b60ff841115610a4257610a4261099c565b50506001821b610318565b5060208310610133831016604e8410600b8410161715610a70575081810a610318565b610a7a83836109b2565b8060001904821115610a8e57610a8e61099c565b029392505050565b600061059f83836109f5565b6000816000190483118215151615610abc57610abc61099c565b500290565b600082610ade57634e487b7160e01b600052601260045260246000fd5b500490565b6020808252602b908201527f496e697469616c697a61626c653a20636f6e7472616374206973206e6f74206960408201526a6e697469616c697a696e6760a81b606082015260800190565b600061059f60ff8416836109f5565b600060208284031215610b4f57600080fd5b505191905056fea164736f6c634300080a000a","linkReferences":{}},"methodIdentifiers":{"_acceptOwner()":"fc4d33f9","_setPendingOwner(address)":"6e96dfd7","getUnderlyingPrice(address)":"fc57d4df","initialize()":"8129fc1c","owner()":"8da5cb5b","pendingOwner()":"e30c3978","price(address)":"aea91078","renounceOwnership()":"715018a6","transferOwnership(address)":"f2fde38b"},"id":260}