{
  "address": "0xcA0aE3039B8825Cd7A968ceda6D99a49458722aF",
  "abi": [
    {
      "anonymous": false,
      "inputs": [
        {
          "indexed": false,
          "internalType": "uint8",
          "name": "version",
          "type": "uint8"
        }
      ],
      "name": "Initialized",
      "type": "event"
    },
    {
      "inputs": [],
      "name": "factory",
      "outputs": [
        {
          "internalType": "contract ILeveredPositionFactory",
          "name": "",
          "type": "address"
        }
      ],
      "stateMutability": "view",
      "type": "function"
    },
    {
      "inputs": [
        {
          "internalType": "contract ICErc20",
          "name": "_collateralMarket",
          "type": "address"
        },
        {
          "internalType": "contract ICErc20",
          "name": "_stableMarket",
          "type": "address"
        },
        {
          "internalType": "uint256",
          "name": "_equityAmount",
          "type": "uint256"
        },
        {
          "internalType": "uint256",
          "name": "_targetLeverageRatio",
          "type": "uint256"
        }
      ],
      "name": "getBorrowRateAtRatio",
      "outputs": [
        {
          "internalType": "uint256",
          "name": "",
          "type": "uint256"
        }
      ],
      "stateMutability": "view",
      "type": "function"
    },
    {
      "inputs": [
        {
          "internalType": "contract ICErc20",
          "name": "_collateralMarket",
          "type": "address"
        }
      ],
      "name": "getBorrowableMarketsAndRates",
      "outputs": [
        {
          "internalType": "address[]",
          "name": "markets",
          "type": "address[]"
        },
        {
          "internalType": "address[]",
          "name": "underlyings",
          "type": "address[]"
        },
        {
          "internalType": "uint256[]",
          "name": "underlyingsPrices",
          "type": "uint256[]"
        },
        {
          "internalType": "string[]",
          "name": "names",
          "type": "string[]"
        },
        {
          "internalType": "string[]",
          "name": "symbols",
          "type": "string[]"
        },
        {
          "internalType": "uint256[]",
          "name": "rates",
          "type": "uint256[]"
        },
        {
          "internalType": "uint8[]",
          "name": "decimals",
          "type": "uint8[]"
        }
      ],
      "stateMutability": "view",
      "type": "function"
    },
    {
      "inputs": [],
      "name": "getCollateralMarkets",
      "outputs": [
        {
          "internalType": "address[]",
          "name": "markets",
          "type": "address[]"
        },
        {
          "internalType": "contract IonicComptroller[]",
          "name": "poolOfMarket",
          "type": "address[]"
        },
        {
          "internalType": "address[]",
          "name": "underlyings",
          "type": "address[]"
        },
        {
          "internalType": "uint256[]",
          "name": "underlyingPrices",
          "type": "uint256[]"
        },
        {
          "internalType": "string[]",
          "name": "names",
          "type": "string[]"
        },
        {
          "internalType": "string[]",
          "name": "symbols",
          "type": "string[]"
        },
        {
          "internalType": "uint8[]",
          "name": "decimals",
          "type": "uint8[]"
        },
        {
          "internalType": "uint256[]",
          "name": "totalUnderlyingSupplied",
          "type": "uint256[]"
        },
        {
          "internalType": "uint256[]",
          "name": "ratesPerBlock",
          "type": "uint256[]"
        }
      ],
      "stateMutability": "view",
      "type": "function"
    },
    {
      "inputs": [
        {
          "internalType": "contract LeveredPosition",
          "name": "pos",
          "type": "address"
        },
        {
          "internalType": "uint256",
          "name": "newFunding",
          "type": "uint256"
        }
      ],
      "name": "getLeverageRatioAfterFunding",
      "outputs": [
        {
          "internalType": "uint256",
          "name": "",
          "type": "uint256"
        }
      ],
      "stateMutability": "view",
      "type": "function"
    },
    {
      "inputs": [
        {
          "internalType": "uint256",
          "name": "_supplyAPY",
          "type": "uint256"
        },
        {
          "internalType": "uint256",
          "name": "_supplyAmount",
          "type": "uint256"
        },
        {
          "internalType": "contract ICErc20",
          "name": "_collateralMarket",
          "type": "address"
        },
        {
          "internalType": "contract ICErc20",
          "name": "_stableMarket",
          "type": "address"
        },
        {
          "internalType": "uint256",
          "name": "_targetLeverageRatio",
          "type": "uint256"
        }
      ],
      "name": "getNetAPY",
      "outputs": [
        {
          "internalType": "int256",
          "name": "netAPY",
          "type": "int256"
        }
      ],
      "stateMutability": "view",
      "type": "function"
    },
    {
      "inputs": [
        {
          "internalType": "contract LeveredPosition",
          "name": "pos",
          "type": "address"
        },
        {
          "internalType": "uint256",
          "name": "supplyAPY",
          "type": "uint256"
        }
      ],
      "name": "getNetApyForPosition",
      "outputs": [
        {
          "internalType": "int256",
          "name": "",
          "type": "int256"
        }
      ],
      "stateMutability": "view",
      "type": "function"
    },
    {
      "inputs": [
        {
          "internalType": "contract LeveredPosition",
          "name": "pos",
          "type": "address"
        },
        {
          "internalType": "uint256",
          "name": "supplyAPY",
          "type": "uint256"
        },
        {
          "internalType": "uint256",
          "name": "newFunding",
          "type": "uint256"
        }
      ],
      "name": "getNetApyForPositionAfterFunding",
      "outputs": [
        {
          "internalType": "int256",
          "name": "",
          "type": "int256"
        }
      ],
      "stateMutability": "view",
      "type": "function"
    },
    {
      "inputs": [
        {
          "internalType": "contract LeveredPosition",
          "name": "pos",
          "type": "address"
        },
        {
          "internalType": "uint256",
          "name": "supplyApy",
          "type": "uint256"
        }
      ],
      "name": "getPositionInfo",
      "outputs": [
        {
          "components": [
            {
              "internalType": "uint256",
              "name": "collateralAssetPrice",
              "type": "uint256"
            },
            {
              "internalType": "uint256",
              "name": "borrowedAssetPrice",
              "type": "uint256"
            },
            {
              "internalType": "uint256",
              "name": "positionSupplyAmount",
              "type": "uint256"
            },
            {
              "internalType": "uint256",
              "name": "positionValue",
              "type": "uint256"
            },
            {
              "internalType": "uint256",
              "name": "debtAmount",
              "type": "uint256"
            },
            {
              "internalType": "uint256",
              "name": "debtValue",
              "type": "uint256"
            },
            {
              "internalType": "uint256",
              "name": "equityAmount",
              "type": "uint256"
            },
            {
              "internalType": "uint256",
              "name": "equityValue",
              "type": "uint256"
            },
            {
              "internalType": "int256",
              "name": "currentApy",
              "type": "int256"
            },
            {
              "internalType": "uint256",
              "name": "debtRatio",
              "type": "uint256"
            },
            {
              "internalType": "uint256",
              "name": "liquidationThreshold",
              "type": "uint256"
            },
            {
              "internalType": "uint256",
              "name": "safetyBuffer",
              "type": "uint256"
            }
          ],
          "internalType": "struct LeveredPositionsLens.PositionInfo",
          "name": "info",
          "type": "tuple"
        }
      ],
      "stateMutability": "view",
      "type": "function"
    },
    {
      "inputs": [
        {
          "internalType": "contract LeveredPosition[]",
          "name": "positions",
          "type": "address[]"
        },
        {
          "internalType": "uint256[]",
          "name": "supplyApys",
          "type": "uint256[]"
        }
      ],
      "name": "getPositionsInfo",
      "outputs": [
        {
          "components": [
            {
              "internalType": "uint256",
              "name": "collateralAssetPrice",
              "type": "uint256"
            },
            {
              "internalType": "uint256",
              "name": "borrowedAssetPrice",
              "type": "uint256"
            },
            {
              "internalType": "uint256",
              "name": "positionSupplyAmount",
              "type": "uint256"
            },
            {
              "internalType": "uint256",
              "name": "positionValue",
              "type": "uint256"
            },
            {
              "internalType": "uint256",
              "name": "debtAmount",
              "type": "uint256"
            },
            {
              "internalType": "uint256",
              "name": "debtValue",
              "type": "uint256"
            },
            {
              "internalType": "uint256",
              "name": "equityAmount",
              "type": "uint256"
            },
            {
              "internalType": "uint256",
              "name": "equityValue",
              "type": "uint256"
            },
            {
              "internalType": "int256",
              "name": "currentApy",
              "type": "int256"
            },
            {
              "internalType": "uint256",
              "name": "debtRatio",
              "type": "uint256"
            },
            {
              "internalType": "uint256",
              "name": "liquidationThreshold",
              "type": "uint256"
            },
            {
              "internalType": "uint256",
              "name": "safetyBuffer",
              "type": "uint256"
            }
          ],
          "internalType": "struct LeveredPositionsLens.PositionInfo[]",
          "name": "infos",
          "type": "tuple[]"
        }
      ],
      "stateMutability": "view",
      "type": "function"
    },
    {
      "inputs": [
        {
          "internalType": "contract ILeveredPositionFactory",
          "name": "_factory",
          "type": "address"
        }
      ],
      "name": "initialize",
      "outputs": [],
      "stateMutability": "nonpayable",
      "type": "function"
    },
    {
      "inputs": [
        {
          "internalType": "contract ILeveredPositionFactory",
          "name": "_factory",
          "type": "address"
        }
      ],
      "name": "reinitialize",
      "outputs": [],
      "stateMutability": "nonpayable",
      "type": "function"
    }
  ],
  "transactionHash": "0x8eedc7fecbdd763645621e3e0f968050cfd859d2b08070460e6a978910820556",
  "args": [],
  "numDeployments": 1,
  "solcInputHash": "83ac11b996b418b7d32356425f3a65b1",
  "bytecode": "0x608060405234801561001057600080fd5b50612a77806100206000396000f3fe608060405234801561001057600080fd5b50600436106100b45760003560e01c80638f4b1166116100715780638f4b11661461015e578063c03497c01461017e578063c45a01551461019b578063c4d66de8146101cc578063cc3e7804146101e1578063f7e7d1fd146101f457600080fd5b8063012db95c146100b95780631327d7fb146100df5780631a610317146100ff57806360ff773e146101125780636bbdc780146101385780638de1624d1461014b575b600080fd5b6100cc6100c7366004612166565b610207565b6040519081526020015b60405180910390f35b6100f26100ed366004612166565b610396565b6040516100d69190612210565b6100cc61010d366004612166565b6108ca565b61012561012036600461221f565b6108df565b6040516100d6979695949392919061237a565b6100cc610146366004612403565b610f51565b6100cc610159366004612449565b61123e565b61017161016c3660046124e6565b611559565b6040516100d69190612551565b610186611630565b6040516100d6999897969594939291906125a0565b6000546101b4906201000090046001600160a01b031681565b6040516001600160a01b0390911681526020016100d6565b6101df6101da36600461221f565b611e0f565b005b6100cc6101ef366004612699565b611efe565b6101df61020236600461221f565b612047565b600080836001600160a01b031663a833cb7f6040518163ffffffff1660e01b8152600401602060405180830381865afa158015610248573d6000803e3d6000fd5b505050506040513d601f19601f8201168201806040525081019061026c91906126ce565b90508015801561027a575082155b15610289576000915050610390565b6000846001600160a01b031663a415deda6040518163ffffffff1660e01b8152600401602060405180830381865afa1580156102c9573d6000803e3d6000fd5b505050506040513d601f19601f820116820180604052508101906102ed91906126e7565b604051633af9e66960e01b81526001600160a01b0387811660048301529190911690633af9e66990602401602060405180830381865afa158015610335573d6000803e3d6000fd5b505050506040513d601f19601f8201168201806040525081019061035991906126ce565b9050610365848361271a565b61036f858361271a565b61038190670de0b6b3a764000061272d565b61038b919061275a565b925050505b92915050565b61039e6120ed565b6000836001600160a01b031663a415deda6040518163ffffffff1660e01b8152600401602060405180830381865afa1580156103de573d6000803e3d6000fd5b505050506040513d601f19601f8201168201806040525081019061040291906126e7565b90506000846001600160a01b03166316f0115b6040518163ffffffff1660e01b8152600401602060405180830381865afa158015610444573d6000803e3d6000fd5b505050506040513d601f19601f8201168201806040525081019061046891906126e7565b9050806001600160a01b0316637dc0d1d06040518163ffffffff1660e01b8152600401602060405180830381865afa1580156104a8573d6000803e3d6000fd5b505050506040513d601f19601f820116820180604052508101906104cc91906126e7565b60405163fc57d4df60e01b81526001600160a01b038481166004830152919091169063fc57d4df90602401602060405180830381865afa158015610514573d6000803e3d6000fd5b505050506040513d601f19601f8201168201806040525081019061053891906126ce565b8352604051633af9e66960e01b81526001600160a01b038681166004830152831690633af9e66990602401602060405180830381865afa158015610580573d6000803e3d6000fd5b505050506040513d601f19601f820116820180604052508101906105a491906126ce565b604084018190528351670de0b6b3a7640000916105c09161272d565b6105ca919061275a565b60608401526105d985856108ca565b836101000181815250506000856001600160a01b031663a7e269a66040518163ffffffff1660e01b8152600401602060405180830381865afa158015610623573d6000803e3d6000fd5b505050506040513d601f19601f8201168201806040525081019061064791906126e7565b9050816001600160a01b0316637dc0d1d06040518163ffffffff1660e01b8152600401602060405180830381865afa158015610687573d6000803e3d6000fd5b505050506040513d601f19601f820116820180604052508101906106ab91906126e7565b60405163fc57d4df60e01b81526001600160a01b038381166004830152919091169063fc57d4df90602401602060405180830381865afa1580156106f3573d6000803e3d6000fd5b505050506040513d601f19601f8201168201806040525081019061071791906126ce565b60208501526040516305eff7ef60e21b81526001600160a01b0387811660048301528216906317bfdfbc90602401602060405180830381865afa158015610762573d6000803e3d6000fd5b505050506040513d601f19601f8201168201806040525081019061078691906126ce565b608085018190526020850151670de0b6b3a7640000916107a59161272d565b6107af919061275a565b60a0850181905260608501516107c5919061276e565b60e08501526060840151156107ff57606084015160a08501516107f090670de0b6b3a764000061272d565b6107fa919061275a565b610802565b60005b610120850152835160e085015161082190670de0b6b3a764000061272d565b61082b919061275a565b60c085015250604051638e8f294b60e01b81526001600160a01b03838116600483015260009190831690638e8f294b906024016040805180830381865afa15801561087a573d6000803e3d6000fd5b505050506040513d601f19601f8201168201806040525081019061089e9190612781565b61014086018190526101208601519092506108ba91508261276e565b6101608501525091949350505050565b60006108d883836000611efe565b9392505050565b600054604051637a73083360e11b81526001600160a01b038381166004830152606092839283928392839283928392620100009004169063f4e6106690602401600060405180830381865afa15801561093c573d6000803e3d6000fd5b505050506040513d6000823e601f3d908101601f1916820160405261096491908101906127fa565b965086516001600160401b0381111561097f5761097f6127b4565b6040519080825280602002602001820160405280156109a8578160200160208202803683370190505b50955086516001600160401b038111156109c4576109c46127b4565b6040519080825280602002602001820160405280156109f757816020015b60608152602001906001900390816109e25790505b50935086516001600160401b03811115610a1357610a136127b4565b604051908082528060200260200182016040528015610a4657816020015b6060815260200190600190039081610a315790505b50925086516001600160401b03811115610a6257610a626127b4565b604051908082528060200260200182016040528015610a8b578160200160208202803683370190505b50915086516001600160401b03811115610aa757610aa76127b4565b604051908082528060200260200182016040528015610ad0578160200160208202803683370190505b50905086516001600160401b03811115610aec57610aec6127b4565b604051908082528060200260200182016040528015610b15578160200160208202803683370190505b50945060005b8751811015610f45576000888281518110610b3857610b386128ab565b602002602001015190506000816001600160a01b0316636f307dc36040518163ffffffff1660e01b8152600401602060405180830381865afa158015610b82573d6000803e3d6000fd5b505050506040513d601f19601f82011682018060405250810190610ba691906126e7565b905080898481518110610bbb57610bbb6128ab565b60200260200101906001600160a01b031690816001600160a01b0316815250506000819050806001600160a01b03166306fdde036040518163ffffffff1660e01b8152600401600060405180830381865afa158015610c1e573d6000803e3d6000fd5b505050506040513d6000823e601f3d908101601f19168201604052610c4691908101906128c1565b888581518110610c5857610c586128ab565b6020026020010181905250806001600160a01b03166395d89b416040518163ffffffff1660e01b8152600401600060405180830381865afa158015610ca1573d6000803e3d6000fd5b505050506040513d6000823e601f3d908101601f19168201604052610cc991908101906128c1565b878581518110610cdb57610cdb6128ab565b6020026020010181905250826001600160a01b031663f8f9da286040518163ffffffff1660e01b8152600401602060405180830381865afa158015610d24573d6000803e3d6000fd5b505050506040513d601f19601f82011682018060405250810190610d4891906126ce565b868581518110610d5a57610d5a6128ab565b602002602001018181525050806001600160a01b031663313ce5676040518163ffffffff1660e01b8152600401602060405180830381865afa158015610da4573d6000803e3d6000fd5b505050506040513d601f19601f82011682018060405250810190610dc8919061294b565b858581518110610dda57610dda6128ab565b602002602001019060ff16908160ff1681525050826001600160a01b0316635fe3b5676040518163ffffffff1660e01b8152600401602060405180830381865afa158015610e2c573d6000803e3d6000fd5b505050506040513d601f19601f82011682018060405250810190610e5091906126e7565b6001600160a01b0316637dc0d1d06040518163ffffffff1660e01b8152600401602060405180830381865afa158015610e8d573d6000803e3d6000fd5b505050506040513d601f19601f82011682018060405250810190610eb191906126e7565b60405163fc57d4df60e01b81526001600160a01b038581166004830152919091169063fc57d4df90602401602060405180830381865afa158015610ef9573d6000803e3d6000fd5b505050506040513d601f19601f82011682018060405250810190610f1d91906126ce565b898581518110610f2f57610f2f6128ab565b6020908102919091010152505050600101610b1b565b50919395979092949650565b600080846001600160a01b0316635fe3b5676040518163ffffffff1660e01b8152600401602060405180830381865afa158015610f92573d6000803e3d6000fd5b505050506040513d601f19601f82011682018060405250810190610fb691906126e7565b90506000816001600160a01b0316637dc0d1d06040518163ffffffff1660e01b8152600401602060405180830381865afa158015610ff8573d6000803e3d6000fd5b505050506040513d601f19601f8201168201806040525081019061101c91906126e7565b60405163fc57d4df60e01b81526001600160a01b03888116600483015291925060009183169063fc57d4df90602401602060405180830381865afa158015611068573d6000803e3d6000fd5b505050506040513d601f19601f8201168201806040525081019061108c91906126ce565b60405163fc57d4df60e01b81526001600160a01b038a8116600483015291925060009184169063fc57d4df90602401602060405180830381865afa1580156110d8573d6000803e3d6000fd5b505050506040513d601f19601f820116820180604052508101906110fc91906126ce565b9050600061111283670de0b6b3a764000061272d565b8289611126670de0b6b3a76400008b61276e565b611130919061272d565b61113a919061272d565b611144919061275a565b9050600060029054906101000a90046001600160a01b03166001600160a01b031663a385fb966040518163ffffffff1660e01b8152600401602060405180830381865afa158015611199573d6000803e3d6000fd5b505050506040513d601f19601f820116820180604052508101906111bd91906126ce565b60405163cfcd4c0760e01b8152600481018390526001600160a01b038b169063cfcd4c0790602401602060405180830381865afa158015611202573d6000803e3d6000fd5b505050506040513d601f19601f8201168201806040525081019061122691906126ce565b611230919061272d565b9a9950505050505050505050565b60008415806112555750670de0b6b3a76400008211155b1561126257506000611550565b6000846001600160a01b0316635fe3b5676040518163ffffffff1660e01b8152600401602060405180830381865afa1580156112a2573d6000803e3d6000fd5b505050506040513d601f19601f820116820180604052508101906112c691906126e7565b90506000816001600160a01b0316637dc0d1d06040518163ffffffff1660e01b8152600401602060405180830381865afa158015611308573d6000803e3d6000fd5b505050506040513d601f19601f8201168201806040525081019061132c91906126e7565b60405163fc57d4df60e01b81526001600160a01b03888116600483015291925060009183169063fc57d4df90602401602060405180830381865afa158015611378573d6000803e3d6000fd5b505050506040513d601f19601f8201168201806040525081019061139c91906126ce565b90506000670de0b6b3a76400006113b3878b61272d565b6113bd919061275a565b905060006113cb828c61272d565b90506000670de0b6b3a76400006113e2858461272d565b6113ec919061275a565b90506000846113fb8d8661276e565b611405919061272d565b905060008060029054906101000a90046001600160a01b03166001600160a01b031663a385fb966040518163ffffffff1660e01b8152600401602060405180830381865afa15801561145b573d6000803e3d6000fd5b505050506040513d601f19601f8201168201806040525081019061147f91906126ce565b8b6001600160a01b031663f8f9da286040518163ffffffff1660e01b8152600401602060405180830381865afa1580156114bd573d6000803e3d6000fd5b505050506040513d601f19601f820116820180604052508101906114e191906126ce565b6114eb919061272d565b90506000670de0b6b3a7640000611502848461272d565b61150c919061275a565b9050600061151a828661296e565b90508e6115278983612995565b61153990670de0b6b3a76400006129c3565b6115439190612995565b9a50505050505050505050505b95945050505050565b6060836001600160401b03811115611573576115736127b4565b6040519080825280602002602001820160405280156115ac57816020015b6115996120ed565b8152602001906001900390816115915790505b50905060005b84811015611627576116028686838181106115cf576115cf6128ab565b90506020020160208101906115e4919061221f565b8585848181106115f6576115f66128ab565b90506020020135610396565b828281518110611614576116146128ab565b60209081029190910101526001016115b2565b50949350505050565b6060806060806060806060806060600060029054906101000a90046001600160a01b03166001600160a01b031663a339d7516040518163ffffffff1660e01b8152600401600060405180830381865afa158015611691573d6000803e3d6000fd5b505050506040513d6000823e601f3d908101601f191682016040526116b991908101906127fa565b985088516001600160401b038111156116d4576116d46127b4565b6040519080825280602002602001820160405280156116fd578160200160208202803683370190505b50975088516001600160401b03811115611719576117196127b4565b604051908082528060200260200182016040528015611742578160200160208202803683370190505b50965088516001600160401b0381111561175e5761175e6127b4565b604051908082528060200260200182016040528015611787578160200160208202803683370190505b50955088516001600160401b038111156117a3576117a36127b4565b6040519080825280602002602001820160405280156117d657816020015b60608152602001906001900390816117c15790505b50945088516001600160401b038111156117f2576117f26127b4565b60405190808252806020026020018201604052801561182557816020015b60608152602001906001900390816118105790505b50935088516001600160401b03811115611841576118416127b4565b60405190808252806020026020018201604052801561186a578160200160208202803683370190505b50915088516001600160401b03811115611886576118866127b4565b6040519080825280602002602001820160405280156118af578160200160208202803683370190505b50925088516001600160401b038111156118cb576118cb6127b4565b6040519080825280602002602001820160405280156118f4578160200160208202803683370190505b50905060005b8951811015611e035760008a8281518110611917576119176128ab565b60200260200101519050806001600160a01b0316635fe3b5676040518163ffffffff1660e01b8152600401602060405180830381865afa15801561195f573d6000803e3d6000fd5b505050506040513d601f19601f8201168201806040525081019061198391906126e7565b8a8381518110611995576119956128ab565b60200260200101906001600160a01b031690816001600160a01b0316815250508982815181106119c7576119c76128ab565b60200260200101516001600160a01b0316637dc0d1d06040518163ffffffff1660e01b8152600401602060405180830381865afa158015611a0c573d6000803e3d6000fd5b505050506040513d601f19601f82011682018060405250810190611a3091906126e7565b60405163fc57d4df60e01b81526001600160a01b038381166004830152919091169063fc57d4df90602401602060405180830381865afa158015611a78573d6000803e3d6000fd5b505050506040513d601f19601f82011682018060405250810190611a9c91906126ce565b888381518110611aae57611aae6128ab565b602002602001018181525050806001600160a01b0316636f307dc36040518163ffffffff1660e01b8152600401602060405180830381865afa158015611af8573d6000803e3d6000fd5b505050506040513d601f19601f82011682018060405250810190611b1c91906126e7565b898381518110611b2e57611b2e6128ab565b60200260200101906001600160a01b031690816001600160a01b0316815250506000898381518110611b6257611b626128ab565b60200260200101519050806001600160a01b03166306fdde036040518163ffffffff1660e01b8152600401600060405180830381865afa158015611baa573d6000803e3d6000fd5b505050506040513d6000823e601f3d908101601f19168201604052611bd291908101906128c1565b888481518110611be457611be46128ab565b6020026020010181905250806001600160a01b03166395d89b416040518163ffffffff1660e01b8152600401600060405180830381865afa158015611c2d573d6000803e3d6000fd5b505050506040513d6000823e601f3d908101601f19168201604052611c5591908101906128c1565b878481518110611c6757611c676128ab565b6020026020010181905250806001600160a01b031663313ce5676040518163ffffffff1660e01b8152600401602060405180830381865afa158015611cb0573d6000803e3d6000fd5b505050506040513d601f19601f82011682018060405250810190611cd4919061294b565b868481518110611ce657611ce66128ab565b602002602001019060ff16908160ff1681525050816001600160a01b0316634aeb3d9a6040518163ffffffff1660e01b8152600401602060405180830381865afa158015611d38573d6000803e3d6000fd5b505050506040513d601f19601f82011682018060405250810190611d5c91906126ce565b858481518110611d6e57611d6e6128ab565b602002602001018181525050816001600160a01b031663ae9d70b06040518163ffffffff1660e01b8152600401602060405180830381865afa158015611db8573d6000803e3d6000fd5b505050506040513d601f19601f82011682018060405250810190611ddc91906126ce565b848481518110611dee57611dee6128ab565b602090810291909101015250506001016118fa565b50909192939495969798565b600054610100900460ff1615808015611e2f5750600054600160ff909116105b80611e495750303b158015611e49575060005460ff166001145b611e6e5760405162461bcd60e51b8152600401611e65906129f3565b60405180910390fd5b6000805460ff191660011790558015611e91576000805461ff0019166101001790555b6000805462010000600160b01b031916620100006001600160a01b038516021790558015611efa576000805461ff0019169055604051600181527f7f26b83ff96e1f2b6a682f133852f6798a09c465da95921460cefb3847402498906020015b60405180910390a15b5050565b600061203f8383866001600160a01b031663a833cb7f6040518163ffffffff1660e01b8152600401602060405180830381865afa158015611f43573d6000803e3d6000fd5b505050506040513d601f19601f82011682018060405250810190611f6791906126ce565b611f71919061271a565b866001600160a01b031663a415deda6040518163ffffffff1660e01b8152600401602060405180830381865afa158015611faf573d6000803e3d6000fd5b505050506040513d601f19601f82011682018060405250810190611fd391906126e7565b876001600160a01b031663a7e269a66040518163ffffffff1660e01b8152600401602060405180830381865afa158015612011573d6000803e3d6000fd5b505050506040513d601f19601f8201168201806040525081019061203591906126e7565b6101598988610207565b949350505050565b600054600290610100900460ff16158015612069575060005460ff8083169116105b6120855760405162461bcd60e51b8152600401611e65906129f3565b6000805461010060ff841661ffff19909216821717610100600160b01b03191661ff0019620100006001600160a01b0387160216179091556040519081527f7f26b83ff96e1f2b6a682f133852f6798a09c465da95921460cefb384740249890602001611ef1565b6040518061018001604052806000815260200160008152602001600081526020016000815260200160008152602001600081526020016000815260200160008152602001600081526020016000815260200160008152602001600081525090565b6001600160a01b038116811461216357600080fd5b50565b6000806040838503121561217957600080fd5b82356121848161214e565b946020939093013593505050565b805182526020810151602083015260408101516040830152606081015160608301526080810151608083015260a081015160a083015260c081015160c083015260e081015160e08301526101008082015181840152506101208082015181840152506101408082015181840152506101608082015181840152505050565b61018081016103908284612192565b60006020828403121561223157600080fd5b81356108d88161214e565b60008151808452602080850194506020840160005b838110156122765781516001600160a01b031687529582019590820190600101612251565b509495945050505050565b60008151808452602080850194506020840160005b8381101561227657815187529582019590820190600101612296565b60005b838110156122cd5781810151838201526020016122b5565b50506000910152565b600082825180855260208086019550808260051b84010181860160005b8481101561233957601f1980878503018a528251805180865261231b818888018985016122b2565b9a86019a601f019091169390930184019250908301906001016122f3565b5090979650505050505050565b60008151808452602080850194506020840160005b8381101561227657815160ff168752958201959082019060010161235b565b60e08152600061238d60e083018a61223c565b828103602084015261239f818a61223c565b905082810360408401526123b38189612281565b905082810360608401526123c781886122d6565b905082810360808401526123db81876122d6565b905082810360a08401526123ef8186612281565b905082810360c08401526112308185612346565b6000806000806080858703121561241957600080fd5b84356124248161214e565b935060208501356124348161214e565b93969395505050506040820135916060013590565b600080600080600060a0868803121561246157600080fd5b8535945060208601359350604086013561247a8161214e565b9250606086013561248a8161214e565b949793965091946080013592915050565b60008083601f8401126124ad57600080fd5b5081356001600160401b038111156124c457600080fd5b6020830191508360208260051b85010111156124df57600080fd5b9250929050565b600080600080604085870312156124fc57600080fd5b84356001600160401b038082111561251357600080fd5b61251f8883890161249b565b9096509450602087013591508082111561253857600080fd5b506125458782880161249b565b95989497509550505050565b6020808252825182820181905260009190848201906040850190845b8181101561259457612580838551612192565b92840192610180929092019160010161256d565b50909695505050505050565b60006101208083526125b48184018d61223c565b905060208382036020850152818c5180845260208401915060208e01935060005b818110156125fa5784516001600160a01b0316835293830193918301916001016125d5565b5050848103604086015261260e818d61223c565b925050508281036060840152612624818a612281565b9050828103608084015261263881896122d6565b905082810360a084015261264c81886122d6565b905082810360c08401526126608187612346565b905082810360e08401526126748186612281565b90508281036101008401526126898185612281565b9c9b505050505050505050505050565b6000806000606084860312156126ae57600080fd5b83356126b98161214e565b95602085013595506040909401359392505050565b6000602082840312156126e057600080fd5b5051919050565b6000602082840312156126f957600080fd5b81516108d88161214e565b634e487b7160e01b600052601160045260246000fd5b8082018082111561039057610390612704565b808202811582820484141761039057610390612704565b634e487b7160e01b600052601260045260246000fd5b60008261276957612769612744565b500490565b8181038181111561039057610390612704565b6000806040838503121561279457600080fd5b825180151581146127a457600080fd5b6020939093015192949293505050565b634e487b7160e01b600052604160045260246000fd5b604051601f8201601f191681016001600160401b03811182821017156127f2576127f26127b4565b604052919050565b6000602080838503121561280d57600080fd5b82516001600160401b038082111561282457600080fd5b818501915085601f83011261283857600080fd5b81518181111561284a5761284a6127b4565b8060051b915061285b8483016127ca565b818152918301840191848101908884111561287557600080fd5b938501935b8385101561289f578451925061288f8361214e565b828252938501939085019061287a565b98975050505050505050565b634e487b7160e01b600052603260045260246000fd5b6000602082840312156128d357600080fd5b81516001600160401b03808211156128ea57600080fd5b818401915084601f8301126128fe57600080fd5b815181811115612910576129106127b4565b612923601f8201601f19166020016127ca565b915080825285602082850101111561293a57600080fd5b6116278160208401602086016122b2565b60006020828403121561295d57600080fd5b815160ff811681146108d857600080fd5b818103600083128015838313168383128216171561298e5761298e612704565b5092915050565b6000826129a4576129a4612744565b600160ff1b8214600019841416156129be576129be612704565b500590565b80820260008212600160ff1b841416156129df576129df612704565b818105831482151761039057610390612704565b6020808252602e908201527f496e697469616c697a61626c653a20636f6e747261637420697320616c72656160408201526d191e481a5b9a5d1a585b1a5e995960921b60608201526080019056fea2646970667358221220e8234b7fbc8d2d025f4e27e5955e77e0d4f88afdb4d3eb63fbfc6a10bcd64b8164736f6c63430008160033",
  "devdoc": {
    "events": {
      "Initialized(uint8)": {
        "details": "Triggered when the contract has been initialized or reinitialized."
      }
    },
    "kind": "dev",
    "methods": {
      "getBorrowRateAtRatio(address,address,uint256,uint256)": {
        "details": "returns the Rate for the chosen borrowable at the specified leverage ratio and supply amount"
      },
      "getBorrowableMarketsAndRates(address)": {
        "details": "returns lists of the market addresses, names, symbols and the current Rate for each Borrowable asset"
      },
      "getCollateralMarkets()": {
        "details": "returns lists of the market addresses, names and symbols of the underlying assets of those collateral markets that are whitelisted"
      }
    },
    "version": 1
  },
  "userdoc": {
    "kind": "user",
    "methods": {
      "getBorrowRateAtRatio(address,address,uint256,uint256)": {
        "notice": "this is a lens fn, it is not intended to be used on-chain"
      },
      "getBorrowableMarketsAndRates(address)": {
        "notice": "this is a lens fn, it is not intended to be used on-chain"
      },
      "getCollateralMarkets()": {
        "notice": "this is a lens fn, it is not intended to be used on-chain"
      },
      "getNetAPY(uint256,uint256,address,address,uint256)": {
        "notice": "this is a lens fn, it is not intended to be used on-chain"
      }
    },
    "version": 1
  },
  "storageLayout": {
    "storage": [
      {
        "astId": 172223,
        "contract": "contracts/ionic/levered/LeveredPositionsLens.sol:LeveredPositionsLens",
        "label": "_initialized",
        "offset": 0,
        "slot": "0",
        "type": "t_uint8"
      },
      {
        "astId": 172226,
        "contract": "contracts/ionic/levered/LeveredPositionsLens.sol:LeveredPositionsLens",
        "label": "_initializing",
        "offset": 1,
        "slot": "0",
        "type": "t_bool"
      },
      {
        "astId": 49677,
        "contract": "contracts/ionic/levered/LeveredPositionsLens.sol:LeveredPositionsLens",
        "label": "factory",
        "offset": 2,
        "slot": "0",
        "type": "t_contract(ILeveredPositionFactory)46460"
      }
    ],
    "types": {
      "t_bool": {
        "encoding": "inplace",
        "label": "bool",
        "numberOfBytes": "1"
      },
      "t_contract(ILeveredPositionFactory)46460": {
        "encoding": "inplace",
        "label": "contract ILeveredPositionFactory",
        "numberOfBytes": "20"
      },
      "t_uint8": {
        "encoding": "inplace",
        "label": "uint8",
        "numberOfBytes": "1"
      }
    }
  }
}