{
  "address": "0xe321fc396BFB31DE3CDff981F180B0F9bd77Df53",
  "abi": [
    {
      "anonymous": false,
      "inputs": [
        {
          "indexed": false,
          "internalType": "string",
          "name": "id",
          "type": "string"
        },
        {
          "indexed": true,
          "internalType": "address",
          "name": "newAddress",
          "type": "address"
        }
      ],
      "name": "AddressSet",
      "type": "event"
    },
    {
      "anonymous": false,
      "inputs": [
        {
          "indexed": true,
          "internalType": "address",
          "name": "key",
          "type": "address"
        },
        {
          "indexed": false,
          "internalType": "string",
          "name": "contractType",
          "type": "string"
        },
        {
          "indexed": false,
          "internalType": "address",
          "name": "contractAddress",
          "type": "address"
        }
      ],
      "name": "ContractSet",
      "type": "event"
    },
    {
      "anonymous": false,
      "inputs": [
        {
          "indexed": false,
          "internalType": "uint8",
          "name": "version",
          "type": "uint8"
        }
      ],
      "name": "Initialized",
      "type": "event"
    },
    {
      "anonymous": false,
      "inputs": [
        {
          "indexed": true,
          "internalType": "address",
          "name": "previousOwner",
          "type": "address"
        },
        {
          "indexed": true,
          "internalType": "address",
          "name": "newOwner",
          "type": "address"
        }
      ],
      "name": "OwnershipTransferred",
      "type": "event"
    },
    {
      "inputs": [
        {
          "internalType": "address",
          "name": "",
          "type": "address"
        }
      ],
      "name": "flywheelRewards",
      "outputs": [
        {
          "internalType": "address",
          "name": "addr",
          "type": "address"
        },
        {
          "internalType": "string",
          "name": "contractInterface",
          "type": "string"
        }
      ],
      "stateMutability": "view",
      "type": "function"
    },
    {
      "inputs": [
        {
          "internalType": "address",
          "name": "",
          "type": "address"
        }
      ],
      "name": "fundingStrategies",
      "outputs": [
        {
          "internalType": "address",
          "name": "addr",
          "type": "address"
        },
        {
          "internalType": "string",
          "name": "contractInterface",
          "type": "string"
        }
      ],
      "stateMutability": "view",
      "type": "function"
    },
    {
      "inputs": [
        {
          "internalType": "string",
          "name": "id",
          "type": "string"
        }
      ],
      "name": "getAddress",
      "outputs": [
        {
          "internalType": "address",
          "name": "",
          "type": "address"
        }
      ],
      "stateMutability": "view",
      "type": "function"
    },
    {
      "inputs": [
        {
          "internalType": "address",
          "name": "owner",
          "type": "address"
        }
      ],
      "name": "initialize",
      "outputs": [],
      "stateMutability": "nonpayable",
      "type": "function"
    },
    {
      "inputs": [
        {
          "internalType": "address",
          "name": "",
          "type": "address"
        }
      ],
      "name": "jarvisPools",
      "outputs": [
        {
          "internalType": "address",
          "name": "syntheticToken",
          "type": "address"
        },
        {
          "internalType": "address",
          "name": "collateralToken",
          "type": "address"
        },
        {
          "internalType": "address",
          "name": "liquidityPool",
          "type": "address"
        },
        {
          "internalType": "uint256",
          "name": "expirationTime",
          "type": "uint256"
        }
      ],
      "stateMutability": "view",
      "type": "function"
    },
    {
      "inputs": [],
      "name": "owner",
      "outputs": [
        {
          "internalType": "address",
          "name": "",
          "type": "address"
        }
      ],
      "stateMutability": "view",
      "type": "function"
    },
    {
      "inputs": [
        {
          "internalType": "address",
          "name": "",
          "type": "address"
        }
      ],
      "name": "plugins",
      "outputs": [
        {
          "internalType": "address",
          "name": "addr",
          "type": "address"
        },
        {
          "internalType": "string",
          "name": "contractInterface",
          "type": "string"
        }
      ],
      "stateMutability": "view",
      "type": "function"
    },
    {
      "inputs": [
        {
          "internalType": "address",
          "name": "",
          "type": "address"
        }
      ],
      "name": "redemptionStrategies",
      "outputs": [
        {
          "internalType": "address",
          "name": "addr",
          "type": "address"
        },
        {
          "internalType": "string",
          "name": "contractInterface",
          "type": "string"
        }
      ],
      "stateMutability": "view",
      "type": "function"
    },
    {
      "inputs": [],
      "name": "renounceOwnership",
      "outputs": [],
      "stateMutability": "nonpayable",
      "type": "function"
    },
    {
      "inputs": [
        {
          "internalType": "string",
          "name": "id",
          "type": "string"
        },
        {
          "internalType": "address",
          "name": "newAddress",
          "type": "address"
        }
      ],
      "name": "setAddress",
      "outputs": [],
      "stateMutability": "nonpayable",
      "type": "function"
    },
    {
      "inputs": [
        {
          "internalType": "address",
          "name": "rewardToken",
          "type": "address"
        },
        {
          "internalType": "address",
          "name": "flywheelRewardsModule",
          "type": "address"
        },
        {
          "internalType": "string",
          "name": "contractInterface",
          "type": "string"
        }
      ],
      "name": "setFlywheelRewards",
      "outputs": [],
      "stateMutability": "nonpayable",
      "type": "function"
    },
    {
      "inputs": [
        {
          "internalType": "address",
          "name": "asset",
          "type": "address"
        },
        {
          "internalType": "address",
          "name": "strategy",
          "type": "address"
        },
        {
          "internalType": "string",
          "name": "contractInterface",
          "type": "string"
        }
      ],
      "name": "setFundingStrategy",
      "outputs": [],
      "stateMutability": "nonpayable",
      "type": "function"
    },
    {
      "inputs": [
        {
          "internalType": "address",
          "name": "syntheticToken",
          "type": "address"
        },
        {
          "internalType": "address",
          "name": "collateralToken",
          "type": "address"
        },
        {
          "internalType": "address",
          "name": "liquidityPool",
          "type": "address"
        },
        {
          "internalType": "uint256",
          "name": "expirationTime",
          "type": "uint256"
        }
      ],
      "name": "setJarvisPool",
      "outputs": [],
      "stateMutability": "nonpayable",
      "type": "function"
    },
    {
      "inputs": [
        {
          "internalType": "address",
          "name": "asset",
          "type": "address"
        },
        {
          "internalType": "address",
          "name": "plugin",
          "type": "address"
        },
        {
          "internalType": "string",
          "name": "contractInterface",
          "type": "string"
        }
      ],
      "name": "setPlugin",
      "outputs": [],
      "stateMutability": "nonpayable",
      "type": "function"
    },
    {
      "inputs": [
        {
          "internalType": "address",
          "name": "asset",
          "type": "address"
        },
        {
          "internalType": "address",
          "name": "strategy",
          "type": "address"
        },
        {
          "internalType": "string",
          "name": "contractInterface",
          "type": "string"
        }
      ],
      "name": "setRedemptionStrategy",
      "outputs": [],
      "stateMutability": "nonpayable",
      "type": "function"
    },
    {
      "inputs": [
        {
          "internalType": "address",
          "name": "newOwner",
          "type": "address"
        }
      ],
      "name": "transferOwnership",
      "outputs": [],
      "stateMutability": "nonpayable",
      "type": "function"
    }
  ],
  "transactionHash": "0x12e68562a23d044a4085eb047841060b8d36f29e703e80fbe1f44c0050a3915a",
  "args": [],
  "numDeployments": 2,
  "bytecode": {
    "object": "0x608060405234801561001057600080fd5b50610ea5806100206000396000f3fe608060405234801561001057600080fd5b50600436106101005760003560e01c80638992280b11610097578063bf40fac111610066578063bf40fac114610270578063c1b9220914610283578063c4d66de814610296578063f2fde38b146102a957600080fd5b80638992280b146101ab5780638da5cb5b146102255780639b2ea4bd1461024a578063a11b73a61461025d57600080fd5b80634b12e643116100d35780634b12e6431461016a5780635b7e4c961461017d578063715018a61461019057806381bc36321461019857600080fd5b80632322b4b91461010557806328918a6a1461011a5780634172e7f91461014457806344fca69714610157575b600080fd5b610118610113366004610bc8565b6102bc565b005b61012d610128366004610c29565b6103ae565b60405161013b929190610c4b565b60405180910390f35b61012d610152366004610c29565b61045d565b610118610165366004610cb0565b610489565b61012d610178366004610c29565b61051b565b61012d61018b366004610c29565b610547565b610118610573565b6101186101a6366004610bc8565b610587565b6101f06101b9366004610c29565b606a6020526000908152604090208054600182015460028301546003909301546001600160a01b0392831693918316929091169084565b60405161013b94939291906001600160a01b039485168152928416602084015292166040820152606081019190915260800190565b6033546001600160a01b03165b6040516001600160a01b03909116815260200161013b565b610118610258366004610cfb565b61062a565b61011861026b366004610bc8565b6106b0565b61023261027e366004610d4f565b610753565b610118610291366004610bc8565b610788565b6101186102a4366004610c29565b61082b565b6101186102b7366004610c29565b61094b565b6102c46109c4565b6040518060400160405280846001600160a01b0316815260200183838080601f01602080910402602001604051908101604052809392919081815260200183838082843760009201829052509390945250506001600160a01b038781168252606860209081526040909220845181546001600160a01b031916921691909117815583820151805191935061035f926001850192910190610aca565b50905050836001600160a01b03167fafc70cce23b654c66339f44ecc383ecc0777fcb43efe8529795baf4c10e0dbdb8383866040516103a093929190610dba565b60405180910390a250505050565b606860205260009081526040902080546001820180546001600160a01b0390921692916103da90610de6565b80601f016020809104026020016040519081016040528092919081815260200182805461040690610de6565b80156104535780601f1061042857610100808354040283529160200191610453565b820191906000526020600020905b81548152906001019060200180831161043657829003601f168201915b5050505050905082565b606660205260009081526040902080546001820180546001600160a01b0390921692916103da90610de6565b6104916109c4565b604080516080810182526001600160a01b039586168082529486166020808301918252948716828401908152606083019485526000968752606a90955291909420935184549086166001600160a01b031991821617855590516001850180549187169183169190911790559151600284018054919095169216919091179092559051600390910155565b606760205260009081526040902080546001820180546001600160a01b0390921692916103da90610de6565b606960205260009081526040902080546001820180546001600160a01b0390921692916103da90610de6565b61057b6109c4565b6105856000610a1e565b565b61058f6109c4565b6040518060400160405280846001600160a01b0316815260200183838080601f01602080910402602001604051908101604052809392919081815260200183838082843760009201829052509390945250506001600160a01b038781168252606760209081526040909220845181546001600160a01b031916921691909117815583820151805191935061035f926001850192910190610aca565b6106326109c4565b8060658484604051610645929190610e21565b90815260405190819003602001812080546001600160a01b039384166001600160a01b0319909116179055908216907f188466739ff00cc68bfb2367d23ae4b855264264fe1624caa8884399af23454c906106a39086908690610e31565b60405180910390a2505050565b6106b86109c4565b6040518060400160405280846001600160a01b0316815260200183838080601f01602080910402602001604051908101604052809392919081815260200183838082843760009201829052509390945250506001600160a01b038781168252606660209081526040909220845181546001600160a01b031916921691909117815583820151805191935061035f926001850192910190610aca565b600060658383604051610767929190610e21565b908152604051908190036020019020546001600160a01b0316905092915050565b6107906109c4565b6040518060400160405280846001600160a01b0316815260200183838080601f01602080910402602001604051908101604052809392919081815260200183838082843760009201829052509390945250506001600160a01b038781168252606960209081526040909220845181546001600160a01b031916921691909117815583820151805191935061035f926001850192910190610aca565b600054610100900460ff161580801561084b5750600054600160ff909116105b806108655750303b158015610865575060005460ff166001145b6108cd5760405162461bcd60e51b815260206004820152602e60248201527f496e697469616c697a61626c653a20636f6e747261637420697320616c72656160448201526d191e481a5b9a5d1a585b1a5e995960921b60648201526084015b60405180910390fd5b6000805460ff1916600117905580156108f0576000805461ff0019166101001790555b6108f8610a70565b61090182610a1e565b8015610947576000805461ff0019169055604051600181527f7f26b83ff96e1f2b6a682f133852f6798a09c465da95921460cefb38474024989060200160405180910390a15b5050565b6109536109c4565b6001600160a01b0381166109b85760405162461bcd60e51b815260206004820152602660248201527f4f776e61626c653a206e6577206f776e657220697320746865207a65726f206160448201526564647265737360d01b60648201526084016108c4565b6109c181610a1e565b50565b6033546001600160a01b031633146105855760405162461bcd60e51b815260206004820181905260248201527f4f776e61626c653a2063616c6c6572206973206e6f7420746865206f776e657260448201526064016108c4565b603380546001600160a01b038381166001600160a01b0319831681179093556040519116919082907f8be0079c531659141344cd1fd0a4f28419497f9722a3daafe3b4186f6b6457e090600090a35050565b600054610100900460ff16610a975760405162461bcd60e51b81526004016108c490610e4d565b610585600054610100900460ff16610ac15760405162461bcd60e51b81526004016108c490610e4d565b61058533610a1e565b828054610ad690610de6565b90600052602060002090601f016020900481019282610af85760008555610b3e565b82601f10610b1157805160ff1916838001178555610b3e565b82800160010185558215610b3e579182015b82811115610b3e578251825591602001919060010190610b23565b50610b4a929150610b4e565b5090565b5b80821115610b4a5760008155600101610b4f565b80356001600160a01b0381168114610b7a57600080fd5b919050565b60008083601f840112610b9157600080fd5b50813567ffffffffffffffff811115610ba957600080fd5b602083019150836020828501011115610bc157600080fd5b9250929050565b60008060008060608587031215610bde57600080fd5b610be785610b63565b9350610bf560208601610b63565b9250604085013567ffffffffffffffff811115610c1157600080fd5b610c1d87828801610b7f565b95989497509550505050565b600060208284031215610c3b57600080fd5b610c4482610b63565b9392505050565b60018060a01b038316815260006020604081840152835180604085015260005b81811015610c8757858101830151858201606001528201610c6b565b81811115610c99576000606083870101525b50601f01601f191692909201606001949350505050565b60008060008060808587031215610cc657600080fd5b610ccf85610b63565b9350610cdd60208601610b63565b9250610ceb60408601610b63565b9396929550929360600135925050565b600080600060408486031215610d1057600080fd5b833567ffffffffffffffff811115610d2757600080fd5b610d3386828701610b7f565b9094509250610d46905060208501610b63565b90509250925092565b60008060208385031215610d6257600080fd5b823567ffffffffffffffff811115610d7957600080fd5b610d8585828601610b7f565b90969095509350505050565b81835281816020850137506000828201602090810191909152601f909101601f19169091010190565b604081526000610dce604083018587610d91565b905060018060a01b0383166020830152949350505050565b600181811c90821680610dfa57607f821691505b60208210811415610e1b57634e487b7160e01b600052602260045260246000fd5b50919050565b8183823760009101908152919050565b602081526000610e45602083018486610d91565b949350505050565b6020808252602b908201527f496e697469616c697a61626c653a20636f6e7472616374206973206e6f74206960408201526a6e697469616c697a696e6760a81b60608201526080019056fea164736f6c634300080a000a",
    "linkReferences": {}
  },
  "methodIdentifiers": {
    "flywheelRewards(address)": "4172e7f9",
    "fundingStrategies(address)": "5b7e4c96",
    "getAddress(string)": "bf40fac1",
    "initialize(address)": "c4d66de8",
    "jarvisPools(address)": "8992280b",
    "owner()": "8da5cb5b",
    "plugins(address)": "4b12e643",
    "redemptionStrategies(address)": "28918a6a",
    "renounceOwnership()": "715018a6",
    "setAddress(string,address)": "9b2ea4bd",
    "setFlywheelRewards(address,address,string)": "a11b73a6",
    "setFundingStrategy(address,address,string)": "c1b92209",
    "setJarvisPool(address,address,address,uint256)": "44fca697",
    "setPlugin(address,address,string)": "81bc3632",
    "setRedemptionStrategy(address,address,string)": "2322b4b9",
    "transferOwnership(address)": "f2fde38b"
  }
}