{
  "address": "0x559F595fc39C03eB10B7B10308d31B10763f0c6C",
  "abi": [
    {
      "anonymous": false,
      "inputs": [
        {
          "indexed": false,
          "internalType": "string",
          "name": "id",
          "type": "string"
        },
        {
          "indexed": true,
          "internalType": "address",
          "name": "newAddress",
          "type": "address"
        }
      ],
      "name": "AddressSet",
      "type": "event"
    },
    {
      "anonymous": false,
      "inputs": [
        {
          "indexed": true,
          "internalType": "address",
          "name": "key",
          "type": "address"
        },
        {
          "indexed": false,
          "internalType": "string",
          "name": "contractType",
          "type": "string"
        },
        {
          "indexed": false,
          "internalType": "address",
          "name": "contractAddress",
          "type": "address"
        }
      ],
      "name": "ContractSet",
      "type": "event"
    },
    {
      "anonymous": false,
      "inputs": [
        {
          "indexed": false,
          "internalType": "uint8",
          "name": "version",
          "type": "uint8"
        }
      ],
      "name": "Initialized",
      "type": "event"
    },
    {
      "anonymous": false,
      "inputs": [
        {
          "indexed": true,
          "internalType": "address",
          "name": "previousOwner",
          "type": "address"
        },
        {
          "indexed": true,
          "internalType": "address",
          "name": "newOwner",
          "type": "address"
        }
      ],
      "name": "OwnershipTransferred",
      "type": "event"
    },
    {
      "inputs": [
        {
          "internalType": "address",
          "name": "",
          "type": "address"
        }
      ],
      "name": "flywheelRewards",
      "outputs": [
        {
          "internalType": "address",
          "name": "addr",
          "type": "address"
        },
        {
          "internalType": "string",
          "name": "contractInterface",
          "type": "string"
        }
      ],
      "stateMutability": "view",
      "type": "function"
    },
    {
      "inputs": [
        {
          "internalType": "address",
          "name": "",
          "type": "address"
        }
      ],
      "name": "fundingStrategies",
      "outputs": [
        {
          "internalType": "address",
          "name": "addr",
          "type": "address"
        },
        {
          "internalType": "string",
          "name": "contractInterface",
          "type": "string"
        }
      ],
      "stateMutability": "view",
      "type": "function"
    },
    {
      "inputs": [
        {
          "internalType": "string",
          "name": "id",
          "type": "string"
        }
      ],
      "name": "getAddress",
      "outputs": [
        {
          "internalType": "address",
          "name": "",
          "type": "address"
        }
      ],
      "stateMutability": "view",
      "type": "function"
    },
    {
      "inputs": [
        {
          "internalType": "address",
          "name": "owner",
          "type": "address"
        }
      ],
      "name": "initialize",
      "outputs": [],
      "stateMutability": "nonpayable",
      "type": "function"
    },
    {
      "inputs": [],
      "name": "owner",
      "outputs": [
        {
          "internalType": "address",
          "name": "",
          "type": "address"
        }
      ],
      "stateMutability": "view",
      "type": "function"
    },
    {
      "inputs": [
        {
          "internalType": "address",
          "name": "",
          "type": "address"
        }
      ],
      "name": "plugins",
      "outputs": [
        {
          "internalType": "address",
          "name": "addr",
          "type": "address"
        },
        {
          "internalType": "string",
          "name": "contractInterface",
          "type": "string"
        }
      ],
      "stateMutability": "view",
      "type": "function"
    },
    {
      "inputs": [
        {
          "internalType": "address",
          "name": "",
          "type": "address"
        }
      ],
      "name": "redemptionStrategies",
      "outputs": [
        {
          "internalType": "address",
          "name": "addr",
          "type": "address"
        },
        {
          "internalType": "string",
          "name": "contractInterface",
          "type": "string"
        }
      ],
      "stateMutability": "view",
      "type": "function"
    },
    {
      "inputs": [],
      "name": "renounceOwnership",
      "outputs": [],
      "stateMutability": "nonpayable",
      "type": "function"
    },
    {
      "inputs": [
        {
          "internalType": "string",
          "name": "id",
          "type": "string"
        },
        {
          "internalType": "address",
          "name": "newAddress",
          "type": "address"
        }
      ],
      "name": "setAddress",
      "outputs": [],
      "stateMutability": "nonpayable",
      "type": "function"
    },
    {
      "inputs": [
        {
          "internalType": "address",
          "name": "rewardToken",
          "type": "address"
        },
        {
          "internalType": "address",
          "name": "flywheelRewardsModule",
          "type": "address"
        },
        {
          "internalType": "string",
          "name": "contractInterface",
          "type": "string"
        }
      ],
      "name": "setFlywheelRewards",
      "outputs": [],
      "stateMutability": "nonpayable",
      "type": "function"
    },
    {
      "inputs": [
        {
          "internalType": "address",
          "name": "asset",
          "type": "address"
        },
        {
          "internalType": "address",
          "name": "strategy",
          "type": "address"
        },
        {
          "internalType": "string",
          "name": "contractInterface",
          "type": "string"
        }
      ],
      "name": "setFundingStrategy",
      "outputs": [],
      "stateMutability": "nonpayable",
      "type": "function"
    },
    {
      "inputs": [
        {
          "internalType": "address",
          "name": "asset",
          "type": "address"
        },
        {
          "internalType": "address",
          "name": "plugin",
          "type": "address"
        },
        {
          "internalType": "string",
          "name": "contractInterface",
          "type": "string"
        }
      ],
      "name": "setPlugin",
      "outputs": [],
      "stateMutability": "nonpayable",
      "type": "function"
    },
    {
      "inputs": [
        {
          "internalType": "address",
          "name": "asset",
          "type": "address"
        },
        {
          "internalType": "address",
          "name": "strategy",
          "type": "address"
        },
        {
          "internalType": "string",
          "name": "contractInterface",
          "type": "string"
        }
      ],
      "name": "setRedemptionStrategy",
      "outputs": [],
      "stateMutability": "nonpayable",
      "type": "function"
    },
    {
      "inputs": [
        {
          "internalType": "address",
          "name": "newOwner",
          "type": "address"
        }
      ],
      "name": "transferOwnership",
      "outputs": [],
      "stateMutability": "nonpayable",
      "type": "function"
    }
  ],
  "transactionHash": "0xbc5f22a64a189bbf118539f8275333814cee784a0cde6da2edb7b03b1f7d7f64",
  "args": [],
  "numDeployments": 1,
  "bytecode": {
    "object": "0x608060405234801561001057600080fd5b50610d25806100206000396000f3fe608060405234801561001057600080fd5b50600436106100ea5760003560e01c80638da5cb5b1161008c578063bf40fac111610066578063bf40fac1146101cd578063c1b92209146101e0578063c4d66de8146101f3578063f2fde38b1461020657600080fd5b80638da5cb5b146101825780639b2ea4bd146101a7578063a11b73a6146101ba57600080fd5b80634b12e643116100c85780634b12e643146101415780635b7e4c9614610154578063715018a61461016757806381bc36321461016f57600080fd5b80632322b4b9146100ef57806328918a6a146101045780634172e7f91461012e575b600080fd5b6101026100fd366004610a93565b610219565b005b610117610112366004610af4565b61030b565b604051610125929190610b16565b60405180910390f35b61011761013c366004610af4565b6103ba565b61011761014f366004610af4565b6103e6565b610117610162366004610af4565b610412565b61010261043e565b61010261017d366004610a93565b610452565b6033546001600160a01b03165b6040516001600160a01b039091168152602001610125565b6101026101b5366004610b7b565b6104f5565b6101026101c8366004610a93565b61057b565b61018f6101db366004610bcf565b61061e565b6101026101ee366004610a93565b610653565b610102610201366004610af4565b6106f6565b610102610214366004610af4565b610816565b61022161088f565b6040518060400160405280846001600160a01b0316815260200183838080601f01602080910402602001604051908101604052809392919081815260200183838082843760009201829052509390945250506001600160a01b038781168252606860209081526040909220845181546001600160a01b03191692169190911781558382015180519193506102bc926001850192910190610995565b50905050836001600160a01b03167fafc70cce23b654c66339f44ecc383ecc0777fcb43efe8529795baf4c10e0dbdb8383866040516102fd93929190610c3a565b60405180910390a250505050565b606860205260009081526040902080546001820180546001600160a01b03909216929161033790610c66565b80601f016020809104026020016040519081016040528092919081815260200182805461036390610c66565b80156103b05780601f10610385576101008083540402835291602001916103b0565b820191906000526020600020905b81548152906001019060200180831161039357829003601f168201915b5050505050905082565b606660205260009081526040902080546001820180546001600160a01b03909216929161033790610c66565b606760205260009081526040902080546001820180546001600160a01b03909216929161033790610c66565b606960205260009081526040902080546001820180546001600160a01b03909216929161033790610c66565b61044661088f565b61045060006108e9565b565b61045a61088f565b6040518060400160405280846001600160a01b0316815260200183838080601f01602080910402602001604051908101604052809392919081815260200183838082843760009201829052509390945250506001600160a01b038781168252606760209081526040909220845181546001600160a01b03191692169190911781558382015180519193506102bc926001850192910190610995565b6104fd61088f565b8060658484604051610510929190610ca1565b90815260405190819003602001812080546001600160a01b039384166001600160a01b0319909116179055908216907f188466739ff00cc68bfb2367d23ae4b855264264fe1624caa8884399af23454c9061056e9086908690610cb1565b60405180910390a2505050565b61058361088f565b6040518060400160405280846001600160a01b0316815260200183838080601f01602080910402602001604051908101604052809392919081815260200183838082843760009201829052509390945250506001600160a01b038781168252606660209081526040909220845181546001600160a01b03191692169190911781558382015180519193506102bc926001850192910190610995565b600060658383604051610632929190610ca1565b908152604051908190036020019020546001600160a01b0316905092915050565b61065b61088f565b6040518060400160405280846001600160a01b0316815260200183838080601f01602080910402602001604051908101604052809392919081815260200183838082843760009201829052509390945250506001600160a01b038781168252606960209081526040909220845181546001600160a01b03191692169190911781558382015180519193506102bc926001850192910190610995565b600054610100900460ff16158080156107165750600054600160ff909116105b806107305750303b158015610730575060005460ff166001145b6107985760405162461bcd60e51b815260206004820152602e60248201527f496e697469616c697a61626c653a20636f6e747261637420697320616c72656160448201526d191e481a5b9a5d1a585b1a5e995960921b60648201526084015b60405180910390fd5b6000805460ff1916600117905580156107bb576000805461ff0019166101001790555b6107c361093b565b6107cc826108e9565b8015610812576000805461ff0019169055604051600181527f7f26b83ff96e1f2b6a682f133852f6798a09c465da95921460cefb38474024989060200160405180910390a15b5050565b61081e61088f565b6001600160a01b0381166108835760405162461bcd60e51b815260206004820152602660248201527f4f776e61626c653a206e6577206f776e657220697320746865207a65726f206160448201526564647265737360d01b606482015260840161078f565b61088c816108e9565b50565b6033546001600160a01b031633146104505760405162461bcd60e51b815260206004820181905260248201527f4f776e61626c653a2063616c6c6572206973206e6f7420746865206f776e6572604482015260640161078f565b603380546001600160a01b038381166001600160a01b0319831681179093556040519116919082907f8be0079c531659141344cd1fd0a4f28419497f9722a3daafe3b4186f6b6457e090600090a35050565b600054610100900460ff166109625760405162461bcd60e51b815260040161078f90610ccd565b610450600054610100900460ff1661098c5760405162461bcd60e51b815260040161078f90610ccd565b610450336108e9565b8280546109a190610c66565b90600052602060002090601f0160209004810192826109c35760008555610a09565b82601f106109dc57805160ff1916838001178555610a09565b82800160010185558215610a09579182015b82811115610a095782518255916020019190600101906109ee565b50610a15929150610a19565b5090565b5b80821115610a155760008155600101610a1a565b80356001600160a01b0381168114610a4557600080fd5b919050565b60008083601f840112610a5c57600080fd5b50813567ffffffffffffffff811115610a7457600080fd5b602083019150836020828501011115610a8c57600080fd5b9250929050565b60008060008060608587031215610aa957600080fd5b610ab285610a2e565b9350610ac060208601610a2e565b9250604085013567ffffffffffffffff811115610adc57600080fd5b610ae887828801610a4a565b95989497509550505050565b600060208284031215610b0657600080fd5b610b0f82610a2e565b9392505050565b60018060a01b038316815260006020604081840152835180604085015260005b81811015610b5257858101830151858201606001528201610b36565b81811115610b64576000606083870101525b50601f01601f191692909201606001949350505050565b600080600060408486031215610b9057600080fd5b833567ffffffffffffffff811115610ba757600080fd5b610bb386828701610a4a565b9094509250610bc6905060208501610a2e565b90509250925092565b60008060208385031215610be257600080fd5b823567ffffffffffffffff811115610bf957600080fd5b610c0585828601610a4a565b90969095509350505050565b81835281816020850137506000828201602090810191909152601f909101601f19169091010190565b604081526000610c4e604083018587610c11565b905060018060a01b0383166020830152949350505050565b600181811c90821680610c7a57607f821691505b60208210811415610c9b57634e487b7160e01b600052602260045260246000fd5b50919050565b8183823760009101908152919050565b602081526000610cc5602083018486610c11565b949350505050565b6020808252602b908201527f496e697469616c697a61626c653a20636f6e7472616374206973206e6f74206960408201526a6e697469616c697a696e6760a81b60608201526080019056fea164736f6c634300080a000a",
    "linkReferences": {}
  },
  "methodIdentifiers": {
    "flywheelRewards(address)": "4172e7f9",
    "fundingStrategies(address)": "5b7e4c96",
    "getAddress(string)": "bf40fac1",
    "initialize(address)": "c4d66de8",
    "owner()": "8da5cb5b",
    "plugins(address)": "4b12e643",
    "redemptionStrategies(address)": "28918a6a",
    "renounceOwnership()": "715018a6",
    "setAddress(string,address)": "9b2ea4bd",
    "setFlywheelRewards(address,address,string)": "a11b73a6",
    "setFundingStrategy(address,address,string)": "c1b92209",
    "setPlugin(address,address,string)": "81bc3632",
    "setRedemptionStrategy(address,address,string)": "2322b4b9",
    "transferOwnership(address)": "f2fde38b"
  }
}