{
  "address": "0x79C227f417e226759bB8aD874Af7b636361d5b3e",
  "abi": [
    {
      "anonymous": false,
      "inputs": [
        {
          "indexed": false,
          "internalType": "uint256",
          "name": "cashPrior",
          "type": "uint256"
        },
        {
          "indexed": false,
          "internalType": "uint256",
          "name": "interestAccumulated",
          "type": "uint256"
        },
        {
          "indexed": false,
          "internalType": "uint256",
          "name": "borrowIndex",
          "type": "uint256"
        },
        {
          "indexed": false,
          "internalType": "uint256",
          "name": "totalBorrows",
          "type": "uint256"
        }
      ],
      "name": "AccrueInterest",
      "type": "event"
    },
    {
      "anonymous": false,
      "inputs": [
        {
          "indexed": true,
          "internalType": "address",
          "name": "owner",
          "type": "address"
        },
        {
          "indexed": true,
          "internalType": "address",
          "name": "spender",
          "type": "address"
        },
        {
          "indexed": false,
          "internalType": "uint256",
          "name": "amount",
          "type": "uint256"
        }
      ],
      "name": "Approval",
      "type": "event"
    },
    {
      "anonymous": false,
      "inputs": [
        {
          "indexed": false,
          "internalType": "address",
          "name": "borrower",
          "type": "address"
        },
        {
          "indexed": false,
          "internalType": "uint256",
          "name": "borrowAmount",
          "type": "uint256"
        },
        {
          "indexed": false,
          "internalType": "uint256",
          "name": "accountBorrows",
          "type": "uint256"
        },
        {
          "indexed": false,
          "internalType": "uint256",
          "name": "totalBorrows",
          "type": "uint256"
        }
      ],
      "name": "Borrow",
      "type": "event"
    },
    {
      "anonymous": false,
      "inputs": [
        {
          "indexed": false,
          "internalType": "uint256",
          "name": "error",
          "type": "uint256"
        },
        {
          "indexed": false,
          "internalType": "uint256",
          "name": "info",
          "type": "uint256"
        },
        {
          "indexed": false,
          "internalType": "uint256",
          "name": "detail",
          "type": "uint256"
        }
      ],
      "name": "Failure",
      "type": "event"
    },
    {
      "anonymous": false,
      "inputs": [
        {
          "indexed": false,
          "internalType": "address",
          "name": "liquidator",
          "type": "address"
        },
        {
          "indexed": false,
          "internalType": "address",
          "name": "borrower",
          "type": "address"
        },
        {
          "indexed": false,
          "internalType": "uint256",
          "name": "repayAmount",
          "type": "uint256"
        },
        {
          "indexed": false,
          "internalType": "address",
          "name": "cTokenCollateral",
          "type": "address"
        },
        {
          "indexed": false,
          "internalType": "uint256",
          "name": "seizeTokens",
          "type": "uint256"
        }
      ],
      "name": "LiquidateBorrow",
      "type": "event"
    },
    {
      "anonymous": false,
      "inputs": [
        {
          "indexed": false,
          "internalType": "address",
          "name": "minter",
          "type": "address"
        },
        {
          "indexed": false,
          "internalType": "uint256",
          "name": "mintAmount",
          "type": "uint256"
        },
        {
          "indexed": false,
          "internalType": "uint256",
          "name": "mintTokens",
          "type": "uint256"
        }
      ],
      "name": "Mint",
      "type": "event"
    },
    {
      "anonymous": false,
      "inputs": [
        {
          "indexed": false,
          "internalType": "uint256",
          "name": "oldAdminFeeMantissa",
          "type": "uint256"
        },
        {
          "indexed": false,
          "internalType": "uint256",
          "name": "newAdminFeeMantissa",
          "type": "uint256"
        }
      ],
      "name": "NewAdminFee",
      "type": "event"
    },
    {
      "anonymous": false,
      "inputs": [
        {
          "indexed": false,
          "internalType": "contract ComptrollerInterface",
          "name": "oldComptroller",
          "type": "address"
        },
        {
          "indexed": false,
          "internalType": "contract ComptrollerInterface",
          "name": "newComptroller",
          "type": "address"
        }
      ],
      "name": "NewComptroller",
      "type": "event"
    },
    {
      "anonymous": false,
      "inputs": [
        {
          "indexed": false,
          "internalType": "uint256",
          "name": "oldFuseFeeMantissa",
          "type": "uint256"
        },
        {
          "indexed": false,
          "internalType": "uint256",
          "name": "newFuseFeeMantissa",
          "type": "uint256"
        }
      ],
      "name": "NewFuseFee",
      "type": "event"
    },
    {
      "anonymous": false,
      "inputs": [
        {
          "indexed": false,
          "internalType": "address",
          "name": "oldImplementation",
          "type": "address"
        },
        {
          "indexed": false,
          "internalType": "address",
          "name": "newImplementation",
          "type": "address"
        }
      ],
      "name": "NewImplementation",
      "type": "event"
    },
    {
      "anonymous": false,
      "inputs": [
        {
          "indexed": false,
          "internalType": "contract InterestRateModel",
          "name": "oldInterestRateModel",
          "type": "address"
        },
        {
          "indexed": false,
          "internalType": "contract InterestRateModel",
          "name": "newInterestRateModel",
          "type": "address"
        }
      ],
      "name": "NewMarketInterestRateModel",
      "type": "event"
    },
    {
      "anonymous": false,
      "inputs": [
        {
          "indexed": false,
          "internalType": "address",
          "name": "oldImpl",
          "type": "address"
        },
        {
          "indexed": false,
          "internalType": "address",
          "name": "newImpl",
          "type": "address"
        }
      ],
      "name": "NewPluginImplementation",
      "type": "event"
    },
    {
      "anonymous": false,
      "inputs": [
        {
          "indexed": false,
          "internalType": "uint256",
          "name": "oldReserveFactorMantissa",
          "type": "uint256"
        },
        {
          "indexed": false,
          "internalType": "uint256",
          "name": "newReserveFactorMantissa",
          "type": "uint256"
        }
      ],
      "name": "NewReserveFactor",
      "type": "event"
    },
    {
      "anonymous": false,
      "inputs": [
        {
          "indexed": false,
          "internalType": "address",
          "name": "redeemer",
          "type": "address"
        },
        {
          "indexed": false,
          "internalType": "uint256",
          "name": "redeemAmount",
          "type": "uint256"
        },
        {
          "indexed": false,
          "internalType": "uint256",
          "name": "redeemTokens",
          "type": "uint256"
        }
      ],
      "name": "Redeem",
      "type": "event"
    },
    {
      "anonymous": false,
      "inputs": [
        {
          "indexed": false,
          "internalType": "address",
          "name": "payer",
          "type": "address"
        },
        {
          "indexed": false,
          "internalType": "address",
          "name": "borrower",
          "type": "address"
        },
        {
          "indexed": false,
          "internalType": "uint256",
          "name": "repayAmount",
          "type": "uint256"
        },
        {
          "indexed": false,
          "internalType": "uint256",
          "name": "accountBorrows",
          "type": "uint256"
        },
        {
          "indexed": false,
          "internalType": "uint256",
          "name": "totalBorrows",
          "type": "uint256"
        }
      ],
      "name": "RepayBorrow",
      "type": "event"
    },
    {
      "anonymous": false,
      "inputs": [
        {
          "indexed": false,
          "internalType": "address",
          "name": "benefactor",
          "type": "address"
        },
        {
          "indexed": false,
          "internalType": "uint256",
          "name": "addAmount",
          "type": "uint256"
        },
        {
          "indexed": false,
          "internalType": "uint256",
          "name": "newTotalReserves",
          "type": "uint256"
        }
      ],
      "name": "ReservesAdded",
      "type": "event"
    },
    {
      "anonymous": false,
      "inputs": [
        {
          "indexed": false,
          "internalType": "address",
          "name": "admin",
          "type": "address"
        },
        {
          "indexed": false,
          "internalType": "uint256",
          "name": "reduceAmount",
          "type": "uint256"
        },
        {
          "indexed": false,
          "internalType": "uint256",
          "name": "newTotalReserves",
          "type": "uint256"
        }
      ],
      "name": "ReservesReduced",
      "type": "event"
    },
    {
      "anonymous": false,
      "inputs": [
        {
          "indexed": true,
          "internalType": "address",
          "name": "from",
          "type": "address"
        },
        {
          "indexed": true,
          "internalType": "address",
          "name": "to",
          "type": "address"
        },
        {
          "indexed": false,
          "internalType": "uint256",
          "name": "amount",
          "type": "uint256"
        }
      ],
      "name": "Transfer",
      "type": "event"
    },
    {
      "inputs": [],
      "name": "PRECISION",
      "outputs": [
        {
          "internalType": "uint256",
          "name": "",
          "type": "uint256"
        }
      ],
      "stateMutability": "view",
      "type": "function"
    },
    {
      "inputs": [
        {
          "internalType": "bytes",
          "name": "data",
          "type": "bytes"
        }
      ],
      "name": "_becomeImplementation",
      "outputs": [],
      "stateMutability": "nonpayable",
      "type": "function"
    },
    {
      "inputs": [],
      "name": "_prepare",
      "outputs": [],
      "stateMutability": "payable",
      "type": "function"
    },
    {
      "inputs": [
        {
          "internalType": "uint256",
          "name": "newAdminFeeMantissa",
          "type": "uint256"
        }
      ],
      "name": "_setAdminFee",
      "outputs": [
        {
          "internalType": "uint256",
          "name": "",
          "type": "uint256"
        }
      ],
      "stateMutability": "nonpayable",
      "type": "function"
    },
    {
      "inputs": [
        {
          "internalType": "address",
          "name": "implementation_",
          "type": "address"
        },
        {
          "internalType": "bool",
          "name": "allowResign",
          "type": "bool"
        },
        {
          "internalType": "bytes",
          "name": "becomeImplementationData",
          "type": "bytes"
        }
      ],
      "name": "_setImplementationSafe",
      "outputs": [],
      "stateMutability": "nonpayable",
      "type": "function"
    },
    {
      "inputs": [
        {
          "internalType": "contract InterestRateModel",
          "name": "newInterestRateModel",
          "type": "address"
        }
      ],
      "name": "_setInterestRateModel",
      "outputs": [
        {
          "internalType": "uint256",
          "name": "",
          "type": "uint256"
        }
      ],
      "stateMutability": "nonpayable",
      "type": "function"
    },
    {
      "inputs": [
        {
          "internalType": "string",
          "name": "_name",
          "type": "string"
        },
        {
          "internalType": "string",
          "name": "_symbol",
          "type": "string"
        }
      ],
      "name": "_setNameAndSymbol",
      "outputs": [],
      "stateMutability": "nonpayable",
      "type": "function"
    },
    {
      "inputs": [
        {
          "internalType": "uint256",
          "name": "newReserveFactorMantissa",
          "type": "uint256"
        }
      ],
      "name": "_setReserveFactor",
      "outputs": [
        {
          "internalType": "uint256",
          "name": "",
          "type": "uint256"
        }
      ],
      "stateMutability": "nonpayable",
      "type": "function"
    },
    {
      "inputs": [
        {
          "internalType": "address",
          "name": "_plugin",
          "type": "address"
        }
      ],
      "name": "_updatePlugin",
      "outputs": [],
      "stateMutability": "nonpayable",
      "type": "function"
    },
    {
      "inputs": [
        {
          "internalType": "uint256",
          "name": "withdrawAmount",
          "type": "uint256"
        }
      ],
      "name": "_withdrawAdminFees",
      "outputs": [
        {
          "internalType": "uint256",
          "name": "",
          "type": "uint256"
        }
      ],
      "stateMutability": "nonpayable",
      "type": "function"
    },
    {
      "inputs": [
        {
          "internalType": "uint256",
          "name": "withdrawAmount",
          "type": "uint256"
        }
      ],
      "name": "_withdrawFuseFees",
      "outputs": [
        {
          "internalType": "uint256",
          "name": "",
          "type": "uint256"
        }
      ],
      "stateMutability": "nonpayable",
      "type": "function"
    },
    {
      "inputs": [],
      "name": "accrualBlockNumber",
      "outputs": [
        {
          "internalType": "uint256",
          "name": "",
          "type": "uint256"
        }
      ],
      "stateMutability": "view",
      "type": "function"
    },
    {
      "inputs": [],
      "name": "accrueInterest",
      "outputs": [
        {
          "internalType": "uint256",
          "name": "",
          "type": "uint256"
        }
      ],
      "stateMutability": "nonpayable",
      "type": "function"
    },
    {
      "inputs": [],
      "name": "adminFeeMantissa",
      "outputs": [
        {
          "internalType": "uint256",
          "name": "",
          "type": "uint256"
        }
      ],
      "stateMutability": "view",
      "type": "function"
    },
    {
      "inputs": [
        {
          "internalType": "address",
          "name": "owner",
          "type": "address"
        },
        {
          "internalType": "address",
          "name": "spender",
          "type": "address"
        }
      ],
      "name": "allowance",
      "outputs": [
        {
          "internalType": "uint256",
          "name": "",
          "type": "uint256"
        }
      ],
      "stateMutability": "view",
      "type": "function"
    },
    {
      "inputs": [
        {
          "internalType": "address",
          "name": "spender",
          "type": "address"
        },
        {
          "internalType": "uint256",
          "name": "amount",
          "type": "uint256"
        }
      ],
      "name": "approve",
      "outputs": [
        {
          "internalType": "bool",
          "name": "",
          "type": "bool"
        }
      ],
      "stateMutability": "nonpayable",
      "type": "function"
    },
    {
      "inputs": [
        {
          "internalType": "address",
          "name": "_token",
          "type": "address"
        },
        {
          "internalType": "address",
          "name": "_spender",
          "type": "address"
        }
      ],
      "name": "approve",
      "outputs": [],
      "stateMutability": "nonpayable",
      "type": "function"
    },
    {
      "inputs": [
        {
          "internalType": "address",
          "name": "owner",
          "type": "address"
        }
      ],
      "name": "balanceOf",
      "outputs": [
        {
          "internalType": "uint256",
          "name": "",
          "type": "uint256"
        }
      ],
      "stateMutability": "view",
      "type": "function"
    },
    {
      "inputs": [
        {
          "internalType": "address",
          "name": "owner",
          "type": "address"
        }
      ],
      "name": "balanceOfUnderlying",
      "outputs": [
        {
          "internalType": "uint256",
          "name": "",
          "type": "uint256"
        }
      ],
      "stateMutability": "nonpayable",
      "type": "function"
    },
    {
      "inputs": [
        {
          "internalType": "uint256",
          "name": "borrowAmount",
          "type": "uint256"
        }
      ],
      "name": "borrow",
      "outputs": [
        {
          "internalType": "uint256",
          "name": "",
          "type": "uint256"
        }
      ],
      "stateMutability": "nonpayable",
      "type": "function"
    },
    {
      "inputs": [
        {
          "internalType": "address",
          "name": "account",
          "type": "address"
        }
      ],
      "name": "borrowBalanceCurrent",
      "outputs": [
        {
          "internalType": "uint256",
          "name": "",
          "type": "uint256"
        }
      ],
      "stateMutability": "nonpayable",
      "type": "function"
    },
    {
      "inputs": [
        {
          "internalType": "address",
          "name": "account",
          "type": "address"
        }
      ],
      "name": "borrowBalanceStored",
      "outputs": [
        {
          "internalType": "uint256",
          "name": "",
          "type": "uint256"
        }
      ],
      "stateMutability": "view",
      "type": "function"
    },
    {
      "inputs": [],
      "name": "borrowIndex",
      "outputs": [
        {
          "internalType": "uint256",
          "name": "",
          "type": "uint256"
        }
      ],
      "stateMutability": "view",
      "type": "function"
    },
    {
      "inputs": [],
      "name": "borrowRatePerBlock",
      "outputs": [
        {
          "internalType": "uint256",
          "name": "",
          "type": "uint256"
        }
      ],
      "stateMutability": "view",
      "type": "function"
    },
    {
      "inputs": [],
      "name": "claim",
      "outputs": [],
      "stateMutability": "nonpayable",
      "type": "function"
    },
    {
      "inputs": [],
      "name": "comptroller",
      "outputs": [
        {
          "internalType": "contract ComptrollerInterface",
          "name": "",
          "type": "address"
        }
      ],
      "stateMutability": "view",
      "type": "function"
    },
    {
      "inputs": [],
      "name": "decimals",
      "outputs": [
        {
          "internalType": "uint8",
          "name": "",
          "type": "uint8"
        }
      ],
      "stateMutability": "view",
      "type": "function"
    },
    {
      "inputs": [],
      "name": "exchangeRateCurrent",
      "outputs": [
        {
          "internalType": "uint256",
          "name": "",
          "type": "uint256"
        }
      ],
      "stateMutability": "nonpayable",
      "type": "function"
    },
    {
      "inputs": [],
      "name": "exchangeRateStored",
      "outputs": [
        {
          "internalType": "uint256",
          "name": "",
          "type": "uint256"
        }
      ],
      "stateMutability": "view",
      "type": "function"
    },
    {
      "inputs": [],
      "name": "feeSeizeShareMantissa",
      "outputs": [
        {
          "internalType": "uint256",
          "name": "",
          "type": "uint256"
        }
      ],
      "stateMutability": "view",
      "type": "function"
    },
    {
      "inputs": [],
      "name": "fuseAdmin",
      "outputs": [
        {
          "internalType": "address payable",
          "name": "",
          "type": "address"
        }
      ],
      "stateMutability": "view",
      "type": "function"
    },
    {
      "inputs": [],
      "name": "fuseFeeMantissa",
      "outputs": [
        {
          "internalType": "uint256",
          "name": "",
          "type": "uint256"
        }
      ],
      "stateMutability": "view",
      "type": "function"
    },
    {
      "inputs": [
        {
          "internalType": "address",
          "name": "account",
          "type": "address"
        }
      ],
      "name": "getAccountSnapshot",
      "outputs": [
        {
          "internalType": "uint256",
          "name": "",
          "type": "uint256"
        },
        {
          "internalType": "uint256",
          "name": "",
          "type": "uint256"
        },
        {
          "internalType": "uint256",
          "name": "",
          "type": "uint256"
        },
        {
          "internalType": "uint256",
          "name": "",
          "type": "uint256"
        }
      ],
      "stateMutability": "view",
      "type": "function"
    },
    {
      "inputs": [],
      "name": "getCash",
      "outputs": [
        {
          "internalType": "uint256",
          "name": "",
          "type": "uint256"
        }
      ],
      "stateMutability": "view",
      "type": "function"
    },
    {
      "inputs": [],
      "name": "implementation",
      "outputs": [
        {
          "internalType": "address",
          "name": "",
          "type": "address"
        }
      ],
      "stateMutability": "view",
      "type": "function"
    },
    {
      "inputs": [
        {
          "internalType": "address",
          "name": "underlying_",
          "type": "address"
        },
        {
          "internalType": "contract ComptrollerInterface",
          "name": "comptroller_",
          "type": "address"
        },
        {
          "internalType": "address payable",
          "name": "fuseAdmin_",
          "type": "address"
        },
        {
          "internalType": "contract InterestRateModel",
          "name": "interestRateModel_",
          "type": "address"
        },
        {
          "internalType": "string",
          "name": "name_",
          "type": "string"
        },
        {
          "internalType": "string",
          "name": "symbol_",
          "type": "string"
        },
        {
          "internalType": "uint256",
          "name": "reserveFactorMantissa_",
          "type": "uint256"
        },
        {
          "internalType": "uint256",
          "name": "adminFeeMantissa_",
          "type": "uint256"
        }
      ],
      "name": "initialize",
      "outputs": [],
      "stateMutability": "nonpayable",
      "type": "function"
    },
    {
      "inputs": [
        {
          "internalType": "contract ComptrollerInterface",
          "name": "comptroller_",
          "type": "address"
        },
        {
          "internalType": "address payable",
          "name": "fuseAdmin_",
          "type": "address"
        },
        {
          "internalType": "contract InterestRateModel",
          "name": "interestRateModel_",
          "type": "address"
        },
        {
          "internalType": "uint256",
          "name": "initialExchangeRateMantissa_",
          "type": "uint256"
        },
        {
          "internalType": "string",
          "name": "name_",
          "type": "string"
        },
        {
          "internalType": "string",
          "name": "symbol_",
          "type": "string"
        },
        {
          "internalType": "uint8",
          "name": "decimals_",
          "type": "uint8"
        },
        {
          "internalType": "uint256",
          "name": "reserveFactorMantissa_",
          "type": "uint256"
        },
        {
          "internalType": "uint256",
          "name": "adminFeeMantissa_",
          "type": "uint256"
        }
      ],
      "name": "initialize",
      "outputs": [],
      "stateMutability": "nonpayable",
      "type": "function"
    },
    {
      "inputs": [],
      "name": "interestRateModel",
      "outputs": [
        {
          "internalType": "contract InterestRateModel",
          "name": "",
          "type": "address"
        }
      ],
      "stateMutability": "view",
      "type": "function"
    },
    {
      "inputs": [],
      "name": "isCEther",
      "outputs": [
        {
          "internalType": "bool",
          "name": "",
          "type": "bool"
        }
      ],
      "stateMutability": "nonpayable",
      "type": "function"
    },
    {
      "inputs": [],
      "name": "isCToken",
      "outputs": [
        {
          "internalType": "bool",
          "name": "",
          "type": "bool"
        }
      ],
      "stateMutability": "nonpayable",
      "type": "function"
    },
    {
      "inputs": [
        {
          "internalType": "address",
          "name": "borrower",
          "type": "address"
        },
        {
          "internalType": "uint256",
          "name": "repayAmount",
          "type": "uint256"
        },
        {
          "internalType": "contract CTokenInterface",
          "name": "cTokenCollateral",
          "type": "address"
        }
      ],
      "name": "liquidateBorrow",
      "outputs": [
        {
          "internalType": "uint256",
          "name": "",
          "type": "uint256"
        }
      ],
      "stateMutability": "nonpayable",
      "type": "function"
    },
    {
      "inputs": [
        {
          "internalType": "uint256",
          "name": "mintAmount",
          "type": "uint256"
        }
      ],
      "name": "mint",
      "outputs": [
        {
          "internalType": "uint256",
          "name": "",
          "type": "uint256"
        }
      ],
      "stateMutability": "nonpayable",
      "type": "function"
    },
    {
      "inputs": [],
      "name": "name",
      "outputs": [
        {
          "internalType": "string",
          "name": "",
          "type": "string"
        }
      ],
      "stateMutability": "view",
      "type": "function"
    },
    {
      "inputs": [],
      "name": "plugin",
      "outputs": [
        {
          "internalType": "contract IERC4626",
          "name": "",
          "type": "address"
        }
      ],
      "stateMutability": "view",
      "type": "function"
    },
    {
      "inputs": [],
      "name": "protocolSeizeShareMantissa",
      "outputs": [
        {
          "internalType": "uint256",
          "name": "",
          "type": "uint256"
        }
      ],
      "stateMutability": "view",
      "type": "function"
    },
    {
      "inputs": [
        {
          "internalType": "uint256",
          "name": "redeemTokens",
          "type": "uint256"
        }
      ],
      "name": "redeem",
      "outputs": [
        {
          "internalType": "uint256",
          "name": "",
          "type": "uint256"
        }
      ],
      "stateMutability": "nonpayable",
      "type": "function"
    },
    {
      "inputs": [
        {
          "internalType": "uint256",
          "name": "redeemAmount",
          "type": "uint256"
        }
      ],
      "name": "redeemUnderlying",
      "outputs": [
        {
          "internalType": "uint256",
          "name": "",
          "type": "uint256"
        }
      ],
      "stateMutability": "nonpayable",
      "type": "function"
    },
    {
      "inputs": [
        {
          "internalType": "uint256",
          "name": "repayAmount",
          "type": "uint256"
        }
      ],
      "name": "repayBorrow",
      "outputs": [
        {
          "internalType": "uint256",
          "name": "",
          "type": "uint256"
        }
      ],
      "stateMutability": "nonpayable",
      "type": "function"
    },
    {
      "inputs": [
        {
          "internalType": "address",
          "name": "borrower",
          "type": "address"
        },
        {
          "internalType": "uint256",
          "name": "repayAmount",
          "type": "uint256"
        }
      ],
      "name": "repayBorrowBehalf",
      "outputs": [
        {
          "internalType": "uint256",
          "name": "",
          "type": "uint256"
        }
      ],
      "stateMutability": "nonpayable",
      "type": "function"
    },
    {
      "inputs": [],
      "name": "reserveFactorMantissa",
      "outputs": [
        {
          "internalType": "uint256",
          "name": "",
          "type": "uint256"
        }
      ],
      "stateMutability": "view",
      "type": "function"
    },
    {
      "inputs": [
        {
          "internalType": "address",
          "name": "liquidator",
          "type": "address"
        },
        {
          "internalType": "address",
          "name": "borrower",
          "type": "address"
        },
        {
          "internalType": "uint256",
          "name": "seizeTokens",
          "type": "uint256"
        }
      ],
      "name": "seize",
      "outputs": [
        {
          "internalType": "uint256",
          "name": "",
          "type": "uint256"
        }
      ],
      "stateMutability": "nonpayable",
      "type": "function"
    },
    {
      "inputs": [],
      "name": "supplyRatePerBlock",
      "outputs": [
        {
          "internalType": "uint256",
          "name": "",
          "type": "uint256"
        }
      ],
      "stateMutability": "view",
      "type": "function"
    },
    {
      "inputs": [],
      "name": "symbol",
      "outputs": [
        {
          "internalType": "string",
          "name": "",
          "type": "string"
        }
      ],
      "stateMutability": "view",
      "type": "function"
    },
    {
      "inputs": [],
      "name": "totalAdminFees",
      "outputs": [
        {
          "internalType": "uint256",
          "name": "",
          "type": "uint256"
        }
      ],
      "stateMutability": "view",
      "type": "function"
    },
    {
      "inputs": [],
      "name": "totalBorrows",
      "outputs": [
        {
          "internalType": "uint256",
          "name": "",
          "type": "uint256"
        }
      ],
      "stateMutability": "view",
      "type": "function"
    },
    {
      "inputs": [],
      "name": "totalBorrowsCurrent",
      "outputs": [
        {
          "internalType": "uint256",
          "name": "",
          "type": "uint256"
        }
      ],
      "stateMutability": "nonpayable",
      "type": "function"
    },
    {
      "inputs": [],
      "name": "totalFuseFees",
      "outputs": [
        {
          "internalType": "uint256",
          "name": "",
          "type": "uint256"
        }
      ],
      "stateMutability": "view",
      "type": "function"
    },
    {
      "inputs": [],
      "name": "totalReserves",
      "outputs": [
        {
          "internalType": "uint256",
          "name": "",
          "type": "uint256"
        }
      ],
      "stateMutability": "view",
      "type": "function"
    },
    {
      "inputs": [],
      "name": "totalSupply",
      "outputs": [
        {
          "internalType": "uint256",
          "name": "",
          "type": "uint256"
        }
      ],
      "stateMutability": "view",
      "type": "function"
    },
    {
      "inputs": [
        {
          "internalType": "address",
          "name": "dst",
          "type": "address"
        },
        {
          "internalType": "uint256",
          "name": "amount",
          "type": "uint256"
        }
      ],
      "name": "transfer",
      "outputs": [
        {
          "internalType": "bool",
          "name": "",
          "type": "bool"
        }
      ],
      "stateMutability": "nonpayable",
      "type": "function"
    },
    {
      "inputs": [
        {
          "internalType": "address",
          "name": "src",
          "type": "address"
        },
        {
          "internalType": "address",
          "name": "dst",
          "type": "address"
        },
        {
          "internalType": "uint256",
          "name": "amount",
          "type": "uint256"
        }
      ],
      "name": "transferFrom",
      "outputs": [
        {
          "internalType": "bool",
          "name": "",
          "type": "bool"
        }
      ],
      "stateMutability": "nonpayable",
      "type": "function"
    },
    {
      "inputs": [],
      "name": "underlying",
      "outputs": [
        {
          "internalType": "address",
          "name": "",
          "type": "address"
        }
      ],
      "stateMutability": "view",
      "type": "function"
    }
  ],
  "transactionHash": "0xc64acff6c2ce656103bd1390bc4043f38889d9d8423b61ac00bfd4fc9759de0e",
  "args": [],
  "numDeployments": 1,
  "bytecode": {
    "object": "0x608060405234801561001057600080fd5b50615f9280620000216000396000f3fe6080604052600436106102bd5760003560e01c806306db3ecd146102c257806306fdde03146102e4578063095ea7b31461030f5780630e7527021461033f57806315761d511461036d578063173b99041461039a57806317bfdfbc146103b057806318160ddd146103d0578063182df0f5146103e657806319f496c8146103fb5780631db789441461041b578063219ef65c1461042357806323b872dd146104435780632608f81814610463578063313ce5671461048357806334154d4c146104af5780633af9e669146104cf5780633b1d21a2146104ef57806347bd3718146105045780634e71d92d1461051a57806350d85b731461052957806356e67728146105495780635c60da1b146105695780635fe3b5671461058957806361feacff146105a95780636752e702146105bf5780636c540baf146105da5780636f307dc3146105f057806370a082311461061057806373acee98146106465780637e5465ba1461065b578063852a12e31461067b5780638d02d9a11461069b5780638f840ddd146106b157806391dd36c6146106c757806395d89b41146106e757806395dd9193146106fc578063a03dce8d1461071c578063a0712d681461073c578063a6afed951461075c578063a7b820df14610771578063a9059cbb14610791578063aa5af0fd146107b1578063aaf5eb68146107c7578063ac784ddc146107e3578063ae9d70b0146107f7578063b2a02ff11461080c578063bd6d894d1461082c578063be99f11914610841578063c37f68e21461085d578063c5ebeaec1461088d578063db006a75146108ad578063dbfe7c19146108cd578063dc028ab1146108e3578063dd62ed3e146108f9578063ef01df4f1461093f578063f2b3abbd1461095f578063f3fdb15a1461097f578063f5e3c4621461099f578063f8f9da28146109bf578063fca7820b146109d4578063fe9c44ae146109f4575b600080fd5b3480156102ce57600080fd5b506102e26102dd3660046156b8565b610a08565b005b3480156102f057600080fd5b506102f9610b16565b60405161030691906157d1565b60405180910390f35b34801561031b57600080fd5b5061032f61032a3660046157e4565b610ba4565b6040519015158152602001610306565b34801561034b57600080fd5b5061035f61035a366004615810565b610c14565b604051908152602001610306565b34801561037957600080fd5b5060015461038d906001600160a01b031681565b6040516103069190615829565b3480156103a657600080fd5b5061035f600b5481565b3480156103bc57600080fd5b5061035f6103cb36600461583d565b610c28565b3480156103dc57600080fd5b5061035f60125481565b3480156103f257600080fd5b5061035f610c7f565b34801561040757600080fd5b506102e261041636600461583d565b610d10565b6102e261113f565b34801561042f57600080fd5b506102e261043e366004615874565b611275565b34801561044f57600080fd5b5061032f61045e36600461593b565b61159c565b34801561046f57600080fd5b5061035f61047e3660046157e4565b6115c2565b34801561048f57600080fd5b5060055461049d9060ff1681565b60405160ff9091168152602001610306565b3480156104bb57600080fd5b506102e26104ca3660046159bd565b6115d8565b3480156104db57600080fd5b5061035f6104ea36600461583d565b61163f565b3480156104fb57600080fd5b5061035f6116ef565b34801561051057600080fd5b5061035f600e5481565b34801561052657600080fd5b50005b34801561053557600080fd5b506102e2610544366004615a36565b6116fe565b34801561055557600080fd5b506102e2610564366004615a8e565b61177e565b34801561057557600080fd5b5060005461038d906001600160a01b031681565b34801561059557600080fd5b5060065461038d906001600160a01b031681565b3480156105b557600080fd5b5061035f60105481565b3480156105cb57600080fd5b5061035f666379da05b6000081565b3480156105e657600080fd5b5061035f600c5481565b3480156105fc57600080fd5b5060165461038d906001600160a01b031681565b34801561061c57600080fd5b5061035f61062b36600461583d565b6001600160a01b031660009081526013602052604090205490565b34801561065257600080fd5b5061035f6118e5565b34801561066757600080fd5b506102e2610676366004615ad6565b611914565b34801561068757600080fd5b5061035f610696366004615810565b611a07565b3480156106a757600080fd5b5061035f60095481565b3480156106bd57600080fd5b5061035f600f5481565b3480156106d357600080fd5b5061035f6106e2366004615810565b611a12565b3480156106f357600080fd5b506102f9611a69565b34801561070857600080fd5b5061035f61071736600461583d565b611a76565b34801561072857600080fd5b5061035f610737366004615810565b611b11565b34801561074857600080fd5b5061035f610757366004615810565b611b54565b34801561076857600080fd5b5061035f611b60565b34801561077d57600080fd5b5061035f61078c366004615810565b611d08565b34801561079d57600080fd5b5061032f6107ac3660046157e4565b611d4b565b3480156107bd57600080fd5b5061035f600d5481565b3480156107d357600080fd5b5061035f670de0b6b3a764000081565b3480156107ef57600080fd5b50600061032f565b34801561080357600080fd5b5061035f611d78565b34801561081857600080fd5b5061035f61082736600461593b565b611e28565b34801561083857600080fd5b5061035f611e4c565b34801561084d57600080fd5b5061035f67016345785d8a000081565b34801561086957600080fd5b5061087d61087836600461583d565b611e96565b6040516103069493929190615b0f565b34801561089957600080fd5b5061035f6108a8366004615810565b611f37565b3480156108b957600080fd5b5061035f6108c8366004615810565b611f42565b3480156108d957600080fd5b5061035f600a5481565b3480156108ef57600080fd5b5061035f60115481565b34801561090557600080fd5b5061035f610914366004615ad6565b6001600160a01b03918216600090815260146020908152604080832093909416825291909152205490565b34801561094b57600080fd5b5060175461038d906001600160a01b031681565b34801561096b57600080fd5b5061035f61097a36600461583d565b611f4d565b34801561098b57600080fd5b5060075461038d906001600160a01b031681565b3480156109ab57600080fd5b5061035f6109ba366004615b2a565b611f85565b3480156109cb57600080fd5b5061035f611f9d565b3480156109e057600080fd5b5061035f6109ef366004615810565b611fee565b348015610a0057600080fd5b50600161032f565b60006702c68af0bb14000090506000896001600160a01b031663313ce5676040518163ffffffff1660e01b8152600401602060405180830381865afa158015610a55573d6000803e3d6000fd5b505050506040513d601f19601f82011682018060405250810190610a799190615b6c565b9050610a8c898989858a8a878b8b611275565b601680546001600160a01b0319166001600160a01b038c16908117909155604080516318160ddd60e01b815290516318160ddd916004808201926020929091908290030181865afa158015610ae5573d6000803e3d6000fd5b505050506040513d601f19601f82011682018060405250810190610b099190615b89565b5050505050505050505050565b60038054610b2390615ba2565b80601f0160208091040260200160405190810160405280929190818152602001828054610b4f90615ba2565b8015610b9c5780601f10610b7157610100808354040283529160200191610b9c565b820191906000526020600020905b815481529060010190602001808311610b7f57829003601f168201915b505050505081565b3360008181526014602090815260408083206001600160a01b03871680855292528083208590555191929182907f8c5be1e5ebec7d5bd14f71427d1e84f3dd0314c0f7b2291e5b200ac8c7c3b92590610c009087815260200190565b60405180910390a360019150505b92915050565b600080610c2083612031565b509392505050565b600080610c3481612099565b6000610c3e611b60565b14610c645760405162461bcd60e51b8152600401610c5b90615bed565b60405180910390fd5b610c6d83611a76565b91505b610c798161215d565b50919050565b6000806000610c8c6121dc565b90925090506000826003811115610ca557610ca5615bd7565b14610c0e5760405162461bcd60e51b815260206004820152603560248201527f65786368616e67655261746553746f7265643a2065786368616e67655261746560448201527414dd1bdc9959125b9d195c9b985b0819985a5b1959605a1b6064820152608401610c5b565b33301480610d215750610d2161229b565b610d815760405162461bcd60e51b815260206004820152602b60248201527f6f6e6c792073656c6620616e642061646d696e732063616e2063616c6c205f7560448201526a383230ba32a8363ab3b4b760a91b6064820152608401610c5b565b6017546000906001600160a01b0316610d9a5781610da7565b6017546001600160a01b03165b600154604051637583efcf60e01b81529192506001600160a01b031690637583efcf90610dda9084908690600401615c1d565b602060405180830381865afa158015610df7573d6000803e3d6000fd5b505050506040513d601f19601f82011682018060405250810190610e1b9190615c37565b610e755760405162461bcd60e51b815260206004820152602560248201527f706c7567696e20696d706c656d656e746174696f6e206e6f742077686974656c6044820152641a5cdd195960da1b6064820152608401610c5b565b6017546001600160a01b031615801590610efe57506017546040516370a0823160e01b81526001600160a01b03909116906370a0823190610eba903090600401615829565b602060405180830381865afa158015610ed7573d6000803e3d6000fd5b505050506040513d601f19601f82011682018060405250810190610efb9190615b89565b15155b15610fe1576017546040516370a0823160e01b81526001600160a01b039091169063ba0876529082906370a0823190610f3b903090600401615829565b602060405180830381865afa158015610f58573d6000803e3d6000fd5b505050506040513d601f19601f82011682018060405250810190610f7c9190615b89565b30306040518463ffffffff1660e01b8152600401610f9c93929190615c54565b6020604051808303816000875af1158015610fbb573d6000803e3d6000fd5b505050506040513d601f19601f82011682018060405250810190610fdf9190615b89565b505b601780546001600160a01b0319166001600160a01b038481169190911790915560165460405163095ea7b360e01b815291169063095ea7b39061102c90859060001990600401615c73565b6020604051808303816000875af115801561104b573d6000803e3d6000fd5b505050506040513d601f19601f8201168201806040525081019061106f9190615c37565b506016546040516370a0823160e01b81526000916001600160a01b0316906370a08231906110a1903090600401615829565b602060405180830381865afa1580156110be573d6000803e3d6000fd5b505050506040513d601f19601f820116820180604052508101906110e29190615b89565b905080156110f3576110f381612406565b6017546040517fb32957d2794aaec3ea2c8852833af2192fe9fb518777de1f883e9e821781da7591611132916001600160a01b03909116908690615c1d565b60405180910390a1505050565b3330148015906111c15750600660009054906101000a90046001600160a01b03166001600160a01b031663dd5cd22c6040518163ffffffff1660e01b8152600401602060405180830381865afa15801561119d573d6000803e3d6000fd5b505050506040513d601f19601f820116820180604052508101906111c19190615c37565b1561127357600154600080546040516345cc970560e01b81529192839283926001600160a01b03928316926345cc9705926112029290911690600401615829565b600060405180830381865afa15801561121f573d6000803e3d6000fd5b505050506040513d6000823e601f3d908101601f191682016040526112479190810190615c8c565b60005492955090935091506001600160a01b0380851691161461126f5761126f83838361247b565b5050505b565b336001600160a01b038916146112df5760405162461bcd60e51b815260206004820152602960248201527f6f6e6c7920467573652061646d696e206d617920696e697469616c697a6520746044820152681a19481b585c9ad95d60ba1b6064820152608401610c5b565b600c541580156112ef5750600d54155b6113475760405162461bcd60e51b815260206004820152602360248201527f6d61726b6574206d6179206f6e6c7920626520696e697469616c697a6564206f6044820152626e636560e81b6064820152608401610c5b565b600180546001600160a01b0319166001600160a01b038a161790556008869055856113cd5760405162461bcd60e51b815260206004820152603060248201527f696e697469616c2065786368616e67652072617465206d75737420626520677260448201526f32b0ba32b9103a3430b7103d32b9379760811b6064820152608401610c5b565b60006113d88a61260f565b905080156114255760405162461bcd60e51b815260206004820152601a6024820152791cd95d1d1a5b99c818dbdb5c1d1c9bdb1b195c8819985a5b195960321b6044820152606401610c5b565b43600c55670de0b6b3a7640000600d5561143e88612703565b905080156114995760405162461bcd60e51b815260206004820152602260248201527f73657474696e6720696e7465726573742072617465206d6f64656c206661696c604482015261195960f21b6064820152608401610c5b565b85516114ac90600390602089019061546e565b5084516114c090600490602088019061546e565b506005805460ff191660ff86161790556114d983612816565b905080156115295760405162461bcd60e51b815260206004820152601d60248201527f73657474696e67207265736572766520666163746f72206661696c65640000006044820152606401610c5b565b611532826128b5565b9050801561157d5760405162461bcd60e51b81526020600482015260186024820152771cd95d1d1a5b99c818591b5a5b881999594819985a5b195960421b6044820152606401610c5b565b50506002805460ff60b01b1916600160b01b1790555050505050505050565b6000806115a881612099565b60006115b6338787876129cf565b149150610c208161215d565b6000806115cf8484612c62565b50949350505050565b6115e061229b565b61161f5760405162461bcd60e51b815260206004820152601060248201526f31b0b63632b9103737ba1030b236b4b760811b6044820152606401610c5b565b61162b600385856154ee565b50611638600483836154ee565b5050505050565b6000806040518060200160405280611655611e4c565b90526001600160a01b038416600090815260136020526040812054919250908190611681908490612ccc565b9092509050600082600381111561169a5761169a615bd7565b146116e75760405162461bcd60e51b815260206004820152601f60248201527f62616c616e636520636f756c64206e6f742062652063616c63756c61746564006044820152606401610c5b565b949350505050565b60006116f9612d1f565b905090565b61170661229b565b6117225760405162461bcd60e51b8152600401610c5b90615d2b565b6000546001600160a01b0385811691161461177857611778848484848080601f01602080910402602001604051908101604052809392919081815260200183838082843760009201919091525061247b92505050565b50505050565b3330148061178f575061178f61229b565b6117f75760405162461bcd60e51b815260206004820152603360248201527f6f6e6c792073656c6620616e642061646d696e732063616e2063616c6c205f6260448201527232b1b7b6b2a4b6b83632b6b2b73a30ba34b7b760691b6064820152608401610c5b565b60008180602001905181019061180d9190615d4b565b90506001600160a01b03811615801561183057506017546001600160a01b031615155b156118ad576001546017546040516381218ea960e01b81526001600160a01b03928316926381218ea99261186992911690600401615829565b602060405180830381865afa158015611886573d6000803e3d6000fd5b505050506040513d601f19601f820116820180604052508101906118aa9190615d4b565b90505b6001600160a01b038116158015906118d357506017546001600160a01b03828116911614155b156118e1576118e181610d10565b5050565b6000806118f0611b60565b1461190d5760405162461bcd60e51b8152600401610c5b90615bed565b50600e5490565b61191c61229b565b6119385760405162461bcd60e51b8152600401610c5b90615d2b565b6016546001600160a01b0383811691161480159061196457506017546001600160a01b03838116911614155b6119945760405162461bcd60e51b81526020600482015260016024820152602160f81b6044820152606401610c5b565b60405163095ea7b360e01b81526001600160a01b0383169063095ea7b3906119c490849060001990600401615c73565b6020604051808303816000875af11580156119e3573d6000803e3d6000fd5b505050506040513d601f19601f8201168201806040525081019061126f9190615c37565b6000610c0e82612db7565b600080611a1e81612099565b6000611a28611b60565b90508015611a5457611a4c816011811115611a4557611a45615bd7565b6052612dfd565b925050610c70565b611a5d846128b5565b925050610c798161215d565b60048054610b2390615ba2565b6000806000611a8484612e5d565b90925090506000826003811115611a9d57611a9d615bd7565b14611b0a5760405162461bcd60e51b815260206004820152603760248201527f626f72726f7742616c616e636553746f7265643a20626f72726f7742616c616e60448201527618d954dd1bdc9959125b9d195c9b985b0819985a5b1959604a1b6064820152608401610c5b565b9392505050565b600080611b1d81612099565b6000611b27611b60565b90508015611b4b57611a4c816011811115611b4457611b44615bd7565b6033612dfd565b611a5d84612f16565b600080610c2083612f89565b600c546000904390811415611b785760005b91505090565b6000611b82612d1f565b90506000600760009054906101000a90046001600160a01b03166001600160a01b03166315f2405383600e54611bc7600f54611bc2601054601154612fcf565b612fcf565b6040518463ffffffff1660e01b8152600401611be593929190615d68565b602060405180830381865afa158015611c02573d6000803e3d6000fd5b505050506040513d601f19601f82011682018060405250810190611c269190615b89565b905065048c27395000811115611c7d5760405162461bcd60e51b815260206004820152601c60248201527b0c4dee4e4deee40e4c2e8ca40d2e640c2c4e6eae4c8d8f240d0d2ced60231b6044820152606401610c5b565b600080611c8c85600c54613005565b90925090506000826003811115611ca557611ca5615bd7565b14611cf25760405162461bcd60e51b815260206004820152601f60248201527f636f756c64206e6f742063616c63756c61746520626c6f636b2064656c7461006044820152606401610c5b565b611cfe85858584613030565b9550505050505090565b600080611d1481612099565b6000611d1e611b60565b90508015611d4257611a4c816011811115611d3b57611d3b615bd7565b6037612dfd565b611a5d84613152565b600080611d5781612099565b6000611d65333387876129cf565b149150611d718161215d565b5092915050565b6007546000906001600160a01b031663b8168816611d94612d1f565b600e54611dab600f54611bc2601054601154612fcf565b600954600a54600b54611dbe9190615d94565b611dc89190615d94565b6040518563ffffffff1660e01b8152600401611de79493929190615b0f565b602060405180830381865afa158015611e04573d6000803e3d6000fd5b505050506040513d601f19601f820116820180604052508101906116f99190615b89565b60006001611e3581612099565b611e4133868686613230565b9150610c208161215d565b600080611e5881612099565b6000611e62611b60565b14611e7f5760405162461bcd60e51b8152600401610c5b90615bed565b611e87610c7f565b9150611e928161215d565b5090565b6001600160a01b038116600090815260136020526040812054819081908190818080611ec189612e5d565b935090506000816003811115611ed957611ed9615bd7565b14611ef75760095b6000806000975097509750975050505050611f30565b611eff6121dc565b925090506000816003811115611f1757611f17615bd7565b14611f23576009611ee1565b5060009650919450925090505b9193509193565b6000610c0e82613717565b6000610c0e8261375b565b600080611f58611b60565b90508015611f7c57611b0a816011811115611f7557611f75615bd7565b604b612dfd565b611b0a83612703565b600080611f9385858561379a565b5095945050505050565b6007546000906001600160a01b03166315f24053611fb9612d1f565b600e54611fd0600f54611bc2601054601154612fcf565b6040518463ffffffff1660e01b8152600401611de793929190615d68565b600080611ffa81612099565b6000612004611b60565b9050801561202857611a4c81601181111561202157612021615bd7565b6059612dfd565b611a5d84612816565b600080600061203f81612099565b6000612049611b60565b905080156120795761206d81601181111561206657612066615bd7565b6041612dfd565b6000935093505061208a565b61208433338761388e565b93509350505b6120938161215d565b50915091565b600254600160b01b900460ff166120df5760405162461bcd60e51b815260206004820152600a6024820152691c994b595b9d195c995960b21b6044820152606401610c5b565b8061214d57600660009054906101000a90046001600160a01b03166001600160a01b031663c90c20b16040518163ffffffff1660e01b8152600401600060405180830381600087803b15801561213457600080fd5b505af1158015612148573d6000803e3d6000fd5b505050505b506002805460ff60b01b19169055565b6002805460ff60b01b1916600160b01b179055806121d957600660009054906101000a90046001600160a01b03166001600160a01b031663632e51426040518163ffffffff1660e01b8152600401600060405180830381600087803b1580156121c557600080fd5b505af1158015611638573d6000803e3d6000fd5b50565b6012546000908190806121f6575050600854600092909150565b6000612200612d1f565b9050600061220c615562565b600061222e84600e54612229600f54611bc2601054601154612fcf565b613c97565b93509050600081600381111561224657612246615bd7565b14612258579660009650945050505050565b6122628386613ce9565b92509050600081600381111561227a5761227a615bd7565b1461228c579660009650945050505050565b50516000969095509350505050565b600654604080516303e1469160e61b815290516000926001600160a01b031691829163f851a440916004808201926020929091908290030181865afa1580156122e8573d6000803e3d6000fd5b505050506040513d601f19601f8201168201806040525081019061230c9190615d4b565b6001600160a01b0316336001600160a01b03161480156123895750806001600160a01b0316630a755ec26040518163ffffffff1660e01b8152600401602060405180830381865afa158015612365573d6000803e3d6000fd5b505050506040513d601f19601f820116820180604052508101906123899190615c37565b80611b7257506001546001600160a01b031633148015611b725750806001600160a01b0316632f1069ba6040518163ffffffff1660e01b8152600401602060405180830381865afa1580156123e2573d6000803e3d6000fd5b505050506040513d601f19601f82011682018060405250810190611b729190615c37565b601754604051636e553f6560e01b8152600481018390523060248201526001600160a01b0390911690636e553f65906044016020604051808303816000875af1158015612457573d6000803e3d6000fd5b505050506040513d601f19601f820116820180604052508101906118e19190615b89565b6001546000546040516338e6a07360e11b81526001600160a01b039182166004820152858216602482015284151560448201529116906371cd40e690606401602060405180830381865afa1580156124d7573d6000803e3d6000fd5b505050506040513d601f19601f820116820180604052508101906124fb9190615c37565b61252f5760405162461bcd60e51b8152602060048201526005602482015264085a5b5c1b60da1b6044820152606401610c5b565b600080546001600160a01b038581166001600160a01b031983161790925516303b6125625761255d8261177e565b6125c4565b6125c2308360405160240161257791906157d1565b60408051601f19818403018152918152602080830180516001600160e01b0316630adccee560e31b17905281518083019092526007825266216265636f6d6560c81b90820152613da6565b505b6000546040517fd604de94d45953f9138079ec1b82d533cb2160c906d1076d1f7ed54befbca97a916126019184916001600160a01b031690615c1d565b60405180910390a150505050565b600080600660009054906101000a90046001600160a01b03169050826001600160a01b0316627e3dd26040518163ffffffff1660e01b8152600401602060405180830381865afa158015612667573d6000803e3d6000fd5b505050506040513d601f19601f8201168201806040525081019061268b9190615c37565b6126a75760405162461bcd60e51b8152600401610c5b90615dac565b600680546001600160a01b0319166001600160a01b0385161790556040517f7ac369dbd14fa5ea3f473ed67cc9d598964a77501540ba6751eb0b3decf5870d906126f49083908690615c1d565b60405180910390a16000611b0a565b60008061270e61229b565b61271e57611b0a6001604d612dfd565b43600c541461273357611b0a600a604c612dfd565b600760009054906101000a90046001600160a01b03169050826001600160a01b0316632191f92a6040518163ffffffff1660e01b8152600401602060405180830381865afa158015612789573d6000803e3d6000fd5b505050506040513d601f19601f820116820180604052508101906127ad9190615c37565b6127c95760405162461bcd60e51b8152600401610c5b90615dac565b600780546001600160a01b0319166001600160a01b0385161790556040517fedffc32e068c7c95dfd4bdfd5c4d939a084d6b11c4199eac8436ed234d72f926906126f49083908690615c1d565b600061282061229b565b61283057610c0e6001605a612dfd565b43600c541461284557610c0e600a605b612dfd565b670de0b6b3a764000061286561285d84600954612fcf565b600a54612fcf565b111561287757610c0e6002605c612dfd565b600b80549083905560408051828152602081018590527faaa68312e2ea9d50e16af5068410ab56e1a1fd06037b1a35664812c30f82146091016126f4565b600043600c54146128cc57610c0e600a6054612dfd565b6000198214156128dc5760095491505b60006128e6613e42565b9050670de0b6b3a7640000612906612900600b5486612fcf565b83612fcf565b111561291857611b0a60026055612dfd565b826009541461297c5761292961229b565b61293957611b0a60016053612dfd565b600980549084905560408051828152602081018690527fcdd0b588250e1398549f79cfdb8217c186688822905d6715b0834ea1c865594a910160405180910390a1505b80600a54146129c857600a80549082905560408051828152602081018490527f92eef861b6533b7d3417f39c2ad7b460eed4e88a32fa3604f30e718b7602e7dc910160405180910390a1505b6000611b0a565b6006546040516317b9b84b60e31b815260009182916001600160a01b039091169063bdcdc25890612a0a903090899089908990600401615de2565b6020604051808303816000875af1158015612a29573d6000803e3d6000fd5b505050506040513d601f19601f82011682018060405250810190612a4d9190615b89565b90508015612a6a57612a626003605d83613e8c565b9150506116e7565b836001600160a01b0316856001600160a01b03161415612a9057612a626002605e612dfd565b6000856001600160a01b0316876001600160a01b03161415612ab55750600019612add565b506001600160a01b038086166000908152601460209081526040808320938a16835292905220545b600080600080612aed8589613005565b90945092506000846003811115612b0657612b06615bd7565b14612b2457612b176009605e612dfd565b96505050505050506116e7565b6001600160a01b038a16600090815260136020526040902054612b479089613005565b90945091506000846003811115612b6057612b60615bd7565b14612b7157612b176009605f612dfd565b6001600160a01b038916600090815260136020526040902054612b949089613f15565b90945090506000846003811115612bad57612bad615bd7565b14612bbe57612b1760096060612dfd565b6001600160a01b03808b16600090815260136020526040808220859055918b168152208190556000198514612c16576001600160a01b03808b166000908152601460209081526040808320938f168352929052208390555b886001600160a01b03168a6001600160a01b0316600080516020615f668339815191528a604051612c4991815260200190565b60405180910390a35060009a9950505050505050505050565b6000806000612c7081612099565b6000612c7a611b60565b90508015612caa57612c9e816011811115612c9757612c97615bd7565b6040612dfd565b60009350935050612cbb565b612cb533878761388e565b93509350505b612cc48161215d565b509250929050565b600080600080612cdc8686613f3b565b90925090506000826003811115612cf557612cf5615bd7565b14612d065750915060009050612d18565b6000612d1182613fa9565b9350935050505b9250929050565b6017546040516370a0823160e01b81526000916001600160a01b031690634cdad5069082906370a0823190612d58903090600401615829565b602060405180830381865afa158015612d75573d6000803e3d6000fd5b505050506040513d601f19601f82011682018060405250810190612d999190615b89565b6040518263ffffffff1660e01b8152600401611de791815260200190565b600080612dc381612099565b6000612dcd611b60565b90508015612df157611a4c816011811115612dea57612dea615bd7565b602a612dfd565b611a5d33600086613fc1565b6000600080516020615f46833981519152836011811115612e2057612e20615bd7565b836063811115612e3257612e32615bd7565b6000604051612e4393929190615d68565b60405180910390a1826011811115611b0a57611b0a615bd7565b6001600160a01b038116600090815260156020526040812080548291829182918291612e925750600096879650945050505050565b612ea28160000154600d54614500565b90945092506000846003811115612ebb57612ebb615bd7565b14612ece57509195600095509350505050565b612edc83826001015461453f565b90945091506000846003811115612ef557612ef5615bd7565b14612f0857509195600095509350505050565b506000969095509350505050565b60008043600c5414612f2e57611b0a600a6035612dfd565b82612f37612d1f565b1015612f4957611b0a600e6034612dfd565b601154831115612f5f57611b0a60026036612dfd565b612f6b6011548461456a565b60118190556001549091506129c8906001600160a01b0316846145a4565b6000806000612f9781612099565b6000612fa1611b60565b90508015612fc55761206d816011811115612fbe57612fbe615bd7565b6020612dfd565b612084338661461b565b6000611b0a8383604051806040016040528060118152602001706164646974696f6e206f766572666c6f7760781b815250614992565b60008083831161302457600061301b8486615e0c565b91509150612d18565b50600390506000612d18565b60008061304b604051806020016040528086815250846149c3565b9050600061305b82600e546149ed565b9050600061306b82600e54612fcf565b9050600061308c6040518060200160405280600b5481525084600f54614a05565b905060006130ad6040518060200160405280600a5481525085601154614a05565b905060006130ce604051806020016040528060095481525086601054614a05565b905060006130e187600d54600d54614a05565b600c8d9055600d819055600e869055600f859055601184905560108390556040519091507f4dec04e750ca11537cabcd8a9eab06494de08da3735bc8871cd41250e190bc0490613138908d90899085908a90615b0f565b60405180910390a160009c9b505050505050505050505050565b60008043600c541461316a57611b0a600a6039612dfd565b82613173612d1f565b101561318557611b0a600e6038612dfd565b60105483111561319b57611b0a6002603a612dfd565b6131a76010548461456a565b9050806010819055506129c8600660009054906101000a90046001600160a01b03166001600160a01b031663f851a4406040518163ffffffff1660e01b8152600401602060405180830381865afa158015613206573d6000803e3d6000fd5b505050506040513d601f19601f8201168201806040525081019061322a9190615d4b565b846145a4565b60065460405163d02f735160e01b815260009182916001600160a01b039091169063d02f73519061326d9030908a908a908a908a90600401615e23565b6020604051808303816000875af115801561328c573d6000803e3d6000fd5b505050506040513d601f19601f820116820180604052508101906132b09190615b89565b905080156132c557612a626003601d83613e8c565b846001600160a01b0316846001600160a01b031614156132eb57612a626006601e612dfd565b613350604080516101808101909152806000815260200160008152602001600081526020016000815260200160008152602001600081526020016000815260200160008152602001600081526020016000815260200160008152602001600081525090565b6001600160a01b0385166000908152601360205260409020546133739085613005565b602083018190528282600381111561338d5761338d615bd7565b600381111561339e5761339e615bd7565b90525060009050815160038111156133b8576133b8615bd7565b146133e8576133df6009601c836000015160038111156133da576133da615bd7565b613e8c565b925050506116e7565b613407846040518060200160405280666379da05b60000815250614a26565b6080820152604080516020810190915267016345785d8a0000815261342d908590614a26565b61014082015260808101516134529061344790869061456a565b82610140015161456a565b606082015261345f6121dc565b60c083018190528282600381111561347957613479615bd7565b600381111561348a5761348a615bd7565b90525060009050815160038111156134a4576134a4615bd7565b146134ec5760405162461bcd60e51b815260206004820152601860248201527732bc31b430b733b2903930ba329036b0ba341032b93937b960411b6044820152606401610c5b565b61350c60405180602001604052808360c0015181525082608001516149ed565b60a0820152604080516020810190915260c0820151815261014082015161353391906149ed565b610160820152600f5460a082015161354b9190612fcf565b60e08201526012546080820151613565916134479161456a565b61012082015260115461016082015161357e9190612fcf565b6101008201526001600160a01b03861660009081526013602052604090205460608201516135ac9190613f15565b60408301819052828260038111156135c6576135c6615bd7565b60038111156135d7576135d7615bd7565b90525060009050815160038111156135f1576135f1615bd7565b14613613576133df6009601b836000015160038111156133da576133da615bd7565b60e0810151600f556101208101516012556101008101516011556020808201516001600160a01b0387811660008181526013855260408082209490945583860151928b1680825290849020929092556060850151925192835290929091600080516020615f66833981519152910160405180910390a3306001600160a01b0316856001600160a01b0316600080516020615f6683398151915283608001516040516136c091815260200190565b60405180910390a360a081015160e08201516040517fa91e67c5ea634cd43a12c5a482724b03de01e85ca68702a53d0c2f45cb7c1dc592613702923092615e56565b60405180910390a16000979650505050505050565b60008061372381612099565b600061372d611b60565b9050801561375157611a4c81601181111561374a5761374a615bd7565b600a612dfd565b611a5d3385614a49565b60008061376781612099565b6000613771611b60565b9050801561378e57611a4c816011811115612dea57612dea615bd7565b611a5d33856000613fc1565b60008060006137a881612099565b60006137b2611b60565b905080156137e2576137d68160118111156137cf576137cf615bd7565b6011612dfd565b6000935093505061387c565b846001600160a01b031663a6afed956040518163ffffffff1660e01b81526004016020604051808303816000875af1158015613822573d6000803e3d6000fd5b505050506040513d601f19601f820116820180604052508101906138469190615b89565b9050801561386a576137d681601181111561386357613863615bd7565b6012612dfd565b61387633888888614ddb565b93509350505b6138858161215d565b50935093915050565b600654604051631200453160e11b8152600091829182916001600160a01b0316906324008a62906138c99030908a908a908a90600401615de2565b6020604051808303816000875af11580156138e8573d6000803e3d6000fd5b505050506040513d601f19601f8201168201806040525081019061390c9190615b89565b9050801561392d576139216003604383613e8c565b60009250925050613c8f565b43600c541461394257613921600a6044612dfd565b61398b6040805161010081019091528060008152602001600081526020016000815260200160008152602001600081526020016000815260200160008152602001600081525090565b6001600160a01b03861660009081526015602052604090206001015460608201526139b586612e5d565b60808301819052602083018260038111156139d2576139d2615bd7565b60038111156139e3576139e3615bd7565b9052506000905081602001516003811115613a0057613a00615bd7565b14613a2f57613a2260096042836020015160038111156133da576133da615bd7565b6000935093505050613c8f565b600019851415613a485760808101516040820152613a50565b604081018590525b613a5e878260400151615285565b60e082018190526080820151613a7391613005565b60a0830181905260208301826003811115613a9057613a90615bd7565b6003811115613aa157613aa1615bd7565b9052506000905081602001516003811115613abe57613abe615bd7565b14613b2e5760405162461bcd60e51b815260206004820152603a60248201527f52455041595f424f52524f575f4e45575f4143434f554e545f424f52524f575f604482015279109053105390d157d0d05310d55310551253d397d1905253115160321b6064820152608401610c5b565b613b3e600e548260e00151613005565b60c0830181905260208301826003811115613b5b57613b5b615bd7565b6003811115613b6c57613b6c615bd7565b9052506000905081602001516003811115613b8957613b89615bd7565b14613bf05760405162461bcd60e51b815260206004820152603160248201527f52455041595f424f52524f575f4e45575f544f54414c5f42414c414e43455f43604482015270105310d55310551253d397d19052531151607a1b6064820152608401610c5b565b60a081810180516001600160a01b03898116600081815260156020908152604091829020948555600d5460019095019490945560c0870151600e81905560e088015195518251948f16855294840192909252820193909352606081019190915260808101919091527f1a2a22cb034d26d1854bdc6666a5b91fe25efbbb5dcad3b0355478d6f5c362a1910160405180910390a160e00151600093509150505b935093915050565b600080600080613ca78787613f15565b90925090506000826003811115613cc057613cc0615bd7565b14613cd15750915060009050613c8f565b613cdb8186613005565b935093505050935093915050565b6000613cf3615562565b600080613d0886670de0b6b3a7640000614500565b90925090506000826003811115613d2157613d21615bd7565b14613d4057506040805160208101909152600081529092509050612d18565b600080613d4d838861453f565b90925090506000826003811115613d6657613d66615bd7565b14613d895781604051806020016040528060008152509550955050505050612d18565b604080516020810190915290815260009890975095505050505050565b6060600080856001600160a01b031685604051613dc39190615e77565b6000604051808303816000865af19150503d8060008114613e00576040519150601f19603f3d011682016040523d82523d6000602084013e613e05565b606091505b509150915081613e3957805115613e1f5780518082602001fd5b8360405162461bcd60e51b8152600401610c5b91906157d1565b95945050505050565b6001546040805163dd86fea160e01b815290516000926001600160a01b03169163dd86fea19160048083019260209291908290030181865afa158015611e04573d6000803e3d6000fd5b6000600080516020615f46833981519152846011811115613eaf57613eaf615bd7565b846063811115613ec157613ec1615bd7565b84604051613ed193929190615d68565b60405180910390a16003846011811115613eed57613eed615bd7565b14613f0957836011811115613f0457613f04615bd7565b6116e7565b6116e7826103e8615d94565b600080838301848110613f2d57600092509050612d18565b600260009250925050612d18565b6000613f45615562565b600080613f56866000015186614500565b90925090506000826003811115613f6f57613f6f615bd7565b14613f8e57506040805160208101909152600081529092509050612d18565b60408051602081019091529081526000969095509350505050565b8051600090610c0e90670de0b6b3a764000090615e93565b6000821580613fce575081155b6140375760405162461bcd60e51b815260206004820152603460248201527f6f6e65206f662072656465656d546f6b656e73496e206f722072656465656d416044820152736d6f756e74496e206d757374206265207a65726f60601b6064820152608401610c5b565b61403f615575565b6140476121dc565b604083018190526020830182600381111561406457614064615bd7565b600381111561407557614075615bd7565b905250600090508160200151600381111561409257614092615bd7565b146140bc576140b46009602e836020015160038111156133da576133da615bd7565b915050611b0a565b83156141555760608101849052604080516020810182529082015181526140e39085612ccc565b608083018190526020830182600381111561410057614100615bd7565b600381111561411157614111615bd7565b905250600090508160200151600381111561412e5761412e615bd7565b14614150576140b46009602c836020015160038111156133da576133da615bd7565b6141e6565b614171836040518060200160405280846040015181525061533b565b606083018190526020830182600381111561418e5761418e615bd7565b600381111561419f5761419f615bd7565b90525060009050816020015160038111156141bc576141bc615bd7565b146141de576140b46009602d836020015160038111156133da576133da615bd7565b608081018390525b600654606082015160405163eabe7d9160e01b81526000926001600160a01b03169163eabe7d919161421f9130918b9190600401615eb5565b6020604051808303816000875af115801561423e573d6000803e3d6000fd5b505050506040513d601f19601f820116820180604052508101906142629190615b89565b90508015614280576142776003602b83613e8c565b92505050611b0a565b43600c541461429557614277600a602f612dfd565b6142a56012548360600151613005565b60a08401819052602084018260038111156142c2576142c2615bd7565b60038111156142d3576142d3615bd7565b90525060009050826020015160038111156142f0576142f0615bd7565b146143125761427760096031846020015160038111156133da576133da615bd7565b6001600160a01b038616600090815260136020526040902054606083015161433a9190613005565b60c084018190526020840182600381111561435757614357615bd7565b600381111561436857614368615bd7565b905250600090508260200151600381111561438557614385615bd7565b146143a75761427760096030846020015160038111156133da576133da615bd7565b81608001516143b4612d1f565b10156143c657614277600e6032612dfd565b60a082015160125560c08201516001600160a01b03871660009081526013602052604090205560808201516143fc9087906145a4565b306001600160a01b0316866001600160a01b0316600080516020615f66833981519152846060015160405161443391815260200190565b60405180910390a3608082015160608301516040517fe5b754fb1abb7f01b499791d0b820ae3b6af3424ac1c59768edb53f4ec31a92992614475928a92615e56565b60405180910390a1600654608083015160608401516040516351dff98960e01b81526001600160a01b03909316926351dff989926144bb9230928c929190600401615ed9565b600060405180830381600087803b1580156144d557600080fd5b505af11580156144e9573d6000803e3d6000fd5b50600092506144f6915050565b9695505050505050565b6000808361451357506000905080612d18565b838302836145218683615e93565b1461453457600260009250925050612d18565b600092509050612d18565b600080826145535750600190506000612d18565b600061455f8486615e93565b915091509250929050565b6000611b0a8383604051806040016040528060158152602001747375627472616374696f6e20756e646572666c6f7760581b81525061534b565b601754604051632d182be560e21b81526001600160a01b039091169063b460af94906145d890849086903090600401615c54565b6020604051808303816000875af11580156145f7573d6000803e3d6000fd5b505050506040513d601f19601f8201168201806040525081019061126f9190615b89565b600654604051634ef4c3e160e01b8152600091829182916001600160a01b031690634ef4c3e19061465490309089908990600401615eb5565b6020604051808303816000875af1158015614673573d6000803e3d6000fd5b505050506040513d601f19601f820116820180604052508101906146979190615b89565b905080156146b8576146ac6003602183613e8c565b60009250925050612d18565b43600c54146146cd576146ac600a6024612dfd565b6146d5615575565b6146dd6121dc565b60408301819052602083018260038111156146fa576146fa615bd7565b600381111561470b5761470b615bd7565b905250600090508160200151600381111561472857614728615bd7565b146147575761474a60096023836020015160038111156133da576133da615bd7565b6000935093505050612d18565b6147618686615285565b60c0820181905260408051602081018252908301518152614782919061533b565b606083018190526020830182600381111561479f5761479f615bd7565b60038111156147b0576147b0615bd7565b90525060009050816020015160038111156147cd576147cd615bd7565b1461481a5760405162461bcd60e51b815260206004820181905260248201527f4d494e545f45584348414e47455f43414c43554c4154494f4e5f4641494c45446044820152606401610c5b565b61482a6012548260600151612fcf565b60808201526001600160a01b03861660009081526013602052604090205460608201516148579190612fcf565b60a0820181905260808201516012556001600160a01b038716600090815260136020526040908190209190915560c0820151606083015191517f4c209b5fc8ad50758f13e2e1088ba56a560dff690a1c6fef26394f4c03821c4f926148c0928a92909190615e56565b60405180910390a1856001600160a01b0316306001600160a01b0316600080516020615f6683398151915283606001516040516148ff91815260200190565b60405180910390a360065460c082015160608301516040516341c728b960e01b81526001600160a01b03909316926341c728b9926149459230928c929190600401615ed9565b600060405180830381600087803b15801561495f57600080fd5b505af1158015614973573d6000803e3d6000fd5b5060009250614980915050565b8160c001519350935050509250929050565b60008061499f8486615d94565b905082858210156115cf5760405162461bcd60e51b8152600401610c5b91906157d1565b6149cb615562565b60405180602001604052806149e485600001518561537a565b90529392505050565b6000806149fa84846149c3565b90506116e781613fa9565b600080614a1285856149c3565b9050613e39614a2082613fa9565b84612fcf565b6000670de0b6b3a7640000614a3f84846000015161537a565b611b0a9190615e93565b60065460405163368f515360e21b815260009182916001600160a01b039091169063da3d454c90614a8290309088908890600401615eb5565b6020604051808303816000875af1158015614aa1573d6000803e3d6000fd5b505050506040513d601f19601f82011682018060405250810190614ac59190615b89565b90508015614ae257614ada6003601083613e8c565b915050610c0e565b43600c5414614af757614ada600a600c612dfd565b6000614b01612d1f565b905083811015614b2057614b17600e600b612dfd565b92505050610c0e565b614b4c604080516080810190915280600081526020016000815260200160008152602001600081525090565b614b5586612e5d565b6020830181905282826003811115614b6f57614b6f615bd7565b6003811115614b8057614b80615bd7565b9052506000905081516003811115614b9a57614b9a615bd7565b14614bc557614bbb600980836000015160038111156133da576133da615bd7565b9350505050610c0e565b614bd3816020015186613f15565b6040830181905282826003811115614bed57614bed615bd7565b6003811115614bfe57614bfe615bd7565b9052506000905081516003811115614c1857614c18615bd7565b14614c3a57614bbb6009600e836000015160038111156133da576133da615bd7565b6006546040808301519051631de6c8a560e21b81526001600160a01b039092169163779b229491614c7091309190600401615c73565b6020604051808303816000875af1158015614c8f573d6000803e3d6000fd5b505050506040513d601f19601f82011682018060405250810190614cb39190615b89565b92508215614cc857614bbb6003601085613e8c565b614cd4600e5486613f15565b6060830181905282826003811115614cee57614cee615bd7565b6003811115614cff57614cff615bd7565b9052506000905081516003811115614d1957614d19615bd7565b14614d3b57614bbb6009600d836000015160038111156133da576133da615bd7565b6040808201516001600160a01b0388166000908152601560205291909120908155600d546001909101556060810151600e55614d7786866145a4565b60408082015160608084015183516001600160a01b038b168152602081018a9052938401929092528201527f13ed6866d4e1ee6da46f845c46d7e54120883d75c5ea9a2dacc1c4ca8984ab809060800160405180910390a160009695505050505050565b600654604051632fe3f38f60e11b8152600091829182916001600160a01b031690635fc7e71e90614e1890309088908c908c908c90600401615e23565b6020604051808303816000875af1158015614e37573d6000803e3d6000fd5b505050506040513d601f19601f82011682018060405250810190614e5b9190615b89565b90508015614e7c57614e706003601483613e8c565b6000925092505061527c565b43600c5414614e9157614e70600a6018612dfd565b43846001600160a01b0316636c540baf6040518163ffffffff1660e01b8152600401602060405180830381865afa158015614ed0573d6000803e3d6000fd5b505050506040513d601f19601f82011682018060405250810190614ef49190615b89565b14614f0557614e70600a6013612dfd565b866001600160a01b0316866001600160a01b03161415614f2b57614e7060066019612dfd565b84614f3c57614e7060076017612dfd565b600019851415614f5257614e7060076016612dfd565b600080614f6089898961388e565b90925090508115614f9557614f87826011811115614f8057614f80615bd7565b601a612dfd565b60009450945050505061527c565b60065460405163c488847b60e01b815260009182916001600160a01b039091169063c488847b90614fce9030908c908890600401615eb5565b6040805180830381865afa158015614fea573d6000803e3d6000fd5b505050506040513d601f19601f8201168201806040525081019061500e9190615f02565b9092509050811561507d5760405162461bcd60e51b815260206004820152603360248201527f4c49515549444154455f434f4d5054524f4c4c45525f43414c43554c4154455f604482015272105353d5539517d4d152569157d19052531151606a1b6064820152608401610c5b565b6040516370a0823160e01b815281906001600160a01b038a16906370a08231906150ab908e90600401615829565b602060405180830381865afa1580156150c8573d6000803e3d6000fd5b505050506040513d601f19601f820116820180604052508101906150ec9190615b89565b10156151355760405162461bcd60e51b815260206004820152601860248201527709892a2aa928882a88abea68a92b48abea89e9ebe9aaa86960431b6044820152606401610c5b565b60006001600160a01b03891630141561515b57615154308d8d85613230565b90506151d1565b60405163b2a02ff160e01b81526001600160a01b038a169063b2a02ff19061518b908f908f908790600401615eb5565b6020604051808303816000875af11580156151aa573d6000803e3d6000fd5b505050506040513d601f19601f820116820180604052508101906151ce9190615b89565b90505b80156152165760405162461bcd60e51b81526020600482015260146024820152731d1bdad95b881cd95a5e9d5c994819985a5b195960621b6044820152606401610c5b565b604080516001600160a01b038e811682528d811660208301528183018790528b1660608201526080810184905290517f298637f684da70674f26509b10f07ec2fbc77a335ab1e7d6215a4b2484d8bb529181900360a00190a16000975092955050505050505b94509492505050565b6016546040516323b872dd60e01b81526000916001600160a01b0316906323b872dd906152ba90869030908790600401615eb5565b6020604051808303816000875af11580156152d9573d6000803e3d6000fd5b505050506040513d601f19601f820116820180604052508101906152fd9190615c37565b6153325760405162461bcd60e51b8152600401610c5b906020808252600490820152631cd95b9960e21b604082015260600190565b610c7982612406565b600080600080612cdc86866153b6565b6000818484111561536f5760405162461bcd60e51b8152600401610c5b91906157d1565b506116e78385615e0c565b6000611b0a8383604051806040016040528060178152602001766d756c7469706c69636174696f6e206f766572666c6f7760481b81525061541b565b60006153c0615562565b6000806153d5670de0b6b3a764000087614500565b909250905060008260038111156153ee576153ee615bd7565b1461540d57506040805160208101909152600081529092509050612d18565b612d11818660000151613ce9565b6000831580615428575082155b1561543557506000611b0a565b60006154418486615f26565b90508361544e8683615e93565b1483906115cf5760405162461bcd60e51b8152600401610c5b91906157d1565b82805461547a90615ba2565b90600052602060002090601f01602090048101928261549c57600085556154e2565b82601f106154b557805160ff19168380011785556154e2565b828001600101855582156154e2579182015b828111156154e25782518255916020019190600101906154c7565b50611e929291506155b3565b8280546154fa90615ba2565b90600052602060002090601f01602090048101928261551c57600085556154e2565b82601f106155355782800160ff198235161785556154e2565b828001600101855582156154e2579182015b828111156154e2578235825591602001919060010190615547565b6040518060200160405280600081525090565b6040805160e0810190915280600081526020016000815260200160008152602001600081526020016000815260200160008152602001600081525090565b5b80821115611e9257600081556001016155b4565b6001600160a01b03811681146121d957600080fd5b80356155e8816155c8565b919050565b634e487b7160e01b600052604160045260246000fd5b604051601f8201601f191681016001600160401b038111828210171561562b5761562b6155ed565b604052919050565b60006001600160401b0382111561564c5761564c6155ed565b50601f01601f191660200190565b600061566d61566884615633565b615603565b905082815283838301111561568157600080fd5b828260208301376000602084830101529392505050565b600082601f8301126156a957600080fd5b611b0a8383356020850161565a565b600080600080600080600080610100898b0312156156d557600080fd5b88356156e0816155c8565b975060208901356156f0816155c8565b96506040890135615700816155c8565b95506060890135615710816155c8565b945060808901356001600160401b038082111561572c57600080fd5b6157388c838d01615698565b955060a08b013591508082111561574e57600080fd5b5061575b8b828c01615698565b93505060c0890135915060e089013590509295985092959890939650565b60005b8381101561579457818101518382015260200161577c565b838111156117785750506000910152565b600081518084526157bd816020860160208601615779565b601f01601f19169290920160200192915050565b602081526000611b0a60208301846157a5565b600080604083850312156157f757600080fd5b8235615802816155c8565b946020939093013593505050565b60006020828403121561582257600080fd5b5035919050565b6001600160a01b0391909116815260200190565b60006020828403121561584f57600080fd5b8135611b0a816155c8565b60ff811681146121d957600080fd5b80356155e88161585a565b60008060008060008060008060006101208a8c03121561589357600080fd5b893561589e816155c8565b985060208a01356158ae816155c8565b97506158bc60408b016155dd565b965060608a0135955060808a01356001600160401b03808211156158df57600080fd5b6158eb8d838e01615698565b965060a08c013591508082111561590157600080fd5b5061590e8c828d01615698565b94505061591d60c08b01615869565b925060e08a013591506101008a013590509295985092959850929598565b60008060006060848603121561595057600080fd5b833561595b816155c8565b9250602084013561596b816155c8565b929592945050506040919091013590565b60008083601f84011261598e57600080fd5b5081356001600160401b038111156159a557600080fd5b602083019150836020828501011115612d1857600080fd5b600080600080604085870312156159d357600080fd5b84356001600160401b03808211156159ea57600080fd5b6159f68883890161597c565b90965094506020870135915080821115615a0f57600080fd5b50615a1c8782880161597c565b95989497509550505050565b80151581146121d957600080fd5b60008060008060608587031215615a4c57600080fd5b8435615a57816155c8565b93506020850135615a6781615a28565b925060408501356001600160401b03811115615a8257600080fd5b615a1c8782880161597c565b600060208284031215615aa057600080fd5b81356001600160401b03811115615ab657600080fd5b8201601f81018413615ac757600080fd5b6116e78482356020840161565a565b60008060408385031215615ae957600080fd5b8235615af4816155c8565b91506020830135615b04816155c8565b809150509250929050565b93845260208401929092526040830152606082015260800190565b600080600060608486031215615b3f57600080fd5b8335615b4a816155c8565b9250602084013591506040840135615b61816155c8565b809150509250925092565b600060208284031215615b7e57600080fd5b8151611b0a8161585a565b600060208284031215615b9b57600080fd5b5051919050565b600181811c90821680615bb657607f821691505b60208210811415610c7957634e487b7160e01b600052602260045260246000fd5b634e487b7160e01b600052602160045260246000fd5b6020808252601690820152751858d8dc9d59481a5b9d195c995cdd0819985a5b195960521b604082015260600190565b6001600160a01b0392831681529116602082015260400190565b600060208284031215615c4957600080fd5b8151611b0a81615a28565b9283526001600160a01b03918216602084015216604082015260600190565b6001600160a01b03929092168252602082015260400190565b600080600060608486031215615ca157600080fd5b8351615cac816155c8565b6020850151909350615cbd81615a28565b60408501519092506001600160401b03811115615cd957600080fd5b8401601f81018613615cea57600080fd5b8051615cf861566882615633565b818152876020838501011115615d0d57600080fd5b615d1e826020830160208601615779565b8093505050509250925092565b60208082526006908201526510b0b236b4b760d11b604082015260600190565b600060208284031215615d5d57600080fd5b8151611b0a816155c8565b9283526020830191909152604082015260600190565b634e487b7160e01b600052601160045260246000fd5b60008219821115615da757615da7615d7e565b500190565b6020808252601c908201527b6d61726b6572206d6574686f642072657475726e65642066616c736560201b604082015260600190565b6001600160a01b039485168152928416602084015292166040820152606081019190915260800190565b600082821015615e1e57615e1e615d7e565b500390565b6001600160a01b039586168152938516602085015291841660408401529092166060820152608081019190915260a00190565b6001600160a01b039390931683526020830191909152604082015260600190565b60008251615e89818460208701615779565b9190910192915050565b600082615eb057634e487b7160e01b600052601260045260246000fd5b500490565b6001600160a01b039384168152919092166020820152604081019190915260600190565b6001600160a01b0394851681529290931660208301526040820152606081019190915260800190565b60008060408385031215615f1557600080fd5b505080516020909101519092909150565b6000816000190483118215151615615f4057615f40615d7e565b50029056fe45b96fe442630264581b197e84bbada861235052c5a1aadfff9ea4e40a969aa0ddf252ad1be2c89b69c2b068fc378daa952ba7f163c4a11628f55a4df523b3efa164736f6c634300080a000a",
    "linkReferences": {}
  },
  "methodIdentifiers": {
    "PRECISION()": "aaf5eb68",
    "_becomeImplementation(bytes)": "56e67728",
    "_prepare()": "1db78944",
    "_setAdminFee(uint256)": "91dd36c6",
    "_setImplementationSafe(address,bool,bytes)": "50d85b73",
    "_setInterestRateModel(address)": "f2b3abbd",
    "_setNameAndSymbol(string,string)": "34154d4c",
    "_setReserveFactor(uint256)": "fca7820b",
    "_updatePlugin(address)": "19f496c8",
    "_withdrawAdminFees(uint256)": "a7b820df",
    "_withdrawFuseFees(uint256)": "a03dce8d",
    "accrualBlockNumber()": "6c540baf",
    "accrueInterest()": "a6afed95",
    "adminFeeMantissa()": "8d02d9a1",
    "allowance(address,address)": "dd62ed3e",
    "approve(address,address)": "7e5465ba",
    "approve(address,uint256)": "095ea7b3",
    "balanceOf(address)": "70a08231",
    "balanceOfUnderlying(address)": "3af9e669",
    "borrow(uint256)": "c5ebeaec",
    "borrowBalanceCurrent(address)": "17bfdfbc",
    "borrowBalanceStored(address)": "95dd9193",
    "borrowIndex()": "aa5af0fd",
    "borrowRatePerBlock()": "f8f9da28",
    "claim()": "4e71d92d",
    "comptroller()": "5fe3b567",
    "decimals()": "313ce567",
    "exchangeRateCurrent()": "bd6d894d",
    "exchangeRateStored()": "182df0f5",
    "feeSeizeShareMantissa()": "be99f119",
    "fuseAdmin()": "15761d51",
    "fuseFeeMantissa()": "dbfe7c19",
    "getAccountSnapshot(address)": "c37f68e2",
    "getCash()": "3b1d21a2",
    "implementation()": "5c60da1b",
    "initialize(address,address,address,address,string,string,uint256,uint256)": "06db3ecd",
    "initialize(address,address,address,uint256,string,string,uint8,uint256,uint256)": "219ef65c",
    "interestRateModel()": "f3fdb15a",
    "isCEther()": "ac784ddc",
    "isCToken()": "fe9c44ae",
    "liquidateBorrow(address,uint256,address)": "f5e3c462",
    "mint(uint256)": "a0712d68",
    "name()": "06fdde03",
    "plugin()": "ef01df4f",
    "protocolSeizeShareMantissa()": "6752e702",
    "redeem(uint256)": "db006a75",
    "redeemUnderlying(uint256)": "852a12e3",
    "repayBorrow(uint256)": "0e752702",
    "repayBorrowBehalf(address,uint256)": "2608f818",
    "reserveFactorMantissa()": "173b9904",
    "seize(address,address,uint256)": "b2a02ff1",
    "supplyRatePerBlock()": "ae9d70b0",
    "symbol()": "95d89b41",
    "totalAdminFees()": "61feacff",
    "totalBorrows()": "47bd3718",
    "totalBorrowsCurrent()": "73acee98",
    "totalFuseFees()": "dc028ab1",
    "totalReserves()": "8f840ddd",
    "totalSupply()": "18160ddd",
    "transfer(address,uint256)": "a9059cbb",
    "transferFrom(address,address,uint256)": "23b872dd",
    "underlying()": "6f307dc3"
  }
}