{
  "address": "0x0689f3F569fdEff58967d0F4e41A690aa759596e",
  "abi": [
    {
      "anonymous": false,
      "inputs": [
        {
          "indexed": false,
          "internalType": "uint256",
          "name": "cashPrior",
          "type": "uint256"
        },
        {
          "indexed": false,
          "internalType": "uint256",
          "name": "interestAccumulated",
          "type": "uint256"
        },
        {
          "indexed": false,
          "internalType": "uint256",
          "name": "borrowIndex",
          "type": "uint256"
        },
        {
          "indexed": false,
          "internalType": "uint256",
          "name": "totalBorrows",
          "type": "uint256"
        }
      ],
      "name": "AccrueInterest",
      "type": "event"
    },
    {
      "anonymous": false,
      "inputs": [
        {
          "indexed": true,
          "internalType": "address",
          "name": "owner",
          "type": "address"
        },
        {
          "indexed": true,
          "internalType": "address",
          "name": "spender",
          "type": "address"
        },
        {
          "indexed": false,
          "internalType": "uint256",
          "name": "amount",
          "type": "uint256"
        }
      ],
      "name": "Approval",
      "type": "event"
    },
    {
      "anonymous": false,
      "inputs": [
        {
          "indexed": false,
          "internalType": "address",
          "name": "borrower",
          "type": "address"
        },
        {
          "indexed": false,
          "internalType": "uint256",
          "name": "borrowAmount",
          "type": "uint256"
        },
        {
          "indexed": false,
          "internalType": "uint256",
          "name": "accountBorrows",
          "type": "uint256"
        },
        {
          "indexed": false,
          "internalType": "uint256",
          "name": "totalBorrows",
          "type": "uint256"
        }
      ],
      "name": "Borrow",
      "type": "event"
    },
    {
      "anonymous": false,
      "inputs": [
        {
          "indexed": false,
          "internalType": "uint256",
          "name": "error",
          "type": "uint256"
        },
        {
          "indexed": false,
          "internalType": "uint256",
          "name": "info",
          "type": "uint256"
        },
        {
          "indexed": false,
          "internalType": "uint256",
          "name": "detail",
          "type": "uint256"
        }
      ],
      "name": "Failure",
      "type": "event"
    },
    {
      "anonymous": false,
      "inputs": [
        {
          "indexed": false,
          "internalType": "address",
          "name": "liquidator",
          "type": "address"
        },
        {
          "indexed": false,
          "internalType": "address",
          "name": "borrower",
          "type": "address"
        },
        {
          "indexed": false,
          "internalType": "uint256",
          "name": "repayAmount",
          "type": "uint256"
        },
        {
          "indexed": false,
          "internalType": "address",
          "name": "cTokenCollateral",
          "type": "address"
        },
        {
          "indexed": false,
          "internalType": "uint256",
          "name": "seizeTokens",
          "type": "uint256"
        }
      ],
      "name": "LiquidateBorrow",
      "type": "event"
    },
    {
      "anonymous": false,
      "inputs": [
        {
          "indexed": false,
          "internalType": "address",
          "name": "minter",
          "type": "address"
        },
        {
          "indexed": false,
          "internalType": "uint256",
          "name": "mintAmount",
          "type": "uint256"
        },
        {
          "indexed": false,
          "internalType": "uint256",
          "name": "mintTokens",
          "type": "uint256"
        }
      ],
      "name": "Mint",
      "type": "event"
    },
    {
      "anonymous": false,
      "inputs": [
        {
          "indexed": false,
          "internalType": "uint256",
          "name": "oldAdminFeeMantissa",
          "type": "uint256"
        },
        {
          "indexed": false,
          "internalType": "uint256",
          "name": "newAdminFeeMantissa",
          "type": "uint256"
        }
      ],
      "name": "NewAdminFee",
      "type": "event"
    },
    {
      "anonymous": false,
      "inputs": [
        {
          "indexed": false,
          "internalType": "contract ComptrollerInterface",
          "name": "oldComptroller",
          "type": "address"
        },
        {
          "indexed": false,
          "internalType": "contract ComptrollerInterface",
          "name": "newComptroller",
          "type": "address"
        }
      ],
      "name": "NewComptroller",
      "type": "event"
    },
    {
      "anonymous": false,
      "inputs": [
        {
          "indexed": false,
          "internalType": "uint256",
          "name": "oldFuseFeeMantissa",
          "type": "uint256"
        },
        {
          "indexed": false,
          "internalType": "uint256",
          "name": "newFuseFeeMantissa",
          "type": "uint256"
        }
      ],
      "name": "NewFuseFee",
      "type": "event"
    },
    {
      "anonymous": false,
      "inputs": [
        {
          "indexed": false,
          "internalType": "address",
          "name": "oldImplementation",
          "type": "address"
        },
        {
          "indexed": false,
          "internalType": "address",
          "name": "newImplementation",
          "type": "address"
        }
      ],
      "name": "NewImplementation",
      "type": "event"
    },
    {
      "anonymous": false,
      "inputs": [
        {
          "indexed": false,
          "internalType": "contract InterestRateModel",
          "name": "oldInterestRateModel",
          "type": "address"
        },
        {
          "indexed": false,
          "internalType": "contract InterestRateModel",
          "name": "newInterestRateModel",
          "type": "address"
        }
      ],
      "name": "NewMarketInterestRateModel",
      "type": "event"
    },
    {
      "anonymous": false,
      "inputs": [
        {
          "indexed": false,
          "internalType": "uint256",
          "name": "oldReserveFactorMantissa",
          "type": "uint256"
        },
        {
          "indexed": false,
          "internalType": "uint256",
          "name": "newReserveFactorMantissa",
          "type": "uint256"
        }
      ],
      "name": "NewReserveFactor",
      "type": "event"
    },
    {
      "anonymous": false,
      "inputs": [
        {
          "indexed": false,
          "internalType": "address",
          "name": "redeemer",
          "type": "address"
        },
        {
          "indexed": false,
          "internalType": "uint256",
          "name": "redeemAmount",
          "type": "uint256"
        },
        {
          "indexed": false,
          "internalType": "uint256",
          "name": "redeemTokens",
          "type": "uint256"
        }
      ],
      "name": "Redeem",
      "type": "event"
    },
    {
      "anonymous": false,
      "inputs": [
        {
          "indexed": false,
          "internalType": "address",
          "name": "payer",
          "type": "address"
        },
        {
          "indexed": false,
          "internalType": "address",
          "name": "borrower",
          "type": "address"
        },
        {
          "indexed": false,
          "internalType": "uint256",
          "name": "repayAmount",
          "type": "uint256"
        },
        {
          "indexed": false,
          "internalType": "uint256",
          "name": "accountBorrows",
          "type": "uint256"
        },
        {
          "indexed": false,
          "internalType": "uint256",
          "name": "totalBorrows",
          "type": "uint256"
        }
      ],
      "name": "RepayBorrow",
      "type": "event"
    },
    {
      "anonymous": false,
      "inputs": [
        {
          "indexed": false,
          "internalType": "address",
          "name": "benefactor",
          "type": "address"
        },
        {
          "indexed": false,
          "internalType": "uint256",
          "name": "addAmount",
          "type": "uint256"
        },
        {
          "indexed": false,
          "internalType": "uint256",
          "name": "newTotalReserves",
          "type": "uint256"
        }
      ],
      "name": "ReservesAdded",
      "type": "event"
    },
    {
      "anonymous": false,
      "inputs": [
        {
          "indexed": false,
          "internalType": "address",
          "name": "admin",
          "type": "address"
        },
        {
          "indexed": false,
          "internalType": "uint256",
          "name": "reduceAmount",
          "type": "uint256"
        },
        {
          "indexed": false,
          "internalType": "uint256",
          "name": "newTotalReserves",
          "type": "uint256"
        }
      ],
      "name": "ReservesReduced",
      "type": "event"
    },
    {
      "anonymous": false,
      "inputs": [
        {
          "indexed": true,
          "internalType": "address",
          "name": "from",
          "type": "address"
        },
        {
          "indexed": true,
          "internalType": "address",
          "name": "to",
          "type": "address"
        },
        {
          "indexed": false,
          "internalType": "uint256",
          "name": "amount",
          "type": "uint256"
        }
      ],
      "name": "Transfer",
      "type": "event"
    },
    {
      "inputs": [],
      "name": "PRECISION",
      "outputs": [
        {
          "internalType": "uint256",
          "name": "",
          "type": "uint256"
        }
      ],
      "stateMutability": "view",
      "type": "function"
    },
    {
      "inputs": [
        {
          "internalType": "bytes",
          "name": "data",
          "type": "bytes"
        }
      ],
      "name": "_becomeImplementation",
      "outputs": [],
      "stateMutability": "nonpayable",
      "type": "function"
    },
    {
      "inputs": [
        {
          "internalType": "address",
          "name": "compLikeDelegatee",
          "type": "address"
        }
      ],
      "name": "_delegateCompLikeTo",
      "outputs": [],
      "stateMutability": "nonpayable",
      "type": "function"
    },
    {
      "inputs": [],
      "name": "_prepare",
      "outputs": [],
      "stateMutability": "payable",
      "type": "function"
    },
    {
      "inputs": [
        {
          "internalType": "uint256",
          "name": "reduceAmount",
          "type": "uint256"
        }
      ],
      "name": "_reduceReserves",
      "outputs": [
        {
          "internalType": "uint256",
          "name": "",
          "type": "uint256"
        }
      ],
      "stateMutability": "nonpayable",
      "type": "function"
    },
    {
      "inputs": [
        {
          "internalType": "uint256",
          "name": "newAdminFeeMantissa",
          "type": "uint256"
        }
      ],
      "name": "_setAdminFee",
      "outputs": [
        {
          "internalType": "uint256",
          "name": "",
          "type": "uint256"
        }
      ],
      "stateMutability": "nonpayable",
      "type": "function"
    },
    {
      "inputs": [
        {
          "internalType": "address",
          "name": "implementation_",
          "type": "address"
        },
        {
          "internalType": "bool",
          "name": "allowResign",
          "type": "bool"
        },
        {
          "internalType": "bytes",
          "name": "becomeImplementationData",
          "type": "bytes"
        }
      ],
      "name": "_setImplementationSafe",
      "outputs": [],
      "stateMutability": "nonpayable",
      "type": "function"
    },
    {
      "inputs": [
        {
          "internalType": "contract InterestRateModel",
          "name": "newInterestRateModel",
          "type": "address"
        }
      ],
      "name": "_setInterestRateModel",
      "outputs": [
        {
          "internalType": "uint256",
          "name": "",
          "type": "uint256"
        }
      ],
      "stateMutability": "nonpayable",
      "type": "function"
    },
    {
      "inputs": [
        {
          "internalType": "string",
          "name": "_name",
          "type": "string"
        },
        {
          "internalType": "string",
          "name": "_symbol",
          "type": "string"
        }
      ],
      "name": "_setNameAndSymbol",
      "outputs": [],
      "stateMutability": "nonpayable",
      "type": "function"
    },
    {
      "inputs": [
        {
          "internalType": "uint256",
          "name": "newReserveFactorMantissa",
          "type": "uint256"
        }
      ],
      "name": "_setReserveFactor",
      "outputs": [
        {
          "internalType": "uint256",
          "name": "",
          "type": "uint256"
        }
      ],
      "stateMutability": "nonpayable",
      "type": "function"
    },
    {
      "inputs": [
        {
          "internalType": "uint256",
          "name": "withdrawAmount",
          "type": "uint256"
        }
      ],
      "name": "_withdrawAdminFees",
      "outputs": [
        {
          "internalType": "uint256",
          "name": "",
          "type": "uint256"
        }
      ],
      "stateMutability": "nonpayable",
      "type": "function"
    },
    {
      "inputs": [
        {
          "internalType": "uint256",
          "name": "withdrawAmount",
          "type": "uint256"
        }
      ],
      "name": "_withdrawFuseFees",
      "outputs": [
        {
          "internalType": "uint256",
          "name": "",
          "type": "uint256"
        }
      ],
      "stateMutability": "nonpayable",
      "type": "function"
    },
    {
      "inputs": [],
      "name": "accrualBlockNumber",
      "outputs": [
        {
          "internalType": "uint256",
          "name": "",
          "type": "uint256"
        }
      ],
      "stateMutability": "view",
      "type": "function"
    },
    {
      "inputs": [],
      "name": "accrueInterest",
      "outputs": [
        {
          "internalType": "uint256",
          "name": "",
          "type": "uint256"
        }
      ],
      "stateMutability": "nonpayable",
      "type": "function"
    },
    {
      "inputs": [],
      "name": "adminFeeMantissa",
      "outputs": [
        {
          "internalType": "uint256",
          "name": "",
          "type": "uint256"
        }
      ],
      "stateMutability": "view",
      "type": "function"
    },
    {
      "inputs": [
        {
          "internalType": "address",
          "name": "owner",
          "type": "address"
        },
        {
          "internalType": "address",
          "name": "spender",
          "type": "address"
        }
      ],
      "name": "allowance",
      "outputs": [
        {
          "internalType": "uint256",
          "name": "",
          "type": "uint256"
        }
      ],
      "stateMutability": "view",
      "type": "function"
    },
    {
      "inputs": [
        {
          "internalType": "address",
          "name": "spender",
          "type": "address"
        },
        {
          "internalType": "uint256",
          "name": "amount",
          "type": "uint256"
        }
      ],
      "name": "approve",
      "outputs": [
        {
          "internalType": "bool",
          "name": "",
          "type": "bool"
        }
      ],
      "stateMutability": "nonpayable",
      "type": "function"
    },
    {
      "inputs": [
        {
          "internalType": "address",
          "name": "owner",
          "type": "address"
        }
      ],
      "name": "balanceOf",
      "outputs": [
        {
          "internalType": "uint256",
          "name": "",
          "type": "uint256"
        }
      ],
      "stateMutability": "view",
      "type": "function"
    },
    {
      "inputs": [
        {
          "internalType": "address",
          "name": "owner",
          "type": "address"
        }
      ],
      "name": "balanceOfUnderlying",
      "outputs": [
        {
          "internalType": "uint256",
          "name": "",
          "type": "uint256"
        }
      ],
      "stateMutability": "nonpayable",
      "type": "function"
    },
    {
      "inputs": [
        {
          "internalType": "uint256",
          "name": "borrowAmount",
          "type": "uint256"
        }
      ],
      "name": "borrow",
      "outputs": [
        {
          "internalType": "uint256",
          "name": "",
          "type": "uint256"
        }
      ],
      "stateMutability": "nonpayable",
      "type": "function"
    },
    {
      "inputs": [
        {
          "internalType": "address",
          "name": "account",
          "type": "address"
        }
      ],
      "name": "borrowBalanceCurrent",
      "outputs": [
        {
          "internalType": "uint256",
          "name": "",
          "type": "uint256"
        }
      ],
      "stateMutability": "nonpayable",
      "type": "function"
    },
    {
      "inputs": [
        {
          "internalType": "address",
          "name": "account",
          "type": "address"
        }
      ],
      "name": "borrowBalanceStored",
      "outputs": [
        {
          "internalType": "uint256",
          "name": "",
          "type": "uint256"
        }
      ],
      "stateMutability": "view",
      "type": "function"
    },
    {
      "inputs": [],
      "name": "borrowIndex",
      "outputs": [
        {
          "internalType": "uint256",
          "name": "",
          "type": "uint256"
        }
      ],
      "stateMutability": "view",
      "type": "function"
    },
    {
      "inputs": [],
      "name": "borrowRatePerBlock",
      "outputs": [
        {
          "internalType": "uint256",
          "name": "",
          "type": "uint256"
        }
      ],
      "stateMutability": "view",
      "type": "function"
    },
    {
      "inputs": [],
      "name": "comptroller",
      "outputs": [
        {
          "internalType": "contract ComptrollerInterface",
          "name": "",
          "type": "address"
        }
      ],
      "stateMutability": "view",
      "type": "function"
    },
    {
      "inputs": [],
      "name": "decimals",
      "outputs": [
        {
          "internalType": "uint8",
          "name": "",
          "type": "uint8"
        }
      ],
      "stateMutability": "view",
      "type": "function"
    },
    {
      "inputs": [],
      "name": "exchangeRateCurrent",
      "outputs": [
        {
          "internalType": "uint256",
          "name": "",
          "type": "uint256"
        }
      ],
      "stateMutability": "nonpayable",
      "type": "function"
    },
    {
      "inputs": [],
      "name": "exchangeRateStored",
      "outputs": [
        {
          "internalType": "uint256",
          "name": "",
          "type": "uint256"
        }
      ],
      "stateMutability": "view",
      "type": "function"
    },
    {
      "inputs": [],
      "name": "feeSeizeShareMantissa",
      "outputs": [
        {
          "internalType": "uint256",
          "name": "",
          "type": "uint256"
        }
      ],
      "stateMutability": "view",
      "type": "function"
    },
    {
      "inputs": [],
      "name": "fuseAdmin",
      "outputs": [
        {
          "internalType": "address payable",
          "name": "",
          "type": "address"
        }
      ],
      "stateMutability": "view",
      "type": "function"
    },
    {
      "inputs": [],
      "name": "fuseFeeMantissa",
      "outputs": [
        {
          "internalType": "uint256",
          "name": "",
          "type": "uint256"
        }
      ],
      "stateMutability": "view",
      "type": "function"
    },
    {
      "inputs": [
        {
          "internalType": "address",
          "name": "account",
          "type": "address"
        }
      ],
      "name": "getAccountSnapshot",
      "outputs": [
        {
          "internalType": "uint256",
          "name": "",
          "type": "uint256"
        },
        {
          "internalType": "uint256",
          "name": "",
          "type": "uint256"
        },
        {
          "internalType": "uint256",
          "name": "",
          "type": "uint256"
        },
        {
          "internalType": "uint256",
          "name": "",
          "type": "uint256"
        }
      ],
      "stateMutability": "view",
      "type": "function"
    },
    {
      "inputs": [],
      "name": "getCash",
      "outputs": [
        {
          "internalType": "uint256",
          "name": "",
          "type": "uint256"
        }
      ],
      "stateMutability": "view",
      "type": "function"
    },
    {
      "inputs": [],
      "name": "implementation",
      "outputs": [
        {
          "internalType": "address",
          "name": "",
          "type": "address"
        }
      ],
      "stateMutability": "view",
      "type": "function"
    },
    {
      "inputs": [
        {
          "internalType": "address",
          "name": "underlying_",
          "type": "address"
        },
        {
          "internalType": "contract ComptrollerInterface",
          "name": "comptroller_",
          "type": "address"
        },
        {
          "internalType": "address payable",
          "name": "fuseAdmin_",
          "type": "address"
        },
        {
          "internalType": "contract InterestRateModel",
          "name": "interestRateModel_",
          "type": "address"
        },
        {
          "internalType": "string",
          "name": "name_",
          "type": "string"
        },
        {
          "internalType": "string",
          "name": "symbol_",
          "type": "string"
        },
        {
          "internalType": "uint256",
          "name": "reserveFactorMantissa_",
          "type": "uint256"
        },
        {
          "internalType": "uint256",
          "name": "adminFeeMantissa_",
          "type": "uint256"
        }
      ],
      "name": "initialize",
      "outputs": [],
      "stateMutability": "nonpayable",
      "type": "function"
    },
    {
      "inputs": [
        {
          "internalType": "contract ComptrollerInterface",
          "name": "comptroller_",
          "type": "address"
        },
        {
          "internalType": "address payable",
          "name": "fuseAdmin_",
          "type": "address"
        },
        {
          "internalType": "contract InterestRateModel",
          "name": "interestRateModel_",
          "type": "address"
        },
        {
          "internalType": "uint256",
          "name": "initialExchangeRateMantissa_",
          "type": "uint256"
        },
        {
          "internalType": "string",
          "name": "name_",
          "type": "string"
        },
        {
          "internalType": "string",
          "name": "symbol_",
          "type": "string"
        },
        {
          "internalType": "uint8",
          "name": "decimals_",
          "type": "uint8"
        },
        {
          "internalType": "uint256",
          "name": "reserveFactorMantissa_",
          "type": "uint256"
        },
        {
          "internalType": "uint256",
          "name": "adminFeeMantissa_",
          "type": "uint256"
        }
      ],
      "name": "initialize",
      "outputs": [],
      "stateMutability": "nonpayable",
      "type": "function"
    },
    {
      "inputs": [],
      "name": "interestRateModel",
      "outputs": [
        {
          "internalType": "contract InterestRateModel",
          "name": "",
          "type": "address"
        }
      ],
      "stateMutability": "view",
      "type": "function"
    },
    {
      "inputs": [],
      "name": "isCEther",
      "outputs": [
        {
          "internalType": "bool",
          "name": "",
          "type": "bool"
        }
      ],
      "stateMutability": "nonpayable",
      "type": "function"
    },
    {
      "inputs": [],
      "name": "isCToken",
      "outputs": [
        {
          "internalType": "bool",
          "name": "",
          "type": "bool"
        }
      ],
      "stateMutability": "nonpayable",
      "type": "function"
    },
    {
      "inputs": [
        {
          "internalType": "address",
          "name": "borrower",
          "type": "address"
        },
        {
          "internalType": "uint256",
          "name": "repayAmount",
          "type": "uint256"
        },
        {
          "internalType": "contract CTokenInterface",
          "name": "cTokenCollateral",
          "type": "address"
        }
      ],
      "name": "liquidateBorrow",
      "outputs": [
        {
          "internalType": "uint256",
          "name": "",
          "type": "uint256"
        }
      ],
      "stateMutability": "nonpayable",
      "type": "function"
    },
    {
      "inputs": [
        {
          "internalType": "uint256",
          "name": "mintAmount",
          "type": "uint256"
        }
      ],
      "name": "mint",
      "outputs": [
        {
          "internalType": "uint256",
          "name": "",
          "type": "uint256"
        }
      ],
      "stateMutability": "nonpayable",
      "type": "function"
    },
    {
      "inputs": [],
      "name": "name",
      "outputs": [
        {
          "internalType": "string",
          "name": "",
          "type": "string"
        }
      ],
      "stateMutability": "view",
      "type": "function"
    },
    {
      "inputs": [],
      "name": "plugin",
      "outputs": [
        {
          "internalType": "contract IERC4626",
          "name": "",
          "type": "address"
        }
      ],
      "stateMutability": "view",
      "type": "function"
    },
    {
      "inputs": [],
      "name": "protocolSeizeShareMantissa",
      "outputs": [
        {
          "internalType": "uint256",
          "name": "",
          "type": "uint256"
        }
      ],
      "stateMutability": "view",
      "type": "function"
    },
    {
      "inputs": [
        {
          "internalType": "uint256",
          "name": "redeemTokens",
          "type": "uint256"
        }
      ],
      "name": "redeem",
      "outputs": [
        {
          "internalType": "uint256",
          "name": "",
          "type": "uint256"
        }
      ],
      "stateMutability": "nonpayable",
      "type": "function"
    },
    {
      "inputs": [
        {
          "internalType": "uint256",
          "name": "redeemAmount",
          "type": "uint256"
        }
      ],
      "name": "redeemUnderlying",
      "outputs": [
        {
          "internalType": "uint256",
          "name": "",
          "type": "uint256"
        }
      ],
      "stateMutability": "nonpayable",
      "type": "function"
    },
    {
      "inputs": [
        {
          "internalType": "uint256",
          "name": "repayAmount",
          "type": "uint256"
        }
      ],
      "name": "repayBorrow",
      "outputs": [
        {
          "internalType": "uint256",
          "name": "",
          "type": "uint256"
        }
      ],
      "stateMutability": "nonpayable",
      "type": "function"
    },
    {
      "inputs": [
        {
          "internalType": "address",
          "name": "borrower",
          "type": "address"
        },
        {
          "internalType": "uint256",
          "name": "repayAmount",
          "type": "uint256"
        }
      ],
      "name": "repayBorrowBehalf",
      "outputs": [
        {
          "internalType": "uint256",
          "name": "",
          "type": "uint256"
        }
      ],
      "stateMutability": "nonpayable",
      "type": "function"
    },
    {
      "inputs": [],
      "name": "reserveFactorMantissa",
      "outputs": [
        {
          "internalType": "uint256",
          "name": "",
          "type": "uint256"
        }
      ],
      "stateMutability": "view",
      "type": "function"
    },
    {
      "inputs": [
        {
          "internalType": "address",
          "name": "liquidator",
          "type": "address"
        },
        {
          "internalType": "address",
          "name": "borrower",
          "type": "address"
        },
        {
          "internalType": "uint256",
          "name": "seizeTokens",
          "type": "uint256"
        }
      ],
      "name": "seize",
      "outputs": [
        {
          "internalType": "uint256",
          "name": "",
          "type": "uint256"
        }
      ],
      "stateMutability": "nonpayable",
      "type": "function"
    },
    {
      "inputs": [],
      "name": "supplyRatePerBlock",
      "outputs": [
        {
          "internalType": "uint256",
          "name": "",
          "type": "uint256"
        }
      ],
      "stateMutability": "view",
      "type": "function"
    },
    {
      "inputs": [],
      "name": "symbol",
      "outputs": [
        {
          "internalType": "string",
          "name": "",
          "type": "string"
        }
      ],
      "stateMutability": "view",
      "type": "function"
    },
    {
      "inputs": [],
      "name": "totalAdminFees",
      "outputs": [
        {
          "internalType": "uint256",
          "name": "",
          "type": "uint256"
        }
      ],
      "stateMutability": "view",
      "type": "function"
    },
    {
      "inputs": [],
      "name": "totalBorrows",
      "outputs": [
        {
          "internalType": "uint256",
          "name": "",
          "type": "uint256"
        }
      ],
      "stateMutability": "view",
      "type": "function"
    },
    {
      "inputs": [],
      "name": "totalBorrowsCurrent",
      "outputs": [
        {
          "internalType": "uint256",
          "name": "",
          "type": "uint256"
        }
      ],
      "stateMutability": "nonpayable",
      "type": "function"
    },
    {
      "inputs": [],
      "name": "totalFuseFees",
      "outputs": [
        {
          "internalType": "uint256",
          "name": "",
          "type": "uint256"
        }
      ],
      "stateMutability": "view",
      "type": "function"
    },
    {
      "inputs": [],
      "name": "totalReserves",
      "outputs": [
        {
          "internalType": "uint256",
          "name": "",
          "type": "uint256"
        }
      ],
      "stateMutability": "view",
      "type": "function"
    },
    {
      "inputs": [],
      "name": "totalSupply",
      "outputs": [
        {
          "internalType": "uint256",
          "name": "",
          "type": "uint256"
        }
      ],
      "stateMutability": "view",
      "type": "function"
    },
    {
      "inputs": [
        {
          "internalType": "address",
          "name": "dst",
          "type": "address"
        },
        {
          "internalType": "uint256",
          "name": "amount",
          "type": "uint256"
        }
      ],
      "name": "transfer",
      "outputs": [
        {
          "internalType": "bool",
          "name": "",
          "type": "bool"
        }
      ],
      "stateMutability": "nonpayable",
      "type": "function"
    },
    {
      "inputs": [
        {
          "internalType": "address",
          "name": "src",
          "type": "address"
        },
        {
          "internalType": "address",
          "name": "dst",
          "type": "address"
        },
        {
          "internalType": "uint256",
          "name": "amount",
          "type": "uint256"
        }
      ],
      "name": "transferFrom",
      "outputs": [
        {
          "internalType": "bool",
          "name": "",
          "type": "bool"
        }
      ],
      "stateMutability": "nonpayable",
      "type": "function"
    },
    {
      "inputs": [],
      "name": "underlying",
      "outputs": [
        {
          "internalType": "address",
          "name": "",
          "type": "address"
        }
      ],
      "stateMutability": "view",
      "type": "function"
    }
  ],
  "transactionHash": "0x6954e1bf580cb4ec1a6c417d07d71a260652aebec1b7a3ebdaab826644cc0408",
  "args": [],
  "numDeployments": 1,
  "bytecode": {
    "object": "0x608060405234801561001057600080fd5b50615e8f80620000216000396000f3fe6080604052600436106102b25760003560e01c806306db3ecd146102b757806306fdde03146102d9578063095ea7b3146103045780630e7527021461033457806315761d5114610362578063173b99041461038f57806317bfdfbc146103a557806318160ddd146103c5578063182df0f5146103db5780631db78944146103f0578063219ef65c146103f857806323b872dd146104185780632608f81814610438578063313ce5671461045857806334154d4c146104845780633af9e669146104a45780633b1d21a2146104c457806347bd3718146104d957806350d85b73146104ef57806356e677281461050f5780635c60da1b1461052f5780635fe3b5671461054f578063601a0bf11461056f57806361feacff1461058f5780636752e702146105a55780636c540baf146105c05780636f307dc3146105d657806370a08231146105f657806373acee981461062c5780637f1e06be14610641578063852a12e3146106615780638d02d9a1146106815780638f840ddd1461069757806391dd36c6146106ad57806395d89b41146106cd57806395dd9193146106e2578063a03dce8d14610702578063a0712d6814610722578063a6afed9514610742578063a7b820df14610757578063a9059cbb14610777578063aa5af0fd14610797578063aaf5eb68146107ad578063ac784ddc146107c9578063ae9d70b0146107dd578063b2a02ff1146107f2578063bd6d894d14610812578063be99f11914610827578063c37f68e214610843578063c5ebeaec14610873578063db006a7514610893578063dbfe7c19146108b3578063dc028ab1146108c9578063dd62ed3e146108df578063ef01df4f14610925578063f2b3abbd14610945578063f3fdb15a14610965578063f5e3c46214610985578063f8f9da28146109a5578063fca7820b146109ba578063fe9c44ae146109da575b600080fd5b3480156102c357600080fd5b506102d76102d23660046155dc565b6109ee565b005b3480156102e557600080fd5b506102ee610afc565b6040516102fb91906156f5565b60405180910390f35b34801561031057600080fd5b5061032461031f366004615708565b610b8a565b60405190151581526020016102fb565b34801561034057600080fd5b5061035461034f366004615734565b610bfa565b6040519081526020016102fb565b34801561036e57600080fd5b50600154610382906001600160a01b031681565b6040516102fb919061574d565b34801561039b57600080fd5b50610354600b5481565b3480156103b157600080fd5b506103546103c0366004615761565b610c0e565b3480156103d157600080fd5b5061035460125481565b3480156103e757600080fd5b50610354610c65565b6102d7610cf6565b34801561040457600080fd5b506102d7610413366004615798565b610e2c565b34801561042457600080fd5b5061032461043336600461585f565b611153565b34801561044457600080fd5b50610354610453366004615708565b611179565b34801561046457600080fd5b506005546104729060ff1681565b60405160ff90911681526020016102fb565b34801561049057600080fd5b506102d761049f3660046158e1565b61118f565b3480156104b057600080fd5b506103546104bf366004615761565b6111f6565b3480156104d057600080fd5b506103546112a6565b3480156104e557600080fd5b50610354600e5481565b3480156104fb57600080fd5b506102d761050a36600461595a565b6112b5565b34801561051b57600080fd5b506102d761052a3660046159b2565b611339565b34801561053b57600080fd5b50600054610382906001600160a01b031681565b34801561055b57600080fd5b50600654610382906001600160a01b031681565b34801561057b57600080fd5b5061035461058a366004615734565b61161b565b34801561059b57600080fd5b5061035460105481565b3480156105b157600080fd5b50610354666379da05b6000081565b3480156105cc57600080fd5b50610354600c5481565b3480156105e257600080fd5b50601654610382906001600160a01b031681565b34801561060257600080fd5b50610354610611366004615761565b6001600160a01b031660009081526013602052604090205490565b34801561063857600080fd5b50610354611672565b34801561064d57600080fd5b506102d761065c366004615761565b6116b7565b34801561066d57600080fd5b5061035461067c366004615734565b61177f565b34801561068d57600080fd5b5061035460095481565b3480156106a357600080fd5b50610354600f5481565b3480156106b957600080fd5b506103546106c8366004615734565b61178a565b3480156106d957600080fd5b506102ee6117cd565b3480156106ee57600080fd5b506103546106fd366004615761565b6117da565b34801561070e57600080fd5b5061035461071d366004615734565b611875565b34801561072e57600080fd5b5061035461073d366004615734565b6118b8565b34801561074e57600080fd5b506103546118c4565b34801561076357600080fd5b50610354610772366004615734565b611a6c565b34801561078357600080fd5b50610324610792366004615708565b611aaf565b3480156107a357600080fd5b50610354600d5481565b3480156107b957600080fd5b50610354670de0b6b3a764000081565b3480156107d557600080fd5b506000610324565b3480156107e957600080fd5b50610354611adc565b3480156107fe57600080fd5b5061035461080d36600461585f565b611b8c565b34801561081e57600080fd5b50610354611bb0565b34801561083357600080fd5b5061035467016345785d8a000081565b34801561084f57600080fd5b5061086361085e366004615761565b611bf6565b6040516102fb94939291906159f3565b34801561087f57600080fd5b5061035461088e366004615734565b611c97565b34801561089f57600080fd5b506103546108ae366004615734565b611ca2565b3480156108bf57600080fd5b50610354600a5481565b3480156108d557600080fd5b5061035460115481565b3480156108eb57600080fd5b506103546108fa366004615a0e565b6001600160a01b03918216600090815260146020908152604080832093909416825291909152205490565b34801561093157600080fd5b50601754610382906001600160a01b031681565b34801561095157600080fd5b50610354610960366004615761565b611cad565b34801561097157600080fd5b50600754610382906001600160a01b031681565b34801561099157600080fd5b506103546109a0366004615a47565b611ce5565b3480156109b157600080fd5b50610354611cfd565b3480156109c657600080fd5b506103546109d5366004615734565b611d4e565b3480156109e657600080fd5b506001610324565b60006702c68af0bb14000090506000896001600160a01b031663313ce5676040518163ffffffff1660e01b8152600401602060405180830381865afa158015610a3b573d6000803e3d6000fd5b505050506040513d601f19601f82011682018060405250810190610a5f9190615a89565b9050610a72898989858a8a878b8b610e2c565b601680546001600160a01b0319166001600160a01b038c16908117909155604080516318160ddd60e01b815290516318160ddd916004808201926020929091908290030181865afa158015610acb573d6000803e3d6000fd5b505050506040513d601f19601f82011682018060405250810190610aef9190615aa6565b5050505050505050505050565b60038054610b0990615abf565b80601f0160208091040260200160405190810160405280929190818152602001828054610b3590615abf565b8015610b825780601f10610b5757610100808354040283529160200191610b82565b820191906000526020600020905b815481529060010190602001808311610b6557829003601f168201915b505050505081565b3360008181526014602090815260408083206001600160a01b03871680855292528083208590555191929182907f8c5be1e5ebec7d5bd14f71427d1e84f3dd0314c0f7b2291e5b200ac8c7c3b92590610be69087815260200190565b60405180910390a360019150505b92915050565b600080610c0683611d91565b509392505050565b600080610c1a81611df9565b6000610c246118c4565b14610c4a5760405162461bcd60e51b8152600401610c4190615b0a565b60405180910390fd5b610c53836117da565b91505b610c5f81611ebd565b50919050565b6000806000610c72611f28565b90925090506000826003811115610c8b57610c8b615af4565b14610bf45760405162461bcd60e51b815260206004820152603560248201527f65786368616e67655261746553746f7265643a2065786368616e67655261746560448201527414dd1bdc9959125b9d195c9b985b0819985a5b1959605a1b6064820152608401610c41565b333014801590610d785750600660009054906101000a90046001600160a01b03166001600160a01b031663dd5cd22c6040518163ffffffff1660e01b8152600401602060405180830381865afa158015610d54573d6000803e3d6000fd5b505050506040513d601f19601f82011682018060405250810190610d789190615b3a565b15610e2a57600154600080546040516345cc970560e01b81529192839283926001600160a01b03928316926345cc970592610db9929091169060040161574d565b600060405180830381865afa158015610dd6573d6000803e3d6000fd5b505050506040513d6000823e601f3d908101601f19168201604052610dfe9190810190615b57565b60005492955090935091506001600160a01b03808516911614610e2657610e26838383611fe7565b5050505b565b336001600160a01b03891614610e965760405162461bcd60e51b815260206004820152602960248201527f6f6e6c7920467573652061646d696e206d617920696e697469616c697a6520746044820152681a19481b585c9ad95d60ba1b6064820152608401610c41565b600c54158015610ea65750600d54155b610efe5760405162461bcd60e51b815260206004820152602360248201527f6d61726b6574206d6179206f6e6c7920626520696e697469616c697a6564206f6044820152626e636560e81b6064820152608401610c41565b600180546001600160a01b0319166001600160a01b038a16179055600886905585610f845760405162461bcd60e51b815260206004820152603060248201527f696e697469616c2065786368616e67652072617465206d75737420626520677260448201526f32b0ba32b9103a3430b7103d32b9379760811b6064820152608401610c41565b6000610f8f8a61216a565b90508015610fdc5760405162461bcd60e51b815260206004820152601a6024820152791cd95d1d1a5b99c818dbdb5c1d1c9bdb1b195c8819985a5b195960321b6044820152606401610c41565b43600c55670de0b6b3a7640000600d55610ff58861225e565b905080156110505760405162461bcd60e51b815260206004820152602260248201527f73657474696e6720696e7465726573742072617465206d6f64656c206661696c604482015261195960f21b6064820152608401610c41565b855161106390600390602089019061539a565b50845161107790600490602088019061539a565b506005805460ff191660ff861617905561109083612498565b905080156110e05760405162461bcd60e51b815260206004820152601d60248201527f73657474696e67207265736572766520666163746f72206661696c65640000006044820152606401610c41565b6110e982612537565b905080156111345760405162461bcd60e51b81526020600482015260186024820152771cd95d1d1a5b99c818591b5a5b881999594819985a5b195960421b6044820152606401610c41565b50506002805460ff60b01b1916600160b01b1790555050505050505050565b60008061115f81611df9565b600061116d33878787612651565b149150610c0681611ebd565b60008061118684846128e4565b50949350505050565b61119761294e565b6111d65760405162461bcd60e51b815260206004820152601060248201526f31b0b63632b9103737ba1030b236b4b760811b6044820152606401610c41565b6111e26003858561541a565b506111ef6004838361541a565b5050505050565b600080604051806020016040528061120c611bb0565b90526001600160a01b038416600090815260136020526040812054919250908190611238908490612ab9565b9092509050600082600381111561125157611251615af4565b1461129e5760405162461bcd60e51b815260206004820152601f60248201527f62616c616e636520636f756c64206e6f742062652063616c63756c61746564006044820152606401610c41565b949350505050565b60006112b0612b0c565b905090565b6112bd61294e565b6112f25760405162461bcd60e51b815260206004820152600660248201526510b0b236b4b760d11b6044820152606401610c41565b611333848484848080601f016020809104026020016040519081016040528093929190818152602001838380828437600092019190915250611fe792505050565b50505050565b3330148061134a575061134a61294e565b61135357600080fd5b600061136182840184615761565b90506001600160a01b03811661139d5760405162461bcd60e51b81526020600482015260016024820152600360fc1b6044820152606401610c41565b6017546001600160a01b03161580159061142657506017546040516370a0823160e01b81526001600160a01b03909116906370a08231906113e290309060040161574d565b602060405180830381865afa1580156113ff573d6000803e3d6000fd5b505050506040513d601f19601f820116820180604052508101906114239190615aa6565b15155b15611509576017546040516370a0823160e01b81526001600160a01b039091169063ba0876529082906370a082319061146390309060040161574d565b602060405180830381865afa158015611480573d6000803e3d6000fd5b505050506040513d601f19601f820116820180604052508101906114a49190615aa6565b30306040518463ffffffff1660e01b81526004016114c493929190615bf6565b6020604051808303816000875af11580156114e3573d6000803e3d6000fd5b505050506040513d601f19601f820116820180604052508101906115079190615aa6565b505b601780546001600160a01b0319166001600160a01b038381169190911790915560165460405163095ea7b360e01b815291169063095ea7b39061155490849060001990600401615c15565b6020604051808303816000875af1158015611573573d6000803e3d6000fd5b505050506040513d601f19601f820116820180604052508101906115979190615b3a565b506016546040516370a0823160e01b81526000916001600160a01b0316906370a08231906115c990309060040161574d565b602060405180830381865afa1580156115e6573d6000803e3d6000fd5b505050506040513d601f19601f8201168201806040525081019061160a9190615aa6565b905080156113335761133381612ba4565b60008061162781611df9565b60006116316118c4565b9050801561165d5761165581601181111561164e5761164e615af4565b603b612c1d565b925050610c56565b61166684612c7d565b925050610c5f81611ebd565b60008061167e81611df9565b60006116886118c4565b146116a55760405162461bcd60e51b8152600401610c4190615b0a565b600e5491506116b381611ebd565b5090565b6116bf61294e565b6117215760405162461bcd60e51b815260206004820152602d60248201527f6f6e6c79207468652061646d696e206d6179207365742074686520636f6d702d60448201526c6c696b652064656c656761746560981b6064820152608401610c41565b6016546040516317066a5760e21b81526001600160a01b0390911690635c19a95c9061175190849060040161574d565b600060405180830381600087803b15801561176b57600080fd5b505af11580156111ef573d6000803e3d6000fd5b6000610bf482612d2e565b60008061179681611df9565b60006117a06118c4565b905080156117c4576116558160118111156117bd576117bd615af4565b6052612c1d565b61166684612537565b60048054610b0990615abf565b60008060006117e884612d74565b9092509050600082600381111561180157611801615af4565b1461186e5760405162461bcd60e51b815260206004820152603760248201527f626f72726f7742616c616e636553746f7265643a20626f72726f7742616c616e60448201527618d954dd1bdc9959125b9d195c9b985b0819985a5b1959604a1b6064820152608401610c41565b9392505050565b60008061188181611df9565b600061188b6118c4565b905080156118af576116558160118111156118a8576118a8615af4565b6033612c1d565b61166684612e2d565b600080610c0683612ea0565b600c5460009043908114156118dc5760005b91505090565b60006118e6612b0c565b90506000600760009054906101000a90046001600160a01b03166001600160a01b03166315f2405383600e5461192b600f54611926601054601154612ee6565b612ee6565b6040518463ffffffff1660e01b815260040161194993929190615c2e565b602060405180830381865afa158015611966573d6000803e3d6000fd5b505050506040513d601f19601f8201168201806040525081019061198a9190615aa6565b905065048c273950008111156119e15760405162461bcd60e51b815260206004820152601c60248201527b0c4dee4e4deee40e4c2e8ca40d2e640c2c4e6eae4c8d8f240d0d2ced60231b6044820152606401610c41565b6000806119f085600c54612f1c565b90925090506000826003811115611a0957611a09615af4565b14611a565760405162461bcd60e51b815260206004820152601f60248201527f636f756c64206e6f742063616c63756c61746520626c6f636b2064656c7461006044820152606401610c41565b611a6285858584612f47565b9550505050505090565b600080611a7881611df9565b6000611a826118c4565b90508015611aa657611655816011811115611a9f57611a9f615af4565b6037612c1d565b61166684613069565b600080611abb81611df9565b6000611ac933338787612651565b149150611ad581611ebd565b5092915050565b6007546000906001600160a01b031663b8168816611af8612b0c565b600e54611b0f600f54611926601054601154612ee6565b600954600a54600b54611b229190615c5a565b611b2c9190615c5a565b6040518563ffffffff1660e01b8152600401611b4b94939291906159f3565b602060405180830381865afa158015611b68573d6000803e3d6000fd5b505050506040513d601f19601f820116820180604052508101906112b09190615aa6565b60006001611b9981611df9565b611ba533868686613147565b9150610c0681611ebd565b600080611bbc81611df9565b6000611bc66118c4565b14611be35760405162461bcd60e51b8152600401610c4190615b0a565b611beb610c65565b91506116b381611ebd565b6001600160a01b038116600090815260136020526040812054819081908190818080611c2189612d74565b935090506000816003811115611c3957611c39615af4565b14611c575760095b6000806000975097509750975050505050611c90565b611c5f611f28565b925090506000816003811115611c7757611c77615af4565b14611c83576009611c41565b5060009650919450925090505b9193509193565b6000610bf48261362e565b6000610bf482613672565b600080611cb86118c4565b90508015611cdc5761186e816011811115611cd557611cd5615af4565b604b612c1d565b61186e8361225e565b600080611cf38585856136b1565b5095945050505050565b6007546000906001600160a01b03166315f24053611d19612b0c565b600e54611d30600f54611926601054601154612ee6565b6040518463ffffffff1660e01b8152600401611b4b93929190615c2e565b600080611d5a81611df9565b6000611d646118c4565b90508015611d8857611655816011811115611d8157611d81615af4565b6059612c1d565b61166684612498565b6000806000611d9f81611df9565b6000611da96118c4565b90508015611dd957611dcd816011811115611dc657611dc6615af4565b6041612c1d565b60009350935050611dea565b611de43333876137a5565b93509350505b611df381611ebd565b50915091565b600254600160b01b900460ff16611e3f5760405162461bcd60e51b815260206004820152600a6024820152691c994b595b9d195c995960b21b6044820152606401610c41565b80611ead57600660009054906101000a90046001600160a01b03166001600160a01b031663c90c20b16040518163ffffffff1660e01b8152600401600060405180830381600087803b158015611e9457600080fd5b505af1158015611ea8573d6000803e3d6000fd5b505050505b506002805460ff60b01b19169055565b6002805460ff60b01b1916600160b01b17905580611f2557600660009054906101000a90046001600160a01b03166001600160a01b031663632e51426040518163ffffffff1660e01b8152600401600060405180830381600087803b15801561176b57600080fd5b50565b601254600090819080611f42575050600854600092909150565b6000611f4c612b0c565b90506000611f5861548e565b6000611f7a84600e54611f75600f54611926601054601154612ee6565b613bae565b935090506000816003811115611f9257611f92615af4565b14611fa4579660009650945050505050565b611fae8386613c00565b925090506000816003811115611fc657611fc6615af4565b14611fd8579660009650945050505050565b50516000969095509350505050565b6001546000546040516338e6a07360e11b81526001600160a01b039182166004820152858216602482015284151560448201529116906371cd40e690606401602060405180830381865afa158015612043573d6000803e3d6000fd5b505050506040513d601f19601f820116820180604052508101906120679190615b3a565b61209b5760405162461bcd60e51b8152602060048201526005602482015264085a5b5c1b60da1b6044820152606401610c41565b600080546001600160a01b038581166001600160a01b031983161790925560405191169061211e9030906120d39085906024016156f5565b60408051601f19818403018152918152602080830180516001600160e01b0316630adccee560e31b17905281518083019092526007825266216265636f6d6560c81b90820152613cbd565b506000546040517fd604de94d45953f9138079ec1b82d533cb2160c906d1076d1f7ed54befbca97a9161215c9184916001600160a01b031690615c72565b60405180910390a150505050565b600080600660009054906101000a90046001600160a01b03169050826001600160a01b0316627e3dd26040518163ffffffff1660e01b8152600401602060405180830381865afa1580156121c2573d6000803e3d6000fd5b505050506040513d601f19601f820116820180604052508101906121e69190615b3a565b6122025760405162461bcd60e51b8152600401610c4190615c8c565b600680546001600160a01b0319166001600160a01b0385161790556040517f7ac369dbd14fa5ea3f473ed67cc9d598964a77501540ba6751eb0b3decf5870d9061224f9083908690615c72565b60405180910390a1600061186e565b60008061226961294e565b6122795761186e6001604d612c1d565b43600c541461228e5761186e600a604c612c1d565b600760009054906101000a90046001600160a01b03169050826001600160a01b0316632191f92a6040518163ffffffff1660e01b8152600401602060405180830381865afa1580156122e4573d6000803e3d6000fd5b505050506040513d601f19601f820116820180604052508101906123089190615b3a565b6123245760405162461bcd60e51b8152600401610c4190615c8c565b600780546001600160a01b0319166001600160a01b0385161790556040517fedffc32e068c7c95dfd4bdfd5c4d939a084d6b11c4199eac8436ed234d72f926906123719083908690615c72565b60405180910390a16001600160a01b0381161561240c5760408051600481526024810182526020810180516001600160e01b0316636cc1140b60e11b17905290516001600160a01b038316916123c691615cc2565b6000604051808303816000865af19150503d8060008114612403576040519150601f19603f3d011682016040523d82523d6000602084013e612408565b606091505b5050505b60408051600481526024810182526020810180516001600160e01b031663742a137b60e11b17905290516001600160a01b0385169161244a91615cc2565b6000604051808303816000865af19150503d8060008114612487576040519150601f19603f3d011682016040523d82523d6000602084013e61248c565b606091505b506000915061186e9050565b60006124a261294e565b6124b257610bf46001605a612c1d565b43600c54146124c757610bf4600a605b612c1d565b670de0b6b3a76400006124e76124df84600954612ee6565b600a54612ee6565b11156124f957610bf46002605c612c1d565b600b80549083905560408051828152602081018590527faaa68312e2ea9d50e16af5068410ab56e1a1fd06037b1a35664812c30f821460910161224f565b600043600c541461254e57610bf4600a6054612c1d565b60001982141561255e5760095491505b6000612568613d59565b9050670de0b6b3a7640000612588612582600b5486612ee6565b83612ee6565b111561259a5761186e60026055612c1d565b82600954146125fe576125ab61294e565b6125bb5761186e60016053612c1d565b600980549084905560408051828152602081018690527fcdd0b588250e1398549f79cfdb8217c186688822905d6715b0834ea1c865594a910160405180910390a1505b80600a541461264a57600a80549082905560408051828152602081018490527f92eef861b6533b7d3417f39c2ad7b460eed4e88a32fa3604f30e718b7602e7dc910160405180910390a1505b600061186e565b6006546040516317b9b84b60e31b815260009182916001600160a01b039091169063bdcdc2589061268c903090899089908990600401615cde565b6020604051808303816000875af11580156126ab573d6000803e3d6000fd5b505050506040513d601f19601f820116820180604052508101906126cf9190615aa6565b905080156126ec576126e46003605d83613da3565b91505061129e565b836001600160a01b0316856001600160a01b03161415612712576126e46002605e612c1d565b6000856001600160a01b0316876001600160a01b03161415612737575060001961275f565b506001600160a01b038086166000908152601460209081526040808320938a16835292905220545b60008060008061276f8589612f1c565b9094509250600084600381111561278857612788615af4565b146127a6576127996009605e612c1d565b965050505050505061129e565b6001600160a01b038a166000908152601360205260409020546127c99089612f1c565b909450915060008460038111156127e2576127e2615af4565b146127f3576127996009605f612c1d565b6001600160a01b0389166000908152601360205260409020546128169089613e2c565b9094509050600084600381111561282f5761282f615af4565b146128405761279960096060612c1d565b6001600160a01b03808b16600090815260136020526040808220859055918b168152208190556000198514612898576001600160a01b03808b166000908152601460209081526040808320938f168352929052208390555b886001600160a01b03168a6001600160a01b0316600080516020615e638339815191528a6040516128cb91815260200190565b60405180910390a35060009a9950505050505050505050565b60008060006128f281611df9565b60006128fc6118c4565b9050801561292c5761292081601181111561291957612919615af4565b6040612c1d565b6000935093505061293d565b6129373387876137a5565b93509350505b61294681611ebd565b509250929050565b600654604080516303e1469160e61b815290516000926001600160a01b031691829163f851a440916004808201926020929091908290030181865afa15801561299b573d6000803e3d6000fd5b505050506040513d601f19601f820116820180604052508101906129bf9190615d08565b6001600160a01b0316336001600160a01b0316148015612a3c5750806001600160a01b0316630a755ec26040518163ffffffff1660e01b8152600401602060405180830381865afa158015612a18573d6000803e3d6000fd5b505050506040513d601f19601f82011682018060405250810190612a3c9190615b3a565b806118d657506001546001600160a01b0316331480156118d65750806001600160a01b0316632f1069ba6040518163ffffffff1660e01b8152600401602060405180830381865afa158015612a95573d6000803e3d6000fd5b505050506040513d601f19601f820116820180604052508101906118d69190615b3a565b600080600080612ac98686613e5c565b90925090506000826003811115612ae257612ae2615af4565b14612af35750915060009050612b05565b6000612afe82613eca565b9350935050505b9250929050565b6017546040516370a0823160e01b81526000916001600160a01b031690634cdad5069082906370a0823190612b4590309060040161574d565b602060405180830381865afa158015612b62573d6000803e3d6000fd5b505050506040513d601f19601f82011682018060405250810190612b869190615aa6565b6040518263ffffffff1660e01b8152600401611b4b91815260200190565b601754604051636e553f6560e01b8152600481018390523060248201526001600160a01b0390911690636e553f65906044016020604051808303816000875af1158015612bf5573d6000803e3d6000fd5b505050506040513d601f19601f82011682018060405250810190612c199190615aa6565b5050565b6000600080516020615e43833981519152836011811115612c4057612c40615af4565b836063811115612c5257612c52615af4565b6000604051612c6393929190615c2e565b60405180910390a182601181111561186e5761186e615af4565b600080612c8861294e565b612c985761186e6001603c612c1d565b43600c5414612cad5761186e600a603e612c1d565b82612cb6612b0c565b1015612cc85761186e600e603d612c1d565b600f54831115612cde5761186e6002603f612c1d565b612cea600f5484613ee2565b600f8190559050612cfb3384613f1c565b7f3bad0c59cf2f06e7314077049f48a93578cd16f5ef92329f1dab1420a99c177e33848360405161224f93929190615d25565b600080612d3a81611df9565b6000612d446118c4565b90508015612d6857611655816011811115612d6157612d61615af4565b602a612c1d565b61166633600086613f93565b6001600160a01b038116600090815260156020526040812080548291829182918291612da95750600096879650945050505050565b612db98160000154600d546144d2565b90945092506000846003811115612dd257612dd2615af4565b14612de557509195600095509350505050565b612df383826001015461451c565b90945091506000846003811115612e0c57612e0c615af4565b14612e1f57509195600095509350505050565b506000969095509350505050565b60008043600c5414612e455761186e600a6035612c1d565b82612e4e612b0c565b1015612e605761186e600e6034612c1d565b601154831115612e765761186e60026036612c1d565b612e8260115484613ee2565b601181905560015490915061264a906001600160a01b031684613f1c565b6000806000612eae81611df9565b6000612eb86118c4565b90508015612edc57611dcd816011811115612ed557612ed5615af4565b6020612c1d565b611de43386614547565b600061186e8383604051806040016040528060118152602001706164646974696f6e206f766572666c6f7760781b8152506148be565b600080838311612f3b576000612f328486615d46565b91509150612b05565b50600390506000612b05565b600080612f62604051806020016040528086815250846148ef565b90506000612f7282600e54614919565b90506000612f8282600e54612ee6565b90506000612fa36040518060200160405280600b5481525084600f54614931565b90506000612fc46040518060200160405280600a5481525085601154614931565b90506000612fe5604051806020016040528060095481525086601054614931565b90506000612ff887600d54600d54614931565b600c8d9055600d819055600e869055600f859055601184905560108390556040519091507f4dec04e750ca11537cabcd8a9eab06494de08da3735bc8871cd41250e190bc049061304f908d90899085908a906159f3565b60405180910390a160009c9b505050505050505050505050565b60008043600c54146130815761186e600a6039612c1d565b8261308a612b0c565b101561309c5761186e600e6038612c1d565b6010548311156130b25761186e6002603a612c1d565b6130be60105484613ee2565b90508060108190555061264a600660009054906101000a90046001600160a01b03166001600160a01b031663f851a4406040518163ffffffff1660e01b8152600401602060405180830381865afa15801561311d573d6000803e3d6000fd5b505050506040513d601f19601f820116820180604052508101906131419190615d08565b84613f1c565b60065460405163d02f735160e01b815260009182916001600160a01b039091169063d02f7351906131849030908a908a908a908a90600401615d5d565b6020604051808303816000875af11580156131a3573d6000803e3d6000fd5b505050506040513d601f19601f820116820180604052508101906131c79190615aa6565b905080156131dc576126e46003601d83613da3565b846001600160a01b0316846001600160a01b03161415613202576126e46006601e612c1d565b613267604080516101808101909152806000815260200160008152602001600081526020016000815260200160008152602001600081526020016000815260200160008152602001600081526020016000815260200160008152602001600081525090565b6001600160a01b03851660009081526013602052604090205461328a9085612f1c565b60208301819052828260038111156132a4576132a4615af4565b60038111156132b5576132b5615af4565b90525060009050815160038111156132cf576132cf615af4565b146132ff576132f66009601c836000015160038111156132f1576132f1615af4565b613da3565b9250505061129e565b61331e846040518060200160405280666379da05b60000815250614952565b6080820152604080516020810190915267016345785d8a00008152613344908590614952565b61014082015260808101516133699061335e908690613ee2565b826101400151613ee2565b6060820152613376611f28565b60c083018190528282600381111561339057613390615af4565b60038111156133a1576133a1615af4565b90525060009050815160038111156133bb576133bb615af4565b146134035760405162461bcd60e51b815260206004820152601860248201527732bc31b430b733b2903930ba329036b0ba341032b93937b960411b6044820152606401610c41565b61342360405180602001604052808360c001518152508260800151614919565b60a0820152604080516020810190915260c0820151815261014082015161344a9190614919565b610160820152600f5460a08201516134629190612ee6565b60e0820152601254608082015161347c9161335e91613ee2565b6101208201526011546101608201516134959190612ee6565b6101008201526001600160a01b03861660009081526013602052604090205460608201516134c39190613e2c565b60408301819052828260038111156134dd576134dd615af4565b60038111156134ee576134ee615af4565b905250600090508151600381111561350857613508615af4565b1461352a576132f66009601b836000015160038111156132f1576132f1615af4565b60e0810151600f556101208101516012556101008101516011556020808201516001600160a01b0387811660008181526013855260408082209490945583860151928b1680825290849020929092556060850151925192835290929091600080516020615e63833981519152910160405180910390a3306001600160a01b0316856001600160a01b0316600080516020615e6383398151915283608001516040516135d791815260200190565b60405180910390a360a081015160e08201516040517fa91e67c5ea634cd43a12c5a482724b03de01e85ca68702a53d0c2f45cb7c1dc592613619923092615d25565b60405180910390a16000979650505050505050565b60008061363a81611df9565b60006136446118c4565b905080156136685761165581601181111561366157613661615af4565b600a612c1d565b6116663385614975565b60008061367e81611df9565b60006136886118c4565b905080156136a557611655816011811115612d6157612d61615af4565b61166633856000613f93565b60008060006136bf81611df9565b60006136c96118c4565b905080156136f9576136ed8160118111156136e6576136e6615af4565b6011612c1d565b60009350935050613793565b846001600160a01b031663a6afed956040518163ffffffff1660e01b81526004016020604051808303816000875af1158015613739573d6000803e3d6000fd5b505050506040513d601f19601f8201168201806040525081019061375d9190615aa6565b90508015613781576136ed81601181111561377a5761377a615af4565b6012612c1d565b61378d33888888614d07565b93509350505b61379c81611ebd565b50935093915050565b600654604051631200453160e11b8152600091829182916001600160a01b0316906324008a62906137e09030908a908a908a90600401615cde565b6020604051808303816000875af11580156137ff573d6000803e3d6000fd5b505050506040513d601f19601f820116820180604052508101906138239190615aa6565b90508015613844576138386003604383613da3565b60009250925050613ba6565b43600c541461385957613838600a6044612c1d565b6138a26040805161010081019091528060008152602001600081526020016000815260200160008152602001600081526020016000815260200160008152602001600081525090565b6001600160a01b03861660009081526015602052604090206001015460608201526138cc86612d74565b60808301819052602083018260038111156138e9576138e9615af4565b60038111156138fa576138fa615af4565b905250600090508160200151600381111561391757613917615af4565b146139465761393960096042836020015160038111156132f1576132f1615af4565b6000935093505050613ba6565b60001985141561395f5760808101516040820152613967565b604081018590525b6139758782604001516151b1565b60e08201819052608082015161398a91612f1c565b60a08301819052602083018260038111156139a7576139a7615af4565b60038111156139b8576139b8615af4565b90525060009050816020015160038111156139d5576139d5615af4565b14613a455760405162461bcd60e51b815260206004820152603a60248201527f52455041595f424f52524f575f4e45575f4143434f554e545f424f52524f575f604482015279109053105390d157d0d05310d55310551253d397d1905253115160321b6064820152608401610c41565b613a55600e548260e00151612f1c565b60c0830181905260208301826003811115613a7257613a72615af4565b6003811115613a8357613a83615af4565b9052506000905081602001516003811115613aa057613aa0615af4565b14613b075760405162461bcd60e51b815260206004820152603160248201527f52455041595f424f52524f575f4e45575f544f54414c5f42414c414e43455f43604482015270105310d55310551253d397d19052531151607a1b6064820152608401610c41565b60a081810180516001600160a01b03898116600081815260156020908152604091829020948555600d5460019095019490945560c0870151600e81905560e088015195518251948f16855294840192909252820193909352606081019190915260808101919091527f1a2a22cb034d26d1854bdc6666a5b91fe25efbbb5dcad3b0355478d6f5c362a1910160405180910390a160e00151600093509150505b935093915050565b600080600080613bbe8787613e2c565b90925090506000826003811115613bd757613bd7615af4565b14613be85750915060009050613ba6565b613bf28186612f1c565b935093505050935093915050565b6000613c0a61548e565b600080613c1f86670de0b6b3a76400006144d2565b90925090506000826003811115613c3857613c38615af4565b14613c5757506040805160208101909152600081529092509050612b05565b600080613c64838861451c565b90925090506000826003811115613c7d57613c7d615af4565b14613ca05781604051806020016040528060008152509550955050505050612b05565b604080516020810190915290815260009890975095505050505050565b6060600080856001600160a01b031685604051613cda9190615cc2565b6000604051808303816000865af19150503d8060008114613d17576040519150601f19603f3d011682016040523d82523d6000602084013e613d1c565b606091505b509150915081613d5057805115613d365780518082602001fd5b8360405162461bcd60e51b8152600401610c4191906156f5565b95945050505050565b6001546040805163dd86fea160e01b815290516000926001600160a01b03169163dd86fea19160048083019260209291908290030181865afa158015611b68573d6000803e3d6000fd5b6000600080516020615e43833981519152846011811115613dc657613dc6615af4565b846063811115613dd857613dd8615af4565b84604051613de893929190615c2e565b60405180910390a16003846011811115613e0457613e04615af4565b14613e2057836011811115613e1b57613e1b615af4565b61129e565b61129e826103e8615c5a565b60008080613e3a8486615c5a565b9050848110613e4e57600092509050612b05565b600260009250925050612b05565b6000613e6661548e565b600080613e778660000151866144d2565b90925090506000826003811115613e9057613e90615af4565b14613eaf57506040805160208101909152600081529092509050612b05565b60408051602081019091529081526000969095509350505050565b8051600090610bf490670de0b6b3a764000090615d90565b600061186e8383604051806040016040528060158152602001747375627472616374696f6e20756e646572666c6f7760581b815250615267565b601754604051632d182be560e21b81526001600160a01b039091169063b460af9490613f5090849086903090600401615bf6565b6020604051808303816000875af1158015613f6f573d6000803e3d6000fd5b505050506040513d601f19601f82011682018060405250810190610e269190615aa6565b6000821580613fa0575081155b6140095760405162461bcd60e51b815260206004820152603460248201527f6f6e65206f662072656465656d546f6b656e73496e206f722072656465656d416044820152736d6f756e74496e206d757374206265207a65726f60601b6064820152608401610c41565b6140116154a1565b614019611f28565b604083018190526020830182600381111561403657614036615af4565b600381111561404757614047615af4565b905250600090508160200151600381111561406457614064615af4565b1461408e576140866009602e836020015160038111156132f1576132f1615af4565b91505061186e565b83156141275760608101849052604080516020810182529082015181526140b59085612ab9565b60808301819052602083018260038111156140d2576140d2615af4565b60038111156140e3576140e3615af4565b905250600090508160200151600381111561410057614100615af4565b14614122576140866009602c836020015160038111156132f1576132f1615af4565b6141b8565b6141438360405180602001604052808460400151815250615296565b606083018190526020830182600381111561416057614160615af4565b600381111561417157614171615af4565b905250600090508160200151600381111561418e5761418e615af4565b146141b0576140866009602d836020015160038111156132f1576132f1615af4565b608081018390525b600654606082015160405163eabe7d9160e01b81526000926001600160a01b03169163eabe7d91916141f19130918b9190600401615db2565b6020604051808303816000875af1158015614210573d6000803e3d6000fd5b505050506040513d601f19601f820116820180604052508101906142349190615aa6565b90508015614252576142496003602b83613da3565b9250505061186e565b43600c541461426757614249600a602f612c1d565b6142776012548360600151612f1c565b60a084018190526020840182600381111561429457614294615af4565b60038111156142a5576142a5615af4565b90525060009050826020015160038111156142c2576142c2615af4565b146142e45761424960096031846020015160038111156132f1576132f1615af4565b6001600160a01b038616600090815260136020526040902054606083015161430c9190612f1c565b60c084018190526020840182600381111561432957614329615af4565b600381111561433a5761433a615af4565b905250600090508260200151600381111561435757614357615af4565b146143795761424960096030846020015160038111156132f1576132f1615af4565b8160800151614386612b0c565b101561439857614249600e6032612c1d565b60a082015160125560c08201516001600160a01b03871660009081526013602052604090205560808201516143ce908790613f1c565b306001600160a01b0316866001600160a01b0316600080516020615e63833981519152846060015160405161440591815260200190565b60405180910390a3608082015160608301516040517fe5b754fb1abb7f01b499791d0b820ae3b6af3424ac1c59768edb53f4ec31a92992614447928a92615d25565b60405180910390a1600654608083015160608401516040516351dff98960e01b81526001600160a01b03909316926351dff9899261448d9230928c929190600401615dd6565b600060405180830381600087803b1580156144a757600080fd5b505af11580156144bb573d6000803e3d6000fd5b50600092506144c8915050565b9695505050505050565b600080836144e557506000905080612b05565b60006144f18486615dff565b9050836144fe8683615d90565b1461451157600260009250925050612b05565b600092509050612b05565b600080826145305750600190506000612b05565b600061453c8486615d90565b915091509250929050565b600654604051634ef4c3e160e01b8152600091829182916001600160a01b031690634ef4c3e19061458090309089908990600401615db2565b6020604051808303816000875af115801561459f573d6000803e3d6000fd5b505050506040513d601f19601f820116820180604052508101906145c39190615aa6565b905080156145e4576145d86003602183613da3565b60009250925050612b05565b43600c54146145f9576145d8600a6024612c1d565b6146016154a1565b614609611f28565b604083018190526020830182600381111561462657614626615af4565b600381111561463757614637615af4565b905250600090508160200151600381111561465457614654615af4565b146146835761467660096023836020015160038111156132f1576132f1615af4565b6000935093505050612b05565b61468d86866151b1565b60c08201819052604080516020810182529083015181526146ae9190615296565b60608301819052602083018260038111156146cb576146cb615af4565b60038111156146dc576146dc615af4565b90525060009050816020015160038111156146f9576146f9615af4565b146147465760405162461bcd60e51b815260206004820181905260248201527f4d494e545f45584348414e47455f43414c43554c4154494f4e5f4641494c45446044820152606401610c41565b6147566012548260600151612ee6565b60808201526001600160a01b03861660009081526013602052604090205460608201516147839190612ee6565b60a0820181905260808201516012556001600160a01b038716600090815260136020526040908190209190915560c0820151606083015191517f4c209b5fc8ad50758f13e2e1088ba56a560dff690a1c6fef26394f4c03821c4f926147ec928a92909190615d25565b60405180910390a1856001600160a01b0316306001600160a01b0316600080516020615e63833981519152836060015160405161482b91815260200190565b60405180910390a360065460c082015160608301516040516341c728b960e01b81526001600160a01b03909316926341c728b9926148719230928c929190600401615dd6565b600060405180830381600087803b15801561488b57600080fd5b505af115801561489f573d6000803e3d6000fd5b50600092506148ac915050565b8160c001519350935050509250929050565b6000806148cb8486615c5a565b905082858210156111865760405162461bcd60e51b8152600401610c4191906156f5565b6148f761548e565b60405180602001604052806149108560000151856152a6565b90529392505050565b60008061492684846148ef565b905061129e81613eca565b60008061493e85856148ef565b9050613d5061494c82613eca565b84612ee6565b6000670de0b6b3a764000061496b8484600001516152a6565b61186e9190615d90565b60065460405163368f515360e21b815260009182916001600160a01b039091169063da3d454c906149ae90309088908890600401615db2565b6020604051808303816000875af11580156149cd573d6000803e3d6000fd5b505050506040513d601f19601f820116820180604052508101906149f19190615aa6565b90508015614a0e57614a066003601083613da3565b915050610bf4565b43600c5414614a2357614a06600a600c612c1d565b6000614a2d612b0c565b905083811015614a4c57614a43600e600b612c1d565b92505050610bf4565b614a78604080516080810190915280600081526020016000815260200160008152602001600081525090565b614a8186612d74565b6020830181905282826003811115614a9b57614a9b615af4565b6003811115614aac57614aac615af4565b9052506000905081516003811115614ac657614ac6615af4565b14614af157614ae7600980836000015160038111156132f1576132f1615af4565b9350505050610bf4565b614aff816020015186613e2c565b6040830181905282826003811115614b1957614b19615af4565b6003811115614b2a57614b2a615af4565b9052506000905081516003811115614b4457614b44615af4565b14614b6657614ae76009600e836000015160038111156132f1576132f1615af4565b6006546040808301519051631de6c8a560e21b81526001600160a01b039092169163779b229491614b9c91309190600401615c15565b6020604051808303816000875af1158015614bbb573d6000803e3d6000fd5b505050506040513d601f19601f82011682018060405250810190614bdf9190615aa6565b92508215614bf457614ae76003601085613da3565b614c00600e5486613e2c565b6060830181905282826003811115614c1a57614c1a615af4565b6003811115614c2b57614c2b615af4565b9052506000905081516003811115614c4557614c45615af4565b14614c6757614ae76009600d836000015160038111156132f1576132f1615af4565b6040808201516001600160a01b0388166000908152601560205291909120908155600d546001909101556060810151600e55614ca38686613f1c565b60408082015160608084015183516001600160a01b038b168152602081018a9052938401929092528201527f13ed6866d4e1ee6da46f845c46d7e54120883d75c5ea9a2dacc1c4ca8984ab809060800160405180910390a160009695505050505050565b600654604051632fe3f38f60e11b8152600091829182916001600160a01b031690635fc7e71e90614d4490309088908c908c908c90600401615d5d565b6020604051808303816000875af1158015614d63573d6000803e3d6000fd5b505050506040513d601f19601f82011682018060405250810190614d879190615aa6565b90508015614da857614d9c6003601483613da3565b600092509250506151a8565b43600c5414614dbd57614d9c600a6018612c1d565b43846001600160a01b0316636c540baf6040518163ffffffff1660e01b8152600401602060405180830381865afa158015614dfc573d6000803e3d6000fd5b505050506040513d601f19601f82011682018060405250810190614e209190615aa6565b14614e3157614d9c600a6013612c1d565b866001600160a01b0316866001600160a01b03161415614e5757614d9c60066019612c1d565b84614e6857614d9c60076017612c1d565b600019851415614e7e57614d9c60076016612c1d565b600080614e8c8989896137a5565b90925090508115614ec157614eb3826011811115614eac57614eac615af4565b601a612c1d565b6000945094505050506151a8565b60065460405163c488847b60e01b815260009182916001600160a01b039091169063c488847b90614efa9030908c908890600401615db2565b6040805180830381865afa158015614f16573d6000803e3d6000fd5b505050506040513d601f19601f82011682018060405250810190614f3a9190615e1e565b90925090508115614fa95760405162461bcd60e51b815260206004820152603360248201527f4c49515549444154455f434f4d5054524f4c4c45525f43414c43554c4154455f604482015272105353d5539517d4d152569157d19052531151606a1b6064820152608401610c41565b6040516370a0823160e01b815281906001600160a01b038a16906370a0823190614fd7908e9060040161574d565b602060405180830381865afa158015614ff4573d6000803e3d6000fd5b505050506040513d601f19601f820116820180604052508101906150189190615aa6565b10156150615760405162461bcd60e51b815260206004820152601860248201527709892a2aa928882a88abea68a92b48abea89e9ebe9aaa86960431b6044820152606401610c41565b60006001600160a01b03891630141561508757615080308d8d85613147565b90506150fd565b60405163b2a02ff160e01b81526001600160a01b038a169063b2a02ff1906150b7908f908f908790600401615db2565b6020604051808303816000875af11580156150d6573d6000803e3d6000fd5b505050506040513d601f19601f820116820180604052508101906150fa9190615aa6565b90505b80156151425760405162461bcd60e51b81526020600482015260146024820152731d1bdad95b881cd95a5e9d5c994819985a5b195960621b6044820152606401610c41565b604080516001600160a01b038e811682528d811660208301528183018790528b1660608201526080810184905290517f298637f684da70674f26509b10f07ec2fbc77a335ab1e7d6215a4b2484d8bb529181900360a00190a16000975092955050505050505b94509492505050565b6016546040516323b872dd60e01b81526000916001600160a01b0316906323b872dd906151e690869030908790600401615db2565b6020604051808303816000875af1158015615205573d6000803e3d6000fd5b505050506040513d601f19601f820116820180604052508101906152299190615b3a565b61525e5760405162461bcd60e51b8152600401610c41906020808252600490820152631cd95b9960e21b604082015260600190565b610c5f82612ba4565b6000818484111561528b5760405162461bcd60e51b8152600401610c4191906156f5565b5061129e8385615d46565b600080600080612ac986866152e2565b600061186e8383604051806040016040528060178152602001766d756c7469706c69636174696f6e206f766572666c6f7760481b815250615347565b60006152ec61548e565b600080615301670de0b6b3a7640000876144d2565b9092509050600082600381111561531a5761531a615af4565b1461533957506040805160208101909152600081529092509050612b05565b612afe818660000151613c00565b6000831580615354575082155b156153615750600061186e565b600061536d8486615dff565b90508361537a8683615d90565b1483906111865760405162461bcd60e51b8152600401610c4191906156f5565b8280546153a690615abf565b90600052602060002090601f0160209004810192826153c8576000855561540e565b82601f106153e157805160ff191683800117855561540e565b8280016001018555821561540e579182015b8281111561540e5782518255916020019190600101906153f3565b506116b39291506154df565b82805461542690615abf565b90600052602060002090601f016020900481019282615448576000855561540e565b82601f106154615782800160ff1982351617855561540e565b8280016001018555821561540e579182015b8281111561540e578235825591602001919060010190615473565b6040518060200160405280600081525090565b6040805160e0810190915280600081526020016000815260200160008152602001600081526020016000815260200160008152602001600081525090565b5b808211156116b357600081556001016154e0565b6001600160a01b0381168114611f2557600080fd5b8035615514816154f4565b919050565b634e487b7160e01b600052604160045260246000fd5b604051601f8201601f191681016001600160401b038111828210171561555757615557615519565b604052919050565b60006001600160401b0382111561557857615578615519565b50601f01601f191660200190565b600082601f83011261559757600080fd5b81356155aa6155a58261555f565b61552f565b8181528460208386010111156155bf57600080fd5b816020850160208301376000918101602001919091529392505050565b600080600080600080600080610100898b0312156155f957600080fd5b8835615604816154f4565b97506020890135615614816154f4565b96506040890135615624816154f4565b95506060890135615634816154f4565b945060808901356001600160401b038082111561565057600080fd5b61565c8c838d01615586565b955060a08b013591508082111561567257600080fd5b5061567f8b828c01615586565b93505060c0890135915060e089013590509295985092959890939650565b60005b838110156156b85781810151838201526020016156a0565b838111156113335750506000910152565b600081518084526156e181602086016020860161569d565b601f01601f19169290920160200192915050565b60208152600061186e60208301846156c9565b6000806040838503121561571b57600080fd5b8235615726816154f4565b946020939093013593505050565b60006020828403121561574657600080fd5b5035919050565b6001600160a01b0391909116815260200190565b60006020828403121561577357600080fd5b813561186e816154f4565b60ff81168114611f2557600080fd5b80356155148161577e565b60008060008060008060008060006101208a8c0312156157b757600080fd5b89356157c2816154f4565b985060208a01356157d2816154f4565b97506157e060408b01615509565b965060608a0135955060808a01356001600160401b038082111561580357600080fd5b61580f8d838e01615586565b965060a08c013591508082111561582557600080fd5b506158328c828d01615586565b94505061584160c08b0161578d565b925060e08a013591506101008a013590509295985092959850929598565b60008060006060848603121561587457600080fd5b833561587f816154f4565b9250602084013561588f816154f4565b929592945050506040919091013590565b60008083601f8401126158b257600080fd5b5081356001600160401b038111156158c957600080fd5b602083019150836020828501011115612b0557600080fd5b600080600080604085870312156158f757600080fd5b84356001600160401b038082111561590e57600080fd5b61591a888389016158a0565b9096509450602087013591508082111561593357600080fd5b50615940878288016158a0565b95989497509550505050565b8015158114611f2557600080fd5b6000806000806060858703121561597057600080fd5b843561597b816154f4565b9350602085013561598b8161594c565b925060408501356001600160401b038111156159a657600080fd5b615940878288016158a0565b600080602083850312156159c557600080fd5b82356001600160401b038111156159db57600080fd5b6159e7858286016158a0565b90969095509350505050565b93845260208401929092526040830152606082015260800190565b60008060408385031215615a2157600080fd5b8235615a2c816154f4565b91506020830135615a3c816154f4565b809150509250929050565b600080600060608486031215615a5c57600080fd5b8335615a67816154f4565b9250602084013591506040840135615a7e816154f4565b809150509250925092565b600060208284031215615a9b57600080fd5b815161186e8161577e565b600060208284031215615ab857600080fd5b5051919050565b600181811c90821680615ad357607f821691505b60208210811415610c5f57634e487b7160e01b600052602260045260246000fd5b634e487b7160e01b600052602160045260246000fd5b6020808252601690820152751858d8dc9d59481a5b9d195c995cdd0819985a5b195960521b604082015260600190565b600060208284031215615b4c57600080fd5b815161186e8161594c565b600080600060608486031215615b6c57600080fd5b8351615b77816154f4565b6020850151909350615b888161594c565b60408501519092506001600160401b03811115615ba457600080fd5b8401601f81018613615bb557600080fd5b8051615bc36155a58261555f565b818152876020838501011115615bd857600080fd5b615be982602083016020860161569d565b8093505050509250925092565b9283526001600160a01b03918216602084015216604082015260600190565b6001600160a01b03929092168252602082015260400190565b9283526020830191909152604082015260600190565b634e487b7160e01b600052601160045260246000fd5b60008219821115615c6d57615c6d615c44565b500190565b6001600160a01b0392831681529116602082015260400190565b6020808252601c908201527b6d61726b6572206d6574686f642072657475726e65642066616c736560201b604082015260600190565b60008251615cd481846020870161569d565b9190910192915050565b6001600160a01b039485168152928416602084015292166040820152606081019190915260800190565b600060208284031215615d1a57600080fd5b815161186e816154f4565b6001600160a01b039390931683526020830191909152604082015260600190565b600082821015615d5857615d58615c44565b500390565b6001600160a01b039586168152938516602085015291841660408401529092166060820152608081019190915260a00190565b600082615dad57634e487b7160e01b600052601260045260246000fd5b500490565b6001600160a01b039384168152919092166020820152604081019190915260600190565b6001600160a01b0394851681529290931660208301526040820152606081019190915260800190565b6000816000190483118215151615615e1957615e19615c44565b500290565b60008060408385031215615e3157600080fd5b50508051602090910151909290915056fe45b96fe442630264581b197e84bbada861235052c5a1aadfff9ea4e40a969aa0ddf252ad1be2c89b69c2b068fc378daa952ba7f163c4a11628f55a4df523b3efa164736f6c634300080a000a",
    "linkReferences": {}
  },
  "methodIdentifiers": {
    "PRECISION()": "aaf5eb68",
    "_becomeImplementation(bytes)": "56e67728",
    "_delegateCompLikeTo(address)": "7f1e06be",
    "_prepare()": "1db78944",
    "_reduceReserves(uint256)": "601a0bf1",
    "_setAdminFee(uint256)": "91dd36c6",
    "_setImplementationSafe(address,bool,bytes)": "50d85b73",
    "_setInterestRateModel(address)": "f2b3abbd",
    "_setNameAndSymbol(string,string)": "34154d4c",
    "_setReserveFactor(uint256)": "fca7820b",
    "_withdrawAdminFees(uint256)": "a7b820df",
    "_withdrawFuseFees(uint256)": "a03dce8d",
    "accrualBlockNumber()": "6c540baf",
    "accrueInterest()": "a6afed95",
    "adminFeeMantissa()": "8d02d9a1",
    "allowance(address,address)": "dd62ed3e",
    "approve(address,uint256)": "095ea7b3",
    "balanceOf(address)": "70a08231",
    "balanceOfUnderlying(address)": "3af9e669",
    "borrow(uint256)": "c5ebeaec",
    "borrowBalanceCurrent(address)": "17bfdfbc",
    "borrowBalanceStored(address)": "95dd9193",
    "borrowIndex()": "aa5af0fd",
    "borrowRatePerBlock()": "f8f9da28",
    "comptroller()": "5fe3b567",
    "decimals()": "313ce567",
    "exchangeRateCurrent()": "bd6d894d",
    "exchangeRateStored()": "182df0f5",
    "feeSeizeShareMantissa()": "be99f119",
    "fuseAdmin()": "15761d51",
    "fuseFeeMantissa()": "dbfe7c19",
    "getAccountSnapshot(address)": "c37f68e2",
    "getCash()": "3b1d21a2",
    "implementation()": "5c60da1b",
    "initialize(address,address,address,address,string,string,uint256,uint256)": "06db3ecd",
    "initialize(address,address,address,uint256,string,string,uint8,uint256,uint256)": "219ef65c",
    "interestRateModel()": "f3fdb15a",
    "isCEther()": "ac784ddc",
    "isCToken()": "fe9c44ae",
    "liquidateBorrow(address,uint256,address)": "f5e3c462",
    "mint(uint256)": "a0712d68",
    "name()": "06fdde03",
    "plugin()": "ef01df4f",
    "protocolSeizeShareMantissa()": "6752e702",
    "redeem(uint256)": "db006a75",
    "redeemUnderlying(uint256)": "852a12e3",
    "repayBorrow(uint256)": "0e752702",
    "repayBorrowBehalf(address,uint256)": "2608f818",
    "reserveFactorMantissa()": "173b9904",
    "seize(address,address,uint256)": "b2a02ff1",
    "supplyRatePerBlock()": "ae9d70b0",
    "symbol()": "95d89b41",
    "totalAdminFees()": "61feacff",
    "totalBorrows()": "47bd3718",
    "totalBorrowsCurrent()": "73acee98",
    "totalFuseFees()": "dc028ab1",
    "totalReserves()": "8f840ddd",
    "totalSupply()": "18160ddd",
    "transfer(address,uint256)": "a9059cbb",
    "transferFrom(address,address,uint256)": "23b872dd",
    "underlying()": "6f307dc3"
  }
}