{
  "address": "0xE34Bb04a2534D439eeB13c79966ab6e8A3DE9b48",
  "abi": [
    {
      "anonymous": false,
      "inputs": [
        {
          "indexed": false,
          "internalType": "uint8",
          "name": "version",
          "type": "uint8"
        }
      ],
      "name": "Initialized",
      "type": "event"
    },
    {
      "anonymous": false,
      "inputs": [
        {
          "indexed": false,
          "internalType": "address",
          "name": "oldOwner",
          "type": "address"
        },
        {
          "indexed": false,
          "internalType": "address",
          "name": "newOwner",
          "type": "address"
        }
      ],
      "name": "NewOwner",
      "type": "event"
    },
    {
      "anonymous": false,
      "inputs": [
        {
          "indexed": false,
          "internalType": "address",
          "name": "oldPendingOwner",
          "type": "address"
        },
        {
          "indexed": false,
          "internalType": "address",
          "name": "newPendingOwner",
          "type": "address"
        }
      ],
      "name": "NewPendingOwner",
      "type": "event"
    },
    {
      "anonymous": false,
      "inputs": [
        {
          "indexed": true,
          "internalType": "address",
          "name": "previousOwner",
          "type": "address"
        },
        {
          "indexed": true,
          "internalType": "address",
          "name": "newOwner",
          "type": "address"
        }
      ],
      "name": "OwnershipTransferred",
      "type": "event"
    },
    {
      "inputs": [],
      "name": "_acceptOwner",
      "outputs": [],
      "stateMutability": "nonpayable",
      "type": "function"
    },
    {
      "inputs": [
        {
          "internalType": "address[]",
          "name": "targets",
          "type": "address[]"
        },
        {
          "internalType": "bytes[]",
          "name": "data",
          "type": "bytes[]"
        }
      ],
      "name": "_callPool",
      "outputs": [],
      "stateMutability": "nonpayable",
      "type": "function"
    },
    {
      "inputs": [
        {
          "internalType": "address[]",
          "name": "targets",
          "type": "address[]"
        },
        {
          "internalType": "bytes",
          "name": "data",
          "type": "bytes"
        }
      ],
      "name": "_callPool",
      "outputs": [],
      "stateMutability": "nonpayable",
      "type": "function"
    },
    {
      "inputs": [
        {
          "internalType": "address[]",
          "name": "oldImplementations",
          "type": "address[]"
        },
        {
          "internalType": "address[]",
          "name": "newImplementations",
          "type": "address[]"
        },
        {
          "internalType": "bool[]",
          "name": "allowResign",
          "type": "bool[]"
        },
        {
          "internalType": "bool[]",
          "name": "statuses",
          "type": "bool[]"
        }
      ],
      "name": "_editCErc20DelegateWhitelist",
      "outputs": [],
      "stateMutability": "nonpayable",
      "type": "function"
    },
    {
      "inputs": [
        {
          "internalType": "address[]",
          "name": "oldImplementations",
          "type": "address[]"
        },
        {
          "internalType": "address[]",
          "name": "newImplementations",
          "type": "address[]"
        },
        {
          "internalType": "bool[]",
          "name": "allowResign",
          "type": "bool[]"
        },
        {
          "internalType": "bool[]",
          "name": "statuses",
          "type": "bool[]"
        }
      ],
      "name": "_editCEtherDelegateWhitelist",
      "outputs": [],
      "stateMutability": "nonpayable",
      "type": "function"
    },
    {
      "inputs": [
        {
          "internalType": "address[]",
          "name": "oldImplementations",
          "type": "address[]"
        },
        {
          "internalType": "address[]",
          "name": "newImplementations",
          "type": "address[]"
        },
        {
          "internalType": "bool[]",
          "name": "statuses",
          "type": "bool[]"
        }
      ],
      "name": "_editComptrollerImplementationWhitelist",
      "outputs": [],
      "stateMutability": "nonpayable",
      "type": "function"
    },
    {
      "inputs": [
        {
          "internalType": "address[]",
          "name": "oldImplementations",
          "type": "address[]"
        },
        {
          "internalType": "address[]",
          "name": "newImplementations",
          "type": "address[]"
        },
        {
          "internalType": "bool[]",
          "name": "statuses",
          "type": "bool[]"
        }
      ],
      "name": "_editPluginImplementationWhitelist",
      "outputs": [],
      "stateMutability": "nonpayable",
      "type": "function"
    },
    {
      "inputs": [
        {
          "internalType": "address",
          "name": "",
          "type": "address"
        }
      ],
      "name": "_latestCErc20Delegate",
      "outputs": [
        {
          "internalType": "address",
          "name": "implementation",
          "type": "address"
        },
        {
          "internalType": "bool",
          "name": "allowResign",
          "type": "bool"
        },
        {
          "internalType": "bytes",
          "name": "becomeImplementationData",
          "type": "bytes"
        }
      ],
      "stateMutability": "view",
      "type": "function"
    },
    {
      "inputs": [
        {
          "internalType": "address",
          "name": "",
          "type": "address"
        }
      ],
      "name": "_latestCEtherDelegate",
      "outputs": [
        {
          "internalType": "address",
          "name": "implementation",
          "type": "address"
        },
        {
          "internalType": "bool",
          "name": "allowResign",
          "type": "bool"
        },
        {
          "internalType": "bytes",
          "name": "becomeImplementationData",
          "type": "bytes"
        }
      ],
      "stateMutability": "view",
      "type": "function"
    },
    {
      "inputs": [
        {
          "internalType": "address",
          "name": "",
          "type": "address"
        }
      ],
      "name": "_latestPluginImplementation",
      "outputs": [
        {
          "internalType": "address",
          "name": "",
          "type": "address"
        }
      ],
      "stateMutability": "view",
      "type": "function"
    },
    {
      "inputs": [],
      "name": "_resetGap",
      "outputs": [],
      "stateMutability": "nonpayable",
      "type": "function"
    },
    {
      "inputs": [
        {
          "internalType": "address",
          "name": "comptroller",
          "type": "address"
        },
        {
          "internalType": "int256",
          "name": "rate",
          "type": "int256"
        }
      ],
      "name": "_setCustomInterestFeeRate",
      "outputs": [],
      "stateMutability": "nonpayable",
      "type": "function"
    },
    {
      "inputs": [
        {
          "internalType": "uint256",
          "name": "_defaultInterestFeeRate",
          "type": "uint256"
        }
      ],
      "name": "_setDefaultInterestFeeRate",
      "outputs": [],
      "stateMutability": "nonpayable",
      "type": "function"
    },
    {
      "inputs": [
        {
          "internalType": "address",
          "name": "oldImplementation",
          "type": "address"
        },
        {
          "internalType": "address",
          "name": "newImplementation",
          "type": "address"
        },
        {
          "internalType": "bool",
          "name": "allowResign",
          "type": "bool"
        },
        {
          "internalType": "bytes",
          "name": "becomeImplementationData",
          "type": "bytes"
        }
      ],
      "name": "_setLatestCErc20Delegate",
      "outputs": [],
      "stateMutability": "nonpayable",
      "type": "function"
    },
    {
      "inputs": [
        {
          "internalType": "address",
          "name": "oldImplementation",
          "type": "address"
        },
        {
          "internalType": "address",
          "name": "newImplementation",
          "type": "address"
        },
        {
          "internalType": "bool",
          "name": "allowResign",
          "type": "bool"
        },
        {
          "internalType": "bytes",
          "name": "becomeImplementationData",
          "type": "bytes"
        }
      ],
      "name": "_setLatestCEtherDelegate",
      "outputs": [],
      "stateMutability": "nonpayable",
      "type": "function"
    },
    {
      "inputs": [
        {
          "internalType": "address",
          "name": "oldImplementation",
          "type": "address"
        },
        {
          "internalType": "address",
          "name": "newImplementation",
          "type": "address"
        }
      ],
      "name": "_setLatestComptrollerImplementation",
      "outputs": [],
      "stateMutability": "nonpayable",
      "type": "function"
    },
    {
      "inputs": [
        {
          "internalType": "address",
          "name": "oldImplementation",
          "type": "address"
        },
        {
          "internalType": "address",
          "name": "newImplementation",
          "type": "address"
        }
      ],
      "name": "_setLatestPluginImplementation",
      "outputs": [],
      "stateMutability": "nonpayable",
      "type": "function"
    },
    {
      "inputs": [
        {
          "internalType": "address",
          "name": "newPendingOwner",
          "type": "address"
        }
      ],
      "name": "_setPendingOwner",
      "outputs": [],
      "stateMutability": "nonpayable",
      "type": "function"
    },
    {
      "inputs": [
        {
          "internalType": "uint256",
          "name": "_minBorrowEth",
          "type": "uint256"
        },
        {
          "internalType": "uint256",
          "name": "_maxSupplyEth",
          "type": "uint256"
        },
        {
          "internalType": "uint256",
          "name": "_maxUtilizationRate",
          "type": "uint256"
        }
      ],
      "name": "_setPoolLimits",
      "outputs": [],
      "stateMutability": "nonpayable",
      "type": "function"
    },
    {
      "inputs": [
        {
          "internalType": "address",
          "name": "cDelegator",
          "type": "address"
        }
      ],
      "name": "_upgradePluginToLatestImplementation",
      "outputs": [
        {
          "internalType": "bool",
          "name": "",
          "type": "bool"
        }
      ],
      "stateMutability": "nonpayable",
      "type": "function"
    },
    {
      "inputs": [
        {
          "internalType": "address",
          "name": "erc20Contract",
          "type": "address"
        }
      ],
      "name": "_withdrawAssets",
      "outputs": [],
      "stateMutability": "nonpayable",
      "type": "function"
    },
    {
      "inputs": [
        {
          "internalType": "address",
          "name": "",
          "type": "address"
        },
        {
          "internalType": "address",
          "name": "",
          "type": "address"
        },
        {
          "internalType": "bool",
          "name": "",
          "type": "bool"
        }
      ],
      "name": "cErc20DelegateWhitelist",
      "outputs": [
        {
          "internalType": "bool",
          "name": "",
          "type": "bool"
        }
      ],
      "stateMutability": "view",
      "type": "function"
    },
    {
      "inputs": [
        {
          "internalType": "address",
          "name": "",
          "type": "address"
        },
        {
          "internalType": "address",
          "name": "",
          "type": "address"
        },
        {
          "internalType": "bool",
          "name": "",
          "type": "bool"
        }
      ],
      "name": "cEtherDelegateWhitelist",
      "outputs": [
        {
          "internalType": "bool",
          "name": "",
          "type": "bool"
        }
      ],
      "stateMutability": "view",
      "type": "function"
    },
    {
      "inputs": [
        {
          "internalType": "address",
          "name": "",
          "type": "address"
        },
        {
          "internalType": "address",
          "name": "",
          "type": "address"
        }
      ],
      "name": "comptrollerImplementationWhitelist",
      "outputs": [
        {
          "internalType": "bool",
          "name": "",
          "type": "bool"
        }
      ],
      "stateMutability": "view",
      "type": "function"
    },
    {
      "inputs": [
        {
          "internalType": "address",
          "name": "",
          "type": "address"
        }
      ],
      "name": "customInterestFeeRates",
      "outputs": [
        {
          "internalType": "int256",
          "name": "",
          "type": "int256"
        }
      ],
      "stateMutability": "view",
      "type": "function"
    },
    {
      "inputs": [],
      "name": "defaultInterestFeeRate",
      "outputs": [
        {
          "internalType": "uint256",
          "name": "",
          "type": "uint256"
        }
      ],
      "stateMutability": "view",
      "type": "function"
    },
    {
      "inputs": [
        {
          "internalType": "bytes",
          "name": "constructorData",
          "type": "bytes"
        }
      ],
      "name": "deployCErc20",
      "outputs": [
        {
          "internalType": "address",
          "name": "",
          "type": "address"
        }
      ],
      "stateMutability": "nonpayable",
      "type": "function"
    },
    {
      "inputs": [
        {
          "internalType": "bytes",
          "name": "constructorData",
          "type": "bytes"
        }
      ],
      "name": "deployCEther",
      "outputs": [
        {
          "internalType": "address",
          "name": "",
          "type": "address"
        }
      ],
      "stateMutability": "nonpayable",
      "type": "function"
    },
    {
      "inputs": [
        {
          "internalType": "uint256",
          "name": "_defaultInterestFeeRate",
          "type": "uint256"
        }
      ],
      "name": "initialize",
      "outputs": [],
      "stateMutability": "nonpayable",
      "type": "function"
    },
    {
      "inputs": [],
      "name": "interestFeeRate",
      "outputs": [
        {
          "internalType": "uint256",
          "name": "",
          "type": "uint256"
        }
      ],
      "stateMutability": "view",
      "type": "function"
    },
    {
      "inputs": [
        {
          "internalType": "address",
          "name": "oldImplementation",
          "type": "address"
        }
      ],
      "name": "latestCErc20Delegate",
      "outputs": [
        {
          "internalType": "address",
          "name": "",
          "type": "address"
        },
        {
          "internalType": "bool",
          "name": "",
          "type": "bool"
        },
        {
          "internalType": "bytes",
          "name": "",
          "type": "bytes"
        }
      ],
      "stateMutability": "view",
      "type": "function"
    },
    {
      "inputs": [
        {
          "internalType": "address",
          "name": "oldImplementation",
          "type": "address"
        }
      ],
      "name": "latestCEtherDelegate",
      "outputs": [
        {
          "internalType": "address",
          "name": "",
          "type": "address"
        },
        {
          "internalType": "bool",
          "name": "",
          "type": "bool"
        },
        {
          "internalType": "bytes",
          "name": "",
          "type": "bytes"
        }
      ],
      "stateMutability": "view",
      "type": "function"
    },
    {
      "inputs": [
        {
          "internalType": "address",
          "name": "oldImplementation",
          "type": "address"
        }
      ],
      "name": "latestComptrollerImplementation",
      "outputs": [
        {
          "internalType": "address",
          "name": "",
          "type": "address"
        }
      ],
      "stateMutability": "view",
      "type": "function"
    },
    {
      "inputs": [
        {
          "internalType": "address",
          "name": "oldImplementation",
          "type": "address"
        }
      ],
      "name": "latestPluginImplementation",
      "outputs": [
        {
          "internalType": "address",
          "name": "",
          "type": "address"
        }
      ],
      "stateMutability": "view",
      "type": "function"
    },
    {
      "inputs": [],
      "name": "marketsCounter",
      "outputs": [
        {
          "internalType": "uint256",
          "name": "",
          "type": "uint256"
        }
      ],
      "stateMutability": "view",
      "type": "function"
    },
    {
      "inputs": [],
      "name": "maxSupplyEth",
      "outputs": [
        {
          "internalType": "uint256",
          "name": "",
          "type": "uint256"
        }
      ],
      "stateMutability": "view",
      "type": "function"
    },
    {
      "inputs": [],
      "name": "maxUtilizationRate",
      "outputs": [
        {
          "internalType": "uint256",
          "name": "",
          "type": "uint256"
        }
      ],
      "stateMutability": "view",
      "type": "function"
    },
    {
      "inputs": [],
      "name": "minBorrowEth",
      "outputs": [
        {
          "internalType": "uint256",
          "name": "",
          "type": "uint256"
        }
      ],
      "stateMutability": "view",
      "type": "function"
    },
    {
      "inputs": [],
      "name": "owner",
      "outputs": [
        {
          "internalType": "address",
          "name": "",
          "type": "address"
        }
      ],
      "stateMutability": "view",
      "type": "function"
    },
    {
      "inputs": [],
      "name": "pendingOwner",
      "outputs": [
        {
          "internalType": "address",
          "name": "",
          "type": "address"
        }
      ],
      "stateMutability": "view",
      "type": "function"
    },
    {
      "inputs": [
        {
          "internalType": "address",
          "name": "",
          "type": "address"
        },
        {
          "internalType": "address",
          "name": "",
          "type": "address"
        }
      ],
      "name": "pluginImplementationWhitelist",
      "outputs": [
        {
          "internalType": "bool",
          "name": "",
          "type": "bool"
        }
      ],
      "stateMutability": "view",
      "type": "function"
    },
    {
      "inputs": [],
      "name": "renounceOwnership",
      "outputs": [],
      "stateMutability": "nonpayable",
      "type": "function"
    },
    {
      "inputs": [
        {
          "internalType": "address",
          "name": "newOwner",
          "type": "address"
        }
      ],
      "name": "transferOwnership",
      "outputs": [],
      "stateMutability": "nonpayable",
      "type": "function"
    },
    {
      "stateMutability": "payable",
      "type": "receive"
    }
  ],
  "transactionHash": "0x9b18f65eb58f06561e0a1131c3f3803b8a7f0ec7e6cdd1fab6291e420c9c175f",
  "args": [],
  "numDeployments": 3,
  "bytecode": {
    "object": "0x608060405234801561001057600080fd5b50613d6d806100206000396000f3fe608060405260043610620002935760003560e01c80638da5cb5b116200015f578063c5232b4711620000c5578063e35a48011162000084578063e35a480114620008a8578063eba6239314620008cd578063f2fde38b14620008f2578063fc4d33f91462000917578063fdb25fb1146200092f578063fe4b84df146200094757600080fd5b8063c5232b471462000800578063d64517b21462000831578063dd86fea11462000856578063dfcb48bd146200086e578063e30c3978146200088657600080fd5b8063a430e617116200011e578063a430e61714620006f4578063a71d085d1462000719578063b01b86fd1462000731578063bbcdd6d31462000756578063c11cd440146200077b578063c2bd5c2e14620007c057600080fd5b80638da5cb5b1462000633578063930d243814620006535780639b86a9b514620006785780639c7be708146200069d5780639d244f9f14620006b557600080fd5b80636e96dfd711620002055780637a1133d611620001c45780637a1133d6146200055357806381218ea9146200057857806384651d73146200059d5780638754e4fd14620005c45780638abe0b7514620005e95780638d3bb8ef146200060e57600080fd5b80636e96dfd7146200045c578063715018a6146200048157806371cd40e6146200049957806375365b8714620004ef5780637583efcf146200051457600080fd5b80632acbff3911620002525780632acbff3914620003755780632f876d32146200039a5780633465b6e114620003bf57806345cc970514620003e45780634a212ebb146200040957600080fd5b806301758fc214620002a05780630284db7614620002c757806306bc461114620003065780631259821c146200032b578063183a3f72146200035057600080fd5b366200029b57005b600080fd5b348015620002ad57600080fd5b50620002c5620002bf3660046200292a565b6200096c565b005b348015620002d457600080fd5b50620002ec620002e636600462002a11565b62000b69565b604051620002fd9392919062002a92565b60405180910390f35b3480156200031357600080fd5b50620002c56200032536600462002ac9565b62000c2c565b3480156200033857600080fd5b50620002c56200034a36600462002af8565b62000c7d565b3480156200035d57600080fd5b50620002ec6200036f36600462002a11565b62000cb5565b3480156200038257600080fd5b50620002c56200039436600462002b36565b62000cef565b348015620003a757600080fd5b50620002c5620003b936600462002ba9565b62000e37565b348015620003cc57600080fd5b50620002c5620003de36600462002a11565b62000e4f565b348015620003f157600080fd5b50620002ec6200040336600462002a11565b6200108c565b3480156200041657600080fd5b50620004436200042836600462002a11565b6076602052600090815260409020546001600160a01b031681565b6040516001600160a01b039091168152602001620002fd565b3480156200046957600080fd5b50620002c56200047b36600462002a11565b620011b4565b3480156200048e57600080fd5b50620002c562001220565b348015620004a657600080fd5b50620004de620004b836600462002be5565b606f60209081526000938452604080852082529284528284209052825290205460ff1681565b6040519015158152602001620002fd565b348015620004fc57600080fd5b50620002c56200050e36600462002c7c565b62001266565b3480156200052157600080fd5b50620004de6200053336600462002af8565b607760209081526000928352604080842090915290825290205460ff1681565b3480156200056057600080fd5b50620004de6200057236600462002a11565b62001331565b3480156200058557600080fd5b50620004436200059736600462002a11565b6200149d565b348015620005aa57600080fd5b50620005b5606a5481565b604051908152602001620002fd565b348015620005d157600080fd5b5062000443620005e336600462002d02565b620014e8565b348015620005f657600080fd5b50620002ec6200060836600462002a11565b62001635565b3480156200061b57600080fd5b50620002c56200062d36600462002d48565b62001695565b3480156200064057600080fd5b506033546001600160a01b031662000443565b3480156200066057600080fd5b50620002c56200067236600462002af8565b62001836565b3480156200068557600080fd5b50620004436200069736600462002d02565b6200186e565b348015620006aa57600080fd5b50620005b5606c5481565b348015620006c257600080fd5b50620004de620006d436600462002af8565b606e60209081526000928352604080842090915290825290205460ff1681565b3480156200070157600080fd5b50620002c56200071336600462002c7c565b620019b7565b3480156200072657600080fd5b50620005b560755481565b3480156200073e57600080fd5b50620002c56200075036600462002dec565b62001a78565b3480156200076357600080fd5b50620004436200077536600462002a11565b62001b45565b3480156200078857600080fd5b50620004de6200079a36600462002be5565b607060209081526000938452604080852082529284528284209052825290205460ff1681565b348015620007cd57600080fd5b50620002c5606680546001600160a01b031990811690915560678054821690556068805482169055606980549091169055565b3480156200080d57600080fd5b50620005b56200081f36600462002a11565b60746020526000908152604090205481565b3480156200083e57600080fd5b50620002c5620008503660046200292a565b62001b8d565b3480156200086357600080fd5b50620005b562001d7b565b3480156200087b57600080fd5b50620005b5606d5481565b3480156200089357600080fd5b5060655462000443906001600160a01b031681565b348015620008b557600080fd5b50620002c5620008c736600462002e53565b62001e7c565b348015620008da57600080fd5b50620002c5620008ec36600462002d48565b62001eb6565b348015620008ff57600080fd5b50620002c56200091136600462002a11565b62001220565b3480156200092457600080fd5b50620002c562002042565b3480156200093c57600080fd5b50620005b5606b5481565b3480156200095457600080fd5b50620002c56200096636600462002e53565b6200215c565b62000976620022af565b84158015906200098557508487145b80156200099157508483145b80156200099d57508481145b62000a245760405162461bcd60e51b815260206004820152604660248201527f4e6f2043457263323044656c656761746520696d706c656d656e746174696f6e60448201527f7320737570706c696564206f72206172726179206c656e67746873206e6f742060648201526532b8bab0b61760d11b608482015260a4015b60405180910390fd5b60005b8581101562000b5e5782828281811062000a455762000a4562002e6d565b905060200201602081019062000a5c919062002e83565b606f60008b8b8581811062000a755762000a7562002e6d565b905060200201602081019062000a8c919062002a11565b6001600160a01b03166001600160a01b03168152602001908152602001600020600089898581811062000ac35762000ac362002e6d565b905060200201602081019062000ada919062002a11565b6001600160a01b03166001600160a01b03168152602001908152602001600020600087878581811062000b115762000b1162002e6d565b905060200201602081019062000b28919062002e83565b151581526020810191909152604001600020805460ff19169115159190911790558062000b558162002ea3565b91505062000a27565b505050505050505050565b607360205260009081526040902080546001820180546001600160a01b03831693600160a01b90930460ff1692919062000ba39062002ecd565b80601f016020809104026020016040519081016040528092919081815260200182805462000bd19062002ecd565b801562000c225780601f1062000bf65761010080835404028352916020019162000c22565b820191906000526020600020905b81548152906001019060200180831162000c0457829003601f168201915b5050505050905083565b62000c36620022af565b670de0b6b3a764000081131562000c615760405162461bcd60e51b815260040162000a1b9062002f0a565b6001600160a01b03909116600090815260746020526040902055565b62000c87620022af565b6001600160a01b03918216600090815260766020526040902080546001600160a01b03191691909216179055565b607260205260009081526040902080546001820180546001600160a01b03831693600160a01b90930460ff1692919062000ba39062002ecd565b62000cf9620022af565b821580159062000d0857508281145b62000d6e5760405162461bcd60e51b815260206004820152602f60248201527f4172726179206c656e67746873206d75737420626520657175616c20616e642060448201526e33b932b0ba32b9103a3430b710181760891b606482015260840162000a1b565b60005b8381101562000e305762000e1a83838381811062000d935762000d9362002e6d565b905060200281019062000da7919062002f55565b8080601f01602080910402602001604051908101604052809392919081815260200183838082843760009201919091525089925088915085905081811062000df35762000df362002e6d565b905060200201602081019062000e0a919062002a11565b6001600160a01b0316906200230d565b508062000e278162002ea3565b91505062000d71565b5050505050565b62000e41620022af565b606b92909255606c55606d55565b6001600160a01b03811662000f8c57478062000eb85760405162461bcd60e51b815260206004820152602160248201527f4e6f2062616c616e636520617661696c61626c6520746f2077697468647261776044820152601760f91b606482015260840162000a1b565b600062000ecd6033546001600160a01b031690565b6001600160a01b03168260405160006040518083038185875af1925050503d806000811462000f19576040519150601f19603f3d011682016040523d82523d6000602084013e62000f1e565b606091505b505090508062000f875760405162461bcd60e51b815260206004820152602d60248201527f4661696c656420746f207472616e73666572204554482062616c616e6365207460448201526c379036b9b39739b2b73232b91760991b606482015260840162000a1b565b505050565b6040516370a0823160e01b815230600482015281906000906001600160a01b038316906370a0823190602401602060405180830381865afa15801562000fd6573d6000803e3d6000fd5b505050506040513d601f19601f8201168201806040525081019062000ffc919062002f9f565b905060008111620010605760405162461bcd60e51b815260206004820152602760248201527f4e6f20746f6b656e2062616c616e636520617661696c61626c6520746f2077696044820152663a34323930bb9760c91b606482015260840162000a1b565b62000f87620010776033546001600160a01b031690565b6001600160a01b03841690836200235a565b50565b6001600160a01b03818116600090815260726020908152604080832081516060808201845282549687168252600160a01b90960460ff16151593810193909352600181018054949586959094869490939290840191620010ec9062002ecd565b80601f01602080910402602001604051908101604052809291908181526020018280546200111a9062002ecd565b80156200116b5780601f106200113f576101008083540402835291602001916200116b565b820191906000526020600020905b8154815290600101906020018083116200114d57829003601f168201915b50505091909252505081519192506060916001600160a01b031615159050620011985785600082620011a5565b8151602083015160408401515b94509450945050509193909250565b620011be620022af565b606580546001600160a01b038381166001600160a01b031983168117909355604080519190921680825260208201939093527fb3d55174552271a4f1aaf36b72f50381e892171636b3fb5447fe00e995e7a37b91015b60405180910390a15050565b6200122a620022af565b60405162461bcd60e51b815260206004820152601060248201526f6e6f74207573656420616e796d6f726560801b604482015260640162000a1b565b62001270620022af565b6040518060600160405280856001600160a01b03168152602001841515815260200183838080601f01602080910402602001604051908101604052809392919081815260200183838082843760009201829052509390945250506001600160a01b0380891682526072602090815260409283902085518154878401511515600160a01b026001600160a81b031990911691909416179290921782559184015180519193506200132792600185019291019062002819565b5050505050505050565b60006200133d620022af565b60008290506000816001600160a01b031663ef01df4f6040518163ffffffff1660e01b8152600401602060405180830381865afa15801562001383573d6000803e3d6000fd5b505050506040513d601f19601f82011682018060405250810190620013a9919062002fb9565b6001600160a01b038181166000908152607660205260409081902054905163033e92d960e31b815290821660048201529192508316906319f496c890602401600060405180830381600087803b1580156200140357600080fd5b505af115801562001418573d6000803e3d6000fd5b505050506000826001600160a01b031663ef01df4f6040518163ffffffff1660e01b8152600401602060405180830381865afa1580156200145d573d6000803e3d6000fd5b505050506040513d601f19601f8201168201806040525081019062001483919062002fb9565b6001600160a01b0390811692169190911415949350505050565b6001600160a01b03818116600090815260766020526040812054909116620014c65781620014e2565b6001600160a01b03808316600090815260766020526040902054165b92915050565b60008080620014fb604082868862002fd9565b8101906200150a919062002af8565b90925090506001600160a01b0381163314620015695760405162461bcd60e51b815260206004820152601a60248201527f436f6d7074726f6c6c6572206973206e6f742073656e6465722e000000000000604482015260640162000a1b565b600033836075600081546200157e9062002ea3565b91829055506040516bffffffffffffffffffffffff19606094851b811660208301529290931b90911660348301526048820152606801604051602081830303815290604052805190602001209050600060405180602001620015e090620028a8565b601f1982820381018352601f9091011660408190526200160891908990899060200162003005565b604051602081830303815290604052905060006200162960008484620023ae565b98975050505050505050565b6001600160a01b03818116600090815260736020908152604080832081516060808201845282549687168252600160a01b90960460ff16151593810193909352600181018054949586959094869490939290840191620010ec9062002ecd565b6200169f620022af565b8215801590620016ae57508285145b8015620016ba57508281145b6200173a5760405162461bcd60e51b815260206004820152604360248201527f4e6f20436f6d7074726f6c6c657220696d706c656d656e746174696f6e73207360448201527f7570706c696564206f72206172726179206c656e67746873206e6f742065717560648201526230b61760e91b608482015260a40162000a1b565b60005b838110156200182d578282828181106200175b576200175b62002e6d565b905060200201602081019062001772919062002e83565b606e60008989858181106200178b576200178b62002e6d565b9050602002016020810190620017a2919062002a11565b6001600160a01b03166001600160a01b031681526020019081526020016000206000878785818110620017d957620017d962002e6d565b9050602002016020810190620017f0919062002a11565b6001600160a01b031681526020810191909152604001600020805460ff191691151591909117905580620018248162002ea3565b9150506200173d565b50505050505050565b62001840620022af565b6001600160a01b03918216600090815260716020526040902080546001600160a01b03191691909216179055565b60008062001880602082858762002fd9565b8101906200188f919062002a11565b90506001600160a01b0381163314620018eb5760405162461bcd60e51b815260206004820152601a60248201527f436f6d7074726f6c6c6572206973206e6f742073656e6465722e000000000000604482015260640162000a1b565b6000336000607560008154620019019062002ea3565b91829055506040516bffffffffffffffffffffffff19606094851b811660208301529290931b909116603483015260488201526068016040516020818303038152906040528051906020012090506000604051806020016200196390620028b6565b601f1982820381018352601f9091011660408190526200198b91908890889060200162003005565b60405160208183030381529060405290506000620019ac60008484620023ae565b979650505050505050565b620019c1620022af565b6040518060600160405280856001600160a01b03168152602001841515815260200183838080601f01602080910402602001604051908101604052809392919081815260200183838082843760009201829052509390945250506001600160a01b0380891682526073602090815260409283902085518154878401511515600160a01b026001600160a81b031990911691909416179290921782559184015180519193506200132792600185019291019062002819565b62001a82620022af565b8262001ad15760405162461bcd60e51b815260206004820152601e60248201527f4e6f2074617267657420616464726573736573207370656369666965642e0000604482015260640162000a1b565b60005b8381101562000e305762001b2f83838080601f01602080910402602001604051908101604052809392919081815260200183838082843760009201919091525089925088915085905081811062000df35762000df362002e6d565b508062001b3c8162002ea3565b91505062001ad4565b6001600160a01b0381811660009081526071602052604081205490911662001b6e5781620014e2565b506001600160a01b039081166000908152607160205260409020541690565b62001b97620022af565b841580159062001ba657508487145b801562001bb257508483145b801562001bbe57508481145b62001c415760405162461bcd60e51b815260206004820152604660248201527f4e6f2043457468657244656c656761746520696d706c656d656e746174696f6e60448201527f7320737570706c696564206f72206172726179206c656e67746873206e6f742060648201526532b8bab0b61760d11b608482015260a40162000a1b565b60005b8581101562000b5e5782828281811062001c625762001c6262002e6d565b905060200201602081019062001c79919062002e83565b607060008b8b8581811062001c925762001c9262002e6d565b905060200201602081019062001ca9919062002a11565b6001600160a01b03166001600160a01b03168152602001908152602001600020600089898581811062001ce05762001ce062002e6d565b905060200201602081019062001cf7919062002a11565b6001600160a01b03166001600160a01b03168152602001908152602001600020600087878581811062001d2e5762001d2e62002e6d565b905060200201602081019062001d45919062002e83565b151581526020810191909152604001600020805460ff19169115159190911790558062001d728162002ea3565b91505062001c44565b60408051600481526024810182526020810180516001600160e01b0316635fe3b56760e01b179052905160009182918291339162001dba91906200302f565b600060405180830381855afa9150503d806000811462001df7576040519150601f19603f3d011682016040523d82523d6000602084013e62001dfc565b606091505b509150915081801562001e10575080516020145b1562001e725760008180602001905181019062001e2e919062002fb9565b6001600160a01b03811660009081526074602052604081205491925081131562001e5a57949350505050565b600081121562001e6f57600094505050505090565b50505b606a549250505090565b62001e86620022af565b670de0b6b3a764000081111562001eb15760405162461bcd60e51b815260040162000a1b9062002f0a565b606a55565b62001ec0620022af565b821580159062001ecf57508285145b801562001edb57508281145b62001f4f5760405162461bcd60e51b815260206004820152603e60248201527f4e6f20706c7567696e20696d706c656d656e746174696f6e7320737570706c6960448201527f6564206f72206172726179206c656e67746873206e6f7420657175616c2e0000606482015260840162000a1b565b60005b838110156200182d5782828281811062001f705762001f7062002e6d565b905060200201602081019062001f87919062002e83565b6077600089898581811062001fa05762001fa062002e6d565b905060200201602081019062001fb7919062002a11565b6001600160a01b03166001600160a01b03168152602001908152602001600020600087878581811062001fee5762001fee62002e6d565b905060200201602081019062002005919062002a11565b6001600160a01b031681526020810191909152604001600020805460ff191691151591909117905580620020398162002ea3565b91505062001f52565b6065546001600160a01b03163314620020965760405162461bcd60e51b81526020600482015260156024820152743737ba103a3432903832b73234b7339037bbb732b960591b604482015260640162000a1b565b6000620020ab6033546001600160a01b031690565b6065549091506001600160a01b0316620020c581620024be565b606580546001600160a01b0319169055604080516001600160a01b0384168152600060208201527f70aea8d848e8a90fb7661b227dc522eb6395c3dac71b63cb59edd5c9899b2364910160405180910390a1606554604080516001600160a01b03808516825290921660208301527fb3d55174552271a4f1aaf36b72f50381e892171636b3fb5447fe00e995e7a37b910162001214565b600054610100900460ff16158080156200217d5750600054600160ff909116105b80620021995750303b15801562002199575060005460ff166001145b620021fe5760405162461bcd60e51b815260206004820152602e60248201527f496e697469616c697a61626c653a20636f6e747261637420697320616c72656160448201526d191e481a5b9a5d1a585b1a5e995960921b606482015260840162000a1b565b6000805460ff19166001179055801562002222576000805461ff0019166101001790555b670de0b6b3a76400008211156200224d5760405162461bcd60e51b815260040162000a1b9062002f0a565b6200225762002510565b606a829055600019606c819055606d558015620022ab576000805461ff0019169055604051600181527f7f26b83ff96e1f2b6a682f133852f6798a09c465da95921460cefb38474024989060200162001214565b5050565b6033546001600160a01b031633146200230b5760405162461bcd60e51b815260206004820181905260248201527f4f776e61626c653a2063616c6c6572206973206e6f7420746865206f776e6572604482015260640162000a1b565b565b606062002353838360006040518060400160405280601e81526020017f416464726573733a206c6f772d6c6576656c2063616c6c206661696c6564000081525062002544565b9392505050565b604080516001600160a01b038416602482015260448082018490528251808303909101815260649091019091526020810180516001600160e01b031663a9059cbb60e01b17905262000f879084906200261c565b60008084471015620024035760405162461bcd60e51b815260206004820152601d60248201527f437265617465323a20696e73756666696369656e742062616c616e6365000000604482015260640162000a1b565b8251620024535760405162461bcd60e51b815260206004820181905260248201527f437265617465323a2062797465636f6465206c656e677468206973207a65726f604482015260640162000a1b565b8383516020850187f590506001600160a01b038116620024b65760405162461bcd60e51b815260206004820152601960248201527f437265617465323a204661696c6564206f6e206465706c6f7900000000000000604482015260640162000a1b565b949350505050565b603380546001600160a01b038381166001600160a01b0319831681179093556040519116919082907f8be0079c531659141344cd1fd0a4f28419497f9722a3daafe3b4186f6b6457e090600090a35050565b600054610100900460ff166200253a5760405162461bcd60e51b815260040162000a1b906200304d565b6200230b620026f5565b606082471015620025a75760405162461bcd60e51b815260206004820152602660248201527f416464726573733a20696e73756666696369656e742062616c616e636520666f6044820152651c8818d85b1b60d21b606482015260840162000a1b565b600080866001600160a01b03168587604051620025c591906200302f565b60006040518083038185875af1925050503d806000811462002604576040519150601f19603f3d011682016040523d82523d6000602084013e62002609565b606091505b5091509150620019ac8783838762002729565b600062002673826040518060400160405280602081526020017f5361666545524332303a206c6f772d6c6576656c2063616c6c206661696c6564815250856001600160a01b0316620027a69092919063ffffffff16565b80519091501562000f87578080602001905181019062002694919062003098565b62000f875760405162461bcd60e51b815260206004820152602a60248201527f5361666545524332303a204552433230206f7065726174696f6e20646964206e6044820152691bdd081cdd58d8d9595960b21b606482015260840162000a1b565b600054610100900460ff166200271f5760405162461bcd60e51b815260040162000a1b906200304d565b6200230b620027b7565b606083156200279a57825162002792576001600160a01b0385163b620027925760405162461bcd60e51b815260206004820152601d60248201527f416464726573733a2063616c6c20746f206e6f6e2d636f6e7472616374000000604482015260640162000a1b565b5081620024b6565b620024b68383620027ec565b6060620024b6848460008562002544565b600054610100900460ff16620027e15760405162461bcd60e51b815260040162000a1b906200304d565b6200230b33620024be565b815115620027fd5781518083602001fd5b8060405162461bcd60e51b815260040162000a1b9190620030b8565b828054620028279062002ecd565b90600052602060002090601f0160209004810192826200284b576000855562002896565b82601f106200286657805160ff191683800117855562002896565b8280016001018555821562002896579182015b828111156200289657825182559160200191906001019062002879565b50620028a4929150620028c4565b5090565b61069680620030ce83390190565b6105fd806200376483390190565b5b80821115620028a45760008155600101620028c5565b60008083601f840112620028ee57600080fd5b50813567ffffffffffffffff8111156200290757600080fd5b6020830191508360208260051b85010111156200292357600080fd5b9250929050565b6000806000806000806000806080898b0312156200294757600080fd5b883567ffffffffffffffff808211156200296057600080fd5b6200296e8c838d01620028db565b909a50985060208b01359150808211156200298857600080fd5b620029968c838d01620028db565b909850965060408b0135915080821115620029b057600080fd5b620029be8c838d01620028db565b909650945060608b0135915080821115620029d857600080fd5b50620029e78b828c01620028db565b999c989b5096995094979396929594505050565b6001600160a01b03811681146200108957600080fd5b60006020828403121562002a2457600080fd5b81356200235381620029fb565b60005b8381101562002a4e57818101518382015260200162002a34565b8381111562002a5e576000848401525b50505050565b6000815180845262002a7e81602086016020860162002a31565b601f01601f19169290920160200192915050565b6001600160a01b0384168152821515602082015260606040820181905260009062002ac09083018462002a64565b95945050505050565b6000806040838503121562002add57600080fd5b823562002aea81620029fb565b946020939093013593505050565b6000806040838503121562002b0c57600080fd5b823562002b1981620029fb565b9150602083013562002b2b81620029fb565b809150509250929050565b6000806000806040858703121562002b4d57600080fd5b843567ffffffffffffffff8082111562002b6657600080fd5b62002b7488838901620028db565b9096509450602087013591508082111562002b8e57600080fd5b5062002b9d87828801620028db565b95989497509550505050565b60008060006060848603121562002bbf57600080fd5b505081359360208301359350604090920135919050565b80151581146200108957600080fd5b60008060006060848603121562002bfb57600080fd5b833562002c0881620029fb565b9250602084013562002c1a81620029fb565b9150604084013562002c2c8162002bd6565b809150509250925092565b60008083601f84011262002c4a57600080fd5b50813567ffffffffffffffff81111562002c6357600080fd5b6020830191508360208285010111156200292357600080fd5b60008060008060006080868803121562002c9557600080fd5b853562002ca281620029fb565b9450602086013562002cb481620029fb565b9350604086013562002cc68162002bd6565b9250606086013567ffffffffffffffff81111562002ce357600080fd5b62002cf18882890162002c37565b969995985093965092949392505050565b6000806020838503121562002d1657600080fd5b823567ffffffffffffffff81111562002d2e57600080fd5b62002d3c8582860162002c37565b90969095509350505050565b6000806000806000806060878903121562002d6257600080fd5b863567ffffffffffffffff8082111562002d7b57600080fd5b62002d898a838b01620028db565b9098509650602089013591508082111562002da357600080fd5b62002db18a838b01620028db565b9096509450604089013591508082111562002dcb57600080fd5b5062002dda89828a01620028db565b979a9699509497509295939492505050565b6000806000806040858703121562002e0357600080fd5b843567ffffffffffffffff8082111562002e1c57600080fd5b62002e2a88838901620028db565b9096509450602087013591508082111562002e4457600080fd5b5062002b9d8782880162002c37565b60006020828403121562002e6657600080fd5b5035919050565b634e487b7160e01b600052603260045260246000fd5b60006020828403121562002e9657600080fd5b8135620023538162002bd6565b600060001982141562002ec657634e487b7160e01b600052601160045260246000fd5b5060010190565b600181811c9082168062002ee257607f821691505b6020821081141562002f0457634e487b7160e01b600052602260045260246000fd5b50919050565b6020808252602b908201527f496e7465726573742066656520726174652063616e6e6f74206265206d6f726560408201526a103a3430b710189818129760a91b606082015260800190565b6000808335601e1984360301811262002f6d57600080fd5b83018035915067ffffffffffffffff82111562002f8957600080fd5b6020019150368190038213156200292357600080fd5b60006020828403121562002fb257600080fd5b5051919050565b60006020828403121562002fcc57600080fd5b81516200235381620029fb565b6000808585111562002fea57600080fd5b8386111562002ff857600080fd5b5050820193919092039150565b600084516200301981846020890162002a31565b8201838582376000930192835250909392505050565b600082516200304381846020870162002a31565b9190910192915050565b6020808252602b908201527f496e697469616c697a61626c653a20636f6e7472616374206973206e6f74206960408201526a6e697469616c697a696e6760a81b606082015260800190565b600060208284031215620030ab57600080fd5b8151620023538162002bd6565b60208152600062002353602083018462002a6456fe608060405234801561001057600080fd5b5060405161069638038061069683398101604081905261002f91610246565b610085848b8b8b8b8b8b8989604051602401610052989796959493929190610363565b60408051601f198184030181529190526020810180516001600160e01b039081166306db3ecd60e01b179091526100e316565b506100d384856000866040516024016100a0939291906103cc565b60408051601f198184030181529190526020810180516001600160e01b039081166350d85b7360e01b179091526100e316565b505050505050505050505061041d565b6060600080846001600160a01b0316846040516101009190610401565b600060405180830381855af49150503d806000811461013b576040519150601f19603f3d011682016040523d82523d6000602084013e610140565b606091505b50915091506000821415610155573d60208201fd5b949350505050565b80516001600160a01b038116811461017457600080fd5b919050565b634e487b7160e01b600052604160045260246000fd5b60005b838110156101aa578181015183820152602001610192565b838111156101b9576000848401525b50505050565b600082601f8301126101d057600080fd5b81516001600160401b03808211156101ea576101ea610179565b604051601f8301601f19908116603f0116810190828211818310171561021257610212610179565b8160405283815286602085880101111561022b57600080fd5b61023c84602083016020890161018f565b9695505050505050565b6000806000806000806000806000806101408b8d03121561026657600080fd5b61026f8b61015d565b995061027d60208c0161015d565b985061028b60408c0161015d565b975061029960608c0161015d565b60808c01519097506001600160401b03808211156102b657600080fd5b6102c28e838f016101bf565b975060a08d01519150808211156102d857600080fd5b6102e48e838f016101bf565b96506102f260c08e0161015d565b955060e08d015191508082111561030857600080fd5b506103158d828e016101bf565b9350506101008b015191506101208b015190509295989b9194979a5092959850565b6000815180845261034f81602086016020860161018f565b601f01601f19169290920160200192915050565b6001600160a01b0389811682528881166020830152878116604083015286166060820152610100608082018190526000906103a083820188610337565b905082810360a08401526103b48187610337565b60c0840195909552505060e001529695505050505050565b6001600160a01b038416815282151560208201526060604082018190526000906103f890830184610337565b95945050505050565b6000825161041381846020870161018f565b9190910192915050565b61026a8061042c6000396000f3fe6080604052600436106100225760003560e01c80635c60da1b1461015c57610029565b3661002957005b34156100a15760405162461bcd60e51b815260206004820152603760248201527f43457263323044656c656761746f723a66616c6c6261636b3a2063616e6e6f7460448201527f2073656e642076616c756520746f2066616c6c6261636b000000000000000000606482015260840160405180910390fd5b6000546040805160048152602481019091526020810180516001600160e01b031663076de25160e21b1790526100e0916001600160a01b031690610198565b50600080546040516001600160a01b03909116906101019083903690610212565b600060405180830381855af49150503d806000811461013c576040519150601f19603f3d011682016040523d82523d6000602084013e610141565b606091505b505090506040513d6000823e818015610158573d82f35b3d82fd5b34801561016857600080fd5b5060005461017c906001600160a01b031681565b6040516001600160a01b03909116815260200160405180910390f35b6060600080846001600160a01b0316846040516101b59190610222565b600060405180830381855af49150503d80600081146101f0576040519150601f19603f3d011682016040523d82523d6000602084013e6101f5565b606091505b5091509150600082141561020a573d60208201fd5b949350505050565b8183823760009101908152919050565b6000825160005b818110156102435760208186018101518583015201610229565b81811115610252576000828501525b50919091019291505056fea164736f6c634300080a000a608060405234801561001057600080fd5b506040516105fd3803806105fd83398101604081905261002f91610243565b610083848a8a8a8a8a8888604051602401610050979695949392919061034e565b60408051601f198184030181529190526020810180516001600160e01b0390811663a0b0d28960e01b179091526100e016565b506100d1848560008660405160240161009e939291906103ab565b60408051601f198184030181529190526020810180516001600160e01b039081166350d85b7360e01b179091526100e016565b505050505050505050506103fc565b6060600080846001600160a01b0316846040516100fd91906103e0565b600060405180830381855af49150503d8060008114610138576040519150601f19603f3d011682016040523d82523d6000602084013e61013d565b606091505b50915091506000821415610152573d60208201fd5b949350505050565b80516001600160a01b038116811461017157600080fd5b919050565b634e487b7160e01b600052604160045260246000fd5b60005b838110156101a757818101518382015260200161018f565b838111156101b6576000848401525b50505050565b600082601f8301126101cd57600080fd5b81516001600160401b03808211156101e7576101e7610176565b604051601f8301601f19908116603f0116810190828211818310171561020f5761020f610176565b8160405283815286602085880101111561022857600080fd5b61023984602083016020890161018c565b9695505050505050565b60008060008060008060008060006101208a8c03121561026257600080fd5b61026b8a61015a565b985061027960208b0161015a565b975061028760408b0161015a565b60608b01519097506001600160401b03808211156102a457600080fd5b6102b08d838e016101bc565b975060808c01519150808211156102c657600080fd5b6102d28d838e016101bc565b96506102e060a08d0161015a565b955060c08c01519150808211156102f657600080fd5b506103038c828d016101bc565b93505060e08a015191506101008a015190509295985092959850929598565b6000815180845261033a81602086016020860161018c565b601f01601f19169290920160200192915050565b6001600160a01b03888116825287811660208301528616604082015260e06060820181905260009061038290830187610322565b82810360808401526103948187610322565b60a0840195909552505060c0015295945050505050565b6001600160a01b038416815282151560208201526060604082018190526000906103d790830184610322565b95945050505050565b600082516103f281846020870161018c565b9190910192915050565b6101f28061040b6000396000f3fe6080604052600436106100225760003560e01c80635c60da1b146100e457610029565b3661002957005b6000546040805160048152602481019091526020810180516001600160e01b031663076de25160e21b179052610068916001600160a01b031690610120565b50600080546040516001600160a01b0390911690610089908390369061019a565b600060405180830381855af49150503d80600081146100c4576040519150601f19603f3d011682016040523d82523d6000602084013e6100c9565b606091505b505090506040513d6000823e8180156100e0573d82f35b3d82fd5b3480156100f057600080fd5b50600054610104906001600160a01b031681565b6040516001600160a01b03909116815260200160405180910390f35b6060600080846001600160a01b03168460405161013d91906101aa565b600060405180830381855af49150503d8060008114610178576040519150601f19603f3d011682016040523d82523d6000602084013e61017d565b606091505b50915091506000821415610192573d60208201fd5b949350505050565b8183823760009101908152919050565b6000825160005b818110156101cb57602081860181015185830152016101b1565b818111156101da576000828501525b50919091019291505056fea164736f6c634300080a000aa164736f6c634300080a000a",
    "linkReferences": {}
  },
  "methodIdentifiers": {
    "_acceptOwner()": "fc4d33f9",
    "_callPool(address[],bytes)": "b01b86fd",
    "_callPool(address[],bytes[])": "2acbff39",
    "_editCErc20DelegateWhitelist(address[],address[],bool[],bool[])": "01758fc2",
    "_editCEtherDelegateWhitelist(address[],address[],bool[],bool[])": "d64517b2",
    "_editComptrollerImplementationWhitelist(address[],address[],bool[])": "8d3bb8ef",
    "_editPluginImplementationWhitelist(address[],address[],bool[])": "eba62393",
    "_latestCErc20Delegate(address)": "183a3f72",
    "_latestCEtherDelegate(address)": "0284db76",
    "_latestPluginImplementation(address)": "4a212ebb",
    "_resetGap()": "c2bd5c2e",
    "_setCustomInterestFeeRate(address,int256)": "06bc4611",
    "_setDefaultInterestFeeRate(uint256)": "e35a4801",
    "_setLatestCErc20Delegate(address,address,bool,bytes)": "75365b87",
    "_setLatestCEtherDelegate(address,address,bool,bytes)": "a430e617",
    "_setLatestComptrollerImplementation(address,address)": "930d2438",
    "_setLatestPluginImplementation(address,address)": "1259821c",
    "_setPendingOwner(address)": "6e96dfd7",
    "_setPoolLimits(uint256,uint256,uint256)": "2f876d32",
    "_upgradePluginToLatestImplementation(address)": "7a1133d6",
    "_withdrawAssets(address)": "3465b6e1",
    "cErc20DelegateWhitelist(address,address,bool)": "71cd40e6",
    "cEtherDelegateWhitelist(address,address,bool)": "c11cd440",
    "comptrollerImplementationWhitelist(address,address)": "9d244f9f",
    "customInterestFeeRates(address)": "c5232b47",
    "defaultInterestFeeRate()": "84651d73",
    "deployCErc20(bytes)": "8754e4fd",
    "deployCEther(bytes)": "9b86a9b5",
    "initialize(uint256)": "fe4b84df",
    "interestFeeRate()": "dd86fea1",
    "latestCErc20Delegate(address)": "45cc9705",
    "latestCEtherDelegate(address)": "8abe0b75",
    "latestComptrollerImplementation(address)": "bbcdd6d3",
    "latestPluginImplementation(address)": "81218ea9",
    "marketsCounter()": "a71d085d",
    "maxSupplyEth()": "9c7be708",
    "maxUtilizationRate()": "dfcb48bd",
    "minBorrowEth()": "fdb25fb1",
    "owner()": "8da5cb5b",
    "pendingOwner()": "e30c3978",
    "pluginImplementationWhitelist(address,address)": "7583efcf",
    "renounceOwnership()": "715018a6",
    "transferOwnership(address)": "f2fde38b"
  }
}