{
  "address": "0x7ff5F79258B6aEE77D665D2EBdb60ec21B0Bc88b",
  "abi": [
    {
      "inputs": [
        {
          "internalType": "contract FusePoolDirectory",
          "name": "_fpd",
          "type": "address"
        }
      ],
      "stateMutability": "nonpayable",
      "type": "constructor"
    },
    {
      "inputs": [],
      "name": "fpd",
      "outputs": [
        {
          "internalType": "contract FusePoolDirectory",
          "name": "",
          "type": "address"
        }
      ],
      "stateMutability": "view",
      "type": "function"
    },
    {
      "inputs": [],
      "name": "getAllRewardTokens",
      "outputs": [
        {
          "internalType": "address[]",
          "name": "rewardTokens",
          "type": "address[]"
        }
      ],
      "stateMutability": "view",
      "type": "function"
    },
    {
      "inputs": [
        {
          "internalType": "contract ICErc20[]",
          "name": "markets",
          "type": "address[]"
        }
      ],
      "name": "getMarketRewardsInfo",
      "outputs": [
        {
          "components": [
            {
              "internalType": "uint256",
              "name": "underlyingPrice",
              "type": "uint256"
            },
            {
              "internalType": "contract ICErc20",
              "name": "market",
              "type": "address"
            },
            {
              "components": [
                {
                  "internalType": "uint256",
                  "name": "rewardSpeedPerSecondPerToken",
                  "type": "uint256"
                },
                {
                  "internalType": "uint256",
                  "name": "rewardTokenPrice",
                  "type": "uint256"
                },
                {
                  "internalType": "uint256",
                  "name": "formattedAPR",
                  "type": "uint256"
                },
                {
                  "internalType": "address",
                  "name": "flywheel",
                  "type": "address"
                },
                {
                  "internalType": "address",
                  "name": "rewardToken",
                  "type": "address"
                }
              ],
              "internalType": "struct MidasFlywheelLensRouter.RewardsInfo[]",
              "name": "rewardsInfo",
              "type": "tuple[]"
            }
          ],
          "internalType": "struct MidasFlywheelLensRouter.MarketRewardsInfo[]",
          "name": "",
          "type": "tuple[]"
        }
      ],
      "stateMutability": "nonpayable",
      "type": "function"
    },
    {
      "inputs": [
        {
          "internalType": "contract IComptroller",
          "name": "comptroller",
          "type": "address"
        }
      ],
      "name": "getPoolMarketRewardsInfo",
      "outputs": [
        {
          "components": [
            {
              "internalType": "uint256",
              "name": "underlyingPrice",
              "type": "uint256"
            },
            {
              "internalType": "contract ICErc20",
              "name": "market",
              "type": "address"
            },
            {
              "components": [
                {
                  "internalType": "uint256",
                  "name": "rewardSpeedPerSecondPerToken",
                  "type": "uint256"
                },
                {
                  "internalType": "uint256",
                  "name": "rewardTokenPrice",
                  "type": "uint256"
                },
                {
                  "internalType": "uint256",
                  "name": "formattedAPR",
                  "type": "uint256"
                },
                {
                  "internalType": "address",
                  "name": "flywheel",
                  "type": "address"
                },
                {
                  "internalType": "address",
                  "name": "rewardToken",
                  "type": "address"
                }
              ],
              "internalType": "struct MidasFlywheelLensRouter.RewardsInfo[]",
              "name": "rewardsInfo",
              "type": "tuple[]"
            }
          ],
          "internalType": "struct MidasFlywheelLensRouter.MarketRewardsInfo[]",
          "name": "",
          "type": "tuple[]"
        }
      ],
      "stateMutability": "nonpayable",
      "type": "function"
    },
    {
      "inputs": [
        {
          "internalType": "address",
          "name": "user",
          "type": "address"
        },
        {
          "internalType": "contract ERC20[]",
          "name": "markets",
          "type": "address[]"
        },
        {
          "internalType": "contract MidasFlywheelCore[]",
          "name": "flywheels",
          "type": "address[]"
        },
        {
          "internalType": "bool[]",
          "name": "accrue",
          "type": "bool[]"
        }
      ],
      "name": "getUnclaimedRewardsByMarkets",
      "outputs": [
        {
          "internalType": "contract MidasFlywheelCore[]",
          "name": "",
          "type": "address[]"
        },
        {
          "internalType": "address[]",
          "name": "rewardTokens",
          "type": "address[]"
        },
        {
          "internalType": "uint256[]",
          "name": "rewards",
          "type": "uint256[]"
        }
      ],
      "stateMutability": "nonpayable",
      "type": "function"
    },
    {
      "inputs": [
        {
          "internalType": "address",
          "name": "user",
          "type": "address"
        },
        {
          "internalType": "contract ERC20",
          "name": "market",
          "type": "address"
        },
        {
          "internalType": "contract MidasFlywheelCore[]",
          "name": "flywheels",
          "type": "address[]"
        },
        {
          "internalType": "bool[]",
          "name": "accrue",
          "type": "bool[]"
        }
      ],
      "name": "getUnclaimedRewardsForMarket",
      "outputs": [
        {
          "internalType": "contract MidasFlywheelCore[]",
          "name": "",
          "type": "address[]"
        },
        {
          "internalType": "address[]",
          "name": "rewardTokens",
          "type": "address[]"
        },
        {
          "internalType": "uint256[]",
          "name": "rewards",
          "type": "uint256[]"
        }
      ],
      "stateMutability": "nonpayable",
      "type": "function"
    },
    {
      "inputs": [
        {
          "internalType": "address",
          "name": "user",
          "type": "address"
        },
        {
          "internalType": "contract IComptroller",
          "name": "comptroller",
          "type": "address"
        }
      ],
      "name": "getUnclaimedRewardsForPool",
      "outputs": [
        {
          "internalType": "contract MidasFlywheelCore[]",
          "name": "",
          "type": "address[]"
        },
        {
          "internalType": "address[]",
          "name": "",
          "type": "address[]"
        },
        {
          "internalType": "uint256[]",
          "name": "",
          "type": "uint256[]"
        }
      ],
      "stateMutability": "nonpayable",
      "type": "function"
    }
  ],
  "transactionHash": "0x1cd71a35cdc369476dcaa0951505a7ee134341bc0ef59da34c01dd8df67b3b0d",
  "args": [
    "0x5D391D2f2AA77060D72a0E9C454F7ea6D3287b50"
  ],
  "numDeployments": 3,
  "bytecode": {
    "object": "0x60806040523480156200001157600080fd5b50604051620028b4380380620028b483398101604081905262000034916200005a565b600080546001600160a01b0319166001600160a01b03929092169190911790556200008c565b6000602082840312156200006d57600080fd5b81516001600160a01b03811681146200008557600080fd5b9392505050565b612818806200009c6000396000f3fe608060405234801561001057600080fd5b506004361061007d5760003560e01c8063c8a6da191161005b578063c8a6da19146100e2578063d1040bae146100f5578063d444c39e14610108578063de858c631461011b57600080fd5b80630bd96f481461008257806312edb24c146100ad5780637e70aa49146100c2575b600080fd5b610095610090366004611c5b565b610146565b6040516100a493929190611d33565b60405180910390f35b6100b5610541565b6040516100a49190611dcc565b6100d56100d0366004611e70565b610970565b6040516100a49190611f0e565b6100956100f03660046120c4565b610ac5565b6100d56101033660046121be565b610e84565b6100956101163660046121db565b610efa565b60005461012e906001600160a01b031681565b6040516001600160a01b0390911681526020016100a4565b6060808085806001600160401b0381111561016357610163611ddf565b60405190808252806020026020018201604052801561018c578160200160208202803683370190505b509150806001600160401b038111156101a7576101a7611ddf565b6040519080825280602002602001820160405280156101d0578160200160208202803683370190505b50925060005b818110156104f15760008787838181106101f2576101f2612214565b9050602002016020810190610207919061222a565b156102b05789898381811061021e5761021e612214565b905060200201602081019061023391906121be565b604051632e6f912b60e21b81526001600160a01b038d811660048301528e81166024830152919091169063b9be44ac906044016020604051808303816000875af1158015610285573d6000803e3d6000fd5b505050506040513d601f19601f820116820180604052508101906102a99190612245565b9050610348565b8989838181106102c2576102c2612214565b90506020020160208101906102d791906121be565b604051630ff6b5a760e31b81526001600160a01b038e811660048301529190911690637fb5ad38906024016020604051808303816000875af1158015610321573d6000803e3d6000fd5b505050506040513d601f19601f820116820180604052508101906103459190612245565b90505b8084838151811061035b5761035b612214565b6020026020010151101561036f578061038a565b83828151811061038157610381612214565b60200260200101515b84838151811061039c5761039c612214565b6020026020010181815250508989838181106103ba576103ba612214565b90506020020160208101906103cf91906121be565b604051633bd73ee360e21b81526001600160a01b038e81166004830152919091169063ef5cfb8c90602401600060405180830381600087803b15801561041457600080fd5b505af1158015610428573d6000803e3d6000fd5b5050505089898381811061043e5761043e612214565b905060200201602081019061045391906121be565b6001600160a01b031663f7c618c16040518163ffffffff1660e01b8152600401602060405180830381865afa158015610490573d6000803e3d6000fd5b505050506040513d601f19601f820116820180604052508101906104b4919061225e565b8583815181106104c6576104c6612214565b6001600160a01b039092166020928302919091019091015250806104e981612291565b9150506101d6565b5087878484838380806020026020016040519081016040528093929190818152602001838360200280828437600092019190915250929a5093985091965050505050505096509650969350505050565b60008054604080516323b020d560e21b81529051606093926001600160a01b031691638ec0835491600480830192869291908290030181865afa15801561058c573d6000803e3d6000fd5b505050506040513d6000823e601f3d908101601f191682016040526105b49190810190612428565b915060009050805b82518110156106755760008382815181106105d9576105d9612214565b60200260200101516040015190506000816001600160a01b0316633605b51b6040518163ffffffff1660e01b8152600401600060405180830381865afa158015610627573d6000803e3d6000fd5b505050506040513d6000823e601f3d908101601f1916820160405261064f91908101906124e3565b905080518461065e9190612571565b93505050808061066d90612291565b9150506105bc565b50806001600160401b0381111561068e5761068e611ddf565b6040519080825280602002602001820160405280156106b7578160200160208202803683370190505b5092506000805b83518110156108c05760008482815181106106db576106db612214565b60200260200101516040015190506000816001600160a01b0316633605b51b6040518163ffffffff1660e01b8152600401600060405180830381865afa158015610729573d6000803e3d6000fd5b505050506040513d6000823e601f3d908101601f1916820160405261075191908101906124e3565b905060005b81518110156108aa57600082828151811061077357610773612214565b60200260200101516001600160a01b031663f7c618c16040518163ffffffff1660e01b8152600401602060405180830381865afa1580156107b8573d6000803e3d6000fd5b505050506040513d601f19601f820116820180604052508101906107dc919061225e565b90506000805b8a51811015610850578a81815181106107fd576107fd612214565b60200260200101516001600160a01b0316836001600160a01b031614156108275760019150610850565b6001600160a01b03831661083e5760009150610850565b8061084881612291565b9150506107e2565b508061089557818a8861086281612291565b99508151811061087457610874612214565b60200260200101906001600160a01b031690816001600160a01b0316815250505b505080806108a290612291565b915050610756565b50505080806108b890612291565b9150506106be565b506000816001600160401b038111156108db576108db611ddf565b604051908082528060200260200182016040528015610904578160200160208202803683370190505b50905060005b828110156109685785818151811061092457610924612214565b602002602001015182828151811061093e5761093e612214565b6001600160a01b03909216602092830291909101909101528061096081612291565b91505061090a565b505050505090565b60606000805b8351811015610ab357600084828151811061099357610993612214565b6020026020010151905060006001600160a01b0316836001600160a01b03161415610a2157806001600160a01b0316635fe3b5676040518163ffffffff1660e01b8152600401602060405180830381865afa1580156109f6573d6000803e3d6000fd5b505050506040513d601f19601f82011682018060405250810190610a1a919061225e565b9250610aa0565b826001600160a01b0316816001600160a01b0316635fe3b5676040518163ffffffff1660e01b8152600401602060405180830381865afa158015610a69573d6000803e3d6000fd5b505050506040513d601f19601f82011682018060405250810190610a8d919061225e565b6001600160a01b031614610aa057600080fd5b5080610aab81612291565b915050610976565b50610abe83826111b8565b9392505050565b606080606084516001600160401b03811115610ae357610ae3611ddf565b604051908082528060200260200182016040528015610b0c578160200160208202803683370190505b50905084516001600160401b03811115610b2857610b28611ddf565b604051908082528060200260200182016040528015610b51578160200160208202803683370190505b50915060005b8551811015610e775760005b8751811015610d46576000888281518110610b8057610b80612214565b602002602001015190506000878481518110610b9e57610b9e612214565b602002602001015115610c4457888481518110610bbd57610bbd612214565b6020908102919091010151604051632e6f912b60e21b81526001600160a01b0384811660048301528d811660248301529091169063b9be44ac906044016020604051808303816000875af1158015610c19573d6000803e3d6000fd5b505050506040513d601f19601f82011682018060405250810190610c3d9190612245565b9050610cd1565b888481518110610c5657610c56612214565b6020908102919091010151604051630ff6b5a760e31b81526001600160a01b038d8116600483015290911690637fb5ad38906024016020604051808303816000875af1158015610caa573d6000803e3d6000fd5b505050506040513d601f19601f82011682018060405250810190610cce9190612245565b90505b80858581518110610ce457610ce4612214565b60200260200101511015610cf85780610d13565b848481518110610d0a57610d0a612214565b60200260200101515b858581518110610d2557610d25612214565b60200260200101818152505050508080610d3e90612291565b915050610b63565b50858181518110610d5957610d59612214565b6020908102919091010151604051633bd73ee360e21b81526001600160a01b038a811660048301529091169063ef5cfb8c90602401600060405180830381600087803b158015610da857600080fd5b505af1158015610dbc573d6000803e3d6000fd5b50505050858181518110610dd257610dd2612214565b60200260200101516001600160a01b031663f7c618c16040518163ffffffff1660e01b8152600401602060405180830381865afa158015610e17573d6000803e3d6000fd5b505050506040513d601f19601f82011682018060405250810190610e3b919061225e565b838281518110610e4d57610e4d612214565b6001600160a01b039092166020928302919091019091015280610e6f81612291565b915050610b57565b5093969095509293505050565b60606000826001600160a01b031663b0772d0b6040518163ffffffff1660e01b8152600401600060405180830381865afa158015610ec6573d6000803e3d6000fd5b505050506040513d6000823e601f3d908101601f19168201604052610eee9190810190612589565b9050610abe81846111b8565b60608060606000846001600160a01b031663b0772d0b6040518163ffffffff1660e01b8152600401600060405180830381865afa158015610f3f573d6000803e3d6000fd5b505050506040513d6000823e601f3d908101601f19168201604052610f679190810190612589565b9050600081516001600160401b03811115610f8457610f84611ddf565b604051908082528060200260200182016040528015610fad578160200160208202803683370190505b5090506000866001600160a01b0316634a76e7276040518163ffffffff1660e01b8152600401600060405180830381865afa158015610ff0573d6000803e3d6000fd5b505050506040513d6000823e601f3d908101601f1916820160405261101891908101906124e3565b9050600081516001600160401b0381111561103557611035611ddf565b60405190808252806020026020018201604052801561105e578160200160208202803683370190505b509050600082516001600160401b0381111561107c5761107c611ddf565b6040519080825280602002602001820160405280156110a5578160200160208202803683370190505b50905060005b8351811015611136578381815181106110c6576110c6612214565b60200260200101518382815181106110e0576110e0612214565b60200260200101906001600160a01b031690816001600160a01b031681525050600182828151811061111457611114612214565b911515602092830291909101909101528061112e81612291565b9150506110ab565b5060005b85518110156111995785818151811061115557611155612214565b602002602001015185828151811061116f5761116f612214565b6001600160a01b03909216602092830291909101909101528061119181612291565b91505061113a565b506111a68a858484610ac5565b97509750975050505050509250925092565b60606001600160a01b03821615806111cf57508251155b15611221576040805160008082526020820190925290611219565b604080516060808201835260008083526020830152918101919091528152602001906001900390816111ea5790505b509050611977565b6000826001600160a01b0316634a76e7276040518163ffffffff1660e01b8152600401600060405180830381865afa158015611261573d6000803e3d6000fd5b505050506040513d6000823e601f3d908101601f1916820160405261128991908101906124e3565b9050600081516001600160401b038111156112a6576112a6611ddf565b6040519080825280602002602001820160405280156112cf578160200160208202803683370190505b509050600082516001600160401b038111156112ed576112ed611ddf565b604051908082528060200260200182016040528015611316578160200160208202803683370190505b509050600083516001600160401b0381111561133457611334611ddf565b60405190808252806020026020018201604052801561135d578160200160208202803683370190505b5090506000866001600160a01b0316637dc0d1d06040518163ffffffff1660e01b8152600401602060405180830381865afa1580156113a0573d6000803e3d6000fd5b505050506040513d601f19601f820116820180604052508101906113c4919061225e565b9050600088516001600160401b038111156113e1576113e1611ddf565b60405190808252806020026020018201604052801561142e57816020015b604080516060808201835260008083526020830152918101919091528152602001906001900390816113ff5790505b50905060005b895181101561196e57600087516001600160401b0381111561145857611458611ddf565b6040519080825280602002602001820160405280156114cd57816020015b6114ba6040518060a0016040528060008152602001600081526020016000815260200160006001600160a01b0316815260200160006001600160a01b031681525090565b8152602001906001900390816114765790505b50905060008b83815181106114e4576114e4612214565b602002602001015190506000856001600160a01b031663aea91078836001600160a01b0316636f307dc36040518163ffffffff1660e01b8152600401602060405180830381865afa15801561153d573d6000803e3d6000fd5b505050506040513d601f19601f82011682018060405250810190611561919061225e565b6040516001600160e01b031960e084901b1681526001600160a01b039091166004820152602401602060405180830381865afa1580156115a5573d6000803e3d6000fd5b505050506040513d601f19601f820116820180604052508101906115c99190612245565b90508361179c5760005b8a5181101561179a5760008b82815181106115f0576115f0612214565b60200260200101516001600160a01b031663f7c618c16040518163ffffffff1660e01b8152600401602060405180830381865afa158015611635573d6000803e3d6000fd5b505050506040513d601f19601f82011682018060405250810190611659919061225e565b9050808b838151811061166e5761166e612214565b6001600160a01b0392831660209182029290920101526040516315d5220f60e31b815282821660048201529089169063aea9107890602401602060405180830381865afa1580156116c3573d6000803e3d6000fd5b505050506040513d601f19601f820116820180604052508101906116e79190612245565b8a83815181106116f9576116f9612214565b602002602001018181525050806001600160a01b031663313ce5676040518163ffffffff1660e01b8152600401602060405180830381865afa158015611743573d6000803e3d6000fd5b505050506040513d601f19601f820116820180604052508101906117679190612617565b60ff1689838151811061177c5761177c612214565b6020908102919091010152508061179281612291565b9150506115d3565b505b60005b8a518110156119165760008b82815181106117bc576117bc612214565b6020026020010151905060006117ec82868c86815181106117df576117df612214565b602002602001015161197d565b90506000611876828d868151811061180657611806612214565b602002602001015187896001600160a01b031663bd6d894d6040518163ffffffff1660e01b8152600401602060405180830381865afa15801561184d573d6000803e3d6000fd5b505050506040513d601f19601f820116820180604052508101906118719190612245565b611b39565b90506040518060a001604052808381526020018d868151811061189b5761189b612214565b60200260200101518152602001828152602001846001600160a01b031681526020018e86815181106118cf576118cf612214565b60200260200101516001600160a01b03168152508785815181106118f5576118f5612214565b6020026020010181905250505050808061190e90612291565b91505061179f565b506040518060600160405280828152602001836001600160a01b031681526020018481525085858151811061194d5761194d612214565b6020026020010181905250505050808061196690612291565b915050611434565b50955050505050505b92915050565b60405163dde684a560e01b81526001600160a01b03808416600483015260009184918391829188169063dde684a59060240160408051808303816000875af11580156119cd573d6000803e3d6000fd5b505050506040513d601f19601f820116820180604052508101906119f1919061263a565b604051632e6f912b60e21b81526001600160a01b038681166004830152600060248301529294509092509088169063b9be44ac906044016020604051808303816000875af1158015611a47573d6000803e3d6000fd5b505050506040513d601f19601f82011682018060405250810190611a6b9190612245565b5060405163dde684a560e01b81526001600160a01b03848116600483015260009182918a169063dde684a59060240160408051808303816000875af1158015611ab8573d6000803e3d6000fd5b505050506040513d601f19601f82011682018060405250810190611adc919061263a565b915091508263ffffffff168163ffffffff161115611b2d57611afe838261267e565b63ffffffff16611b20611b1186856126a3565b6001600160e01b031689611ba8565b611b2a91906126c3565b95505b50505050509392505050565b600084611b4857506000611ba0565b6000611b5485876126e5565b90506000611b66826301e187e06126e5565b90506000611b7486836126c3565b90506000611b8a82670de0b6b3a76400006126e5565b90506000611b9887836126c3565b955050505050505b949350505050565b60006012821115611bd857611bbe601283612704565b611bc990600a6127ff565b611bd390846126c3565b610abe565b611be3826012612704565b611bee90600a6127ff565b610abe90846126e5565b6001600160a01b0381168114611c0d57600080fd5b50565b60008083601f840112611c2257600080fd5b5081356001600160401b03811115611c3957600080fd5b6020830191508360208260051b8501011115611c5457600080fd5b9250929050565b60008060008060008060808789031215611c7457600080fd5b8635611c7f81611bf8565b95506020870135611c8f81611bf8565b945060408701356001600160401b0380821115611cab57600080fd5b611cb78a838b01611c10565b90965094506060890135915080821115611cd057600080fd5b50611cdd89828a01611c10565b979a9699509497509295939492505050565b600081518084526020808501945080840160005b83811015611d285781516001600160a01b031687529582019590820190600101611d03565b509495945050505050565b606080825284519082018190526000906020906080840190828801845b82811015611d755781516001600160a01b031684529284019290840190600101611d50565b50505083810382850152611d898187611cef565b8481036040860152855180825283870192509083019060005b81811015611dbe57835183529284019291840191600101611da2565b509098975050505050505050565b602081526000610abe6020830184611cef565b634e487b7160e01b600052604160045260246000fd5b60405160a081016001600160401b0381118282101715611e1757611e17611ddf565b60405290565b604051601f8201601f191681016001600160401b0381118282101715611e4557611e45611ddf565b604052919050565b60006001600160401b03821115611e6657611e66611ddf565b5060051b60200190565b60006020808385031215611e8357600080fd5b82356001600160401b03811115611e9957600080fd5b8301601f81018513611eaa57600080fd5b8035611ebd611eb882611e4d565b611e1d565b81815260059190911b82018301908381019087831115611edc57600080fd5b928401925b82841015611f03578335611ef481611bf8565b82529284019290840190611ee1565b979650505050505050565b60006020808301818452808551808352604092508286019150828160051b87010184880160005b83811015611dbe57888303603f19018552815180518452878101516001600160a01b03908116898601529087015160608886018190528151818701819052918a019290916080918288019160005b81811015611fc6578651805185528e8101518f8601528d8101518e86015286810151841687860152850151831685850152958d019560a090930192600101611f83565b505050978a0197955050509187019150600101611f35565b600082601f830112611fef57600080fd5b81356020611fff611eb883611e4d565b82815260059290921b8401810191818101908684111561201e57600080fd5b8286015b8481101561204257803561203581611bf8565b8352918301918301612022565b509695505050505050565b8035801515811461205d57600080fd5b919050565b600082601f83011261207357600080fd5b81356020612083611eb883611e4d565b82815260059290921b840181019181810190868411156120a257600080fd5b8286015b84811015612042576120b78161204d565b83529183019183016120a6565b600080600080608085870312156120da57600080fd5b84356120e581611bf8565b93506020858101356001600160401b038082111561210257600080fd5b818801915088601f83011261211657600080fd5b8135612124611eb882611e4d565b81815260059190911b8301840190848101908b83111561214357600080fd5b938501935b8285101561216a57843561215b81611bf8565b82529385019390850190612148565b97505050604088013592508083111561218257600080fd5b61218e89848a01611fde565b945060608801359250808311156121a457600080fd5b50506121b287828801612062565b91505092959194509250565b6000602082840312156121d057600080fd5b8135610abe81611bf8565b600080604083850312156121ee57600080fd5b82356121f981611bf8565b9150602083013561220981611bf8565b809150509250929050565b634e487b7160e01b600052603260045260246000fd5b60006020828403121561223c57600080fd5b610abe8261204d565b60006020828403121561225757600080fd5b5051919050565b60006020828403121561227057600080fd5b8151610abe81611bf8565b634e487b7160e01b600052601160045260246000fd5b60006000198214156122a5576122a561227b565b5060010190565b805161205d81611bf8565b6000601f83818401126122c957600080fd5b825160206122d9611eb883611e4d565b82815260059290921b850181019181810190878411156122f857600080fd5b8287015b8481101561241c5780516001600160401b038082111561231c5760008081fd5b9089019060a0601f19838d0381018213156123375760008081fd5b61233f611df5565b88850151848111156123515760008081fd5b8501603f81018f136123635760008081fd5b898101518581111561237757612377611ddf565b6123868b858f84011601611e1d565b9550808652604093508f848284010111156123a15760008081fd5b60005b818110156123bf578281018501518782018d01528b016123a4565b818111156123d05760008c83890101525b5050508381526123e18286016122ac565b89820152606093506123f48486016122ac565b91810191909152608084810151938201939093529201519082015283529183019183016122fc565b50979650505050505050565b6000806040838503121561243b57600080fd5b82516001600160401b038082111561245257600080fd5b818501915085601f83011261246657600080fd5b81516020612476611eb883611e4d565b82815260059290921b8401810191818101908984111561249557600080fd5b948201945b838610156124b35785518252948201949082019061249a565b918801519196509093505050808211156124cc57600080fd5b506124d9858286016122b7565b9150509250929050565b600060208083850312156124f657600080fd5b82516001600160401b0381111561250c57600080fd5b8301601f8101851361251d57600080fd5b805161252b611eb882611e4d565b81815260059190911b8201830190838101908783111561254a57600080fd5b928401925b82841015611f0357835161256281611bf8565b8252928401929084019061254f565b600082198211156125845761258461227b565b500190565b6000602080838503121561259c57600080fd5b82516001600160401b038111156125b257600080fd5b8301601f810185136125c357600080fd5b80516125d1611eb882611e4d565b81815260059190911b820183019083810190878311156125f057600080fd5b928401925b82841015611f0357835161260881611bf8565b825292840192908401906125f5565b60006020828403121561262957600080fd5b815160ff81168114610abe57600080fd5b6000806040838503121561264d57600080fd5b82516001600160e01b038116811461266457600080fd5b602084015190925063ffffffff8116811461220957600080fd5b600063ffffffff8381169083168181101561269b5761269b61227b565b039392505050565b60006001600160e01b038381169083168181101561269b5761269b61227b565b6000826126e057634e487b7160e01b600052601260045260246000fd5b500490565b60008160001904831182151516156126ff576126ff61227b565b500290565b6000828210156127165761271661227b565b500390565b600181815b8085111561275657816000190482111561273c5761273c61227b565b8085161561274957918102915b93841c9390800290612720565b509250929050565b60008261276d57506001611977565b8161277a57506000611977565b8160018114612790576002811461279a576127b6565b6001915050611977565b60ff8411156127ab576127ab61227b565b50506001821b611977565b5060208310610133831016604e8410600b84101617156127d9575081810a611977565b6127e3838361271b565b80600019048211156127f7576127f761227b565b029392505050565b6000610abe838361275e56fea164736f6c634300080a000a",
    "linkReferences": {}
  },
  "methodIdentifiers": {
    "fpd()": "de858c63",
    "getAllRewardTokens()": "12edb24c",
    "getMarketRewardsInfo(address[])": "7e70aa49",
    "getPoolMarketRewardsInfo(address)": "d1040bae",
    "getUnclaimedRewardsByMarkets(address,address[],address[],bool[])": "c8a6da19",
    "getUnclaimedRewardsForMarket(address,address,address[],bool[])": "0bd96f48",
    "getUnclaimedRewardsForPool(address,address)": "d444c39e"
  }
}