{
  "address": "0xF35048A4613A0d7eb2eC5CBcc79193A9e1aF6A5C",
  "abi": [
    {
      "anonymous": false,
      "inputs": [
        {
          "indexed": false,
          "internalType": "uint8",
          "name": "version",
          "type": "uint8"
        }
      ],
      "name": "Initialized",
      "type": "event"
    },
    {
      "anonymous": false,
      "inputs": [
        {
          "indexed": false,
          "internalType": "address",
          "name": "oldOwner",
          "type": "address"
        },
        {
          "indexed": false,
          "internalType": "address",
          "name": "newOwner",
          "type": "address"
        }
      ],
      "name": "NewOwner",
      "type": "event"
    },
    {
      "anonymous": false,
      "inputs": [
        {
          "indexed": false,
          "internalType": "address",
          "name": "oldPendingOwner",
          "type": "address"
        },
        {
          "indexed": false,
          "internalType": "address",
          "name": "newPendingOwner",
          "type": "address"
        }
      ],
      "name": "NewPendingOwner",
      "type": "event"
    },
    {
      "anonymous": false,
      "inputs": [
        {
          "indexed": true,
          "internalType": "address",
          "name": "previousOwner",
          "type": "address"
        },
        {
          "indexed": true,
          "internalType": "address",
          "name": "newOwner",
          "type": "address"
        }
      ],
      "name": "OwnershipTransferred",
      "type": "event"
    },
    {
      "inputs": [],
      "name": "NATIVE_TOKEN_USD_PRICE_FEED",
      "outputs": [
        {
          "internalType": "contract NativeUSDPriceOracle",
          "name": "",
          "type": "address"
        }
      ],
      "stateMutability": "view",
      "type": "function"
    },
    {
      "inputs": [],
      "name": "_acceptOwner",
      "outputs": [],
      "stateMutability": "nonpayable",
      "type": "function"
    },
    {
      "inputs": [
        {
          "internalType": "address",
          "name": "newPendingOwner",
          "type": "address"
        }
      ],
      "name": "_setPendingOwner",
      "outputs": [],
      "stateMutability": "nonpayable",
      "type": "function"
    },
    {
      "inputs": [
        {
          "internalType": "contract ICToken",
          "name": "cToken",
          "type": "address"
        }
      ],
      "name": "getUnderlyingPrice",
      "outputs": [
        {
          "internalType": "uint256",
          "name": "",
          "type": "uint256"
        }
      ],
      "stateMutability": "view",
      "type": "function"
    },
    {
      "inputs": [
        {
          "internalType": "contract NativeUSDPriceOracle",
          "name": "nativeUsdPriceFeed",
          "type": "address"
        }
      ],
      "name": "initialize",
      "outputs": [],
      "stateMutability": "nonpayable",
      "type": "function"
    },
    {
      "inputs": [],
      "name": "owner",
      "outputs": [
        {
          "internalType": "address",
          "name": "",
          "type": "address"
        }
      ],
      "stateMutability": "view",
      "type": "function"
    },
    {
      "inputs": [],
      "name": "pendingOwner",
      "outputs": [
        {
          "internalType": "address",
          "name": "",
          "type": "address"
        }
      ],
      "stateMutability": "view",
      "type": "function"
    },
    {
      "inputs": [
        {
          "internalType": "address",
          "name": "underlying",
          "type": "address"
        }
      ],
      "name": "price",
      "outputs": [
        {
          "internalType": "uint256",
          "name": "",
          "type": "uint256"
        }
      ],
      "stateMutability": "view",
      "type": "function"
    },
    {
      "inputs": [
        {
          "internalType": "address",
          "name": "",
          "type": "address"
        }
      ],
      "name": "priceFeeds",
      "outputs": [
        {
          "internalType": "contract IPriceOracle",
          "name": "",
          "type": "address"
        }
      ],
      "stateMutability": "view",
      "type": "function"
    },
    {
      "inputs": [],
      "name": "renounceOwnership",
      "outputs": [],
      "stateMutability": "nonpayable",
      "type": "function"
    },
    {
      "inputs": [
        {
          "internalType": "address[]",
          "name": "underlyings",
          "type": "address[]"
        },
        {
          "internalType": "contract IPriceOracle[]",
          "name": "feeds",
          "type": "address[]"
        }
      ],
      "name": "setPriceFeeds",
      "outputs": [],
      "stateMutability": "nonpayable",
      "type": "function"
    },
    {
      "inputs": [
        {
          "internalType": "address",
          "name": "newOwner",
          "type": "address"
        }
      ],
      "name": "transferOwnership",
      "outputs": [],
      "stateMutability": "nonpayable",
      "type": "function"
    }
  ],
  "transactionHash": "0x8f4150b380283f6dc660e72a14b3ff8307d93bc575ba7d717046e1f226ded749",
  "args": [],
  "numDeployments": 1,
  "bytecode": {
    "object": "0x608060405234801561001057600080fd5b50610ea8806100206000396000f3fe608060405234801561001057600080fd5b50600436106100b45760003560e01c8063aea9107811610071578063aea9107814610153578063c4d66de814610174578063e30c397814610187578063f2fde38b1461019a578063fc4d33f9146101ad578063fc57d4df146101b557600080fd5b80633a750685146100b95780636e96dfd7146100e9578063715018a6146100fe5780638da5cb5b1461010657806392aeb53a146101175780639dcb511a1461012a575b600080fd5b6067546100cc906001600160a01b031681565b6040516001600160a01b0390911681526020015b60405180910390f35b6100fc6100f7366004610a61565b6101c8565b005b6100fc610232565b6033546001600160a01b03166100cc565b6100fc610125366004610b64565b610246565b6100cc610138366004610a61565b6066602052600090815260409020546001600160a01b031681565b610166610161366004610a61565b610366565b6040519081526020016100e0565b6100fc610182366004610a61565b610377565b6065546100cc906001600160a01b031681565b6100fc6101a8366004610a61565b6104a0565b6100fc610519565b6101666101c3366004610a61565b61062d565b6101d0610761565b606580546001600160a01b038381166001600160a01b031983168117909355604080519190921680825260208201939093527fb3d55174552271a4f1aaf36b72f50381e892171636b3fb5447fe00e995e7a37b91015b60405180910390a15050565b61023a610761565b61024460006107bb565b565b61024e610761565b60008251118015610260575080518251145b6102d75760405162461bcd60e51b815260206004820152603860248201527f4c656e67746873206f6620626f746820617272617973206d757374206265206560448201527f7175616c20616e642067726561746572207468616e20302e000000000000000060648201526084015b60405180910390fd5b60005b82518110156103615760008382815181106102f7576102f7610c26565b6020026020010151905082828151811061031357610313610c26565b6020908102919091018101516001600160a01b0392831660009081526066909252604090912080546001600160a01b031916929091169190911790558061035981610c52565b9150506102da565b505050565b60006103718261080d565b92915050565b600054610100900460ff16158080156103975750600054600160ff909116105b806103b15750303b1580156103b1575060005460ff166001145b6104145760405162461bcd60e51b815260206004820152602e60248201527f496e697469616c697a61626c653a20636f6e747261637420697320616c72656160448201526d191e481a5b9a5d1a585b1a5e995960921b60648201526084016102ce565b6000805460ff191660011790558015610437576000805461ff0019166101001790555b61043f6109c8565b606780546001600160a01b0319166001600160a01b038416179055801561049c576000805461ff0019169055604051600181527f7f26b83ff96e1f2b6a682f133852f6798a09c465da95921460cefb384740249890602001610226565b5050565b6104a8610761565b6001600160a01b03811661050d5760405162461bcd60e51b815260206004820152602660248201527f4f776e61626c653a206e6577206f776e657220697320746865207a65726f206160448201526564647265737360d01b60648201526084016102ce565b610516816107bb565b50565b6065546001600160a01b0316331461056b5760405162461bcd60e51b81526020600482015260156024820152743737ba103a3432903832b73234b7339037bbb732b960591b60448201526064016102ce565b600061057f6033546001600160a01b031690565b6065549091506001600160a01b0316610597816107bb565b606580546001600160a01b0319169055604080516001600160a01b0384168152600060208201527f70aea8d848e8a90fb7661b227dc522eb6395c3dac71b63cb59edd5c9899b2364910160405180910390a1606554604080516001600160a01b03808516825290921660208301527fb3d55174552271a4f1aaf36b72f50381e892171636b3fb5447fe00e995e7a37b9101610226565b600080826001600160a01b0316636f307dc36040518163ffffffff1660e01b8152600401602060405180830381865afa15801561066e573d6000803e3d6000fd5b505050506040513d601f19601f820116820180604052508101906106929190610c6d565b9050600061069f8261080d565b90506000826001600160a01b031663313ce5676040518163ffffffff1660e01b8152600401602060405180830381865afa1580156106e1573d6000803e3d6000fd5b505050506040513d601f19601f820116820180604052508101906107059190610c8a565b60ff16905060128111156107385761071e601282610cad565b61072990600a610da8565b6107339083610db4565b610758565b610743816012610cad565b61074e90600a610da8565b6107589083610dd6565b95945050505050565b6033546001600160a01b031633146102445760405162461bcd60e51b815260206004820181905260248201527f4f776e61626c653a2063616c6c6572206973206e6f7420746865206f776e657260448201526064016102ce565b603380546001600160a01b038381166001600160a01b0319831681179093556040519116919082907f8be0079c531659141344cd1fd0a4f28419497f9722a3daafe3b4186f6b6457e090600090a35050565b6001600160a01b03808216600090815260666020526040812054909116806108945760405162461bcd60e51b815260206004820152603460248201527f4e6f207072696365206665656420666f756e6420666f72207468697320756e6460448201527332b9363cb4b7339022a9219918103a37b5b2b71760611b60648201526084016102ce565b6040516340ca7f4f60e11b81526001600160a01b03848116600483015260009190831690638194fe9e90602401602060405180830381865afa1580156108de573d6000803e3d6000fd5b505050506040513d601f19601f820116820180604052508101906109029190610df5565b90506000826001600160a01b03166327624b076040518163ffffffff1660e01b8152600401602060405180830381865afa158015610944573d6000803e3d6000fd5b505050506040513d601f19601f820116820180604052508101906109689190610c8a565b905060128160ff16111561099f57610981601282610e1e565b61098c90600a610e41565b610733906001600160701b038416610dd6565b6109aa816012610e1e565b6109b590600a610e41565b610758906001600160701b038416610dd6565b600054610100900460ff166109ef5760405162461bcd60e51b81526004016102ce90610e50565b610244600054610100900460ff16610a195760405162461bcd60e51b81526004016102ce90610e50565b610244600054610100900460ff16610a435760405162461bcd60e51b81526004016102ce90610e50565b610244336107bb565b6001600160a01b038116811461051657600080fd5b600060208284031215610a7357600080fd5b8135610a7e81610a4c565b9392505050565b634e487b7160e01b600052604160045260246000fd5b604051601f8201601f1916810167ffffffffffffffff81118282101715610ac457610ac4610a85565b604052919050565b600067ffffffffffffffff821115610ae657610ae6610a85565b5060051b60200190565b600082601f830112610b0157600080fd5b81356020610b16610b1183610acc565b610a9b565b82815260059290921b84018101918181019086841115610b3557600080fd5b8286015b84811015610b59578035610b4c81610a4c565b8352918301918301610b39565b509695505050505050565b60008060408385031215610b7757600080fd5b823567ffffffffffffffff80821115610b8f57600080fd5b818501915085601f830112610ba357600080fd5b81356020610bb3610b1183610acc565b82815260059290921b84018101918181019089841115610bd257600080fd5b948201945b83861015610bf9578535610bea81610a4c565b82529482019490820190610bd7565b96505086013592505080821115610c0f57600080fd5b50610c1c85828601610af0565b9150509250929050565b634e487b7160e01b600052603260045260246000fd5b634e487b7160e01b600052601160045260246000fd5b6000600019821415610c6657610c66610c3c565b5060010190565b600060208284031215610c7f57600080fd5b8151610a7e81610a4c565b600060208284031215610c9c57600080fd5b815160ff81168114610a7e57600080fd5b600082821015610cbf57610cbf610c3c565b500390565b600181815b80851115610cff578160001904821115610ce557610ce5610c3c565b80851615610cf257918102915b93841c9390800290610cc9565b509250929050565b600082610d1657506001610371565b81610d2357506000610371565b8160018114610d395760028114610d4357610d5f565b6001915050610371565b60ff841115610d5457610d54610c3c565b50506001821b610371565b5060208310610133831016604e8410600b8410161715610d82575081810a610371565b610d8c8383610cc4565b8060001904821115610da057610da0610c3c565b029392505050565b6000610a7e8383610d07565b600082610dd157634e487b7160e01b600052601260045260246000fd5b500490565b6000816000190483118215151615610df057610df0610c3c565b500290565b600060208284031215610e0757600080fd5b81516001600160701b0381168114610a7e57600080fd5b600060ff821660ff841680821015610e3857610e38610c3c565b90039392505050565b6000610a7e60ff841683610d07565b6020808252602b908201527f496e697469616c697a61626c653a20636f6e7472616374206973206e6f74206960408201526a6e697469616c697a696e6760a81b60608201526080019056fea164736f6c634300080a000a",
    "linkReferences": {}
  },
  "methodIdentifiers": {
    "NATIVE_TOKEN_USD_PRICE_FEED()": "3a750685",
    "_acceptOwner()": "fc4d33f9",
    "_setPendingOwner(address)": "6e96dfd7",
    "getUnderlyingPrice(address)": "fc57d4df",
    "initialize(address)": "c4d66de8",
    "owner()": "8da5cb5b",
    "pendingOwner()": "e30c3978",
    "price(address)": "aea91078",
    "priceFeeds(address)": "9dcb511a",
    "renounceOwnership()": "715018a6",
    "setPriceFeeds(address[],address[])": "92aeb53a",
    "transferOwnership(address)": "f2fde38b"
  }
}