{
  "address": "0x0dCBf3654e99BDAbfB9C0fBd3467677A6a386958",
  "abi": [
    {
      "anonymous": false,
      "inputs": [
        {
          "indexed": false,
          "internalType": "uint8",
          "name": "version",
          "type": "uint8"
        }
      ],
      "name": "Initialized",
      "type": "event"
    },
    {
      "anonymous": false,
      "inputs": [
        {
          "indexed": false,
          "internalType": "address",
          "name": "oldOwner",
          "type": "address"
        },
        {
          "indexed": false,
          "internalType": "address",
          "name": "newOwner",
          "type": "address"
        }
      ],
      "name": "NewOwner",
      "type": "event"
    },
    {
      "anonymous": false,
      "inputs": [
        {
          "indexed": false,
          "internalType": "address",
          "name": "oldPendingOwner",
          "type": "address"
        },
        {
          "indexed": false,
          "internalType": "address",
          "name": "newPendingOwner",
          "type": "address"
        }
      ],
      "name": "NewPendingOwner",
      "type": "event"
    },
    {
      "anonymous": false,
      "inputs": [
        {
          "indexed": true,
          "internalType": "address",
          "name": "previousOwner",
          "type": "address"
        },
        {
          "indexed": true,
          "internalType": "address",
          "name": "newOwner",
          "type": "address"
        }
      ],
      "name": "OwnershipTransferred",
      "type": "event"
    },
    {
      "inputs": [],
      "name": "NATIVE_TOKEN_USD_PRICE_FEED",
      "outputs": [
        {
          "internalType": "contract NativeUSDPriceOracle",
          "name": "",
          "type": "address"
        }
      ],
      "stateMutability": "view",
      "type": "function"
    },
    {
      "inputs": [],
      "name": "_acceptOwner",
      "outputs": [],
      "stateMutability": "nonpayable",
      "type": "function"
    },
    {
      "inputs": [
        {
          "internalType": "address",
          "name": "newPendingOwner",
          "type": "address"
        }
      ],
      "name": "_setPendingOwner",
      "outputs": [],
      "stateMutability": "nonpayable",
      "type": "function"
    },
    {
      "inputs": [
        {
          "internalType": "contract ICToken",
          "name": "cToken",
          "type": "address"
        }
      ],
      "name": "getUnderlyingPrice",
      "outputs": [
        {
          "internalType": "uint256",
          "name": "",
          "type": "uint256"
        }
      ],
      "stateMutability": "view",
      "type": "function"
    },
    {
      "inputs": [
        {
          "internalType": "contract NativeUSDPriceOracle",
          "name": "nativeUsdPriceFeed",
          "type": "address"
        }
      ],
      "name": "initialize",
      "outputs": [],
      "stateMutability": "nonpayable",
      "type": "function"
    },
    {
      "inputs": [],
      "name": "owner",
      "outputs": [
        {
          "internalType": "address",
          "name": "",
          "type": "address"
        }
      ],
      "stateMutability": "view",
      "type": "function"
    },
    {
      "inputs": [],
      "name": "pendingOwner",
      "outputs": [
        {
          "internalType": "address",
          "name": "",
          "type": "address"
        }
      ],
      "stateMutability": "view",
      "type": "function"
    },
    {
      "inputs": [
        {
          "internalType": "address",
          "name": "underlying",
          "type": "address"
        }
      ],
      "name": "price",
      "outputs": [
        {
          "internalType": "uint256",
          "name": "",
          "type": "uint256"
        }
      ],
      "stateMutability": "view",
      "type": "function"
    },
    {
      "inputs": [
        {
          "internalType": "address",
          "name": "",
          "type": "address"
        }
      ],
      "name": "priceFeeds",
      "outputs": [
        {
          "internalType": "contract IPriceOracle",
          "name": "",
          "type": "address"
        }
      ],
      "stateMutability": "view",
      "type": "function"
    },
    {
      "inputs": [],
      "name": "renounceOwnership",
      "outputs": [],
      "stateMutability": "nonpayable",
      "type": "function"
    },
    {
      "inputs": [
        {
          "internalType": "address[]",
          "name": "underlyings",
          "type": "address[]"
        },
        {
          "internalType": "contract IPriceOracle[]",
          "name": "feeds",
          "type": "address[]"
        }
      ],
      "name": "setPriceFeeds",
      "outputs": [],
      "stateMutability": "nonpayable",
      "type": "function"
    },
    {
      "inputs": [
        {
          "internalType": "address",
          "name": "newOwner",
          "type": "address"
        }
      ],
      "name": "transferOwnership",
      "outputs": [],
      "stateMutability": "nonpayable",
      "type": "function"
    }
  ],
  "transactionHash": "0x5c0255c53aeb6587a7091aa52300dfc1210ac51cbe6902d11848a48fd59cf63e",
  "args": [],
  "numDeployments": 2,
  "bytecode": {
    "object": "0x608060405234801561001057600080fd5b50610e68806100206000396000f3fe608060405234801561001057600080fd5b50600436106100b45760003560e01c8063aea9107811610071578063aea9107814610153578063c4d66de814610174578063e30c397814610187578063f2fde38b1461019a578063fc4d33f9146101ad578063fc57d4df146101b557600080fd5b80633a750685146100b95780636e96dfd7146100e9578063715018a6146100fe5780638da5cb5b1461010657806392aeb53a146101175780639dcb511a1461012a575b600080fd5b6067546100cc906001600160a01b031681565b6040516001600160a01b0390911681526020015b60405180910390f35b6100fc6100f7366004610a21565b6101c8565b005b6100fc610232565b6033546001600160a01b03166100cc565b6100fc610125366004610b24565b61027a565b6100cc610138366004610a21565b6066602052600090815260409020546001600160a01b031681565b610166610161366004610a21565b610395565b6040519081526020016100e0565b6100fc610182366004610a21565b6103a6565b6065546100cc906001600160a01b031681565b6100fc6101a8366004610a21565b610232565b6100fc6104cf565b6101666101c3366004610a21565b6105e3565b6101d0610717565b606580546001600160a01b038381166001600160a01b031983168117909355604080519190921680825260208201939093527fb3d55174552271a4f1aaf36b72f50381e892171636b3fb5447fe00e995e7a37b91015b60405180910390a15050565b61023a610717565b60405162461bcd60e51b815260206004820152601060248201526f6e6f74207573656420616e796d6f726560801b60448201526064015b60405180910390fd5b610282610717565b60008251118015610294575080518251145b6103065760405162461bcd60e51b815260206004820152603860248201527f4c656e67746873206f6620626f746820617272617973206d757374206265206560448201527f7175616c20616e642067726561746572207468616e20302e00000000000000006064820152608401610271565b60005b825181101561039057600083828151811061032657610326610be6565b6020026020010151905082828151811061034257610342610be6565b6020908102919091018101516001600160a01b0392831660009081526066909252604090912080546001600160a01b031916929091169190911790558061038881610c12565b915050610309565b505050565b60006103a082610773565b92915050565b600054610100900460ff16158080156103c65750600054600160ff909116105b806103e05750303b1580156103e0575060005460ff166001145b6104435760405162461bcd60e51b815260206004820152602e60248201527f496e697469616c697a61626c653a20636f6e747261637420697320616c72656160448201526d191e481a5b9a5d1a585b1a5e995960921b6064820152608401610271565b6000805460ff191660011790558015610466576000805461ff0019166101001790555b61046e61092e565b606780546001600160a01b0319166001600160a01b03841617905580156104cb576000805461ff0019169055604051600181527f7f26b83ff96e1f2b6a682f133852f6798a09c465da95921460cefb384740249890602001610226565b5050565b6065546001600160a01b031633146105215760405162461bcd60e51b81526020600482015260156024820152743737ba103a3432903832b73234b7339037bbb732b960591b6044820152606401610271565b60006105356033546001600160a01b031690565b6065549091506001600160a01b031661054d8161095d565b606580546001600160a01b0319169055604080516001600160a01b0384168152600060208201527f70aea8d848e8a90fb7661b227dc522eb6395c3dac71b63cb59edd5c9899b2364910160405180910390a1606554604080516001600160a01b03808516825290921660208301527fb3d55174552271a4f1aaf36b72f50381e892171636b3fb5447fe00e995e7a37b9101610226565b600080826001600160a01b0316636f307dc36040518163ffffffff1660e01b8152600401602060405180830381865afa158015610624573d6000803e3d6000fd5b505050506040513d601f19601f820116820180604052508101906106489190610c2d565b9050600061065582610773565b90506000826001600160a01b031663313ce5676040518163ffffffff1660e01b8152600401602060405180830381865afa158015610697573d6000803e3d6000fd5b505050506040513d601f19601f820116820180604052508101906106bb9190610c4a565b60ff16905060128111156106ee576106d4601282610c6d565b6106df90600a610d68565b6106e99083610d74565b61070e565b6106f9816012610c6d565b61070490600a610d68565b61070e9083610d96565b95945050505050565b6033546001600160a01b031633146107715760405162461bcd60e51b815260206004820181905260248201527f4f776e61626c653a2063616c6c6572206973206e6f7420746865206f776e65726044820152606401610271565b565b6001600160a01b03808216600090815260666020526040812054909116806107fa5760405162461bcd60e51b815260206004820152603460248201527f4e6f207072696365206665656420666f756e6420666f72207468697320756e6460448201527332b9363cb4b7339022a9219918103a37b5b2b71760611b6064820152608401610271565b6040516340ca7f4f60e11b81526001600160a01b03848116600483015260009190831690638194fe9e90602401602060405180830381865afa158015610844573d6000803e3d6000fd5b505050506040513d601f19601f820116820180604052508101906108689190610db5565b90506000826001600160a01b03166327624b076040518163ffffffff1660e01b8152600401602060405180830381865afa1580156108aa573d6000803e3d6000fd5b505050506040513d601f19601f820116820180604052508101906108ce9190610c4a565b905060128160ff161115610905576108e7601282610dde565b6108f290600a610e01565b6106e9906001600160701b038416610d74565b610910816012610dde565b61091b90600a610e01565b61070e906001600160701b038416610d96565b600054610100900460ff166109555760405162461bcd60e51b815260040161027190610e10565b6107716109af565b603380546001600160a01b038381166001600160a01b0319831681179093556040519116919082907f8be0079c531659141344cd1fd0a4f28419497f9722a3daafe3b4186f6b6457e090600090a35050565b600054610100900460ff166109d65760405162461bcd60e51b815260040161027190610e10565b610771600054610100900460ff16610a005760405162461bcd60e51b815260040161027190610e10565b6107713361095d565b6001600160a01b0381168114610a1e57600080fd5b50565b600060208284031215610a3357600080fd5b8135610a3e81610a09565b9392505050565b634e487b7160e01b600052604160045260246000fd5b604051601f8201601f1916810167ffffffffffffffff81118282101715610a8457610a84610a45565b604052919050565b600067ffffffffffffffff821115610aa657610aa6610a45565b5060051b60200190565b600082601f830112610ac157600080fd5b81356020610ad6610ad183610a8c565b610a5b565b82815260059290921b84018101918181019086841115610af557600080fd5b8286015b84811015610b19578035610b0c81610a09565b8352918301918301610af9565b509695505050505050565b60008060408385031215610b3757600080fd5b823567ffffffffffffffff80821115610b4f57600080fd5b818501915085601f830112610b6357600080fd5b81356020610b73610ad183610a8c565b82815260059290921b84018101918181019089841115610b9257600080fd5b948201945b83861015610bb9578535610baa81610a09565b82529482019490820190610b97565b96505086013592505080821115610bcf57600080fd5b50610bdc85828601610ab0565b9150509250929050565b634e487b7160e01b600052603260045260246000fd5b634e487b7160e01b600052601160045260246000fd5b6000600019821415610c2657610c26610bfc565b5060010190565b600060208284031215610c3f57600080fd5b8151610a3e81610a09565b600060208284031215610c5c57600080fd5b815160ff81168114610a3e57600080fd5b600082821015610c7f57610c7f610bfc565b500390565b600181815b80851115610cbf578160001904821115610ca557610ca5610bfc565b80851615610cb257918102915b93841c9390800290610c89565b509250929050565b600082610cd6575060016103a0565b81610ce3575060006103a0565b8160018114610cf95760028114610d0357610d1f565b60019150506103a0565b60ff841115610d1457610d14610bfc565b50506001821b6103a0565b5060208310610133831016604e8410600b8410161715610d42575081810a6103a0565b610d4c8383610c84565b8060001904821115610d6057610d60610bfc565b029392505050565b6000610a3e8383610cc7565b600082610d9157634e487b7160e01b600052601260045260246000fd5b500490565b6000816000190483118215151615610db057610db0610bfc565b500290565b600060208284031215610dc757600080fd5b81516001600160701b0381168114610a3e57600080fd5b600060ff821660ff841680821015610df857610df8610bfc565b90039392505050565b6000610a3e60ff841683610cc7565b6020808252602b908201527f496e697469616c697a61626c653a20636f6e7472616374206973206e6f74206960408201526a6e697469616c697a696e6760a81b60608201526080019056fea164736f6c634300080a000a",
    "linkReferences": {}
  },
  "methodIdentifiers": {
    "NATIVE_TOKEN_USD_PRICE_FEED()": "3a750685",
    "_acceptOwner()": "fc4d33f9",
    "_setPendingOwner(address)": "6e96dfd7",
    "getUnderlyingPrice(address)": "fc57d4df",
    "initialize(address)": "c4d66de8",
    "owner()": "8da5cb5b",
    "pendingOwner()": "e30c3978",
    "price(address)": "aea91078",
    "priceFeeds(address)": "9dcb511a",
    "renounceOwnership()": "715018a6",
    "setPriceFeeds(address[],address[])": "92aeb53a",
    "transferOwnership(address)": "f2fde38b"
  }
}