{
  "address": "0xC6D57300974368BE5B979e62EA76cab5C6bc3130",
  "abi": [
    {
      "inputs": [
        {
          "internalType": "bytes4",
          "name": "_functionSelector",
          "type": "bytes4"
        }
      ],
      "name": "ExtensionNotFound",
      "type": "error"
    },
    {
      "inputs": [
        {
          "internalType": "bytes4",
          "name": "_functionSelector",
          "type": "bytes4"
        },
        {
          "internalType": "address",
          "name": "_currentImpl",
          "type": "address"
        }
      ],
      "name": "FunctionAlreadyAdded",
      "type": "error"
    },
    {
      "inputs": [
        {
          "internalType": "bytes4",
          "name": "_functionSelector",
          "type": "bytes4"
        }
      ],
      "name": "FunctionNotFound",
      "type": "error"
    },
    {
      "anonymous": false,
      "inputs": [
        {
          "indexed": false,
          "internalType": "address",
          "name": "borrower",
          "type": "address"
        },
        {
          "indexed": false,
          "internalType": "uint256",
          "name": "borrowAmount",
          "type": "uint256"
        },
        {
          "indexed": false,
          "internalType": "uint256",
          "name": "accountBorrows",
          "type": "uint256"
        },
        {
          "indexed": false,
          "internalType": "uint256",
          "name": "totalBorrows",
          "type": "uint256"
        }
      ],
      "name": "Borrow",
      "type": "event"
    },
    {
      "anonymous": false,
      "inputs": [
        {
          "indexed": false,
          "internalType": "uint256",
          "name": "error",
          "type": "uint256"
        },
        {
          "indexed": false,
          "internalType": "uint256",
          "name": "info",
          "type": "uint256"
        },
        {
          "indexed": false,
          "internalType": "uint256",
          "name": "detail",
          "type": "uint256"
        }
      ],
      "name": "Failure",
      "type": "event"
    },
    {
      "anonymous": false,
      "inputs": [
        {
          "indexed": false,
          "internalType": "address",
          "name": "liquidator",
          "type": "address"
        },
        {
          "indexed": false,
          "internalType": "address",
          "name": "borrower",
          "type": "address"
        },
        {
          "indexed": false,
          "internalType": "uint256",
          "name": "repayAmount",
          "type": "uint256"
        },
        {
          "indexed": false,
          "internalType": "address",
          "name": "cTokenCollateral",
          "type": "address"
        },
        {
          "indexed": false,
          "internalType": "uint256",
          "name": "seizeTokens",
          "type": "uint256"
        }
      ],
      "name": "LiquidateBorrow",
      "type": "event"
    },
    {
      "anonymous": false,
      "inputs": [
        {
          "indexed": false,
          "internalType": "address",
          "name": "minter",
          "type": "address"
        },
        {
          "indexed": false,
          "internalType": "uint256",
          "name": "mintAmount",
          "type": "uint256"
        },
        {
          "indexed": false,
          "internalType": "uint256",
          "name": "mintTokens",
          "type": "uint256"
        }
      ],
      "name": "Mint",
      "type": "event"
    },
    {
      "anonymous": false,
      "inputs": [
        {
          "indexed": false,
          "internalType": "uint256",
          "name": "oldAdminFeeMantissa",
          "type": "uint256"
        },
        {
          "indexed": false,
          "internalType": "uint256",
          "name": "newAdminFeeMantissa",
          "type": "uint256"
        }
      ],
      "name": "NewAdminFee",
      "type": "event"
    },
    {
      "anonymous": false,
      "inputs": [
        {
          "indexed": false,
          "internalType": "uint256",
          "name": "oldFuseFeeMantissa",
          "type": "uint256"
        },
        {
          "indexed": false,
          "internalType": "uint256",
          "name": "newFuseFeeMantissa",
          "type": "uint256"
        }
      ],
      "name": "NewFuseFee",
      "type": "event"
    },
    {
      "anonymous": false,
      "inputs": [
        {
          "indexed": false,
          "internalType": "address",
          "name": "oldImplementation",
          "type": "address"
        },
        {
          "indexed": false,
          "internalType": "address",
          "name": "newImplementation",
          "type": "address"
        }
      ],
      "name": "NewImplementation",
      "type": "event"
    },
    {
      "anonymous": false,
      "inputs": [
        {
          "indexed": false,
          "internalType": "contract InterestRateModel",
          "name": "oldInterestRateModel",
          "type": "address"
        },
        {
          "indexed": false,
          "internalType": "contract InterestRateModel",
          "name": "newInterestRateModel",
          "type": "address"
        }
      ],
      "name": "NewMarketInterestRateModel",
      "type": "event"
    },
    {
      "anonymous": false,
      "inputs": [
        {
          "indexed": false,
          "internalType": "address",
          "name": "oldImpl",
          "type": "address"
        },
        {
          "indexed": false,
          "internalType": "address",
          "name": "newImpl",
          "type": "address"
        }
      ],
      "name": "NewPluginImplementation",
      "type": "event"
    },
    {
      "anonymous": false,
      "inputs": [
        {
          "indexed": false,
          "internalType": "uint256",
          "name": "oldReserveFactorMantissa",
          "type": "uint256"
        },
        {
          "indexed": false,
          "internalType": "uint256",
          "name": "newReserveFactorMantissa",
          "type": "uint256"
        }
      ],
      "name": "NewReserveFactor",
      "type": "event"
    },
    {
      "anonymous": false,
      "inputs": [
        {
          "indexed": false,
          "internalType": "address",
          "name": "redeemer",
          "type": "address"
        },
        {
          "indexed": false,
          "internalType": "uint256",
          "name": "redeemAmount",
          "type": "uint256"
        },
        {
          "indexed": false,
          "internalType": "uint256",
          "name": "redeemTokens",
          "type": "uint256"
        }
      ],
      "name": "Redeem",
      "type": "event"
    },
    {
      "anonymous": false,
      "inputs": [
        {
          "indexed": false,
          "internalType": "address",
          "name": "payer",
          "type": "address"
        },
        {
          "indexed": false,
          "internalType": "address",
          "name": "borrower",
          "type": "address"
        },
        {
          "indexed": false,
          "internalType": "uint256",
          "name": "repayAmount",
          "type": "uint256"
        },
        {
          "indexed": false,
          "internalType": "uint256",
          "name": "accountBorrows",
          "type": "uint256"
        },
        {
          "indexed": false,
          "internalType": "uint256",
          "name": "totalBorrows",
          "type": "uint256"
        }
      ],
      "name": "RepayBorrow",
      "type": "event"
    },
    {
      "anonymous": false,
      "inputs": [
        {
          "indexed": false,
          "internalType": "address",
          "name": "benefactor",
          "type": "address"
        },
        {
          "indexed": false,
          "internalType": "uint256",
          "name": "addAmount",
          "type": "uint256"
        },
        {
          "indexed": false,
          "internalType": "uint256",
          "name": "newTotalReserves",
          "type": "uint256"
        }
      ],
      "name": "ReservesAdded",
      "type": "event"
    },
    {
      "anonymous": false,
      "inputs": [
        {
          "indexed": false,
          "internalType": "address",
          "name": "admin",
          "type": "address"
        },
        {
          "indexed": false,
          "internalType": "uint256",
          "name": "reduceAmount",
          "type": "uint256"
        },
        {
          "indexed": false,
          "internalType": "uint256",
          "name": "newTotalReserves",
          "type": "uint256"
        }
      ],
      "name": "ReservesReduced",
      "type": "event"
    },
    {
      "anonymous": false,
      "inputs": [
        {
          "indexed": true,
          "internalType": "address",
          "name": "from",
          "type": "address"
        },
        {
          "indexed": true,
          "internalType": "address",
          "name": "to",
          "type": "address"
        },
        {
          "indexed": false,
          "internalType": "uint256",
          "name": "amount",
          "type": "uint256"
        }
      ],
      "name": "Transfer",
      "type": "event"
    },
    {
      "stateMutability": "nonpayable",
      "type": "fallback"
    },
    {
      "inputs": [
        {
          "internalType": "bytes",
          "name": "data",
          "type": "bytes"
        }
      ],
      "name": "_becomeImplementation",
      "outputs": [],
      "stateMutability": "nonpayable",
      "type": "function"
    },
    {
      "inputs": [],
      "name": "_listExtensions",
      "outputs": [
        {
          "internalType": "address[]",
          "name": "",
          "type": "address[]"
        }
      ],
      "stateMutability": "view",
      "type": "function"
    },
    {
      "inputs": [],
      "name": "_prepare",
      "outputs": [],
      "stateMutability": "payable",
      "type": "function"
    },
    {
      "inputs": [
        {
          "internalType": "contract DiamondExtension",
          "name": "extensionToAdd",
          "type": "address"
        },
        {
          "internalType": "contract DiamondExtension",
          "name": "extensionToReplace",
          "type": "address"
        }
      ],
      "name": "_registerExtension",
      "outputs": [],
      "stateMutability": "nonpayable",
      "type": "function"
    },
    {
      "inputs": [
        {
          "internalType": "address",
          "name": "implementation_",
          "type": "address"
        },
        {
          "internalType": "bool",
          "name": "allowResign",
          "type": "bool"
        },
        {
          "internalType": "bytes",
          "name": "becomeImplementationData",
          "type": "bytes"
        }
      ],
      "name": "_setImplementationSafe",
      "outputs": [],
      "stateMutability": "nonpayable",
      "type": "function"
    },
    {
      "inputs": [
        {
          "internalType": "address",
          "name": "_plugin",
          "type": "address"
        }
      ],
      "name": "_updatePlugin",
      "outputs": [],
      "stateMutability": "nonpayable",
      "type": "function"
    },
    {
      "inputs": [
        {
          "internalType": "uint256",
          "name": "withdrawAmount",
          "type": "uint256"
        }
      ],
      "name": "_withdrawAdminFees",
      "outputs": [
        {
          "internalType": "uint256",
          "name": "",
          "type": "uint256"
        }
      ],
      "stateMutability": "nonpayable",
      "type": "function"
    },
    {
      "inputs": [
        {
          "internalType": "uint256",
          "name": "withdrawAmount",
          "type": "uint256"
        }
      ],
      "name": "_withdrawFuseFees",
      "outputs": [
        {
          "internalType": "uint256",
          "name": "",
          "type": "uint256"
        }
      ],
      "stateMutability": "nonpayable",
      "type": "function"
    },
    {
      "inputs": [],
      "name": "accrualBlockNumber",
      "outputs": [
        {
          "internalType": "uint256",
          "name": "",
          "type": "uint256"
        }
      ],
      "stateMutability": "view",
      "type": "function"
    },
    {
      "inputs": [],
      "name": "adminFeeMantissa",
      "outputs": [
        {
          "internalType": "uint256",
          "name": "",
          "type": "uint256"
        }
      ],
      "stateMutability": "view",
      "type": "function"
    },
    {
      "inputs": [],
      "name": "asCTokenExtensionInterface",
      "outputs": [
        {
          "internalType": "contract CTokenExtensionInterface",
          "name": "",
          "type": "address"
        }
      ],
      "stateMutability": "view",
      "type": "function"
    },
    {
      "inputs": [
        {
          "internalType": "uint256",
          "name": "borrowAmount",
          "type": "uint256"
        }
      ],
      "name": "borrow",
      "outputs": [
        {
          "internalType": "uint256",
          "name": "",
          "type": "uint256"
        }
      ],
      "stateMutability": "nonpayable",
      "type": "function"
    },
    {
      "inputs": [
        {
          "internalType": "address",
          "name": "account",
          "type": "address"
        }
      ],
      "name": "borrowBalanceCurrent",
      "outputs": [
        {
          "internalType": "uint256",
          "name": "",
          "type": "uint256"
        }
      ],
      "stateMutability": "nonpayable",
      "type": "function"
    },
    {
      "inputs": [
        {
          "internalType": "address",
          "name": "account",
          "type": "address"
        }
      ],
      "name": "borrowBalanceStored",
      "outputs": [
        {
          "internalType": "uint256",
          "name": "",
          "type": "uint256"
        }
      ],
      "stateMutability": "view",
      "type": "function"
    },
    {
      "inputs": [],
      "name": "borrowIndex",
      "outputs": [
        {
          "internalType": "uint256",
          "name": "",
          "type": "uint256"
        }
      ],
      "stateMutability": "view",
      "type": "function"
    },
    {
      "inputs": [],
      "name": "comptroller",
      "outputs": [
        {
          "internalType": "contract ComptrollerInterface",
          "name": "",
          "type": "address"
        }
      ],
      "stateMutability": "view",
      "type": "function"
    },
    {
      "inputs": [],
      "name": "contractType",
      "outputs": [
        {
          "internalType": "string",
          "name": "",
          "type": "string"
        }
      ],
      "stateMutability": "pure",
      "type": "function"
    },
    {
      "inputs": [],
      "name": "decimals",
      "outputs": [
        {
          "internalType": "uint8",
          "name": "",
          "type": "uint8"
        }
      ],
      "stateMutability": "view",
      "type": "function"
    },
    {
      "inputs": [],
      "name": "feeSeizeShareMantissa",
      "outputs": [
        {
          "internalType": "uint256",
          "name": "",
          "type": "uint256"
        }
      ],
      "stateMutability": "view",
      "type": "function"
    },
    {
      "inputs": [],
      "name": "fuseAdmin",
      "outputs": [
        {
          "internalType": "address payable",
          "name": "",
          "type": "address"
        }
      ],
      "stateMutability": "view",
      "type": "function"
    },
    {
      "inputs": [],
      "name": "fuseFeeMantissa",
      "outputs": [
        {
          "internalType": "uint256",
          "name": "",
          "type": "uint256"
        }
      ],
      "stateMutability": "view",
      "type": "function"
    },
    {
      "inputs": [
        {
          "internalType": "address",
          "name": "account",
          "type": "address"
        }
      ],
      "name": "getAccountSnapshot",
      "outputs": [
        {
          "internalType": "uint256",
          "name": "",
          "type": "uint256"
        },
        {
          "internalType": "uint256",
          "name": "",
          "type": "uint256"
        },
        {
          "internalType": "uint256",
          "name": "",
          "type": "uint256"
        },
        {
          "internalType": "uint256",
          "name": "",
          "type": "uint256"
        }
      ],
      "stateMutability": "view",
      "type": "function"
    },
    {
      "inputs": [],
      "name": "getCash",
      "outputs": [
        {
          "internalType": "uint256",
          "name": "",
          "type": "uint256"
        }
      ],
      "stateMutability": "view",
      "type": "function"
    },
    {
      "inputs": [],
      "name": "implementation",
      "outputs": [
        {
          "internalType": "address",
          "name": "",
          "type": "address"
        }
      ],
      "stateMutability": "view",
      "type": "function"
    },
    {
      "inputs": [
        {
          "internalType": "address",
          "name": "underlying_",
          "type": "address"
        },
        {
          "internalType": "contract ComptrollerInterface",
          "name": "comptroller_",
          "type": "address"
        },
        {
          "internalType": "address payable",
          "name": "fuseAdmin_",
          "type": "address"
        },
        {
          "internalType": "contract InterestRateModel",
          "name": "interestRateModel_",
          "type": "address"
        },
        {
          "internalType": "string",
          "name": "name_",
          "type": "string"
        },
        {
          "internalType": "string",
          "name": "symbol_",
          "type": "string"
        },
        {
          "internalType": "uint256",
          "name": "reserveFactorMantissa_",
          "type": "uint256"
        },
        {
          "internalType": "uint256",
          "name": "adminFeeMantissa_",
          "type": "uint256"
        }
      ],
      "name": "initialize",
      "outputs": [],
      "stateMutability": "nonpayable",
      "type": "function"
    },
    {
      "inputs": [
        {
          "internalType": "contract ComptrollerInterface",
          "name": "comptroller_",
          "type": "address"
        },
        {
          "internalType": "address payable",
          "name": "fuseAdmin_",
          "type": "address"
        },
        {
          "internalType": "contract InterestRateModel",
          "name": "interestRateModel_",
          "type": "address"
        },
        {
          "internalType": "uint256",
          "name": "initialExchangeRateMantissa_",
          "type": "uint256"
        },
        {
          "internalType": "string",
          "name": "name_",
          "type": "string"
        },
        {
          "internalType": "string",
          "name": "symbol_",
          "type": "string"
        },
        {
          "internalType": "uint8",
          "name": "decimals_",
          "type": "uint8"
        },
        {
          "internalType": "uint256",
          "name": "reserveFactorMantissa_",
          "type": "uint256"
        },
        {
          "internalType": "uint256",
          "name": "adminFeeMantissa_",
          "type": "uint256"
        }
      ],
      "name": "initialize",
      "outputs": [],
      "stateMutability": "nonpayable",
      "type": "function"
    },
    {
      "inputs": [],
      "name": "interestRateModel",
      "outputs": [
        {
          "internalType": "contract InterestRateModel",
          "name": "",
          "type": "address"
        }
      ],
      "stateMutability": "view",
      "type": "function"
    },
    {
      "inputs": [],
      "name": "isCEther",
      "outputs": [
        {
          "internalType": "bool",
          "name": "",
          "type": "bool"
        }
      ],
      "stateMutability": "nonpayable",
      "type": "function"
    },
    {
      "inputs": [],
      "name": "isCToken",
      "outputs": [
        {
          "internalType": "bool",
          "name": "",
          "type": "bool"
        }
      ],
      "stateMutability": "nonpayable",
      "type": "function"
    },
    {
      "inputs": [
        {
          "internalType": "address",
          "name": "borrower",
          "type": "address"
        },
        {
          "internalType": "uint256",
          "name": "repayAmount",
          "type": "uint256"
        },
        {
          "internalType": "contract CTokenInterface",
          "name": "cTokenCollateral",
          "type": "address"
        }
      ],
      "name": "liquidateBorrow",
      "outputs": [
        {
          "internalType": "uint256",
          "name": "",
          "type": "uint256"
        }
      ],
      "stateMutability": "nonpayable",
      "type": "function"
    },
    {
      "inputs": [
        {
          "internalType": "uint256",
          "name": "mintAmount",
          "type": "uint256"
        }
      ],
      "name": "mint",
      "outputs": [
        {
          "internalType": "uint256",
          "name": "",
          "type": "uint256"
        }
      ],
      "stateMutability": "nonpayable",
      "type": "function"
    },
    {
      "inputs": [],
      "name": "name",
      "outputs": [
        {
          "internalType": "string",
          "name": "",
          "type": "string"
        }
      ],
      "stateMutability": "view",
      "type": "function"
    },
    {
      "inputs": [],
      "name": "plugin",
      "outputs": [
        {
          "internalType": "contract IERC4626",
          "name": "",
          "type": "address"
        }
      ],
      "stateMutability": "view",
      "type": "function"
    },
    {
      "inputs": [],
      "name": "protocolSeizeShareMantissa",
      "outputs": [
        {
          "internalType": "uint256",
          "name": "",
          "type": "uint256"
        }
      ],
      "stateMutability": "view",
      "type": "function"
    },
    {
      "inputs": [
        {
          "internalType": "uint256",
          "name": "redeemTokens",
          "type": "uint256"
        }
      ],
      "name": "redeem",
      "outputs": [
        {
          "internalType": "uint256",
          "name": "",
          "type": "uint256"
        }
      ],
      "stateMutability": "nonpayable",
      "type": "function"
    },
    {
      "inputs": [
        {
          "internalType": "uint256",
          "name": "redeemAmount",
          "type": "uint256"
        }
      ],
      "name": "redeemUnderlying",
      "outputs": [
        {
          "internalType": "uint256",
          "name": "",
          "type": "uint256"
        }
      ],
      "stateMutability": "nonpayable",
      "type": "function"
    },
    {
      "inputs": [
        {
          "internalType": "uint256",
          "name": "repayAmount",
          "type": "uint256"
        }
      ],
      "name": "repayBorrow",
      "outputs": [
        {
          "internalType": "uint256",
          "name": "",
          "type": "uint256"
        }
      ],
      "stateMutability": "nonpayable",
      "type": "function"
    },
    {
      "inputs": [
        {
          "internalType": "address",
          "name": "borrower",
          "type": "address"
        },
        {
          "internalType": "uint256",
          "name": "repayAmount",
          "type": "uint256"
        }
      ],
      "name": "repayBorrowBehalf",
      "outputs": [
        {
          "internalType": "uint256",
          "name": "",
          "type": "uint256"
        }
      ],
      "stateMutability": "nonpayable",
      "type": "function"
    },
    {
      "inputs": [],
      "name": "reserveFactorMantissa",
      "outputs": [
        {
          "internalType": "uint256",
          "name": "",
          "type": "uint256"
        }
      ],
      "stateMutability": "view",
      "type": "function"
    },
    {
      "inputs": [
        {
          "internalType": "address",
          "name": "liquidator",
          "type": "address"
        },
        {
          "internalType": "address",
          "name": "borrower",
          "type": "address"
        },
        {
          "internalType": "uint256",
          "name": "seizeTokens",
          "type": "uint256"
        }
      ],
      "name": "seize",
      "outputs": [
        {
          "internalType": "uint256",
          "name": "",
          "type": "uint256"
        }
      ],
      "stateMutability": "nonpayable",
      "type": "function"
    },
    {
      "inputs": [],
      "name": "symbol",
      "outputs": [
        {
          "internalType": "string",
          "name": "",
          "type": "string"
        }
      ],
      "stateMutability": "view",
      "type": "function"
    },
    {
      "inputs": [],
      "name": "totalAdminFees",
      "outputs": [
        {
          "internalType": "uint256",
          "name": "",
          "type": "uint256"
        }
      ],
      "stateMutability": "view",
      "type": "function"
    },
    {
      "inputs": [],
      "name": "totalBorrows",
      "outputs": [
        {
          "internalType": "uint256",
          "name": "",
          "type": "uint256"
        }
      ],
      "stateMutability": "view",
      "type": "function"
    },
    {
      "inputs": [],
      "name": "totalFuseFees",
      "outputs": [
        {
          "internalType": "uint256",
          "name": "",
          "type": "uint256"
        }
      ],
      "stateMutability": "view",
      "type": "function"
    },
    {
      "inputs": [],
      "name": "totalReserves",
      "outputs": [
        {
          "internalType": "uint256",
          "name": "",
          "type": "uint256"
        }
      ],
      "stateMutability": "view",
      "type": "function"
    },
    {
      "inputs": [],
      "name": "totalSupply",
      "outputs": [
        {
          "internalType": "uint256",
          "name": "",
          "type": "uint256"
        }
      ],
      "stateMutability": "view",
      "type": "function"
    },
    {
      "inputs": [],
      "name": "underlying",
      "outputs": [
        {
          "internalType": "address",
          "name": "",
          "type": "address"
        }
      ],
      "stateMutability": "view",
      "type": "function"
    }
  ],
  "transactionHash": "0x2d9864f4d25585ae7a55f37c8a5b52de8b92250c55a461931c6217a8dd858825",
  "args": [],
  "numDeployments": 2,
  "bytecode": {
    "object": "0x608060405234801561001057600080fd5b50615bb280620000216000396000f3fe6080604052600436106102185760003560e01c806306db3ecd146102a057806306fdde03146102c25780630e752702146102ed57806315761d511461031b578063173b99041461034857806317bfdfbc1461035e57806318160ddd1461037e57806319f496c8146103945780631db78944146103b4578063219ef65c146103bc5780632608f818146103dc578063313ce567146103fc5780633b1d21a21461042857806347bd37181461043d57806350d85b731461045357806356e67728146104735780635c60da1b146104935780635fe3b567146104b357806361feacff146104d35780636333d001146104e95780636752e7021461050b5780636c540baf146105265780636f307dc31461053c578063852a12e31461055c57806389cd98551461057c5780638d02d9a11461059c5780638f840ddd146105b257806395d89b41146105c857806395dd9193146105dd5780639f5ef272146105fd578063a03dce8d14610610578063a0712d6814610630578063a7b820df14610650578063aa5af0fd14610670578063ac784ddc14610686578063b2a02ff1146106a6578063be99f119146106c6578063c37f68e2146106e2578063c5ebeaec14610722578063cb2ef6f714610742578063db006a751461077f578063dbfe7c191461079f578063dc028ab1146107b5578063ef01df4f146107cb578063f3fdb15a146107eb578063f5e3c4621461080b578063fe9c44ae1461082b575b34801561022457600080fd5b50600061023c6000356001600160e01b03191661083f565b90506001600160a01b03811661027c576000356001600160e01b031916604051630a82dd7360e31b815260040161027391906150b2565b60405180910390fd5b3660008037600080366000845af43d6000803e80801561029b573d6000f35b3d6000fd5b3480156102ac57600080fd5b506102c06102bb3660046151b7565b610897565b005b3480156102ce57600080fd5b506102d76109a5565b6040516102e491906152d0565b60405180910390f35b3480156102f957600080fd5b5061030d6103083660046152e3565b610a33565b6040519081526020016102e4565b34801561032757600080fd5b5060015461033b906001600160a01b031681565b6040516102e491906152fc565b34801561035457600080fd5b5061030d600b5481565b34801561036a57600080fd5b5061030d610379366004615310565b610a47565b34801561038a57600080fd5b5061030d60125481565b3480156103a057600080fd5b506102c06103af366004615310565b610b13565b6102c0610f42565b3480156103c857600080fd5b506102c06103d7366004615347565b611078565b3480156103e857600080fd5b5061030d6103f736600461540e565b6114b8565b34801561040857600080fd5b506005546104169060ff1681565b60405160ff90911681526020016102e4565b34801561043457600080fd5b5061030d6114d0565b34801561044957600080fd5b5061030d600e5481565b34801561045f57600080fd5b506102c061046e366004615448565b6114df565b34801561047f57600080fd5b506102c061048e3660046154d9565b61155f565b34801561049f57600080fd5b5060005461033b906001600160a01b031681565b3480156104bf57600080fd5b5060065461033b906001600160a01b031681565b3480156104df57600080fd5b5061030d60105481565b3480156104f557600080fd5b506104fe6117d3565b6040516102e49190615521565b34801561051757600080fd5b5061030d666379da05b6000081565b34801561053257600080fd5b5061030d600c5481565b34801561054857600080fd5b5060165461033b906001600160a01b031681565b34801561056857600080fd5b5061030d6105773660046152e3565b6117dd565b34801561058857600080fd5b506102c061059736600461556e565b6117e8565b3480156105a857600080fd5b5061030d60095481565b3480156105be57600080fd5b5061030d600f5481565b3480156105d457600080fd5b506102d76118bc565b3480156105e957600080fd5b5061030d6105f8366004615310565b6118c9565b34801561060957600080fd5b503061033b565b34801561061c57600080fd5b5061030d61062b3660046152e3565b6119ed565b34801561063c57600080fd5b5061030d61064b3660046152e3565b611b0e565b34801561065c57600080fd5b5061030d61066b3660046152e3565b611b1a565b34801561067c57600080fd5b5061030d600d5481565b34801561069257600080fd5b5060005b60405190151581526020016102e4565b3480156106b257600080fd5b5061030d6106c13660046155a7565b611c8b565b3480156106d257600080fd5b5061030d67016345785d8a000081565b3480156106ee57600080fd5b506107026106fd366004615310565b611caf565b6040805194855260208501939093529183015260608201526080016102e4565b34801561072e57600080fd5b5061030d61073d3660046152e3565b611d52565b34801561074e57600080fd5b50604080518082019091526014815273434572633230506c7567696e44656c656761746560601b60208201526102d7565b34801561078b57600080fd5b5061030d61079a3660046152e3565b611d5d565b3480156107ab57600080fd5b5061030d600a5481565b3480156107c157600080fd5b5061030d60115481565b3480156107d757600080fd5b5060175461033b906001600160a01b031681565b3480156107f757600080fd5b5060075461033b906001600160a01b031681565b34801561081757600080fd5b5061030d6108263660046155e8565b611d68565b34801561083757600080fd5b506001610696565b60008061084a611d80565b6001600160e01b031984166000908152602082905260409020549091506001600160a01b0316806108905783604051631f3f429960e31b815260040161027391906150b2565b9392505050565b60006702c68af0bb14000090506000896001600160a01b031663313ce5676040518163ffffffff1660e01b8152600401602060405180830381865afa1580156108e4573d6000803e3d6000fd5b505050506040513d601f19601f82011682018060405250810190610908919061562a565b905061091b898989858a8a878b8b611078565b601680546001600160a01b0319166001600160a01b038c16908117909155604080516318160ddd60e01b815290516318160ddd916004808201926020929091908290030181865afa158015610974573d6000803e3d6000fd5b505050506040513d601f19601f820116820180604052508101906109989190615647565b5050505050505050505050565b600380546109b290615660565b80601f01602080910402602001604051908101604052809291908181526020018280546109de90615660565b8015610a2b5780601f10610a0057610100808354040283529160200191610a2b565b820191906000526020600020905b815481529060010190602001808311610a0e57829003601f168201915b505050505081565b600080610a3f83611da4565b509392505050565b600080610a5381611e68565b6000306001600160a01b031663a6afed956040518163ffffffff1660e01b81526004016020604051808303816000875af1158015610a95573d6000803e3d6000fd5b505050506040513d601f19601f82011682018060405250810190610ab99190615647565b14610af85760405162461bcd60e51b815260206004820152600f60248201526e085858d8dc9d59525b9d195c995cdd608a1b6044820152606401610273565b610b01836118c9565b91505b610b0d81611f2c565b50919050565b33301480610b245750610b24611fb0565b610b845760405162461bcd60e51b815260206004820152602b60248201527f6f6e6c792073656c6620616e642061646d696e732063616e2063616c6c205f7560448201526a383230ba32a8363ab3b4b760a91b6064820152608401610273565b6017546000906001600160a01b0316610b9d5781610baa565b6017546001600160a01b03165b600154604051637583efcf60e01b81529192506001600160a01b031690637583efcf90610bdd90849086906004016156ab565b602060405180830381865afa158015610bfa573d6000803e3d6000fd5b505050506040513d601f19601f82011682018060405250810190610c1e91906156c5565b610c785760405162461bcd60e51b815260206004820152602560248201527f706c7567696e20696d706c656d656e746174696f6e206e6f742077686974656c6044820152641a5cdd195960da1b6064820152608401610273565b6017546001600160a01b031615801590610d0157506017546040516370a0823160e01b81526001600160a01b03909116906370a0823190610cbd9030906004016152fc565b602060405180830381865afa158015610cda573d6000803e3d6000fd5b505050506040513d601f19601f82011682018060405250810190610cfe9190615647565b15155b15610de4576017546040516370a0823160e01b81526001600160a01b039091169063ba0876529082906370a0823190610d3e9030906004016152fc565b602060405180830381865afa158015610d5b573d6000803e3d6000fd5b505050506040513d601f19601f82011682018060405250810190610d7f9190615647565b30306040518463ffffffff1660e01b8152600401610d9f939291906156e2565b6020604051808303816000875af1158015610dbe573d6000803e3d6000fd5b505050506040513d601f19601f82011682018060405250810190610de29190615647565b505b601780546001600160a01b0319166001600160a01b038481169190911790915560165460405163095ea7b360e01b815291169063095ea7b390610e2f90859060001990600401615701565b6020604051808303816000875af1158015610e4e573d6000803e3d6000fd5b505050506040513d601f19601f82011682018060405250810190610e7291906156c5565b506016546040516370a0823160e01b81526000916001600160a01b0316906370a0823190610ea49030906004016152fc565b602060405180830381865afa158015610ec1573d6000803e3d6000fd5b505050506040513d601f19601f82011682018060405250810190610ee59190615647565b90508015610ef657610ef681612121565b6017546040517fb32957d2794aaec3ea2c8852833af2192fe9fb518777de1f883e9e821781da7591610f35916001600160a01b039091169086906156ab565b60405180910390a1505050565b333014801590610fc45750600660009054906101000a90046001600160a01b03166001600160a01b031663dd5cd22c6040518163ffffffff1660e01b8152600401602060405180830381865afa158015610fa0573d6000803e3d6000fd5b505050506040513d601f19601f82011682018060405250810190610fc491906156c5565b1561107657600154600080546040516345cc970560e01b81529192839283926001600160a01b03928316926345cc97059261100592909116906004016152fc565b600060405180830381865afa158015611022573d6000803e3d6000fd5b505050506040513d6000823e601f3d908101601f1916820160405261104a919081019061571a565b60005492955090935091506001600160a01b0380851691161461107257611072838383612196565b5050505b565b336001600160a01b038916146110a05760405162461bcd60e51b8152600401610273906157b9565b600c541580156110b05750600d54155b6110eb5760405162461bcd60e51b815260206004820152600c60248201526b085a5b9a5d1a585b1a5e995960a21b6044820152606401610273565b600180546001600160a01b0319166001600160a01b038a1617905560088690558561114a5760405162461bcd60e51b815260206004820152600f60248201526e02165786368616e6765526174653e3608c1b6044820152606401610273565b600680546001600160a01b0319166001600160a01b038b81169190911790915543600c55670de0b6b3a7640000600d55604080516310c8fc9560e11b8152905191891691632191f92a916004808201926020929091908290030181865afa1580156111b9573d6000803e3d6000fd5b505050506040513d601f19601f820116820180604052508101906111dd91906156c5565b6112135760405162461bcd60e51b8152602060048201526007602482015266216e6f7449726d60c81b6044820152606401610273565b600780546001600160a01b0319166001600160a01b0389161790556040517fedffc32e068c7c95dfd4bdfd5c4d939a084d6b11c4199eac8436ed234d72f92690611261906000908a906156ab565b60405180910390a1845161127c906003906020880190614fc8565b508351611290906004906020870190614fc8565b506005805460ff191660ff8516179055600a54600954670de0b6b3a764000091906112bb90856157ef565b6112c591906157ef565b11156112fd5760405162461bcd60e51b8152602060048201526007602482015266085c998e9cd95d60ca1b6044820152606401610273565b600b8290556040805160008152602081018490527faaa68312e2ea9d50e16af5068410ab56e1a1fd06037b1a35664812c30f821460910160405180910390a160001981141561134b57506009545b6001546040805163dd86fea160e01b815290516000926001600160a01b03169163dd86fea19160048083019260209291908290030181865afa158015611395573d6000803e3d6000fd5b505050506040513d601f19601f820116820180604052508101906113b99190615647565b9050670de0b6b3a76400008183600b546113d391906157ef565b6113dd91906157ef565b111561141b5760405162461bcd60e51b815260206004820152600d60248201526c0858591b5a5b9199594e9cd95d609a1b6044820152606401610273565b60098290556040805160008152602081018490527fcdd0b588250e1398549f79cfdb8217c186688822905d6715b0834ea1c865594a910160405180910390a1600a8190556040805160008152602081018390527f92eef861b6533b7d3417f39c2ad7b460eed4e88a32fa3604f30e718b7602e7dc910160405180910390a150506002805460ff60b01b1916600160b01b1790555050505050505050565b6000806114c58484612323565b509150505b92915050565b60006114da6123e9565b905090565b6114e7611fb0565b6115035760405162461bcd60e51b8152600401610273906157b9565b6000546001600160a01b0385811691161461155957611559848484848080601f01602080910402602001604051908101604052809392919081815260200183838082843760009201919091525061219692505050565b50505050565b333014806115705750611570611fb0565b6115d85760405162461bcd60e51b815260206004820152603360248201527f6f6e6c792073656c6620616e642061646d696e732063616e2063616c6c205f6260448201527232b1b7b6b2a4b6b83632b6b2b73a30ba34b7b760691b6064820152608401610273565b600154600080546040516311a0e21760e01b815291926001600160a01b03908116926311a0e2179261160e9216906004016152fc565b600060405180830381865afa15801561162b573d6000803e3d6000fd5b505050506040513d6000823e601f3d908101601f19168201604052611653919081019061582a565b9050600061165f6124c2565b905060005b81518110156116a15761168f828281518110611682576116826158c3565b602002602001015161252d565b80611699816158d9565b915050611664565b5060005b82518110156116e2576116d08382815181106116c3576116c36158c3565b602002602001015161265a565b806116da816158d9565b9150506116a5565b5050506000818060200190518101906116fb91906158f4565b90506001600160a01b03811615801561171e57506017546001600160a01b031615155b1561179b576001546017546040516381218ea960e01b81526001600160a01b03928316926381218ea992611757929116906004016152fc565b602060405180830381865afa158015611774573d6000803e3d6000fd5b505050506040513d601f19601f8201168201806040525081019061179891906158f4565b90505b6001600160a01b038116158015906117c157506017546001600160a01b03828116911614155b156117cf576117cf81610b13565b5050565b60606114da6124c2565b60006114ca82612749565b6006546001546001600160a01b039182169116331480156118665750806001600160a01b0316632f1069ba6040518163ffffffff1660e01b8152600401602060405180830381865afa158015611842573d6000803e3d6000fd5b505050506040513d601f19601f8201168201806040525081019061186691906156c5565b6118b25760405162461bcd60e51b815260206004820152601f60248201527f21756e617574686f72697a6564202d206e6f2061646d696e20726967687473006044820152606401610273565b61107283836127eb565b600480546109b290615660565b6001600160a01b03811660009081526015602052604081208054829182918291906118fa5750600095945050505050565b61190a8160000154600d5461280c565b9094509250600084600381111561192357611923615695565b146119705760405162461bcd60e51b815260206004820152601e60248201527f216d756c55496e74206f766572666c6f7720636865636b206661696c656400006044820152606401610273565b61197e83826001015461284e565b9094509150600084600381111561199757611997615695565b146119e45760405162461bcd60e51b815260206004820152601e60248201527f2164697655496e74206f766572666c6f7720636865636b206661696c656400006044820152606401610273565b50949350505050565b6000806119f981611e68565b6000306001600160a01b031663a6afed956040518163ffffffff1660e01b81526004016020604051808303816000875af1158015611a3b573d6000803e3d6000fd5b505050506040513d601f19601f82011682018060405250810190611a5f9190615647565b90508015611a8b57611a83816011811115611a7c57611a7c615695565b6033612879565b925050610b04565b43600c5414611aa057611a83600a6035612879565b83611aa96123e9565b1015611abb57611a83600e6034612879565b601154841115611ad157611a8360026036612879565b600084601154611ae19190615911565b6011819055600154909150611aff906001600160a01b0316866128d9565b600093505050610b0d81611f2c565b600080610a3f83612950565b600080611b2681611e68565b6000306001600160a01b031663a6afed956040518163ffffffff1660e01b81526004016020604051808303816000875af1158015611b68573d6000803e3d6000fd5b505050506040513d601f19601f82011682018060405250810190611b8c9190615647565b90508015611bb057611a83816011811115611ba957611ba9615695565b6037612879565b43600c5414611bc557611a83600a6039612879565b83611bce6123e9565b1015611be057611a83600e6038612879565b601054841115611bf657611a836002603a612879565b83601054611c049190615911565b601055600654604080516303e1469160e61b81529051611c7c926001600160a01b03169163f851a4409160048083019260209291908290030181865afa158015611c52573d6000803e3d6000fd5b505050506040513d601f19601f82011682018060405250810190611c7691906158f4565b856128d9565b60005b925050610b0d81611f2c565b60006001611c9881611e68565b611ca4338686866129f2565b9150610a3f81611f2c565b6001600160a01b038116600090815260136020526040812054819081908190818080611cda896118c9565b9250306001600160a01b031663182df0f56040518163ffffffff1660e01b8152600401602060405180830381865afa158015611d1a573d6000803e3d6000fd5b505050506040513d601f19601f82011682018060405250810190611d3e9190615647565b915060009993985091965094509092505050565b60006114ca82612ebe565b60006114ca82612f5e565b600080611d76858585612ff9565b5095945050505050565b7fc8fcad8db84d3cc18b4c41d551ea0ee66dd599cde068d998e57d5e09332c131c90565b6000806000611db281611e68565b6000306001600160a01b031663a6afed956040518163ffffffff1660e01b81526004016020604051808303816000875af1158015611df4573d6000803e3d6000fd5b505050506040513d601f19601f82011682018060405250810190611e189190615647565b90508015611e4857611e3c816011811115611e3557611e35615695565b6041612879565b60009350935050611e59565b611e533333876131aa565b93509350505b611e6281611f2c565b50915091565b600254600160b01b900460ff16611eae5760405162461bcd60e51b815260206004820152600a6024820152691c994b595b9d195c995960b21b6044820152606401610273565b80611f1c57600660009054906101000a90046001600160a01b03166001600160a01b031663c90c20b16040518163ffffffff1660e01b8152600401600060405180830381600087803b158015611f0357600080fd5b505af1158015611f17573d6000803e3d6000fd5b505050505b506002805460ff60b01b19169055565b6002805460ff60b01b1916600160b01b17905580611fad57600660009054906101000a90046001600160a01b03166001600160a01b031663632e51426040518163ffffffff1660e01b8152600401600060405180830381600087803b158015611f9457600080fd5b505af1158015611fa8573d6000803e3d6000fd5b505050505b50565b600654604080516303e1469160e61b815290516000926001600160a01b031691829163f851a440916004808201926020929091908290030181865afa158015611ffd573d6000803e3d6000fd5b505050506040513d601f19601f8201168201806040525081019061202191906158f4565b6001600160a01b0316336001600160a01b031614801561209e5750806001600160a01b0316630a755ec26040518163ffffffff1660e01b8152600401602060405180830381865afa15801561207a573d6000803e3d6000fd5b505050506040513d601f19601f8201168201806040525081019061209e91906156c5565b8061211b57506001546001600160a01b03163314801561211b5750806001600160a01b0316632f1069ba6040518163ffffffff1660e01b8152600401602060405180830381865afa1580156120f7573d6000803e3d6000fd5b505050506040513d601f19601f8201168201806040525081019061211b91906156c5565b91505090565b601754604051636e553f6560e01b8152600481018390523060248201526001600160a01b0390911690636e553f65906044016020604051808303816000875af1158015612172573d6000803e3d6000fd5b505050506040513d601f19601f820116820180604052508101906117cf9190615647565b6001546000546040516338e6a07360e11b81526001600160a01b03928316926371cd40e6926121ce9291169087908790600401615928565b602060405180830381865afa1580156121eb573d6000803e3d6000fd5b505050506040513d601f19601f8201168201806040525081019061220f91906156c5565b6122435760405162461bcd60e51b8152602060048201526005602482015264085a5b5c1b60da1b6044820152606401610273565b600080546001600160a01b038581166001600160a01b031983161790925516303b612276576122718261155f565b6122d8565b6122d6308360405160240161228b91906152d0565b60408051601f19818403018152918152602080830180516001600160e01b0316630adccee560e31b17905281518083019092526007825266216265636f6d6560c81b9082015261354c565b505b6000546040517fd604de94d45953f9138079ec1b82d533cb2160c906d1076d1f7ed54befbca97a916123159184916001600160a01b0316906156ab565b60405180910390a150505050565b600080600061233181611e68565b6000306001600160a01b031663a6afed956040518163ffffffff1660e01b81526004016020604051808303816000875af1158015612373573d6000803e3d6000fd5b505050506040513d601f19601f820116820180604052508101906123979190615647565b905080156123c7576123bb8160118111156123b4576123b4615695565b6040612879565b600093509350506123d8565b6123d23387876131aa565b93509350505b6123e181611f2c565b509250929050565b6017546040516370a0823160e01b81526000916001600160a01b031690634cdad5069082906370a08231906124229030906004016152fc565b602060405180830381865afa15801561243f573d6000803e3d6000fd5b505050506040513d601f19601f820116820180604052508101906124639190615647565b6040518263ffffffff1660e01b815260040161248191815260200190565b602060405180830381865afa15801561249e573d6000803e3d6000fd5b505050506040513d601f19601f820116820180604052508101906114da9190615647565b60606124cc611d80565b60020180548060200260200160405190810160405280929190818152602001828054801561252357602002820191906000526020600020905b81546001600160a01b03168152600190910190602001808311612505575b5050505050905090565b6000612537611d80565b9050612542826135e8565b60005b600282015460ff8216101561107257826001600160a01b0316826002018260ff1681548110612576576125766158c3565b6000918252602090912001546001600160a01b03161415612648576002820180546125a390600190615911565b815481106125b3576125b36158c3565b6000918252602090912001546002830180546001600160a01b039092169160ff84169081106125e4576125e46158c3565b9060005260206000200160006101000a8154816001600160a01b0302191690836001600160a01b03160217905550816002018054806126255761262561594c565b600082815260209020810160001990810180546001600160a01b03191690550190555b8061265281615962565b915050612545565b6000612664611d80565b905060005b600282015460ff8216101561270957826001600160a01b0316826002018260ff168154811061269a5761269a6158c3565b6000918252602090912001546001600160a01b031614156126f75760405162461bcd60e51b8152602060048201526017602482015276195e1d195b9cda5bdb88185b1c9958591e481859191959604a1b6044820152606401610273565b8061270181615962565b915050612669565b5061271382613872565b6002018054600181018255600091825260209091200180546001600160a01b0319166001600160a01b0392909216919091179055565b60008061275581611e68565b6000306001600160a01b031663a6afed956040518163ffffffff1660e01b81526004016020604051808303816000875af1158015612797573d6000803e3d6000fd5b505050506040513d601f19601f820116820180604052508101906127bb9190615647565b905080156127df57611a838160118111156127d8576127d8615695565b602a612879565b611c7f33600086613a3b565b6001600160a01b03811615612803576128038161252d565b6117cf8261265a565b6000808361281f57506000905080612847565b8383028361282d8683615982565b1461284057600260009250925050612847565b6000925090505b9250929050565b600080826128625750600190506000612847565b600061286e8486615982565b915091509250929050565b6000600080516020615b6683398151915283601181111561289c5761289c615695565b8360618111156128ae576128ae615695565b60006040516128bf939291906159a4565b60405180910390a182601181111561089057610890615695565b601754604051632d182be560e21b81526001600160a01b039091169063b460af949061290d908490869030906004016156e2565b6020604051808303816000875af115801561292c573d6000803e3d6000fd5b505050506040513d601f19601f820116820180604052508101906110729190615647565b600080600061295e81611e68565b6000306001600160a01b031663a6afed956040518163ffffffff1660e01b81526004016020604051808303816000875af11580156129a0573d6000803e3d6000fd5b505050506040513d601f19601f820116820180604052508101906129c49190615647565b905080156129e857611e3c8160118111156129e1576129e1615695565b6020612879565b611e533386613fdc565b60065460405163d02f735160e01b815260009182916001600160a01b039091169063d02f735190612a2f9030908a908a908a908a906004016159ba565b6020604051808303816000875af1158015612a4e573d6000803e3d6000fd5b505050506040513d601f19601f82011682018060405250810190612a729190615647565b90508015612a8f57612a876003601d83614311565b915050612eb6565b846001600160a01b0316846001600160a01b03161415612ab557612a876006601e612879565b612b1a604080516101808101909152806000815260200160008152602001600081526020016000815260200160008152602001600081526020016000815260200160008152602001600081526020016000815260200160008152602001600081525090565b6001600160a01b038516600090815260136020526040902054612b3d908561439a565b6020830181905282826003811115612b5757612b57615695565b6003811115612b6857612b68615695565b9052506000905081516003811115612b8257612b82615695565b14612bb257612ba96009601c83600001516003811115612ba457612ba4615695565b614311565b92505050612eb6565b612bd1846040518060200160405280666379da05b600008152506143c5565b6080820152604080516020810190915267016345785d8a00008152612bf79085906143c5565b61014082018190526080820151612c0e9086615911565b612c189190615911565b6060820152306001600160a01b031663182df0f56040518163ffffffff1660e01b8152600401602060405180830381865afa158015612c5b573d6000803e3d6000fd5b505050506040513d601f19601f82011682018060405250810190612c7f9190615647565b60c082019081526040805160208101909152905181526080820151612ca491906143e8565b60a0820152604080516020810190915260c08201518152610140820151612ccb91906143e8565b61016082015260a0810151600f54612ce391906157ef565b60e08201526101408101516080820151601254612d009190615911565b612d0a9190615911565b610120820152610160810151601154612d2391906157ef565b6101008201526001600160a01b0386166000908152601360205260409020546060820151612d519190614400565b6040830181905282826003811115612d6b57612d6b615695565b6003811115612d7c57612d7c615695565b9052506000905081516003811115612d9657612d96615695565b14612db857612ba96009601b83600001516003811115612ba457612ba4615695565b60e0810151600f556101208101516012556101008101516011556020808201516001600160a01b0387811660008181526013855260408082209490945583860151928b1680825290849020929092556060850151925192835290929091600080516020615b86833981519152910160405180910390a3306001600160a01b0316856001600160a01b0316600080516020615b868339815191528360800151604051612e6591815260200190565b60405180910390a360a081015160e08201516040517fa91e67c5ea634cd43a12c5a482724b03de01e85ca68702a53d0c2f45cb7c1dc592612ea79230926159ed565b60405180910390a16000925050505b949350505050565b600080612eca81611e68565b6000306001600160a01b031663a6afed956040518163ffffffff1660e01b81526004016020604051808303816000875af1158015612f0c573d6000803e3d6000fd5b505050506040513d601f19601f82011682018060405250810190612f309190615647565b90508015612f5457611a83816011811115612f4d57612f4d615695565b600a612879565b611c7f3385614426565b600080612f6a81611e68565b6000306001600160a01b031663a6afed956040518163ffffffff1660e01b81526004016020604051808303816000875af1158015612fac573d6000803e3d6000fd5b505050506040513d601f19601f82011682018060405250810190612fd09190615647565b90508015612fed57611a838160118111156127d8576127d8615695565b611c7f33856000613a3b565b600080600061300781611e68565b6000306001600160a01b031663a6afed956040518163ffffffff1660e01b81526004016020604051808303816000875af1158015613049573d6000803e3d6000fd5b505050506040513d601f19601f8201168201806040525081019061306d9190615647565b9050801561309d5761309181601181111561308a5761308a615695565b6011612879565b60009350935050613198565b846001600160a01b0316639f5ef2726040518163ffffffff1660e01b8152600401602060405180830381865afa1580156130db573d6000803e3d6000fd5b505050506040513d601f19601f820116820180604052508101906130ff91906158f4565b6001600160a01b031663a6afed956040518163ffffffff1660e01b81526004016020604051808303816000875af115801561313e573d6000803e3d6000fd5b505050506040513d601f19601f820116820180604052508101906131629190615647565b905080156131865761309181601181111561317f5761317f615695565b6012612879565b61319233888888614753565b93509350505b6131a181611f2c565b50935093915050565b600654604051631200453160e11b81523060048201526001600160a01b03858116602483015284811660448301526064820184905260009283928392909116906324008a62906084016020604051808303816000875af1158015613212573d6000803e3d6000fd5b505050506040513d601f19601f820116820180604052508101906132369190615647565b905080156132575761324b6003604383614311565b60009250925050613544565b43600c541461326c5761324b600a6044612879565b6132b56040805161010081019091528060008152602001600081526020016000815260200160008152602001600081526020016000815260200160008152602001600081525090565b6001600160a01b03861660009081526015602052604090206001015460608201526132df866118c9565b60808201526000198514156132fd5760808101516040820152613305565b604081018590525b613313878260400151614c4f565b60e0820181905260808201516133289161439a565b60a083018190526020830182600381111561334557613345615695565b600381111561335657613356615695565b905250600090508160200151600381111561337357613373615695565b146133e35760405162461bcd60e51b815260206004820152603a60248201527f52455041595f424f52524f575f4e45575f4143434f554e545f424f52524f575f604482015279109053105390d157d0d05310d55310551253d397d1905253115160321b6064820152608401610273565b6133f3600e548260e0015161439a565b60c083018190526020830182600381111561341057613410615695565b600381111561342157613421615695565b905250600090508160200151600381111561343e5761343e615695565b146134a55760405162461bcd60e51b815260206004820152603160248201527f52455041595f424f52524f575f4e45575f544f54414c5f42414c414e43455f43604482015270105310d55310551253d397d19052531151607a1b6064820152608401610273565b60a081810180516001600160a01b03898116600081815260156020908152604091829020948555600d5460019095019490945560c0870151600e81905560e088015195518251948f16855294840192909252820193909352606081019190915260808101919091527f1a2a22cb034d26d1854bdc6666a5b91fe25efbbb5dcad3b0355478d6f5c362a1910160405180910390a160e00151600093509150505b935093915050565b6060600080856001600160a01b0316856040516135699190615a0e565b6000604051808303816000865af19150503d80600081146135a6576040519150601f19603f3d011682016040523d82523d6000602084013e6135ab565b606091505b5091509150816135df578051156135c55780518082602001fd5b8360405162461bcd60e51b815260040161027391906152d0565b95945050505050565b6000816001600160a01b03166389f8132e6040518163ffffffff1660e01b8152600401600060405180830381865afa158015613628573d6000803e3d6000fd5b505050506040513d6000823e601f3d908101601f191682016040526136509190810190615a2a565b9050600061365c611d80565b905060005b82518161ffff161015611559576000838261ffff1681518110613686576136866158c3565b6020908102919091018101516001600160e01b031981166000908152918590526040909120549091506001600160a01b038681169116146136c9576136c9615ac6565b6001600160e01b0319811660009081526020849052604090205460018085018054600160a01b90930461ffff1692909161370291615911565b81548110613712576137126158c3565b90600052602060002090600891828204019190066004029054906101000a900460e01b846001018261ffff168154811061374e5761374e6158c3565b90600052602060002090600891828204019190066004026101000a81548163ffffffff021916908360e01c021790555080846000016000866001018461ffff168154811061379e5761379e6158c3565b6000918252602080832060088304015460079092166004026101000a90910460e01b6001600160e01b03191683528201929092526040019020805461ffff60a01b1916600160a01b61ffff93909316929092029190911790556001840180548061380a5761380a61594c565b60008281526020808220600860001990940193840401805463ffffffff600460078716026101000a0219169055919092556001600160e01b0319909316815291849052506040902080546001600160b01b03191690558061386a81615adc565b915050613661565b6000816001600160a01b03166389f8132e6040518163ffffffff1660e01b8152600401600060405180830381865afa1580156138b2573d6000803e3d6000fd5b505050506040513d6000823e601f3d908101601f191682016040526138da9190810190615a2a565b905060006138e6611d80565b600181015490915060005b8351811015611fa857600084828151811061390e5761390e6158c3565b6020908102919091018101516001600160e01b031981166000908152918690526040909120549091506001600160a01b0316801561397a57604051632c18df3360e01b81526001600160e01b0319831660048201526001600160a01b0382166024820152604401610273565b6040805180820182526001600160a01b03808a16825261ffff80881660208085019182526001600160e01b0319881660009081528b8252958620945185549251909316600160a01b026001600160b01b0319909216929093169190911717909155600180880180549182018155835291206008820401805460e085901c60046007909416939093026101000a92830263ffffffff909302191691909117905583613a2381615adc565b94505050508080613a33906158d9565b9150506138f1565b6000821580613a48575081155b613a8e5760405162461bcd60e51b815260206004820152601760248201527602172656465656d546f6b656e73496e6f724f7574213d3604c1b6044820152606401610273565b613a9661504c565b306001600160a01b031663182df0f56040518163ffffffff1660e01b8152600401602060405180830381865afa158015613ad4573d6000803e3d6000fd5b505050506040513d601f19601f82011682018060405250810190613af89190615647565b6040820152600019831415613b8257600654604051630cbb414760e11b81526001600160a01b0390911690631976828e90613b3c9088903090600090600401615928565b6020604051808303816000875af1158015613b5b573d6000803e3d6000fd5b505050506040513d601f19601f82011682018060405250810190613b7f9190615647565b92505b8315613c23576060810184905260408051602081018252908201518152613ba99085614d05565b6080830181905260208301826003811115613bc657613bc6615695565b6003811115613bd757613bd7615695565b9052506000905081602001516003811115613bf457613bf4615695565b14613c1e57613c166009602c83602001516003811115612ba457612ba4615695565b915050610890565b613cb4565b613c3f8360405180602001604052808460400151815250614d57565b6060830181905260208301826003811115613c5c57613c5c615695565b6003811115613c6d57613c6d615695565b9052506000905081602001516003811115613c8a57613c8a615695565b14613cac57613c166009602d83602001516003811115612ba457612ba4615695565b608081018390525b600654606082015160405163eabe7d9160e01b81526000926001600160a01b03169163eabe7d9191613ced9130918b9190600401615afe565b6020604051808303816000875af1158015613d0c573d6000803e3d6000fd5b505050506040513d601f19601f82011682018060405250810190613d309190615647565b90508015613d4e57613d456003602b83614311565b92505050610890565b43600c5414613d6357613d45600a602f612879565b613d73601254836060015161439a565b60a0840181905260208401826003811115613d9057613d90615695565b6003811115613da157613da1615695565b9052506000905082602001516003811115613dbe57613dbe615695565b14613de057613d456009603184602001516003811115612ba457612ba4615695565b6001600160a01b0386166000908152601360205260409020546060830151613e08919061439a565b60c0840181905260208401826003811115613e2557613e25615695565b6003811115613e3657613e36615695565b9052506000905082602001516003811115613e5357613e53615695565b14613e7557613d456009603084602001516003811115612ba457612ba4615695565b8160800151613e826123e9565b1015613e9457613d45600e6032612879565b60a082015160125560c08201516001600160a01b0387166000908152601360205260409020556080820151613eca9087906128d9565b306001600160a01b0316866001600160a01b0316600080516020615b868339815191528460600151604051613f0191815260200190565b60405180910390a3608082015160608301516040517fe5b754fb1abb7f01b499791d0b820ae3b6af3424ac1c59768edb53f4ec31a92992613f43928a926159ed565b60405180910390a1600654608083015160608401516040516351dff98960e01b81523060048201526001600160a01b038a81166024830152604482019390935260648101919091529116906351dff98990608401600060405180830381600087803b158015613fb157600080fd5b505af1158015613fc5573d6000803e3d6000fd5b5060009250613fd2915050565b9695505050505050565b600654604051634ef4c3e160e01b8152600091829182916001600160a01b031690634ef4c3e19061401590309089908990600401615afe565b6020604051808303816000875af1158015614034573d6000803e3d6000fd5b505050506040513d601f19601f820116820180604052508101906140589190615647565b905080156140795761406d6003602183614311565b60009250925050612847565b43600c541461408e5761406d600a6024612879565b61409661504c565b306001600160a01b031663182df0f56040518163ffffffff1660e01b8152600401602060405180830381865afa1580156140d4573d6000803e3d6000fd5b505050506040513d601f19601f820116820180604052508101906140f89190615647565b60408201526141078686614c4f565b60c08201819052604080516020810182529083015181526141289190614d57565b606083018190526020830182600381111561414557614145615695565b600381111561415657614156615695565b905250600090508160200151600381111561417357614173615695565b146141c05760405162461bcd60e51b815260206004820181905260248201527f4d494e545f45584348414e47455f43414c43554c4154494f4e5f4641494c45446044820152606401610273565b60008160600151116142115760405162461bcd60e51b815260206004820152601a6024820152791352539517d6915493d7d0d513d2d15394d7d491529150d5115160321b6044820152606401610273565b806060015160125461422391906157ef565b608082015260608101516001600160a01b03871660009081526013602052604090205461425091906157ef565b60a0820181905260808201516012556001600160a01b038716600090815260136020526040908190209190915560c0820151606083015191517f4c209b5fc8ad50758f13e2e1088ba56a560dff690a1c6fef26394f4c03821c4f926142b9928a929091906159ed565b60405180910390a1856001600160a01b0316306001600160a01b0316600080516020615b8683398151915283606001516040516142f891815260200190565b60405180910390a360c001516000969095509350505050565b6000600080516020615b6683398151915284601181111561433457614334615695565b84606181111561434657614346615695565b84604051614356939291906159a4565b60405180910390a1600384601181111561437257614372615695565b1461438e5783601181111561438957614389615695565b612eb6565b612eb6826103e86157ef565b6000808383116143b95760006143b08486615911565b91509150612847565b50600390506000612847565b6000670de0b6b3a76400006143de848460000151614d67565b6108909190615982565b6000806143f58484614da3565b9050612eb681614dcd565b60008083830184811061441857600092509050612847565b600260009250925050612847565b60065460405163368f515360e21b815260009182916001600160a01b039091169063da3d454c9061445f90309088908890600401615afe565b6020604051808303816000875af115801561447e573d6000803e3d6000fd5b505050506040513d601f19601f820116820180604052508101906144a29190615647565b905080156144bf576144b76003601083614311565b9150506114ca565b43600c54146144d4576144b7600a600c612879565b60006144de6123e9565b9050838110156144fd576144f4600e600b612879565b925050506114ca565b614529604080516080810190915280600081526020016000815260200160008152602001600081525090565b614532866118c9565b602082018190526145439086614400565b604083018190528282600381111561455d5761455d615695565b600381111561456e5761456e615695565b905250600090508151600381111561458857614588615695565b146145b4576145aa6009600e83600001516003811115612ba457612ba4615695565b93505050506114ca565b6006546040808301519051631de6c8a560e21b81526001600160a01b039092169163779b2294916145ea91309190600401615701565b602060405180830381865afa158015614607573d6000803e3d6000fd5b505050506040513d601f19601f8201168201806040525081019061462b9190615647565b92508215614640576145aa6003601085614311565b61464c600e5486614400565b606083018190528282600381111561466657614666615695565b600381111561467757614677615695565b905250600090508151600381111561469157614691615695565b146146b3576145aa6009600d83600001516003811115612ba457612ba4615695565b6040808201516001600160a01b0388166000908152601560205291909120908155600d546001909101556060810151600e556146ef86866128d9565b60408082015160608084015183516001600160a01b038b168152602081018a9052938401929092528201527f13ed6866d4e1ee6da46f845c46d7e54120883d75c5ea9a2dacc1c4ca8984ab809060800160405180910390a160009695505050505050565b600654604051632fe3f38f60e11b8152600091829182916001600160a01b031690635fc7e71e9061479090309088908c908c908c906004016159ba565b6020604051808303816000875af11580156147af573d6000803e3d6000fd5b505050506040513d601f19601f820116820180604052508101906147d39190615647565b905080156147f4576147e86003601483614311565b60009250925050614c46565b43600c5414614809576147e8600a6018612879565b43846001600160a01b0316636c540baf6040518163ffffffff1660e01b8152600401602060405180830381865afa158015614848573d6000803e3d6000fd5b505050506040513d601f19601f8201168201806040525081019061486c9190615647565b1461487d576147e8600a6013612879565b866001600160a01b0316866001600160a01b031614156148a3576147e860066019612879565b846148b4576147e860076017612879565b6000198514156148ca576147e860076016612879565b6000806148d88989896131aa565b9092509050811561490d576148ff8260118111156148f8576148f8615695565b601a612879565b600094509450505050614c46565b60065460405163c488847b60e01b815260009182916001600160a01b039091169063c488847b906149469030908c908890600401615afe565b6040805180830381865afa158015614962573d6000803e3d6000fd5b505050506040513d601f19601f820116820180604052508101906149869190615b22565b909250905081156149f55760405162461bcd60e51b815260206004820152603360248201527f4c49515549444154455f434f4d5054524f4c4c45525f43414c43554c4154455f604482015272105353d5539517d4d152569157d19052531151606a1b6064820152608401610273565b80886001600160a01b0316639f5ef2726040518163ffffffff1660e01b8152600401602060405180830381865afa158015614a34573d6000803e3d6000fd5b505050506040513d601f19601f82011682018060405250810190614a5891906158f4565b6001600160a01b03166370a082318c6040518263ffffffff1660e01b8152600401614a8391906152fc565b602060405180830381865afa158015614aa0573d6000803e3d6000fd5b505050506040513d601f19601f82011682018060405250810190614ac49190615647565b1015614b0d5760405162461bcd60e51b815260206004820152601860248201527709892a2aa928882a88abea68a92b48abea89e9ebe9aaa86960431b6044820152606401610273565b60006001600160a01b038916301415614b3357614b2c308d8d856129f2565b9050614ba9565b60405163b2a02ff160e01b81526001600160a01b038a169063b2a02ff190614b63908f908f908790600401615afe565b6020604051808303816000875af1158015614b82573d6000803e3d6000fd5b505050506040513d601f19601f82011682018060405250810190614ba69190615647565b90505b8015614be05760405162461bcd60e51b8152602060048201526006602482015265217365697a6560d01b6044820152606401610273565b604080516001600160a01b038e811682528d811660208301528183018790528b1660608201526080810184905290517f298637f684da70674f26509b10f07ec2fbc77a335ab1e7d6215a4b2484d8bb529181900360a00190a16000975092955050505050505b94509492505050565b6016546040516323b872dd60e01b81526000916001600160a01b0316906323b872dd90614c8490869030908790600401615afe565b6020604051808303816000875af1158015614ca3573d6000803e3d6000fd5b505050506040513d601f19601f82011682018060405250810190614cc791906156c5565b614cfc5760405162461bcd60e51b8152600401610273906020808252600490820152631cd95b9960e21b604082015260600190565b610b0d82612121565b600080600080614d158686614de5565b90925090506000826003811115614d2e57614d2e615695565b14614d3f5750915060009050612847565b6000614d4a82614dcd565b9350935050509250929050565b600080600080614d158686614e53565b60006108908383604051806040016040528060178152602001766d756c7469706c69636174696f6e206f766572666c6f7760481b815250614eb8565b614dab61508a565b6040518060200160405280614dc4856000015185614d67565b90529392505050565b80516000906114ca90670de0b6b3a764000090615982565b6000614def61508a565b600080614e0086600001518661280c565b90925090506000826003811115614e1957614e19615695565b14614e3857506040805160208101909152600081529092509050612847565b60408051602081019091529081526000969095509350505050565b6000614e5d61508a565b600080614e72670de0b6b3a76400008761280c565b90925090506000826003811115614e8b57614e8b615695565b14614eaa57506040805160208101909152600081529092509050612847565b614d4a818660000151614f0b565b6000831580614ec5575082155b15614ed257506000610890565b6000614ede8486615b46565b905083614eeb8683615982565b1483906119e45760405162461bcd60e51b815260040161027391906152d0565b6000614f1561508a565b600080614f2a86670de0b6b3a764000061280c565b90925090506000826003811115614f4357614f43615695565b14614f6257506040805160208101909152600081529092509050612847565b600080614f6f838861284e565b90925090506000826003811115614f8857614f88615695565b14614fab5781604051806020016040528060008152509550955050505050612847565b604080516020810190915290815260009890975095505050505050565b828054614fd490615660565b90600052602060002090601f016020900481019282614ff6576000855561503c565b82601f1061500f57805160ff191683800117855561503c565b8280016001018555821561503c579182015b8281111561503c578251825591602001919060010190615021565b5061504892915061509d565b5090565b6040805160e0810190915280600081526020016000815260200160008152602001600081526020016000815260200160008152602001600081525090565b6040518060200160405280600081525090565b5b80821115615048576000815560010161509e565b6001600160e01b031991909116815260200190565b6001600160a01b0381168114611fad57600080fd5b80356150e7816150c7565b919050565b634e487b7160e01b600052604160045260246000fd5b604051601f8201601f191681016001600160401b038111828210171561512a5761512a6150ec565b604052919050565b60006001600160401b0382111561514b5761514b6150ec565b50601f01601f191660200190565b600061516c61516784615132565b615102565b905082815283838301111561518057600080fd5b828260208301376000602084830101529392505050565b600082601f8301126151a857600080fd5b61089083833560208501615159565b600080600080600080600080610100898b0312156151d457600080fd5b88356151df816150c7565b975060208901356151ef816150c7565b965060408901356151ff816150c7565b9550606089013561520f816150c7565b945060808901356001600160401b038082111561522b57600080fd5b6152378c838d01615197565b955060a08b013591508082111561524d57600080fd5b5061525a8b828c01615197565b93505060c0890135915060e089013590509295985092959890939650565b60005b8381101561529357818101518382015260200161527b565b838111156115595750506000910152565b600081518084526152bc816020860160208601615278565b601f01601f19169290920160200192915050565b60208152600061089060208301846152a4565b6000602082840312156152f557600080fd5b5035919050565b6001600160a01b0391909116815260200190565b60006020828403121561532257600080fd5b8135610890816150c7565b60ff81168114611fad57600080fd5b80356150e78161532d565b60008060008060008060008060006101208a8c03121561536657600080fd5b8935615371816150c7565b985060208a0135615381816150c7565b975061538f60408b016150dc565b965060608a0135955060808a01356001600160401b03808211156153b257600080fd5b6153be8d838e01615197565b965060a08c01359150808211156153d457600080fd5b506153e18c828d01615197565b9450506153f060c08b0161533c565b925060e08a013591506101008a013590509295985092959850929598565b6000806040838503121561542157600080fd5b823561542c816150c7565b946020939093013593505050565b8015158114611fad57600080fd5b6000806000806060858703121561545e57600080fd5b8435615469816150c7565b935060208501356154798161543a565b925060408501356001600160401b038082111561549557600080fd5b818701915087601f8301126154a957600080fd5b8135818111156154b857600080fd5b8860208285010111156154ca57600080fd5b95989497505060200194505050565b6000602082840312156154eb57600080fd5b81356001600160401b0381111561550157600080fd5b8201601f8101841361551257600080fd5b612eb684823560208401615159565b6020808252825182820181905260009190848201906040850190845b818110156155625783516001600160a01b03168352928401929184019160010161553d565b50909695505050505050565b6000806040838503121561558157600080fd5b823561558c816150c7565b9150602083013561559c816150c7565b809150509250929050565b6000806000606084860312156155bc57600080fd5b83356155c7816150c7565b925060208401356155d7816150c7565b929592945050506040919091013590565b6000806000606084860312156155fd57600080fd5b8335615608816150c7565b925060208401359150604084013561561f816150c7565b809150509250925092565b60006020828403121561563c57600080fd5b81516108908161532d565b60006020828403121561565957600080fd5b5051919050565b600181811c9082168061567457607f821691505b60208210811415610b0d57634e487b7160e01b600052602260045260246000fd5b634e487b7160e01b600052602160045260246000fd5b6001600160a01b0392831681529116602082015260400190565b6000602082840312156156d757600080fd5b81516108908161543a565b9283526001600160a01b03918216602084015216604082015260600190565b6001600160a01b03929092168252602082015260400190565b60008060006060848603121561572f57600080fd5b835161573a816150c7565b602085015190935061574b8161543a565b60408501519092506001600160401b0381111561576757600080fd5b8401601f8101861361577857600080fd5b805161578661516782615132565b81815287602083850101111561579b57600080fd5b6157ac826020830160208601615278565b8093505050509250925092565b60208082526006908201526510b0b236b4b760d11b604082015260600190565b634e487b7160e01b600052601160045260246000fd5b60008219821115615802576158026157d9565b500190565b60006001600160401b03821115615820576158206150ec565b5060051b60200190565b6000602080838503121561583d57600080fd5b82516001600160401b0381111561585357600080fd5b8301601f8101851361586457600080fd5b805161587261516782615807565b81815260059190911b8201830190838101908783111561589157600080fd5b928401925b828410156158b85783516158a9816150c7565b82529284019290840190615896565b979650505050505050565b634e487b7160e01b600052603260045260246000fd5b60006000198214156158ed576158ed6157d9565b5060010190565b60006020828403121561590657600080fd5b8151610890816150c7565b600082821015615923576159236157d9565b500390565b6001600160a01b039384168152919092166020820152901515604082015260600190565b634e487b7160e01b600052603160045260246000fd5b600060ff821660ff811415615979576159796157d9565b60010192915050565b60008261599f57634e487b7160e01b600052601260045260246000fd5b500490565b9283526020830191909152604082015260600190565b6001600160a01b039586168152938516602085015291841660408401529092166060820152608081019190915260a00190565b6001600160a01b039390931683526020830191909152604082015260600190565b60008251615a20818460208701615278565b9190910192915050565b60006020808385031215615a3d57600080fd5b82516001600160401b03811115615a5357600080fd5b8301601f81018513615a6457600080fd5b8051615a7261516782615807565b81815260059190911b82018301908381019087831115615a9157600080fd5b928401925b828410156158b85783516001600160e01b031981168114615ab75760008081fd5b82529284019290840190615a96565b634e487b7160e01b600052600160045260246000fd5b600061ffff80831681811415615af457615af46157d9565b6001019392505050565b6001600160a01b039384168152919092166020820152604081019190915260600190565b60008060408385031215615b3557600080fd5b505080516020909101519092909150565b6000816000190483118215151615615b6057615b606157d9565b50029056fe45b96fe442630264581b197e84bbada861235052c5a1aadfff9ea4e40a969aa0ddf252ad1be2c89b69c2b068fc378daa952ba7f163c4a11628f55a4df523b3efa164736f6c634300080a000a",
    "linkReferences": {}
  },
  "methodIdentifiers": {
    "_becomeImplementation(bytes)": "56e67728",
    "_listExtensions()": "6333d001",
    "_prepare()": "1db78944",
    "_registerExtension(address,address)": "89cd9855",
    "_setImplementationSafe(address,bool,bytes)": "50d85b73",
    "_updatePlugin(address)": "19f496c8",
    "_withdrawAdminFees(uint256)": "a7b820df",
    "_withdrawFuseFees(uint256)": "a03dce8d",
    "accrualBlockNumber()": "6c540baf",
    "adminFeeMantissa()": "8d02d9a1",
    "asCTokenExtensionInterface()": "9f5ef272",
    "borrow(uint256)": "c5ebeaec",
    "borrowBalanceCurrent(address)": "17bfdfbc",
    "borrowBalanceStored(address)": "95dd9193",
    "borrowIndex()": "aa5af0fd",
    "comptroller()": "5fe3b567",
    "contractType()": "cb2ef6f7",
    "decimals()": "313ce567",
    "feeSeizeShareMantissa()": "be99f119",
    "fuseAdmin()": "15761d51",
    "fuseFeeMantissa()": "dbfe7c19",
    "getAccountSnapshot(address)": "c37f68e2",
    "getCash()": "3b1d21a2",
    "implementation()": "5c60da1b",
    "initialize(address,address,address,address,string,string,uint256,uint256)": "06db3ecd",
    "initialize(address,address,address,uint256,string,string,uint8,uint256,uint256)": "219ef65c",
    "interestRateModel()": "f3fdb15a",
    "isCEther()": "ac784ddc",
    "isCToken()": "fe9c44ae",
    "liquidateBorrow(address,uint256,address)": "f5e3c462",
    "mint(uint256)": "a0712d68",
    "name()": "06fdde03",
    "plugin()": "ef01df4f",
    "protocolSeizeShareMantissa()": "6752e702",
    "redeem(uint256)": "db006a75",
    "redeemUnderlying(uint256)": "852a12e3",
    "repayBorrow(uint256)": "0e752702",
    "repayBorrowBehalf(address,uint256)": "2608f818",
    "reserveFactorMantissa()": "173b9904",
    "seize(address,address,uint256)": "b2a02ff1",
    "symbol()": "95d89b41",
    "totalAdminFees()": "61feacff",
    "totalBorrows()": "47bd3718",
    "totalFuseFees()": "dc028ab1",
    "totalReserves()": "8f840ddd",
    "totalSupply()": "18160ddd",
    "underlying()": "6f307dc3"
  }
}