{
  "address": "0x8700bd39A9Fd7cC8050bf0447DfdAEb579D7D50B",
  "abi": [
    {
      "inputs": [
        {
          "internalType": "bytes4",
          "name": "_functionSelector",
          "type": "bytes4"
        }
      ],
      "name": "ExtensionNotFound",
      "type": "error"
    },
    {
      "inputs": [
        {
          "internalType": "bytes4",
          "name": "_functionSelector",
          "type": "bytes4"
        },
        {
          "internalType": "address",
          "name": "_currentImpl",
          "type": "address"
        }
      ],
      "name": "FunctionAlreadyAdded",
      "type": "error"
    },
    {
      "inputs": [
        {
          "internalType": "bytes4",
          "name": "_functionSelector",
          "type": "bytes4"
        }
      ],
      "name": "FunctionNotFound",
      "type": "error"
    },
    {
      "anonymous": false,
      "inputs": [
        {
          "indexed": false,
          "internalType": "uint256",
          "name": "cashPrior",
          "type": "uint256"
        },
        {
          "indexed": false,
          "internalType": "uint256",
          "name": "interestAccumulated",
          "type": "uint256"
        },
        {
          "indexed": false,
          "internalType": "uint256",
          "name": "borrowIndex",
          "type": "uint256"
        },
        {
          "indexed": false,
          "internalType": "uint256",
          "name": "totalBorrows",
          "type": "uint256"
        }
      ],
      "name": "AccrueInterest",
      "type": "event"
    },
    {
      "anonymous": false,
      "inputs": [
        {
          "indexed": true,
          "internalType": "address",
          "name": "owner",
          "type": "address"
        },
        {
          "indexed": true,
          "internalType": "address",
          "name": "spender",
          "type": "address"
        },
        {
          "indexed": false,
          "internalType": "uint256",
          "name": "amount",
          "type": "uint256"
        }
      ],
      "name": "Approval",
      "type": "event"
    },
    {
      "anonymous": false,
      "inputs": [
        {
          "indexed": false,
          "internalType": "address",
          "name": "borrower",
          "type": "address"
        },
        {
          "indexed": false,
          "internalType": "uint256",
          "name": "borrowAmount",
          "type": "uint256"
        },
        {
          "indexed": false,
          "internalType": "uint256",
          "name": "accountBorrows",
          "type": "uint256"
        },
        {
          "indexed": false,
          "internalType": "uint256",
          "name": "totalBorrows",
          "type": "uint256"
        }
      ],
      "name": "Borrow",
      "type": "event"
    },
    {
      "anonymous": false,
      "inputs": [
        {
          "indexed": false,
          "internalType": "uint256",
          "name": "error",
          "type": "uint256"
        },
        {
          "indexed": false,
          "internalType": "uint256",
          "name": "info",
          "type": "uint256"
        },
        {
          "indexed": false,
          "internalType": "uint256",
          "name": "detail",
          "type": "uint256"
        }
      ],
      "name": "Failure",
      "type": "event"
    },
    {
      "anonymous": false,
      "inputs": [
        {
          "indexed": false,
          "internalType": "address",
          "name": "liquidator",
          "type": "address"
        },
        {
          "indexed": false,
          "internalType": "address",
          "name": "borrower",
          "type": "address"
        },
        {
          "indexed": false,
          "internalType": "uint256",
          "name": "repayAmount",
          "type": "uint256"
        },
        {
          "indexed": false,
          "internalType": "address",
          "name": "cTokenCollateral",
          "type": "address"
        },
        {
          "indexed": false,
          "internalType": "uint256",
          "name": "seizeTokens",
          "type": "uint256"
        }
      ],
      "name": "LiquidateBorrow",
      "type": "event"
    },
    {
      "anonymous": false,
      "inputs": [
        {
          "indexed": false,
          "internalType": "address",
          "name": "minter",
          "type": "address"
        },
        {
          "indexed": false,
          "internalType": "uint256",
          "name": "mintAmount",
          "type": "uint256"
        },
        {
          "indexed": false,
          "internalType": "uint256",
          "name": "mintTokens",
          "type": "uint256"
        }
      ],
      "name": "Mint",
      "type": "event"
    },
    {
      "anonymous": false,
      "inputs": [
        {
          "indexed": false,
          "internalType": "uint256",
          "name": "oldAdminFeeMantissa",
          "type": "uint256"
        },
        {
          "indexed": false,
          "internalType": "uint256",
          "name": "newAdminFeeMantissa",
          "type": "uint256"
        }
      ],
      "name": "NewAdminFee",
      "type": "event"
    },
    {
      "anonymous": false,
      "inputs": [
        {
          "indexed": false,
          "internalType": "uint256",
          "name": "oldFuseFeeMantissa",
          "type": "uint256"
        },
        {
          "indexed": false,
          "internalType": "uint256",
          "name": "newFuseFeeMantissa",
          "type": "uint256"
        }
      ],
      "name": "NewFuseFee",
      "type": "event"
    },
    {
      "anonymous": false,
      "inputs": [
        {
          "indexed": false,
          "internalType": "address",
          "name": "oldImplementation",
          "type": "address"
        },
        {
          "indexed": false,
          "internalType": "address",
          "name": "newImplementation",
          "type": "address"
        }
      ],
      "name": "NewImplementation",
      "type": "event"
    },
    {
      "anonymous": false,
      "inputs": [
        {
          "indexed": false,
          "internalType": "contract InterestRateModel",
          "name": "oldInterestRateModel",
          "type": "address"
        },
        {
          "indexed": false,
          "internalType": "contract InterestRateModel",
          "name": "newInterestRateModel",
          "type": "address"
        }
      ],
      "name": "NewMarketInterestRateModel",
      "type": "event"
    },
    {
      "anonymous": false,
      "inputs": [
        {
          "indexed": false,
          "internalType": "address",
          "name": "oldImpl",
          "type": "address"
        },
        {
          "indexed": false,
          "internalType": "address",
          "name": "newImpl",
          "type": "address"
        }
      ],
      "name": "NewPluginImplementation",
      "type": "event"
    },
    {
      "anonymous": false,
      "inputs": [
        {
          "indexed": false,
          "internalType": "uint256",
          "name": "oldReserveFactorMantissa",
          "type": "uint256"
        },
        {
          "indexed": false,
          "internalType": "uint256",
          "name": "newReserveFactorMantissa",
          "type": "uint256"
        }
      ],
      "name": "NewReserveFactor",
      "type": "event"
    },
    {
      "anonymous": false,
      "inputs": [
        {
          "indexed": false,
          "internalType": "address",
          "name": "redeemer",
          "type": "address"
        },
        {
          "indexed": false,
          "internalType": "uint256",
          "name": "redeemAmount",
          "type": "uint256"
        },
        {
          "indexed": false,
          "internalType": "uint256",
          "name": "redeemTokens",
          "type": "uint256"
        }
      ],
      "name": "Redeem",
      "type": "event"
    },
    {
      "anonymous": false,
      "inputs": [
        {
          "indexed": false,
          "internalType": "address",
          "name": "payer",
          "type": "address"
        },
        {
          "indexed": false,
          "internalType": "address",
          "name": "borrower",
          "type": "address"
        },
        {
          "indexed": false,
          "internalType": "uint256",
          "name": "repayAmount",
          "type": "uint256"
        },
        {
          "indexed": false,
          "internalType": "uint256",
          "name": "accountBorrows",
          "type": "uint256"
        },
        {
          "indexed": false,
          "internalType": "uint256",
          "name": "totalBorrows",
          "type": "uint256"
        }
      ],
      "name": "RepayBorrow",
      "type": "event"
    },
    {
      "anonymous": false,
      "inputs": [
        {
          "indexed": false,
          "internalType": "address",
          "name": "benefactor",
          "type": "address"
        },
        {
          "indexed": false,
          "internalType": "uint256",
          "name": "addAmount",
          "type": "uint256"
        },
        {
          "indexed": false,
          "internalType": "uint256",
          "name": "newTotalReserves",
          "type": "uint256"
        }
      ],
      "name": "ReservesAdded",
      "type": "event"
    },
    {
      "anonymous": false,
      "inputs": [
        {
          "indexed": false,
          "internalType": "address",
          "name": "admin",
          "type": "address"
        },
        {
          "indexed": false,
          "internalType": "uint256",
          "name": "reduceAmount",
          "type": "uint256"
        },
        {
          "indexed": false,
          "internalType": "uint256",
          "name": "newTotalReserves",
          "type": "uint256"
        }
      ],
      "name": "ReservesReduced",
      "type": "event"
    },
    {
      "anonymous": false,
      "inputs": [
        {
          "indexed": true,
          "internalType": "address",
          "name": "from",
          "type": "address"
        },
        {
          "indexed": true,
          "internalType": "address",
          "name": "to",
          "type": "address"
        },
        {
          "indexed": false,
          "internalType": "uint256",
          "name": "amount",
          "type": "uint256"
        }
      ],
      "name": "Transfer",
      "type": "event"
    },
    {
      "stateMutability": "nonpayable",
      "type": "fallback"
    },
    {
      "inputs": [
        {
          "internalType": "bytes",
          "name": "data",
          "type": "bytes"
        }
      ],
      "name": "_becomeImplementation",
      "outputs": [],
      "stateMutability": "nonpayable",
      "type": "function"
    },
    {
      "inputs": [],
      "name": "_listExtensions",
      "outputs": [
        {
          "internalType": "address[]",
          "name": "",
          "type": "address[]"
        }
      ],
      "stateMutability": "view",
      "type": "function"
    },
    {
      "inputs": [],
      "name": "_prepare",
      "outputs": [],
      "stateMutability": "payable",
      "type": "function"
    },
    {
      "inputs": [
        {
          "internalType": "contract DiamondExtension",
          "name": "extensionToAdd",
          "type": "address"
        },
        {
          "internalType": "contract DiamondExtension",
          "name": "extensionToReplace",
          "type": "address"
        }
      ],
      "name": "_registerExtension",
      "outputs": [],
      "stateMutability": "nonpayable",
      "type": "function"
    },
    {
      "inputs": [
        {
          "internalType": "address",
          "name": "implementation_",
          "type": "address"
        },
        {
          "internalType": "bool",
          "name": "allowResign",
          "type": "bool"
        },
        {
          "internalType": "bytes",
          "name": "becomeImplementationData",
          "type": "bytes"
        }
      ],
      "name": "_setImplementationSafe",
      "outputs": [],
      "stateMutability": "nonpayable",
      "type": "function"
    },
    {
      "inputs": [
        {
          "internalType": "address",
          "name": "_plugin",
          "type": "address"
        }
      ],
      "name": "_updatePlugin",
      "outputs": [],
      "stateMutability": "nonpayable",
      "type": "function"
    },
    {
      "inputs": [
        {
          "internalType": "uint256",
          "name": "withdrawAmount",
          "type": "uint256"
        }
      ],
      "name": "_withdrawAdminFees",
      "outputs": [
        {
          "internalType": "uint256",
          "name": "",
          "type": "uint256"
        }
      ],
      "stateMutability": "nonpayable",
      "type": "function"
    },
    {
      "inputs": [
        {
          "internalType": "uint256",
          "name": "withdrawAmount",
          "type": "uint256"
        }
      ],
      "name": "_withdrawFuseFees",
      "outputs": [
        {
          "internalType": "uint256",
          "name": "",
          "type": "uint256"
        }
      ],
      "stateMutability": "nonpayable",
      "type": "function"
    },
    {
      "inputs": [],
      "name": "accrualBlockNumber",
      "outputs": [
        {
          "internalType": "uint256",
          "name": "",
          "type": "uint256"
        }
      ],
      "stateMutability": "view",
      "type": "function"
    },
    {
      "inputs": [],
      "name": "adminFeeMantissa",
      "outputs": [
        {
          "internalType": "uint256",
          "name": "",
          "type": "uint256"
        }
      ],
      "stateMutability": "view",
      "type": "function"
    },
    {
      "inputs": [
        {
          "internalType": "uint256",
          "name": "borrowAmount",
          "type": "uint256"
        }
      ],
      "name": "borrow",
      "outputs": [
        {
          "internalType": "uint256",
          "name": "",
          "type": "uint256"
        }
      ],
      "stateMutability": "nonpayable",
      "type": "function"
    },
    {
      "inputs": [],
      "name": "borrowIndex",
      "outputs": [
        {
          "internalType": "uint256",
          "name": "",
          "type": "uint256"
        }
      ],
      "stateMutability": "view",
      "type": "function"
    },
    {
      "inputs": [],
      "name": "comptroller",
      "outputs": [
        {
          "internalType": "contract IComptroller",
          "name": "",
          "type": "address"
        }
      ],
      "stateMutability": "view",
      "type": "function"
    },
    {
      "inputs": [],
      "name": "contractType",
      "outputs": [
        {
          "internalType": "string",
          "name": "",
          "type": "string"
        }
      ],
      "stateMutability": "pure",
      "type": "function"
    },
    {
      "inputs": [],
      "name": "decimals",
      "outputs": [
        {
          "internalType": "uint8",
          "name": "",
          "type": "uint8"
        }
      ],
      "stateMutability": "view",
      "type": "function"
    },
    {
      "inputs": [],
      "name": "feeSeizeShareMantissa",
      "outputs": [
        {
          "internalType": "uint256",
          "name": "",
          "type": "uint256"
        }
      ],
      "stateMutability": "view",
      "type": "function"
    },
    {
      "inputs": [],
      "name": "fuseAdmin",
      "outputs": [
        {
          "internalType": "address payable",
          "name": "",
          "type": "address"
        }
      ],
      "stateMutability": "view",
      "type": "function"
    },
    {
      "inputs": [],
      "name": "fuseFeeMantissa",
      "outputs": [
        {
          "internalType": "uint256",
          "name": "",
          "type": "uint256"
        }
      ],
      "stateMutability": "view",
      "type": "function"
    },
    {
      "inputs": [],
      "name": "getCash",
      "outputs": [
        {
          "internalType": "uint256",
          "name": "",
          "type": "uint256"
        }
      ],
      "stateMutability": "view",
      "type": "function"
    },
    {
      "inputs": [],
      "name": "implementation",
      "outputs": [
        {
          "internalType": "address",
          "name": "",
          "type": "address"
        }
      ],
      "stateMutability": "view",
      "type": "function"
    },
    {
      "inputs": [
        {
          "internalType": "address",
          "name": "underlying_",
          "type": "address"
        },
        {
          "internalType": "contract IComptroller",
          "name": "comptroller_",
          "type": "address"
        },
        {
          "internalType": "address payable",
          "name": "fuseAdmin_",
          "type": "address"
        },
        {
          "internalType": "contract InterestRateModel",
          "name": "interestRateModel_",
          "type": "address"
        },
        {
          "internalType": "string",
          "name": "name_",
          "type": "string"
        },
        {
          "internalType": "string",
          "name": "symbol_",
          "type": "string"
        },
        {
          "internalType": "uint256",
          "name": "reserveFactorMantissa_",
          "type": "uint256"
        },
        {
          "internalType": "uint256",
          "name": "adminFeeMantissa_",
          "type": "uint256"
        }
      ],
      "name": "initialize",
      "outputs": [],
      "stateMutability": "nonpayable",
      "type": "function"
    },
    {
      "inputs": [
        {
          "internalType": "contract IComptroller",
          "name": "comptroller_",
          "type": "address"
        },
        {
          "internalType": "address payable",
          "name": "fuseAdmin_",
          "type": "address"
        },
        {
          "internalType": "contract InterestRateModel",
          "name": "interestRateModel_",
          "type": "address"
        },
        {
          "internalType": "uint256",
          "name": "initialExchangeRateMantissa_",
          "type": "uint256"
        },
        {
          "internalType": "string",
          "name": "name_",
          "type": "string"
        },
        {
          "internalType": "string",
          "name": "symbol_",
          "type": "string"
        },
        {
          "internalType": "uint8",
          "name": "decimals_",
          "type": "uint8"
        },
        {
          "internalType": "uint256",
          "name": "reserveFactorMantissa_",
          "type": "uint256"
        },
        {
          "internalType": "uint256",
          "name": "adminFeeMantissa_",
          "type": "uint256"
        }
      ],
      "name": "initialize",
      "outputs": [],
      "stateMutability": "nonpayable",
      "type": "function"
    },
    {
      "inputs": [],
      "name": "interestRateModel",
      "outputs": [
        {
          "internalType": "contract InterestRateModel",
          "name": "",
          "type": "address"
        }
      ],
      "stateMutability": "view",
      "type": "function"
    },
    {
      "inputs": [],
      "name": "isCEther",
      "outputs": [
        {
          "internalType": "bool",
          "name": "",
          "type": "bool"
        }
      ],
      "stateMutability": "view",
      "type": "function"
    },
    {
      "inputs": [
        {
          "internalType": "address",
          "name": "borrower",
          "type": "address"
        },
        {
          "internalType": "uint256",
          "name": "repayAmount",
          "type": "uint256"
        },
        {
          "internalType": "address",
          "name": "cTokenCollateral",
          "type": "address"
        }
      ],
      "name": "liquidateBorrow",
      "outputs": [
        {
          "internalType": "uint256",
          "name": "",
          "type": "uint256"
        }
      ],
      "stateMutability": "nonpayable",
      "type": "function"
    },
    {
      "inputs": [],
      "name": "marketFixed",
      "outputs": [],
      "stateMutability": "pure",
      "type": "function"
    },
    {
      "inputs": [
        {
          "internalType": "uint256",
          "name": "mintAmount",
          "type": "uint256"
        }
      ],
      "name": "mint",
      "outputs": [
        {
          "internalType": "uint256",
          "name": "",
          "type": "uint256"
        }
      ],
      "stateMutability": "nonpayable",
      "type": "function"
    },
    {
      "inputs": [],
      "name": "name",
      "outputs": [
        {
          "internalType": "string",
          "name": "",
          "type": "string"
        }
      ],
      "stateMutability": "view",
      "type": "function"
    },
    {
      "inputs": [],
      "name": "plugin",
      "outputs": [
        {
          "internalType": "contract IERC4626",
          "name": "",
          "type": "address"
        }
      ],
      "stateMutability": "view",
      "type": "function"
    },
    {
      "inputs": [],
      "name": "protocolSeizeShareMantissa",
      "outputs": [
        {
          "internalType": "uint256",
          "name": "",
          "type": "uint256"
        }
      ],
      "stateMutability": "view",
      "type": "function"
    },
    {
      "inputs": [
        {
          "internalType": "uint256",
          "name": "redeemTokens",
          "type": "uint256"
        }
      ],
      "name": "redeem",
      "outputs": [
        {
          "internalType": "uint256",
          "name": "",
          "type": "uint256"
        }
      ],
      "stateMutability": "nonpayable",
      "type": "function"
    },
    {
      "inputs": [
        {
          "internalType": "uint256",
          "name": "redeemAmount",
          "type": "uint256"
        }
      ],
      "name": "redeemUnderlying",
      "outputs": [
        {
          "internalType": "uint256",
          "name": "",
          "type": "uint256"
        }
      ],
      "stateMutability": "nonpayable",
      "type": "function"
    },
    {
      "inputs": [
        {
          "internalType": "uint256",
          "name": "repayAmount",
          "type": "uint256"
        }
      ],
      "name": "repayBorrow",
      "outputs": [
        {
          "internalType": "uint256",
          "name": "",
          "type": "uint256"
        }
      ],
      "stateMutability": "nonpayable",
      "type": "function"
    },
    {
      "inputs": [
        {
          "internalType": "address",
          "name": "borrower",
          "type": "address"
        },
        {
          "internalType": "uint256",
          "name": "repayAmount",
          "type": "uint256"
        }
      ],
      "name": "repayBorrowBehalf",
      "outputs": [
        {
          "internalType": "uint256",
          "name": "",
          "type": "uint256"
        }
      ],
      "stateMutability": "nonpayable",
      "type": "function"
    },
    {
      "inputs": [],
      "name": "reserveFactorMantissa",
      "outputs": [
        {
          "internalType": "uint256",
          "name": "",
          "type": "uint256"
        }
      ],
      "stateMutability": "view",
      "type": "function"
    },
    {
      "inputs": [
        {
          "internalType": "address",
          "name": "liquidator",
          "type": "address"
        },
        {
          "internalType": "address",
          "name": "borrower",
          "type": "address"
        },
        {
          "internalType": "uint256",
          "name": "seizeTokens",
          "type": "uint256"
        }
      ],
      "name": "seize",
      "outputs": [
        {
          "internalType": "uint256",
          "name": "",
          "type": "uint256"
        }
      ],
      "stateMutability": "nonpayable",
      "type": "function"
    },
    {
      "inputs": [
        {
          "internalType": "address",
          "name": "from",
          "type": "address"
        },
        {
          "internalType": "uint256",
          "name": "amount",
          "type": "uint256"
        }
      ],
      "name": "selfTransferIn",
      "outputs": [
        {
          "internalType": "uint256",
          "name": "",
          "type": "uint256"
        }
      ],
      "stateMutability": "nonpayable",
      "type": "function"
    },
    {
      "inputs": [
        {
          "internalType": "address",
          "name": "to",
          "type": "address"
        },
        {
          "internalType": "uint256",
          "name": "amount",
          "type": "uint256"
        }
      ],
      "name": "selfTransferOut",
      "outputs": [],
      "stateMutability": "nonpayable",
      "type": "function"
    },
    {
      "inputs": [],
      "name": "symbol",
      "outputs": [
        {
          "internalType": "string",
          "name": "",
          "type": "string"
        }
      ],
      "stateMutability": "view",
      "type": "function"
    },
    {
      "inputs": [],
      "name": "totalAdminFees",
      "outputs": [
        {
          "internalType": "uint256",
          "name": "",
          "type": "uint256"
        }
      ],
      "stateMutability": "view",
      "type": "function"
    },
    {
      "inputs": [],
      "name": "totalBorrows",
      "outputs": [
        {
          "internalType": "uint256",
          "name": "",
          "type": "uint256"
        }
      ],
      "stateMutability": "view",
      "type": "function"
    },
    {
      "inputs": [],
      "name": "totalFuseFees",
      "outputs": [
        {
          "internalType": "uint256",
          "name": "",
          "type": "uint256"
        }
      ],
      "stateMutability": "view",
      "type": "function"
    },
    {
      "inputs": [],
      "name": "totalReserves",
      "outputs": [
        {
          "internalType": "uint256",
          "name": "",
          "type": "uint256"
        }
      ],
      "stateMutability": "view",
      "type": "function"
    },
    {
      "inputs": [],
      "name": "totalSupply",
      "outputs": [
        {
          "internalType": "uint256",
          "name": "",
          "type": "uint256"
        }
      ],
      "stateMutability": "view",
      "type": "function"
    },
    {
      "inputs": [],
      "name": "underlying",
      "outputs": [
        {
          "internalType": "address",
          "name": "",
          "type": "address"
        }
      ],
      "stateMutability": "view",
      "type": "function"
    }
  ],
  "transactionHash": "0xf98c31fcc2ad6a6f0b467171eb206ae8140459f897aced80fda6bf3ee05aaea0",
  "args": [],
  "numDeployments": 8,
  "bytecode": {
    "object": "0x608060405234801561001057600080fd5b5061594280620000216000396000f3fe6080604052600436106102725760003560e01c80636752e7021161014f578063aa5af0fd116100c1578063db006a751161007a578063db006a75146107a1578063dbfe7c19146107c1578063dc028ab1146107d7578063ef01df4f146107ed578063f3fdb15a1461080d578063f5e3c4621461082d57610272565b8063aa5af0fd146106cd578063ac784ddc146106e3578063b2a02ff114610708578063be99f11914610728578063c5ebeaec14610744578063cb2ef6f71461076457610272565b80638d02d9a1116101135780638d02d9a11461062c5780638f840ddd1461064257806395d89b4114610658578063a03dce8d1461066d578063a0712d681461068d578063a7b820df146106ad57610272565b80636752e7021461059b5780636c540baf146105b65780636f307dc3146105cc578063852a12e3146105ec57806389cd98551461060c57610272565b8063219ef65c116101e857806350d85b73116101ac57806350d85b73146104e357806356e67728146105035780635c60da1b146105235780635fe3b5671461054357806361feacff146105635780636333d0011461057957610272565b8063219ef65c1461044c5780632608f8181461046c578063313ce5671461048c5780633b1d21a2146104b857806347bd3718146104cd57610272565b8063135f13341161023a578063135f1334146103a057806315761d51146103c0578063173b9904146103f857806318160ddd1461040e57806319f496c8146104245780631db789441461044457610272565b8063067db1b3146102f657806306db3ecd1461031857806306fdde03146103385780630e616b48146103635780630e75270214610372575b34801561027e57600080fd5b5060006102966000356001600160e01b03191661084d565b90506001600160a01b0381166102d257604051630a82dd7360e31b81526001600160e01b03196000351660048201526024015b60405180910390fd5b3660008037600080366000845af43d6000803e8080156102f1573d6000f35b3d6000fd5b34801561030257600080fd5b50610316610311366004614f5a565b6108b0565b005b34801561032457600080fd5b50610316610333366004615063565b6108f5565b34801561034457600080fd5b5061034d610a03565b60405161035a919061517d565b60405180910390f35b34801561036f57600080fd5b50005b34801561037e57600080fd5b5061039261038d366004615190565b610a93565b60405190815260200161035a565b3480156103ac57600080fd5b506103926103bb366004614f5a565b610aa7565b3480156103cc57600080fd5b506001546103e0906001600160a01b031681565b6040516001600160a01b03909116815260200161035a565b34801561040457600080fd5b50610392600b5481565b34801561041a57600080fd5b5061039260125481565b34801561043057600080fd5b5061031661043f3660046151a9565b610af3565b610316610f24565b34801561045857600080fd5b506103166104673660046151e0565b61105c565b34801561047857600080fd5b50610392610487366004614f5a565b6114b8565b34801561049857600080fd5b506005546104a69060ff1681565b60405160ff909116815260200161035a565b3480156104c457600080fd5b506103926114ce565b3480156104d957600080fd5b50610392600e5481565b3480156104ef57600080fd5b506103166104fe3660046152b6565b6114dd565b34801561050f57600080fd5b5061031661051e366004615348565b611561565b34801561052f57600080fd5b506000546103e0906001600160a01b031681565b34801561054f57600080fd5b506006546103e0906001600160a01b031681565b34801561056f57600080fd5b5061039260105481565b34801561058557600080fd5b5061058e6116bf565b60405161035a9190615391565b3480156105a757600080fd5b50610392666379da05b6000081565b3480156105c257600080fd5b50610392600c5481565b3480156105d857600080fd5b506016546103e0906001600160a01b031681565b3480156105f857600080fd5b50610392610607366004615190565b6116c9565b34801561061857600080fd5b506103166106273660046153de565b6116d4565b34801561063857600080fd5b5061039260095481565b34801561064e57600080fd5b50610392600f5481565b34801561066457600080fd5b5061034d6117a8565b34801561067957600080fd5b50610392610688366004615190565b6117b5565b34801561069957600080fd5b506103926106a8366004615190565b6118b6565b3480156106b957600080fd5b506103926106c8366004615190565b6118c2565b3480156106d957600080fd5b50610392600d5481565b3480156106ef57600080fd5b506106f8600081565b604051901515815260200161035a565b34801561071457600080fd5b50610392610723366004615417565b611a0d565b34801561073457600080fd5b5061039267016345785d8a000081565b34801561075057600080fd5b5061039261075f366004615190565b611a31565b34801561077057600080fd5b50604080518082019091526014815273434572633230506c7567696e44656c656761746560601b602082015261034d565b3480156107ad57600080fd5b506103926107bc366004615190565b611a3c565b3480156107cd57600080fd5b50610392600a5481565b3480156107e357600080fd5b5061039260115481565b3480156107f957600080fd5b506017546103e0906001600160a01b031681565b34801561081957600080fd5b506007546103e0906001600160a01b031681565b34801561083957600080fd5b50610392610848366004615458565b611a47565b6001600160e01b0319811660009081526000805160206158f6833981519152602081905260408220546001600160a01b0316806108a957604051631f3f429960e31b81526001600160e01b0319851660048201526024016102c9565b9392505050565b3330146108e75760405162461bcd60e51b815260206004820152600560248201526410b9b2b63360d91b60448201526064016102c9565b6108f18282611a5f565b5050565b60006702c68af0bb14000090506000896001600160a01b031663313ce5676040518163ffffffff1660e01b8152600401602060405180830381865afa158015610942573d6000803e3d6000fd5b505050506040513d601f19601f82011682018060405250810190610966919061549a565b9050610979898989858a8a878b8b61105c565b601680546001600160a01b0319166001600160a01b038c16908117909155604080516318160ddd60e01b815290516318160ddd916004808201926020929091908290030181865afa1580156109d2573d6000803e3d6000fd5b505050506040513d601f19601f820116820180604052508101906109f691906154b7565b5050505050505050505050565b60038054610a10906154d0565b80601f0160208091040260200160405190810160405280929190818152602001828054610a3c906154d0565b8015610a895780601f10610a5e57610100808354040283529160200191610a89565b820191906000526020600020905b815481529060010190602001808311610a6c57829003601f168201915b505050505081565b565b600080610a9f83611adc565b509392505050565b6000333014610ae05760405162461bcd60e51b815260206004820152600560248201526410b9b2b63360d91b60448201526064016102c9565b610aea8383611b6d565b90505b92915050565b33301480610b045750610b04611c23565b610b645760405162461bcd60e51b815260206004820152602b60248201527f6f6e6c792073656c6620616e642061646d696e732063616e2063616c6c205f7560448201526a383230ba32a8363ab3b4b760a91b60648201526084016102c9565b6017546000906001600160a01b0316610b7d5781610b8a565b6017546001600160a01b03165b600154604051637583efcf60e01b81526001600160a01b0380841660048301528581166024830152929350911690637583efcf90604401602060405180830381865afa158015610bde573d6000803e3d6000fd5b505050506040513d601f19601f82011682018060405250810190610c029190615505565b610c5c5760405162461bcd60e51b815260206004820152602560248201527f706c7567696e20696d706c656d656e746174696f6e206e6f742077686974656c6044820152641a5cdd195960da1b60648201526084016102c9565b6017546001600160a01b031615801590610ce057506017546040516370a0823160e01b81523060048201526001600160a01b03909116906370a0823190602401602060405180830381865afa158015610cb9573d6000803e3d6000fd5b505050506040513d601f19601f82011682018060405250810190610cdd91906154b7565b15155b15610dca576017546040516370a0823160e01b81523060048201526001600160a01b039091169063ba0876529082906370a0823190602401602060405180830381865afa158015610d35573d6000803e3d6000fd5b505050506040513d601f19601f82011682018060405250810190610d5991906154b7565b6040516001600160e01b031960e084901b1681526004810191909152306024820181905260448201526064016020604051808303816000875af1158015610da4573d6000803e3d6000fd5b505050506040513d601f19601f82011682018060405250810190610dc891906154b7565b505b601780546001600160a01b0319166001600160a01b0384811691821790925560165460405163095ea7b360e01b8152600481019290925260001960248301529091169063095ea7b3906044016020604051808303816000875af1158015610e35573d6000803e3d6000fd5b505050506040513d601f19601f82011682018060405250810190610e599190615505565b506016546040516370a0823160e01b81523060048201526000916001600160a01b0316906370a0823190602401602060405180830381865afa158015610ea3573d6000803e3d6000fd5b505050506040513d601f19601f82011682018060405250810190610ec791906154b7565b90508015610ed857610ed881611d94565b601754604080516001600160a01b03928316815291851660208301527fb32957d2794aaec3ea2c8852833af2192fe9fb518777de1f883e9e821781da75910160405180910390a1505050565b333014801590610fa65750600660009054906101000a90046001600160a01b03166001600160a01b031663dd5cd22c6040518163ffffffff1660e01b8152600401602060405180830381865afa158015610f82573d6000803e3d6000fd5b505050506040513d601f19601f82011682018060405250810190610fa69190615505565b15610a9157600154600080546040516345cc970560e01b81526001600160a01b039182166004820152919283928392909116906345cc970590602401600060405180830381865afa158015610fff573d6000803e3d6000fd5b505050506040513d6000823e601f3d908101601f191682016040526110279190810190615522565b60005492955090935091506001600160a01b038085169116146110545761104f838383611e09565b505050565b61104f611fa7565b336001600160a01b0389161461109d5760405162461bcd60e51b815260206004820152600660248201526510b0b236b4b760d11b60448201526064016102c9565b600c541580156110ad5750600d54155b6110e85760405162461bcd60e51b815260206004820152600c60248201526b085a5b9a5d1a585b1a5e995960a21b60448201526064016102c9565b600180546001600160a01b0319166001600160a01b038a161790556008869055856111475760405162461bcd60e51b815260206004820152600f60248201526e02165786368616e6765526174653e3608c1b60448201526064016102c9565b600680546001600160a01b0319166001600160a01b038b81169190911790915543600c55670de0b6b3a7640000600d55604080516310c8fc9560e11b8152905191891691632191f92a916004808201926020929091908290030181865afa1580156111b6573d6000803e3d6000fd5b505050506040513d601f19601f820116820180604052508101906111da9190615505565b6112105760405162461bcd60e51b8152602060048201526007602482015266216e6f7449726d60c81b60448201526064016102c9565b600780546001600160a01b0319166001600160a01b038916908117909155604080516000815260208101929092527fedffc32e068c7c95dfd4bdfd5c4d939a084d6b11c4199eac8436ed234d72f926910160405180910390a1845161127c906003906020880190614eac565b508351611290906004906020870190614eac565b506005805460ff191660ff8516179055600a54600954670de0b6b3a764000091906112bb90856155d8565b6112c591906155d8565b11156112fd5760405162461bcd60e51b8152602060048201526007602482015266085c998e9cd95d60ca1b60448201526064016102c9565b600b8290556040805160008152602081018490527faaa68312e2ea9d50e16af5068410ab56e1a1fd06037b1a35664812c30f821460910160405180910390a160001981141561134b57506009545b6001546040805163dd86fea160e01b815290516000926001600160a01b03169163dd86fea19160048083019260209291908290030181865afa158015611395573d6000803e3d6000fd5b505050506040513d601f19601f820116820180604052508101906113b991906154b7565b9050670de0b6b3a76400008183600b546113d391906155d8565b6113dd91906155d8565b111561141b5760405162461bcd60e51b815260206004820152600d60248201526c0858591b5a5b9199594e9cd95d609a1b60448201526064016102c9565b60098290556040805160008152602081018490527fcdd0b588250e1398549f79cfdb8217c186688822905d6715b0834ea1c865594a910160405180910390a1600a8190556040805160008152602081018390527f92eef861b6533b7d3417f39c2ad7b460eed4e88a32fa3604f30e718b7602e7dc910160405180910390a150506002805460ff60b01b1916600160b01b1790555050505050505050565b6000806114c58484612118565b50949350505050565b60006114d86121ab565b905090565b6114e5611c23565b61151a5760405162461bcd60e51b815260206004820152600660248201526510b0b236b4b760d11b60448201526064016102c9565b61155b848484848080601f016020809104026020016040519081016040528093929190818152602001838380828437600092019190915250611e0992505050565b50505050565b333014806115725750611572611c23565b6115da5760405162461bcd60e51b815260206004820152603360248201527f6f6e6c792073656c6620616e642061646d696e732063616e2063616c6c205f6260448201527232b1b7b6b2a4b6b83632b6b2b73a30ba34b7b760691b60648201526084016102c9565b6000818060200190518101906115f091906155f0565b90506001600160a01b03811615801561161357506017546001600160a01b031615155b1561168b576001546017546040516381218ea960e01b81526001600160a01b0391821660048201529116906381218ea990602401602060405180830381865afa158015611664573d6000803e3d6000fd5b505050506040513d601f19601f8201168201806040525081019061168891906155f0565b90505b6001600160a01b038116158015906116b157506017546001600160a01b03828116911614155b156108f1576108f181610af3565b60606114d861227f565b6000610aed826122f1565b6006546001546001600160a01b039182169116331480156117525750806001600160a01b0316632f1069ba6040518163ffffffff1660e01b8152600401602060405180830381865afa15801561172e573d6000803e3d6000fd5b505050506040513d601f19601f820116820180604052508101906117529190615505565b61179e5760405162461bcd60e51b815260206004820152601f60248201527f21756e617574686f72697a6564202d206e6f2061646d696e207269676874730060448201526064016102c9565b61104f838361236e565b60048054610a10906154d0565b6000806117c18161238f565b306001600160a01b031663a6afed956040518163ffffffff1660e01b81526004016020604051808303816000875af1158015611801573d6000803e3d6000fd5b505050506040513d601f19601f8201168201806040525081019061182591906154b7565b5043600c54146118425761183b600a6035612453565b91506118a7565b8261184b6121ab565b101561185d5761183b600e6034612453565b6011548311156118735761183b60026036612453565b600083601154611883919061560d565b60118190556001549091506118a1906001600160a01b031685611a5f565b60009250505b6118b0816124cc565b50919050565b600080610a9f83612550565b6000806118ce8161238f565b306001600160a01b031663a6afed956040518163ffffffff1660e01b81526004016020604051808303816000875af115801561190e573d6000803e3d6000fd5b505050506040513d601f19601f8201168201806040525081019061193291906154b7565b5043600c54146119485761183b600a6039612453565b826119516121ab565b10156119635761183b600e6038612453565b6010548311156119795761183b6002603a612453565b82601054611987919061560d565b601055600654604080516303e1469160e61b815290516119ff926001600160a01b03169163f851a4409160048083019260209291908290030181865afa1580156119d5573d6000803e3d6000fd5b505050506040513d601f19601f820116820180604052508101906119f991906155f0565b84611a5f565b60005b91506118b0816124cc565b60006001611a1a8161238f565b611a26338686866125cd565b9150610a9f816124cc565b6000610aed82612ab1565b6000610aed82612b2c565b600080611a55858585612ba9565b5095945050505050565b601754604051632d182be560e21b8152600481018390526001600160a01b0384811660248301523060448301529091169063b460af94906064016020604051808303816000875af1158015611ab8573d6000803e3d6000fd5b505050506040513d601f19601f8201168201806040525081019061104f91906154b7565b6000806000611aea8161238f565b306001600160a01b031663a6afed956040518163ffffffff1660e01b81526004016020604051808303816000875af1158015611b2a573d6000803e3d6000fd5b505050506040513d601f19601f82011682018060405250810190611b4e91906154b7565b50611b5a333386612ca3565b92509250611b67816124cc565b50915091565b6016546040516323b872dd60e01b81526000916001600160a01b0316906323b872dd90611ba29086903090879060040161563a565b6020604051808303816000875af1158015611bc1573d6000803e3d6000fd5b505050506040513d601f19601f82011682018060405250810190611be59190615505565b611c1a5760405162461bcd60e51b81526004016102c9906020808252600490820152631cd95b9960e21b604082015260600190565b6118b082611d94565b600654604080516303e1469160e61b815290516000926001600160a01b031691829163f851a440916004808201926020929091908290030181865afa158015611c70573d6000803e3d6000fd5b505050506040513d601f19601f82011682018060405250810190611c9491906155f0565b6001600160a01b0316336001600160a01b0316148015611d115750806001600160a01b0316630a755ec26040518163ffffffff1660e01b8152600401602060405180830381865afa158015611ced573d6000803e3d6000fd5b505050506040513d601f19601f82011682018060405250810190611d119190615505565b80611d8e57506001546001600160a01b031633148015611d8e5750806001600160a01b0316632f1069ba6040518163ffffffff1660e01b8152600401602060405180830381865afa158015611d6a573d6000803e3d6000fd5b505050506040513d601f19601f82011682018060405250810190611d8e9190615505565b91505090565b601754604051636e553f6560e01b8152600481018390523060248201526001600160a01b0390911690636e553f65906044016020604051808303816000875af1158015611de5573d6000803e3d6000fd5b505050506040513d601f19601f820116820180604052508101906108f191906154b7565b6001546000546040516338e6a07360e11b81526001600160a01b039182166004820152858216602482015284151560448201529116906371cd40e690606401602060405180830381865afa158015611e65573d6000803e3d6000fd5b505050506040513d601f19601f82011682018060405250810190611e899190615505565b611ebd5760405162461bcd60e51b8152602060048201526005602482015264085a5b5c1b60da1b60448201526064016102c9565b600080546001600160a01b038581166001600160a01b031983161790925516611ee4611fa7565b303b611ef857611ef382611561565b611f5a565b611f583083604051602401611f0d919061517d565b60408051601f19818403018152918152602080830180516001600160e01b0316630adccee560e31b17905281518083019092526007825266216265636f6d6560c81b908201526130ac565b505b600054604080516001600160a01b03808516825290921660208301527fd604de94d45953f9138079ec1b82d533cb2160c906d1076d1f7ed54befbca97a910160405180910390a150505050565b600154600080546040516311a0e21760e01b81526001600160a01b039182166004820152919216906311a0e21790602401600060405180830381865afa158015611ff5573d6000803e3d6000fd5b505050506040513d6000823e601f3d908101601f1916820160405261201d9190810190615682565b9050600061202961227f565b90508151600114801561203d575080516001145b801561208e5750806000815181106120575761205761571c565b60200260200101516001600160a01b03168260008151811061207b5761207b61571c565b60200260200101516001600160a01b0316145b15612097575050565b60005b81518110156120d7576120c58282815181106120b8576120b861571c565b6020026020010151613148565b806120cf81615732565b91505061209a565b5060005b825181101561104f576121068382815181106120f9576120f961571c565b6020026020010151613278565b8061211081615732565b9150506120db565b60008060006121268161238f565b306001600160a01b031663a6afed956040518163ffffffff1660e01b81526004016020604051808303816000875af1158015612166573d6000803e3d6000fd5b505050506040513d601f19601f8201168201806040525081019061218a91906154b7565b50612196338686612ca3565b925092506121a3816124cc565b509250929050565b6017546040516370a0823160e01b81523060048201526000916001600160a01b031690634cdad5069082906370a0823190602401602060405180830381865afa1580156121fc573d6000803e3d6000fd5b505050506040513d601f19601f8201168201806040525081019061222091906154b7565b6040518263ffffffff1660e01b815260040161223e91815260200190565b602060405180830381865afa15801561225b573d6000803e3d6000fd5b505050506040513d601f19601f820116820180604052508101906114d891906154b7565b60606000805160206158f68339815191526002018054806020026020016040519081016040528092919081815260200182805480156122e757602002820191906000526020600020905b81546001600160a01b031681526001909101906020018083116122c9575b5050505050905090565b6000806122fd8161238f565b306001600160a01b031663a6afed956040518163ffffffff1660e01b81526004016020604051808303816000875af115801561233d573d6000803e3d6000fd5b505050506040513d601f19601f8201168201806040525081019061236191906154b7565b50611a0233600085613370565b6001600160a01b038116156123865761238681613148565b6108f182613278565b600254600160b01b900460ff166123d55760405162461bcd60e51b815260206004820152600a6024820152691c994b595b9d195c995960b21b60448201526064016102c9565b8061244357600660009054906101000a90046001600160a01b03166001600160a01b031663c90c20b16040518163ffffffff1660e01b8152600401600060405180830381600087803b15801561242a57600080fd5b505af115801561243e573d6000803e3d6000fd5b505050505b506002805460ff60b01b19169055565b60007f45b96fe442630264581b197e84bbada861235052c5a1aadfff9ea4e40a969aa083601181111561248857612488615624565b83606181111561249a5761249a615624565b60408051928352602083019190915260009082015260600160405180910390a1826011811115610aea57610aea615624565b6002805460ff60b01b1916600160b01b1790558061254d57600660009054906101000a90046001600160a01b03166001600160a01b031663632e51426040518163ffffffff1660e01b8152600401600060405180830381600087803b15801561253457600080fd5b505af1158015612548573d6000803e3d6000fd5b505050505b50565b600080600061255e8161238f565b306001600160a01b031663a6afed956040518163ffffffff1660e01b81526004016020604051808303816000875af115801561259e573d6000803e3d6000fd5b505050506040513d601f19601f820116820180604052508101906125c291906154b7565b50611b5a33856139a8565b60065460405163d02f735160e01b81523060048201526001600160a01b0386811660248301528581166044830152848116606483015260848201849052600092839291169063d02f73519060a4016020604051808303816000875af115801561263a573d6000803e3d6000fd5b505050506040513d601f19601f8201168201806040525081019061265e91906154b7565b9050801561267b576126736003601d83613d22565b915050612aa9565b846001600160a01b0316846001600160a01b031614156126a1576126736006601e612453565b612706604080516101808101909152806000815260200160008152602001600081526020016000815260200160008152602001600081526020016000815260200160008152602001600081526020016000815260200160008152602001600081525090565b6001600160a01b0385166000908152601360205260409020546127299085613dc4565b602083018190528282600381111561274357612743615624565b600381111561275457612754615624565b905250600090508151600381111561276e5761276e615624565b1461279e576127956009601c8360000151600381111561279057612790615624565b613d22565b92505050612aa9565b6127bd846040518060200160405280666379da05b60000815250613def565b6080820152604080516020810190915267016345785d8a000081526127e3908590613def565b610140820181905260808201516127fa908661560d565b612804919061560d565b6060820152306001600160a01b031663bd6d894d6040518163ffffffff1660e01b8152600401602060405180830381865afa158015612847573d6000803e3d6000fd5b505050506040513d601f19601f8201168201806040525081019061286b91906154b7565b60c0820190815260408051602081019091529051815260808201516128909190613e12565b60a0820152604080516020810190915260c082015181526101408201516128b79190613e12565b61016082015260a0810151600f546128cf91906155d8565b60e082015261014081015160808201516012546128ec919061560d565b6128f6919061560d565b61012082015261016081015160115461290f91906155d8565b6101008201526001600160a01b038616600090815260136020526040902054606082015161293d9190613e2a565b604083018190528282600381111561295757612957615624565b600381111561296857612968615624565b905250600090508151600381111561298257612982615624565b146129a4576127956009601b8360000151600381111561279057612790615624565b60e0810151600f556101208101516012556101008101516011556020808201516001600160a01b0387811660008181526013855260408082209490945583860151928b1680825290849020929092556060850151925192835290929091600080516020615916833981519152910160405180910390a3306001600160a01b0316856001600160a01b03166000805160206159168339815191528360800151604051612a5191815260200190565b60405180910390a360a081015160e08201516040805130815260208101939093528201527fa91e67c5ea634cd43a12c5a482724b03de01e85ca68702a53d0c2f45cb7c1dc59060600160405180910390a16000925050505b949350505050565b600080612abd8161238f565b306001600160a01b031663a6afed956040518163ffffffff1660e01b81526004016020604051808303816000875af1158015612afd573d6000803e3d6000fd5b505050506040513d601f19601f82011682018060405250810190612b2191906154b7565b50611a023384613e50565b600080612b388161238f565b306001600160a01b031663a6afed956040518163ffffffff1660e01b81526004016020604051808303816000875af1158015612b78573d6000803e3d6000fd5b505050506040513d601f19601f82011682018060405250810190612b9c91906154b7565b50611a0233846000613370565b6000806000612bb78161238f565b306001600160a01b031663a6afed956040518163ffffffff1660e01b81526004016020604051808303816000875af1158015612bf7573d6000803e3d6000fd5b505050506040513d601f19601f82011682018060405250810190612c1b91906154b7565b50836001600160a01b031663a6afed956040518163ffffffff1660e01b81526004016020604051808303816000875af1158015612c5c573d6000803e3d6000fd5b505050506040513d601f19601f82011682018060405250810190612c8091906154b7565b50612c8d338787876141e3565b92509250612c9a816124cc565b50935093915050565b600654604051631200453160e11b81523060048201526001600160a01b03858116602483015284811660448301526064820184905260009283928392909116906324008a62906084016020604051808303816000875af1158015612d0b573d6000803e3d6000fd5b505050506040513d601f19601f82011682018060405250810190612d2f91906154b7565b90508015612d5057612d446003604383613d22565b600092509250506130a4565b43600c5414612d6557612d44600a6044612453565b612dae6040805161010081019091528060008152602001600081526020016000815260200160008152602001600081526020016000815260200160008152602001600081525090565b6001600160a01b0386166000908152601560205260409020600101546060820152306040516305eff7ef60e21b81526001600160a01b03888116600483015291909116906317bfdfbc90602401602060405180830381865afa158015612e18573d6000803e3d6000fd5b505050506040513d601f19601f82011682018060405250810190612e3c91906154b7565b6080820152600019851415612e5a5760808101516040820152612e62565b604081018590525b612e70878260400151611b6d565b60e082018190526080820151612e8591613dc4565b60a0830181905260208301826003811115612ea257612ea2615624565b6003811115612eb357612eb3615624565b9052506000905081602001516003811115612ed057612ed0615624565b14612f435760405162461bcd60e51b815260206004820152603a60248201527f52455041595f424f52524f575f4e45575f4143434f554e545f424f52524f575f60448201527f42414c414e43455f43414c43554c4154494f4e5f4641494c454400000000000060648201526084016102c9565b612f53600e548260e00151613dc4565b60c0830181905260208301826003811115612f7057612f70615624565b6003811115612f8157612f81615624565b9052506000905081602001516003811115612f9e57612f9e615624565b146130055760405162461bcd60e51b815260206004820152603160248201527f52455041595f424f52524f575f4e45575f544f54414c5f42414c414e43455f43604482015270105310d55310551253d397d19052531151607a1b60648201526084016102c9565b60a081810180516001600160a01b03898116600081815260156020908152604091829020948555600d5460019095019490945560c0870151600e81905560e088015195518251948f16855294840192909252820193909352606081019190915260808101919091527f1a2a22cb034d26d1854bdc6666a5b91fe25efbbb5dcad3b0355478d6f5c362a1910160405180910390a160e00151600093509150505b935093915050565b6060600080856001600160a01b0316856040516130c9919061574d565b6000604051808303816000865af19150503d8060008114613106576040519150601f19603f3d011682016040523d82523d6000602084013e61310b565b606091505b50915091508161313f578051156131255780518082602001fd5b8360405162461bcd60e51b81526004016102c9919061517d565b95945050505050565b6000805160206158f683398151915261316082614696565b60005b600282015460ff8216101561104f57826001600160a01b0316826002018260ff16815481106131945761319461571c565b6000918252602090912001546001600160a01b03161415613266576002820180546131c19060019061560d565b815481106131d1576131d161571c565b6000918252602090912001546002830180546001600160a01b039092169160ff84169081106132025761320261571c565b9060005260206000200160006101000a8154816001600160a01b0302191690836001600160a01b031602179055508160020180548061324357613243615769565b600082815260209020810160001990810180546001600160a01b03191690550190555b806132708161577f565b915050613163565b6000805160206158f683398151915260005b600282015460ff8216101561333057826001600160a01b0316826002018260ff16815481106132bb576132bb61571c565b6000918252602090912001546001600160a01b0316141561331e5760405162461bcd60e51b815260206004820152601760248201527f657874656e73696f6e20616c726561647920616464656400000000000000000060448201526064016102c9565b806133288161577f565b91505061328a565b5061333a82614923565b6002018054600181018255600091825260209091200180546001600160a01b0319166001600160a01b0392909216919091179055565b600082158061337d575081155b6133c95760405162461bcd60e51b815260206004820152601860248201527f2172656465656d20746f6b656e73206f7220616d6f756e74000000000000000060448201526064016102c9565b61340a6040805160e0810190915280600081526020016000815260200160008152602001600081526020016000815260200160008152602001600081525090565b306001600160a01b031663bd6d894d6040518163ffffffff1660e01b8152600401602060405180830381865afa158015613448573d6000803e3d6000fd5b505050506040513d601f19601f8201168201806040525081019061346c91906154b7565b6040820152831561352f5761138884601254613488919061560d565b10156134945760125493505b60608101849052604080516020810182529082015181526134b59085614b0d565b60808301819052602083018260038111156134d2576134d2615624565b60038111156134e3576134e3615624565b905250600090508160200151600381111561350057613500615624565b1461352a576135226009602c8360200151600381111561279057612790615624565b9150506108a9565b613671565b6000198314156135b757600654604051630cbb414760e11b81526001600160a01b0387811660048301523060248301526000604483015290911690631976828e90606401602060405180830381865afa158015613590573d6000803e3d6000fd5b505050506040513d601f19601f820116820180604052508101906135b491906154b7565b92505b6000306001600160a01b0316634aeb3d9a6040518163ffffffff1660e01b8152600401602060405180830381865afa1580156135f7573d6000803e3d6000fd5b505050506040513d601f19601f8201168201806040525081019061361b91906154b7565b90506103e861362a858361560d565b1015613634578093505b613642848360400151614b5f565b606083018190526012546103e8916136599161560d565b10156136685760125460608301525b50608081018390525b600654606082015160405163eabe7d9160e01b81526000926001600160a01b03169163eabe7d91916136aa9130918b919060040161563a565b6020604051808303816000875af11580156136c9573d6000803e3d6000fd5b505050506040513d601f19601f820116820180604052508101906136ed91906154b7565b9050801561370b576137026003602b83613d22565b925050506108a9565b43600c541461372057613702600a602f612453565b6137306012548360600151613dc4565b60a084018190526020840182600381111561374d5761374d615624565b600381111561375e5761375e615624565b905250600090508260200151600381111561377b5761377b615624565b1461379d57613702600960318460200151600381111561279057612790615624565b6001600160a01b03861660009081526013602052604090205460608301516137c59190613dc4565b60c08401819052602084018260038111156137e2576137e2615624565b60038111156137f3576137f3615624565b905250600090508260200151600381111561381057613810615624565b1461383257613702600960308460200151600381111561279057612790615624565b816080015161383f6121ab565b101561385157613702600e6032612453565b60a082015160125560c08201516001600160a01b0387166000908152601360205260409020556080820151613887908790611a5f565b306001600160a01b0316866001600160a01b031660008051602061591683398151915284606001516040516138be91815260200190565b60405180910390a36080820151606080840151604080516001600160a01b038b16815260208101949094528301527fe5b754fb1abb7f01b499791d0b820ae3b6af3424ac1c59768edb53f4ec31a929910160405180910390a1600654608083015160608401516040516351dff98960e01b81523060048201526001600160a01b038a81166024830152604482019390935260648101919091529116906351dff98990608401600060405180830381600087803b15801561397d57600080fd5b505af1158015613991573d6000803e3d6000fd5b506000925061399e915050565b9695505050505050565b600654604051634ef4c3e160e01b8152600091829182916001600160a01b031690634ef4c3e1906139e19030908990899060040161563a565b6020604051808303816000875af1158015613a00573d6000803e3d6000fd5b505050506040513d601f19601f82011682018060405250810190613a2491906154b7565b90508015613a4557613a396003602183613d22565b60009250925050613d1b565b43600c5414613a5a57613a39600a6024612453565b613a9b6040805160e0810190915280600081526020016000815260200160008152602001600081526020016000815260200160008152602001600081525090565b306001600160a01b031663bd6d894d6040518163ffffffff1660e01b8152600401602060405180830381865afa158015613ad9573d6000803e3d6000fd5b505050506040513d601f19601f82011682018060405250810190613afd91906154b7565b6040820152613b0c8686611b6d565b60c0820181905260408051602081018252908301518152613b2d9190614b9a565b6060830181905260208301826003811115613b4a57613b4a615624565b6003811115613b5b57613b5b615624565b9052506000905081602001516003811115613b7857613b78615624565b14613bc55760405162461bcd60e51b815260206004820181905260248201527f4d494e545f45584348414e47455f43414c43554c4154494f4e5f4641494c454460448201526064016102c9565b6000816060015111613c195760405162461bcd60e51b815260206004820152601a60248201527f4d494e545f5a45524f5f43544f4b454e535f52454a454354454400000000000060448201526064016102c9565b8060600151601254613c2b91906155d8565b608082015260608101516001600160a01b038716600090815260136020526040902054613c5891906155d8565b60a0820181905260808201516012556001600160a01b0387166000818152601360209081526040918290209390935560c0840151606080860151835194855294840191909152908201929092527f4c209b5fc8ad50758f13e2e1088ba56a560dff690a1c6fef26394f4c03821c4f910160405180910390a1856001600160a01b0316306001600160a01b03166000805160206159168339815191528360600151604051613d0791815260200190565b60405180910390a360c00151600093509150505b9250929050565b60007f45b96fe442630264581b197e84bbada861235052c5a1aadfff9ea4e40a969aa0846011811115613d5757613d57615624565b846061811115613d6957613d69615624565b604080519283526020830191909152810184905260600160405180910390a16003846011811115613d9c57613d9c615624565b14613db857836011811115613db357613db3615624565b612aa9565b612aa9826103e86155d8565b600080838311613de3576000613dda848661560d565b91509150613d1b565b50600390506000613d1b565b6000670de0b6b3a7640000613e08848460000151614baa565b610aea91906157b5565b600080613e1f8484614bec565b9050612aa981614c1d565b600080838301848110613e4257600092509050613d1b565b600260009250925050613d1b565b60065460405163368f515360e21b815260009182916001600160a01b039091169063da3d454c90613e899030908890889060040161563a565b6020604051808303816000875af1158015613ea8573d6000803e3d6000fd5b505050506040513d601f19601f82011682018060405250810190613ecc91906154b7565b90508015613ee957613ee16003601083613d22565b915050610aed565b43600c5414613efe57613ee1600a600c612453565b6000613f086121ab565b905083811015613f2757613f1e600e600b612453565b92505050610aed565b613f53604080516080810190915280600081526020016000815260200160008152602001600081525090565b306040516305eff7ef60e21b81526001600160a01b03888116600483015291909116906317bfdfbc90602401602060405180830381865afa158015613f9c573d6000803e3d6000fd5b505050506040513d601f19601f82011682018060405250810190613fc091906154b7565b60208201819052613fd19086613e2a565b6040830181905282826003811115613feb57613feb615624565b6003811115613ffc57613ffc615624565b905250600090508151600381111561401657614016615624565b14614042576140386009600e8360000151600381111561279057612790615624565b9350505050610aed565b6006546040828101519051631de6c8a560e21b815230600482015260248101919091526001600160a01b039091169063779b229490604401602060405180830381865afa158015614097573d6000803e3d6000fd5b505050506040513d601f19601f820116820180604052508101906140bb91906154b7565b925082156140d0576140386003601085613d22565b6140dc600e5486613e2a565b60608301819052828260038111156140f6576140f6615624565b600381111561410757614107615624565b905250600090508151600381111561412157614121615624565b14614143576140386009600d8360000151600381111561279057612790615624565b6040808201516001600160a01b0388166000908152601560205291909120908155600d546001909101556060810151600e5561417f8686611a5f565b60408082015160608084015183516001600160a01b038b168152602081018a9052938401929092528201527f13ed6866d4e1ee6da46f845c46d7e54120883d75c5ea9a2dacc1c4ca8984ab809060800160405180910390a160009695505050505050565b600654604051632fe3f38f60e11b81523060048201526001600160a01b03838116602483015286811660448301528581166064830152608482018590526000928392839290911690635fc7e71e9060a4016020604051808303816000875af1158015614253573d6000803e3d6000fd5b505050506040513d601f19601f8201168201806040525081019061427791906154b7565b905080156142985761428c6003601483613d22565b6000925092505061468d565b43600c54146142ad5761428c600a6018612453565b43846001600160a01b0316636c540baf6040518163ffffffff1660e01b8152600401602060405180830381865afa1580156142ec573d6000803e3d6000fd5b505050506040513d601f19601f8201168201806040525081019061431091906154b7565b146143215761428c600a6013612453565b866001600160a01b0316866001600160a01b031614156143475761428c60066019612453565b846143585761428c60076017612453565b60001985141561436e5761428c60076016612453565b60008061437c898989612ca3565b909250905081156143b1576143a382601181111561439c5761439c615624565b601a612453565b60009450945050505061468d565b60065460405163c488847b60e01b815260009182916001600160a01b039091169063c488847b906143ea9030908c90889060040161563a565b6040805180830381865afa158015614406573d6000803e3d6000fd5b505050506040513d601f19601f8201168201806040525081019061442a91906157c9565b909250905081156144995760405162461bcd60e51b815260206004820152603360248201527f4c49515549444154455f434f4d5054524f4c4c45525f43414c43554c4154455f604482015272105353d5539517d4d152569157d19052531151606a1b60648201526084016102c9565b6040516370a0823160e01b81526001600160a01b038b811660048301528291908a16906370a0823190602401602060405180830381865afa1580156144e2573d6000803e3d6000fd5b505050506040513d601f19601f8201168201806040525081019061450691906154b7565b10156145545760405162461bcd60e51b815260206004820152601860248201527f4c49515549444154455f5345495a455f544f4f5f4d554348000000000000000060448201526064016102c9565b60006001600160a01b03891630141561457a57614573308d8d856125cd565b90506145f0565b60405163b2a02ff160e01b81526001600160a01b038a169063b2a02ff1906145aa908f908f90879060040161563a565b6020604051808303816000875af11580156145c9573d6000803e3d6000fd5b505050506040513d601f19601f820116820180604052508101906145ed91906154b7565b90505b80156146275760405162461bcd60e51b8152602060048201526006602482015265217365697a6560d01b60448201526064016102c9565b604080516001600160a01b038e811682528d811660208301528183018790528b1660608201526080810184905290517f298637f684da70674f26509b10f07ec2fbc77a335ab1e7d6215a4b2484d8bb529181900360a00190a16000975092955050505050505b94509492505050565b6000816001600160a01b03166389f8132e6040518163ffffffff1660e01b8152600401600060405180830381865afa1580156146d6573d6000803e3d6000fd5b505050506040513d6000823e601f3d908101601f191682016040526146fe91908101906157ed565b90506000805160206158f683398151915260005b82518161ffff16101561155b576000838261ffff16815181106147375761473761571c565b6020908102919091018101516001600160e01b031981166000908152918590526040909120549091506001600160a01b0386811691161461477a5761477a61588a565b6001600160e01b0319811660009081526020849052604090205460018085018054600160a01b90930461ffff169290916147b39161560d565b815481106147c3576147c361571c565b90600052602060002090600891828204019190066004029054906101000a900460e01b846001018261ffff16815481106147ff576147ff61571c565b90600052602060002090600891828204019190066004026101000a81548163ffffffff021916908360e01c021790555080846000016000866001018461ffff168154811061484f5761484f61571c565b6000918252602080832060088304015460079092166004026101000a90910460e01b6001600160e01b03191683528201929092526040019020805461ffff60a01b1916600160a01b61ffff9390931692909202919091179055600184018054806148bb576148bb615769565b60008281526020808220600860001990940193840401805463ffffffff600460078716026101000a0219169055919092556001600160e01b0319909316815291849052506040902080546001600160b01b03191690558061491b816158a0565b915050614712565b6000816001600160a01b03166389f8132e6040518163ffffffff1660e01b8152600401600060405180830381865afa158015614963573d6000803e3d6000fd5b505050506040513d6000823e601f3d908101601f1916820160405261498b91908101906157ed565b7fc8fcad8db84d3cc18b4c41d551ea0ee66dd599cde068d998e57d5e09332c131d549091506000805160206158f68339815191529060005b83518110156125485760008482815181106149e0576149e061571c565b6020908102919091018101516001600160e01b031981166000908152918690526040909120549091506001600160a01b03168015614a4c57604051632c18df3360e01b81526001600160e01b0319831660048201526001600160a01b03821660248201526044016102c9565b6040805180820182526001600160a01b03808a16825261ffff80881660208085019182526001600160e01b0319881660009081528b8252958620945185549251909316600160a01b026001600160b01b0319909216929093169190911717909155600180880180549182018155835291206008820401805460e085901c60046007909416939093026101000a92830263ffffffff909302191691909117905583614af5816158a0565b94505050508080614b0590615732565b9150506149c3565b600080600080614b1d8686614c35565b90925090506000826003811115614b3657614b36615624565b14614b475750915060009050613d1b565b6000614b5282614c1d565b9350935050509250929050565b600081614b7484670de0b6b3a76400006158c2565b614b7e91906157b5565b9050614b8a82846158e1565b15610aed57610aea6001826155d8565b600080600080614b1d8686614cb1565b6000610aea83836040518060400160405280601781526020017f6d756c7469706c69636174696f6e206f766572666c6f77000000000000000000815250614d24565b6040805160208101909152600081526040518060200160405280614c14856000015185614baa565b90529392505050565b8051600090610aed90670de0b6b3a7640000906157b5565b6000614c4d6040518060200160405280600081525090565b600080614c5e866000015186614d77565b90925090506000826003811115614c7757614c77615624565b14614c9657506040805160208101909152600081529092509050613d1b565b60408051602081019091529081526000969095509350505050565b6000614cc96040518060200160405280600081525090565b600080614cde670de0b6b3a764000087614d77565b90925090506000826003811115614cf757614cf7615624565b14614d1657506040805160208101909152600081529092509050613d1b565b614b52818660000151614db6565b6000831580614d31575082155b15614d3e575060006108a9565b6000614d4a84866158c2565b905083614d5786836157b5565b1483906114c55760405162461bcd60e51b81526004016102c9919061517d565b60008083614d8a57506000905080613d1b565b83830283614d9886836157b5565b14614dab57600260009250925050613d1b565b600092509050613d1b565b6000614dce6040518060200160405280600081525090565b600080614de386670de0b6b3a7640000614d77565b90925090506000826003811115614dfc57614dfc615624565b14614e1b57506040805160208101909152600081529092509050613d1b565b600080614e288388614e81565b90925090506000826003811115614e4157614e41615624565b14614e645781604051806020016040528060008152509550955050505050613d1b565b604080516020810190915290815260009890975095505050505050565b60008082614e955750600190506000613d1b565b6000614ea184866157b5565b915091509250929050565b828054614eb8906154d0565b90600052602060002090601f016020900481019282614eda5760008555614f20565b82601f10614ef357805160ff1916838001178555614f20565b82800160010185558215614f20579182015b82811115614f20578251825591602001919060010190614f05565b50614f2c929150614f30565b5090565b5b80821115614f2c5760008155600101614f31565b6001600160a01b038116811461254d57600080fd5b60008060408385031215614f6d57600080fd5b8235614f7881614f45565b946020939093013593505050565b8035614f9181614f45565b919050565b634e487b7160e01b600052604160045260246000fd5b604051601f8201601f1916810167ffffffffffffffff81118282101715614fd557614fd5614f96565b604052919050565b600067ffffffffffffffff821115614ff757614ff7614f96565b50601f01601f191660200190565b600061501861501384614fdd565b614fac565b905082815283838301111561502c57600080fd5b828260208301376000602084830101529392505050565b600082601f83011261505457600080fd5b610aea83833560208501615005565b600080600080600080600080610100898b03121561508057600080fd5b883561508b81614f45565b9750602089013561509b81614f45565b965060408901356150ab81614f45565b955060608901356150bb81614f45565b9450608089013567ffffffffffffffff808211156150d857600080fd5b6150e48c838d01615043565b955060a08b01359150808211156150fa57600080fd5b506151078b828c01615043565b93505060c0890135915060e089013590509295985092959890939650565b60005b83811015615140578181015183820152602001615128565b8381111561155b5750506000910152565b60008151808452615169816020860160208601615125565b601f01601f19169290920160200192915050565b602081526000610aea6020830184615151565b6000602082840312156151a257600080fd5b5035919050565b6000602082840312156151bb57600080fd5b81356108a981614f45565b60ff8116811461254d57600080fd5b8035614f91816151c6565b60008060008060008060008060006101208a8c0312156151ff57600080fd5b893561520a81614f45565b985060208a013561521a81614f45565b975061522860408b01614f86565b965060608a0135955060808a013567ffffffffffffffff8082111561524c57600080fd5b6152588d838e01615043565b965060a08c013591508082111561526e57600080fd5b5061527b8c828d01615043565b94505061528a60c08b016151d5565b925060e08a013591506101008a013590509295985092959850929598565b801515811461254d57600080fd5b600080600080606085870312156152cc57600080fd5b84356152d781614f45565b935060208501356152e7816152a8565b9250604085013567ffffffffffffffff8082111561530457600080fd5b818701915087601f83011261531857600080fd5b81358181111561532757600080fd5b88602082850101111561533957600080fd5b95989497505060200194505050565b60006020828403121561535a57600080fd5b813567ffffffffffffffff81111561537157600080fd5b8201601f8101841361538257600080fd5b612aa984823560208401615005565b6020808252825182820181905260009190848201906040850190845b818110156153d25783516001600160a01b0316835292840192918401916001016153ad565b50909695505050505050565b600080604083850312156153f157600080fd5b82356153fc81614f45565b9150602083013561540c81614f45565b809150509250929050565b60008060006060848603121561542c57600080fd5b833561543781614f45565b9250602084013561544781614f45565b929592945050506040919091013590565b60008060006060848603121561546d57600080fd5b833561547881614f45565b925060208401359150604084013561548f81614f45565b809150509250925092565b6000602082840312156154ac57600080fd5b81516108a9816151c6565b6000602082840312156154c957600080fd5b5051919050565b600181811c908216806154e457607f821691505b602082108114156118b057634e487b7160e01b600052602260045260246000fd5b60006020828403121561551757600080fd5b81516108a9816152a8565b60008060006060848603121561553757600080fd5b835161554281614f45565b6020850151909350615553816152a8565b604085015190925067ffffffffffffffff81111561557057600080fd5b8401601f8101861361558157600080fd5b805161558f61501382614fdd565b8181528760208385010111156155a457600080fd5b6155b5826020830160208601615125565b8093505050509250925092565b634e487b7160e01b600052601160045260246000fd5b600082198211156155eb576155eb6155c2565b500190565b60006020828403121561560257600080fd5b81516108a981614f45565b60008282101561561f5761561f6155c2565b500390565b634e487b7160e01b600052602160045260246000fd5b6001600160a01b039384168152919092166020820152604081019190915260600190565b600067ffffffffffffffff82111561567857615678614f96565b5060051b60200190565b6000602080838503121561569557600080fd5b825167ffffffffffffffff8111156156ac57600080fd5b8301601f810185136156bd57600080fd5b80516156cb6150138261565e565b81815260059190911b820183019083810190878311156156ea57600080fd5b928401925b8284101561571157835161570281614f45565b825292840192908401906156ef565b979650505050505050565b634e487b7160e01b600052603260045260246000fd5b6000600019821415615746576157466155c2565b5060010190565b6000825161575f818460208701615125565b9190910192915050565b634e487b7160e01b600052603160045260246000fd5b600060ff821660ff811415615796576157966155c2565b60010192915050565b634e487b7160e01b600052601260045260246000fd5b6000826157c4576157c461579f565b500490565b600080604083850312156157dc57600080fd5b505080516020909101519092909150565b6000602080838503121561580057600080fd5b825167ffffffffffffffff81111561581757600080fd5b8301601f8101851361582857600080fd5b80516158366150138261565e565b81815260059190911b8201830190838101908783111561585557600080fd5b928401925b828410156157115783516001600160e01b03198116811461587b5760008081fd5b8252928401929084019061585a565b634e487b7160e01b600052600160045260246000fd5b600061ffff808316818114156158b8576158b86155c2565b6001019392505050565b60008160001904831182151516156158dc576158dc6155c2565b500290565b6000826158f0576158f061579f565b50069056fec8fcad8db84d3cc18b4c41d551ea0ee66dd599cde068d998e57d5e09332c131cddf252ad1be2c89b69c2b068fc378daa952ba7f163c4a11628f55a4df523b3efa164736f6c634300080a000a",
    "linkReferences": {}
  },
  "methodIdentifiers": {
    "_becomeImplementation(bytes)": "56e67728",
    "_listExtensions()": "6333d001",
    "_prepare()": "1db78944",
    "_registerExtension(address,address)": "89cd9855",
    "_setImplementationSafe(address,bool,bytes)": "50d85b73",
    "_updatePlugin(address)": "19f496c8",
    "_withdrawAdminFees(uint256)": "a7b820df",
    "_withdrawFuseFees(uint256)": "a03dce8d",
    "accrualBlockNumber()": "6c540baf",
    "adminFeeMantissa()": "8d02d9a1",
    "borrow(uint256)": "c5ebeaec",
    "borrowIndex()": "aa5af0fd",
    "comptroller()": "5fe3b567",
    "contractType()": "cb2ef6f7",
    "decimals()": "313ce567",
    "feeSeizeShareMantissa()": "be99f119",
    "fuseAdmin()": "15761d51",
    "fuseFeeMantissa()": "dbfe7c19",
    "getCash()": "3b1d21a2",
    "implementation()": "5c60da1b",
    "initialize(address,address,address,address,string,string,uint256,uint256)": "06db3ecd",
    "initialize(address,address,address,uint256,string,string,uint8,uint256,uint256)": "219ef65c",
    "interestRateModel()": "f3fdb15a",
    "isCEther()": "ac784ddc",
    "liquidateBorrow(address,uint256,address)": "f5e3c462",
    "marketFixed()": "0e616b48",
    "mint(uint256)": "a0712d68",
    "name()": "06fdde03",
    "plugin()": "ef01df4f",
    "protocolSeizeShareMantissa()": "6752e702",
    "redeem(uint256)": "db006a75",
    "redeemUnderlying(uint256)": "852a12e3",
    "repayBorrow(uint256)": "0e752702",
    "repayBorrowBehalf(address,uint256)": "2608f818",
    "reserveFactorMantissa()": "173b9904",
    "seize(address,address,uint256)": "b2a02ff1",
    "selfTransferIn(address,uint256)": "135f1334",
    "selfTransferOut(address,uint256)": "067db1b3",
    "symbol()": "95d89b41",
    "totalAdminFees()": "61feacff",
    "totalBorrows()": "47bd3718",
    "totalFuseFees()": "dc028ab1",
    "totalReserves()": "8f840ddd",
    "totalSupply()": "18160ddd",
    "underlying()": "6f307dc3"
  }
}