{
  "address": "0xBAA7BE260dbA0DfD53C9C85Ff67585f7C08892a5",
  "abi": [
    {
      "anonymous": false,
      "inputs": [
        {
          "indexed": false,
          "internalType": "uint8",
          "name": "version",
          "type": "uint8"
        }
      ],
      "name": "Initialized",
      "type": "event"
    },
    {
      "inputs": [],
      "name": "directory",
      "outputs": [
        {
          "internalType": "contract FusePoolDirectory",
          "name": "",
          "type": "address"
        }
      ],
      "stateMutability": "view",
      "type": "function"
    },
    {
      "inputs": [
        {
          "internalType": "contract IComptroller",
          "name": "comptroller",
          "type": "address"
        },
        {
          "internalType": "address",
          "name": "user",
          "type": "address"
        }
      ],
      "name": "getPoolAssetsByUser",
      "outputs": [
        {
          "components": [
            {
              "internalType": "address",
              "name": "cToken",
              "type": "address"
            },
            {
              "internalType": "address",
              "name": "underlyingToken",
              "type": "address"
            },
            {
              "internalType": "string",
              "name": "underlyingName",
              "type": "string"
            },
            {
              "internalType": "string",
              "name": "underlyingSymbol",
              "type": "string"
            },
            {
              "internalType": "uint256",
              "name": "underlyingDecimals",
              "type": "uint256"
            },
            {
              "internalType": "uint256",
              "name": "underlyingBalance",
              "type": "uint256"
            },
            {
              "internalType": "uint256",
              "name": "supplyRatePerBlock",
              "type": "uint256"
            },
            {
              "internalType": "uint256",
              "name": "borrowRatePerBlock",
              "type": "uint256"
            },
            {
              "internalType": "uint256",
              "name": "totalSupply",
              "type": "uint256"
            },
            {
              "internalType": "uint256",
              "name": "totalBorrow",
              "type": "uint256"
            },
            {
              "internalType": "uint256",
              "name": "supplyBalance",
              "type": "uint256"
            },
            {
              "internalType": "uint256",
              "name": "borrowBalance",
              "type": "uint256"
            },
            {
              "internalType": "uint256",
              "name": "liquidity",
              "type": "uint256"
            },
            {
              "internalType": "bool",
              "name": "membership",
              "type": "bool"
            },
            {
              "internalType": "uint256",
              "name": "exchangeRate",
              "type": "uint256"
            },
            {
              "internalType": "uint256",
              "name": "underlyingPrice",
              "type": "uint256"
            },
            {
              "internalType": "address",
              "name": "oracle",
              "type": "address"
            },
            {
              "internalType": "uint256",
              "name": "collateralFactor",
              "type": "uint256"
            },
            {
              "internalType": "uint256",
              "name": "reserveFactor",
              "type": "uint256"
            },
            {
              "internalType": "uint256",
              "name": "adminFee",
              "type": "uint256"
            },
            {
              "internalType": "uint256",
              "name": "fuseFee",
              "type": "uint256"
            },
            {
              "internalType": "bool",
              "name": "borrowGuardianPaused",
              "type": "bool"
            },
            {
              "internalType": "bool",
              "name": "mintGuardianPaused",
              "type": "bool"
            }
          ],
          "internalType": "struct FusePoolLens.FusePoolAsset[]",
          "name": "",
          "type": "tuple[]"
        }
      ],
      "stateMutability": "nonpayable",
      "type": "function"
    },
    {
      "inputs": [
        {
          "internalType": "contract IComptroller",
          "name": "comptroller",
          "type": "address"
        }
      ],
      "name": "getPoolAssetsWithData",
      "outputs": [
        {
          "components": [
            {
              "internalType": "address",
              "name": "cToken",
              "type": "address"
            },
            {
              "internalType": "address",
              "name": "underlyingToken",
              "type": "address"
            },
            {
              "internalType": "string",
              "name": "underlyingName",
              "type": "string"
            },
            {
              "internalType": "string",
              "name": "underlyingSymbol",
              "type": "string"
            },
            {
              "internalType": "uint256",
              "name": "underlyingDecimals",
              "type": "uint256"
            },
            {
              "internalType": "uint256",
              "name": "underlyingBalance",
              "type": "uint256"
            },
            {
              "internalType": "uint256",
              "name": "supplyRatePerBlock",
              "type": "uint256"
            },
            {
              "internalType": "uint256",
              "name": "borrowRatePerBlock",
              "type": "uint256"
            },
            {
              "internalType": "uint256",
              "name": "totalSupply",
              "type": "uint256"
            },
            {
              "internalType": "uint256",
              "name": "totalBorrow",
              "type": "uint256"
            },
            {
              "internalType": "uint256",
              "name": "supplyBalance",
              "type": "uint256"
            },
            {
              "internalType": "uint256",
              "name": "borrowBalance",
              "type": "uint256"
            },
            {
              "internalType": "uint256",
              "name": "liquidity",
              "type": "uint256"
            },
            {
              "internalType": "bool",
              "name": "membership",
              "type": "bool"
            },
            {
              "internalType": "uint256",
              "name": "exchangeRate",
              "type": "uint256"
            },
            {
              "internalType": "uint256",
              "name": "underlyingPrice",
              "type": "uint256"
            },
            {
              "internalType": "address",
              "name": "oracle",
              "type": "address"
            },
            {
              "internalType": "uint256",
              "name": "collateralFactor",
              "type": "uint256"
            },
            {
              "internalType": "uint256",
              "name": "reserveFactor",
              "type": "uint256"
            },
            {
              "internalType": "uint256",
              "name": "adminFee",
              "type": "uint256"
            },
            {
              "internalType": "uint256",
              "name": "fuseFee",
              "type": "uint256"
            },
            {
              "internalType": "bool",
              "name": "borrowGuardianPaused",
              "type": "bool"
            },
            {
              "internalType": "bool",
              "name": "mintGuardianPaused",
              "type": "bool"
            }
          ],
          "internalType": "struct FusePoolLens.FusePoolAsset[]",
          "name": "",
          "type": "tuple[]"
        }
      ],
      "stateMutability": "nonpayable",
      "type": "function"
    },
    {
      "inputs": [
        {
          "internalType": "contract IComptroller",
          "name": "comptroller",
          "type": "address"
        }
      ],
      "name": "getPoolSummary",
      "outputs": [
        {
          "internalType": "uint256",
          "name": "",
          "type": "uint256"
        },
        {
          "internalType": "uint256",
          "name": "",
          "type": "uint256"
        },
        {
          "internalType": "address[]",
          "name": "",
          "type": "address[]"
        },
        {
          "internalType": "string[]",
          "name": "",
          "type": "string[]"
        },
        {
          "internalType": "bool",
          "name": "",
          "type": "bool"
        }
      ],
      "stateMutability": "nonpayable",
      "type": "function"
    },
    {
      "inputs": [
        {
          "internalType": "address",
          "name": "account",
          "type": "address"
        }
      ],
      "name": "getPoolsByAccountWithData",
      "outputs": [
        {
          "internalType": "uint256[]",
          "name": "",
          "type": "uint256[]"
        },
        {
          "components": [
            {
              "internalType": "string",
              "name": "name",
              "type": "string"
            },
            {
              "internalType": "address",
              "name": "creator",
              "type": "address"
            },
            {
              "internalType": "address",
              "name": "comptroller",
              "type": "address"
            },
            {
              "internalType": "uint256",
              "name": "blockPosted",
              "type": "uint256"
            },
            {
              "internalType": "uint256",
              "name": "timestampPosted",
              "type": "uint256"
            }
          ],
          "internalType": "struct FusePoolDirectory.FusePool[]",
          "name": "",
          "type": "tuple[]"
        },
        {
          "components": [
            {
              "internalType": "uint256",
              "name": "totalSupply",
              "type": "uint256"
            },
            {
              "internalType": "uint256",
              "name": "totalBorrow",
              "type": "uint256"
            },
            {
              "internalType": "address[]",
              "name": "underlyingTokens",
              "type": "address[]"
            },
            {
              "internalType": "string[]",
              "name": "underlyingSymbols",
              "type": "string[]"
            },
            {
              "internalType": "bool",
              "name": "whitelistedAdmin",
              "type": "bool"
            }
          ],
          "internalType": "struct FusePoolLens.FusePoolData[]",
          "name": "",
          "type": "tuple[]"
        },
        {
          "internalType": "bool[]",
          "name": "",
          "type": "bool[]"
        }
      ],
      "stateMutability": "nonpayable",
      "type": "function"
    },
    {
      "inputs": [
        {
          "internalType": "address",
          "name": "user",
          "type": "address"
        }
      ],
      "name": "getPoolsOfUserWithData",
      "outputs": [
        {
          "internalType": "uint256[]",
          "name": "",
          "type": "uint256[]"
        },
        {
          "components": [
            {
              "internalType": "string",
              "name": "name",
              "type": "string"
            },
            {
              "internalType": "address",
              "name": "creator",
              "type": "address"
            },
            {
              "internalType": "address",
              "name": "comptroller",
              "type": "address"
            },
            {
              "internalType": "uint256",
              "name": "blockPosted",
              "type": "uint256"
            },
            {
              "internalType": "uint256",
              "name": "timestampPosted",
              "type": "uint256"
            }
          ],
          "internalType": "struct FusePoolDirectory.FusePool[]",
          "name": "",
          "type": "tuple[]"
        },
        {
          "components": [
            {
              "internalType": "uint256",
              "name": "totalSupply",
              "type": "uint256"
            },
            {
              "internalType": "uint256",
              "name": "totalBorrow",
              "type": "uint256"
            },
            {
              "internalType": "address[]",
              "name": "underlyingTokens",
              "type": "address[]"
            },
            {
              "internalType": "string[]",
              "name": "underlyingSymbols",
              "type": "string[]"
            },
            {
              "internalType": "bool",
              "name": "whitelistedAdmin",
              "type": "bool"
            }
          ],
          "internalType": "struct FusePoolLens.FusePoolData[]",
          "name": "",
          "type": "tuple[]"
        },
        {
          "internalType": "bool[]",
          "name": "",
          "type": "bool[]"
        }
      ],
      "stateMutability": "nonpayable",
      "type": "function"
    },
    {
      "inputs": [
        {
          "internalType": "bool",
          "name": "whitelistedAdmin",
          "type": "bool"
        }
      ],
      "name": "getPublicPoolsByVerificationWithData",
      "outputs": [
        {
          "internalType": "uint256[]",
          "name": "",
          "type": "uint256[]"
        },
        {
          "components": [
            {
              "internalType": "string",
              "name": "name",
              "type": "string"
            },
            {
              "internalType": "address",
              "name": "creator",
              "type": "address"
            },
            {
              "internalType": "address",
              "name": "comptroller",
              "type": "address"
            },
            {
              "internalType": "uint256",
              "name": "blockPosted",
              "type": "uint256"
            },
            {
              "internalType": "uint256",
              "name": "timestampPosted",
              "type": "uint256"
            }
          ],
          "internalType": "struct FusePoolDirectory.FusePool[]",
          "name": "",
          "type": "tuple[]"
        },
        {
          "components": [
            {
              "internalType": "uint256",
              "name": "totalSupply",
              "type": "uint256"
            },
            {
              "internalType": "uint256",
              "name": "totalBorrow",
              "type": "uint256"
            },
            {
              "internalType": "address[]",
              "name": "underlyingTokens",
              "type": "address[]"
            },
            {
              "internalType": "string[]",
              "name": "underlyingSymbols",
              "type": "string[]"
            },
            {
              "internalType": "bool",
              "name": "whitelistedAdmin",
              "type": "bool"
            }
          ],
          "internalType": "struct FusePoolLens.FusePoolData[]",
          "name": "",
          "type": "tuple[]"
        },
        {
          "internalType": "bool[]",
          "name": "",
          "type": "bool[]"
        }
      ],
      "stateMutability": "nonpayable",
      "type": "function"
    },
    {
      "inputs": [],
      "name": "getPublicPoolsWithData",
      "outputs": [
        {
          "internalType": "uint256[]",
          "name": "",
          "type": "uint256[]"
        },
        {
          "components": [
            {
              "internalType": "string",
              "name": "name",
              "type": "string"
            },
            {
              "internalType": "address",
              "name": "creator",
              "type": "address"
            },
            {
              "internalType": "address",
              "name": "comptroller",
              "type": "address"
            },
            {
              "internalType": "uint256",
              "name": "blockPosted",
              "type": "uint256"
            },
            {
              "internalType": "uint256",
              "name": "timestampPosted",
              "type": "uint256"
            }
          ],
          "internalType": "struct FusePoolDirectory.FusePool[]",
          "name": "",
          "type": "tuple[]"
        },
        {
          "components": [
            {
              "internalType": "uint256",
              "name": "totalSupply",
              "type": "uint256"
            },
            {
              "internalType": "uint256",
              "name": "totalBorrow",
              "type": "uint256"
            },
            {
              "internalType": "address[]",
              "name": "underlyingTokens",
              "type": "address[]"
            },
            {
              "internalType": "string[]",
              "name": "underlyingSymbols",
              "type": "string[]"
            },
            {
              "internalType": "bool",
              "name": "whitelistedAdmin",
              "type": "bool"
            }
          ],
          "internalType": "struct FusePoolLens.FusePoolData[]",
          "name": "",
          "type": "tuple[]"
        },
        {
          "internalType": "bool[]",
          "name": "",
          "type": "bool[]"
        }
      ],
      "stateMutability": "nonpayable",
      "type": "function"
    },
    {
      "inputs": [
        {
          "internalType": "address",
          "name": "account",
          "type": "address"
        }
      ],
      "name": "getWhitelistedPoolsByAccount",
      "outputs": [
        {
          "internalType": "uint256[]",
          "name": "",
          "type": "uint256[]"
        },
        {
          "components": [
            {
              "internalType": "string",
              "name": "name",
              "type": "string"
            },
            {
              "internalType": "address",
              "name": "creator",
              "type": "address"
            },
            {
              "internalType": "address",
              "name": "comptroller",
              "type": "address"
            },
            {
              "internalType": "uint256",
              "name": "blockPosted",
              "type": "uint256"
            },
            {
              "internalType": "uint256",
              "name": "timestampPosted",
              "type": "uint256"
            }
          ],
          "internalType": "struct FusePoolDirectory.FusePool[]",
          "name": "",
          "type": "tuple[]"
        }
      ],
      "stateMutability": "view",
      "type": "function"
    },
    {
      "inputs": [
        {
          "internalType": "address",
          "name": "account",
          "type": "address"
        }
      ],
      "name": "getWhitelistedPoolsByAccountWithData",
      "outputs": [
        {
          "internalType": "uint256[]",
          "name": "",
          "type": "uint256[]"
        },
        {
          "components": [
            {
              "internalType": "string",
              "name": "name",
              "type": "string"
            },
            {
              "internalType": "address",
              "name": "creator",
              "type": "address"
            },
            {
              "internalType": "address",
              "name": "comptroller",
              "type": "address"
            },
            {
              "internalType": "uint256",
              "name": "blockPosted",
              "type": "uint256"
            },
            {
              "internalType": "uint256",
              "name": "timestampPosted",
              "type": "uint256"
            }
          ],
          "internalType": "struct FusePoolDirectory.FusePool[]",
          "name": "",
          "type": "tuple[]"
        },
        {
          "components": [
            {
              "internalType": "uint256",
              "name": "totalSupply",
              "type": "uint256"
            },
            {
              "internalType": "uint256",
              "name": "totalBorrow",
              "type": "uint256"
            },
            {
              "internalType": "address[]",
              "name": "underlyingTokens",
              "type": "address[]"
            },
            {
              "internalType": "string[]",
              "name": "underlyingSymbols",
              "type": "string[]"
            },
            {
              "internalType": "bool",
              "name": "whitelistedAdmin",
              "type": "bool"
            }
          ],
          "internalType": "struct FusePoolLens.FusePoolData[]",
          "name": "",
          "type": "tuple[]"
        },
        {
          "internalType": "bool[]",
          "name": "",
          "type": "bool[]"
        }
      ],
      "stateMutability": "nonpayable",
      "type": "function"
    },
    {
      "inputs": [
        {
          "internalType": "contract FusePoolDirectory",
          "name": "_directory",
          "type": "address"
        },
        {
          "internalType": "string",
          "name": "_name",
          "type": "string"
        },
        {
          "internalType": "string",
          "name": "_symbol",
          "type": "string"
        },
        {
          "internalType": "address[]",
          "name": "_hardcodedAddresses",
          "type": "address[]"
        },
        {
          "internalType": "string[]",
          "name": "_hardcodedNames",
          "type": "string[]"
        },
        {
          "internalType": "string[]",
          "name": "_hardcodedSymbols",
          "type": "string[]"
        },
        {
          "internalType": "string[]",
          "name": "_uniswapLPTokenNames",
          "type": "string[]"
        },
        {
          "internalType": "string[]",
          "name": "_uniswapLPTokenSymbols",
          "type": "string[]"
        },
        {
          "internalType": "string[]",
          "name": "_uniswapLPTokenDisplayNames",
          "type": "string[]"
        }
      ],
      "name": "initialize",
      "outputs": [],
      "stateMutability": "nonpayable",
      "type": "function"
    },
    {
      "inputs": [],
      "name": "name",
      "outputs": [
        {
          "internalType": "string",
          "name": "",
          "type": "string"
        }
      ],
      "stateMutability": "view",
      "type": "function"
    },
    {
      "inputs": [],
      "name": "symbol",
      "outputs": [
        {
          "internalType": "string",
          "name": "",
          "type": "string"
        }
      ],
      "stateMutability": "view",
      "type": "function"
    },
    {
      "inputs": [
        {
          "internalType": "contract ICToken",
          "name": "cToken",
          "type": "address"
        },
        {
          "components": [
            {
              "internalType": "bytes",
              "name": "block",
              "type": "bytes"
            },
            {
              "internalType": "bytes",
              "name": "accountProofNodesRlp",
              "type": "bytes"
            },
            {
              "internalType": "bytes",
              "name": "reserveAndTimestampProofNodesRlp",
              "type": "bytes"
            },
            {
              "internalType": "bytes",
              "name": "priceAccumulatorProofNodesRlp",
              "type": "bytes"
            }
          ],
          "internalType": "struct UniswapOracle.ProofData",
          "name": "proofData",
          "type": "tuple"
        }
      ],
      "name": "verifyPrice",
      "outputs": [
        {
          "internalType": "uint256",
          "name": "",
          "type": "uint256"
        },
        {
          "internalType": "uint256",
          "name": "",
          "type": "uint256"
        }
      ],
      "stateMutability": "nonpayable",
      "type": "function"
    }
  ],
  "transactionHash": "0x8ee05091f2e1258ba5e1ebff0c137c40002f15f8b7133ffd5289129e1fc5ef24",
  "args": [],
  "numDeployments": 1,
  "bytecode": {
    "object": "0x608060405234801561001057600080fd5b50613b34806100206000396000f3fe608060405234801561001057600080fd5b50600436106100ea5760003560e01c806395d89b411161008c578063cd344be811610066578063cd344be814610203578063d0a164fb1461022b578063d64996e514610233578063e05811401461024657600080fd5b806395d89b41146101af578063c3530a63146101b7578063c41c2f24146101d857600080fd5b80633a1eb656116100c85780633a1eb65614610140578063516786841461015557806359d2fea614610178578063707333751461019c57600080fd5b806306fdde03146100ef5780630c5eb5a41461010d57806327e16c1f1461012d575b600080fd5b6100f7610259565b6040516101049190612b37565b60405180910390f35b61012061011b366004612b69565b6102e7565b6040516101049190612ba2565b61012061013b366004612d2f565b61036f565b61015361014e366004612f58565b6103e7565b005b610168610163366004612d2f565b610860565b6040516101049493929190613220565b61018b610186366004612d2f565b610903565b604051610104959493929190613300565b6101686101aa366004612d2f565b61114c565b6100f761115e565b6101ca6101c5366004612d2f565b61116b565b604051610104929190613346565b6005546101eb906001600160a01b031681565b6040516001600160a01b039091168152602001610104565b610216610211366004613374565b6114d2565b60408051928352602083019190915201610104565b61016861161a565b6101686102413660046133cd565b6116bf565b610168610254366004612d2f565b6116ff565b60018054610266906133ea565b80601f0160208091040260200160405190810160405280929190818152602001828054610292906133ea565b80156102df5780601f106102b4576101008083540402835291602001916102df565b820191906000526020600020905b8154815290600101906020018083116102c257829003601f168201915b505050505081565b604051632aff3bff60e21b81526001600160a01b03828116600483015260609160009161036791869182169063abfceffc90602401600060405180830381865afa158015610339573d6000803e3d6000fd5b505050506040513d6000823e601f3d908101601f191682016040526103619190810190613425565b8561173f565b949350505050565b60606103e182836001600160a01b031663b0772d0b6040518163ffffffff1660e01b8152600401600060405180830381865afa1580156103b3573d6000803e3d6000fd5b505050506040513d6000823e601f3d908101601f191682016040526103db9190810190613425565b3361173f565b92915050565b600054610100900460ff16158080156104075750600054600160ff909116105b806104215750303b158015610421575060005460ff166001145b6104895760405162461bcd60e51b815260206004820152602e60248201527f496e697469616c697a61626c653a20636f6e747261637420697320616c72656160448201526d191e481a5b9a5d1a585b1a5e995960921b60648201526084015b60405180910390fd5b6000805460ff1916600117905580156104ac576000805461ff0019166101001790555b6001600160a01b038a166105215760405162461bcd60e51b815260206004820152603660248201527f46757365506f6f6c4469726563746f727920696e7374616e63652063616e6e6f6044820152753a103132903a3432903d32b9379030b2323932b9b99760511b6064820152608401610480565b85518751148015610533575084518751145b61058e5760405162461bcd60e51b815260206004820152602660248201527f48617264636f64656420616464726573736573206c656e67746873206e6f742060448201526532b8bab0b61760d11b6064820152608401610480565b825184511480156105a0575081518451145b6105fe5760405162461bcd60e51b815260206004820152602960248201527f556e6973776170204c5020746f6b656e206e616d6573206c656e67746873206e60448201526837ba1032b8bab0b61760b91b6064820152608401610480565b600580546001600160a01b0319166001600160a01b038c16179055885161062c9060019060208c0190612973565b5087516106409060029060208b0190612973565b5060005b875181101561071e57604051806040016040528088838151811061066a5761066a6134be565b60200260200101518152602001878381518110610689576106896134be565b6020026020010151815250600360008a84815181106106aa576106aa6134be565b60200260200101516001600160a01b03166001600160a01b0316815260200190815260200160002060008201518160000190805190602001906106ee929190612973565b5060208281015180516107079260018501920190612973565b509050508080610716906134ea565b915050610644565b5060005b845181101561080d576004604051806060016040528087848151811061074a5761074a6134be565b60200260200101518152602001868481518110610769576107696134be565b60200260200101518152602001858481518110610788576107886134be565b6020908102919091018101519091528254600181018455600093845292819020825180519394600302909101926107c29284920190612973565b5060208281015180516107db9260018501920190612973565b50604082015180516107f7916002840191602090910190612973565b5050508080610805906134ea565b915050610722565b508015610854576000805461ff0019169055604051600181527f7f26b83ff96e1f2b6a682f133852f6798a09c465da95921460cefb38474024989060200160405180910390a15b50505050505050505050565b6005546040516351f6c8e360e11b81526001600160a01b03838116600483015260609283928392839260009283929091169063a3ed91c6906024015b600060405180830381865afa1580156108b9573d6000803e3d6000fd5b505050506040513d6000823e601f3d908101601f191682016040526108e1919081019061363f565b915091506000806108f183612517565b949a9399509750929550909350505050565b60008060608060008060009050600080886001600160a01b031663b0772d0b6040518163ffffffff1660e01b8152600401600060405180830381865afa158015610951573d6000803e3d6000fd5b505050506040513d6000823e601f3d908101601f191682016040526109799190810190613425565b9050600081516001600160401b0381111561099657610996612d5c565b6040519080825280602002602001820160405280156109bf578160200160208202803683370190505b509050600082516001600160401b038111156109dd576109dd612d5c565b604051908082528060200260200182016040528015610a1057816020015b60608152602001906001900390816109fb5790505b50905060008b6001600160a01b0316637dc0d1d06040518163ffffffff1660e01b8152600401602060405180830381865afa158015610a53573d6000803e3d6000fd5b505050506040513d601f19601f82011682018060405250810190610a7791906136fa565b905060005b8451811015611044576000858281518110610a9957610a996134be565b6020026020010151905060008e6001600160a01b0316638e8f294b836040518263ffffffff1660e01b8152600401610ae091906001600160a01b0391909116815260200190565b6040805180830381865afa158015610afc573d6000803e3d6000fd5b505050506040513d601f19601f82011682018060405250810190610b209190613722565b50905080610b2f575050611032565b6000826001600160a01b03166373acee986040518163ffffffff1660e01b81526004016020604051808303816000875af1158015610b71573d6000803e3d6000fd5b505050506040513d601f19601f82011682018060405250810190610b959190613750565b90506000836001600160a01b031663dc028ab16040518163ffffffff1660e01b8152600401602060405180830381865afa158015610bd7573d6000803e3d6000fd5b505050506040513d601f19601f82011682018060405250810190610bfb9190613750565b846001600160a01b03166361feacff6040518163ffffffff1660e01b8152600401602060405180830381865afa158015610c39573d6000803e3d6000fd5b505050506040513d601f19601f82011682018060405250810190610c5d9190613750565b856001600160a01b0316638f840ddd6040518163ffffffff1660e01b8152600401602060405180830381865afa158015610c9b573d6000803e3d6000fd5b505050506040513d601f19601f82011682018060405250810190610cbf9190613750565b610cc99190613769565b610cd39190613769565b82856001600160a01b0316633b1d21a26040518163ffffffff1660e01b8152600401602060405180830381865afa158015610d12573d6000803e3d6000fd5b505050506040513d601f19601f82011682018060405250810190610d369190613750565b610d409190613769565b610d4a9190613781565b60405163fc57d4df60e01b81526001600160a01b03868116600483015291925060009188169063fc57d4df90602401602060405180830381865afa158015610d96573d6000803e3d6000fd5b505050506040513d601f19601f82011682018060405250810190610dba9190613750565b9050670de0b6b3a7640000610dcf8285613798565b610dd991906137b7565b610de3908d613769565b9b50670de0b6b3a7640000610df88284613798565b610e0291906137b7565b610e0c908c613769565b9a50846001600160a01b031663ac784ddc6040518163ffffffff1660e01b8152600401602060405180830381865afa158015610e4c573d6000803e3d6000fd5b505050506040513d601f19601f82011682018060405250810190610e7091906137d9565b15610f56576000898781518110610e8957610e896134be565b60200260200101906001600160a01b031690816001600160a01b03168152505060028054610eb6906133ea565b80601f0160208091040260200160405190810160405280929190818152602001828054610ee2906133ea565b8015610f2f5780601f10610f0457610100808354040283529160200191610f2f565b820191906000526020600020905b815481529060010190602001808311610f1257829003601f168201915b5050505050888781518110610f4657610f466134be565b602002602001018190525061102c565b846001600160a01b0316636f307dc36040518163ffffffff1660e01b8152600401602060405180830381865afa158015610f94573d6000803e3d6000fd5b505050506040513d601f19601f82011682018060405250810190610fb891906136fa565b898781518110610fca57610fca6134be565b60200260200101906001600160a01b031690816001600160a01b03168152505061100c898781518110610fff57610fff6134be565b602002602001015161271e565b9050888781518110611020576110206134be565b60200260200101819052505b50505050505b8061103c816134ea565b915050610a7c565b506000600560009054906101000a90046001600160a01b03166001600160a01b03166343e20a1d8e6001600160a01b031663f851a4406040518163ffffffff1660e01b8152600401602060405180830381865afa1580156110a9573d6000803e3d6000fd5b505050506040513d601f19601f820116820180604052508101906110cd91906136fa565b6040516001600160e01b031960e084901b1681526001600160a01b039091166004820152602401602060405180830381865afa158015611111573d6000803e3d6000fd5b505050506040513d601f19601f8201168201806040525081019061113591906137d9565b959d969c50929a5090985092965092945050505050565b6060806060806000806108e18761116b565b60028054610266906133ea565b6060806000600560009054906101000a90046001600160a01b03166001600160a01b031663d88ff1f46040518163ffffffff1660e01b8152600401600060405180830381865afa1580156111c3573d6000803e3d6000fd5b505050506040513d6000823e601f3d908101601f191682016040526111eb91908101906137f6565b90506000805b82518110156112be57600083828151811061120e5761120e6134be565b6020026020010151604001519050806001600160a01b0316639b19251a886040518263ffffffff1660e01b815260040161125791906001600160a01b0391909116815260200190565b602060405180830381865afa158015611274573d6000803e3d6000fd5b505050506040513d601f19601f8201168201806040525081019061129891906137d9565b156112ab57826112a7816134ea565b9350505b50806112b6816134ea565b9150506111f1565b506000816001600160401b038111156112d9576112d9612d5c565b604051908082528060200260200182016040528015611302578160200160208202803683370190505b5090506000826001600160401b0381111561131f5761131f612d5c565b60405190808252806020026020018201604052801561139457816020015b6113816040518060a001604052806060815260200160006001600160a01b0316815260200160006001600160a01b0316815260200160008152602001600081525090565b81526020019060019003908161133d5790505b5090506000805b85518110156114c45760008682815181106113b8576113b86134be565b6020026020010151604001519050806001600160a01b0316639b19251a8b6040518263ffffffff1660e01b815260040161140191906001600160a01b0391909116815260200190565b602060405180830381865afa15801561141e573d6000803e3d6000fd5b505050506040513d601f19601f8201168201806040525081019061144291906137d9565b156114b1578185848151811061145a5761145a6134be565b602002602001018181525050868281518110611478576114786134be565b6020026020010151848481518110611492576114926134be565b602002602001018190525082806114a8906134ea565b935050506114c4565b50806114bc816134ea565b91505061139b565b509197909650945050505050565b6000806000846001600160a01b0316635fe3b5676040518163ffffffff1660e01b8152600401602060405180830381865afa158015611515573d6000803e3d6000fd5b505050506040513d601f19601f8201168201806040525081019061153991906136fa565b6001600160a01b0316637dc0d1d06040518163ffffffff1660e01b8152600401602060405180830381865afa158015611576573d6000803e3d6000fd5b505050506040513d601f19601f8201168201806040525081019061159a91906136fa565b6040516319a6897d60e31b81529091506001600160a01b0382169063cd344be8906115cb9088908890600401613898565b60408051808303816000875af11580156115e9573d6000803e3d6000fd5b505050506040513d601f19601f8201168201806040525081019061160d9190613945565b92509250505b9250929050565b606080606080600080600560009054906101000a90046001600160a01b03166001600160a01b0316634ae26ea16040518163ffffffff1660e01b8152600401600060405180830381865afa158015611676573d6000803e3d6000fd5b505050506040513d6000823e601f3d908101601f1916820160405261169e919081019061363f565b915091506000806116ae83612517565b949993985096509294509092505050565b6005546040516310c51ddf60e11b8152821515600482015260609182918291829160009182916001600160a01b039091169063218a3bbe9060240161089c565b60055460405163f348960d60e01b81526001600160a01b03838116600483015260609283928392839260009283929091169063f348960d9060240161089c565b60606000805b845181101561180e576000866001600160a01b0316638e8f294b878481518110611771576117716134be565b60200260200101516040518263ffffffff1660e01b81526004016117a491906001600160a01b0391909116815260200190565b6040805180830381865afa1580156117c0573d6000803e3d6000fd5b505050506040513d601f19601f820116820180604052508101906117e49190613722565b50905080156117fb57826117f7816134ea565b9350505b5080611806816134ea565b915050611745565b506000816001600160401b0381111561182957611829612d5c565b60405190808252806020026020018201604052801561186257816020015b61184f6129f7565b8152602001906001900390816118475790505b509050600080876001600160a01b0316637dc0d1d06040518163ffffffff1660e01b8152600401602060405180830381865afa1580156118a6573d6000803e3d6000fd5b505050506040513d601f19601f820116820180604052508101906118ca91906136fa565b905060005b875181101561250a576000808a6001600160a01b0316638e8f294b8b85815181106118fc576118fc6134be565b60200260200101516040518263ffffffff1660e01b815260040161192f91906001600160a01b0391909116815260200190565b6040805180830381865afa15801561194b573d6000803e3d6000fd5b505050506040513d601f19601f8201168201806040525081019061196f9190613722565b915091508161197f5750506124f8565b6119876129f7565b60008b858151811061199b5761199b6134be565b6020908102919091018101516001600160a01b03811680855260408051632b1e137760e21b81529051929450909263ac784ddc926004808401938290030181865afa1580156119ee573d6000803e3d6000fd5b505050506040513d601f19601f82011682018060405250810190611a1291906137d9565b15611b565760018054611a24906133ea565b80601f0160208091040260200160405190810160405280929190818152602001828054611a50906133ea565b8015611a9d5780601f10611a7257610100808354040283529160200191611a9d565b820191906000526020600020905b815481529060010190602001808311611a8057829003601f168201915b5050505050826040018190525060028054611ab7906133ea565b80601f0160208091040260200160405190810160405280929190818152602001828054611ae3906133ea565b8015611b305780601f10611b0557610100808354040283529160200191611b30565b820191906000526020600020905b815481529060010190602001808311611b1357829003601f168201915b50505050506060830152601260808301526001600160a01b038b163160a0830152611cbc565b806001600160a01b0316636f307dc36040518163ffffffff1660e01b8152600401602060405180830381865afa158015611b94573d6000803e3d6000fd5b505050506040513d601f19601f82011682018060405250810190611bb891906136fa565b6001600160a01b031660208301819052611bd18161271e565b84604001856060018290528290525050806001600160a01b031663313ce5676040518163ffffffff1660e01b8152600401602060405180830381865afa158015611c1f573d6000803e3d6000fd5b505050506040513d601f19601f82011682018060405250810190611c439190613969565b60ff1660808401526040516370a0823160e01b81526001600160a01b038d811660048301528216906370a0823190602401602060405180830381865afa158015611c91573d6000803e3d6000fd5b505050506040513d601f19601f82011682018060405250810190611cb59190613750565b60a0840152505b806001600160a01b031663ae9d70b06040518163ffffffff1660e01b8152600401602060405180830381865afa158015611cfa573d6000803e3d6000fd5b505050506040513d601f19601f82011682018060405250810190611d1e9190613750565b8260c0018181525050806001600160a01b031663f8f9da286040518163ffffffff1660e01b8152600401602060405180830381865afa158015611d65573d6000803e3d6000fd5b505050506040513d601f19601f82011682018060405250810190611d899190613750565b8260e0018181525050806001600160a01b0316633b1d21a26040518163ffffffff1660e01b8152600401602060405180830381865afa158015611dd0573d6000803e3d6000fd5b505050506040513d601f19601f82011682018060405250810190611df49190613750565b82610180018181525050806001600160a01b03166373acee986040518163ffffffff1660e01b81526004016020604051808303816000875af1158015611e3e573d6000803e3d6000fd5b505050506040513d601f19601f82011682018060405250810190611e629190613750565b82610120018181525050806001600160a01b031663dc028ab16040518163ffffffff1660e01b8152600401602060405180830381865afa158015611eaa573d6000803e3d6000fd5b505050506040513d601f19601f82011682018060405250810190611ece9190613750565b816001600160a01b03166361feacff6040518163ffffffff1660e01b8152600401602060405180830381865afa158015611f0c573d6000803e3d6000fd5b505050506040513d601f19601f82011682018060405250810190611f309190613750565b826001600160a01b0316638f840ddd6040518163ffffffff1660e01b8152600401602060405180830381865afa158015611f6e573d6000803e3d6000fd5b505050506040513d601f19601f82011682018060405250810190611f929190613750565b611f9c9190613769565b611fa69190613769565b826101200151836101800151611fbc9190613769565b611fc69190613781565b610100830152604051633af9e66960e01b81526001600160a01b038c81166004830152821690633af9e669906024016020604051808303816000875af1158015612014573d6000803e3d6000fd5b505050506040513d601f19601f820116820180604052508101906120389190613750565b6101408301526040516395dd919360e01b81526001600160a01b038c811660048301528216906395dd919390602401602060405180830381865afa158015612084573d6000803e3d6000fd5b505050506040513d601f19601f820116820180604052508101906120a89190613750565b61016083015260405163929fe9a160e01b81526001600160a01b038c8116600483015282811660248301528e169063929fe9a190604401602060405180830381865afa1580156120fc573d6000803e3d6000fd5b505050506040513d601f19601f8201168201806040525081019061212091906137d9565b15156101a08301526040805163182df0f560e01b815290516001600160a01b0383169163182df0f59160048083019260209291908290030181865afa15801561216d573d6000803e3d6000fd5b505050506040513d601f19601f820116820180604052508101906121919190613750565b6101c083015260208201516040516315d5220f60e31b81526001600160a01b0391821660048201529087169063aea9107890602401602060405180830381865afa1580156121e3573d6000803e3d6000fd5b505050506040513d601f19601f820116820180604052508101906122079190613750565b6101e08301526001600160a01b038681166102008401819052602084015160405163addd509960e01b8152921660048301529063addd509990602401602060405180830381865afa92505050801561227c575060408051601f3d908101601f19168201909252612279918101906136fa565b60015b61228557612295565b6001600160a01b03166102008301525b8282610220018181525050806001600160a01b031663173b99046040518163ffffffff1660e01b8152600401602060405180830381865afa1580156122de573d6000803e3d6000fd5b505050506040513d601f19601f820116820180604052508101906123029190613750565b82610240018181525050806001600160a01b0316638d02d9a16040518163ffffffff1660e01b8152600401602060405180830381865afa15801561234a573d6000803e3d6000fd5b505050506040513d601f19601f8201168201806040525081019061236e9190613750565b82610260018181525050806001600160a01b031663dbfe7c196040518163ffffffff1660e01b8152600401602060405180830381865afa1580156123b6573d6000803e3d6000fd5b505050506040513d601f19601f820116820180604052508101906123da9190613750565b610280830152604051636d154ea560e01b81526001600160a01b0382811660048301528e1690636d154ea590602401602060405180830381865afa158015612426573d6000803e3d6000fd5b505050506040513d601f19601f8201168201806040525081019061244a91906137d9565b15156102a083015260405163731f0c2b60e01b81526001600160a01b0382811660048301528e169063731f0c2b90602401602060405180830381865afa158015612498573d6000803e3d6000fd5b505050506040513d601f19601f820116820180604052508101906124bc91906137d9565b15156102c0830152875182908990899081106124da576124da6134be565b602002602001018190525086806124f0906134ea565b975050505050505b80612502816134ea565b9150506118cf565b5091979650505050505050565b606080600083516001600160401b0381111561253557612535612d5c565b60405190808252806020026020018201604052801561259a57816020015b6125876040518060a00160405280600081526020016000815260200160608152602001606081526020016000151581525090565b8152602001906001900390816125535790505b509050600084516001600160401b038111156125b8576125b8612d5c565b6040519080825280602002602001820160405280156125e1578160200160208202803683370190505b50905060005b855181101561271357306001600160a01b03166359d2fea6878381518110612611576126116134be565b6020026020010151604001516040518263ffffffff1660e01b815260040161264891906001600160a01b0391909116815260200190565b6000604051808303816000875af192505050801561268857506040513d6000823e601f3d908101601f191682016040526126859190810190613a0b565b60015b6126b55760018282815181106126a0576126a06134be565b91151560209283029190910190910152612701565b6040518060a001604052808681526020018581526020018481526020018381526020018215158152508887815181106126f0576126f06134be565b602002602001018190525050505050505b8061270b816134ea565b9150506125e7565b509094909350915050565b6001600160a01b038116600090815260036020526040902060010180546060918291612749906133ea565b15905061288f576001600160a01b038316600090815260036020526040902080546001820190829061277a906133ea565b80601f01602080910402602001604051908101604052809291908181526020018280546127a6906133ea565b80156127f35780601f106127c8576101008083540402835291602001916127f3565b820191906000526020600020905b8154815290600101906020018083116127d657829003601f168201915b50505050509150808054612806906133ea565b80601f0160208091040260200160405190810160405280929190818152602001828054612832906133ea565b801561287f5780601f106128545761010080835404028352916020019161287f565b820191906000526020600020905b81548152906001019060200180831161286257829003601f168201915b5050505050905091509150915091565b60008390506000816001600160a01b03166306fdde036040518163ffffffff1660e01b8152600401600060405180830381865afa1580156128d4573d6000803e3d6000fd5b505050506040513d6000823e601f3d908101601f191682016040526128fc9190810190613af3565b90506000826001600160a01b03166395d89b416040518163ffffffff1660e01b8152600401600060405180830381865afa15801561293e573d6000803e3d6000fd5b505050506040513d6000823e601f3d908101601f191682016040526129669190810190613af3565b9196919550909350505050565b82805461297f906133ea565b90600052602060002090601f0160209004810192826129a157600085556129e7565b82601f106129ba57805160ff19168380011785556129e7565b828001600101855582156129e7579182015b828111156129e75782518255916020019190600101906129cc565b506129f3929150612ac6565b5090565b604051806102e0016040528060006001600160a01b0316815260200160006001600160a01b031681526020016060815260200160608152602001600081526020016000815260200160008152602001600081526020016000815260200160008152602001600081526020016000815260200160008152602001600015158152602001600081526020016000815260200160006001600160a01b03168152602001600081526020016000815260200160008152602001600081526020016000151581526020016000151581525090565b5b808211156129f35760008155600101612ac7565b60005b83811015612af6578181015183820152602001612ade565b83811115612b05576000848401525b50505050565b60008151808452612b23816020860160208601612adb565b601f01601f19169290920160200192915050565b602081526000612b4a6020830184612b0b565b9392505050565b6001600160a01b0381168114612b6657600080fd5b50565b60008060408385031215612b7c57600080fd5b8235612b8781612b51565b91506020830135612b9781612b51565b809150509250929050565b60006020808301818452808551808352604092508286019150828160051b87010184880160005b83811015612d2157888303603f19018552815180516001600160a01b031684526102e0818901516001600160a01b038116868b015250878201518189870152612c1482870182612b0b565b91505060608083015186830382880152612c2e8382612b0b565b6080858101519089015260a0808601519089015260c0808601519089015260e08086015190890152610100808601519089015261012080860151908901526101408086015190890152610160808601519089015261018080860151908901526101a0808601511515908901526101c080860151908901526101e08086015190890152610200808601516001600160a01b03169089015261022080860151908901526102408086015190890152610260808601519089015261028080860151908901526102a0808601511515908901526102c094850151151594909701939093525050509386019390860190600101612bc9565b509098975050505050505050565b600060208284031215612d4157600080fd5b8135612b4a81612b51565b8035612d5781612b51565b919050565b634e487b7160e01b600052604160045260246000fd5b60405160a081016001600160401b0381118282101715612d9457612d94612d5c565b60405290565b604051601f8201601f191681016001600160401b0381118282101715612dc257612dc2612d5c565b604052919050565b60006001600160401b03821115612de357612de3612d5c565b50601f01601f191660200190565b600082601f830112612e0257600080fd5b8135612e15612e1082612dca565b612d9a565b818152846020838601011115612e2a57600080fd5b816020850160208301376000918101602001919091529392505050565b60006001600160401b03821115612e6057612e60612d5c565b5060051b60200190565b600082601f830112612e7b57600080fd5b81356020612e8b612e1083612e47565b82815260059290921b84018101918181019086841115612eaa57600080fd5b8286015b84811015612ece578035612ec181612b51565b8352918301918301612eae565b509695505050505050565b600082601f830112612eea57600080fd5b81356020612efa612e1083612e47565b82815260059290921b84018101918181019086841115612f1957600080fd5b8286015b84811015612ece5780356001600160401b03811115612f3c5760008081fd5b612f4a8986838b0101612df1565b845250918301918301612f1d565b60008060008060008060008060006101208a8c031215612f7757600080fd5b612f808a612d4c565b985060208a01356001600160401b0380821115612f9c57600080fd5b612fa88d838e01612df1565b995060408c0135915080821115612fbe57600080fd5b612fca8d838e01612df1565b985060608c0135915080821115612fe057600080fd5b612fec8d838e01612e6a565b975060808c013591508082111561300257600080fd5b61300e8d838e01612ed9565b965060a08c013591508082111561302457600080fd5b6130308d838e01612ed9565b955060c08c013591508082111561304657600080fd5b6130528d838e01612ed9565b945060e08c013591508082111561306857600080fd5b6130748d838e01612ed9565b93506101008c013591508082111561308b57600080fd5b506130988c828d01612ed9565b9150509295985092959850929598565b600081518084526020808501945080840160005b838110156130d8578151875295820195908201906001016130bc565b509495945050505050565b600081518084526020808501808196508360051b8101915082860160005b8581101561250a578284038952815160a0815181875261312382880182612b0b565b838901516001600160a01b03908116898b01526040808601519091169089015260608085015190890152608093840151939097019290925250509784019790840190600101613101565b600081518084526020808501945080840160005b838110156130d85781516001600160a01b031687529582019590820190600101613181565b600081518084526020808501808196508360051b8101915082860160005b8581101561250a5782840389526131dc848351612b0b565b988501989350908401906001016131c4565b600081518084526020808501945080840160005b838110156130d8578151151587529582019590820190600101613202565b60006080808352613233818401886130a8565b60208482038186015261324682896130e3565b91506040858303818701528288518085528385019150838160051b860101848b0160005b838110156132db57601f19888403018552815160a08151855288820151898601528782015181898701526132a08287018261316d565b915050606080830151868303828801526132ba83826131a6565b938d01511515968d019690965250509487019492509086019060010161326a565b505088810360608a01526132ef818b6131ee565b9d9c50505050505050505050505050565b85815284602082015260a06040820152600061331f60a083018661316d565b828103606084015261333181866131a6565b91505082151560808301529695505050505050565b60408152600061335960408301856130a8565b828103602084015261336b81856130e3565b95945050505050565b6000806040838503121561338757600080fd5b823561339281612b51565b915060208301356001600160401b038111156133ad57600080fd5b830160808186031215612b9757600080fd5b8015158114612b6657600080fd5b6000602082840312156133df57600080fd5b8135612b4a816133bf565b600181811c908216806133fe57607f821691505b6020821081141561341f57634e487b7160e01b600052602260045260246000fd5b50919050565b6000602080838503121561343857600080fd5b82516001600160401b0381111561344e57600080fd5b8301601f8101851361345f57600080fd5b805161346d612e1082612e47565b81815260059190911b8201830190838101908783111561348c57600080fd5b928401925b828410156134b35783516134a481612b51565b82529284019290840190613491565b979650505050505050565b634e487b7160e01b600052603260045260246000fd5b634e487b7160e01b600052601160045260246000fd5b60006000198214156134fe576134fe6134d4565b5060010190565b600082601f83011261351657600080fd5b8151613524612e1082612dca565b81815284602083860101111561353957600080fd5b610367826020830160208701612adb565b600082601f83011261355b57600080fd5b8151602061356b612e1083612e47565b82815260059290921b8401810191818101908684111561358a57600080fd5b8286015b84811015612ece5780516001600160401b03808211156135ae5760008081fd5b9088019060a0828b03601f19018113156135c85760008081fd5b6135d0612d72565b87840151838111156135e25760008081fd5b6135f08d8a83880101613505565b825250604092508284015161360481612b51565b8189015260608481015161361781612b51565b938201939093526080848101519382019390935292015190820152835291830191830161358e565b6000806040838503121561365257600080fd5b82516001600160401b038082111561366957600080fd5b818501915085601f83011261367d57600080fd5b8151602061368d612e1083612e47565b82815260059290921b840181019181810190898411156136ac57600080fd5b948201945b838610156136ca578551825294820194908201906136b1565b918801519196509093505050808211156136e357600080fd5b506136f08582860161354a565b9150509250929050565b60006020828403121561370c57600080fd5b8151612b4a81612b51565b8051612d57816133bf565b6000806040838503121561373557600080fd5b8251613740816133bf565b6020939093015192949293505050565b60006020828403121561376257600080fd5b5051919050565b6000821982111561377c5761377c6134d4565b500190565b600082821015613793576137936134d4565b500390565b60008160001904831182151516156137b2576137b26134d4565b500290565b6000826137d457634e487b7160e01b600052601260045260246000fd5b500490565b6000602082840312156137eb57600080fd5b8151612b4a816133bf565b60006020828403121561380857600080fd5b81516001600160401b0381111561381e57600080fd5b6103678482850161354a565b6000808335601e1984360301811261384157600080fd5b83016020810192503590506001600160401b0381111561386057600080fd5b80360383131561161357600080fd5b81835281816020850137506000828201602090810191909152601f909101601f19169091010190565b6001600160a01b03831681526040602082015260006138b7838061382a565b608060408501526138cc60c08501828461386f565b9150506138dc602085018561382a565b603f19808685030160608701526138f484838561386f565b9350613903604088018861382a565b935091508086850301608087015261391c84848461386f565b935061392b606088018861382a565b93509150808685030160a0870152506134b383838361386f565b6000806040838503121561395857600080fd5b505080516020909101519092909150565b60006020828403121561397b57600080fd5b815160ff81168114612b4a57600080fd5b600082601f83011261399d57600080fd5b815160206139ad612e1083612e47565b82815260059290921b840181019181810190868411156139cc57600080fd5b8286015b84811015612ece5780516001600160401b038111156139ef5760008081fd5b6139fd8986838b0101613505565b8452509183019183016139d0565b600080600080600060a08688031215613a2357600080fd5b85519450602080870151945060408701516001600160401b0380821115613a4957600080fd5b818901915089601f830112613a5d57600080fd5b8151613a6b612e1082612e47565b81815260059190911b8301840190848101908c831115613a8a57600080fd5b938501935b82851015613ab1578451613aa281612b51565b82529385019390850190613a8f565b60608c01519098509450505080831115613aca57600080fd5b5050613ad88882890161398c565b925050613ae760808701613717565b90509295509295909350565b600060208284031215613b0557600080fd5b81516001600160401b03811115613b1b57600080fd5b6103678482850161350556fea164736f6c634300080a000a",
    "linkReferences": {}
  },
  "methodIdentifiers": {
    "directory()": "c41c2f24",
    "getPoolAssetsByUser(address,address)": "0c5eb5a4",
    "getPoolAssetsWithData(address)": "27e16c1f",
    "getPoolSummary(address)": "59d2fea6",
    "getPoolsByAccountWithData(address)": "51678684",
    "getPoolsOfUserWithData(address)": "e0581140",
    "getPublicPoolsByVerificationWithData(bool)": "d64996e5",
    "getPublicPoolsWithData()": "d0a164fb",
    "getWhitelistedPoolsByAccount(address)": "c3530a63",
    "getWhitelistedPoolsByAccountWithData(address)": "70733375",
    "initialize(address,string,string,address[],string[],string[],string[],string[],string[])": "3a1eb656",
    "name()": "06fdde03",
    "symbol()": "95d89b41",
    "verifyPrice(address,(bytes,bytes,bytes,bytes))": "cd344be8"
  }
}