{
  "address": "0x87AC87AC80c179532D057D3AC66223D4b952Da77",
  "abi": [
    {
      "anonymous": false,
      "inputs": [
        {
          "indexed": false,
          "internalType": "uint8",
          "name": "version",
          "type": "uint8"
        }
      ],
      "name": "Initialized",
      "type": "event"
    },
    {
      "inputs": [],
      "name": "directory",
      "outputs": [
        {
          "internalType": "contract FusePoolDirectory",
          "name": "",
          "type": "address"
        }
      ],
      "stateMutability": "view",
      "type": "function"
    },
    {
      "inputs": [
        {
          "internalType": "address",
          "name": "user",
          "type": "address"
        }
      ],
      "name": "getFlywheelsToClaim",
      "outputs": [
        {
          "internalType": "uint256[]",
          "name": "",
          "type": "uint256[]"
        },
        {
          "internalType": "contract IComptroller[]",
          "name": "",
          "type": "address[]"
        },
        {
          "internalType": "address[][]",
          "name": "",
          "type": "address[][]"
        }
      ],
      "stateMutability": "view",
      "type": "function"
    },
    {
      "inputs": [
        {
          "internalType": "address",
          "name": "account",
          "type": "address"
        },
        {
          "internalType": "contract ICToken",
          "name": "cTokenModify",
          "type": "address"
        }
      ],
      "name": "getMaxBorrow",
      "outputs": [
        {
          "internalType": "uint256",
          "name": "",
          "type": "uint256"
        }
      ],
      "stateMutability": "nonpayable",
      "type": "function"
    },
    {
      "inputs": [
        {
          "internalType": "address",
          "name": "account",
          "type": "address"
        },
        {
          "internalType": "contract ICToken",
          "name": "cTokenModify",
          "type": "address"
        }
      ],
      "name": "getMaxRedeem",
      "outputs": [
        {
          "internalType": "uint256",
          "name": "",
          "type": "uint256"
        }
      ],
      "stateMutability": "nonpayable",
      "type": "function"
    },
    {
      "inputs": [
        {
          "internalType": "contract IComptroller",
          "name": "comptroller",
          "type": "address"
        }
      ],
      "name": "getPoolOwnership",
      "outputs": [
        {
          "internalType": "address",
          "name": "",
          "type": "address"
        },
        {
          "internalType": "bool",
          "name": "",
          "type": "bool"
        },
        {
          "internalType": "bool",
          "name": "",
          "type": "bool"
        },
        {
          "components": [
            {
              "internalType": "address",
              "name": "cToken",
              "type": "address"
            },
            {
              "internalType": "address",
              "name": "admin",
              "type": "address"
            },
            {
              "internalType": "bool",
              "name": "adminHasRights",
              "type": "bool"
            },
            {
              "internalType": "bool",
              "name": "fuseAdminHasRights",
              "type": "bool"
            }
          ],
          "internalType": "struct FusePoolLensSecondary.CTokenOwnership[]",
          "name": "",
          "type": "tuple[]"
        }
      ],
      "stateMutability": "view",
      "type": "function"
    },
    {
      "inputs": [
        {
          "internalType": "contract IComptroller",
          "name": "comptroller",
          "type": "address"
        }
      ],
      "name": "getRewardSpeedsByPool",
      "outputs": [
        {
          "internalType": "contract ICToken[]",
          "name": "",
          "type": "address[]"
        },
        {
          "internalType": "address[]",
          "name": "",
          "type": "address[]"
        },
        {
          "internalType": "address[]",
          "name": "",
          "type": "address[]"
        },
        {
          "internalType": "uint256[][]",
          "name": "",
          "type": "uint256[][]"
        },
        {
          "internalType": "uint256[][]",
          "name": "",
          "type": "uint256[][]"
        }
      ],
      "stateMutability": "view",
      "type": "function"
    },
    {
      "inputs": [
        {
          "internalType": "contract IComptroller[]",
          "name": "comptrollers",
          "type": "address[]"
        }
      ],
      "name": "getRewardSpeedsByPools",
      "outputs": [
        {
          "internalType": "contract ICToken[][]",
          "name": "",
          "type": "address[][]"
        },
        {
          "internalType": "address[][]",
          "name": "",
          "type": "address[][]"
        },
        {
          "internalType": "address[][]",
          "name": "",
          "type": "address[][]"
        },
        {
          "internalType": "uint256[][][]",
          "name": "",
          "type": "uint256[][][]"
        },
        {
          "internalType": "uint256[][][]",
          "name": "",
          "type": "uint256[][][]"
        }
      ],
      "stateMutability": "view",
      "type": "function"
    },
    {
      "inputs": [
        {
          "internalType": "address",
          "name": "supplier",
          "type": "address"
        }
      ],
      "name": "getRewardsDistributorsBySupplier",
      "outputs": [
        {
          "internalType": "uint256[]",
          "name": "",
          "type": "uint256[]"
        },
        {
          "internalType": "contract IComptroller[]",
          "name": "",
          "type": "address[]"
        },
        {
          "internalType": "address[][]",
          "name": "",
          "type": "address[][]"
        }
      ],
      "stateMutability": "view",
      "type": "function"
    },
    {
      "inputs": [
        {
          "internalType": "address",
          "name": "holder",
          "type": "address"
        },
        {
          "internalType": "contract IRewardsDistributor[]",
          "name": "distributors",
          "type": "address[]"
        }
      ],
      "name": "getUnclaimedRewardsByDistributors",
      "outputs": [
        {
          "internalType": "address[]",
          "name": "",
          "type": "address[]"
        },
        {
          "internalType": "uint256[]",
          "name": "",
          "type": "uint256[]"
        },
        {
          "internalType": "contract ICToken[][]",
          "name": "",
          "type": "address[][]"
        },
        {
          "internalType": "uint256[2][][]",
          "name": "",
          "type": "uint256[2][][]"
        },
        {
          "internalType": "uint256[]",
          "name": "",
          "type": "uint256[]"
        }
      ],
      "stateMutability": "nonpayable",
      "type": "function"
    },
    {
      "inputs": [
        {
          "internalType": "contract FusePoolDirectory",
          "name": "_directory",
          "type": "address"
        }
      ],
      "name": "initialize",
      "outputs": [],
      "stateMutability": "nonpayable",
      "type": "function"
    }
  ],
  "transactionHash": "0x47b8319ce78b527596d08c54fcaf07a7d905e72c6c491603742d6182123dd7a8",
  "args": [],
  "numDeployments": 3,
  "bytecode": {
    "object": "0x608060405234801561001057600080fd5b50612e85806100206000396000f3fe608060405234801561001057600080fd5b506004361061009e5760003560e01c806397f35ff01161006657806397f35ff014610148578063998e2d4a1461016b578063c41c2f241461018d578063c4d66de8146101be578063d24eaf13146101d357600080fd5b80631ec18ec0146100a3578063338038fa146100c95780633fc5fab5146100ed578063641290421461011157806384b3403d14610124575b600080fd5b6100b66100b1366004612340565b6101e6565b6040519081526020015b60405180910390f35b6100dc6100d736600461240a565b6101fb565b6040516100c0959493929190612586565b6101006100fb36600461267f565b6107a4565b6040516100c0959493929190612853565b6100b661011f366004612340565b610a26565b6101376101323660046128c0565b610a34565b6040516100c09594939291906128dd565b61015b6101563660046128c0565b610f51565b6040516100c0949392919061293e565b61017e6101793660046128c0565b611659565b6040516100c0939291906129ce565b6000546101a6906201000090046001600160a01b031681565b6040516001600160a01b0390911681526020016100c0565b6101d16101cc3660046128c0565b61188d565b005b61017e6101e13660046128c0565b611a33565b60006101f483836001611e22565b9392505050565b6060806060806060600086516001600160401b0381111561021e5761021e612379565b604051908082528060200260200182016040528015610247578160200160208202803683370190505b509050600087516001600160401b0381111561026557610265612379565b60405190808252806020026020018201604052801561028e578160200160208202803683370190505b509050600088516001600160401b038111156102ac576102ac612379565b6040519080825280602002602001820160405280156102df57816020015b60608152602001906001900390816102ca5790505b509050600089516001600160401b038111156102fd576102fd612379565b60405190808252806020026020018201604052801561033057816020015b606081526020019060019003908161031b5790505b50905060008a516001600160401b0381111561034e5761034e612379565b604051908082528060200260200182016040528015610377578160200160208202803683370190505b50905060005b8b518110156107905760008c828151811061039a5761039a612a35565b60200260200101519050806001600160a01b031663f7c618c16040518163ffffffff1660e01b8152600401602060405180830381865afa1580156103e2573d6000803e3d6000fd5b505050506040513d601f19601f820116820180604052508101906104069190612a5b565b87838151811061041857610418612a35565b60200260200101906001600160a01b031690816001600160a01b031681525050806001600160a01b031663b0772d0b6040518163ffffffff1660e01b8152600401600060405180830381865afa158015610476573d6000803e3d6000fd5b505050506040513d6000823e601f3d908101601f1916820160405261049e9190810190612a78565b8583815181106104b0576104b0612a35565b60200260200101819052508482815181106104cd576104cd612a35565b6020026020010151516001600160401b038111156104ed576104ed612379565b60405190808252806020026020018201604052801561052657816020015b61051361230a565b81526020019060019003908161050b5790505b5084838151811061053957610539612a35565b602002602001018190525060005b85838151811061055957610559612a35565b60200260200101515181101561064f576105a68f8388868151811061058057610580612a35565b6020026020010151848151811061059957610599612a35565b6020026020010151611f10565b8685815181106105b8576105b8612a35565b602002602001015183815181106105d1576105d1612a35565b60200260200101516000600281106105eb576105eb612a35565b6020020187868151811061060157610601612a35565b6020026020010151848151811061061a5761061a612a35565b602002602001015160016002811061063457610634612a35565b6020020191909152528061064781612b1c565b915050610547565b5060405163331faf7160e21b81526001600160a01b038f8116600483015282169063cc7ebdc490602401602060405180830381865afa158015610696573d6000803e3d6000fd5b505050506040513d601f19601f820116820180604052508101906106ba9190612b37565b8683815181106106cc576106cc612a35565b6020026020010181815250508682815181106106ea576106ea612a35565b60209081029190910101516040516370a0823160e01b81526001600160a01b038381166004830152909116906370a0823190602401602060405180830381865afa15801561073c573d6000803e3d6000fd5b505050506040513d601f19601f820116820180604052508101906107609190612b37565b83838151811061077257610772612a35565b6020908102919091010152508061078881612b1c565b91505061037d565b50939b929a50909850965090945092505050565b6060806060806060600086516001600160401b038111156107c7576107c7612379565b6040519080825280602002602001820160405280156107fa57816020015b60608152602001906001900390816107e55790505b509050600087516001600160401b0381111561081857610818612379565b60405190808252806020026020018201604052801561084b57816020015b60608152602001906001900390816108365790505b509050600088516001600160401b0381111561086957610869612379565b60405190808252806020026020018201604052801561089c57816020015b60608152602001906001900390816108875790505b509050600089516001600160401b038111156108ba576108ba612379565b6040519080825280602002602001820160405280156108ed57816020015b60608152602001906001900390816108d85790505b50905060008a516001600160401b0381111561090b5761090b612379565b60405190808252806020026020018201604052801561093e57816020015b60608152602001906001900390816109295790505b50905060005b8b51811015610a135761096f8c828151811061096257610962612a35565b6020026020010151610a34565b8a868151811061098157610981612a35565b602002602001018a878151811061099a5761099a612a35565b602002602001018a88815181106109b3576109b3612a35565b602002602001018a89815181106109cc576109cc612a35565b602002602001018a8a815181106109e5576109e5612a35565b6020026020010185905285905285905285905285905250505050508080610a0b90612b1c565b915050610944565b50939a9299509097509550909350915050565b60006101f483836000611e22565b60608060608060606000866001600160a01b031663b0772d0b6040518163ffffffff1660e01b8152600401600060405180830381865afa158015610a7c573d6000803e3d6000fd5b505050506040513d6000823e601f3d908101601f19168201604052610aa49190810190612a78565b90506060876001600160a01b0316633605b51b6040518163ffffffff1660e01b8152600401600060405180830381865afa925050508015610b0757506040513d6000823e601f3d908101601f19168201604052610b049190810190612b50565b60015b610b205750604080516000815260208101909152610b23565b90505b600081516001600160401b03811115610b3e57610b3e612379565b604051908082528060200260200182016040528015610b67578160200160208202803683370190505b509050600083516001600160401b03811115610b8557610b85612379565b604051908082528060200260200182016040528015610bb857816020015b6060815260200190600190039081610ba35790505b509050600084516001600160401b03811115610bd657610bd6612379565b604051908082528060200260200182016040528015610c0957816020015b6060815260200190600190039081610bf45790505b50905060005b8451811015610ccf57848181518110610c2a57610c2a612a35565b60200260200101516001600160a01b031663f7c618c16040518163ffffffff1660e01b8152600401602060405180830381865afa158015610c6f573d6000803e3d6000fd5b505050506040513d601f19601f82011682018060405250810190610c939190612a5b565b848281518110610ca557610ca5612a35565b6001600160a01b039092166020928302919091019091015280610cc781612b1c565b915050610c0f565b5060005b8551811015610a13576000868281518110610cf057610cf0612a35565b6020026020010151905085516001600160401b03811115610d1357610d13612379565b604051908082528060200260200182016040528015610d3c578160200160208202803683370190505b50848381518110610d4f57610d4f612a35565b602002602001018190525085516001600160401b03811115610d7357610d73612379565b604051908082528060200260200182016040528015610d9c578160200160208202803683370190505b50838381518110610daf57610daf612a35565b602002602001018190525060005b8651811015610f3c576000878281518110610dda57610dda612a35565b6020908102919091010151604051636aa875b560e01b81526001600160a01b03858116600483015291925090821690636aa875b590602401602060405180830381865afa158015610e2f573d6000803e3d6000fd5b505050506040513d601f19601f82011682018060405250810190610e539190612b37565b868581518110610e6557610e65612a35565b60200260200101518381518110610e7e57610e7e612a35565b60209081029190910101526040516303d290cf60e61b81526001600160a01b03848116600483015282169063f4a433c090602401602060405180830381865afa158015610ecf573d6000803e3d6000fd5b505050506040513d601f19601f82011682018060405250810190610ef39190612b37565b858581518110610f0557610f05612a35565b60200260200101518381518110610f1e57610f1e612a35565b60209081029190910101525080610f3481612b1c565b915050610dbd565b50508080610f4990612b1c565b915050610cd3565b600080600060606000856001600160a01b031663f851a4406040518163ffffffff1660e01b8152600401602060405180830381865afa158015610f98573d6000803e3d6000fd5b505050506040513d601f19601f82011682018060405250810190610fbc9190612a5b565b90506000866001600160a01b0316630a755ec26040518163ffffffff1660e01b8152600401602060405180830381865afa158015610ffe573d6000803e3d6000fd5b505050506040513d601f19601f820116820180604052508101906110229190612bee565b90506000876001600160a01b0316632f1069ba6040518163ffffffff1660e01b8152600401602060405180830381865afa158015611064573d6000803e3d6000fd5b505050506040513d601f19601f820116820180604052508101906110889190612bee565b90506000886001600160a01b031663b0772d0b6040518163ffffffff1660e01b8152600401600060405180830381865afa1580156110ca573d6000803e3d6000fd5b505050506040513d6000823e601f3d908101601f191682016040526110f29190810190612a78565b90506000805b825181101561133357600083828151811061111557611115612a35565b6020908102919091010151604051638e8f294b60e01b81526001600160a01b0380831660048301529192506000918e1690638e8f294b906024016040805180830381865afa15801561116b573d6000803e3d6000fd5b505050506040513d601f19601f8201168201806040525081019061118f9190612c09565b5090508061119e575050611321565b6000826001600160a01b031663f851a4406040518163ffffffff1660e01b8152600401602060405180830381865afa9250505080156111fa575060408051601f3d908101601f191682019092526111f791810190612a5b565b60015b61120657505050611321565b90506000836001600160a01b0316630a755ec26040518163ffffffff1660e01b8152600401602060405180830381865afa158015611248573d6000803e3d6000fd5b505050506040513d601f19601f8201168201806040525081019061126c9190612bee565b90506000846001600160a01b0316632f1069ba6040518163ffffffff1660e01b8152600401602060405180830381865afa1580156112ae573d6000803e3d6000fd5b505050506040513d601f19601f820116820180604052508101906112d29190612bee565b90508a6001600160a01b0316836001600160a01b03161415806112f9575089151582151514155b80611308575088151581151514155b1561131b578661131781612b1c565b9750505b50505050505b8061132b81612b1c565b9150506110f8565b506000816001600160401b0381111561134e5761134e612379565b6040519080825280602002602001820160405280156113a057816020015b60408051608081018252600080825260208083018290529282018190526060820152825260001990920191018161136c5790505b5090506000805b84518110156116445760008582815181106113c4576113c4612a35565b6020026020010151905060008e6001600160a01b0316638e8f294b836040518263ffffffff1660e01b815260040161140b91906001600160a01b0391909116815260200190565b6040805180830381865afa158015611427573d6000803e3d6000fd5b505050506040513d601f19601f8201168201806040525081019061144b9190612c09565b5090508061145a575050611632565b6000826001600160a01b031663f851a4406040518163ffffffff1660e01b8152600401602060405180830381865afa9250505080156114b6575060408051601f3d908101601f191682019092526114b391810190612a5b565b60015b6114c257505050611632565b90506000836001600160a01b0316630a755ec26040518163ffffffff1660e01b8152600401602060405180830381865afa158015611504573d6000803e3d6000fd5b505050506040513d601f19601f820116820180604052508101906115289190612bee565b90506000846001600160a01b0316632f1069ba6040518163ffffffff1660e01b8152600401602060405180830381865afa15801561156a573d6000803e3d6000fd5b505050506040513d601f19601f8201168201806040525081019061158e9190612bee565b90508c6001600160a01b0316836001600160a01b03161415806115b557508b151582151514155b806115c457508a151581151514155b1561162c576040518060800160405280866001600160a01b03168152602001846001600160a01b03168152602001831515815260200182151581525088888151811061161257611612612a35565b6020026020010181905250868061162890612b1c565b9750505b50505050505b8061163c81612b1c565b9150506113a7565b50959b949a5092985091965091945050505050565b6060806060600080600060029054906101000a90046001600160a01b03166001600160a01b0316638ec083546040518163ffffffff1660e01b8152600401600060405180830381865afa1580156116b4573d6000803e3d6000fd5b505050506040513d6000823e601f3d908101601f191682016040526116dc9190810190612da6565b91509150600081516001600160401b038111156116fb576116fb612379565b604051908082528060200260200182016040528015611724578160200160208202803683370190505b509050600082516001600160401b0381111561174257611742612379565b60405190808252806020026020018201604052801561177557816020015b60608152602001906001900390816117605790505b50905060005b835181101561187d57600084828151811061179857611798612a35565b6020026020010151604001519050806001600160a01b0316633605b51b6040518163ffffffff1660e01b8152600401600060405180830381865afa92505050801561180557506040513d6000823e601f3d908101601f191682016040526118029190810190612b50565b60015b61180e5761186a565b8185848151811061182157611821612a35565b60200260200101906001600160a01b031690816001600160a01b03168152505061184b8b826121be565b84848151811061185d5761185d612a35565b6020026020010181905250505b508061187581612b1c565b91505061177b565b5092979096509194509092505050565b600054610100900460ff16158080156118ad5750600054600160ff909116105b806118c75750303b1580156118c7575060005460ff166001145b61192f5760405162461bcd60e51b815260206004820152602e60248201527f496e697469616c697a61626c653a20636f6e747261637420697320616c72656160448201526d191e481a5b9a5d1a585b1a5e995960921b60648201526084015b60405180910390fd5b6000805460ff191660011790558015611952576000805461ff0019166101001790555b6001600160a01b0382166119c75760405162461bcd60e51b815260206004820152603660248201527f46757365506f6f6c4469726563746f727920696e7374616e63652063616e6e6f6044820152753a103132903a3432903d32b9379030b2323932b9b99760511b6064820152608401611926565b6000805462010000600160b01b031916620100006001600160a01b038516021790558015611a2f576000805461ff0019169055604051600181527f7f26b83ff96e1f2b6a682f133852f6798a09c465da95921460cefb38474024989060200160405180910390a15b5050565b606080606060008060029054906101000a90046001600160a01b03166001600160a01b0316638ec083546040518163ffffffff1660e01b8152600401600060405180830381865afa158015611a8c573d6000803e3d6000fd5b505050506040513d6000823e601f3d908101601f19168201604052611ab49190810190612da6565b9150506000805b8251811015611b8657828181518110611ad657611ad6612a35565b6020026020010151604001516001600160a01b03166316dc15fe886040518263ffffffff1660e01b8152600401611b1c91906001600160a01b0391909116815260200190565b602060405180830381865afa925050508015611b55575060408051601f3d908101601f19168201909252611b5291810190612bee565b60015b611b5e57611b74565b8015611b725782611b6e81612b1c565b9350505b505b80611b7e81612b1c565b915050611abb565b506000816001600160401b03811115611ba157611ba1612379565b604051908082528060200260200182016040528015611bca578160200160208202803683370190505b5090506000826001600160401b03811115611be757611be7612379565b604051908082528060200260200182016040528015611c10578160200160208202803683370190505b5090506000836001600160401b03811115611c2d57611c2d612379565b604051908082528060200260200182016040528015611c6057816020015b6060815260200190600190039081611c4b5790505b5090506000805b8651811015611e12576000878281518110611c8457611c84612a35565b6020026020010151604001519050806001600160a01b03166316dc15fe8d6040518263ffffffff1660e01b8152600401611ccd91906001600160a01b0391909116815260200190565b602060405180830381865afa925050508015611d06575060408051601f3d908101601f19168201909252611d0391810190612bee565b60015b611d0f57611dff565b8015611dfd5782878581518110611d2857611d28612a35565b60200260200101818152505081868581518110611d4757611d47612a35565b60200260200101906001600160a01b031690816001600160a01b031681525050816001600160a01b0316633605b51b6040518163ffffffff1660e01b8152600401600060405180830381865afa925050508015611dc657506040513d6000823e601f3d908101601f19168201604052611dc39190810190612b50565b60015b611dcf57611def565b80868681518110611de257611de2612a35565b6020026020010181905250505b83611df981612b1c565b9450505b505b5080611e0a81612b1c565b915050611c67565b5092999198509650945050505050565b600080836001600160a01b0316635fe3b5676040518163ffffffff1660e01b8152600401602060405180830381865afa158015611e63573d6000803e3d6000fd5b505050506040513d601f19601f82011682018060405250810190611e879190612a5b565b604051630cbb414760e11b81526001600160a01b0387811660048301528681166024830152851515604483015291925090821690631976828e906064016020604051808303816000875af1158015611ee3573d6000803e3d6000fd5b505050506040513d601f19601f82011682018060405250810190611f079190612b37565b95945050505050565b60405163331faf7160e21b81526001600160a01b038481166004830152600091829182919086169063cc7ebdc490602401602060405180830381865afa158015611f5e573d6000803e3d6000fd5b505050506040513d601f19601f82011682018060405250810190611f829190612b37565b60405162e48b0f60e51b81526001600160a01b038681166004830152888116602483015291925090861690631c9161e090604401600060405180830381600087803b158015611fd057600080fd5b505af1158015611fe4573d6000803e3d6000fd5b505060405163331faf7160e21b81526001600160a01b0389811660048301526000935084925088169063cc7ebdc490602401602060405180830381865afa158015612033573d6000803e3d6000fd5b505050506040513d601f19601f820116820180604052508101906120579190612b37565b6120619190612e61565b60405163331faf7160e21b81526001600160a01b0389811660048301529192509087169063cc7ebdc490602401602060405180830381865afa1580156120ab573d6000803e3d6000fd5b505050506040513d601f19601f820116820180604052508101906120cf9190612b37565b604051631cdc2c5d60e31b81526001600160a01b03878116600483015289811660248301529193509087169063e6e162e890604401600060405180830381600087803b15801561211e57600080fd5b505af1158015612132573d6000803e3d6000fd5b505060405163331faf7160e21b81526001600160a01b038a811660048301526000935085925089169063cc7ebdc490602401602060405180830381865afa158015612181573d6000803e3d6000fd5b505050506040513d601f19601f820116820180604052508101906121a59190612b37565b6121af9190612e61565b91989197509095505050505050565b6060600082516001600160401b038111156121db576121db612379565b604051908082528060200260200182016040528015612204578160200160208202803683370190505b50905060005b835181101561230257600084828151811061222757612227612a35565b602090810291909101015160405163331faf7160e21b81526001600160a01b0388811660048301529091169063cc7ebdc490602401602060405180830381865afa158015612279573d6000803e3d6000fd5b505050506040513d601f19601f8201168201806040525081019061229d9190612b37565b11156122f0578381815181106122b5576122b5612a35565b60200260200101518282815181106122cf576122cf612a35565b60200260200101906001600160a01b031690816001600160a01b0316815250505b806122fa81612b1c565b91505061220a565b509392505050565b60405180604001604052806002906020820280368337509192915050565b6001600160a01b038116811461233d57600080fd5b50565b6000806040838503121561235357600080fd5b823561235e81612328565b9150602083013561236e81612328565b809150509250929050565b634e487b7160e01b600052604160045260246000fd5b60405160a081016001600160401b03811182821017156123b1576123b1612379565b60405290565b604051601f8201601f191681016001600160401b03811182821017156123df576123df612379565b604052919050565b60006001600160401b0382111561240057612400612379565b5060051b60200190565b6000806040838503121561241d57600080fd5b823561242881612328565b91506020838101356001600160401b0381111561244457600080fd5b8401601f8101861361245557600080fd5b8035612468612463826123e7565b6123b7565b81815260059190911b8201830190838101908883111561248757600080fd5b928401925b828410156124ae57833561249f81612328565b8252928401929084019061248c565b80955050505050509250929050565b600081518084526020808501945080840160005b838110156124f65781516001600160a01b0316875295820195908201906001016124d1565b509495945050505050565b600081518084526020808501945080840160005b838110156124f657815187529582019590820190600101612515565b600081518084526020808501808196508360051b8101915082860160005b858110156125795782840389526125678483516124bd565b9885019893509084019060010161254f565b5091979650505050505050565b60a08152600061259960a08301886124bd565b6020838203818501526125ac8289612501565b91506040848303818601526125c18389612531565b925084830360608601528287518085528385019150838160051b860101848a0160005b8381101561265a57878303601f1901855281518051808552908801908885019060005b818110156126455783518360005b60028110156126325782518252918d0191908d0190600101612615565b505050928a019291890191600101612607565b505095880195935050908601906001016125e4565b5050878103608089015261266e818a612501565b9d9c50505050505050505050505050565b6000602080838503121561269257600080fd5b82356001600160401b038111156126a857600080fd5b8301601f810185136126b957600080fd5b80356126c7612463826123e7565b81815260059190911b820183019083810190878311156126e657600080fd5b928401925b8284101561270d5783356126fe81612328565b825292840192908401906126eb565b979650505050505050565b600081518084526020808501808196508360051b810191508286016000805b8681101561278f578385038a52825180518087529087019087870190845b8181101561277a5783516001600160a01b031683529289019291890191600101612755565b50509a87019a95505091850191600101612737565b509298975050505050505050565b600081518084526020808501808196508360051b810191508286016000805b8681101561278f578385038a52825180518087529087019087870190845b818110156127f6578351835292890192918901916001016127da565b50509a87019a955050918501916001016127bc565b600081518084526020808501808196508360051b8101915082860160005b8581101561257957828403895261284184835161279d565b98850198935090840190600101612829565b60a08152600061286660a0830188612531565b82810360208401526128788188612718565b9050828103604084015261288c8187612718565b905082810360608401526128a0818661280b565b905082810360808401526128b4818561280b565b98975050505050505050565b6000602082840312156128d257600080fd5b81356101f481612328565b60a0815260006128f060a08301886124bd565b828103602084015261290281886124bd565b9050828103604084015261291681876124bd565b9050828103606084015261292a818661279d565b905082810360808401526128b4818561279d565b6000608080830160018060a01b0380891685526020881515818701526040881515818801526060858189015284895180875260a08a019150848b01965060005b818110156129bb5787518051881684528681015188168785015285810151151586850152840151151584840152968501969188019160010161297e565b50909d9c50505050505050505050505050565b6060815260006129e16060830186612501565b82810360208481019190915285518083528682019282019060005b81811015612a215784516001600160a01b0316835293830193918301916001016129fc565b505084810360408601526128b48187612718565b634e487b7160e01b600052603260045260246000fd5b8051612a5681612328565b919050565b600060208284031215612a6d57600080fd5b81516101f481612328565b60006020808385031215612a8b57600080fd5b82516001600160401b03811115612aa157600080fd5b8301601f81018513612ab257600080fd5b8051612ac0612463826123e7565b81815260059190911b82018301908381019087831115612adf57600080fd5b928401925b8284101561270d578351612af781612328565b82529284019290840190612ae4565b634e487b7160e01b600052601160045260246000fd5b6000600019821415612b3057612b30612b06565b5060010190565b600060208284031215612b4957600080fd5b5051919050565b60006020808385031215612b6357600080fd5b82516001600160401b03811115612b7957600080fd5b8301601f81018513612b8a57600080fd5b8051612b98612463826123e7565b81815260059190911b82018301908381019087831115612bb757600080fd5b928401925b8284101561270d578351612bcf81612328565b82529284019290840190612bbc565b80518015158114612a5657600080fd5b600060208284031215612c0057600080fd5b6101f482612bde565b60008060408385031215612c1c57600080fd5b612c2583612bde565b9150602083015190509250929050565b6000601f8381840112612c4757600080fd5b82516020612c57612463836123e7565b82815260059290921b85018101918181019087841115612c7657600080fd5b8287015b84811015612d9a5780516001600160401b0380821115612c9a5760008081fd5b9089019060a0601f19838d038101821315612cb55760008081fd5b612cbd61238f565b8885015184811115612ccf5760008081fd5b8501603f81018f13612ce15760008081fd5b8981015185811115612cf557612cf5612379565b612d048b858f840116016123b7565b9550808652604093508f84828401011115612d1f5760008081fd5b60005b81811015612d3d578281018501518782018d01528b01612d22565b81811115612d4e5760008c83890101525b505050838152612d5f828601612a4b565b8982015260609350612d72848601612a4b565b9181019190915260808481015193820193909352920151908201528352918301918301612c7a565b50979650505050505050565b60008060408385031215612db957600080fd5b82516001600160401b0380821115612dd057600080fd5b818501915085601f830112612de457600080fd5b81516020612df4612463836123e7565b82815260059290921b84018101918181019089841115612e1357600080fd5b948201945b83861015612e3157855182529482019490820190612e18565b91880151919650909350505080821115612e4a57600080fd5b50612e5785828601612c35565b9150509250929050565b600082821015612e7357612e73612b06565b50039056fea164736f6c634300080a000a",
    "linkReferences": {}
  },
  "methodIdentifiers": {
    "directory()": "c41c2f24",
    "getFlywheelsToClaim(address)": "998e2d4a",
    "getMaxBorrow(address,address)": "1ec18ec0",
    "getMaxRedeem(address,address)": "64129042",
    "getPoolOwnership(address)": "97f35ff0",
    "getRewardSpeedsByPool(address)": "84b3403d",
    "getRewardSpeedsByPools(address[])": "3fc5fab5",
    "getRewardsDistributorsBySupplier(address)": "d24eaf13",
    "getUnclaimedRewardsByDistributors(address,address[])": "338038fa",
    "initialize(address)": "c4d66de8"
  }
}