{
  "address": "0x0e9AF6E9211d643fBF7413a65dB240f2cBfC5299",
  "abi": [
    {
      "anonymous": false,
      "inputs": [
        {
          "indexed": false,
          "internalType": "uint8",
          "name": "version",
          "type": "uint8"
        }
      ],
      "name": "Initialized",
      "type": "event"
    },
    {
      "anonymous": false,
      "inputs": [
        {
          "indexed": true,
          "internalType": "address",
          "name": "previousOwner",
          "type": "address"
        },
        {
          "indexed": true,
          "internalType": "address",
          "name": "newOwner",
          "type": "address"
        }
      ],
      "name": "OwnershipTransferred",
      "type": "event"
    },
    {
      "inputs": [
        {
          "internalType": "address",
          "name": "",
          "type": "address"
        },
        {
          "internalType": "address",
          "name": "",
          "type": "address"
        }
      ],
      "name": "balancerPoolForTokens",
      "outputs": [
        {
          "internalType": "address",
          "name": "",
          "type": "address"
        }
      ],
      "stateMutability": "view",
      "type": "function"
    },
    {
      "inputs": [
        {
          "internalType": "uint256",
          "name": "",
          "type": "uint256"
        }
      ],
      "name": "curveSwapPoolsConfig",
      "outputs": [
        {
          "internalType": "address",
          "name": "poolAddress",
          "type": "address"
        }
      ],
      "stateMutability": "view",
      "type": "function"
    },
    {
      "inputs": [
        {
          "internalType": "address",
          "name": "",
          "type": "address"
        }
      ],
      "name": "flywheelRewards",
      "outputs": [
        {
          "internalType": "address",
          "name": "addr",
          "type": "address"
        },
        {
          "internalType": "string",
          "name": "contractInterface",
          "type": "string"
        }
      ],
      "stateMutability": "view",
      "type": "function"
    },
    {
      "inputs": [
        {
          "internalType": "address",
          "name": "",
          "type": "address"
        }
      ],
      "name": "fundingStrategies",
      "outputs": [
        {
          "internalType": "address",
          "name": "addr",
          "type": "address"
        },
        {
          "internalType": "string",
          "name": "contractInterface",
          "type": "string"
        }
      ],
      "stateMutability": "view",
      "type": "function"
    },
    {
      "inputs": [
        {
          "internalType": "address",
          "name": "",
          "type": "address"
        }
      ],
      "name": "fundingStrategiesConfig",
      "outputs": [
        {
          "internalType": "address",
          "name": "addr",
          "type": "address"
        },
        {
          "internalType": "string",
          "name": "contractInterface",
          "type": "string"
        },
        {
          "internalType": "address",
          "name": "inputToken",
          "type": "address"
        }
      ],
      "stateMutability": "view",
      "type": "function"
    },
    {
      "inputs": [
        {
          "internalType": "string",
          "name": "id",
          "type": "string"
        }
      ],
      "name": "getAddress",
      "outputs": [
        {
          "internalType": "address",
          "name": "",
          "type": "address"
        }
      ],
      "stateMutability": "view",
      "type": "function"
    },
    {
      "inputs": [
        {
          "internalType": "address",
          "name": "inputToken",
          "type": "address"
        },
        {
          "internalType": "address",
          "name": "outputToken",
          "type": "address"
        }
      ],
      "name": "getBalancerPoolForTokens",
      "outputs": [
        {
          "internalType": "address",
          "name": "",
          "type": "address"
        }
      ],
      "stateMutability": "view",
      "type": "function"
    },
    {
      "inputs": [],
      "name": "getCurveSwapPools",
      "outputs": [
        {
          "components": [
            {
              "internalType": "address",
              "name": "poolAddress",
              "type": "address"
            },
            {
              "internalType": "address[]",
              "name": "coins",
              "type": "address[]"
            }
          ],
          "internalType": "struct AddressesProvider.CurveSwapPool[]",
          "name": "",
          "type": "tuple[]"
        }
      ],
      "stateMutability": "view",
      "type": "function"
    },
    {
      "inputs": [
        {
          "internalType": "address",
          "name": "asset",
          "type": "address"
        }
      ],
      "name": "getFundingStrategy",
      "outputs": [
        {
          "components": [
            {
              "internalType": "address",
              "name": "addr",
              "type": "address"
            },
            {
              "internalType": "string",
              "name": "contractInterface",
              "type": "string"
            },
            {
              "internalType": "address",
              "name": "inputToken",
              "type": "address"
            }
          ],
          "internalType": "struct AddressesProvider.FundingStrategy",
          "name": "",
          "type": "tuple"
        }
      ],
      "stateMutability": "view",
      "type": "function"
    },
    {
      "inputs": [],
      "name": "getJarvisPools",
      "outputs": [
        {
          "components": [
            {
              "internalType": "address",
              "name": "syntheticToken",
              "type": "address"
            },
            {
              "internalType": "address",
              "name": "collateralToken",
              "type": "address"
            },
            {
              "internalType": "address",
              "name": "liquidityPool",
              "type": "address"
            },
            {
              "internalType": "uint256",
              "name": "expirationTime",
              "type": "uint256"
            }
          ],
          "internalType": "struct AddressesProvider.JarvisPool[]",
          "name": "",
          "type": "tuple[]"
        }
      ],
      "stateMutability": "view",
      "type": "function"
    },
    {
      "inputs": [
        {
          "internalType": "address",
          "name": "asset",
          "type": "address"
        }
      ],
      "name": "getRedemptionStrategy",
      "outputs": [
        {
          "components": [
            {
              "internalType": "address",
              "name": "addr",
              "type": "address"
            },
            {
              "internalType": "string",
              "name": "contractInterface",
              "type": "string"
            },
            {
              "internalType": "address",
              "name": "outputToken",
              "type": "address"
            }
          ],
          "internalType": "struct AddressesProvider.RedemptionStrategy",
          "name": "",
          "type": "tuple"
        }
      ],
      "stateMutability": "view",
      "type": "function"
    },
    {
      "inputs": [
        {
          "internalType": "address",
          "name": "owner",
          "type": "address"
        }
      ],
      "name": "initialize",
      "outputs": [],
      "stateMutability": "nonpayable",
      "type": "function"
    },
    {
      "inputs": [
        {
          "internalType": "uint256",
          "name": "",
          "type": "uint256"
        }
      ],
      "name": "jarvisPoolsConfig",
      "outputs": [
        {
          "internalType": "address",
          "name": "syntheticToken",
          "type": "address"
        },
        {
          "internalType": "address",
          "name": "collateralToken",
          "type": "address"
        },
        {
          "internalType": "address",
          "name": "liquidityPool",
          "type": "address"
        },
        {
          "internalType": "uint256",
          "name": "expirationTime",
          "type": "uint256"
        }
      ],
      "stateMutability": "view",
      "type": "function"
    },
    {
      "inputs": [],
      "name": "owner",
      "outputs": [
        {
          "internalType": "address",
          "name": "",
          "type": "address"
        }
      ],
      "stateMutability": "view",
      "type": "function"
    },
    {
      "inputs": [
        {
          "internalType": "address",
          "name": "",
          "type": "address"
        }
      ],
      "name": "plugins",
      "outputs": [
        {
          "internalType": "address",
          "name": "addr",
          "type": "address"
        },
        {
          "internalType": "string",
          "name": "contractInterface",
          "type": "string"
        }
      ],
      "stateMutability": "view",
      "type": "function"
    },
    {
      "inputs": [
        {
          "internalType": "address",
          "name": "",
          "type": "address"
        }
      ],
      "name": "redemptionStrategies",
      "outputs": [
        {
          "internalType": "address",
          "name": "addr",
          "type": "address"
        },
        {
          "internalType": "string",
          "name": "contractInterface",
          "type": "string"
        }
      ],
      "stateMutability": "view",
      "type": "function"
    },
    {
      "inputs": [
        {
          "internalType": "address",
          "name": "",
          "type": "address"
        }
      ],
      "name": "redemptionStrategiesConfig",
      "outputs": [
        {
          "internalType": "address",
          "name": "addr",
          "type": "address"
        },
        {
          "internalType": "string",
          "name": "contractInterface",
          "type": "string"
        },
        {
          "internalType": "address",
          "name": "outputToken",
          "type": "address"
        }
      ],
      "stateMutability": "view",
      "type": "function"
    },
    {
      "inputs": [],
      "name": "renounceOwnership",
      "outputs": [],
      "stateMutability": "nonpayable",
      "type": "function"
    },
    {
      "inputs": [
        {
          "internalType": "string",
          "name": "id",
          "type": "string"
        },
        {
          "internalType": "address",
          "name": "newAddress",
          "type": "address"
        }
      ],
      "name": "setAddress",
      "outputs": [],
      "stateMutability": "nonpayable",
      "type": "function"
    },
    {
      "inputs": [
        {
          "internalType": "address",
          "name": "inputToken",
          "type": "address"
        },
        {
          "internalType": "address",
          "name": "outputToken",
          "type": "address"
        },
        {
          "internalType": "address",
          "name": "pool",
          "type": "address"
        }
      ],
      "name": "setBalancerPoolForTokens",
      "outputs": [],
      "stateMutability": "nonpayable",
      "type": "function"
    },
    {
      "inputs": [
        {
          "internalType": "address",
          "name": "poolAddress",
          "type": "address"
        },
        {
          "internalType": "address[]",
          "name": "coins",
          "type": "address[]"
        }
      ],
      "name": "setCurveSwapPool",
      "outputs": [],
      "stateMutability": "nonpayable",
      "type": "function"
    },
    {
      "inputs": [
        {
          "internalType": "address",
          "name": "rewardToken",
          "type": "address"
        },
        {
          "internalType": "address",
          "name": "flywheelRewardsModule",
          "type": "address"
        },
        {
          "internalType": "string",
          "name": "contractInterface",
          "type": "string"
        }
      ],
      "name": "setFlywheelRewards",
      "outputs": [],
      "stateMutability": "nonpayable",
      "type": "function"
    },
    {
      "inputs": [
        {
          "internalType": "address",
          "name": "asset",
          "type": "address"
        },
        {
          "internalType": "address",
          "name": "strategy",
          "type": "address"
        },
        {
          "internalType": "string",
          "name": "contractInterface",
          "type": "string"
        },
        {
          "internalType": "address",
          "name": "inputToken",
          "type": "address"
        }
      ],
      "name": "setFundingStrategy",
      "outputs": [],
      "stateMutability": "nonpayable",
      "type": "function"
    },
    {
      "inputs": [
        {
          "internalType": "address",
          "name": "syntheticToken",
          "type": "address"
        },
        {
          "internalType": "address",
          "name": "collateralToken",
          "type": "address"
        },
        {
          "internalType": "address",
          "name": "liquidityPool",
          "type": "address"
        },
        {
          "internalType": "uint256",
          "name": "expirationTime",
          "type": "uint256"
        }
      ],
      "name": "setJarvisPool",
      "outputs": [],
      "stateMutability": "nonpayable",
      "type": "function"
    },
    {
      "inputs": [
        {
          "internalType": "address",
          "name": "asset",
          "type": "address"
        },
        {
          "internalType": "address",
          "name": "plugin",
          "type": "address"
        },
        {
          "internalType": "string",
          "name": "contractInterface",
          "type": "string"
        }
      ],
      "name": "setPlugin",
      "outputs": [],
      "stateMutability": "nonpayable",
      "type": "function"
    },
    {
      "inputs": [
        {
          "internalType": "address",
          "name": "asset",
          "type": "address"
        },
        {
          "internalType": "address",
          "name": "strategy",
          "type": "address"
        },
        {
          "internalType": "string",
          "name": "contractInterface",
          "type": "string"
        },
        {
          "internalType": "address",
          "name": "outputToken",
          "type": "address"
        }
      ],
      "name": "setRedemptionStrategy",
      "outputs": [],
      "stateMutability": "nonpayable",
      "type": "function"
    },
    {
      "inputs": [
        {
          "internalType": "address",
          "name": "newOwner",
          "type": "address"
        }
      ],
      "name": "transferOwnership",
      "outputs": [],
      "stateMutability": "nonpayable",
      "type": "function"
    }
  ],
  "transactionHash": "0xec9e2a1c6dfe48de7fa60061152377581a55a0b04ff570772444e56c91d25842",
  "args": [],
  "numDeployments": 1,
  "bytecode": {
    "object": "0x608060405234801561001057600080fd5b506118f7806100206000396000f3fe608060405234801561001057600080fd5b50600436106101a95760003560e01c806381bc3632116100f9578063b40dc80311610097578063c4d66de811610071578063c4d66de81461041e578063ceb4e94314610431578063cf78b30a14610444578063f2fde38b1461045757600080fd5b8063b40dc803146103e5578063b9197554146103f8578063bf40fac11461040b57600080fd5b8063984d8655116100d3578063984d86551461036b5780639b2ea4bd1461039f578063a11b73a6146103b2578063a13449d6146103c557600080fd5b806381bc3632146102fb5780638da5cb5b1461030e578063959fc0971461033357600080fd5b806344fca6971161016657806362772c731161014057806362772c7314610283578063715018a61461029657806377d792191461029e5780637930b9b0146102b357600080fd5b806344fca6971461024a5780634b12e6431461025d5780635b7e4c961461027057600080fd5b8063073d0b6c146101ae5780631783a521146101c357806328918a6a146101d65780632cf3219c14610200578063316eb395146102155780634172e7f914610237575b600080fd5b6101c16101bc36600461134b565b61046a565b005b6101c16101d136600461134b565b610544565b6101e96101e43660046113c1565b6105ed565b6040516101f7929190611430565b60405180910390f35b61020861069c565b6040516101f7919061145c565b6102286102233660046113c1565b610768565b6040516101f79392919061150b565b6101e96102453660046113c1565b610826565b6101c1610258366004611540565b610852565b6101e961026b3660046113c1565b610967565b6101e961027e3660046113c1565b610993565b6101c161029136600461158b565b6109bf565b6101c1610a71565b6102a6610a85565b6040516101f79190611611565b6102c66102c1366004611683565b610b0d565b6040516101f794939291906001600160a01b039485168152928416602084015292166040820152606081019190915260800190565b6101c161030936600461169c565b610b57565b6033546001600160a01b03165b6040516001600160a01b0390911681526020016101f7565b61031b6103413660046116fd565b6001600160a01b039182166000908152606f60209081526040808320938516835292905220541690565b61031b6103793660046116fd565b606f6020908152600092835260408084209091529082529020546001600160a01b031681565b6101c16103ad366004611730565b610c03565b6101c16103c036600461169c565b610c52565b6103d86103d33660046113c1565b610cf5565b6040516101f791906117c5565b6102286103f33660046113c1565b610e0b565b6101c16104063660046117d8565b610e37565b61031b610419366004611812565b610e7c565b6101c161042c3660046113c1565b610eb1565b61031b61043f366004611683565b610fd1565b6103d86104523660046113c1565b611000565b6101c16104653660046113c1565b611079565b6104726110f2565b6040518060600160405280856001600160a01b0316815260200184848080601f01602080910402602001604051908101604052809392919081815260200183838082843760009201829052509385525050506001600160a01b038481166020938401528881168252606e83526040909120835181546001600160a01b03191692169190911781558282015180519192610513926001850192909101906111f8565b5060409190910151600290910180546001600160a01b0319166001600160a01b039092169190911790555050505050565b61054c6110f2565b6040518060600160405280856001600160a01b0316815260200184848080601f01602080910402602001604051908101604052809392919081815260200183838082843760009201829052509385525050506001600160a01b038481166020938401528881168252606d83526040909120835181546001600160a01b03191692169190911781558282015180519192610513926001850192909101906111f8565b606860205260009081526040902080546001820180546001600160a01b03909216929161061990611854565b80601f016020809104026020016040519081016040528092919081815260200182805461064590611854565b80156106925780601f1061066757610100808354040283529160200191610692565b820191906000526020600020905b81548152906001019060200180831161067557829003601f168201915b5050505050905082565b6060606c805480602002602001604051908101604052809291908181526020016000905b8282101561075f5760008481526020908190206040805180820182526002860290920180546001600160a01b0316835260018101805483518187028101870190945280845293949193858301939283018282801561074757602002820191906000526020600020905b81546001600160a01b03168152600190910190602001808311610729575b505050505081525050815260200190600101906106c0565b50505050905090565b606e60205260009081526040902080546001820180546001600160a01b03909216929161079490611854565b80601f01602080910402602001604051908101604052809291908181526020018280546107c090611854565b801561080d5780601f106107e25761010080835404028352916020019161080d565b820191906000526020600020905b8154815290600101906020018083116107f057829003601f168201915b505050600290930154919250506001600160a01b031683565b606660205260009081526040902080546001820180546001600160a01b03909216929161061990611854565b61085a6110f2565b604080516080810182526001600160a01b0395861681529385166020850190815292851690840190815260608401918252606b8054600181018255600091909152935160049094027fbd43cb8ece8cd1863bcd6082d65c5b0d25665b1ce17980f0da43c0ed545f98b4810180549587166001600160a01b031996871617905592517fbd43cb8ece8cd1863bcd6082d65c5b0d25665b1ce17980f0da43c0ed545f98b584018054918716918616919091179055517fbd43cb8ece8cd1863bcd6082d65c5b0d25665b1ce17980f0da43c0ed545f98b68301805491909516931692909217909255517fbd43cb8ece8cd1863bcd6082d65c5b0d25665b1ce17980f0da43c0ed545f98b790910155565b606760205260009081526040902080546001820180546001600160a01b03909216929161061990611854565b606960205260009081526040902080546001820180546001600160a01b03909216929161061990611854565b6109c76110f2565b606c6040518060400160405280856001600160a01b031681526020018484808060200260200160405190810160405280939291908181526020018383602002808284376000920182905250939094525050835460018082018655948252602091829020845160029092020180546001600160a01b0319166001600160a01b0390921691909117815583820151805194959194610a69945091850192019061127c565b505050505050565b610a796110f2565b610a83600061114c565b565b6060606b805480602002602001604051908101604052809291908181526020016000905b8282101561075f576000848152602090819020604080516080810182526004860290920180546001600160a01b0390811684526001808301548216858701526002830154909116928401929092526003015460608301529083529092019101610aa9565b606b8181548110610b1d57600080fd5b600091825260209091206004909102018054600182015460028301546003909301546001600160a01b039283169450908216929091169084565b610b5f6110f2565b6040518060400160405280846001600160a01b0316815260200183838080601f01602080910402602001604051908101604052809392919081815260200183838082843760009201829052509390945250506001600160a01b038781168252606760209081526040909220845181546001600160a01b0319169216919091178155838201518051919350610bfa9260018501929101906111f8565b50505050505050565b610c0b6110f2565b8060658484604051610c1e92919061188f565b90815260405190819003602001902080546001600160a01b03929092166001600160a01b0319909216919091179055505050565b610c5a6110f2565b6040518060400160405280846001600160a01b0316815260200183838080601f01602080910402602001604051908101604052809392919081815260200183838082843760009201829052509390945250506001600160a01b038781168252606660209081526040909220845181546001600160a01b0319169216919091178155838201518051919350610bfa9260018501929101906111f8565b610d2b604051806060016040528060006001600160a01b031681526020016060815260200160006001600160a01b031681525090565b6001600160a01b038083166000908152606e60209081526040918290208251606081019093528054909316825260018301805492939291840191610d6e90611854565b80601f0160208091040260200160405190810160405280929190818152602001828054610d9a90611854565b8015610de75780601f10610dbc57610100808354040283529160200191610de7565b820191906000526020600020905b815481529060010190602001808311610dca57829003601f168201915b5050509183525050600291909101546001600160a01b031660209091015292915050565b606d60205260009081526040902080546001820180546001600160a01b03909216929161079490611854565b610e3f6110f2565b6001600160a01b039283166000908152606f6020908152604080832094861683529390529190912080546001600160a01b03191691909216179055565b600060658383604051610e9092919061188f565b908152604051908190036020019020546001600160a01b0316905092915050565b600054610100900460ff1615808015610ed15750600054600160ff909116105b80610eeb5750303b158015610eeb575060005460ff166001145b610f535760405162461bcd60e51b815260206004820152602e60248201527f496e697469616c697a61626c653a20636f6e747261637420697320616c72656160448201526d191e481a5b9a5d1a585b1a5e995960921b60648201526084015b60405180910390fd5b6000805460ff191660011790558015610f76576000805461ff0019166101001790555b610f7e61119e565b610f878261114c565b8015610fcd576000805461ff0019169055604051600181527f7f26b83ff96e1f2b6a682f133852f6798a09c465da95921460cefb38474024989060200160405180910390a15b5050565b606c8181548110610fe157600080fd5b60009182526020909120600290910201546001600160a01b0316905081565b611036604051806060016040528060006001600160a01b031681526020016060815260200160006001600160a01b031681525090565b6001600160a01b038083166000908152606d60209081526040918290208251606081019093528054909316825260018301805492939291840191610d6e90611854565b6110816110f2565b6001600160a01b0381166110e65760405162461bcd60e51b815260206004820152602660248201527f4f776e61626c653a206e6577206f776e657220697320746865207a65726f206160448201526564647265737360d01b6064820152608401610f4a565b6110ef8161114c565b50565b6033546001600160a01b03163314610a835760405162461bcd60e51b815260206004820181905260248201527f4f776e61626c653a2063616c6c6572206973206e6f7420746865206f776e65726044820152606401610f4a565b603380546001600160a01b038381166001600160a01b0319831681179093556040519116919082907f8be0079c531659141344cd1fd0a4f28419497f9722a3daafe3b4186f6b6457e090600090a35050565b600054610100900460ff166111c55760405162461bcd60e51b8152600401610f4a9061189f565b610a83600054610100900460ff166111ef5760405162461bcd60e51b8152600401610f4a9061189f565b610a833361114c565b82805461120490611854565b90600052602060002090601f016020900481019282611226576000855561126c565b82601f1061123f57805160ff191683800117855561126c565b8280016001018555821561126c579182015b8281111561126c578251825591602001919060010190611251565b506112789291506112d1565b5090565b82805482825590600052602060002090810192821561126c579160200282015b8281111561126c57825182546001600160a01b0319166001600160a01b0390911617825560209092019160019091019061129c565b5b8082111561127857600081556001016112d2565b80356001600160a01b03811681146112fd57600080fd5b919050565b60008083601f84011261131457600080fd5b50813567ffffffffffffffff81111561132c57600080fd5b60208301915083602082850101111561134457600080fd5b9250929050565b60008060008060006080868803121561136357600080fd5b61136c866112e6565b945061137a602087016112e6565b9350604086013567ffffffffffffffff81111561139657600080fd5b6113a288828901611302565b90945092506113b59050606087016112e6565b90509295509295909350565b6000602082840312156113d357600080fd5b6113dc826112e6565b9392505050565b6000815180845260005b81811015611409576020818501810151868301820152016113ed565b8181111561141b576000602083870101525b50601f01601f19169290920160200192915050565b6001600160a01b0383168152604060208201819052600090611454908301846113e3565b949350505050565b60006020808301818452808551808352604092508286019150828160051b8701018488016000805b848110156114fc57898403603f19018652825180516001600160a01b039081168652908901518986018990528051898701819052908a0191849160608801905b808410156114e657845183168252938c019360019390930192908c01906114c4565b50988b0198965050509288019250600101611484565b50919998505050505050505050565b600060018060a01b0380861683526060602084015261152d60608401866113e3565b9150808416604084015250949350505050565b6000806000806080858703121561155657600080fd5b61155f856112e6565b935061156d602086016112e6565b925061157b604086016112e6565b9396929550929360600135925050565b6000806000604084860312156115a057600080fd5b6115a9846112e6565b9250602084013567ffffffffffffffff808211156115c657600080fd5b818601915086601f8301126115da57600080fd5b8135818111156115e957600080fd5b8760208260051b85010111156115fe57600080fd5b6020830194508093505050509250925092565b602080825282518282018190526000919060409081850190868401855b8281101561167657815180516001600160a01b03908116865287820151811688870152868201511686860152606090810151908501526080909301929085019060010161162e565b5091979650505050505050565b60006020828403121561169557600080fd5b5035919050565b600080600080606085870312156116b257600080fd5b6116bb856112e6565b93506116c9602086016112e6565b9250604085013567ffffffffffffffff8111156116e557600080fd5b6116f187828801611302565b95989497509550505050565b6000806040838503121561171057600080fd5b611719836112e6565b9150611727602084016112e6565b90509250929050565b60008060006040848603121561174557600080fd5b833567ffffffffffffffff81111561175c57600080fd5b61176886828701611302565b909450925061177b9050602085016112e6565b90509250925092565b600060018060a01b038083511684526020830151606060208601526117ac60608601826113e3565b9050816040850151166040860152809250505092915050565b6020815260006113dc6020830184611784565b6000806000606084860312156117ed57600080fd5b6117f6846112e6565b9250611804602085016112e6565b915061177b604085016112e6565b6000806020838503121561182557600080fd5b823567ffffffffffffffff81111561183c57600080fd5b61184885828601611302565b90969095509350505050565b600181811c9082168061186857607f821691505b6020821081141561188957634e487b7160e01b600052602260045260246000fd5b50919050565b8183823760009101908152919050565b6020808252602b908201527f496e697469616c697a61626c653a20636f6e7472616374206973206e6f74206960408201526a6e697469616c697a696e6760a81b60608201526080019056fea164736f6c634300080a000a",
    "linkReferences": {}
  },
  "methodIdentifiers": {
    "balancerPoolForTokens(address,address)": "984d8655",
    "curveSwapPoolsConfig(uint256)": "ceb4e943",
    "flywheelRewards(address)": "4172e7f9",
    "fundingStrategies(address)": "5b7e4c96",
    "fundingStrategiesConfig(address)": "316eb395",
    "getAddress(string)": "bf40fac1",
    "getBalancerPoolForTokens(address,address)": "959fc097",
    "getCurveSwapPools()": "2cf3219c",
    "getFundingStrategy(address)": "a13449d6",
    "getJarvisPools()": "77d79219",
    "getRedemptionStrategy(address)": "cf78b30a",
    "initialize(address)": "c4d66de8",
    "jarvisPoolsConfig(uint256)": "7930b9b0",
    "owner()": "8da5cb5b",
    "plugins(address)": "4b12e643",
    "redemptionStrategies(address)": "28918a6a",
    "redemptionStrategiesConfig(address)": "b40dc803",
    "renounceOwnership()": "715018a6",
    "setAddress(string,address)": "9b2ea4bd",
    "setBalancerPoolForTokens(address,address,address)": "b9197554",
    "setCurveSwapPool(address,address[])": "62772c73",
    "setFlywheelRewards(address,address,string)": "a11b73a6",
    "setFundingStrategy(address,address,string,address)": "073d0b6c",
    "setJarvisPool(address,address,address,uint256)": "44fca697",
    "setPlugin(address,address,string)": "81bc3632",
    "setRedemptionStrategy(address,address,string,address)": "1783a521",
    "transferOwnership(address)": "f2fde38b"
  }
}