{
  "address": "0xD7225110D8F419b0E8Ad0A536977965E62fB5769",
  "abi": [
    {
      "anonymous": false,
      "inputs": [
        {
          "indexed": false,
          "internalType": "uint8",
          "name": "version",
          "type": "uint8"
        }
      ],
      "name": "Initialized",
      "type": "event"
    },
    {
      "inputs": [],
      "name": "directory",
      "outputs": [
        {
          "internalType": "contract FusePoolDirectory",
          "name": "",
          "type": "address"
        }
      ],
      "stateMutability": "view",
      "type": "function"
    },
    {
      "inputs": [
        {
          "internalType": "contract ICErc20",
          "name": "asset",
          "type": "address"
        }
      ],
      "name": "getBorrowCapsDataForAsset",
      "outputs": [
        {
          "internalType": "address[]",
          "name": "collateral",
          "type": "address[]"
        },
        {
          "internalType": "uint256[]",
          "name": "borrowCapsPerCollateral",
          "type": "uint256[]"
        },
        {
          "internalType": "bool[]",
          "name": "collateralBlacklisted",
          "type": "bool[]"
        },
        {
          "internalType": "uint256",
          "name": "totalBorrowCap",
          "type": "uint256"
        },
        {
          "internalType": "uint256",
          "name": "nonWhitelistedTotalBorrows",
          "type": "uint256"
        }
      ],
      "stateMutability": "view",
      "type": "function"
    },
    {
      "inputs": [
        {
          "internalType": "contract ICErc20",
          "name": "asset",
          "type": "address"
        }
      ],
      "name": "getBorrowCapsForAsset",
      "outputs": [
        {
          "internalType": "address[]",
          "name": "collateral",
          "type": "address[]"
        },
        {
          "internalType": "uint256[]",
          "name": "borrowCapsPerCollateral",
          "type": "uint256[]"
        },
        {
          "internalType": "bool[]",
          "name": "collateralBlacklisted",
          "type": "bool[]"
        },
        {
          "internalType": "uint256",
          "name": "totalBorrowCap",
          "type": "uint256"
        }
      ],
      "stateMutability": "view",
      "type": "function"
    },
    {
      "inputs": [
        {
          "internalType": "contract IComptroller",
          "name": "comptroller",
          "type": "address"
        },
        {
          "internalType": "address",
          "name": "user",
          "type": "address"
        }
      ],
      "name": "getPoolAssetsByUser",
      "outputs": [
        {
          "components": [
            {
              "internalType": "address",
              "name": "cToken",
              "type": "address"
            },
            {
              "internalType": "address",
              "name": "underlyingToken",
              "type": "address"
            },
            {
              "internalType": "string",
              "name": "underlyingName",
              "type": "string"
            },
            {
              "internalType": "string",
              "name": "underlyingSymbol",
              "type": "string"
            },
            {
              "internalType": "uint256",
              "name": "underlyingDecimals",
              "type": "uint256"
            },
            {
              "internalType": "uint256",
              "name": "underlyingBalance",
              "type": "uint256"
            },
            {
              "internalType": "uint256",
              "name": "supplyRatePerBlock",
              "type": "uint256"
            },
            {
              "internalType": "uint256",
              "name": "borrowRatePerBlock",
              "type": "uint256"
            },
            {
              "internalType": "uint256",
              "name": "totalSupply",
              "type": "uint256"
            },
            {
              "internalType": "uint256",
              "name": "totalBorrow",
              "type": "uint256"
            },
            {
              "internalType": "uint256",
              "name": "supplyBalance",
              "type": "uint256"
            },
            {
              "internalType": "uint256",
              "name": "borrowBalance",
              "type": "uint256"
            },
            {
              "internalType": "uint256",
              "name": "liquidity",
              "type": "uint256"
            },
            {
              "internalType": "bool",
              "name": "membership",
              "type": "bool"
            },
            {
              "internalType": "uint256",
              "name": "exchangeRate",
              "type": "uint256"
            },
            {
              "internalType": "uint256",
              "name": "underlyingPrice",
              "type": "uint256"
            },
            {
              "internalType": "address",
              "name": "oracle",
              "type": "address"
            },
            {
              "internalType": "uint256",
              "name": "collateralFactor",
              "type": "uint256"
            },
            {
              "internalType": "uint256",
              "name": "reserveFactor",
              "type": "uint256"
            },
            {
              "internalType": "uint256",
              "name": "adminFee",
              "type": "uint256"
            },
            {
              "internalType": "uint256",
              "name": "fuseFee",
              "type": "uint256"
            },
            {
              "internalType": "bool",
              "name": "borrowGuardianPaused",
              "type": "bool"
            },
            {
              "internalType": "bool",
              "name": "mintGuardianPaused",
              "type": "bool"
            }
          ],
          "internalType": "struct FusePoolLens.FusePoolAsset[]",
          "name": "",
          "type": "tuple[]"
        }
      ],
      "stateMutability": "nonpayable",
      "type": "function"
    },
    {
      "inputs": [
        {
          "internalType": "contract IComptroller",
          "name": "comptroller",
          "type": "address"
        }
      ],
      "name": "getPoolAssetsWithData",
      "outputs": [
        {
          "components": [
            {
              "internalType": "address",
              "name": "cToken",
              "type": "address"
            },
            {
              "internalType": "address",
              "name": "underlyingToken",
              "type": "address"
            },
            {
              "internalType": "string",
              "name": "underlyingName",
              "type": "string"
            },
            {
              "internalType": "string",
              "name": "underlyingSymbol",
              "type": "string"
            },
            {
              "internalType": "uint256",
              "name": "underlyingDecimals",
              "type": "uint256"
            },
            {
              "internalType": "uint256",
              "name": "underlyingBalance",
              "type": "uint256"
            },
            {
              "internalType": "uint256",
              "name": "supplyRatePerBlock",
              "type": "uint256"
            },
            {
              "internalType": "uint256",
              "name": "borrowRatePerBlock",
              "type": "uint256"
            },
            {
              "internalType": "uint256",
              "name": "totalSupply",
              "type": "uint256"
            },
            {
              "internalType": "uint256",
              "name": "totalBorrow",
              "type": "uint256"
            },
            {
              "internalType": "uint256",
              "name": "supplyBalance",
              "type": "uint256"
            },
            {
              "internalType": "uint256",
              "name": "borrowBalance",
              "type": "uint256"
            },
            {
              "internalType": "uint256",
              "name": "liquidity",
              "type": "uint256"
            },
            {
              "internalType": "bool",
              "name": "membership",
              "type": "bool"
            },
            {
              "internalType": "uint256",
              "name": "exchangeRate",
              "type": "uint256"
            },
            {
              "internalType": "uint256",
              "name": "underlyingPrice",
              "type": "uint256"
            },
            {
              "internalType": "address",
              "name": "oracle",
              "type": "address"
            },
            {
              "internalType": "uint256",
              "name": "collateralFactor",
              "type": "uint256"
            },
            {
              "internalType": "uint256",
              "name": "reserveFactor",
              "type": "uint256"
            },
            {
              "internalType": "uint256",
              "name": "adminFee",
              "type": "uint256"
            },
            {
              "internalType": "uint256",
              "name": "fuseFee",
              "type": "uint256"
            },
            {
              "internalType": "bool",
              "name": "borrowGuardianPaused",
              "type": "bool"
            },
            {
              "internalType": "bool",
              "name": "mintGuardianPaused",
              "type": "bool"
            }
          ],
          "internalType": "struct FusePoolLens.FusePoolAsset[]",
          "name": "",
          "type": "tuple[]"
        }
      ],
      "stateMutability": "nonpayable",
      "type": "function"
    },
    {
      "inputs": [
        {
          "internalType": "contract IComptroller",
          "name": "comptroller",
          "type": "address"
        }
      ],
      "name": "getPoolSummary",
      "outputs": [
        {
          "internalType": "uint256",
          "name": "",
          "type": "uint256"
        },
        {
          "internalType": "uint256",
          "name": "",
          "type": "uint256"
        },
        {
          "internalType": "address[]",
          "name": "",
          "type": "address[]"
        },
        {
          "internalType": "string[]",
          "name": "",
          "type": "string[]"
        },
        {
          "internalType": "bool",
          "name": "",
          "type": "bool"
        }
      ],
      "stateMutability": "nonpayable",
      "type": "function"
    },
    {
      "inputs": [
        {
          "internalType": "address",
          "name": "account",
          "type": "address"
        }
      ],
      "name": "getPoolsByAccountWithData",
      "outputs": [
        {
          "internalType": "uint256[]",
          "name": "",
          "type": "uint256[]"
        },
        {
          "components": [
            {
              "internalType": "string",
              "name": "name",
              "type": "string"
            },
            {
              "internalType": "address",
              "name": "creator",
              "type": "address"
            },
            {
              "internalType": "address",
              "name": "comptroller",
              "type": "address"
            },
            {
              "internalType": "uint256",
              "name": "blockPosted",
              "type": "uint256"
            },
            {
              "internalType": "uint256",
              "name": "timestampPosted",
              "type": "uint256"
            }
          ],
          "internalType": "struct FusePoolDirectory.FusePool[]",
          "name": "",
          "type": "tuple[]"
        },
        {
          "components": [
            {
              "internalType": "uint256",
              "name": "totalSupply",
              "type": "uint256"
            },
            {
              "internalType": "uint256",
              "name": "totalBorrow",
              "type": "uint256"
            },
            {
              "internalType": "address[]",
              "name": "underlyingTokens",
              "type": "address[]"
            },
            {
              "internalType": "string[]",
              "name": "underlyingSymbols",
              "type": "string[]"
            },
            {
              "internalType": "bool",
              "name": "whitelistedAdmin",
              "type": "bool"
            }
          ],
          "internalType": "struct FusePoolLens.FusePoolData[]",
          "name": "",
          "type": "tuple[]"
        },
        {
          "internalType": "bool[]",
          "name": "",
          "type": "bool[]"
        }
      ],
      "stateMutability": "nonpayable",
      "type": "function"
    },
    {
      "inputs": [
        {
          "internalType": "address",
          "name": "user",
          "type": "address"
        }
      ],
      "name": "getPoolsOfUserWithData",
      "outputs": [
        {
          "internalType": "uint256[]",
          "name": "",
          "type": "uint256[]"
        },
        {
          "components": [
            {
              "internalType": "string",
              "name": "name",
              "type": "string"
            },
            {
              "internalType": "address",
              "name": "creator",
              "type": "address"
            },
            {
              "internalType": "address",
              "name": "comptroller",
              "type": "address"
            },
            {
              "internalType": "uint256",
              "name": "blockPosted",
              "type": "uint256"
            },
            {
              "internalType": "uint256",
              "name": "timestampPosted",
              "type": "uint256"
            }
          ],
          "internalType": "struct FusePoolDirectory.FusePool[]",
          "name": "",
          "type": "tuple[]"
        },
        {
          "components": [
            {
              "internalType": "uint256",
              "name": "totalSupply",
              "type": "uint256"
            },
            {
              "internalType": "uint256",
              "name": "totalBorrow",
              "type": "uint256"
            },
            {
              "internalType": "address[]",
              "name": "underlyingTokens",
              "type": "address[]"
            },
            {
              "internalType": "string[]",
              "name": "underlyingSymbols",
              "type": "string[]"
            },
            {
              "internalType": "bool",
              "name": "whitelistedAdmin",
              "type": "bool"
            }
          ],
          "internalType": "struct FusePoolLens.FusePoolData[]",
          "name": "",
          "type": "tuple[]"
        },
        {
          "internalType": "bool[]",
          "name": "",
          "type": "bool[]"
        }
      ],
      "stateMutability": "nonpayable",
      "type": "function"
    },
    {
      "inputs": [
        {
          "internalType": "bool",
          "name": "whitelistedAdmin",
          "type": "bool"
        }
      ],
      "name": "getPublicPoolsByVerificationWithData",
      "outputs": [
        {
          "internalType": "uint256[]",
          "name": "",
          "type": "uint256[]"
        },
        {
          "components": [
            {
              "internalType": "string",
              "name": "name",
              "type": "string"
            },
            {
              "internalType": "address",
              "name": "creator",
              "type": "address"
            },
            {
              "internalType": "address",
              "name": "comptroller",
              "type": "address"
            },
            {
              "internalType": "uint256",
              "name": "blockPosted",
              "type": "uint256"
            },
            {
              "internalType": "uint256",
              "name": "timestampPosted",
              "type": "uint256"
            }
          ],
          "internalType": "struct FusePoolDirectory.FusePool[]",
          "name": "",
          "type": "tuple[]"
        },
        {
          "components": [
            {
              "internalType": "uint256",
              "name": "totalSupply",
              "type": "uint256"
            },
            {
              "internalType": "uint256",
              "name": "totalBorrow",
              "type": "uint256"
            },
            {
              "internalType": "address[]",
              "name": "underlyingTokens",
              "type": "address[]"
            },
            {
              "internalType": "string[]",
              "name": "underlyingSymbols",
              "type": "string[]"
            },
            {
              "internalType": "bool",
              "name": "whitelistedAdmin",
              "type": "bool"
            }
          ],
          "internalType": "struct FusePoolLens.FusePoolData[]",
          "name": "",
          "type": "tuple[]"
        },
        {
          "internalType": "bool[]",
          "name": "",
          "type": "bool[]"
        }
      ],
      "stateMutability": "nonpayable",
      "type": "function"
    },
    {
      "inputs": [],
      "name": "getPublicPoolsWithData",
      "outputs": [
        {
          "internalType": "uint256[]",
          "name": "",
          "type": "uint256[]"
        },
        {
          "components": [
            {
              "internalType": "string",
              "name": "name",
              "type": "string"
            },
            {
              "internalType": "address",
              "name": "creator",
              "type": "address"
            },
            {
              "internalType": "address",
              "name": "comptroller",
              "type": "address"
            },
            {
              "internalType": "uint256",
              "name": "blockPosted",
              "type": "uint256"
            },
            {
              "internalType": "uint256",
              "name": "timestampPosted",
              "type": "uint256"
            }
          ],
          "internalType": "struct FusePoolDirectory.FusePool[]",
          "name": "",
          "type": "tuple[]"
        },
        {
          "components": [
            {
              "internalType": "uint256",
              "name": "totalSupply",
              "type": "uint256"
            },
            {
              "internalType": "uint256",
              "name": "totalBorrow",
              "type": "uint256"
            },
            {
              "internalType": "address[]",
              "name": "underlyingTokens",
              "type": "address[]"
            },
            {
              "internalType": "string[]",
              "name": "underlyingSymbols",
              "type": "string[]"
            },
            {
              "internalType": "bool",
              "name": "whitelistedAdmin",
              "type": "bool"
            }
          ],
          "internalType": "struct FusePoolLens.FusePoolData[]",
          "name": "",
          "type": "tuple[]"
        },
        {
          "internalType": "bool[]",
          "name": "",
          "type": "bool[]"
        }
      ],
      "stateMutability": "nonpayable",
      "type": "function"
    },
    {
      "inputs": [
        {
          "internalType": "contract IComptroller",
          "name": "comptroller",
          "type": "address"
        }
      ],
      "name": "getSupplyCapsDataForPool",
      "outputs": [
        {
          "internalType": "address[]",
          "name": "",
          "type": "address[]"
        },
        {
          "internalType": "uint256[]",
          "name": "",
          "type": "uint256[]"
        },
        {
          "internalType": "uint256[]",
          "name": "",
          "type": "uint256[]"
        }
      ],
      "stateMutability": "view",
      "type": "function"
    },
    {
      "inputs": [
        {
          "internalType": "contract IComptroller",
          "name": "comptroller",
          "type": "address"
        }
      ],
      "name": "getSupplyCapsForPool",
      "outputs": [
        {
          "internalType": "address[]",
          "name": "",
          "type": "address[]"
        },
        {
          "internalType": "uint256[]",
          "name": "",
          "type": "uint256[]"
        }
      ],
      "stateMutability": "view",
      "type": "function"
    },
    {
      "inputs": [
        {
          "internalType": "address",
          "name": "account",
          "type": "address"
        }
      ],
      "name": "getWhitelistedPoolsByAccount",
      "outputs": [
        {
          "internalType": "uint256[]",
          "name": "",
          "type": "uint256[]"
        },
        {
          "components": [
            {
              "internalType": "string",
              "name": "name",
              "type": "string"
            },
            {
              "internalType": "address",
              "name": "creator",
              "type": "address"
            },
            {
              "internalType": "address",
              "name": "comptroller",
              "type": "address"
            },
            {
              "internalType": "uint256",
              "name": "blockPosted",
              "type": "uint256"
            },
            {
              "internalType": "uint256",
              "name": "timestampPosted",
              "type": "uint256"
            }
          ],
          "internalType": "struct FusePoolDirectory.FusePool[]",
          "name": "",
          "type": "tuple[]"
        }
      ],
      "stateMutability": "view",
      "type": "function"
    },
    {
      "inputs": [
        {
          "internalType": "address",
          "name": "account",
          "type": "address"
        }
      ],
      "name": "getWhitelistedPoolsByAccountWithData",
      "outputs": [
        {
          "internalType": "uint256[]",
          "name": "",
          "type": "uint256[]"
        },
        {
          "components": [
            {
              "internalType": "string",
              "name": "name",
              "type": "string"
            },
            {
              "internalType": "address",
              "name": "creator",
              "type": "address"
            },
            {
              "internalType": "address",
              "name": "comptroller",
              "type": "address"
            },
            {
              "internalType": "uint256",
              "name": "blockPosted",
              "type": "uint256"
            },
            {
              "internalType": "uint256",
              "name": "timestampPosted",
              "type": "uint256"
            }
          ],
          "internalType": "struct FusePoolDirectory.FusePool[]",
          "name": "",
          "type": "tuple[]"
        },
        {
          "components": [
            {
              "internalType": "uint256",
              "name": "totalSupply",
              "type": "uint256"
            },
            {
              "internalType": "uint256",
              "name": "totalBorrow",
              "type": "uint256"
            },
            {
              "internalType": "address[]",
              "name": "underlyingTokens",
              "type": "address[]"
            },
            {
              "internalType": "string[]",
              "name": "underlyingSymbols",
              "type": "string[]"
            },
            {
              "internalType": "bool",
              "name": "whitelistedAdmin",
              "type": "bool"
            }
          ],
          "internalType": "struct FusePoolLens.FusePoolData[]",
          "name": "",
          "type": "tuple[]"
        },
        {
          "internalType": "bool[]",
          "name": "",
          "type": "bool[]"
        }
      ],
      "stateMutability": "nonpayable",
      "type": "function"
    },
    {
      "inputs": [
        {
          "internalType": "contract FusePoolDirectory",
          "name": "_directory",
          "type": "address"
        },
        {
          "internalType": "string",
          "name": "_name",
          "type": "string"
        },
        {
          "internalType": "string",
          "name": "_symbol",
          "type": "string"
        },
        {
          "internalType": "address[]",
          "name": "_hardcodedAddresses",
          "type": "address[]"
        },
        {
          "internalType": "string[]",
          "name": "_hardcodedNames",
          "type": "string[]"
        },
        {
          "internalType": "string[]",
          "name": "_hardcodedSymbols",
          "type": "string[]"
        },
        {
          "internalType": "string[]",
          "name": "_uniswapLPTokenNames",
          "type": "string[]"
        },
        {
          "internalType": "string[]",
          "name": "_uniswapLPTokenSymbols",
          "type": "string[]"
        },
        {
          "internalType": "string[]",
          "name": "_uniswapLPTokenDisplayNames",
          "type": "string[]"
        }
      ],
      "name": "initialize",
      "outputs": [],
      "stateMutability": "nonpayable",
      "type": "function"
    },
    {
      "inputs": [],
      "name": "name",
      "outputs": [
        {
          "internalType": "string",
          "name": "",
          "type": "string"
        }
      ],
      "stateMutability": "view",
      "type": "function"
    },
    {
      "inputs": [],
      "name": "symbol",
      "outputs": [
        {
          "internalType": "string",
          "name": "",
          "type": "string"
        }
      ],
      "stateMutability": "view",
      "type": "function"
    }
  ],
  "transactionHash": "0xb6243bb510101996457e99bb1f63022e96d5c5e8a24ddf1cfa5c49e4eba3130e",
  "args": [],
  "numDeployments": 1,
  "bytecode": {
    "object": "0x608060405234801561001057600080fd5b5061435d806100206000396000f3fe608060405234801561001057600080fd5b506004361061010b5760003560e01c8063798b9780116100a2578063c3530a6311610071578063c3530a6314610262578063c41c2f2414610283578063d0a164fb146102ae578063d64996e5146102b6578063e0581140146102c957600080fd5b8063798b9780146101f357806395d89b4114610214578063a07954871461021c578063a505596a1461023e57600080fd5b80633a1eb656116100de5780633a1eb65614610184578063516786841461019957806359d2fea6146101bc57806370733375146101e057600080fd5b806306fdde03146101105780630c5eb5a41461012e5780631568683a1461014e57806327e16c1f14610171575b600080fd5b6101186102dc565b6040516101259190613410565b60405180910390f35b61014161013c366004613442565b61036a565b604051610125919061347b565b61016161015c366004613608565b6103f2565b60405161012594939291906136cb565b61014161017f366004613608565b6104e5565b610197610192366004613922565b61055d565b005b6101ac6101a7366004613608565b6109d6565b6040516101259493929190613b51565b6101cf6101ca366004613608565b610a79565b604051610125959493929190613c31565b6101ac6101ee366004613608565b6111dc565b610206610201366004613608565b6111ee565b604051610125929190613c77565b610118611411565b61022f61022a366004613608565b61141e565b60405161012593929190613ca5565b61025161024c366004613608565b6117fe565b604051610125959493929190613ce8565b610275610270366004613608565b6119ea565b604051610125929190613d36565b600554610296906001600160a01b031681565b6040516001600160a01b039091168152602001610125565b6101ac611d52565b6101ac6102c4366004613d69565b611df7565b6101ac6102d7366004613608565b611e37565b600180546102e990613d86565b80601f016020809104026020016040519081016040528092919081815260200182805461031590613d86565b80156103625780601f1061033757610100808354040283529160200191610362565b820191906000526020600020905b81548152906001019060200180831161034557829003601f168201915b505050505081565b604051632aff3bff60e21b81526001600160a01b0382811660048301526060916000916103ea91869182169063abfceffc90602401600060405180830381865afa1580156103bc573d6000803e3d6000fd5b505050506040513d6000823e601f3d908101601f191682016040526103e49190810190613dc1565b85611e77565b949350505050565b6060806060600080856001600160a01b0316635fe3b5676040518163ffffffff1660e01b8152600401602060405180830381865afa158015610438573d6000803e3d6000fd5b505050506040513d601f19601f8201168201806040525081019061045c9190613e5a565b90506104688682612b0d565b60405163252c221960e11b81526001600160a01b038a81166004830152939850919650945090821690634a58443290602401602060405180830381865afa1580156104b7573d6000803e3d6000fd5b505050506040513d601f19601f820116820180604052508101906104db9190613e77565b9150509193509193565b606061055782836001600160a01b031663b0772d0b6040518163ffffffff1660e01b8152600401600060405180830381865afa158015610529573d6000803e3d6000fd5b505050506040513d6000823e601f3d908101601f191682016040526105519190810190613dc1565b33611e77565b92915050565b600054610100900460ff161580801561057d5750600054600160ff909116105b806105975750303b158015610597575060005460ff166001145b6105ff5760405162461bcd60e51b815260206004820152602e60248201527f496e697469616c697a61626c653a20636f6e747261637420697320616c72656160448201526d191e481a5b9a5d1a585b1a5e995960921b60648201526084015b60405180910390fd5b6000805460ff191660011790558015610622576000805461ff0019166101001790555b6001600160a01b038a166106975760405162461bcd60e51b815260206004820152603660248201527f46757365506f6f6c4469726563746f727920696e7374616e63652063616e6e6f6044820152753a103132903a3432903d32b9379030b2323932b9b99760511b60648201526084016105f6565b855187511480156106a9575084518751145b6107045760405162461bcd60e51b815260206004820152602660248201527f48617264636f64656420616464726573736573206c656e67746873206e6f742060448201526532b8bab0b61760d11b60648201526084016105f6565b82518451148015610716575081518451145b6107745760405162461bcd60e51b815260206004820152602960248201527f556e6973776170204c5020746f6b656e206e616d6573206c656e67746873206e60448201526837ba1032b8bab0b61760b91b60648201526084016105f6565b600580546001600160a01b0319166001600160a01b038c1617905588516107a29060019060208c019061324c565b5087516107b69060029060208b019061324c565b5060005b87518110156108945760405180604001604052808883815181106107e0576107e0613e90565b602002602001015181526020018783815181106107ff576107ff613e90565b6020026020010151815250600360008a848151811061082057610820613e90565b60200260200101516001600160a01b03166001600160a01b03168152602001908152602001600020600082015181600001908051906020019061086492919061324c565b50602082810151805161087d926001850192019061324c565b50905050808061088c90613ebc565b9150506107ba565b5060005b845181101561098357600460405180606001604052808784815181106108c0576108c0613e90565b602002602001015181526020018684815181106108df576108df613e90565b602002602001015181526020018584815181106108fe576108fe613e90565b602090810291909101810151909152825460018101845560009384529281902082518051939460030290910192610938928492019061324c565b506020828101518051610951926001850192019061324c565b506040820151805161096d91600284019160209091019061324c565b505050808061097b90613ebc565b915050610898565b5080156109ca576000805461ff0019169055604051600181527f7f26b83ff96e1f2b6a682f133852f6798a09c465da95921460cefb38474024989060200160405180910390a15b50505050505050505050565b6005546040516351f6c8e360e11b81526001600160a01b03838116600483015260609283928392839260009283929091169063a3ed91c6906024015b600060405180830381865afa158015610a2f573d6000803e3d6000fd5b505050506040513d6000823e601f3d908101601f19168201604052610a579190810190614011565b91509150600080610a6783612df0565b949a9399509750929550909350505050565b60008060608060008060009050600080886001600160a01b031663b0772d0b6040518163ffffffff1660e01b8152600401600060405180830381865afa158015610ac7573d6000803e3d6000fd5b505050506040513d6000823e601f3d908101601f19168201604052610aef9190810190613dc1565b9050600081516001600160401b03811115610b0c57610b0c613726565b604051908082528060200260200182016040528015610b35578160200160208202803683370190505b509050600082516001600160401b03811115610b5357610b53613726565b604051908082528060200260200182016040528015610b8657816020015b6060815260200190600190039081610b715790505b50905060008b6001600160a01b0316637dc0d1d06040518163ffffffff1660e01b8152600401602060405180830381865afa158015610bc9573d6000803e3d6000fd5b505050506040513d601f19601f82011682018060405250810190610bed9190613e5a565b905060005b84518110156110d4576000858281518110610c0f57610c0f613e90565b6020026020010151905060008e6001600160a01b0316638e8f294b836040518263ffffffff1660e01b8152600401610c5691906001600160a01b0391909116815260200190565b6040805180830381865afa158015610c72573d6000803e3d6000fd5b505050506040513d601f19601f82011682018060405250810190610c9691906140d7565b50905080610ca55750506110c2565b816001600160a01b031663a6afed956040518163ffffffff1660e01b81526004016020604051808303816000875af1158015610ce5573d6000803e3d6000fd5b505050506040513d601f19601f82011682018060405250810190610d099190613e77565b506000826001600160a01b03166373acee986040518163ffffffff1660e01b8152600401602060405180830381865afa158015610d4a573d6000803e3d6000fd5b505050506040513d601f19601f82011682018060405250810190610d6e9190613e77565b90506000836001600160a01b031663dc028ab16040518163ffffffff1660e01b8152600401602060405180830381865afa158015610db0573d6000803e3d6000fd5b505050506040513d601f19601f82011682018060405250810190610dd49190613e77565b846001600160a01b03166361feacff6040518163ffffffff1660e01b8152600401602060405180830381865afa158015610e12573d6000803e3d6000fd5b505050506040513d601f19601f82011682018060405250810190610e369190613e77565b856001600160a01b0316638f840ddd6040518163ffffffff1660e01b8152600401602060405180830381865afa158015610e74573d6000803e3d6000fd5b505050506040513d601f19601f82011682018060405250810190610e989190613e77565b610ea29190614105565b610eac9190614105565b82856001600160a01b0316633b1d21a26040518163ffffffff1660e01b8152600401602060405180830381865afa158015610eeb573d6000803e3d6000fd5b505050506040513d601f19601f82011682018060405250810190610f0f9190613e77565b610f199190614105565b610f23919061411d565b60405163fc57d4df60e01b81526001600160a01b03868116600483015291925060009188169063fc57d4df90602401602060405180830381865afa158015610f6f573d6000803e3d6000fd5b505050506040513d601f19601f82011682018060405250810190610f939190613e77565b9050670de0b6b3a7640000610fa88285614134565b610fb29190614153565b610fbc908d614105565b9b50670de0b6b3a7640000610fd18284614134565b610fdb9190614153565b610fe5908c614105565b9a50846001600160a01b0316636f307dc36040518163ffffffff1660e01b8152600401602060405180830381865afa158015611025573d6000803e3d6000fd5b505050506040513d601f19601f820116820180604052508101906110499190613e5a565b89878151811061105b5761105b613e90565b60200260200101906001600160a01b031690816001600160a01b03168152505061109d89878151811061109057611090613e90565b6020026020010151612ff7565b90508887815181106110b1576110b1613e90565b602002602001018190525050505050505b806110cc81613ebc565b915050610bf2565b506000600560009054906101000a90046001600160a01b03166001600160a01b03166343e20a1d8e6001600160a01b031663f851a4406040518163ffffffff1660e01b8152600401602060405180830381865afa158015611139573d6000803e3d6000fd5b505050506040513d601f19601f8201168201806040525081019061115d9190613e5a565b6040516001600160e01b031960e084901b1681526001600160a01b039091166004820152602401602060405180830381865afa1580156111a1573d6000803e3d6000fd5b505050506040513d601f19601f820116820180604052508101906111c59190614175565b959d969c50929a5090985092965092945050505050565b606080606080600080610a57876119ea565b6060806000836001600160a01b031663b0772d0b6040518163ffffffff1660e01b8152600401600060405180830381865afa158015611231573d6000803e3d6000fd5b505050506040513d6000823e601f3d908101601f191682016040526112599190810190613dc1565b9050600081516001600160401b0381111561127657611276613726565b60405190808252806020026020018201604052801561129f578160200160208202803683370190505b509050600082516001600160401b038111156112bd576112bd613726565b6040519080825280602002602001820160405280156112e6578160200160208202803683370190505b50905060005b83518110156114055783818151811061130757611307613e90565b602002602001015183828151811061132157611321613e90565b60200260200101906001600160a01b031690816001600160a01b031681525050866001600160a01b03166302c3bcbb84838151811061136257611362613e90565b60200260200101516040518263ffffffff1660e01b815260040161139591906001600160a01b0391909116815260200190565b602060405180830381865afa1580156113b2573d6000803e3d6000fd5b505050506040513d601f19601f820116820180604052508101906113d69190613e77565b8282815181106113e8576113e8613e90565b6020908102919091010152806113fd81613ebc565b9150506112ec565b50909590945092505050565b600280546102e990613d86565b60608060606000846001600160a01b031663b0772d0b6040518163ffffffff1660e01b8152600401600060405180830381865afa158015611463573d6000803e3d6000fd5b505050506040513d6000823e601f3d908101601f1916820160405261148b9190810190613dc1565b9050600081516001600160401b038111156114a8576114a8613726565b6040519080825280602002602001820160405280156114d1578160200160208202803683370190505b509050600082516001600160401b038111156114ef576114ef613726565b604051908082528060200260200182016040528015611518578160200160208202803683370190505b509050600083516001600160401b0381111561153657611536613726565b60405190808252806020026020018201604052801561155f578160200160208202803683370190505b50905060005b84518110156117ef5784818151811061158057611580613e90565b602002602001015184828151811061159a5761159a613e90565b60200260200101906001600160a01b031690816001600160a01b031681525050886001600160a01b03166302c3bcbb8583815181106115db576115db613e90565b60200260200101516040518263ffffffff1660e01b815260040161160e91906001600160a01b0391909116815260200190565b602060405180830381865afa15801561162b573d6000803e3d6000fd5b505050506040513d601f19601f8201168201806040525081019061164f9190613e77565b83828151811061166157611661613e90565b602002602001018181525050600085828151811061168157611681613e90565b60200260200101516001600160a01b0316634aeb3d9a6040518163ffffffff1660e01b8152600401602060405180830381865afa1580156116c6573d6000803e3d6000fd5b505050506040513d601f19601f820116820180604052508101906116ea9190613e77565b905060008a6001600160a01b031663fb6243fa87858151811061170f5761170f613e90565b60200260200101516040518263ffffffff1660e01b815260040161174291906001600160a01b0391909116815260200190565b602060405180830381865afa15801561175f573d6000803e3d6000fd5b505050506040513d601f19601f820116820180604052508101906117839190613e77565b90508181106117b15760008484815181106117a0576117a0613e90565b6020026020010181815250506117da565b6117bb818361411d565b8484815181106117cd576117cd613e90565b6020026020010181815250505b505080806117e790613ebc565b915050611565565b50919790965090945092505050565b60608060606000806000866001600160a01b0316635fe3b5676040518163ffffffff1660e01b8152600401602060405180830381865afa158015611846573d6000803e3d6000fd5b505050506040513d601f19601f8201168201806040525081019061186a9190613e5a565b90506118768782612b0d565b60405163252c221960e11b81526001600160a01b038b81166004830152939950919750955090821690634a58443290602401602060405180830381865afa1580156118c5573d6000803e3d6000fd5b505050506040513d601f19601f820116820180604052508101906118e99190613e77565b92506000876001600160a01b03166373acee986040518163ffffffff1660e01b8152600401602060405180830381865afa15801561192b573d6000803e3d6000fd5b505050506040513d601f19601f8201168201806040525081019061194f9190613e77565b604051631d3965af60e11b81526001600160a01b038a81166004830152919250600091841690633a72cb5e90602401602060405180830381865afa15801561199b573d6000803e3d6000fd5b505050506040513d601f19601f820116820180604052508101906119bf9190613e77565b90508181106119d157600093506119de565b6119db818361411d565b93505b50505091939590929450565b6060806000600560009054906101000a90046001600160a01b03166001600160a01b0316638ec083546040518163ffffffff1660e01b8152600401600060405180830381865afa158015611a42573d6000803e3d6000fd5b505050506040513d6000823e601f3d908101601f19168201604052611a6a9190810190614011565b9150506000805b8251811015611b3e576000838281518110611a8e57611a8e613e90565b6020026020010151604001519050806001600160a01b0316639b19251a886040518263ffffffff1660e01b8152600401611ad791906001600160a01b0391909116815260200190565b602060405180830381865afa158015611af4573d6000803e3d6000fd5b505050506040513d601f19601f82011682018060405250810190611b189190614175565b15611b2b5782611b2781613ebc565b9350505b5080611b3681613ebc565b915050611a71565b506000816001600160401b03811115611b5957611b59613726565b604051908082528060200260200182016040528015611b82578160200160208202803683370190505b5090506000826001600160401b03811115611b9f57611b9f613726565b604051908082528060200260200182016040528015611c1457816020015b611c016040518060a001604052806060815260200160006001600160a01b0316815260200160006001600160a01b0316815260200160008152602001600081525090565b815260200190600190039081611bbd5790505b5090506000805b8551811015611d44576000868281518110611c3857611c38613e90565b6020026020010151604001519050806001600160a01b0316639b19251a8b6040518263ffffffff1660e01b8152600401611c8191906001600160a01b0391909116815260200190565b602060405180830381865afa158015611c9e573d6000803e3d6000fd5b505050506040513d601f19601f82011682018060405250810190611cc29190614175565b15611d315781858481518110611cda57611cda613e90565b602002602001018181525050868281518110611cf857611cf8613e90565b6020026020010151848481518110611d1257611d12613e90565b60200260200101819052508280611d2890613ebc565b93505050611d44565b5080611d3c81613ebc565b915050611c1b565b509197909650945050505050565b606080606080600080600560009054906101000a90046001600160a01b03166001600160a01b0316634ae26ea16040518163ffffffff1660e01b8152600401600060405180830381865afa158015611dae573d6000803e3d6000fd5b505050506040513d6000823e601f3d908101601f19168201604052611dd69190810190614011565b91509150600080611de683612df0565b949993985096509294509092505050565b6005546040516310c51ddf60e11b8152821515600482015260609182918291829160009182916001600160a01b039091169063218a3bbe90602401610a12565b60055460405163f348960d60e01b81526001600160a01b03838116600483015260609283928392839260009283929091169063f348960d90602401610a12565b60606000805b8451811015611f46576000866001600160a01b0316638e8f294b878481518110611ea957611ea9613e90565b60200260200101516040518263ffffffff1660e01b8152600401611edc91906001600160a01b0391909116815260200190565b6040805180830381865afa158015611ef8573d6000803e3d6000fd5b505050506040513d601f19601f82011682018060405250810190611f1c91906140d7565b5090508015611f335782611f2f81613ebc565b9350505b5080611f3e81613ebc565b915050611e7d565b506000816001600160401b03811115611f6157611f61613726565b604051908082528060200260200182016040528015611f9a57816020015b611f876132d0565b815260200190600190039081611f7f5790505b509050600080876001600160a01b0316637dc0d1d06040518163ffffffff1660e01b8152600401602060405180830381865afa158015611fde573d6000803e3d6000fd5b505050506040513d601f19601f820116820180604052508101906120029190613e5a565b905060005b8751811015612b00576000808a6001600160a01b0316638e8f294b8b858151811061203457612034613e90565b60200260200101516040518263ffffffff1660e01b815260040161206791906001600160a01b0391909116815260200190565b6040805180830381865afa158015612083573d6000803e3d6000fd5b505050506040513d601f19601f820116820180604052508101906120a791906140d7565b91509150816120b7575050612aee565b6120bf6132d0565b60008b85815181106120d3576120d3613e90565b6020908102919091018101516001600160a01b0381168085526040805163a6afed9560e01b81529051929450909263a6afed959260048084019382900301816000875af1158015612128573d6000803e3d6000fd5b505050506040513d601f19601f8201168201806040525081019061214c9190613e77565b50806001600160a01b0316636f307dc36040518163ffffffff1660e01b8152600401602060405180830381865afa15801561218b573d6000803e3d6000fd5b505050506040513d601f19601f820116820180604052508101906121af9190613e5a565b6001600160a01b0316602083018190526121c881612ff7565b84604001856060018290528290525050806001600160a01b031663313ce5676040518163ffffffff1660e01b8152600401602060405180830381865afa158015612216573d6000803e3d6000fd5b505050506040513d601f19601f8201168201806040525081019061223a9190614192565b60ff1660808401526040516370a0823160e01b81526001600160a01b038d811660048301528216906370a0823190602401602060405180830381865afa158015612288573d6000803e3d6000fd5b505050506040513d601f19601f820116820180604052508101906122ac9190613e77565b8360a0018181525050816001600160a01b031663ae9d70b06040518163ffffffff1660e01b8152600401602060405180830381865afa1580156122f3573d6000803e3d6000fd5b505050506040513d601f19601f820116820180604052508101906123179190613e77565b8360c0018181525050816001600160a01b031663f8f9da286040518163ffffffff1660e01b8152600401602060405180830381865afa15801561235e573d6000803e3d6000fd5b505050506040513d601f19601f820116820180604052508101906123829190613e77565b8360e0018181525050816001600160a01b0316633b1d21a26040518163ffffffff1660e01b8152600401602060405180830381865afa1580156123c9573d6000803e3d6000fd5b505050506040513d601f19601f820116820180604052508101906123ed9190613e77565b83610180018181525050816001600160a01b03166373acee986040518163ffffffff1660e01b8152600401602060405180830381865afa158015612435573d6000803e3d6000fd5b505050506040513d601f19601f820116820180604052508101906124599190613e77565b83610120018181525050816001600160a01b031663dc028ab16040518163ffffffff1660e01b8152600401602060405180830381865afa1580156124a1573d6000803e3d6000fd5b505050506040513d601f19601f820116820180604052508101906124c59190613e77565b826001600160a01b03166361feacff6040518163ffffffff1660e01b8152600401602060405180830381865afa158015612503573d6000803e3d6000fd5b505050506040513d601f19601f820116820180604052508101906125279190613e77565b836001600160a01b0316638f840ddd6040518163ffffffff1660e01b8152600401602060405180830381865afa158015612565573d6000803e3d6000fd5b505050506040513d601f19601f820116820180604052508101906125899190613e77565b6125939190614105565b61259d9190614105565b8361012001518461018001516125b39190614105565b6125bd919061411d565b610100840152604051633af9e66960e01b81526001600160a01b038d81166004830152831690633af9e66990602401602060405180830381865afa158015612609573d6000803e3d6000fd5b505050506040513d601f19601f8201168201806040525081019061262d9190613e77565b6101408401526040516305eff7ef60e21b81526001600160a01b038d811660048301528316906317bfdfbc90602401602060405180830381865afa158015612679573d6000803e3d6000fd5b505050506040513d601f19601f8201168201806040525081019061269d9190613e77565b61016084015260405163929fe9a160e01b81526001600160a01b038d8116600483015283811660248301528f169063929fe9a190604401602060405180830381865afa1580156126f1573d6000803e3d6000fd5b505050506040513d601f19601f820116820180604052508101906127159190614175565b15156101a08401526040805163bd6d894d60e01b815290516001600160a01b0384169163bd6d894d9160048083019260209291908290030181865afa158015612762573d6000803e3d6000fd5b505050506040513d601f19601f820116820180604052508101906127869190613e77565b6101c084015260208301516040516315d5220f60e31b81526001600160a01b0391821660048201529088169063aea9107890602401602060405180830381865afa1580156127d8573d6000803e3d6000fd5b505050506040513d601f19601f820116820180604052508101906127fc9190613e77565b6101e08401526001600160a01b038781166102008501819052602085015160405163addd509960e01b8152921660048301529063addd509990602401602060405180830381865afa925050508015612871575060408051601f3d908101601f1916820190925261286e91810190613e5a565b60015b61287a5761288a565b6001600160a01b03166102008401525b8383610220018181525050816001600160a01b031663173b99046040518163ffffffff1660e01b8152600401602060405180830381865afa1580156128d3573d6000803e3d6000fd5b505050506040513d601f19601f820116820180604052508101906128f79190613e77565b83610240018181525050816001600160a01b0316638d02d9a16040518163ffffffff1660e01b8152600401602060405180830381865afa15801561293f573d6000803e3d6000fd5b505050506040513d601f19601f820116820180604052508101906129639190613e77565b83610260018181525050816001600160a01b031663dbfe7c196040518163ffffffff1660e01b8152600401602060405180830381865afa1580156129ab573d6000803e3d6000fd5b505050506040513d601f19601f820116820180604052508101906129cf9190613e77565b610280840152604051636d154ea560e01b81526001600160a01b0383811660048301528f1690636d154ea590602401602060405180830381865afa158015612a1b573d6000803e3d6000fd5b505050506040513d601f19601f82011682018060405250810190612a3f9190614175565b15156102a084015260405163731f0c2b60e01b81526001600160a01b0383811660048301528f169063731f0c2b90602401602060405180830381865afa158015612a8d573d6000803e3d6000fd5b505050506040513d601f19601f82011682018060405250810190612ab19190614175565b15156102c0840152885183908a908a908110612acf57612acf613e90565b60200260200101819052508780612ae590613ebc565b98505050505050505b80612af881613ebc565b915050612007565b5091979650505050505050565b60608060606000846001600160a01b031663b0772d0b6040518163ffffffff1660e01b8152600401600060405180830381865afa158015612b52573d6000803e3d6000fd5b505050506040513d6000823e601f3d908101601f19168201604052612b7a9190810190613dc1565b905080516001600160401b03811115612b9557612b95613726565b604051908082528060200260200182016040528015612bbe578160200160208202803683370190505b50935080516001600160401b03811115612bda57612bda613726565b604051908082528060200260200182016040528015612c03578160200160208202803683370190505b50925080516001600160401b03811115612c1f57612c1f613726565b604051908082528060200260200182016040528015612c48578160200160208202803683370190505b50915060005b8151811015612de7576000828281518110612c6b57612c6b613e90565b60200260200101519050876001600160a01b0316816001600160a01b031614612dd45780868381518110612ca157612ca1613e90565b6001600160a01b03928316602091820292909201015260405163940cd6f160e01b8152898216600482015282821660248201529088169063940cd6f190604401602060405180830381865afa158015612cfe573d6000803e3d6000fd5b505050506040513d601f19601f82011682018060405250810190612d229190613e77565b858381518110612d3457612d34613e90565b6020908102919091010152604051631c819e4360e01b81526001600160a01b0389811660048301528281166024830152881690631c819e4390604401602060405180830381865afa158015612d8d573d6000803e3d6000fd5b505050506040513d601f19601f82011682018060405250810190612db19190614175565b848381518110612dc357612dc3613e90565b911515602092830291909101909101525b5080612ddf81613ebc565b915050612c4e565b50509250925092565b606080600083516001600160401b03811115612e0e57612e0e613726565b604051908082528060200260200182016040528015612e7357816020015b612e606040518060a00160405280600081526020016000815260200160608152602001606081526020016000151581525090565b815260200190600190039081612e2c5790505b509050600084516001600160401b03811115612e9157612e91613726565b604051908082528060200260200182016040528015612eba578160200160208202803683370190505b50905060005b8551811015612fec57306001600160a01b03166359d2fea6878381518110612eea57612eea613e90565b6020026020010151604001516040518263ffffffff1660e01b8152600401612f2191906001600160a01b0391909116815260200190565b6000604051808303816000875af1925050508015612f6157506040513d6000823e601f3d908101601f19168201604052612f5e9190810190614234565b60015b612f8e576001828281518110612f7957612f79613e90565b91151560209283029190910190910152612fda565b6040518060a00160405280868152602001858152602001848152602001838152602001821515815250888781518110612fc957612fc9613e90565b602002602001018190525050505050505b80612fe481613ebc565b915050612ec0565b509094909350915050565b6001600160a01b03811660009081526003602052604090206001018054606091829161302290613d86565b159050613168576001600160a01b038316600090815260036020526040902080546001820190829061305390613d86565b80601f016020809104026020016040519081016040528092919081815260200182805461307f90613d86565b80156130cc5780601f106130a1576101008083540402835291602001916130cc565b820191906000526020600020905b8154815290600101906020018083116130af57829003601f168201915b505050505091508080546130df90613d86565b80601f016020809104026020016040519081016040528092919081815260200182805461310b90613d86565b80156131585780601f1061312d57610100808354040283529160200191613158565b820191906000526020600020905b81548152906001019060200180831161313b57829003601f168201915b5050505050905091509150915091565b60008390506000816001600160a01b03166306fdde036040518163ffffffff1660e01b8152600401600060405180830381865afa1580156131ad573d6000803e3d6000fd5b505050506040513d6000823e601f3d908101601f191682016040526131d5919081019061431c565b90506000826001600160a01b03166395d89b416040518163ffffffff1660e01b8152600401600060405180830381865afa158015613217573d6000803e3d6000fd5b505050506040513d6000823e601f3d908101601f1916820160405261323f919081019061431c565b9196919550909350505050565b82805461325890613d86565b90600052602060002090601f01602090048101928261327a57600085556132c0565b82601f1061329357805160ff19168380011785556132c0565b828001600101855582156132c0579182015b828111156132c05782518255916020019190600101906132a5565b506132cc92915061339f565b5090565b604051806102e0016040528060006001600160a01b0316815260200160006001600160a01b031681526020016060815260200160608152602001600081526020016000815260200160008152602001600081526020016000815260200160008152602001600081526020016000815260200160008152602001600015158152602001600081526020016000815260200160006001600160a01b03168152602001600081526020016000815260200160008152602001600081526020016000151581526020016000151581525090565b5b808211156132cc57600081556001016133a0565b60005b838110156133cf5781810151838201526020016133b7565b838111156133de576000848401525b50505050565b600081518084526133fc8160208601602086016133b4565b601f01601f19169290920160200192915050565b60208152600061342360208301846133e4565b9392505050565b6001600160a01b038116811461343f57600080fd5b50565b6000806040838503121561345557600080fd5b82356134608161342a565b915060208301356134708161342a565b809150509250929050565b60006020808301818452808551808352604092508286019150828160051b87010184880160005b838110156135fa57888303603f19018552815180516001600160a01b031684526102e0818901516001600160a01b038116868b0152508782015181898701526134ed828701826133e4565b9150506060808301518683038288015261350783826133e4565b6080858101519089015260a0808601519089015260c0808601519089015260e08086015190890152610100808601519089015261012080860151908901526101408086015190890152610160808601519089015261018080860151908901526101a0808601511515908901526101c080860151908901526101e08086015190890152610200808601516001600160a01b03169089015261022080860151908901526102408086015190890152610260808601519089015261028080860151908901526102a0808601511515908901526102c0948501511515949097019390935250505093860193908601906001016134a2565b509098975050505050505050565b60006020828403121561361a57600080fd5b81356134238161342a565b600081518084526020808501945080840160005b8381101561365e5781516001600160a01b031687529582019590820190600101613639565b509495945050505050565b600081518084526020808501945080840160005b8381101561365e5781518752958201959082019060010161367d565b600081518084526020808501945080840160005b8381101561365e5781511515875295820195908201906001016136ad565b6080815260006136de6080830187613625565b82810360208401526136f08187613669565b905082810360408401526137048186613699565b91505082606083015295945050505050565b80356137218161342a565b919050565b634e487b7160e01b600052604160045260246000fd5b60405160a081016001600160401b038111828210171561375e5761375e613726565b60405290565b604051601f8201601f191681016001600160401b038111828210171561378c5761378c613726565b604052919050565b60006001600160401b038211156137ad576137ad613726565b50601f01601f191660200190565b600082601f8301126137cc57600080fd5b81356137df6137da82613794565b613764565b8181528460208386010111156137f457600080fd5b816020850160208301376000918101602001919091529392505050565b60006001600160401b0382111561382a5761382a613726565b5060051b60200190565b600082601f83011261384557600080fd5b813560206138556137da83613811565b82815260059290921b8401810191818101908684111561387457600080fd5b8286015b8481101561389857803561388b8161342a565b8352918301918301613878565b509695505050505050565b600082601f8301126138b457600080fd5b813560206138c46137da83613811565b82815260059290921b840181019181810190868411156138e357600080fd5b8286015b848110156138985780356001600160401b038111156139065760008081fd5b6139148986838b01016137bb565b8452509183019183016138e7565b60008060008060008060008060006101208a8c03121561394157600080fd5b61394a8a613716565b985060208a01356001600160401b038082111561396657600080fd5b6139728d838e016137bb565b995060408c013591508082111561398857600080fd5b6139948d838e016137bb565b985060608c01359150808211156139aa57600080fd5b6139b68d838e01613834565b975060808c01359150808211156139cc57600080fd5b6139d88d838e016138a3565b965060a08c01359150808211156139ee57600080fd5b6139fa8d838e016138a3565b955060c08c0135915080821115613a1057600080fd5b613a1c8d838e016138a3565b945060e08c0135915080821115613a3257600080fd5b613a3e8d838e016138a3565b93506101008c0135915080821115613a5557600080fd5b50613a628c828d016138a3565b9150509295985092959850929598565b600082825180855260208086019550808260051b84010181860160005b84811015613aff57601f19868403018952815160a08151818652613ab5828701826133e4565b838801516001600160a01b03908116888a01526040808601519091169088015260608085015190880152608093840151939096019290925250509783019790830190600101613a8f565b5090979650505050505050565b6000815180845260208085019450848260051b860182860160005b85811015613aff578383038952613b3f8383516133e4565b98850198925090840190600101613b27565b60006080808352613b6481840188613669565b602084820381860152613b778289613a72565b91506040858303818701528288518085528385019150838160051b860101848b0160005b83811015613c0c57601f19888403018552815160a0815185528882015189860152878201518189870152613bd182870182613625565b91505060608083015186830382880152613beb8382613b0c565b938d01511515968d0196909652505094870194925090860190600101613b9b565b505088810360608a0152613c20818b613699565b9d9c50505050505050505050505050565b85815284602082015260a060408201526000613c5060a0830186613625565b8281036060840152613c628186613b0c565b91505082151560808301529695505050505050565b604081526000613c8a6040830185613625565b8281036020840152613c9c8185613669565b95945050505050565b606081526000613cb86060830186613625565b8281036020840152613cca8186613669565b90508281036040840152613cde8185613669565b9695505050505050565b60a081526000613cfb60a0830188613625565b8281036020840152613d0d8188613669565b90508281036040840152613d218187613699565b60608401959095525050608001529392505050565b604081526000613d496040830185613669565b8281036020840152613c9c8185613a72565b801515811461343f57600080fd5b600060208284031215613d7b57600080fd5b813561342381613d5b565b600181811c90821680613d9a57607f821691505b60208210811415613dbb57634e487b7160e01b600052602260045260246000fd5b50919050565b60006020808385031215613dd457600080fd5b82516001600160401b03811115613dea57600080fd5b8301601f81018513613dfb57600080fd5b8051613e096137da82613811565b81815260059190911b82018301908381019087831115613e2857600080fd5b928401925b82841015613e4f578351613e408161342a565b82529284019290840190613e2d565b979650505050505050565b600060208284031215613e6c57600080fd5b81516134238161342a565b600060208284031215613e8957600080fd5b5051919050565b634e487b7160e01b600052603260045260246000fd5b634e487b7160e01b600052601160045260246000fd5b6000600019821415613ed057613ed0613ea6565b5060010190565b600082601f830112613ee857600080fd5b8151613ef66137da82613794565b818152846020838601011115613f0b57600080fd5b6103ea8260208301602087016133b4565b600082601f830112613f2d57600080fd5b81516020613f3d6137da83613811565b82815260059290921b84018101918181019086841115613f5c57600080fd5b8286015b848110156138985780516001600160401b0380821115613f805760008081fd5b9088019060a0828b03601f1901811315613f9a5760008081fd5b613fa261373c565b8784015183811115613fb45760008081fd5b613fc28d8a83880101613ed7565b8252506040925082840151613fd68161342a565b81890152606084810151613fe98161342a565b9382019390935260808481015193820193909352920151908201528352918301918301613f60565b6000806040838503121561402457600080fd5b82516001600160401b038082111561403b57600080fd5b818501915085601f83011261404f57600080fd5b8151602061405f6137da83613811565b82815260059290921b8401810191818101908984111561407e57600080fd5b948201945b8386101561409c57855182529482019490820190614083565b918801519196509093505050808211156140b557600080fd5b506140c285828601613f1c565b9150509250929050565b805161372181613d5b565b600080604083850312156140ea57600080fd5b82516140f581613d5b565b6020939093015192949293505050565b6000821982111561411857614118613ea6565b500190565b60008282101561412f5761412f613ea6565b500390565b600081600019048311821515161561414e5761414e613ea6565b500290565b60008261417057634e487b7160e01b600052601260045260246000fd5b500490565b60006020828403121561418757600080fd5b815161342381613d5b565b6000602082840312156141a457600080fd5b815160ff8116811461342357600080fd5b600082601f8301126141c657600080fd5b815160206141d66137da83613811565b82815260059290921b840181019181810190868411156141f557600080fd5b8286015b848110156138985780516001600160401b038111156142185760008081fd5b6142268986838b0101613ed7565b8452509183019183016141f9565b600080600080600060a0868803121561424c57600080fd5b85519450602080870151945060408701516001600160401b038082111561427257600080fd5b818901915089601f83011261428657600080fd5b81516142946137da82613811565b81815260059190911b8301840190848101908c8311156142b357600080fd5b938501935b828510156142da5784516142cb8161342a565b825293850193908501906142b8565b60608c015190985094505050808311156142f357600080fd5b5050614301888289016141b5565b925050614310608087016140cc565b90509295509295909350565b60006020828403121561432e57600080fd5b81516001600160401b0381111561434457600080fd5b6103ea84828501613ed756fea164736f6c634300080a000a",
    "linkReferences": {}
  },
  "methodIdentifiers": {
    "directory()": "c41c2f24",
    "getBorrowCapsDataForAsset(address)": "a505596a",
    "getBorrowCapsForAsset(address)": "1568683a",
    "getPoolAssetsByUser(address,address)": "0c5eb5a4",
    "getPoolAssetsWithData(address)": "27e16c1f",
    "getPoolSummary(address)": "59d2fea6",
    "getPoolsByAccountWithData(address)": "51678684",
    "getPoolsOfUserWithData(address)": "e0581140",
    "getPublicPoolsByVerificationWithData(bool)": "d64996e5",
    "getPublicPoolsWithData()": "d0a164fb",
    "getSupplyCapsDataForPool(address)": "a0795487",
    "getSupplyCapsForPool(address)": "798b9780",
    "getWhitelistedPoolsByAccount(address)": "c3530a63",
    "getWhitelistedPoolsByAccountWithData(address)": "70733375",
    "initialize(address,string,string,address[],string[],string[],string[],string[],string[])": "3a1eb656",
    "name()": "06fdde03",
    "symbol()": "95d89b41"
  }
}