{
  "address": "0xC379536e159e8ea884011d4d83Ba0E2E6b06C12e",
  "abi": [
    {
      "inputs": [],
      "name": "CallerIsNotEOA",
      "type": "error"
    },
    {
      "inputs": [],
      "name": "InteractionNotAllowed",
      "type": "error"
    },
    {
      "anonymous": false,
      "inputs": [
        {
          "indexed": false,
          "internalType": "uint256",
          "name": "cashPrior",
          "type": "uint256"
        },
        {
          "indexed": false,
          "internalType": "uint256",
          "name": "interestAccumulated",
          "type": "uint256"
        },
        {
          "indexed": false,
          "internalType": "uint256",
          "name": "borrowIndex",
          "type": "uint256"
        },
        {
          "indexed": false,
          "internalType": "uint256",
          "name": "totalBorrows",
          "type": "uint256"
        }
      ],
      "name": "AccrueInterest",
      "type": "event"
    },
    {
      "anonymous": false,
      "inputs": [
        {
          "indexed": true,
          "internalType": "address",
          "name": "owner",
          "type": "address"
        },
        {
          "indexed": true,
          "internalType": "address",
          "name": "spender",
          "type": "address"
        },
        {
          "indexed": false,
          "internalType": "uint256",
          "name": "amount",
          "type": "uint256"
        }
      ],
      "name": "Approval",
      "type": "event"
    },
    {
      "anonymous": false,
      "inputs": [
        {
          "indexed": false,
          "internalType": "address",
          "name": "borrower",
          "type": "address"
        },
        {
          "indexed": false,
          "internalType": "uint256",
          "name": "borrowAmount",
          "type": "uint256"
        },
        {
          "indexed": false,
          "internalType": "uint256",
          "name": "accountBorrows",
          "type": "uint256"
        },
        {
          "indexed": false,
          "internalType": "uint256",
          "name": "totalBorrows",
          "type": "uint256"
        }
      ],
      "name": "Borrow",
      "type": "event"
    },
    {
      "anonymous": false,
      "inputs": [
        {
          "indexed": false,
          "internalType": "uint256",
          "name": "error",
          "type": "uint256"
        },
        {
          "indexed": false,
          "internalType": "uint256",
          "name": "info",
          "type": "uint256"
        },
        {
          "indexed": false,
          "internalType": "uint256",
          "name": "detail",
          "type": "uint256"
        }
      ],
      "name": "Failure",
      "type": "event"
    },
    {
      "anonymous": false,
      "inputs": [
        {
          "indexed": false,
          "internalType": "address",
          "name": "liquidator",
          "type": "address"
        },
        {
          "indexed": false,
          "internalType": "address",
          "name": "borrower",
          "type": "address"
        },
        {
          "indexed": false,
          "internalType": "uint256",
          "name": "repayAmount",
          "type": "uint256"
        },
        {
          "indexed": false,
          "internalType": "address",
          "name": "cTokenCollateral",
          "type": "address"
        },
        {
          "indexed": false,
          "internalType": "uint256",
          "name": "seizeTokens",
          "type": "uint256"
        }
      ],
      "name": "LiquidateBorrow",
      "type": "event"
    },
    {
      "anonymous": false,
      "inputs": [
        {
          "indexed": false,
          "internalType": "address",
          "name": "minter",
          "type": "address"
        },
        {
          "indexed": false,
          "internalType": "uint256",
          "name": "mintAmount",
          "type": "uint256"
        },
        {
          "indexed": false,
          "internalType": "uint256",
          "name": "mintTokens",
          "type": "uint256"
        }
      ],
      "name": "Mint",
      "type": "event"
    },
    {
      "anonymous": false,
      "inputs": [
        {
          "indexed": false,
          "internalType": "uint256",
          "name": "oldAdminFeeMantissa",
          "type": "uint256"
        },
        {
          "indexed": false,
          "internalType": "uint256",
          "name": "newAdminFeeMantissa",
          "type": "uint256"
        }
      ],
      "name": "NewAdminFee",
      "type": "event"
    },
    {
      "anonymous": false,
      "inputs": [
        {
          "indexed": false,
          "internalType": "uint256",
          "name": "oldIonicFeeMantissa",
          "type": "uint256"
        },
        {
          "indexed": false,
          "internalType": "uint256",
          "name": "newIonicFeeMantissa",
          "type": "uint256"
        }
      ],
      "name": "NewIonicFee",
      "type": "event"
    },
    {
      "anonymous": false,
      "inputs": [
        {
          "indexed": false,
          "internalType": "contract InterestRateModel",
          "name": "oldInterestRateModel",
          "type": "address"
        },
        {
          "indexed": false,
          "internalType": "contract InterestRateModel",
          "name": "newInterestRateModel",
          "type": "address"
        }
      ],
      "name": "NewMarketInterestRateModel",
      "type": "event"
    },
    {
      "anonymous": false,
      "inputs": [
        {
          "indexed": false,
          "internalType": "uint256",
          "name": "oldReserveFactorMantissa",
          "type": "uint256"
        },
        {
          "indexed": false,
          "internalType": "uint256",
          "name": "newReserveFactorMantissa",
          "type": "uint256"
        }
      ],
      "name": "NewReserveFactor",
      "type": "event"
    },
    {
      "anonymous": false,
      "inputs": [
        {
          "indexed": false,
          "internalType": "address",
          "name": "redeemer",
          "type": "address"
        },
        {
          "indexed": false,
          "internalType": "uint256",
          "name": "redeemAmount",
          "type": "uint256"
        },
        {
          "indexed": false,
          "internalType": "uint256",
          "name": "redeemTokens",
          "type": "uint256"
        }
      ],
      "name": "Redeem",
      "type": "event"
    },
    {
      "anonymous": false,
      "inputs": [
        {
          "indexed": false,
          "internalType": "address",
          "name": "payer",
          "type": "address"
        },
        {
          "indexed": false,
          "internalType": "address",
          "name": "borrower",
          "type": "address"
        },
        {
          "indexed": false,
          "internalType": "uint256",
          "name": "repayAmount",
          "type": "uint256"
        },
        {
          "indexed": false,
          "internalType": "uint256",
          "name": "accountBorrows",
          "type": "uint256"
        },
        {
          "indexed": false,
          "internalType": "uint256",
          "name": "totalBorrows",
          "type": "uint256"
        }
      ],
      "name": "RepayBorrow",
      "type": "event"
    },
    {
      "anonymous": false,
      "inputs": [
        {
          "indexed": false,
          "internalType": "address",
          "name": "benefactor",
          "type": "address"
        },
        {
          "indexed": false,
          "internalType": "uint256",
          "name": "addAmount",
          "type": "uint256"
        },
        {
          "indexed": false,
          "internalType": "uint256",
          "name": "newTotalReserves",
          "type": "uint256"
        }
      ],
      "name": "ReservesAdded",
      "type": "event"
    },
    {
      "anonymous": false,
      "inputs": [
        {
          "indexed": false,
          "internalType": "address",
          "name": "admin",
          "type": "address"
        },
        {
          "indexed": false,
          "internalType": "uint256",
          "name": "reduceAmount",
          "type": "uint256"
        },
        {
          "indexed": false,
          "internalType": "uint256",
          "name": "newTotalReserves",
          "type": "uint256"
        }
      ],
      "name": "ReservesReduced",
      "type": "event"
    },
    {
      "anonymous": false,
      "inputs": [
        {
          "indexed": true,
          "internalType": "address",
          "name": "from",
          "type": "address"
        },
        {
          "indexed": true,
          "internalType": "address",
          "name": "to",
          "type": "address"
        },
        {
          "indexed": false,
          "internalType": "uint256",
          "name": "amount",
          "type": "uint256"
        }
      ],
      "name": "Transfer",
      "type": "event"
    },
    {
      "inputs": [
        {
          "internalType": "bytes",
          "name": "",
          "type": "bytes"
        }
      ],
      "name": "_becomeImplementation",
      "outputs": [],
      "stateMutability": "nonpayable",
      "type": "function"
    },
    {
      "inputs": [],
      "name": "_getExtensionFunctions",
      "outputs": [
        {
          "internalType": "bytes4[]",
          "name": "functionSelectors",
          "type": "bytes4[]"
        }
      ],
      "stateMutability": "pure",
      "type": "function"
    },
    {
      "inputs": [],
      "name": "accrualBlockNumber",
      "outputs": [
        {
          "internalType": "uint256",
          "name": "",
          "type": "uint256"
        }
      ],
      "stateMutability": "view",
      "type": "function"
    },
    {
      "inputs": [],
      "name": "adminFeeMantissa",
      "outputs": [
        {
          "internalType": "uint256",
          "name": "",
          "type": "uint256"
        }
      ],
      "stateMutability": "view",
      "type": "function"
    },
    {
      "inputs": [],
      "name": "ap",
      "outputs": [
        {
          "internalType": "contract AddressesProvider",
          "name": "",
          "type": "address"
        }
      ],
      "stateMutability": "view",
      "type": "function"
    },
    {
      "inputs": [
        {
          "internalType": "uint256",
          "name": "borrowAmount",
          "type": "uint256"
        }
      ],
      "name": "borrow",
      "outputs": [
        {
          "internalType": "uint256",
          "name": "",
          "type": "uint256"
        }
      ],
      "stateMutability": "nonpayable",
      "type": "function"
    },
    {
      "inputs": [],
      "name": "borrowIndex",
      "outputs": [
        {
          "internalType": "uint256",
          "name": "",
          "type": "uint256"
        }
      ],
      "stateMutability": "view",
      "type": "function"
    },
    {
      "inputs": [],
      "name": "comptroller",
      "outputs": [
        {
          "internalType": "contract IonicComptroller",
          "name": "",
          "type": "address"
        }
      ],
      "stateMutability": "view",
      "type": "function"
    },
    {
      "inputs": [],
      "name": "contractType",
      "outputs": [
        {
          "internalType": "string",
          "name": "",
          "type": "string"
        }
      ],
      "stateMutability": "pure",
      "type": "function"
    },
    {
      "inputs": [],
      "name": "decimals",
      "outputs": [
        {
          "internalType": "uint8",
          "name": "",
          "type": "uint8"
        }
      ],
      "stateMutability": "view",
      "type": "function"
    },
    {
      "inputs": [],
      "name": "delegateType",
      "outputs": [
        {
          "internalType": "uint8",
          "name": "",
          "type": "uint8"
        }
      ],
      "stateMutability": "pure",
      "type": "function"
    },
    {
      "inputs": [],
      "name": "feeSeizeShareMantissa",
      "outputs": [
        {
          "internalType": "uint256",
          "name": "",
          "type": "uint256"
        }
      ],
      "stateMutability": "view",
      "type": "function"
    },
    {
      "inputs": [],
      "name": "getCash",
      "outputs": [
        {
          "internalType": "uint256",
          "name": "",
          "type": "uint256"
        }
      ],
      "stateMutability": "view",
      "type": "function"
    },
    {
      "inputs": [],
      "name": "interestRateModel",
      "outputs": [
        {
          "internalType": "contract InterestRateModel",
          "name": "",
          "type": "address"
        }
      ],
      "stateMutability": "view",
      "type": "function"
    },
    {
      "inputs": [],
      "name": "ionicAdmin",
      "outputs": [
        {
          "internalType": "address payable",
          "name": "",
          "type": "address"
        }
      ],
      "stateMutability": "view",
      "type": "function"
    },
    {
      "inputs": [],
      "name": "ionicFeeMantissa",
      "outputs": [
        {
          "internalType": "uint256",
          "name": "",
          "type": "uint256"
        }
      ],
      "stateMutability": "view",
      "type": "function"
    },
    {
      "inputs": [
        {
          "internalType": "address",
          "name": "borrower",
          "type": "address"
        },
        {
          "internalType": "uint256",
          "name": "repayAmount",
          "type": "uint256"
        },
        {
          "internalType": "address",
          "name": "cTokenCollateral",
          "type": "address"
        }
      ],
      "name": "liquidateBorrow",
      "outputs": [
        {
          "internalType": "uint256",
          "name": "",
          "type": "uint256"
        }
      ],
      "stateMutability": "nonpayable",
      "type": "function"
    },
    {
      "inputs": [
        {
          "internalType": "uint256",
          "name": "mintAmount",
          "type": "uint256"
        }
      ],
      "name": "mint",
      "outputs": [
        {
          "internalType": "uint256",
          "name": "",
          "type": "uint256"
        }
      ],
      "stateMutability": "nonpayable",
      "type": "function"
    },
    {
      "inputs": [],
      "name": "name",
      "outputs": [
        {
          "internalType": "string",
          "name": "",
          "type": "string"
        }
      ],
      "stateMutability": "view",
      "type": "function"
    },
    {
      "inputs": [
        {
          "internalType": "uint256",
          "name": "assets",
          "type": "uint256"
        }
      ],
      "name": "previewDeposit",
      "outputs": [
        {
          "internalType": "uint256",
          "name": "",
          "type": "uint256"
        }
      ],
      "stateMutability": "view",
      "type": "function"
    },
    {
      "inputs": [
        {
          "internalType": "uint256",
          "name": "redeemTokensIn",
          "type": "uint256"
        }
      ],
      "name": "previewRedeem",
      "outputs": [
        {
          "internalType": "uint256",
          "name": "",
          "type": "uint256"
        }
      ],
      "stateMutability": "view",
      "type": "function"
    },
    {
      "inputs": [],
      "name": "protocolSeizeShareMantissa",
      "outputs": [
        {
          "internalType": "uint256",
          "name": "",
          "type": "uint256"
        }
      ],
      "stateMutability": "view",
      "type": "function"
    },
    {
      "inputs": [
        {
          "internalType": "uint256",
          "name": "redeemTokens",
          "type": "uint256"
        }
      ],
      "name": "redeem",
      "outputs": [
        {
          "internalType": "uint256",
          "name": "",
          "type": "uint256"
        }
      ],
      "stateMutability": "nonpayable",
      "type": "function"
    },
    {
      "inputs": [
        {
          "internalType": "uint256",
          "name": "redeemAmount",
          "type": "uint256"
        }
      ],
      "name": "redeemUnderlying",
      "outputs": [
        {
          "internalType": "uint256",
          "name": "",
          "type": "uint256"
        }
      ],
      "stateMutability": "nonpayable",
      "type": "function"
    },
    {
      "inputs": [
        {
          "internalType": "uint256",
          "name": "repayAmount",
          "type": "uint256"
        }
      ],
      "name": "repayBorrow",
      "outputs": [
        {
          "internalType": "uint256",
          "name": "",
          "type": "uint256"
        }
      ],
      "stateMutability": "nonpayable",
      "type": "function"
    },
    {
      "inputs": [
        {
          "internalType": "address",
          "name": "borrower",
          "type": "address"
        },
        {
          "internalType": "uint256",
          "name": "repayAmount",
          "type": "uint256"
        }
      ],
      "name": "repayBorrowBehalf",
      "outputs": [
        {
          "internalType": "uint256",
          "name": "",
          "type": "uint256"
        }
      ],
      "stateMutability": "nonpayable",
      "type": "function"
    },
    {
      "inputs": [],
      "name": "reserveFactorMantissa",
      "outputs": [
        {
          "internalType": "uint256",
          "name": "",
          "type": "uint256"
        }
      ],
      "stateMutability": "view",
      "type": "function"
    },
    {
      "inputs": [
        {
          "internalType": "address",
          "name": "liquidator",
          "type": "address"
        },
        {
          "internalType": "address",
          "name": "borrower",
          "type": "address"
        },
        {
          "internalType": "uint256",
          "name": "seizeTokens",
          "type": "uint256"
        }
      ],
      "name": "seize",
      "outputs": [
        {
          "internalType": "uint256",
          "name": "",
          "type": "uint256"
        }
      ],
      "stateMutability": "nonpayable",
      "type": "function"
    },
    {
      "inputs": [
        {
          "internalType": "address",
          "name": "from",
          "type": "address"
        },
        {
          "internalType": "uint256",
          "name": "amount",
          "type": "uint256"
        }
      ],
      "name": "selfTransferIn",
      "outputs": [
        {
          "internalType": "uint256",
          "name": "",
          "type": "uint256"
        }
      ],
      "stateMutability": "nonpayable",
      "type": "function"
    },
    {
      "inputs": [
        {
          "internalType": "address",
          "name": "to",
          "type": "address"
        },
        {
          "internalType": "uint256",
          "name": "amount",
          "type": "uint256"
        }
      ],
      "name": "selfTransferOut",
      "outputs": [],
      "stateMutability": "nonpayable",
      "type": "function"
    },
    {
      "inputs": [],
      "name": "symbol",
      "outputs": [
        {
          "internalType": "string",
          "name": "",
          "type": "string"
        }
      ],
      "stateMutability": "view",
      "type": "function"
    },
    {
      "inputs": [],
      "name": "totalAdminFees",
      "outputs": [
        {
          "internalType": "uint256",
          "name": "",
          "type": "uint256"
        }
      ],
      "stateMutability": "view",
      "type": "function"
    },
    {
      "inputs": [],
      "name": "totalBorrows",
      "outputs": [
        {
          "internalType": "uint256",
          "name": "",
          "type": "uint256"
        }
      ],
      "stateMutability": "view",
      "type": "function"
    },
    {
      "inputs": [],
      "name": "totalIonicFees",
      "outputs": [
        {
          "internalType": "uint256",
          "name": "",
          "type": "uint256"
        }
      ],
      "stateMutability": "view",
      "type": "function"
    },
    {
      "inputs": [],
      "name": "totalReserves",
      "outputs": [
        {
          "internalType": "uint256",
          "name": "",
          "type": "uint256"
        }
      ],
      "stateMutability": "view",
      "type": "function"
    },
    {
      "inputs": [],
      "name": "totalSupply",
      "outputs": [
        {
          "internalType": "uint256",
          "name": "",
          "type": "uint256"
        }
      ],
      "stateMutability": "view",
      "type": "function"
    },
    {
      "inputs": [],
      "name": "underlying",
      "outputs": [
        {
          "internalType": "address",
          "name": "",
          "type": "address"
        }
      ],
      "stateMutability": "view",
      "type": "function"
    }
  ],
  "transactionHash": "0xafefbc04ad5f273cda4c0dae84fad610f81c2067839ae8fe46c1fbd777eec0a3",
  "args": [],
  "numDeployments": 3,
  "solcInputHash": "b7e4361deaf80436452a8e77ba50838b",
  "bytecode": "0x608060405234801561001057600080fd5b506154c7806100206000396000f3fe608060405234801561001057600080fd5b50600436106102275760003560e01c80636f307dc311610130578063b2a02ff1116100b8578063cb2ef6f71161007c578063cb2ef6f71461043f578063db006a7514610469578063ef8b30f71461047c578063f3fdb15a1461048f578063f5e3c462146104a257600080fd5b8063b2a02ff1146103ee578063be99f11914610401578063c3bf11cd14610410578063c5ebeaec14610419578063c91a424f1461042c57600080fd5b80638f840ddd116100ff5780638f840ddd146103b857806395d89b41146103c15780639826394b146103c9578063a0712d68146103d2578063aa5af0fd146103e557600080fd5b80636f307dc314610374578063852a12e31461038757806389f8132e1461039a5780638d02d9a1146103af57600080fd5b80633b1d21a2116101b357806356e677281161018257806356e67728146103295780635fe3b5671461033c57806361feacff146103545780636752e7021461035d5780636c540baf1461036b57600080fd5b80633b1d21a2146102da5780633c4f743c146102e257806347bd37181461030d5780634cdad5061461031657600080fd5b8063173b9904116101fa578063173b99041461029357806318160ddd1461029c5780632608f818146102a55780632c436e5b146102b8578063313ce567146102cd57600080fd5b8063067db1b31461022c57806306fdde03146102415780630e7527021461025f578063135f133414610280575b600080fd5b61023f61023a366004614f25565b6104b5565b005b6102496104ff565b6040516102569190614f75565b60405180910390f35b61027261026d366004614fa8565b61058d565b604051908152602001610256565b61027261028e366004614f25565b6107ad565b61027260085481565b610272600f5481565b6102726102b3366004614f25565b6107f9565b60015b60405160ff9091168152602001610256565b6003546102bb9060ff1681565b610272610a29565b6014546102f5906001600160a01b031681565b6040516001600160a01b039091168152602001610256565b610272600b5481565b610272610324366004614fa8565b610a38565b61023f610337366004614fd7565b610aae565b6003546102f59061010090046001600160a01b031681565b610272600d5481565b610272666379da05b6000081565b61027260095481565b6013546102f5906001600160a01b031681565b610272610395366004614fa8565b610b00565b6103a2610d0e565b6040516102569190615088565b61027260065481565b610272600c5481565b610249610f0c565b610272600e5481565b6102726103e0366004614fa8565b610f19565b610272600a5481565b6102726103fc3660046150d6565b611126565b61027267016345785d8a000081565b61027260075481565b610272610427366004614fa8565b6112c0565b6000546102f5906001600160a01b031681565b60408051808201909152600e81526d43457263323044656c656761746560901b6020820152610249565b610272610477366004614fa8565b6114c7565b61027261048a366004614fa8565b6116ce565b6004546102f5906001600160a01b031681565b6102726104b0366004615117565b61173c565b3330146104f15760405162461bcd60e51b815260206004820152600560248201526410b9b2b63360d91b60448201526064015b60405180910390fd5b6104fb8282611f9b565b5050565b6001805461050c90615159565b80601f016020809104026020016040519081016040528092919081815260200182805461053890615159565b80156105855780601f1061055a57610100808354040283529160200191610585565b820191906000526020600020905b81548152906001019060200180831161056857829003601f168201915b505050505081565b60008054600354604051631beb2b9760e31b81526001600160a01b039283169263df595cb8926105da9261010090910490911690339030906001600160e01b03198835169060040161518d565b602060405180830381865afa1580156105f7573d6000803e3d6000fd5b505050506040513d601f19601f8201168201806040525081019061061b91906151c0565b6106375760405162461bcd60e51b81526004016104e8906151e2565b60145460405163bf40fac160e01b81526000916001600160a01b03169063bf40fac1906106669060040161520a565b602060405180830381865afa158015610683573d6000803e3d6000fd5b505050506040513d601f19601f820116820180604052508101906106a79190615236565b90506001600160a01b0381166106cb5760006106c28461201c565b50949350505050565b60405163b230eab960e01b815233600482015281906001600160a01b0382169063b230eab990602401600060405180830381600087803b15801561070e57600080fd5b505af1158015610722573d6000803e3d6000fd5b50503332039150610744905057600061073a8561201c565b5095945050505050565b604051633108c13b60e01b81526001600160a01b03821690633108c13b906107729032903390600401615253565b60006040518083038186803b15801561078a57600080fd5b505afa15801561079e573d6000803e3d6000fd5b50505050600061073a8561201c565b60003330146107e65760405162461bcd60e51b815260206004820152600560248201526410b9b2b63360d91b60448201526064016104e8565b6107f083836120ad565b90505b92915050565b60008054600354604051631beb2b9760e31b81526001600160a01b039283169263df595cb8926108469261010090910490911690339030906001600160e01b03198835169060040161518d565b602060405180830381865afa158015610863573d6000803e3d6000fd5b505050506040513d601f19601f8201168201806040525081019061088791906151c0565b6108a35760405162461bcd60e51b81526004016104e8906151e2565b60145460405163bf40fac160e01b81526000916001600160a01b03169063bf40fac1906108d29060040161520a565b602060405180830381865afa1580156108ef573d6000803e3d6000fd5b505050506040513d601f19601f820116820180604052508101906109139190615236565b90506001600160a01b03811661093957600061092f8585612280565b50925050506107f3565b60405163b230eab960e01b815233600482015281906001600160a01b0382169063b230eab990602401600060405180830381600087803b15801561097c57600080fd5b505af1158015610990573d6000803e3d6000fd5b505033320391506109b490505760006109a98686612280565b5093505050506107f3565b604051633108c13b60e01b81526001600160a01b03821690633108c13b906109e29032903390600401615253565b60006040518083038186803b1580156109fa57600080fd5b505afa158015610a0e573d6000803e3d6000fd5b505050506000610a1e8686612280565b509695505050505050565b6000610a33612313565b905090565b600080610aa683306001600160a01b031663bd6d894d6040518163ffffffff1660e01b8152600401602060405180830381865afa158015610a7d573d6000803e3d6000fd5b505050506040513d601f19601f82011682018060405250810190610aa1919061526d565b612380565b949350505050565b33301480610abf5750610abf6123a7565b610afd5760405162461bcd60e51b815260206004820152600f60248201526e10b9b2b633103e3e1010b0b236b4b760891b60448201526064016104e8565b50565b60008054600354604051631beb2b9760e31b81526001600160a01b039283169263df595cb892610b4d9261010090910490911690339030906001600160e01b03198835169060040161518d565b602060405180830381865afa158015610b6a573d6000803e3d6000fd5b505050506040513d601f19601f82011682018060405250810190610b8e91906151c0565b610baa5760405162461bcd60e51b81526004016104e8906151e2565b60145460405163bf40fac160e01b81526000916001600160a01b03169063bf40fac190610bd99060040161520a565b602060405180830381865afa158015610bf6573d6000803e3d6000fd5b505050506040513d601f19601f82011682018060405250810190610c1a9190615236565b90506001600160a01b038116610c3a57610c3383612524565b9392505050565b60405163b230eab960e01b815233600482015281906001600160a01b0382169063b230eab990602401600060405180830381600087803b158015610c7d57600080fd5b505af1158015610c91573d6000803e3d6000fd5b50503332039150610ca7905057610aa684612524565b604051633108c13b60e01b81526001600160a01b03821690633108c13b90610cd59032903390600401615253565b60006040518083038186803b158015610ced57600080fd5b505afa158015610d01573d6000803e3d6000fd5b50505050610aa684612524565b606060036000610d1c6125b2565b90508160ff168151610d2e919061529c565b67ffffffffffffffff811115610d4657610d46614fc1565b604051908082528060200260200182016040528015610d6f578160200160208202803683370190505b50925060005b8151811015610dcb57818181518110610d9057610d906152af565b6020026020010151848281518110610daa57610daa6152af565b6001600160e01b031990921660209283029190910190910152600101610d75565b50805163cb2ef6f760e01b908490610de2856152c5565b9450610df19060ff861661529c565b81518110610e0157610e016152af565b6001600160e01b0319909216602092830291909101909101528051632c436e5b60e01b908490610e30856152c5565b9450610e3f9060ff861661529c565b81518110610e4f57610e4f6152af565b6001600160e01b0319909216602092830291909101909101528051630adccee560e31b908490610e7e856152c5565b9450610e8d9060ff861661529c565b81518110610e9d57610e9d6152af565b6001600160e01b03199092166020928302919091019091015260ff821615610f075760405162461bcd60e51b815260206004820152601c60248201527f7573652074686520636f7272656374206172726179206c656e6774680000000060448201526064016104e8565b505090565b6002805461050c90615159565b60008054600354604051631beb2b9760e31b81526001600160a01b039283169263df595cb892610f669261010090910490911690339030906001600160e01b03198835169060040161518d565b602060405180830381865afa158015610f83573d6000803e3d6000fd5b505050506040513d601f19601f82011682018060405250810190610fa791906151c0565b610fc35760405162461bcd60e51b81526004016104e8906151e2565b60145460405163bf40fac160e01b81526000916001600160a01b03169063bf40fac190610ff29060040161520a565b602060405180830381865afa15801561100f573d6000803e3d6000fd5b505050506040513d601f19601f820116820180604052508101906110339190615236565b90506001600160a01b03811661104e5760006106c28461297a565b60405163b230eab960e01b815233600482015281906001600160a01b0382169063b230eab990602401600060405180830381600087803b15801561109157600080fd5b505af11580156110a5573d6000803e3d6000fd5b505033320391506110bd905057600061073a8561297a565b604051633108c13b60e01b81526001600160a01b03821690633108c13b906110eb9032903390600401615253565b60006040518083038186803b15801561110357600080fd5b505afa158015611117573d6000803e3d6000fd5b50505050600061073a8561297a565b60006001611133816129f7565b60145460405163bf40fac160e01b81526000916001600160a01b03169063bf40fac1906111629060040161520a565b602060405180830381865afa15801561117f573d6000803e3d6000fd5b505050506040513d601f19601f820116820180604052508101906111a39190615236565b90506001600160a01b0381166111c7576111bf33878787612abb565b9250506112af565b60405163b230eab960e01b815233600482015281906001600160a01b0382169063b230eab990602401600060405180830381600087803b15801561120a57600080fd5b505af115801561121e573d6000803e3d6000fd5b5050333203915061124090505761123733888888612abb565b935050506112af565b604051633108c13b60e01b81526001600160a01b03821690633108c13b9061126e9032903390600401615253565b60006040518083038186803b15801561128657600080fd5b505afa15801561129a573d6000803e3d6000fd5b505050506112aa33888888612abb565b935050505b6112b881612fa3565b509392505050565b60008054600354604051631beb2b9760e31b81526001600160a01b039283169263df595cb89261130d9261010090910490911690339030906001600160e01b03198835169060040161518d565b602060405180830381865afa15801561132a573d6000803e3d6000fd5b505050506040513d601f19601f8201168201806040525081019061134e91906151c0565b61136a5760405162461bcd60e51b81526004016104e8906151e2565b60145460405163bf40fac160e01b81526000916001600160a01b03169063bf40fac1906113999060040161520a565b602060405180830381865afa1580156113b6573d6000803e3d6000fd5b505050506040513d601f19601f820116820180604052508101906113da9190615236565b90506001600160a01b0381166113f357610c3383613026565b60405163b230eab960e01b815233600482015281906001600160a01b0382169063b230eab990602401600060405180830381600087803b15801561143657600080fd5b505af115801561144a573d6000803e3d6000fd5b50503332039150611460905057610aa684613026565b604051633108c13b60e01b81526001600160a01b03821690633108c13b9061148e9032903390600401615253565b60006040518083038186803b1580156114a657600080fd5b505afa1580156114ba573d6000803e3d6000fd5b50505050610aa684613026565b60008054600354604051631beb2b9760e31b81526001600160a01b039283169263df595cb8926115149261010090910490911690339030906001600160e01b03198835169060040161518d565b602060405180830381865afa158015611531573d6000803e3d6000fd5b505050506040513d601f19601f8201168201806040525081019061155591906151c0565b6115715760405162461bcd60e51b81526004016104e8906151e2565b60145460405163bf40fac160e01b81526000916001600160a01b03169063bf40fac1906115a09060040161520a565b602060405180830381865afa1580156115bd573d6000803e3d6000fd5b505050506040513d601f19601f820116820180604052508101906115e19190615236565b90506001600160a01b0381166115fa57610c33836130a1565b60405163b230eab960e01b815233600482015281906001600160a01b0382169063b230eab990602401600060405180830381600087803b15801561163d57600080fd5b505af1158015611651573d6000803e3d6000fd5b50503332039150611667905057610aa6846130a1565b604051633108c13b60e01b81526001600160a01b03821690633108c13b906116959032903390600401615253565b60006040518083038186803b1580156116ad57600080fd5b505afa1580156116c1573d6000803e3d6000fd5b50505050610aa6846130a1565b600080610aa683306001600160a01b031663bd6d894d6040518163ffffffff1660e01b8152600401602060405180830381865afa158015611713573d6000803e3d6000fd5b505050506040513d601f19601f82011682018060405250810190611737919061526d565b61311e565b60008054600354604051631beb2b9760e31b81526001600160a01b039283169263df595cb8926117899261010090910490911690339030906001600160e01b03198835169060040161518d565b602060405180830381865afa1580156117a6573d6000803e3d6000fd5b505050506040513d601f19601f820116820180604052508101906117ca91906151c0565b6117e65760405162461bcd60e51b81526004016104e8906151e2565b60145460405163bf40fac160e01b81526000916001600160a01b03169063bf40fac1906118159060040161520a565b602060405180830381865afa158015611832573d6000803e3d6000fd5b505050506040513d601f19601f820116820180604052508101906118569190615236565b90506001600160a01b038116611a8b5760145460405163bf40fac160e01b815286916000916001600160a01b039091169063bf40fac190611899906004016152e2565b602060405180830381865afa1580156118b6573d6000803e3d6000fd5b505050506040513d601f19601f820116820180604052508101906118da9190615236565b60145460405163bf40fac160e01b81529192506000916001600160a01b039091169063bf40fac19061190e90600401615304565b602060405180830381865afa15801561192b573d6000803e3d6000fd5b505050506040513d601f19601f8201168201806040525081019061194f9190615236565b9050806001600160a01b0316632c89aa2e6040518163ffffffff1660e01b8152600401602060405180830381865afa15801561198f573d6000803e3d6000fd5b505050506040513d601f19601f820116820180604052508101906119b3919061526d565b6003546040516357c89a7d60e01b81526001600160a01b03808616926357c89a7d926119ea92899261010090041690600401615253565b602060405180830381865afa158015611a07573d6000803e3d6000fd5b505050506040513d601f19601f82011682018060405250810190611a2b919061526d565b1115611a7057336001600160a01b03821614611a595760405162461bcd60e51b81526004016104e890615332565b6000611a66898989613139565b509550611a829050565b6000611a7d898989613139565b509550505b50505050610c33565b60405163b230eab960e01b815233600482015281906001600160a01b0382169063b230eab990602401600060405180830381600087803b158015611ace57600080fd5b505af1158015611ae2573d6000803e3d6000fd5b50503332039150611d1590505760145460405163bf40fac160e01b815287916000916001600160a01b039091169063bf40fac190611b22906004016152e2565b602060405180830381865afa158015611b3f573d6000803e3d6000fd5b505050506040513d601f19601f82011682018060405250810190611b639190615236565b60145460405163bf40fac160e01b81529192506000916001600160a01b039091169063bf40fac190611b9790600401615304565b602060405180830381865afa158015611bb4573d6000803e3d6000fd5b505050506040513d601f19601f82011682018060405250810190611bd89190615236565b9050806001600160a01b0316632c89aa2e6040518163ffffffff1660e01b8152600401602060405180830381865afa158015611c18573d6000803e3d6000fd5b505050506040513d601f19601f82011682018060405250810190611c3c919061526d565b6003546040516357c89a7d60e01b81526001600160a01b03808616926357c89a7d92611c7392899261010090041690600401615253565b602060405180830381865afa158015611c90573d6000803e3d6000fd5b505050506040513d601f19601f82011682018060405250810190611cb4919061526d565b1115611cf957336001600160a01b03821614611ce25760405162461bcd60e51b81526004016104e890615332565b6000611cef8a8a8a613139565b509650611d0b9050565b6000611d068a8a8a613139565b509650505b5050505050610c33565b604051633108c13b60e01b81526001600160a01b03821690633108c13b90611d439032903390600401615253565b60006040518083038186803b158015611d5b57600080fd5b505afa158015611d6f573d6000803e3d6000fd5b505060145460405163bf40fac160e01b8152899350600092506001600160a01b039091169063bf40fac190611da6906004016152e2565b602060405180830381865afa158015611dc3573d6000803e3d6000fd5b505050506040513d601f19601f82011682018060405250810190611de79190615236565b60145460405163bf40fac160e01b81529192506000916001600160a01b039091169063bf40fac190611e1b90600401615304565b602060405180830381865afa158015611e38573d6000803e3d6000fd5b505050506040513d601f19601f82011682018060405250810190611e5c9190615236565b9050806001600160a01b0316632c89aa2e6040518163ffffffff1660e01b8152600401602060405180830381865afa158015611e9c573d6000803e3d6000fd5b505050506040513d601f19601f82011682018060405250810190611ec0919061526d565b6003546040516357c89a7d60e01b81526001600160a01b03808616926357c89a7d92611ef792899261010090041690600401615253565b602060405180830381865afa158015611f14573d6000803e3d6000fd5b505050506040513d601f19601f82011682018060405250810190611f38919061526d565b1115611f7d57336001600160a01b03821614611f665760405162461bcd60e51b81526004016104e890615332565b6000611f738a8a8a613139565b509650611f8f9050565b6000611f8a8a8a8a613139565b509650505b50505050509392505050565b604080516001600160a01b038416602482015260448082018490528251808303909101815260649091018252602080820180516001600160e01b031663a9059cbb60e01b1790528251808401909352601983527f544f4b454e5f5452414e534645525f4f55545f4641494c454400000000000000908301526104fb91613233565b600080600061202a816129f7565b306001600160a01b031663a6afed956040518163ffffffff1660e01b81526004016020604051808303816000875af115801561206a573d6000803e3d6000fd5b505050506040513d601f19601f8201168201806040525081019061208e919061526d565b5061209a333386613291565b925092506120a781612fa3565b50915091565b6013546040516370a0823160e01b815230600482015260009182916001600160a01b03909116906370a0823190602401602060405180830381865afa1580156120fa573d6000803e3d6000fd5b505050506040513d601f19601f8201168201806040525081019061211e919061526d565b90506121ae6323b872dd60e01b8530866040516024016121409392919061538f565b604051602081830303815290604052906001600160e01b0319166020820180516001600160e01b0383818316178352505050506040518060400160405280601881526020017f544f4b454e5f5452414e534645525f494e5f4641494c45440000000000000000815250613233565b6013546040516370a0823160e01b81523060048201526000916001600160a01b0316906370a0823190602401602060405180830381865afa1580156121f7573d6000803e3d6000fd5b505050506040513d601f19601f8201168201806040525081019061221b919061526d565b90508181101561226d5760405162461bcd60e51b815260206004820152601a60248201527f544f4b454e5f5452414e534645525f494e5f4f564552464c4f5700000000000060448201526064016104e8565b61227782826153b3565b95945050505050565b600080600061228e816129f7565b306001600160a01b031663a6afed956040518163ffffffff1660e01b81526004016020604051808303816000875af11580156122ce573d6000803e3d6000fd5b505050506040513d601f19601f820116820180604052508101906122f2919061526d565b506122fe338686613291565b9250925061230b81612fa3565b509250929050565b6013546040516370a0823160e01b81523060048201526000916001600160a01b0316906370a0823190602401602060405180830381865afa15801561235c573d6000803e3d6000fd5b505050506040513d601f19601f82011682018060405250810190610a33919061526d565b60008061239b6040518060200160405280858152508561369e565b915091505b9250929050565b600080600360019054906101000a90046001600160a01b03169050806001600160a01b031663f851a4406040518163ffffffff1660e01b8152600401602060405180830381865afa158015612400573d6000803e3d6000fd5b505050506040513d601f19601f820116820180604052508101906124249190615236565b6001600160a01b0316336001600160a01b03161480156124a15750806001600160a01b0316630a755ec26040518163ffffffff1660e01b8152600401602060405180830381865afa15801561247d573d6000803e3d6000fd5b505050506040513d601f19601f820116820180604052508101906124a191906151c0565b8061251e57506000546001600160a01b03163314801561251e5750806001600160a01b031663cf6bfd2d6040518163ffffffff1660e01b8152600401602060405180830381865afa1580156124fa573d6000803e3d6000fd5b505050506040513d601f19601f8201168201806040525081019061251e91906151c0565b91505090565b600080612530816129f7565b306001600160a01b031663a6afed956040518163ffffffff1660e01b81526004016020604051808303816000875af1158015612570573d6000803e3d6000fd5b505050506040513d601f19601f82011682018060405250810190612594919061526d565b506125a1336000856136f0565b91506125ac81612fa3565b50919050565b60408051600d8082526101c082019092526060919060009082602082016101a08036833701905050905063140e25ad60e31b816125ee846152c5565b93508360ff1681518110612604576126046152af565b6001600160e01b03199092166020928302919091019091015263db006a7560e01b8161262f846152c5565b93508360ff1681518110612645576126456152af565b6001600160e01b03199092166020928302919091019091015263852a12e360e01b81612670846152c5565b93508360ff1681518110612686576126866152af565b6001600160e01b03199092166020928302919091019091015263317afabb60e21b816126b1846152c5565b93508360ff16815181106126c7576126c76152af565b6001600160e01b03199092166020928302919091019091015263073a938160e11b816126f2846152c5565b93508360ff1681518110612708576127086152af565b6001600160e01b0319909216602092830291909101909101526304c11f0360e31b81612733846152c5565b93508360ff1681518110612749576127496152af565b6001600160e01b031990921660209283029190910190910152637af1e23160e11b81612774846152c5565b93508360ff168151811061278a5761278a6152af565b6001600160e01b031990921660209283029190910190910152631d8e90d160e11b816127b5846152c5565b93508360ff16815181106127cb576127cb6152af565b6001600160e01b03199092166020928302919091019091015263b2a02ff160e01b816127f6846152c5565b93508360ff168151811061280c5761280c6152af565b6001600160e01b03199092166020928302919091019091015263067db1b360e01b81612837846152c5565b93508360ff168151811061284d5761284d6152af565b6001600160e01b0319909216602092830291909101909101526304d7c4cd60e21b81612878846152c5565b93508360ff168151811061288e5761288e6152af565b6001600160e01b03199092166020928302919091019091015263ef8b30f760e01b816128b9846152c5565b93508360ff16815181106128cf576128cf6152af565b6001600160e01b03199092166020928302919091019091015263266d6a8360e11b816128fa846152c5565b93508360ff1681518110612910576129106152af565b6001600160e01b03199092166020928302919091019091015260ff8216156107f35760405162461bcd60e51b815260206004820152601c60248201527f7573652074686520636f7272656374206172726179206c656e6774680000000060448201526064016104e8565b6000806000612988816129f7565b306001600160a01b031663a6afed956040518163ffffffff1660e01b81526004016020604051808303816000875af11580156129c8573d6000803e3d6000fd5b505050506040513d601f19601f820116820180604052508101906129ec919061526d565b5061209a3385613d37565b600054600160a01b900460ff16612a3d5760405162461bcd60e51b815260206004820152600a6024820152691c994b595b9d195c995960b21b60448201526064016104e8565b80612aab57600360019054906101000a90046001600160a01b03166001600160a01b031663c90c20b16040518163ffffffff1660e01b8152600401600060405180830381600087803b158015612a9257600080fd5b505af1158015612aa6573d6000803e3d6000fd5b505050505b506000805460ff60a01b19169055565b60035460405163d02f735160e01b81523060048201526001600160a01b038681166024830152858116604483015284811660648301526084820184905260009283926101009091049091169063d02f73519060a4016020604051808303816000875af1158015612b2f573d6000803e3d6000fd5b505050506040513d601f19601f82011682018060405250810190612b53919061526d565b90508015612b7057612b686003601d83614136565b915050610aa6565b846001600160a01b0316846001600160a01b031603612b9557612b686006601e6141d8565b612bfa604080516101808101909152806000815260200160008152602001600081526020016000815260200160008152602001600081526020016000815260200160008152602001600081526020016000815260200160008152602001600081525090565b6001600160a01b038516600090815260106020526040902054612c1d9085614251565b6020830181905282826003811115612c3757612c376153c6565b6003811115612c4857612c486153c6565b9052506000905081516003811115612c6257612c626153c6565b14612c9257612c896009601c83600001516003811115612c8457612c846153c6565b614136565b92505050610aa6565b612cb1846040518060200160405280666379da05b6000081525061427c565b6080820152604080516020810190915267016345785d8a00008152612cd790859061427c565b61014082018190526080820151612cee90866153b3565b612cf891906153b3565b6060820152306001600160a01b031663bd6d894d6040518163ffffffff1660e01b8152600401602060405180830381865afa158015612d3b573d6000803e3d6000fd5b505050506040513d601f19601f82011682018060405250810190612d5f919061526d565b60c082019081526040805160208101909152905181526080820151612d84919061429f565b60a0820152604080516020810190915260c08201518152610140820151612dab919061429f565b61016082015260a0810151600c54612dc3919061529c565b60e08201526101408101516080820151600f54612de091906153b3565b612dea91906153b3565b610120820152610160810151600e54612e03919061529c565b6101008201526001600160a01b0386166000908152601060205260409020546060820151612e3191906142b7565b6040830181905282826003811115612e4b57612e4b6153c6565b6003811115612e5c57612e5c6153c6565b9052506000905081516003811115612e7657612e766153c6565b14612e9857612c896009601b83600001516003811115612c8457612c846153c6565b60e0810151600c55610120810151600f55610100810151600e556020808201516001600160a01b0387811660008181526010855260408082209490945583860151928b1680825290849020929092556060850151925192835290929091600080516020615472833981519152910160405180910390a3306001600160a01b0316856001600160a01b03166000805160206154728339815191528360800151604051612f4591815260200190565b60405180910390a360a081015160e08201516040805130815260208101939093528201527fa91e67c5ea634cd43a12c5a482724b03de01e85ca68702a53d0c2f45cb7c1dc59060600160405180910390a15060009695505050505050565b6000805460ff60a01b1916600160a01b17905580610afd57600360019054906101000a90046001600160a01b03166001600160a01b031663632e51426040518163ffffffff1660e01b8152600401600060405180830381600087803b15801561300b57600080fd5b505af115801561301f573d6000803e3d6000fd5b5050505050565b600080613032816129f7565b306001600160a01b031663a6afed956040518163ffffffff1660e01b81526004016020604051808303816000875af1158015613072573d6000803e3d6000fd5b505050506040513d601f19601f82011682018060405250810190613096919061526d565b506125a133846142dd565b6000806130ad816129f7565b306001600160a01b031663a6afed956040518163ffffffff1660e01b81526004016020604051808303816000875af11580156130ed573d6000803e3d6000fd5b505050506040513d601f19601f82011682018060405250810190613111919061526d565b506125a1338460006136f0565b60008061239b84604051806020016040528086815250614678565b6000806000613147816129f7565b306001600160a01b031663a6afed956040518163ffffffff1660e01b81526004016020604051808303816000875af1158015613187573d6000803e3d6000fd5b505050506040513d601f19601f820116820180604052508101906131ab919061526d565b50836001600160a01b031663a6afed956040518163ffffffff1660e01b81526004016020604051808303816000875af11580156131ec573d6000803e3d6000fd5b505050506040513d601f19601f82011682018060405250810190613210919061526d565b5061321d33878787614688565b9250925061322a81612fa3565b50935093915050565b60135460009061324d906001600160a01b03168484614b45565b80519091501561328c578080602001905181019061326b91906151c0565b829061328a5760405162461bcd60e51b81526004016104e89190614f75565b505b505050565b600354604051631200453160e11b81523060048201526001600160a01b03858116602483015284811660448301526064820184905260009283928392610100909204909116906324008a62906084016020604051808303816000875af11580156132ff573d6000803e3d6000fd5b505050506040513d601f19601f82011682018060405250810190613323919061526d565b90508015613344576133386003604383614136565b60009250925050613696565b436009541461335957613338600a60446141d8565b6133a26040805161010081019091528060008152602001600081526020016000815260200160008152602001600081526020016000815260200160008152602001600081525090565b6001600160a01b0386166000908152601260205260409020600101546060820152306040516305eff7ef60e21b81526001600160a01b03888116600483015291909116906317bfdfbc90602401602060405180830381865afa15801561340c573d6000803e3d6000fd5b505050506040513d601f19601f82011682018060405250810190613430919061526d565b60808201526001850161344c5760808101516040820152613454565b604081018590525b6134628782604001516120ad565b60e08201819052608082015161347791614251565b60a0830181905260208301826003811115613494576134946153c6565b60038111156134a5576134a56153c6565b90525060009050816020015160038111156134c2576134c26153c6565b146135355760405162461bcd60e51b815260206004820152603a60248201527f52455041595f424f52524f575f4e45575f4143434f554e545f424f52524f575f60448201527f42414c414e43455f43414c43554c4154494f4e5f4641494c454400000000000060648201526084016104e8565b613545600b548260e00151614251565b60c0830181905260208301826003811115613562576135626153c6565b6003811115613573576135736153c6565b9052506000905081602001516003811115613590576135906153c6565b146135f75760405162461bcd60e51b815260206004820152603160248201527f52455041595f424f52524f575f4e45575f544f54414c5f42414c414e43455f43604482015270105310d55310551253d397d19052531151607a1b60648201526084016104e8565b60a081810180516001600160a01b03898116600081815260126020908152604091829020948555600a5460019095019490945560c0870151600b81905560e088015195518251948f16855294840192909252820193909352606081019190915260808101919091527f1a2a22cb034d26d1854bdc6666a5b91fe25efbbb5dcad3b0355478d6f5c362a1910160405180910390a160e00151600093509150505b935093915050565b6000806000806136ae8686614bd8565b909250905060008260038111156136c7576136c76153c6565b146136d857509150600090506123a0565b60006136e382614c54565b9350935050509250929050565b60008215806136fd575081155b6137495760405162461bcd60e51b815260206004820152601860248201527f2172656465656d20746f6b656e73206f7220616d6f756e74000000000000000060448201526064016104e8565b61378a6040805160e0810190915280600081526020016000815260200160008152602001600081526020016000815260200160008152602001600081525090565b306001600160a01b031663bd6d894d6040518163ffffffff1660e01b8152600401602060405180830381865afa1580156137c8573d6000803e3d6000fd5b505050506040513d601f19601f820116820180604052508101906137ec919061526d565b604082015283156138af5761138884600f5461380891906153b3565b101561381457600f5493505b6060810184905260408051602081018252908201518152613835908561369e565b6080830181905260208301826003811115613852576138526153c6565b6003811115613863576138636153c6565b9052506000905081602001516003811115613880576138806153c6565b146138aa576138a26009602c83602001516003811115612c8457612c846153c6565b915050610c33565b6139f6565b600019830361393c57600354604051630cbb414760e11b81526001600160a01b0387811660048301523060248301526000604483015261010090920490911690631976828e90606401602060405180830381865afa158015613915573d6000803e3d6000fd5b505050506040513d601f19601f82011682018060405250810190613939919061526d565b92505b6000306001600160a01b0316634aeb3d9a6040518163ffffffff1660e01b8152600401602060405180830381865afa15801561397c573d6000803e3d6000fd5b505050506040513d601f19601f820116820180604052508101906139a0919061526d565b90506103e86139af85836153b3565b10156139b9578093505b6139c7848360400151614c6c565b60608301819052600f546103e8916139de916153b3565b10156139ed57600f5460608301525b50608081018390525b600354606082015160405163eabe7d9160e01b815260009261010090046001600160a01b03169163eabe7d9191613a349130918b919060040161538f565b6020604051808303816000875af1158015613a53573d6000803e3d6000fd5b505050506040513d601f19601f82011682018060405250810190613a77919061526d565b90508015613a9557613a8c6003602b83614136565b92505050610c33565b4360095414613aaa57613a8c600a602f6141d8565b613aba600f548360600151614251565b60a0840181905260208401826003811115613ad757613ad76153c6565b6003811115613ae857613ae86153c6565b9052506000905082602001516003811115613b0557613b056153c6565b14613b2757613a8c6009603184602001516003811115612c8457612c846153c6565b6001600160a01b0386166000908152601060205260409020546060830151613b4f9190614251565b60c0840181905260208401826003811115613b6c57613b6c6153c6565b6003811115613b7d57613b7d6153c6565b9052506000905082602001516003811115613b9a57613b9a6153c6565b14613bbc57613a8c6009603084602001516003811115612c8457612c846153c6565b8160800151613bc9612313565b1015613bdb57613a8c600e60326141d8565b60a0820151600f5560c08201516001600160a01b0387166000908152601060205260409020556080820151613c11908790611f9b565b306001600160a01b0316866001600160a01b03166000805160206154728339815191528460600151604051613c4891815260200190565b60405180910390a36080820151606080840151604080516001600160a01b038b16815260208101949094528301527fe5b754fb1abb7f01b499791d0b820ae3b6af3424ac1c59768edb53f4ec31a929910160405180910390a1600354608083015160608401516040516351dff98960e01b81523060048201526001600160a01b038a811660248301526044820193909352606481019190915261010090920416906351dff98990608401600060405180830381600087803b158015613d0c57600080fd5b505af1158015613d20573d6000803e3d6000fd5b5060009250613d2d915050565b9695505050505050565b600354604051634ef4c3e160e01b81526000918291829161010090046001600160a01b031690634ef4c3e190613d759030908990899060040161538f565b6020604051808303816000875af1158015613d94573d6000803e3d6000fd5b505050506040513d601f19601f82011682018060405250810190613db8919061526d565b90508015613dd957613dcd6003602183614136565b600092509250506123a0565b4360095414613dee57613dcd600a60246141d8565b613e2f6040805160e0810190915280600081526020016000815260200160008152602001600081526020016000815260200160008152602001600081525090565b306001600160a01b031663bd6d894d6040518163ffffffff1660e01b8152600401602060405180830381865afa158015613e6d573d6000803e3d6000fd5b505050506040513d601f19601f82011682018060405250810190613e91919061526d565b6040820152613ea086866120ad565b60c082018190526040820151613eb6919061311e565b6060830181905260208301826003811115613ed357613ed36153c6565b6003811115613ee457613ee46153c6565b9052506000905081602001516003811115613f0157613f016153c6565b14613f4e5760405162461bcd60e51b815260206004820181905260248201527f4d494e545f45584348414e47455f43414c43554c4154494f4e5f4641494c454460448201526064016104e8565b6000816060015111613fa25760405162461bcd60e51b815260206004820152601a60248201527f4d494e545f5a45524f5f43544f4b454e535f52454a454354454400000000000060448201526064016104e8565b8060600151600f54613fb4919061529c565b608082015260608101516001600160a01b038716600090815260106020526040902054613fe1919061529c565b60a082018190526080820151600f556001600160a01b0387166000818152601060209081526040918290209390935560c0840151606080860151835194855294840191909152908201929092527f4c209b5fc8ad50758f13e2e1088ba56a560dff690a1c6fef26394f4c03821c4f910160405180910390a1856001600160a01b0316306001600160a01b0316600080516020615472833981519152836060015160405161409091815260200190565b60405180910390a360035460c082015160608301516040516341c728b960e01b81523060048201526001600160a01b038a811660248301526044820193909352606481019190915261010090920416906341c728b990608401600060405180830381600087803b15801561410357600080fd5b505af1158015614117573d6000803e3d6000fd5b5060009250614124915050565b8160c001519350935050509250929050565b60007f45b96fe442630264581b197e84bbada861235052c5a1aadfff9ea4e40a969aa084601181111561416b5761416b6153c6565b84606181111561417d5761417d6153c6565b604080519283526020830191909152810184905260600160405180910390a160038460118111156141b0576141b06153c6565b146141cc578360118111156141c7576141c76153c6565b610aa6565b610aa6826103e861529c565b60007f45b96fe442630264581b197e84bbada861235052c5a1aadfff9ea4e40a969aa083601181111561420d5761420d6153c6565b83606181111561421f5761421f6153c6565b60408051928352602083019190915260009082015260600160405180910390a18260118111156107f0576107f06153c6565b60008083831161427057600061426784866153b3565b915091506123a0565b506003905060006123a0565b6000670de0b6b3a7640000614295848460000151614ca7565b6107f091906153f2565b6000806142ac8484614ce9565b9050610aa681614c54565b6000808383018481106142cf576000925090506123a0565b6002600092509250506123a0565b60035460405163368f515360e21b815260009182916101009091046001600160a01b03169063da3d454c9061431a9030908890889060040161538f565b6020604051808303816000875af1158015614339573d6000803e3d6000fd5b505050506040513d601f19601f8201168201806040525081019061435d919061526d565b9050801561437a576143726003601083614136565b9150506107f3565b436009541461438f57614372600a600c6141d8565b6000614399612313565b9050838110156143b8576143af600e600b6141d8565b925050506107f3565b6143e4604080516080810190915280600081526020016000815260200160008152602001600081525090565b306040516305eff7ef60e21b81526001600160a01b03888116600483015291909116906317bfdfbc90602401602060405180830381865afa15801561442d573d6000803e3d6000fd5b505050506040513d601f19601f82011682018060405250810190614451919061526d565b6020820181905261446290866142b7565b604083018190528282600381111561447c5761447c6153c6565b600381111561448d5761448d6153c6565b90525060009050815160038111156144a7576144a76153c6565b146144d3576144c96009600e83600001516003811115612c8457612c846153c6565b93505050506107f3565b6003546040828101519051631de6c8a560e21b815230600482015260248101919091526101009091046001600160a01b03169063779b229490604401602060405180830381865afa15801561452c573d6000803e3d6000fd5b505050506040513d601f19601f82011682018060405250810190614550919061526d565b92508215614565576144c96003601085614136565b614571600b54866142b7565b606083018190528282600381111561458b5761458b6153c6565b600381111561459c5761459c6153c6565b90525060009050815160038111156145b6576145b66153c6565b146145d8576144c96009600d83600001516003811115612c8457612c846153c6565b6040808201516001600160a01b0388166000908152601260205291909120908155600a546001909101556060810151600b556146148686611f9b565b60408082015160608084015183516001600160a01b038b168152602081018a9052938401929092528201527f13ed6866d4e1ee6da46f845c46d7e54120883d75c5ea9a2dacc1c4ca8984ab809060800160405180910390a160009695505050505050565b6000806000806136ae8686614d1a565b600354604051632fe3f38f60e11b81523060048201526001600160a01b03838116602483015286811660448301528581166064830152608482018590526000928392839261010090920490911690635fc7e71e9060a4016020604051808303816000875af11580156146fe573d6000803e3d6000fd5b505050506040513d601f19601f82011682018060405250810190614722919061526d565b90508015614743576147376003601483614136565b60009250925050614b3c565b436009541461475857614737600a60186141d8565b43846001600160a01b0316636c540baf6040518163ffffffff1660e01b8152600401602060405180830381865afa158015614797573d6000803e3d6000fd5b505050506040513d601f19601f820116820180604052508101906147bb919061526d565b146147cc57614737600a60136141d8565b866001600160a01b0316866001600160a01b0316036147f157614737600660196141d8565b8460000361480557614737600760176141d8565b600019850361481a57614737600760166141d8565b600080614828898989613291565b9092509050811561485d5761484f826011811115614848576148486153c6565b601a6141d8565b600094509450505050614b3c565b60035460405163c488847b60e01b815260009182916101009091046001600160a01b03169063c488847b9061489a9030908c90889060040161538f565b6040805180830381865afa1580156148b6573d6000803e3d6000fd5b505050506040513d601f19601f820116820180604052508101906148da9190615406565b909250905081156149495760405162461bcd60e51b815260206004820152603360248201527f4c49515549444154455f434f4d5054524f4c4c45525f43414c43554c4154455f604482015272105353d5539517d4d152569157d19052531151606a1b60648201526084016104e8565b6040516370a0823160e01b81526001600160a01b038b811660048301528291908a16906370a0823190602401602060405180830381865afa158015614992573d6000803e3d6000fd5b505050506040513d601f19601f820116820180604052508101906149b6919061526d565b1015614a045760405162461bcd60e51b815260206004820152601860248201527f4c49515549444154455f5345495a455f544f4f5f4d554348000000000000000060448201526064016104e8565b6000306001600160a01b038a1603614a2957614a22308d8d85612abb565b9050614a9f565b60405163b2a02ff160e01b81526001600160a01b038a169063b2a02ff190614a59908f908f90879060040161538f565b6020604051808303816000875af1158015614a78573d6000803e3d6000fd5b505050506040513d601f19601f82011682018060405250810190614a9c919061526d565b90505b8015614ad65760405162461bcd60e51b8152602060048201526006602482015265217365697a6560d01b60448201526064016104e8565b604080516001600160a01b038e811682528d811660208301528183018790528b1660608201526080810184905290517f298637f684da70674f26509b10f07ec2fbc77a335ab1e7d6215a4b2484d8bb529181900360a00190a16000975092955050505050505b94509492505050565b6060600080856001600160a01b031685604051614b62919061542a565b6000604051808303816000865af19150503d8060008114614b9f576040519150601f19603f3d011682016040523d82523d6000602084013e614ba4565b606091505b50915091508161227757805115614bbe5780518082602001fd5b8360405162461bcd60e51b81526004016104e89190614f75565b6000614bf06040518060200160405280600081525090565b600080614c01866000015186614d8d565b90925090506000826003811115614c1a57614c1a6153c6565b14614c39575060408051602081019091526000815290925090506123a0565b60408051602081019091529081526000969095509350505050565b80516000906107f390670de0b6b3a7640000906153f2565b600081614c8184670de0b6b3a7640000615446565b614c8b91906153f2565b9050614c97828461545d565b156107f3576107f060018261529c565b60006107f083836040518060400160405280601781526020017f6d756c7469706c69636174696f6e206f766572666c6f77000000000000000000815250614dcf565b6040805160208101909152600081526040518060200160405280614d11856000015185614ca7565b90529392505050565b6000614d326040518060200160405280600081525090565b600080614d47670de0b6b3a764000087614d8d565b90925090506000826003811115614d6057614d606153c6565b14614d7f575060408051602081019091526000815290925090506123a0565b6136e3818660000151614e22565b60008083600003614da3575060009050806123a0565b83830283614db186836153f2565b14614dc4576002600092509250506123a0565b6000925090506123a0565b6000831580614ddc575082155b15614de957506000610c33565b6000614df58486615446565b905083614e0286836153f2565b1483906106c25760405162461bcd60e51b81526004016104e89190614f75565b6000614e3a6040518060200160405280600081525090565b600080614e4f86670de0b6b3a7640000614d8d565b90925090506000826003811115614e6857614e686153c6565b14614e87575060408051602081019091526000815290925090506123a0565b600080614e948388614eed565b90925090506000826003811115614ead57614ead6153c6565b14614ed057816040518060200160405280600081525095509550505050506123a0565b604080516020810190915290815260009890975095505050505050565b60008082600003614f0457506001905060006123a0565b600061239b84866153f2565b6001600160a01b0381168114610afd57600080fd5b60008060408385031215614f3857600080fd5b8235614f4381614f10565b946020939093013593505050565b60005b83811015614f6c578181015183820152602001614f54565b50506000910152565b6020815260008251806020840152614f94816040850160208701614f51565b601f01601f19169190910160400192915050565b600060208284031215614fba57600080fd5b5035919050565b634e487b7160e01b600052604160045260246000fd5b600060208284031215614fe957600080fd5b813567ffffffffffffffff8082111561500157600080fd5b818401915084601f83011261501557600080fd5b81358181111561502757615027614fc1565b604051601f8201601f19908116603f0116810190838211818310171561504f5761504f614fc1565b8160405282815287602084870101111561506857600080fd5b826020860160208301376000928101602001929092525095945050505050565b6020808252825182820181905260009190848201906040850190845b818110156150ca5783516001600160e01b031916835292840192918401916001016150a4565b50909695505050505050565b6000806000606084860312156150eb57600080fd5b83356150f681614f10565b9250602084013561510681614f10565b929592945050506040919091013590565b60008060006060848603121561512c57600080fd5b833561513781614f10565b925060208401359150604084013561514e81614f10565b809150509250925092565b600181811c9082168061516d57607f821691505b6020821081036125ac57634e487b7160e01b600052602260045260246000fd5b6001600160a01b0394851681529284166020840152921660408201526001600160e01b0319909116606082015260800190565b6000602082840312156151d257600080fd5b81518015158114610c3357600080fd5b6020808252600e908201526d1b9bdd08185d5d1a1bdc9a5e995960921b604082015260600190565b60208082526012908201527148595045524e41544956455f4f5241434c4560701b604082015260600190565b60006020828403121561524857600080fd5b8151610c3381614f10565b6001600160a01b0392831681529116602082015260400190565b60006020828403121561527f57600080fd5b5051919050565b634e487b7160e01b600052601160045260246000fd5b808201808211156107f3576107f3615286565b634e487b7160e01b600052603260045260246000fd5b600060ff8216806152d8576152d8615286565b6000190192915050565b602080825260089082015267506f6f6c4c656e7360c01b604082015260600190565b60208082526014908201527324b7b734b1aab734ab19a634b8bab4b230ba37b960611b604082015260600190565b6020808252603e908201527f4865616c746820666163746f72206e6f74206c6f7720656e6f75676820666f7260408201527f206e6f6e2d7065726d697373696f6e6564206c69717569646174696f6e730000606082015260800190565b6001600160a01b039384168152919092166020820152604081019190915260600190565b818103818111156107f3576107f3615286565b634e487b7160e01b600052602160045260246000fd5b634e487b7160e01b600052601260045260246000fd5b600082615401576154016153dc565b500490565b6000806040838503121561541957600080fd5b505080516020909101519092909150565b6000825161543c818460208701614f51565b9190910192915050565b80820281158282048414176107f3576107f3615286565b60008261546c5761546c6153dc565b50069056feddf252ad1be2c89b69c2b068fc378daa952ba7f163c4a11628f55a4df523b3efa26469706673582212203890c9bc08fc42f890dac628eb9f5355378b9ae05fe0938cdcf87f7e3d402a7264736f6c63430008160033",
  "devdoc": {
    "author": "Compound",
    "events": {
      "Failure(uint256,uint256,uint256)": {
        "details": "`error` corresponds to enum Error; `info` corresponds to enum FailureInfo, and `detail` is an arbitrary contract-specific code that enables us to report opaque error codes from upgradeable contracts.*"
      }
    },
    "kind": "dev",
    "methods": {
      "_getExtensionFunctions()": {
        "returns": {
          "functionSelectors": "a list of all the function selectors that this logic extension exposes"
        }
      },
      "borrow(uint256)": {
        "params": {
          "borrowAmount": "The amount of the underlying asset to borrow"
        },
        "returns": {
          "_0": "uint 0=success, otherwise a failure (see ErrorReporter.sol for details)"
        }
      },
      "getCash()": {
        "returns": {
          "_0": "The quantity of underlying asset owned by this contract"
        }
      },
      "liquidateBorrow(address,uint256,address)": {
        "params": {
          "borrower": "The borrower of this cToken to be liquidated",
          "cTokenCollateral": "The market in which to seize collateral from the borrower",
          "repayAmount": "The amount of the underlying borrowed asset to repay"
        },
        "returns": {
          "_0": "uint 0=success, otherwise a failure (see ErrorReporter.sol for details)"
        }
      },
      "mint(uint256)": {
        "details": "Accrues interest whether or not the operation succeeds, unless reverted",
        "params": {
          "mintAmount": "The amount of the underlying asset to supply"
        },
        "returns": {
          "_0": "uint 0=success, otherwise a failure (see ErrorReporter.sol for details)"
        }
      },
      "previewDeposit(uint256)": {
        "params": {
          "assets": "Exact amount of underlying `asset` token to deposit"
        },
        "returns": {
          "_0": "of the vault issued in exchange to the user for `assets`"
        }
      },
      "previewRedeem(uint256)": {
        "params": {
          "redeemTokensIn": "Exact amount of `cTokens` to redeem"
        },
        "returns": {
          "_0": "quantity of underlying returned in exchange for `cTokens`."
        }
      },
      "redeem(uint256)": {
        "details": "Accrues interest whether or not the operation succeeds, unless reverted",
        "params": {
          "redeemTokens": "The number of cTokens to redeem into underlying"
        },
        "returns": {
          "_0": "uint 0=success, otherwise a failure (see ErrorReporter.sol for details)"
        }
      },
      "redeemUnderlying(uint256)": {
        "details": "Accrues interest whether or not the operation succeeds, unless reverted",
        "params": {
          "redeemAmount": "The amount of underlying to redeem"
        },
        "returns": {
          "_0": "uint 0=success, otherwise a failure (see ErrorReporter.sol for details)"
        }
      },
      "repayBorrow(uint256)": {
        "params": {
          "repayAmount": "The amount to repay"
        },
        "returns": {
          "_0": "uint 0=success, otherwise a failure (see ErrorReporter.sol for details)"
        }
      },
      "repayBorrowBehalf(address,uint256)": {
        "params": {
          "borrower": "the account with the debt being payed off",
          "repayAmount": "The amount to repay"
        },
        "returns": {
          "_0": "uint 0=success, otherwise a failure (see ErrorReporter.sol for details)"
        }
      },
      "seize(address,address,uint256)": {
        "details": "Will fail unless called by another cToken during the process of liquidation.  Its absolutely critical to use msg.sender as the borrowed cToken and not a parameter.",
        "params": {
          "borrower": "The account having collateral seized",
          "liquidator": "The account receiving seized collateral",
          "seizeTokens": "The number of cTokens to seize"
        },
        "returns": {
          "_0": "uint 0=success, otherwise a failure (see ErrorReporter.sol for details)"
        }
      }
    },
    "title": "Compound's CErc20Delegate Contract",
    "version": 1
  },
  "userdoc": {
    "events": {
      "AccrueInterest(uint256,uint256,uint256,uint256)": {
        "notice": "Event emitted when interest is accrued"
      },
      "Approval(address,address,uint256)": {
        "notice": "EIP20 Approval event"
      },
      "Borrow(address,uint256,uint256,uint256)": {
        "notice": "Event emitted when underlying is borrowed"
      },
      "LiquidateBorrow(address,address,uint256,address,uint256)": {
        "notice": "Event emitted when a borrow is liquidated"
      },
      "Mint(address,uint256,uint256)": {
        "notice": "Event emitted when tokens are minted"
      },
      "NewAdminFee(uint256,uint256)": {
        "notice": "Event emitted when the admin fee is changed"
      },
      "NewIonicFee(uint256,uint256)": {
        "notice": "Event emitted when the Ionic fee is changed"
      },
      "NewMarketInterestRateModel(address,address)": {
        "notice": "Event emitted when interestRateModel is changed"
      },
      "NewReserveFactor(uint256,uint256)": {
        "notice": "Event emitted when the reserve factor is changed"
      },
      "Redeem(address,uint256,uint256)": {
        "notice": "Event emitted when tokens are redeemed"
      },
      "RepayBorrow(address,address,uint256,uint256,uint256)": {
        "notice": "Event emitted when a borrow is repaid"
      },
      "ReservesAdded(address,uint256,uint256)": {
        "notice": "Event emitted when the reserves are added"
      },
      "ReservesReduced(address,uint256,uint256)": {
        "notice": "Event emitted when the reserves are reduced"
      },
      "Transfer(address,address,uint256)": {
        "notice": "EIP20 Transfer event"
      }
    },
    "kind": "user",
    "methods": {
      "_becomeImplementation(bytes)": {
        "notice": "Called by the delegator on a delegate to initialize it for duty"
      },
      "accrualBlockNumber()": {
        "notice": "Block number that interest was last accrued at"
      },
      "adminFeeMantissa()": {
        "notice": "Fraction of interest currently set aside for admin fees"
      },
      "ap()": {
        "notice": "Addresses Provider"
      },
      "borrow(uint256)": {
        "notice": "Sender borrows assets from the protocol to their own address"
      },
      "borrowIndex()": {
        "notice": "Accumulator of the total earned interest rate since the opening of the market"
      },
      "comptroller()": {
        "notice": "Contract which oversees inter-cToken operations"
      },
      "decimals()": {
        "notice": "EIP-20 token decimals for this token"
      },
      "getCash()": {
        "notice": "Get cash balance of this cToken in the underlying asset"
      },
      "interestRateModel()": {
        "notice": "Model which tells what the current interest rate should be"
      },
      "ionicFeeMantissa()": {
        "notice": "Fraction of interest currently set aside for Ionic fees"
      },
      "liquidateBorrow(address,uint256,address)": {
        "notice": "The sender liquidates the borrowers collateral.  The collateral seized is transferred to the liquidator."
      },
      "mint(uint256)": {
        "notice": "Sender supplies assets into the market and receives cTokens in exchange"
      },
      "name()": {
        "notice": "EIP-20 token name for this token"
      },
      "previewDeposit(uint256)": {
        "notice": "Simulate the effects of a deposit at the current block, given current on-chain conditions."
      },
      "previewRedeem(uint256)": {
        "notice": "Simulate the effects of a redemption at the current block, given current on-chain conditions."
      },
      "redeem(uint256)": {
        "notice": "Sender redeems cTokens in exchange for the underlying asset"
      },
      "redeemUnderlying(uint256)": {
        "notice": "Sender redeems cTokens in exchange for a specified amount of underlying asset"
      },
      "repayBorrow(uint256)": {
        "notice": "Sender repays their own borrow"
      },
      "repayBorrowBehalf(address,uint256)": {
        "notice": "Sender repays a borrow belonging to borrower"
      },
      "reserveFactorMantissa()": {
        "notice": "Fraction of interest currently set aside for reserves"
      },
      "seize(address,address,uint256)": {
        "notice": "Transfers collateral tokens (this market) to the liquidator."
      },
      "symbol()": {
        "notice": "EIP-20 token symbol for this token"
      },
      "totalAdminFees()": {
        "notice": "Total amount of admin fees of the underlying held in this market"
      },
      "totalBorrows()": {
        "notice": "Total amount of outstanding borrows of the underlying in this market"
      },
      "totalIonicFees()": {
        "notice": "Total amount of Ionic fees of the underlying held in this market"
      },
      "totalReserves()": {
        "notice": "Total amount of reserves of the underlying held in this market"
      },
      "totalSupply()": {
        "notice": "Total number of tokens in circulation"
      },
      "underlying()": {
        "notice": "Underlying asset for this CToken"
      }
    },
    "notice": "CTokens which wrap an EIP-20 underlying and are delegated to",
    "version": 1
  },
  "storageLayout": {
    "storage": [
      {
        "astId": 20107,
        "contract": "contracts/compound/CErc20Delegate.sol:CErc20Delegate",
        "label": "ionicAdmin",
        "offset": 0,
        "slot": "0",
        "type": "t_address_payable"
      },
      {
        "astId": 20113,
        "contract": "contracts/compound/CErc20Delegate.sol:CErc20Delegate",
        "label": "_notEntered",
        "offset": 20,
        "slot": "0",
        "type": "t_bool"
      },
      {
        "astId": 20116,
        "contract": "contracts/compound/CErc20Delegate.sol:CErc20Delegate",
        "label": "name",
        "offset": 0,
        "slot": "1",
        "type": "t_string_storage"
      },
      {
        "astId": 20119,
        "contract": "contracts/compound/CErc20Delegate.sol:CErc20Delegate",
        "label": "symbol",
        "offset": 0,
        "slot": "2",
        "type": "t_string_storage"
      },
      {
        "astId": 20122,
        "contract": "contracts/compound/CErc20Delegate.sol:CErc20Delegate",
        "label": "decimals",
        "offset": 0,
        "slot": "3",
        "type": "t_uint8"
      },
      {
        "astId": 20132,
        "contract": "contracts/compound/CErc20Delegate.sol:CErc20Delegate",
        "label": "comptroller",
        "offset": 1,
        "slot": "3",
        "type": "t_contract(IonicComptroller)27776"
      },
      {
        "astId": 20136,
        "contract": "contracts/compound/CErc20Delegate.sol:CErc20Delegate",
        "label": "interestRateModel",
        "offset": 0,
        "slot": "4",
        "type": "t_contract(InterestRateModel)30437"
      },
      {
        "astId": 20138,
        "contract": "contracts/compound/CErc20Delegate.sol:CErc20Delegate",
        "label": "initialExchangeRateMantissa",
        "offset": 0,
        "slot": "5",
        "type": "t_uint256"
      },
      {
        "astId": 20141,
        "contract": "contracts/compound/CErc20Delegate.sol:CErc20Delegate",
        "label": "adminFeeMantissa",
        "offset": 0,
        "slot": "6",
        "type": "t_uint256"
      },
      {
        "astId": 20144,
        "contract": "contracts/compound/CErc20Delegate.sol:CErc20Delegate",
        "label": "ionicFeeMantissa",
        "offset": 0,
        "slot": "7",
        "type": "t_uint256"
      },
      {
        "astId": 20147,
        "contract": "contracts/compound/CErc20Delegate.sol:CErc20Delegate",
        "label": "reserveFactorMantissa",
        "offset": 0,
        "slot": "8",
        "type": "t_uint256"
      },
      {
        "astId": 20150,
        "contract": "contracts/compound/CErc20Delegate.sol:CErc20Delegate",
        "label": "accrualBlockNumber",
        "offset": 0,
        "slot": "9",
        "type": "t_uint256"
      },
      {
        "astId": 20153,
        "contract": "contracts/compound/CErc20Delegate.sol:CErc20Delegate",
        "label": "borrowIndex",
        "offset": 0,
        "slot": "10",
        "type": "t_uint256"
      },
      {
        "astId": 20156,
        "contract": "contracts/compound/CErc20Delegate.sol:CErc20Delegate",
        "label": "totalBorrows",
        "offset": 0,
        "slot": "11",
        "type": "t_uint256"
      },
      {
        "astId": 20159,
        "contract": "contracts/compound/CErc20Delegate.sol:CErc20Delegate",
        "label": "totalReserves",
        "offset": 0,
        "slot": "12",
        "type": "t_uint256"
      },
      {
        "astId": 20162,
        "contract": "contracts/compound/CErc20Delegate.sol:CErc20Delegate",
        "label": "totalAdminFees",
        "offset": 0,
        "slot": "13",
        "type": "t_uint256"
      },
      {
        "astId": 20165,
        "contract": "contracts/compound/CErc20Delegate.sol:CErc20Delegate",
        "label": "totalIonicFees",
        "offset": 0,
        "slot": "14",
        "type": "t_uint256"
      },
      {
        "astId": 20168,
        "contract": "contracts/compound/CErc20Delegate.sol:CErc20Delegate",
        "label": "totalSupply",
        "offset": 0,
        "slot": "15",
        "type": "t_uint256"
      },
      {
        "astId": 20172,
        "contract": "contracts/compound/CErc20Delegate.sol:CErc20Delegate",
        "label": "accountTokens",
        "offset": 0,
        "slot": "16",
        "type": "t_mapping(t_address,t_uint256)"
      },
      {
        "astId": 20178,
        "contract": "contracts/compound/CErc20Delegate.sol:CErc20Delegate",
        "label": "transferAllowances",
        "offset": 0,
        "slot": "17",
        "type": "t_mapping(t_address,t_mapping(t_address,t_uint256))"
      },
      {
        "astId": 20189,
        "contract": "contracts/compound/CErc20Delegate.sol:CErc20Delegate",
        "label": "accountBorrows",
        "offset": 0,
        "slot": "18",
        "type": "t_mapping(t_address,t_struct(BorrowSnapshot)20184_storage)"
      },
      {
        "astId": 20198,
        "contract": "contracts/compound/CErc20Delegate.sol:CErc20Delegate",
        "label": "underlying",
        "offset": 0,
        "slot": "19",
        "type": "t_address"
      },
      {
        "astId": 20202,
        "contract": "contracts/compound/CErc20Delegate.sol:CErc20Delegate",
        "label": "ap",
        "offset": 0,
        "slot": "20",
        "type": "t_contract(AddressesProvider)44683"
      }
    ],
    "types": {
      "t_address": {
        "encoding": "inplace",
        "label": "address",
        "numberOfBytes": "20"
      },
      "t_address_payable": {
        "encoding": "inplace",
        "label": "address payable",
        "numberOfBytes": "20"
      },
      "t_bool": {
        "encoding": "inplace",
        "label": "bool",
        "numberOfBytes": "1"
      },
      "t_contract(AddressesProvider)44683": {
        "encoding": "inplace",
        "label": "contract AddressesProvider",
        "numberOfBytes": "20"
      },
      "t_contract(InterestRateModel)30437": {
        "encoding": "inplace",
        "label": "contract InterestRateModel",
        "numberOfBytes": "20"
      },
      "t_contract(IonicComptroller)27776": {
        "encoding": "inplace",
        "label": "contract IonicComptroller",
        "numberOfBytes": "20"
      },
      "t_mapping(t_address,t_mapping(t_address,t_uint256))": {
        "encoding": "mapping",
        "key": "t_address",
        "label": "mapping(address => mapping(address => uint256))",
        "numberOfBytes": "32",
        "value": "t_mapping(t_address,t_uint256)"
      },
      "t_mapping(t_address,t_struct(BorrowSnapshot)20184_storage)": {
        "encoding": "mapping",
        "key": "t_address",
        "label": "mapping(address => struct CErc20Storage.BorrowSnapshot)",
        "numberOfBytes": "32",
        "value": "t_struct(BorrowSnapshot)20184_storage"
      },
      "t_mapping(t_address,t_uint256)": {
        "encoding": "mapping",
        "key": "t_address",
        "label": "mapping(address => uint256)",
        "numberOfBytes": "32",
        "value": "t_uint256"
      },
      "t_string_storage": {
        "encoding": "bytes",
        "label": "string",
        "numberOfBytes": "32"
      },
      "t_struct(BorrowSnapshot)20184_storage": {
        "encoding": "inplace",
        "label": "struct CErc20Storage.BorrowSnapshot",
        "members": [
          {
            "astId": 20181,
            "contract": "contracts/compound/CErc20Delegate.sol:CErc20Delegate",
            "label": "principal",
            "offset": 0,
            "slot": "0",
            "type": "t_uint256"
          },
          {
            "astId": 20183,
            "contract": "contracts/compound/CErc20Delegate.sol:CErc20Delegate",
            "label": "interestIndex",
            "offset": 0,
            "slot": "1",
            "type": "t_uint256"
          }
        ],
        "numberOfBytes": "64"
      },
      "t_uint256": {
        "encoding": "inplace",
        "label": "uint256",
        "numberOfBytes": "32"
      },
      "t_uint8": {
        "encoding": "inplace",
        "label": "uint8",
        "numberOfBytes": "1"
      }
    }
  }
}