{
  "address": "0x84B257bfb0c5b46f024Ab318F93dc0E3e1F236e9",
  "abi": [
    {
      "anonymous": false,
      "inputs": [
        {
          "indexed": false,
          "internalType": "uint8",
          "name": "version",
          "type": "uint8"
        }
      ],
      "name": "Initialized",
      "type": "event"
    },
    {
      "anonymous": false,
      "inputs": [
        {
          "indexed": true,
          "internalType": "address",
          "name": "previousOwner",
          "type": "address"
        },
        {
          "indexed": true,
          "internalType": "address",
          "name": "newOwner",
          "type": "address"
        }
      ],
      "name": "OwnershipTransferred",
      "type": "event"
    },
    {
      "anonymous": false,
      "inputs": [
        {
          "indexed": false,
          "internalType": "address",
          "name": "sender",
          "type": "address"
        },
        {
          "indexed": false,
          "internalType": "uint256",
          "name": "amount",
          "type": "uint256"
        },
        {
          "indexed": false,
          "internalType": "bytes",
          "name": "permissionKey",
          "type": "bytes"
        }
      ],
      "name": "VaultReceivedETH",
      "type": "event"
    },
    {
      "inputs": [],
      "name": "UNISWAP_V2_ROUTER_02",
      "outputs": [
        {
          "internalType": "contract IUniswapV2Router02",
          "name": "",
          "type": "address"
        }
      ],
      "stateMutability": "view",
      "type": "function"
    },
    {
      "inputs": [],
      "name": "W_NATIVE_ADDRESS",
      "outputs": [
        {
          "internalType": "address",
          "name": "",
          "type": "address"
        }
      ],
      "stateMutability": "view",
      "type": "function"
    },
    {
      "inputs": [
        {
          "internalType": "bytes",
          "name": "data",
          "type": "bytes"
        }
      ],
      "name": "_becomeImplementation",
      "outputs": [],
      "stateMutability": "nonpayable",
      "type": "function"
    },
    {
      "inputs": [
        {
          "internalType": "contract IRedemptionStrategy[]",
          "name": "strategies",
          "type": "address[]"
        },
        {
          "internalType": "bool[]",
          "name": "whitelisted",
          "type": "bool[]"
        }
      ],
      "name": "_whitelistRedemptionStrategies",
      "outputs": [],
      "stateMutability": "nonpayable",
      "type": "function"
    },
    {
      "inputs": [
        {
          "internalType": "contract IRedemptionStrategy",
          "name": "strategy",
          "type": "address"
        },
        {
          "internalType": "bool",
          "name": "whitelisted",
          "type": "bool"
        }
      ],
      "name": "_whitelistRedemptionStrategy",
      "outputs": [],
      "stateMutability": "nonpayable",
      "type": "function"
    },
    {
      "inputs": [],
      "name": "expressRelay",
      "outputs": [
        {
          "internalType": "contract IExpressRelay",
          "name": "",
          "type": "address"
        }
      ],
      "stateMutability": "view",
      "type": "function"
    },
    {
      "inputs": [],
      "name": "flashSwapFee",
      "outputs": [
        {
          "internalType": "uint8",
          "name": "",
          "type": "uint8"
        }
      ],
      "stateMutability": "view",
      "type": "function"
    },
    {
      "inputs": [],
      "name": "healthFactorThreshold",
      "outputs": [
        {
          "internalType": "uint256",
          "name": "",
          "type": "uint256"
        }
      ],
      "stateMutability": "view",
      "type": "function"
    },
    {
      "inputs": [
        {
          "internalType": "address",
          "name": "_wtoken",
          "type": "address"
        },
        {
          "internalType": "address",
          "name": "_uniswapV2router",
          "type": "address"
        },
        {
          "internalType": "uint8",
          "name": "_flashSwapFee",
          "type": "uint8"
        }
      ],
      "name": "initialize",
      "outputs": [],
      "stateMutability": "nonpayable",
      "type": "function"
    },
    {
      "inputs": [],
      "name": "lens",
      "outputs": [
        {
          "internalType": "contract PoolLens",
          "name": "",
          "type": "address"
        }
      ],
      "stateMutability": "view",
      "type": "function"
    },
    {
      "inputs": [
        {
          "internalType": "address",
          "name": "sender",
          "type": "address"
        },
        {
          "internalType": "uint256",
          "name": "amount0",
          "type": "uint256"
        },
        {
          "internalType": "uint256",
          "name": "amount1",
          "type": "uint256"
        },
        {
          "internalType": "bytes",
          "name": "data",
          "type": "bytes"
        }
      ],
      "name": "moraswapCall",
      "outputs": [],
      "stateMutability": "nonpayable",
      "type": "function"
    },
    {
      "inputs": [],
      "name": "owner",
      "outputs": [
        {
          "internalType": "address",
          "name": "",
          "type": "address"
        }
      ],
      "stateMutability": "view",
      "type": "function"
    },
    {
      "inputs": [
        {
          "internalType": "address",
          "name": "sender",
          "type": "address"
        },
        {
          "internalType": "uint256",
          "name": "amount0",
          "type": "uint256"
        },
        {
          "internalType": "uint256",
          "name": "amount1",
          "type": "uint256"
        },
        {
          "internalType": "bytes",
          "name": "data",
          "type": "bytes"
        }
      ],
      "name": "pancakeCall",
      "outputs": [],
      "stateMutability": "nonpayable",
      "type": "function"
    },
    {
      "inputs": [
        {
          "internalType": "bytes",
          "name": "permissionKey",
          "type": "bytes"
        }
      ],
      "name": "receiveAuctionProceedings",
      "outputs": [],
      "stateMutability": "payable",
      "type": "function"
    },
    {
      "inputs": [
        {
          "internalType": "address",
          "name": "",
          "type": "address"
        }
      ],
      "name": "redemptionStrategiesWhitelist",
      "outputs": [
        {
          "internalType": "bool",
          "name": "",
          "type": "bool"
        }
      ],
      "stateMutability": "view",
      "type": "function"
    },
    {
      "inputs": [],
      "name": "renounceOwnership",
      "outputs": [],
      "stateMutability": "nonpayable",
      "type": "function"
    },
    {
      "inputs": [
        {
          "internalType": "address",
          "name": "borrower",
          "type": "address"
        },
        {
          "internalType": "uint256",
          "name": "repayAmount",
          "type": "uint256"
        },
        {
          "internalType": "contract ICErc20",
          "name": "cErc20",
          "type": "address"
        },
        {
          "internalType": "contract ICErc20",
          "name": "cTokenCollateral",
          "type": "address"
        },
        {
          "internalType": "uint256",
          "name": "minOutputAmount",
          "type": "uint256"
        }
      ],
      "name": "safeLiquidate",
      "outputs": [
        {
          "internalType": "uint256",
          "name": "",
          "type": "uint256"
        }
      ],
      "stateMutability": "nonpayable",
      "type": "function"
    },
    {
      "inputs": [
        {
          "internalType": "address",
          "name": "borrower",
          "type": "address"
        },
        {
          "internalType": "uint256",
          "name": "repayAmount",
          "type": "uint256"
        },
        {
          "internalType": "contract ICErc20",
          "name": "cErc20",
          "type": "address"
        },
        {
          "internalType": "contract ICErc20",
          "name": "cTokenCollateral",
          "type": "address"
        },
        {
          "internalType": "uint256",
          "name": "minOutputAmount",
          "type": "uint256"
        }
      ],
      "name": "safeLiquidatePyth",
      "outputs": [
        {
          "internalType": "uint256",
          "name": "",
          "type": "uint256"
        }
      ],
      "stateMutability": "nonpayable",
      "type": "function"
    },
    {
      "inputs": [
        {
          "components": [
            {
              "internalType": "address",
              "name": "borrower",
              "type": "address"
            },
            {
              "internalType": "uint256",
              "name": "repayAmount",
              "type": "uint256"
            },
            {
              "internalType": "contract ICErc20",
              "name": "cErc20",
              "type": "address"
            },
            {
              "internalType": "contract ICErc20",
              "name": "cTokenCollateral",
              "type": "address"
            },
            {
              "internalType": "address",
              "name": "flashSwapContract",
              "type": "address"
            },
            {
              "internalType": "uint256",
              "name": "minProfitAmount",
              "type": "uint256"
            },
            {
              "internalType": "contract IRedemptionStrategy[]",
              "name": "redemptionStrategies",
              "type": "address[]"
            },
            {
              "internalType": "bytes[]",
              "name": "strategyData",
              "type": "bytes[]"
            },
            {
              "internalType": "contract IFundsConversionStrategy[]",
              "name": "debtFundingStrategies",
              "type": "address[]"
            },
            {
              "internalType": "bytes[]",
              "name": "debtFundingStrategiesData",
              "type": "bytes[]"
            }
          ],
          "internalType": "struct ILiquidator.LiquidateToTokensWithFlashSwapVars",
          "name": "vars",
          "type": "tuple"
        }
      ],
      "name": "safeLiquidateToTokensWithFlashLoan",
      "outputs": [
        {
          "internalType": "uint256",
          "name": "",
          "type": "uint256"
        }
      ],
      "stateMutability": "nonpayable",
      "type": "function"
    },
    {
      "inputs": [
        {
          "internalType": "address",
          "name": "_expressRelay",
          "type": "address"
        }
      ],
      "name": "setExpressRelay",
      "outputs": [],
      "stateMutability": "nonpayable",
      "type": "function"
    },
    {
      "inputs": [
        {
          "internalType": "uint256",
          "name": "_healthFactorThreshold",
          "type": "uint256"
        }
      ],
      "name": "setHealthFactorThreshold",
      "outputs": [],
      "stateMutability": "nonpayable",
      "type": "function"
    },
    {
      "inputs": [
        {
          "internalType": "address",
          "name": "_poolLens",
          "type": "address"
        }
      ],
      "name": "setPoolLens",
      "outputs": [],
      "stateMutability": "nonpayable",
      "type": "function"
    },
    {
      "inputs": [
        {
          "internalType": "address",
          "name": "newOwner",
          "type": "address"
        }
      ],
      "name": "transferOwnership",
      "outputs": [],
      "stateMutability": "nonpayable",
      "type": "function"
    },
    {
      "inputs": [
        {
          "internalType": "address",
          "name": "",
          "type": "address"
        },
        {
          "internalType": "uint256",
          "name": "",
          "type": "uint256"
        },
        {
          "internalType": "uint256",
          "name": "",
          "type": "uint256"
        },
        {
          "internalType": "bytes",
          "name": "data",
          "type": "bytes"
        }
      ],
      "name": "uniswapV2Call",
      "outputs": [],
      "stateMutability": "nonpayable",
      "type": "function"
    },
    {
      "inputs": [],
      "name": "withdrawAll",
      "outputs": [],
      "stateMutability": "nonpayable",
      "type": "function"
    },
    {
      "stateMutability": "payable",
      "type": "receive"
    }
  ],
  "transactionHash": "0x17f62a79e40c805312cf8f288712f0fd91dcd624dc7424675ad1fc6f423f83cb",
  "args": [],
  "numDeployments": 2,
  "solcInputHash": "0f216c69ca7d69b5e67c1cffac004e22",
  "bytecode": "0x608060405234801561001057600080fd5b50613d3d806100206000396000f3fe60806040526004361061016a5760003560e01c8063715018a6116100d15780638a0b90901161008a578063c2ebfdc111610064578063c2ebfdc114610471578063c92cb8cc146104a4578063f2fde38b146104c4578063fced7081146104e457600080fd5b80638a0b9090146104135780638da5cb5b14610433578063ba8bca5a1461045157600080fd5b8063715018a61461038957806373ed86531461039e57806381738f13146103be578063848008121461039e578063853828b6146103de57806389232a00146103f357600080fd5b80632c89aa2e116101235780632c89aa2e146102b457806355e9e8fe146102ca57806356e67728146102ea5780635a431365146103095780635b672371146103295780636f6c04471461036957600080fd5b8063030e47df146101c95780630add23ea146101e957806310d1e85c14610209578063112666b71461022957806320b723251461026657806329f269f41461029457600080fd5b366101c457333b6101c25760405162461bcd60e51b815260206004820152601960248201527f53656e646572206973206e6f74206120636f6e74726163742e0000000000000060448201526064015b60405180910390fd5b005b600080fd5b3480156101d557600080fd5b506101c26101e4366004613077565b6104f7565b3480156101f557600080fd5b506101c2610204366004613094565b610521565b34801561021557600080fd5b506101c26102243660046130ee565b610586565b34801561023557600080fd5b50606c54610249906001600160a01b031681565b6040516001600160a01b0390911681526020015b60405180910390f35b34801561027257600080fd5b50610286610281366004613157565b6105d5565b60405190815260200161025d565b3480156102a057600080fd5b506101c26102af366004613077565b61070e565b3480156102c057600080fd5b50610286606d5481565b3480156102d657600080fd5b506102866102e53660046131b2565b610738565b3480156102f657600080fd5b506101c26103053660046131ed565b5050565b34801561031557600080fd5b506101c261032436600461323c565b610cb2565b34801561033557600080fd5b50610359610344366004613077565b60686020526000908152604090205460ff1681565b604051901515815260200161025d565b34801561037557600080fd5b50606b54610249906001600160a01b031681565b34801561039557600080fd5b506101c2610ce5565b3480156103aa57600080fd5b506101c26103b93660046130ee565b610cf9565b3480156103ca57600080fd5b50606554610249906001600160a01b031681565b3480156103ea57600080fd5b506101c2610d0d565b3480156103ff57600080fd5b506101c261040e366004613275565b610df2565b34801561041f57600080fd5b506101c261042e36600461330a565b610fa6565b34801561043f57600080fd5b506033546001600160a01b0316610249565b34801561045d57600080fd5b50606654610249906001600160a01b031681565b34801561047d57600080fd5b50606a5461049290600160a01b900460ff1681565b60405160ff909116815260200161025d565b3480156104b057600080fd5b506102866104bf366004613157565b6110bb565b3480156104d057600080fd5b506101c26104df366004613077565b6111a6565b6101c26104f23660046131ed565b61121f565b6104ff611260565b606b80546001600160a01b0319166001600160a01b0392909216919091179055565b610529611260565b670de0b6b3a76400008111156105815760405162461bcd60e51b815260206004820152601f60248201527f496e76616c6964204865616c746820466163746f72205468726573686f6c640060448201526064016101b9565b606d55565b60006105958260048186613375565b8101906105a2919061358d565b90506105ad816112ba565b606780546001600160a01b0319166001600160a01b0392909216919091179055505050505050565b600085836000606c60009054906101000a90046001600160a01b03166001600160a01b03166357c89a7d84846001600160a01b0316635fe3b5676040518163ffffffff1660e01b8152600401602060405180830381865afa15801561063e573d6000803e3d6000fd5b505050506040513d601f19601f8201168201806040525081019061066291906136c4565b6040516001600160e01b031960e085901b1681526001600160a01b03928316600482015291166024820152604401602060405180830381865afa1580156106ad573d6000803e3d6000fd5b505050506040513d601f19601f820116820180604052508101906106d191906136e1565b9050606d5481106106f45760405162461bcd60e51b81526004016101b9906136fa565b6107018989898989611704565b9998505050505050505050565b610716611260565b606c80546001600160a01b0319166001600160a01b0392909216919091179055565b60006107476020830183613077565b6107576080840160608501613077565b6000606c60009054906101000a90046001600160a01b03166001600160a01b03166357c89a7d84846001600160a01b0316635fe3b5676040518163ffffffff1660e01b8152600401602060405180830381865afa1580156107bc573d6000803e3d6000fd5b505050506040513d601f19601f820116820180604052508101906107e091906136c4565b6040516001600160e01b031960e085901b1681526001600160a01b03928316600482015291166024820152604401602060405180830381865afa15801561082b573d6000803e3d6000fd5b505050506040513d601f19601f8201168201806040525081019061084f91906136e1565b9050606d5481106108725760405162461bcd60e51b81526004016101b9906136fa565b60008560200135116108d25760405162461bcd60e51b8152602060048201526024808201527f526570617920616d6f756e74206d7573742062652067726561746572207468616044820152633710181760e11b60648201526084016101b9565b60208501356000806108e861010089018961373f565b90501115610af3576108fe61012088018861373f565b905061090e61010089018961373f565b9050146109b85760405162461bcd60e51b815260206004820152606660248201527f46756e64696e67204946756e6473436f6e76657273696f6e537472617465677960448201527f20636f6e747261637420617272617920616e642073747261746567792064617460648201527f61206279746573206172726179206d757374206265207468652073616d65206c60848201526532b733ba341760d11b60a482015260c4016101b9565b60005b6109c961010089018961373f565b9050811015610aed5760006109e26101208a018a61373f565b838181106109f2576109f2613788565b9050602002810190610a04919061379e565b8080601f0160208091040260200160405190810160405280939291908181526020018383808284376000920182905250939450610a49925050506101008b018b61373f565b84818110610a5957610a59613788565b9050602002016020810190610a6e9190613077565b60405163180994cb60e11b81529091506001600160a01b03821690633013299690610a9f9088908690600401613834565b6040805180830381865afa158015610abb573d6000803e3d6000fd5b505050506040513d601f19601f82011682018060405250810190610adf919061384d565b9550935050506001016109bb565b50610b67565b610b036060880160408901613077565b6001600160a01b0316636f307dc36040518163ffffffff1660e01b8152600401602060405180830381865afa158015610b40573d6000803e3d6000fd5b505050506040513d601f19601f82011682018060405250810190610b6491906136c4565b90505b6069829055606a80546001600160a01b0319166001600160a01b0383161790556000610b9960a0890160808a01613077565b90506000826001600160a01b0316826001600160a01b0316630dfe16816040518163ffffffff1660e01b8152600401602060405180830381865afa158015610be5573d6000803e3d6000fd5b505050506040513d601f19601f82011682018060405250810190610c0991906136c4565b6001600160a01b0316149050816001600160a01b031663022c0d9f82610c30576000610c32565b855b8315610c3f576000610c41565b865b306000366040518663ffffffff1660e01b8152600401610c659594939291906138a4565b600060405180830381600087803b158015610c7f57600080fd5b505af1158015610c93573d6000803e3d6000fd5b505060675461070192506001600160a01b0316905060a08b0135611a66565b610cba611260565b6001600160a01b03919091166000908152606860205260409020805460ff1916911515919091179055565b610ced611260565b610cf76000611b5d565b565b610d068585858585610586565b5050505050565b610d15611260565b4780610d635760405162461bcd60e51b815260206004820152601960248201527f4e6f204574686572206c65667420746f2077697468647261770000000000000060448201526064016101b9565b604051600090339083908381818185875af1925050503d8060008114610da5576040519150601f19603f3d011682016040523d82523d6000602084013e610daa565b606091505b50509050806103055760405162461bcd60e51b81526020600482015260146024820152732330b4b632b2103a379039b2b7321022ba3432b960611b60448201526064016101b9565b600054610100900460ff1615808015610e125750600054600160ff909116105b80610e2c5750303b158015610e2c575060005460ff166001145b610e8f5760405162461bcd60e51b815260206004820152602e60248201527f496e697469616c697a61626c653a20636f6e747261637420697320616c72656160448201526d191e481a5b9a5d1a585b1a5e995960921b60648201526084016101b9565b6000805460ff191660011790558015610eb2576000805461ff0019166101001790555b610eba611baf565b6001600160a01b038316610f105760405162461bcd60e51b815260206004820152601d60248201527f5f756e69737761705632726f75746572206e6f7420646566696e65642e00000060448201526064016101b9565b606580546001600160a01b038087166001600160a01b0319928316179092556066805492861692909116919091179055606a805460ff8416600160a01b0260ff60a01b199091161790558015610fa0576000805461ff0019169055604051600181527f7f26b83ff96e1f2b6a682f133852f6798a09c465da95921460cefb38474024989060200160405180910390a15b50505050565b610fae611260565b8215801590610fbc57508281145b61102e5760405162461bcd60e51b815260206004820152603f60248201527f6c697374206f66207374726174656769657320656d707479206f72207768697460448201527f656c69737420646f6573206e6f74206d6174636820697473206c656e6774680060648201526084016101b9565b60005b83811015610d065782828281811061104b5761104b613788565b905060200201602081019061106091906138d2565b6068600087878581811061107657611076613788565b905060200201602081019061108b9190613077565b6001600160a01b031681526020810191909152604001600020805460ff1916911515919091179055600101611031565b606b54604080516001600160a01b038881166020830152600093169163403e96f6913091016040516020818303038152906040526040518363ffffffff1660e01b815260040161110c9291906138ef565b602060405180830381865afa158015611129573d6000803e3d6000fd5b505050506040513d601f19601f8201168201806040525081019061114d9190613913565b61118f5760405162461bcd60e51b815260206004820152601360248201527234b73b30b634b2103634b8bab4b230ba34b7b760691b60448201526064016101b9565b61119c8686868686611704565b9695505050505050565b6111ae611260565b6001600160a01b0381166112135760405162461bcd60e51b815260206004820152602660248201527f4f776e61626c653a206e6577206f776e657220697320746865207a65726f206160448201526564647265737360d01b60648201526084016101b9565b61121c81611b5d565b50565b7f373bc109b9e1d2a0702bd463de500dfec960521e4498acc170fd65867e46041c333484846040516112549493929190613930565b60405180910390a15050565b6033546001600160a01b03163314610cf75760405162461bcd60e51b815260206004820181905260248201527f4f776e61626c653a2063616c6c6572206973206e6f7420746865206f776e657260448201526064016101b9565b606a54606954610100830151516000926001600160a01b031691901561136157610100840151515b801561135f576113488383876101000151600185611300919061396e565b8151811061131057611310613788565b602002602001015188610120015160018661132b919061396e565b8151811061133b5761133b613788565b6020026020010151611bde565b90935091508061135781613981565b9150506112e2565b505b600084604001516001600160a01b0316636f307dc36040518163ffffffff1660e01b8152600401602060405180830381865afa1580156113a5573d6000803e3d6000fd5b505050506040513d601f19601f820116820180604052508101906113c991906136c4565b9050806001600160a01b0316836001600160a01b0316146114645760405162461bcd60e51b815260206004820152604960248201527f74686520646562742072657061796d656e742066756e64732073686f756c642060448201527f626520636f6e76657274656420746f2074686520756e6465726c79696e67206460648201526832b13a103a37b5b2b760b91b608482015260a4016101b9565b84602001518210156114b85760405162461bcd60e51b815260206004820181905260248201527f646562742072657061796d656e7420616d6f756e74206e6f7420656e6f75676860448201526064016101b9565b6114cb8186604001518760200151611c96565b6040858101518651602088015160608901519351637af1e23160e11b81526001600160a01b03928316600482015260248101919091529281166044840152169063f5e3c462906064016020604051808303816000875af1158015611533573d6000803e3d6000fd5b505050506040513d601f19601f8201168201806040525081019061155791906136e1565b1561159a5760405162461bcd60e51b81526020600482015260136024820152722634b8bab4b230ba34b7b7103330b4b632b21760691b60448201526064016101b9565b60608501516040516370a0823160e01b81523060048201526000916001600160a01b0316906370a0823190602401602060405180830381865afa1580156115e5573d6000803e3d6000fd5b505050506040513d601f19601f8201168201806040525081019061160991906136e1565b9050600081116116505760405162461bcd60e51b815260206004820152601260248201527127379031aa37b5b2b7399039b2b4bd32b21760711b60448201526064016101b9565b606086015160405163db006a7560e01b8152600481018390526000916001600160a01b03169063db006a75906024016020604051808303816000875af115801561169e573d6000803e3d6000fd5b505050506040513d601f19601f820116820180604052508101906116c291906136e1565b905080156116e25760405162461bcd60e51b81526004016101b990613998565b5050506116fc84606001518560c001518660e00151611d09565b949350505050565b600080851161177b5760405162461bcd60e51b815260206004820152603860248201527f526570617920616d6f756e7420287472616e73616374696f6e2076616c75652960448201527f206d7573742062652067726561746572207468616e20302e000000000000000060648201526084016101b9565b6000846001600160a01b0316636f307dc36040518163ffffffff1660e01b8152600401602060405180830381865afa1580156117bb573d6000803e3d6000fd5b505050506040513d601f19601f820116820180604052508101906117df91906136c4565b90506117f66001600160a01b03821633308961261b565b611801818688611c96565b604051637af1e23160e11b81526001600160a01b03888116600483015260248201889052858116604483015286169063f5e3c462906064016020604051808303816000875af1158015611858573d6000803e3d6000fd5b505050506040513d601f19601f8201168201806040525081019061187c91906136e1565b156118bf5760405162461bcd60e51b81526020600482015260136024820152722634b8bab4b230ba34b7b7103330b4b632b21760691b60448201526064016101b9565b6040516370a0823160e01b81523060048201526000906001600160a01b038616906370a0823190602401602060405180830381865afa158015611906573d6000803e3d6000fd5b505050506040513d601f19601f8201168201806040525081019061192a91906136e1565b9050600081116119715760405162461bcd60e51b815260206004820152601260248201527127379031aa37b5b2b7399039b2b4bd32b21760711b60448201526064016101b9565b60405163db006a7560e01b8152600481018290526000906001600160a01b0387169063db006a75906024016020604051808303816000875af11580156119bb573d6000803e3d6000fd5b505050506040513d601f19601f820116820180604052508101906119df91906136e1565b905080156119ff5760405162461bcd60e51b81526004016101b990613998565b610701866001600160a01b0316636f307dc36040518163ffffffff1660e01b8152600401602060405180830381865afa158015611a40573d6000803e3d6000fd5b505050506040513d601f19601f82011682018060405250810190611a6491906136c4565b865b6040516370a0823160e01b8152306004820152600090839082906001600160a01b038316906370a0823190602401602060405180830381865afa158015611ab1573d6000803e3d6000fd5b505050506040513d601f19601f82011682018060405250810190611ad591906136e1565b905083811015611b395760405162461bcd60e51b815260206004820152602960248201527f4d696e696d756d20746f6b656e206f757470757420616d6f756e74206e6f742060448201526839b0ba34b334b2b21760b91b60648201526084016101b9565b8015611b5357611b536001600160a01b0383163383612686565b9150505b92915050565b603380546001600160a01b038381166001600160a01b0319831681179093556040519116919082907f8be0079c531659141344cd1fd0a4f28419497f9722a3daafe3b4186f6b6457e090600090a35050565b600054610100900460ff16611bd65760405162461bcd60e51b81526004016101b9906139f6565b610cf76126bb565b6001600160a01b038216600090815260686020526040812054819060ff16611c185760405162461bcd60e51b81526004016101b990613a41565b6000611c72856389eabf0260e01b898988604051602401611c3b93929190613a93565b60408051601f198184030181529190526020810180516001600160e01b03166001600160e01b0319909316929092179091526126eb565b905080806020019051810190611c88919061384d565b925092505094509492505050565b60405163095ea7b360e01b81526001600160a01b0383811660048301526024820183905284169063095ea7b3906044016020604051808303816000875af1158015611ce5573d6000803e3d6000fd5b505050506040513d601f19601f82011682018060405250810190610fa09190613913565b606a546000908190611d2790600160a01b900460ff16612710613aba565b61ffff16606954612710611d3b9190613adc565b611d459190613b09565b606a54909150600090611d6490600160a01b900460ff16612710613aba565b61ffff16606954612710611d789190613adc565b611d829190613b1d565b1115611d965780611d9281613b31565b9150505b6000856001600160a01b0316636f307dc36040518163ffffffff1660e01b8152600401602060405180830381865afa158015611dd6573d6000803e3d6000fd5b505050506040513d601f19601f82011682018060405250810190611dfa91906136c4565b6040516370a0823160e01b81523060048201529091506000906001600160a01b038316906370a0823190602401602060405180830381865afa158015611e44573d6000803e3d6000fd5b505050506040513d601f19601f82011682018060405250810190611e6891906136e1565b865190915015611f68578451865114611f0f5760405162461bcd60e51b815260206004820152605b60248201527f49526564656d7074696f6e537472617465677920636f6e74726163742061727260448201527f617920616e64207374726174656779206461746120627974657320617272617960648201527f206d6e75737420746865207468652073616d65206c656e6774682e0000000000608482015260a4016101b9565b60005b8651811015611f6657611f598383898481518110611f3257611f32613788565b6020026020010151898581518110611f4c57611f4c613788565b60200260200101516127df565b9093509150600101611f12565b505b6000339050806001600160a01b0316630dfe16816040518163ffffffff1660e01b8152600401602060405180830381865afa158015611fab573d6000803e3d6000fd5b505050506040513d601f19601f82011682018060405250810190611fcf91906136c4565b6001600160a01b0316836001600160a01b031614806120605750806001600160a01b031663d21220a76040518163ffffffff1660e01b8152600401602060405180830381865afa158015612027573d6000803e3d6000fd5b505050506040513d601f19601f8201168201806040525081019061204b91906136c4565b6001600160a01b0316836001600160a01b0316145b1561229557606a546000906001600160a01b039081169085160361208557508361213d565b6066546040805163c45a015560e01b81529051612120926001600160a01b03169163c45a01559160048083019260209291908290030181865afa1580156120d0573d6000803e3d6000fd5b505050506040513d601f19601f820116820180604052508101906120f491906136c4565b606954606a5461210e9088906001600160a01b031661283c565b606a54600160a01b900460ff166128c9565b60008151811061213257612132613788565b602002602001015190505b828111156121b35760405162461bcd60e51b815260206004820152603d60248201527f546f6b656e20666c6173686c6f616e2072657475726e20616d6f756e7420677260448201527f6561746572207468616e207365697a656420636f6c6c61746572616c2e00000060648201526084016101b9565b60405163a9059cbb60e01b8152336004820152602481018290526001600160a01b0385169063a9059cbb906044016020604051808303816000875af1158015612200573d6000803e3d6000fd5b505050506040513d601f19601f820116820180604052508101906122249190613913565b6122885760405162461bcd60e51b815260206004820152602f60248201527f4661696c656420746f20726570617920746f6b656e20666c6173686c6f616e2060448201526e37b7103137b93937bb9039b4b2329760891b60648201526084016101b9565b8395505050505050612614565b606554606a546000916001600160a01b039081169116036122b7575083612361565b6066546040805163c45a015560e01b81529051612344926001600160a01b03169163c45a01559160048083019260209291908290030181865afa158015612302573d6000803e3d6000fd5b505050506040513d601f19601f8201168201806040525081019061232691906136c4565b606554606a54889161210e916001600160a01b03918216911661283c565b60008151811061235657612356613788565b602002602001015190505b6065546001600160a01b038581169116146124215760665461238e9085906001600160a01b031685611c96565b6066546065546001600160a01b0391821691638803dbee91849187916123b6918a911661283c565b30426040518663ffffffff1660e01b81526004016123d8959493929190613b4a565b6000604051808303816000875af11580156123f7573d6000803e3d6000fd5b505050506040513d6000823e601f3d908101601f1916820160405261241f9190810190613bbd565b505b6065546040516370a0823160e01b81523060048201526001600160a01b03909116906370a0823190602401602060405180830381865afa158015612469573d6000803e3d6000fd5b505050506040513d601f19601f8201168201806040525081019061248d91906136e1565b8111156125135760405162461bcd60e51b815260206004820152604860248201527f4e6f7420656e6f75676820575f4e41544956452065786368616e67656420667260448201527f6f6d207365697a656420636f6c6c61746572616c20746f20726570617920666c60648201526730b9b43637b0b71760c11b608482015260a4016101b9565b60655460405163a9059cbb60e01b8152336004820152602481018390526001600160a01b039091169063a9059cbb906044016020604051808303816000875af1158015612564573d6000803e3d6000fd5b505050506040513d601f19601f820116820180604052508101906125889190613913565b6122885760405162461bcd60e51b815260206004820152605160248201527f4661696c656420746f20726570617920556e697377617020666c6173686c6f6160448201527f6e207769746820575f4e41544956452065786368616e6765642066726f6d207360648201527032b4bd32b21031b7b63630ba32b930b61760791b608482015260a4016101b9565b9392505050565b6040516001600160a01b0380851660248301528316604482015260648101829052610fa09085906323b872dd60e01b906084015b60408051601f198184030181529190526020810180516001600160e01b03166001600160e01b031990931692909217909152612a60565b6040516001600160a01b0383166024820152604481018290526126b690849063a9059cbb60e01b9060640161264f565b505050565b600054610100900460ff166126e25760405162461bcd60e51b81526004016101b9906139f6565b610cf733611b5d565b60606001600160a01b0383163b6127535760405162461bcd60e51b815260206004820152602660248201527f416464726573733a2064656c65676174652063616c6c20746f206e6f6e2d636f6044820152651b9d1c9858dd60d21b60648201526084016101b9565b600080846001600160a01b03168460405161276e9190613c42565b600060405180830381855af49150503d80600081146127a9576040519150601f19603f3d011682016040523d82523d6000602084013e6127ae565b606091505b50915091506127d68282604051806060016040528060278152602001613ce160279139612b32565b95945050505050565b6001600160a01b038216600090815260686020526040812054819060ff166128195760405162461bcd60e51b81526004016101b990613a41565b6000611c72856310badf4e60e01b898988604051602401611c3b93929190613a93565b60408051600280825260608083018452926000929190602083019080368337019050509050838160008151811061287557612875613788565b60200260200101906001600160a01b031690816001600160a01b03168152505082816001815181106128a9576128a9613788565b6001600160a01b0390921660209283029190910190910152905092915050565b606060028351101561291d5760405162461bcd60e51b815260206004820152601e60248201527f556e697377617056324c6962726172793a20494e56414c49445f50415448000060448201526064016101b9565b82516001600160401b038111156129365761293661339f565b60405190808252806020026020018201604052801561295f578160200160208202803683370190505b509050838160018351612972919061396e565b8151811061298257612982613788565b60200260200101818152505060006001845161299e919061396e565b90505b8015612a57576000806129f188876129ba60018761396e565b815181106129ca576129ca613788565b60200260200101518886815181106129e4576129e4613788565b6020026020010151612b6b565b91509150612a1a848481518110612a0a57612a0a613788565b6020026020010151838388612c35565b84612a2660018661396e565b81518110612a3657612a36613788565b60200260200101818152505050508080612a4f90613981565b9150506129a1565b50949350505050565b6000612ab5826040518060400160405280602081526020017f5361666545524332303a206c6f772d6c6576656c2063616c6c206661696c6564815250856001600160a01b0316612d6d9092919063ffffffff16565b8051909150156126b65780806020019051810190612ad39190613913565b6126b65760405162461bcd60e51b815260206004820152602a60248201527f5361666545524332303a204552433230206f7065726174696f6e20646964206e6044820152691bdd081cdd58d8d9595960b21b60648201526084016101b9565b60608315612b41575081612614565b825115612b515782518084602001fd5b8160405162461bcd60e51b81526004016101b99190613c5e565b6000806000612b7a8585612d7c565b509050600080612b8b888888612e73565b6001600160a01b0316630902f1ac6040518163ffffffff1660e01b8152600401606060405180830381865afa158015612bc8573d6000803e3d6000fd5b505050506040513d601f19601f82011682018060405250810190612bec9190613c88565b506001600160701b031691506001600160701b03169150826001600160a01b0316876001600160a01b031614612c23578082612c26565b81815b90999098509650505050505050565b6000808511612c9b5760405162461bcd60e51b815260206004820152602c60248201527f556e697377617056324c6962726172793a20494e53554646494349454e545f4f60448201526b155514155517d05353d5539560a21b60648201526084016101b9565b600084118015612cab5750600083115b612d085760405162461bcd60e51b815260206004820152602860248201527f556e697377617056324c6962726172793a20494e53554646494349454e545f4c604482015267495155494449545960c01b60648201526084016101b9565b6000612d148686613adc565b612d2090612710613adc565b90506000612d3360ff8516612710613aba565b61ffff16612d41888761396e565b612d4b9190613adc565b9050612d578183613b09565b612d62906001613ccd565b979650505050505050565b60606116fc8484600085612ee9565b600080826001600160a01b0316846001600160a01b031603612dee5760405162461bcd60e51b815260206004820152602560248201527f556e697377617056324c6962726172793a204944454e544943414c5f41444452604482015264455353455360d81b60648201526084016101b9565b826001600160a01b0316846001600160a01b031610612e0e578284612e11565b83835b90925090506001600160a01b038216612e6c5760405162461bcd60e51b815260206004820152601e60248201527f556e697377617056324c6962726172793a205a45524f5f41444452455353000060448201526064016101b9565b9250929050565b60405163e6a4390560e01b81526001600160a01b03838116600483015282811660248301526000919085169063e6a4390590604401602060405180830381865afa158015612ec5573d6000803e3d6000fd5b505050506040513d601f19601f820116820180604052508101906116fc91906136c4565b606082471015612f4a5760405162461bcd60e51b815260206004820152602660248201527f416464726573733a20696e73756666696369656e742062616c616e636520666f6044820152651c8818d85b1b60d21b60648201526084016101b9565b600080866001600160a01b03168587604051612f669190613c42565b60006040518083038185875af1925050503d8060008114612fa3576040519150601f19603f3d011682016040523d82523d6000602084013e612fa8565b606091505b5091509150612d62878383876060831561302357825160000361301c576001600160a01b0385163b61301c5760405162461bcd60e51b815260206004820152601d60248201527f416464726573733a2063616c6c20746f206e6f6e2d636f6e747261637400000060448201526064016101b9565b50816116fc565b6116fc83838151156130385781518083602001fd5b8060405162461bcd60e51b81526004016101b99190613c5e565b6001600160a01b038116811461121c57600080fd5b803561307281613052565b919050565b60006020828403121561308957600080fd5b813561261481613052565b6000602082840312156130a657600080fd5b5035919050565b60008083601f8401126130bf57600080fd5b5081356001600160401b038111156130d657600080fd5b602083019150836020828501011115612e6c57600080fd5b60008060008060006080868803121561310657600080fd5b853561311181613052565b9450602086013593506040860135925060608601356001600160401b0381111561313a57600080fd5b613146888289016130ad565b969995985093965092949392505050565b600080600080600060a0868803121561316f57600080fd5b853561317a81613052565b945060208601359350604086013561319181613052565b925060608601356131a181613052565b949793965091946080013592915050565b6000602082840312156131c457600080fd5b81356001600160401b038111156131da57600080fd5b8201610140818503121561261457600080fd5b6000806020838503121561320057600080fd5b82356001600160401b0381111561321657600080fd5b613222858286016130ad565b90969095509350505050565b801515811461121c57600080fd5b6000806040838503121561324f57600080fd5b823561325a81613052565b9150602083013561326a8161322e565b809150509250929050565b60008060006060848603121561328a57600080fd5b833561329581613052565b925060208401356132a581613052565b9150604084013560ff811681146132bb57600080fd5b809150509250925092565b60008083601f8401126132d857600080fd5b5081356001600160401b038111156132ef57600080fd5b6020830191508360208260051b8501011115612e6c57600080fd5b6000806000806040858703121561332057600080fd5b84356001600160401b038082111561333757600080fd5b613343888389016132c6565b9096509450602087013591508082111561335c57600080fd5b50613369878288016132c6565b95989497509550505050565b6000808585111561338557600080fd5b8386111561339257600080fd5b5050820193919092039150565b634e487b7160e01b600052604160045260246000fd5b60405161014081016001600160401b03811182821017156133d8576133d861339f565b60405290565b604051601f8201601f191681016001600160401b03811182821017156134065761340661339f565b604052919050565b60006001600160401b038211156134275761342761339f565b5060051b60200190565b600082601f83011261344257600080fd5b813560206134576134528361340e565b6133de565b8083825260208201915060208460051b87010193508684111561347957600080fd5b602086015b8481101561349e57803561349181613052565b835291830191830161347e565b509695505050505050565b6000601f83601f8401126134bc57600080fd5b823560206134cc6134528361340e565b82815260059290921b850181019181810190878411156134eb57600080fd5b8287015b848110156135815780356001600160401b038082111561350f5760008081fd5b818a0191508a603f8301126135245760008081fd5b8582013560408282111561353a5761353a61339f565b61354b828b01601f191689016133de565b92508183528c818386010111156135625760008081fd5b81818501898501375060009082018701528452509183019183016134ef565b50979650505050505050565b60006020828403121561359f57600080fd5b81356001600160401b03808211156135b657600080fd5b9083019061014082860312156135cb57600080fd5b6135d36133b5565b6135dc83613067565b8152602083013560208201526135f460408401613067565b604082015261360560608401613067565b606082015261361660808401613067565b608082015260a083013560a082015260c08301358281111561363757600080fd5b61364387828601613431565b60c08301525060e08301358281111561365b57600080fd5b613667878286016134a9565b60e083015250610100808401358381111561368157600080fd5b61368d88828701613431565b82840152505061012080840135838111156136a757600080fd5b6136b3888287016134a9565b918301919091525095945050505050565b6000602082840312156136d657600080fd5b815161261481613052565b6000602082840312156136f357600080fd5b5051919050565b60208082526025908201527f4846206e6f74206c6f7720656e6f7567682c20726573657276696e6720666f72604082015264040a0b2a8960db1b606082015260800190565b6000808335601e1984360301811261375657600080fd5b8301803591506001600160401b0382111561377057600080fd5b6020019150600581901b3603821315612e6c57600080fd5b634e487b7160e01b600052603260045260246000fd5b6000808335601e198436030181126137b557600080fd5b8301803591506001600160401b038211156137cf57600080fd5b602001915036819003821315612e6c57600080fd5b60005b838110156137ff5781810151838201526020016137e7565b50506000910152565b600081518084526138208160208601602086016137e4565b601f01601f19169290920160200192915050565b8281526040602082015260006116fc6040830184613808565b6000806040838503121561386057600080fd5b825161386b81613052565b6020939093015192949293505050565b81835281816020850137506000828201602090810191909152601f909101601f19169091010190565b85815284602082015260018060a01b0384166040820152608060608201526000612d6260808301848661387b565b6000602082840312156138e457600080fd5b81356126148161322e565b6001600160a01b03831681526040602082018190526000906116fc90830184613808565b60006020828403121561392557600080fd5b81516126148161322e565b60018060a01b038516815283602082015260606040820152600061119c60608301848661387b565b634e487b7160e01b600052601160045260246000fd5b81810381811115611b5757611b57613958565b60008161399057613990613958565b506000190190565b602080825260409082018190527f4572726f722063616c6c696e672072656465656d696e67207365697a65642063908201527f546f6b656e3a206572726f7220636f6465206e6f7420657175616c20746f2030606082015260800190565b6020808252602b908201527f496e697469616c697a61626c653a20636f6e7472616374206973206e6f74206960408201526a6e697469616c697a696e6760a81b606082015260800190565b60208082526032908201527f6f6e6c792077686974656c697374656420726564656d7074696f6e20737472616040820152711d1959da595cc818d85b881899481d5cd95960721b606082015260800190565b60018060a01b03841681528260208201526060604082015260006127d66060830184613808565b61ffff828116828216039080821115613ad557613ad5613958565b5092915050565b8082028115828204841417611b5757611b57613958565b634e487b7160e01b600052601260045260246000fd5b600082613b1857613b18613af3565b500490565b600082613b2c57613b2c613af3565b500690565b600060018201613b4357613b43613958565b5060010190565b600060a08201878352602087602085015260a0604085015281875180845260c08601915060208901935060005b81811015613b9c5784516001600160a01b031683529383019391830191600101613b77565b50506001600160a01b03969096166060850152505050608001529392505050565b60006020808385031215613bd057600080fd5b82516001600160401b03811115613be657600080fd5b8301601f81018513613bf757600080fd5b8051613c056134528261340e565b81815260059190911b82018301908381019087831115613c2457600080fd5b928401925b82841015612d6257835182529284019290840190613c29565b60008251613c548184602087016137e4565b9190910192915050565b6020815260006126146020830184613808565b80516001600160701b038116811461307257600080fd5b600080600060608486031215613c9d57600080fd5b613ca684613c71565b9250613cb460208501613c71565b9150604084015163ffffffff811681146132bb57600080fd5b80820180821115611b5757611b5761395856fe416464726573733a206c6f772d6c6576656c2064656c65676174652063616c6c206661696c6564a264697066735822122079cac9beed9c45abc609f3523b1e3ae7deb1a26b22d80d779bafadc0bbcde8c364736f6c63430008160033",
  "devdoc": {
    "author": "David Lucid <david@rari.capital> (https://github.com/davidlucid)",
    "details": "Do not transfer NATIVE or tokens directly to this address. Only send NATIVE here when using a method, and only approve tokens for transfer to here when using a method. Direct NATIVE transfers will be rejected and direct token transfers will be lost.",
    "events": {
      "Initialized(uint8)": {
        "details": "Triggered when the contract has been initialized or reinitialized."
      }
    },
    "kind": "dev",
    "methods": {
      "_whitelistRedemptionStrategies(address[],bool[])": {
        "details": "for security reasons only whitelisted redemption strategies may be used. Each whitelisted redemption strategy has to be checked to not be able to call `selfdestruct` with the `delegatecall` call in `redeemCustomCollateral`"
      },
      "_whitelistRedemptionStrategy(address,bool)": {
        "details": "for security reasons only whitelisted redemption strategies may be used. Each whitelisted redemption strategy has to be checked to not be able to call `selfdestruct` with the `delegatecall` call in `redeemCustomCollateral`"
      },
      "owner()": {
        "details": "Returns the address of the current owner."
      },
      "pancakeCall(address,uint256,uint256,bytes)": {
        "details": "Callback function for PCS flashloans."
      },
      "renounceOwnership()": {
        "details": "Leaves the contract without owner. It will not be possible to call `onlyOwner` functions anymore. Can only be called by the current owner. NOTE: Renouncing ownership will leave the contract without an owner, thereby removing any functionality that is only available to the owner."
      },
      "safeLiquidateToTokensWithFlashLoan((address,uint256,address,address,address,uint256,address[],bytes[],address[],bytes[]))": {
        "params": {
          "vars": "@see LiquidateToTokensWithFlashSwapVars."
        }
      },
      "transferOwnership(address)": {
        "details": "Transfers ownership of the contract to a new account (`newOwner`). Can only be called by the current owner."
      },
      "uniswapV2Call(address,uint256,uint256,bytes)": {
        "details": "Callback function for Uniswap flashloans."
      }
    },
    "stateVariables": {
      "UNISWAP_V2_ROUTER_02": {
        "details": "UniswapV2Router02 contract object. (Is interchangable with any UniV2 forks)"
      },
      "W_NATIVE_ADDRESS": {
        "details": "W_NATIVE contract address."
      },
      "_flashSwapAmount": {
        "details": "Cached flash swap amount. For use in `repayTokenFlashLoan` after it is set by `safeLiquidateToTokensWithFlashLoan`."
      },
      "_flashSwapToken": {
        "details": "Cached flash swap token. For use in `repayTokenFlashLoan` after it is set by `safeLiquidateToTokensWithFlashLoan`."
      },
      "_liquidatorProfitExchangeSource": {
        "details": "Cached liquidator profit exchange source. ERC20 token address or the zero address for NATIVE. For use in `safeLiquidateToTokensWithFlashLoan` after it is set by `postFlashLoanTokens`."
      },
      "expressRelay": {
        "details": "Addres of Pyth Express Relay for preventing value leakage in liquidations."
      },
      "flashSwapFee": {
        "details": "Percentage of the flash swap fee, measured in basis points."
      },
      "healthFactorThreshold": {
        "details": "Health Factor below which PER permissioning is bypassed."
      },
      "lens": {
        "details": "Pool Lens."
      }
    },
    "title": "IonicLiquidator",
    "version": 1
  },
  "userdoc": {
    "kind": "user",
    "methods": {
      "receiveAuctionProceedings(bytes)": {
        "notice": "receiveAuctionProceedings function - receives native token from the express relay You can use permission key to distribute the received funds to users who got liquidated, LPs, etc..."
      },
      "safeLiquidateToTokensWithFlashLoan((address,uint256,address,address,address,uint256,address[],bytes[],address[],bytes[]))": {
        "notice": "Safely liquidate an unhealthy loan, confirming that at least `minProfitAmount` in NATIVE profit is seized."
      }
    },
    "notice": "IonicLiquidator safely liquidates unhealthy borrowers (with flashloan support).",
    "version": 1
  },
  "storageLayout": {
    "storage": [
      {
        "astId": 176201,
        "contract": "contracts/IonicLiquidator.sol:IonicLiquidator",
        "label": "_initialized",
        "offset": 0,
        "slot": "0",
        "type": "t_uint8"
      },
      {
        "astId": 176204,
        "contract": "contracts/IonicLiquidator.sol:IonicLiquidator",
        "label": "_initializing",
        "offset": 1,
        "slot": "0",
        "type": "t_bool"
      },
      {
        "astId": 178552,
        "contract": "contracts/IonicLiquidator.sol:IonicLiquidator",
        "label": "__gap",
        "offset": 0,
        "slot": "1",
        "type": "t_array(t_uint256)50_storage"
      },
      {
        "astId": 175825,
        "contract": "contracts/IonicLiquidator.sol:IonicLiquidator",
        "label": "_owner",
        "offset": 0,
        "slot": "51",
        "type": "t_address"
      },
      {
        "astId": 175945,
        "contract": "contracts/IonicLiquidator.sol:IonicLiquidator",
        "label": "__gap",
        "offset": 0,
        "slot": "52",
        "type": "t_array(t_uint256)49_storage"
      },
      {
        "astId": 6893,
        "contract": "contracts/IonicLiquidator.sol:IonicLiquidator",
        "label": "W_NATIVE_ADDRESS",
        "offset": 0,
        "slot": "101",
        "type": "t_address"
      },
      {
        "astId": 6897,
        "contract": "contracts/IonicLiquidator.sol:IonicLiquidator",
        "label": "UNISWAP_V2_ROUTER_02",
        "offset": 0,
        "slot": "102",
        "type": "t_contract(IUniswapV2Router02)40540"
      },
      {
        "astId": 6900,
        "contract": "contracts/IonicLiquidator.sol:IonicLiquidator",
        "label": "_liquidatorProfitExchangeSource",
        "offset": 0,
        "slot": "103",
        "type": "t_address"
      },
      {
        "astId": 6904,
        "contract": "contracts/IonicLiquidator.sol:IonicLiquidator",
        "label": "redemptionStrategiesWhitelist",
        "offset": 0,
        "slot": "104",
        "type": "t_mapping(t_address,t_bool)"
      },
      {
        "astId": 6907,
        "contract": "contracts/IonicLiquidator.sol:IonicLiquidator",
        "label": "_flashSwapAmount",
        "offset": 0,
        "slot": "105",
        "type": "t_uint256"
      },
      {
        "astId": 6910,
        "contract": "contracts/IonicLiquidator.sol:IonicLiquidator",
        "label": "_flashSwapToken",
        "offset": 0,
        "slot": "106",
        "type": "t_address"
      },
      {
        "astId": 6913,
        "contract": "contracts/IonicLiquidator.sol:IonicLiquidator",
        "label": "flashSwapFee",
        "offset": 20,
        "slot": "106",
        "type": "t_uint8"
      },
      {
        "astId": 6917,
        "contract": "contracts/IonicLiquidator.sol:IonicLiquidator",
        "label": "expressRelay",
        "offset": 0,
        "slot": "107",
        "type": "t_contract(IExpressRelay)38714"
      },
      {
        "astId": 6921,
        "contract": "contracts/IonicLiquidator.sol:IonicLiquidator",
        "label": "lens",
        "offset": 0,
        "slot": "108",
        "type": "t_contract(PoolLens)13344"
      },
      {
        "astId": 6924,
        "contract": "contracts/IonicLiquidator.sol:IonicLiquidator",
        "label": "healthFactorThreshold",
        "offset": 0,
        "slot": "109",
        "type": "t_uint256"
      }
    ],
    "types": {
      "t_address": {
        "encoding": "inplace",
        "label": "address",
        "numberOfBytes": "20"
      },
      "t_array(t_uint256)49_storage": {
        "base": "t_uint256",
        "encoding": "inplace",
        "label": "uint256[49]",
        "numberOfBytes": "1568"
      },
      "t_array(t_uint256)50_storage": {
        "base": "t_uint256",
        "encoding": "inplace",
        "label": "uint256[50]",
        "numberOfBytes": "1600"
      },
      "t_bool": {
        "encoding": "inplace",
        "label": "bool",
        "numberOfBytes": "1"
      },
      "t_contract(IExpressRelay)38714": {
        "encoding": "inplace",
        "label": "contract IExpressRelay",
        "numberOfBytes": "20"
      },
      "t_contract(IUniswapV2Router02)40540": {
        "encoding": "inplace",
        "label": "contract IUniswapV2Router02",
        "numberOfBytes": "20"
      },
      "t_contract(PoolLens)13344": {
        "encoding": "inplace",
        "label": "contract PoolLens",
        "numberOfBytes": "20"
      },
      "t_mapping(t_address,t_bool)": {
        "encoding": "mapping",
        "key": "t_address",
        "label": "mapping(address => bool)",
        "numberOfBytes": "32",
        "value": "t_bool"
      },
      "t_uint256": {
        "encoding": "inplace",
        "label": "uint256",
        "numberOfBytes": "32"
      },
      "t_uint8": {
        "encoding": "inplace",
        "label": "uint8",
        "numberOfBytes": "1"
      }
    }
  }
}