{
  "address": "0x8f55Cac621413848c567De976948d2dC6A511Cda",
  "abi": [
    {
      "type": "function",
      "name": "MAX_SLIPPAGE",
      "inputs": [],
      "outputs": [
        {
          "name": "",
          "type": "uint256",
          "internalType": "uint256"
        }
      ],
      "stateMutability": "view"
    },
    {
      "type": "function",
      "name": "_getExtensionFunctions",
      "inputs": [],
      "outputs": [
        {
          "name": "",
          "type": "bytes4[]",
          "internalType": "bytes4[]"
        }
      ],
      "stateMutability": "pure"
    },
    {
      "type": "function",
      "name": "acceptOwnership",
      "inputs": [],
      "outputs": [],
      "stateMutability": "nonpayable"
    },
    {
      "type": "function",
      "name": "amountOutAndSlippageOfSwap",
      "inputs": [
        {
          "name": "inputToken",
          "type": "address",
          "internalType": "contract IERC20Upgradeable"
        },
        {
          "name": "inputAmount",
          "type": "uint256",
          "internalType": "uint256"
        },
        {
          "name": "outputToken",
          "type": "address",
          "internalType": "contract IERC20Upgradeable"
        }
      ],
      "outputs": [
        {
          "name": "outputAmount",
          "type": "uint256",
          "internalType": "uint256"
        },
        {
          "name": "slippage",
          "type": "uint256",
          "internalType": "uint256"
        }
      ],
      "stateMutability": "nonpayable"
    },
    {
      "type": "function",
      "name": "ap",
      "inputs": [],
      "outputs": [
        {
          "name": "",
          "type": "address",
          "internalType": "contract AddressesProvider"
        }
      ],
      "stateMutability": "view"
    },
    {
      "type": "function",
      "name": "customUniV3Router",
      "inputs": [
        {
          "name": "",
          "type": "address",
          "internalType": "contract IERC20Upgradeable"
        },
        {
          "name": "",
          "type": "address",
          "internalType": "contract IERC20Upgradeable"
        }
      ],
      "outputs": [
        {
          "name": "",
          "type": "address",
          "internalType": "address"
        }
      ],
      "stateMutability": "view"
    },
    {
      "type": "function",
      "name": "defaultOutputToken",
      "inputs": [
        {
          "name": "",
          "type": "address",
          "internalType": "contract IERC20Upgradeable"
        }
      ],
      "outputs": [
        {
          "name": "",
          "type": "address",
          "internalType": "contract IERC20Upgradeable"
        }
      ],
      "stateMutability": "view"
    },
    {
      "type": "function",
      "name": "getAllRedemptionStrategies",
      "inputs": [],
      "outputs": [
        {
          "name": "",
          "type": "address[]",
          "internalType": "address[]"
        }
      ],
      "stateMutability": "view"
    },
    {
      "type": "function",
      "name": "getInputTokensByOutputToken",
      "inputs": [
        {
          "name": "outputToken",
          "type": "address",
          "internalType": "contract IERC20Upgradeable"
        }
      ],
      "outputs": [
        {
          "name": "",
          "type": "address[]",
          "internalType": "address[]"
        }
      ],
      "stateMutability": "view"
    },
    {
      "type": "function",
      "name": "getRedemptionStrategies",
      "inputs": [
        {
          "name": "inputToken",
          "type": "address",
          "internalType": "contract IERC20Upgradeable"
        },
        {
          "name": "outputToken",
          "type": "address",
          "internalType": "contract IERC20Upgradeable"
        }
      ],
      "outputs": [
        {
          "name": "strategies",
          "type": "address[]",
          "internalType": "contract IRedemptionStrategy[]"
        },
        {
          "name": "strategiesData",
          "type": "bytes[]",
          "internalType": "bytes[]"
        }
      ],
      "stateMutability": "view"
    },
    {
      "type": "function",
      "name": "getRedemptionStrategy",
      "inputs": [
        {
          "name": "inputToken",
          "type": "address",
          "internalType": "contract IERC20Upgradeable"
        },
        {
          "name": "outputToken",
          "type": "address",
          "internalType": "contract IERC20Upgradeable"
        }
      ],
      "outputs": [
        {
          "name": "strategy",
          "type": "address",
          "internalType": "contract IRedemptionStrategy"
        },
        {
          "name": "strategyData",
          "type": "bytes",
          "internalType": "bytes"
        }
      ],
      "stateMutability": "view"
    },
    {
      "type": "function",
      "name": "getSlippage",
      "inputs": [
        {
          "name": "inputToken",
          "type": "address",
          "internalType": "contract IERC20Upgradeable"
        },
        {
          "name": "outputToken",
          "type": "address",
          "internalType": "contract IERC20Upgradeable"
        }
      ],
      "outputs": [
        {
          "name": "slippage",
          "type": "uint256",
          "internalType": "uint256"
        }
      ],
      "stateMutability": "view"
    },
    {
      "type": "function",
      "name": "owner",
      "inputs": [],
      "outputs": [
        {
          "name": "",
          "type": "address",
          "internalType": "address"
        }
      ],
      "stateMutability": "view"
    },
    {
      "type": "function",
      "name": "pendingOwner",
      "inputs": [],
      "outputs": [
        {
          "name": "",
          "type": "address",
          "internalType": "address"
        }
      ],
      "stateMutability": "view"
    },
    {
      "type": "function",
      "name": "redemptionStrategiesByName",
      "inputs": [
        {
          "name": "",
          "type": "string",
          "internalType": "string"
        }
      ],
      "outputs": [
        {
          "name": "",
          "type": "address",
          "internalType": "contract IRedemptionStrategy"
        }
      ],
      "stateMutability": "view"
    },
    {
      "type": "function",
      "name": "redemptionStrategiesByTokens",
      "inputs": [
        {
          "name": "",
          "type": "address",
          "internalType": "contract IERC20Upgradeable"
        },
        {
          "name": "",
          "type": "address",
          "internalType": "contract IERC20Upgradeable"
        }
      ],
      "outputs": [
        {
          "name": "",
          "type": "address",
          "internalType": "contract IRedemptionStrategy"
        }
      ],
      "stateMutability": "view"
    },
    {
      "type": "function",
      "name": "renounceOwnership",
      "inputs": [],
      "outputs": [],
      "stateMutability": "nonpayable"
    },
    {
      "type": "function",
      "name": "swap",
      "inputs": [
        {
          "name": "inputToken",
          "type": "address",
          "internalType": "contract IERC20Upgradeable"
        },
        {
          "name": "inputAmount",
          "type": "uint256",
          "internalType": "uint256"
        },
        {
          "name": "outputToken",
          "type": "address",
          "internalType": "contract IERC20Upgradeable"
        }
      ],
      "outputs": [
        {
          "name": "outputAmount",
          "type": "uint256",
          "internalType": "uint256"
        }
      ],
      "stateMutability": "nonpayable"
    },
    {
      "type": "function",
      "name": "transferOwnership",
      "inputs": [
        {
          "name": "newOwner",
          "type": "address",
          "internalType": "address"
        }
      ],
      "outputs": [],
      "stateMutability": "nonpayable"
    },
    {
      "type": "function",
      "name": "uniswapV3Fees",
      "inputs": [
        {
          "name": "",
          "type": "address",
          "internalType": "contract IERC20Upgradeable"
        },
        {
          "name": "",
          "type": "address",
          "internalType": "contract IERC20Upgradeable"
        }
      ],
      "outputs": [
        {
          "name": "",
          "type": "uint24",
          "internalType": "uint24"
        }
      ],
      "stateMutability": "view"
    },
    {
      "type": "event",
      "name": "OwnershipTransferStarted",
      "inputs": [
        {
          "name": "previousOwner",
          "type": "address",
          "indexed": true,
          "internalType": "address"
        },
        {
          "name": "newOwner",
          "type": "address",
          "indexed": true,
          "internalType": "address"
        }
      ],
      "anonymous": false
    },
    {
      "type": "event",
      "name": "OwnershipTransferred",
      "inputs": [
        {
          "name": "previousOwner",
          "type": "address",
          "indexed": true,
          "internalType": "address"
        },
        {
          "name": "newOwner",
          "type": "address",
          "indexed": true,
          "internalType": "address"
        }
      ],
      "anonymous": false
    },
    {
      "type": "event",
      "name": "SlippageUpdated",
      "inputs": [
        {
          "name": "from",
          "type": "address",
          "indexed": true,
          "internalType": "contract IERC20Upgradeable"
        },
        {
          "name": "to",
          "type": "address",
          "indexed": true,
          "internalType": "contract IERC20Upgradeable"
        },
        {
          "name": "prevValue",
          "type": "uint256",
          "indexed": false,
          "internalType": "uint256"
        },
        {
          "name": "newValue",
          "type": "uint256",
          "indexed": false,
          "internalType": "uint256"
        }
      ],
      "anonymous": false
    },
    {
      "type": "error",
      "name": "NoRedemptionPath",
      "inputs": []
    },
    {
      "type": "error",
      "name": "OutputTokenMismatch",
      "inputs": []
    }
  ],
  "transactionHash": "0xb34ff588aae8044e6a78d947a560ac1520d76166d5f06df7ad6fd2bc0278e10c",
  "args": [],
  "numDeployments": 1,
  "bytecode": {
    "object": "0x60806040523480156200001157600080fd5b506200001d3362000023565b6200009d565b600180546001600160a01b03191690556200004a816200004d602090811b620015f017901c565b50565b600080546001600160a01b038381166001600160a01b0319831681178455604051919092169283917f8be0079c531659141344cd1fd0a4f28419497f9722a3daafe3b4186f6b6457e09190a35050565b614f5380620000ad6000396000f3fe608060405234801561001057600080fd5b506004361061012c5760003560e01c8063a6fdd2bb116100ad578063e30c397811610071578063e30c39781461031f578063ed287f3f14610330578063f2fde38b14610351578063f560cebd14610364578063f97595181461038c57600080fd5b8063a6fdd2bb1461025a578063a700f9e414610262578063b6b928fd14610296578063c8ff6fee146102b7578063dee7fe48146102eb57600080fd5b8063715018a6116100f4578063715018a6146101f957806379ba50971461020357806389f8132e1461020b5780638da5cb5b146102205780638db87c271461023157600080fd5b80632f53ef2b14610131578063398cd955146101575780633c4f743c1461019b578063403de57f146101c65780636d069a67146101e6575b600080fd5b61014461013f3660046144f9565b610395565b6040519081526020015b60405180910390f35b6101876101653660046144f9565b600d60209081526000928352604080842090915290825290205462ffffff1681565b60405162ffffff909116815260200161014e565b6002546101ae906001600160a01b031681565b6040516001600160a01b03909116815260200161014e565b6101d96101d4366004614532565b6103cb565b60405161014e9190614593565b6101446101f43660046145a6565b6103ef565b61020161042d565b005b610201610482565b6102136104fc565b60405161014e91906145e8565b6000546001600160a01b03166101ae565b6101ae61023f366004614532565b6007602052600090815260409020546001600160a01b031681565b6101d961073d565b6101ae6102703660046144f9565b60066020908152600092835260408084209091529082529020546001600160a01b031681565b6102a96102a43660046144f9565b61074e565b60405161014e92919061468e565b6101ae6102c53660046144f9565b600e6020908152600092835260408084209091529082529020546001600160a01b031681565b6101ae6102f9366004614722565b80516020818301810180516005825292820191909301209152546001600160a01b031681565b6001546001600160a01b03166101ae565b61034361033e3660046144f9565b610eeb565b60405161014e9291906147b7565b61020161035f366004614532565b611264565b6103776103723660046145a6565b6112d5565b6040805192835260208301919091520161014e565b61014461038481565b6001600160a01b038083166000908152600b6020908152604080832093851683529290522054806103c557506103845b92915050565b6001600160a01b03811660009081526008602052604090206060906103c590611640565b60006104066001600160a01b03851633308661164d565b61041084836116be565b90506104266001600160a01b0383163383611880565b9392505050565b6104356118b5565b60405162461bcd60e51b815260206004820152601e60248201527f72656e6f756e6365206f776e657273686970206e6f7420616c6c6f776564000060448201526064015b60405180910390fd5b60015433906001600160a01b031681146104f05760405162461bcd60e51b815260206004820152602960248201527f4f776e61626c6532537465703a2063616c6c6572206973206e6f7420746865206044820152683732bb9037bbb732b960b91b6064820152608401610479565b6104f981611911565b50565b604080516007808252610100820190925260609190600090826020820160e08036833701905050905063ed287f3f60e01b816105378461486e565b93508360ff168151811061054d5761054d61488b565b6001600160e01b03199092166020928302919091019091015263b6b928fd60e01b816105788461486e565b93508360ff168151811061058e5761058e61488b565b6001600160e01b03199092166020928302919091019091015263403de57f60e01b816105b98461486e565b93508360ff16815181106105cf576105cf61488b565b6001600160e01b031990921660209283029190910190910152636d069a6760e01b816105fa8461486e565b93508360ff16815181106106105761061061488b565b6001600160e01b03199092166020928302919091019091015263a6fdd2bb60e01b8161063b8461486e565b93508360ff16815181106106515761065161488b565b6001600160e01b03199092166020928302919091019091015263f560cebd60e01b8161067c8461486e565b93508360ff16815181106106925761069261488b565b6001600160e01b031990921660209283029190910190910152632f53ef2b60e01b816106bd8461486e565b93508360ff16815181106106d3576106d361488b565b6001600160e01b03199092166020928302919091019091015260ff8216156103c55760405162461bcd60e51b815260206004820152601c60248201527f7573652074686520636f7272656374206172726179206c656e677468000000006044820152606401610479565b60606107496003611640565b905090565b6001600160a01b0380831660009081526006602090815260408083208585168452825291829020548251808401909352601583527429b7b634b2363ca9bbb0b82634b8bab4b230ba37b960591b91830191909152909116906060906107b490839061192a565b156107ca576107c38484611974565b9050610ee4565b610809826040518060400160405280601881526020017f536f6c69646c794c70546f6b656e4c697175696461746f72000000000000000081525061192a565b15610818576107c38484611e45565b610857826040518060400160405280601981526020017f556e697377617056324c697175696461746f7246756e6465720000000000000081525061192a565b806108915750610891826040518060400160405280601281526020017125b4b6aab734ab192634b8bab4b230ba37b960711b81525061192a565b156108a0576107c38484612050565b6108df826040518060400160405280601981526020017f556e697377617056334c697175696461746f7246756e6465720000000000000081525061192a565b156108ee576107c384846120f8565b610925826040518060400160405280601581526020017420b633b2b13930a9bbb0b82634b8bab4b230ba37b960591b81525061192a565b15610a175760004661868b1415610951575073ac48fcf1049668b285f3dc72483df5ae2162f7e86109e4565b60025460405163bf40fac160e01b815260206004820152601360248201527220a623a2a12920afa9aba0a82fa927aaaa22a960691b60448201526001600160a01b039091169063bf40fac190606401602060405180830381865afa1580156109bd573d6000803e3d6000fd5b505050506040513d601f19601f820116820180604052508101906109e191906148a1565b90505b604080516001600160a01b0380871660208301528316818301528151808203830181526060909101909152915050610ee4565b610a56826040518060400160405280601d81526020017f47616d6d61416c67656272614c70546f6b656e4c697175696461746f7200000081525061192a565b15610a65576107c38484612252565b610aa4826040518060400160405280601f81526020017f47616d6d61556e697377617056334c70546f6b656e4c697175696461746f720081525061192a565b15610ab3576107c38484612325565b610aeb82604051806040016040528060168152602001752130b630b731b2b929bbb0b82634b8bab4b230ba37b960511b81525061192a565b15610afa576107c38484612388565b610b39826040518060400160405280601881526020017f556e69737761704c70546f6b656e4c697175696461746f72000000000000000081525061192a565b80610b755750610b75826040518060400160405280601481526020017323b2b630ba37a3aab734a634b8bab4b230ba37b960611b81525061192a565b15610b84576107c38484612494565b610bc3826040518060400160405280601781526020017f536164646c654c70546f6b656e4c697175696461746f7200000000000000000081525061192a565b15610bd2576107c3848461275a565b610c11826040518060400160405280602081526020017f43757276654c70546f6b656e4c697175696461746f724e6f526567697374727981525061192a565b15610c20576107c38484612939565b610c55826040518060400160405280601381526020017221bab93b32a9bbb0b82634b8bab4b230ba37b960691b81525061192a565b15610c64576107c38484612b1d565b610c99826040518060400160405280601381526020017221bab93b32a6382a37b5b2b72bb930b83832b960691b81525061192a565b15610ca8576107c38484612d0a565b610ce082604051806040016040528060168152602001752530b93b34b9a634b8bab4b230ba37b9233ab73232b960511b81525061192a565b15610cef576107c38484612db1565b610d2682604051806040016040528060158152602001742c2137b6b12634b8bab4b230ba37b9233ab73232b960591b81525061192a565b15610d35576107c38484612f49565b610d74826040518060400160405280601981526020017f42616c616e6365724c70546f6b656e4c697175696461746f720000000000000081525061192a565b15610d83576107c38484613118565b610db8826040518060400160405280601381526020017220b0bb32aa37b5b2b72634b8bab4b230ba37b960691b81525061192a565b15610dc7576107c38484613118565b610e06826040518060400160405280601a81526020017f47616d6d61416c67656272614c70546f6b656e5772617070657200000000000081525061192a565b15610e15576107c38484613134565b610e54826040518060400160405280601c81526020017f47616d6d61556e697377617056334c70546f6b656e577261707065720000000081525061192a565b15610e63576107c3848461328b565b610e9a826040518060400160405280601581526020017429b7b634b2363ca6382a37b5b2b72bb930b83832b960591b81525061192a565b15610ea9576107c3848461338f565b60405162461bcd60e51b815260206004820152601060248201526f6e6f207374726174656779206461746160801b6044820152606401610479565b9250929050565b60408051600a80825261016082019092526060918291859185916000916020820161014080368337505060408051600a80825261016082019092529293506000929150602082015b6060815260200190600190039081610f3357505060408051600a808252610160820190925291925060009190602082016101408036833701905050905060005b846001600160a01b0316866001600160a01b031614611112576001600160a01b03808716600090815260066020908152604080832089851684529091528120549091168015610fc457869150610fe2565b6001600160a01b038089166000908152600760205260409020541691505b60005b8451811015611038578481815181106110005761100061488b565b60200260200101516001600160a01b0316836001600160a01b0316141561102657611038565b80611030816148be565b915050610fe5565b506000806110468a8561074e565b90925090506001600160a01b0382166110625750505050611112565b818886815181106110755761107561488b565b60200260200101906001600160a01b031690816001600160a01b031681525050808786815181106110a8576110a861488b565b6020026020010181905250838686815181106110c6576110c661488b565b60200260200101906001600160a01b031690816001600160a01b03168152505083995084806110f4906148be565b95505084600a14156111095750505050611112565b50505050610f73565b8067ffffffffffffffff81111561112b5761112b6146b2565b604051908082528060200260200182016040528015611154578160200160208202803683370190505b5097508067ffffffffffffffff811115611170576111706146b2565b6040519080825280602002602001820160405280156111a357816020015b606081526020019060019003908161118e5790505b50965060005b818160ff16101561125657848160ff16815181106111c9576111c961488b565b6020026020010151898260ff16815181106111e6576111e661488b565b60200260200101906001600160a01b031690816001600160a01b031681525050838160ff168151811061121b5761121b61488b565b6020026020010151888260ff16815181106112385761123861488b565b6020026020010181905250808061124e906148d9565b9150506111a9565b505050505050509250929050565b61126c6118b5565b600180546001600160a01b0383166001600160a01b0319909116811790915561129d6000546001600160a01b031690565b6001600160a01b03167f38d16b8cac22d99fc7c124b9cd0de2d3fa1faef420bfe791d8c362d765e2270060405160405180910390a350565b600080836112e8575060009050806115e8565b6112f38585856103ef565b915081611305575060009050806115e8565b60025460405163bf40fac160e01b81526020600482015260116024820152704d617374657250726963654f7261636c6560781b60448201526000916001600160a01b03169063bf40fac190606401602060405180830381865afa158015611370573d6000803e3d6000fd5b505050506040513d601f19601f8201168201806040525081019061139491906148a1565b6040516315d5220f60e31b81526001600160a01b03888116600483015291925060009183169063aea9107890602401602060405180830381865afa1580156113e0573d6000803e3d6000fd5b505050506040513d601f19601f8201168201806040525081019061140491906148f9565b6040516315d5220f60e31b81526001600160a01b03878116600483015291925060009184169063aea9107890602401602060405180830381865afa158015611450573d6000803e3d6000fd5b505050506040513d601f19601f8201168201806040525081019061147491906148f9565b90506000611482838a61398d565b61148c9089614912565b9050600061149a838961398d565b6114a49088614912565b9050818110156114d257816114b98282614931565b6114c590612710614912565b6114cf9190614948565b95505b6114dd60018761496a565b6001600160a01b03808c166000908152600b60209081526040808320938d168352929052205490965080158061154457506001600160a01b03808c166000908152600c60209081526040808320938d1683529290522054611388906115429042614931565b115b156115e157886001600160a01b03168b6001600160a01b03167f5d4661f2f390321d7ed6695cf1f19cd360bafab39b6dc6e06e5b48f1653486a1838a604051611597929190918252602082015260400190565b60405180910390a36001600160a01b03808c166000818152600b60209081526040808320948e168084529482528083208c9055928252600c81528282209382529290925290204290555b5050505050505b935093915050565b600080546001600160a01b038381166001600160a01b0319831681178455604051919092169283917f8be0079c531659141344cd1fd0a4f28419497f9722a3daafe3b4186f6b6457e09190a35050565b6060600061042683613a4d565b6040516001600160a01b03808516602483015283166044820152606481018290526116b89085906323b872dd60e01b906084015b60408051601f198184030181529190526020810180516001600160e01b03166001600160e01b031990931692909217909152613aa9565b50505050565b6040516370a0823160e01b815230600482015260009081906001600160a01b038516906370a0823190602401602060405180830381865afa158015611707573d6000803e3d6000fd5b505050506040513d601f19601f8201168201806040525081019061172b91906148f9565b905060008061173a8686610eeb565b9150915081516000141561176157604051631aa27a4d60e21b815260040160405180910390fd5b858360005b84518110156117d95760008582815181106117835761178361488b565b6020026020010151905060008583815181106117a1576117a161488b565b602002602001015190506000806117ba87878686613b7b565b90975095508493506117d192508391506148be9050565b915050611766565b50866001600160a01b0316826001600160a01b03161461180c5760405163fdbb00c560e01b815260040160405180910390fd5b6040516370a0823160e01b81523060048201526001600160a01b038816906370a0823190602401602060405180830381865afa158015611850573d6000803e3d6000fd5b505050506040513d601f19601f8201168201806040525081019061187491906148f9565b98975050505050505050565b6040516001600160a01b0383166024820152604481018290526118b090849063a9059cbb60e01b90606401611681565b505050565b6000546001600160a01b0316331461190f5760405162461bcd60e51b815260206004820181905260248201527f4f776e61626c653a2063616c6c6572206973206e6f7420746865206f776e65726044820152606401610479565b565b600180546001600160a01b03191690556104f9816115f0565b60006001600160a01b03831615801590610426575060058260405161194f9190614982565b908152604051908190036020019020546001600160a01b038481169116149392505050565b60025460405163bf40fac160e01b81526060916000916001600160a01b039091169063bf40fac1906119a89060040161499e565b602060405180830381865afa1580156119c5573d6000803e3d6000fd5b505050506040513d601f19601f820116820180604052508101906119e991906148a1565b60405163260f701f60e11b815290915083906000906001600160a01b03841690634c1ee03e90611a21908990869086906004016149cb565b602060405180830381865afa158015611a3e573d6000803e3d6000fd5b505050506040513d601f19601f82011682018060405250810190611a6291906148a1565b90506000836001600160a01b0316634c1ee03e888560016040518463ffffffff1660e01b8152600401611a97939291906149cb565b602060405180830381865afa158015611ab4573d6000803e3d6000fd5b505050506040513d601f19601f82011682018060405250810190611ad891906148a1565b60405163e5e31b1360e01b81526001600160a01b0380831660048301529192509085169063e5e31b1390602401602060405180830381865afa158015611b22573d6000803e3d6000fd5b505050506040513d601f19601f82011682018060405250810190611b4691906149ef565b80611bb6575060405163e5e31b1360e01b81526001600160a01b03838116600483015285169063e5e31b1390602401602060405180830381865afa158015611b92573d6000803e3d6000fd5b505050506040513d601f19601f82011682018060405250810190611bb691906149ef565b611c0e5760405162461bcd60e51b8152602060048201526024808201527f496e76616c696420536f6c69646c794c697175696461746f722073776170207060448201526330ba341760e11b6064820152608401610479565b60405163e5e31b1360e01b81526001600160a01b0382811660048301526000919086169063e5e31b1390602401602060405180830381865afa158015611c58573d6000803e3d6000fd5b505050506040513d601f19601f82011682018060405250810190611c7c91906149ef565b611c8857506000611e14565b60405163e5e31b1360e01b81526001600160a01b03848116600483015286169063e5e31b1390602401602060405180830381865afa158015611cce573d6000803e3d6000fd5b505050506040513d601f19601f82011682018060405250810190611cf291906149ef565b611cfe57506001611e14565b600080866001600160a01b0316635e60dab58b8860016040518463ffffffff1660e01b8152600401611d32939291906149cb565b6040805180830381865afa158015611d4e573d6000803e3d6000fd5b505050506040513d601f19601f82011682018060405250810190611d729190614a11565b91509150600080886001600160a01b0316635e60dab58d8a60006040518463ffffffff1660e01b8152600401611daa939291906149cb565b6040805180830381865afa158015611dc6573d6000803e3d6000fd5b505050506040513d601f19601f82011682018060405250810190611dea9190614a11565b915091508184118015611dfc57508083115b15611e0a5760019450611e0f565b600094505b505050505b848782604051602001611e29939291906149cb565b6040516020818303038152906040529550505050505092915050565b60606000839050806001600160a01b0316630dfe16816040518163ffffffff1660e01b8152600401602060405180830381865afa158015611e8a573d6000803e3d6000fd5b505050506040513d601f19601f82011682018060405250810190611eae91906148a1565b6001600160a01b0316836001600160a01b03161480611f3f5750806001600160a01b031663d21220a76040518163ffffffff1660e01b8152600401602060405180830381865afa158015611f06573d6000803e3d6000fd5b505050506040513d601f19601f82011682018060405250810190611f2a91906148a1565b6001600160a01b0316836001600160a01b0316145b611faa5760405162461bcd60e51b815260206004820152603660248201527f4f757470757420746f6b656e20646f6573206e6f74206d6174636820656974686044820152756572206f6620746865207061697220746f6b656e732160501b6064820152608401610479565b60025460405163bf40fac160e01b81526001600160a01b039091169063bf40fac190611fd89060040161499e565b602060405180830381865afa158015611ff5573d6000803e3d6000fd5b505050506040513d601f19601f8201168201806040525081019061201991906148a1565b604080516001600160a01b039283166020820152918516908201526060015b60405160208183030381529060405291505092915050565b6040805160028082526060808301845292600092919060208301908036833701905050905083816000815181106120895761208961488b565b60200260200101906001600160a01b031690816001600160a01b03168152505082816001815181106120bd576120bd61488b565b60200260200101906001600160a01b031690816001600160a01b0316815250506120e684613bfc565b81604051602001612038929190614a35565b6001600160a01b038083166000908152600d602090815260408083209385168352929052205460609062ffffff168061215857506001600160a01b038083166000908152600d602090815260408083209387168352929052205462ffffff165b62ffffff811661216757506101f45b60006121738585613c8c565b60025460405163bf40fac160e01b815260206004820152600660248201526528bab7ba32b960d11b604482015291925086918691859185916001600160a01b03169063bf40fac190606401602060405180830381865afa1580156121db573d6000803e3d6000fd5b505050506040513d601f19601f820116820180604052508101906121ff91906148a1565b604080516001600160a01b0396871660208201529486169085015262ffffff9092166060840152831660808301529190911660a082015260c0016040516020818303038152906040529250505092915050565b60025460405163bf40fac160e01b815260206004820152601960248201527823a0a6a6a0afa0a623a2a12920afa9aba0a82fa927aaaa22a960391b604482015260609183916001600160a01b039091169063bf40fac1906064015b602060405180830381865afa1580156122ca573d6000803e3d6000fd5b505050506040513d601f19601f820116820180604052508101906122ee91906148a1565b604080516001600160a01b03938416602082015292909116908201526060015b604051602081830303815290604052905092915050565b60025460405163bf40fac160e01b815260206004820152601c60248201527f47414d4d415f554e49535741505f56335f535741505f524f5554455200000000604482015260609183916001600160a01b039091169063bf40fac1906064016122ad565b60025460405163959fc09760e01b81526001600160a01b038481166004830152838116602483015260609260009291169063959fc09790604401602060405180830381865afa1580156123df573d6000803e3d6000fd5b505050506040513d601f19601f8201168201806040525081019061240391906148a1565b90506001600160a01b03811661246f5760405162461bcd60e51b815260206004820152602b60248201527f4e6f2062616c616e63657220706f6f6c20666f756e6420666f7220746865206760448201526a6976656e20746f6b656e7360a81b6064820152608401610479565b604080516001600160a01b038086166020830152831691810191909152606001612038565b606060008390506000816001600160a01b0316630dfe16816040518163ffffffff1660e01b8152600401602060405180830381865afa1580156124db573d6000803e3d6000fd5b505050506040513d601f19601f820116820180604052508101906124ff91906148a1565b90506000826001600160a01b031663d21220a76040518163ffffffff1660e01b8152600401602060405180830381865afa158015612541573d6000803e3d6000fd5b505050506040513d601f19601f8201168201806040525081019061256591906148a1565b90506001600160a01b0385811681841681149183161481806125845750805b6125ee5760405162461bcd60e51b815260206004820152603560248201527f4f757470757420746f6b656e20646f6573206e6f74206d6174636820656974686044820152746572206f6620746865207061697220746f6b656e7360581b6064820152608401610479565b606080831561268e5760408051600081526002602082018181526080830184529194509091848101908036833701905050905084816000815181106126355761263561488b565b60200260200101906001600160a01b031690816001600160a01b03168152505085816001815181106126695761266961488b565b60200260200101906001600160a01b031690816001600160a01b03168152505061271f565b5060408051600081526002602082018181526080830184529192838101908036833701905050915085826000815181106126ca576126ca61488b565b60200260200101906001600160a01b031690816001600160a01b03168152505084826001815181106126fe576126fe61488b565b60200260200101906001600160a01b031690816001600160a01b0316815250505b6127288a613bfc565b828260405160200161273c93929190614a91565b60405160208183030381529060405297505050505050505092915050565b60025460405163bf40fac160e01b8152602060048201526013602482015272536164646c654c7050726963654f7261636c6560681b60448201526060916000916001600160a01b039091169063bf40fac190606401602060405180830381865afa1580156127cc573d6000803e3d6000fd5b505050506040513d601f19601f820116820180604052508101906127f091906148a1565b60405163195b70b960e21b81526001600160a01b03868116600483015291925060009183169063656dc2e490602401600060405180830381865afa15801561283c573d6000803e3d6000fd5b505050506040513d6000823e601f3d908101601f191682016040526128649190810190614af5565b60025460405163bf40fac160e01b81529192506000916001600160a01b039091169063bf40fac19061289890600401614b89565b602060405180830381865afa1580156128b5573d6000803e3d6000fd5b505050506040513d601f19601f820116820180604052508101906128d991906148a1565b905060006128e78387613d91565b9050806001600160a01b038116158061291c575073eeeeeeeeeeeeeeeeeeeeeeeeeeeeeeeeeeeeeeee6001600160a01b038316145b156129245750815b818584604051602001611e2993929190614ba9565b60025460405163bf40fac160e01b81526060916000916001600160a01b039091169063bf40fac19061296d90600401614bcc565b602060405180830381865afa15801561298a573d6000803e3d6000fd5b505050506040513d601f19601f820116820180604052508101906129ae91906148a1565b60405163988b1fa760e01b81526001600160a01b03868116600483015291925060009183169063988b1fa790602401602060405180830381865afa1580156129fa573d6000803e3d6000fd5b505050506040513d601f19601f82011682018060405250810190612a1e91906148a1565b90506000612a2b826140ac565b90506000612a398287613d91565b60025460405163bf40fac160e01b815291925082916000916001600160a01b03169063bf40fac190612a6d90600401614b89565b602060405180830381865afa158015612a8a573d6000803e3d6000fd5b505050506040513d601f19601f82011682018060405250810190612aae91906148a1565b90506001600160a01b0383161580612ae2575073eeeeeeeeeeeeeeeeeeeeeeeeeeeeeeeeeeeeeeee6001600160a01b038416145b15612aeb578091505b828187604051602001612b0093929190614ba9565b604051602081830303815290604052965050505050505092915050565b60025460405163bf40fac160e01b81526060916000916001600160a01b039091169063bf40fac190612b5190600401614bcc565b602060405180830381865afa158015612b6e573d6000803e3d6000fd5b505050506040513d601f19601f82011682018060405250810190612b9291906148a1565b60025460405163bf40fac160e01b815260206004820152602360248201527f437572766556324c70546f6b656e50726963654f7261636c654e6f526567697360448201526274727960e81b60648201529192506000916001600160a01b039091169063bf40fac190608401602060405180830381865afa158015612c1a573d6000803e3d6000fd5b505050506040513d601f19601f82011682018060405250810190612c3e91906148a1565b60025460405163bf40fac160e01b81529192506000916001600160a01b039091169063bf40fac190612c7290600401614b89565b602060405180830381865afa158015612c8f573d6000803e3d6000fd5b505050506040513d601f19601f82011682018060405250810190612cb391906148a1565b604080516001600160a01b038087166020830152808616928201929092528189166060820152818816608082015290821660a082015290915060c0015b604051602081830303815290604052935050505092915050565b60025460405163bf40fac160e01b81526060916000916001600160a01b039091169063bf40fac190612d3e90600401614bcc565b602060405180830381865afa158015612d5b573d6000803e3d6000fd5b505050506040513d601f19601f82011682018060405250810190612d7f91906148a1565b60405163988b1fa760e01b81526001600160a01b0385811660048301529192509082169063988b1fa790602401611fd8565b60606000600260009054906101000a90046001600160a01b03166001600160a01b03166377d792196040518163ffffffff1660e01b8152600401600060405180830381865afa158015612e08573d6000803e3d6000fd5b505050506040513d6000823e601f3d908101601f19168201604052612e309190810190614c0d565b905060005b8151811015612f41576000828281518110612e5257612e5261488b565b60200260200101519050856001600160a01b031681600001516001600160a01b03161415612ebe57805160408083015160609384015182516001600160a01b03948516602082015293909116838301528284015280518083039093018352608090910190529250612f41565b856001600160a01b031681602001516001600160a01b03161415612f2e57806020015181604001518260600151604051602001612f1c939291906001600160a01b039384168152919092166020820152604081019190915260600190565b60405160208183030381529060405293505b5080612f39816148be565b915050612e35565b505092915050565b60604660381415612fad5760405173af16cb45b8149da403af41c63abfebfbcd16264b9073522348779dcb2911539e76a1042aa922f9c47ee390612f9590869084908490602001614ba9565b604051602081830303815290604052925050506103c5565b73e45589fbad3a1fb90f5b2a8a3e8958a8bab5f768734f1885d25ef219d3d4fa064809d6d4985fab9a0b738870f7102f1dcb1c35b01af10f1baf1b00ad6805733d312b224dec414fe865e1e9bfc13e2a86947d19738146293bf5225b471625372e985fdb7165c35fe26001600160a01b038816851415613095576000846001600160a01b0316886001600160a01b0316141561304a575081613067565b836001600160a01b0316886001600160a01b031614156130675750805b8081898a60405160200161307e9493929190614ce7565b60405160208183030381529060405296505061310d565b836001600160a01b0316886001600160a01b031614156130dc57878289876040516020016130c69493929190614ce7565b604051602081830303815290604052955061310d565b826001600160a01b0316886001600160a01b0316141561310d5787818987604051602001611e299493929190614ce7565b505050505092915050565b604080516001600160a01b03831660208201526060910161230e565b60025460405163bf40fac160e01b815260206004820152601960248201527823a0a6a6a0afa0a623a2a12920afa9aba0a82fa927aaaa22a960391b60448201526060916000916001600160a01b039091169063bf40fac190606401602060405180830381865afa1580156131ac573d6000803e3d6000fd5b505050506040513d601f19601f820116820180604052508101906131d091906148a1565b60025460405163bf40fac160e01b815260206004820152601760248201527f47414d4d415f414c47454252415f554e495f50524f585900000000000000000060448201529192506000916001600160a01b039091169063bf40fac1906064015b602060405180830381865afa15801561324d573d6000803e3d6000fd5b505050506040513d601f19601f8201168201806040525081019061327191906148a1565b6040519091508490612cf090849084908490602001614ba9565b60025460405163bf40fac160e01b815260206004820152601c60248201527f47414d4d415f554e49535741505f56335f535741505f524f555445520000000060448201526060916000916001600160a01b039091169063bf40fac190606401602060405180830381865afa158015613307573d6000803e3d6000fd5b505050506040513d601f19601f8201168201806040525081019061332b91906148a1565b60025460405163bf40fac160e01b815260206004820152601a60248201527f47414d4d415f554e49535741505f56335f554e495f50524f585900000000000060448201529192506000916001600160a01b039091169063bf40fac190606401613230565b60025460405163bf40fac160e01b81526060916000916001600160a01b039091169063bf40fac1906133c39060040161499e565b602060405180830381865afa1580156133e0573d6000803e3d6000fd5b505050506040513d601f19601f8201168201806040525081019061340491906148a1565b6040805160018082528183019092529192508491600091816020015b604080516060810182526000808252602080830182905292820152825260001990920191018161342057505060408051600180825281830190925291925060009190602082015b60408051606081018252600080825260208083018290529282015282526000199092019101816134675790505090506000876001600160a01b0316846001600160a01b0316630dfe16816040518163ffffffff1660e01b8152600401602060405180830381865afa1580156134e0573d6000803e3d6000fd5b505050506040513d601f19601f8201168201806040525081019061350491906148a1565b6001600160a01b03161490506000886001600160a01b0316856001600160a01b031663d21220a76040518163ffffffff1660e01b8152600401602060405180830381865afa15801561355a573d6000803e3d6000fd5b505050506040513d601f19601f8201168201806040525081019061357e91906148a1565b6001600160a01b031614905081806135935750805b6135df5760405162461bcd60e51b815260206004820152601b60248201527f21696e70757420746f6b656e206e6f7420756e6465726c79696e6700000000006044820152606401610479565b846001600160a01b03166322be3de16040518163ffffffff1660e01b8152600401602060405180830381865afa15801561361d573d6000803e3d6000fd5b505050506040513d601f19601f8201168201806040525081019061364191906149ef565b846000815181106136545761365461488b565b60200260200101516040019015159081151581525050846001600160a01b0316630dfe16816040518163ffffffff1660e01b8152600401602060405180830381865afa1580156136a8573d6000803e3d6000fd5b505050506040513d601f19601f820116820180604052508101906136cc91906148a1565b846000815181106136df576136df61488b565b6020026020010151600001906001600160a01b031690816001600160a01b031681525050846001600160a01b031663d21220a76040518163ffffffff1660e01b8152600401602060405180830381865afa158015613741573d6000803e3d6000fd5b505050506040513d601f19601f8201168201806040525081019061376591906148a1565b846000815181106137785761377861488b565b6020026020010151602001906001600160a01b031690816001600160a01b031681525050846001600160a01b03166322be3de16040518163ffffffff1660e01b8152600401602060405180830381865afa1580156137da573d6000803e3d6000fd5b505050506040513d601f19601f820116820180604052508101906137fe91906149ef565b836000815181106138115761381161488b565b60200260200101516040019015159081151581525050846001600160a01b031663d21220a76040518163ffffffff1660e01b8152600401602060405180830381865afa158015613865573d6000803e3d6000fd5b505050506040513d601f19601f8201168201806040525081019061388991906148a1565b8360008151811061389c5761389c61488b565b6020026020010151600001906001600160a01b031690816001600160a01b031681525050846001600160a01b0316630dfe16816040518163ffffffff1660e01b8152600401602060405180830381865afa1580156138fe573d6000803e3d6000fd5b505050506040513d601f19601f8201168201806040525081019061392291906148a1565b836000815181106139355761393561488b565b6020026020010151602001906001600160a01b031690816001600160a01b0316815250505050838383836040516020016139729493929190614d66565b60405160208183030381529060405294505050505092915050565b600080826001600160a01b031663313ce5676040518163ffffffff1660e01b8152600401602060405180830381865afa1580156139ce573d6000803e3d6000fd5b505050506040513d601f19601f820116820180604052508101906139f29190614da4565b60ff1690506012811115613a2557613a0b601282614931565b613a1690600a614eab565b613a209085614948565b613a45565b613a30816012614931565b613a3b90600a614eab565b613a459085614912565b949350505050565b606081600001805480602002602001604051908101604052809291908181526020018280548015613a9d57602002820191906000526020600020905b815481526020019060010190808311613a89575b50505050509050919050565b6000613afe826040518060400160405280602081526020017f5361666545524332303a206c6f772d6c6576656c2063616c6c206661696c6564815250856001600160a01b03166142329092919063ffffffff16565b8051909150156118b05780806020019051810190613b1c91906149ef565b6118b05760405162461bcd60e51b815260206004820152602a60248201527f5361666545524332303a204552433230206f7065726174696f6e20646964206e6044820152691bdd081cdd58d8d9595960b21b6064820152608401610479565b6000806000613bd8856310badf4e60e01b898988604051602401613ba193929190614eb7565b60408051601f198184030181529190526020810180516001600160e01b03166001600160e01b031990931692909217909152614241565b905080806020019051810190613bee9190614ede565b925092505094509492505050565b60025460405163bf40fac160e01b815260206004820152601260248201527124aab734b9bbb0b82b192937baba32b9181960711b60448201526000916001600160a01b03169063bf40fac190606401602060405180830381865afa158015613c68573d6000803e3d6000fd5b505050506040513d601f19601f820116820180604052508101906103c591906148a1565b6001600160a01b038083166000908152600e60209081526040808320858516845290915281205490911680613ce557506001600160a01b038083166000908152600e602090815260408083208785168452909152902054165b6001600160a01b03811615613cfb5790506103c5565b60025460405163bf40fac160e01b81526020600482015260116024820152702aa724a9aba0a82fab19afa927aaaa22a960791b60448201526001600160a01b039091169063bf40fac190606401602060405180830381865afa158015613d65573d6000803e3d6000fd5b505050506040513d601f19601f82011682018060405250810190613d8991906148a1565b9150506103c5565b6000805b8351811015613dec57826001600160a01b0316848281518110613dba57613dba61488b565b60200260200101516001600160a01b03161415613dda57829150506103c5565b80613de4816148be565b915050613d95565b5060025460405163bf40fac160e01b81526000916001600160a01b03169063bf40fac190613e1c90600401614b89565b602060405180830381865afa158015613e39573d6000803e3d6000fd5b505050506040513d601f19601f82011682018060405250810190613e5d91906148a1565b905060005b8451811015613eb857816001600160a01b0316858281518110613e8757613e8761488b565b60200260200101516001600160a01b03161415613ea6575090506103c5565b80613eb0816148be565b915050613e62565b5060025460405163bf40fac160e01b815260206004820152600b60248201526a39ba30b13632aa37b5b2b760a91b60448201526000916001600160a01b03169063bf40fac190606401602060405180830381865afa158015613f1e573d6000803e3d6000fd5b505050506040513d601f19601f82011682018060405250810190613f4291906148a1565b905060005b8551811015613f9f57816001600160a01b0316868281518110613f6c57613f6c61488b565b60200260200101516001600160a01b03161415613f8d575091506103c59050565b80613f97816148be565b915050613f47565b5060025460405163bf40fac160e01b81526020600482015260096024820152683ba12a21aa37b5b2b760b91b60448201526000916001600160a01b03169063bf40fac190606401602060405180830381865afa158015614003573d6000803e3d6000fd5b505050506040513d601f19601f8201168201806040525081019061402791906148a1565b905060005b865181101561408557816001600160a01b03168782815181106140515761405161488b565b60200260200101516001600160a01b03161415614073575092506103c5915050565b8061407d816148be565b91505061402c565b50856000815181106140995761409961488b565b6020026020010151935050505092915050565b606060005b60405163c661065760e01b815260ff821660048201526001600160a01b0384169063c661065790602401602060405180830381865afa925050508015614114575060408051601f3d908101601f19168201909252614111918101906148a1565b60015b61411d57614130565b5080614128816148d9565b9150506140b1565b8060ff1667ffffffffffffffff81111561414c5761414c6146b2565b604051908082528060200260200182016040528015614175578160200160208202803683370190505b50915060005b8160ff1681101561422b5760405163c661065760e01b8152600481018290526001600160a01b0385169063c661065790602401602060405180830381865afa1580156141cb573d6000803e3d6000fd5b505050506040513d601f19601f820116820180604052508101906141ef91906148a1565b8382815181106142015761420161488b565b6001600160a01b039092166020928302919091019091015280614223816148be565b91505061417b565b5050919050565b6060613a458484600085614335565b60606001600160a01b0383163b6142a95760405162461bcd60e51b815260206004820152602660248201527f416464726573733a2064656c65676174652063616c6c20746f206e6f6e2d636f6044820152651b9d1c9858dd60d21b6064820152608401610479565b600080846001600160a01b0316846040516142c49190614982565b600060405180830381855af49150503d80600081146142ff576040519150601f19603f3d011682016040523d82523d6000602084013e614304565b606091505b509150915061432c8282604051806060016040528060278152602001614f2060279139614410565b95945050505050565b6060824710156143965760405162461bcd60e51b815260206004820152602660248201527f416464726573733a20696e73756666696369656e742062616c616e636520666f6044820152651c8818d85b1b60d21b6064820152608401610479565b600080866001600160a01b031685876040516143b29190614982565b60006040518083038185875af1925050503d80600081146143ef576040519150601f19603f3d011682016040523d82523d6000602084013e6143f4565b606091505b509150915061440587838387614449565b979650505050505050565b6060831561441f575081610426565b82511561442f5782518084602001fd5b8160405162461bcd60e51b81526004016104799190614f0c565b606083156144b55782516144ae576001600160a01b0385163b6144ae5760405162461bcd60e51b815260206004820152601d60248201527f416464726573733a2063616c6c20746f206e6f6e2d636f6e74726163740000006044820152606401610479565b5081613a45565b613a4583838151156144ca5781518083602001fd5b8060405162461bcd60e51b81526004016104799190614f0c565b6001600160a01b03811681146104f957600080fd5b6000806040838503121561450c57600080fd5b8235614517816144e4565b91506020830135614527816144e4565b809150509250929050565b60006020828403121561454457600080fd5b8135610426816144e4565b600081518084526020808501945080840160005b838110156145885781516001600160a01b031687529582019590820190600101614563565b509495945050505050565b602081526000610426602083018461454f565b6000806000606084860312156145bb57600080fd5b83356145c6816144e4565b92506020840135915060408401356145dd816144e4565b809150509250925092565b6020808252825182820181905260009190848201906040850190845b8181101561462a5783516001600160e01b03191683529284019291840191600101614604565b50909695505050505050565b60005b83811015614651578181015183820152602001614639565b838111156116b85750506000910152565b6000815180845261467a816020860160208601614636565b601f01601f19169290920160200192915050565b6001600160a01b0383168152604060208201819052600090613a4590830184614662565b634e487b7160e01b600052604160045260246000fd5b6040516080810167ffffffffffffffff811182821017156146eb576146eb6146b2565b60405290565b604051601f8201601f1916810167ffffffffffffffff8111828210171561471a5761471a6146b2565b604052919050565b6000602080838503121561473557600080fd5b823567ffffffffffffffff8082111561474d57600080fd5b818501915085601f83011261476157600080fd5b813581811115614773576147736146b2565b614785601f8201601f191685016146f1565b9150808252868482850101111561479b57600080fd5b8084840185840137600090820190930192909252509392505050565b604080825283519082018190526000906020906060840190828701845b828110156147f95781516001600160a01b0316845292840192908401906001016147d4565b50505083810382850152845180825282820190600581901b8301840187850160005b8381101561484957601f19868403018552614837838351614662565b9487019492509086019060010161481b565b50909998505050505050505050565b634e487b7160e01b600052601160045260246000fd5b600060ff82168061488157614881614858565b6000190192915050565b634e487b7160e01b600052603260045260246000fd5b6000602082840312156148b357600080fd5b8151610426816144e4565b60006000198214156148d2576148d2614858565b5060010190565b600060ff821660ff8114156148f0576148f0614858565b60010192915050565b60006020828403121561490b57600080fd5b5051919050565b600081600019048311821515161561492c5761492c614858565b500290565b60008282101561494357614943614858565b500390565b60008261496557634e487b7160e01b600052601260045260246000fd5b500490565b6000821982111561497d5761497d614858565b500190565b60008251614994818460208701614636565b9190910192915050565b60208082526013908201527229a7a624a2262cafa9aba0a82fa927aaaa22a960691b604082015260600190565b6001600160a01b039384168152919092166020820152901515604082015260600190565b600060208284031215614a0157600080fd5b8151801515811461042657600080fd5b60008060408385031215614a2457600080fd5b505080516020909101519092909150565b6001600160a01b038381168252604060208084018290528451918401829052600092858201929091906060860190855b81811015614a83578551851683529483019491830191600101614a65565b509098975050505050505050565b6001600160a01b0384168152606060208201819052600090614ab59083018561454f565b8281036040840152614ac7818561454f565b9695505050505050565b600067ffffffffffffffff821115614aeb57614aeb6146b2565b5060051b60200190565b60006020808385031215614b0857600080fd5b825167ffffffffffffffff811115614b1f57600080fd5b8301601f81018513614b3057600080fd5b8051614b43614b3e82614ad1565b6146f1565b81815260059190911b82018301908381019087831115614b6257600080fd5b928401925b82841015614405578351614b7a816144e4565b82529284019290840190614b67565b6020808252600690820152653bba37b5b2b760d11b604082015260600190565b6001600160a01b0393841681529183166020830152909116604082015260600190565b60208082526021908201527f43757276654c70546f6b656e50726963654f7261636c654e6f526567697374726040820152607960f81b606082015260800190565b60006020808385031215614c2057600080fd5b825167ffffffffffffffff811115614c3757600080fd5b8301601f81018513614c4857600080fd5b8051614c56614b3e82614ad1565b81815260079190911b82018301908381019087831115614c7557600080fd5b928401925b828410156144055760808489031215614c935760008081fd5b614c9b6146c8565b8451614ca6816144e4565b815284860151614cb5816144e4565b81870152604085810151614cc8816144e4565b9082015260608581015190820152825260809093019290840190614c7a565b6001600160a01b03948516815292841660208401529083166040830152909116606082015260800190565b600081518084526020808501945080840160005b8381101561458857815180516001600160a01b03908116895284820151168489015260409081015115159088015260609096019590820190600101614d26565b6001600160a01b03858116825284166020820152608060408201819052600090614d9290830185614d12565b82810360608401526144058185614d12565b600060208284031215614db657600080fd5b815160ff8116811461042657600080fd5b600181815b80851115614e02578160001904821115614de857614de8614858565b80851615614df557918102915b93841c9390800290614dcc565b509250929050565b600082614e19575060016103c5565b81614e26575060006103c5565b8160018114614e3c5760028114614e4657614e62565b60019150506103c5565b60ff841115614e5757614e57614858565b50506001821b6103c5565b5060208310610133831016604e8410600b8410161715614e85575081810a6103c5565b614e8f8383614dc7565b8060001904821115614ea357614ea3614858565b029392505050565b60006104268383614e0a565b60018060a01b038416815282602082015260606040820152600061432c6060830184614662565b60008060408385031215614ef157600080fd5b8251614efc816144e4565b6020939093015192949293505050565b602081526000610426602083018461466256fe416464726573733a206c6f772d6c6576656c2064656c65676174652063616c6c206661696c6564a164736f6c634300080a000a",
    "linkReferences": {}
  },
  "methodIdentifiers": {
    "MAX_SLIPPAGE()": "f9759518",
    "_getExtensionFunctions()": "89f8132e",
    "acceptOwnership()": "79ba5097",
    "amountOutAndSlippageOfSwap(address,uint256,address)": "f560cebd",
    "ap()": "3c4f743c",
    "customUniV3Router(address,address)": "c8ff6fee",
    "defaultOutputToken(address)": "8db87c27",
    "getAllRedemptionStrategies()": "a6fdd2bb",
    "getInputTokensByOutputToken(address)": "403de57f",
    "getRedemptionStrategies(address,address)": "ed287f3f",
    "getRedemptionStrategy(address,address)": "b6b928fd",
    "getSlippage(address,address)": "2f53ef2b",
    "owner()": "8da5cb5b",
    "pendingOwner()": "e30c3978",
    "redemptionStrategiesByName(string)": "dee7fe48",
    "redemptionStrategiesByTokens(address,address)": "a700f9e4",
    "renounceOwnership()": "715018a6",
    "swap(address,uint256,address)": "6d069a67",
    "transferOwnership(address)": "f2fde38b",
    "uniswapV3Fees(address,address)": "398cd955"
  }
}