{
  "address": "0xBF2FFc4DCA552b16fd67B6b55A2458E70D1D39f0",
  "abi": [
    {
      "inputs": [
        {
          "internalType": "bytes4",
          "name": "_functionSelector",
          "type": "bytes4"
        },
        {
          "internalType": "address",
          "name": "_currentImpl",
          "type": "address"
        }
      ],
      "name": "FunctionAlreadyAdded",
      "type": "error"
    },
    {
      "inputs": [
        {
          "internalType": "bytes4",
          "name": "_functionSelector",
          "type": "bytes4"
        }
      ],
      "name": "FunctionNotFound",
      "type": "error"
    },
    {
      "anonymous": false,
      "inputs": [
        {
          "indexed": true,
          "internalType": "address",
          "name": "previousOwner",
          "type": "address"
        },
        {
          "indexed": true,
          "internalType": "address",
          "name": "newOwner",
          "type": "address"
        }
      ],
      "name": "OwnershipTransferStarted",
      "type": "event"
    },
    {
      "anonymous": false,
      "inputs": [
        {
          "indexed": true,
          "internalType": "address",
          "name": "previousOwner",
          "type": "address"
        },
        {
          "indexed": true,
          "internalType": "address",
          "name": "newOwner",
          "type": "address"
        }
      ],
      "name": "OwnershipTransferred",
      "type": "event"
    },
    {
      "stateMutability": "nonpayable",
      "type": "fallback"
    },
    {
      "inputs": [],
      "name": "DECIMAL_OFFSET",
      "outputs": [
        {
          "internalType": "uint8",
          "name": "",
          "type": "uint8"
        }
      ],
      "stateMutability": "view",
      "type": "function"
    },
    {
      "inputs": [],
      "name": "_listExtensions",
      "outputs": [
        {
          "internalType": "address[]",
          "name": "",
          "type": "address[]"
        }
      ],
      "stateMutability": "view",
      "type": "function"
    },
    {
      "inputs": [
        {
          "internalType": "contract DiamondExtension",
          "name": "extensionToAdd",
          "type": "address"
        },
        {
          "internalType": "contract DiamondExtension",
          "name": "extensionToReplace",
          "type": "address"
        }
      ],
      "name": "_registerExtension",
      "outputs": [],
      "stateMutability": "nonpayable",
      "type": "function"
    },
    {
      "inputs": [],
      "name": "acceptOwnership",
      "outputs": [],
      "stateMutability": "nonpayable",
      "type": "function"
    },
    {
      "inputs": [
        {
          "internalType": "uint256",
          "name": "",
          "type": "uint256"
        }
      ],
      "name": "adapters",
      "outputs": [
        {
          "internalType": "contract CompoundMarketERC4626",
          "name": "adapter",
          "type": "address"
        },
        {
          "internalType": "uint64",
          "name": "allocation",
          "type": "uint64"
        }
      ],
      "stateMutability": "view",
      "type": "function"
    },
    {
      "inputs": [],
      "name": "adaptersCount",
      "outputs": [
        {
          "internalType": "uint8",
          "name": "",
          "type": "uint8"
        }
      ],
      "stateMutability": "view",
      "type": "function"
    },
    {
      "inputs": [],
      "name": "asFirstExtension",
      "outputs": [
        {
          "internalType": "contract OptimizedAPRVaultFirstExtension",
          "name": "",
          "type": "address"
        }
      ],
      "stateMutability": "view",
      "type": "function"
    },
    {
      "inputs": [],
      "name": "asSecondExtension",
      "outputs": [
        {
          "internalType": "contract OptimizedAPRVaultSecondExtension",
          "name": "",
          "type": "address"
        }
      ],
      "stateMutability": "view",
      "type": "function"
    },
    {
      "inputs": [],
      "name": "assetsCheckpoint",
      "outputs": [
        {
          "internalType": "uint256",
          "name": "",
          "type": "uint256"
        }
      ],
      "stateMutability": "view",
      "type": "function"
    },
    {
      "inputs": [],
      "name": "depositLimit",
      "outputs": [
        {
          "internalType": "uint256",
          "name": "",
          "type": "uint256"
        }
      ],
      "stateMutability": "view",
      "type": "function"
    },
    {
      "inputs": [],
      "name": "emergencyExit",
      "outputs": [
        {
          "internalType": "bool",
          "name": "",
          "type": "bool"
        }
      ],
      "stateMutability": "view",
      "type": "function"
    },
    {
      "inputs": [],
      "name": "feeRecipient",
      "outputs": [
        {
          "internalType": "address",
          "name": "",
          "type": "address"
        }
      ],
      "stateMutability": "view",
      "type": "function"
    },
    {
      "inputs": [],
      "name": "fees",
      "outputs": [
        {
          "internalType": "uint64",
          "name": "deposit",
          "type": "uint64"
        },
        {
          "internalType": "uint64",
          "name": "withdrawal",
          "type": "uint64"
        },
        {
          "internalType": "uint64",
          "name": "management",
          "type": "uint64"
        },
        {
          "internalType": "uint64",
          "name": "performance",
          "type": "uint64"
        }
      ],
      "stateMutability": "view",
      "type": "function"
    },
    {
      "inputs": [],
      "name": "feesUpdatedAt",
      "outputs": [
        {
          "internalType": "uint256",
          "name": "",
          "type": "uint256"
        }
      ],
      "stateMutability": "view",
      "type": "function"
    },
    {
      "inputs": [
        {
          "internalType": "contract IERC20Upgradeable",
          "name": "",
          "type": "address"
        }
      ],
      "name": "flywheelForRewardToken",
      "outputs": [
        {
          "internalType": "contract IonicFlywheel",
          "name": "",
          "type": "address"
        }
      ],
      "stateMutability": "view",
      "type": "function"
    },
    {
      "inputs": [],
      "name": "flywheelLogic",
      "outputs": [
        {
          "internalType": "address",
          "name": "",
          "type": "address"
        }
      ],
      "stateMutability": "view",
      "type": "function"
    },
    {
      "inputs": [],
      "name": "highWaterMark",
      "outputs": [
        {
          "internalType": "uint256",
          "name": "",
          "type": "uint256"
        }
      ],
      "stateMutability": "view",
      "type": "function"
    },
    {
      "inputs": [
        {
          "internalType": "contract OptimizedAPRVaultExtension[]",
          "name": "extensions",
          "type": "address[]"
        },
        {
          "internalType": "bytes",
          "name": "initData",
          "type": "bytes"
        }
      ],
      "name": "initialize",
      "outputs": [],
      "stateMutability": "nonpayable",
      "type": "function"
    },
    {
      "inputs": [
        {
          "internalType": "address",
          "name": "",
          "type": "address"
        }
      ],
      "name": "nonces",
      "outputs": [
        {
          "internalType": "uint256",
          "name": "",
          "type": "uint256"
        }
      ],
      "stateMutability": "view",
      "type": "function"
    },
    {
      "inputs": [],
      "name": "owner",
      "outputs": [
        {
          "internalType": "address",
          "name": "",
          "type": "address"
        }
      ],
      "stateMutability": "view",
      "type": "function"
    },
    {
      "inputs": [],
      "name": "pendingOwner",
      "outputs": [
        {
          "internalType": "address",
          "name": "",
          "type": "address"
        }
      ],
      "stateMutability": "view",
      "type": "function"
    },
    {
      "inputs": [],
      "name": "proposedAdapterTime",
      "outputs": [
        {
          "internalType": "uint256",
          "name": "",
          "type": "uint256"
        }
      ],
      "stateMutability": "view",
      "type": "function"
    },
    {
      "inputs": [
        {
          "internalType": "uint256",
          "name": "",
          "type": "uint256"
        }
      ],
      "name": "proposedAdapters",
      "outputs": [
        {
          "internalType": "contract CompoundMarketERC4626",
          "name": "adapter",
          "type": "address"
        },
        {
          "internalType": "uint64",
          "name": "allocation",
          "type": "uint64"
        }
      ],
      "stateMutability": "view",
      "type": "function"
    },
    {
      "inputs": [],
      "name": "proposedAdaptersCount",
      "outputs": [
        {
          "internalType": "uint8",
          "name": "",
          "type": "uint8"
        }
      ],
      "stateMutability": "view",
      "type": "function"
    },
    {
      "inputs": [],
      "name": "proposedFeeTime",
      "outputs": [
        {
          "internalType": "uint256",
          "name": "",
          "type": "uint256"
        }
      ],
      "stateMutability": "view",
      "type": "function"
    },
    {
      "inputs": [],
      "name": "proposedFees",
      "outputs": [
        {
          "internalType": "uint64",
          "name": "deposit",
          "type": "uint64"
        },
        {
          "internalType": "uint64",
          "name": "withdrawal",
          "type": "uint64"
        },
        {
          "internalType": "uint64",
          "name": "management",
          "type": "uint64"
        },
        {
          "internalType": "uint64",
          "name": "performance",
          "type": "uint64"
        }
      ],
      "stateMutability": "view",
      "type": "function"
    },
    {
      "inputs": [],
      "name": "quitPeriod",
      "outputs": [
        {
          "internalType": "uint256",
          "name": "",
          "type": "uint256"
        }
      ],
      "stateMutability": "view",
      "type": "function"
    },
    {
      "inputs": [],
      "name": "registry",
      "outputs": [
        {
          "internalType": "contract OptimizedVaultsRegistry",
          "name": "",
          "type": "address"
        }
      ],
      "stateMutability": "view",
      "type": "function"
    },
    {
      "inputs": [],
      "name": "renounceOwnership",
      "outputs": [],
      "stateMutability": "nonpayable",
      "type": "function"
    },
    {
      "inputs": [
        {
          "internalType": "uint256",
          "name": "",
          "type": "uint256"
        }
      ],
      "name": "rewardTokens",
      "outputs": [
        {
          "internalType": "contract IERC20Upgradeable",
          "name": "",
          "type": "address"
        }
      ],
      "stateMutability": "view",
      "type": "function"
    },
    {
      "inputs": [
        {
          "internalType": "address",
          "name": "newOwner",
          "type": "address"
        }
      ],
      "name": "transferOwnership",
      "outputs": [],
      "stateMutability": "nonpayable",
      "type": "function"
    },
    {
      "inputs": [],
      "name": "upgradeVault",
      "outputs": [],
      "stateMutability": "nonpayable",
      "type": "function"
    },
    {
      "inputs": [],
      "name": "withdrawalThreshold",
      "outputs": [
        {
          "internalType": "uint256",
          "name": "",
          "type": "uint256"
        }
      ],
      "stateMutability": "view",
      "type": "function"
    }
  ],
  "transactionHash": "0xf4f6d331fcdafc90903112fa207a1884fd6d91c2814136ddc6307fcefa9b15cc",
  "args": [],
  "numDeployments": 1,
  "solcInputHash": "00a65ff38d425e65f29b5f926863c5c0",
  "bytecode": "0x608060405234801561001057600080fd5b5061001a3361001f565b61008b565b600180546001600160a01b03191690556100388161003b565b50565b600080546001600160a01b038381166001600160a01b0319831681178455604051919092169283917f8be0079c531659141344cd1fd0a4f28419497f9722a3daafe3b4186f6b6457e09190a35050565b6115788061009a6000396000f3fe608060405234801561001057600080fd5b50600436106101fb5760003560e01c80638787b17a1161011a578063d96880a8116100ad578063e69e24a81161007c578063e69e24a8146104bd578063ecf70858146104d0578063f2fde38b146104d9578063f62f1d53146104ec578063f9828cff14610515576101fb565b8063d96880a814610492578063daa671ac1461049b578063de7d4d6a146104a4578063e30c3978146104ac576101fb565b80639f3d0a48116100e95780639f3d0a4814610464578063a71933a71461046d578063ac11f2121461047f578063b542114c146102bb576101fb565b80638787b17a146103d057806389cd9855146103d95780638da5cb5b146103ec5780639af1d35a146103fd576101fb565b80636333d001116101925780637b103999116101615780637b1039991461036b5780637bb7bed11461037e5780637c7a561b146103915780637ecebe00146103b0576101fb565b80636333d0011461033d578063715018a6146103525780637985fd511461035a57806379ba509714610363576101fb565b806349d4139f116101ce57806349d4139f146102d45780634ef501ac146102dd5780634fa64598146103185780635641ec0314610320576101fb565b80630f25b764146102745780631e8410da146102a4578063338859f6146102bb57806346904840146102c1575b60006102126000356001600160e01b031916610548565b90506001600160a01b03811661024e57604051630a82dd7360e31b81526001600160e01b03196000351660048201526024015b60405180910390fd5b3660008037600080366000845af43d6000803e80801561026d573d6000f35b3d6000fd5b005b602a54610287906001600160a01b031681565b6040516001600160a01b0390911681526020015b60405180910390f35b6102ad60045481565b60405190815260200161029b565b30610287565b600a54610287906001600160a01b031681565b6102ad60215481565b6102f06102eb366004611104565b610568565b604080516001600160a01b03909316835267ffffffffffffffff90911660208301520161029b565b61027261059a565b60265461032d9060ff1681565b604051901515815260200161029b565b610345610693565b60405161029b919061111d565b6102726106a2565b6102ad60275481565b6102726106f2565b602854610287906001600160a01b031681565b61028761038c366004611104565b61076c565b601f5461039e9060ff1681565b60405160ff909116815260200161029b565b6102ad6103be36600461117f565b60256020526000908152604090205481565b6102ad60205481565b6102726103e73660046111a3565b610796565b6000546001600160a01b0316610287565b6007546104309067ffffffffffffffff80821691600160401b8104821691600160801b8204811691600160c01b90041684565b6040805167ffffffffffffffff9586168152938516602085015291841691830191909152909116606082015260800161029b565b6102ad60065481565b601f5461039e90610100900460ff1681565b6102f061048d366004611104565b6107fe565b6102ad60095481565b6102ad60055481565b61039e600981565b6001546001600160a01b0316610287565b6102726104cb3660046111dc565b61080e565b6102ad60225481565b6102726104e736600461117f565b6108b8565b6102876104fa36600461117f565b6029602052600090815260409020546001600160a01b031681565b6008546104309067ffffffffffffffff80821691600160401b8104821691600160801b8204811691600160c01b90041684565b600061056282600080516020611523833981519152610929565b92915050565b600b81600a811061057857600080fd5b01546001600160a01b0381169150600160a01b900467ffffffffffffffff1682565b6105a26109c4565b60006105ac610a20565b905060005b81518110156105e4576105dc8282815181106105cf576105cf6112a1565b6020026020010151610a92565b6001016105b1565b5060285460405163d9d1764560e01b81523060048201526000916001600160a01b03169063d9d1764590602401600060405180830381865afa15801561062e573d6000803e3d6000fd5b505050506040513d6000823e601f3d908101601f191682016040526106569190810190611322565b905060005b815181101561068e57610686828281518110610679576106796112a1565b6020026020010151610bc1565b60010161065b565b505050565b606061069d610a20565b905090565b6106aa6109c4565b60405162461bcd60e51b815260206004820152601e60248201527f72656e6f756e6365206f776e657273686970206e6f7420616c6c6f77656400006044820152606401610245565b60015433906001600160a01b031681146107605760405162461bcd60e51b815260206004820152602960248201527f4f776e61626c6532537465703a2063616c6c6572206973206e6f7420746865206044820152683732bb9037bbb732b960b91b6064820152608401610245565b61076981610cb8565b50565b602b818154811061077c57600080fd5b6000918252602090912001546001600160a01b0316905081565b6000546001600160a01b031633146107f05760405162461bcd60e51b815260206004820152601f60248201527f21756e617574686f72697a6564202d206e6f2061646d696e20726967687473006044820152606401610245565b6107fa8282610cd1565b5050565b601581600a811061057857600080fd5b6108166109c4565b60005b8381101561085a57610852858583818110610836576108366112a1565b905060200201602081019061084b919061117f565b6000610cd1565b600101610819565b5060405163439fab9160e01b8152309063439fab919061088090859085906004016113c1565b600060405180830381600087803b15801561089a57600080fd5b505af11580156108ae573d6000803e3d6000fd5b5050505050505050565b6108c06109c4565b600180546001600160a01b0383166001600160a01b031990911681179091556108f16000546001600160a01b031690565b6001600160a01b03167f38d16b8cac22d99fc7c124b9cd0de2d3fa1faef420bfe791d8c362d765e2270060405160405180910390a350565b8054600090815b818110156109b957846001600160e01b031916846000018281548110610958576109586112a1565b600091825260209091200154600160a01b900460e01b6001600160e01b031916036109b157836000018181548110610992576109926112a1565b6000918252602090912001546001600160a01b03169250610562915050565b600101610930565b506000949350505050565b6000546001600160a01b03163314610a1e5760405162461bcd60e51b815260206004820181905260248201527f4f776e61626c653a2063616c6c6572206973206e6f7420746865206f776e65726044820152606401610245565b565b6060600080516020611523833981519152600101805480602002602001604051908101604052809291908181526020018280548015610a8857602002820191906000526020600020905b81546001600160a01b03168152600190910190602001808311610a6a575b5050505050905090565b600080516020611523833981519152610aaa82610cf2565b60005b600182015460ff8216101561068e57826001600160a01b0316826001018260ff1681548110610ade57610ade6112a1565b6000918252602090912001546001600160a01b031603610baf57600180830180549091610b0a91611406565b81548110610b1a57610b1a6112a1565b6000918252602090912001546001830180546001600160a01b039092169160ff8416908110610b4b57610b4b6112a1565b9060005260206000200160006101000a8154816001600160a01b0302191690836001600160a01b0316021790555081600101805480610b8c57610b8c611419565b600082815260209020810160001990810180546001600160a01b03191690550190555b80610bb98161142f565b915050610aad565b60008051602061152383398151915260005b600182015460ff82161015610c7857826001600160a01b0316826001018260ff1681548110610c0457610c046112a1565b6000918252602090912001546001600160a01b031603610c665760405162461bcd60e51b815260206004820152601760248201527f657874656e73696f6e20616c72656164792061646465640000000000000000006044820152606401610245565b80610c708161142f565b915050610bd3565b50610c8282610eb7565b6001908101805491820181556000908152602090200180546001600160a01b0319166001600160a01b0392909216919091179055565b600180546001600160a01b031916905561076981611037565b6001600160a01b03811615610ce957610ce981610a92565b6107fa82610bc1565b6000816001600160a01b03166389f8132e6040518163ffffffff1660e01b8152600401600060405180830381865afa158015610d32573d6000803e3d6000fd5b505050506040513d6000823e601f3d908101601f19168201604052610d5a919081019061144e565b905060008051602061152383398151915260005b82518161ffff161015610eb1576000838261ffff1681518110610d9357610d936112a1565b60200260200101519050610da78184610929565b6001600160a01b0316856001600160a01b031614610dc757610dc76114eb565b6000610dd38285611087565b84549091508490610de690600190611406565b81548110610df657610df66112a1565b90600052602060002001846000018261ffff1681548110610e1957610e196112a1565b600091825260209091208254910180546001600160a01b039092166001600160a01b031983168117825592546001600160c01b0319909216909217600160a01b9182900463ffffffff169091021790558354849080610e7a57610e7a611419565b600082815260209020810160001990810180546001600160c01b031916905501905550819050610ea981611501565b915050610d6e565b50505050565b6000816001600160a01b03166389f8132e6040518163ffffffff1660e01b8152600401600060405180830381865afa158015610ef7573d6000803e3d6000fd5b505050506040513d6000823e601f3d908101601f19168201604052610f1f919081019061144e565b60008051602061152383398151915280549192509060005b8351811015611030576000848281518110610f5457610f546112a1565b602002602001015190506000610f6a8286610929565b90506001600160a01b03811615610faf57604051632c18df3360e01b81526001600160e01b0319831660048201526001600160a01b0382166024820152604401610245565b604080518082019091526001600160a01b0380891682526001600160e01b0319841660208084019182528854600181018a5560008a815291909120935193018054915160e01c600160a01b026001600160c01b031990921693909216929092179190911790558361101f81611501565b94505060019092019150610f379050565b5050505050565b600080546001600160a01b038381166001600160a01b0319831681178455604051919092169283917f8be0079c531659141344cd1fd0a4f28419497f9722a3daafe3b4186f6b6457e09190a35050565b8054600090815b8161ffff168161ffff1610156110f857846001600160e01b031916846000018261ffff16815481106110c2576110c26112a1565b600091825260209091200154600160a01b900460e01b6001600160e01b031916036110f05791506105629050565b60010161108e565b5061ffff949350505050565b60006020828403121561111657600080fd5b5035919050565b6020808252825182820181905260009190848201906040850190845b8181101561115e5783516001600160a01b031683529284019291840191600101611139565b50909695505050505050565b6001600160a01b038116811461076957600080fd5b60006020828403121561119157600080fd5b813561119c8161116a565b9392505050565b600080604083850312156111b657600080fd5b82356111c18161116a565b915060208301356111d18161116a565b809150509250929050565b600080600080604085870312156111f257600080fd5b843567ffffffffffffffff8082111561120a57600080fd5b818701915087601f83011261121e57600080fd5b81358181111561122d57600080fd5b8860208260051b850101111561124257600080fd5b60209283019650945090860135908082111561125d57600080fd5b818701915087601f83011261127157600080fd5b81358181111561128057600080fd5b88602082850101111561129257600080fd5b95989497505060200194505050565b634e487b7160e01b600052603260045260246000fd5b634e487b7160e01b600052604160045260246000fd5b604051601f8201601f1916810167ffffffffffffffff811182821017156112f6576112f66112b7565b604052919050565b600067ffffffffffffffff821115611318576113186112b7565b5060051b60200190565b6000602080838503121561133557600080fd5b825167ffffffffffffffff81111561134c57600080fd5b8301601f8101851361135d57600080fd5b805161137061136b826112fe565b6112cd565b81815260059190911b8201830190838101908783111561138f57600080fd5b928401925b828410156113b65783516113a78161116a565b82529284019290840190611394565b979650505050505050565b60208152816020820152818360408301376000818301604090810191909152601f909201601f19160101919050565b634e487b7160e01b600052601160045260246000fd5b81810381811115610562576105626113f0565b634e487b7160e01b600052603160045260246000fd5b600060ff821660ff8103611445576114456113f0565b60010192915050565b6000602080838503121561146157600080fd5b825167ffffffffffffffff81111561147857600080fd5b8301601f8101851361148957600080fd5b805161149761136b826112fe565b81815260059190911b820183019083810190878311156114b657600080fd5b928401925b828410156113b65783516001600160e01b0319811681146114dc5760008081fd5b825292840192908401906114bb565b634e487b7160e01b600052600160045260246000fd5b600061ffff808316818103611518576115186113f0565b600101939250505056fe234c809385eaba7c8e68b2a08341f3988117f4f9fae0fac38df439aa440b2615a264697066735822122012bbbbcca2684f09d4af377240a3d2baccff5b5b317fb4926a0fbcb84570497a64736f6c63430008160033",
  "devdoc": {
    "kind": "dev",
    "methods": {
      "_registerExtension(address,address)": {
        "details": "register a logic extension",
        "params": {
          "extensionToAdd": "the extension whose functions are to be added",
          "extensionToReplace": "the extension whose functions are to be removed/replaced"
        }
      },
      "acceptOwnership()": {
        "details": "The new owner accepts the ownership transfer."
      },
      "owner()": {
        "details": "Returns the address of the current owner."
      },
      "pendingOwner()": {
        "details": "Returns the address of the pending owner."
      },
      "renounceOwnership()": {
        "details": "Leaves the contract without owner. It will not be possible to call `onlyOwner` functions anymore. Can only be called by the current owner. NOTE: Renouncing ownership will leave the contract without an owner, thereby removing any functionality that is only available to the owner."
      },
      "transferOwnership(address)": {
        "details": "Starts the ownership transfer of the contract to a new account. Replaces the pending transfer if there is one. Can only be called by the current owner."
      }
    },
    "version": 1
  },
  "userdoc": {
    "kind": "user",
    "methods": {},
    "version": 1
  },
  "storageLayout": {
    "storage": [
      {
        "astId": 7,
        "contract": "contracts/ionic/vault/OptimizedAPRVaultBase.sol:OptimizedAPRVaultBase",
        "label": "_owner",
        "offset": 0,
        "slot": "0",
        "type": "t_address"
      },
      {
        "astId": 120,
        "contract": "contracts/ionic/vault/OptimizedAPRVaultBase.sol:OptimizedAPRVaultBase",
        "label": "_pendingOwner",
        "offset": 0,
        "slot": "1",
        "type": "t_address"
      },
      {
        "astId": 58818,
        "contract": "contracts/ionic/vault/OptimizedAPRVaultBase.sol:OptimizedAPRVaultBase",
        "label": "_decimals",
        "offset": 20,
        "slot": "1",
        "type": "t_uint8"
      },
      {
        "astId": 58820,
        "contract": "contracts/ionic/vault/OptimizedAPRVaultBase.sol:OptimizedAPRVaultBase",
        "label": "_name",
        "offset": 0,
        "slot": "2",
        "type": "t_string_storage"
      },
      {
        "astId": 58822,
        "contract": "contracts/ionic/vault/OptimizedAPRVaultBase.sol:OptimizedAPRVaultBase",
        "label": "_symbol",
        "offset": 0,
        "slot": "3",
        "type": "t_string_storage"
      },
      {
        "astId": 58824,
        "contract": "contracts/ionic/vault/OptimizedAPRVaultBase.sol:OptimizedAPRVaultBase",
        "label": "highWaterMark",
        "offset": 0,
        "slot": "4",
        "type": "t_uint256"
      },
      {
        "astId": 58826,
        "contract": "contracts/ionic/vault/OptimizedAPRVaultBase.sol:OptimizedAPRVaultBase",
        "label": "assetsCheckpoint",
        "offset": 0,
        "slot": "5",
        "type": "t_uint256"
      },
      {
        "astId": 58828,
        "contract": "contracts/ionic/vault/OptimizedAPRVaultBase.sol:OptimizedAPRVaultBase",
        "label": "feesUpdatedAt",
        "offset": 0,
        "slot": "6",
        "type": "t_uint256"
      },
      {
        "astId": 58831,
        "contract": "contracts/ionic/vault/OptimizedAPRVaultBase.sol:OptimizedAPRVaultBase",
        "label": "fees",
        "offset": 0,
        "slot": "7",
        "type": "t_struct(VaultFees)54285_storage"
      },
      {
        "astId": 58834,
        "contract": "contracts/ionic/vault/OptimizedAPRVaultBase.sol:OptimizedAPRVaultBase",
        "label": "proposedFees",
        "offset": 0,
        "slot": "8",
        "type": "t_struct(VaultFees)54285_storage"
      },
      {
        "astId": 58836,
        "contract": "contracts/ionic/vault/OptimizedAPRVaultBase.sol:OptimizedAPRVaultBase",
        "label": "proposedFeeTime",
        "offset": 0,
        "slot": "9",
        "type": "t_uint256"
      },
      {
        "astId": 58838,
        "contract": "contracts/ionic/vault/OptimizedAPRVaultBase.sol:OptimizedAPRVaultBase",
        "label": "feeRecipient",
        "offset": 0,
        "slot": "10",
        "type": "t_address"
      },
      {
        "astId": 58843,
        "contract": "contracts/ionic/vault/OptimizedAPRVaultBase.sol:OptimizedAPRVaultBase",
        "label": "adapters",
        "offset": 0,
        "slot": "11",
        "type": "t_array(t_struct(AdapterConfig)58808_storage)10_storage"
      },
      {
        "astId": 58848,
        "contract": "contracts/ionic/vault/OptimizedAPRVaultBase.sol:OptimizedAPRVaultBase",
        "label": "proposedAdapters",
        "offset": 0,
        "slot": "21",
        "type": "t_array(t_struct(AdapterConfig)58808_storage)10_storage"
      },
      {
        "astId": 58850,
        "contract": "contracts/ionic/vault/OptimizedAPRVaultBase.sol:OptimizedAPRVaultBase",
        "label": "adaptersCount",
        "offset": 0,
        "slot": "31",
        "type": "t_uint8"
      },
      {
        "astId": 58852,
        "contract": "contracts/ionic/vault/OptimizedAPRVaultBase.sol:OptimizedAPRVaultBase",
        "label": "proposedAdaptersCount",
        "offset": 1,
        "slot": "31",
        "type": "t_uint8"
      },
      {
        "astId": 58854,
        "contract": "contracts/ionic/vault/OptimizedAPRVaultBase.sol:OptimizedAPRVaultBase",
        "label": "proposedAdapterTime",
        "offset": 0,
        "slot": "32",
        "type": "t_uint256"
      },
      {
        "astId": 58856,
        "contract": "contracts/ionic/vault/OptimizedAPRVaultBase.sol:OptimizedAPRVaultBase",
        "label": "quitPeriod",
        "offset": 0,
        "slot": "33",
        "type": "t_uint256"
      },
      {
        "astId": 58858,
        "contract": "contracts/ionic/vault/OptimizedAPRVaultBase.sol:OptimizedAPRVaultBase",
        "label": "depositLimit",
        "offset": 0,
        "slot": "34",
        "type": "t_uint256"
      },
      {
        "astId": 58860,
        "contract": "contracts/ionic/vault/OptimizedAPRVaultBase.sol:OptimizedAPRVaultBase",
        "label": "INITIAL_CHAIN_ID",
        "offset": 0,
        "slot": "35",
        "type": "t_uint256"
      },
      {
        "astId": 58862,
        "contract": "contracts/ionic/vault/OptimizedAPRVaultBase.sol:OptimizedAPRVaultBase",
        "label": "INITIAL_DOMAIN_SEPARATOR",
        "offset": 0,
        "slot": "36",
        "type": "t_bytes32"
      },
      {
        "astId": 58866,
        "contract": "contracts/ionic/vault/OptimizedAPRVaultBase.sol:OptimizedAPRVaultBase",
        "label": "nonces",
        "offset": 0,
        "slot": "37",
        "type": "t_mapping(t_address,t_uint256)"
      },
      {
        "astId": 58868,
        "contract": "contracts/ionic/vault/OptimizedAPRVaultBase.sol:OptimizedAPRVaultBase",
        "label": "emergencyExit",
        "offset": 0,
        "slot": "38",
        "type": "t_bool"
      },
      {
        "astId": 58870,
        "contract": "contracts/ionic/vault/OptimizedAPRVaultBase.sol:OptimizedAPRVaultBase",
        "label": "withdrawalThreshold",
        "offset": 0,
        "slot": "39",
        "type": "t_uint256"
      },
      {
        "astId": 58873,
        "contract": "contracts/ionic/vault/OptimizedAPRVaultBase.sol:OptimizedAPRVaultBase",
        "label": "registry",
        "offset": 0,
        "slot": "40",
        "type": "t_contract(OptimizedVaultsRegistry)59585"
      },
      {
        "astId": 58879,
        "contract": "contracts/ionic/vault/OptimizedAPRVaultBase.sol:OptimizedAPRVaultBase",
        "label": "flywheelForRewardToken",
        "offset": 0,
        "slot": "41",
        "type": "t_mapping(t_contract(IERC20Upgradeable)179087,t_contract(IonicFlywheel)50256)"
      },
      {
        "astId": 58881,
        "contract": "contracts/ionic/vault/OptimizedAPRVaultBase.sol:OptimizedAPRVaultBase",
        "label": "flywheelLogic",
        "offset": 0,
        "slot": "42",
        "type": "t_address"
      },
      {
        "astId": 58885,
        "contract": "contracts/ionic/vault/OptimizedAPRVaultBase.sol:OptimizedAPRVaultBase",
        "label": "rewardTokens",
        "offset": 0,
        "slot": "43",
        "type": "t_array(t_contract(IERC20Upgradeable)179087)dyn_storage"
      }
    ],
    "types": {
      "t_address": {
        "encoding": "inplace",
        "label": "address",
        "numberOfBytes": "20"
      },
      "t_array(t_contract(IERC20Upgradeable)179087)dyn_storage": {
        "base": "t_contract(IERC20Upgradeable)179087",
        "encoding": "dynamic_array",
        "label": "contract IERC20Upgradeable[]",
        "numberOfBytes": "32"
      },
      "t_array(t_struct(AdapterConfig)58808_storage)10_storage": {
        "base": "t_struct(AdapterConfig)58808_storage",
        "encoding": "inplace",
        "label": "struct AdapterConfig[10]",
        "numberOfBytes": "320"
      },
      "t_bool": {
        "encoding": "inplace",
        "label": "bool",
        "numberOfBytes": "1"
      },
      "t_bytes32": {
        "encoding": "inplace",
        "label": "bytes32",
        "numberOfBytes": "32"
      },
      "t_contract(CompoundMarketERC4626)48585": {
        "encoding": "inplace",
        "label": "contract CompoundMarketERC4626",
        "numberOfBytes": "20"
      },
      "t_contract(IERC20Upgradeable)179087": {
        "encoding": "inplace",
        "label": "contract IERC20Upgradeable",
        "numberOfBytes": "20"
      },
      "t_contract(IonicFlywheel)50256": {
        "encoding": "inplace",
        "label": "contract IonicFlywheel",
        "numberOfBytes": "20"
      },
      "t_contract(OptimizedVaultsRegistry)59585": {
        "encoding": "inplace",
        "label": "contract OptimizedVaultsRegistry",
        "numberOfBytes": "20"
      },
      "t_mapping(t_address,t_uint256)": {
        "encoding": "mapping",
        "key": "t_address",
        "label": "mapping(address => uint256)",
        "numberOfBytes": "32",
        "value": "t_uint256"
      },
      "t_mapping(t_contract(IERC20Upgradeable)179087,t_contract(IonicFlywheel)50256)": {
        "encoding": "mapping",
        "key": "t_contract(IERC20Upgradeable)179087",
        "label": "mapping(contract IERC20Upgradeable => contract IonicFlywheel)",
        "numberOfBytes": "32",
        "value": "t_contract(IonicFlywheel)50256"
      },
      "t_string_storage": {
        "encoding": "bytes",
        "label": "string",
        "numberOfBytes": "32"
      },
      "t_struct(AdapterConfig)58808_storage": {
        "encoding": "inplace",
        "label": "struct AdapterConfig",
        "members": [
          {
            "astId": 58805,
            "contract": "contracts/ionic/vault/OptimizedAPRVaultBase.sol:OptimizedAPRVaultBase",
            "label": "adapter",
            "offset": 0,
            "slot": "0",
            "type": "t_contract(CompoundMarketERC4626)48585"
          },
          {
            "astId": 58807,
            "contract": "contracts/ionic/vault/OptimizedAPRVaultBase.sol:OptimizedAPRVaultBase",
            "label": "allocation",
            "offset": 20,
            "slot": "0",
            "type": "t_uint64"
          }
        ],
        "numberOfBytes": "32"
      },
      "t_struct(VaultFees)54285_storage": {
        "encoding": "inplace",
        "label": "struct VaultFees",
        "members": [
          {
            "astId": 54278,
            "contract": "contracts/ionic/vault/OptimizedAPRVaultBase.sol:OptimizedAPRVaultBase",
            "label": "deposit",
            "offset": 0,
            "slot": "0",
            "type": "t_uint64"
          },
          {
            "astId": 54280,
            "contract": "contracts/ionic/vault/OptimizedAPRVaultBase.sol:OptimizedAPRVaultBase",
            "label": "withdrawal",
            "offset": 8,
            "slot": "0",
            "type": "t_uint64"
          },
          {
            "astId": 54282,
            "contract": "contracts/ionic/vault/OptimizedAPRVaultBase.sol:OptimizedAPRVaultBase",
            "label": "management",
            "offset": 16,
            "slot": "0",
            "type": "t_uint64"
          },
          {
            "astId": 54284,
            "contract": "contracts/ionic/vault/OptimizedAPRVaultBase.sol:OptimizedAPRVaultBase",
            "label": "performance",
            "offset": 24,
            "slot": "0",
            "type": "t_uint64"
          }
        ],
        "numberOfBytes": "32"
      },
      "t_uint256": {
        "encoding": "inplace",
        "label": "uint256",
        "numberOfBytes": "32"
      },
      "t_uint64": {
        "encoding": "inplace",
        "label": "uint64",
        "numberOfBytes": "8"
      },
      "t_uint8": {
        "encoding": "inplace",
        "label": "uint8",
        "numberOfBytes": "1"
      }
    }
  }
}