{"abi":[{"type":"function","name":"_acceptOwner","inputs":[],"outputs":[],"stateMutability":"nonpayable"},{"type":"function","name":"_setPendingOwner","inputs":[{"name":"newPendingOwner","type":"address","internalType":"address"}],"outputs":[],"stateMutability":"nonpayable"},{"type":"function","name":"allowance","inputs":[{"name":"owner","type":"address","internalType":"address"},{"name":"spender","type":"address","internalType":"address"}],"outputs":[{"name":"","type":"uint256","internalType":"uint256"}],"stateMutability":"view"},{"type":"function","name":"approve","inputs":[{"name":"spender","type":"address","internalType":"address"},{"name":"amount","type":"uint256","internalType":"uint256"}],"outputs":[{"name":"","type":"bool","internalType":"bool"}],"stateMutability":"nonpayable"},{"type":"function","name":"asset","inputs":[],"outputs":[{"name":"","type":"address","internalType":"address"}],"stateMutability":"view"},{"type":"function","name":"balanceOf","inputs":[{"name":"account","type":"address","internalType":"address"}],"outputs":[{"name":"","type":"uint256","internalType":"uint256"}],"stateMutability":"view"},{"type":"function","name":"balanceOfUnderlying","inputs":[{"name":"account","type":"address","internalType":"address"}],"outputs":[{"name":"","type":"uint256","internalType":"uint256"}],"stateMutability":"view"},{"type":"function","name":"convertToAssets","inputs":[{"name":"shares","type":"uint256","internalType":"uint256"}],"outputs":[{"name":"assets","type":"uint256","internalType":"uint256"}],"stateMutability":"view"},{"type":"function","name":"convertToShares","inputs":[{"name":"assets","type":"uint256","internalType":"uint256"}],"outputs":[{"name":"shares","type":"uint256","internalType":"uint256"}],"stateMutability":"view"},{"type":"function","name":"decimals","inputs":[],"outputs":[{"name":"","type":"uint8","internalType":"uint8"}],"stateMutability":"view"},{"type":"function","name":"decreaseAllowance","inputs":[{"name":"spender","type":"address","internalType":"address"},{"name":"subtractedValue","type":"uint256","internalType":"uint256"}],"outputs":[{"name":"","type":"bool","internalType":"bool"}],"stateMutability":"nonpayable"},{"type":"function","name":"deposit","inputs":[{"name":"assets","type":"uint256","internalType":"uint256"},{"name":"receiver","type":"address","internalType":"address"}],"outputs":[{"name":"shares","type":"uint256","internalType":"uint256"}],"stateMutability":"nonpayable"},{"type":"function","name":"emergencyWithdrawAndPause","inputs":[],"outputs":[],"stateMutability":"nonpayable"},{"type":"function","name":"feeRecipient","inputs":[],"outputs":[{"name":"","type":"address","internalType":"address"}],"stateMutability":"view"},{"type":"function","name":"increaseAllowance","inputs":[{"name":"spender","type":"address","internalType":"address"},{"name":"addedValue","type":"uint256","internalType":"uint256"}],"outputs":[{"name":"","type":"bool","internalType":"bool"}],"stateMutability":"nonpayable"},{"type":"function","name":"initialize","inputs":[{"name":"asset","type":"address","internalType":"contract ERC20Upgradeable"},{"name":"_xbombAddress","type":"address","internalType":"address"}],"outputs":[],"stateMutability":"nonpayable"},{"type":"function","name":"maxDeposit","inputs":[{"name":"","type":"address","internalType":"address"}],"outputs":[{"name":"","type":"uint256","internalType":"uint256"}],"stateMutability":"view"},{"type":"function","name":"maxMint","inputs":[{"name":"","type":"address","internalType":"address"}],"outputs":[{"name":"","type":"uint256","internalType":"uint256"}],"stateMutability":"view"},{"type":"function","name":"maxRedeem","inputs":[{"name":"owner","type":"address","internalType":"address"}],"outputs":[{"name":"","type":"uint256","internalType":"uint256"}],"stateMutability":"view"},{"type":"function","name":"maxWithdraw","inputs":[{"name":"owner","type":"address","internalType":"address"}],"outputs":[{"name":"","type":"uint256","internalType":"uint256"}],"stateMutability":"view"},{"type":"function","name":"mint","inputs":[{"name":"shares","type":"uint256","internalType":"uint256"},{"name":"receiver","type":"address","internalType":"address"}],"outputs":[{"name":"assets","type":"uint256","internalType":"uint256"}],"stateMutability":"nonpayable"},{"type":"function","name":"name","inputs":[],"outputs":[{"name":"","type":"string","internalType":"string"}],"stateMutability":"view"},{"type":"function","name":"owner","inputs":[],"outputs":[{"name":"","type":"address","internalType":"address"}],"stateMutability":"view"},{"type":"function","name":"paused","inputs":[],"outputs":[{"name":"","type":"bool","internalType":"bool"}],"stateMutability":"view"},{"type":"function","name":"pendingOwner","inputs":[],"outputs":[{"name":"","type":"address","internalType":"address"}],"stateMutability":"view"},{"type":"function","name":"performanceFee","inputs":[],"outputs":[{"name":"","type":"uint256","internalType":"uint256"}],"stateMutability":"view"},{"type":"function","name":"previewDeposit","inputs":[{"name":"bombAssets","type":"uint256","internalType":"uint256"}],"outputs":[{"name":"","type":"uint256","internalType":"uint256"}],"stateMutability":"view"},{"type":"function","name":"previewMint","inputs":[{"name":"shares","type":"uint256","internalType":"uint256"}],"outputs":[{"name":"","type":"uint256","internalType":"uint256"}],"stateMutability":"view"},{"type":"function","name":"previewRedeem","inputs":[{"name":"shares","type":"uint256","internalType":"uint256"}],"outputs":[{"name":"","type":"uint256","internalType":"uint256"}],"stateMutability":"view"},{"type":"function","name":"previewWithdraw","inputs":[{"name":"assets","type":"uint256","internalType":"uint256"}],"outputs":[{"name":"","type":"uint256","internalType":"uint256"}],"stateMutability":"view"},{"type":"function","name":"redeem","inputs":[{"name":"shares","type":"uint256","internalType":"uint256"},{"name":"receiver","type":"address","internalType":"address"},{"name":"owner","type":"address","internalType":"address"}],"outputs":[{"name":"assets","type":"uint256","internalType":"uint256"}],"stateMutability":"nonpayable"},{"type":"function","name":"renounceOwnership","inputs":[],"outputs":[],"stateMutability":"nonpayable"},{"type":"function","name":"shutdown","inputs":[{"name":"market","type":"address","internalType":"address"}],"outputs":[{"name":"","type":"uint256","internalType":"uint256"}],"stateMutability":"nonpayable"},{"type":"function","name":"symbol","inputs":[],"outputs":[{"name":"","type":"string","internalType":"string"}],"stateMutability":"view"},{"type":"function","name":"takePerformanceFee","inputs":[],"outputs":[],"stateMutability":"nonpayable"},{"type":"function","name":"totalAssets","inputs":[],"outputs":[{"name":"","type":"uint256","internalType":"uint256"}],"stateMutability":"view"},{"type":"function","name":"totalSupply","inputs":[],"outputs":[{"name":"","type":"uint256","internalType":"uint256"}],"stateMutability":"view"},{"type":"function","name":"transfer","inputs":[{"name":"to","type":"address","internalType":"address"},{"name":"amount","type":"uint256","internalType":"uint256"}],"outputs":[{"name":"","type":"bool","internalType":"bool"}],"stateMutability":"nonpayable"},{"type":"function","name":"transferFrom","inputs":[{"name":"from","type":"address","internalType":"address"},{"name":"to","type":"address","internalType":"address"},{"name":"amount","type":"uint256","internalType":"uint256"}],"outputs":[{"name":"","type":"bool","internalType":"bool"}],"stateMutability":"nonpayable"},{"type":"function","name":"transferOwnership","inputs":[{"name":"newOwner","type":"address","internalType":"address"}],"outputs":[],"stateMutability":"nonpayable"},{"type":"function","name":"unpause","inputs":[],"outputs":[],"stateMutability":"nonpayable"},{"type":"function","name":"updateFeeSettings","inputs":[{"name":"newPerformanceFee","type":"uint256","internalType":"uint256"},{"name":"newFeeRecipient","type":"address","internalType":"address"}],"outputs":[],"stateMutability":"nonpayable"},{"type":"function","name":"vaultShareHWM","inputs":[],"outputs":[{"name":"","type":"uint256","internalType":"uint256"}],"stateMutability":"view"},{"type":"function","name":"withdraw","inputs":[{"name":"assets","type":"uint256","internalType":"uint256"},{"name":"receiver","type":"address","internalType":"address"},{"name":"owner","type":"address","internalType":"address"}],"outputs":[{"name":"shares","type":"uint256","internalType":"uint256"}],"stateMutability":"nonpayable"},{"type":"function","name":"withdrawAccruedFees","inputs":[],"outputs":[],"stateMutability":"nonpayable"},{"type":"function","name":"xbomb","inputs":[],"outputs":[{"name":"","type":"address","internalType":"contract IXBomb"}],"stateMutability":"view"},{"type":"event","name":"Approval","inputs":[{"name":"owner","type":"address","indexed":true,"internalType":"address"},{"name":"spender","type":"address","indexed":true,"internalType":"address"},{"name":"value","type":"uint256","indexed":false,"internalType":"uint256"}],"anonymous":false},{"type":"event","name":"Deposit","inputs":[{"name":"sender","type":"address","indexed":true,"internalType":"address"},{"name":"owner","type":"address","indexed":true,"internalType":"address"},{"name":"assets","type":"uint256","indexed":false,"internalType":"uint256"},{"name":"shares","type":"uint256","indexed":false,"internalType":"uint256"}],"anonymous":false},{"type":"event","name":"Initialized","inputs":[{"name":"version","type":"uint8","indexed":false,"internalType":"uint8"}],"anonymous":false},{"type":"event","name":"NewOwner","inputs":[{"name":"oldOwner","type":"address","indexed":false,"internalType":"address"},{"name":"newOwner","type":"address","indexed":false,"internalType":"address"}],"anonymous":false},{"type":"event","name":"NewPendingOwner","inputs":[{"name":"oldPendingOwner","type":"address","indexed":false,"internalType":"address"},{"name":"newPendingOwner","type":"address","indexed":false,"internalType":"address"}],"anonymous":false},{"type":"event","name":"OwnershipTransferred","inputs":[{"name":"previousOwner","type":"address","indexed":true,"internalType":"address"},{"name":"newOwner","type":"address","indexed":true,"internalType":"address"}],"anonymous":false},{"type":"event","name":"Paused","inputs":[{"name":"account","type":"address","indexed":false,"internalType":"address"}],"anonymous":false},{"type":"event","name":"Transfer","inputs":[{"name":"from","type":"address","indexed":true,"internalType":"address"},{"name":"to","type":"address","indexed":true,"internalType":"address"},{"name":"value","type":"uint256","indexed":false,"internalType":"uint256"}],"anonymous":false},{"type":"event","name":"Unpaused","inputs":[{"name":"account","type":"address","indexed":false,"internalType":"address"}],"anonymous":false},{"type":"event","name":"UpdatedFeeSettings","inputs":[{"name":"oldPerformanceFee","type":"uint256","indexed":false,"internalType":"uint256"},{"name":"newPerformanceFee","type":"uint256","indexed":false,"internalType":"uint256"},{"name":"oldFeeRecipient","type":"address","indexed":false,"internalType":"address"},{"name":"newFeeRecipient","type":"address","indexed":false,"internalType":"address"}],"anonymous":false},{"type":"event","name":"Withdraw","inputs":[{"name":"sender","type":"address","indexed":true,"internalType":"address"},{"name":"receiver","type":"address","indexed":true,"internalType":"address"},{"name":"owner","type":"address","indexed":true,"internalType":"address"},{"name":"assets","type":"uint256","indexed":false,"internalType":"uint256"},{"name":"shares","type":"uint256","indexed":false,"internalType":"uint256"}],"anonymous":false}],"bytecode":{"object":"0x608060405234801561001057600080fd5b50612ff3806100206000396000f3fe608060405234801561001057600080fd5b506004361061028a5760003560e01c806370a082311161015c578063b460af94116100ce578063d905777e11610087578063d905777e14610562578063dd62ed3e14610575578063e30c397814610588578063ef8b30f71461059b578063f2fde38b146105ae578063fc4d33f9146105c157600080fd5b8063b460af94146104ee578063ba08765214610501578063c63d75b614610514578063c6e6f59214610529578063cce2f3fb1461053c578063ce96cb771461054f57600080fd5b806395d89b411161012057806395d89b4114610492578063a32b0d5d1461049a578063a457c2d7146104ad578063a9059cbb146104c0578063ada82c7d146104d3578063b3d7f6b9146104db57600080fd5b806370a0823114610434578063715018a61461045d57806387788782146104655780638da5cb5b1461046e57806394bf804d1461047f57600080fd5b806338d52e0f11610200578063485cc955116101b9578063485cc955146103e15780634cdad506146102bf57806356f89ef9146103f45780635c975abb146103fc5780636e553f651461040e5780636e96dfd71461042157600080fd5b806338d52e0f14610368578063395093511461038d5780633af9e669146103a05780633f4ba83a146103b3578063402d267d146103bb57806346904840146103ce57600080fd5b806310509aa91161025257806310509aa91461030857806318160ddd1461031d578063211493c91461032557806323b872dd1461032e5780632835797814610341578063313ce5671461034957600080fd5b806301e1d1141461028f57806306fdde03146102aa57806307a2d13a146102bf578063095ea7b3146102d25780630a28a477146102f5575b600080fd5b6102976105c9565b6040519081526020015b60405180910390f35b6102b26106a2565b6040516102a19190612a96565b6102976102cd366004612ac9565b610734565b6102e56102e0366004612af7565b610747565b60405190151581526020016102a1565b610297610303366004612ac9565b61075f565b61031b610316366004612b23565b61076c565b005b609954610297565b61029760fb5481565b6102e561033c366004612b53565b610892565b61031b6108b8565b60c954600160a01b900460ff1660405160ff90911681526020016102a1565b60c9546001600160a01b03165b6040516001600160a01b0390911681526020016102a1565b6102e561039b366004612af7565b61098e565b6102976103ae366004612b94565b6109b0565b61031b6109d2565b6102976103c9366004612b94565b610ab7565b60fd54610375906001600160a01b031681565b61031b6103ef366004612bb1565b610ad5565b61031b610c86565b606554600160a01b900460ff166102e5565b61029761041c366004612b23565b610e4f565b61031b61042f366004612b94565b610f18565b610297610442366004612b94565b6001600160a01b031660009081526097602052604090205490565b61031b610f82565b61029760fc5481565b6033546001600160a01b0316610375565b61029761048d366004612b23565b610fc5565b6102b2611042565b60fe54610375906001600160a01b031681565b6102e56104bb366004612af7565b611051565b6102e56104ce366004612af7565b6110d7565b61031b6110e5565b6102976104e9366004612ac9565b611115565b6102976104fc366004612bdf565b611122565b61029761050f366004612bdf565b6112eb565b610297610522366004612b94565b5060001990565b610297610537366004612ac9565b6114df565b61029761054a366004612b94565b6114ec565b61029761055d366004612b94565b6115f5565b610297610570366004612b94565b611619565b610297610583366004612bb1565b611637565b606554610375906001600160a01b031681565b6102976105a9366004612ac9565b611662565b61031b6105bc366004612b94565b6116d0565b61031b611741565b60fe546040516370a0823160e01b81523060048201526000916001600160a01b03169063067e4b9e9082906370a0823190602401602060405180830381865afa15801561061a573d6000803e3d6000fd5b505050506040513d601f19601f8201168201806040525081019061063e9190612c21565b6040518263ffffffff1660e01b815260040161065c91815260200190565b602060405180830381865afa158015610679573d6000803e3d6000fd5b505050506040513d601f19601f8201168201806040525081019061069d9190612c21565b905090565b6060609a80546106b190612c3a565b80601f01602080910402602001604051908101604052809291908181526020018280546106dd90612c3a565b801561072a5780601f106106ff5761010080835404028352916020019161072a565b820191906000526020600020905b81548152906001019060200180831161070d57829003601f168201915b5050505050905090565b6000610741826000611855565b92915050565b60003361075581858561188c565b5060019392505050565b60006107418260016119b0565b6107746119e2565b60fc5460fd5460408051928352602083018590526001600160a01b0391821690830152821660608201527fb3b62da5184b9e7e2f5d280014bb485d4444b66738025e5fb5738bbddcb6b8489060800160405180910390a160fc82905560fd546001600160a01b0382811691161461086f5760fd546001600160a01b0316156108515760fd546001600160a01b03166000818152609760205260409020549061081c9082611a3c565b60fd54610845906001600160a01b031661083e6033546001600160a01b031690565b600061188c565b61084f8282611b70565b505b61086f816108676033546001600160a01b031690565b60001961188c565b60fd80546001600160a01b0319166001600160a01b039290921691909117905550565b6000336108a0858285611c32565b6108ab858585611ca6565b60019150505b9392505050565b6108c06119e2565b60fe546040516370a0823160e01b81523060048201526001600160a01b03909116906367dfd4c99082906370a0823190602401602060405180830381865afa158015610910573d6000803e3d6000fd5b505050506040513d601f19601f820116820180604052508101906109349190612c21565b6040518263ffffffff1660e01b815260040161095291815260200190565b600060405180830381600087803b15801561096c57600080fd5b505af1158015610980573d6000803e3d6000fd5b5050505061098c611e51565b565b6000336107558185856109a18383611637565b6109ab9190612c8b565b61188c565b6001600160a01b03811660009081526097602052604081205461074190610734565b6109da6119e2565b6109e2611eb1565b60fe546001600160a01b031663a59f3e0c6109fb611eed565b6040516370a0823160e01b81523060048201526001600160a01b0391909116906370a0823190602401602060405180830381865afa158015610a41573d6000803e3d6000fd5b505050506040513d601f19601f82011682018060405250810190610a659190612c21565b6040518263ffffffff1660e01b8152600401610a8391815260200190565b600060405180830381600087803b158015610a9d57600080fd5b505af1158015610ab1573d6000803e3d6000fd5b50505050565b6000610ac1611f01565b610acc576000610741565b60001992915050565b600054610100900460ff1615808015610af55750600054600160ff909116105b80610b0f5750303b158015610b0f575060005460ff166001145b610b775760405162461bcd60e51b815260206004820152602e60248201527f496e697469616c697a61626c653a20636f6e747261637420697320616c72656160448201526d191e481a5b9a5d1a585b1a5e995960921b60648201526084015b60405180910390fd5b6000805460ff191660011790558015610b9a576000805461ff0019166101001790555b610ba383611f1b565b66b1a2bc2ec5000060fc5560fe80546001600160a01b0319166001600160a01b0384811691821790925560405163095ea7b360e01b8152600481019190915260001960248201529084169063095ea7b3906044016020604051808303816000875af1158015610c16573d6000803e3d6000fd5b505050506040513d601f19601f82011682018060405250810190610c3a9190612ca3565b508015610c81576000805461ff0019169055604051600181527f7f26b83ff96e1f2b6a682f133852f6798a09c465da95921460cefb38474024989060200160405180910390a15b505050565b610c8e6119e2565b60fd546001600160a01b0316610ce65760405162461bcd60e51b815260206004820152601d60248201527f66656520726563697069656e74206e6f7420696e697469616c697a65640000006044820152606401610b6e565b6000610cf06105c9565b90506000610d6b610cff611eed565b6001600160a01b031663313ce5676040518163ffffffff1660e01b8152600401602060405180830381865afa158015610d3c573d6000803e3d6000fd5b505050506040513d601f19601f82011682018060405250810190610d609190612cc5565b6102cd90600a612dcc565b905060fb548111610dbe5760405162461bcd60e51b815260206004820152601b60248201527f736861726556616c756520213e207661756c74536861726548574d00000000006044820152606401610b6e565b6000610dc960995490565b905060006ec097ce7bc90715b34b9f10000000008260fb5485610dec9190612ddb565b60fc54610df99190612df2565b610e039190612df2565b610e0d9190612e27565b60fd54909150610e3b906001600160a01b0316610e3684610e2e8589612ddb565b8591906120fb565b611b70565b610e46610cff611eed565b60fb5550505050565b6000610e5961211a565b610e6283611662565b905080610e9f5760405162461bcd60e51b815260206004820152600b60248201526a5a45524f5f53484152455360a81b6044820152606401610b6e565b610ebe333085610ead611eed565b6001600160a01b0316929190612167565b610ec88282611b70565b60408051848152602081018390526001600160a01b0384169133917fdcbc1c05240f31ff3ad067ef1ee35ce4997762752e3a095284754544f4c709d7910160405180910390a361074183826121d2565b610f206119e2565b606580546001600160a01b038381166001600160a01b031983168117909355604080519190921680825260208201939093527fb3d55174552271a4f1aaf36b72f50381e892171636b3fb5447fe00e995e7a37b91015b60405180910390a15050565b610f8a6119e2565b60405162461bcd60e51b815260206004820152601060248201526f6e6f74207573656420616e796d6f726560801b6044820152606401610b6e565b6000610fcf61211a565b610fd883611115565b9050610fe8333083610ead611eed565b610ff28284611b70565b60408051828152602081018590526001600160a01b0384169133917fdcbc1c05240f31ff3ad067ef1ee35ce4997762752e3a095284754544f4c709d7910160405180910390a361074181846121d2565b6060609b80546106b190612c3a565b6000338161105f8286611637565b9050838110156110bf5760405162461bcd60e51b815260206004820152602560248201527f45524332303a2064656372656173656420616c6c6f77616e63652062656c6f77604482015264207a65726f60d81b6064820152608401610b6e565b6110cc828686840361188c565b506001949350505050565b600033610755818585611ca6565b6110ed6119e2565b60fd546001600160a01b031660008181526097602052604090205461111291806112eb565b50565b6000610741826001611855565b600061112d8461075f565b9050336001600160a01b0383161461116757600061114b8333611637565b905060001981146111655761116583336109ab8585612ddb565b505b606554600160a01b900460ff16611279576000611182611eed565b6040516370a0823160e01b81523060048201526001600160a01b0391909116906370a0823190602401602060405180830381865afa1580156111c8573d6000803e3d6000fd5b505050506040513d601f19601f820116820180604052508101906111ec9190612c21565b90506111f88583612235565b80611201611eed565b6040516370a0823160e01b81523060048201526001600160a01b0391909116906370a0823190602401602060405180830381865afa158015611247573d6000803e3d6000fd5b505050506040513d601f19601f8201168201806040525081019061126b9190612c21565b6112759190612ddb565b9450505b6112838282611a3c565b60408051858152602081018390526001600160a01b03808516929086169133917ffbde797d201c681b91056529119e0b02407c7bb96a4a2c75c01fc9667232c8db910160405180910390a46108b183856112db611eed565b6001600160a01b03169190612266565b6000336001600160a01b038316146113255760006113098333611637565b905060001981146113235761132383336109ab8885612ddb565b505b61132e84610734565b90508061136b5760405162461bcd60e51b815260206004820152600b60248201526a5a45524f5f41535345545360a81b6044820152606401610b6e565b606554600160a01b900460ff1661147d576000611386611eed565b6040516370a0823160e01b81523060048201526001600160a01b0391909116906370a0823190602401602060405180830381865afa1580156113cc573d6000803e3d6000fd5b505050506040513d601f19601f820116820180604052508101906113f09190612c21565b90506113fc8286612235565b80611405611eed565b6040516370a0823160e01b81523060048201526001600160a01b0391909116906370a0823190602401602060405180830381865afa15801561144b573d6000803e3d6000fd5b505050506040513d601f19601f8201168201806040525081019061146f9190612c21565b6114799190612ddb565b9150505b6114878285611a3c565b60408051828152602081018690526001600160a01b03808516929086169133917ffbde797d201c681b91056529119e0b02407c7bb96a4a2c75c01fc9667232c8db910160405180910390a46108b183826112db611eed565b60006107418260006119b0565b60006114f66119e2565b6114fe612296565b6000611508611eed565b6040516370a0823160e01b81523060048201529091506000906001600160a01b038316906370a0823190602401602060405180830381865afa158015611552573d6000803e3d6000fd5b505050506040513d601f19601f820116820180604052508101906115769190612c21565b60405163a9059cbb60e01b81526001600160a01b038681166004830152602482018390529192509083169063a9059cbb906044016020604051808303816000875af11580156115c9573d6000803e3d6000fd5b505050506040513d601f19601f820116820180604052508101906115ed9190612ca3565b509392505050565b6001600160a01b038116600090815260976020526040812054610741906000611855565b6001600160a01b038116600090815260976020526040812054610741565b6001600160a01b03918216600090815260986020908152604080832093909416825291909152205490565b60fe54604051636be2be9560e01b8152600481018390526000916001600160a01b031690636be2be9590602401602060405180830381865afa1580156116ac573d6000803e3d6000fd5b505050506040513d601f19601f820116820180604052508101906107419190612c21565b6116d86119e2565b606554604080516001600160a01b03928316815291831660208301527fb3d55174552271a4f1aaf36b72f50381e892171636b3fb5447fe00e995e7a37b910160405180910390a1606580546001600160a01b0319166001600160a01b0392909216919091179055565b6065546001600160a01b031633146117935760405162461bcd60e51b81526020600482015260156024820152743737ba103a3432903832b73234b7339037bbb732b960591b6044820152606401610b6e565b60006117a76033546001600160a01b031690565b6065549091506001600160a01b03166117bf816122e6565b606580546001600160a01b0319169055604080516001600160a01b0384168152600060208201527f70aea8d848e8a90fb7661b227dc522eb6395c3dac71b63cb59edd5c9899b2364910160405180910390a1606554604080516001600160a01b03808516825290921660208301527fb3d55174552271a4f1aaf36b72f50381e892171636b3fb5447fe00e995e7a37b9101610f76565b60008061186160995490565b905080156118825761187d6118746105c9565b85908386612338565b611884565b835b949350505050565b6001600160a01b0383166118ee5760405162461bcd60e51b8152602060048201526024808201527f45524332303a20617070726f76652066726f6d20746865207a65726f206164646044820152637265737360e01b6064820152608401610b6e565b6001600160a01b03821661194f5760405162461bcd60e51b815260206004820152602260248201527f45524332303a20617070726f766520746f20746865207a65726f206164647265604482015261737360f01b6064820152608401610b6e565b6001600160a01b0383811660008181526098602090815260408083209487168084529482529182902085905590518481527f8c5be1e5ebec7d5bd14f71427d1e84f3dd0314c0f7b2291e5b200ac8c7c3b925910160405180910390a3505050565b6000806119bc60995490565b90508315806119c9575080155b6118825761187d816119d96105c9565b86919086612338565b6033546001600160a01b0316331461098c5760405162461bcd60e51b815260206004820181905260248201527f4f776e61626c653a2063616c6c6572206973206e6f7420746865206f776e65726044820152606401610b6e565b6001600160a01b038216611a9c5760405162461bcd60e51b815260206004820152602160248201527f45524332303a206275726e2066726f6d20746865207a65726f206164647265736044820152607360f81b6064820152608401610b6e565b6001600160a01b03821660009081526097602052604090205481811015611b105760405162461bcd60e51b815260206004820152602260248201527f45524332303a206275726e20616d6f756e7420657863656564732062616c616e604482015261636560f01b6064820152608401610b6e565b6001600160a01b03831660008181526097602090815260408083208686039055609980548790039055518581529192917fddf252ad1be2c89b69c2b068fc378daa952ba7f163c4a11628f55a4df523b3ef910160405180910390a3505050565b6001600160a01b038216611bc65760405162461bcd60e51b815260206004820152601f60248201527f45524332303a206d696e7420746f20746865207a65726f2061646472657373006044820152606401610b6e565b8060996000828254611bd89190612c8b565b90915550506001600160a01b0382166000818152609760209081526040808320805486019055518481527fddf252ad1be2c89b69c2b068fc378daa952ba7f163c4a11628f55a4df523b3ef910160405180910390a35b5050565b6000611c3e8484611637565b90506000198114610ab15781811015611c995760405162461bcd60e51b815260206004820152601d60248201527f45524332303a20696e73756666696369656e7420616c6c6f77616e63650000006044820152606401610b6e565b610ab1848484840361188c565b6001600160a01b038316611d0a5760405162461bcd60e51b815260206004820152602560248201527f45524332303a207472616e736665722066726f6d20746865207a65726f206164604482015264647265737360d81b6064820152608401610b6e565b6001600160a01b038216611d6c5760405162461bcd60e51b815260206004820152602360248201527f45524332303a207472616e7366657220746f20746865207a65726f206164647260448201526265737360e81b6064820152608401610b6e565b6001600160a01b03831660009081526097602052604090205481811015611de45760405162461bcd60e51b815260206004820152602660248201527f45524332303a207472616e7366657220616d6f756e7420657863656564732062604482015265616c616e636560d01b6064820152608401610b6e565b6001600160a01b0380851660008181526097602052604080822086860390559286168082529083902080548601905591517fddf252ad1be2c89b69c2b068fc378daa952ba7f163c4a11628f55a4df523b3ef90611e449086815260200190565b60405180910390a3610ab1565b611e5961211a565b6065805460ff60a01b1916600160a01b1790557f62e78cea01bee320cd4e420270b5ea74000d11b0c9f74754ebdbfc544b05a258611e943390565b6040516001600160a01b03909116815260200160405180910390a1565b611eb9612296565b6065805460ff60a01b191690557f5db9ee0a495bf2e6ff9c91a7834c1ba4fdd244a5e8aa4e537bd38aeae4b073aa33611e94565b600061069d60c9546001600160a01b031690565b600080611f0c6105c9565b118061069d5750506099541590565b600054610100900460ff16611f425760405162461bcd60e51b8152600401610b6e90612e49565b611f4b33612395565b611f536123cd565b611f5b6123fc565b61206d816001600160a01b03166306fdde036040518163ffffffff1660e01b8152600401600060405180830381865afa158015611f9c573d6000803e3d6000fd5b505050506040513d6000823e601f3d908101601f19168201604052611fc49190810190612eaa565b604051602001611fd49190612f4c565b604051602081830303815290604052826001600160a01b03166395d89b416040518163ffffffff1660e01b8152600401600060405180830381865afa158015612021573d6000803e3d6000fd5b505050506040513d6000823e601f3d908101601f191682016040526120499190810190612eaa565b6040516020016120599190612f8a565b604051602081830303815290604052612423565b61207681612454565b806001600160a01b031663313ce5676040518163ffffffff1660e01b8152600401602060405180830381865afa1580156120b4573d6000803e3d6000fd5b505050506040513d601f19601f820116820180604052508101906120d89190612cc5565b6120e390600a612dcc565b60fb555060fd80546001600160a01b03191633179055565b82820281151584158583048514171661211357600080fd5b0492915050565b606554600160a01b900460ff161561098c5760405162461bcd60e51b815260206004820152601060248201526f14185d5cd8589b194e881c185d5cd95960821b6044820152606401610b6e565b6040516001600160a01b0380851660248301528316604482015260648101829052610ab19085906323b872dd60e01b906084015b60408051601f198184030181529190526020810180516001600160e01b03166001600160e01b031990931692909217909152612484565b60fe54604051632967cf8360e21b8152600481018490526001600160a01b039091169063a59f3e0c906024015b600060405180830381600087803b15801561221957600080fd5b505af115801561222d573d6000803e3d6000fd5b505050505050565b60fe546040516367dfd4c960e01b8152600481018390526001600160a01b03909116906367dfd4c9906024016121ff565b6040516001600160a01b038316602482015260448101829052610c8190849063a9059cbb60e01b9060640161219b565b606554600160a01b900460ff1661098c5760405162461bcd60e51b815260206004820152601460248201527314185d5cd8589b194e881b9bdd081c185d5cd95960621b6044820152606401610b6e565b603380546001600160a01b038381166001600160a01b0319831681179093556040519116919082907f8be0079c531659141344cd1fd0a4f28419497f9722a3daafe3b4186f6b6457e090600090a35050565b600080612346868686612556565b9050600183600281111561235c5761235c612fb4565b14801561237957506000848061237457612374612e11565b868809115b1561238c57612389600182612c8b565b90505b95945050505050565b600054610100900460ff166123bc5760405162461bcd60e51b8152600401610b6e90612e49565b6123c4612606565b611112816122e6565b600054610100900460ff166123f45760405162461bcd60e51b8152600401610b6e90612e49565b61098c612635565b600054610100900460ff1661098c5760405162461bcd60e51b8152600401610b6e90612e49565b600054610100900460ff1661244a5760405162461bcd60e51b8152600401610b6e90612e49565b611c2e828261266b565b600054610100900460ff1661247b5760405162461bcd60e51b8152600401610b6e90612e49565b611112816126b9565b60006124d9826040518060400160405280602081526020017f5361666545524332303a206c6f772d6c6576656c2063616c6c206661696c6564815250856001600160a01b031661273e9092919063ffffffff16565b805190915015610c8157808060200190518101906124f79190612ca3565b610c815760405162461bcd60e51b815260206004820152602a60248201527f5361666545524332303a204552433230206f7065726174696f6e20646964206e6044820152691bdd081cdd58d8d9595960b21b6064820152608401610b6e565b6000808060001985870985870292508281108382030391505080600014156125915783828161258757612587612e11565b04925050506108b1565b80841161259d57600080fd5b60008486880960026001871981018816978890046003810283188082028403028082028403028082028403028082028403028082028403029081029092039091026000889003889004909101858311909403939093029303949094049190911702949350505050565b600054610100900460ff1661262d5760405162461bcd60e51b8152600401610b6e90612e49565b61098c61274d565b600054610100900460ff1661265c5760405162461bcd60e51b8152600401610b6e90612e49565b6065805460ff60a01b19169055565b600054610100900460ff166126925760405162461bcd60e51b8152600401610b6e90612e49565b81516126a590609a9060208501906129d1565b508051610c8190609b9060208401906129d1565b600054610100900460ff166126e05760405162461bcd60e51b8152600401610b6e90612e49565b6000806126ec8361277d565b91509150816126fc5760126126fe565b805b60c980546001600160a01b039095166001600160a01b031960ff93909316600160a01b02929092166001600160a81b031990951694909417179092555050565b6060611884848460008561285b565b600054610100900460ff166127745760405162461bcd60e51b8152600401610b6e90612e49565b61098c336122e6565b60408051600481526024810182526020810180516001600160e01b031663313ce56760e01b17905290516000918291829182916001600160a01b038716916127c491612fca565b6000604051808303816000865af19150503d8060008114612801576040519150601f19603f3d011682016040523d82523d6000602084013e612806565b606091505b509150915081801561281a57506020815110155b1561284e576000818060200190518101906128359190612c21565b905060ff811161284c576001969095509350505050565b505b5060009485945092505050565b6060824710156128bc5760405162461bcd60e51b815260206004820152602660248201527f416464726573733a20696e73756666696369656e742062616c616e636520666f6044820152651c8818d85b1b60d21b6064820152608401610b6e565b600080866001600160a01b031685876040516128d89190612fca565b60006040518083038185875af1925050503d8060008114612915576040519150601f19603f3d011682016040523d82523d6000602084013e61291a565b606091505b509150915061292b87838387612936565b979650505050505050565b606083156129a257825161299b576001600160a01b0385163b61299b5760405162461bcd60e51b815260206004820152601d60248201527f416464726573733a2063616c6c20746f206e6f6e2d636f6e74726163740000006044820152606401610b6e565b5081611884565b61188483838151156129b75781518083602001fd5b8060405162461bcd60e51b8152600401610b6e9190612a96565b8280546129dd90612c3a565b90600052602060002090601f0160209004810192826129ff5760008555612a45565b82601f10612a1857805160ff1916838001178555612a45565b82800160010185558215612a45579182015b82811115612a45578251825591602001919060010190612a2a565b50612a51929150612a55565b5090565b5b80821115612a515760008155600101612a56565b60005b83811015612a85578181015183820152602001612a6d565b83811115610ab15750506000910152565b6020815260008251806020840152612ab5816040850160208701612a6a565b601f01601f19169190910160400192915050565b600060208284031215612adb57600080fd5b5035919050565b6001600160a01b038116811461111257600080fd5b60008060408385031215612b0a57600080fd5b8235612b1581612ae2565b946020939093013593505050565b60008060408385031215612b3657600080fd5b823591506020830135612b4881612ae2565b809150509250929050565b600080600060608486031215612b6857600080fd5b8335612b7381612ae2565b92506020840135612b8381612ae2565b929592945050506040919091013590565b600060208284031215612ba657600080fd5b81356108b181612ae2565b60008060408385031215612bc457600080fd5b8235612bcf81612ae2565b91506020830135612b4881612ae2565b600080600060608486031215612bf457600080fd5b833592506020840135612c0681612ae2565b91506040840135612c1681612ae2565b809150509250925092565b600060208284031215612c3357600080fd5b5051919050565b600181811c90821680612c4e57607f821691505b60208210811415612c6f57634e487b7160e01b600052602260045260246000fd5b50919050565b634e487b7160e01b600052601160045260246000fd5b60008219821115612c9e57612c9e612c75565b500190565b600060208284031215612cb557600080fd5b815180151581146108b157600080fd5b600060208284031215612cd757600080fd5b815160ff811681146108b157600080fd5b600181815b80851115612d23578160001904821115612d0957612d09612c75565b80851615612d1657918102915b93841c9390800290612ced565b509250929050565b600082612d3a57506001610741565b81612d4757506000610741565b8160018114612d5d5760028114612d6757612d83565b6001915050610741565b60ff841115612d7857612d78612c75565b50506001821b610741565b5060208310610133831016604e8410600b8410161715612da6575081810a610741565b612db08383612ce8565b8060001904821115612dc457612dc4612c75565b029392505050565b60006108b160ff841683612d2b565b600082821015612ded57612ded612c75565b500390565b6000816000190483118215151615612e0c57612e0c612c75565b500290565b634e487b7160e01b600052601260045260246000fd5b600082612e4457634e487b7160e01b600052601260045260246000fd5b500490565b6020808252602b908201527f496e697469616c697a61626c653a20636f6e7472616374206973206e6f74206960408201526a6e697469616c697a696e6760a81b606082015260800190565b634e487b7160e01b600052604160045260246000fd5b600060208284031215612ebc57600080fd5b815167ffffffffffffffff80821115612ed457600080fd5b818401915084601f830112612ee857600080fd5b815181811115612efa57612efa612e94565b604051601f8201601f19908116603f01168101908382118183101715612f2257612f22612e94565b81604052828152876020848701011115612f3b57600080fd5b61292b836020830160208801612a6a565b65026b4b230b9960d51b815260008251612f6d816006850160208701612a6a565b650815985d5b1d60d21b6006939091019283015250600c01919050565b6136bb60f11b815260008251612fa7816002850160208701612a6a565b9190910160020192915050565b634e487b7160e01b600052602160045260246000fd5b60008251612fdc818460208701612a6a565b919091019291505056fea164736f6c634300080a000a","linkReferences":{}},"methodIdentifiers":{"_acceptOwner()":"fc4d33f9","_setPendingOwner(address)":"6e96dfd7","allowance(address,address)":"dd62ed3e","approve(address,uint256)":"095ea7b3","asset()":"38d52e0f","balanceOf(address)":"70a08231","balanceOfUnderlying(address)":"3af9e669","convertToAssets(uint256)":"07a2d13a","convertToShares(uint256)":"c6e6f592","decimals()":"313ce567","decreaseAllowance(address,uint256)":"a457c2d7","deposit(uint256,address)":"6e553f65","emergencyWithdrawAndPause()":"28357978","feeRecipient()":"46904840","increaseAllowance(address,uint256)":"39509351","initialize(address,address)":"485cc955","maxDeposit(address)":"402d267d","maxMint(address)":"c63d75b6","maxRedeem(address)":"d905777e","maxWithdraw(address)":"ce96cb77","mint(uint256,address)":"94bf804d","name()":"06fdde03","owner()":"8da5cb5b","paused()":"5c975abb","pendingOwner()":"e30c3978","performanceFee()":"87788782","previewDeposit(uint256)":"ef8b30f7","previewMint(uint256)":"b3d7f6b9","previewRedeem(uint256)":"4cdad506","previewWithdraw(uint256)":"0a28a477","redeem(uint256,address,address)":"ba087652","renounceOwnership()":"715018a6","shutdown(address)":"cce2f3fb","symbol()":"95d89b41","takePerformanceFee()":"56f89ef9","totalAssets()":"01e1d114","totalSupply()":"18160ddd","transfer(address,uint256)":"a9059cbb","transferFrom(address,address,uint256)":"23b872dd","transferOwnership(address)":"f2fde38b","unpause()":"3f4ba83a","updateFeeSettings(uint256,address)":"10509aa9","vaultShareHWM()":"211493c9","withdraw(uint256,address,address)":"b460af94","withdrawAccruedFees()":"ada82c7d","xbomb()":"a32b0d5d"},"id":161}