{
  "address": "0x047c79f95c6380F523a72Ffa19F2F337ded1F27f",
  "abi": [
    {
      "anonymous": false,
      "inputs": [
        {
          "indexed": false,
          "internalType": "uint8",
          "name": "version",
          "type": "uint8"
        }
      ],
      "name": "Initialized",
      "type": "event"
    },
    {
      "anonymous": false,
      "inputs": [
        {
          "indexed": false,
          "internalType": "address",
          "name": "oldOwner",
          "type": "address"
        },
        {
          "indexed": false,
          "internalType": "address",
          "name": "newOwner",
          "type": "address"
        }
      ],
      "name": "NewOwner",
      "type": "event"
    },
    {
      "anonymous": false,
      "inputs": [
        {
          "indexed": false,
          "internalType": "address",
          "name": "oldPendingOwner",
          "type": "address"
        },
        {
          "indexed": false,
          "internalType": "address",
          "name": "newPendingOwner",
          "type": "address"
        }
      ],
      "name": "NewPendingOwner",
      "type": "event"
    },
    {
      "anonymous": false,
      "inputs": [
        {
          "indexed": true,
          "internalType": "address",
          "name": "previousOwner",
          "type": "address"
        },
        {
          "indexed": true,
          "internalType": "address",
          "name": "newOwner",
          "type": "address"
        }
      ],
      "name": "OwnershipTransferred",
      "type": "event"
    },
    {
      "inputs": [],
      "name": "NATIVE_TOKEN_USD_PRICE_FEED",
      "outputs": [
        {
          "internalType": "address",
          "name": "",
          "type": "address"
        }
      ],
      "stateMutability": "view",
      "type": "function"
    },
    {
      "inputs": [],
      "name": "USD_TOKEN",
      "outputs": [
        {
          "internalType": "address",
          "name": "",
          "type": "address"
        }
      ],
      "stateMutability": "view",
      "type": "function"
    },
    {
      "inputs": [],
      "name": "_acceptOwner",
      "outputs": [],
      "stateMutability": "nonpayable",
      "type": "function"
    },
    {
      "inputs": [
        {
          "internalType": "address",
          "name": "newPendingOwner",
          "type": "address"
        }
      ],
      "name": "_setPendingOwner",
      "outputs": [],
      "stateMutability": "nonpayable",
      "type": "function"
    },
    {
      "inputs": [
        {
          "internalType": "contract ICErc20",
          "name": "cToken",
          "type": "address"
        }
      ],
      "name": "getUnderlyingPrice",
      "outputs": [
        {
          "internalType": "uint256",
          "name": "",
          "type": "uint256"
        }
      ],
      "stateMutability": "view",
      "type": "function"
    },
    {
      "inputs": [
        {
          "internalType": "address",
          "name": "_usdToken",
          "type": "address"
        },
        {
          "internalType": "address",
          "name": "nativeTokenUsd",
          "type": "address"
        }
      ],
      "name": "initialize",
      "outputs": [],
      "stateMutability": "nonpayable",
      "type": "function"
    },
    {
      "inputs": [],
      "name": "owner",
      "outputs": [
        {
          "internalType": "address",
          "name": "",
          "type": "address"
        }
      ],
      "stateMutability": "view",
      "type": "function"
    },
    {
      "inputs": [],
      "name": "pendingOwner",
      "outputs": [
        {
          "internalType": "address",
          "name": "",
          "type": "address"
        }
      ],
      "stateMutability": "view",
      "type": "function"
    },
    {
      "inputs": [
        {
          "internalType": "address",
          "name": "underlying",
          "type": "address"
        }
      ],
      "name": "price",
      "outputs": [
        {
          "internalType": "uint256",
          "name": "",
          "type": "uint256"
        }
      ],
      "stateMutability": "view",
      "type": "function"
    },
    {
      "inputs": [
        {
          "internalType": "address",
          "name": "",
          "type": "address"
        }
      ],
      "name": "proxies",
      "outputs": [
        {
          "internalType": "contract IProxy",
          "name": "",
          "type": "address"
        }
      ],
      "stateMutability": "view",
      "type": "function"
    },
    {
      "inputs": [],
      "name": "renounceOwnership",
      "outputs": [],
      "stateMutability": "nonpayable",
      "type": "function"
    },
    {
      "inputs": [
        {
          "internalType": "address[]",
          "name": "underlyings",
          "type": "address[]"
        },
        {
          "internalType": "address[]",
          "name": "feeds",
          "type": "address[]"
        }
      ],
      "name": "setPriceFeeds",
      "outputs": [],
      "stateMutability": "nonpayable",
      "type": "function"
    },
    {
      "inputs": [
        {
          "internalType": "address",
          "name": "newOwner",
          "type": "address"
        }
      ],
      "name": "transferOwnership",
      "outputs": [],
      "stateMutability": "nonpayable",
      "type": "function"
    }
  ],
  "transactionHash": "0xefeef86ced2130c5c645b8ba2fe30eb180915058ad3e3e0beaef9b95fb20f867",
  "args": [],
  "numDeployments": 1,
  "bytecode": {
    "object": "0x608060405234801561001057600080fd5b50610f8d806100206000396000f3fe608060405234801561001057600080fd5b50600436106100cf5760003560e01c80639d23c8121161008c578063e30c397811610066578063e30c3978146101b5578063f2fde38b146101c8578063fc4d33f9146101db578063fc57d4df146101e357600080fd5b80639d23c81214610158578063aea910781461016b578063c45527911461018c57600080fd5b80633a750685146100d4578063485cc955146101045780636e96dfd714610119578063715018a61461012c5780638da5cb5b1461013457806392aeb53a14610145575b600080fd5b6067546100e7906001600160a01b031681565b6040516001600160a01b0390911681526020015b60405180910390f35b610117610112366004610b96565b6101f6565b005b610117610127366004610bcf565b61033f565b6101176103a9565b6033546001600160a01b03166100e7565b610117610153366004610cab565b6103ec565b6068546100e7906001600160a01b031681565b61017e610179366004610bcf565b610502565b6040519081526020016100fb565b6100e761019a366004610bcf565b6066602052600090815260409020546001600160a01b031681565b6065546100e7906001600160a01b031681565b6101176101d6366004610bcf565b610513565b610117610584565b61017e6101f1366004610bcf565b610698565b600054610100900460ff16158080156102165750600054600160ff909116105b806102305750303b158015610230575060005460ff166001145b6102985760405162461bcd60e51b815260206004820152602e60248201527f496e697469616c697a61626c653a20636f6e747261637420697320616c72656160448201526d191e481a5b9a5d1a585b1a5e995960921b60648201526084015b60405180910390fd5b6000805460ff1916600117905580156102bb576000805461ff0019166101001790555b6102c4336107cc565b606880546001600160a01b038086166001600160a01b0319928316179092556067805492851692909116919091179055801561033a576000805461ff0019169055604051600181527f7f26b83ff96e1f2b6a682f133852f6798a09c465da95921460cefb38474024989060200160405180910390a15b505050565b610347610807565b606580546001600160a01b038381166001600160a01b031983168117909355604080519190921680825260208201939093527fb3d55174552271a4f1aaf36b72f50381e892171636b3fb5447fe00e995e7a37b91015b60405180910390a15050565b6103b1610807565b60405162461bcd60e51b815260206004820152601060248201526f6e6f74207573656420616e796d6f726560801b604482015260640161028f565b6103f4610807565b60008251118015610406575080518251145b6104785760405162461bcd60e51b815260206004820152603860248201527f4c656e67746873206f6620626f746820617272617973206d757374206265206560448201527f7175616c20616e642067726561746572207468616e20302e0000000000000000606482015260840161028f565b60005b825181101561033a57600083828151811061049857610498610d0f565b602002602001015190508282815181106104b4576104b4610d0f565b6020908102919091018101516001600160a01b0392831660009081526066909252604090912080546001600160a01b03191692909116919091179055806104fa81610d3b565b91505061047b565b600061050d82610863565b92915050565b61051b610807565b606554604080516001600160a01b03928316815291831660208301527fb3d55174552271a4f1aaf36b72f50381e892171636b3fb5447fe00e995e7a37b910160405180910390a1606580546001600160a01b0319166001600160a01b0392909216919091179055565b6065546001600160a01b031633146105d65760405162461bcd60e51b81526020600482015260156024820152743737ba103a3432903832b73234b7339037bbb732b960591b604482015260640161028f565b60006105ea6033546001600160a01b031690565b6065549091506001600160a01b031661060281610ac5565b606580546001600160a01b0319169055604080516001600160a01b0384168152600060208201527f70aea8d848e8a90fb7661b227dc522eb6395c3dac71b63cb59edd5c9899b2364910160405180910390a1606554604080516001600160a01b03808516825290921660208301527fb3d55174552271a4f1aaf36b72f50381e892171636b3fb5447fe00e995e7a37b910161039d565b600080826001600160a01b0316636f307dc36040518163ffffffff1660e01b8152600401602060405180830381865afa1580156106d9573d6000803e3d6000fd5b505050506040513d601f19601f820116820180604052508101906106fd9190610d56565b9050600061070a82610863565b90506000826001600160a01b031663313ce5676040518163ffffffff1660e01b8152600401602060405180830381865afa15801561074c573d6000803e3d6000fd5b505050506040513d601f19601f820116820180604052508101906107709190610d73565b60ff16905060128111156107a357610789601282610d96565b61079490600a610e91565b61079e9083610e9d565b6107c3565b6107ae816012610d96565b6107b990600a610e91565b6107c39083610ebf565b95945050505050565b600054610100900460ff166107f35760405162461bcd60e51b815260040161028f90610ede565b6107fb610b17565b61080481610ac5565b50565b6033546001600160a01b031633146108615760405162461bcd60e51b815260206004820181905260248201527f4f776e61626c653a2063616c6c6572206973206e6f7420746865206f776e6572604482015260640161028f565b565b6001600160a01b03808216600090815260666020526040812054909116806108f35760405162461bcd60e51b815260206004820152603960248201527f4e6f2041504933207072696365206665656420666f756e6420666f722074686960448201527f7320756e6465726c79696e6720455243323020746f6b656e2e00000000000000606482015260840161028f565b6067546000906001600160a01b0316610998576068546040516315d5220f60e31b81526001600160a01b039091166004820152600090339063aea9107890602401602060405180830381865afa158015610951573d6000803e3d6000fd5b505050506040513d601f19601f820116820180604052508101906109759190610f29565b9050610990816ec097ce7bc90715b34b9f1000000000610e9d565b915050610a26565b606754604080516315f789a960e21b815281516000936001600160a01b0316926357de26a492600480820193918290030181865afa1580156109de573d6000803e3d6000fd5b505050506040513d601f19601f82011682018060405250810190610a029190610f42565b509050806001600160e01b0316915060008211610a2457506000949350505050565b505b6000826001600160a01b03166357de26a46040518163ffffffff1660e01b81526004016040805180830381865afa158015610a65573d6000803e3d6000fd5b505050506040513d601f19601f82011682018060405250810190610a899190610f42565b509050600081601b0b1215610a9f5760006107c3565b81610abb6001600160e01b038316670de0b6b3a7640000610ebf565b6107c39190610e9d565b603380546001600160a01b038381166001600160a01b0319831681179093556040519116919082907f8be0079c531659141344cd1fd0a4f28419497f9722a3daafe3b4186f6b6457e090600090a35050565b600054610100900460ff16610b3e5760405162461bcd60e51b815260040161028f90610ede565b610861600054610100900460ff16610b685760405162461bcd60e51b815260040161028f90610ede565b61086133610ac5565b6001600160a01b038116811461080457600080fd5b8035610b9181610b71565b919050565b60008060408385031215610ba957600080fd5b8235610bb481610b71565b91506020830135610bc481610b71565b809150509250929050565b600060208284031215610be157600080fd5b8135610bec81610b71565b9392505050565b634e487b7160e01b600052604160045260246000fd5b600082601f830112610c1a57600080fd5b8135602067ffffffffffffffff80831115610c3757610c37610bf3565b8260051b604051601f19603f83011681018181108482111715610c5c57610c5c610bf3565b604052938452858101830193838101925087851115610c7a57600080fd5b83870191505b84821015610ca057610c9182610b86565b83529183019190830190610c80565b979650505050505050565b60008060408385031215610cbe57600080fd5b823567ffffffffffffffff80821115610cd657600080fd5b610ce286838701610c09565b93506020850135915080821115610cf857600080fd5b50610d0585828601610c09565b9150509250929050565b634e487b7160e01b600052603260045260246000fd5b634e487b7160e01b600052601160045260246000fd5b6000600019821415610d4f57610d4f610d25565b5060010190565b600060208284031215610d6857600080fd5b8151610bec81610b71565b600060208284031215610d8557600080fd5b815160ff81168114610bec57600080fd5b600082821015610da857610da8610d25565b500390565b600181815b80851115610de8578160001904821115610dce57610dce610d25565b80851615610ddb57918102915b93841c9390800290610db2565b509250929050565b600082610dff5750600161050d565b81610e0c5750600061050d565b8160018114610e225760028114610e2c57610e48565b600191505061050d565b60ff841115610e3d57610e3d610d25565b50506001821b61050d565b5060208310610133831016604e8410600b8410161715610e6b575081810a61050d565b610e758383610dad565b8060001904821115610e8957610e89610d25565b029392505050565b6000610bec8383610df0565b600082610eba57634e487b7160e01b600052601260045260246000fd5b500490565b6000816000190483118215151615610ed957610ed9610d25565b500290565b6020808252602b908201527f496e697469616c697a61626c653a20636f6e7472616374206973206e6f74206960408201526a6e697469616c697a696e6760a81b606082015260800190565b600060208284031215610f3b57600080fd5b5051919050565b60008060408385031215610f5557600080fd5b825180601b0b8114610f6657600080fd5b602084015190925063ffffffff81168114610bc457600080fdfea164736f6c634300080a000a",
    "linkReferences": {}
  },
  "methodIdentifiers": {
    "NATIVE_TOKEN_USD_PRICE_FEED()": "3a750685",
    "USD_TOKEN()": "9d23c812",
    "_acceptOwner()": "fc4d33f9",
    "_setPendingOwner(address)": "6e96dfd7",
    "getUnderlyingPrice(address)": "fc57d4df",
    "initialize(address,address)": "485cc955",
    "owner()": "8da5cb5b",
    "pendingOwner()": "e30c3978",
    "price(address)": "aea91078",
    "proxies(address)": "c4552791",
    "renounceOwnership()": "715018a6",
    "setPriceFeeds(address[],address[])": "92aeb53a",
    "transferOwnership(address)": "f2fde38b"
  }
}