{
  "address": "0xFf359c878124AA1C8c72214E608c7579f64a2bE1",
  "abi": [
    {
      "anonymous": false,
      "inputs": [
        {
          "indexed": false,
          "internalType": "uint8",
          "name": "version",
          "type": "uint8"
        }
      ],
      "name": "Initialized",
      "type": "event"
    },
    {
      "anonymous": false,
      "inputs": [
        {
          "indexed": false,
          "internalType": "address",
          "name": "oldOwner",
          "type": "address"
        },
        {
          "indexed": false,
          "internalType": "address",
          "name": "newOwner",
          "type": "address"
        }
      ],
      "name": "NewOwner",
      "type": "event"
    },
    {
      "anonymous": false,
      "inputs": [
        {
          "indexed": false,
          "internalType": "address",
          "name": "oldPendingOwner",
          "type": "address"
        },
        {
          "indexed": false,
          "internalType": "address",
          "name": "newPendingOwner",
          "type": "address"
        }
      ],
      "name": "NewPendingOwner",
      "type": "event"
    },
    {
      "anonymous": false,
      "inputs": [
        {
          "indexed": true,
          "internalType": "address",
          "name": "previousOwner",
          "type": "address"
        },
        {
          "indexed": true,
          "internalType": "address",
          "name": "newOwner",
          "type": "address"
        }
      ],
      "name": "OwnershipTransferred",
      "type": "event"
    },
    {
      "inputs": [],
      "name": "NATIVE_TOKEN_USD_PRICE_FEED",
      "outputs": [
        {
          "internalType": "address",
          "name": "",
          "type": "address"
        }
      ],
      "stateMutability": "view",
      "type": "function"
    },
    {
      "inputs": [],
      "name": "USD_TOKEN",
      "outputs": [
        {
          "internalType": "address",
          "name": "",
          "type": "address"
        }
      ],
      "stateMutability": "view",
      "type": "function"
    },
    {
      "inputs": [],
      "name": "_acceptOwner",
      "outputs": [],
      "stateMutability": "nonpayable",
      "type": "function"
    },
    {
      "inputs": [
        {
          "internalType": "address",
          "name": "newPendingOwner",
          "type": "address"
        }
      ],
      "name": "_setPendingOwner",
      "outputs": [],
      "stateMutability": "nonpayable",
      "type": "function"
    },
    {
      "inputs": [
        {
          "internalType": "contract ICErc20",
          "name": "cToken",
          "type": "address"
        }
      ],
      "name": "getUnderlyingPrice",
      "outputs": [
        {
          "internalType": "uint256",
          "name": "",
          "type": "uint256"
        }
      ],
      "stateMutability": "view",
      "type": "function"
    },
    {
      "inputs": [
        {
          "internalType": "address",
          "name": "_usdToken",
          "type": "address"
        },
        {
          "internalType": "address",
          "name": "nativeTokenUsd",
          "type": "address"
        }
      ],
      "name": "initialize",
      "outputs": [],
      "stateMutability": "nonpayable",
      "type": "function"
    },
    {
      "inputs": [],
      "name": "owner",
      "outputs": [
        {
          "internalType": "address",
          "name": "",
          "type": "address"
        }
      ],
      "stateMutability": "view",
      "type": "function"
    },
    {
      "inputs": [],
      "name": "pendingOwner",
      "outputs": [
        {
          "internalType": "address",
          "name": "",
          "type": "address"
        }
      ],
      "stateMutability": "view",
      "type": "function"
    },
    {
      "inputs": [
        {
          "internalType": "address",
          "name": "underlying",
          "type": "address"
        }
      ],
      "name": "price",
      "outputs": [
        {
          "internalType": "uint256",
          "name": "",
          "type": "uint256"
        }
      ],
      "stateMutability": "view",
      "type": "function"
    },
    {
      "inputs": [
        {
          "internalType": "address",
          "name": "",
          "type": "address"
        }
      ],
      "name": "proxies",
      "outputs": [
        {
          "internalType": "contract IProxy",
          "name": "",
          "type": "address"
        }
      ],
      "stateMutability": "view",
      "type": "function"
    },
    {
      "inputs": [
        {
          "internalType": "address",
          "name": "_usdToken",
          "type": "address"
        },
        {
          "internalType": "address",
          "name": "nativeTokenUsd",
          "type": "address"
        }
      ],
      "name": "reinitialize",
      "outputs": [],
      "stateMutability": "nonpayable",
      "type": "function"
    },
    {
      "inputs": [],
      "name": "renounceOwnership",
      "outputs": [],
      "stateMutability": "nonpayable",
      "type": "function"
    },
    {
      "inputs": [
        {
          "internalType": "address[]",
          "name": "underlyings",
          "type": "address[]"
        },
        {
          "internalType": "address[]",
          "name": "feeds",
          "type": "address[]"
        }
      ],
      "name": "setPriceFeeds",
      "outputs": [],
      "stateMutability": "nonpayable",
      "type": "function"
    },
    {
      "inputs": [
        {
          "internalType": "address",
          "name": "newOwner",
          "type": "address"
        }
      ],
      "name": "transferOwnership",
      "outputs": [],
      "stateMutability": "nonpayable",
      "type": "function"
    }
  ],
  "transactionHash": "0xfe813ad06c368f9a9957e6f268139199cc37879e79027fb3443b486bc16a25db",
  "args": [],
  "numDeployments": 3,
  "bytecode": {
    "object": "0x608060405234801561001057600080fd5b50611142806100206000396000f3fe608060405234801561001057600080fd5b50600436106100ea5760003560e01c8063a9d951a31161008c578063e30c397811610066578063e30c3978146101e3578063f2fde38b146101f6578063fc4d33f914610209578063fc57d4df1461021157600080fd5b8063a9d951a314610186578063aea9107814610199578063c4552791146101ba57600080fd5b8063715018a6116100c8578063715018a6146101475780638da5cb5b1461014f57806392aeb53a146101605780639d23c8121461017357600080fd5b80633a750685146100ef578063485cc9551461011f5780636e96dfd714610134575b600080fd5b606754610102906001600160a01b031681565b6040516001600160a01b0390911681526020015b60405180910390f35b61013261012d366004610d4b565b610224565b005b610132610142366004610d84565b61036d565b6101326103d7565b6033546001600160a01b0316610102565b61013261016e366004610e60565b61041a565b606854610102906001600160a01b031681565b610132610194366004610d4b565b610530565b6101ac6101a7366004610d84565b61061e565b604051908152602001610116565b6101026101c8366004610d84565b6066602052600090815260409020546001600160a01b031681565b606554610102906001600160a01b031681565b610132610204366004610d84565b61062f565b6101326106a0565b6101ac61021f366004610d84565b6107b4565b600054610100900460ff16158080156102445750600054600160ff909116105b8061025e5750303b15801561025e575060005460ff166001145b6102c65760405162461bcd60e51b815260206004820152602e60248201527f496e697469616c697a61626c653a20636f6e747261637420697320616c72656160448201526d191e481a5b9a5d1a585b1a5e995960921b60648201526084015b60405180910390fd5b6000805460ff1916600117905580156102e9576000805461ff0019166101001790555b6102f2336108e8565b606880546001600160a01b038086166001600160a01b03199283161790925560678054928516929091169190911790558015610368576000805461ff0019169055604051600181527f7f26b83ff96e1f2b6a682f133852f6798a09c465da95921460cefb38474024989060200160405180910390a15b505050565b610375610923565b606580546001600160a01b038381166001600160a01b031983168117909355604080519190921680825260208201939093527fb3d55174552271a4f1aaf36b72f50381e892171636b3fb5447fe00e995e7a37b91015b60405180910390a15050565b6103df610923565b60405162461bcd60e51b815260206004820152601060248201526f6e6f74207573656420616e796d6f726560801b60448201526064016102bd565b610422610923565b60008251118015610434575080518251145b6104a65760405162461bcd60e51b815260206004820152603860248201527f4c656e67746873206f6620626f746820617272617973206d757374206265206560448201527f7175616c20616e642067726561746572207468616e20302e000000000000000060648201526084016102bd565b60005b82518110156103685760008382815181106104c6576104c6610ec4565b602002602001015190508282815181106104e2576104e2610ec4565b6020908102919091018101516001600160a01b0392831660009081526066909252604090912080546001600160a01b031916929091169190911790558061052881610ef0565b9150506104a9565b6033546001600160a01b03163314806105ef5760006105767fb53127684a568b3173ae13b9f8a6016e243e63b6e8ee1178d6a717850b5d6103546001600160a01b031690565b90506001600160a01b0381163314806105ec5760405162461bcd60e51b815260206004820152603260248201527f4f776e61626c653a2063616c6c6572206973206e65697468657220746865206f6044820152713bb732b9103737b9103a34329030b236b4b760711b60648201526084016102bd565b50505b50606880546001600160a01b039384166001600160a01b03199182161790915560678054929093169116179055565b60006106298261097f565b92915050565b610637610923565b606554604080516001600160a01b03928316815291831660208301527fb3d55174552271a4f1aaf36b72f50381e892171636b3fb5447fe00e995e7a37b910160405180910390a1606580546001600160a01b0319166001600160a01b0392909216919091179055565b6065546001600160a01b031633146106f25760405162461bcd60e51b81526020600482015260156024820152743737ba103a3432903832b73234b7339037bbb732b960591b60448201526064016102bd565b60006107066033546001600160a01b031690565b6065549091506001600160a01b031661071e81610c7a565b606580546001600160a01b0319169055604080516001600160a01b0384168152600060208201527f70aea8d848e8a90fb7661b227dc522eb6395c3dac71b63cb59edd5c9899b2364910160405180910390a1606554604080516001600160a01b03808516825290921660208301527fb3d55174552271a4f1aaf36b72f50381e892171636b3fb5447fe00e995e7a37b91016103cb565b600080826001600160a01b0316636f307dc36040518163ffffffff1660e01b8152600401602060405180830381865afa1580156107f5573d6000803e3d6000fd5b505050506040513d601f19601f820116820180604052508101906108199190610f0b565b905060006108268261097f565b90506000826001600160a01b031663313ce5676040518163ffffffff1660e01b8152600401602060405180830381865afa158015610868573d6000803e3d6000fd5b505050506040513d601f19601f8201168201806040525081019061088c9190610f28565b60ff16905060128111156108bf576108a5601282610f4b565b6108b090600a611046565b6108ba9083611052565b6108df565b6108ca816012610f4b565b6108d590600a611046565b6108df9083611074565b95945050505050565b600054610100900460ff1661090f5760405162461bcd60e51b81526004016102bd90611093565b610917610ccc565b61092081610c7a565b50565b6033546001600160a01b0316331461097d5760405162461bcd60e51b815260206004820181905260248201527f4f776e61626c653a2063616c6c6572206973206e6f7420746865206f776e657260448201526064016102bd565b565b6001600160a01b0380821660009081526066602052604081205490911680610a0f5760405162461bcd60e51b815260206004820152603960248201527f4e6f2041504933207072696365206665656420666f756e6420666f722074686960448201527f7320756e6465726c79696e6720455243323020746f6b656e2e0000000000000060648201526084016102bd565b6067546000906001600160a01b0316610ab4576068546040516315d5220f60e31b81526001600160a01b039091166004820152600090339063aea9107890602401602060405180830381865afa158015610a6d573d6000803e3d6000fd5b505050506040513d601f19601f82011682018060405250810190610a9191906110de565b9050610aac816ec097ce7bc90715b34b9f1000000000611052565b915050610b91565b606754604080516315f789a960e21b815281516000936001600160a01b0316926357de26a492600480820193918290030181865afa158015610afa573d6000803e3d6000fd5b505050506040513d601f19601f82011682018060405250810190610b1e91906110f7565b509050600081601b0b13610b855760405162461bcd60e51b815260206004820152602860248201527f4150493350726963654f7261636c653a206e617469766520746f6b656e2070726044820152670696365203c3d20360c41b60648201526084016102bd565b6001600160e01b031690505b6000826001600160a01b03166357de26a46040518163ffffffff1660e01b81526004016040805180830381865afa158015610bd0573d6000803e3d6000fd5b505050506040513d601f19601f82011682018060405250810190610bf491906110f7565b509050600081601b0b13610c545760405162461bcd60e51b815260206004820152602160248201527f4150493350726963654f7261636c653a20746f6b656e207072696365203c3d206044820152600360fc1b60648201526084016102bd565b81610c706001600160e01b038316670de0b6b3a7640000611074565b6108df9190611052565b603380546001600160a01b038381166001600160a01b0319831681179093556040519116919082907f8be0079c531659141344cd1fd0a4f28419497f9722a3daafe3b4186f6b6457e090600090a35050565b600054610100900460ff16610cf35760405162461bcd60e51b81526004016102bd90611093565b61097d600054610100900460ff16610d1d5760405162461bcd60e51b81526004016102bd90611093565b61097d33610c7a565b6001600160a01b038116811461092057600080fd5b8035610d4681610d26565b919050565b60008060408385031215610d5e57600080fd5b8235610d6981610d26565b91506020830135610d7981610d26565b809150509250929050565b600060208284031215610d9657600080fd5b8135610da181610d26565b9392505050565b634e487b7160e01b600052604160045260246000fd5b600082601f830112610dcf57600080fd5b8135602067ffffffffffffffff80831115610dec57610dec610da8565b8260051b604051601f19603f83011681018181108482111715610e1157610e11610da8565b604052938452858101830193838101925087851115610e2f57600080fd5b83870191505b84821015610e5557610e4682610d3b565b83529183019190830190610e35565b979650505050505050565b60008060408385031215610e7357600080fd5b823567ffffffffffffffff80821115610e8b57600080fd5b610e9786838701610dbe565b93506020850135915080821115610ead57600080fd5b50610eba85828601610dbe565b9150509250929050565b634e487b7160e01b600052603260045260246000fd5b634e487b7160e01b600052601160045260246000fd5b6000600019821415610f0457610f04610eda565b5060010190565b600060208284031215610f1d57600080fd5b8151610da181610d26565b600060208284031215610f3a57600080fd5b815160ff81168114610da157600080fd5b600082821015610f5d57610f5d610eda565b500390565b600181815b80851115610f9d578160001904821115610f8357610f83610eda565b80851615610f9057918102915b93841c9390800290610f67565b509250929050565b600082610fb457506001610629565b81610fc157506000610629565b8160018114610fd75760028114610fe157610ffd565b6001915050610629565b60ff841115610ff257610ff2610eda565b50506001821b610629565b5060208310610133831016604e8410600b8410161715611020575081810a610629565b61102a8383610f62565b806000190482111561103e5761103e610eda565b029392505050565b6000610da18383610fa5565b60008261106f57634e487b7160e01b600052601260045260246000fd5b500490565b600081600019048311821515161561108e5761108e610eda565b500290565b6020808252602b908201527f496e697469616c697a61626c653a20636f6e7472616374206973206e6f74206960408201526a6e697469616c697a696e6760a81b606082015260800190565b6000602082840312156110f057600080fd5b5051919050565b6000806040838503121561110a57600080fd5b825180601b0b811461111b57600080fd5b602084015190925063ffffffff81168114610d7957600080fdfea164736f6c634300080a000a",
    "linkReferences": {}
  },
  "methodIdentifiers": {
    "NATIVE_TOKEN_USD_PRICE_FEED()": "3a750685",
    "USD_TOKEN()": "9d23c812",
    "_acceptOwner()": "fc4d33f9",
    "_setPendingOwner(address)": "6e96dfd7",
    "getUnderlyingPrice(address)": "fc57d4df",
    "initialize(address,address)": "485cc955",
    "owner()": "8da5cb5b",
    "pendingOwner()": "e30c3978",
    "price(address)": "aea91078",
    "proxies(address)": "c4552791",
    "reinitialize(address,address)": "a9d951a3",
    "renounceOwnership()": "715018a6",
    "setPriceFeeds(address[],address[])": "92aeb53a",
    "transferOwnership(address)": "f2fde38b"
  }
}