{
  "address": "0x23EB98ec8341d460e7AC692261bb8cC784AdE977",
  "abi": [
    {
      "anonymous": false,
      "inputs": [
        {
          "indexed": false,
          "internalType": "uint8",
          "name": "version",
          "type": "uint8"
        }
      ],
      "name": "Initialized",
      "type": "event"
    },
    {
      "anonymous": false,
      "inputs": [
        {
          "indexed": false,
          "internalType": "address",
          "name": "oldOwner",
          "type": "address"
        },
        {
          "indexed": false,
          "internalType": "address",
          "name": "newOwner",
          "type": "address"
        }
      ],
      "name": "NewOwner",
      "type": "event"
    },
    {
      "anonymous": false,
      "inputs": [
        {
          "indexed": false,
          "internalType": "address",
          "name": "oldPendingOwner",
          "type": "address"
        },
        {
          "indexed": false,
          "internalType": "address",
          "name": "newPendingOwner",
          "type": "address"
        }
      ],
      "name": "NewPendingOwner",
      "type": "event"
    },
    {
      "anonymous": false,
      "inputs": [
        {
          "indexed": true,
          "internalType": "address",
          "name": "previousOwner",
          "type": "address"
        },
        {
          "indexed": true,
          "internalType": "address",
          "name": "newOwner",
          "type": "address"
        }
      ],
      "name": "OwnershipTransferred",
      "type": "event"
    },
    {
      "inputs": [],
      "name": "_acceptOwner",
      "outputs": [],
      "stateMutability": "nonpayable",
      "type": "function"
    },
    {
      "inputs": [
        {
          "internalType": "address",
          "name": "newPendingOwner",
          "type": "address"
        }
      ],
      "name": "_setPendingOwner",
      "outputs": [],
      "stateMutability": "nonpayable",
      "type": "function"
    },
    {
      "inputs": [
        {
          "internalType": "address",
          "name": "pool",
          "type": "address"
        },
        {
          "internalType": "address",
          "name": "user",
          "type": "address"
        },
        {
          "internalType": "address",
          "name": "target",
          "type": "address"
        },
        {
          "internalType": "bytes4",
          "name": "functionSig",
          "type": "bytes4"
        }
      ],
      "name": "canCall",
      "outputs": [
        {
          "internalType": "bool",
          "name": "",
          "type": "bool"
        }
      ],
      "stateMutability": "view",
      "type": "function"
    },
    {
      "inputs": [
        {
          "internalType": "address",
          "name": "pool",
          "type": "address"
        }
      ],
      "name": "createPoolAuthority",
      "outputs": [
        {
          "internalType": "contract PoolRolesAuthority",
          "name": "auth",
          "type": "address"
        }
      ],
      "stateMutability": "nonpayable",
      "type": "function"
    },
    {
      "inputs": [
        {
          "internalType": "address",
          "name": "_leveredPositionsFactory",
          "type": "address"
        }
      ],
      "name": "initialize",
      "outputs": [],
      "stateMutability": "nonpayable",
      "type": "function"
    },
    {
      "inputs": [],
      "name": "leveredPositionsFactory",
      "outputs": [
        {
          "internalType": "address",
          "name": "",
          "type": "address"
        }
      ],
      "stateMutability": "view",
      "type": "function"
    },
    {
      "inputs": [],
      "name": "owner",
      "outputs": [
        {
          "internalType": "address",
          "name": "",
          "type": "address"
        }
      ],
      "stateMutability": "view",
      "type": "function"
    },
    {
      "inputs": [],
      "name": "pendingOwner",
      "outputs": [
        {
          "internalType": "address",
          "name": "",
          "type": "address"
        }
      ],
      "stateMutability": "view",
      "type": "function"
    },
    {
      "inputs": [],
      "name": "poolAuthLogic",
      "outputs": [
        {
          "internalType": "contract PoolRolesAuthority",
          "name": "",
          "type": "address"
        }
      ],
      "stateMutability": "view",
      "type": "function"
    },
    {
      "inputs": [
        {
          "internalType": "address",
          "name": "",
          "type": "address"
        }
      ],
      "name": "poolsAuthorities",
      "outputs": [
        {
          "internalType": "contract PoolRolesAuthority",
          "name": "",
          "type": "address"
        }
      ],
      "stateMutability": "view",
      "type": "function"
    },
    {
      "inputs": [
        {
          "internalType": "address",
          "name": "poolAddress",
          "type": "address"
        }
      ],
      "name": "reconfigureAuthority",
      "outputs": [],
      "stateMutability": "nonpayable",
      "type": "function"
    },
    {
      "inputs": [
        {
          "internalType": "address",
          "name": "_leveredPositionsFactory",
          "type": "address"
        }
      ],
      "name": "reinitialize",
      "outputs": [],
      "stateMutability": "nonpayable",
      "type": "function"
    },
    {
      "inputs": [],
      "name": "renounceOwnership",
      "outputs": [],
      "stateMutability": "nonpayable",
      "type": "function"
    },
    {
      "inputs": [
        {
          "internalType": "address",
          "name": "pool",
          "type": "address"
        },
        {
          "internalType": "address",
          "name": "user",
          "type": "address"
        },
        {
          "internalType": "uint8",
          "name": "role",
          "type": "uint8"
        },
        {
          "internalType": "bool",
          "name": "enabled",
          "type": "bool"
        }
      ],
      "name": "setUserRole",
      "outputs": [],
      "stateMutability": "nonpayable",
      "type": "function"
    },
    {
      "inputs": [
        {
          "internalType": "address",
          "name": "newOwner",
          "type": "address"
        }
      ],
      "name": "transferOwnership",
      "outputs": [],
      "stateMutability": "nonpayable",
      "type": "function"
    }
  ],
  "transactionHash": "0xf04eb8e48326e2f57f603fbe4c5239f5cc599e617b3a69c62cdb129f88b418fa",
  "args": [],
  "numDeployments": 3,
  "bytecode": {
    "object": "0x608060405234801561001057600080fd5b50613f97806100206000396000f3fe60806040523480156200001157600080fd5b5060043610620001095760003560e01c8063c4d66de811620000a3578063ec2ffdd1116200006e578063ec2ffdd11462000220578063f2fde38b146200024c578063f7e7d1fd1462000263578063fc4d33f9146200027a57600080fd5b8063c4d66de814620001b6578063ca224d9814620001cd578063df595cb814620001e4578063e30c3978146200020c57600080fd5b8063715018a611620000e4578063715018a6146200016f5780638da5cb5b146200017957806395f14b16146200018b578063a1a82b56146200019f57600080fd5b806354927fb8146200010e5780635a89ef51146200013f5780636e96dfd71462000158575b600080fd5b60675462000122906001600160a01b031681565b6040516001600160a01b0390911681526020015b60405180910390f35b620001566200015036600462001249565b62000284565b005b620001566200016936600462001249565b6200064f565b62000156620006bb565b6033546001600160a01b031662000122565b60685462000122906001600160a01b031681565b62000122620001b036600462001249565b62000701565b62000156620001c736600462001249565b620009cc565b62000156620001de3660046200128f565b62000b4c565b620001fb620001f5366004620012f4565b62000d50565b604051901515815260200162000136565b60655462000122906001600160a01b031681565b620001226200023136600462001249565b6066602052600090815260409020546001600160a01b031681565b620001566200025d36600462001249565b62000e07565b620001566200027436600462001249565b62000e7a565b6200015662000fa8565b6001600160a01b038082166000818152606660205260409020548392169033141580620002b957506001600160a01b03811615155b156200064a576001600160a01b0381166200030f5760405162461bcd60e51b81526020600482015260116024820152706e6f207375636820617574686f7269747960781b60448201526064015b60405180910390fd5b6033546001600160a01b0316331480620003315750336001600160a01b038416145b620003735760405162461bcd60e51b81526020600482015260116024820152701b9bdd081bdddb995c881bdc881c1bdbdb607a1b604482015260640162000306565b806001600160a01b031663e347416d6040518163ffffffff1660e01b8152600401600060405180830381600087803b158015620003af57600080fd5b505af1158015620003c4573d6000803e3d6000fd5b5050604051630c22644560e01b81526001600160a01b03858116600483015284169250630c2264459150602401600060405180830381600087803b1580156200040c57600080fd5b505af115801562000421573d6000803e3d6000fd5b5050604051630a4c60c560e41b81526001600160a01b0385811660048301528416925063a4c60c509150602401600060405180830381600087803b1580156200046957600080fd5b505af11580156200047e573d6000803e3d6000fd5b5050604051637875b94560e01b81526001600160a01b03858116600483015284169250637875b9459150602401600060405180830381600087803b158015620004c657600080fd5b505af1158015620004db573d6000803e3d6000fd5b505060405163387beb5760e11b81526001600160a01b038581166004830152841692506370f7d6ae9150602401600060405180830381600087803b1580156200052357600080fd5b505af115801562000538573d6000803e3d6000fd5b505050506200054f6033546001600160a01b031690565b6001600160a01b0316816001600160a01b0316638da5cb5b6040518163ffffffff1660e01b8152600401602060405180830381865afa15801562000597573d6000803e3d6000fd5b505050506040513d601f19601f82011682018060405250810190620005bd91906200135a565b6001600160a01b0316146200064a57806001600160a01b03166313af4035620005ee6033546001600160a01b031690565b6040516001600160e01b031960e084901b1681526001600160a01b039091166004820152602401600060405180830381600087803b1580156200063057600080fd5b505af115801562000645573d6000803e3d6000fd5b505050505b505050565b62000659620010c2565b606580546001600160a01b038381166001600160a01b031983168117909355604080519190921680825260208201939093527fb3d55174552271a4f1aaf36b72f50381e892171636b3fb5447fe00e995e7a37b91015b60405180910390a15050565b620006c5620010c2565b60405162461bcd60e51b815260206004820152601060248201526f6e6f74207573656420616e796d6f726560801b604482015260640162000306565b60006200070d620010c2565b6001600160a01b038281166000908152606660205260409020541615620007695760405162461bcd60e51b815260206004820152600f60248201526e185b1c9958591e4818dc99585d1959608a1b604482015260640162000306565b6067546000906001600160a01b0316620007aa7fb53127684a568b3173ae13b9f8a6016e243e63b6e8ee1178d6a717850b5d6103546001600160a01b031690565b604051620007b89062001217565b6001600160a01b03928316815291166020820152606060408201819052600090820152608001604051809103906000f080158015620007fb573d6000803e3d6000fd5b5060405163189acdbd60e31b81523060048201529092508291506001600160a01b0382169063c4d66de890602401600060405180830381600087803b1580156200084457600080fd5b505af115801562000859573d6000803e3d6000fd5b505050506001600160a01b038381166000818152606660205260409081902080546001600160a01b0319169386169384179055516319883fc160e01b815260048101919091526319883fc190602401600060405180830381600087803b158015620008c357600080fd5b505af1158015620008d8573d6000803e3d6000fd5b50505050816001600160a01b03166367aff48430846001600160a01b03166342f1e8796040518163ffffffff1660e01b8152600401602060405180830381865afa1580156200092b573d6000803e3d6000fd5b505050506040513d601f19601f820116820180604052508101906200095191906200137a565b6040516001600160e01b031960e085901b1681526001600160a01b03909216600483015260ff16602482015260016044820152606401600060405180830381600087803b158015620009a257600080fd5b505af1158015620009b7573d6000803e3d6000fd5b50505050620009c68362000284565b50919050565b600054610100900460ff1615808015620009ed5750600054600160ff909116105b8062000a095750303b15801562000a09575060005460ff166001145b62000a6e5760405162461bcd60e51b815260206004820152602e60248201527f496e697469616c697a61626c653a20636f6e747261637420697320616c72656160448201526d191e481a5b9a5d1a585b1a5e995960921b606482015260840162000306565b6000805460ff19166001179055801562000a92576000805461ff0019166101001790555b62000a9d3362001120565b606880546001600160a01b0319166001600160a01b03841617905560405162000ac69062001225565b604051809103906000f08015801562000ae3573d6000803e3d6000fd5b50606780546001600160a01b0319166001600160a01b0392909216919091179055801562000b48576000805461ff0019169055604051600181527f7f26b83ff96e1f2b6a682f133852f6798a09c465da95921460cefb384740249890602001620006af565b5050565b6001600160a01b03808516600090815260666020526040902054168062000bac5760405162461bcd60e51b8152602060048201526013602482015272185d5d1a08191bd95cc81b9bdd08195e1a5cdd606a1b604482015260640162000306565b6033546001600160a01b031633148062000bd057506068546001600160a01b031633145b62000c155760405162461bcd60e51b81526020600482015260146024820152736e6f74206f776e6572206f7220666163746f727960601b604482015260640162000306565b6068546001600160a01b03163314158062000c995750806001600160a01b0316633300183c6040518163ffffffff1660e01b8152600401602060405180830381865afa15801562000c6a573d6000803e3d6000fd5b505050506040513d601f19601f8201168201806040525081019062000c9091906200137a565b60ff168360ff16145b62000cdb5760405162461bcd60e51b81526020600482015260116024820152706f6e6c79206c657620706f7320726f6c6560781b604482015260640162000306565b6040516319ebfd2160e21b81526001600160a01b03858116600483015260ff8516602483015283151560448301528216906367aff48490606401600060405180830381600087803b15801562000d3057600080fd5b505af115801562000d45573d6000803e3d6000fd5b505050505050505050565b6001600160a01b03808516600090815260666020526040812054909116801580159062000dfd575060405163b700961360e01b81526001600160a01b03868116600483015285811660248301526001600160e01b03198516604483015282169063b700961390606401602060405180830381865afa15801562000dd7573d6000803e3d6000fd5b505050506040513d601f19601f8201168201806040525081019062000dfd91906200139a565b9695505050505050565b62000e11620010c2565b606554604080516001600160a01b03928316815291831660208301527fb3d55174552271a4f1aaf36b72f50381e892171636b3fb5447fe00e995e7a37b910160405180910390a1606580546001600160a01b0319166001600160a01b0392909216919091179055565b6033546001600160a01b031633148062000f3d57600062000ec27fb53127684a568b3173ae13b9f8a6016e243e63b6e8ee1178d6a717850b5d6103546001600160a01b031690565b90506001600160a01b03811633148062000f3a5760405162461bcd60e51b815260206004820152603260248201527f4f776e61626c653a2063616c6c6572206973206e65697468657220746865206f6044820152713bb732b9103737b9103a34329030b236b4b760711b606482015260840162000306565b50505b606880546001600160a01b0319166001600160a01b03841617905560405162000f669062001225565b604051809103906000f08015801562000f83573d6000803e3d6000fd5b50606780546001600160a01b0319166001600160a01b03929092169190911790555050565b6065546001600160a01b0316331462000ffc5760405162461bcd60e51b81526020600482015260156024820152743737ba103a3432903832b73234b7339037bbb732b960591b604482015260640162000306565b6000620010116033546001600160a01b031690565b6065549091506001600160a01b03166200102b8162001162565b606580546001600160a01b0319169055604080516001600160a01b0384168152600060208201527f70aea8d848e8a90fb7661b227dc522eb6395c3dac71b63cb59edd5c9899b2364910160405180910390a1606554604080516001600160a01b03808516825290921660208301527fb3d55174552271a4f1aaf36b72f50381e892171636b3fb5447fe00e995e7a37b9101620006af565b6033546001600160a01b031633146200111e5760405162461bcd60e51b815260206004820181905260248201527f4f776e61626c653a2063616c6c6572206973206e6f7420746865206f776e6572604482015260640162000306565b565b600054610100900460ff166200114a5760405162461bcd60e51b81526004016200030690620013ba565b62001154620011b4565b6200115f8162001162565b50565b603380546001600160a01b038381166001600160a01b0319831681179093556040519116919082907f8be0079c531659141344cd1fd0a4f28419497f9722a3daafe3b4186f6b6457e090600090a35050565b600054610100900460ff16620011de5760405162461bcd60e51b81526004016200030690620013ba565b6200111e600054610100900460ff166200120c5760405162461bcd60e51b81526004016200030690620013ba565b6200111e3362001162565b610e6f806200140683390190565b611d16806200227583390190565b6001600160a01b03811681146200115f57600080fd5b6000602082840312156200125c57600080fd5b8135620012698162001233565b9392505050565b60ff811681146200115f57600080fd5b80151581146200115f57600080fd5b60008060008060808587031215620012a657600080fd5b8435620012b38162001233565b93506020850135620012c58162001233565b92506040850135620012d78162001270565b91506060850135620012e98162001280565b939692955090935050565b600080600080608085870312156200130b57600080fd5b8435620013188162001233565b935060208501356200132a8162001233565b925060408501356200133c8162001233565b915060608501356001600160e01b031981168114620012e957600080fd5b6000602082840312156200136d57600080fd5b8151620012698162001233565b6000602082840312156200138d57600080fd5b8151620012698162001270565b600060208284031215620013ad57600080fd5b8151620012698162001280565b6020808252602b908201527f496e697469616c697a61626c653a20636f6e7472616374206973206e6f74206960408201526a6e697469616c697a696e6760a81b60608201526080019056fe608060405260405162000e6f38038062000e6f83398101604081905262000026916200049d565b828162000036828260006200004d565b50620000449050826200008a565b505050620005d0565b6200005883620000e5565b600082511180620000665750805b1562000085576200008383836200012760201b620002601760201c565b505b505050565b7f7e644d79422f17c01e4894b5f4f588d331ebfa28653d42ae832dc59e38c9798f620000b562000156565b604080516001600160a01b03928316815291841660208301520160405180910390a1620000e2816200018f565b50565b620000f08162000244565b6040516001600160a01b038216907fbc7cd75a20ee27fd9adebab32041f755214dbc6bffa90cc0225b39da2e5c2d3b90600090a250565b60606200014f838360405180606001604052806027815260200162000e4860279139620002f8565b9392505050565b60006200018060008051602062000e2883398151915260001b6200037760201b620002081760201c565b546001600160a01b0316919050565b6001600160a01b038116620001fa5760405162461bcd60e51b815260206004820152602660248201527f455243313936373a206e65772061646d696e20697320746865207a65726f206160448201526564647265737360d01b60648201526084015b60405180910390fd5b806200022360008051602062000e2883398151915260001b6200037760201b620002081760201c565b80546001600160a01b0319166001600160a01b039290921691909117905550565b6200025a816200037a60201b6200028c1760201c565b620002be5760405162461bcd60e51b815260206004820152602d60248201527f455243313936373a206e657720696d706c656d656e746174696f6e206973206e60448201526c1bdd08184818dbdb9d1c9858dd609a1b6064820152608401620001f1565b80620002237f360894a13ba1a3210667c828492db98dca3e2076cc3735a920a3ca505d382bbc60001b6200037760201b620002081760201c565b6060600080856001600160a01b0316856040516200031791906200057d565b600060405180830381855af49150503d806000811462000354576040519150601f19603f3d011682016040523d82523d6000602084013e62000359565b606091505b5090925090506200036d8683838762000389565b9695505050505050565b90565b6001600160a01b03163b151590565b60608315620003fa578251620003f2576001600160a01b0385163b620003f25760405162461bcd60e51b815260206004820152601d60248201527f416464726573733a2063616c6c20746f206e6f6e2d636f6e74726163740000006044820152606401620001f1565b508162000406565b6200040683836200040e565b949350505050565b8151156200041f5781518083602001fd5b8060405162461bcd60e51b8152600401620001f191906200059b565b80516001600160a01b03811681146200045357600080fd5b919050565b634e487b7160e01b600052604160045260246000fd5b60005b838110156200048b57818101518382015260200162000471565b83811115620000835750506000910152565b600080600060608486031215620004b357600080fd5b620004be846200043b565b9250620004ce602085016200043b565b60408501519092506001600160401b0380821115620004ec57600080fd5b818601915086601f8301126200050157600080fd5b81518181111562000516576200051662000458565b604051601f8201601f19908116603f0116810190838211818310171562000541576200054162000458565b816040528281528960208487010111156200055b57600080fd5b6200056e8360208301602088016200046e565b80955050505050509250925092565b60008251620005918184602087016200046e565b9190910192915050565b6020815260008251806020840152620005bc8160408501602087016200046e565b601f01601f19169190910160400192915050565b61084880620005e06000396000f3fe60806040526004361061004e5760003560e01c80633659cfe6146100655780634f1ef286146100855780635c60da1b146100985780638f283970146100c9578063f851a440146100e95761005d565b3661005d5761005b6100fe565b005b61005b6100fe565b34801561007157600080fd5b5061005b6100803660046106fb565b610118565b61005b610093366004610716565b61015f565b3480156100a457600080fd5b506100ad6101d0565b6040516001600160a01b03909116815260200160405180910390f35b3480156100d557600080fd5b5061005b6100e43660046106fb565b61020b565b3480156100f557600080fd5b506100ad610235565b61010661029b565b61011661011161033a565b610344565b565b610120610368565b6001600160a01b0316336001600160a01b03161415610157576101548160405180602001604052806000815250600061039b565b50565b6101546100fe565b610167610368565b6001600160a01b0316336001600160a01b031614156101c8576101c38383838080601f0160208091040260200160405190810160405280939291908181526020018383808284376000920191909152506001925061039b915050565b505050565b6101c36100fe565b60006101da610368565b6001600160a01b0316336001600160a01b03161415610200576101fb61033a565b905090565b6102086100fe565b90565b610213610368565b6001600160a01b0316336001600160a01b0316141561015757610154816103c6565b600061023f610368565b6001600160a01b0316336001600160a01b03161415610200576101fb610368565b606061028583836040518060600160405280602781526020016108156027913961041a565b9392505050565b6001600160a01b03163b151590565b6102a3610368565b6001600160a01b0316336001600160a01b031614156101165760405162461bcd60e51b815260206004820152604260248201527f5472616e73706172656e745570677261646561626c6550726f78793a2061646d60448201527f696e2063616e6e6f742066616c6c6261636b20746f2070726f78792074617267606482015261195d60f21b608482015260a4015b60405180910390fd5b60006101fb610492565b3660008037600080366000845af43d6000803e808015610363573d6000f35b3d6000fd5b60007fb53127684a568b3173ae13b9f8a6016e243e63b6e8ee1178d6a717850b5d61035b546001600160a01b0316919050565b6103a4836104ba565b6000825111806103b15750805b156101c3576103c08383610260565b50505050565b7f7e644d79422f17c01e4894b5f4f588d331ebfa28653d42ae832dc59e38c9798f6103ef610368565b604080516001600160a01b03928316815291841660208301520160405180910390a1610154816104fa565b6060600080856001600160a01b03168560405161043791906107c5565b600060405180830381855af49150503d8060008114610472576040519150601f19603f3d011682016040523d82523d6000602084013e610477565b606091505b5091509150610488868383876105a3565b9695505050505050565b60007f360894a13ba1a3210667c828492db98dca3e2076cc3735a920a3ca505d382bbc61038c565b6104c381610621565b6040516001600160a01b038216907fbc7cd75a20ee27fd9adebab32041f755214dbc6bffa90cc0225b39da2e5c2d3b90600090a250565b6001600160a01b03811661055f5760405162461bcd60e51b815260206004820152602660248201527f455243313936373a206e65772061646d696e20697320746865207a65726f206160448201526564647265737360d01b6064820152608401610331565b807fb53127684a568b3173ae13b9f8a6016e243e63b6e8ee1178d6a717850b5d61035b80546001600160a01b0319166001600160a01b039290921691909117905550565b6060831561060f578251610608576001600160a01b0385163b6106085760405162461bcd60e51b815260206004820152601d60248201527f416464726573733a2063616c6c20746f206e6f6e2d636f6e74726163740000006044820152606401610331565b5081610619565b61061983836106b5565b949350505050565b6001600160a01b0381163b61068e5760405162461bcd60e51b815260206004820152602d60248201527f455243313936373a206e657720696d706c656d656e746174696f6e206973206e60448201526c1bdd08184818dbdb9d1c9858dd609a1b6064820152608401610331565b807f360894a13ba1a3210667c828492db98dca3e2076cc3735a920a3ca505d382bbc610582565b8151156106c55781518083602001fd5b8060405162461bcd60e51b815260040161033191906107e1565b80356001600160a01b03811681146106f657600080fd5b919050565b60006020828403121561070d57600080fd5b610285826106df565b60008060006040848603121561072b57600080fd5b610734846106df565b9250602084013567ffffffffffffffff8082111561075157600080fd5b818601915086601f83011261076557600080fd5b81358181111561077457600080fd5b87602082850101111561078657600080fd5b6020830194508093505050509250925092565b60005b838110156107b457818101518382015260200161079c565b838111156103c05750506000910152565b600082516107d7818460208701610799565b9190910192915050565b6020815260008251806020840152610800816040850160208701610799565b601f01601f1916919091016040019291505056fe416464726573733a206c6f772d6c6576656c2064656c65676174652063616c6c206661696c6564a164736f6c634300080a000ab53127684a568b3173ae13b9f8a6016e243e63b6e8ee1178d6a717850b5d6103416464726573733a206c6f772d6c6576656c2064656c65676174652063616c6c206661696c6564608060405234801561001057600080fd5b50600080546001600160a01b03199081168255600180549091169055604051819081908190819033907f8292fce18fa69edf4db7b94ea2e58241df0ae57f97e0a6c9b29067028bf92d76908390a36040516001600160a01b0382169033907fa3396fd7f6e0a21b50e5089d2da70d5ac0a3bbbd1f617a93f134b7638998019890600090a3505050506100a66100ab60201b60201c565b61016b565b600554610100900460ff16156101175760405162461bcd60e51b815260206004820152602760248201527f496e697469616c697a61626c653a20636f6e747261637420697320696e697469604482015266616c697a696e6760c81b606482015260840160405180910390fd5b60055460ff9081161015610169576005805460ff191660ff9081179091556040519081527f7f26b83ff96e1f2b6a682f133852f6798a09c465da95921460cefb38474024989060200160405180910390a15b565b611b9c8061017a6000396000f3fe608060405234801561001057600080fd5b50600436106101cf5760003560e01c80637875b94511610104578063b4bad06a116100a2578063c6b0263e11610071578063c6b0263e14610441578063d8e708cd14610454578063e347416d14610467578063ea7ca2761461046f57600080fd5b8063b4bad06a146103bb578063b700961314610408578063bf7e214f1461041b578063c4d66de81461042e57600080fd5b80637d40583d116100de5780637d40583d146103625780638da5cb5b14610375578063a29508fc146103a0578063a4c60c50146103a857600080fd5b80637875b945146103115780637917b794146103245780637a9e5e4b1461034f57600080fd5b80632f47571f116101715780633c0689751161014b5780633c068975146102d057806342f1e879146102e357806367aff484146102eb57806370f7d6ae146102fe57600080fd5b80632f47571f1461027757806332c9c4d8146102b55780633300183c146102c857600080fd5b806313af4035116101ad57806313af40351461023657806313e27f8b1461024957806316d8887a1461025c57806319883fc11461026457600080fd5b806306a36aee146101d45780630c226445146102075780630e7b949e1461021c575b600080fd5b6101f46101e23660046117e0565b60026020526000908152604090205481565b6040519081526020015b60405180910390f35b61021a6102153660046117e0565b6104a6565b005b610224600281565b60405160ff90911681526020016101fe565b61021a6102443660046117e0565b6104ef565b61021a6102573660046117e0565b61056c565b610224600381565b61021a6102723660046117e0565b6105a9565b6102a5610285366004611821565b600360209081526000928352604080842090915290825290205460ff1681565b60405190151581526020016101fe565b61021a6102c33660046117e0565b6105e6565b610224600481565b61021a6102de3660046117e0565b61072d565b610224600081565b61021a6102f9366004611875565b61076a565b61021a61030c3660046117e0565b61083f565b61021a61031f3660046117e0565b610a20565b6101f4610332366004611821565b600460209081526000928352604080842090915290825290205481565b61021a61035d3660046117e0565b610b32565b61021a6103703660046118be565b610c1c565b600054610388906001600160a01b031681565b6040516001600160a01b0390911681526020016101fe565b610224600181565b61021a6103b63660046117e0565b610d27565b6102a56103c9366004611916565b6001600160a01b039190911660009081526004602090815260408083206001600160e01b031990941683529290522054600160ff929092161c16151590565b6102a561041636600461195b565b610e5f565b600154610388906001600160a01b031681565b61021a61043c3660046117e0565b610ede565b61021a61044f36600461197b565b611011565b61021a6104623660046117e0565b6110b2565b61021a6110ef565b6102a561047d3660046119a9565b6001600160a01b0391909116600090815260026020526040902054600160ff9092161c16151590565b6104bc336000356001600160e01b0319166111b6565b6104e15760405162461bcd60e51b81526004016104d8906119d5565b60405180910390fd5b6104ec81600161125f565b50565b610505336000356001600160e01b0319166111b6565b6105215760405162461bcd60e51b81526004016104d8906119d5565b600080546001600160a01b0319166001600160a01b0383169081178255604051909133917f8292fce18fa69edf4db7b94ea2e58241df0ae57f97e0a6c9b29067028bf92d769190a350565b610582336000356001600160e01b0319166111b6565b61059e5760405162461bcd60e51b81526004016104d8906119d5565b6104ec816001611381565b6105bf336000356001600160e01b0319166111b6565b6105db5760405162461bcd60e51b81526004016104d8906119d5565b6104ec8160016114b5565b6105fc336000356001600160e01b0319166111b6565b6106185760405162461bcd60e51b81526004016104d8906119d5565b6000816001600160a01b031663b0772d0b6040518163ffffffff1660e01b8152600401600060405180830381865afa158015610658573d6000803e3d6000fd5b505050506040513d6000823e601f3d908101601f191682016040526106809190810190611a1c565b905060005b8151811015610728576106ba8282815181106106a3576106a3611ae1565b602002602001015163f5e3c46260e01b6000611011565b6106e860038383815181106106d1576106d1611ae1565b602002602001015163f5e3c46260e01b6001610c1c565b61071660038383815181106106ff576106ff611ae1565b602002602001015163db006a7560e01b6001610c1c565b8061072081611b0d565b915050610685565b505050565b610743336000356001600160e01b0319166111b6565b61075f5760405162461bcd60e51b81526004016104d8906119d5565b6104ec816000611381565b610780336000356001600160e01b0319166111b6565b61079c5760405162461bcd60e51b81526004016104d8906119d5565b80156107cb576001600160a01b03831660009081526002602052604090208054600160ff85161b1790556107f1565b6001600160a01b03831660009081526002602052604090208054600160ff85161b191690555b8160ff16836001600160a01b03167f4c9bdd0c8e073eb5eda2250b18d8e5121ff27b62064fbeeeed4869bb99bc5bf283604051610832911515815260200190565b60405180910390a3505050565b610855336000356001600160e01b0319166111b6565b6108715760405162461bcd60e51b81526004016104d8906119d5565b610886600482631853304760e31b6001610c1c565b61089b600482630ede4edd60e41b6001610c1c565b6000816001600160a01b031663b0772d0b6040518163ffffffff1660e01b8152600401600060405180830381865afa1580156108db573d6000803e3d6000fd5b505050506040513d6000823e601f3d908101601f191682016040526109039190810190611a1c565b905060005b81518110156107285761093f600483838151811061092857610928611ae1565b602002602001015163a0712d6860e01b6001610c1c565b61095660048383815181106106ff576106ff611ae1565b610984600483838151811061096d5761096d611ae1565b602002602001015163852a12e360e01b6001610c1c565b6109b2600483838151811061099b5761099b611ae1565b602002602001015163c5ebeaec60e01b6001610c1c565b6109e060048383815181106109c9576109c9611ae1565b6020026020010151630e75270260e01b6001610c1c565b610a0e60048383815181106109f7576109f7611ae1565b6020026020010151633c3b4b8960e01b6001610c1c565b80610a1881611b0d565b915050610908565b610a36336000356001600160e01b0319166111b6565b610a525760405162461bcd60e51b81526004016104d8906119d5565b6000816001600160a01b031663b0772d0b6040518163ffffffff1660e01b8152600401600060405180830381865afa158015610a92573d6000803e3d6000fd5b505050506040513d6000823e601f3d908101601f19168201604052610aba9190810190611a1c565b905060005b815181101561072857610af4828281518110610add57610add611ae1565b602002602001015163f5e3c46260e01b6001611011565b610b20828281518110610b0957610b09611ae1565b602002602001015163db006a7560e01b6001611011565b80610b2a81611b0d565b915050610abf565b6000546001600160a01b0316331480610bc7575060015460405163b700961360e01b81526001600160a01b039091169063b700961390610b8690339030906001600160e01b03196000351690600401611b28565b602060405180830381865afa158015610ba3573d6000803e3d6000fd5b505050506040513d601f19601f82011682018060405250810190610bc79190611b55565b610bd057600080fd5b600180546001600160a01b0319166001600160a01b03831690811790915560405133907fa3396fd7f6e0a21b50e5089d2da70d5ac0a3bbbd1f617a93f134b7638998019890600090a350565b610c32336000356001600160e01b0319166111b6565b610c4e5760405162461bcd60e51b81526004016104d8906119d5565b8015610c92576001600160a01b03831660009081526004602090815260408083206001600160e01b03198616845290915290208054600160ff87161b179055610ccd565b6001600160a01b03831660009081526004602090815260408083206001600160e01b03198616845290915290208054600160ff87161b191690555b816001600160e01b031916836001600160a01b03168560ff167fa52ea92e6e955aa8ac66420b86350f7139959adfcc7e6a14eee1bd116d09860e84604051610d19911515815260200190565b60405180910390a450505050565b610d3d336000356001600160e01b0319166111b6565b610d595760405162461bcd60e51b81526004016104d8906119d5565b610d6481600261125f565b6000816001600160a01b031663b0772d0b6040518163ffffffff1660e01b8152600401600060405180830381865afa158015610da4573d6000803e3d6000fd5b505050506040513d6000823e601f3d908101601f19168201604052610dcc9190810190611a1c565b905060005b815181101561072857610df1600283838151811061099b5761099b611ae1565b610e0860028383815181106109c9576109c9611ae1565b610e366002838381518110610e1f57610e1f611ae1565b6020026020010151632608f81860e01b6001610c1c565b610e4d60028383815181106109f7576109f7611ae1565b80610e5781611b0d565b915050610dd1565b6001600160a01b03821660009081526003602090815260408083206001600160e01b03198516845290915281205460ff1680610ed657506001600160a01b0380841660009081526004602090815260408083206001600160e01b031987168452825280832054938816835260029091529020541615155b949350505050565b600554610100900460ff1615808015610efe5750600554600160ff909116105b80610f185750303b158015610f18575060055460ff166001145b610f7b5760405162461bcd60e51b815260206004820152602e60248201527f496e697469616c697a61626c653a20636f6e747261637420697320616c72656160448201526d191e481a5b9a5d1a585b1a5e995960921b60648201526084016104d8565b6005805460ff191660011790558015610f9e576005805461ff0019166101001790555b600080546001600160a01b0384166001600160a01b0319918216179091556001805490911630179055801561100d576005805461ff0019169055604051600181527f7f26b83ff96e1f2b6a682f133852f6798a09c465da95921460cefb38474024989060200160405180910390a15b5050565b611027336000356001600160e01b0319166111b6565b6110435760405162461bcd60e51b81526004016104d8906119d5565b6001600160a01b03831660008181526003602090815260408083206001600160e01b0319871680855290835292819020805460ff191686151590811790915590519081529192917f950a343f5d10445e82a71036d3f4fb3016180a25805141932543b83e2078a93e9101610832565b6110c8336000356001600160e01b0319166111b6565b6110e45760405162461bcd60e51b81526004016104d8906119d5565b6104ec8160006114b5565b611105336000356001600160e01b0319166111b6565b6111215760405162461bcd60e51b81526004016104d8906119d5565b61113660003063e347416d60e01b6001610c1c565b61114b600030630c22644560e01b6001610c1c565b611160600030630a4c60c560e41b6001610c1c565b611175600030630659389b60e31b6001610c1c565b61118a600030637875b94560e01b6001610c1c565b61119f60003063387beb5760e11b6001610c1c565b6111b46000306319ebfd2160e21b6001610c1c565b565b6001546000906001600160a01b03168015801590611240575060405163b700961360e01b81526001600160a01b0382169063b7009613906111ff90879030908890600401611b28565b602060405180830381865afa15801561121c573d6000803e3d6000fd5b505050506040513d601f19601f820116820180604052508101906112409190611b55565b80610ed657506000546001600160a01b03858116911614949350505050565b6112738183631853304760e31b6001610c1c565b6112878183630ede4edd60e41b6001610c1c565b6000826001600160a01b031663b0772d0b6040518163ffffffff1660e01b8152600401600060405180830381865afa1580156112c7573d6000803e3d6000fd5b505050506040513d6000823e601f3d908101601f191682016040526112ef9190810190611a1c565b905060005b815181101561137b5760006113076115cb565b905060005b8151811015611366576113548585858151811061132b5761132b611ae1565b602002602001015184848151811061134557611345611ae1565b60200260200101516001610c1c565b8061135e81611b0d565b91505061130c565b5050808061137390611b0d565b9150506112f4565b50505050565b6000826001600160a01b031663b0772d0b6040518163ffffffff1660e01b8152600401600060405180830381865afa1580156113c1573d6000803e3d6000fd5b505050506040513d6000823e601f3d908101601f191682016040526113e99190810190611a1c565b905060005b815181101561137b5761142282828151811061140c5761140c611ae1565b602002602001015163c5ebeaec60e01b85611011565b61144d82828151811061143757611437611ae1565b6020026020010151630e75270260e01b85611011565b61147882828151811061146257611462611ae1565b6020026020010151632608f81860e01b85611011565b6114a382828151811061148d5761148d611ae1565b6020026020010151633c3b4b8960e01b85611011565b806114ad81611b0d565b9150506113ee565b6114c782631853304760e31b83611011565b6114d982630ede4edd60e41b83611011565b6000826001600160a01b031663b0772d0b6040518163ffffffff1660e01b8152600401600060405180830381865afa158015611519573d6000803e3d6000fd5b505050506040513d6000823e601f3d908101601f191682016040526115419190810190611a1c565b905060005b815181101561137b5760006115596115cb565b905060005b81518110156115b6576115a484848151811061157c5761157c611ae1565b602002602001015183838151811061159657611596611ae1565b602002602001015187611011565b806115ae81611b0d565b91505061155e565b505080806115c390611b0d565b915050611546565b60408051600680825260e0820190925260609190816020820160c08036833701905050915063140e25ad60e31b8261160283611b72565b92508260ff168151811061161857611618611ae1565b6001600160e01b03199092166020928302919091019091015263db006a7560e01b8261164383611b72565b92508260ff168151811061165957611659611ae1565b6001600160e01b03199092166020928302919091019091015263852a12e360e01b8261168483611b72565b92508260ff168151811061169a5761169a611ae1565b6001600160e01b03199092166020928302919091019091015263a9059cbb60e01b826116c583611b72565b92508260ff16815181106116db576116db611ae1565b6001600160e01b0319909216602092830291909101909101526323b872dd60e01b8261170683611b72565b92508260ff168151811061171c5761171c611ae1565b6001600160e01b03199092166020928302919091019091015263095ea7b360e01b8261174783611b72565b92508260ff168151811061175d5761175d611ae1565b6001600160e01b03199092166020928302919091019091015260ff8116156117c75760405162461bcd60e51b815260206004820152601c60248201527f7573652074686520636f7272656374206172726179206c656e6774680000000060448201526064016104d8565b5090565b6001600160a01b03811681146104ec57600080fd5b6000602082840312156117f257600080fd5b81356117fd816117cb565b9392505050565b80356001600160e01b03198116811461181c57600080fd5b919050565b6000806040838503121561183457600080fd5b823561183f816117cb565b915061184d60208401611804565b90509250929050565b803560ff8116811461181c57600080fd5b80151581146104ec57600080fd5b60008060006060848603121561188a57600080fd5b8335611895816117cb565b92506118a360208501611856565b915060408401356118b381611867565b809150509250925092565b600080600080608085870312156118d457600080fd5b6118dd85611856565b935060208501356118ed816117cb565b92506118fb60408601611804565b9150606085013561190b81611867565b939692955090935050565b60008060006060848603121561192b57600080fd5b61193484611856565b92506020840135611944816117cb565b915061195260408501611804565b90509250925092565b60008060006060848603121561197057600080fd5b8335611934816117cb565b60008060006060848603121561199057600080fd5b833561199b816117cb565b92506118a360208501611804565b600080604083850312156119bc57600080fd5b82356119c7816117cb565b915061184d60208401611856565b6020808252600c908201526b15539055551213d49256915160a21b604082015260600190565b634e487b7160e01b600052604160045260246000fd5b805161181c816117cb565b60006020808385031215611a2f57600080fd5b825167ffffffffffffffff80821115611a4757600080fd5b818501915085601f830112611a5b57600080fd5b815181811115611a6d57611a6d6119fb565b8060051b604051601f19603f83011681018181108582111715611a9257611a926119fb565b604052918252848201925083810185019188831115611ab057600080fd5b938501935b82851015611ad557611ac685611a11565b84529385019392850192611ab5565b98975050505050505050565b634e487b7160e01b600052603260045260246000fd5b634e487b7160e01b600052601160045260246000fd5b6000600019821415611b2157611b21611af7565b5060010190565b6001600160a01b0393841681529190921660208201526001600160e01b0319909116604082015260600190565b600060208284031215611b6757600080fd5b81516117fd81611867565b600060ff821680611b8557611b85611af7565b600019019291505056fea164736f6c634300080a000aa164736f6c634300080a000a",
    "linkReferences": {}
  },
  "methodIdentifiers": {
    "_acceptOwner()": "fc4d33f9",
    "_setPendingOwner(address)": "6e96dfd7",
    "canCall(address,address,address,bytes4)": "df595cb8",
    "createPoolAuthority(address)": "a1a82b56",
    "initialize(address)": "c4d66de8",
    "leveredPositionsFactory()": "95f14b16",
    "owner()": "8da5cb5b",
    "pendingOwner()": "e30c3978",
    "poolAuthLogic()": "54927fb8",
    "poolsAuthorities(address)": "ec2ffdd1",
    "reconfigureAuthority(address)": "5a89ef51",
    "reinitialize(address)": "f7e7d1fd",
    "renounceOwnership()": "715018a6",
    "setUserRole(address,address,uint8,bool)": "ca224d98",
    "transferOwnership(address)": "f2fde38b"
  }
}