{
  "address": "0xf30EaEEA6DDEA29Dc3102EEEa8d5eb33d3F3d562",
  "abi": [
    {
      "inputs": [
        {
          "internalType": "contract AddressesProvider",
          "name": "_ap",
          "type": "address"
        }
      ],
      "stateMutability": "nonpayable",
      "type": "constructor"
    },
    {
      "inputs": [
        {
          "internalType": "bytes4",
          "name": "_functionSelector",
          "type": "bytes4"
        },
        {
          "internalType": "address",
          "name": "_currentImpl",
          "type": "address"
        }
      ],
      "name": "FunctionAlreadyAdded",
      "type": "error"
    },
    {
      "inputs": [
        {
          "internalType": "bytes4",
          "name": "_functionSelector",
          "type": "bytes4"
        }
      ],
      "name": "FunctionNotFound",
      "type": "error"
    },
    {
      "anonymous": false,
      "inputs": [
        {
          "indexed": true,
          "internalType": "address",
          "name": "previousOwner",
          "type": "address"
        },
        {
          "indexed": true,
          "internalType": "address",
          "name": "newOwner",
          "type": "address"
        }
      ],
      "name": "OwnershipTransferStarted",
      "type": "event"
    },
    {
      "anonymous": false,
      "inputs": [
        {
          "indexed": true,
          "internalType": "address",
          "name": "previousOwner",
          "type": "address"
        },
        {
          "indexed": true,
          "internalType": "address",
          "name": "newOwner",
          "type": "address"
        }
      ],
      "name": "OwnershipTransferred",
      "type": "event"
    },
    {
      "stateMutability": "nonpayable",
      "type": "fallback"
    },
    {
      "inputs": [],
      "name": "_listExtensions",
      "outputs": [
        {
          "internalType": "address[]",
          "name": "",
          "type": "address[]"
        }
      ],
      "stateMutability": "view",
      "type": "function"
    },
    {
      "inputs": [
        {
          "internalType": "contract DiamondExtension",
          "name": "extensionToAdd",
          "type": "address"
        },
        {
          "internalType": "contract DiamondExtension",
          "name": "extensionToReplace",
          "type": "address"
        }
      ],
      "name": "_registerExtension",
      "outputs": [],
      "stateMutability": "nonpayable",
      "type": "function"
    },
    {
      "inputs": [],
      "name": "acceptOwnership",
      "outputs": [],
      "stateMutability": "nonpayable",
      "type": "function"
    },
    {
      "inputs": [],
      "name": "ap",
      "outputs": [
        {
          "internalType": "contract AddressesProvider",
          "name": "",
          "type": "address"
        }
      ],
      "stateMutability": "view",
      "type": "function"
    },
    {
      "inputs": [],
      "name": "asExtension",
      "outputs": [
        {
          "internalType": "contract LiquidatorsRegistryExtension",
          "name": "",
          "type": "address"
        }
      ],
      "stateMutability": "view",
      "type": "function"
    },
    {
      "inputs": [
        {
          "internalType": "contract IERC20Upgradeable",
          "name": "",
          "type": "address"
        }
      ],
      "name": "defaultOutputToken",
      "outputs": [
        {
          "internalType": "contract IERC20Upgradeable",
          "name": "",
          "type": "address"
        }
      ],
      "stateMutability": "view",
      "type": "function"
    },
    {
      "inputs": [],
      "name": "owner",
      "outputs": [
        {
          "internalType": "address",
          "name": "",
          "type": "address"
        }
      ],
      "stateMutability": "view",
      "type": "function"
    },
    {
      "inputs": [],
      "name": "pendingOwner",
      "outputs": [
        {
          "internalType": "address",
          "name": "",
          "type": "address"
        }
      ],
      "stateMutability": "view",
      "type": "function"
    },
    {
      "inputs": [
        {
          "internalType": "string",
          "name": "",
          "type": "string"
        }
      ],
      "name": "redemptionStrategiesByName",
      "outputs": [
        {
          "internalType": "contract IRedemptionStrategy",
          "name": "",
          "type": "address"
        }
      ],
      "stateMutability": "view",
      "type": "function"
    },
    {
      "inputs": [
        {
          "internalType": "contract IERC20Upgradeable",
          "name": "",
          "type": "address"
        },
        {
          "internalType": "contract IERC20Upgradeable",
          "name": "",
          "type": "address"
        }
      ],
      "name": "redemptionStrategiesByTokens",
      "outputs": [
        {
          "internalType": "contract IRedemptionStrategy",
          "name": "",
          "type": "address"
        }
      ],
      "stateMutability": "view",
      "type": "function"
    },
    {
      "inputs": [],
      "name": "renounceOwnership",
      "outputs": [],
      "stateMutability": "nonpayable",
      "type": "function"
    },
    {
      "inputs": [
        {
          "internalType": "address",
          "name": "newOwner",
          "type": "address"
        }
      ],
      "name": "transferOwnership",
      "outputs": [],
      "stateMutability": "nonpayable",
      "type": "function"
    }
  ],
  "transactionHash": "0x8c801de1c893ab04ed735e70bc092341b57757f2a5c7f075fe5278a412b666e6",
  "args": [
    "0x27aA55A3D55959261e119d75256aadAB79aE897C"
  ],
  "numDeployments": 1,
  "bytecode": {
    "object": "0x608060405234801561001057600080fd5b5060405161104738038061104783398101604081905261002f916100d4565b6100383361005d565b600280546001600160a01b0319166001600160a01b0392909216919091179055610104565b600180546001600160a01b031916905561008181610084602090811b6103e117901c565b50565b600080546001600160a01b038381166001600160a01b0319831681178455604051919092169283917f8be0079c531659141344cd1fd0a4f28419497f9722a3daafe3b4186f6b6457e09190a35050565b6000602082840312156100e657600080fd5b81516001600160a01b03811681146100fd57600080fd5b9392505050565b610f34806101136000396000f3fe608060405234801561001057600080fd5b50600436106100b45760003560e01c80638db87c27116100715780638db87c27146101a6578063a700f9e4146101cf578063dc54bc8114610203578063dee7fe4814610209578063e30c39781461023d578063f2fde38b1461024e576100b4565b80633c4f743c1461012b5780636333d0011461015b578063715018a61461017057806379ba50971461017a57806389cd9855146101825780638da5cb5b14610195575b60006100cb6000356001600160e01b031916610261565b90506001600160a01b03811661010757604051630a82dd7360e31b81526001600160e01b03196000351660048201526024015b60405180910390fd5b3660008037600080366000845af43d6000803e808015610126573d6000f35b3d6000fd5b60025461013e906001600160a01b031681565b6040516001600160a01b0390911681526020015b60405180910390f35b610163610281565b6040516101529190610be0565b610178610290565b005b6101786102e0565b610178610190366004610c42565b61035a565b6000546001600160a01b031661013e565b61013e6101b4366004610c7b565b6007602052600090815260409020546001600160a01b031681565b61013e6101dd366004610c42565b60066020908152600092835260408084209091529082529020546001600160a01b031681565b3061013e565b61013e610217366004610ce6565b80516020818301810180516005825292820191909301209152546001600160a01b031681565b6001546001600160a01b031661013e565b61017861025c366004610c7b565b610370565b600061027b82600080516020610f08833981519152610431565b92915050565b606061028b6104d7565b905090565b610298610549565b60405162461bcd60e51b815260206004820152601e60248201527f72656e6f756e6365206f776e657273686970206e6f7420616c6c6f776564000060448201526064016100fe565b60015433906001600160a01b0316811461034e5760405162461bcd60e51b815260206004820152602960248201527f4f776e61626c6532537465703a2063616c6c6572206973206e6f7420746865206044820152683732bb9037bbb732b960b91b60648201526084016100fe565b610357816105a5565b50565b610362610549565b61036c82826105be565b5050565b610378610549565b600180546001600160a01b0383166001600160a01b031990911681179091556103a96000546001600160a01b031690565b6001600160a01b03167f38d16b8cac22d99fc7c124b9cd0de2d3fa1faef420bfe791d8c362d765e2270060405160405180910390a350565b600080546001600160a01b038381166001600160a01b0319831681178455604051919092169283917f8be0079c531659141344cd1fd0a4f28419497f9722a3daafe3b4186f6b6457e09190a35050565b8054600090815b818110156104cc57846001600160e01b03191684600001828154811061046057610460610d7b565b600091825260209091200154600160a01b900460e01b6001600160e01b03191614156104ba5783600001818154811061049b5761049b610d7b565b6000918252602090912001546001600160a01b0316925061027b915050565b806104c481610da7565b915050610438565b506000949350505050565b6060600080516020610f0883398151915260010180548060200260200160405190810160405280929190818152602001828054801561053f57602002820191906000526020600020905b81546001600160a01b03168152600190910190602001808311610521575b5050505050905090565b6000546001600160a01b031633146105a35760405162461bcd60e51b815260206004820181905260248201527f4f776e61626c653a2063616c6c6572206973206e6f7420746865206f776e657260448201526064016100fe565b565b600180546001600160a01b0319169055610357816103e1565b6001600160a01b038116156105d6576105d6816105df565b61036c82610714565b600080516020610f088339815191526105f78261080c565b60005b600182015460ff8216101561070f57826001600160a01b0316826001018260ff168154811061062b5761062b610d7b565b6000918252602090912001546001600160a01b031614156106fd5760018083018054909161065891610dc2565b8154811061066857610668610d7b565b6000918252602090912001546001830180546001600160a01b039092169160ff841690811061069957610699610d7b565b9060005260206000200160006101000a8154816001600160a01b0302191690836001600160a01b03160217905550816001018054806106da576106da610dd9565b600082815260209020810160001990810180546001600160a01b03191690550190555b8061070781610def565b9150506105fa565b505050565b600080516020610f0883398151915260005b600182015460ff821610156107cc57826001600160a01b0316826001018260ff168154811061075757610757610d7b565b6000918252602090912001546001600160a01b031614156107ba5760405162461bcd60e51b815260206004820152601760248201527f657874656e73696f6e20616c726561647920616464656400000000000000000060448201526064016100fe565b806107c481610def565b915050610726565b506107d6826109d1565b6001908101805491820181556000908152602090200180546001600160a01b0319166001600160a01b0392909216919091179055565b6000816001600160a01b03166389f8132e6040518163ffffffff1660e01b8152600401600060405180830381865afa15801561084c573d6000803e3d6000fd5b505050506040513d6000823e601f3d908101601f191682016040526108749190810190610e0f565b9050600080516020610f0883398151915260005b82518161ffff1610156109cb576000838261ffff16815181106108ad576108ad610d7b565b602002602001015190506108c18184610431565b6001600160a01b0316856001600160a01b0316146108e1576108e1610ecf565b60006108ed8285610b58565b8454909150849061090090600190610dc2565b8154811061091057610910610d7b565b90600052602060002001846000018261ffff168154811061093357610933610d7b565b600091825260209091208254910180546001600160a01b039092166001600160a01b031983168117825592546001600160c01b0319909216909217600160a01b9182900463ffffffff16909102179055835484908061099457610994610dd9565b600082815260209020810160001990810180546001600160c01b0319169055019055508190506109c381610ee5565b915050610888565b50505050565b6000816001600160a01b03166389f8132e6040518163ffffffff1660e01b8152600401600060405180830381865afa158015610a11573d6000803e3d6000fd5b505050506040513d6000823e601f3d908101601f19168201604052610a399190810190610e0f565b600080516020610f0883398151915280549192509060005b8351811015610b51576000848281518110610a6e57610a6e610d7b565b602002602001015190506000610a848286610431565b90506001600160a01b03811615610ac957604051632c18df3360e01b81526001600160e01b0319831660048201526001600160a01b03821660248201526044016100fe565b604080518082019091526001600160a01b0380891682526001600160e01b0319841660208084019182528854600181018a5560008a815291909120935193018054915160e01c600160a01b026001600160c01b0319909216939092169290921791909117905583610b3981610ee5565b94505050508080610b4990610da7565b915050610a51565b5050505050565b8054600090815b8161ffff168161ffff161015610bd457846001600160e01b031916846000018261ffff1681548110610b9357610b93610d7b565b600091825260209091200154600160a01b900460e01b6001600160e01b0319161415610bc257915061027b9050565b80610bcc81610ee5565b915050610b5f565b5061ffff949350505050565b6020808252825182820181905260009190848201906040850190845b81811015610c215783516001600160a01b031683529284019291840191600101610bfc565b50909695505050505050565b6001600160a01b038116811461035757600080fd5b60008060408385031215610c5557600080fd5b8235610c6081610c2d565b91506020830135610c7081610c2d565b809150509250929050565b600060208284031215610c8d57600080fd5b8135610c9881610c2d565b9392505050565b634e487b7160e01b600052604160045260246000fd5b604051601f8201601f1916810167ffffffffffffffff81118282101715610cde57610cde610c9f565b604052919050565b60006020808385031215610cf957600080fd5b823567ffffffffffffffff80821115610d1157600080fd5b818501915085601f830112610d2557600080fd5b813581811115610d3757610d37610c9f565b610d49601f8201601f19168501610cb5565b91508082528684828501011115610d5f57600080fd5b8084840185840137600090820190930192909252509392505050565b634e487b7160e01b600052603260045260246000fd5b634e487b7160e01b600052601160045260246000fd5b6000600019821415610dbb57610dbb610d91565b5060010190565b600082821015610dd457610dd4610d91565b500390565b634e487b7160e01b600052603160045260246000fd5b600060ff821660ff811415610e0657610e06610d91565b60010192915050565b60006020808385031215610e2257600080fd5b825167ffffffffffffffff80821115610e3a57600080fd5b818501915085601f830112610e4e57600080fd5b815181811115610e6057610e60610c9f565b8060051b9150610e71848301610cb5565b8181529183018401918481019088841115610e8b57600080fd5b938501935b83851015610ec357845192506001600160e01b031983168314610eb35760008081fd5b8282529385019390850190610e90565b98975050505050505050565b634e487b7160e01b600052600160045260246000fd5b600061ffff80831681811415610efd57610efd610d91565b600101939250505056fe234c809385eaba7c8e68b2a08341f3988117f4f9fae0fac38df439aa440b2615a164736f6c634300080a000a",
    "linkReferences": {}
  },
  "methodIdentifiers": {
    "_listExtensions()": "6333d001",
    "_registerExtension(address,address)": "89cd9855",
    "acceptOwnership()": "79ba5097",
    "ap()": "3c4f743c",
    "asExtension()": "dc54bc81",
    "defaultOutputToken(address)": "8db87c27",
    "owner()": "8da5cb5b",
    "pendingOwner()": "e30c3978",
    "redemptionStrategiesByName(string)": "dee7fe48",
    "redemptionStrategiesByTokens(address,address)": "a700f9e4",
    "renounceOwnership()": "715018a6",
    "transferOwnership(address)": "f2fde38b"
  }
}