{
  "address": "0x462A7a0266e6e9d38010225D5Fec3B6489d577C3",
  "abi": [
    {
      "anonymous": false,
      "inputs": [
        {
          "indexed": false,
          "internalType": "uint8",
          "name": "version",
          "type": "uint8"
        }
      ],
      "name": "Initialized",
      "type": "event"
    },
    {
      "anonymous": false,
      "inputs": [
        {
          "indexed": false,
          "internalType": "address",
          "name": "oldOwner",
          "type": "address"
        },
        {
          "indexed": false,
          "internalType": "address",
          "name": "newOwner",
          "type": "address"
        }
      ],
      "name": "NewOwner",
      "type": "event"
    },
    {
      "anonymous": false,
      "inputs": [
        {
          "indexed": false,
          "internalType": "address",
          "name": "oldPendingOwner",
          "type": "address"
        },
        {
          "indexed": false,
          "internalType": "address",
          "name": "newPendingOwner",
          "type": "address"
        }
      ],
      "name": "NewPendingOwner",
      "type": "event"
    },
    {
      "anonymous": false,
      "inputs": [
        {
          "indexed": true,
          "internalType": "address",
          "name": "previousOwner",
          "type": "address"
        },
        {
          "indexed": true,
          "internalType": "address",
          "name": "newOwner",
          "type": "address"
        }
      ],
      "name": "OwnershipTransferred",
      "type": "event"
    },
    {
      "inputs": [],
      "name": "NATIVE_TOKEN_USD_FEED",
      "outputs": [
        {
          "internalType": "bytes32",
          "name": "",
          "type": "bytes32"
        }
      ],
      "stateMutability": "view",
      "type": "function"
    },
    {
      "inputs": [],
      "name": "PYTH",
      "outputs": [
        {
          "internalType": "contract IPyth",
          "name": "",
          "type": "address"
        }
      ],
      "stateMutability": "view",
      "type": "function"
    },
    {
      "inputs": [],
      "name": "USD_TOKEN",
      "outputs": [
        {
          "internalType": "address",
          "name": "",
          "type": "address"
        }
      ],
      "stateMutability": "view",
      "type": "function"
    },
    {
      "inputs": [],
      "name": "_acceptOwner",
      "outputs": [],
      "stateMutability": "nonpayable",
      "type": "function"
    },
    {
      "inputs": [
        {
          "internalType": "address",
          "name": "newPendingOwner",
          "type": "address"
        }
      ],
      "name": "_setPendingOwner",
      "outputs": [],
      "stateMutability": "nonpayable",
      "type": "function"
    },
    {
      "inputs": [
        {
          "internalType": "contract ICErc20",
          "name": "cToken",
          "type": "address"
        }
      ],
      "name": "getUnderlyingPrice",
      "outputs": [
        {
          "internalType": "uint256",
          "name": "",
          "type": "uint256"
        }
      ],
      "stateMutability": "view",
      "type": "function"
    },
    {
      "inputs": [
        {
          "internalType": "address",
          "name": "pythAddress",
          "type": "address"
        },
        {
          "internalType": "bytes32",
          "name": "nativeTokenUsdFeed",
          "type": "bytes32"
        },
        {
          "internalType": "address",
          "name": "usdToken",
          "type": "address"
        }
      ],
      "name": "initialize",
      "outputs": [],
      "stateMutability": "nonpayable",
      "type": "function"
    },
    {
      "inputs": [],
      "name": "owner",
      "outputs": [
        {
          "internalType": "address",
          "name": "",
          "type": "address"
        }
      ],
      "stateMutability": "view",
      "type": "function"
    },
    {
      "inputs": [],
      "name": "pendingOwner",
      "outputs": [
        {
          "internalType": "address",
          "name": "",
          "type": "address"
        }
      ],
      "stateMutability": "view",
      "type": "function"
    },
    {
      "inputs": [
        {
          "internalType": "address",
          "name": "underlying",
          "type": "address"
        }
      ],
      "name": "price",
      "outputs": [
        {
          "internalType": "uint256",
          "name": "",
          "type": "uint256"
        }
      ],
      "stateMutability": "view",
      "type": "function"
    },
    {
      "inputs": [
        {
          "internalType": "address",
          "name": "",
          "type": "address"
        }
      ],
      "name": "priceFeedIds",
      "outputs": [
        {
          "internalType": "bytes32",
          "name": "",
          "type": "bytes32"
        }
      ],
      "stateMutability": "view",
      "type": "function"
    },
    {
      "inputs": [],
      "name": "renounceOwnership",
      "outputs": [],
      "stateMutability": "nonpayable",
      "type": "function"
    },
    {
      "inputs": [
        {
          "internalType": "address[]",
          "name": "underlyings",
          "type": "address[]"
        },
        {
          "internalType": "bytes32[]",
          "name": "feedIds",
          "type": "bytes32[]"
        }
      ],
      "name": "setPriceFeeds",
      "outputs": [],
      "stateMutability": "nonpayable",
      "type": "function"
    },
    {
      "inputs": [
        {
          "internalType": "address",
          "name": "newOwner",
          "type": "address"
        }
      ],
      "name": "transferOwnership",
      "outputs": [],
      "stateMutability": "nonpayable",
      "type": "function"
    }
  ],
  "transactionHash": "0xd050900ecbfb8234d4b85dcb3c43b410fad1a62833db9d41383a8810599b23d2",
  "args": [],
  "numDeployments": 1,
  "bytecode": {
    "object": "0x608060405234801561001057600080fd5b50611124806100206000396000f3fe608060405234801561001057600080fd5b50600436106100ea5760003560e01c80639d23c8121161008c578063e30c397811610066578063e30c3978146101d0578063f2fde38b146101e3578063fc4d33f9146101f6578063fc57d4df146101fe57600080fd5b80639d23c81214610197578063aea91078146101aa578063d26b3e6e146101bd57600080fd5b80636e96dfd7116100c85780636e96dfd714610162578063715018a61461017557806380f96bd11461017d5780638da5cb5b1461018657600080fd5b806301e169e4146100ef578063336eb6ae1461010457806367e406d514610137575b600080fd5b6101026100fd366004610d25565b610211565b005b610124610112366004610de7565b60666020526000908152604090205481565b6040519081526020015b60405180910390f35b60695461014a906001600160a01b031681565b6040516001600160a01b03909116815260200161012e565b610102610170366004610de7565b61031b565b610102610385565b61012460675481565b6033546001600160a01b031661014a565b60685461014a906001600160a01b031681565b6101246101b8366004610de7565b6103c8565b6101026101cb366004610e0b565b6103d9565b60655461014a906001600160a01b031681565b6101026101f1366004610de7565b610523565b610102610594565b61012461020c366004610de7565b6106a8565b6102196107dc565b6000825111801561022b575080518251145b6102a25760405162461bcd60e51b815260206004820152603860248201527f4c656e67746873206f6620626f746820617272617973206d757374206265206560448201527f7175616c20616e642067726561746572207468616e20302e000000000000000060648201526084015b60405180910390fd5b60005b82518110156103165760008382815181106102c2576102c2610e4d565b602002602001015190508282815181106102de576102de610e4d565b6020908102919091018101516001600160a01b039092166000908152606690915260409020558061030e81610e79565b9150506102a5565b505050565b6103236107dc565b606580546001600160a01b038381166001600160a01b031983168117909355604080519190921680825260208201939093527fb3d55174552271a4f1aaf36b72f50381e892171636b3fb5447fe00e995e7a37b91015b60405180910390a15050565b61038d6107dc565b60405162461bcd60e51b815260206004820152601060248201526f6e6f74207573656420616e796d6f726560801b6044820152606401610299565b60006103d382610838565b92915050565b600054610100900460ff16158080156103f95750600054600160ff909116105b806104135750303b158015610413575060005460ff166001145b6104765760405162461bcd60e51b815260206004820152602e60248201527f496e697469616c697a61626c653a20636f6e747261637420697320616c72656160448201526d191e481a5b9a5d1a585b1a5e995960921b6064820152608401610299565b6000805460ff191660011790558015610499576000805461ff0019166101001790555b6104a233610b53565b6067839055606880546001600160a01b038085166001600160a01b0319928316179092556069805492871692909116919091179055801561051d576000805461ff0019169055604051600181527f7f26b83ff96e1f2b6a682f133852f6798a09c465da95921460cefb38474024989060200160405180910390a15b50505050565b61052b6107dc565b606554604080516001600160a01b03928316815291831660208301527fb3d55174552271a4f1aaf36b72f50381e892171636b3fb5447fe00e995e7a37b910160405180910390a1606580546001600160a01b0319166001600160a01b0392909216919091179055565b6065546001600160a01b031633146105e65760405162461bcd60e51b81526020600482015260156024820152743737ba103a3432903832b73234b7339037bbb732b960591b6044820152606401610299565b60006105fa6033546001600160a01b031690565b6065549091506001600160a01b031661061281610b8e565b606580546001600160a01b0319169055604080516001600160a01b0384168152600060208201527f70aea8d848e8a90fb7661b227dc522eb6395c3dac71b63cb59edd5c9899b2364910160405180910390a1606554604080516001600160a01b03808516825290921660208301527fb3d55174552271a4f1aaf36b72f50381e892171636b3fb5447fe00e995e7a37b9101610379565b600080826001600160a01b0316636f307dc36040518163ffffffff1660e01b8152600401602060405180830381865afa1580156106e9573d6000803e3d6000fd5b505050506040513d601f19601f8201168201806040525081019061070d9190610e94565b9050600061071a82610838565b90506000826001600160a01b031663313ce5676040518163ffffffff1660e01b8152600401602060405180830381865afa15801561075c573d6000803e3d6000fd5b505050506040513d601f19601f820116820180604052508101906107809190610eb1565b60ff16905060128111156107b357610799601282610ed4565b6107a490600a610fcf565b6107ae9083610fdb565b6107d3565b6107be816012610ed4565b6107c990600a610fcf565b6107d39083610ffd565b95945050505050565b6033546001600160a01b031633146108365760405162461bcd60e51b815260206004820181905260248201527f4f776e61626c653a2063616c6c6572206973206e6f7420746865206f776e65726044820152606401610299565b565b6001600160a01b038116600090815260666020526040812054806108c45760405162461bcd60e51b815260206004820152603b60248201527f4e6f206f7261636c65207072696365206665656420666f756e6420666f72207460448201527f68697320756e6465726c79696e6720455243323020746f6b656e2e00000000006064820152608401610299565b606754610a1b576068546040516315d5220f60e31b81526001600160a01b039091166004820152600090339063aea9107890602401602060405180830381865afa158015610916573d6000803e3d6000fd5b505050506040513d601f19601f8201168201806040525081019061093a919061101c565b90506000610957826ec097ce7bc90715b34b9f1000000000610fdb565b6069546040516396834ad360e01b8152600481018690529192506000916001600160a01b03909116906396834ad390602401608060405180830381865afa1580156109a6573d6000803e3d6000fd5b505050506040513d601f19601f820116820180604052508101906109ca9190611035565b90506000816000015160070b12156109e3576000610a11565b80518290610a079067ffffffffffffffff166b204fce5e3e25026110000000610ffd565b610a119190610fdb565b9695505050505050565b6069546067546040516396834ad360e01b815260048101919091526000916001600160a01b0316906396834ad390602401608060405180830381865afa158015610a69573d6000803e3d6000fd5b505050506040513d601f19601f82011682018060405250810190610a8d9190611035565b5167ffffffffffffffff16905080610aa9575060009392505050565b6069546040516396834ad360e01b8152600481018490526000916001600160a01b0316906396834ad390602401608060405180830381865afa158015610af3573d6000803e3d6000fd5b505050506040513d601f19601f82011682018060405250810190610b179190611035565b5167ffffffffffffffff1690506fffffffffffffffffffffffffffffffff8216610b4982670de0b6b3a7640000610ffd565b6107d39190610fdb565b600054610100900460ff16610b7a5760405162461bcd60e51b8152600401610299906110cc565b610b82610be0565b610b8b81610b8e565b50565b603380546001600160a01b038381166001600160a01b0319831681179093556040519116919082907f8be0079c531659141344cd1fd0a4f28419497f9722a3daafe3b4186f6b6457e090600090a35050565b600054610100900460ff16610c075760405162461bcd60e51b8152600401610299906110cc565b610836600054610100900460ff16610c315760405162461bcd60e51b8152600401610299906110cc565b61083633610b8e565b634e487b7160e01b600052604160045260246000fd5b604051601f8201601f1916810167ffffffffffffffff81118282101715610c7957610c79610c3a565b604052919050565b600067ffffffffffffffff821115610c9b57610c9b610c3a565b5060051b60200190565b6001600160a01b0381168114610b8b57600080fd5b600082601f830112610ccb57600080fd5b81356020610ce0610cdb83610c81565b610c50565b82815260059290921b84018101918181019086841115610cff57600080fd5b8286015b84811015610d1a5780358352918301918301610d03565b509695505050505050565b60008060408385031215610d3857600080fd5b823567ffffffffffffffff80821115610d5057600080fd5b818501915085601f830112610d6457600080fd5b81356020610d74610cdb83610c81565b82815260059290921b84018101918181019089841115610d9357600080fd5b948201945b83861015610dba578535610dab81610ca5565b82529482019490820190610d98565b96505086013592505080821115610dd057600080fd5b50610ddd85828601610cba565b9150509250929050565b600060208284031215610df957600080fd5b8135610e0481610ca5565b9392505050565b600080600060608486031215610e2057600080fd5b8335610e2b81610ca5565b9250602084013591506040840135610e4281610ca5565b809150509250925092565b634e487b7160e01b600052603260045260246000fd5b634e487b7160e01b600052601160045260246000fd5b6000600019821415610e8d57610e8d610e63565b5060010190565b600060208284031215610ea657600080fd5b8151610e0481610ca5565b600060208284031215610ec357600080fd5b815160ff81168114610e0457600080fd5b600082821015610ee657610ee6610e63565b500390565b600181815b80851115610f26578160001904821115610f0c57610f0c610e63565b80851615610f1957918102915b93841c9390800290610ef0565b509250929050565b600082610f3d575060016103d3565b81610f4a575060006103d3565b8160018114610f605760028114610f6a57610f86565b60019150506103d3565b60ff841115610f7b57610f7b610e63565b50506001821b6103d3565b5060208310610133831016604e8410600b8410161715610fa9575081810a6103d3565b610fb38383610eeb565b8060001904821115610fc757610fc7610e63565b029392505050565b6000610e048383610f2e565b600082610ff857634e487b7160e01b600052601260045260246000fd5b500490565b600081600019048311821515161561101757611017610e63565b500290565b60006020828403121561102e57600080fd5b5051919050565b60006080828403121561104757600080fd5b6040516080810167ffffffffffffffff828210818311171561106b5761106b610c3a565b81604052845191508160070b821461108257600080fd5b908252602084015190808216821461109957600080fd5b5060208201526040830151600381900b81146110b457600080fd5b60408201526060928301519281019290925250919050565b6020808252602b908201527f496e697469616c697a61626c653a20636f6e7472616374206973206e6f74206960408201526a6e697469616c697a696e6760a81b60608201526080019056fea164736f6c634300080a000a",
    "linkReferences": {}
  },
  "methodIdentifiers": {
    "NATIVE_TOKEN_USD_FEED()": "80f96bd1",
    "PYTH()": "67e406d5",
    "USD_TOKEN()": "9d23c812",
    "_acceptOwner()": "fc4d33f9",
    "_setPendingOwner(address)": "6e96dfd7",
    "getUnderlyingPrice(address)": "fc57d4df",
    "initialize(address,bytes32,address)": "d26b3e6e",
    "owner()": "8da5cb5b",
    "pendingOwner()": "e30c3978",
    "price(address)": "aea91078",
    "priceFeedIds(address)": "336eb6ae",
    "renounceOwnership()": "715018a6",
    "setPriceFeeds(address[],bytes32[])": "01e169e4",
    "transferOwnership(address)": "f2fde38b"
  }
}