{"abi":[{"type":"receive","stateMutability":"payable"},{"type":"function","name":"_acceptOwner","inputs":[],"outputs":[],"stateMutability":"nonpayable"},{"type":"function","name":"_setPendingOwner","inputs":[{"name":"newPendingOwner","type":"address","internalType":"address"}],"outputs":[],"stateMutability":"nonpayable"},{"type":"function","name":"allowance","inputs":[{"name":"owner","type":"address","internalType":"address"},{"name":"spender","type":"address","internalType":"address"}],"outputs":[{"name":"","type":"uint256","internalType":"uint256"}],"stateMutability":"view"},{"type":"function","name":"alpacaVault","inputs":[],"outputs":[{"name":"","type":"address","internalType":"contract IAlpacaVault"}],"stateMutability":"view"},{"type":"function","name":"approve","inputs":[{"name":"spender","type":"address","internalType":"address"},{"name":"amount","type":"uint256","internalType":"uint256"}],"outputs":[{"name":"","type":"bool","internalType":"bool"}],"stateMutability":"nonpayable"},{"type":"function","name":"asset","inputs":[],"outputs":[{"name":"","type":"address","internalType":"address"}],"stateMutability":"view"},{"type":"function","name":"balanceOf","inputs":[{"name":"account","type":"address","internalType":"address"}],"outputs":[{"name":"","type":"uint256","internalType":"uint256"}],"stateMutability":"view"},{"type":"function","name":"balanceOfUnderlying","inputs":[{"name":"account","type":"address","internalType":"address"}],"outputs":[{"name":"","type":"uint256","internalType":"uint256"}],"stateMutability":"view"},{"type":"function","name":"convertToAlpacaVaultShares","inputs":[{"name":"shares","type":"uint256","internalType":"uint256"}],"outputs":[{"name":"","type":"uint256","internalType":"uint256"}],"stateMutability":"view"},{"type":"function","name":"convertToAssets","inputs":[{"name":"shares","type":"uint256","internalType":"uint256"}],"outputs":[{"name":"assets","type":"uint256","internalType":"uint256"}],"stateMutability":"view"},{"type":"function","name":"convertToShares","inputs":[{"name":"assets","type":"uint256","internalType":"uint256"}],"outputs":[{"name":"shares","type":"uint256","internalType":"uint256"}],"stateMutability":"view"},{"type":"function","name":"decimals","inputs":[],"outputs":[{"name":"","type":"uint8","internalType":"uint8"}],"stateMutability":"view"},{"type":"function","name":"decreaseAllowance","inputs":[{"name":"spender","type":"address","internalType":"address"},{"name":"subtractedValue","type":"uint256","internalType":"uint256"}],"outputs":[{"name":"","type":"bool","internalType":"bool"}],"stateMutability":"nonpayable"},{"type":"function","name":"deposit","inputs":[{"name":"assets","type":"uint256","internalType":"uint256"},{"name":"receiver","type":"address","internalType":"address"}],"outputs":[{"name":"shares","type":"uint256","internalType":"uint256"}],"stateMutability":"nonpayable"},{"type":"function","name":"emergencyWithdrawAndPause","inputs":[],"outputs":[],"stateMutability":"nonpayable"},{"type":"function","name":"feeRecipient","inputs":[],"outputs":[{"name":"","type":"address","internalType":"address"}],"stateMutability":"view"},{"type":"function","name":"increaseAllowance","inputs":[{"name":"spender","type":"address","internalType":"address"},{"name":"addedValue","type":"uint256","internalType":"uint256"}],"outputs":[{"name":"","type":"bool","internalType":"bool"}],"stateMutability":"nonpayable"},{"type":"function","name":"initialize","inputs":[{"name":"asset","type":"address","internalType":"contract ERC20Upgradeable"},{"name":"_alpacaVault","type":"address","internalType":"contract IAlpacaVault"},{"name":"_wtoken","type":"address","internalType":"contract IW_NATIVE"}],"outputs":[],"stateMutability":"nonpayable"},{"type":"function","name":"maxDeposit","inputs":[{"name":"","type":"address","internalType":"address"}],"outputs":[{"name":"","type":"uint256","internalType":"uint256"}],"stateMutability":"view"},{"type":"function","name":"maxMint","inputs":[{"name":"","type":"address","internalType":"address"}],"outputs":[{"name":"","type":"uint256","internalType":"uint256"}],"stateMutability":"view"},{"type":"function","name":"maxRedeem","inputs":[{"name":"owner","type":"address","internalType":"address"}],"outputs":[{"name":"","type":"uint256","internalType":"uint256"}],"stateMutability":"view"},{"type":"function","name":"maxWithdraw","inputs":[{"name":"owner","type":"address","internalType":"address"}],"outputs":[{"name":"","type":"uint256","internalType":"uint256"}],"stateMutability":"view"},{"type":"function","name":"mint","inputs":[{"name":"shares","type":"uint256","internalType":"uint256"},{"name":"receiver","type":"address","internalType":"address"}],"outputs":[{"name":"assets","type":"uint256","internalType":"uint256"}],"stateMutability":"nonpayable"},{"type":"function","name":"name","inputs":[],"outputs":[{"name":"","type":"string","internalType":"string"}],"stateMutability":"view"},{"type":"function","name":"owner","inputs":[],"outputs":[{"name":"","type":"address","internalType":"address"}],"stateMutability":"view"},{"type":"function","name":"paused","inputs":[],"outputs":[{"name":"","type":"bool","internalType":"bool"}],"stateMutability":"view"},{"type":"function","name":"pendingOwner","inputs":[],"outputs":[{"name":"","type":"address","internalType":"address"}],"stateMutability":"view"},{"type":"function","name":"performanceFee","inputs":[],"outputs":[{"name":"","type":"uint256","internalType":"uint256"}],"stateMutability":"view"},{"type":"function","name":"previewDeposit","inputs":[{"name":"assets","type":"uint256","internalType":"uint256"}],"outputs":[{"name":"","type":"uint256","internalType":"uint256"}],"stateMutability":"view"},{"type":"function","name":"previewMint","inputs":[{"name":"shares","type":"uint256","internalType":"uint256"}],"outputs":[{"name":"","type":"uint256","internalType":"uint256"}],"stateMutability":"view"},{"type":"function","name":"previewRedeem","inputs":[{"name":"shares","type":"uint256","internalType":"uint256"}],"outputs":[{"name":"","type":"uint256","internalType":"uint256"}],"stateMutability":"view"},{"type":"function","name":"previewWithdraw","inputs":[{"name":"assets","type":"uint256","internalType":"uint256"}],"outputs":[{"name":"","type":"uint256","internalType":"uint256"}],"stateMutability":"view"},{"type":"function","name":"redeem","inputs":[{"name":"shares","type":"uint256","internalType":"uint256"},{"name":"receiver","type":"address","internalType":"address"},{"name":"owner","type":"address","internalType":"address"}],"outputs":[{"name":"assets","type":"uint256","internalType":"uint256"}],"stateMutability":"nonpayable"},{"type":"function","name":"renounceOwnership","inputs":[],"outputs":[],"stateMutability":"nonpayable"},{"type":"function","name":"shutdown","inputs":[{"name":"market","type":"address","internalType":"address"}],"outputs":[{"name":"","type":"uint256","internalType":"uint256"}],"stateMutability":"nonpayable"},{"type":"function","name":"symbol","inputs":[],"outputs":[{"name":"","type":"string","internalType":"string"}],"stateMutability":"view"},{"type":"function","name":"takePerformanceFee","inputs":[],"outputs":[],"stateMutability":"nonpayable"},{"type":"function","name":"totalAssets","inputs":[],"outputs":[{"name":"","type":"uint256","internalType":"uint256"}],"stateMutability":"view"},{"type":"function","name":"totalSupply","inputs":[],"outputs":[{"name":"","type":"uint256","internalType":"uint256"}],"stateMutability":"view"},{"type":"function","name":"transfer","inputs":[{"name":"to","type":"address","internalType":"address"},{"name":"amount","type":"uint256","internalType":"uint256"}],"outputs":[{"name":"","type":"bool","internalType":"bool"}],"stateMutability":"nonpayable"},{"type":"function","name":"transferFrom","inputs":[{"name":"from","type":"address","internalType":"address"},{"name":"to","type":"address","internalType":"address"},{"name":"amount","type":"uint256","internalType":"uint256"}],"outputs":[{"name":"","type":"bool","internalType":"bool"}],"stateMutability":"nonpayable"},{"type":"function","name":"transferOwnership","inputs":[{"name":"newOwner","type":"address","internalType":"address"}],"outputs":[],"stateMutability":"nonpayable"},{"type":"function","name":"unpause","inputs":[],"outputs":[],"stateMutability":"nonpayable"},{"type":"function","name":"updateFeeSettings","inputs":[{"name":"newPerformanceFee","type":"uint256","internalType":"uint256"},{"name":"newFeeRecipient","type":"address","internalType":"address"}],"outputs":[],"stateMutability":"nonpayable"},{"type":"function","name":"vaultShareHWM","inputs":[],"outputs":[{"name":"","type":"uint256","internalType":"uint256"}],"stateMutability":"view"},{"type":"function","name":"withdraw","inputs":[{"name":"assets","type":"uint256","internalType":"uint256"},{"name":"receiver","type":"address","internalType":"address"},{"name":"owner","type":"address","internalType":"address"}],"outputs":[{"name":"shares","type":"uint256","internalType":"uint256"}],"stateMutability":"nonpayable"},{"type":"function","name":"withdrawAccruedFees","inputs":[],"outputs":[],"stateMutability":"nonpayable"},{"type":"event","name":"Approval","inputs":[{"name":"owner","type":"address","indexed":true,"internalType":"address"},{"name":"spender","type":"address","indexed":true,"internalType":"address"},{"name":"value","type":"uint256","indexed":false,"internalType":"uint256"}],"anonymous":false},{"type":"event","name":"Deposit","inputs":[{"name":"sender","type":"address","indexed":true,"internalType":"address"},{"name":"owner","type":"address","indexed":true,"internalType":"address"},{"name":"assets","type":"uint256","indexed":false,"internalType":"uint256"},{"name":"shares","type":"uint256","indexed":false,"internalType":"uint256"}],"anonymous":false},{"type":"event","name":"Initialized","inputs":[{"name":"version","type":"uint8","indexed":false,"internalType":"uint8"}],"anonymous":false},{"type":"event","name":"NewOwner","inputs":[{"name":"oldOwner","type":"address","indexed":false,"internalType":"address"},{"name":"newOwner","type":"address","indexed":false,"internalType":"address"}],"anonymous":false},{"type":"event","name":"NewPendingOwner","inputs":[{"name":"oldPendingOwner","type":"address","indexed":false,"internalType":"address"},{"name":"newPendingOwner","type":"address","indexed":false,"internalType":"address"}],"anonymous":false},{"type":"event","name":"OwnershipTransferred","inputs":[{"name":"previousOwner","type":"address","indexed":true,"internalType":"address"},{"name":"newOwner","type":"address","indexed":true,"internalType":"address"}],"anonymous":false},{"type":"event","name":"Paused","inputs":[{"name":"account","type":"address","indexed":false,"internalType":"address"}],"anonymous":false},{"type":"event","name":"Transfer","inputs":[{"name":"from","type":"address","indexed":true,"internalType":"address"},{"name":"to","type":"address","indexed":true,"internalType":"address"},{"name":"value","type":"uint256","indexed":false,"internalType":"uint256"}],"anonymous":false},{"type":"event","name":"Unpaused","inputs":[{"name":"account","type":"address","indexed":false,"internalType":"address"}],"anonymous":false},{"type":"event","name":"UpdatedFeeSettings","inputs":[{"name":"oldPerformanceFee","type":"uint256","indexed":false,"internalType":"uint256"},{"name":"newPerformanceFee","type":"uint256","indexed":false,"internalType":"uint256"},{"name":"oldFeeRecipient","type":"address","indexed":false,"internalType":"address"},{"name":"newFeeRecipient","type":"address","indexed":false,"internalType":"address"}],"anonymous":false},{"type":"event","name":"Withdraw","inputs":[{"name":"sender","type":"address","indexed":true,"internalType":"address"},{"name":"receiver","type":"address","indexed":true,"internalType":"address"},{"name":"owner","type":"address","indexed":true,"internalType":"address"},{"name":"assets","type":"uint256","indexed":false,"internalType":"uint256"},{"name":"shares","type":"uint256","indexed":false,"internalType":"uint256"}],"anonymous":false}],"bytecode":{"object":"0x608060405234801561001057600080fd5b50613461806100206000396000f3fe60806040526004361061028c5760003560e01c806370a082311161015a578063c0c53b8b116100c1578063dd62ed3e1161007a578063dd62ed3e146107ef578063e30c39781461080f578063ef8b30f71461076f578063f2fde38b1461082f578063fc3264341461084f578063fc4d33f91461086f57600080fd5b8063c0c53b8b1461072d578063c63d75b61461074d578063c6e6f5921461076f578063cce2f3fb1461078f578063ce96cb77146107af578063d905777e146107cf57600080fd5b8063a457c2d711610113578063a457c2d714610678578063a9059cbb14610698578063ada82c7d146106b8578063b3d7f6b9146106cd578063b460af94146106ed578063ba0876521461070d57600080fd5b806370a08231146105c4578063715018a6146105fa578063877887821461060f5780638da5cb5b1461062557806394bf804d1461064357806395d89b411461066357600080fd5b806338d52e0f116101fe57806346904840116101b757806346904840146105305780634cdad5061461034b57806356f89ef9146105505780635c975abb146105655780636e553f65146105845780636e96dfd7146105a457600080fd5b806338d52e0f14610469578063395093511461049b5780633af9e669146104bb5780633cb99bbf146104db5780633f4ba83a146104fb578063402d267d1461051057600080fd5b806310509aa91161025057806310509aa9146103bb57806318160ddd146103dd578063211493c9146103f257806323b872dd146104085780632835797814610428578063313ce5671461043d57600080fd5b806301e1d1141461030157806306fdde031461032957806307a2d13a1461034b578063095ea7b31461036b5780630a28a4771461039b57600080fd5b366102fc5760ff60009054906101000a90046001600160a01b03166001600160a01b031663d0e30db0346040518263ffffffff1660e01b81526004016000604051808303818588803b1580156102e157600080fd5b505af11580156102f5573d6000803e3d6000fd5b5050505050005b600080fd5b34801561030d57600080fd5b50610316610884565b6040519081526020015b60405180910390f35b34801561033557600080fd5b5061033e610a62565b6040516103209190612ed4565b34801561035757600080fd5b50610316610366366004612f07565b610af4565b34801561037757600080fd5b5061038b610386366004612f35565b610b07565b6040519015158152602001610320565b3480156103a757600080fd5b506103166103b6366004612f07565b610b1f565b3480156103c757600080fd5b506103db6103d6366004612f61565b610b2c565b005b3480156103e957600080fd5b50609954610316565b3480156103fe57600080fd5b5061031660fb5481565b34801561041457600080fd5b5061038b610423366004612f91565b610c52565b34801561043457600080fd5b506103db610c78565b34801561044957600080fd5b5060c954600160a01b900460ff1660405160ff9091168152602001610320565b34801561047557600080fd5b5060c9546001600160a01b03165b6040516001600160a01b039091168152602001610320565b3480156104a757600080fd5b5061038b6104b6366004612f35565b610d4e565b3480156104c757600080fd5b506103166104d6366004612fd2565b610d70565b3480156104e757600080fd5b5060fe54610483906001600160a01b031681565b34801561050757600080fd5b506103db610d92565b34801561051c57600080fd5b5061031661052b366004612fd2565b610e77565b34801561053c57600080fd5b5060fd54610483906001600160a01b031681565b34801561055c57600080fd5b506103db610e95565b34801561057157600080fd5b50606554600160a01b900460ff1661038b565b34801561059057600080fd5b5061031661059f366004612f61565b611063565b3480156105b057600080fd5b506103db6105bf366004612fd2565b61112c565b3480156105d057600080fd5b506103166105df366004612fd2565b6001600160a01b031660009081526097602052604090205490565b34801561060657600080fd5b506103db611196565b34801561061b57600080fd5b5061031660fc5481565b34801561063157600080fd5b506033546001600160a01b0316610483565b34801561064f57600080fd5b5061031661065e366004612f61565b6111d9565b34801561066f57600080fd5b5061033e611256565b34801561068457600080fd5b5061038b610693366004612f35565b611265565b3480156106a457600080fd5b5061038b6106b3366004612f35565b6112eb565b3480156106c457600080fd5b506103db6112f9565b3480156106d957600080fd5b506103166106e8366004612f07565b611329565b3480156106f957600080fd5b50610316610708366004612fef565b611336565b34801561071957600080fd5b50610316610728366004612fef565b6114ff565b34801561073957600080fd5b506103db610748366004613031565b6116f3565b34801561075957600080fd5b50610316610768366004612fd2565b5060001990565b34801561077b57600080fd5b5061031661078a366004612f07565b6118c2565b34801561079b57600080fd5b506103166107aa366004612fd2565b6118cf565b3480156107bb57600080fd5b506103166107ca366004612fd2565b6119d8565b3480156107db57600080fd5b506103166107ea366004612fd2565b6119fc565b3480156107fb57600080fd5b5061031661080a366004613061565b611a1a565b34801561081b57600080fd5b50606554610483906001600160a01b031681565b34801561083b57600080fd5b506103db61084a366004612fd2565b611a45565b34801561085b57600080fd5b5061031661086a366004612f07565b611ab6565b34801561087b57600080fd5b506103db611b4c565b606554600090600160a01b900460ff166109f65760fe546040805163626be56760e01b815290516109f1926001600160a01b03169163626be5679160048083019260209291908290030181865afa1580156108e3573d6000803e3d6000fd5b505050506040513d601f19601f82011682018060405250810190610907919061308f565b60fe60009054906101000a90046001600160a01b03166001600160a01b03166318160ddd6040518163ffffffff1660e01b8152600401602060405180830381865afa15801561095a573d6000803e3d6000fd5b505050506040513d601f19601f8201168201806040525081019061097e919061308f565b60fe546040516370a0823160e01b81523060048201526001600160a01b03909116906370a0823190602401602060405180830381865afa1580156109c6573d6000803e3d6000fd5b505050506040513d601f19601f820116820180604052508101906109ea919061308f565b9190611c60565b905090565b60ff546040516370a0823160e01b81523060048201526001600160a01b03909116906370a0823190602401602060405180830381865afa158015610a3e573d6000803e3d6000fd5b505050506040513d601f19601f820116820180604052508101906109f1919061308f565b6060609a8054610a71906130a8565b80601f0160208091040260200160405190810160405280929190818152602001828054610a9d906130a8565b8015610aea5780601f10610abf57610100808354040283529160200191610aea565b820191906000526020600020905b815481529060010190602001808311610acd57829003601f168201915b5050505050905090565b6000610b01826000611c7f565b92915050565b600033610b15818585611cb6565b5060019392505050565b6000610b01826001611ddb565b610b34611e0d565b60fc5460fd5460408051928352602083018590526001600160a01b0391821690830152821660608201527fb3b62da5184b9e7e2f5d280014bb485d4444b66738025e5fb5738bbddcb6b8489060800160405180910390a160fc82905560fd546001600160a01b03828116911614610c2f5760fd546001600160a01b031615610c115760fd546001600160a01b031660008181526097602052604090205490610bdc9082611e67565b60fd54610c05906001600160a01b0316610bfe6033546001600160a01b031690565b6000611cb6565b610c0f8282611f98565b505b610c2f81610c276033546001600160a01b031690565b600019611cb6565b60fd80546001600160a01b0319166001600160a01b039290921691909117905550565b600033610c6085828561205a565b610c6b8585856120ce565b60019150505b9392505050565b610c80611e0d565b60fe546040516370a0823160e01b81523060048201526001600160a01b0390911690632e1a7d4d9082906370a0823190602401602060405180830381865afa158015610cd0573d6000803e3d6000fd5b505050506040513d601f19601f82011682018060405250810190610cf4919061308f565b6040518263ffffffff1660e01b8152600401610d1291815260200190565b600060405180830381600087803b158015610d2c57600080fd5b505af1158015610d40573d6000803e3d6000fd5b50505050610d4c612279565b565b600033610b15818585610d618383611a1a565b610d6b91906130f9565b611cb6565b6001600160a01b038116600090815260976020526040812054610b0190610af4565b610d9a611e0d565b610da26122d9565b60fe546001600160a01b031663b6b55f25610dbb612315565b6040516370a0823160e01b81523060048201526001600160a01b0391909116906370a0823190602401602060405180830381865afa158015610e01573d6000803e3d6000fd5b505050506040513d601f19601f82011682018060405250810190610e25919061308f565b6040518263ffffffff1660e01b8152600401610e4391815260200190565b600060405180830381600087803b158015610e5d57600080fd5b505af1158015610e71573d6000803e3d6000fd5b50505050565b6000610e81612329565b610e8c576000610b01565b60001992915050565b610e9d611e0d565b60fd546001600160a01b0316610efa5760405162461bcd60e51b815260206004820152601d60248201527f66656520726563697069656e74206e6f7420696e697469616c697a656400000060448201526064015b60405180910390fd5b6000610f04610884565b90506000610f7f610f13612315565b6001600160a01b031663313ce5676040518163ffffffff1660e01b8152600401602060405180830381865afa158015610f50573d6000803e3d6000fd5b505050506040513d601f19601f82011682018060405250810190610f749190613111565b61036690600a613218565b905060fb548111610fd25760405162461bcd60e51b815260206004820152601b60248201527f736861726556616c756520213e207661756c74536861726548574d00000000006044820152606401610ef1565b6000610fdd60995490565b905060006ec097ce7bc90715b34b9f10000000008260fb54856110009190613227565b60fc5461100d919061323e565b611017919061323e565b6110219190613273565b60fd5490915061104f906001600160a01b031661104a846110428589613227565b859190611c60565b611f98565b61105a610f13612315565b60fb5550505050565b600061106d612343565b611076836118c2565b9050806110b35760405162461bcd60e51b815260206004820152600b60248201526a5a45524f5f53484152455360a81b6044820152606401610ef1565b6110d23330856110c1612315565b6001600160a01b0316929190612390565b6110dc8282611f98565b60408051848152602081018390526001600160a01b0384169133917fdcbc1c05240f31ff3ad067ef1ee35ce4997762752e3a095284754544f4c709d7910160405180910390a3610b0183826123fb565b611134611e0d565b606580546001600160a01b038381166001600160a01b031983168117909355604080519190921680825260208201939093527fb3d55174552271a4f1aaf36b72f50381e892171636b3fb5447fe00e995e7a37b91015b60405180910390a15050565b61119e611e0d565b60405162461bcd60e51b815260206004820152601060248201526f6e6f74207573656420616e796d6f726560801b6044820152606401610ef1565b60006111e3612343565b6111ec83611329565b90506111fc3330836110c1612315565b6112068284611f98565b60408051828152602081018590526001600160a01b0384169133917fdcbc1c05240f31ff3ad067ef1ee35ce4997762752e3a095284754544f4c709d7910160405180910390a3610b0181846123fb565b6060609b8054610a71906130a8565b600033816112738286611a1a565b9050838110156112d35760405162461bcd60e51b815260206004820152602560248201527f45524332303a2064656372656173656420616c6c6f77616e63652062656c6f77604482015264207a65726f60d81b6064820152608401610ef1565b6112e08286868403611cb6565b506001949350505050565b600033610b158185856120ce565b611301611e0d565b60fd546001600160a01b031660008181526097602052604090205461132691806114ff565b50565b6000610b01826001611c7f565b600061134184610b1f565b9050336001600160a01b0383161461137b57600061135f8333611a1a565b90506000198114611379576113798333610d6b8585613227565b505b606554600160a01b900460ff1661148d576000611396612315565b6040516370a0823160e01b81523060048201526001600160a01b0391909116906370a0823190602401602060405180830381865afa1580156113dc573d6000803e3d6000fd5b505050506040513d601f19601f82011682018060405250810190611400919061308f565b905061140c858361245e565b80611415612315565b6040516370a0823160e01b81523060048201526001600160a01b0391909116906370a0823190602401602060405180830381865afa15801561145b573d6000803e3d6000fd5b505050506040513d601f19601f8201168201806040525081019061147f919061308f565b6114899190613227565b9450505b6114978282611e67565b60408051858152602081018390526001600160a01b03808516929086169133917ffbde797d201c681b91056529119e0b02407c7bb96a4a2c75c01fc9667232c8db910160405180910390a4610c7183856114ef612315565b6001600160a01b03169190612496565b6000336001600160a01b0383161461153957600061151d8333611a1a565b90506000198114611537576115378333610d6b8885613227565b505b61154284610af4565b90508061157f5760405162461bcd60e51b815260206004820152600b60248201526a5a45524f5f41535345545360a81b6044820152606401610ef1565b606554600160a01b900460ff1661169157600061159a612315565b6040516370a0823160e01b81523060048201526001600160a01b0391909116906370a0823190602401602060405180830381865afa1580156115e0573d6000803e3d6000fd5b505050506040513d601f19601f82011682018060405250810190611604919061308f565b9050611610828661245e565b80611619612315565b6040516370a0823160e01b81523060048201526001600160a01b0391909116906370a0823190602401602060405180830381865afa15801561165f573d6000803e3d6000fd5b505050506040513d601f19601f82011682018060405250810190611683919061308f565b61168d9190613227565b9150505b61169b8285611e67565b60408051828152602081018690526001600160a01b03808516929086169133917ffbde797d201c681b91056529119e0b02407c7bb96a4a2c75c01fc9667232c8db910160405180910390a4610c7183826114ef612315565b600054610100900460ff16158080156117135750600054600160ff909116105b8061172d5750303b15801561172d575060005460ff166001145b6117905760405162461bcd60e51b815260206004820152602e60248201527f496e697469616c697a61626c653a20636f6e747261637420697320616c72656160448201526d191e481a5b9a5d1a585b1a5e995960921b6064820152608401610ef1565b6000805460ff1916600117905580156117b3576000805461ff0019166101001790555b6117bc846124c6565b66b1a2bc2ec5000060fc5560fe80546001600160a01b038086166001600160a01b03199283161790925560ff8054928516929091169190911790556117ff612315565b60fe5460405163095ea7b360e01b81526001600160a01b039182166004820152600019602482015291169063095ea7b3906044016020604051808303816000875af1158015611852573d6000803e3d6000fd5b505050506040513d601f19601f820116820180604052508101906118769190613295565b508015610e71576000805461ff0019169055604051600181527f7f26b83ff96e1f2b6a682f133852f6798a09c465da95921460cefb38474024989060200160405180910390a150505050565b6000610b01826000611ddb565b60006118d9611e0d565b6118e16126a6565b60006118eb612315565b6040516370a0823160e01b81523060048201529091506000906001600160a01b038316906370a0823190602401602060405180830381865afa158015611935573d6000803e3d6000fd5b505050506040513d601f19601f82011682018060405250810190611959919061308f565b60405163a9059cbb60e01b81526001600160a01b038681166004830152602482018390529192509083169063a9059cbb906044016020604051808303816000875af11580156119ac573d6000803e3d6000fd5b505050506040513d601f19601f820116820180604052508101906119d09190613295565b509392505050565b6001600160a01b038116600090815260976020526040812054610b01906000611c7f565b6001600160a01b038116600090815260976020526040812054610b01565b6001600160a01b03918216600090815260986020908152604080832093909416825291909152205490565b611a4d611e0d565b606554604080516001600160a01b03928316815291831660208301527fb3d55174552271a4f1aaf36b72f50381e892171636b3fb5447fe00e995e7a37b910160405180910390a1606580546001600160a01b0319166001600160a01b0392909216919091179055565b600080611ac260995490565b90508015611b455760fe546040516370a0823160e01b8152306004820152611b40916001600160a01b0316906370a0823190602401602060405180830381865afa158015611b14573d6000803e3d6000fd5b505050506040513d601f19601f82011682018060405250810190611b38919061308f565b8490836126f6565b610c71565b5090919050565b6065546001600160a01b03163314611b9e5760405162461bcd60e51b81526020600482015260156024820152743737ba103a3432903832b73234b7339037bbb732b960591b6044820152606401610ef1565b6000611bb26033546001600160a01b031690565b6065549091506001600160a01b0316611bca81612724565b606580546001600160a01b0319169055604080516001600160a01b0384168152600060208201527f70aea8d848e8a90fb7661b227dc522eb6395c3dac71b63cb59edd5c9899b2364910160405180910390a1606554604080516001600160a01b03808516825290921660208301527fb3d55174552271a4f1aaf36b72f50381e892171636b3fb5447fe00e995e7a37b910161118a565b828202811515841585830485141716611c7857600080fd5b0492915050565b600080611c8b60995490565b90508015611cac57611ca7611c9e610884565b85908386612776565b611cae565b835b949350505050565b6001600160a01b038316611d185760405162461bcd60e51b8152602060048201526024808201527f45524332303a20617070726f76652066726f6d20746865207a65726f206164646044820152637265737360e01b6064820152608401610ef1565b6001600160a01b038216611d795760405162461bcd60e51b815260206004820152602260248201527f45524332303a20617070726f766520746f20746865207a65726f206164647265604482015261737360f01b6064820152608401610ef1565b6001600160a01b0383811660008181526098602090815260408083209487168084529482529182902085905590518481527f8c5be1e5ebec7d5bd14f71427d1e84f3dd0314c0f7b2291e5b200ac8c7c3b92591015b60405180910390a3505050565b600080611de760995490565b9050831580611df4575080155b611cac57611ca781611e04610884565b86919086612776565b6033546001600160a01b03163314610d4c5760405162461bcd60e51b815260206004820181905260248201527f4f776e61626c653a2063616c6c6572206973206e6f7420746865206f776e65726044820152606401610ef1565b6001600160a01b038216611ec75760405162461bcd60e51b815260206004820152602160248201527f45524332303a206275726e2066726f6d20746865207a65726f206164647265736044820152607360f81b6064820152608401610ef1565b6001600160a01b03821660009081526097602052604090205481811015611f3b5760405162461bcd60e51b815260206004820152602260248201527f45524332303a206275726e20616d6f756e7420657863656564732062616c616e604482015261636560f01b6064820152608401610ef1565b6001600160a01b03831660008181526097602090815260408083208686039055609980548790039055518581529192917fddf252ad1be2c89b69c2b068fc378daa952ba7f163c4a11628f55a4df523b3ef9101611dce565b505050565b6001600160a01b038216611fee5760405162461bcd60e51b815260206004820152601f60248201527f45524332303a206d696e7420746f20746865207a65726f2061646472657373006044820152606401610ef1565b806099600082825461200091906130f9565b90915550506001600160a01b0382166000818152609760209081526040808320805486019055518481527fddf252ad1be2c89b69c2b068fc378daa952ba7f163c4a11628f55a4df523b3ef910160405180910390a35b5050565b60006120668484611a1a565b90506000198114610e7157818110156120c15760405162461bcd60e51b815260206004820152601d60248201527f45524332303a20696e73756666696369656e7420616c6c6f77616e63650000006044820152606401610ef1565b610e718484848403611cb6565b6001600160a01b0383166121325760405162461bcd60e51b815260206004820152602560248201527f45524332303a207472616e736665722066726f6d20746865207a65726f206164604482015264647265737360d81b6064820152608401610ef1565b6001600160a01b0382166121945760405162461bcd60e51b815260206004820152602360248201527f45524332303a207472616e7366657220746f20746865207a65726f206164647260448201526265737360e81b6064820152608401610ef1565b6001600160a01b0383166000908152609760205260409020548181101561220c5760405162461bcd60e51b815260206004820152602660248201527f45524332303a207472616e7366657220616d6f756e7420657863656564732062604482015265616c616e636560d01b6064820152608401610ef1565b6001600160a01b0380851660008181526097602052604080822086860390559286168082529083902080548601905591517fddf252ad1be2c89b69c2b068fc378daa952ba7f163c4a11628f55a4df523b3ef9061226c9086815260200190565b60405180910390a3610e71565b612281612343565b6065805460ff60a01b1916600160a01b1790557f62e78cea01bee320cd4e420270b5ea74000d11b0c9f74754ebdbfc544b05a2586122bc3390565b6040516001600160a01b03909116815260200160405180910390a1565b6122e16126a6565b6065805460ff60a01b191690557f5db9ee0a495bf2e6ff9c91a7834c1ba4fdd244a5e8aa4e537bd38aeae4b073aa336122bc565b60006109f160c9546001600160a01b031690565b600080612334610884565b11806109f15750506099541590565b606554600160a01b900460ff1615610d4c5760405162461bcd60e51b815260206004820152601060248201526f14185d5cd8589b194e881c185d5cd95960821b6044820152606401610ef1565b6040516001600160a01b0380851660248301528316604482015260648101829052610e719085906323b872dd60e01b906084015b60408051601f198184030181529190526020810180516001600160e01b03166001600160e01b0319909316929092179091526127d3565b60fe5460405163b6b55f2560e01b8152600481018490526001600160a01b039091169063b6b55f25906024015b600060405180830381600087803b15801561244257600080fd5b505af1158015612456573d6000803e3d6000fd5b505050505050565b60fe546001600160a01b0316632e1a7d4d61247883611ab6565b6040518263ffffffff1660e01b815260040161242891815260200190565b6040516001600160a01b038316602482015260448101829052611f9390849063a9059cbb60e01b906064016123c4565b600054610100900460ff166124ed5760405162461bcd60e51b8152600401610ef1906132b7565b6124f6336128a5565b6124fe6128dd565b61250661290c565b612618816001600160a01b03166306fdde036040518163ffffffff1660e01b8152600401600060405180830381865afa158015612547573d6000803e3d6000fd5b505050506040513d6000823e601f3d908101601f1916820160405261256f9190810190613318565b60405160200161257f91906133ba565b604051602081830303815290604052826001600160a01b03166395d89b416040518163ffffffff1660e01b8152600401600060405180830381865afa1580156125cc573d6000803e3d6000fd5b505050506040513d6000823e601f3d908101601f191682016040526125f49190810190613318565b60405160200161260491906133f8565b604051602081830303815290604052612933565b61262181612964565b806001600160a01b031663313ce5676040518163ffffffff1660e01b8152600401602060405180830381865afa15801561265f573d6000803e3d6000fd5b505050506040513d601f19601f820116820180604052508101906126839190613111565b61268e90600a613218565b60fb555060fd80546001600160a01b03191633179055565b606554600160a01b900460ff16610d4c5760405162461bcd60e51b815260206004820152601460248201527314185d5cd8589b194e881b9bdd081c185d5cd95960621b6044820152606401610ef1565b82820281151584158583048514171661270e57600080fd5b6001826001830304018115150290509392505050565b603380546001600160a01b038381166001600160a01b0319831681179093556040519116919082907f8be0079c531659141344cd1fd0a4f28419497f9722a3daafe3b4186f6b6457e090600090a35050565b600080612784868686612994565b9050600183600281111561279a5761279a613422565b1480156127b75750600084806127b2576127b261325d565b868809115b156127ca576127c76001826130f9565b90505b95945050505050565b6000612828826040518060400160405280602081526020017f5361666545524332303a206c6f772d6c6576656c2063616c6c206661696c6564815250856001600160a01b0316612a449092919063ffffffff16565b805190915015611f9357808060200190518101906128469190613295565b611f935760405162461bcd60e51b815260206004820152602a60248201527f5361666545524332303a204552433230206f7065726174696f6e20646964206e6044820152691bdd081cdd58d8d9595960b21b6064820152608401610ef1565b600054610100900460ff166128cc5760405162461bcd60e51b8152600401610ef1906132b7565b6128d4612a53565b61132681612724565b600054610100900460ff166129045760405162461bcd60e51b8152600401610ef1906132b7565b610d4c612a82565b600054610100900460ff16610d4c5760405162461bcd60e51b8152600401610ef1906132b7565b600054610100900460ff1661295a5760405162461bcd60e51b8152600401610ef1906132b7565b6120568282612ab8565b600054610100900460ff1661298b5760405162461bcd60e51b8152600401610ef1906132b7565b61132681612b06565b6000808060001985870985870292508281108382030391505080600014156129cf578382816129c5576129c561325d565b0492505050610c71565b8084116129db57600080fd5b60008486880960026001871981018816978890046003810283188082028403028082028403028082028403028082028403028082028403029081029092039091026000889003889004909101858311909403939093029303949094049190911702949350505050565b6060611cae8484600085612b8b565b600054610100900460ff16612a7a5760405162461bcd60e51b8152600401610ef1906132b7565b610d4c612c66565b600054610100900460ff16612aa95760405162461bcd60e51b8152600401610ef1906132b7565b6065805460ff60a01b19169055565b600054610100900460ff16612adf5760405162461bcd60e51b8152600401610ef1906132b7565b8151612af290609a906020850190612e0f565b508051611f9390609b906020840190612e0f565b600054610100900460ff16612b2d5760405162461bcd60e51b8152600401610ef1906132b7565b600080612b3983612c96565b9150915081612b49576012612b4b565b805b60c980546001600160a01b039095166001600160a01b031960ff93909316600160a01b02929092166001600160a81b031990951694909417179092555050565b606082471015612bec5760405162461bcd60e51b815260206004820152602660248201527f416464726573733a20696e73756666696369656e742062616c616e636520666f6044820152651c8818d85b1b60d21b6064820152608401610ef1565b600080866001600160a01b03168587604051612c089190613438565b60006040518083038185875af1925050503d8060008114612c45576040519150601f19603f3d011682016040523d82523d6000602084013e612c4a565b606091505b5091509150612c5b87838387612d74565b979650505050505050565b600054610100900460ff16612c8d5760405162461bcd60e51b8152600401610ef1906132b7565b610d4c33612724565b60408051600481526024810182526020810180516001600160e01b031663313ce56760e01b17905290516000918291829182916001600160a01b03871691612cdd91613438565b6000604051808303816000865af19150503d8060008114612d1a576040519150601f19603f3d011682016040523d82523d6000602084013e612d1f565b606091505b5091509150818015612d3357506020815110155b15612d6757600081806020019051810190612d4e919061308f565b905060ff8111612d65576001969095509350505050565b505b5060009485945092505050565b60608315612de0578251612dd9576001600160a01b0385163b612dd95760405162461bcd60e51b815260206004820152601d60248201527f416464726573733a2063616c6c20746f206e6f6e2d636f6e74726163740000006044820152606401610ef1565b5081611cae565b611cae8383815115612df55781518083602001fd5b8060405162461bcd60e51b8152600401610ef19190612ed4565b828054612e1b906130a8565b90600052602060002090601f016020900481019282612e3d5760008555612e83565b82601f10612e5657805160ff1916838001178555612e83565b82800160010185558215612e83579182015b82811115612e83578251825591602001919060010190612e68565b50612e8f929150612e93565b5090565b5b80821115612e8f5760008155600101612e94565b60005b83811015612ec3578181015183820152602001612eab565b83811115610e715750506000910152565b6020815260008251806020840152612ef3816040850160208701612ea8565b601f01601f19169190910160400192915050565b600060208284031215612f1957600080fd5b5035919050565b6001600160a01b038116811461132657600080fd5b60008060408385031215612f4857600080fd5b8235612f5381612f20565b946020939093013593505050565b60008060408385031215612f7457600080fd5b823591506020830135612f8681612f20565b809150509250929050565b600080600060608486031215612fa657600080fd5b8335612fb181612f20565b92506020840135612fc181612f20565b929592945050506040919091013590565b600060208284031215612fe457600080fd5b8135610c7181612f20565b60008060006060848603121561300457600080fd5b83359250602084013561301681612f20565b9150604084013561302681612f20565b809150509250925092565b60008060006060848603121561304657600080fd5b833561305181612f20565b9250602084013561301681612f20565b6000806040838503121561307457600080fd5b823561307f81612f20565b91506020830135612f8681612f20565b6000602082840312156130a157600080fd5b5051919050565b600181811c908216806130bc57607f821691505b602082108114156130dd57634e487b7160e01b600052602260045260246000fd5b50919050565b634e487b7160e01b600052601160045260246000fd5b6000821982111561310c5761310c6130e3565b500190565b60006020828403121561312357600080fd5b815160ff81168114610c7157600080fd5b600181815b8085111561316f578160001904821115613155576131556130e3565b8085161561316257918102915b93841c9390800290613139565b509250929050565b60008261318657506001610b01565b8161319357506000610b01565b81600181146131a957600281146131b3576131cf565b6001915050610b01565b60ff8411156131c4576131c46130e3565b50506001821b610b01565b5060208310610133831016604e8410600b84101617156131f2575081810a610b01565b6131fc8383613134565b8060001904821115613210576132106130e3565b029392505050565b6000610c7160ff841683613177565b600082821015613239576132396130e3565b500390565b6000816000190483118215151615613258576132586130e3565b500290565b634e487b7160e01b600052601260045260246000fd5b60008261329057634e487b7160e01b600052601260045260246000fd5b500490565b6000602082840312156132a757600080fd5b81518015158114610c7157600080fd5b6020808252602b908201527f496e697469616c697a61626c653a20636f6e7472616374206973206e6f74206960408201526a6e697469616c697a696e6760a81b606082015260800190565b634e487b7160e01b600052604160045260246000fd5b60006020828403121561332a57600080fd5b815167ffffffffffffffff8082111561334257600080fd5b818401915084601f83011261335657600080fd5b81518181111561336857613368613302565b604051601f8201601f19908116603f0116810190838211818310171561339057613390613302565b816040528281528760208487010111156133a957600080fd5b612c5b836020830160208801612ea8565b65026b4b230b9960d51b8152600082516133db816006850160208701612ea8565b650815985d5b1d60d21b6006939091019283015250600c01919050565b6136bb60f11b815260008251613415816002850160208701612ea8565b9190910160020192915050565b634e487b7160e01b600052602160045260246000fd5b6000825161344a818460208701612ea8565b919091019291505056fea164736f6c634300080a000a","linkReferences":{}},"methodIdentifiers":{"_acceptOwner()":"fc4d33f9","_setPendingOwner(address)":"6e96dfd7","allowance(address,address)":"dd62ed3e","alpacaVault()":"3cb99bbf","approve(address,uint256)":"095ea7b3","asset()":"38d52e0f","balanceOf(address)":"70a08231","balanceOfUnderlying(address)":"3af9e669","convertToAlpacaVaultShares(uint256)":"fc326434","convertToAssets(uint256)":"07a2d13a","convertToShares(uint256)":"c6e6f592","decimals()":"313ce567","decreaseAllowance(address,uint256)":"a457c2d7","deposit(uint256,address)":"6e553f65","emergencyWithdrawAndPause()":"28357978","feeRecipient()":"46904840","increaseAllowance(address,uint256)":"39509351","initialize(address,address,address)":"c0c53b8b","maxDeposit(address)":"402d267d","maxMint(address)":"c63d75b6","maxRedeem(address)":"d905777e","maxWithdraw(address)":"ce96cb77","mint(uint256,address)":"94bf804d","name()":"06fdde03","owner()":"8da5cb5b","paused()":"5c975abb","pendingOwner()":"e30c3978","performanceFee()":"87788782","previewDeposit(uint256)":"ef8b30f7","previewMint(uint256)":"b3d7f6b9","previewRedeem(uint256)":"4cdad506","previewWithdraw(uint256)":"0a28a477","redeem(uint256,address,address)":"ba087652","renounceOwnership()":"715018a6","shutdown(address)":"cce2f3fb","symbol()":"95d89b41","takePerformanceFee()":"56f89ef9","totalAssets()":"01e1d114","totalSupply()":"18160ddd","transfer(address,uint256)":"a9059cbb","transferFrom(address,address,uint256)":"23b872dd","transferOwnership(address)":"f2fde38b","unpause()":"3f4ba83a","updateFeeSettings(uint256,address)":"10509aa9","vaultShareHWM()":"211493c9","withdraw(uint256,address,address)":"b460af94","withdrawAccruedFees()":"ada82c7d"},"id":156}