{
  "address": "0xe3a5BDb287D9f6da0453A0025B8Df550D518A86c",
  "abi": [
    {
      "inputs": [
        {
          "internalType": "bytes4",
          "name": "_functionSelector",
          "type": "bytes4"
        }
      ],
      "name": "ExtensionNotFound",
      "type": "error"
    },
    {
      "inputs": [
        {
          "internalType": "bytes4",
          "name": "_functionSelector",
          "type": "bytes4"
        },
        {
          "internalType": "address",
          "name": "_currentImpl",
          "type": "address"
        }
      ],
      "name": "FunctionAlreadyAdded",
      "type": "error"
    },
    {
      "inputs": [
        {
          "internalType": "bytes4",
          "name": "_functionSelector",
          "type": "bytes4"
        }
      ],
      "name": "FunctionNotFound",
      "type": "error"
    },
    {
      "anonymous": false,
      "inputs": [
        {
          "indexed": false,
          "internalType": "uint256",
          "name": "cashPrior",
          "type": "uint256"
        },
        {
          "indexed": false,
          "internalType": "uint256",
          "name": "interestAccumulated",
          "type": "uint256"
        },
        {
          "indexed": false,
          "internalType": "uint256",
          "name": "borrowIndex",
          "type": "uint256"
        },
        {
          "indexed": false,
          "internalType": "uint256",
          "name": "totalBorrows",
          "type": "uint256"
        }
      ],
      "name": "AccrueInterest",
      "type": "event"
    },
    {
      "anonymous": false,
      "inputs": [
        {
          "indexed": true,
          "internalType": "address",
          "name": "owner",
          "type": "address"
        },
        {
          "indexed": true,
          "internalType": "address",
          "name": "spender",
          "type": "address"
        },
        {
          "indexed": false,
          "internalType": "uint256",
          "name": "amount",
          "type": "uint256"
        }
      ],
      "name": "Approval",
      "type": "event"
    },
    {
      "anonymous": false,
      "inputs": [
        {
          "indexed": false,
          "internalType": "address",
          "name": "borrower",
          "type": "address"
        },
        {
          "indexed": false,
          "internalType": "uint256",
          "name": "borrowAmount",
          "type": "uint256"
        },
        {
          "indexed": false,
          "internalType": "uint256",
          "name": "accountBorrows",
          "type": "uint256"
        },
        {
          "indexed": false,
          "internalType": "uint256",
          "name": "totalBorrows",
          "type": "uint256"
        }
      ],
      "name": "Borrow",
      "type": "event"
    },
    {
      "anonymous": false,
      "inputs": [
        {
          "indexed": false,
          "internalType": "uint256",
          "name": "error",
          "type": "uint256"
        },
        {
          "indexed": false,
          "internalType": "uint256",
          "name": "info",
          "type": "uint256"
        },
        {
          "indexed": false,
          "internalType": "uint256",
          "name": "detail",
          "type": "uint256"
        }
      ],
      "name": "Failure",
      "type": "event"
    },
    {
      "anonymous": false,
      "inputs": [
        {
          "indexed": false,
          "internalType": "address",
          "name": "liquidator",
          "type": "address"
        },
        {
          "indexed": false,
          "internalType": "address",
          "name": "borrower",
          "type": "address"
        },
        {
          "indexed": false,
          "internalType": "uint256",
          "name": "repayAmount",
          "type": "uint256"
        },
        {
          "indexed": false,
          "internalType": "address",
          "name": "cTokenCollateral",
          "type": "address"
        },
        {
          "indexed": false,
          "internalType": "uint256",
          "name": "seizeTokens",
          "type": "uint256"
        }
      ],
      "name": "LiquidateBorrow",
      "type": "event"
    },
    {
      "anonymous": false,
      "inputs": [
        {
          "indexed": false,
          "internalType": "address",
          "name": "minter",
          "type": "address"
        },
        {
          "indexed": false,
          "internalType": "uint256",
          "name": "mintAmount",
          "type": "uint256"
        },
        {
          "indexed": false,
          "internalType": "uint256",
          "name": "mintTokens",
          "type": "uint256"
        }
      ],
      "name": "Mint",
      "type": "event"
    },
    {
      "anonymous": false,
      "inputs": [
        {
          "indexed": false,
          "internalType": "uint256",
          "name": "oldAdminFeeMantissa",
          "type": "uint256"
        },
        {
          "indexed": false,
          "internalType": "uint256",
          "name": "newAdminFeeMantissa",
          "type": "uint256"
        }
      ],
      "name": "NewAdminFee",
      "type": "event"
    },
    {
      "anonymous": false,
      "inputs": [
        {
          "indexed": false,
          "internalType": "uint256",
          "name": "oldFuseFeeMantissa",
          "type": "uint256"
        },
        {
          "indexed": false,
          "internalType": "uint256",
          "name": "newFuseFeeMantissa",
          "type": "uint256"
        }
      ],
      "name": "NewFuseFee",
      "type": "event"
    },
    {
      "anonymous": false,
      "inputs": [
        {
          "indexed": false,
          "internalType": "address",
          "name": "oldImplementation",
          "type": "address"
        },
        {
          "indexed": false,
          "internalType": "address",
          "name": "newImplementation",
          "type": "address"
        }
      ],
      "name": "NewImplementation",
      "type": "event"
    },
    {
      "anonymous": false,
      "inputs": [
        {
          "indexed": false,
          "internalType": "contract InterestRateModel",
          "name": "oldInterestRateModel",
          "type": "address"
        },
        {
          "indexed": false,
          "internalType": "contract InterestRateModel",
          "name": "newInterestRateModel",
          "type": "address"
        }
      ],
      "name": "NewMarketInterestRateModel",
      "type": "event"
    },
    {
      "anonymous": false,
      "inputs": [
        {
          "indexed": false,
          "internalType": "uint256",
          "name": "oldReserveFactorMantissa",
          "type": "uint256"
        },
        {
          "indexed": false,
          "internalType": "uint256",
          "name": "newReserveFactorMantissa",
          "type": "uint256"
        }
      ],
      "name": "NewReserveFactor",
      "type": "event"
    },
    {
      "anonymous": false,
      "inputs": [
        {
          "indexed": false,
          "internalType": "address",
          "name": "redeemer",
          "type": "address"
        },
        {
          "indexed": false,
          "internalType": "uint256",
          "name": "redeemAmount",
          "type": "uint256"
        },
        {
          "indexed": false,
          "internalType": "uint256",
          "name": "redeemTokens",
          "type": "uint256"
        }
      ],
      "name": "Redeem",
      "type": "event"
    },
    {
      "anonymous": false,
      "inputs": [
        {
          "indexed": false,
          "internalType": "address",
          "name": "payer",
          "type": "address"
        },
        {
          "indexed": false,
          "internalType": "address",
          "name": "borrower",
          "type": "address"
        },
        {
          "indexed": false,
          "internalType": "uint256",
          "name": "repayAmount",
          "type": "uint256"
        },
        {
          "indexed": false,
          "internalType": "uint256",
          "name": "accountBorrows",
          "type": "uint256"
        },
        {
          "indexed": false,
          "internalType": "uint256",
          "name": "totalBorrows",
          "type": "uint256"
        }
      ],
      "name": "RepayBorrow",
      "type": "event"
    },
    {
      "anonymous": false,
      "inputs": [
        {
          "indexed": false,
          "internalType": "address",
          "name": "benefactor",
          "type": "address"
        },
        {
          "indexed": false,
          "internalType": "uint256",
          "name": "addAmount",
          "type": "uint256"
        },
        {
          "indexed": false,
          "internalType": "uint256",
          "name": "newTotalReserves",
          "type": "uint256"
        }
      ],
      "name": "ReservesAdded",
      "type": "event"
    },
    {
      "anonymous": false,
      "inputs": [
        {
          "indexed": false,
          "internalType": "address",
          "name": "admin",
          "type": "address"
        },
        {
          "indexed": false,
          "internalType": "uint256",
          "name": "reduceAmount",
          "type": "uint256"
        },
        {
          "indexed": false,
          "internalType": "uint256",
          "name": "newTotalReserves",
          "type": "uint256"
        }
      ],
      "name": "ReservesReduced",
      "type": "event"
    },
    {
      "anonymous": false,
      "inputs": [
        {
          "indexed": true,
          "internalType": "address",
          "name": "from",
          "type": "address"
        },
        {
          "indexed": true,
          "internalType": "address",
          "name": "to",
          "type": "address"
        },
        {
          "indexed": false,
          "internalType": "uint256",
          "name": "amount",
          "type": "uint256"
        }
      ],
      "name": "Transfer",
      "type": "event"
    },
    {
      "stateMutability": "nonpayable",
      "type": "fallback"
    },
    {
      "inputs": [
        {
          "internalType": "bytes",
          "name": "",
          "type": "bytes"
        }
      ],
      "name": "_becomeImplementation",
      "outputs": [],
      "stateMutability": "nonpayable",
      "type": "function"
    },
    {
      "inputs": [],
      "name": "_listExtensions",
      "outputs": [
        {
          "internalType": "address[]",
          "name": "",
          "type": "address[]"
        }
      ],
      "stateMutability": "view",
      "type": "function"
    },
    {
      "inputs": [],
      "name": "_prepare",
      "outputs": [],
      "stateMutability": "payable",
      "type": "function"
    },
    {
      "inputs": [
        {
          "internalType": "contract DiamondExtension",
          "name": "extensionToAdd",
          "type": "address"
        },
        {
          "internalType": "contract DiamondExtension",
          "name": "extensionToReplace",
          "type": "address"
        }
      ],
      "name": "_registerExtension",
      "outputs": [],
      "stateMutability": "nonpayable",
      "type": "function"
    },
    {
      "inputs": [
        {
          "internalType": "address",
          "name": "implementation_",
          "type": "address"
        },
        {
          "internalType": "bool",
          "name": "allowResign",
          "type": "bool"
        },
        {
          "internalType": "bytes",
          "name": "becomeImplementationData",
          "type": "bytes"
        }
      ],
      "name": "_setImplementationSafe",
      "outputs": [],
      "stateMutability": "nonpayable",
      "type": "function"
    },
    {
      "inputs": [
        {
          "internalType": "uint256",
          "name": "withdrawAmount",
          "type": "uint256"
        }
      ],
      "name": "_withdrawAdminFees",
      "outputs": [
        {
          "internalType": "uint256",
          "name": "",
          "type": "uint256"
        }
      ],
      "stateMutability": "nonpayable",
      "type": "function"
    },
    {
      "inputs": [
        {
          "internalType": "uint256",
          "name": "withdrawAmount",
          "type": "uint256"
        }
      ],
      "name": "_withdrawFuseFees",
      "outputs": [
        {
          "internalType": "uint256",
          "name": "",
          "type": "uint256"
        }
      ],
      "stateMutability": "nonpayable",
      "type": "function"
    },
    {
      "inputs": [],
      "name": "accrualBlockNumber",
      "outputs": [
        {
          "internalType": "uint256",
          "name": "",
          "type": "uint256"
        }
      ],
      "stateMutability": "view",
      "type": "function"
    },
    {
      "inputs": [],
      "name": "adminFeeMantissa",
      "outputs": [
        {
          "internalType": "uint256",
          "name": "",
          "type": "uint256"
        }
      ],
      "stateMutability": "view",
      "type": "function"
    },
    {
      "inputs": [
        {
          "internalType": "uint256",
          "name": "borrowAmount",
          "type": "uint256"
        }
      ],
      "name": "borrow",
      "outputs": [
        {
          "internalType": "uint256",
          "name": "",
          "type": "uint256"
        }
      ],
      "stateMutability": "nonpayable",
      "type": "function"
    },
    {
      "inputs": [],
      "name": "borrowIndex",
      "outputs": [
        {
          "internalType": "uint256",
          "name": "",
          "type": "uint256"
        }
      ],
      "stateMutability": "view",
      "type": "function"
    },
    {
      "inputs": [],
      "name": "comptroller",
      "outputs": [
        {
          "internalType": "contract IComptroller",
          "name": "",
          "type": "address"
        }
      ],
      "stateMutability": "view",
      "type": "function"
    },
    {
      "inputs": [],
      "name": "contractType",
      "outputs": [
        {
          "internalType": "string",
          "name": "",
          "type": "string"
        }
      ],
      "stateMutability": "pure",
      "type": "function"
    },
    {
      "inputs": [],
      "name": "decimals",
      "outputs": [
        {
          "internalType": "uint8",
          "name": "",
          "type": "uint8"
        }
      ],
      "stateMutability": "view",
      "type": "function"
    },
    {
      "inputs": [],
      "name": "feeSeizeShareMantissa",
      "outputs": [
        {
          "internalType": "uint256",
          "name": "",
          "type": "uint256"
        }
      ],
      "stateMutability": "view",
      "type": "function"
    },
    {
      "inputs": [],
      "name": "fuseAdmin",
      "outputs": [
        {
          "internalType": "address payable",
          "name": "",
          "type": "address"
        }
      ],
      "stateMutability": "view",
      "type": "function"
    },
    {
      "inputs": [],
      "name": "fuseFeeMantissa",
      "outputs": [
        {
          "internalType": "uint256",
          "name": "",
          "type": "uint256"
        }
      ],
      "stateMutability": "view",
      "type": "function"
    },
    {
      "inputs": [],
      "name": "getCash",
      "outputs": [
        {
          "internalType": "uint256",
          "name": "",
          "type": "uint256"
        }
      ],
      "stateMutability": "view",
      "type": "function"
    },
    {
      "inputs": [],
      "name": "implementation",
      "outputs": [
        {
          "internalType": "address",
          "name": "",
          "type": "address"
        }
      ],
      "stateMutability": "view",
      "type": "function"
    },
    {
      "inputs": [
        {
          "internalType": "address",
          "name": "underlying_",
          "type": "address"
        },
        {
          "internalType": "contract IComptroller",
          "name": "comptroller_",
          "type": "address"
        },
        {
          "internalType": "address payable",
          "name": "fuseAdmin_",
          "type": "address"
        },
        {
          "internalType": "contract InterestRateModel",
          "name": "interestRateModel_",
          "type": "address"
        },
        {
          "internalType": "string",
          "name": "name_",
          "type": "string"
        },
        {
          "internalType": "string",
          "name": "symbol_",
          "type": "string"
        },
        {
          "internalType": "uint256",
          "name": "reserveFactorMantissa_",
          "type": "uint256"
        },
        {
          "internalType": "uint256",
          "name": "adminFeeMantissa_",
          "type": "uint256"
        }
      ],
      "name": "initialize",
      "outputs": [],
      "stateMutability": "nonpayable",
      "type": "function"
    },
    {
      "inputs": [
        {
          "internalType": "contract IComptroller",
          "name": "comptroller_",
          "type": "address"
        },
        {
          "internalType": "address payable",
          "name": "fuseAdmin_",
          "type": "address"
        },
        {
          "internalType": "contract InterestRateModel",
          "name": "interestRateModel_",
          "type": "address"
        },
        {
          "internalType": "uint256",
          "name": "initialExchangeRateMantissa_",
          "type": "uint256"
        },
        {
          "internalType": "string",
          "name": "name_",
          "type": "string"
        },
        {
          "internalType": "string",
          "name": "symbol_",
          "type": "string"
        },
        {
          "internalType": "uint8",
          "name": "decimals_",
          "type": "uint8"
        },
        {
          "internalType": "uint256",
          "name": "reserveFactorMantissa_",
          "type": "uint256"
        },
        {
          "internalType": "uint256",
          "name": "adminFeeMantissa_",
          "type": "uint256"
        }
      ],
      "name": "initialize",
      "outputs": [],
      "stateMutability": "nonpayable",
      "type": "function"
    },
    {
      "inputs": [],
      "name": "interestRateModel",
      "outputs": [
        {
          "internalType": "contract InterestRateModel",
          "name": "",
          "type": "address"
        }
      ],
      "stateMutability": "view",
      "type": "function"
    },
    {
      "inputs": [],
      "name": "isCEther",
      "outputs": [
        {
          "internalType": "bool",
          "name": "",
          "type": "bool"
        }
      ],
      "stateMutability": "view",
      "type": "function"
    },
    {
      "inputs": [
        {
          "internalType": "address",
          "name": "borrower",
          "type": "address"
        },
        {
          "internalType": "uint256",
          "name": "repayAmount",
          "type": "uint256"
        },
        {
          "internalType": "address",
          "name": "cTokenCollateral",
          "type": "address"
        }
      ],
      "name": "liquidateBorrow",
      "outputs": [
        {
          "internalType": "uint256",
          "name": "",
          "type": "uint256"
        }
      ],
      "stateMutability": "nonpayable",
      "type": "function"
    },
    {
      "inputs": [
        {
          "internalType": "uint256",
          "name": "mintAmount",
          "type": "uint256"
        }
      ],
      "name": "mint",
      "outputs": [
        {
          "internalType": "uint256",
          "name": "",
          "type": "uint256"
        }
      ],
      "stateMutability": "nonpayable",
      "type": "function"
    },
    {
      "inputs": [],
      "name": "name",
      "outputs": [
        {
          "internalType": "string",
          "name": "",
          "type": "string"
        }
      ],
      "stateMutability": "view",
      "type": "function"
    },
    {
      "inputs": [],
      "name": "protocolSeizeShareMantissa",
      "outputs": [
        {
          "internalType": "uint256",
          "name": "",
          "type": "uint256"
        }
      ],
      "stateMutability": "view",
      "type": "function"
    },
    {
      "inputs": [
        {
          "internalType": "uint256",
          "name": "redeemTokens",
          "type": "uint256"
        }
      ],
      "name": "redeem",
      "outputs": [
        {
          "internalType": "uint256",
          "name": "",
          "type": "uint256"
        }
      ],
      "stateMutability": "nonpayable",
      "type": "function"
    },
    {
      "inputs": [
        {
          "internalType": "uint256",
          "name": "redeemAmount",
          "type": "uint256"
        }
      ],
      "name": "redeemUnderlying",
      "outputs": [
        {
          "internalType": "uint256",
          "name": "",
          "type": "uint256"
        }
      ],
      "stateMutability": "nonpayable",
      "type": "function"
    },
    {
      "inputs": [
        {
          "internalType": "uint256",
          "name": "repayAmount",
          "type": "uint256"
        }
      ],
      "name": "repayBorrow",
      "outputs": [
        {
          "internalType": "uint256",
          "name": "",
          "type": "uint256"
        }
      ],
      "stateMutability": "nonpayable",
      "type": "function"
    },
    {
      "inputs": [
        {
          "internalType": "address",
          "name": "borrower",
          "type": "address"
        },
        {
          "internalType": "uint256",
          "name": "repayAmount",
          "type": "uint256"
        }
      ],
      "name": "repayBorrowBehalf",
      "outputs": [
        {
          "internalType": "uint256",
          "name": "",
          "type": "uint256"
        }
      ],
      "stateMutability": "nonpayable",
      "type": "function"
    },
    {
      "inputs": [],
      "name": "reserveFactorMantissa",
      "outputs": [
        {
          "internalType": "uint256",
          "name": "",
          "type": "uint256"
        }
      ],
      "stateMutability": "view",
      "type": "function"
    },
    {
      "inputs": [
        {
          "internalType": "address",
          "name": "liquidator",
          "type": "address"
        },
        {
          "internalType": "address",
          "name": "borrower",
          "type": "address"
        },
        {
          "internalType": "uint256",
          "name": "seizeTokens",
          "type": "uint256"
        }
      ],
      "name": "seize",
      "outputs": [
        {
          "internalType": "uint256",
          "name": "",
          "type": "uint256"
        }
      ],
      "stateMutability": "nonpayable",
      "type": "function"
    },
    {
      "inputs": [
        {
          "internalType": "address",
          "name": "from",
          "type": "address"
        },
        {
          "internalType": "uint256",
          "name": "amount",
          "type": "uint256"
        }
      ],
      "name": "selfTransferIn",
      "outputs": [
        {
          "internalType": "uint256",
          "name": "",
          "type": "uint256"
        }
      ],
      "stateMutability": "nonpayable",
      "type": "function"
    },
    {
      "inputs": [
        {
          "internalType": "address",
          "name": "to",
          "type": "address"
        },
        {
          "internalType": "uint256",
          "name": "amount",
          "type": "uint256"
        }
      ],
      "name": "selfTransferOut",
      "outputs": [],
      "stateMutability": "nonpayable",
      "type": "function"
    },
    {
      "inputs": [],
      "name": "symbol",
      "outputs": [
        {
          "internalType": "string",
          "name": "",
          "type": "string"
        }
      ],
      "stateMutability": "view",
      "type": "function"
    },
    {
      "inputs": [],
      "name": "totalAdminFees",
      "outputs": [
        {
          "internalType": "uint256",
          "name": "",
          "type": "uint256"
        }
      ],
      "stateMutability": "view",
      "type": "function"
    },
    {
      "inputs": [],
      "name": "totalBorrows",
      "outputs": [
        {
          "internalType": "uint256",
          "name": "",
          "type": "uint256"
        }
      ],
      "stateMutability": "view",
      "type": "function"
    },
    {
      "inputs": [],
      "name": "totalFuseFees",
      "outputs": [
        {
          "internalType": "uint256",
          "name": "",
          "type": "uint256"
        }
      ],
      "stateMutability": "view",
      "type": "function"
    },
    {
      "inputs": [],
      "name": "totalReserves",
      "outputs": [
        {
          "internalType": "uint256",
          "name": "",
          "type": "uint256"
        }
      ],
      "stateMutability": "view",
      "type": "function"
    },
    {
      "inputs": [],
      "name": "totalSupply",
      "outputs": [
        {
          "internalType": "uint256",
          "name": "",
          "type": "uint256"
        }
      ],
      "stateMutability": "view",
      "type": "function"
    },
    {
      "inputs": [],
      "name": "underlying",
      "outputs": [
        {
          "internalType": "address",
          "name": "",
          "type": "address"
        }
      ],
      "stateMutability": "view",
      "type": "function"
    }
  ],
  "transactionHash": "0xa1a7c810c1cd281e4ef4c38184a66c12436c6a2484a81aebbe5164f20fb608d3",
  "args": [],
  "numDeployments": 11,
  "bytecode": {
    "object": "0x608060405234801561001057600080fd5b50615408806100206000396000f3fe6080604052600436106102515760003560e01c80636c540baf11610139578063aa5af0fd116100b6578063cb2ef6f71161007a578063cb2ef6f714610714578063db006a751461074b578063dbfe7c191461076b578063dc028ab114610781578063f3fdb15a14610797578063f5e3c462146107b757610251565b8063aa5af0fd1461067d578063ac784ddc14610693578063b2a02ff1146106b8578063be99f119146106d8578063c5ebeaec146106f457610251565b80638f840ddd116100fd5780638f840ddd146105f257806395d89b4114610608578063a03dce8d1461061d578063a0712d681461063d578063a7b820df1461065d57610251565b80636c540baf146105665780636f307dc31461057c578063852a12e31461059c57806389cd9855146105bc5780638d02d9a1146105dc57610251565b80632608f818116101d257806356e677281161019657806356e67728146104b35780635c60da1b146104d35780635fe3b567146104f357806361feacff146105135780636333d001146105295780636752e7021461054b57610251565b80632608f8181461041c578063313ce5671461043c5780633b1d21a21461046857806347bd37181461047d57806350d85b731461049357610251565b806315761d511161021957806315761d5114610390578063173b9904146103c857806318160ddd146103de5780631db78944146103f4578063219ef65c146103fc57610251565b8063067db1b3146102d557806306db3ecd146102f757806306fdde03146103175780630e75270214610342578063135f133414610370575b34801561025d57600080fd5b5060006102756000356001600160e01b0319166107d7565b90506001600160a01b0381166102b157604051630a82dd7360e31b81526001600160e01b03196000351660048201526024015b60405180910390fd5b3660008037600080366000845af43d6000803e8080156102d0573d6000f35b3d6000fd5b3480156102e157600080fd5b506102f56102f0366004614a3d565b61083a565b005b34801561030357600080fd5b506102f5610312366004614b46565b61087f565b34801561032357600080fd5b5061032c61098d565b6040516103399190614c60565b60405180910390f35b34801561034e57600080fd5b5061036261035d366004614c73565b610a1b565b604051908152602001610339565b34801561037c57600080fd5b5061036261038b366004614a3d565b610a2f565b34801561039c57600080fd5b506001546103b0906001600160a01b031681565b6040516001600160a01b039091168152602001610339565b3480156103d457600080fd5b50610362600b5481565b3480156103ea57600080fd5b5061036260125481565b6102f5610a7b565b34801561040857600080fd5b506102f5610417366004614ca6565b610bb9565b34801561042857600080fd5b50610362610437366004614a3d565b611015565b34801561044857600080fd5b506005546104569060ff1681565b60405160ff9091168152602001610339565b34801561047457600080fd5b5061036261102b565b34801561048957600080fd5b50610362600e5481565b34801561049f57600080fd5b506102f56104ae366004614d7c565b61103a565b3480156104bf57600080fd5b506102f56104ce366004614e0e565b6110be565b3480156104df57600080fd5b506000546103b0906001600160a01b031681565b3480156104ff57600080fd5b506006546103b0906001600160a01b031681565b34801561051f57600080fd5b5061036260105481565b34801561053557600080fd5b5061053e611110565b6040516103399190614e57565b34801561055757600080fd5b50610362666379da05b6000081565b34801561057257600080fd5b50610362600c5481565b34801561058857600080fd5b506016546103b0906001600160a01b031681565b3480156105a857600080fd5b506103626105b7366004614c73565b61111a565b3480156105c857600080fd5b506102f56105d7366004614ea4565b611125565b3480156105e857600080fd5b5061036260095481565b3480156105fe57600080fd5b50610362600f5481565b34801561061457600080fd5b5061032c6111f9565b34801561062957600080fd5b50610362610638366004614c73565b611206565b34801561064957600080fd5b50610362610658366004614c73565b611307565b34801561066957600080fd5b50610362610678366004614c73565b611313565b34801561068957600080fd5b50610362600d5481565b34801561069f57600080fd5b506106a8600081565b6040519015158152602001610339565b3480156106c457600080fd5b506103626106d3366004614edd565b61145e565b3480156106e457600080fd5b5061036267016345785d8a000081565b34801561070057600080fd5b5061036261070f366004614c73565b611482565b34801561072057600080fd5b5060408051808201909152600e81526d43457263323044656c656761746560901b602082015261032c565b34801561075757600080fd5b50610362610766366004614c73565b61148d565b34801561077757600080fd5b50610362600a5481565b34801561078d57600080fd5b5061036260115481565b3480156107a357600080fd5b506007546103b0906001600160a01b031681565b3480156107c357600080fd5b506103626107d2366004614f1e565b611498565b6001600160e01b0319811660009081526000805160206153bc833981519152602081905260408220546001600160a01b03168061083357604051631f3f429960e31b81526001600160e01b0319851660048201526024016102a8565b9392505050565b3330146108715760405162461bcd60e51b815260206004820152600560248201526410b9b2b63360d91b60448201526064016102a8565b61087b82826114b0565b5050565b60006702c68af0bb14000090506000896001600160a01b031663313ce5676040518163ffffffff1660e01b8152600401602060405180830381865afa1580156108cc573d6000803e3d6000fd5b505050506040513d601f19601f820116820180604052508101906108f09190614f60565b9050610903898989858a8a878b8b610bb9565b601680546001600160a01b0319166001600160a01b038c16908117909155604080516318160ddd60e01b815290516318160ddd916004808201926020929091908290030181865afa15801561095c573d6000803e3d6000fd5b505050506040513d601f19601f820116820180604052508101906109809190614f7d565b5050505050505050505050565b6003805461099a90614f96565b80601f01602080910402602001604051908101604052809291908181526020018280546109c690614f96565b8015610a135780601f106109e857610100808354040283529160200191610a13565b820191906000526020600020905b8154815290600101906020018083116109f657829003601f168201915b505050505081565b600080610a2783611531565b509392505050565b6000333014610a685760405162461bcd60e51b815260206004820152600560248201526410b9b2b63360d91b60448201526064016102a8565b610a7283836115c2565b90505b92915050565b333014801590610afd5750600660009054906101000a90046001600160a01b03166001600160a01b031663dd5cd22c6040518163ffffffff1660e01b8152600401602060405180830381865afa158015610ad9573d6000803e3d6000fd5b505050506040513d601f19601f82011682018060405250810190610afd9190614fcb565b15610bb757600154600080546040516345cc970560e01b81526001600160a01b039182166004820152919283928392909116906345cc970590602401600060405180830381865afa158015610b56573d6000803e3d6000fd5b505050506040513d6000823e601f3d908101601f19168201604052610b7e9190810190614fe8565b60005492955090935091506001600160a01b03808516911614610bab57610ba6838383611795565b610bb3565b610bb3611933565b5050505b565b336001600160a01b03891614610bfa5760405162461bcd60e51b815260206004820152600660248201526510b0b236b4b760d11b60448201526064016102a8565b600c54158015610c0a5750600d54155b610c455760405162461bcd60e51b815260206004820152600c60248201526b085a5b9a5d1a585b1a5e995960a21b60448201526064016102a8565b600180546001600160a01b0319166001600160a01b038a16179055600886905585610ca45760405162461bcd60e51b815260206004820152600f60248201526e02165786368616e6765526174653e3608c1b60448201526064016102a8565b600680546001600160a01b0319166001600160a01b038b81169190911790915543600c55670de0b6b3a7640000600d55604080516310c8fc9560e11b8152905191891691632191f92a916004808201926020929091908290030181865afa158015610d13573d6000803e3d6000fd5b505050506040513d601f19601f82011682018060405250810190610d379190614fcb565b610d6d5760405162461bcd60e51b8152602060048201526007602482015266216e6f7449726d60c81b60448201526064016102a8565b600780546001600160a01b0319166001600160a01b038916908117909155604080516000815260208101929092527fedffc32e068c7c95dfd4bdfd5c4d939a084d6b11c4199eac8436ed234d72f926910160405180910390a18451610dd990600390602088019061498f565b508351610ded90600490602087019061498f565b506005805460ff191660ff8516179055600a54600954670de0b6b3a76400009190610e18908561509e565b610e22919061509e565b1115610e5a5760405162461bcd60e51b8152602060048201526007602482015266085c998e9cd95d60ca1b60448201526064016102a8565b600b8290556040805160008152602081018490527faaa68312e2ea9d50e16af5068410ab56e1a1fd06037b1a35664812c30f821460910160405180910390a1600019811415610ea857506009545b6001546040805163dd86fea160e01b815290516000926001600160a01b03169163dd86fea19160048083019260209291908290030181865afa158015610ef2573d6000803e3d6000fd5b505050506040513d601f19601f82011682018060405250810190610f169190614f7d565b9050670de0b6b3a76400008183600b54610f30919061509e565b610f3a919061509e565b1115610f785760405162461bcd60e51b815260206004820152600d60248201526c0858591b5a5b9199594e9cd95d609a1b60448201526064016102a8565b60098290556040805160008152602081018490527fcdd0b588250e1398549f79cfdb8217c186688822905d6715b0834ea1c865594a910160405180910390a1600a8190556040805160008152602081018390527f92eef861b6533b7d3417f39c2ad7b460eed4e88a32fa3604f30e718b7602e7dc910160405180910390a150506002805460ff60b01b1916600160b01b1790555050505050505050565b6000806110228484611aa4565b50949350505050565b6000611035611b37565b905090565b611042611ba4565b6110775760405162461bcd60e51b815260206004820152600660248201526510b0b236b4b760d11b60448201526064016102a8565b6110b8848484848080601f01602080910402602001604051908101604052809392919081815260200183838082843760009201919091525061179592505050565b50505050565b333014806110cf57506110cf611ba4565b61110d5760405162461bcd60e51b815260206004820152600f60248201526e10b9b2b633103e3e1010b0b236b4b760891b60448201526064016102a8565b50565b6060611035611d15565b6000610a7582611d87565b6006546001546001600160a01b039182169116331480156111a35750806001600160a01b0316632f1069ba6040518163ffffffff1660e01b8152600401602060405180830381865afa15801561117f573d6000803e3d6000fd5b505050506040513d601f19601f820116820180604052508101906111a39190614fcb565b6111ef5760405162461bcd60e51b815260206004820152601f60248201527f21756e617574686f72697a6564202d206e6f2061646d696e207269676874730060448201526064016102a8565b610bb38383611e04565b6004805461099a90614f96565b60008061121281611e25565b306001600160a01b031663a6afed956040518163ffffffff1660e01b81526004016020604051808303816000875af1158015611252573d6000803e3d6000fd5b505050506040513d601f19601f820116820180604052508101906112769190614f7d565b5043600c54146112935761128c600a6035611ee9565b91506112f8565b8261129c611b37565b10156112ae5761128c600e6034611ee9565b6011548311156112c45761128c60026036611ee9565b6000836011546112d491906150b6565b60118190556001549091506112f2906001600160a01b0316856114b0565b60009250505b61130181611f62565b50919050565b600080610a2783611fe5565b60008061131f81611e25565b306001600160a01b031663a6afed956040518163ffffffff1660e01b81526004016020604051808303816000875af115801561135f573d6000803e3d6000fd5b505050506040513d601f19601f820116820180604052508101906113839190614f7d565b5043600c54146113995761128c600a6039611ee9565b826113a2611b37565b10156113b45761128c600e6038611ee9565b6010548311156113ca5761128c6002603a611ee9565b826010546113d891906150b6565b601055600654604080516303e1469160e61b81529051611450926001600160a01b03169163f851a4409160048083019260209291908290030181865afa158015611426573d6000803e3d6000fd5b505050506040513d601f19601f8201168201806040525081019061144a91906150e3565b846114b0565b60005b915061130181611f62565b6000600161146b81611e25565b61147733868686612062565b9150610a2781611f62565b6000610a7582612546565b6000610a75826125c1565b6000806114a685858561263e565b5095945050505050565b604080516001600160a01b038416602482015260448082018490528251808303909101815260649091018252602080820180516001600160e01b031663a9059cbb60e01b1790528251808401909352601983527f544f4b454e5f5452414e534645525f4f55545f4641494c4544000000000000009083015261087b91612738565b600080600061153f81611e25565b306001600160a01b031663a6afed956040518163ffffffff1660e01b81526004016020604051808303816000875af115801561157f573d6000803e3d6000fd5b505050506040513d601f19601f820116820180604052508101906115a39190614f7d565b506115af33338661278f565b925092506115bc81611f62565b50915091565b6016546040516370a0823160e01b815230600482015260009182916001600160a01b03909116906370a0823190602401602060405180830381865afa15801561160f573d6000803e3d6000fd5b505050506040513d601f19601f820116820180604052508101906116339190614f7d565b90506116c36323b872dd60e01b85308660405160240161165593929190615100565b604051602081830303815290604052906001600160e01b0319166020820180516001600160e01b0383818316178352505050506040518060400160405280601881526020017f544f4b454e5f5452414e534645525f494e5f4641494c45440000000000000000815250612738565b6016546040516370a0823160e01b81523060048201526000916001600160a01b0316906370a0823190602401602060405180830381865afa15801561170c573d6000803e3d6000fd5b505050506040513d601f19601f820116820180604052508101906117309190614f7d565b9050818110156117825760405162461bcd60e51b815260206004820152601a60248201527f544f4b454e5f5452414e534645525f494e5f4f564552464c4f5700000000000060448201526064016102a8565b61178c82826150b6565b95945050505050565b6001546000546040516338e6a07360e11b81526001600160a01b039182166004820152858216602482015284151560448201529116906371cd40e690606401602060405180830381865afa1580156117f1573d6000803e3d6000fd5b505050506040513d601f19601f820116820180604052508101906118159190614fcb565b6118495760405162461bcd60e51b8152602060048201526005602482015264085a5b5c1b60da1b60448201526064016102a8565b600080546001600160a01b038581166001600160a01b031983161790925516611870611933565b303b6118845761187f826110be565b6118e6565b6118e430836040516024016118999190614c60565b60408051601f19818403018152918152602080830180516001600160e01b0316630adccee560e31b17905281518083019092526007825266216265636f6d6560c81b90820152612b98565b505b600054604080516001600160a01b03808516825290921660208301527fd604de94d45953f9138079ec1b82d533cb2160c906d1076d1f7ed54befbca97a910160405180910390a150505050565b600154600080546040516311a0e21760e01b81526001600160a01b039182166004820152919216906311a0e21790602401600060405180830381865afa158015611981573d6000803e3d6000fd5b505050506040513d6000823e601f3d908101601f191682016040526119a99190810190615148565b905060006119b5611d15565b9050815160011480156119c9575080516001145b8015611a1a5750806000815181106119e3576119e36151e2565b60200260200101516001600160a01b031682600081518110611a0757611a076151e2565b60200260200101516001600160a01b0316145b15611a23575050565b60005b8151811015611a6357611a51828281518110611a4457611a446151e2565b6020026020010151612c2b565b80611a5b816151f8565b915050611a26565b5060005b8251811015610bb357611a92838281518110611a8557611a856151e2565b6020026020010151612d5b565b80611a9c816151f8565b915050611a67565b6000806000611ab281611e25565b306001600160a01b031663a6afed956040518163ffffffff1660e01b81526004016020604051808303816000875af1158015611af2573d6000803e3d6000fd5b505050506040513d601f19601f82011682018060405250810190611b169190614f7d565b50611b2233868661278f565b92509250611b2f81611f62565b509250929050565b6016546040516370a0823160e01b81523060048201526000916001600160a01b0316906370a0823190602401602060405180830381865afa158015611b80573d6000803e3d6000fd5b505050506040513d601f19601f820116820180604052508101906110359190614f7d565b600654604080516303e1469160e61b815290516000926001600160a01b031691829163f851a440916004808201926020929091908290030181865afa158015611bf1573d6000803e3d6000fd5b505050506040513d601f19601f82011682018060405250810190611c1591906150e3565b6001600160a01b0316336001600160a01b0316148015611c925750806001600160a01b0316630a755ec26040518163ffffffff1660e01b8152600401602060405180830381865afa158015611c6e573d6000803e3d6000fd5b505050506040513d601f19601f82011682018060405250810190611c929190614fcb565b80611d0f57506001546001600160a01b031633148015611d0f5750806001600160a01b0316632f1069ba6040518163ffffffff1660e01b8152600401602060405180830381865afa158015611ceb573d6000803e3d6000fd5b505050506040513d601f19601f82011682018060405250810190611d0f9190614fcb565b91505090565b60606000805160206153bc833981519152600201805480602002602001604051908101604052809291908181526020018280548015611d7d57602002820191906000526020600020905b81546001600160a01b03168152600190910190602001808311611d5f575b5050505050905090565b600080611d9381611e25565b306001600160a01b031663a6afed956040518163ffffffff1660e01b81526004016020604051808303816000875af1158015611dd3573d6000803e3d6000fd5b505050506040513d601f19601f82011682018060405250810190611df79190614f7d565b5061145333600085612e53565b6001600160a01b03811615611e1c57611e1c81612c2b565b61087b82612d5b565b600254600160b01b900460ff16611e6b5760405162461bcd60e51b815260206004820152600a6024820152691c994b595b9d195c995960b21b60448201526064016102a8565b80611ed957600660009054906101000a90046001600160a01b03166001600160a01b031663c90c20b16040518163ffffffff1660e01b8152600401600060405180830381600087803b158015611ec057600080fd5b505af1158015611ed4573d6000803e3d6000fd5b505050505b506002805460ff60b01b19169055565b60007f45b96fe442630264581b197e84bbada861235052c5a1aadfff9ea4e40a969aa0836011811115611f1e57611f1e6150cd565b836061811115611f3057611f306150cd565b60408051928352602083019190915260009082015260600160405180910390a1826011811115610a7257610a726150cd565b6002805460ff60b01b1916600160b01b1790558061110d57600660009054906101000a90046001600160a01b03166001600160a01b031663632e51426040518163ffffffff1660e01b8152600401600060405180830381600087803b158015611fca57600080fd5b505af1158015611fde573d6000803e3d6000fd5b5050505050565b6000806000611ff381611e25565b306001600160a01b031663a6afed956040518163ffffffff1660e01b81526004016020604051808303816000875af1158015612033573d6000803e3d6000fd5b505050506040513d601f19601f820116820180604052508101906120579190614f7d565b506115af338561348b565b60065460405163d02f735160e01b81523060048201526001600160a01b0386811660248301528581166044830152848116606483015260848201849052600092839291169063d02f73519060a4016020604051808303816000875af11580156120cf573d6000803e3d6000fd5b505050506040513d601f19601f820116820180604052508101906120f39190614f7d565b90508015612110576121086003601d83613805565b91505061253e565b846001600160a01b0316846001600160a01b03161415612136576121086006601e611ee9565b61219b604080516101808101909152806000815260200160008152602001600081526020016000815260200160008152602001600081526020016000815260200160008152602001600081526020016000815260200160008152602001600081525090565b6001600160a01b0385166000908152601360205260409020546121be90856138a7565b60208301819052828260038111156121d8576121d86150cd565b60038111156121e9576121e96150cd565b9052506000905081516003811115612203576122036150cd565b146122335761222a6009601c83600001516003811115612225576122256150cd565b613805565b9250505061253e565b612252846040518060200160405280666379da05b600008152506138d2565b6080820152604080516020810190915267016345785d8a000081526122789085906138d2565b6101408201819052608082015161228f90866150b6565b61229991906150b6565b6060820152306001600160a01b031663bd6d894d6040518163ffffffff1660e01b8152600401602060405180830381865afa1580156122dc573d6000803e3d6000fd5b505050506040513d601f19601f820116820180604052508101906123009190614f7d565b60c08201908152604080516020810190915290518152608082015161232591906138f5565b60a0820152604080516020810190915260c0820151815261014082015161234c91906138f5565b61016082015260a0810151600f54612364919061509e565b60e0820152610140810151608082015160125461238191906150b6565b61238b91906150b6565b6101208201526101608101516011546123a4919061509e565b6101008201526001600160a01b03861660009081526013602052604090205460608201516123d2919061390d565b60408301819052828260038111156123ec576123ec6150cd565b60038111156123fd576123fd6150cd565b9052506000905081516003811115612417576124176150cd565b146124395761222a6009601b83600001516003811115612225576122256150cd565b60e0810151600f556101208101516012556101008101516011556020808201516001600160a01b0387811660008181526013855260408082209490945583860151928b16808252908490209290925560608501519251928352909290916000805160206153dc833981519152910160405180910390a3306001600160a01b0316856001600160a01b03166000805160206153dc83398151915283608001516040516124e691815260200190565b60405180910390a360a081015160e08201516040805130815260208101939093528201527fa91e67c5ea634cd43a12c5a482724b03de01e85ca68702a53d0c2f45cb7c1dc59060600160405180910390a16000925050505b949350505050565b60008061255281611e25565b306001600160a01b031663a6afed956040518163ffffffff1660e01b81526004016020604051808303816000875af1158015612592573d6000803e3d6000fd5b505050506040513d601f19601f820116820180604052508101906125b69190614f7d565b506114533384613933565b6000806125cd81611e25565b306001600160a01b031663a6afed956040518163ffffffff1660e01b81526004016020604051808303816000875af115801561260d573d6000803e3d6000fd5b505050506040513d601f19601f820116820180604052508101906126319190614f7d565b5061145333846000612e53565b600080600061264c81611e25565b306001600160a01b031663a6afed956040518163ffffffff1660e01b81526004016020604051808303816000875af115801561268c573d6000803e3d6000fd5b505050506040513d601f19601f820116820180604052508101906126b09190614f7d565b50836001600160a01b031663a6afed956040518163ffffffff1660e01b81526004016020604051808303816000875af11580156126f1573d6000803e3d6000fd5b505050506040513d601f19601f820116820180604052508101906127159190614f7d565b5061272233878787613cc6565b9250925061272f81611f62565b50935093915050565b601654600090612752906001600160a01b03168484612b98565b805190915015610bb357808060200190518101906127709190614fcb565b82906110b85760405162461bcd60e51b81526004016102a89190614c60565b600654604051631200453160e11b81523060048201526001600160a01b03858116602483015284811660448301526064820184905260009283928392909116906324008a62906084016020604051808303816000875af11580156127f7573d6000803e3d6000fd5b505050506040513d601f19601f8201168201806040525081019061281b9190614f7d565b9050801561283c576128306003604383613805565b60009250925050612b90565b43600c541461285157612830600a6044611ee9565b61289a6040805161010081019091528060008152602001600081526020016000815260200160008152602001600081526020016000815260200160008152602001600081525090565b6001600160a01b0386166000908152601560205260409020600101546060820152306040516305eff7ef60e21b81526001600160a01b03888116600483015291909116906317bfdfbc90602401602060405180830381865afa158015612904573d6000803e3d6000fd5b505050506040513d601f19601f820116820180604052508101906129289190614f7d565b6080820152600019851415612946576080810151604082015261294e565b604081018590525b61295c8782604001516115c2565b60e082018190526080820151612971916138a7565b60a083018190526020830182600381111561298e5761298e6150cd565b600381111561299f5761299f6150cd565b90525060009050816020015160038111156129bc576129bc6150cd565b14612a2f5760405162461bcd60e51b815260206004820152603a60248201527f52455041595f424f52524f575f4e45575f4143434f554e545f424f52524f575f60448201527f42414c414e43455f43414c43554c4154494f4e5f4641494c454400000000000060648201526084016102a8565b612a3f600e548260e001516138a7565b60c0830181905260208301826003811115612a5c57612a5c6150cd565b6003811115612a6d57612a6d6150cd565b9052506000905081602001516003811115612a8a57612a8a6150cd565b14612af15760405162461bcd60e51b815260206004820152603160248201527f52455041595f424f52524f575f4e45575f544f54414c5f42414c414e43455f43604482015270105310d55310551253d397d19052531151607a1b60648201526084016102a8565b60a081810180516001600160a01b03898116600081815260156020908152604091829020948555600d5460019095019490945560c0870151600e81905560e088015195518251948f16855294840192909252820193909352606081019190915260808101919091527f1a2a22cb034d26d1854bdc6666a5b91fe25efbbb5dcad3b0355478d6f5c362a1910160405180910390a160e00151600093509150505b935093915050565b6060600080856001600160a01b031685604051612bb59190615213565b6000604051808303816000865af19150503d8060008114612bf2576040519150601f19603f3d011682016040523d82523d6000602084013e612bf7565b606091505b50915091508161178c57805115612c115780518082602001fd5b8360405162461bcd60e51b81526004016102a89190614c60565b6000805160206153bc833981519152612c4382614179565b60005b600282015460ff82161015610bb357826001600160a01b0316826002018260ff1681548110612c7757612c776151e2565b6000918252602090912001546001600160a01b03161415612d4957600282018054612ca4906001906150b6565b81548110612cb457612cb46151e2565b6000918252602090912001546002830180546001600160a01b039092169160ff8416908110612ce557612ce56151e2565b9060005260206000200160006101000a8154816001600160a01b0302191690836001600160a01b0316021790555081600201805480612d2657612d2661522f565b600082815260209020810160001990810180546001600160a01b03191690550190555b80612d5381615245565b915050612c46565b6000805160206153bc83398151915260005b600282015460ff82161015612e1357826001600160a01b0316826002018260ff1681548110612d9e57612d9e6151e2565b6000918252602090912001546001600160a01b03161415612e015760405162461bcd60e51b815260206004820152601760248201527f657874656e73696f6e20616c726561647920616464656400000000000000000060448201526064016102a8565b80612e0b81615245565b915050612d6d565b50612e1d82614406565b6002018054600181018255600091825260209091200180546001600160a01b0319166001600160a01b0392909216919091179055565b6000821580612e60575081155b612eac5760405162461bcd60e51b815260206004820152601860248201527f2172656465656d20746f6b656e73206f7220616d6f756e74000000000000000060448201526064016102a8565b612eed6040805160e0810190915280600081526020016000815260200160008152602001600081526020016000815260200160008152602001600081525090565b306001600160a01b031663bd6d894d6040518163ffffffff1660e01b8152600401602060405180830381865afa158015612f2b573d6000803e3d6000fd5b505050506040513d601f19601f82011682018060405250810190612f4f9190614f7d565b604082015283156130125761138884601254612f6b91906150b6565b1015612f775760125493505b6060810184905260408051602081018252908201518152612f9890856145f0565b6080830181905260208301826003811115612fb557612fb56150cd565b6003811115612fc657612fc66150cd565b9052506000905081602001516003811115612fe357612fe36150cd565b1461300d576130056009602c83602001516003811115612225576122256150cd565b915050610833565b613154565b60001983141561309a57600654604051630cbb414760e11b81526001600160a01b0387811660048301523060248301526000604483015290911690631976828e90606401602060405180830381865afa158015613073573d6000803e3d6000fd5b505050506040513d601f19601f820116820180604052508101906130979190614f7d565b92505b6000306001600160a01b0316634aeb3d9a6040518163ffffffff1660e01b8152600401602060405180830381865afa1580156130da573d6000803e3d6000fd5b505050506040513d601f19601f820116820180604052508101906130fe9190614f7d565b90506103e861310d85836150b6565b1015613117578093505b613125848360400151614642565b606083018190526012546103e89161313c916150b6565b101561314b5760125460608301525b50608081018390525b600654606082015160405163eabe7d9160e01b81526000926001600160a01b03169163eabe7d919161318d9130918b9190600401615100565b6020604051808303816000875af11580156131ac573d6000803e3d6000fd5b505050506040513d601f19601f820116820180604052508101906131d09190614f7d565b905080156131ee576131e56003602b83613805565b92505050610833565b43600c5414613203576131e5600a602f611ee9565b61321360125483606001516138a7565b60a0840181905260208401826003811115613230576132306150cd565b6003811115613241576132416150cd565b905250600090508260200151600381111561325e5761325e6150cd565b14613280576131e56009603184602001516003811115612225576122256150cd565b6001600160a01b03861660009081526013602052604090205460608301516132a891906138a7565b60c08401819052602084018260038111156132c5576132c56150cd565b60038111156132d6576132d66150cd565b90525060009050826020015160038111156132f3576132f36150cd565b14613315576131e56009603084602001516003811115612225576122256150cd565b8160800151613322611b37565b1015613334576131e5600e6032611ee9565b60a082015160125560c08201516001600160a01b038716600090815260136020526040902055608082015161336a9087906114b0565b306001600160a01b0316866001600160a01b03166000805160206153dc83398151915284606001516040516133a191815260200190565b60405180910390a36080820151606080840151604080516001600160a01b038b16815260208101949094528301527fe5b754fb1abb7f01b499791d0b820ae3b6af3424ac1c59768edb53f4ec31a929910160405180910390a1600654608083015160608401516040516351dff98960e01b81523060048201526001600160a01b038a81166024830152604482019390935260648101919091529116906351dff98990608401600060405180830381600087803b15801561346057600080fd5b505af1158015613474573d6000803e3d6000fd5b5060009250613481915050565b9695505050505050565b600654604051634ef4c3e160e01b8152600091829182916001600160a01b031690634ef4c3e1906134c490309089908990600401615100565b6020604051808303816000875af11580156134e3573d6000803e3d6000fd5b505050506040513d601f19601f820116820180604052508101906135079190614f7d565b905080156135285761351c6003602183613805565b600092509250506137fe565b43600c541461353d5761351c600a6024611ee9565b61357e6040805160e0810190915280600081526020016000815260200160008152602001600081526020016000815260200160008152602001600081525090565b306001600160a01b031663bd6d894d6040518163ffffffff1660e01b8152600401602060405180830381865afa1580156135bc573d6000803e3d6000fd5b505050506040513d601f19601f820116820180604052508101906135e09190614f7d565b60408201526135ef86866115c2565b60c0820181905260408051602081018252908301518152613610919061467d565b606083018190526020830182600381111561362d5761362d6150cd565b600381111561363e5761363e6150cd565b905250600090508160200151600381111561365b5761365b6150cd565b146136a85760405162461bcd60e51b815260206004820181905260248201527f4d494e545f45584348414e47455f43414c43554c4154494f4e5f4641494c454460448201526064016102a8565b60008160600151116136fc5760405162461bcd60e51b815260206004820152601a60248201527f4d494e545f5a45524f5f43544f4b454e535f52454a454354454400000000000060448201526064016102a8565b806060015160125461370e919061509e565b608082015260608101516001600160a01b03871660009081526013602052604090205461373b919061509e565b60a0820181905260808201516012556001600160a01b0387166000818152601360209081526040918290209390935560c0840151606080860151835194855294840191909152908201929092527f4c209b5fc8ad50758f13e2e1088ba56a560dff690a1c6fef26394f4c03821c4f910160405180910390a1856001600160a01b0316306001600160a01b03166000805160206153dc83398151915283606001516040516137ea91815260200190565b60405180910390a360c00151600093509150505b9250929050565b60007f45b96fe442630264581b197e84bbada861235052c5a1aadfff9ea4e40a969aa084601181111561383a5761383a6150cd565b84606181111561384c5761384c6150cd565b604080519283526020830191909152810184905260600160405180910390a1600384601181111561387f5761387f6150cd565b1461389b57836011811115613896576138966150cd565b61253e565b61253e826103e861509e565b6000808383116138c65760006138bd84866150b6565b915091506137fe565b506003905060006137fe565b6000670de0b6b3a76400006138eb84846000015161468d565b610a72919061527b565b60008061390284846146cf565b905061253e81614700565b600080838301848110613925576000925090506137fe565b6002600092509250506137fe565b60065460405163368f515360e21b815260009182916001600160a01b039091169063da3d454c9061396c90309088908890600401615100565b6020604051808303816000875af115801561398b573d6000803e3d6000fd5b505050506040513d601f19601f820116820180604052508101906139af9190614f7d565b905080156139cc576139c46003601083613805565b915050610a75565b43600c54146139e1576139c4600a600c611ee9565b60006139eb611b37565b905083811015613a0a57613a01600e600b611ee9565b92505050610a75565b613a36604080516080810190915280600081526020016000815260200160008152602001600081525090565b306040516305eff7ef60e21b81526001600160a01b03888116600483015291909116906317bfdfbc90602401602060405180830381865afa158015613a7f573d6000803e3d6000fd5b505050506040513d601f19601f82011682018060405250810190613aa39190614f7d565b60208201819052613ab4908661390d565b6040830181905282826003811115613ace57613ace6150cd565b6003811115613adf57613adf6150cd565b9052506000905081516003811115613af957613af96150cd565b14613b2557613b1b6009600e83600001516003811115612225576122256150cd565b9350505050610a75565b6006546040828101519051631de6c8a560e21b815230600482015260248101919091526001600160a01b039091169063779b229490604401602060405180830381865afa158015613b7a573d6000803e3d6000fd5b505050506040513d601f19601f82011682018060405250810190613b9e9190614f7d565b92508215613bb357613b1b6003601085613805565b613bbf600e548661390d565b6060830181905282826003811115613bd957613bd96150cd565b6003811115613bea57613bea6150cd565b9052506000905081516003811115613c0457613c046150cd565b14613c2657613b1b6009600d83600001516003811115612225576122256150cd565b6040808201516001600160a01b0388166000908152601560205291909120908155600d546001909101556060810151600e55613c6286866114b0565b60408082015160608084015183516001600160a01b038b168152602081018a9052938401929092528201527f13ed6866d4e1ee6da46f845c46d7e54120883d75c5ea9a2dacc1c4ca8984ab809060800160405180910390a160009695505050505050565b600654604051632fe3f38f60e11b81523060048201526001600160a01b03838116602483015286811660448301528581166064830152608482018590526000928392839290911690635fc7e71e9060a4016020604051808303816000875af1158015613d36573d6000803e3d6000fd5b505050506040513d601f19601f82011682018060405250810190613d5a9190614f7d565b90508015613d7b57613d6f6003601483613805565b60009250925050614170565b43600c5414613d9057613d6f600a6018611ee9565b43846001600160a01b0316636c540baf6040518163ffffffff1660e01b8152600401602060405180830381865afa158015613dcf573d6000803e3d6000fd5b505050506040513d601f19601f82011682018060405250810190613df39190614f7d565b14613e0457613d6f600a6013611ee9565b866001600160a01b0316866001600160a01b03161415613e2a57613d6f60066019611ee9565b84613e3b57613d6f60076017611ee9565b600019851415613e5157613d6f60076016611ee9565b600080613e5f89898961278f565b90925090508115613e9457613e86826011811115613e7f57613e7f6150cd565b601a611ee9565b600094509450505050614170565b60065460405163c488847b60e01b815260009182916001600160a01b039091169063c488847b90613ecd9030908c908890600401615100565b6040805180830381865afa158015613ee9573d6000803e3d6000fd5b505050506040513d601f19601f82011682018060405250810190613f0d919061528f565b90925090508115613f7c5760405162461bcd60e51b815260206004820152603360248201527f4c49515549444154455f434f4d5054524f4c4c45525f43414c43554c4154455f604482015272105353d5539517d4d152569157d19052531151606a1b60648201526084016102a8565b6040516370a0823160e01b81526001600160a01b038b811660048301528291908a16906370a0823190602401602060405180830381865afa158015613fc5573d6000803e3d6000fd5b505050506040513d601f19601f82011682018060405250810190613fe99190614f7d565b10156140375760405162461bcd60e51b815260206004820152601860248201527f4c49515549444154455f5345495a455f544f4f5f4d554348000000000000000060448201526064016102a8565b60006001600160a01b03891630141561405d57614056308d8d85612062565b90506140d3565b60405163b2a02ff160e01b81526001600160a01b038a169063b2a02ff19061408d908f908f908790600401615100565b6020604051808303816000875af11580156140ac573d6000803e3d6000fd5b505050506040513d601f19601f820116820180604052508101906140d09190614f7d565b90505b801561410a5760405162461bcd60e51b8152602060048201526006602482015265217365697a6560d01b60448201526064016102a8565b604080516001600160a01b038e811682528d811660208301528183018790528b1660608201526080810184905290517f298637f684da70674f26509b10f07ec2fbc77a335ab1e7d6215a4b2484d8bb529181900360a00190a16000975092955050505050505b94509492505050565b6000816001600160a01b03166389f8132e6040518163ffffffff1660e01b8152600401600060405180830381865afa1580156141b9573d6000803e3d6000fd5b505050506040513d6000823e601f3d908101601f191682016040526141e191908101906152b3565b90506000805160206153bc83398151915260005b82518161ffff1610156110b8576000838261ffff168151811061421a5761421a6151e2565b6020908102919091018101516001600160e01b031981166000908152918590526040909120549091506001600160a01b0386811691161461425d5761425d615350565b6001600160e01b0319811660009081526020849052604090205460018085018054600160a01b90930461ffff16929091614296916150b6565b815481106142a6576142a66151e2565b90600052602060002090600891828204019190066004029054906101000a900460e01b846001018261ffff16815481106142e2576142e26151e2565b90600052602060002090600891828204019190066004026101000a81548163ffffffff021916908360e01c021790555080846000016000866001018461ffff1681548110614332576143326151e2565b6000918252602080832060088304015460079092166004026101000a90910460e01b6001600160e01b03191683528201929092526040019020805461ffff60a01b1916600160a01b61ffff93909316929092029190911790556001840180548061439e5761439e61522f565b60008281526020808220600860001990940193840401805463ffffffff600460078716026101000a0219169055919092556001600160e01b0319909316815291849052506040902080546001600160b01b0319169055806143fe81615366565b9150506141f5565b6000816001600160a01b03166389f8132e6040518163ffffffff1660e01b8152600401600060405180830381865afa158015614446573d6000803e3d6000fd5b505050506040513d6000823e601f3d908101601f1916820160405261446e91908101906152b3565b7fc8fcad8db84d3cc18b4c41d551ea0ee66dd599cde068d998e57d5e09332c131d549091506000805160206153bc8339815191529060005b8351811015611fde5760008482815181106144c3576144c36151e2565b6020908102919091018101516001600160e01b031981166000908152918690526040909120549091506001600160a01b0316801561452f57604051632c18df3360e01b81526001600160e01b0319831660048201526001600160a01b03821660248201526044016102a8565b6040805180820182526001600160a01b03808a16825261ffff80881660208085019182526001600160e01b0319881660009081528b8252958620945185549251909316600160a01b026001600160b01b0319909216929093169190911717909155600180880180549182018155835291206008820401805460e085901c60046007909416939093026101000a92830263ffffffff9093021916919091179055836145d881615366565b945050505080806145e8906151f8565b9150506144a6565b6000806000806146008686614718565b90925090506000826003811115614619576146196150cd565b1461462a57509150600090506137fe565b600061463582614700565b9350935050509250929050565b60008161465784670de0b6b3a7640000615388565b614661919061527b565b905061466d82846153a7565b15610a7557610a7260018261509e565b6000806000806146008686614794565b6000610a7283836040518060400160405280601781526020017f6d756c7469706c69636174696f6e206f766572666c6f77000000000000000000815250614807565b60408051602081019091526000815260405180602001604052806146f785600001518561468d565b90529392505050565b8051600090610a7590670de0b6b3a76400009061527b565b60006147306040518060200160405280600081525090565b60008061474186600001518661485a565b9092509050600082600381111561475a5761475a6150cd565b14614779575060408051602081019091526000815290925090506137fe565b60408051602081019091529081526000969095509350505050565b60006147ac6040518060200160405280600081525090565b6000806147c1670de0b6b3a76400008761485a565b909250905060008260038111156147da576147da6150cd565b146147f9575060408051602081019091526000815290925090506137fe565b614635818660000151614899565b6000831580614814575082155b1561482157506000610833565b600061482d8486615388565b90508361483a868361527b565b1483906110225760405162461bcd60e51b81526004016102a89190614c60565b6000808361486d575060009050806137fe565b8383028361487b868361527b565b1461488e576002600092509250506137fe565b6000925090506137fe565b60006148b16040518060200160405280600081525090565b6000806148c686670de0b6b3a764000061485a565b909250905060008260038111156148df576148df6150cd565b146148fe575060408051602081019091526000815290925090506137fe565b60008061490b8388614964565b90925090506000826003811115614924576149246150cd565b1461494757816040518060200160405280600081525095509550505050506137fe565b604080516020810190915290815260009890975095505050505050565b6000808261497857506001905060006137fe565b6000614984848661527b565b915091509250929050565b82805461499b90614f96565b90600052602060002090601f0160209004810192826149bd5760008555614a03565b82601f106149d657805160ff1916838001178555614a03565b82800160010185558215614a03579182015b82811115614a035782518255916020019190600101906149e8565b50614a0f929150614a13565b5090565b5b80821115614a0f5760008155600101614a14565b6001600160a01b038116811461110d57600080fd5b60008060408385031215614a5057600080fd5b8235614a5b81614a28565b946020939093013593505050565b8035614a7481614a28565b919050565b634e487b7160e01b600052604160045260246000fd5b604051601f8201601f1916810167ffffffffffffffff81118282101715614ab857614ab8614a79565b604052919050565b600067ffffffffffffffff821115614ada57614ada614a79565b50601f01601f191660200190565b6000614afb614af684614ac0565b614a8f565b9050828152838383011115614b0f57600080fd5b828260208301376000602084830101529392505050565b600082601f830112614b3757600080fd5b610a7283833560208501614ae8565b600080600080600080600080610100898b031215614b6357600080fd5b8835614b6e81614a28565b97506020890135614b7e81614a28565b96506040890135614b8e81614a28565b95506060890135614b9e81614a28565b9450608089013567ffffffffffffffff80821115614bbb57600080fd5b614bc78c838d01614b26565b955060a08b0135915080821115614bdd57600080fd5b50614bea8b828c01614b26565b93505060c0890135915060e089013590509295985092959890939650565b60005b83811015614c23578181015183820152602001614c0b565b838111156110b85750506000910152565b60008151808452614c4c816020860160208601614c08565b601f01601f19169290920160200192915050565b602081526000610a726020830184614c34565b600060208284031215614c8557600080fd5b5035919050565b60ff8116811461110d57600080fd5b8035614a7481614c8c565b60008060008060008060008060006101208a8c031215614cc557600080fd5b8935614cd081614a28565b985060208a0135614ce081614a28565b9750614cee60408b01614a69565b965060608a0135955060808a013567ffffffffffffffff80821115614d1257600080fd5b614d1e8d838e01614b26565b965060a08c0135915080821115614d3457600080fd5b50614d418c828d01614b26565b945050614d5060c08b01614c9b565b925060e08a013591506101008a013590509295985092959850929598565b801515811461110d57600080fd5b60008060008060608587031215614d9257600080fd5b8435614d9d81614a28565b93506020850135614dad81614d6e565b9250604085013567ffffffffffffffff80821115614dca57600080fd5b818701915087601f830112614dde57600080fd5b813581811115614ded57600080fd5b886020828501011115614dff57600080fd5b95989497505060200194505050565b600060208284031215614e2057600080fd5b813567ffffffffffffffff811115614e3757600080fd5b8201601f81018413614e4857600080fd5b61253e84823560208401614ae8565b6020808252825182820181905260009190848201906040850190845b81811015614e985783516001600160a01b031683529284019291840191600101614e73565b50909695505050505050565b60008060408385031215614eb757600080fd5b8235614ec281614a28565b91506020830135614ed281614a28565b809150509250929050565b600080600060608486031215614ef257600080fd5b8335614efd81614a28565b92506020840135614f0d81614a28565b929592945050506040919091013590565b600080600060608486031215614f3357600080fd5b8335614f3e81614a28565b9250602084013591506040840135614f5581614a28565b809150509250925092565b600060208284031215614f7257600080fd5b815161083381614c8c565b600060208284031215614f8f57600080fd5b5051919050565b600181811c90821680614faa57607f821691505b6020821081141561130157634e487b7160e01b600052602260045260246000fd5b600060208284031215614fdd57600080fd5b815161083381614d6e565b600080600060608486031215614ffd57600080fd5b835161500881614a28565b602085015190935061501981614d6e565b604085015190925067ffffffffffffffff81111561503657600080fd5b8401601f8101861361504757600080fd5b8051615055614af682614ac0565b81815287602083850101111561506a57600080fd5b61507b826020830160208601614c08565b8093505050509250925092565b634e487b7160e01b600052601160045260246000fd5b600082198211156150b1576150b1615088565b500190565b6000828210156150c8576150c8615088565b500390565b634e487b7160e01b600052602160045260246000fd5b6000602082840312156150f557600080fd5b815161083381614a28565b6001600160a01b039384168152919092166020820152604081019190915260600190565b600067ffffffffffffffff82111561513e5761513e614a79565b5060051b60200190565b6000602080838503121561515b57600080fd5b825167ffffffffffffffff81111561517257600080fd5b8301601f8101851361518357600080fd5b8051615191614af682615124565b81815260059190911b820183019083810190878311156151b057600080fd5b928401925b828410156151d75783516151c881614a28565b825292840192908401906151b5565b979650505050505050565b634e487b7160e01b600052603260045260246000fd5b600060001982141561520c5761520c615088565b5060010190565b60008251615225818460208701614c08565b9190910192915050565b634e487b7160e01b600052603160045260246000fd5b600060ff821660ff81141561525c5761525c615088565b60010192915050565b634e487b7160e01b600052601260045260246000fd5b60008261528a5761528a615265565b500490565b600080604083850312156152a257600080fd5b505080516020909101519092909150565b600060208083850312156152c657600080fd5b825167ffffffffffffffff8111156152dd57600080fd5b8301601f810185136152ee57600080fd5b80516152fc614af682615124565b81815260059190911b8201830190838101908783111561531b57600080fd5b928401925b828410156151d75783516001600160e01b0319811681146153415760008081fd5b82529284019290840190615320565b634e487b7160e01b600052600160045260246000fd5b600061ffff8083168181141561537e5761537e615088565b6001019392505050565b60008160001904831182151516156153a2576153a2615088565b500290565b6000826153b6576153b6615265565b50069056fec8fcad8db84d3cc18b4c41d551ea0ee66dd599cde068d998e57d5e09332c131cddf252ad1be2c89b69c2b068fc378daa952ba7f163c4a11628f55a4df523b3efa164736f6c634300080a000a",
    "linkReferences": {}
  },
  "methodIdentifiers": {
    "_becomeImplementation(bytes)": "56e67728",
    "_listExtensions()": "6333d001",
    "_prepare()": "1db78944",
    "_registerExtension(address,address)": "89cd9855",
    "_setImplementationSafe(address,bool,bytes)": "50d85b73",
    "_withdrawAdminFees(uint256)": "a7b820df",
    "_withdrawFuseFees(uint256)": "a03dce8d",
    "accrualBlockNumber()": "6c540baf",
    "adminFeeMantissa()": "8d02d9a1",
    "borrow(uint256)": "c5ebeaec",
    "borrowIndex()": "aa5af0fd",
    "comptroller()": "5fe3b567",
    "contractType()": "cb2ef6f7",
    "decimals()": "313ce567",
    "feeSeizeShareMantissa()": "be99f119",
    "fuseAdmin()": "15761d51",
    "fuseFeeMantissa()": "dbfe7c19",
    "getCash()": "3b1d21a2",
    "implementation()": "5c60da1b",
    "initialize(address,address,address,address,string,string,uint256,uint256)": "06db3ecd",
    "initialize(address,address,address,uint256,string,string,uint8,uint256,uint256)": "219ef65c",
    "interestRateModel()": "f3fdb15a",
    "isCEther()": "ac784ddc",
    "liquidateBorrow(address,uint256,address)": "f5e3c462",
    "mint(uint256)": "a0712d68",
    "name()": "06fdde03",
    "protocolSeizeShareMantissa()": "6752e702",
    "redeem(uint256)": "db006a75",
    "redeemUnderlying(uint256)": "852a12e3",
    "repayBorrow(uint256)": "0e752702",
    "repayBorrowBehalf(address,uint256)": "2608f818",
    "reserveFactorMantissa()": "173b9904",
    "seize(address,address,uint256)": "b2a02ff1",
    "selfTransferIn(address,uint256)": "135f1334",
    "selfTransferOut(address,uint256)": "067db1b3",
    "symbol()": "95d89b41",
    "totalAdminFees()": "61feacff",
    "totalBorrows()": "47bd3718",
    "totalFuseFees()": "dc028ab1",
    "totalReserves()": "8f840ddd",
    "totalSupply()": "18160ddd",
    "underlying()": "6f307dc3"
  }
}