{
  "address": "0x72C0838314D806b46Fa3366D109106C4d6dCD45c",
  "abi": [
    {
      "anonymous": false,
      "inputs": [
        {
          "indexed": false,
          "internalType": "uint256",
          "name": "cashPrior",
          "type": "uint256"
        },
        {
          "indexed": false,
          "internalType": "uint256",
          "name": "interestAccumulated",
          "type": "uint256"
        },
        {
          "indexed": false,
          "internalType": "uint256",
          "name": "borrowIndex",
          "type": "uint256"
        },
        {
          "indexed": false,
          "internalType": "uint256",
          "name": "totalBorrows",
          "type": "uint256"
        }
      ],
      "name": "AccrueInterest",
      "type": "event"
    },
    {
      "anonymous": false,
      "inputs": [
        {
          "indexed": true,
          "internalType": "address",
          "name": "owner",
          "type": "address"
        },
        {
          "indexed": true,
          "internalType": "address",
          "name": "spender",
          "type": "address"
        },
        {
          "indexed": false,
          "internalType": "uint256",
          "name": "amount",
          "type": "uint256"
        }
      ],
      "name": "Approval",
      "type": "event"
    },
    {
      "anonymous": false,
      "inputs": [
        {
          "indexed": false,
          "internalType": "uint256",
          "name": "error",
          "type": "uint256"
        },
        {
          "indexed": false,
          "internalType": "uint256",
          "name": "info",
          "type": "uint256"
        },
        {
          "indexed": false,
          "internalType": "uint256",
          "name": "detail",
          "type": "uint256"
        }
      ],
      "name": "Failure",
      "type": "event"
    },
    {
      "anonymous": false,
      "inputs": [
        {
          "indexed": false,
          "internalType": "uint256",
          "name": "oldAdminFeeMantissa",
          "type": "uint256"
        },
        {
          "indexed": false,
          "internalType": "uint256",
          "name": "newAdminFeeMantissa",
          "type": "uint256"
        }
      ],
      "name": "NewAdminFee",
      "type": "event"
    },
    {
      "anonymous": false,
      "inputs": [
        {
          "indexed": false,
          "internalType": "uint256",
          "name": "oldFuseFeeMantissa",
          "type": "uint256"
        },
        {
          "indexed": false,
          "internalType": "uint256",
          "name": "newFuseFeeMantissa",
          "type": "uint256"
        }
      ],
      "name": "NewFuseFee",
      "type": "event"
    },
    {
      "anonymous": false,
      "inputs": [
        {
          "indexed": false,
          "internalType": "contract InterestRateModel",
          "name": "oldInterestRateModel",
          "type": "address"
        },
        {
          "indexed": false,
          "internalType": "contract InterestRateModel",
          "name": "newInterestRateModel",
          "type": "address"
        }
      ],
      "name": "NewMarketInterestRateModel",
      "type": "event"
    },
    {
      "anonymous": false,
      "inputs": [
        {
          "indexed": false,
          "internalType": "uint256",
          "name": "oldReserveFactorMantissa",
          "type": "uint256"
        },
        {
          "indexed": false,
          "internalType": "uint256",
          "name": "newReserveFactorMantissa",
          "type": "uint256"
        }
      ],
      "name": "NewReserveFactor",
      "type": "event"
    },
    {
      "anonymous": false,
      "inputs": [
        {
          "indexed": true,
          "internalType": "address",
          "name": "from",
          "type": "address"
        },
        {
          "indexed": true,
          "internalType": "address",
          "name": "to",
          "type": "address"
        },
        {
          "indexed": false,
          "internalType": "uint256",
          "name": "amount",
          "type": "uint256"
        }
      ],
      "name": "Transfer",
      "type": "event"
    },
    {
      "inputs": [],
      "name": "_getExtensionFunctions",
      "outputs": [
        {
          "internalType": "bytes4[]",
          "name": "",
          "type": "bytes4[]"
        }
      ],
      "stateMutability": "pure",
      "type": "function"
    },
    {
      "inputs": [
        {
          "internalType": "uint256",
          "name": "newAdminFeeMantissa",
          "type": "uint256"
        }
      ],
      "name": "_setAdminFee",
      "outputs": [
        {
          "internalType": "uint256",
          "name": "",
          "type": "uint256"
        }
      ],
      "stateMutability": "nonpayable",
      "type": "function"
    },
    {
      "inputs": [
        {
          "internalType": "contract InterestRateModel",
          "name": "newInterestRateModel",
          "type": "address"
        }
      ],
      "name": "_setInterestRateModel",
      "outputs": [
        {
          "internalType": "uint256",
          "name": "",
          "type": "uint256"
        }
      ],
      "stateMutability": "nonpayable",
      "type": "function"
    },
    {
      "inputs": [
        {
          "internalType": "string",
          "name": "_name",
          "type": "string"
        },
        {
          "internalType": "string",
          "name": "_symbol",
          "type": "string"
        }
      ],
      "name": "_setNameAndSymbol",
      "outputs": [],
      "stateMutability": "nonpayable",
      "type": "function"
    },
    {
      "inputs": [
        {
          "internalType": "uint256",
          "name": "newReserveFactorMantissa",
          "type": "uint256"
        }
      ],
      "name": "_setReserveFactor",
      "outputs": [
        {
          "internalType": "uint256",
          "name": "",
          "type": "uint256"
        }
      ],
      "stateMutability": "nonpayable",
      "type": "function"
    },
    {
      "inputs": [],
      "name": "accrualBlockNumber",
      "outputs": [
        {
          "internalType": "uint256",
          "name": "",
          "type": "uint256"
        }
      ],
      "stateMutability": "view",
      "type": "function"
    },
    {
      "inputs": [],
      "name": "accrueInterest",
      "outputs": [
        {
          "internalType": "uint256",
          "name": "",
          "type": "uint256"
        }
      ],
      "stateMutability": "nonpayable",
      "type": "function"
    },
    {
      "inputs": [],
      "name": "adminFeeMantissa",
      "outputs": [
        {
          "internalType": "uint256",
          "name": "",
          "type": "uint256"
        }
      ],
      "stateMutability": "view",
      "type": "function"
    },
    {
      "inputs": [
        {
          "internalType": "address",
          "name": "owner",
          "type": "address"
        },
        {
          "internalType": "address",
          "name": "spender",
          "type": "address"
        }
      ],
      "name": "allowance",
      "outputs": [
        {
          "internalType": "uint256",
          "name": "",
          "type": "uint256"
        }
      ],
      "stateMutability": "view",
      "type": "function"
    },
    {
      "inputs": [
        {
          "internalType": "address",
          "name": "spender",
          "type": "address"
        },
        {
          "internalType": "uint256",
          "name": "amount",
          "type": "uint256"
        }
      ],
      "name": "approve",
      "outputs": [
        {
          "internalType": "bool",
          "name": "",
          "type": "bool"
        }
      ],
      "stateMutability": "nonpayable",
      "type": "function"
    },
    {
      "inputs": [
        {
          "internalType": "address",
          "name": "owner",
          "type": "address"
        }
      ],
      "name": "balanceOf",
      "outputs": [
        {
          "internalType": "uint256",
          "name": "",
          "type": "uint256"
        }
      ],
      "stateMutability": "view",
      "type": "function"
    },
    {
      "inputs": [
        {
          "internalType": "address",
          "name": "owner",
          "type": "address"
        }
      ],
      "name": "balanceOfUnderlying",
      "outputs": [
        {
          "internalType": "uint256",
          "name": "",
          "type": "uint256"
        }
      ],
      "stateMutability": "nonpayable",
      "type": "function"
    },
    {
      "inputs": [
        {
          "internalType": "address",
          "name": "owner",
          "type": "address"
        }
      ],
      "name": "balanceOfUnderlyingHypo",
      "outputs": [
        {
          "internalType": "uint256",
          "name": "",
          "type": "uint256"
        }
      ],
      "stateMutability": "view",
      "type": "function"
    },
    {
      "inputs": [],
      "name": "borrowIndex",
      "outputs": [
        {
          "internalType": "uint256",
          "name": "",
          "type": "uint256"
        }
      ],
      "stateMutability": "view",
      "type": "function"
    },
    {
      "inputs": [],
      "name": "borrowRatePerBlock",
      "outputs": [
        {
          "internalType": "uint256",
          "name": "",
          "type": "uint256"
        }
      ],
      "stateMutability": "view",
      "type": "function"
    },
    {
      "inputs": [],
      "name": "comptroller",
      "outputs": [
        {
          "internalType": "contract ComptrollerInterface",
          "name": "",
          "type": "address"
        }
      ],
      "stateMutability": "view",
      "type": "function"
    },
    {
      "inputs": [],
      "name": "decimals",
      "outputs": [
        {
          "internalType": "uint8",
          "name": "",
          "type": "uint8"
        }
      ],
      "stateMutability": "view",
      "type": "function"
    },
    {
      "inputs": [],
      "name": "exchangeRateCurrent",
      "outputs": [
        {
          "internalType": "uint256",
          "name": "",
          "type": "uint256"
        }
      ],
      "stateMutability": "nonpayable",
      "type": "function"
    },
    {
      "inputs": [],
      "name": "exchangeRateHypothetical",
      "outputs": [
        {
          "internalType": "uint256",
          "name": "",
          "type": "uint256"
        }
      ],
      "stateMutability": "view",
      "type": "function"
    },
    {
      "inputs": [],
      "name": "exchangeRateStored",
      "outputs": [
        {
          "internalType": "uint256",
          "name": "",
          "type": "uint256"
        }
      ],
      "stateMutability": "view",
      "type": "function"
    },
    {
      "inputs": [],
      "name": "feeSeizeShareMantissa",
      "outputs": [
        {
          "internalType": "uint256",
          "name": "",
          "type": "uint256"
        }
      ],
      "stateMutability": "view",
      "type": "function"
    },
    {
      "inputs": [],
      "name": "fuseAdmin",
      "outputs": [
        {
          "internalType": "address payable",
          "name": "",
          "type": "address"
        }
      ],
      "stateMutability": "view",
      "type": "function"
    },
    {
      "inputs": [],
      "name": "fuseFeeMantissa",
      "outputs": [
        {
          "internalType": "uint256",
          "name": "",
          "type": "uint256"
        }
      ],
      "stateMutability": "view",
      "type": "function"
    },
    {
      "inputs": [],
      "name": "getTotalUnderlyingSupplied",
      "outputs": [
        {
          "internalType": "uint256",
          "name": "",
          "type": "uint256"
        }
      ],
      "stateMutability": "view",
      "type": "function"
    },
    {
      "inputs": [],
      "name": "implementation",
      "outputs": [
        {
          "internalType": "address",
          "name": "",
          "type": "address"
        }
      ],
      "stateMutability": "view",
      "type": "function"
    },
    {
      "inputs": [],
      "name": "interestRateModel",
      "outputs": [
        {
          "internalType": "contract InterestRateModel",
          "name": "",
          "type": "address"
        }
      ],
      "stateMutability": "view",
      "type": "function"
    },
    {
      "inputs": [
        {
          "internalType": "bytes[]",
          "name": "data",
          "type": "bytes[]"
        }
      ],
      "name": "multicall",
      "outputs": [
        {
          "internalType": "bytes[]",
          "name": "results",
          "type": "bytes[]"
        }
      ],
      "stateMutability": "payable",
      "type": "function"
    },
    {
      "inputs": [],
      "name": "name",
      "outputs": [
        {
          "internalType": "string",
          "name": "",
          "type": "string"
        }
      ],
      "stateMutability": "view",
      "type": "function"
    },
    {
      "inputs": [],
      "name": "protocolSeizeShareMantissa",
      "outputs": [
        {
          "internalType": "uint256",
          "name": "",
          "type": "uint256"
        }
      ],
      "stateMutability": "view",
      "type": "function"
    },
    {
      "inputs": [],
      "name": "reserveFactorMantissa",
      "outputs": [
        {
          "internalType": "uint256",
          "name": "",
          "type": "uint256"
        }
      ],
      "stateMutability": "view",
      "type": "function"
    },
    {
      "inputs": [],
      "name": "supplyRatePerBlock",
      "outputs": [
        {
          "internalType": "uint256",
          "name": "",
          "type": "uint256"
        }
      ],
      "stateMutability": "view",
      "type": "function"
    },
    {
      "inputs": [
        {
          "internalType": "uint256",
          "name": "mintAmount",
          "type": "uint256"
        }
      ],
      "name": "supplyRatePerBlockAfterDeposit",
      "outputs": [
        {
          "internalType": "uint256",
          "name": "",
          "type": "uint256"
        }
      ],
      "stateMutability": "view",
      "type": "function"
    },
    {
      "inputs": [
        {
          "internalType": "uint256",
          "name": "withdrawAmount",
          "type": "uint256"
        }
      ],
      "name": "supplyRatePerBlockAfterWithdraw",
      "outputs": [
        {
          "internalType": "uint256",
          "name": "",
          "type": "uint256"
        }
      ],
      "stateMutability": "view",
      "type": "function"
    },
    {
      "inputs": [],
      "name": "symbol",
      "outputs": [
        {
          "internalType": "string",
          "name": "",
          "type": "string"
        }
      ],
      "stateMutability": "view",
      "type": "function"
    },
    {
      "inputs": [],
      "name": "totalAdminFees",
      "outputs": [
        {
          "internalType": "uint256",
          "name": "",
          "type": "uint256"
        }
      ],
      "stateMutability": "view",
      "type": "function"
    },
    {
      "inputs": [],
      "name": "totalBorrows",
      "outputs": [
        {
          "internalType": "uint256",
          "name": "",
          "type": "uint256"
        }
      ],
      "stateMutability": "view",
      "type": "function"
    },
    {
      "inputs": [],
      "name": "totalBorrowsCurrent",
      "outputs": [
        {
          "internalType": "uint256",
          "name": "",
          "type": "uint256"
        }
      ],
      "stateMutability": "nonpayable",
      "type": "function"
    },
    {
      "inputs": [],
      "name": "totalFuseFees",
      "outputs": [
        {
          "internalType": "uint256",
          "name": "",
          "type": "uint256"
        }
      ],
      "stateMutability": "view",
      "type": "function"
    },
    {
      "inputs": [],
      "name": "totalReserves",
      "outputs": [
        {
          "internalType": "uint256",
          "name": "",
          "type": "uint256"
        }
      ],
      "stateMutability": "view",
      "type": "function"
    },
    {
      "inputs": [],
      "name": "totalSupply",
      "outputs": [
        {
          "internalType": "uint256",
          "name": "",
          "type": "uint256"
        }
      ],
      "stateMutability": "view",
      "type": "function"
    },
    {
      "inputs": [
        {
          "internalType": "address",
          "name": "dst",
          "type": "address"
        },
        {
          "internalType": "uint256",
          "name": "amount",
          "type": "uint256"
        }
      ],
      "name": "transfer",
      "outputs": [
        {
          "internalType": "bool",
          "name": "",
          "type": "bool"
        }
      ],
      "stateMutability": "nonpayable",
      "type": "function"
    },
    {
      "inputs": [
        {
          "internalType": "address",
          "name": "src",
          "type": "address"
        },
        {
          "internalType": "address",
          "name": "dst",
          "type": "address"
        },
        {
          "internalType": "uint256",
          "name": "amount",
          "type": "uint256"
        }
      ],
      "name": "transferFrom",
      "outputs": [
        {
          "internalType": "bool",
          "name": "",
          "type": "bool"
        }
      ],
      "stateMutability": "nonpayable",
      "type": "function"
    }
  ],
  "transactionHash": "0x14e99d44a6ebd61d83bcea2c16591ed3c40da8bf3286f59048b5c094796c6168",
  "args": [],
  "numDeployments": 8,
  "bytecode": {
    "object": "0x608060405234801561001057600080fd5b5061316a806100206000396000f3fe6080604052600436106102515760003560e01c806389f8132e11610139578063b1e23dbb116100b6578063dd62ed3e1161007a578063dd62ed3e14610678578063f2b3abbd146106be578063f3b13153146106de578063f3fdb15a146106fe578063f8f9da281461071e578063fca7820b1461073357600080fd5b8063b1e23dbb146105fb578063bd6d894d1461061b578063be99f11914610630578063dbfe7c191461064c578063dc028ab11461066257600080fd5b8063a6afed95116100fd578063a6afed951461057b578063a9059cbb14610590578063aa5af0fd146105b0578063ac9650d8146105c6578063ae9d70b0146105e657600080fd5b806389f8132e146104f85780638d02d9a11461051a5780638f840ddd1461053057806391dd36c61461054657806395d89b411461056657600080fd5b80633648b399116101d25780635fe3b567116101965780635fe3b5671461044657806361feacff146104665780636752e7021461047c5780636c540baf1461049757806370a08231146104ad57806373acee98146104e357600080fd5b80633648b399146103c65780633af9e669146103db57806347bd3718146103fb5780634aeb3d9a146104115780635c60da1b1461042657600080fd5b8063182df0f511610219578063182df0f51461032357806323b872dd14610338578063313ce5671461035857806334154d4c1461038457806335daea64146103a657600080fd5b806306fdde0314610256578063095ea7b31461028157806315761d51146102b1578063173b9904146102e957806318160ddd1461030d575b600080fd5b34801561026257600080fd5b5061026b610753565b6040516102789190612bd7565b60405180910390f35b34801561028d57600080fd5b506102a161029c366004612bff565b6107e1565b6040519015158152602001610278565b3480156102bd57600080fd5b506001546102d1906001600160a01b031681565b6040516001600160a01b039091168152602001610278565b3480156102f557600080fd5b506102ff600b5481565b604051908152602001610278565b34801561031957600080fd5b506102ff60125481565b34801561032f57600080fd5b506102ff61084f565b34801561034457600080fd5b506102a1610353366004612c2b565b6108d8565b34801561036457600080fd5b506005546103729060ff1681565b60405160ff9091168152602001610278565b34801561039057600080fd5b506103a461039f366004612cae565b610906565b005b3480156103b257600080fd5b506102ff6103c1366004612d1a565b610968565b3480156103d257600080fd5b506102ff610a9e565b3480156103e757600080fd5b506102ff6103f6366004612d33565b610b5b565b34801561040757600080fd5b506102ff600e5481565b34801561041d57600080fd5b506102ff610c1d565b34801561043257600080fd5b506000546102d1906001600160a01b031681565b34801561045257600080fd5b506006546102d1906001600160a01b031681565b34801561047257600080fd5b506102ff60105481565b34801561048857600080fd5b506102ff666379da05b6000081565b3480156104a357600080fd5b506102ff600c5481565b3480156104b957600080fd5b506102ff6104c8366004612d33565b6001600160a01b031660009081526013602052604090205490565b3480156104ef57600080fd5b506102ff610cb5565b34801561050457600080fd5b5061050d610ce4565b6040516102789190612d50565b34801561052657600080fd5b506102ff60095481565b34801561053c57600080fd5b506102ff600f5481565b34801561055257600080fd5b506102ff610561366004612d1a565b6112f5565b34801561057257600080fd5b5061026b6114d0565b34801561058757600080fd5b506102ff6114dd565b34801561059c57600080fd5b506102a16105ab366004612bff565b6115ee565b3480156105bc57600080fd5b506102ff600d5481565b6105d96105d4366004612d9e565b61161b565b6040516102789190612e13565b3480156105f257600080fd5b506102ff61176c565b34801561060757600080fd5b506102ff610616366004612d1a565b611892565b34801561062757600080fd5b506102ff611913565b34801561063c57600080fd5b506102ff67016345785d8a000081565b34801561065857600080fd5b506102ff600a5481565b34801561066e57600080fd5b506102ff60115481565b34801561068457600080fd5b506102ff610693366004612e75565b6001600160a01b03918216600090815260146020908152604080832093909416825291909152205490565b3480156106ca57600080fd5b506102ff6106d9366004612d33565b611943565b3480156106ea57600080fd5b506102ff6106f9366004612d33565b611aa7565b34801561070a57600080fd5b506007546102d1906001600160a01b031681565b34801561072a57600080fd5b506102ff611abd565b34801561073f57600080fd5b506102ff61074e366004612d1a565b611b84565b6003805461076090612eae565b80601f016020809104026020016040519081016040528092919081815260200182805461078c90612eae565b80156107d95780601f106107ae576101008083540402835291602001916107d9565b820191906000526020600020905b8154815290600101906020018083116107bc57829003601f168201915b505050505081565b3360008181526014602090815260408083206001600160a01b03871680855292528083208590555191929182907f8c5be1e5ebec7d5bd14f71427d1e84f3dd0314c0f7b2291e5b200ac8c7c3b9259061083d9087815260200190565b60405180910390a35060019392505050565b60006108d36012546008546108613090565b6001600160a01b0316633b1d21a26040518163ffffffff1660e01b8152600401602060405180830381865afa15801561089e573d6000803e3d6000fd5b505050506040513d601f19601f820116820180604052508101906108c29190612ee3565b600e54600f54601054601154611c5f565b905090565b6000806108e481611d9e565b60006108f233878787611e62565b1491506108fe81612112565b509392505050565b61090e612191565b6109485760405162461bcd60e51b815260206004820152600660248201526510b0b236b4b760d11b60448201526064015b60405180910390fd5b61095460038585612aeb565b5061096160048383612aeb565b5050505050565b6007546000906001600160a01b031663b816881683306001600160a01b0316633b1d21a26040518163ffffffff1660e01b8152600401602060405180830381865afa1580156109bb573d6000803e3d6000fd5b505050506040513d601f19601f820116820180604052508101906109df9190612ee3565b6109e99190612f28565b600e54601154601054600f546109ff9190612f3f565b610a099190612f3f565b600954600a54600b54610a1c9190612f3f565b610a269190612f3f565b6040516001600160e01b031960e087901b1681526004810194909452602484019290925260448301526064820152608401602060405180830381865afa158015610a74573d6000803e3d6000fd5b505050506040513d601f19601f82011682018060405250810190610a989190612ee3565b92915050565b600080306001600160a01b0316633b1d21a26040518163ffffffff1660e01b8152600401602060405180830381865afa158015610adf573d6000803e3d6000fd5b505050506040513d601f19601f82011682018060405250810190610b039190612ee3565b9050600c54431415610b1d57610b1761084f565b91505090565b6000610b2943836122fc565b9050610b50816040015160085484846060015185608001518660c001518760a00151611c5f565b9250505090565b5090565b600080610b666114dd565b14610b835760405162461bcd60e51b815260040161093f90612f57565b60006040518060200160405280610b9861084f565b90526001600160a01b038416600090815260136020526040812054919250908190610bc4908490612591565b90925090506000826003811115610bdd57610bdd612efc565b14610c155760405162461bcd60e51b81526020600482015260086024820152672162616c616e636560c01b604482015260640161093f565b949350505050565b6000601054601154600f54610c329190612f3f565b610c3c9190612f3f565b600e54306001600160a01b0316633b1d21a26040518163ffffffff1660e01b8152600401602060405180830381865afa158015610c7d573d6000803e3d6000fd5b505050506040513d601f19601f82011682018060405250810190610ca19190612ee3565b610cab9190612f3f565b6108d39190612f28565b600080610cc06114dd565b14610cdd5760405162461bcd60e51b815260040161093f90612f57565b50600e5490565b6040805160168082526102e082019092526060919060009082602082016102c08036833701905050905063a9059cbb60e01b81610d2084612f96565b93508360ff1681518110610d3657610d36612fb3565b6001600160e01b0319909216602092830291909101909101526323b872dd60e01b81610d6184612f96565b93508360ff1681518110610d7757610d77612fb3565b6001600160e01b031990921660209283029190910190910152636eb1769f60e11b81610da284612f96565b93508360ff1681518110610db857610db8612fb3565b6001600160e01b03199092166020928302919091019091015263095ea7b360e01b81610de384612f96565b93508360ff1681518110610df957610df9612fb3565b6001600160e01b0319909216602092830291909101909101526370a0823160e01b81610e2484612f96565b93508360ff1681518110610e3a57610e3a612fb3565b6001600160e01b0319909216602092830291909101909101526348ee9b6360e11b81610e6584612f96565b93508360ff1681518110610e7b57610e7b612fb3565b6001600160e01b03199092166020928302919091019091015263f2b3abbd60e01b81610ea684612f96565b93508360ff1681518110610ebc57610ebc612fb3565b6001600160e01b031990921660209283029190910190910152630d05535360e21b81610ee784612f96565b93508360ff1681518110610efd57610efd612fb3565b6001600160e01b03199092166020928302919091019091015263fca7820b60e01b81610f2884612f96565b93508360ff1681518110610f3e57610f3e612fb3565b6001600160e01b031990921660209283029190910190910152630ae9d70b60e41b81610f6984612f96565b93508360ff1681518110610f7f57610f7f612fb3565b6001600160e01b031990921660209283029190910190910152631f1f3b4560e31b81610faa84612f96565b93508360ff1681518110610fc057610fc0612fb3565b6001600160e01b03199092166020928302919091019091015263182df0f560e01b81610feb84612f96565b93508360ff168151811061100157611001612fb3565b6001600160e01b03199092166020928302919091019091015263bd6d894d60e01b8161102c84612f96565b93508360ff168151811061104257611042612fb3565b6001600160e01b03199092166020928302919091019091015263a6afed9560e01b8161106d84612f96565b93508360ff168151811061108357611083612fb3565b6001600160e01b031990921660209283029190910190910152630e759dd360e31b816110ae84612f96565b93508360ff16815181106110c4576110c4612fb3565b6001600160e01b031990921660209283029190910190910152633af9e66960e01b816110ef84612f96565b93508360ff168151811061110557611105612fb3565b6001600160e01b03199092166020928302919091019091015263f3b1315360e01b8161113084612f96565b93508360ff168151811061114657611146612fb3565b6001600160e01b031990921660209283029190910190910152631592ca1b60e31b8161117184612f96565b93508360ff168151811061118757611187612fb3565b6001600160e01b031990921660209283029190910190910152633648b39960e01b816111b284612f96565b93508360ff16815181106111c8576111c8612fb3565b6001600160e01b03199092166020928302919091019091015263b1e23dbb60e01b816111f384612f96565b93508360ff168151811061120957611209612fb3565b6001600160e01b031990921660209283029190910190910152630d76ba9960e21b8161123484612f96565b93508360ff168151811061124a5761124a612fb3565b6001600160e01b0319909216602092830291909101909101526325759ecd60e11b8161127584612f96565b93508360ff168151811061128b5761128b612fb3565b6001600160e01b03199092166020928302919091019091015260ff821615610a985760405162461bcd60e51b815260206004820152601c60248201527f7573652074686520636f7272656374206172726179206c656e67746800000000604482015260640161093f565b60008061130181611d9e565b600061130b6114dd565b905080156113375761132f81601181111561132857611328612efc565b60506125e4565b9250506114c1565b43600c541461134c5761132f600a60526125e4565b60001984141561135c5760095493505b6001546040805163dd86fea160e01b815290516000926001600160a01b03169163dd86fea19160048083019260209291908290030181865afa1580156113a6573d6000803e3d6000fd5b505050506040513d601f19601f820116820180604052508101906113ca9190612ee3565b9050670de0b6b3a76400008186600b546113e49190612f3f565b6113ee9190612f3f565b111561140957611400600260536125e4565b935050506114c1565b846009541461146d5761141a612191565b61142a57611400600160516125e4565b600980549086905560408051828152602081018890527fcdd0b588250e1398549f79cfdb8217c186688822905d6715b0834ea1c865594a910160405180910390a1505b80600a54146114b957600a80549082905560408051828152602081018490527f92eef861b6533b7d3417f39c2ad7b460eed4e88a32fa3604f30e718b7602e7dc910160405180910390a1505b60005b935050505b6114ca81612112565b50919050565b6004805461076090612eae565b600c5460009043908114156114f3576000610b17565b6000306001600160a01b0316633b1d21a26040518163ffffffff1660e01b8152600401602060405180830381865afa158015611533573d6000803e3d6000fd5b505050506040513d601f19601f820116820180604052508101906115579190612ee3565b9050600061156583836122fc565b600c849055602081810151600d819055606080840151600e819055608080860151600f5560a086015160115560c086015160105560e0860151604080518a815296870191909152850193909352908301529192507f4dec04e750ca11537cabcd8a9eab06494de08da3735bc8871cd41250e190bc04910160405180910390a16000935050505090565b6000806115fa81611d9e565b600061160833338787611e62565b14915061161481612112565b5092915050565b60608167ffffffffffffffff81111561163657611636612f80565b60405190808252806020026020018201604052801561166957816020015b60608152602001906001900390816116545790505b50905060005b82811015611614576000803086868581811061168d5761168d612fb3565b905060200281019061169f9190612fc9565b6040516116ad929190613010565b600060405180830381855af49150503d80600081146116e8576040519150601f19603f3d011682016040523d82523d6000602084013e6116ed565b606091505b5091509150816117395760448151101561170657600080fd5b600481019050808060200190518101906117209190613020565b60405162461bcd60e51b815260040161093f9190612bd7565b8084848151811061174c5761174c612fb3565b602002602001018190525050508080611764906130c2565b91505061166f565b6007546000906001600160a01b031663b8168816306001600160a01b0316633b1d21a26040518163ffffffff1660e01b8152600401602060405180830381865afa1580156117be573d6000803e3d6000fd5b505050506040513d601f19601f820116820180604052508101906117e29190612ee3565b600e54601154601054600f546117f89190612f3f565b6118029190612f3f565b600954600a54600b546118159190612f3f565b61181f9190612f3f565b6040516001600160e01b031960e087901b16815260048101949094526024840192909252604483015260648201526084015b602060405180830381865afa15801561186e573d6000803e3d6000fd5b505050506040513d601f19601f820116820180604052508101906108d39190612ee3565b6007546000906001600160a01b031663b816881683306001600160a01b0316633b1d21a26040518163ffffffff1660e01b8152600401602060405180830381865afa1580156118e5573d6000803e3d6000fd5b505050506040513d601f19601f820116820180604052508101906119099190612ee3565b6109e99190612f3f565b60008061191e6114dd565b1461193b5760405162461bcd60e51b815260040161093f90612f57565b6108d361084f565b60008061194f81611d9e565b60006119596114dd565b9050801561197d5761132f81601181111561197657611976612efc565b604b6125e4565b611985612191565b6119955761132f6001604d6125e4565b43600c54146119aa5761132f600a604c6125e4565b836001600160a01b0316632191f92a6040518163ffffffff1660e01b8152600401602060405180830381865afa1580156119e8573d6000803e3d6000fd5b505050506040513d601f19601f82011682018060405250810190611a0c91906130dd565b611a425760405162461bcd60e51b8152602060048201526007602482015266216e6f7449726d60c81b604482015260640161093f565b600780546001600160a01b038681166001600160a01b031983168117909355604080519190921680825260208201939093527fedffc32e068c7c95dfd4bdfd5c4d939a084d6b11c4199eac8436ed234d72f92691015b60405180910390a160006114bc565b6000806040518060200160405280610b98610a9e565b6007546000906001600160a01b03166315f24053306001600160a01b0316633b1d21a26040518163ffffffff1660e01b8152600401602060405180830381865afa158015611b0f573d6000803e3d6000fd5b505050506040513d601f19601f82011682018060405250810190611b339190612ee3565b600e54601154601054600f54611b499190612f3f565b611b539190612f3f565b6040516001600160e01b031960e086901b168152600481019390935260248301919091526044820152606401611851565b600080611b9081611d9e565b6000611b9a6114dd565b90508015611bbe5761132f816011811115611bb757611bb7612efc565b60576125e4565b611bc6612191565b611bd65761132f600160586125e4565b43600c5414611beb5761132f600a60596125e4565b670de0b6b3a7640000600a5460095486611c059190612f3f565b611c0f9190612f3f565b1115611c215761132f6002605a6125e4565b600b80549085905560408051828152602081018790527faaa68312e2ea9d50e16af5068410ab56e1a1fd06037b1a35664812c30f8214609101611a98565b600087611c6d575085611d93565b6000611c856040518060200160405280600081525090565b6000611ca6898987611c978a8c612f3f565b611ca19190612f3f565b612664565b935090506000816003811115611cbe57611cbe612efc565b14611d195760405162461bcd60e51b815260206004820152602560248201527f216164645468656e53756255496e74206f766572666c6f7720636865636b2066604482015264185a5b195960da1b606482015260840161093f565b611d23838c6126b7565b925090506000816003811115611d3b57611d3b612efc565b14611d885760405162461bcd60e51b815260206004820152601d60248201527f21676574457870206f766572666c6f7720636865636b206661696c6564000000604482015260640161093f565b50519150611d939050565b979650505050505050565b600254600160b01b900460ff16611de45760405162461bcd60e51b815260206004820152600a6024820152691c994b595b9d195c995960b21b604482015260640161093f565b80611e5257600660009054906101000a90046001600160a01b03166001600160a01b031663c90c20b16040518163ffffffff1660e01b8152600401600060405180830381600087803b158015611e3957600080fd5b505af1158015611e4d573d6000803e3d6000fd5b505050505b506002805460ff60b01b19169055565b6006546040516317b9b84b60e31b81523060048201526001600160a01b038581166024830152848116604483015260648201849052600092839291169063bdcdc258906084016020604051808303816000875af1158015611ec7573d6000803e3d6000fd5b505050506040513d601f19601f82011682018060405250810190611eeb9190612ee3565b90508015611f0857611f006003605b83612782565b915050610c15565b836001600160a01b0316856001600160a01b03161415611f2e57611f006002605c6125e4565b6000856001600160a01b0316876001600160a01b03161415611f535750600019611f7b565b506001600160a01b038086166000908152601460209081526040808320938a16835292905220545b600080600080611f8b8589612824565b90945092506000846003811115611fa457611fa4612efc565b14611fc257611fb56009605c6125e4565b9650505050505050610c15565b6001600160a01b038a16600090815260136020526040902054611fe59089612824565b90945091506000846003811115611ffe57611ffe612efc565b1461200f57611fb56009605d6125e4565b6001600160a01b038916600090815260136020526040902054612032908961284f565b9094509050600084600381111561204b5761204b612efc565b1461205c57611fb56009605e6125e4565b6001600160a01b03808b16600090815260136020526040808220859055918b1681522081905560001985146120b4576001600160a01b03808b166000908152601460209081526040808320938f168352929052208390555b886001600160a01b03168a6001600160a01b03167fddf252ad1be2c89b69c2b068fc378daa952ba7f163c4a11628f55a4df523b3ef8a6040516120f991815260200190565b60405180910390a35060009a9950505050505050505050565b6002805460ff60b01b1916600160b01b1790558061218e57600660009054906101000a90046001600160a01b03166001600160a01b031663632e51426040518163ffffffff1660e01b8152600401600060405180830381600087803b15801561217a57600080fd5b505af1158015610961573d6000803e3d6000fd5b50565b600654604080516303e1469160e61b815290516000926001600160a01b031691829163f851a440916004808201926020929091908290030181865afa1580156121de573d6000803e3d6000fd5b505050506040513d601f19601f8201168201806040525081019061220291906130ff565b6001600160a01b0316336001600160a01b031614801561227f5750806001600160a01b0316630a755ec26040518163ffffffff1660e01b8152600401602060405180830381865afa15801561225b573d6000803e3d6000fd5b505050506040513d601f19601f8201168201806040525081019061227f91906130dd565b80610b1757506001546001600160a01b031633148015610b175750806001600160a01b0316632f1069ba6040518163ffffffff1660e01b8152600401602060405180830381865afa1580156122d8573d6000803e3d6000fd5b505050506040513d601f19601f82011682018060405250810190610b1791906130dd565b61234460405180610100016040528060008152602001600081526020016000815260200160008152602001600081526020016000815260200160008152602001600081525090565b60006011546010546123569190612f3f565b600754600e54600f549293506000926001600160a01b03909216916315f24053918791612384908790612f3f565b6040516001600160e01b031960e086901b168152600481019390935260248301919091526044820152606401602060405180830381865afa1580156123cd573d6000803e3d6000fd5b505050506040513d601f19601f820116820180604052508101906123f19190612ee3565b905065048c27395000811115612448578184111561243f5760405162461bcd60e51b815260206004820152600b60248201526a21626f72726f775261746560a81b604482015260640161093f565b5065048c273950005b60008061245787600c54612824565b9092509050600082600381111561247057612470612efc565b146124ab5760405162461bcd60e51b815260206004820152600b60248201526a21626c6f636b44656c746160a81b604482015260640161093f565b8685526012546040808701919091528051602081019091528381526000906124d39083612875565b90506124e181600e546128a6565b60e08701819052600e546124f491612f3f565b60608701526040805160208101909152600b54815260e0870151600f5461251c9291906128be565b60808701526040805160208101909152600a54815260e08701516011546125449291906128be565b60a08701526040805160208101909152600954815260e087015160105461256c9291906128be565b60c0870152600d54612580908290806128be565b602087015250939695505050505050565b6000806000806125a186866128e8565b909250905060008260038111156125ba576125ba612efc565b146125cb57509150600090506125dd565b60006125d682612964565b9350935050505b9250929050565b60007f45b96fe442630264581b197e84bbada861235052c5a1aadfff9ea4e40a969aa083601181111561261957612619612efc565b83606181111561262b5761262b612efc565b60408051928352602083019190915260009082015260600160405180910390a182601181111561265d5761265d612efc565b9392505050565b600080600080612674878761284f565b9092509050600082600381111561268d5761268d612efc565b1461269e57509150600090506126af565b6126a88186612824565b9350935050505b935093915050565b60006126cf6040518060200160405280600081525090565b6000806126e486670de0b6b3a764000061297c565b909250905060008260038111156126fd576126fd612efc565b1461271c575060408051602081019091526000815290925090506125dd565b60008061272983886129bb565b9092509050600082600381111561274257612742612efc565b1461276557816040518060200160405280600081525095509550505050506125dd565b604080516020810190915290815260009890975095505050505050565b60007f45b96fe442630264581b197e84bbada861235052c5a1aadfff9ea4e40a969aa08460118111156127b7576127b7612efc565b8460618111156127c9576127c9612efc565b604080519283526020830191909152810184905260600160405180910390a160038460118111156127fc576127fc612efc565b146128185783601181111561281357612813612efc565b610c15565b610c15826103e8612f3f565b60008083831161284357600061283a8486612f28565b915091506125dd565b506003905060006125dd565b600080838301848110612867576000925090506125dd565b6002600092509250506125dd565b604080516020810190915260008152604051806020016040528061289d8560000151856129e6565b90529392505050565b6000806128b38484612875565b9050610c1581612964565b6000806128cb8585612875565b90506128df6128d982612964565b84612a28565b95945050505050565b60006129006040518060200160405280600081525090565b60008061291186600001518661297c565b9092509050600082600381111561292a5761292a612efc565b14612949575060408051602081019091526000815290925090506125dd565b60408051602081019091529081526000969095509350505050565b8051600090610a9890670de0b6b3a76400009061311c565b6000808361298f575060009050806125dd565b8383028361299d868361311c565b146129b0576002600092509250506125dd565b6000925090506125dd565b600080826129cf57506001905060006125dd565b60006129db848661311c565b915091509250929050565b600061265d83836040518060400160405280601781526020017f6d756c7469706c69636174696f6e206f766572666c6f77000000000000000000815250612a5e565b600061265d8383604051806040016040528060118152602001706164646974696f6e206f766572666c6f7760781b815250612aba565b6000831580612a6b575082155b15612a785750600061265d565b6000612a84848661313e565b905083612a91868361311c565b148390612ab15760405162461bcd60e51b815260040161093f9190612bd7565b50949350505050565b600080612ac78486612f3f565b90508285821015612ab15760405162461bcd60e51b815260040161093f9190612bd7565b828054612af790612eae565b90600052602060002090601f016020900481019282612b195760008555612b5f565b82601f10612b325782800160ff19823516178555612b5f565b82800160010185558215612b5f579182015b82811115612b5f578235825591602001919060010190612b44565b50610b579291505b80821115610b575760008155600101612b67565b60005b83811015612b96578181015183820152602001612b7e565b83811115612ba5576000848401525b50505050565b60008151808452612bc3816020860160208601612b7b565b601f01601f19169290920160200192915050565b60208152600061265d6020830184612bab565b6001600160a01b038116811461218e57600080fd5b60008060408385031215612c1257600080fd5b8235612c1d81612bea565b946020939093013593505050565b600080600060608486031215612c4057600080fd5b8335612c4b81612bea565b92506020840135612c5b81612bea565b929592945050506040919091013590565b60008083601f840112612c7e57600080fd5b50813567ffffffffffffffff811115612c9657600080fd5b6020830191508360208285010111156125dd57600080fd5b60008060008060408587031215612cc457600080fd5b843567ffffffffffffffff80821115612cdc57600080fd5b612ce888838901612c6c565b90965094506020870135915080821115612d0157600080fd5b50612d0e87828801612c6c565b95989497509550505050565b600060208284031215612d2c57600080fd5b5035919050565b600060208284031215612d4557600080fd5b813561265d81612bea565b6020808252825182820181905260009190848201906040850190845b81811015612d925783516001600160e01b03191683529284019291840191600101612d6c565b50909695505050505050565b60008060208385031215612db157600080fd5b823567ffffffffffffffff80821115612dc957600080fd5b818501915085601f830112612ddd57600080fd5b813581811115612dec57600080fd5b8660208260051b8501011115612e0157600080fd5b60209290920196919550909350505050565b6000602080830181845280855180835260408601915060408160051b870101925083870160005b82811015612e6857603f19888603018452612e56858351612bab565b94509285019290850190600101612e3a565b5092979650505050505050565b60008060408385031215612e8857600080fd5b8235612e9381612bea565b91506020830135612ea381612bea565b809150509250929050565b600181811c90821680612ec257607f821691505b602082108114156114ca57634e487b7160e01b600052602260045260246000fd5b600060208284031215612ef557600080fd5b5051919050565b634e487b7160e01b600052602160045260246000fd5b634e487b7160e01b600052601160045260246000fd5b600082821015612f3a57612f3a612f12565b500390565b60008219821115612f5257612f52612f12565b500190565b6020808252600f908201526e085858d8dc9d59525b9d195c995cdd608a1b604082015260600190565b634e487b7160e01b600052604160045260246000fd5b600060ff821680612fa957612fa9612f12565b6000190192915050565b634e487b7160e01b600052603260045260246000fd5b6000808335601e19843603018112612fe057600080fd5b83018035915067ffffffffffffffff821115612ffb57600080fd5b6020019150368190038213156125dd57600080fd5b8183823760009101908152919050565b60006020828403121561303257600080fd5b815167ffffffffffffffff8082111561304a57600080fd5b818401915084601f83011261305e57600080fd5b81518181111561307057613070612f80565b604051601f8201601f19908116603f0116810190838211818310171561309857613098612f80565b816040528281528760208487010111156130b157600080fd5b611d93836020830160208801612b7b565b60006000198214156130d6576130d6612f12565b5060010190565b6000602082840312156130ef57600080fd5b8151801515811461265d57600080fd5b60006020828403121561311157600080fd5b815161265d81612bea565b60008261313957634e487b7160e01b600052601260045260246000fd5b500490565b600081600019048311821515161561315857613158612f12565b50029056fea164736f6c634300080a000a",
    "linkReferences": {}
  },
  "methodIdentifiers": {
    "_getExtensionFunctions()": "89f8132e",
    "_setAdminFee(uint256)": "91dd36c6",
    "_setInterestRateModel(address)": "f2b3abbd",
    "_setNameAndSymbol(string,string)": "34154d4c",
    "_setReserveFactor(uint256)": "fca7820b",
    "accrualBlockNumber()": "6c540baf",
    "accrueInterest()": "a6afed95",
    "adminFeeMantissa()": "8d02d9a1",
    "allowance(address,address)": "dd62ed3e",
    "approve(address,uint256)": "095ea7b3",
    "balanceOf(address)": "70a08231",
    "balanceOfUnderlying(address)": "3af9e669",
    "balanceOfUnderlyingHypo(address)": "f3b13153",
    "borrowIndex()": "aa5af0fd",
    "borrowRatePerBlock()": "f8f9da28",
    "comptroller()": "5fe3b567",
    "decimals()": "313ce567",
    "exchangeRateCurrent()": "bd6d894d",
    "exchangeRateHypothetical()": "3648b399",
    "exchangeRateStored()": "182df0f5",
    "feeSeizeShareMantissa()": "be99f119",
    "fuseAdmin()": "15761d51",
    "fuseFeeMantissa()": "dbfe7c19",
    "getTotalUnderlyingSupplied()": "4aeb3d9a",
    "implementation()": "5c60da1b",
    "interestRateModel()": "f3fdb15a",
    "multicall(bytes[])": "ac9650d8",
    "name()": "06fdde03",
    "protocolSeizeShareMantissa()": "6752e702",
    "reserveFactorMantissa()": "173b9904",
    "supplyRatePerBlock()": "ae9d70b0",
    "supplyRatePerBlockAfterDeposit(uint256)": "b1e23dbb",
    "supplyRatePerBlockAfterWithdraw(uint256)": "35daea64",
    "symbol()": "95d89b41",
    "totalAdminFees()": "61feacff",
    "totalBorrows()": "47bd3718",
    "totalBorrowsCurrent()": "73acee98",
    "totalFuseFees()": "dc028ab1",
    "totalReserves()": "8f840ddd",
    "totalSupply()": "18160ddd",
    "transfer(address,uint256)": "a9059cbb",
    "transferFrom(address,address,uint256)": "23b872dd"
  }
}