{
  "address": "0x36a84B42fa436DBcB3854e2E46ba26546C651530",
  "abi": [
    {
      "anonymous": false,
      "inputs": [
        {
          "indexed": false,
          "internalType": "uint256",
          "name": "cashPrior",
          "type": "uint256"
        },
        {
          "indexed": false,
          "internalType": "uint256",
          "name": "interestAccumulated",
          "type": "uint256"
        },
        {
          "indexed": false,
          "internalType": "uint256",
          "name": "borrowIndex",
          "type": "uint256"
        },
        {
          "indexed": false,
          "internalType": "uint256",
          "name": "totalBorrows",
          "type": "uint256"
        }
      ],
      "name": "AccrueInterest",
      "type": "event"
    },
    {
      "anonymous": false,
      "inputs": [
        {
          "indexed": true,
          "internalType": "address",
          "name": "owner",
          "type": "address"
        },
        {
          "indexed": true,
          "internalType": "address",
          "name": "spender",
          "type": "address"
        },
        {
          "indexed": false,
          "internalType": "uint256",
          "name": "amount",
          "type": "uint256"
        }
      ],
      "name": "Approval",
      "type": "event"
    },
    {
      "anonymous": false,
      "inputs": [
        {
          "indexed": false,
          "internalType": "uint256",
          "name": "error",
          "type": "uint256"
        },
        {
          "indexed": false,
          "internalType": "uint256",
          "name": "info",
          "type": "uint256"
        },
        {
          "indexed": false,
          "internalType": "uint256",
          "name": "detail",
          "type": "uint256"
        }
      ],
      "name": "Failure",
      "type": "event"
    },
    {
      "anonymous": false,
      "inputs": [
        {
          "indexed": false,
          "internalType": "address",
          "name": "receiver",
          "type": "address"
        },
        {
          "indexed": false,
          "internalType": "uint256",
          "name": "amount",
          "type": "uint256"
        }
      ],
      "name": "Flash",
      "type": "event"
    },
    {
      "anonymous": false,
      "inputs": [
        {
          "indexed": false,
          "internalType": "uint256",
          "name": "oldAdminFeeMantissa",
          "type": "uint256"
        },
        {
          "indexed": false,
          "internalType": "uint256",
          "name": "newAdminFeeMantissa",
          "type": "uint256"
        }
      ],
      "name": "NewAdminFee",
      "type": "event"
    },
    {
      "anonymous": false,
      "inputs": [
        {
          "indexed": false,
          "internalType": "uint256",
          "name": "oldIonicFeeMantissa",
          "type": "uint256"
        },
        {
          "indexed": false,
          "internalType": "uint256",
          "name": "newIonicFeeMantissa",
          "type": "uint256"
        }
      ],
      "name": "NewIonicFee",
      "type": "event"
    },
    {
      "anonymous": false,
      "inputs": [
        {
          "indexed": false,
          "internalType": "contract InterestRateModel",
          "name": "oldInterestRateModel",
          "type": "address"
        },
        {
          "indexed": false,
          "internalType": "contract InterestRateModel",
          "name": "newInterestRateModel",
          "type": "address"
        }
      ],
      "name": "NewMarketInterestRateModel",
      "type": "event"
    },
    {
      "anonymous": false,
      "inputs": [
        {
          "indexed": false,
          "internalType": "uint256",
          "name": "oldReserveFactorMantissa",
          "type": "uint256"
        },
        {
          "indexed": false,
          "internalType": "uint256",
          "name": "newReserveFactorMantissa",
          "type": "uint256"
        }
      ],
      "name": "NewReserveFactor",
      "type": "event"
    },
    {
      "anonymous": false,
      "inputs": [
        {
          "indexed": true,
          "internalType": "address",
          "name": "from",
          "type": "address"
        },
        {
          "indexed": true,
          "internalType": "address",
          "name": "to",
          "type": "address"
        },
        {
          "indexed": false,
          "internalType": "uint256",
          "name": "amount",
          "type": "uint256"
        }
      ],
      "name": "Transfer",
      "type": "event"
    },
    {
      "inputs": [],
      "name": "_getExtensionFunctions",
      "outputs": [
        {
          "internalType": "bytes4[]",
          "name": "",
          "type": "bytes4[]"
        }
      ],
      "stateMutability": "pure",
      "type": "function"
    },
    {
      "inputs": [
        {
          "internalType": "uint256",
          "name": "newAdminFeeMantissa",
          "type": "uint256"
        }
      ],
      "name": "_setAdminFee",
      "outputs": [
        {
          "internalType": "uint256",
          "name": "",
          "type": "uint256"
        }
      ],
      "stateMutability": "nonpayable",
      "type": "function"
    },
    {
      "inputs": [
        {
          "internalType": "contract InterestRateModel",
          "name": "newInterestRateModel",
          "type": "address"
        }
      ],
      "name": "_setInterestRateModel",
      "outputs": [
        {
          "internalType": "uint256",
          "name": "",
          "type": "uint256"
        }
      ],
      "stateMutability": "nonpayable",
      "type": "function"
    },
    {
      "inputs": [
        {
          "internalType": "string",
          "name": "_name",
          "type": "string"
        },
        {
          "internalType": "string",
          "name": "_symbol",
          "type": "string"
        }
      ],
      "name": "_setNameAndSymbol",
      "outputs": [],
      "stateMutability": "nonpayable",
      "type": "function"
    },
    {
      "inputs": [
        {
          "internalType": "uint256",
          "name": "newReserveFactorMantissa",
          "type": "uint256"
        }
      ],
      "name": "_setReserveFactor",
      "outputs": [
        {
          "internalType": "uint256",
          "name": "",
          "type": "uint256"
        }
      ],
      "stateMutability": "nonpayable",
      "type": "function"
    },
    {
      "inputs": [],
      "name": "accrualBlockNumber",
      "outputs": [
        {
          "internalType": "uint256",
          "name": "",
          "type": "uint256"
        }
      ],
      "stateMutability": "view",
      "type": "function"
    },
    {
      "inputs": [],
      "name": "accrueInterest",
      "outputs": [
        {
          "internalType": "uint256",
          "name": "",
          "type": "uint256"
        }
      ],
      "stateMutability": "nonpayable",
      "type": "function"
    },
    {
      "inputs": [],
      "name": "adminFeeMantissa",
      "outputs": [
        {
          "internalType": "uint256",
          "name": "",
          "type": "uint256"
        }
      ],
      "stateMutability": "view",
      "type": "function"
    },
    {
      "inputs": [
        {
          "internalType": "address",
          "name": "owner",
          "type": "address"
        },
        {
          "internalType": "address",
          "name": "spender",
          "type": "address"
        }
      ],
      "name": "allowance",
      "outputs": [
        {
          "internalType": "uint256",
          "name": "",
          "type": "uint256"
        }
      ],
      "stateMutability": "view",
      "type": "function"
    },
    {
      "inputs": [
        {
          "internalType": "address",
          "name": "spender",
          "type": "address"
        },
        {
          "internalType": "uint256",
          "name": "amount",
          "type": "uint256"
        }
      ],
      "name": "approve",
      "outputs": [
        {
          "internalType": "bool",
          "name": "",
          "type": "bool"
        }
      ],
      "stateMutability": "nonpayable",
      "type": "function"
    },
    {
      "inputs": [
        {
          "internalType": "address",
          "name": "owner",
          "type": "address"
        }
      ],
      "name": "balanceOf",
      "outputs": [
        {
          "internalType": "uint256",
          "name": "",
          "type": "uint256"
        }
      ],
      "stateMutability": "view",
      "type": "function"
    },
    {
      "inputs": [
        {
          "internalType": "address",
          "name": "owner",
          "type": "address"
        }
      ],
      "name": "balanceOfUnderlying",
      "outputs": [
        {
          "internalType": "uint256",
          "name": "",
          "type": "uint256"
        }
      ],
      "stateMutability": "view",
      "type": "function"
    },
    {
      "inputs": [
        {
          "internalType": "address",
          "name": "account",
          "type": "address"
        }
      ],
      "name": "borrowBalanceCurrent",
      "outputs": [
        {
          "internalType": "uint256",
          "name": "",
          "type": "uint256"
        }
      ],
      "stateMutability": "view",
      "type": "function"
    },
    {
      "inputs": [],
      "name": "borrowIndex",
      "outputs": [
        {
          "internalType": "uint256",
          "name": "",
          "type": "uint256"
        }
      ],
      "stateMutability": "view",
      "type": "function"
    },
    {
      "inputs": [],
      "name": "borrowRatePerBlock",
      "outputs": [
        {
          "internalType": "uint256",
          "name": "",
          "type": "uint256"
        }
      ],
      "stateMutability": "view",
      "type": "function"
    },
    {
      "inputs": [
        {
          "internalType": "uint256",
          "name": "borrowAmount",
          "type": "uint256"
        }
      ],
      "name": "borrowRatePerBlockAfterBorrow",
      "outputs": [
        {
          "internalType": "uint256",
          "name": "",
          "type": "uint256"
        }
      ],
      "stateMutability": "view",
      "type": "function"
    },
    {
      "inputs": [],
      "name": "comptroller",
      "outputs": [
        {
          "internalType": "contract IonicComptroller",
          "name": "",
          "type": "address"
        }
      ],
      "stateMutability": "view",
      "type": "function"
    },
    {
      "inputs": [],
      "name": "decimals",
      "outputs": [
        {
          "internalType": "uint8",
          "name": "",
          "type": "uint8"
        }
      ],
      "stateMutability": "view",
      "type": "function"
    },
    {
      "inputs": [],
      "name": "exchangeRateCurrent",
      "outputs": [
        {
          "internalType": "uint256",
          "name": "",
          "type": "uint256"
        }
      ],
      "stateMutability": "view",
      "type": "function"
    },
    {
      "inputs": [],
      "name": "feeSeizeShareMantissa",
      "outputs": [
        {
          "internalType": "uint256",
          "name": "",
          "type": "uint256"
        }
      ],
      "stateMutability": "view",
      "type": "function"
    },
    {
      "inputs": [
        {
          "internalType": "uint256",
          "name": "amount",
          "type": "uint256"
        },
        {
          "internalType": "bytes",
          "name": "data",
          "type": "bytes"
        }
      ],
      "name": "flash",
      "outputs": [],
      "stateMutability": "nonpayable",
      "type": "function"
    },
    {
      "inputs": [
        {
          "internalType": "address",
          "name": "account",
          "type": "address"
        }
      ],
      "name": "getAccountSnapshot",
      "outputs": [
        {
          "internalType": "uint256",
          "name": "",
          "type": "uint256"
        },
        {
          "internalType": "uint256",
          "name": "",
          "type": "uint256"
        },
        {
          "internalType": "uint256",
          "name": "",
          "type": "uint256"
        },
        {
          "internalType": "uint256",
          "name": "",
          "type": "uint256"
        }
      ],
      "stateMutability": "view",
      "type": "function"
    },
    {
      "inputs": [],
      "name": "getTotalUnderlyingSupplied",
      "outputs": [
        {
          "internalType": "uint256",
          "name": "",
          "type": "uint256"
        }
      ],
      "stateMutability": "view",
      "type": "function"
    },
    {
      "inputs": [],
      "name": "interestRateModel",
      "outputs": [
        {
          "internalType": "contract InterestRateModel",
          "name": "",
          "type": "address"
        }
      ],
      "stateMutability": "view",
      "type": "function"
    },
    {
      "inputs": [],
      "name": "ionicAdmin",
      "outputs": [
        {
          "internalType": "address payable",
          "name": "",
          "type": "address"
        }
      ],
      "stateMutability": "view",
      "type": "function"
    },
    {
      "inputs": [],
      "name": "ionicFeeMantissa",
      "outputs": [
        {
          "internalType": "uint256",
          "name": "",
          "type": "uint256"
        }
      ],
      "stateMutability": "view",
      "type": "function"
    },
    {
      "inputs": [
        {
          "internalType": "bytes[]",
          "name": "data",
          "type": "bytes[]"
        }
      ],
      "name": "multicall",
      "outputs": [
        {
          "internalType": "bytes[]",
          "name": "results",
          "type": "bytes[]"
        }
      ],
      "stateMutability": "payable",
      "type": "function"
    },
    {
      "inputs": [],
      "name": "name",
      "outputs": [
        {
          "internalType": "string",
          "name": "",
          "type": "string"
        }
      ],
      "stateMutability": "view",
      "type": "function"
    },
    {
      "inputs": [],
      "name": "protocolSeizeShareMantissa",
      "outputs": [
        {
          "internalType": "uint256",
          "name": "",
          "type": "uint256"
        }
      ],
      "stateMutability": "view",
      "type": "function"
    },
    {
      "inputs": [],
      "name": "registerInSFS",
      "outputs": [
        {
          "internalType": "uint256",
          "name": "",
          "type": "uint256"
        }
      ],
      "stateMutability": "nonpayable",
      "type": "function"
    },
    {
      "inputs": [],
      "name": "reserveFactorMantissa",
      "outputs": [
        {
          "internalType": "uint256",
          "name": "",
          "type": "uint256"
        }
      ],
      "stateMutability": "view",
      "type": "function"
    },
    {
      "inputs": [],
      "name": "supplyRatePerBlock",
      "outputs": [
        {
          "internalType": "uint256",
          "name": "",
          "type": "uint256"
        }
      ],
      "stateMutability": "view",
      "type": "function"
    },
    {
      "inputs": [
        {
          "internalType": "uint256",
          "name": "mintAmount",
          "type": "uint256"
        }
      ],
      "name": "supplyRatePerBlockAfterDeposit",
      "outputs": [
        {
          "internalType": "uint256",
          "name": "",
          "type": "uint256"
        }
      ],
      "stateMutability": "view",
      "type": "function"
    },
    {
      "inputs": [
        {
          "internalType": "uint256",
          "name": "withdrawAmount",
          "type": "uint256"
        }
      ],
      "name": "supplyRatePerBlockAfterWithdraw",
      "outputs": [
        {
          "internalType": "uint256",
          "name": "",
          "type": "uint256"
        }
      ],
      "stateMutability": "view",
      "type": "function"
    },
    {
      "inputs": [],
      "name": "symbol",
      "outputs": [
        {
          "internalType": "string",
          "name": "",
          "type": "string"
        }
      ],
      "stateMutability": "view",
      "type": "function"
    },
    {
      "inputs": [],
      "name": "totalAdminFees",
      "outputs": [
        {
          "internalType": "uint256",
          "name": "",
          "type": "uint256"
        }
      ],
      "stateMutability": "view",
      "type": "function"
    },
    {
      "inputs": [],
      "name": "totalBorrows",
      "outputs": [
        {
          "internalType": "uint256",
          "name": "",
          "type": "uint256"
        }
      ],
      "stateMutability": "view",
      "type": "function"
    },
    {
      "inputs": [],
      "name": "totalBorrowsCurrent",
      "outputs": [
        {
          "internalType": "uint256",
          "name": "",
          "type": "uint256"
        }
      ],
      "stateMutability": "view",
      "type": "function"
    },
    {
      "inputs": [],
      "name": "totalIonicFees",
      "outputs": [
        {
          "internalType": "uint256",
          "name": "",
          "type": "uint256"
        }
      ],
      "stateMutability": "view",
      "type": "function"
    },
    {
      "inputs": [],
      "name": "totalReserves",
      "outputs": [
        {
          "internalType": "uint256",
          "name": "",
          "type": "uint256"
        }
      ],
      "stateMutability": "view",
      "type": "function"
    },
    {
      "inputs": [],
      "name": "totalSupply",
      "outputs": [
        {
          "internalType": "uint256",
          "name": "",
          "type": "uint256"
        }
      ],
      "stateMutability": "view",
      "type": "function"
    },
    {
      "inputs": [
        {
          "internalType": "address",
          "name": "dst",
          "type": "address"
        },
        {
          "internalType": "uint256",
          "name": "amount",
          "type": "uint256"
        }
      ],
      "name": "transfer",
      "outputs": [
        {
          "internalType": "bool",
          "name": "",
          "type": "bool"
        }
      ],
      "stateMutability": "nonpayable",
      "type": "function"
    },
    {
      "inputs": [
        {
          "internalType": "address",
          "name": "src",
          "type": "address"
        },
        {
          "internalType": "address",
          "name": "dst",
          "type": "address"
        },
        {
          "internalType": "uint256",
          "name": "amount",
          "type": "uint256"
        }
      ],
      "name": "transferFrom",
      "outputs": [
        {
          "internalType": "bool",
          "name": "",
          "type": "bool"
        }
      ],
      "stateMutability": "nonpayable",
      "type": "function"
    },
    {
      "inputs": [],
      "name": "underlying",
      "outputs": [
        {
          "internalType": "address",
          "name": "",
          "type": "address"
        }
      ],
      "stateMutability": "view",
      "type": "function"
    }
  ],
  "transactionHash": "0x47cdfb10e9f3b83e43e7edc935207ed0c2c4507074b8acf373137ed68376b3dd",
  "args": [],
  "numDeployments": 2,
  "bytecode": {
    "object": "0x608060405234801561001057600080fd5b50613c15806100206000396000f3fe6080604052600436106102675760003560e01c80638d02d9a111610144578063bd6d894d116100b6578063cfcd4c071161007a578063cfcd4c07146106fe578063dd62ed3e1461071e578063f2b3abbd14610764578063f3fdb15a14610784578063f8f9da28146107a4578063fca7820b146107b957600080fd5b8063bd6d894d14610657578063be99f1191461066c578063c37f68e214610688578063c3bf11cd146106c8578063c91a424f146106de57600080fd5b8063a6afed9511610108578063a6afed95146105b7578063a9059cbb146105cc578063aa5af0fd146105ec578063ac9650d814610602578063ae9d70b014610622578063b1e23dbb1461063757600080fd5b80638d02d9a1146105405780638f840ddd1461055657806391dd36c61461056c57806395d89b411461058c5780639826394b146105a157600080fd5b806347bd3718116101dd5780636c540baf116101a15780636c540baf146104885780636f307dc31461049e57806370a08231146104be57806373acee98146104f45780637f15e2161461050957806389f8132e1461051e57600080fd5b806347bd3718146103ef5780634aeb3d9a146104055780635fe3b5671461041a57806361feacff146104575780636752e7021461046d57600080fd5b806323b872dd1161022f57806323b872dd14610321578063313ce5671461034157806334154d4c1461036d57806335daea641461038f5780633af9e669146103af5780633c3b4b89146103cf57600080fd5b806306fdde031461026c578063095ea7b314610297578063173b9904146102c757806317bfdfbc146102eb57806318160ddd1461030b575b600080fd5b34801561027857600080fd5b506102816107d9565b60405161028e91906135bc565b60405180910390f35b3480156102a357600080fd5b506102b76102b23660046135e4565b610867565b604051901515815260200161028e565b3480156102d357600080fd5b506102dd60085481565b60405190815260200161028e565b3480156102f757600080fd5b506102dd610306366004613610565b61097e565b34801561031757600080fd5b506102dd600f5481565b34801561032d57600080fd5b506102b761033c36600461362d565b610b2e565b34801561034d57600080fd5b5060035461035b9060ff1681565b60405160ff909116815260200161028e565b34801561037957600080fd5b5061038d6103883660046136b0565b610c03565b005b34801561039b57600080fd5b506102dd6103aa36600461371c565b610c60565b3480156103bb57600080fd5b506102dd6103ca366004613610565b610de2565b3480156103db57600080fd5b5061038d6103ea366004613735565b610e7d565b3480156103fb57600080fd5b506102dd600b5481565b34801561041157600080fd5b506102dd6110de565b34801561042657600080fd5b5060035461043f9061010090046001600160a01b031681565b6040516001600160a01b03909116815260200161028e565b34801561046357600080fd5b506102dd600d5481565b34801561047957600080fd5b506102dd666379da05b6000081565b34801561049457600080fd5b506102dd60095481565b3480156104aa57600080fd5b5060135461043f906001600160a01b031681565b3480156104ca57600080fd5b506102dd6104d9366004613610565b6001600160a01b031660009081526010602052604090205490565b34801561050057600080fd5b506102dd61117b565b34801561051557600080fd5b506102dd61120b565b34801561052a57600080fd5b506105336112db565b60405161028e9190613781565b34801561054c57600080fd5b506102dd60065481565b34801561056257600080fd5b506102dd600c5481565b34801561057857600080fd5b506102dd61058736600461371c565b611974565b34801561059857600080fd5b50610281611b31565b3480156105ad57600080fd5b506102dd600e5481565b3480156105c357600080fd5b506102dd611b3e565b3480156105d857600080fd5b506102b76105e73660046135e4565b611c4f565b3480156105f857600080fd5b506102dd600a5481565b6106156106103660046137cf565b611d23565b60405161028e9190613844565b34801561062e57600080fd5b506102dd611d2f565b34801561064357600080fd5b506102dd61065236600461371c565b611e55565b34801561066357600080fd5b506102dd611f85565b34801561067857600080fd5b506102dd67016345785d8a000081565b34801561069457600080fd5b506106a86106a3366004613610565b6120b3565b60408051948552602085019390935291830152606082015260800161028e565b3480156106d457600080fd5b506102dd60075481565b3480156106ea57600080fd5b5060005461043f906001600160a01b031681565b34801561070a57600080fd5b506102dd61071936600461371c565b6120f9565b34801561072a57600080fd5b506102dd6107393660046138a6565b6001600160a01b03918216600090815260116020908152604080832093909416825291909152205490565b34801561077057600080fd5b506102dd61077f366004613610565b612220565b34801561079057600080fd5b5060045461043f906001600160a01b031681565b3480156107b057600080fd5b506102dd61235f565b3480156107c557600080fd5b506102dd6107d436600461371c565b612426565b600180546107e6906138df565b80601f0160208091040260200160405190810160405280929190818152602001828054610812906138df565b801561085f5780601f106108345761010080835404028352916020019161085f565b820191906000526020600020905b81548152906001019060200180831161084257829003601f168201915b505050505081565b60008054600354604051631beb2b9760e31b81526001600160a01b039283169263df595cb8926108b49261010090910490911690339030906001600160e01b031988351690600401613914565b602060405180830381865afa1580156108d1573d6000803e3d6000fd5b505050506040513d601f19601f820116820180604052508101906108f59190613947565b61091a5760405162461bcd60e51b815260040161091190613969565b60405180910390fd5b3360008181526011602090815260408083206001600160a01b038816808552908352928190208690555185815283917f8c5be1e5ebec7d5bd14f71427d1e84f3dd0314c0f7b2291e5b200ac8c7c3b925910160405180910390a35060019392505050565b6000804360095414156109945750600a54610a0f565b6000306001600160a01b0316633b1d21a26040518163ffffffff1660e01b8152600401602060405180830381865afa1580156109d4573d6000803e3d6000fd5b505050506040513d601f19601f820116820180604052508101906109f89190613991565b90506000610a0643836124dc565b60200151925050505b6001600160a01b0383166000908152601260205260408120805482918291610a3e575060009695505050505050565b8054610a4a9086612771565b90945092506000846003811115610a6357610a636139aa565b14610ab05760405162461bcd60e51b815260206004820152601e60248201527f216d756c55496e74206f766572666c6f7720636865636b206661696c656400006044820152606401610911565b610abe8382600101546127b3565b90945091506000846003811115610ad757610ad76139aa565b14610b245760405162461bcd60e51b815260206004820152601e60248201527f2164697655496e74206f766572666c6f7720636865636b206661696c656400006044820152606401610911565b5095945050505050565b600080610b3a816127de565b60008054600354604051631beb2b9760e31b81526001600160a01b039283169363df595cb893610b8493610100900416913391309190356001600160e01b03191690600401613914565b602060405180830381865afa158015610ba1573d6000803e3d6000fd5b505050506040513d601f19601f82011682018060405250810190610bc59190613947565b610be15760405162461bcd60e51b815260040161091190613969565b6000610bef338787876128a2565b149150610bfb81612b59565b509392505050565b610c0b612bd8565b610c405760405162461bcd60e51b815260206004820152600660248201526510b0b236b4b760d11b6044820152606401610911565b610c4c600185856134c7565b50610c59600283836134c7565b5050505050565b600080306001600160a01b0316633b1d21a26040518163ffffffff1660e01b8152600401602060405180830381865afa158015610ca1573d6000803e3d6000fd5b505050506040513d601f19601f82011682018060405250810190610cc59190613991565b905082811015610d105760405162461bcd60e51b81526020600482015260166024820152750dac2e4d6cae840c6c2e6d040dcdee840cadcdeeaced60531b6044820152606401610911565b6004546001600160a01b031663b8168816610d2b85846139d6565b600b54600e54600d54600c54610d4191906139ed565b610d4b91906139ed565b600654600754600854610d5e91906139ed565b610d6891906139ed565b6040516001600160e01b031960e087901b16815260048101949094526024840192909252604483015260648201526084015b602060405180830381865afa158015610db7573d6000803e3d6000fd5b505050506040513d601f19601f82011682018060405250810190610ddb9190613991565b9392505050565b6000806040518060200160405280610df8611f85565b90526001600160a01b038416600090815260106020526040812054919250908190610e24908490612d4f565b90925090506000826003811115610e3d57610e3d6139aa565b14610e755760405162461bcd60e51b81526020600482015260086024820152672162616c616e636560c01b6044820152606401610911565b949350505050565b60008054600354604051631beb2b9760e31b81526001600160a01b039283169363df595cb893610ec793610100900416913391309190356001600160e01b03191690600401613914565b602060405180830381865afa158015610ee4573d6000803e3d6000fd5b505050506040513d601f19601f82011682018060405250810190610f089190613947565b610f245760405162461bcd60e51b815260040161091190613969565b610f2c611b3e565b5082600b6000828254610f3f91906139ed565b9091555030905060405163067db1b360e01b8152336004820152602481018590526001600160a01b03919091169063067db1b390604401600060405180830381600087803b158015610f9057600080fd5b505af1158015610fa4573d6000803e3d6000fd5b505060135460405163012b1f4560e71b815233935063958fa2809250610fdc916001600160a01b031690879087908790600401613a05565b600060405180830381600087803b158015610ff657600080fd5b505af115801561100a573d6000803e3d6000fd5b505050506110153090565b6040516304d7c4cd60e21b8152336004820152602481018590526001600160a01b03919091169063135f1334906044016020604051808303816000875af1158015611064573d6000803e3d6000fd5b505050506040513d601f19601f820116820180604052508101906110889190613991565b5082600b600082825461109b91906139d6565b909155505060408051338152602081018590527fe756d016d0e956882a6de9c72a2fe06d7d488ecbe6d76628713077ea7930cff8910160405180910390a1505050565b6000600d54600e54600c546110f391906139ed565b6110fd91906139ed565b600b54306001600160a01b0316633b1d21a26040518163ffffffff1660e01b8152600401602060405180830381865afa15801561113e573d6000803e3d6000fd5b505050506040513d601f19601f820116820180604052508101906111629190613991565b61116c91906139ed565b61117691906139d6565b905090565b600043600954141561118e5750600b5490565b6000306001600160a01b0316633b1d21a26040518163ffffffff1660e01b8152600401602060405180830381865afa1580156111ce573d6000803e3d6000fd5b505050506040513d601f19601f820116820180604052508101906111f29190613991565b9050600061120043836124dc565b606001519392505050565b6000611215612bd8565b61124a5760405162461bcd60e51b815260206004820152600660248201526510b0b236b4b760d11b6044820152606401610911565b604051632210724360e11b8152738fba84867ba458e7c6e2c024d2de3d0b5c3ea1c2600482015273bbd707815a7f7eb6897c7686274afabd7b579ff6908190634420e486906024016020604051808303816000875af11580156112b1573d6000803e3d6000fd5b505050506040513d601f19601f820116820180604052508101906112d59190613991565b91505090565b60408051601880825261032082019092526060919060009082602082016103008036833701905050905063a9059cbb60e01b8161131784613a63565b93508360ff168151811061132d5761132d613a80565b6001600160e01b0319909216602092830291909101909101526323b872dd60e01b8161135884613a63565b93508360ff168151811061136e5761136e613a80565b6001600160e01b031990921660209283029190910190910152636eb1769f60e11b8161139984613a63565b93508360ff16815181106113af576113af613a80565b6001600160e01b03199092166020928302919091019091015263095ea7b360e01b816113da84613a63565b93508360ff16815181106113f0576113f0613a80565b6001600160e01b0319909216602092830291909101909101526370a0823160e01b8161141b84613a63565b93508360ff168151811061143157611431613a80565b6001600160e01b0319909216602092830291909101909101526348ee9b6360e11b8161145c84613a63565b93508360ff168151811061147257611472613a80565b6001600160e01b03199092166020928302919091019091015263f2b3abbd60e01b8161149d84613a63565b93508360ff16815181106114b3576114b3613a80565b6001600160e01b031990921660209283029190910190910152630d05535360e21b816114de84613a63565b93508360ff16815181106114f4576114f4613a80565b6001600160e01b03199092166020928302919091019091015263fca7820b60e01b8161151f84613a63565b93508360ff168151811061153557611535613a80565b6001600160e01b031990921660209283029190910190910152630ae9d70b60e41b8161156084613a63565b93508360ff168151811061157657611576613a80565b6001600160e01b031990921660209283029190910190910152631f1f3b4560e31b816115a184613a63565b93508360ff16815181106115b7576115b7613a80565b6001600160e01b03199092166020928302919091019091015263bd6d894d60e01b816115e284613a63565b93508360ff16815181106115f8576115f8613a80565b6001600160e01b03199092166020928302919091019091015263a6afed9560e01b8161162384613a63565b93508360ff168151811061163957611639613a80565b6001600160e01b031990921660209283029190910190910152630e759dd360e31b8161166484613a63565b93508360ff168151811061167a5761167a613a80565b6001600160e01b031990921660209283029190910190910152633af9e66960e01b816116a584613a63565b93508360ff16815181106116bb576116bb613a80565b6001600160e01b031990921660209283029190910190910152631592ca1b60e31b816116e684613a63565b93508360ff16815181106116fc576116fc613a80565b6001600160e01b03199092166020928302919091019091015263b1e23dbb60e01b8161172784613a63565b93508360ff168151811061173d5761173d613a80565b6001600160e01b031990921660209283029190910190910152630d76ba9960e21b8161176884613a63565b93508360ff168151811061177e5761177e613a80565b6001600160e01b03199092166020928302919091019091015263cfcd4c0760e01b816117a984613a63565b93508360ff16815181106117bf576117bf613a80565b6001600160e01b0319909216602092830291909101909101526325759ecd60e11b816117ea84613a63565b93508360ff168151811061180057611800613a80565b6001600160e01b031990921660209283029190910190910152633c3b4b8960e01b8161182b84613a63565b93508360ff168151811061184157611841613a80565b6001600160e01b0319909216602092830291909101909101526361bfb47160e11b8161186c84613a63565b93508360ff168151811061188257611882613a80565b6001600160e01b0319909216602092830291909101909101526305eff7ef60e21b816118ad84613a63565b93508360ff16815181106118c3576118c3613a80565b6001600160e01b031990921660209283029190910190910152633f8af10b60e11b816118ee84613a63565b93508360ff168151811061190457611904613a80565b6001600160e01b03199092166020928302919091019091015260ff82161561196e5760405162461bcd60e51b815260206004820152601c60248201527f7573652074686520636f7272656374206172726179206c656e677468000000006044820152606401610911565b92915050565b600080611980816127de565b611988611b3e565b5043600954146119a55761199e600a6052612da1565b9150611b22565b6000198314156119b55760065492505b60008060009054906101000a90046001600160a01b03166001600160a01b031663dd86fea16040518163ffffffff1660e01b8152600401602060405180830381865afa158015611a09573d6000803e3d6000fd5b505050506040513d601f19601f82011682018060405250810190611a2d9190613991565b9050670de0b6b3a76400008185600854611a4791906139ed565b611a5191906139ed565b1115611a6b57611a6360026053612da1565b925050611b22565b8360065414611acf57611a7c612bd8565b611a8c57611a6360016051612da1565b600680549085905560408051828152602081018790527fcdd0b588250e1398549f79cfdb8217c186688822905d6715b0834ea1c865594a910160405180910390a1505b8060075414611b1b57600780549082905560408051828152602081018490527fedec4b9c99c2cdb231e7fd036f861e0445b015916700f41b9835f984cb9be4cb910160405180910390a1505b60005b9250505b611b2b81612b59565b50919050565b600280546107e6906138df565b6009546000904390811415611b545760006112d5565b6000306001600160a01b0316633b1d21a26040518163ffffffff1660e01b8152600401602060405180830381865afa158015611b94573d6000803e3d6000fd5b505050506040513d601f19601f82011682018060405250810190611bb89190613991565b90506000611bc683836124dc565b6009849055602081810151600a819055606080840151600b819055608080860151600c5560a0860151600e5560c0860151600d5560e0860151604080518a815296870191909152850193909352908301529192507f4dec04e750ca11537cabcd8a9eab06494de08da3735bc8871cd41250e190bc04910160405180910390a16000935050505090565b600080611c5b816127de565b60008054600354604051631beb2b9760e31b81526001600160a01b039283169363df595cb893611ca593610100900416913391309190356001600160e01b03191690600401613914565b602060405180830381865afa158015611cc2573d6000803e3d6000fd5b505050506040513d601f19601f82011682018060405250810190611ce69190613947565b611d025760405162461bcd60e51b815260040161091190613969565b6000611d10333387876128a2565b149150611d1c81612b59565b5092915050565b6060610ddb8383612e1a565b6004546000906001600160a01b031663b8168816306001600160a01b0316633b1d21a26040518163ffffffff1660e01b8152600401602060405180830381865afa158015611d81573d6000803e3d6000fd5b505050506040513d601f19601f82011682018060405250810190611da59190613991565b600b54600e54600d54600c54611dbb91906139ed565b611dc591906139ed565b600654600754600854611dd891906139ed565b611de291906139ed565b6040516001600160e01b031960e087901b16815260048101949094526024840192909252604483015260648201526084015b602060405180830381865afa158015611e31573d6000803e3d6000fd5b505050506040513d601f19601f820116820180604052508101906111769190613991565b6004546000906001600160a01b031663b816881683306001600160a01b0316633b1d21a26040518163ffffffff1660e01b8152600401602060405180830381865afa158015611ea8573d6000803e3d6000fd5b505050506040513d601f19601f82011682018060405250810190611ecc9190613991565b611ed691906139ed565b600b54600e54600d54600c54611eec91906139ed565b611ef691906139ed565b600654600754600854611f0991906139ed565b611f1391906139ed565b6040516001600160e01b031960e087901b1681526004810194909452602484019290925260448301526064820152608401602060405180830381865afa158015611f61573d6000803e3d6000fd5b505050506040513d601f19601f8201168201806040525081019061196e9190613991565b600060095443141561201357611176600f54600554611fa13090565b6001600160a01b0316633b1d21a26040518163ffffffff1660e01b8152600401602060405180830381865afa158015611fde573d6000803e3d6000fd5b505050506040513d601f19601f820116820180604052508101906120029190613991565b600b54600c54600d54600e54612f6b565b6000306001600160a01b0316633b1d21a26040518163ffffffff1660e01b8152600401602060405180830381865afa158015612053573d6000803e3d6000fd5b505050506040513d601f19601f820116820180604052508101906120779190613991565b9050600061208543836124dc565b90506120ac816040015160055484846060015185608001518660c001518760a00151612f6b565b9250505090565b6001600160a01b03811660009081526010602052604081205481908190819081806120dd8861097e565b91506120e7611f85565b90506000989297509095509350915050565b600080306001600160a01b0316633b1d21a26040518163ffffffff1660e01b8152600401602060405180830381865afa15801561213a573d6000803e3d6000fd5b505050506040513d601f19601f8201168201806040525081019061215e9190613991565b9050828110156121a95760405162461bcd60e51b81526020600482015260166024820152750dac2e4d6cae840c6c2e6d040dcdee840cadcdeeaced60531b6044820152606401610911565b6004546001600160a01b03166315f240536121c485846139d6565b85600b546121d291906139ed565b600e54600d54600c546121e591906139ed565b6121ef91906139ed565b6040516001600160e01b031960e086901b168152600481019390935260248301919091526044820152606401610d9a565b60008061222c816127de565b612234611b3e565b5061223d612bd8565b61224d5761199e6001604d612da1565b43600954146122625761199e600a604c612da1565b826001600160a01b0316632191f92a6040518163ffffffff1660e01b8152600401602060405180830381865afa1580156122a0573d6000803e3d6000fd5b505050506040513d601f19601f820116820180604052508101906122c49190613947565b6122fa5760405162461bcd60e51b8152602060048201526007602482015266216e6f7449726d60c81b6044820152606401610911565b600480546001600160a01b038581166001600160a01b031983168117909355604080519190921680825260208201939093527fedffc32e068c7c95dfd4bdfd5c4d939a084d6b11c4199eac8436ed234d72f92691015b60405180910390a16000611b1e565b6004546000906001600160a01b03166315f24053306001600160a01b0316633b1d21a26040518163ffffffff1660e01b8152600401602060405180830381865afa1580156123b1573d6000803e3d6000fd5b505050506040513d601f19601f820116820180604052508101906123d59190613991565b600b54600e54600d54600c546123eb91906139ed565b6123f591906139ed565b6040516001600160e01b031960e086901b168152600481019390935260248301919091526044820152606401611e14565b600080612432816127de565b61243a611b3e565b50612443612bd8565b6124535761199e60016058612da1565b43600954146124685761199e600a6059612da1565b670de0b6b3a76400006007546006548561248291906139ed565b61248c91906139ed565b111561249e5761199e6002605a612da1565b600880549084905560408051828152602081018690527faaa68312e2ea9d50e16af5068410ab56e1a1fd06037b1a35664812c30f8214609101612350565b61252460405180610100016040528060008152602001600081526020016000815260200160008152602001600081526020016000815260200160008152602001600081525090565b6000600e54600d5461253691906139ed565b600454600b54600c549293506000926001600160a01b03909216916315f240539187916125649087906139ed565b6040516001600160e01b031960e086901b168152600481019390935260248301919091526044820152606401602060405180830381865afa1580156125ad573d6000803e3d6000fd5b505050506040513d601f19601f820116820180604052508101906125d19190613991565b905065048c27395000811115612628578184111561261f5760405162461bcd60e51b815260206004820152600b60248201526a21626f72726f775261746560a81b6044820152606401610911565b5065048c273950005b600080612637876009546130aa565b90925090506000826003811115612650576126506139aa565b1461268b5760405162461bcd60e51b815260206004820152600b60248201526a21626c6f636b44656c746160a81b6044820152606401610911565b868552600f546040808701919091528051602081019091528381526000906126b390836130d5565b90506126c181600b54613106565b60e08701819052600b546126d4916139ed565b60608701526040805160208101909152600854815260e0870151600c546126fc92919061311e565b60808701526040805160208101909152600754815260e0870151600e5461272492919061311e565b60a08701526040805160208101909152600654815260e0870151600d5461274c92919061311e565b60c0870152600a546127609082908061311e565b602087015250939695505050505050565b60008083612784575060009050806127ac565b838302836127928683613a96565b146127a5576002600092509250506127ac565b6000925090505b9250929050565b600080826127c757506001905060006127ac565b60006127d38486613a96565b915091509250929050565b600054600160a01b900460ff166128245760405162461bcd60e51b815260206004820152600a6024820152691c994b595b9d195c995960b21b6044820152606401610911565b8061289257600360019054906101000a90046001600160a01b03166001600160a01b031663c90c20b16040518163ffffffff1660e01b8152600401600060405180830381600087803b15801561287957600080fd5b505af115801561288d573d6000803e3d6000fd5b505050505b506000805460ff60a01b19169055565b6003546040516317b9b84b60e31b81523060048201526001600160a01b03858116602483015284811660448301526064820184905260009283926101009091049091169063bdcdc258906084016020604051808303816000875af115801561290e573d6000803e3d6000fd5b505050506040513d601f19601f820116820180604052508101906129329190613991565b9050801561294f576129476003605b83613148565b915050610e75565b836001600160a01b0316856001600160a01b03161415612975576129476002605c612da1565b6000856001600160a01b0316876001600160a01b0316141561299a57506000196129c2565b506001600160a01b038086166000908152601160209081526040808320938a16835292905220545b6000806000806129d285896130aa565b909450925060008460038111156129eb576129eb6139aa565b14612a09576129fc6009605c612da1565b9650505050505050610e75565b6001600160a01b038a16600090815260106020526040902054612a2c90896130aa565b90945091506000846003811115612a4557612a456139aa565b14612a56576129fc6009605d612da1565b6001600160a01b038916600090815260106020526040902054612a7990896131ea565b90945090506000846003811115612a9257612a926139aa565b14612aa3576129fc6009605e612da1565b6001600160a01b03808b16600090815260106020526040808220859055918b168152208190556000198514612afb576001600160a01b03808b166000908152601160209081526040808320938f168352929052208390555b886001600160a01b03168a6001600160a01b03167fddf252ad1be2c89b69c2b068fc378daa952ba7f163c4a11628f55a4df523b3ef8a604051612b4091815260200190565b60405180910390a35060009a9950505050505050505050565b6000805460ff60a01b1916600160a01b17905580612bd557600360019054906101000a90046001600160a01b03166001600160a01b031663632e51426040518163ffffffff1660e01b8152600401600060405180830381600087803b158015612bc157600080fd5b505af1158015610c59573d6000803e3d6000fd5b50565b600080600360019054906101000a90046001600160a01b03169050806001600160a01b031663f851a4406040518163ffffffff1660e01b8152600401602060405180830381865afa158015612c31573d6000803e3d6000fd5b505050506040513d601f19601f82011682018060405250810190612c559190613ab8565b6001600160a01b0316336001600160a01b0316148015612cd25750806001600160a01b0316630a755ec26040518163ffffffff1660e01b8152600401602060405180830381865afa158015612cae573d6000803e3d6000fd5b505050506040513d601f19601f82011682018060405250810190612cd29190613947565b806112d557506000546001600160a01b0316331480156112d55750806001600160a01b031663cf6bfd2d6040518163ffffffff1660e01b8152600401602060405180830381865afa158015612d2b573d6000803e3d6000fd5b505050506040513d601f19601f820116820180604052508101906112d59190613947565b600080600080612d5f8686613210565b90925090506000826003811115612d7857612d786139aa565b14612d8957509150600090506127ac565b6000612d948261328c565b9350935050509250929050565b60007f45b96fe442630264581b197e84bbada861235052c5a1aadfff9ea4e40a969aa0836011811115612dd657612dd66139aa565b836061811115612de857612de86139aa565b60408051928352602083019190915260009082015260600160405180910390a1826011811115610ddb57610ddb6139aa565b60608167ffffffffffffffff811115612e3557612e35613a4d565b604051908082528060200260200182016040528015612e6857816020015b6060815260200190600190039081612e535790505b50905060005b82811015611d1c5760008030868685818110612e8c57612e8c613a80565b9050602002810190612e9e9190613ad5565b604051612eac929190613b1c565b600060405180830381855af49150503d8060008114612ee7576040519150601f19603f3d011682016040523d82523d6000602084013e612eec565b606091505b509150915081612f3857604481511015612f0557600080fd5b60048101905080806020019051810190612f1f9190613b2c565b60405162461bcd60e51b815260040161091191906135bc565b80848481518110612f4b57612f4b613a80565b602002602001018190525050508080612f6390613bce565b915050612e6e565b600087612f7957508561309f565b6000612f916040518060200160405280600081525090565b6000612fb2898987612fa38a8c6139ed565b612fad91906139ed565b6132a4565b935090506000816003811115612fca57612fca6139aa565b146130255760405162461bcd60e51b815260206004820152602560248201527f216164645468656e53756255496e74206f766572666c6f7720636865636b2066604482015264185a5b195960da1b6064820152608401610911565b61302f838c6132f7565b925090506000816003811115613047576130476139aa565b146130945760405162461bcd60e51b815260206004820152601d60248201527f21676574457870206f766572666c6f7720636865636b206661696c65640000006044820152606401610911565b5051915061309f9050565b979650505050505050565b6000808383116130c95760006130c084866139d6565b915091506127ac565b506003905060006127ac565b60408051602081019091526000815260405180602001604052806130fd8560000151856133c2565b90529392505050565b60008061311384846130d5565b9050610e758161328c565b60008061312b85856130d5565b905061313f6131398261328c565b84613404565b95945050505050565b60007f45b96fe442630264581b197e84bbada861235052c5a1aadfff9ea4e40a969aa084601181111561317d5761317d6139aa565b84606181111561318f5761318f6139aa565b604080519283526020830191909152810184905260600160405180910390a160038460118111156131c2576131c26139aa565b146131de578360118111156131d9576131d96139aa565b610e75565b610e75826103e86139ed565b600080838301848110613202576000925090506127ac565b6002600092509250506127ac565b60006132286040518060200160405280600081525090565b600080613239866000015186612771565b90925090506000826003811115613252576132526139aa565b14613271575060408051602081019091526000815290925090506127ac565b60408051602081019091529081526000969095509350505050565b805160009061196e90670de0b6b3a764000090613a96565b6000806000806132b487876131ea565b909250905060008260038111156132cd576132cd6139aa565b146132de57509150600090506132ef565b6132e881866130aa565b9350935050505b935093915050565b600061330f6040518060200160405280600081525090565b60008061332486670de0b6b3a7640000612771565b9092509050600082600381111561333d5761333d6139aa565b1461335c575060408051602081019091526000815290925090506127ac565b60008061336983886127b3565b90925090506000826003811115613382576133826139aa565b146133a557816040518060200160405280600081525095509550505050506127ac565b604080516020810190915290815260009890975095505050505050565b6000610ddb83836040518060400160405280601781526020017f6d756c7469706c69636174696f6e206f766572666c6f7700000000000000000081525061343a565b6000610ddb8383604051806040016040528060118152602001706164646974696f6e206f766572666c6f7760781b815250613496565b6000831580613447575082155b1561345457506000610ddb565b60006134608486613be9565b90508361346d8683613a96565b14839061348d5760405162461bcd60e51b815260040161091191906135bc565b50949350505050565b6000806134a384866139ed565b9050828582101561348d5760405162461bcd60e51b815260040161091191906135bc565b8280546134d3906138df565b90600052602060002090601f0160209004810192826134f5576000855561353b565b82601f1061350e5782800160ff1982351617855561353b565b8280016001018555821561353b579182015b8281111561353b578235825591602001919060010190613520565b5061354792915061354b565b5090565b5b80821115613547576000815560010161354c565b60005b8381101561357b578181015183820152602001613563565b8381111561358a576000848401525b50505050565b600081518084526135a8816020860160208601613560565b601f01601f19169290920160200192915050565b602081526000610ddb6020830184613590565b6001600160a01b0381168114612bd557600080fd5b600080604083850312156135f757600080fd5b8235613602816135cf565b946020939093013593505050565b60006020828403121561362257600080fd5b8135610ddb816135cf565b60008060006060848603121561364257600080fd5b833561364d816135cf565b9250602084013561365d816135cf565b929592945050506040919091013590565b60008083601f84011261368057600080fd5b50813567ffffffffffffffff81111561369857600080fd5b6020830191508360208285010111156127ac57600080fd5b600080600080604085870312156136c657600080fd5b843567ffffffffffffffff808211156136de57600080fd5b6136ea8883890161366e565b9096509450602087013591508082111561370357600080fd5b506137108782880161366e565b95989497509550505050565b60006020828403121561372e57600080fd5b5035919050565b60008060006040848603121561374a57600080fd5b83359250602084013567ffffffffffffffff81111561376857600080fd5b6137748682870161366e565b9497909650939450505050565b6020808252825182820181905260009190848201906040850190845b818110156137c35783516001600160e01b0319168352928401929184019160010161379d565b50909695505050505050565b600080602083850312156137e257600080fd5b823567ffffffffffffffff808211156137fa57600080fd5b818501915085601f83011261380e57600080fd5b81358181111561381d57600080fd5b8660208260051b850101111561383257600080fd5b60209290920196919550909350505050565b6000602080830181845280855180835260408601915060408160051b870101925083870160005b8281101561389957603f19888603018452613887858351613590565b9450928501929085019060010161386b565b5092979650505050505050565b600080604083850312156138b957600080fd5b82356138c4816135cf565b915060208301356138d4816135cf565b809150509250929050565b600181811c908216806138f357607f821691505b60208210811415611b2b57634e487b7160e01b600052602260045260246000fd5b6001600160a01b0394851681529284166020840152921660408201526001600160e01b0319909116606082015260800190565b60006020828403121561395957600080fd5b81518015158114610ddb57600080fd5b6020808252600e908201526d1b9bdd08185d5d1a1bdc9a5e995960921b604082015260600190565b6000602082840312156139a357600080fd5b5051919050565b634e487b7160e01b600052602160045260246000fd5b634e487b7160e01b600052601160045260246000fd5b6000828210156139e8576139e86139c0565b500390565b60008219821115613a0057613a006139c0565b500190565b6001600160a01b0385168152602081018490526060604082018190528101829052818360808301376000818301608090810191909152601f909201601f191601019392505050565b634e487b7160e01b600052604160045260246000fd5b600060ff821680613a7657613a766139c0565b6000190192915050565b634e487b7160e01b600052603260045260246000fd5b600082613ab357634e487b7160e01b600052601260045260246000fd5b500490565b600060208284031215613aca57600080fd5b8151610ddb816135cf565b6000808335601e19843603018112613aec57600080fd5b83018035915067ffffffffffffffff821115613b0757600080fd5b6020019150368190038213156127ac57600080fd5b8183823760009101908152919050565b600060208284031215613b3e57600080fd5b815167ffffffffffffffff80821115613b5657600080fd5b818401915084601f830112613b6a57600080fd5b815181811115613b7c57613b7c613a4d565b604051601f8201601f19908116603f01168101908382118183101715613ba457613ba4613a4d565b81604052828152876020848701011115613bbd57600080fd5b61309f836020830160208801613560565b6000600019821415613be257613be26139c0565b5060010190565b6000816000190483118215151615613c0357613c036139c0565b50029056fea164736f6c634300080a000a",
    "linkReferences": {}
  },
  "methodIdentifiers": {
    "_getExtensionFunctions()": "89f8132e",
    "_setAdminFee(uint256)": "91dd36c6",
    "_setInterestRateModel(address)": "f2b3abbd",
    "_setNameAndSymbol(string,string)": "34154d4c",
    "_setReserveFactor(uint256)": "fca7820b",
    "accrualBlockNumber()": "6c540baf",
    "accrueInterest()": "a6afed95",
    "adminFeeMantissa()": "8d02d9a1",
    "allowance(address,address)": "dd62ed3e",
    "approve(address,uint256)": "095ea7b3",
    "balanceOf(address)": "70a08231",
    "balanceOfUnderlying(address)": "3af9e669",
    "borrowBalanceCurrent(address)": "17bfdfbc",
    "borrowIndex()": "aa5af0fd",
    "borrowRatePerBlock()": "f8f9da28",
    "borrowRatePerBlockAfterBorrow(uint256)": "cfcd4c07",
    "comptroller()": "5fe3b567",
    "decimals()": "313ce567",
    "exchangeRateCurrent()": "bd6d894d",
    "feeSeizeShareMantissa()": "be99f119",
    "flash(uint256,bytes)": "3c3b4b89",
    "getAccountSnapshot(address)": "c37f68e2",
    "getTotalUnderlyingSupplied()": "4aeb3d9a",
    "interestRateModel()": "f3fdb15a",
    "ionicAdmin()": "c91a424f",
    "ionicFeeMantissa()": "c3bf11cd",
    "multicall(bytes[])": "ac9650d8",
    "name()": "06fdde03",
    "protocolSeizeShareMantissa()": "6752e702",
    "registerInSFS()": "7f15e216",
    "reserveFactorMantissa()": "173b9904",
    "supplyRatePerBlock()": "ae9d70b0",
    "supplyRatePerBlockAfterDeposit(uint256)": "b1e23dbb",
    "supplyRatePerBlockAfterWithdraw(uint256)": "35daea64",
    "symbol()": "95d89b41",
    "totalAdminFees()": "61feacff",
    "totalBorrows()": "47bd3718",
    "totalBorrowsCurrent()": "73acee98",
    "totalIonicFees()": "9826394b",
    "totalReserves()": "8f840ddd",
    "totalSupply()": "18160ddd",
    "transfer(address,uint256)": "a9059cbb",
    "transferFrom(address,address,uint256)": "23b872dd",
    "underlying()": "6f307dc3"
  }
}