{
  "address": "0xf0AC0F92E7da747E6757379771e5c9e5ea35D85A",
  "abi": [
    {
      "type": "constructor",
      "inputs": [
        {
          "name": "_fpd",
          "type": "address",
          "internalType": "contract PoolDirectory"
        }
      ],
      "stateMutability": "nonpayable"
    },
    {
      "type": "function",
      "name": "claimAllRewardTokens",
      "inputs": [
        {
          "name": "user",
          "type": "address",
          "internalType": "address"
        }
      ],
      "outputs": [
        {
          "name": "",
          "type": "address[]",
          "internalType": "address[]"
        },
        {
          "name": "",
          "type": "uint256[]",
          "internalType": "uint256[]"
        }
      ],
      "stateMutability": "nonpayable"
    },
    {
      "type": "function",
      "name": "claimRewardsForMarket",
      "inputs": [
        {
          "name": "user",
          "type": "address",
          "internalType": "address"
        },
        {
          "name": "market",
          "type": "address",
          "internalType": "contract ERC20"
        },
        {
          "name": "flywheels",
          "type": "address[]",
          "internalType": "contract IonicFlywheelCore[]"
        },
        {
          "name": "accrue",
          "type": "bool[]",
          "internalType": "bool[]"
        }
      ],
      "outputs": [
        {
          "name": "",
          "type": "address[]",
          "internalType": "contract IonicFlywheelCore[]"
        },
        {
          "name": "rewardTokens",
          "type": "address[]",
          "internalType": "address[]"
        },
        {
          "name": "rewards",
          "type": "uint256[]",
          "internalType": "uint256[]"
        }
      ],
      "stateMutability": "nonpayable"
    },
    {
      "type": "function",
      "name": "claimRewardsForMarkets",
      "inputs": [
        {
          "name": "user",
          "type": "address",
          "internalType": "address"
        },
        {
          "name": "markets",
          "type": "address[]",
          "internalType": "contract ERC20[]"
        },
        {
          "name": "flywheels",
          "type": "address[]",
          "internalType": "contract IonicFlywheelCore[]"
        },
        {
          "name": "accrue",
          "type": "bool[]",
          "internalType": "bool[]"
        }
      ],
      "outputs": [
        {
          "name": "",
          "type": "address[]",
          "internalType": "contract IonicFlywheelCore[]"
        },
        {
          "name": "rewardTokens",
          "type": "address[]",
          "internalType": "address[]"
        },
        {
          "name": "rewards",
          "type": "uint256[]",
          "internalType": "uint256[]"
        }
      ],
      "stateMutability": "nonpayable"
    },
    {
      "type": "function",
      "name": "claimRewardsForPool",
      "inputs": [
        {
          "name": "user",
          "type": "address",
          "internalType": "address"
        },
        {
          "name": "comptroller",
          "type": "address",
          "internalType": "contract IonicComptroller"
        }
      ],
      "outputs": [
        {
          "name": "",
          "type": "address[]",
          "internalType": "contract IonicFlywheelCore[]"
        },
        {
          "name": "",
          "type": "address[]",
          "internalType": "address[]"
        },
        {
          "name": "",
          "type": "uint256[]",
          "internalType": "uint256[]"
        }
      ],
      "stateMutability": "nonpayable"
    },
    {
      "type": "function",
      "name": "claimRewardsOfRewardToken",
      "inputs": [
        {
          "name": "user",
          "type": "address",
          "internalType": "address"
        },
        {
          "name": "rewardToken",
          "type": "address",
          "internalType": "address"
        }
      ],
      "outputs": [
        {
          "name": "rewardsClaimed",
          "type": "uint256",
          "internalType": "uint256"
        }
      ],
      "stateMutability": "nonpayable"
    },
    {
      "type": "function",
      "name": "fpd",
      "inputs": [],
      "outputs": [
        {
          "name": "",
          "type": "address",
          "internalType": "contract PoolDirectory"
        }
      ],
      "stateMutability": "view"
    },
    {
      "type": "function",
      "name": "getAdjustedUserNetApr",
      "inputs": [
        {
          "name": "user",
          "type": "address",
          "internalType": "address"
        },
        {
          "name": "blocksPerYear",
          "type": "int256",
          "internalType": "int256"
        },
        {
          "name": "offchainRewardsAprMarkets",
          "type": "address[]",
          "internalType": "address[]"
        },
        {
          "name": "offchainRewardsAprs",
          "type": "int256[]",
          "internalType": "int256[]"
        }
      ],
      "outputs": [
        {
          "name": "",
          "type": "int256",
          "internalType": "int256"
        }
      ],
      "stateMutability": "nonpayable"
    },
    {
      "type": "function",
      "name": "getAllRewardTokens",
      "inputs": [],
      "outputs": [
        {
          "name": "uniqueRewardTokens",
          "type": "address[]",
          "internalType": "address[]"
        }
      ],
      "stateMutability": "view"
    },
    {
      "type": "function",
      "name": "getMarketRewardsInfo",
      "inputs": [
        {
          "name": "markets",
          "type": "address[]",
          "internalType": "contract ICErc20[]"
        }
      ],
      "outputs": [
        {
          "name": "",
          "type": "tuple[]",
          "internalType": "struct IonicFlywheelLensRouter.MarketRewardsInfo[]",
          "components": [
            {
              "name": "underlyingPrice",
              "type": "uint256",
              "internalType": "uint256"
            },
            {
              "name": "market",
              "type": "address",
              "internalType": "contract ICErc20"
            },
            {
              "name": "rewardsInfo",
              "type": "tuple[]",
              "internalType": "struct IonicFlywheelLensRouter.RewardsInfo[]",
              "components": [
                {
                  "name": "rewardSpeedPerSecondPerToken",
                  "type": "uint256",
                  "internalType": "uint256"
                },
                {
                  "name": "rewardTokenPrice",
                  "type": "uint256",
                  "internalType": "uint256"
                },
                {
                  "name": "formattedAPR",
                  "type": "uint256",
                  "internalType": "uint256"
                },
                {
                  "name": "flywheel",
                  "type": "address",
                  "internalType": "address"
                },
                {
                  "name": "rewardToken",
                  "type": "address",
                  "internalType": "address"
                }
              ]
            }
          ]
        }
      ],
      "stateMutability": "nonpayable"
    },
    {
      "type": "function",
      "name": "getPoolMarketRewardsInfo",
      "inputs": [
        {
          "name": "comptroller",
          "type": "address",
          "internalType": "contract IonicComptroller"
        }
      ],
      "outputs": [
        {
          "name": "",
          "type": "tuple[]",
          "internalType": "struct IonicFlywheelLensRouter.MarketRewardsInfo[]",
          "components": [
            {
              "name": "underlyingPrice",
              "type": "uint256",
              "internalType": "uint256"
            },
            {
              "name": "market",
              "type": "address",
              "internalType": "contract ICErc20"
            },
            {
              "name": "rewardsInfo",
              "type": "tuple[]",
              "internalType": "struct IonicFlywheelLensRouter.RewardsInfo[]",
              "components": [
                {
                  "name": "rewardSpeedPerSecondPerToken",
                  "type": "uint256",
                  "internalType": "uint256"
                },
                {
                  "name": "rewardTokenPrice",
                  "type": "uint256",
                  "internalType": "uint256"
                },
                {
                  "name": "formattedAPR",
                  "type": "uint256",
                  "internalType": "uint256"
                },
                {
                  "name": "flywheel",
                  "type": "address",
                  "internalType": "address"
                },
                {
                  "name": "rewardToken",
                  "type": "address",
                  "internalType": "address"
                }
              ]
            }
          ]
        }
      ],
      "stateMutability": "nonpayable"
    },
    {
      "type": "function",
      "name": "getUserNetApr",
      "inputs": [
        {
          "name": "user",
          "type": "address",
          "internalType": "address"
        },
        {
          "name": "blocksPerYear",
          "type": "int256",
          "internalType": "int256"
        }
      ],
      "outputs": [
        {
          "name": "",
          "type": "int256",
          "internalType": "int256"
        }
      ],
      "stateMutability": "nonpayable"
    }
  ],
  "transactionHash": "0x047a3031d357c317081b204b786e85ba7228030c4c162acb59a4b50178d42e28",
  "args": [
    "0x39C353Cf9041CcF467A04d0e78B63d961E81458a"
  ],
  "numDeployments": 2,
  "bytecode": {
    "object": "0x60806040523480156200001157600080fd5b5060405162003f9f38038062003f9f83398101604081905262000034916200005a565b600080546001600160a01b0319166001600160a01b03929092169190911790556200008c565b6000602082840312156200006d57600080fd5b81516001600160a01b03811681146200008557600080fd5b9392505050565b613f03806200009c6000396000f3fe608060405234801561001057600080fd5b50600436106100a95760003560e01c80637e70aa49116100715780637e70aa49146101315780638260a696146101515780639cf1fd5314610164578063bdfc183914610185578063d1040bae14610198578063de858c63146101ab57600080fd5b80630d9d7fdc146100ae57806312edb24c146100d45780633610c407146100e95780634f471e6d1461010b5780637d3cab4c1461011e575b600080fd5b6100c16100bc366004613028565b6101d6565b6040519081526020015b60405180910390f35b6100dc610204565b6040516100cb9190613098565b6100fc6100f73660046130ab565b610630565b6040516100cb93929190613114565b6100fc6101193660046131ca565b6108ee565b6100c161012c36600461335a565b610ce9565b61014461013f366004613439565b611149565b6040516100cb91906134d2565b6100fc61015f36600461368b565b61129e565b610177610172366004613779565b61165d565b6040516100cb929190613796565b6100c16101933660046130ab565b61171c565b6101446101a6366004613779565b611c28565b6000546101be906001600160a01b031681565b6040516001600160a01b0390911681526020016100cb565b60408051600080825260208201818152828401909352916101f985858484610ce9565b925050505b92915050565b60008054604080516323b020d560e21b81529051606093926001600160a01b031691638ec0835491600480830192869291908290030181865afa15801561024f573d6000803e3d6000fd5b505050506040513d6000823e601f3d908101601f191682016040526102779190810190613940565b915060009050805b825181101561033857600083828151811061029c5761029c6139fb565b60200260200101516040015190506000816001600160a01b0316633605b51b6040518163ffffffff1660e01b8152600401600060405180830381865afa1580156102ea573d6000803e3d6000fd5b505050506040513d6000823e601f3d908101601f191682016040526103129190810190613a11565b90508051846103219190613ab5565b93505050808061033090613acd565b91505061027f565b506000816001600160401b038111156103535761035361325e565b60405190808252806020026020018201604052801561037c578160200160208202803683370190505b5090506000805b84518110156105825760008582815181106103a0576103a06139fb565b60200260200101516040015190506000816001600160a01b0316633605b51b6040518163ffffffff1660e01b8152600401600060405180830381865afa1580156103ee573d6000803e3d6000fd5b505050506040513d6000823e601f3d908101601f191682016040526104169190810190613a11565b905060005b815181101561056c576000828281518110610438576104386139fb565b60200260200101516001600160a01b031663f7c618c16040518163ffffffff1660e01b8152600401602060405180830381865afa15801561047d573d6000803e3d6000fd5b505050506040513d601f19601f820116820180604052508101906104a19190613ae8565b90506001600160a01b0381166104b7575061056c565b6000805b8851811015610512578881815181106104d6576104d66139fb565b60200260200101516001600160a01b0316836001600160a01b031614156105005760019150610512565b8061050a81613acd565b9150506104bb565b50806105575781888861052481613acd565b995081518110610536576105366139fb565b60200260200101906001600160a01b031690816001600160a01b0316815250505b5050808061056490613acd565b91505061041b565b505050808061057a90613acd565b915050610383565b50806001600160401b0381111561059b5761059b61325e565b6040519080825280602002602001820160405280156105c4578160200160208202803683370190505b50945060005b81811015610628578281815181106105e4576105e46139fb565b60200260200101518682815181106105fe576105fe6139fb565b6001600160a01b03909216602092830291909101909101528061062081613acd565b9150506105ca565b505050505090565b60608060606000846001600160a01b031663b0772d0b6040518163ffffffff1660e01b8152600401600060405180830381865afa158015610675573d6000803e3d6000fd5b505050506040513d6000823e601f3d908101601f1916820160405261069d9190810190613b05565b9050600081516001600160401b038111156106ba576106ba61325e565b6040519080825280602002602001820160405280156106e3578160200160208202803683370190505b5090506000866001600160a01b0316634a76e7276040518163ffffffff1660e01b8152600401600060405180830381865afa158015610726573d6000803e3d6000fd5b505050506040513d6000823e601f3d908101601f1916820160405261074e9190810190613a11565b9050600081516001600160401b0381111561076b5761076b61325e565b604051908082528060200260200182016040528015610794578160200160208202803683370190505b509050600082516001600160401b038111156107b2576107b261325e565b6040519080825280602002602001820160405280156107db578160200160208202803683370190505b50905060005b835181101561086c578381815181106107fc576107fc6139fb565b6020026020010151838281518110610816576108166139fb565b60200260200101906001600160a01b031690816001600160a01b031681525050600182828151811061084a5761084a6139fb565b911515602092830291909101909101528061086481613acd565b9150506107e1565b5060005b85518110156108cf5785818151811061088b5761088b6139fb565b60200260200101518582815181106108a5576108a56139fb565b6001600160a01b0390921660209283029190910190910152806108c781613acd565b915050610870565b506108dc8a85848461129e565b97509750975050505050509250925092565b6060808085806001600160401b0381111561090b5761090b61325e565b604051908082528060200260200182016040528015610934578160200160208202803683370190505b509150806001600160401b0381111561094f5761094f61325e565b604051908082528060200260200182016040528015610978578160200160208202803683370190505b50925060005b81811015610c9957600087878381811061099a5761099a6139fb565b90506020020160208101906109af9190613b93565b15610a58578989838181106109c6576109c66139fb565b90506020020160208101906109db9190613779565b604051632e6f912b60e21b81526001600160a01b038d811660048301528e81166024830152919091169063b9be44ac906044016020604051808303816000875af1158015610a2d573d6000803e3d6000fd5b505050506040513d601f19601f82011682018060405250810190610a519190613bae565b9050610af0565b898983818110610a6a57610a6a6139fb565b9050602002016020810190610a7f9190613779565b604051630ff6b5a760e31b81526001600160a01b038e811660048301529190911690637fb5ad38906024016020604051808303816000875af1158015610ac9573d6000803e3d6000fd5b505050506040513d601f19601f82011682018060405250810190610aed9190613bae565b90505b80848381518110610b0357610b036139fb565b60200260200101511015610b175780610b32565b838281518110610b2957610b296139fb565b60200260200101515b848381518110610b4457610b446139fb565b602002602001018181525050898983818110610b6257610b626139fb565b9050602002016020810190610b779190613779565b604051633bd73ee360e21b81526001600160a01b038e81166004830152919091169063ef5cfb8c90602401600060405180830381600087803b158015610bbc57600080fd5b505af1158015610bd0573d6000803e3d6000fd5b50505050898983818110610be657610be66139fb565b9050602002016020810190610bfb9190613779565b6001600160a01b031663f7c618c16040518163ffffffff1660e01b8152600401602060405180830381865afa158015610c38573d6000803e3d6000fd5b505050506040513d601f19601f82011682018060405250810190610c5c9190613ae8565b858381518110610c6e57610c6e6139fb565b6001600160a01b03909216602092830291909101909101525080610c9181613acd565b91505061097e565b5087878484838380806020026020016040519081016040528093929190818152602001838360200280828437600092019190915250929a5093985091965050505050505096509650969350505050565b6040805160a0810182526000808252602082018190529181018290526060808201526080810182905260008060009054906101000a90046001600160a01b03166001600160a01b0316638ec083546040518163ffffffff1660e01b8152600401600060405180830381865afa158015610d66573d6000803e3d6000fd5b505050506040513d6000823e601f3d908101601f19168201604052610d8e9190810190613940565b91505060005b8151811015611107576000828281518110610db157610db16139fb565b6020026020010151604001519050806001600160a01b0316637dc0d1d06040518163ffffffff1660e01b8152600401602060405180830381865afa158015610dfd573d6000803e3d6000fd5b505050506040513d601f19601f82011682018060405250810190610e219190613ae8565b84604001906001600160a01b031690816001600160a01b031681525050806001600160a01b031663b0772d0b6040518163ffffffff1660e01b8152600401600060405180830381865afa158015610e7c573d6000803e3d6000fd5b505050506040513d6000823e601f3d908101601f19168201604052610ea49190810190613b05565b606085015260005b8460600151518110156110f2576000805b8951811015610f455786606001518381518110610edc57610edc6139fb565b60200260200101516001600160a01b03168a8281518110610eff57610eff6139fb565b60200260200101516001600160a01b03161415610f3357888181518110610f2857610f286139fb565b602002602001015191505b80610f3d81613acd565b915050610ebd565b50670de0b6b3a764000086604001516001600160a01b031663fc57d4df88606001518581518110610f7857610f786139fb565b60200260200101516040518263ffffffff1660e01b8152600401610fab91906001600160a01b0391909116815260200190565b602060405180830381865afa158015610fc8573d6000803e3d6000fd5b505050506040513d601f19601f82011682018060405250810190610fec9190613bae565b87606001518481518110611002576110026139fb565b6020908102919091010151604051633af9e66960e01b81526001600160a01b038f8116600483015290911690633af9e66990602401602060405180830381865afa158015611054573d6000803e3d6000fd5b505050506040513d601f19601f820116820180604052508101906110789190613bae565b6110829190613bc7565b61108c9190613bfc565b8651879061109b908390613c2a565b905250606086015180516110ca918d91859081106110bb576110bb6139fb565b6020026020010151838d611c9e565b866020018181516110db9190613c2a565b9052508190506110ea81613acd565b915050610eac565b505080806110ff90613acd565b915050610d94565b50815161111957600092505050611141565b8151602083015161113290670de0b6b3a7640000613c6b565b61113c9190613bfc565b925050505b949350505050565b60606000805b835181101561128c57600084828151811061116c5761116c6139fb565b6020026020010151905060006001600160a01b0316836001600160a01b031614156111fa57806001600160a01b0316635fe3b5676040518163ffffffff1660e01b8152600401602060405180830381865afa1580156111cf573d6000803e3d6000fd5b505050506040513d601f19601f820116820180604052508101906111f39190613ae8565b9250611279565b826001600160a01b0316816001600160a01b0316635fe3b5676040518163ffffffff1660e01b8152600401602060405180830381865afa158015611242573d6000803e3d6000fd5b505050506040513d601f19601f820116820180604052508101906112669190613ae8565b6001600160a01b03161461127957600080fd5b508061128481613acd565b91505061114f565b506112978382611ea8565b9392505050565b606080606084516001600160401b038111156112bc576112bc61325e565b6040519080825280602002602001820160405280156112e5578160200160208202803683370190505b50905084516001600160401b038111156113015761130161325e565b60405190808252806020026020018201604052801561132a578160200160208202803683370190505b50915060005b85518110156116505760005b875181101561151f576000888281518110611359576113596139fb565b602002602001015190506000878481518110611377576113776139fb565b60200260200101511561141d57888481518110611396576113966139fb565b6020908102919091010151604051632e6f912b60e21b81526001600160a01b0384811660048301528d811660248301529091169063b9be44ac906044016020604051808303816000875af11580156113f2573d6000803e3d6000fd5b505050506040513d601f19601f820116820180604052508101906114169190613bae565b90506114aa565b88848151811061142f5761142f6139fb565b6020908102919091010151604051630ff6b5a760e31b81526001600160a01b038d8116600483015290911690637fb5ad38906024016020604051808303816000875af1158015611483573d6000803e3d6000fd5b505050506040513d601f19601f820116820180604052508101906114a79190613bae565b90505b808585815181106114bd576114bd6139fb565b602002602001015110156114d157806114ec565b8484815181106114e3576114e36139fb565b60200260200101515b8585815181106114fe576114fe6139fb565b6020026020010181815250505050808061151790613acd565b91505061133c565b50858181518110611532576115326139fb565b6020908102919091010151604051633bd73ee360e21b81526001600160a01b038a811660048301529091169063ef5cfb8c90602401600060405180830381600087803b15801561158157600080fd5b505af1158015611595573d6000803e3d6000fd5b505050508581815181106115ab576115ab6139fb565b60200260200101516001600160a01b031663f7c618c16040518163ffffffff1660e01b8152600401602060405180830381865afa1580156115f0573d6000803e3d6000fd5b505050506040513d601f19601f820116820180604052508101906116149190613ae8565b838281518110611626576116266139fb565b6001600160a01b03909216602092830291909101909101528061164881613acd565b915050611330565b5093969095509293505050565b606080600061166a610204565b9050600081516001600160401b038111156116875761168761325e565b6040519080825280602002602001820160405280156116b0578160200160208202803683370190505b50905060005b8251811015611711576116e2868483815181106116d5576116d56139fb565b602002602001015161171c565b8282815181106116f4576116f46139fb565b60209081029190910101528061170981613acd565b9150506116b6565b509094909350915050565b6040516370a0823160e01b81526001600160a01b03838116600483015260009182918416906370a0823190602401602060405180830381865afa158015611767573d6000803e3d6000fd5b505050506040513d601f19601f8201168201806040525081019061178b9190613bae565b905060008060009054906101000a90046001600160a01b03166001600160a01b0316638ec083546040518163ffffffff1660e01b8152600401600060405180830381865afa1580156117e1573d6000803e3d6000fd5b505050506040513d6000823e601f3d908101601f191682016040526118099190810190613940565b91505060005b8151811015611ba357600082828151811061182c5761182c6139fb565b602002602001015160400151905060606000826001600160a01b031663b0772d0b6040518163ffffffff1660e01b8152600401600060405180830381865afa15801561187c573d6000803e3d6000fd5b505050506040513d6000823e601f3d908101601f191682016040526118a49190810190613b05565b905080516001600160401b038111156118bf576118bf61325e565b6040519080825280602002602001820160405280156118e8578160200160208202803683370190505b50915060005b815181101561194d57818181518110611909576119096139fb565b6020026020010151838281518110611923576119236139fb565b6001600160a01b03909216602092830291909101909101528061194581613acd565b9150506118ee565b50506000826001600160a01b0316634a76e7276040518163ffffffff1660e01b8152600401600060405180830381865afa15801561198f573d6000803e3d6000fd5b505050506040513d6000823e601f3d908101601f191682016040526119b79190810190613a11565b905060005b8151811015611b8c5760008282815181106119d9576119d96139fb565b60200260200101519050896001600160a01b0316816001600160a01b031663f7c618c16040518163ffffffff1660e01b8152600401602060405180830381865afa158015611a2b573d6000803e3d6000fd5b505050506040513d601f19601f82011682018060405250810190611a4f9190613ae8565b6001600160a01b03161415611b795760005b8451811015611b1c57816001600160a01b031663b9be44ac868381518110611a8b57611a8b6139fb565b60200260200101518e6040518363ffffffff1660e01b8152600401611ac69291906001600160a01b0392831681529116602082015260400190565b6020604051808303816000875af1158015611ae5573d6000803e3d6000fd5b505050506040513d601f19601f82011682018060405250810190611b099190613bae565b5080611b1481613acd565b915050611a61565b50604051633bd73ee360e21b81526001600160a01b038c8116600483015282169063ef5cfb8c90602401600060405180830381600087803b158015611b6057600080fd5b505af1158015611b74573d6000803e3d6000fd5b505050505b5080611b8481613acd565b9150506119bc565b505050508080611b9b90613acd565b91505061180f565b506040516370a0823160e01b81526001600160a01b038681166004830152600091908616906370a0823190602401602060405180830381865afa158015611bee573d6000803e3d6000fd5b505050506040513d601f19601f82011682018060405250810190611c129190613bae565b9050611c1e8382613cf0565b9695505050505050565b60606000826001600160a01b031663b0772d0b6040518163ffffffff1660e01b8152600401600060405180830381865afa158015611c6a573d6000803e3d6000fd5b505050506040513d6000823e601f3d908101601f19168201604052611c929190810190613b05565b90506112978184611ea8565b600080846001600160a01b0316635fe3b5676040518163ffffffff1660e01b8152600401602060405180830381865afa158015611cdf573d6000803e3d6000fd5b505050506040513d601f19601f82011682018060405250810190611d039190613ae8565b90506000816001600160a01b0316637dc0d1d06040518163ffffffff1660e01b8152600401602060405180830381865afa158015611d45573d6000803e3d6000fd5b505050506040513d601f19601f82011682018060405250810190611d699190613ae8565b9050600085611d7989898861266b565b611d8289612a0b565b611d8c9190613c2a565b611d969190613c2a565b60405163fc57d4df60e01b81526001600160a01b0389811660048301529192506ec097ce7bc90715b34b9f10000000009184169063fc57d4df90602401602060405180830381865afa158015611df0573d6000803e3d6000fd5b505050506040513d601f19601f82011682018060405250810190611e149190613bae565b604051633af9e66960e01b81526001600160a01b038b811660048301528a1690633af9e66990602401602060405180830381865afa158015611e5a573d6000803e3d6000fd5b505050506040513d601f19601f82011682018060405250810190611e7e9190613bae565b611e889084613c6b565b611e929190613c6b565b611e9c9190613bfc565b98975050505050505050565b60606001600160a01b0382161580611ebf57508251155b15611f11576040805160008082526020820190925290611f09565b60408051606080820183526000808352602083015291810191909152815260200190600190039081611eda5790505b5090506101fe565b6000826001600160a01b0316634a76e7276040518163ffffffff1660e01b8152600401600060405180830381865afa158015611f51573d6000803e3d6000fd5b505050506040513d6000823e601f3d908101601f19168201604052611f799190810190613a11565b9050600081516001600160401b03811115611f9657611f9661325e565b604051908082528060200260200182016040528015611fbf578160200160208202803683370190505b509050600082516001600160401b03811115611fdd57611fdd61325e565b604051908082528060200260200182016040528015612006578160200160208202803683370190505b509050600083516001600160401b038111156120245761202461325e565b60405190808252806020026020018201604052801561204d578160200160208202803683370190505b5090506000866001600160a01b0316637dc0d1d06040518163ffffffff1660e01b8152600401602060405180830381865afa158015612090573d6000803e3d6000fd5b505050506040513d601f19601f820116820180604052508101906120b49190613ae8565b9050600088516001600160401b038111156120d1576120d161325e565b60405190808252806020026020018201604052801561211e57816020015b604080516060808201835260008083526020830152918101919091528152602001906001900390816120ef5790505b50905060005b895181101561265e57600087516001600160401b038111156121485761214861325e565b6040519080825280602002602001820160405280156121bd57816020015b6121aa6040518060a0016040528060008152602001600081526020016000815260200160006001600160a01b0316815260200160006001600160a01b031681525090565b8152602001906001900390816121665790505b50905060008b83815181106121d4576121d46139fb565b602002602001015190506000856001600160a01b031663aea91078836001600160a01b0316636f307dc36040518163ffffffff1660e01b8152600401602060405180830381865afa15801561222d573d6000803e3d6000fd5b505050506040513d601f19601f820116820180604052508101906122519190613ae8565b6040516001600160e01b031960e084901b1681526001600160a01b039091166004820152602401602060405180830381865afa158015612295573d6000803e3d6000fd5b505050506040513d601f19601f820116820180604052508101906122b99190613bae565b90508361248c5760005b8a5181101561248a5760008b82815181106122e0576122e06139fb565b60200260200101516001600160a01b031663f7c618c16040518163ffffffff1660e01b8152600401602060405180830381865afa158015612325573d6000803e3d6000fd5b505050506040513d601f19601f820116820180604052508101906123499190613ae8565b9050808b838151811061235e5761235e6139fb565b6001600160a01b0392831660209182029290920101526040516315d5220f60e31b815282821660048201529089169063aea9107890602401602060405180830381865afa1580156123b3573d6000803e3d6000fd5b505050506040513d601f19601f820116820180604052508101906123d79190613bae565b8a83815181106123e9576123e96139fb565b602002602001018181525050806001600160a01b031663313ce5676040518163ffffffff1660e01b8152600401602060405180830381865afa158015612433573d6000803e3d6000fd5b505050506040513d601f19601f820116820180604052508101906124579190613d07565b60ff1689838151811061246c5761246c6139fb565b6020908102919091010152508061248281613acd565b9150506122c3565b505b60005b8a518110156126065760008b82815181106124ac576124ac6139fb565b6020026020010151905060006124dc82868c86815181106124cf576124cf6139fb565b6020026020010151612d97565b90506000612566828d86815181106124f6576124f66139fb565b602002602001015187896001600160a01b031663bd6d894d6040518163ffffffff1660e01b8152600401602060405180830381865afa15801561253d573d6000803e3d6000fd5b505050506040513d601f19601f820116820180604052508101906125619190613bae565b612f53565b90506040518060a001604052808381526020018d868151811061258b5761258b6139fb565b60200260200101518152602001828152602001846001600160a01b031681526020018e86815181106125bf576125bf6139fb565b60200260200101516001600160a01b03168152508785815181106125e5576125e56139fb565b602002602001018190525050505080806125fe90613acd565b91505061248f565b506040518060600160405280828152602001836001600160a01b031681526020018481525085858151811061263d5761263d6139fb565b6020026020010181905250505050808061265690613acd565b915050612124565b5098975050505050505050565b6040516305eff7ef60e21b81526001600160a01b03848116600483015260009182918516906317bfdfbc90602401602060405180830381865afa1580156126b6573d6000803e3d6000fd5b505050506040513d601f19601f820116820180604052508101906126da9190613bae565b604051633af9e66960e01b81526001600160a01b038781166004830152919250600091861690633af9e66990602401602060405180830381865afa158015612726573d6000803e3d6000fd5b505050506040513d601f19601f8201168201806040525081019061274a9190613bae565b90506000856001600160a01b031663ae9d70b06040518163ffffffff1660e01b8152600401602060405180830381865afa15801561278c573d6000803e3d6000fd5b505050506040513d601f19601f820116820180604052508101906127b09190613bae565b90506000866001600160a01b031663f8f9da286040518163ffffffff1660e01b8152600401602060405180830381865afa1580156127f2573d6000803e3d6000fd5b505050506040513d601f19601f820116820180604052508101906128169190613bae565b90506000876001600160a01b0316635fe3b5676040518163ffffffff1660e01b8152600401602060405180830381865afa158015612858573d6000803e3d6000fd5b505050506040513d601f19601f8201168201806040525081019061287c9190613ae8565b90506000816001600160a01b0316637dc0d1d06040518163ffffffff1660e01b8152600401602060405180830381865afa1580156128be573d6000803e3d6000fd5b505050506040513d601f19601f820116820180604052508101906128e29190613ae8565b60405163fc57d4df60e01b81526001600160a01b038b8116600483015291925060009183169063fc57d4df90602401602060405180830381865afa15801561292e573d6000803e3d6000fd5b505050506040513d601f19601f820116820180604052508101906129529190613bae565b90506000670de0b6b3a76400006129698389613bc7565b6129739190613d2a565b90506000670de0b6b3a764000061298a848b613bc7565b6129949190613d2a565b90506000670de0b6b3a76400006129ab8985613bc7565b6129b59190613d2a565b90506000670de0b6b3a76400006129cc8985613bc7565b6129d69190613d2a565b9050838d6129e48385613d3e565b6129ee9190613c6b565b6129f89190613bfc565b9f9e505050505050505050505050505050565b600080826001600160a01b0316635fe3b5676040518163ffffffff1660e01b8152600401602060405180830381865afa158015612a4c573d6000803e3d6000fd5b505050506040513d601f19601f82011682018060405250810190612a709190613ae8565b90506000816001600160a01b0316637dc0d1d06040518163ffffffff1660e01b8152600401602060405180830381865afa158015612ab2573d6000803e3d6000fd5b505050506040513d601f19601f82011682018060405250810190612ad69190613ae8565b60405163fc57d4df60e01b81526001600160a01b03868116600483015291925060009183169063fc57d4df90602401602060405180830381865afa158015612b22573d6000803e3d6000fd5b505050506040513d601f19601f82011682018060405250810190612b469190613bae565b90506000836001600160a01b0316634a76e7276040518163ffffffff1660e01b8152600401600060405180830381865afa158015612b88573d6000803e3d6000fd5b505050506040513d6000823e601f3d908101601f19168201604052612bb09190810190613a11565b905060005b8151811015612d8d576000828281518110612bd257612bd26139fb565b602002602001015190506000816001600160a01b031663f7c618c16040518163ffffffff1660e01b8152600401602060405180830381865afa158015612c1c573d6000803e3d6000fd5b505050506040513d601f19601f82011682018060405250810190612c409190613ae8565b90506000612cb3838b846001600160a01b031663313ce5676040518163ffffffff1660e01b8152600401602060405180830381865afa158015612c87573d6000803e3d6000fd5b505050506040513d601f19601f82011682018060405250810190612cab9190613d07565b60ff16612d97565b6040516315d5220f60e31b81526001600160a01b038481166004830152919250600091612d689184918b169063aea9107890602401602060405180830381865afa158015612d05573d6000803e3d6000fd5b505050506040513d601f19601f82011682018060405250810190612d299190613bae565b898e6001600160a01b031663bd6d894d6040518163ffffffff1660e01b8152600401602060405180830381865afa15801561253d573d6000803e3d6000fd5b9050612d74818b613c2a565b9950505050508080612d8590613acd565b915050612bb5565b5050505050919050565b60405163dde684a560e01b81526001600160a01b03808416600483015260009184918391829188169063dde684a59060240160408051808303816000875af1158015612de7573d6000803e3d6000fd5b505050506040513d601f19601f82011682018060405250810190612e0b9190613d7d565b604051632e6f912b60e21b81526001600160a01b038681166004830152600060248301529294509092509088169063b9be44ac906044016020604051808303816000875af1158015612e61573d6000803e3d6000fd5b505050506040513d601f19601f82011682018060405250810190612e859190613bae565b5060405163dde684a560e01b81526001600160a01b03848116600483015260009182918a169063dde684a59060240160408051808303816000875af1158015612ed2573d6000803e3d6000fd5b505050506040513d601f19601f82011682018060405250810190612ef69190613d7d565b915091508263ffffffff168163ffffffff161115612f4757612f188382613dc1565b63ffffffff16612f3a612f2b8685613de6565b6001600160e01b031689612fc0565b612f449190613d2a565b95505b50505050509392505050565b600084612f6257506000611141565b6000612f6e8587613bc7565b90506000612f80826301e187e0613bc7565b90506000612f8e8683613d2a565b90506000612fa482670de0b6b3a7640000613bc7565b90506000612fb28783613d2a565b9a9950505050505050505050565b60006012821115612ff057612fd6601283613cf0565b612fe190600a613eea565b612feb9084613d2a565b611297565b612ffb826012613cf0565b61300690600a613eea565b6112979084613bc7565b6001600160a01b038116811461302557600080fd5b50565b6000806040838503121561303b57600080fd5b823561304681613010565b946020939093013593505050565b600081518084526020808501945080840160005b8381101561308d5781516001600160a01b031687529582019590820190600101613068565b509495945050505050565b6020815260006112976020830184613054565b600080604083850312156130be57600080fd5b82356130c981613010565b915060208301356130d981613010565b809150509250929050565b600081518084526020808501945080840160005b8381101561308d578151875295820195908201906001016130f8565b606080825284519082018190526000906020906080840190828801845b828110156131565781516001600160a01b031684529284019290840190600101613131565b5050508381038285015261316a8187613054565b9150508281036040840152611c1e81856130e4565b60008083601f84011261319157600080fd5b5081356001600160401b038111156131a857600080fd5b6020830191508360208260051b85010111156131c357600080fd5b9250929050565b600080600080600080608087890312156131e357600080fd5b86356131ee81613010565b955060208701356131fe81613010565b945060408701356001600160401b038082111561321a57600080fd5b6132268a838b0161317f565b9096509450606089013591508082111561323f57600080fd5b5061324c89828a0161317f565b979a9699509497509295939492505050565b634e487b7160e01b600052604160045260246000fd5b60405160a081016001600160401b03811182821017156132965761329661325e565b60405290565b604051601f8201601f191681016001600160401b03811182821017156132c4576132c461325e565b604052919050565b60006001600160401b038211156132e5576132e561325e565b5060051b60200190565b600082601f83011261330057600080fd5b81356020613315613310836132cc565b61329c565b82815260059290921b8401810191818101908684111561333457600080fd5b8286015b8481101561334f5780358352918301918301613338565b509695505050505050565b6000806000806080858703121561337057600080fd5b843561337b81613010565b9350602085810135935060408601356001600160401b038082111561339f57600080fd5b818801915088601f8301126133b357600080fd5b81356133c1613310826132cc565b81815260059190911b8301840190848101908b8311156133e057600080fd5b938501935b828510156134075784356133f881613010565b825293850193908501906133e5565b96505050606088013592508083111561341f57600080fd5b505061342d878288016132ef565b91505092959194509250565b6000602080838503121561344c57600080fd5b82356001600160401b0381111561346257600080fd5b8301601f8101851361347357600080fd5b8035613481613310826132cc565b81815260059190911b820183019083810190878311156134a057600080fd5b928401925b828410156134c75783356134b881613010565b825292840192908401906134a5565b979650505050505050565b60006020808301818452808551808352604092508286019150828160051b87010184880160005b838110156135a257888303603f19018552815180518452878101516001600160a01b03908116898601529087015160608886018190528151818701819052918a019290916080918288019160005b8181101561358a578651805185528e8101518f8601528d8101518e86015286810151841687860152850151831685850152958d019560a090930192600101613547565b505050978a01979550505091870191506001016134f9565b509098975050505050505050565b600082601f8301126135c157600080fd5b813560206135d1613310836132cc565b82815260059290921b840181019181810190868411156135f057600080fd5b8286015b8481101561334f57803561360781613010565b83529183019183016135f4565b8035801515811461362457600080fd5b919050565b600082601f83011261363a57600080fd5b8135602061364a613310836132cc565b82815260059290921b8401810191818101908684111561366957600080fd5b8286015b8481101561334f5761367e81613614565b835291830191830161366d565b600080600080608085870312156136a157600080fd5b84356136ac81613010565b93506020858101356001600160401b03808211156136c957600080fd5b818801915088601f8301126136dd57600080fd5b81356136eb613310826132cc565b81815260059190911b8301840190848101908b83111561370a57600080fd5b938501935b8285101561373157843561372281613010565b8252938501939085019061370f565b97505050604088013592508083111561374957600080fd5b61375589848a016135b0565b9450606088013592508083111561376b57600080fd5b505061342d87828801613629565b60006020828403121561378b57600080fd5b813561129781613010565b6040815260006137a96040830185613054565b82810360208401526137bb81856130e4565b95945050505050565b805161362481613010565b6000601f83818401126137e157600080fd5b825160206137f1613310836132cc565b82815260059290921b8501810191818101908784111561381057600080fd5b8287015b848110156139345780516001600160401b03808211156138345760008081fd5b9089019060a0601f19838d03810182131561384f5760008081fd5b613857613274565b88850151848111156138695760008081fd5b8501603f81018f1361387b5760008081fd5b898101518581111561388f5761388f61325e565b61389e8b858f8401160161329c565b9550808652604093508f848284010111156138b95760008081fd5b60005b818110156138d7578281018501518782018d01528b016138bc565b818111156138e85760008c83890101525b5050508381526138f98286016137c4565b898201526060935061390c8486016137c4565b9181019190915260808481015193820193909352920151908201528352918301918301613814565b50979650505050505050565b6000806040838503121561395357600080fd5b82516001600160401b038082111561396a57600080fd5b818501915085601f83011261397e57600080fd5b8151602061398e613310836132cc565b82815260059290921b840181019181810190898411156139ad57600080fd5b948201945b838610156139cb578551825294820194908201906139b2565b918801519196509093505050808211156139e457600080fd5b506139f1858286016137cf565b9150509250929050565b634e487b7160e01b600052603260045260246000fd5b60006020808385031215613a2457600080fd5b82516001600160401b03811115613a3a57600080fd5b8301601f81018513613a4b57600080fd5b8051613a59613310826132cc565b81815260059190911b82018301908381019087831115613a7857600080fd5b928401925b828410156134c7578351613a9081613010565b82529284019290840190613a7d565b634e487b7160e01b600052601160045260246000fd5b60008219821115613ac857613ac8613a9f565b500190565b6000600019821415613ae157613ae1613a9f565b5060010190565b600060208284031215613afa57600080fd5b815161129781613010565b60006020808385031215613b1857600080fd5b82516001600160401b03811115613b2e57600080fd5b8301601f81018513613b3f57600080fd5b8051613b4d613310826132cc565b81815260059190911b82018301908381019087831115613b6c57600080fd5b928401925b828410156134c7578351613b8481613010565b82529284019290840190613b71565b600060208284031215613ba557600080fd5b61129782613614565b600060208284031215613bc057600080fd5b5051919050565b6000816000190483118215151615613be157613be1613a9f565b500290565b634e487b7160e01b600052601260045260246000fd5b600082613c0b57613c0b613be6565b600160ff1b821460001984141615613c2557613c25613a9f565b500590565b600080821280156001600160ff1b0384900385131615613c4c57613c4c613a9f565b600160ff1b8390038412811615613c6557613c65613a9f565b50500190565b60006001600160ff1b0381841382841380821686840486111615613c9157613c91613a9f565b600160ff1b6000871282811687830589121615613cb057613cb0613a9f565b60008712925087820587128484161615613ccc57613ccc613a9f565b87850587128184161615613ce257613ce2613a9f565b505050929093029392505050565b600082821015613d0257613d02613a9f565b500390565b600060208284031215613d1957600080fd5b815160ff8116811461129757600080fd5b600082613d3957613d39613be6565b500490565b60008083128015600160ff1b850184121615613d5c57613d5c613a9f565b6001600160ff1b0384018313811615613d7757613d77613a9f565b50500390565b60008060408385031215613d9057600080fd5b82516001600160e01b0381168114613da757600080fd5b602084015190925063ffffffff811681146130d957600080fd5b600063ffffffff83811690831681811015613dde57613dde613a9f565b039392505050565b60006001600160e01b0383811690831681811015613dde57613dde613a9f565b600181815b80851115613e41578160001904821115613e2757613e27613a9f565b80851615613e3457918102915b93841c9390800290613e0b565b509250929050565b600082613e58575060016101fe565b81613e65575060006101fe565b8160018114613e7b5760028114613e8557613ea1565b60019150506101fe565b60ff841115613e9657613e96613a9f565b50506001821b6101fe565b5060208310610133831016604e8410600b8410161715613ec4575081810a6101fe565b613ece8383613e06565b8060001904821115613ee257613ee2613a9f565b029392505050565b60006112978383613e4956fea164736f6c634300080a000a",
    "linkReferences": {}
  },
  "methodIdentifiers": {
    "claimAllRewardTokens(address)": "9cf1fd53",
    "claimRewardsForMarket(address,address,address[],bool[])": "4f471e6d",
    "claimRewardsForMarkets(address,address[],address[],bool[])": "8260a696",
    "claimRewardsForPool(address,address)": "3610c407",
    "claimRewardsOfRewardToken(address,address)": "bdfc1839",
    "fpd()": "de858c63",
    "getAdjustedUserNetApr(address,int256,address[],int256[])": "7d3cab4c",
    "getAllRewardTokens()": "12edb24c",
    "getMarketRewardsInfo(address[])": "7e70aa49",
    "getPoolMarketRewardsInfo(address)": "d1040bae",
    "getUserNetApr(address,int256)": "0d9d7fdc"
  }
}