{
  "address": "0x917E178E24600e72Da012F4530f80362d0d8d4DB",
  "abi": [
    {
      "anonymous": false,
      "inputs": [
        {
          "indexed": false,
          "internalType": "uint8",
          "name": "version",
          "type": "uint8"
        }
      ],
      "name": "Initialized",
      "type": "event"
    },
    {
      "anonymous": false,
      "inputs": [
        {
          "indexed": true,
          "internalType": "address",
          "name": "previousOwner",
          "type": "address"
        },
        {
          "indexed": true,
          "internalType": "address",
          "name": "newOwner",
          "type": "address"
        }
      ],
      "name": "OwnershipTransferred",
      "type": "event"
    },
    {
      "inputs": [],
      "name": "W_NATIVE_ADDRESS",
      "outputs": [
        {
          "internalType": "address",
          "name": "",
          "type": "address"
        }
      ],
      "stateMutability": "view",
      "type": "function"
    },
    {
      "inputs": [
        {
          "internalType": "contract IRedemptionStrategy[]",
          "name": "strategies",
          "type": "address[]"
        },
        {
          "internalType": "bool[]",
          "name": "whitelisted",
          "type": "bool[]"
        }
      ],
      "name": "_whitelistRedemptionStrategies",
      "outputs": [],
      "stateMutability": "nonpayable",
      "type": "function"
    },
    {
      "inputs": [
        {
          "internalType": "contract IRedemptionStrategy",
          "name": "strategy",
          "type": "address"
        },
        {
          "internalType": "bool",
          "name": "whitelisted",
          "type": "bool"
        }
      ],
      "name": "_whitelistRedemptionStrategy",
      "outputs": [],
      "stateMutability": "nonpayable",
      "type": "function"
    },
    {
      "inputs": [
        {
          "internalType": "address",
          "name": "_wtoken",
          "type": "address"
        },
        {
          "internalType": "address",
          "name": "_quoter",
          "type": "address"
        }
      ],
      "name": "initialize",
      "outputs": [],
      "stateMutability": "nonpayable",
      "type": "function"
    },
    {
      "inputs": [],
      "name": "owner",
      "outputs": [
        {
          "internalType": "address",
          "name": "",
          "type": "address"
        }
      ],
      "stateMutability": "view",
      "type": "function"
    },
    {
      "inputs": [],
      "name": "quoter",
      "outputs": [
        {
          "internalType": "contract IUniswapV3Quoter",
          "name": "",
          "type": "address"
        }
      ],
      "stateMutability": "view",
      "type": "function"
    },
    {
      "inputs": [
        {
          "internalType": "address",
          "name": "",
          "type": "address"
        }
      ],
      "name": "redemptionStrategiesWhitelist",
      "outputs": [
        {
          "internalType": "bool",
          "name": "",
          "type": "bool"
        }
      ],
      "stateMutability": "view",
      "type": "function"
    },
    {
      "inputs": [],
      "name": "renounceOwnership",
      "outputs": [],
      "stateMutability": "nonpayable",
      "type": "function"
    },
    {
      "inputs": [
        {
          "internalType": "address",
          "name": "borrower",
          "type": "address"
        },
        {
          "internalType": "uint256",
          "name": "repayAmount",
          "type": "uint256"
        },
        {
          "internalType": "contract ICErc20",
          "name": "cErc20",
          "type": "address"
        },
        {
          "internalType": "contract ICErc20",
          "name": "cTokenCollateral",
          "type": "address"
        },
        {
          "internalType": "uint256",
          "name": "minOutputAmount",
          "type": "uint256"
        }
      ],
      "name": "safeLiquidate",
      "outputs": [
        {
          "internalType": "uint256",
          "name": "",
          "type": "uint256"
        }
      ],
      "stateMutability": "nonpayable",
      "type": "function"
    },
    {
      "inputs": [
        {
          "components": [
            {
              "internalType": "address",
              "name": "borrower",
              "type": "address"
            },
            {
              "internalType": "uint256",
              "name": "repayAmount",
              "type": "uint256"
            },
            {
              "internalType": "contract ICErc20",
              "name": "cErc20",
              "type": "address"
            },
            {
              "internalType": "contract ICErc20",
              "name": "cTokenCollateral",
              "type": "address"
            },
            {
              "internalType": "address",
              "name": "flashSwapContract",
              "type": "address"
            },
            {
              "internalType": "uint256",
              "name": "minProfitAmount",
              "type": "uint256"
            },
            {
              "internalType": "contract IRedemptionStrategy[]",
              "name": "redemptionStrategies",
              "type": "address[]"
            },
            {
              "internalType": "bytes[]",
              "name": "strategyData",
              "type": "bytes[]"
            },
            {
              "internalType": "contract IFundsConversionStrategy[]",
              "name": "debtFundingStrategies",
              "type": "address[]"
            },
            {
              "internalType": "bytes[]",
              "name": "debtFundingStrategiesData",
              "type": "bytes[]"
            }
          ],
          "internalType": "struct ILiquidator.LiquidateToTokensWithFlashSwapVars",
          "name": "vars",
          "type": "tuple"
        }
      ],
      "name": "safeLiquidateToTokensWithFlashLoan",
      "outputs": [
        {
          "internalType": "uint256",
          "name": "",
          "type": "uint256"
        }
      ],
      "stateMutability": "nonpayable",
      "type": "function"
    },
    {
      "inputs": [
        {
          "internalType": "uint256",
          "name": "fee0",
          "type": "uint256"
        },
        {
          "internalType": "uint256",
          "name": "fee1",
          "type": "uint256"
        },
        {
          "internalType": "bytes",
          "name": "data",
          "type": "bytes"
        }
      ],
      "name": "supV3FlashCallback",
      "outputs": [],
      "stateMutability": "nonpayable",
      "type": "function"
    },
    {
      "inputs": [
        {
          "internalType": "address",
          "name": "newOwner",
          "type": "address"
        }
      ],
      "name": "transferOwnership",
      "outputs": [],
      "stateMutability": "nonpayable",
      "type": "function"
    },
    {
      "inputs": [
        {
          "internalType": "uint256",
          "name": "fee0",
          "type": "uint256"
        },
        {
          "internalType": "uint256",
          "name": "fee1",
          "type": "uint256"
        },
        {
          "internalType": "bytes",
          "name": "data",
          "type": "bytes"
        }
      ],
      "name": "uniswapV3FlashCallback",
      "outputs": [],
      "stateMutability": "nonpayable",
      "type": "function"
    },
    {
      "stateMutability": "payable",
      "type": "receive"
    }
  ],
  "transactionHash": "0xf27e38400719c07c10bd5e1a98cc1d8b11bab4f01d34e96991662e0a8ab312ef",
  "args": [],
  "numDeployments": 3,
  "bytecode": {
    "object": "0x608060405234801561001057600080fd5b50612c8d806100206000396000f3fe6080604052600436106100c65760003560e01c8063715018a61161007f5780638da5cb5b116100595780638da5cb5b14610285578063c6bbd5a7146102a3578063e9cbafb0146102c3578063f2fde38b146102e357600080fd5b8063715018a61461021857806381738f131461022d5780638a0b90901461026557600080fd5b806320b7232514610125578063485cc9551461015857806355e9e8fe146101785780635a431365146101985780635b672371146101b857806367312529146101f857600080fd5b3661012057333b61011e5760405162461bcd60e51b815260206004820152601960248201527f53656e646572206973206e6f74206120636f6e74726163742e0000000000000060448201526064015b60405180910390fd5b005b600080fd5b34801561013157600080fd5b506101456101403660046122f4565b610303565b6040519081526020015b60405180910390f35b34801561016457600080fd5b5061011e61017336600461234f565b61053e565b34801561018457600080fd5b50610145610193366004612388565b610681565b3480156101a457600080fd5b5061011e6101b33660046123d2565b610ad8565b3480156101c457600080fd5b506101e86101d3366004612400565b60696020526000908152604090205460ff1681565b604051901515815260200161014f565b34801561020457600080fd5b5061011e61021336600461241d565b610b0b565b34801561022457600080fd5b5061011e610b1d565b34801561023957600080fd5b5060685461024d906001600160a01b031681565b6040516001600160a01b03909116815260200161014f565b34801561027157600080fd5b5061011e6102803660046124e9565b610b31565b34801561029157600080fd5b506033546001600160a01b031661024d565b3480156102af57600080fd5b50606a5461024d906001600160a01b031681565b3480156102cf57600080fd5b5061011e6102de36600461241d565b610c57565b3480156102ef57600080fd5b5061011e6102fe366004612400565b610ca7565b600080851161037a5760405162461bcd60e51b815260206004820152603860248201527f526570617920616d6f756e7420287472616e73616374696f6e2076616c75652960448201527f206d7573742062652067726561746572207468616e20302e00000000000000006064820152608401610115565b6000846001600160a01b0316636f307dc36040518163ffffffff1660e01b8152600401602060405180830381865afa1580156103ba573d6000803e3d6000fd5b505050506040513d601f19601f820116820180604052508101906103de9190612555565b90506103f56001600160a01b038216333089610d20565b60405163095ea7b360e01b81526001600160a01b0386811660048301526024820188905282169063095ea7b3906044016020604051808303816000875af1158015610444573d6000803e3d6000fd5b505050506040513d601f19601f820116820180604052508101906104689190612572565b50604051637af1e23160e11b81526001600160a01b03888116600483015260248201889052858116604483015286169063f5e3c462906064016020604051808303816000875af11580156104c0573d6000803e3d6000fd5b505050506040513d601f19601f820116820180604052508101906104e4919061258f565b156105275760405162461bcd60e51b81526020600482015260136024820152722634b8bab4b230ba34b7b7103330b4b632b21760691b6044820152606401610115565b6105318484610d8b565b9150505b95945050505050565b600054610100900460ff161580801561055e5750600054600160ff909116105b806105785750303b158015610578575060005460ff166001145b6105db5760405162461bcd60e51b815260206004820152602e60248201527f496e697469616c697a61626c653a20636f6e747261637420697320616c72656160448201526d191e481a5b9a5d1a585b1a5e995960921b6064820152608401610115565b6000805460ff1916600117905580156105fe576000805461ff0019166101001790555b610606610e80565b606880546001600160a01b038086166001600160a01b031992831617909255606a805492851692909116919091179055801561067c576000805461ff0019169055604051600181527f7f26b83ff96e1f2b6a682f133852f6798a09c465da95921460cefb38474024989060200160405180910390a15b505050565b6000808260200135116106e25760405162461bcd60e51b8152602060048201526024808201527f526570617920616d6f756e74206d7573742062652067726561746572207468616044820152633710181760e11b6064820152608401610115565b60208201356000806106f86101008601866125a8565b9050111561090f5761070e6101208501856125a8565b905061071e6101008601866125a8565b9050146107c85760405162461bcd60e51b815260206004820152606660248201527f46756e64696e67204946756e6473436f6e76657273696f6e537472617465677960448201527f20636f6e747261637420617272617920616e642073747261746567792064617460648201527f61206279746573206172726179206d757374206265207468652073616d65206c60848201526532b733ba341760d11b60a482015260c401610115565b60005b6107d96101008601866125a8565b90508110156109095760006107f26101208701876125a8565b83818110610802576108026125f2565b90506020028101906108149190612608565b8080601f0160208091040260200160405190810160405280939291908181526020018383808284376000920182905250939450610859925050506101008801886125a8565b84818110610869576108696125f2565b905060200201602081019061087e9190612400565b60405163180994cb60e11b81529091506001600160a01b038216906330132996906108af90889086906004016126a7565b6040805180830381865afa1580156108cb573d6000803e3d6000fd5b505050506040513d601f19601f820116820180604052508101906108ef91906126c0565b95509350829150610901905081612704565b9150506107cb565b50610983565b61091f6060850160408601612400565b6001600160a01b0316636f307dc36040518163ffffffff1660e01b8152600401602060405180830381865afa15801561095c573d6000803e3d6000fd5b505050506040513d601f19601f820116820180604052508101906109809190612555565b90505b6066829055606780546001600160a01b0319166001600160a01b03831617905560006109b560a0860160808701612400565b90506000826001600160a01b0316826001600160a01b0316630dfe16816040518163ffffffff1660e01b8152600401602060405180830381865afa158015610a01573d6000803e3d6000fd5b505050506040513d601f19601f82011682018060405250810190610a259190612555565b6001600160a01b0316149050816001600160a01b031663490e6cbc3083610a4d576000610a4f565b865b8415610a5c576000610a5e565b875b6000366040518663ffffffff1660e01b8152600401610a8195949392919061271f565b600060405180830381600087803b158015610a9b57600080fd5b505af1158015610aaf573d6000803e3d6000fd5b5050606554610ace92506001600160a01b0316905060a0880135610d8b565b9695505050505050565b610ae0610eaf565b6001600160a01b03919091166000908152606960205260409020805460ff1916911515919091179055565b610b1784848484610c57565b50505050565b610b25610eaf565b610b2f6000610f09565b565b610b39610eaf565b8215801590610b4757508281145b610bb95760405162461bcd60e51b815260206004820152603f60248201527f6c697374206f66207374726174656769657320656d707479206f72207768697460448201527f656c69737420646f6573206e6f74206d6174636820697473206c656e677468006064820152608401610115565b60005b83811015610c5057828282818110610bd657610bd66125f2565b9050602002016020810190610beb919061276b565b60696000878785818110610c0157610c016125f2565b9050602002016020810190610c169190612400565b6001600160a01b031681526020810191909152604001600020805460ff191691151591909117905580610c4881612704565b915050610bbc565b5050505050565b6000610c668260048186612788565b810190610c73919061299f565b9050610c80818686610f5b565b606580546001600160a01b0319166001600160a01b03929092169190911790555050505050565b610caf610eaf565b6001600160a01b038116610d145760405162461bcd60e51b815260206004820152602660248201527f4f776e61626c653a206e6577206f776e657220697320746865207a65726f206160448201526564647265737360d01b6064820152608401610115565b610d1d81610f09565b50565b6040516001600160a01b0380851660248301528316604482015260648101829052610b179085906323b872dd60e01b906084015b60408051601f198184030181529190526020810180516001600160e01b03166001600160e01b03199093169290921790915261146f565b6040516370a0823160e01b8152306004820152600090839082906001600160a01b038316906370a0823190602401602060405180830381865afa158015610dd6573d6000803e3d6000fd5b505050506040513d601f19601f82011682018060405250810190610dfa919061258f565b905083811015610e5e5760405162461bcd60e51b815260206004820152602960248201527f4d696e696d756d20746f6b656e206f757470757420616d6f756e74206e6f742060448201526839b0ba34b334b2b21760b91b6064820152608401610115565b8015610e7857610e786001600160a01b0383163383611541565b949350505050565b600054610100900460ff16610ea75760405162461bcd60e51b815260040161011590612ad7565b610b2f611571565b6033546001600160a01b03163314610b2f5760405162461bcd60e51b815260206004820181905260248201527f4f776e61626c653a2063616c6c6572206973206e6f7420746865206f776e65726044820152606401610115565b603380546001600160a01b038381166001600160a01b0319831681179093556040519116919082907f8be0079c531659141344cd1fd0a4f28419497f9722a3daafe3b4186f6b6457e090600090a35050565b606754606654610100850151516000926001600160a01b031691901561100257610100860151515b801561100057610fe98383896101000151600185610fa19190612b22565b81518110610fb157610fb16125f2565b60200260200101518a6101200151600186610fcc9190612b22565b81518110610fdc57610fdc6125f2565b60200260200101516115a1565b909350915080610ff881612b39565b915050610f83565b505b600086604001516001600160a01b0316636f307dc36040518163ffffffff1660e01b8152600401602060405180830381865afa158015611046573d6000803e3d6000fd5b505050506040513d601f19601f8201168201806040525081019061106a9190612555565b9050806001600160a01b0316836001600160a01b0316146111055760405162461bcd60e51b815260206004820152604960248201527f74686520646562742072657061796d656e742066756e64732073686f756c642060448201527f626520636f6e76657274656420746f2074686520756e6465726c79696e67206460648201526832b13a103a37b5b2b760b91b608482015260a401610115565b86602001518210156111595760405162461bcd60e51b815260206004820181905260248201527f646562742072657061796d656e7420616d6f756e74206e6f7420656e6f7567686044820152606401610115565b6040808801516020890151915163095ea7b360e01b81526001600160a01b039182166004820152602481019290925282169063095ea7b3906044016020604051808303816000875af11580156111b3573d6000803e3d6000fd5b505050506040513d601f19601f820116820180604052508101906111d79190612572565b50604087810151885160208a015160608b01519351637af1e23160e11b81526001600160a01b03928316600482015260248101919091529281166044840152169063f5e3c462906064016020604051808303816000875af1158015611240573d6000803e3d6000fd5b505050506040513d601f19601f82011682018060405250810190611264919061258f565b156112a75760405162461bcd60e51b81526020600482015260136024820152722634b8bab4b230ba34b7b7103330b4b632b21760691b6044820152606401610115565b60608701516040516370a0823160e01b81523060048201526000916001600160a01b0316906370a0823190602401602060405180830381865afa1580156112f2573d6000803e3d6000fd5b505050506040513d601f19601f82011682018060405250810190611316919061258f565b90506000811161135d5760405162461bcd60e51b815260206004820152601260248201527127379031aa37b5b2b7399039b2b4bd32b21760711b6044820152606401610115565b606088015160405163db006a7560e01b8152600481018390526000916001600160a01b03169063db006a75906024016020604051808303816000875af11580156113ab573d6000803e3d6000fd5b505050506040513d601f19601f820116820180604052508101906113cf919061258f565b90508015611447576040805162461bcd60e51b81526020600482015260248101919091527f4572726f722063616c6c696e672072656465656d696e67207365697a6564206360448201527f546f6b656e3a206572726f7220636f6465206e6f7420657175616c20746f20306064820152608401610115565b50505061146386606001518760c001518860e001518888611659565b925050505b9392505050565b60006114c4826040518060400160405280602081526020017f5361666545524332303a206c6f772d6c6576656c2063616c6c206661696c6564815250856001600160a01b0316611fc99092919063ffffffff16565b80519091501561067c57808060200190518101906114e29190612572565b61067c5760405162461bcd60e51b815260206004820152602a60248201527f5361666545524332303a204552433230206f7065726174696f6e20646964206e6044820152691bdd081cdd58d8d9595960b21b6064820152608401610115565b6040516001600160a01b03831660248201526044810182905261067c90849063a9059cbb60e01b90606401610d54565b600054610100900460ff166115985760405162461bcd60e51b815260040161011590612ad7565b610b2f33610f09565b6001600160a01b038216600090815260696020526040812054819060ff166115db5760405162461bcd60e51b815260040161011590612b50565b6000611635856389eabf0260e01b8989886040516024016115fe93929190612ba2565b60408051601f198184030181529190526020810180516001600160e01b03166001600160e01b031990931692909217909152611fd8565b90508080602001905181019061164b91906126c0565b925092505094509492505050565b60665460675460408051630dfe168160e01b81529051600093339390926001600160a01b03909116918491630dfe16819160048083019260209291908290030181865afa1580156116ae573d6000803e3d6000fd5b505050506040513d601f19601f820116820180604052508101906116d29190612555565b6001600160a01b031614156116f2576116eb8582612bc9565b90506117c2565b6067546040805163d21220a760e01b815290516001600160a01b0390921691339163d21220a79160048083019260209291908290030181865afa15801561173d573d6000803e3d6000fd5b505050506040513d601f19601f820116820180604052508101906117619190612555565b6001600160a01b0316141561177a576116eb8482612bc9565b60405162461bcd60e51b815260206004820152601d60248201527f77726f6e6720706f6f6c206f72205f666c61736853776170546f6b656e0000006044820152606401610115565b6000886001600160a01b0316636f307dc36040518163ffffffff1660e01b8152600401602060405180830381865afa158015611802573d6000803e3d6000fd5b505050506040513d601f19601f820116820180604052508101906118269190612555565b6040516370a0823160e01b81523060048201529091506000906001600160a01b038316906370a0823190602401602060405180830381865afa158015611870573d6000803e3d6000fd5b505050506040513d601f19601f82011682018060405250810190611894919061258f565b89519091501561199e57875189511461193b5760405162461bcd60e51b815260206004820152605b60248201527f49526564656d7074696f6e537472617465677920636f6e74726163742061727260448201527f617920616e64207374726174656779206461746120627974657320617272617960648201527f206d6e75737420746865207468652073616d65206c656e6774682e0000000000608482015260a401610115565b60005b895181101561199c5761198583838c848151811061195e5761195e6125f2565b60200260200101518c8581518110611978576119786125f2565b60200260200101516120c3565b90935091508061199481612704565b91505061193e565b505b836001600160a01b0316630dfe16816040518163ffffffff1660e01b8152600401602060405180830381865afa1580156119dc573d6000803e3d6000fd5b505050506040513d601f19601f82011682018060405250810190611a009190612555565b6001600160a01b0316826001600160a01b03161480611a915750836001600160a01b031663d21220a76040518163ffffffff1660e01b8152600401602060405180830381865afa158015611a58573d6000803e3d6000fd5b505050506040513d601f19601f82011682018060405250810190611a7c9190612555565b6001600160a01b0316826001600160a01b0316145b15611f4c576067546000906001600160a01b0384811691161415611b2d575060675460405163a9059cbb60e01b81526001600160a01b038681166004830152602482018690528592169063a9059cbb906044016020604051808303816000875af1158015611b03573d6000803e3d6000fd5b505050506040513d601f19601f82011682018060405250810190611b279190612572565b50611f3f565b6000856001600160a01b0316630dfe16816040518163ffffffff1660e01b8152600401602060405180830381865afa158015611b6d573d6000803e3d6000fd5b505050506040513d601f19601f82011682018060405250810190611b919190612555565b606a546001600160a01b03918216868316149250166330d07f2182611c1757876001600160a01b031663d21220a76040518163ffffffff1660e01b8152600401602060405180830381865afa158015611bee573d6000803e3d6000fd5b505050506040513d601f19601f82011682018060405250810190611c129190612555565b611c79565b876001600160a01b0316630dfe16816040518163ffffffff1660e01b8152600401602060405180830381865afa158015611c55573d6000803e3d6000fd5b505050506040513d601f19601f82011682018060405250810190611c799190612555565b83611ce557886001600160a01b0316630dfe16816040518163ffffffff1660e01b8152600401602060405180830381865afa158015611cbc573d6000803e3d6000fd5b505050506040513d601f19601f82011682018060405250810190611ce09190612555565b611d47565b886001600160a01b031663d21220a76040518163ffffffff1660e01b8152600401602060405180830381865afa158015611d23573d6000803e3d6000fd5b505050506040513d601f19601f82011682018060405250810190611d479190612555565b896001600160a01b031663ddca3f436040518163ffffffff1660e01b8152600401602060405180830381865afa158015611d85573d6000803e3d6000fd5b505050506040513d601f19601f82011682018060405250810190611da99190612be1565b6066546040516001600160e01b031960e087901b1681526001600160a01b03948516600482015293909216602484015262ffffff16604483015260648201526000608482015260a4016020604051808303816000875af1158015611e11573d6000803e3d6000fd5b505050506040513d601f19601f82011682018060405250810190611e35919061258f565b915082821115611ead5760405162461bcd60e51b815260206004820152603d60248201527f546f6b656e20666c6173686c6f616e2072657475726e20616d6f756e7420677260448201527f6561746572207468616e207365697a656420636f6c6c61746572616c2e0000006064820152608401610115565b604051630251596160e31b81526001600160a01b0387166004820181905282151560248301526044820184905260006064830181905260a0608484015260a48301529063128acb089060c40160408051808303816000875af1158015611f17573d6000803e3d6000fd5b505050506040513d601f19601f82011682018060405250810190611f3b9190612c06565b5050505b8295505050505050610535565b60405162461bcd60e51b815260206004820152604660248201527f74686520726564656d7074696f6e7320737472617465677920646964206e6f7460448201527f207377617020746f2074686520666c617368207377617070656420706f6f6c2060648201526561737365747360d01b608482015260a401610115565b6060610e788484600085612120565b60606001600160a01b0383163b6120405760405162461bcd60e51b815260206004820152602660248201527f416464726573733a2064656c65676174652063616c6c20746f206e6f6e2d636f6044820152651b9d1c9858dd60d21b6064820152608401610115565b600080846001600160a01b03168460405161205b9190612c2a565b600060405180830381855af49150503d8060008114612096576040519150601f19603f3d011682016040523d82523d6000602084013e61209b565b606091505b50915091506105358282604051806060016040528060278152602001612c5a602791396121fb565b6001600160a01b038216600090815260696020526040812054819060ff166120fd5760405162461bcd60e51b815260040161011590612b50565b6000611635856310badf4e60e01b8989886040516024016115fe93929190612ba2565b6060824710156121815760405162461bcd60e51b815260206004820152602660248201527f416464726573733a20696e73756666696369656e742062616c616e636520666f6044820152651c8818d85b1b60d21b6064820152608401610115565b600080866001600160a01b0316858760405161219d9190612c2a565b60006040518083038185875af1925050503d80600081146121da576040519150601f19603f3d011682016040523d82523d6000602084013e6121df565b606091505b50915091506121f087838387612234565b979650505050505050565b6060831561220a575081611468565b82511561221a5782518084602001fd5b8160405162461bcd60e51b81526004016101159190612c46565b606083156122a0578251612299576001600160a01b0385163b6122995760405162461bcd60e51b815260206004820152601d60248201527f416464726573733a2063616c6c20746f206e6f6e2d636f6e74726163740000006044820152606401610115565b5081610e78565b610e7883838151156122b55781518083602001fd5b8060405162461bcd60e51b81526004016101159190612c46565b6001600160a01b0381168114610d1d57600080fd5b80356122ef816122cf565b919050565b600080600080600060a0868803121561230c57600080fd5b8535612317816122cf565b945060208601359350604086013561232e816122cf565b9250606086013561233e816122cf565b949793965091946080013592915050565b6000806040838503121561236257600080fd5b823561236d816122cf565b9150602083013561237d816122cf565b809150509250929050565b60006020828403121561239a57600080fd5b813567ffffffffffffffff8111156123b157600080fd5b8201610140818503121561146857600080fd5b8015158114610d1d57600080fd5b600080604083850312156123e557600080fd5b82356123f0816122cf565b9150602083013561237d816123c4565b60006020828403121561241257600080fd5b8135611468816122cf565b6000806000806060858703121561243357600080fd5b8435935060208501359250604085013567ffffffffffffffff8082111561245957600080fd5b818701915087601f83011261246d57600080fd5b81358181111561247c57600080fd5b88602082850101111561248e57600080fd5b95989497505060200194505050565b60008083601f8401126124af57600080fd5b50813567ffffffffffffffff8111156124c757600080fd5b6020830191508360208260051b85010111156124e257600080fd5b9250929050565b600080600080604085870312156124ff57600080fd5b843567ffffffffffffffff8082111561251757600080fd5b6125238883890161249d565b9096509450602087013591508082111561253c57600080fd5b506125498782880161249d565b95989497509550505050565b60006020828403121561256757600080fd5b8151611468816122cf565b60006020828403121561258457600080fd5b8151611468816123c4565b6000602082840312156125a157600080fd5b5051919050565b6000808335601e198436030181126125bf57600080fd5b83018035915067ffffffffffffffff8211156125da57600080fd5b6020019150600581901b36038213156124e257600080fd5b634e487b7160e01b600052603260045260246000fd5b6000808335601e1984360301811261261f57600080fd5b83018035915067ffffffffffffffff82111561263a57600080fd5b6020019150368190038213156124e257600080fd5b60005b8381101561266a578181015183820152602001612652565b83811115610b175750506000910152565b6000815180845261269381602086016020860161264f565b601f01601f19169290920160200192915050565b828152604060208201526000610e78604083018461267b565b600080604083850312156126d357600080fd5b82516126de816122cf565b6020939093015192949293505050565b634e487b7160e01b600052601160045260246000fd5b6000600019821415612718576127186126ee565b5060010190565b60018060a01b038616815284602082015283604082015260806060820152816080820152818360a0830137600081830160a090810191909152601f909201601f19160101949350505050565b60006020828403121561277d57600080fd5b8135611468816123c4565b6000808585111561279857600080fd5b838611156127a557600080fd5b5050820193919092039150565b634e487b7160e01b600052604160045260246000fd5b604051610140810167ffffffffffffffff811182821017156127ec576127ec6127b2565b60405290565b604051601f8201601f1916810167ffffffffffffffff8111828210171561281b5761281b6127b2565b604052919050565b600067ffffffffffffffff82111561283d5761283d6127b2565b5060051b60200190565b600082601f83011261285857600080fd5b8135602061286d61286883612823565b6127f2565b82815260059290921b8401810191818101908684111561288c57600080fd5b8286015b848110156128b05780356128a3816122cf565b8352918301918301612890565b509695505050505050565b6000601f83818401126128cd57600080fd5b823560206128dd61286883612823565b82815260059290921b850181019181810190878411156128fc57600080fd5b8287015b8481101561299357803567ffffffffffffffff808211156129215760008081fd5b818a0191508a603f8301126129365760008081fd5b8582013560408282111561294c5761294c6127b2565b61295d828b01601f191689016127f2565b92508183528c818386010111156129745760008081fd5b8181850189850137506000908201870152845250918301918301612900565b50979650505050505050565b6000602082840312156129b157600080fd5b813567ffffffffffffffff808211156129c957600080fd5b9083019061014082860312156129de57600080fd5b6129e66127c8565b6129ef836122e4565b815260208301356020820152612a07604084016122e4565b6040820152612a18606084016122e4565b6060820152612a29608084016122e4565b608082015260a083013560a082015260c083013582811115612a4a57600080fd5b612a5687828601612847565b60c08301525060e083013582811115612a6e57600080fd5b612a7a878286016128bb565b60e0830152506101008084013583811115612a9457600080fd5b612aa088828701612847565b8284015250506101208084013583811115612aba57600080fd5b612ac6888287016128bb565b918301919091525095945050505050565b6020808252602b908201527f496e697469616c697a61626c653a20636f6e7472616374206973206e6f74206960408201526a6e697469616c697a696e6760a81b606082015260800190565b600082821015612b3457612b346126ee565b500390565b600081612b4857612b486126ee565b506000190190565b60208082526032908201527f6f6e6c792077686974656c697374656420726564656d7074696f6e20737472616040820152711d1959da595cc818d85b881899481d5cd95960721b606082015260800190565b60018060a01b0384168152826020820152606060408201526000610535606083018461267b565b60008219821115612bdc57612bdc6126ee565b500190565b600060208284031215612bf357600080fd5b815162ffffff8116811461146857600080fd5b60008060408385031215612c1957600080fd5b505080516020909101519092909150565b60008251612c3c81846020870161264f565b9190910192915050565b602081526000611468602083018461267b56fe416464726573733a206c6f772d6c6576656c2064656c65676174652063616c6c206661696c6564a164736f6c634300080a000a",
    "linkReferences": {}
  },
  "methodIdentifiers": {
    "W_NATIVE_ADDRESS()": "81738f13",
    "_whitelistRedemptionStrategies(address[],bool[])": "8a0b9090",
    "_whitelistRedemptionStrategy(address,bool)": "5a431365",
    "initialize(address,address)": "485cc955",
    "owner()": "8da5cb5b",
    "quoter()": "c6bbd5a7",
    "redemptionStrategiesWhitelist(address)": "5b672371",
    "renounceOwnership()": "715018a6",
    "safeLiquidate(address,uint256,address,address,uint256)": "20b72325",
    "safeLiquidateToTokensWithFlashLoan((address,uint256,address,address,address,uint256,address[],bytes[],address[],bytes[]))": "55e9e8fe",
    "supV3FlashCallback(uint256,uint256,bytes)": "67312529",
    "transferOwnership(address)": "f2fde38b",
    "uniswapV3FlashCallback(uint256,uint256,bytes)": "e9cbafb0"
  }
}