{
  "address": "0x7Ea7BB80F3bBEE9b52e6Ed3775bA06C9C80D4154",
  "abi": [
    {
      "anonymous": false,
      "inputs": [
        {
          "indexed": false,
          "internalType": "uint8",
          "name": "version",
          "type": "uint8"
        }
      ],
      "name": "Initialized",
      "type": "event"
    },
    {
      "inputs": [],
      "name": "directory",
      "outputs": [
        {
          "internalType": "contract PoolDirectory",
          "name": "",
          "type": "address"
        }
      ],
      "stateMutability": "view",
      "type": "function"
    },
    {
      "inputs": [
        {
          "internalType": "address",
          "name": "user",
          "type": "address"
        }
      ],
      "name": "getFlywheelsToClaim",
      "outputs": [
        {
          "internalType": "uint256[]",
          "name": "",
          "type": "uint256[]"
        },
        {
          "internalType": "contract IonicComptroller[]",
          "name": "",
          "type": "address[]"
        },
        {
          "internalType": "address[][]",
          "name": "",
          "type": "address[][]"
        }
      ],
      "stateMutability": "view",
      "type": "function"
    },
    {
      "inputs": [
        {
          "internalType": "address",
          "name": "account",
          "type": "address"
        },
        {
          "internalType": "contract ICErc20",
          "name": "cTokenModify",
          "type": "address"
        }
      ],
      "name": "getMaxBorrow",
      "outputs": [
        {
          "internalType": "uint256",
          "name": "",
          "type": "uint256"
        }
      ],
      "stateMutability": "nonpayable",
      "type": "function"
    },
    {
      "inputs": [
        {
          "internalType": "address",
          "name": "account",
          "type": "address"
        },
        {
          "internalType": "contract ICErc20",
          "name": "cTokenModify",
          "type": "address"
        }
      ],
      "name": "getMaxRedeem",
      "outputs": [
        {
          "internalType": "uint256",
          "name": "",
          "type": "uint256"
        }
      ],
      "stateMutability": "nonpayable",
      "type": "function"
    },
    {
      "inputs": [
        {
          "internalType": "contract IonicComptroller",
          "name": "comptroller",
          "type": "address"
        }
      ],
      "name": "getPoolOwnership",
      "outputs": [
        {
          "internalType": "address",
          "name": "",
          "type": "address"
        },
        {
          "internalType": "bool",
          "name": "",
          "type": "bool"
        },
        {
          "internalType": "bool",
          "name": "",
          "type": "bool"
        },
        {
          "components": [
            {
              "internalType": "address",
              "name": "cToken",
              "type": "address"
            },
            {
              "internalType": "address",
              "name": "admin",
              "type": "address"
            },
            {
              "internalType": "bool",
              "name": "adminHasRights",
              "type": "bool"
            },
            {
              "internalType": "bool",
              "name": "ionicAdminHasRights",
              "type": "bool"
            }
          ],
          "internalType": "struct PoolLensSecondary.CTokenOwnership[]",
          "name": "",
          "type": "tuple[]"
        }
      ],
      "stateMutability": "view",
      "type": "function"
    },
    {
      "inputs": [
        {
          "internalType": "contract IonicComptroller",
          "name": "comptroller",
          "type": "address"
        }
      ],
      "name": "getRewardSpeedsByPool",
      "outputs": [
        {
          "internalType": "contract ICErc20[]",
          "name": "",
          "type": "address[]"
        },
        {
          "internalType": "address[]",
          "name": "",
          "type": "address[]"
        },
        {
          "internalType": "address[]",
          "name": "",
          "type": "address[]"
        },
        {
          "internalType": "uint256[][]",
          "name": "",
          "type": "uint256[][]"
        },
        {
          "internalType": "uint256[][]",
          "name": "",
          "type": "uint256[][]"
        }
      ],
      "stateMutability": "view",
      "type": "function"
    },
    {
      "inputs": [
        {
          "internalType": "contract IonicComptroller[]",
          "name": "comptrollers",
          "type": "address[]"
        }
      ],
      "name": "getRewardSpeedsByPools",
      "outputs": [
        {
          "internalType": "contract ICErc20[][]",
          "name": "",
          "type": "address[][]"
        },
        {
          "internalType": "address[][]",
          "name": "",
          "type": "address[][]"
        },
        {
          "internalType": "address[][]",
          "name": "",
          "type": "address[][]"
        },
        {
          "internalType": "uint256[][][]",
          "name": "",
          "type": "uint256[][][]"
        },
        {
          "internalType": "uint256[][][]",
          "name": "",
          "type": "uint256[][][]"
        }
      ],
      "stateMutability": "view",
      "type": "function"
    },
    {
      "inputs": [
        {
          "internalType": "address",
          "name": "supplier",
          "type": "address"
        }
      ],
      "name": "getRewardsDistributorsBySupplier",
      "outputs": [
        {
          "internalType": "uint256[]",
          "name": "",
          "type": "uint256[]"
        },
        {
          "internalType": "contract IonicComptroller[]",
          "name": "",
          "type": "address[]"
        },
        {
          "internalType": "address[][]",
          "name": "",
          "type": "address[][]"
        }
      ],
      "stateMutability": "view",
      "type": "function"
    },
    {
      "inputs": [
        {
          "internalType": "address",
          "name": "holder",
          "type": "address"
        },
        {
          "internalType": "contract IRewardsDistributor[]",
          "name": "distributors",
          "type": "address[]"
        }
      ],
      "name": "getUnclaimedRewardsByDistributors",
      "outputs": [
        {
          "internalType": "address[]",
          "name": "",
          "type": "address[]"
        },
        {
          "internalType": "uint256[]",
          "name": "",
          "type": "uint256[]"
        },
        {
          "internalType": "contract ICErc20[][]",
          "name": "",
          "type": "address[][]"
        },
        {
          "internalType": "uint256[2][][]",
          "name": "",
          "type": "uint256[2][][]"
        },
        {
          "internalType": "uint256[]",
          "name": "",
          "type": "uint256[]"
        }
      ],
      "stateMutability": "nonpayable",
      "type": "function"
    },
    {
      "inputs": [
        {
          "internalType": "contract PoolDirectory",
          "name": "_directory",
          "type": "address"
        }
      ],
      "name": "initialize",
      "outputs": [],
      "stateMutability": "nonpayable",
      "type": "function"
    }
  ],
  "transactionHash": "0xe65160dc350ceda3b61a032d312d4bfc1cd140fe6bcfb117da8b0df91647e5ff",
  "args": [],
  "numDeployments": 1,
  "bytecode": {
    "object": "0x608060405234801561001057600080fd5b50612e8b806100206000396000f3fe608060405234801561001057600080fd5b506004361061009e5760003560e01c806397f35ff01161006657806397f35ff014610148578063998e2d4a1461016b578063c41c2f241461018d578063c4d66de8146101be578063d24eaf13146101d357600080fd5b80631ec18ec0146100a3578063338038fa146100c95780633fc5fab5146100ed578063641290421461011157806384b3403d14610124575b600080fd5b6100b66100b136600461233a565b6101e6565b6040519081526020015b60405180910390f35b6100dc6100d7366004612404565b6101fb565b6040516100c0959493929190612583565b6101006100fb36600461267c565b6107a4565b6040516100c0959493929190612859565b6100b661011f36600461233a565b610a26565b6101376101323660046128c6565b610a34565b6040516100c09594939291906128e3565b61015b6101563660046128c6565b610f51565b6040516100c09493929190612944565b61017e6101793660046128c6565b611659565b6040516100c0939291906129d4565b6000546101a6906201000090046001600160a01b031681565b6040516001600160a01b0390911681526020016100c0565b6101d16101cc3660046128c6565b61188d565b005b61017e6101e13660046128c6565b611a2f565b60006101f483836001611e1e565b9392505050565b6060806060806060600086516001600160401b0381111561021e5761021e612373565b604051908082528060200260200182016040528015610247578160200160208202803683370190505b509050600087516001600160401b0381111561026557610265612373565b60405190808252806020026020018201604052801561028e578160200160208202803683370190505b509050600088516001600160401b038111156102ac576102ac612373565b6040519080825280602002602001820160405280156102df57816020015b60608152602001906001900390816102ca5790505b509050600089516001600160401b038111156102fd576102fd612373565b60405190808252806020026020018201604052801561033057816020015b606081526020019060019003908161031b5790505b50905060008a516001600160401b0381111561034e5761034e612373565b604051908082528060200260200182016040528015610377578160200160208202803683370190505b50905060005b8b518110156107905760008c828151811061039a5761039a612a3b565b60200260200101519050806001600160a01b031663f7c618c16040518163ffffffff1660e01b8152600401602060405180830381865afa1580156103e2573d6000803e3d6000fd5b505050506040513d601f19601f820116820180604052508101906104069190612a61565b87838151811061041857610418612a3b565b60200260200101906001600160a01b031690816001600160a01b031681525050806001600160a01b031663b0772d0b6040518163ffffffff1660e01b8152600401600060405180830381865afa158015610476573d6000803e3d6000fd5b505050506040513d6000823e601f3d908101601f1916820160405261049e9190810190612a7e565b8583815181106104b0576104b0612a3b565b60200260200101819052508482815181106104cd576104cd612a3b565b6020026020010151516001600160401b038111156104ed576104ed612373565b60405190808252806020026020018201604052801561052657816020015b610513612304565b81526020019060019003908161050b5790505b5084838151811061053957610539612a3b565b602002602001018190525060005b85838151811061055957610559612a3b565b60200260200101515181101561064f576105a68f8388868151811061058057610580612a3b565b6020026020010151848151811061059957610599612a3b565b6020026020010151611f0a565b8685815181106105b8576105b8612a3b565b602002602001015183815181106105d1576105d1612a3b565b60200260200101516000600281106105eb576105eb612a3b565b6020020187868151811061060157610601612a3b565b6020026020010151848151811061061a5761061a612a3b565b602002602001015160016002811061063457610634612a3b565b6020020191909152528061064781612b22565b915050610547565b5060405163331faf7160e21b81526001600160a01b038f8116600483015282169063cc7ebdc490602401602060405180830381865afa158015610696573d6000803e3d6000fd5b505050506040513d601f19601f820116820180604052508101906106ba9190612b3d565b8683815181106106cc576106cc612a3b565b6020026020010181815250508682815181106106ea576106ea612a3b565b60209081029190910101516040516370a0823160e01b81526001600160a01b038381166004830152909116906370a0823190602401602060405180830381865afa15801561073c573d6000803e3d6000fd5b505050506040513d601f19601f820116820180604052508101906107609190612b3d565b83838151811061077257610772612a3b565b6020908102919091010152508061078881612b22565b91505061037d565b50939b929a50909850965090945092505050565b6060806060806060600086516001600160401b038111156107c7576107c7612373565b6040519080825280602002602001820160405280156107fa57816020015b60608152602001906001900390816107e55790505b509050600087516001600160401b0381111561081857610818612373565b60405190808252806020026020018201604052801561084b57816020015b60608152602001906001900390816108365790505b509050600088516001600160401b0381111561086957610869612373565b60405190808252806020026020018201604052801561089c57816020015b60608152602001906001900390816108875790505b509050600089516001600160401b038111156108ba576108ba612373565b6040519080825280602002602001820160405280156108ed57816020015b60608152602001906001900390816108d85790505b50905060008a516001600160401b0381111561090b5761090b612373565b60405190808252806020026020018201604052801561093e57816020015b60608152602001906001900390816109295790505b50905060005b8b51811015610a135761096f8c828151811061096257610962612a3b565b6020026020010151610a34565b8a868151811061098157610981612a3b565b602002602001018a878151811061099a5761099a612a3b565b602002602001018a88815181106109b3576109b3612a3b565b602002602001018a89815181106109cc576109cc612a3b565b602002602001018a8a815181106109e5576109e5612a3b565b6020026020010185905285905285905285905285905250505050508080610a0b90612b22565b915050610944565b50939a9299509097509550909350915050565b60006101f483836000611e1e565b60608060608060606000866001600160a01b031663b0772d0b6040518163ffffffff1660e01b8152600401600060405180830381865afa158015610a7c573d6000803e3d6000fd5b505050506040513d6000823e601f3d908101601f19168201604052610aa49190810190612a7e565b90506060876001600160a01b0316633605b51b6040518163ffffffff1660e01b8152600401600060405180830381865afa925050508015610b0757506040513d6000823e601f3d908101601f19168201604052610b049190810190612b56565b60015b610b205750604080516000815260208101909152610b23565b90505b600081516001600160401b03811115610b3e57610b3e612373565b604051908082528060200260200182016040528015610b67578160200160208202803683370190505b509050600083516001600160401b03811115610b8557610b85612373565b604051908082528060200260200182016040528015610bb857816020015b6060815260200190600190039081610ba35790505b509050600084516001600160401b03811115610bd657610bd6612373565b604051908082528060200260200182016040528015610c0957816020015b6060815260200190600190039081610bf45790505b50905060005b8451811015610ccf57848181518110610c2a57610c2a612a3b565b60200260200101516001600160a01b031663f7c618c16040518163ffffffff1660e01b8152600401602060405180830381865afa158015610c6f573d6000803e3d6000fd5b505050506040513d601f19601f82011682018060405250810190610c939190612a61565b848281518110610ca557610ca5612a3b565b6001600160a01b039092166020928302919091019091015280610cc781612b22565b915050610c0f565b5060005b8551811015610a13576000868281518110610cf057610cf0612a3b565b6020026020010151905085516001600160401b03811115610d1357610d13612373565b604051908082528060200260200182016040528015610d3c578160200160208202803683370190505b50848381518110610d4f57610d4f612a3b565b602002602001018190525085516001600160401b03811115610d7357610d73612373565b604051908082528060200260200182016040528015610d9c578160200160208202803683370190505b50838381518110610daf57610daf612a3b565b602002602001018190525060005b8651811015610f3c576000878281518110610dda57610dda612a3b565b6020908102919091010151604051636aa875b560e01b81526001600160a01b03858116600483015291925090821690636aa875b590602401602060405180830381865afa158015610e2f573d6000803e3d6000fd5b505050506040513d601f19601f82011682018060405250810190610e539190612b3d565b868581518110610e6557610e65612a3b565b60200260200101518381518110610e7e57610e7e612a3b565b60209081029190910101526040516303d290cf60e61b81526001600160a01b03848116600483015282169063f4a433c090602401602060405180830381865afa158015610ecf573d6000803e3d6000fd5b505050506040513d601f19601f82011682018060405250810190610ef39190612b3d565b858581518110610f0557610f05612a3b565b60200260200101518381518110610f1e57610f1e612a3b565b60209081029190910101525080610f3481612b22565b915050610dbd565b50508080610f4990612b22565b915050610cd3565b600080600060606000856001600160a01b031663f851a4406040518163ffffffff1660e01b8152600401602060405180830381865afa158015610f98573d6000803e3d6000fd5b505050506040513d601f19601f82011682018060405250810190610fbc9190612a61565b90506000866001600160a01b0316630a755ec26040518163ffffffff1660e01b8152600401602060405180830381865afa158015610ffe573d6000803e3d6000fd5b505050506040513d601f19601f820116820180604052508101906110229190612bf4565b90506000876001600160a01b031663cf6bfd2d6040518163ffffffff1660e01b8152600401602060405180830381865afa158015611064573d6000803e3d6000fd5b505050506040513d601f19601f820116820180604052508101906110889190612bf4565b90506000886001600160a01b031663b0772d0b6040518163ffffffff1660e01b8152600401600060405180830381865afa1580156110ca573d6000803e3d6000fd5b505050506040513d6000823e601f3d908101601f191682016040526110f29190810190612a7e565b90506000805b825181101561133357600083828151811061111557611115612a3b565b6020908102919091010151604051638e8f294b60e01b81526001600160a01b0380831660048301529192506000918e1690638e8f294b906024016040805180830381865afa15801561116b573d6000803e3d6000fd5b505050506040513d601f19601f8201168201806040525081019061118f9190612c0f565b5090508061119e575050611321565b6000826001600160a01b031663f851a4406040518163ffffffff1660e01b8152600401602060405180830381865afa9250505080156111fa575060408051601f3d908101601f191682019092526111f791810190612a61565b60015b61120657505050611321565b90506000836001600160a01b0316630a755ec26040518163ffffffff1660e01b8152600401602060405180830381865afa158015611248573d6000803e3d6000fd5b505050506040513d601f19601f8201168201806040525081019061126c9190612bf4565b90506000846001600160a01b031663cf6bfd2d6040518163ffffffff1660e01b8152600401602060405180830381865afa1580156112ae573d6000803e3d6000fd5b505050506040513d601f19601f820116820180604052508101906112d29190612bf4565b90508a6001600160a01b0316836001600160a01b03161415806112f9575089151582151514155b80611308575088151581151514155b1561131b578661131781612b22565b9750505b50505050505b8061132b81612b22565b9150506110f8565b506000816001600160401b0381111561134e5761134e612373565b6040519080825280602002602001820160405280156113a057816020015b60408051608081018252600080825260208083018290529282018190526060820152825260001990920191018161136c5790505b5090506000805b84518110156116445760008582815181106113c4576113c4612a3b565b6020026020010151905060008e6001600160a01b0316638e8f294b836040518263ffffffff1660e01b815260040161140b91906001600160a01b0391909116815260200190565b6040805180830381865afa158015611427573d6000803e3d6000fd5b505050506040513d601f19601f8201168201806040525081019061144b9190612c0f565b5090508061145a575050611632565b6000826001600160a01b031663f851a4406040518163ffffffff1660e01b8152600401602060405180830381865afa9250505080156114b6575060408051601f3d908101601f191682019092526114b391810190612a61565b60015b6114c257505050611632565b90506000836001600160a01b0316630a755ec26040518163ffffffff1660e01b8152600401602060405180830381865afa158015611504573d6000803e3d6000fd5b505050506040513d601f19601f820116820180604052508101906115289190612bf4565b90506000846001600160a01b031663cf6bfd2d6040518163ffffffff1660e01b8152600401602060405180830381865afa15801561156a573d6000803e3d6000fd5b505050506040513d601f19601f8201168201806040525081019061158e9190612bf4565b90508c6001600160a01b0316836001600160a01b03161415806115b557508b151582151514155b806115c457508a151581151514155b1561162c576040518060800160405280866001600160a01b03168152602001846001600160a01b03168152602001831515815260200182151581525088888151811061161257611612612a3b565b6020026020010181905250868061162890612b22565b9750505b50505050505b8061163c81612b22565b9150506113a7565b50959b949a5092985091965091945050505050565b6060806060600080600060029054906101000a90046001600160a01b03166001600160a01b0316638ec083546040518163ffffffff1660e01b8152600401600060405180830381865afa1580156116b4573d6000803e3d6000fd5b505050506040513d6000823e601f3d908101601f191682016040526116dc9190810190612dac565b91509150600081516001600160401b038111156116fb576116fb612373565b604051908082528060200260200182016040528015611724578160200160208202803683370190505b509050600082516001600160401b0381111561174257611742612373565b60405190808252806020026020018201604052801561177557816020015b60608152602001906001900390816117605790505b50905060005b835181101561187d57600084828151811061179857611798612a3b565b6020026020010151604001519050806001600160a01b0316633605b51b6040518163ffffffff1660e01b8152600401600060405180830381865afa92505050801561180557506040513d6000823e601f3d908101601f191682016040526118029190810190612b56565b60015b61180e5761186a565b8185848151811061182157611821612a3b565b60200260200101906001600160a01b031690816001600160a01b03168152505061184b8b826121b8565b84848151811061185d5761185d612a3b565b6020026020010181905250505b508061187581612b22565b91505061177b565b5092979096509194509092505050565b600054610100900460ff16158080156118ad5750600054600160ff909116105b806118c75750303b1580156118c7575060005460ff166001145b61192f5760405162461bcd60e51b815260206004820152602e60248201527f496e697469616c697a61626c653a20636f6e747261637420697320616c72656160448201526d191e481a5b9a5d1a585b1a5e995960921b60648201526084015b60405180910390fd5b6000805460ff191660011790558015611952576000805461ff0019166101001790555b6001600160a01b0382166119c35760405162461bcd60e51b815260206004820152603260248201527f506f6f6c4469726563746f727920696e7374616e63652063616e6e6f74206265604482015271103a3432903d32b9379030b2323932b9b99760711b6064820152608401611926565b6000805462010000600160b01b031916620100006001600160a01b038516021790558015611a2b576000805461ff0019169055604051600181527f7f26b83ff96e1f2b6a682f133852f6798a09c465da95921460cefb38474024989060200160405180910390a15b5050565b606080606060008060029054906101000a90046001600160a01b03166001600160a01b0316638ec083546040518163ffffffff1660e01b8152600401600060405180830381865afa158015611a88573d6000803e3d6000fd5b505050506040513d6000823e601f3d908101601f19168201604052611ab09190810190612dac565b9150506000805b8251811015611b8257828181518110611ad257611ad2612a3b565b6020026020010151604001516001600160a01b03166316dc15fe886040518263ffffffff1660e01b8152600401611b1891906001600160a01b0391909116815260200190565b602060405180830381865afa925050508015611b51575060408051601f3d908101601f19168201909252611b4e91810190612bf4565b60015b611b5a57611b70565b8015611b6e5782611b6a81612b22565b9350505b505b80611b7a81612b22565b915050611ab7565b506000816001600160401b03811115611b9d57611b9d612373565b604051908082528060200260200182016040528015611bc6578160200160208202803683370190505b5090506000826001600160401b03811115611be357611be3612373565b604051908082528060200260200182016040528015611c0c578160200160208202803683370190505b5090506000836001600160401b03811115611c2957611c29612373565b604051908082528060200260200182016040528015611c5c57816020015b6060815260200190600190039081611c475790505b5090506000805b8651811015611e0e576000878281518110611c8057611c80612a3b565b6020026020010151604001519050806001600160a01b03166316dc15fe8d6040518263ffffffff1660e01b8152600401611cc991906001600160a01b0391909116815260200190565b602060405180830381865afa925050508015611d02575060408051601f3d908101601f19168201909252611cff91810190612bf4565b60015b611d0b57611dfb565b8015611df95782878581518110611d2457611d24612a3b565b60200260200101818152505081868581518110611d4357611d43612a3b565b60200260200101906001600160a01b031690816001600160a01b031681525050816001600160a01b0316633605b51b6040518163ffffffff1660e01b8152600401600060405180830381865afa925050508015611dc257506040513d6000823e601f3d908101601f19168201604052611dbf9190810190612b56565b60015b611dcb57611deb565b80868681518110611dde57611dde612a3b565b6020026020010181905250505b83611df581612b22565b9450505b505b5080611e0681612b22565b915050611c63565b5092999198509650945050505050565b600080836001600160a01b0316635fe3b5676040518163ffffffff1660e01b8152600401602060405180830381865afa158015611e5f573d6000803e3d6000fd5b505050506040513d601f19601f82011682018060405250810190611e839190612a61565b604051630cbb414760e11b81526001600160a01b0387811660048301528681166024830152851515604483015291925090821690631976828e90606401602060405180830381865afa158015611edd573d6000803e3d6000fd5b505050506040513d601f19601f82011682018060405250810190611f019190612b3d565b95945050505050565b60405163331faf7160e21b81526001600160a01b038481166004830152600091829182919086169063cc7ebdc490602401602060405180830381865afa158015611f58573d6000803e3d6000fd5b505050506040513d601f19601f82011682018060405250810190611f7c9190612b3d565b60405162e48b0f60e51b81526001600160a01b038681166004830152888116602483015291925090861690631c9161e090604401600060405180830381600087803b158015611fca57600080fd5b505af1158015611fde573d6000803e3d6000fd5b505060405163331faf7160e21b81526001600160a01b0389811660048301526000935084925088169063cc7ebdc490602401602060405180830381865afa15801561202d573d6000803e3d6000fd5b505050506040513d601f19601f820116820180604052508101906120519190612b3d565b61205b9190612e67565b60405163331faf7160e21b81526001600160a01b0389811660048301529192509087169063cc7ebdc490602401602060405180830381865afa1580156120a5573d6000803e3d6000fd5b505050506040513d601f19601f820116820180604052508101906120c99190612b3d565b604051631cdc2c5d60e31b81526001600160a01b03878116600483015289811660248301529193509087169063e6e162e890604401600060405180830381600087803b15801561211857600080fd5b505af115801561212c573d6000803e3d6000fd5b505060405163331faf7160e21b81526001600160a01b038a811660048301526000935085925089169063cc7ebdc490602401602060405180830381865afa15801561217b573d6000803e3d6000fd5b505050506040513d601f19601f8201168201806040525081019061219f9190612b3d565b6121a99190612e67565b91989197509095505050505050565b6060600082516001600160401b038111156121d5576121d5612373565b6040519080825280602002602001820160405280156121fe578160200160208202803683370190505b50905060005b83518110156122fc57600084828151811061222157612221612a3b565b602090810291909101015160405163331faf7160e21b81526001600160a01b0388811660048301529091169063cc7ebdc490602401602060405180830381865afa158015612273573d6000803e3d6000fd5b505050506040513d601f19601f820116820180604052508101906122979190612b3d565b11156122ea578381815181106122af576122af612a3b565b60200260200101518282815181106122c9576122c9612a3b565b60200260200101906001600160a01b031690816001600160a01b0316815250505b806122f481612b22565b915050612204565b509392505050565b60405180604001604052806002906020820280368337509192915050565b6001600160a01b038116811461233757600080fd5b50565b6000806040838503121561234d57600080fd5b823561235881612322565b9150602083013561236881612322565b809150509250929050565b634e487b7160e01b600052604160045260246000fd5b60405160a081016001600160401b03811182821017156123ab576123ab612373565b60405290565b604051601f8201601f191681016001600160401b03811182821017156123d9576123d9612373565b604052919050565b60006001600160401b038211156123fa576123fa612373565b5060051b60200190565b6000806040838503121561241757600080fd5b823561242281612322565b91506020838101356001600160401b0381111561243e57600080fd5b8401601f8101861361244f57600080fd5b803561246261245d826123e1565b6123b1565b81815260059190911b8201830190838101908883111561248157600080fd5b928401925b828410156124a857833561249981612322565b82529284019290840190612486565b80955050505050509250929050565b600081518084526020808501945080840160005b838110156124f05781516001600160a01b0316875295820195908201906001016124cb565b509495945050505050565b600081518084526020808501945080840160005b838110156124f05781518752958201959082019060010161250f565b600082825180855260208086019550808260051b84010181860160005b8481101561257657601f198684030189526125648383516124b7565b98840198925090830190600101612548565b5090979650505050505050565b60a08152600061259660a08301886124b7565b6020838203818501526125a982896124fb565b91506040848303818601526125be838961252b565b925084830360608601528287518085528385019150838160051b860101848a0160005b8381101561265757878303601f1901855281518051808552908801908885019060005b818110156126425783518360005b600281101561262f5782518252918d0191908d0190600101612612565b505050928a019291890191600101612604565b505095880195935050908601906001016125e1565b5050878103608089015261266b818a6124fb565b9d9c50505050505050505050505050565b6000602080838503121561268f57600080fd5b82356001600160401b038111156126a557600080fd5b8301601f810185136126b657600080fd5b80356126c461245d826123e1565b81815260059190911b820183019083810190878311156126e357600080fd5b928401925b8284101561270a5783356126fb81612322565b825292840192908401906126e8565b979650505050505050565b600082825180855260208086019550808260051b8401018186016000805b8581101561278f57868403601f19018a52825180518086529086019086860190845b8181101561277a5783516001600160a01b031683529288019291880191600101612755565b50509a86019a94505091840191600101612733565b509198975050505050505050565b600082825180855260208086019550808260051b8401018186016000805b8581101561278f57868403601f19018a52825180518086529086019086860190845b818110156127f9578351835292880192918801916001016127dd565b50509a86019a945050918401916001016127bb565b600082825180855260208086019550808260051b84010181860160005b8481101561257657601f1986840301895261284783835161279d565b9884019892509083019060010161282b565b60a08152600061286c60a083018861252b565b828103602084015261287e8188612715565b905082810360408401526128928187612715565b905082810360608401526128a6818661280e565b905082810360808401526128ba818561280e565b98975050505050505050565b6000602082840312156128d857600080fd5b81356101f481612322565b60a0815260006128f660a08301886124b7565b828103602084015261290881886124b7565b9050828103604084015261291c81876124b7565b90508281036060840152612930818661279d565b905082810360808401526128ba818561279d565b6000608080830160018060a01b0380891685526020881515818701526040881515818801526060858189015284895180875260a08a019150848b01965060005b818110156129c157875180518816845286810151881687850152858101511515868501528401511515848401529685019691880191600101612984565b50909d9c50505050505050505050505050565b6060815260006129e760608301866124fb565b82810360208481019190915285518083528682019282019060005b81811015612a275784516001600160a01b031683529383019391830191600101612a02565b505084810360408601526128ba8187612715565b634e487b7160e01b600052603260045260246000fd5b8051612a5c81612322565b919050565b600060208284031215612a7357600080fd5b81516101f481612322565b60006020808385031215612a9157600080fd5b82516001600160401b03811115612aa757600080fd5b8301601f81018513612ab857600080fd5b8051612ac661245d826123e1565b81815260059190911b82018301908381019087831115612ae557600080fd5b928401925b8284101561270a578351612afd81612322565b82529284019290840190612aea565b634e487b7160e01b600052601160045260246000fd5b6000600019821415612b3657612b36612b0c565b5060010190565b600060208284031215612b4f57600080fd5b5051919050565b60006020808385031215612b6957600080fd5b82516001600160401b03811115612b7f57600080fd5b8301601f81018513612b9057600080fd5b8051612b9e61245d826123e1565b81815260059190911b82018301908381019087831115612bbd57600080fd5b928401925b8284101561270a578351612bd581612322565b82529284019290840190612bc2565b80518015158114612a5c57600080fd5b600060208284031215612c0657600080fd5b6101f482612be4565b60008060408385031215612c2257600080fd5b612c2b83612be4565b9150602083015190509250929050565b6000601f8381840112612c4d57600080fd5b82516020612c5d61245d836123e1565b82815260059290921b85018101918181019087841115612c7c57600080fd5b8287015b84811015612da05780516001600160401b0380821115612ca05760008081fd5b9089019060a0601f19838d038101821315612cbb5760008081fd5b612cc3612389565b8885015184811115612cd55760008081fd5b8501603f81018f13612ce75760008081fd5b8981015185811115612cfb57612cfb612373565b612d0a8b858f840116016123b1565b9550808652604093508f84828401011115612d255760008081fd5b60005b81811015612d43578281018501518782018d01528b01612d28565b81811115612d545760008c83890101525b505050838152612d65828601612a51565b8982015260609350612d78848601612a51565b9181019190915260808481015193820193909352920151908201528352918301918301612c80565b50979650505050505050565b60008060408385031215612dbf57600080fd5b82516001600160401b0380821115612dd657600080fd5b818501915085601f830112612dea57600080fd5b81516020612dfa61245d836123e1565b82815260059290921b84018101918181019089841115612e1957600080fd5b948201945b83861015612e3757855182529482019490820190612e1e565b91880151919650909350505080821115612e5057600080fd5b50612e5d85828601612c3b565b9150509250929050565b600082821015612e7957612e79612b0c565b50039056fea164736f6c634300080a000a",
    "linkReferences": {}
  },
  "methodIdentifiers": {
    "directory()": "c41c2f24",
    "getFlywheelsToClaim(address)": "998e2d4a",
    "getMaxBorrow(address,address)": "1ec18ec0",
    "getMaxRedeem(address,address)": "64129042",
    "getPoolOwnership(address)": "97f35ff0",
    "getRewardSpeedsByPool(address)": "84b3403d",
    "getRewardSpeedsByPools(address[])": "3fc5fab5",
    "getRewardsDistributorsBySupplier(address)": "d24eaf13",
    "getUnclaimedRewardsByDistributors(address,address[])": "338038fa",
    "initialize(address)": "c4d66de8"
  }
}