{
  "address": "0x63A1531a06F0Ac597a0DfA5A516a37073c3E1e0a",
  "abi": [
    {
      "inputs": [
        {
          "internalType": "address",
          "name": "redstoneOracle",
          "type": "address"
        }
      ],
      "stateMutability": "nonpayable",
      "type": "constructor"
    },
    {
      "inputs": [],
      "name": "REDSTONE_ORACLE",
      "outputs": [
        {
          "internalType": "contract IRedstoneOracle",
          "name": "",
          "type": "address"
        }
      ],
      "stateMutability": "view",
      "type": "function"
    },
    {
      "inputs": [
        {
          "internalType": "contract ICErc20",
          "name": "cToken",
          "type": "address"
        }
      ],
      "name": "getUnderlyingPrice",
      "outputs": [
        {
          "internalType": "uint256",
          "name": "",
          "type": "uint256"
        }
      ],
      "stateMutability": "view",
      "type": "function"
    },
    {
      "inputs": [
        {
          "internalType": "address",
          "name": "underlying",
          "type": "address"
        }
      ],
      "name": "price",
      "outputs": [
        {
          "internalType": "uint256",
          "name": "",
          "type": "uint256"
        }
      ],
      "stateMutability": "view",
      "type": "function"
    }
  ],
  "transactionHash": "0x9ca60c57b0704d5c188ef32c9a91bb5e9fc9fbca79216160aa27d8f3fac99e25",
  "args": [
    "0x7C1DAAE7BB0688C9bfE3A918A4224041c7177256"
  ],
  "numDeployments": 1,
  "bytecode": {
    "object": "0x608060405234801561001057600080fd5b5060405161059238038061059283398101604081905261002f91610054565b600080546001600160a01b0319166001600160a01b0392909216919091179055610084565b60006020828403121561006657600080fd5b81516001600160a01b038116811461007d57600080fd5b9392505050565b6104ff806100936000396000f3fe608060405234801561001057600080fd5b50600436106100415760003560e01c8063092c3a1114610046578063aea9107814610076578063fc57d4df14610097575b600080fd5b600054610059906001600160a01b031681565b6040516001600160a01b0390911681526020015b60405180910390f35b610089610084366004610317565b6100aa565b60405190815260200161006d565b6100896100a5366004610317565b6100bb565b60006100b5826101ef565b92915050565b600080826001600160a01b0316636f307dc36040518163ffffffff1660e01b8152600401602060405180830381865afa1580156100fc573d6000803e3d6000fd5b505050506040513d601f19601f82011682018060405250810190610120919061033b565b9050600061012d826101ef565b90506000826001600160a01b031663313ce5676040518163ffffffff1660e01b8152600401602060405180830381865afa15801561016f573d6000803e3d6000fd5b505050506040513d601f19601f820116820180604052508101906101939190610358565b60ff16905060128111156101c6576101ac601282610391565b6101b790600a61048c565b6101c19083610498565b6101e6565b6101d1816012610391565b6101dc90600a61048c565b6101e690836104ba565b95945050505050565b6000805460405163b95ed06f60e01b81526001600160a01b0384811660048301528392169063b95ed06f90602401602060405180830381865afa15801561023a573d6000803e3d6000fd5b505050506040513d601f19601f8201168201806040525081019061025e91906104d9565b905060008060009054906101000a90046001600160a01b03166001600160a01b031663858b033d6040518163ffffffff1660e01b8152600401602060405180830381865afa1580156102b4573d6000803e3d6000fd5b505050506040513d601f19601f820116820180604052508101906102d891906104d9565b9050806102ed83670de0b6b3a76400006104ba565b6102f79190610498565b949350505050565b6001600160a01b038116811461031457600080fd5b50565b60006020828403121561032957600080fd5b8135610334816102ff565b9392505050565b60006020828403121561034d57600080fd5b8151610334816102ff565b60006020828403121561036a57600080fd5b815160ff8116811461033457600080fd5b634e487b7160e01b600052601160045260246000fd5b6000828210156103a3576103a361037b565b500390565b600181815b808511156103e35781600019048211156103c9576103c961037b565b808516156103d657918102915b93841c93908002906103ad565b509250929050565b6000826103fa575060016100b5565b81610407575060006100b5565b816001811461041d576002811461042757610443565b60019150506100b5565b60ff8411156104385761043861037b565b50506001821b6100b5565b5060208310610133831016604e8410600b8410161715610466575081810a6100b5565b61047083836103a8565b80600019048211156104845761048461037b565b029392505050565b600061033483836103eb565b6000826104b557634e487b7160e01b600052601260045260246000fd5b500490565b60008160001904831182151516156104d4576104d461037b565b500290565b6000602082840312156104eb57600080fd5b505191905056fea164736f6c634300080a000a",
    "linkReferences": {}
  },
  "methodIdentifiers": {
    "REDSTONE_ORACLE()": "092c3a11",
    "getUnderlyingPrice(address)": "fc57d4df",
    "price(address)": "aea91078"
  }
}