{
  "address": "0xA1aBF92ef468464962aF1CEFFB44631a6fFb33ec",
  "abi": [
    {
      "inputs": [],
      "name": "name",
      "outputs": [
        {
          "internalType": "string",
          "name": "",
          "type": "string"
        }
      ],
      "stateMutability": "pure",
      "type": "function"
    },
    {
      "inputs": [
        {
          "internalType": "contract IERC20Upgradeable",
          "name": "inputToken",
          "type": "address"
        },
        {
          "internalType": "uint256",
          "name": "inputAmount",
          "type": "uint256"
        },
        {
          "internalType": "bytes",
          "name": "strategyData",
          "type": "bytes"
        }
      ],
      "name": "redeem",
      "outputs": [
        {
          "internalType": "contract IERC20Upgradeable",
          "name": "outputToken",
          "type": "address"
        },
        {
          "internalType": "uint256",
          "name": "outputAmount",
          "type": "uint256"
        }
      ],
      "stateMutability": "nonpayable",
      "type": "function"
    }
  ],
  "transactionHash": "0x08658a2cacbf30220427b6d5acaf5e1818cdb78c20f817185ee15a76b6f4ec60",
  "args": [],
  "numDeployments": 1,
  "solcInputHash": "9b5ecd9776bc67be36597ea476997bc0",
  "bytecode": "0x608060405234801561001057600080fd5b506107b7806100206000396000f3fe608060405234801561001057600080fd5b50600436106100365760003560e01c806306fdde031461003b57806310badf4e1461007b575b600080fd5b60408051808201825260158152742b32b637b23937b6b2ab192634b8bab4b230ba37b960591b60208201529051610072919061032c565b60405180910390f35b61008e610089366004610403565b6100ad565b604080516001600160a01b039093168352602083019190915201610072565b6000806100bb8585856100c7565b91509150935093915050565b600080600080848060200190518101906100e191906104ed565b9150915060018151101580156101265750866001600160a01b03168160008151811061010f5761010f6105e0565b6020026020010151600001516001600160a01b0316145b6101875760405162461bcd60e51b815260206004820152602860248201527f496e76616c69642056656c6f64726f6d6556324c697175696461746f7220737760448201526730b8103830ba341760c11b606482015260840160405180910390fd5b60405163095ea7b360e01b81526001600160a01b0383811660048301526024820188905288169063095ea7b3906044016020604051808303816000875af11580156101d6573d6000803e3d6000fd5b505050506040513d601f19601f820116820180604052508101906101fa91906105f6565b506102068287836102aa565b80600182516102159190610618565b81518110610225576102256105e0565b60209081029190910181015101516040516370a0823160e01b81523060048201529094506001600160a01b038516906370a0823190602401602060405180830381865afa15801561027a573d6000803e3d6000fd5b505050506040513d601f19601f8201168201806040525081019061029e919061063f565b92505050935093915050565b604051631e82ecdb60e31b81526001600160a01b0384169063f41766d8906102df908590600090869030904290600401610658565b6000604051808303816000875af11580156102fe573d6000803e3d6000fd5b505050506040513d6000823e601f3d908101601f1916820160405261032691908101906106f0565b50505050565b60006020808352835180602085015260005b8181101561035a5785810183015185820160400152820161033e565b506000604082860101526040601f19601f8301168501019250505092915050565b6001600160a01b038116811461039057600080fd5b50565b634e487b7160e01b600052604160045260246000fd5b6040516060810167ffffffffffffffff811182821017156103cc576103cc610393565b60405290565b604051601f8201601f1916810167ffffffffffffffff811182821017156103fb576103fb610393565b604052919050565b60008060006060848603121561041857600080fd5b83356104238161037b565b92506020848101359250604085013567ffffffffffffffff8082111561044857600080fd5b818701915087601f83011261045c57600080fd5b81358181111561046e5761046e610393565b610480601f8201601f191685016103d2565b9150808252888482850101111561049657600080fd5b80848401858401376000848284010152508093505050509250925092565b600067ffffffffffffffff8211156104ce576104ce610393565b5060051b60200190565b805180151581146104e857600080fd5b919050565b600080604080848603121561050157600080fd5b835161050c8161037b565b8093505060208085015167ffffffffffffffff81111561052b57600080fd5b8501601f8101871361053c57600080fd5b805161054f61054a826104b4565b6103d2565b8181526060918202830184019184820191908a84111561056e57600080fd5b938501935b838510156105cf5780858c03121561058b5760008081fd5b6105936103a9565b855161059e8161037b565b8152858701516105ad8161037b565b818801526105bc8689016104d8565b8189015283529384019391850191610573565b508096505050505050509250929050565b634e487b7160e01b600052603260045260246000fd5b60006020828403121561060857600080fd5b610611826104d8565b9392505050565b8181038181111561063957634e487b7160e01b600052601160045260246000fd5b92915050565b60006020828403121561065157600080fd5b5051919050565b600060a082018783526020876020850152604060a0604086015282885180855260c08701915060208a01945060005b818110156106c457855180516001600160a01b03908116855286820151168685015284015115158484015294840194606090920191600101610687565b50506001600160a01b038816606087015293506106e092505050565b8260808301529695505050505050565b6000602080838503121561070357600080fd5b825167ffffffffffffffff81111561071a57600080fd5b8301601f8101851361072b57600080fd5b805161073961054a826104b4565b81815260059190911b8201830190838101908783111561075857600080fd5b928401925b828410156107765783518252928401929084019061075d565b97965050505050505056fea2646970667358221220c2b29c16ebe6a26b7dc35d0e2145f02f532dfa264812b4b6248f427e55c6c52d64736f6c63430008160033",
  "devdoc": {
    "kind": "dev",
    "methods": {
      "redeem(address,uint256,bytes)": {
        "params": {
          "inputAmount": "The amount of the input wrapped token to be redeemed for an underlying token.",
          "inputToken": "The input wrapped token to be redeemed for an underlying token.",
          "strategyData": "The ABI-encoded data to be used in the redemption strategy logic."
        },
        "returns": {
          "outputAmount": "The quantity of underlying tokens outputted.",
          "outputToken": "The underlying ERC20 token outputted."
        }
      }
    },
    "title": "VelodromeV2Liquidator",
    "version": 1
  },
  "userdoc": {
    "kind": "user",
    "methods": {
      "redeem(address,uint256,bytes)": {
        "notice": "Redeems custom collateral `token` for an underlying token."
      }
    },
    "notice": "Exchanges seized token collateral for underlying tokens via a Velodrome V2 router for use as a step in a liquidation.",
    "version": 1
  },
  "storageLayout": {
    "storage": [],
    "types": null
  }
}