{
  "address": "0xb750c43F9338313c7A8af6922dcA1910Ee3583c8",
  "abi": [
    {
      "inputs": [
        {
          "internalType": "uint256",
          "name": "_feeBps",
          "type": "uint256"
        },
        {
          "internalType": "address",
          "name": "_endpoint",
          "type": "address"
        }
      ],
      "stateMutability": "nonpayable",
      "type": "constructor"
    },
    {
      "inputs": [],
      "name": "ChainIdNotSet",
      "type": "error"
    },
    {
      "inputs": [],
      "name": "InvalidDelegate",
      "type": "error"
    },
    {
      "inputs": [],
      "name": "InvalidEndpointCall",
      "type": "error"
    },
    {
      "inputs": [
        {
          "internalType": "uint16",
          "name": "optionType",
          "type": "uint16"
        }
      ],
      "name": "InvalidOptionType",
      "type": "error"
    },
    {
      "inputs": [],
      "name": "LzTokenUnavailable",
      "type": "error"
    },
    {
      "inputs": [
        {
          "internalType": "uint32",
          "name": "eid",
          "type": "uint32"
        }
      ],
      "name": "NoPeer",
      "type": "error"
    },
    {
      "inputs": [
        {
          "internalType": "uint256",
          "name": "msgValue",
          "type": "uint256"
        }
      ],
      "name": "NotEnoughNative",
      "type": "error"
    },
    {
      "inputs": [
        {
          "internalType": "address",
          "name": "addr",
          "type": "address"
        }
      ],
      "name": "OnlyEndpoint",
      "type": "error"
    },
    {
      "inputs": [
        {
          "internalType": "uint32",
          "name": "eid",
          "type": "uint32"
        },
        {
          "internalType": "bytes32",
          "name": "sender",
          "type": "bytes32"
        }
      ],
      "name": "OnlyPeer",
      "type": "error"
    },
    {
      "inputs": [],
      "name": "OriginNotMirrorAdapter",
      "type": "error"
    },
    {
      "inputs": [],
      "name": "TokenNotSet",
      "type": "error"
    },
    {
      "anonymous": false,
      "inputs": [
        {
          "indexed": true,
          "internalType": "uint32",
          "name": "_chainId",
          "type": "uint32"
        },
        {
          "indexed": true,
          "internalType": "uint32",
          "name": "_eid",
          "type": "uint32"
        }
      ],
      "name": "ChainIdToEidSet",
      "type": "event"
    },
    {
      "anonymous": false,
      "inputs": [
        {
          "indexed": true,
          "internalType": "uint32",
          "name": "_eid",
          "type": "uint32"
        },
        {
          "indexed": true,
          "internalType": "uint32",
          "name": "_chainId",
          "type": "uint32"
        }
      ],
      "name": "EidToChainIdSet",
      "type": "event"
    },
    {
      "anonymous": false,
      "inputs": [
        {
          "indexed": true,
          "internalType": "uint256",
          "name": "_feeBps",
          "type": "uint256"
        }
      ],
      "name": "FeeBpsSet",
      "type": "event"
    },
    {
      "anonymous": false,
      "inputs": [
        {
          "indexed": true,
          "internalType": "address",
          "name": "previousOwner",
          "type": "address"
        },
        {
          "indexed": true,
          "internalType": "address",
          "name": "newOwner",
          "type": "address"
        }
      ],
      "name": "OwnershipTransferred",
      "type": "event"
    },
    {
      "anonymous": false,
      "inputs": [
        {
          "indexed": false,
          "internalType": "uint32",
          "name": "eid",
          "type": "uint32"
        },
        {
          "indexed": false,
          "internalType": "bytes32",
          "name": "peer",
          "type": "bytes32"
        }
      ],
      "name": "PeerSet",
      "type": "event"
    },
    {
      "anonymous": false,
      "inputs": [
        {
          "indexed": true,
          "internalType": "address",
          "name": "_token",
          "type": "address"
        },
        {
          "indexed": true,
          "internalType": "uint32",
          "name": "_chainId",
          "type": "uint32"
        },
        {
          "indexed": true,
          "internalType": "address",
          "name": "_dstToken",
          "type": "address"
        }
      ],
      "name": "TokenMapped",
      "type": "event"
    },
    {
      "anonymous": false,
      "inputs": [
        {
          "indexed": true,
          "internalType": "address",
          "name": "_token",
          "type": "address"
        },
        {
          "indexed": false,
          "internalType": "uint256",
          "name": "_amount",
          "type": "uint256"
        },
        {
          "indexed": true,
          "internalType": "address",
          "name": "_to",
          "type": "address"
        },
        {
          "indexed": true,
          "internalType": "uint32",
          "name": "_srcChainId",
          "type": "uint32"
        },
        {
          "indexed": false,
          "internalType": "bytes32",
          "name": "_guid",
          "type": "bytes32"
        }
      ],
      "name": "TokenReceived",
      "type": "event"
    },
    {
      "anonymous": false,
      "inputs": [
        {
          "indexed": true,
          "internalType": "address",
          "name": "_token",
          "type": "address"
        },
        {
          "indexed": false,
          "internalType": "uint256",
          "name": "_amount",
          "type": "uint256"
        },
        {
          "indexed": true,
          "internalType": "address",
          "name": "_to",
          "type": "address"
        },
        {
          "indexed": true,
          "internalType": "uint32",
          "name": "_dstChainId",
          "type": "uint32"
        },
        {
          "indexed": false,
          "internalType": "bytes32",
          "name": "_guid",
          "type": "bytes32"
        }
      ],
      "name": "TokenSent",
      "type": "event"
    },
    {
      "inputs": [
        {
          "components": [
            {
              "internalType": "uint32",
              "name": "srcEid",
              "type": "uint32"
            },
            {
              "internalType": "bytes32",
              "name": "sender",
              "type": "bytes32"
            },
            {
              "internalType": "uint64",
              "name": "nonce",
              "type": "uint64"
            }
          ],
          "internalType": "struct Origin",
          "name": "origin",
          "type": "tuple"
        }
      ],
      "name": "allowInitializePath",
      "outputs": [
        {
          "internalType": "bool",
          "name": "",
          "type": "bool"
        }
      ],
      "stateMutability": "view",
      "type": "function"
    },
    {
      "inputs": [
        {
          "internalType": "uint32",
          "name": "",
          "type": "uint32"
        }
      ],
      "name": "chainIdToEid",
      "outputs": [
        {
          "internalType": "uint32",
          "name": "",
          "type": "uint32"
        }
      ],
      "stateMutability": "view",
      "type": "function"
    },
    {
      "inputs": [
        {
          "internalType": "uint32",
          "name": "",
          "type": "uint32"
        }
      ],
      "name": "eidToChainId",
      "outputs": [
        {
          "internalType": "uint32",
          "name": "",
          "type": "uint32"
        }
      ],
      "stateMutability": "view",
      "type": "function"
    },
    {
      "inputs": [],
      "name": "endpoint",
      "outputs": [
        {
          "internalType": "contract ILayerZeroEndpointV2",
          "name": "",
          "type": "address"
        }
      ],
      "stateMutability": "view",
      "type": "function"
    },
    {
      "inputs": [],
      "name": "feeBps",
      "outputs": [
        {
          "internalType": "uint256",
          "name": "",
          "type": "uint256"
        }
      ],
      "stateMutability": "view",
      "type": "function"
    },
    {
      "inputs": [
        {
          "components": [
            {
              "internalType": "uint32",
              "name": "srcEid",
              "type": "uint32"
            },
            {
              "internalType": "bytes32",
              "name": "sender",
              "type": "bytes32"
            },
            {
              "internalType": "uint64",
              "name": "nonce",
              "type": "uint64"
            }
          ],
          "internalType": "struct Origin",
          "name": "",
          "type": "tuple"
        },
        {
          "internalType": "bytes",
          "name": "",
          "type": "bytes"
        },
        {
          "internalType": "address",
          "name": "_sender",
          "type": "address"
        }
      ],
      "name": "isComposeMsgSender",
      "outputs": [
        {
          "internalType": "bool",
          "name": "",
          "type": "bool"
        }
      ],
      "stateMutability": "view",
      "type": "function"
    },
    {
      "inputs": [
        {
          "components": [
            {
              "internalType": "uint32",
              "name": "srcEid",
              "type": "uint32"
            },
            {
              "internalType": "bytes32",
              "name": "sender",
              "type": "bytes32"
            },
            {
              "internalType": "uint64",
              "name": "nonce",
              "type": "uint64"
            }
          ],
          "internalType": "struct Origin",
          "name": "_origin",
          "type": "tuple"
        },
        {
          "internalType": "bytes32",
          "name": "_guid",
          "type": "bytes32"
        },
        {
          "internalType": "bytes",
          "name": "_message",
          "type": "bytes"
        },
        {
          "internalType": "address",
          "name": "_executor",
          "type": "address"
        },
        {
          "internalType": "bytes",
          "name": "_extraData",
          "type": "bytes"
        }
      ],
      "name": "lzReceive",
      "outputs": [],
      "stateMutability": "payable",
      "type": "function"
    },
    {
      "inputs": [
        {
          "internalType": "address",
          "name": "",
          "type": "address"
        },
        {
          "internalType": "uint32",
          "name": "",
          "type": "uint32"
        }
      ],
      "name": "mappedTokens",
      "outputs": [
        {
          "internalType": "address",
          "name": "",
          "type": "address"
        }
      ],
      "stateMutability": "view",
      "type": "function"
    },
    {
      "inputs": [
        {
          "internalType": "uint32",
          "name": "",
          "type": "uint32"
        },
        {
          "internalType": "bytes32",
          "name": "",
          "type": "bytes32"
        }
      ],
      "name": "nextNonce",
      "outputs": [
        {
          "internalType": "uint64",
          "name": "nonce",
          "type": "uint64"
        }
      ],
      "stateMutability": "view",
      "type": "function"
    },
    {
      "inputs": [],
      "name": "oAppVersion",
      "outputs": [
        {
          "internalType": "uint64",
          "name": "senderVersion",
          "type": "uint64"
        },
        {
          "internalType": "uint64",
          "name": "receiverVersion",
          "type": "uint64"
        }
      ],
      "stateMutability": "pure",
      "type": "function"
    },
    {
      "inputs": [],
      "name": "owner",
      "outputs": [
        {
          "internalType": "address",
          "name": "",
          "type": "address"
        }
      ],
      "stateMutability": "view",
      "type": "function"
    },
    {
      "inputs": [
        {
          "internalType": "uint32",
          "name": "eid",
          "type": "uint32"
        }
      ],
      "name": "peers",
      "outputs": [
        {
          "internalType": "bytes32",
          "name": "peer",
          "type": "bytes32"
        }
      ],
      "stateMutability": "view",
      "type": "function"
    },
    {
      "inputs": [
        {
          "internalType": "uint32",
          "name": "_dstChainId",
          "type": "uint32"
        },
        {
          "internalType": "address",
          "name": "_token",
          "type": "address"
        },
        {
          "internalType": "uint256",
          "name": "_amount",
          "type": "uint256"
        },
        {
          "internalType": "address",
          "name": "_to",
          "type": "address"
        },
        {
          "internalType": "bytes",
          "name": "_options",
          "type": "bytes"
        },
        {
          "internalType": "bool",
          "name": "_payInLzToken",
          "type": "bool"
        }
      ],
      "name": "quote",
      "outputs": [
        {
          "internalType": "uint256",
          "name": "nativeFee",
          "type": "uint256"
        },
        {
          "internalType": "uint256",
          "name": "zroFee",
          "type": "uint256"
        }
      ],
      "stateMutability": "view",
      "type": "function"
    },
    {
      "inputs": [
        {
          "internalType": "uint32",
          "name": "_dstChainId",
          "type": "uint32"
        },
        {
          "internalType": "address",
          "name": "_token",
          "type": "address"
        },
        {
          "internalType": "uint256",
          "name": "_amount",
          "type": "uint256"
        },
        {
          "internalType": "address",
          "name": "_to",
          "type": "address"
        }
      ],
      "name": "quote",
      "outputs": [
        {
          "internalType": "uint256",
          "name": "nativeFee",
          "type": "uint256"
        },
        {
          "internalType": "uint256",
          "name": "zroFee",
          "type": "uint256"
        }
      ],
      "stateMutability": "view",
      "type": "function"
    },
    {
      "inputs": [],
      "name": "renounceOwnership",
      "outputs": [],
      "stateMutability": "nonpayable",
      "type": "function"
    },
    {
      "inputs": [
        {
          "internalType": "address",
          "name": "_token",
          "type": "address"
        },
        {
          "internalType": "uint256",
          "name": "_amount",
          "type": "uint256"
        },
        {
          "internalType": "address",
          "name": "_to",
          "type": "address"
        },
        {
          "internalType": "uint32",
          "name": "_dstChainId",
          "type": "uint32"
        }
      ],
      "name": "send",
      "outputs": [],
      "stateMutability": "payable",
      "type": "function"
    },
    {
      "inputs": [
        {
          "internalType": "address",
          "name": "_token",
          "type": "address"
        },
        {
          "internalType": "uint256",
          "name": "_amount",
          "type": "uint256"
        },
        {
          "internalType": "address",
          "name": "_to",
          "type": "address"
        },
        {
          "internalType": "uint32",
          "name": "_dstChainId",
          "type": "uint32"
        },
        {
          "internalType": "bytes",
          "name": "_options",
          "type": "bytes"
        }
      ],
      "name": "send",
      "outputs": [],
      "stateMutability": "payable",
      "type": "function"
    },
    {
      "inputs": [
        {
          "internalType": "uint32",
          "name": "_chainId",
          "type": "uint32"
        },
        {
          "internalType": "uint32",
          "name": "_eid",
          "type": "uint32"
        }
      ],
      "name": "setChainIdToEid",
      "outputs": [],
      "stateMutability": "nonpayable",
      "type": "function"
    },
    {
      "inputs": [
        {
          "internalType": "address",
          "name": "_delegate",
          "type": "address"
        }
      ],
      "name": "setDelegate",
      "outputs": [],
      "stateMutability": "nonpayable",
      "type": "function"
    },
    {
      "inputs": [
        {
          "internalType": "uint32",
          "name": "_eid",
          "type": "uint32"
        },
        {
          "internalType": "uint32",
          "name": "_chainId",
          "type": "uint32"
        }
      ],
      "name": "setEidToChainId",
      "outputs": [],
      "stateMutability": "nonpayable",
      "type": "function"
    },
    {
      "inputs": [
        {
          "internalType": "uint256",
          "name": "_feeBps",
          "type": "uint256"
        }
      ],
      "name": "setFeeBps",
      "outputs": [],
      "stateMutability": "nonpayable",
      "type": "function"
    },
    {
      "inputs": [
        {
          "internalType": "uint32",
          "name": "_chainId",
          "type": "uint32"
        },
        {
          "internalType": "address",
          "name": "_srcToken",
          "type": "address"
        },
        {
          "internalType": "address",
          "name": "_dstToken",
          "type": "address"
        }
      ],
      "name": "setMappedToken",
      "outputs": [],
      "stateMutability": "nonpayable",
      "type": "function"
    },
    {
      "inputs": [
        {
          "internalType": "uint32",
          "name": "_eid",
          "type": "uint32"
        },
        {
          "internalType": "bytes32",
          "name": "_peer",
          "type": "bytes32"
        }
      ],
      "name": "setPeer",
      "outputs": [],
      "stateMutability": "nonpayable",
      "type": "function"
    },
    {
      "inputs": [
        {
          "internalType": "address",
          "name": "newOwner",
          "type": "address"
        }
      ],
      "name": "transferOwnership",
      "outputs": [],
      "stateMutability": "nonpayable",
      "type": "function"
    },
    {
      "inputs": [],
      "name": "withdrawEth",
      "outputs": [],
      "stateMutability": "nonpayable",
      "type": "function"
    },
    {
      "inputs": [
        {
          "internalType": "uint256",
          "name": "_amount",
          "type": "uint256"
        }
      ],
      "name": "withdrawEth",
      "outputs": [],
      "stateMutability": "nonpayable",
      "type": "function"
    },
    {
      "inputs": [
        {
          "internalType": "address",
          "name": "_token",
          "type": "address"
        }
      ],
      "name": "withdrawFee",
      "outputs": [],
      "stateMutability": "nonpayable",
      "type": "function"
    },
    {
      "inputs": [
        {
          "internalType": "address",
          "name": "_token",
          "type": "address"
        },
        {
          "internalType": "uint256",
          "name": "_amount",
          "type": "uint256"
        }
      ],
      "name": "withdrawFee",
      "outputs": [],
      "stateMutability": "nonpayable",
      "type": "function"
    },
    {
      "stateMutability": "payable",
      "type": "receive"
    }
  ],
  "transactionHash": "0x2ee3cf5289c04dd507da53361f71edc06a2b6b5286c5b94ae76926f229cc9f24",
  "args": [
    10,
    "0x1a44076050125825900e736c501f859c50fE728c"
  ],
  "numDeployments": 6,
  "solcInputHash": "8557122931251dd2aaabbf255e15704b",
  "bytecode": "0x60a06040523480156200001157600080fd5b506040516200255f3803806200255f8339810160408190526200003491620002e9565b80338181620000438162000182565b6001600160a01b0380831660805281166200007157604051632d618d8160e21b815260040160405180910390fd5b60805160405163ca5eb5e160e01b81526001600160a01b0383811660048301529091169063ca5eb5e190602401600060405180830381600087803b158015620000b957600080fd5b505af1158015620000ce573d6000803e3d6000fd5b505050600287905550620000ee935061210592506175e8915050620001d2565b620000fd600a61759f620001d2565b6200010c60fc61762f620001d2565b6200011c61ed88617647620001d2565b6200012c61868b617634620001d2565b6200013c6175e86121056200022d565b6200014b61759f600a6200022d565b6200015a61762f60fc6200022d565b6200016a61764761ed886200022d565b6200017a61763461868b6200022d565b505062000328565b600080546001600160a01b038381166001600160a01b0319831681178455604051919092169283917f8be0079c531659141344cd1fd0a4f28419497f9722a3daafe3b4186f6b6457e09190a35050565b620001dc62000288565b63ffffffff828116600081815260046020526040808220805463ffffffff19169486169485179055517fca3a427605227707d442b29ebfc079cbb4eed8504c9e91a9dc082383749a65ba9190a35050565b6200023762000288565b63ffffffff828116600081815260056020526040808220805463ffffffff19169486169485179055517fccdd25d4741ed2a08cec83b24a123c47cdf831230a4e029a6848164513d2632b9190a35050565b6000546001600160a01b03163314620002e75760405162461bcd60e51b815260206004820181905260248201527f4f776e61626c653a2063616c6c6572206973206e6f7420746865206f776e6572604482015260640160405180910390fd5b565b60008060408385031215620002fd57600080fd5b825160208401519092506001600160a01b03811681146200031d57600080fd5b809150509250929050565b6080516121f16200036e6000396000818161030e015281816105ea01528181610a8f015281816111da0152818161142201528181611589015261164201526121f16000f3fe6080604052600436106101bb5760003560e01c80637d25a05e116100ec578063bda12a951161008a578063e6e36b9a11610064578063e6e36b9a14610575578063f2fde38b14610588578063fd9be522146105a8578063ff7bd03d146105c857600080fd5b8063bda12a9514610502578063c311d04914610535578063ca5eb5e11461055557600080fd5b80638da5cb5b116100c65780638da5cb5b14610482578063a0ef91df146104a0578063a3af26d9146104b5578063bb0b6a53146104d557600080fd5b80637d25a05e146103d157806382413eac1461040a5780638b42babd1461043a57600080fd5b80634650c43f116101595780635fc984a9116101335780635fc984a9146103485780636760111c1461035b578063715018a61461039c57806372c27b62146103b157600080fd5b80634650c43f146102bc5780634ae951fc146102dc5780635e280f11146102fc57600080fd5b80631ac3ddeb116101955780631ac3ddeb1461023857806324a9d853146102585780633400288b1461027c5780633f6e82c31461029c57600080fd5b806313137d65146101c757806317442b70146101dc5780631a3b21721461020357600080fd5b366101c257005b600080fd5b6101da6101d5366004611963565b6105e8565b005b3480156101e857600080fd5b50604080516001815260026020820152015b60405180910390f35b34801561020f57600080fd5b5061022361021e366004611a7c565b6106a8565b604080519283526020830191909152016101fa565b34801561024457600080fd5b506101da610253366004611b60565b6106c8565b34801561026457600080fd5b5061026e60025481565b6040519081526020016101fa565b34801561028857600080fd5b506101da610297366004611b7d565b6107b5565b3480156102a857600080fd5b506102236102b7366004611ba7565b6107cb565b3480156102c857600080fd5b506101da6102d7366004611bf8565b610824565b3480156102e857600080fd5b506101da6102f7366004611c2b565b61087d565b34801561030857600080fd5b506103307f000000000000000000000000000000000000000000000000000000000000000081565b6040516001600160a01b0390911681526020016101fa565b6101da610356366004611c74565b6108f0565b34801561036757600080fd5b50610330610376366004611cc5565b60036020908152600092835260408084209091529082529020546001600160a01b031681565b3480156103a857600080fd5b506101da610936565b3480156103bd57600080fd5b506101da6103cc366004611ce3565b61094a565b3480156103dd57600080fd5b506103f16103ec366004611b7d565b610985565b60405167ffffffffffffffff90911681526020016101fa565b34801561041657600080fd5b5061042a610425366004611cfc565b61098e565b60405190151581526020016101fa565b34801561044657600080fd5b5061046d610455366004611d58565b60056020526000908152604090205463ffffffff1681565b60405163ffffffff90911681526020016101fa565b34801561048e57600080fd5b506000546001600160a01b0316610330565b3480156104ac57600080fd5b506101da6109a3565b3480156104c157600080fd5b506101da6104d0366004611bf8565b6109da565b3480156104e157600080fd5b5061026e6104f0366004611d58565b60016020526000908152604090205481565b34801561050e57600080fd5b5061046d61051d366004611d58565b60046020526000908152604090205463ffffffff1681565b34801561054157600080fd5b506101da610550366004611ce3565b610a33565b34801561056157600080fd5b506101da610570366004611b60565b610a68565b6101da610583366004611d73565b610ae7565b34801561059457600080fd5b506101da6105a3366004611b60565b610b32565b3480156105b457600080fd5b506101da6105c3366004611df6565b610bab565b3480156105d457600080fd5b5061042a6105e3366004611e14565b610be6565b7f00000000000000000000000000000000000000000000000000000000000000006001600160a01b03163314610638576040516391ac5e4f60e01b81523360048201526024015b60405180910390fd5b602087018035906106529061064d908a611d58565b610c1c565b14610690576106646020880188611d58565b60405163309afaf360e21b815263ffffffff90911660048201526020880135602482015260440161062f565b61069f87878787878787610c58565b50505050505050565b6000806106b9888888888888610db0565b91509150965096945050505050565b6106d0610e68565b6040516370a0823160e01b81523060048201526000906001600160a01b038316906370a0823190602401602060405180830381865afa158015610717573d6000803e3d6000fd5b505050506040513d601f19601f8201168201806040525081019061073b9190611e30565b60405163a9059cbb60e01b8152336004820152602481018290529091506001600160a01b0383169063a9059cbb906044015b6020604051808303816000875af115801561078c573d6000803e3d6000fd5b505050506040513d601f19601f820116820180604052508101906107b09190611e49565b505050565b6107bd610e68565b6107c78282610ec2565b5050565b600080600061080561c35060006107fe60408051600360f01b602082015281516002818303018152602290910190915290565b9190610f17565b905061081687878787856000610db0565b925092505094509492505050565b61082c610e68565b63ffffffff828116600081815260046020526040808220805463ffffffff19169486169485179055517fca3a427605227707d442b29ebfc079cbb4eed8504c9e91a9dc082383749a65ba9190a35050565b610885610e68565b6001600160a01b03828116600081815260036020908152604080832063ffffffff8916808552925280832080546001600160a01b0319169587169586179055519092917f15b609c835edb2b4e866ce0b52ade03aa9fa21fab07383b0a0d7f3258c956a6391a4505050565b600061092061c35060006107fe60408051600360f01b602082015281516002818303018152602290910190915290565b905061092f8286868685610f7f565b5050505050565b61093e610e68565b6109486000611174565b565b610952610e68565b600281905560405181907f4f78c4ceb393a616bbd264a4584a9ad15d722042ce1e135e6a8380217f5cb42b90600090a250565b60005b92915050565b6001600160a01b03811630145b949350505050565b6109ab610e68565b6040514790339082156108fc029083906000818181858888f193505050501580156107c7573d6000803e3d6000fd5b6109e2610e68565b63ffffffff828116600081815260056020526040808220805463ffffffff19169486169485179055517fccdd25d4741ed2a08cec83b24a123c47cdf831230a4e029a6848164513d2632b9190a35050565b610a3b610e68565b604051339082156108fc029083906000818181858888f193505050501580156107c7573d6000803e3d6000fd5b610a70610e68565b60405163ca5eb5e160e01b81526001600160a01b0382811660048301527f0000000000000000000000000000000000000000000000000000000000000000169063ca5eb5e190602401600060405180830381600087803b158015610ad357600080fd5b505af115801561092f573d6000803e3d6000fd5b610b2a8387878786868080601f016020809104026020016040519081016040528093929190818152602001838380828437600092019190915250610f7f92505050565b505050505050565b610b3a610e68565b6001600160a01b038116610b9f5760405162461bcd60e51b815260206004820152602660248201527f4f776e61626c653a206e6577206f776e657220697320746865207a65726f206160448201526564647265737360d01b606482015260840161062f565b610ba881611174565b50565b610bb3610e68565b60405163a9059cbb60e01b8152336004820152602481018290526001600160a01b0383169063a9059cbb9060440161076d565b6000602082018035906001908390610bfe9086611d58565b63ffffffff1681526020810191909152604001600020541492915050565b63ffffffff8116600090815260016020526040812054806109885760405163f6ff4fb760e01b815263ffffffff8416600482015260240161062f565b60008080610c6887890189611e66565b919450925090506000600581610c8160208e018e611d58565b63ffffffff908116825260208083019390935260409182016000908120546001600160a01b0380891683526003865284832091909316808352945291909120549192501680610ce357604051634b62f01360e01b815260040160405180910390fd5b6040516340c10f1960e01b81526001600160a01b038681166004830152602482018590528216906340c10f1990604401600060405180830381600087803b158015610d2d57600080fd5b505af1158015610d41573d6000803e3d6000fd5b505050508163ffffffff16856001600160a01b0316826001600160a01b03167f94d4076657c103b5c4c62e0537f4775b58368a87c57ee50a98b67424f63ff81d868f604051610d9a929190918252602082015260400190565b60405180910390a4505050505050505050505050565b63ffffffff8087166000908152600460205260408120549091829116808203610dec576040516373705e9160e11b815260040160405180910390fd5b6000612710600254612710610e019190611ebd565b610e0b908a611ed0565b610e159190611ee7565b90506000878a83604051602001610e2e93929190611f09565b60405160208183030381529060405290506000610e4d84838a8a6111c4565b8051602090910151909d909c509a5050505050505050505050565b6000546001600160a01b031633146109485760405162461bcd60e51b815260206004820181905260248201527f4f776e61626c653a2063616c6c6572206973206e6f7420746865206f776e6572604482015260640161062f565b63ffffffff8216600081815260016020908152604091829020849055815192835282018390527f238399d427b947898edb290f5ff0f9109849b1c3ba196a42e35f00c50a54b98b910160405180910390a15050565b6060836003610f278260006112a5565b61ffff1614610f5b57610f3b8160006112a5565b604051633a51740d60e01b815261ffff909116600482015260240161062f565b6000610f678585611302565b9050610f7586600183611384565b9695505050505050565b63ffffffff80861660009081526004602052604081205490911690819003610fba576040516373705e9160e11b815260040160405180910390fd5b6040516323b872dd60e01b81526001600160a01b038616906323b872dd90610fea90339030908990600401611f09565b6020604051808303816000875af1158015611009573d6000803e3d6000fd5b505050506040513d601f19601f8201168201806040525081019061102d9190611e49565b5060006127106002546127106110439190611ebd565b61104d9087611ed0565b6110579190611ee7565b604051632770a7eb60e21b8152306004820152602481018290529091506001600160a01b03871690639dc29fac90604401600060405180830381600087803b1580156110a257600080fd5b505af11580156110b6573d6000803e3d6000fd5b5050505060008487836040516020016110d193929190611f09565b6040516020818303038152906040529050600061110684838760405180604001604052803481526020016000815250336113ef565b90508863ffffffff16866001600160a01b0316896001600160a01b03167fa81fe4f47f4d57fa23a0adede4a96172fc2b54d7facdef004614e7ba3b18c356868560000151604051611161929190918252602082015260400190565b60405180910390a4505050505050505050565b600080546001600160a01b038381166001600160a01b0319831681178455604051919092169283917f8be0079c531659141344cd1fd0a4f28419497f9722a3daafe3b4186f6b6457e09190a35050565b60408051808201909152600080825260208201527f00000000000000000000000000000000000000000000000000000000000000006001600160a01b031663ddc28c586040518060a001604052808863ffffffff16815260200161122789610c1c565b8152602001878152602001868152602001851515815250306040518363ffffffff1660e01b815260040161125c929190611f7d565b6040805180830381865afa158015611278573d6000803e3d6000fd5b505050506040513d601f19601f8201168201806040525081019061129c9190612045565b95945050505050565b60006112b2826002612061565b835110156112f95760405162461bcd60e51b8152602060048201526014602482015273746f55696e7431365f6f75744f66426f756e647360601b604482015260640161062f565b50016002015190565b60606fffffffffffffffffffffffffffffffff82161561135357604080516001600160801b0319608086811b8216602084015285901b1660308201520160405160208183030381529060405261137d565b6040516001600160801b0319608085901b1660208201526030016040516020818303038152906040525b9392505050565b60608360036113948260006112a5565b61ffff16146113a857610f3b8160006112a5565b8460016113b585516114fa565b6113c0906001612074565b86866040516020016113d6959493929190612096565b6040516020818303038152906040529150509392505050565b6113f76118a5565b60006114068460000151611561565b602085015190915015611420576114208460200151611585565b7f00000000000000000000000000000000000000000000000000000000000000006001600160a01b0316632637a450826040518060a001604052808b63ffffffff1681526020016114708c610c1c565b81526020018a815260200189815260200160008960200151111515815250866040518463ffffffff1660e01b81526004016114ac929190611f7d565b60806040518083038185885af11580156114ca573d6000803e3d6000fd5b50505050506040513d601f19601f820116820180604052508101906114ef91906120fd565b979650505050505050565b600061ffff82111561155d5760405162461bcd60e51b815260206004820152602660248201527f53616665436173743a2076616c756520646f65736e27742066697420696e203160448201526536206269747360d01b606482015260840161062f565b5090565b600081341461155d576040516304fb820960e51b815234600482015260240161062f565b60007f00000000000000000000000000000000000000000000000000000000000000006001600160a01b031663e4fe1d946040518163ffffffff1660e01b8152600401602060405180830381865afa1580156115e5573d6000803e3d6000fd5b505050506040513d601f19601f82011682018060405250810190611609919061216f565b90506001600160a01b038116611632576040516329b99a9560e11b815260040160405180910390fd5b6107c76001600160a01b038216337f0000000000000000000000000000000000000000000000000000000000000000856116ba846323b872dd60e01b85858560405160240161168393929190611f09565b60408051601f198184030181529190526020810180516001600160e01b03166001600160e01b0319909316929092179091526116c0565b50505050565b6000611715826040518060400160405280602081526020017f5361666545524332303a206c6f772d6c6576656c2063616c6c206661696c6564815250856001600160a01b03166117929092919063ffffffff16565b8051909150156107b057808060200190518101906117339190611e49565b6107b05760405162461bcd60e51b815260206004820152602a60248201527f5361666545524332303a204552433230206f7065726174696f6e20646964206e6044820152691bdd081cdd58d8d9595960b21b606482015260840161062f565b606061099b848460008585600080866001600160a01b031685876040516117b9919061218c565b60006040518083038185875af1925050503d80600081146117f6576040519150601f19603f3d011682016040523d82523d6000602084013e6117fb565b606091505b50915091506114ef878383876060831561187657825160000361186f576001600160a01b0385163b61186f5760405162461bcd60e51b815260206004820152601d60248201527f416464726573733a2063616c6c20746f206e6f6e2d636f6e7472616374000000604482015260640161062f565b508161099b565b61099b838381511561188b5781518083602001fd5b8060405162461bcd60e51b815260040161062f91906121a8565b604051806060016040528060008019168152602001600067ffffffffffffffff1681526020016118e8604051806040016040528060008152602001600081525090565b905290565b6000606082840312156118ff57600080fd5b50919050565b60008083601f84011261191757600080fd5b50813567ffffffffffffffff81111561192f57600080fd5b60208301915083602082850101111561194757600080fd5b9250929050565b6001600160a01b0381168114610ba857600080fd5b600080600080600080600060e0888a03121561197e57600080fd5b61198889896118ed565b965060608801359550608088013567ffffffffffffffff808211156119ac57600080fd5b6119b88b838c01611905565b909750955060a08a013591506119cd8261194e565b90935060c089013590808211156119e357600080fd5b506119f08a828b01611905565b989b979a50959850939692959293505050565b803563ffffffff81168114611a1757600080fd5b919050565b634e487b7160e01b600052604160045260246000fd5b604051601f8201601f1916810167ffffffffffffffff81118282101715611a5b57611a5b611a1c565b604052919050565b8015158114610ba857600080fd5b8035611a1781611a63565b60008060008060008060c08789031215611a9557600080fd5b611a9e87611a03565b9550602080880135611aaf8161194e565b9550604088013594506060880135611ac68161194e565b9350608088013567ffffffffffffffff80821115611ae357600080fd5b818a0191508a601f830112611af757600080fd5b813581811115611b0957611b09611a1c565b611b1b601f8201601f19168501611a32565b91508082528b84828501011115611b3157600080fd5b8084840185840137600084828401015250809450505050611b5460a08801611a71565b90509295509295509295565b600060208284031215611b7257600080fd5b813561137d8161194e565b60008060408385031215611b9057600080fd5b611b9983611a03565b946020939093013593505050565b60008060008060808587031215611bbd57600080fd5b611bc685611a03565b93506020850135611bd68161194e565b9250604085013591506060850135611bed8161194e565b939692955090935050565b60008060408385031215611c0b57600080fd5b611c1483611a03565b9150611c2260208401611a03565b90509250929050565b600080600060608486031215611c4057600080fd5b611c4984611a03565b92506020840135611c598161194e565b91506040840135611c698161194e565b809150509250925092565b60008060008060808587031215611c8a57600080fd5b8435611c958161194e565b9350602085013592506040850135611cac8161194e565b9150611cba60608601611a03565b905092959194509250565b60008060408385031215611cd857600080fd5b8235611c148161194e565b600060208284031215611cf557600080fd5b5035919050565b60008060008060a08587031215611d1257600080fd5b611d1c86866118ed565b9350606085013567ffffffffffffffff811115611d3857600080fd5b611d4487828801611905565b9094509250506080850135611bed8161194e565b600060208284031215611d6a57600080fd5b61137d82611a03565b60008060008060008060a08789031215611d8c57600080fd5b8635611d978161194e565b9550602087013594506040870135611dae8161194e565b9350611dbc60608801611a03565b9250608087013567ffffffffffffffff811115611dd857600080fd5b611de489828a01611905565b979a9699509497509295939492505050565b60008060408385031215611e0957600080fd5b8235611b998161194e565b600060608284031215611e2657600080fd5b61137d83836118ed565b600060208284031215611e4257600080fd5b5051919050565b600060208284031215611e5b57600080fd5b815161137d81611a63565b600080600060608486031215611e7b57600080fd5b8335611e868161194e565b92506020840135611e968161194e565b929592945050506040919091013590565b634e487b7160e01b600052601160045260246000fd5b8181038181111561098857610988611ea7565b808202811582820484141761098857610988611ea7565b600082611f0457634e487b7160e01b600052601260045260246000fd5b500490565b6001600160a01b039384168152919092166020820152604081019190915260600190565b60005b83811015611f48578181015183820152602001611f30565b50506000910152565b60008151808452611f69816020860160208601611f2d565b601f01601f19169290920160200192915050565b6040815263ffffffff8351166040820152602083015160608201526000604084015160a06080840152611fb360e0840182611f51565b90506060850151603f198483030160a0850152611fd08282611f51565b60809690960151151560c08501525050506001600160a01b039190911660209091015290565b60006040828403121561200857600080fd5b6040516040810181811067ffffffffffffffff8211171561202b5761202b611a1c565b604052825181526020928301519281019290925250919050565b60006040828403121561205757600080fd5b61137d8383611ff6565b8082018082111561098857610988611ea7565b61ffff81811683821601908082111561208f5761208f611ea7565b5092915050565b600086516120a8818460208b01611f2d565b6001600160f81b031960f888811b82169285019283526001600160f01b031960f089901b16600184015286901b16600382015283516120ee816004840160208801611f2d565b01600401979650505050505050565b60006080828403121561210f57600080fd5b6040516060810167ffffffffffffffff828210818311171561213357612133611a1c565b816040528451835260208501519150808216821461215057600080fd5b5060208201526121638460408501611ff6565b60408201529392505050565b60006020828403121561218157600080fd5b815161137d8161194e565b6000825161219e818460208701611f2d565b9190910192915050565b60208152600061137d6020830184611f5156fea2646970667358221220069a3086fff7dab9d646a36d07b6c997de5c77041749ef807c22515c16ed050e64736f6c63430008160033",
  "devdoc": {
    "kind": "dev",
    "methods": {
      "allowInitializePath((uint32,bytes32,uint64))": {
        "details": "This indicates to the endpoint that the OApp has enabled msgs for this particular path to be received.This defaults to assuming if a peer has been set, its initialized. Can be overridden by the OApp if there is other logic to determine this.",
        "params": {
          "origin": "The origin information containing the source endpoint and sender address."
        },
        "returns": {
          "_0": "Whether the path has been initialized."
        }
      },
      "isComposeMsgSender((uint32,bytes32,uint64),bytes,address)": {
        "details": "_origin The origin information containing the source endpoint and sender address.  - srcEid: The source chain endpoint ID.  - sender: The sender address on the src chain.  - nonce: The nonce of the message._message The lzReceive payload.Applications can optionally choose to implement separate composeMsg senders that are NOT the bridging layer.The default sender IS the OAppReceiver implementer.",
        "params": {
          "_sender": "The sender address."
        },
        "returns": {
          "_0": "isSender Is a valid sender."
        }
      },
      "lzReceive((uint32,bytes32,uint64),bytes32,bytes,address,bytes)": {
        "details": "Entry point for receiving messages or packets from the endpoint.Entry point for receiving msg/packet from the LayerZero endpoint.",
        "params": {
          "_executor": "The address of the executor for the received message.",
          "_extraData": "Additional arbitrary data provided by the corresponding executor.",
          "_guid": "The unique identifier for the received LayerZero message.",
          "_message": "The payload of the received message.",
          "_origin": "The origin information containing the source endpoint and sender address.  - srcEid: The source chain endpoint ID.  - sender: The sender address on the src chain.  - nonce: The nonce of the message."
        }
      },
      "nextNonce(uint32,bytes32)": {
        "details": "_srcEid The source endpoint ID._sender The sender address.The path nonce starts from 1. If 0 is returned it means that there is NO nonce ordered enforcement.Is required by the off-chain executor to determine the OApp expects msg execution is ordered.This is also enforced by the OApp.By default this is NOT enabled. ie. nextNonce is hardcoded to return 0.",
        "returns": {
          "nonce": "The next nonce."
        }
      },
      "oAppVersion()": {
        "returns": {
          "receiverVersion": "The version of the OAppReceiver.sol implementation.",
          "senderVersion": "The version of the OAppSender.sol implementation."
        }
      },
      "owner()": {
        "details": "Returns the address of the current owner."
      },
      "renounceOwnership()": {
        "details": "Leaves the contract without owner. It will not be possible to call `onlyOwner` functions anymore. Can only be called by the current owner. NOTE: Renouncing ownership will leave the contract without an owner, thereby removing any functionality that is only available to the owner."
      },
      "send(address,uint256,address,uint32,bytes)": {
        "params": {
          "_amount": "The amount of tokens to send",
          "_dstChainId": "The destination chain id",
          "_options": "The options to send the tokens with",
          "_to": "The address to send the tokens to",
          "_token": "The token to send"
        }
      },
      "setDelegate(address)": {
        "details": "Only the owner/admin of the OApp can call this function.Provides the ability for a delegate to set configs, on behalf of the OApp, directly on the Endpoint contract.",
        "params": {
          "_delegate": "The address of the delegate to be set."
        }
      },
      "setPeer(uint32,bytes32)": {
        "details": "Only the owner/admin of the OApp can call this function.Indicates that the peer is trusted to send LayerZero messages to this OApp.Set this to bytes32(0) to remove the peer address.Peer is a bytes32 to accommodate non-evm chains.",
        "params": {
          "_eid": "The endpoint ID.",
          "_peer": "The address of the peer to be associated with the corresponding endpoint."
        }
      },
      "transferOwnership(address)": {
        "details": "Transfers ownership of the contract to a new account (`newOwner`). Can only be called by the current owner."
      }
    },
    "version": 1
  },
  "userdoc": {
    "kind": "user",
    "methods": {
      "allowInitializePath((uint32,bytes32,uint64))": {
        "notice": "Checks if the path initialization is allowed based on the provided origin."
      },
      "endpoint()": {
        "notice": "Retrieves the LayerZero endpoint associated with the OApp."
      },
      "isComposeMsgSender((uint32,bytes32,uint64),bytes,address)": {
        "notice": "Indicates whether an address is an approved composeMsg sender to the Endpoint."
      },
      "nextNonce(uint32,bytes32)": {
        "notice": "Retrieves the next nonce for a given source endpoint and sender address."
      },
      "oAppVersion()": {
        "notice": "Retrieves the OApp version information."
      },
      "peers(uint32)": {
        "notice": "Retrieves the peer (OApp) associated with a corresponding endpoint."
      },
      "send(address,uint256,address,uint32,bytes)": {
        "notice": "Sends tokens to a destination chain"
      },
      "setDelegate(address)": {
        "notice": "Sets the delegate address for the OApp."
      },
      "setPeer(uint32,bytes32)": {
        "notice": "Sets the peer address (OApp instance) for a corresponding endpoint."
      }
    },
    "version": 1
  },
  "storageLayout": {
    "storage": [
      {
        "astId": 2741,
        "contract": "contracts/bridge/xERC20LayerZero.sol:xERC20LayerZero",
        "label": "_owner",
        "offset": 0,
        "slot": "0",
        "type": "t_address"
      },
      {
        "astId": 1825,
        "contract": "contracts/bridge/xERC20LayerZero.sol:xERC20LayerZero",
        "label": "peers",
        "offset": 0,
        "slot": "1",
        "type": "t_mapping(t_uint32,t_bytes32)"
      },
      {
        "astId": 5266,
        "contract": "contracts/bridge/xERC20LayerZero.sol:xERC20LayerZero",
        "label": "feeBps",
        "offset": 0,
        "slot": "2",
        "type": "t_uint256"
      },
      {
        "astId": 5272,
        "contract": "contracts/bridge/xERC20LayerZero.sol:xERC20LayerZero",
        "label": "mappedTokens",
        "offset": 0,
        "slot": "3",
        "type": "t_mapping(t_address,t_mapping(t_uint32,t_address))"
      },
      {
        "astId": 5276,
        "contract": "contracts/bridge/xERC20LayerZero.sol:xERC20LayerZero",
        "label": "chainIdToEid",
        "offset": 0,
        "slot": "4",
        "type": "t_mapping(t_uint32,t_uint32)"
      },
      {
        "astId": 5280,
        "contract": "contracts/bridge/xERC20LayerZero.sol:xERC20LayerZero",
        "label": "eidToChainId",
        "offset": 0,
        "slot": "5",
        "type": "t_mapping(t_uint32,t_uint32)"
      }
    ],
    "types": {
      "t_address": {
        "encoding": "inplace",
        "label": "address",
        "numberOfBytes": "20"
      },
      "t_bytes32": {
        "encoding": "inplace",
        "label": "bytes32",
        "numberOfBytes": "32"
      },
      "t_mapping(t_address,t_mapping(t_uint32,t_address))": {
        "encoding": "mapping",
        "key": "t_address",
        "label": "mapping(address => mapping(uint32 => address))",
        "numberOfBytes": "32",
        "value": "t_mapping(t_uint32,t_address)"
      },
      "t_mapping(t_uint32,t_address)": {
        "encoding": "mapping",
        "key": "t_uint32",
        "label": "mapping(uint32 => address)",
        "numberOfBytes": "32",
        "value": "t_address"
      },
      "t_mapping(t_uint32,t_bytes32)": {
        "encoding": "mapping",
        "key": "t_uint32",
        "label": "mapping(uint32 => bytes32)",
        "numberOfBytes": "32",
        "value": "t_bytes32"
      },
      "t_mapping(t_uint32,t_uint32)": {
        "encoding": "mapping",
        "key": "t_uint32",
        "label": "mapping(uint32 => uint32)",
        "numberOfBytes": "32",
        "value": "t_uint32"
      },
      "t_uint256": {
        "encoding": "inplace",
        "label": "uint256",
        "numberOfBytes": "32"
      },
      "t_uint32": {
        "encoding": "inplace",
        "label": "uint32",
        "numberOfBytes": "4"
      }
    }
  }
}