{
  "address": "0xC6e388817958c6cB947FC771835d9E7a14CEae9E",
  "abi": [
    {
      "anonymous": false,
      "inputs": [
        {
          "indexed": false,
          "internalType": "uint256",
          "name": "cashPrior",
          "type": "uint256"
        },
        {
          "indexed": false,
          "internalType": "uint256",
          "name": "interestAccumulated",
          "type": "uint256"
        },
        {
          "indexed": false,
          "internalType": "uint256",
          "name": "borrowIndex",
          "type": "uint256"
        },
        {
          "indexed": false,
          "internalType": "uint256",
          "name": "totalBorrows",
          "type": "uint256"
        }
      ],
      "name": "AccrueInterest",
      "type": "event"
    },
    {
      "anonymous": false,
      "inputs": [
        {
          "indexed": true,
          "internalType": "address",
          "name": "owner",
          "type": "address"
        },
        {
          "indexed": true,
          "internalType": "address",
          "name": "spender",
          "type": "address"
        },
        {
          "indexed": false,
          "internalType": "uint256",
          "name": "amount",
          "type": "uint256"
        }
      ],
      "name": "Approval",
      "type": "event"
    },
    {
      "anonymous": false,
      "inputs": [
        {
          "indexed": false,
          "internalType": "address",
          "name": "borrower",
          "type": "address"
        },
        {
          "indexed": false,
          "internalType": "uint256",
          "name": "borrowAmount",
          "type": "uint256"
        },
        {
          "indexed": false,
          "internalType": "uint256",
          "name": "accountBorrows",
          "type": "uint256"
        },
        {
          "indexed": false,
          "internalType": "uint256",
          "name": "totalBorrows",
          "type": "uint256"
        }
      ],
      "name": "Borrow",
      "type": "event"
    },
    {
      "anonymous": false,
      "inputs": [
        {
          "indexed": false,
          "internalType": "uint256",
          "name": "error",
          "type": "uint256"
        },
        {
          "indexed": false,
          "internalType": "uint256",
          "name": "info",
          "type": "uint256"
        },
        {
          "indexed": false,
          "internalType": "uint256",
          "name": "detail",
          "type": "uint256"
        }
      ],
      "name": "Failure",
      "type": "event"
    },
    {
      "anonymous": false,
      "inputs": [
        {
          "indexed": false,
          "internalType": "address",
          "name": "liquidator",
          "type": "address"
        },
        {
          "indexed": false,
          "internalType": "address",
          "name": "borrower",
          "type": "address"
        },
        {
          "indexed": false,
          "internalType": "uint256",
          "name": "repayAmount",
          "type": "uint256"
        },
        {
          "indexed": false,
          "internalType": "address",
          "name": "cTokenCollateral",
          "type": "address"
        },
        {
          "indexed": false,
          "internalType": "uint256",
          "name": "seizeTokens",
          "type": "uint256"
        }
      ],
      "name": "LiquidateBorrow",
      "type": "event"
    },
    {
      "anonymous": false,
      "inputs": [
        {
          "indexed": false,
          "internalType": "address",
          "name": "minter",
          "type": "address"
        },
        {
          "indexed": false,
          "internalType": "uint256",
          "name": "mintAmount",
          "type": "uint256"
        },
        {
          "indexed": false,
          "internalType": "uint256",
          "name": "mintTokens",
          "type": "uint256"
        }
      ],
      "name": "Mint",
      "type": "event"
    },
    {
      "anonymous": false,
      "inputs": [
        {
          "indexed": false,
          "internalType": "uint256",
          "name": "oldAdminFeeMantissa",
          "type": "uint256"
        },
        {
          "indexed": false,
          "internalType": "uint256",
          "name": "newAdminFeeMantissa",
          "type": "uint256"
        }
      ],
      "name": "NewAdminFee",
      "type": "event"
    },
    {
      "anonymous": false,
      "inputs": [
        {
          "indexed": false,
          "internalType": "contract ComptrollerInterface",
          "name": "oldComptroller",
          "type": "address"
        },
        {
          "indexed": false,
          "internalType": "contract ComptrollerInterface",
          "name": "newComptroller",
          "type": "address"
        }
      ],
      "name": "NewComptroller",
      "type": "event"
    },
    {
      "anonymous": false,
      "inputs": [
        {
          "indexed": false,
          "internalType": "uint256",
          "name": "oldFuseFeeMantissa",
          "type": "uint256"
        },
        {
          "indexed": false,
          "internalType": "uint256",
          "name": "newFuseFeeMantissa",
          "type": "uint256"
        }
      ],
      "name": "NewFuseFee",
      "type": "event"
    },
    {
      "anonymous": false,
      "inputs": [
        {
          "indexed": false,
          "internalType": "address",
          "name": "oldImplementation",
          "type": "address"
        },
        {
          "indexed": false,
          "internalType": "address",
          "name": "newImplementation",
          "type": "address"
        }
      ],
      "name": "NewImplementation",
      "type": "event"
    },
    {
      "anonymous": false,
      "inputs": [
        {
          "indexed": false,
          "internalType": "contract InterestRateModel",
          "name": "oldInterestRateModel",
          "type": "address"
        },
        {
          "indexed": false,
          "internalType": "contract InterestRateModel",
          "name": "newInterestRateModel",
          "type": "address"
        }
      ],
      "name": "NewMarketInterestRateModel",
      "type": "event"
    },
    {
      "anonymous": false,
      "inputs": [
        {
          "indexed": false,
          "internalType": "uint256",
          "name": "oldReserveFactorMantissa",
          "type": "uint256"
        },
        {
          "indexed": false,
          "internalType": "uint256",
          "name": "newReserveFactorMantissa",
          "type": "uint256"
        }
      ],
      "name": "NewReserveFactor",
      "type": "event"
    },
    {
      "anonymous": false,
      "inputs": [
        {
          "indexed": false,
          "internalType": "address",
          "name": "redeemer",
          "type": "address"
        },
        {
          "indexed": false,
          "internalType": "uint256",
          "name": "redeemAmount",
          "type": "uint256"
        },
        {
          "indexed": false,
          "internalType": "uint256",
          "name": "redeemTokens",
          "type": "uint256"
        }
      ],
      "name": "Redeem",
      "type": "event"
    },
    {
      "anonymous": false,
      "inputs": [
        {
          "indexed": false,
          "internalType": "address",
          "name": "payer",
          "type": "address"
        },
        {
          "indexed": false,
          "internalType": "address",
          "name": "borrower",
          "type": "address"
        },
        {
          "indexed": false,
          "internalType": "uint256",
          "name": "repayAmount",
          "type": "uint256"
        },
        {
          "indexed": false,
          "internalType": "uint256",
          "name": "accountBorrows",
          "type": "uint256"
        },
        {
          "indexed": false,
          "internalType": "uint256",
          "name": "totalBorrows",
          "type": "uint256"
        }
      ],
      "name": "RepayBorrow",
      "type": "event"
    },
    {
      "anonymous": false,
      "inputs": [
        {
          "indexed": false,
          "internalType": "address",
          "name": "benefactor",
          "type": "address"
        },
        {
          "indexed": false,
          "internalType": "uint256",
          "name": "addAmount",
          "type": "uint256"
        },
        {
          "indexed": false,
          "internalType": "uint256",
          "name": "newTotalReserves",
          "type": "uint256"
        }
      ],
      "name": "ReservesAdded",
      "type": "event"
    },
    {
      "anonymous": false,
      "inputs": [
        {
          "indexed": false,
          "internalType": "address",
          "name": "admin",
          "type": "address"
        },
        {
          "indexed": false,
          "internalType": "uint256",
          "name": "reduceAmount",
          "type": "uint256"
        },
        {
          "indexed": false,
          "internalType": "uint256",
          "name": "newTotalReserves",
          "type": "uint256"
        }
      ],
      "name": "ReservesReduced",
      "type": "event"
    },
    {
      "anonymous": false,
      "inputs": [
        {
          "indexed": true,
          "internalType": "address",
          "name": "from",
          "type": "address"
        },
        {
          "indexed": true,
          "internalType": "address",
          "name": "to",
          "type": "address"
        },
        {
          "indexed": false,
          "internalType": "uint256",
          "name": "amount",
          "type": "uint256"
        }
      ],
      "name": "Transfer",
      "type": "event"
    },
    {
      "inputs": [],
      "name": "PRECISION",
      "outputs": [
        {
          "internalType": "uint256",
          "name": "",
          "type": "uint256"
        }
      ],
      "stateMutability": "view",
      "type": "function"
    },
    {
      "inputs": [
        {
          "internalType": "bytes",
          "name": "data",
          "type": "bytes"
        }
      ],
      "name": "_becomeImplementation",
      "outputs": [],
      "stateMutability": "nonpayable",
      "type": "function"
    },
    {
      "inputs": [
        {
          "internalType": "address",
          "name": "compLikeDelegatee",
          "type": "address"
        }
      ],
      "name": "_delegateCompLikeTo",
      "outputs": [],
      "stateMutability": "nonpayable",
      "type": "function"
    },
    {
      "inputs": [],
      "name": "_prepare",
      "outputs": [],
      "stateMutability": "payable",
      "type": "function"
    },
    {
      "inputs": [
        {
          "internalType": "uint256",
          "name": "reduceAmount",
          "type": "uint256"
        }
      ],
      "name": "_reduceReserves",
      "outputs": [
        {
          "internalType": "uint256",
          "name": "",
          "type": "uint256"
        }
      ],
      "stateMutability": "nonpayable",
      "type": "function"
    },
    {
      "inputs": [
        {
          "internalType": "uint256",
          "name": "newAdminFeeMantissa",
          "type": "uint256"
        }
      ],
      "name": "_setAdminFee",
      "outputs": [
        {
          "internalType": "uint256",
          "name": "",
          "type": "uint256"
        }
      ],
      "stateMutability": "nonpayable",
      "type": "function"
    },
    {
      "inputs": [
        {
          "internalType": "address",
          "name": "implementation_",
          "type": "address"
        },
        {
          "internalType": "bool",
          "name": "allowResign",
          "type": "bool"
        },
        {
          "internalType": "bytes",
          "name": "becomeImplementationData",
          "type": "bytes"
        }
      ],
      "name": "_setImplementationSafe",
      "outputs": [],
      "stateMutability": "nonpayable",
      "type": "function"
    },
    {
      "inputs": [
        {
          "internalType": "contract InterestRateModel",
          "name": "newInterestRateModel",
          "type": "address"
        }
      ],
      "name": "_setInterestRateModel",
      "outputs": [
        {
          "internalType": "uint256",
          "name": "",
          "type": "uint256"
        }
      ],
      "stateMutability": "nonpayable",
      "type": "function"
    },
    {
      "inputs": [
        {
          "internalType": "string",
          "name": "_name",
          "type": "string"
        },
        {
          "internalType": "string",
          "name": "_symbol",
          "type": "string"
        }
      ],
      "name": "_setNameAndSymbol",
      "outputs": [],
      "stateMutability": "nonpayable",
      "type": "function"
    },
    {
      "inputs": [
        {
          "internalType": "uint256",
          "name": "newReserveFactorMantissa",
          "type": "uint256"
        }
      ],
      "name": "_setReserveFactor",
      "outputs": [
        {
          "internalType": "uint256",
          "name": "",
          "type": "uint256"
        }
      ],
      "stateMutability": "nonpayable",
      "type": "function"
    },
    {
      "inputs": [
        {
          "internalType": "uint256",
          "name": "withdrawAmount",
          "type": "uint256"
        }
      ],
      "name": "_withdrawAdminFees",
      "outputs": [
        {
          "internalType": "uint256",
          "name": "",
          "type": "uint256"
        }
      ],
      "stateMutability": "nonpayable",
      "type": "function"
    },
    {
      "inputs": [
        {
          "internalType": "uint256",
          "name": "withdrawAmount",
          "type": "uint256"
        }
      ],
      "name": "_withdrawFuseFees",
      "outputs": [
        {
          "internalType": "uint256",
          "name": "",
          "type": "uint256"
        }
      ],
      "stateMutability": "nonpayable",
      "type": "function"
    },
    {
      "inputs": [],
      "name": "accrualBlockNumber",
      "outputs": [
        {
          "internalType": "uint256",
          "name": "",
          "type": "uint256"
        }
      ],
      "stateMutability": "view",
      "type": "function"
    },
    {
      "inputs": [],
      "name": "accrueInterest",
      "outputs": [
        {
          "internalType": "uint256",
          "name": "",
          "type": "uint256"
        }
      ],
      "stateMutability": "nonpayable",
      "type": "function"
    },
    {
      "inputs": [],
      "name": "adminFeeMantissa",
      "outputs": [
        {
          "internalType": "uint256",
          "name": "",
          "type": "uint256"
        }
      ],
      "stateMutability": "view",
      "type": "function"
    },
    {
      "inputs": [
        {
          "internalType": "address",
          "name": "owner",
          "type": "address"
        },
        {
          "internalType": "address",
          "name": "spender",
          "type": "address"
        }
      ],
      "name": "allowance",
      "outputs": [
        {
          "internalType": "uint256",
          "name": "",
          "type": "uint256"
        }
      ],
      "stateMutability": "view",
      "type": "function"
    },
    {
      "inputs": [
        {
          "internalType": "address",
          "name": "spender",
          "type": "address"
        },
        {
          "internalType": "uint256",
          "name": "amount",
          "type": "uint256"
        }
      ],
      "name": "approve",
      "outputs": [
        {
          "internalType": "bool",
          "name": "",
          "type": "bool"
        }
      ],
      "stateMutability": "nonpayable",
      "type": "function"
    },
    {
      "inputs": [
        {
          "internalType": "address",
          "name": "owner",
          "type": "address"
        }
      ],
      "name": "balanceOf",
      "outputs": [
        {
          "internalType": "uint256",
          "name": "",
          "type": "uint256"
        }
      ],
      "stateMutability": "view",
      "type": "function"
    },
    {
      "inputs": [
        {
          "internalType": "address",
          "name": "owner",
          "type": "address"
        }
      ],
      "name": "balanceOfUnderlying",
      "outputs": [
        {
          "internalType": "uint256",
          "name": "",
          "type": "uint256"
        }
      ],
      "stateMutability": "nonpayable",
      "type": "function"
    },
    {
      "inputs": [
        {
          "internalType": "uint256",
          "name": "borrowAmount",
          "type": "uint256"
        }
      ],
      "name": "borrow",
      "outputs": [
        {
          "internalType": "uint256",
          "name": "",
          "type": "uint256"
        }
      ],
      "stateMutability": "nonpayable",
      "type": "function"
    },
    {
      "inputs": [
        {
          "internalType": "address",
          "name": "account",
          "type": "address"
        }
      ],
      "name": "borrowBalanceCurrent",
      "outputs": [
        {
          "internalType": "uint256",
          "name": "",
          "type": "uint256"
        }
      ],
      "stateMutability": "nonpayable",
      "type": "function"
    },
    {
      "inputs": [
        {
          "internalType": "address",
          "name": "account",
          "type": "address"
        }
      ],
      "name": "borrowBalanceStored",
      "outputs": [
        {
          "internalType": "uint256",
          "name": "",
          "type": "uint256"
        }
      ],
      "stateMutability": "view",
      "type": "function"
    },
    {
      "inputs": [],
      "name": "borrowIndex",
      "outputs": [
        {
          "internalType": "uint256",
          "name": "",
          "type": "uint256"
        }
      ],
      "stateMutability": "view",
      "type": "function"
    },
    {
      "inputs": [],
      "name": "borrowRatePerBlock",
      "outputs": [
        {
          "internalType": "uint256",
          "name": "",
          "type": "uint256"
        }
      ],
      "stateMutability": "view",
      "type": "function"
    },
    {
      "inputs": [],
      "name": "comptroller",
      "outputs": [
        {
          "internalType": "contract ComptrollerInterface",
          "name": "",
          "type": "address"
        }
      ],
      "stateMutability": "view",
      "type": "function"
    },
    {
      "inputs": [],
      "name": "decimals",
      "outputs": [
        {
          "internalType": "uint8",
          "name": "",
          "type": "uint8"
        }
      ],
      "stateMutability": "view",
      "type": "function"
    },
    {
      "inputs": [],
      "name": "exchangeRateCurrent",
      "outputs": [
        {
          "internalType": "uint256",
          "name": "",
          "type": "uint256"
        }
      ],
      "stateMutability": "nonpayable",
      "type": "function"
    },
    {
      "inputs": [],
      "name": "exchangeRateStored",
      "outputs": [
        {
          "internalType": "uint256",
          "name": "",
          "type": "uint256"
        }
      ],
      "stateMutability": "view",
      "type": "function"
    },
    {
      "inputs": [],
      "name": "feeSeizeShareMantissa",
      "outputs": [
        {
          "internalType": "uint256",
          "name": "",
          "type": "uint256"
        }
      ],
      "stateMutability": "view",
      "type": "function"
    },
    {
      "inputs": [],
      "name": "fuseAdmin",
      "outputs": [
        {
          "internalType": "address payable",
          "name": "",
          "type": "address"
        }
      ],
      "stateMutability": "view",
      "type": "function"
    },
    {
      "inputs": [],
      "name": "fuseFeeMantissa",
      "outputs": [
        {
          "internalType": "uint256",
          "name": "",
          "type": "uint256"
        }
      ],
      "stateMutability": "view",
      "type": "function"
    },
    {
      "inputs": [
        {
          "internalType": "address",
          "name": "account",
          "type": "address"
        }
      ],
      "name": "getAccountSnapshot",
      "outputs": [
        {
          "internalType": "uint256",
          "name": "",
          "type": "uint256"
        },
        {
          "internalType": "uint256",
          "name": "",
          "type": "uint256"
        },
        {
          "internalType": "uint256",
          "name": "",
          "type": "uint256"
        },
        {
          "internalType": "uint256",
          "name": "",
          "type": "uint256"
        }
      ],
      "stateMutability": "view",
      "type": "function"
    },
    {
      "inputs": [],
      "name": "getCash",
      "outputs": [
        {
          "internalType": "uint256",
          "name": "",
          "type": "uint256"
        }
      ],
      "stateMutability": "view",
      "type": "function"
    },
    {
      "inputs": [],
      "name": "implementation",
      "outputs": [
        {
          "internalType": "address",
          "name": "",
          "type": "address"
        }
      ],
      "stateMutability": "view",
      "type": "function"
    },
    {
      "inputs": [
        {
          "internalType": "address",
          "name": "underlying_",
          "type": "address"
        },
        {
          "internalType": "contract ComptrollerInterface",
          "name": "comptroller_",
          "type": "address"
        },
        {
          "internalType": "address payable",
          "name": "fuseAdmin_",
          "type": "address"
        },
        {
          "internalType": "contract InterestRateModel",
          "name": "interestRateModel_",
          "type": "address"
        },
        {
          "internalType": "string",
          "name": "name_",
          "type": "string"
        },
        {
          "internalType": "string",
          "name": "symbol_",
          "type": "string"
        },
        {
          "internalType": "uint256",
          "name": "reserveFactorMantissa_",
          "type": "uint256"
        },
        {
          "internalType": "uint256",
          "name": "adminFeeMantissa_",
          "type": "uint256"
        }
      ],
      "name": "initialize",
      "outputs": [],
      "stateMutability": "nonpayable",
      "type": "function"
    },
    {
      "inputs": [
        {
          "internalType": "contract ComptrollerInterface",
          "name": "comptroller_",
          "type": "address"
        },
        {
          "internalType": "address payable",
          "name": "fuseAdmin_",
          "type": "address"
        },
        {
          "internalType": "contract InterestRateModel",
          "name": "interestRateModel_",
          "type": "address"
        },
        {
          "internalType": "uint256",
          "name": "initialExchangeRateMantissa_",
          "type": "uint256"
        },
        {
          "internalType": "string",
          "name": "name_",
          "type": "string"
        },
        {
          "internalType": "string",
          "name": "symbol_",
          "type": "string"
        },
        {
          "internalType": "uint8",
          "name": "decimals_",
          "type": "uint8"
        },
        {
          "internalType": "uint256",
          "name": "reserveFactorMantissa_",
          "type": "uint256"
        },
        {
          "internalType": "uint256",
          "name": "adminFeeMantissa_",
          "type": "uint256"
        }
      ],
      "name": "initialize",
      "outputs": [],
      "stateMutability": "nonpayable",
      "type": "function"
    },
    {
      "inputs": [],
      "name": "interestRateModel",
      "outputs": [
        {
          "internalType": "contract InterestRateModel",
          "name": "",
          "type": "address"
        }
      ],
      "stateMutability": "view",
      "type": "function"
    },
    {
      "inputs": [],
      "name": "isCEther",
      "outputs": [
        {
          "internalType": "bool",
          "name": "",
          "type": "bool"
        }
      ],
      "stateMutability": "nonpayable",
      "type": "function"
    },
    {
      "inputs": [],
      "name": "isCToken",
      "outputs": [
        {
          "internalType": "bool",
          "name": "",
          "type": "bool"
        }
      ],
      "stateMutability": "nonpayable",
      "type": "function"
    },
    {
      "inputs": [
        {
          "internalType": "address",
          "name": "borrower",
          "type": "address"
        },
        {
          "internalType": "uint256",
          "name": "repayAmount",
          "type": "uint256"
        },
        {
          "internalType": "contract CTokenInterface",
          "name": "cTokenCollateral",
          "type": "address"
        }
      ],
      "name": "liquidateBorrow",
      "outputs": [
        {
          "internalType": "uint256",
          "name": "",
          "type": "uint256"
        }
      ],
      "stateMutability": "nonpayable",
      "type": "function"
    },
    {
      "inputs": [
        {
          "internalType": "uint256",
          "name": "mintAmount",
          "type": "uint256"
        }
      ],
      "name": "mint",
      "outputs": [
        {
          "internalType": "uint256",
          "name": "",
          "type": "uint256"
        }
      ],
      "stateMutability": "nonpayable",
      "type": "function"
    },
    {
      "inputs": [],
      "name": "name",
      "outputs": [
        {
          "internalType": "string",
          "name": "",
          "type": "string"
        }
      ],
      "stateMutability": "view",
      "type": "function"
    },
    {
      "inputs": [],
      "name": "plugin",
      "outputs": [
        {
          "internalType": "contract IERC4626",
          "name": "",
          "type": "address"
        }
      ],
      "stateMutability": "view",
      "type": "function"
    },
    {
      "inputs": [],
      "name": "protocolSeizeShareMantissa",
      "outputs": [
        {
          "internalType": "uint256",
          "name": "",
          "type": "uint256"
        }
      ],
      "stateMutability": "view",
      "type": "function"
    },
    {
      "inputs": [
        {
          "internalType": "uint256",
          "name": "redeemTokens",
          "type": "uint256"
        }
      ],
      "name": "redeem",
      "outputs": [
        {
          "internalType": "uint256",
          "name": "",
          "type": "uint256"
        }
      ],
      "stateMutability": "nonpayable",
      "type": "function"
    },
    {
      "inputs": [
        {
          "internalType": "uint256",
          "name": "redeemAmount",
          "type": "uint256"
        }
      ],
      "name": "redeemUnderlying",
      "outputs": [
        {
          "internalType": "uint256",
          "name": "",
          "type": "uint256"
        }
      ],
      "stateMutability": "nonpayable",
      "type": "function"
    },
    {
      "inputs": [
        {
          "internalType": "uint256",
          "name": "repayAmount",
          "type": "uint256"
        }
      ],
      "name": "repayBorrow",
      "outputs": [
        {
          "internalType": "uint256",
          "name": "",
          "type": "uint256"
        }
      ],
      "stateMutability": "nonpayable",
      "type": "function"
    },
    {
      "inputs": [
        {
          "internalType": "address",
          "name": "borrower",
          "type": "address"
        },
        {
          "internalType": "uint256",
          "name": "repayAmount",
          "type": "uint256"
        }
      ],
      "name": "repayBorrowBehalf",
      "outputs": [
        {
          "internalType": "uint256",
          "name": "",
          "type": "uint256"
        }
      ],
      "stateMutability": "nonpayable",
      "type": "function"
    },
    {
      "inputs": [],
      "name": "reserveFactorMantissa",
      "outputs": [
        {
          "internalType": "uint256",
          "name": "",
          "type": "uint256"
        }
      ],
      "stateMutability": "view",
      "type": "function"
    },
    {
      "inputs": [
        {
          "internalType": "address",
          "name": "liquidator",
          "type": "address"
        },
        {
          "internalType": "address",
          "name": "borrower",
          "type": "address"
        },
        {
          "internalType": "uint256",
          "name": "seizeTokens",
          "type": "uint256"
        }
      ],
      "name": "seize",
      "outputs": [
        {
          "internalType": "uint256",
          "name": "",
          "type": "uint256"
        }
      ],
      "stateMutability": "nonpayable",
      "type": "function"
    },
    {
      "inputs": [],
      "name": "supplyRatePerBlock",
      "outputs": [
        {
          "internalType": "uint256",
          "name": "",
          "type": "uint256"
        }
      ],
      "stateMutability": "view",
      "type": "function"
    },
    {
      "inputs": [],
      "name": "symbol",
      "outputs": [
        {
          "internalType": "string",
          "name": "",
          "type": "string"
        }
      ],
      "stateMutability": "view",
      "type": "function"
    },
    {
      "inputs": [],
      "name": "totalAdminFees",
      "outputs": [
        {
          "internalType": "uint256",
          "name": "",
          "type": "uint256"
        }
      ],
      "stateMutability": "view",
      "type": "function"
    },
    {
      "inputs": [],
      "name": "totalBorrows",
      "outputs": [
        {
          "internalType": "uint256",
          "name": "",
          "type": "uint256"
        }
      ],
      "stateMutability": "view",
      "type": "function"
    },
    {
      "inputs": [],
      "name": "totalBorrowsCurrent",
      "outputs": [
        {
          "internalType": "uint256",
          "name": "",
          "type": "uint256"
        }
      ],
      "stateMutability": "nonpayable",
      "type": "function"
    },
    {
      "inputs": [],
      "name": "totalFuseFees",
      "outputs": [
        {
          "internalType": "uint256",
          "name": "",
          "type": "uint256"
        }
      ],
      "stateMutability": "view",
      "type": "function"
    },
    {
      "inputs": [],
      "name": "totalReserves",
      "outputs": [
        {
          "internalType": "uint256",
          "name": "",
          "type": "uint256"
        }
      ],
      "stateMutability": "view",
      "type": "function"
    },
    {
      "inputs": [],
      "name": "totalSupply",
      "outputs": [
        {
          "internalType": "uint256",
          "name": "",
          "type": "uint256"
        }
      ],
      "stateMutability": "view",
      "type": "function"
    },
    {
      "inputs": [
        {
          "internalType": "address",
          "name": "dst",
          "type": "address"
        },
        {
          "internalType": "uint256",
          "name": "amount",
          "type": "uint256"
        }
      ],
      "name": "transfer",
      "outputs": [
        {
          "internalType": "bool",
          "name": "",
          "type": "bool"
        }
      ],
      "stateMutability": "nonpayable",
      "type": "function"
    },
    {
      "inputs": [
        {
          "internalType": "address",
          "name": "src",
          "type": "address"
        },
        {
          "internalType": "address",
          "name": "dst",
          "type": "address"
        },
        {
          "internalType": "uint256",
          "name": "amount",
          "type": "uint256"
        }
      ],
      "name": "transferFrom",
      "outputs": [
        {
          "internalType": "bool",
          "name": "",
          "type": "bool"
        }
      ],
      "stateMutability": "nonpayable",
      "type": "function"
    },
    {
      "inputs": [],
      "name": "underlying",
      "outputs": [
        {
          "internalType": "address",
          "name": "",
          "type": "address"
        }
      ],
      "stateMutability": "view",
      "type": "function"
    }
  ],
  "transactionHash": "0x51e9e5726e1c6bda68a9f9c4b80ead8c93cc72e9a5427c3cd3242e6f28980a70",
  "args": [],
  "numDeployments": 1,
  "bytecode": {
    "object": "0x608060405234801561001057600080fd5b50615f3e80620000216000396000f3fe6080604052600436106103a25760003560e01c8063852a12e3116101e7578063b2a02ff11161010d578063dd62ed3e116100a0578063f5e3c4621161006f578063f5e3c46214610a90578063f8f9da2814610ab0578063fca7820b14610ac5578063fe9c44ae14610ae557600080fd5b8063dd62ed3e146109ea578063ef01df4f14610a30578063f2b3abbd14610a50578063f3fdb15a14610a7057600080fd5b8063c5ebeaec116100dc578063c5ebeaec1461097e578063db006a751461099e578063dbfe7c19146109be578063dc028ab1146109d457600080fd5b8063b2a02ff1146108ed578063bd6d894d1461090d578063be99f11914610922578063c37f68e21461093e57600080fd5b8063a0712d6811610185578063aa5af0fd11610154578063aa5af0fd14610892578063aaf5eb68146108a8578063ac784ddc146108c4578063ae9d70b0146108d857600080fd5b8063a0712d681461081d578063a6afed951461083d578063a7b820df14610852578063a9059cbb1461087257600080fd5b806391dd36c6116101c157806391dd36c6146107a857806395d89b41146107c857806395dd9193146107dd578063a03dce8d146107fd57600080fd5b8063852a12e31461075c5780638d02d9a11461077c5780638f840ddd1461079257600080fd5b80633af9e669116102cc578063601a0bf11161026a5780636f307dc3116102395780636f307dc3146106d157806370a08231146106f157806373acee98146107275780637f1e06be1461073c57600080fd5b8063601a0bf11461066a57806361feacff1461068a5780636752e702146106a05780636c540baf146106bb57600080fd5b806350d85b73116102a657806350d85b73146105ea57806356e677281461060a5780635c60da1b1461062a5780635fe3b5671461064a57600080fd5b80633af9e6691461059f5780633b1d21a2146105bf57806347bd3718146105d457600080fd5b806318160ddd1161034457806323b872dd1161031357806323b872dd146105135780632608f81814610533578063313ce5671461055357806334154d4c1461057f57600080fd5b806318160ddd146104c0578063182df0f5146104d65780631db78944146104eb578063219ef65c146104f357600080fd5b80630e752702116103805780630e7527021461042457806315761d5114610452578063173b99041461048a57806317bfdfbc146104a057600080fd5b806306db3ecd146103a757806306fdde03146103c9578063095ea7b3146103f4575b600080fd5b3480156103b357600080fd5b506103c76103c23660046157ce565b610af9565b005b3480156103d557600080fd5b506103de610c07565b6040516103eb91906158e8565b60405180910390f35b34801561040057600080fd5b5061041461040f3660046158fb565b610c95565b60405190151581526020016103eb565b34801561043057600080fd5b5061044461043f366004615927565b610d05565b6040519081526020016103eb565b34801561045e57600080fd5b50600154610472906001600160a01b031681565b6040516001600160a01b0390911681526020016103eb565b34801561049657600080fd5b50610444600b5481565b3480156104ac57600080fd5b506104446104bb366004615940565b610d19565b3480156104cc57600080fd5b5061044460125481565b3480156104e257600080fd5b50610444610d70565b6103c7610e01565b3480156104ff57600080fd5b506103c761050e366004615977565b610f32565b34801561051f57600080fd5b5061041461052e366004615a3f565b611261565b34801561053f57600080fd5b5061044461054e3660046158fb565b611287565b34801561055f57600080fd5b5060055461056d9060ff1681565b60405160ff90911681526020016103eb565b34801561058b57600080fd5b506103c761059a366004615ac2565b61129d565b3480156105ab57600080fd5b506104446105ba366004615940565b611304565b3480156105cb57600080fd5b506104446113b4565b3480156105e057600080fd5b50610444600e5481565b3480156105f657600080fd5b506103c7610605366004615b3c565b6113c3565b34801561061657600080fd5b506103c7610625366004615b95565b611447565b34801561063657600080fd5b50600054610472906001600160a01b031681565b34801561065657600080fd5b50600654610472906001600160a01b031681565b34801561067657600080fd5b50610444610685366004615927565b61163f565b34801561069657600080fd5b5061044460105481565b3480156106ac57600080fd5b50610444666379da05b6000081565b3480156106c757600080fd5b50610444600c5481565b3480156106dd57600080fd5b50601654610472906001600160a01b031681565b3480156106fd57600080fd5b5061044461070c366004615940565b6001600160a01b031660009081526013602052604090205490565b34801561073357600080fd5b50610444611696565b34801561074857600080fd5b506103c7610757366004615940565b6116db565b34801561076857600080fd5b50610444610777366004615927565b6117a0565b34801561078857600080fd5b5061044460095481565b34801561079e57600080fd5b50610444600f5481565b3480156107b457600080fd5b506104446107c3366004615927565b6117ab565b3480156107d457600080fd5b506103de6117ee565b3480156107e957600080fd5b506104446107f8366004615940565b6117fb565b34801561080957600080fd5b50610444610818366004615927565b61189c565b34801561082957600080fd5b50610444610838366004615927565b6118df565b34801561084957600080fd5b506104446118eb565b34801561085e57600080fd5b5061044461086d366004615927565b611aa2565b34801561087e57600080fd5b5061041461088d3660046158fb565b611ae5565b34801561089e57600080fd5b50610444600d5481565b3480156108b457600080fd5b50610444670de0b6b3a764000081565b3480156108d057600080fd5b506000610414565b3480156108e457600080fd5b50610444611b12565b3480156108f957600080fd5b50610444610908366004615a3f565b611bd5565b34801561091957600080fd5b50610444611bf9565b34801561092e57600080fd5b5061044467016345785d8a000081565b34801561094a57600080fd5b5061095e610959366004615940565b611c3f565b6040805194855260208501939093529183015260608201526080016103eb565b34801561098a57600080fd5b50610444610999366004615927565b611ce0565b3480156109aa57600080fd5b506104446109b9366004615927565b611ceb565b3480156109ca57600080fd5b50610444600a5481565b3480156109e057600080fd5b5061044460115481565b3480156109f657600080fd5b50610444610a05366004615bd7565b6001600160a01b03918216600090815260146020908152604080832093909416825291909152205490565b348015610a3c57600080fd5b50601754610472906001600160a01b031681565b348015610a5c57600080fd5b50610444610a6b366004615940565b611cf6565b348015610a7c57600080fd5b50600754610472906001600160a01b031681565b348015610a9c57600080fd5b50610444610aab366004615c10565b611d2e565b348015610abc57600080fd5b50610444611d46565b348015610ad157600080fd5b50610444610ae0366004615927565b611daa565b348015610af157600080fd5b506001610414565b60006702c68af0bb14000090506000896001600160a01b031663313ce5676040518163ffffffff1660e01b8152600401602060405180830381865afa158015610b46573d6000803e3d6000fd5b505050506040513d601f19601f82011682018060405250810190610b6a9190615c52565b9050610b7d898989858a8a878b8b610f32565b601680546001600160a01b0319166001600160a01b038c16908117909155604080516318160ddd60e01b815290516318160ddd916004808201926020929091908290030181865afa158015610bd6573d6000803e3d6000fd5b505050506040513d601f19601f82011682018060405250810190610bfa9190615c6f565b5050505050505050505050565b60038054610c1490615c88565b80601f0160208091040260200160405190810160405280929190818152602001828054610c4090615c88565b8015610c8d5780601f10610c6257610100808354040283529160200191610c8d565b820191906000526020600020905b815481529060010190602001808311610c7057829003601f168201915b505050505081565b3360008181526014602090815260408083206001600160a01b03871680855292528083208590555191929182907f8c5be1e5ebec7d5bd14f71427d1e84f3dd0314c0f7b2291e5b200ac8c7c3b92590610cf19087815260200190565b60405180910390a360019150505b92915050565b600080610d1183611ded565b509392505050565b600080610d2581611e55565b6000610d2f6118eb565b14610d555760405162461bcd60e51b8152600401610d4c90615cd3565b60405180910390fd5b610d5e836117fb565b91505b610d6a81611f19565b50919050565b6000806000610d7d611f84565b90925090506000826003811115610d9657610d96615cbd565b14610cff5760405162461bcd60e51b815260206004820152603560248201527f65786368616e67655261746553746f7265643a2065786368616e67655261746560448201527414dd1bdc9959125b9d195c9b985b0819985a5b1959605a1b6064820152608401610d4c565b333014801590610e835750600660009054906101000a90046001600160a01b03166001600160a01b031663dd5cd22c6040518163ffffffff1660e01b8152600401602060405180830381865afa158015610e5f573d6000803e3d6000fd5b505050506040513d601f19601f82011682018060405250810190610e839190615d03565b15610f3057600154600080546040516345cc970560e01b81526001600160a01b039182166004820152919283928392909116906345cc970590602401600060405180830381865afa158015610edc573d6000803e3d6000fd5b505050506040513d6000823e601f3d908101601f19168201604052610f049190810190615d20565b60005492955090935091506001600160a01b03808516911614610f2c57610f2c838383612051565b5050505b565b336001600160a01b03891614610f9c5760405162461bcd60e51b815260206004820152602960248201527f6f6e6c7920467573652061646d696e206d617920696e697469616c697a6520746044820152681a19481b585c9ad95d60ba1b6064820152608401610d4c565b600c54158015610fac5750600d54155b6110045760405162461bcd60e51b815260206004820152602360248201527f6d61726b6574206d6179206f6e6c7920626520696e697469616c697a6564206f6044820152626e636560e81b6064820152608401610d4c565b600180546001600160a01b0319166001600160a01b038a1617905560088690558561108a5760405162461bcd60e51b815260206004820152603060248201527f696e697469616c2065786368616e67652072617465206d75737420626520677260448201526f32b0ba32b9103a3430b7103d32b9379760811b6064820152608401610d4c565b60006110958a6121d6565b905080156110e55760405162461bcd60e51b815260206004820152601a60248201527f73657474696e6720636f6d7074726f6c6c6572206661696c65640000000000006044820152606401610d4c565b43600c55670de0b6b3a7640000600d556110fe88612301565b905080156111595760405162461bcd60e51b815260206004820152602260248201527f73657474696e6720696e7465726573742072617465206d6f64656c206661696c604482015261195960f21b6064820152608401610d4c565b855161116c9060039060208901906155db565b5084516111809060049060208801906155db565b506005805460ff191660ff861617905561119983612571565b905080156111e95760405162461bcd60e51b815260206004820152601d60248201527f73657474696e67207265736572766520666163746f72206661696c65640000006044820152606401610d4c565b6111f282612610565b905080156112425760405162461bcd60e51b815260206004820152601860248201527f73657474696e672061646d696e20666565206661696c656400000000000000006044820152606401610d4c565b50506002805460ff60b01b1916600160b01b1790555050505050505050565b60008061126d81611e55565b600061127b3387878761272a565b149150610d1181611f19565b60008061129484846129c8565b50949350505050565b6112a5612a32565b6112e45760405162461bcd60e51b815260206004820152601060248201526f31b0b63632b9103737ba1030b236b4b760811b6044820152606401610d4c565b6112f06003858561565b565b506112fd6004838361565b565b5050505050565b600080604051806020016040528061131a611bf9565b90526001600160a01b038416600090815260136020526040812054919250908190611346908490612b9d565b9092509050600082600381111561135f5761135f615cbd565b146113ac5760405162461bcd60e51b815260206004820152601f60248201527f62616c616e636520636f756c64206e6f742062652063616c63756c61746564006044820152606401610d4c565b949350505050565b60006113be612bf0565b905090565b6113cb612a32565b6114005760405162461bcd60e51b815260206004820152600660248201526510b0b236b4b760d11b6044820152606401610d4c565b611441848484848080601f01602080910402602001604051908101604052809392919081815260200183838082843760009201919091525061205192505050565b50505050565b333014806114585750611458612a32565b61146157600080fd5b600061146f82840184615940565b90506001600160a01b0381166114b05760405162461bcd60e51b8152602060048201526006602482015265181030b2323960d11b6044820152606401610d4c565b6017546001600160a01b0316156115a6576017546040516370a0823160e01b81523060048201526001600160a01b039091169063ba0876529082906370a0823190602401602060405180830381865afa158015611511573d6000803e3d6000fd5b505050506040513d601f19601f820116820180604052508101906115359190615c6f565b6040516001600160e01b031960e084901b1681526004810191909152306024820181905260448201526064016020604051808303816000875af1158015611580573d6000803e3d6000fd5b505050506040513d601f19601f820116820180604052508101906115a49190615c6f565b505b601780546001600160a01b0319166001600160a01b03838116919091179091556016546040516370a0823160e01b815230600482015260009291909116906370a0823190602401602060405180830381865afa15801561160a573d6000803e3d6000fd5b505050506040513d601f19601f8201168201806040525081019061162e9190615c6f565b905080156114415761144181612c21565b60008061164b81611e55565b60006116556118eb565b905080156116815761167981601181111561167257611672615cbd565b603b612d14565b925050610d61565b61168a84612d8d565b925050610d6a81611f19565b6000806116a281611e55565b60006116ac6118eb565b146116c95760405162461bcd60e51b8152600401610d4c90615cd3565b600e5491506116d781611f19565b5090565b6116e3612a32565b6117455760405162461bcd60e51b815260206004820152602d60248201527f6f6e6c79207468652061646d696e206d6179207365742074686520636f6d702d60448201526c6c696b652064656c656761746560981b6064820152608401610d4c565b6016546040516317066a5760e21b81526001600160a01b03838116600483015290911690635c19a95c90602401600060405180830381600087803b15801561178c57600080fd5b505af11580156112fd573d6000803e3d6000fd5b6000610cff82612e3e565b6000806117b781611e55565b60006117c16118eb565b905080156117e5576116798160118111156117de576117de615cbd565b6052612d14565b61168a84612610565b60048054610c1490615c88565b600080600061180984612e84565b9092509050600082600381111561182257611822615cbd565b146118955760405162461bcd60e51b815260206004820152603760248201527f626f72726f7742616c616e636553746f7265643a20626f72726f7742616c616e60448201527f636553746f726564496e7465726e616c206661696c65640000000000000000006064820152608401610d4c565b9392505050565b6000806118a881611e55565b60006118b26118eb565b905080156118d6576116798160118111156118cf576118cf615cbd565b6033612d14565b61168a84612f3d565b600080610d1183612fb0565b600c5460009043908114156119035760005b91505090565b600061190d612bf0565b90506000600760009054906101000a90046001600160a01b03166001600160a01b03166315f2405383600e54611952600f5461194d601054601154612ff6565b612ff6565b6040516001600160e01b031960e086901b168152600481019390935260248301919091526044820152606401602060405180830381865afa15801561199b573d6000803e3d6000fd5b505050506040513d601f19601f820116820180604052508101906119bf9190615c6f565b905065048c27395000811115611a175760405162461bcd60e51b815260206004820152601c60248201527f626f72726f772072617465206973206162737572646c792068696768000000006044820152606401610d4c565b600080611a2685600c5461302c565b90925090506000826003811115611a3f57611a3f615cbd565b14611a8c5760405162461bcd60e51b815260206004820152601f60248201527f636f756c64206e6f742063616c63756c61746520626c6f636b2064656c7461006044820152606401610d4c565b611a9885858584613057565b9550505050505090565b600080611aae81611e55565b6000611ab86118eb565b90508015611adc57611679816011811115611ad557611ad5615cbd565b6037612d14565b61168a84613183565b600080611af181611e55565b6000611aff3333878761272a565b149150611b0b81611f19565b5092915050565b6007546000906001600160a01b031663b8168816611b2e612bf0565b600e54611b45600f5461194d601054601154612ff6565b600954600a54600b54611b589190615dd6565b611b629190615dd6565b6040516001600160e01b031960e087901b16815260048101949094526024840192909252604483015260648201526084015b602060405180830381865afa158015611bb1573d6000803e3d6000fd5b505050506040513d601f19601f820116820180604052508101906113be9190615c6f565b60006001611be281611e55565b611bee33868686613261565b9150610d1181611f19565b600080611c0581611e55565b6000611c0f6118eb565b14611c2c5760405162461bcd60e51b8152600401610d4c90615cd3565b611c34610d70565b91506116d781611f19565b6001600160a01b038116600090815260136020526040812054819081908190818080611c6a89612e84565b935090506000816003811115611c8257611c82615cbd565b14611ca05760095b6000806000975097509750975050505050611cd9565b611ca8611f84565b925090506000816003811115611cc057611cc0615cbd565b14611ccc576009611c8a565b5060009650919450925090505b9193509193565b6000610cff8261375e565b6000610cff826137a2565b600080611d016118eb565b90508015611d2557611895816011811115611d1e57611d1e615cbd565b604b612d14565b61189583612301565b600080611d3c8585856137e1565b5095945050505050565b6007546000906001600160a01b03166315f24053611d62612bf0565b600e54611d79600f5461194d601054601154612ff6565b6040516001600160e01b031960e086901b168152600481019390935260248301919091526044820152606401611b94565b600080611db681611e55565b6000611dc06118eb565b90508015611de457611679816011811115611ddd57611ddd615cbd565b6059612d14565b61168a84612571565b6000806000611dfb81611e55565b6000611e056118eb565b90508015611e3557611e29816011811115611e2257611e22615cbd565b6041612d14565b60009350935050611e46565b611e403333876138d5565b93509350505b611e4f81611f19565b50915091565b600254600160b01b900460ff16611e9b5760405162461bcd60e51b815260206004820152600a6024820152691c994b595b9d195c995960b21b6044820152606401610d4c565b80611f0957600660009054906101000a90046001600160a01b03166001600160a01b031663c90c20b16040518163ffffffff1660e01b8152600401600060405180830381600087803b158015611ef057600080fd5b505af1158015611f04573d6000803e3d6000fd5b505050505b506002805460ff60b01b19169055565b6002805460ff60b01b1916600160b01b17905580611f8157600660009054906101000a90046001600160a01b03166001600160a01b031663632e51426040518163ffffffff1660e01b8152600401600060405180830381600087803b15801561178c57600080fd5b50565b601254600090819080611f9e575050600854600092909150565b6000611fa8612bf0565b90506000611fc26040518060200160405280600081525090565b6000611fe484600e54611fdf600f5461194d601054601154612ff6565b613cef565b935090506000816003811115611ffc57611ffc615cbd565b1461200e579660009650945050505050565b6120188386613d41565b92509050600081600381111561203057612030615cbd565b14612042579660009650945050505050565b50516000969095509350505050565b6001546000546040516338e6a07360e11b81526001600160a01b039182166004820152858216602482015284151560448201529116906371cd40e690606401602060405180830381865afa1580156120ad573d6000803e3d6000fd5b505050506040513d601f19601f820116820180604052508101906120d19190615d03565b6121055760405162461bcd60e51b8152602060048201526005602482015264085a5b5c1b60da1b6044820152606401610d4c565b600080546001600160a01b038581166001600160a01b031983161790925560405191169061218890309061213d9085906024016158e8565b60408051601f19818403018152918152602080830180516001600160e01b0316630adccee560e31b17905281518083019092526007825266216265636f6d6560c81b90820152613e0c565b50600054604080516001600160a01b03808516825290921660208301527fd604de94d45953f9138079ec1b82d533cb2160c906d1076d1f7ed54befbca97a910160405180910390a150505050565b600080600660009054906101000a90046001600160a01b03169050826001600160a01b0316627e3dd26040518163ffffffff1660e01b8152600401602060405180830381865afa15801561222e573d6000803e3d6000fd5b505050506040513d601f19601f820116820180604052508101906122529190615d03565b61229e5760405162461bcd60e51b815260206004820152601c60248201527f6d61726b6572206d6574686f642072657475726e65642066616c7365000000006044820152606401610d4c565b600680546001600160a01b0319166001600160a01b0385811691821790925560408051928416835260208301919091527f7ac369dbd14fa5ea3f473ed67cc9d598964a77501540ba6751eb0b3decf5870d91015b60405180910390a16000611895565b60008061230c612a32565b61231c576118956001604d612d14565b43600c541461233157611895600a604c612d14565b600760009054906101000a90046001600160a01b03169050826001600160a01b0316632191f92a6040518163ffffffff1660e01b8152600401602060405180830381865afa158015612387573d6000803e3d6000fd5b505050506040513d601f19601f820116820180604052508101906123ab9190615d03565b6123f75760405162461bcd60e51b815260206004820152601c60248201527f6d61726b6572206d6574686f642072657475726e65642066616c7365000000006044820152606401610d4c565b600780546001600160a01b0319166001600160a01b0385811691821790925560408051928416835260208301919091527fedffc32e068c7c95dfd4bdfd5c4d939a084d6b11c4199eac8436ed234d72f926910160405180910390a16001600160a01b038116156124e55760408051600481526024810182526020810180516001600160e01b0316636cc1140b60e11b17905290516001600160a01b0383169161249f91615dee565b6000604051808303816000865af19150503d80600081146124dc576040519150601f19603f3d011682016040523d82523d6000602084013e6124e1565b606091505b5050505b60408051600481526024810182526020810180516001600160e01b031663742a137b60e11b17905290516001600160a01b0385169161252391615dee565b6000604051808303816000865af19150503d8060008114612560576040519150601f19603f3d011682016040523d82523d6000602084013e612565565b606091505b50600091506118959050565b600061257b612a32565b61258b57610cff6001605a612d14565b43600c54146125a057610cff600a605b612d14565b670de0b6b3a76400006125c06125b884600954612ff6565b600a54612ff6565b11156125d257610cff6002605c612d14565b600b80549083905560408051828152602081018590527faaa68312e2ea9d50e16af5068410ab56e1a1fd06037b1a35664812c30f82146091016122f2565b600043600c541461262757610cff600a6054612d14565b6000198214156126375760095491505b6000612641613ea8565b9050670de0b6b3a764000061266161265b600b5486612ff6565b83612ff6565b11156126735761189560026055612d14565b82600954146126d757612684612a32565b6126945761189560016053612d14565b600980549084905560408051828152602081018690527fcdd0b588250e1398549f79cfdb8217c186688822905d6715b0834ea1c865594a910160405180910390a1505b80600a541461272357600a80549082905560408051828152602081018490527f92eef861b6533b7d3417f39c2ad7b460eed4e88a32fa3604f30e718b7602e7dc910160405180910390a1505b6000611895565b6006546040516317b9b84b60e31b81523060048201526001600160a01b038581166024830152848116604483015260648201849052600092839291169063bdcdc258906084016020604051808303816000875af115801561278f573d6000803e3d6000fd5b505050506040513d601f19601f820116820180604052508101906127b39190615c6f565b905080156127d0576127c86003605d83613ef2565b9150506113ac565b836001600160a01b0316856001600160a01b031614156127f6576127c86002605e612d14565b6000856001600160a01b0316876001600160a01b0316141561281b5750600019612843565b506001600160a01b038086166000908152601460209081526040808320938a16835292905220545b600080600080612853858961302c565b9094509250600084600381111561286c5761286c615cbd565b1461288a5761287d6009605e612d14565b96505050505050506113ac565b6001600160a01b038a166000908152601360205260409020546128ad908961302c565b909450915060008460038111156128c6576128c6615cbd565b146128d75761287d6009605f612d14565b6001600160a01b0389166000908152601360205260409020546128fa9089613f94565b9094509050600084600381111561291357612913615cbd565b146129245761287d60096060612d14565b6001600160a01b03808b16600090815260136020526040808220859055918b16815220819055600019851461297c576001600160a01b03808b166000908152601460209081526040808320938f168352929052208390555b886001600160a01b03168a6001600160a01b0316600080516020615ee98339815191528a6040516129af91815260200190565b60405180910390a35060009a9950505050505050505050565b60008060006129d681611e55565b60006129e06118eb565b90508015612a1057612a048160118111156129fd576129fd615cbd565b6040612d14565b60009350935050612a21565b612a1b3387876138d5565b93509350505b612a2a81611f19565b509250929050565b600654604080516303e1469160e61b815290516000926001600160a01b031691829163f851a440916004808201926020929091908290030181865afa158015612a7f573d6000803e3d6000fd5b505050506040513d601f19601f82011682018060405250810190612aa39190615e0a565b6001600160a01b0316336001600160a01b0316148015612b205750806001600160a01b0316630a755ec26040518163ffffffff1660e01b8152600401602060405180830381865afa158015612afc573d6000803e3d6000fd5b505050506040513d601f19601f82011682018060405250810190612b209190615d03565b806118fd57506001546001600160a01b0316331480156118fd5750806001600160a01b0316632f1069ba6040518163ffffffff1660e01b8152600401602060405180830381865afa158015612b79573d6000803e3d6000fd5b505050506040513d601f19601f820116820180604052508101906118fd9190615d03565b600080600080612bad8686613fc4565b90925090506000826003811115612bc657612bc6615cbd565b14612bd75750915060009050612be9565b6000612be282614040565b9350935050505b9250929050565b601754604051633af9e66960e01b81523060048201526000916001600160a01b031690633af9e66990602401611b94565b60165460175460405163095ea7b360e01b81526001600160a01b0391821660048201526024810184905291169063095ea7b3906044016020604051808303816000875af1158015612c76573d6000803e3d6000fd5b505050506040513d601f19601f82011682018060405250810190612c9a9190615d03565b50601754604051636e553f6560e01b8152600481018390523060248201526001600160a01b0390911690636e553f65906044016020604051808303816000875af1158015612cec573d6000803e3d6000fd5b505050506040513d601f19601f82011682018060405250810190612d109190615c6f565b5050565b60007f45b96fe442630264581b197e84bbada861235052c5a1aadfff9ea4e40a969aa0836011811115612d4957612d49615cbd565b836063811115612d5b57612d5b615cbd565b60408051928352602083019190915260009082015260600160405180910390a182601181111561189557611895615cbd565b600080612d98612a32565b612da8576118956001603c612d14565b43600c5414612dbd57611895600a603e612d14565b82612dc6612bf0565b1015612dd857611895600e603d612d14565b600f54831115612dee576118956002603f612d14565b612dfa600f5484614058565b600f8190559050612e0b3384614092565b7f3bad0c59cf2f06e7314077049f48a93578cd16f5ef92329f1dab1420a99c177e3384836040516122f293929190615e27565b600080612e4a81611e55565b6000612e546118eb565b90508015612e7857611679816011811115612e7157612e71615cbd565b602a612d14565b61168a3360008661410f565b6001600160a01b038116600090815260156020526040812080548291829182918291612eb95750600096879650945050505050565b612ec98160000154600d54614695565b90945092506000846003811115612ee257612ee2615cbd565b14612ef557509195600095509350505050565b612f038382600101546146df565b90945091506000846003811115612f1c57612f1c615cbd565b14612f2f57509195600095509350505050565b506000969095509350505050565b60008043600c5414612f5557611895600a6035612d14565b82612f5e612bf0565b1015612f7057611895600e6034612d14565b601154831115612f865761189560026036612d14565b612f9260115484614058565b6011819055600154909150612723906001600160a01b031684614092565b6000806000612fbe81611e55565b6000612fc86118eb565b90508015612fec57611e29816011811115612fe557612fe5615cbd565b6020612d14565b611e40338661470a565b60006118958383604051806040016040528060118152602001706164646974696f6e206f766572666c6f7760781b815250614ac8565b60008083831161304b5760006130428486615e48565b91509150612be9565b50600390506000612be9565b60008061307260405180602001604052808681525084614af9565b9050600061308282600e54614b2a565b9050600061309282600e54612ff6565b905060006130b36040518060200160405280600b5481525084600f54614b42565b905060006130d46040518060200160405280600a5481525085601154614b42565b905060006130f5604051806020016040528060095481525086601054614b42565b9050600061310887600d54600d54614b42565b600c8d9055600d819055600e869055600f85905560118490556010839055604080518d815260208101899052908101829052606081018790529091507f4dec04e750ca11537cabcd8a9eab06494de08da3735bc8871cd41250e190bc049060800160405180910390a160009c9b505050505050505050505050565b60008043600c541461319b57611895600a6039612d14565b826131a4612bf0565b10156131b657611895600e6038612d14565b6010548311156131cc576118956002603a612d14565b6131d860105484614058565b905080601081905550612723600660009054906101000a90046001600160a01b03166001600160a01b031663f851a4406040518163ffffffff1660e01b8152600401602060405180830381865afa158015613237573d6000803e3d6000fd5b505050506040513d601f19601f8201168201806040525081019061325b9190615e0a565b84614092565b60065460405163d02f735160e01b81523060048201526001600160a01b0386811660248301528581166044830152848116606483015260848201849052600092839291169063d02f73519060a4016020604051808303816000875af11580156132ce573d6000803e3d6000fd5b505050506040513d601f19601f820116820180604052508101906132f29190615c6f565b90508015613307576127c86003601d83613ef2565b846001600160a01b0316846001600160a01b0316141561332d576127c86006601e612d14565b613392604080516101808101909152806000815260200160008152602001600081526020016000815260200160008152602001600081526020016000815260200160008152602001600081526020016000815260200160008152602001600081525090565b6001600160a01b0385166000908152601360205260409020546133b5908561302c565b60208301819052828260038111156133cf576133cf615cbd565b60038111156133e0576133e0615cbd565b90525060009050815160038111156133fa576133fa615cbd565b1461342a576134216009601c8360000151600381111561341c5761341c615cbd565b613ef2565b925050506113ac565b613449846040518060200160405280666379da05b60000815250614b63565b6080820152604080516020810190915267016345785d8a0000815261346f908590614b63565b610140820152608081015161349490613489908690614058565b826101400151614058565b60608201526134a1611f84565b60c08301819052828260038111156134bb576134bb615cbd565b60038111156134cc576134cc615cbd565b90525060009050815160038111156134e6576134e6615cbd565b146135335760405162461bcd60e51b815260206004820152601860248201527f65786368616e67652072617465206d617468206572726f7200000000000000006044820152606401610d4c565b61355360405180602001604052808360c001518152508260800151614b2a565b60a0820152604080516020810190915260c0820151815261014082015161357a9190614b2a565b610160820152600f5460a08201516135929190612ff6565b60e082015260125460808201516135ac9161348991614058565b6101208201526011546101608201516135c59190612ff6565b6101008201526001600160a01b03861660009081526013602052604090205460608201516135f39190613f94565b604083018190528282600381111561360d5761360d615cbd565b600381111561361e5761361e615cbd565b905250600090508151600381111561363857613638615cbd565b1461365a576134216009601b8360000151600381111561341c5761341c615cbd565b60e0810151600f556101208101516012556101008101516011556020808201516001600160a01b0387811660008181526013855260408082209490945583860151928b1680825290849020929092556060850151925192835290929091600080516020615ee9833981519152910160405180910390a3306001600160a01b0316856001600160a01b0316600080516020615ee9833981519152836080015160405161370791815260200190565b60405180910390a360a081015160e08201516040517fa91e67c5ea634cd43a12c5a482724b03de01e85ca68702a53d0c2f45cb7c1dc592613749923092615e27565b60405180910390a16000979650505050505050565b60008061376a81611e55565b60006137746118eb565b905080156137985761167981601181111561379157613791615cbd565b600a612d14565b61168a3385614b86565b6000806137ae81611e55565b60006137b86118eb565b905080156137d557611679816011811115612e7157612e71615cbd565b61168a3385600061410f565b60008060006137ef81611e55565b60006137f96118eb565b905080156138295761381d81601181111561381657613816615cbd565b6011612d14565b600093509350506138c3565b846001600160a01b031663a6afed956040518163ffffffff1660e01b81526004016020604051808303816000875af1158015613869573d6000803e3d6000fd5b505050506040513d601f19601f8201168201806040525081019061388d9190615c6f565b905080156138b15761381d8160118111156138aa576138aa615cbd565b6012612d14565b6138bd33888888614f1a565b93509350505b6138cc81611f19565b50935093915050565b600654604051631200453160e11b81523060048201526001600160a01b03858116602483015284811660448301526064820184905260009283928392909116906324008a62906084016020604051808303816000875af115801561393d573d6000803e3d6000fd5b505050506040513d601f19601f820116820180604052508101906139619190615c6f565b90508015613982576139766003604383613ef2565b60009250925050613ce7565b43600c541461399757613976600a6044612d14565b6139e06040805161010081019091528060008152602001600081526020016000815260200160008152602001600081526020016000815260200160008152602001600081525090565b6001600160a01b0386166000908152601560205260409020600101546060820152613a0a86612e84565b6080830181905260208301826003811115613a2757613a27615cbd565b6003811115613a3857613a38615cbd565b9052506000905081602001516003811115613a5557613a55615cbd565b14613a8457613a77600960428360200151600381111561341c5761341c615cbd565b6000935093505050613ce7565b600019851415613a9d5760808101516040820152613aa5565b604081018590525b613ab38782604001516153db565b60e082018190526080820151613ac89161302c565b60a0830181905260208301826003811115613ae557613ae5615cbd565b6003811115613af657613af6615cbd565b9052506000905081602001516003811115613b1357613b13615cbd565b14613b865760405162461bcd60e51b815260206004820152603a60248201527f52455041595f424f52524f575f4e45575f4143434f554e545f424f52524f575f60448201527f42414c414e43455f43414c43554c4154494f4e5f4641494c45440000000000006064820152608401610d4c565b613b96600e548260e0015161302c565b60c0830181905260208301826003811115613bb357613bb3615cbd565b6003811115613bc457613bc4615cbd565b9052506000905081602001516003811115613be157613be1615cbd565b14613c485760405162461bcd60e51b815260206004820152603160248201527f52455041595f424f52524f575f4e45575f544f54414c5f42414c414e43455f43604482015270105310d55310551253d397d19052531151607a1b6064820152608401610d4c565b60a081810180516001600160a01b03898116600081815260156020908152604091829020948555600d5460019095019490945560c0870151600e81905560e088015195518251948f16855294840192909252820193909352606081019190915260808101919091527f1a2a22cb034d26d1854bdc6666a5b91fe25efbbb5dcad3b0355478d6f5c362a1910160405180910390a160e00151600093509150505b935093915050565b600080600080613cff8787613f94565b90925090506000826003811115613d1857613d18615cbd565b14613d295750915060009050613ce7565b613d33818661302c565b935093505050935093915050565b6000613d596040518060200160405280600081525090565b600080613d6e86670de0b6b3a7640000614695565b90925090506000826003811115613d8757613d87615cbd565b14613da657506040805160208101909152600081529092509050612be9565b600080613db383886146df565b90925090506000826003811115613dcc57613dcc615cbd565b14613def5781604051806020016040528060008152509550955050505050612be9565b604080516020810190915290815260009890975095505050505050565b6060600080856001600160a01b031685604051613e299190615dee565b6000604051808303816000865af19150503d8060008114613e66576040519150601f19603f3d011682016040523d82523d6000602084013e613e6b565b606091505b509150915081613e9f57805115613e855780518082602001fd5b8360405162461bcd60e51b8152600401610d4c91906158e8565b95945050505050565b6001546040805163dd86fea160e01b815290516000926001600160a01b03169163dd86fea19160048083019260209291908290030181865afa158015611bb1573d6000803e3d6000fd5b60007f45b96fe442630264581b197e84bbada861235052c5a1aadfff9ea4e40a969aa0846011811115613f2757613f27615cbd565b846063811115613f3957613f39615cbd565b604080519283526020830191909152810184905260600160405180910390a16003846011811115613f6c57613f6c615cbd565b14613f8857836011811115613f8357613f83615cbd565b6113ac565b6113ac826103e8615dd6565b60008080613fa28486615dd6565b9050848110613fb657600092509050612be9565b600260009250925050612be9565b6000613fdc6040518060200160405280600081525090565b600080613fed866000015186614695565b9092509050600082600381111561400657614006615cbd565b1461402557506040805160208101909152600081529092509050612be9565b60408051602081019091529081526000969095509350505050565b8051600090610cff90670de0b6b3a764000090615e5f565b60006118958383604051806040016040528060158152602001747375627472616374696f6e20756e646572666c6f7760581b815250615494565b601754604051632d182be560e21b8152600481018390526001600160a01b0384811660248301523060448301529091169063b460af94906064016020604051808303816000875af11580156140eb573d6000803e3d6000fd5b505050506040513d601f19601f82011682018060405250810190610f2c9190615c6f565b600082158061411c575081155b6141855760405162461bcd60e51b815260206004820152603460248201527f6f6e65206f662072656465656d546f6b656e73496e206f722072656465656d416044820152736d6f756e74496e206d757374206265207a65726f60601b6064820152608401610d4c565b6141c66040805160e0810190915280600081526020016000815260200160008152602001600081526020016000815260200160008152602001600081525090565b6141ce611f84565b60408301819052602083018260038111156141eb576141eb615cbd565b60038111156141fc576141fc615cbd565b905250600090508160200151600381111561421957614219615cbd565b146142435761423b6009602e8360200151600381111561341c5761341c615cbd565b915050611895565b83156142dc57606081018490526040805160208101825290820151815261426a9085612b9d565b608083018190526020830182600381111561428757614287615cbd565b600381111561429857614298615cbd565b90525060009050816020015160038111156142b5576142b5615cbd565b146142d75761423b6009602c8360200151600381111561341c5761341c615cbd565b61436d565b6142f883604051806020016040528084604001518152506154c3565b606083018190526020830182600381111561431557614315615cbd565b600381111561432657614326615cbd565b905250600090508160200151600381111561434357614343615cbd565b146143655761423b6009602d8360200151600381111561341c5761341c615cbd565b608081018390525b600654606082015160405163eabe7d9160e01b81526000926001600160a01b03169163eabe7d91916143a69130918b9190600401615e81565b6020604051808303816000875af11580156143c5573d6000803e3d6000fd5b505050506040513d601f19601f820116820180604052508101906143e99190615c6f565b90508015614407576143fe6003602b83613ef2565b92505050611895565b43600c541461441c576143fe600a602f612d14565b61442c601254836060015161302c565b60a084018190526020840182600381111561444957614449615cbd565b600381111561445a5761445a615cbd565b905250600090508260200151600381111561447757614477615cbd565b14614499576143fe600960318460200151600381111561341c5761341c615cbd565b6001600160a01b03861660009081526013602052604090205460608301516144c1919061302c565b60c08401819052602084018260038111156144de576144de615cbd565b60038111156144ef576144ef615cbd565b905250600090508260200151600381111561450c5761450c615cbd565b1461452e576143fe600960308460200151600381111561341c5761341c615cbd565b816080015161453b612bf0565b101561454d576143fe600e6032612d14565b60a082015160125560c08201516001600160a01b0387166000908152601360205260409020556080820151614583908790614092565b306001600160a01b0316866001600160a01b0316600080516020615ee983398151915284606001516040516145ba91815260200190565b60405180910390a3608082015160608301516040517fe5b754fb1abb7f01b499791d0b820ae3b6af3424ac1c59768edb53f4ec31a929926145fc928a92615e27565b60405180910390a1600654608083015160608401516040516351dff98960e01b81523060048201526001600160a01b038a81166024830152604482019390935260648101919091529116906351dff98990608401600060405180830381600087803b15801561466a57600080fd5b505af115801561467e573d6000803e3d6000fd5b506000925061468b915050565b9695505050505050565b600080836146a857506000905080612be9565b60006146b48486615ea5565b9050836146c18683615e5f565b146146d457600260009250925050612be9565b600092509050612be9565b600080826146f35750600190506000612be9565b60006146ff8486615e5f565b915091509250929050565b600654604051634ef4c3e160e01b8152600091829182916001600160a01b031690634ef4c3e19061474390309089908990600401615e81565b6020604051808303816000875af1158015614762573d6000803e3d6000fd5b505050506040513d601f19601f820116820180604052508101906147869190615c6f565b905080156147a75761479b6003602183613ef2565b60009250925050612be9565b43600c54146147bc5761479b600a6024612d14565b6147fd6040805160e0810190915280600081526020016000815260200160008152602001600081526020016000815260200160008152602001600081525090565b614805611f84565b604083018190526020830182600381111561482257614822615cbd565b600381111561483357614833615cbd565b905250600090508160200151600381111561485057614850615cbd565b1461487f57614872600960238360200151600381111561341c5761341c615cbd565b6000935093505050612be9565b61488986866153db565b60c08201819052604080516020810182529083015181526148aa91906154c3565b60608301819052602083018260038111156148c7576148c7615cbd565b60038111156148d8576148d8615cbd565b90525060009050816020015160038111156148f5576148f5615cbd565b146149425760405162461bcd60e51b815260206004820181905260248201527f4d494e545f45584348414e47455f43414c43554c4154494f4e5f4641494c45446044820152606401610d4c565b6149526012548260600151612ff6565b60808201526001600160a01b038616600090815260136020526040902054606082015161497f9190612ff6565b60a0820181905260808201516012556001600160a01b038716600090815260136020526040908190209190915560c0820151606083015191517f4c209b5fc8ad50758f13e2e1088ba56a560dff690a1c6fef26394f4c03821c4f926149e8928a92909190615e27565b60405180910390a1856001600160a01b0316306001600160a01b0316600080516020615ee98339815191528360600151604051614a2791815260200190565b60405180910390a360065460c082015160608301516040516341c728b960e01b81523060048201526001600160a01b038a81166024830152604482019390935260648101919091529116906341c728b990608401600060405180830381600087803b158015614a9557600080fd5b505af1158015614aa9573d6000803e3d6000fd5b5060009250614ab6915050565b8160c001519350935050509250929050565b600080614ad58486615dd6565b905082858210156112945760405162461bcd60e51b8152600401610d4c91906158e8565b6040805160208101909152600081526040518060200160405280614b218560000151856154d3565b90529392505050565b600080614b378484614af9565b90506113ac81614040565b600080614b4f8585614af9565b9050613e9f614b5d82614040565b84612ff6565b6000670de0b6b3a7640000614b7c8484600001516154d3565b6118959190615e5f565b60065460405163368f515360e21b815260009182916001600160a01b039091169063da3d454c90614bbf90309088908890600401615e81565b6020604051808303816000875af1158015614bde573d6000803e3d6000fd5b505050506040513d601f19601f82011682018060405250810190614c029190615c6f565b90508015614c1f57614c176003601083613ef2565b915050610cff565b43600c5414614c3457614c17600a600c612d14565b6000614c3e612bf0565b905083811015614c5d57614c54600e600b612d14565b92505050610cff565b614c89604080516080810190915280600081526020016000815260200160008152602001600081525090565b614c9286612e84565b6020830181905282826003811115614cac57614cac615cbd565b6003811115614cbd57614cbd615cbd565b9052506000905081516003811115614cd757614cd7615cbd565b14614d0257614cf86009808360000151600381111561341c5761341c615cbd565b9350505050610cff565b614d10816020015186613f94565b6040830181905282826003811115614d2a57614d2a615cbd565b6003811115614d3b57614d3b615cbd565b9052506000905081516003811115614d5557614d55615cbd565b14614d7757614cf86009600e8360000151600381111561341c5761341c615cbd565b6006546040828101519051631de6c8a560e21b815230600482015260248101919091526001600160a01b039091169063779b2294906044016020604051808303816000875af1158015614dce573d6000803e3d6000fd5b505050506040513d601f19601f82011682018060405250810190614df29190615c6f565b92508215614e0757614cf86003601085613ef2565b614e13600e5486613f94565b6060830181905282826003811115614e2d57614e2d615cbd565b6003811115614e3e57614e3e615cbd565b9052506000905081516003811115614e5857614e58615cbd565b14614e7a57614cf86009600d8360000151600381111561341c5761341c615cbd565b6040808201516001600160a01b0388166000908152601560205291909120908155600d546001909101556060810151600e55614eb68686614092565b60408082015160608084015183516001600160a01b038b168152602081018a9052938401929092528201527f13ed6866d4e1ee6da46f845c46d7e54120883d75c5ea9a2dacc1c4ca8984ab809060800160405180910390a160009695505050505050565b600654604051632fe3f38f60e11b81523060048201526001600160a01b03838116602483015286811660448301528581166064830152608482018590526000928392839290911690635fc7e71e9060a4016020604051808303816000875af1158015614f8a573d6000803e3d6000fd5b505050506040513d601f19601f82011682018060405250810190614fae9190615c6f565b90508015614fcf57614fc36003601483613ef2565b600092509250506153d2565b43600c5414614fe457614fc3600a6018612d14565b43846001600160a01b0316636c540baf6040518163ffffffff1660e01b8152600401602060405180830381865afa158015615023573d6000803e3d6000fd5b505050506040513d601f19601f820116820180604052508101906150479190615c6f565b1461505857614fc3600a6013612d14565b866001600160a01b0316866001600160a01b0316141561507e57614fc360066019612d14565b8461508f57614fc360076017612d14565b6000198514156150a557614fc360076016612d14565b6000806150b38989896138d5565b909250905081156150e8576150da8260118111156150d3576150d3615cbd565b601a612d14565b6000945094505050506153d2565b60065460405163c488847b60e01b815260009182916001600160a01b039091169063c488847b906151219030908c908890600401615e81565b6040805180830381865afa15801561513d573d6000803e3d6000fd5b505050506040513d601f19601f820116820180604052508101906151619190615ec4565b909250905081156151d05760405162461bcd60e51b815260206004820152603360248201527f4c49515549444154455f434f4d5054524f4c4c45525f43414c43554c4154455f604482015272105353d5539517d4d152569157d19052531151606a1b6064820152608401610d4c565b6040516370a0823160e01b81526001600160a01b038b811660048301528291908a16906370a0823190602401602060405180830381865afa158015615219573d6000803e3d6000fd5b505050506040513d601f19601f8201168201806040525081019061523d9190615c6f565b101561528b5760405162461bcd60e51b815260206004820152601860248201527f4c49515549444154455f5345495a455f544f4f5f4d55434800000000000000006044820152606401610d4c565b60006001600160a01b0389163014156152b1576152aa308d8d85613261565b9050615327565b60405163b2a02ff160e01b81526001600160a01b038a169063b2a02ff1906152e1908f908f908790600401615e81565b6020604051808303816000875af1158015615300573d6000803e3d6000fd5b505050506040513d601f19601f820116820180604052508101906153249190615c6f565b90505b801561536c5760405162461bcd60e51b81526020600482015260146024820152731d1bdad95b881cd95a5e9d5c994819985a5b195960621b6044820152606401610d4c565b604080516001600160a01b038e811682528d811660208301528183018790528b1660608201526080810184905290517f298637f684da70674f26509b10f07ec2fbc77a335ab1e7d6215a4b2484d8bb529181900360a00190a16000975092955050505050505b94509492505050565b6016546040516323b872dd60e01b81526000916001600160a01b0316906323b872dd9061541090869030908790600401615e81565b6020604051808303816000875af115801561542f573d6000803e3d6000fd5b505050506040513d601f19601f820116820180604052508101906154539190615d03565b61548b5760405162461bcd60e51b81526020600482015260096024820152681cd95b990819985a5b60ba1b6044820152606401610d4c565b610d6a82612c21565b600081848411156154b85760405162461bcd60e51b8152600401610d4c91906158e8565b506113ac8385615e48565b600080600080612bad8686615515565b600061189583836040518060400160405280601781526020017f6d756c7469706c69636174696f6e206f766572666c6f77000000000000000000815250615588565b600061552d6040518060200160405280600081525090565b600080615542670de0b6b3a764000087614695565b9092509050600082600381111561555b5761555b615cbd565b1461557a57506040805160208101909152600081529092509050612be9565b612be2818660000151613d41565b6000831580615595575082155b156155a257506000611895565b60006155ae8486615ea5565b9050836155bb8683615e5f565b1483906112945760405162461bcd60e51b8152600401610d4c91906158e8565b8280546155e790615c88565b90600052602060002090601f016020900481019282615609576000855561564f565b82601f1061562257805160ff191683800117855561564f565b8280016001018555821561564f579182015b8281111561564f578251825591602001919060010190615634565b506116d79291506156cf565b82805461566790615c88565b90600052602060002090601f016020900481019282615689576000855561564f565b82601f106156a25782800160ff1982351617855561564f565b8280016001018555821561564f579182015b8281111561564f5782358255916020019190600101906156b4565b5b808211156116d757600081556001016156d0565b6001600160a01b0381168114611f8157600080fd5b8035615704816156e4565b919050565b634e487b7160e01b600052604160045260246000fd5b604051601f8201601f1916810167ffffffffffffffff8111828210171561574857615748615709565b604052919050565b600067ffffffffffffffff82111561576a5761576a615709565b50601f01601f191660200190565b600082601f83011261578957600080fd5b813561579c61579782615750565b61571f565b8181528460208386010111156157b157600080fd5b816020850160208301376000918101602001919091529392505050565b600080600080600080600080610100898b0312156157eb57600080fd5b88356157f6816156e4565b97506020890135615806816156e4565b96506040890135615816816156e4565b95506060890135615826816156e4565b9450608089013567ffffffffffffffff8082111561584357600080fd5b61584f8c838d01615778565b955060a08b013591508082111561586557600080fd5b506158728b828c01615778565b93505060c0890135915060e089013590509295985092959890939650565b60005b838110156158ab578181015183820152602001615893565b838111156114415750506000910152565b600081518084526158d4816020860160208601615890565b601f01601f19169290920160200192915050565b60208152600061189560208301846158bc565b6000806040838503121561590e57600080fd5b8235615919816156e4565b946020939093013593505050565b60006020828403121561593957600080fd5b5035919050565b60006020828403121561595257600080fd5b8135611895816156e4565b60ff81168114611f8157600080fd5b80356157048161595d565b60008060008060008060008060006101208a8c03121561599657600080fd5b89356159a1816156e4565b985060208a01356159b1816156e4565b97506159bf60408b016156f9565b965060608a0135955060808a013567ffffffffffffffff808211156159e357600080fd5b6159ef8d838e01615778565b965060a08c0135915080821115615a0557600080fd5b50615a128c828d01615778565b945050615a2160c08b0161596c565b925060e08a013591506101008a013590509295985092959850929598565b600080600060608486031215615a5457600080fd5b8335615a5f816156e4565b92506020840135615a6f816156e4565b929592945050506040919091013590565b60008083601f840112615a9257600080fd5b50813567ffffffffffffffff811115615aaa57600080fd5b602083019150836020828501011115612be957600080fd5b60008060008060408587031215615ad857600080fd5b843567ffffffffffffffff80821115615af057600080fd5b615afc88838901615a80565b90965094506020870135915080821115615b1557600080fd5b50615b2287828801615a80565b95989497509550505050565b8015158114611f8157600080fd5b60008060008060608587031215615b5257600080fd5b8435615b5d816156e4565b93506020850135615b6d81615b2e565b9250604085013567ffffffffffffffff811115615b8957600080fd5b615b2287828801615a80565b60008060208385031215615ba857600080fd5b823567ffffffffffffffff811115615bbf57600080fd5b615bcb85828601615a80565b90969095509350505050565b60008060408385031215615bea57600080fd5b8235615bf5816156e4565b91506020830135615c05816156e4565b809150509250929050565b600080600060608486031215615c2557600080fd5b8335615c30816156e4565b9250602084013591506040840135615c47816156e4565b809150509250925092565b600060208284031215615c6457600080fd5b81516118958161595d565b600060208284031215615c8157600080fd5b5051919050565b600181811c90821680615c9c57607f821691505b60208210811415610d6a57634e487b7160e01b600052602260045260246000fd5b634e487b7160e01b600052602160045260246000fd5b6020808252601690820152751858d8dc9d59481a5b9d195c995cdd0819985a5b195960521b604082015260600190565b600060208284031215615d1557600080fd5b815161189581615b2e565b600080600060608486031215615d3557600080fd5b8351615d40816156e4565b6020850151909350615d5181615b2e565b604085015190925067ffffffffffffffff811115615d6e57600080fd5b8401601f81018613615d7f57600080fd5b8051615d8d61579782615750565b818152876020838501011115615da257600080fd5b615db3826020830160208601615890565b8093505050509250925092565b634e487b7160e01b600052601160045260246000fd5b60008219821115615de957615de9615dc0565b500190565b60008251615e00818460208701615890565b9190910192915050565b600060208284031215615e1c57600080fd5b8151611895816156e4565b6001600160a01b039390931683526020830191909152604082015260600190565b600082821015615e5a57615e5a615dc0565b500390565b600082615e7c57634e487b7160e01b600052601260045260246000fd5b500490565b6001600160a01b039384168152919092166020820152604081019190915260600190565b6000816000190483118215151615615ebf57615ebf615dc0565b500290565b60008060408385031215615ed757600080fd5b50508051602090910151909290915056feddf252ad1be2c89b69c2b068fc378daa952ba7f163c4a11628f55a4df523b3efa2646970667358221220268afbda824454c5daa37a97b104738dceb1826a29ad32924be822e1781c312964736f6c634300080a0033",
    "linkReferences": {}
  }
}