{
  "address": "0xd6390760F685A350468D3A4f5EDe4732461237F3",
  "abi": [
    {
      "inputs": [],
      "stateMutability": "nonpayable",
      "type": "constructor"
    },
    {
      "anonymous": false,
      "inputs": [
        {
          "indexed": false,
          "internalType": "uint256",
          "name": "cashPrior",
          "type": "uint256"
        },
        {
          "indexed": false,
          "internalType": "uint256",
          "name": "interestAccumulated",
          "type": "uint256"
        },
        {
          "indexed": false,
          "internalType": "uint256",
          "name": "borrowIndex",
          "type": "uint256"
        },
        {
          "indexed": false,
          "internalType": "uint256",
          "name": "totalBorrows",
          "type": "uint256"
        }
      ],
      "name": "AccrueInterest",
      "type": "event"
    },
    {
      "anonymous": false,
      "inputs": [
        {
          "indexed": true,
          "internalType": "address",
          "name": "owner",
          "type": "address"
        },
        {
          "indexed": true,
          "internalType": "address",
          "name": "spender",
          "type": "address"
        },
        {
          "indexed": false,
          "internalType": "uint256",
          "name": "amount",
          "type": "uint256"
        }
      ],
      "name": "Approval",
      "type": "event"
    },
    {
      "anonymous": false,
      "inputs": [
        {
          "indexed": false,
          "internalType": "address",
          "name": "borrower",
          "type": "address"
        },
        {
          "indexed": false,
          "internalType": "uint256",
          "name": "borrowAmount",
          "type": "uint256"
        },
        {
          "indexed": false,
          "internalType": "uint256",
          "name": "accountBorrows",
          "type": "uint256"
        },
        {
          "indexed": false,
          "internalType": "uint256",
          "name": "totalBorrows",
          "type": "uint256"
        }
      ],
      "name": "Borrow",
      "type": "event"
    },
    {
      "anonymous": false,
      "inputs": [
        {
          "indexed": false,
          "internalType": "uint256",
          "name": "error",
          "type": "uint256"
        },
        {
          "indexed": false,
          "internalType": "uint256",
          "name": "info",
          "type": "uint256"
        },
        {
          "indexed": false,
          "internalType": "uint256",
          "name": "detail",
          "type": "uint256"
        }
      ],
      "name": "Failure",
      "type": "event"
    },
    {
      "anonymous": false,
      "inputs": [
        {
          "indexed": false,
          "internalType": "address",
          "name": "liquidator",
          "type": "address"
        },
        {
          "indexed": false,
          "internalType": "address",
          "name": "borrower",
          "type": "address"
        },
        {
          "indexed": false,
          "internalType": "uint256",
          "name": "repayAmount",
          "type": "uint256"
        },
        {
          "indexed": false,
          "internalType": "address",
          "name": "cTokenCollateral",
          "type": "address"
        },
        {
          "indexed": false,
          "internalType": "uint256",
          "name": "seizeTokens",
          "type": "uint256"
        }
      ],
      "name": "LiquidateBorrow",
      "type": "event"
    },
    {
      "anonymous": false,
      "inputs": [
        {
          "indexed": false,
          "internalType": "address",
          "name": "minter",
          "type": "address"
        },
        {
          "indexed": false,
          "internalType": "uint256",
          "name": "mintAmount",
          "type": "uint256"
        },
        {
          "indexed": false,
          "internalType": "uint256",
          "name": "mintTokens",
          "type": "uint256"
        }
      ],
      "name": "Mint",
      "type": "event"
    },
    {
      "anonymous": false,
      "inputs": [
        {
          "indexed": false,
          "internalType": "uint256",
          "name": "oldAdminFeeMantissa",
          "type": "uint256"
        },
        {
          "indexed": false,
          "internalType": "uint256",
          "name": "newAdminFeeMantissa",
          "type": "uint256"
        }
      ],
      "name": "NewAdminFee",
      "type": "event"
    },
    {
      "anonymous": false,
      "inputs": [
        {
          "indexed": false,
          "internalType": "contract ComptrollerInterface",
          "name": "oldComptroller",
          "type": "address"
        },
        {
          "indexed": false,
          "internalType": "contract ComptrollerInterface",
          "name": "newComptroller",
          "type": "address"
        }
      ],
      "name": "NewComptroller",
      "type": "event"
    },
    {
      "anonymous": false,
      "inputs": [
        {
          "indexed": false,
          "internalType": "uint256",
          "name": "oldFuseFeeMantissa",
          "type": "uint256"
        },
        {
          "indexed": false,
          "internalType": "uint256",
          "name": "newFuseFeeMantissa",
          "type": "uint256"
        }
      ],
      "name": "NewFuseFee",
      "type": "event"
    },
    {
      "anonymous": false,
      "inputs": [
        {
          "indexed": false,
          "internalType": "address",
          "name": "oldImplementation",
          "type": "address"
        },
        {
          "indexed": false,
          "internalType": "address",
          "name": "newImplementation",
          "type": "address"
        }
      ],
      "name": "NewImplementation",
      "type": "event"
    },
    {
      "anonymous": false,
      "inputs": [
        {
          "indexed": false,
          "internalType": "contract InterestRateModel",
          "name": "oldInterestRateModel",
          "type": "address"
        },
        {
          "indexed": false,
          "internalType": "contract InterestRateModel",
          "name": "newInterestRateModel",
          "type": "address"
        }
      ],
      "name": "NewMarketInterestRateModel",
      "type": "event"
    },
    {
      "anonymous": false,
      "inputs": [
        {
          "indexed": false,
          "internalType": "uint256",
          "name": "oldReserveFactorMantissa",
          "type": "uint256"
        },
        {
          "indexed": false,
          "internalType": "uint256",
          "name": "newReserveFactorMantissa",
          "type": "uint256"
        }
      ],
      "name": "NewReserveFactor",
      "type": "event"
    },
    {
      "anonymous": false,
      "inputs": [
        {
          "indexed": false,
          "internalType": "address",
          "name": "redeemer",
          "type": "address"
        },
        {
          "indexed": false,
          "internalType": "uint256",
          "name": "redeemAmount",
          "type": "uint256"
        },
        {
          "indexed": false,
          "internalType": "uint256",
          "name": "redeemTokens",
          "type": "uint256"
        }
      ],
      "name": "Redeem",
      "type": "event"
    },
    {
      "anonymous": false,
      "inputs": [
        {
          "indexed": false,
          "internalType": "address",
          "name": "payer",
          "type": "address"
        },
        {
          "indexed": false,
          "internalType": "address",
          "name": "borrower",
          "type": "address"
        },
        {
          "indexed": false,
          "internalType": "uint256",
          "name": "repayAmount",
          "type": "uint256"
        },
        {
          "indexed": false,
          "internalType": "uint256",
          "name": "accountBorrows",
          "type": "uint256"
        },
        {
          "indexed": false,
          "internalType": "uint256",
          "name": "totalBorrows",
          "type": "uint256"
        }
      ],
      "name": "RepayBorrow",
      "type": "event"
    },
    {
      "anonymous": false,
      "inputs": [
        {
          "indexed": false,
          "internalType": "address",
          "name": "benefactor",
          "type": "address"
        },
        {
          "indexed": false,
          "internalType": "uint256",
          "name": "addAmount",
          "type": "uint256"
        },
        {
          "indexed": false,
          "internalType": "uint256",
          "name": "newTotalReserves",
          "type": "uint256"
        }
      ],
      "name": "ReservesAdded",
      "type": "event"
    },
    {
      "anonymous": false,
      "inputs": [
        {
          "indexed": false,
          "internalType": "address",
          "name": "admin",
          "type": "address"
        },
        {
          "indexed": false,
          "internalType": "uint256",
          "name": "reduceAmount",
          "type": "uint256"
        },
        {
          "indexed": false,
          "internalType": "uint256",
          "name": "newTotalReserves",
          "type": "uint256"
        }
      ],
      "name": "ReservesReduced",
      "type": "event"
    },
    {
      "anonymous": false,
      "inputs": [
        {
          "indexed": true,
          "internalType": "address",
          "name": "from",
          "type": "address"
        },
        {
          "indexed": true,
          "internalType": "address",
          "name": "to",
          "type": "address"
        },
        {
          "indexed": false,
          "internalType": "uint256",
          "name": "amount",
          "type": "uint256"
        }
      ],
      "name": "Transfer",
      "type": "event"
    },
    {
      "inputs": [
        {
          "internalType": "bytes",
          "name": "data",
          "type": "bytes"
        }
      ],
      "name": "_becomeImplementation",
      "outputs": [],
      "stateMutability": "nonpayable",
      "type": "function"
    },
    {
      "inputs": [
        {
          "internalType": "address",
          "name": "compLikeDelegatee",
          "type": "address"
        }
      ],
      "name": "_delegateCompLikeTo",
      "outputs": [],
      "stateMutability": "nonpayable",
      "type": "function"
    },
    {
      "inputs": [],
      "name": "_prepare",
      "outputs": [],
      "stateMutability": "payable",
      "type": "function"
    },
    {
      "inputs": [
        {
          "internalType": "uint256",
          "name": "reduceAmount",
          "type": "uint256"
        }
      ],
      "name": "_reduceReserves",
      "outputs": [
        {
          "internalType": "uint256",
          "name": "",
          "type": "uint256"
        }
      ],
      "stateMutability": "nonpayable",
      "type": "function"
    },
    {
      "inputs": [
        {
          "internalType": "uint256",
          "name": "newAdminFeeMantissa",
          "type": "uint256"
        }
      ],
      "name": "_setAdminFee",
      "outputs": [
        {
          "internalType": "uint256",
          "name": "",
          "type": "uint256"
        }
      ],
      "stateMutability": "nonpayable",
      "type": "function"
    },
    {
      "inputs": [
        {
          "internalType": "address",
          "name": "implementation_",
          "type": "address"
        },
        {
          "internalType": "bool",
          "name": "allowResign",
          "type": "bool"
        },
        {
          "internalType": "bytes",
          "name": "becomeImplementationData",
          "type": "bytes"
        }
      ],
      "name": "_setImplementationSafe",
      "outputs": [],
      "stateMutability": "nonpayable",
      "type": "function"
    },
    {
      "inputs": [
        {
          "internalType": "contract InterestRateModel",
          "name": "newInterestRateModel",
          "type": "address"
        }
      ],
      "name": "_setInterestRateModel",
      "outputs": [
        {
          "internalType": "uint256",
          "name": "",
          "type": "uint256"
        }
      ],
      "stateMutability": "nonpayable",
      "type": "function"
    },
    {
      "inputs": [
        {
          "internalType": "string",
          "name": "_name",
          "type": "string"
        },
        {
          "internalType": "string",
          "name": "_symbol",
          "type": "string"
        }
      ],
      "name": "_setNameAndSymbol",
      "outputs": [],
      "stateMutability": "nonpayable",
      "type": "function"
    },
    {
      "inputs": [
        {
          "internalType": "uint256",
          "name": "newReserveFactorMantissa",
          "type": "uint256"
        }
      ],
      "name": "_setReserveFactor",
      "outputs": [
        {
          "internalType": "uint256",
          "name": "",
          "type": "uint256"
        }
      ],
      "stateMutability": "nonpayable",
      "type": "function"
    },
    {
      "inputs": [
        {
          "internalType": "uint256",
          "name": "withdrawAmount",
          "type": "uint256"
        }
      ],
      "name": "_withdrawAdminFees",
      "outputs": [
        {
          "internalType": "uint256",
          "name": "",
          "type": "uint256"
        }
      ],
      "stateMutability": "nonpayable",
      "type": "function"
    },
    {
      "inputs": [
        {
          "internalType": "uint256",
          "name": "withdrawAmount",
          "type": "uint256"
        }
      ],
      "name": "_withdrawFuseFees",
      "outputs": [
        {
          "internalType": "uint256",
          "name": "",
          "type": "uint256"
        }
      ],
      "stateMutability": "nonpayable",
      "type": "function"
    },
    {
      "inputs": [],
      "name": "accrualBlockNumber",
      "outputs": [
        {
          "internalType": "uint256",
          "name": "",
          "type": "uint256"
        }
      ],
      "stateMutability": "view",
      "type": "function"
    },
    {
      "inputs": [],
      "name": "accrueInterest",
      "outputs": [
        {
          "internalType": "uint256",
          "name": "",
          "type": "uint256"
        }
      ],
      "stateMutability": "nonpayable",
      "type": "function"
    },
    {
      "inputs": [],
      "name": "adminFeeMantissa",
      "outputs": [
        {
          "internalType": "uint256",
          "name": "",
          "type": "uint256"
        }
      ],
      "stateMutability": "view",
      "type": "function"
    },
    {
      "inputs": [
        {
          "internalType": "address",
          "name": "owner",
          "type": "address"
        },
        {
          "internalType": "address",
          "name": "spender",
          "type": "address"
        }
      ],
      "name": "allowance",
      "outputs": [
        {
          "internalType": "uint256",
          "name": "",
          "type": "uint256"
        }
      ],
      "stateMutability": "view",
      "type": "function"
    },
    {
      "inputs": [
        {
          "internalType": "address",
          "name": "spender",
          "type": "address"
        },
        {
          "internalType": "uint256",
          "name": "amount",
          "type": "uint256"
        }
      ],
      "name": "approve",
      "outputs": [
        {
          "internalType": "bool",
          "name": "",
          "type": "bool"
        }
      ],
      "stateMutability": "nonpayable",
      "type": "function"
    },
    {
      "inputs": [
        {
          "internalType": "address",
          "name": "owner",
          "type": "address"
        }
      ],
      "name": "balanceOf",
      "outputs": [
        {
          "internalType": "uint256",
          "name": "",
          "type": "uint256"
        }
      ],
      "stateMutability": "view",
      "type": "function"
    },
    {
      "inputs": [
        {
          "internalType": "address",
          "name": "owner",
          "type": "address"
        }
      ],
      "name": "balanceOfUnderlying",
      "outputs": [
        {
          "internalType": "uint256",
          "name": "",
          "type": "uint256"
        }
      ],
      "stateMutability": "nonpayable",
      "type": "function"
    },
    {
      "inputs": [
        {
          "internalType": "uint256",
          "name": "borrowAmount",
          "type": "uint256"
        }
      ],
      "name": "borrow",
      "outputs": [
        {
          "internalType": "uint256",
          "name": "",
          "type": "uint256"
        }
      ],
      "stateMutability": "nonpayable",
      "type": "function"
    },
    {
      "inputs": [
        {
          "internalType": "address",
          "name": "account",
          "type": "address"
        }
      ],
      "name": "borrowBalanceCurrent",
      "outputs": [
        {
          "internalType": "uint256",
          "name": "",
          "type": "uint256"
        }
      ],
      "stateMutability": "nonpayable",
      "type": "function"
    },
    {
      "inputs": [
        {
          "internalType": "address",
          "name": "account",
          "type": "address"
        }
      ],
      "name": "borrowBalanceStored",
      "outputs": [
        {
          "internalType": "uint256",
          "name": "",
          "type": "uint256"
        }
      ],
      "stateMutability": "view",
      "type": "function"
    },
    {
      "inputs": [],
      "name": "borrowIndex",
      "outputs": [
        {
          "internalType": "uint256",
          "name": "",
          "type": "uint256"
        }
      ],
      "stateMutability": "view",
      "type": "function"
    },
    {
      "inputs": [],
      "name": "borrowRatePerBlock",
      "outputs": [
        {
          "internalType": "uint256",
          "name": "",
          "type": "uint256"
        }
      ],
      "stateMutability": "view",
      "type": "function"
    },
    {
      "inputs": [],
      "name": "comptroller",
      "outputs": [
        {
          "internalType": "contract ComptrollerInterface",
          "name": "",
          "type": "address"
        }
      ],
      "stateMutability": "view",
      "type": "function"
    },
    {
      "inputs": [],
      "name": "decimals",
      "outputs": [
        {
          "internalType": "uint8",
          "name": "",
          "type": "uint8"
        }
      ],
      "stateMutability": "view",
      "type": "function"
    },
    {
      "inputs": [],
      "name": "exchangeRateCurrent",
      "outputs": [
        {
          "internalType": "uint256",
          "name": "",
          "type": "uint256"
        }
      ],
      "stateMutability": "nonpayable",
      "type": "function"
    },
    {
      "inputs": [],
      "name": "exchangeRateStored",
      "outputs": [
        {
          "internalType": "uint256",
          "name": "",
          "type": "uint256"
        }
      ],
      "stateMutability": "view",
      "type": "function"
    },
    {
      "inputs": [],
      "name": "feeSeizeShareMantissa",
      "outputs": [
        {
          "internalType": "uint256",
          "name": "",
          "type": "uint256"
        }
      ],
      "stateMutability": "view",
      "type": "function"
    },
    {
      "inputs": [],
      "name": "fuseAdmin",
      "outputs": [
        {
          "internalType": "address payable",
          "name": "",
          "type": "address"
        }
      ],
      "stateMutability": "view",
      "type": "function"
    },
    {
      "inputs": [],
      "name": "fuseFeeMantissa",
      "outputs": [
        {
          "internalType": "uint256",
          "name": "",
          "type": "uint256"
        }
      ],
      "stateMutability": "view",
      "type": "function"
    },
    {
      "inputs": [
        {
          "internalType": "address",
          "name": "account",
          "type": "address"
        }
      ],
      "name": "getAccountSnapshot",
      "outputs": [
        {
          "internalType": "uint256",
          "name": "",
          "type": "uint256"
        },
        {
          "internalType": "uint256",
          "name": "",
          "type": "uint256"
        },
        {
          "internalType": "uint256",
          "name": "",
          "type": "uint256"
        },
        {
          "internalType": "uint256",
          "name": "",
          "type": "uint256"
        }
      ],
      "stateMutability": "view",
      "type": "function"
    },
    {
      "inputs": [],
      "name": "getCash",
      "outputs": [
        {
          "internalType": "uint256",
          "name": "",
          "type": "uint256"
        }
      ],
      "stateMutability": "view",
      "type": "function"
    },
    {
      "inputs": [],
      "name": "implementation",
      "outputs": [
        {
          "internalType": "address",
          "name": "",
          "type": "address"
        }
      ],
      "stateMutability": "view",
      "type": "function"
    },
    {
      "inputs": [
        {
          "internalType": "address",
          "name": "underlying_",
          "type": "address"
        },
        {
          "internalType": "contract ComptrollerInterface",
          "name": "comptroller_",
          "type": "address"
        },
        {
          "internalType": "address payable",
          "name": "fuseAdmin_",
          "type": "address"
        },
        {
          "internalType": "contract InterestRateModel",
          "name": "interestRateModel_",
          "type": "address"
        },
        {
          "internalType": "string",
          "name": "name_",
          "type": "string"
        },
        {
          "internalType": "string",
          "name": "symbol_",
          "type": "string"
        },
        {
          "internalType": "uint256",
          "name": "reserveFactorMantissa_",
          "type": "uint256"
        },
        {
          "internalType": "uint256",
          "name": "adminFeeMantissa_",
          "type": "uint256"
        }
      ],
      "name": "initialize",
      "outputs": [],
      "stateMutability": "nonpayable",
      "type": "function"
    },
    {
      "inputs": [
        {
          "internalType": "contract ComptrollerInterface",
          "name": "comptroller_",
          "type": "address"
        },
        {
          "internalType": "address payable",
          "name": "fuseAdmin_",
          "type": "address"
        },
        {
          "internalType": "contract InterestRateModel",
          "name": "interestRateModel_",
          "type": "address"
        },
        {
          "internalType": "uint256",
          "name": "initialExchangeRateMantissa_",
          "type": "uint256"
        },
        {
          "internalType": "string",
          "name": "name_",
          "type": "string"
        },
        {
          "internalType": "string",
          "name": "symbol_",
          "type": "string"
        },
        {
          "internalType": "uint8",
          "name": "decimals_",
          "type": "uint8"
        },
        {
          "internalType": "uint256",
          "name": "reserveFactorMantissa_",
          "type": "uint256"
        },
        {
          "internalType": "uint256",
          "name": "adminFeeMantissa_",
          "type": "uint256"
        }
      ],
      "name": "initialize",
      "outputs": [],
      "stateMutability": "nonpayable",
      "type": "function"
    },
    {
      "inputs": [],
      "name": "interestRateModel",
      "outputs": [
        {
          "internalType": "contract InterestRateModel",
          "name": "",
          "type": "address"
        }
      ],
      "stateMutability": "view",
      "type": "function"
    },
    {
      "inputs": [],
      "name": "isCEther",
      "outputs": [
        {
          "internalType": "bool",
          "name": "",
          "type": "bool"
        }
      ],
      "stateMutability": "nonpayable",
      "type": "function"
    },
    {
      "inputs": [],
      "name": "isCToken",
      "outputs": [
        {
          "internalType": "bool",
          "name": "",
          "type": "bool"
        }
      ],
      "stateMutability": "nonpayable",
      "type": "function"
    },
    {
      "inputs": [
        {
          "internalType": "address",
          "name": "borrower",
          "type": "address"
        },
        {
          "internalType": "uint256",
          "name": "repayAmount",
          "type": "uint256"
        },
        {
          "internalType": "contract CTokenInterface",
          "name": "cTokenCollateral",
          "type": "address"
        }
      ],
      "name": "liquidateBorrow",
      "outputs": [
        {
          "internalType": "uint256",
          "name": "",
          "type": "uint256"
        }
      ],
      "stateMutability": "nonpayable",
      "type": "function"
    },
    {
      "inputs": [
        {
          "internalType": "uint256",
          "name": "mintAmount",
          "type": "uint256"
        }
      ],
      "name": "mint",
      "outputs": [
        {
          "internalType": "uint256",
          "name": "",
          "type": "uint256"
        }
      ],
      "stateMutability": "nonpayable",
      "type": "function"
    },
    {
      "inputs": [],
      "name": "name",
      "outputs": [
        {
          "internalType": "string",
          "name": "",
          "type": "string"
        }
      ],
      "stateMutability": "view",
      "type": "function"
    },
    {
      "inputs": [],
      "name": "protocolSeizeShareMantissa",
      "outputs": [
        {
          "internalType": "uint256",
          "name": "",
          "type": "uint256"
        }
      ],
      "stateMutability": "view",
      "type": "function"
    },
    {
      "inputs": [
        {
          "internalType": "uint256",
          "name": "redeemTokens",
          "type": "uint256"
        }
      ],
      "name": "redeem",
      "outputs": [
        {
          "internalType": "uint256",
          "name": "",
          "type": "uint256"
        }
      ],
      "stateMutability": "nonpayable",
      "type": "function"
    },
    {
      "inputs": [
        {
          "internalType": "uint256",
          "name": "redeemAmount",
          "type": "uint256"
        }
      ],
      "name": "redeemUnderlying",
      "outputs": [
        {
          "internalType": "uint256",
          "name": "",
          "type": "uint256"
        }
      ],
      "stateMutability": "nonpayable",
      "type": "function"
    },
    {
      "inputs": [
        {
          "internalType": "uint256",
          "name": "repayAmount",
          "type": "uint256"
        }
      ],
      "name": "repayBorrow",
      "outputs": [
        {
          "internalType": "uint256",
          "name": "",
          "type": "uint256"
        }
      ],
      "stateMutability": "nonpayable",
      "type": "function"
    },
    {
      "inputs": [
        {
          "internalType": "address",
          "name": "borrower",
          "type": "address"
        },
        {
          "internalType": "uint256",
          "name": "repayAmount",
          "type": "uint256"
        }
      ],
      "name": "repayBorrowBehalf",
      "outputs": [
        {
          "internalType": "uint256",
          "name": "",
          "type": "uint256"
        }
      ],
      "stateMutability": "nonpayable",
      "type": "function"
    },
    {
      "inputs": [],
      "name": "reserveFactorMantissa",
      "outputs": [
        {
          "internalType": "uint256",
          "name": "",
          "type": "uint256"
        }
      ],
      "stateMutability": "view",
      "type": "function"
    },
    {
      "inputs": [
        {
          "internalType": "address",
          "name": "liquidator",
          "type": "address"
        },
        {
          "internalType": "address",
          "name": "borrower",
          "type": "address"
        },
        {
          "internalType": "uint256",
          "name": "seizeTokens",
          "type": "uint256"
        }
      ],
      "name": "seize",
      "outputs": [
        {
          "internalType": "uint256",
          "name": "",
          "type": "uint256"
        }
      ],
      "stateMutability": "nonpayable",
      "type": "function"
    },
    {
      "inputs": [],
      "name": "supplyRatePerBlock",
      "outputs": [
        {
          "internalType": "uint256",
          "name": "",
          "type": "uint256"
        }
      ],
      "stateMutability": "view",
      "type": "function"
    },
    {
      "inputs": [],
      "name": "symbol",
      "outputs": [
        {
          "internalType": "string",
          "name": "",
          "type": "string"
        }
      ],
      "stateMutability": "view",
      "type": "function"
    },
    {
      "inputs": [],
      "name": "totalAdminFees",
      "outputs": [
        {
          "internalType": "uint256",
          "name": "",
          "type": "uint256"
        }
      ],
      "stateMutability": "view",
      "type": "function"
    },
    {
      "inputs": [],
      "name": "totalBorrows",
      "outputs": [
        {
          "internalType": "uint256",
          "name": "",
          "type": "uint256"
        }
      ],
      "stateMutability": "view",
      "type": "function"
    },
    {
      "inputs": [],
      "name": "totalBorrowsCurrent",
      "outputs": [
        {
          "internalType": "uint256",
          "name": "",
          "type": "uint256"
        }
      ],
      "stateMutability": "nonpayable",
      "type": "function"
    },
    {
      "inputs": [],
      "name": "totalFuseFees",
      "outputs": [
        {
          "internalType": "uint256",
          "name": "",
          "type": "uint256"
        }
      ],
      "stateMutability": "view",
      "type": "function"
    },
    {
      "inputs": [],
      "name": "totalReserves",
      "outputs": [
        {
          "internalType": "uint256",
          "name": "",
          "type": "uint256"
        }
      ],
      "stateMutability": "view",
      "type": "function"
    },
    {
      "inputs": [],
      "name": "totalSupply",
      "outputs": [
        {
          "internalType": "uint256",
          "name": "",
          "type": "uint256"
        }
      ],
      "stateMutability": "view",
      "type": "function"
    },
    {
      "inputs": [
        {
          "internalType": "address",
          "name": "dst",
          "type": "address"
        },
        {
          "internalType": "uint256",
          "name": "amount",
          "type": "uint256"
        }
      ],
      "name": "transfer",
      "outputs": [
        {
          "internalType": "bool",
          "name": "",
          "type": "bool"
        }
      ],
      "stateMutability": "nonpayable",
      "type": "function"
    },
    {
      "inputs": [
        {
          "internalType": "address",
          "name": "src",
          "type": "address"
        },
        {
          "internalType": "address",
          "name": "dst",
          "type": "address"
        },
        {
          "internalType": "uint256",
          "name": "amount",
          "type": "uint256"
        }
      ],
      "name": "transferFrom",
      "outputs": [
        {
          "internalType": "bool",
          "name": "",
          "type": "bool"
        }
      ],
      "stateMutability": "nonpayable",
      "type": "function"
    },
    {
      "inputs": [],
      "name": "underlying",
      "outputs": [
        {
          "internalType": "address",
          "name": "",
          "type": "address"
        }
      ],
      "stateMutability": "view",
      "type": "function"
    }
  ],
  "transactionHash": "0xf359ad88ed564d2120f2cbda9460c129f002ddb3c0df5b5c662f2bb347fc3ecc",
  "args": [],
  "numDeployments": 4,
  "bytecode": {
    "object": "0x608060405234801561001057600080fd5b50615c7a80620000216000396000f3fe60806040526004361061029c5760003560e01c806306db3ecd146102a157806306fdde03146102c3578063095ea7b3146102ee5780630e7527021461031e57806315761d511461034c578063173b99041461037957806317bfdfbc1461038f57806318160ddd146103af578063182df0f5146103c55780631db78944146103da578063219ef65c146103e257806323b872dd146104025780632608f81814610422578063313ce5671461044257806334154d4c1461046e5780633af9e6691461048e5780633b1d21a2146104ae57806347bd3718146104c357806350d85b73146104d957806356e67728146104f95780635c60da1b146105195780635fe3b56714610539578063601a0bf11461055957806361feacff146105795780636752e7021461058f5780636c540baf146105aa5780636f307dc3146105c057806370a08231146105e057806373acee98146106165780637f1e06be1461062b578063852a12e31461064b5780638d02d9a11461066b5780638f840ddd1461068157806391dd36c61461069757806395d89b41146106b757806395dd9193146106cc578063a03dce8d146106ec578063a0712d681461070c578063a6afed951461072c578063a7b820df14610741578063a9059cbb14610761578063aa5af0fd14610781578063ac784ddc14610797578063ae9d70b0146107ab578063b2a02ff1146107c0578063bd6d894d146107e0578063be99f119146107f5578063c37f68e214610811578063c5ebeaec14610841578063db006a7514610861578063dbfe7c1914610881578063dc028ab114610897578063dd62ed3e146108ad578063f2b3abbd146108f3578063f3fdb15a14610913578063f5e3c46214610933578063f8f9da2814610953578063fca7820b14610968578063fe9c44ae14610988575b600080fd5b3480156102ad57600080fd5b506102c16102bc3660046153e6565b61099c565b005b3480156102cf57600080fd5b506102d8610aaa565b6040516102e591906154ff565b60405180910390f35b3480156102fa57600080fd5b5061030e610309366004615512565b610b38565b60405190151581526020016102e5565b34801561032a57600080fd5b5061033e61033936600461553e565b610ba8565b6040519081526020016102e5565b34801561035857600080fd5b5060015461036c906001600160a01b031681565b6040516102e59190615557565b34801561038557600080fd5b5061033e600b5481565b34801561039b57600080fd5b5061033e6103aa36600461556b565b610bbc565b3480156103bb57600080fd5b5061033e60125481565b3480156103d157600080fd5b5061033e610c13565b6102c1610ca4565b3480156103ee57600080fd5b506102c16103fd3660046155a2565b610dda565b34801561040e57600080fd5b5061030e61041d366004615669565b611101565b34801561042e57600080fd5b5061033e61043d366004615512565b611127565b34801561044e57600080fd5b5060055461045c9060ff1681565b60405160ff90911681526020016102e5565b34801561047a57600080fd5b506102c16104893660046156eb565b61113d565b34801561049a57600080fd5b5061033e6104a936600461556b565b6111a4565b3480156104ba57600080fd5b5061033e611254565b3480156104cf57600080fd5b5061033e600e5481565b3480156104e557600080fd5b506102c16104f4366004615764565b611263565b34801561050557600080fd5b506102c16105143660046157bc565b6112e7565b34801561052557600080fd5b5060005461036c906001600160a01b031681565b34801561054557600080fd5b5060065461036c906001600160a01b031681565b34801561056557600080fd5b5061033e61057436600461553e565b611340565b34801561058557600080fd5b5061033e60105481565b34801561059b57600080fd5b5061033e666379da05b6000081565b3480156105b657600080fd5b5061033e600c5481565b3480156105cc57600080fd5b5060165461036c906001600160a01b031681565b3480156105ec57600080fd5b5061033e6105fb36600461556b565b6001600160a01b031660009081526013602052604090205490565b34801561062257600080fd5b5061033e611397565b34801561063757600080fd5b506102c161064636600461556b565b6113dc565b34801561065757600080fd5b5061033e61066636600461553e565b6114a4565b34801561067757600080fd5b5061033e60095481565b34801561068d57600080fd5b5061033e600f5481565b3480156106a357600080fd5b5061033e6106b236600461553e565b6114af565b3480156106c357600080fd5b506102d86114f2565b3480156106d857600080fd5b5061033e6106e736600461556b565b6114ff565b3480156106f857600080fd5b5061033e61070736600461553e565b61159a565b34801561071857600080fd5b5061033e61072736600461553e565b6115dd565b34801561073857600080fd5b5061033e6115e9565b34801561074d57600080fd5b5061033e61075c36600461553e565b611791565b34801561076d57600080fd5b5061030e61077c366004615512565b6117d4565b34801561078d57600080fd5b5061033e600d5481565b3480156107a357600080fd5b50600061030e565b3480156107b757600080fd5b5061033e611801565b3480156107cc57600080fd5b5061033e6107db366004615669565b6118b1565b3480156107ec57600080fd5b5061033e6118d5565b34801561080157600080fd5b5061033e67016345785d8a000081565b34801561081d57600080fd5b5061083161082c36600461556b565b61191b565b6040516102e594939291906157fd565b34801561084d57600080fd5b5061033e61085c36600461553e565b6119bc565b34801561086d57600080fd5b5061033e61087c36600461553e565b6119c7565b34801561088d57600080fd5b5061033e600a5481565b3480156108a357600080fd5b5061033e60115481565b3480156108b957600080fd5b5061033e6108c8366004615818565b6001600160a01b03918216600090815260146020908152604080832093909416825291909152205490565b3480156108ff57600080fd5b5061033e61090e36600461556b565b6119d2565b34801561091f57600080fd5b5060075461036c906001600160a01b031681565b34801561093f57600080fd5b5061033e61094e366004615851565b611a0a565b34801561095f57600080fd5b5061033e611a22565b34801561097457600080fd5b5061033e61098336600461553e565b611a73565b34801561099457600080fd5b50600161030e565b60006702c68af0bb14000090506000896001600160a01b031663313ce5676040518163ffffffff1660e01b8152600401602060405180830381865afa1580156109e9573d6000803e3d6000fd5b505050506040513d601f19601f82011682018060405250810190610a0d9190615893565b9050610a20898989858a8a878b8b610dda565b601680546001600160a01b0319166001600160a01b038c16908117909155604080516318160ddd60e01b815290516318160ddd916004808201926020929091908290030181865afa158015610a79573d6000803e3d6000fd5b505050506040513d601f19601f82011682018060405250810190610a9d91906158b0565b5050505050505050505050565b60038054610ab7906158c9565b80601f0160208091040260200160405190810160405280929190818152602001828054610ae3906158c9565b8015610b305780601f10610b0557610100808354040283529160200191610b30565b820191906000526020600020905b815481529060010190602001808311610b1357829003601f168201915b505050505081565b3360008181526014602090815260408083206001600160a01b03871680855292528083208590555191929182907f8c5be1e5ebec7d5bd14f71427d1e84f3dd0314c0f7b2291e5b200ac8c7c3b92590610b949087815260200190565b60405180910390a360019150505b92915050565b600080610bb483611ab6565b509392505050565b600080610bc881611b1e565b6000610bd26115e9565b14610bf85760405162461bcd60e51b8152600401610bef90615914565b60405180910390fd5b610c01836114ff565b91505b610c0d81611be2565b50919050565b6000806000610c20611c4d565b90925090506000826003811115610c3957610c396158fe565b14610ba25760405162461bcd60e51b815260206004820152603560248201527f65786368616e67655261746553746f7265643a2065786368616e67655261746560448201527414dd1bdc9959125b9d195c9b985b0819985a5b1959605a1b6064820152608401610bef565b333014801590610d265750600660009054906101000a90046001600160a01b03166001600160a01b031663dd5cd22c6040518163ffffffff1660e01b8152600401602060405180830381865afa158015610d02573d6000803e3d6000fd5b505050506040513d601f19601f82011682018060405250810190610d269190615944565b15610dd857600154600080546040516345cc970560e01b81529192839283926001600160a01b03928316926345cc970592610d679290911690600401615557565b600060405180830381865afa158015610d84573d6000803e3d6000fd5b505050506040513d6000823e601f3d908101601f19168201604052610dac9190810190615961565b60005492955090935091506001600160a01b03808516911614610dd457610dd4838383611d0c565b5050505b565b336001600160a01b03891614610e445760405162461bcd60e51b815260206004820152602960248201527f6f6e6c7920467573652061646d696e206d617920696e697469616c697a6520746044820152681a19481b585c9ad95d60ba1b6064820152608401610bef565b600c54158015610e545750600d54155b610eac5760405162461bcd60e51b815260206004820152602360248201527f6d61726b6574206d6179206f6e6c7920626520696e697469616c697a6564206f6044820152626e636560e81b6064820152608401610bef565b600180546001600160a01b0319166001600160a01b038a16179055600886905585610f325760405162461bcd60e51b815260206004820152603060248201527f696e697469616c2065786368616e67652072617465206d75737420626520677260448201526f32b0ba32b9103a3430b7103d32b9379760811b6064820152608401610bef565b6000610f3d8a611e8f565b90508015610f8a5760405162461bcd60e51b815260206004820152601a6024820152791cd95d1d1a5b99c818dbdb5c1d1c9bdb1b195c8819985a5b195960321b6044820152606401610bef565b43600c55670de0b6b3a7640000600d55610fa388611f83565b90508015610ffe5760405162461bcd60e51b815260206004820152602260248201527f73657474696e6720696e7465726573742072617465206d6f64656c206661696c604482015261195960f21b6064820152608401610bef565b85516110119060039060208901906151a4565b5084516110259060049060208801906151a4565b506005805460ff191660ff861617905561103e836121bd565b9050801561108e5760405162461bcd60e51b815260206004820152601d60248201527f73657474696e67207265736572766520666163746f72206661696c65640000006044820152606401610bef565b6110978261225c565b905080156110e25760405162461bcd60e51b81526020600482015260186024820152771cd95d1d1a5b99c818591b5a5b881999594819985a5b195960421b6044820152606401610bef565b50506002805460ff60b01b1916600160b01b1790555050505050505050565b60008061110d81611b1e565b600061111b33878787612376565b149150610bb481611be2565b6000806111348484612609565b50949350505050565b611145612673565b6111845760405162461bcd60e51b815260206004820152601060248201526f31b0b63632b9103737ba1030b236b4b760811b6044820152606401610bef565b61119060038585615224565b5061119d60048383615224565b5050505050565b60008060405180602001604052806111ba6118d5565b90526001600160a01b0384166000908152601360205260408120549192509081906111e69084906127de565b909250905060008260038111156111ff576111ff6158fe565b1461124c5760405162461bcd60e51b815260206004820152601f60248201527f62616c616e636520636f756c64206e6f742062652063616c63756c61746564006044820152606401610bef565b949350505050565b600061125e612831565b905090565b61126b612673565b6112a05760405162461bcd60e51b815260206004820152600660248201526510b0b236b4b760d11b6044820152606401610bef565b6112e1848484848080601f016020809104026020016040519081016040528093929190818152602001838380828437600092019190915250611d0c92505050565b50505050565b333014806112f857506112f8612673565b61132c5760405162461bcd60e51b815260206004820152600560248201526410b9b2b63360d91b6044820152606401610bef565b5050600280546001600160b01b0319169055565b60008061134c81611b1e565b60006113566115e9565b905080156113825761137a816011811115611373576113736158fe565b603b6128a5565b925050610c04565b61138b84612905565b925050610c0d81611be2565b6000806113a381611b1e565b60006113ad6115e9565b146113ca5760405162461bcd60e51b8152600401610bef90615914565b600e5491506113d881611be2565b5090565b6113e4612673565b6114465760405162461bcd60e51b815260206004820152602d60248201527f6f6e6c79207468652061646d696e206d6179207365742074686520636f6d702d60448201526c6c696b652064656c656761746560981b6064820152608401610bef565b6016546040516317066a5760e21b81526001600160a01b0390911690635c19a95c90611476908490600401615557565b600060405180830381600087803b15801561149057600080fd5b505af115801561119d573d6000803e3d6000fd5b6000610ba2826129b6565b6000806114bb81611b1e565b60006114c56115e9565b905080156114e95761137a8160118111156114e2576114e26158fe565b60526128a5565b61138b8461225c565b60048054610ab7906158c9565b600080600061150d846129fc565b90925090506000826003811115611526576115266158fe565b146115935760405162461bcd60e51b815260206004820152603760248201527f626f72726f7742616c616e636553746f7265643a20626f72726f7742616c616e60448201527618d954dd1bdc9959125b9d195c9b985b0819985a5b1959604a1b6064820152608401610bef565b9392505050565b6000806115a681611b1e565b60006115b06115e9565b905080156115d45761137a8160118111156115cd576115cd6158fe565b60336128a5565b61138b84612ab5565b600080610bb483612b28565b600c5460009043908114156116015760005b91505090565b600061160b612831565b90506000600760009054906101000a90046001600160a01b03166001600160a01b03166315f2405383600e54611650600f5461164b601054601154612b6e565b612b6e565b6040518463ffffffff1660e01b815260040161166e93929190615a00565b602060405180830381865afa15801561168b573d6000803e3d6000fd5b505050506040513d601f19601f820116820180604052508101906116af91906158b0565b905065048c273950008111156117065760405162461bcd60e51b815260206004820152601c60248201527b0c4dee4e4deee40e4c2e8ca40d2e640c2c4e6eae4c8d8f240d0d2ced60231b6044820152606401610bef565b60008061171585600c54612ba4565b9092509050600082600381111561172e5761172e6158fe565b1461177b5760405162461bcd60e51b815260206004820152601f60248201527f636f756c64206e6f742063616c63756c61746520626c6f636b2064656c7461006044820152606401610bef565b61178785858584612bcf565b9550505050505090565b60008061179d81611b1e565b60006117a76115e9565b905080156117cb5761137a8160118111156117c4576117c46158fe565b60376128a5565b61138b84612cf1565b6000806117e081611b1e565b60006117ee33338787612376565b1491506117fa81611be2565b5092915050565b6007546000906001600160a01b031663b816881661181d612831565b600e54611834600f5461164b601054601154612b6e565b600954600a54600b546118479190615a2c565b6118519190615a2c565b6040518563ffffffff1660e01b815260040161187094939291906157fd565b602060405180830381865afa15801561188d573d6000803e3d6000fd5b505050506040513d601f19601f8201168201806040525081019061125e91906158b0565b600060016118be81611b1e565b6118ca33868686612dcf565b9150610bb481611be2565b6000806118e181611b1e565b60006118eb6115e9565b146119085760405162461bcd60e51b8152600401610bef90615914565b611910610c13565b91506113d881611be2565b6001600160a01b038116600090815260136020526040812054819081908190818080611946896129fc565b93509050600081600381111561195e5761195e6158fe565b1461197c5760095b60008060009750975097509750505050506119b5565b611984611c4d565b92509050600081600381111561199c5761199c6158fe565b146119a8576009611966565b5060009650919450925090505b9193509193565b6000610ba2826132b6565b6000610ba2826132fa565b6000806119dd6115e9565b90508015611a01576115938160118111156119fa576119fa6158fe565b604b6128a5565b61159383611f83565b600080611a18858585613339565b5095945050505050565b6007546000906001600160a01b03166315f24053611a3e612831565b600e54611a55600f5461164b601054601154612b6e565b6040518463ffffffff1660e01b815260040161187093929190615a00565b600080611a7f81611b1e565b6000611a896115e9565b90508015611aad5761137a816011811115611aa657611aa66158fe565b60596128a5565b61138b846121bd565b6000806000611ac481611b1e565b6000611ace6115e9565b90508015611afe57611af2816011811115611aeb57611aeb6158fe565b60416128a5565b60009350935050611b0f565b611b0933338761342d565b93509350505b611b1881611be2565b50915091565b600254600160b01b900460ff16611b645760405162461bcd60e51b815260206004820152600a6024820152691c994b595b9d195c995960b21b6044820152606401610bef565b80611bd257600660009054906101000a90046001600160a01b03166001600160a01b031663c90c20b16040518163ffffffff1660e01b8152600401600060405180830381600087803b158015611bb957600080fd5b505af1158015611bcd573d6000803e3d6000fd5b505050505b506002805460ff60b01b19169055565b6002805460ff60b01b1916600160b01b17905580611c4a57600660009054906101000a90046001600160a01b03166001600160a01b031663632e51426040518163ffffffff1660e01b8152600401600060405180830381600087803b15801561149057600080fd5b50565b601254600090819080611c67575050600854600092909150565b6000611c71612831565b90506000611c7d615298565b6000611c9f84600e54611c9a600f5461164b601054601154612b6e565b613836565b935090506000816003811115611cb757611cb76158fe565b14611cc9579660009650945050505050565b611cd38386613888565b925090506000816003811115611ceb57611ceb6158fe565b14611cfd579660009650945050505050565b50516000969095509350505050565b6001546000546040516338e6a07360e11b81526001600160a01b039182166004820152858216602482015284151560448201529116906371cd40e690606401602060405180830381865afa158015611d68573d6000803e3d6000fd5b505050506040513d601f19601f82011682018060405250810190611d8c9190615944565b611dc05760405162461bcd60e51b8152602060048201526005602482015264085a5b5c1b60da1b6044820152606401610bef565b600080546001600160a01b038581166001600160a01b0319831617909255604051911690611e43903090611df89085906024016154ff565b60408051601f19818403018152918152602080830180516001600160e01b0316630adccee560e31b17905281518083019092526007825266216265636f6d6560c81b90820152613945565b506000546040517fd604de94d45953f9138079ec1b82d533cb2160c906d1076d1f7ed54befbca97a91611e819184916001600160a01b031690615a44565b60405180910390a150505050565b600080600660009054906101000a90046001600160a01b03169050826001600160a01b0316627e3dd26040518163ffffffff1660e01b8152600401602060405180830381865afa158015611ee7573d6000803e3d6000fd5b505050506040513d601f19601f82011682018060405250810190611f0b9190615944565b611f275760405162461bcd60e51b8152600401610bef90615a5e565b600680546001600160a01b0319166001600160a01b0385161790556040517f7ac369dbd14fa5ea3f473ed67cc9d598964a77501540ba6751eb0b3decf5870d90611f749083908690615a44565b60405180910390a16000611593565b600080611f8e612673565b611f9e576115936001604d6128a5565b43600c5414611fb357611593600a604c6128a5565b600760009054906101000a90046001600160a01b03169050826001600160a01b0316632191f92a6040518163ffffffff1660e01b8152600401602060405180830381865afa158015612009573d6000803e3d6000fd5b505050506040513d601f19601f8201168201806040525081019061202d9190615944565b6120495760405162461bcd60e51b8152600401610bef90615a5e565b600780546001600160a01b0319166001600160a01b0385161790556040517fedffc32e068c7c95dfd4bdfd5c4d939a084d6b11c4199eac8436ed234d72f926906120969083908690615a44565b60405180910390a16001600160a01b038116156121315760408051600481526024810182526020810180516001600160e01b0316636cc1140b60e11b17905290516001600160a01b038316916120eb91615a94565b6000604051808303816000865af19150503d8060008114612128576040519150601f19603f3d011682016040523d82523d6000602084013e61212d565b606091505b5050505b60408051600481526024810182526020810180516001600160e01b031663742a137b60e11b17905290516001600160a01b0385169161216f91615a94565b6000604051808303816000865af19150503d80600081146121ac576040519150601f19603f3d011682016040523d82523d6000602084013e6121b1565b606091505b50600091506115939050565b60006121c7612673565b6121d757610ba26001605a6128a5565b43600c54146121ec57610ba2600a605b6128a5565b670de0b6b3a764000061220c61220484600954612b6e565b600a54612b6e565b111561221e57610ba26002605c6128a5565b600b80549083905560408051828152602081018590527faaa68312e2ea9d50e16af5068410ab56e1a1fd06037b1a35664812c30f8214609101611f74565b600043600c541461227357610ba2600a60546128a5565b6000198214156122835760095491505b600061228d6139e1565b9050670de0b6b3a76400006122ad6122a7600b5486612b6e565b83612b6e565b11156122bf57611593600260556128a5565b8260095414612323576122d0612673565b6122e057611593600160536128a5565b600980549084905560408051828152602081018690527fcdd0b588250e1398549f79cfdb8217c186688822905d6715b0834ea1c865594a910160405180910390a1505b80600a541461236f57600a80549082905560408051828152602081018490527f92eef861b6533b7d3417f39c2ad7b460eed4e88a32fa3604f30e718b7602e7dc910160405180910390a1505b6000611593565b6006546040516317b9b84b60e31b815260009182916001600160a01b039091169063bdcdc258906123b1903090899089908990600401615ab0565b6020604051808303816000875af11580156123d0573d6000803e3d6000fd5b505050506040513d601f19601f820116820180604052508101906123f491906158b0565b90508015612411576124096003605d83613a2b565b91505061124c565b836001600160a01b0316856001600160a01b03161415612437576124096002605e6128a5565b6000856001600160a01b0316876001600160a01b0316141561245c5750600019612484565b506001600160a01b038086166000908152601460209081526040808320938a16835292905220545b6000806000806124948589612ba4565b909450925060008460038111156124ad576124ad6158fe565b146124cb576124be6009605e6128a5565b965050505050505061124c565b6001600160a01b038a166000908152601360205260409020546124ee9089612ba4565b90945091506000846003811115612507576125076158fe565b14612518576124be6009605f6128a5565b6001600160a01b03891660009081526013602052604090205461253b9089613ab4565b90945090506000846003811115612554576125546158fe565b14612565576124be600960606128a5565b6001600160a01b03808b16600090815260136020526040808220859055918b1681522081905560001985146125bd576001600160a01b03808b166000908152601460209081526040808320938f168352929052208390555b886001600160a01b03168a6001600160a01b0316600080516020615c4e8339815191528a6040516125f091815260200190565b60405180910390a35060009a9950505050505050505050565b600080600061261781611b1e565b60006126216115e9565b905080156126515761264581601181111561263e5761263e6158fe565b60406128a5565b60009350935050612662565b61265c33878761342d565b93509350505b61266b81611be2565b509250929050565b600654604080516303e1469160e61b815290516000926001600160a01b031691829163f851a440916004808201926020929091908290030181865afa1580156126c0573d6000803e3d6000fd5b505050506040513d601f19601f820116820180604052508101906126e49190615ada565b6001600160a01b0316336001600160a01b03161480156127615750806001600160a01b0316630a755ec26040518163ffffffff1660e01b8152600401602060405180830381865afa15801561273d573d6000803e3d6000fd5b505050506040513d601f19601f820116820180604052508101906127619190615944565b806115fb57506001546001600160a01b0316331480156115fb5750806001600160a01b0316632f1069ba6040518163ffffffff1660e01b8152600401602060405180830381865afa1580156127ba573d6000803e3d6000fd5b505050506040513d601f19601f820116820180604052508101906115fb9190615944565b6000806000806127ee8686613ae4565b90925090506000826003811115612807576128076158fe565b14612818575091506000905061282a565b600061282382613b52565b9350935050505b9250929050565b6016546040516370a0823160e01b81526000916001600160a01b03169081906370a0823190612864903090600401615557565b602060405180830381865afa158015612881573d6000803e3d6000fd5b505050506040513d601f19601f820116820180604052508101906115fb91906158b0565b6000600080516020615c2e8339815191528360118111156128c8576128c86158fe565b8360638111156128da576128da6158fe565b60006040516128eb93929190615a00565b60405180910390a1826011811115611593576115936158fe565b600080612910612673565b612920576115936001603c6128a5565b43600c541461293557611593600a603e6128a5565b8261293e612831565b101561295057611593600e603d6128a5565b600f54831115612966576115936002603f6128a5565b612972600f5484613b6a565b600f81905590506129833384613ba4565b7f3bad0c59cf2f06e7314077049f48a93578cd16f5ef92329f1dab1420a99c177e338483604051611f7493929190615af7565b6000806129c281611b1e565b60006129cc6115e9565b905080156129f05761137a8160118111156129e9576129e96158fe565b602a6128a5565b61138b33600086613c30565b6001600160a01b038116600090815260156020526040812080548291829182918291612a315750600096879650945050505050565b612a418160000154600d5461416f565b90945092506000846003811115612a5a57612a5a6158fe565b14612a6d57509195600095509350505050565b612a7b8382600101546141b9565b90945091506000846003811115612a9457612a946158fe565b14612aa757509195600095509350505050565b506000969095509350505050565b60008043600c5414612acd57611593600a60356128a5565b82612ad6612831565b1015612ae857611593600e60346128a5565b601154831115612afe57611593600260366128a5565b612b0a60115484613b6a565b601181905560015490915061236f906001600160a01b031684613ba4565b6000806000612b3681611b1e565b6000612b406115e9565b90508015612b6457611af2816011811115612b5d57612b5d6158fe565b60206128a5565b611b0933866141e4565b60006115938383604051806040016040528060118152602001706164646974696f6e206f766572666c6f7760781b81525061455b565b600080838311612bc3576000612bba8486615b18565b9150915061282a565b5060039050600061282a565b600080612bea6040518060200160405280868152508461458c565b90506000612bfa82600e546145b6565b90506000612c0a82600e54612b6e565b90506000612c2b6040518060200160405280600b5481525084600f546145ce565b90506000612c4c6040518060200160405280600a54815250856011546145ce565b90506000612c6d6040518060200160405280600954815250866010546145ce565b90506000612c8087600d54600d546145ce565b600c8d9055600d819055600e869055600f859055601184905560108390556040519091507f4dec04e750ca11537cabcd8a9eab06494de08da3735bc8871cd41250e190bc0490612cd7908d90899085908a906157fd565b60405180910390a160009c9b505050505050505050505050565b60008043600c5414612d0957611593600a60396128a5565b82612d12612831565b1015612d2457611593600e60386128a5565b601054831115612d3a576115936002603a6128a5565b612d4660105484613b6a565b90508060108190555061236f600660009054906101000a90046001600160a01b03166001600160a01b031663f851a4406040518163ffffffff1660e01b8152600401602060405180830381865afa158015612da5573d6000803e3d6000fd5b505050506040513d601f19601f82011682018060405250810190612dc99190615ada565b84613ba4565b60065460405163d02f735160e01b815260009182916001600160a01b039091169063d02f735190612e0c9030908a908a908a908a90600401615b2f565b6020604051808303816000875af1158015612e2b573d6000803e3d6000fd5b505050506040513d601f19601f82011682018060405250810190612e4f91906158b0565b90508015612e64576124096003601d83613a2b565b846001600160a01b0316846001600160a01b03161415612e8a576124096006601e6128a5565b612eef604080516101808101909152806000815260200160008152602001600081526020016000815260200160008152602001600081526020016000815260200160008152602001600081526020016000815260200160008152602001600081525090565b6001600160a01b038516600090815260136020526040902054612f129085612ba4565b6020830181905282826003811115612f2c57612f2c6158fe565b6003811115612f3d57612f3d6158fe565b9052506000905081516003811115612f5757612f576158fe565b14612f8757612f7e6009601c83600001516003811115612f7957612f796158fe565b613a2b565b9250505061124c565b612fa6846040518060200160405280666379da05b600008152506145ef565b6080820152604080516020810190915267016345785d8a00008152612fcc9085906145ef565b6101408201526080810151612ff190612fe6908690613b6a565b826101400151613b6a565b6060820152612ffe611c4d565b60c0830181905282826003811115613018576130186158fe565b6003811115613029576130296158fe565b9052506000905081516003811115613043576130436158fe565b1461308b5760405162461bcd60e51b815260206004820152601860248201527732bc31b430b733b2903930ba329036b0ba341032b93937b960411b6044820152606401610bef565b6130ab60405180602001604052808360c0015181525082608001516145b6565b60a0820152604080516020810190915260c082015181526101408201516130d291906145b6565b610160820152600f5460a08201516130ea9190612b6e565b60e0820152601254608082015161310491612fe691613b6a565b61012082015260115461016082015161311d9190612b6e565b6101008201526001600160a01b038616600090815260136020526040902054606082015161314b9190613ab4565b6040830181905282826003811115613165576131656158fe565b6003811115613176576131766158fe565b9052506000905081516003811115613190576131906158fe565b146131b257612f7e6009601b83600001516003811115612f7957612f796158fe565b60e0810151600f556101208101516012556101008101516011556020808201516001600160a01b0387811660008181526013855260408082209490945583860151928b1680825290849020929092556060850151925192835290929091600080516020615c4e833981519152910160405180910390a3306001600160a01b0316856001600160a01b0316600080516020615c4e833981519152836080015160405161325f91815260200190565b60405180910390a360a081015160e08201516040517fa91e67c5ea634cd43a12c5a482724b03de01e85ca68702a53d0c2f45cb7c1dc5926132a1923092615af7565b60405180910390a16000979650505050505050565b6000806132c281611b1e565b60006132cc6115e9565b905080156132f05761137a8160118111156132e9576132e96158fe565b600a6128a5565b61138b3385614612565b60008061330681611b1e565b60006133106115e9565b9050801561332d5761137a8160118111156129e9576129e96158fe565b61138b33856000613c30565b600080600061334781611b1e565b60006133516115e9565b905080156133815761337581601181111561336e5761336e6158fe565b60116128a5565b6000935093505061341b565b846001600160a01b031663a6afed956040518163ffffffff1660e01b81526004016020604051808303816000875af11580156133c1573d6000803e3d6000fd5b505050506040513d601f19601f820116820180604052508101906133e591906158b0565b9050801561340957613375816011811115613402576134026158fe565b60126128a5565b613415338888886149a4565b93509350505b61342481611be2565b50935093915050565b600654604051631200453160e11b8152600091829182916001600160a01b0316906324008a62906134689030908a908a908a90600401615ab0565b6020604051808303816000875af1158015613487573d6000803e3d6000fd5b505050506040513d601f19601f820116820180604052508101906134ab91906158b0565b905080156134cc576134c06003604383613a2b565b6000925092505061382e565b43600c54146134e1576134c0600a60446128a5565b61352a6040805161010081019091528060008152602001600081526020016000815260200160008152602001600081526020016000815260200160008152602001600081525090565b6001600160a01b0386166000908152601560205260409020600101546060820152613554866129fc565b6080830181905260208301826003811115613571576135716158fe565b6003811115613582576135826158fe565b905250600090508160200151600381111561359f5761359f6158fe565b146135ce576135c16009604283602001516003811115612f7957612f796158fe565b600093509350505061382e565b6000198514156135e757608081015160408201526135ef565b604081018590525b6135fd878260400151614e4e565b60e08201819052608082015161361291612ba4565b60a083018190526020830182600381111561362f5761362f6158fe565b6003811115613640576136406158fe565b905250600090508160200151600381111561365d5761365d6158fe565b146136cd5760405162461bcd60e51b815260206004820152603a60248201527f52455041595f424f52524f575f4e45575f4143434f554e545f424f52524f575f604482015279109053105390d157d0d05310d55310551253d397d1905253115160321b6064820152608401610bef565b6136dd600e548260e00151612ba4565b60c08301819052602083018260038111156136fa576136fa6158fe565b600381111561370b5761370b6158fe565b9052506000905081602001516003811115613728576137286158fe565b1461378f5760405162461bcd60e51b815260206004820152603160248201527f52455041595f424f52524f575f4e45575f544f54414c5f42414c414e43455f43604482015270105310d55310551253d397d19052531151607a1b6064820152608401610bef565b60a081810180516001600160a01b03898116600081815260156020908152604091829020948555600d5460019095019490945560c0870151600e81905560e088015195518251948f16855294840192909252820193909352606081019190915260808101919091527f1a2a22cb034d26d1854bdc6666a5b91fe25efbbb5dcad3b0355478d6f5c362a1910160405180910390a160e00151600093509150505b935093915050565b6000806000806138468787613ab4565b9092509050600082600381111561385f5761385f6158fe565b14613870575091506000905061382e565b61387a8186612ba4565b935093505050935093915050565b6000613892615298565b6000806138a786670de0b6b3a764000061416f565b909250905060008260038111156138c0576138c06158fe565b146138df5750604080516020810190915260008152909250905061282a565b6000806138ec83886141b9565b90925090506000826003811115613905576139056158fe565b14613928578160405180602001604052806000815250955095505050505061282a565b604080516020810190915290815260009890975095505050505050565b6060600080856001600160a01b0316856040516139629190615a94565b6000604051808303816000865af19150503d806000811461399f576040519150601f19603f3d011682016040523d82523d6000602084013e6139a4565b606091505b5091509150816139d8578051156139be5780518082602001fd5b8360405162461bcd60e51b8152600401610bef91906154ff565b95945050505050565b6001546040805163dd86fea160e01b815290516000926001600160a01b03169163dd86fea19160048083019260209291908290030181865afa15801561188d573d6000803e3d6000fd5b6000600080516020615c2e833981519152846011811115613a4e57613a4e6158fe565b846063811115613a6057613a606158fe565b84604051613a7093929190615a00565b60405180910390a16003846011811115613a8c57613a8c6158fe565b14613aa857836011811115613aa357613aa36158fe565b61124c565b61124c826103e8615a2c565b60008080613ac28486615a2c565b9050848110613ad65760009250905061282a565b60026000925092505061282a565b6000613aee615298565b600080613aff86600001518661416f565b90925090506000826003811115613b1857613b186158fe565b14613b375750604080516020810190915260008152909250905061282a565b60408051602081019091529081526000969095509350505050565b8051600090610ba290670de0b6b3a764000090615b62565b60006115938383604051806040016040528060158152602001747375627472616374696f6e20756e646572666c6f7760581b81525061501a565b613c2c63a9059cbb60e01b8383604051602401613bc2929190615b84565b604051602081830303815290604052906001600160e01b0319166020820180516001600160e01b038381831617835250505050604051806040016040528060198152602001781513d2d15397d514905394d1915497d3d55517d19052531151603a1b815250615049565b5050565b6000821580613c3d575081155b613ca65760405162461bcd60e51b815260206004820152603460248201527f6f6e65206f662072656465656d546f6b656e73496e206f722072656465656d416044820152736d6f756e74496e206d757374206265207a65726f60601b6064820152608401610bef565b613cae6152ab565b613cb6611c4d565b6040830181905260208301826003811115613cd357613cd36158fe565b6003811115613ce457613ce46158fe565b9052506000905081602001516003811115613d0157613d016158fe565b14613d2b57613d236009602e83602001516003811115612f7957612f796158fe565b915050611593565b8315613dc4576060810184905260408051602081018252908201518152613d5290856127de565b6080830181905260208301826003811115613d6f57613d6f6158fe565b6003811115613d8057613d806158fe565b9052506000905081602001516003811115613d9d57613d9d6158fe565b14613dbf57613d236009602c83602001516003811115612f7957612f796158fe565b613e55565b613de083604051806020016040528084604001518152506150a0565b6060830181905260208301826003811115613dfd57613dfd6158fe565b6003811115613e0e57613e0e6158fe565b9052506000905081602001516003811115613e2b57613e2b6158fe565b14613e4d57613d236009602d83602001516003811115612f7957612f796158fe565b608081018390525b600654606082015160405163eabe7d9160e01b81526000926001600160a01b03169163eabe7d9191613e8e9130918b9190600401615b9d565b6020604051808303816000875af1158015613ead573d6000803e3d6000fd5b505050506040513d601f19601f82011682018060405250810190613ed191906158b0565b90508015613eef57613ee66003602b83613a2b565b92505050611593565b43600c5414613f0457613ee6600a602f6128a5565b613f146012548360600151612ba4565b60a0840181905260208401826003811115613f3157613f316158fe565b6003811115613f4257613f426158fe565b9052506000905082602001516003811115613f5f57613f5f6158fe565b14613f8157613ee66009603184602001516003811115612f7957612f796158fe565b6001600160a01b0386166000908152601360205260409020546060830151613fa99190612ba4565b60c0840181905260208401826003811115613fc657613fc66158fe565b6003811115613fd757613fd76158fe565b9052506000905082602001516003811115613ff457613ff46158fe565b1461401657613ee66009603084602001516003811115612f7957612f796158fe565b8160800151614023612831565b101561403557613ee6600e60326128a5565b60a082015160125560c08201516001600160a01b038716600090815260136020526040902055608082015161406b908790613ba4565b306001600160a01b0316866001600160a01b0316600080516020615c4e83398151915284606001516040516140a291815260200190565b60405180910390a3608082015160608301516040517fe5b754fb1abb7f01b499791d0b820ae3b6af3424ac1c59768edb53f4ec31a929926140e4928a92615af7565b60405180910390a1600654608083015160608401516040516351dff98960e01b81526001600160a01b03909316926351dff9899261412a9230928c929190600401615bc1565b600060405180830381600087803b15801561414457600080fd5b505af1158015614158573d6000803e3d6000fd5b5060009250614165915050565b9695505050505050565b600080836141825750600090508061282a565b600061418e8486615bea565b90508361419b8683615b62565b146141ae5760026000925092505061282a565b60009250905061282a565b600080826141cd575060019050600061282a565b60006141d98486615b62565b915091509250929050565b600654604051634ef4c3e160e01b8152600091829182916001600160a01b031690634ef4c3e19061421d90309089908990600401615b9d565b6020604051808303816000875af115801561423c573d6000803e3d6000fd5b505050506040513d601f19601f8201168201806040525081019061426091906158b0565b90508015614281576142756003602183613a2b565b6000925092505061282a565b43600c541461429657614275600a60246128a5565b61429e6152ab565b6142a6611c4d565b60408301819052602083018260038111156142c3576142c36158fe565b60038111156142d4576142d46158fe565b90525060009050816020015160038111156142f1576142f16158fe565b14614320576143136009602383602001516003811115612f7957612f796158fe565b600093509350505061282a565b61432a8686614e4e565b60c082018190526040805160208101825290830151815261434b91906150a0565b6060830181905260208301826003811115614368576143686158fe565b6003811115614379576143796158fe565b9052506000905081602001516003811115614396576143966158fe565b146143e35760405162461bcd60e51b815260206004820181905260248201527f4d494e545f45584348414e47455f43414c43554c4154494f4e5f4641494c45446044820152606401610bef565b6143f36012548260600151612b6e565b60808201526001600160a01b03861660009081526013602052604090205460608201516144209190612b6e565b60a0820181905260808201516012556001600160a01b038716600090815260136020526040908190209190915560c0820151606083015191517f4c209b5fc8ad50758f13e2e1088ba56a560dff690a1c6fef26394f4c03821c4f92614489928a92909190615af7565b60405180910390a1856001600160a01b0316306001600160a01b0316600080516020615c4e83398151915283606001516040516144c891815260200190565b60405180910390a360065460c082015160608301516040516341c728b960e01b81526001600160a01b03909316926341c728b99261450e9230928c929190600401615bc1565b600060405180830381600087803b15801561452857600080fd5b505af115801561453c573d6000803e3d6000fd5b5060009250614549915050565b8160c001519350935050509250929050565b6000806145688486615a2c565b905082858210156111345760405162461bcd60e51b8152600401610bef91906154ff565b614594615298565b60405180602001604052806145ad8560000151856150b0565b90529392505050565b6000806145c3848461458c565b905061124c81613b52565b6000806145db858561458c565b90506139d86145e982613b52565b84612b6e565b6000670de0b6b3a76400006146088484600001516150b0565b6115939190615b62565b60065460405163368f515360e21b815260009182916001600160a01b039091169063da3d454c9061464b90309088908890600401615b9d565b6020604051808303816000875af115801561466a573d6000803e3d6000fd5b505050506040513d601f19601f8201168201806040525081019061468e91906158b0565b905080156146ab576146a36003601083613a2b565b915050610ba2565b43600c54146146c0576146a3600a600c6128a5565b60006146ca612831565b9050838110156146e9576146e0600e600b6128a5565b92505050610ba2565b614715604080516080810190915280600081526020016000815260200160008152602001600081525090565b61471e866129fc565b6020830181905282826003811115614738576147386158fe565b6003811115614749576147496158fe565b9052506000905081516003811115614763576147636158fe565b1461478e5761478460098083600001516003811115612f7957612f796158fe565b9350505050610ba2565b61479c816020015186613ab4565b60408301819052828260038111156147b6576147b66158fe565b60038111156147c7576147c76158fe565b90525060009050815160038111156147e1576147e16158fe565b14614803576147846009600e83600001516003811115612f7957612f796158fe565b6006546040808301519051631de6c8a560e21b81526001600160a01b039092169163779b22949161483991309190600401615b84565b6020604051808303816000875af1158015614858573d6000803e3d6000fd5b505050506040513d601f19601f8201168201806040525081019061487c91906158b0565b92508215614891576147846003601085613a2b565b61489d600e5486613ab4565b60608301819052828260038111156148b7576148b76158fe565b60038111156148c8576148c86158fe565b90525060009050815160038111156148e2576148e26158fe565b14614904576147846009600d83600001516003811115612f7957612f796158fe565b6040808201516001600160a01b0388166000908152601560205291909120908155600d546001909101556060810151600e556149408686613ba4565b60408082015160608084015183516001600160a01b038b168152602081018a9052938401929092528201527f13ed6866d4e1ee6da46f845c46d7e54120883d75c5ea9a2dacc1c4ca8984ab809060800160405180910390a160009695505050505050565b600654604051632fe3f38f60e11b8152600091829182916001600160a01b031690635fc7e71e906149e190309088908c908c908c90600401615b2f565b6020604051808303816000875af1158015614a00573d6000803e3d6000fd5b505050506040513d601f19601f82011682018060405250810190614a2491906158b0565b90508015614a4557614a396003601483613a2b565b60009250925050614e45565b43600c5414614a5a57614a39600a60186128a5565b43846001600160a01b0316636c540baf6040518163ffffffff1660e01b8152600401602060405180830381865afa158015614a99573d6000803e3d6000fd5b505050506040513d601f19601f82011682018060405250810190614abd91906158b0565b14614ace57614a39600a60136128a5565b866001600160a01b0316866001600160a01b03161415614af457614a39600660196128a5565b84614b0557614a39600760176128a5565b600019851415614b1b57614a39600760166128a5565b600080614b2989898961342d565b90925090508115614b5e57614b50826011811115614b4957614b496158fe565b601a6128a5565b600094509450505050614e45565b60065460405163c488847b60e01b815260009182916001600160a01b039091169063c488847b90614b979030908c908890600401615b9d565b6040805180830381865afa158015614bb3573d6000803e3d6000fd5b505050506040513d601f19601f82011682018060405250810190614bd79190615c09565b90925090508115614c465760405162461bcd60e51b815260206004820152603360248201527f4c49515549444154455f434f4d5054524f4c4c45525f43414c43554c4154455f604482015272105353d5539517d4d152569157d19052531151606a1b6064820152608401610bef565b6040516370a0823160e01b815281906001600160a01b038a16906370a0823190614c74908e90600401615557565b602060405180830381865afa158015614c91573d6000803e3d6000fd5b505050506040513d601f19601f82011682018060405250810190614cb591906158b0565b1015614cfe5760405162461bcd60e51b815260206004820152601860248201527709892a2aa928882a88abea68a92b48abea89e9ebe9aaa86960431b6044820152606401610bef565b60006001600160a01b038916301415614d2457614d1d308d8d85612dcf565b9050614d9a565b60405163b2a02ff160e01b81526001600160a01b038a169063b2a02ff190614d54908f908f908790600401615b9d565b6020604051808303816000875af1158015614d73573d6000803e3d6000fd5b505050506040513d601f19601f82011682018060405250810190614d9791906158b0565b90505b8015614ddf5760405162461bcd60e51b81526020600482015260146024820152731d1bdad95b881cd95a5e9d5c994819985a5b195960621b6044820152606401610bef565b604080516001600160a01b038e811682528d811660208301528183018790528b1660608201526080810184905290517f298637f684da70674f26509b10f07ec2fbc77a335ab1e7d6215a4b2484d8bb529181900360a00190a16000975092955050505050505b94509492505050565b6016546040516370a0823160e01b815260009182916001600160a01b03909116906370a0823190614e83903090600401615557565b602060405180830381865afa158015614ea0573d6000803e3d6000fd5b505050506040513d601f19601f82011682018060405250810190614ec491906158b0565b9050614f4f6323b872dd60e01b853086604051602401614ee693929190615b9d565b604051602081830303815290604052906001600160e01b0319166020820180516001600160e01b038381831617835250505050604051806040016040528060188152602001771513d2d15397d514905394d1915497d25397d1905253115160421b815250615049565b6016546040516370a0823160e01b81526000916001600160a01b0316906370a0823190614f80903090600401615557565b602060405180830381865afa158015614f9d573d6000803e3d6000fd5b505050506040513d601f19601f82011682018060405250810190614fc191906158b0565b9050818110156150105760405162461bcd60e51b815260206004820152601a602482015279544f4b454e5f5452414e534645525f494e5f4f564552464c4f5760301b6044820152606401610bef565b6139d88282615b18565b6000818484111561503e5760405162461bcd60e51b8152600401610bef91906154ff565b5061124c8385615b18565b601654600090615063906001600160a01b03168484613945565b805190915015610dd457808060200190518101906150819190615944565b82906112e15760405162461bcd60e51b8152600401610bef91906154ff565b6000806000806127ee86866150ec565b60006115938383604051806040016040528060178152602001766d756c7469706c69636174696f6e206f766572666c6f7760481b815250615151565b60006150f6615298565b60008061510b670de0b6b3a76400008761416f565b90925090506000826003811115615124576151246158fe565b146151435750604080516020810190915260008152909250905061282a565b612823818660000151613888565b600083158061515e575082155b1561516b57506000611593565b60006151778486615bea565b9050836151848683615b62565b1483906111345760405162461bcd60e51b8152600401610bef91906154ff565b8280546151b0906158c9565b90600052602060002090601f0160209004810192826151d25760008555615218565b82601f106151eb57805160ff1916838001178555615218565b82800160010185558215615218579182015b828111156152185782518255916020019190600101906151fd565b506113d89291506152e9565b828054615230906158c9565b90600052602060002090601f0160209004810192826152525760008555615218565b82601f1061526b5782800160ff19823516178555615218565b82800160010185558215615218579182015b8281111561521857823582559160200191906001019061527d565b6040518060200160405280600081525090565b6040805160e0810190915280600081526020016000815260200160008152602001600081526020016000815260200160008152602001600081525090565b5b808211156113d857600081556001016152ea565b6001600160a01b0381168114611c4a57600080fd5b803561531e816152fe565b919050565b634e487b7160e01b600052604160045260246000fd5b604051601f8201601f191681016001600160401b038111828210171561536157615361615323565b604052919050565b60006001600160401b0382111561538257615382615323565b50601f01601f191660200190565b600082601f8301126153a157600080fd5b81356153b46153af82615369565b615339565b8181528460208386010111156153c957600080fd5b816020850160208301376000918101602001919091529392505050565b600080600080600080600080610100898b03121561540357600080fd5b883561540e816152fe565b9750602089013561541e816152fe565b9650604089013561542e816152fe565b9550606089013561543e816152fe565b945060808901356001600160401b038082111561545a57600080fd5b6154668c838d01615390565b955060a08b013591508082111561547c57600080fd5b506154898b828c01615390565b93505060c0890135915060e089013590509295985092959890939650565b60005b838110156154c25781810151838201526020016154aa565b838111156112e15750506000910152565b600081518084526154eb8160208601602086016154a7565b601f01601f19169290920160200192915050565b60208152600061159360208301846154d3565b6000806040838503121561552557600080fd5b8235615530816152fe565b946020939093013593505050565b60006020828403121561555057600080fd5b5035919050565b6001600160a01b0391909116815260200190565b60006020828403121561557d57600080fd5b8135611593816152fe565b60ff81168114611c4a57600080fd5b803561531e81615588565b60008060008060008060008060006101208a8c0312156155c157600080fd5b89356155cc816152fe565b985060208a01356155dc816152fe565b97506155ea60408b01615313565b965060608a0135955060808a01356001600160401b038082111561560d57600080fd5b6156198d838e01615390565b965060a08c013591508082111561562f57600080fd5b5061563c8c828d01615390565b94505061564b60c08b01615597565b925060e08a013591506101008a013590509295985092959850929598565b60008060006060848603121561567e57600080fd5b8335615689816152fe565b92506020840135615699816152fe565b929592945050506040919091013590565b60008083601f8401126156bc57600080fd5b5081356001600160401b038111156156d357600080fd5b60208301915083602082850101111561282a57600080fd5b6000806000806040858703121561570157600080fd5b84356001600160401b038082111561571857600080fd5b615724888389016156aa565b9096509450602087013591508082111561573d57600080fd5b5061574a878288016156aa565b95989497509550505050565b8015158114611c4a57600080fd5b6000806000806060858703121561577a57600080fd5b8435615785816152fe565b9350602085013561579581615756565b925060408501356001600160401b038111156157b057600080fd5b61574a878288016156aa565b600080602083850312156157cf57600080fd5b82356001600160401b038111156157e557600080fd5b6157f1858286016156aa565b90969095509350505050565b93845260208401929092526040830152606082015260800190565b6000806040838503121561582b57600080fd5b8235615836816152fe565b91506020830135615846816152fe565b809150509250929050565b60008060006060848603121561586657600080fd5b8335615871816152fe565b9250602084013591506040840135615888816152fe565b809150509250925092565b6000602082840312156158a557600080fd5b815161159381615588565b6000602082840312156158c257600080fd5b5051919050565b600181811c908216806158dd57607f821691505b60208210811415610c0d57634e487b7160e01b600052602260045260246000fd5b634e487b7160e01b600052602160045260246000fd5b6020808252601690820152751858d8dc9d59481a5b9d195c995cdd0819985a5b195960521b604082015260600190565b60006020828403121561595657600080fd5b815161159381615756565b60008060006060848603121561597657600080fd5b8351615981816152fe565b602085015190935061599281615756565b60408501519092506001600160401b038111156159ae57600080fd5b8401601f810186136159bf57600080fd5b80516159cd6153af82615369565b8181528760208385010111156159e257600080fd5b6159f38260208301602086016154a7565b8093505050509250925092565b9283526020830191909152604082015260600190565b634e487b7160e01b600052601160045260246000fd5b60008219821115615a3f57615a3f615a16565b500190565b6001600160a01b0392831681529116602082015260400190565b6020808252601c908201527b6d61726b6572206d6574686f642072657475726e65642066616c736560201b604082015260600190565b60008251615aa68184602087016154a7565b9190910192915050565b6001600160a01b039485168152928416602084015292166040820152606081019190915260800190565b600060208284031215615aec57600080fd5b8151611593816152fe565b6001600160a01b039390931683526020830191909152604082015260600190565b600082821015615b2a57615b2a615a16565b500390565b6001600160a01b039586168152938516602085015291841660408401529092166060820152608081019190915260a00190565b600082615b7f57634e487b7160e01b600052601260045260246000fd5b500490565b6001600160a01b03929092168252602082015260400190565b6001600160a01b039384168152919092166020820152604081019190915260600190565b6001600160a01b0394851681529290931660208301526040820152606081019190915260800190565b6000816000190483118215151615615c0457615c04615a16565b500290565b60008060408385031215615c1c57600080fd5b50508051602090910151909290915056fe45b96fe442630264581b197e84bbada861235052c5a1aadfff9ea4e40a969aa0ddf252ad1be2c89b69c2b068fc378daa952ba7f163c4a11628f55a4df523b3efa164736f6c634300080a000a",
    "linkReferences": {}
  },
  "methodIdentifiers": {
    "_becomeImplementation(bytes)": "56e67728",
    "_delegateCompLikeTo(address)": "7f1e06be",
    "_prepare()": "1db78944",
    "_reduceReserves(uint256)": "601a0bf1",
    "_setAdminFee(uint256)": "91dd36c6",
    "_setImplementationSafe(address,bool,bytes)": "50d85b73",
    "_setInterestRateModel(address)": "f2b3abbd",
    "_setNameAndSymbol(string,string)": "34154d4c",
    "_setReserveFactor(uint256)": "fca7820b",
    "_withdrawAdminFees(uint256)": "a7b820df",
    "_withdrawFuseFees(uint256)": "a03dce8d",
    "accrualBlockNumber()": "6c540baf",
    "accrueInterest()": "a6afed95",
    "adminFeeMantissa()": "8d02d9a1",
    "allowance(address,address)": "dd62ed3e",
    "approve(address,uint256)": "095ea7b3",
    "balanceOf(address)": "70a08231",
    "balanceOfUnderlying(address)": "3af9e669",
    "borrow(uint256)": "c5ebeaec",
    "borrowBalanceCurrent(address)": "17bfdfbc",
    "borrowBalanceStored(address)": "95dd9193",
    "borrowIndex()": "aa5af0fd",
    "borrowRatePerBlock()": "f8f9da28",
    "comptroller()": "5fe3b567",
    "decimals()": "313ce567",
    "exchangeRateCurrent()": "bd6d894d",
    "exchangeRateStored()": "182df0f5",
    "feeSeizeShareMantissa()": "be99f119",
    "fuseAdmin()": "15761d51",
    "fuseFeeMantissa()": "dbfe7c19",
    "getAccountSnapshot(address)": "c37f68e2",
    "getCash()": "3b1d21a2",
    "implementation()": "5c60da1b",
    "initialize(address,address,address,address,string,string,uint256,uint256)": "06db3ecd",
    "initialize(address,address,address,uint256,string,string,uint8,uint256,uint256)": "219ef65c",
    "interestRateModel()": "f3fdb15a",
    "isCEther()": "ac784ddc",
    "isCToken()": "fe9c44ae",
    "liquidateBorrow(address,uint256,address)": "f5e3c462",
    "mint(uint256)": "a0712d68",
    "name()": "06fdde03",
    "protocolSeizeShareMantissa()": "6752e702",
    "redeem(uint256)": "db006a75",
    "redeemUnderlying(uint256)": "852a12e3",
    "repayBorrow(uint256)": "0e752702",
    "repayBorrowBehalf(address,uint256)": "2608f818",
    "reserveFactorMantissa()": "173b9904",
    "seize(address,address,uint256)": "b2a02ff1",
    "supplyRatePerBlock()": "ae9d70b0",
    "symbol()": "95d89b41",
    "totalAdminFees()": "61feacff",
    "totalBorrows()": "47bd3718",
    "totalBorrowsCurrent()": "73acee98",
    "totalFuseFees()": "dc028ab1",
    "totalReserves()": "8f840ddd",
    "totalSupply()": "18160ddd",
    "transfer(address,uint256)": "a9059cbb",
    "transferFrom(address,address,uint256)": "23b872dd",
    "underlying()": "6f307dc3"
  }
}