{
  "address": "0x4Df931031B4E5AcB4Eec53E1961E8EaC8314870B",
  "abi": [
    {
      "inputs": [],
      "stateMutability": "nonpayable",
      "type": "constructor"
    },
    {
      "anonymous": false,
      "inputs": [
        {
          "indexed": false,
          "internalType": "uint256",
          "name": "cashPrior",
          "type": "uint256"
        },
        {
          "indexed": false,
          "internalType": "uint256",
          "name": "interestAccumulated",
          "type": "uint256"
        },
        {
          "indexed": false,
          "internalType": "uint256",
          "name": "borrowIndex",
          "type": "uint256"
        },
        {
          "indexed": false,
          "internalType": "uint256",
          "name": "totalBorrows",
          "type": "uint256"
        }
      ],
      "name": "AccrueInterest",
      "type": "event"
    },
    {
      "anonymous": false,
      "inputs": [
        {
          "indexed": true,
          "internalType": "address",
          "name": "owner",
          "type": "address"
        },
        {
          "indexed": true,
          "internalType": "address",
          "name": "spender",
          "type": "address"
        },
        {
          "indexed": false,
          "internalType": "uint256",
          "name": "amount",
          "type": "uint256"
        }
      ],
      "name": "Approval",
      "type": "event"
    },
    {
      "anonymous": false,
      "inputs": [
        {
          "indexed": false,
          "internalType": "address",
          "name": "borrower",
          "type": "address"
        },
        {
          "indexed": false,
          "internalType": "uint256",
          "name": "borrowAmount",
          "type": "uint256"
        },
        {
          "indexed": false,
          "internalType": "uint256",
          "name": "accountBorrows",
          "type": "uint256"
        },
        {
          "indexed": false,
          "internalType": "uint256",
          "name": "totalBorrows",
          "type": "uint256"
        }
      ],
      "name": "Borrow",
      "type": "event"
    },
    {
      "anonymous": false,
      "inputs": [
        {
          "indexed": false,
          "internalType": "uint256",
          "name": "error",
          "type": "uint256"
        },
        {
          "indexed": false,
          "internalType": "uint256",
          "name": "info",
          "type": "uint256"
        },
        {
          "indexed": false,
          "internalType": "uint256",
          "name": "detail",
          "type": "uint256"
        }
      ],
      "name": "Failure",
      "type": "event"
    },
    {
      "anonymous": false,
      "inputs": [
        {
          "indexed": false,
          "internalType": "address",
          "name": "liquidator",
          "type": "address"
        },
        {
          "indexed": false,
          "internalType": "address",
          "name": "borrower",
          "type": "address"
        },
        {
          "indexed": false,
          "internalType": "uint256",
          "name": "repayAmount",
          "type": "uint256"
        },
        {
          "indexed": false,
          "internalType": "address",
          "name": "cTokenCollateral",
          "type": "address"
        },
        {
          "indexed": false,
          "internalType": "uint256",
          "name": "seizeTokens",
          "type": "uint256"
        }
      ],
      "name": "LiquidateBorrow",
      "type": "event"
    },
    {
      "anonymous": false,
      "inputs": [
        {
          "indexed": false,
          "internalType": "address",
          "name": "minter",
          "type": "address"
        },
        {
          "indexed": false,
          "internalType": "uint256",
          "name": "mintAmount",
          "type": "uint256"
        },
        {
          "indexed": false,
          "internalType": "uint256",
          "name": "mintTokens",
          "type": "uint256"
        }
      ],
      "name": "Mint",
      "type": "event"
    },
    {
      "anonymous": false,
      "inputs": [
        {
          "indexed": false,
          "internalType": "uint256",
          "name": "oldAdminFeeMantissa",
          "type": "uint256"
        },
        {
          "indexed": false,
          "internalType": "uint256",
          "name": "newAdminFeeMantissa",
          "type": "uint256"
        }
      ],
      "name": "NewAdminFee",
      "type": "event"
    },
    {
      "anonymous": false,
      "inputs": [
        {
          "indexed": false,
          "internalType": "contract ComptrollerInterface",
          "name": "oldComptroller",
          "type": "address"
        },
        {
          "indexed": false,
          "internalType": "contract ComptrollerInterface",
          "name": "newComptroller",
          "type": "address"
        }
      ],
      "name": "NewComptroller",
      "type": "event"
    },
    {
      "anonymous": false,
      "inputs": [
        {
          "indexed": false,
          "internalType": "uint256",
          "name": "oldFuseFeeMantissa",
          "type": "uint256"
        },
        {
          "indexed": false,
          "internalType": "uint256",
          "name": "newFuseFeeMantissa",
          "type": "uint256"
        }
      ],
      "name": "NewFuseFee",
      "type": "event"
    },
    {
      "anonymous": false,
      "inputs": [
        {
          "indexed": false,
          "internalType": "address",
          "name": "oldImplementation",
          "type": "address"
        },
        {
          "indexed": false,
          "internalType": "address",
          "name": "newImplementation",
          "type": "address"
        }
      ],
      "name": "NewImplementation",
      "type": "event"
    },
    {
      "anonymous": false,
      "inputs": [
        {
          "indexed": false,
          "internalType": "contract InterestRateModel",
          "name": "oldInterestRateModel",
          "type": "address"
        },
        {
          "indexed": false,
          "internalType": "contract InterestRateModel",
          "name": "newInterestRateModel",
          "type": "address"
        }
      ],
      "name": "NewMarketInterestRateModel",
      "type": "event"
    },
    {
      "anonymous": false,
      "inputs": [
        {
          "indexed": false,
          "internalType": "uint256",
          "name": "oldReserveFactorMantissa",
          "type": "uint256"
        },
        {
          "indexed": false,
          "internalType": "uint256",
          "name": "newReserveFactorMantissa",
          "type": "uint256"
        }
      ],
      "name": "NewReserveFactor",
      "type": "event"
    },
    {
      "anonymous": false,
      "inputs": [
        {
          "indexed": false,
          "internalType": "address",
          "name": "redeemer",
          "type": "address"
        },
        {
          "indexed": false,
          "internalType": "uint256",
          "name": "redeemAmount",
          "type": "uint256"
        },
        {
          "indexed": false,
          "internalType": "uint256",
          "name": "redeemTokens",
          "type": "uint256"
        }
      ],
      "name": "Redeem",
      "type": "event"
    },
    {
      "anonymous": false,
      "inputs": [
        {
          "indexed": false,
          "internalType": "address",
          "name": "payer",
          "type": "address"
        },
        {
          "indexed": false,
          "internalType": "address",
          "name": "borrower",
          "type": "address"
        },
        {
          "indexed": false,
          "internalType": "uint256",
          "name": "repayAmount",
          "type": "uint256"
        },
        {
          "indexed": false,
          "internalType": "uint256",
          "name": "accountBorrows",
          "type": "uint256"
        },
        {
          "indexed": false,
          "internalType": "uint256",
          "name": "totalBorrows",
          "type": "uint256"
        }
      ],
      "name": "RepayBorrow",
      "type": "event"
    },
    {
      "anonymous": false,
      "inputs": [
        {
          "indexed": false,
          "internalType": "address",
          "name": "benefactor",
          "type": "address"
        },
        {
          "indexed": false,
          "internalType": "uint256",
          "name": "addAmount",
          "type": "uint256"
        },
        {
          "indexed": false,
          "internalType": "uint256",
          "name": "newTotalReserves",
          "type": "uint256"
        }
      ],
      "name": "ReservesAdded",
      "type": "event"
    },
    {
      "anonymous": false,
      "inputs": [
        {
          "indexed": false,
          "internalType": "address",
          "name": "admin",
          "type": "address"
        },
        {
          "indexed": false,
          "internalType": "uint256",
          "name": "reduceAmount",
          "type": "uint256"
        },
        {
          "indexed": false,
          "internalType": "uint256",
          "name": "newTotalReserves",
          "type": "uint256"
        }
      ],
      "name": "ReservesReduced",
      "type": "event"
    },
    {
      "anonymous": false,
      "inputs": [
        {
          "indexed": true,
          "internalType": "address",
          "name": "from",
          "type": "address"
        },
        {
          "indexed": true,
          "internalType": "address",
          "name": "to",
          "type": "address"
        },
        {
          "indexed": false,
          "internalType": "uint256",
          "name": "amount",
          "type": "uint256"
        }
      ],
      "name": "Transfer",
      "type": "event"
    },
    {
      "inputs": [
        {
          "internalType": "bytes",
          "name": "data",
          "type": "bytes"
        }
      ],
      "name": "_becomeImplementation",
      "outputs": [],
      "stateMutability": "nonpayable",
      "type": "function"
    },
    {
      "inputs": [],
      "name": "_prepare",
      "outputs": [],
      "stateMutability": "payable",
      "type": "function"
    },
    {
      "inputs": [
        {
          "internalType": "uint256",
          "name": "reduceAmount",
          "type": "uint256"
        }
      ],
      "name": "_reduceReserves",
      "outputs": [
        {
          "internalType": "uint256",
          "name": "",
          "type": "uint256"
        }
      ],
      "stateMutability": "nonpayable",
      "type": "function"
    },
    {
      "inputs": [
        {
          "internalType": "uint256",
          "name": "newAdminFeeMantissa",
          "type": "uint256"
        }
      ],
      "name": "_setAdminFee",
      "outputs": [
        {
          "internalType": "uint256",
          "name": "",
          "type": "uint256"
        }
      ],
      "stateMutability": "nonpayable",
      "type": "function"
    },
    {
      "inputs": [
        {
          "internalType": "address",
          "name": "implementation_",
          "type": "address"
        },
        {
          "internalType": "bool",
          "name": "allowResign",
          "type": "bool"
        },
        {
          "internalType": "bytes",
          "name": "becomeImplementationData",
          "type": "bytes"
        }
      ],
      "name": "_setImplementationSafe",
      "outputs": [],
      "stateMutability": "nonpayable",
      "type": "function"
    },
    {
      "inputs": [
        {
          "internalType": "contract InterestRateModel",
          "name": "newInterestRateModel",
          "type": "address"
        }
      ],
      "name": "_setInterestRateModel",
      "outputs": [
        {
          "internalType": "uint256",
          "name": "",
          "type": "uint256"
        }
      ],
      "stateMutability": "nonpayable",
      "type": "function"
    },
    {
      "inputs": [
        {
          "internalType": "string",
          "name": "_name",
          "type": "string"
        },
        {
          "internalType": "string",
          "name": "_symbol",
          "type": "string"
        }
      ],
      "name": "_setNameAndSymbol",
      "outputs": [],
      "stateMutability": "nonpayable",
      "type": "function"
    },
    {
      "inputs": [
        {
          "internalType": "uint256",
          "name": "newReserveFactorMantissa",
          "type": "uint256"
        }
      ],
      "name": "_setReserveFactor",
      "outputs": [
        {
          "internalType": "uint256",
          "name": "",
          "type": "uint256"
        }
      ],
      "stateMutability": "nonpayable",
      "type": "function"
    },
    {
      "inputs": [
        {
          "internalType": "uint256",
          "name": "withdrawAmount",
          "type": "uint256"
        }
      ],
      "name": "_withdrawAdminFees",
      "outputs": [
        {
          "internalType": "uint256",
          "name": "",
          "type": "uint256"
        }
      ],
      "stateMutability": "nonpayable",
      "type": "function"
    },
    {
      "inputs": [
        {
          "internalType": "uint256",
          "name": "withdrawAmount",
          "type": "uint256"
        }
      ],
      "name": "_withdrawFuseFees",
      "outputs": [
        {
          "internalType": "uint256",
          "name": "",
          "type": "uint256"
        }
      ],
      "stateMutability": "nonpayable",
      "type": "function"
    },
    {
      "inputs": [],
      "name": "accrualBlockNumber",
      "outputs": [
        {
          "internalType": "uint256",
          "name": "",
          "type": "uint256"
        }
      ],
      "stateMutability": "view",
      "type": "function"
    },
    {
      "inputs": [],
      "name": "accrueInterest",
      "outputs": [
        {
          "internalType": "uint256",
          "name": "",
          "type": "uint256"
        }
      ],
      "stateMutability": "nonpayable",
      "type": "function"
    },
    {
      "inputs": [],
      "name": "adminFeeMantissa",
      "outputs": [
        {
          "internalType": "uint256",
          "name": "",
          "type": "uint256"
        }
      ],
      "stateMutability": "view",
      "type": "function"
    },
    {
      "inputs": [
        {
          "internalType": "address",
          "name": "owner",
          "type": "address"
        },
        {
          "internalType": "address",
          "name": "spender",
          "type": "address"
        }
      ],
      "name": "allowance",
      "outputs": [
        {
          "internalType": "uint256",
          "name": "",
          "type": "uint256"
        }
      ],
      "stateMutability": "view",
      "type": "function"
    },
    {
      "inputs": [
        {
          "internalType": "address",
          "name": "spender",
          "type": "address"
        },
        {
          "internalType": "uint256",
          "name": "amount",
          "type": "uint256"
        }
      ],
      "name": "approve",
      "outputs": [
        {
          "internalType": "bool",
          "name": "",
          "type": "bool"
        }
      ],
      "stateMutability": "nonpayable",
      "type": "function"
    },
    {
      "inputs": [
        {
          "internalType": "address",
          "name": "owner",
          "type": "address"
        }
      ],
      "name": "balanceOf",
      "outputs": [
        {
          "internalType": "uint256",
          "name": "",
          "type": "uint256"
        }
      ],
      "stateMutability": "view",
      "type": "function"
    },
    {
      "inputs": [
        {
          "internalType": "address",
          "name": "owner",
          "type": "address"
        }
      ],
      "name": "balanceOfUnderlying",
      "outputs": [
        {
          "internalType": "uint256",
          "name": "",
          "type": "uint256"
        }
      ],
      "stateMutability": "nonpayable",
      "type": "function"
    },
    {
      "inputs": [
        {
          "internalType": "uint256",
          "name": "borrowAmount",
          "type": "uint256"
        }
      ],
      "name": "borrow",
      "outputs": [
        {
          "internalType": "uint256",
          "name": "",
          "type": "uint256"
        }
      ],
      "stateMutability": "nonpayable",
      "type": "function"
    },
    {
      "inputs": [
        {
          "internalType": "address",
          "name": "account",
          "type": "address"
        }
      ],
      "name": "borrowBalanceCurrent",
      "outputs": [
        {
          "internalType": "uint256",
          "name": "",
          "type": "uint256"
        }
      ],
      "stateMutability": "nonpayable",
      "type": "function"
    },
    {
      "inputs": [
        {
          "internalType": "address",
          "name": "account",
          "type": "address"
        }
      ],
      "name": "borrowBalanceStored",
      "outputs": [
        {
          "internalType": "uint256",
          "name": "",
          "type": "uint256"
        }
      ],
      "stateMutability": "view",
      "type": "function"
    },
    {
      "inputs": [],
      "name": "borrowIndex",
      "outputs": [
        {
          "internalType": "uint256",
          "name": "",
          "type": "uint256"
        }
      ],
      "stateMutability": "view",
      "type": "function"
    },
    {
      "inputs": [],
      "name": "borrowRatePerBlock",
      "outputs": [
        {
          "internalType": "uint256",
          "name": "",
          "type": "uint256"
        }
      ],
      "stateMutability": "view",
      "type": "function"
    },
    {
      "inputs": [],
      "name": "comptroller",
      "outputs": [
        {
          "internalType": "contract ComptrollerInterface",
          "name": "",
          "type": "address"
        }
      ],
      "stateMutability": "view",
      "type": "function"
    },
    {
      "inputs": [],
      "name": "decimals",
      "outputs": [
        {
          "internalType": "uint8",
          "name": "",
          "type": "uint8"
        }
      ],
      "stateMutability": "view",
      "type": "function"
    },
    {
      "inputs": [],
      "name": "exchangeRateCurrent",
      "outputs": [
        {
          "internalType": "uint256",
          "name": "",
          "type": "uint256"
        }
      ],
      "stateMutability": "nonpayable",
      "type": "function"
    },
    {
      "inputs": [],
      "name": "exchangeRateStored",
      "outputs": [
        {
          "internalType": "uint256",
          "name": "",
          "type": "uint256"
        }
      ],
      "stateMutability": "view",
      "type": "function"
    },
    {
      "inputs": [],
      "name": "feeSeizeShareMantissa",
      "outputs": [
        {
          "internalType": "uint256",
          "name": "",
          "type": "uint256"
        }
      ],
      "stateMutability": "view",
      "type": "function"
    },
    {
      "inputs": [],
      "name": "fuseAdmin",
      "outputs": [
        {
          "internalType": "address payable",
          "name": "",
          "type": "address"
        }
      ],
      "stateMutability": "view",
      "type": "function"
    },
    {
      "inputs": [],
      "name": "fuseFeeMantissa",
      "outputs": [
        {
          "internalType": "uint256",
          "name": "",
          "type": "uint256"
        }
      ],
      "stateMutability": "view",
      "type": "function"
    },
    {
      "inputs": [
        {
          "internalType": "address",
          "name": "account",
          "type": "address"
        }
      ],
      "name": "getAccountSnapshot",
      "outputs": [
        {
          "internalType": "uint256",
          "name": "",
          "type": "uint256"
        },
        {
          "internalType": "uint256",
          "name": "",
          "type": "uint256"
        },
        {
          "internalType": "uint256",
          "name": "",
          "type": "uint256"
        },
        {
          "internalType": "uint256",
          "name": "",
          "type": "uint256"
        }
      ],
      "stateMutability": "view",
      "type": "function"
    },
    {
      "inputs": [],
      "name": "getCash",
      "outputs": [
        {
          "internalType": "uint256",
          "name": "",
          "type": "uint256"
        }
      ],
      "stateMutability": "view",
      "type": "function"
    },
    {
      "inputs": [],
      "name": "implementation",
      "outputs": [
        {
          "internalType": "address",
          "name": "",
          "type": "address"
        }
      ],
      "stateMutability": "view",
      "type": "function"
    },
    {
      "inputs": [
        {
          "internalType": "contract ComptrollerInterface",
          "name": "comptroller_",
          "type": "address"
        },
        {
          "internalType": "address payable",
          "name": "fuseAdmin_",
          "type": "address"
        },
        {
          "internalType": "contract InterestRateModel",
          "name": "interestRateModel_",
          "type": "address"
        },
        {
          "internalType": "uint256",
          "name": "initialExchangeRateMantissa_",
          "type": "uint256"
        },
        {
          "internalType": "string",
          "name": "name_",
          "type": "string"
        },
        {
          "internalType": "string",
          "name": "symbol_",
          "type": "string"
        },
        {
          "internalType": "uint8",
          "name": "decimals_",
          "type": "uint8"
        },
        {
          "internalType": "uint256",
          "name": "reserveFactorMantissa_",
          "type": "uint256"
        },
        {
          "internalType": "uint256",
          "name": "adminFeeMantissa_",
          "type": "uint256"
        }
      ],
      "name": "initialize",
      "outputs": [],
      "stateMutability": "nonpayable",
      "type": "function"
    },
    {
      "inputs": [
        {
          "internalType": "contract ComptrollerInterface",
          "name": "comptroller_",
          "type": "address"
        },
        {
          "internalType": "address payable",
          "name": "fuseAdmin_",
          "type": "address"
        },
        {
          "internalType": "contract InterestRateModel",
          "name": "interestRateModel_",
          "type": "address"
        },
        {
          "internalType": "string",
          "name": "name_",
          "type": "string"
        },
        {
          "internalType": "string",
          "name": "symbol_",
          "type": "string"
        },
        {
          "internalType": "uint256",
          "name": "reserveFactorMantissa_",
          "type": "uint256"
        },
        {
          "internalType": "uint256",
          "name": "adminFeeMantissa_",
          "type": "uint256"
        }
      ],
      "name": "initialize",
      "outputs": [],
      "stateMutability": "nonpayable",
      "type": "function"
    },
    {
      "inputs": [],
      "name": "interestRateModel",
      "outputs": [
        {
          "internalType": "contract InterestRateModel",
          "name": "",
          "type": "address"
        }
      ],
      "stateMutability": "view",
      "type": "function"
    },
    {
      "inputs": [],
      "name": "isCEther",
      "outputs": [
        {
          "internalType": "bool",
          "name": "",
          "type": "bool"
        }
      ],
      "stateMutability": "view",
      "type": "function"
    },
    {
      "inputs": [],
      "name": "isCToken",
      "outputs": [
        {
          "internalType": "bool",
          "name": "",
          "type": "bool"
        }
      ],
      "stateMutability": "nonpayable",
      "type": "function"
    },
    {
      "inputs": [
        {
          "internalType": "address",
          "name": "borrower",
          "type": "address"
        },
        {
          "internalType": "contract CToken",
          "name": "cTokenCollateral",
          "type": "address"
        }
      ],
      "name": "liquidateBorrow",
      "outputs": [],
      "stateMutability": "payable",
      "type": "function"
    },
    {
      "inputs": [],
      "name": "mint",
      "outputs": [],
      "stateMutability": "payable",
      "type": "function"
    },
    {
      "inputs": [],
      "name": "name",
      "outputs": [
        {
          "internalType": "string",
          "name": "",
          "type": "string"
        }
      ],
      "stateMutability": "view",
      "type": "function"
    },
    {
      "inputs": [],
      "name": "protocolSeizeShareMantissa",
      "outputs": [
        {
          "internalType": "uint256",
          "name": "",
          "type": "uint256"
        }
      ],
      "stateMutability": "view",
      "type": "function"
    },
    {
      "inputs": [
        {
          "internalType": "uint256",
          "name": "redeemTokens",
          "type": "uint256"
        }
      ],
      "name": "redeem",
      "outputs": [
        {
          "internalType": "uint256",
          "name": "",
          "type": "uint256"
        }
      ],
      "stateMutability": "nonpayable",
      "type": "function"
    },
    {
      "inputs": [
        {
          "internalType": "uint256",
          "name": "redeemAmount",
          "type": "uint256"
        }
      ],
      "name": "redeemUnderlying",
      "outputs": [
        {
          "internalType": "uint256",
          "name": "",
          "type": "uint256"
        }
      ],
      "stateMutability": "nonpayable",
      "type": "function"
    },
    {
      "inputs": [],
      "name": "repayBorrow",
      "outputs": [],
      "stateMutability": "payable",
      "type": "function"
    },
    {
      "inputs": [
        {
          "internalType": "address",
          "name": "borrower",
          "type": "address"
        }
      ],
      "name": "repayBorrowBehalf",
      "outputs": [],
      "stateMutability": "payable",
      "type": "function"
    },
    {
      "inputs": [],
      "name": "reserveFactorMantissa",
      "outputs": [
        {
          "internalType": "uint256",
          "name": "",
          "type": "uint256"
        }
      ],
      "stateMutability": "view",
      "type": "function"
    },
    {
      "inputs": [
        {
          "internalType": "address",
          "name": "liquidator",
          "type": "address"
        },
        {
          "internalType": "address",
          "name": "borrower",
          "type": "address"
        },
        {
          "internalType": "uint256",
          "name": "seizeTokens",
          "type": "uint256"
        }
      ],
      "name": "seize",
      "outputs": [
        {
          "internalType": "uint256",
          "name": "",
          "type": "uint256"
        }
      ],
      "stateMutability": "nonpayable",
      "type": "function"
    },
    {
      "inputs": [],
      "name": "supplyRatePerBlock",
      "outputs": [
        {
          "internalType": "uint256",
          "name": "",
          "type": "uint256"
        }
      ],
      "stateMutability": "view",
      "type": "function"
    },
    {
      "inputs": [],
      "name": "symbol",
      "outputs": [
        {
          "internalType": "string",
          "name": "",
          "type": "string"
        }
      ],
      "stateMutability": "view",
      "type": "function"
    },
    {
      "inputs": [],
      "name": "totalAdminFees",
      "outputs": [
        {
          "internalType": "uint256",
          "name": "",
          "type": "uint256"
        }
      ],
      "stateMutability": "view",
      "type": "function"
    },
    {
      "inputs": [],
      "name": "totalBorrows",
      "outputs": [
        {
          "internalType": "uint256",
          "name": "",
          "type": "uint256"
        }
      ],
      "stateMutability": "view",
      "type": "function"
    },
    {
      "inputs": [],
      "name": "totalBorrowsCurrent",
      "outputs": [
        {
          "internalType": "uint256",
          "name": "",
          "type": "uint256"
        }
      ],
      "stateMutability": "nonpayable",
      "type": "function"
    },
    {
      "inputs": [],
      "name": "totalFuseFees",
      "outputs": [
        {
          "internalType": "uint256",
          "name": "",
          "type": "uint256"
        }
      ],
      "stateMutability": "view",
      "type": "function"
    },
    {
      "inputs": [],
      "name": "totalReserves",
      "outputs": [
        {
          "internalType": "uint256",
          "name": "",
          "type": "uint256"
        }
      ],
      "stateMutability": "view",
      "type": "function"
    },
    {
      "inputs": [],
      "name": "totalSupply",
      "outputs": [
        {
          "internalType": "uint256",
          "name": "",
          "type": "uint256"
        }
      ],
      "stateMutability": "view",
      "type": "function"
    },
    {
      "inputs": [
        {
          "internalType": "address",
          "name": "dst",
          "type": "address"
        },
        {
          "internalType": "uint256",
          "name": "amount",
          "type": "uint256"
        }
      ],
      "name": "transfer",
      "outputs": [
        {
          "internalType": "bool",
          "name": "",
          "type": "bool"
        }
      ],
      "stateMutability": "nonpayable",
      "type": "function"
    },
    {
      "inputs": [
        {
          "internalType": "address",
          "name": "src",
          "type": "address"
        },
        {
          "internalType": "address",
          "name": "dst",
          "type": "address"
        },
        {
          "internalType": "uint256",
          "name": "amount",
          "type": "uint256"
        }
      ],
      "name": "transferFrom",
      "outputs": [
        {
          "internalType": "bool",
          "name": "",
          "type": "bool"
        }
      ],
      "stateMutability": "nonpayable",
      "type": "function"
    },
    {
      "inputs": [],
      "name": "underlying",
      "outputs": [
        {
          "internalType": "address",
          "name": "",
          "type": "address"
        }
      ],
      "stateMutability": "view",
      "type": "function"
    },
    {
      "stateMutability": "payable",
      "type": "receive"
    }
  ],
  "transactionHash": "0xe94a1fc07a8b504c58bc4cc73c2289c67750602bbbc9304dddf0441d71483597",
  "args": [],
  "numDeployments": 4,
  "bytecode": {
    "object": "0x608060405234801561001057600080fd5b50615dd580620000216000396000f3fe6080604052600436106103855760003560e01c80638d02d9a1116101d1578063b2a02ff111610102578063dc028ab1116100a0578063f3fdb15a1161006f578063f3fdb15a14610a11578063f8f9da2814610a31578063fca7820b14610a46578063fe9c44ae14610a6657600080fd5b8063dc028ab114610982578063dd62ed3e14610998578063e5974619146109de578063f2b3abbd146109f157600080fd5b8063c37f68e2116100dc578063c37f68e2146108ec578063c5ebeaec1461092c578063db006a751461094c578063dbfe7c191461096c57600080fd5b8063b2a02ff11461089b578063bd6d894d146108bb578063be99f119146108d057600080fd5b8063a6afed951161016f578063aa5af0fd11610149578063aa5af0fd14610848578063aae40a2a1461085e578063ac784ddc14610871578063ae9d70b01461088657600080fd5b8063a6afed95146107f3578063a7b820df14610808578063a9059cbb1461082857600080fd5b806395d89b41116101ab57806395d89b411461077e57806395dd919314610793578063a03dce8d146107b3578063a0b0d289146107d357600080fd5b80638d02d9a1146107325780638f840ddd1461074857806391dd36c61461075e57600080fd5b80633b1d21a2116102b6578063601a0bf1116102545780636f307dc3116102235780636f307dc3146106a757806370a08231146106c757806373acee98146106fd578063852a12e31461071257600080fd5b8063601a0bf11461064057806361feacff146106605780636752e702146106765780636c540baf1461069157600080fd5b806350d85b731161029057806350d85b73146105c057806356e67728146105e05780635c60da1b146106005780635fe3b5671461062057600080fd5b80633b1d21a21461058d57806347bd3718146105a25780634e4d9fea146105b857600080fd5b8063182df0f51161032357806323b872dd116102fd57806323b872dd14610501578063313ce5671461052157806334154d4c1461054d5780633af9e6691461056d57600080fd5b8063182df0f5146104c45780631db78944146104d9578063219ef65c146104e157600080fd5b806315761d511161035f57806315761d5114610432578063173b99041461046a57806317bfdfbc1461048e57806318160ddd146104ae57600080fd5b806306fdde03146103cd578063095ea7b3146103f85780631249c58b1461042857600080fd5b366103c857600061039534610a7a565b5090506103c5816040518060400160405280600b81526020016a1b5a5b9d0819985a5b195960aa1b815250610ae1565b50005b600080fd5b3480156103d957600080fd5b506103e2610dc3565b6040516103ef919061562a565b60405180910390f35b34801561040457600080fd5b50610418610413366004615652565b610e51565b60405190151581526020016103ef565b610430610ec1565b005b34801561043e57600080fd5b50600154610452906001600160a01b031681565b6040516001600160a01b0390911681526020016103ef565b34801561047657600080fd5b50610480600b5481565b6040519081526020016103ef565b34801561049a57600080fd5b506104806104a936600461567e565b610eff565b3480156104ba57600080fd5b5061048060125481565b3480156104d057600080fd5b50610480610f4d565b610430610fde565b3480156104ed57600080fd5b506104306104fc366004615781565b61110f565b34801561050d57600080fd5b5061041861051c366004615849565b61143e565b34801561052d57600080fd5b5060055461053b9060ff1681565b60405160ff90911681526020016103ef565b34801561055957600080fd5b506104306105683660046158cc565b61146c565b34801561057957600080fd5b5061048061058836600461567e565b6114cc565b34801561059957600080fd5b5061048061157c565b3480156105ae57600080fd5b50610480600e5481565b61043061158b565b3480156105cc57600080fd5b506104306105db366004615946565b6115cd565b3480156105ec57600080fd5b506104306105fb36600461599f565b611651565b34801561060c57600080fd5b50600054610452906001600160a01b031681565b34801561062c57600080fd5b50600654610452906001600160a01b031681565b34801561064c57600080fd5b5061048061065b3660046159e1565b6116aa565b34801561066c57600080fd5b5061048060105481565b34801561068257600080fd5b50610480666379da05b6000081565b34801561069d57600080fd5b50610480600c5481565b3480156106b357600080fd5b50601654610452906001600160a01b031681565b3480156106d357600080fd5b506104806106e236600461567e565b6001600160a01b031660009081526013602052604090205490565b34801561070957600080fd5b50610480611701565b34801561071e57600080fd5b5061048061072d3660046159e1565b611746565b34801561073e57600080fd5b5061048060095481565b34801561075457600080fd5b50610480600f5481565b34801561076a57600080fd5b506104806107793660046159e1565b611751565b34801561078a57600080fd5b506103e2611794565b34801561079f57600080fd5b506104806107ae36600461567e565b6117a1565b3480156107bf57600080fd5b506104806107ce3660046159e1565b611842565b3480156107df57600080fd5b506104306107ee3660046159fa565b611885565b3480156107ff57600080fd5b506104806118ac565b34801561081457600080fd5b506104806108233660046159e1565b611a63565b34801561083457600080fd5b50610418610843366004615652565b611aa6565b34801561085457600080fd5b50610480600d5481565b61043061086c366004615aa9565b611ad3565b34801561087d57600080fd5b50610418600181565b34801561089257600080fd5b50610480611b1b565b3480156108a757600080fd5b506104806108b6366004615849565b611bde565b3480156108c757600080fd5b50610480611c02565b3480156108dc57600080fd5b5061048067016345785d8a000081565b3480156108f857600080fd5b5061090c61090736600461567e565b611c48565b6040805194855260208501939093529183015260608201526080016103ef565b34801561093857600080fd5b506104806109473660046159e1565b611ce9565b34801561095857600080fd5b506104806109673660046159e1565b611cf4565b34801561097857600080fd5b50610480600a5481565b34801561098e57600080fd5b5061048060115481565b3480156109a457600080fd5b506104806109b3366004615aa9565b6001600160a01b03918216600090815260146020908152604080832093909416825291909152205490565b6104306109ec36600461567e565b611cff565b3480156109fd57600080fd5b50610480610a0c36600461567e565b611d51565b348015610a1d57600080fd5b50600754610452906001600160a01b031681565b348015610a3d57600080fd5b50610480611d89565b348015610a5257600080fd5b50610480610a613660046159e1565b611ded565b348015610a7257600080fd5b506001610418565b6000806000610a8881611e30565b6000610a926118ac565b90508015610ac257610ab6816011811115610aaf57610aaf615ae2565b6020611ef4565b60009350935050610ad2565b610acc3386611f6d565b93509350505b610adb81612331565b50915091565b81610aea575050565b600081516007610afa9190615b0e565b67ffffffffffffffff811115610b1257610b126156ab565b6040519080825280601f01601f191660200182016040528015610b3c576020820181803683370190505b50905060005b8251811015610ba357828181518110610b5d57610b5d615b26565b602001015160f81c60f81b828281518110610b7a57610b7a615b26565b60200101906001600160f81b031916908160001a90535080610b9b81615b3c565b915050610b42565b600160fd1b82610bb4836000615b0e565b81518110610bc457610bc4615b26565b60200101906001600160f81b031916908160001a905350600560fb1b82610bec836001615b0e565b81518110610bfc57610bfc615b26565b60200101906001600160f81b031916908160001a905350610c1f6103e885615b6d565b610c2a906030615b0e565b60f81b82610c39836002615b0e565b81518110610c4957610c49615b26565b60200101906001600160f81b031916908160001a905350600a610c6d606486615b6d565b610c779190615b81565b610c82906030615b0e565b60f81b82610c91836003615b0e565b81518110610ca157610ca1615b26565b60200101906001600160f81b031916908160001a905350600a610cc48186615b6d565b610cce9190615b81565b610cd9906030615b0e565b60f81b82610ce8836004615b0e565b81518110610cf857610cf8615b26565b60200101906001600160f81b031916908160001a905350610d1a600a85615b81565b610d25906030615b0e565b60f81b82610d34836005615b0e565b81518110610d4457610d44615b26565b60200101906001600160f81b031916908160001a905350602960f81b82610d6c836006615b0e565b81518110610d7c57610d7c615b26565b60200101906001600160f81b031916908160001a905350818415610dbc5760405162461bcd60e51b8152600401610db3919061562a565b60405180910390fd5b5050505050565b60038054610dd090615b95565b80601f0160208091040260200160405190810160405280929190818152602001828054610dfc90615b95565b8015610e495780601f10610e1e57610100808354040283529160200191610e49565b820191906000526020600020905b815481529060010190602001808311610e2c57829003601f168201915b505050505081565b3360008181526014602090815260408083206001600160a01b03871680855292528083208590555191929182907f8c5be1e5ebec7d5bd14f71427d1e84f3dd0314c0f7b2291e5b200ac8c7c3b92590610ead9087815260200190565b60405180910390a360019150505b92915050565b6000610ecc34610a7a565b509050610efc816040518060400160405280600b81526020016a1b5a5b9d0819985a5b195960aa1b815250610ae1565b50565b600080610f0b81611e30565b6000610f156118ac565b14610f325760405162461bcd60e51b8152600401610db390615bca565b610f3b836117a1565b91505b610f4781612331565b50919050565b6000806000610f5a6123ad565b90925090506000826003811115610f7357610f73615ae2565b14610ebb5760405162461bcd60e51b815260206004820152603560248201527f65786368616e67655261746553746f7265643a2065786368616e67655261746560448201527414dd1bdc9959125b9d195c9b985b0819985a5b1959605a1b6064820152608401610db3565b3330148015906110605750600660009054906101000a90046001600160a01b03166001600160a01b031663dd5cd22c6040518163ffffffff1660e01b8152600401602060405180830381865afa15801561103c573d6000803e3d6000fd5b505050506040513d601f19601f820116820180604052508101906110609190615bfa565b1561110d5760015460008054604051638abe0b7560e01b81526001600160a01b03918216600482015291928392839290911690638abe0b7590602401600060405180830381865afa1580156110b9573d6000803e3d6000fd5b505050506040513d6000823e601f3d908101601f191682016040526110e19190810190615c17565b60005492955090935091506001600160a01b038085169116146111095761110983838361247a565b5050505b565b336001600160a01b038916146111795760405162461bcd60e51b815260206004820152602960248201527f6f6e6c7920467573652061646d696e206d617920696e697469616c697a6520746044820152681a19481b585c9ad95d60ba1b6064820152608401610db3565b600c541580156111895750600d54155b6111e15760405162461bcd60e51b815260206004820152602360248201527f6d61726b6574206d6179206f6e6c7920626520696e697469616c697a6564206f6044820152626e636560e81b6064820152608401610db3565b600180546001600160a01b0319166001600160a01b038a161790556008869055856112675760405162461bcd60e51b815260206004820152603060248201527f696e697469616c2065786368616e67652072617465206d75737420626520677260448201526f32b0ba32b9103a3430b7103d32b9379760811b6064820152608401610db3565b60006112728a6125ff565b905080156112c25760405162461bcd60e51b815260206004820152601a60248201527f73657474696e6720636f6d7074726f6c6c6572206661696c65640000000000006044820152606401610db3565b43600c55670de0b6b3a7640000600d556112db8861272a565b905080156113365760405162461bcd60e51b815260206004820152602260248201527f73657474696e6720696e7465726573742072617465206d6f64656c206661696c604482015261195960f21b6064820152608401610db3565b85516113499060039060208901906154c9565b50845161135d9060049060208801906154c9565b506005805460ff191660ff86161790556113768361299a565b905080156113c65760405162461bcd60e51b815260206004820152601d60248201527f73657474696e67207265736572766520666163746f72206661696c65640000006044820152606401610db3565b6113cf82612a39565b9050801561141f5760405162461bcd60e51b815260206004820152601860248201527f73657474696e672061646d696e20666565206661696c656400000000000000006044820152606401610db3565b50506002805460ff60b01b1916600160b01b1790555050505050505050565b60008061144a81611e30565b600061145833878787612b53565b14915061146481612331565b509392505050565b611474612df1565b6114b35760405162461bcd60e51b815260206004820152601060248201526f31b0b63632b9103737ba1030b236b4b760811b6044820152606401610db3565b6114bf60038585615549565b50610dbc60048383615549565b60008060405180602001604052806114e2611c02565b90526001600160a01b03841660009081526013602052604081205491925090819061150e908490612f5c565b9092509050600082600381111561152757611527615ae2565b146115745760405162461bcd60e51b815260206004820152601f60248201527f62616c616e636520636f756c64206e6f742062652063616c63756c61746564006044820152606401610db3565b949350505050565b6000611586612fae565b905090565b600061159634612fe0565b509050610efc81604051806040016040528060128152602001711c995c185e509bdc9c9bddc819985a5b195960721b815250610ae1565b6115d5612df1565b61160a5760405162461bcd60e51b815260206004820152600660248201526510b0b236b4b760d11b6044820152606401610db3565b61164b848484848080601f01602080910402602001604051908101604052809392919081815260200183838082843760009201919091525061247a92505050565b50505050565b333014806116625750611662612df1565b6116965760405162461bcd60e51b815260206004820152600560248201526410b9b2b63360d91b6044820152606401610db3565b5050600280546001600160b01b0319169055565b6000806116b681611e30565b60006116c06118ac565b905080156116ec576116e48160118111156116dd576116dd615ae2565b603b611ef4565b925050610f3e565b6116f584613027565b925050610f4781612331565b60008061170d81611e30565b60006117176118ac565b146117345760405162461bcd60e51b8152600401610db390615bca565b600e54915061174281612331565b5090565b6000610ebb826130d8565b60008061175d81611e30565b60006117676118ac565b9050801561178b576116e481601181111561178457611784615ae2565b6052611ef4565b6116f584612a39565b60048054610dd090615b95565b60008060006117af8461311e565b909250905060008260038111156117c8576117c8615ae2565b1461183b5760405162461bcd60e51b815260206004820152603760248201527f626f72726f7742616c616e636553746f7265643a20626f72726f7742616c616e60448201527f636553746f726564496e7465726e616c206661696c65640000000000000000006064820152608401610db3565b9392505050565b60008061184e81611e30565b60006118586118ac565b9050801561187c576116e481601181111561187557611875615ae2565b6033611ef4565b6116f5846131d7565b6702c68af0bb14000060126118a1898989858a8a878b8b61110f565b505050505050505050565b600c5460009043908114156118c45760005b91505090565b60006118ce612fae565b90506000600760009054906101000a90046001600160a01b03166001600160a01b03166315f2405383600e54611913600f5461190e60105460115461324a565b61324a565b6040516001600160e01b031960e086901b168152600481019390935260248301919091526044820152606401602060405180830381865afa15801561195c573d6000803e3d6000fd5b505050506040513d601f19601f820116820180604052508101906119809190615cb7565b905065048c273950008111156119d85760405162461bcd60e51b815260206004820152601c60248201527f626f72726f772072617465206973206162737572646c792068696768000000006044820152606401610db3565b6000806119e785600c54613280565b90925090506000826003811115611a0057611a00615ae2565b14611a4d5760405162461bcd60e51b815260206004820152601f60248201527f636f756c64206e6f742063616c63756c61746520626c6f636b2064656c7461006044820152606401610db3565b611a59858585846132ab565b9550505050505090565b600080611a6f81611e30565b6000611a796118ac565b90508015611a9d576116e4816011811115611a9657611a96615ae2565b6037611ef4565b6116f5846133d7565b600080611ab281611e30565b6000611ac033338787612b53565b149150611acc81612331565b5092915050565b6000611ae08334846134b5565b50905061110981604051806040016040528060168152602001751b1a5c5d5a59185d19509bdc9c9bddc819985a5b195960521b815250610ae1565b6007546000906001600160a01b031663b8168816611b37612fae565b600e54611b4e600f5461190e60105460115461324a565b600954600a54600b54611b619190615b0e565b611b6b9190615b0e565b6040516001600160e01b031960e087901b16815260048101949094526024840192909252604483015260648201526084015b602060405180830381865afa158015611bba573d6000803e3d6000fd5b505050506040513d601f19601f820116820180604052508101906115869190615cb7565b60006001611beb81611e30565b611bf7338686866135a9565b915061146481612331565b600080611c0e81611e30565b6000611c186118ac565b14611c355760405162461bcd60e51b8152600401610db390615bca565b611c3d610f4d565b915061174281612331565b6001600160a01b038116600090815260136020526040812054819081908190818080611c738961311e565b935090506000816003811115611c8b57611c8b615ae2565b14611ca95760095b6000806000975097509750975050505050611ce2565b611cb16123ad565b925090506000816003811115611cc957611cc9615ae2565b14611cd5576009611c93565b5060009650919450925090505b9193509193565b6000610ebb82613aa1565b6000610ebb82613ae5565b6000611d0b8234613b24565b509050611d4d816040518060400160405280601881526020017f7265706179426f72726f77426568616c66206661696c65640000000000000000815250610ae1565b5050565b600080611d5c6118ac565b90508015611d805761183b816011811115611d7957611d79615ae2565b604b611ef4565b61183b8361272a565b6007546000906001600160a01b03166315f24053611da5612fae565b600e54611dbc600f5461190e60105460115461324a565b6040516001600160e01b031960e086901b168152600481019390935260248301919091526044820152606401611b9d565b600080611df981611e30565b6000611e036118ac565b90508015611e27576116e4816011811115611e2057611e20615ae2565b6059611ef4565b6116f58461299a565b600254600160b01b900460ff16611e765760405162461bcd60e51b815260206004820152600a6024820152691c994b595b9d195c995960b21b6044820152606401610db3565b80611ee457600660009054906101000a90046001600160a01b03166001600160a01b031663c90c20b16040518163ffffffff1660e01b8152600401600060405180830381600087803b158015611ecb57600080fd5b505af1158015611edf573d6000803e3d6000fd5b505050505b506002805460ff60b01b19169055565b60007f45b96fe442630264581b197e84bbada861235052c5a1aadfff9ea4e40a969aa0836011811115611f2957611f29615ae2565b836063811115611f3b57611f3b615ae2565b60408051928352602083019190915260009082015260600160405180910390a182601181111561183b5761183b615ae2565b600654604051634ef4c3e160e01b8152600091829182916001600160a01b031690634ef4c3e190611fa690309089908990600401615cd0565b6020604051808303816000875af1158015611fc5573d6000803e3d6000fd5b505050506040513d601f19601f82011682018060405250810190611fe99190615cb7565b9050801561200a57611ffe6003602183613b8e565b6000925092505061232a565b43600c541461201f57611ffe600a6024611ef4565b6120606040805160e0810190915280600081526020016000815260200160008152602001600081526020016000815260200160008152602001600081525090565b6120686123ad565b604083018190526020830182600381111561208557612085615ae2565b600381111561209657612096615ae2565b90525060009050816020015160038111156120b3576120b3615ae2565b146120e7576120da60096023836020015160038111156120d5576120d5615ae2565b613b8e565b600093509350505061232a565b6120f18686613c30565b60c08201819052604080516020810182529083015181526121129190613cbc565b606083018190526020830182600381111561212f5761212f615ae2565b600381111561214057612140615ae2565b905250600090508160200151600381111561215d5761215d615ae2565b146121aa5760405162461bcd60e51b815260206004820181905260248201527f4d494e545f45584348414e47455f43414c43554c4154494f4e5f4641494c45446044820152606401610db3565b6121ba601254826060015161324a565b60808201526001600160a01b03861660009081526013602052604090205460608201516121e7919061324a565b60a0820181905260808201516012556001600160a01b038716600090815260136020526040908190209190915560c0820151606083015191517f4c209b5fc8ad50758f13e2e1088ba56a560dff690a1c6fef26394f4c03821c4f92612250928a92909190615cf4565b60405180910390a1856001600160a01b0316306001600160a01b0316600080516020615da9833981519152836060015160405161228f91815260200190565b60405180910390a360065460c082015160608301516040516341c728b960e01b81523060048201526001600160a01b038a81166024830152604482019390935260648101919091529116906341c728b990608401600060405180830381600087803b1580156122fd57600080fd5b505af1158015612311573d6000803e3d6000fd5b506000925061231e915050565b8160c001519350935050505b9250929050565b6002805460ff60b01b1916600160b01b17905580610efc57600660009054906101000a90046001600160a01b03166001600160a01b031663632e51426040518163ffffffff1660e01b8152600401600060405180830381600087803b15801561239957600080fd5b505af1158015610dbc573d6000803e3d6000fd5b6012546000908190806123c7575050600854600092909150565b60006123d1612fae565b905060006123eb6040518060200160405280600081525090565b600061240d84600e54612408600f5461190e60105460115461324a565b613ccc565b93509050600081600381111561242557612425615ae2565b14612437579660009650945050505050565b6124418386613d1f565b92509050600081600381111561245957612459615ae2565b1461246b579660009650945050505050565b50516000969095509350505050565b600154600054604051630304735160e61b81526001600160a01b0391821660048201528582166024820152841515604482015291169063c11cd44090606401602060405180830381865afa1580156124d6573d6000803e3d6000fd5b505050506040513d601f19601f820116820180604052508101906124fa9190615bfa565b61252e5760405162461bcd60e51b8152602060048201526005602482015264085a5b5c1b60da1b6044820152606401610db3565b600080546001600160a01b038581166001600160a01b03198316179092556040519116906125b190309061256690859060240161562a565b60408051601f19818403018152918152602080830180516001600160e01b0316630adccee560e31b17905281518083019092526007825266216265636f6d6560c81b90820152613dea565b50600054604080516001600160a01b03808516825290921660208301527fd604de94d45953f9138079ec1b82d533cb2160c906d1076d1f7ed54befbca97a910160405180910390a150505050565b600080600660009054906101000a90046001600160a01b03169050826001600160a01b0316627e3dd26040518163ffffffff1660e01b8152600401602060405180830381865afa158015612657573d6000803e3d6000fd5b505050506040513d601f19601f8201168201806040525081019061267b9190615bfa565b6126c75760405162461bcd60e51b815260206004820152601c60248201527f6d61726b6572206d6574686f642072657475726e65642066616c7365000000006044820152606401610db3565b600680546001600160a01b0319166001600160a01b0385811691821790925560408051928416835260208301919091527f7ac369dbd14fa5ea3f473ed67cc9d598964a77501540ba6751eb0b3decf5870d91015b60405180910390a1600061183b565b600080612735612df1565b6127455761183b6001604d611ef4565b43600c541461275a5761183b600a604c611ef4565b600760009054906101000a90046001600160a01b03169050826001600160a01b0316632191f92a6040518163ffffffff1660e01b8152600401602060405180830381865afa1580156127b0573d6000803e3d6000fd5b505050506040513d601f19601f820116820180604052508101906127d49190615bfa565b6128205760405162461bcd60e51b815260206004820152601c60248201527f6d61726b6572206d6574686f642072657475726e65642066616c7365000000006044820152606401610db3565b600780546001600160a01b0319166001600160a01b0385811691821790925560408051928416835260208301919091527fedffc32e068c7c95dfd4bdfd5c4d939a084d6b11c4199eac8436ed234d72f926910160405180910390a16001600160a01b0381161561290e5760408051600481526024810182526020810180516001600160e01b0316636cc1140b60e11b17905290516001600160a01b038316916128c891615d15565b6000604051808303816000865af19150503d8060008114612905576040519150601f19603f3d011682016040523d82523d6000602084013e61290a565b606091505b5050505b60408051600481526024810182526020810180516001600160e01b031663742a137b60e11b17905290516001600160a01b0385169161294c91615d15565b6000604051808303816000865af19150503d8060008114612989576040519150601f19603f3d011682016040523d82523d6000602084013e61298e565b606091505b506000915061183b9050565b60006129a4612df1565b6129b457610ebb6001605a611ef4565b43600c54146129c957610ebb600a605b611ef4565b670de0b6b3a76400006129e96129e18460095461324a565b600a5461324a565b11156129fb57610ebb6002605c611ef4565b600b80549083905560408051828152602081018590527faaa68312e2ea9d50e16af5068410ab56e1a1fd06037b1a35664812c30f821460910161271b565b600043600c5414612a5057610ebb600a6054611ef4565b600019821415612a605760095491505b6000612a6a613e86565b9050670de0b6b3a7640000612a8a612a84600b548661324a565b8361324a565b1115612a9c5761183b60026055611ef4565b8260095414612b0057612aad612df1565b612abd5761183b60016053611ef4565b600980549084905560408051828152602081018690527fcdd0b588250e1398549f79cfdb8217c186688822905d6715b0834ea1c865594a910160405180910390a1505b80600a5414612b4c57600a80549082905560408051828152602081018490527f92eef861b6533b7d3417f39c2ad7b460eed4e88a32fa3604f30e718b7602e7dc910160405180910390a1505b600061183b565b6006546040516317b9b84b60e31b81523060048201526001600160a01b038581166024830152848116604483015260648201849052600092839291169063bdcdc258906084016020604051808303816000875af1158015612bb8573d6000803e3d6000fd5b505050506040513d601f19601f82011682018060405250810190612bdc9190615cb7565b90508015612bf957612bf16003605d83613b8e565b915050611574565b836001600160a01b0316856001600160a01b03161415612c1f57612bf16002605e611ef4565b6000856001600160a01b0316876001600160a01b03161415612c445750600019612c6c565b506001600160a01b038086166000908152601460209081526040808320938a16835292905220545b600080600080612c7c8589613280565b90945092506000846003811115612c9557612c95615ae2565b14612cb357612ca66009605e611ef4565b9650505050505050611574565b6001600160a01b038a16600090815260136020526040902054612cd69089613280565b90945091506000846003811115612cef57612cef615ae2565b14612d0057612ca66009605f611ef4565b6001600160a01b038916600090815260136020526040902054612d239089613ed0565b90945090506000846003811115612d3c57612d3c615ae2565b14612d4d57612ca660096060611ef4565b6001600160a01b03808b16600090815260136020526040808220859055918b168152208190556000198514612da5576001600160a01b03808b166000908152601460209081526040808320938f168352929052208390555b886001600160a01b03168a6001600160a01b0316600080516020615da98339815191528a604051612dd891815260200190565b60405180910390a35060009a9950505050505050505050565b600654604080516303e1469160e61b815290516000926001600160a01b031691829163f851a440916004808201926020929091908290030181865afa158015612e3e573d6000803e3d6000fd5b505050506040513d601f19601f82011682018060405250810190612e629190615d31565b6001600160a01b0316336001600160a01b0316148015612edf5750806001600160a01b0316630a755ec26040518163ffffffff1660e01b8152600401602060405180830381865afa158015612ebb573d6000803e3d6000fd5b505050506040513d601f19601f82011682018060405250810190612edf9190615bfa565b806118be57506001546001600160a01b0316331480156118be5750806001600160a01b0316632f1069ba6040518163ffffffff1660e01b8152600401602060405180830381865afa158015612f38573d6000803e3d6000fd5b505050506040513d601f19601f820116820180604052508101906118be9190615bfa565b600080600080612f6c8686613f00565b90925090506000826003811115612f8557612f85615ae2565b14612f96575091506000905061232a565b6000612fa182613f7c565b9350935050509250929050565b6000806000612fbd4734613280565b90925090506000826003811115612fd657612fd6615ae2565b14610ebb57600080fd5b6000806000612fee81611e30565b6000612ff86118ac565b9050801561301c57610ab681601181111561301557613015615ae2565b6041611ef4565b610acc333387613f94565b600080613032612df1565b6130425761183b6001603c611ef4565b43600c54146130575761183b600a603e611ef4565b82613060612fae565b10156130725761183b600e603d611ef4565b600f548311156130885761183b6002603f611ef4565b613094600f54846143ac565b600f81905590506130a533846143e6565b7f3bad0c59cf2f06e7314077049f48a93578cd16f5ef92329f1dab1420a99c177e33848360405161271b93929190615cf4565b6000806130e481611e30565b60006130ee6118ac565b90508015613112576116e481601181111561310b5761310b615ae2565b602a611ef4565b6116f533600086614480565b6001600160a01b0381166000908152601560205260408120805482918291829182916131535750600096879650945050505050565b6131638160000154600d54614a06565b9094509250600084600381111561317c5761317c615ae2565b1461318f57509195600095509350505050565b61319d838260010154614a50565b909450915060008460038111156131b6576131b6615ae2565b146131c957509195600095509350505050565b506000969095509350505050565b60008043600c54146131ef5761183b600a6035611ef4565b826131f8612fae565b101561320a5761183b600e6034611ef4565b6011548311156132205761183b60026036611ef4565b61322c601154846143ac565b6011819055600154909150612b4c906001600160a01b0316846143e6565b600061183b8383604051806040016040528060118152602001706164646974696f6e206f766572666c6f7760781b815250614a7b565b60008083831161329f5760006132968486615d4e565b9150915061232a565b5060039050600061232a565b6000806132c660405180602001604052808681525084614ab5565b905060006132d682600e54614ae6565b905060006132e682600e5461324a565b905060006133076040518060200160405280600b5481525084600f54614afe565b905060006133286040518060200160405280600a5481525085601154614afe565b90506000613349604051806020016040528060095481525086601054614afe565b9050600061335c87600d54600d54614afe565b600c8d9055600d819055600e869055600f85905560118490556010839055604080518d815260208101899052908101829052606081018790529091507f4dec04e750ca11537cabcd8a9eab06494de08da3735bc8871cd41250e190bc049060800160405180910390a160009c9b505050505050505050505050565b60008043600c54146133ef5761183b600a6039611ef4565b826133f8612fae565b101561340a5761183b600e6038611ef4565b6010548311156134205761183b6002603a611ef4565b61342c601054846143ac565b905080601081905550612b4c600660009054906101000a90046001600160a01b03166001600160a01b031663f851a4406040518163ffffffff1660e01b8152600401602060405180830381865afa15801561348b573d6000803e3d6000fd5b505050506040513d601f19601f820116820180604052508101906134af9190615d31565b846143e6565b60008060006134c381611e30565b60006134cd6118ac565b905080156134fd576134f18160118111156134ea576134ea615ae2565b6011611ef4565b60009350935050613597565b846001600160a01b031663a6afed956040518163ffffffff1660e01b81526004016020604051808303816000875af115801561353d573d6000803e3d6000fd5b505050506040513d601f19601f820116820180604052508101906135619190615cb7565b90508015613585576134f181601181111561357e5761357e615ae2565b6012611ef4565b61359133888888614b1f565b93509350505b6135a081612331565b50935093915050565b60065460405163d02f735160e01b81523060048201526001600160a01b0386811660248301528581166044830152848116606483015260848201849052600092839291169063d02f73519060a4016020604051808303816000875af1158015613616573d6000803e3d6000fd5b505050506040513d601f19601f8201168201806040525081019061363a9190615cb7565b9050801561364f57612bf16003601d83613b8e565b846001600160a01b0316846001600160a01b0316141561367557612bf16006601e611ef4565b6136da604080516101808101909152806000815260200160008152602001600081526020016000815260200160008152602001600081526020016000815260200160008152602001600081526020016000815260200160008152602001600081525090565b6001600160a01b0385166000908152601360205260409020546136fd9085613280565b602083018190528282600381111561371757613717615ae2565b600381111561372857613728615ae2565b905250600090508151600381111561374257613742615ae2565b1461376d576137646009601c836000015160038111156120d5576120d5615ae2565b92505050611574565b61378c846040518060200160405280666379da05b60000815250614fe0565b6080820152604080516020810190915267016345785d8a000081526137b2908590614fe0565b61014082015260808101516137d7906137cc9086906143ac565b8261014001516143ac565b60608201526137e46123ad565b60c08301819052828260038111156137fe576137fe615ae2565b600381111561380f5761380f615ae2565b905250600090508151600381111561382957613829615ae2565b146138765760405162461bcd60e51b815260206004820152601860248201527f65786368616e67652072617465206d617468206572726f7200000000000000006044820152606401610db3565b61389660405180602001604052808360c001518152508260800151614ae6565b60a0820152604080516020810190915260c082015181526101408201516138bd9190614ae6565b610160820152600f5460a08201516138d5919061324a565b60e082015260125460808201516138ef916137cc916143ac565b610120820152601154610160820151613908919061324a565b6101008201526001600160a01b03861660009081526013602052604090205460608201516139369190613ed0565b604083018190528282600381111561395057613950615ae2565b600381111561396157613961615ae2565b905250600090508151600381111561397b5761397b615ae2565b1461399d576137646009601b836000015160038111156120d5576120d5615ae2565b60e0810151600f556101208101516012556101008101516011556020808201516001600160a01b0387811660008181526013855260408082209490945583860151928b1680825290849020929092556060850151925192835290929091600080516020615da9833981519152910160405180910390a3306001600160a01b0316856001600160a01b0316600080516020615da98339815191528360800151604051613a4a91815260200190565b60405180910390a360a081015160e08201516040517fa91e67c5ea634cd43a12c5a482724b03de01e85ca68702a53d0c2f45cb7c1dc592613a8c923092615cf4565b60405180910390a16000979650505050505050565b600080613aad81611e30565b6000613ab76118ac565b90508015613adb576116e4816011811115613ad457613ad4615ae2565b600a611ef4565b6116f53385615003565b600080613af181611e30565b6000613afb6118ac565b90508015613b18576116e481601181111561310b5761310b615ae2565b6116f533856000614480565b6000806000613b3281611e30565b6000613b3c6118ac565b90508015613b6c57613b60816011811115613b5957613b59615ae2565b6040611ef4565b60009350935050613b7d565b613b77338787613f94565b93509350505b613b8681612331565b509250929050565b60007f45b96fe442630264581b197e84bbada861235052c5a1aadfff9ea4e40a969aa0846011811115613bc357613bc3615ae2565b846063811115613bd557613bd5615ae2565b604080519283526020830191909152810184905260600160405180910390a16003846011811115613c0857613c08615ae2565b14613c2457836011811115613c1f57613c1f615ae2565b611574565b611574826103e8615b0e565b6000336001600160a01b03841614613c7c5760405162461bcd60e51b815260206004820152600f60248201526e0e6cadcc8cae440dad2e6dac2e8c6d608b1b6044820152606401610db3565b813414610f475760405162461bcd60e51b815260206004820152600e60248201526d0ecc2d8eaca40dad2e6dac2e8c6d60931b6044820152606401610db3565b600080600080612f6c8686615397565b600080600080613cdc8787613ed0565b90925090506000826003811115613cf557613cf5615ae2565b14613d065750915060009050613d17565b613d108186613280565b9350935050505b935093915050565b6000613d376040518060200160405280600081525090565b600080613d4c86670de0b6b3a7640000614a06565b90925090506000826003811115613d6557613d65615ae2565b14613d845750604080516020810190915260008152909250905061232a565b600080613d918388614a50565b90925090506000826003811115613daa57613daa615ae2565b14613dcd578160405180602001604052806000815250955095505050505061232a565b604080516020810190915290815260009890975095505050505050565b6060600080856001600160a01b031685604051613e079190615d15565b6000604051808303816000865af19150503d8060008114613e44576040519150601f19603f3d011682016040523d82523d6000602084013e613e49565b606091505b509150915081613e7d57805115613e635780518082602001fd5b8360405162461bcd60e51b8152600401610db3919061562a565b95945050505050565b6001546040805163dd86fea160e01b815290516000926001600160a01b03169163dd86fea19160048083019260209291908290030181865afa158015611bba573d6000803e3d6000fd5b60008080613ede8486615b0e565b9050848110613ef25760009250905061232a565b60026000925092505061232a565b6000613f186040518060200160405280600081525090565b600080613f29866000015186614a06565b90925090506000826003811115613f4257613f42615ae2565b14613f615750604080516020810190915260008152909250905061232a565b60408051602081019091529081526000969095509350505050565b8051600090610ebb90670de0b6b3a764000090615b6d565b600654604051631200453160e11b81523060048201526001600160a01b03858116602483015284811660448301526064820184905260009283928392909116906324008a62906084016020604051808303816000875af1158015613ffc573d6000803e3d6000fd5b505050506040513d601f19601f820116820180604052508101906140209190615cb7565b90508015614041576140356003604383613b8e565b60009250925050613d17565b43600c541461405657614035600a6044611ef4565b61409f6040805161010081019091528060008152602001600081526020016000815260200160008152602001600081526020016000815260200160008152602001600081525090565b6001600160a01b03861660009081526015602052604090206001015460608201526140c98661311e565b60808301819052602083018260038111156140e6576140e6615ae2565b60038111156140f7576140f7615ae2565b905250600090508160200151600381111561411457614114615ae2565b146141435761413660096042836020015160038111156120d5576120d5615ae2565b6000935093505050613d17565b60001985141561415c5760808101516040820152614164565b604081018590525b614172878260400151613c30565b60e08201819052608082015161418791613280565b60a08301819052602083018260038111156141a4576141a4615ae2565b60038111156141b5576141b5615ae2565b90525060009050816020015160038111156141d2576141d2615ae2565b146142455760405162461bcd60e51b815260206004820152603a60248201527f52455041595f424f52524f575f4e45575f4143434f554e545f424f52524f575f60448201527f42414c414e43455f43414c43554c4154494f4e5f4641494c45440000000000006064820152608401610db3565b614255600e548260e00151613280565b60c083018190526020830182600381111561427257614272615ae2565b600381111561428357614283615ae2565b90525060009050816020015160038111156142a0576142a0615ae2565b146143075760405162461bcd60e51b815260206004820152603160248201527f52455041595f424f52524f575f4e45575f544f54414c5f42414c414e43455f43604482015270105310d55310551253d397d19052531151607a1b6064820152608401610db3565b60a081810180516001600160a01b03898116600081815260156020908152604091829020948555600d5460019095019490945560c0870151600e81905560e088015195518251948f16855294840192909252820193909352606081019190915260808101919091527f1a2a22cb034d26d1854bdc6666a5b91fe25efbbb5dcad3b0355478d6f5c362a1910160405180910390a160e00151600097909650945050505050565b600061183b8383604051806040016040528060158152602001747375627472616374696f6e20756e646572666c6f7760581b81525061540a565b6000826001600160a01b03168260405160006040518083038185875af1925050503d8060008114614433576040519150601f19603f3d011682016040523d82523d6000602084013e614438565b606091505b50509050806111095760405162461bcd60e51b8152602060048201526014602482015273191bd51c985b9cd9995c93dd5d0819985a5b195960621b6044820152606401610db3565b600082158061448d575081155b6144f65760405162461bcd60e51b815260206004820152603460248201527f6f6e65206f662072656465656d546f6b656e73496e206f722072656465656d416044820152736d6f756e74496e206d757374206265207a65726f60601b6064820152608401610db3565b6145376040805160e0810190915280600081526020016000815260200160008152602001600081526020016000815260200160008152602001600081525090565b61453f6123ad565b604083018190526020830182600381111561455c5761455c615ae2565b600381111561456d5761456d615ae2565b905250600090508160200151600381111561458a5761458a615ae2565b146145b4576145ac6009602e836020015160038111156120d5576120d5615ae2565b91505061183b565b831561464d5760608101849052604080516020810182529082015181526145db9085612f5c565b60808301819052602083018260038111156145f8576145f8615ae2565b600381111561460957614609615ae2565b905250600090508160200151600381111561462657614626615ae2565b14614648576145ac6009602c836020015160038111156120d5576120d5615ae2565b6146de565b6146698360405180602001604052808460400151815250613cbc565b606083018190526020830182600381111561468657614686615ae2565b600381111561469757614697615ae2565b90525060009050816020015160038111156146b4576146b4615ae2565b146146d6576145ac6009602d836020015160038111156120d5576120d5615ae2565b608081018390525b600654606082015160405163eabe7d9160e01b81526000926001600160a01b03169163eabe7d91916147179130918b9190600401615cd0565b6020604051808303816000875af1158015614736573d6000803e3d6000fd5b505050506040513d601f19601f8201168201806040525081019061475a9190615cb7565b905080156147785761476f6003602b83613b8e565b9250505061183b565b43600c541461478d5761476f600a602f611ef4565b61479d6012548360600151613280565b60a08401819052602084018260038111156147ba576147ba615ae2565b60038111156147cb576147cb615ae2565b90525060009050826020015160038111156147e8576147e8615ae2565b1461480a5761476f60096031846020015160038111156120d5576120d5615ae2565b6001600160a01b03861660009081526013602052604090205460608301516148329190613280565b60c084018190526020840182600381111561484f5761484f615ae2565b600381111561486057614860615ae2565b905250600090508260200151600381111561487d5761487d615ae2565b1461489f5761476f60096030846020015160038111156120d5576120d5615ae2565b81608001516148ac612fae565b10156148be5761476f600e6032611ef4565b60a082015160125560c08201516001600160a01b03871660009081526013602052604090205560808201516148f49087906143e6565b306001600160a01b0316866001600160a01b0316600080516020615da9833981519152846060015160405161492b91815260200190565b60405180910390a3608082015160608301516040517fe5b754fb1abb7f01b499791d0b820ae3b6af3424ac1c59768edb53f4ec31a9299261496d928a92615cf4565b60405180910390a1600654608083015160608401516040516351dff98960e01b81523060048201526001600160a01b038a81166024830152604482019390935260648101919091529116906351dff98990608401600060405180830381600087803b1580156149db57600080fd5b505af11580156149ef573d6000803e3d6000fd5b50600092506149fc915050565b9695505050505050565b60008083614a195750600090508061232a565b6000614a258486615d65565b905083614a328683615b6d565b14614a455760026000925092505061232a565b60009250905061232a565b60008082614a64575060019050600061232a565b6000614a708486615b6d565b915091509250929050565b600080614a888486615b0e565b90508285821015614aac5760405162461bcd60e51b8152600401610db3919061562a565b50949350505050565b6040805160208101909152600081526040518060200160405280614add856000015185615439565b90529392505050565b600080614af38484614ab5565b905061157481613f7c565b600080614b0b8585614ab5565b9050613e7d614b1982613f7c565b8461324a565b600654604051632fe3f38f60e11b81523060048201526001600160a01b03838116602483015286811660448301528581166064830152608482018590526000928392839290911690635fc7e71e9060a4016020604051808303816000875af1158015614b8f573d6000803e3d6000fd5b505050506040513d601f19601f82011682018060405250810190614bb39190615cb7565b90508015614bd457614bc86003601483613b8e565b60009250925050614fd7565b43600c5414614be957614bc8600a6018611ef4565b43846001600160a01b0316636c540baf6040518163ffffffff1660e01b8152600401602060405180830381865afa158015614c28573d6000803e3d6000fd5b505050506040513d601f19601f82011682018060405250810190614c4c9190615cb7565b14614c5d57614bc8600a6013611ef4565b866001600160a01b0316866001600160a01b03161415614c8357614bc860066019611ef4565b84614c9457614bc860076017611ef4565b600019851415614caa57614bc860076016611ef4565b600080614cb8898989613f94565b90925090508115614ced57614cdf826011811115614cd857614cd8615ae2565b601a611ef4565b600094509450505050614fd7565b60065460405163c488847b60e01b815260009182916001600160a01b039091169063c488847b90614d269030908c908890600401615cd0565b6040805180830381865afa158015614d42573d6000803e3d6000fd5b505050506040513d601f19601f82011682018060405250810190614d669190615d84565b90925090508115614dd55760405162461bcd60e51b815260206004820152603360248201527f4c49515549444154455f434f4d5054524f4c4c45525f43414c43554c4154455f604482015272105353d5539517d4d152569157d19052531151606a1b6064820152608401610db3565b6040516370a0823160e01b81526001600160a01b038b811660048301528291908a16906370a0823190602401602060405180830381865afa158015614e1e573d6000803e3d6000fd5b505050506040513d601f19601f82011682018060405250810190614e429190615cb7565b1015614e905760405162461bcd60e51b815260206004820152601860248201527f4c49515549444154455f5345495a455f544f4f5f4d55434800000000000000006044820152606401610db3565b60006001600160a01b038916301415614eb657614eaf308d8d856135a9565b9050614f2c565b60405163b2a02ff160e01b81526001600160a01b038a169063b2a02ff190614ee6908f908f908790600401615cd0565b6020604051808303816000875af1158015614f05573d6000803e3d6000fd5b505050506040513d601f19601f82011682018060405250810190614f299190615cb7565b90505b8015614f715760405162461bcd60e51b81526020600482015260146024820152731d1bdad95b881cd95a5e9d5c994819985a5b195960621b6044820152606401610db3565b604080516001600160a01b038e811682528d811660208301528183018790528b1660608201526080810184905290517f298637f684da70674f26509b10f07ec2fbc77a335ab1e7d6215a4b2484d8bb529181900360a00190a16000975092955050505050505b94509492505050565b6000670de0b6b3a7640000614ff9848460000151615439565b61183b9190615b6d565b60065460405163368f515360e21b815260009182916001600160a01b039091169063da3d454c9061503c90309088908890600401615cd0565b6020604051808303816000875af115801561505b573d6000803e3d6000fd5b505050506040513d601f19601f8201168201806040525081019061507f9190615cb7565b9050801561509c576150946003601083613b8e565b915050610ebb565b43600c54146150b157615094600a600c611ef4565b60006150bb612fae565b9050838110156150da576150d1600e600b611ef4565b92505050610ebb565b615106604080516080810190915280600081526020016000815260200160008152602001600081525090565b61510f8661311e565b602083018190528282600381111561512957615129615ae2565b600381111561513a5761513a615ae2565b905250600090508151600381111561515457615154615ae2565b1461517f57615175600980836000015160038111156120d5576120d5615ae2565b9350505050610ebb565b61518d816020015186613ed0565b60408301819052828260038111156151a7576151a7615ae2565b60038111156151b8576151b8615ae2565b90525060009050815160038111156151d2576151d2615ae2565b146151f4576151756009600e836000015160038111156120d5576120d5615ae2565b6006546040828101519051631de6c8a560e21b815230600482015260248101919091526001600160a01b039091169063779b2294906044016020604051808303816000875af115801561524b573d6000803e3d6000fd5b505050506040513d601f19601f8201168201806040525081019061526f9190615cb7565b92508215615284576151756003601085613b8e565b615290600e5486613ed0565b60608301819052828260038111156152aa576152aa615ae2565b60038111156152bb576152bb615ae2565b90525060009050815160038111156152d5576152d5615ae2565b146152f7576151756009600d836000015160038111156120d5576120d5615ae2565b6040808201516001600160a01b0388166000908152601560205291909120908155600d546001909101556060810151600e5561533386866143e6565b60408082015160608084015183516001600160a01b038b168152602081018a9052938401929092528201527f13ed6866d4e1ee6da46f845c46d7e54120883d75c5ea9a2dacc1c4ca8984ab809060800160405180910390a160009695505050505050565b60006153af6040518060200160405280600081525090565b6000806153c4670de0b6b3a764000087614a06565b909250905060008260038111156153dd576153dd615ae2565b146153fc5750604080516020810190915260008152909250905061232a565b612fa1818660000151613d1f565b6000818484111561542e5760405162461bcd60e51b8152600401610db3919061562a565b506115748385615d4e565b600061183b83836040518060400160405280601781526020017f6d756c7469706c69636174696f6e206f766572666c6f770000000000000000008152506000831580615483575082155b156154905750600061183b565b600061549c8486615d65565b9050836154a98683615b6d565b148390614aac5760405162461bcd60e51b8152600401610db3919061562a565b8280546154d590615b95565b90600052602060002090601f0160209004810192826154f7576000855561553d565b82601f1061551057805160ff191683800117855561553d565b8280016001018555821561553d579182015b8281111561553d578251825591602001919060010190615522565b506117429291506155bd565b82805461555590615b95565b90600052602060002090601f016020900481019282615577576000855561553d565b82601f106155905782800160ff1982351617855561553d565b8280016001018555821561553d579182015b8281111561553d5782358255916020019190600101906155a2565b5b8082111561174257600081556001016155be565b60005b838110156155ed5781810151838201526020016155d5565b8381111561164b5750506000910152565b600081518084526156168160208601602086016155d2565b601f01601f19169290920160200192915050565b60208152600061183b60208301846155fe565b6001600160a01b0381168114610efc57600080fd5b6000806040838503121561566557600080fd5b82356156708161563d565b946020939093013593505050565b60006020828403121561569057600080fd5b813561183b8161563d565b80356156a68161563d565b919050565b634e487b7160e01b600052604160045260246000fd5b604051601f8201601f1916810167ffffffffffffffff811182821017156156ea576156ea6156ab565b604052919050565b600067ffffffffffffffff82111561570c5761570c6156ab565b50601f01601f191660200190565b600082601f83011261572b57600080fd5b813561573e615739826156f2565b6156c1565b81815284602083860101111561575357600080fd5b816020850160208301376000918101602001919091529392505050565b803560ff811681146156a657600080fd5b60008060008060008060008060006101208a8c0312156157a057600080fd5b89356157ab8161563d565b985060208a01356157bb8161563d565b97506157c960408b0161569b565b965060608a0135955060808a013567ffffffffffffffff808211156157ed57600080fd5b6157f98d838e0161571a565b965060a08c013591508082111561580f57600080fd5b5061581c8c828d0161571a565b94505061582b60c08b01615770565b925060e08a013591506101008a013590509295985092959850929598565b60008060006060848603121561585e57600080fd5b83356158698161563d565b925060208401356158798161563d565b929592945050506040919091013590565b60008083601f84011261589c57600080fd5b50813567ffffffffffffffff8111156158b457600080fd5b60208301915083602082850101111561232a57600080fd5b600080600080604085870312156158e257600080fd5b843567ffffffffffffffff808211156158fa57600080fd5b6159068883890161588a565b9096509450602087013591508082111561591f57600080fd5b5061592c8782880161588a565b95989497509550505050565b8015158114610efc57600080fd5b6000806000806060858703121561595c57600080fd5b84356159678161563d565b9350602085013561597781615938565b9250604085013567ffffffffffffffff81111561599357600080fd5b61592c8782880161588a565b600080602083850312156159b257600080fd5b823567ffffffffffffffff8111156159c957600080fd5b6159d58582860161588a565b90969095509350505050565b6000602082840312156159f357600080fd5b5035919050565b600080600080600080600060e0888a031215615a1557600080fd5b8735615a208161563d565b96506020880135615a308161563d565b95506040880135615a408161563d565b9450606088013567ffffffffffffffff80821115615a5d57600080fd5b615a698b838c0161571a565b955060808a0135915080821115615a7f57600080fd5b50615a8c8a828b0161571a565b93505060a0880135915060c0880135905092959891949750929550565b60008060408385031215615abc57600080fd5b8235615ac78161563d565b91506020830135615ad78161563d565b809150509250929050565b634e487b7160e01b600052602160045260246000fd5b634e487b7160e01b600052601160045260246000fd5b60008219821115615b2157615b21615af8565b500190565b634e487b7160e01b600052603260045260246000fd5b6000600019821415615b5057615b50615af8565b5060010190565b634e487b7160e01b600052601260045260246000fd5b600082615b7c57615b7c615b57565b500490565b600082615b9057615b90615b57565b500690565b600181811c90821680615ba957607f821691505b60208210811415610f4757634e487b7160e01b600052602260045260246000fd5b6020808252601690820152751858d8dc9d59481a5b9d195c995cdd0819985a5b195960521b604082015260600190565b600060208284031215615c0c57600080fd5b815161183b81615938565b600080600060608486031215615c2c57600080fd5b8351615c378161563d565b6020850151909350615c4881615938565b604085015190925067ffffffffffffffff811115615c6557600080fd5b8401601f81018613615c7657600080fd5b8051615c84615739826156f2565b818152876020838501011115615c9957600080fd5b615caa8260208301602086016155d2565b8093505050509250925092565b600060208284031215615cc957600080fd5b5051919050565b6001600160a01b039384168152919092166020820152604081019190915260600190565b6001600160a01b039390931683526020830191909152604082015260600190565b60008251615d278184602087016155d2565b9190910192915050565b600060208284031215615d4357600080fd5b815161183b8161563d565b600082821015615d6057615d60615af8565b500390565b6000816000190483118215151615615d7f57615d7f615af8565b500290565b60008060408385031215615d9757600080fd5b50508051602090910151909290915056feddf252ad1be2c89b69c2b068fc378daa952ba7f163c4a11628f55a4df523b3efa164736f6c634300080a000a",
    "linkReferences": {}
  },
  "methodIdentifiers": {
    "_becomeImplementation(bytes)": "56e67728",
    "_prepare()": "1db78944",
    "_reduceReserves(uint256)": "601a0bf1",
    "_setAdminFee(uint256)": "91dd36c6",
    "_setImplementationSafe(address,bool,bytes)": "50d85b73",
    "_setInterestRateModel(address)": "f2b3abbd",
    "_setNameAndSymbol(string,string)": "34154d4c",
    "_setReserveFactor(uint256)": "fca7820b",
    "_withdrawAdminFees(uint256)": "a7b820df",
    "_withdrawFuseFees(uint256)": "a03dce8d",
    "accrualBlockNumber()": "6c540baf",
    "accrueInterest()": "a6afed95",
    "adminFeeMantissa()": "8d02d9a1",
    "allowance(address,address)": "dd62ed3e",
    "approve(address,uint256)": "095ea7b3",
    "balanceOf(address)": "70a08231",
    "balanceOfUnderlying(address)": "3af9e669",
    "borrow(uint256)": "c5ebeaec",
    "borrowBalanceCurrent(address)": "17bfdfbc",
    "borrowBalanceStored(address)": "95dd9193",
    "borrowIndex()": "aa5af0fd",
    "borrowRatePerBlock()": "f8f9da28",
    "comptroller()": "5fe3b567",
    "decimals()": "313ce567",
    "exchangeRateCurrent()": "bd6d894d",
    "exchangeRateStored()": "182df0f5",
    "feeSeizeShareMantissa()": "be99f119",
    "fuseAdmin()": "15761d51",
    "fuseFeeMantissa()": "dbfe7c19",
    "getAccountSnapshot(address)": "c37f68e2",
    "getCash()": "3b1d21a2",
    "implementation()": "5c60da1b",
    "initialize(address,address,address,string,string,uint256,uint256)": "a0b0d289",
    "initialize(address,address,address,uint256,string,string,uint8,uint256,uint256)": "219ef65c",
    "interestRateModel()": "f3fdb15a",
    "isCEther()": "ac784ddc",
    "isCToken()": "fe9c44ae",
    "liquidateBorrow(address,address)": "aae40a2a",
    "mint()": "1249c58b",
    "name()": "06fdde03",
    "protocolSeizeShareMantissa()": "6752e702",
    "redeem(uint256)": "db006a75",
    "redeemUnderlying(uint256)": "852a12e3",
    "repayBorrow()": "4e4d9fea",
    "repayBorrowBehalf(address)": "e5974619",
    "reserveFactorMantissa()": "173b9904",
    "seize(address,address,uint256)": "b2a02ff1",
    "supplyRatePerBlock()": "ae9d70b0",
    "symbol()": "95d89b41",
    "totalAdminFees()": "61feacff",
    "totalBorrows()": "47bd3718",
    "totalBorrowsCurrent()": "73acee98",
    "totalFuseFees()": "dc028ab1",
    "totalReserves()": "8f840ddd",
    "totalSupply()": "18160ddd",
    "transfer(address,uint256)": "a9059cbb",
    "transferFrom(address,address,uint256)": "23b872dd",
    "underlying()": "6f307dc3"
  }
}