{
  "address": "0xd6109cFc09DD4666c17E8496B1e755aE18A16528",
  "abi": [
    {
      "anonymous": false,
      "inputs": [
        {
          "indexed": false,
          "internalType": "string",
          "name": "action",
          "type": "string"
        },
        {
          "indexed": false,
          "internalType": "bool",
          "name": "pauseState",
          "type": "bool"
        }
      ],
      "name": "ActionPaused",
      "type": "event"
    },
    {
      "anonymous": false,
      "inputs": [
        {
          "indexed": false,
          "internalType": "contract CToken",
          "name": "cToken",
          "type": "address"
        },
        {
          "indexed": false,
          "internalType": "string",
          "name": "action",
          "type": "string"
        },
        {
          "indexed": false,
          "internalType": "bool",
          "name": "pauseState",
          "type": "bool"
        }
      ],
      "name": "ActionPaused",
      "type": "event"
    },
    {
      "anonymous": false,
      "inputs": [
        {
          "indexed": false,
          "internalType": "address",
          "name": "rewardsDistributor",
          "type": "address"
        }
      ],
      "name": "AddedRewardsDistributor",
      "type": "event"
    },
    {
      "anonymous": false,
      "inputs": [
        {
          "indexed": false,
          "internalType": "bool",
          "name": "enabled",
          "type": "bool"
        }
      ],
      "name": "AutoImplementationsToggled",
      "type": "event"
    },
    {
      "anonymous": false,
      "inputs": [
        {
          "indexed": false,
          "internalType": "uint256",
          "name": "error",
          "type": "uint256"
        },
        {
          "indexed": false,
          "internalType": "uint256",
          "name": "info",
          "type": "uint256"
        },
        {
          "indexed": false,
          "internalType": "uint256",
          "name": "detail",
          "type": "uint256"
        }
      ],
      "name": "Failure",
      "type": "event"
    },
    {
      "anonymous": false,
      "inputs": [
        {
          "indexed": false,
          "internalType": "contract CToken",
          "name": "cToken",
          "type": "address"
        },
        {
          "indexed": false,
          "internalType": "address",
          "name": "account",
          "type": "address"
        }
      ],
      "name": "MarketEntered",
      "type": "event"
    },
    {
      "anonymous": false,
      "inputs": [
        {
          "indexed": false,
          "internalType": "contract CToken",
          "name": "cToken",
          "type": "address"
        },
        {
          "indexed": false,
          "internalType": "address",
          "name": "account",
          "type": "address"
        }
      ],
      "name": "MarketExited",
      "type": "event"
    },
    {
      "anonymous": false,
      "inputs": [
        {
          "indexed": false,
          "internalType": "contract CToken",
          "name": "cToken",
          "type": "address"
        }
      ],
      "name": "MarketListed",
      "type": "event"
    },
    {
      "anonymous": false,
      "inputs": [
        {
          "indexed": false,
          "internalType": "contract CToken",
          "name": "cToken",
          "type": "address"
        }
      ],
      "name": "MarketUnlisted",
      "type": "event"
    },
    {
      "anonymous": false,
      "inputs": [
        {
          "indexed": true,
          "internalType": "contract CToken",
          "name": "cToken",
          "type": "address"
        },
        {
          "indexed": false,
          "internalType": "uint256",
          "name": "newBorrowCap",
          "type": "uint256"
        }
      ],
      "name": "NewBorrowCap",
      "type": "event"
    },
    {
      "anonymous": false,
      "inputs": [
        {
          "indexed": false,
          "internalType": "address",
          "name": "oldBorrowCapGuardian",
          "type": "address"
        },
        {
          "indexed": false,
          "internalType": "address",
          "name": "newBorrowCapGuardian",
          "type": "address"
        }
      ],
      "name": "NewBorrowCapGuardian",
      "type": "event"
    },
    {
      "anonymous": false,
      "inputs": [
        {
          "indexed": false,
          "internalType": "uint256",
          "name": "oldCloseFactorMantissa",
          "type": "uint256"
        },
        {
          "indexed": false,
          "internalType": "uint256",
          "name": "newCloseFactorMantissa",
          "type": "uint256"
        }
      ],
      "name": "NewCloseFactor",
      "type": "event"
    },
    {
      "anonymous": false,
      "inputs": [
        {
          "indexed": false,
          "internalType": "contract CToken",
          "name": "cToken",
          "type": "address"
        },
        {
          "indexed": false,
          "internalType": "uint256",
          "name": "oldCollateralFactorMantissa",
          "type": "uint256"
        },
        {
          "indexed": false,
          "internalType": "uint256",
          "name": "newCollateralFactorMantissa",
          "type": "uint256"
        }
      ],
      "name": "NewCollateralFactor",
      "type": "event"
    },
    {
      "anonymous": false,
      "inputs": [
        {
          "indexed": false,
          "internalType": "uint256",
          "name": "oldLiquidationIncentiveMantissa",
          "type": "uint256"
        },
        {
          "indexed": false,
          "internalType": "uint256",
          "name": "newLiquidationIncentiveMantissa",
          "type": "uint256"
        }
      ],
      "name": "NewLiquidationIncentive",
      "type": "event"
    },
    {
      "anonymous": false,
      "inputs": [
        {
          "indexed": false,
          "internalType": "address",
          "name": "oldPauseGuardian",
          "type": "address"
        },
        {
          "indexed": false,
          "internalType": "address",
          "name": "newPauseGuardian",
          "type": "address"
        }
      ],
      "name": "NewPauseGuardian",
      "type": "event"
    },
    {
      "anonymous": false,
      "inputs": [
        {
          "indexed": false,
          "internalType": "contract PriceOracle",
          "name": "oldPriceOracle",
          "type": "address"
        },
        {
          "indexed": false,
          "internalType": "contract PriceOracle",
          "name": "newPriceOracle",
          "type": "address"
        }
      ],
      "name": "NewPriceOracle",
      "type": "event"
    },
    {
      "anonymous": false,
      "inputs": [
        {
          "indexed": true,
          "internalType": "contract CToken",
          "name": "cToken",
          "type": "address"
        },
        {
          "indexed": false,
          "internalType": "uint256",
          "name": "newSupplyCap",
          "type": "uint256"
        }
      ],
      "name": "NewSupplyCap",
      "type": "event"
    },
    {
      "anonymous": false,
      "inputs": [
        {
          "indexed": false,
          "internalType": "bool",
          "name": "enforce",
          "type": "bool"
        }
      ],
      "name": "WhitelistEnforcementChanged",
      "type": "event"
    },
    {
      "inputs": [
        {
          "internalType": "address",
          "name": "distributor",
          "type": "address"
        }
      ],
      "name": "_addRewardsDistributor",
      "outputs": [
        {
          "internalType": "uint256",
          "name": "",
          "type": "uint256"
        }
      ],
      "stateMutability": "nonpayable",
      "type": "function"
    },
    {
      "inputs": [],
      "name": "_afterNonReentrant",
      "outputs": [],
      "stateMutability": "nonpayable",
      "type": "function"
    },
    {
      "inputs": [
        {
          "internalType": "contract Unitroller",
          "name": "unitroller",
          "type": "address"
        }
      ],
      "name": "_become",
      "outputs": [],
      "stateMutability": "nonpayable",
      "type": "function"
    },
    {
      "inputs": [],
      "name": "_becomeImplementation",
      "outputs": [],
      "stateMutability": "nonpayable",
      "type": "function"
    },
    {
      "inputs": [],
      "name": "_beforeNonReentrant",
      "outputs": [],
      "stateMutability": "nonpayable",
      "type": "function"
    },
    {
      "inputs": [],
      "name": "_borrowGuardianPaused",
      "outputs": [
        {
          "internalType": "bool",
          "name": "",
          "type": "bool"
        }
      ],
      "stateMutability": "view",
      "type": "function"
    },
    {
      "inputs": [
        {
          "internalType": "bool",
          "name": "isCEther",
          "type": "bool"
        },
        {
          "internalType": "bytes",
          "name": "constructorData",
          "type": "bytes"
        },
        {
          "internalType": "uint256",
          "name": "collateralFactorMantissa",
          "type": "uint256"
        }
      ],
      "name": "_deployMarket",
      "outputs": [
        {
          "internalType": "uint256",
          "name": "",
          "type": "uint256"
        }
      ],
      "stateMutability": "nonpayable",
      "type": "function"
    },
    {
      "inputs": [],
      "name": "_mintGuardianPaused",
      "outputs": [
        {
          "internalType": "bool",
          "name": "",
          "type": "bool"
        }
      ],
      "stateMutability": "view",
      "type": "function"
    },
    {
      "inputs": [
        {
          "internalType": "address",
          "name": "newBorrowCapGuardian",
          "type": "address"
        }
      ],
      "name": "_setBorrowCapGuardian",
      "outputs": [],
      "stateMutability": "nonpayable",
      "type": "function"
    },
    {
      "inputs": [
        {
          "internalType": "contract CToken",
          "name": "cToken",
          "type": "address"
        },
        {
          "internalType": "bool",
          "name": "state",
          "type": "bool"
        }
      ],
      "name": "_setBorrowPaused",
      "outputs": [
        {
          "internalType": "bool",
          "name": "",
          "type": "bool"
        }
      ],
      "stateMutability": "nonpayable",
      "type": "function"
    },
    {
      "inputs": [
        {
          "internalType": "uint256",
          "name": "newCloseFactorMantissa",
          "type": "uint256"
        }
      ],
      "name": "_setCloseFactor",
      "outputs": [
        {
          "internalType": "uint256",
          "name": "",
          "type": "uint256"
        }
      ],
      "stateMutability": "nonpayable",
      "type": "function"
    },
    {
      "inputs": [
        {
          "internalType": "contract CToken",
          "name": "cToken",
          "type": "address"
        },
        {
          "internalType": "uint256",
          "name": "newCollateralFactorMantissa",
          "type": "uint256"
        }
      ],
      "name": "_setCollateralFactor",
      "outputs": [
        {
          "internalType": "uint256",
          "name": "",
          "type": "uint256"
        }
      ],
      "stateMutability": "nonpayable",
      "type": "function"
    },
    {
      "inputs": [
        {
          "internalType": "uint256",
          "name": "newLiquidationIncentiveMantissa",
          "type": "uint256"
        }
      ],
      "name": "_setLiquidationIncentive",
      "outputs": [
        {
          "internalType": "uint256",
          "name": "",
          "type": "uint256"
        }
      ],
      "stateMutability": "nonpayable",
      "type": "function"
    },
    {
      "inputs": [
        {
          "internalType": "contract CToken[]",
          "name": "cTokens",
          "type": "address[]"
        },
        {
          "internalType": "uint256[]",
          "name": "newBorrowCaps",
          "type": "uint256[]"
        }
      ],
      "name": "_setMarketBorrowCaps",
      "outputs": [],
      "stateMutability": "nonpayable",
      "type": "function"
    },
    {
      "inputs": [
        {
          "internalType": "contract CToken[]",
          "name": "cTokens",
          "type": "address[]"
        },
        {
          "internalType": "uint256[]",
          "name": "newSupplyCaps",
          "type": "uint256[]"
        }
      ],
      "name": "_setMarketSupplyCaps",
      "outputs": [],
      "stateMutability": "nonpayable",
      "type": "function"
    },
    {
      "inputs": [
        {
          "internalType": "contract CToken",
          "name": "cToken",
          "type": "address"
        },
        {
          "internalType": "bool",
          "name": "state",
          "type": "bool"
        }
      ],
      "name": "_setMintPaused",
      "outputs": [
        {
          "internalType": "bool",
          "name": "",
          "type": "bool"
        }
      ],
      "stateMutability": "nonpayable",
      "type": "function"
    },
    {
      "inputs": [
        {
          "internalType": "address",
          "name": "newPauseGuardian",
          "type": "address"
        }
      ],
      "name": "_setPauseGuardian",
      "outputs": [
        {
          "internalType": "uint256",
          "name": "",
          "type": "uint256"
        }
      ],
      "stateMutability": "nonpayable",
      "type": "function"
    },
    {
      "inputs": [
        {
          "internalType": "contract PriceOracle",
          "name": "newOracle",
          "type": "address"
        }
      ],
      "name": "_setPriceOracle",
      "outputs": [
        {
          "internalType": "uint256",
          "name": "",
          "type": "uint256"
        }
      ],
      "stateMutability": "nonpayable",
      "type": "function"
    },
    {
      "inputs": [
        {
          "internalType": "bool",
          "name": "state",
          "type": "bool"
        }
      ],
      "name": "_setSeizePaused",
      "outputs": [
        {
          "internalType": "bool",
          "name": "",
          "type": "bool"
        }
      ],
      "stateMutability": "nonpayable",
      "type": "function"
    },
    {
      "inputs": [
        {
          "internalType": "bool",
          "name": "state",
          "type": "bool"
        }
      ],
      "name": "_setTransferPaused",
      "outputs": [
        {
          "internalType": "bool",
          "name": "",
          "type": "bool"
        }
      ],
      "stateMutability": "nonpayable",
      "type": "function"
    },
    {
      "inputs": [
        {
          "internalType": "bool",
          "name": "enforce",
          "type": "bool"
        }
      ],
      "name": "_setWhitelistEnforcement",
      "outputs": [
        {
          "internalType": "uint256",
          "name": "",
          "type": "uint256"
        }
      ],
      "stateMutability": "nonpayable",
      "type": "function"
    },
    {
      "inputs": [
        {
          "internalType": "address[]",
          "name": "suppliers",
          "type": "address[]"
        },
        {
          "internalType": "bool[]",
          "name": "statuses",
          "type": "bool[]"
        }
      ],
      "name": "_setWhitelistStatuses",
      "outputs": [
        {
          "internalType": "uint256",
          "name": "",
          "type": "uint256"
        }
      ],
      "stateMutability": "nonpayable",
      "type": "function"
    },
    {
      "inputs": [
        {
          "internalType": "bool",
          "name": "enabled",
          "type": "bool"
        }
      ],
      "name": "_toggleAutoImplementations",
      "outputs": [
        {
          "internalType": "uint256",
          "name": "",
          "type": "uint256"
        }
      ],
      "stateMutability": "nonpayable",
      "type": "function"
    },
    {
      "inputs": [
        {
          "internalType": "contract CToken",
          "name": "cToken",
          "type": "address"
        }
      ],
      "name": "_unsupportMarket",
      "outputs": [
        {
          "internalType": "uint256",
          "name": "",
          "type": "uint256"
        }
      ],
      "stateMutability": "nonpayable",
      "type": "function"
    },
    {
      "inputs": [
        {
          "internalType": "address",
          "name": "",
          "type": "address"
        },
        {
          "internalType": "uint256",
          "name": "",
          "type": "uint256"
        }
      ],
      "name": "accountAssets",
      "outputs": [
        {
          "internalType": "contract CToken",
          "name": "",
          "type": "address"
        }
      ],
      "stateMutability": "view",
      "type": "function"
    },
    {
      "inputs": [],
      "name": "admin",
      "outputs": [
        {
          "internalType": "address",
          "name": "",
          "type": "address"
        }
      ],
      "stateMutability": "view",
      "type": "function"
    },
    {
      "inputs": [],
      "name": "adminHasRights",
      "outputs": [
        {
          "internalType": "bool",
          "name": "",
          "type": "bool"
        }
      ],
      "stateMutability": "view",
      "type": "function"
    },
    {
      "inputs": [
        {
          "internalType": "uint256",
          "name": "",
          "type": "uint256"
        }
      ],
      "name": "allBorrowers",
      "outputs": [
        {
          "internalType": "address",
          "name": "",
          "type": "address"
        }
      ],
      "stateMutability": "view",
      "type": "function"
    },
    {
      "inputs": [
        {
          "internalType": "uint256",
          "name": "",
          "type": "uint256"
        }
      ],
      "name": "allMarkets",
      "outputs": [
        {
          "internalType": "contract CToken",
          "name": "",
          "type": "address"
        }
      ],
      "stateMutability": "view",
      "type": "function"
    },
    {
      "inputs": [],
      "name": "autoImplementation",
      "outputs": [
        {
          "internalType": "bool",
          "name": "",
          "type": "bool"
        }
      ],
      "stateMutability": "view",
      "type": "function"
    },
    {
      "inputs": [
        {
          "internalType": "address",
          "name": "cToken",
          "type": "address"
        },
        {
          "internalType": "address",
          "name": "borrower",
          "type": "address"
        },
        {
          "internalType": "uint256",
          "name": "borrowAmount",
          "type": "uint256"
        }
      ],
      "name": "borrowAllowed",
      "outputs": [
        {
          "internalType": "uint256",
          "name": "",
          "type": "uint256"
        }
      ],
      "stateMutability": "nonpayable",
      "type": "function"
    },
    {
      "inputs": [],
      "name": "borrowCapGuardian",
      "outputs": [
        {
          "internalType": "address",
          "name": "",
          "type": "address"
        }
      ],
      "stateMutability": "view",
      "type": "function"
    },
    {
      "inputs": [
        {
          "internalType": "address",
          "name": "",
          "type": "address"
        }
      ],
      "name": "borrowCaps",
      "outputs": [
        {
          "internalType": "uint256",
          "name": "",
          "type": "uint256"
        }
      ],
      "stateMutability": "view",
      "type": "function"
    },
    {
      "inputs": [
        {
          "internalType": "address",
          "name": "",
          "type": "address"
        }
      ],
      "name": "borrowGuardianPaused",
      "outputs": [
        {
          "internalType": "bool",
          "name": "",
          "type": "bool"
        }
      ],
      "stateMutability": "view",
      "type": "function"
    },
    {
      "inputs": [
        {
          "internalType": "address",
          "name": "cToken",
          "type": "address"
        },
        {
          "internalType": "address",
          "name": "borrower",
          "type": "address"
        },
        {
          "internalType": "uint256",
          "name": "borrowAmount",
          "type": "uint256"
        }
      ],
      "name": "borrowVerify",
      "outputs": [],
      "stateMutability": "nonpayable",
      "type": "function"
    },
    {
      "inputs": [
        {
          "internalType": "address",
          "name": "cToken",
          "type": "address"
        },
        {
          "internalType": "uint256",
          "name": "accountBorrowsNew",
          "type": "uint256"
        }
      ],
      "name": "borrowWithinLimits",
      "outputs": [
        {
          "internalType": "uint256",
          "name": "",
          "type": "uint256"
        }
      ],
      "stateMutability": "nonpayable",
      "type": "function"
    },
    {
      "inputs": [
        {
          "internalType": "address",
          "name": "",
          "type": "address"
        }
      ],
      "name": "cTokensByUnderlying",
      "outputs": [
        {
          "internalType": "contract CToken",
          "name": "",
          "type": "address"
        }
      ],
      "stateMutability": "view",
      "type": "function"
    },
    {
      "inputs": [
        {
          "internalType": "address",
          "name": "account",
          "type": "address"
        },
        {
          "internalType": "contract CToken",
          "name": "cToken",
          "type": "address"
        }
      ],
      "name": "checkMembership",
      "outputs": [
        {
          "internalType": "bool",
          "name": "",
          "type": "bool"
        }
      ],
      "stateMutability": "view",
      "type": "function"
    },
    {
      "inputs": [],
      "name": "closeFactorMantissa",
      "outputs": [
        {
          "internalType": "uint256",
          "name": "",
          "type": "uint256"
        }
      ],
      "stateMutability": "view",
      "type": "function"
    },
    {
      "inputs": [],
      "name": "comptrollerImplementation",
      "outputs": [
        {
          "internalType": "address",
          "name": "",
          "type": "address"
        }
      ],
      "stateMutability": "view",
      "type": "function"
    },
    {
      "inputs": [],
      "name": "enforceWhitelist",
      "outputs": [
        {
          "internalType": "bool",
          "name": "",
          "type": "bool"
        }
      ],
      "stateMutability": "view",
      "type": "function"
    },
    {
      "inputs": [
        {
          "internalType": "address[]",
          "name": "cTokens",
          "type": "address[]"
        }
      ],
      "name": "enterMarkets",
      "outputs": [
        {
          "internalType": "uint256[]",
          "name": "",
          "type": "uint256[]"
        }
      ],
      "stateMutability": "nonpayable",
      "type": "function"
    },
    {
      "inputs": [
        {
          "internalType": "address",
          "name": "cTokenAddress",
          "type": "address"
        }
      ],
      "name": "exitMarket",
      "outputs": [
        {
          "internalType": "uint256",
          "name": "",
          "type": "uint256"
        }
      ],
      "stateMutability": "nonpayable",
      "type": "function"
    },
    {
      "inputs": [],
      "name": "fuseAdminHasRights",
      "outputs": [
        {
          "internalType": "bool",
          "name": "",
          "type": "bool"
        }
      ],
      "stateMutability": "view",
      "type": "function"
    },
    {
      "inputs": [
        {
          "internalType": "address",
          "name": "account",
          "type": "address"
        }
      ],
      "name": "getAccountLiquidity",
      "outputs": [
        {
          "internalType": "uint256",
          "name": "",
          "type": "uint256"
        },
        {
          "internalType": "uint256",
          "name": "",
          "type": "uint256"
        },
        {
          "internalType": "uint256",
          "name": "",
          "type": "uint256"
        }
      ],
      "stateMutability": "view",
      "type": "function"
    },
    {
      "inputs": [],
      "name": "getAllBorrowers",
      "outputs": [
        {
          "internalType": "address[]",
          "name": "",
          "type": "address[]"
        }
      ],
      "stateMutability": "view",
      "type": "function"
    },
    {
      "inputs": [],
      "name": "getAllMarkets",
      "outputs": [
        {
          "internalType": "contract CToken[]",
          "name": "",
          "type": "address[]"
        }
      ],
      "stateMutability": "view",
      "type": "function"
    },
    {
      "inputs": [
        {
          "internalType": "address",
          "name": "account",
          "type": "address"
        }
      ],
      "name": "getAssetsIn",
      "outputs": [
        {
          "internalType": "contract CToken[]",
          "name": "",
          "type": "address[]"
        }
      ],
      "stateMutability": "view",
      "type": "function"
    },
    {
      "inputs": [
        {
          "internalType": "address",
          "name": "account",
          "type": "address"
        },
        {
          "internalType": "address",
          "name": "cTokenModify",
          "type": "address"
        },
        {
          "internalType": "uint256",
          "name": "redeemTokens",
          "type": "uint256"
        },
        {
          "internalType": "uint256",
          "name": "borrowAmount",
          "type": "uint256"
        }
      ],
      "name": "getHypotheticalAccountLiquidity",
      "outputs": [
        {
          "internalType": "uint256",
          "name": "",
          "type": "uint256"
        },
        {
          "internalType": "uint256",
          "name": "",
          "type": "uint256"
        },
        {
          "internalType": "uint256",
          "name": "",
          "type": "uint256"
        }
      ],
      "stateMutability": "view",
      "type": "function"
    },
    {
      "inputs": [],
      "name": "getRewardsDistributors",
      "outputs": [
        {
          "internalType": "address[]",
          "name": "",
          "type": "address[]"
        }
      ],
      "stateMutability": "view",
      "type": "function"
    },
    {
      "inputs": [],
      "name": "getWhitelist",
      "outputs": [
        {
          "internalType": "address[]",
          "name": "",
          "type": "address[]"
        }
      ],
      "stateMutability": "view",
      "type": "function"
    },
    {
      "inputs": [],
      "name": "isComptroller",
      "outputs": [
        {
          "internalType": "bool",
          "name": "",
          "type": "bool"
        }
      ],
      "stateMutability": "view",
      "type": "function"
    },
    {
      "inputs": [
        {
          "internalType": "contract CToken",
          "name": "cToken",
          "type": "address"
        }
      ],
      "name": "isDeprecated",
      "outputs": [
        {
          "internalType": "bool",
          "name": "",
          "type": "bool"
        }
      ],
      "stateMutability": "view",
      "type": "function"
    },
    {
      "inputs": [
        {
          "internalType": "address",
          "name": "cTokenBorrowed",
          "type": "address"
        },
        {
          "internalType": "address",
          "name": "cTokenCollateral",
          "type": "address"
        },
        {
          "internalType": "address",
          "name": "liquidator",
          "type": "address"
        },
        {
          "internalType": "address",
          "name": "borrower",
          "type": "address"
        },
        {
          "internalType": "uint256",
          "name": "repayAmount",
          "type": "uint256"
        }
      ],
      "name": "liquidateBorrowAllowed",
      "outputs": [
        {
          "internalType": "uint256",
          "name": "",
          "type": "uint256"
        }
      ],
      "stateMutability": "nonpayable",
      "type": "function"
    },
    {
      "inputs": [
        {
          "internalType": "address",
          "name": "cTokenBorrowed",
          "type": "address"
        },
        {
          "internalType": "address",
          "name": "cTokenCollateral",
          "type": "address"
        },
        {
          "internalType": "address",
          "name": "liquidator",
          "type": "address"
        },
        {
          "internalType": "address",
          "name": "borrower",
          "type": "address"
        },
        {
          "internalType": "uint256",
          "name": "actualRepayAmount",
          "type": "uint256"
        },
        {
          "internalType": "uint256",
          "name": "seizeTokens",
          "type": "uint256"
        }
      ],
      "name": "liquidateBorrowVerify",
      "outputs": [],
      "stateMutability": "nonpayable",
      "type": "function"
    },
    {
      "inputs": [
        {
          "internalType": "address",
          "name": "cTokenBorrowed",
          "type": "address"
        },
        {
          "internalType": "address",
          "name": "cTokenCollateral",
          "type": "address"
        },
        {
          "internalType": "uint256",
          "name": "actualRepayAmount",
          "type": "uint256"
        }
      ],
      "name": "liquidateCalculateSeizeTokens",
      "outputs": [
        {
          "internalType": "uint256",
          "name": "",
          "type": "uint256"
        },
        {
          "internalType": "uint256",
          "name": "",
          "type": "uint256"
        }
      ],
      "stateMutability": "view",
      "type": "function"
    },
    {
      "inputs": [],
      "name": "liquidationIncentiveMantissa",
      "outputs": [
        {
          "internalType": "uint256",
          "name": "",
          "type": "uint256"
        }
      ],
      "stateMutability": "view",
      "type": "function"
    },
    {
      "inputs": [
        {
          "internalType": "address",
          "name": "",
          "type": "address"
        }
      ],
      "name": "markets",
      "outputs": [
        {
          "internalType": "bool",
          "name": "isListed",
          "type": "bool"
        },
        {
          "internalType": "uint256",
          "name": "collateralFactorMantissa",
          "type": "uint256"
        }
      ],
      "stateMutability": "view",
      "type": "function"
    },
    {
      "inputs": [
        {
          "internalType": "address",
          "name": "cToken",
          "type": "address"
        },
        {
          "internalType": "address",
          "name": "minter",
          "type": "address"
        },
        {
          "internalType": "uint256",
          "name": "mintAmount",
          "type": "uint256"
        }
      ],
      "name": "mintAllowed",
      "outputs": [
        {
          "internalType": "uint256",
          "name": "",
          "type": "uint256"
        }
      ],
      "stateMutability": "nonpayable",
      "type": "function"
    },
    {
      "inputs": [
        {
          "internalType": "address",
          "name": "",
          "type": "address"
        }
      ],
      "name": "mintGuardianPaused",
      "outputs": [
        {
          "internalType": "bool",
          "name": "",
          "type": "bool"
        }
      ],
      "stateMutability": "view",
      "type": "function"
    },
    {
      "inputs": [
        {
          "internalType": "address",
          "name": "cToken",
          "type": "address"
        },
        {
          "internalType": "address",
          "name": "minter",
          "type": "address"
        },
        {
          "internalType": "uint256",
          "name": "actualMintAmount",
          "type": "uint256"
        },
        {
          "internalType": "uint256",
          "name": "mintTokens",
          "type": "uint256"
        }
      ],
      "name": "mintVerify",
      "outputs": [],
      "stateMutability": "nonpayable",
      "type": "function"
    },
    {
      "inputs": [
        {
          "internalType": "address",
          "name": "cToken",
          "type": "address"
        },
        {
          "internalType": "uint256",
          "name": "exchangeRateMantissa",
          "type": "uint256"
        },
        {
          "internalType": "uint256",
          "name": "accountTokens",
          "type": "uint256"
        },
        {
          "internalType": "uint256",
          "name": "mintAmount",
          "type": "uint256"
        }
      ],
      "name": "mintWithinLimits",
      "outputs": [
        {
          "internalType": "uint256",
          "name": "",
          "type": "uint256"
        }
      ],
      "stateMutability": "nonpayable",
      "type": "function"
    },
    {
      "inputs": [],
      "name": "oracle",
      "outputs": [
        {
          "internalType": "contract PriceOracle",
          "name": "",
          "type": "address"
        }
      ],
      "stateMutability": "view",
      "type": "function"
    },
    {
      "inputs": [],
      "name": "pauseGuardian",
      "outputs": [
        {
          "internalType": "address",
          "name": "",
          "type": "address"
        }
      ],
      "stateMutability": "view",
      "type": "function"
    },
    {
      "inputs": [],
      "name": "pendingAdmin",
      "outputs": [
        {
          "internalType": "address",
          "name": "",
          "type": "address"
        }
      ],
      "stateMutability": "view",
      "type": "function"
    },
    {
      "inputs": [],
      "name": "pendingComptrollerImplementation",
      "outputs": [
        {
          "internalType": "address",
          "name": "",
          "type": "address"
        }
      ],
      "stateMutability": "view",
      "type": "function"
    },
    {
      "inputs": [
        {
          "internalType": "address",
          "name": "cToken",
          "type": "address"
        },
        {
          "internalType": "address",
          "name": "redeemer",
          "type": "address"
        },
        {
          "internalType": "uint256",
          "name": "redeemTokens",
          "type": "uint256"
        }
      ],
      "name": "redeemAllowed",
      "outputs": [
        {
          "internalType": "uint256",
          "name": "",
          "type": "uint256"
        }
      ],
      "stateMutability": "nonpayable",
      "type": "function"
    },
    {
      "inputs": [
        {
          "internalType": "address",
          "name": "cToken",
          "type": "address"
        },
        {
          "internalType": "address",
          "name": "redeemer",
          "type": "address"
        },
        {
          "internalType": "uint256",
          "name": "redeemAmount",
          "type": "uint256"
        },
        {
          "internalType": "uint256",
          "name": "redeemTokens",
          "type": "uint256"
        }
      ],
      "name": "redeemVerify",
      "outputs": [],
      "stateMutability": "nonpayable",
      "type": "function"
    },
    {
      "inputs": [
        {
          "internalType": "address",
          "name": "cToken",
          "type": "address"
        },
        {
          "internalType": "address",
          "name": "payer",
          "type": "address"
        },
        {
          "internalType": "address",
          "name": "borrower",
          "type": "address"
        },
        {
          "internalType": "uint256",
          "name": "repayAmount",
          "type": "uint256"
        }
      ],
      "name": "repayBorrowAllowed",
      "outputs": [
        {
          "internalType": "uint256",
          "name": "",
          "type": "uint256"
        }
      ],
      "stateMutability": "nonpayable",
      "type": "function"
    },
    {
      "inputs": [
        {
          "internalType": "address",
          "name": "cToken",
          "type": "address"
        },
        {
          "internalType": "address",
          "name": "payer",
          "type": "address"
        },
        {
          "internalType": "address",
          "name": "borrower",
          "type": "address"
        },
        {
          "internalType": "uint256",
          "name": "actualRepayAmount",
          "type": "uint256"
        },
        {
          "internalType": "uint256",
          "name": "borrowerIndex",
          "type": "uint256"
        }
      ],
      "name": "repayBorrowVerify",
      "outputs": [],
      "stateMutability": "nonpayable",
      "type": "function"
    },
    {
      "inputs": [
        {
          "internalType": "uint256",
          "name": "",
          "type": "uint256"
        }
      ],
      "name": "rewardsDistributors",
      "outputs": [
        {
          "internalType": "address",
          "name": "",
          "type": "address"
        }
      ],
      "stateMutability": "view",
      "type": "function"
    },
    {
      "inputs": [
        {
          "internalType": "address",
          "name": "cTokenCollateral",
          "type": "address"
        },
        {
          "internalType": "address",
          "name": "cTokenBorrowed",
          "type": "address"
        },
        {
          "internalType": "address",
          "name": "liquidator",
          "type": "address"
        },
        {
          "internalType": "address",
          "name": "borrower",
          "type": "address"
        },
        {
          "internalType": "uint256",
          "name": "seizeTokens",
          "type": "uint256"
        }
      ],
      "name": "seizeAllowed",
      "outputs": [
        {
          "internalType": "uint256",
          "name": "",
          "type": "uint256"
        }
      ],
      "stateMutability": "nonpayable",
      "type": "function"
    },
    {
      "inputs": [],
      "name": "seizeGuardianPaused",
      "outputs": [
        {
          "internalType": "bool",
          "name": "",
          "type": "bool"
        }
      ],
      "stateMutability": "view",
      "type": "function"
    },
    {
      "inputs": [
        {
          "internalType": "address",
          "name": "cTokenCollateral",
          "type": "address"
        },
        {
          "internalType": "address",
          "name": "cTokenBorrowed",
          "type": "address"
        },
        {
          "internalType": "address",
          "name": "liquidator",
          "type": "address"
        },
        {
          "internalType": "address",
          "name": "borrower",
          "type": "address"
        },
        {
          "internalType": "uint256",
          "name": "seizeTokens",
          "type": "uint256"
        }
      ],
      "name": "seizeVerify",
      "outputs": [],
      "stateMutability": "nonpayable",
      "type": "function"
    },
    {
      "inputs": [
        {
          "internalType": "address",
          "name": "",
          "type": "address"
        }
      ],
      "name": "suppliers",
      "outputs": [
        {
          "internalType": "bool",
          "name": "",
          "type": "bool"
        }
      ],
      "stateMutability": "view",
      "type": "function"
    },
    {
      "inputs": [
        {
          "internalType": "address",
          "name": "",
          "type": "address"
        }
      ],
      "name": "supplyCaps",
      "outputs": [
        {
          "internalType": "uint256",
          "name": "",
          "type": "uint256"
        }
      ],
      "stateMutability": "view",
      "type": "function"
    },
    {
      "inputs": [
        {
          "internalType": "address",
          "name": "cToken",
          "type": "address"
        },
        {
          "internalType": "address",
          "name": "src",
          "type": "address"
        },
        {
          "internalType": "address",
          "name": "dst",
          "type": "address"
        },
        {
          "internalType": "uint256",
          "name": "transferTokens",
          "type": "uint256"
        }
      ],
      "name": "transferAllowed",
      "outputs": [
        {
          "internalType": "uint256",
          "name": "",
          "type": "uint256"
        }
      ],
      "stateMutability": "nonpayable",
      "type": "function"
    },
    {
      "inputs": [],
      "name": "transferGuardianPaused",
      "outputs": [
        {
          "internalType": "bool",
          "name": "",
          "type": "bool"
        }
      ],
      "stateMutability": "view",
      "type": "function"
    },
    {
      "inputs": [
        {
          "internalType": "address",
          "name": "cToken",
          "type": "address"
        },
        {
          "internalType": "address",
          "name": "src",
          "type": "address"
        },
        {
          "internalType": "address",
          "name": "dst",
          "type": "address"
        },
        {
          "internalType": "uint256",
          "name": "transferTokens",
          "type": "uint256"
        }
      ],
      "name": "transferVerify",
      "outputs": [],
      "stateMutability": "nonpayable",
      "type": "function"
    },
    {
      "inputs": [
        {
          "internalType": "address",
          "name": "",
          "type": "address"
        }
      ],
      "name": "whitelist",
      "outputs": [
        {
          "internalType": "bool",
          "name": "",
          "type": "bool"
        }
      ],
      "stateMutability": "view",
      "type": "function"
    },
    {
      "inputs": [
        {
          "internalType": "uint256",
          "name": "",
          "type": "uint256"
        }
      ],
      "name": "whitelistArray",
      "outputs": [
        {
          "internalType": "address",
          "name": "",
          "type": "address"
        }
      ],
      "stateMutability": "view",
      "type": "function"
    }
  ],
  "transactionHash": "0x44d3fe8bfb0ebd00133490c6470e7c585ec99cbb2409ca82e3c7b890c92a1fb2",
  "args": [],
  "numDeployments": 3,
  "solcInputHash": "cdaa356e21f74b41673ce069a5a3b631",
  "bytecode": "0x60806040526001805461ffff60a01b191661010160a01b17905534801561002557600080fd5b50615b5880620000366000396000f3fe608060405234801561001057600080fd5b506004361061048a5760003560e01c80636d154ea511610262578063bb82aa5e11610151578063d5333166116100ce578063e4028eee11610092578063e4028eee14610b31578063e6653f3d14610b44578063e875544614610b58578063eabe7d9114610b61578063ede4edd014610b74578063f851a44014610b8757600080fd5b8063d533316614610ad8578063da3d454c14610aeb578063dce1544914610afe578063dcfbc0c714610b11578063dd5cd22c14610b2457600080fd5b8063c8c9c97511610115578063c8c9c97514610a8f578063c90c20b114610aa2578063d01f63f514610aaa578063d02f735114610ab2578063d251fefc14610ac557600080fd5b8063bb82aa5e14610a0e578063bdcdc25814610a21578063c299823814610a34578063c488847b14610a54578063c6c5b0dd14610a7c57600080fd5b8063929fe9a1116101df578063abfceffc116101a3578063abfceffc146109bf578063ac0b0bb7146109d2578063b0772d0b146109e6578063b0957210146109ee578063b9b5b153146109fb57600080fd5b8063929fe9a11461092257806394543c1514610963578063952adf5a146109765780639b19251a14610989578063aba35b98146109ac57600080fd5b80637dc0d1d0116102265780637dc0d1d014610891578063819605a8146108a457806387f76303146108b75780638e8f294b146108cb5780638ebf63641461090f57600080fd5b80636d154ea5146108175780636d35bf911461083a578063731f0c2b146108485780637515bafa1461086b578063779b22941461087e57600080fd5b80633c94786f1161037e57806352d84d1e116102fb5780635f5af1aa116102bf5780635f5af1aa146107c35780635fc7e71e146107d6578063607ef6c1146107e9578063632e5142146107fc5780636a56947e1461080457600080fd5b806352d84d1e1461076f57806355ee1fe1146107825780635c778605146107955780635d72de62146107a85780635ec88c79146107b057600080fd5b80634e79238f116103425780634e79238f146106f55780634ef4c3e1146107235780634fd42e171461073657806351a485e41461074957806351dff9891461075c57600080fd5b80633c94786f1461067057806341c728b91461068457806347ef3b3b146106b95780634a584432146106cc5780634ada90af146106ec57600080fd5b806324a3d6221161040c57806331ff47fa116103d057806331ff47fa1461060457806332abcdbe1461062d5780633605b51b14610642578063391957d71461064a5780633bcf7ec11461065d57600080fd5b806324a3d622146105a457806326782247146105b75780632d70db78146105ca5780632f1069ba146105dd578063317b0b77146105f157600080fd5b80631d504dc6116104535780631d504dc6146105245780631ededc911461053957806321af45691461054e5780632259192a1461057e57806324008a621461059157600080fd5b80627e3dd21461048f57806302c3bcbb146104ac5780630a755ec2146104da57806316dc15fe146104ee57806318c882a514610511575b600080fd5b610497600181565b60405190151581526020015b60405180910390f35b6104cc6104ba366004615299565b60196020526000908152604090205481565b6040519081526020016104a3565b60015461049790600160a81b900460ff1681565b6104976104fc366004615299565b600e6020526000908152604090205460ff1681565b61049761051f3660046152c4565b610b9a565b610537610532366004615299565b610ccf565b005b6105376105473660046152fd565b5050505050565b6017546105669061010090046001600160a01b031681565b6040516001600160a01b0390911681526020016104a3565b6104cc61058c366004615358565b610f95565b6104cc61059f366004615393565b610fa4565b601454610566906001600160a01b031681565b600154610566906001600160a01b031681565b6104976105d83660046153e4565b610fdf565b60015461049790600160a01b900460ff1681565b6104cc6105ff366004615401565b6110c2565b610566610612366004615299565b600f602052600090815260409020546001600160a01b031681565b610635611196565b6040516104a3919061541a565b6106356111f8565b610537610658366004615299565b611258565b61049761066b3660046152c4565b61132c565b60145461049790600160a01b900460ff1681565b610537610692366004615467565b50506001600160a01b03166000908152600e60205260409020805460ff1916600117905550565b6105376106c73660046154ad565b611449565b6104cc6106da366004615299565b60186020526000908152604090205481565b6104cc60065481565b610708610703366004615467565b61144e565b604080519384526020840192909252908201526060016104a3565b6104cc61073136600461551b565b61148e565b6104cc610744366004615401565b611861565b6105376107573660046155a1565b61191d565b61053761076a366004615467565b611b00565b61056661077d366004615401565b611b55565b6104cc610790366004615299565b611b7f565b6105376107a336600461551b565b505050565b610537611c00565b6107086107be366004615299565b611c96565b6104cc6107d1366004615299565b611cd1565b6104cc6107e436600461560d565b611d45565b6105376107f73660046155a1565b611f12565b6105376120ec565b610537610812366004615393565b612180565b610497610825366004615299565b60166020526000908152604090205460ff1681565b61053761054736600461560d565b610497610856366004615299565b60156020526000908152604090205460ff1681565b610566610879366004615401565b612185565b6104cc61088c366004615671565b612195565b600454610566906001600160a01b031681565b6104cc6108b2366004615299565b612300565b60145461049790600160b01b900460ff1681565b6108f86108d9366004615299565b6009602052600090815260409020805460019091015460ff9091169082565b6040805192151583526020830191909152016104a3565b61049761091d3660046153e4565b6126a2565b61049761093036600461569d565b6001600160a01b038082166000908152600960209081526040808320938616835260029093019052205460ff1692915050565b610497610971366004615299565b61277c565b6104cc6109843660046153e4565b6128e6565b610497610997366004615299565b60116020526000908152604090205460ff1681565b6104cc6109ba3660046156cb565b612964565b6106356109cd366004615299565b612ae4565b60145461049790600160b81b900460ff1681565b610635612b5a565b6010546104979060ff1681565b6104cc610a09366004615299565b612bba565b600254610566906001600160a01b031681565b6104cc610a2f366004615393565b612dac565b610a47610a4236600461576c565b612e31565b6040516104a39190615825565b610a67610a6236600461551b565b612ef9565b604080519283526020830191909152016104a3565b610566610a8a366004615401565b613117565b6104cc610a9d3660046155a1565b613127565b6105376133ce565b6106356134b1565b6104cc610ac036600461560d565b613511565b610566610ad3366004615401565b61369a565b6104cc610ae63660046153e4565b6136aa565b6104cc610af936600461551b565b61371d565b610566610b0c366004615671565b613ad0565b600354610566906001600160a01b031681565b6017546104979060ff1681565b6104cc610b3f366004615671565b613b08565b60145461049790600160a81b900460ff1681565b6104cc60055481565b6104cc610b6f36600461551b565b613c95565b6104cc610b82366004615299565b613cb2565b600054610566906001600160a01b031681565b6001600160a01b03821660009081526009602052604081205460ff16610bdb5760405162461bcd60e51b8152600401610bd29061585d565b60405180910390fd5b6014546001600160a01b0316331480610bf75750610bf7614135565b610c135760405162461bcd60e51b8152600401610bd2906158a5565b610c1b614135565b80610c2857506001821515145b610c445760405162461bcd60e51b8152600401610bd2906158ec565b6001600160a01b038316600081815260166020908152604091829020805460ff19168615159081179091558251938452606091840182905260069184019190915265426f72726f7760d01b6080840152908201527f71aec636243f9709bb0007ae15e9afb8150ab01716d75fd7573be5cc096e03b09060a0015b60405180910390a150805b92915050565b33730b1638ce0c7dc434b2ad41ffbc016690a24933d2148015610d4f5750806001600160a01b0316632f1069ba6040518163ffffffff1660e01b8152600401602060405180830381865afa158015610d2b573d6000803e3d6000fd5b505050506040513d601f19601f82011682018060405250810190610d4f919061591c565b80610e345750806001600160a01b031663f851a4406040518163ffffffff1660e01b8152600401602060405180830381865afa158015610d93573d6000803e3d6000fd5b505050506040513d601f19601f82011682018060405250810190610db79190615939565b6001600160a01b0316336001600160a01b0316148015610e345750806001600160a01b0316630a755ec26040518163ffffffff1660e01b8152600401602060405180830381865afa158015610e10573d6000803e3d6000fd5b505050506040513d601f19601f82011682018060405250810190610e34919061591c565b610e905760405162461bcd60e51b815260206004820152602760248201527f6f6e6c7920756e6974726f6c6c65722061646d696e2063616e206368616e676560448201526620627261696e7360c81b6064820152608401610bd2565b6000816001600160a01b031663c1e803346040518163ffffffff1660e01b81526004016020604051808303816000875af1158015610ed2573d6000803e3d6000fd5b505050506040513d601f19601f82011682018060405250810190610ef69190615956565b90508015610f3e5760405162461bcd60e51b815260206004820152601560248201527418da185b99d9481b9bdd08185d5d1a1bdc9a5e9959605a1b6044820152606401610bd2565b816001600160a01b0316635d72de626040518163ffffffff1660e01b8152600401600060405180830381600087803b158015610f7957600080fd5b505af1158015610f8d573d6000803e3d6000fd5b505050505050565b6000805b90505b949350505050565b6001600160a01b03841660009081526009602052604081205460ff16610fce5760095b9050610f9c565b610fd88584614190565b6000610f99565b6014546000906001600160a01b0316331480610ffe5750610ffe614135565b61101a5760405162461bcd60e51b8152600401610bd2906158a5565b611022614135565b8061102f57506001821515145b61104b5760405162461bcd60e51b8152600401610bd2906158ec565b60148054831515600160b81b0260ff60b81b199091161790556040517fef159d9a32b2472e32b098f954f3ce62d232939f1c207070b584df1814de2de0906110b69084906040808252600590820152645365697a6560d81b6060820152901515602082015260800190565b60405180910390a15090565b60006110cc614135565b6110dc57610cc960016007614233565b6040805160208082018352848252825190810190925266b1a2bc2ec5000080835281519192911161111357610f9c60056008614233565b6040805160208101909152670c7d713b49da0000808252835111156111475761113e60056008614233565b95945050505050565b600580549086905560408051828152602081018890527f3b9670cf975d26958e754b57098eaa2ac914d8d2a31b83257997b9f346110fd991015b60405180910390a160005b9695505050505050565b6060600c8054806020026020016040519081016040528092919081815260200182805480156111ee57602002820191906000526020600020905b81546001600160a01b031681526001909101906020018083116111d0575b5050505050905090565b6060601a8054806020026020016040519081016040528092919081815260200182805480156111ee576020028201919060005260206000209081546001600160a01b031681526001909101906020018083116111d0575050505050905090565b6000546001600160a01b031633146112c15760405162461bcd60e51b815260206004820152602660248201527f6f6e6c792061646d696e2063616e2073657420626f72726f772063617020677560448201526530b93234b0b760d11b6064820152608401610bd2565b601780546001600160a01b03838116610100818102610100600160a81b031985161790945560408051949093049091168084526020840191909152917feda98690e518e9a05f8ec6837663e188211b2da8f4906648b323f2c1d4434e29910160405180910390a15050565b6001600160a01b03821660009081526009602052604081205460ff166113645760405162461bcd60e51b8152600401610bd29061585d565b6014546001600160a01b03163314806113805750611380614135565b61139c5760405162461bcd60e51b8152600401610bd2906158a5565b6113a4614135565b806113b157506001821515145b6113cd5760405162461bcd60e51b8152600401610bd2906158ec565b6001600160a01b038316600081815260156020908152604091829020805460ff19168615159081179091558251938452606091840182905260049184019190915263135a5b9d60e21b6080840152908201527f71aec636243f9709bb0007ae15e9afb8150ab01716d75fd7573be5cc096e03b09060a001610cbe565b610f8d565b6000806000806000806114638a8a8a8a6142ac565b92509250925082601581111561147b5761147b61596f565b95509093509150505b9450945094915050565b6001600160a01b03831660009081526015602052604081205460ff16156114e85760405162461bcd60e51b815260206004820152600e60248201526d1b5a5b9d081a5cc81c185d5cd95960921b6044820152606401610bd2565b6001600160a01b03841660009081526009602052604090205460ff166115125760095b905061185a565b60105460ff16801561153d57506001600160a01b03831660009081526011602052604090205460ff16155b1561154957601261150b565b6001600160a01b0384166000908152601960205260409020548015611849576000856001600160a01b0316633b1d21a26040518163ffffffff1660e01b8152600401602060405180830381865afa1580156115a8573d6000803e3d6000fd5b505050506040513d601f19601f820116820180604052508101906115cc9190615956565b90506000866001600160a01b03166347bd37186040518163ffffffff1660e01b8152600401602060405180830381865afa15801561160e573d6000803e3d6000fd5b505050506040513d601f19601f820116820180604052508101906116329190615956565b90506000876001600160a01b0316638f840ddd6040518163ffffffff1660e01b8152600401602060405180830381865afa158015611674573d6000803e3d6000fd5b505050506040513d601f19601f820116820180604052508101906116989190615956565b90506000886001600160a01b031663dc028ab16040518163ffffffff1660e01b8152600401602060405180830381865afa1580156116da573d6000803e3d6000fd5b505050506040513d601f19601f820116820180604052508101906116fe9190615956565b90506000896001600160a01b03166361feacff6040518163ffffffff1660e01b8152600401602060405180830381865afa158015611740573d6000803e3d6000fd5b505050506040513d601f19601f820116820180604052508101906117649190615956565b9050600080611786878761178161177b89896145da565b876145da565b614610565b9092509050600082600381111561179f5761179f61596f565b146117b557600b9850505050505050505061185a565b60006117c1828c614662565b909350905060008360038111156117da576117da61596f565b146117f157600b995050505050505050505061185a565b8881106118405760405162461bcd60e51b815260206004820152601960248201527f6d61726b657420737570706c79206361702072656163686564000000000000006044820152606401610bd2565b50505050505050505b6118538585614695565b60005b9150505b9392505050565b600061186b614135565b61187b57610cc96001600d614233565b60408051602080820183528482528251908101909252670de0b6b3a7640000808352815191929110156118b457610f9c6007600e614233565b60408051602081019091526714d1120d7b160000808252835111156118df5761113e6007600e614233565b600680549086905560408051828152602081018890527faeba5a6c40a8ac138134bff1aaa65debf25971188a58804bad717f82f0ec13169101611181565b6000546001600160a01b0316331480611945575060175461010090046001600160a01b031633145b6119af5760405162461bcd60e51b815260206004820152603560248201527f6f6e6c792061646d696e206f7220626f72726f772063617020677561726469616044820152746e2063616e2073657420737570706c79206361707360581b6064820152608401610bd2565b828181158015906119bf57508082145b6119fb5760405162461bcd60e51b815260206004820152600d60248201526c1a5b9d985b1a59081a5b9c1d5d609a1b6044820152606401610bd2565b60005b82811015611af757848482818110611a1857611a18615985565b9050602002013560196000898985818110611a3557611a35615985565b9050602002016020810190611a4a9190615299565b6001600160a01b03168152602081019190915260400160002055868682818110611a7657611a76615985565b9050602002016020810190611a8b9190615299565b6001600160a01b03167f9e0ad9cee10bdf36b7fbd38910c0bdff0f275ace679b45b922381c2723d676f8868684818110611ac757611ac7615985565b90506020020135604051611add91815260200190565b60405180910390a280611aef816159b1565b9150506119fe565b50505050505050565b80158015611b0e5750600082115b15611b4f5760405162461bcd60e51b815260206004820152601160248201527072656465656d546f6b656e73207a65726f60781b6044820152606401610bd2565b50505050565b600a8181548110611b6557600080fd5b6000918252602090912001546001600160a01b0316905081565b6000611b89614135565b611b9957610cc960016013614233565b600480546001600160a01b038481166001600160a01b031983168117909355604080519190921680825260208201939093527fd52b2b9b7e9ee655fcb95d2e5b9e0c9f69e7ef2b8e9d2d0ea78402d576d22e2291015b60405180910390a160009392505050565b6002546001600160a01b03163314611c755760405162461bcd60e51b815260206004820152603260248201527f6f6e6c7920696d706c656d656e746174696f6e206d61792063616c6c205f626560448201527131b7b6b2a4b6b83632b6b2b73a30ba34b7b760711b6064820152608401610bd2565b601b54610100900460ff16611c9457601b805461ffff19166101011790555b565b600080600080600080611cad8760008060006142ac565b925092509250826015811115611cc557611cc561596f565b97919650945092505050565b6000611cdb614135565b611ceb57610cc960016018614233565b601480546001600160a01b038481166001600160a01b031983168117909355604080519190921680825260208201939093527f0613b6ee6a04f0d09f390e4d9318894b9f6ac7fd83897cd8d18896ba579c401e9101611bef565b6001600160a01b03851660009081526009602052604081205460ff161580611d8657506001600160a01b03851660009081526009602052604090205460ff16155b15611d955760095b905061113e565b6040516395dd919360e01b81526001600160a01b038481166004830152600091908816906395dd919390602401602060405180830381865afa158015611ddf573d6000803e3d6000fd5b505050506040513d601f19601f82011682018060405250810190611e039190615956565b9050611e0e8761277c565b15611e795782811015611e745760405162461bcd60e51b815260206004820152602860248201527f43616e206e6f74207265706179206d6f7265207468616e2074686520746f74616044820152676c20626f72726f7760c01b6064820152608401610bd2565b611f05565b600080611e8586614737565b91935090915060009050826015811115611ea157611ea161596f565b14611ec257816015811115611eb857611eb861596f565b935050505061113e565b80611ece576003611eb8565b6000611eea604051806020016040528060055481525085614757565b905080861115611f0157601194505050505061113e565b5050505b5060009695505050505050565b6000546001600160a01b0316331480611f3a575060175461010090046001600160a01b031633145b611fa45760405162461bcd60e51b815260206004820152603560248201527f6f6e6c792061646d696e206f7220626f72726f772063617020677561726469616044820152746e2063616e2073657420626f72726f77206361707360581b6064820152608401610bd2565b82818115801590611fb457508082145b611ff05760405162461bcd60e51b815260206004820152600d60248201526c1a5b9d985b1a59081a5b9c1d5d609a1b6044820152606401610bd2565b60005b82811015611af75784848281811061200d5761200d615985565b905060200201356018600089898581811061202a5761202a615985565b905060200201602081019061203f9190615299565b6001600160a01b0316815260208101919091526040016000205586868281811061206b5761206b615985565b90506020020160208101906120809190615299565b6001600160a01b03167f6f1951b2aad10f3fc81b86d91105b413a5b3f847a34bbc5ce1904201b14438f68686848181106120bc576120bc615985565b905060200201356040516120d291815260200190565b60405180910390a2806120e4816159b1565b915050611ff3565b3360009081526009602052604090205460ff166121715760405162461bcd60e51b815260206004820152603b60248201527f436f6d7074726f6c6c65723a5f61667465724e6f6e5265656e7472616e743a2060448201527f63616c6c6572206e6f74206c6973746564206173206d61726b657400000000006064820152608401610bd2565b601b805460ff19166001179055565b611b4f565b600c8181548110611b6557600080fd5b600080730b1638ce0c7dc434b2ad41ffbc016690a24933d26001600160a01b031663fdb25fb16040518163ffffffff1660e01b8152600401602060405180830381865afa1580156121ea573d6000803e3d6000fd5b505050506040513d601f19601f8201168201806040525081019061220e9190615956565b905080156122f6576004805460405163fc57d4df60e01b81526001600160a01b03878116938201939093526000929091169063fc57d4df90602401602060405180830381865afa158015612266573d6000803e3d6000fd5b505050506040513d601f19601f8201168201806040525081019061228a9190615956565b90508061229c57600d92505050610cc9565b6000806122b76040518060200160405280858152508761476f565b909250905060008260038111156122d0576122d061596f565b146122e357600b5b945050505050610cc9565b838110156122f25760136122d8565b5050505b6000949350505050565b600061230a614135565b61231a57610cc960016019614233565b6001600160a01b03821660009081526009602052604090205460ff1661234657610cc96009601a614233565b6000826001600160a01b03166318160ddd6040518163ffffffff1660e01b8152600401602060405180830381865afa158015612386573d6000803e3d6000fd5b505050506040513d601f19601f820116820180604052508101906123aa9190615956565b11156123bc57610cc96015601b614233565b6001600160a01b0382166000908152600960209081526040808320805460ff19168155600101839055600a8054825181850281018501909352808352919290919083018282801561243657602002820191906000526020600020905b81546001600160a01b03168152600190910190602001808311612418575b5050835193945083925060009150505b8281101561249b57856001600160a01b031684828151811061246a5761246a615985565b60200260200101516001600160a01b031614156124895780915061249b565b80612493816159b1565b915050612446565b508181106124ab576124ab6159cc565b600a80546124bb906001906159e2565b815481106124cb576124cb615985565b600091825260209091200154600a80546001600160a01b0390921691839081106124f7576124f7615985565b9060005260206000200160006101000a8154816001600160a01b0302191690836001600160a01b03160217905550600a805480612536576125366159f9565b6001900381819060005260206000200160006101000a8154906001600160a01b03021916905590556000600f6000876001600160a01b031663ac784ddc6040518163ffffffff1660e01b81526004016020604051808303816000875af11580156125a4573d6000803e3d6000fd5b505050506040513d601f19601f820116820180604052508101906125c8919061591c565b61263357876001600160a01b0316636f307dc36040518163ffffffff1660e01b8152600401602060405180830381865afa15801561260a573d6000803e3d6000fd5b505050506040513d601f19601f8201168201806040525081019061262e9190615939565b612636565b60005b6001600160a01b039081168252602080830193909352604091820160002080546001600160a01b031916948216949094179093555191871682527f302feb03efd5741df80efe7f97f5d93d74d46a542a3d312d0faae64fa1f3e0e9910160405180910390a1600061113e565b6014546000906001600160a01b03163314806126c157506126c1614135565b6126dd5760405162461bcd60e51b8152600401610bd2906158a5565b6126e5614135565b806126f257506001821515145b61270e5760405162461bcd60e51b8152600401610bd2906158ec565b60148054831515600160b01b0260ff60b01b199091161790556040517fef159d9a32b2472e32b098f954f3ce62d232939f1c207070b584df1814de2de0906110b69084906040808252600890820152672a3930b739b332b960c11b6060820152901515602082015260800190565b6001600160a01b0381166000908152600960205260408120600101541580156127c257506001600160a01b03821660009081526016602052604090205460ff1615156001145b8015610cc957506128d6612898836001600160a01b031663173b99046040518163ffffffff1660e01b8152600401602060405180830381865afa15801561280d573d6000803e3d6000fd5b505050506040513d601f19601f820116820180604052508101906128319190615956565b846001600160a01b0316638d02d9a16040518163ffffffff1660e01b8152600401602060405180830381865afa15801561286f573d6000803e3d6000fd5b505050506040513d601f19601f820116820180604052508101906128939190615956565b6145da565b836001600160a01b031663dbfe7c196040518163ffffffff1660e01b8152600401602060405180830381865afa15801561286f573d6000803e3d6000fd5b670de0b6b3a76400001492915050565b60006128f0614135565b61290057610cc960016014614233565b60105460ff1615158215151415612918576000610cc9565b6010805460ff19168315159081179091556040519081527f84c7d948374a180eddab35d27d2f7a94167a1ff4e79467f1e89c061984190a1e906020015b60405180910390a16000610cc9565b600061296e614135565b61297e57610fc760016017614233565b60018054600160a01b60ff60a01b19821681179092550460ff16600086612a2057604051638754e4fd60e01b8152730b1638ce0c7dc434b2ad41ffbc016690a24933d290638754e4fd906129d89089908990600401615a0f565b6020604051808303816000875af11580156129f7573d6000803e3d6000fd5b505050506040513d601f19601f82011682018060405250810190612a1b9190615939565b612a9c565b604051639b86a9b560e01b8152730b1638ce0c7dc434b2ad41ffbc016690a24933d290639b86a9b590612a599089908990600401615a0f565b6020604051808303816000875af1158015612a78573d6000803e3d6000fd5b505050506040513d601f19601f82011682018060405250810190612a9c9190615939565b6001805460ff60a01b1916600160a01b8515150217905590506000612ac0826147c1565b90508015612ace5780612ad8565b612ad88286613b08565b98975050505050505050565b6001600160a01b0381166000908152600860209081526040808320805482518185028101850190935280835260609493830182828015612b4d57602002820191906000526020600020905b81546001600160a01b03168152600190910190602001808311612b2f575b5093979650505050505050565b6060600a8054806020026020016040519081016040528092919081815260200182805480156111ee576020028201919060005260206000209081546001600160a01b031681526001909101906020018083116111d0575050505050905090565b6000612bc4614135565b612bd457610cc960016002614233565b816001600160a01b031663abc6d72d6040518163ffffffff1660e01b8152600401602060405180830381865afa158015612c12573d6000803e3d6000fd5b505050506040513d601f19601f82011682018060405250810190612c36919061591c565b612c825760405162461bcd60e51b815260206004820152601c60248201527f6d61726b6572206d6574686f642072657475726e65642066616c7365000000006044820152606401610bd2565b60005b601a54811015612d2d57601a8181548110612ca257612ca2615985565b6000918252602090912001546001600160a01b0384811691161415612d1b5760405162461bcd60e51b815260206004820152602960248201527f526577617264734469737472696275746f7220636f6e747261637420616c726560448201526818591e48185919195960ba1b6064820152608401610bd2565b80612d25816159b1565b915050612c85565b50601a80546001810182556000919091527f057c384a7d1c54f3a1b2e5e67b2617b8224fdfd1ea7234eea573a6ff665ff63e0180546001600160a01b0319166001600160a01b0384169081179091556040519081527f98ef1187fb6fd2bc85f8996489877eb2b5428f9e9bdfc068c9ad6c2ea82eacc790602001612955565b601454600090600160b01b900460ff1615612dfe5760405162461bcd60e51b81526020600482015260126024820152711d1c985b9cd9995c881a5cc81c185d5cd95960721b6044820152606401610bd2565b6000612e0b868685614b57565b90508015612e1a579050610f9c565b612e25868686614c0f565b60009695505050505050565b805160609060008167ffffffffffffffff811115612e5157612e51615756565b604051908082528060200260200182016040528015612e7a578160200160208202803683370190505b50905060005b82811015612ef1576000858281518110612e9c57612e9c615985565b60200260200101519050612eb08133614cba565b6015811115612ec157612ec161596f565b838381518110612ed357612ed3615985565b60209081029190910101525080612ee9816159b1565b915050612e80565b509392505050565b6004805460405163fc57d4df60e01b81526001600160a01b03868116938201939093526000928392839291169063fc57d4df90602401602060405180830381865afa158015612f4c573d6000803e3d6000fd5b505050506040513d601f19601f82011682018060405250810190612f709190615956565b6004805460405163fc57d4df60e01b81526001600160a01b038981169382019390935292935060009291169063fc57d4df90602401602060405180830381865afa158015612fc2573d6000803e3d6000fd5b505050506040513d601f19601f82011682018060405250810190612fe69190615956565b9050811580612ff3575080155b1561300757600d600093509350505061310f565b6000866001600160a01b031663182df0f56040518163ffffffff1660e01b8152600401602060405180830381865afa158015613047573d6000803e3d6000fd5b505050506040513d601f19601f8201168201806040525081019061306b9190615956565b905060006130856040518060200160405280600081525090565b6040805160208082018352600080835283518083018552908152835180830185526006548152845192830190945288825291926130c191614e55565b92506130e9604051806020016040528088815250604051806020016040528088815250614e55565b91506130f58383614e9d565b9050613101818b614757565b600099509750505050505050505b935093915050565b601a8181548110611b6557600080fd5b6000613131614135565b61314157610fc760016015614233565b60005b848110156133c657600086868381811061316057613160615985565b90506020020160208101906131759190615299565b905084848381811061318957613189615985565b905060200201602081019061319e91906153e4565b15613256576001600160a01b03811660009081526011602052604090205460ff16613251576001600160a01b0381166000818152601160205260408120805460ff19166001908117909155601280548083018255928190527fbb8a6a4669ba250d26cd7a459eca9d215f8307e33aebe50379bc5a3617ec344490920180546001600160a01b0319169093179092555461323791906159e2565b6001600160a01b0382166000908152601360205260409020555b6133b3565b6001600160a01b03811660009081526011602052604090205460ff16156133b35760128054613287906001906159e2565b8154811061329757613297615985565b60009182526020808320909101546001600160a01b03848116845260139092526040909220546012805492909316929181106132d5576132d5615985565b9060005260206000200160006101000a8154816001600160a01b0302191690836001600160a01b031602179055506012805480613314576133146159f9565b60008281526020808220830160001990810180546001600160a01b03191690559092019092556001600160a01b03831682526013908190526040822054601280549193918490811061336857613368615985565b60009182526020808320909101546001600160a01b039081168452838201949094526040928301822094909455918416825260138352808220829055601190925220805460ff191690555b50806133be816159b1565b915050613144565b506000610f99565b3360009081526009602052604090205460ff166134535760405162461bcd60e51b815260206004820152603c60248201527f436f6d7074726f6c6c65723a5f6265666f72654e6f6e5265656e7472616e743a60448201527f2063616c6c6572206e6f74206c6973746564206173206d61726b6574000000006064820152608401610bd2565b601b5460ff166134a55760405162461bcd60e51b815260206004820152601860248201527f72652d656e7465726564206163726f73732061737365747300000000000000006044820152606401610bd2565b601b805460ff19169055565b606060128054806020026020016040519081016040528092919081815260200182805480156111ee576020028201919060005260206000209081546001600160a01b031681526001909101906020018083116111d0575050505050905090565b601454600090600160b81b900460ff16156135605760405162461bcd60e51b815260206004820152600f60248201526e1cd95a5e99481a5cc81c185d5cd959608a1b6044820152606401610bd2565b6001600160a01b03861660009081526009602052604090205460ff1615806135a157506001600160a01b03851660009081526009602052604090205460ff16155b156135ad576009611d8e565b846001600160a01b0316635fe3b5676040518163ffffffff1660e01b8152600401602060405180830381865afa1580156135eb573d6000803e3d6000fd5b505050506040513d601f19601f8201168201806040525081019061360f9190615939565b6001600160a01b0316866001600160a01b0316635fe3b5676040518163ffffffff1660e01b8152600401602060405180830381865afa158015613656573d6000803e3d6000fd5b505050506040513d601f19601f8201168201806040525081019061367a9190615939565b6001600160a01b03161461368f576002611d8e565b612e25868486614c0f565b60128181548110611b6557600080fd5b60006136b4614135565b6136c457610cc960016006614233565b60175460ff16151582151514156136dc576000610cc9565b6017805460ff19168315159081179091556040519081527faa40ee94af55250363b91641a0a615c47690148901505f89b01dafae03fff28190602001612955565b6001600160a01b03831660009081526016602052604081205460ff16156137795760405162461bcd60e51b815260206004820152601060248201526f189bdc9c9bddc81a5cc81c185d5cd95960821b6044820152606401610bd2565b6001600160a01b03841660009081526009602052604090205460ff166137a057600961150b565b6001600160a01b038085166000908152600960209081526040808320938716835260029093019052205460ff1661389d57336001600160a01b038516146138215760405162461bcd60e51b815260206004820152601560248201527439b2b73232b91036bab9ba1031329031aa37b5b2b760591b6044820152606401610bd2565b600061382d3385614cba565b905060008160158111156138435761384361596f565b146138625780601581111561385a5761385a61596f565b91505061185a565b6001600160a01b038086166000908152600960209081526040808320938816835260029093019052205460ff1661389b5761389b6159cc565b505b6004805460405163fc57d4df60e01b81526001600160a01b038781169382019390935291169063fc57d4df90602401602060405180830381865afa1580156138e9573d6000803e3d6000fd5b505050506040513d601f19601f8201168201806040525081019061390d9190615956565b61391857600d61150b565b60105460ff16801561394357506001600160a01b03831660009081526011602052604090205460ff16155b1561394f57601261150b565b6001600160a01b0384166000908152601860205260409020548015613a5f576000856001600160a01b03166347bd37186040518163ffffffff1660e01b8152600401602060405180830381865afa1580156139ae573d6000803e3d6000fd5b505050506040513d601f19601f820116820180604052508101906139d29190615956565b90506000806139e18387614662565b909250905060008260038111156139fa576139fa61596f565b14613a0c57600b94505050505061185a565b838110613a5b5760405162461bcd60e51b815260206004820152601960248201527f6d61726b657420626f72726f77206361702072656163686564000000000000006044820152606401610bd2565b5050505b613a698585614190565b600080613a7986886000886142ac565b91935090915060009050826015811115613a9557613a9561596f565b14613ab657816015811115613aac57613aac61596f565b935050505061185a565b8015613ac3576004613aac565b6000979650505050505050565b60086020528160005260406000208181548110613aec57600080fd5b6000918252602090912001546001600160a01b03169150829050565b6000613b12614135565b613b2957613b2260016009614233565b9050610cc9565b6001600160a01b0383166000908152600960205260409020805460ff16613b5e57613b566009600a614233565b915050610cc9565b60408051602080820183528582528251908101909252670c7d713b49da0000825290613b8c81835190511090565b15613ba757613b9d6006600b614233565b9350505050610cc9565b8415801590613c2357506004805460405163fc57d4df60e01b81526001600160a01b038981169382019390935291169063fc57d4df90602401602060405180830381865afa158015613bfd573d6000803e3d6000fd5b505050506040513d601f19601f82011682018060405250810190613c219190615956565b155b15613c3457613b9d600d600c614233565b60018301805490869055604080516001600160a01b0389168152602081018390529081018790527f70483e6592cd5182d45ac970e05bc62cdcc90e9d8ef2c2dbe686cf383bcd7fc59060600160405180910390a16000979650505050505050565b600080613ca3858585614b57565b9050801561184957905061185a565b6040516361bfb47160e11b815233600482015260009082908290819081906001600160a01b0385169063c37f68e290602401608060405180830381865afa158015613d01573d6000803e3d6000fd5b505050506040513d601f19601f82011682018060405250810190613d259190615a3e565b5092509250925082600014613d8a5760405162461bcd60e51b815260206004820152602560248201527f657869744d61726b65743a206765744163636f756e74536e617073686f742066604482015264185a5b195960da1b6064820152608401610bd2565b8015613d9c5761118c600c6003614233565b6000613da9873385614b57565b90508015613dc957613dbe600e600483614ed7565b979650505050505050565b6001600160a01b0385166000908152600960209081526040808320338452600281019092529091205460ff16613e0757600098975050505050505050565b3360009081526002820160209081526040808320805460ff191690556008825280832080548251818502810185019093528083529192909190830182828015613e7957602002820191906000526020600020905b81546001600160a01b03168152600190910190602001808311613e5b575b5050835193945083925060009150505b82811015613ede57896001600160a01b0316848281518110613ead57613ead615985565b60200260200101516001600160a01b03161415613ecc57809150613ede565b80613ed6816159b1565b915050613e89565b50818110613eee57613eee6159cc565b33600090815260086020526040902080548190613f0d906001906159e2565b81548110613f1d57613f1d615985565b9060005260206000200160009054906101000a90046001600160a01b0316818381548110613f4d57613f4d615985565b9060005260206000200160006101000a8154816001600160a01b0302191690836001600160a01b0316021790555080805480613f8b57613f8b6159f9565b600082815260209020810160001990810180546001600160a01b031916905501905580546140e257600c8054613fc3906001906159e2565b81548110613fd357613fd3615985565b6000918252602080832090910154338352600d909152604090912054600c80546001600160a01b0390931692909190811061401057614010615985565b9060005260206000200160006101000a8154816001600160a01b0302191690836001600160a01b03160217905550600c80548061404f5761404f6159f9565b60008281526020808220830160001990810180546001600160a01b0319169055909201909255338252600d908190526040822054600c80549193918490811061409a5761409a615985565b60009182526020808320909101546001600160a01b03168352828101939093526040918201812093909355338352600d8252808320839055600b9091529020805460ff191690555b604080516001600160a01b038c1681523360208201527fe699a64c18b07ac5b7301aa273f36a2287239eb9501d81950672794afba29a0d910160405180910390a160009c9b505050505050505050505050565b600080546001600160a01b0316331480156141595750600154600160a81b900460ff165b8061418b575033730b1638ce0c7dc434b2ad41ffbc016690a24933d214801561418b5750600154600160a01b900460ff165b905090565b60005b601a548110156107a357601a81815481106141b0576141b0615985565b600091825260209091200154604051631cdc2c5d60e31b81526001600160a01b03858116600483015284811660248301529091169063e6e162e890604401600060405180830381600087803b15801561420857600080fd5b505af115801561421c573d6000803e3d6000fd5b50505050808061422b906159b1565b915050614193565b60007f45b96fe442630264581b197e84bbada861235052c5a1aadfff9ea4e40a969aa08360158111156142685761426861596f565b83601b81111561427a5761427a61596f565b60408051928352602083019190915260009082015260600160405180910390a182601581111561185a5761185a61596f565b60008060006142b96151cf565b6001600160a01b03881660009081526008602090815260408083208054825181850281018501909352808352849383018282801561432057602002820191906000526020600020905b81546001600160a01b03168152600190910190602001808311614302575b5050505050905060005b815181101561458457600082828151811061434757614347615985565b60209081029190910101516040516361bfb47160e11b81526001600160a01b038e811660048301529192509082169063c37f68e290602401608060405180830381865afa15801561439c573d6000803e3d6000fd5b505050506040513d601f19601f820116820180604052508101906143c09190615a3e565b608089015260608801526040870152935083156143ec57600f6000809750975097505050505050611484565b60408051602080820183526001600160a01b0384811660008181526009845285902060010154845260c08a01939093528351808301855260808a0151815260e08a015260048054855163fc57d4df60e01b815291820194909452935192169263fc57d4df92602480830193928290030181865afa158015614471573d6000803e3d6000fd5b505050506040513d601f19601f820116820180604052508101906144959190615956565b60a086018190526144b557600d6000809750975097505050505050611484565b604080516020810190915260a0860151815261010086015260c085015160e08601516144ef916144e491614e55565b866101000151614e55565b610120860181905260408601518651614509929190614f4f565b855261010085015160608601516020870151614526929190614f4f565b60208601526001600160a01b03818116908c161415614571576145538561012001518b8760200151614f4f565b6020860181905261010086015161456b918b90614f4f565b60208601525b508061457c816159b1565b91505061432a565b506020830151835111156145b557602083015183516000916145a5916159e2565b6000955095509550505050611484565b600080846000015185602001516145cc91906159e2565b955095509550505050611484565b600061185a8383604051806040016040528060118152602001706164646974696f6e206f766572666c6f7760781b815250614f70565b6000806000806146208787614662565b909250905060008260038111156146395761463961596f565b1461464a575091506000905061310f565b6146548186614faa565b935093505050935093915050565b600080806146708486615a74565b90508481106146845760009250905061468e565b6002600092509250505b9250929050565b60005b601a548110156107a357601a81815481106146b5576146b5615985565b60009182526020909120015460405162e48b0f60e51b81526001600160a01b038581166004830152848116602483015290911690631c9161e090604401600060405180830381600087803b15801561470c57600080fd5b505af1158015614720573d6000803e3d6000fd5b50505050808061472f906159b1565b915050614698565b600080600061474a8460008060006142ac565b9250925092509193909250565b6000806147648484614fd5565b9050610f9c81614ffd565b60008060008061477f8686615015565b909250905060008260038111156147985761479861596f565b146147a9575091506000905061468e565b60006147b482614ffd565b9350935050509250929050565b60006147cb614135565b6147db57610cc960016017614233565b6001600160a01b03821660009081526009602052604090205460ff161561480857610cc9600a6016614233565b816001600160a01b031663fe9c44ae6040518163ffffffff1660e01b81526004016020604051808303816000875af1158015614848573d6000803e3d6000fd5b505050506040513d601f19601f8201168201806040525081019061486c919061591c565b6148b85760405162461bcd60e51b815260206004820152601c60248201527f6d61726b6572206d6574686f642072657475726e65642066616c7365000000006044820152606401610bd2565b306001600160a01b0316826001600160a01b0316635fe3b5676040518163ffffffff1660e01b8152600401602060405180830381865afa158015614900573d6000803e3d6000fd5b505050506040513d601f19601f820116820180604052508101906149249190615939565b6001600160a01b0316146149985760405162461bcd60e51b815260206004820152603560248201527f43616e6e6f7420737570706f72742061206d61726b657420776974682061206460448201527434b33332b932b73a1021b7b6b83a3937b63632b91760591b6064820152608401610bd2565b6000826001600160a01b031663ac784ddc6040518163ffffffff1660e01b81526004016020604051808303816000875af11580156149da573d6000803e3d6000fd5b505050506040513d601f19601f820116820180604052508101906149fe919061591c565b614a6957826001600160a01b0316636f307dc36040518163ffffffff1660e01b8152600401602060405180830381865afa158015614a40573d6000803e3d6000fd5b505050506040513d601f19601f82011682018060405250810190614a649190615939565b614a6c565b60005b6001600160a01b038082166000908152600f60205260409020549192501615614a9b5761185a600a6016614233565b6001600160a01b038381166000818152600960209081526040808320805460ff191660019081178255808201859055600a805491820190557fc65a7bb8d6351c1cf70c95a316cc6a92839c986682d98bc35f958f4883f9d2a80180546001600160a01b031990811687179091559587168452600f835292819020805490951684179094559251918252917fcf583bb0c569eb967f806b11601c4cb93c10310485c67add5f8362c2f212321f910160405180910390a16000610f9c565b6001600160a01b03831660009081526009602052604081205460ff16614b7e57600961150b565b6001600160a01b038085166000908152600960209081526040808320938716835260029093019052205460ff16614bb657600061150b565b600080614bc685878660006142ac565b91935090915060009050826015811115614be257614be261596f565b14614c0257816015811115614bf957614bf961596f565b9250505061185a565b8015612e25576004614bf9565b60005b601a54811015611b4f57601a8181548110614c2f57614c2f615985565b600091825260209091200154604051634e081c9560e01b81526001600160a01b0386811660048301528581166024830152848116604483015290911690634e081c9590606401600060405180830381600087803b158015614c8f57600080fd5b505af1158015614ca3573d6000803e3d6000fd5b505050508080614cb2906159b1565b915050614c12565b6001600160a01b0382166000908152600960205260408120805460ff16614ce5576009915050610cc9565b6001600160a01b038316600090815260028201602052604090205460ff16151560011415614d17576000915050610cc9565b6001600160a01b03838116600081815260028401602090815260408083208054600160ff199091168117909155600883528184208054918201815584528284200180546001600160a01b031916958a1695909517909455918152600b909152205460ff16614e0857600c8054600180820183557fdf6966c971051c3d54ec59162606531493a51404a002842f56009d7e5cf4a8c790910180546001600160a01b0319166001600160a01b0387169081179091556000908152600b60205260409020805460ff1916821790559054614dee91906159e2565b6001600160a01b0384166000908152600d60205260409020555b604080516001600160a01b038087168252851660208201527f3ab23ab0d51cccc0c3085aec51f99228625aa1a922b3a8ca89a26b0f2027a1a5910160405180910390a15060009392505050565b6040805160208101909152600081526040518060200160405280670de0b6b3a7640000614e8a86600001518660000151615091565b614e949190615a8c565b90529392505050565b6040805160208101909152600081526040518060200160405280614e94614ed08660000151670de0b6b3a7640000615091565b85516150d3565b60007f45b96fe442630264581b197e84bbada861235052c5a1aadfff9ea4e40a969aa0846015811115614f0c57614f0c61596f565b84601b811115614f1e57614f1e61596f565b604080519283526020830191909152810184905260600160405180910390a1836015811115610f9c57610f9c61596f565b600080614f5c8585614fd5565b9050611856614f6a82614ffd565b846145da565b600080614f7d8486615a74565b90508285821015614fa15760405162461bcd60e51b8152600401610bd29190615aae565b50949350505050565b600080838311614fc9576000614fc084866159e2565b9150915061468e565b5060039050600061468e565b6040805160208101909152600081526040518060200160405280614e94856000015185615091565b8051600090610cc990670de0b6b3a764000090615a8c565b600061502d6040518060200160405280600081525090565b60008061503e866000015186615106565b909250905060008260038111156150575761505761596f565b146150765750604080516020810190915260008152909250905061468e565b60408051602081019091529081526000969095509350505050565b600061185a83836040518060400160405280601781526020017f6d756c7469706c69636174696f6e206f766572666c6f77000000000000000000815250615150565b600061185a83836040518060400160405280600e81526020016d646976696465206279207a65726f60901b8152506151a3565b600080836151195750600090508061468e565b60006151258486615b03565b9050836151328683615a8c565b146151455760026000925092505061468e565b60009250905061468e565b600083158061515d575082155b1561516a5750600061185a565b60006151768486615b03565b9050836151838683615a8c565b148390614fa15760405162461bcd60e51b8152600401610bd29190615aae565b600081836151c45760405162461bcd60e51b8152600401610bd29190615aae565b50610f9c8385615a8c565b60405180610140016040528060008152602001600081526020016000815260200160008152602001600081526020016000815260200161521b6040518060200160405280600081525090565b81526020016152366040518060200160405280600081525090565b81526020016152516040518060200160405280600081525090565b815260200161526c6040518060200160405280600081525090565b905290565b6001600160a01b038116811461528657600080fd5b50565b803561529481615271565b919050565b6000602082840312156152ab57600080fd5b813561185a81615271565b801515811461528657600080fd5b600080604083850312156152d757600080fd5b82356152e281615271565b915060208301356152f2816152b6565b809150509250929050565b600080600080600060a0868803121561531557600080fd5b853561532081615271565b9450602086013561533081615271565b9350604086013561534081615271565b94979396509394606081013594506080013592915050565b6000806000806080858703121561536e57600080fd5b843561537981615271565b966020860135965060408601359560600135945092505050565b600080600080608085870312156153a957600080fd5b84356153b481615271565b935060208501356153c481615271565b925060408501356153d481615271565b9396929550929360600135925050565b6000602082840312156153f657600080fd5b813561185a816152b6565b60006020828403121561541357600080fd5b5035919050565b6020808252825182820181905260009190848201906040850190845b8181101561545b5783516001600160a01b031683529284019291840191600101615436565b50909695505050505050565b6000806000806080858703121561547d57600080fd5b843561548881615271565b9350602085013561549881615271565b93969395505050506040820135916060013590565b60008060008060008060c087890312156154c657600080fd5b86356154d181615271565b955060208701356154e181615271565b945060408701356154f181615271565b9350606087013561550181615271565b9598949750929560808101359460a0909101359350915050565b60008060006060848603121561553057600080fd5b833561553b81615271565b9250602084013561554b81615271565b929592945050506040919091013590565b60008083601f84011261556e57600080fd5b50813567ffffffffffffffff81111561558657600080fd5b6020830191508360208260051b850101111561468e57600080fd5b600080600080604085870312156155b757600080fd5b843567ffffffffffffffff808211156155cf57600080fd5b6155db8883890161555c565b909650945060208701359150808211156155f457600080fd5b506156018782880161555c565b95989497509550505050565b600080600080600060a0868803121561562557600080fd5b853561563081615271565b9450602086013561564081615271565b9350604086013561565081615271565b9250606086013561566081615271565b949793965091946080013592915050565b6000806040838503121561568457600080fd5b823561568f81615271565b946020939093013593505050565b600080604083850312156156b057600080fd5b82356156bb81615271565b915060208301356152f281615271565b600080600080606085870312156156e157600080fd5b84356156ec816152b6565b9350602085013567ffffffffffffffff8082111561570957600080fd5b818701915087601f83011261571d57600080fd5b81358181111561572c57600080fd5b88602082850101111561573e57600080fd5b95986020929092019750949560400135945092505050565b634e487b7160e01b600052604160045260246000fd5b6000602080838503121561577f57600080fd5b823567ffffffffffffffff8082111561579757600080fd5b818501915085601f8301126157ab57600080fd5b8135818111156157bd576157bd615756565b8060051b604051601f19603f830116810181811085821117156157e2576157e2615756565b60405291825284820192508381018501918883111561580057600080fd5b938501935b82851015612ad85761581685615289565b84529385019392850192615805565b6020808252825182820181905260009190848201906040850190845b8181101561545b57835183529284019291840191600101615841565b60208082526028908201527f63616e6e6f742070617573652061206d61726b65742074686174206973206e6f6040820152671d081b1a5cdd195960c21b606082015260800190565b60208082526027908201527f6f6e6c7920706175736520677561726469616e20616e642061646d696e2063616040820152666e20706175736560c81b606082015260800190565b6020808252601690820152756f6e6c792061646d696e2063616e20756e706175736560501b604082015260600190565b60006020828403121561592e57600080fd5b815161185a816152b6565b60006020828403121561594b57600080fd5b815161185a81615271565b60006020828403121561596857600080fd5b5051919050565b634e487b7160e01b600052602160045260246000fd5b634e487b7160e01b600052603260045260246000fd5b634e487b7160e01b600052601160045260246000fd5b60006000198214156159c5576159c561599b565b5060010190565b634e487b7160e01b600052600160045260246000fd5b6000828210156159f4576159f461599b565b500390565b634e487b7160e01b600052603160045260246000fd5b60208152816020820152818360408301376000818301604090810191909152601f909201601f19160101919050565b60008060008060808587031215615a5457600080fd5b505082516020840151604085015160609095015191969095509092509050565b60008219821115615a8757615a8761599b565b500190565b600082615aa957634e487b7160e01b600052601260045260246000fd5b500490565b600060208083528351808285015260005b81811015615adb57858101830151858201604001528201615abf565b81811115615aed576000604083870101525b50601f01601f1916929092016040019392505050565b6000816000190483118215151615615b1d57615b1d61599b565b50029056fea2646970667358221220fcba9f2b599945df3def8009ef8d016a865522df4d306745dd776bb157b026b164736f6c634300080b0033",
  "devdoc": {
    "author": "Compound",
    "details": "This contract should not to be deployed alone; instead, deploy `Unitroller` (proxy contract) on top of this `Comptroller` (logic/implementation contract).",
    "kind": "dev",
    "methods": {
      "_addRewardsDistributor(address)": {
        "details": "Admin function to add a RewardsDistributor contract",
        "returns": {
          "_0": "uint 0=success, otherwise a failure (see ErrorReporter.sol for details)"
        }
      },
      "_afterNonReentrant()": {
        "details": "Called by cTokens after a non-reentrant function for pool-wide reentrancy prevention. Prevents pool-wide/cross-asset reentrancy exploits like AMP on Cream."
      },
      "_beforeNonReentrant()": {
        "details": "Called by cTokens before a non-reentrant function for pool-wide reentrancy prevention. Prevents pool-wide/cross-asset reentrancy exploits like AMP on Cream."
      },
      "_deployMarket(bool,bytes,uint256)": {
        "details": "Admin function to deploy cToken, set isListed, and add support for the market and set the collateral factor",
        "returns": {
          "_0": "uint 0=success, otherwise a failure. (See enum Error for details)"
        }
      },
      "_setBorrowCapGuardian(address)": {
        "params": {
          "newBorrowCapGuardian": "The address of the new Borrow Cap Guardian"
        }
      },
      "_setCloseFactor(uint256)": {
        "details": "Admin function to set closeFactor",
        "params": {
          "newCloseFactorMantissa": "New close factor, scaled by 1e18"
        },
        "returns": {
          "_0": "uint 0=success, otherwise a failure. (See ErrorReporter for details)"
        }
      },
      "_setCollateralFactor(address,uint256)": {
        "details": "Admin function to set per-market collateralFactor",
        "params": {
          "cToken": "The market to set the factor on",
          "newCollateralFactorMantissa": "The new collateral factor, scaled by 1e18"
        },
        "returns": {
          "_0": "uint 0=success, otherwise a failure. (See ErrorReporter for details)"
        }
      },
      "_setLiquidationIncentive(uint256)": {
        "details": "Admin function to set liquidationIncentive",
        "params": {
          "newLiquidationIncentiveMantissa": "New liquidationIncentive scaled by 1e18"
        },
        "returns": {
          "_0": "uint 0=success, otherwise a failure. (See ErrorReporter for details)"
        }
      },
      "_setMarketBorrowCaps(address[],uint256[])": {
        "details": "Admin or borrowCapGuardian function to set the borrow caps. A borrow cap of 0 corresponds to unlimited borrowing.",
        "params": {
          "cTokens": "The addresses of the markets (tokens) to change the borrow caps for",
          "newBorrowCaps": "The new borrow cap values in underlying to be set. A value of 0 corresponds to unlimited borrowing."
        }
      },
      "_setMarketSupplyCaps(address[],uint256[])": {
        "details": "Admin or borrowCapGuardian function to set the supply caps. A supply cap of 0 corresponds to unlimited supplying.",
        "params": {
          "cTokens": "The addresses of the markets (tokens) to change the supply caps for",
          "newSupplyCaps": "The new supply cap values in underlying to be set. A value of 0 corresponds to unlimited supplying."
        }
      },
      "_setPauseGuardian(address)": {
        "params": {
          "newPauseGuardian": "The address of the new Pause Guardian"
        },
        "returns": {
          "_0": "uint 0=success, otherwise a failure. (See enum Error for details)"
        }
      },
      "_setPriceOracle(address)": {
        "details": "Admin function to set a new price oracle",
        "returns": {
          "_0": "uint 0=success, otherwise a failure (see ErrorReporter.sol for details)"
        }
      },
      "_setWhitelistEnforcement(bool)": {
        "details": "Admin function to set a new whitelist enforcement boolean",
        "returns": {
          "_0": "uint 0=success, otherwise a failure (see ErrorReporter.sol for details)"
        }
      },
      "_setWhitelistStatuses(address[],bool[])": {
        "details": "Admin function to set the whitelist `statuses` for `suppliers`",
        "returns": {
          "_0": "uint 0=success, otherwise a failure (see ErrorReporter.sol for details)"
        }
      },
      "_toggleAutoImplementations(bool)": {
        "params": {
          "enabled": "If the feature is to be enabled"
        },
        "returns": {
          "_0": "uint 0=success, otherwise a failure. (See enum Error for details)"
        }
      },
      "_unsupportMarket(address)": {
        "details": "Admin function unset isListed and collateralFactorMantissa and unadd support for the market",
        "params": {
          "cToken": "The address of the market (token) to unlist"
        },
        "returns": {
          "_0": "uint 0=success, otherwise a failure. (See enum Error for details)"
        }
      },
      "borrowAllowed(address,address,uint256)": {
        "params": {
          "borrowAmount": "The amount of underlying the account would borrow",
          "borrower": "The account which would borrow the asset",
          "cToken": "The market to verify the borrow against"
        },
        "returns": {
          "_0": "0 if the borrow is allowed, otherwise a semi-opaque error code (See ErrorReporter.sol)"
        }
      },
      "borrowVerify(address,address,uint256)": {
        "params": {
          "borrowAmount": "The amount of the underlying asset requested to borrow",
          "borrower": "The address borrowing the underlying",
          "cToken": "Asset whose underlying is being borrowed"
        }
      },
      "borrowWithinLimits(address,uint256)": {
        "params": {
          "accountBorrowsNew": "The user's new borrow balance of the underlying asset",
          "cToken": "Asset whose underlying is being borrowed"
        }
      },
      "checkMembership(address,address)": {
        "params": {
          "account": "The address of the account to check",
          "cToken": "The cToken to check"
        },
        "returns": {
          "_0": "True if the account is in the asset, otherwise false."
        }
      },
      "enterMarkets(address[])": {
        "params": {
          "cTokens": "The list of addresses of the cToken markets to be enabled"
        },
        "returns": {
          "_0": "Success indicator for whether each corresponding market was entered"
        }
      },
      "exitMarket(address)": {
        "details": "Sender must not have an outstanding borrow balance in the asset,  or be providing neccessary collateral for an outstanding borrow.",
        "params": {
          "cTokenAddress": "The address of the asset to be removed"
        },
        "returns": {
          "_0": "Whether or not the account successfully exited the market"
        }
      },
      "getAccountLiquidity(address)": {
        "returns": {
          "_0": "(possible error code (semi-opaque), account liquidity in excess of collateral requirements,          account shortfall below collateral requirements)"
        }
      },
      "getAllBorrowers()": {
        "details": "The automatic getter may be used to access an individual borrower.",
        "returns": {
          "_0": "The list of borrower account addresses"
        }
      },
      "getAllMarkets()": {
        "details": "The automatic getter may be used to access an individual market.",
        "returns": {
          "_0": "The list of market addresses"
        }
      },
      "getAssetsIn(address)": {
        "params": {
          "account": "The address of the account to pull assets for"
        },
        "returns": {
          "_0": "A dynamic list with the assets the account has entered"
        }
      },
      "getHypotheticalAccountLiquidity(address,address,uint256,uint256)": {
        "params": {
          "account": "The account to determine liquidity for",
          "borrowAmount": "The amount of underlying to hypothetically borrow",
          "cTokenModify": "The market to hypothetically redeem/borrow in",
          "redeemTokens": "The number of tokens to hypothetically redeem"
        },
        "returns": {
          "_0": "(possible error code (semi-opaque), hypothetical account liquidity in excess of collateral requirements,          hypothetical account shortfall below collateral requirements)"
        }
      },
      "getWhitelist()": {
        "details": "The automatic getter may be used to access an individual whitelist status.",
        "returns": {
          "_0": "The list of borrower account addresses"
        }
      },
      "isDeprecated(address)": {
        "details": "All borrows in a deprecated cToken market can be immediately liquidated",
        "params": {
          "cToken": "The market to check if deprecated"
        }
      },
      "liquidateBorrowAllowed(address,address,address,address,uint256)": {
        "params": {
          "borrower": "The address of the borrower",
          "cTokenBorrowed": "Asset which was borrowed by the borrower",
          "cTokenCollateral": "Asset which was used as collateral and will be seized",
          "liquidator": "The address repaying the borrow and seizing the collateral",
          "repayAmount": "The amount of underlying being repaid"
        }
      },
      "liquidateBorrowVerify(address,address,address,address,uint256,uint256)": {
        "params": {
          "actualRepayAmount": "The amount of underlying being repaid",
          "borrower": "The address of the borrower",
          "cTokenBorrowed": "Asset which was borrowed by the borrower",
          "cTokenCollateral": "Asset which was used as collateral and will be seized",
          "liquidator": "The address repaying the borrow and seizing the collateral"
        }
      },
      "liquidateCalculateSeizeTokens(address,address,uint256)": {
        "details": "Used in liquidation (called in cToken.liquidateBorrowFresh)",
        "params": {
          "actualRepayAmount": "The amount of cTokenBorrowed underlying to convert into cTokenCollateral tokens",
          "cTokenBorrowed": "The address of the borrowed cToken",
          "cTokenCollateral": "The address of the collateral cToken"
        },
        "returns": {
          "_0": "(errorCode, number of cTokenCollateral tokens to be seized in a liquidation)"
        }
      },
      "mintAllowed(address,address,uint256)": {
        "params": {
          "cToken": "The market to verify the mint against",
          "mintAmount": "The amount of underlying being supplied to the market in exchange for tokens",
          "minter": "The account which would get the minted tokens"
        },
        "returns": {
          "_0": "0 if the mint is allowed, otherwise a semi-opaque error code (See ErrorReporter.sol)"
        }
      },
      "mintVerify(address,address,uint256,uint256)": {
        "params": {
          "actualMintAmount": "The amount of the underlying asset being minted",
          "cToken": "Asset being minted",
          "mintTokens": "The number of tokens being minted",
          "minter": "The address minting the tokens"
        }
      },
      "mintWithinLimits(address,uint256,uint256,uint256)": {
        "params": {
          "accountTokens": "Underlying amount to mint",
          "cToken": "Asset whose underlying is being borrowed",
          "exchangeRateMantissa": "Underlying/cToken exchange rate"
        }
      },
      "redeemAllowed(address,address,uint256)": {
        "params": {
          "cToken": "The market to verify the redeem against",
          "redeemTokens": "The number of cTokens to exchange for the underlying asset in the market",
          "redeemer": "The account which would redeem the tokens"
        },
        "returns": {
          "_0": "0 if the redeem is allowed, otherwise a semi-opaque error code (See ErrorReporter.sol)"
        }
      },
      "redeemVerify(address,address,uint256,uint256)": {
        "params": {
          "cToken": "Asset being redeemed",
          "redeemAmount": "The amount of the underlying asset being redeemed",
          "redeemTokens": "The number of tokens being redeemed",
          "redeemer": "The address redeeming the tokens"
        }
      },
      "repayBorrowAllowed(address,address,address,uint256)": {
        "params": {
          "borrower": "The account which would borrowed the asset",
          "cToken": "The market to verify the repay against",
          "payer": "The account which would repay the asset",
          "repayAmount": "The amount of the underlying asset the account would repay"
        },
        "returns": {
          "_0": "0 if the repay is allowed, otherwise a semi-opaque error code (See ErrorReporter.sol)"
        }
      },
      "repayBorrowVerify(address,address,address,uint256,uint256)": {
        "params": {
          "actualRepayAmount": "The amount of underlying being repaid",
          "borrower": "The address of the borrower",
          "cToken": "Asset being repaid",
          "payer": "The address repaying the borrow"
        }
      },
      "seizeAllowed(address,address,address,address,uint256)": {
        "params": {
          "borrower": "The address of the borrower",
          "cTokenBorrowed": "Asset which was borrowed by the borrower",
          "cTokenCollateral": "Asset which was used as collateral and will be seized",
          "liquidator": "The address repaying the borrow and seizing the collateral",
          "seizeTokens": "The number of collateral tokens to seize"
        }
      },
      "seizeVerify(address,address,address,address,uint256)": {
        "params": {
          "borrower": "The address of the borrower",
          "cTokenBorrowed": "Asset which was borrowed by the borrower",
          "cTokenCollateral": "Asset which was used as collateral and will be seized",
          "liquidator": "The address repaying the borrow and seizing the collateral",
          "seizeTokens": "The number of collateral tokens to seize"
        }
      },
      "transferAllowed(address,address,address,uint256)": {
        "params": {
          "cToken": "The market to verify the transfer against",
          "dst": "The account which receives the tokens",
          "src": "The account which sources the tokens",
          "transferTokens": "The number of cTokens to transfer"
        },
        "returns": {
          "_0": "0 if the transfer is allowed, otherwise a semi-opaque error code (See ErrorReporter.sol)"
        }
      },
      "transferVerify(address,address,address,uint256)": {
        "params": {
          "cToken": "Asset being transferred",
          "dst": "The account which receives the tokens",
          "src": "The account which sources the tokens",
          "transferTokens": "The number of cTokens to transfer"
        }
      }
    },
    "title": "Compound's Comptroller Contract",
    "version": 1
  },
  "userdoc": {
    "events": {
      "ActionPaused(address,string,bool)": {
        "notice": "Emitted when an action is paused on a market"
      },
      "ActionPaused(string,bool)": {
        "notice": "Emitted when an action is paused globally"
      },
      "AddedRewardsDistributor(address)": {
        "notice": "Emitted when a new RewardsDistributor contract is added to hooks"
      },
      "AutoImplementationsToggled(bool)": {
        "notice": "Emitted when auto implementations are toggled"
      },
      "MarketEntered(address,address)": {
        "notice": "Emitted when an account enters a market"
      },
      "MarketExited(address,address)": {
        "notice": "Emitted when an account exits a market"
      },
      "MarketListed(address)": {
        "notice": "Emitted when an admin supports a market"
      },
      "MarketUnlisted(address)": {
        "notice": "Emitted when an admin unsupports a market"
      },
      "NewBorrowCap(address,uint256)": {
        "notice": "Emitted when borrow cap for a cToken is changed"
      },
      "NewBorrowCapGuardian(address,address)": {
        "notice": "Emitted when borrow cap guardian is changed"
      },
      "NewCloseFactor(uint256,uint256)": {
        "notice": "Emitted when close factor is changed by admin"
      },
      "NewCollateralFactor(address,uint256,uint256)": {
        "notice": "Emitted when a collateral factor is changed by admin"
      },
      "NewLiquidationIncentive(uint256,uint256)": {
        "notice": "Emitted when liquidation incentive is changed by admin"
      },
      "NewPauseGuardian(address,address)": {
        "notice": "Emitted when pause guardian is changed"
      },
      "NewPriceOracle(address,address)": {
        "notice": "Emitted when price oracle is changed"
      },
      "NewSupplyCap(address,uint256)": {
        "notice": "Emitted when supply cap for a cToken is changed"
      },
      "WhitelistEnforcementChanged(bool)": {
        "notice": "Emitted when the whitelist enforcement is changed"
      }
    },
    "kind": "user",
    "methods": {
      "_addRewardsDistributor(address)": {
        "notice": "Add a RewardsDistributor contracts."
      },
      "_deployMarket(bool,bytes,uint256)": {
        "notice": "Deploy cToken, add the market to the markets mapping, and set it as listed and set the collateral factor"
      },
      "_setBorrowCapGuardian(address)": {
        "notice": "Admin function to change the Borrow Cap Guardian"
      },
      "_setCloseFactor(uint256)": {
        "notice": "Sets the closeFactor used when liquidating borrows"
      },
      "_setCollateralFactor(address,uint256)": {
        "notice": "Sets the collateralFactor for a market"
      },
      "_setLiquidationIncentive(uint256)": {
        "notice": "Sets liquidationIncentive"
      },
      "_setMarketBorrowCaps(address[],uint256[])": {
        "notice": "Set the given borrow caps for the given cToken markets. Borrowing that brings total borrows to or above borrow cap will revert."
      },
      "_setMarketSupplyCaps(address[],uint256[])": {
        "notice": "Set the given supply caps for the given cToken markets. Supplying that brings total underlying supply to or above supply cap will revert."
      },
      "_setPauseGuardian(address)": {
        "notice": "Admin function to change the Pause Guardian"
      },
      "_setPriceOracle(address)": {
        "notice": "Sets a new price oracle for the comptroller"
      },
      "_setWhitelistEnforcement(bool)": {
        "notice": "Sets the whitelist enforcement for the comptroller"
      },
      "_setWhitelistStatuses(address[],bool[])": {
        "notice": "Sets the whitelist `statuses` for `suppliers`"
      },
      "_toggleAutoImplementations(bool)": {
        "notice": "Toggles the auto-implementation feature"
      },
      "_unsupportMarket(address)": {
        "notice": "Removed a market from the markets mapping and sets it as unlisted"
      },
      "accountAssets(address,uint256)": {
        "notice": "Per-account mapping of \"assets you are in\", capped by maxAssets"
      },
      "admin()": {
        "notice": "Administrator for this contract"
      },
      "adminHasRights()": {
        "notice": "Whether or not the admin has admin rights"
      },
      "allBorrowers(uint256)": {
        "notice": "A list of all borrowers who have entered markets"
      },
      "allMarkets(uint256)": {
        "notice": "A list of all markets"
      },
      "borrowAllowed(address,address,uint256)": {
        "notice": "Checks if the account should be allowed to borrow the underlying asset of the given market"
      },
      "borrowCapGuardian()": {
        "notice": "The borrowCapGuardian can set borrowCaps to any number for any market. Lowering the borrow cap could disable borrowing on the given market."
      },
      "borrowCaps(address)": {
        "notice": "Borrow caps enforced by borrowAllowed for each cToken address. Defaults to zero which corresponds to unlimited borrowing."
      },
      "borrowVerify(address,address,uint256)": {
        "notice": "Validates borrow and reverts on rejection. May emit logs."
      },
      "borrowWithinLimits(address,uint256)": {
        "notice": "Checks if the account should be allowed to borrow the underlying asset of the given market"
      },
      "cTokensByUnderlying(address)": {
        "notice": "All cTokens addresses mapped by their underlying token addresses"
      },
      "checkMembership(address,address)": {
        "notice": "Returns whether the given account is entered in the given asset"
      },
      "closeFactorMantissa()": {
        "notice": "Multiplier used to calculate the maximum repayAmount when liquidating a borrow"
      },
      "comptrollerImplementation()": {
        "notice": "Active brains of Unitroller"
      },
      "enforceWhitelist()": {
        "notice": "Whether or not the supplier whitelist is enforced"
      },
      "enterMarkets(address[])": {
        "notice": "Add assets to be included in account liquidity calculation"
      },
      "exitMarket(address)": {
        "notice": "Removes asset from sender's account liquidity calculation"
      },
      "fuseAdminHasRights()": {
        "notice": "Whether or not the Fuse admin has admin rights"
      },
      "getAccountLiquidity(address)": {
        "notice": "Determine the current account liquidity wrt collateral requirements"
      },
      "getAllBorrowers()": {
        "notice": "Return all of the borrowers"
      },
      "getAllMarkets()": {
        "notice": "Return all of the markets"
      },
      "getAssetsIn(address)": {
        "notice": "Returns the assets an account has entered"
      },
      "getHypotheticalAccountLiquidity(address,address,uint256,uint256)": {
        "notice": "Determine what the account liquidity would be if the given amounts were redeemed/borrowed"
      },
      "getRewardsDistributors()": {
        "notice": "Returns an array of all RewardsDistributors"
      },
      "getWhitelist()": {
        "notice": "Return all of the whitelist"
      },
      "isComptroller()": {
        "notice": "Indicator that this is a Comptroller contract (for inspection)"
      },
      "isDeprecated(address)": {
        "notice": "Returns true if the given cToken market has been deprecated"
      },
      "liquidateBorrowAllowed(address,address,address,address,uint256)": {
        "notice": "Checks if the liquidation should be allowed to occur"
      },
      "liquidateBorrowVerify(address,address,address,address,uint256,uint256)": {
        "notice": "Validates liquidateBorrow and reverts on rejection. May emit logs."
      },
      "liquidateCalculateSeizeTokens(address,address,uint256)": {
        "notice": "Calculate number of tokens of collateral asset to seize given an underlying amount"
      },
      "liquidationIncentiveMantissa()": {
        "notice": "Multiplier representing the discount on collateral that a liquidator receives"
      },
      "markets(address)": {
        "notice": "Official mapping of cTokens -> Market metadata"
      },
      "mintAllowed(address,address,uint256)": {
        "notice": "Checks if the account should be allowed to mint tokens in the given market"
      },
      "mintVerify(address,address,uint256,uint256)": {
        "notice": "Validates mint and reverts on rejection. May emit logs."
      },
      "mintWithinLimits(address,uint256,uint256,uint256)": {
        "notice": "Checks if the account should be allowed to borrow the underlying asset of the given market"
      },
      "oracle()": {
        "notice": "Oracle which gives the price of any given asset"
      },
      "pauseGuardian()": {
        "notice": "The Pause Guardian can pause certain actions as a safety mechanism.  Actions which allow users to remove their own assets cannot be paused.  Liquidation / seizing / transfer can only be paused globally, not by market."
      },
      "pendingAdmin()": {
        "notice": "Pending administrator for this contract"
      },
      "pendingComptrollerImplementation()": {
        "notice": "Pending brains of Unitroller"
      },
      "redeemAllowed(address,address,uint256)": {
        "notice": "Checks if the account should be allowed to redeem tokens in the given market"
      },
      "redeemVerify(address,address,uint256,uint256)": {
        "notice": "Validates redeem and reverts on rejection. May emit logs."
      },
      "repayBorrowAllowed(address,address,address,uint256)": {
        "notice": "Checks if the account should be allowed to repay a borrow in the given market"
      },
      "repayBorrowVerify(address,address,address,uint256,uint256)": {
        "notice": "Validates repayBorrow and reverts on rejection. May emit logs."
      },
      "rewardsDistributors(uint256)": {
        "notice": "RewardsDistributor contracts to notify of flywheel changes."
      },
      "seizeAllowed(address,address,address,address,uint256)": {
        "notice": "Checks if the seizing of assets should be allowed to occur"
      },
      "seizeVerify(address,address,address,address,uint256)": {
        "notice": "Validates seize and reverts on rejection. May emit logs."
      },
      "supplyCaps(address)": {
        "notice": "Supply caps enforced by mintAllowed for each cToken address. Defaults to zero which corresponds to unlimited supplying."
      },
      "transferAllowed(address,address,address,uint256)": {
        "notice": "Checks if the account should be allowed to transfer tokens in the given market"
      },
      "transferVerify(address,address,address,uint256)": {
        "notice": "Validates transfer and reverts on rejection. May emit logs."
      },
      "whitelist(address)": {
        "notice": "Maps addresses to booleans indicating if they are allowed to supply assets (i.e., mint cTokens)"
      },
      "whitelistArray(uint256)": {
        "notice": "An array of all whitelisted accounts"
      }
    },
    "version": 1
  },
  "storageLayout": {
    "storage": [
      {
        "astId": 21225,
        "contract": "contracts/compound/Comptroller.sol:Comptroller",
        "label": "admin",
        "offset": 0,
        "slot": "0",
        "type": "t_address"
      },
      {
        "astId": 21228,
        "contract": "contracts/compound/Comptroller.sol:Comptroller",
        "label": "pendingAdmin",
        "offset": 0,
        "slot": "1",
        "type": "t_address"
      },
      {
        "astId": 21232,
        "contract": "contracts/compound/Comptroller.sol:Comptroller",
        "label": "fuseAdminHasRights",
        "offset": 20,
        "slot": "1",
        "type": "t_bool"
      },
      {
        "astId": 21236,
        "contract": "contracts/compound/Comptroller.sol:Comptroller",
        "label": "adminHasRights",
        "offset": 21,
        "slot": "1",
        "type": "t_bool"
      },
      {
        "astId": 21265,
        "contract": "contracts/compound/Comptroller.sol:Comptroller",
        "label": "comptrollerImplementation",
        "offset": 0,
        "slot": "2",
        "type": "t_address"
      },
      {
        "astId": 21268,
        "contract": "contracts/compound/Comptroller.sol:Comptroller",
        "label": "pendingComptrollerImplementation",
        "offset": 0,
        "slot": "3",
        "type": "t_address"
      },
      {
        "astId": 21275,
        "contract": "contracts/compound/Comptroller.sol:Comptroller",
        "label": "oracle",
        "offset": 0,
        "slot": "4",
        "type": "t_contract(PriceOracle)28132"
      },
      {
        "astId": 21278,
        "contract": "contracts/compound/Comptroller.sol:Comptroller",
        "label": "closeFactorMantissa",
        "offset": 0,
        "slot": "5",
        "type": "t_uint256"
      },
      {
        "astId": 21281,
        "contract": "contracts/compound/Comptroller.sol:Comptroller",
        "label": "liquidationIncentiveMantissa",
        "offset": 0,
        "slot": "6",
        "type": "t_uint256"
      },
      {
        "astId": 21283,
        "contract": "contracts/compound/Comptroller.sol:Comptroller",
        "label": "maxAssets",
        "offset": 0,
        "slot": "7",
        "type": "t_uint256"
      },
      {
        "astId": 21290,
        "contract": "contracts/compound/Comptroller.sol:Comptroller",
        "label": "accountAssets",
        "offset": 0,
        "slot": "8",
        "type": "t_mapping(t_address,t_array(t_contract(CToken)16345)dyn_storage)"
      },
      {
        "astId": 21308,
        "contract": "contracts/compound/Comptroller.sol:Comptroller",
        "label": "markets",
        "offset": 0,
        "slot": "9",
        "type": "t_mapping(t_address,t_struct(Market)21302_storage)"
      },
      {
        "astId": 21313,
        "contract": "contracts/compound/Comptroller.sol:Comptroller",
        "label": "allMarkets",
        "offset": 0,
        "slot": "10",
        "type": "t_array(t_contract(CToken)16345)dyn_storage"
      },
      {
        "astId": 21318,
        "contract": "contracts/compound/Comptroller.sol:Comptroller",
        "label": "borrowers",
        "offset": 0,
        "slot": "11",
        "type": "t_mapping(t_address,t_bool)"
      },
      {
        "astId": 21322,
        "contract": "contracts/compound/Comptroller.sol:Comptroller",
        "label": "allBorrowers",
        "offset": 0,
        "slot": "12",
        "type": "t_array(t_address)dyn_storage"
      },
      {
        "astId": 21326,
        "contract": "contracts/compound/Comptroller.sol:Comptroller",
        "label": "borrowerIndexes",
        "offset": 0,
        "slot": "13",
        "type": "t_mapping(t_address,t_uint256)"
      },
      {
        "astId": 21331,
        "contract": "contracts/compound/Comptroller.sol:Comptroller",
        "label": "suppliers",
        "offset": 0,
        "slot": "14",
        "type": "t_mapping(t_address,t_bool)"
      },
      {
        "astId": 21337,
        "contract": "contracts/compound/Comptroller.sol:Comptroller",
        "label": "cTokensByUnderlying",
        "offset": 0,
        "slot": "15",
        "type": "t_mapping(t_address,t_contract(CToken)16345)"
      },
      {
        "astId": 21340,
        "contract": "contracts/compound/Comptroller.sol:Comptroller",
        "label": "enforceWhitelist",
        "offset": 0,
        "slot": "16",
        "type": "t_bool"
      },
      {
        "astId": 21345,
        "contract": "contracts/compound/Comptroller.sol:Comptroller",
        "label": "whitelist",
        "offset": 0,
        "slot": "17",
        "type": "t_mapping(t_address,t_bool)"
      },
      {
        "astId": 21349,
        "contract": "contracts/compound/Comptroller.sol:Comptroller",
        "label": "whitelistArray",
        "offset": 0,
        "slot": "18",
        "type": "t_array(t_address)dyn_storage"
      },
      {
        "astId": 21353,
        "contract": "contracts/compound/Comptroller.sol:Comptroller",
        "label": "whitelistIndexes",
        "offset": 0,
        "slot": "19",
        "type": "t_mapping(t_address,t_uint256)"
      },
      {
        "astId": 21356,
        "contract": "contracts/compound/Comptroller.sol:Comptroller",
        "label": "pauseGuardian",
        "offset": 0,
        "slot": "20",
        "type": "t_address"
      },
      {
        "astId": 21358,
        "contract": "contracts/compound/Comptroller.sol:Comptroller",
        "label": "_mintGuardianPaused",
        "offset": 20,
        "slot": "20",
        "type": "t_bool"
      },
      {
        "astId": 21360,
        "contract": "contracts/compound/Comptroller.sol:Comptroller",
        "label": "_borrowGuardianPaused",
        "offset": 21,
        "slot": "20",
        "type": "t_bool"
      },
      {
        "astId": 21362,
        "contract": "contracts/compound/Comptroller.sol:Comptroller",
        "label": "transferGuardianPaused",
        "offset": 22,
        "slot": "20",
        "type": "t_bool"
      },
      {
        "astId": 21364,
        "contract": "contracts/compound/Comptroller.sol:Comptroller",
        "label": "seizeGuardianPaused",
        "offset": 23,
        "slot": "20",
        "type": "t_bool"
      },
      {
        "astId": 21368,
        "contract": "contracts/compound/Comptroller.sol:Comptroller",
        "label": "mintGuardianPaused",
        "offset": 0,
        "slot": "21",
        "type": "t_mapping(t_address,t_bool)"
      },
      {
        "astId": 21372,
        "contract": "contracts/compound/Comptroller.sol:Comptroller",
        "label": "borrowGuardianPaused",
        "offset": 0,
        "slot": "22",
        "type": "t_mapping(t_address,t_bool)"
      },
      {
        "astId": 21378,
        "contract": "contracts/compound/Comptroller.sol:Comptroller",
        "label": "autoImplementation",
        "offset": 0,
        "slot": "23",
        "type": "t_bool"
      },
      {
        "astId": 21381,
        "contract": "contracts/compound/Comptroller.sol:Comptroller",
        "label": "borrowCapGuardian",
        "offset": 1,
        "slot": "23",
        "type": "t_address"
      },
      {
        "astId": 21386,
        "contract": "contracts/compound/Comptroller.sol:Comptroller",
        "label": "borrowCaps",
        "offset": 0,
        "slot": "24",
        "type": "t_mapping(t_address,t_uint256)"
      },
      {
        "astId": 21391,
        "contract": "contracts/compound/Comptroller.sol:Comptroller",
        "label": "supplyCaps",
        "offset": 0,
        "slot": "25",
        "type": "t_mapping(t_address,t_uint256)"
      },
      {
        "astId": 21395,
        "contract": "contracts/compound/Comptroller.sol:Comptroller",
        "label": "rewardsDistributors",
        "offset": 0,
        "slot": "26",
        "type": "t_array(t_address)dyn_storage"
      },
      {
        "astId": 21398,
        "contract": "contracts/compound/Comptroller.sol:Comptroller",
        "label": "_notEntered",
        "offset": 0,
        "slot": "27",
        "type": "t_bool"
      },
      {
        "astId": 21401,
        "contract": "contracts/compound/Comptroller.sol:Comptroller",
        "label": "_notEnteredInitialized",
        "offset": 1,
        "slot": "27",
        "type": "t_bool"
      }
    ],
    "types": {
      "t_address": {
        "encoding": "inplace",
        "label": "address",
        "numberOfBytes": "20"
      },
      "t_array(t_address)dyn_storage": {
        "base": "t_address",
        "encoding": "dynamic_array",
        "label": "address[]",
        "numberOfBytes": "32"
      },
      "t_array(t_contract(CToken)16345)dyn_storage": {
        "base": "t_contract(CToken)16345",
        "encoding": "dynamic_array",
        "label": "contract CToken[]",
        "numberOfBytes": "32"
      },
      "t_bool": {
        "encoding": "inplace",
        "label": "bool",
        "numberOfBytes": "1"
      },
      "t_contract(CToken)16345": {
        "encoding": "inplace",
        "label": "contract CToken",
        "numberOfBytes": "20"
      },
      "t_contract(PriceOracle)28132": {
        "encoding": "inplace",
        "label": "contract PriceOracle",
        "numberOfBytes": "20"
      },
      "t_mapping(t_address,t_array(t_contract(CToken)16345)dyn_storage)": {
        "encoding": "mapping",
        "key": "t_address",
        "label": "mapping(address => contract CToken[])",
        "numberOfBytes": "32",
        "value": "t_array(t_contract(CToken)16345)dyn_storage"
      },
      "t_mapping(t_address,t_bool)": {
        "encoding": "mapping",
        "key": "t_address",
        "label": "mapping(address => bool)",
        "numberOfBytes": "32",
        "value": "t_bool"
      },
      "t_mapping(t_address,t_contract(CToken)16345)": {
        "encoding": "mapping",
        "key": "t_address",
        "label": "mapping(address => contract CToken)",
        "numberOfBytes": "32",
        "value": "t_contract(CToken)16345"
      },
      "t_mapping(t_address,t_struct(Market)21302_storage)": {
        "encoding": "mapping",
        "key": "t_address",
        "label": "mapping(address => struct ComptrollerV2Storage.Market)",
        "numberOfBytes": "32",
        "value": "t_struct(Market)21302_storage"
      },
      "t_mapping(t_address,t_uint256)": {
        "encoding": "mapping",
        "key": "t_address",
        "label": "mapping(address => uint256)",
        "numberOfBytes": "32",
        "value": "t_uint256"
      },
      "t_struct(Market)21302_storage": {
        "encoding": "inplace",
        "label": "struct ComptrollerV2Storage.Market",
        "members": [
          {
            "astId": 21295,
            "contract": "contracts/compound/Comptroller.sol:Comptroller",
            "label": "isListed",
            "offset": 0,
            "slot": "0",
            "type": "t_bool"
          },
          {
            "astId": 21297,
            "contract": "contracts/compound/Comptroller.sol:Comptroller",
            "label": "collateralFactorMantissa",
            "offset": 0,
            "slot": "1",
            "type": "t_uint256"
          },
          {
            "astId": 21301,
            "contract": "contracts/compound/Comptroller.sol:Comptroller",
            "label": "accountMembership",
            "offset": 0,
            "slot": "2",
            "type": "t_mapping(t_address,t_bool)"
          }
        ],
        "numberOfBytes": "96"
      },
      "t_uint256": {
        "encoding": "inplace",
        "label": "uint256",
        "numberOfBytes": "32"
      }
    }
  }
}