{
  "address": "0x1877053EfA62d216314034d3bcD01084f8643C1C",
  "abi": [
    {
      "anonymous": false,
      "inputs": [
        {
          "indexed": false,
          "internalType": "address[]",
          "name": "admins",
          "type": "address[]"
        },
        {
          "indexed": false,
          "internalType": "bool",
          "name": "status",
          "type": "bool"
        }
      ],
      "name": "AdminWhitelistUpdated",
      "type": "event"
    },
    {
      "anonymous": false,
      "inputs": [
        {
          "indexed": true,
          "internalType": "address",
          "name": "previousOwner",
          "type": "address"
        },
        {
          "indexed": true,
          "internalType": "address",
          "name": "newOwner",
          "type": "address"
        }
      ],
      "name": "OwnershipTransferred",
      "type": "event"
    },
    {
      "anonymous": false,
      "inputs": [
        {
          "indexed": false,
          "internalType": "uint256",
          "name": "index",
          "type": "uint256"
        },
        {
          "components": [
            {
              "internalType": "string",
              "name": "name",
              "type": "string"
            },
            {
              "internalType": "address",
              "name": "creator",
              "type": "address"
            },
            {
              "internalType": "address",
              "name": "comptroller",
              "type": "address"
            },
            {
              "internalType": "uint256",
              "name": "blockPosted",
              "type": "uint256"
            },
            {
              "internalType": "uint256",
              "name": "timestampPosted",
              "type": "uint256"
            }
          ],
          "indexed": false,
          "internalType": "struct FusePoolDirectory.FusePool",
          "name": "pool",
          "type": "tuple"
        }
      ],
      "name": "PoolRegistered",
      "type": "event"
    },
    {
      "inputs": [
        {
          "internalType": "address[]",
          "name": "admins",
          "type": "address[]"
        },
        {
          "internalType": "bool",
          "name": "status",
          "type": "bool"
        }
      ],
      "name": "_editAdminWhitelist",
      "outputs": [],
      "stateMutability": "nonpayable",
      "type": "function"
    },
    {
      "inputs": [
        {
          "internalType": "address[]",
          "name": "deployers",
          "type": "address[]"
        },
        {
          "internalType": "bool",
          "name": "status",
          "type": "bool"
        }
      ],
      "name": "_editDeployerWhitelist",
      "outputs": [],
      "stateMutability": "nonpayable",
      "type": "function"
    },
    {
      "inputs": [
        {
          "internalType": "bool",
          "name": "enforce",
          "type": "bool"
        }
      ],
      "name": "_setDeployerWhitelistEnforcement",
      "outputs": [],
      "stateMutability": "nonpayable",
      "type": "function"
    },
    {
      "inputs": [
        {
          "internalType": "address",
          "name": "",
          "type": "address"
        }
      ],
      "name": "adminWhitelist",
      "outputs": [
        {
          "internalType": "bool",
          "name": "",
          "type": "bool"
        }
      ],
      "stateMutability": "view",
      "type": "function"
    },
    {
      "inputs": [
        {
          "internalType": "address",
          "name": "comptroller",
          "type": "address"
        }
      ],
      "name": "bookmarkPool",
      "outputs": [],
      "stateMutability": "nonpayable",
      "type": "function"
    },
    {
      "inputs": [
        {
          "internalType": "string",
          "name": "name",
          "type": "string"
        },
        {
          "internalType": "address",
          "name": "implementation",
          "type": "address"
        },
        {
          "internalType": "bool",
          "name": "enforceWhitelist",
          "type": "bool"
        },
        {
          "internalType": "uint256",
          "name": "closeFactor",
          "type": "uint256"
        },
        {
          "internalType": "uint256",
          "name": "liquidationIncentive",
          "type": "uint256"
        },
        {
          "internalType": "address",
          "name": "priceOracle",
          "type": "address"
        }
      ],
      "name": "deployPool",
      "outputs": [
        {
          "internalType": "uint256",
          "name": "",
          "type": "uint256"
        },
        {
          "internalType": "address",
          "name": "",
          "type": "address"
        }
      ],
      "stateMutability": "nonpayable",
      "type": "function"
    },
    {
      "inputs": [
        {
          "internalType": "address",
          "name": "",
          "type": "address"
        }
      ],
      "name": "deployerWhitelist",
      "outputs": [
        {
          "internalType": "bool",
          "name": "",
          "type": "bool"
        }
      ],
      "stateMutability": "view",
      "type": "function"
    },
    {
      "inputs": [],
      "name": "enforceDeployerWhitelist",
      "outputs": [
        {
          "internalType": "bool",
          "name": "",
          "type": "bool"
        }
      ],
      "stateMutability": "view",
      "type": "function"
    },
    {
      "inputs": [],
      "name": "getAllPools",
      "outputs": [
        {
          "components": [
            {
              "internalType": "string",
              "name": "name",
              "type": "string"
            },
            {
              "internalType": "address",
              "name": "creator",
              "type": "address"
            },
            {
              "internalType": "address",
              "name": "comptroller",
              "type": "address"
            },
            {
              "internalType": "uint256",
              "name": "blockPosted",
              "type": "uint256"
            },
            {
              "internalType": "uint256",
              "name": "timestampPosted",
              "type": "uint256"
            }
          ],
          "internalType": "struct FusePoolDirectory.FusePool[]",
          "name": "",
          "type": "tuple[]"
        }
      ],
      "stateMutability": "view",
      "type": "function"
    },
    {
      "inputs": [
        {
          "internalType": "address",
          "name": "account",
          "type": "address"
        }
      ],
      "name": "getBookmarks",
      "outputs": [
        {
          "internalType": "address[]",
          "name": "",
          "type": "address[]"
        }
      ],
      "stateMutability": "view",
      "type": "function"
    },
    {
      "inputs": [
        {
          "internalType": "address",
          "name": "account",
          "type": "address"
        }
      ],
      "name": "getPoolsByAccount",
      "outputs": [
        {
          "internalType": "uint256[]",
          "name": "",
          "type": "uint256[]"
        },
        {
          "components": [
            {
              "internalType": "string",
              "name": "name",
              "type": "string"
            },
            {
              "internalType": "address",
              "name": "creator",
              "type": "address"
            },
            {
              "internalType": "address",
              "name": "comptroller",
              "type": "address"
            },
            {
              "internalType": "uint256",
              "name": "blockPosted",
              "type": "uint256"
            },
            {
              "internalType": "uint256",
              "name": "timestampPosted",
              "type": "uint256"
            }
          ],
          "internalType": "struct FusePoolDirectory.FusePool[]",
          "name": "",
          "type": "tuple[]"
        }
      ],
      "stateMutability": "view",
      "type": "function"
    },
    {
      "inputs": [],
      "name": "getPublicPools",
      "outputs": [
        {
          "internalType": "uint256[]",
          "name": "",
          "type": "uint256[]"
        },
        {
          "components": [
            {
              "internalType": "string",
              "name": "name",
              "type": "string"
            },
            {
              "internalType": "address",
              "name": "creator",
              "type": "address"
            },
            {
              "internalType": "address",
              "name": "comptroller",
              "type": "address"
            },
            {
              "internalType": "uint256",
              "name": "blockPosted",
              "type": "uint256"
            },
            {
              "internalType": "uint256",
              "name": "timestampPosted",
              "type": "uint256"
            }
          ],
          "internalType": "struct FusePoolDirectory.FusePool[]",
          "name": "",
          "type": "tuple[]"
        }
      ],
      "stateMutability": "view",
      "type": "function"
    },
    {
      "inputs": [
        {
          "internalType": "bool",
          "name": "whitelistedAdmin",
          "type": "bool"
        }
      ],
      "name": "getPublicPoolsByVerification",
      "outputs": [
        {
          "internalType": "uint256[]",
          "name": "",
          "type": "uint256[]"
        },
        {
          "components": [
            {
              "internalType": "string",
              "name": "name",
              "type": "string"
            },
            {
              "internalType": "address",
              "name": "creator",
              "type": "address"
            },
            {
              "internalType": "address",
              "name": "comptroller",
              "type": "address"
            },
            {
              "internalType": "uint256",
              "name": "blockPosted",
              "type": "uint256"
            },
            {
              "internalType": "uint256",
              "name": "timestampPosted",
              "type": "uint256"
            }
          ],
          "internalType": "struct FusePoolDirectory.FusePool[]",
          "name": "",
          "type": "tuple[]"
        }
      ],
      "stateMutability": "view",
      "type": "function"
    },
    {
      "inputs": [
        {
          "internalType": "bool",
          "name": "_enforceDeployerWhitelist",
          "type": "bool"
        },
        {
          "internalType": "address[]",
          "name": "_deployerWhitelist",
          "type": "address[]"
        }
      ],
      "name": "initialize",
      "outputs": [],
      "stateMutability": "nonpayable",
      "type": "function"
    },
    {
      "inputs": [],
      "name": "owner",
      "outputs": [
        {
          "internalType": "address",
          "name": "",
          "type": "address"
        }
      ],
      "stateMutability": "view",
      "type": "function"
    },
    {
      "inputs": [
        {
          "internalType": "address",
          "name": "",
          "type": "address"
        }
      ],
      "name": "poolExists",
      "outputs": [
        {
          "internalType": "bool",
          "name": "",
          "type": "bool"
        }
      ],
      "stateMutability": "view",
      "type": "function"
    },
    {
      "inputs": [
        {
          "internalType": "uint256",
          "name": "",
          "type": "uint256"
        }
      ],
      "name": "pools",
      "outputs": [
        {
          "internalType": "string",
          "name": "name",
          "type": "string"
        },
        {
          "internalType": "address",
          "name": "creator",
          "type": "address"
        },
        {
          "internalType": "address",
          "name": "comptroller",
          "type": "address"
        },
        {
          "internalType": "uint256",
          "name": "blockPosted",
          "type": "uint256"
        },
        {
          "internalType": "uint256",
          "name": "timestampPosted",
          "type": "uint256"
        }
      ],
      "stateMutability": "view",
      "type": "function"
    },
    {
      "inputs": [],
      "name": "renounceOwnership",
      "outputs": [],
      "stateMutability": "nonpayable",
      "type": "function"
    },
    {
      "inputs": [
        {
          "internalType": "uint256",
          "name": "index",
          "type": "uint256"
        },
        {
          "internalType": "string",
          "name": "name",
          "type": "string"
        }
      ],
      "name": "setPoolName",
      "outputs": [],
      "stateMutability": "nonpayable",
      "type": "function"
    },
    {
      "inputs": [
        {
          "internalType": "address",
          "name": "newOwner",
          "type": "address"
        }
      ],
      "name": "transferOwnership",
      "outputs": [],
      "stateMutability": "nonpayable",
      "type": "function"
    }
  ],
  "transactionHash": "0xbcedf8129e522b005d9f2a282c37c4940d9c6aa9316f2a207001330fb3bcb82a",
  "args": [],
  "numDeployments": 3,
  "solcInputHash": "cdaa356e21f74b41673ce069a5a3b631",
  "bytecode": "0x608060405234801561001057600080fd5b506136da806100206000396000f3fe608060405234801561001057600080fd5b506004361061012c5760003560e01c80635710c6d8116100ad578063a970e76c11610071578063a970e76c146102e3578063ac4afa3814610306578063b86579d41461032a578063d88ff1f41461033d578063f2fde38b1461035257600080fd5b80635710c6d81461026a578063715018a61461029a5780638da5cb5b146102a2578063a155497c146102bd578063a3ed91c6146102d057600080fd5b8063218a3bbe116100f4578063218a3bbe146101f157806326bb81d71461021257806343e20a1d1461021f5780634a7462ee146102425780634ae26ea11461026257600080fd5b806304f03c6f1461013157806307421978146101465780630a83d1b0146101935780631e1c6a07146101a657806320c32bfe146101de575b600080fd5b61014461013f3660046123c6565b610365565b005b61014461015436600461240a565b336000908152606a602090815260408220805460018101825590835291200180546001600160a01b0319166001600160a01b0392909216919091179055565b6101446101a1366004612427565b6103ab565b6101c96101b436600461240a565b60676020526000908152604090205460ff1681565b60405190151581526020015b60405180910390f35b6101446101ec3660046124ad565b6104ca565b6102046101ff3660046123c6565b61062d565b6040516101d5929190612630565b6068546101c99060ff1681565b6101c961022d36600461240a565b606b6020526000908152604090205460ff1681565b61025561025036600461240a565b610ad6565b6040516101d59190612687565b610204610b4c565b61027d61027836600461271b565b610ec0565b604080519283526001600160a01b039091166020830152016101d5565b610144611628565b6033546040516001600160a01b0390911681526020016101d5565b6101446102cb366004612427565b61165e565b6102046102de36600461240a565b611745565b6101c96102f136600461240a565b60696020526000908152604090205460ff1681565b6103196103143660046127f4565b6119fc565b6040516101d595949392919061280d565b61014461033836600461284d565b611ad9565b610345611c13565b6040516101d59190612914565b61014461036036600461240a565b611d40565b6033546001600160a01b031633146103985760405162461bcd60e51b815260040161038f90612927565b60405180910390fd5b6068805460ff1916911515919091179055565b6033546001600160a01b031633146103d55760405162461bcd60e51b815260040161038f90612927565b816104185760405162461bcd60e51b815260206004820152601360248201527227379030b236b4b7399039bab8383634b2b21760691b604482015260640161038f565b60005b828110156104895781606b600086868581811061043a5761043a61295c565b905060200201602081019061044f919061240a565b6001600160a01b031681526020810191909152604001600020805460ff19169115159190911790558061048181612988565b91505061041b565b507f31b67e6853df85403a8c4f4f46dc53f48f700d6917c8e3ec8c77a0e6fd56793b8383836040516104bd939291906129a3565b60405180910390a1505050565b6000606584815481106104df576104df61295c565b600091825260209182902060026005909202010154604080516303e1469160e61b815290516001600160a01b039092169350839263f851a440926004808401938290030181865afa158015610538573d6000803e3d6000fd5b505050506040513d601f19601f8201168201806040525081019061055c91906129fc565b6001600160a01b0316336001600160a01b03161480156105d95750806001600160a01b0316630a755ec26040518163ffffffff1660e01b8152600401602060405180830381865afa1580156105b5573d6000803e3d6000fd5b505050506040513d601f19601f820116820180604052508101906105d99190612a19565b806105ee57506033546001600160a01b031633145b6105f757600080fd5b82826065868154811061060c5761060c61295c565b60009182526020909120610626936005909202019161224d565b5050505050565b6060806000805b606554811015610794576000606582815481106106535761065361295c565b60009182526020918290206002600590920201015460408051630b09572160e41b815290516001600160a01b039092169350839263b0957210926004808401938290030181865afa9250505080156106c8575060408051601f3d908101601f191682019092526106c591810190612a19565b60015b6106d157610773565b80156106de575050610782565b816001600160a01b031663f851a4406040518163ffffffff1660e01b8152600401602060405180830381865afa925050508015610738575060408051601f3d908101601f19168201909252610735918101906129fc565b60015b61074157610771565b6001600160a01b0381166000908152606b602052604090205460ff1615158815151461076f57505050610782565b505b505b8261077d81612988565b935050505b8061078c81612988565b915050610634565b5060008167ffffffffffffffff8111156107b0576107b06126d4565b6040519080825280602002602001820160405280156107d9578160200160208202803683370190505b50905060008267ffffffffffffffff8111156107f7576107f76126d4565b60405190808252806020026020018201604052801561083057816020015b61081d6122d1565b8152602001906001900390816108155790505b5090506000805b606554811015610ac9576000606582815481106108565761085661295c565b60009182526020918290206002600590920201015460408051630b09572160e41b815290516001600160a01b039092169350839263b0957210926004808401938290030181865afa9250505080156108cb575060408051601f3d908101601f191682019092526108c891810190612a19565b60015b6108d457610976565b80156108e1575050610ab7565b816001600160a01b031663f851a4406040518163ffffffff1660e01b8152600401602060405180830381865afa92505050801561093b575060408051601f3d908101601f19168201909252610938918101906129fc565b60015b61094457610974565b6001600160a01b0381166000908152606b602052604090205460ff1615158b15151461097257505050610ab7565b505b505b818584815181106109895761098961295c565b602002602001018181525050606582815481106109a8576109a861295c565b90600052602060002090600502016040518060a00160405290816000820180546109d190612a36565b80601f01602080910402602001604051908101604052809291908181526020018280546109fd90612a36565b8015610a4a5780601f10610a1f57610100808354040283529160200191610a4a565b820191906000526020600020905b815481529060010190602001808311610a2d57829003601f168201915b505050918352505060018201546001600160a01b0390811660208301526002830154166040820152600382015460608201526004909101546080909101528451859085908110610a9c57610a9c61295c565b60200260200101819052508280610ab290612988565b935050505b80610ac181612988565b915050610837565b5091969095509350505050565b6001600160a01b0381166000908152606a6020908152604091829020805483518184028101840190945280845260609392830182828015610b4057602002820191906000526020600020905b81546001600160a01b03168152600190910190602001808311610b22575b50505050509050919050565b6060806000805b606554811015610c195760658181548110610b7057610b7061295c565b60009182526020918290206002600590920201015460408051630b09572160e41b815290516001600160a01b039092169263b0957210926004808401938290030181865afa925050508015610be2575060408051601f3d908101601f19168201909252610bdf91810190612a19565b60015b610beb57610bf9565b8015610bf75750610c07565b505b81610c0381612988565b9250505b80610c1181612988565b915050610b53565b5060008167ffffffffffffffff811115610c3557610c356126d4565b604051908082528060200260200182016040528015610c5e578160200160208202803683370190505b50905060008267ffffffffffffffff811115610c7c57610c7c6126d4565b604051908082528060200260200182016040528015610cb557816020015b610ca26122d1565b815260200190600190039081610c9a5790505b5090506000805b606554811015610eb45760658181548110610cd957610cd961295c565b60009182526020918290206002600590920201015460408051630b09572160e41b815290516001600160a01b039092169263b0957210926004808401938290030181865afa925050508015610d4b575060408051601f3d908101601f19168201909252610d4891810190612a19565b60015b610d5457610d62565b8015610d605750610ea2565b505b80848381518110610d7557610d7561295c565b60200260200101818152505060658181548110610d9457610d9461295c565b90600052602060002090600502016040518060a0016040529081600082018054610dbd90612a36565b80601f0160208091040260200160405190810160405280929190818152602001828054610de990612a36565b8015610e365780601f10610e0b57610100808354040283529160200191610e36565b820191906000526020600020905b815481529060010190602001808311610e1957829003601f168201915b505050918352505060018201546001600160a01b0390811660208301526002830154166040820152600382015460608201526004909101546080909101528351849084908110610e8857610e8861295c565b60200260200101819052508180610e9e90612988565b9250505b80610eac81612988565b915050610cbc565b50919590945092505050565b6000806001600160a01b038716610f3f5760405162461bcd60e51b815260206004820152603960248201527f4e6f20436f6d7074726f6c6c657220696d706c656d656e746174696f6e20636f60448201527f6e74726163742061646472657373207370656369666965642e00000000000000606482015260840161038f565b6001600160a01b038316610fa85760405162461bcd60e51b815260206004820152602a60248201527f4e6f2050726963654f7261636c6520636f6e747261637420616464726573732060448201526939b832b1b4b334b2b21760b11b606482015260840161038f565b6000338943604051602001610fbf93929190612a71565b604051602081830303815290604052805190602001209050600060405180602001610fe990612312565b601f1982820381018352601f90910116604081905261100b9190602001612ab0565b6040516020818303038152906040529050600061102a60008484611ddb565b60405163e992a04160e01b81526001600160a01b038c81166004830152919250829182169063e992a041906024016020604051808303816000875af1158015611077573d6000803e3d6000fd5b505050506040513d601f19601f8201168201806040525081019061109b9190612acc565b156111045760405162461bcd60e51b815260206004820152603360248201527f4661696c656420746f207365742070656e64696e6720696d706c656d656e74616044820152723a34b7b71037b7102ab734ba3937b63632b91760691b606482015260840161038f565b604051630ea826e360e11b81526001600160a01b0382811660048301528c9190821690631d504dc690602401600060405180830381600087803b15801561114a57600080fd5b505af115801561115e573d6000803e3d6000fd5b505060405163317b0b7760e01b8152600481018d90528592506001600160a01b038316915063317b0b77906024016020604051808303816000875af11580156111ab573d6000803e3d6000fd5b505050506040513d601f19601f820116820180604052508101906111cf9190612acc565b1561121c5760405162461bcd60e51b815260206004820181905260248201527f4661696c656420746f2073657420706f6f6c20636c6f736520666163746f722e604482015260640161038f565b604051634fd42e1760e01b8152600481018b90526001600160a01b03821690634fd42e17906024016020604051808303816000875af1158015611263573d6000803e3d6000fd5b505050506040513d601f19601f820116820180604052508101906112879190612acc565b156112e65760405162461bcd60e51b815260206004820152602960248201527f4661696c656420746f2073657420706f6f6c206c69717569646174696f6e20696044820152683731b2b73a34bb329760b91b606482015260840161038f565b6040516355ee1fe160e01b81526001600160a01b038a811660048301528216906355ee1fe1906024016020604051808303816000875af115801561132e573d6000803e3d6000fd5b505050506040513d601f19601f820116820180604052508101906113529190612acc565b1561139f5760405162461bcd60e51b815260206004820181905260248201527f4661696c656420746f2073657420706f6f6c207072696365206f7261636c652e604482015260640161038f565b8b1561147457604051634a956fad60e11b8152600160048201526001600160a01b0382169063952adf5a906024016020604051808303816000875af11580156113ec573d6000803e3d6000fd5b505050506040513d601f19601f820116820180604052508101906114109190612acc565b156114745760405162461bcd60e51b815260206004820152602e60248201527f4661696c656420746f20656e666f72636520737570706c6965722f626f72726f60448201526d3bb2b9103bb434ba32b634b9ba1760911b606482015260840161038f565b604051636a9998b360e11b8152600160048201526001600160a01b0382169063d5333166906024016020604051808303816000875af11580156114bb573d6000803e3d6000fd5b505050506040513d601f19601f820116820180604052508101906114df9190612acc565b156115405760405162461bcd60e51b815260206004820152602b60248201527f4661696c656420746f20656e61626c6520706f6f6c206175746f20696d706c6560448201526a36b2b73a30ba34b7b7399760a91b606482015260840161038f565b604051632dc7468360e21b81523360048201526001600160a01b0384169063b71d1a0c906024016020604051808303816000875af1158015611586573d6000803e3d6000fd5b505050506040513d601f19601f820116820180604052508101906115aa9190612acc565b1561160a5760405162461bcd60e51b815260206004820152602a60248201527f4661696c656420746f207365742070656e64696e672061646d696e206f6e20556044820152693734ba3937b63632b91760b11b606482015260840161038f565b6116148e85611ee5565b9e939d50929b505050505050505050505050565b6033546001600160a01b031633146116525760405162461bcd60e51b815260040161038f90612927565b61165c60006121a1565b565b6033546001600160a01b031633146116885760405162461bcd60e51b815260040161038f90612927565b816116ce5760405162461bcd60e51b81526020600482015260166024820152752737903232b83637bcb2b9399039bab8383634b2b21760511b604482015260640161038f565b60005b8281101561173f5781606960008686858181106116f0576116f061295c565b9050602002016020810190611705919061240a565b6001600160a01b031681526020810191909152604001600020805460ff19169115159190911790558061173781612988565b9150506116d1565b50505050565b6001600160a01b038116600090815260666020526040812054606091829167ffffffffffffffff81111561177b5761177b6126d4565b6040519080825280602002602001820160405280156117a4578160200160208202803683370190505b506001600160a01b0385166000908152606660205260408120549192509067ffffffffffffffff8111156117da576117da6126d4565b60405190808252806020026020018201604052801561181357816020015b6118006122d1565b8152602001906001900390816117f85790505b50905060005b6001600160a01b0386166000908152606660205260409020548110156119f1576001600160a01b03861660009081526066602052604090208054829081106118635761186361295c565b90600052602060002001548382815181106118805761188061295c565b602002602001018181525050606560666000886001600160a01b03166001600160a01b0316815260200190815260200160002082815481106118c4576118c461295c565b9060005260206000200154815481106118df576118df61295c565b90600052602060002090600502016040518060a001604052908160008201805461190890612a36565b80601f016020809104026020016040519081016040528092919081815260200182805461193490612a36565b80156119815780601f1061195657610100808354040283529160200191611981565b820191906000526020600020905b81548152906001019060200180831161196457829003601f168201915b505050918352505060018201546001600160a01b03908116602083015260028301541660408201526003820154606082015260049091015460809091015282518390839081106119d3576119d361295c565b602002602001018190525080806119e990612988565b915050611819565b509094909350915050565b60658181548110611a0c57600080fd5b9060005260206000209060050201600091509050806000018054611a2f90612a36565b80601f0160208091040260200160405190810160405280929190818152602001828054611a5b90612a36565b8015611aa85780601f10611a7d57610100808354040283529160200191611aa8565b820191906000526020600020905b815481529060010190602001808311611a8b57829003601f168201915b5050505060018301546002840154600385015460049095015493946001600160a01b03928316949290911692509085565b600054610100900460ff16611af45760005460ff1615611af8565b303b155b611b5b5760405162461bcd60e51b815260206004820152602e60248201527f496e697469616c697a61626c653a20636f6e747261637420697320616c72656160448201526d191e481a5b9a5d1a585b1a5e995960921b606482015260840161038f565b600054610100900460ff16158015611b7d576000805461ffff19166101011790555b611b856121f3565b6068805460ff191684151517905560005b8251811015611bfb57600160696000858481518110611bb757611bb761295c565b6020908102919091018101516001600160a01b03168252810191909152604001600020805460ff191691151591909117905580611bf381612988565b915050611b96565b508015611c0e576000805461ff00191690555b505050565b60606065805480602002602001604051908101604052809291908181526020016000905b82821015611d3757838290600052602060002090600502016040518060a0016040529081600082018054611c6a90612a36565b80601f0160208091040260200160405190810160405280929190818152602001828054611c9690612a36565b8015611ce35780601f10611cb857610100808354040283529160200191611ce3565b820191906000526020600020905b815481529060010190602001808311611cc657829003601f168201915b50505091835250506001828101546001600160a01b03908116602080850191909152600285015490911660408401526003840154606084015260049093015460809092019190915291835292019101611c37565b50505050905090565b6033546001600160a01b03163314611d6a5760405162461bcd60e51b815260040161038f90612927565b6001600160a01b038116611dcf5760405162461bcd60e51b815260206004820152602660248201527f4f776e61626c653a206e6577206f776e657220697320746865207a65726f206160448201526564647265737360d01b606482015260840161038f565b611dd8816121a1565b50565b60008084471015611e2e5760405162461bcd60e51b815260206004820152601d60248201527f437265617465323a20696e73756666696369656e742062616c616e6365000000604482015260640161038f565b8251611e7c5760405162461bcd60e51b815260206004820181905260248201527f437265617465323a2062797465636f6465206c656e677468206973207a65726f604482015260640161038f565b8383516020850187f590506001600160a01b038116611edd5760405162461bcd60e51b815260206004820152601960248201527f437265617465323a204661696c6564206f6e206465706c6f7900000000000000604482015260640161038f565b949350505050565b6001600160a01b03811660009081526067602052604081205460ff1615611f5c5760405162461bcd60e51b815260206004820152602560248201527f506f6f6c20616c72656164792065786973747320696e207468652064697265636044820152643a37b93c9760d91b606482015260840161038f565b60685460ff161580611f7d57503360009081526069602052604090205460ff165b611fd55760405162461bcd60e51b8152602060048201526024808201527f53656e646572206973206e6f74206f6e206465706c6f7965722077686974656c60448201526334b9ba1760e11b606482015260840161038f565b6064835111156120205760405162461bcd60e51b81526020600482015260166024820152752737903837b7b6103730b6b29039bab8383634b2b21760511b604482015260640161038f565b6040805160a081018252848152336020808301919091526001600160a01b0385169282019290925243606082015242608082015260658054600181018255600091909152815180519293849360059093027f8ff97419363ffd7000167f130ef7168fbea05faf9251824ca5043f113cc6a7c701926120a1928492019061231f565b50602082810151600183810180546001600160a01b03199081166001600160a01b0394851617909155604080870151600287018054909316941693909317905560608501516003850155608090940151600490930192909255336000908152606690915220606554909161211491612ae5565b81546001818101845560009384526020808520909201929092556001600160a01b0386168352606790526040909120805460ff1916821790556065547f18075ab463b4dc5842f37ecd67abeb192eda5d073f2c08509e189ad173d5c0209161217b91612ae5565b8260405161218a929190612afc565b60405180910390a1606554611edd90600190612ae5565b603380546001600160a01b038381166001600160a01b0319831681179093556040519116919082907f8be0079c531659141344cd1fd0a4f28419497f9722a3daafe3b4186f6b6457e090600090a35050565b600054610100900460ff1661221a5760405162461bcd60e51b815260040161038f90612b15565b61165c600054610100900460ff166122445760405162461bcd60e51b815260040161038f90612b15565b61165c336121a1565b82805461225990612a36565b90600052602060002090601f01602090048101928261227b57600085556122c1565b82601f106122945782800160ff198235161785556122c1565b828001600101855582156122c1579182015b828111156122c15782358255916020019190600101906122a6565b506122cd929150612393565b5090565b6040518060a001604052806060815260200160006001600160a01b0316815260200160006001600160a01b0316815260200160008152602001600081525090565b610b4480612b6183390190565b82805461232b90612a36565b90600052602060002090601f01602090048101928261234d57600085556122c1565b82601f1061236657805160ff19168380011785556122c1565b828001600101855582156122c1579182015b828111156122c1578251825591602001919060010190612378565b5b808211156122cd5760008155600101612394565b8015158114611dd857600080fd5b80356123c1816123a8565b919050565b6000602082840312156123d857600080fd5b81356123e3816123a8565b9392505050565b6001600160a01b0381168114611dd857600080fd5b80356123c1816123ea565b60006020828403121561241c57600080fd5b81356123e3816123ea565b60008060006040848603121561243c57600080fd5b833567ffffffffffffffff8082111561245457600080fd5b818601915086601f83011261246857600080fd5b81358181111561247757600080fd5b8760208260051b850101111561248c57600080fd5b602092830195509350508401356124a2816123a8565b809150509250925092565b6000806000604084860312156124c257600080fd5b83359250602084013567ffffffffffffffff808211156124e157600080fd5b818601915086601f8301126124f557600080fd5b81358181111561250457600080fd5b87602082850101111561251657600080fd5b6020830194508093505050509250925092565b60005b8381101561254457818101518382015260200161252c565b8381111561173f5750506000910152565b6000815180845261256d816020860160208601612529565b601f01601f19169290920160200192915050565b6000815160a0845261259660a0850182612555565b9050602083015160018060a01b038082166020870152806040860151166040870152505060608301516060850152608083015160808501528091505092915050565b600082825180855260208086019550808260051b84010181860160005b8481101561262357601f19868403018952612611838351612581565b988401989250908301906001016125f5565b5090979650505050505050565b604080825283519082018190526000906020906060840190828701845b828110156126695781518452928401929084019060010161264d565b5050508381038285015261267d81866125d8565b9695505050505050565b6020808252825182820181905260009190848201906040850190845b818110156126c85783516001600160a01b0316835292840192918401916001016126a3565b50909695505050505050565b634e487b7160e01b600052604160045260246000fd5b604051601f8201601f1916810167ffffffffffffffff81118282101715612713576127136126d4565b604052919050565b60008060008060008060c0878903121561273457600080fd5b863567ffffffffffffffff8082111561274c57600080fd5b818901915089601f83011261276057600080fd5b8135602082821115612774576127746126d4565b612786601f8301601f191682016126ea565b92508183528b8183860101111561279c57600080fd5b818185018285013760008183850101528299506127ba818c016123ff565b9850505050506127cc604088016123b6565b935060608701359250608087013591506127e860a088016123ff565b90509295509295509295565b60006020828403121561280657600080fd5b5035919050565b60a08152600061282060a0830188612555565b6001600160a01b039687166020840152949095166040820152606081019290925260809091015292915050565b6000806040838503121561286057600080fd5b823561286b816123a8565b915060208381013567ffffffffffffffff8082111561288957600080fd5b818601915086601f83011261289d57600080fd5b8135818111156128af576128af6126d4565b8060051b91506128c08483016126ea565b81815291830184019184810190898411156128da57600080fd5b938501935b8385101561290457843592506128f4836123ea565b82825293850193908501906128df565b8096505050505050509250929050565b6020815260006123e360208301846125d8565b6020808252818101527f4f776e61626c653a2063616c6c6572206973206e6f7420746865206f776e6572604082015260600190565b634e487b7160e01b600052603260045260246000fd5b634e487b7160e01b600052601160045260246000fd5b600060001982141561299c5761299c612972565b5060010190565b6040808252810183905260008460608301825b868110156129e65782356129c9816123ea565b6001600160a01b03168252602092830192909101906001016129b6565b5080925050508215156020830152949350505050565b600060208284031215612a0e57600080fd5b81516123e3816123ea565b600060208284031215612a2b57600080fd5b81516123e3816123a8565b600181811c90821680612a4a57607f821691505b60208210811415612a6b57634e487b7160e01b600052602260045260246000fd5b50919050565b6bffffffffffffffffffffffff198460601b16815260008351612a9b816014850160208801612529565b60149201918201929092526034019392505050565b60008251612ac2818460208701612529565b9190910192915050565b600060208284031215612ade57600080fd5b5051919050565b600082821015612af757612af7612972565b500390565b828152604060208201526000611edd6040830184612581565b6020808252602b908201527f496e697469616c697a61626c653a20636f6e7472616374206973206e6f74206960408201526a6e697469616c697a696e6760a81b60608201526080019056fe60806040526001805461ffff60a01b191661010160a01b17905534801561002557600080fd5b50600080546001600160a01b03191633179055610afd806100476000396000f3fe6080604052600436106100a75760003560e01c8063bb82aa5e11610064578063bb82aa5e146103c7578063c1e80334146103e7578063dcfbc0c7146103fc578063e992a0411461041c578063e9c714f21461043c578063f851a44014610451576100a7565b80630225ab9d146102ca5780630a755ec2146102fd578063267822471461032e5780632f1069ba146103665780636f63af0b14610387578063b71d1a0c146103a7575b33301461024f5760408051600481526024810182526020810180516001600160e01b0316633757348b60e21b1790529051600091829130916100e8916109b2565b600060405180830381855afa9150503d8060008114610123576040519150601f19603f3d011682016040523d82523d6000602084013e610128565b606091505b50915091506000821561014c578180602001905181019061014991906109fe565b90505b801561024b5760025460405163bbcdd6d360e01b81526001600160a01b039091166004820152600090730b1638ce0c7dc434b2ad41ffbc016690a24933d29063bbcdd6d390602401602060405180830381865afa1580156101b1573d6000803e3d6000fd5b505050506040513d601f19601f820116820180604052508101906101d59190610a30565b6002549091506001600160a01b0380831691161461024957600280546001600160a01b038381166001600160a01b0319831681179093556040519116917fd604de94d45953f9138079ec1b82d533cb2160c906d1076d1f7ed54befbca97a9161023f918491610a4d565b60405180910390a1505b505b5050505b6002546040516000916001600160a01b03169061026f9083903690610a67565b600060405180830381855af49150503d80600081146102aa576040519150601f19603f3d011682016040523d82523d6000602084013e6102af565b606091505b505090506040513d6000823e8180156102c6573d82f35b3d82fd5b3480156102d657600080fd5b506102ea6102e5366004610a77565b610471565b6040519081526020015b60405180910390f35b34801561030957600080fd5b5060015461031e90600160a81b900460ff1681565b60405190151581526020016102f4565b34801561033a57600080fd5b5060015461034e906001600160a01b031681565b6040516001600160a01b0390911681526020016102f4565b34801561037257600080fd5b5060015461031e90600160a01b900460ff1681565b34801561039357600080fd5b506102ea6103a2366004610a77565b61050d565b3480156103b357600080fd5b506102ea6103c2366004610a94565b61059c565b3480156103d357600080fd5b5060025461034e906001600160a01b031681565b3480156103f357600080fd5b506102ea61061b565b34801561040857600080fd5b5060035461034e906001600160a01b031681565b34801561042857600080fd5b506102ea610437366004610a94565b61070d565b34801561044857600080fd5b506102ea61080e565b34801561045d57600080fd5b5060005461034e906001600160a01b031681565b600061047b6108e0565b6104915761048b60016005610939565b92915050565b60015460ff600160a81b90910416151582151514156104b157600061048b565b60018054831515600160a81b0260ff60a81b199091161790556040517f10f9a0a95673b0837d1dce21fd3bffcb6d760435e9b5300b75a271182f75f822906104fe90841515815260200190565b60405180910390a1600061048b565b60006105176108e0565b6105275761048b60016005610939565b60015460ff600160a01b909104161515821515141561054757600061048b565b6001805460ff60a01b1916600160a01b8415158102919091179182905560405160ff9190920416151581527fabb56a15fd39488c914b324690b88f30d7daec63d2131ca0ef47e5739068c86e906020016104fe565b60006105a66108e0565b6105b65761048b60016010610939565b600180546001600160a01b038481166001600160a01b03198316179092556040519116907fca4f2f25d0898edd99413412fb94012f9e54ec8142f9b093e7720646a95b16a9906106099083908690610a4d565b60405180910390a160005b9392505050565b6003546000906001600160a01b03163314158061064157506003546001600160a01b0316155b1561065657610651600180610939565b905090565b60028054600380546001600160a01b03198084166001600160a01b03838116918217909655911690915560405192909116917fd604de94d45953f9138079ec1b82d533cb2160c906d1076d1f7ed54befbca97a906106b79084908490610a4d565b60405180910390a16003546040517fe945ccee5d701fc83f9b8aa8ca94ea4219ec1fcbd4f4cab4f0ea57c5c3e1d815916106fc9184916001600160a01b031690610a4d565b60405180910390a160009250505090565b60006107176108e0565b6107275761048b60016012610939565b600254604051639d244f9f60e01b8152730b1638ce0c7dc434b2ad41ffbc016690a24933d291639d244f9f9161076b916001600160a01b0316908690600401610a4d565b602060405180830381865afa158015610788573d6000803e3d6000fd5b505050506040513d601f19601f820116820180604052508101906107ac91906109fe565b6107bc5761048b60016011610939565b600380546001600160a01b038481166001600160a01b0319831681179093556040519116917fe945ccee5d701fc83f9b8aa8ca94ea4219ec1fcbd4f4cab4f0ea57c5c3e1d81591610609918491610a4d565b6001546000906001600160a01b031633141580610829575033155b1561083a5761065160016000610939565b60008054600180546001600160a01b03198084166001600160a01b03838116918217909655911690915560405192909116917ff9ffabca9c8276e99321725bcb43fb076a6c66a54b7f21c4e8146d8519b417dc9061089b9084908490610a4d565b60405180910390a16001546040517fca4f2f25d0898edd99413412fb94012f9e54ec8142f9b093e7720646a95b16a9916106fc9184916001600160a01b031690610a4d565b600080546001600160a01b0316331480156109045750600154600160a81b900460ff165b80610651575033730b1638ce0c7dc434b2ad41ffbc016690a24933d2148015610651575050600154600160a01b900460ff1690565b60007f45b96fe442630264581b197e84bbada861235052c5a1aadfff9ea4e40a969aa083601581111561096e5761096e610ab1565b83601b81111561098057610980610ab1565b60408051928352602083019190915260009082015260600160405180910390a182601581111561061457610614610ab1565b6000825160005b818110156109d357602081860181015185830152016109b9565b818111156109e2576000828501525b509190910192915050565b80151581146109fb57600080fd5b50565b600060208284031215610a1057600080fd5b8151610614816109ed565b6001600160a01b03811681146109fb57600080fd5b600060208284031215610a4257600080fd5b815161061481610a1b565b6001600160a01b0392831681529116602082015260400190565b8183823760009101908152919050565b600060208284031215610a8957600080fd5b8135610614816109ed565b600060208284031215610aa657600080fd5b813561061481610a1b565b634e487b7160e01b600052602160045260246000fdfea26469706673582212205ffc327416d9ae2b79995c76050af65f2bdd2279a06d760a49a465e9dc2ebd1964736f6c634300080b0033a26469706673582212204db0e4e30dc0c2d568458c148b3a1fcf49ab352b44808e9415cc55441c6e232164736f6c634300080b0033",
  "devdoc": {
    "author": "David Lucid <david@rari.capital> (https://github.com/davidlucid)",
    "events": {
      "AdminWhitelistUpdated(address[],bool)": {
        "details": "Event emitted when the admin whitelist is updated."
      },
      "PoolRegistered(uint256,(string,address,address,uint256,uint256))": {
        "details": "Emitted when a new Fuse pool is added to the directory."
      }
    },
    "kind": "dev",
    "methods": {
      "_editAdminWhitelist(address[],bool)": {
        "details": "Adds/removes Ethereum accounts to the admin whitelist.",
        "params": {
          "admins": "Array of Ethereum accounts to be whitelisted.",
          "status": "Whether to add or remove the accounts."
        }
      },
      "_editDeployerWhitelist(address[],bool)": {
        "details": "Adds/removes Ethereum accounts to the deployer whitelist.",
        "params": {
          "deployers": "Array of Ethereum accounts to be whitelisted.",
          "status": "Whether to add or remove the accounts."
        }
      },
      "_setDeployerWhitelistEnforcement(bool)": {
        "details": "Controls if the deployer whitelist is to be enforced.",
        "params": {
          "enforce": "Boolean indicating if the deployer whitelist is to be enforced."
        }
      },
      "deployPool(string,address,bool,uint256,uint256,address)": {
        "details": "Deploys a new Fuse pool and adds to the directory.",
        "params": {
          "closeFactor": "The pool's close factor (scaled by 1e18).",
          "enforceWhitelist": "Boolean indicating if the pool's supplier/borrower whitelist is to be enforced.",
          "implementation": "The Comptroller implementation contract address.",
          "liquidationIncentive": "The pool's liquidation incentive (scaled by 1e18).",
          "name": "The name of the pool.",
          "priceOracle": "The pool's PriceOracle contract address."
        },
        "returns": {
          "_0": "The index of the registered Fuse pool and the Unitroller proxy address."
        }
      },
      "getAllPools()": {
        "details": "This function is not designed to be called in a transaction: it is too gas-intensive."
      },
      "getPublicPools()": {
        "details": "This function is not designed to be called in a transaction: it is too gas-intensive."
      },
      "getPublicPoolsByVerification(bool)": {
        "details": "This function is not designed to be called in a transaction: it is too gas-intensive."
      },
      "initialize(bool,address[])": {
        "details": "Initializes a deployer whitelist if desired.",
        "params": {
          "_deployerWhitelist": "Array of Ethereum accounts to be whitelisted.",
          "_enforceDeployerWhitelist": "Boolean indicating if the deployer whitelist is to be enforced."
        }
      },
      "owner()": {
        "details": "Returns the address of the current owner."
      },
      "renounceOwnership()": {
        "details": "Leaves the contract without owner. It will not be possible to call `onlyOwner` functions anymore. Can only be called by the current owner. NOTE: Renouncing ownership will leave the contract without an owner, thereby removing any functionality that is only available to the owner."
      },
      "transferOwnership(address)": {
        "details": "Transfers ownership of the contract to a new account (`newOwner`). Can only be called by the current owner."
      }
    },
    "stateVariables": {
      "_bookmarks": {
        "details": "Maps Ethereum accounts to arrays of Fuse pool Comptroller proxy contract addresses."
      },
      "_poolsByAccount": {
        "details": "Maps Ethereum accounts to arrays of Fuse pool indexes."
      },
      "adminWhitelist": {
        "details": "Maps Ethereum accounts to booleans indicating if they are a whitelisted admin."
      },
      "deployerWhitelist": {
        "details": "Maps Ethereum accounts to booleans indicating if they are allowed to deploy pools."
      },
      "enforceDeployerWhitelist": {
        "details": "Booleans indicating if the deployer whitelist is enforced."
      },
      "poolExists": {
        "details": "Maps Fuse pool Comptroller addresses to bools indicating if they have been registered via the directory."
      },
      "pools": {
        "details": "Array of Fuse interest rate pools."
      }
    },
    "title": "FusePoolDirectory",
    "version": 1
  },
  "userdoc": {
    "kind": "user",
    "methods": {
      "bookmarkPool(address)": {
        "notice": "Bookmarks a Fuse pool Unitroller (Comptroller proxy) contract addresses."
      },
      "getAllPools()": {
        "notice": "Returns arrays of all Fuse pools' data."
      },
      "getBookmarks(address)": {
        "notice": "Returns arrays of Fuse pool Unitroller (Comptroller proxy) contract addresses bookmarked by `account`."
      },
      "getPoolsByAccount(address)": {
        "notice": "Returns arrays of Fuse pool indexes and data created by `account`."
      },
      "getPublicPools()": {
        "notice": "Returns arrays of all public Fuse pool indexes and data."
      },
      "getPublicPoolsByVerification(bool)": {
        "notice": "Returns arrays of all public Fuse pool indexes and data with whitelisted admins."
      },
      "setPoolName(uint256,string)": {
        "notice": "Modify existing Fuse pool name."
      }
    },
    "notice": "FusePoolDirectory is a directory for Fuse interest rate pools.",
    "version": 1
  },
  "storageLayout": {
    "storage": [
      {
        "astId": 210,
        "contract": "contracts/FusePoolDirectory.sol:FusePoolDirectory",
        "label": "_initialized",
        "offset": 0,
        "slot": "0",
        "type": "t_bool"
      },
      {
        "astId": 213,
        "contract": "contracts/FusePoolDirectory.sol:FusePoolDirectory",
        "label": "_initializing",
        "offset": 1,
        "slot": "0",
        "type": "t_bool"
      },
      {
        "astId": 1501,
        "contract": "contracts/FusePoolDirectory.sol:FusePoolDirectory",
        "label": "__gap",
        "offset": 0,
        "slot": "1",
        "type": "t_array(t_uint256)50_storage"
      },
      {
        "astId": 10,
        "contract": "contracts/FusePoolDirectory.sol:FusePoolDirectory",
        "label": "_owner",
        "offset": 0,
        "slot": "51",
        "type": "t_address"
      },
      {
        "astId": 122,
        "contract": "contracts/FusePoolDirectory.sol:FusePoolDirectory",
        "label": "__gap",
        "offset": 0,
        "slot": "52",
        "type": "t_array(t_uint256)49_storage"
      },
      {
        "astId": 2631,
        "contract": "contracts/FusePoolDirectory.sol:FusePoolDirectory",
        "label": "pools",
        "offset": 0,
        "slot": "101",
        "type": "t_array(t_struct(FusePool)2626_storage)dyn_storage"
      },
      {
        "astId": 2637,
        "contract": "contracts/FusePoolDirectory.sol:FusePoolDirectory",
        "label": "_poolsByAccount",
        "offset": 0,
        "slot": "102",
        "type": "t_mapping(t_address,t_array(t_uint256)dyn_storage)"
      },
      {
        "astId": 2642,
        "contract": "contracts/FusePoolDirectory.sol:FusePoolDirectory",
        "label": "poolExists",
        "offset": 0,
        "slot": "103",
        "type": "t_mapping(t_address,t_bool)"
      },
      {
        "astId": 2653,
        "contract": "contracts/FusePoolDirectory.sol:FusePoolDirectory",
        "label": "enforceDeployerWhitelist",
        "offset": 0,
        "slot": "104",
        "type": "t_bool"
      },
      {
        "astId": 2658,
        "contract": "contracts/FusePoolDirectory.sol:FusePoolDirectory",
        "label": "deployerWhitelist",
        "offset": 0,
        "slot": "105",
        "type": "t_mapping(t_address,t_bool)"
      },
      {
        "astId": 3216,
        "contract": "contracts/FusePoolDirectory.sol:FusePoolDirectory",
        "label": "_bookmarks",
        "offset": 0,
        "slot": "106",
        "type": "t_mapping(t_address,t_array(t_address)dyn_storage)"
      },
      {
        "astId": 3296,
        "contract": "contracts/FusePoolDirectory.sol:FusePoolDirectory",
        "label": "adminWhitelist",
        "offset": 0,
        "slot": "107",
        "type": "t_mapping(t_address,t_bool)"
      }
    ],
    "types": {
      "t_address": {
        "encoding": "inplace",
        "label": "address",
        "numberOfBytes": "20"
      },
      "t_array(t_address)dyn_storage": {
        "base": "t_address",
        "encoding": "dynamic_array",
        "label": "address[]",
        "numberOfBytes": "32"
      },
      "t_array(t_struct(FusePool)2626_storage)dyn_storage": {
        "base": "t_struct(FusePool)2626_storage",
        "encoding": "dynamic_array",
        "label": "struct FusePoolDirectory.FusePool[]",
        "numberOfBytes": "32"
      },
      "t_array(t_uint256)49_storage": {
        "base": "t_uint256",
        "encoding": "inplace",
        "label": "uint256[49]",
        "numberOfBytes": "1568"
      },
      "t_array(t_uint256)50_storage": {
        "base": "t_uint256",
        "encoding": "inplace",
        "label": "uint256[50]",
        "numberOfBytes": "1600"
      },
      "t_array(t_uint256)dyn_storage": {
        "base": "t_uint256",
        "encoding": "dynamic_array",
        "label": "uint256[]",
        "numberOfBytes": "32"
      },
      "t_bool": {
        "encoding": "inplace",
        "label": "bool",
        "numberOfBytes": "1"
      },
      "t_mapping(t_address,t_array(t_address)dyn_storage)": {
        "encoding": "mapping",
        "key": "t_address",
        "label": "mapping(address => address[])",
        "numberOfBytes": "32",
        "value": "t_array(t_address)dyn_storage"
      },
      "t_mapping(t_address,t_array(t_uint256)dyn_storage)": {
        "encoding": "mapping",
        "key": "t_address",
        "label": "mapping(address => uint256[])",
        "numberOfBytes": "32",
        "value": "t_array(t_uint256)dyn_storage"
      },
      "t_mapping(t_address,t_bool)": {
        "encoding": "mapping",
        "key": "t_address",
        "label": "mapping(address => bool)",
        "numberOfBytes": "32",
        "value": "t_bool"
      },
      "t_string_storage": {
        "encoding": "bytes",
        "label": "string",
        "numberOfBytes": "32"
      },
      "t_struct(FusePool)2626_storage": {
        "encoding": "inplace",
        "label": "struct FusePoolDirectory.FusePool",
        "members": [
          {
            "astId": 2617,
            "contract": "contracts/FusePoolDirectory.sol:FusePoolDirectory",
            "label": "name",
            "offset": 0,
            "slot": "0",
            "type": "t_string_storage"
          },
          {
            "astId": 2619,
            "contract": "contracts/FusePoolDirectory.sol:FusePoolDirectory",
            "label": "creator",
            "offset": 0,
            "slot": "1",
            "type": "t_address"
          },
          {
            "astId": 2621,
            "contract": "contracts/FusePoolDirectory.sol:FusePoolDirectory",
            "label": "comptroller",
            "offset": 0,
            "slot": "2",
            "type": "t_address"
          },
          {
            "astId": 2623,
            "contract": "contracts/FusePoolDirectory.sol:FusePoolDirectory",
            "label": "blockPosted",
            "offset": 0,
            "slot": "3",
            "type": "t_uint256"
          },
          {
            "astId": 2625,
            "contract": "contracts/FusePoolDirectory.sol:FusePoolDirectory",
            "label": "timestampPosted",
            "offset": 0,
            "slot": "4",
            "type": "t_uint256"
          }
        ],
        "numberOfBytes": "160"
      },
      "t_uint256": {
        "encoding": "inplace",
        "label": "uint256",
        "numberOfBytes": "32"
      }
    }
  }
}