{
  "address": "0x1F2097477C47428f1b080C26A3b0c1Df40a0788c",
  "abi": [
    {
      "inputs": [],
      "name": "BTC_TOKEN",
      "outputs": [
        {
          "internalType": "address",
          "name": "",
          "type": "address"
        }
      ],
      "stateMutability": "view",
      "type": "function"
    },
    {
      "inputs": [],
      "name": "STABLE_TOKEN",
      "outputs": [
        {
          "internalType": "address",
          "name": "",
          "type": "address"
        }
      ],
      "stateMutability": "view",
      "type": "function"
    },
    {
      "inputs": [],
      "name": "UNISWAP_V2_ROUTER_02",
      "outputs": [
        {
          "internalType": "contract IUniswapV2Router02",
          "name": "",
          "type": "address"
        }
      ],
      "stateMutability": "view",
      "type": "function"
    },
    {
      "inputs": [],
      "name": "UNISWAP_V2_ROUTER_02_ADDRESS",
      "outputs": [
        {
          "internalType": "address",
          "name": "",
          "type": "address"
        }
      ],
      "stateMutability": "view",
      "type": "function"
    },
    {
      "inputs": [],
      "name": "W_NATIVE",
      "outputs": [
        {
          "internalType": "contract IW_NATIVE",
          "name": "",
          "type": "address"
        }
      ],
      "stateMutability": "view",
      "type": "function"
    },
    {
      "inputs": [],
      "name": "W_NATIVE_ADDRESS",
      "outputs": [
        {
          "internalType": "address",
          "name": "",
          "type": "address"
        }
      ],
      "stateMutability": "view",
      "type": "function"
    },
    {
      "inputs": [
        {
          "internalType": "address",
          "name": "_wtoken",
          "type": "address"
        },
        {
          "internalType": "address",
          "name": "_uniswapV2router",
          "type": "address"
        },
        {
          "internalType": "address",
          "name": "_stableToken",
          "type": "address"
        },
        {
          "internalType": "address",
          "name": "_btcToken",
          "type": "address"
        },
        {
          "internalType": "bytes",
          "name": "_uniswapPairInitHashCode",
          "type": "bytes"
        }
      ],
      "name": "initialize",
      "outputs": [],
      "stateMutability": "nonpayable",
      "type": "function"
    },
    {
      "inputs": [
        {
          "internalType": "contract IERC20Upgradeable",
          "name": "underlyingCollateral",
          "type": "address"
        },
        {
          "internalType": "uint256",
          "name": "underlyingCollateralSeized",
          "type": "uint256"
        },
        {
          "internalType": "contract IRedemptionStrategy",
          "name": "strategy",
          "type": "address"
        },
        {
          "internalType": "bytes",
          "name": "strategyData",
          "type": "bytes"
        }
      ],
      "name": "redeemCustomCollateral",
      "outputs": [
        {
          "internalType": "contract IERC20Upgradeable",
          "name": "",
          "type": "address"
        },
        {
          "internalType": "uint256",
          "name": "",
          "type": "uint256"
        }
      ],
      "stateMutability": "nonpayable",
      "type": "function"
    },
    {
      "inputs": [
        {
          "internalType": "address",
          "name": "borrower",
          "type": "address"
        },
        {
          "internalType": "contract ICEther",
          "name": "cEther",
          "type": "address"
        },
        {
          "internalType": "contract ICErc20",
          "name": "cErc20Collateral",
          "type": "address"
        },
        {
          "internalType": "uint256",
          "name": "minOutputAmount",
          "type": "uint256"
        },
        {
          "internalType": "address",
          "name": "exchangeSeizedTo",
          "type": "address"
        },
        {
          "internalType": "contract IUniswapV2Router02",
          "name": "uniswapV2Router",
          "type": "address"
        },
        {
          "internalType": "contract IRedemptionStrategy[]",
          "name": "redemptionStrategies",
          "type": "address[]"
        },
        {
          "internalType": "bytes[]",
          "name": "strategyData",
          "type": "bytes[]"
        }
      ],
      "name": "safeLiquidate",
      "outputs": [
        {
          "internalType": "uint256",
          "name": "",
          "type": "uint256"
        }
      ],
      "stateMutability": "payable",
      "type": "function"
    },
    {
      "inputs": [
        {
          "internalType": "address",
          "name": "borrower",
          "type": "address"
        },
        {
          "internalType": "uint256",
          "name": "repayAmount",
          "type": "uint256"
        },
        {
          "internalType": "contract ICErc20",
          "name": "cErc20",
          "type": "address"
        },
        {
          "internalType": "contract ICToken",
          "name": "cTokenCollateral",
          "type": "address"
        },
        {
          "internalType": "uint256",
          "name": "minOutputAmount",
          "type": "uint256"
        },
        {
          "internalType": "address",
          "name": "exchangeSeizedTo",
          "type": "address"
        },
        {
          "internalType": "contract IUniswapV2Router02",
          "name": "uniswapV2Router",
          "type": "address"
        },
        {
          "internalType": "contract IRedemptionStrategy[]",
          "name": "redemptionStrategies",
          "type": "address[]"
        },
        {
          "internalType": "bytes[]",
          "name": "strategyData",
          "type": "bytes[]"
        }
      ],
      "name": "safeLiquidate",
      "outputs": [
        {
          "internalType": "uint256",
          "name": "",
          "type": "uint256"
        }
      ],
      "stateMutability": "nonpayable",
      "type": "function"
    },
    {
      "inputs": [
        {
          "internalType": "address",
          "name": "borrower",
          "type": "address"
        },
        {
          "internalType": "uint256",
          "name": "repayAmount",
          "type": "uint256"
        },
        {
          "internalType": "contract ICEther",
          "name": "cEther",
          "type": "address"
        },
        {
          "internalType": "contract ICErc20",
          "name": "cErc20Collateral",
          "type": "address"
        },
        {
          "internalType": "uint256",
          "name": "minProfitAmount",
          "type": "uint256"
        },
        {
          "internalType": "address",
          "name": "exchangeProfitTo",
          "type": "address"
        },
        {
          "internalType": "contract IUniswapV2Router02",
          "name": "uniswapV2RouterForCollateral",
          "type": "address"
        },
        {
          "internalType": "contract IRedemptionStrategy[]",
          "name": "redemptionStrategies",
          "type": "address[]"
        },
        {
          "internalType": "bytes[]",
          "name": "strategyData",
          "type": "bytes[]"
        },
        {
          "internalType": "uint256",
          "name": "ethToCoinbase",
          "type": "uint256"
        }
      ],
      "name": "safeLiquidateToEthWithFlashLoan",
      "outputs": [
        {
          "internalType": "uint256",
          "name": "",
          "type": "uint256"
        }
      ],
      "stateMutability": "nonpayable",
      "type": "function"
    },
    {
      "inputs": [
        {
          "internalType": "address",
          "name": "borrower",
          "type": "address"
        },
        {
          "internalType": "uint256",
          "name": "repayAmount",
          "type": "uint256"
        },
        {
          "internalType": "contract ICErc20",
          "name": "cErc20",
          "type": "address"
        },
        {
          "internalType": "contract ICToken",
          "name": "cTokenCollateral",
          "type": "address"
        },
        {
          "internalType": "uint256",
          "name": "minProfitAmount",
          "type": "uint256"
        },
        {
          "internalType": "address",
          "name": "exchangeProfitTo",
          "type": "address"
        },
        {
          "internalType": "contract IUniswapV2Router02",
          "name": "uniswapV2RouterForBorrow",
          "type": "address"
        },
        {
          "internalType": "contract IUniswapV2Router02",
          "name": "uniswapV2RouterForCollateral",
          "type": "address"
        },
        {
          "internalType": "contract IRedemptionStrategy[]",
          "name": "redemptionStrategies",
          "type": "address[]"
        },
        {
          "internalType": "bytes[]",
          "name": "strategyData",
          "type": "bytes[]"
        },
        {
          "internalType": "uint256",
          "name": "ethToCoinbase",
          "type": "uint256"
        }
      ],
      "name": "safeLiquidateToTokensWithFlashLoan",
      "outputs": [
        {
          "internalType": "uint256",
          "name": "",
          "type": "uint256"
        }
      ],
      "stateMutability": "nonpayable",
      "type": "function"
    },
    {
      "inputs": [
        {
          "internalType": "address",
          "name": "sender",
          "type": "address"
        },
        {
          "internalType": "uint256",
          "name": "amount0",
          "type": "uint256"
        },
        {
          "internalType": "uint256",
          "name": "amount1",
          "type": "uint256"
        },
        {
          "internalType": "bytes",
          "name": "data",
          "type": "bytes"
        }
      ],
      "name": "uniswapV2Call",
      "outputs": [],
      "stateMutability": "nonpayable",
      "type": "function"
    },
    {
      "stateMutability": "payable",
      "type": "receive"
    }
  ],
  "transactionHash": "0x72b8fca17076fbbeb1381522561b69fae3ca41809bd23fa18fbd55973d045dea",
  "args": [],
  "numDeployments": 3,
  "solcInputHash": "cdaa356e21f74b41673ce069a5a3b631",
  "bytecode": "0x608060405234801561001057600080fd5b50615181806100206000396000f3fe6080604052600436106100c65760003560e01c806381738f131161007f578063b596625811610059578063b596625814610269578063b798d3ff146102a8578063ba8bca5a146102c8578063c8348b54146102e857600080fd5b806381738f1314610203578063a68ee11914610229578063a94c12bc1461024957600080fd5b80630d1b27631461012557806310d1e85c1461014b5780634a9364171461016b578063700d5dd71461018b5780637754f887146101ab578063789fc9ad146101e357600080fd5b3661012057333b61011e5760405162461bcd60e51b815260206004820152601960248201527f53656e646572206973206e6f74206120636f6e74726163742e0000000000000060448201526064015b60405180910390fd5b005b600080fd5b610138610133366004614365565b610308565b6040519081526020015b60405180910390f35b34801561015757600080fd5b5061011e61016636600461442f565b610698565b34801561017757600080fd5b5061011e6101863660046144c4565b6108ac565b34801561019757600080fd5b506101386101a636600461454b565b610a4e565b3480156101b757600080fd5b506003546101cb906001600160a01b031681565b6040516001600160a01b039091168152602001610142565b3480156101ef57600080fd5b506004546101cb906001600160a01b031681565b34801561020f57600080fd5b506000546101cb906201000090046001600160a01b031681565b34801561023557600080fd5b50610138610244366004614637565b610ccf565b34801561025557600080fd5b506002546101cb906001600160a01b031681565b34801561027557600080fd5b50610289610284366004614705565b611152565b604080516001600160a01b039093168352602083019190915201610142565b3480156102b457600080fd5b506001546101cb906001600160a01b031681565b3480156102d457600080fd5b506006546101cb906001600160a01b031681565b3480156102f457600080fd5b50610138610303366004614770565b6111d3565b60008034116103295760405162461bcd60e51b815260040161011590614845565b604051635572051560e11b81526001600160a01b038a81166004830152888116602483015289169063aae40a2a9034906044016000604051808303818588803b15801561037557600080fd5b505af1158015610389573d6000803e3d6000fd5b5050505050866001600160a01b0316856001600160a01b031614610681576040516370a0823160e01b81523060048201526000906001600160a01b038916906370a0823190602401602060405180830381865afa1580156103ee573d6000803e3d6000fd5b505050506040513d601f19601f8201168201806040525081019061041291906148a2565b9050801561067f5760405163db006a7560e01b8152600481018290526000906001600160a01b038a169063db006a75906024016020604051808303816000875af1158015610464573d6000803e3d6000fd5b505050506040513d601f19601f8201168201806040525081019061048891906148a2565b905080156104a85760405162461bcd60e51b8152600401610115906148bb565b6000896001600160a01b0316636f307dc36040518163ffffffff1660e01b8152600401602060405180830381865afa1580156104e8573d6000803e3d6000fd5b505050506040513d601f19601f8201168201806040525081019061050c9190614919565b8651909150156106705784518651146105375760405162461bcd60e51b815260040161011590614936565b6040516370a0823160e01b81523060048201526000906001600160a01b038316906370a0823190602401602060405180830381865afa15801561057e573d6000803e3d6000fd5b505050506040513d601f19601f820116820180604052508101906105a291906148a2565b905060005b875181101561066d57306001600160a01b031663b596625884848b85815181106105d3576105d36149b9565b60200260200101518b86815181106105ed576105ed6149b9565b60200260200101516040518563ffffffff1660e01b81526004016106149493929190614a27565b60408051808303816000875af1158015610632573d6000803e3d6000fd5b505050506040513d601f19601f820116820180604052508101906106569190614a5a565b90935091508061066581614a9e565b9150506105a7565b50505b61067c81898b8a611470565b50505b505b61068b85876118d4565b9998505050505050505050565b60006106a8606460448486614ab9565b8101906106b59190614ae3565b9050806001600160a01b031663ac784ddc6040518163ffffffff1660e01b8152600401602060405180830381865afa1580156106f5573d6000803e3d6000fd5b505050506040513d601f19601f820116820180604052508101906107199190614b00565b156107e1576000808080808080806107348a6004818e614ab9565b8101906107419190614b86565b985098509850985098509850509750975060006103e5886103e86107659190614c20565b61076f9190614c55565b905060006103e56107828a6103e8614c20565b61078c9190614c69565b11156107a0578061079c81614a9e565b9150505b6107b289898c8a8a8a878b8b8b611af9565b600780546001600160a01b0319166001600160a01b0392909216919091179055506108a4975050505050505050565b600080808080808080806107f88b6004818f614ab9565b8101906108059190614c7d565b9950995099509950995099509950509850985060006103e5896103e861082b9190614c20565b6108359190614c55565b905060006103e56108488b6103e8614c20565b6108529190614c69565b1115610866578061086281614a9e565b9150505b6108798a8a8d8b8b8b878c8c8c8c611d1d565b600780546001600160a01b0319166001600160a01b0392909216919091179055505050505050505050505b505050505050565b600054610100900460ff166108c75760005460ff16156108cb565b303b155b61092e5760405162461bcd60e51b815260206004820152602e60248201527f496e697469616c697a61626c653a20636f6e747261637420697320616c72656160448201526d191e481a5b9a5d1a585b1a5e995960921b6064820152608401610115565b600054610100900460ff16158015610950576000805461ffff19166101011790555b6001600160a01b0385166109a65760405162461bcd60e51b815260206004820152601d60248201527f556e69737761705632466163746f7279206e6f7420646566696e65642e0000006044820152606401610115565b6000805462010000600160b01b031916620100006001600160a01b0389811682029290921792839055600280546001600160a01b03199081168a85169081179092556003805482168a86161790556004805482168986161790556001805493909504909316918316919091179092556006805490911690911790558151610a349060059060208501906140d9565b5080156108a4576000805461ff0019169055505050505050565b6000808b11610a6f5760405162461bcd60e51b815260040161011590614d59565b60008060008c6001600160a01b0316636f307dc36040518163ffffffff1660e01b8152600401602060405180830381865afa158015610ab2573d6000803e3d6000fd5b505050506040513d601f19601f82011682018060405250810190610ad69190614919565b9050886001600160a01b031663c45a01556040518163ffffffff1660e01b8152600401602060405180830381865afa158015610b16573d6000803e3d6000fd5b505050506040513d601f19601f82011682018060405250810190610b3a9190614919565b60005460405163e6a4390560e01b81526001600160a01b038481166004830152620100009092048216602482015291169063e6a4390590604401602060405180830381865afa158015610b91573d6000803e3d6000fd5b505050506040513d601f19601f82011682018060405250810190610bb59190614919565b9250806001600160a01b0316836001600160a01b0316630dfe16816040518163ffffffff1660e01b8152600401602060405180830381865afa158015610bff573d6000803e3d6000fd5b505050506040513d601f19601f82011682018060405250810190610c239190614919565b6001600160a01b031614915050816001600160a01b031663022c0d9f82610c4b576000610c4d565b8e5b8315610c5a576000610c5c565b8f5b306000366040518663ffffffff1660e01b8152600401610c80959493929190614d9d565b600060405180830381600087803b158015610c9a57600080fd5b505af1158015610cae573d6000803e3d6000fd5b50505050610cbd898b86611fb1565b9e9d5050505050505050505050505050565b6000808911610cf05760405162461bcd60e51b815260040161011590614845565b6000886001600160a01b0316636f307dc36040518163ffffffff1660e01b8152600401602060405180830381865afa158015610d30573d6000803e3d6000fd5b505050506040513d601f19601f82011682018060405250810190610d549190614919565b9050610d6b6001600160a01b03821633308d6120d5565b610d76818a8c612140565b604051637af1e23160e11b81526001600160a01b038c81166004830152602482018c905289811660448301528a169063f5e3c462906064016020604051808303816000875af1158015610dcd573d6000803e3d6000fd5b505050506040513d601f19601f82011682018060405250810190610df191906148a2565b15610e345760405162461bcd60e51b81526020600482015260136024820152722634b8bab4b230ba34b7b7103330b4b632b21760691b6044820152606401610115565b876001600160a01b0316866001600160a01b031614611139576040516370a0823160e01b81523060048201526000906001600160a01b038a16906370a0823190602401602060405180830381865afa158015610e94573d6000803e3d6000fd5b505050506040513d601f19601f82011682018060405250810190610eb891906148a2565b905080156111375760405163db006a7560e01b8152600481018290526000906001600160a01b038b169063db006a75906024016020604051808303816000875af1158015610f0a573d6000803e3d6000fd5b505050506040513d601f19601f82011682018060405250810190610f2e91906148a2565b90508015610f4e5760405162461bcd60e51b8152600401610115906148bb565b896001600160a01b031663ac784ddc6040518163ffffffff1660e01b8152600401602060405180830381865afa158015610f8c573d6000803e3d6000fd5b505050506040513d601f19601f82011682018060405250810190610fb09190614b00565b15610fc757610fc26000898b8a611470565b611135565b60008a6001600160a01b0316636f307dc36040518163ffffffff1660e01b8152600401602060405180830381865afa158015611007573d6000803e3d6000fd5b505050506040513d601f19601f8201168201806040525081019061102b9190614919565b8751909150156111275785518751146110565760405162461bcd60e51b815260040161011590614936565b6040516370a0823160e01b81523060048201526000906001600160a01b038316906370a0823190602401602060405180830381865afa15801561109d573d6000803e3d6000fd5b505050506040513d601f19601f820116820180604052508101906110c191906148a2565b905060005b88518110156111245761110d83838b84815181106110e6576110e66149b9565b60200260200101518b8581518110611100576111006149b9565b6020026020010151611152565b90935091508061111c81614a9e565b9150506110c6565b50505b611133818a8c8b611470565b505b505b505b61114386886118d4565b9b9a5050505050505050505050565b60008060006111af856310badf4e60e01b89898860405160240161117893929190614dec565b60408051601f198184030181529190526020810180516001600160e01b03166001600160e01b0319909316929092179091526121ef565b9050808060200190518101906111c59190614a5a565b925092505094509492505050565b6000808a116111f45760405162461bcd60e51b815260040161011590614d59565b60006113cb600660009054906101000a90046001600160a01b03166001600160a01b031663c45a01556040518163ffffffff1660e01b8152600401602060405180830381865afa15801561124c573d6000803e3d6000fd5b505050506040513d601f19601f820116820180604052508101906112709190614919565b6002546001600160a01b038981169116148015611303575060035460408051636f307dc360e01b815290516001600160a01b03928316928e1691636f307dc39160048083019260209291908290030181865afa1580156112d4573d6000803e3d6000fd5b505050506040513d601f19601f820116820180604052508101906112f89190614919565b6001600160a01b0316145b611318576003546001600160a01b0316611325565b6004546001600160a01b03165b600060029054906101000a90046001600160a01b03166005805461134890614e13565b80601f016020809104026020016040519081016040528092919081815260200182805461137490614e13565b80156113c15780601f10611396576101008083540402835291602001916113c1565b820191906000526020600020905b8154815290600101906020018083116113a457829003601f168201915b50505050506122e3565b90506001600160a01b03811663022c0d9f6113e98d620f4240614c20565b6040516001600160e01b031960e084901b168152600481019190915260006024820181905230604483015260806064830152608482015260a401600060405180830381600087803b15801561143d57600080fd5b505af1158015611451573d6000803e3d6000fd5b50505050611460878985611fb1565b9c9b505050505050505050505050565b836001600160a01b0316836001600160a01b0316141561148f576118ce565b6001600160a01b0384166115c5576000546001600160a01b038481166201000090920416141561152757600160009054906101000a90046001600160a01b03166001600160a01b031663d0e30db0476040518263ffffffff1660e01b81526004016000604051808303818588803b15801561150957600080fd5b505af115801561151d573d6000803e3d6000fd5b50505050506118ce565b806001600160a01b0316637ff36ab54784611557600060029054906101000a90046001600160a01b03168861236e565b30426040518663ffffffff1660e01b81526004016115789493929190614e92565b60006040518083038185885af1158015611596573d6000803e3d6000fd5b50505050506040513d6000823e601f3d908101601f191682016040526115bf9190810190614ec7565b506118ce565b6000546001600160a01b0385811662010000909204161480156115ef57506001600160a01b038316155b156116c6576001546000546040516370a0823160e01b81523060048201526001600160a01b0392831692632e1a7d4d9262010000900416906370a0823190602401602060405180830381865afa15801561164d573d6000803e3d6000fd5b505050506040513d601f19601f8201168201806040525081019061167191906148a2565b6040518263ffffffff1660e01b815260040161168f91815260200190565b600060405180830381600087803b1580156116a957600080fd5b505af11580156116bd573d6000803e3d6000fd5b505050506118ce565b6040516370a0823160e01b815230600482015284906000906001600160a01b038316906370a0823190602401602060405180830381865afa15801561170f573d6000803e3d6000fd5b505050506040513d601f19601f8201168201806040525081019061173391906148a2565b9050611740828483612140565b6001600160a01b0385166117ed57826001600160a01b03166318cbafe5828661177e8a600060029054906101000a90046001600160a01b031661236e565b30426040518663ffffffff1660e01b81526004016117a0959493929190614f4c565b6000604051808303816000875af11580156117bf573d6000803e3d6000fd5b505050506040513d6000823e601f3d908101601f191682016040526117e79190810190614ec7565b506108a4565b6000546001600160a01b03808516916338ed173991849188918b81166201000090920416148061183057506000546001600160a01b038a81166201000090920416145b61185757600054611852908b906201000090046001600160a01b03168b6123fb565b611861565b6118618a8a61236e565b30426040518663ffffffff1660e01b8152600401611883959493929190614f4c565b6000604051808303816000875af11580156118a2573d6000803e3d6000fd5b505050506040513d6000823e601f3d908101601f191682016040526118ca9190810190614ec7565b5050505b50505050565b6000806001600160a01b038416611a085750478281101561194b5760405162461bcd60e51b815260206004820152602b60248201527f4d696e696d756d204e4154495645206f757470757420616d6f756e74206e6f7460448201526a1039b0ba34b9b334b2b21760a91b6064820152608401610115565b8015611a0357604051600090339083908381818185875af1925050503d8060008114611993576040519150601f19603f3d011682016040523d82523d6000602084013e611998565b606091505b5050905080611a015760405162461bcd60e51b815260206004820152602f60248201527f4661696c656420746f207472616e73666572206f7574707574204e415449564560448201526e103a379036b9b39739b2b73232b91760891b6064820152608401610115565b505b611af2565b6040516370a0823160e01b815230600482015284906001600160a01b038216906370a0823190602401602060405180830381865afa158015611a4e573d6000803e3d6000fd5b505050506040513d601f19601f82011682018060405250810190611a7291906148a2565b915083821015611ad65760405162461bcd60e51b815260206004820152602960248201527f4d696e696d756d20746f6b656e206f757470757420616d6f756e74206e6f742060448201526839b0ba34b334b2b21760b91b6064820152608401610115565b8115611af057611af06001600160a01b03821633846124be565b505b9392505050565b600154604051632e1a7d4d60e01b8152600481018b90526000916001600160a01b031690632e1a7d4d90602401600060405180830381600087803b158015611b4057600080fd5b505af1158015611b54573d6000803e3d6000fd5b5050604051635572051560e11b81526001600160a01b038e811660048301528b811660248301528c16925063aae40a2a91508c906044016000604051808303818588803b158015611ba457600080fd5b505af1158015611bb8573d6000803e3d6000fd5b50506040516370a0823160e01b8152306004820152600093506001600160a01b038c1692506370a082319150602401602060405180830381865afa158015611c04573d6000803e3d6000fd5b505050506040513d601f19601f82011682018060405250810190611c2891906148a2565b905060008111611c6f5760405162461bcd60e51b815260206004820152601260248201527127379031aa37b5b2b7399039b2b4bd32b21760711b6044820152606401610115565b60405163db006a7560e01b8152600481018290526000906001600160a01b038b169063db006a75906024016020604051808303816000875af1158015611cb9573d6000803e3d6000fd5b505050506040513d601f19601f82011682018060405250810190611cdd91906148a2565b90508015611cfd5760405162461bcd60e51b8152600401610115906148bb565b611d0c8c8b8a8a8a8a8a6124f3565b9d9c50505050505050505050505050565b6000808a6001600160a01b0316636f307dc36040518163ffffffff1660e01b8152600401602060405180830381865afa158015611d5e573d6000803e3d6000fd5b505050506040513d601f19601f82011682018060405250810190611d829190614919565b9050611d8f818c8e612140565b604051637af1e23160e11b81526001600160a01b038e81166004830152602482018e90528b811660448301528c169063f5e3c462906064016020604051808303816000875af1158015611de6573d6000803e3d6000fd5b505050506040513d601f19601f82011682018060405250810190611e0a91906148a2565b15611e4d5760405162461bcd60e51b81526020600482015260136024820152722634b8bab4b230ba34b7b7103330b4b632b21760691b6044820152606401610115565b6040516370a0823160e01b81523060048201526000906001600160a01b038c16906370a0823190602401602060405180830381865afa158015611e94573d6000803e3d6000fd5b505050506040513d601f19601f82011682018060405250810190611eb891906148a2565b905060008111611eff5760405162461bcd60e51b815260206004820152601260248201527127379031aa37b5b2b7399039b2b4bd32b21760711b6044820152606401610115565b60405163db006a7560e01b8152600481018290526000906001600160a01b038d169063db006a75906024016020604051808303816000875af1158015611f49573d6000803e3d6000fd5b505050506040513d601f19601f82011682018060405250810190611f6d91906148a2565b90508015611f8d5760405162461bcd60e51b8152600401610115906148bb565b611f9e8e8d8c8c8c8c8c8c8b612d2d565b9f9e505050505050505050505050505050565b60006001600160a01b03841661204d57600754611fed906001600160a01b031685611fdc8587614f88565b6006546001600160a01b0316611470565b811561203c5760405141908390600081818185875af1925050503d8060008114612033576040519150601f19603f3d011682016040523d82523d6000602084013e612038565b606091505b5050505b61204684846118d4565b9050611af2565b81156120ba57600754600654612071916001600160a01b03908116918591166136fb565b60405141908390600081818185875af1925050503d80600081146120b1576040519150601f19603f3d011682016040523d82523d6000602084013e6120b6565b606091505b5050505b60075461203c906001600160a01b031685611fdc8587614f88565b6040516001600160a01b03808516602483015283166044820152606481018290526118ce9085906323b872dd60e01b906084015b60408051601f198184030181529190526020810180516001600160e01b03166001600160e01b031990931692909217909152613897565b604051636eb1769f60e11b81523060048201526001600160a01b0383811660248301526000919085169063dd62ed3e90604401602060405180830381865afa158015612190573d6000803e3d6000fd5b505050506040513d601f19601f820116820180604052508101906121b491906148a2565b9050818110156118ce5780156121d9576121d96001600160a01b038516846000613969565b6118ce6001600160a01b03851684600019613969565b60606001600160a01b0383163b6122575760405162461bcd60e51b815260206004820152602660248201527f416464726573733a2064656c65676174652063616c6c20746f206e6f6e2d636f6044820152651b9d1c9858dd60d21b6064820152608401610115565b600080846001600160a01b0316846040516122729190614fa0565b600060405180830381855af49150503d80600081146122ad576040519150601f19603f3d011682016040523d82523d6000602084013e6122b2565b606091505b50915091506122da828260405180606001604052806027815260200161512560279139613a7e565b95945050505050565b60008060006122f28686613ab7565b6040516bffffffffffffffffffffffff19606084811b8216602084015283901b16603482015291935091508790604801604051602081830303815290604052805190602001208560405160200161234b93929190614fbc565b60408051601f198184030181529190528051602090910120979650505050505050565b6040805160028082526060808301845292600092919060208301908036833701905050905083816000815181106123a7576123a76149b9565b60200260200101906001600160a01b031690816001600160a01b03168152505082816001815181106123db576123db6149b9565b6001600160a01b0390921660209283029190910190910152905092915050565b60408051600380825260808201909252606091600091906020820184803683370190505090508481600081518110612435576124356149b9565b60200260200101906001600160a01b031690816001600160a01b0316815250508381600181518110612469576124696149b9565b60200260200101906001600160a01b031690816001600160a01b031681525050828160028151811061249d5761249d6149b9565b6001600160a01b039092166020928302919091019091015290509392505050565b6040516001600160a01b0383166024820152604481018290526124ee90849063a9059cbb60e01b90606401612109565b505050565b600080876001600160a01b0316636f307dc36040518163ffffffff1660e01b8152600401602060405180830381865afa158015612534573d6000803e3d6000fd5b505050506040513d601f19601f820116820180604052508101906125589190614919565b6040516370a0823160e01b81523060048201529091506000906001600160a01b038316906370a0823190602401602060405180830381865afa1580156125a2573d6000803e3d6000fd5b505050506040513d601f19601f820116820180604052508101906125c691906148a2565b8551909150156126475783518551146125f15760405162461bcd60e51b815260040161011590614936565b60005b85518110156126455761262e8383888481518110612614576126146149b9565b6020026020010151888581518110611100576111006149b9565b90935091508061263d81614a9e565b9150506125f4565b505b6002546001600160a01b0387811691161480156127325750886001600160a01b0316636f307dc36040518163ffffffff1660e01b8152600401602060405180830381865afa15801561269d573d6000803e3d6000fd5b505050506040513d601f19601f820116820180604052508101906126c19190614919565b6001600160a01b031673a0b86991c6218b36c1d19d4a2e9eb0ce3606eb486001600160a01b0316146127075773a0b86991c6218b36c1d19d4a2e9eb0ce3606eb4861271d565b732260fac5e5542a773aa44fbcfedf7c193bc2c5995b6001600160a01b0316826001600160a01b0316145b1561293e5760006127c3876001600160a01b031663c45a01556040518163ffffffff1660e01b8152600401602060405180830381865afa15801561277a573d6000803e3d6000fd5b505050506040513d601f19601f8201168201806040525081019061279e9190614919565b8c6127be86600060029054906101000a90046001600160a01b031661236e565b613bad565b6000815181106127d5576127d56149b9565b60200260200101519050818111156128555760405162461bcd60e51b815260206004820152603760248201527f466c6173686c6f616e2072657475726e20616d6f756e7420677265617465722060448201527f7468616e207365697a656420636f6c6c61746572616c2e0000000000000000006064820152608401610115565b60405163a9059cbb60e01b8152336004820152602481018290526001600160a01b0384169063a9059cbb906044016020604051808303816000875af11580156128a2573d6000803e3d6000fd5b505050506040513d601f19601f820116820180604052508101906128c69190614b00565b6129385760405162461bcd60e51b815260206004820152603b60248201527f4661696c656420746f207472616e73666572206e6f6e2d575f4e41544956452060448201527f746f6b656e73206261636b20746f20666c6173686c656e6465722e00000000006064820152608401610115565b50612d20565b6000546001600160a01b03838116620100009092041614612b48576001600160a01b0382166129d557600160009054906101000a90046001600160a01b03166001600160a01b031663d0e30db0886040518263ffffffff1660e01b81526004016000604051808303818588803b1580156129b757600080fd5b505af11580156129cb573d6000803e3d6000fd5b5050505050612b48565b6129e0828783612140565b816001600160a01b0316886001600160a01b03161415612a9957856001600160a01b0316638803dbee8883612a2a86600060029054906101000a90046001600160a01b031661236e565b30426040518663ffffffff1660e01b8152600401612a4c959493929190614f4c565b6000604051808303816000875af1158015612a6b573d6000803e3d6000fd5b505050506040513d6000823e601f3d908101601f19168201604052612a939190810190614ec7565b50612b48565b856001600160a01b03166338ed17398289612ac986600060029054906101000a90046001600160a01b031661236e565b30426040518663ffffffff1660e01b8152600401612aeb959493929190614f4c565b6000604051808303816000875af1158015612b0a573d6000803e3d6000fd5b505050506040513d6000823e601f3d908101601f19168201604052612b329190810190614ec7565b506000546201000090046001600160a01b031691505b6000546040516370a0823160e01b8152306004820152620100009091046001600160a01b0316906370a0823190602401602060405180830381865afa158015612b95573d6000803e3d6000fd5b505050506040513d601f19601f82011682018060405250810190612bb991906148a2565b871115612c465760405162461bcd60e51b815260206004820152604f60248201527f466c6173686c6f616e2072657475726e20616d6f756e7420677265617465722060448201527f7468616e20575f4e41544956452065786368616e6765642066726f6d2073656960648201526e3d32b21031b7b63630ba32b930b61760891b608482015260a401610115565b60015460405163a9059cbb60e01b8152336004820152602481018990526001600160a01b039091169063a9059cbb906044016020604051808303816000875af1158015612c97573d6000803e3d6000fd5b505050506040513d601f19601f82011682018060405250810190612cbb9190614b00565b612d205760405162461bcd60e51b815260206004820152603060248201527f4661696c656420746f207472616e7366657220575f4e4154495645206261636b60448201526f103a3790333630b9b43632b73232b91760811b6064820152608401610115565b5098975050505050505050565b6000886001600160a01b031663ac784ddc6040518163ffffffff1660e01b8152600401602060405180830381865afa158015612d6d573d6000803e3d6000fd5b505050506040513d601f19601f82011682018060405250810190612d919190614b00565b15612fb85760004790506000612e20886001600160a01b031663c45a01556040518163ffffffff1660e01b8152600401602060405180830381865afa158015612dde573d6000803e3d6000fd5b505050506040513d601f19601f82011682018060405250810190612e029190614919565b6000548e906127be906201000090046001600160a01b03168861236e565b600081518110612e3257612e326149b9565b6020026020010151905081811115612eb25760405162461bcd60e51b815260206004820152603760248201527f5365697a6564204e415449564520636f6c6c61746572616c206e6f7420656e6f60448201527f75676820746f20726570617920666c6173686c6f616e2e0000000000000000006064820152608401610115565b600160009054906101000a90046001600160a01b03166001600160a01b031663d0e30db0826040518263ffffffff1660e01b81526004016000604051808303818588803b158015612f0257600080fd5b505af1158015612f16573d6000803e3d6000fd5b505060015460405163a9059cbb60e01b8152336004820152602481018690526001600160a01b03909116935063a9059cbb925060440190506020604051808303816000875af1158015612f6d573d6000803e3d6000fd5b505050506040513d601f19601f82011682018060405250810190612f919190614b00565b612fad5760405162461bcd60e51b815260040161011590615005565b60009250505061068b565b6000896001600160a01b0316636f307dc36040518163ffffffff1660e01b8152600401602060405180830381865afa158015612ff8573d6000803e3d6000fd5b505050506040513d601f19601f8201168201806040525081019061301c9190614919565b6040516370a0823160e01b81523060048201529091506000906001600160a01b038316906370a0823190602401602060405180830381865afa158015613066573d6000803e3d6000fd5b505050506040513d601f19601f8201168201806040525081019061308a91906148a2565b86519091501561310b5784518651146130b55760405162461bcd60e51b815260040161011590614936565b60005b8651811015613109576130f283838984815181106130d8576130d86149b9565b6020026020010151898581518110611100576111006149b9565b90935091508061310181614a9e565b9150506130b8565b505b836001600160a01b0316826001600160a01b03161415613309576040516370a0823160e01b81523060048201526001600160a01b038516906370a0823190602401602060405180830381865afa158015613169573d6000803e3d6000fd5b505050506040513d601f19601f8201168201806040525081019061318d91906148a2565b89111561321e5760405162461bcd60e51b815260206004820152605360248201527f546f6b656e20666c6173686c6f616e2072657475726e20616d6f756e7420677260448201527f6561746572207468616e20746f6b656e732065786368616e6765642066726f6d6064820152721039b2b4bd32b21031b7b63630ba32b930b61760691b608482015260a401610115565b60405163a9059cbb60e01b8152336004820152602481018a90526001600160a01b0385169063a9059cbb906044016020604051808303816000875af115801561326b573d6000803e3d6000fd5b505050506040513d601f19601f8201168201806040525081019061328f9190614b00565b6133015760405162461bcd60e51b815260206004820152603e60248201527f4661696c656420746f20726570617920746f6b656e20666c6173686c6f616e2060448201527f6f6e20626f72726f7720286e6f6e2d575f4e41544956452920736964652e00006064820152608401610115565b50905061068b565b600061338e896001600160a01b031663c45a01556040518163ffffffff1660e01b8152600401602060405180830381865afa15801561334c573d6000803e3d6000fd5b505050506040513d601f19601f820116820180604052508101906133709190614919565b6000548f906127be906201000090046001600160a01b03168961236e565b6000815181106133a0576133a06149b9565b60200260200101519050600060029054906101000a90046001600160a01b03166001600160a01b0316836001600160a01b031614613537576133e3838984612140565b826001600160a01b03168b6001600160a01b0316141561349c57876001600160a01b0316638803dbee828461342d87600060029054906101000a90046001600160a01b031661236e565b30426040518663ffffffff1660e01b815260040161344f959493929190614f4c565b6000604051808303816000875af115801561346e573d6000803e3d6000fd5b505050506040513d6000823e601f3d908101601f191682016040526134969190810190614ec7565b50613537565b876001600160a01b03166338ed173983836134cc87600060029054906101000a90046001600160a01b031661236e565b30426040518663ffffffff1660e01b81526004016134ee959493929190614f4c565b6000604051808303816000875af115801561350d573d6000803e3d6000fd5b505050506040513d6000823e601f3d908101601f191682016040526135359190810190614ec7565b505b6000546040516370a0823160e01b8152306004820152620100009091046001600160a01b0316906370a0823190602401602060405180830381865afa158015613584573d6000803e3d6000fd5b505050506040513d601f19601f820116820180604052508101906135a891906148a2565b81111561362e5760405162461bcd60e51b815260206004820152604860248201527f4e6f7420656e6f75676820575f4e41544956452065786368616e67656420667260448201527f6f6d207365697a656420636f6c6c61746572616c20746f20726570617920666c60648201526730b9b43637b0b71760c11b608482015260a401610115565b60015460405163a9059cbb60e01b8152336004820152602481018390526001600160a01b039091169063a9059cbb906044016020604051808303816000875af115801561367f573d6000803e3d6000fd5b505050506040513d601f19601f820116820180604052508101906136a39190614b00565b6136bf5760405162461bcd60e51b815260040161011590615005565b826001600160a01b03168b6001600160a01b0316146136ef576000546201000090046001600160a01b03166136f1565b825b935050505061068b565b6001600160a01b03831661370e57505050565b6000546001600160a01b038481166201000090920416141561378457600154604051632e1a7d4d60e01b8152600481018490526001600160a01b0390911690632e1a7d4d90602401600060405180830381600087803b15801561377057600080fd5b505af11580156118ca573d6000803e3d6000fd5b6040516370a0823160e01b815230600482015283906000906001600160a01b038316906370a0823190602401602060405180830381865afa1580156137cd573d6000803e3d6000fd5b505050506040513d601f19601f820116820180604052508101906137f191906148a2565b90506137fe828483612140565b826001600160a01b0316634a25d94a858361382e89600060029054906101000a90046001600160a01b031661236e565b30426040518663ffffffff1660e01b8152600401613850959493929190614f4c565b6000604051808303816000875af115801561386f573d6000803e3d6000fd5b505050506040513d6000823e601f3d908101601f191682016040526108a49190810190614ec7565b60006138ec826040518060400160405280602081526020017f5361666545524332303a206c6f772d6c6576656c2063616c6c206661696c6564815250856001600160a01b0316613d3a9092919063ffffffff16565b8051909150156124ee578080602001905181019061390a9190614b00565b6124ee5760405162461bcd60e51b815260206004820152602a60248201527f5361666545524332303a204552433230206f7065726174696f6e20646964206e6044820152691bdd081cdd58d8d9595960b21b6064820152608401610115565b8015806139e35750604051636eb1769f60e11b81523060048201526001600160a01b03838116602483015284169063dd62ed3e90604401602060405180830381865afa1580156139bd573d6000803e3d6000fd5b505050506040513d601f19601f820116820180604052508101906139e191906148a2565b155b613a4e5760405162461bcd60e51b815260206004820152603660248201527f5361666545524332303a20617070726f76652066726f6d206e6f6e2d7a65726f60448201527520746f206e6f6e2d7a65726f20616c6c6f77616e636560501b6064820152608401610115565b6040516001600160a01b0383166024820152604481018290526124ee90849063095ea7b360e01b90606401612109565b60608315613a8d575081611af2565b825115613a9d5782518084602001fd5b8160405162461bcd60e51b8152600401610115919061507c565b600080826001600160a01b0316846001600160a01b03161415613b285760405162461bcd60e51b815260206004820152602360248201527f50616e63616b654c6962726172793a204944454e544943414c5f41444452455360448201526253455360e81b6064820152608401610115565b826001600160a01b0316846001600160a01b031610613b48578284613b4b565b83835b90925090506001600160a01b038216613ba65760405162461bcd60e51b815260206004820152601c60248201527f50616e63616b654c6962726172793a205a45524f5f41444452455353000000006044820152606401610115565b9250929050565b6060600282511015613c015760405162461bcd60e51b815260206004820152601c60248201527f50616e63616b654c6962726172793a20494e56414c49445f50415448000000006044820152606401610115565b81516001600160401b03811115613c1a57613c1a61419a565b604051908082528060200260200182016040528015613c43578160200160208202803683370190505b509050828160018351613c56919061508f565b81518110613c6657613c666149b9565b602002602001018181525050600060018351613c82919061508f565b90505b8015611af057600080613cd58786613c9e60018761508f565b81518110613cae57613cae6149b9565b6020026020010151878681518110613cc857613cc86149b9565b6020026020010151613d51565b91509150613cfd848481518110613cee57613cee6149b9565b60200260200101518383613e86565b84613d0960018661508f565b81518110613d1957613d196149b9565b60200260200101818152505050508080613d32906150a6565b915050613c85565b6060613d498484600085613fa8565b949350505050565b6000806000613d608585613ab7565b5060405163e6a4390560e01b81526001600160a01b038781166004830152868116602483015291925060009182919089169063e6a4390590604401602060405180830381865afa158015613db8573d6000803e3d6000fd5b505050506040513d601f19601f82011682018060405250810190613ddc9190614919565b6001600160a01b0316630902f1ac6040518163ffffffff1660e01b8152600401606060405180830381865afa158015613e19573d6000803e3d6000fd5b505050506040513d601f19601f82011682018060405250810190613e3d91906150d4565b506001600160701b031691506001600160701b03169150826001600160a01b0316876001600160a01b031614613e74578082613e77565b81815b90999098509650505050505050565b6000808411613eea5760405162461bcd60e51b815260206004820152602a60248201527f50616e63616b654c6962726172793a20494e53554646494349454e545f4f555460448201526914155517d05353d5539560b21b6064820152608401610115565b600083118015613efa5750600082115b613f555760405162461bcd60e51b815260206004820152602660248201527f50616e63616b654c6962726172793a20494e53554646494349454e545f4c495160448201526555494449545960d01b6064820152608401610115565b6000613f618585614c20565b613f6d906103e8614c20565b90506000613f7b868561508f565b613f87906103e5614c20565b9050613f938183614c55565b613f9e906001614f88565b9695505050505050565b6060824710156140095760405162461bcd60e51b815260206004820152602660248201527f416464726573733a20696e73756666696369656e742062616c616e636520666f6044820152651c8818d85b1b60d21b6064820152608401610115565b6001600160a01b0385163b6140605760405162461bcd60e51b815260206004820152601d60248201527f416464726573733a2063616c6c20746f206e6f6e2d636f6e74726163740000006044820152606401610115565b600080866001600160a01b0316858760405161407c9190614fa0565b60006040518083038185875af1925050503d80600081146140b9576040519150601f19603f3d011682016040523d82523d6000602084013e6140be565b606091505b50915091506140ce828286613a7e565b979650505050505050565b8280546140e590614e13565b90600052602060002090601f016020900481019282614107576000855561414d565b82601f1061412057805160ff191683800117855561414d565b8280016001018555821561414d579182015b8281111561414d578251825591602001919060010190614132565b5061415992915061415d565b5090565b5b80821115614159576000815560010161415e565b6001600160a01b038116811461418757600080fd5b50565b803561419581614172565b919050565b634e487b7160e01b600052604160045260246000fd5b604051601f8201601f191681016001600160401b03811182821017156141d8576141d861419a565b604052919050565b60006001600160401b038211156141f9576141f961419a565b5060051b60200190565b600082601f83011261421457600080fd5b81356020614229614224836141e0565b6141b0565b82815260059290921b8401810191818101908684111561424857600080fd5b8286015b8481101561426c57803561425f81614172565b835291830191830161424c565b509695505050505050565b600082601f83011261428857600080fd5b81356001600160401b038111156142a1576142a161419a565b6142b4601f8201601f19166020016141b0565b8181528460208386010111156142c957600080fd5b816020850160208301376000918101602001919091529392505050565b600082601f8301126142f757600080fd5b81356020614307614224836141e0565b82815260059290921b8401810191818101908684111561432657600080fd5b8286015b8481101561426c5780356001600160401b038111156143495760008081fd5b6143578986838b0101614277565b84525091830191830161432a565b600080600080600080600080610100898b03121561438257600080fd5b883561438d81614172565b9750602089013561439d81614172565b965060408901356143ad81614172565b95506060890135945060808901356143c481614172565b935060a08901356143d481614172565b925060c08901356001600160401b03808211156143f057600080fd5b6143fc8c838d01614203565b935060e08b013591508082111561441257600080fd5b5061441f8b828c016142e6565b9150509295985092959890939650565b60008060008060006080868803121561444757600080fd5b853561445281614172565b9450602086013593506040860135925060608601356001600160401b038082111561447c57600080fd5b818801915088601f83011261449057600080fd5b81358181111561449f57600080fd5b8960208285010111156144b157600080fd5b9699959850939650602001949392505050565b600080600080600060a086880312156144dc57600080fd5b85356144e781614172565b945060208601356144f781614172565b9350604086013561450781614172565b9250606086013561451781614172565b915060808601356001600160401b0381111561453257600080fd5b61453e88828901614277565b9150509295509295909350565b60008060008060008060008060008060006101608c8e03121561456d57600080fd5b6145768c61418a565b9a5060208c0135995061458b60408d0161418a565b985061459960608d0161418a565b975060808c013596506145ae60a08d0161418a565b95506145bc60c08d0161418a565b94506145ca60e08d0161418a565b93506001600160401b03806101008e013511156145e657600080fd5b6145f78e6101008f01358f01614203565b9350806101208e0135111561460b57600080fd5b5061461d8d6101208e01358e016142e6565b91506101408c013590509295989b509295989b9093969950565b60008060008060008060008060006101208a8c03121561465657600080fd5b893561466181614172565b985060208a0135975060408a013561467881614172565b965061468660608b0161418a565b955060808a0135945061469b60a08b0161418a565b93506146a960c08b0161418a565b925060e08a01356001600160401b03808211156146c557600080fd5b6146d18d838e01614203565b93506101008c01359150808211156146e857600080fd5b506146f58c828d016142e6565b9150509295985092959850929598565b6000806000806080858703121561471b57600080fd5b843561472681614172565b935060208501359250604085013561473d81614172565b915060608501356001600160401b0381111561475857600080fd5b61476487828801614277565b91505092959194509250565b6000806000806000806000806000806101408b8d03121561479057600080fd5b6147998b61418a565b995060208b013598506147ae60408c0161418a565b97506147bc60608c0161418a565b965060808b013595506147d160a08c0161418a565b94506147df60c08c0161418a565b935060e08b01356001600160401b03808211156147fb57600080fd5b6148078e838f01614203565b94506101008d013591508082111561481e57600080fd5b5061482b8d828e016142e6565b9250506101208b013590509295989b9194979a5092959850565b60208082526038908201527f526570617920616d6f756e7420287472616e73616374696f6e2076616c75652960408201527f206d7573742062652067726561746572207468616e20302e0000000000000000606082015260800190565b6000602082840312156148b457600080fd5b5051919050565b602080825260409082018190527f4572726f722063616c6c696e672072656465656d696e67207365697a65642063908201527f546f6b656e3a206572726f7220636f6465206e6f7420657175616c20746f2030606082015260800190565b60006020828403121561492b57600080fd5b8151611af281614172565b6020808252605b908201527f49526564656d7074696f6e537472617465677920636f6e74726163742061727260408201527f617920616e64207374726174656779206461746120627974657320617272617960608201527f206d6e75737420746865207468652073616d65206c656e6774682e0000000000608082015260a00190565b634e487b7160e01b600052603260045260246000fd5b60005b838110156149ea5781810151838201526020016149d2565b838111156118ce5750506000910152565b60008151808452614a138160208601602086016149cf565b601f01601f19169290920160200192915050565b6001600160a01b0385811682526020820185905283166040820152608060608201819052600090613f9e908301846149fb565b60008060408385031215614a6d57600080fd5b8251614a7881614172565b6020939093015192949293505050565b634e487b7160e01b600052601160045260246000fd5b6000600019821415614ab257614ab2614a88565b5060010190565b60008085851115614ac957600080fd5b83861115614ad657600080fd5b5050820193919092039150565b600060208284031215614af557600080fd5b8135611af281614172565b600060208284031215614b1257600080fd5b81518015158114611af257600080fd5b600082601f830112614b3357600080fd5b81356020614b43614224836141e0565b82815260059290921b84018101918181019086841115614b6257600080fd5b8286015b8481101561426c578035614b7981614172565b8352918301918301614b66565b60008060008060008060008060006101208a8c031215614ba557600080fd5b8935614bb081614172565b985060208a0135975060408a0135614bc781614172565b9650614bd560608b0161418a565b955060808a01359450614bea60a08b0161418a565b9350614bf860c08b0161418a565b925060e08a01356001600160401b0380821115614c1457600080fd5b6146d18d838e01614b22565b6000816000190483118215151615614c3a57614c3a614a88565b500290565b634e487b7160e01b600052601260045260246000fd5b600082614c6457614c64614c3f565b500490565b600082614c7857614c78614c3f565b500690565b6000806000806000806000806000806101408b8d031215614c9d57600080fd5b614ca68b61418a565b995060208b01359850614cbb60408c0161418a565b9750614cc960608c0161418a565b965060808b01359550614cde60a08c0161418a565b9450614cec60c08c0161418a565b9350614cfa60e08c0161418a565b92506101008b01356001600160401b0380821115614d1757600080fd5b614d238e838f01614b22565b93506101208d0135915080821115614d3a57600080fd5b50614d478d828e016142e6565b9150509295989b9194979a5092959850565b60208082526024908201527f526570617920616d6f756e74206d7573742062652067726561746572207468616040820152633710181760e11b606082015260800190565b858152602081018590526001600160a01b03841660408201526080606082018190528101829052818360a0830137600081830160a090810191909152601f909201601f19160101949350505050565b60018060a01b03841681528260208201526060604082015260006122da60608301846149fb565b600181811c90821680614e2757607f821691505b60208210811415614e4857634e487b7160e01b600052602260045260246000fd5b50919050565b600081518084526020808501945080840160005b83811015614e875781516001600160a01b031687529582019590820190600101614e62565b509495945050505050565b848152608060208201526000614eab6080830186614e4e565b6001600160a01b03949094166040830152506060015292915050565b60006020808385031215614eda57600080fd5b82516001600160401b03811115614ef057600080fd5b8301601f81018513614f0157600080fd5b8051614f0f614224826141e0565b81815260059190911b82018301908381019087831115614f2e57600080fd5b928401925b828410156140ce57835182529284019290840190614f33565b85815284602082015260a060408201526000614f6b60a0830186614e4e565b6001600160a01b0394909416606083015250608001529392505050565b60008219821115614f9b57614f9b614a88565b500190565b60008251614fb28184602087016149cf565b9190910192915050565b60ff60f81b81526bffffffffffffffffffffffff198460601b16600182015282601582015260008251614ff68160358501602087016149cf565b91909101603501949350505050565b60208082526051908201527f4661696c656420746f20726570617920556e697377617020666c6173686c6f6160408201527f6e207769746820575f4e41544956452065786368616e6765642066726f6d207360608201527032b4bd32b21031b7b63630ba32b930b61760791b608082015260a00190565b602081526000611af260208301846149fb565b6000828210156150a1576150a1614a88565b500390565b6000816150b5576150b5614a88565b506000190190565b80516001600160701b038116811461419557600080fd5b6000806000606084860312156150e957600080fd5b6150f2846150bd565b9250615100602085016150bd565b9150604084015163ffffffff8116811461511957600080fd5b80915050925092509256fe416464726573733a206c6f772d6c6576656c2064656c65676174652063616c6c206661696c6564a2646970667358221220b6651ea9c1d656186676f5ccd7bd2ac76d8cd68c2118cdd8c5aceb468ec9dd5064736f6c634300080b0033",
  "devdoc": {
    "author": "David Lucid <david@rari.capital> (https://github.com/davidlucid)",
    "details": "Do not transfer NATIVE or tokens directly to this address. Only send NATIVE here when using a method, and only approve tokens for transfer to here when using a method. Direct NATIVE transfers will be rejected and direct token transfers will be lost.",
    "kind": "dev",
    "methods": {
      "redeemCustomCollateral(address,uint256,address,bytes)": {
        "details": "Redeem \"special\" collateral tokens (before swapping the output for borrowed tokens to be repaid via Uniswap). Public visibility because we have to call this function externally if called from a payable FuseSafeLiquidator function (for some reason delegatecall fails when called with msg.value > 0)."
      },
      "safeLiquidate(address,address,address,uint256,address,address,address[],bytes[])": {
        "params": {
          "borrower": "The borrower's Ethereum address.",
          "cErc20Collateral": "The cErc20 collateral contract to be liquidated.",
          "cEther": "The borrowed cEther contract to repay.",
          "exchangeSeizedTo": "If set to an address other than `cTokenCollateral`, exchange seized collateral to this ERC20 token contract address (or the zero address for NATIVE).",
          "minOutputAmount": "The minimum amount of collateral to seize (or the minimum exchange output if applicable) required for execution. Reverts if this condition is not met.",
          "redemptionStrategies": "The IRedemptionStrategy contracts to use, if any, to redeem \"special\" collateral tokens (before swapping the output for borrowed tokens to be repaid via Uniswap).",
          "strategyData": "The data for the chosen IRedemptionStrategy contracts, if any.",
          "uniswapV2Router": "The UniswapV2Router to use to convert the seized underlying collateral."
        }
      },
      "safeLiquidate(address,uint256,address,address,uint256,address,address,address[],bytes[])": {
        "params": {
          "borrower": "The borrower's Ethereum address.",
          "cErc20": "The borrowed cErc20 to repay.",
          "cTokenCollateral": "The cToken collateral to be liquidated.",
          "exchangeSeizedTo": "If set to an address other than `cTokenCollateral`, exchange seized collateral to this ERC20 token contract address (or the zero address for NATIVE).",
          "minOutputAmount": "The minimum amount of collateral to seize (or the minimum exchange output if applicable) required for execution. Reverts if this condition is not met.",
          "redemptionStrategies": "The IRedemptionStrategy contracts to use, if any, to redeem \"special\" collateral tokens (before swapping the output for borrowed tokens to be repaid via Uniswap).",
          "repayAmount": "The amount to repay to liquidate the unhealthy loan.",
          "strategyData": "The data for the chosen IRedemptionStrategy contracts, if any.",
          "uniswapV2Router": "The UniswapV2Router to use to convert the seized underlying collateral."
        }
      },
      "safeLiquidateToEthWithFlashLoan(address,uint256,address,address,uint256,address,address,address[],bytes[],uint256)": {
        "params": {
          "borrower": "The borrower's Ethereum address.",
          "cErc20Collateral": "The CErc20 collateral contract to be liquidated.",
          "cEther": "The borrowed CEther contract to repay.",
          "exchangeProfitTo": "If set to an address other than `cErc20Collateral`, exchange seized collateral to this ERC20 token contract address (or the zero address for NATIVE).",
          "minProfitAmount": "The minimum amount of profit required for execution (in terms of `exchangeProfitTo`). Reverts if this condition is not met.",
          "redemptionStrategies": "The IRedemptionStrategy contracts to use, if any, to redeem \"special\" collateral tokens (before swapping the output for borrowed tokens to be repaid via Uniswap).",
          "repayAmount": "The NATIVE amount to repay to liquidate the unhealthy loan.",
          "strategyData": "The data for the chosen IRedemptionStrategy contracts, if any.",
          "uniswapV2RouterForCollateral": "The UniswapV2Router to use to convert the underlying collateral to NATIVE."
        }
      },
      "safeLiquidateToTokensWithFlashLoan(address,uint256,address,address,uint256,address,address,address,address[],bytes[],uint256)": {
        "params": {
          "borrower": "The borrower's Ethereum address.",
          "cErc20": "The borrowed CErc20 contract to repay.",
          "cTokenCollateral": "The cToken collateral contract to be liquidated.",
          "exchangeProfitTo": "If set to an address other than `cTokenCollateral`, exchange seized collateral to this ERC20 token contract address (or the zero address for NATIVE).",
          "minProfitAmount": "The minimum amount of profit required for execution (in terms of `exchangeProfitTo`). Reverts if this condition is not met.",
          "redemptionStrategies": "The IRedemptionStrategy contracts to use, if any, to redeem \"special\" collateral tokens (before swapping the output for borrowed tokens to be repaid via Uniswap).",
          "repayAmount": "The amount to repay to liquidate the unhealthy loan.",
          "strategyData": "The data for the chosen IRedemptionStrategy contracts, if any.",
          "uniswapV2RouterForBorrow": "The UniswapV2Router to use to convert the NATIVE to the underlying borrow (and flashloan the underlying borrow for NATIVE).",
          "uniswapV2RouterForCollateral": "The UniswapV2Router to use to convert the underlying collateral to NATIVE."
        }
      },
      "uniswapV2Call(address,uint256,uint256,bytes)": {
        "details": "Callback function for Uniswap flashloans."
      }
    },
    "stateVariables": {
      "BTC_TOKEN": {
        "details": "Wrapped BTC token to use for flash loans"
      },
      "PAIR_INIT_HASH_CODE": {
        "details": "Wrapped BTC token to use for flash loans"
      },
      "STABLE_TOKEN": {
        "details": "Stable token to use for flash loans"
      },
      "UNISWAP_V2_ROUTER_02": {
        "details": "UniswapV2Router02 contract object."
      },
      "UNISWAP_V2_ROUTER_02_ADDRESS": {
        "details": "UniswapV2Router02 contract address."
      },
      "W_NATIVE": {
        "details": "W_NATIVE contract object."
      },
      "W_NATIVE_ADDRESS": {
        "details": "W_NATIVE contract address."
      },
      "_liquidatorProfitExchangeSource": {
        "details": "Cached liquidator profit exchange source. ERC20 token address or the zero address for NATIVE. For use in `safeLiquidateToTokensWithFlashLoan`/`safeLiquidateToEthWithFlashLoan` after it is set by `postFlashLoanTokens`/`postFlashLoanWeth`."
      }
    },
    "title": "FuseSafeLiquidator",
    "version": 1
  },
  "userdoc": {
    "kind": "user",
    "methods": {
      "safeLiquidate(address,address,address,uint256,address,address,address[],bytes[])": {
        "notice": "Safely liquidate an unhealthy loan (using capital from the sender), confirming that at least `minOutputAmount` in collateral is seized (or outputted by exchange if applicable)."
      },
      "safeLiquidate(address,uint256,address,address,uint256,address,address,address[],bytes[])": {
        "notice": "Safely liquidate an unhealthy loan (using capital from the sender), confirming that at least `minOutputAmount` in collateral is seized (or outputted by exchange if applicable)."
      },
      "safeLiquidateToEthWithFlashLoan(address,uint256,address,address,uint256,address,address,address[],bytes[],uint256)": {
        "notice": "Safely liquidate an unhealthy loan, confirming that at least `minProfitAmount` in NATIVE profit is seized."
      },
      "safeLiquidateToTokensWithFlashLoan(address,uint256,address,address,uint256,address,address,address,address[],bytes[],uint256)": {
        "notice": "Safely liquidate an unhealthy loan, confirming that at least `minProfitAmount` in NATIVE profit is seized."
      }
    },
    "notice": "FuseSafeLiquidator safely liquidates unhealthy borrowers (with flashloan support).",
    "version": 1
  },
  "storageLayout": {
    "storage": [
      {
        "astId": 210,
        "contract": "contracts/FuseSafeLiquidator.sol:FuseSafeLiquidator",
        "label": "_initialized",
        "offset": 0,
        "slot": "0",
        "type": "t_bool"
      },
      {
        "astId": 213,
        "contract": "contracts/FuseSafeLiquidator.sol:FuseSafeLiquidator",
        "label": "_initializing",
        "offset": 1,
        "slot": "0",
        "type": "t_bool"
      },
      {
        "astId": 7290,
        "contract": "contracts/FuseSafeLiquidator.sol:FuseSafeLiquidator",
        "label": "W_NATIVE_ADDRESS",
        "offset": 2,
        "slot": "0",
        "type": "t_address"
      },
      {
        "astId": 7294,
        "contract": "contracts/FuseSafeLiquidator.sol:FuseSafeLiquidator",
        "label": "W_NATIVE",
        "offset": 0,
        "slot": "1",
        "type": "t_contract(IW_NATIVE)31635"
      },
      {
        "astId": 7297,
        "contract": "contracts/FuseSafeLiquidator.sol:FuseSafeLiquidator",
        "label": "UNISWAP_V2_ROUTER_02_ADDRESS",
        "offset": 0,
        "slot": "2",
        "type": "t_address"
      },
      {
        "astId": 7300,
        "contract": "contracts/FuseSafeLiquidator.sol:FuseSafeLiquidator",
        "label": "STABLE_TOKEN",
        "offset": 0,
        "slot": "3",
        "type": "t_address"
      },
      {
        "astId": 7303,
        "contract": "contracts/FuseSafeLiquidator.sol:FuseSafeLiquidator",
        "label": "BTC_TOKEN",
        "offset": 0,
        "slot": "4",
        "type": "t_address"
      },
      {
        "astId": 7306,
        "contract": "contracts/FuseSafeLiquidator.sol:FuseSafeLiquidator",
        "label": "PAIR_INIT_HASH_CODE",
        "offset": 0,
        "slot": "5",
        "type": "t_bytes_storage"
      },
      {
        "astId": 7310,
        "contract": "contracts/FuseSafeLiquidator.sol:FuseSafeLiquidator",
        "label": "UNISWAP_V2_ROUTER_02",
        "offset": 0,
        "slot": "6",
        "type": "t_contract(IUniswapV2Router02)35531"
      },
      {
        "astId": 7313,
        "contract": "contracts/FuseSafeLiquidator.sol:FuseSafeLiquidator",
        "label": "_liquidatorProfitExchangeSource",
        "offset": 0,
        "slot": "7",
        "type": "t_address"
      }
    ],
    "types": {
      "t_address": {
        "encoding": "inplace",
        "label": "address",
        "numberOfBytes": "20"
      },
      "t_bool": {
        "encoding": "inplace",
        "label": "bool",
        "numberOfBytes": "1"
      },
      "t_bytes_storage": {
        "encoding": "bytes",
        "label": "bytes",
        "numberOfBytes": "32"
      },
      "t_contract(IUniswapV2Router02)35531": {
        "encoding": "inplace",
        "label": "contract IUniswapV2Router02",
        "numberOfBytes": "20"
      },
      "t_contract(IW_NATIVE)31635": {
        "encoding": "inplace",
        "label": "contract IW_NATIVE",
        "numberOfBytes": "20"
      }
    }
  }
}