{
  "address": "0xFB5dd132a00FB77B1245dC2fD807017a95f78D10",
  "abi": [
    {
      "anonymous": false,
      "inputs": [
        {
          "indexed": false,
          "internalType": "string",
          "name": "id",
          "type": "string"
        },
        {
          "indexed": true,
          "internalType": "address",
          "name": "newAddress",
          "type": "address"
        }
      ],
      "name": "AddressSet",
      "type": "event"
    },
    {
      "anonymous": false,
      "inputs": [
        {
          "indexed": false,
          "internalType": "uint8",
          "name": "version",
          "type": "uint8"
        }
      ],
      "name": "Initialized",
      "type": "event"
    },
    {
      "anonymous": false,
      "inputs": [
        {
          "indexed": true,
          "internalType": "address",
          "name": "previousOwner",
          "type": "address"
        },
        {
          "indexed": true,
          "internalType": "address",
          "name": "newOwner",
          "type": "address"
        }
      ],
      "name": "OwnershipTransferred",
      "type": "event"
    },
    {
      "inputs": [
        {
          "internalType": "address",
          "name": "",
          "type": "address"
        }
      ],
      "name": "flywheelRewards",
      "outputs": [
        {
          "internalType": "address",
          "name": "addr",
          "type": "address"
        },
        {
          "internalType": "string",
          "name": "contractInterface",
          "type": "string"
        }
      ],
      "stateMutability": "view",
      "type": "function"
    },
    {
      "inputs": [
        {
          "internalType": "string",
          "name": "id",
          "type": "string"
        }
      ],
      "name": "getAddress",
      "outputs": [
        {
          "internalType": "address",
          "name": "",
          "type": "address"
        }
      ],
      "stateMutability": "view",
      "type": "function"
    },
    {
      "inputs": [
        {
          "internalType": "address",
          "name": "owner",
          "type": "address"
        }
      ],
      "name": "initialize",
      "outputs": [],
      "stateMutability": "nonpayable",
      "type": "function"
    },
    {
      "inputs": [],
      "name": "owner",
      "outputs": [
        {
          "internalType": "address",
          "name": "",
          "type": "address"
        }
      ],
      "stateMutability": "view",
      "type": "function"
    },
    {
      "inputs": [
        {
          "internalType": "address",
          "name": "",
          "type": "address"
        }
      ],
      "name": "plugins",
      "outputs": [
        {
          "internalType": "address",
          "name": "addr",
          "type": "address"
        },
        {
          "internalType": "string",
          "name": "contractInterface",
          "type": "string"
        }
      ],
      "stateMutability": "view",
      "type": "function"
    },
    {
      "inputs": [],
      "name": "renounceOwnership",
      "outputs": [],
      "stateMutability": "nonpayable",
      "type": "function"
    },
    {
      "inputs": [
        {
          "internalType": "string",
          "name": "id",
          "type": "string"
        },
        {
          "internalType": "address",
          "name": "newAddress",
          "type": "address"
        }
      ],
      "name": "setAddress",
      "outputs": [],
      "stateMutability": "nonpayable",
      "type": "function"
    },
    {
      "inputs": [
        {
          "internalType": "address",
          "name": "rewardToken",
          "type": "address"
        },
        {
          "internalType": "address",
          "name": "flywheelRewardsModule",
          "type": "address"
        },
        {
          "internalType": "string",
          "name": "contractInterface",
          "type": "string"
        }
      ],
      "name": "setFlywheelRewards",
      "outputs": [],
      "stateMutability": "nonpayable",
      "type": "function"
    },
    {
      "inputs": [
        {
          "internalType": "address",
          "name": "asset",
          "type": "address"
        },
        {
          "internalType": "address",
          "name": "plugin",
          "type": "address"
        },
        {
          "internalType": "string",
          "name": "contractInterface",
          "type": "string"
        }
      ],
      "name": "setPlugin",
      "outputs": [],
      "stateMutability": "nonpayable",
      "type": "function"
    },
    {
      "inputs": [
        {
          "internalType": "address",
          "name": "newOwner",
          "type": "address"
        }
      ],
      "name": "transferOwnership",
      "outputs": [],
      "stateMutability": "nonpayable",
      "type": "function"
    }
  ],
  "transactionHash": "0x20debebafe35f21b1d42fbae119b40943610f80a9f46291ad8b26275b3b4d65f",
  "args": [],
  "numDeployments": 2,
  "bytecode": {
    "object": "0x608060405234801561001057600080fd5b50610a67806100206000396000f3fe608060405234801561001057600080fd5b506004361061009e5760003560e01c80639b2ea4bd116100665780639b2ea4bd14610122578063a11b73a614610135578063bf40fac114610148578063c4d66de81461015b578063f2fde38b1461016e57600080fd5b80634172e7f9146100a35780634b12e643146100cd578063715018a6146100e057806381bc3632146100ea5780638da5cb5b146100fd575b600080fd5b6100b66100b13660046107ce565b610181565b6040516100c49291906107f0565b60405180910390f35b6100b66100db3660046107ce565b610230565b6100e861025c565b005b6100e86100f836600461089e565b610270565b6033546001600160a01b03165b6040516001600160a01b0390911681526020016100c4565b6100e86101303660046108ff565b61031c565b6100e861014336600461089e565b6103a2565b61010a610156366004610953565b610445565b6100e86101693660046107ce565b61047a565b6100e861017c3660046107ce565b61059a565b606660205260009081526040902080546001820180546001600160a01b0390921692916101ad90610995565b80601f01602080910402602001604051908101604052809291908181526020018280546101d990610995565b80156102265780601f106101fb57610100808354040283529160200191610226565b820191906000526020600020905b81548152906001019060200180831161020957829003601f168201915b5050505050905082565b606760205260009081526040902080546001820180546001600160a01b0390921692916101ad90610995565b610264610613565b61026e600061066d565b565b610278610613565b6040518060400160405280846001600160a01b0316815260200183838080601f01602080910402602001604051908101604052809392919081815260200183838082843760009201829052509390945250506001600160a01b038781168252606760209081526040909220845181546001600160a01b0319169216919091178155838201518051919350610313926001850192910190610719565b50505050505050565b610324610613565b80606584846040516103379291906109d0565b90815260405190819003602001812080546001600160a01b039384166001600160a01b0319909116179055908216907f188466739ff00cc68bfb2367d23ae4b855264264fe1624caa8884399af23454c9061039590869086906109e0565b60405180910390a2505050565b6103aa610613565b6040518060400160405280846001600160a01b0316815260200183838080601f01602080910402602001604051908101604052809392919081815260200183838082843760009201829052509390945250506001600160a01b038781168252606660209081526040909220845181546001600160a01b0319169216919091178155838201518051919350610313926001850192910190610719565b6000606583836040516104599291906109d0565b908152604051908190036020019020546001600160a01b0316905092915050565b600054610100900460ff161580801561049a5750600054600160ff909116105b806104b45750303b1580156104b4575060005460ff166001145b61051c5760405162461bcd60e51b815260206004820152602e60248201527f496e697469616c697a61626c653a20636f6e747261637420697320616c72656160448201526d191e481a5b9a5d1a585b1a5e995960921b60648201526084015b60405180910390fd5b6000805460ff19166001179055801561053f576000805461ff0019166101001790555b6105476106bf565b6105508261066d565b8015610596576000805461ff0019169055604051600181527f7f26b83ff96e1f2b6a682f133852f6798a09c465da95921460cefb38474024989060200160405180910390a15b5050565b6105a2610613565b6001600160a01b0381166106075760405162461bcd60e51b815260206004820152602660248201527f4f776e61626c653a206e6577206f776e657220697320746865207a65726f206160448201526564647265737360d01b6064820152608401610513565b6106108161066d565b50565b6033546001600160a01b0316331461026e5760405162461bcd60e51b815260206004820181905260248201527f4f776e61626c653a2063616c6c6572206973206e6f7420746865206f776e65726044820152606401610513565b603380546001600160a01b038381166001600160a01b0319831681179093556040519116919082907f8be0079c531659141344cd1fd0a4f28419497f9722a3daafe3b4186f6b6457e090600090a35050565b600054610100900460ff166106e65760405162461bcd60e51b815260040161051390610a0f565b61026e600054610100900460ff166107105760405162461bcd60e51b815260040161051390610a0f565b61026e3361066d565b82805461072590610995565b90600052602060002090601f016020900481019282610747576000855561078d565b82601f1061076057805160ff191683800117855561078d565b8280016001018555821561078d579182015b8281111561078d578251825591602001919060010190610772565b5061079992915061079d565b5090565b5b80821115610799576000815560010161079e565b80356001600160a01b03811681146107c957600080fd5b919050565b6000602082840312156107e057600080fd5b6107e9826107b2565b9392505050565b60018060a01b038316815260006020604081840152835180604085015260005b8181101561082c57858101830151858201606001528201610810565b8181111561083e576000606083870101525b50601f01601f191692909201606001949350505050565b60008083601f84011261086757600080fd5b50813567ffffffffffffffff81111561087f57600080fd5b60208301915083602082850101111561089757600080fd5b9250929050565b600080600080606085870312156108b457600080fd5b6108bd856107b2565b93506108cb602086016107b2565b9250604085013567ffffffffffffffff8111156108e757600080fd5b6108f387828801610855565b95989497509550505050565b60008060006040848603121561091457600080fd5b833567ffffffffffffffff81111561092b57600080fd5b61093786828701610855565b909450925061094a9050602085016107b2565b90509250925092565b6000806020838503121561096657600080fd5b823567ffffffffffffffff81111561097d57600080fd5b61098985828601610855565b90969095509350505050565b600181811c908216806109a957607f821691505b602082108114156109ca57634e487b7160e01b600052602260045260246000fd5b50919050565b8183823760009101908152919050565b60208152816020820152818360408301376000818301604090810191909152601f909201601f19160101919050565b6020808252602b908201527f496e697469616c697a61626c653a20636f6e7472616374206973206e6f74206960408201526a6e697469616c697a696e6760a81b60608201526080019056fea164736f6c634300080a000a",
    "linkReferences": {}
  },
  "methodIdentifiers": {
    "flywheelRewards(address)": "4172e7f9",
    "getAddress(string)": "bf40fac1",
    "initialize(address)": "c4d66de8",
    "owner()": "8da5cb5b",
    "plugins(address)": "4b12e643",
    "renounceOwnership()": "715018a6",
    "setAddress(string,address)": "9b2ea4bd",
    "setFlywheelRewards(address,address,string)": "a11b73a6",
    "setPlugin(address,address,string)": "81bc3632",
    "transferOwnership(address)": "f2fde38b"
  }
}