{
  "address": "0xC167A896a28599e9AB211E5573c6A5b1953E32a0",
  "abi": [
    {
      "inputs": [
        {
          "internalType": "contract ERC20",
          "name": "_asset",
          "type": "address"
        },
        {
          "internalType": "contract IAlpacaVault",
          "name": "_alpacaVault",
          "type": "address"
        },
        {
          "internalType": "contract IW_NATIVE",
          "name": "_wtoken",
          "type": "address"
        }
      ],
      "stateMutability": "nonpayable",
      "type": "constructor"
    },
    {
      "anonymous": false,
      "inputs": [
        {
          "indexed": true,
          "internalType": "address",
          "name": "owner",
          "type": "address"
        },
        {
          "indexed": true,
          "internalType": "address",
          "name": "spender",
          "type": "address"
        },
        {
          "indexed": false,
          "internalType": "uint256",
          "name": "amount",
          "type": "uint256"
        }
      ],
      "name": "Approval",
      "type": "event"
    },
    {
      "anonymous": false,
      "inputs": [
        {
          "indexed": true,
          "internalType": "address",
          "name": "caller",
          "type": "address"
        },
        {
          "indexed": true,
          "internalType": "address",
          "name": "owner",
          "type": "address"
        },
        {
          "indexed": false,
          "internalType": "uint256",
          "name": "assets",
          "type": "uint256"
        },
        {
          "indexed": false,
          "internalType": "uint256",
          "name": "shares",
          "type": "uint256"
        }
      ],
      "name": "Deposit",
      "type": "event"
    },
    {
      "anonymous": false,
      "inputs": [
        {
          "indexed": true,
          "internalType": "address",
          "name": "previousOwner",
          "type": "address"
        },
        {
          "indexed": true,
          "internalType": "address",
          "name": "newOwner",
          "type": "address"
        }
      ],
      "name": "OwnershipTransferred",
      "type": "event"
    },
    {
      "anonymous": false,
      "inputs": [
        {
          "indexed": false,
          "internalType": "address",
          "name": "account",
          "type": "address"
        }
      ],
      "name": "Paused",
      "type": "event"
    },
    {
      "anonymous": false,
      "inputs": [
        {
          "indexed": true,
          "internalType": "address",
          "name": "from",
          "type": "address"
        },
        {
          "indexed": true,
          "internalType": "address",
          "name": "to",
          "type": "address"
        },
        {
          "indexed": false,
          "internalType": "uint256",
          "name": "amount",
          "type": "uint256"
        }
      ],
      "name": "Transfer",
      "type": "event"
    },
    {
      "anonymous": false,
      "inputs": [
        {
          "indexed": false,
          "internalType": "address",
          "name": "account",
          "type": "address"
        }
      ],
      "name": "Unpaused",
      "type": "event"
    },
    {
      "anonymous": false,
      "inputs": [
        {
          "indexed": true,
          "internalType": "address",
          "name": "caller",
          "type": "address"
        },
        {
          "indexed": true,
          "internalType": "address",
          "name": "receiver",
          "type": "address"
        },
        {
          "indexed": true,
          "internalType": "address",
          "name": "owner",
          "type": "address"
        },
        {
          "indexed": false,
          "internalType": "uint256",
          "name": "assets",
          "type": "uint256"
        },
        {
          "indexed": false,
          "internalType": "uint256",
          "name": "shares",
          "type": "uint256"
        }
      ],
      "name": "Withdraw",
      "type": "event"
    },
    {
      "inputs": [],
      "name": "DOMAIN_SEPARATOR",
      "outputs": [
        {
          "internalType": "bytes32",
          "name": "",
          "type": "bytes32"
        }
      ],
      "stateMutability": "view",
      "type": "function"
    },
    {
      "inputs": [
        {
          "internalType": "address",
          "name": "",
          "type": "address"
        },
        {
          "internalType": "address",
          "name": "",
          "type": "address"
        }
      ],
      "name": "allowance",
      "outputs": [
        {
          "internalType": "uint256",
          "name": "",
          "type": "uint256"
        }
      ],
      "stateMutability": "view",
      "type": "function"
    },
    {
      "inputs": [],
      "name": "alpacaVault",
      "outputs": [
        {
          "internalType": "contract IAlpacaVault",
          "name": "",
          "type": "address"
        }
      ],
      "stateMutability": "view",
      "type": "function"
    },
    {
      "inputs": [
        {
          "internalType": "address",
          "name": "spender",
          "type": "address"
        },
        {
          "internalType": "uint256",
          "name": "amount",
          "type": "uint256"
        }
      ],
      "name": "approve",
      "outputs": [
        {
          "internalType": "bool",
          "name": "",
          "type": "bool"
        }
      ],
      "stateMutability": "nonpayable",
      "type": "function"
    },
    {
      "inputs": [],
      "name": "asset",
      "outputs": [
        {
          "internalType": "contract ERC20",
          "name": "",
          "type": "address"
        }
      ],
      "stateMutability": "view",
      "type": "function"
    },
    {
      "inputs": [
        {
          "internalType": "address",
          "name": "",
          "type": "address"
        }
      ],
      "name": "balanceOf",
      "outputs": [
        {
          "internalType": "uint256",
          "name": "",
          "type": "uint256"
        }
      ],
      "stateMutability": "view",
      "type": "function"
    },
    {
      "inputs": [
        {
          "internalType": "address",
          "name": "account",
          "type": "address"
        }
      ],
      "name": "balanceOfUnderlying",
      "outputs": [
        {
          "internalType": "uint256",
          "name": "",
          "type": "uint256"
        }
      ],
      "stateMutability": "view",
      "type": "function"
    },
    {
      "inputs": [
        {
          "internalType": "uint256",
          "name": "shares",
          "type": "uint256"
        }
      ],
      "name": "convertToAlpacaVaultShares",
      "outputs": [
        {
          "internalType": "uint256",
          "name": "",
          "type": "uint256"
        }
      ],
      "stateMutability": "nonpayable",
      "type": "function"
    },
    {
      "inputs": [
        {
          "internalType": "uint256",
          "name": "shares",
          "type": "uint256"
        }
      ],
      "name": "convertToAssets",
      "outputs": [
        {
          "internalType": "uint256",
          "name": "",
          "type": "uint256"
        }
      ],
      "stateMutability": "view",
      "type": "function"
    },
    {
      "inputs": [
        {
          "internalType": "uint256",
          "name": "assets",
          "type": "uint256"
        }
      ],
      "name": "convertToShares",
      "outputs": [
        {
          "internalType": "uint256",
          "name": "",
          "type": "uint256"
        }
      ],
      "stateMutability": "view",
      "type": "function"
    },
    {
      "inputs": [],
      "name": "decimals",
      "outputs": [
        {
          "internalType": "uint8",
          "name": "",
          "type": "uint8"
        }
      ],
      "stateMutability": "view",
      "type": "function"
    },
    {
      "inputs": [
        {
          "internalType": "uint256",
          "name": "assets",
          "type": "uint256"
        },
        {
          "internalType": "address",
          "name": "receiver",
          "type": "address"
        }
      ],
      "name": "deposit",
      "outputs": [
        {
          "internalType": "uint256",
          "name": "shares",
          "type": "uint256"
        }
      ],
      "stateMutability": "nonpayable",
      "type": "function"
    },
    {
      "inputs": [],
      "name": "emergencyWithdrawAndPause",
      "outputs": [],
      "stateMutability": "nonpayable",
      "type": "function"
    },
    {
      "inputs": [
        {
          "internalType": "address",
          "name": "",
          "type": "address"
        }
      ],
      "name": "maxDeposit",
      "outputs": [
        {
          "internalType": "uint256",
          "name": "",
          "type": "uint256"
        }
      ],
      "stateMutability": "view",
      "type": "function"
    },
    {
      "inputs": [
        {
          "internalType": "address",
          "name": "",
          "type": "address"
        }
      ],
      "name": "maxMint",
      "outputs": [
        {
          "internalType": "uint256",
          "name": "",
          "type": "uint256"
        }
      ],
      "stateMutability": "view",
      "type": "function"
    },
    {
      "inputs": [
        {
          "internalType": "address",
          "name": "owner",
          "type": "address"
        }
      ],
      "name": "maxRedeem",
      "outputs": [
        {
          "internalType": "uint256",
          "name": "",
          "type": "uint256"
        }
      ],
      "stateMutability": "view",
      "type": "function"
    },
    {
      "inputs": [
        {
          "internalType": "address",
          "name": "owner",
          "type": "address"
        }
      ],
      "name": "maxWithdraw",
      "outputs": [
        {
          "internalType": "uint256",
          "name": "",
          "type": "uint256"
        }
      ],
      "stateMutability": "view",
      "type": "function"
    },
    {
      "inputs": [
        {
          "internalType": "uint256",
          "name": "shares",
          "type": "uint256"
        },
        {
          "internalType": "address",
          "name": "receiver",
          "type": "address"
        }
      ],
      "name": "mint",
      "outputs": [
        {
          "internalType": "uint256",
          "name": "assets",
          "type": "uint256"
        }
      ],
      "stateMutability": "nonpayable",
      "type": "function"
    },
    {
      "inputs": [],
      "name": "name",
      "outputs": [
        {
          "internalType": "string",
          "name": "",
          "type": "string"
        }
      ],
      "stateMutability": "view",
      "type": "function"
    },
    {
      "inputs": [
        {
          "internalType": "address",
          "name": "",
          "type": "address"
        }
      ],
      "name": "nonces",
      "outputs": [
        {
          "internalType": "uint256",
          "name": "",
          "type": "uint256"
        }
      ],
      "stateMutability": "view",
      "type": "function"
    },
    {
      "inputs": [],
      "name": "owner",
      "outputs": [
        {
          "internalType": "address",
          "name": "",
          "type": "address"
        }
      ],
      "stateMutability": "view",
      "type": "function"
    },
    {
      "inputs": [],
      "name": "paused",
      "outputs": [
        {
          "internalType": "bool",
          "name": "",
          "type": "bool"
        }
      ],
      "stateMutability": "view",
      "type": "function"
    },
    {
      "inputs": [
        {
          "internalType": "address",
          "name": "owner",
          "type": "address"
        },
        {
          "internalType": "address",
          "name": "spender",
          "type": "address"
        },
        {
          "internalType": "uint256",
          "name": "value",
          "type": "uint256"
        },
        {
          "internalType": "uint256",
          "name": "deadline",
          "type": "uint256"
        },
        {
          "internalType": "uint8",
          "name": "v",
          "type": "uint8"
        },
        {
          "internalType": "bytes32",
          "name": "r",
          "type": "bytes32"
        },
        {
          "internalType": "bytes32",
          "name": "s",
          "type": "bytes32"
        }
      ],
      "name": "permit",
      "outputs": [],
      "stateMutability": "nonpayable",
      "type": "function"
    },
    {
      "inputs": [
        {
          "internalType": "uint256",
          "name": "assets",
          "type": "uint256"
        }
      ],
      "name": "previewDeposit",
      "outputs": [
        {
          "internalType": "uint256",
          "name": "",
          "type": "uint256"
        }
      ],
      "stateMutability": "view",
      "type": "function"
    },
    {
      "inputs": [
        {
          "internalType": "uint256",
          "name": "shares",
          "type": "uint256"
        }
      ],
      "name": "previewMint",
      "outputs": [
        {
          "internalType": "uint256",
          "name": "",
          "type": "uint256"
        }
      ],
      "stateMutability": "view",
      "type": "function"
    },
    {
      "inputs": [
        {
          "internalType": "uint256",
          "name": "shares",
          "type": "uint256"
        }
      ],
      "name": "previewRedeem",
      "outputs": [
        {
          "internalType": "uint256",
          "name": "",
          "type": "uint256"
        }
      ],
      "stateMutability": "view",
      "type": "function"
    },
    {
      "inputs": [
        {
          "internalType": "uint256",
          "name": "assets",
          "type": "uint256"
        }
      ],
      "name": "previewWithdraw",
      "outputs": [
        {
          "internalType": "uint256",
          "name": "",
          "type": "uint256"
        }
      ],
      "stateMutability": "view",
      "type": "function"
    },
    {
      "inputs": [
        {
          "internalType": "uint256",
          "name": "shares",
          "type": "uint256"
        },
        {
          "internalType": "address",
          "name": "receiver",
          "type": "address"
        },
        {
          "internalType": "address",
          "name": "owner",
          "type": "address"
        }
      ],
      "name": "redeem",
      "outputs": [
        {
          "internalType": "uint256",
          "name": "assets",
          "type": "uint256"
        }
      ],
      "stateMutability": "nonpayable",
      "type": "function"
    },
    {
      "inputs": [],
      "name": "renounceOwnership",
      "outputs": [],
      "stateMutability": "nonpayable",
      "type": "function"
    },
    {
      "inputs": [],
      "name": "symbol",
      "outputs": [
        {
          "internalType": "string",
          "name": "",
          "type": "string"
        }
      ],
      "stateMutability": "view",
      "type": "function"
    },
    {
      "inputs": [],
      "name": "totalAssets",
      "outputs": [
        {
          "internalType": "uint256",
          "name": "",
          "type": "uint256"
        }
      ],
      "stateMutability": "view",
      "type": "function"
    },
    {
      "inputs": [],
      "name": "totalSupply",
      "outputs": [
        {
          "internalType": "uint256",
          "name": "",
          "type": "uint256"
        }
      ],
      "stateMutability": "view",
      "type": "function"
    },
    {
      "inputs": [
        {
          "internalType": "address",
          "name": "to",
          "type": "address"
        },
        {
          "internalType": "uint256",
          "name": "amount",
          "type": "uint256"
        }
      ],
      "name": "transfer",
      "outputs": [
        {
          "internalType": "bool",
          "name": "",
          "type": "bool"
        }
      ],
      "stateMutability": "nonpayable",
      "type": "function"
    },
    {
      "inputs": [
        {
          "internalType": "address",
          "name": "from",
          "type": "address"
        },
        {
          "internalType": "address",
          "name": "to",
          "type": "address"
        },
        {
          "internalType": "uint256",
          "name": "amount",
          "type": "uint256"
        }
      ],
      "name": "transferFrom",
      "outputs": [
        {
          "internalType": "bool",
          "name": "",
          "type": "bool"
        }
      ],
      "stateMutability": "nonpayable",
      "type": "function"
    },
    {
      "inputs": [
        {
          "internalType": "address",
          "name": "newOwner",
          "type": "address"
        }
      ],
      "name": "transferOwnership",
      "outputs": [],
      "stateMutability": "nonpayable",
      "type": "function"
    },
    {
      "inputs": [],
      "name": "unpause",
      "outputs": [],
      "stateMutability": "nonpayable",
      "type": "function"
    },
    {
      "inputs": [
        {
          "internalType": "uint256",
          "name": "assets",
          "type": "uint256"
        },
        {
          "internalType": "address",
          "name": "receiver",
          "type": "address"
        },
        {
          "internalType": "address",
          "name": "owner",
          "type": "address"
        }
      ],
      "name": "withdraw",
      "outputs": [
        {
          "internalType": "uint256",
          "name": "shares",
          "type": "uint256"
        }
      ],
      "stateMutability": "nonpayable",
      "type": "function"
    },
    {
      "stateMutability": "payable",
      "type": "receive"
    }
  ],
  "transactionHash": "0x325ef8f4c1147736f99e887ae2b349f2b05a45c76fa80d8e1f31dcb1fbbd15d0",
  "args": [
    "0x55d398326f99059fF775485246999027B3197955",
    "0x158Da805682BdC8ee32d52833aD41E74bb951E59",
    "0xbb4CdB9CBd36B01bD1cBaEBF2De08d9173bc095c"
  ],
  "numDeployments": 5,
  "bytecode": {
    "object": "0x6101206040523480156200001257600080fd5b5060405162002a4f38038062002a4f833981016040819052620000359162000476565b82836001600160a01b03166306fdde036040518163ffffffff1660e01b8152600401600060405180830381865afa15801562000075573d6000803e3d6000fd5b505050506040513d6000823e601f3d908101601f191682016040526200009f919081019062000513565b604051602001620000b19190620005cb565b604051602081830303815290604052846001600160a01b03166395d89b416040518163ffffffff1660e01b8152600401600060405180830381865afa158015620000ff573d6000803e3d6000fd5b505050506040513d6000823e601f3d908101601f1916820160405262000129919081019062000513565b6040516020016200013b91906200060b565b6040516020818303038152906040528282828181846001600160a01b031663313ce5676040518163ffffffff1660e01b8152600401602060405180830381865afa1580156200018e573d6000803e3d6000fd5b505050506040513d601f19601f82011682018060405250810190620001b4919062000637565b8251620001c9906000906020860190620003b7565b508151620001df906001906020850190620003b7565b5060ff81166080524660a052620001f5620002c9565b60c052505050506001600160a01b039190911660e05250620002173362000365565b50506006805460ff60a01b19169055506001600160a01b03828116610100819052600780546001600160a01b03191684841617905560e05160405163095ea7b360e01b8152600481019290925260001960248301529091169063095ea7b3906044016020604051808303816000875af115801562000299573d6000803e3d6000fd5b505050506040513d601f19601f82011682018060405250810190620002bf919062000663565b5050505062000768565b60007f8b73c3c69bb8fe3d512ecc4cf759cc79239f7b179b0ffacaa9a75d522b39400f6000604051620002fd9190620006c4565b6040805191829003822060208301939093528101919091527fc89efdaa54c0f20c7adf612882df0950f5a951637e0307cdcb4c672f298b8bc660608201524660808201523060a082015260c00160405160208183030381529060405280519060200120905090565b600680546001600160a01b038381166001600160a01b0319831681179093556040519116919082907f8be0079c531659141344cd1fd0a4f28419497f9722a3daafe3b4186f6b6457e090600090a35050565b828054620003c59062000687565b90600052602060002090601f016020900481019282620003e9576000855562000434565b82601f106200040457805160ff191683800117855562000434565b8280016001018555821562000434579182015b828111156200043457825182559160200191906001019062000417565b506200044292915062000446565b5090565b5b8082111562000442576000815560010162000447565b6001600160a01b03811681146200047357600080fd5b50565b6000806000606084860312156200048c57600080fd5b835162000499816200045d565b6020850151909350620004ac816200045d565b6040850151909250620004bf816200045d565b809150509250925092565b634e487b7160e01b600052604160045260246000fd5b60005b83811015620004fd578181015183820152602001620004e3565b838111156200050d576000848401525b50505050565b6000602082840312156200052657600080fd5b81516001600160401b03808211156200053e57600080fd5b818401915084601f8301126200055357600080fd5b815181811115620005685762000568620004ca565b604051601f8201601f19908116603f01168101908382118183101715620005935762000593620004ca565b81604052828152876020848701011115620005ad57600080fd5b620005c0836020830160208801620004e0565b979650505050505050565b65026b4b230b9960d51b815260008251620005ee816006850160208701620004e0565b650815985d5b1d60d21b6006939091019283015250600c01919050565b6136bb60f11b8152600082516200062a816002850160208701620004e0565b9190910160020192915050565b6000602082840312156200064a57600080fd5b815160ff811681146200065c57600080fd5b9392505050565b6000602082840312156200067657600080fd5b815180151581146200065c57600080fd5b600181811c908216806200069c57607f821691505b60208210811415620006be57634e487b7160e01b600052602260045260246000fd5b50919050565b600080835481600182811c915080831680620006e157607f831692505b60208084108214156200070257634e487b7160e01b86526022600452602486fd5b8180156200071957600181146200072b576200075a565b60ff198616895284890196506200075a565b60008a81526020902060005b86811015620007525781548b82015290850190830162000737565b505084890196505b509498975050505050505050565b60805160a05160c05160e0516101005161222b62000824600039600081816104730152818161079401528181610816015281816108ab01528181610c0601528181610da20152818161191501528181611c6f0152611d2c01526000818161040701528181610dcc01528181610f140152818161100f015281816111c70152818161125d0152818161134001528181611446015281816114dc01526115bf01526000610d0f01526000610cdf015260006103ac015261222b6000f3fe60806040526004361061021e5760003560e01c806370a0823111610123578063ba087652116100ab578063d905777e1161006f578063d905777e146106ad578063dd62ed3e146106e3578063ef8b30f71461071b578063f2fde38b1461073b578063fc3264341461075b57600080fd5b8063ba0876521461064d578063c63d75b6146104aa578063c6e6f5921461066d578063ce96cb7714610441578063d505accf1461068d57600080fd5b806394bf804d116100f257806394bf804d146105b857806395d89b41146105d8578063a9059cbb146105ed578063b3d7f6b91461060d578063b460af941461062d57600080fd5b806370a082311461052b578063715018a6146105585780637ecebe001461056d5780638da5cb5b1461059a57600080fd5b80633644e515116101a65780633f4ba83a116101755780633f4ba83a14610495578063402d267d146104aa5780634cdad506146104cc5780635c975abb146104ec5780636e553f651461050b57600080fd5b80633644e515146103e057806338d52e0f146103f55780633af9e669146104415780633cb99bbf1461046157600080fd5b80630a28a477116101ed5780630a28a4771461032d57806318160ddd1461034d57806323b872dd146103635780632835797814610383578063313ce5671461039a57600080fd5b806301e1d1141461029357806306fdde03146102bb57806307a2d13a146102dd578063095ea7b3146102fd57600080fd5b3661028e57600760009054906101000a90046001600160a01b03166001600160a01b031663d0e30db0346040518263ffffffff1660e01b81526004016000604051808303818588803b15801561027357600080fd5b505af1158015610287573d6000803e3d6000fd5b5050505050005b600080fd5b34801561029f57600080fd5b506102a861077b565b6040519081526020015b60405180910390f35b3480156102c757600080fd5b506102d0610996565b6040516102b29190611e5a565b3480156102e957600080fd5b506102a86102f8366004611eaf565b610a24565b34801561030957600080fd5b5061031d610318366004611ee4565b610a51565b60405190151581526020016102b2565b34801561033957600080fd5b506102a8610348366004611eaf565b610abe565b34801561035957600080fd5b506102a860025481565b34801561036f57600080fd5b5061031d61037e366004611f0e565b610ade565b34801561038f57600080fd5b50610398610bbe565b005b3480156103a657600080fd5b506103ce7f000000000000000000000000000000000000000000000000000000000000000081565b60405160ff90911681526020016102b2565b3480156103ec57600080fd5b506102a8610cdb565b34801561040157600080fd5b506104297f000000000000000000000000000000000000000000000000000000000000000081565b6040516001600160a01b0390911681526020016102b2565b34801561044d57600080fd5b506102a861045c366004611f4a565b610d31565b34801561046d57600080fd5b506104297f000000000000000000000000000000000000000000000000000000000000000081565b3480156104a157600080fd5b50610398610d53565b3480156104b657600080fd5b506102a86104c5366004611f4a565b5060001990565b3480156104d857600080fd5b506102a86104e7366004611eaf565b610e89565b3480156104f857600080fd5b50600654600160a01b900460ff1661031d565b34801561051757600080fd5b506102a8610526366004611f65565b610e94565b34801561053757600080fd5b506102a8610546366004611f4a565b60036020526000908152604090205481565b34801561056457600080fd5b50610398610f96565b34801561057957600080fd5b506102a8610588366004611f4a565b60056020526000908152604090205481565b3480156105a657600080fd5b506006546001600160a01b0316610429565b3480156105c457600080fd5b506102a86105d3366004611f65565b610fca565b3480156105e457600080fd5b506102d0611091565b3480156105f957600080fd5b5061031d610608366004611ee4565b61109e565b34801561061957600080fd5b506102a8610628366004611eaf565b611104565b34801561063957600080fd5b506102a8610648366004611f91565b611123565b34801561065957600080fd5b506102a8610668366004611f91565b611367565b34801561067957600080fd5b506102a8610688366004611eaf565b6115e6565b34801561069957600080fd5b506103986106a8366004611fcd565b611606565b3480156106b957600080fd5b506102a86106c8366004611f4a565b6001600160a01b031660009081526003602052604090205490565b3480156106ef57600080fd5b506102a86106fe366004612040565b600460209081526000928352604080842090915290825290205481565b34801561072757600080fd5b506102a8610736366004611eaf565b61184a565b34801561074757600080fd5b50610398610756366004611f4a565b611855565b34801561076757600080fd5b506102a8610776366004611eaf565b6118f0565b600654600090600160a01b900460ff1661092a576109257f00000000000000000000000000000000000000000000000000000000000000006001600160a01b031663626be5676040518163ffffffff1660e01b8152600401602060405180830381865afa1580156107f0573d6000803e3d6000fd5b505050506040513d601f19601f82011682018060405250810190610814919061206a565b7f00000000000000000000000000000000000000000000000000000000000000006001600160a01b03166318160ddd6040518163ffffffff1660e01b8152600401602060405180830381865afa158015610872573d6000803e3d6000fd5b505050506040513d601f19601f82011682018060405250810190610896919061206a565b6040516370a0823160e01b81523060048201527f00000000000000000000000000000000000000000000000000000000000000006001600160a01b0316906370a0823190602401602060405180830381865afa1580156108fa573d6000803e3d6000fd5b505050506040513d601f19601f8201168201806040525081019061091e919061206a565b9190611988565b905090565b6007546040516370a0823160e01b81523060048201526001600160a01b03909116906370a0823190602401602060405180830381865afa158015610972573d6000803e3d6000fd5b505050506040513d601f19601f82011682018060405250810190610925919061206a565b600080546109a390612083565b80601f01602080910402602001604051908101604052809291908181526020018280546109cf90612083565b8015610a1c5780601f106109f157610100808354040283529160200191610a1c565b820191906000526020600020905b8154815290600101906020018083116109ff57829003601f168201915b505050505081565b6002546000908015610a4857610a43610a3b61077b565b849083611988565b610a4a565b825b9392505050565b3360008181526004602090815260408083206001600160a01b038716808552925280832085905551919290917f8c5be1e5ebec7d5bd14f71427d1e84f3dd0314c0f7b2291e5b200ac8c7c3b92590610aac9086815260200190565b60405180910390a35060015b92915050565b6002546000908015610a4857610a4381610ad661077b565b8591906119a7565b6001600160a01b03831660009081526004602090815260408083203384529091528120546000198114610b3a57610b1583826120d4565b6001600160a01b03861660009081526004602090815260408083203384529091529020555b6001600160a01b03851660009081526003602052604081208054859290610b629084906120d4565b90915550506001600160a01b03808516600081815260036020526040908190208054870190555190918716906000805160206121ff83398151915290610bab9087815260200190565b60405180910390a3506001949350505050565b6006546001600160a01b03163314610bf15760405162461bcd60e51b8152600401610be8906120eb565b60405180910390fd5b6040516370a0823160e01b81523060048201527f00000000000000000000000000000000000000000000000000000000000000006001600160a01b031690632e1a7d4d9082906370a0823190602401602060405180830381865afa158015610c5d573d6000803e3d6000fd5b505050506040513d601f19601f82011682018060405250810190610c81919061206a565b6040518263ffffffff1660e01b8152600401610c9f91815260200190565b600060405180830381600087803b158015610cb957600080fd5b505af1158015610ccd573d6000803e3d6000fd5b50505050610cd96119d5565b565b60007f00000000000000000000000000000000000000000000000000000000000000004614610d0c57610925611a57565b507f000000000000000000000000000000000000000000000000000000000000000090565b6001600160a01b038116600090815260036020526040812054610ab890610a24565b6006546001600160a01b03163314610d7d5760405162461bcd60e51b8152600401610be8906120eb565b610d85611af1565b6040516370a0823160e01b81523060048201526001600160a01b037f000000000000000000000000000000000000000000000000000000000000000081169163b6b55f25917f000000000000000000000000000000000000000000000000000000000000000016906370a0823190602401602060405180830381865afa158015610e13573d6000803e3d6000fd5b505050506040513d601f19601f82011682018060405250810190610e37919061206a565b6040518263ffffffff1660e01b8152600401610e5591815260200190565b600060405180830381600087803b158015610e6f57600080fd5b505af1158015610e83573d6000803e3d6000fd5b50505050565b6000610ab882610a24565b600654600090600160a01b900460ff1615610ec15760405162461bcd60e51b8152600401610be890612120565b610eca8361184a565b905080610f075760405162461bcd60e51b815260206004820152600b60248201526a5a45524f5f53484152455360a81b6044820152606401610be8565b610f3c6001600160a01b037f000000000000000000000000000000000000000000000000000000000000000016333086611b75565b610f468282611bff565b60408051848152602081018390526001600160a01b0384169133917fdcbc1c05240f31ff3ad067ef1ee35ce4997762752e3a095284754544f4c709d7910160405180910390a3610ab88382611c59565b6006546001600160a01b03163314610fc05760405162461bcd60e51b8152600401610be8906120eb565b610cd96000611cd8565b600654600090600160a01b900460ff1615610ff75760405162461bcd60e51b8152600401610be890612120565b61100083611104565b90506110376001600160a01b037f000000000000000000000000000000000000000000000000000000000000000016333084611b75565b6110418284611bff565b60408051828152602081018590526001600160a01b0384169133917fdcbc1c05240f31ff3ad067ef1ee35ce4997762752e3a095284754544f4c709d7910160405180910390a3610ab88184611c59565b600180546109a390612083565b336000908152600360205260408120805483919083906110bf9084906120d4565b90915550506001600160a01b038316600081815260036020526040908190208054850190555133906000805160206121ff83398151915290610aac9086815260200190565b6002546000908015610a4857610a4361111b61077b565b8490836119a7565b600061112e84610abe565b9050336001600160a01b0383161461119e576001600160a01b0382166000908152600460209081526040808320338452909152902054600019811461119c5761117782826120d4565b6001600160a01b03841660009081526004602090815260408083203384529091529020555b505b600654600160a01b900460ff166112de576040516370a0823160e01b81523060048201526000907f00000000000000000000000000000000000000000000000000000000000000006001600160a01b0316906370a0823190602401602060405180830381865afa158015611216573d6000803e3d6000fd5b505050506040513d601f19601f8201168201806040525081019061123a919061206a565b90506112468583611d2a565b6040516370a0823160e01b815230600482015281907f00000000000000000000000000000000000000000000000000000000000000006001600160a01b0316906370a0823190602401602060405180830381865afa1580156112ac573d6000803e3d6000fd5b505050506040513d601f19601f820116820180604052508101906112d0919061206a565b6112da91906120d4565b9450505b6112e88282611d80565b60408051858152602081018390526001600160a01b03808516929086169133917ffbde797d201c681b91056529119e0b02407c7bb96a4a2c75c01fc9667232c8db910160405180910390a4610a4a6001600160a01b037f0000000000000000000000000000000000000000000000000000000000000000168486611de2565b6000336001600160a01b038316146113d7576001600160a01b038216600090815260046020908152604080832033845290915290205460001981146113d5576113b085826120d4565b6001600160a01b03841660009081526004602090815260408083203384529091529020555b505b6113e084610e89565b90508061141d5760405162461bcd60e51b815260206004820152600b60248201526a5a45524f5f41535345545360a81b6044820152606401610be8565b600654600160a01b900460ff1661155d576040516370a0823160e01b81523060048201526000907f00000000000000000000000000000000000000000000000000000000000000006001600160a01b0316906370a0823190602401602060405180830381865afa158015611495573d6000803e3d6000fd5b505050506040513d601f19601f820116820180604052508101906114b9919061206a565b90506114c58286611d2a565b6040516370a0823160e01b815230600482015281907f00000000000000000000000000000000000000000000000000000000000000006001600160a01b0316906370a0823190602401602060405180830381865afa15801561152b573d6000803e3d6000fd5b505050506040513d601f19601f8201168201806040525081019061154f919061206a565b61155991906120d4565b9150505b6115678285611d80565b60408051828152602081018690526001600160a01b03808516929086169133917ffbde797d201c681b91056529119e0b02407c7bb96a4a2c75c01fc9667232c8db910160405180910390a4610a4a6001600160a01b037f0000000000000000000000000000000000000000000000000000000000000000168483611de2565b6002546000908015610a4857610a43816115fe61077b565b859190611988565b428410156116565760405162461bcd60e51b815260206004820152601760248201527f5045524d49545f444541444c494e455f455850495245440000000000000000006044820152606401610be8565b60006001611662610cdb565b6001600160a01b038a811660008181526005602090815260409182902080546001810190915582517f6e71edae12b1b97f4d1f60370fef10105fa2faae0126114a169c64845d6126c98184015280840194909452938d166060840152608083018c905260a083019390935260c08083018b90528151808403909101815260e08301909152805192019190912061190160f01b6101008301526101028201929092526101228101919091526101420160408051601f198184030181528282528051602091820120600084529083018083525260ff871690820152606081018590526080810184905260a0016020604051602081039080840390855afa15801561176e573d6000803e3d6000fd5b5050604051601f1901519150506001600160a01b038116158015906117a45750876001600160a01b0316816001600160a01b0316145b6117e15760405162461bcd60e51b815260206004820152600e60248201526d24a72b20a624a22fa9a4a3a722a960911b6044820152606401610be8565b6001600160a01b0390811660009081526004602090815260408083208a8516808552908352928190208990555188815291928a16917f8c5be1e5ebec7d5bd14f71427d1e84f3dd0314c0f7b2291e5b200ac8c7c3b925910160405180910390a350505050505050565b6000610ab8826115e6565b6006546001600160a01b0316331461187f5760405162461bcd60e51b8152600401610be8906120eb565b6001600160a01b0381166118e45760405162461bcd60e51b815260206004820152602660248201527f4f776e61626c653a206e6577206f776e657220697320746865207a65726f206160448201526564647265737360d01b6064820152608401610be8565b6118ed81611cd8565b50565b6002546000908015610a48576040516370a0823160e01b8152306004820152610a43907f00000000000000000000000000000000000000000000000000000000000000006001600160a01b0316906370a0823190602401602060405180830381865afa158015611964573d6000803e3d6000fd5b505050506040513d601f19601f8201168201806040525081019061111b919061206a565b8282028115158415858304851417166119a057600080fd5b0492915050565b8282028115158415858304851417166119bf57600080fd5b6001826001830304018115150290509392505050565b600654600160a01b900460ff16156119ff5760405162461bcd60e51b8152600401610be890612120565b6006805460ff60a01b1916600160a01b1790557f62e78cea01bee320cd4e420270b5ea74000d11b0c9f74754ebdbfc544b05a258611a3a3390565b6040516001600160a01b03909116815260200160405180910390a1565b60007f8b73c3c69bb8fe3d512ecc4cf759cc79239f7b179b0ffacaa9a75d522b39400f6000604051611a89919061214a565b6040805191829003822060208301939093528101919091527fc89efdaa54c0f20c7adf612882df0950f5a951637e0307cdcb4c672f298b8bc660608201524660808201523060a082015260c00160405160208183030381529060405280519060200120905090565b600654600160a01b900460ff16611b415760405162461bcd60e51b815260206004820152601460248201527314185d5cd8589b194e881b9bdd081c185d5cd95960621b6044820152606401610be8565b6006805460ff60a01b191690557f5db9ee0a495bf2e6ff9c91a7834c1ba4fdd244a5e8aa4e537bd38aeae4b073aa33611a3a565b60006040516323b872dd60e01b81528460048201528360248201528260448201526020600060648360008a5af13d15601f3d1160016000511416171691505080611bf85760405162461bcd60e51b81526020600482015260146024820152731514905394d1915497d19493d357d1905253115160621b6044820152606401610be8565b5050505050565b8060026000828254611c1191906121e6565b90915550506001600160a01b0382166000818152600360209081526040808320805486019055518481526000805160206121ff83398151915291015b60405180910390a35050565b60405163b6b55f2560e01b8152600481018390527f00000000000000000000000000000000000000000000000000000000000000006001600160a01b03169063b6b55f25906024015b600060405180830381600087803b158015611cbc57600080fd5b505af1158015611cd0573d6000803e3d6000fd5b505050505050565b600680546001600160a01b038381166001600160a01b0319831681179093556040519116919082907f8be0079c531659141344cd1fd0a4f28419497f9722a3daafe3b4186f6b6457e090600090a35050565b7f00000000000000000000000000000000000000000000000000000000000000006001600160a01b0316632e1a7d4d611d62836118f0565b6040518263ffffffff1660e01b8152600401611ca291815260200190565b6001600160a01b03821660009081526003602052604081208054839290611da89084906120d4565b90915550506002805482900390556040518181526000906001600160a01b038416906000805160206121ff83398151915290602001611c4d565b600060405163a9059cbb60e01b8152836004820152826024820152602060006044836000895af13d15601f3d1160016000511416171691505080610e835760405162461bcd60e51b815260206004820152600f60248201526e1514905394d1915497d19052531151608a1b6044820152606401610be8565b600060208083528351808285015260005b81811015611e8757858101830151858201604001528201611e6b565b81811115611e99576000604083870101525b50601f01601f1916929092016040019392505050565b600060208284031215611ec157600080fd5b5035919050565b80356001600160a01b0381168114611edf57600080fd5b919050565b60008060408385031215611ef757600080fd5b611f0083611ec8565b946020939093013593505050565b600080600060608486031215611f2357600080fd5b611f2c84611ec8565b9250611f3a60208501611ec8565b9150604084013590509250925092565b600060208284031215611f5c57600080fd5b610a4a82611ec8565b60008060408385031215611f7857600080fd5b82359150611f8860208401611ec8565b90509250929050565b600080600060608486031215611fa657600080fd5b83359250611fb660208501611ec8565b9150611fc460408501611ec8565b90509250925092565b600080600080600080600060e0888a031215611fe857600080fd5b611ff188611ec8565b9650611fff60208901611ec8565b95506040880135945060608801359350608088013560ff8116811461202357600080fd5b9699959850939692959460a0840135945060c09093013592915050565b6000806040838503121561205357600080fd5b61205c83611ec8565b9150611f8860208401611ec8565b60006020828403121561207c57600080fd5b5051919050565b600181811c9082168061209757607f821691505b602082108114156120b857634e487b7160e01b600052602260045260246000fd5b50919050565b634e487b7160e01b600052601160045260246000fd5b6000828210156120e6576120e66120be565b500390565b6020808252818101527f4f776e61626c653a2063616c6c6572206973206e6f7420746865206f776e6572604082015260600190565b60208082526010908201526f14185d5cd8589b194e881c185d5cd95960821b604082015260600190565b600080835481600182811c91508083168061216657607f831692505b602080841082141561218657634e487b7160e01b86526022600452602486fd5b81801561219a57600181146121ab576121d8565b60ff198616895284890196506121d8565b60008a81526020902060005b868110156121d05781548b8201529085019083016121b7565b505084890196505b509498975050505050505050565b600082198211156121f9576121f96120be565b50019056feddf252ad1be2c89b69c2b068fc378daa952ba7f163c4a11628f55a4df523b3efa164736f6c634300080a000a",
    "linkReferences": {}
  },
  "methodIdentifiers": {
    "DOMAIN_SEPARATOR()": "3644e515",
    "allowance(address,address)": "dd62ed3e",
    "alpacaVault()": "3cb99bbf",
    "approve(address,uint256)": "095ea7b3",
    "asset()": "38d52e0f",
    "balanceOf(address)": "70a08231",
    "balanceOfUnderlying(address)": "3af9e669",
    "convertToAlpacaVaultShares(uint256)": "fc326434",
    "convertToAssets(uint256)": "07a2d13a",
    "convertToShares(uint256)": "c6e6f592",
    "decimals()": "313ce567",
    "deposit(uint256,address)": "6e553f65",
    "emergencyWithdrawAndPause()": "28357978",
    "maxDeposit(address)": "402d267d",
    "maxMint(address)": "c63d75b6",
    "maxRedeem(address)": "d905777e",
    "maxWithdraw(address)": "ce96cb77",
    "mint(uint256,address)": "94bf804d",
    "name()": "06fdde03",
    "nonces(address)": "7ecebe00",
    "owner()": "8da5cb5b",
    "paused()": "5c975abb",
    "permit(address,address,uint256,uint256,uint8,bytes32,bytes32)": "d505accf",
    "previewDeposit(uint256)": "ef8b30f7",
    "previewMint(uint256)": "b3d7f6b9",
    "previewRedeem(uint256)": "4cdad506",
    "previewWithdraw(uint256)": "0a28a477",
    "redeem(uint256,address,address)": "ba087652",
    "renounceOwnership()": "715018a6",
    "symbol()": "95d89b41",
    "totalAssets()": "01e1d114",
    "totalSupply()": "18160ddd",
    "transfer(address,uint256)": "a9059cbb",
    "transferFrom(address,address,uint256)": "23b872dd",
    "transferOwnership(address)": "f2fde38b",
    "unpause()": "3f4ba83a",
    "withdraw(uint256,address,address)": "b460af94"
  }
}