{
  "address": "0x15C0B126374e07417F0EA28fF0EA5d4DE7826F21",
  "abi": [
    {
      "inputs": [
        {
          "internalType": "uint256",
          "name": "_blocksPerYear",
          "type": "uint256"
        },
        {
          "internalType": "uint256",
          "name": "baseRatePerYear",
          "type": "uint256"
        },
        {
          "internalType": "uint256",
          "name": "_multiplierPerYear",
          "type": "uint256"
        },
        {
          "internalType": "uint256",
          "name": "kink_",
          "type": "uint256"
        },
        {
          "internalType": "uint8",
          "name": "_day",
          "type": "uint8"
        },
        {
          "internalType": "address",
          "name": "_abnbr",
          "type": "address"
        }
      ],
      "stateMutability": "nonpayable",
      "type": "constructor"
    },
    {
      "anonymous": false,
      "inputs": [
        {
          "indexed": false,
          "internalType": "uint256",
          "name": "baseRatePerBlock",
          "type": "uint256"
        },
        {
          "indexed": false,
          "internalType": "uint256",
          "name": "jumpMultiplierPerBlock",
          "type": "uint256"
        },
        {
          "indexed": false,
          "internalType": "uint256",
          "name": "kink",
          "type": "uint256"
        }
      ],
      "name": "NewInterestParams",
      "type": "event"
    },
    {
      "inputs": [],
      "name": "ANKR_BNB_R",
      "outputs": [
        {
          "internalType": "address",
          "name": "",
          "type": "address"
        }
      ],
      "stateMutability": "view",
      "type": "function"
    },
    {
      "inputs": [],
      "name": "baseRatePerBlock",
      "outputs": [
        {
          "internalType": "uint256",
          "name": "",
          "type": "uint256"
        }
      ],
      "stateMutability": "view",
      "type": "function"
    },
    {
      "inputs": [],
      "name": "blocksPerYear",
      "outputs": [
        {
          "internalType": "uint256",
          "name": "",
          "type": "uint256"
        }
      ],
      "stateMutability": "view",
      "type": "function"
    },
    {
      "inputs": [],
      "name": "day",
      "outputs": [
        {
          "internalType": "uint8",
          "name": "",
          "type": "uint8"
        }
      ],
      "stateMutability": "view",
      "type": "function"
    },
    {
      "inputs": [
        {
          "internalType": "uint256",
          "name": "cash",
          "type": "uint256"
        },
        {
          "internalType": "uint256",
          "name": "borrows",
          "type": "uint256"
        },
        {
          "internalType": "uint256",
          "name": "reserves",
          "type": "uint256"
        }
      ],
      "name": "getBorrowRate",
      "outputs": [
        {
          "internalType": "uint256",
          "name": "",
          "type": "uint256"
        }
      ],
      "stateMutability": "view",
      "type": "function"
    },
    {
      "inputs": [],
      "name": "getJumpMultiplierPerBlock",
      "outputs": [
        {
          "internalType": "uint256",
          "name": "",
          "type": "uint256"
        }
      ],
      "stateMutability": "view",
      "type": "function"
    },
    {
      "inputs": [
        {
          "internalType": "uint256",
          "name": "cash",
          "type": "uint256"
        },
        {
          "internalType": "uint256",
          "name": "borrows",
          "type": "uint256"
        },
        {
          "internalType": "uint256",
          "name": "reserves",
          "type": "uint256"
        },
        {
          "internalType": "uint256",
          "name": "reserveFactorMantissa",
          "type": "uint256"
        }
      ],
      "name": "getSupplyRate",
      "outputs": [
        {
          "internalType": "uint256",
          "name": "",
          "type": "uint256"
        }
      ],
      "stateMutability": "view",
      "type": "function"
    },
    {
      "inputs": [],
      "name": "isInterestRateModel",
      "outputs": [
        {
          "internalType": "bool",
          "name": "",
          "type": "bool"
        }
      ],
      "stateMutability": "view",
      "type": "function"
    },
    {
      "inputs": [],
      "name": "kink",
      "outputs": [
        {
          "internalType": "uint256",
          "name": "",
          "type": "uint256"
        }
      ],
      "stateMutability": "view",
      "type": "function"
    },
    {
      "inputs": [],
      "name": "multiplierPerBlock",
      "outputs": [
        {
          "internalType": "uint256",
          "name": "",
          "type": "uint256"
        }
      ],
      "stateMutability": "view",
      "type": "function"
    },
    {
      "inputs": [
        {
          "internalType": "uint256",
          "name": "cash",
          "type": "uint256"
        },
        {
          "internalType": "uint256",
          "name": "borrows",
          "type": "uint256"
        },
        {
          "internalType": "uint256",
          "name": "reserves",
          "type": "uint256"
        }
      ],
      "name": "utilizationRate",
      "outputs": [
        {
          "internalType": "uint256",
          "name": "",
          "type": "uint256"
        }
      ],
      "stateMutability": "pure",
      "type": "function"
    }
  ],
  "transactionHash": "0x84801d216fb9f33e08339ab87826cfe55da6090a6f6af4b5c31fbdeaa0a40f0d",
  "args": [
    10512000,
    "25600000000000000",
    "32000000000000000",
    "800000000000000000",
    3,
    "0xBb1Aa6e59E5163D8722a122cd66EBA614b59df0d"
  ],
  "numDeployments": 5,
  "bytecode": {
    "object": "0x608060405234801561001057600080fd5b506040516109b63803806109b683398101604081905261002f916101d9565b60008260ff16118015610045575060088260ff16105b6100965760405162461bcd60e51b815260206004820152601a60248201527f5f6461792073686f756c642062652066726f6d203120746f203700000000000060448201526064015b60405180910390fd5b60018690556100b08587610153602090811b61038617901c565b6002819055506100cf6001548561015360201b6103861790919060201c565b600381905560048490556005805460ff191660ff8516179055600080546001600160a01b0319166001600160a01b0384161790556002546040805191825260208201929092529081018490527f865bfff1eb39dc370f97b2eb5990d963c50228429828ad935a4470166c711fc19060600160405180910390a15050505050506102c1565b600061019b83836040518060400160405280601a81526020017f536166654d6174683a206469766973696f6e206279207a65726f0000000000008152506101a260201b60201c565b9392505050565b600081836101c35760405162461bcd60e51b815260040161008d919061024a565b5060006101d0848661029f565b95945050505050565b60008060008060008060c087890312156101f257600080fd5b86519550602087015194506040870151935060608701519250608087015160ff8116811461021f57600080fd5b60a08801519092506001600160a01b038116811461023c57600080fd5b809150509295509295509295565b600060208083528351808285015260005b818110156102775785810183015185820160400152820161025b565b81811115610289576000604083870101525b50601f01601f1916929092016040019392505050565b6000826102bc57634e487b7160e01b600052601260045260246000fd5b500490565b6106e6806102d06000396000f3fe608060405234801561001057600080fd5b50600436106100a95760003560e01c80638726bb89116100715780638726bb8914610126578063a385fb961461012f578063b816881614610138578063dad595001461014b578063f14039de14610176578063fd2da3391461017f57600080fd5b806315f24053146100ae5780632191f92a146100d457806326c6d8c4146100ec5780636e71e2d8146100f45780637b76ac9114610107575b600080fd5b6100c16100bc36600461055e565b610188565b6040519081526020015b60405180910390f35b6100dc600181565b60405190151581526020016100cb565b6100c1610257565b6100c161010236600461055e565b6102d9565b6005546101149060ff1681565b60405160ff90911681526020016100cb565b6100c160035481565b6100c160015481565b6100c161014636600461058a565b610319565b60005461015e906001600160a01b031681565b6040516001600160a01b0390911681526020016100cb565b6100c160025481565b6100c160045481565b6000806101968585856102d9565b905060006101a2610257565b905060045482116101e9576101e06002546101da670de0b6b3a76400006101d4600354876103d190919063ffffffff16565b90610386565b90610455565b92505050610250565b60006102146002546101da670de0b6b3a76400006101d46003546004546103d190919063ffffffff16565b9050600061022d600454856104b490919063ffffffff16565b9050610249826101da670de0b6b3a76400006101d485886103d1565b9450505050505b9392505050565b60015460008054600554604051632045ac2360e21b815260ff909116600482015291926102d49290916001600160a01b031690638116b08c90602401602060405180830381865afa1580156102b0573d6000803e3d6000fd5b505050506040513d601f19601f820116820180604052508101906101d491906105bc565b905090565b6000826102e857506000610250565b6103116102ff836102f98787610455565b906104b4565b6101d485670de0b6b3a76400006103d1565b949350505050565b60008061032e670de0b6b3a7640000846104b4565b9050600061033d878787610188565b90506000610357670de0b6b3a76400006101d484866103d1565b905061037a670de0b6b3a76400006101d4836103748c8c8c6102d9565b906103d1565b98975050505050505050565b60006103c883836040518060400160405280601a81526020017f536166654d6174683a206469766973696f6e206279207a65726f0000000000008152506104f6565b90505b92915050565b6000826103e0575060006103cb565b60006103ec83856105eb565b9050826103f9858361060a565b146103c85760405162461bcd60e51b815260206004820152602160248201527f536166654d6174683a206d756c7469706c69636174696f6e206f766572666c6f6044820152607760f81b60648201526084015b60405180910390fd5b600080610462838561062c565b9050838110156103c85760405162461bcd60e51b815260206004820152601b60248201527f536166654d6174683a206164646974696f6e206f766572666c6f770000000000604482015260640161044c565b60006103c883836040518060400160405280601f81526020017f536166654d6174683a207375627472616374696f6e20756e646572666c6f770081525061052d565b600081836105175760405162461bcd60e51b815260040161044c9190610644565b506000610524848661060a565b95945050505050565b600081848411156105515760405162461bcd60e51b815260040161044c9190610644565b5060006105248486610699565b60008060006060848603121561057357600080fd5b505081359360208301359350604090920135919050565b600080600080608085870312156105a057600080fd5b5050823594602084013594506040840135936060013592509050565b6000602082840312156105ce57600080fd5b5051919050565b634e487b7160e01b600052601160045260246000fd5b6000816000190483118215151615610605576106056105d5565b500290565b60008261062757634e487b7160e01b600052601260045260246000fd5b500490565b6000821982111561063f5761063f6105d5565b500190565b600060208083528351808285015260005b8181101561067157858101830151858201604001528201610655565b81811115610683576000604083870101525b50601f01601f1916929092016040019392505050565b6000828210156106ab576106ab6105d5565b50039056fea2646970667358221220de2e3013245c0d80f082eeea0e7bbbfe3a70a82d5fd247ab8c2247cdcfa1c85e64736f6c634300080a0033",
    "linkReferences": {}
  },
  "methodIdentifiers": {
    "ANKR_BNB_R()": "dad59500",
    "baseRatePerBlock()": "f14039de",
    "blocksPerYear()": "a385fb96",
    "day()": "7b76ac91",
    "getBorrowRate(uint256,uint256,uint256)": "15f24053",
    "getJumpMultiplierPerBlock()": "26c6d8c4",
    "getSupplyRate(uint256,uint256,uint256,uint256)": "b8168816",
    "isInterestRateModel()": "2191f92a",
    "kink()": "fd2da339",
    "multiplierPerBlock()": "8726bb89",
    "utilizationRate(uint256,uint256,uint256)": "6e71e2d8"
  }
}