{
  "address": "0x37321eB111aFd414cF543928D5F8324A04BB5C11",
  "abi": [
    {
      "anonymous": false,
      "inputs": [
        {
          "indexed": false,
          "internalType": "uint8",
          "name": "version",
          "type": "uint8"
        }
      ],
      "name": "Initialized",
      "type": "event"
    },
    {
      "anonymous": false,
      "inputs": [
        {
          "indexed": false,
          "internalType": "address",
          "name": "oldOwner",
          "type": "address"
        },
        {
          "indexed": false,
          "internalType": "address",
          "name": "newOwner",
          "type": "address"
        }
      ],
      "name": "NewOwner",
      "type": "event"
    },
    {
      "anonymous": false,
      "inputs": [
        {
          "indexed": false,
          "internalType": "address",
          "name": "oldPendingOwner",
          "type": "address"
        },
        {
          "indexed": false,
          "internalType": "address",
          "name": "newPendingOwner",
          "type": "address"
        }
      ],
      "name": "NewPendingOwner",
      "type": "event"
    },
    {
      "anonymous": false,
      "inputs": [
        {
          "indexed": true,
          "internalType": "address",
          "name": "previousOwner",
          "type": "address"
        },
        {
          "indexed": true,
          "internalType": "address",
          "name": "newOwner",
          "type": "address"
        }
      ],
      "name": "OwnershipTransferred",
      "type": "event"
    },
    {
      "inputs": [],
      "name": "_acceptOwner",
      "outputs": [],
      "stateMutability": "nonpayable",
      "type": "function"
    },
    {
      "inputs": [
        {
          "internalType": "address",
          "name": "newPendingOwner",
          "type": "address"
        }
      ],
      "name": "_setPendingOwner",
      "outputs": [],
      "stateMutability": "nonpayable",
      "type": "function"
    },
    {
      "inputs": [],
      "name": "aTokenCertificate",
      "outputs": [
        {
          "internalType": "contract IAnkrCertificate",
          "name": "",
          "type": "address"
        }
      ],
      "stateMutability": "view",
      "type": "function"
    },
    {
      "inputs": [
        {
          "internalType": "contract ICToken",
          "name": "cToken",
          "type": "address"
        }
      ],
      "name": "getUnderlyingPrice",
      "outputs": [
        {
          "internalType": "uint256",
          "name": "",
          "type": "uint256"
        }
      ],
      "stateMutability": "view",
      "type": "function"
    },
    {
      "inputs": [
        {
          "internalType": "address",
          "name": "ankrCertificateToken",
          "type": "address"
        }
      ],
      "name": "initialize",
      "outputs": [],
      "stateMutability": "nonpayable",
      "type": "function"
    },
    {
      "inputs": [],
      "name": "owner",
      "outputs": [
        {
          "internalType": "address",
          "name": "",
          "type": "address"
        }
      ],
      "stateMutability": "view",
      "type": "function"
    },
    {
      "inputs": [],
      "name": "pendingOwner",
      "outputs": [
        {
          "internalType": "address",
          "name": "",
          "type": "address"
        }
      ],
      "stateMutability": "view",
      "type": "function"
    },
    {
      "inputs": [
        {
          "internalType": "address",
          "name": "underlying",
          "type": "address"
        }
      ],
      "name": "price",
      "outputs": [
        {
          "internalType": "uint256",
          "name": "",
          "type": "uint256"
        }
      ],
      "stateMutability": "view",
      "type": "function"
    },
    {
      "inputs": [],
      "name": "renounceOwnership",
      "outputs": [],
      "stateMutability": "nonpayable",
      "type": "function"
    },
    {
      "inputs": [
        {
          "internalType": "address",
          "name": "newOwner",
          "type": "address"
        }
      ],
      "name": "transferOwnership",
      "outputs": [],
      "stateMutability": "nonpayable",
      "type": "function"
    }
  ],
  "transactionHash": "0x526e1b8dfbccb68c5861e12471adfefce4fe9fdc3388911c95523d88b0762efe",
  "args": [],
  "numDeployments": 3,
  "bytecode": {
    "object": "0x608060405234801561001057600080fd5b5061087b806100206000396000f3fe608060405234801561001057600080fd5b506004361061009e5760003560e01c8063d156ca5611610066578063d156ca561461011e578063e30c397814610131578063f2fde38b14610144578063fc4d33f914610157578063fc57d4df1461015f57600080fd5b80636e96dfd7146100a3578063715018a6146100b85780638da5cb5b146100c0578063aea91078146100ea578063c4d66de81461010b575b600080fd5b6100b66100b1366004610781565b610172565b005b6100b66101dc565b6033546001600160a01b03165b6040516001600160a01b0390911681526020015b60405180910390f35b6100fd6100f8366004610781565b610224565b6040519081526020016100e1565b6100b6610119366004610781565b610287565b6066546100cd906001600160a01b031681565b6065546100cd906001600160a01b031681565b6100b6610152366004610781565b6101dc565b6100b66103b0565b6100fd61016d366004610781565b6104c4565b61017a61058d565b606580546001600160a01b038381166001600160a01b031983168117909355604080519190921680825260208201939093527fb3d55174552271a4f1aaf36b72f50381e892171636b3fb5447fe00e995e7a37b91015b60405180910390a15050565b6101e461058d565b60405162461bcd60e51b815260206004820152601060248201526f6e6f74207573656420616e796d6f726560801b60448201526064015b60405180910390fd5b6066546000906001600160a01b038381169116146102795760405162461bcd60e51b8152602060048201526012602482015271496e76616c696420756e6465726c79696e6760701b604482015260640161021b565b6102816105e9565b92915050565b600054610100900460ff16158080156102a75750600054600160ff909116105b806102c15750303b1580156102c1575060005460ff166001145b6103245760405162461bcd60e51b815260206004820152602e60248201527f496e697469616c697a61626c653a20636f6e747261637420697320616c72656160448201526d191e481a5b9a5d1a585b1a5e995960921b606482015260840161021b565b6000805460ff191660011790558015610347576000805461ff0019166101001790555b61034f61068e565b606680546001600160a01b0319166001600160a01b03841617905580156103ac576000805461ff0019169055604051600181527f7f26b83ff96e1f2b6a682f133852f6798a09c465da95921460cefb3847402498906020016101d0565b5050565b6065546001600160a01b031633146104025760405162461bcd60e51b81526020600482015260156024820152743737ba103a3432903832b73234b7339037bbb732b960591b604482015260640161021b565b60006104166033546001600160a01b031690565b6065549091506001600160a01b031661042e816106bd565b606580546001600160a01b0319169055604080516001600160a01b0384168152600060208201527f70aea8d848e8a90fb7661b227dc522eb6395c3dac71b63cb59edd5c9899b2364910160405180910390a1606554604080516001600160a01b03808516825290921660208301527fb3d55174552271a4f1aaf36b72f50381e892171636b3fb5447fe00e995e7a37b91016101d0565b600080826001600160a01b0316636f307dc36040518163ffffffff1660e01b8152600401602060405180830381865afa158015610505573d6000803e3d6000fd5b505050506040513d601f19601f82011682018060405250810190610529919061079e565b6066549091506001600160a01b0380831691161461057e5760405162461bcd60e51b8152602060048201526012602482015271496e76616c696420756e6465726c79696e6760701b604482015260640161021b565b6105866105e9565b9392505050565b6033546001600160a01b031633146105e75760405162461bcd60e51b815260206004820181905260248201527f4f776e61626c653a2063616c6c6572206973206e6f7420746865206f776e6572604482015260640161021b565b565b600080670de0b6b3a764000090506000606660009054906101000a90046001600160a01b03166001600160a01b03166371ca337d6040518163ffffffff1660e01b8152600401602060405180830381865afa15801561064c573d6000803e3d6000fd5b505050506040513d601f19601f8201168201806040525081019061067091906107bb565b90508061067d83806107d4565b6106879190610801565b9250505090565b600054610100900460ff166106b55760405162461bcd60e51b815260040161021b90610823565b6105e761070f565b603380546001600160a01b038381166001600160a01b0319831681179093556040519116919082907f8be0079c531659141344cd1fd0a4f28419497f9722a3daafe3b4186f6b6457e090600090a35050565b600054610100900460ff166107365760405162461bcd60e51b815260040161021b90610823565b6105e7600054610100900460ff166107605760405162461bcd60e51b815260040161021b90610823565b6105e7336106bd565b6001600160a01b038116811461077e57600080fd5b50565b60006020828403121561079357600080fd5b813561058681610769565b6000602082840312156107b057600080fd5b815161058681610769565b6000602082840312156107cd57600080fd5b5051919050565b60008160001904831182151516156107fc57634e487b7160e01b600052601160045260246000fd5b500290565b60008261081e57634e487b7160e01b600052601260045260246000fd5b500490565b6020808252602b908201527f496e697469616c697a61626c653a20636f6e7472616374206973206e6f74206960408201526a6e697469616c697a696e6760a81b60608201526080019056fea164736f6c634300080a000a",
    "linkReferences": {}
  },
  "methodIdentifiers": {
    "_acceptOwner()": "fc4d33f9",
    "_setPendingOwner(address)": "6e96dfd7",
    "aTokenCertificate()": "d156ca56",
    "getUnderlyingPrice(address)": "fc57d4df",
    "initialize(address)": "c4d66de8",
    "owner()": "8da5cb5b",
    "pendingOwner()": "e30c3978",
    "price(address)": "aea91078",
    "renounceOwnership()": "715018a6",
    "transferOwnership(address)": "f2fde38b"
  }
}