{
  "address": "0x82652E008343a96bC86ceAa52b2267067288B975",
  "abi": [
    {
      "inputs": [
        {
          "internalType": "uint256",
          "name": "_blocksPerYear",
          "type": "uint256"
        },
        {
          "internalType": "uint256",
          "name": "_baseRateMultiplier",
          "type": "uint256"
        },
        {
          "internalType": "uint256",
          "name": "_jumpMultiplierPerYear",
          "type": "uint256"
        },
        {
          "internalType": "uint256",
          "name": "kink_",
          "type": "uint256"
        },
        {
          "internalType": "uint8",
          "name": "_day",
          "type": "uint8"
        },
        {
          "internalType": "address",
          "name": "_abnbr",
          "type": "address"
        }
      ],
      "stateMutability": "nonpayable",
      "type": "constructor"
    },
    {
      "anonymous": false,
      "inputs": [
        {
          "indexed": false,
          "internalType": "uint256",
          "name": "blocksPerYear",
          "type": "uint256"
        },
        {
          "indexed": false,
          "internalType": "uint256",
          "name": "baseRateMultiplier",
          "type": "uint256"
        },
        {
          "indexed": false,
          "internalType": "uint256",
          "name": "kink",
          "type": "uint256"
        }
      ],
      "name": "NewInterestParams",
      "type": "event"
    },
    {
      "inputs": [],
      "name": "ANKR_BNB_R",
      "outputs": [
        {
          "internalType": "address",
          "name": "",
          "type": "address"
        }
      ],
      "stateMutability": "view",
      "type": "function"
    },
    {
      "inputs": [],
      "name": "baseRateMultiplier",
      "outputs": [
        {
          "internalType": "uint256",
          "name": "",
          "type": "uint256"
        }
      ],
      "stateMutability": "view",
      "type": "function"
    },
    {
      "inputs": [],
      "name": "blocksPerYear",
      "outputs": [
        {
          "internalType": "uint256",
          "name": "",
          "type": "uint256"
        }
      ],
      "stateMutability": "view",
      "type": "function"
    },
    {
      "inputs": [],
      "name": "day",
      "outputs": [
        {
          "internalType": "uint8",
          "name": "",
          "type": "uint8"
        }
      ],
      "stateMutability": "view",
      "type": "function"
    },
    {
      "inputs": [],
      "name": "getAnkrRate",
      "outputs": [
        {
          "internalType": "uint256",
          "name": "",
          "type": "uint256"
        }
      ],
      "stateMutability": "view",
      "type": "function"
    },
    {
      "inputs": [],
      "name": "getBaseRatePerBlock",
      "outputs": [
        {
          "internalType": "uint256",
          "name": "",
          "type": "uint256"
        }
      ],
      "stateMutability": "view",
      "type": "function"
    },
    {
      "inputs": [
        {
          "internalType": "uint256",
          "name": "cash",
          "type": "uint256"
        },
        {
          "internalType": "uint256",
          "name": "borrows",
          "type": "uint256"
        },
        {
          "internalType": "uint256",
          "name": "reserves",
          "type": "uint256"
        }
      ],
      "name": "getBorrowRate",
      "outputs": [
        {
          "internalType": "uint256",
          "name": "",
          "type": "uint256"
        }
      ],
      "stateMutability": "view",
      "type": "function"
    },
    {
      "inputs": [
        {
          "internalType": "uint256",
          "name": "cash",
          "type": "uint256"
        },
        {
          "internalType": "uint256",
          "name": "borrows",
          "type": "uint256"
        },
        {
          "internalType": "uint256",
          "name": "reserves",
          "type": "uint256"
        }
      ],
      "name": "getBorrowRatePostKink",
      "outputs": [
        {
          "internalType": "uint256",
          "name": "",
          "type": "uint256"
        }
      ],
      "stateMutability": "view",
      "type": "function"
    },
    {
      "inputs": [],
      "name": "getMultiplierPerBlock",
      "outputs": [
        {
          "internalType": "uint256",
          "name": "",
          "type": "uint256"
        }
      ],
      "stateMutability": "view",
      "type": "function"
    },
    {
      "inputs": [
        {
          "internalType": "uint256",
          "name": "cash",
          "type": "uint256"
        },
        {
          "internalType": "uint256",
          "name": "borrows",
          "type": "uint256"
        },
        {
          "internalType": "uint256",
          "name": "reserves",
          "type": "uint256"
        },
        {
          "internalType": "uint256",
          "name": "reserveFactorMantissa",
          "type": "uint256"
        }
      ],
      "name": "getSupplyRate",
      "outputs": [
        {
          "internalType": "uint256",
          "name": "",
          "type": "uint256"
        }
      ],
      "stateMutability": "view",
      "type": "function"
    },
    {
      "inputs": [],
      "name": "isInterestRateModel",
      "outputs": [
        {
          "internalType": "bool",
          "name": "",
          "type": "bool"
        }
      ],
      "stateMutability": "view",
      "type": "function"
    },
    {
      "inputs": [],
      "name": "jumpMultiplierPerBlock",
      "outputs": [
        {
          "internalType": "uint256",
          "name": "",
          "type": "uint256"
        }
      ],
      "stateMutability": "view",
      "type": "function"
    },
    {
      "inputs": [],
      "name": "kink",
      "outputs": [
        {
          "internalType": "uint256",
          "name": "",
          "type": "uint256"
        }
      ],
      "stateMutability": "view",
      "type": "function"
    },
    {
      "inputs": [
        {
          "internalType": "uint256",
          "name": "cash",
          "type": "uint256"
        },
        {
          "internalType": "uint256",
          "name": "borrows",
          "type": "uint256"
        },
        {
          "internalType": "uint256",
          "name": "reserves",
          "type": "uint256"
        }
      ],
      "name": "utilizationRate",
      "outputs": [
        {
          "internalType": "uint256",
          "name": "",
          "type": "uint256"
        }
      ],
      "stateMutability": "pure",
      "type": "function"
    }
  ],
  "transactionHash": "0x5f5f5ecdfa3c18c829c12e49ae740282fa267f8dd4da6831e107119d51656e66",
  "args": [
    10512000,
    "5000000000000000",
    "3000000000000000000",
    "850000000000000000",
    3,
    "0xBb1Aa6e59E5163D8722a122cd66EBA614b59df0d"
  ],
  "numDeployments": 9,
  "bytecode": {
    "object": "0x608060405234801561001057600080fd5b50604051610a29380380610a2983398101604081905261002f916101bf565b60008260ff16118015610045575060088260ff16105b6100965760405162461bcd60e51b815260206004820152601a60248201527f5f6461792073686f756c642062652066726f6d203120746f203700000000000060448201526064015b60405180910390fd5b600186905560028590556100b58487610139602090811b61043c17901c565b60035560048390556005805460ff191660ff8416179055600080546001600160a01b0319166001600160a01b03831617905560015460025460408051928352602083019190915281018490527f865bfff1eb39dc370f97b2eb5990d963c50228429828ad935a4470166c711fc19060600160405180910390a15050505050506102a7565b600061018183836040518060400160405280601a81526020017f536166654d6174683a206469766973696f6e206279207a65726f00000000000081525061018860201b60201c565b9392505050565b600081836101a95760405162461bcd60e51b815260040161008d9190610230565b5060006101b68486610285565b95945050505050565b60008060008060008060c087890312156101d857600080fd5b86519550602087015194506040870151935060608701519250608087015160ff8116811461020557600080fd5b60a08801519092506001600160a01b038116811461022257600080fd5b809150509295509295509295565b600060208083528351808285015260005b8181101561025d57858101830151858201604001528201610241565b8181111561026f576000604083870101525b50601f01601f1916929092016040019392505050565b6000826102a257634e487b7160e01b600052601260045260246000fd5b500490565b610773806102b66000396000f3fe608060405234801561001057600080fd5b50600436106100ea5760003560e01c8063a385fb961161008c578063cbf408c111610066578063cbf408c11461019d578063d88e7afe146101a5578063dad59500146101b8578063fd2da339146101e357600080fd5b8063a385fb9614610178578063b816881614610181578063b9f9850a1461019457600080fd5b80636e71e2d8116100c85780636e71e2d8146101355780637b76ac91146101485780638a8dacd81461016757806399e238651461017057600080fd5b806315f24053146100ef5780631fcdf96b146101155780632191f92a1461011d575b600080fd5b6101026100fd366004610614565b6101ec565b6040519081526020015b60405180910390f35b61010261027a565b610125600181565b604051901515815260200161010c565b610102610143366004610614565b6102a1565b6005546101559060ff1681565b60405160ff909116815260200161010c565b61010260025481565b6101026102e1565b61010260015481565b61010261018f366004610640565b6102fd565b61010260035481565b610102610364565b6101026101b3366004610614565b6103e8565b6000546101cb906001600160a01b031681565b6040516001600160a01b03909116815260200161010c565b61010260045481565b6000806101fa8585856102a1565b905060006102066102e1565b9050600061021261027a565b9050600061023c83610236670de0b6b3a76400006102308887610487565b9061043c565b9061050b565b9050600454841161025257935061027392505050565b600061025f8989896103e8565b905061026b818361050b565b955050505050505b9392505050565b600061029c600454610230670de0b6b3a7640000610296610364565b90610487565b905090565b6000826102b057506000610273565b6102d96102c7836102c1878761050b565b9061056a565b61023085670de0b6b3a7640000610487565b949350505050565b600061029c670de0b6b3a7640000610230600254610296610364565b600080610312670de0b6b3a76400008461056a565b905060006103218787876101ec565b9050600061033b670de0b6b3a76400006102308486610487565b9050610358670de0b6b3a7640000610230836102968c8c8c6102a1565b98975050505050505050565b60015460008054600554604051632045ac2360e21b815260ff9091166004820152919261029c929091610230916064916001600160a01b031690638116b08c90602401602060405180830381865afa1580156103c4573d6000803e3d6000fd5b505050506040513d601f19601f820116820180604052508101906102309190610672565b6000806103f68585856102a1565b9050600061040f6004548361056a90919063ffffffff16565b9050610432670de0b6b3a76400006102306003548461048790919063ffffffff16565b9695505050505050565b600061047e83836040518060400160405280601a81526020017f536166654d6174683a206469766973696f6e206279207a65726f0000000000008152506105ac565b90505b92915050565b60008261049657506000610481565b60006104a283856106a1565b9050826104af85836106c0565b1461047e5760405162461bcd60e51b815260206004820152602160248201527f536166654d6174683a206d756c7469706c69636174696f6e206f766572666c6f6044820152607760f81b60648201526084015b60405180910390fd5b60008061051883856106e2565b90508381101561047e5760405162461bcd60e51b815260206004820152601b60248201527f536166654d6174683a206164646974696f6e206f766572666c6f7700000000006044820152606401610502565b600061047e83836040518060400160405280601f81526020017f536166654d6174683a207375627472616374696f6e20756e646572666c6f77008152506105e3565b600081836105cd5760405162461bcd60e51b815260040161050291906106fa565b5060006105da84866106c0565b95945050505050565b600081848411156106075760405162461bcd60e51b815260040161050291906106fa565b5060006105da848661074f565b60008060006060848603121561062957600080fd5b505081359360208301359350604090920135919050565b6000806000806080858703121561065657600080fd5b5050823594602084013594506040840135936060013592509050565b60006020828403121561068457600080fd5b5051919050565b634e487b7160e01b600052601160045260246000fd5b60008160001904831182151516156106bb576106bb61068b565b500290565b6000826106dd57634e487b7160e01b600052601260045260246000fd5b500490565b600082198211156106f5576106f561068b565b500190565b600060208083528351808285015260005b818110156107275785810183015185820160400152820161070b565b81811115610739576000604083870101525b50601f01601f1916929092016040019392505050565b6000828210156107615761076161068b565b50039056fea164736f6c634300080a000a",
    "linkReferences": {}
  },
  "methodIdentifiers": {
    "ANKR_BNB_R()": "dad59500",
    "baseRateMultiplier()": "8a8dacd8",
    "blocksPerYear()": "a385fb96",
    "day()": "7b76ac91",
    "getAnkrRate()": "cbf408c1",
    "getBaseRatePerBlock()": "99e23865",
    "getBorrowRate(uint256,uint256,uint256)": "15f24053",
    "getBorrowRatePostKink(uint256,uint256,uint256)": "d88e7afe",
    "getMultiplierPerBlock()": "1fcdf96b",
    "getSupplyRate(uint256,uint256,uint256,uint256)": "b8168816",
    "isInterestRateModel()": "2191f92a",
    "jumpMultiplierPerBlock()": "b9f9850a",
    "kink()": "fd2da339",
    "utilizationRate(uint256,uint256,uint256)": "6e71e2d8"
  }
}