{
  "address": "0x0eb2B2DdB440E979F0b4123b3E7B4B5419a2086F",
  "abi": [
    {
      "inputs": [
        {
          "internalType": "contract ERC20",
          "name": "_asset",
          "type": "address"
        },
        {
          "internalType": "contract FlywheelCore",
          "name": "_flywheel",
          "type": "address"
        },
        {
          "internalType": "uint256",
          "name": "_poolId",
          "type": "uint256"
        },
        {
          "internalType": "contract ERC20",
          "name": "_autoToken",
          "type": "address"
        },
        {
          "internalType": "contract IAutofarmV2",
          "name": "_autofarm",
          "type": "address"
        }
      ],
      "stateMutability": "nonpayable",
      "type": "constructor"
    },
    {
      "anonymous": false,
      "inputs": [
        {
          "indexed": true,
          "internalType": "address",
          "name": "owner",
          "type": "address"
        },
        {
          "indexed": true,
          "internalType": "address",
          "name": "spender",
          "type": "address"
        },
        {
          "indexed": false,
          "internalType": "uint256",
          "name": "amount",
          "type": "uint256"
        }
      ],
      "name": "Approval",
      "type": "event"
    },
    {
      "anonymous": false,
      "inputs": [
        {
          "indexed": true,
          "internalType": "address",
          "name": "caller",
          "type": "address"
        },
        {
          "indexed": true,
          "internalType": "address",
          "name": "owner",
          "type": "address"
        },
        {
          "indexed": false,
          "internalType": "uint256",
          "name": "assets",
          "type": "uint256"
        },
        {
          "indexed": false,
          "internalType": "uint256",
          "name": "shares",
          "type": "uint256"
        }
      ],
      "name": "Deposit",
      "type": "event"
    },
    {
      "anonymous": false,
      "inputs": [
        {
          "indexed": true,
          "internalType": "address",
          "name": "previousOwner",
          "type": "address"
        },
        {
          "indexed": true,
          "internalType": "address",
          "name": "newOwner",
          "type": "address"
        }
      ],
      "name": "OwnershipTransferred",
      "type": "event"
    },
    {
      "anonymous": false,
      "inputs": [
        {
          "indexed": false,
          "internalType": "address",
          "name": "account",
          "type": "address"
        }
      ],
      "name": "Paused",
      "type": "event"
    },
    {
      "anonymous": false,
      "inputs": [
        {
          "indexed": true,
          "internalType": "address",
          "name": "from",
          "type": "address"
        },
        {
          "indexed": true,
          "internalType": "address",
          "name": "to",
          "type": "address"
        },
        {
          "indexed": false,
          "internalType": "uint256",
          "name": "amount",
          "type": "uint256"
        }
      ],
      "name": "Transfer",
      "type": "event"
    },
    {
      "anonymous": false,
      "inputs": [
        {
          "indexed": false,
          "internalType": "address",
          "name": "account",
          "type": "address"
        }
      ],
      "name": "Unpaused",
      "type": "event"
    },
    {
      "anonymous": false,
      "inputs": [
        {
          "indexed": true,
          "internalType": "address",
          "name": "caller",
          "type": "address"
        },
        {
          "indexed": true,
          "internalType": "address",
          "name": "receiver",
          "type": "address"
        },
        {
          "indexed": true,
          "internalType": "address",
          "name": "owner",
          "type": "address"
        },
        {
          "indexed": false,
          "internalType": "uint256",
          "name": "assets",
          "type": "uint256"
        },
        {
          "indexed": false,
          "internalType": "uint256",
          "name": "shares",
          "type": "uint256"
        }
      ],
      "name": "Withdraw",
      "type": "event"
    },
    {
      "inputs": [],
      "name": "DOMAIN_SEPARATOR",
      "outputs": [
        {
          "internalType": "bytes32",
          "name": "",
          "type": "bytes32"
        }
      ],
      "stateMutability": "view",
      "type": "function"
    },
    {
      "inputs": [
        {
          "internalType": "address",
          "name": "",
          "type": "address"
        },
        {
          "internalType": "address",
          "name": "",
          "type": "address"
        }
      ],
      "name": "allowance",
      "outputs": [
        {
          "internalType": "uint256",
          "name": "",
          "type": "uint256"
        }
      ],
      "stateMutability": "view",
      "type": "function"
    },
    {
      "inputs": [
        {
          "internalType": "address",
          "name": "spender",
          "type": "address"
        },
        {
          "internalType": "uint256",
          "name": "amount",
          "type": "uint256"
        }
      ],
      "name": "approve",
      "outputs": [
        {
          "internalType": "bool",
          "name": "",
          "type": "bool"
        }
      ],
      "stateMutability": "nonpayable",
      "type": "function"
    },
    {
      "inputs": [],
      "name": "asset",
      "outputs": [
        {
          "internalType": "contract ERC20",
          "name": "",
          "type": "address"
        }
      ],
      "stateMutability": "view",
      "type": "function"
    },
    {
      "inputs": [],
      "name": "autofarm",
      "outputs": [
        {
          "internalType": "contract IAutofarmV2",
          "name": "",
          "type": "address"
        }
      ],
      "stateMutability": "view",
      "type": "function"
    },
    {
      "inputs": [
        {
          "internalType": "address",
          "name": "",
          "type": "address"
        }
      ],
      "name": "balanceOf",
      "outputs": [
        {
          "internalType": "uint256",
          "name": "",
          "type": "uint256"
        }
      ],
      "stateMutability": "view",
      "type": "function"
    },
    {
      "inputs": [
        {
          "internalType": "address",
          "name": "account",
          "type": "address"
        }
      ],
      "name": "balanceOfUnderlying",
      "outputs": [
        {
          "internalType": "uint256",
          "name": "",
          "type": "uint256"
        }
      ],
      "stateMutability": "view",
      "type": "function"
    },
    {
      "inputs": [
        {
          "internalType": "uint256",
          "name": "shares",
          "type": "uint256"
        }
      ],
      "name": "convertToAssets",
      "outputs": [
        {
          "internalType": "uint256",
          "name": "",
          "type": "uint256"
        }
      ],
      "stateMutability": "view",
      "type": "function"
    },
    {
      "inputs": [
        {
          "internalType": "uint256",
          "name": "assets",
          "type": "uint256"
        }
      ],
      "name": "convertToShares",
      "outputs": [
        {
          "internalType": "uint256",
          "name": "",
          "type": "uint256"
        }
      ],
      "stateMutability": "view",
      "type": "function"
    },
    {
      "inputs": [],
      "name": "decimals",
      "outputs": [
        {
          "internalType": "uint8",
          "name": "",
          "type": "uint8"
        }
      ],
      "stateMutability": "view",
      "type": "function"
    },
    {
      "inputs": [
        {
          "internalType": "uint256",
          "name": "assets",
          "type": "uint256"
        },
        {
          "internalType": "address",
          "name": "receiver",
          "type": "address"
        }
      ],
      "name": "deposit",
      "outputs": [
        {
          "internalType": "uint256",
          "name": "shares",
          "type": "uint256"
        }
      ],
      "stateMutability": "nonpayable",
      "type": "function"
    },
    {
      "inputs": [],
      "name": "emergencyWithdrawAndPause",
      "outputs": [],
      "stateMutability": "nonpayable",
      "type": "function"
    },
    {
      "inputs": [],
      "name": "flywheel",
      "outputs": [
        {
          "internalType": "contract FlywheelCore",
          "name": "",
          "type": "address"
        }
      ],
      "stateMutability": "view",
      "type": "function"
    },
    {
      "inputs": [
        {
          "internalType": "address",
          "name": "",
          "type": "address"
        }
      ],
      "name": "maxDeposit",
      "outputs": [
        {
          "internalType": "uint256",
          "name": "",
          "type": "uint256"
        }
      ],
      "stateMutability": "view",
      "type": "function"
    },
    {
      "inputs": [
        {
          "internalType": "address",
          "name": "",
          "type": "address"
        }
      ],
      "name": "maxMint",
      "outputs": [
        {
          "internalType": "uint256",
          "name": "",
          "type": "uint256"
        }
      ],
      "stateMutability": "view",
      "type": "function"
    },
    {
      "inputs": [
        {
          "internalType": "address",
          "name": "owner",
          "type": "address"
        }
      ],
      "name": "maxRedeem",
      "outputs": [
        {
          "internalType": "uint256",
          "name": "",
          "type": "uint256"
        }
      ],
      "stateMutability": "view",
      "type": "function"
    },
    {
      "inputs": [
        {
          "internalType": "address",
          "name": "owner",
          "type": "address"
        }
      ],
      "name": "maxWithdraw",
      "outputs": [
        {
          "internalType": "uint256",
          "name": "",
          "type": "uint256"
        }
      ],
      "stateMutability": "view",
      "type": "function"
    },
    {
      "inputs": [
        {
          "internalType": "uint256",
          "name": "shares",
          "type": "uint256"
        },
        {
          "internalType": "address",
          "name": "receiver",
          "type": "address"
        }
      ],
      "name": "mint",
      "outputs": [
        {
          "internalType": "uint256",
          "name": "assets",
          "type": "uint256"
        }
      ],
      "stateMutability": "nonpayable",
      "type": "function"
    },
    {
      "inputs": [],
      "name": "name",
      "outputs": [
        {
          "internalType": "string",
          "name": "",
          "type": "string"
        }
      ],
      "stateMutability": "view",
      "type": "function"
    },
    {
      "inputs": [
        {
          "internalType": "address",
          "name": "",
          "type": "address"
        }
      ],
      "name": "nonces",
      "outputs": [
        {
          "internalType": "uint256",
          "name": "",
          "type": "uint256"
        }
      ],
      "stateMutability": "view",
      "type": "function"
    },
    {
      "inputs": [],
      "name": "owner",
      "outputs": [
        {
          "internalType": "address",
          "name": "",
          "type": "address"
        }
      ],
      "stateMutability": "view",
      "type": "function"
    },
    {
      "inputs": [],
      "name": "paused",
      "outputs": [
        {
          "internalType": "bool",
          "name": "",
          "type": "bool"
        }
      ],
      "stateMutability": "view",
      "type": "function"
    },
    {
      "inputs": [
        {
          "internalType": "address",
          "name": "owner",
          "type": "address"
        },
        {
          "internalType": "address",
          "name": "spender",
          "type": "address"
        },
        {
          "internalType": "uint256",
          "name": "value",
          "type": "uint256"
        },
        {
          "internalType": "uint256",
          "name": "deadline",
          "type": "uint256"
        },
        {
          "internalType": "uint8",
          "name": "v",
          "type": "uint8"
        },
        {
          "internalType": "bytes32",
          "name": "r",
          "type": "bytes32"
        },
        {
          "internalType": "bytes32",
          "name": "s",
          "type": "bytes32"
        }
      ],
      "name": "permit",
      "outputs": [],
      "stateMutability": "nonpayable",
      "type": "function"
    },
    {
      "inputs": [],
      "name": "poolId",
      "outputs": [
        {
          "internalType": "uint256",
          "name": "",
          "type": "uint256"
        }
      ],
      "stateMutability": "view",
      "type": "function"
    },
    {
      "inputs": [
        {
          "internalType": "uint256",
          "name": "assets",
          "type": "uint256"
        }
      ],
      "name": "previewDeposit",
      "outputs": [
        {
          "internalType": "uint256",
          "name": "",
          "type": "uint256"
        }
      ],
      "stateMutability": "view",
      "type": "function"
    },
    {
      "inputs": [
        {
          "internalType": "uint256",
          "name": "shares",
          "type": "uint256"
        }
      ],
      "name": "previewMint",
      "outputs": [
        {
          "internalType": "uint256",
          "name": "",
          "type": "uint256"
        }
      ],
      "stateMutability": "view",
      "type": "function"
    },
    {
      "inputs": [
        {
          "internalType": "uint256",
          "name": "shares",
          "type": "uint256"
        }
      ],
      "name": "previewRedeem",
      "outputs": [
        {
          "internalType": "uint256",
          "name": "",
          "type": "uint256"
        }
      ],
      "stateMutability": "view",
      "type": "function"
    },
    {
      "inputs": [
        {
          "internalType": "uint256",
          "name": "assets",
          "type": "uint256"
        }
      ],
      "name": "previewWithdraw",
      "outputs": [
        {
          "internalType": "uint256",
          "name": "",
          "type": "uint256"
        }
      ],
      "stateMutability": "view",
      "type": "function"
    },
    {
      "inputs": [
        {
          "internalType": "uint256",
          "name": "shares",
          "type": "uint256"
        },
        {
          "internalType": "address",
          "name": "receiver",
          "type": "address"
        },
        {
          "internalType": "address",
          "name": "owner",
          "type": "address"
        }
      ],
      "name": "redeem",
      "outputs": [
        {
          "internalType": "uint256",
          "name": "assets",
          "type": "uint256"
        }
      ],
      "stateMutability": "nonpayable",
      "type": "function"
    },
    {
      "inputs": [],
      "name": "renounceOwnership",
      "outputs": [],
      "stateMutability": "nonpayable",
      "type": "function"
    },
    {
      "inputs": [],
      "name": "symbol",
      "outputs": [
        {
          "internalType": "string",
          "name": "",
          "type": "string"
        }
      ],
      "stateMutability": "view",
      "type": "function"
    },
    {
      "inputs": [],
      "name": "totalAssets",
      "outputs": [
        {
          "internalType": "uint256",
          "name": "",
          "type": "uint256"
        }
      ],
      "stateMutability": "view",
      "type": "function"
    },
    {
      "inputs": [],
      "name": "totalSupply",
      "outputs": [
        {
          "internalType": "uint256",
          "name": "",
          "type": "uint256"
        }
      ],
      "stateMutability": "view",
      "type": "function"
    },
    {
      "inputs": [
        {
          "internalType": "address",
          "name": "to",
          "type": "address"
        },
        {
          "internalType": "uint256",
          "name": "amount",
          "type": "uint256"
        }
      ],
      "name": "transfer",
      "outputs": [
        {
          "internalType": "bool",
          "name": "",
          "type": "bool"
        }
      ],
      "stateMutability": "nonpayable",
      "type": "function"
    },
    {
      "inputs": [
        {
          "internalType": "address",
          "name": "from",
          "type": "address"
        },
        {
          "internalType": "address",
          "name": "to",
          "type": "address"
        },
        {
          "internalType": "uint256",
          "name": "amount",
          "type": "uint256"
        }
      ],
      "name": "transferFrom",
      "outputs": [
        {
          "internalType": "bool",
          "name": "",
          "type": "bool"
        }
      ],
      "stateMutability": "nonpayable",
      "type": "function"
    },
    {
      "inputs": [
        {
          "internalType": "address",
          "name": "newOwner",
          "type": "address"
        }
      ],
      "name": "transferOwnership",
      "outputs": [],
      "stateMutability": "nonpayable",
      "type": "function"
    },
    {
      "inputs": [],
      "name": "unpause",
      "outputs": [],
      "stateMutability": "nonpayable",
      "type": "function"
    },
    {
      "inputs": [
        {
          "internalType": "uint256",
          "name": "assets",
          "type": "uint256"
        },
        {
          "internalType": "address",
          "name": "receiver",
          "type": "address"
        },
        {
          "internalType": "address",
          "name": "owner",
          "type": "address"
        }
      ],
      "name": "withdraw",
      "outputs": [
        {
          "internalType": "uint256",
          "name": "shares",
          "type": "uint256"
        }
      ],
      "stateMutability": "nonpayable",
      "type": "function"
    }
  ],
  "transactionHash": "0xc7ce71f89d855c9bcf4af6b82b7a18e1d2c70349b1681c38de096692db3fc392",
  "args": [
    "0xa184088a740c695E156F91f5cC086a06bb78b827",
    "0xD09b27B5EA296A901D2113c374A28f02Cd46010D",
    "0",
    "0xa184088a740c695E156F91f5cC086a06bb78b827",
    "0x0895196562C7868C5Be92459FaE7f877ED450452"
  ],
  "numDeployments": 2,
  "bytecode": {
    "object": "0x6101606040523480156200001257600080fd5b50604051620025063803806200250683398101604081905262000035916200055e565b84856001600160a01b03166306fdde036040518163ffffffff1660e01b8152600401600060405180830381865afa15801562000075573d6000803e3d6000fd5b505050506040513d6000823e601f3d908101601f191682016040526200009f91908101906200061b565b604051602001620000b19190620006d3565b604051602081830303815290604052866001600160a01b03166395d89b416040518163ffffffff1660e01b8152600401600060405180830381865afa158015620000ff573d6000803e3d6000fd5b505050506040513d6000823e601f3d908101601f191682016040526200012991908101906200061b565b6040516020016200013b919062000713565b6040516020818303038152906040528282828181846001600160a01b031663313ce5676040518163ffffffff1660e01b8152600401602060405180830381865afa1580156200018e573d6000803e3d6000fd5b505050506040513d601f19601f82011682018060405250810190620001b491906200073f565b8251620001c99060009060208601906200049f565b508151620001df9060019060208501906200049f565b5060ff81166080524660a052620001f5620003b1565b60c052505050506001600160a01b039190911660e0525062000217336200044d565b50506006805460ff60a01b19169055506101008390526001600160a01b038181166101208190528582166101405260e05160405163095ea7b360e01b8152600481019290925260001960248301529091169063095ea7b3906044016020604051808303816000875af115801562000292573d6000803e3d6000fd5b505050506040513d601f19601f82011682018060405250810190620002b891906200076b565b50816001600160a01b031663095ea7b3610140516001600160a01b031663f046ee5c6040518163ffffffff1660e01b8152600401602060405180830381865afa1580156200030a573d6000803e3d6000fd5b505050506040513d601f19601f820116820180604052508101906200033091906200078f565b6040516001600160e01b031960e084901b1681526001600160a01b03909116600482015260001960248201526044016020604051808303816000875af11580156200037f573d6000803e3d6000fd5b505050506040513d601f19601f82011682018060405250810190620003a591906200076b565b50505050505062000890565b60007f8b73c3c69bb8fe3d512ecc4cf759cc79239f7b179b0ffacaa9a75d522b39400f6000604051620003e59190620007ec565b6040805191829003822060208301939093528101919091527fc89efdaa54c0f20c7adf612882df0950f5a951637e0307cdcb4c672f298b8bc660608201524660808201523060a082015260c00160405160208183030381529060405280519060200120905090565b600680546001600160a01b038381166001600160a01b0319831681179093556040519116919082907f8be0079c531659141344cd1fd0a4f28419497f9722a3daafe3b4186f6b6457e090600090a35050565b828054620004ad90620007af565b90600052602060002090601f016020900481019282620004d157600085556200051c565b82601f10620004ec57805160ff19168380011785556200051c565b828001600101855582156200051c579182015b828111156200051c578251825591602001919060010190620004ff565b506200052a9291506200052e565b5090565b5b808211156200052a57600081556001016200052f565b6001600160a01b03811681146200055b57600080fd5b50565b600080600080600060a086880312156200057757600080fd5b8551620005848162000545565b6020870151909550620005978162000545565b604087015160608801519195509350620005b18162000545565b6080870151909250620005c48162000545565b809150509295509295909350565b634e487b7160e01b600052604160045260246000fd5b60005b8381101562000605578181015183820152602001620005eb565b8381111562000615576000848401525b50505050565b6000602082840312156200062e57600080fd5b81516001600160401b03808211156200064657600080fd5b818401915084601f8301126200065b57600080fd5b815181811115620006705762000670620005d2565b604051601f8201601f19908116603f011681019083821181831017156200069b576200069b620005d2565b81604052828152876020848701011115620006b557600080fd5b620006c8836020830160208801620005e8565b979650505050505050565b65026b4b230b9960d51b815260008251620006f6816006850160208701620005e8565b650815985d5b1d60d21b6006939091019283015250600c01919050565b6136bb60f11b81526000825162000732816002850160208701620005e8565b9190910160020192915050565b6000602082840312156200075257600080fd5b815160ff811681146200076457600080fd5b9392505050565b6000602082840312156200077e57600080fd5b815180151581146200076457600080fd5b600060208284031215620007a257600080fd5b8151620007648162000545565b600181811c90821680620007c457607f821691505b60208210811415620007e657634e487b7160e01b600052602260045260246000fd5b50919050565b600080835481600182811c9150808316806200080957607f831692505b60208084108214156200082a57634e487b7160e01b86526022600452602486fd5b818015620008415760018114620008535762000882565b60ff1986168952848901965062000882565b60008a81526020902060005b868110156200087a5781548b8201529085019083016200085f565b505084890196505b509498975050505050505050565b60805160a05160c05160e051610100516101205161014051611bb96200094d60003960006104310152600081816103aa015281816105c90152818161160401526116fb01526000818161036e0152818161059a015281816115d701526116ce01526000818161031c015281816109fc01528181610b1c01528181610cd401528181610d6a01528181610e4d01528181610f5301528181610fe901526110cc0152600061090a015260006108da015260006102db0152611bb96000f3fe608060405234801561001057600080fd5b50600436106102325760003560e01c806370a0823111610130578063b460af94116100b8578063d505accf1161007c578063d505accf146104fe578063d905777e14610511578063dd62ed3e1461053a578063ef8b30f714610565578063f2fde38b1461057857600080fd5b8063b460af94146104c5578063ba087652146104d8578063c63d75b614610390578063c6e6f592146104eb578063ce96cb771461035657600080fd5b80638da5cb5b116100ff5780638da5cb5b1461047357806394bf804d1461048457806395d89b4114610497578063a9059cbb1461049f578063b3d7f6b9146104b257600080fd5b806370a0823114610404578063715018a6146104245780637acf5b921461042c5780637ecebe001461045357600080fd5b80633644e515116101be578063402d267d11610182578063402d267d14610390578063465f0fbd146103a55780634cdad506146103cc5780635c975abb146103df5780636e553f65146103f157600080fd5b80633644e5151461030f57806338d52e0f146103175780633af9e669146103565780633e0dc34e146103695780633f4ba83a146102cc57600080fd5b80630a28a477116102055780630a28a4771461029d57806318160ddd146102b057806323b872dd146102b957806328357978146102cc578063313ce567146102d657600080fd5b806301e1d1141461023757806306fdde031461025257806307a2d13a14610267578063095ea7b31461027a575b600080fd5b61023f61058b565b6040519081526020015b60405180910390f35b61025a610641565b6040516102499190611812565b61023f610275366004611867565b6106cf565b61028d61028836600461189c565b6106fc565b6040519015158152602001610249565b61023f6102ab366004611867565b610769565b61023f60025481565b61028d6102c73660046118c6565b610789565b6102d4610869565b005b6102fd7f000000000000000000000000000000000000000000000000000000000000000081565b60405160ff9091168152602001610249565b61023f6108d6565b61033e7f000000000000000000000000000000000000000000000000000000000000000081565b6040516001600160a01b039091168152602001610249565b61023f610364366004611902565b61092c565b61023f7f000000000000000000000000000000000000000000000000000000000000000081565b61023f61039e366004611902565b5060001990565b61033e7f000000000000000000000000000000000000000000000000000000000000000081565b61023f6103da366004611867565b61094e565b600654600160a01b900460ff1661028d565b61023f6103ff36600461191d565b610959565b61023f610412366004611902565b60036020526000908152604090205481565b6102d4610a7e565b61033e7f000000000000000000000000000000000000000000000000000000000000000081565b61023f610461366004611902565b60056020526000908152604090205481565b6006546001600160a01b031661033e565b61023f61049236600461191d565b610ab4565b61025a610b9e565b61028d6104ad36600461189c565b610bab565b61023f6104c0366004611867565b610c11565b61023f6104d3366004611949565b610c30565b61023f6104e6366004611949565b610e74565b61023f6104f9366004611867565b6110f3565b6102d461050c366004611985565b611113565b61023f61051f366004611902565b6001600160a01b031660009081526003602052604090205490565b61023f6105483660046119f8565b600460209081526000928352604080842090915290825290205481565b61023f610573366004611867565b611357565b6102d4610586366004611902565b611362565b604051631ee136bb60e21b81527f000000000000000000000000000000000000000000000000000000000000000060048201523060248201526000907f00000000000000000000000000000000000000000000000000000000000000006001600160a01b031690637b84daec90604401602060405180830381865afa158015610618573d6000803e3d6000fd5b505050506040513d601f19601f8201168201806040525081019061063c9190611a22565b905090565b6000805461064e90611a3b565b80601f016020809104026020016040519081016040528092919081815260200182805461067a90611a3b565b80156106c75780601f1061069c576101008083540402835291602001916106c7565b820191906000526020600020905b8154815290600101906020018083116106aa57829003601f168201915b505050505081565b60025460009080156106f3576106ee6106e661058b565b8490836113fd565b6106f5565b825b9392505050565b3360008181526004602090815260408083206001600160a01b038716808552925280832085905551919290917f8c5be1e5ebec7d5bd14f71427d1e84f3dd0314c0f7b2291e5b200ac8c7c3b925906107579086815260200190565b60405180910390a35060015b92915050565b60025460009080156106f3576106ee8161078161058b565b85919061141c565b6001600160a01b038316600090815260046020908152604080832033845290915281205460001981146107e5576107c08382611a8c565b6001600160a01b03861660009081526004602090815260408083203384529091529020555b6001600160a01b0385166000908152600360205260408120805485929061080d908490611a8c565b90915550506001600160a01b0380851660008181526003602052604090819020805487019055519091871690600080516020611b8d833981519152906108569087815260200190565b60405180910390a3506001949350505050565b6006546001600160a01b0316331461089c5760405162461bcd60e51b815260040161089390611aa3565b60405180910390fd5b60405162461bcd60e51b815260206004820152600f60248201526e10b4b6b83632b6b2b73a30ba34b7b760891b6044820152606401610893565b60007f000000000000000000000000000000000000000000000000000000000000000046146109075761063c61144a565b507f000000000000000000000000000000000000000000000000000000000000000090565b6001600160a01b038116600090815260036020526040812054610763906106cf565b6000610763826106cf565b600654600090600160a01b900460ff16156109a95760405162461bcd60e51b815260206004820152601060248201526f14185d5cd8589b194e881c185d5cd95960821b6044820152606401610893565b6109b283611357565b9050806109ef5760405162461bcd60e51b815260206004820152600b60248201526a5a45524f5f53484152455360a81b6044820152606401610893565b610a246001600160a01b037f0000000000000000000000000000000000000000000000000000000000000000163330866114e4565b610a2e828261156e565b60408051848152602081018390526001600160a01b0384169133917fdcbc1c05240f31ff3ad067ef1ee35ce4997762752e3a095284754544f4c709d7910160405180910390a361076383826115c8565b6006546001600160a01b03163314610aa85760405162461bcd60e51b815260040161089390611aa3565b610ab2600061166d565b565b600654600090600160a01b900460ff1615610b045760405162461bcd60e51b815260206004820152601060248201526f14185d5cd8589b194e881c185d5cd95960821b6044820152606401610893565b610b0d83610c11565b9050610b446001600160a01b037f0000000000000000000000000000000000000000000000000000000000000000163330846114e4565b610b4e828461156e565b60408051828152602081018590526001600160a01b0384169133917fdcbc1c05240f31ff3ad067ef1ee35ce4997762752e3a095284754544f4c709d7910160405180910390a361076381846115c8565b6001805461064e90611a3b565b33600090815260036020526040812080548391908390610bcc908490611a8c565b90915550506001600160a01b03831660008181526003602052604090819020805485019055513390600080516020611b8d833981519152906107579086815260200190565b60025460009080156106f3576106ee610c2861058b565b84908361141c565b6000610c3b84610769565b9050336001600160a01b03831614610cab576001600160a01b03821660009081526004602090815260408083203384529091529020546000198114610ca957610c848282611a8c565b6001600160a01b03841660009081526004602090815260408083203384529091529020555b505b600654600160a01b900460ff16610deb576040516370a0823160e01b81523060048201526000907f00000000000000000000000000000000000000000000000000000000000000006001600160a01b0316906370a0823190602401602060405180830381865afa158015610d23573d6000803e3d6000fd5b505050506040513d601f19601f82011682018060405250810190610d479190611a22565b9050610d5385836116bf565b6040516370a0823160e01b815230600482015281907f00000000000000000000000000000000000000000000000000000000000000006001600160a01b0316906370a0823190602401602060405180830381865afa158015610db9573d6000803e3d6000fd5b505050506040513d601f19601f82011682018060405250810190610ddd9190611a22565b610de79190611a8c565b9450505b610df58282611732565b60408051858152602081018390526001600160a01b03808516929086169133917ffbde797d201c681b91056529119e0b02407c7bb96a4a2c75c01fc9667232c8db910160405180910390a46106f56001600160a01b037f0000000000000000000000000000000000000000000000000000000000000000168486611794565b6000336001600160a01b03831614610ee4576001600160a01b03821660009081526004602090815260408083203384529091529020546000198114610ee257610ebd8582611a8c565b6001600160a01b03841660009081526004602090815260408083203384529091529020555b505b610eed8461094e565b905080610f2a5760405162461bcd60e51b815260206004820152600b60248201526a5a45524f5f41535345545360a81b6044820152606401610893565b600654600160a01b900460ff1661106a576040516370a0823160e01b81523060048201526000907f00000000000000000000000000000000000000000000000000000000000000006001600160a01b0316906370a0823190602401602060405180830381865afa158015610fa2573d6000803e3d6000fd5b505050506040513d601f19601f82011682018060405250810190610fc69190611a22565b9050610fd282866116bf565b6040516370a0823160e01b815230600482015281907f00000000000000000000000000000000000000000000000000000000000000006001600160a01b0316906370a0823190602401602060405180830381865afa158015611038573d6000803e3d6000fd5b505050506040513d601f19601f8201168201806040525081019061105c9190611a22565b6110669190611a8c565b9150505b6110748285611732565b60408051828152602081018690526001600160a01b03808516929086169133917ffbde797d201c681b91056529119e0b02407c7bb96a4a2c75c01fc9667232c8db910160405180910390a46106f56001600160a01b037f0000000000000000000000000000000000000000000000000000000000000000168483611794565b60025460009080156106f3576106ee8161110b61058b565b8591906113fd565b428410156111635760405162461bcd60e51b815260206004820152601760248201527f5045524d49545f444541444c494e455f455850495245440000000000000000006044820152606401610893565b6000600161116f6108d6565b6001600160a01b038a811660008181526005602090815260409182902080546001810190915582517f6e71edae12b1b97f4d1f60370fef10105fa2faae0126114a169c64845d6126c98184015280840194909452938d166060840152608083018c905260a083019390935260c08083018b90528151808403909101815260e08301909152805192019190912061190160f01b6101008301526101028201929092526101228101919091526101420160408051601f198184030181528282528051602091820120600084529083018083525260ff871690820152606081018590526080810184905260a0016020604051602081039080840390855afa15801561127b573d6000803e3d6000fd5b5050604051601f1901519150506001600160a01b038116158015906112b15750876001600160a01b0316816001600160a01b0316145b6112ee5760405162461bcd60e51b815260206004820152600e60248201526d24a72b20a624a22fa9a4a3a722a960911b6044820152606401610893565b6001600160a01b0390811660009081526004602090815260408083208a8516808552908352928190208990555188815291928a16917f8c5be1e5ebec7d5bd14f71427d1e84f3dd0314c0f7b2291e5b200ac8c7c3b925910160405180910390a350505050505050565b6000610763826110f3565b6006546001600160a01b0316331461138c5760405162461bcd60e51b815260040161089390611aa3565b6001600160a01b0381166113f15760405162461bcd60e51b815260206004820152602660248201527f4f776e61626c653a206e6577206f776e657220697320746865207a65726f206160448201526564647265737360d01b6064820152608401610893565b6113fa8161166d565b50565b82820281151584158583048514171661141557600080fd5b0492915050565b82820281151584158583048514171661143457600080fd5b6001826001830304018115150290509392505050565b60007f8b73c3c69bb8fe3d512ecc4cf759cc79239f7b179b0ffacaa9a75d522b39400f600060405161147c9190611ad8565b6040805191829003822060208301939093528101919091527fc89efdaa54c0f20c7adf612882df0950f5a951637e0307cdcb4c672f298b8bc660608201524660808201523060a082015260c00160405160208183030381529060405280519060200120905090565b60006040516323b872dd60e01b81528460048201528360248201528260448201526020600060648360008a5af13d15601f3d11600160005114161716915050806115675760405162461bcd60e51b81526020600482015260146024820152731514905394d1915497d19493d357d1905253115160621b6044820152606401610893565b5050505050565b80600260008282546115809190611b74565b90915550506001600160a01b038216600081815260036020908152604080832080548601905551848152600080516020611b8d83398151915291015b60405180910390a35050565b604051631c57762b60e31b81527f00000000000000000000000000000000000000000000000000000000000000006004820152602481018390527f00000000000000000000000000000000000000000000000000000000000000006001600160a01b03169063e2bbb158906044015b600060405180830381600087803b15801561165157600080fd5b505af1158015611665573d6000803e3d6000fd5b505050505050565b600680546001600160a01b038381166001600160a01b0319831681179093556040519116919082907f8be0079c531659141344cd1fd0a4f28419497f9722a3daafe3b4186f6b6457e090600090a35050565b604051630441a3e760e41b81527f00000000000000000000000000000000000000000000000000000000000000006004820152602481018390527f00000000000000000000000000000000000000000000000000000000000000006001600160a01b03169063441a3e7090604401611637565b6001600160a01b0382166000908152600360205260408120805483929061175a908490611a8c565b90915550506002805482900390556040518181526000906001600160a01b03841690600080516020611b8d833981519152906020016115bc565b600060405163a9059cbb60e01b8152836004820152826024820152602060006044836000895af13d15601f3d116001600051141617169150508061180c5760405162461bcd60e51b815260206004820152600f60248201526e1514905394d1915497d19052531151608a1b6044820152606401610893565b50505050565b600060208083528351808285015260005b8181101561183f57858101830151858201604001528201611823565b81811115611851576000604083870101525b50601f01601f1916929092016040019392505050565b60006020828403121561187957600080fd5b5035919050565b80356001600160a01b038116811461189757600080fd5b919050565b600080604083850312156118af57600080fd5b6118b883611880565b946020939093013593505050565b6000806000606084860312156118db57600080fd5b6118e484611880565b92506118f260208501611880565b9150604084013590509250925092565b60006020828403121561191457600080fd5b6106f582611880565b6000806040838503121561193057600080fd5b8235915061194060208401611880565b90509250929050565b60008060006060848603121561195e57600080fd5b8335925061196e60208501611880565b915061197c60408501611880565b90509250925092565b600080600080600080600060e0888a0312156119a057600080fd5b6119a988611880565b96506119b760208901611880565b95506040880135945060608801359350608088013560ff811681146119db57600080fd5b9699959850939692959460a0840135945060c09093013592915050565b60008060408385031215611a0b57600080fd5b611a1483611880565b915061194060208401611880565b600060208284031215611a3457600080fd5b5051919050565b600181811c90821680611a4f57607f821691505b60208210811415611a7057634e487b7160e01b600052602260045260246000fd5b50919050565b634e487b7160e01b600052601160045260246000fd5b600082821015611a9e57611a9e611a76565b500390565b6020808252818101527f4f776e61626c653a2063616c6c6572206973206e6f7420746865206f776e6572604082015260600190565b600080835481600182811c915080831680611af457607f831692505b6020808410821415611b1457634e487b7160e01b86526022600452602486fd5b818015611b285760018114611b3957611b66565b60ff19861689528489019650611b66565b60008a81526020902060005b86811015611b5e5781548b820152908501908301611b45565b505084890196505b509498975050505050505050565b60008219821115611b8757611b87611a76565b50019056feddf252ad1be2c89b69c2b068fc378daa952ba7f163c4a11628f55a4df523b3efa164736f6c634300080a000a",
    "linkReferences": {}
  },
  "methodIdentifiers": {
    "DOMAIN_SEPARATOR()": "3644e515",
    "allowance(address,address)": "dd62ed3e",
    "approve(address,uint256)": "095ea7b3",
    "asset()": "38d52e0f",
    "autofarm()": "465f0fbd",
    "balanceOf(address)": "70a08231",
    "balanceOfUnderlying(address)": "3af9e669",
    "convertToAssets(uint256)": "07a2d13a",
    "convertToShares(uint256)": "c6e6f592",
    "decimals()": "313ce567",
    "deposit(uint256,address)": "6e553f65",
    "emergencyWithdrawAndPause()": "28357978",
    "flywheel()": "7acf5b92",
    "maxDeposit(address)": "402d267d",
    "maxMint(address)": "c63d75b6",
    "maxRedeem(address)": "d905777e",
    "maxWithdraw(address)": "ce96cb77",
    "mint(uint256,address)": "94bf804d",
    "name()": "06fdde03",
    "nonces(address)": "7ecebe00",
    "owner()": "8da5cb5b",
    "paused()": "5c975abb",
    "permit(address,address,uint256,uint256,uint8,bytes32,bytes32)": "d505accf",
    "poolId()": "3e0dc34e",
    "previewDeposit(uint256)": "ef8b30f7",
    "previewMint(uint256)": "b3d7f6b9",
    "previewRedeem(uint256)": "4cdad506",
    "previewWithdraw(uint256)": "0a28a477",
    "redeem(uint256,address,address)": "ba087652",
    "renounceOwnership()": "715018a6",
    "symbol()": "95d89b41",
    "totalAssets()": "01e1d114",
    "totalSupply()": "18160ddd",
    "transfer(address,uint256)": "a9059cbb",
    "transferFrom(address,address,uint256)": "23b872dd",
    "transferOwnership(address)": "f2fde38b",
    "unpause()": "3f4ba83a",
    "withdraw(uint256,address,address)": "b460af94"
  }
}