{
  "address": "0xa65349e0bCAfd3b11E0698fB95e922249747cE80",
  "abi": [
    {
      "inputs": [
        {
          "internalType": "contract ERC20",
          "name": "_asset",
          "type": "address"
        },
        {
          "internalType": "contract IBeefyVault",
          "name": "_beefyVault",
          "type": "address"
        },
        {
          "internalType": "uint256",
          "name": "_withdrawalFee",
          "type": "uint256"
        }
      ],
      "stateMutability": "nonpayable",
      "type": "constructor"
    },
    {
      "anonymous": false,
      "inputs": [
        {
          "indexed": true,
          "internalType": "address",
          "name": "owner",
          "type": "address"
        },
        {
          "indexed": true,
          "internalType": "address",
          "name": "spender",
          "type": "address"
        },
        {
          "indexed": false,
          "internalType": "uint256",
          "name": "amount",
          "type": "uint256"
        }
      ],
      "name": "Approval",
      "type": "event"
    },
    {
      "anonymous": false,
      "inputs": [
        {
          "indexed": true,
          "internalType": "address",
          "name": "caller",
          "type": "address"
        },
        {
          "indexed": true,
          "internalType": "address",
          "name": "owner",
          "type": "address"
        },
        {
          "indexed": false,
          "internalType": "uint256",
          "name": "assets",
          "type": "uint256"
        },
        {
          "indexed": false,
          "internalType": "uint256",
          "name": "shares",
          "type": "uint256"
        }
      ],
      "name": "Deposit",
      "type": "event"
    },
    {
      "anonymous": false,
      "inputs": [
        {
          "indexed": true,
          "internalType": "address",
          "name": "previousOwner",
          "type": "address"
        },
        {
          "indexed": true,
          "internalType": "address",
          "name": "newOwner",
          "type": "address"
        }
      ],
      "name": "OwnershipTransferred",
      "type": "event"
    },
    {
      "anonymous": false,
      "inputs": [
        {
          "indexed": true,
          "internalType": "address",
          "name": "from",
          "type": "address"
        },
        {
          "indexed": true,
          "internalType": "address",
          "name": "to",
          "type": "address"
        },
        {
          "indexed": false,
          "internalType": "uint256",
          "name": "amount",
          "type": "uint256"
        }
      ],
      "name": "Transfer",
      "type": "event"
    },
    {
      "anonymous": false,
      "inputs": [
        {
          "indexed": true,
          "internalType": "address",
          "name": "caller",
          "type": "address"
        },
        {
          "indexed": true,
          "internalType": "address",
          "name": "receiver",
          "type": "address"
        },
        {
          "indexed": true,
          "internalType": "address",
          "name": "owner",
          "type": "address"
        },
        {
          "indexed": false,
          "internalType": "uint256",
          "name": "assets",
          "type": "uint256"
        },
        {
          "indexed": false,
          "internalType": "uint256",
          "name": "shares",
          "type": "uint256"
        }
      ],
      "name": "Withdraw",
      "type": "event"
    },
    {
      "inputs": [],
      "name": "DOMAIN_SEPARATOR",
      "outputs": [
        {
          "internalType": "bytes32",
          "name": "",
          "type": "bytes32"
        }
      ],
      "stateMutability": "view",
      "type": "function"
    },
    {
      "inputs": [
        {
          "internalType": "address",
          "name": "",
          "type": "address"
        },
        {
          "internalType": "address",
          "name": "",
          "type": "address"
        }
      ],
      "name": "allowance",
      "outputs": [
        {
          "internalType": "uint256",
          "name": "",
          "type": "uint256"
        }
      ],
      "stateMutability": "view",
      "type": "function"
    },
    {
      "inputs": [
        {
          "internalType": "address",
          "name": "spender",
          "type": "address"
        },
        {
          "internalType": "uint256",
          "name": "amount",
          "type": "uint256"
        }
      ],
      "name": "approve",
      "outputs": [
        {
          "internalType": "bool",
          "name": "",
          "type": "bool"
        }
      ],
      "stateMutability": "nonpayable",
      "type": "function"
    },
    {
      "inputs": [],
      "name": "asset",
      "outputs": [
        {
          "internalType": "contract ERC20",
          "name": "",
          "type": "address"
        }
      ],
      "stateMutability": "view",
      "type": "function"
    },
    {
      "inputs": [
        {
          "internalType": "address",
          "name": "",
          "type": "address"
        }
      ],
      "name": "balanceOf",
      "outputs": [
        {
          "internalType": "uint256",
          "name": "",
          "type": "uint256"
        }
      ],
      "stateMutability": "view",
      "type": "function"
    },
    {
      "inputs": [
        {
          "internalType": "address",
          "name": "account",
          "type": "address"
        }
      ],
      "name": "balanceOfUnderlying",
      "outputs": [
        {
          "internalType": "uint256",
          "name": "",
          "type": "uint256"
        }
      ],
      "stateMutability": "view",
      "type": "function"
    },
    {
      "inputs": [],
      "name": "beefyVault",
      "outputs": [
        {
          "internalType": "contract IBeefyVault",
          "name": "",
          "type": "address"
        }
      ],
      "stateMutability": "view",
      "type": "function"
    },
    {
      "inputs": [
        {
          "internalType": "uint256",
          "name": "shares",
          "type": "uint256"
        }
      ],
      "name": "convertToAssets",
      "outputs": [
        {
          "internalType": "uint256",
          "name": "",
          "type": "uint256"
        }
      ],
      "stateMutability": "view",
      "type": "function"
    },
    {
      "inputs": [
        {
          "internalType": "uint256",
          "name": "shares",
          "type": "uint256"
        }
      ],
      "name": "convertToBeefyVaultShares",
      "outputs": [
        {
          "internalType": "uint256",
          "name": "",
          "type": "uint256"
        }
      ],
      "stateMutability": "nonpayable",
      "type": "function"
    },
    {
      "inputs": [
        {
          "internalType": "uint256",
          "name": "assets",
          "type": "uint256"
        }
      ],
      "name": "convertToShares",
      "outputs": [
        {
          "internalType": "uint256",
          "name": "",
          "type": "uint256"
        }
      ],
      "stateMutability": "view",
      "type": "function"
    },
    {
      "inputs": [],
      "name": "decimals",
      "outputs": [
        {
          "internalType": "uint8",
          "name": "",
          "type": "uint8"
        }
      ],
      "stateMutability": "view",
      "type": "function"
    },
    {
      "inputs": [
        {
          "internalType": "uint256",
          "name": "assets",
          "type": "uint256"
        },
        {
          "internalType": "address",
          "name": "receiver",
          "type": "address"
        }
      ],
      "name": "deposit",
      "outputs": [
        {
          "internalType": "uint256",
          "name": "shares",
          "type": "uint256"
        }
      ],
      "stateMutability": "nonpayable",
      "type": "function"
    },
    {
      "inputs": [
        {
          "internalType": "address",
          "name": "",
          "type": "address"
        }
      ],
      "name": "maxDeposit",
      "outputs": [
        {
          "internalType": "uint256",
          "name": "",
          "type": "uint256"
        }
      ],
      "stateMutability": "view",
      "type": "function"
    },
    {
      "inputs": [
        {
          "internalType": "address",
          "name": "",
          "type": "address"
        }
      ],
      "name": "maxMint",
      "outputs": [
        {
          "internalType": "uint256",
          "name": "",
          "type": "uint256"
        }
      ],
      "stateMutability": "view",
      "type": "function"
    },
    {
      "inputs": [
        {
          "internalType": "address",
          "name": "owner",
          "type": "address"
        }
      ],
      "name": "maxRedeem",
      "outputs": [
        {
          "internalType": "uint256",
          "name": "",
          "type": "uint256"
        }
      ],
      "stateMutability": "view",
      "type": "function"
    },
    {
      "inputs": [
        {
          "internalType": "address",
          "name": "owner",
          "type": "address"
        }
      ],
      "name": "maxWithdraw",
      "outputs": [
        {
          "internalType": "uint256",
          "name": "",
          "type": "uint256"
        }
      ],
      "stateMutability": "view",
      "type": "function"
    },
    {
      "inputs": [
        {
          "internalType": "uint256",
          "name": "shares",
          "type": "uint256"
        },
        {
          "internalType": "address",
          "name": "receiver",
          "type": "address"
        }
      ],
      "name": "mint",
      "outputs": [
        {
          "internalType": "uint256",
          "name": "assets",
          "type": "uint256"
        }
      ],
      "stateMutability": "nonpayable",
      "type": "function"
    },
    {
      "inputs": [],
      "name": "name",
      "outputs": [
        {
          "internalType": "string",
          "name": "",
          "type": "string"
        }
      ],
      "stateMutability": "view",
      "type": "function"
    },
    {
      "inputs": [
        {
          "internalType": "address",
          "name": "",
          "type": "address"
        }
      ],
      "name": "nonces",
      "outputs": [
        {
          "internalType": "uint256",
          "name": "",
          "type": "uint256"
        }
      ],
      "stateMutability": "view",
      "type": "function"
    },
    {
      "inputs": [],
      "name": "owner",
      "outputs": [
        {
          "internalType": "address",
          "name": "",
          "type": "address"
        }
      ],
      "stateMutability": "view",
      "type": "function"
    },
    {
      "inputs": [
        {
          "internalType": "address",
          "name": "owner",
          "type": "address"
        },
        {
          "internalType": "address",
          "name": "spender",
          "type": "address"
        },
        {
          "internalType": "uint256",
          "name": "value",
          "type": "uint256"
        },
        {
          "internalType": "uint256",
          "name": "deadline",
          "type": "uint256"
        },
        {
          "internalType": "uint8",
          "name": "v",
          "type": "uint8"
        },
        {
          "internalType": "bytes32",
          "name": "r",
          "type": "bytes32"
        },
        {
          "internalType": "bytes32",
          "name": "s",
          "type": "bytes32"
        }
      ],
      "name": "permit",
      "outputs": [],
      "stateMutability": "nonpayable",
      "type": "function"
    },
    {
      "inputs": [
        {
          "internalType": "uint256",
          "name": "assets",
          "type": "uint256"
        }
      ],
      "name": "previewDeposit",
      "outputs": [
        {
          "internalType": "uint256",
          "name": "",
          "type": "uint256"
        }
      ],
      "stateMutability": "view",
      "type": "function"
    },
    {
      "inputs": [
        {
          "internalType": "uint256",
          "name": "shares",
          "type": "uint256"
        }
      ],
      "name": "previewMint",
      "outputs": [
        {
          "internalType": "uint256",
          "name": "",
          "type": "uint256"
        }
      ],
      "stateMutability": "view",
      "type": "function"
    },
    {
      "inputs": [
        {
          "internalType": "uint256",
          "name": "shares",
          "type": "uint256"
        }
      ],
      "name": "previewRedeem",
      "outputs": [
        {
          "internalType": "uint256",
          "name": "",
          "type": "uint256"
        }
      ],
      "stateMutability": "view",
      "type": "function"
    },
    {
      "inputs": [
        {
          "internalType": "uint256",
          "name": "assets",
          "type": "uint256"
        }
      ],
      "name": "previewWithdraw",
      "outputs": [
        {
          "internalType": "uint256",
          "name": "",
          "type": "uint256"
        }
      ],
      "stateMutability": "view",
      "type": "function"
    },
    {
      "inputs": [
        {
          "internalType": "uint256",
          "name": "shares",
          "type": "uint256"
        },
        {
          "internalType": "address",
          "name": "receiver",
          "type": "address"
        },
        {
          "internalType": "address",
          "name": "owner",
          "type": "address"
        }
      ],
      "name": "redeem",
      "outputs": [
        {
          "internalType": "uint256",
          "name": "assets",
          "type": "uint256"
        }
      ],
      "stateMutability": "nonpayable",
      "type": "function"
    },
    {
      "inputs": [],
      "name": "renounceOwnership",
      "outputs": [],
      "stateMutability": "nonpayable",
      "type": "function"
    },
    {
      "inputs": [],
      "name": "symbol",
      "outputs": [
        {
          "internalType": "string",
          "name": "",
          "type": "string"
        }
      ],
      "stateMutability": "view",
      "type": "function"
    },
    {
      "inputs": [],
      "name": "totalAssets",
      "outputs": [
        {
          "internalType": "uint256",
          "name": "",
          "type": "uint256"
        }
      ],
      "stateMutability": "view",
      "type": "function"
    },
    {
      "inputs": [],
      "name": "totalSupply",
      "outputs": [
        {
          "internalType": "uint256",
          "name": "",
          "type": "uint256"
        }
      ],
      "stateMutability": "view",
      "type": "function"
    },
    {
      "inputs": [
        {
          "internalType": "address",
          "name": "to",
          "type": "address"
        },
        {
          "internalType": "uint256",
          "name": "amount",
          "type": "uint256"
        }
      ],
      "name": "transfer",
      "outputs": [
        {
          "internalType": "bool",
          "name": "",
          "type": "bool"
        }
      ],
      "stateMutability": "nonpayable",
      "type": "function"
    },
    {
      "inputs": [
        {
          "internalType": "address",
          "name": "from",
          "type": "address"
        },
        {
          "internalType": "address",
          "name": "to",
          "type": "address"
        },
        {
          "internalType": "uint256",
          "name": "amount",
          "type": "uint256"
        }
      ],
      "name": "transferFrom",
      "outputs": [
        {
          "internalType": "bool",
          "name": "",
          "type": "bool"
        }
      ],
      "stateMutability": "nonpayable",
      "type": "function"
    },
    {
      "inputs": [
        {
          "internalType": "address",
          "name": "newOwner",
          "type": "address"
        }
      ],
      "name": "transferOwnership",
      "outputs": [],
      "stateMutability": "nonpayable",
      "type": "function"
    },
    {
      "inputs": [
        {
          "internalType": "uint256",
          "name": "assets",
          "type": "uint256"
        },
        {
          "internalType": "address",
          "name": "receiver",
          "type": "address"
        },
        {
          "internalType": "address",
          "name": "owner",
          "type": "address"
        }
      ],
      "name": "withdraw",
      "outputs": [
        {
          "internalType": "uint256",
          "name": "shares",
          "type": "uint256"
        }
      ],
      "stateMutability": "nonpayable",
      "type": "function"
    },
    {
      "inputs": [],
      "name": "withdrawalFee",
      "outputs": [
        {
          "internalType": "uint256",
          "name": "",
          "type": "uint256"
        }
      ],
      "stateMutability": "view",
      "type": "function"
    }
  ],
  "transactionHash": "0x2cdae8b30393633f57543d26638a8d780cc938e8515690b363434902abefcbdd",
  "args": [
    "0x84392649eb0bC1c1532F2180E58Bae4E1dAbd8D6",
    "0x94e85b8e050f3f281cb9597cc0144f1f7af1fe9b",
    "10"
  ],
  "numDeployments": 4,
  "bytecode": {
    "object": "0x6101406040526127106007553480156200001857600080fd5b506040516200239e3803806200239e8339810160408190526200003b9162000461565b82836001600160a01b03166306fdde036040518163ffffffff1660e01b8152600401600060405180830381865afa1580156200007b573d6000803e3d6000fd5b505050506040513d6000823e601f3d908101601f19168201604052620000a59190810190620004f2565b604051602001620000b79190620005aa565b604051602081830303815290604052846001600160a01b03166395d89b416040518163ffffffff1660e01b8152600401600060405180830381865afa15801562000105573d6000803e3d6000fd5b505050506040513d6000823e601f3d908101601f191682016040526200012f9190810190620004f2565b604051602001620001419190620005ea565b6040516020818303038152906040528282828181846001600160a01b031663313ce5676040518163ffffffff1660e01b8152600401602060405180830381865afa15801562000194573d6000803e3d6000fd5b505050506040513d601f19601f82011682018060405250810190620001ba919062000616565b8251620001cf906000906020860190620003a2565b508151620001e5906001906020850190620003a2565b5060ff81166080524660a052620001fb620002b4565b60c052505050506001600160a01b039190911660e052506200021d3362000350565b5050506001600160a01b0382811661010081905261012083905260e05160405163095ea7b360e01b8152600481019290925260001960248301529091169063095ea7b3906044016020604051808303816000875af115801562000284573d6000803e3d6000fd5b505050506040513d601f19601f82011682018060405250810190620002aa919062000642565b5050505062000747565b60007f8b73c3c69bb8fe3d512ecc4cf759cc79239f7b179b0ffacaa9a75d522b39400f6000604051620002e89190620006a3565b6040805191829003822060208301939093528101919091527fc89efdaa54c0f20c7adf612882df0950f5a951637e0307cdcb4c672f298b8bc660608201524660808201523060a082015260c00160405160208183030381529060405280519060200120905090565b600680546001600160a01b038381166001600160a01b0319831681179093556040519116919082907f8be0079c531659141344cd1fd0a4f28419497f9722a3daafe3b4186f6b6457e090600090a35050565b828054620003b09062000666565b90600052602060002090601f016020900481019282620003d457600085556200041f565b82601f10620003ef57805160ff19168380011785556200041f565b828001600101855582156200041f579182015b828111156200041f57825182559160200191906001019062000402565b506200042d92915062000431565b5090565b5b808211156200042d576000815560010162000432565b6001600160a01b03811681146200045e57600080fd5b50565b6000806000606084860312156200047757600080fd5b8351620004848162000448565b6020850151909350620004978162000448565b80925050604084015190509250925092565b634e487b7160e01b600052604160045260246000fd5b60005b83811015620004dc578181015183820152602001620004c2565b83811115620004ec576000848401525b50505050565b6000602082840312156200050557600080fd5b81516001600160401b03808211156200051d57600080fd5b818401915084601f8301126200053257600080fd5b815181811115620005475762000547620004a9565b604051601f8201601f19908116603f01168101908382118183101715620005725762000572620004a9565b816040528281528760208487010111156200058c57600080fd5b6200059f836020830160208801620004bf565b979650505050505050565b65026b4b230b9960d51b815260008251620005cd816006850160208701620004bf565b650815985d5b1d60d21b6006939091019283015250600c01919050565b6136bb60f11b81526000825162000609816002850160208701620004bf565b9190910160020192915050565b6000602082840312156200062957600080fd5b815160ff811681146200063b57600080fd5b9392505050565b6000602082840312156200065557600080fd5b815180151581146200063b57600080fd5b600181811c908216806200067b57607f821691505b602082108114156200069d57634e487b7160e01b600052602260045260246000fd5b50919050565b600080835481600182811c915080831680620006c057607f831692505b6020808410821415620006e157634e487b7160e01b86526022600452602486fd5b818015620006f857600181146200070a5762000739565b60ff1986168952848901965062000739565b60008a81526020902060005b86811015620007315781548b82015290850190830162000716565b505084890196505b509498975050505050505050565b60805160a05160c05160e0516101005161012051611b9762000807600039600081816103ef015281816108d90152610b7201526000818161029401528181610543015281816105c50152818161065a0152818161081b01528181610abc0152818161130a0152818161163401526116f10152600081816103300152818161084901528181610aea01528181610c1401528181610d1601528181610f11015261105a01526000610a5101526000610a21015260006102ef0152611b976000f3fe608060405234801561001057600080fd5b50600436106102115760003560e01c80637ecebe0011610125578063c63d75b6116100ad578063d905777e1161007c578063d905777e146104af578063dd62ed3e146104d8578063e30f4e4314610503578063ef8b30f714610516578063f2fde38b1461052957600080fd5b8063c63d75b614610365578063c6e6f59214610489578063ce96cb7714610352578063d505accf1461049c57600080fd5b806395d89b41116100f457806395d89b4114610435578063a9059cbb1461043d578063b3d7f6b914610450578063b460af9414610463578063ba0876521461047657600080fd5b80637ecebe00146103ca5780638bc7e8c4146103ea5780638da5cb5b1461041157806394bf804d1461042257600080fd5b8063313ce567116101a8578063402d267d11610177578063402d267d146103655780634cdad5061461037a5780636e553f651461038d57806370a08231146103a0578063715018a6146103c057600080fd5b8063313ce567146102ea5780633644e5151461032357806338d52e0f1461032b5780633af9e6691461035257600080fd5b80630a28a477116101e45780630a28a4771461027c5780630f0d65691461028f57806318160ddd146102ce57806323b872dd146102d757600080fd5b806301e1d1141461021657806306fdde031461023157806307a2d13a14610246578063095ea7b314610259575b600080fd5b61021e61053c565b6040519081526020015b60405180910390f35b6102396106d9565b6040516102289190611825565b61021e61025436600461187a565b610767565b61026c6102673660046118af565b610794565b6040519015158152602001610228565b61021e61028a36600461187a565b610801565b6102b67f000000000000000000000000000000000000000000000000000000000000000081565b6040516001600160a01b039091168152602001610228565b61021e60025481565b61026c6102e53660046118d9565b61093d565b6103117f000000000000000000000000000000000000000000000000000000000000000081565b60405160ff9091168152602001610228565b61021e610a1d565b6102b67f000000000000000000000000000000000000000000000000000000000000000081565b61021e610360366004611915565b610a73565b61021e610373366004611915565b5060001990565b61021e61038836600461187a565b610a95565b61021e61039b366004611930565b610bba565b61021e6103ae366004611915565b60036020526000908152604090205481565b6103c8610c96565b005b61021e6103d8366004611915565b60056020526000908152604090205481565b61021e7f000000000000000000000000000000000000000000000000000000000000000081565b6006546001600160a01b03166102b6565b61021e610430366004611930565b610cfc565b610239610d98565b61026c61044b3660046118af565b610da5565b61021e61045e36600461187a565b610e0b565b61021e61047136600461195c565b610e2a565b61021e61048436600461195c565b610f38565b61021e61049736600461187a565b611081565b6103c86104aa366004611998565b6110a1565b61021e6104bd366004611915565b6001600160a01b031660009081526003602052604090205490565b61021e6104e6366004611a0b565b600460209081526000928352604080842090915290825290205481565b61021e61051136600461187a565b6112e5565b61021e61052436600461187a565b61137d565b6103c8610537366004611915565b611388565b60006106d47f00000000000000000000000000000000000000000000000000000000000000006001600160a01b031663b69ef8a86040518163ffffffff1660e01b8152600401602060405180830381865afa15801561059f573d6000803e3d6000fd5b505050506040513d601f19601f820116820180604052508101906105c39190611a35565b7f00000000000000000000000000000000000000000000000000000000000000006001600160a01b03166318160ddd6040518163ffffffff1660e01b8152600401602060405180830381865afa158015610621573d6000803e3d6000fd5b505050506040513d601f19601f820116820180604052508101906106459190611a35565b6040516370a0823160e01b81523060048201527f00000000000000000000000000000000000000000000000000000000000000006001600160a01b0316906370a0823190602401602060405180830381865afa1580156106a9573d6000803e3d6000fd5b505050506040513d601f19601f820116820180604052508101906106cd9190611a35565b9190611453565b905090565b600080546106e690611a4e565b80601f016020809104026020016040519081016040528092919081815260200182805461071290611a4e565b801561075f5780601f106107345761010080835404028352916020019161075f565b820191906000526020600020905b81548152906001019060200180831161074257829003601f168201915b505050505081565b600254600090801561078b5761078661077e61053c565b849083611481565b61078d565b825b9392505050565b3360008181526004602090815260408083206001600160a01b038716808552925280832085905551919290917f8c5be1e5ebec7d5bd14f71427d1e84f3dd0314c0f7b2291e5b200ac8c7c3b925906107ef9086815260200190565b60405180910390a35060015b92915050565b6002546040516370a0823160e01b81526001600160a01b037f0000000000000000000000000000000000000000000000000000000000000000811660048301526000929183917f000000000000000000000000000000000000000000000000000000000000000016906370a0823190602401602060405180830381865afa158015610890573d6000803e3d6000fd5b505050506040513d601f19601f820116820180604052508101906108b49190611a35565b9050838110156109145760006108ca8286611a9f565b600754909150610906906108fe7f000000000000000000000000000000000000000000000000000000000000000082611a9f565b839190611453565b6109109083611ab6565b9450505b81156109335761092e8261092661053c565b869190611481565b610935565b835b949350505050565b6001600160a01b03831660009081526004602090815260408083203384529091528120546000198114610999576109748382611a9f565b6001600160a01b03861660009081526004602090815260408083203384529091529020555b6001600160a01b038516600090815260036020526040812080548592906109c1908490611a9f565b90915550506001600160a01b0380851660008181526003602052604090819020805487019055519091871690600080516020611b6b83398151915290610a0a9087815260200190565b60405180910390a3506001949350505050565b60007f00000000000000000000000000000000000000000000000000000000000000004614610a4e576106d46114a0565b507f000000000000000000000000000000000000000000000000000000000000000090565b6001600160a01b0381166000908152600360205260408120546107fb90610767565b60025460009081610aa584610767565b6040516370a0823160e01b81526001600160a01b037f0000000000000000000000000000000000000000000000000000000000000000811660048301529192506000917f000000000000000000000000000000000000000000000000000000000000000016906370a0823190602401602060405180830381865afa158015610b31573d6000803e3d6000fd5b505050506040513d601f19601f82011682018060405250810190610b559190611a35565b905081811015610bb2576000610b6b8284611a9f565b9050610ba47f0000000000000000000000000000000000000000000000000000000000000000600754836114539092919063ffffffff16565b610bae9084611a9f565b9250505b509392505050565b6000610bc58361137d565b905080610c075760405162461bcd60e51b815260206004820152600b60248201526a5a45524f5f53484152455360a81b60448201526064015b60405180910390fd5b610c3c6001600160a01b037f00000000000000000000000000000000000000000000000000000000000000001633308661153a565b610c4682826115c4565b60408051848152602081018390526001600160a01b0384169133917fdcbc1c05240f31ff3ad067ef1ee35ce4997762752e3a095284754544f4c709d7910160405180910390a36107fb838261161e565b6006546001600160a01b03163314610cf05760405162461bcd60e51b815260206004820181905260248201527f4f776e61626c653a2063616c6c6572206973206e6f7420746865206f776e65726044820152606401610bfe565b610cfa600061169d565b565b6000610d0783610e0b565b9050610d3e6001600160a01b037f00000000000000000000000000000000000000000000000000000000000000001633308461153a565b610d4882846115c4565b60408051828152602081018590526001600160a01b0384169133917fdcbc1c05240f31ff3ad067ef1ee35ce4997762752e3a095284754544f4c709d7910160405180910390a36107fb818461161e565b600180546106e690611a4e565b33600090815260036020526040812080548391908390610dc6908490611a9f565b90915550506001600160a01b03831660008181526003602052604090819020805485019055513390600080516020611b6b833981519152906107ef9086815260200190565b600254600090801561078b57610786610e2261053c565b849083611453565b6000610e3584610801565b9050336001600160a01b03831614610ea5576001600160a01b03821660009081526004602090815260408083203384529091529020546000198114610ea357610e7e8282611a9f565b6001600160a01b03841660009081526004602090815260408083203384529091529020555b505b610eaf84826116ef565b610eb98282611745565b60408051858152602081018390526001600160a01b03808516929086169133917ffbde797d201c681b91056529119e0b02407c7bb96a4a2c75c01fc9667232c8db910160405180910390a461078d6001600160a01b037f00000000000000000000000000000000000000000000000000000000000000001684866117a7565b6000336001600160a01b03831614610fa8576001600160a01b03821660009081526004602090815260408083203384529091529020546000198114610fa657610f818582611a9f565b6001600160a01b03841660009081526004602090815260408083203384529091529020555b505b610fb184610a95565b905080610fee5760405162461bcd60e51b815260206004820152600b60248201526a5a45524f5f41535345545360a81b6044820152606401610bfe565b610ff881856116ef565b6110028285611745565b60408051828152602081018690526001600160a01b03808516929086169133917ffbde797d201c681b91056529119e0b02407c7bb96a4a2c75c01fc9667232c8db910160405180910390a461078d6001600160a01b037f00000000000000000000000000000000000000000000000000000000000000001684836117a7565b600254600090801561078b576107868161109961053c565b859190611481565b428410156110f15760405162461bcd60e51b815260206004820152601760248201527f5045524d49545f444541444c494e455f455850495245440000000000000000006044820152606401610bfe565b600060016110fd610a1d565b6001600160a01b038a811660008181526005602090815260409182902080546001810190915582517f6e71edae12b1b97f4d1f60370fef10105fa2faae0126114a169c64845d6126c98184015280840194909452938d166060840152608083018c905260a083019390935260c08083018b90528151808403909101815260e08301909152805192019190912061190160f01b6101008301526101028201929092526101228101919091526101420160408051601f198184030181528282528051602091820120600084529083018083525260ff871690820152606081018590526080810184905260a0016020604051602081039080840390855afa158015611209573d6000803e3d6000fd5b5050604051601f1901519150506001600160a01b0381161580159061123f5750876001600160a01b0316816001600160a01b0316145b61127c5760405162461bcd60e51b815260206004820152600e60248201526d24a72b20a624a22fa9a4a3a722a960911b6044820152606401610bfe565b6001600160a01b0390811660009081526004602090815260408083208a8516808552908352928190208990555188815291928a16917f8c5be1e5ebec7d5bd14f71427d1e84f3dd0314c0f7b2291e5b200ac8c7c3b925910160405180910390a350505050505050565b600254600090801561078b576040516370a0823160e01b8152306004820152610786907f00000000000000000000000000000000000000000000000000000000000000006001600160a01b0316906370a0823190602401602060405180830381865afa158015611359573d6000803e3d6000fd5b505050506040513d601f19601f82011682018060405250810190610e229190611a35565b60006107fb82611081565b6006546001600160a01b031633146113e25760405162461bcd60e51b815260206004820181905260248201527f4f776e61626c653a2063616c6c6572206973206e6f7420746865206f776e65726044820152606401610bfe565b6001600160a01b0381166114475760405162461bcd60e51b815260206004820152602660248201527f4f776e61626c653a206e6577206f776e657220697320746865207a65726f206160448201526564647265737360d01b6064820152608401610bfe565b6114508161169d565b50565b82820281151584158583048514171661146b57600080fd5b6001826001830304018115150290509392505050565b82820281151584158583048514171661149957600080fd5b0492915050565b60007f8b73c3c69bb8fe3d512ecc4cf759cc79239f7b179b0ffacaa9a75d522b39400f60006040516114d29190611ace565b6040805191829003822060208301939093528101919091527fc89efdaa54c0f20c7adf612882df0950f5a951637e0307cdcb4c672f298b8bc660608201524660808201523060a082015260c00160405160208183030381529060405280519060200120905090565b60006040516323b872dd60e01b81528460048201528360248201528260448201526020600060648360008a5af13d15601f3d11600160005114161716915050806115bd5760405162461bcd60e51b81526020600482015260146024820152731514905394d1915497d19493d357d1905253115160621b6044820152606401610bfe565b5050505050565b80600260008282546115d69190611ab6565b90915550506001600160a01b038216600081815260036020908152604080832080548601905551848152600080516020611b6b83398151915291015b60405180910390a35050565b60405163b6b55f2560e01b8152600481018390527f00000000000000000000000000000000000000000000000000000000000000006001600160a01b03169063b6b55f25906024015b600060405180830381600087803b15801561168157600080fd5b505af1158015611695573d6000803e3d6000fd5b505050505050565b600680546001600160a01b038381166001600160a01b0319831681179093556040519116919082907f8be0079c531659141344cd1fd0a4f28419497f9722a3daafe3b4186f6b6457e090600090a35050565b7f00000000000000000000000000000000000000000000000000000000000000006001600160a01b0316632e1a7d4d611727836112e5565b6040518263ffffffff1660e01b815260040161166791815260200190565b6001600160a01b0382166000908152600360205260408120805483929061176d908490611a9f565b90915550506002805482900390556040518181526000906001600160a01b03841690600080516020611b6b83398151915290602001611612565b600060405163a9059cbb60e01b8152836004820152826024820152602060006044836000895af13d15601f3d116001600051141617169150508061181f5760405162461bcd60e51b815260206004820152600f60248201526e1514905394d1915497d19052531151608a1b6044820152606401610bfe565b50505050565b600060208083528351808285015260005b8181101561185257858101830151858201604001528201611836565b81811115611864576000604083870101525b50601f01601f1916929092016040019392505050565b60006020828403121561188c57600080fd5b5035919050565b80356001600160a01b03811681146118aa57600080fd5b919050565b600080604083850312156118c257600080fd5b6118cb83611893565b946020939093013593505050565b6000806000606084860312156118ee57600080fd5b6118f784611893565b925061190560208501611893565b9150604084013590509250925092565b60006020828403121561192757600080fd5b61078d82611893565b6000806040838503121561194357600080fd5b8235915061195360208401611893565b90509250929050565b60008060006060848603121561197157600080fd5b8335925061198160208501611893565b915061198f60408501611893565b90509250925092565b600080600080600080600060e0888a0312156119b357600080fd5b6119bc88611893565b96506119ca60208901611893565b95506040880135945060608801359350608088013560ff811681146119ee57600080fd5b9699959850939692959460a0840135945060c09093013592915050565b60008060408385031215611a1e57600080fd5b611a2783611893565b915061195360208401611893565b600060208284031215611a4757600080fd5b5051919050565b600181811c90821680611a6257607f821691505b60208210811415611a8357634e487b7160e01b600052602260045260246000fd5b50919050565b634e487b7160e01b600052601160045260246000fd5b600082821015611ab157611ab1611a89565b500390565b60008219821115611ac957611ac9611a89565b500190565b600080835481600182811c915080831680611aea57607f831692505b6020808410821415611b0a57634e487b7160e01b86526022600452602486fd5b818015611b1e5760018114611b2f57611b5c565b60ff19861689528489019650611b5c565b60008a81526020902060005b86811015611b545781548b820152908501908301611b3b565b505084890196505b50949897505050505050505056feddf252ad1be2c89b69c2b068fc378daa952ba7f163c4a11628f55a4df523b3efa164736f6c634300080a000a",
    "linkReferences": {}
  },
  "methodIdentifiers": {
    "DOMAIN_SEPARATOR()": "3644e515",
    "allowance(address,address)": "dd62ed3e",
    "approve(address,uint256)": "095ea7b3",
    "asset()": "38d52e0f",
    "balanceOf(address)": "70a08231",
    "balanceOfUnderlying(address)": "3af9e669",
    "beefyVault()": "0f0d6569",
    "convertToAssets(uint256)": "07a2d13a",
    "convertToBeefyVaultShares(uint256)": "e30f4e43",
    "convertToShares(uint256)": "c6e6f592",
    "decimals()": "313ce567",
    "deposit(uint256,address)": "6e553f65",
    "maxDeposit(address)": "402d267d",
    "maxMint(address)": "c63d75b6",
    "maxRedeem(address)": "d905777e",
    "maxWithdraw(address)": "ce96cb77",
    "mint(uint256,address)": "94bf804d",
    "name()": "06fdde03",
    "nonces(address)": "7ecebe00",
    "owner()": "8da5cb5b",
    "permit(address,address,uint256,uint256,uint8,bytes32,bytes32)": "d505accf",
    "previewDeposit(uint256)": "ef8b30f7",
    "previewMint(uint256)": "b3d7f6b9",
    "previewRedeem(uint256)": "4cdad506",
    "previewWithdraw(uint256)": "0a28a477",
    "redeem(uint256,address,address)": "ba087652",
    "renounceOwnership()": "715018a6",
    "symbol()": "95d89b41",
    "totalAssets()": "01e1d114",
    "totalSupply()": "18160ddd",
    "transfer(address,uint256)": "a9059cbb",
    "transferFrom(address,address,uint256)": "23b872dd",
    "transferOwnership(address)": "f2fde38b",
    "withdraw(uint256,address,address)": "b460af94",
    "withdrawalFee()": "8bc7e8c4"
  }
}