{
  "address": "0x4daD43e24392Bd50BD1400A0b6ED3AD537F353F4",
  "abi": [
    {
      "anonymous": false,
      "inputs": [
        {
          "indexed": false,
          "internalType": "uint8",
          "name": "version",
          "type": "uint8"
        }
      ],
      "name": "Initialized",
      "type": "event"
    },
    {
      "anonymous": false,
      "inputs": [
        {
          "indexed": false,
          "internalType": "address",
          "name": "oldOwner",
          "type": "address"
        },
        {
          "indexed": false,
          "internalType": "address",
          "name": "newOwner",
          "type": "address"
        }
      ],
      "name": "NewOwner",
      "type": "event"
    },
    {
      "anonymous": false,
      "inputs": [
        {
          "indexed": false,
          "internalType": "address",
          "name": "oldPendingOwner",
          "type": "address"
        },
        {
          "indexed": false,
          "internalType": "address",
          "name": "newPendingOwner",
          "type": "address"
        }
      ],
      "name": "NewPendingOwner",
      "type": "event"
    },
    {
      "anonymous": false,
      "inputs": [
        {
          "indexed": true,
          "internalType": "address",
          "name": "previousOwner",
          "type": "address"
        },
        {
          "indexed": true,
          "internalType": "address",
          "name": "newOwner",
          "type": "address"
        }
      ],
      "name": "OwnershipTransferred",
      "type": "event"
    },
    {
      "inputs": [],
      "name": "BNBx",
      "outputs": [
        {
          "internalType": "address",
          "name": "",
          "type": "address"
        }
      ],
      "stateMutability": "view",
      "type": "function"
    },
    {
      "inputs": [],
      "name": "_acceptOwner",
      "outputs": [],
      "stateMutability": "nonpayable",
      "type": "function"
    },
    {
      "inputs": [
        {
          "internalType": "address",
          "name": "newPendingOwner",
          "type": "address"
        }
      ],
      "name": "_setPendingOwner",
      "outputs": [],
      "stateMutability": "nonpayable",
      "type": "function"
    },
    {
      "inputs": [
        {
          "internalType": "contract ICToken",
          "name": "cToken",
          "type": "address"
        }
      ],
      "name": "getUnderlyingPrice",
      "outputs": [
        {
          "internalType": "uint256",
          "name": "",
          "type": "uint256"
        }
      ],
      "stateMutability": "view",
      "type": "function"
    },
    {
      "inputs": [],
      "name": "initialize",
      "outputs": [],
      "stateMutability": "nonpayable",
      "type": "function"
    },
    {
      "inputs": [],
      "name": "owner",
      "outputs": [
        {
          "internalType": "address",
          "name": "",
          "type": "address"
        }
      ],
      "stateMutability": "view",
      "type": "function"
    },
    {
      "inputs": [],
      "name": "pendingOwner",
      "outputs": [
        {
          "internalType": "address",
          "name": "",
          "type": "address"
        }
      ],
      "stateMutability": "view",
      "type": "function"
    },
    {
      "inputs": [
        {
          "internalType": "address",
          "name": "underlying",
          "type": "address"
        }
      ],
      "name": "price",
      "outputs": [
        {
          "internalType": "uint256",
          "name": "",
          "type": "uint256"
        }
      ],
      "stateMutability": "view",
      "type": "function"
    },
    {
      "inputs": [],
      "name": "renounceOwnership",
      "outputs": [],
      "stateMutability": "nonpayable",
      "type": "function"
    },
    {
      "inputs": [],
      "name": "stakeManager",
      "outputs": [
        {
          "internalType": "contract IStakeManager",
          "name": "",
          "type": "address"
        }
      ],
      "stateMutability": "view",
      "type": "function"
    },
    {
      "inputs": [
        {
          "internalType": "address",
          "name": "newOwner",
          "type": "address"
        }
      ],
      "name": "transferOwnership",
      "outputs": [],
      "stateMutability": "nonpayable",
      "type": "function"
    }
  ],
  "transactionHash": "0x8a78f6a976c058e8a3bc07623bad5da4727ac7539b2e1b0e5e3b678744c63269",
  "args": [],
  "numDeployments": 2,
  "bytecode": {
    "object": "0x608060405234801561001057600080fd5b50610951806100206000396000f3fe608060405234801561001057600080fd5b50600436106100a95760003560e01c8063aea9107811610071578063aea9107814610114578063e30c397814610135578063f2fde38b14610148578063f3ff4d921461015b578063fc4d33f91461016e578063fc57d4df1461017657600080fd5b80636e96dfd7146100ae578063715018a6146100c35780637542ff95146100cb5780638129fc1c146100fb5780638da5cb5b14610103575b600080fd5b6100c16100bc366004610847565b610189565b005b6100c16101f3565b6066546100de906001600160a01b031681565b6040516001600160a01b0390911681526020015b60405180910390f35b6100c1610207565b6033546001600160a01b03166100de565b610127610122366004610847565b6103cc565b6040519081526020016100f2565b6065546100de906001600160a01b031681565b6100c1610156366004610847565b61042f565b6067546100de906001600160a01b031681565b6100c16104a5565b610127610184366004610847565b6105b9565b610191610682565b606580546001600160a01b038381166001600160a01b031983168117909355604080519190921680825260208201939093527fb3d55174552271a4f1aaf36b72f50381e892171636b3fb5447fe00e995e7a37b91015b60405180910390a15050565b6101fb610682565b61020560006106dc565b565b600054610100900460ff16158080156102275750600054600160ff909116105b806102415750303b158015610241575060005460ff166001145b6102a95760405162461bcd60e51b815260206004820152602e60248201527f496e697469616c697a61626c653a20636f6e747261637420697320616c72656160448201526d191e481a5b9a5d1a585b1a5e995960921b60648201526084015b60405180910390fd5b6000805460ff1916600117905580156102cc576000805461ff0019166101001790555b6102d461072e565b606680546001600160a01b031916737276241a669489e4bbb76f63d2a43bfe63080f2f908117909155604080516361d1549d60e11b815290516000929163c3a2a93a9160048083019260809291908290030181865afa15801561033b573d6000803e3d6000fd5b505050506040513d601f19601f8201168201806040525081019061035f9190610864565b5050606780546001600160a01b0319166001600160a01b0392909216919091179055505080156103c9576000805461ff0019169055604051600181527f7f26b83ff96e1f2b6a682f133852f6798a09c465da95921460cefb38474024989060200160405180910390a15b50565b6067546000906001600160a01b038381169116146104215760405162461bcd60e51b8152602060048201526012602482015271496e76616c696420756e6465726c79696e6760701b60448201526064016102a0565b61042961075d565b92915050565b610437610682565b6001600160a01b03811661049c5760405162461bcd60e51b815260206004820152602660248201527f4f776e61626c653a206e6577206f776e657220697320746865207a65726f206160448201526564647265737360d01b60648201526084016102a0565b6103c9816106dc565b6065546001600160a01b031633146104f75760405162461bcd60e51b81526020600482015260156024820152743737ba103a3432903832b73234b7339037bbb732b960591b60448201526064016102a0565b600061050b6033546001600160a01b031690565b6065549091506001600160a01b0316610523816106dc565b606580546001600160a01b0319169055604080516001600160a01b0384168152600060208201527f70aea8d848e8a90fb7661b227dc522eb6395c3dac71b63cb59edd5c9899b2364910160405180910390a1606554604080516001600160a01b03808516825290921660208301527fb3d55174552271a4f1aaf36b72f50381e892171636b3fb5447fe00e995e7a37b91016101e7565b600080826001600160a01b0316636f307dc36040518163ffffffff1660e01b8152600401602060405180830381865afa1580156105fa573d6000803e3d6000fd5b505050506040513d601f19601f8201168201806040525081019061061e91906108c3565b6067549091506001600160a01b038083169116146106735760405162461bcd60e51b8152602060048201526012602482015271496e76616c696420756e6465726c79696e6760701b60448201526064016102a0565b61067b61075d565b9392505050565b6033546001600160a01b031633146102055760405162461bcd60e51b815260206004820181905260248201527f4f776e61626c653a2063616c6c6572206973206e6f7420746865206f776e657260448201526064016102a0565b603380546001600160a01b038381166001600160a01b0319831681179093556040519116919082907f8be0079c531659141344cd1fd0a4f28419497f9722a3daafe3b4186f6b6457e090600090a35050565b600054610100900460ff166107555760405162461bcd60e51b81526004016102a0906108e0565b6102056107d8565b606654604051631940a0dd60e31b8152670de0b6b3a764000060048201819052600092909183916001600160a01b03169063ca0506e890602401602060405180830381865afa1580156107b4573d6000803e3d6000fd5b505050506040513d601f19601f8201168201806040525081019061067b919061092b565b600054610100900460ff166107ff5760405162461bcd60e51b81526004016102a0906108e0565b610205600054610100900460ff166108295760405162461bcd60e51b81526004016102a0906108e0565b610205336106dc565b6001600160a01b03811681146103c957600080fd5b60006020828403121561085957600080fd5b813561067b81610832565b6000806000806080858703121561087a57600080fd5b845161088581610832565b602086015190945061089681610832565b60408601519093506108a781610832565b60608601519092506108b881610832565b939692955090935050565b6000602082840312156108d557600080fd5b815161067b81610832565b6020808252602b908201527f496e697469616c697a61626c653a20636f6e7472616374206973206e6f74206960408201526a6e697469616c697a696e6760a81b606082015260800190565b60006020828403121561093d57600080fd5b505191905056fea164736f6c634300080a000a",
    "linkReferences": {}
  },
  "methodIdentifiers": {
    "BNBx()": "f3ff4d92",
    "_acceptOwner()": "fc4d33f9",
    "_setPendingOwner(address)": "6e96dfd7",
    "getUnderlyingPrice(address)": "fc57d4df",
    "initialize()": "8129fc1c",
    "owner()": "8da5cb5b",
    "pendingOwner()": "e30c3978",
    "price(address)": "aea91078",
    "renounceOwnership()": "715018a6",
    "stakeManager()": "7542ff95",
    "transferOwnership(address)": "f2fde38b"
  }
}