{
  "address": "0xadD4f8110d161f419dD50F9B067E89eCe5500838",
  "abi": [
    {
      "inputs": [
        {
          "internalType": "contract ERC20",
          "name": "_asset",
          "type": "address"
        },
        {
          "internalType": "address",
          "name": "_xbombAddress",
          "type": "address"
        }
      ],
      "stateMutability": "nonpayable",
      "type": "constructor"
    },
    {
      "anonymous": false,
      "inputs": [
        {
          "indexed": true,
          "internalType": "address",
          "name": "owner",
          "type": "address"
        },
        {
          "indexed": true,
          "internalType": "address",
          "name": "spender",
          "type": "address"
        },
        {
          "indexed": false,
          "internalType": "uint256",
          "name": "amount",
          "type": "uint256"
        }
      ],
      "name": "Approval",
      "type": "event"
    },
    {
      "anonymous": false,
      "inputs": [
        {
          "indexed": true,
          "internalType": "address",
          "name": "caller",
          "type": "address"
        },
        {
          "indexed": true,
          "internalType": "address",
          "name": "owner",
          "type": "address"
        },
        {
          "indexed": false,
          "internalType": "uint256",
          "name": "assets",
          "type": "uint256"
        },
        {
          "indexed": false,
          "internalType": "uint256",
          "name": "shares",
          "type": "uint256"
        }
      ],
      "name": "Deposit",
      "type": "event"
    },
    {
      "anonymous": false,
      "inputs": [
        {
          "indexed": true,
          "internalType": "address",
          "name": "previousOwner",
          "type": "address"
        },
        {
          "indexed": true,
          "internalType": "address",
          "name": "newOwner",
          "type": "address"
        }
      ],
      "name": "OwnershipTransferred",
      "type": "event"
    },
    {
      "anonymous": false,
      "inputs": [
        {
          "indexed": false,
          "internalType": "address",
          "name": "account",
          "type": "address"
        }
      ],
      "name": "Paused",
      "type": "event"
    },
    {
      "anonymous": false,
      "inputs": [
        {
          "indexed": true,
          "internalType": "address",
          "name": "from",
          "type": "address"
        },
        {
          "indexed": true,
          "internalType": "address",
          "name": "to",
          "type": "address"
        },
        {
          "indexed": false,
          "internalType": "uint256",
          "name": "amount",
          "type": "uint256"
        }
      ],
      "name": "Transfer",
      "type": "event"
    },
    {
      "anonymous": false,
      "inputs": [
        {
          "indexed": false,
          "internalType": "address",
          "name": "account",
          "type": "address"
        }
      ],
      "name": "Unpaused",
      "type": "event"
    },
    {
      "anonymous": false,
      "inputs": [
        {
          "indexed": true,
          "internalType": "address",
          "name": "caller",
          "type": "address"
        },
        {
          "indexed": true,
          "internalType": "address",
          "name": "receiver",
          "type": "address"
        },
        {
          "indexed": true,
          "internalType": "address",
          "name": "owner",
          "type": "address"
        },
        {
          "indexed": false,
          "internalType": "uint256",
          "name": "assets",
          "type": "uint256"
        },
        {
          "indexed": false,
          "internalType": "uint256",
          "name": "shares",
          "type": "uint256"
        }
      ],
      "name": "Withdraw",
      "type": "event"
    },
    {
      "inputs": [],
      "name": "DOMAIN_SEPARATOR",
      "outputs": [
        {
          "internalType": "bytes32",
          "name": "",
          "type": "bytes32"
        }
      ],
      "stateMutability": "view",
      "type": "function"
    },
    {
      "inputs": [
        {
          "internalType": "address",
          "name": "",
          "type": "address"
        },
        {
          "internalType": "address",
          "name": "",
          "type": "address"
        }
      ],
      "name": "allowance",
      "outputs": [
        {
          "internalType": "uint256",
          "name": "",
          "type": "uint256"
        }
      ],
      "stateMutability": "view",
      "type": "function"
    },
    {
      "inputs": [
        {
          "internalType": "address",
          "name": "spender",
          "type": "address"
        },
        {
          "internalType": "uint256",
          "name": "amount",
          "type": "uint256"
        }
      ],
      "name": "approve",
      "outputs": [
        {
          "internalType": "bool",
          "name": "",
          "type": "bool"
        }
      ],
      "stateMutability": "nonpayable",
      "type": "function"
    },
    {
      "inputs": [],
      "name": "asset",
      "outputs": [
        {
          "internalType": "contract ERC20",
          "name": "",
          "type": "address"
        }
      ],
      "stateMutability": "view",
      "type": "function"
    },
    {
      "inputs": [
        {
          "internalType": "address",
          "name": "",
          "type": "address"
        }
      ],
      "name": "balanceOf",
      "outputs": [
        {
          "internalType": "uint256",
          "name": "",
          "type": "uint256"
        }
      ],
      "stateMutability": "view",
      "type": "function"
    },
    {
      "inputs": [
        {
          "internalType": "address",
          "name": "account",
          "type": "address"
        }
      ],
      "name": "balanceOfUnderlying",
      "outputs": [
        {
          "internalType": "uint256",
          "name": "",
          "type": "uint256"
        }
      ],
      "stateMutability": "view",
      "type": "function"
    },
    {
      "inputs": [
        {
          "internalType": "uint256",
          "name": "shares",
          "type": "uint256"
        }
      ],
      "name": "convertToAssets",
      "outputs": [
        {
          "internalType": "uint256",
          "name": "",
          "type": "uint256"
        }
      ],
      "stateMutability": "view",
      "type": "function"
    },
    {
      "inputs": [
        {
          "internalType": "uint256",
          "name": "assets",
          "type": "uint256"
        }
      ],
      "name": "convertToShares",
      "outputs": [
        {
          "internalType": "uint256",
          "name": "",
          "type": "uint256"
        }
      ],
      "stateMutability": "view",
      "type": "function"
    },
    {
      "inputs": [],
      "name": "decimals",
      "outputs": [
        {
          "internalType": "uint8",
          "name": "",
          "type": "uint8"
        }
      ],
      "stateMutability": "view",
      "type": "function"
    },
    {
      "inputs": [
        {
          "internalType": "uint256",
          "name": "assets",
          "type": "uint256"
        },
        {
          "internalType": "address",
          "name": "receiver",
          "type": "address"
        }
      ],
      "name": "deposit",
      "outputs": [
        {
          "internalType": "uint256",
          "name": "shares",
          "type": "uint256"
        }
      ],
      "stateMutability": "nonpayable",
      "type": "function"
    },
    {
      "inputs": [],
      "name": "emergencyWithdrawAndPause",
      "outputs": [],
      "stateMutability": "nonpayable",
      "type": "function"
    },
    {
      "inputs": [
        {
          "internalType": "address",
          "name": "",
          "type": "address"
        }
      ],
      "name": "maxDeposit",
      "outputs": [
        {
          "internalType": "uint256",
          "name": "",
          "type": "uint256"
        }
      ],
      "stateMutability": "view",
      "type": "function"
    },
    {
      "inputs": [
        {
          "internalType": "address",
          "name": "",
          "type": "address"
        }
      ],
      "name": "maxMint",
      "outputs": [
        {
          "internalType": "uint256",
          "name": "",
          "type": "uint256"
        }
      ],
      "stateMutability": "view",
      "type": "function"
    },
    {
      "inputs": [
        {
          "internalType": "address",
          "name": "owner",
          "type": "address"
        }
      ],
      "name": "maxRedeem",
      "outputs": [
        {
          "internalType": "uint256",
          "name": "",
          "type": "uint256"
        }
      ],
      "stateMutability": "view",
      "type": "function"
    },
    {
      "inputs": [
        {
          "internalType": "address",
          "name": "owner",
          "type": "address"
        }
      ],
      "name": "maxWithdraw",
      "outputs": [
        {
          "internalType": "uint256",
          "name": "",
          "type": "uint256"
        }
      ],
      "stateMutability": "view",
      "type": "function"
    },
    {
      "inputs": [
        {
          "internalType": "uint256",
          "name": "shares",
          "type": "uint256"
        },
        {
          "internalType": "address",
          "name": "receiver",
          "type": "address"
        }
      ],
      "name": "mint",
      "outputs": [
        {
          "internalType": "uint256",
          "name": "assets",
          "type": "uint256"
        }
      ],
      "stateMutability": "nonpayable",
      "type": "function"
    },
    {
      "inputs": [],
      "name": "name",
      "outputs": [
        {
          "internalType": "string",
          "name": "",
          "type": "string"
        }
      ],
      "stateMutability": "view",
      "type": "function"
    },
    {
      "inputs": [
        {
          "internalType": "address",
          "name": "",
          "type": "address"
        }
      ],
      "name": "nonces",
      "outputs": [
        {
          "internalType": "uint256",
          "name": "",
          "type": "uint256"
        }
      ],
      "stateMutability": "view",
      "type": "function"
    },
    {
      "inputs": [],
      "name": "owner",
      "outputs": [
        {
          "internalType": "address",
          "name": "",
          "type": "address"
        }
      ],
      "stateMutability": "view",
      "type": "function"
    },
    {
      "inputs": [],
      "name": "paused",
      "outputs": [
        {
          "internalType": "bool",
          "name": "",
          "type": "bool"
        }
      ],
      "stateMutability": "view",
      "type": "function"
    },
    {
      "inputs": [
        {
          "internalType": "address",
          "name": "owner",
          "type": "address"
        },
        {
          "internalType": "address",
          "name": "spender",
          "type": "address"
        },
        {
          "internalType": "uint256",
          "name": "value",
          "type": "uint256"
        },
        {
          "internalType": "uint256",
          "name": "deadline",
          "type": "uint256"
        },
        {
          "internalType": "uint8",
          "name": "v",
          "type": "uint8"
        },
        {
          "internalType": "bytes32",
          "name": "r",
          "type": "bytes32"
        },
        {
          "internalType": "bytes32",
          "name": "s",
          "type": "bytes32"
        }
      ],
      "name": "permit",
      "outputs": [],
      "stateMutability": "nonpayable",
      "type": "function"
    },
    {
      "inputs": [
        {
          "internalType": "uint256",
          "name": "bombAssets",
          "type": "uint256"
        }
      ],
      "name": "previewDeposit",
      "outputs": [
        {
          "internalType": "uint256",
          "name": "",
          "type": "uint256"
        }
      ],
      "stateMutability": "view",
      "type": "function"
    },
    {
      "inputs": [
        {
          "internalType": "uint256",
          "name": "shares",
          "type": "uint256"
        }
      ],
      "name": "previewMint",
      "outputs": [
        {
          "internalType": "uint256",
          "name": "",
          "type": "uint256"
        }
      ],
      "stateMutability": "view",
      "type": "function"
    },
    {
      "inputs": [
        {
          "internalType": "uint256",
          "name": "shares",
          "type": "uint256"
        }
      ],
      "name": "previewRedeem",
      "outputs": [
        {
          "internalType": "uint256",
          "name": "",
          "type": "uint256"
        }
      ],
      "stateMutability": "view",
      "type": "function"
    },
    {
      "inputs": [
        {
          "internalType": "uint256",
          "name": "assets",
          "type": "uint256"
        }
      ],
      "name": "previewWithdraw",
      "outputs": [
        {
          "internalType": "uint256",
          "name": "",
          "type": "uint256"
        }
      ],
      "stateMutability": "view",
      "type": "function"
    },
    {
      "inputs": [
        {
          "internalType": "uint256",
          "name": "shares",
          "type": "uint256"
        },
        {
          "internalType": "address",
          "name": "receiver",
          "type": "address"
        },
        {
          "internalType": "address",
          "name": "owner",
          "type": "address"
        }
      ],
      "name": "redeem",
      "outputs": [
        {
          "internalType": "uint256",
          "name": "assets",
          "type": "uint256"
        }
      ],
      "stateMutability": "nonpayable",
      "type": "function"
    },
    {
      "inputs": [],
      "name": "renounceOwnership",
      "outputs": [],
      "stateMutability": "nonpayable",
      "type": "function"
    },
    {
      "inputs": [],
      "name": "symbol",
      "outputs": [
        {
          "internalType": "string",
          "name": "",
          "type": "string"
        }
      ],
      "stateMutability": "view",
      "type": "function"
    },
    {
      "inputs": [],
      "name": "totalAssets",
      "outputs": [
        {
          "internalType": "uint256",
          "name": "",
          "type": "uint256"
        }
      ],
      "stateMutability": "view",
      "type": "function"
    },
    {
      "inputs": [],
      "name": "totalSupply",
      "outputs": [
        {
          "internalType": "uint256",
          "name": "",
          "type": "uint256"
        }
      ],
      "stateMutability": "view",
      "type": "function"
    },
    {
      "inputs": [
        {
          "internalType": "address",
          "name": "to",
          "type": "address"
        },
        {
          "internalType": "uint256",
          "name": "amount",
          "type": "uint256"
        }
      ],
      "name": "transfer",
      "outputs": [
        {
          "internalType": "bool",
          "name": "",
          "type": "bool"
        }
      ],
      "stateMutability": "nonpayable",
      "type": "function"
    },
    {
      "inputs": [
        {
          "internalType": "address",
          "name": "from",
          "type": "address"
        },
        {
          "internalType": "address",
          "name": "to",
          "type": "address"
        },
        {
          "internalType": "uint256",
          "name": "amount",
          "type": "uint256"
        }
      ],
      "name": "transferFrom",
      "outputs": [
        {
          "internalType": "bool",
          "name": "",
          "type": "bool"
        }
      ],
      "stateMutability": "nonpayable",
      "type": "function"
    },
    {
      "inputs": [
        {
          "internalType": "address",
          "name": "newOwner",
          "type": "address"
        }
      ],
      "name": "transferOwnership",
      "outputs": [],
      "stateMutability": "nonpayable",
      "type": "function"
    },
    {
      "inputs": [],
      "name": "unpause",
      "outputs": [],
      "stateMutability": "nonpayable",
      "type": "function"
    },
    {
      "inputs": [
        {
          "internalType": "uint256",
          "name": "assets",
          "type": "uint256"
        },
        {
          "internalType": "address",
          "name": "receiver",
          "type": "address"
        },
        {
          "internalType": "address",
          "name": "owner",
          "type": "address"
        }
      ],
      "name": "withdraw",
      "outputs": [
        {
          "internalType": "uint256",
          "name": "shares",
          "type": "uint256"
        }
      ],
      "stateMutability": "nonpayable",
      "type": "function"
    },
    {
      "inputs": [],
      "name": "xbomb",
      "outputs": [
        {
          "internalType": "contract IXBomb",
          "name": "",
          "type": "address"
        }
      ],
      "stateMutability": "view",
      "type": "function"
    }
  ],
  "transactionHash": "0x2e8b40ba1f6ee71d7f7ebf37570366624fbba9c24427301a509e2bfefe22d256",
  "args": [
    "0x522348779DCb2911539e76A1042aA922F9C47Ee3",
    "0xAf16cB45B8149DA403AF41C63AbFEBFbcd16264b"
  ],
  "numDeployments": 4,
  "bytecode": {
    "object": "0x6101006040523480156200001257600080fd5b50604051620022fe380380620022fe83398101604081905262000035916200046c565b81826001600160a01b03166306fdde036040518163ffffffff1660e01b8152600401600060405180830381865afa15801562000075573d6000803e3d6000fd5b505050506040513d6000823e601f3d908101601f191682016040526200009f9190810190620004f4565b604051602001620000b19190620005ac565b604051602081830303815290604052836001600160a01b03166395d89b416040518163ffffffff1660e01b8152600401600060405180830381865afa158015620000ff573d6000803e3d6000fd5b505050506040513d6000823e601f3d908101601f19168201604052620001299190810190620004f4565b6040516020016200013b9190620005ec565b6040516020818303038152906040528282828181846001600160a01b031663313ce5676040518163ffffffff1660e01b8152600401602060405180830381865afa1580156200018e573d6000803e3d6000fd5b505050506040513d601f19601f82011682018060405250810190620001b4919062000618565b8251620001c9906000906020860190620003ad565b508151620001df906001906020850190620003ad565b5060ff81166080524660a052620001f5620002bf565b60c052505050506001600160a01b039190911660e0525062000217336200035b565b50506006805460ff60a01b1916905550600780546001600160a01b0319166001600160a01b0383811691821790925560405163095ea7b360e01b8152600481019190915260001960248201529083169063095ea7b3906044016020604051808303816000875af115801562000290573d6000803e3d6000fd5b505050506040513d601f19601f82011682018060405250810190620002b6919062000644565b50505062000749565b60007f8b73c3c69bb8fe3d512ecc4cf759cc79239f7b179b0ffacaa9a75d522b39400f6000604051620002f39190620006a5565b6040805191829003822060208301939093528101919091527fc89efdaa54c0f20c7adf612882df0950f5a951637e0307cdcb4c672f298b8bc660608201524660808201523060a082015260c00160405160208183030381529060405280519060200120905090565b600680546001600160a01b038381166001600160a01b0319831681179093556040519116919082907f8be0079c531659141344cd1fd0a4f28419497f9722a3daafe3b4186f6b6457e090600090a35050565b828054620003bb9062000668565b90600052602060002090601f016020900481019282620003df57600085556200042a565b82601f10620003fa57805160ff19168380011785556200042a565b828001600101855582156200042a579182015b828111156200042a5782518255916020019190600101906200040d565b50620004389291506200043c565b5090565b5b808211156200043857600081556001016200043d565b6001600160a01b03811681146200046957600080fd5b50565b600080604083850312156200048057600080fd5b82516200048d8162000453565b6020840151909250620004a08162000453565b809150509250929050565b634e487b7160e01b600052604160045260246000fd5b60005b83811015620004de578181015183820152602001620004c4565b83811115620004ee576000848401525b50505050565b6000602082840312156200050757600080fd5b81516001600160401b03808211156200051f57600080fd5b818401915084601f8301126200053457600080fd5b815181811115620005495762000549620004ab565b604051601f8201601f19908116603f01168101908382118183101715620005745762000574620004ab565b816040528281528760208487010111156200058e57600080fd5b620005a1836020830160208801620004c1565b979650505050505050565b65026b4b230b9960d51b815260008251620005cf816006850160208701620004c1565b650815985d5b1d60d21b6006939091019283015250600c01919050565b6136bb60f11b8152600082516200060b816002850160208701620004c1565b9190910160020192915050565b6000602082840312156200062b57600080fd5b815160ff811681146200063d57600080fd5b9392505050565b6000602082840312156200065757600080fd5b815180151581146200063d57600080fd5b600181811c908216806200067d57607f821691505b602082108114156200069f57634e487b7160e01b600052602260045260246000fd5b50919050565b600080835481600182811c915080831680620006c257607f831692505b6020808410821415620006e357634e487b7160e01b86526022600452602486fd5b818015620006fa57600181146200070c576200073b565b60ff198616895284890196506200073b565b60008a81526020902060005b86811015620007335781548b82015290850190830162000718565b505084890196505b509498975050505050505050565b60805160a05160c05160e051611b43620007bb60003960008181610306015281816109a701528181610ac701528181610c7f01528181610d1501528181610df801528181610efe01528181610f940152611077015260006108b501526000610885015260006102c50152611b436000f3fe608060405234801561001057600080fd5b506004361061021c5760003560e01c8063715018a611610125578063ba087652116100ad578063d505accf1161007c578063d505accf14610486578063d905777e14610499578063dd62ed3e146104c2578063ef8b30f7146104ed578063f2fde38b1461050057600080fd5b8063ba08765214610460578063c63d75b614610353578063c6e6f59214610473578063ce96cb771461034057600080fd5b806395d89b41116100f457806395d89b411461040c578063a32b0d5d14610414578063a9059cbb14610427578063b3d7f6b91461043a578063b460af941461044d57600080fd5b8063715018a6146103c05780637ecebe00146103c85780638da5cb5b146103e857806394bf804d146103f957600080fd5b80633644e515116101a8578063402d267d11610177578063402d267d146103535780634cdad506146103685780635c975abb1461037b5780636e553f651461038d57806370a08231146103a057600080fd5b80633644e515146102f957806338d52e0f146103015780633af9e669146103405780633f4ba83a146102b657600080fd5b80630a28a477116101ef5780630a28a4771461028757806318160ddd1461029a57806323b872dd146102a357806328357978146102b6578063313ce567146102c057600080fd5b806301e1d1141461022157806306fdde031461023c57806307a2d13a14610251578063095ea7b314610264575b600080fd5b610229610513565b6040519081526020015b60405180910390f35b6102446105ec565b604051610233919061179c565b61022961025f3660046117f1565b61067a565b610277610272366004611826565b6106a7565b6040519015158152602001610233565b6102296102953660046117f1565b610714565b61022960025481565b6102776102b1366004611850565b610734565b6102be610814565b005b6102e77f000000000000000000000000000000000000000000000000000000000000000081565b60405160ff9091168152602001610233565b610229610881565b6103287f000000000000000000000000000000000000000000000000000000000000000081565b6040516001600160a01b039091168152602001610233565b61022961034e36600461188c565b6108d7565b61022961036136600461188c565b5060001990565b6102296103763660046117f1565b6108f9565b600654600160a01b900460ff16610277565b61022961039b3660046118a7565b610904565b6102296103ae36600461188c565b60036020526000908152604090205481565b6102be610a29565b6102296103d636600461188c565b60056020526000908152604090205481565b6006546001600160a01b0316610328565b6102296104073660046118a7565b610a5f565b610244610b49565b600754610328906001600160a01b031681565b610277610435366004611826565b610b56565b6102296104483660046117f1565b610bbc565b61022961045b3660046118d3565b610bdb565b61022961046e3660046118d3565b610e1f565b6102296104813660046117f1565b61109e565b6102be61049436600461190f565b6110be565b6102296104a736600461188c565b6001600160a01b031660009081526003602052604090205490565b6102296104d0366004611982565b600460209081526000928352604080842090915290825290205481565b6102296104fb3660046117f1565b611302565b6102be61050e36600461188c565b611370565b6007546040516370a0823160e01b81523060048201526000916001600160a01b03169063067e4b9e9082906370a0823190602401602060405180830381865afa158015610564573d6000803e3d6000fd5b505050506040513d601f19601f8201168201806040525081019061058891906119ac565b6040518263ffffffff1660e01b81526004016105a691815260200190565b602060405180830381865afa1580156105c3573d6000803e3d6000fd5b505050506040513d601f19601f820116820180604052508101906105e791906119ac565b905090565b600080546105f9906119c5565b80601f0160208091040260200160405190810160405280929190818152602001828054610625906119c5565b80156106725780601f1061064757610100808354040283529160200191610672565b820191906000526020600020905b81548152906001019060200180831161065557829003601f168201915b505050505081565b600254600090801561069e57610699610691610513565b84908361140b565b6106a0565b825b9392505050565b3360008181526004602090815260408083206001600160a01b038716808552925280832085905551919290917f8c5be1e5ebec7d5bd14f71427d1e84f3dd0314c0f7b2291e5b200ac8c7c3b925906107029086815260200190565b60405180910390a35060015b92915050565b600254600090801561069e576106998161072c610513565b85919061142a565b6001600160a01b038316600090815260046020908152604080832033845290915281205460001981146107905761076b8382611a16565b6001600160a01b03861660009081526004602090815260408083203384529091529020555b6001600160a01b038516600090815260036020526040812080548592906107b8908490611a16565b90915550506001600160a01b0380851660008181526003602052604090819020805487019055519091871690600080516020611b17833981519152906108019087815260200190565b60405180910390a3506001949350505050565b6006546001600160a01b031633146108475760405162461bcd60e51b815260040161083e90611a2d565b60405180910390fd5b60405162461bcd60e51b815260206004820152600f60248201526e10b4b6b83632b6b2b73a30ba34b7b760891b604482015260640161083e565b60007f000000000000000000000000000000000000000000000000000000000000000046146108b2576105e7611458565b507f000000000000000000000000000000000000000000000000000000000000000090565b6001600160a01b03811660009081526003602052604081205461070e9061067a565b600061070e8261067a565b600654600090600160a01b900460ff16156109545760405162461bcd60e51b815260206004820152601060248201526f14185d5cd8589b194e881c185d5cd95960821b604482015260640161083e565b61095d83611302565b90508061099a5760405162461bcd60e51b815260206004820152600b60248201526a5a45524f5f53484152455360a81b604482015260640161083e565b6109cf6001600160a01b037f0000000000000000000000000000000000000000000000000000000000000000163330866114f2565b6109d9828261157c565b60408051848152602081018390526001600160a01b0384169133917fdcbc1c05240f31ff3ad067ef1ee35ce4997762752e3a095284754544f4c709d7910160405180910390a361070e83826115d6565b6006546001600160a01b03163314610a535760405162461bcd60e51b815260040161083e90611a2d565b610a5d6000611639565b565b600654600090600160a01b900460ff1615610aaf5760405162461bcd60e51b815260206004820152601060248201526f14185d5cd8589b194e881c185d5cd95960821b604482015260640161083e565b610ab883610bbc565b9050610aef6001600160a01b037f0000000000000000000000000000000000000000000000000000000000000000163330846114f2565b610af9828461157c565b60408051828152602081018590526001600160a01b0384169133917fdcbc1c05240f31ff3ad067ef1ee35ce4997762752e3a095284754544f4c709d7910160405180910390a361070e81846115d6565b600180546105f9906119c5565b33600090815260036020526040812080548391908390610b77908490611a16565b90915550506001600160a01b03831660008181526003602052604090819020805485019055513390600080516020611b17833981519152906107029086815260200190565b600254600090801561069e57610699610bd3610513565b84908361142a565b6000610be684610714565b9050336001600160a01b03831614610c56576001600160a01b03821660009081526004602090815260408083203384529091529020546000198114610c5457610c2f8282611a16565b6001600160a01b03841660009081526004602090815260408083203384529091529020555b505b600654600160a01b900460ff16610d96576040516370a0823160e01b81523060048201526000907f00000000000000000000000000000000000000000000000000000000000000006001600160a01b0316906370a0823190602401602060405180830381865afa158015610cce573d6000803e3d6000fd5b505050506040513d601f19601f82011682018060405250810190610cf291906119ac565b9050610cfe858361168b565b6040516370a0823160e01b815230600482015281907f00000000000000000000000000000000000000000000000000000000000000006001600160a01b0316906370a0823190602401602060405180830381865afa158015610d64573d6000803e3d6000fd5b505050506040513d601f19601f82011682018060405250810190610d8891906119ac565b610d929190611a16565b9450505b610da082826116bc565b60408051858152602081018390526001600160a01b03808516929086169133917ffbde797d201c681b91056529119e0b02407c7bb96a4a2c75c01fc9667232c8db910160405180910390a46106a06001600160a01b037f000000000000000000000000000000000000000000000000000000000000000016848661171e565b6000336001600160a01b03831614610e8f576001600160a01b03821660009081526004602090815260408083203384529091529020546000198114610e8d57610e688582611a16565b6001600160a01b03841660009081526004602090815260408083203384529091529020555b505b610e98846108f9565b905080610ed55760405162461bcd60e51b815260206004820152600b60248201526a5a45524f5f41535345545360a81b604482015260640161083e565b600654600160a01b900460ff16611015576040516370a0823160e01b81523060048201526000907f00000000000000000000000000000000000000000000000000000000000000006001600160a01b0316906370a0823190602401602060405180830381865afa158015610f4d573d6000803e3d6000fd5b505050506040513d601f19601f82011682018060405250810190610f7191906119ac565b9050610f7d828661168b565b6040516370a0823160e01b815230600482015281907f00000000000000000000000000000000000000000000000000000000000000006001600160a01b0316906370a0823190602401602060405180830381865afa158015610fe3573d6000803e3d6000fd5b505050506040513d601f19601f8201168201806040525081019061100791906119ac565b6110119190611a16565b9150505b61101f82856116bc565b60408051828152602081018690526001600160a01b03808516929086169133917ffbde797d201c681b91056529119e0b02407c7bb96a4a2c75c01fc9667232c8db910160405180910390a46106a06001600160a01b037f000000000000000000000000000000000000000000000000000000000000000016848361171e565b600254600090801561069e57610699816110b6610513565b85919061140b565b4284101561110e5760405162461bcd60e51b815260206004820152601760248201527f5045524d49545f444541444c494e455f45585049524544000000000000000000604482015260640161083e565b6000600161111a610881565b6001600160a01b038a811660008181526005602090815260409182902080546001810190915582517f6e71edae12b1b97f4d1f60370fef10105fa2faae0126114a169c64845d6126c98184015280840194909452938d166060840152608083018c905260a083019390935260c08083018b90528151808403909101815260e08301909152805192019190912061190160f01b6101008301526101028201929092526101228101919091526101420160408051601f198184030181528282528051602091820120600084529083018083525260ff871690820152606081018590526080810184905260a0016020604051602081039080840390855afa158015611226573d6000803e3d6000fd5b5050604051601f1901519150506001600160a01b0381161580159061125c5750876001600160a01b0316816001600160a01b0316145b6112995760405162461bcd60e51b815260206004820152600e60248201526d24a72b20a624a22fa9a4a3a722a960911b604482015260640161083e565b6001600160a01b0390811660009081526004602090815260408083208a8516808552908352928190208990555188815291928a16917f8c5be1e5ebec7d5bd14f71427d1e84f3dd0314c0f7b2291e5b200ac8c7c3b925910160405180910390a350505050505050565b600754604051636be2be9560e01b8152600481018390526000916001600160a01b031690636be2be9590602401602060405180830381865afa15801561134c573d6000803e3d6000fd5b505050506040513d601f19601f8201168201806040525081019061070e91906119ac565b6006546001600160a01b0316331461139a5760405162461bcd60e51b815260040161083e90611a2d565b6001600160a01b0381166113ff5760405162461bcd60e51b815260206004820152602660248201527f4f776e61626c653a206e6577206f776e657220697320746865207a65726f206160448201526564647265737360d01b606482015260840161083e565b61140881611639565b50565b82820281151584158583048514171661142357600080fd5b0492915050565b82820281151584158583048514171661144257600080fd5b6001826001830304018115150290509392505050565b60007f8b73c3c69bb8fe3d512ecc4cf759cc79239f7b179b0ffacaa9a75d522b39400f600060405161148a9190611a62565b6040805191829003822060208301939093528101919091527fc89efdaa54c0f20c7adf612882df0950f5a951637e0307cdcb4c672f298b8bc660608201524660808201523060a082015260c00160405160208183030381529060405280519060200120905090565b60006040516323b872dd60e01b81528460048201528360248201528260448201526020600060648360008a5af13d15601f3d11600160005114161716915050806115755760405162461bcd60e51b81526020600482015260146024820152731514905394d1915497d19493d357d1905253115160621b604482015260640161083e565b5050505050565b806002600082825461158e9190611afe565b90915550506001600160a01b038216600081815260036020908152604080832080548601905551848152600080516020611b1783398151915291015b60405180910390a35050565b600754604051632967cf8360e21b8152600481018490526001600160a01b039091169063a59f3e0c906024015b600060405180830381600087803b15801561161d57600080fd5b505af1158015611631573d6000803e3d6000fd5b505050505050565b600680546001600160a01b038381166001600160a01b0319831681179093556040519116919082907f8be0079c531659141344cd1fd0a4f28419497f9722a3daafe3b4186f6b6457e090600090a35050565b6007546040516367dfd4c960e01b8152600481018390526001600160a01b03909116906367dfd4c990602401611603565b6001600160a01b038216600090815260036020526040812080548392906116e4908490611a16565b90915550506002805482900390556040518181526000906001600160a01b03841690600080516020611b17833981519152906020016115ca565b600060405163a9059cbb60e01b8152836004820152826024820152602060006044836000895af13d15601f3d11600160005114161716915050806117965760405162461bcd60e51b815260206004820152600f60248201526e1514905394d1915497d19052531151608a1b604482015260640161083e565b50505050565b600060208083528351808285015260005b818110156117c9578581018301518582016040015282016117ad565b818111156117db576000604083870101525b50601f01601f1916929092016040019392505050565b60006020828403121561180357600080fd5b5035919050565b80356001600160a01b038116811461182157600080fd5b919050565b6000806040838503121561183957600080fd5b6118428361180a565b946020939093013593505050565b60008060006060848603121561186557600080fd5b61186e8461180a565b925061187c6020850161180a565b9150604084013590509250925092565b60006020828403121561189e57600080fd5b6106a08261180a565b600080604083850312156118ba57600080fd5b823591506118ca6020840161180a565b90509250929050565b6000806000606084860312156118e857600080fd5b833592506118f86020850161180a565b91506119066040850161180a565b90509250925092565b600080600080600080600060e0888a03121561192a57600080fd5b6119338861180a565b96506119416020890161180a565b95506040880135945060608801359350608088013560ff8116811461196557600080fd5b9699959850939692959460a0840135945060c09093013592915050565b6000806040838503121561199557600080fd5b61199e8361180a565b91506118ca6020840161180a565b6000602082840312156119be57600080fd5b5051919050565b600181811c908216806119d957607f821691505b602082108114156119fa57634e487b7160e01b600052602260045260246000fd5b50919050565b634e487b7160e01b600052601160045260246000fd5b600082821015611a2857611a28611a00565b500390565b6020808252818101527f4f776e61626c653a2063616c6c6572206973206e6f7420746865206f776e6572604082015260600190565b600080835481600182811c915080831680611a7e57607f831692505b6020808410821415611a9e57634e487b7160e01b86526022600452602486fd5b818015611ab25760018114611ac357611af0565b60ff19861689528489019650611af0565b60008a81526020902060005b86811015611ae85781548b820152908501908301611acf565b505084890196505b509498975050505050505050565b60008219821115611b1157611b11611a00565b50019056feddf252ad1be2c89b69c2b068fc378daa952ba7f163c4a11628f55a4df523b3efa164736f6c634300080a000a",
    "linkReferences": {}
  },
  "methodIdentifiers": {
    "DOMAIN_SEPARATOR()": "3644e515",
    "allowance(address,address)": "dd62ed3e",
    "approve(address,uint256)": "095ea7b3",
    "asset()": "38d52e0f",
    "balanceOf(address)": "70a08231",
    "balanceOfUnderlying(address)": "3af9e669",
    "convertToAssets(uint256)": "07a2d13a",
    "convertToShares(uint256)": "c6e6f592",
    "decimals()": "313ce567",
    "deposit(uint256,address)": "6e553f65",
    "emergencyWithdrawAndPause()": "28357978",
    "maxDeposit(address)": "402d267d",
    "maxMint(address)": "c63d75b6",
    "maxRedeem(address)": "d905777e",
    "maxWithdraw(address)": "ce96cb77",
    "mint(uint256,address)": "94bf804d",
    "name()": "06fdde03",
    "nonces(address)": "7ecebe00",
    "owner()": "8da5cb5b",
    "paused()": "5c975abb",
    "permit(address,address,uint256,uint256,uint8,bytes32,bytes32)": "d505accf",
    "previewDeposit(uint256)": "ef8b30f7",
    "previewMint(uint256)": "b3d7f6b9",
    "previewRedeem(uint256)": "4cdad506",
    "previewWithdraw(uint256)": "0a28a477",
    "redeem(uint256,address,address)": "ba087652",
    "renounceOwnership()": "715018a6",
    "symbol()": "95d89b41",
    "totalAssets()": "01e1d114",
    "totalSupply()": "18160ddd",
    "transfer(address,uint256)": "a9059cbb",
    "transferFrom(address,address,uint256)": "23b872dd",
    "transferOwnership(address)": "f2fde38b",
    "unpause()": "3f4ba83a",
    "withdraw(uint256,address,address)": "b460af94",
    "xbomb()": "a32b0d5d"
  }
}