{
  "address": "0x216d5e34FEE40E5ea091040E16f6CdcA76CfD836",
  "abi": [
    {
      "anonymous": false,
      "inputs": [
        {
          "indexed": true,
          "internalType": "address",
          "name": "owner",
          "type": "address"
        },
        {
          "indexed": true,
          "internalType": "address",
          "name": "spender",
          "type": "address"
        },
        {
          "indexed": false,
          "internalType": "uint256",
          "name": "value",
          "type": "uint256"
        }
      ],
      "name": "Approval",
      "type": "event"
    },
    {
      "anonymous": false,
      "inputs": [
        {
          "indexed": true,
          "internalType": "address",
          "name": "caller",
          "type": "address"
        },
        {
          "indexed": true,
          "internalType": "address",
          "name": "owner",
          "type": "address"
        },
        {
          "indexed": false,
          "internalType": "uint256",
          "name": "assets",
          "type": "uint256"
        },
        {
          "indexed": false,
          "internalType": "uint256",
          "name": "shares",
          "type": "uint256"
        }
      ],
      "name": "Deposit",
      "type": "event"
    },
    {
      "anonymous": false,
      "inputs": [
        {
          "indexed": false,
          "internalType": "uint8",
          "name": "version",
          "type": "uint8"
        }
      ],
      "name": "Initialized",
      "type": "event"
    },
    {
      "anonymous": false,
      "inputs": [
        {
          "indexed": false,
          "internalType": "address",
          "name": "oldOwner",
          "type": "address"
        },
        {
          "indexed": false,
          "internalType": "address",
          "name": "newOwner",
          "type": "address"
        }
      ],
      "name": "NewOwner",
      "type": "event"
    },
    {
      "anonymous": false,
      "inputs": [
        {
          "indexed": false,
          "internalType": "address",
          "name": "oldPendingOwner",
          "type": "address"
        },
        {
          "indexed": false,
          "internalType": "address",
          "name": "newPendingOwner",
          "type": "address"
        }
      ],
      "name": "NewPendingOwner",
      "type": "event"
    },
    {
      "anonymous": false,
      "inputs": [
        {
          "indexed": true,
          "internalType": "address",
          "name": "previousOwner",
          "type": "address"
        },
        {
          "indexed": true,
          "internalType": "address",
          "name": "newOwner",
          "type": "address"
        }
      ],
      "name": "OwnershipTransferred",
      "type": "event"
    },
    {
      "anonymous": false,
      "inputs": [
        {
          "indexed": false,
          "internalType": "address",
          "name": "account",
          "type": "address"
        }
      ],
      "name": "Paused",
      "type": "event"
    },
    {
      "anonymous": false,
      "inputs": [
        {
          "indexed": true,
          "internalType": "address",
          "name": "from",
          "type": "address"
        },
        {
          "indexed": true,
          "internalType": "address",
          "name": "to",
          "type": "address"
        },
        {
          "indexed": false,
          "internalType": "uint256",
          "name": "value",
          "type": "uint256"
        }
      ],
      "name": "Transfer",
      "type": "event"
    },
    {
      "anonymous": false,
      "inputs": [
        {
          "indexed": false,
          "internalType": "address",
          "name": "account",
          "type": "address"
        }
      ],
      "name": "Unpaused",
      "type": "event"
    },
    {
      "anonymous": false,
      "inputs": [
        {
          "indexed": false,
          "internalType": "uint256",
          "name": "oldPerformanceFee",
          "type": "uint256"
        },
        {
          "indexed": false,
          "internalType": "uint256",
          "name": "newPerformanceFee",
          "type": "uint256"
        },
        {
          "indexed": false,
          "internalType": "address",
          "name": "oldFeeRecipient",
          "type": "address"
        },
        {
          "indexed": false,
          "internalType": "address",
          "name": "newFeeRecipient",
          "type": "address"
        }
      ],
      "name": "UpdatedFeeSettings",
      "type": "event"
    },
    {
      "anonymous": false,
      "inputs": [
        {
          "indexed": true,
          "internalType": "address",
          "name": "caller",
          "type": "address"
        },
        {
          "indexed": true,
          "internalType": "address",
          "name": "receiver",
          "type": "address"
        },
        {
          "indexed": true,
          "internalType": "address",
          "name": "owner",
          "type": "address"
        },
        {
          "indexed": false,
          "internalType": "uint256",
          "name": "assets",
          "type": "uint256"
        },
        {
          "indexed": false,
          "internalType": "uint256",
          "name": "shares",
          "type": "uint256"
        }
      ],
      "name": "Withdraw",
      "type": "event"
    },
    {
      "inputs": [],
      "name": "_acceptOwner",
      "outputs": [],
      "stateMutability": "nonpayable",
      "type": "function"
    },
    {
      "inputs": [
        {
          "internalType": "address",
          "name": "newPendingOwner",
          "type": "address"
        }
      ],
      "name": "_setPendingOwner",
      "outputs": [],
      "stateMutability": "nonpayable",
      "type": "function"
    },
    {
      "inputs": [
        {
          "internalType": "address",
          "name": "owner",
          "type": "address"
        },
        {
          "internalType": "address",
          "name": "spender",
          "type": "address"
        }
      ],
      "name": "allowance",
      "outputs": [
        {
          "internalType": "uint256",
          "name": "",
          "type": "uint256"
        }
      ],
      "stateMutability": "view",
      "type": "function"
    },
    {
      "inputs": [
        {
          "internalType": "address",
          "name": "spender",
          "type": "address"
        },
        {
          "internalType": "uint256",
          "name": "amount",
          "type": "uint256"
        }
      ],
      "name": "approve",
      "outputs": [
        {
          "internalType": "bool",
          "name": "",
          "type": "bool"
        }
      ],
      "stateMutability": "nonpayable",
      "type": "function"
    },
    {
      "inputs": [],
      "name": "asset",
      "outputs": [
        {
          "internalType": "address",
          "name": "",
          "type": "address"
        }
      ],
      "stateMutability": "view",
      "type": "function"
    },
    {
      "inputs": [
        {
          "internalType": "address",
          "name": "account",
          "type": "address"
        }
      ],
      "name": "balanceOf",
      "outputs": [
        {
          "internalType": "uint256",
          "name": "",
          "type": "uint256"
        }
      ],
      "stateMutability": "view",
      "type": "function"
    },
    {
      "inputs": [
        {
          "internalType": "address",
          "name": "account",
          "type": "address"
        }
      ],
      "name": "balanceOfUnderlying",
      "outputs": [
        {
          "internalType": "uint256",
          "name": "",
          "type": "uint256"
        }
      ],
      "stateMutability": "view",
      "type": "function"
    },
    {
      "inputs": [
        {
          "internalType": "uint256",
          "name": "shares",
          "type": "uint256"
        }
      ],
      "name": "convertToAssets",
      "outputs": [
        {
          "internalType": "uint256",
          "name": "assets",
          "type": "uint256"
        }
      ],
      "stateMutability": "view",
      "type": "function"
    },
    {
      "inputs": [
        {
          "internalType": "uint256",
          "name": "assets",
          "type": "uint256"
        }
      ],
      "name": "convertToShares",
      "outputs": [
        {
          "internalType": "uint256",
          "name": "shares",
          "type": "uint256"
        }
      ],
      "stateMutability": "view",
      "type": "function"
    },
    {
      "inputs": [],
      "name": "decimals",
      "outputs": [
        {
          "internalType": "uint8",
          "name": "",
          "type": "uint8"
        }
      ],
      "stateMutability": "view",
      "type": "function"
    },
    {
      "inputs": [
        {
          "internalType": "address",
          "name": "spender",
          "type": "address"
        },
        {
          "internalType": "uint256",
          "name": "subtractedValue",
          "type": "uint256"
        }
      ],
      "name": "decreaseAllowance",
      "outputs": [
        {
          "internalType": "bool",
          "name": "",
          "type": "bool"
        }
      ],
      "stateMutability": "nonpayable",
      "type": "function"
    },
    {
      "inputs": [
        {
          "internalType": "uint256",
          "name": "assets",
          "type": "uint256"
        },
        {
          "internalType": "address",
          "name": "receiver",
          "type": "address"
        }
      ],
      "name": "deposit",
      "outputs": [
        {
          "internalType": "uint256",
          "name": "shares",
          "type": "uint256"
        }
      ],
      "stateMutability": "nonpayable",
      "type": "function"
    },
    {
      "inputs": [],
      "name": "emergencyWithdrawAndPause",
      "outputs": [],
      "stateMutability": "nonpayable",
      "type": "function"
    },
    {
      "inputs": [],
      "name": "feeRecipient",
      "outputs": [
        {
          "internalType": "address",
          "name": "",
          "type": "address"
        }
      ],
      "stateMutability": "view",
      "type": "function"
    },
    {
      "inputs": [
        {
          "internalType": "address",
          "name": "spender",
          "type": "address"
        },
        {
          "internalType": "uint256",
          "name": "addedValue",
          "type": "uint256"
        }
      ],
      "name": "increaseAllowance",
      "outputs": [
        {
          "internalType": "bool",
          "name": "",
          "type": "bool"
        }
      ],
      "stateMutability": "nonpayable",
      "type": "function"
    },
    {
      "inputs": [
        {
          "internalType": "contract ERC20Upgradeable",
          "name": "asset",
          "type": "address"
        },
        {
          "internalType": "address",
          "name": "_xbombAddress",
          "type": "address"
        }
      ],
      "name": "initialize",
      "outputs": [],
      "stateMutability": "nonpayable",
      "type": "function"
    },
    {
      "inputs": [
        {
          "internalType": "address",
          "name": "",
          "type": "address"
        }
      ],
      "name": "maxDeposit",
      "outputs": [
        {
          "internalType": "uint256",
          "name": "",
          "type": "uint256"
        }
      ],
      "stateMutability": "view",
      "type": "function"
    },
    {
      "inputs": [
        {
          "internalType": "address",
          "name": "",
          "type": "address"
        }
      ],
      "name": "maxMint",
      "outputs": [
        {
          "internalType": "uint256",
          "name": "",
          "type": "uint256"
        }
      ],
      "stateMutability": "view",
      "type": "function"
    },
    {
      "inputs": [
        {
          "internalType": "address",
          "name": "owner",
          "type": "address"
        }
      ],
      "name": "maxRedeem",
      "outputs": [
        {
          "internalType": "uint256",
          "name": "",
          "type": "uint256"
        }
      ],
      "stateMutability": "view",
      "type": "function"
    },
    {
      "inputs": [
        {
          "internalType": "address",
          "name": "owner",
          "type": "address"
        }
      ],
      "name": "maxWithdraw",
      "outputs": [
        {
          "internalType": "uint256",
          "name": "",
          "type": "uint256"
        }
      ],
      "stateMutability": "view",
      "type": "function"
    },
    {
      "inputs": [
        {
          "internalType": "uint256",
          "name": "shares",
          "type": "uint256"
        },
        {
          "internalType": "address",
          "name": "receiver",
          "type": "address"
        }
      ],
      "name": "mint",
      "outputs": [
        {
          "internalType": "uint256",
          "name": "assets",
          "type": "uint256"
        }
      ],
      "stateMutability": "nonpayable",
      "type": "function"
    },
    {
      "inputs": [],
      "name": "name",
      "outputs": [
        {
          "internalType": "string",
          "name": "",
          "type": "string"
        }
      ],
      "stateMutability": "view",
      "type": "function"
    },
    {
      "inputs": [],
      "name": "owner",
      "outputs": [
        {
          "internalType": "address",
          "name": "",
          "type": "address"
        }
      ],
      "stateMutability": "view",
      "type": "function"
    },
    {
      "inputs": [],
      "name": "paused",
      "outputs": [
        {
          "internalType": "bool",
          "name": "",
          "type": "bool"
        }
      ],
      "stateMutability": "view",
      "type": "function"
    },
    {
      "inputs": [],
      "name": "pendingOwner",
      "outputs": [
        {
          "internalType": "address",
          "name": "",
          "type": "address"
        }
      ],
      "stateMutability": "view",
      "type": "function"
    },
    {
      "inputs": [],
      "name": "performanceFee",
      "outputs": [
        {
          "internalType": "uint256",
          "name": "",
          "type": "uint256"
        }
      ],
      "stateMutability": "view",
      "type": "function"
    },
    {
      "inputs": [
        {
          "internalType": "uint256",
          "name": "bombAssets",
          "type": "uint256"
        }
      ],
      "name": "previewDeposit",
      "outputs": [
        {
          "internalType": "uint256",
          "name": "",
          "type": "uint256"
        }
      ],
      "stateMutability": "view",
      "type": "function"
    },
    {
      "inputs": [
        {
          "internalType": "uint256",
          "name": "shares",
          "type": "uint256"
        }
      ],
      "name": "previewMint",
      "outputs": [
        {
          "internalType": "uint256",
          "name": "",
          "type": "uint256"
        }
      ],
      "stateMutability": "view",
      "type": "function"
    },
    {
      "inputs": [
        {
          "internalType": "uint256",
          "name": "shares",
          "type": "uint256"
        }
      ],
      "name": "previewRedeem",
      "outputs": [
        {
          "internalType": "uint256",
          "name": "",
          "type": "uint256"
        }
      ],
      "stateMutability": "view",
      "type": "function"
    },
    {
      "inputs": [
        {
          "internalType": "uint256",
          "name": "assets",
          "type": "uint256"
        }
      ],
      "name": "previewWithdraw",
      "outputs": [
        {
          "internalType": "uint256",
          "name": "",
          "type": "uint256"
        }
      ],
      "stateMutability": "view",
      "type": "function"
    },
    {
      "inputs": [
        {
          "internalType": "uint256",
          "name": "shares",
          "type": "uint256"
        },
        {
          "internalType": "address",
          "name": "receiver",
          "type": "address"
        },
        {
          "internalType": "address",
          "name": "owner",
          "type": "address"
        }
      ],
      "name": "redeem",
      "outputs": [
        {
          "internalType": "uint256",
          "name": "assets",
          "type": "uint256"
        }
      ],
      "stateMutability": "nonpayable",
      "type": "function"
    },
    {
      "inputs": [],
      "name": "renounceOwnership",
      "outputs": [],
      "stateMutability": "nonpayable",
      "type": "function"
    },
    {
      "inputs": [],
      "name": "symbol",
      "outputs": [
        {
          "internalType": "string",
          "name": "",
          "type": "string"
        }
      ],
      "stateMutability": "view",
      "type": "function"
    },
    {
      "inputs": [],
      "name": "takePerformanceFee",
      "outputs": [],
      "stateMutability": "nonpayable",
      "type": "function"
    },
    {
      "inputs": [],
      "name": "totalAssets",
      "outputs": [
        {
          "internalType": "uint256",
          "name": "",
          "type": "uint256"
        }
      ],
      "stateMutability": "view",
      "type": "function"
    },
    {
      "inputs": [],
      "name": "totalSupply",
      "outputs": [
        {
          "internalType": "uint256",
          "name": "",
          "type": "uint256"
        }
      ],
      "stateMutability": "view",
      "type": "function"
    },
    {
      "inputs": [
        {
          "internalType": "address",
          "name": "to",
          "type": "address"
        },
        {
          "internalType": "uint256",
          "name": "amount",
          "type": "uint256"
        }
      ],
      "name": "transfer",
      "outputs": [
        {
          "internalType": "bool",
          "name": "",
          "type": "bool"
        }
      ],
      "stateMutability": "nonpayable",
      "type": "function"
    },
    {
      "inputs": [
        {
          "internalType": "address",
          "name": "from",
          "type": "address"
        },
        {
          "internalType": "address",
          "name": "to",
          "type": "address"
        },
        {
          "internalType": "uint256",
          "name": "amount",
          "type": "uint256"
        }
      ],
      "name": "transferFrom",
      "outputs": [
        {
          "internalType": "bool",
          "name": "",
          "type": "bool"
        }
      ],
      "stateMutability": "nonpayable",
      "type": "function"
    },
    {
      "inputs": [
        {
          "internalType": "address",
          "name": "newOwner",
          "type": "address"
        }
      ],
      "name": "transferOwnership",
      "outputs": [],
      "stateMutability": "nonpayable",
      "type": "function"
    },
    {
      "inputs": [],
      "name": "unpause",
      "outputs": [],
      "stateMutability": "nonpayable",
      "type": "function"
    },
    {
      "inputs": [
        {
          "internalType": "uint256",
          "name": "newPerformanceFee",
          "type": "uint256"
        },
        {
          "internalType": "address",
          "name": "newFeeRecipient",
          "type": "address"
        }
      ],
      "name": "updateFeeSettings",
      "outputs": [],
      "stateMutability": "nonpayable",
      "type": "function"
    },
    {
      "inputs": [],
      "name": "vaultShareHWM",
      "outputs": [
        {
          "internalType": "uint256",
          "name": "",
          "type": "uint256"
        }
      ],
      "stateMutability": "view",
      "type": "function"
    },
    {
      "inputs": [
        {
          "internalType": "uint256",
          "name": "assets",
          "type": "uint256"
        },
        {
          "internalType": "address",
          "name": "receiver",
          "type": "address"
        },
        {
          "internalType": "address",
          "name": "owner",
          "type": "address"
        }
      ],
      "name": "withdraw",
      "outputs": [
        {
          "internalType": "uint256",
          "name": "shares",
          "type": "uint256"
        }
      ],
      "stateMutability": "nonpayable",
      "type": "function"
    },
    {
      "inputs": [],
      "name": "withdrawAccruedFees",
      "outputs": [],
      "stateMutability": "nonpayable",
      "type": "function"
    },
    {
      "inputs": [],
      "name": "xbomb",
      "outputs": [
        {
          "internalType": "contract IXBomb",
          "name": "",
          "type": "address"
        }
      ],
      "stateMutability": "view",
      "type": "function"
    }
  ],
  "transactionHash": "0x7bfc34d9fdf204bb84b9508480e4595dd7d70b0568f2570d22b1bbb572461126",
  "args": [],
  "numDeployments": 1,
  "bytecode": {
    "object": "0x608060405266b1a2bc2ec5000060fc5534801561001b57600080fd5b50612b558061002b6000396000f3fe608060405234801561001057600080fd5b506004361061027f5760003560e01c80636e96dfd71161015c578063b3d7f6b9116100ce578063d905777e11610087578063d905777e1461052c578063dd62ed3e1461053f578063e30c397814610552578063ef8b30f714610565578063f2fde38b14610578578063fc4d33f91461058b57600080fd5b8063b3d7f6b9146104b8578063b460af94146104cb578063ba087652146104de578063c63d75b6146104f1578063c6e6f59214610506578063ce96cb771461051957600080fd5b806394bf804d1161012057806394bf804d1461045c57806395d89b411461046f578063a32b0d5d14610477578063a457c2d71461048a578063a9059cbb1461049d578063ada82c7d146104b057600080fd5b80636e96dfd7146103fe57806370a0823114610411578063715018a61461043a57806387788782146104425780638da5cb5b1461044b57600080fd5b806338d52e0f116101f557806346904840116101b957806346904840146103ab578063485cc955146103be5780634cdad506146102b457806356f89ef9146103d15780635c975abb146103d95780636e553f65146103eb57600080fd5b806338d52e0f1461034d57806339509351146103725780633af9e669146103855780633f4ba83a14610336578063402d267d1461039857600080fd5b806310509aa91161024757806310509aa9146102fd57806318160ddd14610312578063211493c91461031a57806323b872dd146103235780632835797814610336578063313ce5671461033e57600080fd5b806301e1d1141461028457806306fdde031461029f57806307a2d13a146102b4578063095ea7b3146102c75780630a28a477146102ea575b600080fd5b61028c610593565b6040519081526020015b60405180910390f35b6102a761066c565b60405161029691906125f8565b61028c6102c236600461262b565b6106fe565b6102da6102d5366004612659565b610711565b6040519015158152602001610296565b61028c6102f836600461262b565b610729565b61031061030b366004612685565b610736565b005b60995461028c565b61028c60fb5481565b6102da6103313660046126b5565b610859565b61031061087f565b60405160128152602001610296565b60c9546001600160a01b03165b6040516001600160a01b039091168152602001610296565b6102da610380366004612659565b6108c6565b61028c6103933660046126f6565b6108e8565b61028c6103a63660046126f6565b61090a565b60fd5461035a906001600160a01b031681565b6103106103cc366004612713565b610928565b610310610ac9565b606554600160a01b900460ff166102da565b61028c6103f9366004612685565b610c3a565b61031061040c3660046126f6565b610d03565b61028c61041f3660046126f6565b6001600160a01b031660009081526097602052604090205490565b610310610d6d565b61028c60fc5481565b6033546001600160a01b031661035a565b61028c61046a366004612685565b610db0565b6102a7610e2d565b60fe5461035a906001600160a01b031681565b6102da610498366004612659565b610e3c565b6102da6104ab366004612659565b610ec2565b610310610ed0565b61028c6104c636600461262b565b610f00565b61028c6104d9366004612741565b610f0d565b61028c6104ec366004612741565b6110d6565b61028c6104ff3660046126f6565b5060001990565b61028c61051436600461262b565b6112ca565b61028c6105273660046126f6565b6112d7565b61028c61053a3660046126f6565b6112fb565b61028c61054d366004612713565b611319565b60655461035a906001600160a01b031681565b61028c61057336600461262b565b611344565b6103106105863660046126f6565b610d6d565b6103106113b2565b60fe546040516370a0823160e01b81523060048201526000916001600160a01b03169063067e4b9e9082906370a0823190602401602060405180830381865afa1580156105e4573d6000803e3d6000fd5b505050506040513d601f19601f820116820180604052508101906106089190612783565b6040518263ffffffff1660e01b815260040161062691815260200190565b602060405180830381865afa158015610643573d6000803e3d6000fd5b505050506040513d601f19601f820116820180604052508101906106679190612783565b905090565b6060609a805461067b9061279c565b80601f01602080910402602001604051908101604052809291908181526020018280546106a79061279c565b80156106f45780601f106106c9576101008083540402835291602001916106f4565b820191906000526020600020905b8154815290600101906020018083116106d757829003601f168201915b5050505050905090565b600061070b8260006114c6565b92915050565b60003361071f81858561158c565b5060019392505050565b600061070b8260016116b0565b61073e61175f565b60fc5460fd5460408051928352602083018590526001600160a01b0391821690830152821660608201527fb3b62da5184b9e7e2f5d280014bb485d4444b66738025e5fb5738bbddcb6b8489060800160405180910390a160fc82905560fd546001600160a01b038281169116146108555760fd546001600160a01b0316156108395760fd546001600160a01b0316600081815260976020526040902054906107e690826117bb565b60fd5461080f906001600160a01b03166108086033546001600160a01b031690565b600061158c565b61081982826118ef565b6108378261082f6033546001600160a01b031690565b60001961158c565b505b60fd80546001600160a01b0319166001600160a01b0383161790555b5050565b6000336108678582856119b0565b610872858585611a2a565b60019150505b9392505050565b61088761175f565b60405162461bcd60e51b815260206004820152600f60248201526e10b4b6b83632b6b2b73a30ba34b7b760891b60448201526064015b60405180910390fd5b60003361071f8185856108d98383611319565b6108e391906127ed565b61158c565b6001600160a01b03811660009081526097602052604081205461070b906106fe565b6000610914611bd5565b61091f57600061070b565b60001992915050565b600054610100900460ff16158080156109485750600054600160ff909116105b806109625750303b158015610962575060005460ff166001145b6109c55760405162461bcd60e51b815260206004820152602e60248201527f496e697469616c697a61626c653a20636f6e747261637420697320616c72656160448201526d191e481a5b9a5d1a585b1a5e995960921b60648201526084016108bd565b6000805460ff1916600117905580156109e8576000805461ff0019166101001790555b6109f183611bef565b60fe80546001600160a01b0319166001600160a01b0384811691821790925560405163095ea7b360e01b8152600481019190915260001960248201529084169063095ea7b3906044016020604051808303816000875af1158015610a59573d6000803e3d6000fd5b505050506040513d601f19601f82011682018060405250810190610a7d9190612805565b508015610ac4576000805461ff0019169055604051600181527f7f26b83ff96e1f2b6a682f133852f6798a09c465da95921460cefb38474024989060200160405180910390a15b505050565b610ad161175f565b6000610adb610593565b90506000610b56610aea611dbc565b6001600160a01b031663313ce5676040518163ffffffff1660e01b8152600401602060405180830381865afa158015610b27573d6000803e3d6000fd5b505050506040513d601f19601f82011682018060405250810190610b4b9190612827565b6102c290600a61292e565b905060fb548111610ba95760405162461bcd60e51b815260206004820152601b60248201527f736861726556616c756520213e207661756c74536861726548574d000000000060448201526064016108bd565b6000610bb460995490565b905060006ec097ce7bc90715b34b9f10000000008260fb5485610bd7919061293d565b60fc54610be49190612954565b610bee9190612954565b610bf89190612989565b60fd54909150610c26906001600160a01b0316610c2184610c19858961293d565b859190611dd0565b6118ef565b610c31610aea611dbc565b60fb5550505050565b6000610c44611def565b610c4d83611344565b905080610c8a5760405162461bcd60e51b815260206004820152600b60248201526a5a45524f5f53484152455360a81b60448201526064016108bd565b610ca9333085610c98611dbc565b6001600160a01b0316929190611e3c565b610cb382826118ef565b60408051848152602081018390526001600160a01b0384169133917fdcbc1c05240f31ff3ad067ef1ee35ce4997762752e3a095284754544f4c709d7910160405180910390a361070b8382611ea7565b610d0b61175f565b606580546001600160a01b038381166001600160a01b031983168117909355604080519190921680825260208201939093527fb3d55174552271a4f1aaf36b72f50381e892171636b3fb5447fe00e995e7a37b91015b60405180910390a15050565b610d7561175f565b60405162461bcd60e51b815260206004820152601060248201526f6e6f74207573656420616e796d6f726560801b60448201526064016108bd565b6000610dba611def565b610dc383610f00565b9050610dd3333083610c98611dbc565b610ddd82846118ef565b60408051828152602081018590526001600160a01b0384169133917fdcbc1c05240f31ff3ad067ef1ee35ce4997762752e3a095284754544f4c709d7910160405180910390a361070b8184611ea7565b6060609b805461067b9061279c565b60003381610e4a8286611319565b905083811015610eaa5760405162461bcd60e51b815260206004820152602560248201527f45524332303a2064656372656173656420616c6c6f77616e63652062656c6f77604482015264207a65726f60d81b60648201526084016108bd565b610eb7828686840361158c565b506001949350505050565b60003361071f818585611a2a565b610ed861175f565b60fd546001600160a01b0316600081815260976020526040902054610efd91806110d6565b50565b600061070b8260016114c6565b6000610f1884610729565b9050336001600160a01b03831614610f52576000610f368333611319565b90506000198114610f5057610f5083336108e3858561293d565b505b606554600160a01b900460ff16611064576000610f6d611dbc565b6040516370a0823160e01b81523060048201526001600160a01b0391909116906370a0823190602401602060405180830381865afa158015610fb3573d6000803e3d6000fd5b505050506040513d601f19601f82011682018060405250810190610fd79190612783565b9050610fe38583611f0a565b80610fec611dbc565b6040516370a0823160e01b81523060048201526001600160a01b0391909116906370a0823190602401602060405180830381865afa158015611032573d6000803e3d6000fd5b505050506040513d601f19601f820116820180604052508101906110569190612783565b611060919061293d565b9450505b61106e82826117bb565b60408051858152602081018390526001600160a01b03808516929086169133917ffbde797d201c681b91056529119e0b02407c7bb96a4a2c75c01fc9667232c8db910160405180910390a461087883856110c6611dbc565b6001600160a01b03169190611f3b565b6000336001600160a01b038316146111105760006110f48333611319565b9050600019811461110e5761110e83336108e3888561293d565b505b611119846106fe565b9050806111565760405162461bcd60e51b815260206004820152600b60248201526a5a45524f5f41535345545360a81b60448201526064016108bd565b606554600160a01b900460ff16611268576000611171611dbc565b6040516370a0823160e01b81523060048201526001600160a01b0391909116906370a0823190602401602060405180830381865afa1580156111b7573d6000803e3d6000fd5b505050506040513d601f19601f820116820180604052508101906111db9190612783565b90506111e78286611f0a565b806111f0611dbc565b6040516370a0823160e01b81523060048201526001600160a01b0391909116906370a0823190602401602060405180830381865afa158015611236573d6000803e3d6000fd5b505050506040513d601f19601f8201168201806040525081019061125a9190612783565b611264919061293d565b9150505b61127282856117bb565b60408051828152602081018690526001600160a01b03808516929086169133917ffbde797d201c681b91056529119e0b02407c7bb96a4a2c75c01fc9667232c8db910160405180910390a461087883826110c6611dbc565b600061070b8260006116b0565b6001600160a01b03811660009081526097602052604081205461070b9060006114c6565b6001600160a01b03811660009081526097602052604081205461070b565b6001600160a01b03918216600090815260986020908152604080832093909416825291909152205490565b60fe54604051636be2be9560e01b8152600481018390526000916001600160a01b031690636be2be9590602401602060405180830381865afa15801561138e573d6000803e3d6000fd5b505050506040513d601f19601f8201168201806040525081019061070b9190612783565b6065546001600160a01b031633146114045760405162461bcd60e51b81526020600482015260156024820152743737ba103a3432903832b73234b7339037bbb732b960591b60448201526064016108bd565b60006114186033546001600160a01b031690565b6065549091506001600160a01b031661143081611f6b565b606580546001600160a01b0319169055604080516001600160a01b0384168152600060208201527f70aea8d848e8a90fb7661b227dc522eb6395c3dac71b63cb59edd5c9899b2364910160405180910390a1606554604080516001600160a01b03808516825290921660208301527fb3d55174552271a4f1aaf36b72f50381e892171636b3fb5447fe00e995e7a37b9101610d61565b6000806114d260995490565b905080156114f3576114ee6114e5610593565b85908386611fbd565b611584565b60c9546040805163313ce56760e01b81529051611584926001600160a01b03169163313ce5679160048083019260209291908290030181865afa15801561153e573d6000803e3d6000fd5b505050506040513d601f19601f820116820180604052508101906115629190612827565b61156d90600a61292e565b60125b61157b90600a61292e565b86919086611fbd565b949350505050565b6001600160a01b0383166115ee5760405162461bcd60e51b8152602060048201526024808201527f45524332303a20617070726f76652066726f6d20746865207a65726f206164646044820152637265737360e01b60648201526084016108bd565b6001600160a01b03821661164f5760405162461bcd60e51b815260206004820152602260248201527f45524332303a20617070726f766520746f20746865207a65726f206164647265604482015261737360f01b60648201526084016108bd565b6001600160a01b0383811660008181526098602090815260408083209487168084529482529182902085905590518481527f8c5be1e5ebec7d5bd14f71427d1e84f3dd0314c0f7b2291e5b200ac8c7c3b925910160405180910390a3505050565b6000806116bc60995490565b90508315806116c9575080155b6116d9576114ee8161157b610593565b6115846116e86012600a61292e565b60c960009054906101000a90046001600160a01b03166001600160a01b031663313ce5676040518163ffffffff1660e01b8152600401602060405180830381865afa15801561173b573d6000803e3d6000fd5b505050506040513d601f19601f820116820180604052508101906115709190612827565b6033546001600160a01b031633146117b95760405162461bcd60e51b815260206004820181905260248201527f4f776e61626c653a2063616c6c6572206973206e6f7420746865206f776e657260448201526064016108bd565b565b6001600160a01b03821661181b5760405162461bcd60e51b815260206004820152602160248201527f45524332303a206275726e2066726f6d20746865207a65726f206164647265736044820152607360f81b60648201526084016108bd565b6001600160a01b0382166000908152609760205260409020548181101561188f5760405162461bcd60e51b815260206004820152602260248201527f45524332303a206275726e20616d6f756e7420657863656564732062616c616e604482015261636560f01b60648201526084016108bd565b6001600160a01b03831660008181526097602090815260408083208686039055609980548790039055518581529192917fddf252ad1be2c89b69c2b068fc378daa952ba7f163c4a11628f55a4df523b3ef910160405180910390a3505050565b6001600160a01b0382166119455760405162461bcd60e51b815260206004820152601f60248201527f45524332303a206d696e7420746f20746865207a65726f20616464726573730060448201526064016108bd565b806099600082825461195791906127ed565b90915550506001600160a01b0382166000818152609760209081526040808320805486019055518481527fddf252ad1be2c89b69c2b068fc378daa952ba7f163c4a11628f55a4df523b3ef910160405180910390a35050565b60006119bc8484611319565b90506000198114611a245781811015611a175760405162461bcd60e51b815260206004820152601d60248201527f45524332303a20696e73756666696369656e7420616c6c6f77616e636500000060448201526064016108bd565b611a24848484840361158c565b50505050565b6001600160a01b038316611a8e5760405162461bcd60e51b815260206004820152602560248201527f45524332303a207472616e736665722066726f6d20746865207a65726f206164604482015264647265737360d81b60648201526084016108bd565b6001600160a01b038216611af05760405162461bcd60e51b815260206004820152602360248201527f45524332303a207472616e7366657220746f20746865207a65726f206164647260448201526265737360e81b60648201526084016108bd565b6001600160a01b03831660009081526097602052604090205481811015611b685760405162461bcd60e51b815260206004820152602660248201527f45524332303a207472616e7366657220616d6f756e7420657863656564732062604482015265616c616e636560d01b60648201526084016108bd565b6001600160a01b0380851660008181526097602052604080822086860390559286168082529083902080548601905591517fddf252ad1be2c89b69c2b068fc378daa952ba7f163c4a11628f55a4df523b3ef90611bc89086815260200190565b60405180910390a3611a24565b600080611be0610593565b11806106675750506099541590565b600054610100900460ff16611c165760405162461bcd60e51b81526004016108bd906129ab565b611c1e61201a565b611c26612049565b611c2e612078565b611d40816001600160a01b03166306fdde036040518163ffffffff1660e01b8152600401600060405180830381865afa158015611c6f573d6000803e3d6000fd5b505050506040513d6000823e601f3d908101601f19168201604052611c979190810190612a0c565b604051602001611ca79190612aae565b604051602081830303815290604052826001600160a01b03166395d89b416040518163ffffffff1660e01b8152600401600060405180830381865afa158015611cf4573d6000803e3d6000fd5b505050506040513d6000823e601f3d908101601f19168201604052611d1c9190810190612a0c565b604051602001611d2c9190612aec565b60405160208183030381529060405261209f565b611d49816120d0565b806001600160a01b031663313ce5676040518163ffffffff1660e01b8152600401602060405180830381865afa158015611d87573d6000803e3d6000fd5b505050506040513d601f19601f82011682018060405250810190611dab9190612827565b611db690600a61292e565b60fb5550565b600061066760c9546001600160a01b031690565b828202811515841585830485141716611de857600080fd5b0492915050565b606554600160a01b900460ff16156117b95760405162461bcd60e51b815260206004820152601060248201526f14185d5cd8589b194e881c185d5cd95960821b60448201526064016108bd565b6040516001600160a01b0380851660248301528316604482015260648101829052611a249085906323b872dd60e01b906084015b60408051601f198184030181529190526020810180516001600160e01b03166001600160e01b031990931692909217909152612100565b60fe54604051632967cf8360e21b8152600481018490526001600160a01b039091169063a59f3e0c906024015b600060405180830381600087803b158015611eee57600080fd5b505af1158015611f02573d6000803e3d6000fd5b505050505050565b60fe546040516367dfd4c960e01b8152600481018390526001600160a01b03909116906367dfd4c990602401611ed4565b6040516001600160a01b038316602482015260448101829052610ac490849063a9059cbb60e01b90606401611e70565b603380546001600160a01b038381166001600160a01b0319831681179093556040519116919082907f8be0079c531659141344cd1fd0a4f28419497f9722a3daafe3b4186f6b6457e090600090a35050565b600080611fcb8686866121d2565b90506001836002811115611fe157611fe1612b16565b148015611ffe575060008480611ff957611ff9612973565b868809115b156120115761200e6001826127ed565b90505b95945050505050565b600054610100900460ff166120415760405162461bcd60e51b81526004016108bd906129ab565b6117b9612282565b600054610100900460ff166120705760405162461bcd60e51b81526004016108bd906129ab565b6117b96122b1565b600054610100900460ff166117b95760405162461bcd60e51b81526004016108bd906129ab565b600054610100900460ff166120c65760405162461bcd60e51b81526004016108bd906129ab565b61085582826122e7565b600054610100900460ff166120f75760405162461bcd60e51b81526004016108bd906129ab565b610efd81612335565b6000612155826040518060400160405280602081526020017f5361666545524332303a206c6f772d6c6576656c2063616c6c206661696c6564815250856001600160a01b031661237e9092919063ffffffff16565b805190915015610ac457808060200190518101906121739190612805565b610ac45760405162461bcd60e51b815260206004820152602a60248201527f5361666545524332303a204552433230206f7065726174696f6e20646964206e6044820152691bdd081cdd58d8d9595960b21b60648201526084016108bd565b60008080600019858709858702925082811083820303915050806000141561220d5783828161220357612203612973565b0492505050610878565b80841161221957600080fd5b60008486880960026001871981018816978890046003810283188082028403028082028403028082028403028082028403028082028403029081029092039091026000889003889004909101858311909403939093029303949094049190911702949350505050565b600054610100900460ff166122a95760405162461bcd60e51b81526004016108bd906129ab565b6117b961238d565b600054610100900460ff166122d85760405162461bcd60e51b81526004016108bd906129ab565b6065805460ff60a01b19169055565b600054610100900460ff1661230e5760405162461bcd60e51b81526004016108bd906129ab565b815161232190609a906020850190612533565b508051610ac490609b906020840190612533565b600054610100900460ff1661235c5760405162461bcd60e51b81526004016108bd906129ab565b60c980546001600160a01b0319166001600160a01b0392909216919091179055565b606061158484846000856123bd565b600054610100900460ff166123b45760405162461bcd60e51b81526004016108bd906129ab565b6117b933611f6b565b60608247101561241e5760405162461bcd60e51b815260206004820152602660248201527f416464726573733a20696e73756666696369656e742062616c616e636520666f6044820152651c8818d85b1b60d21b60648201526084016108bd565b600080866001600160a01b0316858760405161243a9190612b2c565b60006040518083038185875af1925050503d8060008114612477576040519150601f19603f3d011682016040523d82523d6000602084013e61247c565b606091505b509150915061248d87838387612498565b979650505050505050565b606083156125045782516124fd576001600160a01b0385163b6124fd5760405162461bcd60e51b815260206004820152601d60248201527f416464726573733a2063616c6c20746f206e6f6e2d636f6e747261637400000060448201526064016108bd565b5081611584565b61158483838151156125195781518083602001fd5b8060405162461bcd60e51b81526004016108bd91906125f8565b82805461253f9061279c565b90600052602060002090601f01602090048101928261256157600085556125a7565b82601f1061257a57805160ff19168380011785556125a7565b828001600101855582156125a7579182015b828111156125a757825182559160200191906001019061258c565b506125b39291506125b7565b5090565b5b808211156125b357600081556001016125b8565b60005b838110156125e75781810151838201526020016125cf565b83811115611a245750506000910152565b60208152600082518060208401526126178160408501602087016125cc565b601f01601f19169190910160400192915050565b60006020828403121561263d57600080fd5b5035919050565b6001600160a01b0381168114610efd57600080fd5b6000806040838503121561266c57600080fd5b823561267781612644565b946020939093013593505050565b6000806040838503121561269857600080fd5b8235915060208301356126aa81612644565b809150509250929050565b6000806000606084860312156126ca57600080fd5b83356126d581612644565b925060208401356126e581612644565b929592945050506040919091013590565b60006020828403121561270857600080fd5b813561087881612644565b6000806040838503121561272657600080fd5b823561273181612644565b915060208301356126aa81612644565b60008060006060848603121561275657600080fd5b83359250602084013561276881612644565b9150604084013561277881612644565b809150509250925092565b60006020828403121561279557600080fd5b5051919050565b600181811c908216806127b057607f821691505b602082108114156127d157634e487b7160e01b600052602260045260246000fd5b50919050565b634e487b7160e01b600052601160045260246000fd5b60008219821115612800576128006127d7565b500190565b60006020828403121561281757600080fd5b8151801515811461087857600080fd5b60006020828403121561283957600080fd5b815160ff8116811461087857600080fd5b600181815b8085111561288557816000190482111561286b5761286b6127d7565b8085161561287857918102915b93841c939080029061284f565b509250929050565b60008261289c5750600161070b565b816128a95750600061070b565b81600181146128bf57600281146128c9576128e5565b600191505061070b565b60ff8411156128da576128da6127d7565b50506001821b61070b565b5060208310610133831016604e8410600b8410161715612908575081810a61070b565b612912838361284a565b8060001904821115612926576129266127d7565b029392505050565b600061087860ff84168361288d565b60008282101561294f5761294f6127d7565b500390565b600081600019048311821515161561296e5761296e6127d7565b500290565b634e487b7160e01b600052601260045260246000fd5b6000826129a657634e487b7160e01b600052601260045260246000fd5b500490565b6020808252602b908201527f496e697469616c697a61626c653a20636f6e7472616374206973206e6f74206960408201526a6e697469616c697a696e6760a81b606082015260800190565b634e487b7160e01b600052604160045260246000fd5b600060208284031215612a1e57600080fd5b815167ffffffffffffffff80821115612a3657600080fd5b818401915084601f830112612a4a57600080fd5b815181811115612a5c57612a5c6129f6565b604051601f8201601f19908116603f01168101908382118183101715612a8457612a846129f6565b81604052828152876020848701011115612a9d57600080fd5b61248d8360208301602088016125cc565b65026b4b230b9960d51b815260008251612acf8160068501602087016125cc565b650815985d5b1d60d21b6006939091019283015250600c01919050565b6136bb60f11b815260008251612b098160028501602087016125cc565b9190910160020192915050565b634e487b7160e01b600052602160045260246000fd5b60008251612b3e8184602087016125cc565b919091019291505056fea164736f6c634300080a000a",
    "linkReferences": {}
  },
  "methodIdentifiers": {
    "_acceptOwner()": "fc4d33f9",
    "_setPendingOwner(address)": "6e96dfd7",
    "allowance(address,address)": "dd62ed3e",
    "approve(address,uint256)": "095ea7b3",
    "asset()": "38d52e0f",
    "balanceOf(address)": "70a08231",
    "balanceOfUnderlying(address)": "3af9e669",
    "convertToAssets(uint256)": "07a2d13a",
    "convertToShares(uint256)": "c6e6f592",
    "decimals()": "313ce567",
    "decreaseAllowance(address,uint256)": "a457c2d7",
    "deposit(uint256,address)": "6e553f65",
    "emergencyWithdrawAndPause()": "28357978",
    "feeRecipient()": "46904840",
    "increaseAllowance(address,uint256)": "39509351",
    "initialize(address,address)": "485cc955",
    "maxDeposit(address)": "402d267d",
    "maxMint(address)": "c63d75b6",
    "maxRedeem(address)": "d905777e",
    "maxWithdraw(address)": "ce96cb77",
    "mint(uint256,address)": "94bf804d",
    "name()": "06fdde03",
    "owner()": "8da5cb5b",
    "paused()": "5c975abb",
    "pendingOwner()": "e30c3978",
    "performanceFee()": "87788782",
    "previewDeposit(uint256)": "ef8b30f7",
    "previewMint(uint256)": "b3d7f6b9",
    "previewRedeem(uint256)": "4cdad506",
    "previewWithdraw(uint256)": "0a28a477",
    "redeem(uint256,address,address)": "ba087652",
    "renounceOwnership()": "715018a6",
    "symbol()": "95d89b41",
    "takePerformanceFee()": "56f89ef9",
    "totalAssets()": "01e1d114",
    "totalSupply()": "18160ddd",
    "transfer(address,uint256)": "a9059cbb",
    "transferFrom(address,address,uint256)": "23b872dd",
    "transferOwnership(address)": "f2fde38b",
    "unpause()": "3f4ba83a",
    "updateFeeSettings(uint256,address)": "10509aa9",
    "vaultShareHWM()": "211493c9",
    "withdraw(uint256,address,address)": "b460af94",
    "withdrawAccruedFees()": "ada82c7d",
    "xbomb()": "a32b0d5d"
  }
}