{
  "address": "0x3E200201F653732e50367946D1eeeFd412b7455d",
  "abi": [
    {
      "anonymous": false,
      "inputs": [
        {
          "indexed": false,
          "internalType": "uint256",
          "name": "cashPrior",
          "type": "uint256"
        },
        {
          "indexed": false,
          "internalType": "uint256",
          "name": "interestAccumulated",
          "type": "uint256"
        },
        {
          "indexed": false,
          "internalType": "uint256",
          "name": "borrowIndex",
          "type": "uint256"
        },
        {
          "indexed": false,
          "internalType": "uint256",
          "name": "totalBorrows",
          "type": "uint256"
        }
      ],
      "name": "AccrueInterest",
      "type": "event"
    },
    {
      "anonymous": false,
      "inputs": [
        {
          "indexed": true,
          "internalType": "address",
          "name": "owner",
          "type": "address"
        },
        {
          "indexed": true,
          "internalType": "address",
          "name": "spender",
          "type": "address"
        },
        {
          "indexed": false,
          "internalType": "uint256",
          "name": "amount",
          "type": "uint256"
        }
      ],
      "name": "Approval",
      "type": "event"
    },
    {
      "anonymous": false,
      "inputs": [
        {
          "indexed": false,
          "internalType": "address",
          "name": "borrower",
          "type": "address"
        },
        {
          "indexed": false,
          "internalType": "uint256",
          "name": "borrowAmount",
          "type": "uint256"
        },
        {
          "indexed": false,
          "internalType": "uint256",
          "name": "accountBorrows",
          "type": "uint256"
        },
        {
          "indexed": false,
          "internalType": "uint256",
          "name": "totalBorrows",
          "type": "uint256"
        }
      ],
      "name": "Borrow",
      "type": "event"
    },
    {
      "anonymous": false,
      "inputs": [
        {
          "indexed": false,
          "internalType": "uint256",
          "name": "error",
          "type": "uint256"
        },
        {
          "indexed": false,
          "internalType": "uint256",
          "name": "info",
          "type": "uint256"
        },
        {
          "indexed": false,
          "internalType": "uint256",
          "name": "detail",
          "type": "uint256"
        }
      ],
      "name": "Failure",
      "type": "event"
    },
    {
      "anonymous": false,
      "inputs": [
        {
          "indexed": false,
          "internalType": "address",
          "name": "liquidator",
          "type": "address"
        },
        {
          "indexed": false,
          "internalType": "address",
          "name": "borrower",
          "type": "address"
        },
        {
          "indexed": false,
          "internalType": "uint256",
          "name": "repayAmount",
          "type": "uint256"
        },
        {
          "indexed": false,
          "internalType": "address",
          "name": "cTokenCollateral",
          "type": "address"
        },
        {
          "indexed": false,
          "internalType": "uint256",
          "name": "seizeTokens",
          "type": "uint256"
        }
      ],
      "name": "LiquidateBorrow",
      "type": "event"
    },
    {
      "anonymous": false,
      "inputs": [
        {
          "indexed": false,
          "internalType": "address",
          "name": "minter",
          "type": "address"
        },
        {
          "indexed": false,
          "internalType": "uint256",
          "name": "mintAmount",
          "type": "uint256"
        },
        {
          "indexed": false,
          "internalType": "uint256",
          "name": "mintTokens",
          "type": "uint256"
        }
      ],
      "name": "Mint",
      "type": "event"
    },
    {
      "anonymous": false,
      "inputs": [
        {
          "indexed": false,
          "internalType": "uint256",
          "name": "oldAdminFeeMantissa",
          "type": "uint256"
        },
        {
          "indexed": false,
          "internalType": "uint256",
          "name": "newAdminFeeMantissa",
          "type": "uint256"
        }
      ],
      "name": "NewAdminFee",
      "type": "event"
    },
    {
      "anonymous": false,
      "inputs": [
        {
          "indexed": false,
          "internalType": "contract ComptrollerInterface",
          "name": "oldComptroller",
          "type": "address"
        },
        {
          "indexed": false,
          "internalType": "contract ComptrollerInterface",
          "name": "newComptroller",
          "type": "address"
        }
      ],
      "name": "NewComptroller",
      "type": "event"
    },
    {
      "anonymous": false,
      "inputs": [
        {
          "indexed": false,
          "internalType": "uint256",
          "name": "oldFuseFeeMantissa",
          "type": "uint256"
        },
        {
          "indexed": false,
          "internalType": "uint256",
          "name": "newFuseFeeMantissa",
          "type": "uint256"
        }
      ],
      "name": "NewFuseFee",
      "type": "event"
    },
    {
      "anonymous": false,
      "inputs": [
        {
          "indexed": false,
          "internalType": "address",
          "name": "oldImplementation",
          "type": "address"
        },
        {
          "indexed": false,
          "internalType": "address",
          "name": "newImplementation",
          "type": "address"
        }
      ],
      "name": "NewImplementation",
      "type": "event"
    },
    {
      "anonymous": false,
      "inputs": [
        {
          "indexed": false,
          "internalType": "contract InterestRateModel",
          "name": "oldInterestRateModel",
          "type": "address"
        },
        {
          "indexed": false,
          "internalType": "contract InterestRateModel",
          "name": "newInterestRateModel",
          "type": "address"
        }
      ],
      "name": "NewMarketInterestRateModel",
      "type": "event"
    },
    {
      "anonymous": false,
      "inputs": [
        {
          "indexed": false,
          "internalType": "address",
          "name": "oldImpl",
          "type": "address"
        },
        {
          "indexed": false,
          "internalType": "address",
          "name": "newImpl",
          "type": "address"
        }
      ],
      "name": "NewPluginImplementation",
      "type": "event"
    },
    {
      "anonymous": false,
      "inputs": [
        {
          "indexed": false,
          "internalType": "uint256",
          "name": "oldReserveFactorMantissa",
          "type": "uint256"
        },
        {
          "indexed": false,
          "internalType": "uint256",
          "name": "newReserveFactorMantissa",
          "type": "uint256"
        }
      ],
      "name": "NewReserveFactor",
      "type": "event"
    },
    {
      "anonymous": false,
      "inputs": [
        {
          "indexed": false,
          "internalType": "address",
          "name": "redeemer",
          "type": "address"
        },
        {
          "indexed": false,
          "internalType": "uint256",
          "name": "redeemAmount",
          "type": "uint256"
        },
        {
          "indexed": false,
          "internalType": "uint256",
          "name": "redeemTokens",
          "type": "uint256"
        }
      ],
      "name": "Redeem",
      "type": "event"
    },
    {
      "anonymous": false,
      "inputs": [
        {
          "indexed": false,
          "internalType": "address",
          "name": "payer",
          "type": "address"
        },
        {
          "indexed": false,
          "internalType": "address",
          "name": "borrower",
          "type": "address"
        },
        {
          "indexed": false,
          "internalType": "uint256",
          "name": "repayAmount",
          "type": "uint256"
        },
        {
          "indexed": false,
          "internalType": "uint256",
          "name": "accountBorrows",
          "type": "uint256"
        },
        {
          "indexed": false,
          "internalType": "uint256",
          "name": "totalBorrows",
          "type": "uint256"
        }
      ],
      "name": "RepayBorrow",
      "type": "event"
    },
    {
      "anonymous": false,
      "inputs": [
        {
          "indexed": false,
          "internalType": "address",
          "name": "benefactor",
          "type": "address"
        },
        {
          "indexed": false,
          "internalType": "uint256",
          "name": "addAmount",
          "type": "uint256"
        },
        {
          "indexed": false,
          "internalType": "uint256",
          "name": "newTotalReserves",
          "type": "uint256"
        }
      ],
      "name": "ReservesAdded",
      "type": "event"
    },
    {
      "anonymous": false,
      "inputs": [
        {
          "indexed": false,
          "internalType": "address",
          "name": "admin",
          "type": "address"
        },
        {
          "indexed": false,
          "internalType": "uint256",
          "name": "reduceAmount",
          "type": "uint256"
        },
        {
          "indexed": false,
          "internalType": "uint256",
          "name": "newTotalReserves",
          "type": "uint256"
        }
      ],
      "name": "ReservesReduced",
      "type": "event"
    },
    {
      "anonymous": false,
      "inputs": [
        {
          "indexed": true,
          "internalType": "address",
          "name": "from",
          "type": "address"
        },
        {
          "indexed": true,
          "internalType": "address",
          "name": "to",
          "type": "address"
        },
        {
          "indexed": false,
          "internalType": "uint256",
          "name": "amount",
          "type": "uint256"
        }
      ],
      "name": "Transfer",
      "type": "event"
    },
    {
      "inputs": [],
      "name": "PRECISION",
      "outputs": [
        {
          "internalType": "uint256",
          "name": "",
          "type": "uint256"
        }
      ],
      "stateMutability": "view",
      "type": "function"
    },
    {
      "inputs": [
        {
          "internalType": "bytes",
          "name": "data",
          "type": "bytes"
        }
      ],
      "name": "_becomeImplementation",
      "outputs": [],
      "stateMutability": "nonpayable",
      "type": "function"
    },
    {
      "inputs": [],
      "name": "_prepare",
      "outputs": [],
      "stateMutability": "payable",
      "type": "function"
    },
    {
      "inputs": [
        {
          "internalType": "uint256",
          "name": "reduceAmount",
          "type": "uint256"
        }
      ],
      "name": "_reduceReserves",
      "outputs": [
        {
          "internalType": "uint256",
          "name": "",
          "type": "uint256"
        }
      ],
      "stateMutability": "nonpayable",
      "type": "function"
    },
    {
      "inputs": [
        {
          "internalType": "uint256",
          "name": "newAdminFeeMantissa",
          "type": "uint256"
        }
      ],
      "name": "_setAdminFee",
      "outputs": [
        {
          "internalType": "uint256",
          "name": "",
          "type": "uint256"
        }
      ],
      "stateMutability": "nonpayable",
      "type": "function"
    },
    {
      "inputs": [
        {
          "internalType": "address",
          "name": "implementation_",
          "type": "address"
        },
        {
          "internalType": "bool",
          "name": "allowResign",
          "type": "bool"
        },
        {
          "internalType": "bytes",
          "name": "becomeImplementationData",
          "type": "bytes"
        }
      ],
      "name": "_setImplementationSafe",
      "outputs": [],
      "stateMutability": "nonpayable",
      "type": "function"
    },
    {
      "inputs": [
        {
          "internalType": "contract InterestRateModel",
          "name": "newInterestRateModel",
          "type": "address"
        }
      ],
      "name": "_setInterestRateModel",
      "outputs": [
        {
          "internalType": "uint256",
          "name": "",
          "type": "uint256"
        }
      ],
      "stateMutability": "nonpayable",
      "type": "function"
    },
    {
      "inputs": [
        {
          "internalType": "string",
          "name": "_name",
          "type": "string"
        },
        {
          "internalType": "string",
          "name": "_symbol",
          "type": "string"
        }
      ],
      "name": "_setNameAndSymbol",
      "outputs": [],
      "stateMutability": "nonpayable",
      "type": "function"
    },
    {
      "inputs": [
        {
          "internalType": "uint256",
          "name": "newReserveFactorMantissa",
          "type": "uint256"
        }
      ],
      "name": "_setReserveFactor",
      "outputs": [
        {
          "internalType": "uint256",
          "name": "",
          "type": "uint256"
        }
      ],
      "stateMutability": "nonpayable",
      "type": "function"
    },
    {
      "inputs": [
        {
          "internalType": "address",
          "name": "_plugin",
          "type": "address"
        }
      ],
      "name": "_updatePlugin",
      "outputs": [],
      "stateMutability": "nonpayable",
      "type": "function"
    },
    {
      "inputs": [
        {
          "internalType": "uint256",
          "name": "withdrawAmount",
          "type": "uint256"
        }
      ],
      "name": "_withdrawAdminFees",
      "outputs": [
        {
          "internalType": "uint256",
          "name": "",
          "type": "uint256"
        }
      ],
      "stateMutability": "nonpayable",
      "type": "function"
    },
    {
      "inputs": [
        {
          "internalType": "uint256",
          "name": "withdrawAmount",
          "type": "uint256"
        }
      ],
      "name": "_withdrawFuseFees",
      "outputs": [
        {
          "internalType": "uint256",
          "name": "",
          "type": "uint256"
        }
      ],
      "stateMutability": "nonpayable",
      "type": "function"
    },
    {
      "inputs": [],
      "name": "accrualBlockNumber",
      "outputs": [
        {
          "internalType": "uint256",
          "name": "",
          "type": "uint256"
        }
      ],
      "stateMutability": "view",
      "type": "function"
    },
    {
      "inputs": [],
      "name": "accrueInterest",
      "outputs": [
        {
          "internalType": "uint256",
          "name": "",
          "type": "uint256"
        }
      ],
      "stateMutability": "nonpayable",
      "type": "function"
    },
    {
      "inputs": [],
      "name": "adminFeeMantissa",
      "outputs": [
        {
          "internalType": "uint256",
          "name": "",
          "type": "uint256"
        }
      ],
      "stateMutability": "view",
      "type": "function"
    },
    {
      "inputs": [
        {
          "internalType": "address",
          "name": "owner",
          "type": "address"
        },
        {
          "internalType": "address",
          "name": "spender",
          "type": "address"
        }
      ],
      "name": "allowance",
      "outputs": [
        {
          "internalType": "uint256",
          "name": "",
          "type": "uint256"
        }
      ],
      "stateMutability": "view",
      "type": "function"
    },
    {
      "inputs": [
        {
          "internalType": "address",
          "name": "spender",
          "type": "address"
        },
        {
          "internalType": "uint256",
          "name": "amount",
          "type": "uint256"
        }
      ],
      "name": "approve",
      "outputs": [
        {
          "internalType": "bool",
          "name": "",
          "type": "bool"
        }
      ],
      "stateMutability": "nonpayable",
      "type": "function"
    },
    {
      "inputs": [
        {
          "internalType": "address",
          "name": "owner",
          "type": "address"
        }
      ],
      "name": "balanceOf",
      "outputs": [
        {
          "internalType": "uint256",
          "name": "",
          "type": "uint256"
        }
      ],
      "stateMutability": "view",
      "type": "function"
    },
    {
      "inputs": [
        {
          "internalType": "address",
          "name": "owner",
          "type": "address"
        }
      ],
      "name": "balanceOfUnderlying",
      "outputs": [
        {
          "internalType": "uint256",
          "name": "",
          "type": "uint256"
        }
      ],
      "stateMutability": "nonpayable",
      "type": "function"
    },
    {
      "inputs": [
        {
          "internalType": "uint256",
          "name": "borrowAmount",
          "type": "uint256"
        }
      ],
      "name": "borrow",
      "outputs": [
        {
          "internalType": "uint256",
          "name": "",
          "type": "uint256"
        }
      ],
      "stateMutability": "nonpayable",
      "type": "function"
    },
    {
      "inputs": [
        {
          "internalType": "address",
          "name": "account",
          "type": "address"
        }
      ],
      "name": "borrowBalanceCurrent",
      "outputs": [
        {
          "internalType": "uint256",
          "name": "",
          "type": "uint256"
        }
      ],
      "stateMutability": "nonpayable",
      "type": "function"
    },
    {
      "inputs": [
        {
          "internalType": "address",
          "name": "account",
          "type": "address"
        }
      ],
      "name": "borrowBalanceStored",
      "outputs": [
        {
          "internalType": "uint256",
          "name": "",
          "type": "uint256"
        }
      ],
      "stateMutability": "view",
      "type": "function"
    },
    {
      "inputs": [],
      "name": "borrowIndex",
      "outputs": [
        {
          "internalType": "uint256",
          "name": "",
          "type": "uint256"
        }
      ],
      "stateMutability": "view",
      "type": "function"
    },
    {
      "inputs": [],
      "name": "borrowRatePerBlock",
      "outputs": [
        {
          "internalType": "uint256",
          "name": "",
          "type": "uint256"
        }
      ],
      "stateMutability": "view",
      "type": "function"
    },
    {
      "inputs": [],
      "name": "comptroller",
      "outputs": [
        {
          "internalType": "contract ComptrollerInterface",
          "name": "",
          "type": "address"
        }
      ],
      "stateMutability": "view",
      "type": "function"
    },
    {
      "inputs": [],
      "name": "decimals",
      "outputs": [
        {
          "internalType": "uint8",
          "name": "",
          "type": "uint8"
        }
      ],
      "stateMutability": "view",
      "type": "function"
    },
    {
      "inputs": [],
      "name": "exchangeRateCurrent",
      "outputs": [
        {
          "internalType": "uint256",
          "name": "",
          "type": "uint256"
        }
      ],
      "stateMutability": "nonpayable",
      "type": "function"
    },
    {
      "inputs": [],
      "name": "exchangeRateStored",
      "outputs": [
        {
          "internalType": "uint256",
          "name": "",
          "type": "uint256"
        }
      ],
      "stateMutability": "view",
      "type": "function"
    },
    {
      "inputs": [],
      "name": "feeSeizeShareMantissa",
      "outputs": [
        {
          "internalType": "uint256",
          "name": "",
          "type": "uint256"
        }
      ],
      "stateMutability": "view",
      "type": "function"
    },
    {
      "inputs": [],
      "name": "fuseAdmin",
      "outputs": [
        {
          "internalType": "address payable",
          "name": "",
          "type": "address"
        }
      ],
      "stateMutability": "view",
      "type": "function"
    },
    {
      "inputs": [],
      "name": "fuseFeeMantissa",
      "outputs": [
        {
          "internalType": "uint256",
          "name": "",
          "type": "uint256"
        }
      ],
      "stateMutability": "view",
      "type": "function"
    },
    {
      "inputs": [
        {
          "internalType": "address",
          "name": "account",
          "type": "address"
        }
      ],
      "name": "getAccountSnapshot",
      "outputs": [
        {
          "internalType": "uint256",
          "name": "",
          "type": "uint256"
        },
        {
          "internalType": "uint256",
          "name": "",
          "type": "uint256"
        },
        {
          "internalType": "uint256",
          "name": "",
          "type": "uint256"
        },
        {
          "internalType": "uint256",
          "name": "",
          "type": "uint256"
        }
      ],
      "stateMutability": "view",
      "type": "function"
    },
    {
      "inputs": [],
      "name": "getCash",
      "outputs": [
        {
          "internalType": "uint256",
          "name": "",
          "type": "uint256"
        }
      ],
      "stateMutability": "view",
      "type": "function"
    },
    {
      "inputs": [],
      "name": "implementation",
      "outputs": [
        {
          "internalType": "address",
          "name": "",
          "type": "address"
        }
      ],
      "stateMutability": "view",
      "type": "function"
    },
    {
      "inputs": [
        {
          "internalType": "address",
          "name": "underlying_",
          "type": "address"
        },
        {
          "internalType": "contract ComptrollerInterface",
          "name": "comptroller_",
          "type": "address"
        },
        {
          "internalType": "address payable",
          "name": "fuseAdmin_",
          "type": "address"
        },
        {
          "internalType": "contract InterestRateModel",
          "name": "interestRateModel_",
          "type": "address"
        },
        {
          "internalType": "string",
          "name": "name_",
          "type": "string"
        },
        {
          "internalType": "string",
          "name": "symbol_",
          "type": "string"
        },
        {
          "internalType": "uint256",
          "name": "reserveFactorMantissa_",
          "type": "uint256"
        },
        {
          "internalType": "uint256",
          "name": "adminFeeMantissa_",
          "type": "uint256"
        }
      ],
      "name": "initialize",
      "outputs": [],
      "stateMutability": "nonpayable",
      "type": "function"
    },
    {
      "inputs": [
        {
          "internalType": "contract ComptrollerInterface",
          "name": "comptroller_",
          "type": "address"
        },
        {
          "internalType": "address payable",
          "name": "fuseAdmin_",
          "type": "address"
        },
        {
          "internalType": "contract InterestRateModel",
          "name": "interestRateModel_",
          "type": "address"
        },
        {
          "internalType": "uint256",
          "name": "initialExchangeRateMantissa_",
          "type": "uint256"
        },
        {
          "internalType": "string",
          "name": "name_",
          "type": "string"
        },
        {
          "internalType": "string",
          "name": "symbol_",
          "type": "string"
        },
        {
          "internalType": "uint8",
          "name": "decimals_",
          "type": "uint8"
        },
        {
          "internalType": "uint256",
          "name": "reserveFactorMantissa_",
          "type": "uint256"
        },
        {
          "internalType": "uint256",
          "name": "adminFeeMantissa_",
          "type": "uint256"
        }
      ],
      "name": "initialize",
      "outputs": [],
      "stateMutability": "nonpayable",
      "type": "function"
    },
    {
      "inputs": [],
      "name": "interestRateModel",
      "outputs": [
        {
          "internalType": "contract InterestRateModel",
          "name": "",
          "type": "address"
        }
      ],
      "stateMutability": "view",
      "type": "function"
    },
    {
      "inputs": [],
      "name": "isCEther",
      "outputs": [
        {
          "internalType": "bool",
          "name": "",
          "type": "bool"
        }
      ],
      "stateMutability": "nonpayable",
      "type": "function"
    },
    {
      "inputs": [],
      "name": "isCToken",
      "outputs": [
        {
          "internalType": "bool",
          "name": "",
          "type": "bool"
        }
      ],
      "stateMutability": "nonpayable",
      "type": "function"
    },
    {
      "inputs": [
        {
          "internalType": "address",
          "name": "borrower",
          "type": "address"
        },
        {
          "internalType": "uint256",
          "name": "repayAmount",
          "type": "uint256"
        },
        {
          "internalType": "contract CTokenInterface",
          "name": "cTokenCollateral",
          "type": "address"
        }
      ],
      "name": "liquidateBorrow",
      "outputs": [
        {
          "internalType": "uint256",
          "name": "",
          "type": "uint256"
        }
      ],
      "stateMutability": "nonpayable",
      "type": "function"
    },
    {
      "inputs": [
        {
          "internalType": "uint256",
          "name": "mintAmount",
          "type": "uint256"
        }
      ],
      "name": "mint",
      "outputs": [
        {
          "internalType": "uint256",
          "name": "",
          "type": "uint256"
        }
      ],
      "stateMutability": "nonpayable",
      "type": "function"
    },
    {
      "inputs": [],
      "name": "name",
      "outputs": [
        {
          "internalType": "string",
          "name": "",
          "type": "string"
        }
      ],
      "stateMutability": "view",
      "type": "function"
    },
    {
      "inputs": [],
      "name": "plugin",
      "outputs": [
        {
          "internalType": "contract IERC4626",
          "name": "",
          "type": "address"
        }
      ],
      "stateMutability": "view",
      "type": "function"
    },
    {
      "inputs": [],
      "name": "protocolSeizeShareMantissa",
      "outputs": [
        {
          "internalType": "uint256",
          "name": "",
          "type": "uint256"
        }
      ],
      "stateMutability": "view",
      "type": "function"
    },
    {
      "inputs": [
        {
          "internalType": "uint256",
          "name": "redeemTokens",
          "type": "uint256"
        }
      ],
      "name": "redeem",
      "outputs": [
        {
          "internalType": "uint256",
          "name": "",
          "type": "uint256"
        }
      ],
      "stateMutability": "nonpayable",
      "type": "function"
    },
    {
      "inputs": [
        {
          "internalType": "uint256",
          "name": "redeemAmount",
          "type": "uint256"
        }
      ],
      "name": "redeemUnderlying",
      "outputs": [
        {
          "internalType": "uint256",
          "name": "",
          "type": "uint256"
        }
      ],
      "stateMutability": "nonpayable",
      "type": "function"
    },
    {
      "inputs": [
        {
          "internalType": "uint256",
          "name": "repayAmount",
          "type": "uint256"
        }
      ],
      "name": "repayBorrow",
      "outputs": [
        {
          "internalType": "uint256",
          "name": "",
          "type": "uint256"
        }
      ],
      "stateMutability": "nonpayable",
      "type": "function"
    },
    {
      "inputs": [
        {
          "internalType": "address",
          "name": "borrower",
          "type": "address"
        },
        {
          "internalType": "uint256",
          "name": "repayAmount",
          "type": "uint256"
        }
      ],
      "name": "repayBorrowBehalf",
      "outputs": [
        {
          "internalType": "uint256",
          "name": "",
          "type": "uint256"
        }
      ],
      "stateMutability": "nonpayable",
      "type": "function"
    },
    {
      "inputs": [],
      "name": "reserveFactorMantissa",
      "outputs": [
        {
          "internalType": "uint256",
          "name": "",
          "type": "uint256"
        }
      ],
      "stateMutability": "view",
      "type": "function"
    },
    {
      "inputs": [
        {
          "internalType": "address",
          "name": "liquidator",
          "type": "address"
        },
        {
          "internalType": "address",
          "name": "borrower",
          "type": "address"
        },
        {
          "internalType": "uint256",
          "name": "seizeTokens",
          "type": "uint256"
        }
      ],
      "name": "seize",
      "outputs": [
        {
          "internalType": "uint256",
          "name": "",
          "type": "uint256"
        }
      ],
      "stateMutability": "nonpayable",
      "type": "function"
    },
    {
      "inputs": [],
      "name": "supplyRatePerBlock",
      "outputs": [
        {
          "internalType": "uint256",
          "name": "",
          "type": "uint256"
        }
      ],
      "stateMutability": "view",
      "type": "function"
    },
    {
      "inputs": [],
      "name": "symbol",
      "outputs": [
        {
          "internalType": "string",
          "name": "",
          "type": "string"
        }
      ],
      "stateMutability": "view",
      "type": "function"
    },
    {
      "inputs": [],
      "name": "totalAdminFees",
      "outputs": [
        {
          "internalType": "uint256",
          "name": "",
          "type": "uint256"
        }
      ],
      "stateMutability": "view",
      "type": "function"
    },
    {
      "inputs": [],
      "name": "totalBorrows",
      "outputs": [
        {
          "internalType": "uint256",
          "name": "",
          "type": "uint256"
        }
      ],
      "stateMutability": "view",
      "type": "function"
    },
    {
      "inputs": [],
      "name": "totalBorrowsCurrent",
      "outputs": [
        {
          "internalType": "uint256",
          "name": "",
          "type": "uint256"
        }
      ],
      "stateMutability": "nonpayable",
      "type": "function"
    },
    {
      "inputs": [],
      "name": "totalFuseFees",
      "outputs": [
        {
          "internalType": "uint256",
          "name": "",
          "type": "uint256"
        }
      ],
      "stateMutability": "view",
      "type": "function"
    },
    {
      "inputs": [],
      "name": "totalReserves",
      "outputs": [
        {
          "internalType": "uint256",
          "name": "",
          "type": "uint256"
        }
      ],
      "stateMutability": "view",
      "type": "function"
    },
    {
      "inputs": [],
      "name": "totalSupply",
      "outputs": [
        {
          "internalType": "uint256",
          "name": "",
          "type": "uint256"
        }
      ],
      "stateMutability": "view",
      "type": "function"
    },
    {
      "inputs": [
        {
          "internalType": "address",
          "name": "dst",
          "type": "address"
        },
        {
          "internalType": "uint256",
          "name": "amount",
          "type": "uint256"
        }
      ],
      "name": "transfer",
      "outputs": [
        {
          "internalType": "bool",
          "name": "",
          "type": "bool"
        }
      ],
      "stateMutability": "nonpayable",
      "type": "function"
    },
    {
      "inputs": [
        {
          "internalType": "address",
          "name": "src",
          "type": "address"
        },
        {
          "internalType": "address",
          "name": "dst",
          "type": "address"
        },
        {
          "internalType": "uint256",
          "name": "amount",
          "type": "uint256"
        }
      ],
      "name": "transferFrom",
      "outputs": [
        {
          "internalType": "bool",
          "name": "",
          "type": "bool"
        }
      ],
      "stateMutability": "nonpayable",
      "type": "function"
    },
    {
      "inputs": [],
      "name": "underlying",
      "outputs": [
        {
          "internalType": "address",
          "name": "",
          "type": "address"
        }
      ],
      "stateMutability": "view",
      "type": "function"
    }
  ],
  "transactionHash": "0xc9eb6c2f7cd29aa5da90dc48160aa62de783067f14f38183c3df112fcab29b30",
  "args": [],
  "numDeployments": 10,
  "bytecode": {
    "object": "0x608060405234801561001057600080fd5b50615f7280620000216000396000f3fe6080604052600436106102b25760003560e01c806306db3ecd146102b757806306fdde03146102d9578063095ea7b3146103045780630e7527021461033457806315761d5114610362578063173b99041461038f57806317bfdfbc146103a557806318160ddd146103c5578063182df0f5146103db57806319f496c8146103f05780631db7894414610410578063219ef65c1461041857806323b872dd146104385780632608f81814610458578063313ce5671461047857806334154d4c146104a45780633af9e669146104c45780633b1d21a2146104e457806347bd3718146104f957806350d85b731461050f57806356e677281461052f5780635c60da1b1461054f5780635fe3b5671461056f578063601a0bf11461058f57806361feacff146105af5780636752e702146105c55780636c540baf146105e05780636f307dc3146105f657806370a082311461061657806373acee981461064c578063852a12e3146106615780638d02d9a1146106815780638f840ddd1461069757806391dd36c6146106ad57806395d89b41146106cd57806395dd9193146106e2578063a03dce8d14610702578063a0712d6814610722578063a6afed9514610742578063a7b820df14610757578063a9059cbb14610777578063aa5af0fd14610797578063aaf5eb68146107ad578063ac784ddc146107c9578063ae9d70b0146107dd578063b2a02ff1146107f2578063bd6d894d14610812578063be99f11914610827578063c37f68e214610843578063c5ebeaec14610873578063db006a7514610893578063dbfe7c19146108b3578063dc028ab1146108c9578063dd62ed3e146108df578063ef01df4f14610925578063f2b3abbd14610945578063f3fdb15a14610965578063f5e3c46214610985578063f8f9da28146109a5578063fca7820b146109ba578063fe9c44ae146109da575b600080fd5b3480156102c357600080fd5b506102d76102d23660046156b8565b6109ee565b005b3480156102e557600080fd5b506102ee610afc565b6040516102fb91906157d1565b60405180910390f35b34801561031057600080fd5b5061032461031f3660046157e4565b610b8a565b60405190151581526020016102fb565b34801561034057600080fd5b5061035461034f366004615810565b610bfa565b6040519081526020016102fb565b34801561036e57600080fd5b50600154610382906001600160a01b031681565b6040516102fb9190615829565b34801561039b57600080fd5b50610354600b5481565b3480156103b157600080fd5b506103546103c036600461583d565b610c0e565b3480156103d157600080fd5b5061035460125481565b3480156103e757600080fd5b50610354610c65565b3480156103fc57600080fd5b506102d761040b36600461583d565b610cf6565b6102d7611125565b34801561042457600080fd5b506102d7610433366004615874565b61125b565b34801561044457600080fd5b5061032461045336600461593b565b611582565b34801561046457600080fd5b506103546104733660046157e4565b6115a8565b34801561048457600080fd5b506005546104929060ff1681565b60405160ff90911681526020016102fb565b3480156104b057600080fd5b506102d76104bf3660046159bd565b6115be565b3480156104d057600080fd5b506103546104df36600461583d565b611625565b3480156104f057600080fd5b506103546116d5565b34801561050557600080fd5b50610354600e5481565b34801561051b57600080fd5b506102d761052a366004615a36565b6116e4565b34801561053b57600080fd5b506102d761054a366004615a8e565b61177d565b34801561055b57600080fd5b50600054610382906001600160a01b031681565b34801561057b57600080fd5b50600654610382906001600160a01b031681565b34801561059b57600080fd5b506103546105aa366004615810565b6118e4565b3480156105bb57600080fd5b5061035460105481565b3480156105d157600080fd5b50610354666379da05b6000081565b3480156105ec57600080fd5b50610354600c5481565b34801561060257600080fd5b50601654610382906001600160a01b031681565b34801561062257600080fd5b5061035461063136600461583d565b6001600160a01b031660009081526013602052604090205490565b34801561065857600080fd5b5061035461193b565b34801561066d57600080fd5b5061035461067c366004615810565b61196a565b34801561068d57600080fd5b5061035460095481565b3480156106a357600080fd5b50610354600f5481565b3480156106b957600080fd5b506103546106c8366004615810565b611975565b3480156106d957600080fd5b506102ee6119b8565b3480156106ee57600080fd5b506103546106fd36600461583d565b6119c5565b34801561070e57600080fd5b5061035461071d366004615810565b611a60565b34801561072e57600080fd5b5061035461073d366004615810565b611aa3565b34801561074e57600080fd5b50610354611aaf565b34801561076357600080fd5b50610354610772366004615810565b611c57565b34801561078357600080fd5b506103246107923660046157e4565b611c9a565b3480156107a357600080fd5b50610354600d5481565b3480156107b957600080fd5b50610354670de0b6b3a764000081565b3480156107d557600080fd5b506000610324565b3480156107e957600080fd5b50610354611cc7565b3480156107fe57600080fd5b5061035461080d36600461593b565b611d77565b34801561081e57600080fd5b50610354611d9b565b34801561083357600080fd5b5061035467016345785d8a000081565b34801561084f57600080fd5b5061086361085e36600461583d565b611de5565b6040516102fb9493929190615ad6565b34801561087f57600080fd5b5061035461088e366004615810565b611e86565b34801561089f57600080fd5b506103546108ae366004615810565b611e91565b3480156108bf57600080fd5b50610354600a5481565b3480156108d557600080fd5b5061035460115481565b3480156108eb57600080fd5b506103546108fa366004615af1565b6001600160a01b03918216600090815260146020908152604080832093909416825291909152205490565b34801561093157600080fd5b50601754610382906001600160a01b031681565b34801561095157600080fd5b5061035461096036600461583d565b611e9c565b34801561097157600080fd5b50600754610382906001600160a01b031681565b34801561099157600080fd5b506103546109a0366004615b2a565b611ed4565b3480156109b157600080fd5b50610354611eec565b3480156109c657600080fd5b506103546109d5366004615810565b611f3d565b3480156109e657600080fd5b506001610324565b60006702c68af0bb14000090506000896001600160a01b031663313ce5676040518163ffffffff1660e01b8152600401602060405180830381865afa158015610a3b573d6000803e3d6000fd5b505050506040513d601f19601f82011682018060405250810190610a5f9190615b6c565b9050610a72898989858a8a878b8b61125b565b601680546001600160a01b0319166001600160a01b038c16908117909155604080516318160ddd60e01b815290516318160ddd916004808201926020929091908290030181865afa158015610acb573d6000803e3d6000fd5b505050506040513d601f19601f82011682018060405250810190610aef9190615b89565b5050505050505050505050565b60038054610b0990615ba2565b80601f0160208091040260200160405190810160405280929190818152602001828054610b3590615ba2565b8015610b825780601f10610b5757610100808354040283529160200191610b82565b820191906000526020600020905b815481529060010190602001808311610b6557829003601f168201915b505050505081565b3360008181526014602090815260408083206001600160a01b03871680855292528083208590555191929182907f8c5be1e5ebec7d5bd14f71427d1e84f3dd0314c0f7b2291e5b200ac8c7c3b92590610be69087815260200190565b60405180910390a360019150505b92915050565b600080610c0683611f80565b509392505050565b600080610c1a81611fe8565b6000610c24611aaf565b14610c4a5760405162461bcd60e51b8152600401610c4190615bed565b60405180910390fd5b610c53836119c5565b91505b610c5f816120ac565b50919050565b6000806000610c7261212b565b90925090506000826003811115610c8b57610c8b615bd7565b14610bf45760405162461bcd60e51b815260206004820152603560248201527f65786368616e67655261746553746f7265643a2065786368616e67655261746560448201527414dd1bdc9959125b9d195c9b985b0819985a5b1959605a1b6064820152608401610c41565b33301480610d075750610d076121ea565b610d675760405162461bcd60e51b815260206004820152602b60248201527f6f6e6c792073656c6620616e642061646d696e732063616e2063616c6c205f7560448201526a383230ba32a8363ab3b4b760a91b6064820152608401610c41565b6017546000906001600160a01b0316610d805781610d8d565b6017546001600160a01b03165b600154604051637583efcf60e01b81529192506001600160a01b031690637583efcf90610dc09084908690600401615c1d565b602060405180830381865afa158015610ddd573d6000803e3d6000fd5b505050506040513d601f19601f82011682018060405250810190610e019190615c37565b610e5b5760405162461bcd60e51b815260206004820152602560248201527f706c7567696e20696d706c656d656e746174696f6e206e6f742077686974656c6044820152641a5cdd195960da1b6064820152608401610c41565b6017546001600160a01b031615801590610ee457506017546040516370a0823160e01b81526001600160a01b03909116906370a0823190610ea0903090600401615829565b602060405180830381865afa158015610ebd573d6000803e3d6000fd5b505050506040513d601f19601f82011682018060405250810190610ee19190615b89565b15155b15610fc7576017546040516370a0823160e01b81526001600160a01b039091169063ba0876529082906370a0823190610f21903090600401615829565b602060405180830381865afa158015610f3e573d6000803e3d6000fd5b505050506040513d601f19601f82011682018060405250810190610f629190615b89565b30306040518463ffffffff1660e01b8152600401610f8293929190615c54565b6020604051808303816000875af1158015610fa1573d6000803e3d6000fd5b505050506040513d601f19601f82011682018060405250810190610fc59190615b89565b505b601780546001600160a01b0319166001600160a01b038481169190911790915560165460405163095ea7b360e01b815291169063095ea7b39061101290859060001990600401615c73565b6020604051808303816000875af1158015611031573d6000803e3d6000fd5b505050506040513d601f19601f820116820180604052508101906110559190615c37565b506016546040516370a0823160e01b81526000916001600160a01b0316906370a0823190611087903090600401615829565b602060405180830381865afa1580156110a4573d6000803e3d6000fd5b505050506040513d601f19601f820116820180604052508101906110c89190615b89565b905080156110d9576110d981612355565b6017546040517fb32957d2794aaec3ea2c8852833af2192fe9fb518777de1f883e9e821781da7591611118916001600160a01b03909116908690615c1d565b60405180910390a1505050565b3330148015906111a75750600660009054906101000a90046001600160a01b03166001600160a01b031663dd5cd22c6040518163ffffffff1660e01b8152600401602060405180830381865afa158015611183573d6000803e3d6000fd5b505050506040513d601f19601f820116820180604052508101906111a79190615c37565b1561125957600154600080546040516345cc970560e01b81529192839283926001600160a01b03928316926345cc9705926111e89290911690600401615829565b600060405180830381865afa158015611205573d6000803e3d6000fd5b505050506040513d6000823e601f3d908101601f1916820160405261122d9190810190615c8c565b60005492955090935091506001600160a01b03808516911614611255576112558383836123ca565b5050505b565b336001600160a01b038916146112c55760405162461bcd60e51b815260206004820152602960248201527f6f6e6c7920467573652061646d696e206d617920696e697469616c697a6520746044820152681a19481b585c9ad95d60ba1b6064820152608401610c41565b600c541580156112d55750600d54155b61132d5760405162461bcd60e51b815260206004820152602360248201527f6d61726b6574206d6179206f6e6c7920626520696e697469616c697a6564206f6044820152626e636560e81b6064820152608401610c41565b600180546001600160a01b0319166001600160a01b038a161790556008869055856113b35760405162461bcd60e51b815260206004820152603060248201527f696e697469616c2065786368616e67652072617465206d75737420626520677260448201526f32b0ba32b9103a3430b7103d32b9379760811b6064820152608401610c41565b60006113be8a61255e565b9050801561140b5760405162461bcd60e51b815260206004820152601a6024820152791cd95d1d1a5b99c818dbdb5c1d1c9bdb1b195c8819985a5b195960321b6044820152606401610c41565b43600c55670de0b6b3a7640000600d5561142488612652565b9050801561147f5760405162461bcd60e51b815260206004820152602260248201527f73657474696e6720696e7465726573742072617465206d6f64656c206661696c604482015261195960f21b6064820152608401610c41565b855161149290600390602089019061546e565b5084516114a690600490602088019061546e565b506005805460ff191660ff86161790556114bf83612765565b9050801561150f5760405162461bcd60e51b815260206004820152601d60248201527f73657474696e67207265736572766520666163746f72206661696c65640000006044820152606401610c41565b61151882612804565b905080156115635760405162461bcd60e51b81526020600482015260186024820152771cd95d1d1a5b99c818591b5a5b881999594819985a5b195960421b6044820152606401610c41565b50506002805460ff60b01b1916600160b01b1790555050505050505050565b60008061158e81611fe8565b600061159c3387878761291e565b149150610c06816120ac565b6000806115b58484612bb1565b50949350505050565b6115c66121ea565b6116055760405162461bcd60e51b815260206004820152601060248201526f31b0b63632b9103737ba1030b236b4b760811b6044820152606401610c41565b611611600385856154ee565b5061161e600483836154ee565b5050505050565b600080604051806020016040528061163b611d9b565b90526001600160a01b038416600090815260136020526040812054919250908190611667908490612c1b565b9092509050600082600381111561168057611680615bd7565b146116cd5760405162461bcd60e51b815260206004820152601f60248201527f62616c616e636520636f756c64206e6f742062652063616c63756c61746564006044820152606401610c41565b949350505050565b60006116df612c6e565b905090565b6116ec6121ea565b6117215760405162461bcd60e51b815260206004820152600660248201526510b0b236b4b760d11b6044820152606401610c41565b6000546001600160a01b0385811691161461177757611777848484848080601f0160208091040260200160405190810160405280939291908181526020018383808284376000920191909152506123ca92505050565b50505050565b3330148061178e575061178e6121ea565b6117f65760405162461bcd60e51b815260206004820152603360248201527f6f6e6c792073656c6620616e642061646d696e732063616e2063616c6c205f6260448201527232b1b7b6b2a4b6b83632b6b2b73a30ba34b7b760691b6064820152608401610c41565b60008180602001905181019061180c9190615d2b565b90506001600160a01b03811615801561182f57506017546001600160a01b031615155b156118ac576001546017546040516381218ea960e01b81526001600160a01b03928316926381218ea99261186892911690600401615829565b602060405180830381865afa158015611885573d6000803e3d6000fd5b505050506040513d601f19601f820116820180604052508101906118a99190615d2b565b90505b6001600160a01b038116158015906118d257506017546001600160a01b03828116911614155b156118e0576118e081610cf6565b5050565b6000806118f081611fe8565b60006118fa611aaf565b905080156119265761191e81601181111561191757611917615bd7565b603b612d06565b925050610c56565b61192f84612d66565b925050610c5f816120ac565b600080611946611aaf565b146119635760405162461bcd60e51b8152600401610c4190615bed565b50600e5490565b6000610bf482612e17565b60008061198181611fe8565b600061198b611aaf565b905080156119af5761191e8160118111156119a8576119a8615bd7565b6052612d06565b61192f84612804565b60048054610b0990615ba2565b60008060006119d384612e5d565b909250905060008260038111156119ec576119ec615bd7565b14611a595760405162461bcd60e51b815260206004820152603760248201527f626f72726f7742616c616e636553746f7265643a20626f72726f7742616c616e60448201527618d954dd1bdc9959125b9d195c9b985b0819985a5b1959604a1b6064820152608401610c41565b9392505050565b600080611a6c81611fe8565b6000611a76611aaf565b90508015611a9a5761191e816011811115611a9357611a93615bd7565b6033612d06565b61192f84612f16565b600080610c0683612f89565b600c546000904390811415611ac75760005b91505090565b6000611ad1612c6e565b90506000600760009054906101000a90046001600160a01b03166001600160a01b03166315f2405383600e54611b16600f54611b11601054601154612fcf565b612fcf565b6040518463ffffffff1660e01b8152600401611b3493929190615d48565b602060405180830381865afa158015611b51573d6000803e3d6000fd5b505050506040513d601f19601f82011682018060405250810190611b759190615b89565b905065048c27395000811115611bcc5760405162461bcd60e51b815260206004820152601c60248201527b0c4dee4e4deee40e4c2e8ca40d2e640c2c4e6eae4c8d8f240d0d2ced60231b6044820152606401610c41565b600080611bdb85600c54613005565b90925090506000826003811115611bf457611bf4615bd7565b14611c415760405162461bcd60e51b815260206004820152601f60248201527f636f756c64206e6f742063616c63756c61746520626c6f636b2064656c7461006044820152606401610c41565b611c4d85858584613030565b9550505050505090565b600080611c6381611fe8565b6000611c6d611aaf565b90508015611c915761191e816011811115611c8a57611c8a615bd7565b6037612d06565b61192f84613152565b600080611ca681611fe8565b6000611cb43333878761291e565b149150611cc0816120ac565b5092915050565b6007546000906001600160a01b031663b8168816611ce3612c6e565b600e54611cfa600f54611b11601054601154612fcf565b600954600a54600b54611d0d9190615d74565b611d179190615d74565b6040518563ffffffff1660e01b8152600401611d369493929190615ad6565b602060405180830381865afa158015611d53573d6000803e3d6000fd5b505050506040513d601f19601f820116820180604052508101906116df9190615b89565b60006001611d8481611fe8565b611d9033868686613230565b9150610c06816120ac565b600080611da781611fe8565b6000611db1611aaf565b14611dce5760405162461bcd60e51b8152600401610c4190615bed565b611dd6610c65565b9150611de1816120ac565b5090565b6001600160a01b038116600090815260136020526040812054819081908190818080611e1089612e5d565b935090506000816003811115611e2857611e28615bd7565b14611e465760095b6000806000975097509750975050505050611e7f565b611e4e61212b565b925090506000816003811115611e6657611e66615bd7565b14611e72576009611e30565b5060009650919450925090505b9193509193565b6000610bf482613717565b6000610bf48261375b565b600080611ea7611aaf565b90508015611ecb57611a59816011811115611ec457611ec4615bd7565b604b612d06565b611a5983612652565b600080611ee285858561379a565b5095945050505050565b6007546000906001600160a01b03166315f24053611f08612c6e565b600e54611f1f600f54611b11601054601154612fcf565b6040518463ffffffff1660e01b8152600401611d3693929190615d48565b600080611f4981611fe8565b6000611f53611aaf565b90508015611f775761191e816011811115611f7057611f70615bd7565b6059612d06565b61192f84612765565b6000806000611f8e81611fe8565b6000611f98611aaf565b90508015611fc857611fbc816011811115611fb557611fb5615bd7565b6041612d06565b60009350935050611fd9565b611fd333338761388e565b93509350505b611fe2816120ac565b50915091565b600254600160b01b900460ff1661202e5760405162461bcd60e51b815260206004820152600a6024820152691c994b595b9d195c995960b21b6044820152606401610c41565b8061209c57600660009054906101000a90046001600160a01b03166001600160a01b031663c90c20b16040518163ffffffff1660e01b8152600401600060405180830381600087803b15801561208357600080fd5b505af1158015612097573d6000803e3d6000fd5b505050505b506002805460ff60b01b19169055565b6002805460ff60b01b1916600160b01b1790558061212857600660009054906101000a90046001600160a01b03166001600160a01b031663632e51426040518163ffffffff1660e01b8152600401600060405180830381600087803b15801561211457600080fd5b505af115801561161e573d6000803e3d6000fd5b50565b601254600090819080612145575050600854600092909150565b600061214f612c6e565b9050600061215b615562565b600061217d84600e54612178600f54611b11601054601154612fcf565b613c97565b93509050600081600381111561219557612195615bd7565b146121a7579660009650945050505050565b6121b18386613ce9565b9250905060008160038111156121c9576121c9615bd7565b146121db579660009650945050505050565b50516000969095509350505050565b600654604080516303e1469160e61b815290516000926001600160a01b031691829163f851a440916004808201926020929091908290030181865afa158015612237573d6000803e3d6000fd5b505050506040513d601f19601f8201168201806040525081019061225b9190615d2b565b6001600160a01b0316336001600160a01b03161480156122d85750806001600160a01b0316630a755ec26040518163ffffffff1660e01b8152600401602060405180830381865afa1580156122b4573d6000803e3d6000fd5b505050506040513d601f19601f820116820180604052508101906122d89190615c37565b80611ac157506001546001600160a01b031633148015611ac15750806001600160a01b0316632f1069ba6040518163ffffffff1660e01b8152600401602060405180830381865afa158015612331573d6000803e3d6000fd5b505050506040513d601f19601f82011682018060405250810190611ac19190615c37565b601754604051636e553f6560e01b8152600481018390523060248201526001600160a01b0390911690636e553f65906044016020604051808303816000875af11580156123a6573d6000803e3d6000fd5b505050506040513d601f19601f820116820180604052508101906118e09190615b89565b6001546000546040516338e6a07360e11b81526001600160a01b039182166004820152858216602482015284151560448201529116906371cd40e690606401602060405180830381865afa158015612426573d6000803e3d6000fd5b505050506040513d601f19601f8201168201806040525081019061244a9190615c37565b61247e5760405162461bcd60e51b8152602060048201526005602482015264085a5b5c1b60da1b6044820152606401610c41565b600080546001600160a01b038581166001600160a01b031983161790925516303b6124b1576124ac8261177d565b612513565b61251130836040516024016124c691906157d1565b60408051601f19818403018152918152602080830180516001600160e01b0316630adccee560e31b17905281518083019092526007825266216265636f6d6560c81b90820152613da6565b505b6000546040517fd604de94d45953f9138079ec1b82d533cb2160c906d1076d1f7ed54befbca97a916125509184916001600160a01b031690615c1d565b60405180910390a150505050565b600080600660009054906101000a90046001600160a01b03169050826001600160a01b0316627e3dd26040518163ffffffff1660e01b8152600401602060405180830381865afa1580156125b6573d6000803e3d6000fd5b505050506040513d601f19601f820116820180604052508101906125da9190615c37565b6125f65760405162461bcd60e51b8152600401610c4190615d8c565b600680546001600160a01b0319166001600160a01b0385161790556040517f7ac369dbd14fa5ea3f473ed67cc9d598964a77501540ba6751eb0b3decf5870d906126439083908690615c1d565b60405180910390a16000611a59565b60008061265d6121ea565b61266d57611a596001604d612d06565b43600c541461268257611a59600a604c612d06565b600760009054906101000a90046001600160a01b03169050826001600160a01b0316632191f92a6040518163ffffffff1660e01b8152600401602060405180830381865afa1580156126d8573d6000803e3d6000fd5b505050506040513d601f19601f820116820180604052508101906126fc9190615c37565b6127185760405162461bcd60e51b8152600401610c4190615d8c565b600780546001600160a01b0319166001600160a01b0385161790556040517fedffc32e068c7c95dfd4bdfd5c4d939a084d6b11c4199eac8436ed234d72f926906126439083908690615c1d565b600061276f6121ea565b61277f57610bf46001605a612d06565b43600c541461279457610bf4600a605b612d06565b670de0b6b3a76400006127b46127ac84600954612fcf565b600a54612fcf565b11156127c657610bf46002605c612d06565b600b80549083905560408051828152602081018590527faaa68312e2ea9d50e16af5068410ab56e1a1fd06037b1a35664812c30f8214609101612643565b600043600c541461281b57610bf4600a6054612d06565b60001982141561282b5760095491505b6000612835613e42565b9050670de0b6b3a764000061285561284f600b5486612fcf565b83612fcf565b111561286757611a5960026055612d06565b82600954146128cb576128786121ea565b61288857611a5960016053612d06565b600980549084905560408051828152602081018690527fcdd0b588250e1398549f79cfdb8217c186688822905d6715b0834ea1c865594a910160405180910390a1505b80600a541461291757600a80549082905560408051828152602081018490527f92eef861b6533b7d3417f39c2ad7b460eed4e88a32fa3604f30e718b7602e7dc910160405180910390a1505b6000611a59565b6006546040516317b9b84b60e31b815260009182916001600160a01b039091169063bdcdc25890612959903090899089908990600401615dc2565b6020604051808303816000875af1158015612978573d6000803e3d6000fd5b505050506040513d601f19601f8201168201806040525081019061299c9190615b89565b905080156129b9576129b16003605d83613e8c565b9150506116cd565b836001600160a01b0316856001600160a01b031614156129df576129b16002605e612d06565b6000856001600160a01b0316876001600160a01b03161415612a045750600019612a2c565b506001600160a01b038086166000908152601460209081526040808320938a16835292905220545b600080600080612a3c8589613005565b90945092506000846003811115612a5557612a55615bd7565b14612a7357612a666009605e612d06565b96505050505050506116cd565b6001600160a01b038a16600090815260136020526040902054612a969089613005565b90945091506000846003811115612aaf57612aaf615bd7565b14612ac057612a666009605f612d06565b6001600160a01b038916600090815260136020526040902054612ae39089613f15565b90945090506000846003811115612afc57612afc615bd7565b14612b0d57612a6660096060612d06565b6001600160a01b03808b16600090815260136020526040808220859055918b168152208190556000198514612b65576001600160a01b03808b166000908152601460209081526040808320938f168352929052208390555b886001600160a01b03168a6001600160a01b0316600080516020615f468339815191528a604051612b9891815260200190565b60405180910390a35060009a9950505050505050505050565b6000806000612bbf81611fe8565b6000612bc9611aaf565b90508015612bf957612bed816011811115612be657612be6615bd7565b6040612d06565b60009350935050612c0a565b612c0433878761388e565b93509350505b612c13816120ac565b509250929050565b600080600080612c2b8686613f3b565b90925090506000826003811115612c4457612c44615bd7565b14612c555750915060009050612c67565b6000612c6082613fa9565b9350935050505b9250929050565b6017546040516370a0823160e01b81526000916001600160a01b031690634cdad5069082906370a0823190612ca7903090600401615829565b602060405180830381865afa158015612cc4573d6000803e3d6000fd5b505050506040513d601f19601f82011682018060405250810190612ce89190615b89565b6040518263ffffffff1660e01b8152600401611d3691815260200190565b6000600080516020615f26833981519152836011811115612d2957612d29615bd7565b836063811115612d3b57612d3b615bd7565b6000604051612d4c93929190615d48565b60405180910390a1826011811115611a5957611a59615bd7565b600080612d716121ea565b612d8157611a596001603c612d06565b43600c5414612d9657611a59600a603e612d06565b82612d9f612c6e565b1015612db157611a59600e603d612d06565b600f54831115612dc757611a596002603f612d06565b612dd3600f5484613fc1565b600f8190559050612de43384613ffb565b7f3bad0c59cf2f06e7314077049f48a93578cd16f5ef92329f1dab1420a99c177e33848360405161264393929190615dec565b600080612e2381611fe8565b6000612e2d611aaf565b90508015612e515761191e816011811115612e4a57612e4a615bd7565b602a612d06565b61192f33600086614072565b6001600160a01b038116600090815260156020526040812080548291829182918291612e925750600096879650945050505050565b612ea28160000154600d546145b1565b90945092506000846003811115612ebb57612ebb615bd7565b14612ece57509195600095509350505050565b612edc8382600101546145f0565b90945091506000846003811115612ef557612ef5615bd7565b14612f0857509195600095509350505050565b506000969095509350505050565b60008043600c5414612f2e57611a59600a6035612d06565b82612f37612c6e565b1015612f4957611a59600e6034612d06565b601154831115612f5f57611a5960026036612d06565b612f6b60115484613fc1565b6011819055600154909150612917906001600160a01b031684613ffb565b6000806000612f9781611fe8565b6000612fa1611aaf565b90508015612fc557611fbc816011811115612fbe57612fbe615bd7565b6020612d06565b611fd3338661461b565b6000611a598383604051806040016040528060118152602001706164646974696f6e206f766572666c6f7760781b815250614992565b60008083831161302457600061301b8486615e0d565b91509150612c67565b50600390506000612c67565b60008061304b604051806020016040528086815250846149c3565b9050600061305b82600e546149ed565b9050600061306b82600e54612fcf565b9050600061308c6040518060200160405280600b5481525084600f54614a05565b905060006130ad6040518060200160405280600a5481525085601154614a05565b905060006130ce604051806020016040528060095481525086601054614a05565b905060006130e187600d54600d54614a05565b600c8d9055600d819055600e869055600f859055601184905560108390556040519091507f4dec04e750ca11537cabcd8a9eab06494de08da3735bc8871cd41250e190bc0490613138908d90899085908a90615ad6565b60405180910390a160009c9b505050505050505050505050565b60008043600c541461316a57611a59600a6039612d06565b82613173612c6e565b101561318557611a59600e6038612d06565b60105483111561319b57611a596002603a612d06565b6131a760105484613fc1565b905080601081905550612917600660009054906101000a90046001600160a01b03166001600160a01b031663f851a4406040518163ffffffff1660e01b8152600401602060405180830381865afa158015613206573d6000803e3d6000fd5b505050506040513d601f19601f8201168201806040525081019061322a9190615d2b565b84613ffb565b60065460405163d02f735160e01b815260009182916001600160a01b039091169063d02f73519061326d9030908a908a908a908a90600401615e24565b6020604051808303816000875af115801561328c573d6000803e3d6000fd5b505050506040513d601f19601f820116820180604052508101906132b09190615b89565b905080156132c5576129b16003601d83613e8c565b846001600160a01b0316846001600160a01b031614156132eb576129b16006601e612d06565b613350604080516101808101909152806000815260200160008152602001600081526020016000815260200160008152602001600081526020016000815260200160008152602001600081526020016000815260200160008152602001600081525090565b6001600160a01b0385166000908152601360205260409020546133739085613005565b602083018190528282600381111561338d5761338d615bd7565b600381111561339e5761339e615bd7565b90525060009050815160038111156133b8576133b8615bd7565b146133e8576133df6009601c836000015160038111156133da576133da615bd7565b613e8c565b925050506116cd565b613407846040518060200160405280666379da05b60000815250614a26565b6080820152604080516020810190915267016345785d8a0000815261342d908590614a26565b610140820152608081015161345290613447908690613fc1565b826101400151613fc1565b606082015261345f61212b565b60c083018190528282600381111561347957613479615bd7565b600381111561348a5761348a615bd7565b90525060009050815160038111156134a4576134a4615bd7565b146134ec5760405162461bcd60e51b815260206004820152601860248201527732bc31b430b733b2903930ba329036b0ba341032b93937b960411b6044820152606401610c41565b61350c60405180602001604052808360c0015181525082608001516149ed565b60a0820152604080516020810190915260c0820151815261014082015161353391906149ed565b610160820152600f5460a082015161354b9190612fcf565b60e082015260125460808201516135659161344791613fc1565b61012082015260115461016082015161357e9190612fcf565b6101008201526001600160a01b03861660009081526013602052604090205460608201516135ac9190613f15565b60408301819052828260038111156135c6576135c6615bd7565b60038111156135d7576135d7615bd7565b90525060009050815160038111156135f1576135f1615bd7565b14613613576133df6009601b836000015160038111156133da576133da615bd7565b60e0810151600f556101208101516012556101008101516011556020808201516001600160a01b0387811660008181526013855260408082209490945583860151928b1680825290849020929092556060850151925192835290929091600080516020615f46833981519152910160405180910390a3306001600160a01b0316856001600160a01b0316600080516020615f4683398151915283608001516040516136c091815260200190565b60405180910390a360a081015160e08201516040517fa91e67c5ea634cd43a12c5a482724b03de01e85ca68702a53d0c2f45cb7c1dc592613702923092615dec565b60405180910390a16000979650505050505050565b60008061372381611fe8565b600061372d611aaf565b905080156137515761191e81601181111561374a5761374a615bd7565b600a612d06565b61192f3385614a49565b60008061376781611fe8565b6000613771611aaf565b9050801561378e5761191e816011811115612e4a57612e4a615bd7565b61192f33856000614072565b60008060006137a881611fe8565b60006137b2611aaf565b905080156137e2576137d68160118111156137cf576137cf615bd7565b6011612d06565b6000935093505061387c565b846001600160a01b031663a6afed956040518163ffffffff1660e01b81526004016020604051808303816000875af1158015613822573d6000803e3d6000fd5b505050506040513d601f19601f820116820180604052508101906138469190615b89565b9050801561386a576137d681601181111561386357613863615bd7565b6012612d06565b61387633888888614ddb565b93509350505b613885816120ac565b50935093915050565b600654604051631200453160e11b8152600091829182916001600160a01b0316906324008a62906138c99030908a908a908a90600401615dc2565b6020604051808303816000875af11580156138e8573d6000803e3d6000fd5b505050506040513d601f19601f8201168201806040525081019061390c9190615b89565b9050801561392d576139216003604383613e8c565b60009250925050613c8f565b43600c541461394257613921600a6044612d06565b61398b6040805161010081019091528060008152602001600081526020016000815260200160008152602001600081526020016000815260200160008152602001600081525090565b6001600160a01b03861660009081526015602052604090206001015460608201526139b586612e5d565b60808301819052602083018260038111156139d2576139d2615bd7565b60038111156139e3576139e3615bd7565b9052506000905081602001516003811115613a0057613a00615bd7565b14613a2f57613a2260096042836020015160038111156133da576133da615bd7565b6000935093505050613c8f565b600019851415613a485760808101516040820152613a50565b604081018590525b613a5e878260400151615285565b60e082018190526080820151613a7391613005565b60a0830181905260208301826003811115613a9057613a90615bd7565b6003811115613aa157613aa1615bd7565b9052506000905081602001516003811115613abe57613abe615bd7565b14613b2e5760405162461bcd60e51b815260206004820152603a60248201527f52455041595f424f52524f575f4e45575f4143434f554e545f424f52524f575f604482015279109053105390d157d0d05310d55310551253d397d1905253115160321b6064820152608401610c41565b613b3e600e548260e00151613005565b60c0830181905260208301826003811115613b5b57613b5b615bd7565b6003811115613b6c57613b6c615bd7565b9052506000905081602001516003811115613b8957613b89615bd7565b14613bf05760405162461bcd60e51b815260206004820152603160248201527f52455041595f424f52524f575f4e45575f544f54414c5f42414c414e43455f43604482015270105310d55310551253d397d19052531151607a1b6064820152608401610c41565b60a081810180516001600160a01b03898116600081815260156020908152604091829020948555600d5460019095019490945560c0870151600e81905560e088015195518251948f16855294840192909252820193909352606081019190915260808101919091527f1a2a22cb034d26d1854bdc6666a5b91fe25efbbb5dcad3b0355478d6f5c362a1910160405180910390a160e00151600093509150505b935093915050565b600080600080613ca78787613f15565b90925090506000826003811115613cc057613cc0615bd7565b14613cd15750915060009050613c8f565b613cdb8186613005565b935093505050935093915050565b6000613cf3615562565b600080613d0886670de0b6b3a76400006145b1565b90925090506000826003811115613d2157613d21615bd7565b14613d4057506040805160208101909152600081529092509050612c67565b600080613d4d83886145f0565b90925090506000826003811115613d6657613d66615bd7565b14613d895781604051806020016040528060008152509550955050505050612c67565b604080516020810190915290815260009890975095505050505050565b6060600080856001600160a01b031685604051613dc39190615e57565b6000604051808303816000865af19150503d8060008114613e00576040519150601f19603f3d011682016040523d82523d6000602084013e613e05565b606091505b509150915081613e3957805115613e1f5780518082602001fd5b8360405162461bcd60e51b8152600401610c4191906157d1565b95945050505050565b6001546040805163dd86fea160e01b815290516000926001600160a01b03169163dd86fea19160048083019260209291908290030181865afa158015611d53573d6000803e3d6000fd5b6000600080516020615f26833981519152846011811115613eaf57613eaf615bd7565b846063811115613ec157613ec1615bd7565b84604051613ed193929190615d48565b60405180910390a16003846011811115613eed57613eed615bd7565b14613f0957836011811115613f0457613f04615bd7565b6116cd565b6116cd826103e8615d74565b600080838301848110613f2d57600092509050612c67565b600260009250925050612c67565b6000613f45615562565b600080613f568660000151866145b1565b90925090506000826003811115613f6f57613f6f615bd7565b14613f8e57506040805160208101909152600081529092509050612c67565b60408051602081019091529081526000969095509350505050565b8051600090610bf490670de0b6b3a764000090615e73565b6000611a598383604051806040016040528060158152602001747375627472616374696f6e20756e646572666c6f7760581b81525061533b565b601754604051632d182be560e21b81526001600160a01b039091169063b460af949061402f90849086903090600401615c54565b6020604051808303816000875af115801561404e573d6000803e3d6000fd5b505050506040513d601f19601f820116820180604052508101906112559190615b89565b600082158061407f575081155b6140e85760405162461bcd60e51b815260206004820152603460248201527f6f6e65206f662072656465656d546f6b656e73496e206f722072656465656d416044820152736d6f756e74496e206d757374206265207a65726f60601b6064820152608401610c41565b6140f0615575565b6140f861212b565b604083018190526020830182600381111561411557614115615bd7565b600381111561412657614126615bd7565b905250600090508160200151600381111561414357614143615bd7565b1461416d576141656009602e836020015160038111156133da576133da615bd7565b915050611a59565b83156142065760608101849052604080516020810182529082015181526141949085612c1b565b60808301819052602083018260038111156141b1576141b1615bd7565b60038111156141c2576141c2615bd7565b90525060009050816020015160038111156141df576141df615bd7565b14614201576141656009602c836020015160038111156133da576133da615bd7565b614297565b614222836040518060200160405280846040015181525061536a565b606083018190526020830182600381111561423f5761423f615bd7565b600381111561425057614250615bd7565b905250600090508160200151600381111561426d5761426d615bd7565b1461428f576141656009602d836020015160038111156133da576133da615bd7565b608081018390525b600654606082015160405163eabe7d9160e01b81526000926001600160a01b03169163eabe7d91916142d09130918b9190600401615e95565b6020604051808303816000875af11580156142ef573d6000803e3d6000fd5b505050506040513d601f19601f820116820180604052508101906143139190615b89565b90508015614331576143286003602b83613e8c565b92505050611a59565b43600c541461434657614328600a602f612d06565b6143566012548360600151613005565b60a084018190526020840182600381111561437357614373615bd7565b600381111561438457614384615bd7565b90525060009050826020015160038111156143a1576143a1615bd7565b146143c35761432860096031846020015160038111156133da576133da615bd7565b6001600160a01b03861660009081526013602052604090205460608301516143eb9190613005565b60c084018190526020840182600381111561440857614408615bd7565b600381111561441957614419615bd7565b905250600090508260200151600381111561443657614436615bd7565b146144585761432860096030846020015160038111156133da576133da615bd7565b8160800151614465612c6e565b101561447757614328600e6032612d06565b60a082015160125560c08201516001600160a01b03871660009081526013602052604090205560808201516144ad908790613ffb565b306001600160a01b0316866001600160a01b0316600080516020615f4683398151915284606001516040516144e491815260200190565b60405180910390a3608082015160608301516040517fe5b754fb1abb7f01b499791d0b820ae3b6af3424ac1c59768edb53f4ec31a92992614526928a92615dec565b60405180910390a1600654608083015160608401516040516351dff98960e01b81526001600160a01b03909316926351dff9899261456c9230928c929190600401615eb9565b600060405180830381600087803b15801561458657600080fd5b505af115801561459a573d6000803e3d6000fd5b50600092506145a7915050565b9695505050505050565b600080836145c457506000905080612c67565b838302836145d28683615e73565b146145e557600260009250925050612c67565b600092509050612c67565b600080826146045750600190506000612c67565b60006146108486615e73565b915091509250929050565b600654604051634ef4c3e160e01b8152600091829182916001600160a01b031690634ef4c3e19061465490309089908990600401615e95565b6020604051808303816000875af1158015614673573d6000803e3d6000fd5b505050506040513d601f19601f820116820180604052508101906146979190615b89565b905080156146b8576146ac6003602183613e8c565b60009250925050612c67565b43600c54146146cd576146ac600a6024612d06565b6146d5615575565b6146dd61212b565b60408301819052602083018260038111156146fa576146fa615bd7565b600381111561470b5761470b615bd7565b905250600090508160200151600381111561472857614728615bd7565b146147575761474a60096023836020015160038111156133da576133da615bd7565b6000935093505050612c67565b6147618686615285565b60c0820181905260408051602081018252908301518152614782919061536a565b606083018190526020830182600381111561479f5761479f615bd7565b60038111156147b0576147b0615bd7565b90525060009050816020015160038111156147cd576147cd615bd7565b1461481a5760405162461bcd60e51b815260206004820181905260248201527f4d494e545f45584348414e47455f43414c43554c4154494f4e5f4641494c45446044820152606401610c41565b61482a6012548260600151612fcf565b60808201526001600160a01b03861660009081526013602052604090205460608201516148579190612fcf565b60a0820181905260808201516012556001600160a01b038716600090815260136020526040908190209190915560c0820151606083015191517f4c209b5fc8ad50758f13e2e1088ba56a560dff690a1c6fef26394f4c03821c4f926148c0928a92909190615dec565b60405180910390a1856001600160a01b0316306001600160a01b0316600080516020615f4683398151915283606001516040516148ff91815260200190565b60405180910390a360065460c082015160608301516040516341c728b960e01b81526001600160a01b03909316926341c728b9926149459230928c929190600401615eb9565b600060405180830381600087803b15801561495f57600080fd5b505af1158015614973573d6000803e3d6000fd5b5060009250614980915050565b8160c001519350935050509250929050565b60008061499f8486615d74565b905082858210156115b55760405162461bcd60e51b8152600401610c4191906157d1565b6149cb615562565b60405180602001604052806149e485600001518561537a565b90529392505050565b6000806149fa84846149c3565b90506116cd81613fa9565b600080614a1285856149c3565b9050613e39614a2082613fa9565b84612fcf565b6000670de0b6b3a7640000614a3f84846000015161537a565b611a599190615e73565b60065460405163368f515360e21b815260009182916001600160a01b039091169063da3d454c90614a8290309088908890600401615e95565b6020604051808303816000875af1158015614aa1573d6000803e3d6000fd5b505050506040513d601f19601f82011682018060405250810190614ac59190615b89565b90508015614ae257614ada6003601083613e8c565b915050610bf4565b43600c5414614af757614ada600a600c612d06565b6000614b01612c6e565b905083811015614b2057614b17600e600b612d06565b92505050610bf4565b614b4c604080516080810190915280600081526020016000815260200160008152602001600081525090565b614b5586612e5d565b6020830181905282826003811115614b6f57614b6f615bd7565b6003811115614b8057614b80615bd7565b9052506000905081516003811115614b9a57614b9a615bd7565b14614bc557614bbb600980836000015160038111156133da576133da615bd7565b9350505050610bf4565b614bd3816020015186613f15565b6040830181905282826003811115614bed57614bed615bd7565b6003811115614bfe57614bfe615bd7565b9052506000905081516003811115614c1857614c18615bd7565b14614c3a57614bbb6009600e836000015160038111156133da576133da615bd7565b6006546040808301519051631de6c8a560e21b81526001600160a01b039092169163779b229491614c7091309190600401615c73565b6020604051808303816000875af1158015614c8f573d6000803e3d6000fd5b505050506040513d601f19601f82011682018060405250810190614cb39190615b89565b92508215614cc857614bbb6003601085613e8c565b614cd4600e5486613f15565b6060830181905282826003811115614cee57614cee615bd7565b6003811115614cff57614cff615bd7565b9052506000905081516003811115614d1957614d19615bd7565b14614d3b57614bbb6009600d836000015160038111156133da576133da615bd7565b6040808201516001600160a01b0388166000908152601560205291909120908155600d546001909101556060810151600e55614d778686613ffb565b60408082015160608084015183516001600160a01b038b168152602081018a9052938401929092528201527f13ed6866d4e1ee6da46f845c46d7e54120883d75c5ea9a2dacc1c4ca8984ab809060800160405180910390a160009695505050505050565b600654604051632fe3f38f60e11b8152600091829182916001600160a01b031690635fc7e71e90614e1890309088908c908c908c90600401615e24565b6020604051808303816000875af1158015614e37573d6000803e3d6000fd5b505050506040513d601f19601f82011682018060405250810190614e5b9190615b89565b90508015614e7c57614e706003601483613e8c565b6000925092505061527c565b43600c5414614e9157614e70600a6018612d06565b43846001600160a01b0316636c540baf6040518163ffffffff1660e01b8152600401602060405180830381865afa158015614ed0573d6000803e3d6000fd5b505050506040513d601f19601f82011682018060405250810190614ef49190615b89565b14614f0557614e70600a6013612d06565b866001600160a01b0316866001600160a01b03161415614f2b57614e7060066019612d06565b84614f3c57614e7060076017612d06565b600019851415614f5257614e7060076016612d06565b600080614f6089898961388e565b90925090508115614f9557614f87826011811115614f8057614f80615bd7565b601a612d06565b60009450945050505061527c565b60065460405163c488847b60e01b815260009182916001600160a01b039091169063c488847b90614fce9030908c908890600401615e95565b6040805180830381865afa158015614fea573d6000803e3d6000fd5b505050506040513d601f19601f8201168201806040525081019061500e9190615ee2565b9092509050811561507d5760405162461bcd60e51b815260206004820152603360248201527f4c49515549444154455f434f4d5054524f4c4c45525f43414c43554c4154455f604482015272105353d5539517d4d152569157d19052531151606a1b6064820152608401610c41565b6040516370a0823160e01b815281906001600160a01b038a16906370a08231906150ab908e90600401615829565b602060405180830381865afa1580156150c8573d6000803e3d6000fd5b505050506040513d601f19601f820116820180604052508101906150ec9190615b89565b10156151355760405162461bcd60e51b815260206004820152601860248201527709892a2aa928882a88abea68a92b48abea89e9ebe9aaa86960431b6044820152606401610c41565b60006001600160a01b03891630141561515b57615154308d8d85613230565b90506151d1565b60405163b2a02ff160e01b81526001600160a01b038a169063b2a02ff19061518b908f908f908790600401615e95565b6020604051808303816000875af11580156151aa573d6000803e3d6000fd5b505050506040513d601f19601f820116820180604052508101906151ce9190615b89565b90505b80156152165760405162461bcd60e51b81526020600482015260146024820152731d1bdad95b881cd95a5e9d5c994819985a5b195960621b6044820152606401610c41565b604080516001600160a01b038e811682528d811660208301528183018790528b1660608201526080810184905290517f298637f684da70674f26509b10f07ec2fbc77a335ab1e7d6215a4b2484d8bb529181900360a00190a16000975092955050505050505b94509492505050565b6016546040516323b872dd60e01b81526000916001600160a01b0316906323b872dd906152ba90869030908790600401615e95565b6020604051808303816000875af11580156152d9573d6000803e3d6000fd5b505050506040513d601f19601f820116820180604052508101906152fd9190615c37565b6153325760405162461bcd60e51b8152600401610c41906020808252600490820152631cd95b9960e21b604082015260600190565b610c5f82612355565b6000818484111561535f5760405162461bcd60e51b8152600401610c4191906157d1565b506116cd8385615e0d565b600080600080612c2b86866153b6565b6000611a598383604051806040016040528060178152602001766d756c7469706c69636174696f6e206f766572666c6f7760481b81525061541b565b60006153c0615562565b6000806153d5670de0b6b3a7640000876145b1565b909250905060008260038111156153ee576153ee615bd7565b1461540d57506040805160208101909152600081529092509050612c67565b612c60818660000151613ce9565b6000831580615428575082155b1561543557506000611a59565b60006154418486615f06565b90508361544e8683615e73565b1483906115b55760405162461bcd60e51b8152600401610c4191906157d1565b82805461547a90615ba2565b90600052602060002090601f01602090048101928261549c57600085556154e2565b82601f106154b557805160ff19168380011785556154e2565b828001600101855582156154e2579182015b828111156154e25782518255916020019190600101906154c7565b50611de19291506155b3565b8280546154fa90615ba2565b90600052602060002090601f01602090048101928261551c57600085556154e2565b82601f106155355782800160ff198235161785556154e2565b828001600101855582156154e2579182015b828111156154e2578235825591602001919060010190615547565b6040518060200160405280600081525090565b6040805160e0810190915280600081526020016000815260200160008152602001600081526020016000815260200160008152602001600081525090565b5b80821115611de157600081556001016155b4565b6001600160a01b038116811461212857600080fd5b80356155e8816155c8565b919050565b634e487b7160e01b600052604160045260246000fd5b604051601f8201601f191681016001600160401b038111828210171561562b5761562b6155ed565b604052919050565b60006001600160401b0382111561564c5761564c6155ed565b50601f01601f191660200190565b600061566d61566884615633565b615603565b905082815283838301111561568157600080fd5b828260208301376000602084830101529392505050565b600082601f8301126156a957600080fd5b611a598383356020850161565a565b600080600080600080600080610100898b0312156156d557600080fd5b88356156e0816155c8565b975060208901356156f0816155c8565b96506040890135615700816155c8565b95506060890135615710816155c8565b945060808901356001600160401b038082111561572c57600080fd5b6157388c838d01615698565b955060a08b013591508082111561574e57600080fd5b5061575b8b828c01615698565b93505060c0890135915060e089013590509295985092959890939650565b60005b8381101561579457818101518382015260200161577c565b838111156117775750506000910152565b600081518084526157bd816020860160208601615779565b601f01601f19169290920160200192915050565b602081526000611a5960208301846157a5565b600080604083850312156157f757600080fd5b8235615802816155c8565b946020939093013593505050565b60006020828403121561582257600080fd5b5035919050565b6001600160a01b0391909116815260200190565b60006020828403121561584f57600080fd5b8135611a59816155c8565b60ff8116811461212857600080fd5b80356155e88161585a565b60008060008060008060008060006101208a8c03121561589357600080fd5b893561589e816155c8565b985060208a01356158ae816155c8565b97506158bc60408b016155dd565b965060608a0135955060808a01356001600160401b03808211156158df57600080fd5b6158eb8d838e01615698565b965060a08c013591508082111561590157600080fd5b5061590e8c828d01615698565b94505061591d60c08b01615869565b925060e08a013591506101008a013590509295985092959850929598565b60008060006060848603121561595057600080fd5b833561595b816155c8565b9250602084013561596b816155c8565b929592945050506040919091013590565b60008083601f84011261598e57600080fd5b5081356001600160401b038111156159a557600080fd5b602083019150836020828501011115612c6757600080fd5b600080600080604085870312156159d357600080fd5b84356001600160401b03808211156159ea57600080fd5b6159f68883890161597c565b90965094506020870135915080821115615a0f57600080fd5b50615a1c8782880161597c565b95989497509550505050565b801515811461212857600080fd5b60008060008060608587031215615a4c57600080fd5b8435615a57816155c8565b93506020850135615a6781615a28565b925060408501356001600160401b03811115615a8257600080fd5b615a1c8782880161597c565b600060208284031215615aa057600080fd5b81356001600160401b03811115615ab657600080fd5b8201601f81018413615ac757600080fd5b6116cd8482356020840161565a565b93845260208401929092526040830152606082015260800190565b60008060408385031215615b0457600080fd5b8235615b0f816155c8565b91506020830135615b1f816155c8565b809150509250929050565b600080600060608486031215615b3f57600080fd5b8335615b4a816155c8565b9250602084013591506040840135615b61816155c8565b809150509250925092565b600060208284031215615b7e57600080fd5b8151611a598161585a565b600060208284031215615b9b57600080fd5b5051919050565b600181811c90821680615bb657607f821691505b60208210811415610c5f57634e487b7160e01b600052602260045260246000fd5b634e487b7160e01b600052602160045260246000fd5b6020808252601690820152751858d8dc9d59481a5b9d195c995cdd0819985a5b195960521b604082015260600190565b6001600160a01b0392831681529116602082015260400190565b600060208284031215615c4957600080fd5b8151611a5981615a28565b9283526001600160a01b03918216602084015216604082015260600190565b6001600160a01b03929092168252602082015260400190565b600080600060608486031215615ca157600080fd5b8351615cac816155c8565b6020850151909350615cbd81615a28565b60408501519092506001600160401b03811115615cd957600080fd5b8401601f81018613615cea57600080fd5b8051615cf861566882615633565b818152876020838501011115615d0d57600080fd5b615d1e826020830160208601615779565b8093505050509250925092565b600060208284031215615d3d57600080fd5b8151611a59816155c8565b9283526020830191909152604082015260600190565b634e487b7160e01b600052601160045260246000fd5b60008219821115615d8757615d87615d5e565b500190565b6020808252601c908201527b6d61726b6572206d6574686f642072657475726e65642066616c736560201b604082015260600190565b6001600160a01b039485168152928416602084015292166040820152606081019190915260800190565b6001600160a01b039390931683526020830191909152604082015260600190565b600082821015615e1f57615e1f615d5e565b500390565b6001600160a01b039586168152938516602085015291841660408401529092166060820152608081019190915260a00190565b60008251615e69818460208701615779565b9190910192915050565b600082615e9057634e487b7160e01b600052601260045260246000fd5b500490565b6001600160a01b039384168152919092166020820152604081019190915260600190565b6001600160a01b0394851681529290931660208301526040820152606081019190915260800190565b60008060408385031215615ef557600080fd5b505080516020909101519092909150565b6000816000190483118215151615615f2057615f20615d5e565b50029056fe45b96fe442630264581b197e84bbada861235052c5a1aadfff9ea4e40a969aa0ddf252ad1be2c89b69c2b068fc378daa952ba7f163c4a11628f55a4df523b3efa164736f6c634300080a000a",
    "linkReferences": {}
  },
  "methodIdentifiers": {
    "PRECISION()": "aaf5eb68",
    "_becomeImplementation(bytes)": "56e67728",
    "_prepare()": "1db78944",
    "_reduceReserves(uint256)": "601a0bf1",
    "_setAdminFee(uint256)": "91dd36c6",
    "_setImplementationSafe(address,bool,bytes)": "50d85b73",
    "_setInterestRateModel(address)": "f2b3abbd",
    "_setNameAndSymbol(string,string)": "34154d4c",
    "_setReserveFactor(uint256)": "fca7820b",
    "_updatePlugin(address)": "19f496c8",
    "_withdrawAdminFees(uint256)": "a7b820df",
    "_withdrawFuseFees(uint256)": "a03dce8d",
    "accrualBlockNumber()": "6c540baf",
    "accrueInterest()": "a6afed95",
    "adminFeeMantissa()": "8d02d9a1",
    "allowance(address,address)": "dd62ed3e",
    "approve(address,uint256)": "095ea7b3",
    "balanceOf(address)": "70a08231",
    "balanceOfUnderlying(address)": "3af9e669",
    "borrow(uint256)": "c5ebeaec",
    "borrowBalanceCurrent(address)": "17bfdfbc",
    "borrowBalanceStored(address)": "95dd9193",
    "borrowIndex()": "aa5af0fd",
    "borrowRatePerBlock()": "f8f9da28",
    "comptroller()": "5fe3b567",
    "decimals()": "313ce567",
    "exchangeRateCurrent()": "bd6d894d",
    "exchangeRateStored()": "182df0f5",
    "feeSeizeShareMantissa()": "be99f119",
    "fuseAdmin()": "15761d51",
    "fuseFeeMantissa()": "dbfe7c19",
    "getAccountSnapshot(address)": "c37f68e2",
    "getCash()": "3b1d21a2",
    "implementation()": "5c60da1b",
    "initialize(address,address,address,address,string,string,uint256,uint256)": "06db3ecd",
    "initialize(address,address,address,uint256,string,string,uint8,uint256,uint256)": "219ef65c",
    "interestRateModel()": "f3fdb15a",
    "isCEther()": "ac784ddc",
    "isCToken()": "fe9c44ae",
    "liquidateBorrow(address,uint256,address)": "f5e3c462",
    "mint(uint256)": "a0712d68",
    "name()": "06fdde03",
    "plugin()": "ef01df4f",
    "protocolSeizeShareMantissa()": "6752e702",
    "redeem(uint256)": "db006a75",
    "redeemUnderlying(uint256)": "852a12e3",
    "repayBorrow(uint256)": "0e752702",
    "repayBorrowBehalf(address,uint256)": "2608f818",
    "reserveFactorMantissa()": "173b9904",
    "seize(address,address,uint256)": "b2a02ff1",
    "supplyRatePerBlock()": "ae9d70b0",
    "symbol()": "95d89b41",
    "totalAdminFees()": "61feacff",
    "totalBorrows()": "47bd3718",
    "totalBorrowsCurrent()": "73acee98",
    "totalFuseFees()": "dc028ab1",
    "totalReserves()": "8f840ddd",
    "totalSupply()": "18160ddd",
    "transfer(address,uint256)": "a9059cbb",
    "transferFrom(address,address,uint256)": "23b872dd",
    "underlying()": "6f307dc3"
  }
}