{
  "address": "0xdE906c4d3204c493B0279022a837DaE40c51F6Cd",
  "abi": [
    {
      "inputs": [],
      "stateMutability": "nonpayable",
      "type": "constructor"
    },
    {
      "anonymous": false,
      "inputs": [
        {
          "indexed": false,
          "internalType": "uint256",
          "name": "cashPrior",
          "type": "uint256"
        },
        {
          "indexed": false,
          "internalType": "uint256",
          "name": "interestAccumulated",
          "type": "uint256"
        },
        {
          "indexed": false,
          "internalType": "uint256",
          "name": "borrowIndex",
          "type": "uint256"
        },
        {
          "indexed": false,
          "internalType": "uint256",
          "name": "totalBorrows",
          "type": "uint256"
        }
      ],
      "name": "AccrueInterest",
      "type": "event"
    },
    {
      "anonymous": false,
      "inputs": [
        {
          "indexed": true,
          "internalType": "address",
          "name": "owner",
          "type": "address"
        },
        {
          "indexed": true,
          "internalType": "address",
          "name": "spender",
          "type": "address"
        },
        {
          "indexed": false,
          "internalType": "uint256",
          "name": "amount",
          "type": "uint256"
        }
      ],
      "name": "Approval",
      "type": "event"
    },
    {
      "anonymous": false,
      "inputs": [
        {
          "indexed": false,
          "internalType": "address",
          "name": "borrower",
          "type": "address"
        },
        {
          "indexed": false,
          "internalType": "uint256",
          "name": "borrowAmount",
          "type": "uint256"
        },
        {
          "indexed": false,
          "internalType": "uint256",
          "name": "accountBorrows",
          "type": "uint256"
        },
        {
          "indexed": false,
          "internalType": "uint256",
          "name": "totalBorrows",
          "type": "uint256"
        }
      ],
      "name": "Borrow",
      "type": "event"
    },
    {
      "anonymous": false,
      "inputs": [
        {
          "indexed": false,
          "internalType": "uint256",
          "name": "error",
          "type": "uint256"
        },
        {
          "indexed": false,
          "internalType": "uint256",
          "name": "info",
          "type": "uint256"
        },
        {
          "indexed": false,
          "internalType": "uint256",
          "name": "detail",
          "type": "uint256"
        }
      ],
      "name": "Failure",
      "type": "event"
    },
    {
      "anonymous": false,
      "inputs": [
        {
          "indexed": false,
          "internalType": "address",
          "name": "liquidator",
          "type": "address"
        },
        {
          "indexed": false,
          "internalType": "address",
          "name": "borrower",
          "type": "address"
        },
        {
          "indexed": false,
          "internalType": "uint256",
          "name": "repayAmount",
          "type": "uint256"
        },
        {
          "indexed": false,
          "internalType": "address",
          "name": "cTokenCollateral",
          "type": "address"
        },
        {
          "indexed": false,
          "internalType": "uint256",
          "name": "seizeTokens",
          "type": "uint256"
        }
      ],
      "name": "LiquidateBorrow",
      "type": "event"
    },
    {
      "anonymous": false,
      "inputs": [
        {
          "indexed": false,
          "internalType": "address",
          "name": "minter",
          "type": "address"
        },
        {
          "indexed": false,
          "internalType": "uint256",
          "name": "mintAmount",
          "type": "uint256"
        },
        {
          "indexed": false,
          "internalType": "uint256",
          "name": "mintTokens",
          "type": "uint256"
        }
      ],
      "name": "Mint",
      "type": "event"
    },
    {
      "anonymous": false,
      "inputs": [
        {
          "indexed": false,
          "internalType": "uint256",
          "name": "oldAdminFeeMantissa",
          "type": "uint256"
        },
        {
          "indexed": false,
          "internalType": "uint256",
          "name": "newAdminFeeMantissa",
          "type": "uint256"
        }
      ],
      "name": "NewAdminFee",
      "type": "event"
    },
    {
      "anonymous": false,
      "inputs": [
        {
          "indexed": false,
          "internalType": "contract ComptrollerInterface",
          "name": "oldComptroller",
          "type": "address"
        },
        {
          "indexed": false,
          "internalType": "contract ComptrollerInterface",
          "name": "newComptroller",
          "type": "address"
        }
      ],
      "name": "NewComptroller",
      "type": "event"
    },
    {
      "anonymous": false,
      "inputs": [
        {
          "indexed": false,
          "internalType": "uint256",
          "name": "oldFuseFeeMantissa",
          "type": "uint256"
        },
        {
          "indexed": false,
          "internalType": "uint256",
          "name": "newFuseFeeMantissa",
          "type": "uint256"
        }
      ],
      "name": "NewFuseFee",
      "type": "event"
    },
    {
      "anonymous": false,
      "inputs": [
        {
          "indexed": false,
          "internalType": "address",
          "name": "oldImplementation",
          "type": "address"
        },
        {
          "indexed": false,
          "internalType": "address",
          "name": "newImplementation",
          "type": "address"
        }
      ],
      "name": "NewImplementation",
      "type": "event"
    },
    {
      "anonymous": false,
      "inputs": [
        {
          "indexed": false,
          "internalType": "contract InterestRateModel",
          "name": "oldInterestRateModel",
          "type": "address"
        },
        {
          "indexed": false,
          "internalType": "contract InterestRateModel",
          "name": "newInterestRateModel",
          "type": "address"
        }
      ],
      "name": "NewMarketInterestRateModel",
      "type": "event"
    },
    {
      "anonymous": false,
      "inputs": [
        {
          "indexed": false,
          "internalType": "uint256",
          "name": "oldReserveFactorMantissa",
          "type": "uint256"
        },
        {
          "indexed": false,
          "internalType": "uint256",
          "name": "newReserveFactorMantissa",
          "type": "uint256"
        }
      ],
      "name": "NewReserveFactor",
      "type": "event"
    },
    {
      "anonymous": false,
      "inputs": [
        {
          "indexed": false,
          "internalType": "address",
          "name": "redeemer",
          "type": "address"
        },
        {
          "indexed": false,
          "internalType": "uint256",
          "name": "redeemAmount",
          "type": "uint256"
        },
        {
          "indexed": false,
          "internalType": "uint256",
          "name": "redeemTokens",
          "type": "uint256"
        }
      ],
      "name": "Redeem",
      "type": "event"
    },
    {
      "anonymous": false,
      "inputs": [
        {
          "indexed": false,
          "internalType": "address",
          "name": "payer",
          "type": "address"
        },
        {
          "indexed": false,
          "internalType": "address",
          "name": "borrower",
          "type": "address"
        },
        {
          "indexed": false,
          "internalType": "uint256",
          "name": "repayAmount",
          "type": "uint256"
        },
        {
          "indexed": false,
          "internalType": "uint256",
          "name": "accountBorrows",
          "type": "uint256"
        },
        {
          "indexed": false,
          "internalType": "uint256",
          "name": "totalBorrows",
          "type": "uint256"
        }
      ],
      "name": "RepayBorrow",
      "type": "event"
    },
    {
      "anonymous": false,
      "inputs": [
        {
          "indexed": false,
          "internalType": "address",
          "name": "benefactor",
          "type": "address"
        },
        {
          "indexed": false,
          "internalType": "uint256",
          "name": "addAmount",
          "type": "uint256"
        },
        {
          "indexed": false,
          "internalType": "uint256",
          "name": "newTotalReserves",
          "type": "uint256"
        }
      ],
      "name": "ReservesAdded",
      "type": "event"
    },
    {
      "anonymous": false,
      "inputs": [
        {
          "indexed": false,
          "internalType": "address",
          "name": "admin",
          "type": "address"
        },
        {
          "indexed": false,
          "internalType": "uint256",
          "name": "reduceAmount",
          "type": "uint256"
        },
        {
          "indexed": false,
          "internalType": "uint256",
          "name": "newTotalReserves",
          "type": "uint256"
        }
      ],
      "name": "ReservesReduced",
      "type": "event"
    },
    {
      "anonymous": false,
      "inputs": [
        {
          "indexed": true,
          "internalType": "address",
          "name": "from",
          "type": "address"
        },
        {
          "indexed": true,
          "internalType": "address",
          "name": "to",
          "type": "address"
        },
        {
          "indexed": false,
          "internalType": "uint256",
          "name": "amount",
          "type": "uint256"
        }
      ],
      "name": "Transfer",
      "type": "event"
    },
    {
      "inputs": [
        {
          "internalType": "bytes",
          "name": "data",
          "type": "bytes"
        }
      ],
      "name": "_becomeImplementation",
      "outputs": [],
      "stateMutability": "nonpayable",
      "type": "function"
    },
    {
      "inputs": [
        {
          "internalType": "address",
          "name": "compLikeDelegatee",
          "type": "address"
        }
      ],
      "name": "_delegateCompLikeTo",
      "outputs": [],
      "stateMutability": "nonpayable",
      "type": "function"
    },
    {
      "inputs": [],
      "name": "_prepare",
      "outputs": [],
      "stateMutability": "payable",
      "type": "function"
    },
    {
      "inputs": [
        {
          "internalType": "uint256",
          "name": "reduceAmount",
          "type": "uint256"
        }
      ],
      "name": "_reduceReserves",
      "outputs": [
        {
          "internalType": "uint256",
          "name": "",
          "type": "uint256"
        }
      ],
      "stateMutability": "nonpayable",
      "type": "function"
    },
    {
      "inputs": [
        {
          "internalType": "uint256",
          "name": "newAdminFeeMantissa",
          "type": "uint256"
        }
      ],
      "name": "_setAdminFee",
      "outputs": [
        {
          "internalType": "uint256",
          "name": "",
          "type": "uint256"
        }
      ],
      "stateMutability": "nonpayable",
      "type": "function"
    },
    {
      "inputs": [
        {
          "internalType": "address",
          "name": "implementation_",
          "type": "address"
        },
        {
          "internalType": "bool",
          "name": "allowResign",
          "type": "bool"
        },
        {
          "internalType": "bytes",
          "name": "becomeImplementationData",
          "type": "bytes"
        }
      ],
      "name": "_setImplementationSafe",
      "outputs": [],
      "stateMutability": "nonpayable",
      "type": "function"
    },
    {
      "inputs": [
        {
          "internalType": "contract InterestRateModel",
          "name": "newInterestRateModel",
          "type": "address"
        }
      ],
      "name": "_setInterestRateModel",
      "outputs": [
        {
          "internalType": "uint256",
          "name": "",
          "type": "uint256"
        }
      ],
      "stateMutability": "nonpayable",
      "type": "function"
    },
    {
      "inputs": [
        {
          "internalType": "string",
          "name": "_name",
          "type": "string"
        },
        {
          "internalType": "string",
          "name": "_symbol",
          "type": "string"
        }
      ],
      "name": "_setNameAndSymbol",
      "outputs": [],
      "stateMutability": "nonpayable",
      "type": "function"
    },
    {
      "inputs": [
        {
          "internalType": "uint256",
          "name": "newReserveFactorMantissa",
          "type": "uint256"
        }
      ],
      "name": "_setReserveFactor",
      "outputs": [
        {
          "internalType": "uint256",
          "name": "",
          "type": "uint256"
        }
      ],
      "stateMutability": "nonpayable",
      "type": "function"
    },
    {
      "inputs": [
        {
          "internalType": "uint256",
          "name": "withdrawAmount",
          "type": "uint256"
        }
      ],
      "name": "_withdrawAdminFees",
      "outputs": [
        {
          "internalType": "uint256",
          "name": "",
          "type": "uint256"
        }
      ],
      "stateMutability": "nonpayable",
      "type": "function"
    },
    {
      "inputs": [
        {
          "internalType": "uint256",
          "name": "withdrawAmount",
          "type": "uint256"
        }
      ],
      "name": "_withdrawFuseFees",
      "outputs": [
        {
          "internalType": "uint256",
          "name": "",
          "type": "uint256"
        }
      ],
      "stateMutability": "nonpayable",
      "type": "function"
    },
    {
      "inputs": [],
      "name": "accrualBlockNumber",
      "outputs": [
        {
          "internalType": "uint256",
          "name": "",
          "type": "uint256"
        }
      ],
      "stateMutability": "view",
      "type": "function"
    },
    {
      "inputs": [],
      "name": "accrueInterest",
      "outputs": [
        {
          "internalType": "uint256",
          "name": "",
          "type": "uint256"
        }
      ],
      "stateMutability": "nonpayable",
      "type": "function"
    },
    {
      "inputs": [],
      "name": "adminFeeMantissa",
      "outputs": [
        {
          "internalType": "uint256",
          "name": "",
          "type": "uint256"
        }
      ],
      "stateMutability": "view",
      "type": "function"
    },
    {
      "inputs": [
        {
          "internalType": "address",
          "name": "owner",
          "type": "address"
        },
        {
          "internalType": "address",
          "name": "spender",
          "type": "address"
        }
      ],
      "name": "allowance",
      "outputs": [
        {
          "internalType": "uint256",
          "name": "",
          "type": "uint256"
        }
      ],
      "stateMutability": "view",
      "type": "function"
    },
    {
      "inputs": [
        {
          "internalType": "address",
          "name": "spender",
          "type": "address"
        },
        {
          "internalType": "uint256",
          "name": "amount",
          "type": "uint256"
        }
      ],
      "name": "approve",
      "outputs": [
        {
          "internalType": "bool",
          "name": "",
          "type": "bool"
        }
      ],
      "stateMutability": "nonpayable",
      "type": "function"
    },
    {
      "inputs": [
        {
          "internalType": "address",
          "name": "owner",
          "type": "address"
        }
      ],
      "name": "balanceOf",
      "outputs": [
        {
          "internalType": "uint256",
          "name": "",
          "type": "uint256"
        }
      ],
      "stateMutability": "view",
      "type": "function"
    },
    {
      "inputs": [
        {
          "internalType": "address",
          "name": "owner",
          "type": "address"
        }
      ],
      "name": "balanceOfUnderlying",
      "outputs": [
        {
          "internalType": "uint256",
          "name": "",
          "type": "uint256"
        }
      ],
      "stateMutability": "nonpayable",
      "type": "function"
    },
    {
      "inputs": [
        {
          "internalType": "uint256",
          "name": "borrowAmount",
          "type": "uint256"
        }
      ],
      "name": "borrow",
      "outputs": [
        {
          "internalType": "uint256",
          "name": "",
          "type": "uint256"
        }
      ],
      "stateMutability": "nonpayable",
      "type": "function"
    },
    {
      "inputs": [
        {
          "internalType": "address",
          "name": "account",
          "type": "address"
        }
      ],
      "name": "borrowBalanceCurrent",
      "outputs": [
        {
          "internalType": "uint256",
          "name": "",
          "type": "uint256"
        }
      ],
      "stateMutability": "nonpayable",
      "type": "function"
    },
    {
      "inputs": [
        {
          "internalType": "address",
          "name": "account",
          "type": "address"
        }
      ],
      "name": "borrowBalanceStored",
      "outputs": [
        {
          "internalType": "uint256",
          "name": "",
          "type": "uint256"
        }
      ],
      "stateMutability": "view",
      "type": "function"
    },
    {
      "inputs": [],
      "name": "borrowIndex",
      "outputs": [
        {
          "internalType": "uint256",
          "name": "",
          "type": "uint256"
        }
      ],
      "stateMutability": "view",
      "type": "function"
    },
    {
      "inputs": [],
      "name": "borrowRatePerBlock",
      "outputs": [
        {
          "internalType": "uint256",
          "name": "",
          "type": "uint256"
        }
      ],
      "stateMutability": "view",
      "type": "function"
    },
    {
      "inputs": [],
      "name": "comptroller",
      "outputs": [
        {
          "internalType": "contract ComptrollerInterface",
          "name": "",
          "type": "address"
        }
      ],
      "stateMutability": "view",
      "type": "function"
    },
    {
      "inputs": [],
      "name": "decimals",
      "outputs": [
        {
          "internalType": "uint8",
          "name": "",
          "type": "uint8"
        }
      ],
      "stateMutability": "view",
      "type": "function"
    },
    {
      "inputs": [],
      "name": "exchangeRateCurrent",
      "outputs": [
        {
          "internalType": "uint256",
          "name": "",
          "type": "uint256"
        }
      ],
      "stateMutability": "nonpayable",
      "type": "function"
    },
    {
      "inputs": [],
      "name": "exchangeRateStored",
      "outputs": [
        {
          "internalType": "uint256",
          "name": "",
          "type": "uint256"
        }
      ],
      "stateMutability": "view",
      "type": "function"
    },
    {
      "inputs": [],
      "name": "feeSeizeShareMantissa",
      "outputs": [
        {
          "internalType": "uint256",
          "name": "",
          "type": "uint256"
        }
      ],
      "stateMutability": "view",
      "type": "function"
    },
    {
      "inputs": [],
      "name": "fuseAdmin",
      "outputs": [
        {
          "internalType": "address payable",
          "name": "",
          "type": "address"
        }
      ],
      "stateMutability": "view",
      "type": "function"
    },
    {
      "inputs": [],
      "name": "fuseFeeMantissa",
      "outputs": [
        {
          "internalType": "uint256",
          "name": "",
          "type": "uint256"
        }
      ],
      "stateMutability": "view",
      "type": "function"
    },
    {
      "inputs": [
        {
          "internalType": "address",
          "name": "account",
          "type": "address"
        }
      ],
      "name": "getAccountSnapshot",
      "outputs": [
        {
          "internalType": "uint256",
          "name": "",
          "type": "uint256"
        },
        {
          "internalType": "uint256",
          "name": "",
          "type": "uint256"
        },
        {
          "internalType": "uint256",
          "name": "",
          "type": "uint256"
        },
        {
          "internalType": "uint256",
          "name": "",
          "type": "uint256"
        }
      ],
      "stateMutability": "view",
      "type": "function"
    },
    {
      "inputs": [],
      "name": "getCash",
      "outputs": [
        {
          "internalType": "uint256",
          "name": "",
          "type": "uint256"
        }
      ],
      "stateMutability": "view",
      "type": "function"
    },
    {
      "inputs": [],
      "name": "implementation",
      "outputs": [
        {
          "internalType": "address",
          "name": "",
          "type": "address"
        }
      ],
      "stateMutability": "view",
      "type": "function"
    },
    {
      "inputs": [
        {
          "internalType": "address",
          "name": "underlying_",
          "type": "address"
        },
        {
          "internalType": "contract ComptrollerInterface",
          "name": "comptroller_",
          "type": "address"
        },
        {
          "internalType": "address payable",
          "name": "fuseAdmin_",
          "type": "address"
        },
        {
          "internalType": "contract InterestRateModel",
          "name": "interestRateModel_",
          "type": "address"
        },
        {
          "internalType": "string",
          "name": "name_",
          "type": "string"
        },
        {
          "internalType": "string",
          "name": "symbol_",
          "type": "string"
        },
        {
          "internalType": "uint256",
          "name": "reserveFactorMantissa_",
          "type": "uint256"
        },
        {
          "internalType": "uint256",
          "name": "adminFeeMantissa_",
          "type": "uint256"
        }
      ],
      "name": "initialize",
      "outputs": [],
      "stateMutability": "nonpayable",
      "type": "function"
    },
    {
      "inputs": [
        {
          "internalType": "contract ComptrollerInterface",
          "name": "comptroller_",
          "type": "address"
        },
        {
          "internalType": "address payable",
          "name": "fuseAdmin_",
          "type": "address"
        },
        {
          "internalType": "contract InterestRateModel",
          "name": "interestRateModel_",
          "type": "address"
        },
        {
          "internalType": "uint256",
          "name": "initialExchangeRateMantissa_",
          "type": "uint256"
        },
        {
          "internalType": "string",
          "name": "name_",
          "type": "string"
        },
        {
          "internalType": "string",
          "name": "symbol_",
          "type": "string"
        },
        {
          "internalType": "uint8",
          "name": "decimals_",
          "type": "uint8"
        },
        {
          "internalType": "uint256",
          "name": "reserveFactorMantissa_",
          "type": "uint256"
        },
        {
          "internalType": "uint256",
          "name": "adminFeeMantissa_",
          "type": "uint256"
        }
      ],
      "name": "initialize",
      "outputs": [],
      "stateMutability": "nonpayable",
      "type": "function"
    },
    {
      "inputs": [],
      "name": "interestRateModel",
      "outputs": [
        {
          "internalType": "contract InterestRateModel",
          "name": "",
          "type": "address"
        }
      ],
      "stateMutability": "view",
      "type": "function"
    },
    {
      "inputs": [],
      "name": "isCEther",
      "outputs": [
        {
          "internalType": "bool",
          "name": "",
          "type": "bool"
        }
      ],
      "stateMutability": "nonpayable",
      "type": "function"
    },
    {
      "inputs": [],
      "name": "isCToken",
      "outputs": [
        {
          "internalType": "bool",
          "name": "",
          "type": "bool"
        }
      ],
      "stateMutability": "nonpayable",
      "type": "function"
    },
    {
      "inputs": [
        {
          "internalType": "address",
          "name": "borrower",
          "type": "address"
        },
        {
          "internalType": "uint256",
          "name": "repayAmount",
          "type": "uint256"
        },
        {
          "internalType": "contract CTokenInterface",
          "name": "cTokenCollateral",
          "type": "address"
        }
      ],
      "name": "liquidateBorrow",
      "outputs": [
        {
          "internalType": "uint256",
          "name": "",
          "type": "uint256"
        }
      ],
      "stateMutability": "nonpayable",
      "type": "function"
    },
    {
      "inputs": [
        {
          "internalType": "uint256",
          "name": "mintAmount",
          "type": "uint256"
        }
      ],
      "name": "mint",
      "outputs": [
        {
          "internalType": "uint256",
          "name": "",
          "type": "uint256"
        }
      ],
      "stateMutability": "nonpayable",
      "type": "function"
    },
    {
      "inputs": [],
      "name": "name",
      "outputs": [
        {
          "internalType": "string",
          "name": "",
          "type": "string"
        }
      ],
      "stateMutability": "view",
      "type": "function"
    },
    {
      "inputs": [],
      "name": "protocolSeizeShareMantissa",
      "outputs": [
        {
          "internalType": "uint256",
          "name": "",
          "type": "uint256"
        }
      ],
      "stateMutability": "view",
      "type": "function"
    },
    {
      "inputs": [
        {
          "internalType": "uint256",
          "name": "redeemTokens",
          "type": "uint256"
        }
      ],
      "name": "redeem",
      "outputs": [
        {
          "internalType": "uint256",
          "name": "",
          "type": "uint256"
        }
      ],
      "stateMutability": "nonpayable",
      "type": "function"
    },
    {
      "inputs": [
        {
          "internalType": "uint256",
          "name": "redeemAmount",
          "type": "uint256"
        }
      ],
      "name": "redeemUnderlying",
      "outputs": [
        {
          "internalType": "uint256",
          "name": "",
          "type": "uint256"
        }
      ],
      "stateMutability": "nonpayable",
      "type": "function"
    },
    {
      "inputs": [
        {
          "internalType": "uint256",
          "name": "repayAmount",
          "type": "uint256"
        }
      ],
      "name": "repayBorrow",
      "outputs": [
        {
          "internalType": "uint256",
          "name": "",
          "type": "uint256"
        }
      ],
      "stateMutability": "nonpayable",
      "type": "function"
    },
    {
      "inputs": [
        {
          "internalType": "address",
          "name": "borrower",
          "type": "address"
        },
        {
          "internalType": "uint256",
          "name": "repayAmount",
          "type": "uint256"
        }
      ],
      "name": "repayBorrowBehalf",
      "outputs": [
        {
          "internalType": "uint256",
          "name": "",
          "type": "uint256"
        }
      ],
      "stateMutability": "nonpayable",
      "type": "function"
    },
    {
      "inputs": [],
      "name": "reserveFactorMantissa",
      "outputs": [
        {
          "internalType": "uint256",
          "name": "",
          "type": "uint256"
        }
      ],
      "stateMutability": "view",
      "type": "function"
    },
    {
      "inputs": [
        {
          "internalType": "address",
          "name": "liquidator",
          "type": "address"
        },
        {
          "internalType": "address",
          "name": "borrower",
          "type": "address"
        },
        {
          "internalType": "uint256",
          "name": "seizeTokens",
          "type": "uint256"
        }
      ],
      "name": "seize",
      "outputs": [
        {
          "internalType": "uint256",
          "name": "",
          "type": "uint256"
        }
      ],
      "stateMutability": "nonpayable",
      "type": "function"
    },
    {
      "inputs": [],
      "name": "supplyRatePerBlock",
      "outputs": [
        {
          "internalType": "uint256",
          "name": "",
          "type": "uint256"
        }
      ],
      "stateMutability": "view",
      "type": "function"
    },
    {
      "inputs": [],
      "name": "symbol",
      "outputs": [
        {
          "internalType": "string",
          "name": "",
          "type": "string"
        }
      ],
      "stateMutability": "view",
      "type": "function"
    },
    {
      "inputs": [],
      "name": "totalAdminFees",
      "outputs": [
        {
          "internalType": "uint256",
          "name": "",
          "type": "uint256"
        }
      ],
      "stateMutability": "view",
      "type": "function"
    },
    {
      "inputs": [],
      "name": "totalBorrows",
      "outputs": [
        {
          "internalType": "uint256",
          "name": "",
          "type": "uint256"
        }
      ],
      "stateMutability": "view",
      "type": "function"
    },
    {
      "inputs": [],
      "name": "totalBorrowsCurrent",
      "outputs": [
        {
          "internalType": "uint256",
          "name": "",
          "type": "uint256"
        }
      ],
      "stateMutability": "nonpayable",
      "type": "function"
    },
    {
      "inputs": [],
      "name": "totalFuseFees",
      "outputs": [
        {
          "internalType": "uint256",
          "name": "",
          "type": "uint256"
        }
      ],
      "stateMutability": "view",
      "type": "function"
    },
    {
      "inputs": [],
      "name": "totalReserves",
      "outputs": [
        {
          "internalType": "uint256",
          "name": "",
          "type": "uint256"
        }
      ],
      "stateMutability": "view",
      "type": "function"
    },
    {
      "inputs": [],
      "name": "totalSupply",
      "outputs": [
        {
          "internalType": "uint256",
          "name": "",
          "type": "uint256"
        }
      ],
      "stateMutability": "view",
      "type": "function"
    },
    {
      "inputs": [
        {
          "internalType": "address",
          "name": "dst",
          "type": "address"
        },
        {
          "internalType": "uint256",
          "name": "amount",
          "type": "uint256"
        }
      ],
      "name": "transfer",
      "outputs": [
        {
          "internalType": "bool",
          "name": "",
          "type": "bool"
        }
      ],
      "stateMutability": "nonpayable",
      "type": "function"
    },
    {
      "inputs": [
        {
          "internalType": "address",
          "name": "src",
          "type": "address"
        },
        {
          "internalType": "address",
          "name": "dst",
          "type": "address"
        },
        {
          "internalType": "uint256",
          "name": "amount",
          "type": "uint256"
        }
      ],
      "name": "transferFrom",
      "outputs": [
        {
          "internalType": "bool",
          "name": "",
          "type": "bool"
        }
      ],
      "stateMutability": "nonpayable",
      "type": "function"
    },
    {
      "inputs": [],
      "name": "underlying",
      "outputs": [
        {
          "internalType": "address",
          "name": "",
          "type": "address"
        }
      ],
      "stateMutability": "view",
      "type": "function"
    }
  ],
  "transactionHash": "0xfa68e28c170945712a566ef1250e9cde0c8534a911e577b1abb77f2c597c8bec",
  "args": [],
  "numDeployments": 9,
  "bytecode": {
    "object": "0x608060405234801561001057600080fd5b50615c9680620000216000396000f3fe60806040526004361061038c5760003560e01c80637f1e06be116101dc578063b2a02ff111610102578063dc028ab1116100a0578063f5e3c4621161006f578063f5e3c46214610a3e578063f8f9da2814610a5e578063fca7820b14610a73578063fe9c44ae14610a9357600080fd5b8063dc028ab1146109a2578063dd62ed3e146109b8578063f2b3abbd146109fe578063f3fdb15a14610a1e57600080fd5b8063c37f68e2116100dc578063c37f68e21461090c578063c5ebeaec1461094c578063db006a751461096c578063dbfe7c191461098c57600080fd5b8063b2a02ff1146108bb578063bd6d894d146108db578063be99f119146108f057600080fd5b8063a03dce8d1161017a578063a9059cbb11610149578063a9059cbb1461085c578063aa5af0fd1461087c578063ac784ddc14610892578063ae9d70b0146108a657600080fd5b8063a03dce8d146107e7578063a0712d6814610807578063a6afed9514610827578063a7b820df1461083c57600080fd5b80638f840ddd116101b65780638f840ddd1461077c57806391dd36c61461079257806395d89b41146107b257806395dd9193146107c757600080fd5b80637f1e06be14610726578063852a12e3146107465780638d02d9a11461076657600080fd5b806334154d4c116102c15780635fe3b5671161025f5780636c540baf1161022e5780636c540baf146106a55780636f307dc3146106bb57806370a08231146106db57806373acee981461071157600080fd5b80635fe3b56714610634578063601a0bf11461065457806361feacff146106745780636752e7021461068a57600080fd5b806347bd37181161029b57806347bd3718146105be57806350d85b73146105d457806356e67728146105f45780635c60da1b1461061457600080fd5b806334154d4c146105695780633af9e669146105895780633b1d21a2146105a957600080fd5b806318160ddd1161032e578063219ef65c11610308578063219ef65c146104dd57806323b872dd146104fd5780632608f8181461051d578063313ce5671461053d57600080fd5b806318160ddd146104aa578063182df0f5146104c05780631db78944146104d557600080fd5b80630e7527021161036a5780630e7527021461040e57806315761d511461043c578063173b99041461047457806317bfdfbc1461048a57600080fd5b806306db3ecd1461039157806306fdde03146103b3578063095ea7b3146103de575b600080fd5b34801561039d57600080fd5b506103b16103ac36600461554f565b610aa7565b005b3480156103bf57600080fd5b506103c8610bb5565b6040516103d59190615669565b60405180910390f35b3480156103ea57600080fd5b506103fe6103f936600461567c565b610c43565b60405190151581526020016103d5565b34801561041a57600080fd5b5061042e6104293660046156a8565b610cb3565b6040519081526020016103d5565b34801561044857600080fd5b5060015461045c906001600160a01b031681565b6040516001600160a01b0390911681526020016103d5565b34801561048057600080fd5b5061042e600b5481565b34801561049657600080fd5b5061042e6104a53660046156c1565b610cc7565b3480156104b657600080fd5b5061042e60125481565b3480156104cc57600080fd5b5061042e610d1e565b6103b1610daf565b3480156104e957600080fd5b506103b16104f83660046156f8565b610ee0565b34801561050957600080fd5b506103fe6105183660046157c0565b61120f565b34801561052957600080fd5b5061042e61053836600461567c565b611235565b34801561054957600080fd5b506005546105579060ff1681565b60405160ff90911681526020016103d5565b34801561057557600080fd5b506103b1610584366004615843565b61124b565b34801561059557600080fd5b5061042e6105a43660046156c1565b6112b2565b3480156105b557600080fd5b5061042e611362565b3480156105ca57600080fd5b5061042e600e5481565b3480156105e057600080fd5b506103b16105ef3660046158bd565b611371565b34801561060057600080fd5b506103b161060f366004615916565b6113f5565b34801561062057600080fd5b5060005461045c906001600160a01b031681565b34801561064057600080fd5b5060065461045c906001600160a01b031681565b34801561066057600080fd5b5061042e61066f3660046156a8565b61144e565b34801561068057600080fd5b5061042e60105481565b34801561069657600080fd5b5061042e666379da05b6000081565b3480156106b157600080fd5b5061042e600c5481565b3480156106c757600080fd5b5060165461045c906001600160a01b031681565b3480156106e757600080fd5b5061042e6106f63660046156c1565b6001600160a01b031660009081526013602052604090205490565b34801561071d57600080fd5b5061042e6114a5565b34801561073257600080fd5b506103b16107413660046156c1565b6114d4565b34801561075257600080fd5b5061042e6107613660046156a8565b611599565b34801561077257600080fd5b5061042e60095481565b34801561078857600080fd5b5061042e600f5481565b34801561079e57600080fd5b5061042e6107ad3660046156a8565b6115a4565b3480156107be57600080fd5b506103c86115e7565b3480156107d357600080fd5b5061042e6107e23660046156c1565b6115f4565b3480156107f357600080fd5b5061042e6108023660046156a8565b611695565b34801561081357600080fd5b5061042e6108223660046156a8565b6116d8565b34801561083357600080fd5b5061042e6116e4565b34801561084857600080fd5b5061042e6108573660046156a8565b61189b565b34801561086857600080fd5b506103fe61087736600461567c565b6118de565b34801561088857600080fd5b5061042e600d5481565b34801561089e57600080fd5b5060006103fe565b3480156108b257600080fd5b5061042e61190b565b3480156108c757600080fd5b5061042e6108d63660046157c0565b6119ce565b3480156108e757600080fd5b5061042e6119f2565b3480156108fc57600080fd5b5061042e67016345785d8a000081565b34801561091857600080fd5b5061092c6109273660046156c1565b611a3c565b6040805194855260208501939093529183015260608201526080016103d5565b34801561095857600080fd5b5061042e6109673660046156a8565b611add565b34801561097857600080fd5b5061042e6109873660046156a8565b611ae8565b34801561099857600080fd5b5061042e600a5481565b3480156109ae57600080fd5b5061042e60115481565b3480156109c457600080fd5b5061042e6109d3366004615958565b6001600160a01b03918216600090815260146020908152604080832093909416825291909152205490565b348015610a0a57600080fd5b5061042e610a193660046156c1565b611af3565b348015610a2a57600080fd5b5060075461045c906001600160a01b031681565b348015610a4a57600080fd5b5061042e610a59366004615991565b611b2b565b348015610a6a57600080fd5b5061042e611b43565b348015610a7f57600080fd5b5061042e610a8e3660046156a8565b611ba7565b348015610a9f57600080fd5b5060016103fe565b60006702c68af0bb14000090506000896001600160a01b031663313ce5676040518163ffffffff1660e01b8152600401602060405180830381865afa158015610af4573d6000803e3d6000fd5b505050506040513d601f19601f82011682018060405250810190610b1891906159d3565b9050610b2b898989858a8a878b8b610ee0565b601680546001600160a01b0319166001600160a01b038c16908117909155604080516318160ddd60e01b815290516318160ddd916004808201926020929091908290030181865afa158015610b84573d6000803e3d6000fd5b505050506040513d601f19601f82011682018060405250810190610ba891906159f0565b5050505050505050505050565b60038054610bc290615a09565b80601f0160208091040260200160405190810160405280929190818152602001828054610bee90615a09565b8015610c3b5780601f10610c1057610100808354040283529160200191610c3b565b820191906000526020600020905b815481529060010190602001808311610c1e57829003601f168201915b505050505081565b3360008181526014602090815260408083206001600160a01b03871680855292528083208590555191929182907f8c5be1e5ebec7d5bd14f71427d1e84f3dd0314c0f7b2291e5b200ac8c7c3b92590610c9f9087815260200190565b60405180910390a360019150505b92915050565b600080610cbf83611bea565b509392505050565b600080610cd381611c52565b6000610cdd6116e4565b14610d035760405162461bcd60e51b8152600401610cfa90615a54565b60405180910390fd5b610d0c836115f4565b91505b610d1881611d16565b50919050565b6000806000610d2b611d81565b90925090506000826003811115610d4457610d44615a3e565b14610cad5760405162461bcd60e51b815260206004820152603560248201527f65786368616e67655261746553746f7265643a2065786368616e67655261746560448201527414dd1bdc9959125b9d195c9b985b0819985a5b1959605a1b6064820152608401610cfa565b333014801590610e315750600660009054906101000a90046001600160a01b03166001600160a01b031663dd5cd22c6040518163ffffffff1660e01b8152600401602060405180830381865afa158015610e0d573d6000803e3d6000fd5b505050506040513d601f19601f82011682018060405250810190610e319190615a84565b15610ede57600154600080546040516345cc970560e01b81526001600160a01b039182166004820152919283928392909116906345cc970590602401600060405180830381865afa158015610e8a573d6000803e3d6000fd5b505050506040513d6000823e601f3d908101601f19168201604052610eb29190810190615aa1565b60005492955090935091506001600160a01b03808516911614610eda57610eda838383611e4e565b5050505b565b336001600160a01b03891614610f4a5760405162461bcd60e51b815260206004820152602960248201527f6f6e6c7920467573652061646d696e206d617920696e697469616c697a6520746044820152681a19481b585c9ad95d60ba1b6064820152608401610cfa565b600c54158015610f5a5750600d54155b610fb25760405162461bcd60e51b815260206004820152602360248201527f6d61726b6574206d6179206f6e6c7920626520696e697469616c697a6564206f6044820152626e636560e81b6064820152608401610cfa565b600180546001600160a01b0319166001600160a01b038a161790556008869055856110385760405162461bcd60e51b815260206004820152603060248201527f696e697469616c2065786368616e67652072617465206d75737420626520677260448201526f32b0ba32b9103a3430b7103d32b9379760811b6064820152608401610cfa565b60006110438a611fd3565b905080156110935760405162461bcd60e51b815260206004820152601a60248201527f73657474696e6720636f6d7074726f6c6c6572206661696c65640000000000006044820152606401610cfa565b43600c55670de0b6b3a7640000600d556110ac886120fe565b905080156111075760405162461bcd60e51b815260206004820152602260248201527f73657474696e6720696e7465726573742072617465206d6f64656c206661696c604482015261195960f21b6064820152608401610cfa565b855161111a90600390602089019061535c565b50845161112e90600490602088019061535c565b506005805460ff191660ff86161790556111478361224c565b905080156111975760405162461bcd60e51b815260206004820152601d60248201527f73657474696e67207265736572766520666163746f72206661696c65640000006044820152606401610cfa565b6111a0826122eb565b905080156111f05760405162461bcd60e51b815260206004820152601860248201527f73657474696e672061646d696e20666565206661696c656400000000000000006044820152606401610cfa565b50506002805460ff60b01b1916600160b01b1790555050505050505050565b60008061121b81611c52565b600061122933878787612405565b149150610cbf81611d16565b60008061124284846126a3565b50949350505050565b61125361270d565b6112925760405162461bcd60e51b815260206004820152601060248201526f31b0b63632b9103737ba1030b236b4b760811b6044820152606401610cfa565b61129e600385856153dc565b506112ab600483836153dc565b5050505050565b60008060405180602001604052806112c86119f2565b90526001600160a01b0384166000908152601360205260408120549192509081906112f4908490612878565b9092509050600082600381111561130d5761130d615a3e565b1461135a5760405162461bcd60e51b815260206004820152601f60248201527f62616c616e636520636f756c64206e6f742062652063616c63756c61746564006044820152606401610cfa565b949350505050565b600061136c6128cb565b905090565b61137961270d565b6113ae5760405162461bcd60e51b815260206004820152600660248201526510b0b236b4b760d11b6044820152606401610cfa565b6113ef848484848080601f016020809104026020016040519081016040528093929190818152602001838380828437600092019190915250611e4e92505050565b50505050565b33301480611406575061140661270d565b61143a5760405162461bcd60e51b815260206004820152600560248201526410b9b2b63360d91b6044820152606401610cfa565b5050600280546001600160b01b0319169055565b60008061145a81611c52565b60006114646116e4565b905080156114905761148881601181111561148157611481615a3e565b603b61293a565b925050610d0f565b611499846129b3565b925050610d1881611d16565b6000806114b06116e4565b146114cd5760405162461bcd60e51b8152600401610cfa90615a54565b50600e5490565b6114dc61270d565b61153e5760405162461bcd60e51b815260206004820152602d60248201527f6f6e6c79207468652061646d696e206d6179207365742074686520636f6d702d60448201526c6c696b652064656c656761746560981b6064820152608401610cfa565b6016546040516317066a5760e21b81526001600160a01b03838116600483015290911690635c19a95c90602401600060405180830381600087803b15801561158557600080fd5b505af11580156112ab573d6000803e3d6000fd5b6000610cad82612a64565b6000806115b081611c52565b60006115ba6116e4565b905080156115de576114888160118111156115d7576115d7615a3e565b605261293a565b611499846122eb565b60048054610bc290615a09565b600080600061160284612aaa565b9092509050600082600381111561161b5761161b615a3e565b1461168e5760405162461bcd60e51b815260206004820152603760248201527f626f72726f7742616c616e636553746f7265643a20626f72726f7742616c616e60448201527f636553746f726564496e7465726e616c206661696c65640000000000000000006064820152608401610cfa565b9392505050565b6000806116a181611c52565b60006116ab6116e4565b905080156116cf576114888160118111156116c8576116c8615a3e565b603361293a565b61149984612b63565b600080610cbf83612bd6565b600c5460009043908114156116fc5760005b91505090565b60006117066128cb565b90506000600760009054906101000a90046001600160a01b03166001600160a01b03166315f2405383600e5461174b600f54611746601054601154612c1c565b612c1c565b6040516001600160e01b031960e086901b168152600481019390935260248301919091526044820152606401602060405180830381865afa158015611794573d6000803e3d6000fd5b505050506040513d601f19601f820116820180604052508101906117b891906159f0565b905065048c273950008111156118105760405162461bcd60e51b815260206004820152601c60248201527f626f72726f772072617465206973206162737572646c792068696768000000006044820152606401610cfa565b60008061181f85600c54612c52565b9092509050600082600381111561183857611838615a3e565b146118855760405162461bcd60e51b815260206004820152601f60248201527f636f756c64206e6f742063616c63756c61746520626c6f636b2064656c7461006044820152606401610cfa565b61189185858584612c7d565b9550505050505090565b6000806118a781611c52565b60006118b16116e4565b905080156118d5576114888160118111156118ce576118ce615a3e565b603761293a565b61149984612da9565b6000806118ea81611c52565b60006118f833338787612405565b14915061190481611d16565b5092915050565b6007546000906001600160a01b031663b81688166119276128cb565b600e5461193e600f54611746601054601154612c1c565b600954600a54600b546119519190615b57565b61195b9190615b57565b6040516001600160e01b031960e087901b16815260048101949094526024840192909252604483015260648201526084015b602060405180830381865afa1580156119aa573d6000803e3d6000fd5b505050506040513d601f19601f8201168201806040525081019061136c91906159f0565b600060016119db81611c52565b6119e733868686612e87565b9150610cbf81611d16565b6000806119fe81611c52565b6000611a086116e4565b14611a255760405162461bcd60e51b8152600401610cfa90615a54565b611a2d610d1e565b9150611a3881611d16565b5090565b6001600160a01b038116600090815260136020526040812054819081908190818080611a6789612aaa565b935090506000816003811115611a7f57611a7f615a3e565b14611a9d5760095b6000806000975097509750975050505050611ad6565b611aa5611d81565b925090506000816003811115611abd57611abd615a3e565b14611ac9576009611a87565b5060009650919450925090505b9193509193565b6000610cad82613384565b6000610cad826133c8565b600080611afe6116e4565b90508015611b225761168e816011811115611b1b57611b1b615a3e565b604b61293a565b61168e836120fe565b600080611b39858585613407565b5095945050505050565b6007546000906001600160a01b03166315f24053611b5f6128cb565b600e54611b76600f54611746601054601154612c1c565b6040516001600160e01b031960e086901b16815260048101939093526024830191909152604482015260640161198d565b600080611bb381611c52565b6000611bbd6116e4565b90508015611be157611488816011811115611bda57611bda615a3e565b605961293a565b6114998461224c565b6000806000611bf881611c52565b6000611c026116e4565b90508015611c3257611c26816011811115611c1f57611c1f615a3e565b604161293a565b60009350935050611c43565b611c3d3333876134fb565b93509350505b611c4c81611d16565b50915091565b600254600160b01b900460ff16611c985760405162461bcd60e51b815260206004820152600a6024820152691c994b595b9d195c995960b21b6044820152606401610cfa565b80611d0657600660009054906101000a90046001600160a01b03166001600160a01b031663c90c20b16040518163ffffffff1660e01b8152600401600060405180830381600087803b158015611ced57600080fd5b505af1158015611d01573d6000803e3d6000fd5b505050505b506002805460ff60b01b19169055565b6002805460ff60b01b1916600160b01b17905580611d7e57600660009054906101000a90046001600160a01b03166001600160a01b031663632e51426040518163ffffffff1660e01b8152600401600060405180830381600087803b15801561158557600080fd5b50565b601254600090819080611d9b575050600854600092909150565b6000611da56128cb565b90506000611dbf6040518060200160405280600081525090565b6000611de184600e54611ddc600f54611746601054601154612c1c565b613915565b935090506000816003811115611df957611df9615a3e565b14611e0b579660009650945050505050565b611e158386613967565b925090506000816003811115611e2d57611e2d615a3e565b14611e3f579660009650945050505050565b50516000969095509350505050565b6001546000546040516338e6a07360e11b81526001600160a01b039182166004820152858216602482015284151560448201529116906371cd40e690606401602060405180830381865afa158015611eaa573d6000803e3d6000fd5b505050506040513d601f19601f82011682018060405250810190611ece9190615a84565b611f025760405162461bcd60e51b8152602060048201526005602482015264085a5b5c1b60da1b6044820152606401610cfa565b600080546001600160a01b038581166001600160a01b0319831617909255604051911690611f85903090611f3a908590602401615669565b60408051601f19818403018152918152602080830180516001600160e01b0316630adccee560e31b17905281518083019092526007825266216265636f6d6560c81b90820152613a32565b50600054604080516001600160a01b03808516825290921660208301527fd604de94d45953f9138079ec1b82d533cb2160c906d1076d1f7ed54befbca97a910160405180910390a150505050565b600080600660009054906101000a90046001600160a01b03169050826001600160a01b0316627e3dd26040518163ffffffff1660e01b8152600401602060405180830381865afa15801561202b573d6000803e3d6000fd5b505050506040513d601f19601f8201168201806040525081019061204f9190615a84565b61209b5760405162461bcd60e51b815260206004820152601c60248201527f6d61726b6572206d6574686f642072657475726e65642066616c7365000000006044820152606401610cfa565b600680546001600160a01b0319166001600160a01b0385811691821790925560408051928416835260208301919091527f7ac369dbd14fa5ea3f473ed67cc9d598964a77501540ba6751eb0b3decf5870d91015b60405180910390a1600061168e565b60008061210961270d565b6121195761168e6001604d61293a565b43600c541461212e5761168e600a604c61293a565b600760009054906101000a90046001600160a01b03169050826001600160a01b0316632191f92a6040518163ffffffff1660e01b8152600401602060405180830381865afa158015612184573d6000803e3d6000fd5b505050506040513d601f19601f820116820180604052508101906121a89190615a84565b6121f45760405162461bcd60e51b815260206004820152601c60248201527f6d61726b6572206d6574686f642072657475726e65642066616c7365000000006044820152606401610cfa565b600780546001600160a01b0319166001600160a01b0385811691821790925560408051928416835260208301919091527fedffc32e068c7c95dfd4bdfd5c4d939a084d6b11c4199eac8436ed234d72f92691016120ef565b600061225661270d565b61226657610cad6001605a61293a565b43600c541461227b57610cad600a605b61293a565b670de0b6b3a764000061229b61229384600954612c1c565b600a54612c1c565b11156122ad57610cad6002605c61293a565b600b80549083905560408051828152602081018590527faaa68312e2ea9d50e16af5068410ab56e1a1fd06037b1a35664812c30f82146091016120ef565b600043600c541461230257610cad600a605461293a565b6000198214156123125760095491505b600061231c613ace565b9050670de0b6b3a764000061233c612336600b5486612c1c565b83612c1c565b111561234e5761168e6002605561293a565b82600954146123b25761235f61270d565b61236f5761168e6001605361293a565b600980549084905560408051828152602081018690527fcdd0b588250e1398549f79cfdb8217c186688822905d6715b0834ea1c865594a910160405180910390a1505b80600a54146123fe57600a80549082905560408051828152602081018490527f92eef861b6533b7d3417f39c2ad7b460eed4e88a32fa3604f30e718b7602e7dc910160405180910390a1505b600061168e565b6006546040516317b9b84b60e31b81523060048201526001600160a01b038581166024830152848116604483015260648201849052600092839291169063bdcdc258906084016020604051808303816000875af115801561246a573d6000803e3d6000fd5b505050506040513d601f19601f8201168201806040525081019061248e91906159f0565b905080156124ab576124a36003605d83613b18565b91505061135a565b836001600160a01b0316856001600160a01b031614156124d1576124a36002605e61293a565b6000856001600160a01b0316876001600160a01b031614156124f6575060001961251e565b506001600160a01b038086166000908152601460209081526040808320938a16835292905220545b60008060008061252e8589612c52565b9094509250600084600381111561254757612547615a3e565b14612565576125586009605e61293a565b965050505050505061135a565b6001600160a01b038a166000908152601360205260409020546125889089612c52565b909450915060008460038111156125a1576125a1615a3e565b146125b2576125586009605f61293a565b6001600160a01b0389166000908152601360205260409020546125d59089613bba565b909450905060008460038111156125ee576125ee615a3e565b146125ff576125586009606061293a565b6001600160a01b03808b16600090815260136020526040808220859055918b168152208190556000198514612657576001600160a01b03808b166000908152601460209081526040808320938f168352929052208390555b886001600160a01b03168a6001600160a01b0316600080516020615c6a8339815191528a60405161268a91815260200190565b60405180910390a35060009a9950505050505050505050565b60008060006126b181611c52565b60006126bb6116e4565b905080156126eb576126df8160118111156126d8576126d8615a3e565b604061293a565b600093509350506126fc565b6126f63387876134fb565b93509350505b61270581611d16565b509250929050565b600654604080516303e1469160e61b815290516000926001600160a01b031691829163f851a440916004808201926020929091908290030181865afa15801561275a573d6000803e3d6000fd5b505050506040513d601f19601f8201168201806040525081019061277e9190615b6f565b6001600160a01b0316336001600160a01b03161480156127fb5750806001600160a01b0316630a755ec26040518163ffffffff1660e01b8152600401602060405180830381865afa1580156127d7573d6000803e3d6000fd5b505050506040513d601f19601f820116820180604052508101906127fb9190615a84565b806116f657506001546001600160a01b0316331480156116f65750806001600160a01b0316632f1069ba6040518163ffffffff1660e01b8152600401602060405180830381865afa158015612854573d6000803e3d6000fd5b505050506040513d601f19601f820116820180604052508101906116f69190615a84565b6000806000806128888686613be0565b909250905060008260038111156128a1576128a1615a3e565b146128b257509150600090506128c4565b60006128bd82613c5c565b9350935050505b9250929050565b6016546040516370a0823160e01b81523060048201526000916001600160a01b03169081906370a0823190602401602060405180830381865afa158015612916573d6000803e3d6000fd5b505050506040513d601f19601f820116820180604052508101906116f691906159f0565b60007f45b96fe442630264581b197e84bbada861235052c5a1aadfff9ea4e40a969aa083601181111561296f5761296f615a3e565b83606381111561298157612981615a3e565b60408051928352602083019190915260009082015260600160405180910390a182601181111561168e5761168e615a3e565b6000806129be61270d565b6129ce5761168e6001603c61293a565b43600c54146129e35761168e600a603e61293a565b826129ec6128cb565b10156129fe5761168e600e603d61293a565b600f54831115612a145761168e6002603f61293a565b612a20600f5484613c74565b600f8190559050612a313384613cae565b7f3bad0c59cf2f06e7314077049f48a93578cd16f5ef92329f1dab1420a99c177e3384836040516120ef93929190615b8c565b600080612a7081611c52565b6000612a7a6116e4565b90508015612a9e57611488816011811115612a9757612a97615a3e565b602a61293a565b61149933600086613d33565b6001600160a01b038116600090815260156020526040812080548291829182918291612adf5750600096879650945050505050565b612aef8160000154600d546142b9565b90945092506000846003811115612b0857612b08615a3e565b14612b1b57509195600095509350505050565b612b298382600101546142f8565b90945091506000846003811115612b4257612b42615a3e565b14612b5557509195600095509350505050565b506000969095509350505050565b60008043600c5414612b7b5761168e600a603561293a565b82612b846128cb565b1015612b965761168e600e603461293a565b601154831115612bac5761168e6002603661293a565b612bb860115484613c74565b60118190556001549091506123fe906001600160a01b031684613cae565b6000806000612be481611c52565b6000612bee6116e4565b90508015612c1257611c26816011811115612c0b57612c0b615a3e565b602061293a565b611c3d3386614323565b600061168e8383604051806040016040528060118152602001706164646974696f6e206f766572666c6f7760781b8152506146e1565b600080838311612c71576000612c688486615bad565b915091506128c4565b506003905060006128c4565b600080612c9860405180602001604052808681525084614712565b90506000612ca882600e54614743565b90506000612cb882600e54612c1c565b90506000612cd96040518060200160405280600b5481525084600f5461475b565b90506000612cfa6040518060200160405280600a548152508560115461475b565b90506000612d1b60405180602001604052806009548152508660105461475b565b90506000612d2e87600d54600d5461475b565b600c8d9055600d819055600e869055600f85905560118490556010839055604080518d815260208101899052908101829052606081018790529091507f4dec04e750ca11537cabcd8a9eab06494de08da3735bc8871cd41250e190bc049060800160405180910390a160009c9b505050505050505050505050565b60008043600c5414612dc15761168e600a603961293a565b82612dca6128cb565b1015612ddc5761168e600e603861293a565b601054831115612df25761168e6002603a61293a565b612dfe60105484613c74565b9050806010819055506123fe600660009054906101000a90046001600160a01b03166001600160a01b031663f851a4406040518163ffffffff1660e01b8152600401602060405180830381865afa158015612e5d573d6000803e3d6000fd5b505050506040513d601f19601f82011682018060405250810190612e819190615b6f565b84613cae565b60065460405163d02f735160e01b81523060048201526001600160a01b0386811660248301528581166044830152848116606483015260848201849052600092839291169063d02f73519060a4016020604051808303816000875af1158015612ef4573d6000803e3d6000fd5b505050506040513d601f19601f82011682018060405250810190612f1891906159f0565b90508015612f2d576124a36003601d83613b18565b846001600160a01b0316846001600160a01b03161415612f53576124a36006601e61293a565b612fb8604080516101808101909152806000815260200160008152602001600081526020016000815260200160008152602001600081526020016000815260200160008152602001600081526020016000815260200160008152602001600081525090565b6001600160a01b038516600090815260136020526040902054612fdb9085612c52565b6020830181905282826003811115612ff557612ff5615a3e565b600381111561300657613006615a3e565b905250600090508151600381111561302057613020615a3e565b14613050576130476009601c8360000151600381111561304257613042615a3e565b613b18565b9250505061135a565b61306f846040518060200160405280666379da05b6000081525061477c565b6080820152604080516020810190915267016345785d8a0000815261309590859061477c565b61014082015260808101516130ba906130af908690613c74565b826101400151613c74565b60608201526130c7611d81565b60c08301819052828260038111156130e1576130e1615a3e565b60038111156130f2576130f2615a3e565b905250600090508151600381111561310c5761310c615a3e565b146131595760405162461bcd60e51b815260206004820152601860248201527f65786368616e67652072617465206d617468206572726f7200000000000000006044820152606401610cfa565b61317960405180602001604052808360c001518152508260800151614743565b60a0820152604080516020810190915260c082015181526101408201516131a09190614743565b610160820152600f5460a08201516131b89190612c1c565b60e082015260125460808201516131d2916130af91613c74565b6101208201526011546101608201516131eb9190612c1c565b6101008201526001600160a01b03861660009081526013602052604090205460608201516132199190613bba565b604083018190528282600381111561323357613233615a3e565b600381111561324457613244615a3e565b905250600090508151600381111561325e5761325e615a3e565b14613280576130476009601b8360000151600381111561304257613042615a3e565b60e0810151600f556101208101516012556101008101516011556020808201516001600160a01b0387811660008181526013855260408082209490945583860151928b1680825290849020929092556060850151925192835290929091600080516020615c6a833981519152910160405180910390a3306001600160a01b0316856001600160a01b0316600080516020615c6a833981519152836080015160405161332d91815260200190565b60405180910390a360a081015160e08201516040517fa91e67c5ea634cd43a12c5a482724b03de01e85ca68702a53d0c2f45cb7c1dc59261336f923092615b8c565b60405180910390a16000979650505050505050565b60008061339081611c52565b600061339a6116e4565b905080156133be576114888160118111156133b7576133b7615a3e565b600a61293a565b611499338561479f565b6000806133d481611c52565b60006133de6116e4565b905080156133fb57611488816011811115612a9757612a97615a3e565b61149933856000613d33565b600080600061341581611c52565b600061341f6116e4565b9050801561344f5761344381601181111561343c5761343c615a3e565b601161293a565b600093509350506134e9565b846001600160a01b031663a6afed956040518163ffffffff1660e01b81526004016020604051808303816000875af115801561348f573d6000803e3d6000fd5b505050506040513d601f19601f820116820180604052508101906134b391906159f0565b905080156134d7576134438160118111156134d0576134d0615a3e565b601261293a565b6134e333888888614b33565b93509350505b6134f281611d16565b50935093915050565b600654604051631200453160e11b81523060048201526001600160a01b03858116602483015284811660448301526064820184905260009283928392909116906324008a62906084016020604051808303816000875af1158015613563573d6000803e3d6000fd5b505050506040513d601f19601f8201168201806040525081019061358791906159f0565b905080156135a85761359c6003604383613b18565b6000925092505061390d565b43600c54146135bd5761359c600a604461293a565b6136066040805161010081019091528060008152602001600081526020016000815260200160008152602001600081526020016000815260200160008152602001600081525090565b6001600160a01b038616600090815260156020526040902060010154606082015261363086612aaa565b608083018190526020830182600381111561364d5761364d615a3e565b600381111561365e5761365e615a3e565b905250600090508160200151600381111561367b5761367b615a3e565b146136aa5761369d600960428360200151600381111561304257613042615a3e565b600093509350505061390d565b6000198514156136c357608081015160408201526136cb565b604081018590525b6136d9878260400151614ff4565b60e0820181905260808201516136ee91612c52565b60a083018190526020830182600381111561370b5761370b615a3e565b600381111561371c5761371c615a3e565b905250600090508160200151600381111561373957613739615a3e565b146137ac5760405162461bcd60e51b815260206004820152603a60248201527f52455041595f424f52524f575f4e45575f4143434f554e545f424f52524f575f60448201527f42414c414e43455f43414c43554c4154494f4e5f4641494c45440000000000006064820152608401610cfa565b6137bc600e548260e00151612c52565b60c08301819052602083018260038111156137d9576137d9615a3e565b60038111156137ea576137ea615a3e565b905250600090508160200151600381111561380757613807615a3e565b1461386e5760405162461bcd60e51b815260206004820152603160248201527f52455041595f424f52524f575f4e45575f544f54414c5f42414c414e43455f43604482015270105310d55310551253d397d19052531151607a1b6064820152608401610cfa565b60a081810180516001600160a01b03898116600081815260156020908152604091829020948555600d5460019095019490945560c0870151600e81905560e088015195518251948f16855294840192909252820193909352606081019190915260808101919091527f1a2a22cb034d26d1854bdc6666a5b91fe25efbbb5dcad3b0355478d6f5c362a1910160405180910390a160e00151600093509150505b935093915050565b6000806000806139258787613bba565b9092509050600082600381111561393e5761393e615a3e565b1461394f575091506000905061390d565b6139598186612c52565b935093505050935093915050565b600061397f6040518060200160405280600081525090565b60008061399486670de0b6b3a76400006142b9565b909250905060008260038111156139ad576139ad615a3e565b146139cc575060408051602081019091526000815290925090506128c4565b6000806139d983886142f8565b909250905060008260038111156139f2576139f2615a3e565b14613a1557816040518060200160405280600081525095509550505050506128c4565b604080516020810190915290815260009890975095505050505050565b6060600080856001600160a01b031685604051613a4f9190615bc4565b6000604051808303816000865af19150503d8060008114613a8c576040519150601f19603f3d011682016040523d82523d6000602084013e613a91565b606091505b509150915081613ac557805115613aab5780518082602001fd5b8360405162461bcd60e51b8152600401610cfa9190615669565b95945050505050565b6001546040805163dd86fea160e01b815290516000926001600160a01b03169163dd86fea19160048083019260209291908290030181865afa1580156119aa573d6000803e3d6000fd5b60007f45b96fe442630264581b197e84bbada861235052c5a1aadfff9ea4e40a969aa0846011811115613b4d57613b4d615a3e565b846063811115613b5f57613b5f615a3e565b604080519283526020830191909152810184905260600160405180910390a16003846011811115613b9257613b92615a3e565b14613bae57836011811115613ba957613ba9615a3e565b61135a565b61135a826103e8615b57565b600080838301848110613bd2576000925090506128c4565b6002600092509250506128c4565b6000613bf86040518060200160405280600081525090565b600080613c098660000151866142b9565b90925090506000826003811115613c2257613c22615a3e565b14613c41575060408051602081019091526000815290925090506128c4565b60408051602081019091529081526000969095509350505050565b8051600090610cad90670de0b6b3a764000090615be0565b600061168e8383604051806040016040528060158152602001747375627472616374696f6e20756e646572666c6f7760581b8152506151be565b604080516001600160a01b038416602482015260448082018490528251808303909101815260649091018252602080820180516001600160e01b031663a9059cbb60e01b1790528251808401909352601983527f544f4b454e5f5452414e534645525f4f55545f4641494c45440000000000000090830152613d2f916151ed565b5050565b6000821580613d40575081155b613da95760405162461bcd60e51b815260206004820152603460248201527f6f6e65206f662072656465656d546f6b656e73496e206f722072656465656d416044820152736d6f756e74496e206d757374206265207a65726f60601b6064820152608401610cfa565b613dea6040805160e0810190915280600081526020016000815260200160008152602001600081526020016000815260200160008152602001600081525090565b613df2611d81565b6040830181905260208301826003811115613e0f57613e0f615a3e565b6003811115613e2057613e20615a3e565b9052506000905081602001516003811115613e3d57613e3d615a3e565b14613e6757613e5f6009602e8360200151600381111561304257613042615a3e565b91505061168e565b8315613f00576060810184905260408051602081018252908201518152613e8e9085612878565b6080830181905260208301826003811115613eab57613eab615a3e565b6003811115613ebc57613ebc615a3e565b9052506000905081602001516003811115613ed957613ed9615a3e565b14613efb57613e5f6009602c8360200151600381111561304257613042615a3e565b613f91565b613f1c8360405180602001604052808460400151815250615244565b6060830181905260208301826003811115613f3957613f39615a3e565b6003811115613f4a57613f4a615a3e565b9052506000905081602001516003811115613f6757613f67615a3e565b14613f8957613e5f6009602d8360200151600381111561304257613042615a3e565b608081018390525b600654606082015160405163eabe7d9160e01b81526000926001600160a01b03169163eabe7d9191613fca9130918b9190600401615c02565b6020604051808303816000875af1158015613fe9573d6000803e3d6000fd5b505050506040513d601f19601f8201168201806040525081019061400d91906159f0565b9050801561402b576140226003602b83613b18565b9250505061168e565b43600c541461404057614022600a602f61293a565b6140506012548360600151612c52565b60a084018190526020840182600381111561406d5761406d615a3e565b600381111561407e5761407e615a3e565b905250600090508260200151600381111561409b5761409b615a3e565b146140bd57614022600960318460200151600381111561304257613042615a3e565b6001600160a01b03861660009081526013602052604090205460608301516140e59190612c52565b60c084018190526020840182600381111561410257614102615a3e565b600381111561411357614113615a3e565b905250600090508260200151600381111561413057614130615a3e565b1461415257614022600960308460200151600381111561304257613042615a3e565b816080015161415f6128cb565b101561417157614022600e603261293a565b60a082015160125560c08201516001600160a01b03871660009081526013602052604090205560808201516141a7908790613cae565b306001600160a01b0316866001600160a01b0316600080516020615c6a83398151915284606001516040516141de91815260200190565b60405180910390a3608082015160608301516040517fe5b754fb1abb7f01b499791d0b820ae3b6af3424ac1c59768edb53f4ec31a92992614220928a92615b8c565b60405180910390a1600654608083015160608401516040516351dff98960e01b81523060048201526001600160a01b038a81166024830152604482019390935260648101919091529116906351dff98990608401600060405180830381600087803b15801561428e57600080fd5b505af11580156142a2573d6000803e3d6000fd5b50600092506142af915050565b9695505050505050565b600080836142cc575060009050806128c4565b838302836142da8683615be0565b146142ed576002600092509250506128c4565b6000925090506128c4565b6000808261430c57506001905060006128c4565b60006143188486615be0565b915091509250929050565b600654604051634ef4c3e160e01b8152600091829182916001600160a01b031690634ef4c3e19061435c90309089908990600401615c02565b6020604051808303816000875af115801561437b573d6000803e3d6000fd5b505050506040513d601f19601f8201168201806040525081019061439f91906159f0565b905080156143c0576143b46003602183613b18565b600092509250506128c4565b43600c54146143d5576143b4600a602461293a565b6144166040805160e0810190915280600081526020016000815260200160008152602001600081526020016000815260200160008152602001600081525090565b61441e611d81565b604083018190526020830182600381111561443b5761443b615a3e565b600381111561444c5761444c615a3e565b905250600090508160200151600381111561446957614469615a3e565b146144985761448b600960238360200151600381111561304257613042615a3e565b60009350935050506128c4565b6144a28686614ff4565b60c08201819052604080516020810182529083015181526144c39190615244565b60608301819052602083018260038111156144e0576144e0615a3e565b60038111156144f1576144f1615a3e565b905250600090508160200151600381111561450e5761450e615a3e565b1461455b5760405162461bcd60e51b815260206004820181905260248201527f4d494e545f45584348414e47455f43414c43554c4154494f4e5f4641494c45446044820152606401610cfa565b61456b6012548260600151612c1c565b60808201526001600160a01b03861660009081526013602052604090205460608201516145989190612c1c565b60a0820181905260808201516012556001600160a01b038716600090815260136020526040908190209190915560c0820151606083015191517f4c209b5fc8ad50758f13e2e1088ba56a560dff690a1c6fef26394f4c03821c4f92614601928a92909190615b8c565b60405180910390a1856001600160a01b0316306001600160a01b0316600080516020615c6a833981519152836060015160405161464091815260200190565b60405180910390a360065460c082015160608301516040516341c728b960e01b81523060048201526001600160a01b038a81166024830152604482019390935260648101919091529116906341c728b990608401600060405180830381600087803b1580156146ae57600080fd5b505af11580156146c2573d6000803e3d6000fd5b50600092506146cf915050565b8160c001519350935050509250929050565b6000806146ee8486615b57565b905082858210156112425760405162461bcd60e51b8152600401610cfa9190615669565b604080516020810190915260008152604051806020016040528061473a856000015185615254565b90529392505050565b6000806147508484614712565b905061135a81613c5c565b6000806147688585614712565b9050613ac561477682613c5c565b84612c1c565b6000670de0b6b3a7640000614795848460000151615254565b61168e9190615be0565b60065460405163368f515360e21b815260009182916001600160a01b039091169063da3d454c906147d890309088908890600401615c02565b6020604051808303816000875af11580156147f7573d6000803e3d6000fd5b505050506040513d601f19601f8201168201806040525081019061481b91906159f0565b90508015614838576148306003601083613b18565b915050610cad565b43600c541461484d57614830600a600c61293a565b60006148576128cb565b9050838110156148765761486d600e600b61293a565b92505050610cad565b6148a2604080516080810190915280600081526020016000815260200160008152602001600081525090565b6148ab86612aaa565b60208301819052828260038111156148c5576148c5615a3e565b60038111156148d6576148d6615a3e565b90525060009050815160038111156148f0576148f0615a3e565b1461491b576149116009808360000151600381111561304257613042615a3e565b9350505050610cad565b614929816020015186613bba565b604083018190528282600381111561494357614943615a3e565b600381111561495457614954615a3e565b905250600090508151600381111561496e5761496e615a3e565b14614990576149116009600e8360000151600381111561304257613042615a3e565b6006546040828101519051631de6c8a560e21b815230600482015260248101919091526001600160a01b039091169063779b2294906044016020604051808303816000875af11580156149e7573d6000803e3d6000fd5b505050506040513d601f19601f82011682018060405250810190614a0b91906159f0565b92508215614a20576149116003601085613b18565b614a2c600e5486613bba565b6060830181905282826003811115614a4657614a46615a3e565b6003811115614a5757614a57615a3e565b9052506000905081516003811115614a7157614a71615a3e565b14614a93576149116009600d8360000151600381111561304257613042615a3e565b6040808201516001600160a01b0388166000908152601560205291909120908155600d546001909101556060810151600e55614acf8686613cae565b60408082015160608084015183516001600160a01b038b168152602081018a9052938401929092528201527f13ed6866d4e1ee6da46f845c46d7e54120883d75c5ea9a2dacc1c4ca8984ab809060800160405180910390a160009695505050505050565b600654604051632fe3f38f60e11b81523060048201526001600160a01b03838116602483015286811660448301528581166064830152608482018590526000928392839290911690635fc7e71e9060a4016020604051808303816000875af1158015614ba3573d6000803e3d6000fd5b505050506040513d601f19601f82011682018060405250810190614bc791906159f0565b90508015614be857614bdc6003601483613b18565b60009250925050614feb565b43600c5414614bfd57614bdc600a601861293a565b43846001600160a01b0316636c540baf6040518163ffffffff1660e01b8152600401602060405180830381865afa158015614c3c573d6000803e3d6000fd5b505050506040513d601f19601f82011682018060405250810190614c6091906159f0565b14614c7157614bdc600a601361293a565b866001600160a01b0316866001600160a01b03161415614c9757614bdc6006601961293a565b84614ca857614bdc6007601761293a565b600019851415614cbe57614bdc6007601661293a565b600080614ccc8989896134fb565b90925090508115614d0157614cf3826011811115614cec57614cec615a3e565b601a61293a565b600094509450505050614feb565b60065460405163c488847b60e01b815260009182916001600160a01b039091169063c488847b90614d3a9030908c908890600401615c02565b6040805180830381865afa158015614d56573d6000803e3d6000fd5b505050506040513d601f19601f82011682018060405250810190614d7a9190615c26565b90925090508115614de95760405162461bcd60e51b815260206004820152603360248201527f4c49515549444154455f434f4d5054524f4c4c45525f43414c43554c4154455f604482015272105353d5539517d4d152569157d19052531151606a1b6064820152608401610cfa565b6040516370a0823160e01b81526001600160a01b038b811660048301528291908a16906370a0823190602401602060405180830381865afa158015614e32573d6000803e3d6000fd5b505050506040513d601f19601f82011682018060405250810190614e5691906159f0565b1015614ea45760405162461bcd60e51b815260206004820152601860248201527f4c49515549444154455f5345495a455f544f4f5f4d55434800000000000000006044820152606401610cfa565b60006001600160a01b038916301415614eca57614ec3308d8d85612e87565b9050614f40565b60405163b2a02ff160e01b81526001600160a01b038a169063b2a02ff190614efa908f908f908790600401615c02565b6020604051808303816000875af1158015614f19573d6000803e3d6000fd5b505050506040513d601f19601f82011682018060405250810190614f3d91906159f0565b90505b8015614f855760405162461bcd60e51b81526020600482015260146024820152731d1bdad95b881cd95a5e9d5c994819985a5b195960621b6044820152606401610cfa565b604080516001600160a01b038e811682528d811660208301528183018790528b1660608201526080810184905290517f298637f684da70674f26509b10f07ec2fbc77a335ab1e7d6215a4b2484d8bb529181900360a00190a16000975092955050505050505b94509492505050565b6016546040516370a0823160e01b815230600482015260009182916001600160a01b03909116906370a0823190602401602060405180830381865afa158015615041573d6000803e3d6000fd5b505050506040513d601f19601f8201168201806040525081019061506591906159f0565b90506150f56323b872dd60e01b85308660405160240161508793929190615c02565b604051602081830303815290604052906001600160e01b0319166020820180516001600160e01b0383818316178352505050506040518060400160405280601881526020017f544f4b454e5f5452414e534645525f494e5f4641494c454400000000000000008152506151ed565b6016546040516370a0823160e01b81523060048201526000916001600160a01b0316906370a0823190602401602060405180830381865afa15801561513e573d6000803e3d6000fd5b505050506040513d601f19601f8201168201806040525081019061516291906159f0565b9050818110156151b45760405162461bcd60e51b815260206004820152601a60248201527f544f4b454e5f5452414e534645525f494e5f4f564552464c4f570000000000006044820152606401610cfa565b613ac58282615bad565b600081848411156151e25760405162461bcd60e51b8152600401610cfa9190615669565b5061135a8385615bad565b601654600090615207906001600160a01b03168484613a32565b805190915015610eda57808060200190518101906152259190615a84565b82906113ef5760405162461bcd60e51b8152600401610cfa9190615669565b6000806000806128888686615296565b600061168e83836040518060400160405280601781526020017f6d756c7469706c69636174696f6e206f766572666c6f77000000000000000000815250615309565b60006152ae6040518060200160405280600081525090565b6000806152c3670de0b6b3a7640000876142b9565b909250905060008260038111156152dc576152dc615a3e565b146152fb575060408051602081019091526000815290925090506128c4565b6128bd818660000151613967565b6000831580615316575082155b156153235750600061168e565b600061532f8486615c4a565b90508361533c8683615be0565b1483906112425760405162461bcd60e51b8152600401610cfa9190615669565b82805461536890615a09565b90600052602060002090601f01602090048101928261538a57600085556153d0565b82601f106153a357805160ff19168380011785556153d0565b828001600101855582156153d0579182015b828111156153d05782518255916020019190600101906153b5565b50611a38929150615450565b8280546153e890615a09565b90600052602060002090601f01602090048101928261540a57600085556153d0565b82601f106154235782800160ff198235161785556153d0565b828001600101855582156153d0579182015b828111156153d0578235825591602001919060010190615435565b5b80821115611a385760008155600101615451565b6001600160a01b0381168114611d7e57600080fd5b803561548581615465565b919050565b634e487b7160e01b600052604160045260246000fd5b604051601f8201601f1916810167ffffffffffffffff811182821017156154c9576154c961548a565b604052919050565b600067ffffffffffffffff8211156154eb576154eb61548a565b50601f01601f191660200190565b600082601f83011261550a57600080fd5b813561551d615518826154d1565b6154a0565b81815284602083860101111561553257600080fd5b816020850160208301376000918101602001919091529392505050565b600080600080600080600080610100898b03121561556c57600080fd5b883561557781615465565b9750602089013561558781615465565b9650604089013561559781615465565b955060608901356155a781615465565b9450608089013567ffffffffffffffff808211156155c457600080fd5b6155d08c838d016154f9565b955060a08b01359150808211156155e657600080fd5b506155f38b828c016154f9565b93505060c0890135915060e089013590509295985092959890939650565b60005b8381101561562c578181015183820152602001615614565b838111156113ef5750506000910152565b60008151808452615655816020860160208601615611565b601f01601f19169290920160200192915050565b60208152600061168e602083018461563d565b6000806040838503121561568f57600080fd5b823561569a81615465565b946020939093013593505050565b6000602082840312156156ba57600080fd5b5035919050565b6000602082840312156156d357600080fd5b813561168e81615465565b60ff81168114611d7e57600080fd5b8035615485816156de565b60008060008060008060008060006101208a8c03121561571757600080fd5b893561572281615465565b985060208a013561573281615465565b975061574060408b0161547a565b965060608a0135955060808a013567ffffffffffffffff8082111561576457600080fd5b6157708d838e016154f9565b965060a08c013591508082111561578657600080fd5b506157938c828d016154f9565b9450506157a260c08b016156ed565b925060e08a013591506101008a013590509295985092959850929598565b6000806000606084860312156157d557600080fd5b83356157e081615465565b925060208401356157f081615465565b929592945050506040919091013590565b60008083601f84011261581357600080fd5b50813567ffffffffffffffff81111561582b57600080fd5b6020830191508360208285010111156128c457600080fd5b6000806000806040858703121561585957600080fd5b843567ffffffffffffffff8082111561587157600080fd5b61587d88838901615801565b9096509450602087013591508082111561589657600080fd5b506158a387828801615801565b95989497509550505050565b8015158114611d7e57600080fd5b600080600080606085870312156158d357600080fd5b84356158de81615465565b935060208501356158ee816158af565b9250604085013567ffffffffffffffff81111561590a57600080fd5b6158a387828801615801565b6000806020838503121561592957600080fd5b823567ffffffffffffffff81111561594057600080fd5b61594c85828601615801565b90969095509350505050565b6000806040838503121561596b57600080fd5b823561597681615465565b9150602083013561598681615465565b809150509250929050565b6000806000606084860312156159a657600080fd5b83356159b181615465565b92506020840135915060408401356159c881615465565b809150509250925092565b6000602082840312156159e557600080fd5b815161168e816156de565b600060208284031215615a0257600080fd5b5051919050565b600181811c90821680615a1d57607f821691505b60208210811415610d1857634e487b7160e01b600052602260045260246000fd5b634e487b7160e01b600052602160045260246000fd5b6020808252601690820152751858d8dc9d59481a5b9d195c995cdd0819985a5b195960521b604082015260600190565b600060208284031215615a9657600080fd5b815161168e816158af565b600080600060608486031215615ab657600080fd5b8351615ac181615465565b6020850151909350615ad2816158af565b604085015190925067ffffffffffffffff811115615aef57600080fd5b8401601f81018613615b0057600080fd5b8051615b0e615518826154d1565b818152876020838501011115615b2357600080fd5b615b34826020830160208601615611565b8093505050509250925092565b634e487b7160e01b600052601160045260246000fd5b60008219821115615b6a57615b6a615b41565b500190565b600060208284031215615b8157600080fd5b815161168e81615465565b6001600160a01b039390931683526020830191909152604082015260600190565b600082821015615bbf57615bbf615b41565b500390565b60008251615bd6818460208701615611565b9190910192915050565b600082615bfd57634e487b7160e01b600052601260045260246000fd5b500490565b6001600160a01b039384168152919092166020820152604081019190915260600190565b60008060408385031215615c3957600080fd5b505080516020909101519092909150565b6000816000190483118215151615615c6457615c64615b41565b50029056feddf252ad1be2c89b69c2b068fc378daa952ba7f163c4a11628f55a4df523b3efa164736f6c634300080a000a",
    "linkReferences": {}
  },
  "methodIdentifiers": {
    "_becomeImplementation(bytes)": "56e67728",
    "_delegateCompLikeTo(address)": "7f1e06be",
    "_prepare()": "1db78944",
    "_reduceReserves(uint256)": "601a0bf1",
    "_setAdminFee(uint256)": "91dd36c6",
    "_setImplementationSafe(address,bool,bytes)": "50d85b73",
    "_setInterestRateModel(address)": "f2b3abbd",
    "_setNameAndSymbol(string,string)": "34154d4c",
    "_setReserveFactor(uint256)": "fca7820b",
    "_withdrawAdminFees(uint256)": "a7b820df",
    "_withdrawFuseFees(uint256)": "a03dce8d",
    "accrualBlockNumber()": "6c540baf",
    "accrueInterest()": "a6afed95",
    "adminFeeMantissa()": "8d02d9a1",
    "allowance(address,address)": "dd62ed3e",
    "approve(address,uint256)": "095ea7b3",
    "balanceOf(address)": "70a08231",
    "balanceOfUnderlying(address)": "3af9e669",
    "borrow(uint256)": "c5ebeaec",
    "borrowBalanceCurrent(address)": "17bfdfbc",
    "borrowBalanceStored(address)": "95dd9193",
    "borrowIndex()": "aa5af0fd",
    "borrowRatePerBlock()": "f8f9da28",
    "comptroller()": "5fe3b567",
    "decimals()": "313ce567",
    "exchangeRateCurrent()": "bd6d894d",
    "exchangeRateStored()": "182df0f5",
    "feeSeizeShareMantissa()": "be99f119",
    "fuseAdmin()": "15761d51",
    "fuseFeeMantissa()": "dbfe7c19",
    "getAccountSnapshot(address)": "c37f68e2",
    "getCash()": "3b1d21a2",
    "implementation()": "5c60da1b",
    "initialize(address,address,address,address,string,string,uint256,uint256)": "06db3ecd",
    "initialize(address,address,address,uint256,string,string,uint8,uint256,uint256)": "219ef65c",
    "interestRateModel()": "f3fdb15a",
    "isCEther()": "ac784ddc",
    "isCToken()": "fe9c44ae",
    "liquidateBorrow(address,uint256,address)": "f5e3c462",
    "mint(uint256)": "a0712d68",
    "name()": "06fdde03",
    "protocolSeizeShareMantissa()": "6752e702",
    "redeem(uint256)": "db006a75",
    "redeemUnderlying(uint256)": "852a12e3",
    "repayBorrow(uint256)": "0e752702",
    "repayBorrowBehalf(address,uint256)": "2608f818",
    "reserveFactorMantissa()": "173b9904",
    "seize(address,address,uint256)": "b2a02ff1",
    "supplyRatePerBlock()": "ae9d70b0",
    "symbol()": "95d89b41",
    "totalAdminFees()": "61feacff",
    "totalBorrows()": "47bd3718",
    "totalBorrowsCurrent()": "73acee98",
    "totalFuseFees()": "dc028ab1",
    "totalReserves()": "8f840ddd",
    "totalSupply()": "18160ddd",
    "transfer(address,uint256)": "a9059cbb",
    "transferFrom(address,address,uint256)": "23b872dd",
    "underlying()": "6f307dc3"
  }
}