{
  "address": "0xE45D130df116C7AEe349446FE91601Fb70e3bC2F",
  "abi": [
    {
      "inputs": [
        {
          "internalType": "bytes4",
          "name": "_functionSelector",
          "type": "bytes4"
        }
      ],
      "name": "ExtensionNotFound",
      "type": "error"
    },
    {
      "inputs": [
        {
          "internalType": "bytes4",
          "name": "_functionSelector",
          "type": "bytes4"
        },
        {
          "internalType": "address",
          "name": "_currentImpl",
          "type": "address"
        }
      ],
      "name": "FunctionAlreadyAdded",
      "type": "error"
    },
    {
      "inputs": [
        {
          "internalType": "bytes4",
          "name": "_functionSelector",
          "type": "bytes4"
        }
      ],
      "name": "FunctionNotFound",
      "type": "error"
    },
    {
      "anonymous": false,
      "inputs": [
        {
          "indexed": false,
          "internalType": "uint256",
          "name": "cashPrior",
          "type": "uint256"
        },
        {
          "indexed": false,
          "internalType": "uint256",
          "name": "interestAccumulated",
          "type": "uint256"
        },
        {
          "indexed": false,
          "internalType": "uint256",
          "name": "borrowIndex",
          "type": "uint256"
        },
        {
          "indexed": false,
          "internalType": "uint256",
          "name": "totalBorrows",
          "type": "uint256"
        }
      ],
      "name": "AccrueInterest",
      "type": "event"
    },
    {
      "anonymous": false,
      "inputs": [
        {
          "indexed": true,
          "internalType": "address",
          "name": "owner",
          "type": "address"
        },
        {
          "indexed": true,
          "internalType": "address",
          "name": "spender",
          "type": "address"
        },
        {
          "indexed": false,
          "internalType": "uint256",
          "name": "amount",
          "type": "uint256"
        }
      ],
      "name": "Approval",
      "type": "event"
    },
    {
      "anonymous": false,
      "inputs": [
        {
          "indexed": false,
          "internalType": "address",
          "name": "borrower",
          "type": "address"
        },
        {
          "indexed": false,
          "internalType": "uint256",
          "name": "borrowAmount",
          "type": "uint256"
        },
        {
          "indexed": false,
          "internalType": "uint256",
          "name": "accountBorrows",
          "type": "uint256"
        },
        {
          "indexed": false,
          "internalType": "uint256",
          "name": "totalBorrows",
          "type": "uint256"
        }
      ],
      "name": "Borrow",
      "type": "event"
    },
    {
      "anonymous": false,
      "inputs": [
        {
          "indexed": false,
          "internalType": "uint256",
          "name": "error",
          "type": "uint256"
        },
        {
          "indexed": false,
          "internalType": "uint256",
          "name": "info",
          "type": "uint256"
        },
        {
          "indexed": false,
          "internalType": "uint256",
          "name": "detail",
          "type": "uint256"
        }
      ],
      "name": "Failure",
      "type": "event"
    },
    {
      "anonymous": false,
      "inputs": [
        {
          "indexed": false,
          "internalType": "address",
          "name": "liquidator",
          "type": "address"
        },
        {
          "indexed": false,
          "internalType": "address",
          "name": "borrower",
          "type": "address"
        },
        {
          "indexed": false,
          "internalType": "uint256",
          "name": "repayAmount",
          "type": "uint256"
        },
        {
          "indexed": false,
          "internalType": "address",
          "name": "cTokenCollateral",
          "type": "address"
        },
        {
          "indexed": false,
          "internalType": "uint256",
          "name": "seizeTokens",
          "type": "uint256"
        }
      ],
      "name": "LiquidateBorrow",
      "type": "event"
    },
    {
      "anonymous": false,
      "inputs": [
        {
          "indexed": false,
          "internalType": "address",
          "name": "minter",
          "type": "address"
        },
        {
          "indexed": false,
          "internalType": "uint256",
          "name": "mintAmount",
          "type": "uint256"
        },
        {
          "indexed": false,
          "internalType": "uint256",
          "name": "mintTokens",
          "type": "uint256"
        }
      ],
      "name": "Mint",
      "type": "event"
    },
    {
      "anonymous": false,
      "inputs": [
        {
          "indexed": false,
          "internalType": "uint256",
          "name": "oldAdminFeeMantissa",
          "type": "uint256"
        },
        {
          "indexed": false,
          "internalType": "uint256",
          "name": "newAdminFeeMantissa",
          "type": "uint256"
        }
      ],
      "name": "NewAdminFee",
      "type": "event"
    },
    {
      "anonymous": false,
      "inputs": [
        {
          "indexed": false,
          "internalType": "uint256",
          "name": "oldFuseFeeMantissa",
          "type": "uint256"
        },
        {
          "indexed": false,
          "internalType": "uint256",
          "name": "newFuseFeeMantissa",
          "type": "uint256"
        }
      ],
      "name": "NewFuseFee",
      "type": "event"
    },
    {
      "anonymous": false,
      "inputs": [
        {
          "indexed": false,
          "internalType": "address",
          "name": "oldImplementation",
          "type": "address"
        },
        {
          "indexed": false,
          "internalType": "address",
          "name": "newImplementation",
          "type": "address"
        }
      ],
      "name": "NewImplementation",
      "type": "event"
    },
    {
      "anonymous": false,
      "inputs": [
        {
          "indexed": false,
          "internalType": "contract InterestRateModel",
          "name": "oldInterestRateModel",
          "type": "address"
        },
        {
          "indexed": false,
          "internalType": "contract InterestRateModel",
          "name": "newInterestRateModel",
          "type": "address"
        }
      ],
      "name": "NewMarketInterestRateModel",
      "type": "event"
    },
    {
      "anonymous": false,
      "inputs": [
        {
          "indexed": false,
          "internalType": "uint256",
          "name": "oldReserveFactorMantissa",
          "type": "uint256"
        },
        {
          "indexed": false,
          "internalType": "uint256",
          "name": "newReserveFactorMantissa",
          "type": "uint256"
        }
      ],
      "name": "NewReserveFactor",
      "type": "event"
    },
    {
      "anonymous": false,
      "inputs": [
        {
          "indexed": false,
          "internalType": "address",
          "name": "redeemer",
          "type": "address"
        },
        {
          "indexed": false,
          "internalType": "uint256",
          "name": "redeemAmount",
          "type": "uint256"
        },
        {
          "indexed": false,
          "internalType": "uint256",
          "name": "redeemTokens",
          "type": "uint256"
        }
      ],
      "name": "Redeem",
      "type": "event"
    },
    {
      "anonymous": false,
      "inputs": [
        {
          "indexed": false,
          "internalType": "address",
          "name": "payer",
          "type": "address"
        },
        {
          "indexed": false,
          "internalType": "address",
          "name": "borrower",
          "type": "address"
        },
        {
          "indexed": false,
          "internalType": "uint256",
          "name": "repayAmount",
          "type": "uint256"
        },
        {
          "indexed": false,
          "internalType": "uint256",
          "name": "accountBorrows",
          "type": "uint256"
        },
        {
          "indexed": false,
          "internalType": "uint256",
          "name": "totalBorrows",
          "type": "uint256"
        }
      ],
      "name": "RepayBorrow",
      "type": "event"
    },
    {
      "anonymous": false,
      "inputs": [
        {
          "indexed": false,
          "internalType": "address",
          "name": "benefactor",
          "type": "address"
        },
        {
          "indexed": false,
          "internalType": "uint256",
          "name": "addAmount",
          "type": "uint256"
        },
        {
          "indexed": false,
          "internalType": "uint256",
          "name": "newTotalReserves",
          "type": "uint256"
        }
      ],
      "name": "ReservesAdded",
      "type": "event"
    },
    {
      "anonymous": false,
      "inputs": [
        {
          "indexed": false,
          "internalType": "address",
          "name": "admin",
          "type": "address"
        },
        {
          "indexed": false,
          "internalType": "uint256",
          "name": "reduceAmount",
          "type": "uint256"
        },
        {
          "indexed": false,
          "internalType": "uint256",
          "name": "newTotalReserves",
          "type": "uint256"
        }
      ],
      "name": "ReservesReduced",
      "type": "event"
    },
    {
      "anonymous": false,
      "inputs": [
        {
          "indexed": true,
          "internalType": "address",
          "name": "from",
          "type": "address"
        },
        {
          "indexed": true,
          "internalType": "address",
          "name": "to",
          "type": "address"
        },
        {
          "indexed": false,
          "internalType": "uint256",
          "name": "amount",
          "type": "uint256"
        }
      ],
      "name": "Transfer",
      "type": "event"
    },
    {
      "stateMutability": "nonpayable",
      "type": "fallback"
    },
    {
      "inputs": [
        {
          "internalType": "bytes",
          "name": "",
          "type": "bytes"
        }
      ],
      "name": "_becomeImplementation",
      "outputs": [],
      "stateMutability": "nonpayable",
      "type": "function"
    },
    {
      "inputs": [],
      "name": "_listExtensions",
      "outputs": [
        {
          "internalType": "address[]",
          "name": "",
          "type": "address[]"
        }
      ],
      "stateMutability": "view",
      "type": "function"
    },
    {
      "inputs": [],
      "name": "_prepare",
      "outputs": [],
      "stateMutability": "payable",
      "type": "function"
    },
    {
      "inputs": [
        {
          "internalType": "contract DiamondExtension",
          "name": "extensionToAdd",
          "type": "address"
        },
        {
          "internalType": "contract DiamondExtension",
          "name": "extensionToReplace",
          "type": "address"
        }
      ],
      "name": "_registerExtension",
      "outputs": [],
      "stateMutability": "nonpayable",
      "type": "function"
    },
    {
      "inputs": [
        {
          "internalType": "address",
          "name": "implementation_",
          "type": "address"
        },
        {
          "internalType": "bool",
          "name": "allowResign",
          "type": "bool"
        },
        {
          "internalType": "bytes",
          "name": "becomeImplementationData",
          "type": "bytes"
        }
      ],
      "name": "_setImplementationSafe",
      "outputs": [],
      "stateMutability": "nonpayable",
      "type": "function"
    },
    {
      "inputs": [
        {
          "internalType": "uint256",
          "name": "withdrawAmount",
          "type": "uint256"
        }
      ],
      "name": "_withdrawAdminFees",
      "outputs": [
        {
          "internalType": "uint256",
          "name": "",
          "type": "uint256"
        }
      ],
      "stateMutability": "nonpayable",
      "type": "function"
    },
    {
      "inputs": [
        {
          "internalType": "uint256",
          "name": "withdrawAmount",
          "type": "uint256"
        }
      ],
      "name": "_withdrawFuseFees",
      "outputs": [
        {
          "internalType": "uint256",
          "name": "",
          "type": "uint256"
        }
      ],
      "stateMutability": "nonpayable",
      "type": "function"
    },
    {
      "inputs": [],
      "name": "accrualBlockNumber",
      "outputs": [
        {
          "internalType": "uint256",
          "name": "",
          "type": "uint256"
        }
      ],
      "stateMutability": "view",
      "type": "function"
    },
    {
      "inputs": [],
      "name": "adminFeeMantissa",
      "outputs": [
        {
          "internalType": "uint256",
          "name": "",
          "type": "uint256"
        }
      ],
      "stateMutability": "view",
      "type": "function"
    },
    {
      "inputs": [],
      "name": "asCTokenExtensionInterface",
      "outputs": [
        {
          "internalType": "contract CTokenExtensionInterface",
          "name": "",
          "type": "address"
        }
      ],
      "stateMutability": "view",
      "type": "function"
    },
    {
      "inputs": [
        {
          "internalType": "uint256",
          "name": "borrowAmount",
          "type": "uint256"
        }
      ],
      "name": "borrow",
      "outputs": [
        {
          "internalType": "uint256",
          "name": "",
          "type": "uint256"
        }
      ],
      "stateMutability": "nonpayable",
      "type": "function"
    },
    {
      "inputs": [
        {
          "internalType": "address",
          "name": "account",
          "type": "address"
        }
      ],
      "name": "borrowBalanceCurrent",
      "outputs": [
        {
          "internalType": "uint256",
          "name": "",
          "type": "uint256"
        }
      ],
      "stateMutability": "nonpayable",
      "type": "function"
    },
    {
      "inputs": [
        {
          "internalType": "address",
          "name": "account",
          "type": "address"
        }
      ],
      "name": "borrowBalanceStored",
      "outputs": [
        {
          "internalType": "uint256",
          "name": "",
          "type": "uint256"
        }
      ],
      "stateMutability": "view",
      "type": "function"
    },
    {
      "inputs": [],
      "name": "borrowIndex",
      "outputs": [
        {
          "internalType": "uint256",
          "name": "",
          "type": "uint256"
        }
      ],
      "stateMutability": "view",
      "type": "function"
    },
    {
      "inputs": [],
      "name": "comptroller",
      "outputs": [
        {
          "internalType": "contract ComptrollerInterface",
          "name": "",
          "type": "address"
        }
      ],
      "stateMutability": "view",
      "type": "function"
    },
    {
      "inputs": [],
      "name": "contractType",
      "outputs": [
        {
          "internalType": "string",
          "name": "",
          "type": "string"
        }
      ],
      "stateMutability": "pure",
      "type": "function"
    },
    {
      "inputs": [],
      "name": "decimals",
      "outputs": [
        {
          "internalType": "uint8",
          "name": "",
          "type": "uint8"
        }
      ],
      "stateMutability": "view",
      "type": "function"
    },
    {
      "inputs": [],
      "name": "feeSeizeShareMantissa",
      "outputs": [
        {
          "internalType": "uint256",
          "name": "",
          "type": "uint256"
        }
      ],
      "stateMutability": "view",
      "type": "function"
    },
    {
      "inputs": [],
      "name": "fuseAdmin",
      "outputs": [
        {
          "internalType": "address payable",
          "name": "",
          "type": "address"
        }
      ],
      "stateMutability": "view",
      "type": "function"
    },
    {
      "inputs": [],
      "name": "fuseFeeMantissa",
      "outputs": [
        {
          "internalType": "uint256",
          "name": "",
          "type": "uint256"
        }
      ],
      "stateMutability": "view",
      "type": "function"
    },
    {
      "inputs": [
        {
          "internalType": "address",
          "name": "account",
          "type": "address"
        }
      ],
      "name": "getAccountSnapshot",
      "outputs": [
        {
          "internalType": "uint256",
          "name": "",
          "type": "uint256"
        },
        {
          "internalType": "uint256",
          "name": "",
          "type": "uint256"
        },
        {
          "internalType": "uint256",
          "name": "",
          "type": "uint256"
        },
        {
          "internalType": "uint256",
          "name": "",
          "type": "uint256"
        }
      ],
      "stateMutability": "view",
      "type": "function"
    },
    {
      "inputs": [],
      "name": "getCash",
      "outputs": [
        {
          "internalType": "uint256",
          "name": "",
          "type": "uint256"
        }
      ],
      "stateMutability": "view",
      "type": "function"
    },
    {
      "inputs": [],
      "name": "implementation",
      "outputs": [
        {
          "internalType": "address",
          "name": "",
          "type": "address"
        }
      ],
      "stateMutability": "view",
      "type": "function"
    },
    {
      "inputs": [
        {
          "internalType": "address",
          "name": "underlying_",
          "type": "address"
        },
        {
          "internalType": "contract ComptrollerInterface",
          "name": "comptroller_",
          "type": "address"
        },
        {
          "internalType": "address payable",
          "name": "fuseAdmin_",
          "type": "address"
        },
        {
          "internalType": "contract InterestRateModel",
          "name": "interestRateModel_",
          "type": "address"
        },
        {
          "internalType": "string",
          "name": "name_",
          "type": "string"
        },
        {
          "internalType": "string",
          "name": "symbol_",
          "type": "string"
        },
        {
          "internalType": "uint256",
          "name": "reserveFactorMantissa_",
          "type": "uint256"
        },
        {
          "internalType": "uint256",
          "name": "adminFeeMantissa_",
          "type": "uint256"
        }
      ],
      "name": "initialize",
      "outputs": [],
      "stateMutability": "nonpayable",
      "type": "function"
    },
    {
      "inputs": [
        {
          "internalType": "contract ComptrollerInterface",
          "name": "comptroller_",
          "type": "address"
        },
        {
          "internalType": "address payable",
          "name": "fuseAdmin_",
          "type": "address"
        },
        {
          "internalType": "contract InterestRateModel",
          "name": "interestRateModel_",
          "type": "address"
        },
        {
          "internalType": "uint256",
          "name": "initialExchangeRateMantissa_",
          "type": "uint256"
        },
        {
          "internalType": "string",
          "name": "name_",
          "type": "string"
        },
        {
          "internalType": "string",
          "name": "symbol_",
          "type": "string"
        },
        {
          "internalType": "uint8",
          "name": "decimals_",
          "type": "uint8"
        },
        {
          "internalType": "uint256",
          "name": "reserveFactorMantissa_",
          "type": "uint256"
        },
        {
          "internalType": "uint256",
          "name": "adminFeeMantissa_",
          "type": "uint256"
        }
      ],
      "name": "initialize",
      "outputs": [],
      "stateMutability": "nonpayable",
      "type": "function"
    },
    {
      "inputs": [],
      "name": "interestRateModel",
      "outputs": [
        {
          "internalType": "contract InterestRateModel",
          "name": "",
          "type": "address"
        }
      ],
      "stateMutability": "view",
      "type": "function"
    },
    {
      "inputs": [],
      "name": "isCEther",
      "outputs": [
        {
          "internalType": "bool",
          "name": "",
          "type": "bool"
        }
      ],
      "stateMutability": "nonpayable",
      "type": "function"
    },
    {
      "inputs": [],
      "name": "isCToken",
      "outputs": [
        {
          "internalType": "bool",
          "name": "",
          "type": "bool"
        }
      ],
      "stateMutability": "nonpayable",
      "type": "function"
    },
    {
      "inputs": [
        {
          "internalType": "address",
          "name": "borrower",
          "type": "address"
        },
        {
          "internalType": "uint256",
          "name": "repayAmount",
          "type": "uint256"
        },
        {
          "internalType": "contract CTokenInterface",
          "name": "cTokenCollateral",
          "type": "address"
        }
      ],
      "name": "liquidateBorrow",
      "outputs": [
        {
          "internalType": "uint256",
          "name": "",
          "type": "uint256"
        }
      ],
      "stateMutability": "nonpayable",
      "type": "function"
    },
    {
      "inputs": [
        {
          "internalType": "uint256",
          "name": "mintAmount",
          "type": "uint256"
        }
      ],
      "name": "mint",
      "outputs": [
        {
          "internalType": "uint256",
          "name": "",
          "type": "uint256"
        }
      ],
      "stateMutability": "nonpayable",
      "type": "function"
    },
    {
      "inputs": [],
      "name": "name",
      "outputs": [
        {
          "internalType": "string",
          "name": "",
          "type": "string"
        }
      ],
      "stateMutability": "view",
      "type": "function"
    },
    {
      "inputs": [],
      "name": "protocolSeizeShareMantissa",
      "outputs": [
        {
          "internalType": "uint256",
          "name": "",
          "type": "uint256"
        }
      ],
      "stateMutability": "view",
      "type": "function"
    },
    {
      "inputs": [
        {
          "internalType": "uint256",
          "name": "redeemTokens",
          "type": "uint256"
        }
      ],
      "name": "redeem",
      "outputs": [
        {
          "internalType": "uint256",
          "name": "",
          "type": "uint256"
        }
      ],
      "stateMutability": "nonpayable",
      "type": "function"
    },
    {
      "inputs": [
        {
          "internalType": "uint256",
          "name": "redeemAmount",
          "type": "uint256"
        }
      ],
      "name": "redeemUnderlying",
      "outputs": [
        {
          "internalType": "uint256",
          "name": "",
          "type": "uint256"
        }
      ],
      "stateMutability": "nonpayable",
      "type": "function"
    },
    {
      "inputs": [
        {
          "internalType": "uint256",
          "name": "repayAmount",
          "type": "uint256"
        }
      ],
      "name": "repayBorrow",
      "outputs": [
        {
          "internalType": "uint256",
          "name": "",
          "type": "uint256"
        }
      ],
      "stateMutability": "nonpayable",
      "type": "function"
    },
    {
      "inputs": [
        {
          "internalType": "address",
          "name": "borrower",
          "type": "address"
        },
        {
          "internalType": "uint256",
          "name": "repayAmount",
          "type": "uint256"
        }
      ],
      "name": "repayBorrowBehalf",
      "outputs": [
        {
          "internalType": "uint256",
          "name": "",
          "type": "uint256"
        }
      ],
      "stateMutability": "nonpayable",
      "type": "function"
    },
    {
      "inputs": [],
      "name": "reserveFactorMantissa",
      "outputs": [
        {
          "internalType": "uint256",
          "name": "",
          "type": "uint256"
        }
      ],
      "stateMutability": "view",
      "type": "function"
    },
    {
      "inputs": [
        {
          "internalType": "address",
          "name": "liquidator",
          "type": "address"
        },
        {
          "internalType": "address",
          "name": "borrower",
          "type": "address"
        },
        {
          "internalType": "uint256",
          "name": "seizeTokens",
          "type": "uint256"
        }
      ],
      "name": "seize",
      "outputs": [
        {
          "internalType": "uint256",
          "name": "",
          "type": "uint256"
        }
      ],
      "stateMutability": "nonpayable",
      "type": "function"
    },
    {
      "inputs": [
        {
          "internalType": "address",
          "name": "from",
          "type": "address"
        },
        {
          "internalType": "uint256",
          "name": "amount",
          "type": "uint256"
        }
      ],
      "name": "selfTransferIn",
      "outputs": [
        {
          "internalType": "uint256",
          "name": "",
          "type": "uint256"
        }
      ],
      "stateMutability": "nonpayable",
      "type": "function"
    },
    {
      "inputs": [
        {
          "internalType": "address",
          "name": "to",
          "type": "address"
        },
        {
          "internalType": "uint256",
          "name": "amount",
          "type": "uint256"
        }
      ],
      "name": "selfTransferOut",
      "outputs": [],
      "stateMutability": "nonpayable",
      "type": "function"
    },
    {
      "inputs": [],
      "name": "symbol",
      "outputs": [
        {
          "internalType": "string",
          "name": "",
          "type": "string"
        }
      ],
      "stateMutability": "view",
      "type": "function"
    },
    {
      "inputs": [],
      "name": "totalAdminFees",
      "outputs": [
        {
          "internalType": "uint256",
          "name": "",
          "type": "uint256"
        }
      ],
      "stateMutability": "view",
      "type": "function"
    },
    {
      "inputs": [],
      "name": "totalBorrows",
      "outputs": [
        {
          "internalType": "uint256",
          "name": "",
          "type": "uint256"
        }
      ],
      "stateMutability": "view",
      "type": "function"
    },
    {
      "inputs": [],
      "name": "totalFuseFees",
      "outputs": [
        {
          "internalType": "uint256",
          "name": "",
          "type": "uint256"
        }
      ],
      "stateMutability": "view",
      "type": "function"
    },
    {
      "inputs": [],
      "name": "totalReserves",
      "outputs": [
        {
          "internalType": "uint256",
          "name": "",
          "type": "uint256"
        }
      ],
      "stateMutability": "view",
      "type": "function"
    },
    {
      "inputs": [],
      "name": "totalSupply",
      "outputs": [
        {
          "internalType": "uint256",
          "name": "",
          "type": "uint256"
        }
      ],
      "stateMutability": "view",
      "type": "function"
    },
    {
      "inputs": [],
      "name": "underlying",
      "outputs": [
        {
          "internalType": "address",
          "name": "",
          "type": "address"
        }
      ],
      "stateMutability": "view",
      "type": "function"
    }
  ],
  "transactionHash": "0x5a2937b427edab8ff3c1decfdef4883a92d4b55a7f52945f7b6f23bb7e904b74",
  "args": [],
  "numDeployments": 31,
  "bytecode": {
    "object": "0x608060405234801561001057600080fd5b5061590e80620000216000396000f3fe6080604052600436106102885760003560e01c80636f307dc31161015a578063ac784ddc116100c1578063db006a751161007a578063db006a7514610810578063dbfe7c1914610830578063dc028ab114610846578063f3fdb15a1461085c578063f5e3c4621461087c578063fe9c44ae1461089c57610288565b8063ac784ddc1461071d578063b2a02ff11461073d578063be99f1191461075d578063c37f68e214610779578063c5ebeaec146107b9578063cb2ef6f7146107d957610288565b806395dd91931161011357806395dd9193146106745780639f5ef27214610694578063a03dce8d146106a7578063a0712d68146106c7578063a7b820df146106e7578063aa5af0fd1461070757610288565b80636f307dc3146105d3578063852a12e3146105f357806389cd9855146106135780638d02d9a1146106335780638f840ddd1461064957806395d89b411461065f57610288565b80632608f818116101fe5780635c60da1b116101b75780635c60da1b1461052a5780635fe3b5671461054a57806361feacff1461056a5780636333d001146105805780636752e702146105a25780636c540baf146105bd57610288565b80632608f81814610473578063313ce567146104935780633b1d21a2146104bf57806347bd3718146104d457806350d85b73146104ea57806356e677281461050a57610288565b806315761d511161025057806315761d51146103c7578063173b9904146103ff57806317bfdfbc1461041557806318160ddd146104355780631db789441461044b578063219ef65c1461045357610288565b8063067db1b31461030c57806306db3ecd1461032e57806306fdde031461034e5780630e75270214610379578063135f1334146103a7575b34801561029457600080fd5b5060006102ac6000356001600160e01b0319166108b0565b90506001600160a01b0381166102e857604051630a82dd7360e31b81526001600160e01b03196000351660048201526024015b60405180910390fd5b3660008037600080366000845af43d6000803e808015610307573d6000f35b3d6000fd5b34801561031857600080fd5b5061032c610327366004614f4d565b610913565b005b34801561033a57600080fd5b5061032c610349366004615056565b610958565b34801561035a57600080fd5b50610363610a66565b6040516103709190615170565b60405180910390f35b34801561038557600080fd5b50610399610394366004615183565b610af4565b604051908152602001610370565b3480156103b357600080fd5b506103996103c2366004614f4d565b610b08565b3480156103d357600080fd5b506001546103e7906001600160a01b031681565b6040516001600160a01b039091168152602001610370565b34801561040b57600080fd5b50610399600b5481565b34801561042157600080fd5b5061039961043036600461519c565b610b54565b34801561044157600080fd5b5061039960125481565b61032c610c20565b34801561045f57600080fd5b5061032c61046e3660046151d3565b610d5e565b34801561047f57600080fd5b5061039961048e366004614f4d565b6111ba565b34801561049f57600080fd5b506005546104ad9060ff1681565b60405160ff9091168152602001610370565b3480156104cb57600080fd5b506103996111d0565b3480156104e057600080fd5b50610399600e5481565b3480156104f657600080fd5b5061032c6105053660046152a9565b6111df565b34801561051657600080fd5b5061032c61052536600461533b565b611263565b34801561053657600080fd5b506000546103e7906001600160a01b031681565b34801561055657600080fd5b506006546103e7906001600160a01b031681565b34801561057657600080fd5b5061039960105481565b34801561058c57600080fd5b506105956112b5565b6040516103709190615384565b3480156105ae57600080fd5b50610399666379da05b6000081565b3480156105c957600080fd5b50610399600c5481565b3480156105df57600080fd5b506016546103e7906001600160a01b031681565b3480156105ff57600080fd5b5061039961060e366004615183565b6112bf565b34801561061f57600080fd5b5061032c61062e3660046153d1565b6112ca565b34801561063f57600080fd5b5061039960095481565b34801561065557600080fd5b50610399600f5481565b34801561066b57600080fd5b5061036361139e565b34801561068057600080fd5b5061039961068f36600461519c565b6113ab565b3480156106a057600080fd5b50306103e7565b3480156106b357600080fd5b506103996106c2366004615183565b6114c6565b3480156106d357600080fd5b506103996106e2366004615183565b6115e7565b3480156106f357600080fd5b50610399610702366004615183565b6115f3565b34801561071357600080fd5b50610399600d5481565b34801561072957600080fd5b5060005b6040519015158152602001610370565b34801561074957600080fd5b5061039961075836600461540a565b611764565b34801561076957600080fd5b5061039967016345785d8a000081565b34801561078557600080fd5b5061079961079436600461519c565b611788565b604080519485526020850193909352918301526060820152608001610370565b3480156107c557600080fd5b506103996107d4366004615183565b611828565b3480156107e557600080fd5b5060408051808201909152600e81526d43457263323044656c656761746560901b6020820152610363565b34801561081c57600080fd5b5061039961082b366004615183565b611833565b34801561083c57600080fd5b50610399600a5481565b34801561085257600080fd5b5061039960115481565b34801561086857600080fd5b506007546103e7906001600160a01b031681565b34801561088857600080fd5b5061039961089736600461544b565b61183e565b3480156108a857600080fd5b50600161072d565b6001600160e01b0319811660009081526000805160206158c2833981519152602081905260408220546001600160a01b03168061090c57604051631f3f429960e31b81526001600160e01b0319851660048201526024016102df565b9392505050565b33301461094a5760405162461bcd60e51b815260206004820152600560248201526410b9b2b63360d91b60448201526064016102df565b6109548282611856565b5050565b60006702c68af0bb14000090506000896001600160a01b031663313ce5676040518163ffffffff1660e01b8152600401602060405180830381865afa1580156109a5573d6000803e3d6000fd5b505050506040513d601f19601f820116820180604052508101906109c9919061548d565b90506109dc898989858a8a878b8b610d5e565b601680546001600160a01b0319166001600160a01b038c16908117909155604080516318160ddd60e01b815290516318160ddd916004808201926020929091908290030181865afa158015610a35573d6000803e3d6000fd5b505050506040513d601f19601f82011682018060405250810190610a5991906154aa565b5050505050505050505050565b60038054610a73906154c3565b80601f0160208091040260200160405190810160405280929190818152602001828054610a9f906154c3565b8015610aec5780601f10610ac157610100808354040283529160200191610aec565b820191906000526020600020905b815481529060010190602001808311610acf57829003601f168201915b505050505081565b600080610b00836118d7565b509392505050565b6000333014610b415760405162461bcd60e51b815260206004820152600560248201526410b9b2b63360d91b60448201526064016102df565b610b4b838361199b565b90505b92915050565b600080610b6081611b6e565b6000306001600160a01b031663a6afed956040518163ffffffff1660e01b81526004016020604051808303816000875af1158015610ba2573d6000803e3d6000fd5b505050506040513d601f19601f82011682018060405250810190610bc691906154aa565b14610c055760405162461bcd60e51b815260206004820152600f60248201526e085858d8dc9d59525b9d195c995cdd608a1b60448201526064016102df565b610c0e836113ab565b91505b610c1a81611c32565b50919050565b333014801590610ca25750600660009054906101000a90046001600160a01b03166001600160a01b031663dd5cd22c6040518163ffffffff1660e01b8152600401602060405180830381865afa158015610c7e573d6000803e3d6000fd5b505050506040513d601f19601f82011682018060405250810190610ca2919061550e565b15610d5c57600154600080546040516345cc970560e01b81526001600160a01b039182166004820152919283928392909116906345cc970590602401600060405180830381865afa158015610cfb573d6000803e3d6000fd5b505050506040513d6000823e601f3d908101601f19168201604052610d23919081019061552b565b60005492955090935091506001600160a01b03808516911614610d5057610d4b838383611cb5565b610d58565b610d58611e53565b5050505b565b336001600160a01b03891614610d9f5760405162461bcd60e51b815260206004820152600660248201526510b0b236b4b760d11b60448201526064016102df565b600c54158015610daf5750600d54155b610dea5760405162461bcd60e51b815260206004820152600c60248201526b085a5b9a5d1a585b1a5e995960a21b60448201526064016102df565b600180546001600160a01b0319166001600160a01b038a16179055600886905585610e495760405162461bcd60e51b815260206004820152600f60248201526e02165786368616e6765526174653e3608c1b60448201526064016102df565b600680546001600160a01b0319166001600160a01b038b81169190911790915543600c55670de0b6b3a7640000600d55604080516310c8fc9560e11b8152905191891691632191f92a916004808201926020929091908290030181865afa158015610eb8573d6000803e3d6000fd5b505050506040513d601f19601f82011682018060405250810190610edc919061550e565b610f125760405162461bcd60e51b8152602060048201526007602482015266216e6f7449726d60c81b60448201526064016102df565b600780546001600160a01b0319166001600160a01b038916908117909155604080516000815260208101929092527fedffc32e068c7c95dfd4bdfd5c4d939a084d6b11c4199eac8436ed234d72f926910160405180910390a18451610f7e906003906020880190614e9f565b508351610f92906004906020870190614e9f565b506005805460ff191660ff8516179055600a54600954670de0b6b3a76400009190610fbd90856155e1565b610fc791906155e1565b1115610fff5760405162461bcd60e51b8152602060048201526007602482015266085c998e9cd95d60ca1b60448201526064016102df565b600b8290556040805160008152602081018490527faaa68312e2ea9d50e16af5068410ab56e1a1fd06037b1a35664812c30f821460910160405180910390a160001981141561104d57506009545b6001546040805163dd86fea160e01b815290516000926001600160a01b03169163dd86fea19160048083019260209291908290030181865afa158015611097573d6000803e3d6000fd5b505050506040513d601f19601f820116820180604052508101906110bb91906154aa565b9050670de0b6b3a76400008183600b546110d591906155e1565b6110df91906155e1565b111561111d5760405162461bcd60e51b815260206004820152600d60248201526c0858591b5a5b9199594e9cd95d609a1b60448201526064016102df565b60098290556040805160008152602081018490527fcdd0b588250e1398549f79cfdb8217c186688822905d6715b0834ea1c865594a910160405180910390a1600a8190556040805160008152602081018390527f92eef861b6533b7d3417f39c2ad7b460eed4e88a32fa3604f30e718b7602e7dc910160405180910390a150506002805460ff60b01b1916600160b01b1790555050505050505050565b6000806111c78484611fc4565b50949350505050565b60006111da61208a565b905090565b6111e76120ff565b61121c5760405162461bcd60e51b815260206004820152600660248201526510b0b236b4b760d11b60448201526064016102df565b61125d848484848080601f016020809104026020016040519081016040528093929190818152602001838380828437600092019190915250611cb592505050565b50505050565b3330148061127457506112746120ff565b6112b25760405162461bcd60e51b815260206004820152600f60248201526e10b9b2b633103e3e1010b0b236b4b760891b60448201526064016102df565b50565b60606111da61226a565b6000610b4e826122dc565b6006546001546001600160a01b039182169116331480156113485750806001600160a01b0316632f1069ba6040518163ffffffff1660e01b8152600401602060405180830381865afa158015611324573d6000803e3d6000fd5b505050506040513d601f19601f82011682018060405250810190611348919061550e565b6113945760405162461bcd60e51b815260206004820152601f60248201527f21756e617574686f72697a6564202d206e6f2061646d696e207269676874730060448201526064016102df565b610d58838361237e565b60048054610a73906154c3565b6001600160a01b03811660009081526015602052604081208054829182918291906113dc5750600095945050505050565b6113ec8160000154600d5461239f565b90945092506000846003811115611405576114056154f8565b146114525760405162461bcd60e51b815260206004820152601e60248201527f216d756c55496e74206f766572666c6f7720636865636b206661696c6564000060448201526064016102df565b6114608382600101546123e1565b90945091506000846003811115611479576114796154f8565b146111c75760405162461bcd60e51b815260206004820152601e60248201527f2164697655496e74206f766572666c6f7720636865636b206661696c6564000060448201526064016102df565b6000806114d281611b6e565b6000306001600160a01b031663a6afed956040518163ffffffff1660e01b81526004016020604051808303816000875af1158015611514573d6000803e3d6000fd5b505050506040513d601f19601f8201168201806040525081019061153891906154aa565b905080156115645761155c816011811115611555576115556154f8565b603361240c565b925050610c11565b43600c54146115795761155c600a603561240c565b8361158261208a565b10156115945761155c600e603461240c565b6011548411156115aa5761155c6002603661240c565b6000846011546115ba91906155f9565b60118190556001549091506115d8906001600160a01b031686611856565b600093505050610c1a81611c32565b600080610b0083612485565b6000806115ff81611b6e565b6000306001600160a01b031663a6afed956040518163ffffffff1660e01b81526004016020604051808303816000875af1158015611641573d6000803e3d6000fd5b505050506040513d601f19601f8201168201806040525081019061166591906154aa565b905080156116895761155c816011811115611682576116826154f8565b603761240c565b43600c541461169e5761155c600a603961240c565b836116a761208a565b10156116b95761155c600e603861240c565b6010548411156116cf5761155c6002603a61240c565b836010546116dd91906155f9565b601055600654604080516303e1469160e61b81529051611755926001600160a01b03169163f851a4409160048083019260209291908290030181865afa15801561172b573d6000803e3d6000fd5b505050506040513d601f19601f8201168201806040525081019061174f9190615610565b85611856565b60005b925050610c1a81611c32565b6000600161177181611b6e565b61177d33868686612527565b9150610b0081611c32565b6001600160a01b03811660009081526013602052604081205481908190819081806117b2886113ab565b9150306001600160a01b031663182df0f56040518163ffffffff1660e01b8152600401602060405180830381865afa1580156117f2573d6000803e3d6000fd5b505050506040513d601f19601f8201168201806040525081019061181691906154aa565b90506000989297509095509350915050565b6000610b4e82612a0b565b6000610b4e82612aab565b60008061184c858585612b46565b5095945050505050565b604080516001600160a01b038416602482015260448082018490528251808303909101815260649091018252602080820180516001600160e01b031663a9059cbb60e01b1790528251808401909352601983527f544f4b454e5f5452414e534645525f4f55545f4641494c4544000000000000009083015261095491612cf7565b60008060006118e581611b6e565b6000306001600160a01b031663a6afed956040518163ffffffff1660e01b81526004016020604051808303816000875af1158015611927573d6000803e3d6000fd5b505050506040513d601f19601f8201168201806040525081019061194b91906154aa565b9050801561197b5761196f816011811115611968576119686154f8565b604161240c565b6000935093505061198c565b611986333387612d4e565b93509350505b61199581611c32565b50915091565b6016546040516370a0823160e01b815230600482015260009182916001600160a01b03909116906370a0823190602401602060405180830381865afa1580156119e8573d6000803e3d6000fd5b505050506040513d601f19601f82011682018060405250810190611a0c91906154aa565b9050611a9c6323b872dd60e01b853086604051602401611a2e9392919061562d565b604051602081830303815290604052906001600160e01b0319166020820180516001600160e01b0383818316178352505050506040518060400160405280601881526020017f544f4b454e5f5452414e534645525f494e5f4641494c45440000000000000000815250612cf7565b6016546040516370a0823160e01b81523060048201526000916001600160a01b0316906370a0823190602401602060405180830381865afa158015611ae5573d6000803e3d6000fd5b505050506040513d601f19601f82011682018060405250810190611b0991906154aa565b905081811015611b5b5760405162461bcd60e51b815260206004820152601a60248201527f544f4b454e5f5452414e534645525f494e5f4f564552464c4f5700000000000060448201526064016102df565b611b6582826155f9565b95945050505050565b600254600160b01b900460ff16611bb45760405162461bcd60e51b815260206004820152600a6024820152691c994b595b9d195c995960b21b60448201526064016102df565b80611c2257600660009054906101000a90046001600160a01b03166001600160a01b031663c90c20b16040518163ffffffff1660e01b8152600401600060405180830381600087803b158015611c0957600080fd5b505af1158015611c1d573d6000803e3d6000fd5b505050505b506002805460ff60b01b19169055565b6002805460ff60b01b1916600160b01b179055806112b257600660009054906101000a90046001600160a01b03166001600160a01b031663632e51426040518163ffffffff1660e01b8152600401600060405180830381600087803b158015611c9a57600080fd5b505af1158015611cae573d6000803e3d6000fd5b5050505050565b6001546000546040516338e6a07360e11b81526001600160a01b039182166004820152858216602482015284151560448201529116906371cd40e690606401602060405180830381865afa158015611d11573d6000803e3d6000fd5b505050506040513d601f19601f82011682018060405250810190611d35919061550e565b611d695760405162461bcd60e51b8152602060048201526005602482015264085a5b5c1b60da1b60448201526064016102df565b600080546001600160a01b038581166001600160a01b031983161790925516611d90611e53565b303b611da457611d9f82611263565b611e06565b611e043083604051602401611db99190615170565b60408051601f19818403018152918152602080830180516001600160e01b0316630adccee560e31b17905281518083019092526007825266216265636f6d6560c81b908201526130f3565b505b600054604080516001600160a01b03808516825290921660208301527fd604de94d45953f9138079ec1b82d533cb2160c906d1076d1f7ed54befbca97a910160405180910390a150505050565b600154600080546040516311a0e21760e01b81526001600160a01b039182166004820152919216906311a0e21790602401600060405180830381865afa158015611ea1573d6000803e3d6000fd5b505050506040513d6000823e601f3d908101601f19168201604052611ec99190810190615675565b90506000611ed561226a565b905081516001148015611ee9575080516001145b8015611f3a575080600081518110611f0357611f03615704565b60200260200101516001600160a01b031682600081518110611f2757611f27615704565b60200260200101516001600160a01b0316145b15611f43575050565b60005b8151811015611f8357611f71828281518110611f6457611f64615704565b6020026020010151613186565b80611f7b8161571a565b915050611f46565b5060005b8251811015610d5857611fb2838281518110611fa557611fa5615704565b60200260200101516132b6565b80611fbc8161571a565b915050611f87565b6000806000611fd281611b6e565b6000306001600160a01b031663a6afed956040518163ffffffff1660e01b81526004016020604051808303816000875af1158015612014573d6000803e3d6000fd5b505050506040513d601f19601f8201168201806040525081019061203891906154aa565b905080156120685761205c816011811115612055576120556154f8565b604061240c565b60009350935050612079565b612073338787612d4e565b93509350505b61208281611c32565b509250929050565b6016546040516370a0823160e01b81523060048201526000916001600160a01b03169081906370a0823190602401602060405180830381865afa1580156120d5573d6000803e3d6000fd5b505050506040513d601f19601f820116820180604052508101906120f991906154aa565b91505090565b600654604080516303e1469160e61b815290516000926001600160a01b031691829163f851a440916004808201926020929091908290030181865afa15801561214c573d6000803e3d6000fd5b505050506040513d601f19601f820116820180604052508101906121709190615610565b6001600160a01b0316336001600160a01b03161480156121ed5750806001600160a01b0316630a755ec26040518163ffffffff1660e01b8152600401602060405180830381865afa1580156121c9573d6000803e3d6000fd5b505050506040513d601f19601f820116820180604052508101906121ed919061550e565b806120f957506001546001600160a01b0316331480156120f95750806001600160a01b0316632f1069ba6040518163ffffffff1660e01b8152600401602060405180830381865afa158015612246573d6000803e3d6000fd5b505050506040513d601f19601f820116820180604052508101906120f9919061550e565b60606000805160206158c28339815191526002018054806020026020016040519081016040528092919081815260200182805480156122d257602002820191906000526020600020905b81546001600160a01b031681526001909101906020018083116122b4575b5050505050905090565b6000806122e881611b6e565b6000306001600160a01b031663a6afed956040518163ffffffff1660e01b81526004016020604051808303816000875af115801561232a573d6000803e3d6000fd5b505050506040513d601f19601f8201168201806040525081019061234e91906154aa565b905080156123725761155c81601181111561236b5761236b6154f8565b602a61240c565b611758336000866133ae565b6001600160a01b038116156123965761239681613186565b610954826132b6565b600080836123b2575060009050806123da565b838302836123c08683615735565b146123d3576002600092509250506123da565b6000925090505b9250929050565b600080826123f557506001905060006123da565b60006124018486615735565b915091509250929050565b60007f45b96fe442630264581b197e84bbada861235052c5a1aadfff9ea4e40a969aa0836011811115612441576124416154f8565b836061811115612453576124536154f8565b60408051928352602083019190915260009082015260600160405180910390a1826011811115610b4b57610b4b6154f8565b600080600061249381611b6e565b6000306001600160a01b031663a6afed956040518163ffffffff1660e01b81526004016020604051808303816000875af11580156124d5573d6000803e3d6000fd5b505050506040513d601f19601f820116820180604052508101906124f991906154aa565b9050801561251d5761196f816011811115612516576125166154f8565b602061240c565b6119863386613a44565b60065460405163d02f735160e01b81523060048201526001600160a01b0386811660248301528581166044830152848116606483015260848201849052600092839291169063d02f73519060a4016020604051808303816000875af1158015612594573d6000803e3d6000fd5b505050506040513d601f19601f820116820180604052508101906125b891906154aa565b905080156125d5576125cd6003601d83613dbc565b915050612a03565b846001600160a01b0316846001600160a01b031614156125fb576125cd6006601e61240c565b612660604080516101808101909152806000815260200160008152602001600081526020016000815260200160008152602001600081526020016000815260200160008152602001600081526020016000815260200160008152602001600081525090565b6001600160a01b0385166000908152601360205260409020546126839085613e5e565b602083018190528282600381111561269d5761269d6154f8565b60038111156126ae576126ae6154f8565b90525060009050815160038111156126c8576126c86154f8565b146126f8576126ef6009601c836000015160038111156126ea576126ea6154f8565b613dbc565b92505050612a03565b612717846040518060200160405280666379da05b60000815250613e89565b6080820152604080516020810190915267016345785d8a0000815261273d908590613e89565b6101408201819052608082015161275490866155f9565b61275e91906155f9565b6060820152306001600160a01b031663182df0f56040518163ffffffff1660e01b8152600401602060405180830381865afa1580156127a1573d6000803e3d6000fd5b505050506040513d601f19601f820116820180604052508101906127c591906154aa565b60c0820190815260408051602081019091529051815260808201516127ea9190613eac565b60a0820152604080516020810190915260c082015181526101408201516128119190613eac565b61016082015260a0810151600f5461282991906155e1565b60e0820152610140810151608082015160125461284691906155f9565b61285091906155f9565b61012082015261016081015160115461286991906155e1565b6101008201526001600160a01b03861660009081526013602052604090205460608201516128979190613ec4565b60408301819052828260038111156128b1576128b16154f8565b60038111156128c2576128c26154f8565b90525060009050815160038111156128dc576128dc6154f8565b146128fe576126ef6009601b836000015160038111156126ea576126ea6154f8565b60e0810151600f556101208101516012556101008101516011556020808201516001600160a01b0387811660008181526013855260408082209490945583860151928b16808252908490209290925560608501519251928352909290916000805160206158e2833981519152910160405180910390a3306001600160a01b0316856001600160a01b03166000805160206158e283398151915283608001516040516129ab91815260200190565b60405180910390a360a081015160e08201516040805130815260208101939093528201527fa91e67c5ea634cd43a12c5a482724b03de01e85ca68702a53d0c2f45cb7c1dc59060600160405180910390a16000925050505b949350505050565b600080612a1781611b6e565b6000306001600160a01b031663a6afed956040518163ffffffff1660e01b81526004016020604051808303816000875af1158015612a59573d6000803e3d6000fd5b505050506040513d601f19601f82011682018060405250810190612a7d91906154aa565b90508015612aa15761155c816011811115612a9a57612a9a6154f8565b600a61240c565b6117583385613eea565b600080612ab781611b6e565b6000306001600160a01b031663a6afed956040518163ffffffff1660e01b81526004016020604051808303816000875af1158015612af9573d6000803e3d6000fd5b505050506040513d601f19601f82011682018060405250810190612b1d91906154aa565b90508015612b3a5761155c81601181111561236b5761236b6154f8565b611758338560006133ae565b6000806000612b5481611b6e565b6000306001600160a01b031663a6afed956040518163ffffffff1660e01b81526004016020604051808303816000875af1158015612b96573d6000803e3d6000fd5b505050506040513d601f19601f82011682018060405250810190612bba91906154aa565b90508015612bea57612bde816011811115612bd757612bd76154f8565b601161240c565b60009350935050612ce5565b846001600160a01b0316639f5ef2726040518163ffffffff1660e01b8152600401602060405180830381865afa158015612c28573d6000803e3d6000fd5b505050506040513d601f19601f82011682018060405250810190612c4c9190615610565b6001600160a01b031663a6afed956040518163ffffffff1660e01b81526004016020604051808303816000875af1158015612c8b573d6000803e3d6000fd5b505050506040513d601f19601f82011682018060405250810190612caf91906154aa565b90508015612cd357612bde816011811115612ccc57612ccc6154f8565b601261240c565b612cdf33888888614219565b93509350505b612cee81611c32565b50935093915050565b601654600090612d11906001600160a01b031684846130f3565b805190915015610d585780806020019051810190612d2f919061550e565b829061125d5760405162461bcd60e51b81526004016102df9190615170565b600654604051631200453160e11b81523060048201526001600160a01b03858116602483015284811660448301526064820184905260009283928392909116906324008a62906084016020604051808303816000875af1158015612db6573d6000803e3d6000fd5b505050506040513d601f19601f82011682018060405250810190612dda91906154aa565b90508015612dfb57612def6003604383613dbc565b600092509250506130eb565b43600c5414612e1057612def600a604461240c565b612e596040805161010081019091528060008152602001600081526020016000815260200160008152602001600081526020016000815260200160008152602001600081525090565b6001600160a01b0386166000908152601560205260409020600101546060820152612e83866113ab565b6080820152600019851415612ea15760808101516040820152612ea9565b604081018590525b612eb787826040015161199b565b60e082018190526080820151612ecc91613e5e565b60a0830181905260208301826003811115612ee957612ee96154f8565b6003811115612efa57612efa6154f8565b9052506000905081602001516003811115612f1757612f176154f8565b14612f8a5760405162461bcd60e51b815260206004820152603a60248201527f52455041595f424f52524f575f4e45575f4143434f554e545f424f52524f575f60448201527f42414c414e43455f43414c43554c4154494f4e5f4641494c454400000000000060648201526084016102df565b612f9a600e548260e00151613e5e565b60c0830181905260208301826003811115612fb757612fb76154f8565b6003811115612fc857612fc86154f8565b9052506000905081602001516003811115612fe557612fe56154f8565b1461304c5760405162461bcd60e51b815260206004820152603160248201527f52455041595f424f52524f575f4e45575f544f54414c5f42414c414e43455f43604482015270105310d55310551253d397d19052531151607a1b60648201526084016102df565b60a081810180516001600160a01b03898116600081815260156020908152604091829020948555600d5460019095019490945560c0870151600e81905560e088015195518251948f16855294840192909252820193909352606081019190915260808101919091527f1a2a22cb034d26d1854bdc6666a5b91fe25efbbb5dcad3b0355478d6f5c362a1910160405180910390a160e00151600093509150505b935093915050565b6060600080856001600160a01b0316856040516131109190615757565b6000604051808303816000865af19150503d806000811461314d576040519150601f19603f3d011682016040523d82523d6000602084013e613152565b606091505b509150915081611b655780511561316c5780518082602001fd5b8360405162461bcd60e51b81526004016102df9190615170565b6000805160206158c283398151915261319e8261472e565b60005b600282015460ff82161015610d5857826001600160a01b0316826002018260ff16815481106131d2576131d2615704565b6000918252602090912001546001600160a01b031614156132a4576002820180546131ff906001906155f9565b8154811061320f5761320f615704565b6000918252602090912001546002830180546001600160a01b039092169160ff841690811061324057613240615704565b9060005260206000200160006101000a8154816001600160a01b0302191690836001600160a01b031602179055508160020180548061328157613281615773565b600082815260209020810160001990810180546001600160a01b03191690550190555b806132ae81615789565b9150506131a1565b6000805160206158c283398151915260005b600282015460ff8216101561336e57826001600160a01b0316826002018260ff16815481106132f9576132f9615704565b6000918252602090912001546001600160a01b0316141561335c5760405162461bcd60e51b815260206004820152601760248201527f657874656e73696f6e20616c726561647920616464656400000000000000000060448201526064016102df565b8061336681615789565b9150506132c8565b50613378826149bb565b6002018054600181018255600091825260209091200180546001600160a01b0319166001600160a01b0392909216919091179055565b60008215806133bb575081155b6134075760405162461bcd60e51b815260206004820152601860248201527f2172656465656d20746f6b656e73206f7220616d6f756e74000000000000000060448201526064016102df565b6134486040805160e0810190915280600081526020016000815260200160008152602001600081526020016000815260200160008152602001600081525090565b306001600160a01b031663182df0f56040518163ffffffff1660e01b8152600401602060405180830381865afa158015613486573d6000803e3d6000fd5b505050506040513d601f19601f820116820180604052508101906134aa91906154aa565b604082015260001983141561353757600654604051630cbb414760e11b81526001600160a01b0387811660048301523060248301526000604483015290911690631976828e90606401602060405180830381865afa158015613510573d6000803e3d6000fd5b505050506040513d601f19601f8201168201806040525081019061353491906154aa565b92505b6000306001600160a01b0316634aeb3d9a6040518163ffffffff1660e01b8152600401602060405180830381865afa158015613577573d6000803e3d6000fd5b505050506040513d601f19601f8201168201806040525081019061359b91906154aa565b90506103e86135aa85836155f9565b10156135b4578093505b84156136565760608201859052604080516020810182529083015181526135db9086614ba5565b60808401819052602084018260038111156135f8576135f86154f8565b6003811115613609576136096154f8565b9052506000905082602001516003811115613626576136266154f8565b14613651576136486009602c846020015160038111156126ea576126ea6154f8565b9250505061090c565b6136e7565b6136728460405180602001604052808560400151815250614bf7565b606084018190526020840182600381111561368f5761368f6154f8565b60038111156136a0576136a06154f8565b90525060009050826020015160038111156136bd576136bd6154f8565b146136df576136486009602d846020015160038111156126ea576126ea6154f8565b608082018490525b6103e882606001516012546136fc91906155f9565b101561370b5760125460608301525b600654606083015160405163eabe7d9160e01b81526000926001600160a01b03169163eabe7d91916137449130918c919060040161562d565b6020604051808303816000875af1158015613763573d6000803e3d6000fd5b505050506040513d601f19601f8201168201806040525081019061378791906154aa565b905080156137a65761379c6003602b83613dbc565b935050505061090c565b43600c54146137bb5761379c600a602f61240c565b6137cb6012548460600151613e5e565b60a08501819052602085018260038111156137e8576137e86154f8565b60038111156137f9576137f96154f8565b9052506000905083602001516003811115613816576138166154f8565b146138385761379c60096031856020015160038111156126ea576126ea6154f8565b6001600160a01b03871660009081526013602052604090205460608401516138609190613e5e565b60c085018190526020850182600381111561387d5761387d6154f8565b600381111561388e5761388e6154f8565b90525060009050836020015160038111156138ab576138ab6154f8565b146138cd5761379c60096030856020015160038111156126ea576126ea6154f8565b82608001516138da61208a565b10156138ec5761379c600e603261240c565b60a083015160125560c08301516001600160a01b0388166000908152601360205260409020556080830151613922908890611856565b306001600160a01b0316876001600160a01b03166000805160206158e2833981519152856060015160405161395991815260200190565b60405180910390a36080830151606080850151604080516001600160a01b038c16815260208101949094528301527fe5b754fb1abb7f01b499791d0b820ae3b6af3424ac1c59768edb53f4ec31a929910160405180910390a1600654608084015160608501516040516351dff98960e01b81523060048201526001600160a01b038b81166024830152604482019390935260648101919091529116906351dff98990608401600060405180830381600087803b158015613a1857600080fd5b505af1158015613a2c573d6000803e3d6000fd5b5060009250613a39915050565b979650505050505050565b600654604051634ef4c3e160e01b8152600091829182916001600160a01b031690634ef4c3e190613a7d9030908990899060040161562d565b6020604051808303816000875af1158015613a9c573d6000803e3d6000fd5b505050506040513d601f19601f82011682018060405250810190613ac091906154aa565b90508015613ae157613ad56003602183613dbc565b600092509250506123da565b43600c5414613af657613ad5600a602461240c565b613b376040805160e0810190915280600081526020016000815260200160008152602001600081526020016000815260200160008152602001600081525090565b306001600160a01b031663182df0f56040518163ffffffff1660e01b8152600401602060405180830381865afa158015613b75573d6000803e3d6000fd5b505050506040513d601f19601f82011682018060405250810190613b9991906154aa565b6040820152613ba8868661199b565b60c0820181905260408051602081018252908301518152613bc99190614bf7565b6060830181905260208301826003811115613be657613be66154f8565b6003811115613bf757613bf76154f8565b9052506000905081602001516003811115613c1457613c146154f8565b14613c615760405162461bcd60e51b815260206004820181905260248201527f4d494e545f45584348414e47455f43414c43554c4154494f4e5f4641494c454460448201526064016102df565b6000816060015111613cb55760405162461bcd60e51b815260206004820152601a60248201527f4d494e545f5a45524f5f43544f4b454e535f52454a454354454400000000000060448201526064016102df565b8060600151601254613cc791906155e1565b608082015260608101516001600160a01b038716600090815260136020526040902054613cf491906155e1565b60a0820181905260808201516012556001600160a01b0387166000818152601360209081526040918290209390935560c0840151606080860151835194855294840191909152908201929092527f4c209b5fc8ad50758f13e2e1088ba56a560dff690a1c6fef26394f4c03821c4f910160405180910390a1856001600160a01b0316306001600160a01b03166000805160206158e28339815191528360600151604051613da391815260200190565b60405180910390a360c001516000969095509350505050565b60007f45b96fe442630264581b197e84bbada861235052c5a1aadfff9ea4e40a969aa0846011811115613df157613df16154f8565b846061811115613e0357613e036154f8565b604080519283526020830191909152810184905260600160405180910390a16003846011811115613e3657613e366154f8565b14613e5257836011811115613e4d57613e4d6154f8565b612a03565b612a03826103e86155e1565b600080838311613e7d576000613e7484866155f9565b915091506123da565b506003905060006123da565b6000670de0b6b3a7640000613ea2848460000151614c07565b610b4b9190615735565b600080613eb98484614c49565b9050612a0381614c7a565b600080838301848110613edc576000925090506123da565b6002600092509250506123da565b60065460405163368f515360e21b815260009182916001600160a01b039091169063da3d454c90613f239030908890889060040161562d565b6020604051808303816000875af1158015613f42573d6000803e3d6000fd5b505050506040513d601f19601f82011682018060405250810190613f6691906154aa565b90508015613f8357613f7b6003601083613dbc565b915050610b4e565b43600c5414613f9857613f7b600a600c61240c565b6000613fa261208a565b905083811015613fc157613fb8600e600b61240c565b92505050610b4e565b613fed604080516080810190915280600081526020016000815260200160008152602001600081525090565b613ff6866113ab565b602082018190526140079086613ec4565b6040830181905282826003811115614021576140216154f8565b6003811115614032576140326154f8565b905250600090508151600381111561404c5761404c6154f8565b146140785761406e6009600e836000015160038111156126ea576126ea6154f8565b9350505050610b4e565b6006546040828101519051631de6c8a560e21b815230600482015260248101919091526001600160a01b039091169063779b229490604401602060405180830381865afa1580156140cd573d6000803e3d6000fd5b505050506040513d601f19601f820116820180604052508101906140f191906154aa565b925082156141065761406e6003601085613dbc565b614112600e5486613ec4565b606083018190528282600381111561412c5761412c6154f8565b600381111561413d5761413d6154f8565b9052506000905081516003811115614157576141576154f8565b146141795761406e6009600d836000015160038111156126ea576126ea6154f8565b6040808201516001600160a01b0388166000908152601560205291909120908155600d546001909101556060810151600e556141b58686611856565b60408082015160608084015183516001600160a01b038b168152602081018a9052938401929092528201527f13ed6866d4e1ee6da46f845c46d7e54120883d75c5ea9a2dacc1c4ca8984ab809060800160405180910390a160009695505050505050565b600654604051632fe3f38f60e11b81523060048201526001600160a01b03838116602483015286811660448301528581166064830152608482018590526000928392839290911690635fc7e71e9060a4016020604051808303816000875af1158015614289573d6000803e3d6000fd5b505050506040513d601f19601f820116820180604052508101906142ad91906154aa565b905080156142ce576142c26003601483613dbc565b60009250925050614725565b43600c54146142e3576142c2600a601861240c565b43846001600160a01b0316636c540baf6040518163ffffffff1660e01b8152600401602060405180830381865afa158015614322573d6000803e3d6000fd5b505050506040513d601f19601f8201168201806040525081019061434691906154aa565b14614357576142c2600a601361240c565b866001600160a01b0316866001600160a01b0316141561437d576142c26006601961240c565b8461438e576142c26007601761240c565b6000198514156143a4576142c26007601661240c565b6000806143b2898989612d4e565b909250905081156143e7576143d98260118111156143d2576143d26154f8565b601a61240c565b600094509450505050614725565b60065460405163c488847b60e01b815260009182916001600160a01b039091169063c488847b906144209030908c90889060040161562d565b6040805180830381865afa15801561443c573d6000803e3d6000fd5b505050506040513d601f19601f8201168201806040525081019061446091906157a9565b909250905081156144cf5760405162461bcd60e51b815260206004820152603360248201527f4c49515549444154455f434f4d5054524f4c4c45525f43414c43554c4154455f604482015272105353d5539517d4d152569157d19052531151606a1b60648201526084016102df565b80886001600160a01b0316639f5ef2726040518163ffffffff1660e01b8152600401602060405180830381865afa15801561450e573d6000803e3d6000fd5b505050506040513d601f19601f820116820180604052508101906145329190615610565b6040516370a0823160e01b81526001600160a01b038d8116600483015291909116906370a0823190602401602060405180830381865afa15801561457a573d6000803e3d6000fd5b505050506040513d601f19601f8201168201806040525081019061459e91906154aa565b10156145ec5760405162461bcd60e51b815260206004820152601860248201527f4c49515549444154455f5345495a455f544f4f5f4d554348000000000000000060448201526064016102df565b60006001600160a01b0389163014156146125761460b308d8d85612527565b9050614688565b60405163b2a02ff160e01b81526001600160a01b038a169063b2a02ff190614642908f908f90879060040161562d565b6020604051808303816000875af1158015614661573d6000803e3d6000fd5b505050506040513d601f19601f8201168201806040525081019061468591906154aa565b90505b80156146bf5760405162461bcd60e51b8152602060048201526006602482015265217365697a6560d01b60448201526064016102df565b604080516001600160a01b038e811682528d811660208301528183018790528b1660608201526080810184905290517f298637f684da70674f26509b10f07ec2fbc77a335ab1e7d6215a4b2484d8bb529181900360a00190a16000975092955050505050505b94509492505050565b6000816001600160a01b03166389f8132e6040518163ffffffff1660e01b8152600401600060405180830381865afa15801561476e573d6000803e3d6000fd5b505050506040513d6000823e601f3d908101601f1916820160405261479691908101906157cd565b90506000805160206158c283398151915260005b82518161ffff16101561125d576000838261ffff16815181106147cf576147cf615704565b6020908102919091018101516001600160e01b031981166000908152918590526040909120549091506001600160a01b038681169116146148125761481261586a565b6001600160e01b0319811660009081526020849052604090205460018085018054600160a01b90930461ffff1692909161484b916155f9565b8154811061485b5761485b615704565b90600052602060002090600891828204019190066004029054906101000a900460e01b846001018261ffff168154811061489757614897615704565b90600052602060002090600891828204019190066004026101000a81548163ffffffff021916908360e01c021790555080846000016000866001018461ffff16815481106148e7576148e7615704565b6000918252602080832060088304015460079092166004026101000a90910460e01b6001600160e01b03191683528201929092526040019020805461ffff60a01b1916600160a01b61ffff93909316929092029190911790556001840180548061495357614953615773565b60008281526020808220600860001990940193840401805463ffffffff600460078716026101000a0219169055919092556001600160e01b0319909316815291849052506040902080546001600160b01b0319169055806149b381615880565b9150506147aa565b6000816001600160a01b03166389f8132e6040518163ffffffff1660e01b8152600401600060405180830381865afa1580156149fb573d6000803e3d6000fd5b505050506040513d6000823e601f3d908101601f19168201604052614a2391908101906157cd565b7fc8fcad8db84d3cc18b4c41d551ea0ee66dd599cde068d998e57d5e09332c131d549091506000805160206158c28339815191529060005b8351811015611cae576000848281518110614a7857614a78615704565b6020908102919091018101516001600160e01b031981166000908152918690526040909120549091506001600160a01b03168015614ae457604051632c18df3360e01b81526001600160e01b0319831660048201526001600160a01b03821660248201526044016102df565b6040805180820182526001600160a01b03808a16825261ffff80881660208085019182526001600160e01b0319881660009081528b8252958620945185549251909316600160a01b026001600160b01b0319909216929093169190911717909155600180880180549182018155835291206008820401805460e085901c60046007909416939093026101000a92830263ffffffff909302191691909117905583614b8d81615880565b94505050508080614b9d9061571a565b915050614a5b565b600080600080614bb58686614c92565b90925090506000826003811115614bce57614bce6154f8565b14614bdf57509150600090506123da565b6000614bea82614c7a565b9350935050509250929050565b600080600080614bb58686614d0e565b6000610b4b83836040518060400160405280601781526020017f6d756c7469706c69636174696f6e206f766572666c6f77000000000000000000815250614d81565b6040805160208101909152600081526040518060200160405280614c71856000015185614c07565b90529392505050565b8051600090610b4e90670de0b6b3a764000090615735565b6000614caa6040518060200160405280600081525090565b600080614cbb86600001518661239f565b90925090506000826003811115614cd457614cd46154f8565b14614cf3575060408051602081019091526000815290925090506123da565b60408051602081019091529081526000969095509350505050565b6000614d266040518060200160405280600081525090565b600080614d3b670de0b6b3a76400008761239f565b90925090506000826003811115614d5457614d546154f8565b14614d73575060408051602081019091526000815290925090506123da565b614bea818660000151614dd4565b6000831580614d8e575082155b15614d9b5750600061090c565b6000614da784866158a2565b905083614db48683615735565b1483906111c75760405162461bcd60e51b81526004016102df9190615170565b6000614dec6040518060200160405280600081525090565b600080614e0186670de0b6b3a764000061239f565b90925090506000826003811115614e1a57614e1a6154f8565b14614e39575060408051602081019091526000815290925090506123da565b600080614e4683886123e1565b90925090506000826003811115614e5f57614e5f6154f8565b14614e8257816040518060200160405280600081525095509550505050506123da565b604080516020810190915290815260009890975095505050505050565b828054614eab906154c3565b90600052602060002090601f016020900481019282614ecd5760008555614f13565b82601f10614ee657805160ff1916838001178555614f13565b82800160010185558215614f13579182015b82811115614f13578251825591602001919060010190614ef8565b50614f1f929150614f23565b5090565b5b80821115614f1f5760008155600101614f24565b6001600160a01b03811681146112b257600080fd5b60008060408385031215614f6057600080fd5b8235614f6b81614f38565b946020939093013593505050565b8035614f8481614f38565b919050565b634e487b7160e01b600052604160045260246000fd5b604051601f8201601f1916810167ffffffffffffffff81118282101715614fc857614fc8614f89565b604052919050565b600067ffffffffffffffff821115614fea57614fea614f89565b50601f01601f191660200190565b600061500b61500684614fd0565b614f9f565b905082815283838301111561501f57600080fd5b828260208301376000602084830101529392505050565b600082601f83011261504757600080fd5b610b4b83833560208501614ff8565b600080600080600080600080610100898b03121561507357600080fd5b883561507e81614f38565b9750602089013561508e81614f38565b9650604089013561509e81614f38565b955060608901356150ae81614f38565b9450608089013567ffffffffffffffff808211156150cb57600080fd5b6150d78c838d01615036565b955060a08b01359150808211156150ed57600080fd5b506150fa8b828c01615036565b93505060c0890135915060e089013590509295985092959890939650565b60005b8381101561513357818101518382015260200161511b565b8381111561125d5750506000910152565b6000815180845261515c816020860160208601615118565b601f01601f19169290920160200192915050565b602081526000610b4b6020830184615144565b60006020828403121561519557600080fd5b5035919050565b6000602082840312156151ae57600080fd5b813561090c81614f38565b60ff811681146112b257600080fd5b8035614f84816151b9565b60008060008060008060008060006101208a8c0312156151f257600080fd5b89356151fd81614f38565b985060208a013561520d81614f38565b975061521b60408b01614f79565b965060608a0135955060808a013567ffffffffffffffff8082111561523f57600080fd5b61524b8d838e01615036565b965060a08c013591508082111561526157600080fd5b5061526e8c828d01615036565b94505061527d60c08b016151c8565b925060e08a013591506101008a013590509295985092959850929598565b80151581146112b257600080fd5b600080600080606085870312156152bf57600080fd5b84356152ca81614f38565b935060208501356152da8161529b565b9250604085013567ffffffffffffffff808211156152f757600080fd5b818701915087601f83011261530b57600080fd5b81358181111561531a57600080fd5b88602082850101111561532c57600080fd5b95989497505060200194505050565b60006020828403121561534d57600080fd5b813567ffffffffffffffff81111561536457600080fd5b8201601f8101841361537557600080fd5b612a0384823560208401614ff8565b6020808252825182820181905260009190848201906040850190845b818110156153c55783516001600160a01b0316835292840192918401916001016153a0565b50909695505050505050565b600080604083850312156153e457600080fd5b82356153ef81614f38565b915060208301356153ff81614f38565b809150509250929050565b60008060006060848603121561541f57600080fd5b833561542a81614f38565b9250602084013561543a81614f38565b929592945050506040919091013590565b60008060006060848603121561546057600080fd5b833561546b81614f38565b925060208401359150604084013561548281614f38565b809150509250925092565b60006020828403121561549f57600080fd5b815161090c816151b9565b6000602082840312156154bc57600080fd5b5051919050565b600181811c908216806154d757607f821691505b60208210811415610c1a57634e487b7160e01b600052602260045260246000fd5b634e487b7160e01b600052602160045260246000fd5b60006020828403121561552057600080fd5b815161090c8161529b565b60008060006060848603121561554057600080fd5b835161554b81614f38565b602085015190935061555c8161529b565b604085015190925067ffffffffffffffff81111561557957600080fd5b8401601f8101861361558a57600080fd5b805161559861500682614fd0565b8181528760208385010111156155ad57600080fd5b6155be826020830160208601615118565b8093505050509250925092565b634e487b7160e01b600052601160045260246000fd5b600082198211156155f4576155f46155cb565b500190565b60008282101561560b5761560b6155cb565b500390565b60006020828403121561562257600080fd5b815161090c81614f38565b6001600160a01b039384168152919092166020820152604081019190915260600190565b600067ffffffffffffffff82111561566b5761566b614f89565b5060051b60200190565b6000602080838503121561568857600080fd5b825167ffffffffffffffff81111561569f57600080fd5b8301601f810185136156b057600080fd5b80516156be61500682615651565b81815260059190911b820183019083810190878311156156dd57600080fd5b928401925b82841015613a395783516156f581614f38565b825292840192908401906156e2565b634e487b7160e01b600052603260045260246000fd5b600060001982141561572e5761572e6155cb565b5060010190565b60008261575257634e487b7160e01b600052601260045260246000fd5b500490565b60008251615769818460208701615118565b9190910192915050565b634e487b7160e01b600052603160045260246000fd5b600060ff821660ff8114156157a0576157a06155cb565b60010192915050565b600080604083850312156157bc57600080fd5b505080516020909101519092909150565b600060208083850312156157e057600080fd5b825167ffffffffffffffff8111156157f757600080fd5b8301601f8101851361580857600080fd5b805161581661500682615651565b81815260059190911b8201830190838101908783111561583557600080fd5b928401925b82841015613a395783516001600160e01b03198116811461585b5760008081fd5b8252928401929084019061583a565b634e487b7160e01b600052600160045260246000fd5b600061ffff80831681811415615898576158986155cb565b6001019392505050565b60008160001904831182151516156158bc576158bc6155cb565b50029056fec8fcad8db84d3cc18b4c41d551ea0ee66dd599cde068d998e57d5e09332c131cddf252ad1be2c89b69c2b068fc378daa952ba7f163c4a11628f55a4df523b3efa164736f6c634300080a000a",
    "linkReferences": {}
  },
  "methodIdentifiers": {
    "_becomeImplementation(bytes)": "56e67728",
    "_listExtensions()": "6333d001",
    "_prepare()": "1db78944",
    "_registerExtension(address,address)": "89cd9855",
    "_setImplementationSafe(address,bool,bytes)": "50d85b73",
    "_withdrawAdminFees(uint256)": "a7b820df",
    "_withdrawFuseFees(uint256)": "a03dce8d",
    "accrualBlockNumber()": "6c540baf",
    "adminFeeMantissa()": "8d02d9a1",
    "asCTokenExtensionInterface()": "9f5ef272",
    "borrow(uint256)": "c5ebeaec",
    "borrowBalanceCurrent(address)": "17bfdfbc",
    "borrowBalanceStored(address)": "95dd9193",
    "borrowIndex()": "aa5af0fd",
    "comptroller()": "5fe3b567",
    "contractType()": "cb2ef6f7",
    "decimals()": "313ce567",
    "feeSeizeShareMantissa()": "be99f119",
    "fuseAdmin()": "15761d51",
    "fuseFeeMantissa()": "dbfe7c19",
    "getAccountSnapshot(address)": "c37f68e2",
    "getCash()": "3b1d21a2",
    "implementation()": "5c60da1b",
    "initialize(address,address,address,address,string,string,uint256,uint256)": "06db3ecd",
    "initialize(address,address,address,uint256,string,string,uint8,uint256,uint256)": "219ef65c",
    "interestRateModel()": "f3fdb15a",
    "isCEther()": "ac784ddc",
    "isCToken()": "fe9c44ae",
    "liquidateBorrow(address,uint256,address)": "f5e3c462",
    "mint(uint256)": "a0712d68",
    "name()": "06fdde03",
    "protocolSeizeShareMantissa()": "6752e702",
    "redeem(uint256)": "db006a75",
    "redeemUnderlying(uint256)": "852a12e3",
    "repayBorrow(uint256)": "0e752702",
    "repayBorrowBehalf(address,uint256)": "2608f818",
    "reserveFactorMantissa()": "173b9904",
    "seize(address,address,uint256)": "b2a02ff1",
    "selfTransferIn(address,uint256)": "135f1334",
    "selfTransferOut(address,uint256)": "067db1b3",
    "symbol()": "95d89b41",
    "totalAdminFees()": "61feacff",
    "totalBorrows()": "47bd3718",
    "totalFuseFees()": "dc028ab1",
    "totalReserves()": "8f840ddd",
    "totalSupply()": "18160ddd",
    "underlying()": "6f307dc3"
  }
}