{
  "address": "0x6c2159F6171Ab35092e7883E8458C87b9570482D",
  "abi": [
    {
      "inputs": [],
      "stateMutability": "nonpayable",
      "type": "constructor"
    },
    {
      "anonymous": false,
      "inputs": [
        {
          "indexed": false,
          "internalType": "uint256",
          "name": "cashPrior",
          "type": "uint256"
        },
        {
          "indexed": false,
          "internalType": "uint256",
          "name": "interestAccumulated",
          "type": "uint256"
        },
        {
          "indexed": false,
          "internalType": "uint256",
          "name": "borrowIndex",
          "type": "uint256"
        },
        {
          "indexed": false,
          "internalType": "uint256",
          "name": "totalBorrows",
          "type": "uint256"
        }
      ],
      "name": "AccrueInterest",
      "type": "event"
    },
    {
      "anonymous": false,
      "inputs": [
        {
          "indexed": true,
          "internalType": "address",
          "name": "owner",
          "type": "address"
        },
        {
          "indexed": true,
          "internalType": "address",
          "name": "spender",
          "type": "address"
        },
        {
          "indexed": false,
          "internalType": "uint256",
          "name": "amount",
          "type": "uint256"
        }
      ],
      "name": "Approval",
      "type": "event"
    },
    {
      "anonymous": false,
      "inputs": [
        {
          "indexed": false,
          "internalType": "address",
          "name": "borrower",
          "type": "address"
        },
        {
          "indexed": false,
          "internalType": "uint256",
          "name": "borrowAmount",
          "type": "uint256"
        },
        {
          "indexed": false,
          "internalType": "uint256",
          "name": "accountBorrows",
          "type": "uint256"
        },
        {
          "indexed": false,
          "internalType": "uint256",
          "name": "totalBorrows",
          "type": "uint256"
        }
      ],
      "name": "Borrow",
      "type": "event"
    },
    {
      "anonymous": false,
      "inputs": [
        {
          "indexed": false,
          "internalType": "uint256",
          "name": "error",
          "type": "uint256"
        },
        {
          "indexed": false,
          "internalType": "uint256",
          "name": "info",
          "type": "uint256"
        },
        {
          "indexed": false,
          "internalType": "uint256",
          "name": "detail",
          "type": "uint256"
        }
      ],
      "name": "Failure",
      "type": "event"
    },
    {
      "anonymous": false,
      "inputs": [
        {
          "indexed": false,
          "internalType": "address",
          "name": "liquidator",
          "type": "address"
        },
        {
          "indexed": false,
          "internalType": "address",
          "name": "borrower",
          "type": "address"
        },
        {
          "indexed": false,
          "internalType": "uint256",
          "name": "repayAmount",
          "type": "uint256"
        },
        {
          "indexed": false,
          "internalType": "address",
          "name": "cTokenCollateral",
          "type": "address"
        },
        {
          "indexed": false,
          "internalType": "uint256",
          "name": "seizeTokens",
          "type": "uint256"
        }
      ],
      "name": "LiquidateBorrow",
      "type": "event"
    },
    {
      "anonymous": false,
      "inputs": [
        {
          "indexed": false,
          "internalType": "address",
          "name": "minter",
          "type": "address"
        },
        {
          "indexed": false,
          "internalType": "uint256",
          "name": "mintAmount",
          "type": "uint256"
        },
        {
          "indexed": false,
          "internalType": "uint256",
          "name": "mintTokens",
          "type": "uint256"
        }
      ],
      "name": "Mint",
      "type": "event"
    },
    {
      "anonymous": false,
      "inputs": [
        {
          "indexed": false,
          "internalType": "uint256",
          "name": "oldAdminFeeMantissa",
          "type": "uint256"
        },
        {
          "indexed": false,
          "internalType": "uint256",
          "name": "newAdminFeeMantissa",
          "type": "uint256"
        }
      ],
      "name": "NewAdminFee",
      "type": "event"
    },
    {
      "anonymous": false,
      "inputs": [
        {
          "indexed": false,
          "internalType": "contract ComptrollerInterface",
          "name": "oldComptroller",
          "type": "address"
        },
        {
          "indexed": false,
          "internalType": "contract ComptrollerInterface",
          "name": "newComptroller",
          "type": "address"
        }
      ],
      "name": "NewComptroller",
      "type": "event"
    },
    {
      "anonymous": false,
      "inputs": [
        {
          "indexed": false,
          "internalType": "uint256",
          "name": "oldFuseFeeMantissa",
          "type": "uint256"
        },
        {
          "indexed": false,
          "internalType": "uint256",
          "name": "newFuseFeeMantissa",
          "type": "uint256"
        }
      ],
      "name": "NewFuseFee",
      "type": "event"
    },
    {
      "anonymous": false,
      "inputs": [
        {
          "indexed": false,
          "internalType": "address",
          "name": "oldImplementation",
          "type": "address"
        },
        {
          "indexed": false,
          "internalType": "address",
          "name": "newImplementation",
          "type": "address"
        }
      ],
      "name": "NewImplementation",
      "type": "event"
    },
    {
      "anonymous": false,
      "inputs": [
        {
          "indexed": false,
          "internalType": "contract InterestRateModel",
          "name": "oldInterestRateModel",
          "type": "address"
        },
        {
          "indexed": false,
          "internalType": "contract InterestRateModel",
          "name": "newInterestRateModel",
          "type": "address"
        }
      ],
      "name": "NewMarketInterestRateModel",
      "type": "event"
    },
    {
      "anonymous": false,
      "inputs": [
        {
          "indexed": false,
          "internalType": "uint256",
          "name": "oldReserveFactorMantissa",
          "type": "uint256"
        },
        {
          "indexed": false,
          "internalType": "uint256",
          "name": "newReserveFactorMantissa",
          "type": "uint256"
        }
      ],
      "name": "NewReserveFactor",
      "type": "event"
    },
    {
      "anonymous": false,
      "inputs": [
        {
          "indexed": false,
          "internalType": "address",
          "name": "redeemer",
          "type": "address"
        },
        {
          "indexed": false,
          "internalType": "uint256",
          "name": "redeemAmount",
          "type": "uint256"
        },
        {
          "indexed": false,
          "internalType": "uint256",
          "name": "redeemTokens",
          "type": "uint256"
        }
      ],
      "name": "Redeem",
      "type": "event"
    },
    {
      "anonymous": false,
      "inputs": [
        {
          "indexed": false,
          "internalType": "address",
          "name": "payer",
          "type": "address"
        },
        {
          "indexed": false,
          "internalType": "address",
          "name": "borrower",
          "type": "address"
        },
        {
          "indexed": false,
          "internalType": "uint256",
          "name": "repayAmount",
          "type": "uint256"
        },
        {
          "indexed": false,
          "internalType": "uint256",
          "name": "accountBorrows",
          "type": "uint256"
        },
        {
          "indexed": false,
          "internalType": "uint256",
          "name": "totalBorrows",
          "type": "uint256"
        }
      ],
      "name": "RepayBorrow",
      "type": "event"
    },
    {
      "anonymous": false,
      "inputs": [
        {
          "indexed": false,
          "internalType": "address",
          "name": "benefactor",
          "type": "address"
        },
        {
          "indexed": false,
          "internalType": "uint256",
          "name": "addAmount",
          "type": "uint256"
        },
        {
          "indexed": false,
          "internalType": "uint256",
          "name": "newTotalReserves",
          "type": "uint256"
        }
      ],
      "name": "ReservesAdded",
      "type": "event"
    },
    {
      "anonymous": false,
      "inputs": [
        {
          "indexed": false,
          "internalType": "address",
          "name": "admin",
          "type": "address"
        },
        {
          "indexed": false,
          "internalType": "uint256",
          "name": "reduceAmount",
          "type": "uint256"
        },
        {
          "indexed": false,
          "internalType": "uint256",
          "name": "newTotalReserves",
          "type": "uint256"
        }
      ],
      "name": "ReservesReduced",
      "type": "event"
    },
    {
      "anonymous": false,
      "inputs": [
        {
          "indexed": true,
          "internalType": "address",
          "name": "from",
          "type": "address"
        },
        {
          "indexed": true,
          "internalType": "address",
          "name": "to",
          "type": "address"
        },
        {
          "indexed": false,
          "internalType": "uint256",
          "name": "amount",
          "type": "uint256"
        }
      ],
      "name": "Transfer",
      "type": "event"
    },
    {
      "inputs": [
        {
          "internalType": "bytes",
          "name": "data",
          "type": "bytes"
        }
      ],
      "name": "_becomeImplementation",
      "outputs": [],
      "stateMutability": "nonpayable",
      "type": "function"
    },
    {
      "inputs": [],
      "name": "_prepare",
      "outputs": [],
      "stateMutability": "payable",
      "type": "function"
    },
    {
      "inputs": [
        {
          "internalType": "uint256",
          "name": "newAdminFeeMantissa",
          "type": "uint256"
        }
      ],
      "name": "_setAdminFee",
      "outputs": [
        {
          "internalType": "uint256",
          "name": "",
          "type": "uint256"
        }
      ],
      "stateMutability": "nonpayable",
      "type": "function"
    },
    {
      "inputs": [
        {
          "internalType": "address",
          "name": "implementation_",
          "type": "address"
        },
        {
          "internalType": "bool",
          "name": "allowResign",
          "type": "bool"
        },
        {
          "internalType": "bytes",
          "name": "becomeImplementationData",
          "type": "bytes"
        }
      ],
      "name": "_setImplementationSafe",
      "outputs": [],
      "stateMutability": "nonpayable",
      "type": "function"
    },
    {
      "inputs": [
        {
          "internalType": "contract InterestRateModel",
          "name": "newInterestRateModel",
          "type": "address"
        }
      ],
      "name": "_setInterestRateModel",
      "outputs": [
        {
          "internalType": "uint256",
          "name": "",
          "type": "uint256"
        }
      ],
      "stateMutability": "nonpayable",
      "type": "function"
    },
    {
      "inputs": [
        {
          "internalType": "string",
          "name": "_name",
          "type": "string"
        },
        {
          "internalType": "string",
          "name": "_symbol",
          "type": "string"
        }
      ],
      "name": "_setNameAndSymbol",
      "outputs": [],
      "stateMutability": "nonpayable",
      "type": "function"
    },
    {
      "inputs": [
        {
          "internalType": "uint256",
          "name": "newReserveFactorMantissa",
          "type": "uint256"
        }
      ],
      "name": "_setReserveFactor",
      "outputs": [
        {
          "internalType": "uint256",
          "name": "",
          "type": "uint256"
        }
      ],
      "stateMutability": "nonpayable",
      "type": "function"
    },
    {
      "inputs": [
        {
          "internalType": "uint256",
          "name": "withdrawAmount",
          "type": "uint256"
        }
      ],
      "name": "_withdrawAdminFees",
      "outputs": [
        {
          "internalType": "uint256",
          "name": "",
          "type": "uint256"
        }
      ],
      "stateMutability": "nonpayable",
      "type": "function"
    },
    {
      "inputs": [
        {
          "internalType": "uint256",
          "name": "withdrawAmount",
          "type": "uint256"
        }
      ],
      "name": "_withdrawFuseFees",
      "outputs": [
        {
          "internalType": "uint256",
          "name": "",
          "type": "uint256"
        }
      ],
      "stateMutability": "nonpayable",
      "type": "function"
    },
    {
      "inputs": [],
      "name": "accrualBlockNumber",
      "outputs": [
        {
          "internalType": "uint256",
          "name": "",
          "type": "uint256"
        }
      ],
      "stateMutability": "view",
      "type": "function"
    },
    {
      "inputs": [],
      "name": "accrueInterest",
      "outputs": [
        {
          "internalType": "uint256",
          "name": "",
          "type": "uint256"
        }
      ],
      "stateMutability": "nonpayable",
      "type": "function"
    },
    {
      "inputs": [],
      "name": "adminFeeMantissa",
      "outputs": [
        {
          "internalType": "uint256",
          "name": "",
          "type": "uint256"
        }
      ],
      "stateMutability": "view",
      "type": "function"
    },
    {
      "inputs": [
        {
          "internalType": "address",
          "name": "owner",
          "type": "address"
        },
        {
          "internalType": "address",
          "name": "spender",
          "type": "address"
        }
      ],
      "name": "allowance",
      "outputs": [
        {
          "internalType": "uint256",
          "name": "",
          "type": "uint256"
        }
      ],
      "stateMutability": "view",
      "type": "function"
    },
    {
      "inputs": [
        {
          "internalType": "address",
          "name": "spender",
          "type": "address"
        },
        {
          "internalType": "uint256",
          "name": "amount",
          "type": "uint256"
        }
      ],
      "name": "approve",
      "outputs": [
        {
          "internalType": "bool",
          "name": "",
          "type": "bool"
        }
      ],
      "stateMutability": "nonpayable",
      "type": "function"
    },
    {
      "inputs": [
        {
          "internalType": "address",
          "name": "owner",
          "type": "address"
        }
      ],
      "name": "balanceOf",
      "outputs": [
        {
          "internalType": "uint256",
          "name": "",
          "type": "uint256"
        }
      ],
      "stateMutability": "view",
      "type": "function"
    },
    {
      "inputs": [
        {
          "internalType": "address",
          "name": "owner",
          "type": "address"
        }
      ],
      "name": "balanceOfUnderlying",
      "outputs": [
        {
          "internalType": "uint256",
          "name": "",
          "type": "uint256"
        }
      ],
      "stateMutability": "nonpayable",
      "type": "function"
    },
    {
      "inputs": [
        {
          "internalType": "uint256",
          "name": "borrowAmount",
          "type": "uint256"
        }
      ],
      "name": "borrow",
      "outputs": [
        {
          "internalType": "uint256",
          "name": "",
          "type": "uint256"
        }
      ],
      "stateMutability": "nonpayable",
      "type": "function"
    },
    {
      "inputs": [
        {
          "internalType": "address",
          "name": "account",
          "type": "address"
        }
      ],
      "name": "borrowBalanceCurrent",
      "outputs": [
        {
          "internalType": "uint256",
          "name": "",
          "type": "uint256"
        }
      ],
      "stateMutability": "nonpayable",
      "type": "function"
    },
    {
      "inputs": [
        {
          "internalType": "address",
          "name": "account",
          "type": "address"
        }
      ],
      "name": "borrowBalanceStored",
      "outputs": [
        {
          "internalType": "uint256",
          "name": "",
          "type": "uint256"
        }
      ],
      "stateMutability": "view",
      "type": "function"
    },
    {
      "inputs": [],
      "name": "borrowIndex",
      "outputs": [
        {
          "internalType": "uint256",
          "name": "",
          "type": "uint256"
        }
      ],
      "stateMutability": "view",
      "type": "function"
    },
    {
      "inputs": [],
      "name": "borrowRatePerBlock",
      "outputs": [
        {
          "internalType": "uint256",
          "name": "",
          "type": "uint256"
        }
      ],
      "stateMutability": "view",
      "type": "function"
    },
    {
      "inputs": [],
      "name": "comptroller",
      "outputs": [
        {
          "internalType": "contract ComptrollerInterface",
          "name": "",
          "type": "address"
        }
      ],
      "stateMutability": "view",
      "type": "function"
    },
    {
      "inputs": [],
      "name": "decimals",
      "outputs": [
        {
          "internalType": "uint8",
          "name": "",
          "type": "uint8"
        }
      ],
      "stateMutability": "view",
      "type": "function"
    },
    {
      "inputs": [],
      "name": "exchangeRateCurrent",
      "outputs": [
        {
          "internalType": "uint256",
          "name": "",
          "type": "uint256"
        }
      ],
      "stateMutability": "nonpayable",
      "type": "function"
    },
    {
      "inputs": [],
      "name": "exchangeRateStored",
      "outputs": [
        {
          "internalType": "uint256",
          "name": "",
          "type": "uint256"
        }
      ],
      "stateMutability": "view",
      "type": "function"
    },
    {
      "inputs": [],
      "name": "feeSeizeShareMantissa",
      "outputs": [
        {
          "internalType": "uint256",
          "name": "",
          "type": "uint256"
        }
      ],
      "stateMutability": "view",
      "type": "function"
    },
    {
      "inputs": [],
      "name": "fuseAdmin",
      "outputs": [
        {
          "internalType": "address payable",
          "name": "",
          "type": "address"
        }
      ],
      "stateMutability": "view",
      "type": "function"
    },
    {
      "inputs": [],
      "name": "fuseFeeMantissa",
      "outputs": [
        {
          "internalType": "uint256",
          "name": "",
          "type": "uint256"
        }
      ],
      "stateMutability": "view",
      "type": "function"
    },
    {
      "inputs": [
        {
          "internalType": "address",
          "name": "account",
          "type": "address"
        }
      ],
      "name": "getAccountSnapshot",
      "outputs": [
        {
          "internalType": "uint256",
          "name": "",
          "type": "uint256"
        },
        {
          "internalType": "uint256",
          "name": "",
          "type": "uint256"
        },
        {
          "internalType": "uint256",
          "name": "",
          "type": "uint256"
        },
        {
          "internalType": "uint256",
          "name": "",
          "type": "uint256"
        }
      ],
      "stateMutability": "view",
      "type": "function"
    },
    {
      "inputs": [],
      "name": "getCash",
      "outputs": [
        {
          "internalType": "uint256",
          "name": "",
          "type": "uint256"
        }
      ],
      "stateMutability": "view",
      "type": "function"
    },
    {
      "inputs": [],
      "name": "implementation",
      "outputs": [
        {
          "internalType": "address",
          "name": "",
          "type": "address"
        }
      ],
      "stateMutability": "view",
      "type": "function"
    },
    {
      "inputs": [
        {
          "internalType": "address",
          "name": "underlying_",
          "type": "address"
        },
        {
          "internalType": "contract ComptrollerInterface",
          "name": "comptroller_",
          "type": "address"
        },
        {
          "internalType": "address payable",
          "name": "fuseAdmin_",
          "type": "address"
        },
        {
          "internalType": "contract InterestRateModel",
          "name": "interestRateModel_",
          "type": "address"
        },
        {
          "internalType": "string",
          "name": "name_",
          "type": "string"
        },
        {
          "internalType": "string",
          "name": "symbol_",
          "type": "string"
        },
        {
          "internalType": "uint256",
          "name": "reserveFactorMantissa_",
          "type": "uint256"
        },
        {
          "internalType": "uint256",
          "name": "adminFeeMantissa_",
          "type": "uint256"
        }
      ],
      "name": "initialize",
      "outputs": [],
      "stateMutability": "nonpayable",
      "type": "function"
    },
    {
      "inputs": [
        {
          "internalType": "contract ComptrollerInterface",
          "name": "comptroller_",
          "type": "address"
        },
        {
          "internalType": "address payable",
          "name": "fuseAdmin_",
          "type": "address"
        },
        {
          "internalType": "contract InterestRateModel",
          "name": "interestRateModel_",
          "type": "address"
        },
        {
          "internalType": "uint256",
          "name": "initialExchangeRateMantissa_",
          "type": "uint256"
        },
        {
          "internalType": "string",
          "name": "name_",
          "type": "string"
        },
        {
          "internalType": "string",
          "name": "symbol_",
          "type": "string"
        },
        {
          "internalType": "uint8",
          "name": "decimals_",
          "type": "uint8"
        },
        {
          "internalType": "uint256",
          "name": "reserveFactorMantissa_",
          "type": "uint256"
        },
        {
          "internalType": "uint256",
          "name": "adminFeeMantissa_",
          "type": "uint256"
        }
      ],
      "name": "initialize",
      "outputs": [],
      "stateMutability": "nonpayable",
      "type": "function"
    },
    {
      "inputs": [],
      "name": "interestRateModel",
      "outputs": [
        {
          "internalType": "contract InterestRateModel",
          "name": "",
          "type": "address"
        }
      ],
      "stateMutability": "view",
      "type": "function"
    },
    {
      "inputs": [],
      "name": "isCEther",
      "outputs": [
        {
          "internalType": "bool",
          "name": "",
          "type": "bool"
        }
      ],
      "stateMutability": "nonpayable",
      "type": "function"
    },
    {
      "inputs": [],
      "name": "isCToken",
      "outputs": [
        {
          "internalType": "bool",
          "name": "",
          "type": "bool"
        }
      ],
      "stateMutability": "nonpayable",
      "type": "function"
    },
    {
      "inputs": [
        {
          "internalType": "address",
          "name": "borrower",
          "type": "address"
        },
        {
          "internalType": "uint256",
          "name": "repayAmount",
          "type": "uint256"
        },
        {
          "internalType": "contract CTokenInterface",
          "name": "cTokenCollateral",
          "type": "address"
        }
      ],
      "name": "liquidateBorrow",
      "outputs": [
        {
          "internalType": "uint256",
          "name": "",
          "type": "uint256"
        }
      ],
      "stateMutability": "nonpayable",
      "type": "function"
    },
    {
      "inputs": [
        {
          "internalType": "uint256",
          "name": "mintAmount",
          "type": "uint256"
        }
      ],
      "name": "mint",
      "outputs": [
        {
          "internalType": "uint256",
          "name": "",
          "type": "uint256"
        }
      ],
      "stateMutability": "nonpayable",
      "type": "function"
    },
    {
      "inputs": [],
      "name": "name",
      "outputs": [
        {
          "internalType": "string",
          "name": "",
          "type": "string"
        }
      ],
      "stateMutability": "view",
      "type": "function"
    },
    {
      "inputs": [],
      "name": "protocolSeizeShareMantissa",
      "outputs": [
        {
          "internalType": "uint256",
          "name": "",
          "type": "uint256"
        }
      ],
      "stateMutability": "view",
      "type": "function"
    },
    {
      "inputs": [
        {
          "internalType": "uint256",
          "name": "redeemTokens",
          "type": "uint256"
        }
      ],
      "name": "redeem",
      "outputs": [
        {
          "internalType": "uint256",
          "name": "",
          "type": "uint256"
        }
      ],
      "stateMutability": "nonpayable",
      "type": "function"
    },
    {
      "inputs": [
        {
          "internalType": "uint256",
          "name": "redeemAmount",
          "type": "uint256"
        }
      ],
      "name": "redeemUnderlying",
      "outputs": [
        {
          "internalType": "uint256",
          "name": "",
          "type": "uint256"
        }
      ],
      "stateMutability": "nonpayable",
      "type": "function"
    },
    {
      "inputs": [
        {
          "internalType": "uint256",
          "name": "repayAmount",
          "type": "uint256"
        }
      ],
      "name": "repayBorrow",
      "outputs": [
        {
          "internalType": "uint256",
          "name": "",
          "type": "uint256"
        }
      ],
      "stateMutability": "nonpayable",
      "type": "function"
    },
    {
      "inputs": [
        {
          "internalType": "address",
          "name": "borrower",
          "type": "address"
        },
        {
          "internalType": "uint256",
          "name": "repayAmount",
          "type": "uint256"
        }
      ],
      "name": "repayBorrowBehalf",
      "outputs": [
        {
          "internalType": "uint256",
          "name": "",
          "type": "uint256"
        }
      ],
      "stateMutability": "nonpayable",
      "type": "function"
    },
    {
      "inputs": [],
      "name": "reserveFactorMantissa",
      "outputs": [
        {
          "internalType": "uint256",
          "name": "",
          "type": "uint256"
        }
      ],
      "stateMutability": "view",
      "type": "function"
    },
    {
      "inputs": [
        {
          "internalType": "address",
          "name": "liquidator",
          "type": "address"
        },
        {
          "internalType": "address",
          "name": "borrower",
          "type": "address"
        },
        {
          "internalType": "uint256",
          "name": "seizeTokens",
          "type": "uint256"
        }
      ],
      "name": "seize",
      "outputs": [
        {
          "internalType": "uint256",
          "name": "",
          "type": "uint256"
        }
      ],
      "stateMutability": "nonpayable",
      "type": "function"
    },
    {
      "inputs": [],
      "name": "supplyRatePerBlock",
      "outputs": [
        {
          "internalType": "uint256",
          "name": "",
          "type": "uint256"
        }
      ],
      "stateMutability": "view",
      "type": "function"
    },
    {
      "inputs": [],
      "name": "symbol",
      "outputs": [
        {
          "internalType": "string",
          "name": "",
          "type": "string"
        }
      ],
      "stateMutability": "view",
      "type": "function"
    },
    {
      "inputs": [],
      "name": "totalAdminFees",
      "outputs": [
        {
          "internalType": "uint256",
          "name": "",
          "type": "uint256"
        }
      ],
      "stateMutability": "view",
      "type": "function"
    },
    {
      "inputs": [],
      "name": "totalBorrows",
      "outputs": [
        {
          "internalType": "uint256",
          "name": "",
          "type": "uint256"
        }
      ],
      "stateMutability": "view",
      "type": "function"
    },
    {
      "inputs": [],
      "name": "totalBorrowsCurrent",
      "outputs": [
        {
          "internalType": "uint256",
          "name": "",
          "type": "uint256"
        }
      ],
      "stateMutability": "nonpayable",
      "type": "function"
    },
    {
      "inputs": [],
      "name": "totalFuseFees",
      "outputs": [
        {
          "internalType": "uint256",
          "name": "",
          "type": "uint256"
        }
      ],
      "stateMutability": "view",
      "type": "function"
    },
    {
      "inputs": [],
      "name": "totalReserves",
      "outputs": [
        {
          "internalType": "uint256",
          "name": "",
          "type": "uint256"
        }
      ],
      "stateMutability": "view",
      "type": "function"
    },
    {
      "inputs": [],
      "name": "totalSupply",
      "outputs": [
        {
          "internalType": "uint256",
          "name": "",
          "type": "uint256"
        }
      ],
      "stateMutability": "view",
      "type": "function"
    },
    {
      "inputs": [
        {
          "internalType": "address",
          "name": "dst",
          "type": "address"
        },
        {
          "internalType": "uint256",
          "name": "amount",
          "type": "uint256"
        }
      ],
      "name": "transfer",
      "outputs": [
        {
          "internalType": "bool",
          "name": "",
          "type": "bool"
        }
      ],
      "stateMutability": "nonpayable",
      "type": "function"
    },
    {
      "inputs": [
        {
          "internalType": "address",
          "name": "src",
          "type": "address"
        },
        {
          "internalType": "address",
          "name": "dst",
          "type": "address"
        },
        {
          "internalType": "uint256",
          "name": "amount",
          "type": "uint256"
        }
      ],
      "name": "transferFrom",
      "outputs": [
        {
          "internalType": "bool",
          "name": "",
          "type": "bool"
        }
      ],
      "stateMutability": "nonpayable",
      "type": "function"
    },
    {
      "inputs": [],
      "name": "underlying",
      "outputs": [
        {
          "internalType": "address",
          "name": "",
          "type": "address"
        }
      ],
      "stateMutability": "view",
      "type": "function"
    }
  ],
  "transactionHash": "0xe42332763bf5aa810c7af2ec1cd0f2b569e01b102d7b14c0ccae4373804e3255",
  "args": [],
  "numDeployments": 13,
  "bytecode": {
    "object": "0x608060405234801561001057600080fd5b5061598380620000216000396000f3fe6080604052600436106102865760003560e01c806306db3ecd1461028b57806306fdde03146102ad578063095ea7b3146102d85780630e7527021461030857806315761d5114610336578063173b99041461036357806317bfdfbc1461037957806318160ddd14610399578063182df0f5146103af5780631db78944146103c4578063219ef65c146103cc57806323b872dd146103ec5780632608f8181461040c578063313ce5671461042c57806334154d4c146104585780633af9e669146104785780633b1d21a21461049857806347bd3718146104ad57806350d85b73146104c357806356e67728146104e35780635c60da1b146105035780635fe3b5671461052357806361feacff146105435780636752e702146105595780636c540baf146105745780636f307dc31461058a57806370a08231146105aa57806373acee98146105e0578063852a12e3146105f55780638d02d9a1146106155780638f840ddd1461062b57806391dd36c61461064157806395d89b411461066157806395dd919314610676578063a03dce8d14610696578063a0712d68146106b6578063a6afed95146106d6578063a7b820df146106eb578063a9059cbb1461070b578063aa5af0fd1461072b578063ac784ddc14610741578063ae9d70b014610755578063b2a02ff11461076a578063bd6d894d1461078a578063be99f1191461079f578063c37f68e2146107bb578063c5ebeaec146107eb578063db006a751461080b578063dbfe7c191461082b578063dc028ab114610841578063dd62ed3e14610857578063f2b3abbd1461089d578063f3fdb15a146108bd578063f5e3c462146108dd578063f8f9da28146108fd578063fca7820b14610912578063fe9c44ae14610932575b600080fd5b34801561029757600080fd5b506102ab6102a63660046150e8565b610946565b005b3480156102b957600080fd5b506102c2610a54565b6040516102cf9190615201565b60405180910390f35b3480156102e457600080fd5b506102f86102f3366004615214565b610ae2565b60405190151581526020016102cf565b34801561031457600080fd5b50610328610323366004615240565b610b52565b6040519081526020016102cf565b34801561034257600080fd5b50600154610356906001600160a01b031681565b6040516102cf9190615259565b34801561036f57600080fd5b50610328600b5481565b34801561038557600080fd5b5061032861039436600461526d565b610b66565b3480156103a557600080fd5b5061032860125481565b3480156103bb57600080fd5b50610328610bbd565b6102ab610c4e565b3480156103d857600080fd5b506102ab6103e73660046152a4565b610d84565b3480156103f857600080fd5b506102f861040736600461536b565b6110ab565b34801561041857600080fd5b50610328610427366004615214565b6110d1565b34801561043857600080fd5b506005546104469060ff1681565b60405160ff90911681526020016102cf565b34801561046457600080fd5b506102ab6104733660046153ed565b6110e7565b34801561048457600080fd5b5061032861049336600461526d565b61114e565b3480156104a457600080fd5b506103286111fe565b3480156104b957600080fd5b50610328600e5481565b3480156104cf57600080fd5b506102ab6104de366004615466565b61120d565b3480156104ef57600080fd5b506102ab6104fe3660046154be565b6112a6565b34801561050f57600080fd5b50600054610356906001600160a01b031681565b34801561052f57600080fd5b50600654610356906001600160a01b031681565b34801561054f57600080fd5b5061032860105481565b34801561056557600080fd5b50610328666379da05b6000081565b34801561058057600080fd5b50610328600c5481565b34801561059657600080fd5b50601654610356906001600160a01b031681565b3480156105b657600080fd5b506103286105c536600461526d565b6001600160a01b031660009081526013602052604090205490565b3480156105ec57600080fd5b50610328611322565b34801561060157600080fd5b50610328610610366004615240565b611351565b34801561062157600080fd5b5061032860095481565b34801561063757600080fd5b50610328600f5481565b34801561064d57600080fd5b5061032861065c366004615240565b61135c565b34801561066d57600080fd5b506102c26113b3565b34801561068257600080fd5b5061032861069136600461526d565b6113c0565b3480156106a257600080fd5b506103286106b1366004615240565b61145b565b3480156106c257600080fd5b506103286106d1366004615240565b61149e565b3480156106e257600080fd5b506103286114aa565b3480156106f757600080fd5b50610328610706366004615240565b611652565b34801561071757600080fd5b506102f8610726366004615214565b611695565b34801561073757600080fd5b50610328600d5481565b34801561074d57600080fd5b5060006102f8565b34801561076157600080fd5b506103286116c2565b34801561077657600080fd5b5061032861078536600461536b565b611772565b34801561079657600080fd5b50610328611796565b3480156107ab57600080fd5b5061032867016345785d8a000081565b3480156107c757600080fd5b506107db6107d636600461526d565b6117e0565b6040516102cf9493929190615506565b3480156107f757600080fd5b50610328610806366004615240565b611881565b34801561081757600080fd5b50610328610826366004615240565b61188c565b34801561083757600080fd5b50610328600a5481565b34801561084d57600080fd5b5061032860115481565b34801561086357600080fd5b50610328610872366004615521565b6001600160a01b03918216600090815260146020908152604080832093909416825291909152205490565b3480156108a957600080fd5b506103286108b836600461526d565b611897565b3480156108c957600080fd5b50600754610356906001600160a01b031681565b3480156108e957600080fd5b506103286108f836600461555a565b6118cf565b34801561090957600080fd5b506103286118e7565b34801561091e57600080fd5b5061032861092d366004615240565b611938565b34801561093e57600080fd5b5060016102f8565b60006702c68af0bb14000090506000896001600160a01b031663313ce5676040518163ffffffff1660e01b8152600401602060405180830381865afa158015610993573d6000803e3d6000fd5b505050506040513d601f19601f820116820180604052508101906109b7919061559c565b90506109ca898989858a8a878b8b610d84565b601680546001600160a01b0319166001600160a01b038c16908117909155604080516318160ddd60e01b815290516318160ddd916004808201926020929091908290030181865afa158015610a23573d6000803e3d6000fd5b505050506040513d601f19601f82011682018060405250810190610a4791906155b9565b5050505050505050505050565b60038054610a61906155d2565b80601f0160208091040260200160405190810160405280929190818152602001828054610a8d906155d2565b8015610ada5780601f10610aaf57610100808354040283529160200191610ada565b820191906000526020600020905b815481529060010190602001808311610abd57829003601f168201915b505050505081565b3360008181526014602090815260408083206001600160a01b03871680855292528083208590555191929182907f8c5be1e5ebec7d5bd14f71427d1e84f3dd0314c0f7b2291e5b200ac8c7c3b92590610b3e9087815260200190565b60405180910390a360019150505b92915050565b600080610b5e8361197b565b509392505050565b600080610b72816119e3565b6000610b7c6114aa565b14610ba25760405162461bcd60e51b8152600401610b999061561d565b60405180910390fd5b610bab836113c0565b91505b610bb781611aa7565b50919050565b6000806000610bca611b23565b90925090506000826003811115610be357610be3615607565b14610b4c5760405162461bcd60e51b815260206004820152603560248201527f65786368616e67655261746553746f7265643a2065786368616e67655261746560448201527414dd1bdc9959125b9d195c9b985b0819985a5b1959605a1b6064820152608401610b99565b333014801590610cd05750600660009054906101000a90046001600160a01b03166001600160a01b031663dd5cd22c6040518163ffffffff1660e01b8152600401602060405180830381865afa158015610cac573d6000803e3d6000fd5b505050506040513d601f19601f82011682018060405250810190610cd0919061564d565b15610d8257600154600080546040516345cc970560e01b81529192839283926001600160a01b03928316926345cc970592610d119290911690600401615259565b600060405180830381865afa158015610d2e573d6000803e3d6000fd5b505050506040513d6000823e601f3d908101601f19168201604052610d56919081019061566a565b60005492955090935091506001600160a01b03808516911614610d7e57610d7e838383611be2565b5050505b565b336001600160a01b03891614610dee5760405162461bcd60e51b815260206004820152602960248201527f6f6e6c7920467573652061646d696e206d617920696e697469616c697a6520746044820152681a19481b585c9ad95d60ba1b6064820152608401610b99565b600c54158015610dfe5750600d54155b610e565760405162461bcd60e51b815260206004820152602360248201527f6d61726b6574206d6179206f6e6c7920626520696e697469616c697a6564206f6044820152626e636560e81b6064820152608401610b99565b600180546001600160a01b0319166001600160a01b038a16179055600886905585610edc5760405162461bcd60e51b815260206004820152603060248201527f696e697469616c2065786368616e67652072617465206d75737420626520677260448201526f32b0ba32b9103a3430b7103d32b9379760811b6064820152608401610b99565b6000610ee78a611d76565b90508015610f345760405162461bcd60e51b815260206004820152601a6024820152791cd95d1d1a5b99c818dbdb5c1d1c9bdb1b195c8819985a5b195960321b6044820152606401610b99565b43600c55670de0b6b3a7640000600d55610f4d88611e6a565b90508015610fa85760405162461bcd60e51b815260206004820152602260248201527f73657474696e6720696e7465726573742072617465206d6f64656c206661696c604482015261195960f21b6064820152608401610b99565b8551610fbb906003906020890190614e9e565b508451610fcf906004906020880190614e9e565b506005805460ff191660ff8616179055610fe883611f7d565b905080156110385760405162461bcd60e51b815260206004820152601d60248201527f73657474696e67207265736572766520666163746f72206661696c65640000006044820152606401610b99565b6110418261201c565b9050801561108c5760405162461bcd60e51b81526020600482015260186024820152771cd95d1d1a5b99c818591b5a5b881999594819985a5b195960421b6044820152606401610b99565b50506002805460ff60b01b1916600160b01b1790555050505050505050565b6000806110b7816119e3565b60006110c533878787612136565b149150610b5e81611aa7565b6000806110de84846123c9565b50949350505050565b6110ef612433565b61112e5760405162461bcd60e51b815260206004820152601060248201526f31b0b63632b9103737ba1030b236b4b760811b6044820152606401610b99565b61113a60038585614f1e565b5061114760048383614f1e565b5050505050565b6000806040518060200160405280611164611796565b90526001600160a01b03841660009081526013602052604081205491925090819061119090849061259e565b909250905060008260038111156111a9576111a9615607565b146111f65760405162461bcd60e51b815260206004820152601f60248201527f62616c616e636520636f756c64206e6f742062652063616c63756c61746564006044820152606401610b99565b949350505050565b60006112086125f1565b905090565b611215612433565b61124a5760405162461bcd60e51b815260206004820152600660248201526510b0b236b4b760d11b6044820152606401610b99565b6000546001600160a01b038581169116146112a0576112a0848484848080601f016020809104026020016040519081016040528093929190818152602001838380828437600092019190915250611be292505050565b50505050565b333014806112b757506112b7612433565b61131f5760405162461bcd60e51b815260206004820152603360248201527f6f6e6c792073656c6620616e642061646d696e732063616e2063616c6c205f6260448201527232b1b7b6b2a4b6b83632b6b2b73a30ba34b7b760691b6064820152608401610b99565b50565b60008061132d6114aa565b1461134a5760405162461bcd60e51b8152600401610b999061561d565b50600e5490565b6000610b4c82612665565b600080611368816119e3565b60006113726114aa565b9050801561139e5761139681601181111561138f5761138f615607565b60526126ab565b925050610bae565b6113a78461201c565b925050610bb781611aa7565b60048054610a61906155d2565b60008060006113ce8461270b565b909250905060008260038111156113e7576113e7615607565b146114545760405162461bcd60e51b815260206004820152603760248201527f626f72726f7742616c616e636553746f7265643a20626f72726f7742616c616e60448201527618d954dd1bdc9959125b9d195c9b985b0819985a5b1959604a1b6064820152608401610b99565b9392505050565b600080611467816119e3565b60006114716114aa565b905080156114955761139681601181111561148e5761148e615607565b60336126ab565b6113a7846127c4565b600080610b5e83612837565b600c5460009043908114156114c25760005b91505090565b60006114cc6125f1565b90506000600760009054906101000a90046001600160a01b03166001600160a01b03166315f2405383600e54611511600f5461150c60105460115461287d565b61287d565b6040518463ffffffff1660e01b815260040161152f93929190615709565b602060405180830381865afa15801561154c573d6000803e3d6000fd5b505050506040513d601f19601f8201168201806040525081019061157091906155b9565b905065048c273950008111156115c75760405162461bcd60e51b815260206004820152601c60248201527b0c4dee4e4deee40e4c2e8ca40d2e640c2c4e6eae4c8d8f240d0d2ced60231b6044820152606401610b99565b6000806115d685600c546128b3565b909250905060008260038111156115ef576115ef615607565b1461163c5760405162461bcd60e51b815260206004820152601f60248201527f636f756c64206e6f742063616c63756c61746520626c6f636b2064656c7461006044820152606401610b99565b611648858585846128de565b9550505050505090565b60008061165e816119e3565b60006116686114aa565b9050801561168c5761139681601181111561168557611685615607565b60376126ab565b6113a784612a00565b6000806116a1816119e3565b60006116af33338787612136565b1491506116bb81611aa7565b5092915050565b6007546000906001600160a01b031663b81688166116de6125f1565b600e546116f5600f5461150c60105460115461287d565b600954600a54600b546117089190615735565b6117129190615735565b6040518563ffffffff1660e01b81526004016117319493929190615506565b602060405180830381865afa15801561174e573d6000803e3d6000fd5b505050506040513d601f19601f8201168201806040525081019061120891906155b9565b6000600161177f816119e3565b61178b33868686612ade565b9150610b5e81611aa7565b6000806117a2816119e3565b60006117ac6114aa565b146117c95760405162461bcd60e51b8152600401610b999061561d565b6117d1610bbd565b91506117dc81611aa7565b5090565b6001600160a01b03811660009081526013602052604081205481908190819081808061180b8961270b565b93509050600081600381111561182357611823615607565b146118415760095b600080600097509750975097505050505061187a565b611849611b23565b92509050600081600381111561186157611861615607565b1461186d57600961182b565b5060009650919450925090505b9193509193565b6000610b4c82612fc5565b6000610b4c82613009565b6000806118a26114aa565b905080156118c6576114548160118111156118bf576118bf615607565b604b6126ab565b61145483611e6a565b6000806118dd858585613048565b5095945050505050565b6007546000906001600160a01b03166315f240536119036125f1565b600e5461191a600f5461150c60105460115461287d565b6040518463ffffffff1660e01b815260040161173193929190615709565b600080611944816119e3565b600061194e6114aa565b905080156119725761139681601181111561196b5761196b615607565b60596126ab565b6113a784611f7d565b6000806000611989816119e3565b60006119936114aa565b905080156119c3576119b78160118111156119b0576119b0615607565b60416126ab565b600093509350506119d4565b6119ce33338761313c565b93509350505b6119dd81611aa7565b50915091565b600254600160b01b900460ff16611a295760405162461bcd60e51b815260206004820152600a6024820152691c994b595b9d195c995960b21b6044820152606401610b99565b80611a9757600660009054906101000a90046001600160a01b03166001600160a01b031663c90c20b16040518163ffffffff1660e01b8152600401600060405180830381600087803b158015611a7e57600080fd5b505af1158015611a92573d6000803e3d6000fd5b505050505b506002805460ff60b01b19169055565b6002805460ff60b01b1916600160b01b1790558061131f57600660009054906101000a90046001600160a01b03166001600160a01b031663632e51426040518163ffffffff1660e01b8152600401600060405180830381600087803b158015611b0f57600080fd5b505af1158015611147573d6000803e3d6000fd5b601254600090819080611b3d575050600854600092909150565b6000611b476125f1565b90506000611b53614f92565b6000611b7584600e54611b70600f5461150c60105460115461287d565b613545565b935090506000816003811115611b8d57611b8d615607565b14611b9f579660009650945050505050565b611ba98386613597565b925090506000816003811115611bc157611bc1615607565b14611bd3579660009650945050505050565b50516000969095509350505050565b6001546000546040516338e6a07360e11b81526001600160a01b039182166004820152858216602482015284151560448201529116906371cd40e690606401602060405180830381865afa158015611c3e573d6000803e3d6000fd5b505050506040513d601f19601f82011682018060405250810190611c62919061564d565b611c965760405162461bcd60e51b8152602060048201526005602482015264085a5b5c1b60da1b6044820152606401610b99565b600080546001600160a01b038581166001600160a01b031983161790925516303b611cc957611cc4826112a6565b611d2b565b611d293083604051602401611cde9190615201565b60408051601f19818403018152918152602080830180516001600160e01b0316630adccee560e31b17905281518083019092526007825266216265636f6d6560c81b90820152613654565b505b6000546040517fd604de94d45953f9138079ec1b82d533cb2160c906d1076d1f7ed54befbca97a91611d689184916001600160a01b03169061574d565b60405180910390a150505050565b600080600660009054906101000a90046001600160a01b03169050826001600160a01b0316627e3dd26040518163ffffffff1660e01b8152600401602060405180830381865afa158015611dce573d6000803e3d6000fd5b505050506040513d601f19601f82011682018060405250810190611df2919061564d565b611e0e5760405162461bcd60e51b8152600401610b9990615767565b600680546001600160a01b0319166001600160a01b0385161790556040517f7ac369dbd14fa5ea3f473ed67cc9d598964a77501540ba6751eb0b3decf5870d90611e5b908390869061574d565b60405180910390a16000611454565b600080611e75612433565b611e85576114546001604d6126ab565b43600c5414611e9a57611454600a604c6126ab565b600760009054906101000a90046001600160a01b03169050826001600160a01b0316632191f92a6040518163ffffffff1660e01b8152600401602060405180830381865afa158015611ef0573d6000803e3d6000fd5b505050506040513d601f19601f82011682018060405250810190611f14919061564d565b611f305760405162461bcd60e51b8152600401610b9990615767565b600780546001600160a01b0319166001600160a01b0385161790556040517fedffc32e068c7c95dfd4bdfd5c4d939a084d6b11c4199eac8436ed234d72f92690611e5b908390869061574d565b6000611f87612433565b611f9757610b4c6001605a6126ab565b43600c5414611fac57610b4c600a605b6126ab565b670de0b6b3a7640000611fcc611fc48460095461287d565b600a5461287d565b1115611fde57610b4c6002605c6126ab565b600b80549083905560408051828152602081018590527faaa68312e2ea9d50e16af5068410ab56e1a1fd06037b1a35664812c30f8214609101611e5b565b600043600c541461203357610b4c600a60546126ab565b6000198214156120435760095491505b600061204d6136f0565b9050670de0b6b3a764000061206d612067600b548661287d565b8361287d565b111561207f57611454600260556126ab565b82600954146120e357612090612433565b6120a057611454600160536126ab565b600980549084905560408051828152602081018690527fcdd0b588250e1398549f79cfdb8217c186688822905d6715b0834ea1c865594a910160405180910390a1505b80600a541461212f57600a80549082905560408051828152602081018490527f92eef861b6533b7d3417f39c2ad7b460eed4e88a32fa3604f30e718b7602e7dc910160405180910390a1505b6000611454565b6006546040516317b9b84b60e31b815260009182916001600160a01b039091169063bdcdc2589061217190309089908990899060040161579d565b6020604051808303816000875af1158015612190573d6000803e3d6000fd5b505050506040513d601f19601f820116820180604052508101906121b491906155b9565b905080156121d1576121c96003605d8361373a565b9150506111f6565b836001600160a01b0316856001600160a01b031614156121f7576121c96002605e6126ab565b6000856001600160a01b0316876001600160a01b0316141561221c5750600019612244565b506001600160a01b038086166000908152601460209081526040808320938a16835292905220545b60008060008061225485896128b3565b9094509250600084600381111561226d5761226d615607565b1461228b5761227e6009605e6126ab565b96505050505050506111f6565b6001600160a01b038a166000908152601360205260409020546122ae90896128b3565b909450915060008460038111156122c7576122c7615607565b146122d85761227e6009605f6126ab565b6001600160a01b0389166000908152601360205260409020546122fb90896137c3565b9094509050600084600381111561231457612314615607565b146123255761227e600960606126ab565b6001600160a01b03808b16600090815260136020526040808220859055918b16815220819055600019851461237d576001600160a01b03808b166000908152601460209081526040808320938f168352929052208390555b886001600160a01b03168a6001600160a01b03166000805160206159578339815191528a6040516123b091815260200190565b60405180910390a35060009a9950505050505050505050565b60008060006123d7816119e3565b60006123e16114aa565b90508015612411576124058160118111156123fe576123fe615607565b60406126ab565b60009350935050612422565b61241c33878761313c565b93509350505b61242b81611aa7565b509250929050565b600654604080516303e1469160e61b815290516000926001600160a01b031691829163f851a440916004808201926020929091908290030181865afa158015612480573d6000803e3d6000fd5b505050506040513d601f19601f820116820180604052508101906124a491906157c7565b6001600160a01b0316336001600160a01b03161480156125215750806001600160a01b0316630a755ec26040518163ffffffff1660e01b8152600401602060405180830381865afa1580156124fd573d6000803e3d6000fd5b505050506040513d601f19601f82011682018060405250810190612521919061564d565b806114bc57506001546001600160a01b0316331480156114bc5750806001600160a01b0316632f1069ba6040518163ffffffff1660e01b8152600401602060405180830381865afa15801561257a573d6000803e3d6000fd5b505050506040513d601f19601f820116820180604052508101906114bc919061564d565b6000806000806125ae86866137e9565b909250905060008260038111156125c7576125c7615607565b146125d857509150600090506125ea565b60006125e382613857565b9350935050505b9250929050565b6016546040516370a0823160e01b81526000916001600160a01b03169081906370a0823190612624903090600401615259565b602060405180830381865afa158015612641573d6000803e3d6000fd5b505050506040513d601f19601f820116820180604052508101906114bc91906155b9565b600080612671816119e3565b600061267b6114aa565b9050801561269f5761139681601181111561269857612698615607565b602a6126ab565b6113a73360008661386f565b60006000805160206159378339815191528360118111156126ce576126ce615607565b8360638111156126e0576126e0615607565b60006040516126f193929190615709565b60405180910390a182601181111561145457611454615607565b6001600160a01b0381166000908152601560205260408120805482918291829182916127405750600096879650945050505050565b6127508160000154600d54613dae565b9094509250600084600381111561276957612769615607565b1461277c57509195600095509350505050565b61278a838260010154613ded565b909450915060008460038111156127a3576127a3615607565b146127b657509195600095509350505050565b506000969095509350505050565b60008043600c54146127dc57611454600a60356126ab565b826127e56125f1565b10156127f757611454600e60346126ab565b60115483111561280d57611454600260366126ab565b61281960115484613e18565b601181905560015490915061212f906001600160a01b031684613e52565b6000806000612845816119e3565b600061284f6114aa565b90508015612873576119b781601181111561286c5761286c615607565b60206126ab565b6119ce3386613ede565b60006114548383604051806040016040528060118152602001706164646974696f6e206f766572666c6f7760781b815250614255565b6000808383116128d25760006128c984866157e4565b915091506125ea565b506003905060006125ea565b6000806128f960405180602001604052808681525084614286565b9050600061290982600e546142b0565b9050600061291982600e5461287d565b9050600061293a6040518060200160405280600b5481525084600f546142c8565b9050600061295b6040518060200160405280600a54815250856011546142c8565b9050600061297c6040518060200160405280600954815250866010546142c8565b9050600061298f87600d54600d546142c8565b600c8d9055600d819055600e869055600f859055601184905560108390556040519091507f4dec04e750ca11537cabcd8a9eab06494de08da3735bc8871cd41250e190bc04906129e6908d90899085908a90615506565b60405180910390a160009c9b505050505050505050505050565b60008043600c5414612a1857611454600a60396126ab565b82612a216125f1565b1015612a3357611454600e60386126ab565b601054831115612a49576114546002603a6126ab565b612a5560105484613e18565b90508060108190555061212f600660009054906101000a90046001600160a01b03166001600160a01b031663f851a4406040518163ffffffff1660e01b8152600401602060405180830381865afa158015612ab4573d6000803e3d6000fd5b505050506040513d601f19601f82011682018060405250810190612ad891906157c7565b84613e52565b60065460405163d02f735160e01b815260009182916001600160a01b039091169063d02f735190612b1b9030908a908a908a908a906004016157fb565b6020604051808303816000875af1158015612b3a573d6000803e3d6000fd5b505050506040513d601f19601f82011682018060405250810190612b5e91906155b9565b90508015612b73576121c96003601d8361373a565b846001600160a01b0316846001600160a01b03161415612b99576121c96006601e6126ab565b612bfe604080516101808101909152806000815260200160008152602001600081526020016000815260200160008152602001600081526020016000815260200160008152602001600081526020016000815260200160008152602001600081525090565b6001600160a01b038516600090815260136020526040902054612c2190856128b3565b6020830181905282826003811115612c3b57612c3b615607565b6003811115612c4c57612c4c615607565b9052506000905081516003811115612c6657612c66615607565b14612c9657612c8d6009601c83600001516003811115612c8857612c88615607565b61373a565b925050506111f6565b612cb5846040518060200160405280666379da05b600008152506142e9565b6080820152604080516020810190915267016345785d8a00008152612cdb9085906142e9565b6101408201526080810151612d0090612cf5908690613e18565b826101400151613e18565b6060820152612d0d611b23565b60c0830181905282826003811115612d2757612d27615607565b6003811115612d3857612d38615607565b9052506000905081516003811115612d5257612d52615607565b14612d9a5760405162461bcd60e51b815260206004820152601860248201527732bc31b430b733b2903930ba329036b0ba341032b93937b960411b6044820152606401610b99565b612dba60405180602001604052808360c0015181525082608001516142b0565b60a0820152604080516020810190915260c08201518152610140820151612de191906142b0565b610160820152600f5460a0820151612df9919061287d565b60e08201526012546080820151612e1391612cf591613e18565b610120820152601154610160820151612e2c919061287d565b6101008201526001600160a01b0386166000908152601360205260409020546060820151612e5a91906137c3565b6040830181905282826003811115612e7457612e74615607565b6003811115612e8557612e85615607565b9052506000905081516003811115612e9f57612e9f615607565b14612ec157612c8d6009601b83600001516003811115612c8857612c88615607565b60e0810151600f556101208101516012556101008101516011556020808201516001600160a01b0387811660008181526013855260408082209490945583860151928b1680825290849020929092556060850151925192835290929091600080516020615957833981519152910160405180910390a3306001600160a01b0316856001600160a01b03166000805160206159578339815191528360800151604051612f6e91815260200190565b60405180910390a360a081015160e08201516040517fa91e67c5ea634cd43a12c5a482724b03de01e85ca68702a53d0c2f45cb7c1dc592612fb092309261582e565b60405180910390a16000979650505050505050565b600080612fd1816119e3565b6000612fdb6114aa565b90508015612fff57611396816011811115612ff857612ff8615607565b600a6126ab565b6113a7338561430c565b600080613015816119e3565b600061301f6114aa565b9050801561303c5761139681601181111561269857612698615607565b6113a73385600061386f565b6000806000613056816119e3565b60006130606114aa565b905080156130905761308481601181111561307d5761307d615607565b60116126ab565b6000935093505061312a565b846001600160a01b031663a6afed956040518163ffffffff1660e01b81526004016020604051808303816000875af11580156130d0573d6000803e3d6000fd5b505050506040513d601f19601f820116820180604052508101906130f491906155b9565b905080156131185761308481601181111561311157613111615607565b60126126ab565b6131243388888861469e565b93509350505b61313381611aa7565b50935093915050565b600654604051631200453160e11b8152600091829182916001600160a01b0316906324008a62906131779030908a908a908a9060040161579d565b6020604051808303816000875af1158015613196573d6000803e3d6000fd5b505050506040513d601f19601f820116820180604052508101906131ba91906155b9565b905080156131db576131cf600360438361373a565b6000925092505061353d565b43600c54146131f0576131cf600a60446126ab565b6132396040805161010081019091528060008152602001600081526020016000815260200160008152602001600081526020016000815260200160008152602001600081525090565b6001600160a01b03861660009081526015602052604090206001015460608201526132638661270b565b608083018190526020830182600381111561328057613280615607565b600381111561329157613291615607565b90525060009050816020015160038111156132ae576132ae615607565b146132dd576132d06009604283602001516003811115612c8857612c88615607565b600093509350505061353d565b6000198514156132f657608081015160408201526132fe565b604081018590525b61330c878260400151614b48565b60e082018190526080820151613321916128b3565b60a083018190526020830182600381111561333e5761333e615607565b600381111561334f5761334f615607565b905250600090508160200151600381111561336c5761336c615607565b146133dc5760405162461bcd60e51b815260206004820152603a60248201527f52455041595f424f52524f575f4e45575f4143434f554e545f424f52524f575f604482015279109053105390d157d0d05310d55310551253d397d1905253115160321b6064820152608401610b99565b6133ec600e548260e001516128b3565b60c083018190526020830182600381111561340957613409615607565b600381111561341a5761341a615607565b905250600090508160200151600381111561343757613437615607565b1461349e5760405162461bcd60e51b815260206004820152603160248201527f52455041595f424f52524f575f4e45575f544f54414c5f42414c414e43455f43604482015270105310d55310551253d397d19052531151607a1b6064820152608401610b99565b60a081810180516001600160a01b03898116600081815260156020908152604091829020948555600d5460019095019490945560c0870151600e81905560e088015195518251948f16855294840192909252820193909352606081019190915260808101919091527f1a2a22cb034d26d1854bdc6666a5b91fe25efbbb5dcad3b0355478d6f5c362a1910160405180910390a160e00151600093509150505b935093915050565b60008060008061355587876137c3565b9092509050600082600381111561356e5761356e615607565b1461357f575091506000905061353d565b61358981866128b3565b935093505050935093915050565b60006135a1614f92565b6000806135b686670de0b6b3a7640000613dae565b909250905060008260038111156135cf576135cf615607565b146135ee575060408051602081019091526000815290925090506125ea565b6000806135fb8388613ded565b9092509050600082600381111561361457613614615607565b1461363757816040518060200160405280600081525095509550505050506125ea565b604080516020810190915290815260009890975095505050505050565b6060600080856001600160a01b031685604051613671919061584f565b6000604051808303816000865af19150503d80600081146136ae576040519150601f19603f3d011682016040523d82523d6000602084013e6136b3565b606091505b5091509150816136e7578051156136cd5780518082602001fd5b8360405162461bcd60e51b8152600401610b999190615201565b95945050505050565b6001546040805163dd86fea160e01b815290516000926001600160a01b03169163dd86fea19160048083019260209291908290030181865afa15801561174e573d6000803e3d6000fd5b600060008051602061593783398151915284601181111561375d5761375d615607565b84606381111561376f5761376f615607565b8460405161377f93929190615709565b60405180910390a1600384601181111561379b5761379b615607565b146137b7578360118111156137b2576137b2615607565b6111f6565b6111f6826103e8615735565b6000808383018481106137db576000925090506125ea565b6002600092509250506125ea565b60006137f3614f92565b600080613804866000015186613dae565b9092509050600082600381111561381d5761381d615607565b1461383c575060408051602081019091526000815290925090506125ea565b60408051602081019091529081526000969095509350505050565b8051600090610b4c90670de0b6b3a76400009061586b565b600082158061387c575081155b6138e55760405162461bcd60e51b815260206004820152603460248201527f6f6e65206f662072656465656d546f6b656e73496e206f722072656465656d416044820152736d6f756e74496e206d757374206265207a65726f60601b6064820152608401610b99565b6138ed614fa5565b6138f5611b23565b604083018190526020830182600381111561391257613912615607565b600381111561392357613923615607565b905250600090508160200151600381111561394057613940615607565b1461396a576139626009602e83602001516003811115612c8857612c88615607565b915050611454565b8315613a03576060810184905260408051602081018252908201518152613991908561259e565b60808301819052602083018260038111156139ae576139ae615607565b60038111156139bf576139bf615607565b90525060009050816020015160038111156139dc576139dc615607565b146139fe576139626009602c83602001516003811115612c8857612c88615607565b613a94565b613a1f8360405180602001604052808460400151815250614d14565b6060830181905260208301826003811115613a3c57613a3c615607565b6003811115613a4d57613a4d615607565b9052506000905081602001516003811115613a6a57613a6a615607565b14613a8c576139626009602d83602001516003811115612c8857612c88615607565b608081018390525b600654606082015160405163eabe7d9160e01b81526000926001600160a01b03169163eabe7d9191613acd9130918b919060040161588d565b6020604051808303816000875af1158015613aec573d6000803e3d6000fd5b505050506040513d601f19601f82011682018060405250810190613b1091906155b9565b90508015613b2e57613b256003602b8361373a565b92505050611454565b43600c5414613b4357613b25600a602f6126ab565b613b5360125483606001516128b3565b60a0840181905260208401826003811115613b7057613b70615607565b6003811115613b8157613b81615607565b9052506000905082602001516003811115613b9e57613b9e615607565b14613bc057613b256009603184602001516003811115612c8857612c88615607565b6001600160a01b0386166000908152601360205260409020546060830151613be891906128b3565b60c0840181905260208401826003811115613c0557613c05615607565b6003811115613c1657613c16615607565b9052506000905082602001516003811115613c3357613c33615607565b14613c5557613b256009603084602001516003811115612c8857612c88615607565b8160800151613c626125f1565b1015613c7457613b25600e60326126ab565b60a082015160125560c08201516001600160a01b0387166000908152601360205260409020556080820151613caa908790613e52565b306001600160a01b0316866001600160a01b03166000805160206159578339815191528460600151604051613ce191815260200190565b60405180910390a3608082015160608301516040517fe5b754fb1abb7f01b499791d0b820ae3b6af3424ac1c59768edb53f4ec31a92992613d23928a9261582e565b60405180910390a1600654608083015160608401516040516351dff98960e01b81526001600160a01b03909316926351dff98992613d699230928c9291906004016158b1565b600060405180830381600087803b158015613d8357600080fd5b505af1158015613d97573d6000803e3d6000fd5b5060009250613da4915050565b9695505050505050565b60008083613dc1575060009050806125ea565b83830283613dcf868361586b565b14613de2576002600092509250506125ea565b6000925090506125ea565b60008082613e0157506001905060006125ea565b6000613e0d848661586b565b915091509250929050565b60006114548383604051806040016040528060158152602001747375627472616374696f6e20756e646572666c6f7760581b815250614d24565b613eda63a9059cbb60e01b8383604051602401613e709291906158da565b604051602081830303815290604052906001600160e01b0319166020820180516001600160e01b038381831617835250505050604051806040016040528060198152602001781513d2d15397d514905394d1915497d3d55517d19052531151603a1b815250614d53565b5050565b600654604051634ef4c3e160e01b8152600091829182916001600160a01b031690634ef4c3e190613f179030908990899060040161588d565b6020604051808303816000875af1158015613f36573d6000803e3d6000fd5b505050506040513d601f19601f82011682018060405250810190613f5a91906155b9565b90508015613f7b57613f6f600360218361373a565b600092509250506125ea565b43600c5414613f9057613f6f600a60246126ab565b613f98614fa5565b613fa0611b23565b6040830181905260208301826003811115613fbd57613fbd615607565b6003811115613fce57613fce615607565b9052506000905081602001516003811115613feb57613feb615607565b1461401a5761400d6009602383602001516003811115612c8857612c88615607565b60009350935050506125ea565b6140248686614b48565b60c08201819052604080516020810182529083015181526140459190614d14565b606083018190526020830182600381111561406257614062615607565b600381111561407357614073615607565b905250600090508160200151600381111561409057614090615607565b146140dd5760405162461bcd60e51b815260206004820181905260248201527f4d494e545f45584348414e47455f43414c43554c4154494f4e5f4641494c45446044820152606401610b99565b6140ed601254826060015161287d565b60808201526001600160a01b038616600090815260136020526040902054606082015161411a919061287d565b60a0820181905260808201516012556001600160a01b038716600090815260136020526040908190209190915560c0820151606083015191517f4c209b5fc8ad50758f13e2e1088ba56a560dff690a1c6fef26394f4c03821c4f92614183928a9290919061582e565b60405180910390a1856001600160a01b0316306001600160a01b031660008051602061595783398151915283606001516040516141c291815260200190565b60405180910390a360065460c082015160608301516040516341c728b960e01b81526001600160a01b03909316926341c728b9926142089230928c9291906004016158b1565b600060405180830381600087803b15801561422257600080fd5b505af1158015614236573d6000803e3d6000fd5b5060009250614243915050565b8160c001519350935050509250929050565b6000806142628486615735565b905082858210156110de5760405162461bcd60e51b8152600401610b999190615201565b61428e614f92565b60405180602001604052806142a7856000015185614daa565b90529392505050565b6000806142bd8484614286565b90506111f681613857565b6000806142d58585614286565b90506136e76142e382613857565b8461287d565b6000670de0b6b3a7640000614302848460000151614daa565b611454919061586b565b60065460405163368f515360e21b815260009182916001600160a01b039091169063da3d454c906143459030908890889060040161588d565b6020604051808303816000875af1158015614364573d6000803e3d6000fd5b505050506040513d601f19601f8201168201806040525081019061438891906155b9565b905080156143a55761439d600360108361373a565b915050610b4c565b43600c54146143ba5761439d600a600c6126ab565b60006143c46125f1565b9050838110156143e3576143da600e600b6126ab565b92505050610b4c565b61440f604080516080810190915280600081526020016000815260200160008152602001600081525090565b6144188661270b565b602083018190528282600381111561443257614432615607565b600381111561444357614443615607565b905250600090508151600381111561445d5761445d615607565b146144885761447e60098083600001516003811115612c8857612c88615607565b9350505050610b4c565b6144968160200151866137c3565b60408301819052828260038111156144b0576144b0615607565b60038111156144c1576144c1615607565b90525060009050815160038111156144db576144db615607565b146144fd5761447e6009600e83600001516003811115612c8857612c88615607565b6006546040808301519051631de6c8a560e21b81526001600160a01b039092169163779b229491614533913091906004016158da565b6020604051808303816000875af1158015614552573d6000803e3d6000fd5b505050506040513d601f19601f8201168201806040525081019061457691906155b9565b9250821561458b5761447e600360108561373a565b614597600e54866137c3565b60608301819052828260038111156145b1576145b1615607565b60038111156145c2576145c2615607565b90525060009050815160038111156145dc576145dc615607565b146145fe5761447e6009600d83600001516003811115612c8857612c88615607565b6040808201516001600160a01b0388166000908152601560205291909120908155600d546001909101556060810151600e5561463a8686613e52565b60408082015160608084015183516001600160a01b038b168152602081018a9052938401929092528201527f13ed6866d4e1ee6da46f845c46d7e54120883d75c5ea9a2dacc1c4ca8984ab809060800160405180910390a160009695505050505050565b600654604051632fe3f38f60e11b8152600091829182916001600160a01b031690635fc7e71e906146db90309088908c908c908c906004016157fb565b6020604051808303816000875af11580156146fa573d6000803e3d6000fd5b505050506040513d601f19601f8201168201806040525081019061471e91906155b9565b9050801561473f57614733600360148361373a565b60009250925050614b3f565b43600c541461475457614733600a60186126ab565b43846001600160a01b0316636c540baf6040518163ffffffff1660e01b8152600401602060405180830381865afa158015614793573d6000803e3d6000fd5b505050506040513d601f19601f820116820180604052508101906147b791906155b9565b146147c857614733600a60136126ab565b866001600160a01b0316866001600160a01b031614156147ee57614733600660196126ab565b846147ff57614733600760176126ab565b60001985141561481557614733600760166126ab565b60008061482389898961313c565b909250905081156148585761484a82601181111561484357614843615607565b601a6126ab565b600094509450505050614b3f565b60065460405163c488847b60e01b815260009182916001600160a01b039091169063c488847b906148919030908c90889060040161588d565b6040805180830381865afa1580156148ad573d6000803e3d6000fd5b505050506040513d601f19601f820116820180604052508101906148d191906158f3565b909250905081156149405760405162461bcd60e51b815260206004820152603360248201527f4c49515549444154455f434f4d5054524f4c4c45525f43414c43554c4154455f604482015272105353d5539517d4d152569157d19052531151606a1b6064820152608401610b99565b6040516370a0823160e01b815281906001600160a01b038a16906370a082319061496e908e90600401615259565b602060405180830381865afa15801561498b573d6000803e3d6000fd5b505050506040513d601f19601f820116820180604052508101906149af91906155b9565b10156149f85760405162461bcd60e51b815260206004820152601860248201527709892a2aa928882a88abea68a92b48abea89e9ebe9aaa86960431b6044820152606401610b99565b60006001600160a01b038916301415614a1e57614a17308d8d85612ade565b9050614a94565b60405163b2a02ff160e01b81526001600160a01b038a169063b2a02ff190614a4e908f908f90879060040161588d565b6020604051808303816000875af1158015614a6d573d6000803e3d6000fd5b505050506040513d601f19601f82011682018060405250810190614a9191906155b9565b90505b8015614ad95760405162461bcd60e51b81526020600482015260146024820152731d1bdad95b881cd95a5e9d5c994819985a5b195960621b6044820152606401610b99565b604080516001600160a01b038e811682528d811660208301528183018790528b1660608201526080810184905290517f298637f684da70674f26509b10f07ec2fbc77a335ab1e7d6215a4b2484d8bb529181900360a00190a16000975092955050505050505b94509492505050565b6016546040516370a0823160e01b815260009182916001600160a01b03909116906370a0823190614b7d903090600401615259565b602060405180830381865afa158015614b9a573d6000803e3d6000fd5b505050506040513d601f19601f82011682018060405250810190614bbe91906155b9565b9050614c496323b872dd60e01b853086604051602401614be09392919061588d565b604051602081830303815290604052906001600160e01b0319166020820180516001600160e01b038381831617835250505050604051806040016040528060188152602001771513d2d15397d514905394d1915497d25397d1905253115160421b815250614d53565b6016546040516370a0823160e01b81526000916001600160a01b0316906370a0823190614c7a903090600401615259565b602060405180830381865afa158015614c97573d6000803e3d6000fd5b505050506040513d601f19601f82011682018060405250810190614cbb91906155b9565b905081811015614d0a5760405162461bcd60e51b815260206004820152601a602482015279544f4b454e5f5452414e534645525f494e5f4f564552464c4f5760301b6044820152606401610b99565b6136e782826157e4565b6000806000806125ae8686614de6565b60008184841115614d485760405162461bcd60e51b8152600401610b999190615201565b506111f683856157e4565b601654600090614d6d906001600160a01b03168484613654565b805190915015610d7e5780806020019051810190614d8b919061564d565b82906112a05760405162461bcd60e51b8152600401610b999190615201565b60006114548383604051806040016040528060178152602001766d756c7469706c69636174696f6e206f766572666c6f7760481b815250614e4b565b6000614df0614f92565b600080614e05670de0b6b3a764000087613dae565b90925090506000826003811115614e1e57614e1e615607565b14614e3d575060408051602081019091526000815290925090506125ea565b6125e3818660000151613597565b6000831580614e58575082155b15614e6557506000611454565b6000614e718486615917565b905083614e7e868361586b565b1483906110de5760405162461bcd60e51b8152600401610b999190615201565b828054614eaa906155d2565b90600052602060002090601f016020900481019282614ecc5760008555614f12565b82601f10614ee557805160ff1916838001178555614f12565b82800160010185558215614f12579182015b82811115614f12578251825591602001919060010190614ef7565b506117dc929150614fe3565b828054614f2a906155d2565b90600052602060002090601f016020900481019282614f4c5760008555614f12565b82601f10614f655782800160ff19823516178555614f12565b82800160010185558215614f12579182015b82811115614f12578235825591602001919060010190614f77565b6040518060200160405280600081525090565b6040805160e0810190915280600081526020016000815260200160008152602001600081526020016000815260200160008152602001600081525090565b5b808211156117dc5760008155600101614fe4565b6001600160a01b038116811461131f57600080fd5b803561501881614ff8565b919050565b634e487b7160e01b600052604160045260246000fd5b604051601f8201601f191681016001600160401b038111828210171561505b5761505b61501d565b604052919050565b60006001600160401b0382111561507c5761507c61501d565b50601f01601f191660200190565b600061509d61509884615063565b615033565b90508281528383830111156150b157600080fd5b828260208301376000602084830101529392505050565b600082601f8301126150d957600080fd5b6114548383356020850161508a565b600080600080600080600080610100898b03121561510557600080fd5b883561511081614ff8565b9750602089013561512081614ff8565b9650604089013561513081614ff8565b9550606089013561514081614ff8565b945060808901356001600160401b038082111561515c57600080fd5b6151688c838d016150c8565b955060a08b013591508082111561517e57600080fd5b5061518b8b828c016150c8565b93505060c0890135915060e089013590509295985092959890939650565b60005b838110156151c45781810151838201526020016151ac565b838111156112a05750506000910152565b600081518084526151ed8160208601602086016151a9565b601f01601f19169290920160200192915050565b60208152600061145460208301846151d5565b6000806040838503121561522757600080fd5b823561523281614ff8565b946020939093013593505050565b60006020828403121561525257600080fd5b5035919050565b6001600160a01b0391909116815260200190565b60006020828403121561527f57600080fd5b813561145481614ff8565b60ff8116811461131f57600080fd5b80356150188161528a565b60008060008060008060008060006101208a8c0312156152c357600080fd5b89356152ce81614ff8565b985060208a01356152de81614ff8565b97506152ec60408b0161500d565b965060608a0135955060808a01356001600160401b038082111561530f57600080fd5b61531b8d838e016150c8565b965060a08c013591508082111561533157600080fd5b5061533e8c828d016150c8565b94505061534d60c08b01615299565b925060e08a013591506101008a013590509295985092959850929598565b60008060006060848603121561538057600080fd5b833561538b81614ff8565b9250602084013561539b81614ff8565b929592945050506040919091013590565b60008083601f8401126153be57600080fd5b5081356001600160401b038111156153d557600080fd5b6020830191508360208285010111156125ea57600080fd5b6000806000806040858703121561540357600080fd5b84356001600160401b038082111561541a57600080fd5b615426888389016153ac565b9096509450602087013591508082111561543f57600080fd5b5061544c878288016153ac565b95989497509550505050565b801515811461131f57600080fd5b6000806000806060858703121561547c57600080fd5b843561548781614ff8565b9350602085013561549781615458565b925060408501356001600160401b038111156154b257600080fd5b61544c878288016153ac565b6000602082840312156154d057600080fd5b81356001600160401b038111156154e657600080fd5b8201601f810184136154f757600080fd5b6111f68482356020840161508a565b93845260208401929092526040830152606082015260800190565b6000806040838503121561553457600080fd5b823561553f81614ff8565b9150602083013561554f81614ff8565b809150509250929050565b60008060006060848603121561556f57600080fd5b833561557a81614ff8565b925060208401359150604084013561559181614ff8565b809150509250925092565b6000602082840312156155ae57600080fd5b81516114548161528a565b6000602082840312156155cb57600080fd5b5051919050565b600181811c908216806155e657607f821691505b60208210811415610bb757634e487b7160e01b600052602260045260246000fd5b634e487b7160e01b600052602160045260246000fd5b6020808252601690820152751858d8dc9d59481a5b9d195c995cdd0819985a5b195960521b604082015260600190565b60006020828403121561565f57600080fd5b815161145481615458565b60008060006060848603121561567f57600080fd5b835161568a81614ff8565b602085015190935061569b81615458565b60408501519092506001600160401b038111156156b757600080fd5b8401601f810186136156c857600080fd5b80516156d661509882615063565b8181528760208385010111156156eb57600080fd5b6156fc8260208301602086016151a9565b8093505050509250925092565b9283526020830191909152604082015260600190565b634e487b7160e01b600052601160045260246000fd5b600082198211156157485761574861571f565b500190565b6001600160a01b0392831681529116602082015260400190565b6020808252601c908201527b6d61726b6572206d6574686f642072657475726e65642066616c736560201b604082015260600190565b6001600160a01b039485168152928416602084015292166040820152606081019190915260800190565b6000602082840312156157d957600080fd5b815161145481614ff8565b6000828210156157f6576157f661571f565b500390565b6001600160a01b039586168152938516602085015291841660408401529092166060820152608081019190915260a00190565b6001600160a01b039390931683526020830191909152604082015260600190565b600082516158618184602087016151a9565b9190910192915050565b60008261588857634e487b7160e01b600052601260045260246000fd5b500490565b6001600160a01b039384168152919092166020820152604081019190915260600190565b6001600160a01b0394851681529290931660208301526040820152606081019190915260800190565b6001600160a01b03929092168252602082015260400190565b6000806040838503121561590657600080fd5b505080516020909101519092909150565b60008160001904831182151516156159315761593161571f565b50029056fe45b96fe442630264581b197e84bbada861235052c5a1aadfff9ea4e40a969aa0ddf252ad1be2c89b69c2b068fc378daa952ba7f163c4a11628f55a4df523b3efa164736f6c634300080a000a",
    "linkReferences": {}
  },
  "methodIdentifiers": {
    "_becomeImplementation(bytes)": "56e67728",
    "_prepare()": "1db78944",
    "_setAdminFee(uint256)": "91dd36c6",
    "_setImplementationSafe(address,bool,bytes)": "50d85b73",
    "_setInterestRateModel(address)": "f2b3abbd",
    "_setNameAndSymbol(string,string)": "34154d4c",
    "_setReserveFactor(uint256)": "fca7820b",
    "_withdrawAdminFees(uint256)": "a7b820df",
    "_withdrawFuseFees(uint256)": "a03dce8d",
    "accrualBlockNumber()": "6c540baf",
    "accrueInterest()": "a6afed95",
    "adminFeeMantissa()": "8d02d9a1",
    "allowance(address,address)": "dd62ed3e",
    "approve(address,uint256)": "095ea7b3",
    "balanceOf(address)": "70a08231",
    "balanceOfUnderlying(address)": "3af9e669",
    "borrow(uint256)": "c5ebeaec",
    "borrowBalanceCurrent(address)": "17bfdfbc",
    "borrowBalanceStored(address)": "95dd9193",
    "borrowIndex()": "aa5af0fd",
    "borrowRatePerBlock()": "f8f9da28",
    "comptroller()": "5fe3b567",
    "decimals()": "313ce567",
    "exchangeRateCurrent()": "bd6d894d",
    "exchangeRateStored()": "182df0f5",
    "feeSeizeShareMantissa()": "be99f119",
    "fuseAdmin()": "15761d51",
    "fuseFeeMantissa()": "dbfe7c19",
    "getAccountSnapshot(address)": "c37f68e2",
    "getCash()": "3b1d21a2",
    "implementation()": "5c60da1b",
    "initialize(address,address,address,address,string,string,uint256,uint256)": "06db3ecd",
    "initialize(address,address,address,uint256,string,string,uint8,uint256,uint256)": "219ef65c",
    "interestRateModel()": "f3fdb15a",
    "isCEther()": "ac784ddc",
    "isCToken()": "fe9c44ae",
    "liquidateBorrow(address,uint256,address)": "f5e3c462",
    "mint(uint256)": "a0712d68",
    "name()": "06fdde03",
    "protocolSeizeShareMantissa()": "6752e702",
    "redeem(uint256)": "db006a75",
    "redeemUnderlying(uint256)": "852a12e3",
    "repayBorrow(uint256)": "0e752702",
    "repayBorrowBehalf(address,uint256)": "2608f818",
    "reserveFactorMantissa()": "173b9904",
    "seize(address,address,uint256)": "b2a02ff1",
    "supplyRatePerBlock()": "ae9d70b0",
    "symbol()": "95d89b41",
    "totalAdminFees()": "61feacff",
    "totalBorrows()": "47bd3718",
    "totalBorrowsCurrent()": "73acee98",
    "totalFuseFees()": "dc028ab1",
    "totalReserves()": "8f840ddd",
    "totalSupply()": "18160ddd",
    "transfer(address,uint256)": "a9059cbb",
    "transferFrom(address,address,uint256)": "23b872dd",
    "underlying()": "6f307dc3"
  }
}