{
  "address": "0x939321650F2a112d51B29d0445cd828749ac46f4",
  "abi": [
    {
      "inputs": [
        {
          "internalType": "address",
          "name": "_admin",
          "type": "address"
        },
        {
          "internalType": "bool",
          "name": "_canAdminOverwrite",
          "type": "bool"
        },
        {
          "internalType": "address",
          "name": "_wtoken",
          "type": "address"
        },
        {
          "internalType": "address",
          "name": "nativeTokenUsd",
          "type": "address"
        }
      ],
      "stateMutability": "nonpayable",
      "type": "constructor"
    },
    {
      "anonymous": false,
      "inputs": [
        {
          "indexed": false,
          "internalType": "address",
          "name": "oldAdmin",
          "type": "address"
        },
        {
          "indexed": false,
          "internalType": "address",
          "name": "newAdmin",
          "type": "address"
        }
      ],
      "name": "NewAdmin",
      "type": "event"
    },
    {
      "inputs": [],
      "name": "NATIVE_TOKEN_USD_PRICE_FEED",
      "outputs": [
        {
          "internalType": "contract AggregatorV3Interface",
          "name": "",
          "type": "address"
        }
      ],
      "stateMutability": "view",
      "type": "function"
    },
    {
      "inputs": [],
      "name": "admin",
      "outputs": [
        {
          "internalType": "address",
          "name": "",
          "type": "address"
        }
      ],
      "stateMutability": "view",
      "type": "function"
    },
    {
      "inputs": [],
      "name": "canAdminOverwrite",
      "outputs": [
        {
          "internalType": "bool",
          "name": "",
          "type": "bool"
        }
      ],
      "stateMutability": "view",
      "type": "function"
    },
    {
      "inputs": [
        {
          "internalType": "address",
          "name": "newAdmin",
          "type": "address"
        }
      ],
      "name": "changeAdmin",
      "outputs": [],
      "stateMutability": "nonpayable",
      "type": "function"
    },
    {
      "inputs": [
        {
          "internalType": "address",
          "name": "",
          "type": "address"
        }
      ],
      "name": "feedBaseCurrencies",
      "outputs": [
        {
          "internalType": "enum ChainlinkPriceOracleV2.FeedBaseCurrency",
          "name": "",
          "type": "uint8"
        }
      ],
      "stateMutability": "view",
      "type": "function"
    },
    {
      "inputs": [
        {
          "internalType": "contract ICToken",
          "name": "cToken",
          "type": "address"
        }
      ],
      "name": "getUnderlyingPrice",
      "outputs": [
        {
          "internalType": "uint256",
          "name": "",
          "type": "uint256"
        }
      ],
      "stateMutability": "view",
      "type": "function"
    },
    {
      "inputs": [
        {
          "internalType": "address",
          "name": "underlying",
          "type": "address"
        }
      ],
      "name": "price",
      "outputs": [
        {
          "internalType": "uint256",
          "name": "",
          "type": "uint256"
        }
      ],
      "stateMutability": "view",
      "type": "function"
    },
    {
      "inputs": [
        {
          "internalType": "address",
          "name": "",
          "type": "address"
        }
      ],
      "name": "priceFeeds",
      "outputs": [
        {
          "internalType": "contract AggregatorV3Interface",
          "name": "",
          "type": "address"
        }
      ],
      "stateMutability": "view",
      "type": "function"
    },
    {
      "inputs": [
        {
          "internalType": "address[]",
          "name": "underlyings",
          "type": "address[]"
        },
        {
          "internalType": "address[]",
          "name": "feeds",
          "type": "address[]"
        },
        {
          "internalType": "enum ChainlinkPriceOracleV2.FeedBaseCurrency",
          "name": "baseCurrency",
          "type": "uint8"
        }
      ],
      "name": "setPriceFeeds",
      "outputs": [],
      "stateMutability": "nonpayable",
      "type": "function"
    },
    {
      "inputs": [],
      "name": "wtoken",
      "outputs": [
        {
          "internalType": "address",
          "name": "",
          "type": "address"
        }
      ],
      "stateMutability": "view",
      "type": "function"
    }
  ],
  "transactionHash": "0x0a3380cee5ec9377119e287d423e45a7cecea30c309f084cb749e340497c7bcd",
  "args": [
    "0x27521eae4eE4153214CaDc3eCD703b9B0326C908",
    true,
    "0xbb4CdB9CBd36B01bD1cBaEBF2De08d9173bc095c",
    "0x0567F2323251f0Aab15c8dFb1967E4e8A7D42aeE"
  ],
  "numDeployments": 11,
  "bytecode": {
    "object": "0x60c060405234801561001057600080fd5b506040516110d03803806110d083398101604081905261002f91610085565b60028054931515600160a01b026001600160a81b03199094166001600160a01b039586161793909317909255821660a052166080526100e0565b80516001600160a01b038116811461008057600080fd5b919050565b6000806000806080858703121561009b57600080fd5b6100a485610069565b9350602085015180151581146100b957600080fd5b92506100c760408601610069565b91506100d560608601610069565b905092959194509250565b60805160a051610fb76101196000396000818161013801526106c301526000818160a8015281816109030152610a890152610fb76000f3fe608060405234801561001057600080fd5b506004361061009e5760003560e01c80639dcb511a116100665780639dcb511a1461015a578063aea9107814610183578063cebae71d146101a4578063f851a440146101d4578063fc57d4df146101e757600080fd5b80633a750685146100a3578063656b0fd1146100e757806371f3245a1461010b5780638f283970146101205780639c0591c814610133575b600080fd5b6100ca7f000000000000000000000000000000000000000000000000000000000000000081565b6040516001600160a01b0390911681526020015b60405180910390f35b6002546100fb90600160a01b900460ff1681565b60405190151581526020016100de565b61011e610119366004610c71565b6101fa565b005b61011e61012e366004610ced565b61044d565b6100ca7f000000000000000000000000000000000000000000000000000000000000000081565b6100ca610168366004610ced565b6000602081905290815260409020546001600160a01b031681565b610196610191366004610ced565b610503565b6040519081526020016100de565b6101c76101b2366004610ced565b60016020526000908152604090205460ff1681565b6040516100de9190610d27565b6002546100ca906001600160a01b031681565b6101966101f5366004610ced565b610514565b6002546001600160a01b031633146102545760405162461bcd60e51b815260206004820152601860248201527729b2b73232b91034b9903737ba103a34329030b236b4b71760411b60448201526064015b60405180910390fd5b60008351118015610266575081518351145b6102d85760405162461bcd60e51b815260206004820152603860248201527f4c656e67746873206f6620626f746820617272617973206d757374206265206560448201527f7175616c20616e642067726561746572207468616e20302e0000000000000000606482015260840161024b565b60005b83518110156104475760008482815181106102f8576102f8610d4f565b60200260200101519050600260149054906101000a900460ff166103bd576001600160a01b0381811660009081526020819052604090205416156103bd5760405162461bcd60e51b815260206004820152605060248201527f41646d696e2063616e6e6f74206f7665727772697465206578697374696e672060448201527f61737369676e6d656e7473206f6620707269636520666565647320746f20756e60648201526f3232b9363cb4b733903a37b5b2b7399760811b608482015260a40161024b565b8382815181106103cf576103cf610d4f565b6020908102919091018101516001600160a01b038381166000908152808452604080822080546001600160a01b031916939094169290921790925560019283905290208054859260ff1990911690838181111561042e5761042e610d11565b021790555050808061043f90610d7b565b9150506102db565b50505050565b6002546001600160a01b031633146104a25760405162461bcd60e51b815260206004820152601860248201527729b2b73232b91034b9903737ba103a34329030b236b4b71760411b604482015260640161024b565b600280546001600160a01b038381166001600160a01b031983168117909355604080519190921680825260208201939093527ff9ffabca9c8276e99321725bcb43fb076a6c66a54b7f21c4e8146d8519b417dc910160405180910390a15050565b600061050e826106bf565b92915050565b6000816001600160a01b031663ac784ddc6040518163ffffffff1660e01b8152600401602060405180830381865afa158015610554573d6000803e3d6000fd5b505050506040513d601f19601f820116820180604052508101906105789190610d96565b1561058c5750670de0b6b3a7640000919050565b6000826001600160a01b0316636f307dc36040518163ffffffff1660e01b8152600401602060405180830381865afa1580156105cc573d6000803e3d6000fd5b505050506040513d601f19601f820116820180604052508101906105f09190610db8565b905060006105fd826106bf565b90506000826001600160a01b031663313ce5676040518163ffffffff1660e01b8152600401602060405180830381865afa15801561063f573d6000803e3d6000fd5b505050506040513d601f19601f820116820180604052508101906106639190610dd5565b60ff16905060128111156106965761067c601282610df8565b61068790600a610ef3565b6106919083610eff565b6106b6565b6106a1816012610df8565b6106ac90600a610ef3565b6106b69083610f21565b95945050505050565b60007f00000000000000000000000000000000000000000000000000000000000000006001600160a01b0316826001600160a01b0316148061070857506001600160a01b038216155b1561071c5750670de0b6b3a7640000919050565b6001600160a01b0380831660009081526020819052604090205416806107aa5760405162461bcd60e51b815260206004820152603e60248201527f4e6f20436861696e6c696e6b207072696365206665656420666f756e6420666f60448201527f72207468697320756e6465726c79696e6720455243323020746f6b656e2e0000606482015260840161024b565b6001600160a01b03831660009081526001602052604081205460ff16908160018111156107d9576107d9610d11565b14156108e5576000826001600160a01b031663feaf968c6040518163ffffffff1660e01b815260040160a060405180830381865afa15801561081f573d6000803e3d6000fd5b505050506040513d601f19601f820116820180604052508101906108439190610f5a565b50505091505060008112156108595760006106b6565b826001600160a01b031663313ce5676040518163ffffffff1660e01b8152600401602060405180830381865afa158015610897573d6000803e3d6000fd5b505050506040513d601f19601f820116820180604052508101906108bb9190610dd5565b6108c99060ff16600a610ef3565b6108db82670de0b6b3a7640000610f21565b6106b69190610eff565b60018160018111156108f9576108f9610d11565b1415610b515760007f00000000000000000000000000000000000000000000000000000000000000006001600160a01b031663feaf968c6040518163ffffffff1660e01b815260040160a060405180830381865afa15801561095f573d6000803e3d6000fd5b505050506040513d601f19601f820116820180604052508101906109839190610f5a565b5050509150506000811361099c57506000949350505050565b6000836001600160a01b031663feaf968c6040518163ffffffff1660e01b815260040160a060405180830381865afa1580156109dc573d6000803e3d6000fd5b505050506040513d601f19601f82011682018060405250810190610a009190610f5a565b5050509150506000811215610a16576000610b47565b81846001600160a01b031663313ce5676040518163ffffffff1660e01b8152600401602060405180830381865afa158015610a55573d6000803e3d6000fd5b505050506040513d601f19601f82011682018060405250810190610a799190610dd5565b610a879060ff16600a610ef3565b7f00000000000000000000000000000000000000000000000000000000000000006001600160a01b031663313ce5676040518163ffffffff1660e01b8152600401602060405180830381865afa158015610ae5573d6000803e3d6000fd5b505050506040513d601f19601f82011682018060405250810190610b099190610dd5565b610b179060ff16600a610ef3565b610b2984670de0b6b3a7640000610f21565b610b339190610f21565b610b3d9190610eff565b610b479190610eff565b9695505050505050565b60405162461bcd60e51b8152602060048201526015602482015274756e6b6e6f776e20626173652063757272656e637960581b604482015260640161024b565b634e487b7160e01b600052604160045260246000fd5b6001600160a01b0381168114610bbc57600080fd5b50565b8035610bca81610ba7565b919050565b600082601f830112610be057600080fd5b8135602067ffffffffffffffff80831115610bfd57610bfd610b91565b8260051b604051601f19603f83011681018181108482111715610c2257610c22610b91565b604052938452858101830193838101925087851115610c4057600080fd5b83870191505b84821015610c6657610c5782610bbf565b83529183019190830190610c46565b979650505050505050565b600080600060608486031215610c8657600080fd5b833567ffffffffffffffff80821115610c9e57600080fd5b610caa87838801610bcf565b94506020860135915080821115610cc057600080fd5b50610ccd86828701610bcf565b925050604084013560028110610ce257600080fd5b809150509250925092565b600060208284031215610cff57600080fd5b8135610d0a81610ba7565b9392505050565b634e487b7160e01b600052602160045260246000fd5b6020810160028310610d4957634e487b7160e01b600052602160045260246000fd5b91905290565b634e487b7160e01b600052603260045260246000fd5b634e487b7160e01b600052601160045260246000fd5b6000600019821415610d8f57610d8f610d65565b5060010190565b600060208284031215610da857600080fd5b81518015158114610d0a57600080fd5b600060208284031215610dca57600080fd5b8151610d0a81610ba7565b600060208284031215610de757600080fd5b815160ff81168114610d0a57600080fd5b600082821015610e0a57610e0a610d65565b500390565b600181815b80851115610e4a578160001904821115610e3057610e30610d65565b80851615610e3d57918102915b93841c9390800290610e14565b509250929050565b600082610e615750600161050e565b81610e6e5750600061050e565b8160018114610e845760028114610e8e57610eaa565b600191505061050e565b60ff841115610e9f57610e9f610d65565b50506001821b61050e565b5060208310610133831016604e8410600b8410161715610ecd575081810a61050e565b610ed78383610e0f565b8060001904821115610eeb57610eeb610d65565b029392505050565b6000610d0a8383610e52565b600082610f1c57634e487b7160e01b600052601260045260246000fd5b500490565b6000816000190483118215151615610f3b57610f3b610d65565b500290565b805169ffffffffffffffffffff81168114610bca57600080fd5b600080600080600060a08688031215610f7257600080fd5b610f7b86610f40565b9450602086015193506040860151925060608601519150610f9e60808701610f40565b9050929550929590935056fea164736f6c634300080a000a",
    "linkReferences": {}
  },
  "methodIdentifiers": {
    "NATIVE_TOKEN_USD_PRICE_FEED()": "3a750685",
    "admin()": "f851a440",
    "canAdminOverwrite()": "656b0fd1",
    "changeAdmin(address)": "8f283970",
    "feedBaseCurrencies(address)": "cebae71d",
    "getUnderlyingPrice(address)": "fc57d4df",
    "price(address)": "aea91078",
    "priceFeeds(address)": "9dcb511a",
    "setPriceFeeds(address[],address[],uint8)": "71f3245a",
    "wtoken()": "9c0591c8"
  }
}