{
  "address": "0xb57cf3507486abF0443ba782e2A1730CbE25bb9e",
  "abi": [
    {
      "anonymous": false,
      "inputs": [
        {
          "indexed": false,
          "internalType": "string",
          "name": "action",
          "type": "string"
        },
        {
          "indexed": false,
          "internalType": "bool",
          "name": "pauseState",
          "type": "bool"
        }
      ],
      "name": "ActionPaused",
      "type": "event"
    },
    {
      "anonymous": false,
      "inputs": [
        {
          "indexed": false,
          "internalType": "uint256",
          "name": "error",
          "type": "uint256"
        },
        {
          "indexed": false,
          "internalType": "uint256",
          "name": "info",
          "type": "uint256"
        },
        {
          "indexed": false,
          "internalType": "uint256",
          "name": "detail",
          "type": "uint256"
        }
      ],
      "name": "Failure",
      "type": "event"
    },
    {
      "anonymous": false,
      "inputs": [
        {
          "indexed": false,
          "internalType": "contract ICErc20",
          "name": "cToken",
          "type": "address"
        },
        {
          "indexed": false,
          "internalType": "string",
          "name": "action",
          "type": "string"
        },
        {
          "indexed": false,
          "internalType": "bool",
          "name": "pauseState",
          "type": "bool"
        }
      ],
      "name": "MarketActionPaused",
      "type": "event"
    },
    {
      "anonymous": false,
      "inputs": [
        {
          "indexed": false,
          "internalType": "contract ICErc20",
          "name": "cToken",
          "type": "address"
        }
      ],
      "name": "MarketUnlisted",
      "type": "event"
    },
    {
      "anonymous": false,
      "inputs": [
        {
          "indexed": true,
          "internalType": "contract ICErc20",
          "name": "cToken",
          "type": "address"
        },
        {
          "indexed": false,
          "internalType": "uint256",
          "name": "newBorrowCap",
          "type": "uint256"
        }
      ],
      "name": "NewBorrowCap",
      "type": "event"
    },
    {
      "anonymous": false,
      "inputs": [
        {
          "indexed": false,
          "internalType": "address",
          "name": "oldBorrowCapGuardian",
          "type": "address"
        },
        {
          "indexed": false,
          "internalType": "address",
          "name": "newBorrowCapGuardian",
          "type": "address"
        }
      ],
      "name": "NewBorrowCapGuardian",
      "type": "event"
    },
    {
      "anonymous": false,
      "inputs": [
        {
          "indexed": false,
          "internalType": "address",
          "name": "oldPauseGuardian",
          "type": "address"
        },
        {
          "indexed": false,
          "internalType": "address",
          "name": "newPauseGuardian",
          "type": "address"
        }
      ],
      "name": "NewPauseGuardian",
      "type": "event"
    },
    {
      "anonymous": false,
      "inputs": [
        {
          "indexed": true,
          "internalType": "contract ICErc20",
          "name": "cToken",
          "type": "address"
        },
        {
          "indexed": false,
          "internalType": "uint256",
          "name": "newSupplyCap",
          "type": "uint256"
        }
      ],
      "name": "NewSupplyCap",
      "type": "event"
    },
    {
      "inputs": [
        {
          "internalType": "address",
          "name": "cTokenBorrow",
          "type": "address"
        },
        {
          "internalType": "address",
          "name": "cTokenCollateral",
          "type": "address"
        },
        {
          "internalType": "bool",
          "name": "blacklisted",
          "type": "bool"
        }
      ],
      "name": "_blacklistBorrowingAgainstCollateral",
      "outputs": [],
      "stateMutability": "nonpayable",
      "type": "function"
    },
    {
      "inputs": [
        {
          "internalType": "address",
          "name": "cTokenBorrow",
          "type": "address"
        },
        {
          "internalType": "address",
          "name": "cTokenCollateral",
          "type": "address"
        },
        {
          "internalType": "address",
          "name": "account",
          "type": "address"
        },
        {
          "internalType": "bool",
          "name": "whitelisted",
          "type": "bool"
        }
      ],
      "name": "_blacklistBorrowingAgainstCollateralWhitelist",
      "outputs": [],
      "stateMutability": "nonpayable",
      "type": "function"
    },
    {
      "inputs": [
        {
          "internalType": "address",
          "name": "cToken",
          "type": "address"
        },
        {
          "internalType": "address",
          "name": "account",
          "type": "address"
        },
        {
          "internalType": "bool",
          "name": "whitelisted",
          "type": "bool"
        }
      ],
      "name": "_borrowCapWhitelist",
      "outputs": [],
      "stateMutability": "nonpayable",
      "type": "function"
    },
    {
      "inputs": [],
      "name": "_borrowGuardianPaused",
      "outputs": [
        {
          "internalType": "bool",
          "name": "",
          "type": "bool"
        }
      ],
      "stateMutability": "view",
      "type": "function"
    },
    {
      "inputs": [],
      "name": "_getExtensionFunctions",
      "outputs": [
        {
          "internalType": "bytes4[]",
          "name": "",
          "type": "bytes4[]"
        }
      ],
      "stateMutability": "pure",
      "type": "function"
    },
    {
      "inputs": [],
      "name": "_mintGuardianPaused",
      "outputs": [
        {
          "internalType": "bool",
          "name": "",
          "type": "bool"
        }
      ],
      "stateMutability": "view",
      "type": "function"
    },
    {
      "inputs": [
        {
          "internalType": "address",
          "name": "flywheelAddress",
          "type": "address"
        }
      ],
      "name": "_removeFlywheel",
      "outputs": [
        {
          "internalType": "bool",
          "name": "",
          "type": "bool"
        }
      ],
      "stateMutability": "nonpayable",
      "type": "function"
    },
    {
      "inputs": [
        {
          "internalType": "address",
          "name": "cTokenBorrow",
          "type": "address"
        },
        {
          "internalType": "address",
          "name": "cTokenCollateral",
          "type": "address"
        },
        {
          "internalType": "uint256",
          "name": "borrowCap",
          "type": "uint256"
        }
      ],
      "name": "_setBorrowCapForCollateral",
      "outputs": [],
      "stateMutability": "nonpayable",
      "type": "function"
    },
    {
      "inputs": [
        {
          "internalType": "address",
          "name": "cTokenBorrow",
          "type": "address"
        },
        {
          "internalType": "address",
          "name": "cTokenCollateral",
          "type": "address"
        },
        {
          "internalType": "address",
          "name": "account",
          "type": "address"
        },
        {
          "internalType": "bool",
          "name": "whitelisted",
          "type": "bool"
        }
      ],
      "name": "_setBorrowCapForCollateralWhitelist",
      "outputs": [],
      "stateMutability": "nonpayable",
      "type": "function"
    },
    {
      "inputs": [
        {
          "internalType": "address",
          "name": "newBorrowCapGuardian",
          "type": "address"
        }
      ],
      "name": "_setBorrowCapGuardian",
      "outputs": [],
      "stateMutability": "nonpayable",
      "type": "function"
    },
    {
      "inputs": [
        {
          "internalType": "contract ICErc20",
          "name": "cToken",
          "type": "address"
        },
        {
          "internalType": "bool",
          "name": "state",
          "type": "bool"
        }
      ],
      "name": "_setBorrowPaused",
      "outputs": [
        {
          "internalType": "bool",
          "name": "",
          "type": "bool"
        }
      ],
      "stateMutability": "nonpayable",
      "type": "function"
    },
    {
      "inputs": [
        {
          "internalType": "contract ICErc20[]",
          "name": "cTokens",
          "type": "address[]"
        },
        {
          "internalType": "uint256[]",
          "name": "newBorrowCaps",
          "type": "uint256[]"
        }
      ],
      "name": "_setMarketBorrowCaps",
      "outputs": [],
      "stateMutability": "nonpayable",
      "type": "function"
    },
    {
      "inputs": [
        {
          "internalType": "contract ICErc20[]",
          "name": "cTokens",
          "type": "address[]"
        },
        {
          "internalType": "uint256[]",
          "name": "newSupplyCaps",
          "type": "uint256[]"
        }
      ],
      "name": "_setMarketSupplyCaps",
      "outputs": [],
      "stateMutability": "nonpayable",
      "type": "function"
    },
    {
      "inputs": [
        {
          "internalType": "contract ICErc20",
          "name": "cToken",
          "type": "address"
        },
        {
          "internalType": "bool",
          "name": "state",
          "type": "bool"
        }
      ],
      "name": "_setMintPaused",
      "outputs": [
        {
          "internalType": "bool",
          "name": "",
          "type": "bool"
        }
      ],
      "stateMutability": "nonpayable",
      "type": "function"
    },
    {
      "inputs": [
        {
          "internalType": "address",
          "name": "newPauseGuardian",
          "type": "address"
        }
      ],
      "name": "_setPauseGuardian",
      "outputs": [
        {
          "internalType": "uint256",
          "name": "",
          "type": "uint256"
        }
      ],
      "stateMutability": "nonpayable",
      "type": "function"
    },
    {
      "inputs": [
        {
          "internalType": "bool",
          "name": "state",
          "type": "bool"
        }
      ],
      "name": "_setSeizePaused",
      "outputs": [
        {
          "internalType": "bool",
          "name": "",
          "type": "bool"
        }
      ],
      "stateMutability": "nonpayable",
      "type": "function"
    },
    {
      "inputs": [
        {
          "internalType": "bool",
          "name": "state",
          "type": "bool"
        }
      ],
      "name": "_setTransferPaused",
      "outputs": [
        {
          "internalType": "bool",
          "name": "",
          "type": "bool"
        }
      ],
      "stateMutability": "nonpayable",
      "type": "function"
    },
    {
      "inputs": [
        {
          "internalType": "address",
          "name": "cToken",
          "type": "address"
        },
        {
          "internalType": "address",
          "name": "account",
          "type": "address"
        },
        {
          "internalType": "bool",
          "name": "whitelisted",
          "type": "bool"
        }
      ],
      "name": "_supplyCapWhitelist",
      "outputs": [],
      "stateMutability": "nonpayable",
      "type": "function"
    },
    {
      "inputs": [
        {
          "internalType": "contract ICErc20",
          "name": "cToken",
          "type": "address"
        }
      ],
      "name": "_unsupportMarket",
      "outputs": [
        {
          "internalType": "uint256",
          "name": "",
          "type": "uint256"
        }
      ],
      "stateMutability": "nonpayable",
      "type": "function"
    },
    {
      "inputs": [
        {
          "internalType": "address",
          "name": "",
          "type": "address"
        },
        {
          "internalType": "uint256",
          "name": "",
          "type": "uint256"
        }
      ],
      "name": "accountAssets",
      "outputs": [
        {
          "internalType": "contract ICErc20",
          "name": "",
          "type": "address"
        }
      ],
      "stateMutability": "view",
      "type": "function"
    },
    {
      "inputs": [
        {
          "internalType": "address",
          "name": "flywheelAddress",
          "type": "address"
        }
      ],
      "name": "addNonAccruingFlywheel",
      "outputs": [
        {
          "internalType": "bool",
          "name": "",
          "type": "bool"
        }
      ],
      "stateMutability": "nonpayable",
      "type": "function"
    },
    {
      "inputs": [],
      "name": "admin",
      "outputs": [
        {
          "internalType": "address",
          "name": "",
          "type": "address"
        }
      ],
      "stateMutability": "view",
      "type": "function"
    },
    {
      "inputs": [],
      "name": "adminHasRights",
      "outputs": [
        {
          "internalType": "bool",
          "name": "",
          "type": "bool"
        }
      ],
      "stateMutability": "view",
      "type": "function"
    },
    {
      "inputs": [
        {
          "internalType": "uint256",
          "name": "",
          "type": "uint256"
        }
      ],
      "name": "allBorrowers",
      "outputs": [
        {
          "internalType": "address",
          "name": "",
          "type": "address"
        }
      ],
      "stateMutability": "view",
      "type": "function"
    },
    {
      "inputs": [
        {
          "internalType": "uint256",
          "name": "",
          "type": "uint256"
        }
      ],
      "name": "allMarkets",
      "outputs": [
        {
          "internalType": "contract ICErc20",
          "name": "",
          "type": "address"
        }
      ],
      "stateMutability": "view",
      "type": "function"
    },
    {
      "inputs": [],
      "name": "autoImplementation",
      "outputs": [
        {
          "internalType": "bool",
          "name": "",
          "type": "bool"
        }
      ],
      "stateMutability": "view",
      "type": "function"
    },
    {
      "inputs": [
        {
          "internalType": "address",
          "name": "",
          "type": "address"
        },
        {
          "internalType": "address",
          "name": "",
          "type": "address"
        }
      ],
      "name": "borrowCapForCollateral",
      "outputs": [
        {
          "internalType": "uint256",
          "name": "",
          "type": "uint256"
        }
      ],
      "stateMutability": "view",
      "type": "function"
    },
    {
      "inputs": [],
      "name": "borrowCapGuardian",
      "outputs": [
        {
          "internalType": "address",
          "name": "",
          "type": "address"
        }
      ],
      "stateMutability": "view",
      "type": "function"
    },
    {
      "inputs": [
        {
          "internalType": "address",
          "name": "",
          "type": "address"
        }
      ],
      "name": "borrowCaps",
      "outputs": [
        {
          "internalType": "uint256",
          "name": "",
          "type": "uint256"
        }
      ],
      "stateMutability": "view",
      "type": "function"
    },
    {
      "inputs": [
        {
          "internalType": "address",
          "name": "",
          "type": "address"
        }
      ],
      "name": "borrowGuardianPaused",
      "outputs": [
        {
          "internalType": "bool",
          "name": "",
          "type": "bool"
        }
      ],
      "stateMutability": "view",
      "type": "function"
    },
    {
      "inputs": [
        {
          "internalType": "address",
          "name": "",
          "type": "address"
        },
        {
          "internalType": "address",
          "name": "",
          "type": "address"
        }
      ],
      "name": "borrowingAgainstCollateralBlacklist",
      "outputs": [
        {
          "internalType": "bool",
          "name": "",
          "type": "bool"
        }
      ],
      "stateMutability": "view",
      "type": "function"
    },
    {
      "inputs": [
        {
          "internalType": "address",
          "name": "",
          "type": "address"
        }
      ],
      "name": "cTokensByUnderlying",
      "outputs": [
        {
          "internalType": "contract ICErc20",
          "name": "",
          "type": "address"
        }
      ],
      "stateMutability": "view",
      "type": "function"
    },
    {
      "inputs": [],
      "name": "closeFactorMantissa",
      "outputs": [
        {
          "internalType": "uint256",
          "name": "",
          "type": "uint256"
        }
      ],
      "stateMutability": "view",
      "type": "function"
    },
    {
      "inputs": [],
      "name": "comptrollerImplementation",
      "outputs": [
        {
          "internalType": "address",
          "name": "",
          "type": "address"
        }
      ],
      "stateMutability": "view",
      "type": "function"
    },
    {
      "inputs": [],
      "name": "enforceWhitelist",
      "outputs": [
        {
          "internalType": "bool",
          "name": "",
          "type": "bool"
        }
      ],
      "stateMutability": "view",
      "type": "function"
    },
    {
      "inputs": [],
      "name": "fuseAdmin",
      "outputs": [
        {
          "internalType": "address payable",
          "name": "",
          "type": "address"
        }
      ],
      "stateMutability": "view",
      "type": "function"
    },
    {
      "inputs": [],
      "name": "fuseAdminHasRights",
      "outputs": [
        {
          "internalType": "bool",
          "name": "",
          "type": "bool"
        }
      ],
      "stateMutability": "view",
      "type": "function"
    },
    {
      "inputs": [],
      "name": "getAccruingFlywheels",
      "outputs": [
        {
          "internalType": "address[]",
          "name": "",
          "type": "address[]"
        }
      ],
      "stateMutability": "view",
      "type": "function"
    },
    {
      "inputs": [],
      "name": "getAllBorrowers",
      "outputs": [
        {
          "internalType": "address[]",
          "name": "",
          "type": "address[]"
        }
      ],
      "stateMutability": "view",
      "type": "function"
    },
    {
      "inputs": [],
      "name": "getAllMarkets",
      "outputs": [
        {
          "internalType": "contract ICErc20[]",
          "name": "",
          "type": "address[]"
        }
      ],
      "stateMutability": "view",
      "type": "function"
    },
    {
      "inputs": [
        {
          "internalType": "contract ICErc20",
          "name": "collateral",
          "type": "address"
        },
        {
          "internalType": "contract ICErc20",
          "name": "cTokenModify",
          "type": "address"
        },
        {
          "internalType": "bool",
          "name": "redeeming",
          "type": "bool"
        },
        {
          "internalType": "address",
          "name": "account",
          "type": "address"
        }
      ],
      "name": "getAssetAsCollateralValueCap",
      "outputs": [
        {
          "internalType": "uint256",
          "name": "",
          "type": "uint256"
        }
      ],
      "stateMutability": "view",
      "type": "function"
    },
    {
      "inputs": [],
      "name": "getRewardsDistributors",
      "outputs": [
        {
          "internalType": "address[]",
          "name": "",
          "type": "address[]"
        }
      ],
      "stateMutability": "view",
      "type": "function"
    },
    {
      "inputs": [],
      "name": "getWhitelist",
      "outputs": [
        {
          "internalType": "address[]",
          "name": "",
          "type": "address[]"
        }
      ],
      "stateMutability": "view",
      "type": "function"
    },
    {
      "inputs": [
        {
          "internalType": "address",
          "name": "cToken",
          "type": "address"
        }
      ],
      "name": "getWhitelistedBorrowersBorrows",
      "outputs": [
        {
          "internalType": "uint256",
          "name": "borrowed",
          "type": "uint256"
        }
      ],
      "stateMutability": "view",
      "type": "function"
    },
    {
      "inputs": [
        {
          "internalType": "address",
          "name": "cToken",
          "type": "address"
        }
      ],
      "name": "getWhitelistedSuppliersSupply",
      "outputs": [
        {
          "internalType": "uint256",
          "name": "supplied",
          "type": "uint256"
        }
      ],
      "stateMutability": "view",
      "type": "function"
    },
    {
      "inputs": [
        {
          "internalType": "address",
          "name": "cTokenBorrow",
          "type": "address"
        },
        {
          "internalType": "address",
          "name": "cTokenCollateral",
          "type": "address"
        },
        {
          "internalType": "address",
          "name": "account",
          "type": "address"
        }
      ],
      "name": "isBlacklistBorrowingAgainstCollateralWhitelisted",
      "outputs": [
        {
          "internalType": "bool",
          "name": "",
          "type": "bool"
        }
      ],
      "stateMutability": "view",
      "type": "function"
    },
    {
      "inputs": [
        {
          "internalType": "address",
          "name": "cTokenBorrow",
          "type": "address"
        },
        {
          "internalType": "address",
          "name": "cTokenCollateral",
          "type": "address"
        },
        {
          "internalType": "address",
          "name": "account",
          "type": "address"
        }
      ],
      "name": "isBorrowCapForCollateralWhitelisted",
      "outputs": [
        {
          "internalType": "bool",
          "name": "",
          "type": "bool"
        }
      ],
      "stateMutability": "view",
      "type": "function"
    },
    {
      "inputs": [
        {
          "internalType": "address",
          "name": "cToken",
          "type": "address"
        },
        {
          "internalType": "address",
          "name": "account",
          "type": "address"
        }
      ],
      "name": "isBorrowCapWhitelisted",
      "outputs": [
        {
          "internalType": "bool",
          "name": "",
          "type": "bool"
        }
      ],
      "stateMutability": "view",
      "type": "function"
    },
    {
      "inputs": [
        {
          "internalType": "address",
          "name": "cToken",
          "type": "address"
        },
        {
          "internalType": "address",
          "name": "account",
          "type": "address"
        }
      ],
      "name": "isSupplyCapWhitelisted",
      "outputs": [
        {
          "internalType": "bool",
          "name": "",
          "type": "bool"
        }
      ],
      "stateMutability": "view",
      "type": "function"
    },
    {
      "inputs": [
        {
          "internalType": "address",
          "name": "user",
          "type": "address"
        }
      ],
      "name": "isUserOfPool",
      "outputs": [
        {
          "internalType": "bool",
          "name": "",
          "type": "bool"
        }
      ],
      "stateMutability": "view",
      "type": "function"
    },
    {
      "inputs": [],
      "name": "liquidationIncentiveMantissa",
      "outputs": [
        {
          "internalType": "uint256",
          "name": "",
          "type": "uint256"
        }
      ],
      "stateMutability": "view",
      "type": "function"
    },
    {
      "inputs": [
        {
          "internalType": "address",
          "name": "",
          "type": "address"
        }
      ],
      "name": "markets",
      "outputs": [
        {
          "internalType": "bool",
          "name": "isListed",
          "type": "bool"
        },
        {
          "internalType": "uint256",
          "name": "collateralFactorMantissa",
          "type": "uint256"
        }
      ],
      "stateMutability": "view",
      "type": "function"
    },
    {
      "inputs": [
        {
          "internalType": "address",
          "name": "",
          "type": "address"
        }
      ],
      "name": "mintGuardianPaused",
      "outputs": [
        {
          "internalType": "bool",
          "name": "",
          "type": "bool"
        }
      ],
      "stateMutability": "view",
      "type": "function"
    },
    {
      "inputs": [
        {
          "internalType": "uint256",
          "name": "",
          "type": "uint256"
        }
      ],
      "name": "nonAccruingRewardsDistributors",
      "outputs": [
        {
          "internalType": "address",
          "name": "",
          "type": "address"
        }
      ],
      "stateMutability": "view",
      "type": "function"
    },
    {
      "inputs": [],
      "name": "oracle",
      "outputs": [
        {
          "internalType": "contract BasePriceOracle",
          "name": "",
          "type": "address"
        }
      ],
      "stateMutability": "view",
      "type": "function"
    },
    {
      "inputs": [],
      "name": "pauseGuardian",
      "outputs": [
        {
          "internalType": "address",
          "name": "",
          "type": "address"
        }
      ],
      "stateMutability": "view",
      "type": "function"
    },
    {
      "inputs": [],
      "name": "pendingAdmin",
      "outputs": [
        {
          "internalType": "address",
          "name": "",
          "type": "address"
        }
      ],
      "stateMutability": "view",
      "type": "function"
    },
    {
      "inputs": [],
      "name": "pendingComptrollerImplementation",
      "outputs": [
        {
          "internalType": "address",
          "name": "",
          "type": "address"
        }
      ],
      "stateMutability": "view",
      "type": "function"
    },
    {
      "inputs": [
        {
          "internalType": "uint256",
          "name": "",
          "type": "uint256"
        }
      ],
      "name": "rewardsDistributors",
      "outputs": [
        {
          "internalType": "address",
          "name": "",
          "type": "address"
        }
      ],
      "stateMutability": "view",
      "type": "function"
    },
    {
      "inputs": [],
      "name": "seizeGuardianPaused",
      "outputs": [
        {
          "internalType": "bool",
          "name": "",
          "type": "bool"
        }
      ],
      "stateMutability": "view",
      "type": "function"
    },
    {
      "inputs": [
        {
          "internalType": "address",
          "name": "",
          "type": "address"
        }
      ],
      "name": "suppliers",
      "outputs": [
        {
          "internalType": "bool",
          "name": "",
          "type": "bool"
        }
      ],
      "stateMutability": "view",
      "type": "function"
    },
    {
      "inputs": [
        {
          "internalType": "address",
          "name": "",
          "type": "address"
        }
      ],
      "name": "supplyCaps",
      "outputs": [
        {
          "internalType": "uint256",
          "name": "",
          "type": "uint256"
        }
      ],
      "stateMutability": "view",
      "type": "function"
    },
    {
      "inputs": [],
      "name": "transferGuardianPaused",
      "outputs": [
        {
          "internalType": "bool",
          "name": "",
          "type": "bool"
        }
      ],
      "stateMutability": "view",
      "type": "function"
    },
    {
      "inputs": [
        {
          "internalType": "address",
          "name": "",
          "type": "address"
        }
      ],
      "name": "whitelist",
      "outputs": [
        {
          "internalType": "bool",
          "name": "",
          "type": "bool"
        }
      ],
      "stateMutability": "view",
      "type": "function"
    },
    {
      "inputs": [
        {
          "internalType": "uint256",
          "name": "",
          "type": "uint256"
        }
      ],
      "name": "whitelistArray",
      "outputs": [
        {
          "internalType": "address",
          "name": "",
          "type": "address"
        }
      ],
      "stateMutability": "view",
      "type": "function"
    }
  ],
  "transactionHash": "0xedb9243ae7beece75b795728c44066eb42758bb54e01bb660a6a948e9232614e",
  "args": [],
  "numDeployments": 8,
  "bytecode": {
    "object": "0x60806040526002805461ffff60a01b191661010160a01b17905534801561002557600080fd5b50613619806100356000396000f3fe608060405234801561001057600080fd5b50600436106103db5760003560e01c8063731f0c2b1161020a578063bb82aa5e11610125578063dce15449116100b8578063e875544611610087578063e875544614610932578063ee5b9a2f1461093b578063f851a4401461094e578063f874eb0c14610961578063fb6243fa1461097457600080fd5b8063dce15449146108eb578063dcfbc0c7146108fe578063dd5cd22c14610911578063e6653f3d1461091e57600080fd5b8063d01f63f5116100f4578063d01f63f5146108aa578063d219fca7146108b2578063d251fefc146108c5578063d9e0ea6b146108d857600080fd5b8063bb82aa5e1461085e578063be945a6414610871578063c6c5b0dd14610884578063c76ae2601461089757600080fd5b80638ebf63641161019d578063ac0b0bb71161016c578063ac0b0bb714610822578063b0772d0b14610836578063b09572101461083e578063b32538011461084b57600080fd5b80638ebf6364146107ae578063940cd6f1146107c15780639b19251a146107ec578063a5fb48571461080f57600080fd5b8063819605a8116101d9578063819605a81461072e57806387f763031461074157806389f8132e146107555780638e8f294b1461076a57600080fd5b8063731f0c2b146106d25780637515bafa146106f5578063783f1096146107085780637dc0d1d01461071b57600080fd5b80633605b51b116102fa57806351a485e41161028d578063607ef6c11161025c578063607ef6c114610676578063692fd2a9146106895780636bd02b8a1461069c5780636d154ea5146106af57600080fd5b806351a485e41461062a57806351c8491d1461063d57806352d84d1e146106505780635f5af1aa1461066357600080fd5b80633c94786f116102c95780633c94786f146105e55780634a584432146105f95780634a76e727146106195780634ada90af1461062157600080fd5b80633605b51b146105a2578063391957d7146105aa5780633a72cb5e146105bf5780633bcf7ec1146105d257600080fd5b806321af4569116103725780632d70db78116103415780632d70db781461053d5780632f1069ba1461055057806331ff47fa1461056457806332abcdbe1461058d57600080fd5b806321af4569146104ec5780632273f40e1461050457806324a3d62214610517578063267822471461052a57600080fd5b806315761d51116103ae57806315761d511461045d57806316dc15fe1461048857806318c882a5146104ab5780631c819e43146104be57600080fd5b806302c3bcbb146103e0578063088e0fce146104135780630a755ec214610436578063109908ce1461044a575b600080fd5b6104006103ee366004613054565b601a6020526000908152604090205481565b6040519081526020015b60405180910390f35b610426610421366004613071565b610987565b604051901515815260200161040a565b60025461042690600160a81b900460ff1681565b610426610458366004613054565b6109be565b600054610470906001600160a01b031681565b6040516001600160a01b03909116815260200161040a565b610426610496366004613054565b600f6020526000908152604090205460ff1681565b6104266104b93660046130d1565b610c1c565b6104266104cc366004613106565b601f60209081526000928352604080842090915290825290205460ff1681565b6018546104709061010090046001600160a01b031681565b610426610512366004613106565b610d62565b601554610470906001600160a01b031681565b600254610470906001600160a01b031681565b61042661054b36600461313f565b610d8b565b60025461042690600160a01b900460ff1681565b610470610572366004613054565b6010602052600090815260409020546001600160a01b031681565b610595610e6e565b60405161040a919061315a565b610595610ed0565b6105bd6105b8366004613054565b611038565b005b6104006105cd366004613054565b6110cd565b6104266105e03660046130d1565b6111b8565b60155461042690600160a01b900460ff1681565b610400610607366004613054565b60196020526000908152604090205481565b61059561130b565b61040060075481565b6105bd6106383660046131f3565b61136b565b6105bd61064b36600461325f565b6114f9565b61047061065e3660046132a6565b61156d565b610400610671366004613054565b611597565b6105bd6106843660046131f3565b611617565b610426610697366004613054565b61179c565b6104706106aa3660046132a6565b611937565b6104266106bd366004613054565b60176020526000908152604090205460ff1681565b6104266106e0366004613054565b60166020526000908152604090205460ff1681565b6104706107033660046132a6565b611947565b6104006107163660046132bf565b611957565b600554610470906001600160a01b031681565b61040061073c366004613054565b611c4a565b60155461042690600160b01b900460ff1681565b61075d611f80565b60405161040a9190613319565b610797610778366004613054565b600a602052600090815260409020805460019091015460ff9091169082565b60408051921515835260208301919091520161040a565b6104266107bc36600461313f565b612799565b6104006107cf366004613106565b601e60209081526000928352604080842090915290825290205481565b6104266107fa366004613054565b60126020526000908152604090205460ff1681565b6105bd61081d36600461335b565b612873565b60155461042690600160b81b900460ff1681565b6105956128c3565b6011546104269060ff1681565b610426610859366004613106565b612923565b600354610470906001600160a01b031681565b6105bd61087f36600461325f565b612945565b6104706108923660046132a6565b6129b3565b6105bd6108a536600461339c565b6129c3565b610595612a58565b6105bd6108c036600461339c565b612ab8565b6104706108d33660046132a6565b612b3c565b6104266108e6366004613054565b612b4c565b6104706108f93660046133f6565b612bcd565b600454610470906001600160a01b031681565b6018546104269060ff1681565b60155461042690600160a81b900460ff1681565b61040060065481565b6105bd61094936600461325f565b612c05565b600154610470906001600160a01b031681565b61042661096f366004613071565b612c63565b610400610982366004613054565b612c94565b6001600160a01b0380841660009081526020808052604080832093861683529290529081206109b69083612d78565b949350505050565b60006109c8612d9a565b6109ed5760405162461bcd60e51b81526004016109e490613422565b60405180910390fd5b6001600160a01b038216610a2f5760405162461bcd60e51b815260206004820152600960248201526808599b1e5dda19595b60ba1b60448201526064016109e4565b60005b601b54811015610b3657601b8181548110610a4f57610a4f613442565b6000918252602090912001546001600160a01b0384811691161415610b2457601b8054610a7e9060019061346e565b81548110610a8e57610a8e613442565b600091825260209091200154601b80546001600160a01b039092169183908110610aba57610aba613442565b9060005260206000200160006101000a8154816001600160a01b0302191690836001600160a01b03160217905550601b805480610af957610af9613485565b600082815260209020810160001990810180546001600160a01b031916905501905550600192915050565b80610b2e8161349b565b915050610a32565b5060005b601d54811015610c1357601d8181548110610b5757610b57613442565b6000918252602090912001546001600160a01b0384811691161415610c0157601d8054610b869060019061346e565b81548110610b9657610b96613442565b600091825260209091200154601d80546001600160a01b039092169183908110610bc257610bc2613442565b9060005260206000200160006101000a8154816001600160a01b0302191690836001600160a01b03160217905550601d805480610af957610af9613485565b80610c0b8161349b565b915050610b3a565b50600092915050565b6001600160a01b0382166000908152600a602052604081205460ff16610c6e5760405162461bcd60e51b8152602060048201526007602482015266085b585c9ad95d60ca1b60448201526064016109e4565b6015546001600160a01b0316331480610c8a5750610c8a612d9a565b610ca65760405162461bcd60e51b81526004016109e4906134b6565b610cae612d9a565b80610cbb57506001821515145b610cd75760405162461bcd60e51b81526004016109e490613422565b6001600160a01b038316600081815260176020908152604091829020805460ff19168615159081179091558251938452606091840182905260069184019190915265426f72726f7760d01b6080840152908201527f4ab2c577b7459254dd330a38beef1d66ae70ba1ab28db7147d52d3a752a03cdc9060a0015b60405180910390a150805b92915050565b6001600160a01b0382166000908152602260205260408120610d849083612d78565b9392505050565b6015546000906001600160a01b0316331480610daa5750610daa612d9a565b610dc65760405162461bcd60e51b81526004016109e4906134b6565b610dce612d9a565b80610ddb57506001821515145b610df75760405162461bcd60e51b81526004016109e490613422565b60158054831515600160b81b0260ff60b81b199091161790556040517fef159d9a32b2472e32b098f954f3ce62d232939f1c207070b584df1814de2de090610e629084906040808252600590820152645365697a6560d81b6060820152901515602082015260800190565b60405180910390a15090565b6060600d805480602002602001604051908101604052809291908181526020018280548015610ec657602002820191906000526020600020905b81546001600160a01b03168152600190910190602001808311610ea8575b5050505050905090565b601d54601b54606091600091610ee691906134d9565b67ffffffffffffffff811115610efe57610efe6134f1565b604051908082528060200260200182016040528015610f27578160200160208202803683370190505b50905060005b601b5460ff82161015610fad57601b8160ff1681548110610f5057610f50613442565b9060005260206000200160009054906101000a90046001600160a01b0316828260ff1681518110610f8357610f83613442565b6001600160a01b039092166020928302919091019091015280610fa581613507565b915050610f2d565b60005b601d5460ff8216101561103057601d8160ff1681548110610fd357610fd3613442565b6000918252602090912001546001600160a01b031683610ff38385613527565b60ff168151811061100657611006613442565b6001600160a01b03909216602092830291909101909101528061102881613507565b915050610fb0565b509092915050565b6001546001600160a01b031633146110625760405162461bcd60e51b81526004016109e490613422565b601880546001600160a01b03838116610100818102610100600160a81b031985161790945560408051949093049091168084526020840191909152917feda98690e518e9a05f8ec6837663e188211b2da8f4906648b323f2c1d4434e29910160405180910390a15050565b6001600160a01b038116600090815260236020526040812081906110f090612dee565b905060005b81518110156111b157836001600160a01b03166317bfdfbc83838151811061111f5761111f613442565b60200260200101516040518263ffffffff1660e01b815260040161115291906001600160a01b0391909116815260200190565b602060405180830381865afa15801561116f573d6000803e3d6000fd5b505050506040513d601f19601f82011682018060405250810190611193919061354c565b61119d90846134d9565b9250806111a98161349b565b9150506110f5565b5050919050565b6001600160a01b0382166000908152600a602052604081205460ff1661120a5760405162461bcd60e51b8152602060048201526007602482015266085b585c9ad95d60ca1b60448201526064016109e4565b6015546001600160a01b03163314806112265750611226612d9a565b61125e5760405162461bcd60e51b815260206004820152600960248201526810b3b0bab93234b0b760b91b60448201526064016109e4565b611266612d9a565b8061127357506001821515145b61128f5760405162461bcd60e51b81526004016109e490613422565b6001600160a01b038316600081815260166020908152604091829020805460ff19168615159081179091558251938452606091840182905260049184019190915263135a5b9d60e21b6080840152908201527f4ab2c577b7459254dd330a38beef1d66ae70ba1ab28db7147d52d3a752a03cdc9060a001610d51565b6060601b805480602002602001604051908101604052809291908181526020018280548015610ec6576020028201919060005260206000209081546001600160a01b03168152600190910190602001808311610ea8575050505050905090565b6001546001600160a01b0316331480611393575060185461010090046001600160a01b031633145b6113af5760405162461bcd60e51b81526004016109e490613422565b828181158015906113bf57508082145b6113f45760405162461bcd60e51b8152602060048201526006602482015265085a5b9c1d5d60d21b60448201526064016109e4565b60005b828110156114f05784848281811061141157611411613442565b90506020020135601a600089898581811061142e5761142e613442565b90506020020160208101906114439190613054565b6001600160a01b0316815260208101919091526040016000205586868281811061146f5761146f613442565b90506020020160208101906114849190613054565b6001600160a01b03167f9e0ad9cee10bdf36b7fbd38910c0bdff0f275ace679b45b922381c2723d676f88686848181106114c0576114c0613442565b905060200201356040516114d691815260200190565b60405180910390a2806114e88161349b565b9150506113f7565b50505050505050565b611501612d9a565b61151d5760405162461bcd60e51b81526004016109e490613422565b801561154b576001600160a01b03831660009081526022602052604090206115459083612dfb565b50505050565b6001600160a01b03831660009081526022602052604090206115459083612e10565b600b818154811061157d57600080fd5b6000918252602090912001546001600160a01b0316905081565b60006115a1612d9a565b6115b157610d5c60016017612e25565b601580546001600160a01b038481166001600160a01b031983168117909355604080519190921680825260208201939093527f0613b6ee6a04f0d09f390e4d9318894b9f6ac7fd83897cd8d18896ba579c401e910160405180910390a160009392505050565b6001546001600160a01b031633148061163f575060185461010090046001600160a01b031633145b61165b5760405162461bcd60e51b81526004016109e490613422565b8281811580159061166b57508082145b6116a05760405162461bcd60e51b8152602060048201526006602482015265085a5b9c1d5d60d21b60448201526064016109e4565b60005b828110156114f0578484828181106116bd576116bd613442565b90506020020135601960008989858181106116da576116da613442565b90506020020160208101906116ef9190613054565b6001600160a01b0316815260208101919091526040016000205586868281811061171b5761171b613442565b90506020020160208101906117309190613054565b6001600160a01b03167f6f1951b2aad10f3fc81b86d91105b413a5b3f847a34bbc5ce1904201b14438f686868481811061176c5761176c613442565b9050602002013560405161178291815260200190565b60405180910390a2806117948161349b565b9150506116a3565b60006117a6612d9a565b6117c25760405162461bcd60e51b81526004016109e490613422565b6001600160a01b0382166118045760405162461bcd60e51b815260206004820152600960248201526808599b1e5dda19595b60ba1b60448201526064016109e4565b60005b601d5481101561188d57601d818154811061182457611824613442565b6000918252602090912001546001600160a01b038481169116141561187b5760405162461bcd60e51b815260206004820152600d60248201526c08585b1c9958591e5859191959609a1b60448201526064016109e4565b806118858161349b565b915050611807565b50601d805460018101825560009182527f6d4407e7be21f808e6509aa9fa9143369579dd7d760fe20a2c09680fc146134f0180546001600160a01b0319166001600160a01b0385161790555b601b54811015610c1357601b81815481106118f6576118f6613442565b6000918252602090912001546001600160a01b038481169116141561192557601b8054610a7e9060019061346e565b8061192f8161349b565b9150506118d9565b601d818154811061157d57600080fd5b600d818154811061157d57600080fd5b6000836001600160a01b0316856001600160a01b0316148015611978575082155b15611985575060006109b6565b6000196001600160a01b03851615611afd576001600160a01b038086166000908152601f60209081526040808320938a168352929052205460ff1680156119f857506001600160a01b038086166000908152602160209081526040808320938a168352929052206119f69084612d78565b155b15611a0557506000611afd565b6001600160a01b038086166000908152601e60209081526040808320938a16835292905220548015801590611a6457506001600160a01b03808716600090815260208080526040808320938b16835292905220611a629085612d78565b155b15611afb5760055460405163fc57d4df60e01b81526001600160a01b038881166004830152600092169063fc57d4df90602401602060405180830381865afa158015611ab4573d6000803e3d6000fd5b505050506040513d601f19601f82011682018060405250810190611ad8919061354c565b9050670de0b6b3a7640000611aed828461357b565b611af7919061359a565b9250505b505b6001600160a01b0386166000908152601a602052604090205415801590611b4357506001600160a01b0386166000908152602260205260409020611b419084612d78565b155b15611c415760055460405163fc57d4df60e01b81526001600160a01b038881166004830152600092169063fc57d4df90602401602060405180830381865afa158015611b93573d6000803e3d6000fd5b505050506040513d601f19601f82011682018060405250810190611bb7919061354c565b6001600160a01b0388166000908152601a602052604081205491925090670de0b6b3a764000090611be990849061357b565b611bf3919061359a565b6001600160a01b0389166000908152600a6020526040902060010154909150670de0b6b3a764000090611c26908361357b565b611c30919061359a565b905082811015611c3e578092505b50505b95945050505050565b6000611c54612d9a565b611c6457610d5c60016018612e25565b6001600160a01b0382166000908152600a602052604090205460ff16611c9057610d5c60086019612e25565b6000826001600160a01b03166318160ddd6040518163ffffffff1660e01b8152600401602060405180830381865afa158015611cd0573d6000803e3d6000fd5b505050506040513d601f19601f82011682018060405250810190611cf4919061354c565b1115611d0657610d5c6014601a612e25565b6001600160a01b0382166000908152600a60209081526040808320805460ff19168155600101839055600b80548251818502810185019093528083529192909190830182828015611d8057602002820191906000526020600020905b81546001600160a01b03168152600190910190602001808311611d62575b5050835193945083925060009150505b82811015611de557856001600160a01b0316848281518110611db457611db4613442565b60200260200101516001600160a01b03161415611dd357809150611de5565b80611ddd8161349b565b915050611d90565b50818110611df557611df56135bc565b600b8054611e059060019061346e565b81548110611e1557611e15613442565b600091825260209091200154600b80546001600160a01b039092169183908110611e4157611e41613442565b9060005260206000200160006101000a8154816001600160a01b0302191690836001600160a01b03160217905550600b805480611e8057611e80613485565b6001900381819060005260206000200160006101000a8154906001600160a01b0302191690559055600060106000876001600160a01b0316636f307dc36040518163ffffffff1660e01b8152600401602060405180830381865afa158015611eec573d6000803e3d6000fd5b505050506040513d601f19601f82011682018060405250810190611f1091906135d2565b6001600160a01b039081168252602080830193909352604091820160002080546001600160a01b031916948216949094179093555191871682527f302feb03efd5741df80efe7f97f5d93d74d46a542a3d312d0faae64fa1f3e0e9910160405180910390a1600095945050505050565b60408051601e8082526103e082019092526060919060009082602082016103c08036833701905050905063692fd2a960e01b81611fbc846135ef565b93508360ff1681518110611fd257611fd2613442565b6001600160e01b031990921660209283029190910190910152631469217960e21b81611ffd846135ef565b93508360ff168151811061201357612013613442565b6001600160e01b03199092166020928302919091019091015263607ef6c160e01b8161203e846135ef565b93508360ff168151811061205457612054613442565b6001600160e01b03199092166020928302919091019091015263d219fca760e01b8161207f846135ef565b93508360ff168151811061209557612095613442565b6001600160e01b03199092166020928302919091019091015263063b571360e51b816120c0846135ef565b93508360ff16815181106120d6576120d6613442565b6001600160e01b0319909216602092830291909101909101526351c8491d60e01b81612101846135ef565b93508360ff168151811061211757612117613442565b6001600160e01b031990921660209283029190910190910152632fa5169960e21b81612142846135ef565b93508360ff168151811061215857612158613442565b6001600160e01b03199092166020928302919091019091015263391957d760e01b81612183846135ef565b93508360ff168151811061219957612199613442565b6001600160e01b031990921660209283029190910190910152632fad78d560e11b816121c4846135ef565b93508360ff16815181106121da576121da613442565b6001600160e01b031990921660209283029190910190910152633bcf7ec160e01b81612205846135ef565b93508360ff168151811061221b5761221b613442565b6001600160e01b0319909216602092830291909101909101526318c882a560e01b81612246846135ef565b93508360ff168151811061225c5761225c613442565b6001600160e01b0319909216602092830291909101909101526323afd8d960e21b81612287846135ef565b93508360ff168151811061229d5761229d613442565b6001600160e01b0319909216602092830291909101909101526305ae1b6f60e31b816122c8846135ef565b93508360ff16815181106122de576122de613442565b6001600160e01b031990921660209283029190910190910152631032c0b560e31b81612309846135ef565b93508360ff168151811061231f5761231f613442565b6001600160e01b03199092166020928302919091019091015263b0772d0b60e01b8161234a846135ef565b93508360ff168151811061236057612360613442565b6001600160e01b031990921660209283029190910190910152631955e6df60e11b8161238b846135ef565b93508360ff16815181106123a1576123a1613442565b6001600160e01b03199092166020928302919091019091015263d01f63f560e01b816123cc846135ef565b93508360ff16815181106123e2576123e2613442565b6001600160e01b031990921660209283029190910190910152633605b51b60e01b8161240d846135ef565b93508360ff168151811061242357612423613442565b6001600160e01b03199092166020928302919091019091015263d9e0ea6b60e01b8161244e846135ef565b93508360ff168151811061246457612464613442565b6001600160e01b031990921660209283029190910190910152634a76e72760e01b8161248f846135ef565b93508360ff16815181106124a5576124a5613442565b6001600160e01b03199092166020928302919091019091015263084c846760e11b816124d0846135ef565b93508360ff16815181106124e6576124e6613442565b6001600160e01b03199092166020928302919091019091015263a5fb485760e01b81612511846135ef565b93508360ff168151811061252757612527613442565b6001600160e01b03199092166020928302919091019091015263ee5b9a2f60e01b81612552846135ef565b93508360ff168151811061256857612568613442565b6001600160e01b03199092166020928302919091019091015263044707e760e11b81612593846135ef565b93508360ff16815181106125a9576125a9613442565b6001600160e01b031990921660209283029190910190910152633e1d3ac360e21b816125d4846135ef565b93508360ff16815181106125ea576125ea613442565b6001600160e01b031990921660209283029190910190910152631139fa0760e11b81612615846135ef565b93508360ff168151811061262b5761262b613442565b6001600160e01b03199092166020928302919091019091015263b325380160e01b81612656846135ef565b93508360ff168151811061266c5761266c613442565b6001600160e01b031990921660209283029190910190910152637db121fd60e11b81612697846135ef565b93508360ff16815181106126ad576126ad613442565b6001600160e01b031990921660209283029190910190910152631d3965af60e11b816126d8846135ef565b93508360ff16815181106126ee576126ee613442565b6001600160e01b031990921660209283029190910190910152633c1f884b60e11b81612719846135ef565b93508360ff168151811061272f5761272f613442565b6001600160e01b03199092166020928302919091019091015260ff821615610d5c5760405162461bcd60e51b815260206004820152601c60248201527f7573652074686520636f7272656374206172726179206c656e6774680000000060448201526064016109e4565b6015546000906001600160a01b03163314806127b857506127b8612d9a565b6127d45760405162461bcd60e51b81526004016109e4906134b6565b6127dc612d9a565b806127e957506001821515145b6128055760405162461bcd60e51b81526004016109e490613422565b60158054831515600160b01b0260ff60b01b199091161790556040517fef159d9a32b2472e32b098f954f3ce62d232939f1c207070b584df1814de2de090610e629084906040808252600890820152672a3930b739b332b960c11b6060820152901515602082015260800190565b61287b612d9a565b6128975760405162461bcd60e51b81526004016109e490613422565b6001600160a01b039283166000908152601e602090815260408083209490951682529290925291902055565b6060600b805480602002602001604051908101604052809291908181526020018280548015610ec6576020028201919060005260206000209081546001600160a01b03168152600190910190602001808311610ea8575050505050905090565b6001600160a01b0382166000908152602360205260408120610d849083612d78565b61294d612d9a565b6129695760405162461bcd60e51b81526004016109e490613422565b8015612991576001600160a01b03831660009081526023602052604090206115459083612dfb565b6001600160a01b03831660009081526023602052604090206115459083612e10565b601b818154811061157d57600080fd5b6129cb612d9a565b6129e75760405162461bcd60e51b81526004016109e490613422565b8015612a22576001600160a01b038085166000908152602160209081526040808320938716835292905220612a1c9083612dfb565b50611545565b6001600160a01b038085166000908152602160209081526040808320938716835292905220612a519083612e10565b5050505050565b60606013805480602002602001604051908101604052809291908181526020018280548015610ec6576020028201919060005260206000209081546001600160a01b03168152600190910190602001808311610ea8575050505050905090565b612ac0612d9a565b612adc5760405162461bcd60e51b81526004016109e490613422565b8015612b0f576001600160a01b03808516600090815260208080526040808320938716835292905220612a1c9083612dfb565b6001600160a01b03808516600090815260208080526040808320938716835292905220612a519083612e10565b6013818154811061157d57600080fd5b6000805b600b54811015610c13576000600b8281548110612b6f57612b6f613442565b60009182526020808320909101546001600160a01b03908116808452600a83526040808520928916855260029092019092529091205490915060ff1615612bba575060019392505050565b5080612bc58161349b565b915050612b50565b60096020528160005260406000208181548110612be957600080fd5b6000918252602090912001546001600160a01b03169150829050565b612c0d612d9a565b612c295760405162461bcd60e51b81526004016109e490613422565b6001600160a01b039283166000908152601f6020908152604080832094909516825292909252919020805460ff1916911515919091179055565b6001600160a01b03808416600090815260216020908152604080832093861683529290529081206109b69083612d78565b6001600160a01b03811660009081526022602052604081208190612cb790612dee565b905060005b81518110156111b157836001600160a01b0316633af9e669838381518110612ce657612ce6613442565b60200260200101516040518263ffffffff1660e01b8152600401612d1991906001600160a01b0391909116815260200190565b602060405180830381865afa158015612d36573d6000803e3d6000fd5b505050506040513d601f19601f82011682018060405250810190612d5a919061354c565b612d6490846134d9565b925080612d708161349b565b915050612cbc565b6001600160a01b03811660009081526001830160205260408120541515610d84565b6001546000906001600160a01b031633148015612dc05750600254600160a81b900460ff165b80612de957506000546001600160a01b031633148015612de95750600254600160a01b900460ff165b905090565b60606000610d8483612e9e565b6000610d84836001600160a01b038416612efa565b6000610d84836001600160a01b038416612f49565b60007f45b96fe442630264581b197e84bbada861235052c5a1aadfff9ea4e40a969aa0836014811115612e5a57612e5a613565565b83601a811115612e6c57612e6c613565565b60408051928352602083019190915260009082015260600160405180910390a1826014811115610d8457610d84613565565b606081600001805480602002602001604051908101604052809291908181526020018280548015612eee57602002820191906000526020600020905b815481526020019060010190808311612eda575b50505050509050919050565b6000818152600183016020526040812054612f4157508154600181810184556000848152602080822090930184905584548482528286019093526040902091909155610d5c565b506000610d5c565b60008181526001830160205260408120548015613032576000612f6d60018361346e565b8554909150600090612f819060019061346e565b9050818114612fe6576000866000018281548110612fa157612fa1613442565b9060005260206000200154905080876000018481548110612fc457612fc4613442565b6000918252602080832090910192909255918252600188019052604090208390555b8554869080612ff757612ff7613485565b600190038181906000526020600020016000905590558560010160008681526020019081526020016000206000905560019350505050610d5c565b6000915050610d5c565b6001600160a01b038116811461305157600080fd5b50565b60006020828403121561306657600080fd5b8135610d848161303c565b60008060006060848603121561308657600080fd5b83356130918161303c565b925060208401356130a18161303c565b915060408401356130b18161303c565b809150509250925092565b803580151581146130cc57600080fd5b919050565b600080604083850312156130e457600080fd5b82356130ef8161303c565b91506130fd602084016130bc565b90509250929050565b6000806040838503121561311957600080fd5b82356131248161303c565b915060208301356131348161303c565b809150509250929050565b60006020828403121561315157600080fd5b610d84826130bc565b6020808252825182820181905260009190848201906040850190845b8181101561319b5783516001600160a01b031683529284019291840191600101613176565b50909695505050505050565b60008083601f8401126131b957600080fd5b50813567ffffffffffffffff8111156131d157600080fd5b6020830191508360208260051b85010111156131ec57600080fd5b9250929050565b6000806000806040858703121561320957600080fd5b843567ffffffffffffffff8082111561322157600080fd5b61322d888389016131a7565b9096509450602087013591508082111561324657600080fd5b50613253878288016131a7565b95989497509550505050565b60008060006060848603121561327457600080fd5b833561327f8161303c565b9250602084013561328f8161303c565b915061329d604085016130bc565b90509250925092565b6000602082840312156132b857600080fd5b5035919050565b600080600080608085870312156132d557600080fd5b84356132e08161303c565b935060208501356132f08161303c565b92506132fe604086016130bc565b9150606085013561330e8161303c565b939692955090935050565b6020808252825182820181905260009190848201906040850190845b8181101561319b5783516001600160e01b03191683529284019291840191600101613335565b60008060006060848603121561337057600080fd5b833561337b8161303c565b9250602084013561338b8161303c565b929592945050506040919091013590565b600080600080608085870312156133b257600080fd5b84356133bd8161303c565b935060208501356133cd8161303c565b925060408501356133dd8161303c565b91506133eb606086016130bc565b905092959194509250565b6000806040838503121561340957600080fd5b82356134148161303c565b946020939093013593505050565b60208082526006908201526510b0b236b4b760d11b604082015260600190565b634e487b7160e01b600052603260045260246000fd5b634e487b7160e01b600052601160045260246000fd5b60008282101561348057613480613458565b500390565b634e487b7160e01b600052603160045260246000fd5b60006000198214156134af576134af613458565b5060010190565b60208082526009908201526810b3bab0b93234b0b760b91b604082015260600190565b600082198211156134ec576134ec613458565b500190565b634e487b7160e01b600052604160045260246000fd5b600060ff821660ff81141561351e5761351e613458565b60010192915050565b600060ff821660ff84168060ff0382111561354457613544613458565b019392505050565b60006020828403121561355e57600080fd5b5051919050565b634e487b7160e01b600052602160045260246000fd5b600081600019048311821515161561359557613595613458565b500290565b6000826135b757634e487b7160e01b600052601260045260246000fd5b500490565b634e487b7160e01b600052600160045260246000fd5b6000602082840312156135e457600080fd5b8151610d848161303c565b600060ff82168061360257613602613458565b600019019291505056fea164736f6c634300080a000a",
    "linkReferences": {}
  },
  "methodIdentifiers": {
    "_blacklistBorrowingAgainstCollateral(address,address,bool)": "ee5b9a2f",
    "_blacklistBorrowingAgainstCollateralWhitelist(address,address,address,bool)": "c76ae260",
    "_borrowCapWhitelist(address,address,bool)": "be945a64",
    "_borrowGuardianPaused()": "e6653f3d",
    "_getExtensionFunctions()": "89f8132e",
    "_mintGuardianPaused()": "3c94786f",
    "_removeFlywheel(address)": "109908ce",
    "_setBorrowCapForCollateral(address,address,uint256)": "a5fb4857",
    "_setBorrowCapForCollateralWhitelist(address,address,address,bool)": "d219fca7",
    "_setBorrowCapGuardian(address)": "391957d7",
    "_setBorrowPaused(address,bool)": "18c882a5",
    "_setMarketBorrowCaps(address[],uint256[])": "607ef6c1",
    "_setMarketSupplyCaps(address[],uint256[])": "51a485e4",
    "_setMintPaused(address,bool)": "3bcf7ec1",
    "_setPauseGuardian(address)": "5f5af1aa",
    "_setSeizePaused(bool)": "2d70db78",
    "_setTransferPaused(bool)": "8ebf6364",
    "_supplyCapWhitelist(address,address,bool)": "51c8491d",
    "_unsupportMarket(address)": "819605a8",
    "accountAssets(address,uint256)": "dce15449",
    "addNonAccruingFlywheel(address)": "692fd2a9",
    "admin()": "f851a440",
    "adminHasRights()": "0a755ec2",
    "allBorrowers(uint256)": "7515bafa",
    "allMarkets(uint256)": "52d84d1e",
    "autoImplementation()": "dd5cd22c",
    "borrowCapForCollateral(address,address)": "940cd6f1",
    "borrowCapGuardian()": "21af4569",
    "borrowCaps(address)": "4a584432",
    "borrowGuardianPaused(address)": "6d154ea5",
    "borrowingAgainstCollateralBlacklist(address,address)": "1c819e43",
    "cTokensByUnderlying(address)": "31ff47fa",
    "closeFactorMantissa()": "e8755446",
    "comptrollerImplementation()": "bb82aa5e",
    "enforceWhitelist()": "b0957210",
    "fuseAdmin()": "15761d51",
    "fuseAdminHasRights()": "2f1069ba",
    "getAccruingFlywheels()": "4a76e727",
    "getAllBorrowers()": "32abcdbe",
    "getAllMarkets()": "b0772d0b",
    "getAssetAsCollateralValueCap(address,address,bool,address)": "783f1096",
    "getRewardsDistributors()": "3605b51b",
    "getWhitelist()": "d01f63f5",
    "getWhitelistedBorrowersBorrows(address)": "3a72cb5e",
    "getWhitelistedSuppliersSupply(address)": "fb6243fa",
    "isBlacklistBorrowingAgainstCollateralWhitelisted(address,address,address)": "f874eb0c",
    "isBorrowCapForCollateralWhitelisted(address,address,address)": "088e0fce",
    "isBorrowCapWhitelisted(address,address)": "b3253801",
    "isSupplyCapWhitelisted(address,address)": "2273f40e",
    "isUserOfPool(address)": "d9e0ea6b",
    "liquidationIncentiveMantissa()": "4ada90af",
    "markets(address)": "8e8f294b",
    "mintGuardianPaused(address)": "731f0c2b",
    "nonAccruingRewardsDistributors(uint256)": "6bd02b8a",
    "oracle()": "7dc0d1d0",
    "pauseGuardian()": "24a3d622",
    "pendingAdmin()": "26782247",
    "pendingComptrollerImplementation()": "dcfbc0c7",
    "rewardsDistributors(uint256)": "c6c5b0dd",
    "seizeGuardianPaused()": "ac0b0bb7",
    "suppliers(address)": "16dc15fe",
    "supplyCaps(address)": "02c3bcbb",
    "transferGuardianPaused()": "87f76303",
    "whitelist(address)": "9b19251a",
    "whitelistArray(uint256)": "d251fefc"
  }
}