{
  "address": "0xb4360e21F2408e58809008f08AfBFe5c834E7a8d",
  "abi": [
    {
      "inputs": [
        {
          "internalType": "address payable",
          "name": "_fuseAdmin",
          "type": "address"
        }
      ],
      "stateMutability": "nonpayable",
      "type": "constructor"
    },
    {
      "inputs": [
        {
          "internalType": "bytes4",
          "name": "_functionSelector",
          "type": "bytes4"
        }
      ],
      "name": "ExtensionNotFound",
      "type": "error"
    },
    {
      "inputs": [
        {
          "internalType": "bytes4",
          "name": "_functionSelector",
          "type": "bytes4"
        },
        {
          "internalType": "address",
          "name": "_currentImpl",
          "type": "address"
        }
      ],
      "name": "FunctionAlreadyAdded",
      "type": "error"
    },
    {
      "inputs": [
        {
          "internalType": "bytes4",
          "name": "_functionSelector",
          "type": "bytes4"
        }
      ],
      "name": "FunctionNotFound",
      "type": "error"
    },
    {
      "anonymous": false,
      "inputs": [
        {
          "indexed": false,
          "internalType": "address",
          "name": "rewardsDistributor",
          "type": "address"
        }
      ],
      "name": "AddedRewardsDistributor",
      "type": "event"
    },
    {
      "anonymous": false,
      "inputs": [
        {
          "indexed": false,
          "internalType": "bool",
          "name": "enabled",
          "type": "bool"
        }
      ],
      "name": "AutoImplementationsToggled",
      "type": "event"
    },
    {
      "anonymous": false,
      "inputs": [
        {
          "indexed": false,
          "internalType": "uint256",
          "name": "error",
          "type": "uint256"
        },
        {
          "indexed": false,
          "internalType": "uint256",
          "name": "info",
          "type": "uint256"
        },
        {
          "indexed": false,
          "internalType": "uint256",
          "name": "detail",
          "type": "uint256"
        }
      ],
      "name": "Failure",
      "type": "event"
    },
    {
      "anonymous": false,
      "inputs": [
        {
          "indexed": false,
          "internalType": "contract CTokenInterface",
          "name": "cToken",
          "type": "address"
        },
        {
          "indexed": false,
          "internalType": "address",
          "name": "account",
          "type": "address"
        }
      ],
      "name": "MarketEntered",
      "type": "event"
    },
    {
      "anonymous": false,
      "inputs": [
        {
          "indexed": false,
          "internalType": "contract CTokenInterface",
          "name": "cToken",
          "type": "address"
        },
        {
          "indexed": false,
          "internalType": "address",
          "name": "account",
          "type": "address"
        }
      ],
      "name": "MarketExited",
      "type": "event"
    },
    {
      "anonymous": false,
      "inputs": [
        {
          "indexed": false,
          "internalType": "contract CTokenInterface",
          "name": "cToken",
          "type": "address"
        }
      ],
      "name": "MarketListed",
      "type": "event"
    },
    {
      "anonymous": false,
      "inputs": [
        {
          "indexed": false,
          "internalType": "uint256",
          "name": "oldCloseFactorMantissa",
          "type": "uint256"
        },
        {
          "indexed": false,
          "internalType": "uint256",
          "name": "newCloseFactorMantissa",
          "type": "uint256"
        }
      ],
      "name": "NewCloseFactor",
      "type": "event"
    },
    {
      "anonymous": false,
      "inputs": [
        {
          "indexed": false,
          "internalType": "contract CTokenInterface",
          "name": "cToken",
          "type": "address"
        },
        {
          "indexed": false,
          "internalType": "uint256",
          "name": "oldCollateralFactorMantissa",
          "type": "uint256"
        },
        {
          "indexed": false,
          "internalType": "uint256",
          "name": "newCollateralFactorMantissa",
          "type": "uint256"
        }
      ],
      "name": "NewCollateralFactor",
      "type": "event"
    },
    {
      "anonymous": false,
      "inputs": [
        {
          "indexed": false,
          "internalType": "uint256",
          "name": "oldLiquidationIncentiveMantissa",
          "type": "uint256"
        },
        {
          "indexed": false,
          "internalType": "uint256",
          "name": "newLiquidationIncentiveMantissa",
          "type": "uint256"
        }
      ],
      "name": "NewLiquidationIncentive",
      "type": "event"
    },
    {
      "anonymous": false,
      "inputs": [
        {
          "indexed": false,
          "internalType": "contract PriceOracle",
          "name": "oldPriceOracle",
          "type": "address"
        },
        {
          "indexed": false,
          "internalType": "contract PriceOracle",
          "name": "newPriceOracle",
          "type": "address"
        }
      ],
      "name": "NewPriceOracle",
      "type": "event"
    },
    {
      "anonymous": false,
      "inputs": [
        {
          "indexed": false,
          "internalType": "bool",
          "name": "enforce",
          "type": "bool"
        }
      ],
      "name": "WhitelistEnforcementChanged",
      "type": "event"
    },
    {
      "stateMutability": "nonpayable",
      "type": "fallback"
    },
    {
      "inputs": [
        {
          "internalType": "address",
          "name": "distributor",
          "type": "address"
        }
      ],
      "name": "_addRewardsDistributor",
      "outputs": [
        {
          "internalType": "uint256",
          "name": "",
          "type": "uint256"
        }
      ],
      "stateMutability": "nonpayable",
      "type": "function"
    },
    {
      "inputs": [],
      "name": "_afterNonReentrant",
      "outputs": [],
      "stateMutability": "nonpayable",
      "type": "function"
    },
    {
      "inputs": [
        {
          "internalType": "contract Unitroller",
          "name": "unitroller",
          "type": "address"
        }
      ],
      "name": "_become",
      "outputs": [],
      "stateMutability": "nonpayable",
      "type": "function"
    },
    {
      "inputs": [],
      "name": "_becomeImplementation",
      "outputs": [],
      "stateMutability": "nonpayable",
      "type": "function"
    },
    {
      "inputs": [],
      "name": "_beforeNonReentrant",
      "outputs": [],
      "stateMutability": "nonpayable",
      "type": "function"
    },
    {
      "inputs": [],
      "name": "_borrowGuardianPaused",
      "outputs": [
        {
          "internalType": "bool",
          "name": "",
          "type": "bool"
        }
      ],
      "stateMutability": "view",
      "type": "function"
    },
    {
      "inputs": [
        {
          "internalType": "bool",
          "name": "isCEther",
          "type": "bool"
        },
        {
          "internalType": "bytes",
          "name": "constructorData",
          "type": "bytes"
        },
        {
          "internalType": "uint256",
          "name": "collateralFactorMantissa",
          "type": "uint256"
        }
      ],
      "name": "_deployMarket",
      "outputs": [
        {
          "internalType": "uint256",
          "name": "",
          "type": "uint256"
        }
      ],
      "stateMutability": "nonpayable",
      "type": "function"
    },
    {
      "inputs": [],
      "name": "_listExtensions",
      "outputs": [
        {
          "internalType": "address[]",
          "name": "",
          "type": "address[]"
        }
      ],
      "stateMutability": "view",
      "type": "function"
    },
    {
      "inputs": [],
      "name": "_mintGuardianPaused",
      "outputs": [
        {
          "internalType": "bool",
          "name": "",
          "type": "bool"
        }
      ],
      "stateMutability": "view",
      "type": "function"
    },
    {
      "inputs": [
        {
          "internalType": "contract DiamondExtension",
          "name": "extensionToAdd",
          "type": "address"
        },
        {
          "internalType": "contract DiamondExtension",
          "name": "extensionToReplace",
          "type": "address"
        }
      ],
      "name": "_registerExtension",
      "outputs": [],
      "stateMutability": "nonpayable",
      "type": "function"
    },
    {
      "inputs": [
        {
          "internalType": "uint256",
          "name": "newCloseFactorMantissa",
          "type": "uint256"
        }
      ],
      "name": "_setCloseFactor",
      "outputs": [
        {
          "internalType": "uint256",
          "name": "",
          "type": "uint256"
        }
      ],
      "stateMutability": "nonpayable",
      "type": "function"
    },
    {
      "inputs": [
        {
          "internalType": "contract CTokenInterface",
          "name": "cToken",
          "type": "address"
        },
        {
          "internalType": "uint256",
          "name": "newCollateralFactorMantissa",
          "type": "uint256"
        }
      ],
      "name": "_setCollateralFactor",
      "outputs": [
        {
          "internalType": "uint256",
          "name": "",
          "type": "uint256"
        }
      ],
      "stateMutability": "nonpayable",
      "type": "function"
    },
    {
      "inputs": [
        {
          "internalType": "uint256",
          "name": "newLiquidationIncentiveMantissa",
          "type": "uint256"
        }
      ],
      "name": "_setLiquidationIncentive",
      "outputs": [
        {
          "internalType": "uint256",
          "name": "",
          "type": "uint256"
        }
      ],
      "stateMutability": "nonpayable",
      "type": "function"
    },
    {
      "inputs": [
        {
          "internalType": "contract PriceOracle",
          "name": "newOracle",
          "type": "address"
        }
      ],
      "name": "_setPriceOracle",
      "outputs": [
        {
          "internalType": "uint256",
          "name": "",
          "type": "uint256"
        }
      ],
      "stateMutability": "nonpayable",
      "type": "function"
    },
    {
      "inputs": [
        {
          "internalType": "bool",
          "name": "enforce",
          "type": "bool"
        }
      ],
      "name": "_setWhitelistEnforcement",
      "outputs": [
        {
          "internalType": "uint256",
          "name": "",
          "type": "uint256"
        }
      ],
      "stateMutability": "nonpayable",
      "type": "function"
    },
    {
      "inputs": [
        {
          "internalType": "address[]",
          "name": "suppliers",
          "type": "address[]"
        },
        {
          "internalType": "bool[]",
          "name": "statuses",
          "type": "bool[]"
        }
      ],
      "name": "_setWhitelistStatuses",
      "outputs": [
        {
          "internalType": "uint256",
          "name": "",
          "type": "uint256"
        }
      ],
      "stateMutability": "nonpayable",
      "type": "function"
    },
    {
      "inputs": [
        {
          "internalType": "bool",
          "name": "enabled",
          "type": "bool"
        }
      ],
      "name": "_toggleAutoImplementations",
      "outputs": [
        {
          "internalType": "uint256",
          "name": "",
          "type": "uint256"
        }
      ],
      "stateMutability": "nonpayable",
      "type": "function"
    },
    {
      "inputs": [
        {
          "internalType": "address",
          "name": "",
          "type": "address"
        },
        {
          "internalType": "uint256",
          "name": "",
          "type": "uint256"
        }
      ],
      "name": "accountAssets",
      "outputs": [
        {
          "internalType": "contract CTokenInterface",
          "name": "",
          "type": "address"
        }
      ],
      "stateMutability": "view",
      "type": "function"
    },
    {
      "inputs": [],
      "name": "admin",
      "outputs": [
        {
          "internalType": "address",
          "name": "",
          "type": "address"
        }
      ],
      "stateMutability": "view",
      "type": "function"
    },
    {
      "inputs": [],
      "name": "adminHasRights",
      "outputs": [
        {
          "internalType": "bool",
          "name": "",
          "type": "bool"
        }
      ],
      "stateMutability": "view",
      "type": "function"
    },
    {
      "inputs": [
        {
          "internalType": "uint256",
          "name": "",
          "type": "uint256"
        }
      ],
      "name": "allBorrowers",
      "outputs": [
        {
          "internalType": "address",
          "name": "",
          "type": "address"
        }
      ],
      "stateMutability": "view",
      "type": "function"
    },
    {
      "inputs": [
        {
          "internalType": "uint256",
          "name": "",
          "type": "uint256"
        }
      ],
      "name": "allMarkets",
      "outputs": [
        {
          "internalType": "contract CTokenInterface",
          "name": "",
          "type": "address"
        }
      ],
      "stateMutability": "view",
      "type": "function"
    },
    {
      "inputs": [],
      "name": "autoImplementation",
      "outputs": [
        {
          "internalType": "bool",
          "name": "",
          "type": "bool"
        }
      ],
      "stateMutability": "view",
      "type": "function"
    },
    {
      "inputs": [
        {
          "internalType": "address",
          "name": "cToken",
          "type": "address"
        },
        {
          "internalType": "address",
          "name": "borrower",
          "type": "address"
        },
        {
          "internalType": "uint256",
          "name": "borrowAmount",
          "type": "uint256"
        }
      ],
      "name": "borrowAllowed",
      "outputs": [
        {
          "internalType": "uint256",
          "name": "",
          "type": "uint256"
        }
      ],
      "stateMutability": "nonpayable",
      "type": "function"
    },
    {
      "inputs": [],
      "name": "borrowCapGuardian",
      "outputs": [
        {
          "internalType": "address",
          "name": "",
          "type": "address"
        }
      ],
      "stateMutability": "view",
      "type": "function"
    },
    {
      "inputs": [
        {
          "internalType": "address",
          "name": "",
          "type": "address"
        }
      ],
      "name": "borrowCaps",
      "outputs": [
        {
          "internalType": "uint256",
          "name": "",
          "type": "uint256"
        }
      ],
      "stateMutability": "view",
      "type": "function"
    },
    {
      "inputs": [
        {
          "internalType": "address",
          "name": "",
          "type": "address"
        }
      ],
      "name": "borrowGuardianPaused",
      "outputs": [
        {
          "internalType": "bool",
          "name": "",
          "type": "bool"
        }
      ],
      "stateMutability": "view",
      "type": "function"
    },
    {
      "inputs": [
        {
          "internalType": "address",
          "name": "cToken",
          "type": "address"
        },
        {
          "internalType": "uint256",
          "name": "accountBorrowsNew",
          "type": "uint256"
        }
      ],
      "name": "borrowWithinLimits",
      "outputs": [
        {
          "internalType": "uint256",
          "name": "",
          "type": "uint256"
        }
      ],
      "stateMutability": "view",
      "type": "function"
    },
    {
      "inputs": [
        {
          "internalType": "address",
          "name": "",
          "type": "address"
        }
      ],
      "name": "cTokensByUnderlying",
      "outputs": [
        {
          "internalType": "contract CTokenInterface",
          "name": "",
          "type": "address"
        }
      ],
      "stateMutability": "view",
      "type": "function"
    },
    {
      "inputs": [
        {
          "internalType": "address",
          "name": "account",
          "type": "address"
        },
        {
          "internalType": "contract CTokenInterface",
          "name": "cToken",
          "type": "address"
        }
      ],
      "name": "checkMembership",
      "outputs": [
        {
          "internalType": "bool",
          "name": "",
          "type": "bool"
        }
      ],
      "stateMutability": "view",
      "type": "function"
    },
    {
      "inputs": [],
      "name": "closeFactorMantissa",
      "outputs": [
        {
          "internalType": "uint256",
          "name": "",
          "type": "uint256"
        }
      ],
      "stateMutability": "view",
      "type": "function"
    },
    {
      "inputs": [],
      "name": "comptrollerImplementation",
      "outputs": [
        {
          "internalType": "address",
          "name": "",
          "type": "address"
        }
      ],
      "stateMutability": "view",
      "type": "function"
    },
    {
      "inputs": [],
      "name": "enforceWhitelist",
      "outputs": [
        {
          "internalType": "bool",
          "name": "",
          "type": "bool"
        }
      ],
      "stateMutability": "view",
      "type": "function"
    },
    {
      "inputs": [
        {
          "internalType": "address[]",
          "name": "cTokens",
          "type": "address[]"
        }
      ],
      "name": "enterMarkets",
      "outputs": [
        {
          "internalType": "uint256[]",
          "name": "",
          "type": "uint256[]"
        }
      ],
      "stateMutability": "nonpayable",
      "type": "function"
    },
    {
      "inputs": [
        {
          "internalType": "address",
          "name": "cTokenAddress",
          "type": "address"
        }
      ],
      "name": "exitMarket",
      "outputs": [
        {
          "internalType": "uint256",
          "name": "",
          "type": "uint256"
        }
      ],
      "stateMutability": "nonpayable",
      "type": "function"
    },
    {
      "inputs": [],
      "name": "fuseAdmin",
      "outputs": [
        {
          "internalType": "address payable",
          "name": "",
          "type": "address"
        }
      ],
      "stateMutability": "view",
      "type": "function"
    },
    {
      "inputs": [],
      "name": "fuseAdminHasRights",
      "outputs": [
        {
          "internalType": "bool",
          "name": "",
          "type": "bool"
        }
      ],
      "stateMutability": "view",
      "type": "function"
    },
    {
      "inputs": [
        {
          "internalType": "address",
          "name": "account",
          "type": "address"
        }
      ],
      "name": "getAccountLiquidity",
      "outputs": [
        {
          "internalType": "uint256",
          "name": "",
          "type": "uint256"
        },
        {
          "internalType": "uint256",
          "name": "",
          "type": "uint256"
        },
        {
          "internalType": "uint256",
          "name": "",
          "type": "uint256"
        }
      ],
      "stateMutability": "view",
      "type": "function"
    },
    {
      "inputs": [],
      "name": "getAllBorrowers",
      "outputs": [
        {
          "internalType": "address[]",
          "name": "",
          "type": "address[]"
        }
      ],
      "stateMutability": "view",
      "type": "function"
    },
    {
      "inputs": [],
      "name": "getAllMarkets",
      "outputs": [
        {
          "internalType": "contract CTokenInterface[]",
          "name": "",
          "type": "address[]"
        }
      ],
      "stateMutability": "view",
      "type": "function"
    },
    {
      "inputs": [
        {
          "internalType": "address",
          "name": "account",
          "type": "address"
        }
      ],
      "name": "getAssetsIn",
      "outputs": [
        {
          "internalType": "contract CTokenInterface[]",
          "name": "",
          "type": "address[]"
        }
      ],
      "stateMutability": "view",
      "type": "function"
    },
    {
      "inputs": [
        {
          "internalType": "address",
          "name": "account",
          "type": "address"
        },
        {
          "internalType": "address",
          "name": "cTokenModify",
          "type": "address"
        },
        {
          "internalType": "uint256",
          "name": "redeemTokens",
          "type": "uint256"
        },
        {
          "internalType": "uint256",
          "name": "borrowAmount",
          "type": "uint256"
        }
      ],
      "name": "getHypotheticalAccountLiquidity",
      "outputs": [
        {
          "internalType": "uint256",
          "name": "",
          "type": "uint256"
        },
        {
          "internalType": "uint256",
          "name": "",
          "type": "uint256"
        },
        {
          "internalType": "uint256",
          "name": "",
          "type": "uint256"
        }
      ],
      "stateMutability": "view",
      "type": "function"
    },
    {
      "inputs": [
        {
          "internalType": "address",
          "name": "account",
          "type": "address"
        },
        {
          "internalType": "address",
          "name": "cToken",
          "type": "address"
        },
        {
          "internalType": "bool",
          "name": "isBorrow",
          "type": "bool"
        }
      ],
      "name": "getMaxRedeemOrBorrow",
      "outputs": [
        {
          "internalType": "uint256",
          "name": "",
          "type": "uint256"
        }
      ],
      "stateMutability": "nonpayable",
      "type": "function"
    },
    {
      "inputs": [],
      "name": "getRewardsDistributors",
      "outputs": [
        {
          "internalType": "address[]",
          "name": "",
          "type": "address[]"
        }
      ],
      "stateMutability": "view",
      "type": "function"
    },
    {
      "inputs": [],
      "name": "getWhitelist",
      "outputs": [
        {
          "internalType": "address[]",
          "name": "",
          "type": "address[]"
        }
      ],
      "stateMutability": "view",
      "type": "function"
    },
    {
      "inputs": [],
      "name": "isComptroller",
      "outputs": [
        {
          "internalType": "bool",
          "name": "",
          "type": "bool"
        }
      ],
      "stateMutability": "view",
      "type": "function"
    },
    {
      "inputs": [
        {
          "internalType": "contract CTokenInterface",
          "name": "cToken",
          "type": "address"
        }
      ],
      "name": "isDeprecated",
      "outputs": [
        {
          "internalType": "bool",
          "name": "",
          "type": "bool"
        }
      ],
      "stateMutability": "view",
      "type": "function"
    },
    {
      "inputs": [
        {
          "internalType": "address",
          "name": "user",
          "type": "address"
        }
      ],
      "name": "isUserOfPool",
      "outputs": [
        {
          "internalType": "bool",
          "name": "",
          "type": "bool"
        }
      ],
      "stateMutability": "view",
      "type": "function"
    },
    {
      "inputs": [
        {
          "internalType": "address",
          "name": "cTokenBorrowed",
          "type": "address"
        },
        {
          "internalType": "address",
          "name": "cTokenCollateral",
          "type": "address"
        },
        {
          "internalType": "address",
          "name": "liquidator",
          "type": "address"
        },
        {
          "internalType": "address",
          "name": "borrower",
          "type": "address"
        },
        {
          "internalType": "uint256",
          "name": "repayAmount",
          "type": "uint256"
        }
      ],
      "name": "liquidateBorrowAllowed",
      "outputs": [
        {
          "internalType": "uint256",
          "name": "",
          "type": "uint256"
        }
      ],
      "stateMutability": "nonpayable",
      "type": "function"
    },
    {
      "inputs": [
        {
          "internalType": "address",
          "name": "cTokenBorrowed",
          "type": "address"
        },
        {
          "internalType": "address",
          "name": "cTokenCollateral",
          "type": "address"
        },
        {
          "internalType": "uint256",
          "name": "actualRepayAmount",
          "type": "uint256"
        }
      ],
      "name": "liquidateCalculateSeizeTokens",
      "outputs": [
        {
          "internalType": "uint256",
          "name": "",
          "type": "uint256"
        },
        {
          "internalType": "uint256",
          "name": "",
          "type": "uint256"
        }
      ],
      "stateMutability": "view",
      "type": "function"
    },
    {
      "inputs": [],
      "name": "liquidationIncentiveMantissa",
      "outputs": [
        {
          "internalType": "uint256",
          "name": "",
          "type": "uint256"
        }
      ],
      "stateMutability": "view",
      "type": "function"
    },
    {
      "inputs": [
        {
          "internalType": "address",
          "name": "",
          "type": "address"
        }
      ],
      "name": "markets",
      "outputs": [
        {
          "internalType": "bool",
          "name": "isListed",
          "type": "bool"
        },
        {
          "internalType": "uint256",
          "name": "collateralFactorMantissa",
          "type": "uint256"
        }
      ],
      "stateMutability": "view",
      "type": "function"
    },
    {
      "inputs": [
        {
          "internalType": "address",
          "name": "cToken",
          "type": "address"
        },
        {
          "internalType": "address",
          "name": "minter",
          "type": "address"
        },
        {
          "internalType": "uint256",
          "name": "mintAmount",
          "type": "uint256"
        }
      ],
      "name": "mintAllowed",
      "outputs": [
        {
          "internalType": "uint256",
          "name": "",
          "type": "uint256"
        }
      ],
      "stateMutability": "nonpayable",
      "type": "function"
    },
    {
      "inputs": [
        {
          "internalType": "address",
          "name": "",
          "type": "address"
        }
      ],
      "name": "mintGuardianPaused",
      "outputs": [
        {
          "internalType": "bool",
          "name": "",
          "type": "bool"
        }
      ],
      "stateMutability": "view",
      "type": "function"
    },
    {
      "inputs": [
        {
          "internalType": "uint256",
          "name": "",
          "type": "uint256"
        }
      ],
      "name": "nonAccruingRewardsDistributors",
      "outputs": [
        {
          "internalType": "address",
          "name": "",
          "type": "address"
        }
      ],
      "stateMutability": "view",
      "type": "function"
    },
    {
      "inputs": [],
      "name": "oracle",
      "outputs": [
        {
          "internalType": "contract PriceOracle",
          "name": "",
          "type": "address"
        }
      ],
      "stateMutability": "view",
      "type": "function"
    },
    {
      "inputs": [],
      "name": "pauseGuardian",
      "outputs": [
        {
          "internalType": "address",
          "name": "",
          "type": "address"
        }
      ],
      "stateMutability": "view",
      "type": "function"
    },
    {
      "inputs": [],
      "name": "pendingAdmin",
      "outputs": [
        {
          "internalType": "address",
          "name": "",
          "type": "address"
        }
      ],
      "stateMutability": "view",
      "type": "function"
    },
    {
      "inputs": [],
      "name": "pendingComptrollerImplementation",
      "outputs": [
        {
          "internalType": "address",
          "name": "",
          "type": "address"
        }
      ],
      "stateMutability": "view",
      "type": "function"
    },
    {
      "inputs": [
        {
          "internalType": "address",
          "name": "cToken",
          "type": "address"
        },
        {
          "internalType": "address",
          "name": "redeemer",
          "type": "address"
        },
        {
          "internalType": "uint256",
          "name": "redeemTokens",
          "type": "uint256"
        }
      ],
      "name": "redeemAllowed",
      "outputs": [
        {
          "internalType": "uint256",
          "name": "",
          "type": "uint256"
        }
      ],
      "stateMutability": "nonpayable",
      "type": "function"
    },
    {
      "inputs": [
        {
          "internalType": "address",
          "name": "cToken",
          "type": "address"
        },
        {
          "internalType": "address",
          "name": "redeemer",
          "type": "address"
        },
        {
          "internalType": "uint256",
          "name": "redeemAmount",
          "type": "uint256"
        },
        {
          "internalType": "uint256",
          "name": "redeemTokens",
          "type": "uint256"
        }
      ],
      "name": "redeemVerify",
      "outputs": [],
      "stateMutability": "nonpayable",
      "type": "function"
    },
    {
      "inputs": [
        {
          "internalType": "address",
          "name": "cToken",
          "type": "address"
        },
        {
          "internalType": "address",
          "name": "payer",
          "type": "address"
        },
        {
          "internalType": "address",
          "name": "borrower",
          "type": "address"
        },
        {
          "internalType": "uint256",
          "name": "repayAmount",
          "type": "uint256"
        }
      ],
      "name": "repayBorrowAllowed",
      "outputs": [
        {
          "internalType": "uint256",
          "name": "",
          "type": "uint256"
        }
      ],
      "stateMutability": "nonpayable",
      "type": "function"
    },
    {
      "inputs": [
        {
          "internalType": "uint256",
          "name": "",
          "type": "uint256"
        }
      ],
      "name": "rewardsDistributors",
      "outputs": [
        {
          "internalType": "address",
          "name": "",
          "type": "address"
        }
      ],
      "stateMutability": "view",
      "type": "function"
    },
    {
      "inputs": [
        {
          "internalType": "address",
          "name": "cTokenCollateral",
          "type": "address"
        },
        {
          "internalType": "address",
          "name": "cTokenBorrowed",
          "type": "address"
        },
        {
          "internalType": "address",
          "name": "liquidator",
          "type": "address"
        },
        {
          "internalType": "address",
          "name": "borrower",
          "type": "address"
        },
        {
          "internalType": "uint256",
          "name": "seizeTokens",
          "type": "uint256"
        }
      ],
      "name": "seizeAllowed",
      "outputs": [
        {
          "internalType": "uint256",
          "name": "",
          "type": "uint256"
        }
      ],
      "stateMutability": "nonpayable",
      "type": "function"
    },
    {
      "inputs": [],
      "name": "seizeGuardianPaused",
      "outputs": [
        {
          "internalType": "bool",
          "name": "",
          "type": "bool"
        }
      ],
      "stateMutability": "view",
      "type": "function"
    },
    {
      "inputs": [
        {
          "internalType": "address",
          "name": "",
          "type": "address"
        }
      ],
      "name": "suppliers",
      "outputs": [
        {
          "internalType": "bool",
          "name": "",
          "type": "bool"
        }
      ],
      "stateMutability": "view",
      "type": "function"
    },
    {
      "inputs": [
        {
          "internalType": "address",
          "name": "",
          "type": "address"
        }
      ],
      "name": "supplyCaps",
      "outputs": [
        {
          "internalType": "uint256",
          "name": "",
          "type": "uint256"
        }
      ],
      "stateMutability": "view",
      "type": "function"
    },
    {
      "inputs": [
        {
          "internalType": "address",
          "name": "cToken",
          "type": "address"
        },
        {
          "internalType": "address",
          "name": "src",
          "type": "address"
        },
        {
          "internalType": "address",
          "name": "dst",
          "type": "address"
        },
        {
          "internalType": "uint256",
          "name": "transferTokens",
          "type": "uint256"
        }
      ],
      "name": "transferAllowed",
      "outputs": [
        {
          "internalType": "uint256",
          "name": "",
          "type": "uint256"
        }
      ],
      "stateMutability": "nonpayable",
      "type": "function"
    },
    {
      "inputs": [],
      "name": "transferGuardianPaused",
      "outputs": [
        {
          "internalType": "bool",
          "name": "",
          "type": "bool"
        }
      ],
      "stateMutability": "view",
      "type": "function"
    },
    {
      "inputs": [
        {
          "internalType": "address",
          "name": "",
          "type": "address"
        }
      ],
      "name": "whitelist",
      "outputs": [
        {
          "internalType": "bool",
          "name": "",
          "type": "bool"
        }
      ],
      "stateMutability": "view",
      "type": "function"
    },
    {
      "inputs": [
        {
          "internalType": "uint256",
          "name": "",
          "type": "uint256"
        }
      ],
      "name": "whitelistArray",
      "outputs": [
        {
          "internalType": "address",
          "name": "",
          "type": "address"
        }
      ],
      "stateMutability": "view",
      "type": "function"
    }
  ],
  "transactionHash": "0xf2c73e0073af24b5115150569b4303071d859580ca4d12e5c43a47169b06db1d",
  "args": [
    "0xFc1f56C58286E7215701A773b61bFf2e18A177dE"
  ],
  "numDeployments": 20,
  "bytecode": {
    "object": "0x60806040526002805461ffff60a01b191661010160a01b1790553480156200002657600080fd5b5060405162005b7338038062005b7383398101604081905262000049916200006f565b600080546001600160a01b0319166001600160a01b0392909216919091179055620000a1565b6000602082840312156200008257600080fd5b81516001600160a01b03811681146200009a57600080fd5b9392505050565b615ac280620000b16000396000f3fe608060405234801561001057600080fd5b506004361061041c5760003560e01c80637dc0d1d01161022b578063c6c5b0dd11610130578063dce15449116100b8578063e6653f3d11610087578063e6653f3d14610a60578063e875544614610a74578063eabe7d9114610a7d578063ede4edd014610a90578063f851a44014610aa35761041c565b8063dce1544914610a1a578063dcfbc0c714610a2d578063dd5cd22c14610a40578063e4028eee14610a4d5761041c565b8063d02f7351116100ff578063d02f7351146109bb578063d251fefc146109ce578063d5333166146109e1578063d9e0ea6b146109f4578063da3d454c14610a075761041c565b8063c6c5b0dd14610985578063c8c9c97514610998578063c90c20b1146109ab578063d01f63f5146109b35761041c565b8063abfceffc116101b3578063b9b5b15311610182578063b9b5b15314610904578063bb82aa5e14610917578063bdcdc2581461092a578063c29982381461093d578063c488847b1461095d5761041c565b8063abfceffc146108c8578063ac0b0bb7146108db578063b0772d0b146108ef578063b0957210146108f75761041c565b8063929fe9a1116101fa578063929fe9a11461082b57806394543c151461086c578063952adf5a1461087f5780639b19251a14610892578063aba35b98146108b55761041c565b80637dc0d1d0146107ad57806387f76303146107c057806389cd9855146107d45780638e8f294b146107e75761041c565b80634a584432116103315780635ec88c79116102b95780636bd02b8a116102885780636bd02b8a1461072e5780636d154ea514610741578063731f0c2b146107645780637515bafa14610787578063779b22941461079a5761041c565b80635ec88c79146106f85780635fc7e71e1461070b578063632e51421461071e5780636333d001146107265761041c565b80634fd42e17116103005780634fd42e17146106a457806351dff989146106b757806352d84d1e146106ca57806355ee1fe1146106dd5780635d72de62146106f05761041c565b80634a5844321461063a5780634ada90af1461065a5780634e79238f146106635780634ef4c3e1146106915761041c565b806324008a62116103b4578063317b0b7711610383578063317b0b77146105cd57806331ff47fa146105e057806332abcdbe146106095780633605b51b1461061e5780633c94786f146106265761041c565b806324008a621461058057806324a3d6221461059357806326782247146105a65780632f1069ba146105b95761041c565b806316dc15fe116103f057806316dc15fe1461051d5780631976828e146105405780631d504dc61461055357806321af4569146105685761041c565b80627e3dd21461049357806302c3bcbb146104b05780630a755ec2146104de57806315761d51146104f2575b60006104336000356001600160e01b031916610ab6565b90506001600160a01b03811661046f57604051630a82dd7360e31b81526001600160e01b03196000351660048201526024015b60405180910390fd5b3660008037600080366000845af43d6000803e80801561048e573d6000f35b3d6000fd5b61049b600181565b60405190151581526020015b60405180910390f35b6104d06104be3660046151ef565b601a6020526000908152604090205481565b6040519081526020016104a7565b60025461049b90600160a81b900460ff1681565b600054610505906001600160a01b031681565b6040516001600160a01b0390911681526020016104a7565b61049b61052b3660046151ef565b600f6020526000908152604090205460ff1681565b6104d061054e36600461521a565b610b19565b6105666105613660046151ef565b610d68565b005b6018546105059061010090046001600160a01b031681565b6104d061058e366004615265565b611006565b601554610505906001600160a01b031681565b600254610505906001600160a01b031681565b60025461049b90600160a01b900460ff1681565b6104d06105db3660046152b6565b611048565b6105056105ee3660046151ef565b6010602052600090815260409020546001600160a01b031681565b610611611122565b6040516104a791906152cf565b610611611184565b60155461049b90600160a01b900460ff1681565b6104d06106483660046151ef565b60196020526000908152604090205481565b6104d060075481565b61067661067136600461531c565b6112ec565b604080519384526020840192909252908201526060016104a7565b6104d061069f366004615362565b61132c565b6104d06106b23660046152b6565b6116e8565b6105666106c536600461531c565b6117a4565b6105056106d83660046152b6565b6117ed565b6104d06106eb3660046151ef565b611817565b610566611897565b6106766107063660046151ef565b611a0b565b6104d06107193660046153a3565b611a46565b610566611bf7565b610611611c65565b61050561073c3660046152b6565b611c74565b61049b61074f3660046151ef565b60176020526000908152604090205460ff1681565b61049b6107723660046151ef565b60166020526000908152604090205460ff1681565b6105056107953660046152b6565b611c84565b6104d06107a8366004615407565b611c94565b600554610505906001600160a01b031681565b60155461049b90600160b01b900460ff1681565b6105666107e2366004615433565b611def565b6108146107f53660046151ef565b600a602052600090815260409020805460019091015460ff9091169082565b6040805192151583526020830191909152016104a7565b61049b610839366004615433565b6001600160a01b038082166000908152600a60209081526040808320938616835260029093019052205460ff1692915050565b61049b61087a3660046151ef565b611e68565b6104d061088d36600461546c565b611fd2565b61049b6108a03660046151ef565b60126020526000908152604090205460ff1681565b6104d06108c3366004615489565b612050565b6106116108d63660046151ef565b612146565b60155461049b90600160b81b900460ff1681565b6106116121bc565b60115461049b9060ff1681565b6104d06109123660046151ef565b61221c565b600354610505906001600160a01b031681565b6104d0610938366004615265565b6123df565b61095061094b36600461557f565b612462565b6040516104a79190615613565b61097061096b366004615362565b61252a565b604080519283526020830191909152016104a7565b6105056109933660046152b6565b6128b7565b6104d06109a6366004615690565b6128c7565b610566612b6e565b610611612c18565b6104d06109c93660046153a3565b612c78565b6105056109dc3660046152b6565b612dff565b6104d06109ef36600461546c565b612e0f565b61049b610a023660046151ef565b612e82565b6104d0610a15366004615362565b612f0c565b610505610a28366004615407565b61329b565b600454610505906001600160a01b031681565b60185461049b9060ff1681565b6104d0610a5b366004615407565b6132d3565b60155461049b90600160a81b900460ff1681565b6104d060065481565b6104d0610a8b366004615362565b61345d565b6104d0610a9e3660046151ef565b61347a565b600154610505906001600160a01b031681565b6001600160e01b031981166000908152600080516020615a96833981519152602081905260408220546001600160a01b031680610b1257604051631f3f429960e31b81526001600160e01b031985166004820152602401610466565b9392505050565b6000808390506000816001600160a01b0316639f5ef2726040518163ffffffff1660e01b8152600401602060405180830381865afa158015610b5f573d6000803e3d6000fd5b505050506040513d601f19601f82011682018060405250810190610b8391906156fc565b604051633af9e66960e01b81526001600160a01b0388811660048301529190911690633af9e669906024016020604051808303816000875af1158015610bcd573d6000803e3d6000fd5b505050506040513d601f19601f82011682018060405250810190610bf19190615719565b90506000806000610c128988610c08576000610c0a565b865b6000806138dd565b919450925090506000836014811115610c2d57610c2d615732565b14610c675760405162461bcd60e51b815260206004820152600a602482015269216c697175696469747960b01b6044820152606401610466565b8015610c7b57600095505050505050610b12565b600087158015610cb557506001600160a01b03808a166000908152600a60209081526040808320938e16835260029093019052205460ff16155b15610cc1575083610ce3565b610ccc83878a613c30565b905087158015610cdb57508085105b15610ce35750835b6000866001600160a01b0316633b1d21a26040518163ffffffff1660e01b8152600401602060405180830381865afa158015610d23573d6000803e3d6000fd5b505050506040513d601f19601f82011682018060405250810190610d479190615719565b905080821115610d575780610d59565b815b9b9a5050505050505050505050565b6000546001600160a01b031633148015610ddf5750806001600160a01b0316632f1069ba6040518163ffffffff1660e01b8152600401602060405180830381865afa158015610dbb573d6000803e3d6000fd5b505050506040513d601f19601f82011682018060405250810190610ddf9190615748565b80610ec45750806001600160a01b031663f851a4406040518163ffffffff1660e01b8152600401602060405180830381865afa158015610e23573d6000803e3d6000fd5b505050506040513d601f19601f82011682018060405250810190610e4791906156fc565b6001600160a01b0316336001600160a01b0316148015610ec45750806001600160a01b0316630a755ec26040518163ffffffff1660e01b8152600401602060405180830381865afa158015610ea0573d6000803e3d6000fd5b505050506040513d601f19601f82011682018060405250810190610ec49190615748565b610ef95760405162461bcd60e51b815260206004820152600660248201526510b0b236b4b760d11b6044820152606401610466565b6000816001600160a01b031663c1e803346040518163ffffffff1660e01b81526004016020604051808303816000875af1158015610f3b573d6000803e3d6000fd5b505050506040513d601f19601f82011682018060405250810190610f5f9190615719565b90508015610faf5760405162461bcd60e51b815260206004820181905260248201527f21756e617574686f72697a6564202d206e6f742070656e64696e6720696d706c6044820152606401610466565b816001600160a01b0316635d72de626040518163ffffffff1660e01b8152600401600060405180830381600087803b158015610fea57600080fd5b505af1158015610ffe573d6000803e3d6000fd5b505050505050565b6001600160a01b0384166000908152600a602052604081205460ff166110305760085b9050611040565b61103a8584613d4b565b60005b90505b949350505050565b6000611052613df3565b6110685761106260016007613e45565b92915050565b6040805160208082018352848252825190810190925266b1a2bc2ec5000080835281519192911161109f5761104060056008613e45565b6040805160208101909152670c7d713b49da0000808252835111156110d3576110ca60056008613e45565b95945050505050565b600680549086905560408051828152602081018890527f3b9670cf975d26958e754b57098eaa2ac914d8d2a31b83257997b9f346110fd991015b60405180910390a160005b9695505050505050565b6060600d80548060200260200160405190810160405280929190818152602001828054801561117a57602002820191906000526020600020905b81546001600160a01b0316815260019091019060200180831161115c575b5050505050905090565b601d54601b5460609160009161119a919061577b565b67ffffffffffffffff8111156111b2576111b2615514565b6040519080825280602002602001820160405280156111db578160200160208202803683370190505b50905060005b601b5460ff8216101561126157601b8160ff168154811061120457611204615793565b9060005260206000200160009054906101000a90046001600160a01b0316828260ff168151811061123757611237615793565b6001600160a01b039092166020928302919091019091015280611259816157a9565b9150506111e1565b60005b601d5460ff821610156112e457601d8160ff168154811061128757611287615793565b6000918252602090912001546001600160a01b0316836112a783856157c9565b60ff16815181106112ba576112ba615793565b6001600160a01b0390921660209283029190910190910152806112dc816157a9565b915050611264565b509092915050565b6000806000806000806113018a8a8a8a6138dd565b92509250925082601481111561131957611319615732565b95509093509150505b9450945094915050565b6001600160a01b03831660009081526016602052604081205460ff16156113845760405162461bcd60e51b815260206004820152600c60248201526b085b5a5b9d0e9c185d5cd95960a21b6044820152606401610466565b6001600160a01b0384166000908152600a602052604090205460ff166113ae5760085b9050610b12565b60115460ff1680156113d957506001600160a01b03831660009081526012602052604090205460ff16155b156113e55760116113a7565b6001600160a01b0384166000908152601a602052604090205480156116d3576000856001600160a01b0316633b1d21a26040518163ffffffff1660e01b8152600401602060405180830381865afa158015611444573d6000803e3d6000fd5b505050506040513d601f19601f820116820180604052508101906114689190615719565b90506000866001600160a01b03166347bd37186040518163ffffffff1660e01b8152600401602060405180830381865afa1580156114aa573d6000803e3d6000fd5b505050506040513d601f19601f820116820180604052508101906114ce9190615719565b90506000876001600160a01b0316638f840ddd6040518163ffffffff1660e01b8152600401602060405180830381865afa158015611510573d6000803e3d6000fd5b505050506040513d601f19601f820116820180604052508101906115349190615719565b90506000886001600160a01b031663dc028ab16040518163ffffffff1660e01b8152600401602060405180830381865afa158015611576573d6000803e3d6000fd5b505050506040513d601f19601f8201168201806040525081019061159a9190615719565b90506000896001600160a01b03166361feacff6040518163ffffffff1660e01b8152600401602060405180830381865afa1580156115dc573d6000803e3d6000fd5b505050506040513d601f19601f820116820180604052508101906116009190615719565b9050600080611622878761161d6116178989613ebe565b87613ebe565b613ef4565b9092509050600082600381111561163b5761163b615732565b1461165157600a98505050505050505050610b12565b600061165d828c613f46565b9093509050600083600381111561167657611676615732565b1461168d57600a9950505050505050505050610b12565b8881106116ca5760405162461bcd60e51b815260206004820152600b60248201526a021737570706c79206361760ac1b6044820152606401610466565b50505050505050505b6116dd8585613f6f565b600095945050505050565b60006116f2613df3565b611702576110626001600d613e45565b60408051602080820183528482528251908101909252670de0b6b3a76400008083528151919291101561173b576110406007600e613e45565b60408051602081019091526714d1120d7b16000080825283511115611766576110ca6007600e613e45565b600780549086905560408051828152602081018890527faeba5a6c40a8ac138134bff1aaa65debf25971188a58804bad717f82f0ec1316910161110d565b801580156117b25750600082115b156117e75760405162461bcd60e51b8152602060048201526005602482015264217a65726f60d81b6044820152606401610466565b50505050565b600b81815481106117fd57600080fd5b6000918252602090912001546001600160a01b0316905081565b6000611821613df3565b6118315761106260016012613e45565b600580546001600160a01b038481166001600160a01b031983168117909355604080519190921680825260208201939093527fd52b2b9b7e9ee655fcb95d2e5b9e0c9f69e7ef2b8e9d2d0ea78402d576d22e22910160405180910390a160009392505050565b6003546001600160a01b031633146118e35760405162461bcd60e51b815260206004820152600f60248201526e10b4b6b83632b6b2b73a30ba34b7b760891b6044820152606401610466565b60006118ed614011565b905060005b815181101561192f5761191d82828151811061191057611910615793565b6020026020010151614081565b80611927816157ee565b9150506118f2565b5060008054600354604051631978a0bf60e31b81526001600160a01b03918216600482015291169063cbc505f890602401600060405180830381865afa15801561197d573d6000803e3d6000fd5b505050506040513d6000823e601f3d908101601f191682016040526119a59190810190615809565b905060005b81518110156119e7576119d58282815181106119c8576119c8615793565b60200260200101516141b1565b806119df816157ee565b9150506119aa565b50601c54610100900460ff16611a0757601c805461ffff19166101011790555b5050565b600080600080600080611a228760008060006138dd565b925092509250826014811115611a3a57611a3a615732565b97919650945092505050565b6001600160a01b0385166000908152600a602052604081205460ff161580611a8757506001600160a01b0385166000908152600a602052604090205460ff16155b15611a965760085b90506110ca565b6040516395dd919360e01b81526001600160a01b038481166004830152600091908816906395dd919390602401602060405180830381865afa158015611ae0573d6000803e3d6000fd5b505050506040513d601f19601f82011682018060405250810190611b049190615719565b9050611b0f87611e68565b15611b595782811015611b545760405162461bcd60e51b815260206004820152600d60248201526c21626f72726f773e726570617960981b6044820152606401610466565b611bea565b600080611b6a8660008060006138dd565b91935090915060009050826014811115611b8657611b86615732565b14611ba757816014811115611b9d57611b9d615732565b93505050506110ca565b80611bb3576003611b9d565b6000611bcf6040518060200160405280600654815250856142a9565b905080861115611be65760109450505050506110ca565b5050505b5060009695505050505050565b336000908152600a602052604090205460ff16611c565760405162461bcd60e51b815260206004820152601f60248201527f21436f6d7074726f6c6c65723a5f61667465724e6f6e5265656e7472616e74006044820152606401610466565b601c805460ff19166001179055565b6060611c6f614011565b905090565b601d81815481106117fd57600080fd5b600d81815481106117fd57600080fd5b600080546040805163fdb25fb160e01b8152905183926001600160a01b03169163fdb25fb19160048083019260209291908290030181865afa158015611cde573d6000803e3d6000fd5b505050506040513d601f19601f82011682018060405250810190611d029190615719565b90508015611de55760055460405163fc57d4df60e01b81526001600160a01b038681166004830152600092169063fc57d4df90602401602060405180830381865afa158015611d55573d6000803e3d6000fd5b505050506040513d601f19601f82011682018060405250810190611d799190615719565b905080611d8b57600c92505050611062565b600080611da6604051806020016040528085815250876142c1565b90925090506000826003811115611dbf57611dbf615732565b14611dd257600a5b945050505050611062565b83811015611de1576012611dc7565b5050505b6000949350505050565b6000546001600160a01b031633148015611e125750600254600160a01b900460ff165b611e5e5760405162461bcd60e51b815260206004820152601f60248201527f21756e617574686f72697a6564202d206e6f2061646d696e20726967687473006044820152606401610466565b611a078282614313565b6001600160a01b0381166000908152600a6020526040812060010154158015611eae57506001600160a01b03821660009081526017602052604090205460ff1615156001145b80156110625750611fc2611f84836001600160a01b031663173b99046040518163ffffffff1660e01b8152600401602060405180830381865afa158015611ef9573d6000803e3d6000fd5b505050506040513d601f19601f82011682018060405250810190611f1d9190615719565b846001600160a01b0316638d02d9a16040518163ffffffff1660e01b8152600401602060405180830381865afa158015611f5b573d6000803e3d6000fd5b505050506040513d601f19601f82011682018060405250810190611f7f9190615719565b613ebe565b836001600160a01b031663dbfe7c196040518163ffffffff1660e01b8152600401602060405180830381865afa158015611f5b573d6000803e3d6000fd5b670de0b6b3a76400001492915050565b6000611fdc613df3565b611fec5761106260016013613e45565b60115460ff1615158215151415612004576000611062565b6011805460ff19168315159081179091556040519081527f84c7d948374a180eddab35d27d2f7a94167a1ff4e79467f1e89c061984190a1e906020015b60405180910390a16000611062565b600061205a613df3565b61206a5761102960016016613e45565b60028054600160a01b60ff60a01b198216811790925560008054604051638754e4fd60e01b81529390920460ff169290916001600160a01b031690638754e4fd906120bb9089908990600401615898565b6020604051808303816000875af11580156120da573d6000803e3d6000fd5b505050506040513d601f19601f820116820180604052508101906120fe91906156fc565b6002805460ff60a01b1916600160a01b851515021790559050600061212282614334565b90508015612130578061213a565b61213a82866132d3565b98975050505050505050565b6001600160a01b03811660009081526009602090815260408083208054825181850281018501909352808352606094938301828280156121af57602002820191906000526020600020905b81546001600160a01b03168152600190910190602001808311612191575b5093979650505050505050565b6060600b80548060200260200160405190810160405280929190818152602001828054801561117a576020028201919060005260206000209081546001600160a01b0316815260019091019060200180831161115c575050505050905090565b6000612226613df3565b6122365761106260016002613e45565b816001600160a01b031663abc6d72d6040518163ffffffff1660e01b81526004016020604051808303816000875af1158015612276573d6000803e3d6000fd5b505050506040513d601f19601f8201168201806040525081019061229a9190615748565b6122de5760405162461bcd60e51b815260206004820152601560248201527410b4b9a932bbb0b93239a234b9ba3934b13aba37b960591b6044820152606401610466565b60005b601b5481101561236057601b81815481106122fe576122fe615793565b6000918252602090912001546001600160a01b038481169116141561234e5760405162461bcd60e51b815260206004820152600660248201526508585919195960d21b6044820152606401610466565b80612358816157ee565b9150506122e1565b50601b80546001810182556000919091527f3ad8aa4f87544323a9d1e5dd902f40c356527a7955687113db5f9a85ad579dc10180546001600160a01b0319166001600160a01b0384169081179091556040519081527f98ef1187fb6fd2bc85f8996489877eb2b5428f9e9bdfc068c9ad6c2ea82eacc790602001612041565b601554600090600160b01b900460ff161561242f5760405162461bcd60e51b815260206004820152601060248201526f085d1c985b9cd9995c8e9c185d5cd95960821b6044820152606401610466565b600061243c86868561461e565b9050801561244b579050611040565b6124568686866146d6565b60009695505050505050565b805160609060008167ffffffffffffffff81111561248257612482615514565b6040519080825280602002602001820160405280156124ab578160200160208202803683370190505b50905060005b828110156125225760008582815181106124cd576124cd615793565b602002602001015190506124e18133614781565b60148111156124f2576124f2615732565b83838151811061250457612504615793565b6020908102919091010152508061251a816157ee565b9150506124b1565b509392505050565b60055460405163fc57d4df60e01b81526001600160a01b038581166004830152600092839283929091169063fc57d4df90602401602060405180830381865afa15801561257b573d6000803e3d6000fd5b505050506040513d601f19601f8201168201806040525081019061259f9190615719565b60055460405163fc57d4df60e01b81526001600160a01b0388811660048301529293506000929091169063fc57d4df90602401602060405180830381865afa1580156125ef573d6000803e3d6000fd5b505050506040513d601f19601f820116820180604052508101906126139190615719565b9050811580612620575080155b1561263457600c60009350935050506128af565b60008690506000816001600160a01b0316639f5ef2726040518163ffffffff1660e01b8152600401602060405180830381865afa158015612679573d6000803e3d6000fd5b505050506040513d601f19601f8201168201806040525081019061269d91906156fc565b6001600160a01b031663182df0f56040518163ffffffff1660e01b8152600401602060405180830381865afa1580156126da573d6000803e3d6000fd5b505050506040513d601f19601f820116820180604052508101906126fe9190615719565b905060006127186040518060200160405280600081525090565b6040805160208101909152600081526040805160208101909152600081526000866001600160a01b0316636752e7026040518163ffffffff1660e01b8152600401602060405180830381865afa158015612776573d6000803e3d6000fd5b505050506040513d601f19601f8201168201806040525081019061279a9190615719565b90506000876001600160a01b031663be99f1196040518163ffffffff1660e01b8152600401602060405180830381865afa1580156127dc573d6000803e3d6000fd5b505050506040513d601f19601f820116820180604052508101906128009190615719565b9050600061284361282f604051806020016040528060075481525060405180602001604052808781525061491c565b60405180602001604052808581525061491c565b905061285d8160405180602001604052808e815250614951565b955061288560405180602001604052808c81525060405180602001604052808b815250614951565b94506128918686614990565b935061289d848f6142a9565b60009d509b5050505050505050505050505b935093915050565b601b81815481106117fd57600080fd5b60006128d1613df3565b6128e15761102960016014613e45565b60005b84811015612b6657600086868381811061290057612900615793565b905060200201602081019061291591906151ef565b905084848381811061292957612929615793565b905060200201602081019061293e919061546c565b156129f6576001600160a01b03811660009081526012602052604090205460ff166129f1576001600160a01b0381166000818152601260205260408120805460ff19166001908117909155601380548083018255928190527f66de8ffda797e3de9c05e8fc57b3bf0ec28a930d40b0d285d93c06501cf6a09090920180546001600160a01b031916909317909255546129d791906158c7565b6001600160a01b0382166000908152601460205260409020555b612b53565b6001600160a01b03811660009081526012602052604090205460ff1615612b535760138054612a27906001906158c7565b81548110612a3757612a37615793565b60009182526020808320909101546001600160a01b0384811684526014909252604090922054601380549290931692918110612a7557612a75615793565b9060005260206000200160006101000a8154816001600160a01b0302191690836001600160a01b031602179055506013805480612ab457612ab46158de565b60008281526020808220830160001990810180546001600160a01b03191690559092019092556001600160a01b038316825260149081905260408220546013805491939184908110612b0857612b08615793565b60009182526020808320909101546001600160a01b039081168452838201949094526040928301822094909455918416825260148352808220829055601290925220805460ff191690555b5080612b5e816157ee565b9150506128e4565b50600061103d565b336000908152600a602052604090205460ff16612bcd5760405162461bcd60e51b815260206004820181905260248201527f21436f6d7074726f6c6c65723a5f6265666f72654e6f6e5265656e7472616e746044820152606401610466565b601c5460ff16612c0c5760405162461bcd60e51b815260206004820152600a602482015269085c99595b9d195c995960b21b6044820152606401610466565b601c805460ff19169055565b6060601380548060200260200160405190810160405280929190818152602001828054801561117a576020028201919060005260206000209081546001600160a01b0316815260019091019060200180831161115c575050505050905090565b601554600090600160b81b900460ff1615612cc55760405162461bcd60e51b815260206004820152600d60248201526c085cd95a5e994e9c185d5cd959609a1b6044820152606401610466565b6001600160a01b0386166000908152600a602052604090205460ff161580612d0657506001600160a01b0385166000908152600a602052604090205460ff16155b15612d12576008611a8f565b846001600160a01b0316635fe3b5676040518163ffffffff1660e01b8152600401602060405180830381865afa158015612d50573d6000803e3d6000fd5b505050506040513d601f19601f82011682018060405250810190612d7491906156fc565b6001600160a01b0316866001600160a01b0316635fe3b5676040518163ffffffff1660e01b8152600401602060405180830381865afa158015612dbb573d6000803e3d6000fd5b505050506040513d601f19601f82011682018060405250810190612ddf91906156fc565b6001600160a01b031614612df4576002611a8f565b6124568684866146d6565b601381815481106117fd57600080fd5b6000612e19613df3565b612e295761106260016006613e45565b60185460ff1615158215151415612e41576000611062565b6018805460ff19168315159081179091556040519081527faa40ee94af55250363b91641a0a615c47690148901505f89b01dafae03fff28190602001612041565b6000805b600b54811015612f03576000600b8281548110612ea557612ea5615793565b60009182526020808320909101546001600160a01b03908116808452600a83526040808520928916855260029092019092529091205490915060ff1615612ef0575060019392505050565b5080612efb816157ee565b915050612e86565b50600092915050565b6001600160a01b03831660009081526017602052604081205460ff1615612f665760405162461bcd60e51b815260206004820152600e60248201526d08589bdc9c9bddce9c185d5cd95960921b6044820152606401610466565b6001600160a01b0384166000908152600a602052604090205460ff16612f8d5760086113a7565b6001600160a01b038085166000908152600a60209081526040808320938716835260029093019052205460ff1661307c57336001600160a01b038516146130005760405162461bcd60e51b815260206004820152600760248201526610b1ba37b5b2b760c91b6044820152606401610466565b600061300c3385614781565b9050600081601481111561302257613022615732565b146130415780601481111561303957613039615732565b915050610b12565b6001600160a01b038086166000908152600a60209081526040808320938816835260029093019052205460ff1661307a5761307a6158f4565b505b60055460405163fc57d4df60e01b81526001600160a01b0386811660048301529091169063fc57d4df90602401602060405180830381865afa1580156130c6573d6000803e3d6000fd5b505050506040513d601f19601f820116820180604052508101906130ea9190615719565b6130f557600c6113a7565b60115460ff16801561312057506001600160a01b03831660009081526012602052604090205460ff16155b1561312c5760116113a7565b6001600160a01b038416600090815260196020526040902054801561322a576000856001600160a01b03166347bd37186040518163ffffffff1660e01b8152600401602060405180830381865afa15801561318b573d6000803e3d6000fd5b505050506040513d601f19601f820116820180604052508101906131af9190615719565b90506000806131be8387613f46565b909250905060008260038111156131d7576131d7615732565b146131e957600a945050505050610b12565b8381106132265760405162461bcd60e51b815260206004820152600b60248201526a021626f72726f773a6361760ac1b6044820152606401610466565b5050505b6132348585613d4b565b60008061324486886000886138dd565b9193509091506000905082601481111561326057613260615732565b146132815781601481111561327757613277615732565b9350505050610b12565b801561328e576004613277565b6000979650505050505050565b600960205281600052604060002081815481106132b757600080fd5b6000918252602090912001546001600160a01b03169150829050565b60006132dd613df3565b6132f4576132ed60016009613e45565b9050611062565b6001600160a01b0383166000908152600a60205260409020805460ff16613329576133216008600a613e45565b915050611062565b60408051602080820183528582528251908101909252670c7d713b49da000082529061335781835190511090565b15613372576133686006600b613e45565b9350505050611062565b84158015906133ec575060055460405163fc57d4df60e01b81526001600160a01b0388811660048301529091169063fc57d4df90602401602060405180830381865afa1580156133c6573d6000803e3d6000fd5b505050506040513d601f19601f820116820180604052508101906133ea9190615719565b155b156133fc57613368600c80613e45565b60018301805490869055604080516001600160a01b0389168152602081018390529081018790527f70483e6592cd5182d45ac970e05bc62cdcc90e9d8ef2c2dbe686cf383bcd7fc59060600160405180910390a16000979650505050505050565b60008061346b85858561461e565b905080156116d3579050610b12565b6040516361bfb47160e11b815233600482015260009082908290819081906001600160a01b0385169063c37f68e290602401608060405180830381865afa1580156134c9573d6000803e3d6000fd5b505050506040513d601f19601f820116820180604052508101906134ed919061590a565b50925092509250826000146135325760405162461bcd60e51b815260206004820152600b60248201526a08595e1a5d13585c9ad95d60aa1b6044820152606401610466565b801561354457611118600b6003613e45565b600061355187338561461e565b9050801561357157613566600d6004836149ca565b979650505050505050565b6001600160a01b0385166000908152600a60209081526040808320338452600281019092529091205460ff166135af57600098975050505050505050565b3360009081526002820160209081526040808320805460ff19169055600982528083208054825181850281018501909352808352919290919083018282801561362157602002820191906000526020600020905b81546001600160a01b03168152600190910190602001808311613603575b5050835193945083925060009150505b8281101561368657896001600160a01b031684828151811061365557613655615793565b60200260200101516001600160a01b0316141561367457809150613686565b8061367e816157ee565b915050613631565b50818110613696576136966158f4565b336000908152600960205260409020805481906136b5906001906158c7565b815481106136c5576136c5615793565b9060005260206000200160009054906101000a90046001600160a01b03168183815481106136f5576136f5615793565b9060005260206000200160006101000a8154816001600160a01b0302191690836001600160a01b0316021790555080805480613733576137336158de565b600082815260209020810160001990810180546001600160a01b0319169055019055805461388a57600d805461376b906001906158c7565b8154811061377b5761377b615793565b6000918252602080832090910154338352600e909152604090912054600d80546001600160a01b039093169290919081106137b8576137b8615793565b9060005260206000200160006101000a8154816001600160a01b0302191690836001600160a01b03160217905550600d8054806137f7576137f76158de565b60008281526020808220830160001990810180546001600160a01b0319169055909201909255338252600e908190526040822054600d80549193918490811061384257613842615793565b60009182526020808320909101546001600160a01b03168352828101939093526040918201812093909355338352600e8252808320839055600c9091529020805460ff191690555b604080516001600160a01b038c1681523360208201527fe699a64c18b07ac5b7301aa273f36a2287239eb9501d81950672794afba29a0d910160405180910390a160009c9b505050505050505050505050565b60008060006138ea615135565b6001600160a01b03881660009081526009602090815260408083208054825181850281018501909352808352849383018282801561395157602002820191906000526020600020905b81546001600160a01b03168152600190910190602001808311613933575b5050505050905060005b8151811015613bda57600082828151811061397857613978615793565b60209081029190910101516040516361bfb47160e11b81526001600160a01b038e811660048301529192509082169063c37f68e290602401608060405180830381865afa1580156139cd573d6000803e3d6000fd5b505050506040513d601f19601f820116820180604052508101906139f1919061590a565b60808901526060880152604087015293508315613a1d57600e6000809750975097505050505050611322565b60408051602080820183526001600160a01b038481166000818152600a845285902060010154845260c08a0193909352835191820184526080890151825260e0890191909152600554925163fc57d4df60e01b81526004810192909252919091169063fc57d4df90602401602060405180830381865afa158015613aa5573d6000803e3d6000fd5b505050506040513d601f19601f82011682018060405250810190613ac99190615719565b60a08601819052613ae957600c6000809750975097505050505050611322565b604080516020810190915260a0860151815261010086015260c085015160e0860151613b2391613b1891614951565b866101000151614951565b6101208601526001600160a01b03818116908c16141580613b44575060008a115b15613b6457613b6185610120015186604001518760000151614a42565b85525b613b7c85610100015186606001518760200151614a42565b60208601526001600160a01b03818116908c161415613bc757613ba98561012001518b8760200151614a42565b60208601819052610100860151613bc1918b90614a42565b60208601525b5080613bd2816157ee565b91505061395b565b50602083015183511115613c0b5760208301518351600091613bfb916158c7565b6000955095509550505050611322565b60008084600001518560200151613c2291906158c7565b955095509550505050611322565b6000808411613c4157506000610b12565b60055460405163fc57d4df60e01b81526001600160a01b038581166004830152600092169063fc57d4df90602401602060405180830381865afa158015613c8c573d6000803e3d6000fd5b505050506040513d601f19601f82011682018060405250810190613cb09190615719565b905060008111613cec5760405162461bcd60e51b8152602060048201526007602482015266216f7261636c6560c81b6044820152606401610466565b82613d2e576001600160a01b0384166000908152600a6020526040902060010154670de0b6b3a7640000613d208383615940565b613d2a919061595f565b9150505b80613d4186670de0b6b3a7640000615940565b6110ca919061595f565b60005b601b54811015613dee57601b8181548110613d6b57613d6b615793565b600091825260209091200154604051631cdc2c5d60e31b81526001600160a01b03858116600483015284811660248301529091169063e6e162e890604401600060405180830381600087803b158015613dc357600080fd5b505af1158015613dd7573d6000803e3d6000fd5b505050508080613de6906157ee565b915050613d4e565b505050565b6001546000906001600160a01b031633148015613e195750600254600160a81b900460ff165b80611c6f57506000546001600160a01b031633148015611c6f575050600254600160a01b900460ff1690565b60007f45b96fe442630264581b197e84bbada861235052c5a1aadfff9ea4e40a969aa0836014811115613e7a57613e7a615732565b83601a811115613e8c57613e8c615732565b60408051928352602083019190915260009082015260600160405180910390a1826014811115610b1257610b12615732565b6000610b128383604051806040016040528060118152602001706164646974696f6e206f766572666c6f7760781b815250614a63565b600080600080613f048787613f46565b90925090506000826003811115613f1d57613f1d615732565b14613f2e57509150600090506128af565b613f388186614a9d565b935093505050935093915050565b600080838301848110613f5e57600092509050613f68565b6002600092509250505b9250929050565b60005b601b54811015613dee57601b8181548110613f8f57613f8f615793565b60009182526020909120015460405162e48b0f60e51b81526001600160a01b038581166004830152848116602483015290911690631c9161e090604401600060405180830381600087803b158015613fe657600080fd5b505af1158015613ffa573d6000803e3d6000fd5b505050508080614009906157ee565b915050613f72565b6060600080516020615a9683398151915260020180548060200260200160405190810160405280929190818152602001828054801561117a576020028201919060005260206000209081546001600160a01b0316815260019091019060200180831161115c575050505050905090565b600080516020615a9683398151915261409982614ac8565b60005b600282015460ff82161015613dee57826001600160a01b0316826002018260ff16815481106140cd576140cd615793565b6000918252602090912001546001600160a01b0316141561419f576002820180546140fa906001906158c7565b8154811061410a5761410a615793565b6000918252602090912001546002830180546001600160a01b039092169160ff841690811061413b5761413b615793565b9060005260206000200160006101000a8154816001600160a01b0302191690836001600160a01b031602179055508160020180548061417c5761417c6158de565b600082815260209020810160001990810180546001600160a01b03191690550190555b806141a9816157a9565b91505061409c565b600080516020615a9683398151915260005b600282015460ff8216101561426957826001600160a01b0316826002018260ff16815481106141f4576141f4615793565b6000918252602090912001546001600160a01b031614156142575760405162461bcd60e51b815260206004820152601760248201527f657874656e73696f6e20616c72656164792061646465640000000000000000006044820152606401610466565b80614261816157a9565b9150506141c3565b5061427382614d55565b6002018054600181018255600091825260209091200180546001600160a01b0319166001600160a01b0392909216919091179055565b6000806142b68484614f46565b905061104081614f6e565b6000806000806142d18686614f86565b909250905060008260038111156142ea576142ea615732565b146142fb5750915060009050613f68565b600061430682614f6e565b9350935050509250929050565b6001600160a01b0381161561432b5761432b81614081565b611a07826141b1565b600061433e613df3565b61434e5761106260016016613e45565b6001600160a01b0382166000908152600a602052604090205460ff161561437b5761106260096015613e45565b816001600160a01b031663fe9c44ae6040518163ffffffff1660e01b81526004016020604051808303816000875af11580156143bb573d6000803e3d6000fd5b505050506040513d601f19601f820116820180604052508101906143df9190615748565b61441e5760405162461bcd60e51b815260206004820152601060248201526f10b6b0b935b2ba1d34b9b1ba37b5b2b760811b6044820152606401610466565b306001600160a01b0316826001600160a01b0316635fe3b5676040518163ffffffff1660e01b8152600401602060405180830381865afa158015614466573d6000803e3d6000fd5b505050506040513d601f19601f8201168201806040525081019061448a91906156fc565b6001600160a01b0316146144cf5760405162461bcd60e51b815260206004820152600c60248201526b10b1b7b6b83a3937b63632b960a11b6044820152606401610466565b6000826001600160a01b0316636f307dc36040518163ffffffff1660e01b8152600401602060405180830381865afa15801561450f573d6000803e3d6000fd5b505050506040513d601f19601f8201168201806040525081019061453391906156fc565b6001600160a01b03808216600090815260106020526040902054919250161561456257610b1260096015613e45565b6001600160a01b038381166000818152600a60209081526040808320805460ff191660019081178255808201859055600b805491820190557f0175b7a638427703f0dbe7bb9bbf987a2551717b34e79f33b5b1008d1fa01db90180546001600160a01b0319908116871790915595871684526010835292819020805490951684179094559251918252917fcf583bb0c569eb967f806b11601c4cb93c10310485c67add5f8362c2f212321f910160405180910390a16000611040565b6001600160a01b0383166000908152600a602052604081205460ff166146455760086113a7565b6001600160a01b038085166000908152600a60209081526040808320938716835260029093019052205460ff1661467d5760006113a7565b60008061468d85878660006138dd565b919350909150600090508260148111156146a9576146a9615732565b146146c9578160148111156146c0576146c0615732565b92505050610b12565b80156124565760046146c0565b60005b601b548110156117e757601b81815481106146f6576146f6615793565b600091825260209091200154604051634e081c9560e01b81526001600160a01b0386811660048301528581166024830152848116604483015290911690634e081c9590606401600060405180830381600087803b15801561475657600080fd5b505af115801561476a573d6000803e3d6000fd5b505050508080614779906157ee565b9150506146d9565b6001600160a01b0382166000908152600a60205260408120805460ff166147ac576008915050611062565b6001600160a01b038316600090815260028201602052604090205460ff161515600114156147de576000915050611062565b6001600160a01b03838116600081815260028401602090815260408083208054600160ff199091168117909155600983528184208054918201815584528284200180546001600160a01b031916958a1695909517909455918152600c909152205460ff166148cf57600d8054600180820183557fd7b6990105719101dabeb77144f2a3385c8033acd3af97e9423a695e81ad1eb590910180546001600160a01b0319166001600160a01b0387169081179091556000908152600c60205260409020805460ff19168217905590546148b591906158c7565b6001600160a01b0384166000908152600e60205260409020555b604080516001600160a01b038087168252851660208201527f3ab23ab0d51cccc0c3085aec51f99228625aa1a922b3a8ca89a26b0f2027a1a5910160405180910390a15060009392505050565b604080516020810190915260008152604051806020016040528061494885600001518560000151613ebe565b90529392505050565b6040805160208101909152600081526040518060200160405280670de0b6b3a764000061498686600001518660000151615002565b614948919061595f565b60408051602081019091526000815260405180602001604052806149486149c38660000151670de0b6b3a7640000615002565b8551615044565b60007f45b96fe442630264581b197e84bbada861235052c5a1aadfff9ea4e40a969aa08460148111156149ff576149ff615732565b84601a811115614a1157614a11615732565b604080519283526020830191909152810184905260600160405180910390a183601481111561104057611040615732565b600080614a4f8585614f46565b90506110ca614a5d82614f6e565b84613ebe565b600080614a70848661577b565b90508285821015614a945760405162461bcd60e51b81526004016104669190615981565b50949350505050565b600080838311614abc576000614ab384866158c7565b91509150613f68565b50600390506000613f68565b6000816001600160a01b03166389f8132e6040518163ffffffff1660e01b8152600401600060405180830381865afa158015614b08573d6000803e3d6000fd5b505050506040513d6000823e601f3d908101601f19168201604052614b3091908101906159d6565b9050600080516020615a9683398151915260005b82518161ffff1610156117e7576000838261ffff1681518110614b6957614b69615793565b6020908102919091018101516001600160e01b031981166000908152918590526040909120549091506001600160a01b03868116911614614bac57614bac6158f4565b6001600160e01b0319811660009081526020849052604090205460018085018054600160a01b90930461ffff16929091614be5916158c7565b81548110614bf557614bf5615793565b90600052602060002090600891828204019190066004029054906101000a900460e01b846001018261ffff1681548110614c3157614c31615793565b90600052602060002090600891828204019190066004026101000a81548163ffffffff021916908360e01c021790555080846000016000866001018461ffff1681548110614c8157614c81615793565b6000918252602080832060088304015460079092166004026101000a90910460e01b6001600160e01b03191683528201929092526040019020805461ffff60a01b1916600160a01b61ffff939093169290920291909117905560018401805480614ced57614ced6158de565b60008281526020808220600860001990940193840401805463ffffffff600460078716026101000a0219169055919092556001600160e01b0319909316815291849052506040902080546001600160b01b031916905580614d4d81615a73565b915050614b44565b6000816001600160a01b03166389f8132e6040518163ffffffff1660e01b8152600401600060405180830381865afa158015614d95573d6000803e3d6000fd5b505050506040513d6000823e601f3d908101601f19168201604052614dbd91908101906159d6565b7fc8fcad8db84d3cc18b4c41d551ea0ee66dd599cde068d998e57d5e09332c131d54909150600080516020615a968339815191529060005b8351811015614f3f576000848281518110614e1257614e12615793565b6020908102919091018101516001600160e01b031981166000908152918690526040909120549091506001600160a01b03168015614e7e57604051632c18df3360e01b81526001600160e01b0319831660048201526001600160a01b0382166024820152604401610466565b6040805180820182526001600160a01b03808a16825261ffff80881660208085019182526001600160e01b0319881660009081528b8252958620945185549251909316600160a01b026001600160b01b0319909216929093169190911717909155600180880180549182018155835291206008820401805460e085901c60046007909416939093026101000a92830263ffffffff909302191691909117905583614f2781615a73565b94505050508080614f37906157ee565b915050614df5565b5050505050565b6040805160208101909152600081526040518060200160405280614948856000015185615002565b805160009061106290670de0b6b3a76400009061595f565b6000614f9e6040518060200160405280600081525090565b600080614faf866000015186615077565b90925090506000826003811115614fc857614fc8615732565b14614fe757506040805160208101909152600081529092509050613f68565b60408051602081019091529081526000969095509350505050565b6000610b1283836040518060400160405280601781526020017f6d756c7469706c69636174696f6e206f766572666c6f770000000000000000008152506150b6565b6000610b1283836040518060400160405280600e81526020016d646976696465206279207a65726f60901b815250615109565b6000808361508a57506000905080613f68565b83830283615098868361595f565b146150ab57600260009250925050613f68565b600092509050613f68565b60008315806150c3575082155b156150d057506000610b12565b60006150dc8486615940565b9050836150e9868361595f565b148390614a945760405162461bcd60e51b81526004016104669190615981565b6000818361512a5760405162461bcd60e51b81526004016104669190615981565b50611040838561595f565b6040518061014001604052806000815260200160008152602001600081526020016000815260200160008152602001600081526020016151816040518060200160405280600081525090565b815260200161519c6040518060200160405280600081525090565b81526020016151b76040518060200160405280600081525090565b81526020016151d26040518060200160405280600081525090565b905290565b6001600160a01b03811681146151ec57600080fd5b50565b60006020828403121561520157600080fd5b8135610b12816151d7565b80151581146151ec57600080fd5b60008060006060848603121561522f57600080fd5b833561523a816151d7565b9250602084013561524a816151d7565b9150604084013561525a8161520c565b809150509250925092565b6000806000806080858703121561527b57600080fd5b8435615286816151d7565b93506020850135615296816151d7565b925060408501356152a6816151d7565b9396929550929360600135925050565b6000602082840312156152c857600080fd5b5035919050565b6020808252825182820181905260009190848201906040850190845b818110156153105783516001600160a01b0316835292840192918401916001016152eb565b50909695505050505050565b6000806000806080858703121561533257600080fd5b843561533d816151d7565b9350602085013561534d816151d7565b93969395505050506040820135916060013590565b60008060006060848603121561537757600080fd5b8335615382816151d7565b92506020840135615392816151d7565b929592945050506040919091013590565b600080600080600060a086880312156153bb57600080fd5b85356153c6816151d7565b945060208601356153d6816151d7565b935060408601356153e6816151d7565b925060608601356153f6816151d7565b949793965091946080013592915050565b6000806040838503121561541a57600080fd5b8235615425816151d7565b946020939093013593505050565b6000806040838503121561544657600080fd5b8235615451816151d7565b91506020830135615461816151d7565b809150509250929050565b60006020828403121561547e57600080fd5b8135610b128161520c565b6000806000806060858703121561549f57600080fd5b84356154aa8161520c565b9350602085013567ffffffffffffffff808211156154c757600080fd5b818701915087601f8301126154db57600080fd5b8135818111156154ea57600080fd5b8860208285010111156154fc57600080fd5b95986020929092019750949560400135945092505050565b634e487b7160e01b600052604160045260246000fd5b604051601f8201601f1916810167ffffffffffffffff8111828210171561555357615553615514565b604052919050565b600067ffffffffffffffff82111561557557615575615514565b5060051b60200190565b6000602080838503121561559257600080fd5b823567ffffffffffffffff8111156155a957600080fd5b8301601f810185136155ba57600080fd5b80356155cd6155c88261555b565b61552a565b81815260059190911b820183019083810190878311156155ec57600080fd5b928401925b82841015613566578335615604816151d7565b825292840192908401906155f1565b6020808252825182820181905260009190848201906040850190845b818110156153105783518352928401929184019160010161562f565b60008083601f84011261565d57600080fd5b50813567ffffffffffffffff81111561567557600080fd5b6020830191508360208260051b8501011115613f6857600080fd5b600080600080604085870312156156a657600080fd5b843567ffffffffffffffff808211156156be57600080fd5b6156ca8883890161564b565b909650945060208701359150808211156156e357600080fd5b506156f08782880161564b565b95989497509550505050565b60006020828403121561570e57600080fd5b8151610b12816151d7565b60006020828403121561572b57600080fd5b5051919050565b634e487b7160e01b600052602160045260246000fd5b60006020828403121561575a57600080fd5b8151610b128161520c565b634e487b7160e01b600052601160045260246000fd5b6000821982111561578e5761578e615765565b500190565b634e487b7160e01b600052603260045260246000fd5b600060ff821660ff8114156157c0576157c0615765565b60010192915050565b600060ff821660ff84168060ff038211156157e6576157e6615765565b019392505050565b600060001982141561580257615802615765565b5060010190565b6000602080838503121561581c57600080fd5b825167ffffffffffffffff81111561583357600080fd5b8301601f8101851361584457600080fd5b80516158526155c88261555b565b81815260059190911b8201830190838101908783111561587157600080fd5b928401925b82841015613566578351615889816151d7565b82529284019290840190615876565b60208152816020820152818360408301376000818301604090810191909152601f909201601f19160101919050565b6000828210156158d9576158d9615765565b500390565b634e487b7160e01b600052603160045260246000fd5b634e487b7160e01b600052600160045260246000fd5b6000806000806080858703121561592057600080fd5b505082516020840151604085015160609095015191969095509092509050565b600081600019048311821515161561595a5761595a615765565b500290565b60008261597c57634e487b7160e01b600052601260045260246000fd5b500490565b600060208083528351808285015260005b818110156159ae57858101830151858201604001528201615992565b818111156159c0576000604083870101525b50601f01601f1916929092016040019392505050565b600060208083850312156159e957600080fd5b825167ffffffffffffffff811115615a0057600080fd5b8301601f81018513615a1157600080fd5b8051615a1f6155c88261555b565b81815260059190911b82018301908381019087831115615a3e57600080fd5b928401925b828410156135665783516001600160e01b031981168114615a645760008081fd5b82529284019290840190615a43565b600061ffff80831681811415615a8b57615a8b615765565b600101939250505056fec8fcad8db84d3cc18b4c41d551ea0ee66dd599cde068d998e57d5e09332c131ca164736f6c634300080a000a",
    "linkReferences": {}
  },
  "methodIdentifiers": {
    "_addRewardsDistributor(address)": "b9b5b153",
    "_afterNonReentrant()": "632e5142",
    "_become(address)": "1d504dc6",
    "_becomeImplementation()": "5d72de62",
    "_beforeNonReentrant()": "c90c20b1",
    "_borrowGuardianPaused()": "e6653f3d",
    "_deployMarket(bool,bytes,uint256)": "aba35b98",
    "_listExtensions()": "6333d001",
    "_mintGuardianPaused()": "3c94786f",
    "_registerExtension(address,address)": "89cd9855",
    "_setCloseFactor(uint256)": "317b0b77",
    "_setCollateralFactor(address,uint256)": "e4028eee",
    "_setLiquidationIncentive(uint256)": "4fd42e17",
    "_setPriceOracle(address)": "55ee1fe1",
    "_setWhitelistEnforcement(bool)": "952adf5a",
    "_setWhitelistStatuses(address[],bool[])": "c8c9c975",
    "_toggleAutoImplementations(bool)": "d5333166",
    "accountAssets(address,uint256)": "dce15449",
    "admin()": "f851a440",
    "adminHasRights()": "0a755ec2",
    "allBorrowers(uint256)": "7515bafa",
    "allMarkets(uint256)": "52d84d1e",
    "autoImplementation()": "dd5cd22c",
    "borrowAllowed(address,address,uint256)": "da3d454c",
    "borrowCapGuardian()": "21af4569",
    "borrowCaps(address)": "4a584432",
    "borrowGuardianPaused(address)": "6d154ea5",
    "borrowWithinLimits(address,uint256)": "779b2294",
    "cTokensByUnderlying(address)": "31ff47fa",
    "checkMembership(address,address)": "929fe9a1",
    "closeFactorMantissa()": "e8755446",
    "comptrollerImplementation()": "bb82aa5e",
    "enforceWhitelist()": "b0957210",
    "enterMarkets(address[])": "c2998238",
    "exitMarket(address)": "ede4edd0",
    "fuseAdmin()": "15761d51",
    "fuseAdminHasRights()": "2f1069ba",
    "getAccountLiquidity(address)": "5ec88c79",
    "getAllBorrowers()": "32abcdbe",
    "getAllMarkets()": "b0772d0b",
    "getAssetsIn(address)": "abfceffc",
    "getHypotheticalAccountLiquidity(address,address,uint256,uint256)": "4e79238f",
    "getMaxRedeemOrBorrow(address,address,bool)": "1976828e",
    "getRewardsDistributors()": "3605b51b",
    "getWhitelist()": "d01f63f5",
    "isComptroller()": "007e3dd2",
    "isDeprecated(address)": "94543c15",
    "isUserOfPool(address)": "d9e0ea6b",
    "liquidateBorrowAllowed(address,address,address,address,uint256)": "5fc7e71e",
    "liquidateCalculateSeizeTokens(address,address,uint256)": "c488847b",
    "liquidationIncentiveMantissa()": "4ada90af",
    "markets(address)": "8e8f294b",
    "mintAllowed(address,address,uint256)": "4ef4c3e1",
    "mintGuardianPaused(address)": "731f0c2b",
    "nonAccruingRewardsDistributors(uint256)": "6bd02b8a",
    "oracle()": "7dc0d1d0",
    "pauseGuardian()": "24a3d622",
    "pendingAdmin()": "26782247",
    "pendingComptrollerImplementation()": "dcfbc0c7",
    "redeemAllowed(address,address,uint256)": "eabe7d91",
    "redeemVerify(address,address,uint256,uint256)": "51dff989",
    "repayBorrowAllowed(address,address,address,uint256)": "24008a62",
    "rewardsDistributors(uint256)": "c6c5b0dd",
    "seizeAllowed(address,address,address,address,uint256)": "d02f7351",
    "seizeGuardianPaused()": "ac0b0bb7",
    "suppliers(address)": "16dc15fe",
    "supplyCaps(address)": "02c3bcbb",
    "transferAllowed(address,address,address,uint256)": "bdcdc258",
    "transferGuardianPaused()": "87f76303",
    "whitelist(address)": "9b19251a",
    "whitelistArray(uint256)": "d251fefc"
  }
}