{
  "address": "0xC634898F59391bfd66eDDC9eB4298A8E9643596c",
  "abi": [
    {
      "inputs": [
        {
          "internalType": "address payable",
          "name": "_fuseAdmin",
          "type": "address"
        }
      ],
      "stateMutability": "nonpayable",
      "type": "constructor"
    },
    {
      "inputs": [
        {
          "internalType": "bytes4",
          "name": "_functionSelector",
          "type": "bytes4"
        }
      ],
      "name": "ExtensionNotFound",
      "type": "error"
    },
    {
      "inputs": [
        {
          "internalType": "bytes4",
          "name": "_functionSelector",
          "type": "bytes4"
        },
        {
          "internalType": "address",
          "name": "_currentImpl",
          "type": "address"
        }
      ],
      "name": "FunctionAlreadyAdded",
      "type": "error"
    },
    {
      "inputs": [
        {
          "internalType": "bytes4",
          "name": "_functionSelector",
          "type": "bytes4"
        }
      ],
      "name": "FunctionNotFound",
      "type": "error"
    },
    {
      "anonymous": false,
      "inputs": [
        {
          "indexed": false,
          "internalType": "address",
          "name": "rewardsDistributor",
          "type": "address"
        }
      ],
      "name": "AddedRewardsDistributor",
      "type": "event"
    },
    {
      "anonymous": false,
      "inputs": [
        {
          "indexed": false,
          "internalType": "bool",
          "name": "enabled",
          "type": "bool"
        }
      ],
      "name": "AutoImplementationsToggled",
      "type": "event"
    },
    {
      "anonymous": false,
      "inputs": [
        {
          "indexed": false,
          "internalType": "uint256",
          "name": "error",
          "type": "uint256"
        },
        {
          "indexed": false,
          "internalType": "uint256",
          "name": "info",
          "type": "uint256"
        },
        {
          "indexed": false,
          "internalType": "uint256",
          "name": "detail",
          "type": "uint256"
        }
      ],
      "name": "Failure",
      "type": "event"
    },
    {
      "anonymous": false,
      "inputs": [
        {
          "indexed": false,
          "internalType": "contract CTokenInterface",
          "name": "cToken",
          "type": "address"
        },
        {
          "indexed": false,
          "internalType": "address",
          "name": "account",
          "type": "address"
        }
      ],
      "name": "MarketEntered",
      "type": "event"
    },
    {
      "anonymous": false,
      "inputs": [
        {
          "indexed": false,
          "internalType": "contract CTokenInterface",
          "name": "cToken",
          "type": "address"
        },
        {
          "indexed": false,
          "internalType": "address",
          "name": "account",
          "type": "address"
        }
      ],
      "name": "MarketExited",
      "type": "event"
    },
    {
      "anonymous": false,
      "inputs": [
        {
          "indexed": false,
          "internalType": "contract CTokenInterface",
          "name": "cToken",
          "type": "address"
        }
      ],
      "name": "MarketListed",
      "type": "event"
    },
    {
      "anonymous": false,
      "inputs": [
        {
          "indexed": false,
          "internalType": "uint256",
          "name": "oldCloseFactorMantissa",
          "type": "uint256"
        },
        {
          "indexed": false,
          "internalType": "uint256",
          "name": "newCloseFactorMantissa",
          "type": "uint256"
        }
      ],
      "name": "NewCloseFactor",
      "type": "event"
    },
    {
      "anonymous": false,
      "inputs": [
        {
          "indexed": false,
          "internalType": "contract CTokenInterface",
          "name": "cToken",
          "type": "address"
        },
        {
          "indexed": false,
          "internalType": "uint256",
          "name": "oldCollateralFactorMantissa",
          "type": "uint256"
        },
        {
          "indexed": false,
          "internalType": "uint256",
          "name": "newCollateralFactorMantissa",
          "type": "uint256"
        }
      ],
      "name": "NewCollateralFactor",
      "type": "event"
    },
    {
      "anonymous": false,
      "inputs": [
        {
          "indexed": false,
          "internalType": "uint256",
          "name": "oldLiquidationIncentiveMantissa",
          "type": "uint256"
        },
        {
          "indexed": false,
          "internalType": "uint256",
          "name": "newLiquidationIncentiveMantissa",
          "type": "uint256"
        }
      ],
      "name": "NewLiquidationIncentive",
      "type": "event"
    },
    {
      "anonymous": false,
      "inputs": [
        {
          "indexed": false,
          "internalType": "contract PriceOracle",
          "name": "oldPriceOracle",
          "type": "address"
        },
        {
          "indexed": false,
          "internalType": "contract PriceOracle",
          "name": "newPriceOracle",
          "type": "address"
        }
      ],
      "name": "NewPriceOracle",
      "type": "event"
    },
    {
      "anonymous": false,
      "inputs": [
        {
          "indexed": false,
          "internalType": "bool",
          "name": "enforce",
          "type": "bool"
        }
      ],
      "name": "WhitelistEnforcementChanged",
      "type": "event"
    },
    {
      "stateMutability": "nonpayable",
      "type": "fallback"
    },
    {
      "inputs": [
        {
          "internalType": "address",
          "name": "distributor",
          "type": "address"
        }
      ],
      "name": "_addRewardsDistributor",
      "outputs": [
        {
          "internalType": "uint256",
          "name": "",
          "type": "uint256"
        }
      ],
      "stateMutability": "nonpayable",
      "type": "function"
    },
    {
      "inputs": [],
      "name": "_afterNonReentrant",
      "outputs": [],
      "stateMutability": "nonpayable",
      "type": "function"
    },
    {
      "inputs": [
        {
          "internalType": "contract Unitroller",
          "name": "unitroller",
          "type": "address"
        }
      ],
      "name": "_become",
      "outputs": [],
      "stateMutability": "nonpayable",
      "type": "function"
    },
    {
      "inputs": [],
      "name": "_becomeImplementation",
      "outputs": [],
      "stateMutability": "nonpayable",
      "type": "function"
    },
    {
      "inputs": [],
      "name": "_beforeNonReentrant",
      "outputs": [],
      "stateMutability": "nonpayable",
      "type": "function"
    },
    {
      "inputs": [],
      "name": "_borrowGuardianPaused",
      "outputs": [
        {
          "internalType": "bool",
          "name": "",
          "type": "bool"
        }
      ],
      "stateMutability": "view",
      "type": "function"
    },
    {
      "inputs": [
        {
          "internalType": "bool",
          "name": "isCEther",
          "type": "bool"
        },
        {
          "internalType": "bytes",
          "name": "constructorData",
          "type": "bytes"
        },
        {
          "internalType": "uint256",
          "name": "collateralFactorMantissa",
          "type": "uint256"
        }
      ],
      "name": "_deployMarket",
      "outputs": [
        {
          "internalType": "uint256",
          "name": "",
          "type": "uint256"
        }
      ],
      "stateMutability": "nonpayable",
      "type": "function"
    },
    {
      "inputs": [],
      "name": "_listExtensions",
      "outputs": [
        {
          "internalType": "address[]",
          "name": "",
          "type": "address[]"
        }
      ],
      "stateMutability": "view",
      "type": "function"
    },
    {
      "inputs": [],
      "name": "_mintGuardianPaused",
      "outputs": [
        {
          "internalType": "bool",
          "name": "",
          "type": "bool"
        }
      ],
      "stateMutability": "view",
      "type": "function"
    },
    {
      "inputs": [
        {
          "internalType": "contract DiamondExtension",
          "name": "extensionToAdd",
          "type": "address"
        },
        {
          "internalType": "contract DiamondExtension",
          "name": "extensionToReplace",
          "type": "address"
        }
      ],
      "name": "_registerExtension",
      "outputs": [],
      "stateMutability": "nonpayable",
      "type": "function"
    },
    {
      "inputs": [
        {
          "internalType": "uint256",
          "name": "newCloseFactorMantissa",
          "type": "uint256"
        }
      ],
      "name": "_setCloseFactor",
      "outputs": [
        {
          "internalType": "uint256",
          "name": "",
          "type": "uint256"
        }
      ],
      "stateMutability": "nonpayable",
      "type": "function"
    },
    {
      "inputs": [
        {
          "internalType": "contract CTokenInterface",
          "name": "cToken",
          "type": "address"
        },
        {
          "internalType": "uint256",
          "name": "newCollateralFactorMantissa",
          "type": "uint256"
        }
      ],
      "name": "_setCollateralFactor",
      "outputs": [
        {
          "internalType": "uint256",
          "name": "",
          "type": "uint256"
        }
      ],
      "stateMutability": "nonpayable",
      "type": "function"
    },
    {
      "inputs": [
        {
          "internalType": "uint256",
          "name": "newLiquidationIncentiveMantissa",
          "type": "uint256"
        }
      ],
      "name": "_setLiquidationIncentive",
      "outputs": [
        {
          "internalType": "uint256",
          "name": "",
          "type": "uint256"
        }
      ],
      "stateMutability": "nonpayable",
      "type": "function"
    },
    {
      "inputs": [
        {
          "internalType": "contract PriceOracle",
          "name": "newOracle",
          "type": "address"
        }
      ],
      "name": "_setPriceOracle",
      "outputs": [
        {
          "internalType": "uint256",
          "name": "",
          "type": "uint256"
        }
      ],
      "stateMutability": "nonpayable",
      "type": "function"
    },
    {
      "inputs": [
        {
          "internalType": "bool",
          "name": "enforce",
          "type": "bool"
        }
      ],
      "name": "_setWhitelistEnforcement",
      "outputs": [
        {
          "internalType": "uint256",
          "name": "",
          "type": "uint256"
        }
      ],
      "stateMutability": "nonpayable",
      "type": "function"
    },
    {
      "inputs": [
        {
          "internalType": "address[]",
          "name": "suppliers",
          "type": "address[]"
        },
        {
          "internalType": "bool[]",
          "name": "statuses",
          "type": "bool[]"
        }
      ],
      "name": "_setWhitelistStatuses",
      "outputs": [
        {
          "internalType": "uint256",
          "name": "",
          "type": "uint256"
        }
      ],
      "stateMutability": "nonpayable",
      "type": "function"
    },
    {
      "inputs": [
        {
          "internalType": "bool",
          "name": "enabled",
          "type": "bool"
        }
      ],
      "name": "_toggleAutoImplementations",
      "outputs": [
        {
          "internalType": "uint256",
          "name": "",
          "type": "uint256"
        }
      ],
      "stateMutability": "nonpayable",
      "type": "function"
    },
    {
      "inputs": [
        {
          "internalType": "address",
          "name": "",
          "type": "address"
        },
        {
          "internalType": "uint256",
          "name": "",
          "type": "uint256"
        }
      ],
      "name": "accountAssets",
      "outputs": [
        {
          "internalType": "contract CTokenInterface",
          "name": "",
          "type": "address"
        }
      ],
      "stateMutability": "view",
      "type": "function"
    },
    {
      "inputs": [],
      "name": "admin",
      "outputs": [
        {
          "internalType": "address",
          "name": "",
          "type": "address"
        }
      ],
      "stateMutability": "view",
      "type": "function"
    },
    {
      "inputs": [],
      "name": "adminHasRights",
      "outputs": [
        {
          "internalType": "bool",
          "name": "",
          "type": "bool"
        }
      ],
      "stateMutability": "view",
      "type": "function"
    },
    {
      "inputs": [
        {
          "internalType": "uint256",
          "name": "",
          "type": "uint256"
        }
      ],
      "name": "allBorrowers",
      "outputs": [
        {
          "internalType": "address",
          "name": "",
          "type": "address"
        }
      ],
      "stateMutability": "view",
      "type": "function"
    },
    {
      "inputs": [
        {
          "internalType": "uint256",
          "name": "",
          "type": "uint256"
        }
      ],
      "name": "allMarkets",
      "outputs": [
        {
          "internalType": "contract CTokenInterface",
          "name": "",
          "type": "address"
        }
      ],
      "stateMutability": "view",
      "type": "function"
    },
    {
      "inputs": [],
      "name": "asComptrollerFirstExtension",
      "outputs": [
        {
          "internalType": "contract ComptrollerFirstExtension",
          "name": "",
          "type": "address"
        }
      ],
      "stateMutability": "view",
      "type": "function"
    },
    {
      "inputs": [],
      "name": "autoImplementation",
      "outputs": [
        {
          "internalType": "bool",
          "name": "",
          "type": "bool"
        }
      ],
      "stateMutability": "view",
      "type": "function"
    },
    {
      "inputs": [
        {
          "internalType": "address",
          "name": "cToken",
          "type": "address"
        },
        {
          "internalType": "address",
          "name": "borrower",
          "type": "address"
        },
        {
          "internalType": "uint256",
          "name": "borrowAmount",
          "type": "uint256"
        }
      ],
      "name": "borrowAllowed",
      "outputs": [
        {
          "internalType": "uint256",
          "name": "",
          "type": "uint256"
        }
      ],
      "stateMutability": "nonpayable",
      "type": "function"
    },
    {
      "inputs": [],
      "name": "borrowCapGuardian",
      "outputs": [
        {
          "internalType": "address",
          "name": "",
          "type": "address"
        }
      ],
      "stateMutability": "view",
      "type": "function"
    },
    {
      "inputs": [
        {
          "internalType": "address",
          "name": "",
          "type": "address"
        }
      ],
      "name": "borrowCaps",
      "outputs": [
        {
          "internalType": "uint256",
          "name": "",
          "type": "uint256"
        }
      ],
      "stateMutability": "view",
      "type": "function"
    },
    {
      "inputs": [
        {
          "internalType": "address",
          "name": "",
          "type": "address"
        }
      ],
      "name": "borrowGuardianPaused",
      "outputs": [
        {
          "internalType": "bool",
          "name": "",
          "type": "bool"
        }
      ],
      "stateMutability": "view",
      "type": "function"
    },
    {
      "inputs": [
        {
          "internalType": "address",
          "name": "cToken",
          "type": "address"
        },
        {
          "internalType": "uint256",
          "name": "accountBorrowsNew",
          "type": "uint256"
        }
      ],
      "name": "borrowWithinLimits",
      "outputs": [
        {
          "internalType": "uint256",
          "name": "",
          "type": "uint256"
        }
      ],
      "stateMutability": "view",
      "type": "function"
    },
    {
      "inputs": [
        {
          "internalType": "address",
          "name": "",
          "type": "address"
        }
      ],
      "name": "cTokensByUnderlying",
      "outputs": [
        {
          "internalType": "contract CTokenInterface",
          "name": "",
          "type": "address"
        }
      ],
      "stateMutability": "view",
      "type": "function"
    },
    {
      "inputs": [
        {
          "internalType": "address",
          "name": "account",
          "type": "address"
        },
        {
          "internalType": "contract CTokenInterface",
          "name": "cToken",
          "type": "address"
        }
      ],
      "name": "checkMembership",
      "outputs": [
        {
          "internalType": "bool",
          "name": "",
          "type": "bool"
        }
      ],
      "stateMutability": "view",
      "type": "function"
    },
    {
      "inputs": [],
      "name": "closeFactorMantissa",
      "outputs": [
        {
          "internalType": "uint256",
          "name": "",
          "type": "uint256"
        }
      ],
      "stateMutability": "view",
      "type": "function"
    },
    {
      "inputs": [],
      "name": "comptrollerImplementation",
      "outputs": [
        {
          "internalType": "address",
          "name": "",
          "type": "address"
        }
      ],
      "stateMutability": "view",
      "type": "function"
    },
    {
      "inputs": [],
      "name": "enforceWhitelist",
      "outputs": [
        {
          "internalType": "bool",
          "name": "",
          "type": "bool"
        }
      ],
      "stateMutability": "view",
      "type": "function"
    },
    {
      "inputs": [
        {
          "internalType": "address[]",
          "name": "cTokens",
          "type": "address[]"
        }
      ],
      "name": "enterMarkets",
      "outputs": [
        {
          "internalType": "uint256[]",
          "name": "",
          "type": "uint256[]"
        }
      ],
      "stateMutability": "nonpayable",
      "type": "function"
    },
    {
      "inputs": [
        {
          "internalType": "address",
          "name": "cTokenAddress",
          "type": "address"
        }
      ],
      "name": "exitMarket",
      "outputs": [
        {
          "internalType": "uint256",
          "name": "",
          "type": "uint256"
        }
      ],
      "stateMutability": "nonpayable",
      "type": "function"
    },
    {
      "inputs": [],
      "name": "fuseAdmin",
      "outputs": [
        {
          "internalType": "address payable",
          "name": "",
          "type": "address"
        }
      ],
      "stateMutability": "view",
      "type": "function"
    },
    {
      "inputs": [],
      "name": "fuseAdminHasRights",
      "outputs": [
        {
          "internalType": "bool",
          "name": "",
          "type": "bool"
        }
      ],
      "stateMutability": "view",
      "type": "function"
    },
    {
      "inputs": [
        {
          "internalType": "address",
          "name": "account",
          "type": "address"
        }
      ],
      "name": "getAccountLiquidity",
      "outputs": [
        {
          "internalType": "uint256",
          "name": "",
          "type": "uint256"
        },
        {
          "internalType": "uint256",
          "name": "",
          "type": "uint256"
        },
        {
          "internalType": "uint256",
          "name": "",
          "type": "uint256"
        }
      ],
      "stateMutability": "view",
      "type": "function"
    },
    {
      "inputs": [
        {
          "internalType": "address",
          "name": "account",
          "type": "address"
        }
      ],
      "name": "getAssetsIn",
      "outputs": [
        {
          "internalType": "contract CTokenInterface[]",
          "name": "",
          "type": "address[]"
        }
      ],
      "stateMutability": "view",
      "type": "function"
    },
    {
      "inputs": [
        {
          "internalType": "address",
          "name": "account",
          "type": "address"
        },
        {
          "internalType": "address",
          "name": "cTokenModify",
          "type": "address"
        },
        {
          "internalType": "uint256",
          "name": "redeemTokens",
          "type": "uint256"
        },
        {
          "internalType": "uint256",
          "name": "borrowAmount",
          "type": "uint256"
        }
      ],
      "name": "getHypotheticalAccountLiquidity",
      "outputs": [
        {
          "internalType": "uint256",
          "name": "",
          "type": "uint256"
        },
        {
          "internalType": "uint256",
          "name": "",
          "type": "uint256"
        },
        {
          "internalType": "uint256",
          "name": "",
          "type": "uint256"
        }
      ],
      "stateMutability": "view",
      "type": "function"
    },
    {
      "inputs": [
        {
          "internalType": "address",
          "name": "account",
          "type": "address"
        },
        {
          "internalType": "address",
          "name": "cToken",
          "type": "address"
        },
        {
          "internalType": "bool",
          "name": "isBorrow",
          "type": "bool"
        }
      ],
      "name": "getMaxRedeemOrBorrow",
      "outputs": [
        {
          "internalType": "uint256",
          "name": "",
          "type": "uint256"
        }
      ],
      "stateMutability": "nonpayable",
      "type": "function"
    },
    {
      "inputs": [],
      "name": "isComptroller",
      "outputs": [
        {
          "internalType": "bool",
          "name": "",
          "type": "bool"
        }
      ],
      "stateMutability": "view",
      "type": "function"
    },
    {
      "inputs": [
        {
          "internalType": "contract CTokenInterface",
          "name": "cToken",
          "type": "address"
        }
      ],
      "name": "isDeprecated",
      "outputs": [
        {
          "internalType": "bool",
          "name": "",
          "type": "bool"
        }
      ],
      "stateMutability": "view",
      "type": "function"
    },
    {
      "inputs": [
        {
          "internalType": "address",
          "name": "cTokenBorrowed",
          "type": "address"
        },
        {
          "internalType": "address",
          "name": "cTokenCollateral",
          "type": "address"
        },
        {
          "internalType": "address",
          "name": "liquidator",
          "type": "address"
        },
        {
          "internalType": "address",
          "name": "borrower",
          "type": "address"
        },
        {
          "internalType": "uint256",
          "name": "repayAmount",
          "type": "uint256"
        }
      ],
      "name": "liquidateBorrowAllowed",
      "outputs": [
        {
          "internalType": "uint256",
          "name": "",
          "type": "uint256"
        }
      ],
      "stateMutability": "nonpayable",
      "type": "function"
    },
    {
      "inputs": [
        {
          "internalType": "address",
          "name": "cTokenBorrowed",
          "type": "address"
        },
        {
          "internalType": "address",
          "name": "cTokenCollateral",
          "type": "address"
        },
        {
          "internalType": "uint256",
          "name": "actualRepayAmount",
          "type": "uint256"
        }
      ],
      "name": "liquidateCalculateSeizeTokens",
      "outputs": [
        {
          "internalType": "uint256",
          "name": "",
          "type": "uint256"
        },
        {
          "internalType": "uint256",
          "name": "",
          "type": "uint256"
        }
      ],
      "stateMutability": "view",
      "type": "function"
    },
    {
      "inputs": [],
      "name": "liquidationIncentiveMantissa",
      "outputs": [
        {
          "internalType": "uint256",
          "name": "",
          "type": "uint256"
        }
      ],
      "stateMutability": "view",
      "type": "function"
    },
    {
      "inputs": [
        {
          "internalType": "address",
          "name": "",
          "type": "address"
        }
      ],
      "name": "markets",
      "outputs": [
        {
          "internalType": "bool",
          "name": "isListed",
          "type": "bool"
        },
        {
          "internalType": "uint256",
          "name": "collateralFactorMantissa",
          "type": "uint256"
        }
      ],
      "stateMutability": "view",
      "type": "function"
    },
    {
      "inputs": [
        {
          "internalType": "address",
          "name": "cToken",
          "type": "address"
        },
        {
          "internalType": "address",
          "name": "minter",
          "type": "address"
        },
        {
          "internalType": "uint256",
          "name": "mintAmount",
          "type": "uint256"
        }
      ],
      "name": "mintAllowed",
      "outputs": [
        {
          "internalType": "uint256",
          "name": "",
          "type": "uint256"
        }
      ],
      "stateMutability": "nonpayable",
      "type": "function"
    },
    {
      "inputs": [
        {
          "internalType": "address",
          "name": "",
          "type": "address"
        }
      ],
      "name": "mintGuardianPaused",
      "outputs": [
        {
          "internalType": "bool",
          "name": "",
          "type": "bool"
        }
      ],
      "stateMutability": "view",
      "type": "function"
    },
    {
      "inputs": [
        {
          "internalType": "uint256",
          "name": "",
          "type": "uint256"
        }
      ],
      "name": "nonAccruingRewardsDistributors",
      "outputs": [
        {
          "internalType": "address",
          "name": "",
          "type": "address"
        }
      ],
      "stateMutability": "view",
      "type": "function"
    },
    {
      "inputs": [],
      "name": "oracle",
      "outputs": [
        {
          "internalType": "contract PriceOracle",
          "name": "",
          "type": "address"
        }
      ],
      "stateMutability": "view",
      "type": "function"
    },
    {
      "inputs": [],
      "name": "pauseGuardian",
      "outputs": [
        {
          "internalType": "address",
          "name": "",
          "type": "address"
        }
      ],
      "stateMutability": "view",
      "type": "function"
    },
    {
      "inputs": [],
      "name": "pendingAdmin",
      "outputs": [
        {
          "internalType": "address",
          "name": "",
          "type": "address"
        }
      ],
      "stateMutability": "view",
      "type": "function"
    },
    {
      "inputs": [],
      "name": "pendingComptrollerImplementation",
      "outputs": [
        {
          "internalType": "address",
          "name": "",
          "type": "address"
        }
      ],
      "stateMutability": "view",
      "type": "function"
    },
    {
      "inputs": [
        {
          "internalType": "address",
          "name": "cToken",
          "type": "address"
        },
        {
          "internalType": "address",
          "name": "redeemer",
          "type": "address"
        },
        {
          "internalType": "uint256",
          "name": "redeemTokens",
          "type": "uint256"
        }
      ],
      "name": "redeemAllowed",
      "outputs": [
        {
          "internalType": "uint256",
          "name": "",
          "type": "uint256"
        }
      ],
      "stateMutability": "nonpayable",
      "type": "function"
    },
    {
      "inputs": [
        {
          "internalType": "address",
          "name": "cToken",
          "type": "address"
        },
        {
          "internalType": "address",
          "name": "redeemer",
          "type": "address"
        },
        {
          "internalType": "uint256",
          "name": "redeemAmount",
          "type": "uint256"
        },
        {
          "internalType": "uint256",
          "name": "redeemTokens",
          "type": "uint256"
        }
      ],
      "name": "redeemVerify",
      "outputs": [],
      "stateMutability": "nonpayable",
      "type": "function"
    },
    {
      "inputs": [
        {
          "internalType": "address",
          "name": "cToken",
          "type": "address"
        },
        {
          "internalType": "address",
          "name": "payer",
          "type": "address"
        },
        {
          "internalType": "address",
          "name": "borrower",
          "type": "address"
        },
        {
          "internalType": "uint256",
          "name": "repayAmount",
          "type": "uint256"
        }
      ],
      "name": "repayBorrowAllowed",
      "outputs": [
        {
          "internalType": "uint256",
          "name": "",
          "type": "uint256"
        }
      ],
      "stateMutability": "nonpayable",
      "type": "function"
    },
    {
      "inputs": [
        {
          "internalType": "uint256",
          "name": "",
          "type": "uint256"
        }
      ],
      "name": "rewardsDistributors",
      "outputs": [
        {
          "internalType": "address",
          "name": "",
          "type": "address"
        }
      ],
      "stateMutability": "view",
      "type": "function"
    },
    {
      "inputs": [
        {
          "internalType": "address",
          "name": "cTokenCollateral",
          "type": "address"
        },
        {
          "internalType": "address",
          "name": "cTokenBorrowed",
          "type": "address"
        },
        {
          "internalType": "address",
          "name": "liquidator",
          "type": "address"
        },
        {
          "internalType": "address",
          "name": "borrower",
          "type": "address"
        },
        {
          "internalType": "uint256",
          "name": "seizeTokens",
          "type": "uint256"
        }
      ],
      "name": "seizeAllowed",
      "outputs": [
        {
          "internalType": "uint256",
          "name": "",
          "type": "uint256"
        }
      ],
      "stateMutability": "nonpayable",
      "type": "function"
    },
    {
      "inputs": [],
      "name": "seizeGuardianPaused",
      "outputs": [
        {
          "internalType": "bool",
          "name": "",
          "type": "bool"
        }
      ],
      "stateMutability": "view",
      "type": "function"
    },
    {
      "inputs": [
        {
          "internalType": "address",
          "name": "",
          "type": "address"
        }
      ],
      "name": "suppliers",
      "outputs": [
        {
          "internalType": "bool",
          "name": "",
          "type": "bool"
        }
      ],
      "stateMutability": "view",
      "type": "function"
    },
    {
      "inputs": [
        {
          "internalType": "address",
          "name": "",
          "type": "address"
        }
      ],
      "name": "supplyCaps",
      "outputs": [
        {
          "internalType": "uint256",
          "name": "",
          "type": "uint256"
        }
      ],
      "stateMutability": "view",
      "type": "function"
    },
    {
      "inputs": [
        {
          "internalType": "address",
          "name": "cToken",
          "type": "address"
        },
        {
          "internalType": "address",
          "name": "src",
          "type": "address"
        },
        {
          "internalType": "address",
          "name": "dst",
          "type": "address"
        },
        {
          "internalType": "uint256",
          "name": "transferTokens",
          "type": "uint256"
        }
      ],
      "name": "transferAllowed",
      "outputs": [
        {
          "internalType": "uint256",
          "name": "",
          "type": "uint256"
        }
      ],
      "stateMutability": "nonpayable",
      "type": "function"
    },
    {
      "inputs": [],
      "name": "transferGuardianPaused",
      "outputs": [
        {
          "internalType": "bool",
          "name": "",
          "type": "bool"
        }
      ],
      "stateMutability": "view",
      "type": "function"
    },
    {
      "inputs": [
        {
          "internalType": "address",
          "name": "",
          "type": "address"
        }
      ],
      "name": "whitelist",
      "outputs": [
        {
          "internalType": "bool",
          "name": "",
          "type": "bool"
        }
      ],
      "stateMutability": "view",
      "type": "function"
    },
    {
      "inputs": [
        {
          "internalType": "uint256",
          "name": "",
          "type": "uint256"
        }
      ],
      "name": "whitelistArray",
      "outputs": [
        {
          "internalType": "address",
          "name": "",
          "type": "address"
        }
      ],
      "stateMutability": "view",
      "type": "function"
    }
  ],
  "transactionHash": "0x9aa20f70cf9305ba9f9ed504edf377c921eb06ca4b7a808b702dc593dcee337f",
  "args": [
    "0xFc1f56C58286E7215701A773b61bFf2e18A177dE"
  ],
  "numDeployments": 21,
  "bytecode": {
    "object": "0x60806040526002805461ffff60a01b191661010160a01b1790553480156200002657600080fd5b50604051620059e5380380620059e583398101604081905262000049916200006f565b600080546001600160a01b0319166001600160a01b0392909216919091179055620000a1565b6000602082840312156200008257600080fd5b81516001600160a01b03811681146200009a57600080fd5b9392505050565b61593480620000b16000396000f3fe608060405234801561001057600080fd5b50600436106103f05760003560e01c8063779b229411610215578063c488847b11610125578063dce15449116100b8578063e6653f3d11610087578063e6653f3d14610a07578063e875544614610a1b578063eabe7d9114610a24578063ede4edd014610a37578063f851a44014610a4a576103f0565b8063dce15449146109c1578063dcfbc0c7146109d4578063dd5cd22c146109e7578063e4028eee146109f4576103f0565b8063d02f7351116100f4578063d02f735114610975578063d251fefc14610988578063d53331661461099b578063da3d454c146109ae576103f0565b8063c488847b1461091f578063c6c5b0dd14610947578063c8c9c9751461095a578063c90c20b11461096d576103f0565b80639b19251a116101a8578063b095721011610177578063b0957210146108b9578063b9b5b153146108c6578063bb82aa5e146108d9578063bdcdc258146108ec578063c2998238146108ff576103f0565b80639b19251a1461085c578063aba35b981461087f578063abfceffc14610892578063ac0b0bb7146108a5576103f0565b80638e8f294b116101e45780638e8f294b146107b1578063929fe9a1146107f557806394543c1514610836578063952adf5a14610849576103f0565b8063779b2294146107645780637dc0d1d01461077757806387f763031461078a57806389cd98551461079e576103f0565b80634a584432116103105780635d72de62116102a35780636333d001116102725780636333d001146106e35780636bd02b8a146106f85780636d154ea51461070b578063731f0c2b1461072e5780637515bafa14610751576103f0565b80635d72de62146106ad5780635ec88c79146106b55780635fc7e71e146106c8578063632e5142146106db576103f0565b80634fd42e17116102df5780634fd42e171461066157806351dff9891461067457806352d84d1e1461068757806355ee1fe11461069a576103f0565b80634a584432146105f75780634ada90af146106175780634e79238f146106205780634ef4c3e11461064e576103f0565b806321af4569116103885780632f1069ba116103575780632f1069ba14610593578063317b0b77146105a757806331ff47fa146105ba5780633c94786f146105e3576103f0565b806321af45691461054257806324008a621461055a57806324a3d6221461056d5780632678224714610580576103f0565b806316dc15fe116103c457806316dc15fe146104f15780631976828e146105145780631ace5957146105275780631d504dc61461052d576103f0565b80627e3dd21461046757806302c3bcbb146104845780630a755ec2146104b257806315761d51146104c6575b60006104076000356001600160e01b031916610a5d565b90506001600160a01b03811661044357604051630a82dd7360e31b81526001600160e01b03196000351660048201526024015b60405180910390fd5b3660008037600080366000845af43d6000803e808015610462573d6000f35b3d6000fd5b61046f600181565b60405190151581526020015b60405180910390f35b6104a4610492366004615086565b601a6020526000908152604090205481565b60405190815260200161047b565b60025461046f90600160a81b900460ff1681565b6000546104d9906001600160a01b031681565b6040516001600160a01b03909116815260200161047b565b61046f6104ff366004615086565b600f6020526000908152604090205460ff1681565b6104a46105223660046150b1565b610ac0565b306104d9565b61054061053b366004615086565b610d0f565b005b6018546104d99061010090046001600160a01b031681565b6104a46105683660046150fc565b610fad565b6015546104d9906001600160a01b031681565b6002546104d9906001600160a01b031681565b60025461046f90600160a01b900460ff1681565b6104a46105b536600461514d565b610fef565b6104d96105c8366004615086565b6010602052600090815260409020546001600160a01b031681565b60155461046f90600160a01b900460ff1681565b6104a4610605366004615086565b60196020526000908152604090205481565b6104a460075481565b61063361062e366004615166565b6110c9565b6040805193845260208401929092529082015260600161047b565b6104a461065c3660046151ac565b611109565b6104a461066f36600461514d565b6114c5565b610540610682366004615166565b611581565b6104d961069536600461514d565b6115ca565b6104a46106a8366004615086565b6115f4565b610540611674565b6106336106c3366004615086565b6117e8565b6104a46106d63660046151ed565b611823565b6105406119d4565b6106eb611a42565b60405161047b9190615251565b6104d961070636600461514d565b611a51565b61046f610719366004615086565b60176020526000908152604090205460ff1681565b61046f61073c366004615086565b60166020526000908152604090205460ff1681565b6104d961075f36600461514d565b611a61565b6104a461077236600461529e565b611a71565b6005546104d9906001600160a01b031681565b60155461046f90600160b01b900460ff1681565b6105406107ac3660046152ca565b611bcc565b6107de6107bf366004615086565b600a602052600090815260409020805460019091015460ff9091169082565b60408051921515835260208301919091520161047b565b61046f6108033660046152ca565b6001600160a01b038082166000908152600a60209081526040808320938616835260029093019052205460ff1692915050565b61046f610844366004615086565b611c45565b6104a4610857366004615303565b611daf565b61046f61086a366004615086565b60126020526000908152604090205460ff1681565b6104a461088d366004615320565b611e2d565b6106eb6108a0366004615086565b611f23565b60155461046f90600160b81b900460ff1681565b60115461046f9060ff1681565b6104a46108d4366004615086565b611f99565b6003546104d9906001600160a01b031681565b6104a46108fa3660046150fc565b61215c565b61091261090d366004615416565b6121df565b60405161047b91906154aa565b61093261092d3660046151ac565b6122a7565b6040805192835260208301919091520161047b565b6104d961095536600461514d565b612634565b6104a4610968366004615527565b612644565b6105406128eb565b6104a46109833660046151ed565b612995565b6104d961099636600461514d565b612b1c565b6104a46109a9366004615303565b612b2c565b6104a46109bc3660046151ac565b612b9f565b6104d96109cf36600461529e565b612f2e565b6004546104d9906001600160a01b031681565b60185461046f9060ff1681565b6104a4610a0236600461529e565b612f66565b60155461046f90600160a81b900460ff1681565b6104a460065481565b6104a4610a323660046151ac565b6130f0565b6104a4610a45366004615086565b61310d565b6001546104d9906001600160a01b031681565b6001600160e01b031981166000908152600080516020615908833981519152602081905260408220546001600160a01b031680610ab957604051631f3f429960e31b81526001600160e01b03198516600482015260240161043a565b9392505050565b6000808390506000816001600160a01b0316639f5ef2726040518163ffffffff1660e01b8152600401602060405180830381865afa158015610b06573d6000803e3d6000fd5b505050506040513d601f19601f82011682018060405250810190610b2a9190615593565b604051633af9e66960e01b81526001600160a01b0388811660048301529190911690633af9e669906024016020604051808303816000875af1158015610b74573d6000803e3d6000fd5b505050506040513d601f19601f82011682018060405250810190610b9891906155b0565b90506000806000610bb98988610baf576000610bb1565b865b600080613570565b919450925090506000836014811115610bd457610bd46155c9565b14610c0e5760405162461bcd60e51b815260206004820152600a602482015269216c697175696469747960b01b604482015260640161043a565b8015610c2257600095505050505050610ab9565b600087158015610c5c57506001600160a01b03808a166000908152600a60209081526040808320938e16835260029093019052205460ff16155b15610c68575083610c8a565b610c7383878a613aaf565b905087158015610c8257508085105b15610c8a5750835b6000866001600160a01b0316633b1d21a26040518163ffffffff1660e01b8152600401602060405180830381865afa158015610cca573d6000803e3d6000fd5b505050506040513d601f19601f82011682018060405250810190610cee91906155b0565b905080821115610cfe5780610d00565b815b9b9a5050505050505050505050565b6000546001600160a01b031633148015610d865750806001600160a01b0316632f1069ba6040518163ffffffff1660e01b8152600401602060405180830381865afa158015610d62573d6000803e3d6000fd5b505050506040513d601f19601f82011682018060405250810190610d8691906155df565b80610e6b5750806001600160a01b031663f851a4406040518163ffffffff1660e01b8152600401602060405180830381865afa158015610dca573d6000803e3d6000fd5b505050506040513d601f19601f82011682018060405250810190610dee9190615593565b6001600160a01b0316336001600160a01b0316148015610e6b5750806001600160a01b0316630a755ec26040518163ffffffff1660e01b8152600401602060405180830381865afa158015610e47573d6000803e3d6000fd5b505050506040513d601f19601f82011682018060405250810190610e6b91906155df565b610ea05760405162461bcd60e51b815260206004820152600660248201526510b0b236b4b760d11b604482015260640161043a565b6000816001600160a01b031663c1e803346040518163ffffffff1660e01b81526004016020604051808303816000875af1158015610ee2573d6000803e3d6000fd5b505050506040513d601f19601f82011682018060405250810190610f0691906155b0565b90508015610f565760405162461bcd60e51b815260206004820181905260248201527f21756e617574686f72697a6564202d206e6f742070656e64696e6720696d706c604482015260640161043a565b816001600160a01b0316635d72de626040518163ffffffff1660e01b8152600401600060405180830381600087803b158015610f9157600080fd5b505af1158015610fa5573d6000803e3d6000fd5b505050505050565b6001600160a01b0384166000908152600a602052604081205460ff16610fd75760085b9050610fe7565b610fe18584613bca565b60005b90505b949350505050565b6000610ff9613c72565b61100f5761100960016007613cc4565b92915050565b6040805160208082018352848252825190810190925266b1a2bc2ec5000080835281519192911161104657610fe760056008613cc4565b6040805160208101909152670c7d713b49da00008082528351111561107a5761107160056008613cc4565b95945050505050565b600680549086905560408051828152602081018890527f3b9670cf975d26958e754b57098eaa2ac914d8d2a31b83257997b9f346110fd991015b60405180910390a160005b9695505050505050565b6000806000806000806110de8a8a8a8a613570565b9250925092508260148111156110f6576110f66155c9565b95509093509150505b9450945094915050565b6001600160a01b03831660009081526016602052604081205460ff16156111615760405162461bcd60e51b815260206004820152600c60248201526b085b5a5b9d0e9c185d5cd95960a21b604482015260640161043a565b6001600160a01b0384166000908152600a602052604090205460ff1661118b5760085b9050610ab9565b60115460ff1680156111b657506001600160a01b03831660009081526012602052604090205460ff16155b156111c2576011611184565b6001600160a01b0384166000908152601a602052604090205480156114b0576000856001600160a01b0316633b1d21a26040518163ffffffff1660e01b8152600401602060405180830381865afa158015611221573d6000803e3d6000fd5b505050506040513d601f19601f8201168201806040525081019061124591906155b0565b90506000866001600160a01b03166347bd37186040518163ffffffff1660e01b8152600401602060405180830381865afa158015611287573d6000803e3d6000fd5b505050506040513d601f19601f820116820180604052508101906112ab91906155b0565b90506000876001600160a01b0316638f840ddd6040518163ffffffff1660e01b8152600401602060405180830381865afa1580156112ed573d6000803e3d6000fd5b505050506040513d601f19601f8201168201806040525081019061131191906155b0565b90506000886001600160a01b031663dc028ab16040518163ffffffff1660e01b8152600401602060405180830381865afa158015611353573d6000803e3d6000fd5b505050506040513d601f19601f8201168201806040525081019061137791906155b0565b90506000896001600160a01b03166361feacff6040518163ffffffff1660e01b8152600401602060405180830381865afa1580156113b9573d6000803e3d6000fd5b505050506040513d601f19601f820116820180604052508101906113dd91906155b0565b90506000806113ff87876113fa6113f48989613d3d565b87613d3d565b613d73565b90925090506000826003811115611418576114186155c9565b1461142e57600a98505050505050505050610ab9565b600061143a828c613dc5565b90935090506000836003811115611453576114536155c9565b1461146a57600a9950505050505050505050610ab9565b8881106114a75760405162461bcd60e51b815260206004820152600b60248201526a021737570706c79206361760ac1b604482015260640161043a565b50505050505050505b6114ba8585613dee565b600095945050505050565b60006114cf613c72565b6114df576110096001600d613cc4565b60408051602080820183528482528251908101909252670de0b6b3a76400008083528151919291101561151857610fe76007600e613cc4565b60408051602081019091526714d1120d7b16000080825283511115611543576110716007600e613cc4565b600780549086905560408051828152602081018890527faeba5a6c40a8ac138134bff1aaa65debf25971188a58804bad717f82f0ec131691016110b4565b8015801561158f5750600082115b156115c45760405162461bcd60e51b8152602060048201526005602482015264217a65726f60d81b604482015260640161043a565b50505050565b600b81815481106115da57600080fd5b6000918252602090912001546001600160a01b0316905081565b60006115fe613c72565b61160e5761100960016012613cc4565b600580546001600160a01b038481166001600160a01b031983168117909355604080519190921680825260208201939093527fd52b2b9b7e9ee655fcb95d2e5b9e0c9f69e7ef2b8e9d2d0ea78402d576d22e22910160405180910390a160009392505050565b6003546001600160a01b031633146116c05760405162461bcd60e51b815260206004820152600f60248201526e10b4b6b83632b6b2b73a30ba34b7b760891b604482015260640161043a565b60006116ca613e90565b905060005b815181101561170c576116fa8282815181106116ed576116ed6155fc565b6020026020010151613f02565b8061170481615628565b9150506116cf565b5060008054600354604051631978a0bf60e31b81526001600160a01b03918216600482015291169063cbc505f890602401600060405180830381865afa15801561175a573d6000803e3d6000fd5b505050506040513d6000823e601f3d908101601f191682016040526117829190810190615643565b905060005b81518110156117c4576117b28282815181106117a5576117a56155fc565b6020026020010151614032565b806117bc81615628565b915050611787565b50601c54610100900460ff166117e457601c805461ffff19166101011790555b5050565b6000806000806000806117ff876000806000613570565b925092509250826014811115611817576118176155c9565b97919650945092505050565b6001600160a01b0385166000908152600a602052604081205460ff16158061186457506001600160a01b0385166000908152600a602052604090205460ff16155b156118735760085b9050611071565b6040516395dd919360e01b81526001600160a01b038481166004830152600091908816906395dd919390602401602060405180830381865afa1580156118bd573d6000803e3d6000fd5b505050506040513d601f19601f820116820180604052508101906118e191906155b0565b90506118ec87611c45565b1561193657828110156119315760405162461bcd60e51b815260206004820152600d60248201526c21626f72726f773e726570617960981b604482015260640161043a565b6119c7565b600080611947866000806000613570565b91935090915060009050826014811115611963576119636155c9565b146119845781601481111561197a5761197a6155c9565b9350505050611071565b8061199057600361197a565b60006119ac60405180602001604052806006548152508561412a565b9050808611156119c3576010945050505050611071565b5050505b5060009695505050505050565b336000908152600a602052604090205460ff16611a335760405162461bcd60e51b815260206004820152601f60248201527f21436f6d7074726f6c6c65723a5f61667465724e6f6e5265656e7472616e7400604482015260640161043a565b601c805460ff19166001179055565b6060611a4c613e90565b905090565b601d81815481106115da57600080fd5b600d81815481106115da57600080fd5b600080546040805163fdb25fb160e01b8152905183926001600160a01b03169163fdb25fb19160048083019260209291908290030181865afa158015611abb573d6000803e3d6000fd5b505050506040513d601f19601f82011682018060405250810190611adf91906155b0565b90508015611bc25760055460405163fc57d4df60e01b81526001600160a01b038681166004830152600092169063fc57d4df90602401602060405180830381865afa158015611b32573d6000803e3d6000fd5b505050506040513d601f19601f82011682018060405250810190611b5691906155b0565b905080611b6857600c92505050611009565b600080611b8360405180602001604052808581525087614142565b90925090506000826003811115611b9c57611b9c6155c9565b14611baf57600a5b945050505050611009565b83811015611bbe576012611ba4565b5050505b6000949350505050565b6000546001600160a01b031633148015611bef5750600254600160a01b900460ff165b611c3b5760405162461bcd60e51b815260206004820152601f60248201527f21756e617574686f72697a6564202d206e6f2061646d696e2072696768747300604482015260640161043a565b6117e48282614194565b6001600160a01b0381166000908152600a6020526040812060010154158015611c8b57506001600160a01b03821660009081526017602052604090205460ff1615156001145b80156110095750611d9f611d61836001600160a01b031663173b99046040518163ffffffff1660e01b8152600401602060405180830381865afa158015611cd6573d6000803e3d6000fd5b505050506040513d601f19601f82011682018060405250810190611cfa91906155b0565b846001600160a01b0316638d02d9a16040518163ffffffff1660e01b8152600401602060405180830381865afa158015611d38573d6000803e3d6000fd5b505050506040513d601f19601f82011682018060405250810190611d5c91906155b0565b613d3d565b836001600160a01b031663dbfe7c196040518163ffffffff1660e01b8152600401602060405180830381865afa158015611d38573d6000803e3d6000fd5b670de0b6b3a76400001492915050565b6000611db9613c72565b611dc95761100960016013613cc4565b60115460ff1615158215151415611de1576000611009565b6011805460ff19168315159081179091556040519081527f84c7d948374a180eddab35d27d2f7a94167a1ff4e79467f1e89c061984190a1e906020015b60405180910390a16000611009565b6000611e37613c72565b611e4757610fd060016016613cc4565b60028054600160a01b60ff60a01b198216811790925560008054604051638754e4fd60e01b81529390920460ff169290916001600160a01b031690638754e4fd90611e9890899089906004016156d2565b6020604051808303816000875af1158015611eb7573d6000803e3d6000fd5b505050506040513d601f19601f82011682018060405250810190611edb9190615593565b6002805460ff60a01b1916600160a01b8515150217905590506000611eff826141b5565b90508015611f0d5780611f17565b611f178286612f66565b98975050505050505050565b6001600160a01b0381166000908152600960209081526040808320805482518185028101850190935280835260609493830182828015611f8c57602002820191906000526020600020905b81546001600160a01b03168152600190910190602001808311611f6e575b5093979650505050505050565b6000611fa3613c72565b611fb35761100960016002613cc4565b816001600160a01b031663abc6d72d6040518163ffffffff1660e01b81526004016020604051808303816000875af1158015611ff3573d6000803e3d6000fd5b505050506040513d601f19601f8201168201806040525081019061201791906155df565b61205b5760405162461bcd60e51b815260206004820152601560248201527410b4b9a932bbb0b93239a234b9ba3934b13aba37b960591b604482015260640161043a565b60005b601b548110156120dd57601b818154811061207b5761207b6155fc565b6000918252602090912001546001600160a01b03848116911614156120cb5760405162461bcd60e51b815260206004820152600660248201526508585919195960d21b604482015260640161043a565b806120d581615628565b91505061205e565b50601b80546001810182556000919091527f3ad8aa4f87544323a9d1e5dd902f40c356527a7955687113db5f9a85ad579dc10180546001600160a01b0319166001600160a01b0384169081179091556040519081527f98ef1187fb6fd2bc85f8996489877eb2b5428f9e9bdfc068c9ad6c2ea82eacc790602001611e1e565b601554600090600160b01b900460ff16156121ac5760405162461bcd60e51b815260206004820152601060248201526f085d1c985b9cd9995c8e9c185d5cd95960821b604482015260640161043a565b60006121b986868561449f565b905080156121c8579050610fe7565b6121d3868686614557565b60009695505050505050565b805160609060008167ffffffffffffffff8111156121ff576121ff6153ab565b604051908082528060200260200182016040528015612228578160200160208202803683370190505b50905060005b8281101561229f57600085828151811061224a5761224a6155fc565b6020026020010151905061225e8133614602565b601481111561226f5761226f6155c9565b838381518110612281576122816155fc565b6020908102919091010152508061229781615628565b91505061222e565b509392505050565b60055460405163fc57d4df60e01b81526001600160a01b038581166004830152600092839283929091169063fc57d4df90602401602060405180830381865afa1580156122f8573d6000803e3d6000fd5b505050506040513d601f19601f8201168201806040525081019061231c91906155b0565b60055460405163fc57d4df60e01b81526001600160a01b0388811660048301529293506000929091169063fc57d4df90602401602060405180830381865afa15801561236c573d6000803e3d6000fd5b505050506040513d601f19601f8201168201806040525081019061239091906155b0565b905081158061239d575080155b156123b157600c600093509350505061262c565b60008690506000816001600160a01b0316639f5ef2726040518163ffffffff1660e01b8152600401602060405180830381865afa1580156123f6573d6000803e3d6000fd5b505050506040513d601f19601f8201168201806040525081019061241a9190615593565b6001600160a01b031663182df0f56040518163ffffffff1660e01b8152600401602060405180830381865afa158015612457573d6000803e3d6000fd5b505050506040513d601f19601f8201168201806040525081019061247b91906155b0565b905060006124956040518060200160405280600081525090565b6040805160208101909152600081526040805160208101909152600081526000866001600160a01b0316636752e7026040518163ffffffff1660e01b8152600401602060405180830381865afa1580156124f3573d6000803e3d6000fd5b505050506040513d601f19601f8201168201806040525081019061251791906155b0565b90506000876001600160a01b031663be99f1196040518163ffffffff1660e01b8152600401602060405180830381865afa158015612559573d6000803e3d6000fd5b505050506040513d601f19601f8201168201806040525081019061257d91906155b0565b905060006125c06125ac604051806020016040528060075481525060405180602001604052808781525061479d565b60405180602001604052808581525061479d565b90506125da8160405180602001604052808e8152506147d2565b955061260260405180602001604052808c81525060405180602001604052808b8152506147d2565b945061260e8686614811565b935061261a848f61412a565b60009d509b5050505050505050505050505b935093915050565b601b81815481106115da57600080fd5b600061264e613c72565b61265e57610fd060016014613cc4565b60005b848110156128e357600086868381811061267d5761267d6155fc565b90506020020160208101906126929190615086565b90508484838181106126a6576126a66155fc565b90506020020160208101906126bb9190615303565b15612773576001600160a01b03811660009081526012602052604090205460ff1661276e576001600160a01b0381166000818152601260205260408120805460ff19166001908117909155601380548083018255928190527f66de8ffda797e3de9c05e8fc57b3bf0ec28a930d40b0d285d93c06501cf6a09090920180546001600160a01b031916909317909255546127549190615701565b6001600160a01b0382166000908152601460205260409020555b6128d0565b6001600160a01b03811660009081526012602052604090205460ff16156128d057601380546127a490600190615701565b815481106127b4576127b46155fc565b60009182526020808320909101546001600160a01b03848116845260149092526040909220546013805492909316929181106127f2576127f26155fc565b9060005260206000200160006101000a8154816001600160a01b0302191690836001600160a01b03160217905550601380548061283157612831615718565b60008281526020808220830160001990810180546001600160a01b03191690559092019092556001600160a01b038316825260149081905260408220546013805491939184908110612885576128856155fc565b60009182526020808320909101546001600160a01b039081168452838201949094526040928301822094909455918416825260148352808220829055601290925220805460ff191690555b50806128db81615628565b915050612661565b506000610fe4565b336000908152600a602052604090205460ff1661294a5760405162461bcd60e51b815260206004820181905260248201527f21436f6d7074726f6c6c65723a5f6265666f72654e6f6e5265656e7472616e74604482015260640161043a565b601c5460ff166129895760405162461bcd60e51b815260206004820152600a602482015269085c99595b9d195c995960b21b604482015260640161043a565b601c805460ff19169055565b601554600090600160b81b900460ff16156129e25760405162461bcd60e51b815260206004820152600d60248201526c085cd95a5e994e9c185d5cd959609a1b604482015260640161043a565b6001600160a01b0386166000908152600a602052604090205460ff161580612a2357506001600160a01b0385166000908152600a602052604090205460ff16155b15612a2f57600861186c565b846001600160a01b0316635fe3b5676040518163ffffffff1660e01b8152600401602060405180830381865afa158015612a6d573d6000803e3d6000fd5b505050506040513d601f19601f82011682018060405250810190612a919190615593565b6001600160a01b0316866001600160a01b0316635fe3b5676040518163ffffffff1660e01b8152600401602060405180830381865afa158015612ad8573d6000803e3d6000fd5b505050506040513d601f19601f82011682018060405250810190612afc9190615593565b6001600160a01b031614612b1157600261186c565b6121d3868486614557565b601381815481106115da57600080fd5b6000612b36613c72565b612b465761100960016006613cc4565b60185460ff1615158215151415612b5e576000611009565b6018805460ff19168315159081179091556040519081527faa40ee94af55250363b91641a0a615c47690148901505f89b01dafae03fff28190602001611e1e565b6001600160a01b03831660009081526017602052604081205460ff1615612bf95760405162461bcd60e51b815260206004820152600e60248201526d08589bdc9c9bddce9c185d5cd95960921b604482015260640161043a565b6001600160a01b0384166000908152600a602052604090205460ff16612c20576008611184565b6001600160a01b038085166000908152600a60209081526040808320938716835260029093019052205460ff16612d0f57336001600160a01b03851614612c935760405162461bcd60e51b815260206004820152600760248201526610b1ba37b5b2b760c91b604482015260640161043a565b6000612c9f3385614602565b90506000816014811115612cb557612cb56155c9565b14612cd457806014811115612ccc57612ccc6155c9565b915050610ab9565b6001600160a01b038086166000908152600a60209081526040808320938816835260029093019052205460ff16612d0d57612d0d61572e565b505b60055460405163fc57d4df60e01b81526001600160a01b0386811660048301529091169063fc57d4df90602401602060405180830381865afa158015612d59573d6000803e3d6000fd5b505050506040513d601f19601f82011682018060405250810190612d7d91906155b0565b612d8857600c611184565b60115460ff168015612db357506001600160a01b03831660009081526012602052604090205460ff16155b15612dbf576011611184565b6001600160a01b0384166000908152601960205260409020548015612ebd576000856001600160a01b03166347bd37186040518163ffffffff1660e01b8152600401602060405180830381865afa158015612e1e573d6000803e3d6000fd5b505050506040513d601f19601f82011682018060405250810190612e4291906155b0565b9050600080612e518387613dc5565b90925090506000826003811115612e6a57612e6a6155c9565b14612e7c57600a945050505050610ab9565b838110612eb95760405162461bcd60e51b815260206004820152600b60248201526a021626f72726f773a6361760ac1b604482015260640161043a565b5050505b612ec78585613bca565b600080612ed78688600088613570565b91935090915060009050826014811115612ef357612ef36155c9565b14612f1457816014811115612f0a57612f0a6155c9565b9350505050610ab9565b8015612f21576004612f0a565b6000979650505050505050565b60096020528160005260406000208181548110612f4a57600080fd5b6000918252602090912001546001600160a01b03169150829050565b6000612f70613c72565b612f8757612f8060016009613cc4565b9050611009565b6001600160a01b0383166000908152600a60205260409020805460ff16612fbc57612fb46008600a613cc4565b915050611009565b60408051602080820183528582528251908101909252670c7d713b49da0000825290612fea81835190511090565b1561300557612ffb6006600b613cc4565b9350505050611009565b841580159061307f575060055460405163fc57d4df60e01b81526001600160a01b0388811660048301529091169063fc57d4df90602401602060405180830381865afa158015613059573d6000803e3d6000fd5b505050506040513d601f19601f8201168201806040525081019061307d91906155b0565b155b1561308f57612ffb600c80613cc4565b60018301805490869055604080516001600160a01b0389168152602081018390529081018790527f70483e6592cd5182d45ac970e05bc62cdcc90e9d8ef2c2dbe686cf383bcd7fc59060600160405180910390a16000979650505050505050565b6000806130fe85858561449f565b905080156114b0579050610ab9565b6040516361bfb47160e11b815233600482015260009082908290819081906001600160a01b0385169063c37f68e290602401608060405180830381865afa15801561315c573d6000803e3d6000fd5b505050506040513d601f19601f820116820180604052508101906131809190615744565b50925092509250826000146131c55760405162461bcd60e51b815260206004820152600b60248201526a08595e1a5d13585c9ad95d60aa1b604482015260640161043a565b80156131d7576110bf600b6003613cc4565b60006131e487338561449f565b90508015613204576131f9600d60048361484b565b979650505050505050565b6001600160a01b0385166000908152600a60209081526040808320338452600281019092529091205460ff1661324257600098975050505050505050565b3360009081526002820160209081526040808320805460ff1916905560098252808320805482518185028101850190935280835291929091908301828280156132b457602002820191906000526020600020905b81546001600160a01b03168152600190910190602001808311613296575b5050835193945083925060009150505b8281101561331957896001600160a01b03168482815181106132e8576132e86155fc565b60200260200101516001600160a01b0316141561330757809150613319565b8061331181615628565b9150506132c4565b508181106133295761332961572e565b3360009081526009602052604090208054819061334890600190615701565b81548110613358576133586155fc565b9060005260206000200160009054906101000a90046001600160a01b0316818381548110613388576133886155fc565b9060005260206000200160006101000a8154816001600160a01b0302191690836001600160a01b03160217905550808054806133c6576133c6615718565b600082815260209020810160001990810180546001600160a01b0319169055019055805461351d57600d80546133fe90600190615701565b8154811061340e5761340e6155fc565b6000918252602080832090910154338352600e909152604090912054600d80546001600160a01b0390931692909190811061344b5761344b6155fc565b9060005260206000200160006101000a8154816001600160a01b0302191690836001600160a01b03160217905550600d80548061348a5761348a615718565b60008281526020808220830160001990810180546001600160a01b0319169055909201909255338252600e908190526040822054600d8054919391849081106134d5576134d56155fc565b60009182526020808320909101546001600160a01b03168352828101939093526040918201812093909355338352600e8252808320839055600c9091529020805460ff191690555b604080516001600160a01b038c1681523360208201527fe699a64c18b07ac5b7301aa273f36a2287239eb9501d81950672794afba29a0d910160405180910390a160009c9b505050505050505050505050565b600080600061357d614fb6565b60006001600160a01b0388161561366b57876001600160a01b03166347bd37186040518163ffffffff1660e01b8152600401602060405180830381865afa1580156135cc573d6000803e3d6000fd5b505050506040513d601f19601f820116820180604052508101906135f091906155b0565b61016083015260055460405163fc57d4df60e01b81526001600160a01b038a811660048301529091169063fc57d4df90602401602060405180830381865afa158015613640573d6000803e3d6000fd5b505050506040513d601f19601f8201168201806040525081019061366491906155b0565b6101808301525b6001600160a01b0389166000908152600960209081526040808320805482518185028101850190935280835291929091908301828280156136d557602002820191906000526020600020905b81546001600160a01b031681526001909101906020018083116136b7575b5050505050905060005b8151811015613a595760008282815181106136fc576136fc6155fc565b60209081029190910101516040516361bfb47160e11b81526001600160a01b038e811660048301529192509082169063c37f68e290602401608060405180830381865afa158015613751573d6000803e3d6000fd5b505050506040513d601f19601f820116820180604052508101906137759190615744565b608089015260608801526040870152935083156137a157600e60008097509750975050505050506110ff565b60408051602080820183526001600160a01b038481166000818152600a845285902060010154845260c08a0193909352835191820184526080890151825260e0890191909152600554925163fc57d4df60e01b81526004810192909252919091169063fc57d4df90602401602060405180830381865afa158015613829573d6000803e3d6000fd5b505050506040513d601f19601f8201168201806040525081019061384d91906155b0565b60a0860181905261386d57600c60008097509750975050505050506110ff565b604080516020810190915260a0860151815261010086015260c085015160e08601516138a79161389c916147d2565b8661010001516147d2565b6101208601526000196001600160a01b03828116908d161415806138cb575060008b115b156139e1576001600160a01b038c16156139a8576001600160a01b03808d166000908152601f602090815260408083209386168352929052205460ff16801561391757600091506139a6565b6001600160a01b03808e166000908152601e60209081526040808320938716835292905220546101408801819052156139a657866101600151876101400151106139a15760008761016001518861014001516139739190615701565b9050670de0b6b3a76400008861018001518261398f919061577a565b6139999190615799565b9250506139a6565b600091505b505b60006139bd876101200151886040015161412a565b9050818111156139ca5750805b80876000018181516139dc91906157bb565b905250505b6139f9866101000151876060015188602001516148c3565b60208701526001600160a01b03828116908d161415613a4457613a268661012001518c88602001516148c3565b60208701819052610100870151613a3e918c906148c3565b60208701525b50508080613a5190615628565b9150506136df565b50602083015183511115613a8a5760208301518351600091613a7a91615701565b60009550955095505050506110ff565b60008084600001518560200151613aa19190615701565b9550955095505050506110ff565b6000808411613ac057506000610ab9565b60055460405163fc57d4df60e01b81526001600160a01b038581166004830152600092169063fc57d4df90602401602060405180830381865afa158015613b0b573d6000803e3d6000fd5b505050506040513d601f19601f82011682018060405250810190613b2f91906155b0565b905060008111613b6b5760405162461bcd60e51b8152602060048201526007602482015266216f7261636c6560c81b604482015260640161043a565b82613bad576001600160a01b0384166000908152600a6020526040902060010154670de0b6b3a7640000613b9f838361577a565b613ba99190615799565b9150505b80613bc086670de0b6b3a764000061577a565b6110719190615799565b60005b601b54811015613c6d57601b8181548110613bea57613bea6155fc565b600091825260209091200154604051631cdc2c5d60e31b81526001600160a01b03858116600483015284811660248301529091169063e6e162e890604401600060405180830381600087803b158015613c4257600080fd5b505af1158015613c56573d6000803e3d6000fd5b505050508080613c6590615628565b915050613bcd565b505050565b6001546000906001600160a01b031633148015613c985750600254600160a81b900460ff165b80611a4c57506000546001600160a01b031633148015611a4c575050600254600160a01b900460ff1690565b60007f45b96fe442630264581b197e84bbada861235052c5a1aadfff9ea4e40a969aa0836014811115613cf957613cf96155c9565b83601a811115613d0b57613d0b6155c9565b60408051928352602083019190915260009082015260600160405180910390a1826014811115610ab957610ab96155c9565b6000610ab98383604051806040016040528060118152602001706164646974696f6e206f766572666c6f7760781b8152506148e4565b600080600080613d838787613dc5565b90925090506000826003811115613d9c57613d9c6155c9565b14613dad575091506000905061262c565b613db7818661491e565b935093505050935093915050565b600080838301848110613ddd57600092509050613de7565b6002600092509250505b9250929050565b60005b601b54811015613c6d57601b8181548110613e0e57613e0e6155fc565b60009182526020909120015460405162e48b0f60e51b81526001600160a01b038581166004830152848116602483015290911690631c9161e090604401600060405180830381600087803b158015613e6557600080fd5b505af1158015613e79573d6000803e3d6000fd5b505050508080613e8890615628565b915050613df1565b6060600080516020615908833981519152600201805480602002602001604051908101604052809291908181526020018280548015613ef857602002820191906000526020600020905b81546001600160a01b03168152600190910190602001808311613eda575b5050505050905090565b600080516020615908833981519152613f1a82614949565b60005b600282015460ff82161015613c6d57826001600160a01b0316826002018260ff1681548110613f4e57613f4e6155fc565b6000918252602090912001546001600160a01b0316141561402057600282018054613f7b90600190615701565b81548110613f8b57613f8b6155fc565b6000918252602090912001546002830180546001600160a01b039092169160ff8416908110613fbc57613fbc6155fc565b9060005260206000200160006101000a8154816001600160a01b0302191690836001600160a01b0316021790555081600201805480613ffd57613ffd615718565b600082815260209020810160001990810180546001600160a01b03191690550190555b8061402a816157d3565b915050613f1d565b60008051602061590883398151915260005b600282015460ff821610156140ea57826001600160a01b0316826002018260ff1681548110614075576140756155fc565b6000918252602090912001546001600160a01b031614156140d85760405162461bcd60e51b815260206004820152601760248201527f657874656e73696f6e20616c7265616479206164646564000000000000000000604482015260640161043a565b806140e2816157d3565b915050614044565b506140f482614bd6565b6002018054600181018255600091825260209091200180546001600160a01b0319166001600160a01b0392909216919091179055565b6000806141378484614dc7565b9050610fe781614def565b6000806000806141528686614e07565b9092509050600082600381111561416b5761416b6155c9565b1461417c5750915060009050613de7565b600061418782614def565b9350935050509250929050565b6001600160a01b038116156141ac576141ac81613f02565b6117e482614032565b60006141bf613c72565b6141cf5761100960016016613cc4565b6001600160a01b0382166000908152600a602052604090205460ff16156141fc5761100960096015613cc4565b816001600160a01b031663fe9c44ae6040518163ffffffff1660e01b81526004016020604051808303816000875af115801561423c573d6000803e3d6000fd5b505050506040513d601f19601f8201168201806040525081019061426091906155df565b61429f5760405162461bcd60e51b815260206004820152601060248201526f10b6b0b935b2ba1d34b9b1ba37b5b2b760811b604482015260640161043a565b306001600160a01b0316826001600160a01b0316635fe3b5676040518163ffffffff1660e01b8152600401602060405180830381865afa1580156142e7573d6000803e3d6000fd5b505050506040513d601f19601f8201168201806040525081019061430b9190615593565b6001600160a01b0316146143505760405162461bcd60e51b815260206004820152600c60248201526b10b1b7b6b83a3937b63632b960a11b604482015260640161043a565b6000826001600160a01b0316636f307dc36040518163ffffffff1660e01b8152600401602060405180830381865afa158015614390573d6000803e3d6000fd5b505050506040513d601f19601f820116820180604052508101906143b49190615593565b6001600160a01b0380821660009081526010602052604090205491925016156143e357610ab960096015613cc4565b6001600160a01b038381166000818152600a60209081526040808320805460ff191660019081178255808201859055600b805491820190557f0175b7a638427703f0dbe7bb9bbf987a2551717b34e79f33b5b1008d1fa01db90180546001600160a01b0319908116871790915595871684526010835292819020805490951684179094559251918252917fcf583bb0c569eb967f806b11601c4cb93c10310485c67add5f8362c2f212321f910160405180910390a16000610fe7565b6001600160a01b0383166000908152600a602052604081205460ff166144c6576008611184565b6001600160a01b038085166000908152600a60209081526040808320938716835260029093019052205460ff166144fe576000611184565b60008061450e8587866000613570565b9193509091506000905082601481111561452a5761452a6155c9565b1461454a57816014811115614541576145416155c9565b92505050610ab9565b80156121d3576004614541565b60005b601b548110156115c457601b8181548110614577576145776155fc565b600091825260209091200154604051634e081c9560e01b81526001600160a01b0386811660048301528581166024830152848116604483015290911690634e081c9590606401600060405180830381600087803b1580156145d757600080fd5b505af11580156145eb573d6000803e3d6000fd5b5050505080806145fa90615628565b91505061455a565b6001600160a01b0382166000908152600a60205260408120805460ff1661462d576008915050611009565b6001600160a01b038316600090815260028201602052604090205460ff1615156001141561465f576000915050611009565b6001600160a01b03838116600081815260028401602090815260408083208054600160ff199091168117909155600983528184208054918201815584528284200180546001600160a01b031916958a1695909517909455918152600c909152205460ff1661475057600d8054600180820183557fd7b6990105719101dabeb77144f2a3385c8033acd3af97e9423a695e81ad1eb590910180546001600160a01b0319166001600160a01b0387169081179091556000908152600c60205260409020805460ff19168217905590546147369190615701565b6001600160a01b0384166000908152600e60205260409020555b604080516001600160a01b038087168252851660208201527f3ab23ab0d51cccc0c3085aec51f99228625aa1a922b3a8ca89a26b0f2027a1a5910160405180910390a15060009392505050565b60408051602081019091526000815260405180602001604052806147c985600001518560000151613d3d565b90529392505050565b6040805160208101909152600081526040518060200160405280670de0b6b3a764000061480786600001518660000151614e83565b6147c99190615799565b60408051602081019091526000815260405180602001604052806147c96148448660000151670de0b6b3a7640000614e83565b8551614ec5565b60007f45b96fe442630264581b197e84bbada861235052c5a1aadfff9ea4e40a969aa0846014811115614880576148806155c9565b84601a811115614892576148926155c9565b604080519283526020830191909152810184905260600160405180910390a1836014811115610fe757610fe76155c9565b6000806148d08585614dc7565b90506110716148de82614def565b84613d3d565b6000806148f184866157bb565b905082858210156149155760405162461bcd60e51b815260040161043a91906157f3565b50949350505050565b60008083831161493d5760006149348486615701565b91509150613de7565b50600390506000613de7565b6000816001600160a01b03166389f8132e6040518163ffffffff1660e01b8152600401600060405180830381865afa158015614989573d6000803e3d6000fd5b505050506040513d6000823e601f3d908101601f191682016040526149b19190810190615848565b905060008051602061590883398151915260005b82518161ffff1610156115c4576000838261ffff16815181106149ea576149ea6155fc565b6020908102919091018101516001600160e01b031981166000908152918590526040909120549091506001600160a01b03868116911614614a2d57614a2d61572e565b6001600160e01b0319811660009081526020849052604090205460018085018054600160a01b90930461ffff16929091614a6691615701565b81548110614a7657614a766155fc565b90600052602060002090600891828204019190066004029054906101000a900460e01b846001018261ffff1681548110614ab257614ab26155fc565b90600052602060002090600891828204019190066004026101000a81548163ffffffff021916908360e01c021790555080846000016000866001018461ffff1681548110614b0257614b026155fc565b6000918252602080832060088304015460079092166004026101000a90910460e01b6001600160e01b03191683528201929092526040019020805461ffff60a01b1916600160a01b61ffff939093169290920291909117905560018401805480614b6e57614b6e615718565b60008281526020808220600860001990940193840401805463ffffffff600460078716026101000a0219169055919092556001600160e01b0319909316815291849052506040902080546001600160b01b031916905580614bce816158e5565b9150506149c5565b6000816001600160a01b03166389f8132e6040518163ffffffff1660e01b8152600401600060405180830381865afa158015614c16573d6000803e3d6000fd5b505050506040513d6000823e601f3d908101601f19168201604052614c3e9190810190615848565b7fc8fcad8db84d3cc18b4c41d551ea0ee66dd599cde068d998e57d5e09332c131d549091506000805160206159088339815191529060005b8351811015614dc0576000848281518110614c9357614c936155fc565b6020908102919091018101516001600160e01b031981166000908152918690526040909120549091506001600160a01b03168015614cff57604051632c18df3360e01b81526001600160e01b0319831660048201526001600160a01b038216602482015260440161043a565b6040805180820182526001600160a01b03808a16825261ffff80881660208085019182526001600160e01b0319881660009081528b8252958620945185549251909316600160a01b026001600160b01b0319909216929093169190911717909155600180880180549182018155835291206008820401805460e085901c60046007909416939093026101000a92830263ffffffff909302191691909117905583614da8816158e5565b94505050508080614db890615628565b915050614c76565b5050505050565b60408051602081019091526000815260405180602001604052806147c9856000015185614e83565b805160009061100990670de0b6b3a764000090615799565b6000614e1f6040518060200160405280600081525090565b600080614e30866000015186614ef8565b90925090506000826003811115614e4957614e496155c9565b14614e6857506040805160208101909152600081529092509050613de7565b60408051602081019091529081526000969095509350505050565b6000610ab983836040518060400160405280601781526020017f6d756c7469706c69636174696f6e206f766572666c6f77000000000000000000815250614f37565b6000610ab983836040518060400160405280600e81526020016d646976696465206279207a65726f60901b815250614f8a565b60008083614f0b57506000905080613de7565b83830283614f198683615799565b14614f2c57600260009250925050613de7565b600092509050613de7565b6000831580614f44575082155b15614f5157506000610ab9565b6000614f5d848661577a565b905083614f6a8683615799565b1483906149155760405162461bcd60e51b815260040161043a91906157f3565b60008183614fab5760405162461bcd60e51b815260040161043a91906157f3565b50610fe78385615799565b604051806101a001604052806000815260200160008152602001600081526020016000815260200160008152602001600081526020016150026040518060200160405280600081525090565b815260200161501d6040518060200160405280600081525090565b81526020016150386040518060200160405280600081525090565b81526020016150536040518060200160405280600081525090565b81526020016000815260200160008152602001600081525090565b6001600160a01b038116811461508357600080fd5b50565b60006020828403121561509857600080fd5b8135610ab98161506e565b801515811461508357600080fd5b6000806000606084860312156150c657600080fd5b83356150d18161506e565b925060208401356150e18161506e565b915060408401356150f1816150a3565b809150509250925092565b6000806000806080858703121561511257600080fd5b843561511d8161506e565b9350602085013561512d8161506e565b9250604085013561513d8161506e565b9396929550929360600135925050565b60006020828403121561515f57600080fd5b5035919050565b6000806000806080858703121561517c57600080fd5b84356151878161506e565b935060208501356151978161506e565b93969395505050506040820135916060013590565b6000806000606084860312156151c157600080fd5b83356151cc8161506e565b925060208401356151dc8161506e565b929592945050506040919091013590565b600080600080600060a0868803121561520557600080fd5b85356152108161506e565b945060208601356152208161506e565b935060408601356152308161506e565b925060608601356152408161506e565b949793965091946080013592915050565b6020808252825182820181905260009190848201906040850190845b818110156152925783516001600160a01b03168352928401929184019160010161526d565b50909695505050505050565b600080604083850312156152b157600080fd5b82356152bc8161506e565b946020939093013593505050565b600080604083850312156152dd57600080fd5b82356152e88161506e565b915060208301356152f88161506e565b809150509250929050565b60006020828403121561531557600080fd5b8135610ab9816150a3565b6000806000806060858703121561533657600080fd5b8435615341816150a3565b9350602085013567ffffffffffffffff8082111561535e57600080fd5b818701915087601f83011261537257600080fd5b81358181111561538157600080fd5b88602082850101111561539357600080fd5b95986020929092019750949560400135945092505050565b634e487b7160e01b600052604160045260246000fd5b604051601f8201601f1916810167ffffffffffffffff811182821017156153ea576153ea6153ab565b604052919050565b600067ffffffffffffffff82111561540c5761540c6153ab565b5060051b60200190565b6000602080838503121561542957600080fd5b823567ffffffffffffffff81111561544057600080fd5b8301601f8101851361545157600080fd5b803561546461545f826153f2565b6153c1565b81815260059190911b8201830190838101908783111561548357600080fd5b928401925b828410156131f957833561549b8161506e565b82529284019290840190615488565b6020808252825182820181905260009190848201906040850190845b81811015615292578351835292840192918401916001016154c6565b60008083601f8401126154f457600080fd5b50813567ffffffffffffffff81111561550c57600080fd5b6020830191508360208260051b8501011115613de757600080fd5b6000806000806040858703121561553d57600080fd5b843567ffffffffffffffff8082111561555557600080fd5b615561888389016154e2565b9096509450602087013591508082111561557a57600080fd5b50615587878288016154e2565b95989497509550505050565b6000602082840312156155a557600080fd5b8151610ab98161506e565b6000602082840312156155c257600080fd5b5051919050565b634e487b7160e01b600052602160045260246000fd5b6000602082840312156155f157600080fd5b8151610ab9816150a3565b634e487b7160e01b600052603260045260246000fd5b634e487b7160e01b600052601160045260246000fd5b600060001982141561563c5761563c615612565b5060010190565b6000602080838503121561565657600080fd5b825167ffffffffffffffff81111561566d57600080fd5b8301601f8101851361567e57600080fd5b805161568c61545f826153f2565b81815260059190911b820183019083810190878311156156ab57600080fd5b928401925b828410156131f95783516156c38161506e565b825292840192908401906156b0565b60208152816020820152818360408301376000818301604090810191909152601f909201601f19160101919050565b60008282101561571357615713615612565b500390565b634e487b7160e01b600052603160045260246000fd5b634e487b7160e01b600052600160045260246000fd5b6000806000806080858703121561575a57600080fd5b505082516020840151604085015160609095015191969095509092509050565b600081600019048311821515161561579457615794615612565b500290565b6000826157b657634e487b7160e01b600052601260045260246000fd5b500490565b600082198211156157ce576157ce615612565b500190565b600060ff821660ff8114156157ea576157ea615612565b60010192915050565b600060208083528351808285015260005b8181101561582057858101830151858201604001528201615804565b81811115615832576000604083870101525b50601f01601f1916929092016040019392505050565b6000602080838503121561585b57600080fd5b825167ffffffffffffffff81111561587257600080fd5b8301601f8101851361588357600080fd5b805161589161545f826153f2565b81815260059190911b820183019083810190878311156158b057600080fd5b928401925b828410156131f95783516001600160e01b0319811681146158d65760008081fd5b825292840192908401906158b5565b600061ffff808316818114156158fd576158fd615612565b600101939250505056fec8fcad8db84d3cc18b4c41d551ea0ee66dd599cde068d998e57d5e09332c131ca164736f6c634300080a000a",
    "linkReferences": {}
  },
  "methodIdentifiers": {
    "_addRewardsDistributor(address)": "b9b5b153",
    "_afterNonReentrant()": "632e5142",
    "_become(address)": "1d504dc6",
    "_becomeImplementation()": "5d72de62",
    "_beforeNonReentrant()": "c90c20b1",
    "_borrowGuardianPaused()": "e6653f3d",
    "_deployMarket(bool,bytes,uint256)": "aba35b98",
    "_listExtensions()": "6333d001",
    "_mintGuardianPaused()": "3c94786f",
    "_registerExtension(address,address)": "89cd9855",
    "_setCloseFactor(uint256)": "317b0b77",
    "_setCollateralFactor(address,uint256)": "e4028eee",
    "_setLiquidationIncentive(uint256)": "4fd42e17",
    "_setPriceOracle(address)": "55ee1fe1",
    "_setWhitelistEnforcement(bool)": "952adf5a",
    "_setWhitelistStatuses(address[],bool[])": "c8c9c975",
    "_toggleAutoImplementations(bool)": "d5333166",
    "accountAssets(address,uint256)": "dce15449",
    "admin()": "f851a440",
    "adminHasRights()": "0a755ec2",
    "allBorrowers(uint256)": "7515bafa",
    "allMarkets(uint256)": "52d84d1e",
    "asComptrollerFirstExtension()": "1ace5957",
    "autoImplementation()": "dd5cd22c",
    "borrowAllowed(address,address,uint256)": "da3d454c",
    "borrowCapGuardian()": "21af4569",
    "borrowCaps(address)": "4a584432",
    "borrowGuardianPaused(address)": "6d154ea5",
    "borrowWithinLimits(address,uint256)": "779b2294",
    "cTokensByUnderlying(address)": "31ff47fa",
    "checkMembership(address,address)": "929fe9a1",
    "closeFactorMantissa()": "e8755446",
    "comptrollerImplementation()": "bb82aa5e",
    "enforceWhitelist()": "b0957210",
    "enterMarkets(address[])": "c2998238",
    "exitMarket(address)": "ede4edd0",
    "fuseAdmin()": "15761d51",
    "fuseAdminHasRights()": "2f1069ba",
    "getAccountLiquidity(address)": "5ec88c79",
    "getAssetsIn(address)": "abfceffc",
    "getHypotheticalAccountLiquidity(address,address,uint256,uint256)": "4e79238f",
    "getMaxRedeemOrBorrow(address,address,bool)": "1976828e",
    "isComptroller()": "007e3dd2",
    "isDeprecated(address)": "94543c15",
    "liquidateBorrowAllowed(address,address,address,address,uint256)": "5fc7e71e",
    "liquidateCalculateSeizeTokens(address,address,uint256)": "c488847b",
    "liquidationIncentiveMantissa()": "4ada90af",
    "markets(address)": "8e8f294b",
    "mintAllowed(address,address,uint256)": "4ef4c3e1",
    "mintGuardianPaused(address)": "731f0c2b",
    "nonAccruingRewardsDistributors(uint256)": "6bd02b8a",
    "oracle()": "7dc0d1d0",
    "pauseGuardian()": "24a3d622",
    "pendingAdmin()": "26782247",
    "pendingComptrollerImplementation()": "dcfbc0c7",
    "redeemAllowed(address,address,uint256)": "eabe7d91",
    "redeemVerify(address,address,uint256,uint256)": "51dff989",
    "repayBorrowAllowed(address,address,address,uint256)": "24008a62",
    "rewardsDistributors(uint256)": "c6c5b0dd",
    "seizeAllowed(address,address,address,address,uint256)": "d02f7351",
    "seizeGuardianPaused()": "ac0b0bb7",
    "suppliers(address)": "16dc15fe",
    "supplyCaps(address)": "02c3bcbb",
    "transferAllowed(address,address,address,uint256)": "bdcdc258",
    "transferGuardianPaused()": "87f76303",
    "whitelist(address)": "9b19251a",
    "whitelistArray(uint256)": "d251fefc"
  }
}