{
  "address": "0xaC1A2fF17a88F308083e360b54ECbF9873A9aE29",
  "abi": [
    {
      "inputs": [
        {
          "internalType": "address payable",
          "name": "_fuseAdmin",
          "type": "address"
        }
      ],
      "stateMutability": "nonpayable",
      "type": "constructor"
    },
    {
      "inputs": [
        {
          "internalType": "bytes4",
          "name": "_functionSelector",
          "type": "bytes4"
        }
      ],
      "name": "ExtensionNotFound",
      "type": "error"
    },
    {
      "inputs": [
        {
          "internalType": "bytes4",
          "name": "_functionSelector",
          "type": "bytes4"
        },
        {
          "internalType": "address",
          "name": "_currentImpl",
          "type": "address"
        }
      ],
      "name": "FunctionAlreadyAdded",
      "type": "error"
    },
    {
      "inputs": [
        {
          "internalType": "bytes4",
          "name": "_functionSelector",
          "type": "bytes4"
        }
      ],
      "name": "FunctionNotFound",
      "type": "error"
    },
    {
      "anonymous": false,
      "inputs": [
        {
          "indexed": false,
          "internalType": "address",
          "name": "rewardsDistributor",
          "type": "address"
        }
      ],
      "name": "AddedRewardsDistributor",
      "type": "event"
    },
    {
      "anonymous": false,
      "inputs": [
        {
          "indexed": false,
          "internalType": "bool",
          "name": "enabled",
          "type": "bool"
        }
      ],
      "name": "AutoImplementationsToggled",
      "type": "event"
    },
    {
      "anonymous": false,
      "inputs": [
        {
          "indexed": false,
          "internalType": "uint256",
          "name": "error",
          "type": "uint256"
        },
        {
          "indexed": false,
          "internalType": "uint256",
          "name": "info",
          "type": "uint256"
        },
        {
          "indexed": false,
          "internalType": "uint256",
          "name": "detail",
          "type": "uint256"
        }
      ],
      "name": "Failure",
      "type": "event"
    },
    {
      "anonymous": false,
      "inputs": [
        {
          "indexed": false,
          "internalType": "contract CTokenInterface",
          "name": "cToken",
          "type": "address"
        },
        {
          "indexed": false,
          "internalType": "address",
          "name": "account",
          "type": "address"
        }
      ],
      "name": "MarketEntered",
      "type": "event"
    },
    {
      "anonymous": false,
      "inputs": [
        {
          "indexed": false,
          "internalType": "contract CTokenInterface",
          "name": "cToken",
          "type": "address"
        },
        {
          "indexed": false,
          "internalType": "address",
          "name": "account",
          "type": "address"
        }
      ],
      "name": "MarketExited",
      "type": "event"
    },
    {
      "anonymous": false,
      "inputs": [
        {
          "indexed": false,
          "internalType": "contract CTokenInterface",
          "name": "cToken",
          "type": "address"
        }
      ],
      "name": "MarketListed",
      "type": "event"
    },
    {
      "anonymous": false,
      "inputs": [
        {
          "indexed": false,
          "internalType": "uint256",
          "name": "oldCloseFactorMantissa",
          "type": "uint256"
        },
        {
          "indexed": false,
          "internalType": "uint256",
          "name": "newCloseFactorMantissa",
          "type": "uint256"
        }
      ],
      "name": "NewCloseFactor",
      "type": "event"
    },
    {
      "anonymous": false,
      "inputs": [
        {
          "indexed": false,
          "internalType": "contract CTokenInterface",
          "name": "cToken",
          "type": "address"
        },
        {
          "indexed": false,
          "internalType": "uint256",
          "name": "oldCollateralFactorMantissa",
          "type": "uint256"
        },
        {
          "indexed": false,
          "internalType": "uint256",
          "name": "newCollateralFactorMantissa",
          "type": "uint256"
        }
      ],
      "name": "NewCollateralFactor",
      "type": "event"
    },
    {
      "anonymous": false,
      "inputs": [
        {
          "indexed": false,
          "internalType": "uint256",
          "name": "oldLiquidationIncentiveMantissa",
          "type": "uint256"
        },
        {
          "indexed": false,
          "internalType": "uint256",
          "name": "newLiquidationIncentiveMantissa",
          "type": "uint256"
        }
      ],
      "name": "NewLiquidationIncentive",
      "type": "event"
    },
    {
      "anonymous": false,
      "inputs": [
        {
          "indexed": false,
          "internalType": "contract PriceOracle",
          "name": "oldPriceOracle",
          "type": "address"
        },
        {
          "indexed": false,
          "internalType": "contract PriceOracle",
          "name": "newPriceOracle",
          "type": "address"
        }
      ],
      "name": "NewPriceOracle",
      "type": "event"
    },
    {
      "anonymous": false,
      "inputs": [
        {
          "indexed": false,
          "internalType": "bool",
          "name": "enforce",
          "type": "bool"
        }
      ],
      "name": "WhitelistEnforcementChanged",
      "type": "event"
    },
    {
      "stateMutability": "nonpayable",
      "type": "fallback"
    },
    {
      "inputs": [
        {
          "internalType": "address",
          "name": "distributor",
          "type": "address"
        }
      ],
      "name": "_addRewardsDistributor",
      "outputs": [
        {
          "internalType": "uint256",
          "name": "",
          "type": "uint256"
        }
      ],
      "stateMutability": "nonpayable",
      "type": "function"
    },
    {
      "inputs": [],
      "name": "_afterNonReentrant",
      "outputs": [],
      "stateMutability": "nonpayable",
      "type": "function"
    },
    {
      "inputs": [
        {
          "internalType": "contract Unitroller",
          "name": "unitroller",
          "type": "address"
        }
      ],
      "name": "_become",
      "outputs": [],
      "stateMutability": "nonpayable",
      "type": "function"
    },
    {
      "inputs": [],
      "name": "_becomeImplementation",
      "outputs": [],
      "stateMutability": "nonpayable",
      "type": "function"
    },
    {
      "inputs": [],
      "name": "_beforeNonReentrant",
      "outputs": [],
      "stateMutability": "nonpayable",
      "type": "function"
    },
    {
      "inputs": [],
      "name": "_borrowGuardianPaused",
      "outputs": [
        {
          "internalType": "bool",
          "name": "",
          "type": "bool"
        }
      ],
      "stateMutability": "view",
      "type": "function"
    },
    {
      "inputs": [
        {
          "internalType": "bool",
          "name": "isCEther",
          "type": "bool"
        },
        {
          "internalType": "bytes",
          "name": "constructorData",
          "type": "bytes"
        },
        {
          "internalType": "uint256",
          "name": "collateralFactorMantissa",
          "type": "uint256"
        }
      ],
      "name": "_deployMarket",
      "outputs": [
        {
          "internalType": "uint256",
          "name": "",
          "type": "uint256"
        }
      ],
      "stateMutability": "nonpayable",
      "type": "function"
    },
    {
      "inputs": [],
      "name": "_listExtensions",
      "outputs": [
        {
          "internalType": "address[]",
          "name": "",
          "type": "address[]"
        }
      ],
      "stateMutability": "view",
      "type": "function"
    },
    {
      "inputs": [],
      "name": "_mintGuardianPaused",
      "outputs": [
        {
          "internalType": "bool",
          "name": "",
          "type": "bool"
        }
      ],
      "stateMutability": "view",
      "type": "function"
    },
    {
      "inputs": [
        {
          "internalType": "contract DiamondExtension",
          "name": "extensionToAdd",
          "type": "address"
        },
        {
          "internalType": "contract DiamondExtension",
          "name": "extensionToReplace",
          "type": "address"
        }
      ],
      "name": "_registerExtension",
      "outputs": [],
      "stateMutability": "nonpayable",
      "type": "function"
    },
    {
      "inputs": [
        {
          "internalType": "uint256",
          "name": "newCloseFactorMantissa",
          "type": "uint256"
        }
      ],
      "name": "_setCloseFactor",
      "outputs": [
        {
          "internalType": "uint256",
          "name": "",
          "type": "uint256"
        }
      ],
      "stateMutability": "nonpayable",
      "type": "function"
    },
    {
      "inputs": [
        {
          "internalType": "contract CTokenInterface",
          "name": "cToken",
          "type": "address"
        },
        {
          "internalType": "uint256",
          "name": "newCollateralFactorMantissa",
          "type": "uint256"
        }
      ],
      "name": "_setCollateralFactor",
      "outputs": [
        {
          "internalType": "uint256",
          "name": "",
          "type": "uint256"
        }
      ],
      "stateMutability": "nonpayable",
      "type": "function"
    },
    {
      "inputs": [
        {
          "internalType": "uint256",
          "name": "newLiquidationIncentiveMantissa",
          "type": "uint256"
        }
      ],
      "name": "_setLiquidationIncentive",
      "outputs": [
        {
          "internalType": "uint256",
          "name": "",
          "type": "uint256"
        }
      ],
      "stateMutability": "nonpayable",
      "type": "function"
    },
    {
      "inputs": [
        {
          "internalType": "contract PriceOracle",
          "name": "newOracle",
          "type": "address"
        }
      ],
      "name": "_setPriceOracle",
      "outputs": [
        {
          "internalType": "uint256",
          "name": "",
          "type": "uint256"
        }
      ],
      "stateMutability": "nonpayable",
      "type": "function"
    },
    {
      "inputs": [
        {
          "internalType": "bool",
          "name": "enforce",
          "type": "bool"
        }
      ],
      "name": "_setWhitelistEnforcement",
      "outputs": [
        {
          "internalType": "uint256",
          "name": "",
          "type": "uint256"
        }
      ],
      "stateMutability": "nonpayable",
      "type": "function"
    },
    {
      "inputs": [
        {
          "internalType": "address[]",
          "name": "suppliers",
          "type": "address[]"
        },
        {
          "internalType": "bool[]",
          "name": "statuses",
          "type": "bool[]"
        }
      ],
      "name": "_setWhitelistStatuses",
      "outputs": [
        {
          "internalType": "uint256",
          "name": "",
          "type": "uint256"
        }
      ],
      "stateMutability": "nonpayable",
      "type": "function"
    },
    {
      "inputs": [
        {
          "internalType": "bool",
          "name": "enabled",
          "type": "bool"
        }
      ],
      "name": "_toggleAutoImplementations",
      "outputs": [
        {
          "internalType": "uint256",
          "name": "",
          "type": "uint256"
        }
      ],
      "stateMutability": "nonpayable",
      "type": "function"
    },
    {
      "inputs": [
        {
          "internalType": "address",
          "name": "",
          "type": "address"
        },
        {
          "internalType": "uint256",
          "name": "",
          "type": "uint256"
        }
      ],
      "name": "accountAssets",
      "outputs": [
        {
          "internalType": "contract CTokenInterface",
          "name": "",
          "type": "address"
        }
      ],
      "stateMutability": "view",
      "type": "function"
    },
    {
      "inputs": [],
      "name": "admin",
      "outputs": [
        {
          "internalType": "address",
          "name": "",
          "type": "address"
        }
      ],
      "stateMutability": "view",
      "type": "function"
    },
    {
      "inputs": [],
      "name": "adminHasRights",
      "outputs": [
        {
          "internalType": "bool",
          "name": "",
          "type": "bool"
        }
      ],
      "stateMutability": "view",
      "type": "function"
    },
    {
      "inputs": [
        {
          "internalType": "uint256",
          "name": "",
          "type": "uint256"
        }
      ],
      "name": "allBorrowers",
      "outputs": [
        {
          "internalType": "address",
          "name": "",
          "type": "address"
        }
      ],
      "stateMutability": "view",
      "type": "function"
    },
    {
      "inputs": [
        {
          "internalType": "uint256",
          "name": "",
          "type": "uint256"
        }
      ],
      "name": "allMarkets",
      "outputs": [
        {
          "internalType": "contract CTokenInterface",
          "name": "",
          "type": "address"
        }
      ],
      "stateMutability": "view",
      "type": "function"
    },
    {
      "inputs": [],
      "name": "asComptrollerFirstExtension",
      "outputs": [
        {
          "internalType": "contract ComptrollerFirstExtension",
          "name": "",
          "type": "address"
        }
      ],
      "stateMutability": "view",
      "type": "function"
    },
    {
      "inputs": [],
      "name": "autoImplementation",
      "outputs": [
        {
          "internalType": "bool",
          "name": "",
          "type": "bool"
        }
      ],
      "stateMutability": "view",
      "type": "function"
    },
    {
      "inputs": [
        {
          "internalType": "address",
          "name": "cToken",
          "type": "address"
        },
        {
          "internalType": "address",
          "name": "borrower",
          "type": "address"
        },
        {
          "internalType": "uint256",
          "name": "borrowAmount",
          "type": "uint256"
        }
      ],
      "name": "borrowAllowed",
      "outputs": [
        {
          "internalType": "uint256",
          "name": "",
          "type": "uint256"
        }
      ],
      "stateMutability": "nonpayable",
      "type": "function"
    },
    {
      "inputs": [
        {
          "internalType": "address",
          "name": "",
          "type": "address"
        },
        {
          "internalType": "address",
          "name": "",
          "type": "address"
        }
      ],
      "name": "borrowCapForCollateral",
      "outputs": [
        {
          "internalType": "uint256",
          "name": "",
          "type": "uint256"
        }
      ],
      "stateMutability": "view",
      "type": "function"
    },
    {
      "inputs": [],
      "name": "borrowCapGuardian",
      "outputs": [
        {
          "internalType": "address",
          "name": "",
          "type": "address"
        }
      ],
      "stateMutability": "view",
      "type": "function"
    },
    {
      "inputs": [
        {
          "internalType": "address",
          "name": "",
          "type": "address"
        }
      ],
      "name": "borrowCaps",
      "outputs": [
        {
          "internalType": "uint256",
          "name": "",
          "type": "uint256"
        }
      ],
      "stateMutability": "view",
      "type": "function"
    },
    {
      "inputs": [
        {
          "internalType": "address",
          "name": "",
          "type": "address"
        }
      ],
      "name": "borrowGuardianPaused",
      "outputs": [
        {
          "internalType": "bool",
          "name": "",
          "type": "bool"
        }
      ],
      "stateMutability": "view",
      "type": "function"
    },
    {
      "inputs": [
        {
          "internalType": "address",
          "name": "cToken",
          "type": "address"
        },
        {
          "internalType": "uint256",
          "name": "accountBorrowsNew",
          "type": "uint256"
        }
      ],
      "name": "borrowWithinLimits",
      "outputs": [
        {
          "internalType": "uint256",
          "name": "",
          "type": "uint256"
        }
      ],
      "stateMutability": "view",
      "type": "function"
    },
    {
      "inputs": [
        {
          "internalType": "address",
          "name": "",
          "type": "address"
        },
        {
          "internalType": "address",
          "name": "",
          "type": "address"
        }
      ],
      "name": "borrowingAgainstCollateralBlacklist",
      "outputs": [
        {
          "internalType": "bool",
          "name": "",
          "type": "bool"
        }
      ],
      "stateMutability": "view",
      "type": "function"
    },
    {
      "inputs": [
        {
          "internalType": "address",
          "name": "",
          "type": "address"
        }
      ],
      "name": "cTokensByUnderlying",
      "outputs": [
        {
          "internalType": "contract CTokenInterface",
          "name": "",
          "type": "address"
        }
      ],
      "stateMutability": "view",
      "type": "function"
    },
    {
      "inputs": [
        {
          "internalType": "address",
          "name": "account",
          "type": "address"
        },
        {
          "internalType": "contract CTokenInterface",
          "name": "cToken",
          "type": "address"
        }
      ],
      "name": "checkMembership",
      "outputs": [
        {
          "internalType": "bool",
          "name": "",
          "type": "bool"
        }
      ],
      "stateMutability": "view",
      "type": "function"
    },
    {
      "inputs": [],
      "name": "closeFactorMantissa",
      "outputs": [
        {
          "internalType": "uint256",
          "name": "",
          "type": "uint256"
        }
      ],
      "stateMutability": "view",
      "type": "function"
    },
    {
      "inputs": [],
      "name": "comptrollerImplementation",
      "outputs": [
        {
          "internalType": "address",
          "name": "",
          "type": "address"
        }
      ],
      "stateMutability": "view",
      "type": "function"
    },
    {
      "inputs": [],
      "name": "enforceWhitelist",
      "outputs": [
        {
          "internalType": "bool",
          "name": "",
          "type": "bool"
        }
      ],
      "stateMutability": "view",
      "type": "function"
    },
    {
      "inputs": [
        {
          "internalType": "address[]",
          "name": "cTokens",
          "type": "address[]"
        }
      ],
      "name": "enterMarkets",
      "outputs": [
        {
          "internalType": "uint256[]",
          "name": "",
          "type": "uint256[]"
        }
      ],
      "stateMutability": "nonpayable",
      "type": "function"
    },
    {
      "inputs": [
        {
          "internalType": "address",
          "name": "cTokenAddress",
          "type": "address"
        }
      ],
      "name": "exitMarket",
      "outputs": [
        {
          "internalType": "uint256",
          "name": "",
          "type": "uint256"
        }
      ],
      "stateMutability": "nonpayable",
      "type": "function"
    },
    {
      "inputs": [],
      "name": "fuseAdmin",
      "outputs": [
        {
          "internalType": "address payable",
          "name": "",
          "type": "address"
        }
      ],
      "stateMutability": "view",
      "type": "function"
    },
    {
      "inputs": [],
      "name": "fuseAdminHasRights",
      "outputs": [
        {
          "internalType": "bool",
          "name": "",
          "type": "bool"
        }
      ],
      "stateMutability": "view",
      "type": "function"
    },
    {
      "inputs": [
        {
          "internalType": "address",
          "name": "account",
          "type": "address"
        }
      ],
      "name": "getAccountLiquidity",
      "outputs": [
        {
          "internalType": "uint256",
          "name": "",
          "type": "uint256"
        },
        {
          "internalType": "uint256",
          "name": "",
          "type": "uint256"
        },
        {
          "internalType": "uint256",
          "name": "",
          "type": "uint256"
        }
      ],
      "stateMutability": "view",
      "type": "function"
    },
    {
      "inputs": [
        {
          "internalType": "address",
          "name": "account",
          "type": "address"
        }
      ],
      "name": "getAssetsIn",
      "outputs": [
        {
          "internalType": "contract CTokenInterface[]",
          "name": "",
          "type": "address[]"
        }
      ],
      "stateMutability": "view",
      "type": "function"
    },
    {
      "inputs": [
        {
          "internalType": "address",
          "name": "account",
          "type": "address"
        },
        {
          "internalType": "address",
          "name": "cTokenModify",
          "type": "address"
        },
        {
          "internalType": "uint256",
          "name": "redeemTokens",
          "type": "uint256"
        },
        {
          "internalType": "uint256",
          "name": "borrowAmount",
          "type": "uint256"
        }
      ],
      "name": "getHypotheticalAccountLiquidity",
      "outputs": [
        {
          "internalType": "uint256",
          "name": "",
          "type": "uint256"
        },
        {
          "internalType": "uint256",
          "name": "",
          "type": "uint256"
        },
        {
          "internalType": "uint256",
          "name": "",
          "type": "uint256"
        }
      ],
      "stateMutability": "view",
      "type": "function"
    },
    {
      "inputs": [
        {
          "internalType": "address",
          "name": "account",
          "type": "address"
        },
        {
          "internalType": "address",
          "name": "cToken",
          "type": "address"
        },
        {
          "internalType": "bool",
          "name": "isBorrow",
          "type": "bool"
        }
      ],
      "name": "getMaxRedeemOrBorrow",
      "outputs": [
        {
          "internalType": "uint256",
          "name": "",
          "type": "uint256"
        }
      ],
      "stateMutability": "nonpayable",
      "type": "function"
    },
    {
      "inputs": [],
      "name": "isComptroller",
      "outputs": [
        {
          "internalType": "bool",
          "name": "",
          "type": "bool"
        }
      ],
      "stateMutability": "view",
      "type": "function"
    },
    {
      "inputs": [
        {
          "internalType": "contract CTokenInterface",
          "name": "cToken",
          "type": "address"
        }
      ],
      "name": "isDeprecated",
      "outputs": [
        {
          "internalType": "bool",
          "name": "",
          "type": "bool"
        }
      ],
      "stateMutability": "view",
      "type": "function"
    },
    {
      "inputs": [
        {
          "internalType": "address",
          "name": "cTokenBorrowed",
          "type": "address"
        },
        {
          "internalType": "address",
          "name": "cTokenCollateral",
          "type": "address"
        },
        {
          "internalType": "address",
          "name": "liquidator",
          "type": "address"
        },
        {
          "internalType": "address",
          "name": "borrower",
          "type": "address"
        },
        {
          "internalType": "uint256",
          "name": "repayAmount",
          "type": "uint256"
        }
      ],
      "name": "liquidateBorrowAllowed",
      "outputs": [
        {
          "internalType": "uint256",
          "name": "",
          "type": "uint256"
        }
      ],
      "stateMutability": "nonpayable",
      "type": "function"
    },
    {
      "inputs": [
        {
          "internalType": "address",
          "name": "cTokenBorrowed",
          "type": "address"
        },
        {
          "internalType": "address",
          "name": "cTokenCollateral",
          "type": "address"
        },
        {
          "internalType": "uint256",
          "name": "actualRepayAmount",
          "type": "uint256"
        }
      ],
      "name": "liquidateCalculateSeizeTokens",
      "outputs": [
        {
          "internalType": "uint256",
          "name": "",
          "type": "uint256"
        },
        {
          "internalType": "uint256",
          "name": "",
          "type": "uint256"
        }
      ],
      "stateMutability": "view",
      "type": "function"
    },
    {
      "inputs": [],
      "name": "liquidationIncentiveMantissa",
      "outputs": [
        {
          "internalType": "uint256",
          "name": "",
          "type": "uint256"
        }
      ],
      "stateMutability": "view",
      "type": "function"
    },
    {
      "inputs": [
        {
          "internalType": "address",
          "name": "",
          "type": "address"
        }
      ],
      "name": "markets",
      "outputs": [
        {
          "internalType": "bool",
          "name": "isListed",
          "type": "bool"
        },
        {
          "internalType": "uint256",
          "name": "collateralFactorMantissa",
          "type": "uint256"
        }
      ],
      "stateMutability": "view",
      "type": "function"
    },
    {
      "inputs": [
        {
          "internalType": "address",
          "name": "cToken",
          "type": "address"
        },
        {
          "internalType": "address",
          "name": "minter",
          "type": "address"
        },
        {
          "internalType": "uint256",
          "name": "mintAmount",
          "type": "uint256"
        }
      ],
      "name": "mintAllowed",
      "outputs": [
        {
          "internalType": "uint256",
          "name": "",
          "type": "uint256"
        }
      ],
      "stateMutability": "nonpayable",
      "type": "function"
    },
    {
      "inputs": [
        {
          "internalType": "address",
          "name": "",
          "type": "address"
        }
      ],
      "name": "mintGuardianPaused",
      "outputs": [
        {
          "internalType": "bool",
          "name": "",
          "type": "bool"
        }
      ],
      "stateMutability": "view",
      "type": "function"
    },
    {
      "inputs": [
        {
          "internalType": "uint256",
          "name": "",
          "type": "uint256"
        }
      ],
      "name": "nonAccruingRewardsDistributors",
      "outputs": [
        {
          "internalType": "address",
          "name": "",
          "type": "address"
        }
      ],
      "stateMutability": "view",
      "type": "function"
    },
    {
      "inputs": [],
      "name": "oracle",
      "outputs": [
        {
          "internalType": "contract PriceOracle",
          "name": "",
          "type": "address"
        }
      ],
      "stateMutability": "view",
      "type": "function"
    },
    {
      "inputs": [],
      "name": "pauseGuardian",
      "outputs": [
        {
          "internalType": "address",
          "name": "",
          "type": "address"
        }
      ],
      "stateMutability": "view",
      "type": "function"
    },
    {
      "inputs": [],
      "name": "pendingAdmin",
      "outputs": [
        {
          "internalType": "address",
          "name": "",
          "type": "address"
        }
      ],
      "stateMutability": "view",
      "type": "function"
    },
    {
      "inputs": [],
      "name": "pendingComptrollerImplementation",
      "outputs": [
        {
          "internalType": "address",
          "name": "",
          "type": "address"
        }
      ],
      "stateMutability": "view",
      "type": "function"
    },
    {
      "inputs": [
        {
          "internalType": "address",
          "name": "cToken",
          "type": "address"
        },
        {
          "internalType": "address",
          "name": "redeemer",
          "type": "address"
        },
        {
          "internalType": "uint256",
          "name": "redeemTokens",
          "type": "uint256"
        }
      ],
      "name": "redeemAllowed",
      "outputs": [
        {
          "internalType": "uint256",
          "name": "",
          "type": "uint256"
        }
      ],
      "stateMutability": "nonpayable",
      "type": "function"
    },
    {
      "inputs": [
        {
          "internalType": "address",
          "name": "cToken",
          "type": "address"
        },
        {
          "internalType": "address",
          "name": "redeemer",
          "type": "address"
        },
        {
          "internalType": "uint256",
          "name": "redeemAmount",
          "type": "uint256"
        },
        {
          "internalType": "uint256",
          "name": "redeemTokens",
          "type": "uint256"
        }
      ],
      "name": "redeemVerify",
      "outputs": [],
      "stateMutability": "nonpayable",
      "type": "function"
    },
    {
      "inputs": [
        {
          "internalType": "address",
          "name": "cToken",
          "type": "address"
        },
        {
          "internalType": "address",
          "name": "payer",
          "type": "address"
        },
        {
          "internalType": "address",
          "name": "borrower",
          "type": "address"
        },
        {
          "internalType": "uint256",
          "name": "repayAmount",
          "type": "uint256"
        }
      ],
      "name": "repayBorrowAllowed",
      "outputs": [
        {
          "internalType": "uint256",
          "name": "",
          "type": "uint256"
        }
      ],
      "stateMutability": "nonpayable",
      "type": "function"
    },
    {
      "inputs": [
        {
          "internalType": "uint256",
          "name": "",
          "type": "uint256"
        }
      ],
      "name": "rewardsDistributors",
      "outputs": [
        {
          "internalType": "address",
          "name": "",
          "type": "address"
        }
      ],
      "stateMutability": "view",
      "type": "function"
    },
    {
      "inputs": [
        {
          "internalType": "address",
          "name": "cTokenCollateral",
          "type": "address"
        },
        {
          "internalType": "address",
          "name": "cTokenBorrowed",
          "type": "address"
        },
        {
          "internalType": "address",
          "name": "liquidator",
          "type": "address"
        },
        {
          "internalType": "address",
          "name": "borrower",
          "type": "address"
        },
        {
          "internalType": "uint256",
          "name": "seizeTokens",
          "type": "uint256"
        }
      ],
      "name": "seizeAllowed",
      "outputs": [
        {
          "internalType": "uint256",
          "name": "",
          "type": "uint256"
        }
      ],
      "stateMutability": "nonpayable",
      "type": "function"
    },
    {
      "inputs": [],
      "name": "seizeGuardianPaused",
      "outputs": [
        {
          "internalType": "bool",
          "name": "",
          "type": "bool"
        }
      ],
      "stateMutability": "view",
      "type": "function"
    },
    {
      "inputs": [
        {
          "internalType": "address",
          "name": "",
          "type": "address"
        }
      ],
      "name": "suppliers",
      "outputs": [
        {
          "internalType": "bool",
          "name": "",
          "type": "bool"
        }
      ],
      "stateMutability": "view",
      "type": "function"
    },
    {
      "inputs": [
        {
          "internalType": "address",
          "name": "",
          "type": "address"
        }
      ],
      "name": "supplyCaps",
      "outputs": [
        {
          "internalType": "uint256",
          "name": "",
          "type": "uint256"
        }
      ],
      "stateMutability": "view",
      "type": "function"
    },
    {
      "inputs": [
        {
          "internalType": "address",
          "name": "cToken",
          "type": "address"
        },
        {
          "internalType": "address",
          "name": "src",
          "type": "address"
        },
        {
          "internalType": "address",
          "name": "dst",
          "type": "address"
        },
        {
          "internalType": "uint256",
          "name": "transferTokens",
          "type": "uint256"
        }
      ],
      "name": "transferAllowed",
      "outputs": [
        {
          "internalType": "uint256",
          "name": "",
          "type": "uint256"
        }
      ],
      "stateMutability": "nonpayable",
      "type": "function"
    },
    {
      "inputs": [],
      "name": "transferGuardianPaused",
      "outputs": [
        {
          "internalType": "bool",
          "name": "",
          "type": "bool"
        }
      ],
      "stateMutability": "view",
      "type": "function"
    },
    {
      "inputs": [
        {
          "internalType": "address",
          "name": "",
          "type": "address"
        }
      ],
      "name": "whitelist",
      "outputs": [
        {
          "internalType": "bool",
          "name": "",
          "type": "bool"
        }
      ],
      "stateMutability": "view",
      "type": "function"
    },
    {
      "inputs": [
        {
          "internalType": "uint256",
          "name": "",
          "type": "uint256"
        }
      ],
      "name": "whitelistArray",
      "outputs": [
        {
          "internalType": "address",
          "name": "",
          "type": "address"
        }
      ],
      "stateMutability": "view",
      "type": "function"
    }
  ],
  "transactionHash": "0x270508836092530c5ff09669cf0b37254db1ab716c8d9a99dd5109ce68249c43",
  "args": [
    "0xFc1f56C58286E7215701A773b61bFf2e18A177dE"
  ],
  "numDeployments": 26,
  "bytecode": {
    "object": "0x60806040526002805461ffff60a01b191661010160a01b1790553480156200002657600080fd5b5060405162005a4138038062005a4183398101604081905262000049916200006f565b600080546001600160a01b0319166001600160a01b0392909216919091179055620000a1565b6000602082840312156200008257600080fd5b81516001600160a01b03811681146200009a57600080fd5b9392505050565b61599080620000b16000396000f3fe608060405234801561001057600080fd5b50600436106104065760003560e01c8063779b229411610220578063c299823811610130578063dce15449116100b8578063e6653f3d11610087578063e6653f3d14610a76578063e875544614610a8a578063eabe7d9114610a93578063ede4edd014610aa6578063f851a44014610ab957610406565b8063dce1544914610a30578063dcfbc0c714610a43578063dd5cd22c14610a56578063e4028eee14610a6357610406565b8063c90c20b1116100ff578063c90c20b1146109dc578063d02f7351146109e4578063d251fefc146109f7578063d533316614610a0a578063da3d454c14610a1d57610406565b8063c29982381461096e578063c488847b1461098e578063c6c5b0dd146109b6578063c8c9c975146109c957610406565b8063952adf5a116101b3578063ac0b0bb711610182578063ac0b0bb714610914578063b095721014610928578063b9b5b15314610935578063bb82aa5e14610948578063bdcdc2581461095b57610406565b8063952adf5a146108b85780639b19251a146108cb578063aba35b98146108ee578063abfceffc1461090157610406565b80638e8f294b116101ef5780638e8f294b146107f5578063929fe9a114610839578063940cd6f11461087a57806394543c15146108a557610406565b8063779b2294146107a85780637dc0d1d0146107bb57806387f76303146107ce57806389cd9855146107e257610406565b80634a5844321161031b5780635d72de62116102ae5780636333d0011161027d5780636333d001146107275780636bd02b8a1461073c5780636d154ea51461074f578063731f0c2b146107725780637515bafa1461079557610406565b80635d72de62146106f15780635ec88c79146106f95780635fc7e71e1461070c578063632e51421461071f57610406565b80634fd42e17116102ea5780634fd42e17146106a557806351dff989146106b857806352d84d1e146106cb57806355ee1fe1146106de57610406565b80634a5844321461063b5780634ada90af1461065b5780634e79238f146106645780634ef4c3e11461069257610406565b80631d504dc61161039e578063267822471161036d57806326782247146105c45780632f1069ba146105d7578063317b0b77146105eb57806331ff47fa146105fe5780633c94786f1461062757610406565b80631d504dc61461057157806321af45691461058657806324008a621461059e57806324a3d622146105b157610406565b806316dc15fe116103da57806316dc15fe146105075780631976828e1461052a5780631ace59571461053d5780631c819e431461054357610406565b80627e3dd21461047d57806302c3bcbb1461049a5780630a755ec2146104c857806315761d51146104dc575b600061041d6000356001600160e01b031916610acc565b90506001600160a01b03811661045957604051630a82dd7360e31b81526001600160e01b03196000351660048201526024015b60405180910390fd5b3660008037600080366000845af43d6000803e808015610478573d6000f35b3d6000fd5b610485600181565b60405190151581526020015b60405180910390f35b6104ba6104a83660046150e2565b601a6020526000908152604090205481565b604051908152602001610491565b60025461048590600160a81b900460ff1681565b6000546104ef906001600160a01b031681565b6040516001600160a01b039091168152602001610491565b6104856105153660046150e2565b600f6020526000908152604090205460ff1681565b6104ba61053836600461510d565b610b2f565b306104ef565b610485610551366004615158565b601f60209081526000928352604080842090915290825290205460ff1681565b61058461057f3660046150e2565b610d7e565b005b6018546104ef9061010090046001600160a01b031681565b6104ba6105ac366004615191565b61101c565b6015546104ef906001600160a01b031681565b6002546104ef906001600160a01b031681565b60025461048590600160a01b900460ff1681565b6104ba6105f93660046151e2565b61105e565b6104ef61060c3660046150e2565b6010602052600090815260409020546001600160a01b031681565b60155461048590600160a01b900460ff1681565b6104ba6106493660046150e2565b60196020526000908152604090205481565b6104ba60075481565b6106776106723660046151fb565b611138565b60408051938452602084019290925290820152606001610491565b6104ba6106a0366004615241565b611178565b6104ba6106b33660046151e2565b611534565b6105846106c63660046151fb565b6115f0565b6104ef6106d93660046151e2565b611682565b6104ba6106ec3660046150e2565b6116ac565b61058461172c565b6106776107073660046150e2565b6118a0565b6104ba61071a366004615282565b6118db565b610584611a8c565b61072f611afa565b60405161049191906152e6565b6104ef61074a3660046151e2565b611b09565b61048561075d3660046150e2565b60176020526000908152604090205460ff1681565b6104856107803660046150e2565b60166020526000908152604090205460ff1681565b6104ef6107a33660046151e2565b611b19565b6104ba6107b6366004615333565b611b29565b6005546104ef906001600160a01b031681565b60155461048590600160b01b900460ff1681565b6105846107f0366004615158565b611c84565b6108226108033660046150e2565b600a602052600090815260409020805460019091015460ff9091169082565b604080519215158352602083019190915201610491565b610485610847366004615158565b6001600160a01b038082166000908152600a60209081526040808320938616835260029093019052205460ff1692915050565b6104ba610888366004615158565b601e60209081526000928352604080842090915290825290205481565b6104856108b33660046150e2565b611cfd565b6104ba6108c636600461535f565b611e67565b6104856108d93660046150e2565b60126020526000908152604090205460ff1681565b6104ba6108fc36600461537c565b611ee5565b61072f61090f3660046150e2565b611fdb565b60155461048590600160b81b900460ff1681565b6011546104859060ff1681565b6104ba6109433660046150e2565b612051565b6003546104ef906001600160a01b031681565b6104ba610969366004615191565b612214565b61098161097c366004615472565b612297565b6040516104919190615506565b6109a161099c366004615241565b61235f565b60408051928352602083019190915201610491565b6104ef6109c43660046151e2565b6126ec565b6104ba6109d7366004615583565b6126fc565b6105846129a3565b6104ba6109f2366004615282565b612a4d565b6104ef610a053660046151e2565b612bd4565b6104ba610a1836600461535f565b612be4565b6104ba610a2b366004615241565b612c57565b6104ef610a3e366004615333565b612fe6565b6004546104ef906001600160a01b031681565b6018546104859060ff1681565b6104ba610a71366004615333565b61301e565b60155461048590600160a81b900460ff1681565b6104ba60065481565b6104ba610aa1366004615241565b6131a8565b6104ba610ab43660046150e2565b6131c5565b6001546104ef906001600160a01b031681565b6001600160e01b031981166000908152600080516020615964833981519152602081905260408220546001600160a01b031680610b2857604051631f3f429960e31b81526001600160e01b031985166004820152602401610450565b9392505050565b6000808390506000816001600160a01b0316639f5ef2726040518163ffffffff1660e01b8152600401602060405180830381865afa158015610b75573d6000803e3d6000fd5b505050506040513d601f19601f82011682018060405250810190610b9991906155ef565b604051633af9e66960e01b81526001600160a01b0388811660048301529190911690633af9e669906024016020604051808303816000875af1158015610be3573d6000803e3d6000fd5b505050506040513d601f19601f82011682018060405250810190610c07919061560c565b90506000806000610c288988610c1e576000610c20565b865b600080613628565b919450925090506000836014811115610c4357610c43615625565b14610c7d5760405162461bcd60e51b815260206004820152600a602482015269216c697175696469747960b01b6044820152606401610450565b8015610c9157600095505050505050610b28565b600087158015610ccb57506001600160a01b03808a166000908152600a60209081526040808320938e16835260029093019052205460ff16155b15610cd7575083610cf9565b610ce283878a613acf565b905087158015610cf157508085105b15610cf95750835b6000866001600160a01b0316633b1d21a26040518163ffffffff1660e01b8152600401602060405180830381865afa158015610d39573d6000803e3d6000fd5b505050506040513d601f19601f82011682018060405250810190610d5d919061560c565b905080821115610d6d5780610d6f565b815b9b9a5050505050505050505050565b6000546001600160a01b031633148015610df55750806001600160a01b0316632f1069ba6040518163ffffffff1660e01b8152600401602060405180830381865afa158015610dd1573d6000803e3d6000fd5b505050506040513d601f19601f82011682018060405250810190610df5919061563b565b80610eda5750806001600160a01b031663f851a4406040518163ffffffff1660e01b8152600401602060405180830381865afa158015610e39573d6000803e3d6000fd5b505050506040513d601f19601f82011682018060405250810190610e5d91906155ef565b6001600160a01b0316336001600160a01b0316148015610eda5750806001600160a01b0316630a755ec26040518163ffffffff1660e01b8152600401602060405180830381865afa158015610eb6573d6000803e3d6000fd5b505050506040513d601f19601f82011682018060405250810190610eda919061563b565b610f0f5760405162461bcd60e51b815260206004820152600660248201526510b0b236b4b760d11b6044820152606401610450565b6000816001600160a01b031663c1e803346040518163ffffffff1660e01b81526004016020604051808303816000875af1158015610f51573d6000803e3d6000fd5b505050506040513d601f19601f82011682018060405250810190610f75919061560c565b90508015610fc55760405162461bcd60e51b815260206004820181905260248201527f21756e617574686f72697a6564202d206e6f742070656e64696e6720696d706c6044820152606401610450565b816001600160a01b0316635d72de626040518163ffffffff1660e01b8152600401600060405180830381600087803b15801561100057600080fd5b505af1158015611014573d6000803e3d6000fd5b505050505050565b6001600160a01b0384166000908152600a602052604081205460ff166110465760085b9050611056565b6110508584613be8565b60005b90505b949350505050565b6000611068613c90565b61107e5761107860016007613ce2565b92915050565b6040805160208082018352848252825190810190925266b1a2bc2ec500008083528151919291116110b55761105660056008613ce2565b6040805160208101909152670c7d713b49da0000808252835111156110e9576110e060056008613ce2565b95945050505050565b600680549086905560408051828152602081018890527f3b9670cf975d26958e754b57098eaa2ac914d8d2a31b83257997b9f346110fd991015b60405180910390a160005b9695505050505050565b60008060008060008061114d8a8a8a8a613628565b92509250925082601481111561116557611165615625565b95509093509150505b9450945094915050565b6001600160a01b03831660009081526016602052604081205460ff16156111d05760405162461bcd60e51b815260206004820152600c60248201526b085b5a5b9d0e9c185d5cd95960a21b6044820152606401610450565b6001600160a01b0384166000908152600a602052604090205460ff166111fa5760085b9050610b28565b60115460ff16801561122557506001600160a01b03831660009081526012602052604090205460ff16155b156112315760116111f3565b6001600160a01b0384166000908152601a6020526040902054801561151f576000856001600160a01b0316633b1d21a26040518163ffffffff1660e01b8152600401602060405180830381865afa158015611290573d6000803e3d6000fd5b505050506040513d601f19601f820116820180604052508101906112b4919061560c565b90506000866001600160a01b03166347bd37186040518163ffffffff1660e01b8152600401602060405180830381865afa1580156112f6573d6000803e3d6000fd5b505050506040513d601f19601f8201168201806040525081019061131a919061560c565b90506000876001600160a01b0316638f840ddd6040518163ffffffff1660e01b8152600401602060405180830381865afa15801561135c573d6000803e3d6000fd5b505050506040513d601f19601f82011682018060405250810190611380919061560c565b90506000886001600160a01b031663dc028ab16040518163ffffffff1660e01b8152600401602060405180830381865afa1580156113c2573d6000803e3d6000fd5b505050506040513d601f19601f820116820180604052508101906113e6919061560c565b90506000896001600160a01b03166361feacff6040518163ffffffff1660e01b8152600401602060405180830381865afa158015611428573d6000803e3d6000fd5b505050506040513d601f19601f8201168201806040525081019061144c919061560c565b905060008061146e87876114696114638989613d5b565b87613d5b565b613d91565b9092509050600082600381111561148757611487615625565b1461149d57600a98505050505050505050610b28565b60006114a9828c613de3565b909350905060008360038111156114c2576114c2615625565b146114d957600a9950505050505050505050610b28565b8881106115165760405162461bcd60e51b815260206004820152600b60248201526a021737570706c79206361760ac1b6044820152606401610450565b50505050505050505b6115298585613e0c565b600095945050505050565b600061153e613c90565b61154e576110786001600d613ce2565b60408051602080820183528482528251908101909252670de0b6b3a764000080835281519192911015611587576110566007600e613ce2565b60408051602081019091526714d1120d7b160000808252835111156115b2576110e06007600e613ce2565b600780549086905560408051828152602081018890527faeba5a6c40a8ac138134bff1aaa65debf25971188a58804bad717f82f0ec13169101611123565b336000908152600a602052604090205460ff166116395760405162461bcd60e51b8152602060048201526007602482015266085b585c9ad95d60ca1b6044820152606401610450565b801580156116475750600082115b1561167c5760405162461bcd60e51b8152602060048201526005602482015264217a65726f60d81b6044820152606401610450565b50505050565b600b818154811061169257600080fd5b6000918252602090912001546001600160a01b0316905081565b60006116b6613c90565b6116c65761107860016012613ce2565b600580546001600160a01b038481166001600160a01b031983168117909355604080519190921680825260208201939093527fd52b2b9b7e9ee655fcb95d2e5b9e0c9f69e7ef2b8e9d2d0ea78402d576d22e22910160405180910390a160009392505050565b6003546001600160a01b031633146117785760405162461bcd60e51b815260206004820152600f60248201526e10b4b6b83632b6b2b73a30ba34b7b760891b6044820152606401610450565b6000611782613eae565b905060005b81518110156117c4576117b28282815181106117a5576117a5615658565b6020026020010151613f20565b806117bc81615684565b915050611787565b5060008054600354604051631978a0bf60e31b81526001600160a01b03918216600482015291169063cbc505f890602401600060405180830381865afa158015611812573d6000803e3d6000fd5b505050506040513d6000823e601f3d908101601f1916820160405261183a919081019061569f565b905060005b815181101561187c5761186a82828151811061185d5761185d615658565b6020026020010151614050565b8061187481615684565b91505061183f565b50601c54610100900460ff1661189c57601c805461ffff19166101011790555b5050565b6000806000806000806118b7876000806000613628565b9250925092508260148111156118cf576118cf615625565b97919650945092505050565b6001600160a01b0385166000908152600a602052604081205460ff16158061191c57506001600160a01b0385166000908152600a602052604090205460ff16155b1561192b5760085b90506110e0565b6040516395dd919360e01b81526001600160a01b038481166004830152600091908816906395dd919390602401602060405180830381865afa158015611975573d6000803e3d6000fd5b505050506040513d601f19601f82011682018060405250810190611999919061560c565b90506119a487611cfd565b156119ee57828110156119e95760405162461bcd60e51b815260206004820152600d60248201526c21626f72726f773e726570617960981b6044820152606401610450565b611a7f565b6000806119ff866000806000613628565b91935090915060009050826014811115611a1b57611a1b615625565b14611a3c57816014811115611a3257611a32615625565b93505050506110e0565b80611a48576003611a32565b6000611a64604051806020016040528060065481525085614148565b905080861115611a7b5760109450505050506110e0565b5050505b5060009695505050505050565b336000908152600a602052604090205460ff16611aeb5760405162461bcd60e51b815260206004820152601f60248201527f21436f6d7074726f6c6c65723a5f61667465724e6f6e5265656e7472616e74006044820152606401610450565b601c805460ff19166001179055565b6060611b04613eae565b905090565b601d818154811061169257600080fd5b600d818154811061169257600080fd5b600080546040805163fdb25fb160e01b8152905183926001600160a01b03169163fdb25fb19160048083019260209291908290030181865afa158015611b73573d6000803e3d6000fd5b505050506040513d601f19601f82011682018060405250810190611b97919061560c565b90508015611c7a5760055460405163fc57d4df60e01b81526001600160a01b038681166004830152600092169063fc57d4df90602401602060405180830381865afa158015611bea573d6000803e3d6000fd5b505050506040513d601f19601f82011682018060405250810190611c0e919061560c565b905080611c2057600c92505050611078565b600080611c3b60405180602001604052808581525087614160565b90925090506000826003811115611c5457611c54615625565b14611c6757600a5b945050505050611078565b83811015611c76576012611c5c565b5050505b6000949350505050565b6000546001600160a01b031633148015611ca75750600254600160a01b900460ff165b611cf35760405162461bcd60e51b815260206004820152601f60248201527f21756e617574686f72697a6564202d206e6f2061646d696e20726967687473006044820152606401610450565b61189c82826141b2565b6001600160a01b0381166000908152600a6020526040812060010154158015611d4357506001600160a01b03821660009081526017602052604090205460ff1615156001145b80156110785750611e57611e19836001600160a01b031663173b99046040518163ffffffff1660e01b8152600401602060405180830381865afa158015611d8e573d6000803e3d6000fd5b505050506040513d601f19601f82011682018060405250810190611db2919061560c565b846001600160a01b0316638d02d9a16040518163ffffffff1660e01b8152600401602060405180830381865afa158015611df0573d6000803e3d6000fd5b505050506040513d601f19601f82011682018060405250810190611e14919061560c565b613d5b565b836001600160a01b031663dbfe7c196040518163ffffffff1660e01b8152600401602060405180830381865afa158015611df0573d6000803e3d6000fd5b670de0b6b3a76400001492915050565b6000611e71613c90565b611e815761107860016013613ce2565b60115460ff1615158215151415611e99576000611078565b6011805460ff19168315159081179091556040519081527f84c7d948374a180eddab35d27d2f7a94167a1ff4e79467f1e89c061984190a1e906020015b60405180910390a16000611078565b6000611eef613c90565b611eff5761103f60016016613ce2565b60028054600160a01b60ff60a01b198216811790925560008054604051638754e4fd60e01b81529390920460ff169290916001600160a01b031690638754e4fd90611f50908990899060040161572e565b6020604051808303816000875af1158015611f6f573d6000803e3d6000fd5b505050506040513d601f19601f82011682018060405250810190611f9391906155ef565b6002805460ff60a01b1916600160a01b8515150217905590506000611fb7826141d3565b90508015611fc55780611fcf565b611fcf828661301e565b98975050505050505050565b6001600160a01b038116600090815260096020908152604080832080548251818502810185019093528083526060949383018282801561204457602002820191906000526020600020905b81546001600160a01b03168152600190910190602001808311612026575b5093979650505050505050565b600061205b613c90565b61206b5761107860016002613ce2565b816001600160a01b031663abc6d72d6040518163ffffffff1660e01b81526004016020604051808303816000875af11580156120ab573d6000803e3d6000fd5b505050506040513d601f19601f820116820180604052508101906120cf919061563b565b6121135760405162461bcd60e51b815260206004820152601560248201527410b4b9a932bbb0b93239a234b9ba3934b13aba37b960591b6044820152606401610450565b60005b601b5481101561219557601b818154811061213357612133615658565b6000918252602090912001546001600160a01b03848116911614156121835760405162461bcd60e51b815260206004820152600660248201526508585919195960d21b6044820152606401610450565b8061218d81615684565b915050612116565b50601b80546001810182556000919091527f3ad8aa4f87544323a9d1e5dd902f40c356527a7955687113db5f9a85ad579dc10180546001600160a01b0319166001600160a01b0384169081179091556040519081527f98ef1187fb6fd2bc85f8996489877eb2b5428f9e9bdfc068c9ad6c2ea82eacc790602001611ed6565b601554600090600160b01b900460ff16156122645760405162461bcd60e51b815260206004820152601060248201526f085d1c985b9cd9995c8e9c185d5cd95960821b6044820152606401610450565b60006122718686856144bd565b90508015612280579050611056565b61228b8686866145ba565b60009695505050505050565b805160609060008167ffffffffffffffff8111156122b7576122b7615407565b6040519080825280602002602001820160405280156122e0578160200160208202803683370190505b50905060005b8281101561235757600085828151811061230257612302615658565b602002602001015190506123168133614665565b601481111561232757612327615625565b83838151811061233957612339615658565b6020908102919091010152508061234f81615684565b9150506122e6565b509392505050565b60055460405163fc57d4df60e01b81526001600160a01b038581166004830152600092839283929091169063fc57d4df90602401602060405180830381865afa1580156123b0573d6000803e3d6000fd5b505050506040513d601f19601f820116820180604052508101906123d4919061560c565b60055460405163fc57d4df60e01b81526001600160a01b0388811660048301529293506000929091169063fc57d4df90602401602060405180830381865afa158015612424573d6000803e3d6000fd5b505050506040513d601f19601f82011682018060405250810190612448919061560c565b9050811580612455575080155b1561246957600c60009350935050506126e4565b60008690506000816001600160a01b0316639f5ef2726040518163ffffffff1660e01b8152600401602060405180830381865afa1580156124ae573d6000803e3d6000fd5b505050506040513d601f19601f820116820180604052508101906124d291906155ef565b6001600160a01b031663182df0f56040518163ffffffff1660e01b8152600401602060405180830381865afa15801561250f573d6000803e3d6000fd5b505050506040513d601f19601f82011682018060405250810190612533919061560c565b9050600061254d6040518060200160405280600081525090565b6040805160208101909152600081526040805160208101909152600081526000866001600160a01b0316636752e7026040518163ffffffff1660e01b8152600401602060405180830381865afa1580156125ab573d6000803e3d6000fd5b505050506040513d601f19601f820116820180604052508101906125cf919061560c565b90506000876001600160a01b031663be99f1196040518163ffffffff1660e01b8152600401602060405180830381865afa158015612611573d6000803e3d6000fd5b505050506040513d601f19601f82011682018060405250810190612635919061560c565b905060006126786126646040518060200160405280600754815250604051806020016040528087815250614800565b604051806020016040528085815250614800565b90506126928160405180602001604052808e815250614835565b95506126ba60405180602001604052808c81525060405180602001604052808b815250614835565b94506126c68686614874565b93506126d2848f614148565b60009d509b5050505050505050505050505b935093915050565b601b818154811061169257600080fd5b6000612706613c90565b6127165761103f60016014613ce2565b60005b8481101561299b57600086868381811061273557612735615658565b905060200201602081019061274a91906150e2565b905084848381811061275e5761275e615658565b9050602002016020810190612773919061535f565b1561282b576001600160a01b03811660009081526012602052604090205460ff16612826576001600160a01b0381166000818152601260205260408120805460ff19166001908117909155601380548083018255928190527f66de8ffda797e3de9c05e8fc57b3bf0ec28a930d40b0d285d93c06501cf6a09090920180546001600160a01b0319169093179092555461280c919061575d565b6001600160a01b0382166000908152601460205260409020555b612988565b6001600160a01b03811660009081526012602052604090205460ff1615612988576013805461285c9060019061575d565b8154811061286c5761286c615658565b60009182526020808320909101546001600160a01b03848116845260149092526040909220546013805492909316929181106128aa576128aa615658565b9060005260206000200160006101000a8154816001600160a01b0302191690836001600160a01b0316021790555060138054806128e9576128e9615774565b60008281526020808220830160001990810180546001600160a01b03191690559092019092556001600160a01b03831682526014908190526040822054601380549193918490811061293d5761293d615658565b60009182526020808320909101546001600160a01b039081168452838201949094526040928301822094909455918416825260148352808220829055601290925220805460ff191690555b508061299381615684565b915050612719565b506000611053565b336000908152600a602052604090205460ff16612a025760405162461bcd60e51b815260206004820181905260248201527f21436f6d7074726f6c6c65723a5f6265666f72654e6f6e5265656e7472616e746044820152606401610450565b601c5460ff16612a415760405162461bcd60e51b815260206004820152600a602482015269085c99595b9d195c995960b21b6044820152606401610450565b601c805460ff19169055565b601554600090600160b81b900460ff1615612a9a5760405162461bcd60e51b815260206004820152600d60248201526c085cd95a5e994e9c185d5cd959609a1b6044820152606401610450565b6001600160a01b0386166000908152600a602052604090205460ff161580612adb57506001600160a01b0385166000908152600a602052604090205460ff16155b15612ae7576008611924565b846001600160a01b0316635fe3b5676040518163ffffffff1660e01b8152600401602060405180830381865afa158015612b25573d6000803e3d6000fd5b505050506040513d601f19601f82011682018060405250810190612b4991906155ef565b6001600160a01b0316866001600160a01b0316635fe3b5676040518163ffffffff1660e01b8152600401602060405180830381865afa158015612b90573d6000803e3d6000fd5b505050506040513d601f19601f82011682018060405250810190612bb491906155ef565b6001600160a01b031614612bc9576002611924565b61228b8684866145ba565b6013818154811061169257600080fd5b6000612bee613c90565b612bfe5761107860016006613ce2565b60185460ff1615158215151415612c16576000611078565b6018805460ff19168315159081179091556040519081527faa40ee94af55250363b91641a0a615c47690148901505f89b01dafae03fff28190602001611ed6565b6001600160a01b03831660009081526017602052604081205460ff1615612cb15760405162461bcd60e51b815260206004820152600e60248201526d08589bdc9c9bddce9c185d5cd95960921b6044820152606401610450565b6001600160a01b0384166000908152600a602052604090205460ff16612cd85760086111f3565b6001600160a01b038085166000908152600a60209081526040808320938716835260029093019052205460ff16612dc757336001600160a01b03851614612d4b5760405162461bcd60e51b815260206004820152600760248201526610b1ba37b5b2b760c91b6044820152606401610450565b6000612d573385614665565b90506000816014811115612d6d57612d6d615625565b14612d8c57806014811115612d8457612d84615625565b915050610b28565b6001600160a01b038086166000908152600a60209081526040808320938816835260029093019052205460ff16612dc557612dc561578a565b505b60055460405163fc57d4df60e01b81526001600160a01b0386811660048301529091169063fc57d4df90602401602060405180830381865afa158015612e11573d6000803e3d6000fd5b505050506040513d601f19601f82011682018060405250810190612e35919061560c565b612e4057600c6111f3565b60115460ff168015612e6b57506001600160a01b03831660009081526012602052604090205460ff16155b15612e775760116111f3565b6001600160a01b0384166000908152601960205260409020548015612f75576000856001600160a01b03166347bd37186040518163ffffffff1660e01b8152600401602060405180830381865afa158015612ed6573d6000803e3d6000fd5b505050506040513d601f19601f82011682018060405250810190612efa919061560c565b9050600080612f098387613de3565b90925090506000826003811115612f2257612f22615625565b14612f3457600a945050505050610b28565b838110612f715760405162461bcd60e51b815260206004820152600b60248201526a021626f72726f773a6361760ac1b6044820152606401610450565b5050505b612f7f8585613be8565b600080612f8f8688600088613628565b91935090915060009050826014811115612fab57612fab615625565b14612fcc57816014811115612fc257612fc2615625565b9350505050610b28565b8015612fd9576004612fc2565b6000979650505050505050565b6009602052816000526040600020818154811061300257600080fd5b6000918252602090912001546001600160a01b03169150829050565b6000613028613c90565b61303f5761303860016009613ce2565b9050611078565b6001600160a01b0383166000908152600a60205260409020805460ff166130745761306c6008600a613ce2565b915050611078565b60408051602080820183528582528251908101909252670c7d713b49da00008252906130a281835190511090565b156130bd576130b36006600b613ce2565b9350505050611078565b8415801590613137575060055460405163fc57d4df60e01b81526001600160a01b0388811660048301529091169063fc57d4df90602401602060405180830381865afa158015613111573d6000803e3d6000fd5b505050506040513d601f19601f82011682018060405250810190613135919061560c565b155b15613147576130b3600c80613ce2565b60018301805490869055604080516001600160a01b0389168152602081018390529081018790527f70483e6592cd5182d45ac970e05bc62cdcc90e9d8ef2c2dbe686cf383bcd7fc59060600160405180910390a16000979650505050505050565b6000806131b68585856144bd565b9050801561151f579050610b28565b6040516361bfb47160e11b815233600482015260009082908290819081906001600160a01b0385169063c37f68e290602401608060405180830381865afa158015613214573d6000803e3d6000fd5b505050506040513d601f19601f8201168201806040525081019061323891906157a0565b509250925092508260001461327d5760405162461bcd60e51b815260206004820152600b60248201526a08595e1a5d13585c9ad95d60aa1b6044820152606401610450565b801561328f5761112e600b6003613ce2565b600061329c8733856144bd565b905080156132bc576132b1600d6004836148ae565b979650505050505050565b6001600160a01b0385166000908152600a60209081526040808320338452600281019092529091205460ff166132fa57600098975050505050505050565b3360009081526002820160209081526040808320805460ff19169055600982528083208054825181850281018501909352808352919290919083018282801561336c57602002820191906000526020600020905b81546001600160a01b0316815260019091019060200180831161334e575b5050835193945083925060009150505b828110156133d157896001600160a01b03168482815181106133a0576133a0615658565b60200260200101516001600160a01b031614156133bf578091506133d1565b806133c981615684565b91505061337c565b508181106133e1576133e161578a565b336000908152600960205260409020805481906134009060019061575d565b8154811061341057613410615658565b9060005260206000200160009054906101000a90046001600160a01b031681838154811061344057613440615658565b9060005260206000200160006101000a8154816001600160a01b0302191690836001600160a01b031602179055508080548061347e5761347e615774565b600082815260209020810160001990810180546001600160a01b031916905501905580546135d557600d80546134b69060019061575d565b815481106134c6576134c6615658565b6000918252602080832090910154338352600e909152604090912054600d80546001600160a01b0390931692909190811061350357613503615658565b9060005260206000200160006101000a8154816001600160a01b0302191690836001600160a01b03160217905550600d80548061354257613542615774565b60008281526020808220830160001990810180546001600160a01b0319169055909201909255338252600e908190526040822054600d80549193918490811061358d5761358d615658565b60009182526020808320909101546001600160a01b03168352828101939093526040918201812093909355338352600e8252808320839055600c9091529020805460ff191690555b604080516001600160a01b038c1681523360208201527fe699a64c18b07ac5b7301aa273f36a2287239eb9501d81950672794afba29a0d910160405180910390a160009c9b505050505050505050505050565b6000806000613635615019565b60006001600160a01b038816156136bb5760055460405163fc57d4df60e01b81526001600160a01b038a811660048301529091169063fc57d4df90602401602060405180830381865afa158015613690573d6000803e3d6000fd5b505050506040513d601f19601f820116820180604052508101906136b4919061560c565b6101608301525b6001600160a01b03891660009081526009602090815260408083208054825181850281018501909352808352919290919083018282801561372557602002820191906000526020600020905b81546001600160a01b03168152600190910190602001808311613707575b5050505050905060005b8151811015613a7957600082828151811061374c5761374c615658565b60209081029190910101516040516361bfb47160e11b81526001600160a01b038e811660048301529192509082169063c37f68e290602401608060405180830381865afa1580156137a1573d6000803e3d6000fd5b505050506040513d601f19601f820116820180604052508101906137c591906157a0565b608089015260608801526040870152935083156137f157600e600080975097509750505050505061116e565b60408051602080820183526001600160a01b038481166000818152600a845285902060010154845260c08a0193909352835191820184526080890151825260e0890191909152600554925163fc57d4df60e01b81526004810192909252919091169063fc57d4df90602401602060405180830381865afa158015613879573d6000803e3d6000fd5b505050506040513d601f19601f8201168201806040525081019061389d919061560c565b60a086018190526138bd57600c600080975097509750505050505061116e565b604080516020810190915260a0860151815261010086015260c085015160e08601516138f7916138ec91614835565b866101000151614835565b6101208601526000196001600160a01b03828116908d1614158061391b575060008b115b15613a01576001600160a01b038c16156139c8576001600160a01b03808d166000908152601f602090815260408083209386168352929052205460ff16801561396757600091506139c6565b6001600160a01b03808e166000908152601e60209081526040808320938716835292905220546101408801819052156139c657670de0b6b3a76400008761016001518861014001516139b991906157d6565b6139c391906157f5565b91505b505b60006139dd8761012001518860400151614148565b9050818111156139ea5750805b80876000018181516139fc9190615817565b905250505b613a1986610100015187606001518860200151614926565b60208701526001600160a01b03828116908d161415613a6457613a468661012001518c8860200151614926565b60208701819052610100870151613a5e918c90614926565b60208701525b50508080613a7190615684565b91505061372f565b50602083015183511115613aaa5760208301518351600091613a9a9161575d565b600095509550955050505061116e565b60008084600001518560200151613ac1919061575d565b95509550955050505061116e565b600083613ade57506000610b28565b60055460405163fc57d4df60e01b81526001600160a01b038581166004830152600092169063fc57d4df90602401602060405180830381865afa158015613b29573d6000803e3d6000fd5b505050506040513d601f19601f82011682018060405250810190613b4d919061560c565b905060008111613b895760405162461bcd60e51b8152602060048201526007602482015266216f7261636c6560c81b6044820152606401610450565b82613bcb576001600160a01b0384166000908152600a6020526040902060010154670de0b6b3a7640000613bbd83836157d6565b613bc791906157f5565b9150505b80613bde86670de0b6b3a76400006157d6565b6110e091906157f5565b60005b601b54811015613c8b57601b8181548110613c0857613c08615658565b600091825260209091200154604051631cdc2c5d60e31b81526001600160a01b03858116600483015284811660248301529091169063e6e162e890604401600060405180830381600087803b158015613c6057600080fd5b505af1158015613c74573d6000803e3d6000fd5b505050508080613c8390615684565b915050613beb565b505050565b6001546000906001600160a01b031633148015613cb65750600254600160a81b900460ff165b80611b0457506000546001600160a01b031633148015611b04575050600254600160a01b900460ff1690565b60007f45b96fe442630264581b197e84bbada861235052c5a1aadfff9ea4e40a969aa0836014811115613d1757613d17615625565b83601a811115613d2957613d29615625565b60408051928352602083019190915260009082015260600160405180910390a1826014811115610b2857610b28615625565b6000610b288383604051806040016040528060118152602001706164646974696f6e206f766572666c6f7760781b815250614947565b600080600080613da18787613de3565b90925090506000826003811115613dba57613dba615625565b14613dcb57509150600090506126e4565b613dd58186614981565b935093505050935093915050565b600080838301848110613dfb57600092509050613e05565b6002600092509250505b9250929050565b60005b601b54811015613c8b57601b8181548110613e2c57613e2c615658565b60009182526020909120015460405162e48b0f60e51b81526001600160a01b038581166004830152848116602483015290911690631c9161e090604401600060405180830381600087803b158015613e8357600080fd5b505af1158015613e97573d6000803e3d6000fd5b505050508080613ea690615684565b915050613e0f565b6060600080516020615964833981519152600201805480602002602001604051908101604052809291908181526020018280548015613f1657602002820191906000526020600020905b81546001600160a01b03168152600190910190602001808311613ef8575b5050505050905090565b600080516020615964833981519152613f38826149ac565b60005b600282015460ff82161015613c8b57826001600160a01b0316826002018260ff1681548110613f6c57613f6c615658565b6000918252602090912001546001600160a01b0316141561403e57600282018054613f999060019061575d565b81548110613fa957613fa9615658565b6000918252602090912001546002830180546001600160a01b039092169160ff8416908110613fda57613fda615658565b9060005260206000200160006101000a8154816001600160a01b0302191690836001600160a01b031602179055508160020180548061401b5761401b615774565b600082815260209020810160001990810180546001600160a01b03191690550190555b806140488161582f565b915050613f3b565b60008051602061596483398151915260005b600282015460ff8216101561410857826001600160a01b0316826002018260ff168154811061409357614093615658565b6000918252602090912001546001600160a01b031614156140f65760405162461bcd60e51b815260206004820152601760248201527f657874656e73696f6e20616c72656164792061646465640000000000000000006044820152606401610450565b806141008161582f565b915050614062565b5061411282614c39565b6002018054600181018255600091825260209091200180546001600160a01b0319166001600160a01b0392909216919091179055565b6000806141558484614e2a565b905061105681614e52565b6000806000806141708686614e6a565b9092509050600082600381111561418957614189615625565b1461419a5750915060009050613e05565b60006141a582614e52565b9350935050509250929050565b6001600160a01b038116156141ca576141ca81613f20565b61189c82614050565b60006141dd613c90565b6141ed5761107860016016613ce2565b6001600160a01b0382166000908152600a602052604090205460ff161561421a5761107860096015613ce2565b816001600160a01b031663fe9c44ae6040518163ffffffff1660e01b81526004016020604051808303816000875af115801561425a573d6000803e3d6000fd5b505050506040513d601f19601f8201168201806040525081019061427e919061563b565b6142bd5760405162461bcd60e51b815260206004820152601060248201526f10b6b0b935b2ba1d34b9b1ba37b5b2b760811b6044820152606401610450565b306001600160a01b0316826001600160a01b0316635fe3b5676040518163ffffffff1660e01b8152600401602060405180830381865afa158015614305573d6000803e3d6000fd5b505050506040513d601f19601f8201168201806040525081019061432991906155ef565b6001600160a01b03161461436e5760405162461bcd60e51b815260206004820152600c60248201526b10b1b7b6b83a3937b63632b960a11b6044820152606401610450565b6000826001600160a01b0316636f307dc36040518163ffffffff1660e01b8152600401602060405180830381865afa1580156143ae573d6000803e3d6000fd5b505050506040513d601f19601f820116820180604052508101906143d291906155ef565b6001600160a01b03808216600090815260106020526040902054919250161561440157610b2860096015613ce2565b6001600160a01b038381166000818152600a60209081526040808320805460ff191660019081178255808201859055600b805491820190557f0175b7a638427703f0dbe7bb9bbf987a2551717b34e79f33b5b1008d1fa01db90180546001600160a01b0319908116871790915595871684526010835292819020805490951684179094559251918252917fcf583bb0c569eb967f806b11601c4cb93c10310485c67add5f8362c2f212321f910160405180910390a16000611056565b60008082856001600160a01b03166318160ddd6040518163ffffffff1660e01b8152600401602060405180830381865afa1580156144ff573d6000803e3d6000fd5b505050506040513d601f19601f82011682018060405250810190614523919061560c565b61452d919061575d565b9050801580159061453f57506103e881105b1561454b57600d612d84565b6001600160a01b0385166000908152600a602052604090205460ff16614572576008612d84565b6001600160a01b038086166000908152600a60209081526040808320938816835260029093019052205460ff166145aa576000612d84565b600080612f8f8688876000613628565b60005b601b5481101561167c57601b81815481106145da576145da615658565b600091825260209091200154604051634e081c9560e01b81526001600160a01b0386811660048301528581166024830152848116604483015290911690634e081c9590606401600060405180830381600087803b15801561463a57600080fd5b505af115801561464e573d6000803e3d6000fd5b50505050808061465d90615684565b9150506145bd565b6001600160a01b0382166000908152600a60205260408120805460ff16614690576008915050611078565b6001600160a01b038316600090815260028201602052604090205460ff161515600114156146c2576000915050611078565b6001600160a01b03838116600081815260028401602090815260408083208054600160ff199091168117909155600983528184208054918201815584528284200180546001600160a01b031916958a1695909517909455918152600c909152205460ff166147b357600d8054600180820183557fd7b6990105719101dabeb77144f2a3385c8033acd3af97e9423a695e81ad1eb590910180546001600160a01b0319166001600160a01b0387169081179091556000908152600c60205260409020805460ff1916821790559054614799919061575d565b6001600160a01b0384166000908152600e60205260409020555b604080516001600160a01b038087168252851660208201527f3ab23ab0d51cccc0c3085aec51f99228625aa1a922b3a8ca89a26b0f2027a1a5910160405180910390a15060009392505050565b604080516020810190915260008152604051806020016040528061482c85600001518560000151613d5b565b90529392505050565b6040805160208101909152600081526040518060200160405280670de0b6b3a764000061486a86600001518660000151614ee6565b61482c91906157f5565b604080516020810190915260008152604051806020016040528061482c6148a78660000151670de0b6b3a7640000614ee6565b8551614f28565b60007f45b96fe442630264581b197e84bbada861235052c5a1aadfff9ea4e40a969aa08460148111156148e3576148e3615625565b84601a8111156148f5576148f5615625565b604080519283526020830191909152810184905260600160405180910390a183601481111561105657611056615625565b6000806149338585614e2a565b90506110e061494182614e52565b84613d5b565b6000806149548486615817565b905082858210156149785760405162461bcd60e51b8152600401610450919061584f565b50949350505050565b6000808383116149a0576000614997848661575d565b91509150613e05565b50600390506000613e05565b6000816001600160a01b03166389f8132e6040518163ffffffff1660e01b8152600401600060405180830381865afa1580156149ec573d6000803e3d6000fd5b505050506040513d6000823e601f3d908101601f19168201604052614a1491908101906158a4565b905060008051602061596483398151915260005b82518161ffff16101561167c576000838261ffff1681518110614a4d57614a4d615658565b6020908102919091018101516001600160e01b031981166000908152918590526040909120549091506001600160a01b03868116911614614a9057614a9061578a565b6001600160e01b0319811660009081526020849052604090205460018085018054600160a01b90930461ffff16929091614ac99161575d565b81548110614ad957614ad9615658565b90600052602060002090600891828204019190066004029054906101000a900460e01b846001018261ffff1681548110614b1557614b15615658565b90600052602060002090600891828204019190066004026101000a81548163ffffffff021916908360e01c021790555080846000016000866001018461ffff1681548110614b6557614b65615658565b6000918252602080832060088304015460079092166004026101000a90910460e01b6001600160e01b03191683528201929092526040019020805461ffff60a01b1916600160a01b61ffff939093169290920291909117905560018401805480614bd157614bd1615774565b60008281526020808220600860001990940193840401805463ffffffff600460078716026101000a0219169055919092556001600160e01b0319909316815291849052506040902080546001600160b01b031916905580614c3181615941565b915050614a28565b6000816001600160a01b03166389f8132e6040518163ffffffff1660e01b8152600401600060405180830381865afa158015614c79573d6000803e3d6000fd5b505050506040513d6000823e601f3d908101601f19168201604052614ca191908101906158a4565b7fc8fcad8db84d3cc18b4c41d551ea0ee66dd599cde068d998e57d5e09332c131d549091506000805160206159648339815191529060005b8351811015614e23576000848281518110614cf657614cf6615658565b6020908102919091018101516001600160e01b031981166000908152918690526040909120549091506001600160a01b03168015614d6257604051632c18df3360e01b81526001600160e01b0319831660048201526001600160a01b0382166024820152604401610450565b6040805180820182526001600160a01b03808a16825261ffff80881660208085019182526001600160e01b0319881660009081528b8252958620945185549251909316600160a01b026001600160b01b0319909216929093169190911717909155600180880180549182018155835291206008820401805460e085901c60046007909416939093026101000a92830263ffffffff909302191691909117905583614e0b81615941565b94505050508080614e1b90615684565b915050614cd9565b5050505050565b604080516020810190915260008152604051806020016040528061482c856000015185614ee6565b805160009061107890670de0b6b3a7640000906157f5565b6000614e826040518060200160405280600081525090565b600080614e93866000015186614f5b565b90925090506000826003811115614eac57614eac615625565b14614ecb57506040805160208101909152600081529092509050613e05565b60408051602081019091529081526000969095509350505050565b6000610b2883836040518060400160405280601781526020017f6d756c7469706c69636174696f6e206f766572666c6f77000000000000000000815250614f9a565b6000610b2883836040518060400160405280600e81526020016d646976696465206279207a65726f60901b815250614fed565b60008083614f6e57506000905080613e05565b83830283614f7c86836157f5565b14614f8f57600260009250925050613e05565b600092509050613e05565b6000831580614fa7575082155b15614fb457506000610b28565b6000614fc084866157d6565b905083614fcd86836157f5565b1483906149785760405162461bcd60e51b8152600401610450919061584f565b6000818361500e5760405162461bcd60e51b8152600401610450919061584f565b5061105683856157f5565b6040518061018001604052806000815260200160008152602001600081526020016000815260200160008152602001600081526020016150656040518060200160405280600081525090565b81526020016150806040518060200160405280600081525090565b815260200161509b6040518060200160405280600081525090565b81526020016150b66040518060200160405280600081525090565b815260200160008152602001600081525090565b6001600160a01b03811681146150df57600080fd5b50565b6000602082840312156150f457600080fd5b8135610b28816150ca565b80151581146150df57600080fd5b60008060006060848603121561512257600080fd5b833561512d816150ca565b9250602084013561513d816150ca565b9150604084013561514d816150ff565b809150509250925092565b6000806040838503121561516b57600080fd5b8235615176816150ca565b91506020830135615186816150ca565b809150509250929050565b600080600080608085870312156151a757600080fd5b84356151b2816150ca565b935060208501356151c2816150ca565b925060408501356151d2816150ca565b9396929550929360600135925050565b6000602082840312156151f457600080fd5b5035919050565b6000806000806080858703121561521157600080fd5b843561521c816150ca565b9350602085013561522c816150ca565b93969395505050506040820135916060013590565b60008060006060848603121561525657600080fd5b8335615261816150ca565b92506020840135615271816150ca565b929592945050506040919091013590565b600080600080600060a0868803121561529a57600080fd5b85356152a5816150ca565b945060208601356152b5816150ca565b935060408601356152c5816150ca565b925060608601356152d5816150ca565b949793965091946080013592915050565b6020808252825182820181905260009190848201906040850190845b818110156153275783516001600160a01b031683529284019291840191600101615302565b50909695505050505050565b6000806040838503121561534657600080fd5b8235615351816150ca565b946020939093013593505050565b60006020828403121561537157600080fd5b8135610b28816150ff565b6000806000806060858703121561539257600080fd5b843561539d816150ff565b9350602085013567ffffffffffffffff808211156153ba57600080fd5b818701915087601f8301126153ce57600080fd5b8135818111156153dd57600080fd5b8860208285010111156153ef57600080fd5b95986020929092019750949560400135945092505050565b634e487b7160e01b600052604160045260246000fd5b604051601f8201601f1916810167ffffffffffffffff8111828210171561544657615446615407565b604052919050565b600067ffffffffffffffff82111561546857615468615407565b5060051b60200190565b6000602080838503121561548557600080fd5b823567ffffffffffffffff81111561549c57600080fd5b8301601f810185136154ad57600080fd5b80356154c06154bb8261544e565b61541d565b81815260059190911b820183019083810190878311156154df57600080fd5b928401925b828410156132b15783356154f7816150ca565b825292840192908401906154e4565b6020808252825182820181905260009190848201906040850190845b8181101561532757835183529284019291840191600101615522565b60008083601f84011261555057600080fd5b50813567ffffffffffffffff81111561556857600080fd5b6020830191508360208260051b8501011115613e0557600080fd5b6000806000806040858703121561559957600080fd5b843567ffffffffffffffff808211156155b157600080fd5b6155bd8883890161553e565b909650945060208701359150808211156155d657600080fd5b506155e38782880161553e565b95989497509550505050565b60006020828403121561560157600080fd5b8151610b28816150ca565b60006020828403121561561e57600080fd5b5051919050565b634e487b7160e01b600052602160045260246000fd5b60006020828403121561564d57600080fd5b8151610b28816150ff565b634e487b7160e01b600052603260045260246000fd5b634e487b7160e01b600052601160045260246000fd5b60006000198214156156985761569861566e565b5060010190565b600060208083850312156156b257600080fd5b825167ffffffffffffffff8111156156c957600080fd5b8301601f810185136156da57600080fd5b80516156e86154bb8261544e565b81815260059190911b8201830190838101908783111561570757600080fd5b928401925b828410156132b157835161571f816150ca565b8252928401929084019061570c565b60208152816020820152818360408301376000818301604090810191909152601f909201601f19160101919050565b60008282101561576f5761576f61566e565b500390565b634e487b7160e01b600052603160045260246000fd5b634e487b7160e01b600052600160045260246000fd5b600080600080608085870312156157b657600080fd5b505082516020840151604085015160609095015191969095509092509050565b60008160001904831182151516156157f0576157f061566e565b500290565b60008261581257634e487b7160e01b600052601260045260246000fd5b500490565b6000821982111561582a5761582a61566e565b500190565b600060ff821660ff8114156158465761584661566e565b60010192915050565b600060208083528351808285015260005b8181101561587c57858101830151858201604001528201615860565b8181111561588e576000604083870101525b50601f01601f1916929092016040019392505050565b600060208083850312156158b757600080fd5b825167ffffffffffffffff8111156158ce57600080fd5b8301601f810185136158df57600080fd5b80516158ed6154bb8261544e565b81815260059190911b8201830190838101908783111561590c57600080fd5b928401925b828410156132b15783516001600160e01b0319811681146159325760008081fd5b82529284019290840190615911565b600061ffff808316818114156159595761595961566e565b600101939250505056fec8fcad8db84d3cc18b4c41d551ea0ee66dd599cde068d998e57d5e09332c131ca164736f6c634300080a000a",
    "linkReferences": {}
  },
  "methodIdentifiers": {
    "_addRewardsDistributor(address)": "b9b5b153",
    "_afterNonReentrant()": "632e5142",
    "_become(address)": "1d504dc6",
    "_becomeImplementation()": "5d72de62",
    "_beforeNonReentrant()": "c90c20b1",
    "_borrowGuardianPaused()": "e6653f3d",
    "_deployMarket(bool,bytes,uint256)": "aba35b98",
    "_listExtensions()": "6333d001",
    "_mintGuardianPaused()": "3c94786f",
    "_registerExtension(address,address)": "89cd9855",
    "_setCloseFactor(uint256)": "317b0b77",
    "_setCollateralFactor(address,uint256)": "e4028eee",
    "_setLiquidationIncentive(uint256)": "4fd42e17",
    "_setPriceOracle(address)": "55ee1fe1",
    "_setWhitelistEnforcement(bool)": "952adf5a",
    "_setWhitelistStatuses(address[],bool[])": "c8c9c975",
    "_toggleAutoImplementations(bool)": "d5333166",
    "accountAssets(address,uint256)": "dce15449",
    "admin()": "f851a440",
    "adminHasRights()": "0a755ec2",
    "allBorrowers(uint256)": "7515bafa",
    "allMarkets(uint256)": "52d84d1e",
    "asComptrollerFirstExtension()": "1ace5957",
    "autoImplementation()": "dd5cd22c",
    "borrowAllowed(address,address,uint256)": "da3d454c",
    "borrowCapForCollateral(address,address)": "940cd6f1",
    "borrowCapGuardian()": "21af4569",
    "borrowCaps(address)": "4a584432",
    "borrowGuardianPaused(address)": "6d154ea5",
    "borrowWithinLimits(address,uint256)": "779b2294",
    "borrowingAgainstCollateralBlacklist(address,address)": "1c819e43",
    "cTokensByUnderlying(address)": "31ff47fa",
    "checkMembership(address,address)": "929fe9a1",
    "closeFactorMantissa()": "e8755446",
    "comptrollerImplementation()": "bb82aa5e",
    "enforceWhitelist()": "b0957210",
    "enterMarkets(address[])": "c2998238",
    "exitMarket(address)": "ede4edd0",
    "fuseAdmin()": "15761d51",
    "fuseAdminHasRights()": "2f1069ba",
    "getAccountLiquidity(address)": "5ec88c79",
    "getAssetsIn(address)": "abfceffc",
    "getHypotheticalAccountLiquidity(address,address,uint256,uint256)": "4e79238f",
    "getMaxRedeemOrBorrow(address,address,bool)": "1976828e",
    "isComptroller()": "007e3dd2",
    "isDeprecated(address)": "94543c15",
    "liquidateBorrowAllowed(address,address,address,address,uint256)": "5fc7e71e",
    "liquidateCalculateSeizeTokens(address,address,uint256)": "c488847b",
    "liquidationIncentiveMantissa()": "4ada90af",
    "markets(address)": "8e8f294b",
    "mintAllowed(address,address,uint256)": "4ef4c3e1",
    "mintGuardianPaused(address)": "731f0c2b",
    "nonAccruingRewardsDistributors(uint256)": "6bd02b8a",
    "oracle()": "7dc0d1d0",
    "pauseGuardian()": "24a3d622",
    "pendingAdmin()": "26782247",
    "pendingComptrollerImplementation()": "dcfbc0c7",
    "redeemAllowed(address,address,uint256)": "eabe7d91",
    "redeemVerify(address,address,uint256,uint256)": "51dff989",
    "repayBorrowAllowed(address,address,address,uint256)": "24008a62",
    "rewardsDistributors(uint256)": "c6c5b0dd",
    "seizeAllowed(address,address,address,address,uint256)": "d02f7351",
    "seizeGuardianPaused()": "ac0b0bb7",
    "suppliers(address)": "16dc15fe",
    "supplyCaps(address)": "02c3bcbb",
    "transferAllowed(address,address,address,uint256)": "bdcdc258",
    "transferGuardianPaused()": "87f76303",
    "whitelist(address)": "9b19251a",
    "whitelistArray(uint256)": "d251fefc"
  }
}