{
  "address": "0xD4c05d06DCC7CE5FF489A11357bF2Cb77b691Fc5",
  "abi": [
    {
      "inputs": [
        {
          "internalType": "address",
          "name": "wnative",
          "type": "address"
        }
      ],
      "stateMutability": "nonpayable",
      "type": "constructor"
    },
    {
      "inputs": [],
      "name": "W_NATIVE",
      "outputs": [
        {
          "internalType": "contract WETH",
          "name": "",
          "type": "address"
        }
      ],
      "stateMutability": "view",
      "type": "function"
    },
    {
      "inputs": [
        {
          "internalType": "contract IERC20Upgradeable",
          "name": "inputToken",
          "type": "address"
        },
        {
          "internalType": "uint256",
          "name": "inputAmount",
          "type": "uint256"
        },
        {
          "internalType": "bytes",
          "name": "strategyData",
          "type": "bytes"
        }
      ],
      "name": "redeem",
      "outputs": [
        {
          "internalType": "contract IERC20Upgradeable",
          "name": "outputToken",
          "type": "address"
        },
        {
          "internalType": "uint256",
          "name": "outputAmount",
          "type": "uint256"
        }
      ],
      "stateMutability": "nonpayable",
      "type": "function"
    }
  ],
  "transactionHash": "0x490af68ef8ee0838915a8c01afe49e9cdb4f9bc280f70ab1fecca252292e249a",
  "args": [
    "0xbb4CdB9CBd36B01bD1cBaEBF2De08d9173bc095c"
  ],
  "numDeployments": 1,
  "bytecode": {
    "object": "0x60a060405234801561001057600080fd5b506040516104e23803806104e283398101604081905261002f91610040565b6001600160a01b0316608052610070565b60006020828403121561005257600080fd5b81516001600160a01b038116811461006957600080fd5b9392505050565b60805161044a610098600039600081816077015281816101e6015261025a015261044a6000f3fe608060405234801561001057600080fd5b50600436106100365760003560e01c806310badf4e1461003b578063b798d3ff14610072575b600080fd5b61004e6100493660046102bf565b6100b1565b604080516001600160a01b0390931683526020830191909152015b60405180910390f35b6100997f000000000000000000000000000000000000000000000000000000000000000081565b6040516001600160a01b039091168152602001610069565b600080600080600080868060200190518101906100ce91906103a3565b60405163095ea7b360e01b81526001600160a01b038086166004830152602482018e9052919a5093975091955093508792508a169063095ea7b3906044016020604051808303816000875af115801561012b573d6000803e3d6000fd5b505050506040513d601f19601f8201168201806040525081019061014f91906103fb565b50604051630f7c084960e21b8152600f84810b600483015283900b602482015260448101899052600060648201526001600160a01b03851690633df02124906084016020604051808303816000875af11580156101b0573d6000803e3d6000fd5b505050506040513d601f19601f820116820180604052508101906101d49190610424565b94506001600160a01b038616610284577f00000000000000000000000000000000000000000000000000000000000000006001600160a01b031663d0e30db0866040518263ffffffff1660e01b81526004016000604051808303818588803b15801561023f57600080fd5b505af1158015610253573d6000803e3d6000fd5b50505050507f0000000000000000000000000000000000000000000000000000000000000000955050505050610289565b505050505b935093915050565b6001600160a01b03811681146102a657600080fd5b50565b634e487b7160e01b600052604160045260246000fd5b6000806000606084860312156102d457600080fd5b83356102df81610291565b925060208401359150604084013567ffffffffffffffff8082111561030357600080fd5b818601915086601f83011261031757600080fd5b813581811115610329576103296102a9565b604051601f8201601f19908116603f01168101908382118183101715610351576103516102a9565b8160405282815289602084870101111561036a57600080fd5b8260208601602083013760006020848301015280955050505050509250925092565b8051600f81900b811461039e57600080fd5b919050565b600080600080608085870312156103b957600080fd5b84516103c481610291565b93506103d26020860161038c565b92506103e06040860161038c565b915060608501516103f081610291565b939692955090935050565b60006020828403121561040d57600080fd5b8151801515811461041d57600080fd5b9392505050565b60006020828403121561043657600080fd5b505191905056fea164736f6c634300080a000a",
    "linkReferences": {}
  },
  "methodIdentifiers": {
    "W_NATIVE()": "b798d3ff",
    "redeem(address,uint256,bytes)": "10badf4e"
  }
}