{
  "address": "0xcc1602fBeceb5C4C53DA29B60342822C753652E8",
  "abi": [
    {
      "inputs": [
        {
          "internalType": "contract ERC20",
          "name": "_asset",
          "type": "address"
        },
        {
          "internalType": "contract FlywheelCore",
          "name": "_dddFlywheel",
          "type": "address"
        },
        {
          "internalType": "contract FlywheelCore",
          "name": "_epxFlywheel",
          "type": "address"
        },
        {
          "internalType": "contract ILpDepositor",
          "name": "_lpDepositor",
          "type": "address"
        },
        {
          "internalType": "address",
          "name": "_rewardsDestination",
          "type": "address"
        },
        {
          "internalType": "contract ERC20[]",
          "name": "_rewardTokens",
          "type": "address[]"
        }
      ],
      "stateMutability": "nonpayable",
      "type": "constructor"
    },
    {
      "anonymous": false,
      "inputs": [
        {
          "indexed": true,
          "internalType": "address",
          "name": "owner",
          "type": "address"
        },
        {
          "indexed": true,
          "internalType": "address",
          "name": "spender",
          "type": "address"
        },
        {
          "indexed": false,
          "internalType": "uint256",
          "name": "amount",
          "type": "uint256"
        }
      ],
      "name": "Approval",
      "type": "event"
    },
    {
      "anonymous": false,
      "inputs": [
        {
          "indexed": true,
          "internalType": "address",
          "name": "rewardToken",
          "type": "address"
        },
        {
          "indexed": false,
          "internalType": "uint256",
          "name": "amount",
          "type": "uint256"
        }
      ],
      "name": "ClaimRewards",
      "type": "event"
    },
    {
      "anonymous": false,
      "inputs": [
        {
          "indexed": true,
          "internalType": "address",
          "name": "caller",
          "type": "address"
        },
        {
          "indexed": true,
          "internalType": "address",
          "name": "owner",
          "type": "address"
        },
        {
          "indexed": false,
          "internalType": "uint256",
          "name": "assets",
          "type": "uint256"
        },
        {
          "indexed": false,
          "internalType": "uint256",
          "name": "shares",
          "type": "uint256"
        }
      ],
      "name": "Deposit",
      "type": "event"
    },
    {
      "anonymous": false,
      "inputs": [
        {
          "indexed": true,
          "internalType": "address",
          "name": "previousOwner",
          "type": "address"
        },
        {
          "indexed": true,
          "internalType": "address",
          "name": "newOwner",
          "type": "address"
        }
      ],
      "name": "OwnershipTransferred",
      "type": "event"
    },
    {
      "anonymous": false,
      "inputs": [
        {
          "indexed": false,
          "internalType": "address",
          "name": "account",
          "type": "address"
        }
      ],
      "name": "Paused",
      "type": "event"
    },
    {
      "anonymous": false,
      "inputs": [
        {
          "indexed": true,
          "internalType": "address",
          "name": "newDestination",
          "type": "address"
        }
      ],
      "name": "RewardDestinationUpdate",
      "type": "event"
    },
    {
      "anonymous": false,
      "inputs": [
        {
          "indexed": true,
          "internalType": "address",
          "name": "from",
          "type": "address"
        },
        {
          "indexed": true,
          "internalType": "address",
          "name": "to",
          "type": "address"
        },
        {
          "indexed": false,
          "internalType": "uint256",
          "name": "amount",
          "type": "uint256"
        }
      ],
      "name": "Transfer",
      "type": "event"
    },
    {
      "anonymous": false,
      "inputs": [
        {
          "indexed": false,
          "internalType": "address",
          "name": "account",
          "type": "address"
        }
      ],
      "name": "Unpaused",
      "type": "event"
    },
    {
      "anonymous": false,
      "inputs": [
        {
          "indexed": true,
          "internalType": "address",
          "name": "caller",
          "type": "address"
        },
        {
          "indexed": true,
          "internalType": "address",
          "name": "receiver",
          "type": "address"
        },
        {
          "indexed": true,
          "internalType": "address",
          "name": "owner",
          "type": "address"
        },
        {
          "indexed": false,
          "internalType": "uint256",
          "name": "assets",
          "type": "uint256"
        },
        {
          "indexed": false,
          "internalType": "uint256",
          "name": "shares",
          "type": "uint256"
        }
      ],
      "name": "Withdraw",
      "type": "event"
    },
    {
      "inputs": [],
      "name": "DOMAIN_SEPARATOR",
      "outputs": [
        {
          "internalType": "bytes32",
          "name": "",
          "type": "bytes32"
        }
      ],
      "stateMutability": "view",
      "type": "function"
    },
    {
      "inputs": [
        {
          "internalType": "address",
          "name": "",
          "type": "address"
        },
        {
          "internalType": "address",
          "name": "",
          "type": "address"
        }
      ],
      "name": "allowance",
      "outputs": [
        {
          "internalType": "uint256",
          "name": "",
          "type": "uint256"
        }
      ],
      "stateMutability": "view",
      "type": "function"
    },
    {
      "inputs": [
        {
          "internalType": "address",
          "name": "spender",
          "type": "address"
        },
        {
          "internalType": "uint256",
          "name": "amount",
          "type": "uint256"
        }
      ],
      "name": "approve",
      "outputs": [
        {
          "internalType": "bool",
          "name": "",
          "type": "bool"
        }
      ],
      "stateMutability": "nonpayable",
      "type": "function"
    },
    {
      "inputs": [],
      "name": "asset",
      "outputs": [
        {
          "internalType": "contract ERC20",
          "name": "",
          "type": "address"
        }
      ],
      "stateMutability": "view",
      "type": "function"
    },
    {
      "inputs": [
        {
          "internalType": "uint256",
          "name": "",
          "type": "uint256"
        }
      ],
      "name": "assetAsArray",
      "outputs": [
        {
          "internalType": "address",
          "name": "",
          "type": "address"
        }
      ],
      "stateMutability": "view",
      "type": "function"
    },
    {
      "inputs": [
        {
          "internalType": "address",
          "name": "",
          "type": "address"
        }
      ],
      "name": "balanceOf",
      "outputs": [
        {
          "internalType": "uint256",
          "name": "",
          "type": "uint256"
        }
      ],
      "stateMutability": "view",
      "type": "function"
    },
    {
      "inputs": [
        {
          "internalType": "address",
          "name": "account",
          "type": "address"
        }
      ],
      "name": "balanceOfUnderlying",
      "outputs": [
        {
          "internalType": "uint256",
          "name": "",
          "type": "uint256"
        }
      ],
      "stateMutability": "view",
      "type": "function"
    },
    {
      "inputs": [],
      "name": "claimRewards",
      "outputs": [],
      "stateMutability": "nonpayable",
      "type": "function"
    },
    {
      "inputs": [
        {
          "internalType": "uint256",
          "name": "shares",
          "type": "uint256"
        }
      ],
      "name": "convertToAssets",
      "outputs": [
        {
          "internalType": "uint256",
          "name": "",
          "type": "uint256"
        }
      ],
      "stateMutability": "view",
      "type": "function"
    },
    {
      "inputs": [
        {
          "internalType": "uint256",
          "name": "assets",
          "type": "uint256"
        }
      ],
      "name": "convertToShares",
      "outputs": [
        {
          "internalType": "uint256",
          "name": "",
          "type": "uint256"
        }
      ],
      "stateMutability": "view",
      "type": "function"
    },
    {
      "inputs": [],
      "name": "dddFlywheel",
      "outputs": [
        {
          "internalType": "contract FlywheelCore",
          "name": "",
          "type": "address"
        }
      ],
      "stateMutability": "view",
      "type": "function"
    },
    {
      "inputs": [],
      "name": "decimals",
      "outputs": [
        {
          "internalType": "uint8",
          "name": "",
          "type": "uint8"
        }
      ],
      "stateMutability": "view",
      "type": "function"
    },
    {
      "inputs": [
        {
          "internalType": "uint256",
          "name": "assets",
          "type": "uint256"
        },
        {
          "internalType": "address",
          "name": "receiver",
          "type": "address"
        }
      ],
      "name": "deposit",
      "outputs": [
        {
          "internalType": "uint256",
          "name": "shares",
          "type": "uint256"
        }
      ],
      "stateMutability": "nonpayable",
      "type": "function"
    },
    {
      "inputs": [],
      "name": "emergencyWithdrawAndPause",
      "outputs": [],
      "stateMutability": "nonpayable",
      "type": "function"
    },
    {
      "inputs": [],
      "name": "epxFlywheel",
      "outputs": [
        {
          "internalType": "contract FlywheelCore",
          "name": "",
          "type": "address"
        }
      ],
      "stateMutability": "view",
      "type": "function"
    },
    {
      "inputs": [],
      "name": "lpDepositor",
      "outputs": [
        {
          "internalType": "contract ILpDepositor",
          "name": "",
          "type": "address"
        }
      ],
      "stateMutability": "view",
      "type": "function"
    },
    {
      "inputs": [
        {
          "internalType": "address",
          "name": "",
          "type": "address"
        }
      ],
      "name": "maxDeposit",
      "outputs": [
        {
          "internalType": "uint256",
          "name": "",
          "type": "uint256"
        }
      ],
      "stateMutability": "view",
      "type": "function"
    },
    {
      "inputs": [
        {
          "internalType": "address",
          "name": "",
          "type": "address"
        }
      ],
      "name": "maxMint",
      "outputs": [
        {
          "internalType": "uint256",
          "name": "",
          "type": "uint256"
        }
      ],
      "stateMutability": "view",
      "type": "function"
    },
    {
      "inputs": [
        {
          "internalType": "address",
          "name": "owner",
          "type": "address"
        }
      ],
      "name": "maxRedeem",
      "outputs": [
        {
          "internalType": "uint256",
          "name": "",
          "type": "uint256"
        }
      ],
      "stateMutability": "view",
      "type": "function"
    },
    {
      "inputs": [
        {
          "internalType": "address",
          "name": "owner",
          "type": "address"
        }
      ],
      "name": "maxWithdraw",
      "outputs": [
        {
          "internalType": "uint256",
          "name": "",
          "type": "uint256"
        }
      ],
      "stateMutability": "view",
      "type": "function"
    },
    {
      "inputs": [
        {
          "internalType": "uint256",
          "name": "shares",
          "type": "uint256"
        },
        {
          "internalType": "address",
          "name": "receiver",
          "type": "address"
        }
      ],
      "name": "mint",
      "outputs": [
        {
          "internalType": "uint256",
          "name": "assets",
          "type": "uint256"
        }
      ],
      "stateMutability": "nonpayable",
      "type": "function"
    },
    {
      "inputs": [],
      "name": "name",
      "outputs": [
        {
          "internalType": "string",
          "name": "",
          "type": "string"
        }
      ],
      "stateMutability": "view",
      "type": "function"
    },
    {
      "inputs": [
        {
          "internalType": "address",
          "name": "",
          "type": "address"
        }
      ],
      "name": "nonces",
      "outputs": [
        {
          "internalType": "uint256",
          "name": "",
          "type": "uint256"
        }
      ],
      "stateMutability": "view",
      "type": "function"
    },
    {
      "inputs": [],
      "name": "owner",
      "outputs": [
        {
          "internalType": "address",
          "name": "",
          "type": "address"
        }
      ],
      "stateMutability": "view",
      "type": "function"
    },
    {
      "inputs": [],
      "name": "paused",
      "outputs": [
        {
          "internalType": "bool",
          "name": "",
          "type": "bool"
        }
      ],
      "stateMutability": "view",
      "type": "function"
    },
    {
      "inputs": [
        {
          "internalType": "address",
          "name": "owner",
          "type": "address"
        },
        {
          "internalType": "address",
          "name": "spender",
          "type": "address"
        },
        {
          "internalType": "uint256",
          "name": "value",
          "type": "uint256"
        },
        {
          "internalType": "uint256",
          "name": "deadline",
          "type": "uint256"
        },
        {
          "internalType": "uint8",
          "name": "v",
          "type": "uint8"
        },
        {
          "internalType": "bytes32",
          "name": "r",
          "type": "bytes32"
        },
        {
          "internalType": "bytes32",
          "name": "s",
          "type": "bytes32"
        }
      ],
      "name": "permit",
      "outputs": [],
      "stateMutability": "nonpayable",
      "type": "function"
    },
    {
      "inputs": [
        {
          "internalType": "uint256",
          "name": "assets",
          "type": "uint256"
        }
      ],
      "name": "previewDeposit",
      "outputs": [
        {
          "internalType": "uint256",
          "name": "",
          "type": "uint256"
        }
      ],
      "stateMutability": "view",
      "type": "function"
    },
    {
      "inputs": [
        {
          "internalType": "uint256",
          "name": "shares",
          "type": "uint256"
        }
      ],
      "name": "previewMint",
      "outputs": [
        {
          "internalType": "uint256",
          "name": "",
          "type": "uint256"
        }
      ],
      "stateMutability": "view",
      "type": "function"
    },
    {
      "inputs": [
        {
          "internalType": "uint256",
          "name": "shares",
          "type": "uint256"
        }
      ],
      "name": "previewRedeem",
      "outputs": [
        {
          "internalType": "uint256",
          "name": "",
          "type": "uint256"
        }
      ],
      "stateMutability": "view",
      "type": "function"
    },
    {
      "inputs": [
        {
          "internalType": "uint256",
          "name": "assets",
          "type": "uint256"
        }
      ],
      "name": "previewWithdraw",
      "outputs": [
        {
          "internalType": "uint256",
          "name": "",
          "type": "uint256"
        }
      ],
      "stateMutability": "view",
      "type": "function"
    },
    {
      "inputs": [
        {
          "internalType": "uint256",
          "name": "shares",
          "type": "uint256"
        },
        {
          "internalType": "address",
          "name": "receiver",
          "type": "address"
        },
        {
          "internalType": "address",
          "name": "owner",
          "type": "address"
        }
      ],
      "name": "redeem",
      "outputs": [
        {
          "internalType": "uint256",
          "name": "assets",
          "type": "uint256"
        }
      ],
      "stateMutability": "nonpayable",
      "type": "function"
    },
    {
      "inputs": [],
      "name": "renounceOwnership",
      "outputs": [],
      "stateMutability": "nonpayable",
      "type": "function"
    },
    {
      "inputs": [],
      "name": "rewardDestination",
      "outputs": [
        {
          "internalType": "address",
          "name": "",
          "type": "address"
        }
      ],
      "stateMutability": "view",
      "type": "function"
    },
    {
      "inputs": [
        {
          "internalType": "uint256",
          "name": "",
          "type": "uint256"
        }
      ],
      "name": "rewardTokens",
      "outputs": [
        {
          "internalType": "contract ERC20",
          "name": "",
          "type": "address"
        }
      ],
      "stateMutability": "view",
      "type": "function"
    },
    {
      "inputs": [
        {
          "internalType": "address",
          "name": "newDestination",
          "type": "address"
        }
      ],
      "name": "setRewardDestination",
      "outputs": [],
      "stateMutability": "nonpayable",
      "type": "function"
    },
    {
      "inputs": [],
      "name": "symbol",
      "outputs": [
        {
          "internalType": "string",
          "name": "",
          "type": "string"
        }
      ],
      "stateMutability": "view",
      "type": "function"
    },
    {
      "inputs": [],
      "name": "totalAssets",
      "outputs": [
        {
          "internalType": "uint256",
          "name": "",
          "type": "uint256"
        }
      ],
      "stateMutability": "view",
      "type": "function"
    },
    {
      "inputs": [],
      "name": "totalSupply",
      "outputs": [
        {
          "internalType": "uint256",
          "name": "",
          "type": "uint256"
        }
      ],
      "stateMutability": "view",
      "type": "function"
    },
    {
      "inputs": [
        {
          "internalType": "address",
          "name": "to",
          "type": "address"
        },
        {
          "internalType": "uint256",
          "name": "amount",
          "type": "uint256"
        }
      ],
      "name": "transfer",
      "outputs": [
        {
          "internalType": "bool",
          "name": "",
          "type": "bool"
        }
      ],
      "stateMutability": "nonpayable",
      "type": "function"
    },
    {
      "inputs": [
        {
          "internalType": "address",
          "name": "from",
          "type": "address"
        },
        {
          "internalType": "address",
          "name": "to",
          "type": "address"
        },
        {
          "internalType": "uint256",
          "name": "amount",
          "type": "uint256"
        }
      ],
      "name": "transferFrom",
      "outputs": [
        {
          "internalType": "bool",
          "name": "",
          "type": "bool"
        }
      ],
      "stateMutability": "nonpayable",
      "type": "function"
    },
    {
      "inputs": [
        {
          "internalType": "address",
          "name": "newOwner",
          "type": "address"
        }
      ],
      "name": "transferOwnership",
      "outputs": [],
      "stateMutability": "nonpayable",
      "type": "function"
    },
    {
      "inputs": [],
      "name": "unpause",
      "outputs": [],
      "stateMutability": "nonpayable",
      "type": "function"
    },
    {
      "inputs": [
        {
          "internalType": "uint256",
          "name": "assets",
          "type": "uint256"
        },
        {
          "internalType": "address",
          "name": "receiver",
          "type": "address"
        },
        {
          "internalType": "address",
          "name": "owner",
          "type": "address"
        }
      ],
      "name": "withdraw",
      "outputs": [
        {
          "internalType": "uint256",
          "name": "shares",
          "type": "uint256"
        }
      ],
      "stateMutability": "nonpayable",
      "type": "function"
    }
  ],
  "transactionHash": "0x221f98b127a5d4cb6efee825e0d51cf84cceed2aa6323874a02bf1bf31010923",
  "args": [
    "0xaF4dE8E872131AE328Ce21D909C74705d3Aaf452",
    "0x851Cc0037B6923e60dC81Fa79Ac0799cC983492c",
    "0xC6431455AeE17a08D6409BdFB18c4bc73a4069E4",
    "0x8189F0afdBf8fE6a9e13c69bA35528ac6abeB1af",
    "0x6f9B6ccD027d1c6Ed09ee215B9Ca5B85a57C6eA1",
    [
      "0x84c97300a190676a19D1E13115629A11f8482Bd1",
      "0xaf41054c1487b0e5e2b9250c0332ecbce6ce9d71"
    ]
  ],
  "numDeployments": 2,
  "bytecode": {
    "object": "0x6101606040523480156200001257600080fd5b5060405162002ddf38038062002ddf83398101604081905262000035916200058d565b818187886001600160a01b03166306fdde036040518163ffffffff1660e01b8152600401600060405180830381865afa15801562000077573d6000803e3d6000fd5b505050506040513d6000823e601f3d908101601f19168201604052620000a19190810190620006ec565b604051602001620000b391906200078a565b604051602081830303815290604052896001600160a01b03166395d89b416040518163ffffffff1660e01b8152600401600060405180830381865afa15801562000101573d6000803e3d6000fd5b505050506040513d6000823e601f3d908101601f191682016040526200012b9190810190620006ec565b6040516020016200013d9190620007ca565b6040516020818303038152906040528282828181846001600160a01b031663313ce5676040518163ffffffff1660e01b8152600401602060405180830381865afa15801562000190573d6000803e3d6000fd5b505050506040513d601f19601f82011682018060405250810190620001b69190620007f6565b8251620001cb9060009060208601906200042d565b508151620001e19060019060208501906200042d565b5060ff81166080524660a052620001f76200033f565b60c052505050506001600160a01b039190911660e052506200021933620003db565b50506006805460ff60a01b1916905550600780546001600160a01b0319166001600160a01b038416179055805162000259906008906020840190620004bc565b5050506001600160a01b038581166101005284811661012052838116610140819052600980546001810182556000919091527f6e1540171b6c0c960b71a7020d9f60077f6af931a8bbf590da0223dacf75c7af0180546001600160a01b03191689841617905560e05160405163095ea7b360e01b8152600481019290925260001960248301529091169063095ea7b3906044016020604051808303816000875af11580156200030c573d6000803e3d6000fd5b505050506040513d601f19601f8201168201806040525081019062000332919062000822565b5050505050505062000927565b60007f8b73c3c69bb8fe3d512ecc4cf759cc79239f7b179b0ffacaa9a75d522b39400f600060405162000373919062000883565b6040805191829003822060208301939093528101919091527fc89efdaa54c0f20c7adf612882df0950f5a951637e0307cdcb4c672f298b8bc660608201524660808201523060a082015260c00160405160208183030381529060405280519060200120905090565b600680546001600160a01b038381166001600160a01b0319831681179093556040519116919082907f8be0079c531659141344cd1fd0a4f28419497f9722a3daafe3b4186f6b6457e090600090a35050565b8280546200043b9062000846565b90600052602060002090601f0160209004810192826200045f5760008555620004aa565b82601f106200047a57805160ff1916838001178555620004aa565b82800160010185558215620004aa579182015b82811115620004aa5782518255916020019190600101906200048d565b50620004b892915062000514565b5090565b828054828255906000526020600020908101928215620004aa579160200282015b82811115620004aa57825182546001600160a01b0319166001600160a01b03909116178255602090920191600190910190620004dd565b5b80821115620004b8576000815560010162000515565b6001600160a01b03811681146200054157600080fd5b50565b634e487b7160e01b600052604160045260246000fd5b604051601f8201601f191681016001600160401b038111828210171562000585576200058562000544565b604052919050565b60008060008060008060c08789031215620005a757600080fd5b8651620005b4816200052b565b80965050602080880151620005c9816200052b565b6040890151909650620005dc816200052b565b6060890151909550620005ef816200052b565b608089015190945062000602816200052b565b60a08901519093506001600160401b03808211156200062057600080fd5b818a0191508a601f8301126200063557600080fd5b8151818111156200064a576200064a62000544565b8060051b91506200065d8483016200055a565b818152918301840191848101908d8411156200067857600080fd5b938501935b83851015620006a6578451925062000695836200052b565b82825293850193908501906200067d565b8096505050505050509295509295509295565b60005b83811015620006d6578181015183820152602001620006bc565b83811115620006e6576000848401525b50505050565b600060208284031215620006ff57600080fd5b81516001600160401b03808211156200071757600080fd5b818401915084601f8301126200072c57600080fd5b81518181111562000741576200074162000544565b62000756601f8201601f19166020016200055a565b91508082528560208285010111156200076e57600080fd5b62000781816020840160208601620006b9565b50949350505050565b65026b4b230b9960d51b815260008251620007ad816006850160208701620006b9565b650815985d5b1d60d21b6006939091019283015250600c01919050565b6136bb60f11b815260008251620007e9816002850160208701620006b9565b9190910160020192915050565b6000602082840312156200080957600080fd5b815160ff811681146200081b57600080fd5b9392505050565b6000602082840312156200083557600080fd5b815180151581146200081b57600080fd5b600181811c908216806200085b57607f821691505b602082108114156200087d57634e487b7160e01b600052602260045260246000fd5b50919050565b600080835481600182811c915080831680620008a057607f831692505b6020808410821415620008c157634e487b7160e01b86526022600452602486fd5b818015620008d85760018114620008ea5762000919565b60ff1986168952848901965062000919565b60008a81526020902060005b86811015620009115781548b820152908501908301620008f6565b505084890196505b509498975050505050505050565b60805160a05160c05160e0516101005161012051610140516123ca62000a156000396000818161028e01528181610677015281816109e601528181610d2d01528181611aa201528181611cd401528181611d740152611e50015260006103340152600061055c0152600081816103c10152818161064f015281816106fc015281816109b501528181610d5801528181610ea301528181611041015281816111f90152818161128f01528181611372015281816114780152818161150e015281816115f101528181611d030152611e7f01526000610b5301526000610b230152600061037801526123ca6000f3fe608060405234801561001057600080fd5b50600436106102695760003560e01c806370a0823111610151578063ba087652116100c3578063d505accf11610087578063d505accf1461057e578063d905777e14610591578063dd62ed3e146105ba578063ef8b30f7146105e5578063f2fde38b146105f8578063fda45d861461060b57600080fd5b8063ba08765214610531578063c63d75b614610411578063c6e6f59214610544578063ce96cb77146103e3578063d20866a31461055757600080fd5b80638da5cb5b116101155780638da5cb5b146104cc57806394bf804d146104dd57806395d89b41146104f0578063a9059cbb146104f8578063b3d7f6b91461050b578063b460af941461051e57600080fd5b806370a082311461045e578063715018a61461047e5780637bb7bed1146104865780637ecebe00146104995780638457d067146104b957600080fd5b8063313ce567116101ea5780633bbd13a2116101ae5780633bbd13a2146103f65780633f4ba83a14610409578063402d267d146104115780634cdad506146104265780635c975abb146104395780636e553f651461044b57600080fd5b8063313ce567146103735780633644e515146103ac578063372500ab146103b457806338d52e0f146103bc5780633af9e669146103e357600080fd5b80630a28a477116102315780630a28a4771461031357806318160ddd1461032657806321c314001461032f57806323b872dd14610356578063283579781461036957600080fd5b806301e1d1141461026e57806302f283be1461028957806306fdde03146102c857806307a2d13a146102dd578063095ea7b3146102f0575b600080fd5b61027661061e565b6040519081526020015b60405180910390f35b6102b07f000000000000000000000000000000000000000000000000000000000000000081565b6040516001600160a01b039091168152602001610280565b6102d061074b565b6040516102809190611f0b565b6102766102eb366004611f60565b6107d9565b6103036102fe366004611f8e565b610806565b6040519015158152602001610280565b610276610321366004611f60565b610873565b61027660025481565b6102b07f000000000000000000000000000000000000000000000000000000000000000081565b610303610364366004611fba565b610893565b610371610973565b005b61039a7f000000000000000000000000000000000000000000000000000000000000000081565b60405160ff9091168152602001610280565b610276610b1f565b610371610b75565b6102b07f000000000000000000000000000000000000000000000000000000000000000081565b6102766103f1366004611ffb565b610c90565b6102b0610404366004611f60565b610cb2565b610371610cdc565b61027661041f366004611ffb565b5060001990565b610276610434366004611f60565b610e18565b600654600160a01b900460ff16610303565b610276610459366004612018565b610e23565b61027661046c366004611ffb565b60036020526000908152604090205481565b610371610f25565b6102b0610494366004611f60565b610f59565b6102766104a7366004611ffb565b60056020526000908152604090205481565b6103716104c7366004611ffb565b610f69565b6006546001600160a01b03166102b0565b6102766104eb366004612018565b610ffc565b6102d06110c3565b610303610506366004611f8e565b6110d0565b610276610519366004611f60565b611136565b61027661052c366004612048565b611155565b61027661053f366004612048565b611399565b610276610552366004611f60565b611618565b6102b07f000000000000000000000000000000000000000000000000000000000000000081565b61037161058c36600461208a565b611638565b61027661059f366004611ffb565b6001600160a01b031660009081526003602052604090205490565b6102766105c8366004612101565b600460209081526000928352604080842090915290825290205481565b6102766105f3366004611f60565b61187c565b610371610606366004611ffb565b611887565b6007546102b0906001600160a01b031681565b600654600090600160a01b900460ff166106e75760405163015b6a3360e71b81523060048201526001600160a01b037f0000000000000000000000000000000000000000000000000000000000000000811660248301527f0000000000000000000000000000000000000000000000000000000000000000169063adb5198090604401602060405180830381865afa1580156106be573d6000803e3d6000fd5b505050506040513d601f19601f820116820180604052508101906106e2919061212f565b905090565b6040516370a0823160e01b81523060048201527f00000000000000000000000000000000000000000000000000000000000000006001600160a01b0316906370a0823190602401602060405180830381865afa1580156106be573d6000803e3d6000fd5b6000805461075890612148565b80601f016020809104026020016040519081016040528092919081815260200182805461078490612148565b80156107d15780601f106107a6576101008083540402835291602001916107d1565b820191906000526020600020905b8154815290600101906020018083116107b457829003601f168201915b505050505081565b60025460009080156107fd576107f86107f061061e565b849083611922565b6107ff565b825b9392505050565b3360008181526004602090815260408083206001600160a01b038716808552925280832085905551919290917f8c5be1e5ebec7d5bd14f71427d1e84f3dd0314c0f7b2291e5b200ac8c7c3b925906108619086815260200190565b60405180910390a35060015b92915050565b60025460009080156107fd576107f88161088b61061e565b859190611941565b6001600160a01b038316600090815260046020908152604080832033845290915281205460001981146108ef576108ca8382612199565b6001600160a01b03861660009081526004602090815260408083203384529091529020555b6001600160a01b03851660009081526003602052604081208054859290610917908490612199565b90915550506001600160a01b038085166000818152600360205260409081902080548701905551909187169060008051602061239e833981519152906109609087815260200190565b60405180910390a3506001949350505050565b6006546001600160a01b031633146109a65760405162461bcd60e51b815260040161099d906121b0565b60405180910390fd5b6040516356bccf9160e01b81527f00000000000000000000000000000000000000000000000000000000000000006001600160a01b0381811660048401527f0000000000000000000000000000000000000000000000000000000000000000169163d9caed1291309184906356bccf9190602401602060405180830381865afa158015610a37573d6000803e3d6000fd5b505050506040513d601f19601f82011682018060405250810190610a5b91906121e5565b6040516370a0823160e01b81523060048201526001600160a01b0391909116906370a0823190602401602060405180830381865afa158015610aa1573d6000803e3d6000fd5b505050506040513d601f19601f82011682018060405250810190610ac5919061212f565b6040518463ffffffff1660e01b8152600401610ae393929190612202565b600060405180830381600087803b158015610afd57600080fd5b505af1158015610b11573d6000803e3d6000fd5b50505050610b1d61196f565b565b60007f00000000000000000000000000000000000000000000000000000000000000004614610b50576106e26119f1565b507f000000000000000000000000000000000000000000000000000000000000000090565b610b7d611a8b565b60085460005b81811015610c8c57600060088281548110610ba057610ba0612226565b60009182526020822001546040516370a0823160e01b81523060048201526001600160a01b03909116925082906370a0823190602401602060405180830381865afa158015610bf3573d6000803e3d6000fd5b505050506040513d601f19601f82011682018060405250810190610c17919061212f565b600754909150610c34906001600160a01b03848116911683611add565b816001600160a01b03167f1f89f96333d3133000ee447473151fa9606543368f02271c9d95ae14f13bcc6782604051610c6f91815260200190565b60405180910390a250508080610c849061223c565b915050610b83565b5050565b6001600160a01b03811660009081526003602052604081205461086d906107d9565b60098181548110610cc257600080fd5b6000918252602090912001546001600160a01b0316905081565b6006546001600160a01b03163314610d065760405162461bcd60e51b815260040161099d906121b0565b610d0e611b55565b6040516370a0823160e01b815230600482018190526001600160a01b037f0000000000000000000000000000000000000000000000000000000000000000811692638340f54992917f000000000000000000000000000000000000000000000000000000000000000091908216906370a0823190602401602060405180830381865afa158015610da2573d6000803e3d6000fd5b505050506040513d601f19601f82011682018060405250810190610dc6919061212f565b6040518463ffffffff1660e01b8152600401610de493929190612202565b600060405180830381600087803b158015610dfe57600080fd5b505af1158015610e12573d6000803e3d6000fd5b50505050565b600061086d826107d9565b600654600090600160a01b900460ff1615610e505760405162461bcd60e51b815260040161099d90612257565b610e598361187c565b905080610e965760405162461bcd60e51b815260206004820152600b60248201526a5a45524f5f53484152455360a81b604482015260640161099d565b610ecb6001600160a01b037f000000000000000000000000000000000000000000000000000000000000000016333086611bd9565b610ed58282611c63565b60408051848152602081018390526001600160a01b0384169133917fdcbc1c05240f31ff3ad067ef1ee35ce4997762752e3a095284754544f4c709d7910160405180910390a361086d8382611cbd565b6006546001600160a01b03163314610f4f5760405162461bcd60e51b815260040161099d906121b0565b610b1d6000611de7565b60088181548110610cc257600080fd5b6007546001600160a01b03163314610fb25760405162461bcd60e51b815260206004820152600c60248201526b15539055551213d49256915160a21b604482015260640161099d565b600780546001600160a01b0319166001600160a01b0383169081179091556040517fb7e97ad603f12568684fc43c82127d953e94f3954cf36344cbbfa34d67b0b0cf90600090a250565b600654600090600160a01b900460ff16156110295760405162461bcd60e51b815260040161099d90612257565b61103283611136565b90506110696001600160a01b037f000000000000000000000000000000000000000000000000000000000000000016333084611bd9565b6110738284611c63565b60408051828152602081018590526001600160a01b0384169133917fdcbc1c05240f31ff3ad067ef1ee35ce4997762752e3a095284754544f4c709d7910160405180910390a361086d8184611cbd565b6001805461075890612148565b336000908152600360205260408120805483919083906110f1908490612199565b90915550506001600160a01b0383166000818152600360205260409081902080548501905551339060008051602061239e833981519152906108619086815260200190565b60025460009080156107fd576107f861114d61061e565b849083611941565b600061116084610873565b9050336001600160a01b038316146111d0576001600160a01b038216600090815260046020908152604080832033845290915290205460001981146111ce576111a98282612199565b6001600160a01b03841660009081526004602090815260408083203384529091529020555b505b600654600160a01b900460ff16611310576040516370a0823160e01b81523060048201526000907f00000000000000000000000000000000000000000000000000000000000000006001600160a01b0316906370a0823190602401602060405180830381865afa158015611248573d6000803e3d6000fd5b505050506040513d601f19601f8201168201806040525081019061126c919061212f565b90506112788583611e39565b6040516370a0823160e01b815230600482015281907f00000000000000000000000000000000000000000000000000000000000000006001600160a01b0316906370a0823190602401602060405180830381865afa1580156112de573d6000803e3d6000fd5b505050506040513d601f19601f82011682018060405250810190611302919061212f565b61130c9190612199565b9450505b61131a8282611ea9565b60408051858152602081018390526001600160a01b03808516929086169133917ffbde797d201c681b91056529119e0b02407c7bb96a4a2c75c01fc9667232c8db910160405180910390a46107ff6001600160a01b037f0000000000000000000000000000000000000000000000000000000000000000168486611add565b6000336001600160a01b03831614611409576001600160a01b03821660009081526004602090815260408083203384529091529020546000198114611407576113e28582612199565b6001600160a01b03841660009081526004602090815260408083203384529091529020555b505b61141284610e18565b90508061144f5760405162461bcd60e51b815260206004820152600b60248201526a5a45524f5f41535345545360a81b604482015260640161099d565b600654600160a01b900460ff1661158f576040516370a0823160e01b81523060048201526000907f00000000000000000000000000000000000000000000000000000000000000006001600160a01b0316906370a0823190602401602060405180830381865afa1580156114c7573d6000803e3d6000fd5b505050506040513d601f19601f820116820180604052508101906114eb919061212f565b90506114f78286611e39565b6040516370a0823160e01b815230600482015281907f00000000000000000000000000000000000000000000000000000000000000006001600160a01b0316906370a0823190602401602060405180830381865afa15801561155d573d6000803e3d6000fd5b505050506040513d601f19601f82011682018060405250810190611581919061212f565b61158b9190612199565b9150505b6115998285611ea9565b60408051828152602081018690526001600160a01b03808516929086169133917ffbde797d201c681b91056529119e0b02407c7bb96a4a2c75c01fc9667232c8db910160405180910390a46107ff6001600160a01b037f0000000000000000000000000000000000000000000000000000000000000000168483611add565b60025460009080156107fd576107f88161163061061e565b859190611922565b428410156116885760405162461bcd60e51b815260206004820152601760248201527f5045524d49545f444541444c494e455f45585049524544000000000000000000604482015260640161099d565b60006001611694610b1f565b6001600160a01b038a811660008181526005602090815260409182902080546001810190915582517f6e71edae12b1b97f4d1f60370fef10105fa2faae0126114a169c64845d6126c98184015280840194909452938d166060840152608083018c905260a083019390935260c08083018b90528151808403909101815260e08301909152805192019190912061190160f01b6101008301526101028201929092526101228101919091526101420160408051601f198184030181528282528051602091820120600084529083018083525260ff871690820152606081018590526080810184905260a0016020604051602081039080840390855afa1580156117a0573d6000803e3d6000fd5b5050604051601f1901519150506001600160a01b038116158015906117d65750876001600160a01b0316816001600160a01b0316145b6118135760405162461bcd60e51b815260206004820152600e60248201526d24a72b20a624a22fa9a4a3a722a960911b604482015260640161099d565b6001600160a01b0390811660009081526004602090815260408083208a8516808552908352928190208990555188815291928a16917f8c5be1e5ebec7d5bd14f71427d1e84f3dd0314c0f7b2291e5b200ac8c7c3b925910160405180910390a350505050505050565b600061086d82611618565b6006546001600160a01b031633146118b15760405162461bcd60e51b815260040161099d906121b0565b6001600160a01b0381166119165760405162461bcd60e51b815260206004820152602660248201527f4f776e61626c653a206e6577206f776e657220697320746865207a65726f206160448201526564647265737360d01b606482015260840161099d565b61191f81611de7565b50565b82820281151584158583048514171661193a57600080fd5b0492915050565b82820281151584158583048514171661195957600080fd5b6001826001830304018115150290509392505050565b600654600160a01b900460ff16156119995760405162461bcd60e51b815260040161099d90612257565b6006805460ff60a01b1916600160a01b1790557f62e78cea01bee320cd4e420270b5ea74000d11b0c9f74754ebdbfc544b05a2586119d43390565b6040516001600160a01b03909116815260200160405180910390a1565b60007f8b73c3c69bb8fe3d512ecc4cf759cc79239f7b179b0ffacaa9a75d522b39400f6000604051611a239190612281565b6040805191829003822060208301939093528101919091527fc89efdaa54c0f20c7adf612882df0950f5a951637e0307cdcb4c672f298b8bc660608201524660808201523060a082015260c00160405160208183030381529060405280519060200120905090565b604051633601ae0560e01b81526001600160a01b037f00000000000000000000000000000000000000000000000000000000000000001690633601ae0590610de490309060099060009060040161231d565b600060405163a9059cbb60e01b8152836004820152826024820152602060006044836000895af13d15601f3d1160016000511416171691505080610e125760405162461bcd60e51b815260206004820152600f60248201526e1514905394d1915497d19052531151608a1b604482015260640161099d565b600654600160a01b900460ff16611ba55760405162461bcd60e51b815260206004820152601460248201527314185d5cd8589b194e881b9bdd081c185d5cd95960621b604482015260640161099d565b6006805460ff60a01b191690557f5db9ee0a495bf2e6ff9c91a7834c1ba4fdd244a5e8aa4e537bd38aeae4b073aa336119d4565b60006040516323b872dd60e01b81528460048201528360248201528260448201526020600060648360008a5af13d15601f3d1160016000511416171691505080611c5c5760405162461bcd60e51b81526020600482015260146024820152731514905394d1915497d19493d357d1905253115160621b604482015260640161099d565b5050505050565b8060026000828254611c759190612385565b90915550506001600160a01b03821660008181526003602090815260408083208054860190555184815260008051602061239e83398151915291015b60405180910390a35050565b604051638340f54960e01b81526001600160a01b037f00000000000000000000000000000000000000000000000000000000000000001690638340f54990611d2d9030907f0000000000000000000000000000000000000000000000000000000000000000908790600401612202565b600060405180830381600087803b158015611d4757600080fd5b505af1158015611d5b573d6000803e3d6000fd5b5050604051633601ae0560e01b81526001600160a01b037f0000000000000000000000000000000000000000000000000000000000000000169250633601ae059150611db190309060099060009060040161231d565b600060405180830381600087803b158015611dcb57600080fd5b505af1158015611ddf573d6000803e3d6000fd5b505050505050565b600680546001600160a01b038381166001600160a01b0319831681179093556040519116919082907f8be0079c531659141344cd1fd0a4f28419497f9722a3daafe3b4186f6b6457e090600090a35050565b604051636ce5768960e11b81526001600160a01b037f0000000000000000000000000000000000000000000000000000000000000000169063d9caed1290611d2d9030907f0000000000000000000000000000000000000000000000000000000000000000908790600401612202565b6001600160a01b03821660009081526003602052604081208054839290611ed1908490612199565b90915550506002805482900390556040518181526000906001600160a01b0384169060008051602061239e83398151915290602001611cb1565b600060208083528351808285015260005b81811015611f3857858101830151858201604001528201611f1c565b81811115611f4a576000604083870101525b50601f01601f1916929092016040019392505050565b600060208284031215611f7257600080fd5b5035919050565b6001600160a01b038116811461191f57600080fd5b60008060408385031215611fa157600080fd5b8235611fac81611f79565b946020939093013593505050565b600080600060608486031215611fcf57600080fd5b8335611fda81611f79565b92506020840135611fea81611f79565b929592945050506040919091013590565b60006020828403121561200d57600080fd5b81356107ff81611f79565b6000806040838503121561202b57600080fd5b82359150602083013561203d81611f79565b809150509250929050565b60008060006060848603121561205d57600080fd5b83359250602084013561206f81611f79565b9150604084013561207f81611f79565b809150509250925092565b600080600080600080600060e0888a0312156120a557600080fd5b87356120b081611f79565b965060208801356120c081611f79565b95506040880135945060608801359350608088013560ff811681146120e457600080fd5b9699959850939692959460a0840135945060c09093013592915050565b6000806040838503121561211457600080fd5b823561211f81611f79565b9150602083013561203d81611f79565b60006020828403121561214157600080fd5b5051919050565b600181811c9082168061215c57607f821691505b6020821081141561217d57634e487b7160e01b600052602260045260246000fd5b50919050565b634e487b7160e01b600052601160045260246000fd5b6000828210156121ab576121ab612183565b500390565b6020808252818101527f4f776e61626c653a2063616c6c6572206973206e6f7420746865206f776e6572604082015260600190565b6000602082840312156121f757600080fd5b81516107ff81611f79565b6001600160a01b039384168152919092166020820152604081019190915260600190565b634e487b7160e01b600052603260045260246000fd5b600060001982141561225057612250612183565b5060010190565b60208082526010908201526f14185d5cd8589b194e881c185d5cd95960821b604082015260600190565b600080835481600182811c91508083168061229d57607f831692505b60208084108214156122bd57634e487b7160e01b86526022600452602486fd5b8180156122d157600181146122e25761230f565b60ff1986168952848901965061230f565b60008a81526020902060005b868110156123075781548b8201529085019083016122ee565b505084890196505b509498975050505050505050565b60006060820160018060a01b03808716845260206060818601528287548085526080870191508860005282600020945060005b8181101561236e578554851683526001958601959284019201612350565b505080945050505050826040830152949350505050565b6000821982111561239857612398612183565b50019056feddf252ad1be2c89b69c2b068fc378daa952ba7f163c4a11628f55a4df523b3efa164736f6c634300080a000a",
    "linkReferences": {}
  },
  "methodIdentifiers": {
    "DOMAIN_SEPARATOR()": "3644e515",
    "allowance(address,address)": "dd62ed3e",
    "approve(address,uint256)": "095ea7b3",
    "asset()": "38d52e0f",
    "assetAsArray(uint256)": "3bbd13a2",
    "balanceOf(address)": "70a08231",
    "balanceOfUnderlying(address)": "3af9e669",
    "claimRewards()": "372500ab",
    "convertToAssets(uint256)": "07a2d13a",
    "convertToShares(uint256)": "c6e6f592",
    "dddFlywheel()": "d20866a3",
    "decimals()": "313ce567",
    "deposit(uint256,address)": "6e553f65",
    "emergencyWithdrawAndPause()": "28357978",
    "epxFlywheel()": "21c31400",
    "lpDepositor()": "02f283be",
    "maxDeposit(address)": "402d267d",
    "maxMint(address)": "c63d75b6",
    "maxRedeem(address)": "d905777e",
    "maxWithdraw(address)": "ce96cb77",
    "mint(uint256,address)": "94bf804d",
    "name()": "06fdde03",
    "nonces(address)": "7ecebe00",
    "owner()": "8da5cb5b",
    "paused()": "5c975abb",
    "permit(address,address,uint256,uint256,uint8,bytes32,bytes32)": "d505accf",
    "previewDeposit(uint256)": "ef8b30f7",
    "previewMint(uint256)": "b3d7f6b9",
    "previewRedeem(uint256)": "4cdad506",
    "previewWithdraw(uint256)": "0a28a477",
    "redeem(uint256,address,address)": "ba087652",
    "renounceOwnership()": "715018a6",
    "rewardDestination()": "fda45d86",
    "rewardTokens(uint256)": "7bb7bed1",
    "setRewardDestination(address)": "8457d067",
    "symbol()": "95d89b41",
    "totalAssets()": "01e1d114",
    "totalSupply()": "18160ddd",
    "transfer(address,uint256)": "a9059cbb",
    "transferFrom(address,address,uint256)": "23b872dd",
    "transferOwnership(address)": "f2fde38b",
    "unpause()": "3f4ba83a",
    "withdraw(uint256,address,address)": "b460af94"
  }
}