{
  "address": "0xB46b0F8eDDB31EbCb6147edf01470Ee0a4671c3D",
  "abi": [
    {
      "anonymous": false,
      "inputs": [
        {
          "indexed": false,
          "internalType": "address[]",
          "name": "admins",
          "type": "address[]"
        },
        {
          "indexed": false,
          "internalType": "bool",
          "name": "status",
          "type": "bool"
        }
      ],
      "name": "AdminWhitelistUpdated",
      "type": "event"
    },
    {
      "anonymous": false,
      "inputs": [
        {
          "indexed": false,
          "internalType": "uint8",
          "name": "version",
          "type": "uint8"
        }
      ],
      "name": "Initialized",
      "type": "event"
    },
    {
      "anonymous": false,
      "inputs": [
        {
          "indexed": false,
          "internalType": "address",
          "name": "oldOwner",
          "type": "address"
        },
        {
          "indexed": false,
          "internalType": "address",
          "name": "newOwner",
          "type": "address"
        }
      ],
      "name": "NewOwner",
      "type": "event"
    },
    {
      "anonymous": false,
      "inputs": [
        {
          "indexed": false,
          "internalType": "address",
          "name": "oldPendingOwner",
          "type": "address"
        },
        {
          "indexed": false,
          "internalType": "address",
          "name": "newPendingOwner",
          "type": "address"
        }
      ],
      "name": "NewPendingOwner",
      "type": "event"
    },
    {
      "anonymous": false,
      "inputs": [
        {
          "indexed": true,
          "internalType": "address",
          "name": "previousOwner",
          "type": "address"
        },
        {
          "indexed": true,
          "internalType": "address",
          "name": "newOwner",
          "type": "address"
        }
      ],
      "name": "OwnershipTransferred",
      "type": "event"
    },
    {
      "anonymous": false,
      "inputs": [
        {
          "indexed": false,
          "internalType": "uint256",
          "name": "index",
          "type": "uint256"
        },
        {
          "components": [
            {
              "internalType": "string",
              "name": "name",
              "type": "string"
            },
            {
              "internalType": "address",
              "name": "creator",
              "type": "address"
            },
            {
              "internalType": "address",
              "name": "comptroller",
              "type": "address"
            },
            {
              "internalType": "uint256",
              "name": "blockPosted",
              "type": "uint256"
            },
            {
              "internalType": "uint256",
              "name": "timestampPosted",
              "type": "uint256"
            }
          ],
          "indexed": false,
          "internalType": "struct FusePoolDirectory.FusePool",
          "name": "pool",
          "type": "tuple"
        }
      ],
      "name": "PoolRegistered",
      "type": "event"
    },
    {
      "inputs": [],
      "name": "_acceptOwner",
      "outputs": [],
      "stateMutability": "nonpayable",
      "type": "function"
    },
    {
      "inputs": [
        {
          "internalType": "address[]",
          "name": "admins",
          "type": "address[]"
        },
        {
          "internalType": "bool",
          "name": "status",
          "type": "bool"
        }
      ],
      "name": "_editAdminWhitelist",
      "outputs": [],
      "stateMutability": "nonpayable",
      "type": "function"
    },
    {
      "inputs": [
        {
          "internalType": "address[]",
          "name": "deployers",
          "type": "address[]"
        },
        {
          "internalType": "bool",
          "name": "status",
          "type": "bool"
        }
      ],
      "name": "_editDeployerWhitelist",
      "outputs": [],
      "stateMutability": "nonpayable",
      "type": "function"
    },
    {
      "inputs": [],
      "name": "_resetGap",
      "outputs": [],
      "stateMutability": "nonpayable",
      "type": "function"
    },
    {
      "inputs": [
        {
          "internalType": "bool",
          "name": "enforce",
          "type": "bool"
        }
      ],
      "name": "_setDeployerWhitelistEnforcement",
      "outputs": [],
      "stateMutability": "nonpayable",
      "type": "function"
    },
    {
      "inputs": [
        {
          "internalType": "address",
          "name": "newPendingOwner",
          "type": "address"
        }
      ],
      "name": "_setPendingOwner",
      "outputs": [],
      "stateMutability": "nonpayable",
      "type": "function"
    },
    {
      "inputs": [
        {
          "internalType": "address",
          "name": "",
          "type": "address"
        }
      ],
      "name": "adminWhitelist",
      "outputs": [
        {
          "internalType": "bool",
          "name": "",
          "type": "bool"
        }
      ],
      "stateMutability": "view",
      "type": "function"
    },
    {
      "inputs": [
        {
          "internalType": "string",
          "name": "name",
          "type": "string"
        },
        {
          "internalType": "address",
          "name": "implementation",
          "type": "address"
        },
        {
          "internalType": "bytes",
          "name": "constructorData",
          "type": "bytes"
        },
        {
          "internalType": "bool",
          "name": "enforceWhitelist",
          "type": "bool"
        },
        {
          "internalType": "uint256",
          "name": "closeFactor",
          "type": "uint256"
        },
        {
          "internalType": "uint256",
          "name": "liquidationIncentive",
          "type": "uint256"
        },
        {
          "internalType": "address",
          "name": "priceOracle",
          "type": "address"
        }
      ],
      "name": "deployPool",
      "outputs": [
        {
          "internalType": "uint256",
          "name": "",
          "type": "uint256"
        },
        {
          "internalType": "address",
          "name": "",
          "type": "address"
        }
      ],
      "stateMutability": "nonpayable",
      "type": "function"
    },
    {
      "inputs": [
        {
          "internalType": "address",
          "name": "",
          "type": "address"
        }
      ],
      "name": "deployerWhitelist",
      "outputs": [
        {
          "internalType": "bool",
          "name": "",
          "type": "bool"
        }
      ],
      "stateMutability": "view",
      "type": "function"
    },
    {
      "inputs": [],
      "name": "enforceDeployerWhitelist",
      "outputs": [
        {
          "internalType": "bool",
          "name": "",
          "type": "bool"
        }
      ],
      "stateMutability": "view",
      "type": "function"
    },
    {
      "inputs": [],
      "name": "getAllPools",
      "outputs": [
        {
          "components": [
            {
              "internalType": "string",
              "name": "name",
              "type": "string"
            },
            {
              "internalType": "address",
              "name": "creator",
              "type": "address"
            },
            {
              "internalType": "address",
              "name": "comptroller",
              "type": "address"
            },
            {
              "internalType": "uint256",
              "name": "blockPosted",
              "type": "uint256"
            },
            {
              "internalType": "uint256",
              "name": "timestampPosted",
              "type": "uint256"
            }
          ],
          "internalType": "struct FusePoolDirectory.FusePool[]",
          "name": "",
          "type": "tuple[]"
        }
      ],
      "stateMutability": "view",
      "type": "function"
    },
    {
      "inputs": [
        {
          "internalType": "address",
          "name": "account",
          "type": "address"
        }
      ],
      "name": "getPoolsByAccount",
      "outputs": [
        {
          "internalType": "uint256[]",
          "name": "",
          "type": "uint256[]"
        },
        {
          "components": [
            {
              "internalType": "string",
              "name": "name",
              "type": "string"
            },
            {
              "internalType": "address",
              "name": "creator",
              "type": "address"
            },
            {
              "internalType": "address",
              "name": "comptroller",
              "type": "address"
            },
            {
              "internalType": "uint256",
              "name": "blockPosted",
              "type": "uint256"
            },
            {
              "internalType": "uint256",
              "name": "timestampPosted",
              "type": "uint256"
            }
          ],
          "internalType": "struct FusePoolDirectory.FusePool[]",
          "name": "",
          "type": "tuple[]"
        }
      ],
      "stateMutability": "view",
      "type": "function"
    },
    {
      "inputs": [],
      "name": "getPublicPools",
      "outputs": [
        {
          "internalType": "uint256[]",
          "name": "",
          "type": "uint256[]"
        },
        {
          "components": [
            {
              "internalType": "string",
              "name": "name",
              "type": "string"
            },
            {
              "internalType": "address",
              "name": "creator",
              "type": "address"
            },
            {
              "internalType": "address",
              "name": "comptroller",
              "type": "address"
            },
            {
              "internalType": "uint256",
              "name": "blockPosted",
              "type": "uint256"
            },
            {
              "internalType": "uint256",
              "name": "timestampPosted",
              "type": "uint256"
            }
          ],
          "internalType": "struct FusePoolDirectory.FusePool[]",
          "name": "",
          "type": "tuple[]"
        }
      ],
      "stateMutability": "view",
      "type": "function"
    },
    {
      "inputs": [
        {
          "internalType": "bool",
          "name": "whitelistedAdmin",
          "type": "bool"
        }
      ],
      "name": "getPublicPoolsByVerification",
      "outputs": [
        {
          "internalType": "uint256[]",
          "name": "",
          "type": "uint256[]"
        },
        {
          "components": [
            {
              "internalType": "string",
              "name": "name",
              "type": "string"
            },
            {
              "internalType": "address",
              "name": "creator",
              "type": "address"
            },
            {
              "internalType": "address",
              "name": "comptroller",
              "type": "address"
            },
            {
              "internalType": "uint256",
              "name": "blockPosted",
              "type": "uint256"
            },
            {
              "internalType": "uint256",
              "name": "timestampPosted",
              "type": "uint256"
            }
          ],
          "internalType": "struct FusePoolDirectory.FusePool[]",
          "name": "",
          "type": "tuple[]"
        }
      ],
      "stateMutability": "view",
      "type": "function"
    },
    {
      "inputs": [
        {
          "internalType": "address",
          "name": "account",
          "type": "address"
        }
      ],
      "name": "getVerifiedPoolsOfWhitelistedAccount",
      "outputs": [
        {
          "internalType": "uint256[]",
          "name": "",
          "type": "uint256[]"
        },
        {
          "components": [
            {
              "internalType": "string",
              "name": "name",
              "type": "string"
            },
            {
              "internalType": "address",
              "name": "creator",
              "type": "address"
            },
            {
              "internalType": "address",
              "name": "comptroller",
              "type": "address"
            },
            {
              "internalType": "uint256",
              "name": "blockPosted",
              "type": "uint256"
            },
            {
              "internalType": "uint256",
              "name": "timestampPosted",
              "type": "uint256"
            }
          ],
          "internalType": "struct FusePoolDirectory.FusePool[]",
          "name": "",
          "type": "tuple[]"
        }
      ],
      "stateMutability": "view",
      "type": "function"
    },
    {
      "inputs": [
        {
          "internalType": "bool",
          "name": "_enforceDeployerWhitelist",
          "type": "bool"
        },
        {
          "internalType": "address[]",
          "name": "_deployerWhitelist",
          "type": "address[]"
        }
      ],
      "name": "initialize",
      "outputs": [],
      "stateMutability": "nonpayable",
      "type": "function"
    },
    {
      "inputs": [],
      "name": "owner",
      "outputs": [
        {
          "internalType": "address",
          "name": "",
          "type": "address"
        }
      ],
      "stateMutability": "view",
      "type": "function"
    },
    {
      "inputs": [],
      "name": "pendingOwner",
      "outputs": [
        {
          "internalType": "address",
          "name": "",
          "type": "address"
        }
      ],
      "stateMutability": "view",
      "type": "function"
    },
    {
      "inputs": [
        {
          "internalType": "address",
          "name": "",
          "type": "address"
        }
      ],
      "name": "poolExists",
      "outputs": [
        {
          "internalType": "bool",
          "name": "",
          "type": "bool"
        }
      ],
      "stateMutability": "view",
      "type": "function"
    },
    {
      "inputs": [
        {
          "internalType": "uint256",
          "name": "",
          "type": "uint256"
        }
      ],
      "name": "pools",
      "outputs": [
        {
          "internalType": "string",
          "name": "name",
          "type": "string"
        },
        {
          "internalType": "address",
          "name": "creator",
          "type": "address"
        },
        {
          "internalType": "address",
          "name": "comptroller",
          "type": "address"
        },
        {
          "internalType": "uint256",
          "name": "blockPosted",
          "type": "uint256"
        },
        {
          "internalType": "uint256",
          "name": "timestampPosted",
          "type": "uint256"
        }
      ],
      "stateMutability": "view",
      "type": "function"
    },
    {
      "inputs": [],
      "name": "poolsCounter",
      "outputs": [
        {
          "internalType": "uint256",
          "name": "",
          "type": "uint256"
        }
      ],
      "stateMutability": "view",
      "type": "function"
    },
    {
      "inputs": [],
      "name": "renounceOwnership",
      "outputs": [],
      "stateMutability": "nonpayable",
      "type": "function"
    },
    {
      "inputs": [
        {
          "internalType": "uint256",
          "name": "index",
          "type": "uint256"
        },
        {
          "internalType": "string",
          "name": "name",
          "type": "string"
        }
      ],
      "name": "setPoolName",
      "outputs": [],
      "stateMutability": "nonpayable",
      "type": "function"
    },
    {
      "inputs": [
        {
          "internalType": "address",
          "name": "newOwner",
          "type": "address"
        }
      ],
      "name": "transferOwnership",
      "outputs": [],
      "stateMutability": "nonpayable",
      "type": "function"
    }
  ],
  "transactionHash": "0xb199a5eb46e86a8ce9bd1bfb223749926dd6e466497c0149caef994e120dbece",
  "args": [],
  "numDeployments": 14,
  "bytecode": {
    "object": "0x608060405234801561001057600080fd5b50613d1f806100206000396000f3fe60806040523480156200001157600080fd5b5060043610620001755760003560e01c8063715018a611620000d3578063b86579d41162000086578063b86579d4146200038b578063c2bd5c2e14620003a2578063d88ff1f414620003d4578063e30c397814620003ed578063f2fde38b1462000401578063fc4d33f9146200041857600080fd5b8063715018a614620002dd5780638da5cb5b14620002e7578063a155497c146200030d578063a3ed91c61462000324578063a970e76c146200033b578063ac4afa38146200036157600080fd5b806343e20a1d116200012c57806343e20a1d1462000231578063448ca55814620002575780634ae26ea1146200026e57806358b896d314620002785780635d0eb31a14620002ad5780636e96dfd714620002c657600080fd5b806304f03c6f146200017a5780630a83d1b014620001935780631e1c6a0714620001aa57806320c32bfe14620001e5578063218a3bbe14620001fc57806326bb81d71462000223575b600080fd5b620001916200018b36600462002a76565b62000422565b005b62000191620001a436600462002a9d565b6200043f565b620001d0620001bb36600462002b4c565b606c6020526000908152604090205460ff1681565b60405190151581526020015b60405180910390f35b62000191620001f636600462002bb7565b6200054f565b620002136200020d36600462002a76565b620006c3565b604051620001dc92919062002d18565b606d54620001d09060ff1681565b620001d06200024236600462002b4c565b60706020526000908152604090205460ff1681565b620002136200026836600462002b4c565b62000ac0565b6200021362000f5e565b6200028f6200028936600462002dbc565b6200130c565b604080519283526001600160a01b03909116602083015201620001dc565b620002b760715481565b604051908152602001620001dc565b62000191620002d736600462002b4c565b62001abd565b6200019162001b29565b6033546001600160a01b03165b6040516001600160a01b039091168152602001620001dc565b620001916200031e36600462002a9d565b62001b6f565b620002136200033536600462002b4c565b62001c41565b620001d06200034c36600462002b4c565b606e6020526000908152604090205460ff1681565b620003786200037236600462002ecf565b62001f1c565b604051620001dc95949392919062002ee9565b620001916200039c36600462002f2b565b62002002565b62000191606680546001600160a01b031990811690915560678054821690556068805482169055606980549091169055565b620003de62002199565b604051620001dc919062003000565b606554620002f4906001600160a01b031681565b620001916200041236600462002b4c565b62001b29565b62000191620022d0565b6200042c620023ea565b606d805460ff1916911515919091179055565b62000449620023ea565b81620004925760405162461bcd60e51b815260206004820152601360248201527227379030b236b4b7399039bab8383634b2b21760691b60448201526064015b60405180910390fd5b60005b828110156200050c578160706000868685818110620004b857620004b862003015565b9050602002016020810190620004cf919062002b4c565b6001600160a01b031681526020810191909152604001600020805460ff191691151591909117905580620005038162003041565b91505062000495565b507f31b67e6853df85403a8c4f4f46dc53f48f700d6917c8e3ec8c77a0e6fd56793b83838360405162000542939291906200305f565b60405180910390a1505050565b6000606a848154811062000567576200056762003015565b600091825260209182902060026005909202010154604080516303e1469160e61b815290516001600160a01b039092169350839263f851a440926004808401938290030181865afa158015620005c1573d6000803e3d6000fd5b505050506040513d601f19601f82011682018060405250810190620005e79190620030bc565b6001600160a01b0316336001600160a01b0316148015620006685750806001600160a01b0316630a755ec26040518163ffffffff1660e01b8152600401602060405180830381865afa15801562000642573d6000803e3d6000fd5b505050506040513d601f19601f82011682018060405250810190620006689190620030dc565b806200067e57506033546001600160a01b031633145b6200068857600080fd5b8282606a8681548110620006a057620006a062003015565b60009182526020909120620006bc9360059092020191620028e0565b5050505050565b6060806000805b606a54811015620007c7576000606a8281548110620006ed57620006ed62003015565b600091825260209182902060026005909202010154604080516303e1469160e61b815290516001600160a01b039092169350839263f851a440926004808401938290030181865afa92505050801562000765575060408051601f3d908101601f191682019092526200076291810190620030bc565b60015b6200077057620007a1565b6001600160a01b03811660009081526070602052604090205460ff161515871515146200079f575050620007b2565b505b82620007ad8162003041565b935050505b80620007be8162003041565b915050620006ca565b506000816001600160401b03811115620007e557620007e562002d73565b6040519080825280602002602001820160405280156200080f578160200160208202803683370190505b5090506000826001600160401b038111156200082f576200082f62002d73565b6040519080825280602002602001820160405280156200086c57816020015b620008586200296f565b8152602001906001900390816200084e5790505b5090506000805b606a5481101562000ab3576000606a828154811062000896576200089662003015565b600091825260209182902060026005909202010154604080516303e1469160e61b815290516001600160a01b039092169350839263f851a440926004808401938290030181865afa9250505080156200090e575060408051601f3d908101601f191682019092526200090b91810190620030bc565b60015b62000919576200094a565b6001600160a01b03811660009081526070602052604090205460ff1615158a1515146200094857505062000a9e565b505b8185848151811062000960576200096062003015565b602002602001018181525050606a828154811062000982576200098262003015565b90600052602060002090600502016040518060a0016040529081600082018054620009ad90620030fc565b80601f0160208091040260200160405190810160405280929190818152602001828054620009db90620030fc565b801562000a2c5780601f1062000a005761010080835404028352916020019162000a2c565b820191906000526020600020905b81548152906001019060200180831162000a0e57829003601f168201915b505050918352505060018201546001600160a01b039081166020830152600283015416604082015260038201546060820152600490910154608090910152845185908590811062000a815762000a8162003015565b6020026020010181905250828062000a999062003041565b935050505b8062000aaa8162003041565b91505062000873565b5091969095509350505050565b6060806000805b606a5481101562000c1b576000606a828154811062000aea5762000aea62003015565b60009182526020918290206002600590920201015460408051630b09572160e41b815290516001600160a01b039092169350839263b0957210926004808401938290030181865afa92505050801562000b62575060408051601f3d908101601f1916820190925262000b5f91810190620030dc565b60015b62000b6d5762000bf5565b80158062000be55750604051634d8c928d60e11b81526001600160a01b038881166004830152831690639b19251a90602401602060405180830381865afa15801562000bbd573d6000803e3d6000fd5b505050506040513d601f19601f8201168201806040525081019062000be39190620030dc565b155b1562000bf357505062000c06565b505b8262000c018162003041565b935050505b8062000c128162003041565b91505062000ac7565b506000816001600160401b0381111562000c395762000c3962002d73565b60405190808252806020026020018201604052801562000c63578160200160208202803683370190505b5090506000826001600160401b0381111562000c835762000c8362002d73565b60405190808252806020026020018201604052801562000cc057816020015b62000cac6200296f565b81526020019060019003908162000ca25790505b5090506000805b606a5481101562000ab3576000606a828154811062000cea5762000cea62003015565b60009182526020918290206002600590920201015460408051630b09572160e41b815290516001600160a01b039092169350839263b0957210926004808401938290030181865afa92505050801562000d62575060408051601f3d908101601f1916820190925262000d5f91810190620030dc565b60015b62000d6d5762000df5565b80158062000de55750604051634d8c928d60e11b81526001600160a01b038b81166004830152831690639b19251a90602401602060405180830381865afa15801562000dbd573d6000803e3d6000fd5b505050506040513d601f19601f8201168201806040525081019062000de39190620030dc565b155b1562000df357505062000f49565b505b8185848151811062000e0b5762000e0b62003015565b602002602001018181525050606a828154811062000e2d5762000e2d62003015565b90600052602060002090600502016040518060a001604052908160008201805462000e5890620030fc565b80601f016020809104026020016040519081016040528092919081815260200182805462000e8690620030fc565b801562000ed75780601f1062000eab5761010080835404028352916020019162000ed7565b820191906000526020600020905b81548152906001019060200180831162000eb957829003601f168201915b505050918352505060018201546001600160a01b039081166020830152600283015416604082015260038201546060820152600490910154608090910152845185908590811062000f2c5762000f2c62003015565b6020026020010181905250828062000f449062003041565b935050505b8062000f558162003041565b91505062000cc7565b6060806000805b606a548110156200103b57606a818154811062000f865762000f8662003015565b60009182526020918290206002600590920201015460408051630b09572160e41b815290516001600160a01b039092169263b0957210926004808401938290030181865afa92505050801562000ffb575060408051601f3d908101601f1916820190925262000ff891810190620030dc565b60015b620010065762001016565b801562001014575062001026565b505b81620010228162003041565b9250505b80620010328162003041565b91505062000f65565b506000816001600160401b0381111562001059576200105962002d73565b60405190808252806020026020018201604052801562001083578160200160208202803683370190505b5090506000826001600160401b03811115620010a357620010a362002d73565b604051908082528060200260200182016040528015620010e057816020015b620010cc6200296f565b815260200190600190039081620010c25790505b5090506000805b606a548110156200130057606a818154811062001108576200110862003015565b60009182526020918290206002600590920201015460408051630b09572160e41b815290516001600160a01b039092169263b0957210926004808401938290030181865afa9250505080156200117d575060408051601f3d908101601f191682019092526200117a91810190620030dc565b60015b620011885762001198565b8015620011965750620012eb565b505b80848381518110620011ae57620011ae62003015565b602002602001018181525050606a8181548110620011d057620011d062003015565b90600052602060002090600502016040518060a0016040529081600082018054620011fb90620030fc565b80601f01602080910402602001604051908101604052809291908181526020018280546200122990620030fc565b80156200127a5780601f106200124e576101008083540402835291602001916200127a565b820191906000526020600020905b8154815290600101906020018083116200125c57829003601f168201915b505050918352505060018201546001600160a01b0390811660208301526002830154166040820152600382015460608201526004909101546080909101528351849084908110620012cf57620012cf62003015565b60200260200101819052508180620012e79062003041565b9250505b80620012f78162003041565b915050620010e7565b50919590945092505050565b6000806001600160a01b0389166200138d5760405162461bcd60e51b815260206004820152603960248201527f4e6f20436f6d7074726f6c6c657220696d706c656d656e746174696f6e20636f60448201527f6e74726163742061646472657373207370656369666965642e00000000000000606482015260840162000489565b6001600160a01b038316620013f85760405162461bcd60e51b815260206004820152602a60248201527f4e6f2050726963654f7261636c6520636f6e747261637420616464726573732060448201526939b832b1b4b334b2b21760b11b606482015260840162000489565b6000604051806020016200140c90620029b0565b601f1982820381018352601f9091011660408190526200143491908b908b9060200162003139565b60405160208183030381529060405290506000620014966000338e607160008154620014609062003041565b9182905550604051620014799392919060200162003163565b604051602081830303815290604052805190602001208462002448565b60405163e992a04160e01b81526001600160a01b038d81166004830152919250829182169063e992a041906024016020604051808303816000875af1158015620014e4573d6000803e3d6000fd5b505050506040513d601f19601f820116820180604052508101906200150a9190620031a4565b15620015755760405162461bcd60e51b815260206004820152603360248201527f4661696c656420746f207365742070656e64696e6720696d706c656d656e74616044820152723a34b7b71037b7102ab734ba3937b63632b91760691b606482015260840162000489565b604051630ea826e360e11b81526001600160a01b0382811660048301528d9190821690631d504dc690602401600060405180830381600087803b158015620015bc57600080fd5b505af1158015620015d1573d6000803e3d6000fd5b505060405163317b0b7760e01b8152600481018c90528592506001600160a01b038316915063317b0b77906024016020604051808303816000875af11580156200161f573d6000803e3d6000fd5b505050506040513d601f19601f82011682018060405250810190620016459190620031a4565b15620016945760405162461bcd60e51b815260206004820181905260248201527f4661696c656420746f2073657420706f6f6c20636c6f736520666163746f722e604482015260640162000489565b604051634fd42e1760e01b8152600481018a90526001600160a01b03821690634fd42e17906024016020604051808303816000875af1158015620016dc573d6000803e3d6000fd5b505050506040513d601f19601f82011682018060405250810190620017029190620031a4565b15620017635760405162461bcd60e51b815260206004820152602960248201527f4661696c656420746f2073657420706f6f6c206c69717569646174696f6e20696044820152683731b2b73a34bb329760b91b606482015260840162000489565b6040516355ee1fe160e01b81526001600160a01b0389811660048301528216906355ee1fe1906024016020604051808303816000875af1158015620017ac573d6000803e3d6000fd5b505050506040513d601f19601f82011682018060405250810190620017d29190620031a4565b15620018215760405162461bcd60e51b815260206004820181905260248201527f4661696c656420746f2073657420706f6f6c207072696365206f7261636c652e604482015260640162000489565b8a15620018fc57604051634a956fad60e11b8152600160048201526001600160a01b0382169063952adf5a906024016020604051808303816000875af115801562001870573d6000803e3d6000fd5b505050506040513d601f19601f82011682018060405250810190620018969190620031a4565b15620018fc5760405162461bcd60e51b815260206004820152602e60248201527f4661696c656420746f20656e666f72636520737570706c6965722f626f72726f60448201526d3bb2b9103bb434ba32b634b9ba1760911b606482015260840162000489565b604051636a9998b360e11b8152600160048201526001600160a01b0382169063d5333166906024016020604051808303816000875af115801562001944573d6000803e3d6000fd5b505050506040513d601f19601f820116820180604052508101906200196a9190620031a4565b15620019cd5760405162461bcd60e51b815260206004820152602b60248201527f4661696c656420746f20656e61626c6520706f6f6c206175746f20696d706c6560448201526a36b2b73a30ba34b7b7399760a91b606482015260840162000489565b604051632dc7468360e21b81523360048201526001600160a01b0384169063b71d1a0c906024016020604051808303816000875af115801562001a14573d6000803e3d6000fd5b505050506040513d601f19601f8201168201806040525081019062001a3a9190620031a4565b1562001a9c5760405162461bcd60e51b815260206004820152602a60248201527f4661696c656420746f207365742070656e64696e672061646d696e206f6e20556044820152693734ba3937b63632b91760b11b606482015260840162000489565b62001aa88f8562002558565b9f939e50929c50505050505050505050505050565b62001ac7620023ea565b606580546001600160a01b038381166001600160a01b031983168117909355604080519190921680825260208201939093527fb3d55174552271a4f1aaf36b72f50381e892171636b3fb5447fe00e995e7a37b91015b60405180910390a15050565b62001b33620023ea565b60405162461bcd60e51b815260206004820152601060248201526f6e6f74207573656420616e796d6f726560801b604482015260640162000489565b62001b79620023ea565b8162001bc15760405162461bcd60e51b81526020600482015260166024820152752737903232b83637bcb2b9399039bab8383634b2b21760511b604482015260640162000489565b60005b8281101562001c3b5781606e600086868581811062001be75762001be762003015565b905060200201602081019062001bfe919062002b4c565b6001600160a01b031681526020810191909152604001600020805460ff19169115159190911790558062001c328162003041565b91505062001bc4565b50505050565b6001600160a01b0381166000908152606b602052604081205460609182916001600160401b0381111562001c795762001c7962002d73565b60405190808252806020026020018201604052801562001ca3578160200160208202803683370190505b506001600160a01b0385166000908152606b6020526040812054919250906001600160401b0381111562001cdb5762001cdb62002d73565b60405190808252806020026020018201604052801562001d1857816020015b62001d046200296f565b81526020019060019003908162001cfa5790505b50905060005b6001600160a01b0386166000908152606b602052604090205481101562001f11576001600160a01b0386166000908152606b6020526040902080548290811062001d6c5762001d6c62003015565b906000526020600020015483828151811062001d8c5762001d8c62003015565b602002602001018181525050606a606b6000886001600160a01b03166001600160a01b03168152602001908152602001600020828154811062001dd35762001dd362003015565b90600052602060002001548154811062001df15762001df162003015565b90600052602060002090600502016040518060a001604052908160008201805462001e1c90620030fc565b80601f016020809104026020016040519081016040528092919081815260200182805462001e4a90620030fc565b801562001e9b5780601f1062001e6f5761010080835404028352916020019162001e9b565b820191906000526020600020905b81548152906001019060200180831162001e7d57829003601f168201915b505050918352505060018201546001600160a01b039081166020830152600283015416604082015260038201546060820152600490910154608090910152825183908390811062001ef05762001ef062003015565b6020026020010181905250808062001f089062003041565b91505062001d1e565b509094909350915050565b606a818154811062001f2d57600080fd5b906000526020600020906005020160009150905080600001805462001f5290620030fc565b80601f016020809104026020016040519081016040528092919081815260200182805462001f8090620030fc565b801562001fd15780601f1062001fa55761010080835404028352916020019162001fd1565b820191906000526020600020905b81548152906001019060200180831162001fb357829003601f168201915b5050505060018301546002840154600385015460049095015493946001600160a01b03928316949290911692509085565b600054610100900460ff1615808015620020235750600054600160ff909116105b806200203f5750303b1580156200203f575060005460ff166001145b620020a45760405162461bcd60e51b815260206004820152602e60248201527f496e697469616c697a61626c653a20636f6e747261637420697320616c72656160448201526d191e481a5b9a5d1a585b1a5e995960921b606482015260840162000489565b6000805460ff191660011790558015620020c8576000805461ff0019166101001790555b620020d262002825565b606d805460ff191684151517905560005b82518110156200214f576001606e600085848151811062002108576200210862003015565b6020908102919091018101516001600160a01b03168252810191909152604001600020805460ff191691151591909117905580620021468162003041565b915050620020e3565b50801562002194576000805461ff0019169055604051600181527f7f26b83ff96e1f2b6a682f133852f6798a09c465da95921460cefb38474024989060200162000542565b505050565b6060606a805480602002602001604051908101604052809291908181526020016000905b82821015620022c757838290600052602060002090600502016040518060a0016040529081600082018054620021f390620030fc565b80601f01602080910402602001604051908101604052809291908181526020018280546200222190620030fc565b8015620022725780601f10620022465761010080835404028352916020019162002272565b820191906000526020600020905b8154815290600101906020018083116200225457829003601f168201915b50505091835250506001828101546001600160a01b03908116602080850191909152600285015490911660408401526003840154606084015260049093015460809092019190915291835292019101620021bd565b50505050905090565b6065546001600160a01b03163314620023245760405162461bcd60e51b81526020600482015260156024820152743737ba103a3432903832b73234b7339037bbb732b960591b604482015260640162000489565b6000620023396033546001600160a01b031690565b6065549091506001600160a01b0316620023538162002859565b606580546001600160a01b0319169055604080516001600160a01b0384168152600060208201527f70aea8d848e8a90fb7661b227dc522eb6395c3dac71b63cb59edd5c9899b2364910160405180910390a1606554604080516001600160a01b03808516825290921660208301527fb3d55174552271a4f1aaf36b72f50381e892171636b3fb5447fe00e995e7a37b910162001b1d565b6033546001600160a01b03163314620024465760405162461bcd60e51b815260206004820181905260248201527f4f776e61626c653a2063616c6c6572206973206e6f7420746865206f776e6572604482015260640162000489565b565b600080844710156200249d5760405162461bcd60e51b815260206004820152601d60248201527f437265617465323a20696e73756666696369656e742062616c616e6365000000604482015260640162000489565b8251620024ed5760405162461bcd60e51b815260206004820181905260248201527f437265617465323a2062797465636f6465206c656e677468206973207a65726f604482015260640162000489565b8383516020850187f590506001600160a01b038116620025505760405162461bcd60e51b815260206004820152601960248201527f437265617465323a204661696c6564206f6e206465706c6f7900000000000000604482015260640162000489565b949350505050565b6001600160a01b0381166000908152606c602052604081205460ff1615620025d15760405162461bcd60e51b815260206004820152602560248201527f506f6f6c20616c72656164792065786973747320696e207468652064697265636044820152643a37b93c9760d91b606482015260840162000489565b606d5460ff161580620025f35750336000908152606e602052604090205460ff165b6200264d5760405162461bcd60e51b8152602060048201526024808201527f53656e646572206973206e6f74206f6e206465706c6f7965722077686974656c60448201526334b9ba1760e11b606482015260840162000489565b6064835111156200269a5760405162461bcd60e51b81526020600482015260166024820152752737903837b7b6103730b6b29039bab8383634b2b21760511b604482015260640162000489565b6040805160a081018252848152336020808301919091526001600160a01b03851692820192909252436060820152426080820152606a8054600181018255600091909152815180519293849360059093027f116fea137db6e131133e7f2bab296045d8f41cc5607279db17b218cab0929a5101926200271d9284920190620029be565b50602082810151600183810180546001600160a01b03199081166001600160a01b0394851617909155604080870151600287018054909316941693909317905560608501516003850155608090940151600490930192909255336000908152606b90915220606a5490916200279291620031be565b81546001818101845560009384526020808520909201929092556001600160a01b0386168352606c90526040909120805460ff191682179055606a547f18075ab463b4dc5842f37ecd67abeb192eda5d073f2c08509e189ad173d5c02091620027fb91620031be565b826040516200280c929190620031d8565b60405180910390a1606a546200255090600190620031be565b600054610100900460ff166200284f5760405162461bcd60e51b81526004016200048990620031f3565b62002446620028ab565b603380546001600160a01b038381166001600160a01b0319831681179093556040519116919082907f8be0079c531659141344cd1fd0a4f28419497f9722a3daafe3b4186f6b6457e090600090a35050565b600054610100900460ff16620028d55760405162461bcd60e51b81526004016200048990620031f3565b620024463362002859565b828054620028ee90620030fc565b90600052602060002090601f0160209004810192826200291257600085556200295d565b82601f106200292d5782800160ff198235161785556200295d565b828001600101855582156200295d579182015b828111156200295d57823582559160200191906001019062002940565b506200296b92915062002a3b565b5090565b6040518060a001604052806060815260200160006001600160a01b0316815260200160006001600160a01b0316815260200160008152602001600081525090565b610ad4806200323f83390190565b828054620029cc90620030fc565b90600052602060002090601f016020900481019282620029f057600085556200295d565b82601f1062002a0b57805160ff19168380011785556200295d565b828001600101855582156200295d579182015b828111156200295d57825182559160200191906001019062002a1e565b5b808211156200296b576000815560010162002a3c565b801515811462002a6157600080fd5b50565b803562002a718162002a52565b919050565b60006020828403121562002a8957600080fd5b813562002a968162002a52565b9392505050565b60008060006040848603121562002ab357600080fd5b83356001600160401b038082111562002acb57600080fd5b818601915086601f83011262002ae057600080fd5b81358181111562002af057600080fd5b8760208260051b850101111562002b0657600080fd5b6020928301955093505084013562002b1e8162002a52565b809150509250925092565b6001600160a01b038116811462002a6157600080fd5b803562002a718162002b29565b60006020828403121562002b5f57600080fd5b813562002a968162002b29565b60008083601f84011262002b7f57600080fd5b5081356001600160401b0381111562002b9757600080fd5b60208301915083602082850101111562002bb057600080fd5b9250929050565b60008060006040848603121562002bcd57600080fd5b8335925060208401356001600160401b0381111562002beb57600080fd5b62002bf98682870162002b6c565b9497909650939450505050565b60005b8381101562002c2357818101518382015260200162002c09565b8381111562001c3b5750506000910152565b6000815180845262002c4f81602086016020860162002c06565b601f01601f19169290920160200192915050565b6000815160a0845262002c7a60a085018262002c35565b9050602083015160018060a01b038082166020870152806040860151166040870152505060608301516060850152608083015160808501528091505092915050565b600082825180855260208086019550808260051b84010181860160005b8481101562002d0b57601f1986840301895262002cf883835162002c63565b9884019892509083019060010162002cd9565b5090979650505050505050565b604080825283519082018190526000906020906060840190828701845b8281101562002d535781518452928401929084019060010162002d35565b5050508381038285015262002d69818662002cbc565b9695505050505050565b634e487b7160e01b600052604160045260246000fd5b604051601f8201601f191681016001600160401b038111828210171562002db45762002db462002d73565b604052919050565b60008060008060008060008060e0898b03121562002dd957600080fd5b88356001600160401b038082111562002df157600080fd5b818b0191508b601f83011262002e0657600080fd5b813560208282111562002e1d5762002e1d62002d73565b62002e31601f8301601f1916820162002d89565b8281528e8284870101111562002e4657600080fd5b828286018383013760008184018301529b5062002e658d820162002b3f565b9a50505060408b013591508082111562002e7e57600080fd5b5062002e8d8b828c0162002b6c565b909750955062002ea2905060608a0162002a64565b93506080890135925060a0890135915062002ec060c08a0162002b3f565b90509295985092959890939650565b60006020828403121562002ee257600080fd5b5035919050565b60a08152600062002efe60a083018862002c35565b6001600160a01b039687166020840152949095166040820152606081019290925260809091015292915050565b6000806040838503121562002f3f57600080fd5b823562002f4c8162002a52565b91506020838101356001600160401b038082111562002f6a57600080fd5b818601915086601f83011262002f7f57600080fd5b81358181111562002f945762002f9462002d73565b8060051b915062002fa784830162002d89565b818152918301840191848101908984111562002fc257600080fd5b938501935b8385101562002ff0578435925062002fdf8362002b29565b828252938501939085019062002fc7565b8096505050505050509250929050565b60208152600062002a96602083018462002cbc565b634e487b7160e01b600052603260045260246000fd5b634e487b7160e01b600052601160045260246000fd5b60006000198214156200305857620030586200302b565b5060010190565b6040808252810183905260008460608301825b86811015620030a6578235620030888162002b29565b6001600160a01b031682526020928301929091019060010162003072565b5080925050508215156020830152949350505050565b600060208284031215620030cf57600080fd5b815162002a968162002b29565b600060208284031215620030ef57600080fd5b815162002a968162002a52565b600181811c908216806200311157607f821691505b602082108114156200313357634e487b7160e01b600052602260045260246000fd5b50919050565b600084516200314d81846020890162002c06565b8201838582376000930192835250909392505050565b6bffffffffffffffffffffffff198460601b168152600083516200318f81601485016020880162002c06565b60149201918201929092526034019392505050565b600060208284031215620031b757600080fd5b5051919050565b600082821015620031d357620031d36200302b565b500390565b82815260406020820152600062002550604083018462002c63565b6020808252602b908201527f496e697469616c697a61626c653a20636f6e7472616374206973206e6f74206960408201526a6e697469616c697a696e6760a81b60608201526080019056fe60806040526002805461ffff60a01b191661010160a01b17905534801561002557600080fd5b50604051610ad4380380610ad483398101604081905261004491610077565b60018054336001600160a01b031991821617909155600080549091166001600160a01b03929092169190911790556100a7565b60006020828403121561008957600080fd5b81516001600160a01b03811681146100a057600080fd5b9392505050565b610a1e806100b66000396000f3fe6080604052600436106100a75760003560e01c8063bb82aa5e11610064578063bb82aa5e146103b5578063c1e80334146103d5578063dcfbc0c7146103ea578063e992a0411461040a578063e9c714f21461042a578063f851a4401461043f576100a7565b80630225ab9d146102b85780630a755ec2146102eb57806315761d511461031c57806326782247146103545780632f1069ba14610374578063b71d1a0c14610395575b33301461023d5760408051600481526024810182526020810180516001600160e01b0316633757348b60e21b1790529051600091829130916100e8916108fc565b600060405180830381855afa9150503d8060008114610123576040519150601f19603f3d011682016040523d82523d6000602084013e610128565b606091505b50915091506000821561014c57818060200190518101906101499190610948565b90505b8015610239576000805460035460405163bbcdd6d360e01b81526001600160a01b03918216600482015291169063bbcdd6d390602401602060405180830381865afa15801561019f573d6000803e3d6000fd5b505050506040513d601f19601f820116820180604052508101906101c3919061097a565b6003549091506001600160a01b0380831691161461023757600380546001600160a01b038381166001600160a01b0319831681179093556040519116917fd604de94d45953f9138079ec1b82d533cb2160c906d1076d1f7ed54befbca97a9161022d918491610997565b60405180910390a1505b505b5050505b6003546040516000916001600160a01b03169061025d90839036906109b1565b600060405180830381855af49150503d8060008114610298576040519150601f19603f3d011682016040523d82523d6000602084013e61029d565b606091505b505090506040513d6000823e8180156102b4573d82f35b3d82fd5b3480156102c457600080fd5b506102d86102d33660046109c1565b61045f565b6040519081526020015b60405180910390f35b3480156102f757600080fd5b5060025461030c90600160a81b900460ff1681565b60405190151581526020016102e2565b34801561032857600080fd5b5060005461033c906001600160a01b031681565b6040516001600160a01b0390911681526020016102e2565b34801561036057600080fd5b5060025461033c906001600160a01b031681565b34801561038057600080fd5b5060025461030c90600160a01b900460ff1681565b3480156103a157600080fd5b506102d86103b03660046109de565b6104fb565b3480156103c157600080fd5b5060035461033c906001600160a01b031681565b3480156103e157600080fd5b506102d861057a565b3480156103f657600080fd5b5060045461033c906001600160a01b031681565b34801561041657600080fd5b506102d86104253660046109de565b61066c565b34801561043657600080fd5b506102d861075f565b34801561044b57600080fd5b5060015461033c906001600160a01b031681565b6000610469610831565b61047f5761047960016005610883565b92915050565b60025460ff600160a81b909104161515821515141561049f576000610479565b60028054831515600160a81b0260ff60a81b199091161790556040517f10f9a0a95673b0837d1dce21fd3bffcb6d760435e9b5300b75a271182f75f822906104ec90841515815260200190565b60405180910390a16000610479565b6000610505610831565b6105155761047960016010610883565b600280546001600160a01b038481166001600160a01b03198316179092556040519116907fca4f2f25d0898edd99413412fb94012f9e54ec8142f9b093e7720646a95b16a9906105689083908690610997565b60405180910390a160005b9392505050565b6004546000906001600160a01b0316331415806105a057506004546001600160a01b0316155b156105b5576105b0600180610883565b905090565b60038054600480546001600160a01b03198084166001600160a01b03838116918217909655911690915560405192909116917fd604de94d45953f9138079ec1b82d533cb2160c906d1076d1f7ed54befbca97a906106169084908490610997565b60405180910390a16004546040517fe945ccee5d701fc83f9b8aa8ca94ea4219ec1fcbd4f4cab4f0ea57c5c3e1d8159161065b9184916001600160a01b031690610997565b60405180910390a160009250505090565b6000610676610831565b6106865761047960016012610883565b600054600354604051639d244f9f60e01b81526001600160a01b0392831692639d244f9f926106bc929116908690600401610997565b602060405180830381865afa1580156106d9573d6000803e3d6000fd5b505050506040513d601f19601f820116820180604052508101906106fd9190610948565b61070d5761047960016011610883565b600480546001600160a01b038481166001600160a01b0319831681179093556040519116917fe945ccee5d701fc83f9b8aa8ca94ea4219ec1fcbd4f4cab4f0ea57c5c3e1d81591610568918491610997565b6002546000906001600160a01b03163314158061077a575033155b1561078b576105b060016000610883565b60018054600280546001600160a01b03198084166001600160a01b03838116918217909655911690915560405192909116917ff9ffabca9c8276e99321725bcb43fb076a6c66a54b7f21c4e8146d8519b417dc906107ec9084908490610997565b60405180910390a16002546040517fca4f2f25d0898edd99413412fb94012f9e54ec8142f9b093e7720646a95b16a99161065b9184916001600160a01b031690610997565b6001546000906001600160a01b0316331480156108575750600254600160a81b900460ff165b806105b057506000546001600160a01b0316331480156105b0575050600254600160a01b900460ff1690565b60007f45b96fe442630264581b197e84bbada861235052c5a1aadfff9ea4e40a969aa08360158111156108b8576108b86109fb565b83601b8111156108ca576108ca6109fb565b60408051928352602083019190915260009082015260600160405180910390a1826015811115610573576105736109fb565b6000825160005b8181101561091d5760208186018101518583015201610903565b8181111561092c576000828501525b509190910192915050565b801515811461094557600080fd5b50565b60006020828403121561095a57600080fd5b815161057381610937565b6001600160a01b038116811461094557600080fd5b60006020828403121561098c57600080fd5b815161057381610965565b6001600160a01b0392831681529116602082015260400190565b8183823760009101908152919050565b6000602082840312156109d357600080fd5b813561057381610937565b6000602082840312156109f057600080fd5b813561057381610965565b634e487b7160e01b600052602160045260246000fdfea164736f6c634300080a000aa164736f6c634300080a000a",
    "linkReferences": {}
  },
  "methodIdentifiers": {
    "_acceptOwner()": "fc4d33f9",
    "_editAdminWhitelist(address[],bool)": "0a83d1b0",
    "_editDeployerWhitelist(address[],bool)": "a155497c",
    "_resetGap()": "c2bd5c2e",
    "_setDeployerWhitelistEnforcement(bool)": "04f03c6f",
    "_setPendingOwner(address)": "6e96dfd7",
    "adminWhitelist(address)": "43e20a1d",
    "deployPool(string,address,bytes,bool,uint256,uint256,address)": "58b896d3",
    "deployerWhitelist(address)": "a970e76c",
    "enforceDeployerWhitelist()": "26bb81d7",
    "getAllPools()": "d88ff1f4",
    "getPoolsByAccount(address)": "a3ed91c6",
    "getPublicPools()": "4ae26ea1",
    "getPublicPoolsByVerification(bool)": "218a3bbe",
    "getVerifiedPoolsOfWhitelistedAccount(address)": "448ca558",
    "initialize(bool,address[])": "b86579d4",
    "owner()": "8da5cb5b",
    "pendingOwner()": "e30c3978",
    "poolExists(address)": "1e1c6a07",
    "pools(uint256)": "ac4afa38",
    "poolsCounter()": "5d0eb31a",
    "renounceOwnership()": "715018a6",
    "setPoolName(uint256,string)": "20c32bfe",
    "transferOwnership(address)": "f2fde38b"
  }
}