{
  "address": "0x2E6Ecc01bbc07086F3c3411Bf7165694eC97b6fb",
  "abi": [
    {
      "anonymous": false,
      "inputs": [
        {
          "indexed": false,
          "internalType": "address[]",
          "name": "admins",
          "type": "address[]"
        },
        {
          "indexed": false,
          "internalType": "bool",
          "name": "status",
          "type": "bool"
        }
      ],
      "name": "AdminWhitelistUpdated",
      "type": "event"
    },
    {
      "anonymous": false,
      "inputs": [
        {
          "indexed": false,
          "internalType": "uint8",
          "name": "version",
          "type": "uint8"
        }
      ],
      "name": "Initialized",
      "type": "event"
    },
    {
      "anonymous": false,
      "inputs": [
        {
          "indexed": false,
          "internalType": "address",
          "name": "oldOwner",
          "type": "address"
        },
        {
          "indexed": false,
          "internalType": "address",
          "name": "newOwner",
          "type": "address"
        }
      ],
      "name": "NewOwner",
      "type": "event"
    },
    {
      "anonymous": false,
      "inputs": [
        {
          "indexed": false,
          "internalType": "address",
          "name": "oldPendingOwner",
          "type": "address"
        },
        {
          "indexed": false,
          "internalType": "address",
          "name": "newPendingOwner",
          "type": "address"
        }
      ],
      "name": "NewPendingOwner",
      "type": "event"
    },
    {
      "anonymous": false,
      "inputs": [
        {
          "indexed": true,
          "internalType": "address",
          "name": "previousOwner",
          "type": "address"
        },
        {
          "indexed": true,
          "internalType": "address",
          "name": "newOwner",
          "type": "address"
        }
      ],
      "name": "OwnershipTransferred",
      "type": "event"
    },
    {
      "anonymous": false,
      "inputs": [
        {
          "indexed": false,
          "internalType": "uint256",
          "name": "index",
          "type": "uint256"
        },
        {
          "components": [
            {
              "internalType": "string",
              "name": "name",
              "type": "string"
            },
            {
              "internalType": "address",
              "name": "creator",
              "type": "address"
            },
            {
              "internalType": "address",
              "name": "comptroller",
              "type": "address"
            },
            {
              "internalType": "uint256",
              "name": "blockPosted",
              "type": "uint256"
            },
            {
              "internalType": "uint256",
              "name": "timestampPosted",
              "type": "uint256"
            }
          ],
          "indexed": false,
          "internalType": "struct FusePoolDirectory.FusePool",
          "name": "pool",
          "type": "tuple"
        }
      ],
      "name": "PoolRegistered",
      "type": "event"
    },
    {
      "inputs": [],
      "name": "_acceptOwner",
      "outputs": [],
      "stateMutability": "nonpayable",
      "type": "function"
    },
    {
      "inputs": [
        {
          "internalType": "address[]",
          "name": "admins",
          "type": "address[]"
        },
        {
          "internalType": "bool",
          "name": "status",
          "type": "bool"
        }
      ],
      "name": "_editAdminWhitelist",
      "outputs": [],
      "stateMutability": "nonpayable",
      "type": "function"
    },
    {
      "inputs": [
        {
          "internalType": "address[]",
          "name": "deployers",
          "type": "address[]"
        },
        {
          "internalType": "bool",
          "name": "status",
          "type": "bool"
        }
      ],
      "name": "_editDeployerWhitelist",
      "outputs": [],
      "stateMutability": "nonpayable",
      "type": "function"
    },
    {
      "inputs": [],
      "name": "_resetGap",
      "outputs": [],
      "stateMutability": "nonpayable",
      "type": "function"
    },
    {
      "inputs": [
        {
          "internalType": "bool",
          "name": "enforce",
          "type": "bool"
        }
      ],
      "name": "_setDeployerWhitelistEnforcement",
      "outputs": [],
      "stateMutability": "nonpayable",
      "type": "function"
    },
    {
      "inputs": [
        {
          "internalType": "address",
          "name": "newPendingOwner",
          "type": "address"
        }
      ],
      "name": "_setPendingOwner",
      "outputs": [],
      "stateMutability": "nonpayable",
      "type": "function"
    },
    {
      "inputs": [
        {
          "internalType": "address",
          "name": "",
          "type": "address"
        }
      ],
      "name": "adminWhitelist",
      "outputs": [
        {
          "internalType": "bool",
          "name": "",
          "type": "bool"
        }
      ],
      "stateMutability": "view",
      "type": "function"
    },
    {
      "inputs": [
        {
          "internalType": "string",
          "name": "name",
          "type": "string"
        },
        {
          "internalType": "address",
          "name": "implementation",
          "type": "address"
        },
        {
          "internalType": "bytes",
          "name": "constructorData",
          "type": "bytes"
        },
        {
          "internalType": "bool",
          "name": "enforceWhitelist",
          "type": "bool"
        },
        {
          "internalType": "uint256",
          "name": "closeFactor",
          "type": "uint256"
        },
        {
          "internalType": "uint256",
          "name": "liquidationIncentive",
          "type": "uint256"
        },
        {
          "internalType": "address",
          "name": "priceOracle",
          "type": "address"
        }
      ],
      "name": "deployPool",
      "outputs": [
        {
          "internalType": "uint256",
          "name": "",
          "type": "uint256"
        },
        {
          "internalType": "address",
          "name": "",
          "type": "address"
        }
      ],
      "stateMutability": "nonpayable",
      "type": "function"
    },
    {
      "inputs": [
        {
          "internalType": "address",
          "name": "",
          "type": "address"
        }
      ],
      "name": "deployerWhitelist",
      "outputs": [
        {
          "internalType": "bool",
          "name": "",
          "type": "bool"
        }
      ],
      "stateMutability": "view",
      "type": "function"
    },
    {
      "inputs": [],
      "name": "enforceDeployerWhitelist",
      "outputs": [
        {
          "internalType": "bool",
          "name": "",
          "type": "bool"
        }
      ],
      "stateMutability": "view",
      "type": "function"
    },
    {
      "inputs": [],
      "name": "getAllPools",
      "outputs": [
        {
          "components": [
            {
              "internalType": "string",
              "name": "name",
              "type": "string"
            },
            {
              "internalType": "address",
              "name": "creator",
              "type": "address"
            },
            {
              "internalType": "address",
              "name": "comptroller",
              "type": "address"
            },
            {
              "internalType": "uint256",
              "name": "blockPosted",
              "type": "uint256"
            },
            {
              "internalType": "uint256",
              "name": "timestampPosted",
              "type": "uint256"
            }
          ],
          "internalType": "struct FusePoolDirectory.FusePool[]",
          "name": "",
          "type": "tuple[]"
        }
      ],
      "stateMutability": "view",
      "type": "function"
    },
    {
      "inputs": [
        {
          "internalType": "address",
          "name": "account",
          "type": "address"
        }
      ],
      "name": "getPoolsByAccount",
      "outputs": [
        {
          "internalType": "uint256[]",
          "name": "",
          "type": "uint256[]"
        },
        {
          "components": [
            {
              "internalType": "string",
              "name": "name",
              "type": "string"
            },
            {
              "internalType": "address",
              "name": "creator",
              "type": "address"
            },
            {
              "internalType": "address",
              "name": "comptroller",
              "type": "address"
            },
            {
              "internalType": "uint256",
              "name": "blockPosted",
              "type": "uint256"
            },
            {
              "internalType": "uint256",
              "name": "timestampPosted",
              "type": "uint256"
            }
          ],
          "internalType": "struct FusePoolDirectory.FusePool[]",
          "name": "",
          "type": "tuple[]"
        }
      ],
      "stateMutability": "view",
      "type": "function"
    },
    {
      "inputs": [
        {
          "internalType": "address",
          "name": "user",
          "type": "address"
        }
      ],
      "name": "getPoolsOfUser",
      "outputs": [
        {
          "internalType": "uint256[]",
          "name": "",
          "type": "uint256[]"
        },
        {
          "components": [
            {
              "internalType": "string",
              "name": "name",
              "type": "string"
            },
            {
              "internalType": "address",
              "name": "creator",
              "type": "address"
            },
            {
              "internalType": "address",
              "name": "comptroller",
              "type": "address"
            },
            {
              "internalType": "uint256",
              "name": "blockPosted",
              "type": "uint256"
            },
            {
              "internalType": "uint256",
              "name": "timestampPosted",
              "type": "uint256"
            }
          ],
          "internalType": "struct FusePoolDirectory.FusePool[]",
          "name": "",
          "type": "tuple[]"
        }
      ],
      "stateMutability": "view",
      "type": "function"
    },
    {
      "inputs": [],
      "name": "getPublicPools",
      "outputs": [
        {
          "internalType": "uint256[]",
          "name": "",
          "type": "uint256[]"
        },
        {
          "components": [
            {
              "internalType": "string",
              "name": "name",
              "type": "string"
            },
            {
              "internalType": "address",
              "name": "creator",
              "type": "address"
            },
            {
              "internalType": "address",
              "name": "comptroller",
              "type": "address"
            },
            {
              "internalType": "uint256",
              "name": "blockPosted",
              "type": "uint256"
            },
            {
              "internalType": "uint256",
              "name": "timestampPosted",
              "type": "uint256"
            }
          ],
          "internalType": "struct FusePoolDirectory.FusePool[]",
          "name": "",
          "type": "tuple[]"
        }
      ],
      "stateMutability": "view",
      "type": "function"
    },
    {
      "inputs": [
        {
          "internalType": "bool",
          "name": "whitelistedAdmin",
          "type": "bool"
        }
      ],
      "name": "getPublicPoolsByVerification",
      "outputs": [
        {
          "internalType": "uint256[]",
          "name": "",
          "type": "uint256[]"
        },
        {
          "components": [
            {
              "internalType": "string",
              "name": "name",
              "type": "string"
            },
            {
              "internalType": "address",
              "name": "creator",
              "type": "address"
            },
            {
              "internalType": "address",
              "name": "comptroller",
              "type": "address"
            },
            {
              "internalType": "uint256",
              "name": "blockPosted",
              "type": "uint256"
            },
            {
              "internalType": "uint256",
              "name": "timestampPosted",
              "type": "uint256"
            }
          ],
          "internalType": "struct FusePoolDirectory.FusePool[]",
          "name": "",
          "type": "tuple[]"
        }
      ],
      "stateMutability": "view",
      "type": "function"
    },
    {
      "inputs": [
        {
          "internalType": "address",
          "name": "account",
          "type": "address"
        }
      ],
      "name": "getVerifiedPoolsOfWhitelistedAccount",
      "outputs": [
        {
          "internalType": "uint256[]",
          "name": "",
          "type": "uint256[]"
        },
        {
          "components": [
            {
              "internalType": "string",
              "name": "name",
              "type": "string"
            },
            {
              "internalType": "address",
              "name": "creator",
              "type": "address"
            },
            {
              "internalType": "address",
              "name": "comptroller",
              "type": "address"
            },
            {
              "internalType": "uint256",
              "name": "blockPosted",
              "type": "uint256"
            },
            {
              "internalType": "uint256",
              "name": "timestampPosted",
              "type": "uint256"
            }
          ],
          "internalType": "struct FusePoolDirectory.FusePool[]",
          "name": "",
          "type": "tuple[]"
        }
      ],
      "stateMutability": "view",
      "type": "function"
    },
    {
      "inputs": [
        {
          "internalType": "bool",
          "name": "_enforceDeployerWhitelist",
          "type": "bool"
        },
        {
          "internalType": "address[]",
          "name": "_deployerWhitelist",
          "type": "address[]"
        }
      ],
      "name": "initialize",
      "outputs": [],
      "stateMutability": "nonpayable",
      "type": "function"
    },
    {
      "inputs": [],
      "name": "owner",
      "outputs": [
        {
          "internalType": "address",
          "name": "",
          "type": "address"
        }
      ],
      "stateMutability": "view",
      "type": "function"
    },
    {
      "inputs": [],
      "name": "pendingOwner",
      "outputs": [
        {
          "internalType": "address",
          "name": "",
          "type": "address"
        }
      ],
      "stateMutability": "view",
      "type": "function"
    },
    {
      "inputs": [
        {
          "internalType": "address",
          "name": "",
          "type": "address"
        }
      ],
      "name": "poolExists",
      "outputs": [
        {
          "internalType": "bool",
          "name": "",
          "type": "bool"
        }
      ],
      "stateMutability": "view",
      "type": "function"
    },
    {
      "inputs": [
        {
          "internalType": "uint256",
          "name": "",
          "type": "uint256"
        }
      ],
      "name": "pools",
      "outputs": [
        {
          "internalType": "string",
          "name": "name",
          "type": "string"
        },
        {
          "internalType": "address",
          "name": "creator",
          "type": "address"
        },
        {
          "internalType": "address",
          "name": "comptroller",
          "type": "address"
        },
        {
          "internalType": "uint256",
          "name": "blockPosted",
          "type": "uint256"
        },
        {
          "internalType": "uint256",
          "name": "timestampPosted",
          "type": "uint256"
        }
      ],
      "stateMutability": "view",
      "type": "function"
    },
    {
      "inputs": [],
      "name": "poolsCounter",
      "outputs": [
        {
          "internalType": "uint256",
          "name": "",
          "type": "uint256"
        }
      ],
      "stateMutability": "view",
      "type": "function"
    },
    {
      "inputs": [],
      "name": "renounceOwnership",
      "outputs": [],
      "stateMutability": "nonpayable",
      "type": "function"
    },
    {
      "inputs": [
        {
          "internalType": "uint256",
          "name": "index",
          "type": "uint256"
        },
        {
          "internalType": "string",
          "name": "name",
          "type": "string"
        }
      ],
      "name": "setPoolName",
      "outputs": [],
      "stateMutability": "nonpayable",
      "type": "function"
    },
    {
      "inputs": [
        {
          "internalType": "address",
          "name": "newOwner",
          "type": "address"
        }
      ],
      "name": "transferOwnership",
      "outputs": [],
      "stateMutability": "nonpayable",
      "type": "function"
    }
  ],
  "transactionHash": "0xdc6573cb6a56626f2ab4e42831b6a0ac73adaea139449f89af60f7540816894b",
  "args": [],
  "numDeployments": 20,
  "bytecode": {
    "object": "0x608060405234801561001057600080fd5b5061412a806100206000396000f3fe60806040523480156200001157600080fd5b5060043610620001925760003560e01c8063715018a611620000f0578063b86579d411620000a3578063e30c3978116200007a578063e30c3978146200040a578063f2fde38b146200041e578063f348960d1462000435578063fc4d33f9146200044c57600080fd5b8063b86579d414620003a8578063c2bd5c2e14620003bf578063d88ff1f414620003f157600080fd5b8063715018a614620002fa5780638da5cb5b1462000304578063a155497c146200032a578063a3ed91c61462000341578063a970e76c1462000358578063ac4afa38146200037e57600080fd5b806343e20a1d116200014957806343e20a1d146200024e578063448ca55814620002745780634ae26ea1146200028b57806358b896d314620002955780635d0eb31a14620002ca5780636e96dfd714620002e357600080fd5b806304f03c6f14620001975780630a83d1b014620001b05780631e1c6a0714620001c757806320c32bfe1462000202578063218a3bbe146200021957806326bb81d71462000240575b600080fd5b620001ae620001a836600462002e88565b62000456565b005b620001ae620001c136600462002ea8565b62000473565b620001ed620001d836600462002f57565b606c6020526000908152604090205460ff1681565b60405190151581526020015b60405180910390f35b620001ae6200021336600462002fc2565b62000583565b620002306200022a36600462002e88565b620006f7565b604051620001f992919062003123565b606d54620001ed9060ff1681565b620001ed6200025f36600462002f57565b60706020526000908152604090205460ff1681565b620002306200028536600462002f57565b62000af4565b6200023062000f92565b620002ac620002a6366004620031c7565b62001340565b604080519283526001600160a01b03909116602083015201620001f9565b620002d460715481565b604051908152602001620001f9565b620001ae620002f436600462002f57565b62001af1565b620001ae62001b5d565b6033546001600160a01b03165b6040516001600160a01b039091168152602001620001f9565b620001ae6200033b36600462002ea8565b62001ba3565b620002306200035236600462002f57565b62001c75565b620001ed6200036936600462002f57565b606e6020526000908152604090205460ff1681565b620003956200038f366004620032da565b62001f50565b604051620001f9959493929190620032f4565b620001ae620003b936600462003336565b62002036565b620001ae606680546001600160a01b031990811690915560678054821690556068805482169055606980549091169055565b620003fb620021cd565b604051620001f991906200340b565b60655462000311906001600160a01b031681565b620001ae6200042f36600462002f57565b62001b5d565b620002306200044636600462002f57565b62002304565b620001ae620026ae565b62000460620027c8565b606d805460ff1916911515919091179055565b6200047d620027c8565b81620004c65760405162461bcd60e51b815260206004820152601360248201527227379030b236b4b7399039bab8383634b2b21760691b60448201526064015b60405180910390fd5b60005b8281101562000540578160706000868685818110620004ec57620004ec62003420565b905060200201602081019062000503919062002f57565b6001600160a01b031681526020810191909152604001600020805460ff19169115159190911790558062000537816200344c565b915050620004c9565b507f31b67e6853df85403a8c4f4f46dc53f48f700d6917c8e3ec8c77a0e6fd56793b83838360405162000576939291906200346a565b60405180910390a1505050565b6000606a84815481106200059b576200059b62003420565b600091825260209182902060026005909202010154604080516303e1469160e61b815290516001600160a01b039092169350839263f851a440926004808401938290030181865afa158015620005f5573d6000803e3d6000fd5b505050506040513d601f19601f820116820180604052508101906200061b9190620034c7565b6001600160a01b0316336001600160a01b03161480156200069c5750806001600160a01b0316630a755ec26040518163ffffffff1660e01b8152600401602060405180830381865afa15801562000676573d6000803e3d6000fd5b505050506040513d601f19601f820116820180604052508101906200069c9190620034e7565b80620006b257506033546001600160a01b031633145b620006bc57600080fd5b8282606a8681548110620006d457620006d462003420565b60009182526020909120620006f0936005909202019162002cf2565b5050505050565b6060806000805b606a54811015620007fb576000606a828154811062000721576200072162003420565b600091825260209182902060026005909202010154604080516303e1469160e61b815290516001600160a01b039092169350839263f851a440926004808401938290030181865afa92505050801562000799575060408051601f3d908101601f191682019092526200079691810190620034c7565b60015b620007a457620007d5565b6001600160a01b03811660009081526070602052604090205460ff16151587151514620007d3575050620007e6565b505b82620007e1816200344c565b935050505b80620007f2816200344c565b915050620006fe565b506000816001600160401b038111156200081957620008196200317e565b60405190808252806020026020018201604052801562000843578160200160208202803683370190505b5090506000826001600160401b038111156200086357620008636200317e565b604051908082528060200260200182016040528015620008a057816020015b6200088c62002d81565b815260200190600190039081620008825790505b5090506000805b606a5481101562000ae7576000606a8281548110620008ca57620008ca62003420565b600091825260209182902060026005909202010154604080516303e1469160e61b815290516001600160a01b039092169350839263f851a440926004808401938290030181865afa92505050801562000942575060408051601f3d908101601f191682019092526200093f91810190620034c7565b60015b6200094d576200097e565b6001600160a01b03811660009081526070602052604090205460ff1615158a1515146200097c57505062000ad2565b505b8185848151811062000994576200099462003420565b602002602001018181525050606a8281548110620009b657620009b662003420565b90600052602060002090600502016040518060a0016040529081600082018054620009e19062003507565b80601f016020809104026020016040519081016040528092919081815260200182805462000a0f9062003507565b801562000a605780601f1062000a345761010080835404028352916020019162000a60565b820191906000526020600020905b81548152906001019060200180831162000a4257829003601f168201915b505050918352505060018201546001600160a01b039081166020830152600283015416604082015260038201546060820152600490910154608090910152845185908590811062000ab55762000ab562003420565b6020026020010181905250828062000acd906200344c565b935050505b8062000ade816200344c565b915050620008a7565b5091969095509350505050565b6060806000805b606a5481101562000c4f576000606a828154811062000b1e5762000b1e62003420565b60009182526020918290206002600590920201015460408051630b09572160e41b815290516001600160a01b039092169350839263b0957210926004808401938290030181865afa92505050801562000b96575060408051601f3d908101601f1916820190925262000b9391810190620034e7565b60015b62000ba15762000c29565b80158062000c195750604051634d8c928d60e11b81526001600160a01b038881166004830152831690639b19251a90602401602060405180830381865afa15801562000bf1573d6000803e3d6000fd5b505050506040513d601f19601f8201168201806040525081019062000c179190620034e7565b155b1562000c2757505062000c3a565b505b8262000c35816200344c565b935050505b8062000c46816200344c565b91505062000afb565b506000816001600160401b0381111562000c6d5762000c6d6200317e565b60405190808252806020026020018201604052801562000c97578160200160208202803683370190505b5090506000826001600160401b0381111562000cb75762000cb76200317e565b60405190808252806020026020018201604052801562000cf457816020015b62000ce062002d81565b81526020019060019003908162000cd65790505b5090506000805b606a5481101562000ae7576000606a828154811062000d1e5762000d1e62003420565b60009182526020918290206002600590920201015460408051630b09572160e41b815290516001600160a01b039092169350839263b0957210926004808401938290030181865afa92505050801562000d96575060408051601f3d908101601f1916820190925262000d9391810190620034e7565b60015b62000da15762000e29565b80158062000e195750604051634d8c928d60e11b81526001600160a01b038b81166004830152831690639b19251a90602401602060405180830381865afa15801562000df1573d6000803e3d6000fd5b505050506040513d601f19601f8201168201806040525081019062000e179190620034e7565b155b1562000e2757505062000f7d565b505b8185848151811062000e3f5762000e3f62003420565b602002602001018181525050606a828154811062000e615762000e6162003420565b90600052602060002090600502016040518060a001604052908160008201805462000e8c9062003507565b80601f016020809104026020016040519081016040528092919081815260200182805462000eba9062003507565b801562000f0b5780601f1062000edf5761010080835404028352916020019162000f0b565b820191906000526020600020905b81548152906001019060200180831162000eed57829003601f168201915b505050918352505060018201546001600160a01b039081166020830152600283015416604082015260038201546060820152600490910154608090910152845185908590811062000f605762000f6062003420565b6020026020010181905250828062000f78906200344c565b935050505b8062000f89816200344c565b91505062000cfb565b6060806000805b606a548110156200106f57606a818154811062000fba5762000fba62003420565b60009182526020918290206002600590920201015460408051630b09572160e41b815290516001600160a01b039092169263b0957210926004808401938290030181865afa9250505080156200102f575060408051601f3d908101601f191682019092526200102c91810190620034e7565b60015b6200103a576200104a565b80156200104857506200105a565b505b8162001056816200344c565b9250505b8062001066816200344c565b91505062000f99565b506000816001600160401b038111156200108d576200108d6200317e565b604051908082528060200260200182016040528015620010b7578160200160208202803683370190505b5090506000826001600160401b03811115620010d757620010d76200317e565b6040519080825280602002602001820160405280156200111457816020015b6200110062002d81565b815260200190600190039081620010f65790505b5090506000805b606a548110156200133457606a81815481106200113c576200113c62003420565b60009182526020918290206002600590920201015460408051630b09572160e41b815290516001600160a01b039092169263b0957210926004808401938290030181865afa925050508015620011b1575060408051601f3d908101601f19168201909252620011ae91810190620034e7565b60015b620011bc57620011cc565b8015620011ca57506200131f565b505b80848381518110620011e257620011e262003420565b602002602001018181525050606a818154811062001204576200120462003420565b90600052602060002090600502016040518060a00160405290816000820180546200122f9062003507565b80601f01602080910402602001604051908101604052809291908181526020018280546200125d9062003507565b8015620012ae5780601f106200128257610100808354040283529160200191620012ae565b820191906000526020600020905b8154815290600101906020018083116200129057829003601f168201915b505050918352505060018201546001600160a01b039081166020830152600283015416604082015260038201546060820152600490910154608090910152835184908490811062001303576200130362003420565b602002602001018190525081806200131b906200344c565b9250505b806200132b816200344c565b9150506200111b565b50919590945092505050565b6000806001600160a01b038916620013c15760405162461bcd60e51b815260206004820152603960248201527f4e6f20436f6d7074726f6c6c657220696d706c656d656e746174696f6e20636f60448201527f6e74726163742061646472657373207370656369666965642e000000000000006064820152608401620004bd565b6001600160a01b0383166200142c5760405162461bcd60e51b815260206004820152602a60248201527f4e6f2050726963654f7261636c6520636f6e747261637420616464726573732060448201526939b832b1b4b334b2b21760b11b6064820152608401620004bd565b600060405180602001620014409062002dc2565b601f1982820381018352601f9091011660408190526200146891908b908b9060200162003544565b60405160208183030381529060405290506000620014ca6000338e60716000815462001494906200344c565b9182905550604051620014ad939291906020016200356e565b604051602081830303815290604052805190602001208462002826565b60405163e992a04160e01b81526001600160a01b038d81166004830152919250829182169063e992a041906024016020604051808303816000875af115801562001518573d6000803e3d6000fd5b505050506040513d601f19601f820116820180604052508101906200153e9190620035af565b15620015a95760405162461bcd60e51b815260206004820152603360248201527f4661696c656420746f207365742070656e64696e6720696d706c656d656e74616044820152723a34b7b71037b7102ab734ba3937b63632b91760691b6064820152608401620004bd565b604051630ea826e360e11b81526001600160a01b0382811660048301528d9190821690631d504dc690602401600060405180830381600087803b158015620015f057600080fd5b505af115801562001605573d6000803e3d6000fd5b505060405163317b0b7760e01b8152600481018c90528592506001600160a01b038316915063317b0b77906024016020604051808303816000875af115801562001653573d6000803e3d6000fd5b505050506040513d601f19601f82011682018060405250810190620016799190620035af565b15620016c85760405162461bcd60e51b815260206004820181905260248201527f4661696c656420746f2073657420706f6f6c20636c6f736520666163746f722e6044820152606401620004bd565b604051634fd42e1760e01b8152600481018a90526001600160a01b03821690634fd42e17906024016020604051808303816000875af115801562001710573d6000803e3d6000fd5b505050506040513d601f19601f82011682018060405250810190620017369190620035af565b15620017975760405162461bcd60e51b815260206004820152602960248201527f4661696c656420746f2073657420706f6f6c206c69717569646174696f6e20696044820152683731b2b73a34bb329760b91b6064820152608401620004bd565b6040516355ee1fe160e01b81526001600160a01b0389811660048301528216906355ee1fe1906024016020604051808303816000875af1158015620017e0573d6000803e3d6000fd5b505050506040513d601f19601f82011682018060405250810190620018069190620035af565b15620018555760405162461bcd60e51b815260206004820181905260248201527f4661696c656420746f2073657420706f6f6c207072696365206f7261636c652e6044820152606401620004bd565b8a156200193057604051634a956fad60e11b8152600160048201526001600160a01b0382169063952adf5a906024016020604051808303816000875af1158015620018a4573d6000803e3d6000fd5b505050506040513d601f19601f82011682018060405250810190620018ca9190620035af565b15620019305760405162461bcd60e51b815260206004820152602e60248201527f4661696c656420746f20656e666f72636520737570706c6965722f626f72726f60448201526d3bb2b9103bb434ba32b634b9ba1760911b6064820152608401620004bd565b604051636a9998b360e11b8152600160048201526001600160a01b0382169063d5333166906024016020604051808303816000875af115801562001978573d6000803e3d6000fd5b505050506040513d601f19601f820116820180604052508101906200199e9190620035af565b1562001a015760405162461bcd60e51b815260206004820152602b60248201527f4661696c656420746f20656e61626c6520706f6f6c206175746f20696d706c6560448201526a36b2b73a30ba34b7b7399760a91b6064820152608401620004bd565b604051632dc7468360e21b81523360048201526001600160a01b0384169063b71d1a0c906024016020604051808303816000875af115801562001a48573d6000803e3d6000fd5b505050506040513d601f19601f8201168201806040525081019062001a6e9190620035af565b1562001ad05760405162461bcd60e51b815260206004820152602a60248201527f4661696c656420746f207365742070656e64696e672061646d696e206f6e20556044820152693734ba3937b63632b91760b11b6064820152608401620004bd565b62001adc8f8562002934565b9f939e50929c50505050505050505050505050565b62001afb620027c8565b606580546001600160a01b038381166001600160a01b031983168117909355604080519190921680825260208201939093527fb3d55174552271a4f1aaf36b72f50381e892171636b3fb5447fe00e995e7a37b91015b60405180910390a15050565b62001b67620027c8565b60405162461bcd60e51b815260206004820152601060248201526f6e6f74207573656420616e796d6f726560801b6044820152606401620004bd565b62001bad620027c8565b8162001bf55760405162461bcd60e51b81526020600482015260166024820152752737903232b83637bcb2b9399039bab8383634b2b21760511b6044820152606401620004bd565b60005b8281101562001c6f5781606e600086868581811062001c1b5762001c1b62003420565b905060200201602081019062001c32919062002f57565b6001600160a01b031681526020810191909152604001600020805460ff19169115159190911790558062001c66816200344c565b91505062001bf8565b50505050565b6001600160a01b0381166000908152606b602052604081205460609182916001600160401b0381111562001cad5762001cad6200317e565b60405190808252806020026020018201604052801562001cd7578160200160208202803683370190505b506001600160a01b0385166000908152606b6020526040812054919250906001600160401b0381111562001d0f5762001d0f6200317e565b60405190808252806020026020018201604052801562001d4c57816020015b62001d3862002d81565b81526020019060019003908162001d2e5790505b50905060005b6001600160a01b0386166000908152606b602052604090205481101562001f45576001600160a01b0386166000908152606b6020526040902080548290811062001da05762001da062003420565b906000526020600020015483828151811062001dc05762001dc062003420565b602002602001018181525050606a606b6000886001600160a01b03166001600160a01b03168152602001908152602001600020828154811062001e075762001e0762003420565b90600052602060002001548154811062001e255762001e2562003420565b90600052602060002090600502016040518060a001604052908160008201805462001e509062003507565b80601f016020809104026020016040519081016040528092919081815260200182805462001e7e9062003507565b801562001ecf5780601f1062001ea35761010080835404028352916020019162001ecf565b820191906000526020600020905b81548152906001019060200180831162001eb157829003601f168201915b505050918352505060018201546001600160a01b039081166020830152600283015416604082015260038201546060820152600490910154608090910152825183908390811062001f245762001f2462003420565b6020026020010181905250808062001f3c906200344c565b91505062001d52565b509094909350915050565b606a818154811062001f6157600080fd5b906000526020600020906005020160009150905080600001805462001f869062003507565b80601f016020809104026020016040519081016040528092919081815260200182805462001fb49062003507565b8015620020055780601f1062001fd95761010080835404028352916020019162002005565b820191906000526020600020905b81548152906001019060200180831162001fe757829003601f168201915b5050505060018301546002840154600385015460049095015493946001600160a01b03928316949290911692509085565b600054610100900460ff1615808015620020575750600054600160ff909116105b80620020735750303b15801562002073575060005460ff166001145b620020d85760405162461bcd60e51b815260206004820152602e60248201527f496e697469616c697a61626c653a20636f6e747261637420697320616c72656160448201526d191e481a5b9a5d1a585b1a5e995960921b6064820152608401620004bd565b6000805460ff191660011790558015620020fc576000805461ff0019166101001790555b6200210662002c09565b606d805460ff191684151517905560005b825181101562002183576001606e60008584815181106200213c576200213c62003420565b6020908102919091018101516001600160a01b03168252810191909152604001600020805460ff1916911515919091179055806200217a816200344c565b91505062002117565b508015620021c8576000805461ff0019169055604051600181527f7f26b83ff96e1f2b6a682f133852f6798a09c465da95921460cefb38474024989060200162000576565b505050565b6060606a805480602002602001604051908101604052809291908181526020016000905b82821015620022fb57838290600052602060002090600502016040518060a0016040529081600082018054620022279062003507565b80601f0160208091040260200160405190810160405280929190818152602001828054620022559062003507565b8015620022a65780601f106200227a57610100808354040283529160200191620022a6565b820191906000526020600020905b8154815290600101906020018083116200228857829003601f168201915b50505091835250506001828101546001600160a01b03908116602080850191909152600285015490911660408401526003840154606084015260049093015460809092019190915291835292019101620021f1565b50505050905090565b6060806000805b606a54811015620023e557606a81815481106200232c576200232c62003420565b600091825260209091206005909102016002015460405163d9e0ea6b60e01b81526001600160a01b0387811660048301529091169063d9e0ea6b90602401602060405180830381865afa925050508015620023a6575060408051601f3d908101601f19168201909252620023a391810190620034e7565b60015b620023b157620023c0565b80620023be5750620023d0565b505b81620023cc816200344c565b9250505b80620023dc816200344c565b9150506200230b565b506000816001600160401b038111156200240357620024036200317e565b6040519080825280602002602001820160405280156200242d578160200160208202803683370190505b5090506000826001600160401b038111156200244d576200244d6200317e565b6040519080825280602002602001820160405280156200248a57816020015b6200247662002d81565b8152602001906001900390816200246c5790505b5090506000805b606a5481101562000ae757606a8181548110620024b257620024b262003420565b600091825260209091206005909102016002015460405163d9e0ea6b60e01b81526001600160a01b038a811660048301529091169063d9e0ea6b90602401602060405180830381865afa9250505080156200252c575060408051601f3d908101601f191682019092526200252991810190620034e7565b60015b620025375762002546565b8062002544575062002699565b505b808483815181106200255c576200255c62003420565b602002602001018181525050606a81815481106200257e576200257e62003420565b90600052602060002090600502016040518060a0016040529081600082018054620025a99062003507565b80601f0160208091040260200160405190810160405280929190818152602001828054620025d79062003507565b8015620026285780601f10620025fc5761010080835404028352916020019162002628565b820191906000526020600020905b8154815290600101906020018083116200260a57829003601f168201915b505050918352505060018201546001600160a01b03908116602083015260028301541660408201526003820154606082015260049091015460809091015283518490849081106200267d576200267d62003420565b6020026020010181905250818062002695906200344c565b9250505b80620026a5816200344c565b91505062002491565b6065546001600160a01b03163314620027025760405162461bcd60e51b81526020600482015260156024820152743737ba103a3432903832b73234b7339037bbb732b960591b6044820152606401620004bd565b6000620027176033546001600160a01b031690565b6065549091506001600160a01b0316620027318162002c3d565b606580546001600160a01b0319169055604080516001600160a01b0384168152600060208201527f70aea8d848e8a90fb7661b227dc522eb6395c3dac71b63cb59edd5c9899b2364910160405180910390a1606554604080516001600160a01b03808516825290921660208301527fb3d55174552271a4f1aaf36b72f50381e892171636b3fb5447fe00e995e7a37b910162001b51565b6033546001600160a01b03163314620028245760405162461bcd60e51b815260206004820181905260248201527f4f776e61626c653a2063616c6c6572206973206e6f7420746865206f776e65726044820152606401620004bd565b565b6000834710156200287a5760405162461bcd60e51b815260206004820152601d60248201527f437265617465323a20696e73756666696369656e742062616c616e63650000006044820152606401620004bd565b8151620028ca5760405162461bcd60e51b815260206004820181905260248201527f437265617465323a2062797465636f6465206c656e677468206973207a65726f6044820152606401620004bd565b8282516020840186f590506001600160a01b0381166200292d5760405162461bcd60e51b815260206004820152601960248201527f437265617465323a204661696c6564206f6e206465706c6f79000000000000006044820152606401620004bd565b9392505050565b6001600160a01b0381166000908152606c602052604081205460ff1615620029ad5760405162461bcd60e51b815260206004820152602560248201527f506f6f6c20616c72656164792065786973747320696e207468652064697265636044820152643a37b93c9760d91b6064820152608401620004bd565b606d5460ff161580620029cf5750336000908152606e602052604090205460ff165b62002a295760405162461bcd60e51b8152602060048201526024808201527f53656e646572206973206e6f74206f6e206465706c6f7965722077686974656c60448201526334b9ba1760e11b6064820152608401620004bd565b60648351111562002a765760405162461bcd60e51b81526020600482015260166024820152752737903837b7b6103730b6b29039bab8383634b2b21760511b6044820152606401620004bd565b6040805160a081018252848152336020808301919091526001600160a01b03851692820192909252436060820152426080820152606a8054600181018255600091909152815180519293849360059093027f116fea137db6e131133e7f2bab296045d8f41cc5607279db17b218cab0929a51019262002af9928492019062002dd0565b50602082810151600183810180546001600160a01b03199081166001600160a01b0394851617909155604080870151600287018054909316941693909317905560608501516003850155608090940151600490930192909255336000908152606b90915220606a54909162002b6e91620035c9565b81546001818101845560009384526020808520909201929092556001600160a01b0386168352606c90526040909120805460ff191682179055606a547f18075ab463b4dc5842f37ecd67abeb192eda5d073f2c08509e189ad173d5c0209162002bd791620035c9565b8260405162002be8929190620035e3565b60405180910390a1606a5462002c0190600190620035c9565b949350505050565b600054610100900460ff1662002c335760405162461bcd60e51b8152600401620004bd90620035fe565b6200282462002c8f565b603380546001600160a01b038381166001600160a01b0319831681179093556040519116919082907f8be0079c531659141344cd1fd0a4f28419497f9722a3daafe3b4186f6b6457e090600090a35050565b600054610100900460ff1662002cb95760405162461bcd60e51b8152600401620004bd90620035fe565b62002824600054610100900460ff1662002ce75760405162461bcd60e51b8152600401620004bd90620035fe565b620028243362002c3d565b82805462002d009062003507565b90600052602060002090601f01602090048101928262002d24576000855562002d6f565b82601f1062002d3f5782800160ff1982351617855562002d6f565b8280016001018555821562002d6f579182015b8281111562002d6f57823582559160200191906001019062002d52565b5062002d7d92915062002e4d565b5090565b6040518060a001604052806060815260200160006001600160a01b0316815260200160006001600160a01b0316815260200160008152602001600081525090565b610ad4806200364a83390190565b82805462002dde9062003507565b90600052602060002090601f01602090048101928262002e02576000855562002d6f565b82601f1062002e1d57805160ff191683800117855562002d6f565b8280016001018555821562002d6f579182015b8281111562002d6f57825182559160200191906001019062002e30565b5b8082111562002d7d576000815560010162002e4e565b801515811462002e7357600080fd5b50565b803562002e838162002e64565b919050565b60006020828403121562002e9b57600080fd5b81356200292d8162002e64565b60008060006040848603121562002ebe57600080fd5b83356001600160401b038082111562002ed657600080fd5b818601915086601f83011262002eeb57600080fd5b81358181111562002efb57600080fd5b8760208260051b850101111562002f1157600080fd5b6020928301955093505084013562002f298162002e64565b809150509250925092565b6001600160a01b038116811462002e7357600080fd5b803562002e838162002f34565b60006020828403121562002f6a57600080fd5b81356200292d8162002f34565b60008083601f84011262002f8a57600080fd5b5081356001600160401b0381111562002fa257600080fd5b60208301915083602082850101111562002fbb57600080fd5b9250929050565b60008060006040848603121562002fd857600080fd5b8335925060208401356001600160401b0381111562002ff657600080fd5b620030048682870162002f77565b9497909650939450505050565b60005b838110156200302e57818101518382015260200162003014565b8381111562001c6f5750506000910152565b600081518084526200305a81602086016020860162003011565b601f01601f19169290920160200192915050565b6000815160a084526200308560a085018262003040565b9050602083015160018060a01b038082166020870152806040860151166040870152505060608301516060850152608083015160808501528091505092915050565b600082825180855260208086019550808260051b84010181860160005b848110156200311657601f19868403018952620031038383516200306e565b98840198925090830190600101620030e4565b5090979650505050505050565b604080825283519082018190526000906020906060840190828701845b828110156200315e5781518452928401929084019060010162003140565b50505083810382850152620031748186620030c7565b9695505050505050565b634e487b7160e01b600052604160045260246000fd5b604051601f8201601f191681016001600160401b0381118282101715620031bf57620031bf6200317e565b604052919050565b60008060008060008060008060e0898b031215620031e457600080fd5b88356001600160401b0380821115620031fc57600080fd5b818b0191508b601f8301126200321157600080fd5b81356020828211156200322857620032286200317e565b6200323c601f8301601f1916820162003194565b8281528e828487010111156200325157600080fd5b828286018383013760008184018301529b50620032708d820162002f4a565b9a50505060408b01359150808211156200328957600080fd5b50620032988b828c0162002f77565b9097509550620032ad905060608a0162002e76565b93506080890135925060a08901359150620032cb60c08a0162002f4a565b90509295985092959890939650565b600060208284031215620032ed57600080fd5b5035919050565b60a0815260006200330960a083018862003040565b6001600160a01b039687166020840152949095166040820152606081019290925260809091015292915050565b600080604083850312156200334a57600080fd5b8235620033578162002e64565b91506020838101356001600160401b03808211156200337557600080fd5b818601915086601f8301126200338a57600080fd5b8135818111156200339f576200339f6200317e565b8060051b9150620033b284830162003194565b8181529183018401918481019089841115620033cd57600080fd5b938501935b83851015620033fb5784359250620033ea8362002f34565b8282529385019390850190620033d2565b8096505050505050509250929050565b6020815260006200292d6020830184620030c7565b634e487b7160e01b600052603260045260246000fd5b634e487b7160e01b600052601160045260246000fd5b600060001982141562003463576200346362003436565b5060010190565b6040808252810183905260008460608301825b86811015620034b1578235620034938162002f34565b6001600160a01b03168252602092830192909101906001016200347d565b5080925050508215156020830152949350505050565b600060208284031215620034da57600080fd5b81516200292d8162002f34565b600060208284031215620034fa57600080fd5b81516200292d8162002e64565b600181811c908216806200351c57607f821691505b602082108114156200353e57634e487b7160e01b600052602260045260246000fd5b50919050565b600084516200355881846020890162003011565b8201838582376000930192835250909392505050565b6bffffffffffffffffffffffff198460601b168152600083516200359a81601485016020880162003011565b60149201918201929092526034019392505050565b600060208284031215620035c257600080fd5b5051919050565b600082821015620035de57620035de62003436565b500390565b82815260406020820152600062002c0160408301846200306e565b6020808252602b908201527f496e697469616c697a61626c653a20636f6e7472616374206973206e6f74206960408201526a6e697469616c697a696e6760a81b60608201526080019056fe60806040526002805461ffff60a01b191661010160a01b17905534801561002557600080fd5b50604051610ad4380380610ad483398101604081905261004491610077565b60018054336001600160a01b031991821617909155600080549091166001600160a01b03929092169190911790556100a7565b60006020828403121561008957600080fd5b81516001600160a01b03811681146100a057600080fd5b9392505050565b610a1e806100b66000396000f3fe6080604052600436106100a75760003560e01c8063bb82aa5e11610064578063bb82aa5e146103b5578063c1e80334146103d5578063dcfbc0c7146103ea578063e992a0411461040a578063e9c714f21461042a578063f851a4401461043f576100a7565b80630225ab9d146102b85780630a755ec2146102eb57806315761d511461031c57806326782247146103545780632f1069ba14610374578063b71d1a0c14610395575b33301461023d5760408051600481526024810182526020810180516001600160e01b0316633757348b60e21b1790529051600091829130916100e8916108fc565b600060405180830381855afa9150503d8060008114610123576040519150601f19603f3d011682016040523d82523d6000602084013e610128565b606091505b50915091506000821561014c57818060200190518101906101499190610948565b90505b8015610239576000805460035460405163bbcdd6d360e01b81526001600160a01b03918216600482015291169063bbcdd6d390602401602060405180830381865afa15801561019f573d6000803e3d6000fd5b505050506040513d601f19601f820116820180604052508101906101c3919061097a565b6003549091506001600160a01b0380831691161461023757600380546001600160a01b038381166001600160a01b0319831681179093556040519116917fd604de94d45953f9138079ec1b82d533cb2160c906d1076d1f7ed54befbca97a9161022d918491610997565b60405180910390a1505b505b5050505b6003546040516000916001600160a01b03169061025d90839036906109b1565b600060405180830381855af49150503d8060008114610298576040519150601f19603f3d011682016040523d82523d6000602084013e61029d565b606091505b505090506040513d6000823e8180156102b4573d82f35b3d82fd5b3480156102c457600080fd5b506102d86102d33660046109c1565b61045f565b6040519081526020015b60405180910390f35b3480156102f757600080fd5b5060025461030c90600160a81b900460ff1681565b60405190151581526020016102e2565b34801561032857600080fd5b5060005461033c906001600160a01b031681565b6040516001600160a01b0390911681526020016102e2565b34801561036057600080fd5b5060025461033c906001600160a01b031681565b34801561038057600080fd5b5060025461030c90600160a01b900460ff1681565b3480156103a157600080fd5b506102d86103b03660046109de565b6104fb565b3480156103c157600080fd5b5060035461033c906001600160a01b031681565b3480156103e157600080fd5b506102d861057a565b3480156103f657600080fd5b5060045461033c906001600160a01b031681565b34801561041657600080fd5b506102d86104253660046109de565b61066c565b34801561043657600080fd5b506102d861075f565b34801561044b57600080fd5b5060015461033c906001600160a01b031681565b6000610469610831565b61047f5761047960016005610883565b92915050565b60025460ff600160a81b909104161515821515141561049f576000610479565b60028054831515600160a81b0260ff60a81b199091161790556040517f10f9a0a95673b0837d1dce21fd3bffcb6d760435e9b5300b75a271182f75f822906104ec90841515815260200190565b60405180910390a16000610479565b6000610505610831565b610515576104796001600f610883565b600280546001600160a01b038481166001600160a01b03198316179092556040519116907fca4f2f25d0898edd99413412fb94012f9e54ec8142f9b093e7720646a95b16a9906105689083908690610997565b60405180910390a160005b9392505050565b6004546000906001600160a01b0316331415806105a057506004546001600160a01b0316155b156105b5576105b0600180610883565b905090565b60038054600480546001600160a01b03198084166001600160a01b03838116918217909655911690915560405192909116917fd604de94d45953f9138079ec1b82d533cb2160c906d1076d1f7ed54befbca97a906106169084908490610997565b60405180910390a16004546040517fe945ccee5d701fc83f9b8aa8ca94ea4219ec1fcbd4f4cab4f0ea57c5c3e1d8159161065b9184916001600160a01b031690610997565b60405180910390a160009250505090565b6000610676610831565b6106865761047960016011610883565b600054600354604051639d244f9f60e01b81526001600160a01b0392831692639d244f9f926106bc929116908690600401610997565b602060405180830381865afa1580156106d9573d6000803e3d6000fd5b505050506040513d601f19601f820116820180604052508101906106fd9190610948565b61070d5761047960016010610883565b600480546001600160a01b038481166001600160a01b0319831681179093556040519116917fe945ccee5d701fc83f9b8aa8ca94ea4219ec1fcbd4f4cab4f0ea57c5c3e1d81591610568918491610997565b6002546000906001600160a01b03163314158061077a575033155b1561078b576105b060016000610883565b60018054600280546001600160a01b03198084166001600160a01b03838116918217909655911690915560405192909116917ff9ffabca9c8276e99321725bcb43fb076a6c66a54b7f21c4e8146d8519b417dc906107ec9084908490610997565b60405180910390a16002546040517fca4f2f25d0898edd99413412fb94012f9e54ec8142f9b093e7720646a95b16a99161065b9184916001600160a01b031690610997565b6001546000906001600160a01b0316331480156108575750600254600160a81b900460ff165b806105b057506000546001600160a01b0316331480156105b0575050600254600160a01b900460ff1690565b60007f45b96fe442630264581b197e84bbada861235052c5a1aadfff9ea4e40a969aa08360148111156108b8576108b86109fb565b83601a8111156108ca576108ca6109fb565b60408051928352602083019190915260009082015260600160405180910390a1826014811115610573576105736109fb565b6000825160005b8181101561091d5760208186018101518583015201610903565b8181111561092c576000828501525b509190910192915050565b801515811461094557600080fd5b50565b60006020828403121561095a57600080fd5b815161057381610937565b6001600160a01b038116811461094557600080fd5b60006020828403121561098c57600080fd5b815161057381610965565b6001600160a01b0392831681529116602082015260400190565b8183823760009101908152919050565b6000602082840312156109d357600080fd5b813561057381610937565b6000602082840312156109f057600080fd5b813561057381610965565b634e487b7160e01b600052602160045260246000fdfea164736f6c634300080a000aa164736f6c634300080a000a",
    "linkReferences": {}
  },
  "methodIdentifiers": {
    "_acceptOwner()": "fc4d33f9",
    "_editAdminWhitelist(address[],bool)": "0a83d1b0",
    "_editDeployerWhitelist(address[],bool)": "a155497c",
    "_resetGap()": "c2bd5c2e",
    "_setDeployerWhitelistEnforcement(bool)": "04f03c6f",
    "_setPendingOwner(address)": "6e96dfd7",
    "adminWhitelist(address)": "43e20a1d",
    "deployPool(string,address,bytes,bool,uint256,uint256,address)": "58b896d3",
    "deployerWhitelist(address)": "a970e76c",
    "enforceDeployerWhitelist()": "26bb81d7",
    "getAllPools()": "d88ff1f4",
    "getPoolsByAccount(address)": "a3ed91c6",
    "getPoolsOfUser(address)": "f348960d",
    "getPublicPools()": "4ae26ea1",
    "getPublicPoolsByVerification(bool)": "218a3bbe",
    "getVerifiedPoolsOfWhitelistedAccount(address)": "448ca558",
    "initialize(bool,address[])": "b86579d4",
    "owner()": "8da5cb5b",
    "pendingOwner()": "e30c3978",
    "poolExists(address)": "1e1c6a07",
    "pools(uint256)": "ac4afa38",
    "poolsCounter()": "5d0eb31a",
    "renounceOwnership()": "715018a6",
    "setPoolName(uint256,string)": "20c32bfe",
    "transferOwnership(address)": "f2fde38b"
  }
}