{
  "address": "0x7024005eDFAECD70FDAbf36c96d008508a2c64B5",
  "abi": [
    {
      "anonymous": false,
      "inputs": [
        {
          "indexed": false,
          "internalType": "uint8",
          "name": "version",
          "type": "uint8"
        }
      ],
      "name": "Initialized",
      "type": "event"
    },
    {
      "anonymous": false,
      "inputs": [
        {
          "indexed": true,
          "internalType": "address",
          "name": "previousOwner",
          "type": "address"
        },
        {
          "indexed": true,
          "internalType": "address",
          "name": "newOwner",
          "type": "address"
        }
      ],
      "name": "OwnershipTransferred",
      "type": "event"
    },
    {
      "inputs": [],
      "name": "BTC_TOKEN",
      "outputs": [
        {
          "internalType": "address",
          "name": "",
          "type": "address"
        }
      ],
      "stateMutability": "view",
      "type": "function"
    },
    {
      "inputs": [],
      "name": "STABLE_TOKEN",
      "outputs": [
        {
          "internalType": "address",
          "name": "",
          "type": "address"
        }
      ],
      "stateMutability": "view",
      "type": "function"
    },
    {
      "inputs": [],
      "name": "UNISWAP_V2_ROUTER_02",
      "outputs": [
        {
          "internalType": "contract IUniswapV2Router02",
          "name": "",
          "type": "address"
        }
      ],
      "stateMutability": "view",
      "type": "function"
    },
    {
      "inputs": [],
      "name": "UNISWAP_V2_ROUTER_02_ADDRESS",
      "outputs": [
        {
          "internalType": "address",
          "name": "",
          "type": "address"
        }
      ],
      "stateMutability": "view",
      "type": "function"
    },
    {
      "inputs": [],
      "name": "W_NATIVE",
      "outputs": [
        {
          "internalType": "contract IW_NATIVE",
          "name": "",
          "type": "address"
        }
      ],
      "stateMutability": "view",
      "type": "function"
    },
    {
      "inputs": [],
      "name": "W_NATIVE_ADDRESS",
      "outputs": [
        {
          "internalType": "address",
          "name": "",
          "type": "address"
        }
      ],
      "stateMutability": "view",
      "type": "function"
    },
    {
      "inputs": [
        {
          "internalType": "bytes",
          "name": "data",
          "type": "bytes"
        }
      ],
      "name": "_becomeImplementation",
      "outputs": [],
      "stateMutability": "nonpayable",
      "type": "function"
    },
    {
      "inputs": [
        {
          "internalType": "contract IRedemptionStrategy[]",
          "name": "strategies",
          "type": "address[]"
        },
        {
          "internalType": "bool[]",
          "name": "whitelisted",
          "type": "bool[]"
        }
      ],
      "name": "_whitelistRedemptionStrategies",
      "outputs": [],
      "stateMutability": "nonpayable",
      "type": "function"
    },
    {
      "inputs": [
        {
          "internalType": "contract IRedemptionStrategy",
          "name": "strategy",
          "type": "address"
        },
        {
          "internalType": "bool",
          "name": "whitelisted",
          "type": "bool"
        }
      ],
      "name": "_whitelistRedemptionStrategy",
      "outputs": [],
      "stateMutability": "nonpayable",
      "type": "function"
    },
    {
      "inputs": [
        {
          "internalType": "address",
          "name": "_wtoken",
          "type": "address"
        },
        {
          "internalType": "address",
          "name": "_uniswapV2router",
          "type": "address"
        },
        {
          "internalType": "address",
          "name": "_stableToken",
          "type": "address"
        },
        {
          "internalType": "address",
          "name": "_btcToken",
          "type": "address"
        },
        {
          "internalType": "bytes",
          "name": "_uniswapPairInitHashCode",
          "type": "bytes"
        }
      ],
      "name": "initialize",
      "outputs": [],
      "stateMutability": "nonpayable",
      "type": "function"
    },
    {
      "inputs": [],
      "name": "owner",
      "outputs": [
        {
          "internalType": "address",
          "name": "",
          "type": "address"
        }
      ],
      "stateMutability": "view",
      "type": "function"
    },
    {
      "inputs": [
        {
          "internalType": "address",
          "name": "sender",
          "type": "address"
        },
        {
          "internalType": "uint256",
          "name": "amount0",
          "type": "uint256"
        },
        {
          "internalType": "uint256",
          "name": "amount1",
          "type": "uint256"
        },
        {
          "internalType": "bytes",
          "name": "data",
          "type": "bytes"
        }
      ],
      "name": "pancakeCall",
      "outputs": [],
      "stateMutability": "nonpayable",
      "type": "function"
    },
    {
      "inputs": [
        {
          "internalType": "contract IERC20Upgradeable",
          "name": "underlyingCollateral",
          "type": "address"
        },
        {
          "internalType": "uint256",
          "name": "underlyingCollateralSeized",
          "type": "uint256"
        },
        {
          "internalType": "contract IRedemptionStrategy",
          "name": "strategy",
          "type": "address"
        },
        {
          "internalType": "bytes",
          "name": "strategyData",
          "type": "bytes"
        }
      ],
      "name": "redeemCustomCollateral",
      "outputs": [
        {
          "internalType": "contract IERC20Upgradeable",
          "name": "",
          "type": "address"
        },
        {
          "internalType": "uint256",
          "name": "",
          "type": "uint256"
        }
      ],
      "stateMutability": "nonpayable",
      "type": "function"
    },
    {
      "inputs": [
        {
          "internalType": "address",
          "name": "",
          "type": "address"
        }
      ],
      "name": "redemptionStrategiesWhitelist",
      "outputs": [
        {
          "internalType": "bool",
          "name": "",
          "type": "bool"
        }
      ],
      "stateMutability": "view",
      "type": "function"
    },
    {
      "inputs": [],
      "name": "renounceOwnership",
      "outputs": [],
      "stateMutability": "nonpayable",
      "type": "function"
    },
    {
      "inputs": [
        {
          "internalType": "address",
          "name": "borrower",
          "type": "address"
        },
        {
          "internalType": "contract ICEther",
          "name": "cEther",
          "type": "address"
        },
        {
          "internalType": "contract ICErc20",
          "name": "cErc20Collateral",
          "type": "address"
        },
        {
          "internalType": "uint256",
          "name": "minOutputAmount",
          "type": "uint256"
        },
        {
          "internalType": "address",
          "name": "exchangeSeizedTo",
          "type": "address"
        },
        {
          "internalType": "contract IUniswapV2Router02",
          "name": "uniswapV2Router",
          "type": "address"
        },
        {
          "internalType": "contract IRedemptionStrategy[]",
          "name": "redemptionStrategies",
          "type": "address[]"
        },
        {
          "internalType": "bytes[]",
          "name": "strategyData",
          "type": "bytes[]"
        }
      ],
      "name": "safeLiquidate",
      "outputs": [
        {
          "internalType": "uint256",
          "name": "",
          "type": "uint256"
        }
      ],
      "stateMutability": "payable",
      "type": "function"
    },
    {
      "inputs": [
        {
          "internalType": "address",
          "name": "borrower",
          "type": "address"
        },
        {
          "internalType": "uint256",
          "name": "repayAmount",
          "type": "uint256"
        },
        {
          "internalType": "contract ICErc20",
          "name": "cErc20",
          "type": "address"
        },
        {
          "internalType": "contract ICToken",
          "name": "cTokenCollateral",
          "type": "address"
        },
        {
          "internalType": "uint256",
          "name": "minOutputAmount",
          "type": "uint256"
        },
        {
          "internalType": "address",
          "name": "exchangeSeizedTo",
          "type": "address"
        },
        {
          "internalType": "contract IUniswapV2Router02",
          "name": "uniswapV2Router",
          "type": "address"
        },
        {
          "internalType": "contract IRedemptionStrategy[]",
          "name": "redemptionStrategies",
          "type": "address[]"
        },
        {
          "internalType": "bytes[]",
          "name": "strategyData",
          "type": "bytes[]"
        }
      ],
      "name": "safeLiquidate",
      "outputs": [
        {
          "internalType": "uint256",
          "name": "",
          "type": "uint256"
        }
      ],
      "stateMutability": "nonpayable",
      "type": "function"
    },
    {
      "inputs": [
        {
          "internalType": "address",
          "name": "borrower",
          "type": "address"
        },
        {
          "internalType": "uint256",
          "name": "repayAmount",
          "type": "uint256"
        },
        {
          "internalType": "contract ICEther",
          "name": "cEther",
          "type": "address"
        },
        {
          "internalType": "contract ICErc20",
          "name": "cErc20Collateral",
          "type": "address"
        },
        {
          "internalType": "uint256",
          "name": "minProfitAmount",
          "type": "uint256"
        },
        {
          "internalType": "address",
          "name": "exchangeProfitTo",
          "type": "address"
        },
        {
          "internalType": "contract IUniswapV2Router02",
          "name": "uniswapV2RouterForCollateral",
          "type": "address"
        },
        {
          "internalType": "contract IRedemptionStrategy[]",
          "name": "redemptionStrategies",
          "type": "address[]"
        },
        {
          "internalType": "bytes[]",
          "name": "strategyData",
          "type": "bytes[]"
        },
        {
          "internalType": "uint256",
          "name": "ethToCoinbase",
          "type": "uint256"
        }
      ],
      "name": "safeLiquidateToEthWithFlashLoan",
      "outputs": [
        {
          "internalType": "uint256",
          "name": "",
          "type": "uint256"
        }
      ],
      "stateMutability": "nonpayable",
      "type": "function"
    },
    {
      "inputs": [
        {
          "internalType": "address",
          "name": "borrower",
          "type": "address"
        },
        {
          "internalType": "uint256",
          "name": "repayAmount",
          "type": "uint256"
        },
        {
          "internalType": "contract ICErc20",
          "name": "cErc20",
          "type": "address"
        },
        {
          "internalType": "contract ICToken",
          "name": "cTokenCollateral",
          "type": "address"
        },
        {
          "internalType": "uint256",
          "name": "minProfitAmount",
          "type": "uint256"
        },
        {
          "internalType": "address",
          "name": "exchangeProfitTo",
          "type": "address"
        },
        {
          "internalType": "contract IUniswapV2Router02",
          "name": "uniswapV2RouterForBorrow",
          "type": "address"
        },
        {
          "internalType": "contract IUniswapV2Router02",
          "name": "uniswapV2RouterForCollateral",
          "type": "address"
        },
        {
          "internalType": "contract IRedemptionStrategy[]",
          "name": "redemptionStrategies",
          "type": "address[]"
        },
        {
          "internalType": "bytes[]",
          "name": "strategyData",
          "type": "bytes[]"
        },
        {
          "internalType": "uint256",
          "name": "ethToCoinbase",
          "type": "uint256"
        }
      ],
      "name": "safeLiquidateToTokensWithFlashLoan",
      "outputs": [
        {
          "internalType": "uint256",
          "name": "",
          "type": "uint256"
        }
      ],
      "stateMutability": "nonpayable",
      "type": "function"
    },
    {
      "inputs": [
        {
          "internalType": "address",
          "name": "newOwner",
          "type": "address"
        }
      ],
      "name": "transferOwnership",
      "outputs": [],
      "stateMutability": "nonpayable",
      "type": "function"
    },
    {
      "inputs": [
        {
          "internalType": "address",
          "name": "sender",
          "type": "address"
        },
        {
          "internalType": "uint256",
          "name": "amount0",
          "type": "uint256"
        },
        {
          "internalType": "uint256",
          "name": "amount1",
          "type": "uint256"
        },
        {
          "internalType": "bytes",
          "name": "data",
          "type": "bytes"
        }
      ],
      "name": "uniswapV2Call",
      "outputs": [],
      "stateMutability": "nonpayable",
      "type": "function"
    },
    {
      "stateMutability": "payable",
      "type": "receive"
    }
  ],
  "transactionHash": "0x7da79cbef826ed9cd25ca1bccfee7de52e9c174cdbc2a8185fa0ce00d0c870d3",
  "args": [],
  "numDeployments": 8,
  "bytecode": {
    "object": "0x608060405234801561001057600080fd5b506158c180620000216000396000f3fe60806040526004361061012e5760003560e01c806381738f13116100ab578063a94c12bc1161006f578063a94c12bc1461039e578063b5966258146103be578063b798d3ff146103fd578063ba8bca5a1461041d578063c8348b541461043d578063f2fde38b1461045d57600080fd5b806381738f131461030057806384800812146103205780638a0b9090146103405780638da5cb5b14610360578063a68ee1191461037e57600080fd5b80635b672371116100f25780635b67237114610233578063700d5dd714610273578063715018a6146102935780637754f887146102a8578063789fc9ad146102e057600080fd5b80630d1b27631461018d57806310d1e85c146101b35780634a936417146101d357806356e67728146101f35780635a4313651461021357600080fd5b3661018857333b6101865760405162461bcd60e51b815260206004820152601960248201527f53656e646572206973206e6f74206120636f6e74726163742e0000000000000060448201526064015b60405180910390fd5b005b600080fd5b6101a061019b36600461491f565b61047d565b6040519081526020015b60405180910390f35b3480156101bf57600080fd5b506101866101ce366004614a2a565b61080d565b3480156101df57600080fd5b506101866101ee366004614a93565b610a21565b3480156101ff57600080fd5b5061018661020e366004614b1a565b610c03565b34801561021f57600080fd5b5061018661022e366004614b69565b610c45565b34801561023f57600080fd5b5061026361024e366004614ba2565b606d6020526000908152604090205460ff1681565b60405190151581526020016101aa565b34801561027f57600080fd5b506101a061028e366004614bbf565b610c78565b34801561029f57600080fd5b50610186610ef3565b3480156102b457600080fd5b506068546102c8906001600160a01b031681565b6040516001600160a01b0390911681526020016101aa565b3480156102ec57600080fd5b506069546102c8906001600160a01b031681565b34801561030c57600080fd5b506065546102c8906001600160a01b031681565b34801561032c57600080fd5b5061018661033b366004614a2a565b610f07565b34801561034c57600080fd5b5061018661035b366004614cef565b610f1b565b34801561036c57600080fd5b506033546001600160a01b03166102c8565b34801561038a57600080fd5b506101a0610399366004614d5a565b61103a565b3480156103aa57600080fd5b506067546102c8906001600160a01b031681565b3480156103ca57600080fd5b506103de6103d9366004614e28565b6114bd565b604080516001600160a01b0390931683526020830191909152016101aa565b34801561040957600080fd5b506066546102c8906001600160a01b031681565b34801561042957600080fd5b50606b546102c8906001600160a01b031681565b34801561044957600080fd5b506101a0610458366004614e93565b6115c0565b34801561046957600080fd5b50610186610478366004614ba2565b6118d3565b600080341161049e5760405162461bcd60e51b815260040161017d90614f68565b604051635572051560e11b81526001600160a01b038a81166004830152888116602483015289169063aae40a2a9034906044016000604051808303818588803b1580156104ea57600080fd5b505af11580156104fe573d6000803e3d6000fd5b5050505050866001600160a01b0316856001600160a01b0316146107f6576040516370a0823160e01b81523060048201526000906001600160a01b038916906370a0823190602401602060405180830381865afa158015610563573d6000803e3d6000fd5b505050506040513d601f19601f820116820180604052508101906105879190614fc5565b905080156107f45760405163db006a7560e01b8152600481018290526000906001600160a01b038a169063db006a75906024016020604051808303816000875af11580156105d9573d6000803e3d6000fd5b505050506040513d601f19601f820116820180604052508101906105fd9190614fc5565b9050801561061d5760405162461bcd60e51b815260040161017d90614fde565b6000896001600160a01b0316636f307dc36040518163ffffffff1660e01b8152600401602060405180830381865afa15801561065d573d6000803e3d6000fd5b505050506040513d601f19601f82011682018060405250810190610681919061503c565b8651909150156107e55784518651146106ac5760405162461bcd60e51b815260040161017d90615059565b6040516370a0823160e01b81523060048201526000906001600160a01b038316906370a0823190602401602060405180830381865afa1580156106f3573d6000803e3d6000fd5b505050506040513d601f19601f820116820180604052508101906107179190614fc5565b905060005b87518110156107e257306001600160a01b031663b596625884848b8581518110610748576107486150dc565b60200260200101518b8681518110610762576107626150dc565b60200260200101516040518563ffffffff1660e01b8152600401610789949392919061514a565b60408051808303816000875af11580156107a7573d6000803e3d6000fd5b505050506040513d601f19601f820116820180604052508101906107cb919061517d565b9093509150806107da816151c1565b91505061071c565b50505b6107f181898b8a61194c565b50505b505b6108008587611d75565b9998505050505050505050565b600061081d6064604484866151dc565b81019061082a9190614ba2565b9050806001600160a01b031663ac784ddc6040518163ffffffff1660e01b8152600401602060405180830381865afa15801561086a573d6000803e3d6000fd5b505050506040513d601f19601f8201168201806040525081019061088e9190615206565b15610956576000808080808080806108a98a6004818e6151dc565b8101906108b69190615287565b985098509850985098509850509750975060006103e5886103e86108da9190615321565b6108e49190615356565b905060006103e56108f78a6103e8615321565b610901919061536a565b11156109155780610911816151c1565b9150505b61092789898c8a8a8a878b8b8b611f9a565b606c80546001600160a01b0319166001600160a01b039290921691909117905550610a19975050505050505050565b6000808080808080808061096d8b6004818f6151dc565b81019061097a919061537e565b9950995099509950995099509950509850985060006103e5896103e86109a09190615321565b6109aa9190615356565b905060006103e56109bd8b6103e8615321565b6109c7919061536a565b11156109db57806109d7816151c1565b9150505b6109ee8a8a8d8b8b8b878c8c8c8c6121ad565b606c80546001600160a01b0319166001600160a01b0392909216919091179055505050505050505050505b505050505050565b600054610100900460ff1615808015610a415750600054600160ff909116105b80610a5b5750303b158015610a5b575060005460ff166001145b610abe5760405162461bcd60e51b815260206004820152602e60248201527f496e697469616c697a61626c653a20636f6e747261637420697320616c72656160448201526d191e481a5b9a5d1a585b1a5e995960921b606482015260840161017d565b6000805460ff191660011790558015610ae1576000805461ff0019166101001790555b610ae9612441565b6001600160a01b038516610b3f5760405162461bcd60e51b815260206004820152601d60248201527f556e69737761705632466163746f7279206e6f7420646566696e65642e000000604482015260640161017d565b606580546001600160a01b03199081166001600160a01b03898116918217909355606780548316898516908117909155606880548416898616179055606980548416948816949094179093556066805483169091179055606b805490911690911790558151610bb590606a906020850190614696565b508015610a19576000805461ff0019169055604051600181527f7f26b83ff96e1f2b6a682f133852f6798a09c465da95921460cefb38474024989060200160405180910390a1505050505050565b6000610c176033546001600160a01b031690565b6001600160a01b03161415610c41576000610c3482840184614ba2565b9050610c3f81612470565b505b5050565b610c4d6124c2565b6001600160a01b03919091166000908152606d60205260409020805460ff1916911515919091179055565b6000808b11610c995760405162461bcd60e51b815260040161017d9061545a565b60008060008c6001600160a01b0316636f307dc36040518163ffffffff1660e01b8152600401602060405180830381865afa158015610cdc573d6000803e3d6000fd5b505050506040513d601f19601f82011682018060405250810190610d00919061503c565b9050886001600160a01b031663c45a01556040518163ffffffff1660e01b8152600401602060405180830381865afa158015610d40573d6000803e3d6000fd5b505050506040513d601f19601f82011682018060405250810190610d64919061503c565b60655460405163e6a4390560e01b81526001600160a01b038481166004830152918216602482015291169063e6a4390590604401602060405180830381865afa158015610db5573d6000803e3d6000fd5b505050506040513d601f19601f82011682018060405250810190610dd9919061503c565b9250806001600160a01b0316836001600160a01b0316630dfe16816040518163ffffffff1660e01b8152600401602060405180830381865afa158015610e23573d6000803e3d6000fd5b505050506040513d601f19601f82011682018060405250810190610e47919061503c565b6001600160a01b031614915050816001600160a01b031663022c0d9f82610e6f576000610e71565b8e5b8315610e7e576000610e80565b8f5b306000366040518663ffffffff1660e01b8152600401610ea495949392919061549e565b600060405180830381600087803b158015610ebe57600080fd5b505af1158015610ed2573d6000803e3d6000fd5b50505050610ee1898b8661251c565b9e9d5050505050505050505050505050565b610efb6124c2565b610f056000612470565b565b610f14858585858561080d565b5050505050565b610f236124c2565b8215801590610f3157508281145b610fa35760405162461bcd60e51b815260206004820152603f60248201527f6c697374206f66207374726174656769657320656d707479206f72207768697460448201527f656c69737420646f6573206e6f74206d6174636820697473206c656e67746800606482015260840161017d565b60005b83811015610f1457828282818110610fc057610fc06150dc565b9050602002016020810190610fd591906154ed565b606d6000878785818110610feb57610feb6150dc565b90506020020160208101906110009190614ba2565b6001600160a01b031681526020810191909152604001600020805460ff191691151591909117905580611032816151c1565b915050610fa6565b600080891161105b5760405162461bcd60e51b815260040161017d90614f68565b6000886001600160a01b0316636f307dc36040518163ffffffff1660e01b8152600401602060405180830381865afa15801561109b573d6000803e3d6000fd5b505050506040513d601f19601f820116820180604052508101906110bf919061503c565b90506110d66001600160a01b03821633308d612640565b6110e1818a8c6126ab565b604051637af1e23160e11b81526001600160a01b038c81166004830152602482018c905289811660448301528a169063f5e3c462906064016020604051808303816000875af1158015611138573d6000803e3d6000fd5b505050506040513d601f19601f8201168201806040525081019061115c9190614fc5565b1561119f5760405162461bcd60e51b81526020600482015260136024820152722634b8bab4b230ba34b7b7103330b4b632b21760691b604482015260640161017d565b876001600160a01b0316866001600160a01b0316146114a4576040516370a0823160e01b81523060048201526000906001600160a01b038a16906370a0823190602401602060405180830381865afa1580156111ff573d6000803e3d6000fd5b505050506040513d601f19601f820116820180604052508101906112239190614fc5565b905080156114a25760405163db006a7560e01b8152600481018290526000906001600160a01b038b169063db006a75906024016020604051808303816000875af1158015611275573d6000803e3d6000fd5b505050506040513d601f19601f820116820180604052508101906112999190614fc5565b905080156112b95760405162461bcd60e51b815260040161017d90614fde565b896001600160a01b031663ac784ddc6040518163ffffffff1660e01b8152600401602060405180830381865afa1580156112f7573d6000803e3d6000fd5b505050506040513d601f19601f8201168201806040525081019061131b9190615206565b156113325761132d6000898b8a61194c565b6114a0565b60008a6001600160a01b0316636f307dc36040518163ffffffff1660e01b8152600401602060405180830381865afa158015611372573d6000803e3d6000fd5b505050506040513d601f19601f82011682018060405250810190611396919061503c565b8751909150156114925785518751146113c15760405162461bcd60e51b815260040161017d90615059565b6040516370a0823160e01b81523060048201526000906001600160a01b038316906370a0823190602401602060405180830381865afa158015611408573d6000803e3d6000fd5b505050506040513d601f19601f8201168201806040525081019061142c9190614fc5565b905060005b885181101561148f5761147883838b8481518110611451576114516150dc565b60200260200101518b858151811061146b5761146b6150dc565b60200260200101516114bd565b909350915080611487816151c1565b915050611431565b50505b61149e818a8c8b61194c565b505b505b505b6114ae8688611d75565b9b9a5050505050505050505050565b6001600160a01b0382166000908152606d6020526040812054819060ff166115425760405162461bcd60e51b815260206004820152603260248201527f6f6e6c792077686974656c697374656420726564656d7074696f6e20737472616044820152711d1959da595cc818d85b881899481d5cd95960721b606482015260840161017d565b600061159c856310badf4e60e01b8989886040516024016115659392919061550a565b60408051601f198184030181529190526020810180516001600160e01b03166001600160e01b03199093169290921790915261275a565b9050808060200190518101906115b2919061517d565b925092505094509492505050565b6000808a116115e15760405162461bcd60e51b815260040161017d9061545a565b60006117b1606b60009054906101000a90046001600160a01b03166001600160a01b031663c45a01556040518163ffffffff1660e01b8152600401602060405180830381865afa158015611639573d6000803e3d6000fd5b505050506040513d601f19601f8201168201806040525081019061165d919061503c565b6067546001600160a01b0389811691161480156116f0575060685460408051636f307dc360e01b815290516001600160a01b03928316928e1691636f307dc39160048083019260209291908290030181865afa1580156116c1573d6000803e3d6000fd5b505050506040513d601f19601f820116820180604052508101906116e5919061503c565b6001600160a01b0316145b611705576068546001600160a01b0316611712565b6069546001600160a01b03165b606554606a80546001600160a01b039092169161172e90615531565b80601f016020809104026020016040519081016040528092919081815260200182805461175a90615531565b80156117a75780601f1061177c576101008083540402835291602001916117a7565b820191906000526020600020905b81548152906001019060200180831161178a57829003601f168201915b505050505061284e565b90506000816001600160a01b0316630dfe16816040518163ffffffff1660e01b8152600401602060405180830381865afa1580156117f3573d6000803e3d6000fd5b505050506040513d601f19601f82011682018060405250810190611817919061503c565b6065549091506001600160a01b038084169163022c0d9f91808516911614611840576000611842565b8d5b6065546001600160a01b038581169116141561185f576000611861565b8e5b306000366040518663ffffffff1660e01b815260040161188595949392919061549e565b600060405180830381600087803b15801561189f57600080fd5b505af11580156118b3573d6000803e3d6000fd5b505050506118c2888a8661251c565b9d9c50505050505050505050505050565b6118db6124c2565b6001600160a01b0381166119405760405162461bcd60e51b815260206004820152602660248201527f4f776e61626c653a206e6577206f776e657220697320746865207a65726f206160448201526564647265737360d01b606482015260840161017d565b61194981612470565b50565b836001600160a01b0316836001600160a01b0316141561196b57611d6f565b6001600160a01b038416611a8f576065546001600160a01b03848116911614156119fd57606660009054906101000a90046001600160a01b03166001600160a01b031663d0e30db0476040518263ffffffff1660e01b81526004016000604051808303818588803b1580156119df57600080fd5b505af11580156119f3573d6000803e3d6000fd5b5050505050611d6f565b6065546001600160a01b0380831691637ff36ab59147918691611a219116886128d9565b30426040518663ffffffff1660e01b8152600401611a4294939291906155b0565b60006040518083038185885af1158015611a60573d6000803e3d6000fd5b50505050506040513d6000823e601f3d908101601f19168201604052611a8991908101906155e5565b50611d6f565b6065546001600160a01b038581169116148015611ab357506001600160a01b038316155b15611b84576066546065546040516370a0823160e01b81523060048201526001600160a01b0392831692632e1a7d4d9216906370a0823190602401602060405180830381865afa158015611b0b573d6000803e3d6000fd5b505050506040513d601f19601f82011682018060405250810190611b2f9190614fc5565b6040518263ffffffff1660e01b8152600401611b4d91815260200190565b600060405180830381600087803b158015611b6757600080fd5b505af1158015611b7b573d6000803e3d6000fd5b50505050611d6f565b6040516370a0823160e01b815230600482015284906000906001600160a01b038316906370a0823190602401602060405180830381865afa158015611bcd573d6000803e3d6000fd5b505050506040513d601f19601f82011682018060405250810190611bf19190614fc5565b9050611bfe8284836126ab565b6001600160a01b038516611ca0576065546001600160a01b03808516916318cbafe59184918891611c31918c91166128d9565b30426040518663ffffffff1660e01b8152600401611c5395949392919061566a565b6000604051808303816000875af1158015611c72573d6000803e3d6000fd5b505050506040513d6000823e601f3d908101601f19168201604052611c9a91908101906155e5565b50610a19565b6065546001600160a01b03808516916338ed173991849188918b811691161480611cd757506065546001600160a01b038a81169116145b611cf857606554611cf3908b906001600160a01b03168b612966565b611d02565b611d028a8a6128d9565b30426040518663ffffffff1660e01b8152600401611d2495949392919061566a565b6000604051808303816000875af1158015611d43573d6000803e3d6000fd5b505050506040513d6000823e601f3d908101601f19168201604052611d6b91908101906155e5565b5050505b50505050565b6000806001600160a01b038416611ea957504782811015611dec5760405162461bcd60e51b815260206004820152602b60248201527f4d696e696d756d204e4154495645206f757470757420616d6f756e74206e6f7460448201526a1039b0ba34b9b334b2b21760a91b606482015260840161017d565b8015611ea457604051600090339083908381818185875af1925050503d8060008114611e34576040519150601f19603f3d011682016040523d82523d6000602084013e611e39565b606091505b5050905080611ea25760405162461bcd60e51b815260206004820152602f60248201527f4661696c656420746f207472616e73666572206f7574707574204e415449564560448201526e103a379036b9b39739b2b73232b91760891b606482015260840161017d565b505b611f93565b6040516370a0823160e01b815230600482015284906001600160a01b038216906370a0823190602401602060405180830381865afa158015611eef573d6000803e3d6000fd5b505050506040513d601f19601f82011682018060405250810190611f139190614fc5565b915083821015611f775760405162461bcd60e51b815260206004820152602960248201527f4d696e696d756d20746f6b656e206f757470757420616d6f756e74206e6f742060448201526839b0ba34b334b2b21760b91b606482015260840161017d565b8115611f9157611f916001600160a01b0382163384612a29565b505b9392505050565b606654604051632e1a7d4d60e01b8152600481018b90526000916001600160a01b031690632e1a7d4d90602401600060405180830381600087803b158015611fe157600080fd5b505af1158015611ff5573d6000803e3d6000fd5b5050604051635572051560e11b81526001600160a01b038e811660048301528b811660248301528c16925063aae40a2a91508c906044016000604051808303818588803b15801561204557600080fd5b505af1158015612059573d6000803e3d6000fd5b50506040516370a0823160e01b8152306004820152600093506001600160a01b038c1692506370a082319150602401602060405180830381865afa1580156120a5573d6000803e3d6000fd5b505050506040513d601f19601f820116820180604052508101906120c99190614fc5565b9050600081116121105760405162461bcd60e51b815260206004820152601260248201527127379031aa37b5b2b7399039b2b4bd32b21760711b604482015260640161017d565b60405163db006a7560e01b8152600481018290526000906001600160a01b038b169063db006a75906024016020604051808303816000875af115801561215a573d6000803e3d6000fd5b505050506040513d601f19601f8201168201806040525081019061217e9190614fc5565b9050801561219e5760405162461bcd60e51b815260040161017d90614fde565b6118c28c8b8a8a8a8a8a612a59565b6000808a6001600160a01b0316636f307dc36040518163ffffffff1660e01b8152600401602060405180830381865afa1580156121ee573d6000803e3d6000fd5b505050506040513d601f19601f82011682018060405250810190612212919061503c565b905061221f818c8e6126ab565b604051637af1e23160e11b81526001600160a01b038e81166004830152602482018e90528b811660448301528c169063f5e3c462906064016020604051808303816000875af1158015612276573d6000803e3d6000fd5b505050506040513d601f19601f8201168201806040525081019061229a9190614fc5565b156122dd5760405162461bcd60e51b81526020600482015260136024820152722634b8bab4b230ba34b7b7103330b4b632b21760691b604482015260640161017d565b6040516370a0823160e01b81523060048201526000906001600160a01b038c16906370a0823190602401602060405180830381865afa158015612324573d6000803e3d6000fd5b505050506040513d601f19601f820116820180604052508101906123489190614fc5565b90506000811161238f5760405162461bcd60e51b815260206004820152601260248201527127379031aa37b5b2b7399039b2b4bd32b21760711b604482015260640161017d565b60405163db006a7560e01b8152600481018290526000906001600160a01b038d169063db006a75906024016020604051808303816000875af11580156123d9573d6000803e3d6000fd5b505050506040513d601f19601f820116820180604052508101906123fd9190614fc5565b9050801561241d5760405162461bcd60e51b815260040161017d90614fde565b61242e8e8d8c8c8c8c8c8c8b613243565b9f9e505050505050505050505050505050565b600054610100900460ff166124685760405162461bcd60e51b815260040161017d906156a6565b610f05613c4b565b603380546001600160a01b038381166001600160a01b0319831681179093556040519116919082907f8be0079c531659141344cd1fd0a4f28419497f9722a3daafe3b4186f6b6457e090600090a35050565b6033546001600160a01b03163314610f055760405162461bcd60e51b815260206004820181905260248201527f4f776e61626c653a2063616c6c6572206973206e6f7420746865206f776e6572604482015260640161017d565b60006001600160a01b0384166125b857606c54612558906001600160a01b03168561254785876156f1565b606b546001600160a01b031661194c565b81156125a75760405141908390600081818185875af1925050503d806000811461259e576040519150601f19603f3d011682016040523d82523d6000602084013e6125a3565b606091505b5050505b6125b18484611d75565b9050611f93565b811561262557606c54606b546125dc916001600160a01b0390811691859116613c7b565b60405141908390600081818185875af1925050503d806000811461261c576040519150601f19603f3d011682016040523d82523d6000602084013e612621565b606091505b5050505b606c546125a7906001600160a01b03168561254785876156f1565b6040516001600160a01b0380851660248301528316604482015260648101829052611d6f9085906323b872dd60e01b906084015b60408051601f198184030181529190526020810180516001600160e01b03166001600160e01b031990931692909217909152613e0f565b604051636eb1769f60e11b81523060048201526001600160a01b0383811660248301526000919085169063dd62ed3e90604401602060405180830381865afa1580156126fb573d6000803e3d6000fd5b505050506040513d601f19601f8201168201806040525081019061271f9190614fc5565b905081811015611d6f578015612744576127446001600160a01b038516846000613ee1565b611d6f6001600160a01b03851684600019613ee1565b60606001600160a01b0383163b6127c25760405162461bcd60e51b815260206004820152602660248201527f416464726573733a2064656c65676174652063616c6c20746f206e6f6e2d636f6044820152651b9d1c9858dd60d21b606482015260840161017d565b600080846001600160a01b0316846040516127dd9190615709565b600060405180830381855af49150503d8060008114612818576040519150601f19603f3d011682016040523d82523d6000602084013e61281d565b606091505b5091509150612845828260405180606001604052806027815260200161588e60279139613ff6565b95945050505050565b600080600061285d868661402f565b6040516bffffffffffffffffffffffff19606084811b8216602084015283901b1660348201529193509150879060480160405160208183030381529060405280519060200120856040516020016128b693929190615725565b60408051601f198184030181529190528051602090910120979650505050505050565b604080516002808252606080830184529260009291906020830190803683370190505090508381600081518110612912576129126150dc565b60200260200101906001600160a01b031690816001600160a01b0316815250508281600181518110612946576129466150dc565b6001600160a01b0390921660209283029190910190910152905092915050565b604080516003808252608082019092526060916000919060208201848036833701905050905084816000815181106129a0576129a06150dc565b60200260200101906001600160a01b031690816001600160a01b03168152505083816001815181106129d4576129d46150dc565b60200260200101906001600160a01b031690816001600160a01b0316815250508281600281518110612a0857612a086150dc565b6001600160a01b039092166020928302919091019091015290509392505050565b6040516001600160a01b038316602482015260448101829052610c3f90849063a9059cbb60e01b90606401612674565b600080876001600160a01b0316636f307dc36040518163ffffffff1660e01b8152600401602060405180830381865afa158015612a9a573d6000803e3d6000fd5b505050506040513d601f19601f82011682018060405250810190612abe919061503c565b6040516370a0823160e01b81523060048201529091506000906001600160a01b038316906370a0823190602401602060405180830381865afa158015612b08573d6000803e3d6000fd5b505050506040513d601f19601f82011682018060405250810190612b2c9190614fc5565b855190915015612bad578351855114612b575760405162461bcd60e51b815260040161017d90615059565b60005b8551811015612bab57612b948383888481518110612b7a57612b7a6150dc565b602002602001015188858151811061146b5761146b6150dc565b909350915080612ba3816151c1565b915050612b5a565b505b6067546001600160a01b038781169116148015612c76575060685460408051636f307dc360e01b815290516001600160a01b03928316928c1691636f307dc39160048083019260209291908290030181865afa158015612c11573d6000803e3d6000fd5b505050506040513d601f19601f82011682018060405250810190612c35919061503c565b6001600160a01b031614612c54576068546001600160a01b0316612c61565b6069546001600160a01b03165b6001600160a01b0316826001600160a01b0316145b15612e7b576000612d00876001600160a01b031663c45a01556040518163ffffffff1660e01b8152600401602060405180830381865afa158015612cbe573d6000803e3d6000fd5b505050506040513d601f19601f82011682018060405250810190612ce2919061503c565b6065548d90612cfb9087906001600160a01b03166128d9565b614125565b600081518110612d1257612d126150dc565b6020026020010151905081811115612d925760405162461bcd60e51b815260206004820152603760248201527f466c6173686c6f616e2072657475726e20616d6f756e7420677265617465722060448201527f7468616e207365697a656420636f6c6c61746572616c2e000000000000000000606482015260840161017d565b60405163a9059cbb60e01b8152336004820152602481018290526001600160a01b0384169063a9059cbb906044016020604051808303816000875af1158015612ddf573d6000803e3d6000fd5b505050506040513d601f19601f82011682018060405250810190612e039190615206565b612e755760405162461bcd60e51b815260206004820152603b60248201527f4661696c656420746f207472616e73666572206e6f6e2d575f4e41544956452060448201527f746f6b656e73206261636b20746f20666c6173686c656e6465722e0000000000606482015260840161017d565b50613236565b6065546001600160a01b03838116911614613063576001600160a01b038216612f0c57606660009054906101000a90046001600160a01b03166001600160a01b031663d0e30db0886040518263ffffffff1660e01b81526004016000604051808303818588803b158015612eee57600080fd5b505af1158015612f02573d6000803e3d6000fd5b5050505050613063565b612f178287836126ab565b816001600160a01b0316886001600160a01b03161415612fc5576065546001600160a01b0380881691638803dbee918a918591612f56918891166128d9565b30426040518663ffffffff1660e01b8152600401612f7895949392919061566a565b6000604051808303816000875af1158015612f97573d6000803e3d6000fd5b505050506040513d6000823e601f3d908101601f19168201604052612fbf91908101906155e5565b50613063565b6065546001600160a01b03808816916338ed17399184918b91612fea918891166128d9565b30426040518663ffffffff1660e01b815260040161300c95949392919061566a565b6000604051808303816000875af115801561302b573d6000803e3d6000fd5b505050506040513d6000823e601f3d908101601f1916820160405261305391908101906155e5565b506065546001600160a01b031691505b6065546040516370a0823160e01b81523060048201526001600160a01b03909116906370a0823190602401602060405180830381865afa1580156130ab573d6000803e3d6000fd5b505050506040513d601f19601f820116820180604052508101906130cf9190614fc5565b87111561315c5760405162461bcd60e51b815260206004820152604f60248201527f466c6173686c6f616e2072657475726e20616d6f756e7420677265617465722060448201527f7468616e20575f4e41544956452065786368616e6765642066726f6d2073656960648201526e3d32b21031b7b63630ba32b930b61760891b608482015260a40161017d565b60665460405163a9059cbb60e01b8152336004820152602481018990526001600160a01b039091169063a9059cbb906044016020604051808303816000875af11580156131ad573d6000803e3d6000fd5b505050506040513d601f19601f820116820180604052508101906131d19190615206565b6132365760405162461bcd60e51b815260206004820152603060248201527f4661696c656420746f207472616e7366657220575f4e4154495645206261636b60448201526f103a3790333630b9b43632b73232b91760811b606482015260840161017d565b5098975050505050505050565b6000886001600160a01b031663ac784ddc6040518163ffffffff1660e01b8152600401602060405180830381865afa158015613283573d6000803e3d6000fd5b505050506040513d601f19601f820116820180604052508101906132a79190615206565b156134c85760004790506000613330886001600160a01b031663c45a01556040518163ffffffff1660e01b8152600401602060405180830381865afa1580156132f4573d6000803e3d6000fd5b505050506040513d601f19601f82011682018060405250810190613318919061503c565b6065548e90612cfb906001600160a01b0316886128d9565b600081518110613342576133426150dc565b60200260200101519050818111156133c25760405162461bcd60e51b815260206004820152603760248201527f5365697a6564204e415449564520636f6c6c61746572616c206e6f7420656e6f60448201527f75676820746f20726570617920666c6173686c6f616e2e000000000000000000606482015260840161017d565b606660009054906101000a90046001600160a01b03166001600160a01b031663d0e30db0826040518263ffffffff1660e01b81526004016000604051808303818588803b15801561341257600080fd5b505af1158015613426573d6000803e3d6000fd5b505060665460405163a9059cbb60e01b8152336004820152602481018690526001600160a01b03909116935063a9059cbb925060440190506020604051808303816000875af115801561347d573d6000803e3d6000fd5b505050506040513d601f19601f820116820180604052508101906134a19190615206565b6134bd5760405162461bcd60e51b815260040161017d9061576e565b600092505050610800565b6000896001600160a01b0316636f307dc36040518163ffffffff1660e01b8152600401602060405180830381865afa158015613508573d6000803e3d6000fd5b505050506040513d601f19601f8201168201806040525081019061352c919061503c565b6040516370a0823160e01b81523060048201529091506000906001600160a01b038316906370a0823190602401602060405180830381865afa158015613576573d6000803e3d6000fd5b505050506040513d601f19601f8201168201806040525081019061359a9190614fc5565b8651909150156136975784518651146136415760405162461bcd60e51b815260206004820152605b60248201527f49526564656d7074696f6e537472617465677920636f6e74726163742061727260448201527f617920616e64207374726174656779206461746120627974657320617272617960648201527f206d6e75737420746865207468652073616d65206c656e6774682e0000000000608482015260a40161017d565b60005b86518110156136955761367e8383898481518110613664576136646150dc565b602002602001015189858151811061146b5761146b6150dc565b90935091508061368d816151c1565b915050613644565b505b836001600160a01b0316826001600160a01b03161415613895576040516370a0823160e01b81523060048201526001600160a01b038516906370a0823190602401602060405180830381865afa1580156136f5573d6000803e3d6000fd5b505050506040513d601f19601f820116820180604052508101906137199190614fc5565b8911156137aa5760405162461bcd60e51b815260206004820152605360248201527f546f6b656e20666c6173686c6f616e2072657475726e20616d6f756e7420677260448201527f6561746572207468616e20746f6b656e732065786368616e6765642066726f6d6064820152721039b2b4bd32b21031b7b63630ba32b930b61760691b608482015260a40161017d565b60405163a9059cbb60e01b8152336004820152602481018a90526001600160a01b0385169063a9059cbb906044016020604051808303816000875af11580156137f7573d6000803e3d6000fd5b505050506040513d601f19601f8201168201806040525081019061381b9190615206565b61388d5760405162461bcd60e51b815260206004820152603e60248201527f4661696c656420746f20726570617920746f6b656e20666c6173686c6f616e2060448201527f6f6e20626f72726f7720286e6f6e2d575f4e41544956452920736964652e0000606482015260840161017d565b509050610800565b6000613914896001600160a01b031663c45a01556040518163ffffffff1660e01b8152600401602060405180830381865afa1580156138d8573d6000803e3d6000fd5b505050506040513d601f19601f820116820180604052508101906138fc919061503c565b6065548f90612cfb906001600160a01b0316896128d9565b600081518110613926576139266150dc565b60209081029190910101516065549091506001600160a01b03848116911614613a92576139548389846126ab565b826001600160a01b03168b6001600160a01b03161415613a02576065546001600160a01b03808a1691638803dbee9184918691613993918991166128d9565b30426040518663ffffffff1660e01b81526004016139b595949392919061566a565b6000604051808303816000875af11580156139d4573d6000803e3d6000fd5b505050506040513d6000823e601f3d908101601f191682016040526139fc91908101906155e5565b50613a92565b6065546001600160a01b03808a16916338ed17399185918591613a27918991166128d9565b30426040518663ffffffff1660e01b8152600401613a4995949392919061566a565b6000604051808303816000875af1158015613a68573d6000803e3d6000fd5b505050506040513d6000823e601f3d908101601f19168201604052613a9091908101906155e5565b505b6065546040516370a0823160e01b81523060048201526001600160a01b03909116906370a0823190602401602060405180830381865afa158015613ada573d6000803e3d6000fd5b505050506040513d601f19601f82011682018060405250810190613afe9190614fc5565b811115613b845760405162461bcd60e51b815260206004820152604860248201527f4e6f7420656e6f75676820575f4e41544956452065786368616e67656420667260448201527f6f6d207365697a656420636f6c6c61746572616c20746f20726570617920666c60648201526730b9b43637b0b71760c11b608482015260a40161017d565b60665460405163a9059cbb60e01b8152336004820152602481018390526001600160a01b039091169063a9059cbb906044016020604051808303816000875af1158015613bd5573d6000803e3d6000fd5b505050506040513d601f19601f82011682018060405250810190613bf99190615206565b613c155760405162461bcd60e51b815260040161017d9061576e565b826001600160a01b03168b6001600160a01b031614613c3f576065546001600160a01b0316613c41565b825b9350505050610800565b600054610100900460ff16613c725760405162461bcd60e51b815260040161017d906156a6565b610f0533612470565b6001600160a01b038316613c8e57505050565b6065546001600160a01b0384811691161415613d0757606654604051632e1a7d4d60e01b8152600481018490526001600160a01b0390911690632e1a7d4d90602401600060405180830381600087803b158015613cea57600080fd5b505af1158015613cfe573d6000803e3d6000fd5b50505050610c3f565b6040516370a0823160e01b815230600482015283906000906001600160a01b038316906370a0823190602401602060405180830381865afa158015613d50573d6000803e3d6000fd5b505050506040513d601f19601f82011682018060405250810190613d749190614fc5565b9050613d818284836126ab565b6065546001600160a01b0380851691634a25d94a9187918591613da6918b91166128d9565b30426040518663ffffffff1660e01b8152600401613dc895949392919061566a565b6000604051808303816000875af1158015613de7573d6000803e3d6000fd5b505050506040513d6000823e601f3d908101601f19168201604052610a1991908101906155e5565b6000613e64826040518060400160405280602081526020017f5361666545524332303a206c6f772d6c6576656c2063616c6c206661696c6564815250856001600160a01b03166142b29092919063ffffffff16565b805190915015610c3f5780806020019051810190613e829190615206565b610c3f5760405162461bcd60e51b815260206004820152602a60248201527f5361666545524332303a204552433230206f7065726174696f6e20646964206e6044820152691bdd081cdd58d8d9595960b21b606482015260840161017d565b801580613f5b5750604051636eb1769f60e11b81523060048201526001600160a01b03838116602483015284169063dd62ed3e90604401602060405180830381865afa158015613f35573d6000803e3d6000fd5b505050506040513d601f19601f82011682018060405250810190613f599190614fc5565b155b613fc65760405162461bcd60e51b815260206004820152603660248201527f5361666545524332303a20617070726f76652066726f6d206e6f6e2d7a65726f60448201527520746f206e6f6e2d7a65726f20616c6c6f77616e636560501b606482015260840161017d565b6040516001600160a01b038316602482015260448101829052610c3f90849063095ea7b360e01b90606401612674565b60608315614005575081611f93565b8251156140155782518084602001fd5b8160405162461bcd60e51b815260040161017d91906157e5565b600080826001600160a01b0316846001600160a01b031614156140a05760405162461bcd60e51b815260206004820152602360248201527f50616e63616b654c6962726172793a204944454e544943414c5f41444452455360448201526253455360e81b606482015260840161017d565b826001600160a01b0316846001600160a01b0316106140c05782846140c3565b83835b90925090506001600160a01b03821661411e5760405162461bcd60e51b815260206004820152601c60248201527f50616e63616b654c6962726172793a205a45524f5f4144445245535300000000604482015260640161017d565b9250929050565b60606002825110156141795760405162461bcd60e51b815260206004820152601c60248201527f50616e63616b654c6962726172793a20494e56414c49445f5041544800000000604482015260640161017d565b81516001600160401b0381111561419257614192614754565b6040519080825280602002602001820160405280156141bb578160200160208202803683370190505b5090508281600183516141ce91906157f8565b815181106141de576141de6150dc565b6020026020010181815250506000600183516141fa91906157f8565b90505b8015611f915760008061424d87866142166001876157f8565b81518110614226576142266150dc565b6020026020010151878681518110614240576142406150dc565b60200260200101516142c9565b91509150614275848481518110614266576142666150dc565b602002602001015183836143fe565b846142816001866157f8565b81518110614291576142916150dc565b602002602001018181525050505080806142aa9061580f565b9150506141fd565b60606142c18484600085614520565b949350505050565b60008060006142d8858561402f565b5060405163e6a4390560e01b81526001600160a01b038781166004830152868116602483015291925060009182919089169063e6a4390590604401602060405180830381865afa158015614330573d6000803e3d6000fd5b505050506040513d601f19601f82011682018060405250810190614354919061503c565b6001600160a01b0316630902f1ac6040518163ffffffff1660e01b8152600401606060405180830381865afa158015614391573d6000803e3d6000fd5b505050506040513d601f19601f820116820180604052508101906143b5919061583d565b506001600160701b031691506001600160701b03169150826001600160a01b0316876001600160a01b0316146143ec5780826143ef565b81815b90999098509650505050505050565b60008084116144625760405162461bcd60e51b815260206004820152602a60248201527f50616e63616b654c6962726172793a20494e53554646494349454e545f4f555460448201526914155517d05353d5539560b21b606482015260840161017d565b6000831180156144725750600082115b6144cd5760405162461bcd60e51b815260206004820152602660248201527f50616e63616b654c6962726172793a20494e53554646494349454e545f4c495160448201526555494449545960d01b606482015260840161017d565b60006144d98585615321565b6144e5906103e8615321565b905060006144f386856157f8565b6144ff906103e5615321565b905061450b8183615356565b6145169060016156f1565b9695505050505050565b6060824710156145815760405162461bcd60e51b815260206004820152602660248201527f416464726573733a20696e73756666696369656e742062616c616e636520666f6044820152651c8818d85b1b60d21b606482015260840161017d565b600080866001600160a01b0316858760405161459d9190615709565b60006040518083038185875af1925050503d80600081146145da576040519150601f19603f3d011682016040523d82523d6000602084013e6145df565b606091505b50915091506145f0878383876145fb565b979650505050505050565b60608315614667578251614660576001600160a01b0385163b6146605760405162461bcd60e51b815260206004820152601d60248201527f416464726573733a2063616c6c20746f206e6f6e2d636f6e7472616374000000604482015260640161017d565b50816142c1565b6142c1838381511561467c5781518083602001fd5b8060405162461bcd60e51b815260040161017d91906157e5565b8280546146a290615531565b90600052602060002090601f0160209004810192826146c4576000855561470a565b82601f106146dd57805160ff191683800117855561470a565b8280016001018555821561470a579182015b8281111561470a5782518255916020019190600101906146ef565b5061471692915061471a565b5090565b5b80821115614716576000815560010161471b565b6001600160a01b038116811461194957600080fd5b803561474f8161472f565b919050565b634e487b7160e01b600052604160045260246000fd5b604051601f8201601f191681016001600160401b038111828210171561479257614792614754565b604052919050565b60006001600160401b038211156147b3576147b3614754565b5060051b60200190565b600082601f8301126147ce57600080fd5b813560206147e36147de8361479a565b61476a565b82815260059290921b8401810191818101908684111561480257600080fd5b8286015b848110156148265780356148198161472f565b8352918301918301614806565b509695505050505050565b600082601f83011261484257600080fd5b81356001600160401b0381111561485b5761485b614754565b61486e601f8201601f191660200161476a565b81815284602083860101111561488357600080fd5b816020850160208301376000918101602001919091529392505050565b600082601f8301126148b157600080fd5b813560206148c16147de8361479a565b82815260059290921b840181019181810190868411156148e057600080fd5b8286015b848110156148265780356001600160401b038111156149035760008081fd5b6149118986838b0101614831565b8452509183019183016148e4565b600080600080600080600080610100898b03121561493c57600080fd5b88356149478161472f565b975060208901356149578161472f565b965060408901356149678161472f565b955060608901359450608089013561497e8161472f565b935060a089013561498e8161472f565b925060c08901356001600160401b03808211156149aa57600080fd5b6149b68c838d016147bd565b935060e08b01359150808211156149cc57600080fd5b506149d98b828c016148a0565b9150509295985092959890939650565b60008083601f8401126149fb57600080fd5b5081356001600160401b03811115614a1257600080fd5b60208301915083602082850101111561411e57600080fd5b600080600080600060808688031215614a4257600080fd5b8535614a4d8161472f565b9450602086013593506040860135925060608601356001600160401b03811115614a7657600080fd5b614a82888289016149e9565b969995985093965092949392505050565b600080600080600060a08688031215614aab57600080fd5b8535614ab68161472f565b94506020860135614ac68161472f565b93506040860135614ad68161472f565b92506060860135614ae68161472f565b915060808601356001600160401b03811115614b0157600080fd5b614b0d88828901614831565b9150509295509295909350565b60008060208385031215614b2d57600080fd5b82356001600160401b03811115614b4357600080fd5b614b4f858286016149e9565b90969095509350505050565b801515811461194957600080fd5b60008060408385031215614b7c57600080fd5b8235614b878161472f565b91506020830135614b9781614b5b565b809150509250929050565b600060208284031215614bb457600080fd5b8135611f938161472f565b60008060008060008060008060008060006101608c8e031215614be157600080fd5b614bea8c614744565b9a5060208c01359950614bff60408d01614744565b9850614c0d60608d01614744565b975060808c01359650614c2260a08d01614744565b9550614c3060c08d01614744565b9450614c3e60e08d01614744565b93506001600160401b03806101008e01351115614c5a57600080fd5b614c6b8e6101008f01358f016147bd565b9350806101208e01351115614c7f57600080fd5b50614c918d6101208e01358e016148a0565b91506101408c013590509295989b509295989b9093969950565b60008083601f840112614cbd57600080fd5b5081356001600160401b03811115614cd457600080fd5b6020830191508360208260051b850101111561411e57600080fd5b60008060008060408587031215614d0557600080fd5b84356001600160401b0380821115614d1c57600080fd5b614d2888838901614cab565b90965094506020870135915080821115614d4157600080fd5b50614d4e87828801614cab565b95989497509550505050565b60008060008060008060008060006101208a8c031215614d7957600080fd5b8935614d848161472f565b985060208a0135975060408a0135614d9b8161472f565b9650614da960608b01614744565b955060808a01359450614dbe60a08b01614744565b9350614dcc60c08b01614744565b925060e08a01356001600160401b0380821115614de857600080fd5b614df48d838e016147bd565b93506101008c0135915080821115614e0b57600080fd5b50614e188c828d016148a0565b9150509295985092959850929598565b60008060008060808587031215614e3e57600080fd5b8435614e498161472f565b9350602085013592506040850135614e608161472f565b915060608501356001600160401b03811115614e7b57600080fd5b614e8787828801614831565b91505092959194509250565b6000806000806000806000806000806101408b8d031215614eb357600080fd5b614ebc8b614744565b995060208b01359850614ed160408c01614744565b9750614edf60608c01614744565b965060808b01359550614ef460a08c01614744565b9450614f0260c08c01614744565b935060e08b01356001600160401b0380821115614f1e57600080fd5b614f2a8e838f016147bd565b94506101008d0135915080821115614f4157600080fd5b50614f4e8d828e016148a0565b9250506101208b013590509295989b9194979a5092959850565b60208082526038908201527f526570617920616d6f756e7420287472616e73616374696f6e2076616c75652960408201527f206d7573742062652067726561746572207468616e20302e0000000000000000606082015260800190565b600060208284031215614fd757600080fd5b5051919050565b602080825260409082018190527f4572726f722063616c6c696e672072656465656d696e67207365697a65642063908201527f546f6b656e3a206572726f7220636f6465206e6f7420657175616c20746f2030606082015260800190565b60006020828403121561504e57600080fd5b8151611f938161472f565b60208082526059908201527f49526564656d7074696f6e537472617465677920636f6e74726163742061727260408201527f617920616e64207374726174656779206461746120627974657320617272617960608201527f206d757374206265207468652073616d65206c656e6774682e00000000000000608082015260a00190565b634e487b7160e01b600052603260045260246000fd5b60005b8381101561510d5781810151838201526020016150f5565b83811115611d6f5750506000910152565b600081518084526151368160208601602086016150f2565b601f01601f19169290920160200192915050565b6001600160a01b03858116825260208201859052831660408201526080606082018190526000906145169083018461511e565b6000806040838503121561519057600080fd5b825161519b8161472f565b6020939093015192949293505050565b634e487b7160e01b600052601160045260246000fd5b60006000198214156151d5576151d56151ab565b5060010190565b600080858511156151ec57600080fd5b838611156151f957600080fd5b5050820193919092039150565b60006020828403121561521857600080fd5b8151611f9381614b5b565b600082601f83011261523457600080fd5b813560206152446147de8361479a565b82815260059290921b8401810191818101908684111561526357600080fd5b8286015b8481101561482657803561527a8161472f565b8352918301918301615267565b60008060008060008060008060006101208a8c0312156152a657600080fd5b89356152b18161472f565b985060208a0135975060408a01356152c88161472f565b96506152d660608b01614744565b955060808a013594506152eb60a08b01614744565b93506152f960c08b01614744565b925060e08a01356001600160401b038082111561531557600080fd5b614df48d838e01615223565b600081600019048311821515161561533b5761533b6151ab565b500290565b634e487b7160e01b600052601260045260246000fd5b60008261536557615365615340565b500490565b60008261537957615379615340565b500690565b6000806000806000806000806000806101408b8d03121561539e57600080fd5b6153a78b614744565b995060208b013598506153bc60408c01614744565b97506153ca60608c01614744565b965060808b013595506153df60a08c01614744565b94506153ed60c08c01614744565b93506153fb60e08c01614744565b92506101008b01356001600160401b038082111561541857600080fd5b6154248e838f01615223565b93506101208d013591508082111561543b57600080fd5b506154488d828e016148a0565b9150509295989b9194979a5092959850565b60208082526024908201527f526570617920616d6f756e74206d7573742062652067726561746572207468616040820152633710181760e11b606082015260800190565b858152602081018590526001600160a01b03841660408201526080606082018190528101829052818360a0830137600081830160a090810191909152601f909201601f19160101949350505050565b6000602082840312156154ff57600080fd5b8135611f9381614b5b565b60018060a01b0384168152826020820152606060408201526000612845606083018461511e565b600181811c9082168061554557607f821691505b6020821081141561556657634e487b7160e01b600052602260045260246000fd5b50919050565b600081518084526020808501945080840160005b838110156155a55781516001600160a01b031687529582019590820190600101615580565b509495945050505050565b8481526080602082015260006155c9608083018661556c565b6001600160a01b03949094166040830152506060015292915050565b600060208083850312156155f857600080fd5b82516001600160401b0381111561560e57600080fd5b8301601f8101851361561f57600080fd5b805161562d6147de8261479a565b81815260059190911b8201830190838101908783111561564c57600080fd5b928401925b828410156145f057835182529284019290840190615651565b85815284602082015260a06040820152600061568960a083018661556c565b6001600160a01b0394909416606083015250608001529392505050565b6020808252602b908201527f496e697469616c697a61626c653a20636f6e7472616374206973206e6f74206960408201526a6e697469616c697a696e6760a81b606082015260800190565b60008219821115615704576157046151ab565b500190565b6000825161571b8184602087016150f2565b9190910192915050565b60ff60f81b81526bffffffffffffffffffffffff198460601b1660018201528260158201526000825161575f8160358501602087016150f2565b91909101603501949350505050565b60208082526051908201527f4661696c656420746f20726570617920556e697377617020666c6173686c6f6160408201527f6e207769746820575f4e41544956452065786368616e6765642066726f6d207360608201527032b4bd32b21031b7b63630ba32b930b61760791b608082015260a00190565b602081526000611f93602083018461511e565b60008282101561580a5761580a6151ab565b500390565b60008161581e5761581e6151ab565b506000190190565b80516001600160701b038116811461474f57600080fd5b60008060006060848603121561585257600080fd5b61585b84615826565b925061586960208501615826565b9150604084015163ffffffff8116811461588257600080fd5b80915050925092509256fe416464726573733a206c6f772d6c6576656c2064656c65676174652063616c6c206661696c6564a164736f6c634300080a000a",
    "linkReferences": {}
  },
  "methodIdentifiers": {
    "BTC_TOKEN()": "789fc9ad",
    "STABLE_TOKEN()": "7754f887",
    "UNISWAP_V2_ROUTER_02()": "ba8bca5a",
    "UNISWAP_V2_ROUTER_02_ADDRESS()": "a94c12bc",
    "W_NATIVE()": "b798d3ff",
    "W_NATIVE_ADDRESS()": "81738f13",
    "_becomeImplementation(bytes)": "56e67728",
    "_whitelistRedemptionStrategies(address[],bool[])": "8a0b9090",
    "_whitelistRedemptionStrategy(address,bool)": "5a431365",
    "initialize(address,address,address,address,bytes)": "4a936417",
    "owner()": "8da5cb5b",
    "pancakeCall(address,uint256,uint256,bytes)": "84800812",
    "redeemCustomCollateral(address,uint256,address,bytes)": "b5966258",
    "redemptionStrategiesWhitelist(address)": "5b672371",
    "renounceOwnership()": "715018a6",
    "safeLiquidate(address,address,address,uint256,address,address,address[],bytes[])": "0d1b2763",
    "safeLiquidate(address,uint256,address,address,uint256,address,address,address[],bytes[])": "a68ee119",
    "safeLiquidateToEthWithFlashLoan(address,uint256,address,address,uint256,address,address,address[],bytes[],uint256)": "c8348b54",
    "safeLiquidateToTokensWithFlashLoan(address,uint256,address,address,uint256,address,address,address,address[],bytes[],uint256)": "700d5dd7",
    "transferOwnership(address)": "f2fde38b",
    "uniswapV2Call(address,uint256,uint256,bytes)": "10d1e85c"
  }
}