{
  "address": "0x0293EF42377828970961C1532DA9044A87CC41BB",
  "abi": [
    {
      "anonymous": false,
      "inputs": [
        {
          "indexed": false,
          "internalType": "address",
          "name": "instance",
          "type": "address"
        }
      ],
      "name": "Deployed",
      "type": "event"
    },
    {
      "inputs": [
        {
          "internalType": "address",
          "name": "master",
          "type": "address"
        },
        {
          "internalType": "bytes",
          "name": "initializer",
          "type": "bytes"
        }
      ],
      "name": "clone",
      "outputs": [
        {
          "internalType": "address",
          "name": "instance",
          "type": "address"
        }
      ],
      "stateMutability": "nonpayable",
      "type": "function"
    }
  ],
  "transactionHash": "0x3a13ed509cbb056b5e288f1e08c085eedca37647b901cc764d0661abba9275f0",
  "args": [],
  "numDeployments": 7,
  "bytecode": {
    "object": "0x608060405234801561001057600080fd5b506104cc806100206000396000f3fe608060405234801561001057600080fd5b506004361061002b5760003560e01c80630fbe133c14610030575b600080fd5b61004361003e366004610347565b61005f565b6040516001600160a01b03909116815260200160405180910390f35b600061006a83610102565b90506100bf826040518060400160405280601b81526020017f4661696c656420746f20696e697469616c697a6520636c6f6e652e0000000000815250836001600160a01b03166101a49092919063ffffffff16565b506040516001600160a01b03821681527ff40fcec21964ffb566044d083b4073f29f7f7929110ea19e1b3ebe375d89055e9060200160405180910390a192915050565b6000604051733d602d80600a3d3981f3363d3d373d3d3d363d7360601b81528260601b60148201526e5af43d82803e903d91602b57fd5bf360881b60288201526037816000f09150506001600160a01b03811661019f5760405162461bcd60e51b8152602060048201526016602482015275115490cc4c4d8dce8818dc99585d194819985a5b195960521b60448201526064015b60405180910390fd5b919050565b60606101b384846000856101bb565b949350505050565b60608247101561021c5760405162461bcd60e51b815260206004820152602660248201527f416464726573733a20696e73756666696369656e742062616c616e636520666f6044820152651c8818d85b1b60d21b6064820152608401610196565b600080866001600160a01b031685876040516102389190610447565b60006040518083038185875af1925050503d8060008114610275576040519150601f19603f3d011682016040523d82523d6000602084013e61027a565b606091505b509150915061028b87838387610296565b979650505050505050565b606083156103025782516102fb576001600160a01b0385163b6102fb5760405162461bcd60e51b815260206004820152601d60248201527f416464726573733a2063616c6c20746f206e6f6e2d636f6e74726163740000006044820152606401610196565b50816101b3565b6101b383838151156103175781518083602001fd5b8060405162461bcd60e51b81526004016101969190610463565b634e487b7160e01b600052604160045260246000fd5b6000806040838503121561035a57600080fd5b82356001600160a01b038116811461037157600080fd5b9150602083013567ffffffffffffffff8082111561038e57600080fd5b818501915085601f8301126103a257600080fd5b8135818111156103b4576103b4610331565b604051601f8201601f19908116603f011681019083821181831017156103dc576103dc610331565b816040528281528860208487010111156103f557600080fd5b8260208601602083013760006020848301015280955050505050509250929050565b60005b8381101561043257818101518382015260200161041a565b83811115610441576000848401525b50505050565b60008251610459818460208701610417565b9190910192915050565b6020815260008251806020840152610482816040850160208701610417565b601f01601f1916919091016040019291505056fea26469706673582212206ede90bb5596da80e212956ba2b1f19f7d8868e03db0854f428524d4b628273964736f6c634300080a0033",
    "linkReferences": {}
  },
  "methodIdentifiers": {
    "clone(address,bytes)": "0fbe133c"
  }
}