{
  "address": "0x6d1Dd50b2E87cA997d35Ae8F6405BCa9c6F238B0",
  "abi": [
    {
      "inputs": [
        {
          "internalType": "contract IFuseFeeDistributor",
          "name": "_fuseFeeDistributor",
          "type": "address"
        },
        {
          "internalType": "contract ILiquidatorsRegistry",
          "name": "_registry",
          "type": "address"
        },
        {
          "internalType": "uint256",
          "name": "_blocksPerYear",
          "type": "uint256"
        }
      ],
      "stateMutability": "nonpayable",
      "type": "constructor"
    },
    {
      "inputs": [
        {
          "internalType": "bytes4",
          "name": "_functionSelector",
          "type": "bytes4"
        }
      ],
      "name": "ExtensionNotFound",
      "type": "error"
    },
    {
      "inputs": [
        {
          "internalType": "bytes4",
          "name": "_functionSelector",
          "type": "bytes4"
        },
        {
          "internalType": "address",
          "name": "_currentImpl",
          "type": "address"
        }
      ],
      "name": "FunctionAlreadyAdded",
      "type": "error"
    },
    {
      "inputs": [
        {
          "internalType": "bytes4",
          "name": "_functionSelector",
          "type": "bytes4"
        }
      ],
      "name": "FunctionNotFound",
      "type": "error"
    },
    {
      "anonymous": false,
      "inputs": [
        {
          "indexed": true,
          "internalType": "address",
          "name": "previousOwner",
          "type": "address"
        },
        {
          "indexed": true,
          "internalType": "address",
          "name": "newOwner",
          "type": "address"
        }
      ],
      "name": "OwnershipTransferStarted",
      "type": "event"
    },
    {
      "anonymous": false,
      "inputs": [
        {
          "indexed": true,
          "internalType": "address",
          "name": "previousOwner",
          "type": "address"
        },
        {
          "indexed": true,
          "internalType": "address",
          "name": "newOwner",
          "type": "address"
        }
      ],
      "name": "OwnershipTransferred",
      "type": "event"
    },
    {
      "stateMutability": "nonpayable",
      "type": "fallback"
    },
    {
      "inputs": [],
      "name": "_listExtensions",
      "outputs": [
        {
          "internalType": "address[]",
          "name": "",
          "type": "address[]"
        }
      ],
      "stateMutability": "view",
      "type": "function"
    },
    {
      "inputs": [
        {
          "internalType": "contract DiamondExtension",
          "name": "extensionToAdd",
          "type": "address"
        },
        {
          "internalType": "contract DiamondExtension",
          "name": "extensionToReplace",
          "type": "address"
        }
      ],
      "name": "_registerExtension",
      "outputs": [],
      "stateMutability": "nonpayable",
      "type": "function"
    },
    {
      "inputs": [
        {
          "internalType": "contract ILiquidatorsRegistry",
          "name": "_liquidatorsRegistry",
          "type": "address"
        }
      ],
      "name": "_setLiquidatorsRegistry",
      "outputs": [],
      "stateMutability": "nonpayable",
      "type": "function"
    },
    {
      "inputs": [
        {
          "internalType": "contract ICErc20",
          "name": "_collateralMarket",
          "type": "address"
        },
        {
          "internalType": "contract ICErc20",
          "name": "_stableMarket",
          "type": "address"
        },
        {
          "internalType": "bool",
          "name": "_whitelisted",
          "type": "bool"
        }
      ],
      "name": "_setPairWhitelisted",
      "outputs": [],
      "stateMutability": "nonpayable",
      "type": "function"
    },
    {
      "inputs": [
        {
          "internalType": "contract IERC20Upgradeable[]",
          "name": "inputTokens",
          "type": "address[]"
        },
        {
          "internalType": "contract IERC20Upgradeable[]",
          "name": "outputTokens",
          "type": "address[]"
        },
        {
          "internalType": "uint256[]",
          "name": "slippages",
          "type": "uint256[]"
        }
      ],
      "name": "_setSlippages",
      "outputs": [],
      "stateMutability": "nonpayable",
      "type": "function"
    },
    {
      "inputs": [],
      "name": "acceptOwnership",
      "outputs": [],
      "stateMutability": "nonpayable",
      "type": "function"
    },
    {
      "inputs": [],
      "name": "blocksPerYear",
      "outputs": [
        {
          "internalType": "uint256",
          "name": "",
          "type": "uint256"
        }
      ],
      "stateMutability": "view",
      "type": "function"
    },
    {
      "inputs": [],
      "name": "fuseFeeDistributor",
      "outputs": [
        {
          "internalType": "contract IFuseFeeDistributor",
          "name": "",
          "type": "address"
        }
      ],
      "stateMutability": "view",
      "type": "function"
    },
    {
      "inputs": [],
      "name": "liquidatorsRegistry",
      "outputs": [
        {
          "internalType": "contract ILiquidatorsRegistry",
          "name": "",
          "type": "address"
        }
      ],
      "stateMutability": "view",
      "type": "function"
    },
    {
      "inputs": [],
      "name": "owner",
      "outputs": [
        {
          "internalType": "address",
          "name": "",
          "type": "address"
        }
      ],
      "stateMutability": "view",
      "type": "function"
    },
    {
      "inputs": [],
      "name": "pendingOwner",
      "outputs": [
        {
          "internalType": "address",
          "name": "",
          "type": "address"
        }
      ],
      "stateMutability": "view",
      "type": "function"
    },
    {
      "inputs": [],
      "name": "renounceOwnership",
      "outputs": [],
      "stateMutability": "nonpayable",
      "type": "function"
    },
    {
      "inputs": [
        {
          "internalType": "address",
          "name": "newOwner",
          "type": "address"
        }
      ],
      "name": "transferOwnership",
      "outputs": [],
      "stateMutability": "nonpayable",
      "type": "function"
    }
  ],
  "transactionHash": "0x29e2d942545201b624e10778caf49b22ba0d80a56afa3c1c819af04f0bdf126a",
  "args": [
    "0xFc1f56C58286E7215701A773b61bFf2e18A177dE",
    "0x3E86eB86b5D4E68a26a53D23E1953e595b900084",
    10512000
  ],
  "numDeployments": 2,
  "bytecode": {
    "object": "0x60806040523480156200001157600080fd5b50604051620015e8380380620015e8833981016040819052620000349162000108565b6200003f3362000078565b600980546001600160a01b039485166001600160a01b031991821617909155600a805493909416921691909117909155600b5562000150565b600180546001600160a01b03191690556200009f81620000a2602090811b6200070f17901c565b50565b600080546001600160a01b038381166001600160a01b0319831681178455604051919092169283917f8be0079c531659141344cd1fd0a4f28419497f9722a3daafe3b4186f6b6457e09190a35050565b6001600160a01b03811681146200009f57600080fd5b6000806000606084860312156200011e57600080fd5b83516200012b81620000f2565b60208501519093506200013e81620000f2565b80925050604084015190509250925092565b61148880620001606000396000f3fe608060405234801561001057600080fd5b50600436106100cf5760003560e01c806379ba50971161008c5780638da5cb5b116100665780638da5cb5b146101fc578063a385fb961461020d578063e30c397814610224578063f2fde38b14610235576100cf565b806379ba5097146101ce5780638715b16b146101d657806389cd9855146101e9576100cf565b8063035d2a381461014657806316bb997f1461015b5780635495a6d71461018b5780636333d0011461019e5780636817de81146101b3578063715018a6146101c6575b60006100e66000356001600160e01b031916610248565b90506001600160a01b03811661012257604051630a82dd7360e31b81526001600160e01b03196000351660048201526024015b60405180910390fd5b3660008037600080366000845af43d6000803e808015610141573d6000f35b3d6000fd5b6101596101543660046110a1565b6102ab565b005b600a5461016e906001600160a01b031681565b6040516001600160a01b0390911681526020015b60405180910390f35b61015961019936600461113d565b610468565b6101a6610585565b60405161018291906111d7565b60095461016e906001600160a01b031681565b610159610594565b6101596105e4565b6101596101e4366004611224565b61065e565b6101596101f7366004611241565b610688565b6000546001600160a01b031661016e565b610216600b5481565b604051908152602001610182565b6001546001600160a01b031661016e565b610159610243366004611224565b61069e565b6001600160e01b03198116600090815260008051602061145c833981519152602081905260408220546001600160a01b0316806102a457604051631f3f429960e31b81526001600160e01b031985166004820152602401610119565b9392505050565b6102b361075f565b816001600160a01b0316635fe3b5676040518163ffffffff1660e01b8152600401602060405180830381865afa1580156102f1573d6000803e3d6000fd5b505050506040513d601f19601f82011682018060405250810190610315919061127a565b6001600160a01b0316836001600160a01b0316635fe3b5676040518163ffffffff1660e01b8152600401602060405180830381865afa15801561035c573d6000803e3d6000fd5b505050506040513d601f19601f82011682018060405250810190610380919061127a565b6001600160a01b0316146103d65760405162461bcd60e51b815260206004820152601c60248201527f6d61726b657473206e6f74206f66207468652073616d6520706f6f6c000000006044820152606401610119565b8015610410576103e76005846107bb565b506001600160a01b038316600090815260076020526040902061040a90836107bb565b50505050565b6001600160a01b038316600090815260076020526040902061043290836107d9565b506001600160a01b0383166000908152600760205260409020610454906107ee565b6104635761040a6005846107d9565b505050565b61047061075f565b808514801561047e57508483145b6104b85760405162461bcd60e51b815260206004820152600b60248201526a10b0b93930bcb9903632b760a91b6044820152606401610119565b60005b8181101561057c578282828181106104d5576104d5611297565b90506020020135600860008989858181106104f2576104f2611297565b90506020020160208101906105079190611224565b6001600160a01b03166001600160a01b03168152602001908152602001600020600087878581811061053b5761053b611297565b90506020020160208101906105509190611224565b6001600160a01b0316815260208101919091526040016000205580610574816112c3565b9150506104bb565b50505050505050565b606061058f6107f8565b905090565b61059c61075f565b60405162461bcd60e51b815260206004820152601e60248201527f72656e6f756e6365206f776e657273686970206e6f7420616c6c6f77656400006044820152606401610119565b60015433906001600160a01b031681146106525760405162461bcd60e51b815260206004820152602960248201527f4f776e61626c6532537465703a2063616c6c6572206973206e6f7420746865206044820152683732bb9037bbb732b960b91b6064820152608401610119565b61065b8161086a565b50565b61066661075f565b600a80546001600160a01b0319166001600160a01b0392909216919091179055565b61069061075f565b61069a8282610883565b5050565b6106a661075f565b600180546001600160a01b0383166001600160a01b031990911681179091556106d76000546001600160a01b031690565b6001600160a01b03167f38d16b8cac22d99fc7c124b9cd0de2d3fa1faef420bfe791d8c362d765e2270060405160405180910390a350565b600080546001600160a01b038381166001600160a01b0319831681178455604051919092169283917f8be0079c531659141344cd1fd0a4f28419497f9722a3daafe3b4186f6b6457e09190a35050565b6000546001600160a01b031633146107b95760405162461bcd60e51b815260206004820181905260248201527f4f776e61626c653a2063616c6c6572206973206e6f7420746865206f776e65726044820152606401610119565b565b60006107d0836001600160a01b0384166108a4565b90505b92915050565b60006107d0836001600160a01b0384166108f3565b60006107d3825490565b606060008051602061145c83398151915260020180548060200260200160405190810160405280929190818152602001828054801561086057602002820191906000526020600020905b81546001600160a01b03168152600190910190602001808311610842575b5050505050905090565b600180546001600160a01b031916905561065b8161070f565b6001600160a01b0381161561089b5761089b816109e6565b61069a82610b16565b60008181526001830160205260408120546108eb575081546001818101845560008481526020808220909301849055845484825282860190935260409020919091556107d3565b5060006107d3565b600081815260018301602052604081205480156109dc5760006109176001836112de565b855490915060009061092b906001906112de565b905081811461099057600086600001828154811061094b5761094b611297565b906000526020600020015490508087600001848154811061096e5761096e611297565b6000918252602080832090910192909255918252600188019052604090208390555b85548690806109a1576109a16112f5565b6001900381819060005260206000200160009055905585600101600086815260200190815260200160002060009055600193505050506107d3565b60009150506107d3565b60008051602061145c8339815191526109fe82610c0e565b60005b600282015460ff8216101561046357826001600160a01b0316826002018260ff1681548110610a3257610a32611297565b6000918252602090912001546001600160a01b03161415610b0457600282018054610a5f906001906112de565b81548110610a6f57610a6f611297565b6000918252602090912001546002830180546001600160a01b039092169160ff8416908110610aa057610aa0611297565b9060005260206000200160006101000a8154816001600160a01b0302191690836001600160a01b0316021790555081600201805480610ae157610ae16112f5565b600082815260209020810160001990810180546001600160a01b03191690550190555b80610b0e8161130b565b915050610a01565b60008051602061145c83398151915260005b600282015460ff82161015610bce57826001600160a01b0316826002018260ff1681548110610b5957610b59611297565b6000918252602090912001546001600160a01b03161415610bbc5760405162461bcd60e51b815260206004820152601760248201527f657874656e73696f6e20616c72656164792061646465640000000000000000006044820152606401610119565b80610bc68161130b565b915050610b28565b50610bd882610e9b565b6002018054600181018255600091825260209091200180546001600160a01b0319166001600160a01b0392909216919091179055565b6000816001600160a01b03166389f8132e6040518163ffffffff1660e01b8152600401600060405180830381865afa158015610c4e573d6000803e3d6000fd5b505050506040513d6000823e601f3d908101601f19168201604052610c76919081019061135e565b905060008051602061145c83398151915260005b82518161ffff16101561040a576000838261ffff1681518110610caf57610caf611297565b6020908102919091018101516001600160e01b031981166000908152918590526040909120549091506001600160a01b03868116911614610cf257610cf2611423565b6001600160e01b0319811660009081526020849052604090205460018085018054600160a01b90930461ffff16929091610d2b916112de565b81548110610d3b57610d3b611297565b90600052602060002090600891828204019190066004029054906101000a900460e01b846001018261ffff1681548110610d7757610d77611297565b90600052602060002090600891828204019190066004026101000a81548163ffffffff021916908360e01c021790555080846000016000866001018461ffff1681548110610dc757610dc7611297565b6000918252602080832060088304015460079092166004026101000a90910460e01b6001600160e01b03191683528201929092526040019020805461ffff60a01b1916600160a01b61ffff939093169290920291909117905560018401805480610e3357610e336112f5565b60008281526020808220600860001990940193840401805463ffffffff600460078716026101000a0219169055919092556001600160e01b0319909316815291849052506040902080546001600160b01b031916905580610e9381611439565b915050610c8a565b6000816001600160a01b03166389f8132e6040518163ffffffff1660e01b8152600401600060405180830381865afa158015610edb573d6000803e3d6000fd5b505050506040513d6000823e601f3d908101601f19168201604052610f03919081019061135e565b7fc8fcad8db84d3cc18b4c41d551ea0ee66dd599cde068d998e57d5e09332c131d5490915060008051602061145c8339815191529060005b8351811015611085576000848281518110610f5857610f58611297565b6020908102919091018101516001600160e01b031981166000908152918690526040909120549091506001600160a01b03168015610fc457604051632c18df3360e01b81526001600160e01b0319831660048201526001600160a01b0382166024820152604401610119565b6040805180820182526001600160a01b03808a16825261ffff80881660208085019182526001600160e01b0319881660009081528b8252958620945185549251909316600160a01b026001600160b01b0319909216929093169190911717909155600180880180549182018155835291206008820401805460e085901c60046007909416939093026101000a92830263ffffffff90930219169190911790558361106d81611439565b9450505050808061107d906112c3565b915050610f3b565b5050505050565b6001600160a01b038116811461065b57600080fd5b6000806000606084860312156110b657600080fd5b83356110c18161108c565b925060208401356110d18161108c565b9150604084013580151581146110e657600080fd5b809150509250925092565b60008083601f84011261110357600080fd5b50813567ffffffffffffffff81111561111b57600080fd5b6020830191508360208260051b850101111561113657600080fd5b9250929050565b6000806000806000806060878903121561115657600080fd5b863567ffffffffffffffff8082111561116e57600080fd5b61117a8a838b016110f1565b9098509650602089013591508082111561119357600080fd5b61119f8a838b016110f1565b909650945060408901359150808211156111b857600080fd5b506111c589828a016110f1565b979a9699509497509295939492505050565b6020808252825182820181905260009190848201906040850190845b818110156112185783516001600160a01b0316835292840192918401916001016111f3565b50909695505050505050565b60006020828403121561123657600080fd5b81356102a48161108c565b6000806040838503121561125457600080fd5b823561125f8161108c565b9150602083013561126f8161108c565b809150509250929050565b60006020828403121561128c57600080fd5b81516102a48161108c565b634e487b7160e01b600052603260045260246000fd5b634e487b7160e01b600052601160045260246000fd5b60006000198214156112d7576112d76112ad565b5060010190565b6000828210156112f0576112f06112ad565b500390565b634e487b7160e01b600052603160045260246000fd5b600060ff821660ff811415611322576113226112ad565b60010192915050565b634e487b7160e01b600052604160045260246000fd5b80516001600160e01b03198116811461135957600080fd5b919050565b6000602080838503121561137157600080fd5b825167ffffffffffffffff8082111561138957600080fd5b818501915085601f83011261139d57600080fd5b8151818111156113af576113af61132b565b8060051b604051601f19603f830116810181811085821117156113d4576113d461132b565b6040529182528482019250838101850191888311156113f257600080fd5b938501935b828510156114175761140885611341565b845293850193928501926113f7565b98975050505050505050565b634e487b7160e01b600052600160045260246000fd5b600061ffff80831681811415611451576114516112ad565b600101939250505056fec8fcad8db84d3cc18b4c41d551ea0ee66dd599cde068d998e57d5e09332c131ca164736f6c634300080a000a",
    "linkReferences": {}
  },
  "methodIdentifiers": {
    "_listExtensions()": "6333d001",
    "_registerExtension(address,address)": "89cd9855",
    "_setLiquidatorsRegistry(address)": "8715b16b",
    "_setPairWhitelisted(address,address,bool)": "035d2a38",
    "_setSlippages(address[],address[],uint256[])": "5495a6d7",
    "acceptOwnership()": "79ba5097",
    "blocksPerYear()": "a385fb96",
    "fuseFeeDistributor()": "6817de81",
    "liquidatorsRegistry()": "16bb997f",
    "owner()": "8da5cb5b",
    "pendingOwner()": "e30c3978",
    "renounceOwnership()": "715018a6",
    "transferOwnership(address)": "f2fde38b"
  }
}