{
  "address": "0xCcC4aCAdED11bF1b68DbeAa1464884a39E983462",
  "abi": [
    {
      "inputs": [],
      "name": "NoRedemptionPath",
      "type": "error"
    },
    {
      "inputs": [],
      "name": "OutputTokenMismatch",
      "type": "error"
    },
    {
      "anonymous": false,
      "inputs": [
        {
          "indexed": true,
          "internalType": "address",
          "name": "previousOwner",
          "type": "address"
        },
        {
          "indexed": true,
          "internalType": "address",
          "name": "newOwner",
          "type": "address"
        }
      ],
      "name": "OwnershipTransferStarted",
      "type": "event"
    },
    {
      "anonymous": false,
      "inputs": [
        {
          "indexed": true,
          "internalType": "address",
          "name": "previousOwner",
          "type": "address"
        },
        {
          "indexed": true,
          "internalType": "address",
          "name": "newOwner",
          "type": "address"
        }
      ],
      "name": "OwnershipTransferred",
      "type": "event"
    },
    {
      "inputs": [],
      "name": "MAX_SLIPPAGE",
      "outputs": [
        {
          "internalType": "uint256",
          "name": "",
          "type": "uint256"
        }
      ],
      "stateMutability": "view",
      "type": "function"
    },
    {
      "inputs": [],
      "name": "_getExtensionFunctions",
      "outputs": [
        {
          "internalType": "bytes4[]",
          "name": "",
          "type": "bytes4[]"
        }
      ],
      "stateMutability": "pure",
      "type": "function"
    },
    {
      "inputs": [
        {
          "internalType": "contract IRedemptionStrategy",
          "name": "strategyToRemove",
          "type": "address"
        }
      ],
      "name": "_removeRedemptionStrategy",
      "outputs": [],
      "stateMutability": "nonpayable",
      "type": "function"
    },
    {
      "inputs": [
        {
          "internalType": "contract IRedemptionStrategy[]",
          "name": "strategies",
          "type": "address[]"
        },
        {
          "internalType": "contract IERC20Upgradeable[]",
          "name": "inputTokens",
          "type": "address[]"
        },
        {
          "internalType": "contract IERC20Upgradeable[]",
          "name": "outputTokens",
          "type": "address[]"
        }
      ],
      "name": "_resetRedemptionStrategies",
      "outputs": [],
      "stateMutability": "nonpayable",
      "type": "function"
    },
    {
      "inputs": [
        {
          "internalType": "contract IERC20Upgradeable",
          "name": "inputToken",
          "type": "address"
        },
        {
          "internalType": "contract IERC20Upgradeable",
          "name": "outputToken",
          "type": "address"
        }
      ],
      "name": "_setDefaultOutputToken",
      "outputs": [],
      "stateMutability": "nonpayable",
      "type": "function"
    },
    {
      "inputs": [
        {
          "internalType": "contract IRedemptionStrategy[]",
          "name": "strategies",
          "type": "address[]"
        },
        {
          "internalType": "contract IERC20Upgradeable[]",
          "name": "inputTokens",
          "type": "address[]"
        },
        {
          "internalType": "contract IERC20Upgradeable[]",
          "name": "outputTokens",
          "type": "address[]"
        }
      ],
      "name": "_setRedemptionStrategies",
      "outputs": [],
      "stateMutability": "nonpayable",
      "type": "function"
    },
    {
      "inputs": [
        {
          "internalType": "contract IRedemptionStrategy",
          "name": "strategy",
          "type": "address"
        },
        {
          "internalType": "contract IERC20Upgradeable",
          "name": "inputToken",
          "type": "address"
        },
        {
          "internalType": "contract IERC20Upgradeable",
          "name": "outputToken",
          "type": "address"
        }
      ],
      "name": "_setRedemptionStrategy",
      "outputs": [],
      "stateMutability": "nonpayable",
      "type": "function"
    },
    {
      "inputs": [
        {
          "internalType": "contract IERC20Upgradeable[]",
          "name": "inputTokens",
          "type": "address[]"
        },
        {
          "internalType": "contract IERC20Upgradeable[]",
          "name": "outputTokens",
          "type": "address[]"
        },
        {
          "internalType": "uint256[]",
          "name": "slippages",
          "type": "uint256[]"
        }
      ],
      "name": "_setSlippages",
      "outputs": [],
      "stateMutability": "nonpayable",
      "type": "function"
    },
    {
      "inputs": [],
      "name": "acceptOwnership",
      "outputs": [],
      "stateMutability": "nonpayable",
      "type": "function"
    },
    {
      "inputs": [
        {
          "internalType": "contract IERC20Upgradeable",
          "name": "inputToken",
          "type": "address"
        },
        {
          "internalType": "uint256",
          "name": "inputAmount",
          "type": "uint256"
        },
        {
          "internalType": "contract IERC20Upgradeable",
          "name": "outputToken",
          "type": "address"
        }
      ],
      "name": "amountOutAndSlippageOfSwap",
      "outputs": [
        {
          "internalType": "uint256",
          "name": "outputAmount",
          "type": "uint256"
        },
        {
          "internalType": "uint256",
          "name": "slippage",
          "type": "uint256"
        }
      ],
      "stateMutability": "nonpayable",
      "type": "function"
    },
    {
      "inputs": [],
      "name": "ap",
      "outputs": [
        {
          "internalType": "contract AddressesProvider",
          "name": "",
          "type": "address"
        }
      ],
      "stateMutability": "view",
      "type": "function"
    },
    {
      "inputs": [
        {
          "internalType": "contract IERC20Upgradeable",
          "name": "",
          "type": "address"
        }
      ],
      "name": "defaultOutputToken",
      "outputs": [
        {
          "internalType": "contract IERC20Upgradeable",
          "name": "",
          "type": "address"
        }
      ],
      "stateMutability": "view",
      "type": "function"
    },
    {
      "inputs": [],
      "name": "getAllPairsStrategies",
      "outputs": [
        {
          "internalType": "contract IRedemptionStrategy[]",
          "name": "strategies",
          "type": "address[]"
        },
        {
          "internalType": "contract IERC20Upgradeable[]",
          "name": "inputTokens",
          "type": "address[]"
        },
        {
          "internalType": "contract IERC20Upgradeable[]",
          "name": "outputTokens",
          "type": "address[]"
        }
      ],
      "stateMutability": "view",
      "type": "function"
    },
    {
      "inputs": [],
      "name": "getAllRedemptionStrategies",
      "outputs": [
        {
          "internalType": "address[]",
          "name": "",
          "type": "address[]"
        }
      ],
      "stateMutability": "view",
      "type": "function"
    },
    {
      "inputs": [
        {
          "internalType": "contract IERC20Upgradeable",
          "name": "outputToken",
          "type": "address"
        }
      ],
      "name": "getInputTokensByOutputToken",
      "outputs": [
        {
          "internalType": "address[]",
          "name": "",
          "type": "address[]"
        }
      ],
      "stateMutability": "view",
      "type": "function"
    },
    {
      "inputs": [
        {
          "internalType": "contract IERC20Upgradeable",
          "name": "inputToken",
          "type": "address"
        },
        {
          "internalType": "contract IERC20Upgradeable",
          "name": "outputToken",
          "type": "address"
        }
      ],
      "name": "getRedemptionStrategies",
      "outputs": [
        {
          "internalType": "contract IRedemptionStrategy[]",
          "name": "strategies",
          "type": "address[]"
        },
        {
          "internalType": "bytes[]",
          "name": "strategiesData",
          "type": "bytes[]"
        }
      ],
      "stateMutability": "view",
      "type": "function"
    },
    {
      "inputs": [
        {
          "internalType": "contract IERC20Upgradeable",
          "name": "inputToken",
          "type": "address"
        },
        {
          "internalType": "contract IERC20Upgradeable",
          "name": "outputToken",
          "type": "address"
        }
      ],
      "name": "getRedemptionStrategy",
      "outputs": [
        {
          "internalType": "contract IRedemptionStrategy",
          "name": "strategy",
          "type": "address"
        },
        {
          "internalType": "bytes",
          "name": "strategyData",
          "type": "bytes"
        }
      ],
      "stateMutability": "view",
      "type": "function"
    },
    {
      "inputs": [
        {
          "internalType": "contract IERC20Upgradeable",
          "name": "inputToken",
          "type": "address"
        },
        {
          "internalType": "contract IERC20Upgradeable",
          "name": "outputToken",
          "type": "address"
        }
      ],
      "name": "getSlippage",
      "outputs": [
        {
          "internalType": "uint256",
          "name": "slippage",
          "type": "uint256"
        }
      ],
      "stateMutability": "view",
      "type": "function"
    },
    {
      "inputs": [],
      "name": "owner",
      "outputs": [
        {
          "internalType": "address",
          "name": "",
          "type": "address"
        }
      ],
      "stateMutability": "view",
      "type": "function"
    },
    {
      "inputs": [
        {
          "internalType": "contract IRedemptionStrategy[]",
          "name": "configStrategies",
          "type": "address[]"
        },
        {
          "internalType": "contract IERC20Upgradeable[]",
          "name": "configInputTokens",
          "type": "address[]"
        },
        {
          "internalType": "contract IERC20Upgradeable[]",
          "name": "configOutputTokens",
          "type": "address[]"
        }
      ],
      "name": "pairsStrategiesMatch",
      "outputs": [
        {
          "internalType": "bool",
          "name": "",
          "type": "bool"
        }
      ],
      "stateMutability": "view",
      "type": "function"
    },
    {
      "inputs": [],
      "name": "pendingOwner",
      "outputs": [
        {
          "internalType": "address",
          "name": "",
          "type": "address"
        }
      ],
      "stateMutability": "view",
      "type": "function"
    },
    {
      "inputs": [
        {
          "internalType": "string",
          "name": "",
          "type": "string"
        }
      ],
      "name": "redemptionStrategiesByName",
      "outputs": [
        {
          "internalType": "contract IRedemptionStrategy",
          "name": "",
          "type": "address"
        }
      ],
      "stateMutability": "view",
      "type": "function"
    },
    {
      "inputs": [
        {
          "internalType": "contract IERC20Upgradeable",
          "name": "",
          "type": "address"
        },
        {
          "internalType": "contract IERC20Upgradeable",
          "name": "",
          "type": "address"
        }
      ],
      "name": "redemptionStrategiesByTokens",
      "outputs": [
        {
          "internalType": "contract IRedemptionStrategy",
          "name": "",
          "type": "address"
        }
      ],
      "stateMutability": "view",
      "type": "function"
    },
    {
      "inputs": [],
      "name": "renounceOwnership",
      "outputs": [],
      "stateMutability": "nonpayable",
      "type": "function"
    },
    {
      "inputs": [
        {
          "internalType": "contract IERC20Upgradeable",
          "name": "inputToken",
          "type": "address"
        },
        {
          "internalType": "uint256",
          "name": "inputAmount",
          "type": "uint256"
        },
        {
          "internalType": "contract IERC20Upgradeable",
          "name": "outputToken",
          "type": "address"
        }
      ],
      "name": "swap",
      "outputs": [
        {
          "internalType": "uint256",
          "name": "outputAmount",
          "type": "uint256"
        }
      ],
      "stateMutability": "nonpayable",
      "type": "function"
    },
    {
      "inputs": [
        {
          "internalType": "address",
          "name": "newOwner",
          "type": "address"
        }
      ],
      "name": "transferOwnership",
      "outputs": [],
      "stateMutability": "nonpayable",
      "type": "function"
    }
  ],
  "transactionHash": "0xb04bc04a0f6209b510040696af0a1b45cb212cc483af286aaa4b3aa4f72cac7a",
  "args": [],
  "numDeployments": 8,
  "bytecode": {
    "object": "0x60806040523480156200001157600080fd5b506200001d3362000023565b6200009d565b600180546001600160a01b03191690556200004a816200004d602090811b6200259917901c565b50565b600080546001600160a01b038381166001600160a01b0319831681178455604051919092169283917f8be0079c531659141344cd1fd0a4f28419497f9722a3daafe3b4186f6b6457e09190a35050565b615d3d80620000ad6000396000f3fe608060405234801561001057600080fd5b506004361061018e5760003560e01c80638da5cb5b116100de578063d7341acf11610097578063ed287f3f11610071578063ed287f3f146103ca578063f2fde38b146103eb578063f560cebd146103fe578063f97595181461042657600080fd5b8063d7341acf14610372578063dee7fe4814610385578063e30c3978146103b957600080fd5b80638da5cb5b146102c85780638db87c27146102d9578063a1bb91e314610302578063a6fdd2bb14610315578063a700f9e41461031d578063b6b928fd1461035157600080fd5b8063403de57f1161014b5780636d069a67116101255780636d069a6714610290578063715018a6146102a357806379ba5097146102ab57806389f8132e146102b357600080fd5b8063403de57f1461024a578063514b49d91461026a5780635495a6d71461027d57600080fd5b80630d856eef146101935780632434cb7f146101b35780632f53ef2b146101c85780633322d877146101e9578063366eda2e1461020c5780633c4f743c1461021f575b600080fd5b61019b61042f565b6040516101aa939291906151a1565b60405180910390f35b6101c66101c13660046151ef565b610718565b005b6101db6101d63660046151ef565b61074e565b6040519081526020016101aa565b6101fc6101f736600461526c565b610784565b60405190151581526020016101aa565b6101c661021a36600461526c565b610a82565b600254610232906001600160a01b031681565b6040516001600160a01b0390911681526020016101aa565b61025d610258366004615305565b610b5b565b6040516101aa9190615322565b6101c6610278366004615305565b610b7f565b6101c661028b36600461526c565b610e38565b6101db61029e366004615335565b610f2e565b6101c6610f6c565b6101c6610fbc565b6102bb611036565b6040516101aa9190615377565b6000546001600160a01b0316610232565b6102326102e7366004615305565b6007602052600090815260409020546001600160a01b031681565b6101c661031036600461526c565b611480565b61025d611802565b61023261032b3660046151ef565b60066020908152600092835260408084209091529082529020546001600160a01b031681565b61036461035f3660046151ef565b611813565b6040516101aa92919061541d565b6101c6610380366004615441565b611d4c565b610232610393366004615516565b80516020818301810180516005825292820191909301209152546001600160a01b031681565b6001546001600160a01b0316610232565b6103dd6103d83660046151ef565b611ef6565b6040516101aa929190615595565b6101c66103f9366004615305565b61226d565b61041161040c366004615335565b6122de565b604080519283526020830191909152016101aa565b6101db61038481565b6060806060600061044060096125e9565b90506000805b82518110156104c257600083828151811061046357610463615607565b60200260200101519050600061049c60086000846001600160a01b03166001600160a01b031681526020019081526020016000206125e9565b90508051846104ab9190615633565b9350505080806104ba9061564b565b915050610446565b50806001600160401b038111156104db576104db615481565b604051908082528060200260200182016040528015610504578160200160208202803683370190505b509450806001600160401b0381111561051f5761051f615481565b604051908082528060200260200182016040528015610548578160200160208202803683370190505b509350806001600160401b0381111561056357610563615481565b60405190808252806020026020018201604052801561058c578160200160208202803683370190505b5092506000905060005b82518110156107105760008382815181106105b3576105b3615607565b6020026020010151905060006105ec60086000846001600160a01b03166001600160a01b031681526020019081526020016000206125e9565b905060005b81518110156106fa57600082828151811061060e5761060e615607565b6020908102919091018101516001600160a01b038082166000908152600684526040808220898416835290945292909220548c51919350909116908b908890811061065b5761065b615607565b60200260200101906001600160a01b031690816001600160a01b0316815250508089878151811061068e5761068e615607565b60200260200101906001600160a01b031690816001600160a01b031681525050838887815181106106c1576106c1615607565b6001600160a01b0390921660209283029190910190910152856106e38161564b565b9650505080806106f29061564b565b9150506105f1565b50505080806107089061564b565b915050610596565b505050909192565b6107206125f6565b6001600160a01b03918216600090815260076020526040902080546001600160a01b03191691909216179055565b6001600160a01b038083166000908152600b60209081526040808320938516835292905220548061077e57506103845b92915050565b60008060008061079261042f565b92509250925060005b89811015610903576000805b85518110156108dc578c8c848181106107c2576107c2615607565b90506020020160208101906107d79190615305565b6001600160a01b03168682815181106107f2576107f2615607565b60200260200101516001600160a01b031614801561086057508a8a8481811061081d5761081d615607565b90506020020160208101906108329190615305565b6001600160a01b031685828151811061084d5761084d615607565b60200260200101516001600160a01b0316145b80156108bc575088888481811061087957610879615607565b905060200201602081019061088e9190615305565b6001600160a01b03168482815181106108a9576108a9615607565b60200260200101516001600160a01b0316145b156108ca57600191506108dc565b806108d48161564b565b9150506107a7565b50806108f057600095505050505050610a78565b50806108fb8161564b565b91505061079b565b5060005b8351811015610a6f576000805b8b811015610a48578c8c8281811061092e5761092e615607565b90506020020160208101906109439190615305565b6001600160a01b031686848151811061095e5761095e615607565b60200260200101516001600160a01b03161480156109cc57508a8a8281811061098957610989615607565b905060200201602081019061099e9190615305565b6001600160a01b03168584815181106109b9576109b9615607565b60200260200101516001600160a01b0316145b8015610a2857508888828181106109e5576109e5615607565b90506020020160208101906109fa9190615305565b6001600160a01b0316848481518110610a1557610a15615607565b60200260200101516001600160a01b0316145b15610a365760019150610a48565b80610a408161564b565b915050610914565b5080610a5c57600095505050505050610a78565b5080610a678161564b565b915050610907565b50600193505050505b9695505050505050565b610a8a6125f6565b8483148015610a9857508281145b610abd5760405162461bcd60e51b8152600401610ab490615666565b60405180910390fd5b60005b85811015610b5257610b40878783818110610add57610add615607565b9050602002016020810190610af29190615305565b868684818110610b0457610b04615607565b9050602002016020810190610b199190615305565b858585818110610b2b57610b2b615607565b90506020020160208101906103809190615305565b80610b4a8161564b565b915050610ac0565b50505050505050565b6001600160a01b038116600090815260086020526040902060609061077e906125e9565b610b876125f6565b6000610b9360096125e9565b905060005b8151811015610d81576000828281518110610bb557610bb5615607565b602002602001015190506000610bee60086000846001600160a01b03166001600160a01b031681526020019081526020016000206125e9565b905060005b8151811015610d39576000828281518110610c1057610c10615607565b6020908102919091018101516001600160a01b038082166000908152600684526040808220898416835290945292909220549092508116908816811415610d24576001600160a01b03808316600090815260066020908152604080832093891683529290522080546001600160a01b03191690558351610cd790859085908110610c9c57610c9c615607565b602002602001015160086000886001600160a01b03166001600160a01b0316815260200190815260200160002061265290919063ffffffff16565b506001600160a01b0382811660009081526007602052604090205481169086161415610d24576001600160a01b038216600090815260076020526040902080546001600160a01b03191690555b50508080610d319061564b565b915050610bf3565b506001600160a01b0382166000908152600860205260409020610d5b90612667565b610d6c57610d6a600983612652565b505b50508080610d799061564b565b915050610b98565b5060006005836001600160a01b03166306fdde036040518163ffffffff1660e01b8152600401600060405180830381865afa158015610dc4573d6000803e3d6000fd5b505050506040513d6000823e601f3d908101601f19168201604052610dec919081019061568b565b604051610df991906156f8565b90815260405190819003602001902080546001600160a01b03929092166001600160a01b0319909216919091179055610e33600383612652565b505050565b610e406125f6565b8085148015610e4e57508483145b610e6a5760405162461bcd60e51b8152600401610ab490615666565b60005b81811015610b5257828282818110610e8757610e87615607565b90506020020135600b6000898985818110610ea457610ea4615607565b9050602002016020810190610eb99190615305565b6001600160a01b03166001600160a01b031681526020019081526020016000206000878785818110610eed57610eed615607565b9050602002016020810190610f029190615305565b6001600160a01b0316815260208101919091526040016000205580610f268161564b565b915050610e6d565b6000610f456001600160a01b038516333086612671565b610f4f84836126e2565b9050610f656001600160a01b03831633836128a4565b9392505050565b610f746125f6565b60405162461bcd60e51b815260206004820152601e60248201527f72656e6f756e6365206f776e657273686970206e6f7420616c6c6f77656400006044820152606401610ab4565b60015433906001600160a01b0316811461102a5760405162461bcd60e51b815260206004820152602960248201527f4f776e61626c6532537465703a2063616c6c6572206973206e6f7420746865206044820152683732bb9037bbb732b960b91b6064820152608401610ab4565b611033816128d4565b50565b60408051600f80825261020082019092526060919060009082602082016101e08036833701905050905063ed287f3f60e01b8161107284615714565b93508360ff168151811061108857611088615607565b6001600160e01b03199092166020928302919091019091015263b6b928fd60e01b816110b384615714565b93508360ff16815181106110c9576110c9615607565b6001600160e01b031990921660209283029190910190910152632434cb7f60e01b816110f484615714565b93508360ff168151811061110a5761110a615607565b6001600160e01b03199092166020928302919091019091015263d7341acf60e01b8161113584615714565b93508360ff168151811061114b5761114b615607565b6001600160e01b031990921660209283029190910190910152631b376d1760e11b8161117684615714565b93508360ff168151811061118c5761118c615607565b6001600160e01b03199092166020928302919091019091015263514b49d960e01b816111b784615714565b93508360ff16815181106111cd576111cd615607565b6001600160e01b03199092166020928302919091019091015263403de57f60e01b816111f884615714565b93508360ff168151811061120e5761120e615607565b6001600160e01b031990921660209283029190910190910152636d069a6760e01b8161123984615714565b93508360ff168151811061124f5761124f615607565b6001600160e01b03199092166020928302919091019091015263a6fdd2bb60e01b8161127a84615714565b93508360ff168151811061129057611290615607565b6001600160e01b03199092166020928302919091019091015263a1bb91e360e01b816112bb84615714565b93508360ff16815181106112d1576112d1615607565b6001600160e01b03199092166020928302919091019091015263f560cebd60e01b816112fc84615714565b93508360ff168151811061131257611312615607565b6001600160e01b031990921660209283029190910190910152630d856eef60e01b8161133d84615714565b93508360ff168151811061135357611353615607565b6001600160e01b031990921660209283029190910190910152633322d87760e01b8161137e84615714565b93508360ff168151811061139457611394615607565b6001600160e01b031990921660209283029190910190910152632f53ef2b60e01b816113bf84615714565b93508360ff16815181106113d5576113d5615607565b6001600160e01b031990921660209283029190910190910152635495a6d760e01b8161140084615714565b93508360ff168151811061141657611416615607565b6001600160e01b03199092166020928302919091019091015260ff82161561077e5760405162461bcd60e51b815260206004820152601c60248201527f7573652074686520636f7272656374206172726179206c656e677468000000006044820152606401610ab4565b6114886125f6565b848314801561149657508281145b6114b25760405162461bcd60e51b8152600401610ab490615666565b60006114be60096125e9565b905060005b815181101561164c5760008282815181106114e0576114e0615607565b60200260200101519050600061151960086000846001600160a01b03166001600160a01b031681526020019081526020016000206125e9565b905060005b815181101561160857600082828151811061153b5761153b615607565b6020908102919091018101516001600160a01b03808216600090815260068452604080822092891682529190935290912080546001600160a01b031916905583519091506115d09084908490811061159557611595615607565b602002602001015160086000876001600160a01b03166001600160a01b0316815260200190815260200160002061265290919063ffffffff16565b506001600160a01b0316600090815260076020526040902080546001600160a01b0319169055806116008161564b565b91505061151e565b5061163684848151811061161e5761161e615607565b6020026020010151600961265290919063ffffffff16565b50505080806116449061564b565b9150506114c3565b50600061165960036125e9565b905060005b815181101561177657600082828151811061167b5761167b615607565b602002602001015190506000816001600160a01b03166306fdde036040518163ffffffff1660e01b8152600401600060405180830381865afa1580156116c5573d6000803e3d6000fd5b505050506040513d6000823e601f3d908101601f191682016040526116ed919081019061568b565b9050600060058260405161170191906156f8565b908152602001604051809103902060006101000a8154816001600160a01b0302191690836001600160a01b0316021790555061176084848151811061174857611748615607565b6020026020010151600361265290919063ffffffff16565b505050808061176e9061564b565b91505061165e565b5060005b878110156117f7576117e589898381811061179757611797615607565b90506020020160208101906117ac9190615305565b8888848181106117be576117be615607565b90506020020160208101906117d39190615305565b878785818110610b2b57610b2b615607565b806117ef8161564b565b91505061177a565b505050505050505050565b606061180e60036125e9565b905090565b6001600160a01b0380831660009081526006602090815260408083208585168452825291829020548251808401909352601583527429b7b634b2363ca9bbb0b82634b8bab4b230ba37b960591b91830191909152909116906060906118799083906128ed565b1561188f576118888484612938565b9050611d45565b6118ce826040518060400160405280601881526020017f536f6c69646c794c70546f6b656e4c697175696461746f7200000000000000008152506128ed565b156118dd576118888484612e09565b61191c826040518060400160405280601981526020017f556e697377617056324c697175696461746f7246756e646572000000000000008152506128ed565b1561192b576118888484613014565b611962826040518060400160405280601581526020017420b633b2b13930a9bbb0b82634b8bab4b230ba37b960591b8152506128ed565b806119a057506119a0826040518060400160405280601681526020017523b0b6b6b0a6382a37b5b2b72634b8bab4b230ba37b960511b8152506128ed565b156119af5761188884846130bc565b6119e782604051806040016040528060168152602001752130b630b731b2b929bbb0b82634b8bab4b230ba37b960511b8152506128ed565b156119f6576118888484613188565b611a35826040518060400160405280601881526020017f556e69737761704c70546f6b656e4c697175696461746f7200000000000000008152506128ed565b80611a715750611a71826040518060400160405280601481526020017323b2b630ba37a3aab734a634b8bab4b230ba37b960611b8152506128ed565b15611a80576118888484613294565b611abf826040518060400160405280601781526020017f536164646c654c70546f6b656e4c697175696461746f720000000000000000008152506128ed565b15611ace57611888848461355a565b611b0d826040518060400160405280602081526020017f43757276654c70546f6b656e4c697175696461746f724e6f52656769737472798152506128ed565b15611b1c576118888484613752565b611b51826040518060400160405280601381526020017221bab93b32a9bbb0b82634b8bab4b230ba37b960691b8152506128ed565b15611b6057611888848461394a565b611b95826040518060400160405280601381526020017221bab93b32a6382a37b5b2b72bb930b83832b960691b8152506128ed565b15611ba4576118888484613b2e565b611bdc82604051806040016040528060168152602001752530b93b34b9a634b8bab4b230ba37b9233ab73232b960511b8152506128ed565b15611beb576118888484613c2b565b611c2282604051806040016040528060158152602001742c2137b6b12634b8bab4b230ba37b9233ab73232b960591b8152506128ed565b15611c31576118888484613dc3565b611c70826040518060400160405280601981526020017f42616c616e6365724c70546f6b656e4c697175696461746f72000000000000008152506128ed565b15611c7f576118888484613f9b565b611cb4826040518060400160405280601381526020017220b0bb32aa37b5b2b72634b8bab4b230ba37b960691b8152506128ed565b15611cc3576118888484613f9b565b611cfa826040518060400160405280601581526020017429b7b634b2363ca6382a37b5b2b72bb930b83832b960591b8152506128ed565b15611d09576118888484613fb7565b60405162461bcd60e51b81526020600482015260116024820152706e6f20737472617465677920206461746160781b6044820152606401610ab4565b9250929050565b611d546125f6565b6000836001600160a01b03166306fdde036040518163ffffffff1660e01b8152600401600060405180830381865afa158015611d94573d6000803e3d6000fd5b505050506040513d6000823e601f3d908101601f19168201604052611dbc919081019061568b565b90506000600582604051611dd091906156f8565b9081526040805160209281900383018120546001600160a01b0388811660009081526006865284812089831682529095529290932080546001600160a01b031916898416179055911691508590600590611e2b9085906156f8565b90815260405190819003602001902080546001600160a01b03929092166001600160a01b0319909216919091179055611e65600382612652565b50611e716003866145b5565b506001600160a01b0384811660009081526007602052604090205416611ec0576001600160a01b03848116600090815260076020526040902080546001600160a01b0319169185169190911790555b6001600160a01b0383166000908152600860205260409020611ee290856145b5565b50611eee6009846145b5565b505050505050565b60408051600a80825261016082019092526060918291859185916000916020820161014080368337505060408051600a80825261016082019092529293506000929150602082015b6060815260200190600190039081611f3e57505060408051600a808252610160820190925291925060009190602082016101408036833701905050905060005b846001600160a01b0316866001600160a01b03161461211d576001600160a01b03808716600090815260066020908152604080832089851684529091528120549091168015611fcf57869150611fed565b6001600160a01b038089166000908152600760205260409020541691505b60005b84518110156120435784818151811061200b5761200b615607565b60200260200101516001600160a01b0316836001600160a01b0316141561203157612043565b8061203b8161564b565b915050611ff0565b506000806120518a85611813565b90925090506001600160a01b03821661206d575050505061211d565b8188868151811061208057612080615607565b60200260200101906001600160a01b031690816001600160a01b031681525050808786815181106120b3576120b3615607565b6020026020010181905250838686815181106120d1576120d1615607565b60200260200101906001600160a01b031690816001600160a01b03168152505083995084806120ff9061564b565b95505084600a1415612114575050505061211d565b50505050611f7e565b806001600160401b0381111561213557612135615481565b60405190808252806020026020018201604052801561215e578160200160208202803683370190505b509750806001600160401b0381111561217957612179615481565b6040519080825280602002602001820160405280156121ac57816020015b60608152602001906001900390816121975790505b50965060005b818160ff16101561225f57848160ff16815181106121d2576121d2615607565b6020026020010151898260ff16815181106121ef576121ef615607565b60200260200101906001600160a01b031690816001600160a01b031681525050838160ff168151811061222457612224615607565b6020026020010151888260ff168151811061224157612241615607565b6020026020010181905250808061225790615731565b9150506121b2565b505050505050509250929050565b6122756125f6565b600180546001600160a01b0383166001600160a01b031990911681179091556122a66000546001600160a01b031690565b6001600160a01b03167f38d16b8cac22d99fc7c124b9cd0de2d3fa1faef420bfe791d8c362d765e2270060405160405180910390a350565b600080836122f157506000905080612591565b6122fc858585610f2e565b91508161230e57506000905080612591565b60025460405163bf40fac160e01b81526020600482015260116024820152704d617374657250726963654f7261636c6560781b60448201526000916001600160a01b03169063bf40fac190606401602060405180830381865afa158015612379573d6000803e3d6000fd5b505050506040513d601f19601f8201168201806040525081019061239d9190615751565b6040516315d5220f60e31b81526001600160a01b03888116600483015291925060009183169063aea9107890602401602060405180830381865afa1580156123e9573d6000803e3d6000fd5b505050506040513d601f19601f8201168201806040525081019061240d919061576e565b6040516315d5220f60e31b81526001600160a01b03878116600483015291925060009184169063aea9107890602401602060405180830381865afa158015612459573d6000803e3d6000fd5b505050506040513d601f19601f8201168201806040525081019061247d919061576e565b9050600061248b838a6145ca565b6124959089615787565b905060006124a383896145ca565b6124ad9088615787565b9050818110156124e157816124c282826157a6565b6124d490670de0b6b3a7640000615787565b6124de91906157bd565b95505b6001600160a01b03808b166000908152600b60209081526040808320938c1683529290522054158061254457506001600160a01b03808b166000908152600c60209081526040808320938c16835292905220546113889061254290426157a6565b115b1561258b576001600160a01b03808b166000818152600b60209081526040808320948d168084529482528083208b9055928252600c81528282209382529290925290204290555b50505050505b935093915050565b600080546001600160a01b038381166001600160a01b0319831681178455604051919092169283917f8be0079c531659141344cd1fd0a4f28419497f9722a3daafe3b4186f6b6457e09190a35050565b60606000610f658361468a565b6000546001600160a01b031633146126505760405162461bcd60e51b815260206004820181905260248201527f4f776e61626c653a2063616c6c6572206973206e6f7420746865206f776e65726044820152606401610ab4565b565b6000610f65836001600160a01b0384166146e6565b600061077e825490565b6040516001600160a01b03808516602483015283166044820152606481018290526126dc9085906323b872dd60e01b906084015b60408051601f198184030181529190526020810180516001600160e01b03166001600160e01b0319909316929092179091526147d9565b50505050565b6040516370a0823160e01b815230600482015260009081906001600160a01b038516906370a0823190602401602060405180830381865afa15801561272b573d6000803e3d6000fd5b505050506040513d601f19601f8201168201806040525081019061274f919061576e565b905060008061275e8686611ef6565b9150915081516000141561278557604051631aa27a4d60e21b815260040160405180910390fd5b858360005b84518110156127fd5760008582815181106127a7576127a7615607565b6020026020010151905060008583815181106127c5576127c5615607565b602002602001015190506000806127de878786866148ab565b90975095508493506127f5925083915061564b9050565b91505061278a565b50866001600160a01b0316826001600160a01b0316146128305760405163fdbb00c560e01b815260040160405180910390fd5b6040516370a0823160e01b81523060048201526001600160a01b038816906370a0823190602401602060405180830381865afa158015612874573d6000803e3d6000fd5b505050506040513d601f19601f82011682018060405250810190612898919061576e565b98975050505050505050565b6040516001600160a01b038316602482015260448101829052610e3390849063a9059cbb60e01b906064016126a5565b600180546001600160a01b031916905561103381612599565b60006001600160a01b03831615801590610f65575060058260405161291291906156f8565b908152604051908190036020019020546001600160a01b03848116911614905092915050565b60025460405163bf40fac160e01b81526060916000916001600160a01b039091169063bf40fac19061296c906004016157df565b602060405180830381865afa158015612989573d6000803e3d6000fd5b505050506040513d601f19601f820116820180604052508101906129ad9190615751565b60405163260f701f60e11b815290915083906000906001600160a01b03841690634c1ee03e906129e59089908690869060040161580c565b602060405180830381865afa158015612a02573d6000803e3d6000fd5b505050506040513d601f19601f82011682018060405250810190612a269190615751565b90506000836001600160a01b0316634c1ee03e888560016040518463ffffffff1660e01b8152600401612a5b9392919061580c565b602060405180830381865afa158015612a78573d6000803e3d6000fd5b505050506040513d601f19601f82011682018060405250810190612a9c9190615751565b60405163e5e31b1360e01b81526001600160a01b0380831660048301529192509085169063e5e31b1390602401602060405180830381865afa158015612ae6573d6000803e3d6000fd5b505050506040513d601f19601f82011682018060405250810190612b0a9190615830565b80612b7a575060405163e5e31b1360e01b81526001600160a01b03838116600483015285169063e5e31b1390602401602060405180830381865afa158015612b56573d6000803e3d6000fd5b505050506040513d601f19601f82011682018060405250810190612b7a9190615830565b612bd25760405162461bcd60e51b8152602060048201526024808201527f496e76616c696420536f6c69646c794c697175696461746f722073776170207060448201526330ba341760e11b6064820152608401610ab4565b60405163e5e31b1360e01b81526001600160a01b0382811660048301526000919086169063e5e31b1390602401602060405180830381865afa158015612c1c573d6000803e3d6000fd5b505050506040513d601f19601f82011682018060405250810190612c409190615830565b612c4c57506000612dd8565b60405163e5e31b1360e01b81526001600160a01b03848116600483015286169063e5e31b1390602401602060405180830381865afa158015612c92573d6000803e3d6000fd5b505050506040513d601f19601f82011682018060405250810190612cb69190615830565b612cc257506001612dd8565b600080866001600160a01b0316635e60dab58b8860016040518463ffffffff1660e01b8152600401612cf69392919061580c565b6040805180830381865afa158015612d12573d6000803e3d6000fd5b505050506040513d601f19601f82011682018060405250810190612d369190615852565b91509150600080886001600160a01b0316635e60dab58d8a60006040518463ffffffff1660e01b8152600401612d6e9392919061580c565b6040805180830381865afa158015612d8a573d6000803e3d6000fd5b505050506040513d601f19601f82011682018060405250810190612dae9190615852565b915091508184118015612dc057508083115b15612dce5760019450612dd3565b600094505b505050505b848782604051602001612ded9392919061580c565b6040516020818303038152906040529550505050505092915050565b60606000839050806001600160a01b0316630dfe16816040518163ffffffff1660e01b8152600401602060405180830381865afa158015612e4e573d6000803e3d6000fd5b505050506040513d601f19601f82011682018060405250810190612e729190615751565b6001600160a01b0316836001600160a01b03161480612f035750806001600160a01b031663d21220a76040518163ffffffff1660e01b8152600401602060405180830381865afa158015612eca573d6000803e3d6000fd5b505050506040513d601f19601f82011682018060405250810190612eee9190615751565b6001600160a01b0316836001600160a01b0316145b612f6e5760405162461bcd60e51b815260206004820152603660248201527f4f757470757420746f6b656e20646f6573206e6f74206d6174636820656974686044820152756572206f6620746865207061697220746f6b656e732160501b6064820152608401610ab4565b60025460405163bf40fac160e01b81526001600160a01b039091169063bf40fac190612f9c906004016157df565b602060405180830381865afa158015612fb9573d6000803e3d6000fd5b505050506040513d601f19601f82011682018060405250810190612fdd9190615751565b604080516001600160a01b039283166020820152918516908201526060015b60405160208183030381529060405291505092915050565b60408051600280825260608083018452926000929190602083019080368337019050509050838160008151811061304d5761304d615607565b60200260200101906001600160a01b031690816001600160a01b031681525050828160018151811061308157613081615607565b60200260200101906001600160a01b031690816001600160a01b0316815250506130aa8461492c565b81604051602001612ffc929190615876565b60025460405163bf40fac160e01b815260206004820152601360248201527220a623a2a12920afa9aba0a82fa927aaaa22a960691b604482015260609183916001600160a01b039091169063bf40fac190606401602060405180830381865afa15801561312d573d6000803e3d6000fd5b505050506040513d601f19601f820116820180604052508101906131519190615751565b604080516001600160a01b03938416602082015292909116908201526060015b604051602081830303815290604052905092915050565b60025460405163959fc09760e01b81526001600160a01b038481166004830152838116602483015260609260009291169063959fc09790604401602060405180830381865afa1580156131df573d6000803e3d6000fd5b505050506040513d601f19601f820116820180604052508101906132039190615751565b90506001600160a01b03811661326f5760405162461bcd60e51b815260206004820152602b60248201527f4e6f2062616c616e63657220706f6f6c20666f756e6420666f7220746865206760448201526a6976656e20746f6b656e7360a81b6064820152608401610ab4565b604080516001600160a01b038086166020830152831691810191909152606001612ffc565b606060008390506000816001600160a01b0316630dfe16816040518163ffffffff1660e01b8152600401602060405180830381865afa1580156132db573d6000803e3d6000fd5b505050506040513d601f19601f820116820180604052508101906132ff9190615751565b90506000826001600160a01b031663d21220a76040518163ffffffff1660e01b8152600401602060405180830381865afa158015613341573d6000803e3d6000fd5b505050506040513d601f19601f820116820180604052508101906133659190615751565b90506001600160a01b0385811681841681149183161481806133845750805b6133ee5760405162461bcd60e51b815260206004820152603560248201527f4f757470757420746f6b656e20646f6573206e6f74206d6174636820656974686044820152746572206f6620746865207061697220746f6b656e7360581b6064820152608401610ab4565b606080831561348e57604080516000815260026020820181815260808301845291945090918481019080368337019050509050848160008151811061343557613435615607565b60200260200101906001600160a01b031690816001600160a01b031681525050858160018151811061346957613469615607565b60200260200101906001600160a01b031690816001600160a01b03168152505061351f565b5060408051600081526002602082018181526080830184529192838101908036833701905050915085826000815181106134ca576134ca615607565b60200260200101906001600160a01b031690816001600160a01b03168152505084826001815181106134fe576134fe615607565b60200260200101906001600160a01b031690816001600160a01b0316815250505b6135288a61492c565b828260405160200161353c9392919061589a565b60405160208183030381529060405297505050505050505092915050565b60025460405163bf40fac160e01b8152602060048201526013602482015272536164646c654c7050726963654f7261636c6560681b60448201526060916000916001600160a01b039091169063bf40fac190606401602060405180830381865afa1580156135cc573d6000803e3d6000fd5b505050506040513d601f19601f820116820180604052508101906135f09190615751565b60405163195b70b960e21b81526001600160a01b03868116600483015291925060009183169063656dc2e490602401600060405180830381865afa15801561363c573d6000803e3d6000fd5b505050506040513d6000823e601f3d908101601f1916820160405261366491908101906158f3565b60025460405163bf40fac160e01b81529192506000916001600160a01b039091169063bf40fac19061369890600401615981565b602060405180830381865afa1580156136b5573d6000803e3d6000fd5b505050506040513d601f19601f820116820180604052508101906136d99190615751565b905060006136e783876149bc565b9050806001600160a01b038116158061371c575073eeeeeeeeeeeeeeeeeeeeeeeeeeeeeeeeeeeeeeee6001600160a01b038316145b156137245750815b604080516001600160a01b038085166020830152808816928201929092529084166060820152608001612ded565b60025460405163bf40fac160e01b81526060916000916001600160a01b039091169063bf40fac190613786906004016159a1565b602060405180830381865afa1580156137a3573d6000803e3d6000fd5b505050506040513d601f19601f820116820180604052508101906137c79190615751565b60405163988b1fa760e01b81526001600160a01b03868116600483015291925060009183169063988b1fa790602401602060405180830381865afa158015613813573d6000803e3d6000fd5b505050506040513d601f19601f820116820180604052508101906138379190615751565b9050600061384482614cd7565b9050600061385282876149bc565b60025460405163bf40fac160e01b815291925082916000916001600160a01b03169063bf40fac19061388690600401615981565b602060405180830381865afa1580156138a3573d6000803e3d6000fd5b505050506040513d601f19601f820116820180604052508101906138c79190615751565b90506001600160a01b03831615806138fb575073eeeeeeeeeeeeeeeeeeeeeeeeeeeeeeeeeeeeeeee6001600160a01b038416145b15613904578091505b604080516001600160a01b038086166020830152808416928201929092529087166060820152608001604051602081830303815290604052965050505050505092915050565b60025460405163bf40fac160e01b81526060916000916001600160a01b039091169063bf40fac19061397e906004016159a1565b602060405180830381865afa15801561399b573d6000803e3d6000fd5b505050506040513d601f19601f820116820180604052508101906139bf9190615751565b60025460405163bf40fac160e01b815260206004820152602360248201527f437572766556324c70546f6b656e50726963654f7261636c654e6f526567697360448201526274727960e81b60648201529192506000916001600160a01b039091169063bf40fac190608401602060405180830381865afa158015613a47573d6000803e3d6000fd5b505050506040513d601f19601f82011682018060405250810190613a6b9190615751565b60025460405163bf40fac160e01b81529192506000916001600160a01b039091169063bf40fac190613a9f90600401615981565b602060405180830381865afa158015613abc573d6000803e3d6000fd5b505050506040513d601f19601f82011682018060405250810190613ae09190615751565b604080516001600160a01b039586166020820152938516848201529684166060840152948316608083015250921660a0808401919091528351808403909101815260c0909201909252919050565b60025460405163bf40fac160e01b81526060916000916001600160a01b039091169063bf40fac190613b62906004016159a1565b602060405180830381865afa158015613b7f573d6000803e3d6000fd5b505050506040513d601f19601f82011682018060405250810190613ba39190615751565b60405163988b1fa760e01b81526001600160a01b0385811660048301529192509082169063988b1fa790602401602060405180830381865afa158015613bed573d6000803e3d6000fd5b505050506040513d601f19601f82011682018060405250810190613c119190615751565b604080516001600160a01b03909216602083015201612ffc565b60606000600260009054906101000a90046001600160a01b03166001600160a01b03166377d792196040518163ffffffff1660e01b8152600401600060405180830381865afa158015613c82573d6000803e3d6000fd5b505050506040513d6000823e601f3d908101601f19168201604052613caa91908101906159e2565b905060005b8151811015613dbb576000828281518110613ccc57613ccc615607565b60200260200101519050856001600160a01b031681600001516001600160a01b03161415613d3857805160408083015160609384015182516001600160a01b03948516602082015293909116838301528284015280518083039093018352608090910190529250613dbb565b856001600160a01b031681602001516001600160a01b03161415613da857806020015181604001518260600151604051602001613d96939291906001600160a01b039384168152919092166020820152604081019190915260600190565b60405160208183030381529060405293505b5080613db38161564b565b915050613caf565b505092915050565b60604660381415613e305750604080516001600160a01b038416602082015273af16cb45b8149da403af41c63abfebfbcd16264b8183015273522348779dcb2911539e76a1042aa922f9c47ee360608083019190915282518083039091018152608090910190915261077e565b73e45589fbad3a1fb90f5b2a8a3e8958a8bab5f768734f1885d25ef219d3d4fa064809d6d4985fab9a0b738870f7102f1dcb1c35b01af10f1baf1b00ad680573161fbe0943af4a39a50262026a81a243b635982d73d816eb4660615bbf080ddf425f28ea4af30d04d56001600160a01b038816851415613f18576000846001600160a01b0316886001600160a01b03161415613ecd575081613eea565b836001600160a01b0316886001600160a01b03161415613eea5750805b8081898a604051602001613f019493929190615abb565b604051602081830303815290604052965050613f90565b836001600160a01b0316886001600160a01b03161415613f5f5787828987604051602001613f499493929190615abb565b6040516020818303038152906040529550613f90565b826001600160a01b0316886001600160a01b03161415613f905787818987604051602001612ded9493929190615abb565b505050505092915050565b604080516001600160a01b038316602082015260609101613171565b60025460405163bf40fac160e01b81526060916000916001600160a01b039091169063bf40fac190613feb906004016157df565b602060405180830381865afa158015614008573d6000803e3d6000fd5b505050506040513d601f19601f8201168201806040525081019061402c9190615751565b6040805160018082528183019092529192508491600091816020015b604080516060810182526000808252602080830182905292820152825260001990920191018161404857505060408051600180825281830190925291925060009190602082015b604080516060810182526000808252602080830182905292820152825260001990920191018161408f5790505090506000876001600160a01b0316846001600160a01b0316630dfe16816040518163ffffffff1660e01b8152600401602060405180830381865afa158015614108573d6000803e3d6000fd5b505050506040513d601f19601f8201168201806040525081019061412c9190615751565b6001600160a01b03161490506000886001600160a01b0316856001600160a01b031663d21220a76040518163ffffffff1660e01b8152600401602060405180830381865afa158015614182573d6000803e3d6000fd5b505050506040513d601f19601f820116820180604052508101906141a69190615751565b6001600160a01b031614905081806141bb5750805b6142075760405162461bcd60e51b815260206004820152601b60248201527f21696e70757420746f6b656e206e6f7420756e6465726c79696e6700000000006044820152606401610ab4565b846001600160a01b03166322be3de16040518163ffffffff1660e01b8152600401602060405180830381865afa158015614245573d6000803e3d6000fd5b505050506040513d601f19601f820116820180604052508101906142699190615830565b8460008151811061427c5761427c615607565b60200260200101516040019015159081151581525050846001600160a01b0316630dfe16816040518163ffffffff1660e01b8152600401602060405180830381865afa1580156142d0573d6000803e3d6000fd5b505050506040513d601f19601f820116820180604052508101906142f49190615751565b8460008151811061430757614307615607565b6020026020010151600001906001600160a01b031690816001600160a01b031681525050846001600160a01b031663d21220a76040518163ffffffff1660e01b8152600401602060405180830381865afa158015614369573d6000803e3d6000fd5b505050506040513d601f19601f8201168201806040525081019061438d9190615751565b846000815181106143a0576143a0615607565b6020026020010151602001906001600160a01b031690816001600160a01b031681525050846001600160a01b03166322be3de16040518163ffffffff1660e01b8152600401602060405180830381865afa158015614402573d6000803e3d6000fd5b505050506040513d601f19601f820116820180604052508101906144269190615830565b8360008151811061443957614439615607565b60200260200101516040019015159081151581525050846001600160a01b031663d21220a76040518163ffffffff1660e01b8152600401602060405180830381865afa15801561448d573d6000803e3d6000fd5b505050506040513d601f19601f820116820180604052508101906144b19190615751565b836000815181106144c4576144c4615607565b6020026020010151600001906001600160a01b031690816001600160a01b031681525050846001600160a01b0316630dfe16816040518163ffffffff1660e01b8152600401602060405180830381865afa158015614526573d6000803e3d6000fd5b505050506040513d601f19601f8201168201806040525081019061454a9190615751565b8360008151811061455d5761455d615607565b6020026020010151602001906001600160a01b031690816001600160a01b03168152505050508383838360405160200161459a9493929190615b3a565b60405160208183030381529060405294505050505092915050565b6000610f65836001600160a01b038416614e5c565b600080826001600160a01b031663313ce5676040518163ffffffff1660e01b8152600401602060405180830381865afa15801561460b573d6000803e3d6000fd5b505050506040513d601f19601f8201168201806040525081019061462f9190615b78565b60ff1690506012811115614662576146486012826157a6565b61465390600a615c7f565b61465d90856157bd565b614682565b61466d8160126157a6565b61467890600a615c7f565b6146829085615787565b949350505050565b6060816000018054806020026020016040519081016040528092919081815260200182805480156146da57602002820191906000526020600020905b8154815260200190600101908083116146c6575b50505050509050919050565b600081815260018301602052604081205480156147cf57600061470a6001836157a6565b855490915060009061471e906001906157a6565b905081811461478357600086600001828154811061473e5761473e615607565b906000526020600020015490508087600001848154811061476157614761615607565b6000918252602080832090910192909255918252600188019052604090208390555b855486908061479457614794615c8b565b60019003818190600052602060002001600090559055856001016000868152602001908152602001600020600090556001935050505061077e565b600091505061077e565b600061482e826040518060400160405280602081526020017f5361666545524332303a206c6f772d6c6576656c2063616c6c206661696c6564815250856001600160a01b0316614eab9092919063ffffffff16565b805190915015610e33578080602001905181019061484c9190615830565b610e335760405162461bcd60e51b815260206004820152602a60248201527f5361666545524332303a204552433230206f7065726174696f6e20646964206e6044820152691bdd081cdd58d8d9595960b21b6064820152608401610ab4565b6000806000614908856310badf4e60e01b8989886040516024016148d193929190615ca1565b60408051601f198184030181529190526020810180516001600160e01b03166001600160e01b031990931692909217909152614eba565b90508080602001905181019061491e9190615cc8565b925092505094509492505050565b60025460405163bf40fac160e01b815260206004820152601260248201527124aab734b9bbb0b82b192937baba32b9181960711b60448201526000916001600160a01b03169063bf40fac190606401602060405180830381865afa158015614998573d6000803e3d6000fd5b505050506040513d601f19601f8201168201806040525081019061077e9190615751565b6000805b8351811015614a1757826001600160a01b03168482815181106149e5576149e5615607565b60200260200101516001600160a01b03161415614a05578291505061077e565b80614a0f8161564b565b9150506149c0565b5060025460405163bf40fac160e01b81526000916001600160a01b03169063bf40fac190614a4790600401615981565b602060405180830381865afa158015614a64573d6000803e3d6000fd5b505050506040513d601f19601f82011682018060405250810190614a889190615751565b905060005b8451811015614ae357816001600160a01b0316858281518110614ab257614ab2615607565b60200260200101516001600160a01b03161415614ad15750905061077e565b80614adb8161564b565b915050614a8d565b5060025460405163bf40fac160e01b815260206004820152600b60248201526a39ba30b13632aa37b5b2b760a91b60448201526000916001600160a01b03169063bf40fac190606401602060405180830381865afa158015614b49573d6000803e3d6000fd5b505050506040513d601f19601f82011682018060405250810190614b6d9190615751565b905060005b8551811015614bca57816001600160a01b0316868281518110614b9757614b97615607565b60200260200101516001600160a01b03161415614bb85750915061077e9050565b80614bc28161564b565b915050614b72565b5060025460405163bf40fac160e01b81526020600482015260096024820152683ba12a21aa37b5b2b760b91b60448201526000916001600160a01b03169063bf40fac190606401602060405180830381865afa158015614c2e573d6000803e3d6000fd5b505050506040513d601f19601f82011682018060405250810190614c529190615751565b905060005b8651811015614cb057816001600160a01b0316878281518110614c7c57614c7c615607565b60200260200101516001600160a01b03161415614c9e5750925061077e915050565b80614ca88161564b565b915050614c57565b5085600081518110614cc457614cc4615607565b6020026020010151935050505092915050565b606060005b60405163c661065760e01b815260ff821660048201526001600160a01b0384169063c661065790602401602060405180830381865afa925050508015614d3f575060408051601f3d908101601f19168201909252614d3c91810190615751565b60015b614d4857614d5b565b5080614d5381615731565b915050614cdc565b8060ff166001600160401b03811115614d7657614d76615481565b604051908082528060200260200182016040528015614d9f578160200160208202803683370190505b50915060005b8160ff16811015614e555760405163c661065760e01b8152600481018290526001600160a01b0385169063c661065790602401602060405180830381865afa158015614df5573d6000803e3d6000fd5b505050506040513d601f19601f82011682018060405250810190614e199190615751565b838281518110614e2b57614e2b615607565b6001600160a01b039092166020928302919091019091015280614e4d8161564b565b915050614da5565b5050919050565b6000818152600183016020526040812054614ea35750815460018181018455600084815260208082209093018490558454848252828601909352604090209190915561077e565b50600061077e565b60606146828484600085614fae565b60606001600160a01b0383163b614f225760405162461bcd60e51b815260206004820152602660248201527f416464726573733a2064656c65676174652063616c6c20746f206e6f6e2d636f6044820152651b9d1c9858dd60d21b6064820152608401610ab4565b600080846001600160a01b031684604051614f3d91906156f8565b600060405180830381855af49150503d8060008114614f78576040519150601f19603f3d011682016040523d82523d6000602084013e614f7d565b606091505b5091509150614fa58282604051806060016040528060278152602001615d0a60279139615089565b95945050505050565b60608247101561500f5760405162461bcd60e51b815260206004820152602660248201527f416464726573733a20696e73756666696369656e742062616c616e636520666f6044820152651c8818d85b1b60d21b6064820152608401610ab4565b600080866001600160a01b0316858760405161502b91906156f8565b60006040518083038185875af1925050503d8060008114615068576040519150601f19603f3d011682016040523d82523d6000602084013e61506d565b606091505b509150915061507e878383876150c2565b979650505050505050565b60608315615098575081610f65565b8251156150a85782518084602001fd5b8160405162461bcd60e51b8152600401610ab49190615cf6565b6060831561512e578251615127576001600160a01b0385163b6151275760405162461bcd60e51b815260206004820152601d60248201527f416464726573733a2063616c6c20746f206e6f6e2d636f6e74726163740000006044820152606401610ab4565b5081614682565b61468283838151156151435781518083602001fd5b8060405162461bcd60e51b8152600401610ab49190615cf6565b600081518084526020808501945080840160005b838110156151965781516001600160a01b031687529582019590820190600101615171565b509495945050505050565b6060815260006151b4606083018661515d565b82810360208401526151c6818661515d565b90508281036040840152610a78818561515d565b6001600160a01b038116811461103357600080fd5b6000806040838503121561520257600080fd5b823561520d816151da565b9150602083013561521d816151da565b809150509250929050565b60008083601f84011261523a57600080fd5b5081356001600160401b0381111561525157600080fd5b6020830191508360208260051b8501011115611d4557600080fd5b6000806000806000806060878903121561528557600080fd5b86356001600160401b038082111561529c57600080fd5b6152a88a838b01615228565b909850965060208901359150808211156152c157600080fd5b6152cd8a838b01615228565b909650945060408901359150808211156152e657600080fd5b506152f389828a01615228565b979a9699509497509295939492505050565b60006020828403121561531757600080fd5b8135610f65816151da565b602081526000610f65602083018461515d565b60008060006060848603121561534a57600080fd5b8335615355816151da565b925060208401359150604084013561536c816151da565b809150509250925092565b6020808252825182820181905260009190848201906040850190845b818110156153b95783516001600160e01b03191683529284019291840191600101615393565b50909695505050505050565b60005b838110156153e05781810151838201526020016153c8565b838111156126dc5750506000910152565b600081518084526154098160208601602086016153c5565b601f01601f19169290920160200192915050565b6001600160a01b0383168152604060208201819052600090614682908301846153f1565b60008060006060848603121561545657600080fd5b8335615461816151da565b92506020840135615471816151da565b9150604084013561536c816151da565b634e487b7160e01b600052604160045260246000fd5b604051608081016001600160401b03811182821017156154b9576154b9615481565b60405290565b604051601f8201601f191681016001600160401b03811182821017156154e7576154e7615481565b604052919050565b60006001600160401b0382111561550857615508615481565b50601f01601f191660200190565b60006020828403121561552857600080fd5b81356001600160401b0381111561553e57600080fd5b8201601f8101841361554f57600080fd5b803561556261555d826154ef565b6154bf565b81815285602083850101111561557757600080fd5b81602084016020830137600091810160200191909152949350505050565b6040815260006155a8604083018561515d565b6020838203818501528185518084528284019150828160051b85010183880160005b838110156155f857601f198784030185526155e68383516153f1565b948601949250908501906001016155ca565b50909998505050505050505050565b634e487b7160e01b600052603260045260246000fd5b634e487b7160e01b600052601160045260246000fd5b600082198211156156465761564661561d565b500190565b600060001982141561565f5761565f61561d565b5060010190565b6020808252600b908201526a10b0b93930bcb9903632b760a91b604082015260600190565b60006020828403121561569d57600080fd5b81516001600160401b038111156156b357600080fd5b8201601f810184136156c457600080fd5b80516156d261555d826154ef565b8181528560208385010111156156e757600080fd5b614fa58260208301602086016153c5565b6000825161570a8184602087016153c5565b9190910192915050565b600060ff8216806157275761572761561d565b6000190192915050565b600060ff821660ff8114156157485761574861561d565b60010192915050565b60006020828403121561576357600080fd5b8151610f65816151da565b60006020828403121561578057600080fd5b5051919050565b60008160001904831182151516156157a1576157a161561d565b500290565b6000828210156157b8576157b861561d565b500390565b6000826157da57634e487b7160e01b600052601260045260246000fd5b500490565b60208082526013908201527229a7a624a2262cafa9aba0a82fa927aaaa22a960691b604082015260600190565b6001600160a01b039384168152919092166020820152901515604082015260600190565b60006020828403121561584257600080fd5b81518015158114610f6557600080fd5b6000806040838503121561586557600080fd5b505080516020909101519092909150565b6001600160a01b03831681526040602082018190526000906146829083018461515d565b6001600160a01b03841681526060602082018190526000906158be9083018561515d565b8281036040840152610a78818561515d565b60006001600160401b038211156158e9576158e9615481565b5060051b60200190565b6000602080838503121561590657600080fd5b82516001600160401b0381111561591c57600080fd5b8301601f8101851361592d57600080fd5b805161593b61555d826158d0565b81815260059190911b8201830190838101908783111561595a57600080fd5b928401925b8284101561507e578351615972816151da565b8252928401929084019061595f565b6020808252600690820152653bba37b5b2b760d11b604082015260600190565b60208082526021908201527f43757276654c70546f6b656e50726963654f7261636c654e6f526567697374726040820152607960f81b606082015260800190565b600060208083850312156159f557600080fd5b82516001600160401b03811115615a0b57600080fd5b8301601f81018513615a1c57600080fd5b8051615a2a61555d826158d0565b81815260079190911b82018301908381019087831115615a4957600080fd5b928401925b8284101561507e5760808489031215615a675760008081fd5b615a6f615497565b8451615a7a816151da565b815284860151615a89816151da565b81870152604085810151615a9c816151da565b9082015260608581015190820152825260809093019290840190615a4e565b6001600160a01b03948516815292841660208401529083166040830152909116606082015260800190565b600081518084526020808501945080840160005b8381101561519657815180516001600160a01b03908116895284820151168489015260409081015115159088015260609096019590820190600101615afa565b6001600160a01b03858116825284166020820152608060408201819052600090615b6690830185615ae6565b828103606084015261507e8185615ae6565b600060208284031215615b8a57600080fd5b815160ff81168114610f6557600080fd5b600181815b80851115615bd6578160001904821115615bbc57615bbc61561d565b80851615615bc957918102915b93841c9390800290615ba0565b509250929050565b600082615bed5750600161077e565b81615bfa5750600061077e565b8160018114615c105760028114615c1a57615c36565b600191505061077e565b60ff841115615c2b57615c2b61561d565b50506001821b61077e565b5060208310610133831016604e8410600b8410161715615c59575081810a61077e565b615c638383615b9b565b8060001904821115615c7757615c7761561d565b029392505050565b6000610f658383615bde565b634e487b7160e01b600052603160045260246000fd5b60018060a01b0384168152826020820152606060408201526000614fa560608301846153f1565b60008060408385031215615cdb57600080fd5b8251615ce6816151da565b6020939093015192949293505050565b602081526000610f6560208301846153f156fe416464726573733a206c6f772d6c6576656c2064656c65676174652063616c6c206661696c6564a164736f6c634300080a000a",
    "linkReferences": {}
  },
  "methodIdentifiers": {
    "MAX_SLIPPAGE()": "f9759518",
    "_getExtensionFunctions()": "89f8132e",
    "_removeRedemptionStrategy(address)": "514b49d9",
    "_resetRedemptionStrategies(address[],address[],address[])": "a1bb91e3",
    "_setDefaultOutputToken(address,address)": "2434cb7f",
    "_setRedemptionStrategies(address[],address[],address[])": "366eda2e",
    "_setRedemptionStrategy(address,address,address)": "d7341acf",
    "_setSlippages(address[],address[],uint256[])": "5495a6d7",
    "acceptOwnership()": "79ba5097",
    "amountOutAndSlippageOfSwap(address,uint256,address)": "f560cebd",
    "ap()": "3c4f743c",
    "defaultOutputToken(address)": "8db87c27",
    "getAllPairsStrategies()": "0d856eef",
    "getAllRedemptionStrategies()": "a6fdd2bb",
    "getInputTokensByOutputToken(address)": "403de57f",
    "getRedemptionStrategies(address,address)": "ed287f3f",
    "getRedemptionStrategy(address,address)": "b6b928fd",
    "getSlippage(address,address)": "2f53ef2b",
    "owner()": "8da5cb5b",
    "pairsStrategiesMatch(address[],address[],address[])": "3322d877",
    "pendingOwner()": "e30c3978",
    "redemptionStrategiesByName(string)": "dee7fe48",
    "redemptionStrategiesByTokens(address,address)": "a700f9e4",
    "renounceOwnership()": "715018a6",
    "swap(address,uint256,address)": "6d069a67",
    "transferOwnership(address)": "f2fde38b"
  }
}