{
  "address": "0x93aA5379Bd35A79f1d14c563602d355F46dD3655",
  "abi": [
    {
      "anonymous": false,
      "inputs": [
        {
          "indexed": false,
          "internalType": "uint8",
          "name": "version",
          "type": "uint8"
        }
      ],
      "name": "Initialized",
      "type": "event"
    },
    {
      "anonymous": false,
      "inputs": [
        {
          "indexed": false,
          "internalType": "address",
          "name": "oldOwner",
          "type": "address"
        },
        {
          "indexed": false,
          "internalType": "address",
          "name": "newOwner",
          "type": "address"
        }
      ],
      "name": "NewOwner",
      "type": "event"
    },
    {
      "anonymous": false,
      "inputs": [
        {
          "indexed": false,
          "internalType": "address",
          "name": "oldPendingOwner",
          "type": "address"
        },
        {
          "indexed": false,
          "internalType": "address",
          "name": "newPendingOwner",
          "type": "address"
        }
      ],
      "name": "NewPendingOwner",
      "type": "event"
    },
    {
      "anonymous": false,
      "inputs": [
        {
          "indexed": true,
          "internalType": "address",
          "name": "previousOwner",
          "type": "address"
        },
        {
          "indexed": true,
          "internalType": "address",
          "name": "newOwner",
          "type": "address"
        }
      ],
      "name": "OwnershipTransferred",
      "type": "event"
    },
    {
      "inputs": [],
      "name": "_acceptOwner",
      "outputs": [],
      "stateMutability": "nonpayable",
      "type": "function"
    },
    {
      "inputs": [
        {
          "internalType": "address",
          "name": "newPendingOwner",
          "type": "address"
        }
      ],
      "name": "_setPendingOwner",
      "outputs": [],
      "stateMutability": "nonpayable",
      "type": "function"
    },
    {
      "inputs": [
        {
          "internalType": "contract ICToken",
          "name": "cToken",
          "type": "address"
        }
      ],
      "name": "getUnderlyingPrice",
      "outputs": [
        {
          "internalType": "uint256",
          "name": "",
          "type": "uint256"
        }
      ],
      "stateMutability": "view",
      "type": "function"
    },
    {
      "inputs": [],
      "name": "initialize",
      "outputs": [],
      "stateMutability": "nonpayable",
      "type": "function"
    },
    {
      "inputs": [],
      "name": "owner",
      "outputs": [
        {
          "internalType": "address",
          "name": "",
          "type": "address"
        }
      ],
      "stateMutability": "view",
      "type": "function"
    },
    {
      "inputs": [],
      "name": "pendingOwner",
      "outputs": [
        {
          "internalType": "address",
          "name": "",
          "type": "address"
        }
      ],
      "stateMutability": "view",
      "type": "function"
    },
    {
      "inputs": [
        {
          "internalType": "address",
          "name": "underlying",
          "type": "address"
        }
      ],
      "name": "price",
      "outputs": [
        {
          "internalType": "uint256",
          "name": "",
          "type": "uint256"
        }
      ],
      "stateMutability": "view",
      "type": "function"
    },
    {
      "inputs": [],
      "name": "renounceOwnership",
      "outputs": [],
      "stateMutability": "nonpayable",
      "type": "function"
    },
    {
      "inputs": [],
      "name": "stakingPool",
      "outputs": [
        {
          "internalType": "contract IStakePool",
          "name": "",
          "type": "address"
        }
      ],
      "stateMutability": "view",
      "type": "function"
    },
    {
      "inputs": [],
      "name": "stkBnb",
      "outputs": [
        {
          "internalType": "address",
          "name": "",
          "type": "address"
        }
      ],
      "stateMutability": "view",
      "type": "function"
    },
    {
      "inputs": [
        {
          "internalType": "address",
          "name": "newOwner",
          "type": "address"
        }
      ],
      "name": "transferOwnership",
      "outputs": [],
      "stateMutability": "nonpayable",
      "type": "function"
    }
  ],
  "transactionHash": "0xed99b679e41c629118189a1a000f14077c646de5f844ad8a420af4c044d0f2e9",
  "args": [],
  "numDeployments": 1,
  "bytecode": {
    "object": "0x608060405234801561001057600080fd5b506108f5806100206000396000f3fe608060405234801561001057600080fd5b50600436106100a95760003560e01c80638da5cb5b116100715780638da5cb5b14610116578063aea9107814610127578063e30c397814610148578063f2fde38b1461015b578063fc4d33f91461016e578063fc57d4df1461017657600080fd5b80630c56ae3b146100ae5780636e96dfd7146100de578063715018a6146100f35780637cbb2c35146100fb5780638129fc1c1461010e575b600080fd5b6066546100c1906001600160a01b031681565b6040516001600160a01b0390911681526020015b60405180910390f35b6100f16100ec3660046107b7565b610189565b005b6100f16101f3565b6067546100c1906001600160a01b031681565b6100f161023b565b6033546001600160a01b03166100c1565b61013a6101353660046107b7565b610394565b6040519081526020016100d5565b6065546100c1906001600160a01b031681565b6100f16101693660046107b7565b6101f3565b6100f16103f7565b61013a6101843660046107b7565b61050b565b6101916105d4565b606580546001600160a01b038381166001600160a01b031983168117909355604080519190921680825260208201939093527fb3d55174552271a4f1aaf36b72f50381e892171636b3fb5447fe00e995e7a37b91015b60405180910390a15050565b6101fb6105d4565b60405162461bcd60e51b815260206004820152601060248201526f6e6f74207573656420616e796d6f726560801b60448201526064015b60405180910390fd5b600054610100900460ff161580801561025b5750600054600160ff909116105b806102755750303b158015610275575060005460ff166001145b6102d85760405162461bcd60e51b815260206004820152602e60248201527f496e697469616c697a61626c653a20636f6e747261637420697320616c72656160448201526d191e481a5b9a5d1a585b1a5e995960921b6064820152608401610232565b6000805460ff1916600117905580156102fb576000805461ff0019166101001790555b610303610630565b606680546001600160a01b031990811673c228cefdf841defdbd5b3a18dfd414cc0dbfa0d8179091556067805490911673c2e9d07f66a89c44062459a47a0d2dc038e4fb161790558015610391576000805461ff0019169055604051600181527f7f26b83ff96e1f2b6a682f133852f6798a09c465da95921460cefb38474024989060200160405180910390a15b50565b6067546000906001600160a01b038381169116146103e95760405162461bcd60e51b8152602060048201526012602482015271496e76616c696420756e6465726c79696e6760701b6044820152606401610232565b6103f161065f565b92915050565b6065546001600160a01b031633146104495760405162461bcd60e51b81526020600482015260156024820152743737ba103a3432903832b73234b7339037bbb732b960591b6044820152606401610232565b600061045d6033546001600160a01b031690565b6065549091506001600160a01b0316610475816106f6565b606580546001600160a01b0319169055604080516001600160a01b0384168152600060208201527f70aea8d848e8a90fb7661b227dc522eb6395c3dac71b63cb59edd5c9899b2364910160405180910390a1606554604080516001600160a01b03808516825290921660208301527fb3d55174552271a4f1aaf36b72f50381e892171636b3fb5447fe00e995e7a37b91016101e7565b600080826001600160a01b0316636f307dc36040518163ffffffff1660e01b8152600401602060405180830381865afa15801561054c573d6000803e3d6000fd5b505050506040513d601f19601f8201168201806040525081019061057091906107d4565b6067549091506001600160a01b038083169116146105c55760405162461bcd60e51b8152602060048201526012602482015271496e76616c696420756e6465726c79696e6760701b6044820152606401610232565b6105cd61065f565b9392505050565b6033546001600160a01b0316331461062e5760405162461bcd60e51b815260206004820181905260248201527f4f776e61626c653a2063616c6c6572206973206e6f7420746865206f776e65726044820152606401610232565b565b600054610100900460ff166106575760405162461bcd60e51b8152600401610232906107f1565b61062e610748565b60665460408051633ba0b9a960e01b8152815160009384936001600160a01b0390911692633ba0b9a992600480830193928290030181865afa1580156106a9573d6000803e3d6000fd5b505050506040513d601f19601f820116820180604052508101906106cd919061083c565b602081015181519192506000916106ec90670de0b6b3a7640000610899565b6105cd91906108c6565b603380546001600160a01b038381166001600160a01b0319831681179093556040519116919082907f8be0079c531659141344cd1fd0a4f28419497f9722a3daafe3b4186f6b6457e090600090a35050565b600054610100900460ff1661076f5760405162461bcd60e51b8152600401610232906107f1565b61062e600054610100900460ff166107995760405162461bcd60e51b8152600401610232906107f1565b61062e336106f6565b6001600160a01b038116811461039157600080fd5b6000602082840312156107c957600080fd5b81356105cd816107a2565b6000602082840312156107e657600080fd5b81516105cd816107a2565b6020808252602b908201527f496e697469616c697a61626c653a20636f6e7472616374206973206e6f74206960408201526a6e697469616c697a696e6760a81b606082015260800190565b60006040828403121561084e57600080fd5b6040516040810181811067ffffffffffffffff8211171561087f57634e487b7160e01b600052604160045260246000fd5b604052825181526020928301519281019290925250919050565b60008160001904831182151516156108c157634e487b7160e01b600052601160045260246000fd5b500290565b6000826108e357634e487b7160e01b600052601260045260246000fd5b50049056fea164736f6c634300080a000a",
    "linkReferences": {}
  },
  "methodIdentifiers": {
    "_acceptOwner()": "fc4d33f9",
    "_setPendingOwner(address)": "6e96dfd7",
    "getUnderlyingPrice(address)": "fc57d4df",
    "initialize()": "8129fc1c",
    "owner()": "8da5cb5b",
    "pendingOwner()": "e30c3978",
    "price(address)": "aea91078",
    "renounceOwnership()": "715018a6",
    "stakingPool()": "0c56ae3b",
    "stkBnb()": "7cbb2c35",
    "transferOwnership(address)": "f2fde38b"
  }
}