{
  "address": "0x393cC87DF22d7D107954549ed3764B02bBAE06d0",
  "abi": [
    {
      "anonymous": false,
      "inputs": [
        {
          "indexed": false,
          "internalType": "uint8",
          "name": "version",
          "type": "uint8"
        }
      ],
      "name": "Initialized",
      "type": "event"
    },
    {
      "anonymous": false,
      "inputs": [
        {
          "indexed": false,
          "internalType": "address",
          "name": "oldOwner",
          "type": "address"
        },
        {
          "indexed": false,
          "internalType": "address",
          "name": "newOwner",
          "type": "address"
        }
      ],
      "name": "NewOwner",
      "type": "event"
    },
    {
      "anonymous": false,
      "inputs": [
        {
          "indexed": false,
          "internalType": "address",
          "name": "oldPendingOwner",
          "type": "address"
        },
        {
          "indexed": false,
          "internalType": "address",
          "name": "newPendingOwner",
          "type": "address"
        }
      ],
      "name": "NewPendingOwner",
      "type": "event"
    },
    {
      "anonymous": false,
      "inputs": [
        {
          "indexed": true,
          "internalType": "address",
          "name": "previousOwner",
          "type": "address"
        },
        {
          "indexed": true,
          "internalType": "address",
          "name": "newOwner",
          "type": "address"
        }
      ],
      "name": "OwnershipTransferred",
      "type": "event"
    },
    {
      "inputs": [],
      "name": "_acceptOwner",
      "outputs": [],
      "stateMutability": "nonpayable",
      "type": "function"
    },
    {
      "inputs": [
        {
          "internalType": "address",
          "name": "newPendingOwner",
          "type": "address"
        }
      ],
      "name": "_setPendingOwner",
      "outputs": [],
      "stateMutability": "nonpayable",
      "type": "function"
    },
    {
      "inputs": [
        {
          "internalType": "contract ICToken",
          "name": "cToken",
          "type": "address"
        }
      ],
      "name": "getUnderlyingPrice",
      "outputs": [
        {
          "internalType": "uint256",
          "name": "",
          "type": "uint256"
        }
      ],
      "stateMutability": "view",
      "type": "function"
    },
    {
      "inputs": [],
      "name": "initialize",
      "outputs": [],
      "stateMutability": "nonpayable",
      "type": "function"
    },
    {
      "inputs": [],
      "name": "owner",
      "outputs": [
        {
          "internalType": "address",
          "name": "",
          "type": "address"
        }
      ],
      "stateMutability": "view",
      "type": "function"
    },
    {
      "inputs": [],
      "name": "pendingOwner",
      "outputs": [
        {
          "internalType": "address",
          "name": "",
          "type": "address"
        }
      ],
      "stateMutability": "view",
      "type": "function"
    },
    {
      "inputs": [
        {
          "internalType": "address",
          "name": "underlying",
          "type": "address"
        }
      ],
      "name": "price",
      "outputs": [
        {
          "internalType": "uint256",
          "name": "",
          "type": "uint256"
        }
      ],
      "stateMutability": "view",
      "type": "function"
    },
    {
      "inputs": [],
      "name": "renounceOwnership",
      "outputs": [],
      "stateMutability": "nonpayable",
      "type": "function"
    },
    {
      "inputs": [],
      "name": "stakingPool",
      "outputs": [
        {
          "internalType": "contract IStakePool",
          "name": "",
          "type": "address"
        }
      ],
      "stateMutability": "view",
      "type": "function"
    },
    {
      "inputs": [],
      "name": "stkBnb",
      "outputs": [
        {
          "internalType": "address",
          "name": "",
          "type": "address"
        }
      ],
      "stateMutability": "view",
      "type": "function"
    },
    {
      "inputs": [
        {
          "internalType": "address",
          "name": "newOwner",
          "type": "address"
        }
      ],
      "name": "transferOwnership",
      "outputs": [],
      "stateMutability": "nonpayable",
      "type": "function"
    }
  ],
  "transactionHash": "0x0df29e00f4a2a719f89c95972c1552715185986194ade912fa0bb46c60417328",
  "args": [],
  "numDeployments": 2,
  "bytecode": {
    "object": "0x608060405234801561001057600080fd5b5061093a806100206000396000f3fe608060405234801561001057600080fd5b50600436106100a95760003560e01c80638da5cb5b116100715780638da5cb5b14610116578063aea9107814610127578063e30c397814610148578063f2fde38b1461015b578063fc4d33f91461016e578063fc57d4df1461017657600080fd5b80630c56ae3b146100ae5780636e96dfd7146100de578063715018a6146100f35780637cbb2c35146100fb5780638129fc1c1461010e575b600080fd5b6066546100c1906001600160a01b031681565b6040516001600160a01b0390911681526020015b60405180910390f35b6100f16100ec3660046107fc565b610189565b005b6100f16101f3565b6067546100c1906001600160a01b031681565b6100f1610207565b6033546001600160a01b03166100c1565b61013a6101353660046107fc565b610365565b6040519081526020016100d5565b6065546100c1906001600160a01b031681565b6100f16101693660046107fc565b6103c8565b6100f161043e565b61013a6101843660046107fc565b610552565b61019161061b565b606580546001600160a01b038381166001600160a01b031983168117909355604080519190921680825260208201939093527fb3d55174552271a4f1aaf36b72f50381e892171636b3fb5447fe00e995e7a37b91015b60405180910390a15050565b6101fb61061b565b6102056000610675565b565b600054610100900460ff16158080156102275750600054600160ff909116105b806102415750303b158015610241575060005460ff166001145b6102a95760405162461bcd60e51b815260206004820152602e60248201527f496e697469616c697a61626c653a20636f6e747261637420697320616c72656160448201526d191e481a5b9a5d1a585b1a5e995960921b60648201526084015b60405180910390fd5b6000805460ff1916600117905580156102cc576000805461ff0019166101001790555b6102d46106c7565b606680546001600160a01b031990811673c228cefdf841defdbd5b3a18dfd414cc0dbfa0d8179091556067805490911673c2e9d07f66a89c44062459a47a0d2dc038e4fb161790558015610362576000805461ff0019169055604051600181527f7f26b83ff96e1f2b6a682f133852f6798a09c465da95921460cefb38474024989060200160405180910390a15b50565b6067546000906001600160a01b038381169116146103ba5760405162461bcd60e51b8152602060048201526012602482015271496e76616c696420756e6465726c79696e6760701b60448201526064016102a0565b6103c26106f6565b92915050565b6103d061061b565b6001600160a01b0381166104355760405162461bcd60e51b815260206004820152602660248201527f4f776e61626c653a206e6577206f776e657220697320746865207a65726f206160448201526564647265737360d01b60648201526084016102a0565b61036281610675565b6065546001600160a01b031633146104905760405162461bcd60e51b81526020600482015260156024820152743737ba103a3432903832b73234b7339037bbb732b960591b60448201526064016102a0565b60006104a46033546001600160a01b031690565b6065549091506001600160a01b03166104bc81610675565b606580546001600160a01b0319169055604080516001600160a01b0384168152600060208201527f70aea8d848e8a90fb7661b227dc522eb6395c3dac71b63cb59edd5c9899b2364910160405180910390a1606554604080516001600160a01b03808516825290921660208301527fb3d55174552271a4f1aaf36b72f50381e892171636b3fb5447fe00e995e7a37b91016101e7565b600080826001600160a01b0316636f307dc36040518163ffffffff1660e01b8152600401602060405180830381865afa158015610593573d6000803e3d6000fd5b505050506040513d601f19601f820116820180604052508101906105b79190610819565b6067549091506001600160a01b0380831691161461060c5760405162461bcd60e51b8152602060048201526012602482015271496e76616c696420756e6465726c79696e6760701b60448201526064016102a0565b6106146106f6565b9392505050565b6033546001600160a01b031633146102055760405162461bcd60e51b815260206004820181905260248201527f4f776e61626c653a2063616c6c6572206973206e6f7420746865206f776e657260448201526064016102a0565b603380546001600160a01b038381166001600160a01b0319831681179093556040519116919082907f8be0079c531659141344cd1fd0a4f28419497f9722a3daafe3b4186f6b6457e090600090a35050565b600054610100900460ff166106ee5760405162461bcd60e51b81526004016102a090610836565b61020561078d565b60665460408051633ba0b9a960e01b8152815160009384936001600160a01b0390911692633ba0b9a992600480830193928290030181865afa158015610740573d6000803e3d6000fd5b505050506040513d601f19601f820116820180604052508101906107649190610881565b6020810151815191925060009161078390670de0b6b3a76400006108de565b610614919061090b565b600054610100900460ff166107b45760405162461bcd60e51b81526004016102a090610836565b610205600054610100900460ff166107de5760405162461bcd60e51b81526004016102a090610836565b61020533610675565b6001600160a01b038116811461036257600080fd5b60006020828403121561080e57600080fd5b8135610614816107e7565b60006020828403121561082b57600080fd5b8151610614816107e7565b6020808252602b908201527f496e697469616c697a61626c653a20636f6e7472616374206973206e6f74206960408201526a6e697469616c697a696e6760a81b606082015260800190565b60006040828403121561089357600080fd5b6040516040810181811067ffffffffffffffff821117156108c457634e487b7160e01b600052604160045260246000fd5b604052825181526020928301519281019290925250919050565b600081600019048311821515161561090657634e487b7160e01b600052601160045260246000fd5b500290565b60008261092857634e487b7160e01b600052601260045260246000fd5b50049056fea164736f6c634300080a000a",
    "linkReferences": {}
  },
  "methodIdentifiers": {
    "_acceptOwner()": "fc4d33f9",
    "_setPendingOwner(address)": "6e96dfd7",
    "getUnderlyingPrice(address)": "fc57d4df",
    "initialize()": "8129fc1c",
    "owner()": "8da5cb5b",
    "pendingOwner()": "e30c3978",
    "price(address)": "aea91078",
    "renounceOwnership()": "715018a6",
    "stakingPool()": "0c56ae3b",
    "stkBnb()": "7cbb2c35",
    "transferOwnership(address)": "f2fde38b"
  }
}