{
  "address": "0xC3F159eB41b75BF79bbC099AFB63ED0c74d6aEC5",
  "abi": [
    {
      "inputs": [],
      "stateMutability": "nonpayable",
      "type": "constructor"
    },
    {
      "anonymous": false,
      "inputs": [
        {
          "indexed": true,
          "internalType": "address",
          "name": "owner",
          "type": "address"
        },
        {
          "indexed": true,
          "internalType": "address",
          "name": "spender",
          "type": "address"
        },
        {
          "indexed": false,
          "internalType": "uint256",
          "name": "value",
          "type": "uint256"
        }
      ],
      "name": "Approval",
      "type": "event"
    },
    {
      "anonymous": false,
      "inputs": [
        {
          "indexed": true,
          "internalType": "address",
          "name": "rewardToken",
          "type": "address"
        },
        {
          "indexed": false,
          "internalType": "uint256",
          "name": "amount",
          "type": "uint256"
        }
      ],
      "name": "ClaimRewards",
      "type": "event"
    },
    {
      "anonymous": false,
      "inputs": [
        {
          "indexed": true,
          "internalType": "address",
          "name": "sender",
          "type": "address"
        },
        {
          "indexed": true,
          "internalType": "address",
          "name": "owner",
          "type": "address"
        },
        {
          "indexed": false,
          "internalType": "uint256",
          "name": "assets",
          "type": "uint256"
        },
        {
          "indexed": false,
          "internalType": "uint256",
          "name": "shares",
          "type": "uint256"
        }
      ],
      "name": "Deposit",
      "type": "event"
    },
    {
      "anonymous": false,
      "inputs": [
        {
          "indexed": false,
          "internalType": "uint8",
          "name": "version",
          "type": "uint8"
        }
      ],
      "name": "Initialized",
      "type": "event"
    },
    {
      "anonymous": false,
      "inputs": [
        {
          "indexed": false,
          "internalType": "address",
          "name": "oldOwner",
          "type": "address"
        },
        {
          "indexed": false,
          "internalType": "address",
          "name": "newOwner",
          "type": "address"
        }
      ],
      "name": "NewOwner",
      "type": "event"
    },
    {
      "anonymous": false,
      "inputs": [
        {
          "indexed": false,
          "internalType": "address",
          "name": "oldPendingOwner",
          "type": "address"
        },
        {
          "indexed": false,
          "internalType": "address",
          "name": "newPendingOwner",
          "type": "address"
        }
      ],
      "name": "NewPendingOwner",
      "type": "event"
    },
    {
      "anonymous": false,
      "inputs": [
        {
          "indexed": true,
          "internalType": "address",
          "name": "previousOwner",
          "type": "address"
        },
        {
          "indexed": true,
          "internalType": "address",
          "name": "newOwner",
          "type": "address"
        }
      ],
      "name": "OwnershipTransferred",
      "type": "event"
    },
    {
      "anonymous": false,
      "inputs": [
        {
          "indexed": false,
          "internalType": "address",
          "name": "account",
          "type": "address"
        }
      ],
      "name": "Paused",
      "type": "event"
    },
    {
      "anonymous": false,
      "inputs": [
        {
          "indexed": true,
          "internalType": "address",
          "name": "newDestination",
          "type": "address"
        }
      ],
      "name": "RewardDestinationUpdate",
      "type": "event"
    },
    {
      "anonymous": false,
      "inputs": [
        {
          "indexed": true,
          "internalType": "address",
          "name": "from",
          "type": "address"
        },
        {
          "indexed": true,
          "internalType": "address",
          "name": "to",
          "type": "address"
        },
        {
          "indexed": false,
          "internalType": "uint256",
          "name": "value",
          "type": "uint256"
        }
      ],
      "name": "Transfer",
      "type": "event"
    },
    {
      "anonymous": false,
      "inputs": [
        {
          "indexed": false,
          "internalType": "address",
          "name": "account",
          "type": "address"
        }
      ],
      "name": "Unpaused",
      "type": "event"
    },
    {
      "anonymous": false,
      "inputs": [
        {
          "indexed": false,
          "internalType": "uint256",
          "name": "oldPerformanceFee",
          "type": "uint256"
        },
        {
          "indexed": false,
          "internalType": "uint256",
          "name": "newPerformanceFee",
          "type": "uint256"
        },
        {
          "indexed": false,
          "internalType": "address",
          "name": "oldFeeRecipient",
          "type": "address"
        },
        {
          "indexed": false,
          "internalType": "address",
          "name": "newFeeRecipient",
          "type": "address"
        }
      ],
      "name": "UpdatedFeeSettings",
      "type": "event"
    },
    {
      "anonymous": false,
      "inputs": [
        {
          "indexed": true,
          "internalType": "address",
          "name": "sender",
          "type": "address"
        },
        {
          "indexed": true,
          "internalType": "address",
          "name": "receiver",
          "type": "address"
        },
        {
          "indexed": true,
          "internalType": "address",
          "name": "owner",
          "type": "address"
        },
        {
          "indexed": false,
          "internalType": "uint256",
          "name": "assets",
          "type": "uint256"
        },
        {
          "indexed": false,
          "internalType": "uint256",
          "name": "shares",
          "type": "uint256"
        }
      ],
      "name": "Withdraw",
      "type": "event"
    },
    {
      "inputs": [],
      "name": "GAUGES_FACTORY_VOTER",
      "outputs": [
        {
          "internalType": "contract VoterV3",
          "name": "",
          "type": "address"
        }
      ],
      "stateMutability": "view",
      "type": "function"
    },
    {
      "inputs": [],
      "name": "_acceptOwner",
      "outputs": [],
      "stateMutability": "nonpayable",
      "type": "function"
    },
    {
      "inputs": [
        {
          "internalType": "address",
          "name": "newPendingOwner",
          "type": "address"
        }
      ],
      "name": "_setPendingOwner",
      "outputs": [],
      "stateMutability": "nonpayable",
      "type": "function"
    },
    {
      "inputs": [
        {
          "internalType": "address",
          "name": "owner",
          "type": "address"
        },
        {
          "internalType": "address",
          "name": "spender",
          "type": "address"
        }
      ],
      "name": "allowance",
      "outputs": [
        {
          "internalType": "uint256",
          "name": "",
          "type": "uint256"
        }
      ],
      "stateMutability": "view",
      "type": "function"
    },
    {
      "inputs": [
        {
          "internalType": "address",
          "name": "spender",
          "type": "address"
        },
        {
          "internalType": "uint256",
          "name": "amount",
          "type": "uint256"
        }
      ],
      "name": "approve",
      "outputs": [
        {
          "internalType": "bool",
          "name": "",
          "type": "bool"
        }
      ],
      "stateMutability": "nonpayable",
      "type": "function"
    },
    {
      "inputs": [],
      "name": "asset",
      "outputs": [
        {
          "internalType": "address",
          "name": "",
          "type": "address"
        }
      ],
      "stateMutability": "view",
      "type": "function"
    },
    {
      "inputs": [
        {
          "internalType": "address",
          "name": "account",
          "type": "address"
        }
      ],
      "name": "balanceOf",
      "outputs": [
        {
          "internalType": "uint256",
          "name": "",
          "type": "uint256"
        }
      ],
      "stateMutability": "view",
      "type": "function"
    },
    {
      "inputs": [
        {
          "internalType": "address",
          "name": "account",
          "type": "address"
        }
      ],
      "name": "balanceOfUnderlying",
      "outputs": [
        {
          "internalType": "uint256",
          "name": "",
          "type": "uint256"
        }
      ],
      "stateMutability": "view",
      "type": "function"
    },
    {
      "inputs": [],
      "name": "claimRewards",
      "outputs": [],
      "stateMutability": "nonpayable",
      "type": "function"
    },
    {
      "inputs": [
        {
          "internalType": "uint256",
          "name": "shares",
          "type": "uint256"
        }
      ],
      "name": "convertToAssets",
      "outputs": [
        {
          "internalType": "uint256",
          "name": "assets",
          "type": "uint256"
        }
      ],
      "stateMutability": "view",
      "type": "function"
    },
    {
      "inputs": [
        {
          "internalType": "uint256",
          "name": "assets",
          "type": "uint256"
        }
      ],
      "name": "convertToShares",
      "outputs": [
        {
          "internalType": "uint256",
          "name": "shares",
          "type": "uint256"
        }
      ],
      "stateMutability": "view",
      "type": "function"
    },
    {
      "inputs": [],
      "name": "decimals",
      "outputs": [
        {
          "internalType": "uint8",
          "name": "",
          "type": "uint8"
        }
      ],
      "stateMutability": "view",
      "type": "function"
    },
    {
      "inputs": [
        {
          "internalType": "address",
          "name": "spender",
          "type": "address"
        },
        {
          "internalType": "uint256",
          "name": "subtractedValue",
          "type": "uint256"
        }
      ],
      "name": "decreaseAllowance",
      "outputs": [
        {
          "internalType": "bool",
          "name": "",
          "type": "bool"
        }
      ],
      "stateMutability": "nonpayable",
      "type": "function"
    },
    {
      "inputs": [
        {
          "internalType": "uint256",
          "name": "assets",
          "type": "uint256"
        },
        {
          "internalType": "address",
          "name": "receiver",
          "type": "address"
        }
      ],
      "name": "deposit",
      "outputs": [
        {
          "internalType": "uint256",
          "name": "shares",
          "type": "uint256"
        }
      ],
      "stateMutability": "nonpayable",
      "type": "function"
    },
    {
      "inputs": [],
      "name": "emergencyWithdrawAndPause",
      "outputs": [],
      "stateMutability": "nonpayable",
      "type": "function"
    },
    {
      "inputs": [],
      "name": "feeRecipient",
      "outputs": [
        {
          "internalType": "address",
          "name": "",
          "type": "address"
        }
      ],
      "stateMutability": "view",
      "type": "function"
    },
    {
      "inputs": [],
      "name": "flywheel",
      "outputs": [
        {
          "internalType": "contract MidasFlywheel",
          "name": "",
          "type": "address"
        }
      ],
      "stateMutability": "view",
      "type": "function"
    },
    {
      "inputs": [],
      "name": "gauge",
      "outputs": [
        {
          "internalType": "contract GaugeV2",
          "name": "",
          "type": "address"
        }
      ],
      "stateMutability": "view",
      "type": "function"
    },
    {
      "inputs": [
        {
          "internalType": "address",
          "name": "spender",
          "type": "address"
        },
        {
          "internalType": "uint256",
          "name": "addedValue",
          "type": "uint256"
        }
      ],
      "name": "increaseAllowance",
      "outputs": [
        {
          "internalType": "bool",
          "name": "",
          "type": "bool"
        }
      ],
      "stateMutability": "nonpayable",
      "type": "function"
    },
    {
      "inputs": [
        {
          "internalType": "contract ERC20Upgradeable",
          "name": "_asset",
          "type": "address"
        },
        {
          "internalType": "address",
          "name": "_rewardsDestination",
          "type": "address"
        },
        {
          "internalType": "contract MidasFlywheel",
          "name": "_flywheel",
          "type": "address"
        }
      ],
      "name": "initialize",
      "outputs": [],
      "stateMutability": "nonpayable",
      "type": "function"
    },
    {
      "inputs": [
        {
          "internalType": "address",
          "name": "",
          "type": "address"
        }
      ],
      "name": "maxDeposit",
      "outputs": [
        {
          "internalType": "uint256",
          "name": "",
          "type": "uint256"
        }
      ],
      "stateMutability": "view",
      "type": "function"
    },
    {
      "inputs": [
        {
          "internalType": "address",
          "name": "",
          "type": "address"
        }
      ],
      "name": "maxMint",
      "outputs": [
        {
          "internalType": "uint256",
          "name": "",
          "type": "uint256"
        }
      ],
      "stateMutability": "view",
      "type": "function"
    },
    {
      "inputs": [
        {
          "internalType": "address",
          "name": "owner",
          "type": "address"
        }
      ],
      "name": "maxRedeem",
      "outputs": [
        {
          "internalType": "uint256",
          "name": "",
          "type": "uint256"
        }
      ],
      "stateMutability": "view",
      "type": "function"
    },
    {
      "inputs": [
        {
          "internalType": "address",
          "name": "owner",
          "type": "address"
        }
      ],
      "name": "maxWithdraw",
      "outputs": [
        {
          "internalType": "uint256",
          "name": "",
          "type": "uint256"
        }
      ],
      "stateMutability": "view",
      "type": "function"
    },
    {
      "inputs": [
        {
          "internalType": "uint256",
          "name": "shares",
          "type": "uint256"
        },
        {
          "internalType": "address",
          "name": "receiver",
          "type": "address"
        }
      ],
      "name": "mint",
      "outputs": [
        {
          "internalType": "uint256",
          "name": "assets",
          "type": "uint256"
        }
      ],
      "stateMutability": "nonpayable",
      "type": "function"
    },
    {
      "inputs": [],
      "name": "name",
      "outputs": [
        {
          "internalType": "string",
          "name": "",
          "type": "string"
        }
      ],
      "stateMutability": "view",
      "type": "function"
    },
    {
      "inputs": [],
      "name": "owner",
      "outputs": [
        {
          "internalType": "address",
          "name": "",
          "type": "address"
        }
      ],
      "stateMutability": "view",
      "type": "function"
    },
    {
      "inputs": [],
      "name": "paused",
      "outputs": [
        {
          "internalType": "bool",
          "name": "",
          "type": "bool"
        }
      ],
      "stateMutability": "view",
      "type": "function"
    },
    {
      "inputs": [],
      "name": "pendingOwner",
      "outputs": [
        {
          "internalType": "address",
          "name": "",
          "type": "address"
        }
      ],
      "stateMutability": "view",
      "type": "function"
    },
    {
      "inputs": [],
      "name": "performanceFee",
      "outputs": [
        {
          "internalType": "uint256",
          "name": "",
          "type": "uint256"
        }
      ],
      "stateMutability": "view",
      "type": "function"
    },
    {
      "inputs": [
        {
          "internalType": "uint256",
          "name": "assets",
          "type": "uint256"
        }
      ],
      "name": "previewDeposit",
      "outputs": [
        {
          "internalType": "uint256",
          "name": "",
          "type": "uint256"
        }
      ],
      "stateMutability": "view",
      "type": "function"
    },
    {
      "inputs": [
        {
          "internalType": "uint256",
          "name": "shares",
          "type": "uint256"
        }
      ],
      "name": "previewMint",
      "outputs": [
        {
          "internalType": "uint256",
          "name": "",
          "type": "uint256"
        }
      ],
      "stateMutability": "view",
      "type": "function"
    },
    {
      "inputs": [
        {
          "internalType": "uint256",
          "name": "shares",
          "type": "uint256"
        }
      ],
      "name": "previewRedeem",
      "outputs": [
        {
          "internalType": "uint256",
          "name": "",
          "type": "uint256"
        }
      ],
      "stateMutability": "view",
      "type": "function"
    },
    {
      "inputs": [
        {
          "internalType": "uint256",
          "name": "assets",
          "type": "uint256"
        }
      ],
      "name": "previewWithdraw",
      "outputs": [
        {
          "internalType": "uint256",
          "name": "",
          "type": "uint256"
        }
      ],
      "stateMutability": "view",
      "type": "function"
    },
    {
      "inputs": [
        {
          "internalType": "uint256",
          "name": "shares",
          "type": "uint256"
        },
        {
          "internalType": "address",
          "name": "receiver",
          "type": "address"
        },
        {
          "internalType": "address",
          "name": "owner",
          "type": "address"
        }
      ],
      "name": "redeem",
      "outputs": [
        {
          "internalType": "uint256",
          "name": "assets",
          "type": "uint256"
        }
      ],
      "stateMutability": "nonpayable",
      "type": "function"
    },
    {
      "inputs": [],
      "name": "renounceOwnership",
      "outputs": [],
      "stateMutability": "nonpayable",
      "type": "function"
    },
    {
      "inputs": [],
      "name": "rewardDestination",
      "outputs": [
        {
          "internalType": "address",
          "name": "",
          "type": "address"
        }
      ],
      "stateMutability": "view",
      "type": "function"
    },
    {
      "inputs": [
        {
          "internalType": "uint256",
          "name": "",
          "type": "uint256"
        }
      ],
      "name": "rewardTokens",
      "outputs": [
        {
          "internalType": "contract ERC20Upgradeable",
          "name": "",
          "type": "address"
        }
      ],
      "stateMutability": "view",
      "type": "function"
    },
    {
      "inputs": [
        {
          "internalType": "address",
          "name": "newDestination",
          "type": "address"
        }
      ],
      "name": "setRewardDestination",
      "outputs": [],
      "stateMutability": "nonpayable",
      "type": "function"
    },
    {
      "inputs": [
        {
          "internalType": "address",
          "name": "market",
          "type": "address"
        }
      ],
      "name": "shutdown",
      "outputs": [
        {
          "internalType": "uint256",
          "name": "",
          "type": "uint256"
        }
      ],
      "stateMutability": "nonpayable",
      "type": "function"
    },
    {
      "inputs": [],
      "name": "symbol",
      "outputs": [
        {
          "internalType": "string",
          "name": "",
          "type": "string"
        }
      ],
      "stateMutability": "view",
      "type": "function"
    },
    {
      "inputs": [],
      "name": "takePerformanceFee",
      "outputs": [],
      "stateMutability": "nonpayable",
      "type": "function"
    },
    {
      "inputs": [],
      "name": "totalAssets",
      "outputs": [
        {
          "internalType": "uint256",
          "name": "",
          "type": "uint256"
        }
      ],
      "stateMutability": "view",
      "type": "function"
    },
    {
      "inputs": [],
      "name": "totalSupply",
      "outputs": [
        {
          "internalType": "uint256",
          "name": "",
          "type": "uint256"
        }
      ],
      "stateMutability": "view",
      "type": "function"
    },
    {
      "inputs": [
        {
          "internalType": "address",
          "name": "to",
          "type": "address"
        },
        {
          "internalType": "uint256",
          "name": "amount",
          "type": "uint256"
        }
      ],
      "name": "transfer",
      "outputs": [
        {
          "internalType": "bool",
          "name": "",
          "type": "bool"
        }
      ],
      "stateMutability": "nonpayable",
      "type": "function"
    },
    {
      "inputs": [
        {
          "internalType": "address",
          "name": "from",
          "type": "address"
        },
        {
          "internalType": "address",
          "name": "to",
          "type": "address"
        },
        {
          "internalType": "uint256",
          "name": "amount",
          "type": "uint256"
        }
      ],
      "name": "transferFrom",
      "outputs": [
        {
          "internalType": "bool",
          "name": "",
          "type": "bool"
        }
      ],
      "stateMutability": "nonpayable",
      "type": "function"
    },
    {
      "inputs": [
        {
          "internalType": "address",
          "name": "newOwner",
          "type": "address"
        }
      ],
      "name": "transferOwnership",
      "outputs": [],
      "stateMutability": "nonpayable",
      "type": "function"
    },
    {
      "inputs": [],
      "name": "unpause",
      "outputs": [],
      "stateMutability": "nonpayable",
      "type": "function"
    },
    {
      "inputs": [
        {
          "internalType": "uint256",
          "name": "newPerformanceFee",
          "type": "uint256"
        },
        {
          "internalType": "address",
          "name": "newFeeRecipient",
          "type": "address"
        }
      ],
      "name": "updateFeeSettings",
      "outputs": [],
      "stateMutability": "nonpayable",
      "type": "function"
    },
    {
      "inputs": [],
      "name": "vaultShareHWM",
      "outputs": [
        {
          "internalType": "uint256",
          "name": "",
          "type": "uint256"
        }
      ],
      "stateMutability": "view",
      "type": "function"
    },
    {
      "inputs": [
        {
          "internalType": "uint256",
          "name": "assets",
          "type": "uint256"
        },
        {
          "internalType": "address",
          "name": "receiver",
          "type": "address"
        },
        {
          "internalType": "address",
          "name": "owner",
          "type": "address"
        }
      ],
      "name": "withdraw",
      "outputs": [
        {
          "internalType": "uint256",
          "name": "shares",
          "type": "uint256"
        }
      ],
      "stateMutability": "nonpayable",
      "type": "function"
    },
    {
      "inputs": [],
      "name": "withdrawAccruedFees",
      "outputs": [],
      "stateMutability": "nonpayable",
      "type": "function"
    }
  ],
  "transactionHash": "0x694114894c61a5932233e9ccc33aa8d67e5e7f12d00d0bf7393477d86319f733",
  "args": [],
  "numDeployments": 2,
  "bytecode": {
    "object": "0x60806040523480156200001157600080fd5b506200001c62000022565b620000e4565b600054610100900460ff16156200008f5760405162461bcd60e51b815260206004820152602760248201527f496e697469616c697a61626c653a20636f6e747261637420697320696e697469604482015266616c697a696e6760c81b606482015260840160405180910390fd5b60005460ff9081161015620000e2576000805460ff191660ff9081179091556040519081527f7f26b83ff96e1f2b6a682f133852f6798a09c465da95921460cefb38474024989060200160405180910390a15b565b61353380620000f46000396000f3fe608060405234801561001057600080fd5b506004361061030c5760003560e01c80637bb7bed11161019d578063c0c53b8b116100e9578063dc0c8d26116100a2578063ef8b30f71161007c578063ef8b30f7146105ee578063f2fde38b1461067b578063fc4d33f91461068e578063fda45d861461069657600080fd5b8063dc0c8d261461063a578063dd62ed3e14610655578063e30c39781461066857600080fd5b8063c0c53b8b146105c6578063c63d75b6146105d9578063c6e6f592146105ee578063cce2f3fb14610601578063ce96cb7714610614578063d905777e1461062757600080fd5b8063a457c2d711610156578063ada82c7d11610130578063ada82c7d14610585578063b3d7f6b91461058d578063b460af94146105a0578063ba087652146105b357600080fd5b8063a457c2d71461054b578063a6f19c841461055e578063a9059cbb1461057257600080fd5b80637bb7bed1146104f05780638457d0671461050357806387788782146105165780638da5cb5b1461051f57806394bf804d1461053057806395d89b411461054357600080fd5b8063395093511161025c57806356f89ef9116102155780636e96dfd7116101ef5780636e96dfd71461049857806370a08231146104ab578063715018a6146104d45780637acf5b92146104dc57600080fd5b806356f89ef91461046b5780635c975abb146104735780636e553f651461048557600080fd5b806339509351146104175780633af9e6691461042a5780633f4ba83a1461043d578063402d267d1461044557806346904840146104585780634cdad5061461034157600080fd5b806318160ddd116102c957806328357978116102a357806328357978146103c3578063313ce567146103cb578063372500ab146103ea57806338d52e0f146103f257600080fd5b806318160ddd1461039f578063211493c9146103a757806323b872dd146103b057600080fd5b806301e1d1141461031157806306fdde031461032c57806307a2d13a14610341578063095ea7b3146103545780630a28a4771461037757806310509aa91461038a575b600080fd5b6103196106a9565b6040519081526020015b60405180910390f35b610334610767565b6040516103239190612f58565b61031961034f366004612f8b565b6107f9565b610367610362366004612fb9565b61080c565b6040519015158152602001610323565b610319610385366004612f8b565b610824565b61039d610398366004612fe5565b610831565b005b609954610319565b61031960fb5481565b6103676103be366004613015565b610957565b61039d61097d565b60c954600160a01b900460ff1660405160ff9091168152602001610323565b61039d6109f8565b60c9546001600160a01b03165b6040516001600160a01b039091168152602001610323565b610367610425366004612fb9565b610b13565b610319610438366004613056565b610b35565b61039d610b57565b610319610453366004613056565b610bd2565b60fd546103ff906001600160a01b031681565b61039d610bf0565b606554600160a01b900460ff16610367565b610319610493366004612fe5565b610dbe565b61039d6104a6366004613056565b610e87565b6103196104b9366004613056565b6001600160a01b031660009081526097602052604090205490565b61039d610ef1565b610100546103ff906001600160a01b031681565b6103ff6104fe366004612f8b565b610f34565b61039d610511366004613056565b610f5e565b61031960fc5481565b6033546001600160a01b03166103ff565b61031961053e366004612fe5565b610ff1565b61033461106e565b610367610559366004612fb9565b61107d565b610101546103ff906001600160a01b031681565b610367610580366004612fb9565b611103565b61039d611111565b61031961059b366004612f8b565b611141565b6103196105ae366004613073565b61114e565b6103196105c1366004613073565b611317565b61039d6105d43660046130b5565b61150b565b6103196105e7366004613056565b5060001990565b6103196105fc366004612f8b565b611927565b61031961060f366004613056565b611934565b610319610622366004613056565b611a3d565b610319610635366004613056565b611a61565b6103ff733a1d0952809f4948d15ebce8d345962a282c4fcb81565b6103196106633660046130e5565b611a7f565b6065546103ff906001600160a01b031681565b61039d610689366004613056565b611aaa565b61039d611b1b565b60fe546103ff906001600160a01b031681565b606554600090600160a01b900460ff1615610736576106c6611c2f565b6040516370a0823160e01b81523060048201526001600160a01b0391909116906370a08231906024015b602060405180830381865afa15801561070d573d6000803e3d6000fd5b505050506040513d601f19601f820116820180604052508101906107319190613113565b905090565b610101546040516370a0823160e01b81523060048201526001600160a01b03909116906370a08231906024016106f0565b6060609a80546107769061312c565b80601f01602080910402602001604051908101604052809291908181526020018280546107a29061312c565b80156107ef5780601f106107c4576101008083540402835291602001916107ef565b820191906000526020600020905b8154815290600101906020018083116107d257829003601f168201915b5050505050905090565b6000610806826000611c43565b92915050565b60003361081a818585611c7a565b5060019392505050565b6000610806826001611d9f565b610839611dd1565b60fc5460fd5460408051928352602083018590526001600160a01b0391821690830152821660608201527fb3b62da5184b9e7e2f5d280014bb485d4444b66738025e5fb5738bbddcb6b8489060800160405180910390a160fc82905560fd546001600160a01b038281169116146109345760fd546001600160a01b0316156109165760fd546001600160a01b0316600081815260976020526040902054906108e19082611e2b565b60fd5461090a906001600160a01b03166109036033546001600160a01b031690565b6000611c7a565b6109148282611f5c565b505b6109348161092c6033546001600160a01b031690565b600019611c7a565b60fd80546001600160a01b0319166001600160a01b039290921691909117905550565b60003361096585828561201d565b610970858585612091565b60019150505b9392505050565b610985611dd1565b61010160009054906101000a90046001600160a01b03166001600160a01b031663853828b66040518163ffffffff1660e01b8152600401600060405180830381600087803b1580156109d657600080fd5b505af11580156109ea573d6000803e3d6000fd5b505050506109f661223c565b565b610a0061229c565b60ff5460005b81811015610b0f57600060ff8281548110610a2357610a23613167565b60009182526020822001546040516370a0823160e01b81523060048201526001600160a01b03909116925082906370a0823190602401602060405180830381865afa158015610a76573d6000803e3d6000fd5b505050506040513d601f19601f82011682018060405250810190610a9a9190613113565b60fe54909150610ab7906001600160a01b038481169116836122ed565b816001600160a01b03167f1f89f96333d3133000ee447473151fa9606543368f02271c9d95ae14f13bcc6782604051610af291815260200190565b60405180910390a250508080610b0790613193565b915050610a06565b5050565b60003361081a818585610b268383611a7f565b610b3091906131ae565b611c7a565b6001600160a01b038116600090815260976020526040812054610806906107f9565b610b5f611dd1565b610b67612350565b61010160009054906101000a90046001600160a01b03166001600160a01b031663de5f62686040518163ffffffff1660e01b8152600401600060405180830381600087803b158015610bb857600080fd5b505af1158015610bcc573d6000803e3d6000fd5b50505050565b6000610bdc61238c565b610be7576000610806565b60001992915050565b610bf8611dd1565b60fd546001600160a01b0316610c555760405162461bcd60e51b815260206004820152601d60248201527f66656520726563697069656e74206e6f7420696e697469616c697a656400000060448201526064015b60405180910390fd5b6000610c5f6106a9565b90506000610cda610c6e611c2f565b6001600160a01b031663313ce5676040518163ffffffff1660e01b8152600401602060405180830381865afa158015610cab573d6000803e3d6000fd5b505050506040513d601f19601f82011682018060405250810190610ccf91906131c6565b61034f90600a6132cd565b905060fb548111610d2d5760405162461bcd60e51b815260206004820152601b60248201527f736861726556616c756520213e207661756c74536861726548574d00000000006044820152606401610c4c565b6000610d3860995490565b905060006ec097ce7bc90715b34b9f10000000008260fb5485610d5b91906132dc565b60fc54610d6891906132f3565b610d7291906132f3565b610d7c9190613328565b60fd54909150610daa906001600160a01b0316610da584610d9d85896132dc565b8591906123a6565b611f5c565b610db5610c6e611c2f565b60fb5550505050565b6000610dc86123c5565b610dd183611927565b905080610e0e5760405162461bcd60e51b815260206004820152600b60248201526a5a45524f5f53484152455360a81b6044820152606401610c4c565b610e2d333085610e1c611c2f565b6001600160a01b0316929190612412565b610e378282611f5c565b60408051848152602081018390526001600160a01b0384169133917fdcbc1c05240f31ff3ad067ef1ee35ce4997762752e3a095284754544f4c709d7910160405180910390a3610806838261244a565b610e8f611dd1565b606580546001600160a01b038381166001600160a01b031983168117909355604080519190921680825260208201939093527fb3d55174552271a4f1aaf36b72f50381e892171636b3fb5447fe00e995e7a37b91015b60405180910390a15050565b610ef9611dd1565b60405162461bcd60e51b815260206004820152601060248201526f6e6f74207573656420616e796d6f726560801b6044820152606401610c4c565b60ff8181548110610f4457600080fd5b6000918252602090912001546001600160a01b0316905081565b60fe546001600160a01b03163314610fa75760405162461bcd60e51b815260206004820152600c60248201526b15539055551213d49256915160a21b6044820152606401610c4c565b60fe80546001600160a01b0319166001600160a01b0383169081179091556040517fb7e97ad603f12568684fc43c82127d953e94f3954cf36344cbbfa34d67b0b0cf90600090a250565b6000610ffb6123c5565b61100483611141565b9050611014333083610e1c611c2f565b61101e8284611f5c565b60408051828152602081018590526001600160a01b0384169133917fdcbc1c05240f31ff3ad067ef1ee35ce4997762752e3a095284754544f4c709d7910160405180910390a3610806818461244a565b6060609b80546107769061312c565b6000338161108b8286611a7f565b9050838110156110eb5760405162461bcd60e51b815260206004820152602560248201527f45524332303a2064656372656173656420616c6c6f77616e63652062656c6f77604482015264207a65726f60d81b6064820152608401610c4c565b6110f88286868403611c7a565b506001949350505050565b60003361081a818585612091565b611119611dd1565b60fd546001600160a01b031660008181526097602052604090205461113e9180611317565b50565b6000610806826001611c43565b600061115984610824565b9050336001600160a01b038316146111935760006111778333611a7f565b90506000198114611191576111918333610b3085856132dc565b505b606554600160a01b900460ff166112a55760006111ae611c2f565b6040516370a0823160e01b81523060048201526001600160a01b0391909116906370a0823190602401602060405180830381865afa1580156111f4573d6000803e3d6000fd5b505050506040513d601f19601f820116820180604052508101906112189190613113565b905061122485836124ae565b8061122d611c2f565b6040516370a0823160e01b81523060048201526001600160a01b0391909116906370a0823190602401602060405180830381865afa158015611273573d6000803e3d6000fd5b505050506040513d601f19601f820116820180604052508101906112979190613113565b6112a191906132dc565b9450505b6112af8282611e2b565b60408051858152602081018390526001600160a01b03808516929086169133917ffbde797d201c681b91056529119e0b02407c7bb96a4a2c75c01fc9667232c8db910160405180910390a46109768385611307611c2f565b6001600160a01b031691906122ed565b6000336001600160a01b038316146113515760006113358333611a7f565b9050600019811461134f5761134f8333610b3088856132dc565b505b61135a846107f9565b9050806113975760405162461bcd60e51b815260206004820152600b60248201526a5a45524f5f41535345545360a81b6044820152606401610c4c565b606554600160a01b900460ff166114a95760006113b2611c2f565b6040516370a0823160e01b81523060048201526001600160a01b0391909116906370a0823190602401602060405180830381865afa1580156113f8573d6000803e3d6000fd5b505050506040513d601f19601f8201168201806040525081019061141c9190613113565b905061142882866124ae565b80611431611c2f565b6040516370a0823160e01b81523060048201526001600160a01b0391909116906370a0823190602401602060405180830381865afa158015611477573d6000803e3d6000fd5b505050506040513d601f19601f8201168201806040525081019061149b9190613113565b6114a591906132dc565b9150505b6114b38285611e2b565b60408051828152602081018690526001600160a01b03808516929086169133917ffbde797d201c681b91056529119e0b02407c7bb96a4a2c75c01fc9667232c8db910160405180910390a46109768382611307611c2f565b600054610100900460ff161580801561152b5750600054600160ff909116105b806115455750303b158015611545575060005460ff166001145b6115a85760405162461bcd60e51b815260206004820152602e60248201527f496e697469616c697a61626c653a20636f6e747261637420697320616c72656160448201526d191e481a5b9a5d1a585b1a5e995960921b6064820152608401610c4c565b6000805460ff1916600117905580156115cb576000805461ff0019166101001790555b6115d4846124e0565b60405163b9a09fd560e01b81526001600160a01b0385166004820152733a1d0952809f4948d15ebce8d345962a282c4fcb9063b9a09fd590602401602060405180830381865afa15801561162c573d6000803e3d6000fd5b505050506040513d601f19601f82011682018060405250810190611650919061334a565b61010180546001600160a01b0319166001600160a01b039290921691909117905560408051600180825281830190925260009160208083019080368337019050509050600061010160009054906101000a90046001600160a01b03166001600160a01b031663f7c618c16040518163ffffffff1660e01b8152600401602060405180830381865afa1580156116e9573d6000803e3d6000fd5b505050506040513d601f19601f8201168201806040525081019061170d919061334a565b9050808260008151811061172357611723613167565b60200260200101906001600160a01b031690816001600160a01b03168152505061174d85836126ae565b61010080546001600160a01b0319166001600160a01b03868116919091179091556101015460405163095ea7b360e01b8152908216600482015260001960248201529087169063095ea7b3906044016020604051808303816000875af11580156117bb573d6000803e3d6000fd5b505050506040513d601f19601f820116820180604052508101906117df919061337d565b50806001600160a01b031663095ea7b361010060009054906101000a90046001600160a01b03166001600160a01b031663f046ee5c6040518163ffffffff1660e01b8152600401602060405180830381865afa158015611843573d6000803e3d6000fd5b505050506040513d601f19601f82011682018060405250810190611867919061334a565b6040516001600160e01b031960e084901b1681526001600160a01b03909116600482015260001960248201526044016020604051808303816000875af11580156118b5573d6000803e3d6000fd5b505050506040513d601f19601f820116820180604052508101906118d9919061337d565b5050508015610bcc576000805461ff0019169055604051600181527f7f26b83ff96e1f2b6a682f133852f6798a09c465da95921460cefb38474024989060200160405180910390a150505050565b6000610806826000611d9f565b600061193e611dd1565b611946612703565b6000611950611c2f565b6040516370a0823160e01b81523060048201529091506000906001600160a01b038316906370a0823190602401602060405180830381865afa15801561199a573d6000803e3d6000fd5b505050506040513d601f19601f820116820180604052508101906119be9190613113565b60405163a9059cbb60e01b81526001600160a01b038681166004830152602482018390529192509083169063a9059cbb906044016020604051808303816000875af1158015611a11573d6000803e3d6000fd5b505050506040513d601f19601f82011682018060405250810190611a35919061337d565b509392505050565b6001600160a01b038116600090815260976020526040812054610806906000611c43565b6001600160a01b038116600090815260976020526040812054610806565b6001600160a01b03918216600090815260986020908152604080832093909416825291909152205490565b611ab2611dd1565b606554604080516001600160a01b03928316815291831660208301527fb3d55174552271a4f1aaf36b72f50381e892171636b3fb5447fe00e995e7a37b910160405180910390a1606580546001600160a01b0319166001600160a01b0392909216919091179055565b6065546001600160a01b03163314611b6d5760405162461bcd60e51b81526020600482015260156024820152743737ba103a3432903832b73234b7339037bbb732b960591b6044820152606401610c4c565b6000611b816033546001600160a01b031690565b6065549091506001600160a01b0316611b9981612753565b606580546001600160a01b0319169055604080516001600160a01b0384168152600060208201527f70aea8d848e8a90fb7661b227dc522eb6395c3dac71b63cb59edd5c9899b2364910160405180910390a1606554604080516001600160a01b03808516825290921660208301527fb3d55174552271a4f1aaf36b72f50381e892171636b3fb5447fe00e995e7a37b9101610ee5565b600061073160c9546001600160a01b031690565b600080611c4f60995490565b90508015611c7057611c6b611c626106a9565b859083866127a5565b611c72565b835b949350505050565b6001600160a01b038316611cdc5760405162461bcd60e51b8152602060048201526024808201527f45524332303a20617070726f76652066726f6d20746865207a65726f206164646044820152637265737360e01b6064820152608401610c4c565b6001600160a01b038216611d3d5760405162461bcd60e51b815260206004820152602260248201527f45524332303a20617070726f766520746f20746865207a65726f206164647265604482015261737360f01b6064820152608401610c4c565b6001600160a01b0383811660008181526098602090815260408083209487168084529482529182902085905590518481527f8c5be1e5ebec7d5bd14f71427d1e84f3dd0314c0f7b2291e5b200ac8c7c3b92591015b60405180910390a3505050565b600080611dab60995490565b9050831580611db8575080155b611c7057611c6b81611dc86106a9565b869190866127a5565b6033546001600160a01b031633146109f65760405162461bcd60e51b815260206004820181905260248201527f4f776e61626c653a2063616c6c6572206973206e6f7420746865206f776e65726044820152606401610c4c565b6001600160a01b038216611e8b5760405162461bcd60e51b815260206004820152602160248201527f45524332303a206275726e2066726f6d20746865207a65726f206164647265736044820152607360f81b6064820152608401610c4c565b6001600160a01b03821660009081526097602052604090205481811015611eff5760405162461bcd60e51b815260206004820152602260248201527f45524332303a206275726e20616d6f756e7420657863656564732062616c616e604482015261636560f01b6064820152608401610c4c565b6001600160a01b03831660008181526097602090815260408083208686039055609980548790039055518581529192917fddf252ad1be2c89b69c2b068fc378daa952ba7f163c4a11628f55a4df523b3ef9101611d92565b505050565b6001600160a01b038216611fb25760405162461bcd60e51b815260206004820152601f60248201527f45524332303a206d696e7420746f20746865207a65726f2061646472657373006044820152606401610c4c565b8060996000828254611fc491906131ae565b90915550506001600160a01b0382166000818152609760209081526040808320805486019055518481527fddf252ad1be2c89b69c2b068fc378daa952ba7f163c4a11628f55a4df523b3ef910160405180910390a35050565b60006120298484611a7f565b90506000198114610bcc57818110156120845760405162461bcd60e51b815260206004820152601d60248201527f45524332303a20696e73756666696369656e7420616c6c6f77616e63650000006044820152606401610c4c565b610bcc8484848403611c7a565b6001600160a01b0383166120f55760405162461bcd60e51b815260206004820152602560248201527f45524332303a207472616e736665722066726f6d20746865207a65726f206164604482015264647265737360d81b6064820152608401610c4c565b6001600160a01b0382166121575760405162461bcd60e51b815260206004820152602360248201527f45524332303a207472616e7366657220746f20746865207a65726f206164647260448201526265737360e81b6064820152608401610c4c565b6001600160a01b038316600090815260976020526040902054818110156121cf5760405162461bcd60e51b815260206004820152602660248201527f45524332303a207472616e7366657220616d6f756e7420657863656564732062604482015265616c616e636560d01b6064820152608401610c4c565b6001600160a01b0380851660008181526097602052604080822086860390559286168082529083902080548601905591517fddf252ad1be2c89b69c2b068fc378daa952ba7f163c4a11628f55a4df523b3ef9061222f9086815260200190565b60405180910390a3610bcc565b6122446123c5565b6065805460ff60a01b1916600160a01b1790557f62e78cea01bee320cd4e420270b5ea74000d11b0c9f74754ebdbfc544b05a25861227f3390565b6040516001600160a01b03909116815260200160405180910390a1565b61010160009054906101000a90046001600160a01b03166001600160a01b0316633d18b9126040518163ffffffff1660e01b8152600401600060405180830381600087803b158015610bb857600080fd5b6040516001600160a01b038316602482015260448101829052611f5790849063a9059cbb60e01b906064015b60408051601f198184030181529190526020810180516001600160e01b03166001600160e01b031990931692909217909152612802565b612358612703565b6065805460ff60a01b191690557f5db9ee0a495bf2e6ff9c91a7834c1ba4fdd244a5e8aa4e537bd38aeae4b073aa3361227f565b6000806123976106a9565b11806107315750506099541590565b8282028115158415858304851417166123be57600080fd5b0492915050565b606554600160a01b900460ff16156109f65760405162461bcd60e51b815260206004820152601060248201526f14185d5cd8589b194e881c185d5cd95960821b6044820152606401610c4c565b6040516001600160a01b0380851660248301528316604482015260648101829052610bcc9085906323b872dd60e01b90608401612319565b6101015460405163b6b55f2560e01b8152600481018490526001600160a01b039091169063b6b55f25906024015b600060405180830381600087803b15801561249257600080fd5b505af11580156124a6573d6000803e3d6000fd5b505050505050565b61010154604051632e1a7d4d60e01b8152600481018490526001600160a01b0390911690632e1a7d4d90602401612478565b600054610100900460ff166125075760405162461bcd60e51b8152600401610c4c9061339f565b612510336128d4565b61251861290c565b61252061293b565b612632816001600160a01b03166306fdde036040518163ffffffff1660e01b8152600401600060405180830381865afa158015612561573d6000803e3d6000fd5b505050506040513d6000823e601f3d908101601f1916820160405261258991908101906133ea565b604051602001612599919061348c565b604051602081830303815290604052826001600160a01b03166395d89b416040518163ffffffff1660e01b8152600401600060405180830381865afa1580156125e6573d6000803e3d6000fd5b505050506040513d6000823e601f3d908101601f1916820160405261260e91908101906133ea565b60405160200161261e91906134ca565b604051602081830303815290604052612962565b61263b81612993565b806001600160a01b031663313ce5676040518163ffffffff1660e01b8152600401602060405180830381865afa158015612679573d6000803e3d6000fd5b505050506040513d601f19601f8201168201806040525081019061269d91906131c6565b6126a890600a6132cd565b60fb5550565b600054610100900460ff166126d55760405162461bcd60e51b8152600401610c4c9061339f565b60fe80546001600160a01b0319166001600160a01b0384161790558051611f579060ff906020840190612e3e565b606554600160a01b900460ff166109f65760405162461bcd60e51b815260206004820152601460248201527314185d5cd8589b194e881b9bdd081c185d5cd95960621b6044820152606401610c4c565b603380546001600160a01b038381166001600160a01b0319831681179093556040519116919082907f8be0079c531659141344cd1fd0a4f28419497f9722a3daafe3b4186f6b6457e090600090a35050565b6000806127b38686866129c3565b905060018360028111156127c9576127c96134f4565b1480156127e65750600084806127e1576127e1613312565b868809115b156127f9576127f66001826131ae565b90505b95945050505050565b6000612857826040518060400160405280602081526020017f5361666545524332303a206c6f772d6c6576656c2063616c6c206661696c6564815250856001600160a01b0316612a739092919063ffffffff16565b805190915015611f575780806020019051810190612875919061337d565b611f575760405162461bcd60e51b815260206004820152602a60248201527f5361666545524332303a204552433230206f7065726174696f6e20646964206e6044820152691bdd081cdd58d8d9595960b21b6064820152608401610c4c565b600054610100900460ff166128fb5760405162461bcd60e51b8152600401610c4c9061339f565b612903612a82565b61113e81612753565b600054610100900460ff166129335760405162461bcd60e51b8152600401610c4c9061339f565b6109f6612ab1565b600054610100900460ff166109f65760405162461bcd60e51b8152600401610c4c9061339f565b600054610100900460ff166129895760405162461bcd60e51b8152600401610c4c9061339f565b610b0f8282612ae7565b600054610100900460ff166129ba5760405162461bcd60e51b8152600401610c4c9061339f565b61113e81612b35565b6000808060001985870985870292508281108382030391505080600014156129fe578382816129f4576129f4613312565b0492505050610976565b808411612a0a57600080fd5b60008486880960026001871981018816978890046003810283188082028403028082028403028082028403028082028403028082028403029081029092039091026000889003889004909101858311909403939093029303949094049190911702949350505050565b6060611c728484600085612bba565b600054610100900460ff16612aa95760405162461bcd60e51b8152600401610c4c9061339f565b6109f6612c95565b600054610100900460ff16612ad85760405162461bcd60e51b8152600401610c4c9061339f565b6065805460ff60a01b19169055565b600054610100900460ff16612b0e5760405162461bcd60e51b8152600401610c4c9061339f565b8151612b2190609a906020850190612ea3565b508051611f5790609b906020840190612ea3565b600054610100900460ff16612b5c5760405162461bcd60e51b8152600401610c4c9061339f565b600080612b6883612cc5565b9150915081612b78576012612b7a565b805b60c980546001600160a01b039095166001600160a01b031960ff93909316600160a01b02929092166001600160a81b031990951694909417179092555050565b606082471015612c1b5760405162461bcd60e51b815260206004820152602660248201527f416464726573733a20696e73756666696369656e742062616c616e636520666f6044820152651c8818d85b1b60d21b6064820152608401610c4c565b600080866001600160a01b03168587604051612c37919061350a565b60006040518083038185875af1925050503d8060008114612c74576040519150601f19603f3d011682016040523d82523d6000602084013e612c79565b606091505b5091509150612c8a87838387612da3565b979650505050505050565b600054610100900460ff16612cbc5760405162461bcd60e51b8152600401610c4c9061339f565b6109f633612753565b60408051600481526024810182526020810180516001600160e01b031663313ce56760e01b17905290516000918291829182916001600160a01b03871691612d0c9161350a565b6000604051808303816000865af19150503d8060008114612d49576040519150601f19603f3d011682016040523d82523d6000602084013e612d4e565b606091505b5091509150818015612d6257506020815110155b15612d9657600081806020019051810190612d7d9190613113565b905060ff8111612d94576001969095509350505050565b505b5060009485945092505050565b60608315612e0f578251612e08576001600160a01b0385163b612e085760405162461bcd60e51b815260206004820152601d60248201527f416464726573733a2063616c6c20746f206e6f6e2d636f6e74726163740000006044820152606401610c4c565b5081611c72565b611c728383815115612e245781518083602001fd5b8060405162461bcd60e51b8152600401610c4c9190612f58565b828054828255906000526020600020908101928215612e93579160200282015b82811115612e9357825182546001600160a01b0319166001600160a01b03909116178255602090920191600190910190612e5e565b50612e9f929150612f17565b5090565b828054612eaf9061312c565b90600052602060002090601f016020900481019282612ed15760008555612e93565b82601f10612eea57805160ff1916838001178555612e93565b82800160010185558215612e93579182015b82811115612e93578251825591602001919060010190612efc565b5b80821115612e9f5760008155600101612f18565b60005b83811015612f47578181015183820152602001612f2f565b83811115610bcc5750506000910152565b6020815260008251806020840152612f77816040850160208701612f2c565b601f01601f19169190910160400192915050565b600060208284031215612f9d57600080fd5b5035919050565b6001600160a01b038116811461113e57600080fd5b60008060408385031215612fcc57600080fd5b8235612fd781612fa4565b946020939093013593505050565b60008060408385031215612ff857600080fd5b82359150602083013561300a81612fa4565b809150509250929050565b60008060006060848603121561302a57600080fd5b833561303581612fa4565b9250602084013561304581612fa4565b929592945050506040919091013590565b60006020828403121561306857600080fd5b813561097681612fa4565b60008060006060848603121561308857600080fd5b83359250602084013561309a81612fa4565b915060408401356130aa81612fa4565b809150509250925092565b6000806000606084860312156130ca57600080fd5b83356130d581612fa4565b9250602084013561309a81612fa4565b600080604083850312156130f857600080fd5b823561310381612fa4565b9150602083013561300a81612fa4565b60006020828403121561312557600080fd5b5051919050565b600181811c9082168061314057607f821691505b6020821081141561316157634e487b7160e01b600052602260045260246000fd5b50919050565b634e487b7160e01b600052603260045260246000fd5b634e487b7160e01b600052601160045260246000fd5b60006000198214156131a7576131a761317d565b5060010190565b600082198211156131c1576131c161317d565b500190565b6000602082840312156131d857600080fd5b815160ff8116811461097657600080fd5b600181815b8085111561322457816000190482111561320a5761320a61317d565b8085161561321757918102915b93841c93908002906131ee565b509250929050565b60008261323b57506001610806565b8161324857506000610806565b816001811461325e576002811461326857613284565b6001915050610806565b60ff8411156132795761327961317d565b50506001821b610806565b5060208310610133831016604e8410600b84101617156132a7575081810a610806565b6132b183836131e9565b80600019048211156132c5576132c561317d565b029392505050565b600061097660ff84168361322c565b6000828210156132ee576132ee61317d565b500390565b600081600019048311821515161561330d5761330d61317d565b500290565b634e487b7160e01b600052601260045260246000fd5b60008261334557634e487b7160e01b600052601260045260246000fd5b500490565b60006020828403121561335c57600080fd5b815161097681612fa4565b634e487b7160e01b600052604160045260246000fd5b60006020828403121561338f57600080fd5b8151801515811461097657600080fd5b6020808252602b908201527f496e697469616c697a61626c653a20636f6e7472616374206973206e6f74206960408201526a6e697469616c697a696e6760a81b606082015260800190565b6000602082840312156133fc57600080fd5b815167ffffffffffffffff8082111561341457600080fd5b818401915084601f83011261342857600080fd5b81518181111561343a5761343a613367565b604051601f8201601f19908116603f0116810190838211818310171561346257613462613367565b8160405282815287602084870101111561347b57600080fd5b612c8a836020830160208801612f2c565b65026b4b230b9960d51b8152600082516134ad816006850160208701612f2c565b650815985d5b1d60d21b6006939091019283015250600c01919050565b6136bb60f11b8152600082516134e7816002850160208701612f2c565b9190910160020192915050565b634e487b7160e01b600052602160045260246000fd5b6000825161351c818460208701612f2c565b919091019291505056fea164736f6c634300080a000a",
    "linkReferences": {}
  },
  "methodIdentifiers": {
    "GAUGES_FACTORY_VOTER()": "dc0c8d26",
    "_acceptOwner()": "fc4d33f9",
    "_setPendingOwner(address)": "6e96dfd7",
    "allowance(address,address)": "dd62ed3e",
    "approve(address,uint256)": "095ea7b3",
    "asset()": "38d52e0f",
    "balanceOf(address)": "70a08231",
    "balanceOfUnderlying(address)": "3af9e669",
    "claimRewards()": "372500ab",
    "convertToAssets(uint256)": "07a2d13a",
    "convertToShares(uint256)": "c6e6f592",
    "decimals()": "313ce567",
    "decreaseAllowance(address,uint256)": "a457c2d7",
    "deposit(uint256,address)": "6e553f65",
    "emergencyWithdrawAndPause()": "28357978",
    "feeRecipient()": "46904840",
    "flywheel()": "7acf5b92",
    "gauge()": "a6f19c84",
    "increaseAllowance(address,uint256)": "39509351",
    "initialize(address,address,address)": "c0c53b8b",
    "maxDeposit(address)": "402d267d",
    "maxMint(address)": "c63d75b6",
    "maxRedeem(address)": "d905777e",
    "maxWithdraw(address)": "ce96cb77",
    "mint(uint256,address)": "94bf804d",
    "name()": "06fdde03",
    "owner()": "8da5cb5b",
    "paused()": "5c975abb",
    "pendingOwner()": "e30c3978",
    "performanceFee()": "87788782",
    "previewDeposit(uint256)": "ef8b30f7",
    "previewMint(uint256)": "b3d7f6b9",
    "previewRedeem(uint256)": "4cdad506",
    "previewWithdraw(uint256)": "0a28a477",
    "redeem(uint256,address,address)": "ba087652",
    "renounceOwnership()": "715018a6",
    "rewardDestination()": "fda45d86",
    "rewardTokens(uint256)": "7bb7bed1",
    "setRewardDestination(address)": "8457d067",
    "shutdown(address)": "cce2f3fb",
    "symbol()": "95d89b41",
    "takePerformanceFee()": "56f89ef9",
    "totalAssets()": "01e1d114",
    "totalSupply()": "18160ddd",
    "transfer(address,uint256)": "a9059cbb",
    "transferFrom(address,address,uint256)": "23b872dd",
    "transferOwnership(address)": "f2fde38b",
    "unpause()": "3f4ba83a",
    "updateFeeSettings(uint256,address)": "10509aa9",
    "vaultShareHWM()": "211493c9",
    "withdraw(uint256,address,address)": "b460af94",
    "withdrawAccruedFees()": "ada82c7d"
  }
}