{
  "address": "0xF0e16261c4820f40eB322dcE5DC1203Ef417D60E",
  "abi": [
    {
      "anonymous": false,
      "inputs": [
        {
          "indexed": false,
          "internalType": "uint8",
          "name": "version",
          "type": "uint8"
        }
      ],
      "name": "Initialized",
      "type": "event"
    },
    {
      "inputs": [],
      "name": "baseToken",
      "outputs": [
        {
          "internalType": "address",
          "name": "",
          "type": "address"
        }
      ],
      "stateMutability": "view",
      "type": "function"
    },
    {
      "inputs": [
        {
          "internalType": "contract ICToken",
          "name": "cToken",
          "type": "address"
        }
      ],
      "name": "getUnderlyingPrice",
      "outputs": [
        {
          "internalType": "uint256",
          "name": "",
          "type": "uint256"
        }
      ],
      "stateMutability": "view",
      "type": "function"
    },
    {
      "inputs": [
        {
          "internalType": "address",
          "name": "_rootOracle",
          "type": "address"
        },
        {
          "internalType": "address",
          "name": "_uniswapV2Factory",
          "type": "address"
        },
        {
          "internalType": "address",
          "name": "_baseToken",
          "type": "address"
        },
        {
          "internalType": "address",
          "name": "_wtoken",
          "type": "address"
        }
      ],
      "name": "initialize",
      "outputs": [],
      "stateMutability": "nonpayable",
      "type": "function"
    },
    {
      "inputs": [
        {
          "internalType": "address",
          "name": "underlying",
          "type": "address"
        }
      ],
      "name": "price",
      "outputs": [
        {
          "internalType": "uint256",
          "name": "",
          "type": "uint256"
        }
      ],
      "stateMutability": "view",
      "type": "function"
    },
    {
      "inputs": [],
      "name": "rootOracle",
      "outputs": [
        {
          "internalType": "contract UniswapTwapPriceOracleV2Root",
          "name": "",
          "type": "address"
        }
      ],
      "stateMutability": "view",
      "type": "function"
    },
    {
      "inputs": [],
      "name": "uniswapV2Factory",
      "outputs": [
        {
          "internalType": "address",
          "name": "",
          "type": "address"
        }
      ],
      "stateMutability": "view",
      "type": "function"
    },
    {
      "inputs": [],
      "name": "wtoken",
      "outputs": [
        {
          "internalType": "address",
          "name": "",
          "type": "address"
        }
      ],
      "stateMutability": "view",
      "type": "function"
    }
  ],
  "transactionHash": "0xd2623406eca600e2771a83e6df5af3053964af59dcf2eff653481470dbb42b43",
  "args": [],
  "numDeployments": 1,
  "bytecode": {
    "object": "0x608060405234801561001057600080fd5b5061096d806100206000396000f3fe608060405234801561001057600080fd5b506004361061007d5760003560e01c8063c55dae631161005b578063c55dae63146100ec578063e3cb23a5146100ff578063f8c8765e14610112578063fc57d4df1461012757600080fd5b806359d0f713146100825780639c0591c8146100b2578063aea91078146100cb575b600080fd5b600254610095906001600160a01b031681565b6040516001600160a01b0390911681526020015b60405180910390f35b600054610095906201000090046001600160a01b031681565b6100de6100d9366004610725565b61013a565b6040519081526020016100a9565b600354610095906001600160a01b031681565b600154610095906001600160a01b031681565b610125610120366004610742565b61014b565b005b6100de610135366004610725565b6103a5565b600061014582610525565b92915050565b600054610100900460ff161580801561016b5750600054600160ff909116105b806101855750303b158015610185575060005460ff166001145b6101ed5760405162461bcd60e51b815260206004820152602e60248201527f496e697469616c697a61626c653a20636f6e747261637420697320616c72656160448201526d191e481a5b9a5d1a585b1a5e995960921b60648201526084015b60405180910390fd5b6000805460ff191660011790558015610210576000805461ff0019166101001790555b6001600160a01b0385166102785760405162461bcd60e51b815260206004820152602960248201527f556e69737761705477617050726963654f7261636c655632526f6f74206e6f74604482015268103232b334b732b21760b91b60648201526084016101e4565b6001600160a01b0384166102ce5760405162461bcd60e51b815260206004820152601d60248201527f556e69737761705632466163746f7279206e6f7420646566696e65642e00000060448201526064016101e4565b600180546001600160a01b03199081166001600160a01b0388811691909117909255600280549091168683161790556000805462010000600160b01b03191662010000858416021790558316156103255782610338565b6000546201000090046001600160a01b03165b600380546001600160a01b0319166001600160a01b0392909216919091179055801561039e576000805461ff0019169055604051600181527f7f26b83ff96e1f2b6a682f133852f6798a09c465da95921460cefb38474024989060200160405180910390a15b5050505050565b6000816001600160a01b031663ac784ddc6040518163ffffffff1660e01b8152600401602060405180830381865afa1580156103e5573d6000803e3d6000fd5b505050506040513d601f19601f82011682018060405250810190610409919061079e565b1561041d5750670de0b6b3a7640000919050565b6000826001600160a01b0316636f307dc36040518163ffffffff1660e01b8152600401602060405180830381865afa15801561045d573d6000803e3d6000fd5b505050506040513d601f19601f8201168201806040525081019061048191906107c0565b90506000816001600160a01b031663313ce5676040518163ffffffff1660e01b8152600401602060405180830381865afa1580156104c3573d6000803e3d6000fd5b505050506040513d601f19601f820116820180604052508101906104e791906107dd565b6104f59060ff16600a6108fa565b90508061050183610525565b61051390670de0b6b3a7640000610906565b61051d9190610925565b949350505050565b600080546001600160a01b03838116620100009092041614156105515750670de0b6b3a7640000919050565b60015460035460025460405163b9b2e68f60e01b81526001600160a01b03868116600483015292831660248201529082166044820152600092919091169063b9b2e68f90606401602060405180830381865afa1580156105b5573d6000803e3d6000fd5b505050506040513d601f19601f820116820180604052508101906105d99190610947565b6000546003549192506201000090046001600160a01b0390811691161461070457600360009054906101000a90046001600160a01b03166001600160a01b031663313ce5676040518163ffffffff1660e01b8152600401602060405180830381865afa15801561064d573d6000803e3d6000fd5b505050506040513d601f19601f8201168201806040525081019061067191906107dd565b61067f9060ff16600a6108fa565b6003546040516315d5220f60e31b81526001600160a01b039091166004820152339063aea9107890602401602060405180830381865afa1580156106c7573d6000803e3d6000fd5b505050506040513d601f19601f820116820180604052508101906106eb9190610947565b6106f59083610906565b6106ff9190610925565b610706565b805b9392505050565b6001600160a01b038116811461072257600080fd5b50565b60006020828403121561073757600080fd5b81356107068161070d565b6000806000806080858703121561075857600080fd5b84356107638161070d565b935060208501356107738161070d565b925060408501356107838161070d565b915060608501356107938161070d565b939692955090935050565b6000602082840312156107b057600080fd5b8151801515811461070657600080fd5b6000602082840312156107d257600080fd5b81516107068161070d565b6000602082840312156107ef57600080fd5b815160ff8116811461070657600080fd5b634e487b7160e01b600052601160045260246000fd5b600181815b8085111561085157816000190482111561083757610837610800565b8085161561084457918102915b93841c939080029061081b565b509250929050565b60008261086857506001610145565b8161087557506000610145565b816001811461088b5760028114610895576108b1565b6001915050610145565b60ff8411156108a6576108a6610800565b50506001821b610145565b5060208310610133831016604e8410600b84101617156108d4575081810a610145565b6108de8383610816565b80600019048211156108f2576108f2610800565b029392505050565b60006107068383610859565b600081600019048311821515161561092057610920610800565b500290565b60008261094257634e487b7160e01b600052601260045260246000fd5b500490565b60006020828403121561095957600080fd5b505191905056fea164736f6c634300080a000a",
    "linkReferences": {}
  },
  "methodIdentifiers": {
    "baseToken()": "c55dae63",
    "getUnderlyingPrice(address)": "fc57d4df",
    "initialize(address,address,address,address)": "f8c8765e",
    "price(address)": "aea91078",
    "rootOracle()": "e3cb23a5",
    "uniswapV2Factory()": "59d0f713",
    "wtoken()": "9c0591c8"
  }
}