{
  "address": "0x705dd6236C0Eb8c000bac6FB2B5FDAe1D588ACaa",
  "abi": [
    {
      "anonymous": false,
      "inputs": [
        {
          "indexed": false,
          "internalType": "uint8",
          "name": "version",
          "type": "uint8"
        }
      ],
      "name": "Initialized",
      "type": "event"
    },
    {
      "inputs": [],
      "name": "factory",
      "outputs": [
        {
          "internalType": "contract ILeveredPositionFactory",
          "name": "",
          "type": "address"
        }
      ],
      "stateMutability": "view",
      "type": "function"
    },
    {
      "inputs": [
        {
          "internalType": "contract ICErc20",
          "name": "_collateralMarket",
          "type": "address"
        },
        {
          "internalType": "contract ICErc20",
          "name": "_stableMarket",
          "type": "address"
        },
        {
          "internalType": "uint256",
          "name": "_baseCollateral",
          "type": "uint256"
        },
        {
          "internalType": "uint256",
          "name": "_targetLeverageRatio",
          "type": "uint256"
        }
      ],
      "name": "getBorrowRateAtRatio",
      "outputs": [
        {
          "internalType": "uint256",
          "name": "",
          "type": "uint256"
        }
      ],
      "stateMutability": "view",
      "type": "function"
    },
    {
      "inputs": [
        {
          "internalType": "contract ICErc20",
          "name": "_collateralMarket",
          "type": "address"
        }
      ],
      "name": "getBorrowableMarketsAndRates",
      "outputs": [
        {
          "internalType": "address[]",
          "name": "markets",
          "type": "address[]"
        },
        {
          "internalType": "address[]",
          "name": "underlyings",
          "type": "address[]"
        },
        {
          "internalType": "uint256[]",
          "name": "underlyingsPrices",
          "type": "uint256[]"
        },
        {
          "internalType": "string[]",
          "name": "names",
          "type": "string[]"
        },
        {
          "internalType": "string[]",
          "name": "symbols",
          "type": "string[]"
        },
        {
          "internalType": "uint256[]",
          "name": "rates",
          "type": "uint256[]"
        },
        {
          "internalType": "uint8[]",
          "name": "decimals",
          "type": "uint8[]"
        }
      ],
      "stateMutability": "view",
      "type": "function"
    },
    {
      "inputs": [],
      "name": "getCollateralMarkets",
      "outputs": [
        {
          "internalType": "address[]",
          "name": "markets",
          "type": "address[]"
        },
        {
          "internalType": "contract IComptroller[]",
          "name": "poolOfMarket",
          "type": "address[]"
        },
        {
          "internalType": "address[]",
          "name": "underlyings",
          "type": "address[]"
        },
        {
          "internalType": "uint256[]",
          "name": "underlyingPrices",
          "type": "uint256[]"
        },
        {
          "internalType": "string[]",
          "name": "names",
          "type": "string[]"
        },
        {
          "internalType": "string[]",
          "name": "symbols",
          "type": "string[]"
        },
        {
          "internalType": "uint8[]",
          "name": "decimals",
          "type": "uint8[]"
        },
        {
          "internalType": "uint256[]",
          "name": "totalUnderlyingSupplied",
          "type": "uint256[]"
        },
        {
          "internalType": "uint256[]",
          "name": "ratesPerBlock",
          "type": "uint256[]"
        }
      ],
      "stateMutability": "view",
      "type": "function"
    },
    {
      "inputs": [
        {
          "internalType": "uint256",
          "name": "_supplyAPY",
          "type": "uint256"
        },
        {
          "internalType": "uint256",
          "name": "_supplyAmount",
          "type": "uint256"
        },
        {
          "internalType": "contract ICErc20",
          "name": "_collateralMarket",
          "type": "address"
        },
        {
          "internalType": "contract ICErc20",
          "name": "_stableMarket",
          "type": "address"
        },
        {
          "internalType": "uint256",
          "name": "_targetLeverageRatio",
          "type": "uint256"
        }
      ],
      "name": "getNetAPY",
      "outputs": [
        {
          "internalType": "int256",
          "name": "netAPY",
          "type": "int256"
        }
      ],
      "stateMutability": "view",
      "type": "function"
    },
    {
      "inputs": [
        {
          "internalType": "contract LeveredPosition",
          "name": "pos",
          "type": "address"
        },
        {
          "internalType": "uint256",
          "name": "_supplyAPY",
          "type": "uint256"
        }
      ],
      "name": "getNetApyForPosition",
      "outputs": [
        {
          "internalType": "int256",
          "name": "",
          "type": "int256"
        }
      ],
      "stateMutability": "view",
      "type": "function"
    },
    {
      "inputs": [
        {
          "internalType": "contract LeveredPosition",
          "name": "pos",
          "type": "address"
        },
        {
          "internalType": "uint256",
          "name": "supplyApy",
          "type": "uint256"
        }
      ],
      "name": "getPositionInfo",
      "outputs": [
        {
          "components": [
            {
              "internalType": "uint256",
              "name": "collateralAssetPrice",
              "type": "uint256"
            },
            {
              "internalType": "uint256",
              "name": "borrowedAssetPrice",
              "type": "uint256"
            },
            {
              "internalType": "uint256",
              "name": "positionSupplyAmount",
              "type": "uint256"
            },
            {
              "internalType": "uint256",
              "name": "positionValue",
              "type": "uint256"
            },
            {
              "internalType": "uint256",
              "name": "debtAmount",
              "type": "uint256"
            },
            {
              "internalType": "uint256",
              "name": "debtValue",
              "type": "uint256"
            },
            {
              "internalType": "uint256",
              "name": "equityAmount",
              "type": "uint256"
            },
            {
              "internalType": "uint256",
              "name": "equityValue",
              "type": "uint256"
            },
            {
              "internalType": "int256",
              "name": "currentApy",
              "type": "int256"
            },
            {
              "internalType": "uint256",
              "name": "debtRatio",
              "type": "uint256"
            },
            {
              "internalType": "uint256",
              "name": "liquidationThreshold",
              "type": "uint256"
            },
            {
              "internalType": "uint256",
              "name": "safetyBuffer",
              "type": "uint256"
            }
          ],
          "internalType": "struct LeveredPositionsLens.PositionInfo",
          "name": "info",
          "type": "tuple"
        }
      ],
      "stateMutability": "view",
      "type": "function"
    },
    {
      "inputs": [
        {
          "internalType": "contract LeveredPosition[]",
          "name": "positions",
          "type": "address[]"
        },
        {
          "internalType": "uint256[]",
          "name": "supplyApys",
          "type": "uint256[]"
        }
      ],
      "name": "getPositionsInfo",
      "outputs": [
        {
          "components": [
            {
              "internalType": "uint256",
              "name": "collateralAssetPrice",
              "type": "uint256"
            },
            {
              "internalType": "uint256",
              "name": "borrowedAssetPrice",
              "type": "uint256"
            },
            {
              "internalType": "uint256",
              "name": "positionSupplyAmount",
              "type": "uint256"
            },
            {
              "internalType": "uint256",
              "name": "positionValue",
              "type": "uint256"
            },
            {
              "internalType": "uint256",
              "name": "debtAmount",
              "type": "uint256"
            },
            {
              "internalType": "uint256",
              "name": "debtValue",
              "type": "uint256"
            },
            {
              "internalType": "uint256",
              "name": "equityAmount",
              "type": "uint256"
            },
            {
              "internalType": "uint256",
              "name": "equityValue",
              "type": "uint256"
            },
            {
              "internalType": "int256",
              "name": "currentApy",
              "type": "int256"
            },
            {
              "internalType": "uint256",
              "name": "debtRatio",
              "type": "uint256"
            },
            {
              "internalType": "uint256",
              "name": "liquidationThreshold",
              "type": "uint256"
            },
            {
              "internalType": "uint256",
              "name": "safetyBuffer",
              "type": "uint256"
            }
          ],
          "internalType": "struct LeveredPositionsLens.PositionInfo[]",
          "name": "infos",
          "type": "tuple[]"
        }
      ],
      "stateMutability": "view",
      "type": "function"
    },
    {
      "inputs": [
        {
          "internalType": "contract ILeveredPositionFactory",
          "name": "_factory",
          "type": "address"
        }
      ],
      "name": "initialize",
      "outputs": [],
      "stateMutability": "nonpayable",
      "type": "function"
    }
  ],
  "transactionHash": "0xc71c77509a6e3d0c8a71d49c3fc6f0721e85f1eea60f86d3ede7ae89ef47c74c",
  "args": [],
  "numDeployments": 1,
  "bytecode": {
    "object": "0x608060405234801561001057600080fd5b5061283a806100206000396000f3fe608060405234801561001057600080fd5b50600436106100935760003560e01c80638de1624d116100665780638de1624d1461011b5780638f4b11661461012e578063c03497c01461014e578063c45a01551461016b578063c4d66de81461019c57600080fd5b80631327d7fb146100985780631a610317146100c157806360ff773e146100e25780636bbdc78014610108575b600080fd5b6100ab6100a6366004611f4a565b6101b1565b6040516100b89190611ff4565b60405180910390f35b6100d46100cf366004611f4a565b610737565b6040519081526020016100b8565b6100f56100f0366004612003565b6108ce565b6040516100b8979695949392919061216b565b6100d46101163660046121f4565b610f4c565b6100d461012936600461223a565b6111b9565b61014161013c3660046122d7565b6114d4565b6040516100b89190612342565b6101566115b6565b6040516100b899989796959493929190612391565b600054610184906201000090046001600160a01b031681565b6040516001600160a01b0390911681526020016100b8565b6101af6101aa366004612003565b611da1565b005b6101b9611ed1565b6000836001600160a01b031663a415deda6040518163ffffffff1660e01b8152600401602060405180830381865afa1580156101f9573d6000803e3d6000fd5b505050506040513d601f19601f8201168201806040525081019061021d9190612487565b90506000846001600160a01b03166316f0115b6040518163ffffffff1660e01b8152600401602060405180830381865afa15801561025f573d6000803e3d6000fd5b505050506040513d601f19601f820116820180604052508101906102839190612487565b9050806001600160a01b0316637dc0d1d06040518163ffffffff1660e01b8152600401602060405180830381865afa1580156102c3573d6000803e3d6000fd5b505050506040513d601f19601f820116820180604052508101906102e79190612487565b60405163fc57d4df60e01b81526001600160a01b038481166004830152919091169063fc57d4df90602401602060405180830381865afa15801561032f573d6000803e3d6000fd5b505050506040513d601f19601f8201168201806040525081019061035391906124a4565b8352604051633af9e66960e01b81526001600160a01b038681166004830152831690633af9e66990602401602060405180830381865afa15801561039b573d6000803e3d6000fd5b505050506040513d601f19601f820116820180604052508101906103bf91906124a4565b604084018190528351670de0b6b3a7640000916103db916124d3565b6103e59190612508565b60608401526103f48585610737565b836101000181815250506000856001600160a01b031663a7e269a66040518163ffffffff1660e01b8152600401602060405180830381865afa15801561043e573d6000803e3d6000fd5b505050506040513d601f19601f820116820180604052508101906104629190612487565b9050816001600160a01b0316637dc0d1d06040518163ffffffff1660e01b8152600401602060405180830381865afa1580156104a2573d6000803e3d6000fd5b505050506040513d601f19601f820116820180604052508101906104c69190612487565b60405163fc57d4df60e01b81526001600160a01b038381166004830152919091169063fc57d4df90602401602060405180830381865afa15801561050e573d6000803e3d6000fd5b505050506040513d601f19601f8201168201806040525081019061053291906124a4565b60208501526040516305eff7ef60e21b81526001600160a01b0387811660048301528216906317bfdfbc90602401602060405180830381865afa15801561057d573d6000803e3d6000fd5b505050506040513d601f19601f820116820180604052508101906105a191906124a4565b608085018190526020850151670de0b6b3a7640000916105c0916124d3565b6105ca9190612508565b60a0850181905260608501516105e0919061251c565b60e0850181905260a08501516105fe90670de0b6b3a76400006124d3565b6106089190612508565b610120850152835160e085015161062790670de0b6b3a76400006124d3565b6106319190612508565b60c085015250604051638e8f294b60e01b81526001600160a01b03838116600483015260009190831690638e8f294b906024016040805180830381865afa158015610680573d6000803e3d6000fd5b505050506040513d601f19601f820116820180604052508101906106a49190612533565b9150506000670de0b6b3a76400008286606001516106c291906124d3565b6106cc9190612508565b60e08601519091506106e682670de0b6b3a76400006124d3565b6106f09190612508565b61014086015260e085015160a086015161070a908361251c565b61071c90670de0b6b3a76400006124d3565b6107269190612508565b610160860152509295945050505050565b60006108c582846001600160a01b0316639b5ddf096040518163ffffffff1660e01b8152600401602060405180830381865afa15801561077b573d6000803e3d6000fd5b505050506040513d601f19601f8201168201806040525081019061079f91906124a4565b856001600160a01b031663a415deda6040518163ffffffff1660e01b8152600401602060405180830381865afa1580156107dd573d6000803e3d6000fd5b505050506040513d601f19601f820116820180604052508101906108019190612487565b866001600160a01b031663a7e269a66040518163ffffffff1660e01b8152600401602060405180830381865afa15801561083f573d6000803e3d6000fd5b505050506040513d601f19601f820116820180604052508101906108639190612487565b876001600160a01b031663c31443bb6040518163ffffffff1660e01b8152600401602060405180830381865afa1580156108a1573d6000803e3d6000fd5b505050506040513d601f19601f8201168201806040525081019061012991906124a4565b90505b92915050565b600054604051637a73083360e11b81526001600160a01b038381166004830152606092839283928392839283928392620100009004169063f4e6106690602401600060405180830381865afa15801561092b573d6000803e3d6000fd5b505050506040513d6000823e601f3d908101601f1916820160405261095391908101906125ac565b965086516001600160401b0381111561096e5761096e612566565b604051908082528060200260200182016040528015610997578160200160208202803683370190505b50955086516001600160401b038111156109b3576109b3612566565b6040519080825280602002602001820160405280156109e657816020015b60608152602001906001900390816109d15790505b50935086516001600160401b03811115610a0257610a02612566565b604051908082528060200260200182016040528015610a3557816020015b6060815260200190600190039081610a205790505b50925086516001600160401b03811115610a5157610a51612566565b604051908082528060200260200182016040528015610a7a578160200160208202803683370190505b50915086516001600160401b03811115610a9657610a96612566565b604051908082528060200260200182016040528015610abf578160200160208202803683370190505b50905086516001600160401b03811115610adb57610adb612566565b604051908082528060200260200182016040528015610b04578160200160208202803683370190505b50945060005b8751811015610f40576000888281518110610b2757610b2761265d565b602002602001015190506000816001600160a01b0316636f307dc36040518163ffffffff1660e01b8152600401602060405180830381865afa158015610b71573d6000803e3d6000fd5b505050506040513d601f19601f82011682018060405250810190610b959190612487565b905080898481518110610baa57610baa61265d565b60200260200101906001600160a01b031690816001600160a01b0316815250506000819050806001600160a01b03166306fdde036040518163ffffffff1660e01b8152600401600060405180830381865afa158015610c0d573d6000803e3d6000fd5b505050506040513d6000823e601f3d908101601f19168201604052610c359190810190612673565b888581518110610c4757610c4761265d565b6020026020010181905250806001600160a01b03166395d89b416040518163ffffffff1660e01b8152600401600060405180830381865afa158015610c90573d6000803e3d6000fd5b505050506040513d6000823e601f3d908101601f19168201604052610cb89190810190612673565b878581518110610cca57610cca61265d565b6020026020010181905250826001600160a01b031663f8f9da286040518163ffffffff1660e01b8152600401602060405180830381865afa158015610d13573d6000803e3d6000fd5b505050506040513d601f19601f82011682018060405250810190610d3791906124a4565b868581518110610d4957610d4961265d565b602002602001018181525050806001600160a01b031663313ce5676040518163ffffffff1660e01b8152600401602060405180830381865afa158015610d93573d6000803e3d6000fd5b505050506040513d601f19601f82011682018060405250810190610db791906126fd565b858581518110610dc957610dc961265d565b602002602001019060ff16908160ff1681525050826001600160a01b0316635fe3b5676040518163ffffffff1660e01b8152600401602060405180830381865afa158015610e1b573d6000803e3d6000fd5b505050506040513d601f19601f82011682018060405250810190610e3f9190612487565b6001600160a01b0316637dc0d1d06040518163ffffffff1660e01b8152600401602060405180830381865afa158015610e7c573d6000803e3d6000fd5b505050506040513d601f19601f82011682018060405250810190610ea09190612487565b60405163fc57d4df60e01b81526001600160a01b038581166004830152919091169063fc57d4df90602401602060405180830381865afa158015610ee8573d6000803e3d6000fd5b505050506040513d601f19601f82011682018060405250810190610f0c91906124a4565b898581518110610f1e57610f1e61265d565b6020026020010181815250505050508080610f3890612720565b915050610b0a565b50919395979092949650565b600080846001600160a01b0316635fe3b5676040518163ffffffff1660e01b8152600401602060405180830381865afa158015610f8d573d6000803e3d6000fd5b505050506040513d601f19601f82011682018060405250810190610fb19190612487565b90506000816001600160a01b0316637dc0d1d06040518163ffffffff1660e01b8152600401602060405180830381865afa158015610ff3573d6000803e3d6000fd5b505050506040513d601f19601f820116820180604052508101906110179190612487565b60405163fc57d4df60e01b81526001600160a01b03888116600483015291925060009183169063fc57d4df90602401602060405180830381865afa158015611063573d6000803e3d6000fd5b505050506040513d601f19601f8201168201806040525081019061108791906124a4565b60405163fc57d4df60e01b81526001600160a01b038a8116600483015291925060009184169063fc57d4df90602401602060405180830381865afa1580156110d3573d6000803e3d6000fd5b505050506040513d601f19601f820116820180604052508101906110f791906124a4565b9050600061110d83670de0b6b3a76400006124d3565b8289611121670de0b6b3a76400008b61251c565b61112b91906124d3565b61113591906124d3565b61113f9190612508565b60405163cfcd4c0760e01b8152600481018290529091506001600160a01b038a169063cfcd4c0790602401602060405180830381865afa158015611187573d6000803e3d6000fd5b505050506040513d601f19601f820116820180604052508101906111ab91906124a4565b9a9950505050505050505050565b60008415806111d05750670de0b6b3a76400008211155b156111dd575060006114cb565b6000846001600160a01b0316635fe3b5676040518163ffffffff1660e01b8152600401602060405180830381865afa15801561121d573d6000803e3d6000fd5b505050506040513d601f19601f820116820180604052508101906112419190612487565b90506000816001600160a01b0316637dc0d1d06040518163ffffffff1660e01b8152600401602060405180830381865afa158015611283573d6000803e3d6000fd5b505050506040513d601f19601f820116820180604052508101906112a79190612487565b60405163fc57d4df60e01b81526001600160a01b03888116600483015291925060009183169063fc57d4df90602401602060405180830381865afa1580156112f3573d6000803e3d6000fd5b505050506040513d601f19601f8201168201806040525081019061131791906124a4565b90506000670de0b6b3a764000061132e878b6124d3565b6113389190612508565b90506000611346828c6124d3565b90506000670de0b6b3a764000061135d85846124d3565b6113679190612508565b90506000846113768d8661251c565b61138091906124d3565b905060008060029054906101000a90046001600160a01b03166001600160a01b031663a385fb966040518163ffffffff1660e01b8152600401602060405180830381865afa1580156113d6573d6000803e3d6000fd5b505050506040513d601f19601f820116820180604052508101906113fa91906124a4565b8b6001600160a01b031663f8f9da286040518163ffffffff1660e01b8152600401602060405180830381865afa158015611438573d6000803e3d6000fd5b505050506040513d601f19601f8201168201806040525081019061145c91906124a4565b61146691906124d3565b90506000670de0b6b3a764000061147d84846124d3565b6114879190612508565b90506000611495828661273b565b90508e6114a2898361277a565b6114b490670de0b6b3a76400006127a8565b6114be919061277a565b9a50505050505050505050505b95945050505050565b6060836001600160401b038111156114ee576114ee612566565b60405190808252806020026020018201604052801561152757816020015b611514611ed1565b81526020019060019003908161150c5790505b50905060005b848110156115ad5761157d86868381811061154a5761154a61265d565b905060200201602081019061155f9190612003565b8585848181106115715761157161265d565b905060200201356101b1565b82828151811061158f5761158f61265d565b602002602001018190525080806115a590612720565b91505061152d565b50949350505050565b6060806060806060806060806060600060029054906101000a90046001600160a01b03166001600160a01b031663a339d7516040518163ffffffff1660e01b8152600401600060405180830381865afa158015611617573d6000803e3d6000fd5b505050506040513d6000823e601f3d908101601f1916820160405261163f91908101906125ac565b985088516001600160401b0381111561165a5761165a612566565b604051908082528060200260200182016040528015611683578160200160208202803683370190505b50975088516001600160401b0381111561169f5761169f612566565b6040519080825280602002602001820160405280156116c8578160200160208202803683370190505b50965088516001600160401b038111156116e4576116e4612566565b60405190808252806020026020018201604052801561170d578160200160208202803683370190505b50955088516001600160401b0381111561172957611729612566565b60405190808252806020026020018201604052801561175c57816020015b60608152602001906001900390816117475790505b50945088516001600160401b0381111561177857611778612566565b6040519080825280602002602001820160405280156117ab57816020015b60608152602001906001900390816117965790505b50935088516001600160401b038111156117c7576117c7612566565b6040519080825280602002602001820160405280156117f0578160200160208202803683370190505b50915088516001600160401b0381111561180c5761180c612566565b604051908082528060200260200182016040528015611835578160200160208202803683370190505b50925088516001600160401b0381111561185157611851612566565b60405190808252806020026020018201604052801561187a578160200160208202803683370190505b50905060005b8951811015611d955760008a828151811061189d5761189d61265d565b60200260200101519050806001600160a01b0316635fe3b5676040518163ffffffff1660e01b8152600401602060405180830381865afa1580156118e5573d6000803e3d6000fd5b505050506040513d601f19601f820116820180604052508101906119099190612487565b8a838151811061191b5761191b61265d565b60200260200101906001600160a01b031690816001600160a01b03168152505089828151811061194d5761194d61265d565b60200260200101516001600160a01b0316637dc0d1d06040518163ffffffff1660e01b8152600401602060405180830381865afa158015611992573d6000803e3d6000fd5b505050506040513d601f19601f820116820180604052508101906119b69190612487565b60405163fc57d4df60e01b81526001600160a01b038381166004830152919091169063fc57d4df90602401602060405180830381865afa1580156119fe573d6000803e3d6000fd5b505050506040513d601f19601f82011682018060405250810190611a2291906124a4565b888381518110611a3457611a3461265d565b602002602001018181525050806001600160a01b0316636f307dc36040518163ffffffff1660e01b8152600401602060405180830381865afa158015611a7e573d6000803e3d6000fd5b505050506040513d601f19601f82011682018060405250810190611aa29190612487565b898381518110611ab457611ab461265d565b60200260200101906001600160a01b031690816001600160a01b0316815250506000898381518110611ae857611ae861265d565b60200260200101519050806001600160a01b03166306fdde036040518163ffffffff1660e01b8152600401600060405180830381865afa158015611b30573d6000803e3d6000fd5b505050506040513d6000823e601f3d908101601f19168201604052611b589190810190612673565b888481518110611b6a57611b6a61265d565b6020026020010181905250806001600160a01b03166395d89b416040518163ffffffff1660e01b8152600401600060405180830381865afa158015611bb3573d6000803e3d6000fd5b505050506040513d6000823e601f3d908101601f19168201604052611bdb9190810190612673565b878481518110611bed57611bed61265d565b6020026020010181905250806001600160a01b031663313ce5676040518163ffffffff1660e01b8152600401602060405180830381865afa158015611c36573d6000803e3d6000fd5b505050506040513d601f19601f82011682018060405250810190611c5a91906126fd565b868481518110611c6c57611c6c61265d565b602002602001019060ff16908160ff1681525050816001600160a01b0316634aeb3d9a6040518163ffffffff1660e01b8152600401602060405180830381865afa158015611cbe573d6000803e3d6000fd5b505050506040513d601f19601f82011682018060405250810190611ce291906124a4565b858481518110611cf457611cf461265d565b602002602001018181525050816001600160a01b031663ae9d70b06040518163ffffffff1660e01b8152600401602060405180830381865afa158015611d3e573d6000803e3d6000fd5b505050506040513d601f19601f82011682018060405250810190611d6291906124a4565b848481518110611d7457611d7461265d565b60200260200101818152505050508080611d8d90612720565b915050611880565b50909192939495969798565b600054610100900460ff1615808015611dc15750600054600160ff909116105b80611ddb5750303b158015611ddb575060005460ff166001145b611e425760405162461bcd60e51b815260206004820152602e60248201527f496e697469616c697a61626c653a20636f6e747261637420697320616c72656160448201526d191e481a5b9a5d1a585b1a5e995960921b606482015260840160405180910390fd5b6000805460ff191660011790558015611e65576000805461ff0019166101001790555b6000805462010000600160b01b031916620100006001600160a01b038516021790558015611ecd576000805461ff0019169055604051600181527f7f26b83ff96e1f2b6a682f133852f6798a09c465da95921460cefb38474024989060200160405180910390a15b5050565b6040518061018001604052806000815260200160008152602001600081526020016000815260200160008152602001600081526020016000815260200160008152602001600081526020016000815260200160008152602001600081525090565b6001600160a01b0381168114611f4757600080fd5b50565b60008060408385031215611f5d57600080fd5b8235611f6881611f32565b946020939093013593505050565b805182526020810151602083015260408101516040830152606081015160608301526080810151608083015260a081015160a083015260c081015160c083015260e081015160e08301526101008082015181840152506101208082015181840152506101408082015181840152506101608082015181840152505050565b61018081016108c88284611f76565b60006020828403121561201557600080fd5b813561202081611f32565b9392505050565b600081518084526020808501945080840160005b838110156120605781516001600160a01b03168752958201959082019060010161203b565b509495945050505050565b600081518084526020808501945080840160005b838110156120605781518752958201959082019060010161207f565b60005b838110156120b657818101518382015260200161209e565b838111156120c5576000848401525b50505050565b600081518084526020808501808196508360051b8101915082860160005b8581101561212b5782840389528151805180865261210c8188880189850161209b565b99860199601f01601f19169490940185019350908401906001016120e9565b5091979650505050505050565b600081518084526020808501945080840160005b8381101561206057815160ff168752958201959082019060010161214c565b60e08152600061217e60e083018a612027565b8281036020840152612190818a612027565b905082810360408401526121a4818961206b565b905082810360608401526121b881886120cb565b905082810360808401526121cc81876120cb565b905082810360a08401526121e0818661206b565b905082810360c08401526111ab8185612138565b6000806000806080858703121561220a57600080fd5b843561221581611f32565b9350602085013561222581611f32565b93969395505050506040820135916060013590565b600080600080600060a0868803121561225257600080fd5b8535945060208601359350604086013561226b81611f32565b9250606086013561227b81611f32565b949793965091946080013592915050565b60008083601f84011261229e57600080fd5b5081356001600160401b038111156122b557600080fd5b6020830191508360208260051b85010111156122d057600080fd5b9250929050565b600080600080604085870312156122ed57600080fd5b84356001600160401b038082111561230457600080fd5b6123108883890161228c565b9096509450602087013591508082111561232957600080fd5b506123368782880161228c565b95989497509550505050565b6020808252825182820181905260009190848201906040850190845b8181101561238557612371838551611f76565b92840192610180929092019160010161235e565b50909695505050505050565b60006101208083526123a58184018d612027565b9050602083820381850152818c518084528284019150828e01935060005b818110156123e85784516001600160a01b0316835293830193918301916001016123c3565b505084810360408601526123fc818d612027565b925050508281036060840152612412818a61206b565b9050828103608084015261242681896120cb565b905082810360a084015261243a81886120cb565b905082810360c084015261244e8187612138565b905082810360e0840152612462818661206b565b9050828103610100840152612477818561206b565b9c9b505050505050505050505050565b60006020828403121561249957600080fd5b815161202081611f32565b6000602082840312156124b657600080fd5b5051919050565b634e487b7160e01b600052601160045260246000fd5b60008160001904831182151516156124ed576124ed6124bd565b500290565b634e487b7160e01b600052601260045260246000fd5b600082612517576125176124f2565b500490565b60008282101561252e5761252e6124bd565b500390565b6000806040838503121561254657600080fd5b8251801515811461255657600080fd5b6020939093015192949293505050565b634e487b7160e01b600052604160045260246000fd5b604051601f8201601f191681016001600160401b03811182821017156125a4576125a4612566565b604052919050565b600060208083850312156125bf57600080fd5b82516001600160401b03808211156125d657600080fd5b818501915085601f8301126125ea57600080fd5b8151818111156125fc576125fc612566565b8060051b915061260d84830161257c565b818152918301840191848101908884111561262757600080fd5b938501935b83851015612651578451925061264183611f32565b828252938501939085019061262c565b98975050505050505050565b634e487b7160e01b600052603260045260246000fd5b60006020828403121561268557600080fd5b81516001600160401b038082111561269c57600080fd5b818401915084601f8301126126b057600080fd5b8151818111156126c2576126c2612566565b6126d5601f8201601f191660200161257c565b91508082528560208285010111156126ec57600080fd5b6115ad81602084016020860161209b565b60006020828403121561270f57600080fd5b815160ff8116811461202057600080fd5b6000600019821415612734576127346124bd565b5060010190565b60008083128015600160ff1b850184121615612759576127596124bd565b6001600160ff1b0384018313811615612774576127746124bd565b50500390565b600082612789576127896124f2565b600160ff1b8214600019841416156127a3576127a36124bd565b500590565b60006001600160ff1b03818413828413808216868404861116156127ce576127ce6124bd565b600160ff1b60008712828116878305891216156127ed576127ed6124bd565b60008712925087820587128484161615612809576128096124bd565b8785058712818416161561281f5761281f6124bd565b50505092909302939250505056fea164736f6c634300080a000a",
    "linkReferences": {}
  },
  "methodIdentifiers": {
    "factory()": "c45a0155",
    "getBorrowRateAtRatio(address,address,uint256,uint256)": "6bbdc780",
    "getBorrowableMarketsAndRates(address)": "60ff773e",
    "getCollateralMarkets()": "c03497c0",
    "getNetAPY(uint256,uint256,address,address,uint256)": "8de1624d",
    "getNetApyForPosition(address,uint256)": "1a610317",
    "getPositionInfo(address,uint256)": "1327d7fb",
    "getPositionsInfo(address[],uint256[])": "8f4b1166",
    "initialize(address)": "c4d66de8"
  }
}