{
  "address": "0x599Ce00221030620A65d7bBDAeC447fb37A0C05E",
  "abi": [
    {
      "anonymous": false,
      "inputs": [
        {
          "indexed": false,
          "internalType": "uint8",
          "name": "version",
          "type": "uint8"
        }
      ],
      "name": "Initialized",
      "type": "event"
    },
    {
      "anonymous": false,
      "inputs": [
        {
          "indexed": false,
          "internalType": "address",
          "name": "oldOwner",
          "type": "address"
        },
        {
          "indexed": false,
          "internalType": "address",
          "name": "newOwner",
          "type": "address"
        }
      ],
      "name": "NewOwner",
      "type": "event"
    },
    {
      "anonymous": false,
      "inputs": [
        {
          "indexed": false,
          "internalType": "address",
          "name": "oldPendingOwner",
          "type": "address"
        },
        {
          "indexed": false,
          "internalType": "address",
          "name": "newPendingOwner",
          "type": "address"
        }
      ],
      "name": "NewPendingOwner",
      "type": "event"
    },
    {
      "anonymous": false,
      "inputs": [
        {
          "indexed": true,
          "internalType": "address",
          "name": "previousOwner",
          "type": "address"
        },
        {
          "indexed": true,
          "internalType": "address",
          "name": "newOwner",
          "type": "address"
        }
      ],
      "name": "OwnershipTransferred",
      "type": "event"
    },
    {
      "inputs": [],
      "name": "_acceptOwner",
      "outputs": [],
      "stateMutability": "nonpayable",
      "type": "function"
    },
    {
      "inputs": [
        {
          "internalType": "address",
          "name": "newPendingOwner",
          "type": "address"
        }
      ],
      "name": "_setPendingOwner",
      "outputs": [],
      "stateMutability": "nonpayable",
      "type": "function"
    },
    {
      "inputs": [
        {
          "internalType": "contract ICToken",
          "name": "cToken",
          "type": "address"
        }
      ],
      "name": "getUnderlyingPrice",
      "outputs": [
        {
          "internalType": "uint256",
          "name": "",
          "type": "uint256"
        }
      ],
      "stateMutability": "view",
      "type": "function"
    },
    {
      "inputs": [],
      "name": "initialize",
      "outputs": [],
      "stateMutability": "nonpayable",
      "type": "function"
    },
    {
      "inputs": [],
      "name": "owner",
      "outputs": [
        {
          "internalType": "address",
          "name": "",
          "type": "address"
        }
      ],
      "stateMutability": "view",
      "type": "function"
    },
    {
      "inputs": [],
      "name": "pendingOwner",
      "outputs": [
        {
          "internalType": "address",
          "name": "",
          "type": "address"
        }
      ],
      "stateMutability": "view",
      "type": "function"
    },
    {
      "inputs": [
        {
          "internalType": "address",
          "name": "underlying",
          "type": "address"
        }
      ],
      "name": "price",
      "outputs": [
        {
          "internalType": "uint256",
          "name": "",
          "type": "uint256"
        }
      ],
      "stateMutability": "view",
      "type": "function"
    },
    {
      "inputs": [],
      "name": "renounceOwnership",
      "outputs": [],
      "stateMutability": "nonpayable",
      "type": "function"
    },
    {
      "inputs": [
        {
          "internalType": "address",
          "name": "newOwner",
          "type": "address"
        }
      ],
      "name": "transferOwnership",
      "outputs": [],
      "stateMutability": "nonpayable",
      "type": "function"
    }
  ],
  "transactionHash": "0x762284d1237de145908b73e4e0906a6e6a66b7971e7a28701d5f5e836689b3c6",
  "args": [],
  "numDeployments": 4,
  "bytecode": {
    "object": "0x608060405234801561001057600080fd5b506110b9806100206000396000f3fe608060405234801561001057600080fd5b50600436106100935760003560e01c8063aea9107811610066578063aea91078146100e7578063e30c397814610108578063f2fde38b1461011b578063fc4d33f91461012e578063fc57d4df1461013657600080fd5b80636e96dfd714610098578063715018a6146100ad5780638129fc1c146100b55780638da5cb5b146100bd575b600080fd5b6100ab6100a6366004610c47565b610149565b005b6100ab6101b3565b6100ab6101fb565b6033546001600160a01b03165b6040516001600160a01b0390911681526020015b60405180910390f35b6100fa6100f5366004610c47565b61030d565b6040519081526020016100de565b6065546100ca906001600160a01b031681565b6100ab610129366004610c47565b61031e565b6100ab61038f565b6100fa610144366004610c47565b6104a3565b6101516105a6565b606580546001600160a01b038381166001600160a01b031983168117909355604080519190921680825260208201939093527fb3d55174552271a4f1aaf36b72f50381e892171636b3fb5447fe00e995e7a37b91015b60405180910390a15050565b6101bb6105a6565b60405162461bcd60e51b815260206004820152601060248201526f6e6f74207573656420616e796d6f726560801b60448201526064015b60405180910390fd5b600054610100900460ff161580801561021b5750600054600160ff909116105b806102355750303b158015610235575060005460ff166001145b6102985760405162461bcd60e51b815260206004820152602e60248201527f496e697469616c697a61626c653a20636f6e747261637420697320616c72656160448201526d191e481a5b9a5d1a585b1a5e995960921b60648201526084016101f2565b6000805460ff1916600117905580156102bb576000805461ff0019166101001790555b6102c433610602565b801561030a576000805461ff0019169055604051600181527f7f26b83ff96e1f2b6a682f133852f6798a09c465da95921460cefb38474024989060200160405180910390a15b50565b60006103188261063a565b92915050565b6103266105a6565b606554604080516001600160a01b03928316815291831660208301527fb3d55174552271a4f1aaf36b72f50381e892171636b3fb5447fe00e995e7a37b910160405180910390a1606580546001600160a01b0319166001600160a01b0392909216919091179055565b6065546001600160a01b031633146103e15760405162461bcd60e51b81526020600482015260156024820152743737ba103a3432903832b73234b7339037bbb732b960591b60448201526064016101f2565b60006103f56033546001600160a01b031690565b6065549091506001600160a01b031661040d81610b86565b606580546001600160a01b0319169055604080516001600160a01b0384168152600060208201527f70aea8d848e8a90fb7661b227dc522eb6395c3dac71b63cb59edd5c9899b2364910160405180910390a1606554604080516001600160a01b03808516825290921660208301527fb3d55174552271a4f1aaf36b72f50381e892171636b3fb5447fe00e995e7a37b91016101a7565b600080826001600160a01b0316636f307dc36040518163ffffffff1660e01b8152600401602060405180830381865afa1580156104e4573d6000803e3d6000fd5b505050506040513d601f19601f820116820180604052508101906105089190610c64565b9050806001600160a01b031663313ce5676040518163ffffffff1660e01b8152600401602060405180830381865afa158015610548573d6000803e3d6000fd5b505050506040513d601f19601f8201168201806040525081019061056c9190610c81565b61057a9060ff16600a610d9e565b6105838261063a565b61059590670de0b6b3a7640000610daa565b61059f9190610dc9565b9392505050565b6033546001600160a01b031633146106005760405162461bcd60e51b815260206004820181905260248201527f4f776e61626c653a2063616c6c6572206973206e6f7420746865206f776e657260448201526064016101f2565b565b600054610100900460ff166106295760405162461bcd60e51b81526004016101f290610deb565b610631610bd8565b61030a81610b86565b6000808290506000816001600160a01b0316638d928af86040518163ffffffff1660e01b8152600401602060405180830381865afa158015610680573d6000803e3d6000fd5b505050506040513d601f19601f820116820180604052508101906106a49190610c64565b905060006001600160a01b03821661c3506303a38fa160e21b836040519080825280602002602001820160405280156106e7578160200160208202803683370190505b506040516024016106f89190610e4c565b60408051601f198184030181529181526020820180516001600160e01b03166001600160e01b03199094169390931790925290516107369190610e99565b6000604051808303818686fa925050503d8060008114610772576040519150601f19603f3d011682016040523d82523d6000602084013e610777565b606091505b50604051602060248201526007604482015266042414c233430360cc1b6064820152909250608401905060408051601f19818403018152919052602080820180516001600160e01b031662461bcd60e51b178152915190912082519183019190912014156108275760405162461bcd60e51b815260206004820152601e60248201527f42616c616e636572207661756c742076696577207265656e7472616e6379000060448201526064016101f2565b6000836001600160a01b03166338fff2d06040518163ffffffff1660e01b8152600401602060405180830381865afa158015610867573d6000803e3d6000fd5b505050506040513d601f19601f8201168201806040525081019061088b9190610ed4565b604051631f29a8cd60e31b8152600481018290529091506000906001600160a01b0385169063f94d466890602401600060405180830381865afa1580156108d6573d6000803e3d6000fd5b505050506040513d6000823e601f3d908101601f191682016040526108fe9190810190610fad565b505090506000856001600160a01b03166382687a566040518163ffffffff1660e01b8152600401602060405180830381865afa158015610942573d6000803e3d6000fd5b505050506040513d601f19601f820116820180604052508101906109669190610ed4565b905060001960005b8351811015610af9578281141561098457610ae7565b6000336001600160a01b031663aea910788684815181106109a7576109a761107b565b60200260200101516040518263ffffffff1660e01b81526004016109da91906001600160a01b0391909116815260200190565b602060405180830381865afa1580156109f7573d6000803e3d6000fd5b505050506040513d601f19601f82011682018060405250810190610a1b9190610ed4565b90506000896001600160a01b03166354dea00a878581518110610a4057610a4061107b565b60200260200101516040518263ffffffff1660e01b8152600401610a7391906001600160a01b0391909116815260200190565b602060405180830381865afa158015610a90573d6000803e3d6000fd5b505050506040513d601f19601f82011682018060405250810190610ab49190610ed4565b9050600081610acb84670de0b6b3a7640000610daa565b610ad59190610dc9565b905084811015610ae3578094505b5050505b80610af181611091565b91505061096e565b50670de0b6b3a7640000876001600160a01b031663679aefce6040518163ffffffff1660e01b8152600401602060405180830381865afa158015610b41573d6000803e3d6000fd5b505050506040513d601f19601f82011682018060405250810190610b659190610ed4565b610b6f9083610daa565b610b799190610dc9565b9998505050505050505050565b603380546001600160a01b038381166001600160a01b0319831681179093556040519116919082907f8be0079c531659141344cd1fd0a4f28419497f9722a3daafe3b4186f6b6457e090600090a35050565b600054610100900460ff16610bff5760405162461bcd60e51b81526004016101f290610deb565b610600600054610100900460ff16610c295760405162461bcd60e51b81526004016101f290610deb565b61060033610b86565b6001600160a01b038116811461030a57600080fd5b600060208284031215610c5957600080fd5b813561059f81610c32565b600060208284031215610c7657600080fd5b815161059f81610c32565b600060208284031215610c9357600080fd5b815160ff8116811461059f57600080fd5b634e487b7160e01b600052601160045260246000fd5b600181815b80851115610cf5578160001904821115610cdb57610cdb610ca4565b80851615610ce857918102915b93841c9390800290610cbf565b509250929050565b600082610d0c57506001610318565b81610d1957506000610318565b8160018114610d2f5760028114610d3957610d55565b6001915050610318565b60ff841115610d4a57610d4a610ca4565b50506001821b610318565b5060208310610133831016604e8410600b8410161715610d78575081810a610318565b610d828383610cba565b8060001904821115610d9657610d96610ca4565b029392505050565b600061059f8383610cfd565b6000816000190483118215151615610dc457610dc4610ca4565b500290565b600082610de657634e487b7160e01b600052601260045260246000fd5b500490565b6020808252602b908201527f496e697469616c697a61626c653a20636f6e7472616374206973206e6f74206960408201526a6e697469616c697a696e6760a81b606082015260800190565b634e487b7160e01b600052604160045260246000fd5b6020808252825182820181905260009190848201906040850190845b81811015610e8d5783516001600160a01b031683529284019291840191600101610e68565b50909695505050505050565b6000825160005b81811015610eba5760208186018101518583015201610ea0565b81811115610ec9576000828501525b509190910192915050565b600060208284031215610ee657600080fd5b5051919050565b604051601f8201601f1916810167ffffffffffffffff81118282101715610f1657610f16610e36565b604052919050565b600067ffffffffffffffff821115610f3857610f38610e36565b5060051b60200190565b600082601f830112610f5357600080fd5b81516020610f68610f6383610f1e565b610eed565b82815260059290921b84018101918181019086841115610f8757600080fd5b8286015b84811015610fa25780518352918301918301610f8b565b509695505050505050565b600080600060608486031215610fc257600080fd5b835167ffffffffffffffff80821115610fda57600080fd5b818601915086601f830112610fee57600080fd5b81516020610ffe610f6383610f1e565b82815260059290921b8401810191818101908a84111561101d57600080fd5b948201945b8386101561104457855161103581610c32565b82529482019490820190611022565b9189015191975090935050508082111561105d57600080fd5b5061106a86828701610f42565b925050604084015190509250925092565b634e487b7160e01b600052603260045260246000fd5b60006000198214156110a5576110a5610ca4565b506001019056fea164736f6c634300080a000a",
    "linkReferences": {}
  },
  "methodIdentifiers": {
    "_acceptOwner()": "fc4d33f9",
    "_setPendingOwner(address)": "6e96dfd7",
    "getUnderlyingPrice(address)": "fc57d4df",
    "initialize()": "8129fc1c",
    "owner()": "8da5cb5b",
    "pendingOwner()": "e30c3978",
    "price(address)": "aea91078",
    "renounceOwnership()": "715018a6",
    "transferOwnership(address)": "f2fde38b"
  }
}