{
  "address": "0x1c86c8A911D861c27D0458370B227a2D8CeB92C1",
  "abi": [
    {
      "anonymous": false,
      "inputs": [
        {
          "indexed": false,
          "internalType": "uint8",
          "name": "version",
          "type": "uint8"
        }
      ],
      "name": "Initialized",
      "type": "event"
    },
    {
      "anonymous": false,
      "inputs": [
        {
          "indexed": false,
          "internalType": "address",
          "name": "oldOwner",
          "type": "address"
        },
        {
          "indexed": false,
          "internalType": "address",
          "name": "newOwner",
          "type": "address"
        }
      ],
      "name": "NewOwner",
      "type": "event"
    },
    {
      "anonymous": false,
      "inputs": [
        {
          "indexed": false,
          "internalType": "address",
          "name": "oldPendingOwner",
          "type": "address"
        },
        {
          "indexed": false,
          "internalType": "address",
          "name": "newPendingOwner",
          "type": "address"
        }
      ],
      "name": "NewPendingOwner",
      "type": "event"
    },
    {
      "anonymous": false,
      "inputs": [
        {
          "indexed": true,
          "internalType": "address",
          "name": "previousOwner",
          "type": "address"
        },
        {
          "indexed": true,
          "internalType": "address",
          "name": "newOwner",
          "type": "address"
        }
      ],
      "name": "OwnershipTransferred",
      "type": "event"
    },
    {
      "inputs": [],
      "name": "_acceptOwner",
      "outputs": [],
      "stateMutability": "nonpayable",
      "type": "function"
    },
    {
      "inputs": [
        {
          "internalType": "address",
          "name": "newPendingOwner",
          "type": "address"
        }
      ],
      "name": "_setPendingOwner",
      "outputs": [],
      "stateMutability": "nonpayable",
      "type": "function"
    },
    {
      "inputs": [],
      "name": "getAllUnderlyings",
      "outputs": [
        {
          "internalType": "address[]",
          "name": "",
          "type": "address[]"
        }
      ],
      "stateMutability": "view",
      "type": "function"
    },
    {
      "inputs": [
        {
          "internalType": "contract ICToken",
          "name": "cToken",
          "type": "address"
        }
      ],
      "name": "getUnderlyingPrice",
      "outputs": [
        {
          "internalType": "uint256",
          "name": "",
          "type": "uint256"
        }
      ],
      "stateMutability": "view",
      "type": "function"
    },
    {
      "inputs": [
        {
          "internalType": "address[]",
          "name": "_underlyings",
          "type": "address[]"
        }
      ],
      "name": "initialize",
      "outputs": [],
      "stateMutability": "nonpayable",
      "type": "function"
    },
    {
      "inputs": [],
      "name": "owner",
      "outputs": [
        {
          "internalType": "address",
          "name": "",
          "type": "address"
        }
      ],
      "stateMutability": "view",
      "type": "function"
    },
    {
      "inputs": [],
      "name": "pendingOwner",
      "outputs": [
        {
          "internalType": "address",
          "name": "",
          "type": "address"
        }
      ],
      "stateMutability": "view",
      "type": "function"
    },
    {
      "inputs": [
        {
          "internalType": "address",
          "name": "underlying",
          "type": "address"
        }
      ],
      "name": "price",
      "outputs": [
        {
          "internalType": "uint256",
          "name": "",
          "type": "uint256"
        }
      ],
      "stateMutability": "view",
      "type": "function"
    },
    {
      "inputs": [
        {
          "internalType": "address",
          "name": "_underlying",
          "type": "address"
        }
      ],
      "name": "registerToken",
      "outputs": [],
      "stateMutability": "nonpayable",
      "type": "function"
    },
    {
      "inputs": [],
      "name": "renounceOwnership",
      "outputs": [],
      "stateMutability": "nonpayable",
      "type": "function"
    },
    {
      "inputs": [
        {
          "internalType": "address",
          "name": "newOwner",
          "type": "address"
        }
      ],
      "name": "transferOwnership",
      "outputs": [],
      "stateMutability": "nonpayable",
      "type": "function"
    },
    {
      "inputs": [
        {
          "internalType": "uint256",
          "name": "",
          "type": "uint256"
        }
      ],
      "name": "underlyings",
      "outputs": [
        {
          "internalType": "address",
          "name": "",
          "type": "address"
        }
      ],
      "stateMutability": "view",
      "type": "function"
    }
  ],
  "transactionHash": "0xe870321b0d19c0acfb821fa945dd239ab409bbc4e3531c2ae06c29014e8b414e",
  "args": [],
  "numDeployments": 2,
  "bytecode": {
    "object": "0x608060405234801561001057600080fd5b5061102d806100206000396000f3fe608060405234801561001057600080fd5b50600436106100b45760003560e01c8063c3f80bc411610071578063c3f80bc414610147578063cea0252e1461015c578063e30c39781461016f578063f2fde38b14610182578063fc4d33f914610195578063fc57d4df1461019d57600080fd5b806309824a80146100b95780636e96dfd7146100ce578063715018a6146100e15780638da5cb5b146100e9578063a224cee714610113578063aea9107814610126575b600080fd5b6100cc6100c7366004610c77565b6101b0565b005b6100cc6100dc366004610c77565b61026f565b6100cc6102d9565b6033546001600160a01b03165b6040516001600160a01b0390911681526020015b60405180910390f35b6100cc610121366004610caa565b610321565b610139610134366004610c77565b610440565b60405190815260200161010a565b61014f610451565b60405161010a9190610d63565b6100f661016a366004610db0565b6104b3565b6065546100f6906001600160a01b031681565b6100cc610190366004610c77565b6104dd565b6100cc61054e565b6101396101ab366004610c77565b610662565b6101b8610765565b6000805b60665481101561021957826001600160a01b0316606682815481106101e3576101e3610dc9565b6000918252602090912001546001600160a01b031614156102075760019150610219565b8061021181610df5565b9150506101bc565b508061026b57606680546001810182556000919091527f46501879b8ca8525e8c2fd519e2fbfcfa2ebea26501294aa02cbfcfb12e943540180546001600160a01b0319166001600160a01b0384161790555b5050565b610277610765565b606580546001600160a01b038381166001600160a01b031983168117909355604080519190921680825260208201939093527fb3d55174552271a4f1aaf36b72f50381e892171636b3fb5447fe00e995e7a37b91015b60405180910390a15050565b6102e1610765565b60405162461bcd60e51b815260206004820152601060248201526f6e6f74207573656420616e796d6f726560801b60448201526064015b60405180910390fd5b600054610100900460ff16158080156103415750600054600160ff909116105b8061035b5750303b15801561035b575060005460ff166001145b6103be5760405162461bcd60e51b815260206004820152602e60248201527f496e697469616c697a61626c653a20636f6e747261637420697320616c72656160448201526d191e481a5b9a5d1a585b1a5e995960921b6064820152608401610318565b6000805460ff1916600117905580156103e1576000805461ff0019166101001790555b6103ea336107c1565b81516103fd906066906020850190610bd8565b50801561026b576000805461ff0019169055604051600181527f7f26b83ff96e1f2b6a682f133852f6798a09c465da95921460cefb3847402498906020016102cd565b600061044b826107fc565b92915050565b606060668054806020026020016040519081016040528092919081815260200182805480156104a957602002820191906000526020600020905b81546001600160a01b0316815260019091019060200180831161048b575b5050505050905090565b606681815481106104c357600080fd5b6000918252602090912001546001600160a01b0316905081565b6104e5610765565b606554604080516001600160a01b03928316815291831660208301527fb3d55174552271a4f1aaf36b72f50381e892171636b3fb5447fe00e995e7a37b910160405180910390a1606580546001600160a01b0319166001600160a01b0392909216919091179055565b6065546001600160a01b031633146105a05760405162461bcd60e51b81526020600482015260156024820152743737ba103a3432903832b73234b7339037bbb732b960591b6044820152606401610318565b60006105b46033546001600160a01b031690565b6065549091506001600160a01b03166105cc81610b2c565b606580546001600160a01b0319169055604080516001600160a01b0384168152600060208201527f70aea8d848e8a90fb7661b227dc522eb6395c3dac71b63cb59edd5c9899b2364910160405180910390a1606554604080516001600160a01b03808516825290921660208301527fb3d55174552271a4f1aaf36b72f50381e892171636b3fb5447fe00e995e7a37b91016102cd565b600080826001600160a01b0316636f307dc36040518163ffffffff1660e01b8152600401602060405180830381865afa1580156106a3573d6000803e3d6000fd5b505050506040513d601f19601f820116820180604052508101906106c79190610e10565b9050806001600160a01b031663313ce5676040518163ffffffff1660e01b8152600401602060405180830381865afa158015610707573d6000803e3d6000fd5b505050506040513d601f19601f8201168201806040525081019061072b9190610e2d565b6107399060ff16600a610f34565b610742826107fc565b61075490670de0b6b3a7640000610f40565b61075e9190610f5f565b9392505050565b6033546001600160a01b031633146107bf5760405162461bcd60e51b815260206004820181905260248201527f4f776e61626c653a2063616c6c6572206973206e6f7420746865206f776e65726044820152606401610318565b565b600054610100900460ff166107e85760405162461bcd60e51b815260040161031890610f81565b6107f0610b7e565b6107f981610b2c565b50565b6000808290506000816001600160a01b0316638d928af86040518163ffffffff1660e01b8152600401602060405180830381865afa158015610842573d6000803e3d6000fd5b505050506040513d601f19601f820116820180604052508101906108669190610e10565b90506000826001600160a01b0316634de046d56040518163ffffffff1660e01b8152600401602060405180830381865afa1580156108a8573d6000803e3d6000fd5b505050506040513d601f19601f820116820180604052508101906108cc9190610e10565b60408051600080825260208201909252919250906001600160a01b038416906303a38fa160e21b906109019060448101610d63565b60408051601f198184030181529181526020820180516001600160e01b03166001600160e01b031990941693909317909252905161093f9190610fcc565b600060405180830381855afa9150503d806000811461097a576040519150601f19603f3d011682016040523d82523d6000602084013e61097f565b606091505b50604051602060248201526007604482015266042414c233430360cc1b6064820152909250608401905060408051601f19818403018152919052602080820180516001600160e01b031662461bcd60e51b17815291519091208251918301919091201415610a2f5760405162461bcd60e51b815260206004820152601e60248201527f42616c616e636572207661756c742076696577207265656e7472616e637900006044820152606401610318565b6000846001600160a01b031663679aefce6040518163ffffffff1660e01b8152600401602060405180830381865afa158015610a6f573d6000803e3d6000fd5b505050506040513d601f19601f82011682018060405250810190610a939190611007565b6040516315d5220f60e31b81526001600160a01b0385166004820152909150600090339063aea9107890602401602060405180830381865afa158015610add573d6000803e3d6000fd5b505050506040513d601f19601f82011682018060405250810190610b019190611007565b9050670de0b6b3a7640000610b168284610f40565b610b209190610f5f565b98975050505050505050565b603380546001600160a01b038381166001600160a01b0319831681179093556040519116919082907f8be0079c531659141344cd1fd0a4f28419497f9722a3daafe3b4186f6b6457e090600090a35050565b600054610100900460ff16610ba55760405162461bcd60e51b815260040161031890610f81565b6107bf600054610100900460ff16610bcf5760405162461bcd60e51b815260040161031890610f81565b6107bf33610b2c565b828054828255906000526020600020908101928215610c2d579160200282015b82811115610c2d57825182546001600160a01b0319166001600160a01b03909116178255602090920191600190910190610bf8565b50610c39929150610c3d565b5090565b5b80821115610c395760008155600101610c3e565b6001600160a01b03811681146107f957600080fd5b8035610c7281610c52565b919050565b600060208284031215610c8957600080fd5b813561075e81610c52565b634e487b7160e01b600052604160045260246000fd5b60006020808385031215610cbd57600080fd5b823567ffffffffffffffff80821115610cd557600080fd5b818501915085601f830112610ce957600080fd5b813581811115610cfb57610cfb610c94565b8060051b604051601f19603f83011681018181108582111715610d2057610d20610c94565b604052918252848201925083810185019188831115610d3e57600080fd5b938501935b82851015610b2057610d5485610c67565b84529385019392850192610d43565b6020808252825182820181905260009190848201906040850190845b81811015610da45783516001600160a01b031683529284019291840191600101610d7f565b50909695505050505050565b600060208284031215610dc257600080fd5b5035919050565b634e487b7160e01b600052603260045260246000fd5b634e487b7160e01b600052601160045260246000fd5b6000600019821415610e0957610e09610ddf565b5060010190565b600060208284031215610e2257600080fd5b815161075e81610c52565b600060208284031215610e3f57600080fd5b815160ff8116811461075e57600080fd5b600181815b80851115610e8b578160001904821115610e7157610e71610ddf565b80851615610e7e57918102915b93841c9390800290610e55565b509250929050565b600082610ea25750600161044b565b81610eaf5750600061044b565b8160018114610ec55760028114610ecf57610eeb565b600191505061044b565b60ff841115610ee057610ee0610ddf565b50506001821b61044b565b5060208310610133831016604e8410600b8410161715610f0e575081810a61044b565b610f188383610e50565b8060001904821115610f2c57610f2c610ddf565b029392505050565b600061075e8383610e93565b6000816000190483118215151615610f5a57610f5a610ddf565b500290565b600082610f7c57634e487b7160e01b600052601260045260246000fd5b500490565b6020808252602b908201527f496e697469616c697a61626c653a20636f6e7472616374206973206e6f74206960408201526a6e697469616c697a696e6760a81b606082015260800190565b6000825160005b81811015610fed5760208186018101518583015201610fd3565b81811115610ffc576000828501525b509190910192915050565b60006020828403121561101957600080fd5b505191905056fea164736f6c634300080a000a",
    "linkReferences": {}
  },
  "methodIdentifiers": {
    "_acceptOwner()": "fc4d33f9",
    "_setPendingOwner(address)": "6e96dfd7",
    "getAllUnderlyings()": "c3f80bc4",
    "getUnderlyingPrice(address)": "fc57d4df",
    "initialize(address[])": "a224cee7",
    "owner()": "8da5cb5b",
    "pendingOwner()": "e30c3978",
    "price(address)": "aea91078",
    "registerToken(address)": "09824a80",
    "renounceOwnership()": "715018a6",
    "transferOwnership(address)": "f2fde38b",
    "underlyings(uint256)": "cea0252e"
  }
}