{
  "address": "0x22F1B04104f994D27B89cDB1d7f98102cA5F30cB",
  "abi": [
    {
      "anonymous": false,
      "inputs": [
        {
          "indexed": false,
          "internalType": "uint8",
          "name": "version",
          "type": "uint8"
        }
      ],
      "name": "Initialized",
      "type": "event"
    },
    {
      "anonymous": false,
      "inputs": [
        {
          "indexed": false,
          "internalType": "address",
          "name": "oldOwner",
          "type": "address"
        },
        {
          "indexed": false,
          "internalType": "address",
          "name": "newOwner",
          "type": "address"
        }
      ],
      "name": "NewOwner",
      "type": "event"
    },
    {
      "anonymous": false,
      "inputs": [
        {
          "indexed": false,
          "internalType": "address",
          "name": "oldPendingOwner",
          "type": "address"
        },
        {
          "indexed": false,
          "internalType": "address",
          "name": "newPendingOwner",
          "type": "address"
        }
      ],
      "name": "NewPendingOwner",
      "type": "event"
    },
    {
      "anonymous": false,
      "inputs": [
        {
          "indexed": true,
          "internalType": "address",
          "name": "previousOwner",
          "type": "address"
        },
        {
          "indexed": true,
          "internalType": "address",
          "name": "newOwner",
          "type": "address"
        }
      ],
      "name": "OwnershipTransferred",
      "type": "event"
    },
    {
      "inputs": [],
      "name": "BONE",
      "outputs": [
        {
          "internalType": "uint256",
          "name": "",
          "type": "uint256"
        }
      ],
      "stateMutability": "view",
      "type": "function"
    },
    {
      "inputs": [],
      "name": "BPOW_PRECISION",
      "outputs": [
        {
          "internalType": "uint256",
          "name": "",
          "type": "uint256"
        }
      ],
      "stateMutability": "view",
      "type": "function"
    },
    {
      "inputs": [],
      "name": "EXIT_FEE",
      "outputs": [
        {
          "internalType": "uint256",
          "name": "",
          "type": "uint256"
        }
      ],
      "stateMutability": "view",
      "type": "function"
    },
    {
      "inputs": [],
      "name": "INIT_POOL_SUPPLY",
      "outputs": [
        {
          "internalType": "uint256",
          "name": "",
          "type": "uint256"
        }
      ],
      "stateMutability": "view",
      "type": "function"
    },
    {
      "inputs": [],
      "name": "MAX_BOUND_TOKENS",
      "outputs": [
        {
          "internalType": "uint256",
          "name": "",
          "type": "uint256"
        }
      ],
      "stateMutability": "view",
      "type": "function"
    },
    {
      "inputs": [],
      "name": "MAX_BPOW_BASE",
      "outputs": [
        {
          "internalType": "uint256",
          "name": "",
          "type": "uint256"
        }
      ],
      "stateMutability": "view",
      "type": "function"
    },
    {
      "inputs": [],
      "name": "MAX_FEE",
      "outputs": [
        {
          "internalType": "uint256",
          "name": "",
          "type": "uint256"
        }
      ],
      "stateMutability": "view",
      "type": "function"
    },
    {
      "inputs": [],
      "name": "MAX_IN_RATIO",
      "outputs": [
        {
          "internalType": "uint256",
          "name": "",
          "type": "uint256"
        }
      ],
      "stateMutability": "view",
      "type": "function"
    },
    {
      "inputs": [],
      "name": "MAX_OUT_RATIO",
      "outputs": [
        {
          "internalType": "uint256",
          "name": "",
          "type": "uint256"
        }
      ],
      "stateMutability": "view",
      "type": "function"
    },
    {
      "inputs": [],
      "name": "MAX_TOTAL_WEIGHT",
      "outputs": [
        {
          "internalType": "uint256",
          "name": "",
          "type": "uint256"
        }
      ],
      "stateMutability": "view",
      "type": "function"
    },
    {
      "inputs": [],
      "name": "MAX_WEIGHT",
      "outputs": [
        {
          "internalType": "uint256",
          "name": "",
          "type": "uint256"
        }
      ],
      "stateMutability": "view",
      "type": "function"
    },
    {
      "inputs": [],
      "name": "MIN_BALANCE",
      "outputs": [
        {
          "internalType": "uint256",
          "name": "",
          "type": "uint256"
        }
      ],
      "stateMutability": "view",
      "type": "function"
    },
    {
      "inputs": [],
      "name": "MIN_BOUND_TOKENS",
      "outputs": [
        {
          "internalType": "uint256",
          "name": "",
          "type": "uint256"
        }
      ],
      "stateMutability": "view",
      "type": "function"
    },
    {
      "inputs": [],
      "name": "MIN_BPOW_BASE",
      "outputs": [
        {
          "internalType": "uint256",
          "name": "",
          "type": "uint256"
        }
      ],
      "stateMutability": "view",
      "type": "function"
    },
    {
      "inputs": [],
      "name": "MIN_FEE",
      "outputs": [
        {
          "internalType": "uint256",
          "name": "",
          "type": "uint256"
        }
      ],
      "stateMutability": "view",
      "type": "function"
    },
    {
      "inputs": [],
      "name": "MIN_WEIGHT",
      "outputs": [
        {
          "internalType": "uint256",
          "name": "",
          "type": "uint256"
        }
      ],
      "stateMutability": "view",
      "type": "function"
    },
    {
      "inputs": [],
      "name": "_acceptOwner",
      "outputs": [],
      "stateMutability": "nonpayable",
      "type": "function"
    },
    {
      "inputs": [
        {
          "internalType": "address",
          "name": "newPendingOwner",
          "type": "address"
        }
      ],
      "name": "_setPendingOwner",
      "outputs": [],
      "stateMutability": "nonpayable",
      "type": "function"
    },
    {
      "inputs": [
        {
          "internalType": "contract ICToken",
          "name": "cToken",
          "type": "address"
        }
      ],
      "name": "getUnderlyingPrice",
      "outputs": [
        {
          "internalType": "uint256",
          "name": "",
          "type": "uint256"
        }
      ],
      "stateMutability": "view",
      "type": "function"
    },
    {
      "inputs": [
        {
          "internalType": "contract MasterPriceOracle",
          "name": "_masterPriceOracle",
          "type": "address"
        }
      ],
      "name": "initialize",
      "outputs": [],
      "stateMutability": "nonpayable",
      "type": "function"
    },
    {
      "inputs": [],
      "name": "masterPriceOracle",
      "outputs": [
        {
          "internalType": "contract MasterPriceOracle",
          "name": "",
          "type": "address"
        }
      ],
      "stateMutability": "view",
      "type": "function"
    },
    {
      "inputs": [],
      "name": "owner",
      "outputs": [
        {
          "internalType": "address",
          "name": "",
          "type": "address"
        }
      ],
      "stateMutability": "view",
      "type": "function"
    },
    {
      "inputs": [],
      "name": "pendingOwner",
      "outputs": [
        {
          "internalType": "address",
          "name": "",
          "type": "address"
        }
      ],
      "stateMutability": "view",
      "type": "function"
    },
    {
      "inputs": [
        {
          "internalType": "address",
          "name": "underlying",
          "type": "address"
        }
      ],
      "name": "price",
      "outputs": [
        {
          "internalType": "uint256",
          "name": "",
          "type": "uint256"
        }
      ],
      "stateMutability": "view",
      "type": "function"
    },
    {
      "inputs": [],
      "name": "renounceOwnership",
      "outputs": [],
      "stateMutability": "nonpayable",
      "type": "function"
    },
    {
      "inputs": [
        {
          "internalType": "address",
          "name": "newOwner",
          "type": "address"
        }
      ],
      "name": "transferOwnership",
      "outputs": [],
      "stateMutability": "nonpayable",
      "type": "function"
    }
  ],
  "transactionHash": "0x80a09f2944312b88e87eeee7e75575d33187f84874d6321b2a1b55fb9a479c28",
  "args": [],
  "numDeployments": 2,
  "bytecode": {
    "object": "0x608060405234801561001057600080fd5b50611a03806100206000396000f3fe608060405234801561001057600080fd5b506004361061018e5760003560e01c8063b7b800a4116100de578063c6580d1211610097578063ec09302111610071578063ec093021146102a3578063f2fde38b146102ab578063fc4d33f9146102be578063fc57d4df146102c657600080fd5b8063c6580d1214610288578063e30c397814610290578063e4a28a521461019357600080fd5b8063b7b800a414610255578063ba019dab1461025d578063bc063e1a14610265578063bc694ea21461026d578063c36596a6146101b6578063c4d66de81461027557600080fd5b8063867378c51161014b578063992e2a9211610125578063992e2a921461021f578063aea9107814610227578063b0e0d1361461023a578063b46493a71461024257600080fd5b8063867378c5146101ea5780638da5cb5b146101f25780639381cd2b1461021757600080fd5b806309a3bbe414610193578063189d00ca146101ae578063218b5382146101b65780636e96dfd7146101c5578063715018a6146101da57806376c7a3c7146101e2575b600080fd5b61019b6102d9565b6040519081526020015b60405180910390f35b61019b6102ef565b61019b670de0b6b3a764000081565b6101d86101d3366004611591565b610306565b005b6101d8610370565b61019b610384565b61019b610399565b6033546001600160a01b03165b6040516001600160a01b0390911681526020016101a5565b61019b6103b0565b61019b6103c3565b61019b610235366004611591565b6103e1565b61019b600881565b6066546101ff906001600160a01b031681565b61019b600281565b61019b600181565b61019b6103f2565b61019b610405565b6101d8610283366004611591565b610424565b61019b600081565b6065546101ff906001600160a01b031681565b61019b610552565b6101d86102b9366004611591565b610565565b6101d86105de565b61019b6102d4366004611591565b6106f2565b6102ec670de0b6b3a764000060326115c4565b81565b6102ec6402540be400670de0b6b3a76400006115f9565b61030e6107f5565b606580546001600160a01b038381166001600160a01b031983168117909355604080519190921680825260208201939093527fb3d55174552271a4f1aaf36b72f50381e892171636b3fb5447fe00e995e7a37b91015b60405180910390a15050565b6103786107f5565b610382600061084f565b565b6102ec620f4240670de0b6b3a76400006115f9565b6102ec64e8d4a51000670de0b6b3a76400006115f9565b6102ec670de0b6b3a764000060646115c4565b6103d66003670de0b6b3a76400006115f9565b6102ec90600161160d565b60006103ec826108a1565b92915050565b6102ec600a670de0b6b3a76400006115f9565b600161041a670de0b6b3a764000060026115c4565b6102ec9190611625565b600054610100900460ff16158080156104445750600054600160ff909116105b8061045e5750303b15801561045e575060005460ff166001145b6104c65760405162461bcd60e51b815260206004820152602e60248201527f496e697469616c697a61626c653a20636f6e747261637420697320616c72656160448201526d191e481a5b9a5d1a585b1a5e995960921b60648201526084015b60405180910390fd5b6000805460ff1916600117905580156104e9576000805461ff0019166101001790555b6104f1610e9b565b606680546001600160a01b0319166001600160a01b038416179055801561054e576000805461ff0019169055604051600181527f7f26b83ff96e1f2b6a682f133852f6798a09c465da95921460cefb384740249890602001610364565b5050565b6102ec6002670de0b6b3a76400006115f9565b61056d6107f5565b6001600160a01b0381166105d25760405162461bcd60e51b815260206004820152602660248201527f4f776e61626c653a206e6577206f776e657220697320746865207a65726f206160448201526564647265737360d01b60648201526084016104bd565b6105db8161084f565b50565b6065546001600160a01b031633146106305760405162461bcd60e51b81526020600482015260156024820152743737ba103a3432903832b73234b7339037bbb732b960591b60448201526064016104bd565b60006106446033546001600160a01b031690565b6065549091506001600160a01b031661065c8161084f565b606580546001600160a01b0319169055604080516001600160a01b0384168152600060208201527f70aea8d848e8a90fb7661b227dc522eb6395c3dac71b63cb59edd5c9899b2364910160405180910390a1606554604080516001600160a01b03808516825290921660208301527fb3d55174552271a4f1aaf36b72f50381e892171636b3fb5447fe00e995e7a37b9101610364565b600080826001600160a01b0316636f307dc36040518163ffffffff1660e01b8152600401602060405180830381865afa158015610733573d6000803e3d6000fd5b505050506040513d601f19601f82011682018060405250810190610757919061163c565b9050806001600160a01b031663313ce5676040518163ffffffff1660e01b8152600401602060405180830381865afa158015610797573d6000803e3d6000fd5b505050506040513d601f19601f820116820180604052508101906107bb9190611659565b6107c99060ff16600a611760565b6107d2826108a1565b6107e490670de0b6b3a76400006115c4565b6107ee91906115f9565b9392505050565b6033546001600160a01b031633146103825760405162461bcd60e51b815260206004820181905260248201527f4f776e61626c653a2063616c6c6572206973206e6f7420746865206f776e657260448201526064016104bd565b603380546001600160a01b038381166001600160a01b0319831681179093556040519116919082907f8be0079c531659141344cd1fd0a4f28419497f9722a3daafe3b4186f6b6457e090600090a35050565b6000808290506000816001600160a01b03166338fff2d06040518163ffffffff1660e01b8152600401602060405180830381865afa1580156108e7573d6000803e3d6000fd5b505050506040513d601f19601f8201168201806040525081019061090b919061176c565b90506000826001600160a01b0316638d928af86040518163ffffffff1660e01b8152600401602060405180830381865afa15801561094d573d6000803e3d6000fd5b505050506040513d601f19601f82011682018060405250810190610971919061163c565b9050600080826001600160a01b031663f94d4668856040518263ffffffff1660e01b81526004016109a491815260200190565b600060405180830381865afa1580156109c1573d6000803e3d6000fd5b505050506040513d6000823e601f3d908101601f191682016040526109e9919081019061185b565b50915091508151600214610a5b5760405162461bcd60e51b815260206004820152603360248201527f4f7261636c65207375697461626c65206f6e6c7920666f722042616c616e63656044820152727220506f6f6c73206f66203220746f6b656e7360681b60648201526084016104bd565b600082600081518110610a7057610a70611929565b60200260200101519050600083600181518110610a8f57610a8f611929565b602002602001015190506000876001600160a01b031663f89f27ed6040518163ffffffff1660e01b8152600401600060405180830381865afa158015610ad9573d6000803e3d6000fd5b505050506040513d6000823e601f3d908101601f19168201604052610b01919081019061193f565b6066546040516315d5220f60e31b81526001600160a01b0386811660048301529293506000929091169063aea9107890602401602060405180830381865afa158015610b51573d6000803e3d6000fd5b505050506040513d601f19601f82011682018060405250810190610b75919061176c565b6066546040516315d5220f60e31b81526001600160a01b0386811660048301529293506000929091169063aea9107890602401602060405180830381865afa158015610bc5573d6000803e3d6000fd5b505050506040513d601f19601f82011682018060405250810190610be9919061176c565b90506000856001600160a01b031663313ce5676040518163ffffffff1660e01b8152600401602060405180830381865afa158015610c2b573d6000803e3d6000fd5b505050506040513d601f19601f82011682018060405250810190610c4f9190611659565b90506000856001600160a01b031663313ce5676040518163ffffffff1660e01b8152600401602060405180830381865afa158015610c91573d6000803e3d6000fd5b505050506040513d601f19601f82011682018060405250810190610cb59190611659565b905060128260ff161015610ce957610cd160ff83166012611625565b610cdc90600a611760565b610ce690856115c4565b93505b60128260ff161115610d1b57610d03601260ff8416611625565b610d0e90600a611760565b610d1890856115f9565b93505b60128160ff161015610d4d57610d3560ff82166012611625565b610d4090600a611760565b610d4a90846115c4565b92505b60128160ff161115610d7f57610d67601260ff8316611625565b610d7290600a611760565b610d7c90846115f9565b92505b600080610df88a600081518110610d9857610d98611929565b60200260200101518b600181518110610db357610db3611929565b602002602001015189600081518110610dce57610dce611929565b60200260200101518a600181518110610de957610de9611929565b60200260200101518a8a610eca565b915091508d6001600160a01b03166318160ddd6040518163ffffffff1660e01b8152600401602060405180830381865afa158015610e3a573d6000803e3d6000fd5b505050506040513d601f19601f82011682018060405250810190610e5e919061176c565b610e6886836115c4565b610e7288856115c4565b610e7c919061160d565b610e8691906115f9565b9e505050505050505050505050505050919050565b600054610100900460ff16610ec25760405162461bcd60e51b81526004016104bd9061197c565b610382610f79565b6000806000610ed98989610fa8565b90506000610ef9610eea89876110ca565b610ef489896110ca565b610fa8565b905080821115610f3c576000610f0f8284610fa8565b9050610f248b610f1f838b6111a5565b6110ca565b9450610f348a610ef4838c6111a5565b935050610f6c565b6000610f488383610fa8565b9050610f588b610ef4838b6111a5565b9450610f688a610f1f838c6111a5565b9350505b5050965096945050505050565b600054610100900460ff16610fa05760405162461bcd60e51b81526004016104bd9061197c565b6103826112d1565b600081610fe65760405162461bcd60e51b815260206004820152600c60248201526b4552525f4449565f5a45524f60a01b60448201526064016104bd565b6000610ffa670de0b6b3a7640000856115c4565b90508315806110195750670de0b6b3a764000061101785836115f9565b145b6110585760405162461bcd60e51b815260206004820152601060248201526f11549497d1125597d25395115493905360821b60448201526064016104bd565b60006110656002856115f9565b61106f908361160d565b9050818110156110b45760405162461bcd60e51b815260206004820152601060248201526f11549497d1125597d25395115493905360821b60448201526064016104bd565b60006110c085836115f9565b9695505050505050565b6000806110d783856115c4565b90508315806110ee5750826110ec85836115f9565b145b61112d5760405162461bcd60e51b815260206004820152601060248201526f4552525f4d554c5f4f564552464c4f5760801b60448201526064016104bd565b60006111426002670de0b6b3a76400006115f9565b61114c908361160d565b9050818110156111915760405162461bcd60e51b815260206004820152601060248201526f4552525f4d554c5f4f564552464c4f5760801b60448201526064016104bd565b60006110c0670de0b6b3a7640000836115f9565b600060018310156111f05760405162461bcd60e51b81526020600482015260156024820152744552525f42504f575f424153455f544f4f5f4c4f5760581b60448201526064016104bd565b6001611205670de0b6b3a764000060026115c4565b61120f9190611625565b8311156112575760405162461bcd60e51b815260206004820152601660248201527508aa4a4be84a09eaebe8482a68abea89e9ebe90928e960531b60448201526064016104bd565b600061126283611301565b90506000611270848361131f565b90506000611286866112818561137c565b611390565b9050816112975792506103ec915050565b60006112ba87846112b56402540be400670de0b6b3a76400006115f9565b611403565b90506112c682826110ca565b979650505050505050565b600054610100900460ff166112f85760405162461bcd60e51b81526004016104bd9061197c565b6103823361084f565b6000670de0b6b3a76400006113158361137c565b6103ec91906115c4565b600080600061132e85856114f3565b9150915080156113745760405162461bcd60e51b81526020600482015260116024820152704552525f5355425f554e444552464c4f5760781b60448201526064016104bd565b509392505050565b60006103ec670de0b6b3a7640000836115f9565b60008061139e6002846119c7565b6113b057670de0b6b3a76400006113b2565b835b90506113bf6002846115f9565b92505b82156107ee576113d284856110ca565b93506113df6002846119c7565b156113f1576113ee81856110ca565b90505b6113fc6002846115f9565b92506113c2565b600082818061141a87670de0b6b3a76400006114f3565b9092509050670de0b6b3a764000080600060015b8884106114e4576000611449670de0b6b3a7640000836115c4565b90506000806114698a61146485670de0b6b3a764000061131f565b6114f3565b9150915061147b87610f1f848c6110ca565b96506114878784610fa8565b965086611496575050506114e4565b87156114a0579315935b80156114aa579315935b84156114c1576114ba868861131f565b95506114ce565b6114cb868861152a565b95505b50505080806114dc906119db565b91505061142e565b50909998505050505050505050565b600080828410611512576115078385611625565b600091509150611523565b61151c8484611625565b6001915091505b9250929050565b600080611537838561160d565b9050838110156107ee5760405162461bcd60e51b815260206004820152601060248201526f4552525f4144445f4f564552464c4f5760801b60448201526064016104bd565b6001600160a01b03811681146105db57600080fd5b6000602082840312156115a357600080fd5b81356107ee8161157c565b634e487b7160e01b600052601160045260246000fd5b60008160001904831182151516156115de576115de6115ae565b500290565b634e487b7160e01b600052601260045260246000fd5b600082611608576116086115e3565b500490565b60008219821115611620576116206115ae565b500190565b600082821015611637576116376115ae565b500390565b60006020828403121561164e57600080fd5b81516107ee8161157c565b60006020828403121561166b57600080fd5b815160ff811681146107ee57600080fd5b600181815b808511156116b757816000190482111561169d5761169d6115ae565b808516156116aa57918102915b93841c9390800290611681565b509250929050565b6000826116ce575060016103ec565b816116db575060006103ec565b81600181146116f157600281146116fb57611717565b60019150506103ec565b60ff84111561170c5761170c6115ae565b50506001821b6103ec565b5060208310610133831016604e8410600b841016171561173a575081810a6103ec565b611744838361167c565b8060001904821115611758576117586115ae565b029392505050565b60006107ee83836116bf565b60006020828403121561177e57600080fd5b5051919050565b634e487b7160e01b600052604160045260246000fd5b604051601f8201601f1916810167ffffffffffffffff811182821017156117c4576117c4611785565b604052919050565b600067ffffffffffffffff8211156117e6576117e6611785565b5060051b60200190565b600082601f83011261180157600080fd5b81516020611816611811836117cc565b61179b565b82815260059290921b8401810191818101908684111561183557600080fd5b8286015b848110156118505780518352918301918301611839565b509695505050505050565b60008060006060848603121561187057600080fd5b835167ffffffffffffffff8082111561188857600080fd5b818601915086601f83011261189c57600080fd5b815160206118ac611811836117cc565b82815260059290921b8401810191818101908a8411156118cb57600080fd5b948201945b838610156118f25785516118e38161157c565b825294820194908201906118d0565b9189015191975090935050508082111561190b57600080fd5b50611918868287016117f0565b925050604084015190509250925092565b634e487b7160e01b600052603260045260246000fd5b60006020828403121561195157600080fd5b815167ffffffffffffffff81111561196857600080fd5b611974848285016117f0565b949350505050565b6020808252602b908201527f496e697469616c697a61626c653a20636f6e7472616374206973206e6f74206960408201526a6e697469616c697a696e6760a81b606082015260800190565b6000826119d6576119d66115e3565b500690565b60006000198214156119ef576119ef6115ae565b506001019056fea164736f6c634300080a000a",
    "linkReferences": {}
  },
  "methodIdentifiers": {
    "BONE()": "c36596a6",
    "BPOW_PRECISION()": "189d00ca",
    "EXIT_FEE()": "c6580d12",
    "INIT_POOL_SUPPLY()": "9381cd2b",
    "MAX_BOUND_TOKENS()": "b0e0d136",
    "MAX_BPOW_BASE()": "bc694ea2",
    "MAX_FEE()": "bc063e1a",
    "MAX_IN_RATIO()": "ec093021",
    "MAX_OUT_RATIO()": "992e2a92",
    "MAX_TOTAL_WEIGHT()": "09a3bbe4",
    "MAX_WEIGHT()": "e4a28a52",
    "MIN_BALANCE()": "867378c5",
    "MIN_BOUND_TOKENS()": "b7b800a4",
    "MIN_BPOW_BASE()": "ba019dab",
    "MIN_FEE()": "76c7a3c7",
    "MIN_WEIGHT()": "218b5382",
    "_acceptOwner()": "fc4d33f9",
    "_setPendingOwner(address)": "6e96dfd7",
    "getUnderlyingPrice(address)": "fc57d4df",
    "initialize(address)": "c4d66de8",
    "masterPriceOracle()": "b46493a7",
    "owner()": "8da5cb5b",
    "pendingOwner()": "e30c3978",
    "price(address)": "aea91078",
    "renounceOwnership()": "715018a6",
    "transferOwnership(address)": "f2fde38b"
  }
}