{
  "address": "0xF91357Ef0A73746f5728AA947Ed15fEb80713CD6",
  "abi": [
    {
      "anonymous": false,
      "inputs": [
        {
          "indexed": false,
          "internalType": "uint8",
          "name": "version",
          "type": "uint8"
        }
      ],
      "name": "Initialized",
      "type": "event"
    },
    {
      "anonymous": false,
      "inputs": [
        {
          "indexed": false,
          "internalType": "address",
          "name": "oldOwner",
          "type": "address"
        },
        {
          "indexed": false,
          "internalType": "address",
          "name": "newOwner",
          "type": "address"
        }
      ],
      "name": "NewOwner",
      "type": "event"
    },
    {
      "anonymous": false,
      "inputs": [
        {
          "indexed": false,
          "internalType": "address",
          "name": "oldPendingOwner",
          "type": "address"
        },
        {
          "indexed": false,
          "internalType": "address",
          "name": "newPendingOwner",
          "type": "address"
        }
      ],
      "name": "NewPendingOwner",
      "type": "event"
    },
    {
      "anonymous": false,
      "inputs": [
        {
          "indexed": true,
          "internalType": "address",
          "name": "previousOwner",
          "type": "address"
        },
        {
          "indexed": true,
          "internalType": "address",
          "name": "newOwner",
          "type": "address"
        }
      ],
      "name": "OwnershipTransferred",
      "type": "event"
    },
    {
      "inputs": [],
      "name": "_acceptOwner",
      "outputs": [],
      "stateMutability": "nonpayable",
      "type": "function"
    },
    {
      "inputs": [
        {
          "internalType": "address",
          "name": "newPendingOwner",
          "type": "address"
        }
      ],
      "name": "_setPendingOwner",
      "outputs": [],
      "stateMutability": "nonpayable",
      "type": "function"
    },
    {
      "inputs": [
        {
          "internalType": "address",
          "name": "",
          "type": "address"
        }
      ],
      "name": "baseTokens",
      "outputs": [
        {
          "internalType": "address",
          "name": "",
          "type": "address"
        }
      ],
      "stateMutability": "view",
      "type": "function"
    },
    {
      "inputs": [],
      "name": "getAllUnderlyings",
      "outputs": [
        {
          "internalType": "address[]",
          "name": "",
          "type": "address[]"
        }
      ],
      "stateMutability": "view",
      "type": "function"
    },
    {
      "inputs": [
        {
          "internalType": "contract ICToken",
          "name": "cToken",
          "type": "address"
        }
      ],
      "name": "getUnderlyingPrice",
      "outputs": [
        {
          "internalType": "uint256",
          "name": "",
          "type": "uint256"
        }
      ],
      "stateMutability": "view",
      "type": "function"
    },
    {
      "inputs": [
        {
          "internalType": "address[]",
          "name": "_rateProviders",
          "type": "address[]"
        },
        {
          "internalType": "address[]",
          "name": "_baseTokens",
          "type": "address[]"
        },
        {
          "internalType": "address[]",
          "name": "_underlyings",
          "type": "address[]"
        }
      ],
      "name": "initialize",
      "outputs": [],
      "stateMutability": "nonpayable",
      "type": "function"
    },
    {
      "inputs": [],
      "name": "owner",
      "outputs": [
        {
          "internalType": "address",
          "name": "",
          "type": "address"
        }
      ],
      "stateMutability": "view",
      "type": "function"
    },
    {
      "inputs": [],
      "name": "pendingOwner",
      "outputs": [
        {
          "internalType": "address",
          "name": "",
          "type": "address"
        }
      ],
      "stateMutability": "view",
      "type": "function"
    },
    {
      "inputs": [
        {
          "internalType": "address",
          "name": "underlying",
          "type": "address"
        }
      ],
      "name": "price",
      "outputs": [
        {
          "internalType": "uint256",
          "name": "",
          "type": "uint256"
        }
      ],
      "stateMutability": "view",
      "type": "function"
    },
    {
      "inputs": [
        {
          "internalType": "address",
          "name": "",
          "type": "address"
        }
      ],
      "name": "rateProviders",
      "outputs": [
        {
          "internalType": "contract IRateProvider",
          "name": "",
          "type": "address"
        }
      ],
      "stateMutability": "view",
      "type": "function"
    },
    {
      "inputs": [
        {
          "internalType": "address",
          "name": "_rateProvider",
          "type": "address"
        },
        {
          "internalType": "address",
          "name": "_baseToken",
          "type": "address"
        },
        {
          "internalType": "address",
          "name": "_underlying",
          "type": "address"
        }
      ],
      "name": "registerToken",
      "outputs": [],
      "stateMutability": "nonpayable",
      "type": "function"
    },
    {
      "inputs": [],
      "name": "renounceOwnership",
      "outputs": [],
      "stateMutability": "nonpayable",
      "type": "function"
    },
    {
      "inputs": [
        {
          "internalType": "address",
          "name": "",
          "type": "address"
        }
      ],
      "name": "transferOwnership",
      "outputs": [],
      "stateMutability": "nonpayable",
      "type": "function"
    },
    {
      "inputs": [
        {
          "internalType": "uint256",
          "name": "",
          "type": "uint256"
        }
      ],
      "name": "underlyings",
      "outputs": [
        {
          "internalType": "address",
          "name": "",
          "type": "address"
        }
      ],
      "stateMutability": "view",
      "type": "function"
    }
  ],
  "transactionHash": "0x64eb98d0ea944e0528430e93c481bc4bb352a97f656d6f88add6af459a723a21",
  "args": [],
  "numDeployments": 1,
  "bytecode": {
    "object": "0x608060405234801561001057600080fd5b50611124806100206000396000f3fe608060405234801561001057600080fd5b50600436106100ea5760003560e01c8063aea910781161008c578063e30c397811610066578063e30c3978146101fb578063f2fde38b1461020e578063fc4d33f914610221578063fc57d4df1461022957600080fd5b8063aea91078146101b2578063c3f80bc4146101d3578063cea0252e146101e857600080fd5b80636e96dfd7116100c85780636e96dfd714610173578063708019c414610186578063715018a6146101995780638da5cb5b146101a157600080fd5b806302eba094146100ef57806319e4d3a314610135578063435356d11461015e575b600080fd5b6101186100fd366004610ced565b6067602052600090815260409020546001600160a01b031681565b6040516001600160a01b0390911681526020015b60405180910390f35b610118610143366004610ced565b6066602052600090815260409020546001600160a01b031681565b61017161016c366004610dc2565b61023c565b005b610171610181366004610ced565b6104e0565b610171610194366004610e4a565b61054a565b61017161064f565b6033546001600160a01b0316610118565b6101c56101c0366004610ced565b610692565b60405190815260200161012c565b6101db6106a3565b60405161012c9190610e95565b6101186101f6366004610ee2565b610705565b606554610118906001600160a01b031681565b61017161021c366004610ced565b61064f565b61017161072f565b6101c5610237366004610ced565b610843565b600054610100900460ff161580801561025c5750600054600160ff909116105b806102765750303b158015610276575060005460ff166001145b6102de5760405162461bcd60e51b815260206004820152602e60248201527f496e697469616c697a61626c653a20636f6e747261637420697320616c72656160448201526d191e481a5b9a5d1a585b1a5e995960921b60648201526084015b60405180910390fd5b6000805460ff191660011790558015610301576000805461ff0019166101001790555b61030a33610946565b8251845114801561031c575081518351145b6103685760405162461bcd60e51b815260206004820152601860248201527f4172726179206c656e67746873206e6f7420657175616c2e000000000000000060448201526064016102d5565b815161037b906068906020850190610c4e565b5060005b84518110156104935784818151811061039a5761039a610efb565b6020026020010151606660008584815181106103b8576103b8610efb565b60200260200101516001600160a01b03166001600160a01b0316815260200190815260200160002060006101000a8154816001600160a01b0302191690836001600160a01b0316021790555083818151811061041657610416610efb565b60200260200101516067600085848151811061043457610434610efb565b60200260200101516001600160a01b03166001600160a01b0316815260200190815260200160002060006101000a8154816001600160a01b0302191690836001600160a01b03160217905550808061048b90610f27565b91505061037f565b5080156104da576000805461ff0019169055604051600181527f7f26b83ff96e1f2b6a682f133852f6798a09c465da95921460cefb38474024989060200160405180910390a15b50505050565b6104e8610981565b606580546001600160a01b038381166001600160a01b031983168117909355604080519190921680825260208201939093527fb3d55174552271a4f1aaf36b72f50381e892171636b3fb5447fe00e995e7a37b91015b60405180910390a15050565b610552610981565b6000805b6068548110156105b357826001600160a01b03166068828154811061057d5761057d610efb565b6000918252602090912001546001600160a01b031614156105a157600191506105b3565b806105ab81610f27565b915050610556565b508061060557606880546001810182556000919091527fa2153420d844928b4421650203c77babc8b33d7f2e7b450e2966db0c220977530180546001600160a01b0319166001600160a01b0384161790555b506001600160a01b03908116600090815260676020908152604080832080549585166001600160a01b03199687161790556066909152902080549390911692909116919091179055565b610657610981565b60405162461bcd60e51b815260206004820152601060248201526f6e6f74207573656420616e796d6f726560801b60448201526064016102d5565b600061069d826109dd565b92915050565b606060688054806020026020016040519081016040528092919081815260200182805480156106fb57602002820191906000526020600020905b81546001600160a01b031681526001909101906020018083116106dd575b5050505050905090565b6068818154811061071557600080fd5b6000918252602090912001546001600160a01b0316905081565b6065546001600160a01b031633146107815760405162461bcd60e51b81526020600482015260156024820152743737ba103a3432903832b73234b7339037bbb732b960591b60448201526064016102d5565b60006107956033546001600160a01b031690565b6065549091506001600160a01b03166107ad81610ba2565b606580546001600160a01b0319169055604080516001600160a01b0384168152600060208201527f70aea8d848e8a90fb7661b227dc522eb6395c3dac71b63cb59edd5c9899b2364910160405180910390a1606554604080516001600160a01b03808516825290921660208301527fb3d55174552271a4f1aaf36b72f50381e892171636b3fb5447fe00e995e7a37b910161053e565b600080826001600160a01b0316636f307dc36040518163ffffffff1660e01b8152600401602060405180830381865afa158015610884573d6000803e3d6000fd5b505050506040513d601f19601f820116820180604052508101906108a89190610f42565b9050806001600160a01b031663313ce5676040518163ffffffff1660e01b8152600401602060405180830381865afa1580156108e8573d6000803e3d6000fd5b505050506040513d601f19601f8201168201806040525081019061090c9190610f5f565b61091a9060ff16600a611066565b610923826109dd565b61093590670de0b6b3a7640000611072565b61093f9190611091565b9392505050565b600054610100900460ff1661096d5760405162461bcd60e51b81526004016102d5906110b3565b610975610bf4565b61097e81610ba2565b50565b6033546001600160a01b031633146109db5760405162461bcd60e51b815260206004820181905260248201527f4f776e61626c653a2063616c6c6572206973206e6f7420746865206f776e657260448201526064016102d5565b565b600080805b606854811015610a3b57836001600160a01b031660688281548110610a0957610a09610efb565b6000918252602090912001546001600160a01b03161415610a2957600191505b80610a3381610f27565b9150506109e2565b5080610a825760405162461bcd60e51b8152602060048201526016602482015275556e737570706f7274656420756e6465726c79696e6760501b60448201526064016102d5565b6001600160a01b0380841660009081526066602090815260408083205481516333cd77e760e11b815291519394169263679aefce926004808401939192918290030181865afa158015610ad9573d6000803e3d6000fd5b505050506040513d601f19601f82011682018060405250810190610afd91906110fe565b6001600160a01b038581166000908152606760205260408082205490516315d5220f60e31b815292166004830152919250339063aea9107890602401602060405180830381865afa158015610b56573d6000803e3d6000fd5b505050506040513d601f19601f82011682018060405250810190610b7a91906110fe565b9050670de0b6b3a7640000610b8f8284611072565b610b999190611091565b95945050505050565b603380546001600160a01b038381166001600160a01b0319831681179093556040519116919082907f8be0079c531659141344cd1fd0a4f28419497f9722a3daafe3b4186f6b6457e090600090a35050565b600054610100900460ff16610c1b5760405162461bcd60e51b81526004016102d5906110b3565b6109db600054610100900460ff16610c455760405162461bcd60e51b81526004016102d5906110b3565b6109db33610ba2565b828054828255906000526020600020908101928215610ca3579160200282015b82811115610ca357825182546001600160a01b0319166001600160a01b03909116178255602090920191600190910190610c6e565b50610caf929150610cb3565b5090565b5b80821115610caf5760008155600101610cb4565b6001600160a01b038116811461097e57600080fd5b8035610ce881610cc8565b919050565b600060208284031215610cff57600080fd5b813561093f81610cc8565b634e487b7160e01b600052604160045260246000fd5b600082601f830112610d3157600080fd5b8135602067ffffffffffffffff80831115610d4e57610d4e610d0a565b8260051b604051601f19603f83011681018181108482111715610d7357610d73610d0a565b604052938452858101830193838101925087851115610d9157600080fd5b83870191505b84821015610db757610da882610cdd565b83529183019190830190610d97565b979650505050505050565b600080600060608486031215610dd757600080fd5b833567ffffffffffffffff80821115610def57600080fd5b610dfb87838801610d20565b94506020860135915080821115610e1157600080fd5b610e1d87838801610d20565b93506040860135915080821115610e3357600080fd5b50610e4086828701610d20565b9150509250925092565b600080600060608486031215610e5f57600080fd5b8335610e6a81610cc8565b92506020840135610e7a81610cc8565b91506040840135610e8a81610cc8565b809150509250925092565b6020808252825182820181905260009190848201906040850190845b81811015610ed65783516001600160a01b031683529284019291840191600101610eb1565b50909695505050505050565b600060208284031215610ef457600080fd5b5035919050565b634e487b7160e01b600052603260045260246000fd5b634e487b7160e01b600052601160045260246000fd5b6000600019821415610f3b57610f3b610f11565b5060010190565b600060208284031215610f5457600080fd5b815161093f81610cc8565b600060208284031215610f7157600080fd5b815160ff8116811461093f57600080fd5b600181815b80851115610fbd578160001904821115610fa357610fa3610f11565b80851615610fb057918102915b93841c9390800290610f87565b509250929050565b600082610fd45750600161069d565b81610fe15750600061069d565b8160018114610ff757600281146110015761101d565b600191505061069d565b60ff84111561101257611012610f11565b50506001821b61069d565b5060208310610133831016604e8410600b8410161715611040575081810a61069d565b61104a8383610f82565b806000190482111561105e5761105e610f11565b029392505050565b600061093f8383610fc5565b600081600019048311821515161561108c5761108c610f11565b500290565b6000826110ae57634e487b7160e01b600052601260045260246000fd5b500490565b6020808252602b908201527f496e697469616c697a61626c653a20636f6e7472616374206973206e6f74206960408201526a6e697469616c697a696e6760a81b606082015260800190565b60006020828403121561111057600080fd5b505191905056fea164736f6c634300080a000a",
    "linkReferences": {}
  },
  "methodIdentifiers": {
    "_acceptOwner()": "fc4d33f9",
    "_setPendingOwner(address)": "6e96dfd7",
    "baseTokens(address)": "02eba094",
    "getAllUnderlyings()": "c3f80bc4",
    "getUnderlyingPrice(address)": "fc57d4df",
    "initialize(address[],address[],address[])": "435356d1",
    "owner()": "8da5cb5b",
    "pendingOwner()": "e30c3978",
    "price(address)": "aea91078",
    "rateProviders(address)": "19e4d3a3",
    "registerToken(address,address,address)": "708019c4",
    "renounceOwnership()": "715018a6",
    "transferOwnership(address)": "f2fde38b",
    "underlyings(uint256)": "cea0252e"
  }
}