{
  "address": "0x58eB8b2d41be29Eb46c75Db6fa1D494975B3D6bC",
  "abi": [
    {
      "inputs": [
        {
          "internalType": "contract IERC20Upgradeable",
          "name": "inputToken",
          "type": "address"
        },
        {
          "internalType": "uint256",
          "name": "inputAmount",
          "type": "uint256"
        },
        {
          "internalType": "bytes",
          "name": "strategyData",
          "type": "bytes"
        }
      ],
      "name": "redeem",
      "outputs": [
        {
          "internalType": "contract IERC20Upgradeable",
          "name": "outputToken",
          "type": "address"
        },
        {
          "internalType": "uint256",
          "name": "outputAmount",
          "type": "uint256"
        }
      ],
      "stateMutability": "nonpayable",
      "type": "function"
    }
  ],
  "transactionHash": "0x6cbfb481c5f14a4db68b5c4ef7623d2dad7379e386ab20472f45d3b7bda9908a",
  "args": [],
  "numDeployments": 1,
  "bytecode": {
    "object": "0x608060405234801561001057600080fd5b50610841806100206000396000f3fe608060405234801561001057600080fd5b506004361061002b5760003560e01c806310badf4e14610030575b600080fd5b61004361003e36600461042d565b610066565b604080516001600160a01b03909316835260208301919091520160405180910390f35b60008060008590506000816001600160a01b0316638d928af86040518163ffffffff1660e01b8152600401602060405180830381865afa1580156100ae573d6000803e3d6000fd5b505050506040513d601f19601f820116820180604052508101906100d291906104de565b90506000826001600160a01b03166338fff2d06040518163ffffffff1660e01b8152600401602060405180830381865afa158015610114573d6000803e3d6000fd5b505050506040513d601f19601f820116820180604052508101906101389190610502565b604051631f29a8cd60e31b8152600481018290529091506000906001600160a01b0384169063f94d466890602401600060405180830381865afa158015610183573d6000803e3d6000fd5b505050506040513d6000823e601f3d908101601f191682016040526101ab91908101906105aa565b50509050600060001990506000888060200190518101906101cc91906104de565b905060005b835181101561022757816001600160a01b03168482815181106101f6576101f6610678565b60200260200101516001600160a01b0316141561021557809250610227565b8061021f8161068e565b9150506101d1565b5082828151811061023a5761023a610678565b602002602001015197506000835167ffffffffffffffff811115610260576102606103e6565b604051908082528060200260200182016040528015610289578160200160208202803683370190505b50905060018184815181106102a0576102a0610678565b6020026020010181815250506000808c856040516020016102c3939291906106b7565b60408051601f1981840301815260808301825287835260208301859052828201819052600060608401529051638bdb391360e01b81529092506001600160a01b03891690638bdb391390610321908a90309081908790600401610775565b600060405180830381600087803b15801561033b57600080fd5b505af115801561034f573d6000803e3d6000fd5b50506040516370a0823160e01b81523060048201526001600160a01b038e1692506370a082319150602401602060405180830381865afa158015610397573d6000803e3d6000fd5b505050506040513d601f19601f820116820180604052508101906103bb9190610502565b9950505050505050505050935093915050565b6001600160a01b03811681146103e357600080fd5b50565b634e487b7160e01b600052604160045260246000fd5b604051601f8201601f1916810167ffffffffffffffff81118282101715610425576104256103e6565b604052919050565b60008060006060848603121561044257600080fd5b833561044d816103ce565b92506020848101359250604085013567ffffffffffffffff8082111561047257600080fd5b818701915087601f83011261048657600080fd5b813581811115610498576104986103e6565b6104aa601f8201601f191685016103fc565b915080825288848285010111156104c057600080fd5b80848401858401376000848284010152508093505050509250925092565b6000602082840312156104f057600080fd5b81516104fb816103ce565b9392505050565b60006020828403121561051457600080fd5b5051919050565b600067ffffffffffffffff821115610535576105356103e6565b5060051b60200190565b600082601f83011261055057600080fd5b815160206105656105608361051b565b6103fc565b82815260059290921b8401810191818101908684111561058457600080fd5b8286015b8481101561059f5780518352918301918301610588565b509695505050505050565b6000806000606084860312156105bf57600080fd5b835167ffffffffffffffff808211156105d757600080fd5b818601915086601f8301126105eb57600080fd5b815160206105fb6105608361051b565b82815260059290921b8401810191818101908a84111561061a57600080fd5b948201945b83861015610641578551610632816103ce565b8252948201949082019061061f565b9189015191975090935050508082111561065a57600080fd5b506106678682870161053f565b925050604084015190509250925092565b634e487b7160e01b600052603260045260246000fd5b60006000198214156106b057634e487b7160e01b600052601160045260246000fd5b5060010190565b60608101600485106106d957634e487b7160e01b600052602160045260246000fd5b938152602081019290925260409091015290565b600081518084526020808501945080840160005b8381101561071d57815187529582019590820190600101610701565b509495945050505050565b6000815180845260005b8181101561074e57602081850181015186830182015201610732565b81811115610760576000602083870101525b50601f01601f19169290920160200192915050565b8481526000602060018060a01b038087168285015280861660408501526080606085015261010084018551608080870152818151808452610120880191508583019350600092505b808310156107df578351851682529285019260019290920191908501906107bd565b50848801519450607f199350838782030160a08801526107ff81866106ed565b94505050506040850151818584030160c086015261081d8382610728565b92505050606084015161059f60e08501821515905256fea164736f6c634300080a000a",
    "linkReferences": {}
  },
  "methodIdentifiers": {
    "redeem(address,uint256,bytes)": "10badf4e"
  }
}