{
  "address": "0xE5dE7E6Bb9F2ca5058aF4037E518654B4868b223",
  "abi": [
    {
      "inputs": [
        {
          "internalType": "contract ERC20",
          "name": "_asset",
          "type": "address"
        },
        {
          "internalType": "contract IBeefyVault",
          "name": "_beefyVault",
          "type": "address"
        },
        {
          "internalType": "uint256",
          "name": "_withdrawalFee",
          "type": "uint256"
        }
      ],
      "stateMutability": "nonpayable",
      "type": "constructor"
    },
    {
      "anonymous": false,
      "inputs": [
        {
          "indexed": true,
          "internalType": "address",
          "name": "owner",
          "type": "address"
        },
        {
          "indexed": true,
          "internalType": "address",
          "name": "spender",
          "type": "address"
        },
        {
          "indexed": false,
          "internalType": "uint256",
          "name": "amount",
          "type": "uint256"
        }
      ],
      "name": "Approval",
      "type": "event"
    },
    {
      "anonymous": false,
      "inputs": [
        {
          "indexed": true,
          "internalType": "address",
          "name": "caller",
          "type": "address"
        },
        {
          "indexed": true,
          "internalType": "address",
          "name": "owner",
          "type": "address"
        },
        {
          "indexed": false,
          "internalType": "uint256",
          "name": "assets",
          "type": "uint256"
        },
        {
          "indexed": false,
          "internalType": "uint256",
          "name": "shares",
          "type": "uint256"
        }
      ],
      "name": "Deposit",
      "type": "event"
    },
    {
      "anonymous": false,
      "inputs": [
        {
          "indexed": true,
          "internalType": "address",
          "name": "previousOwner",
          "type": "address"
        },
        {
          "indexed": true,
          "internalType": "address",
          "name": "newOwner",
          "type": "address"
        }
      ],
      "name": "OwnershipTransferred",
      "type": "event"
    },
    {
      "anonymous": false,
      "inputs": [
        {
          "indexed": false,
          "internalType": "address",
          "name": "account",
          "type": "address"
        }
      ],
      "name": "Paused",
      "type": "event"
    },
    {
      "anonymous": false,
      "inputs": [
        {
          "indexed": true,
          "internalType": "address",
          "name": "from",
          "type": "address"
        },
        {
          "indexed": true,
          "internalType": "address",
          "name": "to",
          "type": "address"
        },
        {
          "indexed": false,
          "internalType": "uint256",
          "name": "amount",
          "type": "uint256"
        }
      ],
      "name": "Transfer",
      "type": "event"
    },
    {
      "anonymous": false,
      "inputs": [
        {
          "indexed": false,
          "internalType": "address",
          "name": "account",
          "type": "address"
        }
      ],
      "name": "Unpaused",
      "type": "event"
    },
    {
      "anonymous": false,
      "inputs": [
        {
          "indexed": true,
          "internalType": "address",
          "name": "caller",
          "type": "address"
        },
        {
          "indexed": true,
          "internalType": "address",
          "name": "receiver",
          "type": "address"
        },
        {
          "indexed": true,
          "internalType": "address",
          "name": "owner",
          "type": "address"
        },
        {
          "indexed": false,
          "internalType": "uint256",
          "name": "assets",
          "type": "uint256"
        },
        {
          "indexed": false,
          "internalType": "uint256",
          "name": "shares",
          "type": "uint256"
        }
      ],
      "name": "Withdraw",
      "type": "event"
    },
    {
      "inputs": [],
      "name": "DOMAIN_SEPARATOR",
      "outputs": [
        {
          "internalType": "bytes32",
          "name": "",
          "type": "bytes32"
        }
      ],
      "stateMutability": "view",
      "type": "function"
    },
    {
      "inputs": [
        {
          "internalType": "address",
          "name": "",
          "type": "address"
        },
        {
          "internalType": "address",
          "name": "",
          "type": "address"
        }
      ],
      "name": "allowance",
      "outputs": [
        {
          "internalType": "uint256",
          "name": "",
          "type": "uint256"
        }
      ],
      "stateMutability": "view",
      "type": "function"
    },
    {
      "inputs": [
        {
          "internalType": "address",
          "name": "spender",
          "type": "address"
        },
        {
          "internalType": "uint256",
          "name": "amount",
          "type": "uint256"
        }
      ],
      "name": "approve",
      "outputs": [
        {
          "internalType": "bool",
          "name": "",
          "type": "bool"
        }
      ],
      "stateMutability": "nonpayable",
      "type": "function"
    },
    {
      "inputs": [],
      "name": "asset",
      "outputs": [
        {
          "internalType": "contract ERC20",
          "name": "",
          "type": "address"
        }
      ],
      "stateMutability": "view",
      "type": "function"
    },
    {
      "inputs": [
        {
          "internalType": "address",
          "name": "",
          "type": "address"
        }
      ],
      "name": "balanceOf",
      "outputs": [
        {
          "internalType": "uint256",
          "name": "",
          "type": "uint256"
        }
      ],
      "stateMutability": "view",
      "type": "function"
    },
    {
      "inputs": [
        {
          "internalType": "address",
          "name": "account",
          "type": "address"
        }
      ],
      "name": "balanceOfUnderlying",
      "outputs": [
        {
          "internalType": "uint256",
          "name": "",
          "type": "uint256"
        }
      ],
      "stateMutability": "view",
      "type": "function"
    },
    {
      "inputs": [],
      "name": "beefyVault",
      "outputs": [
        {
          "internalType": "contract IBeefyVault",
          "name": "",
          "type": "address"
        }
      ],
      "stateMutability": "view",
      "type": "function"
    },
    {
      "inputs": [
        {
          "internalType": "uint256",
          "name": "shares",
          "type": "uint256"
        }
      ],
      "name": "convertToAssets",
      "outputs": [
        {
          "internalType": "uint256",
          "name": "",
          "type": "uint256"
        }
      ],
      "stateMutability": "view",
      "type": "function"
    },
    {
      "inputs": [
        {
          "internalType": "uint256",
          "name": "shares",
          "type": "uint256"
        }
      ],
      "name": "convertToBeefyVaultShares",
      "outputs": [
        {
          "internalType": "uint256",
          "name": "",
          "type": "uint256"
        }
      ],
      "stateMutability": "view",
      "type": "function"
    },
    {
      "inputs": [
        {
          "internalType": "uint256",
          "name": "assets",
          "type": "uint256"
        }
      ],
      "name": "convertToShares",
      "outputs": [
        {
          "internalType": "uint256",
          "name": "",
          "type": "uint256"
        }
      ],
      "stateMutability": "view",
      "type": "function"
    },
    {
      "inputs": [],
      "name": "decimals",
      "outputs": [
        {
          "internalType": "uint8",
          "name": "",
          "type": "uint8"
        }
      ],
      "stateMutability": "view",
      "type": "function"
    },
    {
      "inputs": [
        {
          "internalType": "uint256",
          "name": "assets",
          "type": "uint256"
        },
        {
          "internalType": "address",
          "name": "receiver",
          "type": "address"
        }
      ],
      "name": "deposit",
      "outputs": [
        {
          "internalType": "uint256",
          "name": "shares",
          "type": "uint256"
        }
      ],
      "stateMutability": "nonpayable",
      "type": "function"
    },
    {
      "inputs": [],
      "name": "emergencyWithdrawAndPause",
      "outputs": [],
      "stateMutability": "nonpayable",
      "type": "function"
    },
    {
      "inputs": [
        {
          "internalType": "address",
          "name": "",
          "type": "address"
        }
      ],
      "name": "maxDeposit",
      "outputs": [
        {
          "internalType": "uint256",
          "name": "",
          "type": "uint256"
        }
      ],
      "stateMutability": "view",
      "type": "function"
    },
    {
      "inputs": [
        {
          "internalType": "address",
          "name": "",
          "type": "address"
        }
      ],
      "name": "maxMint",
      "outputs": [
        {
          "internalType": "uint256",
          "name": "",
          "type": "uint256"
        }
      ],
      "stateMutability": "view",
      "type": "function"
    },
    {
      "inputs": [
        {
          "internalType": "address",
          "name": "owner",
          "type": "address"
        }
      ],
      "name": "maxRedeem",
      "outputs": [
        {
          "internalType": "uint256",
          "name": "",
          "type": "uint256"
        }
      ],
      "stateMutability": "view",
      "type": "function"
    },
    {
      "inputs": [
        {
          "internalType": "address",
          "name": "owner",
          "type": "address"
        }
      ],
      "name": "maxWithdraw",
      "outputs": [
        {
          "internalType": "uint256",
          "name": "",
          "type": "uint256"
        }
      ],
      "stateMutability": "view",
      "type": "function"
    },
    {
      "inputs": [
        {
          "internalType": "uint256",
          "name": "shares",
          "type": "uint256"
        },
        {
          "internalType": "address",
          "name": "receiver",
          "type": "address"
        }
      ],
      "name": "mint",
      "outputs": [
        {
          "internalType": "uint256",
          "name": "assets",
          "type": "uint256"
        }
      ],
      "stateMutability": "nonpayable",
      "type": "function"
    },
    {
      "inputs": [],
      "name": "name",
      "outputs": [
        {
          "internalType": "string",
          "name": "",
          "type": "string"
        }
      ],
      "stateMutability": "view",
      "type": "function"
    },
    {
      "inputs": [
        {
          "internalType": "address",
          "name": "",
          "type": "address"
        }
      ],
      "name": "nonces",
      "outputs": [
        {
          "internalType": "uint256",
          "name": "",
          "type": "uint256"
        }
      ],
      "stateMutability": "view",
      "type": "function"
    },
    {
      "inputs": [],
      "name": "owner",
      "outputs": [
        {
          "internalType": "address",
          "name": "",
          "type": "address"
        }
      ],
      "stateMutability": "view",
      "type": "function"
    },
    {
      "inputs": [],
      "name": "paused",
      "outputs": [
        {
          "internalType": "bool",
          "name": "",
          "type": "bool"
        }
      ],
      "stateMutability": "view",
      "type": "function"
    },
    {
      "inputs": [
        {
          "internalType": "address",
          "name": "owner",
          "type": "address"
        },
        {
          "internalType": "address",
          "name": "spender",
          "type": "address"
        },
        {
          "internalType": "uint256",
          "name": "value",
          "type": "uint256"
        },
        {
          "internalType": "uint256",
          "name": "deadline",
          "type": "uint256"
        },
        {
          "internalType": "uint8",
          "name": "v",
          "type": "uint8"
        },
        {
          "internalType": "bytes32",
          "name": "r",
          "type": "bytes32"
        },
        {
          "internalType": "bytes32",
          "name": "s",
          "type": "bytes32"
        }
      ],
      "name": "permit",
      "outputs": [],
      "stateMutability": "nonpayable",
      "type": "function"
    },
    {
      "inputs": [
        {
          "internalType": "uint256",
          "name": "assets",
          "type": "uint256"
        }
      ],
      "name": "previewDeposit",
      "outputs": [
        {
          "internalType": "uint256",
          "name": "",
          "type": "uint256"
        }
      ],
      "stateMutability": "view",
      "type": "function"
    },
    {
      "inputs": [
        {
          "internalType": "uint256",
          "name": "shares",
          "type": "uint256"
        }
      ],
      "name": "previewMint",
      "outputs": [
        {
          "internalType": "uint256",
          "name": "",
          "type": "uint256"
        }
      ],
      "stateMutability": "view",
      "type": "function"
    },
    {
      "inputs": [
        {
          "internalType": "uint256",
          "name": "shares",
          "type": "uint256"
        }
      ],
      "name": "previewRedeem",
      "outputs": [
        {
          "internalType": "uint256",
          "name": "",
          "type": "uint256"
        }
      ],
      "stateMutability": "view",
      "type": "function"
    },
    {
      "inputs": [
        {
          "internalType": "uint256",
          "name": "assets",
          "type": "uint256"
        }
      ],
      "name": "previewWithdraw",
      "outputs": [
        {
          "internalType": "uint256",
          "name": "",
          "type": "uint256"
        }
      ],
      "stateMutability": "view",
      "type": "function"
    },
    {
      "inputs": [
        {
          "internalType": "uint256",
          "name": "shares",
          "type": "uint256"
        },
        {
          "internalType": "address",
          "name": "receiver",
          "type": "address"
        },
        {
          "internalType": "address",
          "name": "owner",
          "type": "address"
        }
      ],
      "name": "redeem",
      "outputs": [
        {
          "internalType": "uint256",
          "name": "assets",
          "type": "uint256"
        }
      ],
      "stateMutability": "nonpayable",
      "type": "function"
    },
    {
      "inputs": [],
      "name": "renounceOwnership",
      "outputs": [],
      "stateMutability": "nonpayable",
      "type": "function"
    },
    {
      "inputs": [],
      "name": "symbol",
      "outputs": [
        {
          "internalType": "string",
          "name": "",
          "type": "string"
        }
      ],
      "stateMutability": "view",
      "type": "function"
    },
    {
      "inputs": [],
      "name": "totalAssets",
      "outputs": [
        {
          "internalType": "uint256",
          "name": "",
          "type": "uint256"
        }
      ],
      "stateMutability": "view",
      "type": "function"
    },
    {
      "inputs": [],
      "name": "totalSupply",
      "outputs": [
        {
          "internalType": "uint256",
          "name": "",
          "type": "uint256"
        }
      ],
      "stateMutability": "view",
      "type": "function"
    },
    {
      "inputs": [
        {
          "internalType": "address",
          "name": "to",
          "type": "address"
        },
        {
          "internalType": "uint256",
          "name": "amount",
          "type": "uint256"
        }
      ],
      "name": "transfer",
      "outputs": [
        {
          "internalType": "bool",
          "name": "",
          "type": "bool"
        }
      ],
      "stateMutability": "nonpayable",
      "type": "function"
    },
    {
      "inputs": [
        {
          "internalType": "address",
          "name": "from",
          "type": "address"
        },
        {
          "internalType": "address",
          "name": "to",
          "type": "address"
        },
        {
          "internalType": "uint256",
          "name": "amount",
          "type": "uint256"
        }
      ],
      "name": "transferFrom",
      "outputs": [
        {
          "internalType": "bool",
          "name": "",
          "type": "bool"
        }
      ],
      "stateMutability": "nonpayable",
      "type": "function"
    },
    {
      "inputs": [
        {
          "internalType": "address",
          "name": "newOwner",
          "type": "address"
        }
      ],
      "name": "transferOwnership",
      "outputs": [],
      "stateMutability": "nonpayable",
      "type": "function"
    },
    {
      "inputs": [],
      "name": "unpause",
      "outputs": [],
      "stateMutability": "nonpayable",
      "type": "function"
    },
    {
      "inputs": [
        {
          "internalType": "uint256",
          "name": "assets",
          "type": "uint256"
        },
        {
          "internalType": "address",
          "name": "receiver",
          "type": "address"
        },
        {
          "internalType": "address",
          "name": "owner",
          "type": "address"
        }
      ],
      "name": "withdraw",
      "outputs": [
        {
          "internalType": "uint256",
          "name": "shares",
          "type": "uint256"
        }
      ],
      "stateMutability": "nonpayable",
      "type": "function"
    },
    {
      "inputs": [],
      "name": "withdrawalFee",
      "outputs": [
        {
          "internalType": "uint256",
          "name": "",
          "type": "uint256"
        }
      ],
      "stateMutability": "view",
      "type": "function"
    }
  ],
  "transactionHash": "0x2ff332a04de279854fa1d1f8a1f1d262d90ca5836b4c99e7fc129a6b61120576",
  "args": [
    "0x976A750168801F58E8AEdbCfF9328138D544cc09",
    "0x6720C2b7fd7dE1CAD3242dd3E8a86d033D4ed3f9",
    "10"
  ],
  "numDeployments": 1,
  "bytecode": {
    "object": "0x6101406040526127106007553480156200001857600080fd5b5060405162002af038038062002af08339810160408190526200003b916200046e565b82836001600160a01b03166306fdde036040518163ffffffff1660e01b8152600401600060405180830381865afa1580156200007b573d6000803e3d6000fd5b505050506040513d6000823e601f3d908101601f19168201604052620000a59190810190620004ff565b604051602001620000b79190620005b7565b604051602081830303815290604052846001600160a01b03166395d89b416040518163ffffffff1660e01b8152600401600060405180830381865afa15801562000105573d6000803e3d6000fd5b505050506040513d6000823e601f3d908101601f191682016040526200012f9190810190620004ff565b604051602001620001419190620005f7565b6040516020818303038152906040528282828181846001600160a01b031663313ce5676040518163ffffffff1660e01b8152600401602060405180830381865afa15801562000194573d6000803e3d6000fd5b505050506040513d601f19601f82011682018060405250810190620001ba919062000623565b8251620001cf906000906020860190620003af565b508151620001e5906001906020850190620003af565b5060ff81166080524660a052620001fb620002c1565b60c052505050506001600160a01b039190911660e052506200021d336200035d565b50506006805460ff60a01b19169055506001600160a01b0382811661010081905261012083905260e05160405163095ea7b360e01b8152600481019290925260001960248301529091169063095ea7b3906044016020604051808303816000875af115801562000291573d6000803e3d6000fd5b505050506040513d601f19601f82011682018060405250810190620002b791906200064f565b5050505062000754565b60007f8b73c3c69bb8fe3d512ecc4cf759cc79239f7b179b0ffacaa9a75d522b39400f6000604051620002f59190620006b0565b6040805191829003822060208301939093528101919091527fc89efdaa54c0f20c7adf612882df0950f5a951637e0307cdcb4c672f298b8bc660608201524660808201523060a082015260c00160405160208183030381529060405280519060200120905090565b600680546001600160a01b038381166001600160a01b0319831681179093556040519116919082907f8be0079c531659141344cd1fd0a4f28419497f9722a3daafe3b4186f6b6457e090600090a35050565b828054620003bd9062000673565b90600052602060002090601f016020900481019282620003e157600085556200042c565b82601f10620003fc57805160ff19168380011785556200042c565b828001600101855582156200042c579182015b828111156200042c5782518255916020019190600101906200040f565b506200043a9291506200043e565b5090565b5b808211156200043a57600081556001016200043f565b6001600160a01b03811681146200046b57600080fd5b50565b6000806000606084860312156200048457600080fd5b8351620004918162000455565b6020850151909350620004a48162000455565b80925050604084015190509250925092565b634e487b7160e01b600052604160045260246000fd5b60005b83811015620004e9578181015183820152602001620004cf565b83811115620004f9576000848401525b50505050565b6000602082840312156200051257600080fd5b81516001600160401b03808211156200052a57600080fd5b818401915084601f8301126200053f57600080fd5b815181811115620005545762000554620004b6565b604051601f8201601f19908116603f011681019083821181831017156200057f576200057f620004b6565b816040528281528760208487010111156200059957600080fd5b620005ac836020830160208801620004cc565b979650505050505050565b65026b4b230b9960d51b815260008251620005da816006850160208701620004cc565b650815985d5b1d60d21b6006939091019283015250600c01919050565b6136bb60f11b81526000825162000616816002850160208701620004cc565b9190910160020192915050565b6000602082840312156200063657600080fd5b815160ff811681146200064857600080fd5b9392505050565b6000602082840312156200066257600080fd5b815180151581146200064857600080fd5b600181811c908216806200068857607f821691505b60208210811415620006aa57634e487b7160e01b600052602260045260246000fd5b50919050565b600080835481600182811c915080831680620006cd57607f831692505b6020808410821415620006ee57634e487b7160e01b86526022600452602486fd5b818015620007055760018114620007175762000746565b60ff1986168952848901965062000746565b60008a81526020902060005b868110156200073e5781548b82015290850190830162000723565b505084890196505b509498975050505050505050565b60805160a05160c05160e05161010051610120516122a46200084c60003960008181610432015281816109ca0152610ebc0152600081816102b5015281816105980152818161061a015281816106af0152818161090d01528181610b4901528181610ce501528181610e06015281816118ee01528181611cee0152611dab01526000818161035b015281816107430152818161093801528181610d0f01528181610e3401528181610fa30152818161109e0152818161124e015281816112e4015281816113c7015281816114cd01528181611563015261164601526000610c5201526000610c220152600061031a01526122a46000f3fe608060405234801561001057600080fd5b50600436106102325760003560e01c8063715018a611610130578063ba087652116100b8578063d905777e1161007c578063d905777e146104f2578063dd62ed3e1461051b578063e30f4e4314610546578063ef8b30f714610559578063f2fde38b1461056c57600080fd5b8063ba087652146104b9578063c63d75b614610398578063c6e6f592146104cc578063ce96cb771461037d578063d505accf146104df57600080fd5b806394bf804d116100ff57806394bf804d1461046557806395d89b4114610478578063a9059cbb14610480578063b3d7f6b914610493578063b460af94146104a657600080fd5b8063715018a6146104055780637ecebe001461040d5780638bc7e8c41461042d5780638da5cb5b1461045457600080fd5b8063313ce567116101be578063402d267d11610182578063402d267d146103985780634cdad506146103ad5780635c975abb146103c05780636e553f65146103d257806370a08231146103e557600080fd5b8063313ce567146103155780633644e5151461034e57806338d52e0f146103565780633af9e6691461037d5780633f4ba83a1461039057600080fd5b80630a28a477116102055780630a28a4771461029d5780630f0d6569146102b057806318160ddd146102ef57806323b872dd146102f8578063283579781461030b57600080fd5b806301e1d1141461023757806306fdde031461025257806307a2d13a14610267578063095ea7b31461027a575b600080fd5b61023f61057f565b6040519081526020015b60405180910390f35b61025a6107b6565b6040516102499190611ed9565b61023f610275366004611f2e565b610844565b61028d610288366004611f63565b610871565b6040519015158152602001610249565b61023f6102ab366004611f2e565b6108de565b6102d77f000000000000000000000000000000000000000000000000000000000000000081565b6040516001600160a01b039091168152602001610249565b61023f60025481565b61028d610306366004611f8d565b610a21565b610313610b01565b005b61033c7f000000000000000000000000000000000000000000000000000000000000000081565b60405160ff9091168152602001610249565b61023f610c1e565b6102d77f000000000000000000000000000000000000000000000000000000000000000081565b61023f61038b366004611fc9565b610c74565b610313610c96565b61023f6103a6366004611fc9565b5060001990565b61023f6103bb366004611f2e565b610dcc565b600654600160a01b900460ff1661028d565b61023f6103e0366004611fe4565b610f23565b61023f6103f3366004611fc9565b60036020526000908152604090205481565b610313611025565b61023f61041b366004611fc9565b60056020526000908152604090205481565b61023f7f000000000000000000000000000000000000000000000000000000000000000081565b6006546001600160a01b03166102d7565b61023f610473366004611fe4565b611059565b61025a611120565b61028d61048e366004611f63565b61112d565b61023f6104a1366004611f2e565b611193565b61023f6104b4366004612010565b6111aa565b61023f6104c7366004612010565b6113ee565b61023f6104da366004611f2e565b61166d565b6103136104ed36600461204c565b611685565b61023f610500366004611fc9565b6001600160a01b031660009081526003602052604090205490565b61023f6105293660046120bf565b600460209081526000928352604080842090915290825290205481565b61023f610554366004611f2e565b6118c9565b61023f610567366004611f2e565b611961565b61031361057a366004611fc9565b61196c565b600654600090600160a01b900460ff1661072e576107297f00000000000000000000000000000000000000000000000000000000000000006001600160a01b031663b69ef8a86040518163ffffffff1660e01b8152600401602060405180830381865afa1580156105f4573d6000803e3d6000fd5b505050506040513d601f19601f8201168201806040525081019061061891906120e9565b7f00000000000000000000000000000000000000000000000000000000000000006001600160a01b03166318160ddd6040518163ffffffff1660e01b8152600401602060405180830381865afa158015610676573d6000803e3d6000fd5b505050506040513d601f19601f8201168201806040525081019061069a91906120e9565b6040516370a0823160e01b81523060048201527f00000000000000000000000000000000000000000000000000000000000000006001600160a01b0316906370a0823190602401602060405180830381865afa1580156106fe573d6000803e3d6000fd5b505050506040513d601f19601f8201168201806040525081019061072291906120e9565b9190611a07565b905090565b6040516370a0823160e01b81523060048201527f00000000000000000000000000000000000000000000000000000000000000006001600160a01b0316906370a0823190602401602060405180830381865afa158015610792573d6000803e3d6000fd5b505050506040513d601f19601f8201168201806040525081019061072991906120e9565b600080546107c390612102565b80601f01602080910402602001604051908101604052809291908181526020018280546107ef90612102565b801561083c5780601f106108115761010080835404028352916020019161083c565b820191906000526020600020905b81548152906001019060200180831161081f57829003601f168201915b505050505081565b60025460009080156108685761086361085b61057f565b849083611a35565b61086a565b825b9392505050565b3360008181526004602090815260408083206001600160a01b038716808552925280832085905551919290917f8c5be1e5ebec7d5bd14f71427d1e84f3dd0314c0f7b2291e5b200ac8c7c3b925906108cc9086815260200190565b60405180910390a35060015b92915050565b60025460065460009190600160a01b900460ff16610a07576040516370a0823160e01b81526001600160a01b037f0000000000000000000000000000000000000000000000000000000000000000811660048301526000917f0000000000000000000000000000000000000000000000000000000000000000909116906370a0823190602401602060405180830381865afa158015610981573d6000803e3d6000fd5b505050506040513d601f19601f820116820180604052508101906109a591906120e9565b905083811015610a055760006109bb828661214d565b6007549091506109f7906109ef7f00000000000000000000000000000000000000000000000000000000000000008261214d565b839190611a07565b610a019083612164565b9450505b505b80156108685761086381610a1961057f565b859190611a35565b6001600160a01b03831660009081526004602090815260408083203384529091528120546000198114610a7d57610a58838261214d565b6001600160a01b03861660009081526004602090815260408083203384529091529020555b6001600160a01b03851660009081526003602052604081208054859290610aa590849061214d565b90915550506001600160a01b038085166000818152600360205260409081902080548701905551909187169060008051602061227883398151915290610aee9087815260200190565b60405180910390a3506001949350505050565b6006546001600160a01b03163314610b345760405162461bcd60e51b8152600401610b2b9061217c565b60405180910390fd5b6040516370a0823160e01b81523060048201527f00000000000000000000000000000000000000000000000000000000000000006001600160a01b031690632e1a7d4d9082906370a0823190602401602060405180830381865afa158015610ba0573d6000803e3d6000fd5b505050506040513d601f19601f82011682018060405250810190610bc491906120e9565b6040518263ffffffff1660e01b8152600401610be291815260200190565b600060405180830381600087803b158015610bfc57600080fd5b505af1158015610c10573d6000803e3d6000fd5b50505050610c1c611a54565b565b60007f00000000000000000000000000000000000000000000000000000000000000004614610c4f57610729611ad6565b507f000000000000000000000000000000000000000000000000000000000000000090565b6001600160a01b0381166000908152600360205260408120546108d890610844565b6006546001600160a01b03163314610cc05760405162461bcd60e51b8152600401610b2b9061217c565b610cc8611b70565b6040516370a0823160e01b81523060048201526001600160a01b037f000000000000000000000000000000000000000000000000000000000000000081169163b6b55f25917f000000000000000000000000000000000000000000000000000000000000000016906370a0823190602401602060405180830381865afa158015610d56573d6000803e3d6000fd5b505050506040513d601f19601f82011682018060405250810190610d7a91906120e9565b6040518263ffffffff1660e01b8152600401610d9891815260200190565b600060405180830381600087803b158015610db257600080fd5b505af1158015610dc6573d6000803e3d6000fd5b50505050565b60025460065460009190600160a01b900460ff16610f04576000610def84610844565b6040516370a0823160e01b81526001600160a01b037f0000000000000000000000000000000000000000000000000000000000000000811660048301529192506000917f000000000000000000000000000000000000000000000000000000000000000016906370a0823190602401602060405180830381865afa158015610e7b573d6000803e3d6000fd5b505050506040513d601f19601f82011682018060405250810190610e9f91906120e9565b905081811015610efc576000610eb5828461214d565b9050610eee7f000000000000000000000000000000000000000000000000000000000000000060075483611a079092919063ffffffff16565b610ef8908461214d565b9250505b509392505050565b801561086857610863610f1561057f565b849083611a07565b50919050565b600654600090600160a01b900460ff1615610f505760405162461bcd60e51b8152600401610b2b906121b1565b610f5983611961565b905080610f965760405162461bcd60e51b815260206004820152600b60248201526a5a45524f5f53484152455360a81b6044820152606401610b2b565b610fcb6001600160a01b037f000000000000000000000000000000000000000000000000000000000000000016333086611bf4565b610fd58282611c7e565b60408051848152602081018390526001600160a01b0384169133917fdcbc1c05240f31ff3ad067ef1ee35ce4997762752e3a095284754544f4c709d7910160405180910390a36108d88382611cd8565b6006546001600160a01b0316331461104f5760405162461bcd60e51b8152600401610b2b9061217c565b610c1c6000611d57565b600654600090600160a01b900460ff16156110865760405162461bcd60e51b8152600401610b2b906121b1565b61108f83611193565b90506110c66001600160a01b037f000000000000000000000000000000000000000000000000000000000000000016333084611bf4565b6110d08284611c7e565b60408051828152602081018590526001600160a01b0384169133917fdcbc1c05240f31ff3ad067ef1ee35ce4997762752e3a095284754544f4c709d7910160405180910390a36108d88184611cd8565b600180546107c390612102565b3360009081526003602052604081208054839190839061114e90849061214d565b90915550506001600160a01b03831660008181526003602052604090819020805485019055513390600080516020612278833981519152906108cc9086815260200190565b600254600090801561086857610863610f1561057f565b60006111b5846108de565b9050336001600160a01b03831614611225576001600160a01b03821660009081526004602090815260408083203384529091529020546000198114611223576111fe828261214d565b6001600160a01b03841660009081526004602090815260408083203384529091529020555b505b600654600160a01b900460ff16611365576040516370a0823160e01b81523060048201526000907f00000000000000000000000000000000000000000000000000000000000000006001600160a01b0316906370a0823190602401602060405180830381865afa15801561129d573d6000803e3d6000fd5b505050506040513d601f19601f820116820180604052508101906112c191906120e9565b90506112cd8583611da9565b6040516370a0823160e01b815230600482015281907f00000000000000000000000000000000000000000000000000000000000000006001600160a01b0316906370a0823190602401602060405180830381865afa158015611333573d6000803e3d6000fd5b505050506040513d601f19601f8201168201806040525081019061135791906120e9565b611361919061214d565b9450505b61136f8282611dff565b60408051858152602081018390526001600160a01b03808516929086169133917ffbde797d201c681b91056529119e0b02407c7bb96a4a2c75c01fc9667232c8db910160405180910390a461086a6001600160a01b037f0000000000000000000000000000000000000000000000000000000000000000168486611e61565b6000336001600160a01b0383161461145e576001600160a01b0382166000908152600460209081526040808320338452909152902054600019811461145c57611437858261214d565b6001600160a01b03841660009081526004602090815260408083203384529091529020555b505b61146784610dcc565b9050806114a45760405162461bcd60e51b815260206004820152600b60248201526a5a45524f5f41535345545360a81b6044820152606401610b2b565b600654600160a01b900460ff166115e4576040516370a0823160e01b81523060048201526000907f00000000000000000000000000000000000000000000000000000000000000006001600160a01b0316906370a0823190602401602060405180830381865afa15801561151c573d6000803e3d6000fd5b505050506040513d601f19601f8201168201806040525081019061154091906120e9565b905061154c8286611da9565b6040516370a0823160e01b815230600482015281907f00000000000000000000000000000000000000000000000000000000000000006001600160a01b0316906370a0823190602401602060405180830381865afa1580156115b2573d6000803e3d6000fd5b505050506040513d601f19601f820116820180604052508101906115d691906120e9565b6115e0919061214d565b9150505b6115ee8285611dff565b60408051828152602081018690526001600160a01b03808516929086169133917ffbde797d201c681b91056529119e0b02407c7bb96a4a2c75c01fc9667232c8db910160405180910390a461086a6001600160a01b037f0000000000000000000000000000000000000000000000000000000000000000168483611e61565b60025460009080156108685761086381610a1961057f565b428410156116d55760405162461bcd60e51b815260206004820152601760248201527f5045524d49545f444541444c494e455f455850495245440000000000000000006044820152606401610b2b565b600060016116e1610c1e565b6001600160a01b038a811660008181526005602090815260409182902080546001810190915582517f6e71edae12b1b97f4d1f60370fef10105fa2faae0126114a169c64845d6126c98184015280840194909452938d166060840152608083018c905260a083019390935260c08083018b90528151808403909101815260e08301909152805192019190912061190160f01b6101008301526101028201929092526101228101919091526101420160408051601f198184030181528282528051602091820120600084529083018083525260ff871690820152606081018590526080810184905260a0016020604051602081039080840390855afa1580156117ed573d6000803e3d6000fd5b5050604051601f1901519150506001600160a01b038116158015906118235750876001600160a01b0316816001600160a01b0316145b6118605760405162461bcd60e51b815260206004820152600e60248201526d24a72b20a624a22fa9a4a3a722a960911b6044820152606401610b2b565b6001600160a01b0390811660009081526004602090815260408083208a8516808552908352928190208990555188815291928a16917f8c5be1e5ebec7d5bd14f71427d1e84f3dd0314c0f7b2291e5b200ac8c7c3b925910160405180910390a350505050505050565b6002546000908015610868576040516370a0823160e01b8152306004820152610863907f00000000000000000000000000000000000000000000000000000000000000006001600160a01b0316906370a0823190602401602060405180830381865afa15801561193d573d6000803e3d6000fd5b505050506040513d601f19601f82011682018060405250810190610f1591906120e9565b60006108d88261166d565b6006546001600160a01b031633146119965760405162461bcd60e51b8152600401610b2b9061217c565b6001600160a01b0381166119fb5760405162461bcd60e51b815260206004820152602660248201527f4f776e61626c653a206e6577206f776e657220697320746865207a65726f206160448201526564647265737360d01b6064820152608401610b2b565b611a0481611d57565b50565b828202811515841585830485141716611a1f57600080fd5b6001826001830304018115150290509392505050565b828202811515841585830485141716611a4d57600080fd5b0492915050565b600654600160a01b900460ff1615611a7e5760405162461bcd60e51b8152600401610b2b906121b1565b6006805460ff60a01b1916600160a01b1790557f62e78cea01bee320cd4e420270b5ea74000d11b0c9f74754ebdbfc544b05a258611ab93390565b6040516001600160a01b03909116815260200160405180910390a1565b60007f8b73c3c69bb8fe3d512ecc4cf759cc79239f7b179b0ffacaa9a75d522b39400f6000604051611b0891906121db565b6040805191829003822060208301939093528101919091527fc89efdaa54c0f20c7adf612882df0950f5a951637e0307cdcb4c672f298b8bc660608201524660808201523060a082015260c00160405160208183030381529060405280519060200120905090565b600654600160a01b900460ff16611bc05760405162461bcd60e51b815260206004820152601460248201527314185d5cd8589b194e881b9bdd081c185d5cd95960621b6044820152606401610b2b565b6006805460ff60a01b191690557f5db9ee0a495bf2e6ff9c91a7834c1ba4fdd244a5e8aa4e537bd38aeae4b073aa33611ab9565b60006040516323b872dd60e01b81528460048201528360248201528260448201526020600060648360008a5af13d15601f3d1160016000511416171691505080611c775760405162461bcd60e51b81526020600482015260146024820152731514905394d1915497d19493d357d1905253115160621b6044820152606401610b2b565b5050505050565b8060026000828254611c909190612164565b90915550506001600160a01b03821660008181526003602090815260408083208054860190555184815260008051602061227883398151915291015b60405180910390a35050565b60405163b6b55f2560e01b8152600481018390527f00000000000000000000000000000000000000000000000000000000000000006001600160a01b03169063b6b55f25906024015b600060405180830381600087803b158015611d3b57600080fd5b505af1158015611d4f573d6000803e3d6000fd5b505050505050565b600680546001600160a01b038381166001600160a01b0319831681179093556040519116919082907f8be0079c531659141344cd1fd0a4f28419497f9722a3daafe3b4186f6b6457e090600090a35050565b7f00000000000000000000000000000000000000000000000000000000000000006001600160a01b0316632e1a7d4d611de1836118c9565b6040518263ffffffff1660e01b8152600401611d2191815260200190565b6001600160a01b03821660009081526003602052604081208054839290611e2790849061214d565b90915550506002805482900390556040518181526000906001600160a01b0384169060008051602061227883398151915290602001611ccc565b600060405163a9059cbb60e01b8152836004820152826024820152602060006044836000895af13d15601f3d1160016000511416171691505080610dc65760405162461bcd60e51b815260206004820152600f60248201526e1514905394d1915497d19052531151608a1b6044820152606401610b2b565b600060208083528351808285015260005b81811015611f0657858101830151858201604001528201611eea565b81811115611f18576000604083870101525b50601f01601f1916929092016040019392505050565b600060208284031215611f4057600080fd5b5035919050565b80356001600160a01b0381168114611f5e57600080fd5b919050565b60008060408385031215611f7657600080fd5b611f7f83611f47565b946020939093013593505050565b600080600060608486031215611fa257600080fd5b611fab84611f47565b9250611fb960208501611f47565b9150604084013590509250925092565b600060208284031215611fdb57600080fd5b61086a82611f47565b60008060408385031215611ff757600080fd5b8235915061200760208401611f47565b90509250929050565b60008060006060848603121561202557600080fd5b8335925061203560208501611f47565b915061204360408501611f47565b90509250925092565b600080600080600080600060e0888a03121561206757600080fd5b61207088611f47565b965061207e60208901611f47565b95506040880135945060608801359350608088013560ff811681146120a257600080fd5b9699959850939692959460a0840135945060c09093013592915050565b600080604083850312156120d257600080fd5b6120db83611f47565b915061200760208401611f47565b6000602082840312156120fb57600080fd5b5051919050565b600181811c9082168061211657607f821691505b60208210811415610f1d57634e487b7160e01b600052602260045260246000fd5b634e487b7160e01b600052601160045260246000fd5b60008282101561215f5761215f612137565b500390565b6000821982111561217757612177612137565b500190565b6020808252818101527f4f776e61626c653a2063616c6c6572206973206e6f7420746865206f776e6572604082015260600190565b60208082526010908201526f14185d5cd8589b194e881c185d5cd95960821b604082015260600190565b600080835481600182811c9150808316806121f757607f831692505b602080841082141561221757634e487b7160e01b86526022600452602486fd5b81801561222b576001811461223c57612269565b60ff19861689528489019650612269565b60008a81526020902060005b868110156122615781548b820152908501908301612248565b505084890196505b50949897505050505050505056feddf252ad1be2c89b69c2b068fc378daa952ba7f163c4a11628f55a4df523b3efa164736f6c634300080a000a",
    "linkReferences": {}
  },
  "methodIdentifiers": {
    "DOMAIN_SEPARATOR()": "3644e515",
    "allowance(address,address)": "dd62ed3e",
    "approve(address,uint256)": "095ea7b3",
    "asset()": "38d52e0f",
    "balanceOf(address)": "70a08231",
    "balanceOfUnderlying(address)": "3af9e669",
    "beefyVault()": "0f0d6569",
    "convertToAssets(uint256)": "07a2d13a",
    "convertToBeefyVaultShares(uint256)": "e30f4e43",
    "convertToShares(uint256)": "c6e6f592",
    "decimals()": "313ce567",
    "deposit(uint256,address)": "6e553f65",
    "emergencyWithdrawAndPause()": "28357978",
    "maxDeposit(address)": "402d267d",
    "maxMint(address)": "c63d75b6",
    "maxRedeem(address)": "d905777e",
    "maxWithdraw(address)": "ce96cb77",
    "mint(uint256,address)": "94bf804d",
    "name()": "06fdde03",
    "nonces(address)": "7ecebe00",
    "owner()": "8da5cb5b",
    "paused()": "5c975abb",
    "permit(address,address,uint256,uint256,uint8,bytes32,bytes32)": "d505accf",
    "previewDeposit(uint256)": "ef8b30f7",
    "previewMint(uint256)": "b3d7f6b9",
    "previewRedeem(uint256)": "4cdad506",
    "previewWithdraw(uint256)": "0a28a477",
    "redeem(uint256,address,address)": "ba087652",
    "renounceOwnership()": "715018a6",
    "symbol()": "95d89b41",
    "totalAssets()": "01e1d114",
    "totalSupply()": "18160ddd",
    "transfer(address,uint256)": "a9059cbb",
    "transferFrom(address,address,uint256)": "23b872dd",
    "transferOwnership(address)": "f2fde38b",
    "unpause()": "3f4ba83a",
    "withdraw(uint256,address,address)": "b460af94",
    "withdrawalFee()": "8bc7e8c4"
  }
}