{
  "address": "0xfe52e46EE81B712d6b15923ae3607E79b7C6Eb04",
  "abi": [
    {
      "anonymous": false,
      "inputs": [
        {
          "indexed": true,
          "internalType": "address",
          "name": "owner",
          "type": "address"
        },
        {
          "indexed": true,
          "internalType": "address",
          "name": "spender",
          "type": "address"
        },
        {
          "indexed": false,
          "internalType": "uint256",
          "name": "value",
          "type": "uint256"
        }
      ],
      "name": "Approval",
      "type": "event"
    },
    {
      "anonymous": false,
      "inputs": [
        {
          "indexed": true,
          "internalType": "address",
          "name": "caller",
          "type": "address"
        },
        {
          "indexed": true,
          "internalType": "address",
          "name": "owner",
          "type": "address"
        },
        {
          "indexed": false,
          "internalType": "uint256",
          "name": "assets",
          "type": "uint256"
        },
        {
          "indexed": false,
          "internalType": "uint256",
          "name": "shares",
          "type": "uint256"
        }
      ],
      "name": "Deposit",
      "type": "event"
    },
    {
      "anonymous": false,
      "inputs": [
        {
          "indexed": false,
          "internalType": "uint8",
          "name": "version",
          "type": "uint8"
        }
      ],
      "name": "Initialized",
      "type": "event"
    },
    {
      "anonymous": false,
      "inputs": [
        {
          "indexed": false,
          "internalType": "address",
          "name": "oldOwner",
          "type": "address"
        },
        {
          "indexed": false,
          "internalType": "address",
          "name": "newOwner",
          "type": "address"
        }
      ],
      "name": "NewOwner",
      "type": "event"
    },
    {
      "anonymous": false,
      "inputs": [
        {
          "indexed": false,
          "internalType": "address",
          "name": "oldPendingOwner",
          "type": "address"
        },
        {
          "indexed": false,
          "internalType": "address",
          "name": "newPendingOwner",
          "type": "address"
        }
      ],
      "name": "NewPendingOwner",
      "type": "event"
    },
    {
      "anonymous": false,
      "inputs": [
        {
          "indexed": true,
          "internalType": "address",
          "name": "previousOwner",
          "type": "address"
        },
        {
          "indexed": true,
          "internalType": "address",
          "name": "newOwner",
          "type": "address"
        }
      ],
      "name": "OwnershipTransferred",
      "type": "event"
    },
    {
      "anonymous": false,
      "inputs": [
        {
          "indexed": false,
          "internalType": "address",
          "name": "account",
          "type": "address"
        }
      ],
      "name": "Paused",
      "type": "event"
    },
    {
      "anonymous": false,
      "inputs": [
        {
          "indexed": true,
          "internalType": "address",
          "name": "from",
          "type": "address"
        },
        {
          "indexed": true,
          "internalType": "address",
          "name": "to",
          "type": "address"
        },
        {
          "indexed": false,
          "internalType": "uint256",
          "name": "value",
          "type": "uint256"
        }
      ],
      "name": "Transfer",
      "type": "event"
    },
    {
      "anonymous": false,
      "inputs": [
        {
          "indexed": false,
          "internalType": "address",
          "name": "account",
          "type": "address"
        }
      ],
      "name": "Unpaused",
      "type": "event"
    },
    {
      "anonymous": false,
      "inputs": [
        {
          "indexed": false,
          "internalType": "uint256",
          "name": "oldPerformanceFee",
          "type": "uint256"
        },
        {
          "indexed": false,
          "internalType": "uint256",
          "name": "newPerformanceFee",
          "type": "uint256"
        },
        {
          "indexed": false,
          "internalType": "address",
          "name": "oldFeeRecipient",
          "type": "address"
        },
        {
          "indexed": false,
          "internalType": "address",
          "name": "newFeeRecipient",
          "type": "address"
        }
      ],
      "name": "UpdatedFeeSettings",
      "type": "event"
    },
    {
      "anonymous": false,
      "inputs": [
        {
          "indexed": true,
          "internalType": "address",
          "name": "caller",
          "type": "address"
        },
        {
          "indexed": true,
          "internalType": "address",
          "name": "receiver",
          "type": "address"
        },
        {
          "indexed": true,
          "internalType": "address",
          "name": "owner",
          "type": "address"
        },
        {
          "indexed": false,
          "internalType": "uint256",
          "name": "assets",
          "type": "uint256"
        },
        {
          "indexed": false,
          "internalType": "uint256",
          "name": "shares",
          "type": "uint256"
        }
      ],
      "name": "Withdraw",
      "type": "event"
    },
    {
      "inputs": [],
      "name": "_acceptOwner",
      "outputs": [],
      "stateMutability": "nonpayable",
      "type": "function"
    },
    {
      "inputs": [
        {
          "internalType": "address",
          "name": "newPendingOwner",
          "type": "address"
        }
      ],
      "name": "_setPendingOwner",
      "outputs": [],
      "stateMutability": "nonpayable",
      "type": "function"
    },
    {
      "inputs": [
        {
          "internalType": "address",
          "name": "owner",
          "type": "address"
        },
        {
          "internalType": "address",
          "name": "spender",
          "type": "address"
        }
      ],
      "name": "allowance",
      "outputs": [
        {
          "internalType": "uint256",
          "name": "",
          "type": "uint256"
        }
      ],
      "stateMutability": "view",
      "type": "function"
    },
    {
      "inputs": [
        {
          "internalType": "address",
          "name": "spender",
          "type": "address"
        },
        {
          "internalType": "uint256",
          "name": "amount",
          "type": "uint256"
        }
      ],
      "name": "approve",
      "outputs": [
        {
          "internalType": "bool",
          "name": "",
          "type": "bool"
        }
      ],
      "stateMutability": "nonpayable",
      "type": "function"
    },
    {
      "inputs": [],
      "name": "asset",
      "outputs": [
        {
          "internalType": "address",
          "name": "",
          "type": "address"
        }
      ],
      "stateMutability": "view",
      "type": "function"
    },
    {
      "inputs": [
        {
          "internalType": "address",
          "name": "account",
          "type": "address"
        }
      ],
      "name": "balanceOf",
      "outputs": [
        {
          "internalType": "uint256",
          "name": "",
          "type": "uint256"
        }
      ],
      "stateMutability": "view",
      "type": "function"
    },
    {
      "inputs": [
        {
          "internalType": "address",
          "name": "account",
          "type": "address"
        }
      ],
      "name": "balanceOfUnderlying",
      "outputs": [
        {
          "internalType": "uint256",
          "name": "",
          "type": "uint256"
        }
      ],
      "stateMutability": "view",
      "type": "function"
    },
    {
      "inputs": [],
      "name": "beefyVault",
      "outputs": [
        {
          "internalType": "contract IBeefyVault",
          "name": "",
          "type": "address"
        }
      ],
      "stateMutability": "view",
      "type": "function"
    },
    {
      "inputs": [
        {
          "internalType": "uint256",
          "name": "shares",
          "type": "uint256"
        }
      ],
      "name": "convertToAssets",
      "outputs": [
        {
          "internalType": "uint256",
          "name": "assets",
          "type": "uint256"
        }
      ],
      "stateMutability": "view",
      "type": "function"
    },
    {
      "inputs": [
        {
          "internalType": "uint256",
          "name": "shares",
          "type": "uint256"
        }
      ],
      "name": "convertToBeefyVaultShares",
      "outputs": [
        {
          "internalType": "uint256",
          "name": "",
          "type": "uint256"
        }
      ],
      "stateMutability": "view",
      "type": "function"
    },
    {
      "inputs": [
        {
          "internalType": "uint256",
          "name": "assets",
          "type": "uint256"
        }
      ],
      "name": "convertToShares",
      "outputs": [
        {
          "internalType": "uint256",
          "name": "shares",
          "type": "uint256"
        }
      ],
      "stateMutability": "view",
      "type": "function"
    },
    {
      "inputs": [],
      "name": "decimals",
      "outputs": [
        {
          "internalType": "uint8",
          "name": "",
          "type": "uint8"
        }
      ],
      "stateMutability": "view",
      "type": "function"
    },
    {
      "inputs": [
        {
          "internalType": "address",
          "name": "spender",
          "type": "address"
        },
        {
          "internalType": "uint256",
          "name": "subtractedValue",
          "type": "uint256"
        }
      ],
      "name": "decreaseAllowance",
      "outputs": [
        {
          "internalType": "bool",
          "name": "",
          "type": "bool"
        }
      ],
      "stateMutability": "nonpayable",
      "type": "function"
    },
    {
      "inputs": [
        {
          "internalType": "uint256",
          "name": "assets",
          "type": "uint256"
        },
        {
          "internalType": "address",
          "name": "receiver",
          "type": "address"
        }
      ],
      "name": "deposit",
      "outputs": [
        {
          "internalType": "uint256",
          "name": "shares",
          "type": "uint256"
        }
      ],
      "stateMutability": "nonpayable",
      "type": "function"
    },
    {
      "inputs": [],
      "name": "emergencyWithdrawAndPause",
      "outputs": [],
      "stateMutability": "nonpayable",
      "type": "function"
    },
    {
      "inputs": [],
      "name": "feeRecipient",
      "outputs": [
        {
          "internalType": "address",
          "name": "",
          "type": "address"
        }
      ],
      "stateMutability": "view",
      "type": "function"
    },
    {
      "inputs": [
        {
          "internalType": "address",
          "name": "spender",
          "type": "address"
        },
        {
          "internalType": "uint256",
          "name": "addedValue",
          "type": "uint256"
        }
      ],
      "name": "increaseAllowance",
      "outputs": [
        {
          "internalType": "bool",
          "name": "",
          "type": "bool"
        }
      ],
      "stateMutability": "nonpayable",
      "type": "function"
    },
    {
      "inputs": [
        {
          "internalType": "contract ERC20Upgradeable",
          "name": "asset",
          "type": "address"
        },
        {
          "internalType": "contract IBeefyVault",
          "name": "_beefyVault",
          "type": "address"
        },
        {
          "internalType": "uint256",
          "name": "_withdrawalFee",
          "type": "uint256"
        }
      ],
      "name": "initialize",
      "outputs": [],
      "stateMutability": "nonpayable",
      "type": "function"
    },
    {
      "inputs": [
        {
          "internalType": "address",
          "name": "",
          "type": "address"
        }
      ],
      "name": "maxDeposit",
      "outputs": [
        {
          "internalType": "uint256",
          "name": "",
          "type": "uint256"
        }
      ],
      "stateMutability": "view",
      "type": "function"
    },
    {
      "inputs": [
        {
          "internalType": "address",
          "name": "",
          "type": "address"
        }
      ],
      "name": "maxMint",
      "outputs": [
        {
          "internalType": "uint256",
          "name": "",
          "type": "uint256"
        }
      ],
      "stateMutability": "view",
      "type": "function"
    },
    {
      "inputs": [
        {
          "internalType": "address",
          "name": "owner",
          "type": "address"
        }
      ],
      "name": "maxRedeem",
      "outputs": [
        {
          "internalType": "uint256",
          "name": "",
          "type": "uint256"
        }
      ],
      "stateMutability": "view",
      "type": "function"
    },
    {
      "inputs": [
        {
          "internalType": "address",
          "name": "owner",
          "type": "address"
        }
      ],
      "name": "maxWithdraw",
      "outputs": [
        {
          "internalType": "uint256",
          "name": "",
          "type": "uint256"
        }
      ],
      "stateMutability": "view",
      "type": "function"
    },
    {
      "inputs": [
        {
          "internalType": "uint256",
          "name": "shares",
          "type": "uint256"
        },
        {
          "internalType": "address",
          "name": "receiver",
          "type": "address"
        }
      ],
      "name": "mint",
      "outputs": [
        {
          "internalType": "uint256",
          "name": "assets",
          "type": "uint256"
        }
      ],
      "stateMutability": "nonpayable",
      "type": "function"
    },
    {
      "inputs": [],
      "name": "name",
      "outputs": [
        {
          "internalType": "string",
          "name": "",
          "type": "string"
        }
      ],
      "stateMutability": "view",
      "type": "function"
    },
    {
      "inputs": [],
      "name": "owner",
      "outputs": [
        {
          "internalType": "address",
          "name": "",
          "type": "address"
        }
      ],
      "stateMutability": "view",
      "type": "function"
    },
    {
      "inputs": [],
      "name": "paused",
      "outputs": [
        {
          "internalType": "bool",
          "name": "",
          "type": "bool"
        }
      ],
      "stateMutability": "view",
      "type": "function"
    },
    {
      "inputs": [],
      "name": "pendingOwner",
      "outputs": [
        {
          "internalType": "address",
          "name": "",
          "type": "address"
        }
      ],
      "stateMutability": "view",
      "type": "function"
    },
    {
      "inputs": [],
      "name": "performanceFee",
      "outputs": [
        {
          "internalType": "uint256",
          "name": "",
          "type": "uint256"
        }
      ],
      "stateMutability": "view",
      "type": "function"
    },
    {
      "inputs": [
        {
          "internalType": "uint256",
          "name": "assets",
          "type": "uint256"
        }
      ],
      "name": "previewDeposit",
      "outputs": [
        {
          "internalType": "uint256",
          "name": "",
          "type": "uint256"
        }
      ],
      "stateMutability": "view",
      "type": "function"
    },
    {
      "inputs": [
        {
          "internalType": "uint256",
          "name": "shares",
          "type": "uint256"
        }
      ],
      "name": "previewMint",
      "outputs": [
        {
          "internalType": "uint256",
          "name": "",
          "type": "uint256"
        }
      ],
      "stateMutability": "view",
      "type": "function"
    },
    {
      "inputs": [
        {
          "internalType": "uint256",
          "name": "shares",
          "type": "uint256"
        }
      ],
      "name": "previewRedeem",
      "outputs": [
        {
          "internalType": "uint256",
          "name": "",
          "type": "uint256"
        }
      ],
      "stateMutability": "view",
      "type": "function"
    },
    {
      "inputs": [
        {
          "internalType": "uint256",
          "name": "assets",
          "type": "uint256"
        }
      ],
      "name": "previewWithdraw",
      "outputs": [
        {
          "internalType": "uint256",
          "name": "",
          "type": "uint256"
        }
      ],
      "stateMutability": "view",
      "type": "function"
    },
    {
      "inputs": [
        {
          "internalType": "uint256",
          "name": "shares",
          "type": "uint256"
        },
        {
          "internalType": "address",
          "name": "receiver",
          "type": "address"
        },
        {
          "internalType": "address",
          "name": "owner",
          "type": "address"
        }
      ],
      "name": "redeem",
      "outputs": [
        {
          "internalType": "uint256",
          "name": "assets",
          "type": "uint256"
        }
      ],
      "stateMutability": "nonpayable",
      "type": "function"
    },
    {
      "inputs": [],
      "name": "renounceOwnership",
      "outputs": [],
      "stateMutability": "nonpayable",
      "type": "function"
    },
    {
      "inputs": [],
      "name": "symbol",
      "outputs": [
        {
          "internalType": "string",
          "name": "",
          "type": "string"
        }
      ],
      "stateMutability": "view",
      "type": "function"
    },
    {
      "inputs": [],
      "name": "takePerformanceFee",
      "outputs": [],
      "stateMutability": "nonpayable",
      "type": "function"
    },
    {
      "inputs": [],
      "name": "totalAssets",
      "outputs": [
        {
          "internalType": "uint256",
          "name": "",
          "type": "uint256"
        }
      ],
      "stateMutability": "view",
      "type": "function"
    },
    {
      "inputs": [],
      "name": "totalSupply",
      "outputs": [
        {
          "internalType": "uint256",
          "name": "",
          "type": "uint256"
        }
      ],
      "stateMutability": "view",
      "type": "function"
    },
    {
      "inputs": [
        {
          "internalType": "address",
          "name": "to",
          "type": "address"
        },
        {
          "internalType": "uint256",
          "name": "amount",
          "type": "uint256"
        }
      ],
      "name": "transfer",
      "outputs": [
        {
          "internalType": "bool",
          "name": "",
          "type": "bool"
        }
      ],
      "stateMutability": "nonpayable",
      "type": "function"
    },
    {
      "inputs": [
        {
          "internalType": "address",
          "name": "from",
          "type": "address"
        },
        {
          "internalType": "address",
          "name": "to",
          "type": "address"
        },
        {
          "internalType": "uint256",
          "name": "amount",
          "type": "uint256"
        }
      ],
      "name": "transferFrom",
      "outputs": [
        {
          "internalType": "bool",
          "name": "",
          "type": "bool"
        }
      ],
      "stateMutability": "nonpayable",
      "type": "function"
    },
    {
      "inputs": [
        {
          "internalType": "address",
          "name": "newOwner",
          "type": "address"
        }
      ],
      "name": "transferOwnership",
      "outputs": [],
      "stateMutability": "nonpayable",
      "type": "function"
    },
    {
      "inputs": [],
      "name": "unpause",
      "outputs": [],
      "stateMutability": "nonpayable",
      "type": "function"
    },
    {
      "inputs": [
        {
          "internalType": "uint256",
          "name": "newPerformanceFee",
          "type": "uint256"
        },
        {
          "internalType": "address",
          "name": "newFeeRecipient",
          "type": "address"
        }
      ],
      "name": "updateFeeSettings",
      "outputs": [],
      "stateMutability": "nonpayable",
      "type": "function"
    },
    {
      "inputs": [],
      "name": "vaultShareHWM",
      "outputs": [
        {
          "internalType": "uint256",
          "name": "",
          "type": "uint256"
        }
      ],
      "stateMutability": "view",
      "type": "function"
    },
    {
      "inputs": [
        {
          "internalType": "uint256",
          "name": "assets",
          "type": "uint256"
        },
        {
          "internalType": "address",
          "name": "receiver",
          "type": "address"
        },
        {
          "internalType": "address",
          "name": "owner",
          "type": "address"
        }
      ],
      "name": "withdraw",
      "outputs": [
        {
          "internalType": "uint256",
          "name": "shares",
          "type": "uint256"
        }
      ],
      "stateMutability": "nonpayable",
      "type": "function"
    },
    {
      "inputs": [],
      "name": "withdrawAccruedFees",
      "outputs": [],
      "stateMutability": "nonpayable",
      "type": "function"
    },
    {
      "inputs": [],
      "name": "withdrawalFee",
      "outputs": [
        {
          "internalType": "uint256",
          "name": "",
          "type": "uint256"
        }
      ],
      "stateMutability": "view",
      "type": "function"
    }
  ],
  "transactionHash": "0xca775566ec4dfb574a725ee129163119734e8333c877687b8caa568d79fd6e9c",
  "args": [],
  "numDeployments": 1,
  "bytecode": {
    "object": "0x608060405266b1a2bc2ec5000060fc556127106101005534801561002257600080fd5b5061312c806100326000396000f3fe608060405234801561001057600080fd5b50600436106102955760003560e01c80636e96dfd711610167578063b460af94116100ce578063dd62ed3e11610087578063dd62ed3e1461057d578063e30c397814610590578063e30f4e43146105a3578063ef8b30f714610544578063f2fde38b146105b6578063fc4d33f9146105c957600080fd5b8063b460af9414610509578063ba0876521461051c578063c63d75b61461052f578063c6e6f59214610544578063ce96cb7714610557578063d905777e1461056a57600080fd5b806394bf804d1161012057806394bf804d146104ad57806395d89b41146104c0578063a457c2d7146104c8578063a9059cbb146104db578063ada82c7d146104ee578063b3d7f6b9146104f657600080fd5b80636e96dfd71461044657806370a0823114610459578063715018a614610482578063877887821461048a5780638bc7e8c4146104935780638da5cb5b1461049c57600080fd5b8063283579781161020b578063402d267d116101c4578063402d267d146103e057806346904840146103f35780634cdad5061461040657806356f89ef9146104195780635c975abb146104215780636e553f651461043357600080fd5b8063283579781461038a578063313ce5671461039257806338d52e0f146103a157806339509351146103b25780633af9e669146103c55780633f4ba83a146103d857600080fd5b80630f0d65691161025d5780630f0d65691461031357806310509aa91461033e5780631794bb3c1461035357806318160ddd14610366578063211493c91461036e57806323b872dd1461037757600080fd5b806301e1d1141461029a57806306fdde03146102b557806307a2d13a146102ca578063095ea7b3146102dd5780630a28a47714610300575b600080fd5b6102a26105d1565b6040519081526020015b60405180910390f35b6102bd6107b5565b6040516102ac9190612bd5565b6102a26102d8366004612c08565b610847565b6102f06102eb366004612c36565b61085a565b60405190151581526020016102ac565b6102a261030e366004612c08565b610872565b60fe54610326906001600160a01b031681565b6040516001600160a01b0390911681526020016102ac565b61035161034c366004612c62565b610979565b005b610351610361366004612c92565b610a9c565b6099546102a2565b6102a260fb5481565b6102f0610385366004612c92565b610c48565b610351610c6c565b604051601281526020016102ac565b60c9546001600160a01b0316610326565b6102f06103c0366004612c36565b610d42565b6102a26103d3366004612cd3565b610d64565b610351610d86565b6102a26103ee366004612cd3565b610e65565b60fd54610326906001600160a01b031681565b6102a2610414366004612c08565b610e83565b610351610f8e565b606554600160a01b900460ff166102f0565b6102a2610441366004612c62565b6110f7565b610351610454366004612cd3565b6111c0565b6102a2610467366004612cd3565b6001600160a01b031660009081526097602052604090205490565b61035161122a565b6102a260fc5481565b6102a260ff5481565b6033546001600160a01b0316610326565b6102a26104bb366004612c62565b61126d565b6102bd6112ea565b6102f06104d6366004612c36565b6112f9565b6102f06104e9366004612c36565b611374565b610351611382565b6102a2610504366004612c08565b6113b2565b6102a2610517366004612cf0565b6113bf565b6102a261052a366004612cf0565b611588565b6102a261053d366004612cd3565b5060001990565b6102a2610552366004612c08565b61177c565b6102a2610565366004612cd3565b611789565b6102a2610578366004612cd3565b6117ad565b6102a261058b366004612d32565b6117cb565b606554610326906001600160a01b031681565b6102a26105b1366004612c08565b6117f6565b6103516105c4366004612cd3565b61122a565b610351611878565b606554600090600160a01b900460ff166107435760fe54604080516316d3df1560e31b8152905161073e926001600160a01b03169163b69ef8a89160048083019260209291908290030181865afa158015610630573d6000803e3d6000fd5b505050506040513d601f19601f820116820180604052508101906106549190612d60565b60fe60009054906101000a90046001600160a01b03166001600160a01b03166318160ddd6040518163ffffffff1660e01b8152600401602060405180830381865afa1580156106a7573d6000803e3d6000fd5b505050506040513d601f19601f820116820180604052508101906106cb9190612d60565b60fe546040516370a0823160e01b81523060048201526001600160a01b03909116906370a0823190602401602060405180830381865afa158015610713573d6000803e3d6000fd5b505050506040513d601f19601f820116820180604052508101906107379190612d60565b919061198c565b905090565b61074b6119ba565b6040516370a0823160e01b81523060048201526001600160a01b0391909116906370a0823190602401602060405180830381865afa158015610791573d6000803e3d6000fd5b505050506040513d601f19601f8201168201806040525081019061073e9190612d60565b6060609a80546107c490612d79565b80601f01602080910402602001604051908101604052809291908181526020018280546107f090612d79565b801561083d5780601f106108125761010080835404028352916020019161083d565b820191906000526020600020905b81548152906001019060200180831161082057829003601f168201915b5050505050905090565b60006108548260006119ce565b92915050565b600033610868818585611a94565b5060019392505050565b60008061087e60995490565b606554909150600160a01b900460ff1661095157600061089c6119ba565b60fe546040516370a0823160e01b81526001600160a01b0391821660048201529116906370a0823190602401602060405180830381865afa1580156108e5573d6000803e3d6000fd5b505050506040513d601f19601f820116820180604052508101906109099190612d60565b90508381101561094f57600061091f8286612dc4565b90506109416101005460ff54610100546109399190612dc4565b83919061198c565b61094b9083612ddb565b9450505b505b80156109705761096b816109636105d1565b859190611bb9565b610972565b825b9392505050565b610981611bd8565b60fc5460fd5460408051928352602083018590526001600160a01b0391821690830152821660608201527fb3b62da5184b9e7e2f5d280014bb485d4444b66738025e5fb5738bbddcb6b8489060800160405180910390a160fc82905560fd546001600160a01b03828116911614610a985760fd546001600160a01b031615610a7c5760fd546001600160a01b031660008181526097602052604090205490610a299082611c32565b60fd54610a52906001600160a01b0316610a4b6033546001600160a01b031690565b6000611a94565b610a5c8282611d63565b610a7a82610a726033546001600160a01b031690565b600019611a94565b505b60fd80546001600160a01b0319166001600160a01b0383161790555b5050565b600054610100900460ff1615808015610abc5750600054600160ff909116105b80610ad65750303b158015610ad6575060005460ff166001145b610b3e5760405162461bcd60e51b815260206004820152602e60248201527f496e697469616c697a61626c653a20636f6e747261637420697320616c72656160448201526d191e481a5b9a5d1a585b1a5e995960921b60648201526084015b60405180910390fd5b6000805460ff191660011790558015610b61576000805461ff0019166101001790555b610b6a84611e24565b60fe80546001600160a01b0319166001600160a01b0385811691821790925560ff84905560405163095ea7b360e01b8152600481019190915260001960248201529085169063095ea7b3906044016020604051808303816000875af1158015610bd7573d6000803e3d6000fd5b505050506040513d601f19601f82011682018060405250810190610bfb9190612df3565b508015610c42576000805461ff0019169055604051600181527f7f26b83ff96e1f2b6a682f133852f6798a09c465da95921460cefb38474024989060200160405180910390a15b50505050565b600033610c56858285611ff1565b610c61858585612065565b506001949350505050565b610c74611bd8565b60fe546040516370a0823160e01b81523060048201526001600160a01b0390911690632e1a7d4d9082906370a0823190602401602060405180830381865afa158015610cc4573d6000803e3d6000fd5b505050506040513d601f19601f82011682018060405250810190610ce89190612d60565b6040518263ffffffff1660e01b8152600401610d0691815260200190565b600060405180830381600087803b158015610d2057600080fd5b505af1158015610d34573d6000803e3d6000fd5b50505050610d40612210565b565b600033610868818585610d5583836117cb565b610d5f9190612ddb565b611a94565b6001600160a01b03811660009081526097602052604081205461085490610847565b610d8e611bd8565b610d96612270565b60fe546001600160a01b031663b6b55f25610daf6119ba565b6040516370a0823160e01b81523060048201526001600160a01b0391909116906370a0823190602401602060405180830381865afa158015610df5573d6000803e3d6000fd5b505050506040513d601f19601f82011682018060405250810190610e199190612d60565b6040518263ffffffff1660e01b8152600401610e3791815260200190565b600060405180830381600087803b158015610e5157600080fd5b505af1158015610c42573d6000803e3d6000fd5b6000610e6f6122ac565b610e7a576000610854565b60001992915050565b600080610e8f60995490565b606554909150600160a01b900460ff16610f6f576000610eae84610847565b90506000610eba6119ba565b60fe546040516370a0823160e01b81526001600160a01b0391821660048201529116906370a0823190602401602060405180830381865afa158015610f03573d6000803e3d6000fd5b505050506040513d601f19601f82011682018060405250810190610f279190612d60565b905081811015610f67576000610f3d8284612dc4565b9050610f5960ff54610100548361198c9092919063ffffffff16565b610f639084612dc4565b9250505b509392505050565b80156109705761096b610f806105d1565b84908361198c565b50919050565b610f96611bd8565b6000610fa06105d1565b9050600061101b610faf6119ba565b6001600160a01b031663313ce5676040518163ffffffff1660e01b8152600401602060405180830381865afa158015610fec573d6000803e3d6000fd5b505050506040513d601f19601f820116820180604052508101906110109190612e15565b6102d890600a612f1c565b905060fb54811161106e5760405162461bcd60e51b815260206004820152601b60248201527f736861726556616c756520213e207661756c74536861726548574d00000000006044820152606401610b35565b600061107960995490565b905060006ec097ce7bc90715b34b9f10000000008260fb548561109c9190612dc4565b60fc546110a99190612f2b565b6110b39190612f2b565b6110bd9190612f60565b60fd549091506110e3906001600160a01b03166110de846109638589612dc4565b611d63565b6110ee610faf6119ba565b60fb5550505050565b60006111016122c6565b61110a8361177c565b9050806111475760405162461bcd60e51b815260206004820152600b60248201526a5a45524f5f53484152455360a81b6044820152606401610b35565b6111663330856111556119ba565b6001600160a01b0316929190612313565b6111708282611d63565b60408051848152602081018390526001600160a01b0384169133917fdcbc1c05240f31ff3ad067ef1ee35ce4997762752e3a095284754544f4c709d7910160405180910390a3610854838261237e565b6111c8611bd8565b606580546001600160a01b038381166001600160a01b031983168117909355604080519190921680825260208201939093527fb3d55174552271a4f1aaf36b72f50381e892171636b3fb5447fe00e995e7a37b91015b60405180910390a15050565b611232611bd8565b60405162461bcd60e51b815260206004820152601060248201526f6e6f74207573656420616e796d6f726560801b6044820152606401610b35565b60006112776122c6565b611280836113b2565b90506112903330836111556119ba565b61129a8284611d63565b60408051828152602081018590526001600160a01b0384169133917fdcbc1c05240f31ff3ad067ef1ee35ce4997762752e3a095284754544f4c709d7910160405180910390a3610854818461237e565b6060609b80546107c490612d79565b6000338161130782866117cb565b9050838110156113675760405162461bcd60e51b815260206004820152602560248201527f45524332303a2064656372656173656420616c6c6f77616e63652062656c6f77604482015264207a65726f60d81b6064820152608401610b35565b610c618286868403611a94565b600033610868818585612065565b61138a611bd8565b60fd546001600160a01b03166000818152609760205260409020546113af9180611588565b50565b60006108548260016119ce565b60006113ca84610872565b9050336001600160a01b038316146114045760006113e883336117cb565b90506000198114611402576114028333610d5f8585612dc4565b505b606554600160a01b900460ff1661151657600061141f6119ba565b6040516370a0823160e01b81523060048201526001600160a01b0391909116906370a0823190602401602060405180830381865afa158015611465573d6000803e3d6000fd5b505050506040513d601f19601f820116820180604052508101906114899190612d60565b905061149585836123e1565b8061149e6119ba565b6040516370a0823160e01b81523060048201526001600160a01b0391909116906370a0823190602401602060405180830381865afa1580156114e4573d6000803e3d6000fd5b505050506040513d601f19601f820116820180604052508101906115089190612d60565b6115129190612dc4565b9450505b6115208282611c32565b60408051858152602081018390526001600160a01b03808516929086169133917ffbde797d201c681b91056529119e0b02407c7bb96a4a2c75c01fc9667232c8db910160405180910390a461097283856115786119ba565b6001600160a01b03169190612419565b6000336001600160a01b038316146115c25760006115a683336117cb565b905060001981146115c0576115c08333610d5f8885612dc4565b505b6115cb84610e83565b9050806116085760405162461bcd60e51b815260206004820152600b60248201526a5a45524f5f41535345545360a81b6044820152606401610b35565b606554600160a01b900460ff1661171a5760006116236119ba565b6040516370a0823160e01b81523060048201526001600160a01b0391909116906370a0823190602401602060405180830381865afa158015611669573d6000803e3d6000fd5b505050506040513d601f19601f8201168201806040525081019061168d9190612d60565b905061169982866123e1565b806116a26119ba565b6040516370a0823160e01b81523060048201526001600160a01b0391909116906370a0823190602401602060405180830381865afa1580156116e8573d6000803e3d6000fd5b505050506040513d601f19601f8201168201806040525081019061170c9190612d60565b6117169190612dc4565b9150505b6117248285611c32565b60408051828152602081018690526001600160a01b03808516929086169133917ffbde797d201c681b91056529119e0b02407c7bb96a4a2c75c01fc9667232c8db910160405180910390a461097283826115786119ba565b6000610854826000612449565b6001600160a01b0381166000908152609760205260408120546108549060006119ce565b6001600160a01b038116600090815260976020526040812054610854565b6001600160a01b03918216600090815260986020908152604080832093909416825291909152205490565b60008061180260995490565b905080156109705760fe546040516370a0823160e01b815230600482015261096b916001600160a01b0316906370a0823190602401602060405180830381865afa158015611854573d6000803e3d6000fd5b505050506040513d601f19601f82011682018060405250810190610f809190612d60565b6065546001600160a01b031633146118ca5760405162461bcd60e51b81526020600482015260156024820152743737ba103a3432903832b73234b7339037bbb732b960591b6044820152606401610b35565b60006118de6033546001600160a01b031690565b6065549091506001600160a01b03166118f6816124f8565b606580546001600160a01b0319169055604080516001600160a01b0384168152600060208201527f70aea8d848e8a90fb7661b227dc522eb6395c3dac71b63cb59edd5c9899b2364910160405180910390a1606554604080516001600160a01b03808516825290921660208301527fb3d55174552271a4f1aaf36b72f50381e892171636b3fb5447fe00e995e7a37b910161121e565b8282028115158415858304851417166119a457600080fd5b6001826001830304018115150290509392505050565b600061073e60c9546001600160a01b031690565b6000806119da60995490565b905080156119fb576119f66119ed6105d1565b8590838661254a565b611a8c565b60c9546040805163313ce56760e01b81529051611a8c926001600160a01b03169163313ce5679160048083019260209291908290030181865afa158015611a46573d6000803e3d6000fd5b505050506040513d601f19601f82011682018060405250810190611a6a9190612e15565b611a7590600a612f1c565b60125b611a8390600a612f1c565b8691908661254a565b949350505050565b6001600160a01b038316611af65760405162461bcd60e51b8152602060048201526024808201527f45524332303a20617070726f76652066726f6d20746865207a65726f206164646044820152637265737360e01b6064820152608401610b35565b6001600160a01b038216611b575760405162461bcd60e51b815260206004820152602260248201527f45524332303a20617070726f766520746f20746865207a65726f206164647265604482015261737360f01b6064820152608401610b35565b6001600160a01b0383811660008181526098602090815260408083209487168084529482529182902085905590518481527f8c5be1e5ebec7d5bd14f71427d1e84f3dd0314c0f7b2291e5b200ac8c7c3b92591015b60405180910390a3505050565b828202811515841585830485141716611bd157600080fd5b0492915050565b6033546001600160a01b03163314610d405760405162461bcd60e51b815260206004820181905260248201527f4f776e61626c653a2063616c6c6572206973206e6f7420746865206f776e65726044820152606401610b35565b6001600160a01b038216611c925760405162461bcd60e51b815260206004820152602160248201527f45524332303a206275726e2066726f6d20746865207a65726f206164647265736044820152607360f81b6064820152608401610b35565b6001600160a01b03821660009081526097602052604090205481811015611d065760405162461bcd60e51b815260206004820152602260248201527f45524332303a206275726e20616d6f756e7420657863656564732062616c616e604482015261636560f01b6064820152608401610b35565b6001600160a01b03831660008181526097602090815260408083208686039055609980548790039055518581529192917fddf252ad1be2c89b69c2b068fc378daa952ba7f163c4a11628f55a4df523b3ef9101611bac565b505050565b6001600160a01b038216611db95760405162461bcd60e51b815260206004820152601f60248201527f45524332303a206d696e7420746f20746865207a65726f2061646472657373006044820152606401610b35565b8060996000828254611dcb9190612ddb565b90915550506001600160a01b0382166000818152609760209081526040808320805486019055518481527fddf252ad1be2c89b69c2b068fc378daa952ba7f163c4a11628f55a4df523b3ef910160405180910390a35050565b600054610100900460ff16611e4b5760405162461bcd60e51b8152600401610b3590612f82565b611e536125a7565b611e5b6125d6565b611e63612605565b611f75816001600160a01b03166306fdde036040518163ffffffff1660e01b8152600401600060405180830381865afa158015611ea4573d6000803e3d6000fd5b505050506040513d6000823e601f3d908101601f19168201604052611ecc9190810190612fe3565b604051602001611edc9190613085565b604051602081830303815290604052826001600160a01b03166395d89b416040518163ffffffff1660e01b8152600401600060405180830381865afa158015611f29573d6000803e3d6000fd5b505050506040513d6000823e601f3d908101601f19168201604052611f519190810190612fe3565b604051602001611f6191906130c3565b60405160208183030381529060405261262c565b611f7e8161265d565b806001600160a01b031663313ce5676040518163ffffffff1660e01b8152600401602060405180830381865afa158015611fbc573d6000803e3d6000fd5b505050506040513d601f19601f82011682018060405250810190611fe09190612e15565b611feb90600a612f1c565b60fb5550565b6000611ffd84846117cb565b90506000198114610c4257818110156120585760405162461bcd60e51b815260206004820152601d60248201527f45524332303a20696e73756666696369656e7420616c6c6f77616e63650000006044820152606401610b35565b610c428484848403611a94565b6001600160a01b0383166120c95760405162461bcd60e51b815260206004820152602560248201527f45524332303a207472616e736665722066726f6d20746865207a65726f206164604482015264647265737360d81b6064820152608401610b35565b6001600160a01b03821661212b5760405162461bcd60e51b815260206004820152602360248201527f45524332303a207472616e7366657220746f20746865207a65726f206164647260448201526265737360e81b6064820152608401610b35565b6001600160a01b038316600090815260976020526040902054818110156121a35760405162461bcd60e51b815260206004820152602660248201527f45524332303a207472616e7366657220616d6f756e7420657863656564732062604482015265616c616e636560d01b6064820152608401610b35565b6001600160a01b0380851660008181526097602052604080822086860390559286168082529083902080548601905591517fddf252ad1be2c89b69c2b068fc378daa952ba7f163c4a11628f55a4df523b3ef906122039086815260200190565b60405180910390a3610c42565b6122186122c6565b6065805460ff60a01b1916600160a01b1790557f62e78cea01bee320cd4e420270b5ea74000d11b0c9f74754ebdbfc544b05a2586122533390565b6040516001600160a01b03909116815260200160405180910390a1565b61227861268d565b6065805460ff60a01b191690557f5db9ee0a495bf2e6ff9c91a7834c1ba4fdd244a5e8aa4e537bd38aeae4b073aa33612253565b6000806122b76105d1565b118061073e5750506099541590565b606554600160a01b900460ff1615610d405760405162461bcd60e51b815260206004820152601060248201526f14185d5cd8589b194e881c185d5cd95960821b6044820152606401610b35565b6040516001600160a01b0380851660248301528316604482015260648101829052610c429085906323b872dd60e01b906084015b60408051601f198184030181529190526020810180516001600160e01b03166001600160e01b0319909316929092179091526126dd565b60fe5460405163b6b55f2560e01b8152600481018490526001600160a01b039091169063b6b55f25906024015b600060405180830381600087803b1580156123c557600080fd5b505af11580156123d9573d6000803e3d6000fd5b505050505050565b60fe546001600160a01b0316632e1a7d4d6123fb836117f6565b6040518263ffffffff1660e01b81526004016123ab91815260200190565b6040516001600160a01b038316602482015260448101829052611d5e90849063a9059cbb60e01b90606401612347565b60008061245560995490565b9050831580612462575080155b612472576119f681611a836105d1565b611a8c6124816012600a612f1c565b60c960009054906101000a90046001600160a01b03166001600160a01b031663313ce5676040518163ffffffff1660e01b8152600401602060405180830381865afa1580156124d4573d6000803e3d6000fd5b505050506040513d601f19601f82011682018060405250810190611a789190612e15565b603380546001600160a01b038381166001600160a01b0319831681179093556040519116919082907f8be0079c531659141344cd1fd0a4f28419497f9722a3daafe3b4186f6b6457e090600090a35050565b6000806125588686866127af565b9050600183600281111561256e5761256e6130ed565b14801561258b57506000848061258657612586612f4a565b868809115b1561259e5761259b600182612ddb565b90505b95945050505050565b600054610100900460ff166125ce5760405162461bcd60e51b8152600401610b3590612f82565b610d4061285f565b600054610100900460ff166125fd5760405162461bcd60e51b8152600401610b3590612f82565b610d4061288e565b600054610100900460ff16610d405760405162461bcd60e51b8152600401610b3590612f82565b600054610100900460ff166126535760405162461bcd60e51b8152600401610b3590612f82565b610a9882826128c4565b600054610100900460ff166126845760405162461bcd60e51b8152600401610b3590612f82565b6113af81612912565b606554600160a01b900460ff16610d405760405162461bcd60e51b815260206004820152601460248201527314185d5cd8589b194e881b9bdd081c185d5cd95960621b6044820152606401610b35565b6000612732826040518060400160405280602081526020017f5361666545524332303a206c6f772d6c6576656c2063616c6c206661696c6564815250856001600160a01b031661295b9092919063ffffffff16565b805190915015611d5e57808060200190518101906127509190612df3565b611d5e5760405162461bcd60e51b815260206004820152602a60248201527f5361666545524332303a204552433230206f7065726174696f6e20646964206e6044820152691bdd081cdd58d8d9595960b21b6064820152608401610b35565b6000808060001985870985870292508281108382030391505080600014156127ea578382816127e0576127e0612f4a565b0492505050610972565b8084116127f657600080fd5b60008486880960026001871981018816978890046003810283188082028403028082028403028082028403028082028403028082028403029081029092039091026000889003889004909101858311909403939093029303949094049190911702949350505050565b600054610100900460ff166128865760405162461bcd60e51b8152600401610b3590612f82565b610d4061296a565b600054610100900460ff166128b55760405162461bcd60e51b8152600401610b3590612f82565b6065805460ff60a01b19169055565b600054610100900460ff166128eb5760405162461bcd60e51b8152600401610b3590612f82565b81516128fe90609a906020850190612b10565b508051611d5e90609b906020840190612b10565b600054610100900460ff166129395760405162461bcd60e51b8152600401610b3590612f82565b60c980546001600160a01b0319166001600160a01b0392909216919091179055565b6060611a8c848460008561299a565b600054610100900460ff166129915760405162461bcd60e51b8152600401610b3590612f82565b610d40336124f8565b6060824710156129fb5760405162461bcd60e51b815260206004820152602660248201527f416464726573733a20696e73756666696369656e742062616c616e636520666f6044820152651c8818d85b1b60d21b6064820152608401610b35565b600080866001600160a01b03168587604051612a179190613103565b60006040518083038185875af1925050503d8060008114612a54576040519150601f19603f3d011682016040523d82523d6000602084013e612a59565b606091505b5091509150612a6a87838387612a75565b979650505050505050565b60608315612ae1578251612ada576001600160a01b0385163b612ada5760405162461bcd60e51b815260206004820152601d60248201527f416464726573733a2063616c6c20746f206e6f6e2d636f6e74726163740000006044820152606401610b35565b5081611a8c565b611a8c8383815115612af65781518083602001fd5b8060405162461bcd60e51b8152600401610b359190612bd5565b828054612b1c90612d79565b90600052602060002090601f016020900481019282612b3e5760008555612b84565b82601f10612b5757805160ff1916838001178555612b84565b82800160010185558215612b84579182015b82811115612b84578251825591602001919060010190612b69565b50612b90929150612b94565b5090565b5b80821115612b905760008155600101612b95565b60005b83811015612bc4578181015183820152602001612bac565b83811115610c425750506000910152565b6020815260008251806020840152612bf4816040850160208701612ba9565b601f01601f19169190910160400192915050565b600060208284031215612c1a57600080fd5b5035919050565b6001600160a01b03811681146113af57600080fd5b60008060408385031215612c4957600080fd5b8235612c5481612c21565b946020939093013593505050565b60008060408385031215612c7557600080fd5b823591506020830135612c8781612c21565b809150509250929050565b600080600060608486031215612ca757600080fd5b8335612cb281612c21565b92506020840135612cc281612c21565b929592945050506040919091013590565b600060208284031215612ce557600080fd5b813561097281612c21565b600080600060608486031215612d0557600080fd5b833592506020840135612d1781612c21565b91506040840135612d2781612c21565b809150509250925092565b60008060408385031215612d4557600080fd5b8235612d5081612c21565b91506020830135612c8781612c21565b600060208284031215612d7257600080fd5b5051919050565b600181811c90821680612d8d57607f821691505b60208210811415610f8857634e487b7160e01b600052602260045260246000fd5b634e487b7160e01b600052601160045260246000fd5b600082821015612dd657612dd6612dae565b500390565b60008219821115612dee57612dee612dae565b500190565b600060208284031215612e0557600080fd5b8151801515811461097257600080fd5b600060208284031215612e2757600080fd5b815160ff8116811461097257600080fd5b600181815b80851115612e73578160001904821115612e5957612e59612dae565b80851615612e6657918102915b93841c9390800290612e3d565b509250929050565b600082612e8a57506001610854565b81612e9757506000610854565b8160018114612ead5760028114612eb757612ed3565b6001915050610854565b60ff841115612ec857612ec8612dae565b50506001821b610854565b5060208310610133831016604e8410600b8410161715612ef6575081810a610854565b612f008383612e38565b8060001904821115612f1457612f14612dae565b029392505050565b600061097260ff841683612e7b565b6000816000190483118215151615612f4557612f45612dae565b500290565b634e487b7160e01b600052601260045260246000fd5b600082612f7d57634e487b7160e01b600052601260045260246000fd5b500490565b6020808252602b908201527f496e697469616c697a61626c653a20636f6e7472616374206973206e6f74206960408201526a6e697469616c697a696e6760a81b606082015260800190565b634e487b7160e01b600052604160045260246000fd5b600060208284031215612ff557600080fd5b815167ffffffffffffffff8082111561300d57600080fd5b818401915084601f83011261302157600080fd5b81518181111561303357613033612fcd565b604051601f8201601f19908116603f0116810190838211818310171561305b5761305b612fcd565b8160405282815287602084870101111561307457600080fd5b612a6a836020830160208801612ba9565b65026b4b230b9960d51b8152600082516130a6816006850160208701612ba9565b650815985d5b1d60d21b6006939091019283015250600c01919050565b6136bb60f11b8152600082516130e0816002850160208701612ba9565b9190910160020192915050565b634e487b7160e01b600052602160045260246000fd5b60008251613115818460208701612ba9565b919091019291505056fea164736f6c634300080a000a",
    "linkReferences": {}
  },
  "methodIdentifiers": {
    "_acceptOwner()": "fc4d33f9",
    "_setPendingOwner(address)": "6e96dfd7",
    "allowance(address,address)": "dd62ed3e",
    "approve(address,uint256)": "095ea7b3",
    "asset()": "38d52e0f",
    "balanceOf(address)": "70a08231",
    "balanceOfUnderlying(address)": "3af9e669",
    "beefyVault()": "0f0d6569",
    "convertToAssets(uint256)": "07a2d13a",
    "convertToBeefyVaultShares(uint256)": "e30f4e43",
    "convertToShares(uint256)": "c6e6f592",
    "decimals()": "313ce567",
    "decreaseAllowance(address,uint256)": "a457c2d7",
    "deposit(uint256,address)": "6e553f65",
    "emergencyWithdrawAndPause()": "28357978",
    "feeRecipient()": "46904840",
    "increaseAllowance(address,uint256)": "39509351",
    "initialize(address,address,uint256)": "1794bb3c",
    "maxDeposit(address)": "402d267d",
    "maxMint(address)": "c63d75b6",
    "maxRedeem(address)": "d905777e",
    "maxWithdraw(address)": "ce96cb77",
    "mint(uint256,address)": "94bf804d",
    "name()": "06fdde03",
    "owner()": "8da5cb5b",
    "paused()": "5c975abb",
    "pendingOwner()": "e30c3978",
    "performanceFee()": "87788782",
    "previewDeposit(uint256)": "ef8b30f7",
    "previewMint(uint256)": "b3d7f6b9",
    "previewRedeem(uint256)": "4cdad506",
    "previewWithdraw(uint256)": "0a28a477",
    "redeem(uint256,address,address)": "ba087652",
    "renounceOwnership()": "715018a6",
    "symbol()": "95d89b41",
    "takePerformanceFee()": "56f89ef9",
    "totalAssets()": "01e1d114",
    "totalSupply()": "18160ddd",
    "transfer(address,uint256)": "a9059cbb",
    "transferFrom(address,address,uint256)": "23b872dd",
    "transferOwnership(address)": "f2fde38b",
    "unpause()": "3f4ba83a",
    "updateFeeSettings(uint256,address)": "10509aa9",
    "vaultShareHWM()": "211493c9",
    "withdraw(uint256,address,address)": "b460af94",
    "withdrawAccruedFees()": "ada82c7d",
    "withdrawalFee()": "8bc7e8c4"
  }
}