{
  "address": "0x2F17C1E0C6f611feD904047B773145df460f6eC8",
  "abi": [
    {
      "anonymous": false,
      "inputs": [
        {
          "indexed": false,
          "internalType": "uint256",
          "name": "cashPrior",
          "type": "uint256"
        },
        {
          "indexed": false,
          "internalType": "uint256",
          "name": "interestAccumulated",
          "type": "uint256"
        },
        {
          "indexed": false,
          "internalType": "uint256",
          "name": "borrowIndex",
          "type": "uint256"
        },
        {
          "indexed": false,
          "internalType": "uint256",
          "name": "totalBorrows",
          "type": "uint256"
        }
      ],
      "name": "AccrueInterest",
      "type": "event"
    },
    {
      "anonymous": false,
      "inputs": [
        {
          "indexed": true,
          "internalType": "address",
          "name": "owner",
          "type": "address"
        },
        {
          "indexed": true,
          "internalType": "address",
          "name": "spender",
          "type": "address"
        },
        {
          "indexed": false,
          "internalType": "uint256",
          "name": "amount",
          "type": "uint256"
        }
      ],
      "name": "Approval",
      "type": "event"
    },
    {
      "anonymous": false,
      "inputs": [
        {
          "indexed": false,
          "internalType": "address",
          "name": "borrower",
          "type": "address"
        },
        {
          "indexed": false,
          "internalType": "uint256",
          "name": "borrowAmount",
          "type": "uint256"
        },
        {
          "indexed": false,
          "internalType": "uint256",
          "name": "accountBorrows",
          "type": "uint256"
        },
        {
          "indexed": false,
          "internalType": "uint256",
          "name": "totalBorrows",
          "type": "uint256"
        }
      ],
      "name": "Borrow",
      "type": "event"
    },
    {
      "anonymous": false,
      "inputs": [
        {
          "indexed": false,
          "internalType": "uint256",
          "name": "error",
          "type": "uint256"
        },
        {
          "indexed": false,
          "internalType": "uint256",
          "name": "info",
          "type": "uint256"
        },
        {
          "indexed": false,
          "internalType": "uint256",
          "name": "detail",
          "type": "uint256"
        }
      ],
      "name": "Failure",
      "type": "event"
    },
    {
      "anonymous": false,
      "inputs": [
        {
          "indexed": false,
          "internalType": "address",
          "name": "liquidator",
          "type": "address"
        },
        {
          "indexed": false,
          "internalType": "address",
          "name": "borrower",
          "type": "address"
        },
        {
          "indexed": false,
          "internalType": "uint256",
          "name": "repayAmount",
          "type": "uint256"
        },
        {
          "indexed": false,
          "internalType": "address",
          "name": "cTokenCollateral",
          "type": "address"
        },
        {
          "indexed": false,
          "internalType": "uint256",
          "name": "seizeTokens",
          "type": "uint256"
        }
      ],
      "name": "LiquidateBorrow",
      "type": "event"
    },
    {
      "anonymous": false,
      "inputs": [
        {
          "indexed": false,
          "internalType": "address",
          "name": "minter",
          "type": "address"
        },
        {
          "indexed": false,
          "internalType": "uint256",
          "name": "mintAmount",
          "type": "uint256"
        },
        {
          "indexed": false,
          "internalType": "uint256",
          "name": "mintTokens",
          "type": "uint256"
        }
      ],
      "name": "Mint",
      "type": "event"
    },
    {
      "anonymous": false,
      "inputs": [
        {
          "indexed": false,
          "internalType": "uint256",
          "name": "oldAdminFeeMantissa",
          "type": "uint256"
        },
        {
          "indexed": false,
          "internalType": "uint256",
          "name": "newAdminFeeMantissa",
          "type": "uint256"
        }
      ],
      "name": "NewAdminFee",
      "type": "event"
    },
    {
      "anonymous": false,
      "inputs": [
        {
          "indexed": false,
          "internalType": "contract ComptrollerInterface",
          "name": "oldComptroller",
          "type": "address"
        },
        {
          "indexed": false,
          "internalType": "contract ComptrollerInterface",
          "name": "newComptroller",
          "type": "address"
        }
      ],
      "name": "NewComptroller",
      "type": "event"
    },
    {
      "anonymous": false,
      "inputs": [
        {
          "indexed": false,
          "internalType": "uint256",
          "name": "oldFuseFeeMantissa",
          "type": "uint256"
        },
        {
          "indexed": false,
          "internalType": "uint256",
          "name": "newFuseFeeMantissa",
          "type": "uint256"
        }
      ],
      "name": "NewFuseFee",
      "type": "event"
    },
    {
      "anonymous": false,
      "inputs": [
        {
          "indexed": false,
          "internalType": "address",
          "name": "oldImplementation",
          "type": "address"
        },
        {
          "indexed": false,
          "internalType": "address",
          "name": "newImplementation",
          "type": "address"
        }
      ],
      "name": "NewImplementation",
      "type": "event"
    },
    {
      "anonymous": false,
      "inputs": [
        {
          "indexed": false,
          "internalType": "contract InterestRateModel",
          "name": "oldInterestRateModel",
          "type": "address"
        },
        {
          "indexed": false,
          "internalType": "contract InterestRateModel",
          "name": "newInterestRateModel",
          "type": "address"
        }
      ],
      "name": "NewMarketInterestRateModel",
      "type": "event"
    },
    {
      "anonymous": false,
      "inputs": [
        {
          "indexed": false,
          "internalType": "address",
          "name": "oldImpl",
          "type": "address"
        },
        {
          "indexed": false,
          "internalType": "address",
          "name": "newImpl",
          "type": "address"
        }
      ],
      "name": "NewPluginImplementation",
      "type": "event"
    },
    {
      "anonymous": false,
      "inputs": [
        {
          "indexed": false,
          "internalType": "uint256",
          "name": "oldReserveFactorMantissa",
          "type": "uint256"
        },
        {
          "indexed": false,
          "internalType": "uint256",
          "name": "newReserveFactorMantissa",
          "type": "uint256"
        }
      ],
      "name": "NewReserveFactor",
      "type": "event"
    },
    {
      "anonymous": false,
      "inputs": [
        {
          "indexed": false,
          "internalType": "address",
          "name": "redeemer",
          "type": "address"
        },
        {
          "indexed": false,
          "internalType": "uint256",
          "name": "redeemAmount",
          "type": "uint256"
        },
        {
          "indexed": false,
          "internalType": "uint256",
          "name": "redeemTokens",
          "type": "uint256"
        }
      ],
      "name": "Redeem",
      "type": "event"
    },
    {
      "anonymous": false,
      "inputs": [
        {
          "indexed": false,
          "internalType": "address",
          "name": "payer",
          "type": "address"
        },
        {
          "indexed": false,
          "internalType": "address",
          "name": "borrower",
          "type": "address"
        },
        {
          "indexed": false,
          "internalType": "uint256",
          "name": "repayAmount",
          "type": "uint256"
        },
        {
          "indexed": false,
          "internalType": "uint256",
          "name": "accountBorrows",
          "type": "uint256"
        },
        {
          "indexed": false,
          "internalType": "uint256",
          "name": "totalBorrows",
          "type": "uint256"
        }
      ],
      "name": "RepayBorrow",
      "type": "event"
    },
    {
      "anonymous": false,
      "inputs": [
        {
          "indexed": false,
          "internalType": "address",
          "name": "benefactor",
          "type": "address"
        },
        {
          "indexed": false,
          "internalType": "uint256",
          "name": "addAmount",
          "type": "uint256"
        },
        {
          "indexed": false,
          "internalType": "uint256",
          "name": "newTotalReserves",
          "type": "uint256"
        }
      ],
      "name": "ReservesAdded",
      "type": "event"
    },
    {
      "anonymous": false,
      "inputs": [
        {
          "indexed": false,
          "internalType": "address",
          "name": "admin",
          "type": "address"
        },
        {
          "indexed": false,
          "internalType": "uint256",
          "name": "reduceAmount",
          "type": "uint256"
        },
        {
          "indexed": false,
          "internalType": "uint256",
          "name": "newTotalReserves",
          "type": "uint256"
        }
      ],
      "name": "ReservesReduced",
      "type": "event"
    },
    {
      "anonymous": false,
      "inputs": [
        {
          "indexed": true,
          "internalType": "address",
          "name": "from",
          "type": "address"
        },
        {
          "indexed": true,
          "internalType": "address",
          "name": "to",
          "type": "address"
        },
        {
          "indexed": false,
          "internalType": "uint256",
          "name": "amount",
          "type": "uint256"
        }
      ],
      "name": "Transfer",
      "type": "event"
    },
    {
      "inputs": [],
      "name": "PRECISION",
      "outputs": [
        {
          "internalType": "uint256",
          "name": "",
          "type": "uint256"
        }
      ],
      "stateMutability": "view",
      "type": "function"
    },
    {
      "inputs": [
        {
          "internalType": "bytes",
          "name": "data",
          "type": "bytes"
        }
      ],
      "name": "_becomeImplementation",
      "outputs": [],
      "stateMutability": "nonpayable",
      "type": "function"
    },
    {
      "inputs": [],
      "name": "_prepare",
      "outputs": [],
      "stateMutability": "payable",
      "type": "function"
    },
    {
      "inputs": [
        {
          "internalType": "uint256",
          "name": "newAdminFeeMantissa",
          "type": "uint256"
        }
      ],
      "name": "_setAdminFee",
      "outputs": [
        {
          "internalType": "uint256",
          "name": "",
          "type": "uint256"
        }
      ],
      "stateMutability": "nonpayable",
      "type": "function"
    },
    {
      "inputs": [
        {
          "internalType": "address",
          "name": "implementation_",
          "type": "address"
        },
        {
          "internalType": "bool",
          "name": "allowResign",
          "type": "bool"
        },
        {
          "internalType": "bytes",
          "name": "becomeImplementationData",
          "type": "bytes"
        }
      ],
      "name": "_setImplementationSafe",
      "outputs": [],
      "stateMutability": "nonpayable",
      "type": "function"
    },
    {
      "inputs": [
        {
          "internalType": "contract InterestRateModel",
          "name": "newInterestRateModel",
          "type": "address"
        }
      ],
      "name": "_setInterestRateModel",
      "outputs": [
        {
          "internalType": "uint256",
          "name": "",
          "type": "uint256"
        }
      ],
      "stateMutability": "nonpayable",
      "type": "function"
    },
    {
      "inputs": [
        {
          "internalType": "string",
          "name": "_name",
          "type": "string"
        },
        {
          "internalType": "string",
          "name": "_symbol",
          "type": "string"
        }
      ],
      "name": "_setNameAndSymbol",
      "outputs": [],
      "stateMutability": "nonpayable",
      "type": "function"
    },
    {
      "inputs": [
        {
          "internalType": "uint256",
          "name": "newReserveFactorMantissa",
          "type": "uint256"
        }
      ],
      "name": "_setReserveFactor",
      "outputs": [
        {
          "internalType": "uint256",
          "name": "",
          "type": "uint256"
        }
      ],
      "stateMutability": "nonpayable",
      "type": "function"
    },
    {
      "inputs": [
        {
          "internalType": "address",
          "name": "_plugin",
          "type": "address"
        }
      ],
      "name": "_updatePlugin",
      "outputs": [],
      "stateMutability": "nonpayable",
      "type": "function"
    },
    {
      "inputs": [],
      "name": "accrualBlockNumber",
      "outputs": [
        {
          "internalType": "uint256",
          "name": "",
          "type": "uint256"
        }
      ],
      "stateMutability": "view",
      "type": "function"
    },
    {
      "inputs": [],
      "name": "accrueInterest",
      "outputs": [
        {
          "internalType": "uint256",
          "name": "",
          "type": "uint256"
        }
      ],
      "stateMutability": "nonpayable",
      "type": "function"
    },
    {
      "inputs": [],
      "name": "adminFeeMantissa",
      "outputs": [
        {
          "internalType": "uint256",
          "name": "",
          "type": "uint256"
        }
      ],
      "stateMutability": "view",
      "type": "function"
    },
    {
      "inputs": [
        {
          "internalType": "address",
          "name": "owner",
          "type": "address"
        },
        {
          "internalType": "address",
          "name": "spender",
          "type": "address"
        }
      ],
      "name": "allowance",
      "outputs": [
        {
          "internalType": "uint256",
          "name": "",
          "type": "uint256"
        }
      ],
      "stateMutability": "view",
      "type": "function"
    },
    {
      "inputs": [
        {
          "internalType": "address",
          "name": "spender",
          "type": "address"
        },
        {
          "internalType": "uint256",
          "name": "amount",
          "type": "uint256"
        }
      ],
      "name": "approve",
      "outputs": [
        {
          "internalType": "bool",
          "name": "",
          "type": "bool"
        }
      ],
      "stateMutability": "nonpayable",
      "type": "function"
    },
    {
      "inputs": [
        {
          "internalType": "address",
          "name": "_token",
          "type": "address"
        },
        {
          "internalType": "address",
          "name": "_spender",
          "type": "address"
        }
      ],
      "name": "approve",
      "outputs": [],
      "stateMutability": "nonpayable",
      "type": "function"
    },
    {
      "inputs": [
        {
          "internalType": "address",
          "name": "owner",
          "type": "address"
        }
      ],
      "name": "balanceOf",
      "outputs": [
        {
          "internalType": "uint256",
          "name": "",
          "type": "uint256"
        }
      ],
      "stateMutability": "view",
      "type": "function"
    },
    {
      "inputs": [
        {
          "internalType": "address",
          "name": "owner",
          "type": "address"
        }
      ],
      "name": "balanceOfUnderlying",
      "outputs": [
        {
          "internalType": "uint256",
          "name": "",
          "type": "uint256"
        }
      ],
      "stateMutability": "nonpayable",
      "type": "function"
    },
    {
      "inputs": [
        {
          "internalType": "uint256",
          "name": "borrowAmount",
          "type": "uint256"
        }
      ],
      "name": "borrow",
      "outputs": [
        {
          "internalType": "uint256",
          "name": "",
          "type": "uint256"
        }
      ],
      "stateMutability": "nonpayable",
      "type": "function"
    },
    {
      "inputs": [
        {
          "internalType": "address",
          "name": "account",
          "type": "address"
        }
      ],
      "name": "borrowBalanceCurrent",
      "outputs": [
        {
          "internalType": "uint256",
          "name": "",
          "type": "uint256"
        }
      ],
      "stateMutability": "nonpayable",
      "type": "function"
    },
    {
      "inputs": [
        {
          "internalType": "address",
          "name": "account",
          "type": "address"
        }
      ],
      "name": "borrowBalanceStored",
      "outputs": [
        {
          "internalType": "uint256",
          "name": "",
          "type": "uint256"
        }
      ],
      "stateMutability": "view",
      "type": "function"
    },
    {
      "inputs": [],
      "name": "borrowIndex",
      "outputs": [
        {
          "internalType": "uint256",
          "name": "",
          "type": "uint256"
        }
      ],
      "stateMutability": "view",
      "type": "function"
    },
    {
      "inputs": [],
      "name": "borrowRatePerBlock",
      "outputs": [
        {
          "internalType": "uint256",
          "name": "",
          "type": "uint256"
        }
      ],
      "stateMutability": "view",
      "type": "function"
    },
    {
      "inputs": [],
      "name": "claim",
      "outputs": [],
      "stateMutability": "nonpayable",
      "type": "function"
    },
    {
      "inputs": [],
      "name": "comptroller",
      "outputs": [
        {
          "internalType": "contract ComptrollerInterface",
          "name": "",
          "type": "address"
        }
      ],
      "stateMutability": "view",
      "type": "function"
    },
    {
      "inputs": [],
      "name": "decimals",
      "outputs": [
        {
          "internalType": "uint8",
          "name": "",
          "type": "uint8"
        }
      ],
      "stateMutability": "view",
      "type": "function"
    },
    {
      "inputs": [],
      "name": "exchangeRateCurrent",
      "outputs": [
        {
          "internalType": "uint256",
          "name": "",
          "type": "uint256"
        }
      ],
      "stateMutability": "nonpayable",
      "type": "function"
    },
    {
      "inputs": [],
      "name": "exchangeRateStored",
      "outputs": [
        {
          "internalType": "uint256",
          "name": "",
          "type": "uint256"
        }
      ],
      "stateMutability": "view",
      "type": "function"
    },
    {
      "inputs": [],
      "name": "feeSeizeShareMantissa",
      "outputs": [
        {
          "internalType": "uint256",
          "name": "",
          "type": "uint256"
        }
      ],
      "stateMutability": "view",
      "type": "function"
    },
    {
      "inputs": [],
      "name": "fuseAdmin",
      "outputs": [
        {
          "internalType": "address payable",
          "name": "",
          "type": "address"
        }
      ],
      "stateMutability": "view",
      "type": "function"
    },
    {
      "inputs": [],
      "name": "fuseFeeMantissa",
      "outputs": [
        {
          "internalType": "uint256",
          "name": "",
          "type": "uint256"
        }
      ],
      "stateMutability": "view",
      "type": "function"
    },
    {
      "inputs": [
        {
          "internalType": "address",
          "name": "account",
          "type": "address"
        }
      ],
      "name": "getAccountSnapshot",
      "outputs": [
        {
          "internalType": "uint256",
          "name": "",
          "type": "uint256"
        },
        {
          "internalType": "uint256",
          "name": "",
          "type": "uint256"
        },
        {
          "internalType": "uint256",
          "name": "",
          "type": "uint256"
        },
        {
          "internalType": "uint256",
          "name": "",
          "type": "uint256"
        }
      ],
      "stateMutability": "view",
      "type": "function"
    },
    {
      "inputs": [],
      "name": "getCash",
      "outputs": [
        {
          "internalType": "uint256",
          "name": "",
          "type": "uint256"
        }
      ],
      "stateMutability": "view",
      "type": "function"
    },
    {
      "inputs": [],
      "name": "implementation",
      "outputs": [
        {
          "internalType": "address",
          "name": "",
          "type": "address"
        }
      ],
      "stateMutability": "view",
      "type": "function"
    },
    {
      "inputs": [
        {
          "internalType": "address",
          "name": "underlying_",
          "type": "address"
        },
        {
          "internalType": "contract ComptrollerInterface",
          "name": "comptroller_",
          "type": "address"
        },
        {
          "internalType": "address payable",
          "name": "fuseAdmin_",
          "type": "address"
        },
        {
          "internalType": "contract InterestRateModel",
          "name": "interestRateModel_",
          "type": "address"
        },
        {
          "internalType": "string",
          "name": "name_",
          "type": "string"
        },
        {
          "internalType": "string",
          "name": "symbol_",
          "type": "string"
        },
        {
          "internalType": "uint256",
          "name": "reserveFactorMantissa_",
          "type": "uint256"
        },
        {
          "internalType": "uint256",
          "name": "adminFeeMantissa_",
          "type": "uint256"
        }
      ],
      "name": "initialize",
      "outputs": [],
      "stateMutability": "nonpayable",
      "type": "function"
    },
    {
      "inputs": [
        {
          "internalType": "contract ComptrollerInterface",
          "name": "comptroller_",
          "type": "address"
        },
        {
          "internalType": "address payable",
          "name": "fuseAdmin_",
          "type": "address"
        },
        {
          "internalType": "contract InterestRateModel",
          "name": "interestRateModel_",
          "type": "address"
        },
        {
          "internalType": "uint256",
          "name": "initialExchangeRateMantissa_",
          "type": "uint256"
        },
        {
          "internalType": "string",
          "name": "name_",
          "type": "string"
        },
        {
          "internalType": "string",
          "name": "symbol_",
          "type": "string"
        },
        {
          "internalType": "uint8",
          "name": "decimals_",
          "type": "uint8"
        },
        {
          "internalType": "uint256",
          "name": "reserveFactorMantissa_",
          "type": "uint256"
        },
        {
          "internalType": "uint256",
          "name": "adminFeeMantissa_",
          "type": "uint256"
        }
      ],
      "name": "initialize",
      "outputs": [],
      "stateMutability": "nonpayable",
      "type": "function"
    },
    {
      "inputs": [],
      "name": "interestRateModel",
      "outputs": [
        {
          "internalType": "contract InterestRateModel",
          "name": "",
          "type": "address"
        }
      ],
      "stateMutability": "view",
      "type": "function"
    },
    {
      "inputs": [],
      "name": "isCEther",
      "outputs": [
        {
          "internalType": "bool",
          "name": "",
          "type": "bool"
        }
      ],
      "stateMutability": "nonpayable",
      "type": "function"
    },
    {
      "inputs": [],
      "name": "isCToken",
      "outputs": [
        {
          "internalType": "bool",
          "name": "",
          "type": "bool"
        }
      ],
      "stateMutability": "nonpayable",
      "type": "function"
    },
    {
      "inputs": [
        {
          "internalType": "address",
          "name": "borrower",
          "type": "address"
        },
        {
          "internalType": "uint256",
          "name": "repayAmount",
          "type": "uint256"
        },
        {
          "internalType": "contract CTokenInterface",
          "name": "cTokenCollateral",
          "type": "address"
        }
      ],
      "name": "liquidateBorrow",
      "outputs": [
        {
          "internalType": "uint256",
          "name": "",
          "type": "uint256"
        }
      ],
      "stateMutability": "nonpayable",
      "type": "function"
    },
    {
      "inputs": [
        {
          "internalType": "uint256",
          "name": "mintAmount",
          "type": "uint256"
        }
      ],
      "name": "mint",
      "outputs": [
        {
          "internalType": "uint256",
          "name": "",
          "type": "uint256"
        }
      ],
      "stateMutability": "nonpayable",
      "type": "function"
    },
    {
      "inputs": [],
      "name": "name",
      "outputs": [
        {
          "internalType": "string",
          "name": "",
          "type": "string"
        }
      ],
      "stateMutability": "view",
      "type": "function"
    },
    {
      "inputs": [],
      "name": "plugin",
      "outputs": [
        {
          "internalType": "contract IERC4626",
          "name": "",
          "type": "address"
        }
      ],
      "stateMutability": "view",
      "type": "function"
    },
    {
      "inputs": [],
      "name": "protocolSeizeShareMantissa",
      "outputs": [
        {
          "internalType": "uint256",
          "name": "",
          "type": "uint256"
        }
      ],
      "stateMutability": "view",
      "type": "function"
    },
    {
      "inputs": [
        {
          "internalType": "uint256",
          "name": "redeemTokens",
          "type": "uint256"
        }
      ],
      "name": "redeem",
      "outputs": [
        {
          "internalType": "uint256",
          "name": "",
          "type": "uint256"
        }
      ],
      "stateMutability": "nonpayable",
      "type": "function"
    },
    {
      "inputs": [
        {
          "internalType": "uint256",
          "name": "redeemAmount",
          "type": "uint256"
        }
      ],
      "name": "redeemUnderlying",
      "outputs": [
        {
          "internalType": "uint256",
          "name": "",
          "type": "uint256"
        }
      ],
      "stateMutability": "nonpayable",
      "type": "function"
    },
    {
      "inputs": [
        {
          "internalType": "uint256",
          "name": "repayAmount",
          "type": "uint256"
        }
      ],
      "name": "repayBorrow",
      "outputs": [
        {
          "internalType": "uint256",
          "name": "",
          "type": "uint256"
        }
      ],
      "stateMutability": "nonpayable",
      "type": "function"
    },
    {
      "inputs": [
        {
          "internalType": "address",
          "name": "borrower",
          "type": "address"
        },
        {
          "internalType": "uint256",
          "name": "repayAmount",
          "type": "uint256"
        }
      ],
      "name": "repayBorrowBehalf",
      "outputs": [
        {
          "internalType": "uint256",
          "name": "",
          "type": "uint256"
        }
      ],
      "stateMutability": "nonpayable",
      "type": "function"
    },
    {
      "inputs": [],
      "name": "reserveFactorMantissa",
      "outputs": [
        {
          "internalType": "uint256",
          "name": "",
          "type": "uint256"
        }
      ],
      "stateMutability": "view",
      "type": "function"
    },
    {
      "inputs": [
        {
          "internalType": "address",
          "name": "liquidator",
          "type": "address"
        },
        {
          "internalType": "address",
          "name": "borrower",
          "type": "address"
        },
        {
          "internalType": "uint256",
          "name": "seizeTokens",
          "type": "uint256"
        }
      ],
      "name": "seize",
      "outputs": [
        {
          "internalType": "uint256",
          "name": "",
          "type": "uint256"
        }
      ],
      "stateMutability": "nonpayable",
      "type": "function"
    },
    {
      "inputs": [],
      "name": "supplyRatePerBlock",
      "outputs": [
        {
          "internalType": "uint256",
          "name": "",
          "type": "uint256"
        }
      ],
      "stateMutability": "view",
      "type": "function"
    },
    {
      "inputs": [],
      "name": "symbol",
      "outputs": [
        {
          "internalType": "string",
          "name": "",
          "type": "string"
        }
      ],
      "stateMutability": "view",
      "type": "function"
    },
    {
      "inputs": [],
      "name": "totalAdminFees",
      "outputs": [
        {
          "internalType": "uint256",
          "name": "",
          "type": "uint256"
        }
      ],
      "stateMutability": "view",
      "type": "function"
    },
    {
      "inputs": [],
      "name": "totalBorrows",
      "outputs": [
        {
          "internalType": "uint256",
          "name": "",
          "type": "uint256"
        }
      ],
      "stateMutability": "view",
      "type": "function"
    },
    {
      "inputs": [],
      "name": "totalBorrowsCurrent",
      "outputs": [
        {
          "internalType": "uint256",
          "name": "",
          "type": "uint256"
        }
      ],
      "stateMutability": "nonpayable",
      "type": "function"
    },
    {
      "inputs": [],
      "name": "totalFuseFees",
      "outputs": [
        {
          "internalType": "uint256",
          "name": "",
          "type": "uint256"
        }
      ],
      "stateMutability": "view",
      "type": "function"
    },
    {
      "inputs": [],
      "name": "totalReserves",
      "outputs": [
        {
          "internalType": "uint256",
          "name": "",
          "type": "uint256"
        }
      ],
      "stateMutability": "view",
      "type": "function"
    },
    {
      "inputs": [],
      "name": "totalSupply",
      "outputs": [
        {
          "internalType": "uint256",
          "name": "",
          "type": "uint256"
        }
      ],
      "stateMutability": "view",
      "type": "function"
    },
    {
      "inputs": [
        {
          "internalType": "address",
          "name": "dst",
          "type": "address"
        },
        {
          "internalType": "uint256",
          "name": "amount",
          "type": "uint256"
        }
      ],
      "name": "transfer",
      "outputs": [
        {
          "internalType": "bool",
          "name": "",
          "type": "bool"
        }
      ],
      "stateMutability": "nonpayable",
      "type": "function"
    },
    {
      "inputs": [
        {
          "internalType": "address",
          "name": "src",
          "type": "address"
        },
        {
          "internalType": "address",
          "name": "dst",
          "type": "address"
        },
        {
          "internalType": "uint256",
          "name": "amount",
          "type": "uint256"
        }
      ],
      "name": "transferFrom",
      "outputs": [
        {
          "internalType": "bool",
          "name": "",
          "type": "bool"
        }
      ],
      "stateMutability": "nonpayable",
      "type": "function"
    },
    {
      "inputs": [],
      "name": "underlying",
      "outputs": [
        {
          "internalType": "address",
          "name": "",
          "type": "address"
        }
      ],
      "stateMutability": "view",
      "type": "function"
    }
  ],
  "transactionHash": "0x9c897b95d87270a8f75bb6c5436c1933d7b14092774b5f9d78dc7a54f4909f1d",
  "args": [],
  "numDeployments": 9,
  "bytecode": {
    "object": "0x608060405234801561001057600080fd5b50615f2080620000216000396000f3fe6080604052600436106102a75760003560e01c806306db3ecd146102ac57806306fdde03146102ce578063095ea7b3146102f95780630e7527021461032957806315761d5114610357578063173b99041461038457806317bfdfbc1461039a57806318160ddd146103ba578063182df0f5146103d057806319f496c8146103e55780631db7894414610405578063219ef65c1461040d57806323b872dd1461042d5780632608f8181461044d578063313ce5671461046d57806334154d4c146104995780633af9e669146104b95780633b1d21a2146104d957806347bd3718146104ee5780634e71d92d1461050457806350d85b731461051357806356e67728146105335780635c60da1b146105535780635fe3b5671461057357806361feacff146105935780636752e702146105a95780636c540baf146105c45780636f307dc3146105da57806370a08231146105fa57806373acee98146106305780637e5465ba14610645578063852a12e3146106655780638d02d9a1146106855780638f840ddd1461069b57806391dd36c6146106b157806395d89b41146106d157806395dd9193146106e6578063a0712d6814610706578063a6afed9514610726578063a9059cbb1461073b578063aa5af0fd1461075b578063aaf5eb6814610771578063ac784ddc1461078d578063ae9d70b0146107a1578063b2a02ff1146107b6578063bd6d894d146107d6578063be99f119146107eb578063c37f68e214610807578063c5ebeaec14610837578063db006a7514610857578063dbfe7c1914610877578063dc028ab11461088d578063dd62ed3e146108a3578063ef01df4f146108e9578063f2b3abbd14610909578063f3fdb15a14610929578063f5e3c46214610949578063f8f9da2814610969578063fca7820b1461097e578063fe9c44ae1461099e575b600080fd5b3480156102b857600080fd5b506102cc6102c736600461564b565b6109b2565b005b3480156102da57600080fd5b506102e3610ac0565b6040516102f09190615764565b60405180910390f35b34801561030557600080fd5b50610319610314366004615777565b610b4e565b60405190151581526020016102f0565b34801561033557600080fd5b506103496103443660046157a3565b610bbe565b6040519081526020016102f0565b34801561036357600080fd5b50600154610377906001600160a01b031681565b6040516102f091906157bc565b34801561039057600080fd5b50610349600b5481565b3480156103a657600080fd5b506103496103b53660046157d0565b610bd2565b3480156103c657600080fd5b5061034960125481565b3480156103dc57600080fd5b50610349610c29565b3480156103f157600080fd5b506102cc6104003660046157d0565b610cba565b6102cc61124b565b34801561041957600080fd5b506102cc610428366004615807565b611381565b34801561043957600080fd5b506103196104483660046158ce565b6116a8565b34801561045957600080fd5b50610349610468366004615777565b6116ce565b34801561047957600080fd5b506005546104879060ff1681565b60405160ff90911681526020016102f0565b3480156104a557600080fd5b506102cc6104b4366004615950565b6116e4565b3480156104c557600080fd5b506103496104d43660046157d0565b61174b565b3480156104e557600080fd5b506103496117fb565b3480156104fa57600080fd5b50610349600e5481565b34801561051057600080fd5b50005b34801561051f57600080fd5b506102cc61052e3660046159c9565b61180a565b34801561053f57600080fd5b506102cc61054e366004615a21565b61188a565b34801561055f57600080fd5b50600054610377906001600160a01b031681565b34801561057f57600080fd5b50600654610377906001600160a01b031681565b34801561059f57600080fd5b5061034960105481565b3480156105b557600080fd5b50610349666379da05b6000081565b3480156105d057600080fd5b50610349600c5481565b3480156105e657600080fd5b50601654610377906001600160a01b031681565b34801561060657600080fd5b506103496106153660046157d0565b6001600160a01b031660009081526013602052604090205490565b34801561063c57600080fd5b506103496119f1565b34801561065157600080fd5b506102cc610660366004615a69565b611a20565b34801561067157600080fd5b506103496106803660046157a3565b611b13565b34801561069157600080fd5b5061034960095481565b3480156106a757600080fd5b50610349600f5481565b3480156106bd57600080fd5b506103496106cc3660046157a3565b611b1e565b3480156106dd57600080fd5b506102e3611b75565b3480156106f257600080fd5b506103496107013660046157d0565b611b82565b34801561071257600080fd5b506103496107213660046157a3565b611c1d565b34801561073257600080fd5b50610349611c29565b34801561074757600080fd5b50610319610756366004615777565b611ddd565b34801561076757600080fd5b50610349600d5481565b34801561077d57600080fd5b50610349670de0b6b3a764000081565b34801561079957600080fd5b506000610319565b3480156107ad57600080fd5b50610349611e0a565b3480156107c257600080fd5b506103496107d13660046158ce565b611ebf565b3480156107e257600080fd5b50610349611ee3565b3480156107f757600080fd5b5061034967016345785d8a000081565b34801561081357600080fd5b506108276108223660046157d0565b611f13565b6040516102f09493929190615aa2565b34801561084357600080fd5b506103496108523660046157a3565b611fb4565b34801561086357600080fd5b506103496108723660046157a3565b611fbf565b34801561088357600080fd5b50610349600a5481565b34801561089957600080fd5b5061034960115481565b3480156108af57600080fd5b506103496108be366004615a69565b6001600160a01b03918216600090815260146020908152604080832093909416825291909152205490565b3480156108f557600080fd5b50601754610377906001600160a01b031681565b34801561091557600080fd5b506103496109243660046157d0565b611fca565b34801561093557600080fd5b50600754610377906001600160a01b031681565b34801561095557600080fd5b50610349610964366004615abd565b612002565b34801561097557600080fd5b5061034961201a565b34801561098a57600080fd5b506103496109993660046157a3565b61206b565b3480156109aa57600080fd5b506001610319565b60006702c68af0bb14000090506000896001600160a01b031663313ce5676040518163ffffffff1660e01b8152600401602060405180830381865afa1580156109ff573d6000803e3d6000fd5b505050506040513d601f19601f82011682018060405250810190610a239190615aff565b9050610a36898989858a8a878b8b611381565b601680546001600160a01b0319166001600160a01b038c16908117909155604080516318160ddd60e01b815290516318160ddd916004808201926020929091908290030181865afa158015610a8f573d6000803e3d6000fd5b505050506040513d601f19601f82011682018060405250810190610ab39190615b1c565b5050505050505050505050565b60038054610acd90615b35565b80601f0160208091040260200160405190810160405280929190818152602001828054610af990615b35565b8015610b465780601f10610b1b57610100808354040283529160200191610b46565b820191906000526020600020905b815481529060010190602001808311610b2957829003601f168201915b505050505081565b3360008181526014602090815260408083206001600160a01b03871680855292528083208590555191929182907f8c5be1e5ebec7d5bd14f71427d1e84f3dd0314c0f7b2291e5b200ac8c7c3b92590610baa9087815260200190565b60405180910390a360019150505b92915050565b600080610bca836120ae565b509392505050565b600080610bde81612116565b6000610be8611c29565b14610c0e5760405162461bcd60e51b8152600401610c0590615b80565b60405180910390fd5b610c1783611b82565b91505b610c23816121da565b50919050565b6000806000610c36612259565b90925090506000826003811115610c4f57610c4f615b6a565b14610bb85760405162461bcd60e51b815260206004820152603560248201527f65786368616e67655261746553746f7265643a2065786368616e67655261746560448201527414dd1bdc9959125b9d195c9b985b0819985a5b1959605a1b6064820152608401610c05565b33301480610ccb5750610ccb612318565b610d2b5760405162461bcd60e51b815260206004820152602b60248201527f6f6e6c792073656c6620616e642061646d696e732063616e2063616c6c205f7560448201526a383230ba32a8363ab3b4b760a91b6064820152608401610c05565b60175473e44986cf07e92d8135179fb3bbc5ed9c17195f2f907357eb88582696581b95a46d46c52f8c33d5ef7373906001600160a01b0316811415610e48576017546040516370a0823160e01b81526001600160a01b039091169063ba0876529082906370a0823190610da29030906004016157bc565b602060405180830381865afa158015610dbf573d6000803e3d6000fd5b505050506040513d601f19601f82011682018060405250810190610de39190615b1c565b30306040518463ffffffff1660e01b8152600401610e0393929190615bb0565b6020604051808303816000875af1158015610e22573d6000803e3d6000fd5b505050506040513d601f19601f82011682018060405250810190610e469190615b1c565b505b6017546001600160a01b0383811691161480610e7157506017546001600160a01b038281169116145b15610e8b575050601780546001600160a01b031916905550565b6017546000906001600160a01b0316610ea45783610eb1565b6017546001600160a01b03165b600154604051637583efcf60e01b81529192506001600160a01b031690637583efcf90610ee49084908890600401615bcf565b602060405180830381865afa158015610f01573d6000803e3d6000fd5b505050506040513d601f19601f82011682018060405250810190610f259190615be9565b610f7f5760405162461bcd60e51b815260206004820152602560248201527f706c7567696e20696d706c656d656e746174696f6e206e6f742077686974656c6044820152641a5cdd195960da1b6064820152608401610c05565b6017546001600160a01b03161580159061100857506017546040516370a0823160e01b81526001600160a01b03909116906370a0823190610fc49030906004016157bc565b602060405180830381865afa158015610fe1573d6000803e3d6000fd5b505050506040513d601f19601f820116820180604052508101906110059190615b1c565b15155b156110eb576017546040516370a0823160e01b81526001600160a01b039091169063ba0876529082906370a08231906110459030906004016157bc565b602060405180830381865afa158015611062573d6000803e3d6000fd5b505050506040513d601f19601f820116820180604052508101906110869190615b1c565b30306040518463ffffffff1660e01b81526004016110a693929190615bb0565b6020604051808303816000875af11580156110c5573d6000803e3d6000fd5b505050506040513d601f19601f820116820180604052508101906110e99190615b1c565b505b601780546001600160a01b0319166001600160a01b038681169190911790915560165460405163095ea7b360e01b815291169063095ea7b39061113690879060001990600401615c06565b6020604051808303816000875af1158015611155573d6000803e3d6000fd5b505050506040513d601f19601f820116820180604052508101906111799190615be9565b506016546040516370a0823160e01b81526000916001600160a01b0316906370a08231906111ab9030906004016157bc565b602060405180830381865afa1580156111c8573d6000803e3d6000fd5b505050506040513d601f19601f820116820180604052508101906111ec9190615b1c565b905080156111fd576111fd81612483565b6017546040517fb32957d2794aaec3ea2c8852833af2192fe9fb518777de1f883e9e821781da759161123c916001600160a01b03909116908890615bcf565b60405180910390a15050505050565b3330148015906112cd5750600660009054906101000a90046001600160a01b03166001600160a01b031663dd5cd22c6040518163ffffffff1660e01b8152600401602060405180830381865afa1580156112a9573d6000803e3d6000fd5b505050506040513d601f19601f820116820180604052508101906112cd9190615be9565b1561137f57600154600080546040516345cc970560e01b81529192839283926001600160a01b03928316926345cc97059261130e92909116906004016157bc565b600060405180830381865afa15801561132b573d6000803e3d6000fd5b505050506040513d6000823e601f3d908101601f191682016040526113539190810190615c1f565b60005492955090935091506001600160a01b0380851691161461137b5761137b8383836124f8565b5050505b565b336001600160a01b038916146113eb5760405162461bcd60e51b815260206004820152602960248201527f6f6e6c7920467573652061646d696e206d617920696e697469616c697a6520746044820152681a19481b585c9ad95d60ba1b6064820152608401610c05565b600c541580156113fb5750600d54155b6114535760405162461bcd60e51b815260206004820152602360248201527f6d61726b6574206d6179206f6e6c7920626520696e697469616c697a6564206f6044820152626e636560e81b6064820152608401610c05565b600180546001600160a01b0319166001600160a01b038a161790556008869055856114d95760405162461bcd60e51b815260206004820152603060248201527f696e697469616c2065786368616e67652072617465206d75737420626520677260448201526f32b0ba32b9103a3430b7103d32b9379760811b6064820152608401610c05565b60006114e48a612685565b905080156115315760405162461bcd60e51b815260206004820152601a6024820152791cd95d1d1a5b99c818dbdb5c1d1c9bdb1b195c8819985a5b195960321b6044820152606401610c05565b43600c55670de0b6b3a7640000600d5561154a88612779565b905080156115a55760405162461bcd60e51b815260206004820152602260248201527f73657474696e6720696e7465726573742072617465206d6f64656c206661696c604482015261195960f21b6064820152608401610c05565b85516115b89060039060208901906153fd565b5084516115cc9060049060208801906153fd565b506005805460ff191660ff86161790556115e58361288c565b905080156116355760405162461bcd60e51b815260206004820152601d60248201527f73657474696e67207265736572766520666163746f72206661696c65640000006044820152606401610c05565b61163e8261292b565b905080156116895760405162461bcd60e51b81526020600482015260186024820152771cd95d1d1a5b99c818591b5a5b881999594819985a5b195960421b6044820152606401610c05565b50506002805460ff60b01b1916600160b01b1790555050505050505050565b6000806116b481612116565b60006116c233878787612a45565b149150610bca816121da565b6000806116db8484612cd8565b50949350505050565b6116ec612318565b61172b5760405162461bcd60e51b815260206004820152601060248201526f31b0b63632b9103737ba1030b236b4b760811b6044820152606401610c05565b61173760038585615481565b5061174460048383615481565b5050505050565b6000806040518060200160405280611761611ee3565b90526001600160a01b03841660009081526013602052604081205491925090819061178d908490612d42565b909250905060008260038111156117a6576117a6615b6a565b146117f35760405162461bcd60e51b815260206004820152601f60248201527f62616c616e636520636f756c64206e6f742062652063616c63756c61746564006044820152606401610c05565b949350505050565b6000611805612d95565b905090565b611812612318565b61182e5760405162461bcd60e51b8152600401610c0590615cbe565b6000546001600160a01b0385811691161461188457611884848484848080601f0160208091040260200160405190810160405280939291908181526020018383808284376000920191909152506124f892505050565b50505050565b3330148061189b575061189b612318565b6119035760405162461bcd60e51b815260206004820152603360248201527f6f6e6c792073656c6620616e642061646d696e732063616e2063616c6c205f6260448201527232b1b7b6b2a4b6b83632b6b2b73a30ba34b7b760691b6064820152608401610c05565b6000818060200190518101906119199190615cde565b90506001600160a01b03811615801561193c57506017546001600160a01b031615155b156119b9576001546017546040516381218ea960e01b81526001600160a01b03928316926381218ea992611975929116906004016157bc565b602060405180830381865afa158015611992573d6000803e3d6000fd5b505050506040513d601f19601f820116820180604052508101906119b69190615cde565b90505b6001600160a01b038116158015906119df57506017546001600160a01b03828116911614155b156119ed576119ed81610cba565b5050565b6000806119fc611c29565b14611a195760405162461bcd60e51b8152600401610c0590615b80565b50600e5490565b611a28612318565b611a445760405162461bcd60e51b8152600401610c0590615cbe565b6016546001600160a01b03838116911614801590611a7057506017546001600160a01b03838116911614155b611aa05760405162461bcd60e51b81526020600482015260016024820152602160f81b6044820152606401610c05565b60405163095ea7b360e01b81526001600160a01b0383169063095ea7b390611ad090849060001990600401615c06565b6020604051808303816000875af1158015611aef573d6000803e3d6000fd5b505050506040513d601f19601f8201168201806040525081019061137b9190615be9565b6000610bb882612e2d565b600080611b2a81612116565b6000611b34611c29565b90508015611b6057611b58816011811115611b5157611b51615b6a565b6050612e73565b925050610c1a565b611b698461292b565b925050610c23816121da565b60048054610acd90615b35565b6000806000611b9084612ed3565b90925090506000826003811115611ba957611ba9615b6a565b14611c165760405162461bcd60e51b815260206004820152603760248201527f626f72726f7742616c616e636553746f7265643a20626f72726f7742616c616e60448201527618d954dd1bdc9959125b9d195c9b985b0819985a5b1959604a1b6064820152608401610c05565b9392505050565b600080610bca83612f8c565b600c546000904390811415611c415760005b91505090565b6000611c4b612d95565b90506000611c5d601054601154612fd2565b600754600e54600f549293506000926001600160a01b03909216916315f24053918691611c8a9087612fd2565b6040518463ffffffff1660e01b8152600401611ca893929190615cfb565b602060405180830381865afa158015611cc5573d6000803e3d6000fd5b505050506040513d601f19601f82011682018060405250810190611ce99190615b1c565b905065048c27395000811115611d515781831115611d485760405162461bcd60e51b815260206004820152601c60248201527b0c4dee4e4deee40e4c2e8ca40d2e640c2c4e6eae4c8d8f240d0d2ced60231b6044820152606401610c05565b5065048c273950005b600080611d6086600c54613008565b90925090506000826003811115611d7957611d79615b6a565b14611dc65760405162461bcd60e51b815260206004820152601f60248201527f636f756c64206e6f742063616c63756c61746520626c6f636b2064656c7461006044820152606401610c05565b611dd286868584613033565b965050505050505090565b600080611de981612116565b6000611df733338787612a45565b149150611e03816121da565b5092915050565b6007546000906001600160a01b031663b8168816611e26612d95565b600e54611e42600f54611e3d601054601154612fd2565b612fd2565b600954600a54600b54611e559190615d27565b611e5f9190615d27565b6040518563ffffffff1660e01b8152600401611e7e9493929190615aa2565b602060405180830381865afa158015611e9b573d6000803e3d6000fd5b505050506040513d601f19601f820116820180604052508101906118059190615b1c565b60006001611ecc81612116565b611ed833868686613155565b9150610bca816121da565b600080611eee611c29565b14611f0b5760405162461bcd60e51b8152600401610c0590615b80565b611805610c29565b6001600160a01b038116600090815260136020526040812054819081908190818080611f3e89612ed3565b935090506000816003811115611f5657611f56615b6a565b14611f745760095b6000806000975097509750975050505050611fad565b611f7c612259565b925090506000816003811115611f9457611f94615b6a565b14611fa0576009611f5e565b5060009650919450925090505b9193509193565b6000610bb88261363c565b6000610bb882613680565b600080611fd5611c29565b90508015611ff957611c16816011811115611ff257611ff2615b6a565b604b612e73565b611c1683612779565b6000806120108585856136bf565b5095945050505050565b6007546000906001600160a01b03166315f24053612036612d95565b600e5461204d600f54611e3d601054601154612fd2565b6040518463ffffffff1660e01b8152600401611e7e93929190615cfb565b60008061207781612116565b6000612081611c29565b905080156120a557611b5881601181111561209e5761209e615b6a565b6057612e73565b611b698461288c565b60008060006120bc81612116565b60006120c6611c29565b905080156120f6576120ea8160118111156120e3576120e3615b6a565b6041612e73565b60009350935050612107565b6121013333876137b3565b93509350505b612110816121da565b50915091565b600254600160b01b900460ff1661215c5760405162461bcd60e51b815260206004820152600a6024820152691c994b595b9d195c995960b21b6044820152606401610c05565b806121ca57600660009054906101000a90046001600160a01b03166001600160a01b031663c90c20b16040518163ffffffff1660e01b8152600401600060405180830381600087803b1580156121b157600080fd5b505af11580156121c5573d6000803e3d6000fd5b505050505b506002805460ff60b01b19169055565b6002805460ff60b01b1916600160b01b1790558061225657600660009054906101000a90046001600160a01b03166001600160a01b031663632e51426040518163ffffffff1660e01b8152600401600060405180830381600087803b15801561224257600080fd5b505af1158015611744573d6000803e3d6000fd5b50565b601254600090819080612273575050600854600092909150565b600061227d612d95565b905060006122896154f5565b60006122ab84600e546122a6600f54611e3d601054601154612fd2565b613bbc565b9350905060008160038111156122c3576122c3615b6a565b146122d5579660009650945050505050565b6122df8386613c0e565b9250905060008160038111156122f7576122f7615b6a565b14612309579660009650945050505050565b50516000969095509350505050565b600654604080516303e1469160e61b815290516000926001600160a01b031691829163f851a440916004808201926020929091908290030181865afa158015612365573d6000803e3d6000fd5b505050506040513d601f19601f820116820180604052508101906123899190615cde565b6001600160a01b0316336001600160a01b03161480156124065750806001600160a01b0316630a755ec26040518163ffffffff1660e01b8152600401602060405180830381865afa1580156123e2573d6000803e3d6000fd5b505050506040513d601f19601f820116820180604052508101906124069190615be9565b80611c3b57506001546001600160a01b031633148015611c3b5750806001600160a01b0316632f1069ba6040518163ffffffff1660e01b8152600401602060405180830381865afa15801561245f573d6000803e3d6000fd5b505050506040513d601f19601f82011682018060405250810190611c3b9190615be9565b601754604051636e553f6560e01b8152600481018390523060248201526001600160a01b0390911690636e553f65906044016020604051808303816000875af11580156124d4573d6000803e3d6000fd5b505050506040513d601f19601f820116820180604052508101906119ed9190615b1c565b6001546000546040516338e6a07360e11b81526001600160a01b03928316926371cd40e6926125309291169087908790600401615d3f565b602060405180830381865afa15801561254d573d6000803e3d6000fd5b505050506040513d601f19601f820116820180604052508101906125719190615be9565b6125a55760405162461bcd60e51b8152602060048201526005602482015264085a5b5c1b60da1b6044820152606401610c05565b600080546001600160a01b038581166001600160a01b031983161790925516303b6125d8576125d38261188a565b61263a565b61263830836040516024016125ed9190615764565b60408051601f19818403018152918152602080830180516001600160e01b0316630adccee560e31b17905281518083019092526007825266216265636f6d6560c81b90820152613ccb565b505b6000546040517fd604de94d45953f9138079ec1b82d533cb2160c906d1076d1f7ed54befbca97a916126779184916001600160a01b031690615bcf565b60405180910390a150505050565b600080600660009054906101000a90046001600160a01b03169050826001600160a01b0316627e3dd26040518163ffffffff1660e01b8152600401602060405180830381865afa1580156126dd573d6000803e3d6000fd5b505050506040513d601f19601f820116820180604052508101906127019190615be9565b61271d5760405162461bcd60e51b8152600401610c0590615d63565b600680546001600160a01b0319166001600160a01b0385161790556040517f7ac369dbd14fa5ea3f473ed67cc9d598964a77501540ba6751eb0b3decf5870d9061276a9083908690615bcf565b60405180910390a16000611c16565b600080612784612318565b61279457611c166001604d612e73565b43600c54146127a957611c16600a604c612e73565b600760009054906101000a90046001600160a01b03169050826001600160a01b0316632191f92a6040518163ffffffff1660e01b8152600401602060405180830381865afa1580156127ff573d6000803e3d6000fd5b505050506040513d601f19601f820116820180604052508101906128239190615be9565b61283f5760405162461bcd60e51b8152600401610c0590615d63565b600780546001600160a01b0319166001600160a01b0385161790556040517fedffc32e068c7c95dfd4bdfd5c4d939a084d6b11c4199eac8436ed234d72f9269061276a9083908690615bcf565b6000612896612318565b6128a657610bb860016058612e73565b43600c54146128bb57610bb8600a6059612e73565b670de0b6b3a76400006128db6128d384600954612fd2565b600a54612fd2565b11156128ed57610bb86002605a612e73565b600b80549083905560408051828152602081018590527faaa68312e2ea9d50e16af5068410ab56e1a1fd06037b1a35664812c30f821460910161276a565b600043600c541461294257610bb8600a6052612e73565b6000198214156129525760095491505b600061295c613d67565b9050670de0b6b3a764000061297c612976600b5486612fd2565b83612fd2565b111561298e57611c1660026053612e73565b82600954146129f25761299f612318565b6129af57611c1660016051612e73565b600980549084905560408051828152602081018690527fcdd0b588250e1398549f79cfdb8217c186688822905d6715b0834ea1c865594a910160405180910390a1505b80600a5414612a3e57600a80549082905560408051828152602081018490527f92eef861b6533b7d3417f39c2ad7b460eed4e88a32fa3604f30e718b7602e7dc910160405180910390a1505b6000611c16565b6006546040516317b9b84b60e31b815260009182916001600160a01b039091169063bdcdc25890612a80903090899089908990600401615d99565b6020604051808303816000875af1158015612a9f573d6000803e3d6000fd5b505050506040513d601f19601f82011682018060405250810190612ac39190615b1c565b90508015612ae057612ad86003605b83613db1565b9150506117f3565b836001600160a01b0316856001600160a01b03161415612b0657612ad86002605c612e73565b6000856001600160a01b0316876001600160a01b03161415612b2b5750600019612b53565b506001600160a01b038086166000908152601460209081526040808320938a16835292905220545b600080600080612b638589613008565b90945092506000846003811115612b7c57612b7c615b6a565b14612b9a57612b8d6009605c612e73565b96505050505050506117f3565b6001600160a01b038a16600090815260136020526040902054612bbd9089613008565b90945091506000846003811115612bd657612bd6615b6a565b14612be757612b8d6009605d612e73565b6001600160a01b038916600090815260136020526040902054612c0a9089613e3a565b90945090506000846003811115612c2357612c23615b6a565b14612c3457612b8d6009605e612e73565b6001600160a01b03808b16600090815260136020526040808220859055918b168152208190556000198514612c8c576001600160a01b03808b166000908152601460209081526040808320938f168352929052208390555b886001600160a01b03168a6001600160a01b0316600080516020615ef48339815191528a604051612cbf91815260200190565b60405180910390a35060009a9950505050505050505050565b6000806000612ce681612116565b6000612cf0611c29565b90508015612d2057612d14816011811115612d0d57612d0d615b6a565b6040612e73565b60009350935050612d31565b612d2b3387876137b3565b93509350505b612d3a816121da565b509250929050565b600080600080612d528686613e60565b90925090506000826003811115612d6b57612d6b615b6a565b14612d7c5750915060009050612d8e565b6000612d8782613ece565b9350935050505b9250929050565b6017546040516370a0823160e01b81526000916001600160a01b031690634cdad5069082906370a0823190612dce9030906004016157bc565b602060405180830381865afa158015612deb573d6000803e3d6000fd5b505050506040513d601f19601f82011682018060405250810190612e0f9190615b1c565b6040518263ffffffff1660e01b8152600401611e7e91815260200190565b600080612e3981612116565b6000612e43611c29565b90508015612e6757611b58816011811115612e6057612e60615b6a565b602a612e73565b611b6933600086613ee6565b6000600080516020615ed4833981519152836011811115612e9657612e96615b6a565b836061811115612ea857612ea8615b6a565b6000604051612eb993929190615cfb565b60405180910390a1826011811115611c1657611c16615b6a565b6001600160a01b038116600090815260156020526040812080548291829182918291612f085750600096879650945050505050565b612f188160000154600d546144b8565b90945092506000846003811115612f3157612f31615b6a565b14612f4457509195600095509350505050565b612f528382600101546144f7565b90945091506000846003811115612f6b57612f6b615b6a565b14612f7e57509195600095509350505050565b506000969095509350505050565b6000806000612f9a81612116565b6000612fa4611c29565b90508015612fc8576120ea816011811115612fc157612fc1615b6a565b6020612e73565b6121013386614522565b6000611c168383604051806040016040528060118152602001706164646974696f6e206f766572666c6f7760781b815250614870565b60008083831161302757600061301e8486615dc3565b91509150612d8e565b50600390506000612d8e565b60008061304e604051806020016040528086815250846148a1565b9050600061305e82600e546148cb565b9050600061306e82600e54612fd2565b9050600061308f6040518060200160405280600b5481525084600f546148e3565b905060006130b06040518060200160405280600a54815250856011546148e3565b905060006130d16040518060200160405280600954815250866010546148e3565b905060006130e487600d54600d546148e3565b600c8d9055600d819055600e869055600f859055601184905560108390556040519091507f4dec04e750ca11537cabcd8a9eab06494de08da3735bc8871cd41250e190bc049061313b908d90899085908a90615aa2565b60405180910390a160009c9b505050505050505050505050565b60065460405163d02f735160e01b815260009182916001600160a01b039091169063d02f7351906131929030908a908a908a908a90600401615dda565b6020604051808303816000875af11580156131b1573d6000803e3d6000fd5b505050506040513d601f19601f820116820180604052508101906131d59190615b1c565b905080156131ea57612ad86003601d83613db1565b846001600160a01b0316846001600160a01b0316141561321057612ad86006601e612e73565b613275604080516101808101909152806000815260200160008152602001600081526020016000815260200160008152602001600081526020016000815260200160008152602001600081526020016000815260200160008152602001600081525090565b6001600160a01b0385166000908152601360205260409020546132989085613008565b60208301819052828260038111156132b2576132b2615b6a565b60038111156132c3576132c3615b6a565b90525060009050815160038111156132dd576132dd615b6a565b1461330d576133046009601c836000015160038111156132ff576132ff615b6a565b613db1565b925050506117f3565b61332c846040518060200160405280666379da05b60000815250614904565b6080820152604080516020810190915267016345785d8a00008152613352908590614904565b61014082015260808101516133779061336c908690614927565b826101400151614927565b6060820152613384612259565b60c083018190528282600381111561339e5761339e615b6a565b60038111156133af576133af615b6a565b90525060009050815160038111156133c9576133c9615b6a565b146134115760405162461bcd60e51b815260206004820152601860248201527732bc31b430b733b2903930ba329036b0ba341032b93937b960411b6044820152606401610c05565b61343160405180602001604052808360c0015181525082608001516148cb565b60a0820152604080516020810190915260c0820151815261014082015161345891906148cb565b610160820152600f5460a08201516134709190612fd2565b60e0820152601254608082015161348a9161336c91614927565b6101208201526011546101608201516134a39190612fd2565b6101008201526001600160a01b03861660009081526013602052604090205460608201516134d19190613e3a565b60408301819052828260038111156134eb576134eb615b6a565b60038111156134fc576134fc615b6a565b905250600090508151600381111561351657613516615b6a565b14613538576133046009601b836000015160038111156132ff576132ff615b6a565b60e0810151600f556101208101516012556101008101516011556020808201516001600160a01b0387811660008181526013855260408082209490945583860151928b1680825290849020929092556060850151925192835290929091600080516020615ef4833981519152910160405180910390a3306001600160a01b0316856001600160a01b0316600080516020615ef483398151915283608001516040516135e591815260200190565b60405180910390a360a081015160e08201516040517fa91e67c5ea634cd43a12c5a482724b03de01e85ca68702a53d0c2f45cb7c1dc592613627923092615e0d565b60405180910390a16000979650505050505050565b60008061364881612116565b6000613652611c29565b9050801561367657611b5881601181111561366f5761366f615b6a565b600a612e73565b611b693385614961565b60008061368c81612116565b6000613696611c29565b905080156136b357611b58816011811115612e6057612e60615b6a565b611b6933856000613ee6565b60008060006136cd81612116565b60006136d7611c29565b90508015613707576136fb8160118111156136f4576136f4615b6a565b6011612e73565b600093509350506137a1565b846001600160a01b031663a6afed956040518163ffffffff1660e01b81526004016020604051808303816000875af1158015613747573d6000803e3d6000fd5b505050506040513d601f19601f8201168201806040525081019061376b9190615b1c565b9050801561378f576136fb81601181111561378857613788615b6a565b6012612e73565b61379b33888888614cf3565b93509350505b6137aa816121da565b50935093915050565b600654604051631200453160e11b8152600091829182916001600160a01b0316906324008a62906137ee9030908a908a908a90600401615d99565b6020604051808303816000875af115801561380d573d6000803e3d6000fd5b505050506040513d601f19601f820116820180604052508101906138319190615b1c565b90508015613852576138466003604383613db1565b60009250925050613bb4565b43600c541461386757613846600a6044612e73565b6138b06040805161010081019091528060008152602001600081526020016000815260200160008152602001600081526020016000815260200160008152602001600081525090565b6001600160a01b03861660009081526015602052604090206001015460608201526138da86612ed3565b60808301819052602083018260038111156138f7576138f7615b6a565b600381111561390857613908615b6a565b905250600090508160200151600381111561392557613925615b6a565b146139545761394760096042836020015160038111156132ff576132ff615b6a565b6000935093505050613bb4565b60001985141561396d5760808101516040820152613975565b604081018590525b61398387826040015161519d565b60e08201819052608082015161399891613008565b60a08301819052602083018260038111156139b5576139b5615b6a565b60038111156139c6576139c6615b6a565b90525060009050816020015160038111156139e3576139e3615b6a565b14613a535760405162461bcd60e51b815260206004820152603a60248201527f52455041595f424f52524f575f4e45575f4143434f554e545f424f52524f575f604482015279109053105390d157d0d05310d55310551253d397d1905253115160321b6064820152608401610c05565b613a63600e548260e00151613008565b60c0830181905260208301826003811115613a8057613a80615b6a565b6003811115613a9157613a91615b6a565b9052506000905081602001516003811115613aae57613aae615b6a565b14613b155760405162461bcd60e51b815260206004820152603160248201527f52455041595f424f52524f575f4e45575f544f54414c5f42414c414e43455f43604482015270105310d55310551253d397d19052531151607a1b6064820152608401610c05565b60a081810180516001600160a01b03898116600081815260156020908152604091829020948555600d5460019095019490945560c0870151600e81905560e088015195518251948f16855294840192909252820193909352606081019190915260808101919091527f1a2a22cb034d26d1854bdc6666a5b91fe25efbbb5dcad3b0355478d6f5c362a1910160405180910390a160e00151600093509150505b935093915050565b600080600080613bcc8787613e3a565b90925090506000826003811115613be557613be5615b6a565b14613bf65750915060009050613bb4565b613c008186613008565b935093505050935093915050565b6000613c186154f5565b600080613c2d86670de0b6b3a76400006144b8565b90925090506000826003811115613c4657613c46615b6a565b14613c6557506040805160208101909152600081529092509050612d8e565b600080613c7283886144f7565b90925090506000826003811115613c8b57613c8b615b6a565b14613cae5781604051806020016040528060008152509550955050505050612d8e565b604080516020810190915290815260009890975095505050505050565b6060600080856001600160a01b031685604051613ce89190615e2e565b6000604051808303816000865af19150503d8060008114613d25576040519150601f19603f3d011682016040523d82523d6000602084013e613d2a565b606091505b509150915081613d5e57805115613d445780518082602001fd5b8360405162461bcd60e51b8152600401610c059190615764565b95945050505050565b6001546040805163dd86fea160e01b815290516000926001600160a01b03169163dd86fea19160048083019260209291908290030181865afa158015611e9b573d6000803e3d6000fd5b6000600080516020615ed4833981519152846011811115613dd457613dd4615b6a565b846061811115613de657613de6615b6a565b84604051613df693929190615cfb565b60405180910390a16003846011811115613e1257613e12615b6a565b14613e2e57836011811115613e2957613e29615b6a565b6117f3565b6117f3826103e8615d27565b600080838301848110613e5257600092509050612d8e565b600260009250925050612d8e565b6000613e6a6154f5565b600080613e7b8660000151866144b8565b90925090506000826003811115613e9457613e94615b6a565b14613eb357506040805160208101909152600081529092509050612d8e565b60408051602081019091529081526000969095509350505050565b8051600090610bb890670de0b6b3a764000090615e4a565b6000821580613ef3575081155b613f5c5760405162461bcd60e51b815260206004820152603460248201527f6f6e65206f662072656465656d546f6b656e73496e206f722072656465656d416044820152736d6f756e74496e206d757374206265207a65726f60601b6064820152608401610c05565b613f64615508565b613f6c612259565b6040830181905260208301826003811115613f8957613f89615b6a565b6003811115613f9a57613f9a615b6a565b9052506000905081602001516003811115613fb757613fb7615b6a565b14613fe157613fd96009602e836020015160038111156132ff576132ff615b6a565b915050611c16565b60001983141561406657600654604051630cbb414760e11b81526001600160a01b0390911690631976828e906140209088903090600090600401615d3f565b6020604051808303816000875af115801561403f573d6000803e3d6000fd5b505050506040513d601f19601f820116820180604052508101906140639190615b1c565b92505b83156140ff57606081018490526040805160208101825290820151815261408d9085612d42565b60808301819052602083018260038111156140aa576140aa615b6a565b60038111156140bb576140bb615b6a565b90525060009050816020015160038111156140d8576140d8615b6a565b146140fa57613fd96009602c836020015160038111156132ff576132ff615b6a565b614190565b61411b8360405180602001604052808460400151815250615253565b606083018190526020830182600381111561413857614138615b6a565b600381111561414957614149615b6a565b905250600090508160200151600381111561416657614166615b6a565b1461418857613fd96009602d836020015160038111156132ff576132ff615b6a565b608081018390525b600654606082015160405163eabe7d9160e01b81526000926001600160a01b03169163eabe7d91916141c99130918b9190600401615e6c565b6020604051808303816000875af11580156141e8573d6000803e3d6000fd5b505050506040513d601f19601f8201168201806040525081019061420c9190615b1c565b9050801561422a576142216003602b83613db1565b92505050611c16565b43600c541461423f57614221600a602f612e73565b61424f6012548360600151613008565b60a084018190526020840182600381111561426c5761426c615b6a565b600381111561427d5761427d615b6a565b905250600090508260200151600381111561429a5761429a615b6a565b146142bc5761422160096031846020015160038111156132ff576132ff615b6a565b6001600160a01b03861660009081526013602052604090205460608301516142e49190613008565b60c084018190526020840182600381111561430157614301615b6a565b600381111561431257614312615b6a565b905250600090508260200151600381111561432f5761432f615b6a565b146143515761422160096030846020015160038111156132ff576132ff615b6a565b816080015161435e612d95565b101561437057614221600e6032612e73565b60a082015160125560c08201516001600160a01b03871660009081526013602052604090205560808201516143a6908790615263565b306001600160a01b0316866001600160a01b0316600080516020615ef483398151915284606001516040516143dd91815260200190565b60405180910390a3608082015160608301516040517fe5b754fb1abb7f01b499791d0b820ae3b6af3424ac1c59768edb53f4ec31a9299261441f928a92615e0d565b60405180910390a1600654608083015160608401516040516351dff98960e01b81523060048201526001600160a01b038a81166024830152604482019390935260648101919091529116906351dff98990608401600060405180830381600087803b15801561448d57600080fd5b505af11580156144a1573d6000803e3d6000fd5b50600092506144ae915050565b9695505050505050565b600080836144cb57506000905080612d8e565b838302836144d98683615e4a565b146144ec57600260009250925050612d8e565b600092509050612d8e565b6000808261450b5750600190506000612d8e565b60006145178486615e4a565b915091509250929050565b600654604051634ef4c3e160e01b8152600091829182916001600160a01b031690634ef4c3e19061455b90309089908990600401615e6c565b6020604051808303816000875af115801561457a573d6000803e3d6000fd5b505050506040513d601f19601f8201168201806040525081019061459e9190615b1c565b905080156145bf576145b36003602183613db1565b60009250925050612d8e565b43600c54146145d4576145b3600a6024612e73565b6145dc615508565b6145e4612259565b604083018190526020830182600381111561460157614601615b6a565b600381111561461257614612615b6a565b905250600090508160200151600381111561462f5761462f615b6a565b1461465e5761465160096023836020015160038111156132ff576132ff615b6a565b6000935093505050612d8e565b614668868661519d565b60c08201819052604080516020810182529083015181526146899190615253565b60608301819052602083018260038111156146a6576146a6615b6a565b60038111156146b7576146b7615b6a565b90525060009050816020015160038111156146d4576146d4615b6a565b146147215760405162461bcd60e51b815260206004820181905260248201527f4d494e545f45584348414e47455f43414c43554c4154494f4e5f4641494c45446044820152606401610c05565b60008160600151116147725760405162461bcd60e51b815260206004820152601a6024820152791352539517d6915493d7d0d513d2d15394d7d491529150d5115160321b6044820152606401610c05565b6147826012548260600151612fd2565b60808201526001600160a01b03861660009081526013602052604090205460608201516147af9190612fd2565b60a0820181905260808201516012556001600160a01b038716600090815260136020526040908190209190915560c0820151606083015191517f4c209b5fc8ad50758f13e2e1088ba56a560dff690a1c6fef26394f4c03821c4f92614818928a92909190615e0d565b60405180910390a1856001600160a01b0316306001600160a01b0316600080516020615ef4833981519152836060015160405161485791815260200190565b60405180910390a360c001516000969095509350505050565b60008061487d8486615d27565b905082858210156116db5760405162461bcd60e51b8152600401610c059190615764565b6148a96154f5565b60405180602001604052806148c28560000151856152da565b90529392505050565b6000806148d884846148a1565b90506117f381613ece565b6000806148f085856148a1565b9050613d5e6148fe82613ece565b84612fd2565b6000670de0b6b3a764000061491d8484600001516152da565b611c169190615e4a565b6000611c168383604051806040016040528060158152602001747375627472616374696f6e20756e646572666c6f7760581b815250615316565b60065460405163368f515360e21b815260009182916001600160a01b039091169063da3d454c9061499a90309088908890600401615e6c565b6020604051808303816000875af11580156149b9573d6000803e3d6000fd5b505050506040513d601f19601f820116820180604052508101906149dd9190615b1c565b905080156149fa576149f26003601083613db1565b915050610bb8565b43600c5414614a0f576149f2600a600c612e73565b6000614a19612d95565b905083811015614a3857614a2f600e600b612e73565b92505050610bb8565b614a64604080516080810190915280600081526020016000815260200160008152602001600081525090565b614a6d86612ed3565b6020830181905282826003811115614a8757614a87615b6a565b6003811115614a9857614a98615b6a565b9052506000905081516003811115614ab257614ab2615b6a565b14614add57614ad3600980836000015160038111156132ff576132ff615b6a565b9350505050610bb8565b614aeb816020015186613e3a565b6040830181905282826003811115614b0557614b05615b6a565b6003811115614b1657614b16615b6a565b9052506000905081516003811115614b3057614b30615b6a565b14614b5257614ad36009600e836000015160038111156132ff576132ff615b6a565b6006546040808301519051631de6c8a560e21b81526001600160a01b039092169163779b229491614b8891309190600401615c06565b6020604051808303816000875af1158015614ba7573d6000803e3d6000fd5b505050506040513d601f19601f82011682018060405250810190614bcb9190615b1c565b92508215614be057614ad36003601085613db1565b614bec600e5486613e3a565b6060830181905282826003811115614c0657614c06615b6a565b6003811115614c1757614c17615b6a565b9052506000905081516003811115614c3157614c31615b6a565b14614c5357614ad36009600d836000015160038111156132ff576132ff615b6a565b6040808201516001600160a01b0388166000908152601560205291909120908155600d546001909101556060810151600e55614c8f8686615263565b60408082015160608084015183516001600160a01b038b168152602081018a9052938401929092528201527f13ed6866d4e1ee6da46f845c46d7e54120883d75c5ea9a2dacc1c4ca8984ab809060800160405180910390a160009695505050505050565b600654604051632fe3f38f60e11b8152600091829182916001600160a01b031690635fc7e71e90614d3090309088908c908c908c90600401615dda565b6020604051808303816000875af1158015614d4f573d6000803e3d6000fd5b505050506040513d601f19601f82011682018060405250810190614d739190615b1c565b90508015614d9457614d886003601483613db1565b60009250925050615194565b43600c5414614da957614d88600a6018612e73565b43846001600160a01b0316636c540baf6040518163ffffffff1660e01b8152600401602060405180830381865afa158015614de8573d6000803e3d6000fd5b505050506040513d601f19601f82011682018060405250810190614e0c9190615b1c565b14614e1d57614d88600a6013612e73565b866001600160a01b0316866001600160a01b03161415614e4357614d8860066019612e73565b84614e5457614d8860076017612e73565b600019851415614e6a57614d8860076016612e73565b600080614e788989896137b3565b90925090508115614ead57614e9f826011811115614e9857614e98615b6a565b601a612e73565b600094509450505050615194565b60065460405163c488847b60e01b815260009182916001600160a01b039091169063c488847b90614ee69030908c908890600401615e6c565b6040805180830381865afa158015614f02573d6000803e3d6000fd5b505050506040513d601f19601f82011682018060405250810190614f269190615e90565b90925090508115614f955760405162461bcd60e51b815260206004820152603360248201527f4c49515549444154455f434f4d5054524f4c4c45525f43414c43554c4154455f604482015272105353d5539517d4d152569157d19052531151606a1b6064820152608401610c05565b6040516370a0823160e01b815281906001600160a01b038a16906370a0823190614fc3908e906004016157bc565b602060405180830381865afa158015614fe0573d6000803e3d6000fd5b505050506040513d601f19601f820116820180604052508101906150049190615b1c565b101561504d5760405162461bcd60e51b815260206004820152601860248201527709892a2aa928882a88abea68a92b48abea89e9ebe9aaa86960431b6044820152606401610c05565b60006001600160a01b0389163014156150735761506c308d8d85613155565b90506150e9565b60405163b2a02ff160e01b81526001600160a01b038a169063b2a02ff1906150a3908f908f908790600401615e6c565b6020604051808303816000875af11580156150c2573d6000803e3d6000fd5b505050506040513d601f19601f820116820180604052508101906150e69190615b1c565b90505b801561512e5760405162461bcd60e51b81526020600482015260146024820152731d1bdad95b881cd95a5e9d5c994819985a5b195960621b6044820152606401610c05565b604080516001600160a01b038e811682528d811660208301528183018790528b1660608201526080810184905290517f298637f684da70674f26509b10f07ec2fbc77a335ab1e7d6215a4b2484d8bb529181900360a00190a16000975092955050505050505b94509492505050565b6016546040516323b872dd60e01b81526000916001600160a01b0316906323b872dd906151d290869030908790600401615e6c565b6020604051808303816000875af11580156151f1573d6000803e3d6000fd5b505050506040513d601f19601f820116820180604052508101906152159190615be9565b61524a5760405162461bcd60e51b8152600401610c05906020808252600490820152631cd95b9960e21b604082015260600190565b610c2382612483565b600080600080612d528686615345565b601754604051632d182be560e21b81526001600160a01b039091169063b460af949061529790849086903090600401615bb0565b6020604051808303816000875af11580156152b6573d6000803e3d6000fd5b505050506040513d601f19601f8201168201806040525081019061137b9190615b1c565b6000611c168383604051806040016040528060178152602001766d756c7469706c69636174696f6e206f766572666c6f7760481b8152506153aa565b6000818484111561533a5760405162461bcd60e51b8152600401610c059190615764565b506117f38385615dc3565b600061534f6154f5565b600080615364670de0b6b3a7640000876144b8565b9092509050600082600381111561537d5761537d615b6a565b1461539c57506040805160208101909152600081529092509050612d8e565b612d87818660000151613c0e565b60008315806153b7575082155b156153c457506000611c16565b60006153d08486615eb4565b9050836153dd8683615e4a565b1483906116db5760405162461bcd60e51b8152600401610c059190615764565b82805461540990615b35565b90600052602060002090601f01602090048101928261542b5760008555615471565b82601f1061544457805160ff1916838001178555615471565b82800160010185558215615471579182015b82811115615471578251825591602001919060010190615456565b5061547d929150615546565b5090565b82805461548d90615b35565b90600052602060002090601f0160209004810192826154af5760008555615471565b82601f106154c85782800160ff19823516178555615471565b82800160010185558215615471579182015b828111156154715782358255916020019190600101906154da565b6040518060200160405280600081525090565b6040805160e0810190915280600081526020016000815260200160008152602001600081526020016000815260200160008152602001600081525090565b5b8082111561547d5760008155600101615547565b6001600160a01b038116811461225657600080fd5b803561557b8161555b565b919050565b634e487b7160e01b600052604160045260246000fd5b604051601f8201601f191681016001600160401b03811182821017156155be576155be615580565b604052919050565b60006001600160401b038211156155df576155df615580565b50601f01601f191660200190565b60006156006155fb846155c6565b615596565b905082815283838301111561561457600080fd5b828260208301376000602084830101529392505050565b600082601f83011261563c57600080fd5b611c16838335602085016155ed565b600080600080600080600080610100898b03121561566857600080fd5b88356156738161555b565b975060208901356156838161555b565b965060408901356156938161555b565b955060608901356156a38161555b565b945060808901356001600160401b03808211156156bf57600080fd5b6156cb8c838d0161562b565b955060a08b01359150808211156156e157600080fd5b506156ee8b828c0161562b565b93505060c0890135915060e089013590509295985092959890939650565b60005b8381101561572757818101518382015260200161570f565b838111156118845750506000910152565b6000815180845261575081602086016020860161570c565b601f01601f19169290920160200192915050565b602081526000611c166020830184615738565b6000806040838503121561578a57600080fd5b82356157958161555b565b946020939093013593505050565b6000602082840312156157b557600080fd5b5035919050565b6001600160a01b0391909116815260200190565b6000602082840312156157e257600080fd5b8135611c168161555b565b60ff8116811461225657600080fd5b803561557b816157ed565b60008060008060008060008060006101208a8c03121561582657600080fd5b89356158318161555b565b985060208a01356158418161555b565b975061584f60408b01615570565b965060608a0135955060808a01356001600160401b038082111561587257600080fd5b61587e8d838e0161562b565b965060a08c013591508082111561589457600080fd5b506158a18c828d0161562b565b9450506158b060c08b016157fc565b925060e08a013591506101008a013590509295985092959850929598565b6000806000606084860312156158e357600080fd5b83356158ee8161555b565b925060208401356158fe8161555b565b929592945050506040919091013590565b60008083601f84011261592157600080fd5b5081356001600160401b0381111561593857600080fd5b602083019150836020828501011115612d8e57600080fd5b6000806000806040858703121561596657600080fd5b84356001600160401b038082111561597d57600080fd5b6159898883890161590f565b909650945060208701359150808211156159a257600080fd5b506159af8782880161590f565b95989497509550505050565b801515811461225657600080fd5b600080600080606085870312156159df57600080fd5b84356159ea8161555b565b935060208501356159fa816159bb565b925060408501356001600160401b03811115615a1557600080fd5b6159af8782880161590f565b600060208284031215615a3357600080fd5b81356001600160401b03811115615a4957600080fd5b8201601f81018413615a5a57600080fd5b6117f3848235602084016155ed565b60008060408385031215615a7c57600080fd5b8235615a878161555b565b91506020830135615a978161555b565b809150509250929050565b93845260208401929092526040830152606082015260800190565b600080600060608486031215615ad257600080fd5b8335615add8161555b565b9250602084013591506040840135615af48161555b565b809150509250925092565b600060208284031215615b1157600080fd5b8151611c16816157ed565b600060208284031215615b2e57600080fd5b5051919050565b600181811c90821680615b4957607f821691505b60208210811415610c2357634e487b7160e01b600052602260045260246000fd5b634e487b7160e01b600052602160045260246000fd5b6020808252601690820152751858d8dc9d59481a5b9d195c995cdd0819985a5b195960521b604082015260600190565b9283526001600160a01b03918216602084015216604082015260600190565b6001600160a01b0392831681529116602082015260400190565b600060208284031215615bfb57600080fd5b8151611c16816159bb565b6001600160a01b03929092168252602082015260400190565b600080600060608486031215615c3457600080fd5b8351615c3f8161555b565b6020850151909350615c50816159bb565b60408501519092506001600160401b03811115615c6c57600080fd5b8401601f81018613615c7d57600080fd5b8051615c8b6155fb826155c6565b818152876020838501011115615ca057600080fd5b615cb182602083016020860161570c565b8093505050509250925092565b60208082526006908201526510b0b236b4b760d11b604082015260600190565b600060208284031215615cf057600080fd5b8151611c168161555b565b9283526020830191909152604082015260600190565b634e487b7160e01b600052601160045260246000fd5b60008219821115615d3a57615d3a615d11565b500190565b6001600160a01b039384168152919092166020820152901515604082015260600190565b6020808252601c908201527b6d61726b6572206d6574686f642072657475726e65642066616c736560201b604082015260600190565b6001600160a01b039485168152928416602084015292166040820152606081019190915260800190565b600082821015615dd557615dd5615d11565b500390565b6001600160a01b039586168152938516602085015291841660408401529092166060820152608081019190915260a00190565b6001600160a01b039390931683526020830191909152604082015260600190565b60008251615e4081846020870161570c565b9190910192915050565b600082615e6757634e487b7160e01b600052601260045260246000fd5b500490565b6001600160a01b039384168152919092166020820152604081019190915260600190565b60008060408385031215615ea357600080fd5b505080516020909101519092909150565b6000816000190483118215151615615ece57615ece615d11565b50029056fe45b96fe442630264581b197e84bbada861235052c5a1aadfff9ea4e40a969aa0ddf252ad1be2c89b69c2b068fc378daa952ba7f163c4a11628f55a4df523b3efa164736f6c634300080a000a",
    "linkReferences": {}
  },
  "methodIdentifiers": {
    "PRECISION()": "aaf5eb68",
    "_becomeImplementation(bytes)": "56e67728",
    "_prepare()": "1db78944",
    "_setAdminFee(uint256)": "91dd36c6",
    "_setImplementationSafe(address,bool,bytes)": "50d85b73",
    "_setInterestRateModel(address)": "f2b3abbd",
    "_setNameAndSymbol(string,string)": "34154d4c",
    "_setReserveFactor(uint256)": "fca7820b",
    "_updatePlugin(address)": "19f496c8",
    "accrualBlockNumber()": "6c540baf",
    "accrueInterest()": "a6afed95",
    "adminFeeMantissa()": "8d02d9a1",
    "allowance(address,address)": "dd62ed3e",
    "approve(address,address)": "7e5465ba",
    "approve(address,uint256)": "095ea7b3",
    "balanceOf(address)": "70a08231",
    "balanceOfUnderlying(address)": "3af9e669",
    "borrow(uint256)": "c5ebeaec",
    "borrowBalanceCurrent(address)": "17bfdfbc",
    "borrowBalanceStored(address)": "95dd9193",
    "borrowIndex()": "aa5af0fd",
    "borrowRatePerBlock()": "f8f9da28",
    "claim()": "4e71d92d",
    "comptroller()": "5fe3b567",
    "decimals()": "313ce567",
    "exchangeRateCurrent()": "bd6d894d",
    "exchangeRateStored()": "182df0f5",
    "feeSeizeShareMantissa()": "be99f119",
    "fuseAdmin()": "15761d51",
    "fuseFeeMantissa()": "dbfe7c19",
    "getAccountSnapshot(address)": "c37f68e2",
    "getCash()": "3b1d21a2",
    "implementation()": "5c60da1b",
    "initialize(address,address,address,address,string,string,uint256,uint256)": "06db3ecd",
    "initialize(address,address,address,uint256,string,string,uint8,uint256,uint256)": "219ef65c",
    "interestRateModel()": "f3fdb15a",
    "isCEther()": "ac784ddc",
    "isCToken()": "fe9c44ae",
    "liquidateBorrow(address,uint256,address)": "f5e3c462",
    "mint(uint256)": "a0712d68",
    "name()": "06fdde03",
    "plugin()": "ef01df4f",
    "protocolSeizeShareMantissa()": "6752e702",
    "redeem(uint256)": "db006a75",
    "redeemUnderlying(uint256)": "852a12e3",
    "repayBorrow(uint256)": "0e752702",
    "repayBorrowBehalf(address,uint256)": "2608f818",
    "reserveFactorMantissa()": "173b9904",
    "seize(address,address,uint256)": "b2a02ff1",
    "supplyRatePerBlock()": "ae9d70b0",
    "symbol()": "95d89b41",
    "totalAdminFees()": "61feacff",
    "totalBorrows()": "47bd3718",
    "totalBorrowsCurrent()": "73acee98",
    "totalFuseFees()": "dc028ab1",
    "totalReserves()": "8f840ddd",
    "totalSupply()": "18160ddd",
    "transfer(address,uint256)": "a9059cbb",
    "transferFrom(address,address,uint256)": "23b872dd",
    "underlying()": "6f307dc3"
  }
}