{
  "address": "0x923A0AeF3e5F7CCA75f8E54016cF2fB4B851bD44",
  "abi": [
    {
      "anonymous": false,
      "inputs": [
        {
          "indexed": false,
          "internalType": "uint256",
          "name": "cashPrior",
          "type": "uint256"
        },
        {
          "indexed": false,
          "internalType": "uint256",
          "name": "interestAccumulated",
          "type": "uint256"
        },
        {
          "indexed": false,
          "internalType": "uint256",
          "name": "borrowIndex",
          "type": "uint256"
        },
        {
          "indexed": false,
          "internalType": "uint256",
          "name": "totalBorrows",
          "type": "uint256"
        }
      ],
      "name": "AccrueInterest",
      "type": "event"
    },
    {
      "anonymous": false,
      "inputs": [
        {
          "indexed": true,
          "internalType": "address",
          "name": "owner",
          "type": "address"
        },
        {
          "indexed": true,
          "internalType": "address",
          "name": "spender",
          "type": "address"
        },
        {
          "indexed": false,
          "internalType": "uint256",
          "name": "amount",
          "type": "uint256"
        }
      ],
      "name": "Approval",
      "type": "event"
    },
    {
      "anonymous": false,
      "inputs": [
        {
          "indexed": false,
          "internalType": "address",
          "name": "borrower",
          "type": "address"
        },
        {
          "indexed": false,
          "internalType": "uint256",
          "name": "borrowAmount",
          "type": "uint256"
        },
        {
          "indexed": false,
          "internalType": "uint256",
          "name": "accountBorrows",
          "type": "uint256"
        },
        {
          "indexed": false,
          "internalType": "uint256",
          "name": "totalBorrows",
          "type": "uint256"
        }
      ],
      "name": "Borrow",
      "type": "event"
    },
    {
      "anonymous": false,
      "inputs": [
        {
          "indexed": false,
          "internalType": "uint256",
          "name": "error",
          "type": "uint256"
        },
        {
          "indexed": false,
          "internalType": "uint256",
          "name": "info",
          "type": "uint256"
        },
        {
          "indexed": false,
          "internalType": "uint256",
          "name": "detail",
          "type": "uint256"
        }
      ],
      "name": "Failure",
      "type": "event"
    },
    {
      "anonymous": false,
      "inputs": [
        {
          "indexed": false,
          "internalType": "address",
          "name": "liquidator",
          "type": "address"
        },
        {
          "indexed": false,
          "internalType": "address",
          "name": "borrower",
          "type": "address"
        },
        {
          "indexed": false,
          "internalType": "uint256",
          "name": "repayAmount",
          "type": "uint256"
        },
        {
          "indexed": false,
          "internalType": "address",
          "name": "cTokenCollateral",
          "type": "address"
        },
        {
          "indexed": false,
          "internalType": "uint256",
          "name": "seizeTokens",
          "type": "uint256"
        }
      ],
      "name": "LiquidateBorrow",
      "type": "event"
    },
    {
      "anonymous": false,
      "inputs": [
        {
          "indexed": false,
          "internalType": "address",
          "name": "minter",
          "type": "address"
        },
        {
          "indexed": false,
          "internalType": "uint256",
          "name": "mintAmount",
          "type": "uint256"
        },
        {
          "indexed": false,
          "internalType": "uint256",
          "name": "mintTokens",
          "type": "uint256"
        }
      ],
      "name": "Mint",
      "type": "event"
    },
    {
      "anonymous": false,
      "inputs": [
        {
          "indexed": false,
          "internalType": "uint256",
          "name": "oldAdminFeeMantissa",
          "type": "uint256"
        },
        {
          "indexed": false,
          "internalType": "uint256",
          "name": "newAdminFeeMantissa",
          "type": "uint256"
        }
      ],
      "name": "NewAdminFee",
      "type": "event"
    },
    {
      "anonymous": false,
      "inputs": [
        {
          "indexed": false,
          "internalType": "contract ComptrollerInterface",
          "name": "oldComptroller",
          "type": "address"
        },
        {
          "indexed": false,
          "internalType": "contract ComptrollerInterface",
          "name": "newComptroller",
          "type": "address"
        }
      ],
      "name": "NewComptroller",
      "type": "event"
    },
    {
      "anonymous": false,
      "inputs": [
        {
          "indexed": false,
          "internalType": "uint256",
          "name": "oldFuseFeeMantissa",
          "type": "uint256"
        },
        {
          "indexed": false,
          "internalType": "uint256",
          "name": "newFuseFeeMantissa",
          "type": "uint256"
        }
      ],
      "name": "NewFuseFee",
      "type": "event"
    },
    {
      "anonymous": false,
      "inputs": [
        {
          "indexed": false,
          "internalType": "address",
          "name": "oldImplementation",
          "type": "address"
        },
        {
          "indexed": false,
          "internalType": "address",
          "name": "newImplementation",
          "type": "address"
        }
      ],
      "name": "NewImplementation",
      "type": "event"
    },
    {
      "anonymous": false,
      "inputs": [
        {
          "indexed": false,
          "internalType": "contract InterestRateModel",
          "name": "oldInterestRateModel",
          "type": "address"
        },
        {
          "indexed": false,
          "internalType": "contract InterestRateModel",
          "name": "newInterestRateModel",
          "type": "address"
        }
      ],
      "name": "NewMarketInterestRateModel",
      "type": "event"
    },
    {
      "anonymous": false,
      "inputs": [
        {
          "indexed": false,
          "internalType": "address",
          "name": "oldImpl",
          "type": "address"
        },
        {
          "indexed": false,
          "internalType": "address",
          "name": "newImpl",
          "type": "address"
        }
      ],
      "name": "NewPluginImplementation",
      "type": "event"
    },
    {
      "anonymous": false,
      "inputs": [
        {
          "indexed": false,
          "internalType": "uint256",
          "name": "oldReserveFactorMantissa",
          "type": "uint256"
        },
        {
          "indexed": false,
          "internalType": "uint256",
          "name": "newReserveFactorMantissa",
          "type": "uint256"
        }
      ],
      "name": "NewReserveFactor",
      "type": "event"
    },
    {
      "anonymous": false,
      "inputs": [
        {
          "indexed": false,
          "internalType": "address",
          "name": "redeemer",
          "type": "address"
        },
        {
          "indexed": false,
          "internalType": "uint256",
          "name": "redeemAmount",
          "type": "uint256"
        },
        {
          "indexed": false,
          "internalType": "uint256",
          "name": "redeemTokens",
          "type": "uint256"
        }
      ],
      "name": "Redeem",
      "type": "event"
    },
    {
      "anonymous": false,
      "inputs": [
        {
          "indexed": false,
          "internalType": "address",
          "name": "payer",
          "type": "address"
        },
        {
          "indexed": false,
          "internalType": "address",
          "name": "borrower",
          "type": "address"
        },
        {
          "indexed": false,
          "internalType": "uint256",
          "name": "repayAmount",
          "type": "uint256"
        },
        {
          "indexed": false,
          "internalType": "uint256",
          "name": "accountBorrows",
          "type": "uint256"
        },
        {
          "indexed": false,
          "internalType": "uint256",
          "name": "totalBorrows",
          "type": "uint256"
        }
      ],
      "name": "RepayBorrow",
      "type": "event"
    },
    {
      "anonymous": false,
      "inputs": [
        {
          "indexed": false,
          "internalType": "address",
          "name": "benefactor",
          "type": "address"
        },
        {
          "indexed": false,
          "internalType": "uint256",
          "name": "addAmount",
          "type": "uint256"
        },
        {
          "indexed": false,
          "internalType": "uint256",
          "name": "newTotalReserves",
          "type": "uint256"
        }
      ],
      "name": "ReservesAdded",
      "type": "event"
    },
    {
      "anonymous": false,
      "inputs": [
        {
          "indexed": false,
          "internalType": "address",
          "name": "admin",
          "type": "address"
        },
        {
          "indexed": false,
          "internalType": "uint256",
          "name": "reduceAmount",
          "type": "uint256"
        },
        {
          "indexed": false,
          "internalType": "uint256",
          "name": "newTotalReserves",
          "type": "uint256"
        }
      ],
      "name": "ReservesReduced",
      "type": "event"
    },
    {
      "anonymous": false,
      "inputs": [
        {
          "indexed": true,
          "internalType": "address",
          "name": "from",
          "type": "address"
        },
        {
          "indexed": true,
          "internalType": "address",
          "name": "to",
          "type": "address"
        },
        {
          "indexed": false,
          "internalType": "uint256",
          "name": "amount",
          "type": "uint256"
        }
      ],
      "name": "Transfer",
      "type": "event"
    },
    {
      "inputs": [],
      "name": "PRECISION",
      "outputs": [
        {
          "internalType": "uint256",
          "name": "",
          "type": "uint256"
        }
      ],
      "stateMutability": "view",
      "type": "function"
    },
    {
      "inputs": [
        {
          "internalType": "bytes",
          "name": "data",
          "type": "bytes"
        }
      ],
      "name": "_becomeImplementation",
      "outputs": [],
      "stateMutability": "nonpayable",
      "type": "function"
    },
    {
      "inputs": [],
      "name": "_prepare",
      "outputs": [],
      "stateMutability": "payable",
      "type": "function"
    },
    {
      "inputs": [
        {
          "internalType": "uint256",
          "name": "newAdminFeeMantissa",
          "type": "uint256"
        }
      ],
      "name": "_setAdminFee",
      "outputs": [
        {
          "internalType": "uint256",
          "name": "",
          "type": "uint256"
        }
      ],
      "stateMutability": "nonpayable",
      "type": "function"
    },
    {
      "inputs": [
        {
          "internalType": "address",
          "name": "implementation_",
          "type": "address"
        },
        {
          "internalType": "bool",
          "name": "allowResign",
          "type": "bool"
        },
        {
          "internalType": "bytes",
          "name": "becomeImplementationData",
          "type": "bytes"
        }
      ],
      "name": "_setImplementationSafe",
      "outputs": [],
      "stateMutability": "nonpayable",
      "type": "function"
    },
    {
      "inputs": [
        {
          "internalType": "contract InterestRateModel",
          "name": "newInterestRateModel",
          "type": "address"
        }
      ],
      "name": "_setInterestRateModel",
      "outputs": [
        {
          "internalType": "uint256",
          "name": "",
          "type": "uint256"
        }
      ],
      "stateMutability": "nonpayable",
      "type": "function"
    },
    {
      "inputs": [
        {
          "internalType": "string",
          "name": "_name",
          "type": "string"
        },
        {
          "internalType": "string",
          "name": "_symbol",
          "type": "string"
        }
      ],
      "name": "_setNameAndSymbol",
      "outputs": [],
      "stateMutability": "nonpayable",
      "type": "function"
    },
    {
      "inputs": [
        {
          "internalType": "uint256",
          "name": "newReserveFactorMantissa",
          "type": "uint256"
        }
      ],
      "name": "_setReserveFactor",
      "outputs": [
        {
          "internalType": "uint256",
          "name": "",
          "type": "uint256"
        }
      ],
      "stateMutability": "nonpayable",
      "type": "function"
    },
    {
      "inputs": [
        {
          "internalType": "address",
          "name": "_plugin",
          "type": "address"
        }
      ],
      "name": "_updatePlugin",
      "outputs": [],
      "stateMutability": "nonpayable",
      "type": "function"
    },
    {
      "inputs": [
        {
          "internalType": "uint256",
          "name": "withdrawAmount",
          "type": "uint256"
        }
      ],
      "name": "_withdrawAdminFees",
      "outputs": [
        {
          "internalType": "uint256",
          "name": "",
          "type": "uint256"
        }
      ],
      "stateMutability": "nonpayable",
      "type": "function"
    },
    {
      "inputs": [
        {
          "internalType": "uint256",
          "name": "withdrawAmount",
          "type": "uint256"
        }
      ],
      "name": "_withdrawFuseFees",
      "outputs": [
        {
          "internalType": "uint256",
          "name": "",
          "type": "uint256"
        }
      ],
      "stateMutability": "nonpayable",
      "type": "function"
    },
    {
      "inputs": [],
      "name": "accrualBlockNumber",
      "outputs": [
        {
          "internalType": "uint256",
          "name": "",
          "type": "uint256"
        }
      ],
      "stateMutability": "view",
      "type": "function"
    },
    {
      "inputs": [],
      "name": "accrueInterest",
      "outputs": [
        {
          "internalType": "uint256",
          "name": "",
          "type": "uint256"
        }
      ],
      "stateMutability": "nonpayable",
      "type": "function"
    },
    {
      "inputs": [],
      "name": "adminFeeMantissa",
      "outputs": [
        {
          "internalType": "uint256",
          "name": "",
          "type": "uint256"
        }
      ],
      "stateMutability": "view",
      "type": "function"
    },
    {
      "inputs": [
        {
          "internalType": "address",
          "name": "owner",
          "type": "address"
        },
        {
          "internalType": "address",
          "name": "spender",
          "type": "address"
        }
      ],
      "name": "allowance",
      "outputs": [
        {
          "internalType": "uint256",
          "name": "",
          "type": "uint256"
        }
      ],
      "stateMutability": "view",
      "type": "function"
    },
    {
      "inputs": [
        {
          "internalType": "address",
          "name": "spender",
          "type": "address"
        },
        {
          "internalType": "uint256",
          "name": "amount",
          "type": "uint256"
        }
      ],
      "name": "approve",
      "outputs": [
        {
          "internalType": "bool",
          "name": "",
          "type": "bool"
        }
      ],
      "stateMutability": "nonpayable",
      "type": "function"
    },
    {
      "inputs": [
        {
          "internalType": "address",
          "name": "owner",
          "type": "address"
        }
      ],
      "name": "balanceOf",
      "outputs": [
        {
          "internalType": "uint256",
          "name": "",
          "type": "uint256"
        }
      ],
      "stateMutability": "view",
      "type": "function"
    },
    {
      "inputs": [
        {
          "internalType": "address",
          "name": "owner",
          "type": "address"
        }
      ],
      "name": "balanceOfUnderlying",
      "outputs": [
        {
          "internalType": "uint256",
          "name": "",
          "type": "uint256"
        }
      ],
      "stateMutability": "nonpayable",
      "type": "function"
    },
    {
      "inputs": [
        {
          "internalType": "uint256",
          "name": "borrowAmount",
          "type": "uint256"
        }
      ],
      "name": "borrow",
      "outputs": [
        {
          "internalType": "uint256",
          "name": "",
          "type": "uint256"
        }
      ],
      "stateMutability": "nonpayable",
      "type": "function"
    },
    {
      "inputs": [
        {
          "internalType": "address",
          "name": "account",
          "type": "address"
        }
      ],
      "name": "borrowBalanceCurrent",
      "outputs": [
        {
          "internalType": "uint256",
          "name": "",
          "type": "uint256"
        }
      ],
      "stateMutability": "nonpayable",
      "type": "function"
    },
    {
      "inputs": [
        {
          "internalType": "address",
          "name": "account",
          "type": "address"
        }
      ],
      "name": "borrowBalanceStored",
      "outputs": [
        {
          "internalType": "uint256",
          "name": "",
          "type": "uint256"
        }
      ],
      "stateMutability": "view",
      "type": "function"
    },
    {
      "inputs": [],
      "name": "borrowIndex",
      "outputs": [
        {
          "internalType": "uint256",
          "name": "",
          "type": "uint256"
        }
      ],
      "stateMutability": "view",
      "type": "function"
    },
    {
      "inputs": [],
      "name": "borrowRatePerBlock",
      "outputs": [
        {
          "internalType": "uint256",
          "name": "",
          "type": "uint256"
        }
      ],
      "stateMutability": "view",
      "type": "function"
    },
    {
      "inputs": [],
      "name": "comptroller",
      "outputs": [
        {
          "internalType": "contract ComptrollerInterface",
          "name": "",
          "type": "address"
        }
      ],
      "stateMutability": "view",
      "type": "function"
    },
    {
      "inputs": [],
      "name": "decimals",
      "outputs": [
        {
          "internalType": "uint8",
          "name": "",
          "type": "uint8"
        }
      ],
      "stateMutability": "view",
      "type": "function"
    },
    {
      "inputs": [],
      "name": "exchangeRateCurrent",
      "outputs": [
        {
          "internalType": "uint256",
          "name": "",
          "type": "uint256"
        }
      ],
      "stateMutability": "nonpayable",
      "type": "function"
    },
    {
      "inputs": [],
      "name": "exchangeRateStored",
      "outputs": [
        {
          "internalType": "uint256",
          "name": "",
          "type": "uint256"
        }
      ],
      "stateMutability": "view",
      "type": "function"
    },
    {
      "inputs": [],
      "name": "feeSeizeShareMantissa",
      "outputs": [
        {
          "internalType": "uint256",
          "name": "",
          "type": "uint256"
        }
      ],
      "stateMutability": "view",
      "type": "function"
    },
    {
      "inputs": [],
      "name": "fuseAdmin",
      "outputs": [
        {
          "internalType": "address payable",
          "name": "",
          "type": "address"
        }
      ],
      "stateMutability": "view",
      "type": "function"
    },
    {
      "inputs": [],
      "name": "fuseFeeMantissa",
      "outputs": [
        {
          "internalType": "uint256",
          "name": "",
          "type": "uint256"
        }
      ],
      "stateMutability": "view",
      "type": "function"
    },
    {
      "inputs": [
        {
          "internalType": "address",
          "name": "account",
          "type": "address"
        }
      ],
      "name": "getAccountSnapshot",
      "outputs": [
        {
          "internalType": "uint256",
          "name": "",
          "type": "uint256"
        },
        {
          "internalType": "uint256",
          "name": "",
          "type": "uint256"
        },
        {
          "internalType": "uint256",
          "name": "",
          "type": "uint256"
        },
        {
          "internalType": "uint256",
          "name": "",
          "type": "uint256"
        }
      ],
      "stateMutability": "view",
      "type": "function"
    },
    {
      "inputs": [],
      "name": "getCash",
      "outputs": [
        {
          "internalType": "uint256",
          "name": "",
          "type": "uint256"
        }
      ],
      "stateMutability": "view",
      "type": "function"
    },
    {
      "inputs": [],
      "name": "implementation",
      "outputs": [
        {
          "internalType": "address",
          "name": "",
          "type": "address"
        }
      ],
      "stateMutability": "view",
      "type": "function"
    },
    {
      "inputs": [
        {
          "internalType": "address",
          "name": "underlying_",
          "type": "address"
        },
        {
          "internalType": "contract ComptrollerInterface",
          "name": "comptroller_",
          "type": "address"
        },
        {
          "internalType": "address payable",
          "name": "fuseAdmin_",
          "type": "address"
        },
        {
          "internalType": "contract InterestRateModel",
          "name": "interestRateModel_",
          "type": "address"
        },
        {
          "internalType": "string",
          "name": "name_",
          "type": "string"
        },
        {
          "internalType": "string",
          "name": "symbol_",
          "type": "string"
        },
        {
          "internalType": "uint256",
          "name": "reserveFactorMantissa_",
          "type": "uint256"
        },
        {
          "internalType": "uint256",
          "name": "adminFeeMantissa_",
          "type": "uint256"
        }
      ],
      "name": "initialize",
      "outputs": [],
      "stateMutability": "nonpayable",
      "type": "function"
    },
    {
      "inputs": [
        {
          "internalType": "contract ComptrollerInterface",
          "name": "comptroller_",
          "type": "address"
        },
        {
          "internalType": "address payable",
          "name": "fuseAdmin_",
          "type": "address"
        },
        {
          "internalType": "contract InterestRateModel",
          "name": "interestRateModel_",
          "type": "address"
        },
        {
          "internalType": "uint256",
          "name": "initialExchangeRateMantissa_",
          "type": "uint256"
        },
        {
          "internalType": "string",
          "name": "name_",
          "type": "string"
        },
        {
          "internalType": "string",
          "name": "symbol_",
          "type": "string"
        },
        {
          "internalType": "uint8",
          "name": "decimals_",
          "type": "uint8"
        },
        {
          "internalType": "uint256",
          "name": "reserveFactorMantissa_",
          "type": "uint256"
        },
        {
          "internalType": "uint256",
          "name": "adminFeeMantissa_",
          "type": "uint256"
        }
      ],
      "name": "initialize",
      "outputs": [],
      "stateMutability": "nonpayable",
      "type": "function"
    },
    {
      "inputs": [],
      "name": "interestRateModel",
      "outputs": [
        {
          "internalType": "contract InterestRateModel",
          "name": "",
          "type": "address"
        }
      ],
      "stateMutability": "view",
      "type": "function"
    },
    {
      "inputs": [],
      "name": "isCEther",
      "outputs": [
        {
          "internalType": "bool",
          "name": "",
          "type": "bool"
        }
      ],
      "stateMutability": "nonpayable",
      "type": "function"
    },
    {
      "inputs": [],
      "name": "isCToken",
      "outputs": [
        {
          "internalType": "bool",
          "name": "",
          "type": "bool"
        }
      ],
      "stateMutability": "nonpayable",
      "type": "function"
    },
    {
      "inputs": [
        {
          "internalType": "address",
          "name": "borrower",
          "type": "address"
        },
        {
          "internalType": "uint256",
          "name": "repayAmount",
          "type": "uint256"
        },
        {
          "internalType": "contract CTokenInterface",
          "name": "cTokenCollateral",
          "type": "address"
        }
      ],
      "name": "liquidateBorrow",
      "outputs": [
        {
          "internalType": "uint256",
          "name": "",
          "type": "uint256"
        }
      ],
      "stateMutability": "nonpayable",
      "type": "function"
    },
    {
      "inputs": [
        {
          "internalType": "uint256",
          "name": "mintAmount",
          "type": "uint256"
        }
      ],
      "name": "mint",
      "outputs": [
        {
          "internalType": "uint256",
          "name": "",
          "type": "uint256"
        }
      ],
      "stateMutability": "nonpayable",
      "type": "function"
    },
    {
      "inputs": [],
      "name": "name",
      "outputs": [
        {
          "internalType": "string",
          "name": "",
          "type": "string"
        }
      ],
      "stateMutability": "view",
      "type": "function"
    },
    {
      "inputs": [],
      "name": "plugin",
      "outputs": [
        {
          "internalType": "contract IERC4626",
          "name": "",
          "type": "address"
        }
      ],
      "stateMutability": "view",
      "type": "function"
    },
    {
      "inputs": [],
      "name": "protocolSeizeShareMantissa",
      "outputs": [
        {
          "internalType": "uint256",
          "name": "",
          "type": "uint256"
        }
      ],
      "stateMutability": "view",
      "type": "function"
    },
    {
      "inputs": [
        {
          "internalType": "uint256",
          "name": "redeemTokens",
          "type": "uint256"
        }
      ],
      "name": "redeem",
      "outputs": [
        {
          "internalType": "uint256",
          "name": "",
          "type": "uint256"
        }
      ],
      "stateMutability": "nonpayable",
      "type": "function"
    },
    {
      "inputs": [
        {
          "internalType": "uint256",
          "name": "redeemAmount",
          "type": "uint256"
        }
      ],
      "name": "redeemUnderlying",
      "outputs": [
        {
          "internalType": "uint256",
          "name": "",
          "type": "uint256"
        }
      ],
      "stateMutability": "nonpayable",
      "type": "function"
    },
    {
      "inputs": [
        {
          "internalType": "uint256",
          "name": "repayAmount",
          "type": "uint256"
        }
      ],
      "name": "repayBorrow",
      "outputs": [
        {
          "internalType": "uint256",
          "name": "",
          "type": "uint256"
        }
      ],
      "stateMutability": "nonpayable",
      "type": "function"
    },
    {
      "inputs": [
        {
          "internalType": "address",
          "name": "borrower",
          "type": "address"
        },
        {
          "internalType": "uint256",
          "name": "repayAmount",
          "type": "uint256"
        }
      ],
      "name": "repayBorrowBehalf",
      "outputs": [
        {
          "internalType": "uint256",
          "name": "",
          "type": "uint256"
        }
      ],
      "stateMutability": "nonpayable",
      "type": "function"
    },
    {
      "inputs": [],
      "name": "reserveFactorMantissa",
      "outputs": [
        {
          "internalType": "uint256",
          "name": "",
          "type": "uint256"
        }
      ],
      "stateMutability": "view",
      "type": "function"
    },
    {
      "inputs": [
        {
          "internalType": "address",
          "name": "liquidator",
          "type": "address"
        },
        {
          "internalType": "address",
          "name": "borrower",
          "type": "address"
        },
        {
          "internalType": "uint256",
          "name": "seizeTokens",
          "type": "uint256"
        }
      ],
      "name": "seize",
      "outputs": [
        {
          "internalType": "uint256",
          "name": "",
          "type": "uint256"
        }
      ],
      "stateMutability": "nonpayable",
      "type": "function"
    },
    {
      "inputs": [],
      "name": "supplyRatePerBlock",
      "outputs": [
        {
          "internalType": "uint256",
          "name": "",
          "type": "uint256"
        }
      ],
      "stateMutability": "view",
      "type": "function"
    },
    {
      "inputs": [],
      "name": "symbol",
      "outputs": [
        {
          "internalType": "string",
          "name": "",
          "type": "string"
        }
      ],
      "stateMutability": "view",
      "type": "function"
    },
    {
      "inputs": [],
      "name": "totalAdminFees",
      "outputs": [
        {
          "internalType": "uint256",
          "name": "",
          "type": "uint256"
        }
      ],
      "stateMutability": "view",
      "type": "function"
    },
    {
      "inputs": [],
      "name": "totalBorrows",
      "outputs": [
        {
          "internalType": "uint256",
          "name": "",
          "type": "uint256"
        }
      ],
      "stateMutability": "view",
      "type": "function"
    },
    {
      "inputs": [],
      "name": "totalBorrowsCurrent",
      "outputs": [
        {
          "internalType": "uint256",
          "name": "",
          "type": "uint256"
        }
      ],
      "stateMutability": "nonpayable",
      "type": "function"
    },
    {
      "inputs": [],
      "name": "totalFuseFees",
      "outputs": [
        {
          "internalType": "uint256",
          "name": "",
          "type": "uint256"
        }
      ],
      "stateMutability": "view",
      "type": "function"
    },
    {
      "inputs": [],
      "name": "totalReserves",
      "outputs": [
        {
          "internalType": "uint256",
          "name": "",
          "type": "uint256"
        }
      ],
      "stateMutability": "view",
      "type": "function"
    },
    {
      "inputs": [],
      "name": "totalSupply",
      "outputs": [
        {
          "internalType": "uint256",
          "name": "",
          "type": "uint256"
        }
      ],
      "stateMutability": "view",
      "type": "function"
    },
    {
      "inputs": [
        {
          "internalType": "address",
          "name": "dst",
          "type": "address"
        },
        {
          "internalType": "uint256",
          "name": "amount",
          "type": "uint256"
        }
      ],
      "name": "transfer",
      "outputs": [
        {
          "internalType": "bool",
          "name": "",
          "type": "bool"
        }
      ],
      "stateMutability": "nonpayable",
      "type": "function"
    },
    {
      "inputs": [
        {
          "internalType": "address",
          "name": "src",
          "type": "address"
        },
        {
          "internalType": "address",
          "name": "dst",
          "type": "address"
        },
        {
          "internalType": "uint256",
          "name": "amount",
          "type": "uint256"
        }
      ],
      "name": "transferFrom",
      "outputs": [
        {
          "internalType": "bool",
          "name": "",
          "type": "bool"
        }
      ],
      "stateMutability": "nonpayable",
      "type": "function"
    },
    {
      "inputs": [],
      "name": "underlying",
      "outputs": [
        {
          "internalType": "address",
          "name": "",
          "type": "address"
        }
      ],
      "stateMutability": "view",
      "type": "function"
    }
  ],
  "transactionHash": "0x395b25d57f93c3c0f4400e6090f9139c4a18a33337773ac2e43f23a7b88f7f0b",
  "args": [],
  "numDeployments": 5,
  "bytecode": {
    "object": "0x608060405234801561001057600080fd5b50615e8e80620000216000396000f3fe6080604052600436106102a75760003560e01c806306db3ecd146102ac57806306fdde03146102ce578063095ea7b3146102f95780630e7527021461032957806315761d5114610357578063173b99041461038457806317bfdfbc1461039a57806318160ddd146103ba578063182df0f5146103d057806319f496c8146103e55780631db7894414610405578063219ef65c1461040d57806323b872dd1461042d5780632608f8181461044d578063313ce5671461046d57806334154d4c146104995780633af9e669146104b95780633b1d21a2146104d957806347bd3718146104ee57806350d85b731461050457806356e67728146105245780635c60da1b146105445780635fe3b5671461056457806361feacff146105845780636752e7021461059a5780636c540baf146105b55780636f307dc3146105cb57806370a08231146105eb57806373acee9814610621578063852a12e3146106365780638d02d9a1146106565780638f840ddd1461066c57806391dd36c61461068257806395d89b41146106a257806395dd9193146106b7578063a03dce8d146106d7578063a0712d68146106f7578063a6afed9514610717578063a7b820df1461072c578063a9059cbb1461074c578063aa5af0fd1461076c578063aaf5eb6814610782578063ac784ddc1461079e578063ae9d70b0146107b2578063b2a02ff1146107c7578063bd6d894d146107e7578063be99f119146107fc578063c37f68e214610818578063c5ebeaec14610848578063db006a7514610868578063dbfe7c1914610888578063dc028ab11461089e578063dd62ed3e146108b4578063ef01df4f146108fa578063f2b3abbd1461091a578063f3fdb15a1461093a578063f5e3c4621461095a578063f8f9da281461097a578063fca7820b1461098f578063fe9c44ae146109af575b600080fd5b3480156102b857600080fd5b506102cc6102c73660046155d4565b6109c3565b005b3480156102da57600080fd5b506102e3610ad1565b6040516102f091906156ed565b60405180910390f35b34801561030557600080fd5b50610319610314366004615700565b610b5f565b60405190151581526020016102f0565b34801561033557600080fd5b5061034961034436600461572c565b610bcf565b6040519081526020016102f0565b34801561036357600080fd5b50600154610377906001600160a01b031681565b6040516102f09190615745565b34801561039057600080fd5b50610349600b5481565b3480156103a657600080fd5b506103496103b5366004615759565b610be3565b3480156103c657600080fd5b5061034960125481565b3480156103dc57600080fd5b50610349610c3a565b3480156103f157600080fd5b506102cc610400366004615759565b610ccb565b6102cc6110fa565b34801561041957600080fd5b506102cc610428366004615790565b611230565b34801561043957600080fd5b50610319610448366004615857565b611557565b34801561045957600080fd5b50610349610468366004615700565b61157d565b34801561047957600080fd5b506005546104879060ff1681565b60405160ff90911681526020016102f0565b3480156104a557600080fd5b506102cc6104b43660046158d9565b611593565b3480156104c557600080fd5b506103496104d4366004615759565b6115fa565b3480156104e557600080fd5b506103496116aa565b3480156104fa57600080fd5b50610349600e5481565b34801561051057600080fd5b506102cc61051f366004615952565b6116b9565b34801561053057600080fd5b506102cc61053f3660046159aa565b611752565b34801561055057600080fd5b50600054610377906001600160a01b031681565b34801561057057600080fd5b50600654610377906001600160a01b031681565b34801561059057600080fd5b5061034960105481565b3480156105a657600080fd5b50610349666379da05b6000081565b3480156105c157600080fd5b50610349600c5481565b3480156105d757600080fd5b50601654610377906001600160a01b031681565b3480156105f757600080fd5b50610349610606366004615759565b6001600160a01b031660009081526013602052604090205490565b34801561062d57600080fd5b506103496118b9565b34801561064257600080fd5b5061034961065136600461572c565b6118e8565b34801561066257600080fd5b5061034960095481565b34801561067857600080fd5b50610349600f5481565b34801561068e57600080fd5b5061034961069d36600461572c565b6118f3565b3480156106ae57600080fd5b506102e361194a565b3480156106c357600080fd5b506103496106d2366004615759565b611957565b3480156106e357600080fd5b506103496106f236600461572c565b6119f2565b34801561070357600080fd5b5061034961071236600461572c565b611a35565b34801561072357600080fd5b50610349611a41565b34801561073857600080fd5b5061034961074736600461572c565b611be9565b34801561075857600080fd5b50610319610767366004615700565b611c2c565b34801561077857600080fd5b50610349600d5481565b34801561078e57600080fd5b50610349670de0b6b3a764000081565b3480156107aa57600080fd5b506000610319565b3480156107be57600080fd5b50610349611c59565b3480156107d357600080fd5b506103496107e2366004615857565b611d09565b3480156107f357600080fd5b50610349611d2d565b34801561080857600080fd5b5061034967016345785d8a000081565b34801561082457600080fd5b50610838610833366004615759565b611d5d565b6040516102f094939291906159f2565b34801561085457600080fd5b5061034961086336600461572c565b611dfe565b34801561087457600080fd5b5061034961088336600461572c565b611e09565b34801561089457600080fd5b50610349600a5481565b3480156108aa57600080fd5b5061034960115481565b3480156108c057600080fd5b506103496108cf366004615a0d565b6001600160a01b03918216600090815260146020908152604080832093909416825291909152205490565b34801561090657600080fd5b50601754610377906001600160a01b031681565b34801561092657600080fd5b50610349610935366004615759565b611e14565b34801561094657600080fd5b50600754610377906001600160a01b031681565b34801561096657600080fd5b50610349610975366004615a46565b611e4c565b34801561098657600080fd5b50610349611e64565b34801561099b57600080fd5b506103496109aa36600461572c565b611eb5565b3480156109bb57600080fd5b506001610319565b60006702c68af0bb14000090506000896001600160a01b031663313ce5676040518163ffffffff1660e01b8152600401602060405180830381865afa158015610a10573d6000803e3d6000fd5b505050506040513d601f19601f82011682018060405250810190610a349190615a88565b9050610a47898989858a8a878b8b611230565b601680546001600160a01b0319166001600160a01b038c16908117909155604080516318160ddd60e01b815290516318160ddd916004808201926020929091908290030181865afa158015610aa0573d6000803e3d6000fd5b505050506040513d601f19601f82011682018060405250810190610ac49190615aa5565b5050505050505050505050565b60038054610ade90615abe565b80601f0160208091040260200160405190810160405280929190818152602001828054610b0a90615abe565b8015610b575780601f10610b2c57610100808354040283529160200191610b57565b820191906000526020600020905b815481529060010190602001808311610b3a57829003601f168201915b505050505081565b3360008181526014602090815260408083206001600160a01b03871680855292528083208590555191929182907f8c5be1e5ebec7d5bd14f71427d1e84f3dd0314c0f7b2291e5b200ac8c7c3b92590610bbb9087815260200190565b60405180910390a360019150505b92915050565b600080610bdb83611ef8565b509392505050565b600080610bef81611f60565b6000610bf9611a41565b14610c1f5760405162461bcd60e51b8152600401610c1690615b09565b60405180910390fd5b610c2883611957565b91505b610c3481612024565b50919050565b6000806000610c476120a3565b90925090506000826003811115610c6057610c60615af3565b14610bc95760405162461bcd60e51b815260206004820152603560248201527f65786368616e67655261746553746f7265643a2065786368616e67655261746560448201527414dd1bdc9959125b9d195c9b985b0819985a5b1959605a1b6064820152608401610c16565b33301480610cdc5750610cdc612162565b610d3c5760405162461bcd60e51b815260206004820152602b60248201527f6f6e6c792073656c6620616e642061646d696e732063616e2063616c6c205f7560448201526a383230ba32a8363ab3b4b760a91b6064820152608401610c16565b6017546000906001600160a01b0316610d555781610d62565b6017546001600160a01b03165b600154604051637583efcf60e01b81529192506001600160a01b031690637583efcf90610d959084908690600401615b39565b602060405180830381865afa158015610db2573d6000803e3d6000fd5b505050506040513d601f19601f82011682018060405250810190610dd69190615b53565b610e305760405162461bcd60e51b815260206004820152602560248201527f706c7567696e20696d706c656d656e746174696f6e206e6f742077686974656c6044820152641a5cdd195960da1b6064820152608401610c16565b6017546001600160a01b031615801590610eb957506017546040516370a0823160e01b81526001600160a01b03909116906370a0823190610e75903090600401615745565b602060405180830381865afa158015610e92573d6000803e3d6000fd5b505050506040513d601f19601f82011682018060405250810190610eb69190615aa5565b15155b15610f9c576017546040516370a0823160e01b81526001600160a01b039091169063ba0876529082906370a0823190610ef6903090600401615745565b602060405180830381865afa158015610f13573d6000803e3d6000fd5b505050506040513d601f19601f82011682018060405250810190610f379190615aa5565b30306040518463ffffffff1660e01b8152600401610f5793929190615b70565b6020604051808303816000875af1158015610f76573d6000803e3d6000fd5b505050506040513d601f19601f82011682018060405250810190610f9a9190615aa5565b505b601780546001600160a01b0319166001600160a01b038481169190911790915560165460405163095ea7b360e01b815291169063095ea7b390610fe790859060001990600401615b8f565b6020604051808303816000875af1158015611006573d6000803e3d6000fd5b505050506040513d601f19601f8201168201806040525081019061102a9190615b53565b506016546040516370a0823160e01b81526000916001600160a01b0316906370a082319061105c903090600401615745565b602060405180830381865afa158015611079573d6000803e3d6000fd5b505050506040513d601f19601f8201168201806040525081019061109d9190615aa5565b905080156110ae576110ae816122cd565b6017546040517fb32957d2794aaec3ea2c8852833af2192fe9fb518777de1f883e9e821781da75916110ed916001600160a01b03909116908690615b39565b60405180910390a1505050565b33301480159061117c5750600660009054906101000a90046001600160a01b03166001600160a01b031663dd5cd22c6040518163ffffffff1660e01b8152600401602060405180830381865afa158015611158573d6000803e3d6000fd5b505050506040513d601f19601f8201168201806040525081019061117c9190615b53565b1561122e57600154600080546040516345cc970560e01b81529192839283926001600160a01b03928316926345cc9705926111bd9290911690600401615745565b600060405180830381865afa1580156111da573d6000803e3d6000fd5b505050506040513d6000823e601f3d908101601f191682016040526112029190810190615ba8565b60005492955090935091506001600160a01b0380851691161461122a5761122a838383612342565b5050505b565b336001600160a01b0389161461129a5760405162461bcd60e51b815260206004820152602960248201527f6f6e6c7920467573652061646d696e206d617920696e697469616c697a6520746044820152681a19481b585c9ad95d60ba1b6064820152608401610c16565b600c541580156112aa5750600d54155b6113025760405162461bcd60e51b815260206004820152602360248201527f6d61726b6574206d6179206f6e6c7920626520696e697469616c697a6564206f6044820152626e636560e81b6064820152608401610c16565b600180546001600160a01b0319166001600160a01b038a161790556008869055856113885760405162461bcd60e51b815260206004820152603060248201527f696e697469616c2065786368616e67652072617465206d75737420626520677260448201526f32b0ba32b9103a3430b7103d32b9379760811b6064820152608401610c16565b60006113938a6124d6565b905080156113e05760405162461bcd60e51b815260206004820152601a6024820152791cd95d1d1a5b99c818dbdb5c1d1c9bdb1b195c8819985a5b195960321b6044820152606401610c16565b43600c55670de0b6b3a7640000600d556113f9886125ca565b905080156114545760405162461bcd60e51b815260206004820152602260248201527f73657474696e6720696e7465726573742072617465206d6f64656c206661696c604482015261195960f21b6064820152608401610c16565b8551611467906003906020890190615386565b50845161147b906004906020880190615386565b506005805460ff191660ff8616179055611494836126dd565b905080156114e45760405162461bcd60e51b815260206004820152601d60248201527f73657474696e67207265736572766520666163746f72206661696c65640000006044820152606401610c16565b6114ed8261277c565b905080156115385760405162461bcd60e51b81526020600482015260186024820152771cd95d1d1a5b99c818591b5a5b881999594819985a5b195960421b6044820152606401610c16565b50506002805460ff60b01b1916600160b01b1790555050505050505050565b60008061156381611f60565b600061157133878787612896565b149150610bdb81612024565b60008061158a8484612b29565b50949350505050565b61159b612162565b6115da5760405162461bcd60e51b815260206004820152601060248201526f31b0b63632b9103737ba1030b236b4b760811b6044820152606401610c16565b6115e66003858561540a565b506115f36004838361540a565b5050505050565b6000806040518060200160405280611610611d2d565b90526001600160a01b03841660009081526013602052604081205491925090819061163c908490612b93565b9092509050600082600381111561165557611655615af3565b146116a25760405162461bcd60e51b815260206004820152601f60248201527f62616c616e636520636f756c64206e6f742062652063616c63756c61746564006044820152606401610c16565b949350505050565b60006116b4612be6565b905090565b6116c1612162565b6116f65760405162461bcd60e51b815260206004820152600660248201526510b0b236b4b760d11b6044820152606401610c16565b6000546001600160a01b0385811691161461174c5761174c848484848080601f01602080910402602001604051908101604052809392919081815260200183838082843760009201919091525061234292505050565b50505050565b333014806117635750611763612162565b6117cb5760405162461bcd60e51b815260206004820152603360248201527f6f6e6c792073656c6620616e642061646d696e732063616e2063616c6c205f6260448201527232b1b7b6b2a4b6b83632b6b2b73a30ba34b7b760691b6064820152608401610c16565b6000818060200190518101906117e19190615c47565b90506001600160a01b03811615801561180457506017546001600160a01b031615155b15611881576001546017546040516381218ea960e01b81526001600160a01b03928316926381218ea99261183d92911690600401615745565b602060405180830381865afa15801561185a573d6000803e3d6000fd5b505050506040513d601f19601f8201168201806040525081019061187e9190615c47565b90505b6001600160a01b038116158015906118a757506017546001600160a01b03828116911614155b156118b5576118b581610ccb565b5050565b6000806118c4611a41565b146118e15760405162461bcd60e51b8152600401610c1690615b09565b50600e5490565b6000610bc982612c7e565b6000806118ff81611f60565b6000611909611a41565b905080156119355761192d81601181111561192657611926615af3565b6052612cc4565b925050610c2b565b61193e8461277c565b925050610c3481612024565b60048054610ade90615abe565b600080600061196584612d24565b9092509050600082600381111561197e5761197e615af3565b146119eb5760405162461bcd60e51b815260206004820152603760248201527f626f72726f7742616c616e636553746f7265643a20626f72726f7742616c616e60448201527618d954dd1bdc9959125b9d195c9b985b0819985a5b1959604a1b6064820152608401610c16565b9392505050565b6000806119fe81611f60565b6000611a08611a41565b90508015611a2c5761192d816011811115611a2557611a25615af3565b6033612cc4565b61193e84612ddd565b600080610bdb83612e50565b600c546000904390811415611a595760005b91505090565b6000611a63612be6565b90506000600760009054906101000a90046001600160a01b03166001600160a01b03166315f2405383600e54611aa8600f54611aa3601054601154612e96565b612e96565b6040518463ffffffff1660e01b8152600401611ac693929190615c64565b602060405180830381865afa158015611ae3573d6000803e3d6000fd5b505050506040513d601f19601f82011682018060405250810190611b079190615aa5565b905065048c27395000811115611b5e5760405162461bcd60e51b815260206004820152601c60248201527b0c4dee4e4deee40e4c2e8ca40d2e640c2c4e6eae4c8d8f240d0d2ced60231b6044820152606401610c16565b600080611b6d85600c54612ecc565b90925090506000826003811115611b8657611b86615af3565b14611bd35760405162461bcd60e51b815260206004820152601f60248201527f636f756c64206e6f742063616c63756c61746520626c6f636b2064656c7461006044820152606401610c16565b611bdf85858584612ef7565b9550505050505090565b600080611bf581611f60565b6000611bff611a41565b90508015611c235761192d816011811115611c1c57611c1c615af3565b6037612cc4565b61193e84613019565b600080611c3881611f60565b6000611c4633338787612896565b149150611c5281612024565b5092915050565b6007546000906001600160a01b031663b8168816611c75612be6565b600e54611c8c600f54611aa3601054601154612e96565b600954600a54600b54611c9f9190615c90565b611ca99190615c90565b6040518563ffffffff1660e01b8152600401611cc894939291906159f2565b602060405180830381865afa158015611ce5573d6000803e3d6000fd5b505050506040513d601f19601f820116820180604052508101906116b49190615aa5565b60006001611d1681611f60565b611d22338686866130f7565b9150610bdb81612024565b600080611d38611a41565b14611d555760405162461bcd60e51b8152600401610c1690615b09565b6116b4610c3a565b6001600160a01b038116600090815260136020526040812054819081908190818080611d8889612d24565b935090506000816003811115611da057611da0615af3565b14611dbe5760095b6000806000975097509750975050505050611df7565b611dc66120a3565b925090506000816003811115611dde57611dde615af3565b14611dea576009611da8565b5060009650919450925090505b9193509193565b6000610bc9826135de565b6000610bc982613622565b600080611e1f611a41565b90508015611e43576119eb816011811115611e3c57611e3c615af3565b604b612cc4565b6119eb836125ca565b600080611e5a858585613661565b5095945050505050565b6007546000906001600160a01b03166315f24053611e80612be6565b600e54611e97600f54611aa3601054601154612e96565b6040518463ffffffff1660e01b8152600401611cc893929190615c64565b600080611ec181611f60565b6000611ecb611a41565b90508015611eef5761192d816011811115611ee857611ee8615af3565b6059612cc4565b61193e846126dd565b6000806000611f0681611f60565b6000611f10611a41565b90508015611f4057611f34816011811115611f2d57611f2d615af3565b6041612cc4565b60009350935050611f51565b611f4b333387613755565b93509350505b611f5a81612024565b50915091565b600254600160b01b900460ff16611fa65760405162461bcd60e51b815260206004820152600a6024820152691c994b595b9d195c995960b21b6044820152606401610c16565b8061201457600660009054906101000a90046001600160a01b03166001600160a01b031663c90c20b16040518163ffffffff1660e01b8152600401600060405180830381600087803b158015611ffb57600080fd5b505af115801561200f573d6000803e3d6000fd5b505050505b506002805460ff60b01b19169055565b6002805460ff60b01b1916600160b01b179055806120a057600660009054906101000a90046001600160a01b03166001600160a01b031663632e51426040518163ffffffff1660e01b8152600401600060405180830381600087803b15801561208c57600080fd5b505af11580156115f3573d6000803e3d6000fd5b50565b6012546000908190806120bd575050600854600092909150565b60006120c7612be6565b905060006120d361547e565b60006120f584600e546120f0600f54611aa3601054601154612e96565b613b5e565b93509050600081600381111561210d5761210d615af3565b1461211f579660009650945050505050565b6121298386613bb0565b92509050600081600381111561214157612141615af3565b14612153579660009650945050505050565b50516000969095509350505050565b600654604080516303e1469160e61b815290516000926001600160a01b031691829163f851a440916004808201926020929091908290030181865afa1580156121af573d6000803e3d6000fd5b505050506040513d601f19601f820116820180604052508101906121d39190615c47565b6001600160a01b0316336001600160a01b03161480156122505750806001600160a01b0316630a755ec26040518163ffffffff1660e01b8152600401602060405180830381865afa15801561222c573d6000803e3d6000fd5b505050506040513d601f19601f820116820180604052508101906122509190615b53565b80611a5357506001546001600160a01b031633148015611a535750806001600160a01b0316632f1069ba6040518163ffffffff1660e01b8152600401602060405180830381865afa1580156122a9573d6000803e3d6000fd5b505050506040513d601f19601f82011682018060405250810190611a539190615b53565b601754604051636e553f6560e01b8152600481018390523060248201526001600160a01b0390911690636e553f65906044016020604051808303816000875af115801561231e573d6000803e3d6000fd5b505050506040513d601f19601f820116820180604052508101906118b59190615aa5565b6001546000546040516338e6a07360e11b81526001600160a01b039182166004820152858216602482015284151560448201529116906371cd40e690606401602060405180830381865afa15801561239e573d6000803e3d6000fd5b505050506040513d601f19601f820116820180604052508101906123c29190615b53565b6123f65760405162461bcd60e51b8152602060048201526005602482015264085a5b5c1b60da1b6044820152606401610c16565b600080546001600160a01b038581166001600160a01b031983161790925516303b6124295761242482611752565b61248b565b612489308360405160240161243e91906156ed565b60408051601f19818403018152918152602080830180516001600160e01b0316630adccee560e31b17905281518083019092526007825266216265636f6d6560c81b90820152613c6d565b505b6000546040517fd604de94d45953f9138079ec1b82d533cb2160c906d1076d1f7ed54befbca97a916124c89184916001600160a01b031690615b39565b60405180910390a150505050565b600080600660009054906101000a90046001600160a01b03169050826001600160a01b0316627e3dd26040518163ffffffff1660e01b8152600401602060405180830381865afa15801561252e573d6000803e3d6000fd5b505050506040513d601f19601f820116820180604052508101906125529190615b53565b61256e5760405162461bcd60e51b8152600401610c1690615ca8565b600680546001600160a01b0319166001600160a01b0385161790556040517f7ac369dbd14fa5ea3f473ed67cc9d598964a77501540ba6751eb0b3decf5870d906125bb9083908690615b39565b60405180910390a160006119eb565b6000806125d5612162565b6125e5576119eb6001604d612cc4565b43600c54146125fa576119eb600a604c612cc4565b600760009054906101000a90046001600160a01b03169050826001600160a01b0316632191f92a6040518163ffffffff1660e01b8152600401602060405180830381865afa158015612650573d6000803e3d6000fd5b505050506040513d601f19601f820116820180604052508101906126749190615b53565b6126905760405162461bcd60e51b8152600401610c1690615ca8565b600780546001600160a01b0319166001600160a01b0385161790556040517fedffc32e068c7c95dfd4bdfd5c4d939a084d6b11c4199eac8436ed234d72f926906125bb9083908690615b39565b60006126e7612162565b6126f757610bc96001605a612cc4565b43600c541461270c57610bc9600a605b612cc4565b670de0b6b3a764000061272c61272484600954612e96565b600a54612e96565b111561273e57610bc96002605c612cc4565b600b80549083905560408051828152602081018590527faaa68312e2ea9d50e16af5068410ab56e1a1fd06037b1a35664812c30f82146091016125bb565b600043600c541461279357610bc9600a6054612cc4565b6000198214156127a35760095491505b60006127ad613d09565b9050670de0b6b3a76400006127cd6127c7600b5486612e96565b83612e96565b11156127df576119eb60026055612cc4565b8260095414612843576127f0612162565b612800576119eb60016053612cc4565b600980549084905560408051828152602081018690527fcdd0b588250e1398549f79cfdb8217c186688822905d6715b0834ea1c865594a910160405180910390a1505b80600a541461288f57600a80549082905560408051828152602081018490527f92eef861b6533b7d3417f39c2ad7b460eed4e88a32fa3604f30e718b7602e7dc910160405180910390a1505b60006119eb565b6006546040516317b9b84b60e31b815260009182916001600160a01b039091169063bdcdc258906128d1903090899089908990600401615cde565b6020604051808303816000875af11580156128f0573d6000803e3d6000fd5b505050506040513d601f19601f820116820180604052508101906129149190615aa5565b90508015612931576129296003605d83613d53565b9150506116a2565b836001600160a01b0316856001600160a01b03161415612957576129296002605e612cc4565b6000856001600160a01b0316876001600160a01b0316141561297c57506000196129a4565b506001600160a01b038086166000908152601460209081526040808320938a16835292905220545b6000806000806129b48589612ecc565b909450925060008460038111156129cd576129cd615af3565b146129eb576129de6009605e612cc4565b96505050505050506116a2565b6001600160a01b038a16600090815260136020526040902054612a0e9089612ecc565b90945091506000846003811115612a2757612a27615af3565b14612a38576129de6009605f612cc4565b6001600160a01b038916600090815260136020526040902054612a5b9089613ddc565b90945090506000846003811115612a7457612a74615af3565b14612a85576129de60096060612cc4565b6001600160a01b03808b16600090815260136020526040808220859055918b168152208190556000198514612add576001600160a01b03808b166000908152601460209081526040808320938f168352929052208390555b886001600160a01b03168a6001600160a01b0316600080516020615e628339815191528a604051612b1091815260200190565b60405180910390a35060009a9950505050505050505050565b6000806000612b3781611f60565b6000612b41611a41565b90508015612b7157612b65816011811115612b5e57612b5e615af3565b6040612cc4565b60009350935050612b82565b612b7c338787613755565b93509350505b612b8b81612024565b509250929050565b600080600080612ba38686613e02565b90925090506000826003811115612bbc57612bbc615af3565b14612bcd5750915060009050612bdf565b6000612bd882613e70565b9350935050505b9250929050565b6017546040516370a0823160e01b81526000916001600160a01b031690634cdad5069082906370a0823190612c1f903090600401615745565b602060405180830381865afa158015612c3c573d6000803e3d6000fd5b505050506040513d601f19601f82011682018060405250810190612c609190615aa5565b6040518263ffffffff1660e01b8152600401611cc891815260200190565b600080612c8a81611f60565b6000612c94611a41565b90508015612cb85761192d816011811115612cb157612cb1615af3565b602a612cc4565b61193e33600086613e88565b6000600080516020615e42833981519152836011811115612ce757612ce7615af3565b836063811115612cf957612cf9615af3565b6000604051612d0a93929190615c64565b60405180910390a18260118111156119eb576119eb615af3565b6001600160a01b038116600090815260156020526040812080548291829182918291612d595750600096879650945050505050565b612d698160000154600d546143c7565b90945092506000846003811115612d8257612d82615af3565b14612d9557509195600095509350505050565b612da3838260010154614406565b90945091506000846003811115612dbc57612dbc615af3565b14612dcf57509195600095509350505050565b506000969095509350505050565b60008043600c5414612df5576119eb600a6035612cc4565b82612dfe612be6565b1015612e10576119eb600e6034612cc4565b601154831115612e26576119eb60026036612cc4565b612e3260115484614431565b601181905560015490915061288f906001600160a01b03168461446b565b6000806000612e5e81611f60565b6000612e68611a41565b90508015612e8c57611f34816011811115612e8557612e85615af3565b6020612cc4565b611f4b33866144e2565b60006119eb8383604051806040016040528060118152602001706164646974696f6e206f766572666c6f7760781b8152506148aa565b600080838311612eeb576000612ee28486615d08565b91509150612bdf565b50600390506000612bdf565b600080612f12604051806020016040528086815250846148db565b90506000612f2282600e54614905565b90506000612f3282600e54612e96565b90506000612f536040518060200160405280600b5481525084600f5461491d565b90506000612f746040518060200160405280600a548152508560115461491d565b90506000612f9560405180602001604052806009548152508660105461491d565b90506000612fa887600d54600d5461491d565b600c8d9055600d819055600e869055600f859055601184905560108390556040519091507f4dec04e750ca11537cabcd8a9eab06494de08da3735bc8871cd41250e190bc0490612fff908d90899085908a906159f2565b60405180910390a160009c9b505050505050505050505050565b60008043600c5414613031576119eb600a6039612cc4565b8261303a612be6565b101561304c576119eb600e6038612cc4565b601054831115613062576119eb6002603a612cc4565b61306e60105484614431565b90508060108190555061288f600660009054906101000a90046001600160a01b03166001600160a01b031663f851a4406040518163ffffffff1660e01b8152600401602060405180830381865afa1580156130cd573d6000803e3d6000fd5b505050506040513d601f19601f820116820180604052508101906130f19190615c47565b8461446b565b60065460405163d02f735160e01b815260009182916001600160a01b039091169063d02f7351906131349030908a908a908a908a90600401615d1f565b6020604051808303816000875af1158015613153573d6000803e3d6000fd5b505050506040513d601f19601f820116820180604052508101906131779190615aa5565b9050801561318c576129296003601d83613d53565b846001600160a01b0316846001600160a01b031614156131b2576129296006601e612cc4565b613217604080516101808101909152806000815260200160008152602001600081526020016000815260200160008152602001600081526020016000815260200160008152602001600081526020016000815260200160008152602001600081525090565b6001600160a01b03851660009081526013602052604090205461323a9085612ecc565b602083018190528282600381111561325457613254615af3565b600381111561326557613265615af3565b905250600090508151600381111561327f5761327f615af3565b146132af576132a66009601c836000015160038111156132a1576132a1615af3565b613d53565b925050506116a2565b6132ce846040518060200160405280666379da05b6000081525061493e565b6080820152604080516020810190915267016345785d8a000081526132f490859061493e565b61014082015260808101516133199061330e908690614431565b826101400151614431565b60608201526133266120a3565b60c083018190528282600381111561334057613340615af3565b600381111561335157613351615af3565b905250600090508151600381111561336b5761336b615af3565b146133b35760405162461bcd60e51b815260206004820152601860248201527732bc31b430b733b2903930ba329036b0ba341032b93937b960411b6044820152606401610c16565b6133d360405180602001604052808360c001518152508260800151614905565b60a0820152604080516020810190915260c082015181526101408201516133fa9190614905565b610160820152600f5460a08201516134129190612e96565b60e0820152601254608082015161342c9161330e91614431565b6101208201526011546101608201516134459190612e96565b6101008201526001600160a01b03861660009081526013602052604090205460608201516134739190613ddc565b604083018190528282600381111561348d5761348d615af3565b600381111561349e5761349e615af3565b90525060009050815160038111156134b8576134b8615af3565b146134da576132a66009601b836000015160038111156132a1576132a1615af3565b60e0810151600f556101208101516012556101008101516011556020808201516001600160a01b0387811660008181526013855260408082209490945583860151928b1680825290849020929092556060850151925192835290929091600080516020615e62833981519152910160405180910390a3306001600160a01b0316856001600160a01b0316600080516020615e62833981519152836080015160405161358791815260200190565b60405180910390a360a081015160e08201516040517fa91e67c5ea634cd43a12c5a482724b03de01e85ca68702a53d0c2f45cb7c1dc5926135c9923092615d52565b60405180910390a16000979650505050505050565b6000806135ea81611f60565b60006135f4611a41565b905080156136185761192d81601181111561361157613611615af3565b600a612cc4565b61193e3385614961565b60008061362e81611f60565b6000613638611a41565b905080156136555761192d816011811115612cb157612cb1615af3565b61193e33856000613e88565b600080600061366f81611f60565b6000613679611a41565b905080156136a95761369d81601181111561369657613696615af3565b6011612cc4565b60009350935050613743565b846001600160a01b031663a6afed956040518163ffffffff1660e01b81526004016020604051808303816000875af11580156136e9573d6000803e3d6000fd5b505050506040513d601f19601f8201168201806040525081019061370d9190615aa5565b905080156137315761369d81601181111561372a5761372a615af3565b6012612cc4565b61373d33888888614cf3565b93509350505b61374c81612024565b50935093915050565b600654604051631200453160e11b8152600091829182916001600160a01b0316906324008a62906137909030908a908a908a90600401615cde565b6020604051808303816000875af11580156137af573d6000803e3d6000fd5b505050506040513d601f19601f820116820180604052508101906137d39190615aa5565b905080156137f4576137e86003604383613d53565b60009250925050613b56565b43600c5414613809576137e8600a6044612cc4565b6138526040805161010081019091528060008152602001600081526020016000815260200160008152602001600081526020016000815260200160008152602001600081525090565b6001600160a01b038616600090815260156020526040902060010154606082015261387c86612d24565b608083018190526020830182600381111561389957613899615af3565b60038111156138aa576138aa615af3565b90525060009050816020015160038111156138c7576138c7615af3565b146138f6576138e960096042836020015160038111156132a1576132a1615af3565b6000935093505050613b56565b60001985141561390f5760808101516040820152613917565b604081018590525b61392587826040015161519d565b60e08201819052608082015161393a91612ecc565b60a083018190526020830182600381111561395757613957615af3565b600381111561396857613968615af3565b905250600090508160200151600381111561398557613985615af3565b146139f55760405162461bcd60e51b815260206004820152603a60248201527f52455041595f424f52524f575f4e45575f4143434f554e545f424f52524f575f604482015279109053105390d157d0d05310d55310551253d397d1905253115160321b6064820152608401610c16565b613a05600e548260e00151612ecc565b60c0830181905260208301826003811115613a2257613a22615af3565b6003811115613a3357613a33615af3565b9052506000905081602001516003811115613a5057613a50615af3565b14613ab75760405162461bcd60e51b815260206004820152603160248201527f52455041595f424f52524f575f4e45575f544f54414c5f42414c414e43455f43604482015270105310d55310551253d397d19052531151607a1b6064820152608401610c16565b60a081810180516001600160a01b03898116600081815260156020908152604091829020948555600d5460019095019490945560c0870151600e81905560e088015195518251948f16855294840192909252820193909352606081019190915260808101919091527f1a2a22cb034d26d1854bdc6666a5b91fe25efbbb5dcad3b0355478d6f5c362a1910160405180910390a160e00151600093509150505b935093915050565b600080600080613b6e8787613ddc565b90925090506000826003811115613b8757613b87615af3565b14613b985750915060009050613b56565b613ba28186612ecc565b935093505050935093915050565b6000613bba61547e565b600080613bcf86670de0b6b3a76400006143c7565b90925090506000826003811115613be857613be8615af3565b14613c0757506040805160208101909152600081529092509050612bdf565b600080613c148388614406565b90925090506000826003811115613c2d57613c2d615af3565b14613c505781604051806020016040528060008152509550955050505050612bdf565b604080516020810190915290815260009890975095505050505050565b6060600080856001600160a01b031685604051613c8a9190615d73565b6000604051808303816000865af19150503d8060008114613cc7576040519150601f19603f3d011682016040523d82523d6000602084013e613ccc565b606091505b509150915081613d0057805115613ce65780518082602001fd5b8360405162461bcd60e51b8152600401610c1691906156ed565b95945050505050565b6001546040805163dd86fea160e01b815290516000926001600160a01b03169163dd86fea19160048083019260209291908290030181865afa158015611ce5573d6000803e3d6000fd5b6000600080516020615e42833981519152846011811115613d7657613d76615af3565b846063811115613d8857613d88615af3565b84604051613d9893929190615c64565b60405180910390a16003846011811115613db457613db4615af3565b14613dd057836011811115613dcb57613dcb615af3565b6116a2565b6116a2826103e8615c90565b600080838301848110613df457600092509050612bdf565b600260009250925050612bdf565b6000613e0c61547e565b600080613e1d8660000151866143c7565b90925090506000826003811115613e3657613e36615af3565b14613e5557506040805160208101909152600081529092509050612bdf565b60408051602081019091529081526000969095509350505050565b8051600090610bc990670de0b6b3a764000090615d8f565b6000821580613e95575081155b613efe5760405162461bcd60e51b815260206004820152603460248201527f6f6e65206f662072656465656d546f6b656e73496e206f722072656465656d416044820152736d6f756e74496e206d757374206265207a65726f60601b6064820152608401610c16565b613f06615491565b613f0e6120a3565b6040830181905260208301826003811115613f2b57613f2b615af3565b6003811115613f3c57613f3c615af3565b9052506000905081602001516003811115613f5957613f59615af3565b14613f8357613f7b6009602e836020015160038111156132a1576132a1615af3565b9150506119eb565b831561401c576060810184905260408051602081018252908201518152613faa9085612b93565b6080830181905260208301826003811115613fc757613fc7615af3565b6003811115613fd857613fd8615af3565b9052506000905081602001516003811115613ff557613ff5615af3565b1461401757613f7b6009602c836020015160038111156132a1576132a1615af3565b6140ad565b6140388360405180602001604052808460400151815250615253565b606083018190526020830182600381111561405557614055615af3565b600381111561406657614066615af3565b905250600090508160200151600381111561408357614083615af3565b146140a557613f7b6009602d836020015160038111156132a1576132a1615af3565b608081018390525b600654606082015160405163eabe7d9160e01b81526000926001600160a01b03169163eabe7d91916140e69130918b9190600401615db1565b6020604051808303816000875af1158015614105573d6000803e3d6000fd5b505050506040513d601f19601f820116820180604052508101906141299190615aa5565b905080156141475761413e6003602b83613d53565b925050506119eb565b43600c541461415c5761413e600a602f612cc4565b61416c6012548360600151612ecc565b60a084018190526020840182600381111561418957614189615af3565b600381111561419a5761419a615af3565b90525060009050826020015160038111156141b7576141b7615af3565b146141d95761413e60096031846020015160038111156132a1576132a1615af3565b6001600160a01b03861660009081526013602052604090205460608301516142019190612ecc565b60c084018190526020840182600381111561421e5761421e615af3565b600381111561422f5761422f615af3565b905250600090508260200151600381111561424c5761424c615af3565b1461426e5761413e60096030846020015160038111156132a1576132a1615af3565b816080015161427b612be6565b101561428d5761413e600e6032612cc4565b60a082015160125560c08201516001600160a01b03871660009081526013602052604090205560808201516142c390879061446b565b306001600160a01b0316866001600160a01b0316600080516020615e6283398151915284606001516040516142fa91815260200190565b60405180910390a3608082015160608301516040517fe5b754fb1abb7f01b499791d0b820ae3b6af3424ac1c59768edb53f4ec31a9299261433c928a92615d52565b60405180910390a1600654608083015160608401516040516351dff98960e01b81526001600160a01b03909316926351dff989926143829230928c929190600401615dd5565b600060405180830381600087803b15801561439c57600080fd5b505af11580156143b0573d6000803e3d6000fd5b50600092506143bd915050565b9695505050505050565b600080836143da57506000905080612bdf565b838302836143e88683615d8f565b146143fb57600260009250925050612bdf565b600092509050612bdf565b6000808261441a5750600190506000612bdf565b60006144268486615d8f565b915091509250929050565b60006119eb8383604051806040016040528060158152602001747375627472616374696f6e20756e646572666c6f7760581b815250615263565b601754604051632d182be560e21b81526001600160a01b039091169063b460af949061449f90849086903090600401615b70565b6020604051808303816000875af11580156144be573d6000803e3d6000fd5b505050506040513d601f19601f8201168201806040525081019061122a9190615aa5565b600654604051634ef4c3e160e01b8152600091829182916001600160a01b031690634ef4c3e19061451b90309089908990600401615db1565b6020604051808303816000875af115801561453a573d6000803e3d6000fd5b505050506040513d601f19601f8201168201806040525081019061455e9190615aa5565b9050801561457f576145736003602183613d53565b60009250925050612bdf565b43600c541461459457614573600a6024612cc4565b61459c615491565b6145a46120a3565b60408301819052602083018260038111156145c1576145c1615af3565b60038111156145d2576145d2615af3565b90525060009050816020015160038111156145ef576145ef615af3565b1461461e5761461160096023836020015160038111156132a1576132a1615af3565b6000935093505050612bdf565b614628868661519d565b60c08201819052604080516020810182529083015181526146499190615253565b606083018190526020830182600381111561466657614666615af3565b600381111561467757614677615af3565b905250600090508160200151600381111561469457614694615af3565b146146e15760405162461bcd60e51b815260206004820181905260248201527f4d494e545f45584348414e47455f43414c43554c4154494f4e5f4641494c45446044820152606401610c16565b60008160600151116147325760405162461bcd60e51b815260206004820152601a6024820152791352539517d6915493d7d0d513d2d15394d7d491529150d5115160321b6044820152606401610c16565b6147426012548260600151612e96565b60808201526001600160a01b038616600090815260136020526040902054606082015161476f9190612e96565b60a0820181905260808201516012556001600160a01b038716600090815260136020526040908190209190915560c0820151606083015191517f4c209b5fc8ad50758f13e2e1088ba56a560dff690a1c6fef26394f4c03821c4f926147d8928a92909190615d52565b60405180910390a1856001600160a01b0316306001600160a01b0316600080516020615e62833981519152836060015160405161481791815260200190565b60405180910390a360065460c082015160608301516040516341c728b960e01b81526001600160a01b03909316926341c728b99261485d9230928c929190600401615dd5565b600060405180830381600087803b15801561487757600080fd5b505af115801561488b573d6000803e3d6000fd5b5060009250614898915050565b8160c001519350935050509250929050565b6000806148b78486615c90565b9050828582101561158a5760405162461bcd60e51b8152600401610c1691906156ed565b6148e361547e565b60405180602001604052806148fc856000015185615292565b90529392505050565b60008061491284846148db565b90506116a281613e70565b60008061492a85856148db565b9050613d0061493882613e70565b84612e96565b6000670de0b6b3a7640000614957848460000151615292565b6119eb9190615d8f565b60065460405163368f515360e21b815260009182916001600160a01b039091169063da3d454c9061499a90309088908890600401615db1565b6020604051808303816000875af11580156149b9573d6000803e3d6000fd5b505050506040513d601f19601f820116820180604052508101906149dd9190615aa5565b905080156149fa576149f26003601083613d53565b915050610bc9565b43600c5414614a0f576149f2600a600c612cc4565b6000614a19612be6565b905083811015614a3857614a2f600e600b612cc4565b92505050610bc9565b614a64604080516080810190915280600081526020016000815260200160008152602001600081525090565b614a6d86612d24565b6020830181905282826003811115614a8757614a87615af3565b6003811115614a9857614a98615af3565b9052506000905081516003811115614ab257614ab2615af3565b14614add57614ad3600980836000015160038111156132a1576132a1615af3565b9350505050610bc9565b614aeb816020015186613ddc565b6040830181905282826003811115614b0557614b05615af3565b6003811115614b1657614b16615af3565b9052506000905081516003811115614b3057614b30615af3565b14614b5257614ad36009600e836000015160038111156132a1576132a1615af3565b6006546040808301519051631de6c8a560e21b81526001600160a01b039092169163779b229491614b8891309190600401615b8f565b6020604051808303816000875af1158015614ba7573d6000803e3d6000fd5b505050506040513d601f19601f82011682018060405250810190614bcb9190615aa5565b92508215614be057614ad36003601085613d53565b614bec600e5486613ddc565b6060830181905282826003811115614c0657614c06615af3565b6003811115614c1757614c17615af3565b9052506000905081516003811115614c3157614c31615af3565b14614c5357614ad36009600d836000015160038111156132a1576132a1615af3565b6040808201516001600160a01b0388166000908152601560205291909120908155600d546001909101556060810151600e55614c8f868661446b565b60408082015160608084015183516001600160a01b038b168152602081018a9052938401929092528201527f13ed6866d4e1ee6da46f845c46d7e54120883d75c5ea9a2dacc1c4ca8984ab809060800160405180910390a160009695505050505050565b600654604051632fe3f38f60e11b8152600091829182916001600160a01b031690635fc7e71e90614d3090309088908c908c908c90600401615d1f565b6020604051808303816000875af1158015614d4f573d6000803e3d6000fd5b505050506040513d601f19601f82011682018060405250810190614d739190615aa5565b90508015614d9457614d886003601483613d53565b60009250925050615194565b43600c5414614da957614d88600a6018612cc4565b43846001600160a01b0316636c540baf6040518163ffffffff1660e01b8152600401602060405180830381865afa158015614de8573d6000803e3d6000fd5b505050506040513d601f19601f82011682018060405250810190614e0c9190615aa5565b14614e1d57614d88600a6013612cc4565b866001600160a01b0316866001600160a01b03161415614e4357614d8860066019612cc4565b84614e5457614d8860076017612cc4565b600019851415614e6a57614d8860076016612cc4565b600080614e78898989613755565b90925090508115614ead57614e9f826011811115614e9857614e98615af3565b601a612cc4565b600094509450505050615194565b60065460405163c488847b60e01b815260009182916001600160a01b039091169063c488847b90614ee69030908c908890600401615db1565b6040805180830381865afa158015614f02573d6000803e3d6000fd5b505050506040513d601f19601f82011682018060405250810190614f269190615dfe565b90925090508115614f955760405162461bcd60e51b815260206004820152603360248201527f4c49515549444154455f434f4d5054524f4c4c45525f43414c43554c4154455f604482015272105353d5539517d4d152569157d19052531151606a1b6064820152608401610c16565b6040516370a0823160e01b815281906001600160a01b038a16906370a0823190614fc3908e90600401615745565b602060405180830381865afa158015614fe0573d6000803e3d6000fd5b505050506040513d601f19601f820116820180604052508101906150049190615aa5565b101561504d5760405162461bcd60e51b815260206004820152601860248201527709892a2aa928882a88abea68a92b48abea89e9ebe9aaa86960431b6044820152606401610c16565b60006001600160a01b0389163014156150735761506c308d8d856130f7565b90506150e9565b60405163b2a02ff160e01b81526001600160a01b038a169063b2a02ff1906150a3908f908f908790600401615db1565b6020604051808303816000875af11580156150c2573d6000803e3d6000fd5b505050506040513d601f19601f820116820180604052508101906150e69190615aa5565b90505b801561512e5760405162461bcd60e51b81526020600482015260146024820152731d1bdad95b881cd95a5e9d5c994819985a5b195960621b6044820152606401610c16565b604080516001600160a01b038e811682528d811660208301528183018790528b1660608201526080810184905290517f298637f684da70674f26509b10f07ec2fbc77a335ab1e7d6215a4b2484d8bb529181900360a00190a16000975092955050505050505b94509492505050565b6016546040516323b872dd60e01b81526000916001600160a01b0316906323b872dd906151d290869030908790600401615db1565b6020604051808303816000875af11580156151f1573d6000803e3d6000fd5b505050506040513d601f19601f820116820180604052508101906152159190615b53565b61524a5760405162461bcd60e51b8152600401610c16906020808252600490820152631cd95b9960e21b604082015260600190565b610c34826122cd565b600080600080612ba386866152ce565b600081848411156152875760405162461bcd60e51b8152600401610c1691906156ed565b506116a28385615d08565b60006119eb8383604051806040016040528060178152602001766d756c7469706c69636174696f6e206f766572666c6f7760481b815250615333565b60006152d861547e565b6000806152ed670de0b6b3a7640000876143c7565b9092509050600082600381111561530657615306615af3565b1461532557506040805160208101909152600081529092509050612bdf565b612bd8818660000151613bb0565b6000831580615340575082155b1561534d575060006119eb565b60006153598486615e22565b9050836153668683615d8f565b14839061158a5760405162461bcd60e51b8152600401610c1691906156ed565b82805461539290615abe565b90600052602060002090601f0160209004810192826153b457600085556153fa565b82601f106153cd57805160ff19168380011785556153fa565b828001600101855582156153fa579182015b828111156153fa5782518255916020019190600101906153df565b506154069291506154cf565b5090565b82805461541690615abe565b90600052602060002090601f01602090048101928261543857600085556153fa565b82601f106154515782800160ff198235161785556153fa565b828001600101855582156153fa579182015b828111156153fa578235825591602001919060010190615463565b6040518060200160405280600081525090565b6040805160e0810190915280600081526020016000815260200160008152602001600081526020016000815260200160008152602001600081525090565b5b8082111561540657600081556001016154d0565b6001600160a01b03811681146120a057600080fd5b8035615504816154e4565b919050565b634e487b7160e01b600052604160045260246000fd5b604051601f8201601f191681016001600160401b038111828210171561554757615547615509565b604052919050565b60006001600160401b0382111561556857615568615509565b50601f01601f191660200190565b60006155896155848461554f565b61551f565b905082815283838301111561559d57600080fd5b828260208301376000602084830101529392505050565b600082601f8301126155c557600080fd5b6119eb83833560208501615576565b600080600080600080600080610100898b0312156155f157600080fd5b88356155fc816154e4565b9750602089013561560c816154e4565b9650604089013561561c816154e4565b9550606089013561562c816154e4565b945060808901356001600160401b038082111561564857600080fd5b6156548c838d016155b4565b955060a08b013591508082111561566a57600080fd5b506156778b828c016155b4565b93505060c0890135915060e089013590509295985092959890939650565b60005b838110156156b0578181015183820152602001615698565b8381111561174c5750506000910152565b600081518084526156d9816020860160208601615695565b601f01601f19169290920160200192915050565b6020815260006119eb60208301846156c1565b6000806040838503121561571357600080fd5b823561571e816154e4565b946020939093013593505050565b60006020828403121561573e57600080fd5b5035919050565b6001600160a01b0391909116815260200190565b60006020828403121561576b57600080fd5b81356119eb816154e4565b60ff811681146120a057600080fd5b803561550481615776565b60008060008060008060008060006101208a8c0312156157af57600080fd5b89356157ba816154e4565b985060208a01356157ca816154e4565b97506157d860408b016154f9565b965060608a0135955060808a01356001600160401b03808211156157fb57600080fd5b6158078d838e016155b4565b965060a08c013591508082111561581d57600080fd5b5061582a8c828d016155b4565b94505061583960c08b01615785565b925060e08a013591506101008a013590509295985092959850929598565b60008060006060848603121561586c57600080fd5b8335615877816154e4565b92506020840135615887816154e4565b929592945050506040919091013590565b60008083601f8401126158aa57600080fd5b5081356001600160401b038111156158c157600080fd5b602083019150836020828501011115612bdf57600080fd5b600080600080604085870312156158ef57600080fd5b84356001600160401b038082111561590657600080fd5b61591288838901615898565b9096509450602087013591508082111561592b57600080fd5b5061593887828801615898565b95989497509550505050565b80151581146120a057600080fd5b6000806000806060858703121561596857600080fd5b8435615973816154e4565b9350602085013561598381615944565b925060408501356001600160401b0381111561599e57600080fd5b61593887828801615898565b6000602082840312156159bc57600080fd5b81356001600160401b038111156159d257600080fd5b8201601f810184136159e357600080fd5b6116a284823560208401615576565b93845260208401929092526040830152606082015260800190565b60008060408385031215615a2057600080fd5b8235615a2b816154e4565b91506020830135615a3b816154e4565b809150509250929050565b600080600060608486031215615a5b57600080fd5b8335615a66816154e4565b9250602084013591506040840135615a7d816154e4565b809150509250925092565b600060208284031215615a9a57600080fd5b81516119eb81615776565b600060208284031215615ab757600080fd5b5051919050565b600181811c90821680615ad257607f821691505b60208210811415610c3457634e487b7160e01b600052602260045260246000fd5b634e487b7160e01b600052602160045260246000fd5b6020808252601690820152751858d8dc9d59481a5b9d195c995cdd0819985a5b195960521b604082015260600190565b6001600160a01b0392831681529116602082015260400190565b600060208284031215615b6557600080fd5b81516119eb81615944565b9283526001600160a01b03918216602084015216604082015260600190565b6001600160a01b03929092168252602082015260400190565b600080600060608486031215615bbd57600080fd5b8351615bc8816154e4565b6020850151909350615bd981615944565b60408501519092506001600160401b03811115615bf557600080fd5b8401601f81018613615c0657600080fd5b8051615c146155848261554f565b818152876020838501011115615c2957600080fd5b615c3a826020830160208601615695565b8093505050509250925092565b600060208284031215615c5957600080fd5b81516119eb816154e4565b9283526020830191909152604082015260600190565b634e487b7160e01b600052601160045260246000fd5b60008219821115615ca357615ca3615c7a565b500190565b6020808252601c908201527b6d61726b6572206d6574686f642072657475726e65642066616c736560201b604082015260600190565b6001600160a01b039485168152928416602084015292166040820152606081019190915260800190565b600082821015615d1a57615d1a615c7a565b500390565b6001600160a01b039586168152938516602085015291841660408401529092166060820152608081019190915260a00190565b6001600160a01b039390931683526020830191909152604082015260600190565b60008251615d85818460208701615695565b9190910192915050565b600082615dac57634e487b7160e01b600052601260045260246000fd5b500490565b6001600160a01b039384168152919092166020820152604081019190915260600190565b6001600160a01b0394851681529290931660208301526040820152606081019190915260800190565b60008060408385031215615e1157600080fd5b505080516020909101519092909150565b6000816000190483118215151615615e3c57615e3c615c7a565b50029056fe45b96fe442630264581b197e84bbada861235052c5a1aadfff9ea4e40a969aa0ddf252ad1be2c89b69c2b068fc378daa952ba7f163c4a11628f55a4df523b3efa164736f6c634300080a000a",
    "linkReferences": {}
  },
  "methodIdentifiers": {
    "PRECISION()": "aaf5eb68",
    "_becomeImplementation(bytes)": "56e67728",
    "_prepare()": "1db78944",
    "_setAdminFee(uint256)": "91dd36c6",
    "_setImplementationSafe(address,bool,bytes)": "50d85b73",
    "_setInterestRateModel(address)": "f2b3abbd",
    "_setNameAndSymbol(string,string)": "34154d4c",
    "_setReserveFactor(uint256)": "fca7820b",
    "_updatePlugin(address)": "19f496c8",
    "_withdrawAdminFees(uint256)": "a7b820df",
    "_withdrawFuseFees(uint256)": "a03dce8d",
    "accrualBlockNumber()": "6c540baf",
    "accrueInterest()": "a6afed95",
    "adminFeeMantissa()": "8d02d9a1",
    "allowance(address,address)": "dd62ed3e",
    "approve(address,uint256)": "095ea7b3",
    "balanceOf(address)": "70a08231",
    "balanceOfUnderlying(address)": "3af9e669",
    "borrow(uint256)": "c5ebeaec",
    "borrowBalanceCurrent(address)": "17bfdfbc",
    "borrowBalanceStored(address)": "95dd9193",
    "borrowIndex()": "aa5af0fd",
    "borrowRatePerBlock()": "f8f9da28",
    "comptroller()": "5fe3b567",
    "decimals()": "313ce567",
    "exchangeRateCurrent()": "bd6d894d",
    "exchangeRateStored()": "182df0f5",
    "feeSeizeShareMantissa()": "be99f119",
    "fuseAdmin()": "15761d51",
    "fuseFeeMantissa()": "dbfe7c19",
    "getAccountSnapshot(address)": "c37f68e2",
    "getCash()": "3b1d21a2",
    "implementation()": "5c60da1b",
    "initialize(address,address,address,address,string,string,uint256,uint256)": "06db3ecd",
    "initialize(address,address,address,uint256,string,string,uint8,uint256,uint256)": "219ef65c",
    "interestRateModel()": "f3fdb15a",
    "isCEther()": "ac784ddc",
    "isCToken()": "fe9c44ae",
    "liquidateBorrow(address,uint256,address)": "f5e3c462",
    "mint(uint256)": "a0712d68",
    "name()": "06fdde03",
    "plugin()": "ef01df4f",
    "protocolSeizeShareMantissa()": "6752e702",
    "redeem(uint256)": "db006a75",
    "redeemUnderlying(uint256)": "852a12e3",
    "repayBorrow(uint256)": "0e752702",
    "repayBorrowBehalf(address,uint256)": "2608f818",
    "reserveFactorMantissa()": "173b9904",
    "seize(address,address,uint256)": "b2a02ff1",
    "supplyRatePerBlock()": "ae9d70b0",
    "symbol()": "95d89b41",
    "totalAdminFees()": "61feacff",
    "totalBorrows()": "47bd3718",
    "totalBorrowsCurrent()": "73acee98",
    "totalFuseFees()": "dc028ab1",
    "totalReserves()": "8f840ddd",
    "totalSupply()": "18160ddd",
    "transfer(address,uint256)": "a9059cbb",
    "transferFrom(address,address,uint256)": "23b872dd",
    "underlying()": "6f307dc3"
  }
}