{
  "address": "0xAC6701b5d395B95dc0A375c9BCd8AaA06ABB8e84",
  "abi": [
    {
      "inputs": [
        {
          "internalType": "bytes4",
          "name": "_functionSelector",
          "type": "bytes4"
        }
      ],
      "name": "ExtensionNotFound",
      "type": "error"
    },
    {
      "inputs": [
        {
          "internalType": "bytes4",
          "name": "_functionSelector",
          "type": "bytes4"
        },
        {
          "internalType": "address",
          "name": "_currentImpl",
          "type": "address"
        }
      ],
      "name": "FunctionAlreadyAdded",
      "type": "error"
    },
    {
      "inputs": [
        {
          "internalType": "bytes4",
          "name": "_functionSelector",
          "type": "bytes4"
        }
      ],
      "name": "FunctionNotFound",
      "type": "error"
    },
    {
      "anonymous": false,
      "inputs": [
        {
          "indexed": false,
          "internalType": "uint256",
          "name": "cashPrior",
          "type": "uint256"
        },
        {
          "indexed": false,
          "internalType": "uint256",
          "name": "interestAccumulated",
          "type": "uint256"
        },
        {
          "indexed": false,
          "internalType": "uint256",
          "name": "borrowIndex",
          "type": "uint256"
        },
        {
          "indexed": false,
          "internalType": "uint256",
          "name": "totalBorrows",
          "type": "uint256"
        }
      ],
      "name": "AccrueInterest",
      "type": "event"
    },
    {
      "anonymous": false,
      "inputs": [
        {
          "indexed": true,
          "internalType": "address",
          "name": "owner",
          "type": "address"
        },
        {
          "indexed": true,
          "internalType": "address",
          "name": "spender",
          "type": "address"
        },
        {
          "indexed": false,
          "internalType": "uint256",
          "name": "amount",
          "type": "uint256"
        }
      ],
      "name": "Approval",
      "type": "event"
    },
    {
      "anonymous": false,
      "inputs": [
        {
          "indexed": false,
          "internalType": "address",
          "name": "borrower",
          "type": "address"
        },
        {
          "indexed": false,
          "internalType": "uint256",
          "name": "borrowAmount",
          "type": "uint256"
        },
        {
          "indexed": false,
          "internalType": "uint256",
          "name": "accountBorrows",
          "type": "uint256"
        },
        {
          "indexed": false,
          "internalType": "uint256",
          "name": "totalBorrows",
          "type": "uint256"
        }
      ],
      "name": "Borrow",
      "type": "event"
    },
    {
      "anonymous": false,
      "inputs": [
        {
          "indexed": false,
          "internalType": "uint256",
          "name": "error",
          "type": "uint256"
        },
        {
          "indexed": false,
          "internalType": "uint256",
          "name": "info",
          "type": "uint256"
        },
        {
          "indexed": false,
          "internalType": "uint256",
          "name": "detail",
          "type": "uint256"
        }
      ],
      "name": "Failure",
      "type": "event"
    },
    {
      "anonymous": false,
      "inputs": [
        {
          "indexed": false,
          "internalType": "address",
          "name": "liquidator",
          "type": "address"
        },
        {
          "indexed": false,
          "internalType": "address",
          "name": "borrower",
          "type": "address"
        },
        {
          "indexed": false,
          "internalType": "uint256",
          "name": "repayAmount",
          "type": "uint256"
        },
        {
          "indexed": false,
          "internalType": "address",
          "name": "cTokenCollateral",
          "type": "address"
        },
        {
          "indexed": false,
          "internalType": "uint256",
          "name": "seizeTokens",
          "type": "uint256"
        }
      ],
      "name": "LiquidateBorrow",
      "type": "event"
    },
    {
      "anonymous": false,
      "inputs": [
        {
          "indexed": false,
          "internalType": "address",
          "name": "minter",
          "type": "address"
        },
        {
          "indexed": false,
          "internalType": "uint256",
          "name": "mintAmount",
          "type": "uint256"
        },
        {
          "indexed": false,
          "internalType": "uint256",
          "name": "mintTokens",
          "type": "uint256"
        }
      ],
      "name": "Mint",
      "type": "event"
    },
    {
      "anonymous": false,
      "inputs": [
        {
          "indexed": false,
          "internalType": "uint256",
          "name": "oldAdminFeeMantissa",
          "type": "uint256"
        },
        {
          "indexed": false,
          "internalType": "uint256",
          "name": "newAdminFeeMantissa",
          "type": "uint256"
        }
      ],
      "name": "NewAdminFee",
      "type": "event"
    },
    {
      "anonymous": false,
      "inputs": [
        {
          "indexed": false,
          "internalType": "uint256",
          "name": "oldFuseFeeMantissa",
          "type": "uint256"
        },
        {
          "indexed": false,
          "internalType": "uint256",
          "name": "newFuseFeeMantissa",
          "type": "uint256"
        }
      ],
      "name": "NewFuseFee",
      "type": "event"
    },
    {
      "anonymous": false,
      "inputs": [
        {
          "indexed": false,
          "internalType": "address",
          "name": "oldImplementation",
          "type": "address"
        },
        {
          "indexed": false,
          "internalType": "address",
          "name": "newImplementation",
          "type": "address"
        }
      ],
      "name": "NewImplementation",
      "type": "event"
    },
    {
      "anonymous": false,
      "inputs": [
        {
          "indexed": false,
          "internalType": "contract InterestRateModel",
          "name": "oldInterestRateModel",
          "type": "address"
        },
        {
          "indexed": false,
          "internalType": "contract InterestRateModel",
          "name": "newInterestRateModel",
          "type": "address"
        }
      ],
      "name": "NewMarketInterestRateModel",
      "type": "event"
    },
    {
      "anonymous": false,
      "inputs": [
        {
          "indexed": false,
          "internalType": "address",
          "name": "oldImpl",
          "type": "address"
        },
        {
          "indexed": false,
          "internalType": "address",
          "name": "newImpl",
          "type": "address"
        }
      ],
      "name": "NewPluginImplementation",
      "type": "event"
    },
    {
      "anonymous": false,
      "inputs": [
        {
          "indexed": false,
          "internalType": "uint256",
          "name": "oldReserveFactorMantissa",
          "type": "uint256"
        },
        {
          "indexed": false,
          "internalType": "uint256",
          "name": "newReserveFactorMantissa",
          "type": "uint256"
        }
      ],
      "name": "NewReserveFactor",
      "type": "event"
    },
    {
      "anonymous": false,
      "inputs": [
        {
          "indexed": false,
          "internalType": "address",
          "name": "redeemer",
          "type": "address"
        },
        {
          "indexed": false,
          "internalType": "uint256",
          "name": "redeemAmount",
          "type": "uint256"
        },
        {
          "indexed": false,
          "internalType": "uint256",
          "name": "redeemTokens",
          "type": "uint256"
        }
      ],
      "name": "Redeem",
      "type": "event"
    },
    {
      "anonymous": false,
      "inputs": [
        {
          "indexed": false,
          "internalType": "address",
          "name": "payer",
          "type": "address"
        },
        {
          "indexed": false,
          "internalType": "address",
          "name": "borrower",
          "type": "address"
        },
        {
          "indexed": false,
          "internalType": "uint256",
          "name": "repayAmount",
          "type": "uint256"
        },
        {
          "indexed": false,
          "internalType": "uint256",
          "name": "accountBorrows",
          "type": "uint256"
        },
        {
          "indexed": false,
          "internalType": "uint256",
          "name": "totalBorrows",
          "type": "uint256"
        }
      ],
      "name": "RepayBorrow",
      "type": "event"
    },
    {
      "anonymous": false,
      "inputs": [
        {
          "indexed": false,
          "internalType": "address",
          "name": "benefactor",
          "type": "address"
        },
        {
          "indexed": false,
          "internalType": "uint256",
          "name": "addAmount",
          "type": "uint256"
        },
        {
          "indexed": false,
          "internalType": "uint256",
          "name": "newTotalReserves",
          "type": "uint256"
        }
      ],
      "name": "ReservesAdded",
      "type": "event"
    },
    {
      "anonymous": false,
      "inputs": [
        {
          "indexed": false,
          "internalType": "address",
          "name": "admin",
          "type": "address"
        },
        {
          "indexed": false,
          "internalType": "uint256",
          "name": "reduceAmount",
          "type": "uint256"
        },
        {
          "indexed": false,
          "internalType": "uint256",
          "name": "newTotalReserves",
          "type": "uint256"
        }
      ],
      "name": "ReservesReduced",
      "type": "event"
    },
    {
      "anonymous": false,
      "inputs": [
        {
          "indexed": true,
          "internalType": "address",
          "name": "from",
          "type": "address"
        },
        {
          "indexed": true,
          "internalType": "address",
          "name": "to",
          "type": "address"
        },
        {
          "indexed": false,
          "internalType": "uint256",
          "name": "amount",
          "type": "uint256"
        }
      ],
      "name": "Transfer",
      "type": "event"
    },
    {
      "stateMutability": "nonpayable",
      "type": "fallback"
    },
    {
      "inputs": [
        {
          "internalType": "bytes",
          "name": "data",
          "type": "bytes"
        }
      ],
      "name": "_becomeImplementation",
      "outputs": [],
      "stateMutability": "nonpayable",
      "type": "function"
    },
    {
      "inputs": [],
      "name": "_listExtensions",
      "outputs": [
        {
          "internalType": "address[]",
          "name": "",
          "type": "address[]"
        }
      ],
      "stateMutability": "view",
      "type": "function"
    },
    {
      "inputs": [],
      "name": "_prepare",
      "outputs": [],
      "stateMutability": "payable",
      "type": "function"
    },
    {
      "inputs": [
        {
          "internalType": "contract DiamondExtension",
          "name": "extensionToAdd",
          "type": "address"
        },
        {
          "internalType": "contract DiamondExtension",
          "name": "extensionToReplace",
          "type": "address"
        }
      ],
      "name": "_registerExtension",
      "outputs": [],
      "stateMutability": "nonpayable",
      "type": "function"
    },
    {
      "inputs": [
        {
          "internalType": "address",
          "name": "implementation_",
          "type": "address"
        },
        {
          "internalType": "bool",
          "name": "allowResign",
          "type": "bool"
        },
        {
          "internalType": "bytes",
          "name": "becomeImplementationData",
          "type": "bytes"
        }
      ],
      "name": "_setImplementationSafe",
      "outputs": [],
      "stateMutability": "nonpayable",
      "type": "function"
    },
    {
      "inputs": [
        {
          "internalType": "address",
          "name": "_plugin",
          "type": "address"
        }
      ],
      "name": "_updatePlugin",
      "outputs": [],
      "stateMutability": "nonpayable",
      "type": "function"
    },
    {
      "inputs": [
        {
          "internalType": "uint256",
          "name": "withdrawAmount",
          "type": "uint256"
        }
      ],
      "name": "_withdrawAdminFees",
      "outputs": [
        {
          "internalType": "uint256",
          "name": "",
          "type": "uint256"
        }
      ],
      "stateMutability": "nonpayable",
      "type": "function"
    },
    {
      "inputs": [
        {
          "internalType": "uint256",
          "name": "withdrawAmount",
          "type": "uint256"
        }
      ],
      "name": "_withdrawFuseFees",
      "outputs": [
        {
          "internalType": "uint256",
          "name": "",
          "type": "uint256"
        }
      ],
      "stateMutability": "nonpayable",
      "type": "function"
    },
    {
      "inputs": [],
      "name": "accrualBlockNumber",
      "outputs": [
        {
          "internalType": "uint256",
          "name": "",
          "type": "uint256"
        }
      ],
      "stateMutability": "view",
      "type": "function"
    },
    {
      "inputs": [],
      "name": "adminFeeMantissa",
      "outputs": [
        {
          "internalType": "uint256",
          "name": "",
          "type": "uint256"
        }
      ],
      "stateMutability": "view",
      "type": "function"
    },
    {
      "inputs": [],
      "name": "asCTokenExtensionInterface",
      "outputs": [
        {
          "internalType": "contract CTokenExtensionInterface",
          "name": "",
          "type": "address"
        }
      ],
      "stateMutability": "view",
      "type": "function"
    },
    {
      "inputs": [
        {
          "internalType": "uint256",
          "name": "borrowAmount",
          "type": "uint256"
        }
      ],
      "name": "borrow",
      "outputs": [
        {
          "internalType": "uint256",
          "name": "",
          "type": "uint256"
        }
      ],
      "stateMutability": "nonpayable",
      "type": "function"
    },
    {
      "inputs": [
        {
          "internalType": "address",
          "name": "account",
          "type": "address"
        }
      ],
      "name": "borrowBalanceCurrent",
      "outputs": [
        {
          "internalType": "uint256",
          "name": "",
          "type": "uint256"
        }
      ],
      "stateMutability": "nonpayable",
      "type": "function"
    },
    {
      "inputs": [
        {
          "internalType": "address",
          "name": "account",
          "type": "address"
        }
      ],
      "name": "borrowBalanceStored",
      "outputs": [
        {
          "internalType": "uint256",
          "name": "",
          "type": "uint256"
        }
      ],
      "stateMutability": "view",
      "type": "function"
    },
    {
      "inputs": [],
      "name": "borrowIndex",
      "outputs": [
        {
          "internalType": "uint256",
          "name": "",
          "type": "uint256"
        }
      ],
      "stateMutability": "view",
      "type": "function"
    },
    {
      "inputs": [],
      "name": "comptroller",
      "outputs": [
        {
          "internalType": "contract ComptrollerInterface",
          "name": "",
          "type": "address"
        }
      ],
      "stateMutability": "view",
      "type": "function"
    },
    {
      "inputs": [],
      "name": "contractType",
      "outputs": [
        {
          "internalType": "string",
          "name": "",
          "type": "string"
        }
      ],
      "stateMutability": "pure",
      "type": "function"
    },
    {
      "inputs": [],
      "name": "decimals",
      "outputs": [
        {
          "internalType": "uint8",
          "name": "",
          "type": "uint8"
        }
      ],
      "stateMutability": "view",
      "type": "function"
    },
    {
      "inputs": [],
      "name": "feeSeizeShareMantissa",
      "outputs": [
        {
          "internalType": "uint256",
          "name": "",
          "type": "uint256"
        }
      ],
      "stateMutability": "view",
      "type": "function"
    },
    {
      "inputs": [],
      "name": "forceRedeemAgEurUsers",
      "outputs": [],
      "stateMutability": "nonpayable",
      "type": "function"
    },
    {
      "inputs": [],
      "name": "fuseAdmin",
      "outputs": [
        {
          "internalType": "address payable",
          "name": "",
          "type": "address"
        }
      ],
      "stateMutability": "view",
      "type": "function"
    },
    {
      "inputs": [],
      "name": "fuseFeeMantissa",
      "outputs": [
        {
          "internalType": "uint256",
          "name": "",
          "type": "uint256"
        }
      ],
      "stateMutability": "view",
      "type": "function"
    },
    {
      "inputs": [
        {
          "internalType": "address",
          "name": "account",
          "type": "address"
        }
      ],
      "name": "getAccountSnapshot",
      "outputs": [
        {
          "internalType": "uint256",
          "name": "",
          "type": "uint256"
        },
        {
          "internalType": "uint256",
          "name": "",
          "type": "uint256"
        },
        {
          "internalType": "uint256",
          "name": "",
          "type": "uint256"
        },
        {
          "internalType": "uint256",
          "name": "",
          "type": "uint256"
        }
      ],
      "stateMutability": "view",
      "type": "function"
    },
    {
      "inputs": [],
      "name": "getCash",
      "outputs": [
        {
          "internalType": "uint256",
          "name": "",
          "type": "uint256"
        }
      ],
      "stateMutability": "view",
      "type": "function"
    },
    {
      "inputs": [],
      "name": "implementation",
      "outputs": [
        {
          "internalType": "address",
          "name": "",
          "type": "address"
        }
      ],
      "stateMutability": "view",
      "type": "function"
    },
    {
      "inputs": [
        {
          "internalType": "address",
          "name": "underlying_",
          "type": "address"
        },
        {
          "internalType": "contract ComptrollerInterface",
          "name": "comptroller_",
          "type": "address"
        },
        {
          "internalType": "address payable",
          "name": "fuseAdmin_",
          "type": "address"
        },
        {
          "internalType": "contract InterestRateModel",
          "name": "interestRateModel_",
          "type": "address"
        },
        {
          "internalType": "string",
          "name": "name_",
          "type": "string"
        },
        {
          "internalType": "string",
          "name": "symbol_",
          "type": "string"
        },
        {
          "internalType": "uint256",
          "name": "reserveFactorMantissa_",
          "type": "uint256"
        },
        {
          "internalType": "uint256",
          "name": "adminFeeMantissa_",
          "type": "uint256"
        }
      ],
      "name": "initialize",
      "outputs": [],
      "stateMutability": "nonpayable",
      "type": "function"
    },
    {
      "inputs": [
        {
          "internalType": "contract ComptrollerInterface",
          "name": "comptroller_",
          "type": "address"
        },
        {
          "internalType": "address payable",
          "name": "fuseAdmin_",
          "type": "address"
        },
        {
          "internalType": "contract InterestRateModel",
          "name": "interestRateModel_",
          "type": "address"
        },
        {
          "internalType": "uint256",
          "name": "initialExchangeRateMantissa_",
          "type": "uint256"
        },
        {
          "internalType": "string",
          "name": "name_",
          "type": "string"
        },
        {
          "internalType": "string",
          "name": "symbol_",
          "type": "string"
        },
        {
          "internalType": "uint8",
          "name": "decimals_",
          "type": "uint8"
        },
        {
          "internalType": "uint256",
          "name": "reserveFactorMantissa_",
          "type": "uint256"
        },
        {
          "internalType": "uint256",
          "name": "adminFeeMantissa_",
          "type": "uint256"
        }
      ],
      "name": "initialize",
      "outputs": [],
      "stateMutability": "nonpayable",
      "type": "function"
    },
    {
      "inputs": [],
      "name": "interestRateModel",
      "outputs": [
        {
          "internalType": "contract InterestRateModel",
          "name": "",
          "type": "address"
        }
      ],
      "stateMutability": "view",
      "type": "function"
    },
    {
      "inputs": [],
      "name": "isCEther",
      "outputs": [
        {
          "internalType": "bool",
          "name": "",
          "type": "bool"
        }
      ],
      "stateMutability": "nonpayable",
      "type": "function"
    },
    {
      "inputs": [],
      "name": "isCToken",
      "outputs": [
        {
          "internalType": "bool",
          "name": "",
          "type": "bool"
        }
      ],
      "stateMutability": "nonpayable",
      "type": "function"
    },
    {
      "inputs": [
        {
          "internalType": "address",
          "name": "borrower",
          "type": "address"
        },
        {
          "internalType": "uint256",
          "name": "repayAmount",
          "type": "uint256"
        },
        {
          "internalType": "contract CTokenInterface",
          "name": "cTokenCollateral",
          "type": "address"
        }
      ],
      "name": "liquidateBorrow",
      "outputs": [
        {
          "internalType": "uint256",
          "name": "",
          "type": "uint256"
        }
      ],
      "stateMutability": "nonpayable",
      "type": "function"
    },
    {
      "inputs": [
        {
          "internalType": "uint256",
          "name": "mintAmount",
          "type": "uint256"
        }
      ],
      "name": "mint",
      "outputs": [
        {
          "internalType": "uint256",
          "name": "",
          "type": "uint256"
        }
      ],
      "stateMutability": "nonpayable",
      "type": "function"
    },
    {
      "inputs": [],
      "name": "name",
      "outputs": [
        {
          "internalType": "string",
          "name": "",
          "type": "string"
        }
      ],
      "stateMutability": "view",
      "type": "function"
    },
    {
      "inputs": [],
      "name": "plugin",
      "outputs": [
        {
          "internalType": "contract IERC4626",
          "name": "",
          "type": "address"
        }
      ],
      "stateMutability": "view",
      "type": "function"
    },
    {
      "inputs": [],
      "name": "protocolSeizeShareMantissa",
      "outputs": [
        {
          "internalType": "uint256",
          "name": "",
          "type": "uint256"
        }
      ],
      "stateMutability": "view",
      "type": "function"
    },
    {
      "inputs": [
        {
          "internalType": "uint256",
          "name": "redeemTokens",
          "type": "uint256"
        }
      ],
      "name": "redeem",
      "outputs": [
        {
          "internalType": "uint256",
          "name": "",
          "type": "uint256"
        }
      ],
      "stateMutability": "nonpayable",
      "type": "function"
    },
    {
      "inputs": [
        {
          "internalType": "uint256",
          "name": "redeemAmount",
          "type": "uint256"
        }
      ],
      "name": "redeemUnderlying",
      "outputs": [
        {
          "internalType": "uint256",
          "name": "",
          "type": "uint256"
        }
      ],
      "stateMutability": "nonpayable",
      "type": "function"
    },
    {
      "inputs": [
        {
          "internalType": "uint256",
          "name": "repayAmount",
          "type": "uint256"
        }
      ],
      "name": "repayBorrow",
      "outputs": [
        {
          "internalType": "uint256",
          "name": "",
          "type": "uint256"
        }
      ],
      "stateMutability": "nonpayable",
      "type": "function"
    },
    {
      "inputs": [
        {
          "internalType": "address",
          "name": "borrower",
          "type": "address"
        },
        {
          "internalType": "uint256",
          "name": "repayAmount",
          "type": "uint256"
        }
      ],
      "name": "repayBorrowBehalf",
      "outputs": [
        {
          "internalType": "uint256",
          "name": "",
          "type": "uint256"
        }
      ],
      "stateMutability": "nonpayable",
      "type": "function"
    },
    {
      "inputs": [],
      "name": "reserveFactorMantissa",
      "outputs": [
        {
          "internalType": "uint256",
          "name": "",
          "type": "uint256"
        }
      ],
      "stateMutability": "view",
      "type": "function"
    },
    {
      "inputs": [
        {
          "internalType": "address",
          "name": "liquidator",
          "type": "address"
        },
        {
          "internalType": "address",
          "name": "borrower",
          "type": "address"
        },
        {
          "internalType": "uint256",
          "name": "seizeTokens",
          "type": "uint256"
        }
      ],
      "name": "seize",
      "outputs": [
        {
          "internalType": "uint256",
          "name": "",
          "type": "uint256"
        }
      ],
      "stateMutability": "nonpayable",
      "type": "function"
    },
    {
      "inputs": [],
      "name": "symbol",
      "outputs": [
        {
          "internalType": "string",
          "name": "",
          "type": "string"
        }
      ],
      "stateMutability": "view",
      "type": "function"
    },
    {
      "inputs": [],
      "name": "totalAdminFees",
      "outputs": [
        {
          "internalType": "uint256",
          "name": "",
          "type": "uint256"
        }
      ],
      "stateMutability": "view",
      "type": "function"
    },
    {
      "inputs": [],
      "name": "totalBorrows",
      "outputs": [
        {
          "internalType": "uint256",
          "name": "",
          "type": "uint256"
        }
      ],
      "stateMutability": "view",
      "type": "function"
    },
    {
      "inputs": [],
      "name": "totalFuseFees",
      "outputs": [
        {
          "internalType": "uint256",
          "name": "",
          "type": "uint256"
        }
      ],
      "stateMutability": "view",
      "type": "function"
    },
    {
      "inputs": [],
      "name": "totalReserves",
      "outputs": [
        {
          "internalType": "uint256",
          "name": "",
          "type": "uint256"
        }
      ],
      "stateMutability": "view",
      "type": "function"
    },
    {
      "inputs": [],
      "name": "totalSupply",
      "outputs": [
        {
          "internalType": "uint256",
          "name": "",
          "type": "uint256"
        }
      ],
      "stateMutability": "view",
      "type": "function"
    },
    {
      "inputs": [],
      "name": "underlying",
      "outputs": [
        {
          "internalType": "address",
          "name": "",
          "type": "address"
        }
      ],
      "stateMutability": "view",
      "type": "function"
    }
  ],
  "transactionHash": "0x11b2d1be6fd6476d0c577dcdd34868de845d966f12b61103cb2bf90dfbbfbcae",
  "args": [],
  "numDeployments": 15,
  "bytecode": {
    "object": "0x608060405234801561001057600080fd5b50615dc980620000216000396000f3fe6080604052600436106102935760003560e01c8063852a12e31161015a578063b2a02ff1116100c1578063dbfe7c191161007a578063dbfe7c1914610836578063dc028ab11461084c578063ef01df4f14610862578063f3fdb15a14610882578063f5e3c462146108a2578063fe9c44ae146108c257610293565b8063b2a02ff11461073d578063be99f1191461075d578063c37f68e214610779578063c5ebeaec146107b9578063cb2ef6f7146107d9578063db006a751461081657610293565b80639f5ef272116101135780639f5ef27214610694578063a03dce8d146106a7578063a0712d68146106c7578063a7b820df146106e7578063aa5af0fd14610707578063ac784ddc1461071d57610293565b8063852a12e3146105f357806389cd9855146106135780638d02d9a1146106335780638f840ddd1461064957806395d89b411461065f57806395dd91931461067457610293565b80633b1d21a2116101fe5780635fe3b567116101b75780635fe3b5671461054a57806361feacff1461056a5780636333d001146105805780636752e702146105a25780636c540baf146105bd5780636f307dc3146105d357610293565b80633b1d21a2146104aa57806347bd3718146104bf57806350d85b73146104d557806356e67728146104f55780635c60da1b146105155780635dde30341461053557610293565b806318160ddd1161025057806318160ddd1461040057806319f496c8146104165780631db7894414610436578063219ef65c1461043e5780632608f8181461045e578063313ce5671461047e57610293565b806306db3ecd1461031757806306fdde03146103395780630e7527021461036457806315761d5114610392578063173b9904146103ca57806317bfdfbc146103e0575b34801561029f57600080fd5b5060006102b76000356001600160e01b0319166108d6565b90506001600160a01b0381166102f357604051630a82dd7360e31b81526001600160e01b03196000351660048201526024015b60405180910390fd5b3660008037600080366000845af43d6000803e808015610312573d6000f35b3d6000fd5b34801561032357600080fd5b506103376103323660046154c5565b610939565b005b34801561034557600080fd5b5061034e610a47565b60405161035b91906155df565b60405180910390f35b34801561037057600080fd5b5061038461037f3660046155f2565b610ad5565b60405190815260200161035b565b34801561039e57600080fd5b506001546103b2906001600160a01b031681565b6040516001600160a01b03909116815260200161035b565b3480156103d657600080fd5b50610384600b5481565b3480156103ec57600080fd5b506103846103fb36600461560b565b610ae9565b34801561040c57600080fd5b5061038460125481565b34801561042257600080fd5b5061033761043136600461560b565b610bb5565b610337610fe6565b34801561044a57600080fd5b50610337610459366004615642565b611117565b34801561046a57600080fd5b5061038461047936600461570a565b61155a565b34801561048a57600080fd5b506005546104989060ff1681565b60405160ff909116815260200161035b565b3480156104b657600080fd5b50610384611572565b3480156104cb57600080fd5b50610384600e5481565b3480156104e157600080fd5b506103376104f0366004615744565b611581565b34801561050157600080fd5b506103376105103660046157d6565b611601565b34801561052157600080fd5b506000546103b2906001600160a01b031681565b34801561054157600080fd5b50610337611763565b34801561055657600080fd5b506006546103b2906001600160a01b031681565b34801561057657600080fd5b5061038460105481565b34801561058c57600080fd5b5061059561188c565b60405161035b919061581f565b3480156105ae57600080fd5b50610384666379da05b6000081565b3480156105c957600080fd5b50610384600c5481565b3480156105df57600080fd5b506016546103b2906001600160a01b031681565b3480156105ff57600080fd5b5061038461060e3660046155f2565b611896565b34801561061f57600080fd5b5061033761062e36600461586c565b6118a1565b34801561063f57600080fd5b5061038460095481565b34801561065557600080fd5b50610384600f5481565b34801561066b57600080fd5b5061034e611975565b34801561068057600080fd5b5061038461068f36600461560b565b611982565b3480156106a057600080fd5b50306103b2565b3480156106b357600080fd5b506103846106c23660046155f2565b611aa6565b3480156106d357600080fd5b506103846106e23660046155f2565b611bc7565b3480156106f357600080fd5b506103846107023660046155f2565b611bd3565b34801561071357600080fd5b50610384600d5481565b34801561072957600080fd5b5060005b604051901515815260200161035b565b34801561074957600080fd5b506103846107583660046158a5565b611d44565b34801561076957600080fd5b5061038467016345785d8a000081565b34801561078557600080fd5b5061079961079436600461560b565b611d68565b60408051948552602085019390935291830152606082015260800161035b565b3480156107c557600080fd5b506103846107d43660046155f2565b611e0b565b3480156107e557600080fd5b50604080518082019091526014815273434572633230506c7567696e44656c656761746560601b602082015261034e565b34801561082257600080fd5b506103846108313660046155f2565b611e16565b34801561084257600080fd5b50610384600a5481565b34801561085857600080fd5b5061038460115481565b34801561086e57600080fd5b506017546103b2906001600160a01b031681565b34801561088e57600080fd5b506007546103b2906001600160a01b031681565b3480156108ae57600080fd5b506103846108bd3660046158e6565b611e21565b3480156108ce57600080fd5b50600161072d565b6001600160e01b031981166000908152600080516020615d7d833981519152602081905260408220546001600160a01b03168061093257604051631f3f429960e31b81526001600160e01b0319851660048201526024016102ea565b9392505050565b60006702c68af0bb14000090506000896001600160a01b031663313ce5676040518163ffffffff1660e01b8152600401602060405180830381865afa158015610986573d6000803e3d6000fd5b505050506040513d601f19601f820116820180604052508101906109aa9190615928565b90506109bd898989858a8a878b8b611117565b601680546001600160a01b0319166001600160a01b038c16908117909155604080516318160ddd60e01b815290516318160ddd916004808201926020929091908290030181865afa158015610a16573d6000803e3d6000fd5b505050506040513d601f19601f82011682018060405250810190610a3a9190615945565b5050505050505050505050565b60038054610a549061595e565b80601f0160208091040260200160405190810160405280929190818152602001828054610a809061595e565b8015610acd5780601f10610aa257610100808354040283529160200191610acd565b820191906000526020600020905b815481529060010190602001808311610ab057829003601f168201915b505050505081565b600080610ae183611e39565b509392505050565b600080610af581611efd565b6000306001600160a01b031663a6afed956040518163ffffffff1660e01b81526004016020604051808303816000875af1158015610b37573d6000803e3d6000fd5b505050506040513d601f19601f82011682018060405250810190610b5b9190615945565b14610b9a5760405162461bcd60e51b815260206004820152600f60248201526e085858d8dc9d59525b9d195c995cdd608a1b60448201526064016102ea565b610ba383611982565b91505b610baf81611fc1565b50919050565b33301480610bc65750610bc6612044565b610c265760405162461bcd60e51b815260206004820152602b60248201527f6f6e6c792073656c6620616e642061646d696e732063616e2063616c6c205f7560448201526a383230ba32a8363ab3b4b760a91b60648201526084016102ea565b6017546000906001600160a01b0316610c3f5781610c4c565b6017546001600160a01b03165b600154604051637583efcf60e01b81526001600160a01b0380841660048301528581166024830152929350911690637583efcf90604401602060405180830381865afa158015610ca0573d6000803e3d6000fd5b505050506040513d601f19601f82011682018060405250810190610cc491906159a9565b610d1e5760405162461bcd60e51b815260206004820152602560248201527f706c7567696e20696d706c656d656e746174696f6e206e6f742077686974656c6044820152641a5cdd195960da1b60648201526084016102ea565b6017546001600160a01b031615801590610da257506017546040516370a0823160e01b81523060048201526001600160a01b03909116906370a0823190602401602060405180830381865afa158015610d7b573d6000803e3d6000fd5b505050506040513d601f19601f82011682018060405250810190610d9f9190615945565b15155b15610e8c576017546040516370a0823160e01b81523060048201526001600160a01b039091169063ba0876529082906370a0823190602401602060405180830381865afa158015610df7573d6000803e3d6000fd5b505050506040513d601f19601f82011682018060405250810190610e1b9190615945565b6040516001600160e01b031960e084901b1681526004810191909152306024820181905260448201526064016020604051808303816000875af1158015610e66573d6000803e3d6000fd5b505050506040513d601f19601f82011682018060405250810190610e8a9190615945565b505b601780546001600160a01b0319166001600160a01b0384811691821790925560165460405163095ea7b360e01b8152600481019290925260001960248301529091169063095ea7b3906044016020604051808303816000875af1158015610ef7573d6000803e3d6000fd5b505050506040513d601f19601f82011682018060405250810190610f1b91906159a9565b506016546040516370a0823160e01b81523060048201526000916001600160a01b0316906370a0823190602401602060405180830381865afa158015610f65573d6000803e3d6000fd5b505050506040513d601f19601f82011682018060405250810190610f899190615945565b90508015610f9a57610f9a816121b5565b601754604080516001600160a01b03928316815291851660208301527fb32957d2794aaec3ea2c8852833af2192fe9fb518777de1f883e9e821781da75910160405180910390a1505050565b3330148015906110685750600660009054906101000a90046001600160a01b03166001600160a01b031663dd5cd22c6040518163ffffffff1660e01b8152600401602060405180830381865afa158015611044573d6000803e3d6000fd5b505050506040513d601f19601f8201168201806040525081019061106891906159a9565b1561111557600154600080546040516345cc970560e01b81526001600160a01b039182166004820152919283928392909116906345cc970590602401600060405180830381865afa1580156110c1573d6000803e3d6000fd5b505050506040513d6000823e601f3d908101601f191682016040526110e991908101906159c6565b60005492955090935091506001600160a01b038085169116146111115761111183838361222a565b5050505b565b336001600160a01b0389161461113f5760405162461bcd60e51b81526004016102ea90615a66565b600c5415801561114f5750600d54155b61118a5760405162461bcd60e51b815260206004820152600c60248201526b085a5b9a5d1a585b1a5e995960a21b60448201526064016102ea565b600180546001600160a01b0319166001600160a01b038a161790556008869055856111e95760405162461bcd60e51b815260206004820152600f60248201526e02165786368616e6765526174653e3608c1b60448201526064016102ea565b600680546001600160a01b0319166001600160a01b038b81169190911790915543600c55670de0b6b3a7640000600d55604080516310c8fc9560e11b8152905191891691632191f92a916004808201926020929091908290030181865afa158015611258573d6000803e3d6000fd5b505050506040513d601f19601f8201168201806040525081019061127c91906159a9565b6112b25760405162461bcd60e51b8152602060048201526007602482015266216e6f7449726d60c81b60448201526064016102ea565b600780546001600160a01b0319166001600160a01b038916908117909155604080516000815260208101929092527fedffc32e068c7c95dfd4bdfd5c4d939a084d6b11c4199eac8436ed234d72f926910160405180910390a1845161131e90600390602088019061533a565b50835161133290600490602087019061533a565b506005805460ff191660ff8516179055600a54600954670de0b6b3a7640000919061135d9085615a9c565b6113679190615a9c565b111561139f5760405162461bcd60e51b8152602060048201526007602482015266085c998e9cd95d60ca1b60448201526064016102ea565b600b8290556040805160008152602081018490527faaa68312e2ea9d50e16af5068410ab56e1a1fd06037b1a35664812c30f821460910160405180910390a16000198114156113ed57506009545b6001546040805163dd86fea160e01b815290516000926001600160a01b03169163dd86fea19160048083019260209291908290030181865afa158015611437573d6000803e3d6000fd5b505050506040513d601f19601f8201168201806040525081019061145b9190615945565b9050670de0b6b3a76400008183600b546114759190615a9c565b61147f9190615a9c565b11156114bd5760405162461bcd60e51b815260206004820152600d60248201526c0858591b5a5b9199594e9cd95d609a1b60448201526064016102ea565b60098290556040805160008152602081018490527fcdd0b588250e1398549f79cfdb8217c186688822905d6715b0834ea1c865594a910160405180910390a1600a8190556040805160008152602081018390527f92eef861b6533b7d3417f39c2ad7b460eed4e88a32fa3604f30e718b7602e7dc910160405180910390a150506002805460ff60b01b1916600160b01b1790555050505050505050565b60008061156784846124bf565b509150505b92915050565b600061157c612585565b905090565b611589612044565b6115a55760405162461bcd60e51b81526004016102ea90615a66565b6000546001600160a01b038581169116146115fb576115fb848484848080601f01602080910402602001604051908101604052809392919081815260200183838082843760009201919091525061222a92505050565b50505050565b333014806116125750611612612044565b61167a5760405162461bcd60e51b815260206004820152603360248201527f6f6e6c792073656c6620616e642061646d696e732063616e2063616c6c205f6260448201527232b1b7b6b2a4b6b83632b6b2b73a30ba34b7b760691b60648201526084016102ea565b6000818060200190518101906116909190615ab4565b90506001600160a01b0381161580156116b357506017546001600160a01b031615155b1561172b576001546017546040516381218ea960e01b81526001600160a01b0391821660048201529116906381218ea990602401602060405180830381865afa158015611704573d6000803e3d6000fd5b505050506040513d601f19601f820116820180604052508101906117289190615ab4565b90505b6001600160a01b0381161580159061175157506017546001600160a01b03828116911614155b1561175f5761175f81610bb5565b5050565b735aa0197d0d3e05c4aa070dfa2f54cd67a447173a611780612044565b61179c5760405162461bcd60e51b81526004016102ea90615a66565b306001600160a01b03821614156118895773b70d29decca758bb72cd2967a989782f3acad3e673011c79c3f951dc3d26fb08d226b60a7653753a956117ec82600068de42ee1544dd900000612659565b156118305760405162461bcd60e51b815260206004820152601460248201527321666f726365642072656465656d20757365723160601b60448201526064016102ea565b611845816000686c6b935b8bbd400000612659565b156111115760405162461bcd60e51b815260206004820152601460248201527310b337b931b2b2103932b232b2b6903ab9b2b91960611b60448201526064016102ea565b50565b606061157c612cbb565b600061156c82612d2d565b6006546001546001600160a01b0391821691163314801561191f5750806001600160a01b0316632f1069ba6040518163ffffffff1660e01b8152600401602060405180830381865afa1580156118fb573d6000803e3d6000fd5b505050506040513d601f19601f8201168201806040525081019061191f91906159a9565b61196b5760405162461bcd60e51b815260206004820152601f60248201527f21756e617574686f72697a6564202d206e6f2061646d696e207269676874730060448201526064016102ea565b6111118383612dcf565b60048054610a549061595e565b6001600160a01b03811660009081526015602052604081208054829182918291906119b35750600095945050505050565b6119c38160000154600d54612df0565b909450925060008460038111156119dc576119dc615993565b14611a295760405162461bcd60e51b815260206004820152601e60248201527f216d756c55496e74206f766572666c6f7720636865636b206661696c6564000060448201526064016102ea565b611a37838260010154612e32565b90945091506000846003811115611a5057611a50615993565b14611a9d5760405162461bcd60e51b815260206004820152601e60248201527f2164697655496e74206f766572666c6f7720636865636b206661696c6564000060448201526064016102ea565b50949350505050565b600080611ab281611efd565b6000306001600160a01b031663a6afed956040518163ffffffff1660e01b81526004016020604051808303816000875af1158015611af4573d6000803e3d6000fd5b505050506040513d601f19601f82011682018060405250810190611b189190615945565b90508015611b4457611b3c816011811115611b3557611b35615993565b6033612e5d565b925050610ba6565b43600c5414611b5957611b3c600a6035612e5d565b83611b62612585565b1015611b7457611b3c600e6034612e5d565b601154841115611b8a57611b3c60026036612e5d565b600084601154611b9a9190615ad1565b6011819055600154909150611bb8906001600160a01b031686612ed6565b600093505050610baf81611fc1565b600080610ae183612f53565b600080611bdf81611efd565b6000306001600160a01b031663a6afed956040518163ffffffff1660e01b81526004016020604051808303816000875af1158015611c21573d6000803e3d6000fd5b505050506040513d601f19601f82011682018060405250810190611c459190615945565b90508015611c6957611b3c816011811115611c6257611c62615993565b6037612e5d565b43600c5414611c7e57611b3c600a6039612e5d565b83611c87612585565b1015611c9957611b3c600e6038612e5d565b601054841115611caf57611b3c6002603a612e5d565b83601054611cbd9190615ad1565b601055600654604080516303e1469160e61b81529051611d35926001600160a01b03169163f851a4409160048083019260209291908290030181865afa158015611d0b573d6000803e3d6000fd5b505050506040513d601f19601f82011682018060405250810190611d2f9190615ab4565b85612ed6565b60005b925050610baf81611fc1565b60006001611d5181611efd565b611d5d33868686612ff5565b9150610ae181611fc1565b6001600160a01b038116600090815260136020526040812054819081908190818080611d9389611982565b9250306001600160a01b031663182df0f56040518163ffffffff1660e01b8152600401602060405180830381865afa158015611dd3573d6000803e3d6000fd5b505050506040513d601f19601f82011682018060405250810190611df79190615945565b915060009993985091965094509092505050565b600061156c826134d4565b600061156c82613574565b600080611e2f85858561360f565b5095945050505050565b6000806000611e4781611efd565b6000306001600160a01b031663a6afed956040518163ffffffff1660e01b81526004016020604051808303816000875af1158015611e89573d6000803e3d6000fd5b505050506040513d601f19601f82011682018060405250810190611ead9190615945565b90508015611edd57611ed1816011811115611eca57611eca615993565b6041612e5d565b60009350935050611eee565b611ee83333876137c0565b93509350505b611ef781611fc1565b50915091565b600254600160b01b900460ff16611f435760405162461bcd60e51b815260206004820152600a6024820152691c994b595b9d195c995960b21b60448201526064016102ea565b80611fb157600660009054906101000a90046001600160a01b03166001600160a01b031663c90c20b16040518163ffffffff1660e01b8152600401600060405180830381600087803b158015611f9857600080fd5b505af1158015611fac573d6000803e3d6000fd5b505050505b506002805460ff60b01b19169055565b6002805460ff60b01b1916600160b01b1790558061188957600660009054906101000a90046001600160a01b03166001600160a01b031663632e51426040518163ffffffff1660e01b8152600401600060405180830381600087803b15801561202957600080fd5b505af115801561203d573d6000803e3d6000fd5b5050505050565b600654604080516303e1469160e61b815290516000926001600160a01b031691829163f851a440916004808201926020929091908290030181865afa158015612091573d6000803e3d6000fd5b505050506040513d601f19601f820116820180604052508101906120b59190615ab4565b6001600160a01b0316336001600160a01b03161480156121325750806001600160a01b0316630a755ec26040518163ffffffff1660e01b8152600401602060405180830381865afa15801561210e573d6000803e3d6000fd5b505050506040513d601f19601f8201168201806040525081019061213291906159a9565b806121af57506001546001600160a01b0316331480156121af5750806001600160a01b0316632f1069ba6040518163ffffffff1660e01b8152600401602060405180830381865afa15801561218b573d6000803e3d6000fd5b505050506040513d601f19601f820116820180604052508101906121af91906159a9565b91505090565b601754604051636e553f6560e01b8152600481018390523060248201526001600160a01b0390911690636e553f65906044016020604051808303816000875af1158015612206573d6000803e3d6000fd5b505050506040513d601f19601f8201168201806040525081019061175f9190615945565b6001546000546040516338e6a07360e11b81526001600160a01b039182166004820152858216602482015284151560448201529116906371cd40e690606401602060405180830381865afa158015612286573d6000803e3d6000fd5b505050506040513d601f19601f820116820180604052508101906122aa91906159a9565b6122de5760405162461bcd60e51b8152602060048201526005602482015264085a5b5c1b60da1b60448201526064016102ea565b600080546001600160a01b031981166001600160a01b0386811691821784556001546040516311a0e21760e01b81526004810193909352928116939216906311a0e21790602401600060405180830381865afa158015612342573d6000803e3d6000fd5b505050506040513d6000823e601f3d908101601f1916820160405261236a9190810190615b0c565b90506000612376612cbb565b905060005b81518110156123b8576123a682828151811061239957612399615b9b565b6020026020010151613b65565b806123b081615bb1565b91505061237b565b5060005b82518110156123f9576123e78382815181106123da576123da615b9b565b6020026020010151613c95565b806123f181615bb1565b9150506123bc565b50303b61240e5761240984611601565b612470565b61246e308560405160240161242391906155df565b60408051601f19818403018152918152602080830180516001600160e01b0316630adccee560e31b17905281518083019092526007825266216265636f6d6560c81b90820152613d8d565b505b600054604080516001600160a01b03808716825290921660208301527fd604de94d45953f9138079ec1b82d533cb2160c906d1076d1f7ed54befbca97a910160405180910390a1505050505050565b60008060006124cd81611efd565b6000306001600160a01b031663a6afed956040518163ffffffff1660e01b81526004016020604051808303816000875af115801561250f573d6000803e3d6000fd5b505050506040513d601f19601f820116820180604052508101906125339190615945565b905080156125635761255781601181111561255057612550615993565b6040612e5d565b60009350935050612574565b61256e3387876137c0565b93509350505b61257d81611fc1565b509250929050565b6017546040516370a0823160e01b81523060048201526000916001600160a01b031690634cdad5069082906370a0823190602401602060405180830381865afa1580156125d6573d6000803e3d6000fd5b505050506040513d601f19601f820116820180604052508101906125fa9190615945565b6040518263ffffffff1660e01b815260040161261891815260200190565b602060405180830381865afa158015612635573d6000803e3d6000fd5b505050506040513d601f19601f8201168201806040525081019061157c9190615945565b6000821580612666575081155b6126b25760405162461bcd60e51b815260206004820152601860248201527f2172656465656d20746f6b656e73206f7220616d6f756e74000000000000000060448201526064016102ea565b6126f36040805160e0810190915280600081526020016000815260200160008152602001600081526020016000815260200160008152602001600081525090565b306001600160a01b031663182df0f56040518163ffffffff1660e01b8152600401602060405180830381865afa158015612731573d6000803e3d6000fd5b505050506040513d601f19601f820116820180604052508101906127559190615945565b60408201526000198314156127e457600654604051630cbb414760e11b81526001600160a01b0387811660048301523060248301526000604483015290911690631976828e906064016020604051808303816000875af11580156127bd573d6000803e3d6000fd5b505050506040513d601f19601f820116820180604052508101906127e19190615945565b92505b831561288a57606081018490526040805160208101825290820151815261280b9085613e29565b608083018190526020830182600381111561282857612828615993565b600381111561283957612839615993565b905250600090508160200151600381111561285657612856615993565b146128855761287d6009602c8360200151600381111561287857612878615993565b613e7b565b915050610932565b61291b565b6128a68360405180602001604052808460400151815250613f1d565b60608301819052602083018260038111156128c3576128c3615993565b60038111156128d4576128d4615993565b90525060009050816020015160038111156128f1576128f1615993565b146129135761287d6009602d8360200151600381111561287857612878615993565b608081018390525b73b70d29decca758bb72cd2967a989782f3acad3e673011c79c3f951dc3d26fb08d226b60a7653753a956001600160a01b03871682148015906129705750806001600160a01b0316876001600160a01b031614155b15612a1357600654606084015160405163eabe7d9160e01b81526000926001600160a01b03169163eabe7d91916129ae9130918d9190600401615bcc565b6020604051808303816000875af11580156129cd573d6000803e3d6000fd5b505050506040513d601f19601f820116820180604052508101906129f19190615945565b90508015612a1157612a066003602b83613e7b565b945050505050610932565b505b43600c5414612a3257612a28600a602f612e5d565b9350505050610932565b612a426012548460600151613f2d565b60a0850181905260208501826003811115612a5f57612a5f615993565b6003811115612a7057612a70615993565b9052506000905083602001516003811115612a8d57612a8d615993565b14612aaf57612a28600960318560200151600381111561287857612878615993565b6001600160a01b0387166000908152601360205260409020546060840151612ad79190613f2d565b60c0850181905260208501826003811115612af457612af4615993565b6003811115612b0557612b05615993565b9052506000905083602001516003811115612b2257612b22615993565b14612b4457612a28600960308560200151600381111561287857612878615993565b8260800151612b51612585565b1015612b6357612a28600e6032612e5d565b60a083015160125560c08301516001600160a01b0388166000908152601360205260409020556080830151612b99908890612ed6565b306001600160a01b0316876001600160a01b0316600080516020615d9d8339815191528560600151604051612bd091815260200190565b60405180910390a36080830151606080850151604080516001600160a01b038c16815260208101949094528301527fe5b754fb1abb7f01b499791d0b820ae3b6af3424ac1c59768edb53f4ec31a929910160405180910390a1600654608084015160608501516040516351dff98960e01b81523060048201526001600160a01b038b81166024830152604482019390935260648101919091529116906351dff98990608401600060405180830381600087803b158015612c8f57600080fd5b505af1158015612ca3573d6000803e3d6000fd5b5060009250612cb0915050565b979650505050505050565b6060600080516020615d7d833981519152600201805480602002602001604051908101604052809291908181526020018280548015612d2357602002820191906000526020600020905b81546001600160a01b03168152600190910190602001808311612d05575b5050505050905090565b600080612d3981611efd565b6000306001600160a01b031663a6afed956040518163ffffffff1660e01b81526004016020604051808303816000875af1158015612d7b573d6000803e3d6000fd5b505050506040513d601f19601f82011682018060405250810190612d9f9190615945565b90508015612dc357611b3c816011811115612dbc57612dbc615993565b602a612e5d565b611d3833600086612659565b6001600160a01b03811615612de757612de781613b65565b61175f82613c95565b60008083612e0357506000905080612e2b565b83830283612e118683615bf0565b14612e2457600260009250925050612e2b565b6000925090505b9250929050565b60008082612e465750600190506000612e2b565b6000612e528486615bf0565b915091509250929050565b60007f45b96fe442630264581b197e84bbada861235052c5a1aadfff9ea4e40a969aa0836011811115612e9257612e92615993565b836061811115612ea457612ea4615993565b60408051928352602083019190915260009082015260600160405180910390a182601181111561093257610932615993565b601754604051632d182be560e21b8152600481018390526001600160a01b0384811660248301523060448301529091169063b460af94906064016020604051808303816000875af1158015612f2f573d6000803e3d6000fd5b505050506040513d601f19601f820116820180604052508101906111119190615945565b6000806000612f6181611efd565b6000306001600160a01b031663a6afed956040518163ffffffff1660e01b81526004016020604051808303816000875af1158015612fa3573d6000803e3d6000fd5b505050506040513d601f19601f82011682018060405250810190612fc79190615945565b90508015612feb57611ed1816011811115612fe457612fe4615993565b6020612e5d565b611ee83386613f58565b60065460405163d02f735160e01b81523060048201526001600160a01b0386811660248301528581166044830152848116606483015260848201849052600092839291169063d02f73519060a4016020604051808303816000875af1158015613062573d6000803e3d6000fd5b505050506040513d601f19601f820116820180604052508101906130869190615945565b905080156130a35761309b6003601d83613e7b565b9150506134cc565b846001600160a01b0316846001600160a01b031614156130c95761309b6006601e612e5d565b61312e604080516101808101909152806000815260200160008152602001600081526020016000815260200160008152602001600081526020016000815260200160008152602001600081526020016000815260200160008152602001600081525090565b6001600160a01b0385166000908152601360205260409020546131519085613f2d565b602083018190528282600381111561316b5761316b615993565b600381111561317c5761317c615993565b905250600090508151600381111561319657613196615993565b146131c1576131b86009601c8360000151600381111561287857612878615993565b925050506134cc565b6131e0846040518060200160405280666379da05b600008152506142d0565b6080820152604080516020810190915267016345785d8a000081526132069085906142d0565b6101408201819052608082015161321d9086615ad1565b6132279190615ad1565b6060820152306001600160a01b031663182df0f56040518163ffffffff1660e01b8152600401602060405180830381865afa15801561326a573d6000803e3d6000fd5b505050506040513d601f19601f8201168201806040525081019061328e9190615945565b60c0820190815260408051602081019091529051815260808201516132b391906142f3565b60a0820152604080516020810190915260c082015181526101408201516132da91906142f3565b61016082015260a0810151600f546132f29190615a9c565b60e0820152610140810151608082015160125461330f9190615ad1565b6133199190615ad1565b6101208201526101608101516011546133329190615a9c565b6101008201526001600160a01b0386166000908152601360205260409020546060820151613360919061430b565b604083018190528282600381111561337a5761337a615993565b600381111561338b5761338b615993565b90525060009050815160038111156133a5576133a5615993565b146133c7576131b86009601b8360000151600381111561287857612878615993565b60e0810151600f556101208101516012556101008101516011556020808201516001600160a01b0387811660008181526013855260408082209490945583860151928b1680825290849020929092556060850151925192835290929091600080516020615d9d833981519152910160405180910390a3306001600160a01b0316856001600160a01b0316600080516020615d9d833981519152836080015160405161347491815260200190565b60405180910390a360a081015160e08201516040805130815260208101939093528201527fa91e67c5ea634cd43a12c5a482724b03de01e85ca68702a53d0c2f45cb7c1dc59060600160405180910390a16000925050505b949350505050565b6000806134e081611efd565b6000306001600160a01b031663a6afed956040518163ffffffff1660e01b81526004016020604051808303816000875af1158015613522573d6000803e3d6000fd5b505050506040513d601f19601f820116820180604052508101906135469190615945565b9050801561356a57611b3c81601181111561356357613563615993565b600a612e5d565b611d383385614331565b60008061358081611efd565b6000306001600160a01b031663a6afed956040518163ffffffff1660e01b81526004016020604051808303816000875af11580156135c2573d6000803e3d6000fd5b505050506040513d601f19601f820116820180604052508101906135e69190615945565b9050801561360357611b3c816011811115612dbc57612dbc615993565b611d3833856000612659565b600080600061361d81611efd565b6000306001600160a01b031663a6afed956040518163ffffffff1660e01b81526004016020604051808303816000875af115801561365f573d6000803e3d6000fd5b505050506040513d601f19601f820116820180604052508101906136839190615945565b905080156136b3576136a78160118111156136a0576136a0615993565b6011612e5d565b600093509350506137ae565b846001600160a01b0316639f5ef2726040518163ffffffff1660e01b8152600401602060405180830381865afa1580156136f1573d6000803e3d6000fd5b505050506040513d601f19601f820116820180604052508101906137159190615ab4565b6001600160a01b031663a6afed956040518163ffffffff1660e01b81526004016020604051808303816000875af1158015613754573d6000803e3d6000fd5b505050506040513d601f19601f820116820180604052508101906137789190615945565b9050801561379c576136a781601181111561379557613795615993565b6012612e5d565b6137a833888888614660565b93509350505b6137b781611fc1565b50935093915050565b600654604051631200453160e11b81523060048201526001600160a01b03858116602483015284811660448301526064820184905260009283928392909116906324008a62906084016020604051808303816000875af1158015613828573d6000803e3d6000fd5b505050506040513d601f19601f8201168201806040525081019061384c9190615945565b9050801561386d576138616003604383613e7b565b60009250925050613b5d565b43600c541461388257613861600a6044612e5d565b6138cb6040805161010081019091528060008152602001600081526020016000815260200160008152602001600081526020016000815260200160008152602001600081525090565b6001600160a01b03861660009081526015602052604090206001015460608201526138f586611982565b6080820152600019851415613913576080810151604082015261391b565b604081018590525b613929878260400151614b75565b60e08201819052608082015161393e91613f2d565b60a083018190526020830182600381111561395b5761395b615993565b600381111561396c5761396c615993565b905250600090508160200151600381111561398957613989615993565b146139fc5760405162461bcd60e51b815260206004820152603a60248201527f52455041595f424f52524f575f4e45575f4143434f554e545f424f52524f575f60448201527f42414c414e43455f43414c43554c4154494f4e5f4641494c454400000000000060648201526084016102ea565b613a0c600e548260e00151613f2d565b60c0830181905260208301826003811115613a2957613a29615993565b6003811115613a3a57613a3a615993565b9052506000905081602001516003811115613a5757613a57615993565b14613abe5760405162461bcd60e51b815260206004820152603160248201527f52455041595f424f52524f575f4e45575f544f54414c5f42414c414e43455f43604482015270105310d55310551253d397d19052531151607a1b60648201526084016102ea565b60a081810180516001600160a01b03898116600081815260156020908152604091829020948555600d5460019095019490945560c0870151600e81905560e088015195518251948f16855294840192909252820193909352606081019190915260808101919091527f1a2a22cb034d26d1854bdc6666a5b91fe25efbbb5dcad3b0355478d6f5c362a1910160405180910390a160e00151600093509150505b935093915050565b600080516020615d7d833981519152613b7d82614c2b565b60005b600282015460ff8216101561111157826001600160a01b0316826002018260ff1681548110613bb157613bb1615b9b565b6000918252602090912001546001600160a01b03161415613c8357600282018054613bde90600190615ad1565b81548110613bee57613bee615b9b565b6000918252602090912001546002830180546001600160a01b039092169160ff8416908110613c1f57613c1f615b9b565b9060005260206000200160006101000a8154816001600160a01b0302191690836001600160a01b0316021790555081600201805480613c6057613c60615c12565b600082815260209020810160001990810180546001600160a01b03191690550190555b80613c8d81615c28565b915050613b80565b600080516020615d7d83398151915260005b600282015460ff82161015613d4d57826001600160a01b0316826002018260ff1681548110613cd857613cd8615b9b565b6000918252602090912001546001600160a01b03161415613d3b5760405162461bcd60e51b815260206004820152601760248201527f657874656e73696f6e20616c726561647920616464656400000000000000000060448201526064016102ea565b80613d4581615c28565b915050613ca7565b50613d5782614eb8565b6002018054600181018255600091825260209091200180546001600160a01b0319166001600160a01b0392909216919091179055565b6060600080856001600160a01b031685604051613daa9190615c48565b6000604051808303816000865af19150503d8060008114613de7576040519150601f19603f3d011682016040523d82523d6000602084013e613dec565b606091505b509150915081613e2057805115613e065780518082602001fd5b8360405162461bcd60e51b81526004016102ea91906155df565b95945050505050565b600080600080613e3986866150a2565b90925090506000826003811115613e5257613e52615993565b14613e635750915060009050612e2b565b6000613e6e8261511e565b9350935050509250929050565b60007f45b96fe442630264581b197e84bbada861235052c5a1aadfff9ea4e40a969aa0846011811115613eb057613eb0615993565b846061811115613ec257613ec2615993565b604080519283526020830191909152810184905260600160405180910390a16003846011811115613ef557613ef5615993565b14613f1157836011811115613f0c57613f0c615993565b6134cc565b6134cc826103e8615a9c565b600080600080613e398686615136565b600080838311613f4c576000613f438486615ad1565b91509150612e2b565b50600390506000612e2b565b600654604051634ef4c3e160e01b8152600091829182916001600160a01b031690634ef4c3e190613f9190309089908990600401615bcc565b6020604051808303816000875af1158015613fb0573d6000803e3d6000fd5b505050506040513d601f19601f82011682018060405250810190613fd49190615945565b90508015613ff557613fe96003602183613e7b565b60009250925050612e2b565b43600c541461400a57613fe9600a6024612e5d565b61404b6040805160e0810190915280600081526020016000815260200160008152602001600081526020016000815260200160008152602001600081525090565b306001600160a01b031663182df0f56040518163ffffffff1660e01b8152600401602060405180830381865afa158015614089573d6000803e3d6000fd5b505050506040513d601f19601f820116820180604052508101906140ad9190615945565b60408201526140bc8686614b75565b60c08201819052604080516020810182529083015181526140dd9190613f1d565b60608301819052602083018260038111156140fa576140fa615993565b600381111561410b5761410b615993565b905250600090508160200151600381111561412857614128615993565b146141755760405162461bcd60e51b815260206004820181905260248201527f4d494e545f45584348414e47455f43414c43554c4154494f4e5f4641494c454460448201526064016102ea565b60008160600151116141c95760405162461bcd60e51b815260206004820152601a60248201527f4d494e545f5a45524f5f43544f4b454e535f52454a454354454400000000000060448201526064016102ea565b80606001516012546141db9190615a9c565b608082015260608101516001600160a01b0387166000908152601360205260409020546142089190615a9c565b60a0820181905260808201516012556001600160a01b0387166000818152601360209081526040918290209390935560c0840151606080860151835194855294840191909152908201929092527f4c209b5fc8ad50758f13e2e1088ba56a560dff690a1c6fef26394f4c03821c4f910160405180910390a1856001600160a01b0316306001600160a01b0316600080516020615d9d83398151915283606001516040516142b791815260200190565b60405180910390a360c001516000969095509350505050565b6000670de0b6b3a76400006142e98484600001516151a9565b6109329190615bf0565b60008061430084846151eb565b90506134cc8161511e565b60008083830184811061432357600092509050612e2b565b600260009250925050612e2b565b60065460405163368f515360e21b815260009182916001600160a01b039091169063da3d454c9061436a90309088908890600401615bcc565b6020604051808303816000875af1158015614389573d6000803e3d6000fd5b505050506040513d601f19601f820116820180604052508101906143ad9190615945565b905080156143ca576143c26003601083613e7b565b91505061156c565b43600c54146143df576143c2600a600c612e5d565b60006143e9612585565b905083811015614408576143ff600e600b612e5d565b9250505061156c565b614434604080516080810190915280600081526020016000815260200160008152602001600081525090565b61443d86611982565b6020820181905261444e908661430b565b604083018190528282600381111561446857614468615993565b600381111561447957614479615993565b905250600090508151600381111561449357614493615993565b146144bf576144b56009600e8360000151600381111561287857612878615993565b935050505061156c565b6006546040828101519051631de6c8a560e21b815230600482015260248101919091526001600160a01b039091169063779b229490604401602060405180830381865afa158015614514573d6000803e3d6000fd5b505050506040513d601f19601f820116820180604052508101906145389190615945565b9250821561454d576144b56003601085613e7b565b614559600e548661430b565b606083018190528282600381111561457357614573615993565b600381111561458457614584615993565b905250600090508151600381111561459e5761459e615993565b146145c0576144b56009600d8360000151600381111561287857612878615993565b6040808201516001600160a01b0388166000908152601560205291909120908155600d546001909101556060810151600e556145fc8686612ed6565b60408082015160608084015183516001600160a01b038b168152602081018a9052938401929092528201527f13ed6866d4e1ee6da46f845c46d7e54120883d75c5ea9a2dacc1c4ca8984ab809060800160405180910390a160009695505050505050565b600654604051632fe3f38f60e11b81523060048201526001600160a01b03838116602483015286811660448301528581166064830152608482018590526000928392839290911690635fc7e71e9060a4016020604051808303816000875af11580156146d0573d6000803e3d6000fd5b505050506040513d601f19601f820116820180604052508101906146f49190615945565b90508015614715576147096003601483613e7b565b60009250925050614b6c565b43600c541461472a57614709600a6018612e5d565b43846001600160a01b0316636c540baf6040518163ffffffff1660e01b8152600401602060405180830381865afa158015614769573d6000803e3d6000fd5b505050506040513d601f19601f8201168201806040525081019061478d9190615945565b1461479e57614709600a6013612e5d565b866001600160a01b0316866001600160a01b031614156147c45761470960066019612e5d565b846147d55761470960076017612e5d565b6000198514156147eb5761470960076016612e5d565b6000806147f98989896137c0565b9092509050811561482e5761482082601181111561481957614819615993565b601a612e5d565b600094509450505050614b6c565b60065460405163c488847b60e01b815260009182916001600160a01b039091169063c488847b906148679030908c908890600401615bcc565b6040805180830381865afa158015614883573d6000803e3d6000fd5b505050506040513d601f19601f820116820180604052508101906148a79190615c64565b909250905081156149165760405162461bcd60e51b815260206004820152603360248201527f4c49515549444154455f434f4d5054524f4c4c45525f43414c43554c4154455f604482015272105353d5539517d4d152569157d19052531151606a1b60648201526084016102ea565b80886001600160a01b0316639f5ef2726040518163ffffffff1660e01b8152600401602060405180830381865afa158015614955573d6000803e3d6000fd5b505050506040513d601f19601f820116820180604052508101906149799190615ab4565b6040516370a0823160e01b81526001600160a01b038d8116600483015291909116906370a0823190602401602060405180830381865afa1580156149c1573d6000803e3d6000fd5b505050506040513d601f19601f820116820180604052508101906149e59190615945565b1015614a335760405162461bcd60e51b815260206004820152601860248201527f4c49515549444154455f5345495a455f544f4f5f4d554348000000000000000060448201526064016102ea565b60006001600160a01b038916301415614a5957614a52308d8d85612ff5565b9050614acf565b60405163b2a02ff160e01b81526001600160a01b038a169063b2a02ff190614a89908f908f908790600401615bcc565b6020604051808303816000875af1158015614aa8573d6000803e3d6000fd5b505050506040513d601f19601f82011682018060405250810190614acc9190615945565b90505b8015614b065760405162461bcd60e51b8152602060048201526006602482015265217365697a6560d01b60448201526064016102ea565b604080516001600160a01b038e811682528d811660208301528183018790528b1660608201526080810184905290517f298637f684da70674f26509b10f07ec2fbc77a335ab1e7d6215a4b2484d8bb529181900360a00190a16000975092955050505050505b94509492505050565b6016546040516323b872dd60e01b81526000916001600160a01b0316906323b872dd90614baa90869030908790600401615bcc565b6020604051808303816000875af1158015614bc9573d6000803e3d6000fd5b505050506040513d601f19601f82011682018060405250810190614bed91906159a9565b614c225760405162461bcd60e51b81526004016102ea906020808252600490820152631cd95b9960e21b604082015260600190565b610baf826121b5565b6000816001600160a01b03166389f8132e6040518163ffffffff1660e01b8152600401600060405180830381865afa158015614c6b573d6000803e3d6000fd5b505050506040513d6000823e601f3d908101601f19168201604052614c939190810190615c88565b9050600080516020615d7d83398151915260005b82518161ffff1610156115fb576000838261ffff1681518110614ccc57614ccc615b9b565b6020908102919091018101516001600160e01b031981166000908152918590526040909120549091506001600160a01b03868116911614614d0f57614d0f615d25565b6001600160e01b0319811660009081526020849052604090205460018085018054600160a01b90930461ffff16929091614d4891615ad1565b81548110614d5857614d58615b9b565b90600052602060002090600891828204019190066004029054906101000a900460e01b846001018261ffff1681548110614d9457614d94615b9b565b90600052602060002090600891828204019190066004026101000a81548163ffffffff021916908360e01c021790555080846000016000866001018461ffff1681548110614de457614de4615b9b565b6000918252602080832060088304015460079092166004026101000a90910460e01b6001600160e01b03191683528201929092526040019020805461ffff60a01b1916600160a01b61ffff939093169290920291909117905560018401805480614e5057614e50615c12565b60008281526020808220600860001990940193840401805463ffffffff600460078716026101000a0219169055919092556001600160e01b0319909316815291849052506040902080546001600160b01b031916905580614eb081615d3b565b915050614ca7565b6000816001600160a01b03166389f8132e6040518163ffffffff1660e01b8152600401600060405180830381865afa158015614ef8573d6000803e3d6000fd5b505050506040513d6000823e601f3d908101601f19168201604052614f209190810190615c88565b7fc8fcad8db84d3cc18b4c41d551ea0ee66dd599cde068d998e57d5e09332c131d54909150600080516020615d7d8339815191529060005b835181101561203d576000848281518110614f7557614f75615b9b565b6020908102919091018101516001600160e01b031981166000908152918690526040909120549091506001600160a01b03168015614fe157604051632c18df3360e01b81526001600160e01b0319831660048201526001600160a01b03821660248201526044016102ea565b6040805180820182526001600160a01b03808a16825261ffff80881660208085019182526001600160e01b0319881660009081528b8252958620945185549251909316600160a01b026001600160b01b0319909216929093169190911717909155600180880180549182018155835291206008820401805460e085901c60046007909416939093026101000a92830263ffffffff90930219169190911790558361508a81615d3b565b9450505050808061509a90615bb1565b915050614f58565b60006150ba6040518060200160405280600081525090565b6000806150cb866000015186612df0565b909250905060008260038111156150e4576150e4615993565b1461510357506040805160208101909152600081529092509050612e2b565b60408051602081019091529081526000969095509350505050565b805160009061156c90670de0b6b3a764000090615bf0565b600061514e6040518060200160405280600081525090565b600080615163670de0b6b3a764000087612df0565b9092509050600082600381111561517c5761517c615993565b1461519b57506040805160208101909152600081529092509050612e2b565b613e6e81866000015161521c565b600061093283836040518060400160405280601781526020017f6d756c7469706c69636174696f6e206f766572666c6f770000000000000000008152506152e7565b60408051602081019091526000815260405180602001604052806152138560000151856151a9565b90529392505050565b60006152346040518060200160405280600081525090565b60008061524986670de0b6b3a7640000612df0565b9092509050600082600381111561526257615262615993565b1461528157506040805160208101909152600081529092509050612e2b565b60008061528e8388612e32565b909250905060008260038111156152a7576152a7615993565b146152ca5781604051806020016040528060008152509550955050505050612e2b565b604080516020810190915290815260009890975095505050505050565b60008315806152f4575082155b1561530157506000610932565b600061530d8486615d5d565b90508361531a8683615bf0565b148390611a9d5760405162461bcd60e51b81526004016102ea91906155df565b8280546153469061595e565b90600052602060002090601f01602090048101928261536857600085556153ae565b82601f1061538157805160ff19168380011785556153ae565b828001600101855582156153ae579182015b828111156153ae578251825591602001919060010190615393565b506153ba9291506153be565b5090565b5b808211156153ba57600081556001016153bf565b6001600160a01b038116811461188957600080fd5b80356153f3816153d3565b919050565b634e487b7160e01b600052604160045260246000fd5b604051601f8201601f1916810167ffffffffffffffff81118282101715615437576154376153f8565b604052919050565b600067ffffffffffffffff821115615459576154596153f8565b50601f01601f191660200190565b600061547a6154758461543f565b61540e565b905082815283838301111561548e57600080fd5b828260208301376000602084830101529392505050565b600082601f8301126154b657600080fd5b61093283833560208501615467565b600080600080600080600080610100898b0312156154e257600080fd5b88356154ed816153d3565b975060208901356154fd816153d3565b9650604089013561550d816153d3565b9550606089013561551d816153d3565b9450608089013567ffffffffffffffff8082111561553a57600080fd5b6155468c838d016154a5565b955060a08b013591508082111561555c57600080fd5b506155698b828c016154a5565b93505060c0890135915060e089013590509295985092959890939650565b60005b838110156155a257818101518382015260200161558a565b838111156115fb5750506000910152565b600081518084526155cb816020860160208601615587565b601f01601f19169290920160200192915050565b60208152600061093260208301846155b3565b60006020828403121561560457600080fd5b5035919050565b60006020828403121561561d57600080fd5b8135610932816153d3565b60ff8116811461188957600080fd5b80356153f381615628565b60008060008060008060008060006101208a8c03121561566157600080fd5b893561566c816153d3565b985060208a013561567c816153d3565b975061568a60408b016153e8565b965060608a0135955060808a013567ffffffffffffffff808211156156ae57600080fd5b6156ba8d838e016154a5565b965060a08c01359150808211156156d057600080fd5b506156dd8c828d016154a5565b9450506156ec60c08b01615637565b925060e08a013591506101008a013590509295985092959850929598565b6000806040838503121561571d57600080fd5b8235615728816153d3565b946020939093013593505050565b801515811461188957600080fd5b6000806000806060858703121561575a57600080fd5b8435615765816153d3565b9350602085013561577581615736565b9250604085013567ffffffffffffffff8082111561579257600080fd5b818701915087601f8301126157a657600080fd5b8135818111156157b557600080fd5b8860208285010111156157c757600080fd5b95989497505060200194505050565b6000602082840312156157e857600080fd5b813567ffffffffffffffff8111156157ff57600080fd5b8201601f8101841361581057600080fd5b6134cc84823560208401615467565b6020808252825182820181905260009190848201906040850190845b818110156158605783516001600160a01b03168352928401929184019160010161583b565b50909695505050505050565b6000806040838503121561587f57600080fd5b823561588a816153d3565b9150602083013561589a816153d3565b809150509250929050565b6000806000606084860312156158ba57600080fd5b83356158c5816153d3565b925060208401356158d5816153d3565b929592945050506040919091013590565b6000806000606084860312156158fb57600080fd5b8335615906816153d3565b925060208401359150604084013561591d816153d3565b809150509250925092565b60006020828403121561593a57600080fd5b815161093281615628565b60006020828403121561595757600080fd5b5051919050565b600181811c9082168061597257607f821691505b60208210811415610baf57634e487b7160e01b600052602260045260246000fd5b634e487b7160e01b600052602160045260246000fd5b6000602082840312156159bb57600080fd5b815161093281615736565b6000806000606084860312156159db57600080fd5b83516159e6816153d3565b60208501519093506159f781615736565b604085015190925067ffffffffffffffff811115615a1457600080fd5b8401601f81018613615a2557600080fd5b8051615a336154758261543f565b818152876020838501011115615a4857600080fd5b615a59826020830160208601615587565b8093505050509250925092565b60208082526006908201526510b0b236b4b760d11b604082015260600190565b634e487b7160e01b600052601160045260246000fd5b60008219821115615aaf57615aaf615a86565b500190565b600060208284031215615ac657600080fd5b8151610932816153d3565b600082821015615ae357615ae3615a86565b500390565b600067ffffffffffffffff821115615b0257615b026153f8565b5060051b60200190565b60006020808385031215615b1f57600080fd5b825167ffffffffffffffff811115615b3657600080fd5b8301601f81018513615b4757600080fd5b8051615b5561547582615ae8565b81815260059190911b82018301908381019087831115615b7457600080fd5b928401925b82841015612cb0578351615b8c816153d3565b82529284019290840190615b79565b634e487b7160e01b600052603260045260246000fd5b6000600019821415615bc557615bc5615a86565b5060010190565b6001600160a01b039384168152919092166020820152604081019190915260600190565b600082615c0d57634e487b7160e01b600052601260045260246000fd5b500490565b634e487b7160e01b600052603160045260246000fd5b600060ff821660ff811415615c3f57615c3f615a86565b60010192915050565b60008251615c5a818460208701615587565b9190910192915050565b60008060408385031215615c7757600080fd5b505080516020909101519092909150565b60006020808385031215615c9b57600080fd5b825167ffffffffffffffff811115615cb257600080fd5b8301601f81018513615cc357600080fd5b8051615cd161547582615ae8565b81815260059190911b82018301908381019087831115615cf057600080fd5b928401925b82841015612cb05783516001600160e01b031981168114615d165760008081fd5b82529284019290840190615cf5565b634e487b7160e01b600052600160045260246000fd5b600061ffff80831681811415615d5357615d53615a86565b6001019392505050565b6000816000190483118215151615615d7757615d77615a86565b50029056fec8fcad8db84d3cc18b4c41d551ea0ee66dd599cde068d998e57d5e09332c131cddf252ad1be2c89b69c2b068fc378daa952ba7f163c4a11628f55a4df523b3efa164736f6c634300080a000a",
    "linkReferences": {}
  },
  "methodIdentifiers": {
    "_becomeImplementation(bytes)": "56e67728",
    "_listExtensions()": "6333d001",
    "_prepare()": "1db78944",
    "_registerExtension(address,address)": "89cd9855",
    "_setImplementationSafe(address,bool,bytes)": "50d85b73",
    "_updatePlugin(address)": "19f496c8",
    "_withdrawAdminFees(uint256)": "a7b820df",
    "_withdrawFuseFees(uint256)": "a03dce8d",
    "accrualBlockNumber()": "6c540baf",
    "adminFeeMantissa()": "8d02d9a1",
    "asCTokenExtensionInterface()": "9f5ef272",
    "borrow(uint256)": "c5ebeaec",
    "borrowBalanceCurrent(address)": "17bfdfbc",
    "borrowBalanceStored(address)": "95dd9193",
    "borrowIndex()": "aa5af0fd",
    "comptroller()": "5fe3b567",
    "contractType()": "cb2ef6f7",
    "decimals()": "313ce567",
    "feeSeizeShareMantissa()": "be99f119",
    "forceRedeemAgEurUsers()": "5dde3034",
    "fuseAdmin()": "15761d51",
    "fuseFeeMantissa()": "dbfe7c19",
    "getAccountSnapshot(address)": "c37f68e2",
    "getCash()": "3b1d21a2",
    "implementation()": "5c60da1b",
    "initialize(address,address,address,address,string,string,uint256,uint256)": "06db3ecd",
    "initialize(address,address,address,uint256,string,string,uint8,uint256,uint256)": "219ef65c",
    "interestRateModel()": "f3fdb15a",
    "isCEther()": "ac784ddc",
    "isCToken()": "fe9c44ae",
    "liquidateBorrow(address,uint256,address)": "f5e3c462",
    "mint(uint256)": "a0712d68",
    "name()": "06fdde03",
    "plugin()": "ef01df4f",
    "protocolSeizeShareMantissa()": "6752e702",
    "redeem(uint256)": "db006a75",
    "redeemUnderlying(uint256)": "852a12e3",
    "repayBorrow(uint256)": "0e752702",
    "repayBorrowBehalf(address,uint256)": "2608f818",
    "reserveFactorMantissa()": "173b9904",
    "seize(address,address,uint256)": "b2a02ff1",
    "symbol()": "95d89b41",
    "totalAdminFees()": "61feacff",
    "totalBorrows()": "47bd3718",
    "totalFuseFees()": "dc028ab1",
    "totalReserves()": "8f840ddd",
    "totalSupply()": "18160ddd",
    "underlying()": "6f307dc3"
  }
}