{
  "address": "0x16ef27F620cd4B9c3C6BF57E9821F8d52E055E8E",
  "abi": [
    {
      "inputs": [
        {
          "internalType": "bytes4",
          "name": "_functionSelector",
          "type": "bytes4"
        }
      ],
      "name": "ExtensionNotFound",
      "type": "error"
    },
    {
      "inputs": [
        {
          "internalType": "bytes4",
          "name": "_functionSelector",
          "type": "bytes4"
        },
        {
          "internalType": "address",
          "name": "_currentImpl",
          "type": "address"
        }
      ],
      "name": "FunctionAlreadyAdded",
      "type": "error"
    },
    {
      "inputs": [
        {
          "internalType": "bytes4",
          "name": "_functionSelector",
          "type": "bytes4"
        }
      ],
      "name": "FunctionNotFound",
      "type": "error"
    },
    {
      "anonymous": false,
      "inputs": [
        {
          "indexed": false,
          "internalType": "uint256",
          "name": "cashPrior",
          "type": "uint256"
        },
        {
          "indexed": false,
          "internalType": "uint256",
          "name": "interestAccumulated",
          "type": "uint256"
        },
        {
          "indexed": false,
          "internalType": "uint256",
          "name": "borrowIndex",
          "type": "uint256"
        },
        {
          "indexed": false,
          "internalType": "uint256",
          "name": "totalBorrows",
          "type": "uint256"
        }
      ],
      "name": "AccrueInterest",
      "type": "event"
    },
    {
      "anonymous": false,
      "inputs": [
        {
          "indexed": true,
          "internalType": "address",
          "name": "owner",
          "type": "address"
        },
        {
          "indexed": true,
          "internalType": "address",
          "name": "spender",
          "type": "address"
        },
        {
          "indexed": false,
          "internalType": "uint256",
          "name": "amount",
          "type": "uint256"
        }
      ],
      "name": "Approval",
      "type": "event"
    },
    {
      "anonymous": false,
      "inputs": [
        {
          "indexed": false,
          "internalType": "address",
          "name": "borrower",
          "type": "address"
        },
        {
          "indexed": false,
          "internalType": "uint256",
          "name": "borrowAmount",
          "type": "uint256"
        },
        {
          "indexed": false,
          "internalType": "uint256",
          "name": "accountBorrows",
          "type": "uint256"
        },
        {
          "indexed": false,
          "internalType": "uint256",
          "name": "totalBorrows",
          "type": "uint256"
        }
      ],
      "name": "Borrow",
      "type": "event"
    },
    {
      "anonymous": false,
      "inputs": [
        {
          "indexed": false,
          "internalType": "uint256",
          "name": "error",
          "type": "uint256"
        },
        {
          "indexed": false,
          "internalType": "uint256",
          "name": "info",
          "type": "uint256"
        },
        {
          "indexed": false,
          "internalType": "uint256",
          "name": "detail",
          "type": "uint256"
        }
      ],
      "name": "Failure",
      "type": "event"
    },
    {
      "anonymous": false,
      "inputs": [
        {
          "indexed": false,
          "internalType": "address",
          "name": "liquidator",
          "type": "address"
        },
        {
          "indexed": false,
          "internalType": "address",
          "name": "borrower",
          "type": "address"
        },
        {
          "indexed": false,
          "internalType": "uint256",
          "name": "repayAmount",
          "type": "uint256"
        },
        {
          "indexed": false,
          "internalType": "address",
          "name": "cTokenCollateral",
          "type": "address"
        },
        {
          "indexed": false,
          "internalType": "uint256",
          "name": "seizeTokens",
          "type": "uint256"
        }
      ],
      "name": "LiquidateBorrow",
      "type": "event"
    },
    {
      "anonymous": false,
      "inputs": [
        {
          "indexed": false,
          "internalType": "address",
          "name": "minter",
          "type": "address"
        },
        {
          "indexed": false,
          "internalType": "uint256",
          "name": "mintAmount",
          "type": "uint256"
        },
        {
          "indexed": false,
          "internalType": "uint256",
          "name": "mintTokens",
          "type": "uint256"
        }
      ],
      "name": "Mint",
      "type": "event"
    },
    {
      "anonymous": false,
      "inputs": [
        {
          "indexed": false,
          "internalType": "uint256",
          "name": "oldAdminFeeMantissa",
          "type": "uint256"
        },
        {
          "indexed": false,
          "internalType": "uint256",
          "name": "newAdminFeeMantissa",
          "type": "uint256"
        }
      ],
      "name": "NewAdminFee",
      "type": "event"
    },
    {
      "anonymous": false,
      "inputs": [
        {
          "indexed": false,
          "internalType": "uint256",
          "name": "oldFuseFeeMantissa",
          "type": "uint256"
        },
        {
          "indexed": false,
          "internalType": "uint256",
          "name": "newFuseFeeMantissa",
          "type": "uint256"
        }
      ],
      "name": "NewFuseFee",
      "type": "event"
    },
    {
      "anonymous": false,
      "inputs": [
        {
          "indexed": false,
          "internalType": "address",
          "name": "oldImplementation",
          "type": "address"
        },
        {
          "indexed": false,
          "internalType": "address",
          "name": "newImplementation",
          "type": "address"
        }
      ],
      "name": "NewImplementation",
      "type": "event"
    },
    {
      "anonymous": false,
      "inputs": [
        {
          "indexed": false,
          "internalType": "contract InterestRateModel",
          "name": "oldInterestRateModel",
          "type": "address"
        },
        {
          "indexed": false,
          "internalType": "contract InterestRateModel",
          "name": "newInterestRateModel",
          "type": "address"
        }
      ],
      "name": "NewMarketInterestRateModel",
      "type": "event"
    },
    {
      "anonymous": false,
      "inputs": [
        {
          "indexed": false,
          "internalType": "address",
          "name": "oldImpl",
          "type": "address"
        },
        {
          "indexed": false,
          "internalType": "address",
          "name": "newImpl",
          "type": "address"
        }
      ],
      "name": "NewPluginImplementation",
      "type": "event"
    },
    {
      "anonymous": false,
      "inputs": [
        {
          "indexed": false,
          "internalType": "uint256",
          "name": "oldReserveFactorMantissa",
          "type": "uint256"
        },
        {
          "indexed": false,
          "internalType": "uint256",
          "name": "newReserveFactorMantissa",
          "type": "uint256"
        }
      ],
      "name": "NewReserveFactor",
      "type": "event"
    },
    {
      "anonymous": false,
      "inputs": [
        {
          "indexed": false,
          "internalType": "address",
          "name": "redeemer",
          "type": "address"
        },
        {
          "indexed": false,
          "internalType": "uint256",
          "name": "redeemAmount",
          "type": "uint256"
        },
        {
          "indexed": false,
          "internalType": "uint256",
          "name": "redeemTokens",
          "type": "uint256"
        }
      ],
      "name": "Redeem",
      "type": "event"
    },
    {
      "anonymous": false,
      "inputs": [
        {
          "indexed": false,
          "internalType": "address",
          "name": "payer",
          "type": "address"
        },
        {
          "indexed": false,
          "internalType": "address",
          "name": "borrower",
          "type": "address"
        },
        {
          "indexed": false,
          "internalType": "uint256",
          "name": "repayAmount",
          "type": "uint256"
        },
        {
          "indexed": false,
          "internalType": "uint256",
          "name": "accountBorrows",
          "type": "uint256"
        },
        {
          "indexed": false,
          "internalType": "uint256",
          "name": "totalBorrows",
          "type": "uint256"
        }
      ],
      "name": "RepayBorrow",
      "type": "event"
    },
    {
      "anonymous": false,
      "inputs": [
        {
          "indexed": false,
          "internalType": "address",
          "name": "benefactor",
          "type": "address"
        },
        {
          "indexed": false,
          "internalType": "uint256",
          "name": "addAmount",
          "type": "uint256"
        },
        {
          "indexed": false,
          "internalType": "uint256",
          "name": "newTotalReserves",
          "type": "uint256"
        }
      ],
      "name": "ReservesAdded",
      "type": "event"
    },
    {
      "anonymous": false,
      "inputs": [
        {
          "indexed": false,
          "internalType": "address",
          "name": "admin",
          "type": "address"
        },
        {
          "indexed": false,
          "internalType": "uint256",
          "name": "reduceAmount",
          "type": "uint256"
        },
        {
          "indexed": false,
          "internalType": "uint256",
          "name": "newTotalReserves",
          "type": "uint256"
        }
      ],
      "name": "ReservesReduced",
      "type": "event"
    },
    {
      "anonymous": false,
      "inputs": [
        {
          "indexed": true,
          "internalType": "address",
          "name": "from",
          "type": "address"
        },
        {
          "indexed": true,
          "internalType": "address",
          "name": "to",
          "type": "address"
        },
        {
          "indexed": false,
          "internalType": "uint256",
          "name": "amount",
          "type": "uint256"
        }
      ],
      "name": "Transfer",
      "type": "event"
    },
    {
      "stateMutability": "nonpayable",
      "type": "fallback"
    },
    {
      "inputs": [
        {
          "internalType": "bytes",
          "name": "data",
          "type": "bytes"
        }
      ],
      "name": "_becomeImplementation",
      "outputs": [],
      "stateMutability": "nonpayable",
      "type": "function"
    },
    {
      "inputs": [],
      "name": "_listExtensions",
      "outputs": [
        {
          "internalType": "address[]",
          "name": "",
          "type": "address[]"
        }
      ],
      "stateMutability": "view",
      "type": "function"
    },
    {
      "inputs": [],
      "name": "_prepare",
      "outputs": [],
      "stateMutability": "payable",
      "type": "function"
    },
    {
      "inputs": [
        {
          "internalType": "contract DiamondExtension",
          "name": "extensionToAdd",
          "type": "address"
        },
        {
          "internalType": "contract DiamondExtension",
          "name": "extensionToReplace",
          "type": "address"
        }
      ],
      "name": "_registerExtension",
      "outputs": [],
      "stateMutability": "nonpayable",
      "type": "function"
    },
    {
      "inputs": [
        {
          "internalType": "address",
          "name": "implementation_",
          "type": "address"
        },
        {
          "internalType": "bool",
          "name": "allowResign",
          "type": "bool"
        },
        {
          "internalType": "bytes",
          "name": "becomeImplementationData",
          "type": "bytes"
        }
      ],
      "name": "_setImplementationSafe",
      "outputs": [],
      "stateMutability": "nonpayable",
      "type": "function"
    },
    {
      "inputs": [
        {
          "internalType": "address",
          "name": "_plugin",
          "type": "address"
        }
      ],
      "name": "_updatePlugin",
      "outputs": [],
      "stateMutability": "nonpayable",
      "type": "function"
    },
    {
      "inputs": [
        {
          "internalType": "uint256",
          "name": "withdrawAmount",
          "type": "uint256"
        }
      ],
      "name": "_withdrawAdminFees",
      "outputs": [
        {
          "internalType": "uint256",
          "name": "",
          "type": "uint256"
        }
      ],
      "stateMutability": "nonpayable",
      "type": "function"
    },
    {
      "inputs": [
        {
          "internalType": "uint256",
          "name": "withdrawAmount",
          "type": "uint256"
        }
      ],
      "name": "_withdrawFuseFees",
      "outputs": [
        {
          "internalType": "uint256",
          "name": "",
          "type": "uint256"
        }
      ],
      "stateMutability": "nonpayable",
      "type": "function"
    },
    {
      "inputs": [],
      "name": "accrualBlockNumber",
      "outputs": [
        {
          "internalType": "uint256",
          "name": "",
          "type": "uint256"
        }
      ],
      "stateMutability": "view",
      "type": "function"
    },
    {
      "inputs": [],
      "name": "adminFeeMantissa",
      "outputs": [
        {
          "internalType": "uint256",
          "name": "",
          "type": "uint256"
        }
      ],
      "stateMutability": "view",
      "type": "function"
    },
    {
      "inputs": [
        {
          "internalType": "address",
          "name": "_token",
          "type": "address"
        },
        {
          "internalType": "address",
          "name": "_spender",
          "type": "address"
        }
      ],
      "name": "approve",
      "outputs": [],
      "stateMutability": "nonpayable",
      "type": "function"
    },
    {
      "inputs": [],
      "name": "asCTokenExtensionInterface",
      "outputs": [
        {
          "internalType": "contract CTokenExtensionInterface",
          "name": "",
          "type": "address"
        }
      ],
      "stateMutability": "view",
      "type": "function"
    },
    {
      "inputs": [
        {
          "internalType": "uint256",
          "name": "borrowAmount",
          "type": "uint256"
        }
      ],
      "name": "borrow",
      "outputs": [
        {
          "internalType": "uint256",
          "name": "",
          "type": "uint256"
        }
      ],
      "stateMutability": "nonpayable",
      "type": "function"
    },
    {
      "inputs": [
        {
          "internalType": "address",
          "name": "account",
          "type": "address"
        }
      ],
      "name": "borrowBalanceCurrent",
      "outputs": [
        {
          "internalType": "uint256",
          "name": "",
          "type": "uint256"
        }
      ],
      "stateMutability": "nonpayable",
      "type": "function"
    },
    {
      "inputs": [
        {
          "internalType": "address",
          "name": "account",
          "type": "address"
        }
      ],
      "name": "borrowBalanceStored",
      "outputs": [
        {
          "internalType": "uint256",
          "name": "",
          "type": "uint256"
        }
      ],
      "stateMutability": "view",
      "type": "function"
    },
    {
      "inputs": [],
      "name": "borrowIndex",
      "outputs": [
        {
          "internalType": "uint256",
          "name": "",
          "type": "uint256"
        }
      ],
      "stateMutability": "view",
      "type": "function"
    },
    {
      "inputs": [],
      "name": "claim",
      "outputs": [],
      "stateMutability": "nonpayable",
      "type": "function"
    },
    {
      "inputs": [],
      "name": "comptroller",
      "outputs": [
        {
          "internalType": "contract ComptrollerInterface",
          "name": "",
          "type": "address"
        }
      ],
      "stateMutability": "view",
      "type": "function"
    },
    {
      "inputs": [],
      "name": "contractType",
      "outputs": [
        {
          "internalType": "string",
          "name": "",
          "type": "string"
        }
      ],
      "stateMutability": "pure",
      "type": "function"
    },
    {
      "inputs": [],
      "name": "decimals",
      "outputs": [
        {
          "internalType": "uint8",
          "name": "",
          "type": "uint8"
        }
      ],
      "stateMutability": "view",
      "type": "function"
    },
    {
      "inputs": [],
      "name": "feeSeizeShareMantissa",
      "outputs": [
        {
          "internalType": "uint256",
          "name": "",
          "type": "uint256"
        }
      ],
      "stateMutability": "view",
      "type": "function"
    },
    {
      "inputs": [],
      "name": "fuseAdmin",
      "outputs": [
        {
          "internalType": "address payable",
          "name": "",
          "type": "address"
        }
      ],
      "stateMutability": "view",
      "type": "function"
    },
    {
      "inputs": [],
      "name": "fuseFeeMantissa",
      "outputs": [
        {
          "internalType": "uint256",
          "name": "",
          "type": "uint256"
        }
      ],
      "stateMutability": "view",
      "type": "function"
    },
    {
      "inputs": [
        {
          "internalType": "address",
          "name": "account",
          "type": "address"
        }
      ],
      "name": "getAccountSnapshot",
      "outputs": [
        {
          "internalType": "uint256",
          "name": "",
          "type": "uint256"
        },
        {
          "internalType": "uint256",
          "name": "",
          "type": "uint256"
        },
        {
          "internalType": "uint256",
          "name": "",
          "type": "uint256"
        },
        {
          "internalType": "uint256",
          "name": "",
          "type": "uint256"
        }
      ],
      "stateMutability": "view",
      "type": "function"
    },
    {
      "inputs": [],
      "name": "getCash",
      "outputs": [
        {
          "internalType": "uint256",
          "name": "",
          "type": "uint256"
        }
      ],
      "stateMutability": "view",
      "type": "function"
    },
    {
      "inputs": [],
      "name": "implementation",
      "outputs": [
        {
          "internalType": "address",
          "name": "",
          "type": "address"
        }
      ],
      "stateMutability": "view",
      "type": "function"
    },
    {
      "inputs": [
        {
          "internalType": "address",
          "name": "underlying_",
          "type": "address"
        },
        {
          "internalType": "contract ComptrollerInterface",
          "name": "comptroller_",
          "type": "address"
        },
        {
          "internalType": "address payable",
          "name": "fuseAdmin_",
          "type": "address"
        },
        {
          "internalType": "contract InterestRateModel",
          "name": "interestRateModel_",
          "type": "address"
        },
        {
          "internalType": "string",
          "name": "name_",
          "type": "string"
        },
        {
          "internalType": "string",
          "name": "symbol_",
          "type": "string"
        },
        {
          "internalType": "uint256",
          "name": "reserveFactorMantissa_",
          "type": "uint256"
        },
        {
          "internalType": "uint256",
          "name": "adminFeeMantissa_",
          "type": "uint256"
        }
      ],
      "name": "initialize",
      "outputs": [],
      "stateMutability": "nonpayable",
      "type": "function"
    },
    {
      "inputs": [
        {
          "internalType": "contract ComptrollerInterface",
          "name": "comptroller_",
          "type": "address"
        },
        {
          "internalType": "address payable",
          "name": "fuseAdmin_",
          "type": "address"
        },
        {
          "internalType": "contract InterestRateModel",
          "name": "interestRateModel_",
          "type": "address"
        },
        {
          "internalType": "uint256",
          "name": "initialExchangeRateMantissa_",
          "type": "uint256"
        },
        {
          "internalType": "string",
          "name": "name_",
          "type": "string"
        },
        {
          "internalType": "string",
          "name": "symbol_",
          "type": "string"
        },
        {
          "internalType": "uint8",
          "name": "decimals_",
          "type": "uint8"
        },
        {
          "internalType": "uint256",
          "name": "reserveFactorMantissa_",
          "type": "uint256"
        },
        {
          "internalType": "uint256",
          "name": "adminFeeMantissa_",
          "type": "uint256"
        }
      ],
      "name": "initialize",
      "outputs": [],
      "stateMutability": "nonpayable",
      "type": "function"
    },
    {
      "inputs": [],
      "name": "interestRateModel",
      "outputs": [
        {
          "internalType": "contract InterestRateModel",
          "name": "",
          "type": "address"
        }
      ],
      "stateMutability": "view",
      "type": "function"
    },
    {
      "inputs": [],
      "name": "isCEther",
      "outputs": [
        {
          "internalType": "bool",
          "name": "",
          "type": "bool"
        }
      ],
      "stateMutability": "nonpayable",
      "type": "function"
    },
    {
      "inputs": [],
      "name": "isCToken",
      "outputs": [
        {
          "internalType": "bool",
          "name": "",
          "type": "bool"
        }
      ],
      "stateMutability": "nonpayable",
      "type": "function"
    },
    {
      "inputs": [
        {
          "internalType": "address",
          "name": "borrower",
          "type": "address"
        },
        {
          "internalType": "uint256",
          "name": "repayAmount",
          "type": "uint256"
        },
        {
          "internalType": "contract CTokenInterface",
          "name": "cTokenCollateral",
          "type": "address"
        }
      ],
      "name": "liquidateBorrow",
      "outputs": [
        {
          "internalType": "uint256",
          "name": "",
          "type": "uint256"
        }
      ],
      "stateMutability": "nonpayable",
      "type": "function"
    },
    {
      "inputs": [
        {
          "internalType": "uint256",
          "name": "mintAmount",
          "type": "uint256"
        }
      ],
      "name": "mint",
      "outputs": [
        {
          "internalType": "uint256",
          "name": "",
          "type": "uint256"
        }
      ],
      "stateMutability": "nonpayable",
      "type": "function"
    },
    {
      "inputs": [],
      "name": "name",
      "outputs": [
        {
          "internalType": "string",
          "name": "",
          "type": "string"
        }
      ],
      "stateMutability": "view",
      "type": "function"
    },
    {
      "inputs": [],
      "name": "plugin",
      "outputs": [
        {
          "internalType": "contract IERC4626",
          "name": "",
          "type": "address"
        }
      ],
      "stateMutability": "view",
      "type": "function"
    },
    {
      "inputs": [],
      "name": "protocolSeizeShareMantissa",
      "outputs": [
        {
          "internalType": "uint256",
          "name": "",
          "type": "uint256"
        }
      ],
      "stateMutability": "view",
      "type": "function"
    },
    {
      "inputs": [
        {
          "internalType": "uint256",
          "name": "redeemTokens",
          "type": "uint256"
        }
      ],
      "name": "redeem",
      "outputs": [
        {
          "internalType": "uint256",
          "name": "",
          "type": "uint256"
        }
      ],
      "stateMutability": "nonpayable",
      "type": "function"
    },
    {
      "inputs": [
        {
          "internalType": "uint256",
          "name": "redeemAmount",
          "type": "uint256"
        }
      ],
      "name": "redeemUnderlying",
      "outputs": [
        {
          "internalType": "uint256",
          "name": "",
          "type": "uint256"
        }
      ],
      "stateMutability": "nonpayable",
      "type": "function"
    },
    {
      "inputs": [
        {
          "internalType": "uint256",
          "name": "repayAmount",
          "type": "uint256"
        }
      ],
      "name": "repayBorrow",
      "outputs": [
        {
          "internalType": "uint256",
          "name": "",
          "type": "uint256"
        }
      ],
      "stateMutability": "nonpayable",
      "type": "function"
    },
    {
      "inputs": [
        {
          "internalType": "address",
          "name": "borrower",
          "type": "address"
        },
        {
          "internalType": "uint256",
          "name": "repayAmount",
          "type": "uint256"
        }
      ],
      "name": "repayBorrowBehalf",
      "outputs": [
        {
          "internalType": "uint256",
          "name": "",
          "type": "uint256"
        }
      ],
      "stateMutability": "nonpayable",
      "type": "function"
    },
    {
      "inputs": [],
      "name": "reserveFactorMantissa",
      "outputs": [
        {
          "internalType": "uint256",
          "name": "",
          "type": "uint256"
        }
      ],
      "stateMutability": "view",
      "type": "function"
    },
    {
      "inputs": [
        {
          "internalType": "address",
          "name": "liquidator",
          "type": "address"
        },
        {
          "internalType": "address",
          "name": "borrower",
          "type": "address"
        },
        {
          "internalType": "uint256",
          "name": "seizeTokens",
          "type": "uint256"
        }
      ],
      "name": "seize",
      "outputs": [
        {
          "internalType": "uint256",
          "name": "",
          "type": "uint256"
        }
      ],
      "stateMutability": "nonpayable",
      "type": "function"
    },
    {
      "inputs": [],
      "name": "symbol",
      "outputs": [
        {
          "internalType": "string",
          "name": "",
          "type": "string"
        }
      ],
      "stateMutability": "view",
      "type": "function"
    },
    {
      "inputs": [],
      "name": "totalAdminFees",
      "outputs": [
        {
          "internalType": "uint256",
          "name": "",
          "type": "uint256"
        }
      ],
      "stateMutability": "view",
      "type": "function"
    },
    {
      "inputs": [],
      "name": "totalBorrows",
      "outputs": [
        {
          "internalType": "uint256",
          "name": "",
          "type": "uint256"
        }
      ],
      "stateMutability": "view",
      "type": "function"
    },
    {
      "inputs": [],
      "name": "totalFuseFees",
      "outputs": [
        {
          "internalType": "uint256",
          "name": "",
          "type": "uint256"
        }
      ],
      "stateMutability": "view",
      "type": "function"
    },
    {
      "inputs": [],
      "name": "totalReserves",
      "outputs": [
        {
          "internalType": "uint256",
          "name": "",
          "type": "uint256"
        }
      ],
      "stateMutability": "view",
      "type": "function"
    },
    {
      "inputs": [],
      "name": "totalSupply",
      "outputs": [
        {
          "internalType": "uint256",
          "name": "",
          "type": "uint256"
        }
      ],
      "stateMutability": "view",
      "type": "function"
    },
    {
      "inputs": [],
      "name": "underlying",
      "outputs": [
        {
          "internalType": "address",
          "name": "",
          "type": "address"
        }
      ],
      "stateMutability": "view",
      "type": "function"
    }
  ],
  "transactionHash": "0x31643c18e416ec8046de6d2393b8486c07912035cce3c1e8bcfff4378bd93525",
  "args": [],
  "numDeployments": 24,
  "bytecode": {
    "object": "0x608060405234801561001057600080fd5b50615ef780620000216000396000f3fe6080604052600436106102ae5760003560e01c80637e5465ba11610175578063ac784ddc116100dc578063db006a7511610095578063ef01df4f1161006f578063ef01df4f146108a0578063f3fdb15a146108c0578063f5e3c462146108e0578063fe9c44ae14610900576102ae565b8063db006a7514610854578063dbfe7c1914610874578063dc028ab11461088a576102ae565b8063ac784ddc14610752578063b2a02ff114610772578063be99f11914610792578063c37f68e2146107ae578063c5ebeaec146107ee578063cb2ef6f71461080e576102ae565b806395dd91931161012e57806395dd9193146106a95780639f5ef272146106c9578063a03dce8d146106dc578063a0712d68146106fc578063a7b820df1461071c578063aa5af0fd1461073c576102ae565b80637e5465ba14610608578063852a12e31461062857806389cd9855146106485780638d02d9a1146106685780638f840ddd1461067e57806395d89b4114610694576102ae565b80633b1d21a2116102195780635fe3b567116101d25780635fe3b5671461055f57806361feacff1461057f5780636333d001146105955780636752e702146105b75780636c540baf146105d25780636f307dc3146105e8576102ae565b80633b1d21a2146104c557806347bd3718146104da5780634e71d92d146104f057806350d85b73146104ff57806356e677281461051f5780635c60da1b1461053f576102ae565b806318160ddd1161026b57806318160ddd1461041b57806319f496c8146104315780631db7894414610451578063219ef65c146104595780632608f81814610479578063313ce56714610499576102ae565b806306db3ecd1461033257806306fdde03146103545780630e7527021461037f57806315761d51146103ad578063173b9904146103e557806317bfdfbc146103fb575b3480156102ba57600080fd5b5060006102d26000356001600160e01b031916610914565b90506001600160a01b03811661030e57604051630a82dd7360e31b81526001600160e01b03196000351660048201526024015b60405180910390fd5b3660008037600080366000845af43d6000803e80801561032d573d6000f35b3d6000fd5b34801561033e57600080fd5b5061035261034d3660046154fd565b610977565b005b34801561036057600080fd5b50610369610a85565b6040516103769190615617565b60405180910390f35b34801561038b57600080fd5b5061039f61039a36600461562a565b610b13565b604051908152602001610376565b3480156103b957600080fd5b506001546103cd906001600160a01b031681565b6040516001600160a01b039091168152602001610376565b3480156103f157600080fd5b5061039f600b5481565b34801561040757600080fd5b5061039f610416366004615643565b610b27565b34801561042757600080fd5b5061039f60125481565b34801561043d57600080fd5b5061035261044c366004615643565b610bf3565b610352611024565b34801561046557600080fd5b5061035261047436600461567a565b611162565b34801561048557600080fd5b5061039f610494366004615742565b6115a5565b3480156104a557600080fd5b506005546104b39060ff1681565b60405160ff9091168152602001610376565b3480156104d157600080fd5b5061039f6115bd565b3480156104e657600080fd5b5061039f600e5481565b3480156104fc57600080fd5b50005b34801561050b57600080fd5b5061035261051a36600461577c565b6115cc565b34801561052b57600080fd5b5061035261053a36600461580e565b611637565b34801561054b57600080fd5b506000546103cd906001600160a01b031681565b34801561056b57600080fd5b506006546103cd906001600160a01b031681565b34801561058b57600080fd5b5061039f60105481565b3480156105a157600080fd5b506105aa611799565b6040516103769190615857565b3480156105c357600080fd5b5061039f666379da05b6000081565b3480156105de57600080fd5b5061039f600c5481565b3480156105f457600080fd5b506016546103cd906001600160a01b031681565b34801561061457600080fd5b506103526106233660046158a4565b6117a3565b34801561063457600080fd5b5061039f61064336600461562a565b611897565b34801561065457600080fd5b506103526106633660046158a4565b6118a2565b34801561067457600080fd5b5061039f60095481565b34801561068a57600080fd5b5061039f600f5481565b3480156106a057600080fd5b50610369611976565b3480156106b557600080fd5b5061039f6106c4366004615643565b611983565b3480156106d557600080fd5b50306103cd565b3480156106e857600080fd5b5061039f6106f736600461562a565b611aa7565b34801561070857600080fd5b5061039f61071736600461562a565b611bc8565b34801561072857600080fd5b5061039f61073736600461562a565b611bd4565b34801561074857600080fd5b5061039f600d5481565b34801561075e57600080fd5b5060005b6040519015158152602001610376565b34801561077e57600080fd5b5061039f61078d3660046158dd565b611d45565b34801561079e57600080fd5b5061039f67016345785d8a000081565b3480156107ba57600080fd5b506107ce6107c9366004615643565b611d69565b604080519485526020850193909352918301526060820152608001610376565b3480156107fa57600080fd5b5061039f61080936600461562a565b611e09565b34801561081a57600080fd5b5060408051808201909152601b81527f434572633230506c7567696e5265776172647344656c656761746500000000006020820152610369565b34801561086057600080fd5b5061039f61086f36600461562a565b611e14565b34801561088057600080fd5b5061039f600a5481565b34801561089657600080fd5b5061039f60115481565b3480156108ac57600080fd5b506017546103cd906001600160a01b031681565b3480156108cc57600080fd5b506007546103cd906001600160a01b031681565b3480156108ec57600080fd5b5061039f6108fb36600461591e565b611e1f565b34801561090c57600080fd5b506001610762565b6001600160e01b031981166000908152600080516020615eab833981519152602081905260408220546001600160a01b03168061097057604051631f3f429960e31b81526001600160e01b031985166004820152602401610305565b9392505050565b60006702c68af0bb14000090506000896001600160a01b031663313ce5676040518163ffffffff1660e01b8152600401602060405180830381865afa1580156109c4573d6000803e3d6000fd5b505050506040513d601f19601f820116820180604052508101906109e89190615960565b90506109fb898989858a8a878b8b611162565b601680546001600160a01b0319166001600160a01b038c16908117909155604080516318160ddd60e01b815290516318160ddd916004808201926020929091908290030181865afa158015610a54573d6000803e3d6000fd5b505050506040513d601f19601f82011682018060405250810190610a78919061597d565b5050505050505050505050565b60038054610a9290615996565b80601f0160208091040260200160405190810160405280929190818152602001828054610abe90615996565b8015610b0b5780601f10610ae057610100808354040283529160200191610b0b565b820191906000526020600020905b815481529060010190602001808311610aee57829003601f168201915b505050505081565b600080610b1f83611e37565b509392505050565b600080610b3381611efb565b6000306001600160a01b031663a6afed956040518163ffffffff1660e01b81526004016020604051808303816000875af1158015610b75573d6000803e3d6000fd5b505050506040513d601f19601f82011682018060405250810190610b99919061597d565b14610bd85760405162461bcd60e51b815260206004820152600f60248201526e085858d8dc9d59525b9d195c995cdd608a1b6044820152606401610305565b610be183611983565b91505b610bed81611fbf565b50919050565b33301480610c045750610c04612043565b610c645760405162461bcd60e51b815260206004820152602b60248201527f6f6e6c792073656c6620616e642061646d696e732063616e2063616c6c205f7560448201526a383230ba32a8363ab3b4b760a91b6064820152608401610305565b6017546000906001600160a01b0316610c7d5781610c8a565b6017546001600160a01b03165b600154604051637583efcf60e01b81526001600160a01b0380841660048301528581166024830152929350911690637583efcf90604401602060405180830381865afa158015610cde573d6000803e3d6000fd5b505050506040513d601f19601f82011682018060405250810190610d0291906159e1565b610d5c5760405162461bcd60e51b815260206004820152602560248201527f706c7567696e20696d706c656d656e746174696f6e206e6f742077686974656c6044820152641a5cdd195960da1b6064820152608401610305565b6017546001600160a01b031615801590610de057506017546040516370a0823160e01b81523060048201526001600160a01b03909116906370a0823190602401602060405180830381865afa158015610db9573d6000803e3d6000fd5b505050506040513d601f19601f82011682018060405250810190610ddd919061597d565b15155b15610eca576017546040516370a0823160e01b81523060048201526001600160a01b039091169063ba0876529082906370a0823190602401602060405180830381865afa158015610e35573d6000803e3d6000fd5b505050506040513d601f19601f82011682018060405250810190610e59919061597d565b6040516001600160e01b031960e084901b1681526004810191909152306024820181905260448201526064016020604051808303816000875af1158015610ea4573d6000803e3d6000fd5b505050506040513d601f19601f82011682018060405250810190610ec8919061597d565b505b601780546001600160a01b0319166001600160a01b0384811691821790925560165460405163095ea7b360e01b8152600481019290925260001960248301529091169063095ea7b3906044016020604051808303816000875af1158015610f35573d6000803e3d6000fd5b505050506040513d601f19601f82011682018060405250810190610f5991906159e1565b506016546040516370a0823160e01b81523060048201526000916001600160a01b0316906370a0823190602401602060405180830381865afa158015610fa3573d6000803e3d6000fd5b505050506040513d601f19601f82011682018060405250810190610fc7919061597d565b90508015610fd857610fd8816121b4565b601754604080516001600160a01b03928316815291851660208301527fb32957d2794aaec3ea2c8852833af2192fe9fb518777de1f883e9e821781da75910160405180910390a1505050565b3330148015906110a65750600660009054906101000a90046001600160a01b03166001600160a01b031663dd5cd22c6040518163ffffffff1660e01b8152600401602060405180830381865afa158015611082573d6000803e3d6000fd5b505050506040513d601f19601f820116820180604052508101906110a691906159e1565b1561116057600154600080546040516345cc970560e01b81526001600160a01b039182166004820152919283928392909116906345cc970590602401600060405180830381865afa1580156110ff573d6000803e3d6000fd5b505050506040513d6000823e601f3d908101601f1916820160405261112791908101906159fe565b60005492955090935091506001600160a01b038085169116146111545761114f838383612229565b61115c565b61115c6123c7565b5050505b565b336001600160a01b0389161461118a5760405162461bcd60e51b815260040161030590615a9e565b600c5415801561119a5750600d54155b6111d55760405162461bcd60e51b815260206004820152600c60248201526b085a5b9a5d1a585b1a5e995960a21b6044820152606401610305565b600180546001600160a01b0319166001600160a01b038a161790556008869055856112345760405162461bcd60e51b815260206004820152600f60248201526e02165786368616e6765526174653e3608c1b6044820152606401610305565b600680546001600160a01b0319166001600160a01b038b81169190911790915543600c55670de0b6b3a7640000600d55604080516310c8fc9560e11b8152905191891691632191f92a916004808201926020929091908290030181865afa1580156112a3573d6000803e3d6000fd5b505050506040513d601f19601f820116820180604052508101906112c791906159e1565b6112fd5760405162461bcd60e51b8152602060048201526007602482015266216e6f7449726d60c81b6044820152606401610305565b600780546001600160a01b0319166001600160a01b038916908117909155604080516000815260208101929092527fedffc32e068c7c95dfd4bdfd5c4d939a084d6b11c4199eac8436ed234d72f926910160405180910390a18451611369906003906020880190615372565b50835161137d906004906020870190615372565b506005805460ff191660ff8516179055600a54600954670de0b6b3a764000091906113a89085615ad4565b6113b29190615ad4565b11156113ea5760405162461bcd60e51b8152602060048201526007602482015266085c998e9cd95d60ca1b6044820152606401610305565b600b8290556040805160008152602081018490527faaa68312e2ea9d50e16af5068410ab56e1a1fd06037b1a35664812c30f821460910160405180910390a160001981141561143857506009545b6001546040805163dd86fea160e01b815290516000926001600160a01b03169163dd86fea19160048083019260209291908290030181865afa158015611482573d6000803e3d6000fd5b505050506040513d601f19601f820116820180604052508101906114a6919061597d565b9050670de0b6b3a76400008183600b546114c09190615ad4565b6114ca9190615ad4565b11156115085760405162461bcd60e51b815260206004820152600d60248201526c0858591b5a5b9199594e9cd95d609a1b6044820152606401610305565b60098290556040805160008152602081018490527fcdd0b588250e1398549f79cfdb8217c186688822905d6715b0834ea1c865594a910160405180910390a1600a8190556040805160008152602081018390527f92eef861b6533b7d3417f39c2ad7b460eed4e88a32fa3604f30e718b7602e7dc910160405180910390a150506002805460ff60b01b1916600160b01b1790555050505050505050565b6000806115b28484612538565b509150505b92915050565b60006115c76125fe565b905090565b6115d4612043565b6115f05760405162461bcd60e51b815260040161030590615a9e565b611631848484848080601f01602080910402602001604051908101604052809392919081815260200183838082843760009201919091525061222992505050565b50505050565b333014806116485750611648612043565b6116b05760405162461bcd60e51b815260206004820152603360248201527f6f6e6c792073656c6620616e642061646d696e732063616e2063616c6c205f6260448201527232b1b7b6b2a4b6b83632b6b2b73a30ba34b7b760691b6064820152608401610305565b6000818060200190518101906116c69190615aec565b90506001600160a01b0381161580156116e957506017546001600160a01b031615155b15611761576001546017546040516381218ea960e01b81526001600160a01b0391821660048201529116906381218ea990602401602060405180830381865afa15801561173a573d6000803e3d6000fd5b505050506040513d601f19601f8201168201806040525081019061175e9190615aec565b90505b6001600160a01b0381161580159061178757506017546001600160a01b03828116911614155b156117955761179581610bf3565b5050565b60606115c76126d2565b6117ab612043565b6117c75760405162461bcd60e51b815260040161030590615a9e565b6016546001600160a01b038381169116148015906117f357506017546001600160a01b03838116911614155b6118235760405162461bcd60e51b81526020600482015260016024820152602160f81b6044820152606401610305565b60405163095ea7b360e01b81526001600160a01b038281166004830152600019602483015283169063095ea7b3906044016020604051808303816000875af1158015611873573d6000803e3d6000fd5b505050506040513d601f19601f8201168201806040525081019061115c91906159e1565b60006115b782612744565b6006546001546001600160a01b039182169116331480156119205750806001600160a01b0316632f1069ba6040518163ffffffff1660e01b8152600401602060405180830381865afa1580156118fc573d6000803e3d6000fd5b505050506040513d601f19601f8201168201806040525081019061192091906159e1565b61196c5760405162461bcd60e51b815260206004820152601f60248201527f21756e617574686f72697a6564202d206e6f2061646d696e20726967687473006044820152606401610305565b61115c83836127e6565b60048054610a9290615996565b6001600160a01b03811660009081526015602052604081208054829182918291906119b45750600095945050505050565b6119c48160000154600d54612807565b909450925060008460038111156119dd576119dd6159cb565b14611a2a5760405162461bcd60e51b815260206004820152601e60248201527f216d756c55496e74206f766572666c6f7720636865636b206661696c656400006044820152606401610305565b611a38838260010154612849565b90945091506000846003811115611a5157611a516159cb565b14611a9e5760405162461bcd60e51b815260206004820152601e60248201527f2164697655496e74206f766572666c6f7720636865636b206661696c656400006044820152606401610305565b50949350505050565b600080611ab381611efb565b6000306001600160a01b031663a6afed956040518163ffffffff1660e01b81526004016020604051808303816000875af1158015611af5573d6000803e3d6000fd5b505050506040513d601f19601f82011682018060405250810190611b19919061597d565b90508015611b4557611b3d816011811115611b3657611b366159cb565b6033612874565b925050610be4565b43600c5414611b5a57611b3d600a6035612874565b83611b636125fe565b1015611b7557611b3d600e6034612874565b601154841115611b8b57611b3d60026036612874565b600084601154611b9b9190615b09565b6011819055600154909150611bb9906001600160a01b0316866128ed565b600093505050610bed81611fbf565b600080610b1f8361296a565b600080611be081611efb565b6000306001600160a01b031663a6afed956040518163ffffffff1660e01b81526004016020604051808303816000875af1158015611c22573d6000803e3d6000fd5b505050506040513d601f19601f82011682018060405250810190611c46919061597d565b90508015611c6a57611b3d816011811115611c6357611c636159cb565b6037612874565b43600c5414611c7f57611b3d600a6039612874565b83611c886125fe565b1015611c9a57611b3d600e6038612874565b601054841115611cb057611b3d6002603a612874565b83601054611cbe9190615b09565b601055600654604080516303e1469160e61b81529051611d36926001600160a01b03169163f851a4409160048083019260209291908290030181865afa158015611d0c573d6000803e3d6000fd5b505050506040513d601f19601f82011682018060405250810190611d309190615aec565b856128ed565b60005b925050610bed81611fbf565b60006001611d5281611efb565b611d5e33868686612a0c565b9150610b1f81611fbf565b6001600160a01b0381166000908152601360205260408120548190819081908180611d9388611983565b9150306001600160a01b031663182df0f56040518163ffffffff1660e01b8152600401602060405180830381865afa158015611dd3573d6000803e3d6000fd5b505050506040513d601f19601f82011682018060405250810190611df7919061597d565b90506000989297509095509350915050565b60006115b782612ef0565b60006115b782612f90565b600080611e2d85858561302b565b5095945050505050565b6000806000611e4581611efb565b6000306001600160a01b031663a6afed956040518163ffffffff1660e01b81526004016020604051808303816000875af1158015611e87573d6000803e3d6000fd5b505050506040513d601f19601f82011682018060405250810190611eab919061597d565b90508015611edb57611ecf816011811115611ec857611ec86159cb565b6041612874565b60009350935050611eec565b611ee63333876131dc565b93509350505b611ef581611fbf565b50915091565b600254600160b01b900460ff16611f415760405162461bcd60e51b815260206004820152600a6024820152691c994b595b9d195c995960b21b6044820152606401610305565b80611faf57600660009054906101000a90046001600160a01b03166001600160a01b031663c90c20b16040518163ffffffff1660e01b8152600401600060405180830381600087803b158015611f9657600080fd5b505af1158015611faa573d6000803e3d6000fd5b505050505b506002805460ff60b01b19169055565b6002805460ff60b01b1916600160b01b1790558061204057600660009054906101000a90046001600160a01b03166001600160a01b031663632e51426040518163ffffffff1660e01b8152600401600060405180830381600087803b15801561202757600080fd5b505af115801561203b573d6000803e3d6000fd5b505050505b50565b600654604080516303e1469160e61b815290516000926001600160a01b031691829163f851a440916004808201926020929091908290030181865afa158015612090573d6000803e3d6000fd5b505050506040513d601f19601f820116820180604052508101906120b49190615aec565b6001600160a01b0316336001600160a01b03161480156121315750806001600160a01b0316630a755ec26040518163ffffffff1660e01b8152600401602060405180830381865afa15801561210d573d6000803e3d6000fd5b505050506040513d601f19601f8201168201806040525081019061213191906159e1565b806121ae57506001546001600160a01b0316331480156121ae5750806001600160a01b0316632f1069ba6040518163ffffffff1660e01b8152600401602060405180830381865afa15801561218a573d6000803e3d6000fd5b505050506040513d601f19601f820116820180604052508101906121ae91906159e1565b91505090565b601754604051636e553f6560e01b8152600481018390523060248201526001600160a01b0390911690636e553f65906044016020604051808303816000875af1158015612205573d6000803e3d6000fd5b505050506040513d601f19601f82011682018060405250810190611795919061597d565b6001546000546040516338e6a07360e11b81526001600160a01b039182166004820152858216602482015284151560448201529116906371cd40e690606401602060405180830381865afa158015612285573d6000803e3d6000fd5b505050506040513d601f19601f820116820180604052508101906122a991906159e1565b6122dd5760405162461bcd60e51b8152602060048201526005602482015264085a5b5c1b60da1b6044820152606401610305565b600080546001600160a01b038581166001600160a01b0319831617909255166123046123c7565b303b6123185761231382611637565b61237a565b612378308360405160240161232d9190615617565b60408051601f19818403018152918152602080830180516001600160e01b0316630adccee560e31b17905281518083019092526007825266216265636f6d6560c81b90820152613581565b505b600054604080516001600160a01b03808516825290921660208301527fd604de94d45953f9138079ec1b82d533cb2160c906d1076d1f7ed54befbca97a910160405180910390a150505050565b600154600080546040516311a0e21760e01b81526001600160a01b039182166004820152919216906311a0e21790602401600060405180830381865afa158015612415573d6000803e3d6000fd5b505050506040513d6000823e601f3d908101601f1916820160405261243d9190810190615b44565b905060006124496126d2565b90508151600114801561245d575080516001145b80156124ae57508060008151811061247757612477615bde565b60200260200101516001600160a01b03168260008151811061249b5761249b615bde565b60200260200101516001600160a01b0316145b156124b7575050565b60005b81518110156124f7576124e58282815181106124d8576124d8615bde565b602002602001015161361d565b806124ef81615bf4565b9150506124ba565b5060005b825181101561115c5761252683828151811061251957612519615bde565b602002602001015161374d565b8061253081615bf4565b9150506124fb565b600080600061254681611efb565b6000306001600160a01b031663a6afed956040518163ffffffff1660e01b81526004016020604051808303816000875af1158015612588573d6000803e3d6000fd5b505050506040513d601f19601f820116820180604052508101906125ac919061597d565b905080156125dc576125d08160118111156125c9576125c96159cb565b6040612874565b600093509350506125ed565b6125e73387876131dc565b93509350505b6125f681611fbf565b509250929050565b6017546040516370a0823160e01b81523060048201526000916001600160a01b031690634cdad5069082906370a0823190602401602060405180830381865afa15801561264f573d6000803e3d6000fd5b505050506040513d601f19601f82011682018060405250810190612673919061597d565b6040518263ffffffff1660e01b815260040161269191815260200190565b602060405180830381865afa1580156126ae573d6000803e3d6000fd5b505050506040513d601f19601f820116820180604052508101906115c7919061597d565b6060600080516020615eab83398151915260020180548060200260200160405190810160405280929190818152602001828054801561273a57602002820191906000526020600020905b81546001600160a01b0316815260019091019060200180831161271c575b5050505050905090565b60008061275081611efb565b6000306001600160a01b031663a6afed956040518163ffffffff1660e01b81526004016020604051808303816000875af1158015612792573d6000803e3d6000fd5b505050506040513d601f19601f820116820180604052508101906127b6919061597d565b905080156127da57611b3d8160118111156127d3576127d36159cb565b602a612874565b611d3933600086613845565b6001600160a01b038116156127fe576127fe8161361d565b6117958261374d565b6000808361281a57506000905080612842565b838302836128288683615c0f565b1461283b57600260009250925050612842565b6000925090505b9250929050565b6000808261285d5750600190506000612842565b60006128698486615c0f565b915091509250929050565b60007f45b96fe442630264581b197e84bbada861235052c5a1aadfff9ea4e40a969aa08360118111156128a9576128a96159cb565b8360618111156128bb576128bb6159cb565b60408051928352602083019190915260009082015260600160405180910390a1826011811115610970576109706159cb565b601754604051632d182be560e21b8152600481018390526001600160a01b0384811660248301523060448301529091169063b460af94906064016020604051808303816000875af1158015612946573d6000803e3d6000fd5b505050506040513d601f19601f8201168201806040525081019061115c919061597d565b600080600061297881611efb565b6000306001600160a01b031663a6afed956040518163ffffffff1660e01b81526004016020604051808303816000875af11580156129ba573d6000803e3d6000fd5b505050506040513d601f19601f820116820180604052508101906129de919061597d565b90508015612a0257611ecf8160118111156129fb576129fb6159cb565b6020612874565b611ee63386613e61565b60065460405163d02f735160e01b81523060048201526001600160a01b0386811660248301528581166044830152848116606483015260848201849052600092839291169063d02f73519060a4016020604051808303816000875af1158015612a79573d6000803e3d6000fd5b505050506040513d601f19601f82011682018060405250810190612a9d919061597d565b90508015612aba57612ab26003601d836141d9565b915050612ee8565b846001600160a01b0316846001600160a01b03161415612ae057612ab26006601e612874565b612b45604080516101808101909152806000815260200160008152602001600081526020016000815260200160008152602001600081526020016000815260200160008152602001600081526020016000815260200160008152602001600081525090565b6001600160a01b038516600090815260136020526040902054612b68908561427b565b6020830181905282826003811115612b8257612b826159cb565b6003811115612b9357612b936159cb565b9052506000905081516003811115612bad57612bad6159cb565b14612bdd57612bd46009601c83600001516003811115612bcf57612bcf6159cb565b6141d9565b92505050612ee8565b612bfc846040518060200160405280666379da05b600008152506142a6565b6080820152604080516020810190915267016345785d8a00008152612c229085906142a6565b61014082018190526080820151612c399086615b09565b612c439190615b09565b6060820152306001600160a01b031663182df0f56040518163ffffffff1660e01b8152600401602060405180830381865afa158015612c86573d6000803e3d6000fd5b505050506040513d601f19601f82011682018060405250810190612caa919061597d565b60c082019081526040805160208101909152905181526080820151612ccf91906142c9565b60a0820152604080516020810190915260c08201518152610140820151612cf691906142c9565b61016082015260a0810151600f54612d0e9190615ad4565b60e08201526101408101516080820151601254612d2b9190615b09565b612d359190615b09565b610120820152610160810151601154612d4e9190615ad4565b6101008201526001600160a01b0386166000908152601360205260409020546060820151612d7c91906142e1565b6040830181905282826003811115612d9657612d966159cb565b6003811115612da757612da76159cb565b9052506000905081516003811115612dc157612dc16159cb565b14612de357612bd46009601b83600001516003811115612bcf57612bcf6159cb565b60e0810151600f556101208101516012556101008101516011556020808201516001600160a01b0387811660008181526013855260408082209490945583860151928b1680825290849020929092556060850151925192835290929091600080516020615ecb833981519152910160405180910390a3306001600160a01b0316856001600160a01b0316600080516020615ecb8339815191528360800151604051612e9091815260200190565b60405180910390a360a081015160e08201516040805130815260208101939093528201527fa91e67c5ea634cd43a12c5a482724b03de01e85ca68702a53d0c2f45cb7c1dc59060600160405180910390a16000925050505b949350505050565b600080612efc81611efb565b6000306001600160a01b031663a6afed956040518163ffffffff1660e01b81526004016020604051808303816000875af1158015612f3e573d6000803e3d6000fd5b505050506040513d601f19601f82011682018060405250810190612f62919061597d565b90508015612f8657611b3d816011811115612f7f57612f7f6159cb565b600a612874565b611d393385614307565b600080612f9c81611efb565b6000306001600160a01b031663a6afed956040518163ffffffff1660e01b81526004016020604051808303816000875af1158015612fde573d6000803e3d6000fd5b505050506040513d601f19601f82011682018060405250810190613002919061597d565b9050801561301f57611b3d8160118111156127d3576127d36159cb565b611d3933856000613845565b600080600061303981611efb565b6000306001600160a01b031663a6afed956040518163ffffffff1660e01b81526004016020604051808303816000875af115801561307b573d6000803e3d6000fd5b505050506040513d601f19601f8201168201806040525081019061309f919061597d565b905080156130cf576130c38160118111156130bc576130bc6159cb565b6011612874565b600093509350506131ca565b846001600160a01b0316639f5ef2726040518163ffffffff1660e01b8152600401602060405180830381865afa15801561310d573d6000803e3d6000fd5b505050506040513d601f19601f820116820180604052508101906131319190615aec565b6001600160a01b031663a6afed956040518163ffffffff1660e01b81526004016020604051808303816000875af1158015613170573d6000803e3d6000fd5b505050506040513d601f19601f82011682018060405250810190613194919061597d565b905080156131b8576130c38160118111156131b1576131b16159cb565b6012612874565b6131c433888888614636565b93509350505b6131d381611fbf565b50935093915050565b600654604051631200453160e11b81523060048201526001600160a01b03858116602483015284811660448301526064820184905260009283928392909116906324008a62906084016020604051808303816000875af1158015613244573d6000803e3d6000fd5b505050506040513d601f19601f82011682018060405250810190613268919061597d565b905080156132895761327d60036043836141d9565b60009250925050613579565b43600c541461329e5761327d600a6044612874565b6132e76040805161010081019091528060008152602001600081526020016000815260200160008152602001600081526020016000815260200160008152602001600081525090565b6001600160a01b038616600090815260156020526040902060010154606082015261331186611983565b608082015260001985141561332f5760808101516040820152613337565b604081018590525b613345878260400151614b4b565b60e08201819052608082015161335a9161427b565b60a0830181905260208301826003811115613377576133776159cb565b6003811115613388576133886159cb565b90525060009050816020015160038111156133a5576133a56159cb565b146134185760405162461bcd60e51b815260206004820152603a60248201527f52455041595f424f52524f575f4e45575f4143434f554e545f424f52524f575f60448201527f42414c414e43455f43414c43554c4154494f4e5f4641494c45440000000000006064820152608401610305565b613428600e548260e0015161427b565b60c0830181905260208301826003811115613445576134456159cb565b6003811115613456576134566159cb565b9052506000905081602001516003811115613473576134736159cb565b146134da5760405162461bcd60e51b815260206004820152603160248201527f52455041595f424f52524f575f4e45575f544f54414c5f42414c414e43455f43604482015270105310d55310551253d397d19052531151607a1b6064820152608401610305565b60a081810180516001600160a01b03898116600081815260156020908152604091829020948555600d5460019095019490945560c0870151600e81905560e088015195518251948f16855294840192909252820193909352606081019190915260808101919091527f1a2a22cb034d26d1854bdc6666a5b91fe25efbbb5dcad3b0355478d6f5c362a1910160405180910390a160e00151600093509150505b935093915050565b6060600080856001600160a01b03168560405161359e9190615c31565b6000604051808303816000865af19150503d80600081146135db576040519150601f19603f3d011682016040523d82523d6000602084013e6135e0565b606091505b509150915081613614578051156135fa5780518082602001fd5b8360405162461bcd60e51b81526004016103059190615617565b95945050505050565b600080516020615eab83398151915261363582614c01565b60005b600282015460ff8216101561115c57826001600160a01b0316826002018260ff168154811061366957613669615bde565b6000918252602090912001546001600160a01b0316141561373b5760028201805461369690600190615b09565b815481106136a6576136a6615bde565b6000918252602090912001546002830180546001600160a01b039092169160ff84169081106136d7576136d7615bde565b9060005260206000200160006101000a8154816001600160a01b0302191690836001600160a01b031602179055508160020180548061371857613718615c4d565b600082815260209020810160001990810180546001600160a01b03191690550190555b8061374581615c63565b915050613638565b600080516020615eab83398151915260005b600282015460ff8216101561380557826001600160a01b0316826002018260ff168154811061379057613790615bde565b6000918252602090912001546001600160a01b031614156137f35760405162461bcd60e51b815260206004820152601760248201527f657874656e73696f6e20616c72656164792061646465640000000000000000006044820152606401610305565b806137fd81615c63565b91505061375f565b5061380f82614e8e565b6002018054600181018255600091825260209091200180546001600160a01b0319166001600160a01b0392909216919091179055565b6000821580613852575081155b61389e5760405162461bcd60e51b815260206004820152601860248201527f2172656465656d20746f6b656e73206f7220616d6f756e7400000000000000006044820152606401610305565b6138df6040805160e0810190915280600081526020016000815260200160008152602001600081526020016000815260200160008152602001600081525090565b306001600160a01b031663182df0f56040518163ffffffff1660e01b8152600401602060405180830381865afa15801561391d573d6000803e3d6000fd5b505050506040513d601f19601f82011682018060405250810190613941919061597d565b60408201526000198314156139d057600654604051630cbb414760e11b81526001600160a01b0387811660048301523060248301526000604483015290911690631976828e906064016020604051808303816000875af11580156139a9573d6000803e3d6000fd5b505050506040513d601f19601f820116820180604052508101906139cd919061597d565b92505b8315613a715760608101849052604080516020810182529082015181526139f79085615078565b6080830181905260208301826003811115613a1457613a146159cb565b6003811115613a2557613a256159cb565b9052506000905081602001516003811115613a4257613a426159cb565b14613a6c57613a646009602c83602001516003811115612bcf57612bcf6159cb565b915050610970565b613b02565b613a8d83604051806020016040528084604001518152506150ca565b6060830181905260208301826003811115613aaa57613aaa6159cb565b6003811115613abb57613abb6159cb565b9052506000905081602001516003811115613ad857613ad86159cb565b14613afa57613a646009602d83602001516003811115612bcf57612bcf6159cb565b608081018390525b600654606082015160405163eabe7d9160e01b81526000926001600160a01b03169163eabe7d9191613b3b9130918b9190600401615c83565b6020604051808303816000875af1158015613b5a573d6000803e3d6000fd5b505050506040513d601f19601f82011682018060405250810190613b7e919061597d565b90508015613b9c57613b936003602b836141d9565b92505050610970565b43600c5414613bb157613b93600a602f612874565b613bc1601254836060015161427b565b60a0840181905260208401826003811115613bde57613bde6159cb565b6003811115613bef57613bef6159cb565b9052506000905082602001516003811115613c0c57613c0c6159cb565b14613c2e57613b936009603184602001516003811115612bcf57612bcf6159cb565b600554613c3f9060ff16600a615d83565b8260a001511015613c5657613b9360026031612874565b6001600160a01b0386166000908152601360205260409020546060830151613c7e919061427b565b60c0840181905260208401826003811115613c9b57613c9b6159cb565b6003811115613cac57613cac6159cb565b9052506000905082602001516003811115613cc957613cc96159cb565b14613ceb57613b936009603084602001516003811115612bcf57612bcf6159cb565b8160800151613cf86125fe565b1015613d0a57613b93600e6032612874565b60a082015160125560c08201516001600160a01b0387166000908152601360205260409020556080820151613d409087906128ed565b306001600160a01b0316866001600160a01b0316600080516020615ecb8339815191528460600151604051613d7791815260200190565b60405180910390a36080820151606080840151604080516001600160a01b038b16815260208101949094528301527fe5b754fb1abb7f01b499791d0b820ae3b6af3424ac1c59768edb53f4ec31a929910160405180910390a1600654608083015160608401516040516351dff98960e01b81523060048201526001600160a01b038a81166024830152604482019390935260648101919091529116906351dff98990608401600060405180830381600087803b158015613e3657600080fd5b505af1158015613e4a573d6000803e3d6000fd5b5060009250613e57915050565b9695505050505050565b600654604051634ef4c3e160e01b8152600091829182916001600160a01b031690634ef4c3e190613e9a90309089908990600401615c83565b6020604051808303816000875af1158015613eb9573d6000803e3d6000fd5b505050506040513d601f19601f82011682018060405250810190613edd919061597d565b90508015613efe57613ef260036021836141d9565b60009250925050612842565b43600c5414613f1357613ef2600a6024612874565b613f546040805160e0810190915280600081526020016000815260200160008152602001600081526020016000815260200160008152602001600081525090565b306001600160a01b031663182df0f56040518163ffffffff1660e01b8152600401602060405180830381865afa158015613f92573d6000803e3d6000fd5b505050506040513d601f19601f82011682018060405250810190613fb6919061597d565b6040820152613fc58686614b4b565b60c0820181905260408051602081018252908301518152613fe691906150ca565b6060830181905260208301826003811115614003576140036159cb565b6003811115614014576140146159cb565b9052506000905081602001516003811115614031576140316159cb565b1461407e5760405162461bcd60e51b815260206004820181905260248201527f4d494e545f45584348414e47455f43414c43554c4154494f4e5f4641494c45446044820152606401610305565b60008160600151116140d25760405162461bcd60e51b815260206004820152601a60248201527f4d494e545f5a45524f5f43544f4b454e535f52454a45435445440000000000006044820152606401610305565b80606001516012546140e49190615ad4565b608082015260608101516001600160a01b0387166000908152601360205260409020546141119190615ad4565b60a0820181905260808201516012556001600160a01b0387166000818152601360209081526040918290209390935560c0840151606080860151835194855294840191909152908201929092527f4c209b5fc8ad50758f13e2e1088ba56a560dff690a1c6fef26394f4c03821c4f910160405180910390a1856001600160a01b0316306001600160a01b0316600080516020615ecb83398151915283606001516040516141c091815260200190565b60405180910390a360c001516000969095509350505050565b60007f45b96fe442630264581b197e84bbada861235052c5a1aadfff9ea4e40a969aa084601181111561420e5761420e6159cb565b846061811115614220576142206159cb565b604080519283526020830191909152810184905260600160405180910390a16003846011811115614253576142536159cb565b1461426f5783601181111561426a5761426a6159cb565b612ee8565b612ee8826103e8615ad4565b60008083831161429a5760006142918486615b09565b91509150612842565b50600390506000612842565b6000670de0b6b3a76400006142bf8484600001516150da565b6109709190615c0f565b6000806142d6848461511c565b9050612ee88161514d565b6000808383018481106142f957600092509050612842565b600260009250925050612842565b60065460405163368f515360e21b815260009182916001600160a01b039091169063da3d454c9061434090309088908890600401615c83565b6020604051808303816000875af115801561435f573d6000803e3d6000fd5b505050506040513d601f19601f82011682018060405250810190614383919061597d565b905080156143a05761439860036010836141d9565b9150506115b7565b43600c54146143b557614398600a600c612874565b60006143bf6125fe565b9050838110156143de576143d5600e600b612874565b925050506115b7565b61440a604080516080810190915280600081526020016000815260200160008152602001600081525090565b61441386611983565b6020820181905261442490866142e1565b604083018190528282600381111561443e5761443e6159cb565b600381111561444f5761444f6159cb565b9052506000905081516003811115614469576144696159cb565b146144955761448b6009600e83600001516003811115612bcf57612bcf6159cb565b93505050506115b7565b6006546040828101519051631de6c8a560e21b815230600482015260248101919091526001600160a01b039091169063779b229490604401602060405180830381865afa1580156144ea573d6000803e3d6000fd5b505050506040513d601f19601f8201168201806040525081019061450e919061597d565b925082156145235761448b60036010856141d9565b61452f600e54866142e1565b6060830181905282826003811115614549576145496159cb565b600381111561455a5761455a6159cb565b9052506000905081516003811115614574576145746159cb565b146145965761448b6009600d83600001516003811115612bcf57612bcf6159cb565b6040808201516001600160a01b0388166000908152601560205291909120908155600d546001909101556060810151600e556145d286866128ed565b60408082015160608084015183516001600160a01b038b168152602081018a9052938401929092528201527f13ed6866d4e1ee6da46f845c46d7e54120883d75c5ea9a2dacc1c4ca8984ab809060800160405180910390a160009695505050505050565b600654604051632fe3f38f60e11b81523060048201526001600160a01b03838116602483015286811660448301528581166064830152608482018590526000928392839290911690635fc7e71e9060a4016020604051808303816000875af11580156146a6573d6000803e3d6000fd5b505050506040513d601f19601f820116820180604052508101906146ca919061597d565b905080156146eb576146df60036014836141d9565b60009250925050614b42565b43600c5414614700576146df600a6018612874565b43846001600160a01b0316636c540baf6040518163ffffffff1660e01b8152600401602060405180830381865afa15801561473f573d6000803e3d6000fd5b505050506040513d601f19601f82011682018060405250810190614763919061597d565b14614774576146df600a6013612874565b866001600160a01b0316866001600160a01b0316141561479a576146df60066019612874565b846147ab576146df60076017612874565b6000198514156147c1576146df60076016612874565b6000806147cf8989896131dc565b90925090508115614804576147f68260118111156147ef576147ef6159cb565b601a612874565b600094509450505050614b42565b60065460405163c488847b60e01b815260009182916001600160a01b039091169063c488847b9061483d9030908c908890600401615c83565b6040805180830381865afa158015614859573d6000803e3d6000fd5b505050506040513d601f19601f8201168201806040525081019061487d9190615d92565b909250905081156148ec5760405162461bcd60e51b815260206004820152603360248201527f4c49515549444154455f434f4d5054524f4c4c45525f43414c43554c4154455f604482015272105353d5539517d4d152569157d19052531151606a1b6064820152608401610305565b80886001600160a01b0316639f5ef2726040518163ffffffff1660e01b8152600401602060405180830381865afa15801561492b573d6000803e3d6000fd5b505050506040513d601f19601f8201168201806040525081019061494f9190615aec565b6040516370a0823160e01b81526001600160a01b038d8116600483015291909116906370a0823190602401602060405180830381865afa158015614997573d6000803e3d6000fd5b505050506040513d601f19601f820116820180604052508101906149bb919061597d565b1015614a095760405162461bcd60e51b815260206004820152601860248201527f4c49515549444154455f5345495a455f544f4f5f4d55434800000000000000006044820152606401610305565b60006001600160a01b038916301415614a2f57614a28308d8d85612a0c565b9050614aa5565b60405163b2a02ff160e01b81526001600160a01b038a169063b2a02ff190614a5f908f908f908790600401615c83565b6020604051808303816000875af1158015614a7e573d6000803e3d6000fd5b505050506040513d601f19601f82011682018060405250810190614aa2919061597d565b90505b8015614adc5760405162461bcd60e51b8152602060048201526006602482015265217365697a6560d01b6044820152606401610305565b604080516001600160a01b038e811682528d811660208301528183018790528b1660608201526080810184905290517f298637f684da70674f26509b10f07ec2fbc77a335ab1e7d6215a4b2484d8bb529181900360a00190a16000975092955050505050505b94509492505050565b6016546040516323b872dd60e01b81526000916001600160a01b0316906323b872dd90614b8090869030908790600401615c83565b6020604051808303816000875af1158015614b9f573d6000803e3d6000fd5b505050506040513d601f19601f82011682018060405250810190614bc391906159e1565b614bf85760405162461bcd60e51b8152600401610305906020808252600490820152631cd95b9960e21b604082015260600190565b610bed826121b4565b6000816001600160a01b03166389f8132e6040518163ffffffff1660e01b8152600401600060405180830381865afa158015614c41573d6000803e3d6000fd5b505050506040513d6000823e601f3d908101601f19168201604052614c699190810190615db6565b9050600080516020615eab83398151915260005b82518161ffff161015611631576000838261ffff1681518110614ca257614ca2615bde565b6020908102919091018101516001600160e01b031981166000908152918590526040909120549091506001600160a01b03868116911614614ce557614ce5615e53565b6001600160e01b0319811660009081526020849052604090205460018085018054600160a01b90930461ffff16929091614d1e91615b09565b81548110614d2e57614d2e615bde565b90600052602060002090600891828204019190066004029054906101000a900460e01b846001018261ffff1681548110614d6a57614d6a615bde565b90600052602060002090600891828204019190066004026101000a81548163ffffffff021916908360e01c021790555080846000016000866001018461ffff1681548110614dba57614dba615bde565b6000918252602080832060088304015460079092166004026101000a90910460e01b6001600160e01b03191683528201929092526040019020805461ffff60a01b1916600160a01b61ffff939093169290920291909117905560018401805480614e2657614e26615c4d565b60008281526020808220600860001990940193840401805463ffffffff600460078716026101000a0219169055919092556001600160e01b0319909316815291849052506040902080546001600160b01b031916905580614e8681615e69565b915050614c7d565b6000816001600160a01b03166389f8132e6040518163ffffffff1660e01b8152600401600060405180830381865afa158015614ece573d6000803e3d6000fd5b505050506040513d6000823e601f3d908101601f19168201604052614ef69190810190615db6565b7fc8fcad8db84d3cc18b4c41d551ea0ee66dd599cde068d998e57d5e09332c131d54909150600080516020615eab8339815191529060005b835181101561203b576000848281518110614f4b57614f4b615bde565b6020908102919091018101516001600160e01b031981166000908152918690526040909120549091506001600160a01b03168015614fb757604051632c18df3360e01b81526001600160e01b0319831660048201526001600160a01b0382166024820152604401610305565b6040805180820182526001600160a01b03808a16825261ffff80881660208085019182526001600160e01b0319881660009081528b8252958620945185549251909316600160a01b026001600160b01b0319909216929093169190911717909155600180880180549182018155835291206008820401805460e085901c60046007909416939093026101000a92830263ffffffff90930219169190911790558361506081615e69565b9450505050808061507090615bf4565b915050614f2e565b6000806000806150888686615165565b909250905060008260038111156150a1576150a16159cb565b146150b25750915060009050612842565b60006150bd8261514d565b9350935050509250929050565b60008060008061508886866151e1565b600061097083836040518060400160405280601781526020017f6d756c7469706c69636174696f6e206f766572666c6f77000000000000000000815250615254565b60408051602081019091526000815260405180602001604052806151448560000151856150da565b90529392505050565b80516000906115b790670de0b6b3a764000090615c0f565b600061517d6040518060200160405280600081525090565b60008061518e866000015186612807565b909250905060008260038111156151a7576151a76159cb565b146151c657506040805160208101909152600081529092509050612842565b60408051602081019091529081526000969095509350505050565b60006151f96040518060200160405280600081525090565b60008061520e670de0b6b3a764000087612807565b90925090506000826003811115615227576152276159cb565b1461524657506040805160208101909152600081529092509050612842565b6150bd8186600001516152a7565b6000831580615261575082155b1561526e57506000610970565b600061527a8486615e8b565b9050836152878683615c0f565b148390611a9e5760405162461bcd60e51b81526004016103059190615617565b60006152bf6040518060200160405280600081525090565b6000806152d486670de0b6b3a7640000612807565b909250905060008260038111156152ed576152ed6159cb565b1461530c57506040805160208101909152600081529092509050612842565b6000806153198388612849565b90925090506000826003811115615332576153326159cb565b146153555781604051806020016040528060008152509550955050505050612842565b604080516020810190915290815260009890975095505050505050565b82805461537e90615996565b90600052602060002090601f0160209004810192826153a057600085556153e6565b82601f106153b957805160ff19168380011785556153e6565b828001600101855582156153e6579182015b828111156153e65782518255916020019190600101906153cb565b506153f29291506153f6565b5090565b5b808211156153f257600081556001016153f7565b6001600160a01b038116811461204057600080fd5b803561542b8161540b565b919050565b634e487b7160e01b600052604160045260246000fd5b604051601f8201601f1916810167ffffffffffffffff8111828210171561546f5761546f615430565b604052919050565b600067ffffffffffffffff82111561549157615491615430565b50601f01601f191660200190565b60006154b26154ad84615477565b615446565b90508281528383830111156154c657600080fd5b828260208301376000602084830101529392505050565b600082601f8301126154ee57600080fd5b6109708383356020850161549f565b600080600080600080600080610100898b03121561551a57600080fd5b88356155258161540b565b975060208901356155358161540b565b965060408901356155458161540b565b955060608901356155558161540b565b9450608089013567ffffffffffffffff8082111561557257600080fd5b61557e8c838d016154dd565b955060a08b013591508082111561559457600080fd5b506155a18b828c016154dd565b93505060c0890135915060e089013590509295985092959890939650565b60005b838110156155da5781810151838201526020016155c2565b838111156116315750506000910152565b600081518084526156038160208601602086016155bf565b601f01601f19169290920160200192915050565b60208152600061097060208301846155eb565b60006020828403121561563c57600080fd5b5035919050565b60006020828403121561565557600080fd5b81356109708161540b565b60ff8116811461204057600080fd5b803561542b81615660565b60008060008060008060008060006101208a8c03121561569957600080fd5b89356156a48161540b565b985060208a01356156b48161540b565b97506156c260408b01615420565b965060608a0135955060808a013567ffffffffffffffff808211156156e657600080fd5b6156f28d838e016154dd565b965060a08c013591508082111561570857600080fd5b506157158c828d016154dd565b94505061572460c08b0161566f565b925060e08a013591506101008a013590509295985092959850929598565b6000806040838503121561575557600080fd5b82356157608161540b565b946020939093013593505050565b801515811461204057600080fd5b6000806000806060858703121561579257600080fd5b843561579d8161540b565b935060208501356157ad8161576e565b9250604085013567ffffffffffffffff808211156157ca57600080fd5b818701915087601f8301126157de57600080fd5b8135818111156157ed57600080fd5b8860208285010111156157ff57600080fd5b95989497505060200194505050565b60006020828403121561582057600080fd5b813567ffffffffffffffff81111561583757600080fd5b8201601f8101841361584857600080fd5b612ee88482356020840161549f565b6020808252825182820181905260009190848201906040850190845b818110156158985783516001600160a01b031683529284019291840191600101615873565b50909695505050505050565b600080604083850312156158b757600080fd5b82356158c28161540b565b915060208301356158d28161540b565b809150509250929050565b6000806000606084860312156158f257600080fd5b83356158fd8161540b565b9250602084013561590d8161540b565b929592945050506040919091013590565b60008060006060848603121561593357600080fd5b833561593e8161540b565b92506020840135915060408401356159558161540b565b809150509250925092565b60006020828403121561597257600080fd5b815161097081615660565b60006020828403121561598f57600080fd5b5051919050565b600181811c908216806159aa57607f821691505b60208210811415610bed57634e487b7160e01b600052602260045260246000fd5b634e487b7160e01b600052602160045260246000fd5b6000602082840312156159f357600080fd5b81516109708161576e565b600080600060608486031215615a1357600080fd5b8351615a1e8161540b565b6020850151909350615a2f8161576e565b604085015190925067ffffffffffffffff811115615a4c57600080fd5b8401601f81018613615a5d57600080fd5b8051615a6b6154ad82615477565b818152876020838501011115615a8057600080fd5b615a918260208301602086016155bf565b8093505050509250925092565b60208082526006908201526510b0b236b4b760d11b604082015260600190565b634e487b7160e01b600052601160045260246000fd5b60008219821115615ae757615ae7615abe565b500190565b600060208284031215615afe57600080fd5b81516109708161540b565b600082821015615b1b57615b1b615abe565b500390565b600067ffffffffffffffff821115615b3a57615b3a615430565b5060051b60200190565b60006020808385031215615b5757600080fd5b825167ffffffffffffffff811115615b6e57600080fd5b8301601f81018513615b7f57600080fd5b8051615b8d6154ad82615b20565b81815260059190911b82018301908381019087831115615bac57600080fd5b928401925b82841015615bd3578351615bc48161540b565b82529284019290840190615bb1565b979650505050505050565b634e487b7160e01b600052603260045260246000fd5b6000600019821415615c0857615c08615abe565b5060010190565b600082615c2c57634e487b7160e01b600052601260045260246000fd5b500490565b60008251615c438184602087016155bf565b9190910192915050565b634e487b7160e01b600052603160045260246000fd5b600060ff821660ff811415615c7a57615c7a615abe565b60010192915050565b6001600160a01b039384168152919092166020820152604081019190915260600190565b600181815b808511156125f6578160001904821115615cc857615cc8615abe565b80851615615cd557918102915b93841c9390800290615cac565b600082615cf1575060016115b7565b81615cfe575060006115b7565b8160018114615d145760028114615d1e57615d3a565b60019150506115b7565b60ff841115615d2f57615d2f615abe565b50506001821b6115b7565b5060208310610133831016604e8410600b8410161715615d5d575081810a6115b7565b615d678383615ca7565b8060001904821115615d7b57615d7b615abe565b029392505050565b600061097060ff841683615ce2565b60008060408385031215615da557600080fd5b505080516020909101519092909150565b60006020808385031215615dc957600080fd5b825167ffffffffffffffff811115615de057600080fd5b8301601f81018513615df157600080fd5b8051615dff6154ad82615b20565b81815260059190911b82018301908381019087831115615e1e57600080fd5b928401925b82841015615bd35783516001600160e01b031981168114615e445760008081fd5b82529284019290840190615e23565b634e487b7160e01b600052600160045260246000fd5b600061ffff80831681811415615e8157615e81615abe565b6001019392505050565b6000816000190483118215151615615ea557615ea5615abe565b50029056fec8fcad8db84d3cc18b4c41d551ea0ee66dd599cde068d998e57d5e09332c131cddf252ad1be2c89b69c2b068fc378daa952ba7f163c4a11628f55a4df523b3efa164736f6c634300080a000a",
    "linkReferences": {}
  },
  "methodIdentifiers": {
    "_becomeImplementation(bytes)": "56e67728",
    "_listExtensions()": "6333d001",
    "_prepare()": "1db78944",
    "_registerExtension(address,address)": "89cd9855",
    "_setImplementationSafe(address,bool,bytes)": "50d85b73",
    "_updatePlugin(address)": "19f496c8",
    "_withdrawAdminFees(uint256)": "a7b820df",
    "_withdrawFuseFees(uint256)": "a03dce8d",
    "accrualBlockNumber()": "6c540baf",
    "adminFeeMantissa()": "8d02d9a1",
    "approve(address,address)": "7e5465ba",
    "asCTokenExtensionInterface()": "9f5ef272",
    "borrow(uint256)": "c5ebeaec",
    "borrowBalanceCurrent(address)": "17bfdfbc",
    "borrowBalanceStored(address)": "95dd9193",
    "borrowIndex()": "aa5af0fd",
    "claim()": "4e71d92d",
    "comptroller()": "5fe3b567",
    "contractType()": "cb2ef6f7",
    "decimals()": "313ce567",
    "feeSeizeShareMantissa()": "be99f119",
    "fuseAdmin()": "15761d51",
    "fuseFeeMantissa()": "dbfe7c19",
    "getAccountSnapshot(address)": "c37f68e2",
    "getCash()": "3b1d21a2",
    "implementation()": "5c60da1b",
    "initialize(address,address,address,address,string,string,uint256,uint256)": "06db3ecd",
    "initialize(address,address,address,uint256,string,string,uint8,uint256,uint256)": "219ef65c",
    "interestRateModel()": "f3fdb15a",
    "isCEther()": "ac784ddc",
    "isCToken()": "fe9c44ae",
    "liquidateBorrow(address,uint256,address)": "f5e3c462",
    "mint(uint256)": "a0712d68",
    "name()": "06fdde03",
    "plugin()": "ef01df4f",
    "protocolSeizeShareMantissa()": "6752e702",
    "redeem(uint256)": "db006a75",
    "redeemUnderlying(uint256)": "852a12e3",
    "repayBorrow(uint256)": "0e752702",
    "repayBorrowBehalf(address,uint256)": "2608f818",
    "reserveFactorMantissa()": "173b9904",
    "seize(address,address,uint256)": "b2a02ff1",
    "symbol()": "95d89b41",
    "totalAdminFees()": "61feacff",
    "totalBorrows()": "47bd3718",
    "totalFuseFees()": "dc028ab1",
    "totalReserves()": "8f840ddd",
    "totalSupply()": "18160ddd",
    "underlying()": "6f307dc3"
  }
}