{
  "address": "0x0CC70d9D915Af7f22e6a907Dd835A909783fd3aa",
  "abi": [
    {
      "inputs": [
        {
          "internalType": "bytes4",
          "name": "_functionSelector",
          "type": "bytes4"
        }
      ],
      "name": "ExtensionNotFound",
      "type": "error"
    },
    {
      "inputs": [
        {
          "internalType": "bytes4",
          "name": "_functionSelector",
          "type": "bytes4"
        },
        {
          "internalType": "address",
          "name": "_currentImpl",
          "type": "address"
        }
      ],
      "name": "FunctionAlreadyAdded",
      "type": "error"
    },
    {
      "inputs": [
        {
          "internalType": "bytes4",
          "name": "_functionSelector",
          "type": "bytes4"
        }
      ],
      "name": "FunctionNotFound",
      "type": "error"
    },
    {
      "anonymous": false,
      "inputs": [
        {
          "indexed": false,
          "internalType": "uint256",
          "name": "cashPrior",
          "type": "uint256"
        },
        {
          "indexed": false,
          "internalType": "uint256",
          "name": "interestAccumulated",
          "type": "uint256"
        },
        {
          "indexed": false,
          "internalType": "uint256",
          "name": "borrowIndex",
          "type": "uint256"
        },
        {
          "indexed": false,
          "internalType": "uint256",
          "name": "totalBorrows",
          "type": "uint256"
        }
      ],
      "name": "AccrueInterest",
      "type": "event"
    },
    {
      "anonymous": false,
      "inputs": [
        {
          "indexed": true,
          "internalType": "address",
          "name": "owner",
          "type": "address"
        },
        {
          "indexed": true,
          "internalType": "address",
          "name": "spender",
          "type": "address"
        },
        {
          "indexed": false,
          "internalType": "uint256",
          "name": "amount",
          "type": "uint256"
        }
      ],
      "name": "Approval",
      "type": "event"
    },
    {
      "anonymous": false,
      "inputs": [
        {
          "indexed": false,
          "internalType": "address",
          "name": "borrower",
          "type": "address"
        },
        {
          "indexed": false,
          "internalType": "uint256",
          "name": "borrowAmount",
          "type": "uint256"
        },
        {
          "indexed": false,
          "internalType": "uint256",
          "name": "accountBorrows",
          "type": "uint256"
        },
        {
          "indexed": false,
          "internalType": "uint256",
          "name": "totalBorrows",
          "type": "uint256"
        }
      ],
      "name": "Borrow",
      "type": "event"
    },
    {
      "anonymous": false,
      "inputs": [
        {
          "indexed": false,
          "internalType": "uint256",
          "name": "error",
          "type": "uint256"
        },
        {
          "indexed": false,
          "internalType": "uint256",
          "name": "info",
          "type": "uint256"
        },
        {
          "indexed": false,
          "internalType": "uint256",
          "name": "detail",
          "type": "uint256"
        }
      ],
      "name": "Failure",
      "type": "event"
    },
    {
      "anonymous": false,
      "inputs": [
        {
          "indexed": false,
          "internalType": "address",
          "name": "liquidator",
          "type": "address"
        },
        {
          "indexed": false,
          "internalType": "address",
          "name": "borrower",
          "type": "address"
        },
        {
          "indexed": false,
          "internalType": "uint256",
          "name": "repayAmount",
          "type": "uint256"
        },
        {
          "indexed": false,
          "internalType": "address",
          "name": "cTokenCollateral",
          "type": "address"
        },
        {
          "indexed": false,
          "internalType": "uint256",
          "name": "seizeTokens",
          "type": "uint256"
        }
      ],
      "name": "LiquidateBorrow",
      "type": "event"
    },
    {
      "anonymous": false,
      "inputs": [
        {
          "indexed": false,
          "internalType": "address",
          "name": "minter",
          "type": "address"
        },
        {
          "indexed": false,
          "internalType": "uint256",
          "name": "mintAmount",
          "type": "uint256"
        },
        {
          "indexed": false,
          "internalType": "uint256",
          "name": "mintTokens",
          "type": "uint256"
        }
      ],
      "name": "Mint",
      "type": "event"
    },
    {
      "anonymous": false,
      "inputs": [
        {
          "indexed": false,
          "internalType": "uint256",
          "name": "oldAdminFeeMantissa",
          "type": "uint256"
        },
        {
          "indexed": false,
          "internalType": "uint256",
          "name": "newAdminFeeMantissa",
          "type": "uint256"
        }
      ],
      "name": "NewAdminFee",
      "type": "event"
    },
    {
      "anonymous": false,
      "inputs": [
        {
          "indexed": false,
          "internalType": "uint256",
          "name": "oldFuseFeeMantissa",
          "type": "uint256"
        },
        {
          "indexed": false,
          "internalType": "uint256",
          "name": "newFuseFeeMantissa",
          "type": "uint256"
        }
      ],
      "name": "NewFuseFee",
      "type": "event"
    },
    {
      "anonymous": false,
      "inputs": [
        {
          "indexed": false,
          "internalType": "address",
          "name": "oldImplementation",
          "type": "address"
        },
        {
          "indexed": false,
          "internalType": "address",
          "name": "newImplementation",
          "type": "address"
        }
      ],
      "name": "NewImplementation",
      "type": "event"
    },
    {
      "anonymous": false,
      "inputs": [
        {
          "indexed": false,
          "internalType": "contract InterestRateModel",
          "name": "oldInterestRateModel",
          "type": "address"
        },
        {
          "indexed": false,
          "internalType": "contract InterestRateModel",
          "name": "newInterestRateModel",
          "type": "address"
        }
      ],
      "name": "NewMarketInterestRateModel",
      "type": "event"
    },
    {
      "anonymous": false,
      "inputs": [
        {
          "indexed": false,
          "internalType": "address",
          "name": "oldImpl",
          "type": "address"
        },
        {
          "indexed": false,
          "internalType": "address",
          "name": "newImpl",
          "type": "address"
        }
      ],
      "name": "NewPluginImplementation",
      "type": "event"
    },
    {
      "anonymous": false,
      "inputs": [
        {
          "indexed": false,
          "internalType": "uint256",
          "name": "oldReserveFactorMantissa",
          "type": "uint256"
        },
        {
          "indexed": false,
          "internalType": "uint256",
          "name": "newReserveFactorMantissa",
          "type": "uint256"
        }
      ],
      "name": "NewReserveFactor",
      "type": "event"
    },
    {
      "anonymous": false,
      "inputs": [
        {
          "indexed": false,
          "internalType": "address",
          "name": "redeemer",
          "type": "address"
        },
        {
          "indexed": false,
          "internalType": "uint256",
          "name": "redeemAmount",
          "type": "uint256"
        },
        {
          "indexed": false,
          "internalType": "uint256",
          "name": "redeemTokens",
          "type": "uint256"
        }
      ],
      "name": "Redeem",
      "type": "event"
    },
    {
      "anonymous": false,
      "inputs": [
        {
          "indexed": false,
          "internalType": "address",
          "name": "payer",
          "type": "address"
        },
        {
          "indexed": false,
          "internalType": "address",
          "name": "borrower",
          "type": "address"
        },
        {
          "indexed": false,
          "internalType": "uint256",
          "name": "repayAmount",
          "type": "uint256"
        },
        {
          "indexed": false,
          "internalType": "uint256",
          "name": "accountBorrows",
          "type": "uint256"
        },
        {
          "indexed": false,
          "internalType": "uint256",
          "name": "totalBorrows",
          "type": "uint256"
        }
      ],
      "name": "RepayBorrow",
      "type": "event"
    },
    {
      "anonymous": false,
      "inputs": [
        {
          "indexed": false,
          "internalType": "address",
          "name": "benefactor",
          "type": "address"
        },
        {
          "indexed": false,
          "internalType": "uint256",
          "name": "addAmount",
          "type": "uint256"
        },
        {
          "indexed": false,
          "internalType": "uint256",
          "name": "newTotalReserves",
          "type": "uint256"
        }
      ],
      "name": "ReservesAdded",
      "type": "event"
    },
    {
      "anonymous": false,
      "inputs": [
        {
          "indexed": false,
          "internalType": "address",
          "name": "admin",
          "type": "address"
        },
        {
          "indexed": false,
          "internalType": "uint256",
          "name": "reduceAmount",
          "type": "uint256"
        },
        {
          "indexed": false,
          "internalType": "uint256",
          "name": "newTotalReserves",
          "type": "uint256"
        }
      ],
      "name": "ReservesReduced",
      "type": "event"
    },
    {
      "anonymous": false,
      "inputs": [
        {
          "indexed": true,
          "internalType": "address",
          "name": "from",
          "type": "address"
        },
        {
          "indexed": true,
          "internalType": "address",
          "name": "to",
          "type": "address"
        },
        {
          "indexed": false,
          "internalType": "uint256",
          "name": "amount",
          "type": "uint256"
        }
      ],
      "name": "Transfer",
      "type": "event"
    },
    {
      "stateMutability": "nonpayable",
      "type": "fallback"
    },
    {
      "inputs": [
        {
          "internalType": "bytes",
          "name": "data",
          "type": "bytes"
        }
      ],
      "name": "_becomeImplementation",
      "outputs": [],
      "stateMutability": "nonpayable",
      "type": "function"
    },
    {
      "inputs": [],
      "name": "_listExtensions",
      "outputs": [
        {
          "internalType": "address[]",
          "name": "",
          "type": "address[]"
        }
      ],
      "stateMutability": "view",
      "type": "function"
    },
    {
      "inputs": [],
      "name": "_prepare",
      "outputs": [],
      "stateMutability": "payable",
      "type": "function"
    },
    {
      "inputs": [
        {
          "internalType": "contract DiamondExtension",
          "name": "extensionToAdd",
          "type": "address"
        },
        {
          "internalType": "contract DiamondExtension",
          "name": "extensionToReplace",
          "type": "address"
        }
      ],
      "name": "_registerExtension",
      "outputs": [],
      "stateMutability": "nonpayable",
      "type": "function"
    },
    {
      "inputs": [
        {
          "internalType": "address",
          "name": "implementation_",
          "type": "address"
        },
        {
          "internalType": "bool",
          "name": "allowResign",
          "type": "bool"
        },
        {
          "internalType": "bytes",
          "name": "becomeImplementationData",
          "type": "bytes"
        }
      ],
      "name": "_setImplementationSafe",
      "outputs": [],
      "stateMutability": "nonpayable",
      "type": "function"
    },
    {
      "inputs": [
        {
          "internalType": "address",
          "name": "_plugin",
          "type": "address"
        }
      ],
      "name": "_updatePlugin",
      "outputs": [],
      "stateMutability": "nonpayable",
      "type": "function"
    },
    {
      "inputs": [
        {
          "internalType": "uint256",
          "name": "withdrawAmount",
          "type": "uint256"
        }
      ],
      "name": "_withdrawAdminFees",
      "outputs": [
        {
          "internalType": "uint256",
          "name": "",
          "type": "uint256"
        }
      ],
      "stateMutability": "nonpayable",
      "type": "function"
    },
    {
      "inputs": [
        {
          "internalType": "uint256",
          "name": "withdrawAmount",
          "type": "uint256"
        }
      ],
      "name": "_withdrawFuseFees",
      "outputs": [
        {
          "internalType": "uint256",
          "name": "",
          "type": "uint256"
        }
      ],
      "stateMutability": "nonpayable",
      "type": "function"
    },
    {
      "inputs": [],
      "name": "accrualBlockNumber",
      "outputs": [
        {
          "internalType": "uint256",
          "name": "",
          "type": "uint256"
        }
      ],
      "stateMutability": "view",
      "type": "function"
    },
    {
      "inputs": [],
      "name": "adminFeeMantissa",
      "outputs": [
        {
          "internalType": "uint256",
          "name": "",
          "type": "uint256"
        }
      ],
      "stateMutability": "view",
      "type": "function"
    },
    {
      "inputs": [],
      "name": "asCTokenExtensionInterface",
      "outputs": [
        {
          "internalType": "contract CTokenExtensionInterface",
          "name": "",
          "type": "address"
        }
      ],
      "stateMutability": "view",
      "type": "function"
    },
    {
      "inputs": [
        {
          "internalType": "uint256",
          "name": "borrowAmount",
          "type": "uint256"
        }
      ],
      "name": "borrow",
      "outputs": [
        {
          "internalType": "uint256",
          "name": "",
          "type": "uint256"
        }
      ],
      "stateMutability": "nonpayable",
      "type": "function"
    },
    {
      "inputs": [
        {
          "internalType": "address",
          "name": "account",
          "type": "address"
        }
      ],
      "name": "borrowBalanceCurrent",
      "outputs": [
        {
          "internalType": "uint256",
          "name": "",
          "type": "uint256"
        }
      ],
      "stateMutability": "nonpayable",
      "type": "function"
    },
    {
      "inputs": [
        {
          "internalType": "address",
          "name": "account",
          "type": "address"
        }
      ],
      "name": "borrowBalanceStored",
      "outputs": [
        {
          "internalType": "uint256",
          "name": "",
          "type": "uint256"
        }
      ],
      "stateMutability": "view",
      "type": "function"
    },
    {
      "inputs": [],
      "name": "borrowIndex",
      "outputs": [
        {
          "internalType": "uint256",
          "name": "",
          "type": "uint256"
        }
      ],
      "stateMutability": "view",
      "type": "function"
    },
    {
      "inputs": [],
      "name": "comptroller",
      "outputs": [
        {
          "internalType": "contract ComptrollerInterface",
          "name": "",
          "type": "address"
        }
      ],
      "stateMutability": "view",
      "type": "function"
    },
    {
      "inputs": [],
      "name": "contractType",
      "outputs": [
        {
          "internalType": "string",
          "name": "",
          "type": "string"
        }
      ],
      "stateMutability": "pure",
      "type": "function"
    },
    {
      "inputs": [],
      "name": "decimals",
      "outputs": [
        {
          "internalType": "uint8",
          "name": "",
          "type": "uint8"
        }
      ],
      "stateMutability": "view",
      "type": "function"
    },
    {
      "inputs": [],
      "name": "feeSeizeShareMantissa",
      "outputs": [
        {
          "internalType": "uint256",
          "name": "",
          "type": "uint256"
        }
      ],
      "stateMutability": "view",
      "type": "function"
    },
    {
      "inputs": [],
      "name": "fuseAdmin",
      "outputs": [
        {
          "internalType": "address payable",
          "name": "",
          "type": "address"
        }
      ],
      "stateMutability": "view",
      "type": "function"
    },
    {
      "inputs": [],
      "name": "fuseFeeMantissa",
      "outputs": [
        {
          "internalType": "uint256",
          "name": "",
          "type": "uint256"
        }
      ],
      "stateMutability": "view",
      "type": "function"
    },
    {
      "inputs": [
        {
          "internalType": "address",
          "name": "account",
          "type": "address"
        }
      ],
      "name": "getAccountSnapshot",
      "outputs": [
        {
          "internalType": "uint256",
          "name": "",
          "type": "uint256"
        },
        {
          "internalType": "uint256",
          "name": "",
          "type": "uint256"
        },
        {
          "internalType": "uint256",
          "name": "",
          "type": "uint256"
        },
        {
          "internalType": "uint256",
          "name": "",
          "type": "uint256"
        }
      ],
      "stateMutability": "view",
      "type": "function"
    },
    {
      "inputs": [],
      "name": "getCash",
      "outputs": [
        {
          "internalType": "uint256",
          "name": "",
          "type": "uint256"
        }
      ],
      "stateMutability": "view",
      "type": "function"
    },
    {
      "inputs": [],
      "name": "implementation",
      "outputs": [
        {
          "internalType": "address",
          "name": "",
          "type": "address"
        }
      ],
      "stateMutability": "view",
      "type": "function"
    },
    {
      "inputs": [
        {
          "internalType": "address",
          "name": "underlying_",
          "type": "address"
        },
        {
          "internalType": "contract ComptrollerInterface",
          "name": "comptroller_",
          "type": "address"
        },
        {
          "internalType": "address payable",
          "name": "fuseAdmin_",
          "type": "address"
        },
        {
          "internalType": "contract InterestRateModel",
          "name": "interestRateModel_",
          "type": "address"
        },
        {
          "internalType": "string",
          "name": "name_",
          "type": "string"
        },
        {
          "internalType": "string",
          "name": "symbol_",
          "type": "string"
        },
        {
          "internalType": "uint256",
          "name": "reserveFactorMantissa_",
          "type": "uint256"
        },
        {
          "internalType": "uint256",
          "name": "adminFeeMantissa_",
          "type": "uint256"
        }
      ],
      "name": "initialize",
      "outputs": [],
      "stateMutability": "nonpayable",
      "type": "function"
    },
    {
      "inputs": [
        {
          "internalType": "contract ComptrollerInterface",
          "name": "comptroller_",
          "type": "address"
        },
        {
          "internalType": "address payable",
          "name": "fuseAdmin_",
          "type": "address"
        },
        {
          "internalType": "contract InterestRateModel",
          "name": "interestRateModel_",
          "type": "address"
        },
        {
          "internalType": "uint256",
          "name": "initialExchangeRateMantissa_",
          "type": "uint256"
        },
        {
          "internalType": "string",
          "name": "name_",
          "type": "string"
        },
        {
          "internalType": "string",
          "name": "symbol_",
          "type": "string"
        },
        {
          "internalType": "uint8",
          "name": "decimals_",
          "type": "uint8"
        },
        {
          "internalType": "uint256",
          "name": "reserveFactorMantissa_",
          "type": "uint256"
        },
        {
          "internalType": "uint256",
          "name": "adminFeeMantissa_",
          "type": "uint256"
        }
      ],
      "name": "initialize",
      "outputs": [],
      "stateMutability": "nonpayable",
      "type": "function"
    },
    {
      "inputs": [],
      "name": "interestRateModel",
      "outputs": [
        {
          "internalType": "contract InterestRateModel",
          "name": "",
          "type": "address"
        }
      ],
      "stateMutability": "view",
      "type": "function"
    },
    {
      "inputs": [],
      "name": "isCEther",
      "outputs": [
        {
          "internalType": "bool",
          "name": "",
          "type": "bool"
        }
      ],
      "stateMutability": "nonpayable",
      "type": "function"
    },
    {
      "inputs": [],
      "name": "isCToken",
      "outputs": [
        {
          "internalType": "bool",
          "name": "",
          "type": "bool"
        }
      ],
      "stateMutability": "nonpayable",
      "type": "function"
    },
    {
      "inputs": [
        {
          "internalType": "address",
          "name": "borrower",
          "type": "address"
        },
        {
          "internalType": "uint256",
          "name": "repayAmount",
          "type": "uint256"
        },
        {
          "internalType": "contract CTokenInterface",
          "name": "cTokenCollateral",
          "type": "address"
        }
      ],
      "name": "liquidateBorrow",
      "outputs": [
        {
          "internalType": "uint256",
          "name": "",
          "type": "uint256"
        }
      ],
      "stateMutability": "nonpayable",
      "type": "function"
    },
    {
      "inputs": [
        {
          "internalType": "uint256",
          "name": "mintAmount",
          "type": "uint256"
        }
      ],
      "name": "mint",
      "outputs": [
        {
          "internalType": "uint256",
          "name": "",
          "type": "uint256"
        }
      ],
      "stateMutability": "nonpayable",
      "type": "function"
    },
    {
      "inputs": [],
      "name": "name",
      "outputs": [
        {
          "internalType": "string",
          "name": "",
          "type": "string"
        }
      ],
      "stateMutability": "view",
      "type": "function"
    },
    {
      "inputs": [],
      "name": "plugin",
      "outputs": [
        {
          "internalType": "contract IERC4626",
          "name": "",
          "type": "address"
        }
      ],
      "stateMutability": "view",
      "type": "function"
    },
    {
      "inputs": [],
      "name": "protocolSeizeShareMantissa",
      "outputs": [
        {
          "internalType": "uint256",
          "name": "",
          "type": "uint256"
        }
      ],
      "stateMutability": "view",
      "type": "function"
    },
    {
      "inputs": [
        {
          "internalType": "uint256",
          "name": "redeemTokens",
          "type": "uint256"
        }
      ],
      "name": "redeem",
      "outputs": [
        {
          "internalType": "uint256",
          "name": "",
          "type": "uint256"
        }
      ],
      "stateMutability": "nonpayable",
      "type": "function"
    },
    {
      "inputs": [
        {
          "internalType": "uint256",
          "name": "redeemAmount",
          "type": "uint256"
        }
      ],
      "name": "redeemUnderlying",
      "outputs": [
        {
          "internalType": "uint256",
          "name": "",
          "type": "uint256"
        }
      ],
      "stateMutability": "nonpayable",
      "type": "function"
    },
    {
      "inputs": [
        {
          "internalType": "uint256",
          "name": "repayAmount",
          "type": "uint256"
        }
      ],
      "name": "repayBorrow",
      "outputs": [
        {
          "internalType": "uint256",
          "name": "",
          "type": "uint256"
        }
      ],
      "stateMutability": "nonpayable",
      "type": "function"
    },
    {
      "inputs": [
        {
          "internalType": "address",
          "name": "borrower",
          "type": "address"
        },
        {
          "internalType": "uint256",
          "name": "repayAmount",
          "type": "uint256"
        }
      ],
      "name": "repayBorrowBehalf",
      "outputs": [
        {
          "internalType": "uint256",
          "name": "",
          "type": "uint256"
        }
      ],
      "stateMutability": "nonpayable",
      "type": "function"
    },
    {
      "inputs": [],
      "name": "reserveFactorMantissa",
      "outputs": [
        {
          "internalType": "uint256",
          "name": "",
          "type": "uint256"
        }
      ],
      "stateMutability": "view",
      "type": "function"
    },
    {
      "inputs": [
        {
          "internalType": "address",
          "name": "liquidator",
          "type": "address"
        },
        {
          "internalType": "address",
          "name": "borrower",
          "type": "address"
        },
        {
          "internalType": "uint256",
          "name": "seizeTokens",
          "type": "uint256"
        }
      ],
      "name": "seize",
      "outputs": [
        {
          "internalType": "uint256",
          "name": "",
          "type": "uint256"
        }
      ],
      "stateMutability": "nonpayable",
      "type": "function"
    },
    {
      "inputs": [],
      "name": "symbol",
      "outputs": [
        {
          "internalType": "string",
          "name": "",
          "type": "string"
        }
      ],
      "stateMutability": "view",
      "type": "function"
    },
    {
      "inputs": [],
      "name": "totalAdminFees",
      "outputs": [
        {
          "internalType": "uint256",
          "name": "",
          "type": "uint256"
        }
      ],
      "stateMutability": "view",
      "type": "function"
    },
    {
      "inputs": [],
      "name": "totalBorrows",
      "outputs": [
        {
          "internalType": "uint256",
          "name": "",
          "type": "uint256"
        }
      ],
      "stateMutability": "view",
      "type": "function"
    },
    {
      "inputs": [],
      "name": "totalFuseFees",
      "outputs": [
        {
          "internalType": "uint256",
          "name": "",
          "type": "uint256"
        }
      ],
      "stateMutability": "view",
      "type": "function"
    },
    {
      "inputs": [],
      "name": "totalReserves",
      "outputs": [
        {
          "internalType": "uint256",
          "name": "",
          "type": "uint256"
        }
      ],
      "stateMutability": "view",
      "type": "function"
    },
    {
      "inputs": [],
      "name": "totalSupply",
      "outputs": [
        {
          "internalType": "uint256",
          "name": "",
          "type": "uint256"
        }
      ],
      "stateMutability": "view",
      "type": "function"
    },
    {
      "inputs": [],
      "name": "underlying",
      "outputs": [
        {
          "internalType": "address",
          "name": "",
          "type": "address"
        }
      ],
      "stateMutability": "view",
      "type": "function"
    }
  ],
  "transactionHash": "0xf59b2decb36f271b2f8e5d2f1560dc7745e08b6e595903811e8a9366d451be70",
  "args": [],
  "numDeployments": 22,
  "bytecode": {
    "object": "0x608060405234801561001057600080fd5b50615c3580620000216000396000f3fe6080604052600436106102885760003560e01c8063852a12e31161015a578063b2a02ff1116100c1578063dbfe7c191161007a578063dbfe7c1914610816578063dc028ab11461082c578063ef01df4f14610842578063f3fdb15a14610862578063f5e3c46214610882578063fe9c44ae146108a257610288565b8063b2a02ff11461071d578063be99f1191461073d578063c37f68e214610759578063c5ebeaec14610799578063cb2ef6f7146107b9578063db006a75146107f657610288565b80639f5ef272116101135780639f5ef27214610674578063a03dce8d14610687578063a0712d68146106a7578063a7b820df146106c7578063aa5af0fd146106e7578063ac784ddc146106fd57610288565b8063852a12e3146105d357806389cd9855146105f35780638d02d9a1146106135780638f840ddd1461062957806395d89b411461063f57806395dd91931461065457610288565b8063313ce567116101fe5780635fe3b567116101b75780635fe3b5671461052a57806361feacff1461054a5780636333d001146105605780636752e702146105825780636c540baf1461059d5780636f307dc3146105b357610288565b8063313ce567146104735780633b1d21a21461049f57806347bd3718146104b457806350d85b73146104ca57806356e67728146104ea5780635c60da1b1461050a57610288565b806317bfdfbc1161025057806317bfdfbc146103d557806318160ddd146103f557806319f496c81461040b5780631db789441461042b578063219ef65c146104335780632608f8181461045357610288565b806306db3ecd1461030c57806306fdde031461032e5780630e7527021461035957806315761d5114610387578063173b9904146103bf575b34801561029457600080fd5b5060006102ac6000356001600160e01b0319166108b6565b90506001600160a01b0381166102e857604051630a82dd7360e31b81526001600160e01b03196000351660048201526024015b60405180910390fd5b3660008037600080366000845af43d6000803e808015610307573d6000f35b3d6000fd5b34801561031857600080fd5b5061032c610327366004615346565b610919565b005b34801561033a57600080fd5b50610343610a27565b6040516103509190615460565b60405180910390f35b34801561036557600080fd5b50610379610374366004615473565b610ab5565b604051908152602001610350565b34801561039357600080fd5b506001546103a7906001600160a01b031681565b6040516001600160a01b039091168152602001610350565b3480156103cb57600080fd5b50610379600b5481565b3480156103e157600080fd5b506103796103f036600461548c565b610ac9565b34801561040157600080fd5b5061037960125481565b34801561041757600080fd5b5061032c61042636600461548c565b610b95565b61032c610fc6565b34801561043f57600080fd5b5061032c61044e3660046154c3565b6110f7565b34801561045f57600080fd5b5061037961046e36600461558b565b611553565b34801561047f57600080fd5b5060055461048d9060ff1681565b60405160ff9091168152602001610350565b3480156104ab57600080fd5b5061037961156b565b3480156104c057600080fd5b50610379600e5481565b3480156104d657600080fd5b5061032c6104e53660046155c5565b61157a565b3480156104f657600080fd5b5061032c610505366004615657565b611613565b34801561051657600080fd5b506000546103a7906001600160a01b031681565b34801561053657600080fd5b506006546103a7906001600160a01b031681565b34801561055657600080fd5b5061037960105481565b34801561056c57600080fd5b50610575611775565b60405161035091906156a0565b34801561058e57600080fd5b50610379666379da05b6000081565b3480156105a957600080fd5b50610379600c5481565b3480156105bf57600080fd5b506016546103a7906001600160a01b031681565b3480156105df57600080fd5b506103796105ee366004615473565b61177f565b3480156105ff57600080fd5b5061032c61060e3660046156ed565b61178a565b34801561061f57600080fd5b5061037960095481565b34801561063557600080fd5b50610379600f5481565b34801561064b57600080fd5b5061034361185e565b34801561066057600080fd5b5061037961066f36600461548c565b61186b565b34801561068057600080fd5b50306103a7565b34801561069357600080fd5b506103796106a2366004615473565b61198f565b3480156106b357600080fd5b506103796106c2366004615473565b611ab0565b3480156106d357600080fd5b506103796106e2366004615473565b611abc565b3480156106f357600080fd5b50610379600d5481565b34801561070957600080fd5b5060005b6040519015158152602001610350565b34801561072957600080fd5b50610379610738366004615726565b611c2d565b34801561074957600080fd5b5061037967016345785d8a000081565b34801561076557600080fd5b5061077961077436600461548c565b611c51565b604080519485526020850193909352918301526060820152608001610350565b3480156107a557600080fd5b506103796107b4366004615473565b611cf4565b3480156107c557600080fd5b50604080518082019091526014815273434572633230506c7567696e44656c656761746560601b6020820152610343565b34801561080257600080fd5b50610379610811366004615473565b611cff565b34801561082257600080fd5b50610379600a5481565b34801561083857600080fd5b5061037960115481565b34801561084e57600080fd5b506017546103a7906001600160a01b031681565b34801561086e57600080fd5b506007546103a7906001600160a01b031681565b34801561088e57600080fd5b5061037961089d366004615767565b611d0a565b3480156108ae57600080fd5b50600161070d565b6001600160e01b031981166000908152600080516020615be9833981519152602081905260408220546001600160a01b03168061091257604051631f3f429960e31b81526001600160e01b0319851660048201526024016102df565b9392505050565b60006702c68af0bb14000090506000896001600160a01b031663313ce5676040518163ffffffff1660e01b8152600401602060405180830381865afa158015610966573d6000803e3d6000fd5b505050506040513d601f19601f8201168201806040525081019061098a91906157a9565b905061099d898989858a8a878b8b6110f7565b601680546001600160a01b0319166001600160a01b038c16908117909155604080516318160ddd60e01b815290516318160ddd916004808201926020929091908290030181865afa1580156109f6573d6000803e3d6000fd5b505050506040513d601f19601f82011682018060405250810190610a1a91906157c6565b5050505050505050505050565b60038054610a34906157df565b80601f0160208091040260200160405190810160405280929190818152602001828054610a60906157df565b8015610aad5780601f10610a8257610100808354040283529160200191610aad565b820191906000526020600020905b815481529060010190602001808311610a9057829003601f168201915b505050505081565b600080610ac183611d22565b509392505050565b600080610ad581611de6565b6000306001600160a01b031663a6afed956040518163ffffffff1660e01b81526004016020604051808303816000875af1158015610b17573d6000803e3d6000fd5b505050506040513d601f19601f82011682018060405250810190610b3b91906157c6565b14610b7a5760405162461bcd60e51b815260206004820152600f60248201526e085858d8dc9d59525b9d195c995cdd608a1b60448201526064016102df565b610b838361186b565b91505b610b8f81611eaa565b50919050565b33301480610ba65750610ba6611f2e565b610c065760405162461bcd60e51b815260206004820152602b60248201527f6f6e6c792073656c6620616e642061646d696e732063616e2063616c6c205f7560448201526a383230ba32a8363ab3b4b760a91b60648201526084016102df565b6017546000906001600160a01b0316610c1f5781610c2c565b6017546001600160a01b03165b600154604051637583efcf60e01b81526001600160a01b0380841660048301528581166024830152929350911690637583efcf90604401602060405180830381865afa158015610c80573d6000803e3d6000fd5b505050506040513d601f19601f82011682018060405250810190610ca4919061582a565b610cfe5760405162461bcd60e51b815260206004820152602560248201527f706c7567696e20696d706c656d656e746174696f6e206e6f742077686974656c6044820152641a5cdd195960da1b60648201526084016102df565b6017546001600160a01b031615801590610d8257506017546040516370a0823160e01b81523060048201526001600160a01b03909116906370a0823190602401602060405180830381865afa158015610d5b573d6000803e3d6000fd5b505050506040513d601f19601f82011682018060405250810190610d7f91906157c6565b15155b15610e6c576017546040516370a0823160e01b81523060048201526001600160a01b039091169063ba0876529082906370a0823190602401602060405180830381865afa158015610dd7573d6000803e3d6000fd5b505050506040513d601f19601f82011682018060405250810190610dfb91906157c6565b6040516001600160e01b031960e084901b1681526004810191909152306024820181905260448201526064016020604051808303816000875af1158015610e46573d6000803e3d6000fd5b505050506040513d601f19601f82011682018060405250810190610e6a91906157c6565b505b601780546001600160a01b0319166001600160a01b0384811691821790925560165460405163095ea7b360e01b8152600481019290925260001960248301529091169063095ea7b3906044016020604051808303816000875af1158015610ed7573d6000803e3d6000fd5b505050506040513d601f19601f82011682018060405250810190610efb919061582a565b506016546040516370a0823160e01b81523060048201526000916001600160a01b0316906370a0823190602401602060405180830381865afa158015610f45573d6000803e3d6000fd5b505050506040513d601f19601f82011682018060405250810190610f6991906157c6565b90508015610f7a57610f7a8161209f565b601754604080516001600160a01b03928316815291851660208301527fb32957d2794aaec3ea2c8852833af2192fe9fb518777de1f883e9e821781da75910160405180910390a1505050565b3330148015906110485750600660009054906101000a90046001600160a01b03166001600160a01b031663dd5cd22c6040518163ffffffff1660e01b8152600401602060405180830381865afa158015611024573d6000803e3d6000fd5b505050506040513d601f19601f82011682018060405250810190611048919061582a565b156110f557600154600080546040516345cc970560e01b81526001600160a01b039182166004820152919283928392909116906345cc970590602401600060405180830381865afa1580156110a1573d6000803e3d6000fd5b505050506040513d6000823e601f3d908101601f191682016040526110c99190810190615847565b60005492955090935091506001600160a01b038085169116146110f1576110f1838383612114565b5050505b565b336001600160a01b038916146111385760405162461bcd60e51b815260206004820152600660248201526510b0b236b4b760d11b60448201526064016102df565b600c541580156111485750600d54155b6111835760405162461bcd60e51b815260206004820152600c60248201526b085a5b9a5d1a585b1a5e995960a21b60448201526064016102df565b600180546001600160a01b0319166001600160a01b038a161790556008869055856111e25760405162461bcd60e51b815260206004820152600f60248201526e02165786368616e6765526174653e3608c1b60448201526064016102df565b600680546001600160a01b0319166001600160a01b038b81169190911790915543600c55670de0b6b3a7640000600d55604080516310c8fc9560e11b8152905191891691632191f92a916004808201926020929091908290030181865afa158015611251573d6000803e3d6000fd5b505050506040513d601f19601f82011682018060405250810190611275919061582a565b6112ab5760405162461bcd60e51b8152602060048201526007602482015266216e6f7449726d60c81b60448201526064016102df565b600780546001600160a01b0319166001600160a01b038916908117909155604080516000815260208101929092527fedffc32e068c7c95dfd4bdfd5c4d939a084d6b11c4199eac8436ed234d72f926910160405180910390a184516113179060039060208801906151bb565b50835161132b9060049060208701906151bb565b506005805460ff191660ff8516179055600a54600954670de0b6b3a7640000919061135690856158fd565b61136091906158fd565b11156113985760405162461bcd60e51b8152602060048201526007602482015266085c998e9cd95d60ca1b60448201526064016102df565b600b8290556040805160008152602081018490527faaa68312e2ea9d50e16af5068410ab56e1a1fd06037b1a35664812c30f821460910160405180910390a16000198114156113e657506009545b6001546040805163dd86fea160e01b815290516000926001600160a01b03169163dd86fea19160048083019260209291908290030181865afa158015611430573d6000803e3d6000fd5b505050506040513d601f19601f8201168201806040525081019061145491906157c6565b9050670de0b6b3a76400008183600b5461146e91906158fd565b61147891906158fd565b11156114b65760405162461bcd60e51b815260206004820152600d60248201526c0858591b5a5b9199594e9cd95d609a1b60448201526064016102df565b60098290556040805160008152602081018490527fcdd0b588250e1398549f79cfdb8217c186688822905d6715b0834ea1c865594a910160405180910390a1600a8190556040805160008152602081018390527f92eef861b6533b7d3417f39c2ad7b460eed4e88a32fa3604f30e718b7602e7dc910160405180910390a150506002805460ff60b01b1916600160b01b1790555050505050505050565b60008061156084846123a9565b509150505b92915050565b600061157561246f565b905090565b611582611f2e565b6115b75760405162461bcd60e51b815260206004820152600660248201526510b0b236b4b760d11b60448201526064016102df565b6000546001600160a01b0385811691161461160d5761160d848484848080601f01602080910402602001604051908101604052809392919081815260200183838082843760009201919091525061211492505050565b50505050565b333014806116245750611624611f2e565b61168c5760405162461bcd60e51b815260206004820152603360248201527f6f6e6c792073656c6620616e642061646d696e732063616e2063616c6c205f6260448201527232b1b7b6b2a4b6b83632b6b2b73a30ba34b7b760691b60648201526084016102df565b6000818060200190518101906116a29190615915565b90506001600160a01b0381161580156116c557506017546001600160a01b031615155b1561173d576001546017546040516381218ea960e01b81526001600160a01b0391821660048201529116906381218ea990602401602060405180830381865afa158015611716573d6000803e3d6000fd5b505050506040513d601f19601f8201168201806040525081019061173a9190615915565b90505b6001600160a01b0381161580159061176357506017546001600160a01b03828116911614155b156117715761177181610b95565b5050565b6060611575612543565b6000611565826125b5565b6006546001546001600160a01b039182169116331480156118085750806001600160a01b0316632f1069ba6040518163ffffffff1660e01b8152600401602060405180830381865afa1580156117e4573d6000803e3d6000fd5b505050506040513d601f19601f82011682018060405250810190611808919061582a565b6118545760405162461bcd60e51b815260206004820152601f60248201527f21756e617574686f72697a6564202d206e6f2061646d696e207269676874730060448201526064016102df565b6110f18383612657565b60048054610a34906157df565b6001600160a01b038116600090815260156020526040812080548291829182919061189c5750600095945050505050565b6118ac8160000154600d54612678565b909450925060008460038111156118c5576118c5615814565b146119125760405162461bcd60e51b815260206004820152601e60248201527f216d756c55496e74206f766572666c6f7720636865636b206661696c6564000060448201526064016102df565b6119208382600101546126ba565b9094509150600084600381111561193957611939615814565b146119865760405162461bcd60e51b815260206004820152601e60248201527f2164697655496e74206f766572666c6f7720636865636b206661696c6564000060448201526064016102df565b50949350505050565b60008061199b81611de6565b6000306001600160a01b031663a6afed956040518163ffffffff1660e01b81526004016020604051808303816000875af11580156119dd573d6000803e3d6000fd5b505050506040513d601f19601f82011682018060405250810190611a0191906157c6565b90508015611a2d57611a25816011811115611a1e57611a1e615814565b60336126e5565b925050610b86565b43600c5414611a4257611a25600a60356126e5565b83611a4b61246f565b1015611a5d57611a25600e60346126e5565b601154841115611a7357611a25600260366126e5565b600084601154611a839190615932565b6011819055600154909150611aa1906001600160a01b03168661275e565b600093505050610b8f81611eaa565b600080610ac1836127db565b600080611ac881611de6565b6000306001600160a01b031663a6afed956040518163ffffffff1660e01b81526004016020604051808303816000875af1158015611b0a573d6000803e3d6000fd5b505050506040513d601f19601f82011682018060405250810190611b2e91906157c6565b90508015611b5257611a25816011811115611b4b57611b4b615814565b60376126e5565b43600c5414611b6757611a25600a60396126e5565b83611b7061246f565b1015611b8257611a25600e60386126e5565b601054841115611b9857611a256002603a6126e5565b83601054611ba69190615932565b601055600654604080516303e1469160e61b81529051611c1e926001600160a01b03169163f851a4409160048083019260209291908290030181865afa158015611bf4573d6000803e3d6000fd5b505050506040513d601f19601f82011682018060405250810190611c189190615915565b8561275e565b60005b925050610b8f81611eaa565b60006001611c3a81611de6565b611c463386868661287d565b9150610ac181611eaa565b6001600160a01b038116600090815260136020526040812054819081908190818080611c7c8961186b565b9250306001600160a01b031663182df0f56040518163ffffffff1660e01b8152600401602060405180830381865afa158015611cbc573d6000803e3d6000fd5b505050506040513d601f19601f82011682018060405250810190611ce091906157c6565b915060009993985091965094509092505050565b600061156582612d61565b600061156582612e01565b600080611d18858585612e9c565b5095945050505050565b6000806000611d3081611de6565b6000306001600160a01b031663a6afed956040518163ffffffff1660e01b81526004016020604051808303816000875af1158015611d72573d6000803e3d6000fd5b505050506040513d601f19601f82011682018060405250810190611d9691906157c6565b90508015611dc657611dba816011811115611db357611db3615814565b60416126e5565b60009350935050611dd7565b611dd133338761304d565b93509350505b611de081611eaa565b50915091565b600254600160b01b900460ff16611e2c5760405162461bcd60e51b815260206004820152600a6024820152691c994b595b9d195c995960b21b60448201526064016102df565b80611e9a57600660009054906101000a90046001600160a01b03166001600160a01b031663c90c20b16040518163ffffffff1660e01b8152600401600060405180830381600087803b158015611e8157600080fd5b505af1158015611e95573d6000803e3d6000fd5b505050505b506002805460ff60b01b19169055565b6002805460ff60b01b1916600160b01b17905580611f2b57600660009054906101000a90046001600160a01b03166001600160a01b031663632e51426040518163ffffffff1660e01b8152600401600060405180830381600087803b158015611f1257600080fd5b505af1158015611f26573d6000803e3d6000fd5b505050505b50565b600654604080516303e1469160e61b815290516000926001600160a01b031691829163f851a440916004808201926020929091908290030181865afa158015611f7b573d6000803e3d6000fd5b505050506040513d601f19601f82011682018060405250810190611f9f9190615915565b6001600160a01b0316336001600160a01b031614801561201c5750806001600160a01b0316630a755ec26040518163ffffffff1660e01b8152600401602060405180830381865afa158015611ff8573d6000803e3d6000fd5b505050506040513d601f19601f8201168201806040525081019061201c919061582a565b8061209957506001546001600160a01b0316331480156120995750806001600160a01b0316632f1069ba6040518163ffffffff1660e01b8152600401602060405180830381865afa158015612075573d6000803e3d6000fd5b505050506040513d601f19601f82011682018060405250810190612099919061582a565b91505090565b601754604051636e553f6560e01b8152600481018390523060248201526001600160a01b0390911690636e553f65906044016020604051808303816000875af11580156120f0573d6000803e3d6000fd5b505050506040513d601f19601f8201168201806040525081019061177191906157c6565b6001546000546040516338e6a07360e11b81526001600160a01b039182166004820152858216602482015284151560448201529116906371cd40e690606401602060405180830381865afa158015612170573d6000803e3d6000fd5b505050506040513d601f19601f82011682018060405250810190612194919061582a565b6121c85760405162461bcd60e51b8152602060048201526005602482015264085a5b5c1b60da1b60448201526064016102df565b600080546001600160a01b031981166001600160a01b0386811691821784556001546040516311a0e21760e01b81526004810193909352928116939216906311a0e21790602401600060405180830381865afa15801561222c573d6000803e3d6000fd5b505050506040513d6000823e601f3d908101601f19168201604052612254919081019061596d565b90506000612260612543565b905060005b81518110156122a25761229082828151811061228357612283615a07565b60200260200101516133f2565b8061229a81615a1d565b915050612265565b5060005b82518110156122e3576122d18382815181106122c4576122c4615a07565b6020026020010151613522565b806122db81615a1d565b9150506122a6565b50303b6122f8576122f384611613565b61235a565b612358308560405160240161230d9190615460565b60408051601f19818403018152918152602080830180516001600160e01b0316630adccee560e31b17905281518083019092526007825266216265636f6d6560c81b9082015261361a565b505b600054604080516001600160a01b03808716825290921660208301527fd604de94d45953f9138079ec1b82d533cb2160c906d1076d1f7ed54befbca97a910160405180910390a1505050505050565b60008060006123b781611de6565b6000306001600160a01b031663a6afed956040518163ffffffff1660e01b81526004016020604051808303816000875af11580156123f9573d6000803e3d6000fd5b505050506040513d601f19601f8201168201806040525081019061241d91906157c6565b9050801561244d5761244181601181111561243a5761243a615814565b60406126e5565b6000935093505061245e565b61245833878761304d565b93509350505b61246781611eaa565b509250929050565b6017546040516370a0823160e01b81523060048201526000916001600160a01b031690634cdad5069082906370a0823190602401602060405180830381865afa1580156124c0573d6000803e3d6000fd5b505050506040513d601f19601f820116820180604052508101906124e491906157c6565b6040518263ffffffff1660e01b815260040161250291815260200190565b602060405180830381865afa15801561251f573d6000803e3d6000fd5b505050506040513d601f19601f8201168201806040525081019061157591906157c6565b6060600080516020615be98339815191526002018054806020026020016040519081016040528092919081815260200182805480156125ab57602002820191906000526020600020905b81546001600160a01b0316815260019091019060200180831161258d575b5050505050905090565b6000806125c181611de6565b6000306001600160a01b031663a6afed956040518163ffffffff1660e01b81526004016020604051808303816000875af1158015612603573d6000803e3d6000fd5b505050506040513d601f19601f8201168201806040525081019061262791906157c6565b9050801561264b57611a2581601181111561264457612644615814565b602a6126e5565b611c21336000866136b6565b6001600160a01b0381161561266f5761266f816133f2565b61177182613522565b6000808361268b575060009050806126b3565b838302836126998683615a38565b146126ac576002600092509250506126b3565b6000925090505b9250929050565b600080826126ce57506001905060006126b3565b60006126da8486615a38565b915091509250929050565b60007f45b96fe442630264581b197e84bbada861235052c5a1aadfff9ea4e40a969aa083601181111561271a5761271a615814565b83606181111561272c5761272c615814565b60408051928352602083019190915260009082015260600160405180910390a182601181111561091257610912615814565b601754604051632d182be560e21b8152600481018390526001600160a01b0384811660248301523060448301529091169063b460af94906064016020604051808303816000875af11580156127b7573d6000803e3d6000fd5b505050506040513d601f19601f820116820180604052508101906110f191906157c6565b60008060006127e981611de6565b6000306001600160a01b031663a6afed956040518163ffffffff1660e01b81526004016020604051808303816000875af115801561282b573d6000803e3d6000fd5b505050506040513d601f19601f8201168201806040525081019061284f91906157c6565b9050801561287357611dba81601181111561286c5761286c615814565b60206126e5565b611dd13386613caa565b60065460405163d02f735160e01b81523060048201526001600160a01b0386811660248301528581166044830152848116606483015260848201849052600092839291169063d02f73519060a4016020604051808303816000875af11580156128ea573d6000803e3d6000fd5b505050506040513d601f19601f8201168201806040525081019061290e91906157c6565b9050801561292b576129236003601d83614022565b915050612d59565b846001600160a01b0316846001600160a01b03161415612951576129236006601e6126e5565b6129b6604080516101808101909152806000815260200160008152602001600081526020016000815260200160008152602001600081526020016000815260200160008152602001600081526020016000815260200160008152602001600081525090565b6001600160a01b0385166000908152601360205260409020546129d990856140c4565b60208301819052828260038111156129f3576129f3615814565b6003811115612a0457612a04615814565b9052506000905081516003811115612a1e57612a1e615814565b14612a4e57612a456009601c83600001516003811115612a4057612a40615814565b614022565b92505050612d59565b612a6d846040518060200160405280666379da05b600008152506140ef565b6080820152604080516020810190915267016345785d8a00008152612a939085906140ef565b61014082018190526080820151612aaa9086615932565b612ab49190615932565b6060820152306001600160a01b031663182df0f56040518163ffffffff1660e01b8152600401602060405180830381865afa158015612af7573d6000803e3d6000fd5b505050506040513d601f19601f82011682018060405250810190612b1b91906157c6565b60c082019081526040805160208101909152905181526080820151612b409190614112565b60a0820152604080516020810190915260c08201518152610140820151612b679190614112565b61016082015260a0810151600f54612b7f91906158fd565b60e08201526101408101516080820151601254612b9c9190615932565b612ba69190615932565b610120820152610160810151601154612bbf91906158fd565b6101008201526001600160a01b0386166000908152601360205260409020546060820151612bed919061412a565b6040830181905282826003811115612c0757612c07615814565b6003811115612c1857612c18615814565b9052506000905081516003811115612c3257612c32615814565b14612c5457612a456009601b83600001516003811115612a4057612a40615814565b60e0810151600f556101208101516012556101008101516011556020808201516001600160a01b0387811660008181526013855260408082209490945583860151928b1680825290849020929092556060850151925192835290929091600080516020615c09833981519152910160405180910390a3306001600160a01b0316856001600160a01b0316600080516020615c098339815191528360800151604051612d0191815260200190565b60405180910390a360a081015160e08201516040805130815260208101939093528201527fa91e67c5ea634cd43a12c5a482724b03de01e85ca68702a53d0c2f45cb7c1dc59060600160405180910390a16000925050505b949350505050565b600080612d6d81611de6565b6000306001600160a01b031663a6afed956040518163ffffffff1660e01b81526004016020604051808303816000875af1158015612daf573d6000803e3d6000fd5b505050506040513d601f19601f82011682018060405250810190612dd391906157c6565b90508015612df757611a25816011811115612df057612df0615814565b600a6126e5565b611c213385614150565b600080612e0d81611de6565b6000306001600160a01b031663a6afed956040518163ffffffff1660e01b81526004016020604051808303816000875af1158015612e4f573d6000803e3d6000fd5b505050506040513d601f19601f82011682018060405250810190612e7391906157c6565b90508015612e9057611a2581601181111561264457612644615814565b611c21338560006136b6565b6000806000612eaa81611de6565b6000306001600160a01b031663a6afed956040518163ffffffff1660e01b81526004016020604051808303816000875af1158015612eec573d6000803e3d6000fd5b505050506040513d601f19601f82011682018060405250810190612f1091906157c6565b90508015612f4057612f34816011811115612f2d57612f2d615814565b60116126e5565b6000935093505061303b565b846001600160a01b0316639f5ef2726040518163ffffffff1660e01b8152600401602060405180830381865afa158015612f7e573d6000803e3d6000fd5b505050506040513d601f19601f82011682018060405250810190612fa29190615915565b6001600160a01b031663a6afed956040518163ffffffff1660e01b81526004016020604051808303816000875af1158015612fe1573d6000803e3d6000fd5b505050506040513d601f19601f8201168201806040525081019061300591906157c6565b9050801561302957612f3481601181111561302257613022615814565b60126126e5565b6130353388888861447f565b93509350505b61304481611eaa565b50935093915050565b600654604051631200453160e11b81523060048201526001600160a01b03858116602483015284811660448301526064820184905260009283928392909116906324008a62906084016020604051808303816000875af11580156130b5573d6000803e3d6000fd5b505050506040513d601f19601f820116820180604052508101906130d991906157c6565b905080156130fa576130ee6003604383614022565b600092509250506133ea565b43600c541461310f576130ee600a60446126e5565b6131586040805161010081019091528060008152602001600081526020016000815260200160008152602001600081526020016000815260200160008152602001600081525090565b6001600160a01b03861660009081526015602052604090206001015460608201526131828661186b565b60808201526000198514156131a057608081015160408201526131a8565b604081018590525b6131b6878260400151614994565b60e0820181905260808201516131cb916140c4565b60a08301819052602083018260038111156131e8576131e8615814565b60038111156131f9576131f9615814565b905250600090508160200151600381111561321657613216615814565b146132895760405162461bcd60e51b815260206004820152603a60248201527f52455041595f424f52524f575f4e45575f4143434f554e545f424f52524f575f60448201527f42414c414e43455f43414c43554c4154494f4e5f4641494c454400000000000060648201526084016102df565b613299600e548260e001516140c4565b60c08301819052602083018260038111156132b6576132b6615814565b60038111156132c7576132c7615814565b90525060009050816020015160038111156132e4576132e4615814565b1461334b5760405162461bcd60e51b815260206004820152603160248201527f52455041595f424f52524f575f4e45575f544f54414c5f42414c414e43455f43604482015270105310d55310551253d397d19052531151607a1b60648201526084016102df565b60a081810180516001600160a01b03898116600081815260156020908152604091829020948555600d5460019095019490945560c0870151600e81905560e088015195518251948f16855294840192909252820193909352606081019190915260808101919091527f1a2a22cb034d26d1854bdc6666a5b91fe25efbbb5dcad3b0355478d6f5c362a1910160405180910390a160e00151600093509150505b935093915050565b600080516020615be983398151915261340a82614a4a565b60005b600282015460ff821610156110f157826001600160a01b0316826002018260ff168154811061343e5761343e615a07565b6000918252602090912001546001600160a01b031614156135105760028201805461346b90600190615932565b8154811061347b5761347b615a07565b6000918252602090912001546002830180546001600160a01b039092169160ff84169081106134ac576134ac615a07565b9060005260206000200160006101000a8154816001600160a01b0302191690836001600160a01b03160217905550816002018054806134ed576134ed615a5a565b600082815260209020810160001990810180546001600160a01b03191690550190555b8061351a81615a70565b91505061340d565b600080516020615be983398151915260005b600282015460ff821610156135da57826001600160a01b0316826002018260ff168154811061356557613565615a07565b6000918252602090912001546001600160a01b031614156135c85760405162461bcd60e51b815260206004820152601760248201527f657874656e73696f6e20616c726561647920616464656400000000000000000060448201526064016102df565b806135d281615a70565b915050613534565b506135e482614cd7565b6002018054600181018255600091825260209091200180546001600160a01b0319166001600160a01b0392909216919091179055565b6060600080856001600160a01b0316856040516136379190615a90565b6000604051808303816000865af19150503d8060008114613674576040519150601f19603f3d011682016040523d82523d6000602084013e613679565b606091505b5091509150816136ad578051156136935780518082602001fd5b8360405162461bcd60e51b81526004016102df9190615460565b95945050505050565b60008215806136c3575081155b61370f5760405162461bcd60e51b815260206004820152601860248201527f2172656465656d20746f6b656e73206f7220616d6f756e74000000000000000060448201526064016102df565b6137506040805160e0810190915280600081526020016000815260200160008152602001600081526020016000815260200160008152602001600081525090565b306001600160a01b031663182df0f56040518163ffffffff1660e01b8152600401602060405180830381865afa15801561378e573d6000803e3d6000fd5b505050506040513d601f19601f820116820180604052508101906137b291906157c6565b604082015260001983141561384157600654604051630cbb414760e11b81526001600160a01b0387811660048301523060248301526000604483015290911690631976828e906064016020604051808303816000875af115801561381a573d6000803e3d6000fd5b505050506040513d601f19601f8201168201806040525081019061383e91906157c6565b92505b83156138e25760608101849052604080516020810182529082015181526138689085614ec1565b608083018190526020830182600381111561388557613885615814565b600381111561389657613896615814565b90525060009050816020015160038111156138b3576138b3615814565b146138dd576138d56009602c83602001516003811115612a4057612a40615814565b915050610912565b613973565b6138fe8360405180602001604052808460400151815250614f13565b606083018190526020830182600381111561391b5761391b615814565b600381111561392c5761392c615814565b905250600090508160200151600381111561394957613949615814565b1461396b576138d56009602d83602001516003811115612a4057612a40615814565b608081018390525b600654606082015160405163eabe7d9160e01b81526000926001600160a01b03169163eabe7d91916139ac9130918b9190600401615aac565b6020604051808303816000875af11580156139cb573d6000803e3d6000fd5b505050506040513d601f19601f820116820180604052508101906139ef91906157c6565b90508015613a0d57613a046003602b83614022565b92505050610912565b43600c5414613a2257613a04600a602f6126e5565b613a3260125483606001516140c4565b60a0840181905260208401826003811115613a4f57613a4f615814565b6003811115613a6057613a60615814565b9052506000905082602001516003811115613a7d57613a7d615814565b14613a9f57613a046009603184602001516003811115612a4057612a40615814565b6001600160a01b0386166000908152601360205260409020546060830151613ac791906140c4565b60c0840181905260208401826003811115613ae457613ae4615814565b6003811115613af557613af5615814565b9052506000905082602001516003811115613b1257613b12615814565b14613b3457613a046009603084602001516003811115612a4057612a40615814565b8160800151613b4161246f565b1015613b5357613a04600e60326126e5565b60a082015160125560c08201516001600160a01b0387166000908152601360205260409020556080820151613b8990879061275e565b306001600160a01b0316866001600160a01b0316600080516020615c098339815191528460600151604051613bc091815260200190565b60405180910390a36080820151606080840151604080516001600160a01b038b16815260208101949094528301527fe5b754fb1abb7f01b499791d0b820ae3b6af3424ac1c59768edb53f4ec31a929910160405180910390a1600654608083015160608401516040516351dff98960e01b81523060048201526001600160a01b038a81166024830152604482019390935260648101919091529116906351dff98990608401600060405180830381600087803b158015613c7f57600080fd5b505af1158015613c93573d6000803e3d6000fd5b5060009250613ca0915050565b9695505050505050565b600654604051634ef4c3e160e01b8152600091829182916001600160a01b031690634ef4c3e190613ce390309089908990600401615aac565b6020604051808303816000875af1158015613d02573d6000803e3d6000fd5b505050506040513d601f19601f82011682018060405250810190613d2691906157c6565b90508015613d4757613d3b6003602183614022565b600092509250506126b3565b43600c5414613d5c57613d3b600a60246126e5565b613d9d6040805160e0810190915280600081526020016000815260200160008152602001600081526020016000815260200160008152602001600081525090565b306001600160a01b031663182df0f56040518163ffffffff1660e01b8152600401602060405180830381865afa158015613ddb573d6000803e3d6000fd5b505050506040513d601f19601f82011682018060405250810190613dff91906157c6565b6040820152613e0e8686614994565b60c0820181905260408051602081018252908301518152613e2f9190614f13565b6060830181905260208301826003811115613e4c57613e4c615814565b6003811115613e5d57613e5d615814565b9052506000905081602001516003811115613e7a57613e7a615814565b14613ec75760405162461bcd60e51b815260206004820181905260248201527f4d494e545f45584348414e47455f43414c43554c4154494f4e5f4641494c454460448201526064016102df565b6000816060015111613f1b5760405162461bcd60e51b815260206004820152601a60248201527f4d494e545f5a45524f5f43544f4b454e535f52454a454354454400000000000060448201526064016102df565b8060600151601254613f2d91906158fd565b608082015260608101516001600160a01b038716600090815260136020526040902054613f5a91906158fd565b60a0820181905260808201516012556001600160a01b0387166000818152601360209081526040918290209390935560c0840151606080860151835194855294840191909152908201929092527f4c209b5fc8ad50758f13e2e1088ba56a560dff690a1c6fef26394f4c03821c4f910160405180910390a1856001600160a01b0316306001600160a01b0316600080516020615c09833981519152836060015160405161400991815260200190565b60405180910390a360c001516000969095509350505050565b60007f45b96fe442630264581b197e84bbada861235052c5a1aadfff9ea4e40a969aa084601181111561405757614057615814565b84606181111561406957614069615814565b604080519283526020830191909152810184905260600160405180910390a1600384601181111561409c5761409c615814565b146140b8578360118111156140b3576140b3615814565b612d59565b612d59826103e86158fd565b6000808383116140e35760006140da8486615932565b915091506126b3565b506003905060006126b3565b6000670de0b6b3a7640000614108848460000151614f23565b6109129190615a38565b60008061411f8484614f65565b9050612d5981614f96565b600080838301848110614142576000925090506126b3565b6002600092509250506126b3565b60065460405163368f515360e21b815260009182916001600160a01b039091169063da3d454c9061418990309088908890600401615aac565b6020604051808303816000875af11580156141a8573d6000803e3d6000fd5b505050506040513d601f19601f820116820180604052508101906141cc91906157c6565b905080156141e9576141e16003601083614022565b915050611565565b43600c54146141fe576141e1600a600c6126e5565b600061420861246f565b9050838110156142275761421e600e600b6126e5565b92505050611565565b614253604080516080810190915280600081526020016000815260200160008152602001600081525090565b61425c8661186b565b6020820181905261426d908661412a565b604083018190528282600381111561428757614287615814565b600381111561429857614298615814565b90525060009050815160038111156142b2576142b2615814565b146142de576142d46009600e83600001516003811115612a4057612a40615814565b9350505050611565565b6006546040828101519051631de6c8a560e21b815230600482015260248101919091526001600160a01b039091169063779b229490604401602060405180830381865afa158015614333573d6000803e3d6000fd5b505050506040513d601f19601f8201168201806040525081019061435791906157c6565b9250821561436c576142d46003601085614022565b614378600e548661412a565b606083018190528282600381111561439257614392615814565b60038111156143a3576143a3615814565b90525060009050815160038111156143bd576143bd615814565b146143df576142d46009600d83600001516003811115612a4057612a40615814565b6040808201516001600160a01b0388166000908152601560205291909120908155600d546001909101556060810151600e5561441b868661275e565b60408082015160608084015183516001600160a01b038b168152602081018a9052938401929092528201527f13ed6866d4e1ee6da46f845c46d7e54120883d75c5ea9a2dacc1c4ca8984ab809060800160405180910390a160009695505050505050565b600654604051632fe3f38f60e11b81523060048201526001600160a01b03838116602483015286811660448301528581166064830152608482018590526000928392839290911690635fc7e71e9060a4016020604051808303816000875af11580156144ef573d6000803e3d6000fd5b505050506040513d601f19601f8201168201806040525081019061451391906157c6565b90508015614534576145286003601483614022565b6000925092505061498b565b43600c541461454957614528600a60186126e5565b43846001600160a01b0316636c540baf6040518163ffffffff1660e01b8152600401602060405180830381865afa158015614588573d6000803e3d6000fd5b505050506040513d601f19601f820116820180604052508101906145ac91906157c6565b146145bd57614528600a60136126e5565b866001600160a01b0316866001600160a01b031614156145e357614528600660196126e5565b846145f457614528600760176126e5565b60001985141561460a57614528600760166126e5565b60008061461889898961304d565b9092509050811561464d5761463f82601181111561463857614638615814565b601a6126e5565b60009450945050505061498b565b60065460405163c488847b60e01b815260009182916001600160a01b039091169063c488847b906146869030908c908890600401615aac565b6040805180830381865afa1580156146a2573d6000803e3d6000fd5b505050506040513d601f19601f820116820180604052508101906146c69190615ad0565b909250905081156147355760405162461bcd60e51b815260206004820152603360248201527f4c49515549444154455f434f4d5054524f4c4c45525f43414c43554c4154455f604482015272105353d5539517d4d152569157d19052531151606a1b60648201526084016102df565b80886001600160a01b0316639f5ef2726040518163ffffffff1660e01b8152600401602060405180830381865afa158015614774573d6000803e3d6000fd5b505050506040513d601f19601f820116820180604052508101906147989190615915565b6040516370a0823160e01b81526001600160a01b038d8116600483015291909116906370a0823190602401602060405180830381865afa1580156147e0573d6000803e3d6000fd5b505050506040513d601f19601f8201168201806040525081019061480491906157c6565b10156148525760405162461bcd60e51b815260206004820152601860248201527f4c49515549444154455f5345495a455f544f4f5f4d554348000000000000000060448201526064016102df565b60006001600160a01b03891630141561487857614871308d8d8561287d565b90506148ee565b60405163b2a02ff160e01b81526001600160a01b038a169063b2a02ff1906148a8908f908f908790600401615aac565b6020604051808303816000875af11580156148c7573d6000803e3d6000fd5b505050506040513d601f19601f820116820180604052508101906148eb91906157c6565b90505b80156149255760405162461bcd60e51b8152602060048201526006602482015265217365697a6560d01b60448201526064016102df565b604080516001600160a01b038e811682528d811660208301528183018790528b1660608201526080810184905290517f298637f684da70674f26509b10f07ec2fbc77a335ab1e7d6215a4b2484d8bb529181900360a00190a16000975092955050505050505b94509492505050565b6016546040516323b872dd60e01b81526000916001600160a01b0316906323b872dd906149c990869030908790600401615aac565b6020604051808303816000875af11580156149e8573d6000803e3d6000fd5b505050506040513d601f19601f82011682018060405250810190614a0c919061582a565b614a415760405162461bcd60e51b81526004016102df906020808252600490820152631cd95b9960e21b604082015260600190565b610b8f8261209f565b6000816001600160a01b03166389f8132e6040518163ffffffff1660e01b8152600401600060405180830381865afa158015614a8a573d6000803e3d6000fd5b505050506040513d6000823e601f3d908101601f19168201604052614ab29190810190615af4565b9050600080516020615be983398151915260005b82518161ffff16101561160d576000838261ffff1681518110614aeb57614aeb615a07565b6020908102919091018101516001600160e01b031981166000908152918590526040909120549091506001600160a01b03868116911614614b2e57614b2e615b91565b6001600160e01b0319811660009081526020849052604090205460018085018054600160a01b90930461ffff16929091614b6791615932565b81548110614b7757614b77615a07565b90600052602060002090600891828204019190066004029054906101000a900460e01b846001018261ffff1681548110614bb357614bb3615a07565b90600052602060002090600891828204019190066004026101000a81548163ffffffff021916908360e01c021790555080846000016000866001018461ffff1681548110614c0357614c03615a07565b6000918252602080832060088304015460079092166004026101000a90910460e01b6001600160e01b03191683528201929092526040019020805461ffff60a01b1916600160a01b61ffff939093169290920291909117905560018401805480614c6f57614c6f615a5a565b60008281526020808220600860001990940193840401805463ffffffff600460078716026101000a0219169055919092556001600160e01b0319909316815291849052506040902080546001600160b01b031916905580614ccf81615ba7565b915050614ac6565b6000816001600160a01b03166389f8132e6040518163ffffffff1660e01b8152600401600060405180830381865afa158015614d17573d6000803e3d6000fd5b505050506040513d6000823e601f3d908101601f19168201604052614d3f9190810190615af4565b7fc8fcad8db84d3cc18b4c41d551ea0ee66dd599cde068d998e57d5e09332c131d54909150600080516020615be98339815191529060005b8351811015611f26576000848281518110614d9457614d94615a07565b6020908102919091018101516001600160e01b031981166000908152918690526040909120549091506001600160a01b03168015614e0057604051632c18df3360e01b81526001600160e01b0319831660048201526001600160a01b03821660248201526044016102df565b6040805180820182526001600160a01b03808a16825261ffff80881660208085019182526001600160e01b0319881660009081528b8252958620945185549251909316600160a01b026001600160b01b0319909216929093169190911717909155600180880180549182018155835291206008820401805460e085901c60046007909416939093026101000a92830263ffffffff909302191691909117905583614ea981615ba7565b94505050508080614eb990615a1d565b915050614d77565b600080600080614ed18686614fae565b90925090506000826003811115614eea57614eea615814565b14614efb57509150600090506126b3565b6000614f0682614f96565b9350935050509250929050565b600080600080614ed1868661502a565b600061091283836040518060400160405280601781526020017f6d756c7469706c69636174696f6e206f766572666c6f7700000000000000000081525061509d565b6040805160208101909152600081526040518060200160405280614f8d856000015185614f23565b90529392505050565b805160009061156590670de0b6b3a764000090615a38565b6000614fc66040518060200160405280600081525090565b600080614fd7866000015186612678565b90925090506000826003811115614ff057614ff0615814565b1461500f575060408051602081019091526000815290925090506126b3565b60408051602081019091529081526000969095509350505050565b60006150426040518060200160405280600081525090565b600080615057670de0b6b3a764000087612678565b9092509050600082600381111561507057615070615814565b1461508f575060408051602081019091526000815290925090506126b3565b614f068186600001516150f0565b60008315806150aa575082155b156150b757506000610912565b60006150c38486615bc9565b9050836150d08683615a38565b1483906119865760405162461bcd60e51b81526004016102df9190615460565b60006151086040518060200160405280600081525090565b60008061511d86670de0b6b3a7640000612678565b9092509050600082600381111561513657615136615814565b14615155575060408051602081019091526000815290925090506126b3565b60008061516283886126ba565b9092509050600082600381111561517b5761517b615814565b1461519e57816040518060200160405280600081525095509550505050506126b3565b604080516020810190915290815260009890975095505050505050565b8280546151c7906157df565b90600052602060002090601f0160209004810192826151e9576000855561522f565b82601f1061520257805160ff191683800117855561522f565b8280016001018555821561522f579182015b8281111561522f578251825591602001919060010190615214565b5061523b92915061523f565b5090565b5b8082111561523b5760008155600101615240565b6001600160a01b0381168114611f2b57600080fd5b803561527481615254565b919050565b634e487b7160e01b600052604160045260246000fd5b604051601f8201601f1916810167ffffffffffffffff811182821017156152b8576152b8615279565b604052919050565b600067ffffffffffffffff8211156152da576152da615279565b50601f01601f191660200190565b60006152fb6152f6846152c0565b61528f565b905082815283838301111561530f57600080fd5b828260208301376000602084830101529392505050565b600082601f83011261533757600080fd5b610912838335602085016152e8565b600080600080600080600080610100898b03121561536357600080fd5b883561536e81615254565b9750602089013561537e81615254565b9650604089013561538e81615254565b9550606089013561539e81615254565b9450608089013567ffffffffffffffff808211156153bb57600080fd5b6153c78c838d01615326565b955060a08b01359150808211156153dd57600080fd5b506153ea8b828c01615326565b93505060c0890135915060e089013590509295985092959890939650565b60005b8381101561542357818101518382015260200161540b565b8381111561160d5750506000910152565b6000815180845261544c816020860160208601615408565b601f01601f19169290920160200192915050565b6020815260006109126020830184615434565b60006020828403121561548557600080fd5b5035919050565b60006020828403121561549e57600080fd5b813561091281615254565b60ff81168114611f2b57600080fd5b8035615274816154a9565b60008060008060008060008060006101208a8c0312156154e257600080fd5b89356154ed81615254565b985060208a01356154fd81615254565b975061550b60408b01615269565b965060608a0135955060808a013567ffffffffffffffff8082111561552f57600080fd5b61553b8d838e01615326565b965060a08c013591508082111561555157600080fd5b5061555e8c828d01615326565b94505061556d60c08b016154b8565b925060e08a013591506101008a013590509295985092959850929598565b6000806040838503121561559e57600080fd5b82356155a981615254565b946020939093013593505050565b8015158114611f2b57600080fd5b600080600080606085870312156155db57600080fd5b84356155e681615254565b935060208501356155f6816155b7565b9250604085013567ffffffffffffffff8082111561561357600080fd5b818701915087601f83011261562757600080fd5b81358181111561563657600080fd5b88602082850101111561564857600080fd5b95989497505060200194505050565b60006020828403121561566957600080fd5b813567ffffffffffffffff81111561568057600080fd5b8201601f8101841361569157600080fd5b612d59848235602084016152e8565b6020808252825182820181905260009190848201906040850190845b818110156156e15783516001600160a01b0316835292840192918401916001016156bc565b50909695505050505050565b6000806040838503121561570057600080fd5b823561570b81615254565b9150602083013561571b81615254565b809150509250929050565b60008060006060848603121561573b57600080fd5b833561574681615254565b9250602084013561575681615254565b929592945050506040919091013590565b60008060006060848603121561577c57600080fd5b833561578781615254565b925060208401359150604084013561579e81615254565b809150509250925092565b6000602082840312156157bb57600080fd5b8151610912816154a9565b6000602082840312156157d857600080fd5b5051919050565b600181811c908216806157f357607f821691505b60208210811415610b8f57634e487b7160e01b600052602260045260246000fd5b634e487b7160e01b600052602160045260246000fd5b60006020828403121561583c57600080fd5b8151610912816155b7565b60008060006060848603121561585c57600080fd5b835161586781615254565b6020850151909350615878816155b7565b604085015190925067ffffffffffffffff81111561589557600080fd5b8401601f810186136158a657600080fd5b80516158b46152f6826152c0565b8181528760208385010111156158c957600080fd5b6158da826020830160208601615408565b8093505050509250925092565b634e487b7160e01b600052601160045260246000fd5b60008219821115615910576159106158e7565b500190565b60006020828403121561592757600080fd5b815161091281615254565b600082821015615944576159446158e7565b500390565b600067ffffffffffffffff82111561596357615963615279565b5060051b60200190565b6000602080838503121561598057600080fd5b825167ffffffffffffffff81111561599757600080fd5b8301601f810185136159a857600080fd5b80516159b66152f682615949565b81815260059190911b820183019083810190878311156159d557600080fd5b928401925b828410156159fc5783516159ed81615254565b825292840192908401906159da565b979650505050505050565b634e487b7160e01b600052603260045260246000fd5b6000600019821415615a3157615a316158e7565b5060010190565b600082615a5557634e487b7160e01b600052601260045260246000fd5b500490565b634e487b7160e01b600052603160045260246000fd5b600060ff821660ff811415615a8757615a876158e7565b60010192915050565b60008251615aa2818460208701615408565b9190910192915050565b6001600160a01b039384168152919092166020820152604081019190915260600190565b60008060408385031215615ae357600080fd5b505080516020909101519092909150565b60006020808385031215615b0757600080fd5b825167ffffffffffffffff811115615b1e57600080fd5b8301601f81018513615b2f57600080fd5b8051615b3d6152f682615949565b81815260059190911b82018301908381019087831115615b5c57600080fd5b928401925b828410156159fc5783516001600160e01b031981168114615b825760008081fd5b82529284019290840190615b61565b634e487b7160e01b600052600160045260246000fd5b600061ffff80831681811415615bbf57615bbf6158e7565b6001019392505050565b6000816000190483118215151615615be357615be36158e7565b50029056fec8fcad8db84d3cc18b4c41d551ea0ee66dd599cde068d998e57d5e09332c131cddf252ad1be2c89b69c2b068fc378daa952ba7f163c4a11628f55a4df523b3efa164736f6c634300080a000a",
    "linkReferences": {}
  },
  "methodIdentifiers": {
    "_becomeImplementation(bytes)": "56e67728",
    "_listExtensions()": "6333d001",
    "_prepare()": "1db78944",
    "_registerExtension(address,address)": "89cd9855",
    "_setImplementationSafe(address,bool,bytes)": "50d85b73",
    "_updatePlugin(address)": "19f496c8",
    "_withdrawAdminFees(uint256)": "a7b820df",
    "_withdrawFuseFees(uint256)": "a03dce8d",
    "accrualBlockNumber()": "6c540baf",
    "adminFeeMantissa()": "8d02d9a1",
    "asCTokenExtensionInterface()": "9f5ef272",
    "borrow(uint256)": "c5ebeaec",
    "borrowBalanceCurrent(address)": "17bfdfbc",
    "borrowBalanceStored(address)": "95dd9193",
    "borrowIndex()": "aa5af0fd",
    "comptroller()": "5fe3b567",
    "contractType()": "cb2ef6f7",
    "decimals()": "313ce567",
    "feeSeizeShareMantissa()": "be99f119",
    "fuseAdmin()": "15761d51",
    "fuseFeeMantissa()": "dbfe7c19",
    "getAccountSnapshot(address)": "c37f68e2",
    "getCash()": "3b1d21a2",
    "implementation()": "5c60da1b",
    "initialize(address,address,address,address,string,string,uint256,uint256)": "06db3ecd",
    "initialize(address,address,address,uint256,string,string,uint8,uint256,uint256)": "219ef65c",
    "interestRateModel()": "f3fdb15a",
    "isCEther()": "ac784ddc",
    "isCToken()": "fe9c44ae",
    "liquidateBorrow(address,uint256,address)": "f5e3c462",
    "mint(uint256)": "a0712d68",
    "name()": "06fdde03",
    "plugin()": "ef01df4f",
    "protocolSeizeShareMantissa()": "6752e702",
    "redeem(uint256)": "db006a75",
    "redeemUnderlying(uint256)": "852a12e3",
    "repayBorrow(uint256)": "0e752702",
    "repayBorrowBehalf(address,uint256)": "2608f818",
    "reserveFactorMantissa()": "173b9904",
    "seize(address,address,uint256)": "b2a02ff1",
    "symbol()": "95d89b41",
    "totalAdminFees()": "61feacff",
    "totalBorrows()": "47bd3718",
    "totalFuseFees()": "dc028ab1",
    "totalReserves()": "8f840ddd",
    "totalSupply()": "18160ddd",
    "underlying()": "6f307dc3"
  }
}