{
  "address": "0x19cF1dbB4Ac896E0c36480D30cd2Bc1A249Fb46d",
  "abi": [
    {
      "inputs": [
        {
          "internalType": "bytes4",
          "name": "_functionSelector",
          "type": "bytes4"
        }
      ],
      "name": "ExtensionNotFound",
      "type": "error"
    },
    {
      "inputs": [
        {
          "internalType": "bytes4",
          "name": "_functionSelector",
          "type": "bytes4"
        },
        {
          "internalType": "address",
          "name": "_currentImpl",
          "type": "address"
        }
      ],
      "name": "FunctionAlreadyAdded",
      "type": "error"
    },
    {
      "inputs": [
        {
          "internalType": "bytes4",
          "name": "_functionSelector",
          "type": "bytes4"
        }
      ],
      "name": "FunctionNotFound",
      "type": "error"
    },
    {
      "anonymous": false,
      "inputs": [
        {
          "indexed": false,
          "internalType": "uint256",
          "name": "cashPrior",
          "type": "uint256"
        },
        {
          "indexed": false,
          "internalType": "uint256",
          "name": "interestAccumulated",
          "type": "uint256"
        },
        {
          "indexed": false,
          "internalType": "uint256",
          "name": "borrowIndex",
          "type": "uint256"
        },
        {
          "indexed": false,
          "internalType": "uint256",
          "name": "totalBorrows",
          "type": "uint256"
        }
      ],
      "name": "AccrueInterest",
      "type": "event"
    },
    {
      "anonymous": false,
      "inputs": [
        {
          "indexed": true,
          "internalType": "address",
          "name": "owner",
          "type": "address"
        },
        {
          "indexed": true,
          "internalType": "address",
          "name": "spender",
          "type": "address"
        },
        {
          "indexed": false,
          "internalType": "uint256",
          "name": "amount",
          "type": "uint256"
        }
      ],
      "name": "Approval",
      "type": "event"
    },
    {
      "anonymous": false,
      "inputs": [
        {
          "indexed": false,
          "internalType": "address",
          "name": "borrower",
          "type": "address"
        },
        {
          "indexed": false,
          "internalType": "uint256",
          "name": "borrowAmount",
          "type": "uint256"
        },
        {
          "indexed": false,
          "internalType": "uint256",
          "name": "accountBorrows",
          "type": "uint256"
        },
        {
          "indexed": false,
          "internalType": "uint256",
          "name": "totalBorrows",
          "type": "uint256"
        }
      ],
      "name": "Borrow",
      "type": "event"
    },
    {
      "anonymous": false,
      "inputs": [
        {
          "indexed": false,
          "internalType": "uint256",
          "name": "error",
          "type": "uint256"
        },
        {
          "indexed": false,
          "internalType": "uint256",
          "name": "info",
          "type": "uint256"
        },
        {
          "indexed": false,
          "internalType": "uint256",
          "name": "detail",
          "type": "uint256"
        }
      ],
      "name": "Failure",
      "type": "event"
    },
    {
      "anonymous": false,
      "inputs": [
        {
          "indexed": false,
          "internalType": "address",
          "name": "liquidator",
          "type": "address"
        },
        {
          "indexed": false,
          "internalType": "address",
          "name": "borrower",
          "type": "address"
        },
        {
          "indexed": false,
          "internalType": "uint256",
          "name": "repayAmount",
          "type": "uint256"
        },
        {
          "indexed": false,
          "internalType": "address",
          "name": "cTokenCollateral",
          "type": "address"
        },
        {
          "indexed": false,
          "internalType": "uint256",
          "name": "seizeTokens",
          "type": "uint256"
        }
      ],
      "name": "LiquidateBorrow",
      "type": "event"
    },
    {
      "anonymous": false,
      "inputs": [
        {
          "indexed": false,
          "internalType": "address",
          "name": "minter",
          "type": "address"
        },
        {
          "indexed": false,
          "internalType": "uint256",
          "name": "mintAmount",
          "type": "uint256"
        },
        {
          "indexed": false,
          "internalType": "uint256",
          "name": "mintTokens",
          "type": "uint256"
        }
      ],
      "name": "Mint",
      "type": "event"
    },
    {
      "anonymous": false,
      "inputs": [
        {
          "indexed": false,
          "internalType": "uint256",
          "name": "oldAdminFeeMantissa",
          "type": "uint256"
        },
        {
          "indexed": false,
          "internalType": "uint256",
          "name": "newAdminFeeMantissa",
          "type": "uint256"
        }
      ],
      "name": "NewAdminFee",
      "type": "event"
    },
    {
      "anonymous": false,
      "inputs": [
        {
          "indexed": false,
          "internalType": "uint256",
          "name": "oldFuseFeeMantissa",
          "type": "uint256"
        },
        {
          "indexed": false,
          "internalType": "uint256",
          "name": "newFuseFeeMantissa",
          "type": "uint256"
        }
      ],
      "name": "NewFuseFee",
      "type": "event"
    },
    {
      "anonymous": false,
      "inputs": [
        {
          "indexed": false,
          "internalType": "address",
          "name": "oldImplementation",
          "type": "address"
        },
        {
          "indexed": false,
          "internalType": "address",
          "name": "newImplementation",
          "type": "address"
        }
      ],
      "name": "NewImplementation",
      "type": "event"
    },
    {
      "anonymous": false,
      "inputs": [
        {
          "indexed": false,
          "internalType": "contract InterestRateModel",
          "name": "oldInterestRateModel",
          "type": "address"
        },
        {
          "indexed": false,
          "internalType": "contract InterestRateModel",
          "name": "newInterestRateModel",
          "type": "address"
        }
      ],
      "name": "NewMarketInterestRateModel",
      "type": "event"
    },
    {
      "anonymous": false,
      "inputs": [
        {
          "indexed": false,
          "internalType": "uint256",
          "name": "oldReserveFactorMantissa",
          "type": "uint256"
        },
        {
          "indexed": false,
          "internalType": "uint256",
          "name": "newReserveFactorMantissa",
          "type": "uint256"
        }
      ],
      "name": "NewReserveFactor",
      "type": "event"
    },
    {
      "anonymous": false,
      "inputs": [
        {
          "indexed": false,
          "internalType": "address",
          "name": "redeemer",
          "type": "address"
        },
        {
          "indexed": false,
          "internalType": "uint256",
          "name": "redeemAmount",
          "type": "uint256"
        },
        {
          "indexed": false,
          "internalType": "uint256",
          "name": "redeemTokens",
          "type": "uint256"
        }
      ],
      "name": "Redeem",
      "type": "event"
    },
    {
      "anonymous": false,
      "inputs": [
        {
          "indexed": false,
          "internalType": "address",
          "name": "payer",
          "type": "address"
        },
        {
          "indexed": false,
          "internalType": "address",
          "name": "borrower",
          "type": "address"
        },
        {
          "indexed": false,
          "internalType": "uint256",
          "name": "repayAmount",
          "type": "uint256"
        },
        {
          "indexed": false,
          "internalType": "uint256",
          "name": "accountBorrows",
          "type": "uint256"
        },
        {
          "indexed": false,
          "internalType": "uint256",
          "name": "totalBorrows",
          "type": "uint256"
        }
      ],
      "name": "RepayBorrow",
      "type": "event"
    },
    {
      "anonymous": false,
      "inputs": [
        {
          "indexed": false,
          "internalType": "address",
          "name": "benefactor",
          "type": "address"
        },
        {
          "indexed": false,
          "internalType": "uint256",
          "name": "addAmount",
          "type": "uint256"
        },
        {
          "indexed": false,
          "internalType": "uint256",
          "name": "newTotalReserves",
          "type": "uint256"
        }
      ],
      "name": "ReservesAdded",
      "type": "event"
    },
    {
      "anonymous": false,
      "inputs": [
        {
          "indexed": false,
          "internalType": "address",
          "name": "admin",
          "type": "address"
        },
        {
          "indexed": false,
          "internalType": "uint256",
          "name": "reduceAmount",
          "type": "uint256"
        },
        {
          "indexed": false,
          "internalType": "uint256",
          "name": "newTotalReserves",
          "type": "uint256"
        }
      ],
      "name": "ReservesReduced",
      "type": "event"
    },
    {
      "anonymous": false,
      "inputs": [
        {
          "indexed": true,
          "internalType": "address",
          "name": "from",
          "type": "address"
        },
        {
          "indexed": true,
          "internalType": "address",
          "name": "to",
          "type": "address"
        },
        {
          "indexed": false,
          "internalType": "uint256",
          "name": "amount",
          "type": "uint256"
        }
      ],
      "name": "Transfer",
      "type": "event"
    },
    {
      "stateMutability": "nonpayable",
      "type": "fallback"
    },
    {
      "inputs": [
        {
          "internalType": "bytes",
          "name": "data",
          "type": "bytes"
        }
      ],
      "name": "_becomeImplementation",
      "outputs": [],
      "stateMutability": "nonpayable",
      "type": "function"
    },
    {
      "inputs": [],
      "name": "_listExtensions",
      "outputs": [
        {
          "internalType": "address[]",
          "name": "",
          "type": "address[]"
        }
      ],
      "stateMutability": "view",
      "type": "function"
    },
    {
      "inputs": [],
      "name": "_prepare",
      "outputs": [],
      "stateMutability": "payable",
      "type": "function"
    },
    {
      "inputs": [
        {
          "internalType": "contract DiamondExtension",
          "name": "extensionToAdd",
          "type": "address"
        },
        {
          "internalType": "contract DiamondExtension",
          "name": "extensionToReplace",
          "type": "address"
        }
      ],
      "name": "_registerExtension",
      "outputs": [],
      "stateMutability": "nonpayable",
      "type": "function"
    },
    {
      "inputs": [
        {
          "internalType": "address",
          "name": "implementation_",
          "type": "address"
        },
        {
          "internalType": "bool",
          "name": "allowResign",
          "type": "bool"
        },
        {
          "internalType": "bytes",
          "name": "becomeImplementationData",
          "type": "bytes"
        }
      ],
      "name": "_setImplementationSafe",
      "outputs": [],
      "stateMutability": "nonpayable",
      "type": "function"
    },
    {
      "inputs": [
        {
          "internalType": "uint256",
          "name": "withdrawAmount",
          "type": "uint256"
        }
      ],
      "name": "_withdrawAdminFees",
      "outputs": [
        {
          "internalType": "uint256",
          "name": "",
          "type": "uint256"
        }
      ],
      "stateMutability": "nonpayable",
      "type": "function"
    },
    {
      "inputs": [
        {
          "internalType": "uint256",
          "name": "withdrawAmount",
          "type": "uint256"
        }
      ],
      "name": "_withdrawFuseFees",
      "outputs": [
        {
          "internalType": "uint256",
          "name": "",
          "type": "uint256"
        }
      ],
      "stateMutability": "nonpayable",
      "type": "function"
    },
    {
      "inputs": [],
      "name": "accrualBlockNumber",
      "outputs": [
        {
          "internalType": "uint256",
          "name": "",
          "type": "uint256"
        }
      ],
      "stateMutability": "view",
      "type": "function"
    },
    {
      "inputs": [],
      "name": "adminFeeMantissa",
      "outputs": [
        {
          "internalType": "uint256",
          "name": "",
          "type": "uint256"
        }
      ],
      "stateMutability": "view",
      "type": "function"
    },
    {
      "inputs": [],
      "name": "asCTokenExtensionInterface",
      "outputs": [
        {
          "internalType": "contract CTokenExtensionInterface",
          "name": "",
          "type": "address"
        }
      ],
      "stateMutability": "view",
      "type": "function"
    },
    {
      "inputs": [
        {
          "internalType": "uint256",
          "name": "borrowAmount",
          "type": "uint256"
        }
      ],
      "name": "borrow",
      "outputs": [
        {
          "internalType": "uint256",
          "name": "",
          "type": "uint256"
        }
      ],
      "stateMutability": "nonpayable",
      "type": "function"
    },
    {
      "inputs": [
        {
          "internalType": "address",
          "name": "account",
          "type": "address"
        }
      ],
      "name": "borrowBalanceCurrent",
      "outputs": [
        {
          "internalType": "uint256",
          "name": "",
          "type": "uint256"
        }
      ],
      "stateMutability": "nonpayable",
      "type": "function"
    },
    {
      "inputs": [
        {
          "internalType": "address",
          "name": "account",
          "type": "address"
        }
      ],
      "name": "borrowBalanceStored",
      "outputs": [
        {
          "internalType": "uint256",
          "name": "",
          "type": "uint256"
        }
      ],
      "stateMutability": "view",
      "type": "function"
    },
    {
      "inputs": [],
      "name": "borrowIndex",
      "outputs": [
        {
          "internalType": "uint256",
          "name": "",
          "type": "uint256"
        }
      ],
      "stateMutability": "view",
      "type": "function"
    },
    {
      "inputs": [],
      "name": "comptroller",
      "outputs": [
        {
          "internalType": "contract ComptrollerInterface",
          "name": "",
          "type": "address"
        }
      ],
      "stateMutability": "view",
      "type": "function"
    },
    {
      "inputs": [],
      "name": "contractType",
      "outputs": [
        {
          "internalType": "string",
          "name": "",
          "type": "string"
        }
      ],
      "stateMutability": "pure",
      "type": "function"
    },
    {
      "inputs": [],
      "name": "decimals",
      "outputs": [
        {
          "internalType": "uint8",
          "name": "",
          "type": "uint8"
        }
      ],
      "stateMutability": "view",
      "type": "function"
    },
    {
      "inputs": [],
      "name": "feeSeizeShareMantissa",
      "outputs": [
        {
          "internalType": "uint256",
          "name": "",
          "type": "uint256"
        }
      ],
      "stateMutability": "view",
      "type": "function"
    },
    {
      "inputs": [
        {
          "internalType": "address",
          "name": "redeemer",
          "type": "address"
        }
      ],
      "name": "forceRedeem",
      "outputs": [
        {
          "internalType": "uint256",
          "name": "",
          "type": "uint256"
        }
      ],
      "stateMutability": "nonpayable",
      "type": "function"
    },
    {
      "inputs": [],
      "name": "fuseAdmin",
      "outputs": [
        {
          "internalType": "address payable",
          "name": "",
          "type": "address"
        }
      ],
      "stateMutability": "view",
      "type": "function"
    },
    {
      "inputs": [],
      "name": "fuseFeeMantissa",
      "outputs": [
        {
          "internalType": "uint256",
          "name": "",
          "type": "uint256"
        }
      ],
      "stateMutability": "view",
      "type": "function"
    },
    {
      "inputs": [
        {
          "internalType": "address",
          "name": "account",
          "type": "address"
        }
      ],
      "name": "getAccountSnapshot",
      "outputs": [
        {
          "internalType": "uint256",
          "name": "",
          "type": "uint256"
        },
        {
          "internalType": "uint256",
          "name": "",
          "type": "uint256"
        },
        {
          "internalType": "uint256",
          "name": "",
          "type": "uint256"
        },
        {
          "internalType": "uint256",
          "name": "",
          "type": "uint256"
        }
      ],
      "stateMutability": "view",
      "type": "function"
    },
    {
      "inputs": [],
      "name": "getCash",
      "outputs": [
        {
          "internalType": "uint256",
          "name": "",
          "type": "uint256"
        }
      ],
      "stateMutability": "view",
      "type": "function"
    },
    {
      "inputs": [],
      "name": "implementation",
      "outputs": [
        {
          "internalType": "address",
          "name": "",
          "type": "address"
        }
      ],
      "stateMutability": "view",
      "type": "function"
    },
    {
      "inputs": [
        {
          "internalType": "address",
          "name": "underlying_",
          "type": "address"
        },
        {
          "internalType": "contract ComptrollerInterface",
          "name": "comptroller_",
          "type": "address"
        },
        {
          "internalType": "address payable",
          "name": "fuseAdmin_",
          "type": "address"
        },
        {
          "internalType": "contract InterestRateModel",
          "name": "interestRateModel_",
          "type": "address"
        },
        {
          "internalType": "string",
          "name": "name_",
          "type": "string"
        },
        {
          "internalType": "string",
          "name": "symbol_",
          "type": "string"
        },
        {
          "internalType": "uint256",
          "name": "reserveFactorMantissa_",
          "type": "uint256"
        },
        {
          "internalType": "uint256",
          "name": "adminFeeMantissa_",
          "type": "uint256"
        }
      ],
      "name": "initialize",
      "outputs": [],
      "stateMutability": "nonpayable",
      "type": "function"
    },
    {
      "inputs": [
        {
          "internalType": "contract ComptrollerInterface",
          "name": "comptroller_",
          "type": "address"
        },
        {
          "internalType": "address payable",
          "name": "fuseAdmin_",
          "type": "address"
        },
        {
          "internalType": "contract InterestRateModel",
          "name": "interestRateModel_",
          "type": "address"
        },
        {
          "internalType": "uint256",
          "name": "initialExchangeRateMantissa_",
          "type": "uint256"
        },
        {
          "internalType": "string",
          "name": "name_",
          "type": "string"
        },
        {
          "internalType": "string",
          "name": "symbol_",
          "type": "string"
        },
        {
          "internalType": "uint8",
          "name": "decimals_",
          "type": "uint8"
        },
        {
          "internalType": "uint256",
          "name": "reserveFactorMantissa_",
          "type": "uint256"
        },
        {
          "internalType": "uint256",
          "name": "adminFeeMantissa_",
          "type": "uint256"
        }
      ],
      "name": "initialize",
      "outputs": [],
      "stateMutability": "nonpayable",
      "type": "function"
    },
    {
      "inputs": [],
      "name": "interestRateModel",
      "outputs": [
        {
          "internalType": "contract InterestRateModel",
          "name": "",
          "type": "address"
        }
      ],
      "stateMutability": "view",
      "type": "function"
    },
    {
      "inputs": [],
      "name": "isCEther",
      "outputs": [
        {
          "internalType": "bool",
          "name": "",
          "type": "bool"
        }
      ],
      "stateMutability": "nonpayable",
      "type": "function"
    },
    {
      "inputs": [],
      "name": "isCToken",
      "outputs": [
        {
          "internalType": "bool",
          "name": "",
          "type": "bool"
        }
      ],
      "stateMutability": "nonpayable",
      "type": "function"
    },
    {
      "inputs": [
        {
          "internalType": "address",
          "name": "borrower",
          "type": "address"
        },
        {
          "internalType": "uint256",
          "name": "repayAmount",
          "type": "uint256"
        },
        {
          "internalType": "contract CTokenInterface",
          "name": "cTokenCollateral",
          "type": "address"
        }
      ],
      "name": "liquidateBorrow",
      "outputs": [
        {
          "internalType": "uint256",
          "name": "",
          "type": "uint256"
        }
      ],
      "stateMutability": "nonpayable",
      "type": "function"
    },
    {
      "inputs": [
        {
          "internalType": "uint256",
          "name": "mintAmount",
          "type": "uint256"
        }
      ],
      "name": "mint",
      "outputs": [
        {
          "internalType": "uint256",
          "name": "",
          "type": "uint256"
        }
      ],
      "stateMutability": "nonpayable",
      "type": "function"
    },
    {
      "inputs": [],
      "name": "name",
      "outputs": [
        {
          "internalType": "string",
          "name": "",
          "type": "string"
        }
      ],
      "stateMutability": "view",
      "type": "function"
    },
    {
      "inputs": [],
      "name": "protocolSeizeShareMantissa",
      "outputs": [
        {
          "internalType": "uint256",
          "name": "",
          "type": "uint256"
        }
      ],
      "stateMutability": "view",
      "type": "function"
    },
    {
      "inputs": [
        {
          "internalType": "uint256",
          "name": "redeemTokens",
          "type": "uint256"
        }
      ],
      "name": "redeem",
      "outputs": [
        {
          "internalType": "uint256",
          "name": "",
          "type": "uint256"
        }
      ],
      "stateMutability": "nonpayable",
      "type": "function"
    },
    {
      "inputs": [
        {
          "internalType": "uint256",
          "name": "redeemAmount",
          "type": "uint256"
        }
      ],
      "name": "redeemUnderlying",
      "outputs": [
        {
          "internalType": "uint256",
          "name": "",
          "type": "uint256"
        }
      ],
      "stateMutability": "nonpayable",
      "type": "function"
    },
    {
      "inputs": [
        {
          "internalType": "uint256",
          "name": "repayAmount",
          "type": "uint256"
        }
      ],
      "name": "repayBorrow",
      "outputs": [
        {
          "internalType": "uint256",
          "name": "",
          "type": "uint256"
        }
      ],
      "stateMutability": "nonpayable",
      "type": "function"
    },
    {
      "inputs": [
        {
          "internalType": "address",
          "name": "borrower",
          "type": "address"
        },
        {
          "internalType": "uint256",
          "name": "repayAmount",
          "type": "uint256"
        }
      ],
      "name": "repayBorrowBehalf",
      "outputs": [
        {
          "internalType": "uint256",
          "name": "",
          "type": "uint256"
        }
      ],
      "stateMutability": "nonpayable",
      "type": "function"
    },
    {
      "inputs": [],
      "name": "reserveFactorMantissa",
      "outputs": [
        {
          "internalType": "uint256",
          "name": "",
          "type": "uint256"
        }
      ],
      "stateMutability": "view",
      "type": "function"
    },
    {
      "inputs": [
        {
          "internalType": "address",
          "name": "liquidator",
          "type": "address"
        },
        {
          "internalType": "address",
          "name": "borrower",
          "type": "address"
        },
        {
          "internalType": "uint256",
          "name": "seizeTokens",
          "type": "uint256"
        }
      ],
      "name": "seize",
      "outputs": [
        {
          "internalType": "uint256",
          "name": "",
          "type": "uint256"
        }
      ],
      "stateMutability": "nonpayable",
      "type": "function"
    },
    {
      "inputs": [],
      "name": "symbol",
      "outputs": [
        {
          "internalType": "string",
          "name": "",
          "type": "string"
        }
      ],
      "stateMutability": "view",
      "type": "function"
    },
    {
      "inputs": [],
      "name": "totalAdminFees",
      "outputs": [
        {
          "internalType": "uint256",
          "name": "",
          "type": "uint256"
        }
      ],
      "stateMutability": "view",
      "type": "function"
    },
    {
      "inputs": [],
      "name": "totalBorrows",
      "outputs": [
        {
          "internalType": "uint256",
          "name": "",
          "type": "uint256"
        }
      ],
      "stateMutability": "view",
      "type": "function"
    },
    {
      "inputs": [],
      "name": "totalFuseFees",
      "outputs": [
        {
          "internalType": "uint256",
          "name": "",
          "type": "uint256"
        }
      ],
      "stateMutability": "view",
      "type": "function"
    },
    {
      "inputs": [],
      "name": "totalReserves",
      "outputs": [
        {
          "internalType": "uint256",
          "name": "",
          "type": "uint256"
        }
      ],
      "stateMutability": "view",
      "type": "function"
    },
    {
      "inputs": [],
      "name": "totalSupply",
      "outputs": [
        {
          "internalType": "uint256",
          "name": "",
          "type": "uint256"
        }
      ],
      "stateMutability": "view",
      "type": "function"
    },
    {
      "inputs": [],
      "name": "underlying",
      "outputs": [
        {
          "internalType": "address",
          "name": "",
          "type": "address"
        }
      ],
      "stateMutability": "view",
      "type": "function"
    }
  ],
  "transactionHash": "0xdf34be9eef54b63b251f450c5514de80401ab3a425299fb59e82351f76835bcd",
  "args": [],
  "numDeployments": 22,
  "bytecode": {
    "object": "0x608060405234801561001057600080fd5b506159dd80620000216000396000f3fe60806040526004361061027d5760003560e01c8063852a12e31161014f578063ac784ddc116100c1578063db006a751161007a578063db006a75146107e5578063dbfe7c1914610805578063dc028ab11461081b578063f3fdb15a14610831578063f5e3c46214610851578063fe9c44ae146108715761027d565b8063ac784ddc146106f2578063b2a02ff114610712578063be99f11914610732578063c37f68e21461074e578063c5ebeaec1461078e578063cb2ef6f7146107ae5761027d565b806395dd91931161011357806395dd9193146106495780639f5ef27214610669578063a03dce8d1461067c578063a0712d681461069c578063a7b820df146106bc578063aa5af0fd146106dc5761027d565b8063852a12e3146105c857806389cd9855146105e85780638d02d9a1146106085780638f840ddd1461061e57806395d89b41146106345761027d565b8063313ce567116101f35780635fe3b567116101ac5780635fe3b5671461051f57806361feacff1461053f5780636333d001146105555780636752e702146105775780636c540baf146105925780636f307dc3146105a85761027d565b8063313ce567146104685780633b1d21a21461049457806347bd3718146104a957806350d85b73146104bf57806356e67728146104df5780635c60da1b146104ff5761027d565b806317bfdfbc1161024557806317bfdfbc146103ca57806317c65e12146103ea57806318160ddd1461040a5780631db7894414610420578063219ef65c146104285780632608f818146104485761027d565b806306db3ecd1461030157806306fdde03146103235780630e7527021461034e57806315761d511461037c578063173b9904146103b4575b34801561028957600080fd5b5060006102a16000356001600160e01b031916610885565b90506001600160a01b0381166102dd57604051630a82dd7360e31b81526001600160e01b03196000351660048201526024015b60405180910390fd5b3660008037600080366000845af43d6000803e8080156102fc573d6000f35b3d6000fd5b34801561030d57600080fd5b5061032161031c3660046150ee565b6108e8565b005b34801561032f57600080fd5b506103386109f6565b6040516103459190615208565b60405180910390f35b34801561035a57600080fd5b5061036e61036936600461521b565b610a84565b604051908152602001610345565b34801561038857600080fd5b5060015461039c906001600160a01b031681565b6040516001600160a01b039091168152602001610345565b3480156103c057600080fd5b5061036e600b5481565b3480156103d657600080fd5b5061036e6103e5366004615234565b610a98565b3480156103f657600080fd5b5061036e610405366004615234565b610b64565b34801561041657600080fd5b5061036e60125481565b610321610d2d565b34801561043457600080fd5b5061032161044336600461526b565b610e5e565b34801561045457600080fd5b5061036e610463366004615333565b6112ba565b34801561047457600080fd5b506005546104829060ff1681565b60405160ff9091168152602001610345565b3480156104a057600080fd5b5061036e6112d2565b3480156104b557600080fd5b5061036e600e5481565b3480156104cb57600080fd5b506103216104da36600461536d565b6112e1565b3480156104eb57600080fd5b506103216104fa3660046153ff565b61137a565b34801561050b57600080fd5b5060005461039c906001600160a01b031681565b34801561052b57600080fd5b5060065461039c906001600160a01b031681565b34801561054b57600080fd5b5061036e60105481565b34801561056157600080fd5b5061056a6113cc565b6040516103459190615448565b34801561058357600080fd5b5061036e666379da05b6000081565b34801561059e57600080fd5b5061036e600c5481565b3480156105b457600080fd5b5060165461039c906001600160a01b031681565b3480156105d457600080fd5b5061036e6105e336600461521b565b6113d6565b3480156105f457600080fd5b50610321610603366004615495565b6113e1565b34801561061457600080fd5b5061036e60095481565b34801561062a57600080fd5b5061036e600f5481565b34801561064057600080fd5b506103386114b5565b34801561065557600080fd5b5061036e610664366004615234565b6114c2565b34801561067557600080fd5b503061039c565b34801561068857600080fd5b5061036e61069736600461521b565b6115e6565b3480156106a857600080fd5b5061036e6106b736600461521b565b611707565b3480156106c857600080fd5b5061036e6106d736600461521b565b611713565b3480156106e857600080fd5b5061036e600d5481565b3480156106fe57600080fd5b5060005b6040519015158152602001610345565b34801561071e57600080fd5b5061036e61072d3660046154ce565b611884565b34801561073e57600080fd5b5061036e67016345785d8a000081565b34801561075a57600080fd5b5061076e610769366004615234565b6118a8565b604080519485526020850193909352918301526060820152608001610345565b34801561079a57600080fd5b5061036e6107a936600461521b565b61194b565b3480156107ba57600080fd5b5060408051808201909152600e81526d43457263323044656c656761746560901b6020820152610338565b3480156107f157600080fd5b5061036e61080036600461521b565b611956565b34801561081157600080fd5b5061036e600a5481565b34801561082757600080fd5b5061036e60115481565b34801561083d57600080fd5b5060075461039c906001600160a01b031681565b34801561085d57600080fd5b5061036e61086c36600461550f565b611961565b34801561087d57600080fd5b506001610702565b6001600160e01b031981166000908152600080516020615991833981519152602081905260408220546001600160a01b0316806108e157604051631f3f429960e31b81526001600160e01b0319851660048201526024016102d4565b9392505050565b60006702c68af0bb14000090506000896001600160a01b031663313ce5676040518163ffffffff1660e01b8152600401602060405180830381865afa158015610935573d6000803e3d6000fd5b505050506040513d601f19601f820116820180604052508101906109599190615551565b905061096c898989858a8a878b8b610e5e565b601680546001600160a01b0319166001600160a01b038c16908117909155604080516318160ddd60e01b815290516318160ddd916004808201926020929091908290030181865afa1580156109c5573d6000803e3d6000fd5b505050506040513d601f19601f820116820180604052508101906109e9919061556e565b5050505050505050505050565b60038054610a0390615587565b80601f0160208091040260200160405190810160405280929190818152602001828054610a2f90615587565b8015610a7c5780601f10610a5157610100808354040283529160200191610a7c565b820191906000526020600020905b815481529060010190602001808311610a5f57829003601f168201915b505050505081565b600080610a9083611979565b509392505050565b600080610aa481611a3d565b6000306001600160a01b031663a6afed956040518163ffffffff1660e01b81526004016020604051808303816000875af1158015610ae6573d6000803e3d6000fd5b505050506040513d601f19601f82011682018060405250810190610b0a919061556e565b14610b495760405162461bcd60e51b815260206004820152600f60248201526e085858d8dc9d59525b9d195c995cdd608a1b60448201526064016102d4565b610b52836114c2565b91505b610b5e81611b01565b50919050565b60007319f2bfca57fdc1b7406337391d2f54063cae87483314610bb75760405162461bcd60e51b815260206004820152600b60248201526a10b634b8bab4b230ba37b960a91b60448201526064016102d4565b6006546001600160a01b031673d265ff7e5487e9dd556a4bb900cca6d087eb3ad214610c0e5760405162461bcd60e51b8152602060048201526006602482015265085a9c1bdbdb60d21b60448201526064016102d4565b6000306001600160a01b031663a6afed956040518163ffffffff1660e01b81526004016020604051808303816000875af1158015610c50573d6000803e3d6000fd5b505050506040513d601f19601f82011682018060405250810190610c74919061556e565b90508015610c98576108e1816011811115610c9157610c916155bc565b602a611b84565b6006546001600160a01b031673d265ff7e5487e9dd556a4bb900cca6d087eb3ad21415610d1f576006546040516310b77fa360e01b81526001600160a01b038581166004830152909116906310b77fa390602401600060405180830381600087803b158015610d0657600080fd5b505af1158015610d1a573d6000803e3d6000fd5b505050505b6108e1836000600019611bfd565b333014801590610daf5750600660009054906101000a90046001600160a01b03166001600160a01b031663dd5cd22c6040518163ffffffff1660e01b8152600401602060405180830381865afa158015610d8b573d6000803e3d6000fd5b505050506040513d601f19601f82011682018060405250810190610daf91906155d2565b15610e5c57600154600080546040516345cc970560e01b81526001600160a01b039182166004820152919283928392909116906345cc970590602401600060405180830381865afa158015610e08573d6000803e3d6000fd5b505050506040513d6000823e601f3d908101601f19168201604052610e3091908101906155ef565b60005492955090935091506001600160a01b03808516911614610e5857610e58838383612250565b5050505b565b336001600160a01b03891614610e9f5760405162461bcd60e51b815260206004820152600660248201526510b0b236b4b760d11b60448201526064016102d4565b600c54158015610eaf5750600d54155b610eea5760405162461bcd60e51b815260206004820152600c60248201526b085a5b9a5d1a585b1a5e995960a21b60448201526064016102d4565b600180546001600160a01b0319166001600160a01b038a16179055600886905585610f495760405162461bcd60e51b815260206004820152600f60248201526e02165786368616e6765526174653e3608c1b60448201526064016102d4565b600680546001600160a01b0319166001600160a01b038b81169190911790915543600c55670de0b6b3a7640000600d55604080516310c8fc9560e11b8152905191891691632191f92a916004808201926020929091908290030181865afa158015610fb8573d6000803e3d6000fd5b505050506040513d601f19601f82011682018060405250810190610fdc91906155d2565b6110125760405162461bcd60e51b8152602060048201526007602482015266216e6f7449726d60c81b60448201526064016102d4565b600780546001600160a01b0319166001600160a01b038916908117909155604080516000815260208101929092527fedffc32e068c7c95dfd4bdfd5c4d939a084d6b11c4199eac8436ed234d72f926910160405180910390a1845161107e906003906020880190614f63565b508351611092906004906020870190614f63565b506005805460ff191660ff8516179055600a54600954670de0b6b3a764000091906110bd90856156a5565b6110c791906156a5565b11156110ff5760405162461bcd60e51b8152602060048201526007602482015266085c998e9cd95d60ca1b60448201526064016102d4565b600b8290556040805160008152602081018490527faaa68312e2ea9d50e16af5068410ab56e1a1fd06037b1a35664812c30f821460910160405180910390a160001981141561114d57506009545b6001546040805163dd86fea160e01b815290516000926001600160a01b03169163dd86fea19160048083019260209291908290030181865afa158015611197573d6000803e3d6000fd5b505050506040513d601f19601f820116820180604052508101906111bb919061556e565b9050670de0b6b3a76400008183600b546111d591906156a5565b6111df91906156a5565b111561121d5760405162461bcd60e51b815260206004820152600d60248201526c0858591b5a5b9199594e9cd95d609a1b60448201526064016102d4565b60098290556040805160008152602081018490527fcdd0b588250e1398549f79cfdb8217c186688822905d6715b0834ea1c865594a910160405180910390a1600a8190556040805160008152602081018390527f92eef861b6533b7d3417f39c2ad7b460eed4e88a32fa3604f30e718b7602e7dc910160405180910390a150506002805460ff60b01b1916600160b01b1790555050505050505050565b6000806112c784846124e5565b509150505b92915050565b60006112dc6125ab565b905090565b6112e9612620565b61131e5760405162461bcd60e51b815260206004820152600660248201526510b0b236b4b760d11b60448201526064016102d4565b6000546001600160a01b0385811691161461137457611374848484848080601f01602080910402602001604051908101604052809392919081815260200183838082843760009201919091525061225092505050565b50505050565b3330148061138b575061138b612620565b6113c95760405162461bcd60e51b815260206004820152600f60248201526e10b9b2b633103e3e1010b0b236b4b760891b60448201526064016102d4565b50565b60606112dc61278b565b60006112cc826127fd565b6006546001546001600160a01b0391821691163314801561145f5750806001600160a01b0316632f1069ba6040518163ffffffff1660e01b8152600401602060405180830381865afa15801561143b573d6000803e3d6000fd5b505050506040513d601f19601f8201168201806040525081019061145f91906155d2565b6114ab5760405162461bcd60e51b815260206004820152601f60248201527f21756e617574686f72697a6564202d206e6f2061646d696e207269676874730060448201526064016102d4565b610e5883836128cb565b60048054610a0390615587565b6001600160a01b03811660009081526015602052604081208054829182918291906114f35750600095945050505050565b6115038160000154600d546128f0565b9094509250600084600381111561151c5761151c6155bc565b146115695760405162461bcd60e51b815260206004820152601e60248201527f216d756c55496e74206f766572666c6f7720636865636b206661696c6564000060448201526064016102d4565b611577838260010154612932565b90945091506000846003811115611590576115906155bc565b146115dd5760405162461bcd60e51b815260206004820152601e60248201527f2164697655496e74206f766572666c6f7720636865636b206661696c6564000060448201526064016102d4565b50949350505050565b6000806115f281611a3d565b6000306001600160a01b031663a6afed956040518163ffffffff1660e01b81526004016020604051808303816000875af1158015611634573d6000803e3d6000fd5b505050506040513d601f19601f82011682018060405250810190611658919061556e565b905080156116845761167c816011811115611675576116756155bc565b6033611b84565b925050610b55565b43600c54146116995761167c600a6035611b84565b836116a26125ab565b10156116b45761167c600e6034611b84565b6011548411156116ca5761167c60026036611b84565b6000846011546116da91906156bd565b60118190556001549091506116f8906001600160a01b03168661295d565b600093505050610b5e81611b01565b600080610a90836129de565b60008061171f81611a3d565b6000306001600160a01b031663a6afed956040518163ffffffff1660e01b81526004016020604051808303816000875af1158015611761573d6000803e3d6000fd5b505050506040513d601f19601f82011682018060405250810190611785919061556e565b905080156117a95761167c8160118111156117a2576117a26155bc565b6037611b84565b43600c54146117be5761167c600a6039611b84565b836117c76125ab565b10156117d95761167c600e6038611b84565b6010548411156117ef5761167c6002603a611b84565b836010546117fd91906156bd565b601055600654604080516303e1469160e61b81529051611875926001600160a01b03169163f851a4409160048083019260209291908290030181865afa15801561184b573d6000803e3d6000fd5b505050506040513d601f19601f8201168201806040525081019061186f91906156d4565b8561295d565b60005b925050610b5e81611b01565b6000600161189181611a3d565b61189d33868686612a80565b9150610a9081611b01565b6001600160a01b0381166000908152601360205260408120548190819081908180806118d3896114c2565b9250306001600160a01b031663182df0f56040518163ffffffff1660e01b8152600401602060405180830381865afa158015611913573d6000803e3d6000fd5b505050506040513d601f19601f82011682018060405250810190611937919061556e565b915060009993985091965094509092505050565b60006112cc82612f5f565b60006112cc82612fff565b60008061196f8585856130cd565b5095945050505050565b600080600061198781611a3d565b6000306001600160a01b031663a6afed956040518163ffffffff1660e01b81526004016020604051808303816000875af11580156119c9573d6000803e3d6000fd5b505050506040513d601f19601f820116820180604052508101906119ed919061556e565b90508015611a1d57611a11816011811115611a0a57611a0a6155bc565b6041611b84565b60009350935050611a2e565b611a2833338761327e565b93509350505b611a3781611b01565b50915091565b600254600160b01b900460ff16611a835760405162461bcd60e51b815260206004820152600a6024820152691c994b595b9d195c995960b21b60448201526064016102d4565b80611af157600660009054906101000a90046001600160a01b03166001600160a01b031663c90c20b16040518163ffffffff1660e01b8152600401600060405180830381600087803b158015611ad857600080fd5b505af1158015611aec573d6000803e3d6000fd5b505050505b506002805460ff60b01b19169055565b6002805460ff60b01b1916600160b01b179055806113c957600660009054906101000a90046001600160a01b03166001600160a01b031663632e51426040518163ffffffff1660e01b8152600401600060405180830381600087803b158015611b6957600080fd5b505af1158015611b7d573d6000803e3d6000fd5b5050505050565b60007f45b96fe442630264581b197e84bbada861235052c5a1aadfff9ea4e40a969aa0836011811115611bb957611bb96155bc565b836061811115611bcb57611bcb6155bc565b60408051928352602083019190915260009082015260600160405180910390a18260118111156108e1576108e16155bc565b6000821580611c0a575081155b611c565760405162461bcd60e51b815260206004820152601860248201527f2172656465656d20746f6b656e73206f7220616d6f756e74000000000000000060448201526064016102d4565b6006546001600160a01b031673d265ff7e5487e9dd556a4bb900cca6d087eb3ad2148015611c9857507319f2bfca57fdc1b7406337391d2f54063cae87483314155b15611cb057611ca96002602b611b84565b90506108e1565b611cf16040805160e0810190915280600081526020016000815260200160008152602001600081526020016000815260200160008152602001600081525090565b306001600160a01b031663182df0f56040518163ffffffff1660e01b8152600401602060405180830381865afa158015611d2f573d6000803e3d6000fd5b505050506040513d601f19601f82011682018060405250810190611d53919061556e565b6040820152600019831415611de257600654604051630cbb414760e11b81526001600160a01b0387811660048301523060248301526000604483015290911690631976828e906064016020604051808303816000875af1158015611dbb573d6000803e3d6000fd5b505050506040513d601f19601f82011682018060405250810190611ddf919061556e565b92505b8315611e88576060810184905260408051602081018252908201518152611e099085613623565b6080830181905260208301826003811115611e2657611e266155bc565b6003811115611e3757611e376155bc565b9052506000905081602001516003811115611e5457611e546155bc565b14611e8357611e7b6009602c83602001516003811115611e7657611e766155bc565b613675565b9150506108e1565b611f19565b611ea48360405180602001604052808460400151815250613717565b6060830181905260208301826003811115611ec157611ec16155bc565b6003811115611ed257611ed26155bc565b9052506000905081602001516003811115611eef57611eef6155bc565b14611f1157611e7b6009602d83602001516003811115611e7657611e766155bc565b608081018390525b600654606082015160405163eabe7d9160e01b81526000926001600160a01b03169163eabe7d9191611f529130918b91906004016156f1565b6020604051808303816000875af1158015611f71573d6000803e3d6000fd5b505050506040513d601f19601f82011682018060405250810190611f95919061556e565b90508015611fb357611faa6003602b83613675565b925050506108e1565b43600c5414611fc857611faa600a602f611b84565b611fd86012548360600151613727565b60a0840181905260208401826003811115611ff557611ff56155bc565b6003811115612006576120066155bc565b9052506000905082602001516003811115612023576120236155bc565b1461204557611faa6009603184602001516003811115611e7657611e766155bc565b6001600160a01b038616600090815260136020526040902054606083015161206d9190613727565b60c084018190526020840182600381111561208a5761208a6155bc565b600381111561209b5761209b6155bc565b90525060009050826020015160038111156120b8576120b86155bc565b146120da57611faa6009603084602001516003811115611e7657611e766155bc565b81608001516120e76125ab565b10156120f957611faa600e6032611b84565b60a082015160125560c08201516001600160a01b038716600090815260136020526040902055608082015161212f90879061295d565b306001600160a01b0316866001600160a01b03166000805160206159b1833981519152846060015160405161216691815260200190565b60405180910390a36080820151606080840151604080516001600160a01b038b16815260208101949094528301527fe5b754fb1abb7f01b499791d0b820ae3b6af3424ac1c59768edb53f4ec31a929910160405180910390a1600654608083015160608401516040516351dff98960e01b81523060048201526001600160a01b038a81166024830152604482019390935260648101919091529116906351dff98990608401600060405180830381600087803b15801561222557600080fd5b505af1158015612239573d6000803e3d6000fd5b5060009250612246915050565b9695505050505050565b6001546000546040516338e6a07360e11b81526001600160a01b039182166004820152858216602482015284151560448201529116906371cd40e690606401602060405180830381865afa1580156122ac573d6000803e3d6000fd5b505050506040513d601f19601f820116820180604052508101906122d091906155d2565b6123045760405162461bcd60e51b8152602060048201526005602482015264085a5b5c1b60da1b60448201526064016102d4565b600080546001600160a01b031981166001600160a01b0386811691821784556001546040516311a0e21760e01b81526004810193909352928116939216906311a0e21790602401600060405180830381865afa158015612368573d6000803e3d6000fd5b505050506040513d6000823e601f3d908101601f191682016040526123909190810190615739565b9050600061239c61278b565b905060005b81518110156123de576123cc8282815181106123bf576123bf6157d3565b6020026020010151613752565b806123d6816157e9565b9150506123a1565b5060005b825181101561241f5761240d838281518110612400576124006157d3565b6020026020010151613882565b80612417816157e9565b9150506123e2565b50303b6124345761242f8461137a565b612496565b61249430856040516024016124499190615208565b60408051601f19818403018152918152602080830180516001600160e01b0316630adccee560e31b17905281518083019092526007825266216265636f6d6560c81b9082015261397a565b505b600054604080516001600160a01b03808716825290921660208301527fd604de94d45953f9138079ec1b82d533cb2160c906d1076d1f7ed54befbca97a910160405180910390a1505050505050565b60008060006124f381611a3d565b6000306001600160a01b031663a6afed956040518163ffffffff1660e01b81526004016020604051808303816000875af1158015612535573d6000803e3d6000fd5b505050506040513d601f19601f82011682018060405250810190612559919061556e565b905080156125895761257d816011811115612576576125766155bc565b6040611b84565b6000935093505061259a565b61259433878761327e565b93509350505b6125a381611b01565b509250929050565b6016546040516370a0823160e01b81523060048201526000916001600160a01b03169081906370a0823190602401602060405180830381865afa1580156125f6573d6000803e3d6000fd5b505050506040513d601f19601f8201168201806040525081019061261a919061556e565b91505090565b600654604080516303e1469160e61b815290516000926001600160a01b031691829163f851a440916004808201926020929091908290030181865afa15801561266d573d6000803e3d6000fd5b505050506040513d601f19601f8201168201806040525081019061269191906156d4565b6001600160a01b0316336001600160a01b031614801561270e5750806001600160a01b0316630a755ec26040518163ffffffff1660e01b8152600401602060405180830381865afa1580156126ea573d6000803e3d6000fd5b505050506040513d601f19601f8201168201806040525081019061270e91906155d2565b8061261a57506001546001600160a01b03163314801561261a5750806001600160a01b0316632f1069ba6040518163ffffffff1660e01b8152600401602060405180830381865afa158015612767573d6000803e3d6000fd5b505050506040513d601f19601f8201168201806040525081019061261a91906155d2565b60606000805160206159918339815191526002018054806020026020016040519081016040528092919081815260200182805480156127f357602002820191906000526020600020905b81546001600160a01b031681526001909101906020018083116127d5575b5050505050905090565b60008061280981611a3d565b6000306001600160a01b031663a6afed956040518163ffffffff1660e01b81526004016020604051808303816000875af115801561284b573d6000803e3d6000fd5b505050506040513d601f19601f8201168201806040525081019061286f919061556e565b9050801561288c5761167c816011811115610c9157610c916155bc565b6006546001600160a01b031673d265ff7e5487e9dd556a4bb900cca6d087eb3ad214156128bf5761167c6002602b611b84565b61187833600086611bfd565b6001600160a01b038116156128e3576128e381613752565b6128ec82613882565b5050565b600080836129035750600090508061292b565b838302836129118683615804565b146129245760026000925092505061292b565b6000925090505b9250929050565b60008082612946575060019050600061292b565b60006129528486615804565b915091509250929050565b604080516001600160a01b038416602482015260448082018490528251808303909101815260649091018252602080820180516001600160e01b031663a9059cbb60e01b1790528251808401909352601983527f544f4b454e5f5452414e534645525f4f55545f4641494c454400000000000000908301526128ec91613a16565b60008060006129ec81611a3d565b6000306001600160a01b031663a6afed956040518163ffffffff1660e01b81526004016020604051808303816000875af1158015612a2e573d6000803e3d6000fd5b505050506040513d601f19601f82011682018060405250810190612a52919061556e565b90508015612a7657611a11816011811115612a6f57612a6f6155bc565b6020611b84565b611a283386613a6d565b60065460405163d02f735160e01b81523060048201526001600160a01b0386811660248301528581166044830152848116606483015260848201849052600092839291169063d02f73519060a4016020604051808303816000875af1158015612aed573d6000803e3d6000fd5b505050506040513d601f19601f82011682018060405250810190612b11919061556e565b90508015612b2e57612b266003601d83613675565b915050612f57565b846001600160a01b0316846001600160a01b03161415612b5457612b266006601e611b84565b612bb9604080516101808101909152806000815260200160008152602001600081526020016000815260200160008152602001600081526020016000815260200160008152602001600081526020016000815260200160008152602001600081525090565b6001600160a01b038516600090815260136020526040902054612bdc9085613727565b6020830181905282826003811115612bf657612bf66155bc565b6003811115612c0757612c076155bc565b9052506000905081516003811115612c2157612c216155bc565b14612c4c57612c436009601c83600001516003811115611e7657611e766155bc565b92505050612f57565b612c6b846040518060200160405280666379da05b60000815250613de5565b6080820152604080516020810190915267016345785d8a00008152612c91908590613de5565b61014082018190526080820151612ca890866156bd565b612cb291906156bd565b6060820152306001600160a01b031663182df0f56040518163ffffffff1660e01b8152600401602060405180830381865afa158015612cf5573d6000803e3d6000fd5b505050506040513d601f19601f82011682018060405250810190612d19919061556e565b60c082019081526040805160208101909152905181526080820151612d3e9190613e08565b60a0820152604080516020810190915260c08201518152610140820151612d659190613e08565b61016082015260a0810151600f54612d7d91906156a5565b60e08201526101408101516080820151601254612d9a91906156bd565b612da491906156bd565b610120820152610160810151601154612dbd91906156a5565b6101008201526001600160a01b0386166000908152601360205260409020546060820151612deb9190613e20565b6040830181905282826003811115612e0557612e056155bc565b6003811115612e1657612e166155bc565b9052506000905081516003811115612e3057612e306155bc565b14612e5257612c436009601b83600001516003811115611e7657611e766155bc565b60e0810151600f556101208101516012556101008101516011556020808201516001600160a01b0387811660008181526013855260408082209490945583860151928b16808252908490209290925560608501519251928352909290916000805160206159b1833981519152910160405180910390a3306001600160a01b0316856001600160a01b03166000805160206159b18339815191528360800151604051612eff91815260200190565b60405180910390a360a081015160e08201516040805130815260208101939093528201527fa91e67c5ea634cd43a12c5a482724b03de01e85ca68702a53d0c2f45cb7c1dc59060600160405180910390a16000925050505b949350505050565b600080612f6b81611a3d565b6000306001600160a01b031663a6afed956040518163ffffffff1660e01b81526004016020604051808303816000875af1158015612fad573d6000803e3d6000fd5b505050506040513d601f19601f82011682018060405250810190612fd1919061556e565b90508015612ff55761167c816011811115612fee57612fee6155bc565b600a611b84565b6118783385613e46565b60008061300b81611a3d565b6000306001600160a01b031663a6afed956040518163ffffffff1660e01b81526004016020604051808303816000875af115801561304d573d6000803e3d6000fd5b505050506040513d601f19601f82011682018060405250810190613071919061556e565b9050801561308e5761167c816011811115610c9157610c916155bc565b6006546001600160a01b031673d265ff7e5487e9dd556a4bb900cca6d087eb3ad214156130c15761167c6002602b611b84565b61187833856000611bfd565b60008060006130db81611a3d565b6000306001600160a01b031663a6afed956040518163ffffffff1660e01b81526004016020604051808303816000875af115801561311d573d6000803e3d6000fd5b505050506040513d601f19601f82011682018060405250810190613141919061556e565b905080156131715761316581601181111561315e5761315e6155bc565b6011611b84565b6000935093505061326c565b846001600160a01b0316639f5ef2726040518163ffffffff1660e01b8152600401602060405180830381865afa1580156131af573d6000803e3d6000fd5b505050506040513d601f19601f820116820180604052508101906131d391906156d4565b6001600160a01b031663a6afed956040518163ffffffff1660e01b81526004016020604051808303816000875af1158015613212573d6000803e3d6000fd5b505050506040513d601f19601f82011682018060405250810190613236919061556e565b9050801561325a57613165816011811115613253576132536155bc565b6012611b84565b61326633888888614175565b93509350505b61327581611b01565b50935093915050565b600654604051631200453160e11b81523060048201526001600160a01b03858116602483015284811660448301526064820184905260009283928392909116906324008a62906084016020604051808303816000875af11580156132e6573d6000803e3d6000fd5b505050506040513d601f19601f8201168201806040525081019061330a919061556e565b9050801561332b5761331f6003604383613675565b6000925092505061361b565b43600c54146133405761331f600a6044611b84565b6133896040805161010081019091528060008152602001600081526020016000815260200160008152602001600081526020016000815260200160008152602001600081525090565b6001600160a01b03861660009081526015602052604090206001015460608201526133b3866114c2565b60808201526000198514156133d157608081015160408201526133d9565b604081018590525b6133e787826040015161468a565b60e0820181905260808201516133fc91613727565b60a0830181905260208301826003811115613419576134196155bc565b600381111561342a5761342a6155bc565b9052506000905081602001516003811115613447576134476155bc565b146134ba5760405162461bcd60e51b815260206004820152603a60248201527f52455041595f424f52524f575f4e45575f4143434f554e545f424f52524f575f60448201527f42414c414e43455f43414c43554c4154494f4e5f4641494c454400000000000060648201526084016102d4565b6134ca600e548260e00151613727565b60c08301819052602083018260038111156134e7576134e76155bc565b60038111156134f8576134f86155bc565b9052506000905081602001516003811115613515576135156155bc565b1461357c5760405162461bcd60e51b815260206004820152603160248201527f52455041595f424f52524f575f4e45575f544f54414c5f42414c414e43455f43604482015270105310d55310551253d397d19052531151607a1b60648201526084016102d4565b60a081810180516001600160a01b03898116600081815260156020908152604091829020948555600d5460019095019490945560c0870151600e81905560e088015195518251948f16855294840192909252820193909352606081019190915260808101919091527f1a2a22cb034d26d1854bdc6666a5b91fe25efbbb5dcad3b0355478d6f5c362a1910160405180910390a160e00151600093509150505b935093915050565b6000806000806136338686614854565b9092509050600082600381111561364c5761364c6155bc565b1461365d575091506000905061292b565b6000613668826148d0565b9350935050509250929050565b60007f45b96fe442630264581b197e84bbada861235052c5a1aadfff9ea4e40a969aa08460118111156136aa576136aa6155bc565b8460618111156136bc576136bc6155bc565b604080519283526020830191909152810184905260600160405180910390a160038460118111156136ef576136ef6155bc565b1461370b57836011811115613706576137066155bc565b612f57565b612f57826103e86156a5565b60008060008061363386866148e8565b60008083831161374657600061373d84866156bd565b9150915061292b565b5060039050600061292b565b60008051602061599183398151915261376a8261495b565b60005b600282015460ff82161015610e5857826001600160a01b0316826002018260ff168154811061379e5761379e6157d3565b6000918252602090912001546001600160a01b03161415613870576002820180546137cb906001906156bd565b815481106137db576137db6157d3565b6000918252602090912001546002830180546001600160a01b039092169160ff841690811061380c5761380c6157d3565b9060005260206000200160006101000a8154816001600160a01b0302191690836001600160a01b031602179055508160020180548061384d5761384d615826565b600082815260209020810160001990810180546001600160a01b03191690550190555b8061387a8161583c565b91505061376d565b60008051602061599183398151915260005b600282015460ff8216101561393a57826001600160a01b0316826002018260ff16815481106138c5576138c56157d3565b6000918252602090912001546001600160a01b031614156139285760405162461bcd60e51b815260206004820152601760248201527f657874656e73696f6e20616c726561647920616464656400000000000000000060448201526064016102d4565b806139328161583c565b915050613894565b5061394482614be8565b6002018054600181018255600091825260209091200180546001600160a01b0319166001600160a01b0392909216919091179055565b6060600080856001600160a01b031685604051613997919061585c565b6000604051808303816000865af19150503d80600081146139d4576040519150601f19603f3d011682016040523d82523d6000602084013e6139d9565b606091505b509150915081613a0d578051156139f35780518082602001fd5b8360405162461bcd60e51b81526004016102d49190615208565b95945050505050565b601654600090613a30906001600160a01b0316848461397a565b805190915015610e585780806020019051810190613a4e91906155d2565b82906113745760405162461bcd60e51b81526004016102d49190615208565b600654604051634ef4c3e160e01b8152600091829182916001600160a01b031690634ef4c3e190613aa6903090899089906004016156f1565b6020604051808303816000875af1158015613ac5573d6000803e3d6000fd5b505050506040513d601f19601f82011682018060405250810190613ae9919061556e565b90508015613b0a57613afe6003602183613675565b6000925092505061292b565b43600c5414613b1f57613afe600a6024611b84565b613b606040805160e0810190915280600081526020016000815260200160008152602001600081526020016000815260200160008152602001600081525090565b306001600160a01b031663182df0f56040518163ffffffff1660e01b8152600401602060405180830381865afa158015613b9e573d6000803e3d6000fd5b505050506040513d601f19601f82011682018060405250810190613bc2919061556e565b6040820152613bd1868661468a565b60c0820181905260408051602081018252908301518152613bf29190613717565b6060830181905260208301826003811115613c0f57613c0f6155bc565b6003811115613c2057613c206155bc565b9052506000905081602001516003811115613c3d57613c3d6155bc565b14613c8a5760405162461bcd60e51b815260206004820181905260248201527f4d494e545f45584348414e47455f43414c43554c4154494f4e5f4641494c454460448201526064016102d4565b6000816060015111613cde5760405162461bcd60e51b815260206004820152601a60248201527f4d494e545f5a45524f5f43544f4b454e535f52454a454354454400000000000060448201526064016102d4565b8060600151601254613cf091906156a5565b608082015260608101516001600160a01b038716600090815260136020526040902054613d1d91906156a5565b60a0820181905260808201516012556001600160a01b0387166000818152601360209081526040918290209390935560c0840151606080860151835194855294840191909152908201929092527f4c209b5fc8ad50758f13e2e1088ba56a560dff690a1c6fef26394f4c03821c4f910160405180910390a1856001600160a01b0316306001600160a01b03166000805160206159b18339815191528360600151604051613dcc91815260200190565b60405180910390a360c001516000969095509350505050565b6000670de0b6b3a7640000613dfe848460000151614dd2565b6108e19190615804565b600080613e158484614e14565b9050612f57816148d0565b600080838301848110613e385760009250905061292b565b60026000925092505061292b565b60065460405163368f515360e21b815260009182916001600160a01b039091169063da3d454c90613e7f903090889088906004016156f1565b6020604051808303816000875af1158015613e9e573d6000803e3d6000fd5b505050506040513d601f19601f82011682018060405250810190613ec2919061556e565b90508015613edf57613ed76003601083613675565b9150506112cc565b43600c5414613ef457613ed7600a600c611b84565b6000613efe6125ab565b905083811015613f1d57613f14600e600b611b84565b925050506112cc565b613f49604080516080810190915280600081526020016000815260200160008152602001600081525090565b613f52866114c2565b60208201819052613f639086613e20565b6040830181905282826003811115613f7d57613f7d6155bc565b6003811115613f8e57613f8e6155bc565b9052506000905081516003811115613fa857613fa86155bc565b14613fd457613fca6009600e83600001516003811115611e7657611e766155bc565b93505050506112cc565b6006546040828101519051631de6c8a560e21b815230600482015260248101919091526001600160a01b039091169063779b229490604401602060405180830381865afa158015614029573d6000803e3d6000fd5b505050506040513d601f19601f8201168201806040525081019061404d919061556e565b9250821561406257613fca6003601085613675565b61406e600e5486613e20565b6060830181905282826003811115614088576140886155bc565b6003811115614099576140996155bc565b90525060009050815160038111156140b3576140b36155bc565b146140d557613fca6009600d83600001516003811115611e7657611e766155bc565b6040808201516001600160a01b0388166000908152601560205291909120908155600d546001909101556060810151600e55614111868661295d565b60408082015160608084015183516001600160a01b038b168152602081018a9052938401929092528201527f13ed6866d4e1ee6da46f845c46d7e54120883d75c5ea9a2dacc1c4ca8984ab809060800160405180910390a160009695505050505050565b600654604051632fe3f38f60e11b81523060048201526001600160a01b03838116602483015286811660448301528581166064830152608482018590526000928392839290911690635fc7e71e9060a4016020604051808303816000875af11580156141e5573d6000803e3d6000fd5b505050506040513d601f19601f82011682018060405250810190614209919061556e565b9050801561422a5761421e6003601483613675565b60009250925050614681565b43600c541461423f5761421e600a6018611b84565b43846001600160a01b0316636c540baf6040518163ffffffff1660e01b8152600401602060405180830381865afa15801561427e573d6000803e3d6000fd5b505050506040513d601f19601f820116820180604052508101906142a2919061556e565b146142b35761421e600a6013611b84565b866001600160a01b0316866001600160a01b031614156142d95761421e60066019611b84565b846142ea5761421e60076017611b84565b6000198514156143005761421e60076016611b84565b60008061430e89898961327e565b909250905081156143435761433582601181111561432e5761432e6155bc565b601a611b84565b600094509450505050614681565b60065460405163c488847b60e01b815260009182916001600160a01b039091169063c488847b9061437c9030908c9088906004016156f1565b6040805180830381865afa158015614398573d6000803e3d6000fd5b505050506040513d601f19601f820116820180604052508101906143bc9190615878565b9092509050811561442b5760405162461bcd60e51b815260206004820152603360248201527f4c49515549444154455f434f4d5054524f4c4c45525f43414c43554c4154455f604482015272105353d5539517d4d152569157d19052531151606a1b60648201526084016102d4565b80886001600160a01b0316639f5ef2726040518163ffffffff1660e01b8152600401602060405180830381865afa15801561446a573d6000803e3d6000fd5b505050506040513d601f19601f8201168201806040525081019061448e91906156d4565b6040516370a0823160e01b81526001600160a01b038d8116600483015291909116906370a0823190602401602060405180830381865afa1580156144d6573d6000803e3d6000fd5b505050506040513d601f19601f820116820180604052508101906144fa919061556e565b10156145485760405162461bcd60e51b815260206004820152601860248201527f4c49515549444154455f5345495a455f544f4f5f4d554348000000000000000060448201526064016102d4565b60006001600160a01b03891630141561456e57614567308d8d85612a80565b90506145e4565b60405163b2a02ff160e01b81526001600160a01b038a169063b2a02ff19061459e908f908f9087906004016156f1565b6020604051808303816000875af11580156145bd573d6000803e3d6000fd5b505050506040513d601f19601f820116820180604052508101906145e1919061556e565b90505b801561461b5760405162461bcd60e51b8152602060048201526006602482015265217365697a6560d01b60448201526064016102d4565b604080516001600160a01b038e811682528d811660208301528183018790528b1660608201526080810184905290517f298637f684da70674f26509b10f07ec2fbc77a335ab1e7d6215a4b2484d8bb529181900360a00190a16000975092955050505050505b94509492505050565b6016546040516370a0823160e01b815230600482015260009182916001600160a01b03909116906370a0823190602401602060405180830381865afa1580156146d7573d6000803e3d6000fd5b505050506040513d601f19601f820116820180604052508101906146fb919061556e565b905061478b6323b872dd60e01b85308660405160240161471d939291906156f1565b604051602081830303815290604052906001600160e01b0319166020820180516001600160e01b0383818316178352505050506040518060400160405280601881526020017f544f4b454e5f5452414e534645525f494e5f4641494c45440000000000000000815250613a16565b6016546040516370a0823160e01b81523060048201526000916001600160a01b0316906370a0823190602401602060405180830381865afa1580156147d4573d6000803e3d6000fd5b505050506040513d601f19601f820116820180604052508101906147f8919061556e565b90508181101561484a5760405162461bcd60e51b815260206004820152601a60248201527f544f4b454e5f5452414e534645525f494e5f4f564552464c4f5700000000000060448201526064016102d4565b613a0d82826156bd565b600061486c6040518060200160405280600081525090565b60008061487d8660000151866128f0565b90925090506000826003811115614896576148966155bc565b146148b55750604080516020810190915260008152909250905061292b565b60408051602081019091529081526000969095509350505050565b80516000906112cc90670de0b6b3a764000090615804565b60006149006040518060200160405280600081525090565b600080614915670de0b6b3a7640000876128f0565b9092509050600082600381111561492e5761492e6155bc565b1461494d5750604080516020810190915260008152909250905061292b565b613668818660000151614e45565b6000816001600160a01b03166389f8132e6040518163ffffffff1660e01b8152600401600060405180830381865afa15801561499b573d6000803e3d6000fd5b505050506040513d6000823e601f3d908101601f191682016040526149c3919081019061589c565b905060008051602061599183398151915260005b82518161ffff161015611374576000838261ffff16815181106149fc576149fc6157d3565b6020908102919091018101516001600160e01b031981166000908152918590526040909120549091506001600160a01b03868116911614614a3f57614a3f615939565b6001600160e01b0319811660009081526020849052604090205460018085018054600160a01b90930461ffff16929091614a78916156bd565b81548110614a8857614a886157d3565b90600052602060002090600891828204019190066004029054906101000a900460e01b846001018261ffff1681548110614ac457614ac46157d3565b90600052602060002090600891828204019190066004026101000a81548163ffffffff021916908360e01c021790555080846000016000866001018461ffff1681548110614b1457614b146157d3565b6000918252602080832060088304015460079092166004026101000a90910460e01b6001600160e01b03191683528201929092526040019020805461ffff60a01b1916600160a01b61ffff939093169290920291909117905560018401805480614b8057614b80615826565b60008281526020808220600860001990940193840401805463ffffffff600460078716026101000a0219169055919092556001600160e01b0319909316815291849052506040902080546001600160b01b031916905580614be08161594f565b9150506149d7565b6000816001600160a01b03166389f8132e6040518163ffffffff1660e01b8152600401600060405180830381865afa158015614c28573d6000803e3d6000fd5b505050506040513d6000823e601f3d908101601f19168201604052614c50919081019061589c565b7fc8fcad8db84d3cc18b4c41d551ea0ee66dd599cde068d998e57d5e09332c131d549091506000805160206159918339815191529060005b8351811015611b7d576000848281518110614ca557614ca56157d3565b6020908102919091018101516001600160e01b031981166000908152918690526040909120549091506001600160a01b03168015614d1157604051632c18df3360e01b81526001600160e01b0319831660048201526001600160a01b03821660248201526044016102d4565b6040805180820182526001600160a01b03808a16825261ffff80881660208085019182526001600160e01b0319881660009081528b8252958620945185549251909316600160a01b026001600160b01b0319909216929093169190911717909155600180880180549182018155835291206008820401805460e085901c60046007909416939093026101000a92830263ffffffff909302191691909117905583614dba8161594f565b94505050508080614dca906157e9565b915050614c88565b60006108e183836040518060400160405280601781526020017f6d756c7469706c69636174696f6e206f766572666c6f77000000000000000000815250614f10565b6040805160208101909152600081526040518060200160405280614e3c856000015185614dd2565b90529392505050565b6000614e5d6040518060200160405280600081525090565b600080614e7286670de0b6b3a76400006128f0565b90925090506000826003811115614e8b57614e8b6155bc565b14614eaa5750604080516020810190915260008152909250905061292b565b600080614eb78388612932565b90925090506000826003811115614ed057614ed06155bc565b14614ef3578160405180602001604052806000815250955095505050505061292b565b604080516020810190915290815260009890975095505050505050565b6000831580614f1d575082155b15614f2a575060006108e1565b6000614f368486615971565b905083614f438683615804565b1483906115dd5760405162461bcd60e51b81526004016102d49190615208565b828054614f6f90615587565b90600052602060002090601f016020900481019282614f915760008555614fd7565b82601f10614faa57805160ff1916838001178555614fd7565b82800160010185558215614fd7579182015b82811115614fd7578251825591602001919060010190614fbc565b50614fe3929150614fe7565b5090565b5b80821115614fe35760008155600101614fe8565b6001600160a01b03811681146113c957600080fd5b803561501c81614ffc565b919050565b634e487b7160e01b600052604160045260246000fd5b604051601f8201601f1916810167ffffffffffffffff8111828210171561506057615060615021565b604052919050565b600067ffffffffffffffff82111561508257615082615021565b50601f01601f191660200190565b60006150a361509e84615068565b615037565b90508281528383830111156150b757600080fd5b828260208301376000602084830101529392505050565b600082601f8301126150df57600080fd5b6108e183833560208501615090565b600080600080600080600080610100898b03121561510b57600080fd5b883561511681614ffc565b9750602089013561512681614ffc565b9650604089013561513681614ffc565b9550606089013561514681614ffc565b9450608089013567ffffffffffffffff8082111561516357600080fd5b61516f8c838d016150ce565b955060a08b013591508082111561518557600080fd5b506151928b828c016150ce565b93505060c0890135915060e089013590509295985092959890939650565b60005b838110156151cb5781810151838201526020016151b3565b838111156113745750506000910152565b600081518084526151f48160208601602086016151b0565b601f01601f19169290920160200192915050565b6020815260006108e160208301846151dc565b60006020828403121561522d57600080fd5b5035919050565b60006020828403121561524657600080fd5b81356108e181614ffc565b60ff811681146113c957600080fd5b803561501c81615251565b60008060008060008060008060006101208a8c03121561528a57600080fd5b893561529581614ffc565b985060208a01356152a581614ffc565b97506152b360408b01615011565b965060608a0135955060808a013567ffffffffffffffff808211156152d757600080fd5b6152e38d838e016150ce565b965060a08c01359150808211156152f957600080fd5b506153068c828d016150ce565b94505061531560c08b01615260565b925060e08a013591506101008a013590509295985092959850929598565b6000806040838503121561534657600080fd5b823561535181614ffc565b946020939093013593505050565b80151581146113c957600080fd5b6000806000806060858703121561538357600080fd5b843561538e81614ffc565b9350602085013561539e8161535f565b9250604085013567ffffffffffffffff808211156153bb57600080fd5b818701915087601f8301126153cf57600080fd5b8135818111156153de57600080fd5b8860208285010111156153f057600080fd5b95989497505060200194505050565b60006020828403121561541157600080fd5b813567ffffffffffffffff81111561542857600080fd5b8201601f8101841361543957600080fd5b612f5784823560208401615090565b6020808252825182820181905260009190848201906040850190845b818110156154895783516001600160a01b031683529284019291840191600101615464565b50909695505050505050565b600080604083850312156154a857600080fd5b82356154b381614ffc565b915060208301356154c381614ffc565b809150509250929050565b6000806000606084860312156154e357600080fd5b83356154ee81614ffc565b925060208401356154fe81614ffc565b929592945050506040919091013590565b60008060006060848603121561552457600080fd5b833561552f81614ffc565b925060208401359150604084013561554681614ffc565b809150509250925092565b60006020828403121561556357600080fd5b81516108e181615251565b60006020828403121561558057600080fd5b5051919050565b600181811c9082168061559b57607f821691505b60208210811415610b5e57634e487b7160e01b600052602260045260246000fd5b634e487b7160e01b600052602160045260246000fd5b6000602082840312156155e457600080fd5b81516108e18161535f565b60008060006060848603121561560457600080fd5b835161560f81614ffc565b60208501519093506156208161535f565b604085015190925067ffffffffffffffff81111561563d57600080fd5b8401601f8101861361564e57600080fd5b805161565c61509e82615068565b81815287602083850101111561567157600080fd5b6156828260208301602086016151b0565b8093505050509250925092565b634e487b7160e01b600052601160045260246000fd5b600082198211156156b8576156b861568f565b500190565b6000828210156156cf576156cf61568f565b500390565b6000602082840312156156e657600080fd5b81516108e181614ffc565b6001600160a01b039384168152919092166020820152604081019190915260600190565b600067ffffffffffffffff82111561572f5761572f615021565b5060051b60200190565b6000602080838503121561574c57600080fd5b825167ffffffffffffffff81111561576357600080fd5b8301601f8101851361577457600080fd5b805161578261509e82615715565b81815260059190911b820183019083810190878311156157a157600080fd5b928401925b828410156157c85783516157b981614ffc565b825292840192908401906157a6565b979650505050505050565b634e487b7160e01b600052603260045260246000fd5b60006000198214156157fd576157fd61568f565b5060010190565b60008261582157634e487b7160e01b600052601260045260246000fd5b500490565b634e487b7160e01b600052603160045260246000fd5b600060ff821660ff8114156158535761585361568f565b60010192915050565b6000825161586e8184602087016151b0565b9190910192915050565b6000806040838503121561588b57600080fd5b505080516020909101519092909150565b600060208083850312156158af57600080fd5b825167ffffffffffffffff8111156158c657600080fd5b8301601f810185136158d757600080fd5b80516158e561509e82615715565b81815260059190911b8201830190838101908783111561590457600080fd5b928401925b828410156157c85783516001600160e01b03198116811461592a5760008081fd5b82529284019290840190615909565b634e487b7160e01b600052600160045260246000fd5b600061ffff808316818114156159675761596761568f565b6001019392505050565b600081600019048311821515161561598b5761598b61568f565b50029056fec8fcad8db84d3cc18b4c41d551ea0ee66dd599cde068d998e57d5e09332c131cddf252ad1be2c89b69c2b068fc378daa952ba7f163c4a11628f55a4df523b3efa164736f6c634300080a000a",
    "linkReferences": {}
  },
  "methodIdentifiers": {
    "_becomeImplementation(bytes)": "56e67728",
    "_listExtensions()": "6333d001",
    "_prepare()": "1db78944",
    "_registerExtension(address,address)": "89cd9855",
    "_setImplementationSafe(address,bool,bytes)": "50d85b73",
    "_withdrawAdminFees(uint256)": "a7b820df",
    "_withdrawFuseFees(uint256)": "a03dce8d",
    "accrualBlockNumber()": "6c540baf",
    "adminFeeMantissa()": "8d02d9a1",
    "asCTokenExtensionInterface()": "9f5ef272",
    "borrow(uint256)": "c5ebeaec",
    "borrowBalanceCurrent(address)": "17bfdfbc",
    "borrowBalanceStored(address)": "95dd9193",
    "borrowIndex()": "aa5af0fd",
    "comptroller()": "5fe3b567",
    "contractType()": "cb2ef6f7",
    "decimals()": "313ce567",
    "feeSeizeShareMantissa()": "be99f119",
    "forceRedeem(address)": "17c65e12",
    "fuseAdmin()": "15761d51",
    "fuseFeeMantissa()": "dbfe7c19",
    "getAccountSnapshot(address)": "c37f68e2",
    "getCash()": "3b1d21a2",
    "implementation()": "5c60da1b",
    "initialize(address,address,address,address,string,string,uint256,uint256)": "06db3ecd",
    "initialize(address,address,address,uint256,string,string,uint8,uint256,uint256)": "219ef65c",
    "interestRateModel()": "f3fdb15a",
    "isCEther()": "ac784ddc",
    "isCToken()": "fe9c44ae",
    "liquidateBorrow(address,uint256,address)": "f5e3c462",
    "mint(uint256)": "a0712d68",
    "name()": "06fdde03",
    "protocolSeizeShareMantissa()": "6752e702",
    "redeem(uint256)": "db006a75",
    "redeemUnderlying(uint256)": "852a12e3",
    "repayBorrow(uint256)": "0e752702",
    "repayBorrowBehalf(address,uint256)": "2608f818",
    "reserveFactorMantissa()": "173b9904",
    "seize(address,address,uint256)": "b2a02ff1",
    "symbol()": "95d89b41",
    "totalAdminFees()": "61feacff",
    "totalBorrows()": "47bd3718",
    "totalFuseFees()": "dc028ab1",
    "totalReserves()": "8f840ddd",
    "totalSupply()": "18160ddd",
    "underlying()": "6f307dc3"
  }
}