{
  "address": "0x0942Fb84dF77A1Ae96Af3903A5a245995e7fAEf1",
  "abi": [
    {
      "inputs": [],
      "stateMutability": "nonpayable",
      "type": "constructor"
    },
    {
      "anonymous": false,
      "inputs": [
        {
          "indexed": false,
          "internalType": "uint256",
          "name": "cashPrior",
          "type": "uint256"
        },
        {
          "indexed": false,
          "internalType": "uint256",
          "name": "interestAccumulated",
          "type": "uint256"
        },
        {
          "indexed": false,
          "internalType": "uint256",
          "name": "borrowIndex",
          "type": "uint256"
        },
        {
          "indexed": false,
          "internalType": "uint256",
          "name": "totalBorrows",
          "type": "uint256"
        }
      ],
      "name": "AccrueInterest",
      "type": "event"
    },
    {
      "anonymous": false,
      "inputs": [
        {
          "indexed": true,
          "internalType": "address",
          "name": "owner",
          "type": "address"
        },
        {
          "indexed": true,
          "internalType": "address",
          "name": "spender",
          "type": "address"
        },
        {
          "indexed": false,
          "internalType": "uint256",
          "name": "amount",
          "type": "uint256"
        }
      ],
      "name": "Approval",
      "type": "event"
    },
    {
      "anonymous": false,
      "inputs": [
        {
          "indexed": false,
          "internalType": "address",
          "name": "borrower",
          "type": "address"
        },
        {
          "indexed": false,
          "internalType": "uint256",
          "name": "borrowAmount",
          "type": "uint256"
        },
        {
          "indexed": false,
          "internalType": "uint256",
          "name": "accountBorrows",
          "type": "uint256"
        },
        {
          "indexed": false,
          "internalType": "uint256",
          "name": "totalBorrows",
          "type": "uint256"
        }
      ],
      "name": "Borrow",
      "type": "event"
    },
    {
      "anonymous": false,
      "inputs": [
        {
          "indexed": false,
          "internalType": "uint256",
          "name": "error",
          "type": "uint256"
        },
        {
          "indexed": false,
          "internalType": "uint256",
          "name": "info",
          "type": "uint256"
        },
        {
          "indexed": false,
          "internalType": "uint256",
          "name": "detail",
          "type": "uint256"
        }
      ],
      "name": "Failure",
      "type": "event"
    },
    {
      "anonymous": false,
      "inputs": [
        {
          "indexed": false,
          "internalType": "address",
          "name": "liquidator",
          "type": "address"
        },
        {
          "indexed": false,
          "internalType": "address",
          "name": "borrower",
          "type": "address"
        },
        {
          "indexed": false,
          "internalType": "uint256",
          "name": "repayAmount",
          "type": "uint256"
        },
        {
          "indexed": false,
          "internalType": "address",
          "name": "cTokenCollateral",
          "type": "address"
        },
        {
          "indexed": false,
          "internalType": "uint256",
          "name": "seizeTokens",
          "type": "uint256"
        }
      ],
      "name": "LiquidateBorrow",
      "type": "event"
    },
    {
      "anonymous": false,
      "inputs": [
        {
          "indexed": false,
          "internalType": "address",
          "name": "minter",
          "type": "address"
        },
        {
          "indexed": false,
          "internalType": "uint256",
          "name": "mintAmount",
          "type": "uint256"
        },
        {
          "indexed": false,
          "internalType": "uint256",
          "name": "mintTokens",
          "type": "uint256"
        }
      ],
      "name": "Mint",
      "type": "event"
    },
    {
      "anonymous": false,
      "inputs": [
        {
          "indexed": false,
          "internalType": "uint256",
          "name": "oldAdminFeeMantissa",
          "type": "uint256"
        },
        {
          "indexed": false,
          "internalType": "uint256",
          "name": "newAdminFeeMantissa",
          "type": "uint256"
        }
      ],
      "name": "NewAdminFee",
      "type": "event"
    },
    {
      "anonymous": false,
      "inputs": [
        {
          "indexed": false,
          "internalType": "contract ComptrollerInterface",
          "name": "oldComptroller",
          "type": "address"
        },
        {
          "indexed": false,
          "internalType": "contract ComptrollerInterface",
          "name": "newComptroller",
          "type": "address"
        }
      ],
      "name": "NewComptroller",
      "type": "event"
    },
    {
      "anonymous": false,
      "inputs": [
        {
          "indexed": false,
          "internalType": "uint256",
          "name": "oldFuseFeeMantissa",
          "type": "uint256"
        },
        {
          "indexed": false,
          "internalType": "uint256",
          "name": "newFuseFeeMantissa",
          "type": "uint256"
        }
      ],
      "name": "NewFuseFee",
      "type": "event"
    },
    {
      "anonymous": false,
      "inputs": [
        {
          "indexed": false,
          "internalType": "address",
          "name": "oldImplementation",
          "type": "address"
        },
        {
          "indexed": false,
          "internalType": "address",
          "name": "newImplementation",
          "type": "address"
        }
      ],
      "name": "NewImplementation",
      "type": "event"
    },
    {
      "anonymous": false,
      "inputs": [
        {
          "indexed": false,
          "internalType": "contract InterestRateModel",
          "name": "oldInterestRateModel",
          "type": "address"
        },
        {
          "indexed": false,
          "internalType": "contract InterestRateModel",
          "name": "newInterestRateModel",
          "type": "address"
        }
      ],
      "name": "NewMarketInterestRateModel",
      "type": "event"
    },
    {
      "anonymous": false,
      "inputs": [
        {
          "indexed": false,
          "internalType": "uint256",
          "name": "oldReserveFactorMantissa",
          "type": "uint256"
        },
        {
          "indexed": false,
          "internalType": "uint256",
          "name": "newReserveFactorMantissa",
          "type": "uint256"
        }
      ],
      "name": "NewReserveFactor",
      "type": "event"
    },
    {
      "anonymous": false,
      "inputs": [
        {
          "indexed": false,
          "internalType": "address",
          "name": "redeemer",
          "type": "address"
        },
        {
          "indexed": false,
          "internalType": "uint256",
          "name": "redeemAmount",
          "type": "uint256"
        },
        {
          "indexed": false,
          "internalType": "uint256",
          "name": "redeemTokens",
          "type": "uint256"
        }
      ],
      "name": "Redeem",
      "type": "event"
    },
    {
      "anonymous": false,
      "inputs": [
        {
          "indexed": false,
          "internalType": "address",
          "name": "payer",
          "type": "address"
        },
        {
          "indexed": false,
          "internalType": "address",
          "name": "borrower",
          "type": "address"
        },
        {
          "indexed": false,
          "internalType": "uint256",
          "name": "repayAmount",
          "type": "uint256"
        },
        {
          "indexed": false,
          "internalType": "uint256",
          "name": "accountBorrows",
          "type": "uint256"
        },
        {
          "indexed": false,
          "internalType": "uint256",
          "name": "totalBorrows",
          "type": "uint256"
        }
      ],
      "name": "RepayBorrow",
      "type": "event"
    },
    {
      "anonymous": false,
      "inputs": [
        {
          "indexed": false,
          "internalType": "address",
          "name": "benefactor",
          "type": "address"
        },
        {
          "indexed": false,
          "internalType": "uint256",
          "name": "addAmount",
          "type": "uint256"
        },
        {
          "indexed": false,
          "internalType": "uint256",
          "name": "newTotalReserves",
          "type": "uint256"
        }
      ],
      "name": "ReservesAdded",
      "type": "event"
    },
    {
      "anonymous": false,
      "inputs": [
        {
          "indexed": false,
          "internalType": "address",
          "name": "admin",
          "type": "address"
        },
        {
          "indexed": false,
          "internalType": "uint256",
          "name": "reduceAmount",
          "type": "uint256"
        },
        {
          "indexed": false,
          "internalType": "uint256",
          "name": "newTotalReserves",
          "type": "uint256"
        }
      ],
      "name": "ReservesReduced",
      "type": "event"
    },
    {
      "anonymous": false,
      "inputs": [
        {
          "indexed": true,
          "internalType": "address",
          "name": "from",
          "type": "address"
        },
        {
          "indexed": true,
          "internalType": "address",
          "name": "to",
          "type": "address"
        },
        {
          "indexed": false,
          "internalType": "uint256",
          "name": "amount",
          "type": "uint256"
        }
      ],
      "name": "Transfer",
      "type": "event"
    },
    {
      "inputs": [
        {
          "internalType": "bytes",
          "name": "data",
          "type": "bytes"
        }
      ],
      "name": "_becomeImplementation",
      "outputs": [],
      "stateMutability": "nonpayable",
      "type": "function"
    },
    {
      "inputs": [],
      "name": "_prepare",
      "outputs": [],
      "stateMutability": "payable",
      "type": "function"
    },
    {
      "inputs": [
        {
          "internalType": "uint256",
          "name": "newAdminFeeMantissa",
          "type": "uint256"
        }
      ],
      "name": "_setAdminFee",
      "outputs": [
        {
          "internalType": "uint256",
          "name": "",
          "type": "uint256"
        }
      ],
      "stateMutability": "nonpayable",
      "type": "function"
    },
    {
      "inputs": [
        {
          "internalType": "address",
          "name": "implementation_",
          "type": "address"
        },
        {
          "internalType": "bool",
          "name": "allowResign",
          "type": "bool"
        },
        {
          "internalType": "bytes",
          "name": "becomeImplementationData",
          "type": "bytes"
        }
      ],
      "name": "_setImplementationSafe",
      "outputs": [],
      "stateMutability": "nonpayable",
      "type": "function"
    },
    {
      "inputs": [
        {
          "internalType": "contract InterestRateModel",
          "name": "newInterestRateModel",
          "type": "address"
        }
      ],
      "name": "_setInterestRateModel",
      "outputs": [
        {
          "internalType": "uint256",
          "name": "",
          "type": "uint256"
        }
      ],
      "stateMutability": "nonpayable",
      "type": "function"
    },
    {
      "inputs": [
        {
          "internalType": "string",
          "name": "_name",
          "type": "string"
        },
        {
          "internalType": "string",
          "name": "_symbol",
          "type": "string"
        }
      ],
      "name": "_setNameAndSymbol",
      "outputs": [],
      "stateMutability": "nonpayable",
      "type": "function"
    },
    {
      "inputs": [
        {
          "internalType": "uint256",
          "name": "newReserveFactorMantissa",
          "type": "uint256"
        }
      ],
      "name": "_setReserveFactor",
      "outputs": [
        {
          "internalType": "uint256",
          "name": "",
          "type": "uint256"
        }
      ],
      "stateMutability": "nonpayable",
      "type": "function"
    },
    {
      "inputs": [
        {
          "internalType": "uint256",
          "name": "withdrawAmount",
          "type": "uint256"
        }
      ],
      "name": "_withdrawAdminFees",
      "outputs": [
        {
          "internalType": "uint256",
          "name": "",
          "type": "uint256"
        }
      ],
      "stateMutability": "nonpayable",
      "type": "function"
    },
    {
      "inputs": [
        {
          "internalType": "uint256",
          "name": "withdrawAmount",
          "type": "uint256"
        }
      ],
      "name": "_withdrawFuseFees",
      "outputs": [
        {
          "internalType": "uint256",
          "name": "",
          "type": "uint256"
        }
      ],
      "stateMutability": "nonpayable",
      "type": "function"
    },
    {
      "inputs": [],
      "name": "accrualBlockNumber",
      "outputs": [
        {
          "internalType": "uint256",
          "name": "",
          "type": "uint256"
        }
      ],
      "stateMutability": "view",
      "type": "function"
    },
    {
      "inputs": [],
      "name": "accrueInterest",
      "outputs": [
        {
          "internalType": "uint256",
          "name": "",
          "type": "uint256"
        }
      ],
      "stateMutability": "nonpayable",
      "type": "function"
    },
    {
      "inputs": [],
      "name": "adminFeeMantissa",
      "outputs": [
        {
          "internalType": "uint256",
          "name": "",
          "type": "uint256"
        }
      ],
      "stateMutability": "view",
      "type": "function"
    },
    {
      "inputs": [
        {
          "internalType": "address",
          "name": "owner",
          "type": "address"
        },
        {
          "internalType": "address",
          "name": "spender",
          "type": "address"
        }
      ],
      "name": "allowance",
      "outputs": [
        {
          "internalType": "uint256",
          "name": "",
          "type": "uint256"
        }
      ],
      "stateMutability": "view",
      "type": "function"
    },
    {
      "inputs": [
        {
          "internalType": "address",
          "name": "spender",
          "type": "address"
        },
        {
          "internalType": "uint256",
          "name": "amount",
          "type": "uint256"
        }
      ],
      "name": "approve",
      "outputs": [
        {
          "internalType": "bool",
          "name": "",
          "type": "bool"
        }
      ],
      "stateMutability": "nonpayable",
      "type": "function"
    },
    {
      "inputs": [
        {
          "internalType": "address",
          "name": "owner",
          "type": "address"
        }
      ],
      "name": "balanceOf",
      "outputs": [
        {
          "internalType": "uint256",
          "name": "",
          "type": "uint256"
        }
      ],
      "stateMutability": "view",
      "type": "function"
    },
    {
      "inputs": [
        {
          "internalType": "address",
          "name": "owner",
          "type": "address"
        }
      ],
      "name": "balanceOfUnderlying",
      "outputs": [
        {
          "internalType": "uint256",
          "name": "",
          "type": "uint256"
        }
      ],
      "stateMutability": "nonpayable",
      "type": "function"
    },
    {
      "inputs": [
        {
          "internalType": "uint256",
          "name": "borrowAmount",
          "type": "uint256"
        }
      ],
      "name": "borrow",
      "outputs": [
        {
          "internalType": "uint256",
          "name": "",
          "type": "uint256"
        }
      ],
      "stateMutability": "nonpayable",
      "type": "function"
    },
    {
      "inputs": [
        {
          "internalType": "address",
          "name": "account",
          "type": "address"
        }
      ],
      "name": "borrowBalanceCurrent",
      "outputs": [
        {
          "internalType": "uint256",
          "name": "",
          "type": "uint256"
        }
      ],
      "stateMutability": "nonpayable",
      "type": "function"
    },
    {
      "inputs": [
        {
          "internalType": "address",
          "name": "account",
          "type": "address"
        }
      ],
      "name": "borrowBalanceStored",
      "outputs": [
        {
          "internalType": "uint256",
          "name": "",
          "type": "uint256"
        }
      ],
      "stateMutability": "view",
      "type": "function"
    },
    {
      "inputs": [],
      "name": "borrowIndex",
      "outputs": [
        {
          "internalType": "uint256",
          "name": "",
          "type": "uint256"
        }
      ],
      "stateMutability": "view",
      "type": "function"
    },
    {
      "inputs": [],
      "name": "borrowRatePerBlock",
      "outputs": [
        {
          "internalType": "uint256",
          "name": "",
          "type": "uint256"
        }
      ],
      "stateMutability": "view",
      "type": "function"
    },
    {
      "inputs": [],
      "name": "comptroller",
      "outputs": [
        {
          "internalType": "contract ComptrollerInterface",
          "name": "",
          "type": "address"
        }
      ],
      "stateMutability": "view",
      "type": "function"
    },
    {
      "inputs": [],
      "name": "decimals",
      "outputs": [
        {
          "internalType": "uint8",
          "name": "",
          "type": "uint8"
        }
      ],
      "stateMutability": "view",
      "type": "function"
    },
    {
      "inputs": [],
      "name": "exchangeRateCurrent",
      "outputs": [
        {
          "internalType": "uint256",
          "name": "",
          "type": "uint256"
        }
      ],
      "stateMutability": "nonpayable",
      "type": "function"
    },
    {
      "inputs": [],
      "name": "exchangeRateStored",
      "outputs": [
        {
          "internalType": "uint256",
          "name": "",
          "type": "uint256"
        }
      ],
      "stateMutability": "view",
      "type": "function"
    },
    {
      "inputs": [],
      "name": "feeSeizeShareMantissa",
      "outputs": [
        {
          "internalType": "uint256",
          "name": "",
          "type": "uint256"
        }
      ],
      "stateMutability": "view",
      "type": "function"
    },
    {
      "inputs": [],
      "name": "fuseAdmin",
      "outputs": [
        {
          "internalType": "address payable",
          "name": "",
          "type": "address"
        }
      ],
      "stateMutability": "view",
      "type": "function"
    },
    {
      "inputs": [],
      "name": "fuseFeeMantissa",
      "outputs": [
        {
          "internalType": "uint256",
          "name": "",
          "type": "uint256"
        }
      ],
      "stateMutability": "view",
      "type": "function"
    },
    {
      "inputs": [
        {
          "internalType": "address",
          "name": "account",
          "type": "address"
        }
      ],
      "name": "getAccountSnapshot",
      "outputs": [
        {
          "internalType": "uint256",
          "name": "",
          "type": "uint256"
        },
        {
          "internalType": "uint256",
          "name": "",
          "type": "uint256"
        },
        {
          "internalType": "uint256",
          "name": "",
          "type": "uint256"
        },
        {
          "internalType": "uint256",
          "name": "",
          "type": "uint256"
        }
      ],
      "stateMutability": "view",
      "type": "function"
    },
    {
      "inputs": [],
      "name": "getCash",
      "outputs": [
        {
          "internalType": "uint256",
          "name": "",
          "type": "uint256"
        }
      ],
      "stateMutability": "view",
      "type": "function"
    },
    {
      "inputs": [],
      "name": "implementation",
      "outputs": [
        {
          "internalType": "address",
          "name": "",
          "type": "address"
        }
      ],
      "stateMutability": "view",
      "type": "function"
    },
    {
      "inputs": [
        {
          "internalType": "contract ComptrollerInterface",
          "name": "comptroller_",
          "type": "address"
        },
        {
          "internalType": "address payable",
          "name": "fuseAdmin_",
          "type": "address"
        },
        {
          "internalType": "contract InterestRateModel",
          "name": "interestRateModel_",
          "type": "address"
        },
        {
          "internalType": "uint256",
          "name": "initialExchangeRateMantissa_",
          "type": "uint256"
        },
        {
          "internalType": "string",
          "name": "name_",
          "type": "string"
        },
        {
          "internalType": "string",
          "name": "symbol_",
          "type": "string"
        },
        {
          "internalType": "uint8",
          "name": "decimals_",
          "type": "uint8"
        },
        {
          "internalType": "uint256",
          "name": "reserveFactorMantissa_",
          "type": "uint256"
        },
        {
          "internalType": "uint256",
          "name": "adminFeeMantissa_",
          "type": "uint256"
        }
      ],
      "name": "initialize",
      "outputs": [],
      "stateMutability": "nonpayable",
      "type": "function"
    },
    {
      "inputs": [
        {
          "internalType": "contract ComptrollerInterface",
          "name": "comptroller_",
          "type": "address"
        },
        {
          "internalType": "address payable",
          "name": "fuseAdmin_",
          "type": "address"
        },
        {
          "internalType": "contract InterestRateModel",
          "name": "interestRateModel_",
          "type": "address"
        },
        {
          "internalType": "string",
          "name": "name_",
          "type": "string"
        },
        {
          "internalType": "string",
          "name": "symbol_",
          "type": "string"
        },
        {
          "internalType": "uint256",
          "name": "reserveFactorMantissa_",
          "type": "uint256"
        },
        {
          "internalType": "uint256",
          "name": "adminFeeMantissa_",
          "type": "uint256"
        }
      ],
      "name": "initialize",
      "outputs": [],
      "stateMutability": "nonpayable",
      "type": "function"
    },
    {
      "inputs": [],
      "name": "interestRateModel",
      "outputs": [
        {
          "internalType": "contract InterestRateModel",
          "name": "",
          "type": "address"
        }
      ],
      "stateMutability": "view",
      "type": "function"
    },
    {
      "inputs": [],
      "name": "isCEther",
      "outputs": [
        {
          "internalType": "bool",
          "name": "",
          "type": "bool"
        }
      ],
      "stateMutability": "view",
      "type": "function"
    },
    {
      "inputs": [],
      "name": "isCToken",
      "outputs": [
        {
          "internalType": "bool",
          "name": "",
          "type": "bool"
        }
      ],
      "stateMutability": "nonpayable",
      "type": "function"
    },
    {
      "inputs": [
        {
          "internalType": "address",
          "name": "borrower",
          "type": "address"
        },
        {
          "internalType": "contract CToken",
          "name": "cTokenCollateral",
          "type": "address"
        }
      ],
      "name": "liquidateBorrow",
      "outputs": [],
      "stateMutability": "payable",
      "type": "function"
    },
    {
      "inputs": [],
      "name": "mint",
      "outputs": [],
      "stateMutability": "payable",
      "type": "function"
    },
    {
      "inputs": [],
      "name": "name",
      "outputs": [
        {
          "internalType": "string",
          "name": "",
          "type": "string"
        }
      ],
      "stateMutability": "view",
      "type": "function"
    },
    {
      "inputs": [],
      "name": "protocolSeizeShareMantissa",
      "outputs": [
        {
          "internalType": "uint256",
          "name": "",
          "type": "uint256"
        }
      ],
      "stateMutability": "view",
      "type": "function"
    },
    {
      "inputs": [
        {
          "internalType": "uint256",
          "name": "redeemTokens",
          "type": "uint256"
        }
      ],
      "name": "redeem",
      "outputs": [
        {
          "internalType": "uint256",
          "name": "",
          "type": "uint256"
        }
      ],
      "stateMutability": "nonpayable",
      "type": "function"
    },
    {
      "inputs": [
        {
          "internalType": "uint256",
          "name": "redeemAmount",
          "type": "uint256"
        }
      ],
      "name": "redeemUnderlying",
      "outputs": [
        {
          "internalType": "uint256",
          "name": "",
          "type": "uint256"
        }
      ],
      "stateMutability": "nonpayable",
      "type": "function"
    },
    {
      "inputs": [],
      "name": "repayBorrow",
      "outputs": [],
      "stateMutability": "payable",
      "type": "function"
    },
    {
      "inputs": [
        {
          "internalType": "address",
          "name": "borrower",
          "type": "address"
        }
      ],
      "name": "repayBorrowBehalf",
      "outputs": [],
      "stateMutability": "payable",
      "type": "function"
    },
    {
      "inputs": [],
      "name": "reserveFactorMantissa",
      "outputs": [
        {
          "internalType": "uint256",
          "name": "",
          "type": "uint256"
        }
      ],
      "stateMutability": "view",
      "type": "function"
    },
    {
      "inputs": [
        {
          "internalType": "address",
          "name": "liquidator",
          "type": "address"
        },
        {
          "internalType": "address",
          "name": "borrower",
          "type": "address"
        },
        {
          "internalType": "uint256",
          "name": "seizeTokens",
          "type": "uint256"
        }
      ],
      "name": "seize",
      "outputs": [
        {
          "internalType": "uint256",
          "name": "",
          "type": "uint256"
        }
      ],
      "stateMutability": "nonpayable",
      "type": "function"
    },
    {
      "inputs": [],
      "name": "supplyRatePerBlock",
      "outputs": [
        {
          "internalType": "uint256",
          "name": "",
          "type": "uint256"
        }
      ],
      "stateMutability": "view",
      "type": "function"
    },
    {
      "inputs": [],
      "name": "symbol",
      "outputs": [
        {
          "internalType": "string",
          "name": "",
          "type": "string"
        }
      ],
      "stateMutability": "view",
      "type": "function"
    },
    {
      "inputs": [],
      "name": "totalAdminFees",
      "outputs": [
        {
          "internalType": "uint256",
          "name": "",
          "type": "uint256"
        }
      ],
      "stateMutability": "view",
      "type": "function"
    },
    {
      "inputs": [],
      "name": "totalBorrows",
      "outputs": [
        {
          "internalType": "uint256",
          "name": "",
          "type": "uint256"
        }
      ],
      "stateMutability": "view",
      "type": "function"
    },
    {
      "inputs": [],
      "name": "totalBorrowsCurrent",
      "outputs": [
        {
          "internalType": "uint256",
          "name": "",
          "type": "uint256"
        }
      ],
      "stateMutability": "nonpayable",
      "type": "function"
    },
    {
      "inputs": [],
      "name": "totalFuseFees",
      "outputs": [
        {
          "internalType": "uint256",
          "name": "",
          "type": "uint256"
        }
      ],
      "stateMutability": "view",
      "type": "function"
    },
    {
      "inputs": [],
      "name": "totalReserves",
      "outputs": [
        {
          "internalType": "uint256",
          "name": "",
          "type": "uint256"
        }
      ],
      "stateMutability": "view",
      "type": "function"
    },
    {
      "inputs": [],
      "name": "totalSupply",
      "outputs": [
        {
          "internalType": "uint256",
          "name": "",
          "type": "uint256"
        }
      ],
      "stateMutability": "view",
      "type": "function"
    },
    {
      "inputs": [
        {
          "internalType": "address",
          "name": "dst",
          "type": "address"
        },
        {
          "internalType": "uint256",
          "name": "amount",
          "type": "uint256"
        }
      ],
      "name": "transfer",
      "outputs": [
        {
          "internalType": "bool",
          "name": "",
          "type": "bool"
        }
      ],
      "stateMutability": "nonpayable",
      "type": "function"
    },
    {
      "inputs": [
        {
          "internalType": "address",
          "name": "src",
          "type": "address"
        },
        {
          "internalType": "address",
          "name": "dst",
          "type": "address"
        },
        {
          "internalType": "uint256",
          "name": "amount",
          "type": "uint256"
        }
      ],
      "name": "transferFrom",
      "outputs": [
        {
          "internalType": "bool",
          "name": "",
          "type": "bool"
        }
      ],
      "stateMutability": "nonpayable",
      "type": "function"
    },
    {
      "inputs": [],
      "name": "underlying",
      "outputs": [
        {
          "internalType": "address",
          "name": "",
          "type": "address"
        }
      ],
      "stateMutability": "view",
      "type": "function"
    },
    {
      "stateMutability": "payable",
      "type": "receive"
    }
  ],
  "transactionHash": "0xbaf1c739e1679e367df8d6fe794ac19d052944f4ebbc9268ee02784062d09023",
  "args": [],
  "numDeployments": 1,
  "bytecode": {
    "object": "0x608060405234801561001057600080fd5b50615ba980620000216000396000f3fe60806040526004361061037a5760003560e01c80638d02d9a1116101d1578063b2a02ff111610102578063dc028ab1116100a0578063f3fdb15a1161006f578063f3fdb15a146109e6578063f8f9da2814610a06578063fca7820b14610a1b578063fe9c44ae14610a3b57600080fd5b8063dc028ab114610957578063dd62ed3e1461096d578063e5974619146109b3578063f2b3abbd146109c657600080fd5b8063c37f68e2116100dc578063c37f68e2146108c1578063c5ebeaec14610901578063db006a7514610921578063dbfe7c191461094157600080fd5b8063b2a02ff114610870578063bd6d894d14610890578063be99f119146108a557600080fd5b8063a6afed951161016f578063aa5af0fd11610149578063aa5af0fd1461081d578063aae40a2a14610833578063ac784ddc14610846578063ae9d70b01461085b57600080fd5b8063a6afed95146107c8578063a7b820df146107dd578063a9059cbb146107fd57600080fd5b806395d89b41116101ab57806395d89b411461075357806395dd919314610768578063a03dce8d14610788578063a0b0d289146107a857600080fd5b80638d02d9a1146107075780638f840ddd1461071d57806391dd36c61461073357600080fd5b80633b1d21a2116102ab57806361feacff116102495780636f307dc3116102235780636f307dc31461067c57806370a082311461069c57806373acee98146106d2578063852a12e3146106e757600080fd5b806361feacff146106355780636752e7021461064b5780636c540baf1461066657600080fd5b806350d85b731161028557806350d85b73146105b557806356e67728146105d55780635c60da1b146105f55780635fe3b5671461061557600080fd5b80633b1d21a21461058257806347bd3718146105975780634e4d9fea146105ad57600080fd5b8063182df0f51161031857806323b872dd116102f257806323b872dd146104f6578063313ce5671461051657806334154d4c146105425780633af9e6691461056257600080fd5b8063182df0f5146104b95780631db78944146104ce578063219ef65c146104d657600080fd5b806315761d511161035457806315761d5114610427578063173b99041461045f57806317bfdfbc1461048357806318160ddd146104a357600080fd5b806306fdde03146103c2578063095ea7b3146103ed5780631249c58b1461041d57600080fd5b366103bd57600061038a34610a4f565b5090506103ba816040518060400160405280600b81526020016a1b5a5b9d0819985a5b195960aa1b815250610ab6565b50005b600080fd5b3480156103ce57600080fd5b506103d7610d98565b6040516103e49190615410565b60405180910390f35b3480156103f957600080fd5b5061040d610408366004615438565b610e26565b60405190151581526020016103e4565b610425610e96565b005b34801561043357600080fd5b50600154610447906001600160a01b031681565b6040516001600160a01b0390911681526020016103e4565b34801561046b57600080fd5b50610475600b5481565b6040519081526020016103e4565b34801561048f57600080fd5b5061047561049e366004615464565b610ed4565b3480156104af57600080fd5b5061047560125481565b3480156104c557600080fd5b50610475610f22565b610425610fb3565b3480156104e257600080fd5b506104256104f136600461556f565b6110e4565b34801561050257600080fd5b5061040d610511366004615637565b611413565b34801561052257600080fd5b506005546105309060ff1681565b60405160ff90911681526020016103e4565b34801561054e57600080fd5b5061042561055d3660046156ba565b611441565b34801561056e57600080fd5b5061047561057d366004615464565b6114a1565b34801561058e57600080fd5b50610475611551565b3480156105a357600080fd5b50610475600e5481565b610425611560565b3480156105c157600080fd5b506104256105d0366004615734565b6115a2565b3480156105e157600080fd5b506104256105f036600461578d565b611626565b34801561060157600080fd5b50600054610447906001600160a01b031681565b34801561062157600080fd5b50600654610447906001600160a01b031681565b34801561064157600080fd5b5061047560105481565b34801561065757600080fd5b50610475666379da05b6000081565b34801561067257600080fd5b50610475600c5481565b34801561068857600080fd5b50601654610447906001600160a01b031681565b3480156106a857600080fd5b506104756106b7366004615464565b6001600160a01b031660009081526013602052604090205490565b3480156106de57600080fd5b5061047561169f565b3480156106f357600080fd5b506104756107023660046157d6565b6116ce565b34801561071357600080fd5b5061047560095481565b34801561072957600080fd5b50610475600f5481565b34801561073f57600080fd5b5061047561074e3660046157d6565b6116d9565b34801561075f57600080fd5b506103d7611730565b34801561077457600080fd5b50610475610783366004615464565b61173d565b34801561079457600080fd5b506104756107a33660046157d6565b6117de565b3480156107b457600080fd5b506104256107c33660046157ef565b611821565b3480156107d457600080fd5b50610475611848565b3480156107e957600080fd5b506104756107f83660046157d6565b6119ff565b34801561080957600080fd5b5061040d610818366004615438565b611a42565b34801561082957600080fd5b50610475600d5481565b61042561084136600461589e565b611a6f565b34801561085257600080fd5b5061040d600181565b34801561086757600080fd5b50610475611ab7565b34801561087c57600080fd5b5061047561088b366004615637565b611b7a565b34801561089c57600080fd5b50610475611b9e565b3480156108b157600080fd5b5061047567016345785d8a000081565b3480156108cd57600080fd5b506108e16108dc366004615464565b611be8565b6040805194855260208501939093529183015260608201526080016103e4565b34801561090d57600080fd5b5061047561091c3660046157d6565b611c89565b34801561092d57600080fd5b5061047561093c3660046157d6565b611c94565b34801561094d57600080fd5b50610475600a5481565b34801561096357600080fd5b5061047560115481565b34801561097957600080fd5b5061047561098836600461589e565b6001600160a01b03918216600090815260146020908152604080832093909416825291909152205490565b6104256109c1366004615464565b611c9f565b3480156109d257600080fd5b506104756109e1366004615464565b611cf1565b3480156109f257600080fd5b50600754610447906001600160a01b031681565b348015610a1257600080fd5b50610475611d29565b348015610a2757600080fd5b50610475610a363660046157d6565b611d8d565b348015610a4757600080fd5b50600161040d565b6000806000610a5d81611dd0565b6000610a67611848565b90508015610a9757610a8b816011811115610a8457610a846158d7565b6020611e94565b60009350935050610aa7565b610aa13386611f0d565b93509350505b610ab0816122d8565b50915091565b81610abf575050565b600081516007610acf9190615903565b67ffffffffffffffff811115610ae757610ae7615491565b6040519080825280601f01601f191660200182016040528015610b11576020820181803683370190505b50905060005b8251811015610b7857828181518110610b3257610b3261591b565b602001015160f81c60f81b828281518110610b4f57610b4f61591b565b60200101906001600160f81b031916908160001a90535080610b7081615931565b915050610b17565b600160fd1b82610b89836000615903565b81518110610b9957610b9961591b565b60200101906001600160f81b031916908160001a905350600560fb1b82610bc1836001615903565b81518110610bd157610bd161591b565b60200101906001600160f81b031916908160001a905350610bf46103e885615962565b610bff906030615903565b60f81b82610c0e836002615903565b81518110610c1e57610c1e61591b565b60200101906001600160f81b031916908160001a905350600a610c42606486615962565b610c4c9190615976565b610c57906030615903565b60f81b82610c66836003615903565b81518110610c7657610c7661591b565b60200101906001600160f81b031916908160001a905350600a610c998186615962565b610ca39190615976565b610cae906030615903565b60f81b82610cbd836004615903565b81518110610ccd57610ccd61591b565b60200101906001600160f81b031916908160001a905350610cef600a85615976565b610cfa906030615903565b60f81b82610d09836005615903565b81518110610d1957610d1961591b565b60200101906001600160f81b031916908160001a905350602960f81b82610d41836006615903565b81518110610d5157610d5161591b565b60200101906001600160f81b031916908160001a905350818415610d915760405162461bcd60e51b8152600401610d889190615410565b60405180910390fd5b5050505050565b60038054610da59061598a565b80601f0160208091040260200160405190810160405280929190818152602001828054610dd19061598a565b8015610e1e5780601f10610df357610100808354040283529160200191610e1e565b820191906000526020600020905b815481529060010190602001808311610e0157829003601f168201915b505050505081565b3360008181526014602090815260408083206001600160a01b03871680855292528083208590555191929182907f8c5be1e5ebec7d5bd14f71427d1e84f3dd0314c0f7b2291e5b200ac8c7c3b92590610e829087815260200190565b60405180910390a360019150505b92915050565b6000610ea134610a4f565b509050610ed1816040518060400160405280600b81526020016a1b5a5b9d0819985a5b195960aa1b815250610ab6565b50565b600080610ee081611dd0565b6000610eea611848565b14610f075760405162461bcd60e51b8152600401610d88906159bf565b610f108361173d565b91505b610f1c816122d8565b50919050565b6000806000610f2f612354565b90925090506000826003811115610f4857610f486158d7565b14610e905760405162461bcd60e51b815260206004820152603560248201527f65786368616e67655261746553746f7265643a2065786368616e67655261746560448201527414dd1bdc9959125b9d195c9b985b0819985a5b1959605a1b6064820152608401610d88565b3330148015906110355750600660009054906101000a90046001600160a01b03166001600160a01b031663dd5cd22c6040518163ffffffff1660e01b8152600401602060405180830381865afa158015611011573d6000803e3d6000fd5b505050506040513d601f19601f8201168201806040525081019061103591906159ef565b156110e25760015460008054604051638abe0b7560e01b81526001600160a01b03918216600482015291928392839290911690638abe0b7590602401600060405180830381865afa15801561108e573d6000803e3d6000fd5b505050506040513d6000823e601f3d908101601f191682016040526110b69190810190615a0c565b60005492955090935091506001600160a01b038085169116146110de576110de838383612421565b5050505b565b336001600160a01b0389161461114e5760405162461bcd60e51b815260206004820152602960248201527f6f6e6c7920467573652061646d696e206d617920696e697469616c697a6520746044820152681a19481b585c9ad95d60ba1b6064820152608401610d88565b600c5415801561115e5750600d54155b6111b65760405162461bcd60e51b815260206004820152602360248201527f6d61726b6574206d6179206f6e6c7920626520696e697469616c697a6564206f6044820152626e636560e81b6064820152608401610d88565b600180546001600160a01b0319166001600160a01b038a1617905560088690558561123c5760405162461bcd60e51b815260206004820152603060248201527f696e697469616c2065786368616e67652072617465206d75737420626520677260448201526f32b0ba32b9103a3430b7103d32b9379760811b6064820152608401610d88565b60006112478a6125b7565b905080156112975760405162461bcd60e51b815260206004820152601a60248201527f73657474696e6720636f6d7074726f6c6c6572206661696c65640000000000006044820152606401610d88565b43600c55670de0b6b3a7640000600d556112b0886126e2565b9050801561130b5760405162461bcd60e51b815260206004820152602260248201527f73657474696e6720696e7465726573742072617465206d6f64656c206661696c604482015261195960f21b6064820152608401610d88565b855161131e9060039060208901906152af565b5084516113329060049060208801906152af565b506005805460ff191660ff861617905561134b83612830565b9050801561139b5760405162461bcd60e51b815260206004820152601d60248201527f73657474696e67207265736572766520666163746f72206661696c65640000006044820152606401610d88565b6113a4826128cf565b905080156113f45760405162461bcd60e51b815260206004820152601860248201527f73657474696e672061646d696e20666565206661696c656400000000000000006044820152606401610d88565b50506002805460ff60b01b1916600160b01b1790555050505050505050565b60008061141f81611dd0565b600061142d338787876129e9565b149150611439816122d8565b509392505050565b611449612c87565b6114885760405162461bcd60e51b815260206004820152601060248201526f31b0b63632b9103737ba1030b236b4b760811b6044820152606401610d88565b6114946003858561532f565b50610d916004838361532f565b60008060405180602001604052806114b7611b9e565b90526001600160a01b0384166000908152601360205260408120549192509081906114e3908490612df2565b909250905060008260038111156114fc576114fc6158d7565b146115495760405162461bcd60e51b815260206004820152601f60248201527f62616c616e636520636f756c64206e6f742062652063616c63756c61746564006044820152606401610d88565b949350505050565b600061155b612e44565b905090565b600061156b34612e76565b509050610ed181604051806040016040528060128152602001711c995c185e509bdc9c9bddc819985a5b195960721b815250610ab6565b6115aa612c87565b6115df5760405162461bcd60e51b815260206004820152600660248201526510b0b236b4b760d11b6044820152606401610d88565b611620848484848080601f01602080910402602001604051908101604052809392919081815260200183838082843760009201919091525061242192505050565b50505050565b333014806116375750611637612c87565b610ed15760405162461bcd60e51b815260206004820152603360248201527f6f6e6c792073656c6620616e642061646d696e732063616e2063616c6c205f6260448201527232b1b7b6b2a4b6b83632b6b2b73a30ba34b7b760691b6064820152608401610d88565b6000806116aa611848565b146116c75760405162461bcd60e51b8152600401610d88906159bf565b50600e5490565b6000610e9082612ebd565b6000806116e581611dd0565b60006116ef611848565b9050801561171b5761171381601181111561170c5761170c6158d7565b6052611e94565b925050610f13565b611724846128cf565b925050610f1c816122d8565b60048054610da59061598a565b600080600061174b84612f03565b90925090506000826003811115611764576117646158d7565b146117d75760405162461bcd60e51b815260206004820152603760248201527f626f72726f7742616c616e636553746f7265643a20626f72726f7742616c616e60448201527f636553746f726564496e7465726e616c206661696c65640000000000000000006064820152608401610d88565b9392505050565b6000806117ea81611dd0565b60006117f4611848565b9050801561181857611713816011811115611811576118116158d7565b6033611e94565b61172484612fbc565b6702c68af0bb140000601261183d898989858a8a878b8b6110e4565b505050505050505050565b600c5460009043908114156118605760005b91505090565b600061186a612e44565b90506000600760009054906101000a90046001600160a01b03166001600160a01b03166315f2405383600e546118af600f546118aa60105460115461302f565b61302f565b6040516001600160e01b031960e086901b168152600481019390935260248301919091526044820152606401602060405180830381865afa1580156118f8573d6000803e3d6000fd5b505050506040513d601f19601f8201168201806040525081019061191c9190615aac565b905065048c273950008111156119745760405162461bcd60e51b815260206004820152601c60248201527f626f72726f772072617465206973206162737572646c792068696768000000006044820152606401610d88565b60008061198385600c54613065565b9092509050600082600381111561199c5761199c6158d7565b146119e95760405162461bcd60e51b815260206004820152601f60248201527f636f756c64206e6f742063616c63756c61746520626c6f636b2064656c7461006044820152606401610d88565b6119f585858584613090565b9550505050505090565b600080611a0b81611dd0565b6000611a15611848565b90508015611a3957611713816011811115611a3257611a326158d7565b6037611e94565b611724846131bc565b600080611a4e81611dd0565b6000611a5c333387876129e9565b149150611a68816122d8565b5092915050565b6000611a7c83348461329a565b5090506110de81604051806040016040528060168152602001751b1a5c5d5a59185d19509bdc9c9bddc819985a5b195960521b815250610ab6565b6007546000906001600160a01b031663b8168816611ad3612e44565b600e54611aea600f546118aa60105460115461302f565b600954600a54600b54611afd9190615903565b611b079190615903565b6040516001600160e01b031960e087901b16815260048101949094526024840192909252604483015260648201526084015b602060405180830381865afa158015611b56573d6000803e3d6000fd5b505050506040513d601f19601f8201168201806040525081019061155b9190615aac565b60006001611b8781611dd0565b611b933386868661338e565b9150611439816122d8565b600080611baa81611dd0565b6000611bb4611848565b14611bd15760405162461bcd60e51b8152600401610d88906159bf565b611bd9610f22565b9150611be4816122d8565b5090565b6001600160a01b038116600090815260136020526040812054819081908190818080611c1389612f03565b935090506000816003811115611c2b57611c2b6158d7565b14611c495760095b6000806000975097509750975050505050611c82565b611c51612354565b925090506000816003811115611c6957611c696158d7565b14611c75576009611c33565b5060009650919450925090505b9193509193565b6000610e908261388d565b6000610e90826138d1565b6000611cab8234613910565b509050611ced816040518060400160405280601881526020017f7265706179426f72726f77426568616c66206661696c65640000000000000000815250610ab6565b5050565b600080611cfc611848565b90508015611d20576117d7816011811115611d1957611d196158d7565b604b611e94565b6117d7836126e2565b6007546000906001600160a01b03166315f24053611d45612e44565b600e54611d5c600f546118aa60105460115461302f565b6040516001600160e01b031960e086901b168152600481019390935260248301919091526044820152606401611b39565b600080611d9981611dd0565b6000611da3611848565b90508015611dc757611713816011811115611dc057611dc06158d7565b6059611e94565b61172484612830565b600254600160b01b900460ff16611e165760405162461bcd60e51b815260206004820152600a6024820152691c994b595b9d195c995960b21b6044820152606401610d88565b80611e8457600660009054906101000a90046001600160a01b03166001600160a01b031663c90c20b16040518163ffffffff1660e01b8152600401600060405180830381600087803b158015611e6b57600080fd5b505af1158015611e7f573d6000803e3d6000fd5b505050505b506002805460ff60b01b19169055565b60007f45b96fe442630264581b197e84bbada861235052c5a1aadfff9ea4e40a969aa0836011811115611ec957611ec96158d7565b836063811115611edb57611edb6158d7565b60408051928352602083019190915260009082015260600160405180910390a18260118111156117d7576117d76158d7565b600654604051634ef4c3e160e01b8152600091829182916001600160a01b031690634ef4c3e190611f4690309089908990600401615ac5565b6020604051808303816000875af1158015611f65573d6000803e3d6000fd5b505050506040513d601f19601f82011682018060405250810190611f899190615aac565b90508015611faa57611f9e600360218361397a565b600092509250506122d1565b43600c5414611fbf57611f9e600a6024611e94565b6120006040805160e0810190915280600081526020016000815260200160008152602001600081526020016000815260200160008152602001600081525090565b612008612354565b6040830181905260208301826003811115612025576120256158d7565b6003811115612036576120366158d7565b9052506000905081602001516003811115612053576120536158d7565b146120875761207a6009602383602001516003811115612075576120756158d7565b61397a565b60009350935050506122d1565b6120918686613a1c565b60c08201819052604080516020810182529083015181526120b29190613aa8565b60608301819052602083018260038111156120cf576120cf6158d7565b60038111156120e0576120e06158d7565b90525060009050816020015160038111156120fd576120fd6158d7565b1461214a5760405162461bcd60e51b815260206004820181905260248201527f4d494e545f45584348414e47455f43414c43554c4154494f4e5f4641494c45446044820152606401610d88565b61215a601254826060015161302f565b60808201526001600160a01b0386166000908152601360205260409020546060820151612187919061302f565b60a0820181905260808201516012556001600160a01b0387166000818152601360209081526040918290209390935560c0840151606080860151835194855294840191909152908201929092527f4c209b5fc8ad50758f13e2e1088ba56a560dff690a1c6fef26394f4c03821c4f910160405180910390a1856001600160a01b0316306001600160a01b0316600080516020615b7d833981519152836060015160405161223691815260200190565b60405180910390a360065460c082015160608301516040516341c728b960e01b81523060048201526001600160a01b038a81166024830152604482019390935260648101919091529116906341c728b990608401600060405180830381600087803b1580156122a457600080fd5b505af11580156122b8573d6000803e3d6000fd5b50600092506122c5915050565b8160c001519350935050505b9250929050565b6002805460ff60b01b1916600160b01b17905580610ed157600660009054906101000a90046001600160a01b03166001600160a01b031663632e51426040518163ffffffff1660e01b8152600401600060405180830381600087803b15801561234057600080fd5b505af1158015610d91573d6000803e3d6000fd5b60125460009081908061236e575050600854600092909150565b6000612378612e44565b905060006123926040518060200160405280600081525090565b60006123b484600e546123af600f546118aa60105460115461302f565b613ab8565b9350905060008160038111156123cc576123cc6158d7565b146123de579660009650945050505050565b6123e88386613b0b565b925090506000816003811115612400576124006158d7565b14612412579660009650945050505050565b50516000969095509350505050565b600154600054604051630304735160e61b81526001600160a01b0391821660048201528582166024820152841515604482015291169063c11cd44090606401602060405180830381865afa15801561247d573d6000803e3d6000fd5b505050506040513d601f19601f820116820180604052508101906124a191906159ef565b6124d55760405162461bcd60e51b8152602060048201526005602482015264085a5b5c1b60da1b6044820152606401610d88565b600080546001600160a01b038581166001600160a01b031983161790925516303b6125085761250382611626565b61256a565b612568308360405160240161251d9190615410565b60408051601f19818403018152918152602080830180516001600160e01b0316630adccee560e31b17905281518083019092526007825266216265636f6d6560c81b90820152613bd6565b505b600054604080516001600160a01b03808516825290921660208301527fd604de94d45953f9138079ec1b82d533cb2160c906d1076d1f7ed54befbca97a910160405180910390a150505050565b600080600660009054906101000a90046001600160a01b03169050826001600160a01b0316627e3dd26040518163ffffffff1660e01b8152600401602060405180830381865afa15801561260f573d6000803e3d6000fd5b505050506040513d601f19601f8201168201806040525081019061263391906159ef565b61267f5760405162461bcd60e51b815260206004820152601c60248201527f6d61726b6572206d6574686f642072657475726e65642066616c7365000000006044820152606401610d88565b600680546001600160a01b0319166001600160a01b0385811691821790925560408051928416835260208301919091527f7ac369dbd14fa5ea3f473ed67cc9d598964a77501540ba6751eb0b3decf5870d91015b60405180910390a160006117d7565b6000806126ed612c87565b6126fd576117d76001604d611e94565b43600c5414612712576117d7600a604c611e94565b600760009054906101000a90046001600160a01b03169050826001600160a01b0316632191f92a6040518163ffffffff1660e01b8152600401602060405180830381865afa158015612768573d6000803e3d6000fd5b505050506040513d601f19601f8201168201806040525081019061278c91906159ef565b6127d85760405162461bcd60e51b815260206004820152601c60248201527f6d61726b6572206d6574686f642072657475726e65642066616c7365000000006044820152606401610d88565b600780546001600160a01b0319166001600160a01b0385811691821790925560408051928416835260208301919091527fedffc32e068c7c95dfd4bdfd5c4d939a084d6b11c4199eac8436ed234d72f92691016126d3565b600061283a612c87565b61284a57610e906001605a611e94565b43600c541461285f57610e90600a605b611e94565b670de0b6b3a764000061287f6128778460095461302f565b600a5461302f565b111561289157610e906002605c611e94565b600b80549083905560408051828152602081018590527faaa68312e2ea9d50e16af5068410ab56e1a1fd06037b1a35664812c30f82146091016126d3565b600043600c54146128e657610e90600a6054611e94565b6000198214156128f65760095491505b6000612900613c72565b9050670de0b6b3a764000061292061291a600b548661302f565b8361302f565b1115612932576117d760026055611e94565b826009541461299657612943612c87565b612953576117d760016053611e94565b600980549084905560408051828152602081018690527fcdd0b588250e1398549f79cfdb8217c186688822905d6715b0834ea1c865594a910160405180910390a1505b80600a54146129e257600a80549082905560408051828152602081018490527f92eef861b6533b7d3417f39c2ad7b460eed4e88a32fa3604f30e718b7602e7dc910160405180910390a1505b60006117d7565b6006546040516317b9b84b60e31b81523060048201526001600160a01b038581166024830152848116604483015260648201849052600092839291169063bdcdc258906084016020604051808303816000875af1158015612a4e573d6000803e3d6000fd5b505050506040513d601f19601f82011682018060405250810190612a729190615aac565b90508015612a8f57612a876003605d8361397a565b915050611549565b836001600160a01b0316856001600160a01b03161415612ab557612a876002605e611e94565b6000856001600160a01b0316876001600160a01b03161415612ada5750600019612b02565b506001600160a01b038086166000908152601460209081526040808320938a16835292905220545b600080600080612b128589613065565b90945092506000846003811115612b2b57612b2b6158d7565b14612b4957612b3c6009605e611e94565b9650505050505050611549565b6001600160a01b038a16600090815260136020526040902054612b6c9089613065565b90945091506000846003811115612b8557612b856158d7565b14612b9657612b3c6009605f611e94565b6001600160a01b038916600090815260136020526040902054612bb99089613cbc565b90945090506000846003811115612bd257612bd26158d7565b14612be357612b3c60096060611e94565b6001600160a01b03808b16600090815260136020526040808220859055918b168152208190556000198514612c3b576001600160a01b03808b166000908152601460209081526040808320938f168352929052208390555b886001600160a01b03168a6001600160a01b0316600080516020615b7d8339815191528a604051612c6e91815260200190565b60405180910390a35060009a9950505050505050505050565b600654604080516303e1469160e61b815290516000926001600160a01b031691829163f851a440916004808201926020929091908290030181865afa158015612cd4573d6000803e3d6000fd5b505050506040513d601f19601f82011682018060405250810190612cf89190615ae9565b6001600160a01b0316336001600160a01b0316148015612d755750806001600160a01b0316630a755ec26040518163ffffffff1660e01b8152600401602060405180830381865afa158015612d51573d6000803e3d6000fd5b505050506040513d601f19601f82011682018060405250810190612d7591906159ef565b8061185a57506001546001600160a01b03163314801561185a5750806001600160a01b0316632f1069ba6040518163ffffffff1660e01b8152600401602060405180830381865afa158015612dce573d6000803e3d6000fd5b505050506040513d601f19601f8201168201806040525081019061185a91906159ef565b600080600080612e028686613ce2565b90925090506000826003811115612e1b57612e1b6158d7565b14612e2c57509150600090506122d1565b6000612e3782613d5e565b9350935050509250929050565b6000806000612e534734613065565b90925090506000826003811115612e6c57612e6c6158d7565b14610e9057600080fd5b6000806000612e8481611dd0565b6000612e8e611848565b90508015612eb257610a8b816011811115612eab57612eab6158d7565b6041611e94565b610aa1333387613d76565b600080612ec981611dd0565b6000612ed3611848565b90508015612ef757611713816011811115612ef057612ef06158d7565b602a611e94565b6117243360008661418e565b6001600160a01b038116600090815260156020526040812080548291829182918291612f385750600096879650945050505050565b612f488160000154600d54614723565b90945092506000846003811115612f6157612f616158d7565b14612f7457509195600095509350505050565b612f82838260010154614762565b90945091506000846003811115612f9b57612f9b6158d7565b14612fae57509195600095509350505050565b506000969095509350505050565b60008043600c5414612fd4576117d7600a6035611e94565b82612fdd612e44565b1015612fef576117d7600e6034611e94565b601154831115613005576117d760026036611e94565b6130116011548461478d565b60118190556001549091506129e2906001600160a01b0316846147c7565b60006117d78383604051806040016040528060118152602001706164646974696f6e206f766572666c6f7760781b815250614861565b60008083831161308457600061307b8486615b06565b915091506122d1565b506003905060006122d1565b6000806130ab6040518060200160405280868152508461489b565b905060006130bb82600e546148cc565b905060006130cb82600e5461302f565b905060006130ec6040518060200160405280600b5481525084600f546148e4565b9050600061310d6040518060200160405280600a54815250856011546148e4565b9050600061312e6040518060200160405280600954815250866010546148e4565b9050600061314187600d54600d546148e4565b600c8d9055600d819055600e869055600f85905560118490556010839055604080518d815260208101899052908101829052606081018790529091507f4dec04e750ca11537cabcd8a9eab06494de08da3735bc8871cd41250e190bc049060800160405180910390a160009c9b505050505050505050505050565b60008043600c54146131d4576117d7600a6039611e94565b826131dd612e44565b10156131ef576117d7600e6038611e94565b601054831115613205576117d76002603a611e94565b6132116010548461478d565b9050806010819055506129e2600660009054906101000a90046001600160a01b03166001600160a01b031663f851a4406040518163ffffffff1660e01b8152600401602060405180830381865afa158015613270573d6000803e3d6000fd5b505050506040513d601f19601f820116820180604052508101906132949190615ae9565b846147c7565b60008060006132a881611dd0565b60006132b2611848565b905080156132e2576132d68160118111156132cf576132cf6158d7565b6011611e94565b6000935093505061337c565b846001600160a01b031663a6afed956040518163ffffffff1660e01b81526004016020604051808303816000875af1158015613322573d6000803e3d6000fd5b505050506040513d601f19601f820116820180604052508101906133469190615aac565b9050801561336a576132d6816011811115613363576133636158d7565b6012611e94565b61337633888888614905565b93509350505b613385816122d8565b50935093915050565b60065460405163d02f735160e01b81523060048201526001600160a01b0386811660248301528581166044830152848116606483015260848201849052600092839291169063d02f73519060a4016020604051808303816000875af11580156133fb573d6000803e3d6000fd5b505050506040513d601f19601f8201168201806040525081019061341f9190615aac565b9050801561343457612a876003601d8361397a565b846001600160a01b0316846001600160a01b0316141561345a57612a876006601e611e94565b6134bf604080516101808101909152806000815260200160008152602001600081526020016000815260200160008152602001600081526020016000815260200160008152602001600081526020016000815260200160008152602001600081525090565b6001600160a01b0385166000908152601360205260409020546134e29085613065565b60208301819052828260038111156134fc576134fc6158d7565b600381111561350d5761350d6158d7565b9052506000905081516003811115613527576135276158d7565b14613552576135496009601c83600001516003811115612075576120756158d7565b92505050611549565b613571846040518060200160405280666379da05b60000815250614dc6565b6080820152604080516020810190915267016345785d8a00008152613597908590614dc6565b61014082015260808101516135bc906135b190869061478d565b82610140015161478d565b60608201526135c9612354565b60c08301819052828260038111156135e3576135e36158d7565b60038111156135f4576135f46158d7565b905250600090508151600381111561360e5761360e6158d7565b1461365b5760405162461bcd60e51b815260206004820152601860248201527f65786368616e67652072617465206d617468206572726f7200000000000000006044820152606401610d88565b61367b60405180602001604052808360c0015181525082608001516148cc565b60a0820152604080516020810190915260c082015181526101408201516136a291906148cc565b610160820152600f5460a08201516136ba919061302f565b60e082015260125460808201516136d4916135b19161478d565b6101208201526011546101608201516136ed919061302f565b6101008201526001600160a01b038616600090815260136020526040902054606082015161371b9190613cbc565b6040830181905282826003811115613735576137356158d7565b6003811115613746576137466158d7565b9052506000905081516003811115613760576137606158d7565b14613782576135496009601b83600001516003811115612075576120756158d7565b60e0810151600f556101208101516012556101008101516011556020808201516001600160a01b0387811660008181526013855260408082209490945583860151928b1680825290849020929092556060850151925192835290929091600080516020615b7d833981519152910160405180910390a3306001600160a01b0316856001600160a01b0316600080516020615b7d833981519152836080015160405161382f91815260200190565b60405180910390a360a081015160e08201516040805130815260208101939093528201527fa91e67c5ea634cd43a12c5a482724b03de01e85ca68702a53d0c2f45cb7c1dc59060600160405180910390a16000979650505050505050565b60008061389981611dd0565b60006138a3611848565b905080156138c7576117138160118111156138c0576138c06158d7565b600a611e94565b6117243385614de9565b6000806138dd81611dd0565b60006138e7611848565b9050801561390457611713816011811115612ef057612ef06158d7565b6117243385600061418e565b600080600061391e81611dd0565b6000613928611848565b905080156139585761394c816011811115613945576139456158d7565b6040611e94565b60009350935050613969565b613963338787613d76565b93509350505b613972816122d8565b509250929050565b60007f45b96fe442630264581b197e84bbada861235052c5a1aadfff9ea4e40a969aa08460118111156139af576139af6158d7565b8460638111156139c1576139c16158d7565b604080519283526020830191909152810184905260600160405180910390a160038460118111156139f4576139f46158d7565b14613a1057836011811115613a0b57613a0b6158d7565b611549565b611549826103e8615903565b6000336001600160a01b03841614613a685760405162461bcd60e51b815260206004820152600f60248201526e0e6cadcc8cae440dad2e6dac2e8c6d608b1b6044820152606401610d88565b813414610f1c5760405162461bcd60e51b815260206004820152600e60248201526d0ecc2d8eaca40dad2e6dac2e8c6d60931b6044820152606401610d88565b600080600080612e02868661517d565b600080600080613ac88787613cbc565b90925090506000826003811115613ae157613ae16158d7565b14613af25750915060009050613b03565b613afc8186613065565b9350935050505b935093915050565b6000613b236040518060200160405280600081525090565b600080613b3886670de0b6b3a7640000614723565b90925090506000826003811115613b5157613b516158d7565b14613b70575060408051602081019091526000815290925090506122d1565b600080613b7d8388614762565b90925090506000826003811115613b9657613b966158d7565b14613bb957816040518060200160405280600081525095509550505050506122d1565b604080516020810190915290815260009890975095505050505050565b6060600080856001600160a01b031685604051613bf39190615b1d565b6000604051808303816000865af19150503d8060008114613c30576040519150601f19603f3d011682016040523d82523d6000602084013e613c35565b606091505b509150915081613c6957805115613c4f5780518082602001fd5b8360405162461bcd60e51b8152600401610d889190615410565b95945050505050565b6001546040805163dd86fea160e01b815290516000926001600160a01b03169163dd86fea19160048083019260209291908290030181865afa158015611b56573d6000803e3d6000fd5b600080838301848110613cd4576000925090506122d1565b6002600092509250506122d1565b6000613cfa6040518060200160405280600081525090565b600080613d0b866000015186614723565b90925090506000826003811115613d2457613d246158d7565b14613d43575060408051602081019091526000815290925090506122d1565b60408051602081019091529081526000969095509350505050565b8051600090610e9090670de0b6b3a764000090615962565b600654604051631200453160e11b81523060048201526001600160a01b03858116602483015284811660448301526064820184905260009283928392909116906324008a62906084016020604051808303816000875af1158015613dde573d6000803e3d6000fd5b505050506040513d601f19601f82011682018060405250810190613e029190615aac565b90508015613e2357613e17600360438361397a565b60009250925050613b03565b43600c5414613e3857613e17600a6044611e94565b613e816040805161010081019091528060008152602001600081526020016000815260200160008152602001600081526020016000815260200160008152602001600081525090565b6001600160a01b0386166000908152601560205260409020600101546060820152613eab86612f03565b6080830181905260208301826003811115613ec857613ec86158d7565b6003811115613ed957613ed96158d7565b9052506000905081602001516003811115613ef657613ef66158d7565b14613f2557613f186009604283602001516003811115612075576120756158d7565b6000935093505050613b03565b600019851415613f3e5760808101516040820152613f46565b604081018590525b613f54878260400151613a1c565b60e082018190526080820151613f6991613065565b60a0830181905260208301826003811115613f8657613f866158d7565b6003811115613f9757613f976158d7565b9052506000905081602001516003811115613fb457613fb46158d7565b146140275760405162461bcd60e51b815260206004820152603a60248201527f52455041595f424f52524f575f4e45575f4143434f554e545f424f52524f575f60448201527f42414c414e43455f43414c43554c4154494f4e5f4641494c45440000000000006064820152608401610d88565b614037600e548260e00151613065565b60c0830181905260208301826003811115614054576140546158d7565b6003811115614065576140656158d7565b9052506000905081602001516003811115614082576140826158d7565b146140e95760405162461bcd60e51b815260206004820152603160248201527f52455041595f424f52524f575f4e45575f544f54414c5f42414c414e43455f43604482015270105310d55310551253d397d19052531151607a1b6064820152608401610d88565b60a081810180516001600160a01b03898116600081815260156020908152604091829020948555600d5460019095019490945560c0870151600e81905560e088015195518251948f16855294840192909252820193909352606081019190915260808101919091527f1a2a22cb034d26d1854bdc6666a5b91fe25efbbb5dcad3b0355478d6f5c362a1910160405180910390a160e00151600097909650945050505050565b600082158061419b575081155b6142045760405162461bcd60e51b815260206004820152603460248201527f6f6e65206f662072656465656d546f6b656e73496e206f722072656465656d416044820152736d6f756e74496e206d757374206265207a65726f60601b6064820152608401610d88565b6142456040805160e0810190915280600081526020016000815260200160008152602001600081526020016000815260200160008152602001600081525090565b61424d612354565b604083018190526020830182600381111561426a5761426a6158d7565b600381111561427b5761427b6158d7565b9052506000905081602001516003811115614298576142986158d7565b146142c2576142ba6009602e83602001516003811115612075576120756158d7565b9150506117d7565b831561435b5760608101849052604080516020810182529082015181526142e99085612df2565b6080830181905260208301826003811115614306576143066158d7565b6003811115614317576143176158d7565b9052506000905081602001516003811115614334576143346158d7565b14614356576142ba6009602c83602001516003811115612075576120756158d7565b6143ec565b6143778360405180602001604052808460400151815250613aa8565b6060830181905260208301826003811115614394576143946158d7565b60038111156143a5576143a56158d7565b90525060009050816020015160038111156143c2576143c26158d7565b146143e4576142ba6009602d83602001516003811115612075576120756158d7565b608081018390525b600654606082015160405163eabe7d9160e01b81526000926001600160a01b03169163eabe7d91916144259130918b9190600401615ac5565b6020604051808303816000875af1158015614444573d6000803e3d6000fd5b505050506040513d601f19601f820116820180604052508101906144689190615aac565b905080156144865761447d6003602b8361397a565b925050506117d7565b43600c541461449b5761447d600a602f611e94565b6144ab6012548360600151613065565b60a08401819052602084018260038111156144c8576144c86158d7565b60038111156144d9576144d96158d7565b90525060009050826020015160038111156144f6576144f66158d7565b146145185761447d6009603184602001516003811115612075576120756158d7565b6001600160a01b03861660009081526013602052604090205460608301516145409190613065565b60c084018190526020840182600381111561455d5761455d6158d7565b600381111561456e5761456e6158d7565b905250600090508260200151600381111561458b5761458b6158d7565b146145ad5761447d6009603084602001516003811115612075576120756158d7565b81608001516145ba612e44565b10156145cc5761447d600e6032611e94565b60a082015160125560c08201516001600160a01b03871660009081526013602052604090205560808201516146029087906147c7565b306001600160a01b0316866001600160a01b0316600080516020615b7d833981519152846060015160405161463991815260200190565b60405180910390a36080820151606080840151604080516001600160a01b038b16815260208101949094528301527fe5b754fb1abb7f01b499791d0b820ae3b6af3424ac1c59768edb53f4ec31a929910160405180910390a1600654608083015160608401516040516351dff98960e01b81523060048201526001600160a01b038a81166024830152604482019390935260648101919091529116906351dff98990608401600060405180830381600087803b1580156146f857600080fd5b505af115801561470c573d6000803e3d6000fd5b5060009250614719915050565b9695505050505050565b60008083614736575060009050806122d1565b838302836147448683615962565b14614757576002600092509250506122d1565b6000925090506122d1565b6000808261477657506001905060006122d1565b60006147828486615962565b915091509250929050565b60006117d78383604051806040016040528060158152602001747375627472616374696f6e20756e646572666c6f7760581b8152506151f0565b6000826001600160a01b03168260405160006040518083038185875af1925050503d8060008114614814576040519150601f19603f3d011682016040523d82523d6000602084013e614819565b606091505b50509050806110de5760405162461bcd60e51b8152602060048201526014602482015273191bd51c985b9cd9995c93dd5d0819985a5b195960621b6044820152606401610d88565b60008061486e8486615903565b905082858210156148925760405162461bcd60e51b8152600401610d889190615410565b50949350505050565b60408051602081019091526000815260405180602001604052806148c385600001518561521f565b90529392505050565b6000806148d9848461489b565b905061154981613d5e565b6000806148f1858561489b565b9050613c696148ff82613d5e565b8461302f565b600654604051632fe3f38f60e11b81523060048201526001600160a01b03838116602483015286811660448301528581166064830152608482018590526000928392839290911690635fc7e71e9060a4016020604051808303816000875af1158015614975573d6000803e3d6000fd5b505050506040513d601f19601f820116820180604052508101906149999190615aac565b905080156149ba576149ae600360148361397a565b60009250925050614dbd565b43600c54146149cf576149ae600a6018611e94565b43846001600160a01b0316636c540baf6040518163ffffffff1660e01b8152600401602060405180830381865afa158015614a0e573d6000803e3d6000fd5b505050506040513d601f19601f82011682018060405250810190614a329190615aac565b14614a43576149ae600a6013611e94565b866001600160a01b0316866001600160a01b03161415614a69576149ae60066019611e94565b84614a7a576149ae60076017611e94565b600019851415614a90576149ae60076016611e94565b600080614a9e898989613d76565b90925090508115614ad357614ac5826011811115614abe57614abe6158d7565b601a611e94565b600094509450505050614dbd565b60065460405163c488847b60e01b815260009182916001600160a01b039091169063c488847b90614b0c9030908c908890600401615ac5565b6040805180830381865afa158015614b28573d6000803e3d6000fd5b505050506040513d601f19601f82011682018060405250810190614b4c9190615b39565b90925090508115614bbb5760405162461bcd60e51b815260206004820152603360248201527f4c49515549444154455f434f4d5054524f4c4c45525f43414c43554c4154455f604482015272105353d5539517d4d152569157d19052531151606a1b6064820152608401610d88565b6040516370a0823160e01b81526001600160a01b038b811660048301528291908a16906370a0823190602401602060405180830381865afa158015614c04573d6000803e3d6000fd5b505050506040513d601f19601f82011682018060405250810190614c289190615aac565b1015614c765760405162461bcd60e51b815260206004820152601860248201527f4c49515549444154455f5345495a455f544f4f5f4d55434800000000000000006044820152606401610d88565b60006001600160a01b038916301415614c9c57614c95308d8d8561338e565b9050614d12565b60405163b2a02ff160e01b81526001600160a01b038a169063b2a02ff190614ccc908f908f908790600401615ac5565b6020604051808303816000875af1158015614ceb573d6000803e3d6000fd5b505050506040513d601f19601f82011682018060405250810190614d0f9190615aac565b90505b8015614d575760405162461bcd60e51b81526020600482015260146024820152731d1bdad95b881cd95a5e9d5c994819985a5b195960621b6044820152606401610d88565b604080516001600160a01b038e811682528d811660208301528183018790528b1660608201526080810184905290517f298637f684da70674f26509b10f07ec2fbc77a335ab1e7d6215a4b2484d8bb529181900360a00190a16000975092955050505050505b94509492505050565b6000670de0b6b3a7640000614ddf84846000015161521f565b6117d79190615962565b60065460405163368f515360e21b815260009182916001600160a01b039091169063da3d454c90614e2290309088908890600401615ac5565b6020604051808303816000875af1158015614e41573d6000803e3d6000fd5b505050506040513d601f19601f82011682018060405250810190614e659190615aac565b90508015614e8257614e7a600360108361397a565b915050610e90565b43600c5414614e9757614e7a600a600c611e94565b6000614ea1612e44565b905083811015614ec057614eb7600e600b611e94565b92505050610e90565b614eec604080516080810190915280600081526020016000815260200160008152602001600081525090565b614ef586612f03565b6020830181905282826003811115614f0f57614f0f6158d7565b6003811115614f2057614f206158d7565b9052506000905081516003811115614f3a57614f3a6158d7565b14614f6557614f5b60098083600001516003811115612075576120756158d7565b9350505050610e90565b614f73816020015186613cbc565b6040830181905282826003811115614f8d57614f8d6158d7565b6003811115614f9e57614f9e6158d7565b9052506000905081516003811115614fb857614fb86158d7565b14614fda57614f5b6009600e83600001516003811115612075576120756158d7565b6006546040828101519051631de6c8a560e21b815230600482015260248101919091526001600160a01b039091169063779b2294906044016020604051808303816000875af1158015615031573d6000803e3d6000fd5b505050506040513d601f19601f820116820180604052508101906150559190615aac565b9250821561506a57614f5b600360108561397a565b615076600e5486613cbc565b6060830181905282826003811115615090576150906158d7565b60038111156150a1576150a16158d7565b90525060009050815160038111156150bb576150bb6158d7565b146150dd57614f5b6009600d83600001516003811115612075576120756158d7565b6040808201516001600160a01b0388166000908152601560205291909120908155600d546001909101556060810151600e5561511986866147c7565b60408082015160608084015183516001600160a01b038b168152602081018a9052938401929092528201527f13ed6866d4e1ee6da46f845c46d7e54120883d75c5ea9a2dacc1c4ca8984ab809060800160405180910390a160009695505050505050565b60006151956040518060200160405280600081525090565b6000806151aa670de0b6b3a764000087614723565b909250905060008260038111156151c3576151c36158d7565b146151e2575060408051602081019091526000815290925090506122d1565b612e37818660000151613b0b565b600081848411156152145760405162461bcd60e51b8152600401610d889190615410565b506115498385615b06565b60006117d783836040518060400160405280601781526020017f6d756c7469706c69636174696f6e206f766572666c6f770000000000000000008152506000831580615269575082155b15615276575060006117d7565b60006152828486615b5d565b90508361528f8683615962565b1483906148925760405162461bcd60e51b8152600401610d889190615410565b8280546152bb9061598a565b90600052602060002090601f0160209004810192826152dd5760008555615323565b82601f106152f657805160ff1916838001178555615323565b82800160010185558215615323579182015b82811115615323578251825591602001919060010190615308565b50611be49291506153a3565b82805461533b9061598a565b90600052602060002090601f01602090048101928261535d5760008555615323565b82601f106153765782800160ff19823516178555615323565b82800160010185558215615323579182015b82811115615323578235825591602001919060010190615388565b5b80821115611be457600081556001016153a4565b60005b838110156153d35781810151838201526020016153bb565b838111156116205750506000910152565b600081518084526153fc8160208601602086016153b8565b601f01601f19169290920160200192915050565b6020815260006117d760208301846153e4565b6001600160a01b0381168114610ed157600080fd5b6000806040838503121561544b57600080fd5b823561545681615423565b946020939093013593505050565b60006020828403121561547657600080fd5b81356117d781615423565b803561548c81615423565b919050565b634e487b7160e01b600052604160045260246000fd5b604051601f8201601f1916810167ffffffffffffffff811182821017156154d0576154d0615491565b604052919050565b600067ffffffffffffffff8211156154f2576154f2615491565b50601f01601f191660200190565b600061551361550e846154d8565b6154a7565b905082815283838301111561552757600080fd5b828260208301376000602084830101529392505050565b600082601f83011261554f57600080fd5b6117d783833560208501615500565b803560ff8116811461548c57600080fd5b60008060008060008060008060006101208a8c03121561558e57600080fd5b893561559981615423565b985060208a01356155a981615423565b97506155b760408b01615481565b965060608a0135955060808a013567ffffffffffffffff808211156155db57600080fd5b6155e78d838e0161553e565b965060a08c01359150808211156155fd57600080fd5b5061560a8c828d0161553e565b94505061561960c08b0161555e565b925060e08a013591506101008a013590509295985092959850929598565b60008060006060848603121561564c57600080fd5b833561565781615423565b9250602084013561566781615423565b929592945050506040919091013590565b60008083601f84011261568a57600080fd5b50813567ffffffffffffffff8111156156a257600080fd5b6020830191508360208285010111156122d157600080fd5b600080600080604085870312156156d057600080fd5b843567ffffffffffffffff808211156156e857600080fd5b6156f488838901615678565b9096509450602087013591508082111561570d57600080fd5b5061571a87828801615678565b95989497509550505050565b8015158114610ed157600080fd5b6000806000806060858703121561574a57600080fd5b843561575581615423565b9350602085013561576581615726565b9250604085013567ffffffffffffffff81111561578157600080fd5b61571a87828801615678565b60006020828403121561579f57600080fd5b813567ffffffffffffffff8111156157b657600080fd5b8201601f810184136157c757600080fd5b61154984823560208401615500565b6000602082840312156157e857600080fd5b5035919050565b600080600080600080600060e0888a03121561580a57600080fd5b873561581581615423565b9650602088013561582581615423565b9550604088013561583581615423565b9450606088013567ffffffffffffffff8082111561585257600080fd5b61585e8b838c0161553e565b955060808a013591508082111561587457600080fd5b506158818a828b0161553e565b93505060a0880135915060c0880135905092959891949750929550565b600080604083850312156158b157600080fd5b82356158bc81615423565b915060208301356158cc81615423565b809150509250929050565b634e487b7160e01b600052602160045260246000fd5b634e487b7160e01b600052601160045260246000fd5b60008219821115615916576159166158ed565b500190565b634e487b7160e01b600052603260045260246000fd5b6000600019821415615945576159456158ed565b5060010190565b634e487b7160e01b600052601260045260246000fd5b6000826159715761597161594c565b500490565b6000826159855761598561594c565b500690565b600181811c9082168061599e57607f821691505b60208210811415610f1c57634e487b7160e01b600052602260045260246000fd5b6020808252601690820152751858d8dc9d59481a5b9d195c995cdd0819985a5b195960521b604082015260600190565b600060208284031215615a0157600080fd5b81516117d781615726565b600080600060608486031215615a2157600080fd5b8351615a2c81615423565b6020850151909350615a3d81615726565b604085015190925067ffffffffffffffff811115615a5a57600080fd5b8401601f81018613615a6b57600080fd5b8051615a7961550e826154d8565b818152876020838501011115615a8e57600080fd5b615a9f8260208301602086016153b8565b8093505050509250925092565b600060208284031215615abe57600080fd5b5051919050565b6001600160a01b039384168152919092166020820152604081019190915260600190565b600060208284031215615afb57600080fd5b81516117d781615423565b600082821015615b1857615b186158ed565b500390565b60008251615b2f8184602087016153b8565b9190910192915050565b60008060408385031215615b4c57600080fd5b505080516020909101519092909150565b6000816000190483118215151615615b7757615b776158ed565b50029056feddf252ad1be2c89b69c2b068fc378daa952ba7f163c4a11628f55a4df523b3efa164736f6c634300080a000a",
    "linkReferences": {}
  },
  "methodIdentifiers": {
    "_becomeImplementation(bytes)": "56e67728",
    "_prepare()": "1db78944",
    "_setAdminFee(uint256)": "91dd36c6",
    "_setImplementationSafe(address,bool,bytes)": "50d85b73",
    "_setInterestRateModel(address)": "f2b3abbd",
    "_setNameAndSymbol(string,string)": "34154d4c",
    "_setReserveFactor(uint256)": "fca7820b",
    "_withdrawAdminFees(uint256)": "a7b820df",
    "_withdrawFuseFees(uint256)": "a03dce8d",
    "accrualBlockNumber()": "6c540baf",
    "accrueInterest()": "a6afed95",
    "adminFeeMantissa()": "8d02d9a1",
    "allowance(address,address)": "dd62ed3e",
    "approve(address,uint256)": "095ea7b3",
    "balanceOf(address)": "70a08231",
    "balanceOfUnderlying(address)": "3af9e669",
    "borrow(uint256)": "c5ebeaec",
    "borrowBalanceCurrent(address)": "17bfdfbc",
    "borrowBalanceStored(address)": "95dd9193",
    "borrowIndex()": "aa5af0fd",
    "borrowRatePerBlock()": "f8f9da28",
    "comptroller()": "5fe3b567",
    "decimals()": "313ce567",
    "exchangeRateCurrent()": "bd6d894d",
    "exchangeRateStored()": "182df0f5",
    "feeSeizeShareMantissa()": "be99f119",
    "fuseAdmin()": "15761d51",
    "fuseFeeMantissa()": "dbfe7c19",
    "getAccountSnapshot(address)": "c37f68e2",
    "getCash()": "3b1d21a2",
    "implementation()": "5c60da1b",
    "initialize(address,address,address,string,string,uint256,uint256)": "a0b0d289",
    "initialize(address,address,address,uint256,string,string,uint8,uint256,uint256)": "219ef65c",
    "interestRateModel()": "f3fdb15a",
    "isCEther()": "ac784ddc",
    "isCToken()": "fe9c44ae",
    "liquidateBorrow(address,address)": "aae40a2a",
    "mint()": "1249c58b",
    "name()": "06fdde03",
    "protocolSeizeShareMantissa()": "6752e702",
    "redeem(uint256)": "db006a75",
    "redeemUnderlying(uint256)": "852a12e3",
    "repayBorrow()": "4e4d9fea",
    "repayBorrowBehalf(address)": "e5974619",
    "reserveFactorMantissa()": "173b9904",
    "seize(address,address,uint256)": "b2a02ff1",
    "supplyRatePerBlock()": "ae9d70b0",
    "symbol()": "95d89b41",
    "totalAdminFees()": "61feacff",
    "totalBorrows()": "47bd3718",
    "totalBorrowsCurrent()": "73acee98",
    "totalFuseFees()": "dc028ab1",
    "totalReserves()": "8f840ddd",
    "totalSupply()": "18160ddd",
    "transfer(address,uint256)": "a9059cbb",
    "transferFrom(address,address,uint256)": "23b872dd",
    "underlying()": "6f307dc3"
  }
}