{
  "address": "0x6f60d39c319bB55E4418285C5252dF1F53CbdF90",
  "abi": [
    {
      "inputs": [],
      "stateMutability": "nonpayable",
      "type": "constructor"
    },
    {
      "anonymous": false,
      "inputs": [
        {
          "indexed": false,
          "internalType": "uint256",
          "name": "cashPrior",
          "type": "uint256"
        },
        {
          "indexed": false,
          "internalType": "uint256",
          "name": "interestAccumulated",
          "type": "uint256"
        },
        {
          "indexed": false,
          "internalType": "uint256",
          "name": "borrowIndex",
          "type": "uint256"
        },
        {
          "indexed": false,
          "internalType": "uint256",
          "name": "totalBorrows",
          "type": "uint256"
        }
      ],
      "name": "AccrueInterest",
      "type": "event"
    },
    {
      "anonymous": false,
      "inputs": [
        {
          "indexed": true,
          "internalType": "address",
          "name": "owner",
          "type": "address"
        },
        {
          "indexed": true,
          "internalType": "address",
          "name": "spender",
          "type": "address"
        },
        {
          "indexed": false,
          "internalType": "uint256",
          "name": "amount",
          "type": "uint256"
        }
      ],
      "name": "Approval",
      "type": "event"
    },
    {
      "anonymous": false,
      "inputs": [
        {
          "indexed": false,
          "internalType": "address",
          "name": "borrower",
          "type": "address"
        },
        {
          "indexed": false,
          "internalType": "uint256",
          "name": "borrowAmount",
          "type": "uint256"
        },
        {
          "indexed": false,
          "internalType": "uint256",
          "name": "accountBorrows",
          "type": "uint256"
        },
        {
          "indexed": false,
          "internalType": "uint256",
          "name": "totalBorrows",
          "type": "uint256"
        }
      ],
      "name": "Borrow",
      "type": "event"
    },
    {
      "anonymous": false,
      "inputs": [
        {
          "indexed": false,
          "internalType": "uint256",
          "name": "error",
          "type": "uint256"
        },
        {
          "indexed": false,
          "internalType": "uint256",
          "name": "info",
          "type": "uint256"
        },
        {
          "indexed": false,
          "internalType": "uint256",
          "name": "detail",
          "type": "uint256"
        }
      ],
      "name": "Failure",
      "type": "event"
    },
    {
      "anonymous": false,
      "inputs": [
        {
          "indexed": false,
          "internalType": "address",
          "name": "liquidator",
          "type": "address"
        },
        {
          "indexed": false,
          "internalType": "address",
          "name": "borrower",
          "type": "address"
        },
        {
          "indexed": false,
          "internalType": "uint256",
          "name": "repayAmount",
          "type": "uint256"
        },
        {
          "indexed": false,
          "internalType": "address",
          "name": "cTokenCollateral",
          "type": "address"
        },
        {
          "indexed": false,
          "internalType": "uint256",
          "name": "seizeTokens",
          "type": "uint256"
        }
      ],
      "name": "LiquidateBorrow",
      "type": "event"
    },
    {
      "anonymous": false,
      "inputs": [
        {
          "indexed": false,
          "internalType": "address",
          "name": "minter",
          "type": "address"
        },
        {
          "indexed": false,
          "internalType": "uint256",
          "name": "mintAmount",
          "type": "uint256"
        },
        {
          "indexed": false,
          "internalType": "uint256",
          "name": "mintTokens",
          "type": "uint256"
        }
      ],
      "name": "Mint",
      "type": "event"
    },
    {
      "anonymous": false,
      "inputs": [
        {
          "indexed": false,
          "internalType": "uint256",
          "name": "oldAdminFeeMantissa",
          "type": "uint256"
        },
        {
          "indexed": false,
          "internalType": "uint256",
          "name": "newAdminFeeMantissa",
          "type": "uint256"
        }
      ],
      "name": "NewAdminFee",
      "type": "event"
    },
    {
      "anonymous": false,
      "inputs": [
        {
          "indexed": false,
          "internalType": "contract ComptrollerInterface",
          "name": "oldComptroller",
          "type": "address"
        },
        {
          "indexed": false,
          "internalType": "contract ComptrollerInterface",
          "name": "newComptroller",
          "type": "address"
        }
      ],
      "name": "NewComptroller",
      "type": "event"
    },
    {
      "anonymous": false,
      "inputs": [
        {
          "indexed": false,
          "internalType": "uint256",
          "name": "oldFuseFeeMantissa",
          "type": "uint256"
        },
        {
          "indexed": false,
          "internalType": "uint256",
          "name": "newFuseFeeMantissa",
          "type": "uint256"
        }
      ],
      "name": "NewFuseFee",
      "type": "event"
    },
    {
      "anonymous": false,
      "inputs": [
        {
          "indexed": false,
          "internalType": "address",
          "name": "oldImplementation",
          "type": "address"
        },
        {
          "indexed": false,
          "internalType": "address",
          "name": "newImplementation",
          "type": "address"
        }
      ],
      "name": "NewImplementation",
      "type": "event"
    },
    {
      "anonymous": false,
      "inputs": [
        {
          "indexed": false,
          "internalType": "contract InterestRateModel",
          "name": "oldInterestRateModel",
          "type": "address"
        },
        {
          "indexed": false,
          "internalType": "contract InterestRateModel",
          "name": "newInterestRateModel",
          "type": "address"
        }
      ],
      "name": "NewMarketInterestRateModel",
      "type": "event"
    },
    {
      "anonymous": false,
      "inputs": [
        {
          "indexed": false,
          "internalType": "uint256",
          "name": "oldReserveFactorMantissa",
          "type": "uint256"
        },
        {
          "indexed": false,
          "internalType": "uint256",
          "name": "newReserveFactorMantissa",
          "type": "uint256"
        }
      ],
      "name": "NewReserveFactor",
      "type": "event"
    },
    {
      "anonymous": false,
      "inputs": [
        {
          "indexed": false,
          "internalType": "address",
          "name": "redeemer",
          "type": "address"
        },
        {
          "indexed": false,
          "internalType": "uint256",
          "name": "redeemAmount",
          "type": "uint256"
        },
        {
          "indexed": false,
          "internalType": "uint256",
          "name": "redeemTokens",
          "type": "uint256"
        }
      ],
      "name": "Redeem",
      "type": "event"
    },
    {
      "anonymous": false,
      "inputs": [
        {
          "indexed": false,
          "internalType": "address",
          "name": "payer",
          "type": "address"
        },
        {
          "indexed": false,
          "internalType": "address",
          "name": "borrower",
          "type": "address"
        },
        {
          "indexed": false,
          "internalType": "uint256",
          "name": "repayAmount",
          "type": "uint256"
        },
        {
          "indexed": false,
          "internalType": "uint256",
          "name": "accountBorrows",
          "type": "uint256"
        },
        {
          "indexed": false,
          "internalType": "uint256",
          "name": "totalBorrows",
          "type": "uint256"
        }
      ],
      "name": "RepayBorrow",
      "type": "event"
    },
    {
      "anonymous": false,
      "inputs": [
        {
          "indexed": false,
          "internalType": "address",
          "name": "benefactor",
          "type": "address"
        },
        {
          "indexed": false,
          "internalType": "uint256",
          "name": "addAmount",
          "type": "uint256"
        },
        {
          "indexed": false,
          "internalType": "uint256",
          "name": "newTotalReserves",
          "type": "uint256"
        }
      ],
      "name": "ReservesAdded",
      "type": "event"
    },
    {
      "anonymous": false,
      "inputs": [
        {
          "indexed": false,
          "internalType": "address",
          "name": "admin",
          "type": "address"
        },
        {
          "indexed": false,
          "internalType": "uint256",
          "name": "reduceAmount",
          "type": "uint256"
        },
        {
          "indexed": false,
          "internalType": "uint256",
          "name": "newTotalReserves",
          "type": "uint256"
        }
      ],
      "name": "ReservesReduced",
      "type": "event"
    },
    {
      "anonymous": false,
      "inputs": [
        {
          "indexed": true,
          "internalType": "address",
          "name": "from",
          "type": "address"
        },
        {
          "indexed": true,
          "internalType": "address",
          "name": "to",
          "type": "address"
        },
        {
          "indexed": false,
          "internalType": "uint256",
          "name": "amount",
          "type": "uint256"
        }
      ],
      "name": "Transfer",
      "type": "event"
    },
    {
      "inputs": [
        {
          "internalType": "bytes",
          "name": "data",
          "type": "bytes"
        }
      ],
      "name": "_becomeImplementation",
      "outputs": [],
      "stateMutability": "nonpayable",
      "type": "function"
    },
    {
      "inputs": [],
      "name": "_prepare",
      "outputs": [],
      "stateMutability": "payable",
      "type": "function"
    },
    {
      "inputs": [
        {
          "internalType": "uint256",
          "name": "newAdminFeeMantissa",
          "type": "uint256"
        }
      ],
      "name": "_setAdminFee",
      "outputs": [
        {
          "internalType": "uint256",
          "name": "",
          "type": "uint256"
        }
      ],
      "stateMutability": "nonpayable",
      "type": "function"
    },
    {
      "inputs": [
        {
          "internalType": "address",
          "name": "implementation_",
          "type": "address"
        },
        {
          "internalType": "bool",
          "name": "allowResign",
          "type": "bool"
        },
        {
          "internalType": "bytes",
          "name": "becomeImplementationData",
          "type": "bytes"
        }
      ],
      "name": "_setImplementationSafe",
      "outputs": [],
      "stateMutability": "nonpayable",
      "type": "function"
    },
    {
      "inputs": [
        {
          "internalType": "contract InterestRateModel",
          "name": "newInterestRateModel",
          "type": "address"
        }
      ],
      "name": "_setInterestRateModel",
      "outputs": [
        {
          "internalType": "uint256",
          "name": "",
          "type": "uint256"
        }
      ],
      "stateMutability": "nonpayable",
      "type": "function"
    },
    {
      "inputs": [
        {
          "internalType": "string",
          "name": "_name",
          "type": "string"
        },
        {
          "internalType": "string",
          "name": "_symbol",
          "type": "string"
        }
      ],
      "name": "_setNameAndSymbol",
      "outputs": [],
      "stateMutability": "nonpayable",
      "type": "function"
    },
    {
      "inputs": [
        {
          "internalType": "uint256",
          "name": "newReserveFactorMantissa",
          "type": "uint256"
        }
      ],
      "name": "_setReserveFactor",
      "outputs": [
        {
          "internalType": "uint256",
          "name": "",
          "type": "uint256"
        }
      ],
      "stateMutability": "nonpayable",
      "type": "function"
    },
    {
      "inputs": [
        {
          "internalType": "uint256",
          "name": "withdrawAmount",
          "type": "uint256"
        }
      ],
      "name": "_withdrawAdminFees",
      "outputs": [
        {
          "internalType": "uint256",
          "name": "",
          "type": "uint256"
        }
      ],
      "stateMutability": "nonpayable",
      "type": "function"
    },
    {
      "inputs": [
        {
          "internalType": "uint256",
          "name": "withdrawAmount",
          "type": "uint256"
        }
      ],
      "name": "_withdrawFuseFees",
      "outputs": [
        {
          "internalType": "uint256",
          "name": "",
          "type": "uint256"
        }
      ],
      "stateMutability": "nonpayable",
      "type": "function"
    },
    {
      "inputs": [],
      "name": "accrualBlockNumber",
      "outputs": [
        {
          "internalType": "uint256",
          "name": "",
          "type": "uint256"
        }
      ],
      "stateMutability": "view",
      "type": "function"
    },
    {
      "inputs": [],
      "name": "accrueInterest",
      "outputs": [
        {
          "internalType": "uint256",
          "name": "",
          "type": "uint256"
        }
      ],
      "stateMutability": "nonpayable",
      "type": "function"
    },
    {
      "inputs": [],
      "name": "adminFeeMantissa",
      "outputs": [
        {
          "internalType": "uint256",
          "name": "",
          "type": "uint256"
        }
      ],
      "stateMutability": "view",
      "type": "function"
    },
    {
      "inputs": [
        {
          "internalType": "address",
          "name": "owner",
          "type": "address"
        },
        {
          "internalType": "address",
          "name": "spender",
          "type": "address"
        }
      ],
      "name": "allowance",
      "outputs": [
        {
          "internalType": "uint256",
          "name": "",
          "type": "uint256"
        }
      ],
      "stateMutability": "view",
      "type": "function"
    },
    {
      "inputs": [
        {
          "internalType": "address",
          "name": "spender",
          "type": "address"
        },
        {
          "internalType": "uint256",
          "name": "amount",
          "type": "uint256"
        }
      ],
      "name": "approve",
      "outputs": [
        {
          "internalType": "bool",
          "name": "",
          "type": "bool"
        }
      ],
      "stateMutability": "nonpayable",
      "type": "function"
    },
    {
      "inputs": [
        {
          "internalType": "address",
          "name": "owner",
          "type": "address"
        }
      ],
      "name": "balanceOf",
      "outputs": [
        {
          "internalType": "uint256",
          "name": "",
          "type": "uint256"
        }
      ],
      "stateMutability": "view",
      "type": "function"
    },
    {
      "inputs": [
        {
          "internalType": "address",
          "name": "owner",
          "type": "address"
        }
      ],
      "name": "balanceOfUnderlying",
      "outputs": [
        {
          "internalType": "uint256",
          "name": "",
          "type": "uint256"
        }
      ],
      "stateMutability": "nonpayable",
      "type": "function"
    },
    {
      "inputs": [
        {
          "internalType": "uint256",
          "name": "borrowAmount",
          "type": "uint256"
        }
      ],
      "name": "borrow",
      "outputs": [
        {
          "internalType": "uint256",
          "name": "",
          "type": "uint256"
        }
      ],
      "stateMutability": "nonpayable",
      "type": "function"
    },
    {
      "inputs": [
        {
          "internalType": "address",
          "name": "account",
          "type": "address"
        }
      ],
      "name": "borrowBalanceCurrent",
      "outputs": [
        {
          "internalType": "uint256",
          "name": "",
          "type": "uint256"
        }
      ],
      "stateMutability": "nonpayable",
      "type": "function"
    },
    {
      "inputs": [
        {
          "internalType": "address",
          "name": "account",
          "type": "address"
        }
      ],
      "name": "borrowBalanceStored",
      "outputs": [
        {
          "internalType": "uint256",
          "name": "",
          "type": "uint256"
        }
      ],
      "stateMutability": "view",
      "type": "function"
    },
    {
      "inputs": [],
      "name": "borrowIndex",
      "outputs": [
        {
          "internalType": "uint256",
          "name": "",
          "type": "uint256"
        }
      ],
      "stateMutability": "view",
      "type": "function"
    },
    {
      "inputs": [],
      "name": "borrowRatePerBlock",
      "outputs": [
        {
          "internalType": "uint256",
          "name": "",
          "type": "uint256"
        }
      ],
      "stateMutability": "view",
      "type": "function"
    },
    {
      "inputs": [],
      "name": "comptroller",
      "outputs": [
        {
          "internalType": "contract ComptrollerInterface",
          "name": "",
          "type": "address"
        }
      ],
      "stateMutability": "view",
      "type": "function"
    },
    {
      "inputs": [],
      "name": "decimals",
      "outputs": [
        {
          "internalType": "uint8",
          "name": "",
          "type": "uint8"
        }
      ],
      "stateMutability": "view",
      "type": "function"
    },
    {
      "inputs": [],
      "name": "exchangeRateCurrent",
      "outputs": [
        {
          "internalType": "uint256",
          "name": "",
          "type": "uint256"
        }
      ],
      "stateMutability": "nonpayable",
      "type": "function"
    },
    {
      "inputs": [],
      "name": "exchangeRateStored",
      "outputs": [
        {
          "internalType": "uint256",
          "name": "",
          "type": "uint256"
        }
      ],
      "stateMutability": "view",
      "type": "function"
    },
    {
      "inputs": [],
      "name": "feeSeizeShareMantissa",
      "outputs": [
        {
          "internalType": "uint256",
          "name": "",
          "type": "uint256"
        }
      ],
      "stateMutability": "view",
      "type": "function"
    },
    {
      "inputs": [],
      "name": "fuseAdmin",
      "outputs": [
        {
          "internalType": "address payable",
          "name": "",
          "type": "address"
        }
      ],
      "stateMutability": "view",
      "type": "function"
    },
    {
      "inputs": [],
      "name": "fuseFeeMantissa",
      "outputs": [
        {
          "internalType": "uint256",
          "name": "",
          "type": "uint256"
        }
      ],
      "stateMutability": "view",
      "type": "function"
    },
    {
      "inputs": [
        {
          "internalType": "address",
          "name": "account",
          "type": "address"
        }
      ],
      "name": "getAccountSnapshot",
      "outputs": [
        {
          "internalType": "uint256",
          "name": "",
          "type": "uint256"
        },
        {
          "internalType": "uint256",
          "name": "",
          "type": "uint256"
        },
        {
          "internalType": "uint256",
          "name": "",
          "type": "uint256"
        },
        {
          "internalType": "uint256",
          "name": "",
          "type": "uint256"
        }
      ],
      "stateMutability": "view",
      "type": "function"
    },
    {
      "inputs": [],
      "name": "getCash",
      "outputs": [
        {
          "internalType": "uint256",
          "name": "",
          "type": "uint256"
        }
      ],
      "stateMutability": "view",
      "type": "function"
    },
    {
      "inputs": [],
      "name": "implementation",
      "outputs": [
        {
          "internalType": "address",
          "name": "",
          "type": "address"
        }
      ],
      "stateMutability": "view",
      "type": "function"
    },
    {
      "inputs": [
        {
          "internalType": "contract ComptrollerInterface",
          "name": "comptroller_",
          "type": "address"
        },
        {
          "internalType": "address payable",
          "name": "fuseAdmin_",
          "type": "address"
        },
        {
          "internalType": "contract InterestRateModel",
          "name": "interestRateModel_",
          "type": "address"
        },
        {
          "internalType": "uint256",
          "name": "initialExchangeRateMantissa_",
          "type": "uint256"
        },
        {
          "internalType": "string",
          "name": "name_",
          "type": "string"
        },
        {
          "internalType": "string",
          "name": "symbol_",
          "type": "string"
        },
        {
          "internalType": "uint8",
          "name": "decimals_",
          "type": "uint8"
        },
        {
          "internalType": "uint256",
          "name": "reserveFactorMantissa_",
          "type": "uint256"
        },
        {
          "internalType": "uint256",
          "name": "adminFeeMantissa_",
          "type": "uint256"
        }
      ],
      "name": "initialize",
      "outputs": [],
      "stateMutability": "nonpayable",
      "type": "function"
    },
    {
      "inputs": [
        {
          "internalType": "contract ComptrollerInterface",
          "name": "comptroller_",
          "type": "address"
        },
        {
          "internalType": "address payable",
          "name": "fuseAdmin_",
          "type": "address"
        },
        {
          "internalType": "contract InterestRateModel",
          "name": "interestRateModel_",
          "type": "address"
        },
        {
          "internalType": "string",
          "name": "name_",
          "type": "string"
        },
        {
          "internalType": "string",
          "name": "symbol_",
          "type": "string"
        },
        {
          "internalType": "uint256",
          "name": "reserveFactorMantissa_",
          "type": "uint256"
        },
        {
          "internalType": "uint256",
          "name": "adminFeeMantissa_",
          "type": "uint256"
        }
      ],
      "name": "initialize",
      "outputs": [],
      "stateMutability": "nonpayable",
      "type": "function"
    },
    {
      "inputs": [],
      "name": "interestRateModel",
      "outputs": [
        {
          "internalType": "contract InterestRateModel",
          "name": "",
          "type": "address"
        }
      ],
      "stateMutability": "view",
      "type": "function"
    },
    {
      "inputs": [],
      "name": "isCEther",
      "outputs": [
        {
          "internalType": "bool",
          "name": "",
          "type": "bool"
        }
      ],
      "stateMutability": "view",
      "type": "function"
    },
    {
      "inputs": [],
      "name": "isCToken",
      "outputs": [
        {
          "internalType": "bool",
          "name": "",
          "type": "bool"
        }
      ],
      "stateMutability": "nonpayable",
      "type": "function"
    },
    {
      "inputs": [
        {
          "internalType": "address",
          "name": "borrower",
          "type": "address"
        },
        {
          "internalType": "contract CToken",
          "name": "cTokenCollateral",
          "type": "address"
        }
      ],
      "name": "liquidateBorrow",
      "outputs": [],
      "stateMutability": "payable",
      "type": "function"
    },
    {
      "inputs": [],
      "name": "mint",
      "outputs": [],
      "stateMutability": "payable",
      "type": "function"
    },
    {
      "inputs": [],
      "name": "name",
      "outputs": [
        {
          "internalType": "string",
          "name": "",
          "type": "string"
        }
      ],
      "stateMutability": "view",
      "type": "function"
    },
    {
      "inputs": [],
      "name": "protocolSeizeShareMantissa",
      "outputs": [
        {
          "internalType": "uint256",
          "name": "",
          "type": "uint256"
        }
      ],
      "stateMutability": "view",
      "type": "function"
    },
    {
      "inputs": [
        {
          "internalType": "uint256",
          "name": "redeemTokens",
          "type": "uint256"
        }
      ],
      "name": "redeem",
      "outputs": [
        {
          "internalType": "uint256",
          "name": "",
          "type": "uint256"
        }
      ],
      "stateMutability": "nonpayable",
      "type": "function"
    },
    {
      "inputs": [
        {
          "internalType": "uint256",
          "name": "redeemAmount",
          "type": "uint256"
        }
      ],
      "name": "redeemUnderlying",
      "outputs": [
        {
          "internalType": "uint256",
          "name": "",
          "type": "uint256"
        }
      ],
      "stateMutability": "nonpayable",
      "type": "function"
    },
    {
      "inputs": [],
      "name": "repayBorrow",
      "outputs": [],
      "stateMutability": "payable",
      "type": "function"
    },
    {
      "inputs": [
        {
          "internalType": "address",
          "name": "borrower",
          "type": "address"
        }
      ],
      "name": "repayBorrowBehalf",
      "outputs": [],
      "stateMutability": "payable",
      "type": "function"
    },
    {
      "inputs": [],
      "name": "reserveFactorMantissa",
      "outputs": [
        {
          "internalType": "uint256",
          "name": "",
          "type": "uint256"
        }
      ],
      "stateMutability": "view",
      "type": "function"
    },
    {
      "inputs": [
        {
          "internalType": "address",
          "name": "liquidator",
          "type": "address"
        },
        {
          "internalType": "address",
          "name": "borrower",
          "type": "address"
        },
        {
          "internalType": "uint256",
          "name": "seizeTokens",
          "type": "uint256"
        }
      ],
      "name": "seize",
      "outputs": [
        {
          "internalType": "uint256",
          "name": "",
          "type": "uint256"
        }
      ],
      "stateMutability": "nonpayable",
      "type": "function"
    },
    {
      "inputs": [],
      "name": "supplyRatePerBlock",
      "outputs": [
        {
          "internalType": "uint256",
          "name": "",
          "type": "uint256"
        }
      ],
      "stateMutability": "view",
      "type": "function"
    },
    {
      "inputs": [],
      "name": "symbol",
      "outputs": [
        {
          "internalType": "string",
          "name": "",
          "type": "string"
        }
      ],
      "stateMutability": "view",
      "type": "function"
    },
    {
      "inputs": [],
      "name": "totalAdminFees",
      "outputs": [
        {
          "internalType": "uint256",
          "name": "",
          "type": "uint256"
        }
      ],
      "stateMutability": "view",
      "type": "function"
    },
    {
      "inputs": [],
      "name": "totalBorrows",
      "outputs": [
        {
          "internalType": "uint256",
          "name": "",
          "type": "uint256"
        }
      ],
      "stateMutability": "view",
      "type": "function"
    },
    {
      "inputs": [],
      "name": "totalBorrowsCurrent",
      "outputs": [
        {
          "internalType": "uint256",
          "name": "",
          "type": "uint256"
        }
      ],
      "stateMutability": "nonpayable",
      "type": "function"
    },
    {
      "inputs": [],
      "name": "totalFuseFees",
      "outputs": [
        {
          "internalType": "uint256",
          "name": "",
          "type": "uint256"
        }
      ],
      "stateMutability": "view",
      "type": "function"
    },
    {
      "inputs": [],
      "name": "totalReserves",
      "outputs": [
        {
          "internalType": "uint256",
          "name": "",
          "type": "uint256"
        }
      ],
      "stateMutability": "view",
      "type": "function"
    },
    {
      "inputs": [],
      "name": "totalSupply",
      "outputs": [
        {
          "internalType": "uint256",
          "name": "",
          "type": "uint256"
        }
      ],
      "stateMutability": "view",
      "type": "function"
    },
    {
      "inputs": [
        {
          "internalType": "address",
          "name": "dst",
          "type": "address"
        },
        {
          "internalType": "uint256",
          "name": "amount",
          "type": "uint256"
        }
      ],
      "name": "transfer",
      "outputs": [
        {
          "internalType": "bool",
          "name": "",
          "type": "bool"
        }
      ],
      "stateMutability": "nonpayable",
      "type": "function"
    },
    {
      "inputs": [
        {
          "internalType": "address",
          "name": "src",
          "type": "address"
        },
        {
          "internalType": "address",
          "name": "dst",
          "type": "address"
        },
        {
          "internalType": "uint256",
          "name": "amount",
          "type": "uint256"
        }
      ],
      "name": "transferFrom",
      "outputs": [
        {
          "internalType": "bool",
          "name": "",
          "type": "bool"
        }
      ],
      "stateMutability": "nonpayable",
      "type": "function"
    },
    {
      "inputs": [],
      "name": "underlying",
      "outputs": [
        {
          "internalType": "address",
          "name": "",
          "type": "address"
        }
      ],
      "stateMutability": "view",
      "type": "function"
    },
    {
      "stateMutability": "payable",
      "type": "receive"
    }
  ],
  "transactionHash": "0x1314a2d54281d35f48ae41dc866aa73c4c383800bfd4de7a3510a8ee419639af",
  "args": [],
  "numDeployments": 3,
  "bytecode": {
    "object": "0x608060405234801561001057600080fd5b50615be780620000216000396000f3fe60806040526004361061037a5760003560e01c80638d02d9a1116101d1578063b2a02ff111610102578063dc028ab1116100a0578063f3fdb15a1161006f578063f3fdb15a146109e6578063f8f9da2814610a06578063fca7820b14610a1b578063fe9c44ae14610a3b57600080fd5b8063dc028ab114610957578063dd62ed3e1461096d578063e5974619146109b3578063f2b3abbd146109c657600080fd5b8063c37f68e2116100dc578063c37f68e2146108c1578063c5ebeaec14610901578063db006a7514610921578063dbfe7c191461094157600080fd5b8063b2a02ff114610870578063bd6d894d14610890578063be99f119146108a557600080fd5b8063a6afed951161016f578063aa5af0fd11610149578063aa5af0fd1461081d578063aae40a2a14610833578063ac784ddc14610846578063ae9d70b01461085b57600080fd5b8063a6afed95146107c8578063a7b820df146107dd578063a9059cbb146107fd57600080fd5b806395d89b41116101ab57806395d89b411461075357806395dd919314610768578063a03dce8d14610788578063a0b0d289146107a857600080fd5b80638d02d9a1146107075780638f840ddd1461071d57806391dd36c61461073357600080fd5b80633b1d21a2116102ab57806361feacff116102495780636f307dc3116102235780636f307dc31461067c57806370a082311461069c57806373acee98146106d2578063852a12e3146106e757600080fd5b806361feacff146106355780636752e7021461064b5780636c540baf1461066657600080fd5b806350d85b731161028557806350d85b73146105b557806356e67728146105d55780635c60da1b146105f55780635fe3b5671461061557600080fd5b80633b1d21a21461058257806347bd3718146105975780634e4d9fea146105ad57600080fd5b8063182df0f51161031857806323b872dd116102f257806323b872dd146104f6578063313ce5671461051657806334154d4c146105425780633af9e6691461056257600080fd5b8063182df0f5146104b95780631db78944146104ce578063219ef65c146104d657600080fd5b806315761d511161035457806315761d5114610427578063173b99041461045f57806317bfdfbc1461048357806318160ddd146104a357600080fd5b806306fdde03146103c2578063095ea7b3146103ed5780631249c58b1461041d57600080fd5b366103bd57600061038a34610a4f565b5090506103ba816040518060400160405280600b81526020016a1b5a5b9d0819985a5b195960aa1b815250610ab6565b50005b600080fd5b3480156103ce57600080fd5b506103d7610d98565b6040516103e4919061544e565b60405180910390f35b3480156103f957600080fd5b5061040d610408366004615476565b610e26565b60405190151581526020016103e4565b610425610e96565b005b34801561043357600080fd5b50600154610447906001600160a01b031681565b6040516001600160a01b0390911681526020016103e4565b34801561046b57600080fd5b50610475600b5481565b6040519081526020016103e4565b34801561048f57600080fd5b5061047561049e3660046154a2565b610ed4565b3480156104af57600080fd5b5061047560125481565b3480156104c557600080fd5b50610475610f22565b610425610fb3565b3480156104e257600080fd5b506104256104f13660046155ad565b6110e4565b34801561050257600080fd5b5061040d610511366004615675565b611413565b34801561052257600080fd5b506005546105309060ff1681565b60405160ff90911681526020016103e4565b34801561054e57600080fd5b5061042561055d3660046156f8565b611441565b34801561056e57600080fd5b5061047561057d3660046154a2565b6114a1565b34801561058e57600080fd5b50610475611551565b3480156105a357600080fd5b50610475600e5481565b610425611560565b3480156105c157600080fd5b506104256105d0366004615772565b6115a2565b3480156105e157600080fd5b506104256105f03660046157cb565b611626565b34801561060157600080fd5b50600054610447906001600160a01b031681565b34801561062157600080fd5b50600654610447906001600160a01b031681565b34801561064157600080fd5b5061047560105481565b34801561065757600080fd5b50610475666379da05b6000081565b34801561067257600080fd5b50610475600c5481565b34801561068857600080fd5b50601654610447906001600160a01b031681565b3480156106a857600080fd5b506104756106b73660046154a2565b6001600160a01b031660009081526013602052604090205490565b3480156106de57600080fd5b5061047561169f565b3480156106f357600080fd5b50610475610702366004615814565b6116ce565b34801561071357600080fd5b5061047560095481565b34801561072957600080fd5b50610475600f5481565b34801561073f57600080fd5b5061047561074e366004615814565b6116d9565b34801561075f57600080fd5b506103d7611730565b34801561077457600080fd5b506104756107833660046154a2565b61173d565b34801561079457600080fd5b506104756107a3366004615814565b6117de565b3480156107b457600080fd5b506104256107c336600461582d565b611821565b3480156107d457600080fd5b50610475611848565b3480156107e957600080fd5b506104756107f8366004615814565b6119ff565b34801561080957600080fd5b5061040d610818366004615476565b611a42565b34801561082957600080fd5b50610475600d5481565b6104256108413660046158dc565b611a6f565b34801561085257600080fd5b5061040d600181565b34801561086757600080fd5b50610475611ab7565b34801561087c57600080fd5b5061047561088b366004615675565b611b7a565b34801561089c57600080fd5b50610475611b9e565b3480156108b157600080fd5b5061047567016345785d8a000081565b3480156108cd57600080fd5b506108e16108dc3660046154a2565b611bce565b6040805194855260208501939093529183015260608201526080016103e4565b34801561090d57600080fd5b5061047561091c366004615814565b611c6f565b34801561092d57600080fd5b5061047561093c366004615814565b611c7a565b34801561094d57600080fd5b50610475600a5481565b34801561096357600080fd5b5061047560115481565b34801561097957600080fd5b506104756109883660046158dc565b6001600160a01b03918216600090815260146020908152604080832093909416825291909152205490565b6104256109c13660046154a2565b611c85565b3480156109d257600080fd5b506104756109e13660046154a2565b611cd7565b3480156109f257600080fd5b50600754610447906001600160a01b031681565b348015610a1257600080fd5b50610475611d0f565b348015610a2757600080fd5b50610475610a36366004615814565b611d73565b348015610a4757600080fd5b50600161040d565b6000806000610a5d81611db6565b6000610a67611848565b90508015610a9757610a8b816011811115610a8457610a84615915565b6020611e7a565b60009350935050610aa7565b610aa13386611ef3565b93509350505b610ab081612312565b50915091565b81610abf575050565b600081516007610acf9190615941565b67ffffffffffffffff811115610ae757610ae76154cf565b6040519080825280601f01601f191660200182016040528015610b11576020820181803683370190505b50905060005b8251811015610b7857828181518110610b3257610b32615959565b602001015160f81c60f81b828281518110610b4f57610b4f615959565b60200101906001600160f81b031916908160001a90535080610b708161596f565b915050610b17565b600160fd1b82610b89836000615941565b81518110610b9957610b99615959565b60200101906001600160f81b031916908160001a905350600560fb1b82610bc1836001615941565b81518110610bd157610bd1615959565b60200101906001600160f81b031916908160001a905350610bf46103e8856159a0565b610bff906030615941565b60f81b82610c0e836002615941565b81518110610c1e57610c1e615959565b60200101906001600160f81b031916908160001a905350600a610c426064866159a0565b610c4c91906159b4565b610c57906030615941565b60f81b82610c66836003615941565b81518110610c7657610c76615959565b60200101906001600160f81b031916908160001a905350600a610c9981866159a0565b610ca391906159b4565b610cae906030615941565b60f81b82610cbd836004615941565b81518110610ccd57610ccd615959565b60200101906001600160f81b031916908160001a905350610cef600a856159b4565b610cfa906030615941565b60f81b82610d09836005615941565b81518110610d1957610d19615959565b60200101906001600160f81b031916908160001a905350602960f81b82610d41836006615941565b81518110610d5157610d51615959565b60200101906001600160f81b031916908160001a905350818415610d915760405162461bcd60e51b8152600401610d88919061544e565b60405180910390fd5b5050505050565b60038054610da5906159c8565b80601f0160208091040260200160405190810160405280929190818152602001828054610dd1906159c8565b8015610e1e5780601f10610df357610100808354040283529160200191610e1e565b820191906000526020600020905b815481529060010190602001808311610e0157829003601f168201915b505050505081565b3360008181526014602090815260408083206001600160a01b03871680855292528083208590555191929182907f8c5be1e5ebec7d5bd14f71427d1e84f3dd0314c0f7b2291e5b200ac8c7c3b92590610e829087815260200190565b60405180910390a360019150505b92915050565b6000610ea134610a4f565b509050610ed1816040518060400160405280600b81526020016a1b5a5b9d0819985a5b195960aa1b815250610ab6565b50565b600080610ee081611db6565b6000610eea611848565b14610f075760405162461bcd60e51b8152600401610d88906159fd565b610f108361173d565b91505b610f1c81612312565b50919050565b6000806000610f2f61238e565b90925090506000826003811115610f4857610f48615915565b14610e905760405162461bcd60e51b815260206004820152603560248201527f65786368616e67655261746553746f7265643a2065786368616e67655261746560448201527414dd1bdc9959125b9d195c9b985b0819985a5b1959605a1b6064820152608401610d88565b3330148015906110355750600660009054906101000a90046001600160a01b03166001600160a01b031663dd5cd22c6040518163ffffffff1660e01b8152600401602060405180830381865afa158015611011573d6000803e3d6000fd5b505050506040513d601f19601f820116820180604052508101906110359190615a2d565b156110e25760015460008054604051638abe0b7560e01b81526001600160a01b03918216600482015291928392839290911690638abe0b7590602401600060405180830381865afa15801561108e573d6000803e3d6000fd5b505050506040513d6000823e601f3d908101601f191682016040526110b69190810190615a4a565b60005492955090935091506001600160a01b038085169116146110de576110de83838361245b565b5050505b565b336001600160a01b0389161461114e5760405162461bcd60e51b815260206004820152602960248201527f6f6e6c7920467573652061646d696e206d617920696e697469616c697a6520746044820152681a19481b585c9ad95d60ba1b6064820152608401610d88565b600c5415801561115e5750600d54155b6111b65760405162461bcd60e51b815260206004820152602360248201527f6d61726b6574206d6179206f6e6c7920626520696e697469616c697a6564206f6044820152626e636560e81b6064820152608401610d88565b600180546001600160a01b0319166001600160a01b038a1617905560088690558561123c5760405162461bcd60e51b815260206004820152603060248201527f696e697469616c2065786368616e67652072617465206d75737420626520677260448201526f32b0ba32b9103a3430b7103d32b9379760811b6064820152608401610d88565b60006112478a6125f1565b905080156112975760405162461bcd60e51b815260206004820152601a60248201527f73657474696e6720636f6d7074726f6c6c6572206661696c65640000000000006044820152606401610d88565b43600c55670de0b6b3a7640000600d556112b08861271c565b9050801561130b5760405162461bcd60e51b815260206004820152602260248201527f73657474696e6720696e7465726573742072617465206d6f64656c206661696c604482015261195960f21b6064820152608401610d88565b855161131e9060039060208901906152e9565b5084516113329060049060208801906152e9565b506005805460ff191660ff861617905561134b8361286a565b9050801561139b5760405162461bcd60e51b815260206004820152601d60248201527f73657474696e67207265736572766520666163746f72206661696c65640000006044820152606401610d88565b6113a482612909565b905080156113f45760405162461bcd60e51b815260206004820152601860248201527f73657474696e672061646d696e20666565206661696c656400000000000000006044820152606401610d88565b50506002805460ff60b01b1916600160b01b1790555050505050505050565b60008061141f81611db6565b600061142d33878787612a23565b14915061143981612312565b509392505050565b611449612cc1565b6114885760405162461bcd60e51b815260206004820152601060248201526f31b0b63632b9103737ba1030b236b4b760811b6044820152606401610d88565b6114946003858561536d565b50610d916004838361536d565b60008060405180602001604052806114b7611b9e565b90526001600160a01b0384166000908152601360205260408120549192509081906114e3908490612e2c565b909250905060008260038111156114fc576114fc615915565b146115495760405162461bcd60e51b815260206004820152601f60248201527f62616c616e636520636f756c64206e6f742062652063616c63756c61746564006044820152606401610d88565b949350505050565b600061155b612e7e565b905090565b600061156b34612eb0565b509050610ed181604051806040016040528060128152602001711c995c185e509bdc9c9bddc819985a5b195960721b815250610ab6565b6115aa612cc1565b6115df5760405162461bcd60e51b815260206004820152600660248201526510b0b236b4b760d11b6044820152606401610d88565b611620848484848080601f01602080910402602001604051908101604052809392919081815260200183838082843760009201919091525061245b92505050565b50505050565b333014806116375750611637612cc1565b610ed15760405162461bcd60e51b815260206004820152603360248201527f6f6e6c792073656c6620616e642061646d696e732063616e2063616c6c205f6260448201527232b1b7b6b2a4b6b83632b6b2b73a30ba34b7b760691b6064820152608401610d88565b6000806116aa611848565b146116c75760405162461bcd60e51b8152600401610d88906159fd565b50600e5490565b6000610e9082612ef7565b6000806116e581611db6565b60006116ef611848565b9050801561171b5761171381601181111561170c5761170c615915565b6052611e7a565b925050610f13565b61172484612909565b925050610f1c81612312565b60048054610da5906159c8565b600080600061174b84612f3d565b9092509050600082600381111561176457611764615915565b146117d75760405162461bcd60e51b815260206004820152603760248201527f626f72726f7742616c616e636553746f7265643a20626f72726f7742616c616e60448201527f636553746f726564496e7465726e616c206661696c65640000000000000000006064820152608401610d88565b9392505050565b6000806117ea81611db6565b60006117f4611848565b905080156118185761171381601181111561181157611811615915565b6033611e7a565b61172484612ff6565b6702c68af0bb140000601261183d898989858a8a878b8b6110e4565b505050505050505050565b600c5460009043908114156118605760005b91505090565b600061186a612e7e565b90506000600760009054906101000a90046001600160a01b03166001600160a01b03166315f2405383600e546118af600f546118aa601054601154613069565b613069565b6040516001600160e01b031960e086901b168152600481019390935260248301919091526044820152606401602060405180830381865afa1580156118f8573d6000803e3d6000fd5b505050506040513d601f19601f8201168201806040525081019061191c9190615aea565b905065048c273950008111156119745760405162461bcd60e51b815260206004820152601c60248201527f626f72726f772072617465206973206162737572646c792068696768000000006044820152606401610d88565b60008061198385600c5461309f565b9092509050600082600381111561199c5761199c615915565b146119e95760405162461bcd60e51b815260206004820152601f60248201527f636f756c64206e6f742063616c63756c61746520626c6f636b2064656c7461006044820152606401610d88565b6119f5858585846130ca565b9550505050505090565b600080611a0b81611db6565b6000611a15611848565b90508015611a3957611713816011811115611a3257611a32615915565b6037611e7a565b611724846131f6565b600080611a4e81611db6565b6000611a5c33338787612a23565b149150611a6881612312565b5092915050565b6000611a7c8334846132d4565b5090506110de81604051806040016040528060168152602001751b1a5c5d5a59185d19509bdc9c9bddc819985a5b195960521b815250610ab6565b6007546000906001600160a01b031663b8168816611ad3612e7e565b600e54611aea600f546118aa601054601154613069565b600954600a54600b54611afd9190615941565b611b079190615941565b6040516001600160e01b031960e087901b16815260048101949094526024840192909252604483015260648201526084015b602060405180830381865afa158015611b56573d6000803e3d6000fd5b505050506040513d601f19601f8201168201806040525081019061155b9190615aea565b60006001611b8781611db6565b611b93338686866133c8565b915061143981612312565b600080611ba9611848565b14611bc65760405162461bcd60e51b8152600401610d88906159fd565b61155b610f22565b6001600160a01b038116600090815260136020526040812054819081908190818080611bf989612f3d565b935090506000816003811115611c1157611c11615915565b14611c2f5760095b6000806000975097509750975050505050611c68565b611c3761238e565b925090506000816003811115611c4f57611c4f615915565b14611c5b576009611c19565b5060009650919450925090505b9193509193565b6000610e90826138c7565b6000610e908261390b565b6000611c91823461394a565b509050611cd3816040518060400160405280601881526020017f7265706179426f72726f77426568616c66206661696c65640000000000000000815250610ab6565b5050565b600080611ce2611848565b90508015611d06576117d7816011811115611cff57611cff615915565b604b611e7a565b6117d78361271c565b6007546000906001600160a01b03166315f24053611d2b612e7e565b600e54611d42600f546118aa601054601154613069565b6040516001600160e01b031960e086901b168152600481019390935260248301919091526044820152606401611b39565b600080611d7f81611db6565b6000611d89611848565b90508015611dad57611713816011811115611da657611da6615915565b6059611e7a565b6117248461286a565b600254600160b01b900460ff16611dfc5760405162461bcd60e51b815260206004820152600a6024820152691c994b595b9d195c995960b21b6044820152606401610d88565b80611e6a57600660009054906101000a90046001600160a01b03166001600160a01b031663c90c20b16040518163ffffffff1660e01b8152600401600060405180830381600087803b158015611e5157600080fd5b505af1158015611e65573d6000803e3d6000fd5b505050505b506002805460ff60b01b19169055565b60007f45b96fe442630264581b197e84bbada861235052c5a1aadfff9ea4e40a969aa0836011811115611eaf57611eaf615915565b836063811115611ec157611ec1615915565b60408051928352602083019190915260009082015260600160405180910390a18260118111156117d7576117d7615915565b600654604051634ef4c3e160e01b8152600091829182916001600160a01b031690634ef4c3e190611f2c90309089908990600401615b03565b6020604051808303816000875af1158015611f4b573d6000803e3d6000fd5b505050506040513d601f19601f82011682018060405250810190611f6f9190615aea565b90508015611f9057611f8460036021836139b4565b6000925092505061230b565b43600c5414611fa557611f84600a6024611e7a565b611fe66040805160e0810190915280600081526020016000815260200160008152602001600081526020016000815260200160008152602001600081525090565b611fee61238e565b604083018190526020830182600381111561200b5761200b615915565b600381111561201c5761201c615915565b905250600090508160200151600381111561203957612039615915565b1461206d57612060600960238360200151600381111561205b5761205b615915565b6139b4565b600093509350505061230b565b6120778686613a56565b60c08201819052604080516020810182529083015181526120989190613ae2565b60608301819052602083018260038111156120b5576120b5615915565b60038111156120c6576120c6615915565b90525060009050816020015160038111156120e3576120e3615915565b146121305760405162461bcd60e51b815260206004820181905260248201527f4d494e545f45584348414e47455f43414c43554c4154494f4e5f4641494c45446044820152606401610d88565b60008160600151116121845760405162461bcd60e51b815260206004820152601a60248201527f4d494e545f5a45524f5f43544f4b454e535f52454a45435445440000000000006044820152606401610d88565b6121946012548260600151613069565b60808201526001600160a01b03861660009081526013602052604090205460608201516121c19190613069565b60a0820181905260808201516012556001600160a01b0387166000818152601360209081526040918290209390935560c0840151606080860151835194855294840191909152908201929092527f4c209b5fc8ad50758f13e2e1088ba56a560dff690a1c6fef26394f4c03821c4f910160405180910390a1856001600160a01b0316306001600160a01b0316600080516020615bbb833981519152836060015160405161227091815260200190565b60405180910390a360065460c082015160608301516040516341c728b960e01b81523060048201526001600160a01b038a81166024830152604482019390935260648101919091529116906341c728b990608401600060405180830381600087803b1580156122de57600080fd5b505af11580156122f2573d6000803e3d6000fd5b50600092506122ff915050565b8160c001519350935050505b9250929050565b6002805460ff60b01b1916600160b01b17905580610ed157600660009054906101000a90046001600160a01b03166001600160a01b031663632e51426040518163ffffffff1660e01b8152600401600060405180830381600087803b15801561237a57600080fd5b505af1158015610d91573d6000803e3d6000fd5b6012546000908190806123a8575050600854600092909150565b60006123b2612e7e565b905060006123cc6040518060200160405280600081525090565b60006123ee84600e546123e9600f546118aa601054601154613069565b613af2565b93509050600081600381111561240657612406615915565b14612418579660009650945050505050565b6124228386613b45565b92509050600081600381111561243a5761243a615915565b1461244c579660009650945050505050565b50516000969095509350505050565b600154600054604051630304735160e61b81526001600160a01b0391821660048201528582166024820152841515604482015291169063c11cd44090606401602060405180830381865afa1580156124b7573d6000803e3d6000fd5b505050506040513d601f19601f820116820180604052508101906124db9190615a2d565b61250f5760405162461bcd60e51b8152602060048201526005602482015264085a5b5c1b60da1b6044820152606401610d88565b600080546001600160a01b038581166001600160a01b031983161790925516303b6125425761253d82611626565b6125a4565b6125a23083604051602401612557919061544e565b60408051601f19818403018152918152602080830180516001600160e01b0316630adccee560e31b17905281518083019092526007825266216265636f6d6560c81b90820152613c10565b505b600054604080516001600160a01b03808516825290921660208301527fd604de94d45953f9138079ec1b82d533cb2160c906d1076d1f7ed54befbca97a910160405180910390a150505050565b600080600660009054906101000a90046001600160a01b03169050826001600160a01b0316627e3dd26040518163ffffffff1660e01b8152600401602060405180830381865afa158015612649573d6000803e3d6000fd5b505050506040513d601f19601f8201168201806040525081019061266d9190615a2d565b6126b95760405162461bcd60e51b815260206004820152601c60248201527f6d61726b6572206d6574686f642072657475726e65642066616c7365000000006044820152606401610d88565b600680546001600160a01b0319166001600160a01b0385811691821790925560408051928416835260208301919091527f7ac369dbd14fa5ea3f473ed67cc9d598964a77501540ba6751eb0b3decf5870d91015b60405180910390a160006117d7565b600080612727612cc1565b612737576117d76001604d611e7a565b43600c541461274c576117d7600a604c611e7a565b600760009054906101000a90046001600160a01b03169050826001600160a01b0316632191f92a6040518163ffffffff1660e01b8152600401602060405180830381865afa1580156127a2573d6000803e3d6000fd5b505050506040513d601f19601f820116820180604052508101906127c69190615a2d565b6128125760405162461bcd60e51b815260206004820152601c60248201527f6d61726b6572206d6574686f642072657475726e65642066616c7365000000006044820152606401610d88565b600780546001600160a01b0319166001600160a01b0385811691821790925560408051928416835260208301919091527fedffc32e068c7c95dfd4bdfd5c4d939a084d6b11c4199eac8436ed234d72f926910161270d565b6000612874612cc1565b61288457610e906001605a611e7a565b43600c541461289957610e90600a605b611e7a565b670de0b6b3a76400006128b96128b184600954613069565b600a54613069565b11156128cb57610e906002605c611e7a565b600b80549083905560408051828152602081018590527faaa68312e2ea9d50e16af5068410ab56e1a1fd06037b1a35664812c30f821460910161270d565b600043600c541461292057610e90600a6054611e7a565b6000198214156129305760095491505b600061293a613cac565b9050670de0b6b3a764000061295a612954600b5486613069565b83613069565b111561296c576117d760026055611e7a565b82600954146129d05761297d612cc1565b61298d576117d760016053611e7a565b600980549084905560408051828152602081018690527fcdd0b588250e1398549f79cfdb8217c186688822905d6715b0834ea1c865594a910160405180910390a1505b80600a5414612a1c57600a80549082905560408051828152602081018490527f92eef861b6533b7d3417f39c2ad7b460eed4e88a32fa3604f30e718b7602e7dc910160405180910390a1505b60006117d7565b6006546040516317b9b84b60e31b81523060048201526001600160a01b038581166024830152848116604483015260648201849052600092839291169063bdcdc258906084016020604051808303816000875af1158015612a88573d6000803e3d6000fd5b505050506040513d601f19601f82011682018060405250810190612aac9190615aea565b90508015612ac957612ac16003605d836139b4565b915050611549565b836001600160a01b0316856001600160a01b03161415612aef57612ac16002605e611e7a565b6000856001600160a01b0316876001600160a01b03161415612b145750600019612b3c565b506001600160a01b038086166000908152601460209081526040808320938a16835292905220545b600080600080612b4c858961309f565b90945092506000846003811115612b6557612b65615915565b14612b8357612b766009605e611e7a565b9650505050505050611549565b6001600160a01b038a16600090815260136020526040902054612ba6908961309f565b90945091506000846003811115612bbf57612bbf615915565b14612bd057612b766009605f611e7a565b6001600160a01b038916600090815260136020526040902054612bf39089613cf6565b90945090506000846003811115612c0c57612c0c615915565b14612c1d57612b7660096060611e7a565b6001600160a01b03808b16600090815260136020526040808220859055918b168152208190556000198514612c75576001600160a01b03808b166000908152601460209081526040808320938f168352929052208390555b886001600160a01b03168a6001600160a01b0316600080516020615bbb8339815191528a604051612ca891815260200190565b60405180910390a35060009a9950505050505050505050565b600654604080516303e1469160e61b815290516000926001600160a01b031691829163f851a440916004808201926020929091908290030181865afa158015612d0e573d6000803e3d6000fd5b505050506040513d601f19601f82011682018060405250810190612d329190615b27565b6001600160a01b0316336001600160a01b0316148015612daf5750806001600160a01b0316630a755ec26040518163ffffffff1660e01b8152600401602060405180830381865afa158015612d8b573d6000803e3d6000fd5b505050506040513d601f19601f82011682018060405250810190612daf9190615a2d565b8061185a57506001546001600160a01b03163314801561185a5750806001600160a01b0316632f1069ba6040518163ffffffff1660e01b8152600401602060405180830381865afa158015612e08573d6000803e3d6000fd5b505050506040513d601f19601f8201168201806040525081019061185a9190615a2d565b600080600080612e3c8686613d1c565b90925090506000826003811115612e5557612e55615915565b14612e66575091506000905061230b565b6000612e7182613d98565b9350935050509250929050565b6000806000612e8d473461309f565b90925090506000826003811115612ea657612ea6615915565b14610e9057600080fd5b6000806000612ebe81611db6565b6000612ec8611848565b90508015612eec57610a8b816011811115612ee557612ee5615915565b6041611e7a565b610aa1333387613db0565b600080612f0381611db6565b6000612f0d611848565b90508015612f3157611713816011811115612f2a57612f2a615915565b602a611e7a565b611724336000866141c8565b6001600160a01b038116600090815260156020526040812080548291829182918291612f725750600096879650945050505050565b612f828160000154600d5461475d565b90945092506000846003811115612f9b57612f9b615915565b14612fae57509195600095509350505050565b612fbc83826001015461479c565b90945091506000846003811115612fd557612fd5615915565b14612fe857509195600095509350505050565b506000969095509350505050565b60008043600c541461300e576117d7600a6035611e7a565b82613017612e7e565b1015613029576117d7600e6034611e7a565b60115483111561303f576117d760026036611e7a565b61304b601154846147c7565b6011819055600154909150612a1c906001600160a01b031684614801565b60006117d78383604051806040016040528060118152602001706164646974696f6e206f766572666c6f7760781b81525061489b565b6000808383116130be5760006130b58486615b44565b9150915061230b565b5060039050600061230b565b6000806130e5604051806020016040528086815250846148d5565b905060006130f582600e54614906565b9050600061310582600e54613069565b905060006131266040518060200160405280600b5481525084600f5461491e565b905060006131476040518060200160405280600a548152508560115461491e565b9050600061316860405180602001604052806009548152508660105461491e565b9050600061317b87600d54600d5461491e565b600c8d9055600d819055600e869055600f85905560118490556010839055604080518d815260208101899052908101829052606081018790529091507f4dec04e750ca11537cabcd8a9eab06494de08da3735bc8871cd41250e190bc049060800160405180910390a160009c9b505050505050505050505050565b60008043600c541461320e576117d7600a6039611e7a565b82613217612e7e565b1015613229576117d7600e6038611e7a565b60105483111561323f576117d76002603a611e7a565b61324b601054846147c7565b905080601081905550612a1c600660009054906101000a90046001600160a01b03166001600160a01b031663f851a4406040518163ffffffff1660e01b8152600401602060405180830381865afa1580156132aa573d6000803e3d6000fd5b505050506040513d601f19601f820116820180604052508101906132ce9190615b27565b84614801565b60008060006132e281611db6565b60006132ec611848565b9050801561331c5761331081601181111561330957613309615915565b6011611e7a565b600093509350506133b6565b846001600160a01b031663a6afed956040518163ffffffff1660e01b81526004016020604051808303816000875af115801561335c573d6000803e3d6000fd5b505050506040513d601f19601f820116820180604052508101906133809190615aea565b905080156133a45761331081601181111561339d5761339d615915565b6012611e7a565b6133b03388888861493f565b93509350505b6133bf81612312565b50935093915050565b60065460405163d02f735160e01b81523060048201526001600160a01b0386811660248301528581166044830152848116606483015260848201849052600092839291169063d02f73519060a4016020604051808303816000875af1158015613435573d6000803e3d6000fd5b505050506040513d601f19601f820116820180604052508101906134599190615aea565b9050801561346e57612ac16003601d836139b4565b846001600160a01b0316846001600160a01b0316141561349457612ac16006601e611e7a565b6134f9604080516101808101909152806000815260200160008152602001600081526020016000815260200160008152602001600081526020016000815260200160008152602001600081526020016000815260200160008152602001600081525090565b6001600160a01b03851660009081526013602052604090205461351c908561309f565b602083018190528282600381111561353657613536615915565b600381111561354757613547615915565b905250600090508151600381111561356157613561615915565b1461358c576135836009601c8360000151600381111561205b5761205b615915565b92505050611549565b6135ab846040518060200160405280666379da05b60000815250614e00565b6080820152604080516020810190915267016345785d8a000081526135d1908590614e00565b61014082015260808101516135f6906135eb9086906147c7565b8261014001516147c7565b606082015261360361238e565b60c083018190528282600381111561361d5761361d615915565b600381111561362e5761362e615915565b905250600090508151600381111561364857613648615915565b146136955760405162461bcd60e51b815260206004820152601860248201527f65786368616e67652072617465206d617468206572726f7200000000000000006044820152606401610d88565b6136b560405180602001604052808360c001518152508260800151614906565b60a0820152604080516020810190915260c082015181526101408201516136dc9190614906565b610160820152600f5460a08201516136f49190613069565b60e0820152601254608082015161370e916135eb916147c7565b6101208201526011546101608201516137279190613069565b6101008201526001600160a01b03861660009081526013602052604090205460608201516137559190613cf6565b604083018190528282600381111561376f5761376f615915565b600381111561378057613780615915565b905250600090508151600381111561379a5761379a615915565b146137bc576135836009601b8360000151600381111561205b5761205b615915565b60e0810151600f556101208101516012556101008101516011556020808201516001600160a01b0387811660008181526013855260408082209490945583860151928b1680825290849020929092556060850151925192835290929091600080516020615bbb833981519152910160405180910390a3306001600160a01b0316856001600160a01b0316600080516020615bbb833981519152836080015160405161386991815260200190565b60405180910390a360a081015160e08201516040805130815260208101939093528201527fa91e67c5ea634cd43a12c5a482724b03de01e85ca68702a53d0c2f45cb7c1dc59060600160405180910390a16000979650505050505050565b6000806138d381611db6565b60006138dd611848565b90508015613901576117138160118111156138fa576138fa615915565b600a611e7a565b6117243385614e23565b60008061391781611db6565b6000613921611848565b9050801561393e57611713816011811115612f2a57612f2a615915565b611724338560006141c8565b600080600061395881611db6565b6000613962611848565b905080156139925761398681601181111561397f5761397f615915565b6040611e7a565b600093509350506139a3565b61399d338787613db0565b93509350505b6139ac81612312565b509250929050565b60007f45b96fe442630264581b197e84bbada861235052c5a1aadfff9ea4e40a969aa08460118111156139e9576139e9615915565b8460638111156139fb576139fb615915565b604080519283526020830191909152810184905260600160405180910390a16003846011811115613a2e57613a2e615915565b14613a4a57836011811115613a4557613a45615915565b611549565b611549826103e8615941565b6000336001600160a01b03841614613aa25760405162461bcd60e51b815260206004820152600f60248201526e0e6cadcc8cae440dad2e6dac2e8c6d608b1b6044820152606401610d88565b813414610f1c5760405162461bcd60e51b815260206004820152600e60248201526d0ecc2d8eaca40dad2e6dac2e8c6d60931b6044820152606401610d88565b600080600080612e3c86866151b7565b600080600080613b028787613cf6565b90925090506000826003811115613b1b57613b1b615915565b14613b2c5750915060009050613b3d565b613b36818661309f565b9350935050505b935093915050565b6000613b5d6040518060200160405280600081525090565b600080613b7286670de0b6b3a764000061475d565b90925090506000826003811115613b8b57613b8b615915565b14613baa5750604080516020810190915260008152909250905061230b565b600080613bb7838861479c565b90925090506000826003811115613bd057613bd0615915565b14613bf3578160405180602001604052806000815250955095505050505061230b565b604080516020810190915290815260009890975095505050505050565b6060600080856001600160a01b031685604051613c2d9190615b5b565b6000604051808303816000865af19150503d8060008114613c6a576040519150601f19603f3d011682016040523d82523d6000602084013e613c6f565b606091505b509150915081613ca357805115613c895780518082602001fd5b8360405162461bcd60e51b8152600401610d88919061544e565b95945050505050565b6001546040805163dd86fea160e01b815290516000926001600160a01b03169163dd86fea19160048083019260209291908290030181865afa158015611b56573d6000803e3d6000fd5b600080838301848110613d0e5760009250905061230b565b60026000925092505061230b565b6000613d346040518060200160405280600081525090565b600080613d4586600001518661475d565b90925090506000826003811115613d5e57613d5e615915565b14613d7d5750604080516020810190915260008152909250905061230b565b60408051602081019091529081526000969095509350505050565b8051600090610e9090670de0b6b3a7640000906159a0565b600654604051631200453160e11b81523060048201526001600160a01b03858116602483015284811660448301526064820184905260009283928392909116906324008a62906084016020604051808303816000875af1158015613e18573d6000803e3d6000fd5b505050506040513d601f19601f82011682018060405250810190613e3c9190615aea565b90508015613e5d57613e5160036043836139b4565b60009250925050613b3d565b43600c5414613e7257613e51600a6044611e7a565b613ebb6040805161010081019091528060008152602001600081526020016000815260200160008152602001600081526020016000815260200160008152602001600081525090565b6001600160a01b0386166000908152601560205260409020600101546060820152613ee586612f3d565b6080830181905260208301826003811115613f0257613f02615915565b6003811115613f1357613f13615915565b9052506000905081602001516003811115613f3057613f30615915565b14613f5f57613f52600960428360200151600381111561205b5761205b615915565b6000935093505050613b3d565b600019851415613f785760808101516040820152613f80565b604081018590525b613f8e878260400151613a56565b60e082018190526080820151613fa39161309f565b60a0830181905260208301826003811115613fc057613fc0615915565b6003811115613fd157613fd1615915565b9052506000905081602001516003811115613fee57613fee615915565b146140615760405162461bcd60e51b815260206004820152603a60248201527f52455041595f424f52524f575f4e45575f4143434f554e545f424f52524f575f60448201527f42414c414e43455f43414c43554c4154494f4e5f4641494c45440000000000006064820152608401610d88565b614071600e548260e0015161309f565b60c083018190526020830182600381111561408e5761408e615915565b600381111561409f5761409f615915565b90525060009050816020015160038111156140bc576140bc615915565b146141235760405162461bcd60e51b815260206004820152603160248201527f52455041595f424f52524f575f4e45575f544f54414c5f42414c414e43455f43604482015270105310d55310551253d397d19052531151607a1b6064820152608401610d88565b60a081810180516001600160a01b03898116600081815260156020908152604091829020948555600d5460019095019490945560c0870151600e81905560e088015195518251948f16855294840192909252820193909352606081019190915260808101919091527f1a2a22cb034d26d1854bdc6666a5b91fe25efbbb5dcad3b0355478d6f5c362a1910160405180910390a160e00151600097909650945050505050565b60008215806141d5575081155b61423e5760405162461bcd60e51b815260206004820152603460248201527f6f6e65206f662072656465656d546f6b656e73496e206f722072656465656d416044820152736d6f756e74496e206d757374206265207a65726f60601b6064820152608401610d88565b61427f6040805160e0810190915280600081526020016000815260200160008152602001600081526020016000815260200160008152602001600081525090565b61428761238e565b60408301819052602083018260038111156142a4576142a4615915565b60038111156142b5576142b5615915565b90525060009050816020015160038111156142d2576142d2615915565b146142fc576142f46009602e8360200151600381111561205b5761205b615915565b9150506117d7565b83156143955760608101849052604080516020810182529082015181526143239085612e2c565b608083018190526020830182600381111561434057614340615915565b600381111561435157614351615915565b905250600090508160200151600381111561436e5761436e615915565b14614390576142f46009602c8360200151600381111561205b5761205b615915565b614426565b6143b18360405180602001604052808460400151815250613ae2565b60608301819052602083018260038111156143ce576143ce615915565b60038111156143df576143df615915565b90525060009050816020015160038111156143fc576143fc615915565b1461441e576142f46009602d8360200151600381111561205b5761205b615915565b608081018390525b600654606082015160405163eabe7d9160e01b81526000926001600160a01b03169163eabe7d919161445f9130918b9190600401615b03565b6020604051808303816000875af115801561447e573d6000803e3d6000fd5b505050506040513d601f19601f820116820180604052508101906144a29190615aea565b905080156144c0576144b76003602b836139b4565b925050506117d7565b43600c54146144d5576144b7600a602f611e7a565b6144e5601254836060015161309f565b60a084018190526020840182600381111561450257614502615915565b600381111561451357614513615915565b905250600090508260200151600381111561453057614530615915565b14614552576144b7600960318460200151600381111561205b5761205b615915565b6001600160a01b038616600090815260136020526040902054606083015161457a919061309f565b60c084018190526020840182600381111561459757614597615915565b60038111156145a8576145a8615915565b90525060009050826020015160038111156145c5576145c5615915565b146145e7576144b7600960308460200151600381111561205b5761205b615915565b81608001516145f4612e7e565b1015614606576144b7600e6032611e7a565b60a082015160125560c08201516001600160a01b038716600090815260136020526040902055608082015161463c908790614801565b306001600160a01b0316866001600160a01b0316600080516020615bbb833981519152846060015160405161467391815260200190565b60405180910390a36080820151606080840151604080516001600160a01b038b16815260208101949094528301527fe5b754fb1abb7f01b499791d0b820ae3b6af3424ac1c59768edb53f4ec31a929910160405180910390a1600654608083015160608401516040516351dff98960e01b81523060048201526001600160a01b038a81166024830152604482019390935260648101919091529116906351dff98990608401600060405180830381600087803b15801561473257600080fd5b505af1158015614746573d6000803e3d6000fd5b5060009250614753915050565b9695505050505050565b600080836147705750600090508061230b565b8383028361477e86836159a0565b146147915760026000925092505061230b565b60009250905061230b565b600080826147b0575060019050600061230b565b60006147bc84866159a0565b915091509250929050565b60006117d78383604051806040016040528060158152602001747375627472616374696f6e20756e646572666c6f7760581b81525061522a565b6000826001600160a01b03168260405160006040518083038185875af1925050503d806000811461484e576040519150601f19603f3d011682016040523d82523d6000602084013e614853565b606091505b50509050806110de5760405162461bcd60e51b8152602060048201526014602482015273191bd51c985b9cd9995c93dd5d0819985a5b195960621b6044820152606401610d88565b6000806148a88486615941565b905082858210156148cc5760405162461bcd60e51b8152600401610d88919061544e565b50949350505050565b60408051602081019091526000815260405180602001604052806148fd856000015185615259565b90529392505050565b60008061491384846148d5565b905061154981613d98565b60008061492b85856148d5565b9050613ca361493982613d98565b84613069565b600654604051632fe3f38f60e11b81523060048201526001600160a01b03838116602483015286811660448301528581166064830152608482018590526000928392839290911690635fc7e71e9060a4016020604051808303816000875af11580156149af573d6000803e3d6000fd5b505050506040513d601f19601f820116820180604052508101906149d39190615aea565b905080156149f4576149e860036014836139b4565b60009250925050614df7565b43600c5414614a09576149e8600a6018611e7a565b43846001600160a01b0316636c540baf6040518163ffffffff1660e01b8152600401602060405180830381865afa158015614a48573d6000803e3d6000fd5b505050506040513d601f19601f82011682018060405250810190614a6c9190615aea565b14614a7d576149e8600a6013611e7a565b866001600160a01b0316866001600160a01b03161415614aa3576149e860066019611e7a565b84614ab4576149e860076017611e7a565b600019851415614aca576149e860076016611e7a565b600080614ad8898989613db0565b90925090508115614b0d57614aff826011811115614af857614af8615915565b601a611e7a565b600094509450505050614df7565b60065460405163c488847b60e01b815260009182916001600160a01b039091169063c488847b90614b469030908c908890600401615b03565b6040805180830381865afa158015614b62573d6000803e3d6000fd5b505050506040513d601f19601f82011682018060405250810190614b869190615b77565b90925090508115614bf55760405162461bcd60e51b815260206004820152603360248201527f4c49515549444154455f434f4d5054524f4c4c45525f43414c43554c4154455f604482015272105353d5539517d4d152569157d19052531151606a1b6064820152608401610d88565b6040516370a0823160e01b81526001600160a01b038b811660048301528291908a16906370a0823190602401602060405180830381865afa158015614c3e573d6000803e3d6000fd5b505050506040513d601f19601f82011682018060405250810190614c629190615aea565b1015614cb05760405162461bcd60e51b815260206004820152601860248201527f4c49515549444154455f5345495a455f544f4f5f4d55434800000000000000006044820152606401610d88565b60006001600160a01b038916301415614cd657614ccf308d8d856133c8565b9050614d4c565b60405163b2a02ff160e01b81526001600160a01b038a169063b2a02ff190614d06908f908f908790600401615b03565b6020604051808303816000875af1158015614d25573d6000803e3d6000fd5b505050506040513d601f19601f82011682018060405250810190614d499190615aea565b90505b8015614d915760405162461bcd60e51b81526020600482015260146024820152731d1bdad95b881cd95a5e9d5c994819985a5b195960621b6044820152606401610d88565b604080516001600160a01b038e811682528d811660208301528183018790528b1660608201526080810184905290517f298637f684da70674f26509b10f07ec2fbc77a335ab1e7d6215a4b2484d8bb529181900360a00190a16000975092955050505050505b94509492505050565b6000670de0b6b3a7640000614e19848460000151615259565b6117d791906159a0565b60065460405163368f515360e21b815260009182916001600160a01b039091169063da3d454c90614e5c90309088908890600401615b03565b6020604051808303816000875af1158015614e7b573d6000803e3d6000fd5b505050506040513d601f19601f82011682018060405250810190614e9f9190615aea565b90508015614ebc57614eb460036010836139b4565b915050610e90565b43600c5414614ed157614eb4600a600c611e7a565b6000614edb612e7e565b905083811015614efa57614ef1600e600b611e7a565b92505050610e90565b614f26604080516080810190915280600081526020016000815260200160008152602001600081525090565b614f2f86612f3d565b6020830181905282826003811115614f4957614f49615915565b6003811115614f5a57614f5a615915565b9052506000905081516003811115614f7457614f74615915565b14614f9f57614f956009808360000151600381111561205b5761205b615915565b9350505050610e90565b614fad816020015186613cf6565b6040830181905282826003811115614fc757614fc7615915565b6003811115614fd857614fd8615915565b9052506000905081516003811115614ff257614ff2615915565b1461501457614f956009600e8360000151600381111561205b5761205b615915565b6006546040828101519051631de6c8a560e21b815230600482015260248101919091526001600160a01b039091169063779b2294906044016020604051808303816000875af115801561506b573d6000803e3d6000fd5b505050506040513d601f19601f8201168201806040525081019061508f9190615aea565b925082156150a457614f9560036010856139b4565b6150b0600e5486613cf6565b60608301819052828260038111156150ca576150ca615915565b60038111156150db576150db615915565b90525060009050815160038111156150f5576150f5615915565b1461511757614f956009600d8360000151600381111561205b5761205b615915565b6040808201516001600160a01b0388166000908152601560205291909120908155600d546001909101556060810151600e556151538686614801565b60408082015160608084015183516001600160a01b038b168152602081018a9052938401929092528201527f13ed6866d4e1ee6da46f845c46d7e54120883d75c5ea9a2dacc1c4ca8984ab809060800160405180910390a160009695505050505050565b60006151cf6040518060200160405280600081525090565b6000806151e4670de0b6b3a76400008761475d565b909250905060008260038111156151fd576151fd615915565b1461521c5750604080516020810190915260008152909250905061230b565b612e71818660000151613b45565b6000818484111561524e5760405162461bcd60e51b8152600401610d88919061544e565b506115498385615b44565b60006117d783836040518060400160405280601781526020017f6d756c7469706c69636174696f6e206f766572666c6f7700000000000000000081525060008315806152a3575082155b156152b0575060006117d7565b60006152bc8486615b9b565b9050836152c986836159a0565b1483906148cc5760405162461bcd60e51b8152600401610d88919061544e565b8280546152f5906159c8565b90600052602060002090601f016020900481019282615317576000855561535d565b82601f1061533057805160ff191683800117855561535d565b8280016001018555821561535d579182015b8281111561535d578251825591602001919060010190615342565b506153699291506153e1565b5090565b828054615379906159c8565b90600052602060002090601f01602090048101928261539b576000855561535d565b82601f106153b45782800160ff1982351617855561535d565b8280016001018555821561535d579182015b8281111561535d5782358255916020019190600101906153c6565b5b8082111561536957600081556001016153e2565b60005b838110156154115781810151838201526020016153f9565b838111156116205750506000910152565b6000815180845261543a8160208601602086016153f6565b601f01601f19169290920160200192915050565b6020815260006117d76020830184615422565b6001600160a01b0381168114610ed157600080fd5b6000806040838503121561548957600080fd5b823561549481615461565b946020939093013593505050565b6000602082840312156154b457600080fd5b81356117d781615461565b80356154ca81615461565b919050565b634e487b7160e01b600052604160045260246000fd5b604051601f8201601f1916810167ffffffffffffffff8111828210171561550e5761550e6154cf565b604052919050565b600067ffffffffffffffff821115615530576155306154cf565b50601f01601f191660200190565b600061555161554c84615516565b6154e5565b905082815283838301111561556557600080fd5b828260208301376000602084830101529392505050565b600082601f83011261558d57600080fd5b6117d78383356020850161553e565b803560ff811681146154ca57600080fd5b60008060008060008060008060006101208a8c0312156155cc57600080fd5b89356155d781615461565b985060208a01356155e781615461565b97506155f560408b016154bf565b965060608a0135955060808a013567ffffffffffffffff8082111561561957600080fd5b6156258d838e0161557c565b965060a08c013591508082111561563b57600080fd5b506156488c828d0161557c565b94505061565760c08b0161559c565b925060e08a013591506101008a013590509295985092959850929598565b60008060006060848603121561568a57600080fd5b833561569581615461565b925060208401356156a581615461565b929592945050506040919091013590565b60008083601f8401126156c857600080fd5b50813567ffffffffffffffff8111156156e057600080fd5b60208301915083602082850101111561230b57600080fd5b6000806000806040858703121561570e57600080fd5b843567ffffffffffffffff8082111561572657600080fd5b615732888389016156b6565b9096509450602087013591508082111561574b57600080fd5b50615758878288016156b6565b95989497509550505050565b8015158114610ed157600080fd5b6000806000806060858703121561578857600080fd5b843561579381615461565b935060208501356157a381615764565b9250604085013567ffffffffffffffff8111156157bf57600080fd5b615758878288016156b6565b6000602082840312156157dd57600080fd5b813567ffffffffffffffff8111156157f457600080fd5b8201601f8101841361580557600080fd5b6115498482356020840161553e565b60006020828403121561582657600080fd5b5035919050565b600080600080600080600060e0888a03121561584857600080fd5b873561585381615461565b9650602088013561586381615461565b9550604088013561587381615461565b9450606088013567ffffffffffffffff8082111561589057600080fd5b61589c8b838c0161557c565b955060808a01359150808211156158b257600080fd5b506158bf8a828b0161557c565b93505060a0880135915060c0880135905092959891949750929550565b600080604083850312156158ef57600080fd5b82356158fa81615461565b9150602083013561590a81615461565b809150509250929050565b634e487b7160e01b600052602160045260246000fd5b634e487b7160e01b600052601160045260246000fd5b600082198211156159545761595461592b565b500190565b634e487b7160e01b600052603260045260246000fd5b60006000198214156159835761598361592b565b5060010190565b634e487b7160e01b600052601260045260246000fd5b6000826159af576159af61598a565b500490565b6000826159c3576159c361598a565b500690565b600181811c908216806159dc57607f821691505b60208210811415610f1c57634e487b7160e01b600052602260045260246000fd5b6020808252601690820152751858d8dc9d59481a5b9d195c995cdd0819985a5b195960521b604082015260600190565b600060208284031215615a3f57600080fd5b81516117d781615764565b600080600060608486031215615a5f57600080fd5b8351615a6a81615461565b6020850151909350615a7b81615764565b604085015190925067ffffffffffffffff811115615a9857600080fd5b8401601f81018613615aa957600080fd5b8051615ab761554c82615516565b818152876020838501011115615acc57600080fd5b615add8260208301602086016153f6565b8093505050509250925092565b600060208284031215615afc57600080fd5b5051919050565b6001600160a01b039384168152919092166020820152604081019190915260600190565b600060208284031215615b3957600080fd5b81516117d781615461565b600082821015615b5657615b5661592b565b500390565b60008251615b6d8184602087016153f6565b9190910192915050565b60008060408385031215615b8a57600080fd5b505080516020909101519092909150565b6000816000190483118215151615615bb557615bb561592b565b50029056feddf252ad1be2c89b69c2b068fc378daa952ba7f163c4a11628f55a4df523b3efa164736f6c634300080a000a",
    "linkReferences": {}
  },
  "methodIdentifiers": {
    "_becomeImplementation(bytes)": "56e67728",
    "_prepare()": "1db78944",
    "_setAdminFee(uint256)": "91dd36c6",
    "_setImplementationSafe(address,bool,bytes)": "50d85b73",
    "_setInterestRateModel(address)": "f2b3abbd",
    "_setNameAndSymbol(string,string)": "34154d4c",
    "_setReserveFactor(uint256)": "fca7820b",
    "_withdrawAdminFees(uint256)": "a7b820df",
    "_withdrawFuseFees(uint256)": "a03dce8d",
    "accrualBlockNumber()": "6c540baf",
    "accrueInterest()": "a6afed95",
    "adminFeeMantissa()": "8d02d9a1",
    "allowance(address,address)": "dd62ed3e",
    "approve(address,uint256)": "095ea7b3",
    "balanceOf(address)": "70a08231",
    "balanceOfUnderlying(address)": "3af9e669",
    "borrow(uint256)": "c5ebeaec",
    "borrowBalanceCurrent(address)": "17bfdfbc",
    "borrowBalanceStored(address)": "95dd9193",
    "borrowIndex()": "aa5af0fd",
    "borrowRatePerBlock()": "f8f9da28",
    "comptroller()": "5fe3b567",
    "decimals()": "313ce567",
    "exchangeRateCurrent()": "bd6d894d",
    "exchangeRateStored()": "182df0f5",
    "feeSeizeShareMantissa()": "be99f119",
    "fuseAdmin()": "15761d51",
    "fuseFeeMantissa()": "dbfe7c19",
    "getAccountSnapshot(address)": "c37f68e2",
    "getCash()": "3b1d21a2",
    "implementation()": "5c60da1b",
    "initialize(address,address,address,string,string,uint256,uint256)": "a0b0d289",
    "initialize(address,address,address,uint256,string,string,uint8,uint256,uint256)": "219ef65c",
    "interestRateModel()": "f3fdb15a",
    "isCEther()": "ac784ddc",
    "isCToken()": "fe9c44ae",
    "liquidateBorrow(address,address)": "aae40a2a",
    "mint()": "1249c58b",
    "name()": "06fdde03",
    "protocolSeizeShareMantissa()": "6752e702",
    "redeem(uint256)": "db006a75",
    "redeemUnderlying(uint256)": "852a12e3",
    "repayBorrow()": "4e4d9fea",
    "repayBorrowBehalf(address)": "e5974619",
    "reserveFactorMantissa()": "173b9904",
    "seize(address,address,uint256)": "b2a02ff1",
    "supplyRatePerBlock()": "ae9d70b0",
    "symbol()": "95d89b41",
    "totalAdminFees()": "61feacff",
    "totalBorrows()": "47bd3718",
    "totalBorrowsCurrent()": "73acee98",
    "totalFuseFees()": "dc028ab1",
    "totalReserves()": "8f840ddd",
    "totalSupply()": "18160ddd",
    "transfer(address,uint256)": "a9059cbb",
    "transferFrom(address,address,uint256)": "23b872dd",
    "underlying()": "6f307dc3"
  }
}