{
  "address": "0xC34ecF4aeca8FfFe680875A23cD8E439D2c73b39",
  "abi": [
    {
      "inputs": [
        {
          "internalType": "address payable",
          "name": "_fuseAdmin",
          "type": "address"
        }
      ],
      "stateMutability": "nonpayable",
      "type": "constructor"
    },
    {
      "anonymous": false,
      "inputs": [
        {
          "indexed": false,
          "internalType": "string",
          "name": "action",
          "type": "string"
        },
        {
          "indexed": false,
          "internalType": "bool",
          "name": "pauseState",
          "type": "bool"
        }
      ],
      "name": "ActionPaused",
      "type": "event"
    },
    {
      "anonymous": false,
      "inputs": [
        {
          "indexed": false,
          "internalType": "contract CToken",
          "name": "cToken",
          "type": "address"
        },
        {
          "indexed": false,
          "internalType": "string",
          "name": "action",
          "type": "string"
        },
        {
          "indexed": false,
          "internalType": "bool",
          "name": "pauseState",
          "type": "bool"
        }
      ],
      "name": "ActionPaused",
      "type": "event"
    },
    {
      "anonymous": false,
      "inputs": [
        {
          "indexed": false,
          "internalType": "address",
          "name": "rewardsDistributor",
          "type": "address"
        }
      ],
      "name": "AddedRewardsDistributor",
      "type": "event"
    },
    {
      "anonymous": false,
      "inputs": [
        {
          "indexed": false,
          "internalType": "bool",
          "name": "enabled",
          "type": "bool"
        }
      ],
      "name": "AutoImplementationsToggled",
      "type": "event"
    },
    {
      "anonymous": false,
      "inputs": [
        {
          "indexed": false,
          "internalType": "uint256",
          "name": "error",
          "type": "uint256"
        },
        {
          "indexed": false,
          "internalType": "uint256",
          "name": "info",
          "type": "uint256"
        },
        {
          "indexed": false,
          "internalType": "uint256",
          "name": "detail",
          "type": "uint256"
        }
      ],
      "name": "Failure",
      "type": "event"
    },
    {
      "anonymous": false,
      "inputs": [
        {
          "indexed": false,
          "internalType": "contract CToken",
          "name": "cToken",
          "type": "address"
        },
        {
          "indexed": false,
          "internalType": "address",
          "name": "account",
          "type": "address"
        }
      ],
      "name": "MarketEntered",
      "type": "event"
    },
    {
      "anonymous": false,
      "inputs": [
        {
          "indexed": false,
          "internalType": "contract CToken",
          "name": "cToken",
          "type": "address"
        },
        {
          "indexed": false,
          "internalType": "address",
          "name": "account",
          "type": "address"
        }
      ],
      "name": "MarketExited",
      "type": "event"
    },
    {
      "anonymous": false,
      "inputs": [
        {
          "indexed": false,
          "internalType": "contract CToken",
          "name": "cToken",
          "type": "address"
        }
      ],
      "name": "MarketListed",
      "type": "event"
    },
    {
      "anonymous": false,
      "inputs": [
        {
          "indexed": false,
          "internalType": "contract CToken",
          "name": "cToken",
          "type": "address"
        }
      ],
      "name": "MarketUnlisted",
      "type": "event"
    },
    {
      "anonymous": false,
      "inputs": [
        {
          "indexed": true,
          "internalType": "contract CToken",
          "name": "cToken",
          "type": "address"
        },
        {
          "indexed": false,
          "internalType": "uint256",
          "name": "newBorrowCap",
          "type": "uint256"
        }
      ],
      "name": "NewBorrowCap",
      "type": "event"
    },
    {
      "anonymous": false,
      "inputs": [
        {
          "indexed": false,
          "internalType": "address",
          "name": "oldBorrowCapGuardian",
          "type": "address"
        },
        {
          "indexed": false,
          "internalType": "address",
          "name": "newBorrowCapGuardian",
          "type": "address"
        }
      ],
      "name": "NewBorrowCapGuardian",
      "type": "event"
    },
    {
      "anonymous": false,
      "inputs": [
        {
          "indexed": false,
          "internalType": "uint256",
          "name": "oldCloseFactorMantissa",
          "type": "uint256"
        },
        {
          "indexed": false,
          "internalType": "uint256",
          "name": "newCloseFactorMantissa",
          "type": "uint256"
        }
      ],
      "name": "NewCloseFactor",
      "type": "event"
    },
    {
      "anonymous": false,
      "inputs": [
        {
          "indexed": false,
          "internalType": "contract CToken",
          "name": "cToken",
          "type": "address"
        },
        {
          "indexed": false,
          "internalType": "uint256",
          "name": "oldCollateralFactorMantissa",
          "type": "uint256"
        },
        {
          "indexed": false,
          "internalType": "uint256",
          "name": "newCollateralFactorMantissa",
          "type": "uint256"
        }
      ],
      "name": "NewCollateralFactor",
      "type": "event"
    },
    {
      "anonymous": false,
      "inputs": [
        {
          "indexed": false,
          "internalType": "uint256",
          "name": "oldLiquidationIncentiveMantissa",
          "type": "uint256"
        },
        {
          "indexed": false,
          "internalType": "uint256",
          "name": "newLiquidationIncentiveMantissa",
          "type": "uint256"
        }
      ],
      "name": "NewLiquidationIncentive",
      "type": "event"
    },
    {
      "anonymous": false,
      "inputs": [
        {
          "indexed": false,
          "internalType": "address",
          "name": "oldPauseGuardian",
          "type": "address"
        },
        {
          "indexed": false,
          "internalType": "address",
          "name": "newPauseGuardian",
          "type": "address"
        }
      ],
      "name": "NewPauseGuardian",
      "type": "event"
    },
    {
      "anonymous": false,
      "inputs": [
        {
          "indexed": false,
          "internalType": "contract PriceOracle",
          "name": "oldPriceOracle",
          "type": "address"
        },
        {
          "indexed": false,
          "internalType": "contract PriceOracle",
          "name": "newPriceOracle",
          "type": "address"
        }
      ],
      "name": "NewPriceOracle",
      "type": "event"
    },
    {
      "anonymous": false,
      "inputs": [
        {
          "indexed": true,
          "internalType": "contract CToken",
          "name": "cToken",
          "type": "address"
        },
        {
          "indexed": false,
          "internalType": "uint256",
          "name": "newSupplyCap",
          "type": "uint256"
        }
      ],
      "name": "NewSupplyCap",
      "type": "event"
    },
    {
      "anonymous": false,
      "inputs": [
        {
          "indexed": false,
          "internalType": "bool",
          "name": "enforce",
          "type": "bool"
        }
      ],
      "name": "WhitelistEnforcementChanged",
      "type": "event"
    },
    {
      "inputs": [
        {
          "internalType": "address",
          "name": "distributor",
          "type": "address"
        }
      ],
      "name": "_addRewardsDistributor",
      "outputs": [
        {
          "internalType": "uint256",
          "name": "",
          "type": "uint256"
        }
      ],
      "stateMutability": "nonpayable",
      "type": "function"
    },
    {
      "inputs": [],
      "name": "_afterNonReentrant",
      "outputs": [],
      "stateMutability": "nonpayable",
      "type": "function"
    },
    {
      "inputs": [
        {
          "internalType": "contract Unitroller",
          "name": "unitroller",
          "type": "address"
        }
      ],
      "name": "_become",
      "outputs": [],
      "stateMutability": "nonpayable",
      "type": "function"
    },
    {
      "inputs": [],
      "name": "_becomeImplementation",
      "outputs": [],
      "stateMutability": "nonpayable",
      "type": "function"
    },
    {
      "inputs": [],
      "name": "_beforeNonReentrant",
      "outputs": [],
      "stateMutability": "nonpayable",
      "type": "function"
    },
    {
      "inputs": [],
      "name": "_borrowGuardianPaused",
      "outputs": [
        {
          "internalType": "bool",
          "name": "",
          "type": "bool"
        }
      ],
      "stateMutability": "view",
      "type": "function"
    },
    {
      "inputs": [
        {
          "internalType": "bool",
          "name": "isCEther",
          "type": "bool"
        },
        {
          "internalType": "bytes",
          "name": "constructorData",
          "type": "bytes"
        },
        {
          "internalType": "uint256",
          "name": "collateralFactorMantissa",
          "type": "uint256"
        }
      ],
      "name": "_deployMarket",
      "outputs": [
        {
          "internalType": "uint256",
          "name": "",
          "type": "uint256"
        }
      ],
      "stateMutability": "nonpayable",
      "type": "function"
    },
    {
      "inputs": [],
      "name": "_mintGuardianPaused",
      "outputs": [
        {
          "internalType": "bool",
          "name": "",
          "type": "bool"
        }
      ],
      "stateMutability": "view",
      "type": "function"
    },
    {
      "inputs": [
        {
          "internalType": "address",
          "name": "newBorrowCapGuardian",
          "type": "address"
        }
      ],
      "name": "_setBorrowCapGuardian",
      "outputs": [],
      "stateMutability": "nonpayable",
      "type": "function"
    },
    {
      "inputs": [
        {
          "internalType": "contract CToken",
          "name": "cToken",
          "type": "address"
        },
        {
          "internalType": "bool",
          "name": "state",
          "type": "bool"
        }
      ],
      "name": "_setBorrowPaused",
      "outputs": [
        {
          "internalType": "bool",
          "name": "",
          "type": "bool"
        }
      ],
      "stateMutability": "nonpayable",
      "type": "function"
    },
    {
      "inputs": [
        {
          "internalType": "uint256",
          "name": "newCloseFactorMantissa",
          "type": "uint256"
        }
      ],
      "name": "_setCloseFactor",
      "outputs": [
        {
          "internalType": "uint256",
          "name": "",
          "type": "uint256"
        }
      ],
      "stateMutability": "nonpayable",
      "type": "function"
    },
    {
      "inputs": [
        {
          "internalType": "contract CToken",
          "name": "cToken",
          "type": "address"
        },
        {
          "internalType": "uint256",
          "name": "newCollateralFactorMantissa",
          "type": "uint256"
        }
      ],
      "name": "_setCollateralFactor",
      "outputs": [
        {
          "internalType": "uint256",
          "name": "",
          "type": "uint256"
        }
      ],
      "stateMutability": "nonpayable",
      "type": "function"
    },
    {
      "inputs": [
        {
          "internalType": "uint256",
          "name": "newLiquidationIncentiveMantissa",
          "type": "uint256"
        }
      ],
      "name": "_setLiquidationIncentive",
      "outputs": [
        {
          "internalType": "uint256",
          "name": "",
          "type": "uint256"
        }
      ],
      "stateMutability": "nonpayable",
      "type": "function"
    },
    {
      "inputs": [
        {
          "internalType": "contract CToken[]",
          "name": "cTokens",
          "type": "address[]"
        },
        {
          "internalType": "uint256[]",
          "name": "newBorrowCaps",
          "type": "uint256[]"
        }
      ],
      "name": "_setMarketBorrowCaps",
      "outputs": [],
      "stateMutability": "nonpayable",
      "type": "function"
    },
    {
      "inputs": [
        {
          "internalType": "contract CToken[]",
          "name": "cTokens",
          "type": "address[]"
        },
        {
          "internalType": "uint256[]",
          "name": "newSupplyCaps",
          "type": "uint256[]"
        }
      ],
      "name": "_setMarketSupplyCaps",
      "outputs": [],
      "stateMutability": "nonpayable",
      "type": "function"
    },
    {
      "inputs": [
        {
          "internalType": "contract CToken",
          "name": "cToken",
          "type": "address"
        },
        {
          "internalType": "bool",
          "name": "state",
          "type": "bool"
        }
      ],
      "name": "_setMintPaused",
      "outputs": [
        {
          "internalType": "bool",
          "name": "",
          "type": "bool"
        }
      ],
      "stateMutability": "nonpayable",
      "type": "function"
    },
    {
      "inputs": [
        {
          "internalType": "address",
          "name": "newPauseGuardian",
          "type": "address"
        }
      ],
      "name": "_setPauseGuardian",
      "outputs": [
        {
          "internalType": "uint256",
          "name": "",
          "type": "uint256"
        }
      ],
      "stateMutability": "nonpayable",
      "type": "function"
    },
    {
      "inputs": [
        {
          "internalType": "contract PriceOracle",
          "name": "newOracle",
          "type": "address"
        }
      ],
      "name": "_setPriceOracle",
      "outputs": [
        {
          "internalType": "uint256",
          "name": "",
          "type": "uint256"
        }
      ],
      "stateMutability": "nonpayable",
      "type": "function"
    },
    {
      "inputs": [
        {
          "internalType": "bool",
          "name": "state",
          "type": "bool"
        }
      ],
      "name": "_setSeizePaused",
      "outputs": [
        {
          "internalType": "bool",
          "name": "",
          "type": "bool"
        }
      ],
      "stateMutability": "nonpayable",
      "type": "function"
    },
    {
      "inputs": [
        {
          "internalType": "bool",
          "name": "state",
          "type": "bool"
        }
      ],
      "name": "_setTransferPaused",
      "outputs": [
        {
          "internalType": "bool",
          "name": "",
          "type": "bool"
        }
      ],
      "stateMutability": "nonpayable",
      "type": "function"
    },
    {
      "inputs": [
        {
          "internalType": "bool",
          "name": "enforce",
          "type": "bool"
        }
      ],
      "name": "_setWhitelistEnforcement",
      "outputs": [
        {
          "internalType": "uint256",
          "name": "",
          "type": "uint256"
        }
      ],
      "stateMutability": "nonpayable",
      "type": "function"
    },
    {
      "inputs": [
        {
          "internalType": "address[]",
          "name": "suppliers",
          "type": "address[]"
        },
        {
          "internalType": "bool[]",
          "name": "statuses",
          "type": "bool[]"
        }
      ],
      "name": "_setWhitelistStatuses",
      "outputs": [
        {
          "internalType": "uint256",
          "name": "",
          "type": "uint256"
        }
      ],
      "stateMutability": "nonpayable",
      "type": "function"
    },
    {
      "inputs": [
        {
          "internalType": "bool",
          "name": "enabled",
          "type": "bool"
        }
      ],
      "name": "_toggleAutoImplementations",
      "outputs": [
        {
          "internalType": "uint256",
          "name": "",
          "type": "uint256"
        }
      ],
      "stateMutability": "nonpayable",
      "type": "function"
    },
    {
      "inputs": [
        {
          "internalType": "contract CToken",
          "name": "cToken",
          "type": "address"
        }
      ],
      "name": "_unsupportMarket",
      "outputs": [
        {
          "internalType": "uint256",
          "name": "",
          "type": "uint256"
        }
      ],
      "stateMutability": "nonpayable",
      "type": "function"
    },
    {
      "inputs": [
        {
          "internalType": "address",
          "name": "",
          "type": "address"
        },
        {
          "internalType": "uint256",
          "name": "",
          "type": "uint256"
        }
      ],
      "name": "accountAssets",
      "outputs": [
        {
          "internalType": "contract CToken",
          "name": "",
          "type": "address"
        }
      ],
      "stateMutability": "view",
      "type": "function"
    },
    {
      "inputs": [
        {
          "internalType": "address",
          "name": "flywheelAddress",
          "type": "address"
        }
      ],
      "name": "addNonAccruingFlywheel",
      "outputs": [
        {
          "internalType": "bool",
          "name": "",
          "type": "bool"
        }
      ],
      "stateMutability": "nonpayable",
      "type": "function"
    },
    {
      "inputs": [],
      "name": "admin",
      "outputs": [
        {
          "internalType": "address",
          "name": "",
          "type": "address"
        }
      ],
      "stateMutability": "view",
      "type": "function"
    },
    {
      "inputs": [],
      "name": "adminHasRights",
      "outputs": [
        {
          "internalType": "bool",
          "name": "",
          "type": "bool"
        }
      ],
      "stateMutability": "view",
      "type": "function"
    },
    {
      "inputs": [
        {
          "internalType": "uint256",
          "name": "",
          "type": "uint256"
        }
      ],
      "name": "allBorrowers",
      "outputs": [
        {
          "internalType": "address",
          "name": "",
          "type": "address"
        }
      ],
      "stateMutability": "view",
      "type": "function"
    },
    {
      "inputs": [
        {
          "internalType": "uint256",
          "name": "",
          "type": "uint256"
        }
      ],
      "name": "allMarkets",
      "outputs": [
        {
          "internalType": "contract CToken",
          "name": "",
          "type": "address"
        }
      ],
      "stateMutability": "view",
      "type": "function"
    },
    {
      "inputs": [],
      "name": "autoImplementation",
      "outputs": [
        {
          "internalType": "bool",
          "name": "",
          "type": "bool"
        }
      ],
      "stateMutability": "view",
      "type": "function"
    },
    {
      "inputs": [
        {
          "internalType": "address",
          "name": "cToken",
          "type": "address"
        },
        {
          "internalType": "address",
          "name": "borrower",
          "type": "address"
        },
        {
          "internalType": "uint256",
          "name": "borrowAmount",
          "type": "uint256"
        }
      ],
      "name": "borrowAllowed",
      "outputs": [
        {
          "internalType": "uint256",
          "name": "",
          "type": "uint256"
        }
      ],
      "stateMutability": "nonpayable",
      "type": "function"
    },
    {
      "inputs": [],
      "name": "borrowCapGuardian",
      "outputs": [
        {
          "internalType": "address",
          "name": "",
          "type": "address"
        }
      ],
      "stateMutability": "view",
      "type": "function"
    },
    {
      "inputs": [
        {
          "internalType": "address",
          "name": "",
          "type": "address"
        }
      ],
      "name": "borrowCaps",
      "outputs": [
        {
          "internalType": "uint256",
          "name": "",
          "type": "uint256"
        }
      ],
      "stateMutability": "view",
      "type": "function"
    },
    {
      "inputs": [
        {
          "internalType": "address",
          "name": "",
          "type": "address"
        }
      ],
      "name": "borrowGuardianPaused",
      "outputs": [
        {
          "internalType": "bool",
          "name": "",
          "type": "bool"
        }
      ],
      "stateMutability": "view",
      "type": "function"
    },
    {
      "inputs": [
        {
          "internalType": "address",
          "name": "cToken",
          "type": "address"
        },
        {
          "internalType": "uint256",
          "name": "accountBorrowsNew",
          "type": "uint256"
        }
      ],
      "name": "borrowWithinLimits",
      "outputs": [
        {
          "internalType": "uint256",
          "name": "",
          "type": "uint256"
        }
      ],
      "stateMutability": "nonpayable",
      "type": "function"
    },
    {
      "inputs": [
        {
          "internalType": "address",
          "name": "",
          "type": "address"
        }
      ],
      "name": "cTokensByUnderlying",
      "outputs": [
        {
          "internalType": "contract CToken",
          "name": "",
          "type": "address"
        }
      ],
      "stateMutability": "view",
      "type": "function"
    },
    {
      "inputs": [
        {
          "internalType": "address",
          "name": "account",
          "type": "address"
        },
        {
          "internalType": "contract CToken",
          "name": "cToken",
          "type": "address"
        }
      ],
      "name": "checkMembership",
      "outputs": [
        {
          "internalType": "bool",
          "name": "",
          "type": "bool"
        }
      ],
      "stateMutability": "view",
      "type": "function"
    },
    {
      "inputs": [],
      "name": "closeFactorMantissa",
      "outputs": [
        {
          "internalType": "uint256",
          "name": "",
          "type": "uint256"
        }
      ],
      "stateMutability": "view",
      "type": "function"
    },
    {
      "inputs": [],
      "name": "comptrollerImplementation",
      "outputs": [
        {
          "internalType": "address",
          "name": "",
          "type": "address"
        }
      ],
      "stateMutability": "view",
      "type": "function"
    },
    {
      "inputs": [],
      "name": "enforceWhitelist",
      "outputs": [
        {
          "internalType": "bool",
          "name": "",
          "type": "bool"
        }
      ],
      "stateMutability": "view",
      "type": "function"
    },
    {
      "inputs": [
        {
          "internalType": "address[]",
          "name": "cTokens",
          "type": "address[]"
        }
      ],
      "name": "enterMarkets",
      "outputs": [
        {
          "internalType": "uint256[]",
          "name": "",
          "type": "uint256[]"
        }
      ],
      "stateMutability": "nonpayable",
      "type": "function"
    },
    {
      "inputs": [
        {
          "internalType": "address",
          "name": "cTokenAddress",
          "type": "address"
        }
      ],
      "name": "exitMarket",
      "outputs": [
        {
          "internalType": "uint256",
          "name": "",
          "type": "uint256"
        }
      ],
      "stateMutability": "nonpayable",
      "type": "function"
    },
    {
      "inputs": [],
      "name": "fuseAdmin",
      "outputs": [
        {
          "internalType": "address payable",
          "name": "",
          "type": "address"
        }
      ],
      "stateMutability": "view",
      "type": "function"
    },
    {
      "inputs": [],
      "name": "fuseAdminHasRights",
      "outputs": [
        {
          "internalType": "bool",
          "name": "",
          "type": "bool"
        }
      ],
      "stateMutability": "view",
      "type": "function"
    },
    {
      "inputs": [
        {
          "internalType": "address",
          "name": "account",
          "type": "address"
        }
      ],
      "name": "getAccountLiquidity",
      "outputs": [
        {
          "internalType": "uint256",
          "name": "",
          "type": "uint256"
        },
        {
          "internalType": "uint256",
          "name": "",
          "type": "uint256"
        },
        {
          "internalType": "uint256",
          "name": "",
          "type": "uint256"
        }
      ],
      "stateMutability": "view",
      "type": "function"
    },
    {
      "inputs": [],
      "name": "getAllBorrowers",
      "outputs": [
        {
          "internalType": "address[]",
          "name": "",
          "type": "address[]"
        }
      ],
      "stateMutability": "view",
      "type": "function"
    },
    {
      "inputs": [],
      "name": "getAllMarkets",
      "outputs": [
        {
          "internalType": "contract CToken[]",
          "name": "",
          "type": "address[]"
        }
      ],
      "stateMutability": "view",
      "type": "function"
    },
    {
      "inputs": [
        {
          "internalType": "address",
          "name": "account",
          "type": "address"
        }
      ],
      "name": "getAssetsIn",
      "outputs": [
        {
          "internalType": "contract CToken[]",
          "name": "",
          "type": "address[]"
        }
      ],
      "stateMutability": "view",
      "type": "function"
    },
    {
      "inputs": [
        {
          "internalType": "address",
          "name": "account",
          "type": "address"
        },
        {
          "internalType": "address",
          "name": "cTokenModify",
          "type": "address"
        },
        {
          "internalType": "uint256",
          "name": "redeemTokens",
          "type": "uint256"
        },
        {
          "internalType": "uint256",
          "name": "borrowAmount",
          "type": "uint256"
        }
      ],
      "name": "getHypotheticalAccountLiquidity",
      "outputs": [
        {
          "internalType": "uint256",
          "name": "",
          "type": "uint256"
        },
        {
          "internalType": "uint256",
          "name": "",
          "type": "uint256"
        },
        {
          "internalType": "uint256",
          "name": "",
          "type": "uint256"
        }
      ],
      "stateMutability": "view",
      "type": "function"
    },
    {
      "inputs": [
        {
          "internalType": "address",
          "name": "account",
          "type": "address"
        },
        {
          "internalType": "address",
          "name": "cToken",
          "type": "address"
        },
        {
          "internalType": "bool",
          "name": "isBorrow",
          "type": "bool"
        }
      ],
      "name": "getMaxRedeemOrBorrow",
      "outputs": [
        {
          "internalType": "uint256",
          "name": "",
          "type": "uint256"
        }
      ],
      "stateMutability": "nonpayable",
      "type": "function"
    },
    {
      "inputs": [],
      "name": "getRewardsDistributors",
      "outputs": [
        {
          "internalType": "address[]",
          "name": "",
          "type": "address[]"
        }
      ],
      "stateMutability": "view",
      "type": "function"
    },
    {
      "inputs": [],
      "name": "getWhitelist",
      "outputs": [
        {
          "internalType": "address[]",
          "name": "",
          "type": "address[]"
        }
      ],
      "stateMutability": "view",
      "type": "function"
    },
    {
      "inputs": [],
      "name": "isComptroller",
      "outputs": [
        {
          "internalType": "bool",
          "name": "",
          "type": "bool"
        }
      ],
      "stateMutability": "view",
      "type": "function"
    },
    {
      "inputs": [
        {
          "internalType": "contract CToken",
          "name": "cToken",
          "type": "address"
        }
      ],
      "name": "isDeprecated",
      "outputs": [
        {
          "internalType": "bool",
          "name": "",
          "type": "bool"
        }
      ],
      "stateMutability": "view",
      "type": "function"
    },
    {
      "inputs": [
        {
          "internalType": "address",
          "name": "user",
          "type": "address"
        }
      ],
      "name": "isUserOfPool",
      "outputs": [
        {
          "internalType": "bool",
          "name": "",
          "type": "bool"
        }
      ],
      "stateMutability": "view",
      "type": "function"
    },
    {
      "inputs": [
        {
          "internalType": "address",
          "name": "cTokenBorrowed",
          "type": "address"
        },
        {
          "internalType": "address",
          "name": "cTokenCollateral",
          "type": "address"
        },
        {
          "internalType": "address",
          "name": "liquidator",
          "type": "address"
        },
        {
          "internalType": "address",
          "name": "borrower",
          "type": "address"
        },
        {
          "internalType": "uint256",
          "name": "repayAmount",
          "type": "uint256"
        }
      ],
      "name": "liquidateBorrowAllowed",
      "outputs": [
        {
          "internalType": "uint256",
          "name": "",
          "type": "uint256"
        }
      ],
      "stateMutability": "nonpayable",
      "type": "function"
    },
    {
      "inputs": [
        {
          "internalType": "address",
          "name": "cTokenBorrowed",
          "type": "address"
        },
        {
          "internalType": "address",
          "name": "cTokenCollateral",
          "type": "address"
        },
        {
          "internalType": "uint256",
          "name": "actualRepayAmount",
          "type": "uint256"
        }
      ],
      "name": "liquidateCalculateSeizeTokens",
      "outputs": [
        {
          "internalType": "uint256",
          "name": "",
          "type": "uint256"
        },
        {
          "internalType": "uint256",
          "name": "",
          "type": "uint256"
        }
      ],
      "stateMutability": "view",
      "type": "function"
    },
    {
      "inputs": [],
      "name": "liquidationIncentiveMantissa",
      "outputs": [
        {
          "internalType": "uint256",
          "name": "",
          "type": "uint256"
        }
      ],
      "stateMutability": "view",
      "type": "function"
    },
    {
      "inputs": [
        {
          "internalType": "address",
          "name": "",
          "type": "address"
        }
      ],
      "name": "markets",
      "outputs": [
        {
          "internalType": "bool",
          "name": "isListed",
          "type": "bool"
        },
        {
          "internalType": "uint256",
          "name": "collateralFactorMantissa",
          "type": "uint256"
        }
      ],
      "stateMutability": "view",
      "type": "function"
    },
    {
      "inputs": [
        {
          "internalType": "address",
          "name": "cToken",
          "type": "address"
        },
        {
          "internalType": "address",
          "name": "minter",
          "type": "address"
        },
        {
          "internalType": "uint256",
          "name": "mintAmount",
          "type": "uint256"
        }
      ],
      "name": "mintAllowed",
      "outputs": [
        {
          "internalType": "uint256",
          "name": "",
          "type": "uint256"
        }
      ],
      "stateMutability": "nonpayable",
      "type": "function"
    },
    {
      "inputs": [
        {
          "internalType": "address",
          "name": "",
          "type": "address"
        }
      ],
      "name": "mintGuardianPaused",
      "outputs": [
        {
          "internalType": "bool",
          "name": "",
          "type": "bool"
        }
      ],
      "stateMutability": "view",
      "type": "function"
    },
    {
      "inputs": [
        {
          "internalType": "uint256",
          "name": "",
          "type": "uint256"
        }
      ],
      "name": "nonAccruingRewardsDistributors",
      "outputs": [
        {
          "internalType": "address",
          "name": "",
          "type": "address"
        }
      ],
      "stateMutability": "view",
      "type": "function"
    },
    {
      "inputs": [],
      "name": "oracle",
      "outputs": [
        {
          "internalType": "contract PriceOracle",
          "name": "",
          "type": "address"
        }
      ],
      "stateMutability": "view",
      "type": "function"
    },
    {
      "inputs": [],
      "name": "pauseGuardian",
      "outputs": [
        {
          "internalType": "address",
          "name": "",
          "type": "address"
        }
      ],
      "stateMutability": "view",
      "type": "function"
    },
    {
      "inputs": [],
      "name": "pendingAdmin",
      "outputs": [
        {
          "internalType": "address",
          "name": "",
          "type": "address"
        }
      ],
      "stateMutability": "view",
      "type": "function"
    },
    {
      "inputs": [],
      "name": "pendingComptrollerImplementation",
      "outputs": [
        {
          "internalType": "address",
          "name": "",
          "type": "address"
        }
      ],
      "stateMutability": "view",
      "type": "function"
    },
    {
      "inputs": [
        {
          "internalType": "address",
          "name": "cToken",
          "type": "address"
        },
        {
          "internalType": "address",
          "name": "redeemer",
          "type": "address"
        },
        {
          "internalType": "uint256",
          "name": "redeemTokens",
          "type": "uint256"
        }
      ],
      "name": "redeemAllowed",
      "outputs": [
        {
          "internalType": "uint256",
          "name": "",
          "type": "uint256"
        }
      ],
      "stateMutability": "nonpayable",
      "type": "function"
    },
    {
      "inputs": [
        {
          "internalType": "address",
          "name": "cToken",
          "type": "address"
        },
        {
          "internalType": "address",
          "name": "redeemer",
          "type": "address"
        },
        {
          "internalType": "uint256",
          "name": "redeemAmount",
          "type": "uint256"
        },
        {
          "internalType": "uint256",
          "name": "redeemTokens",
          "type": "uint256"
        }
      ],
      "name": "redeemVerify",
      "outputs": [],
      "stateMutability": "nonpayable",
      "type": "function"
    },
    {
      "inputs": [
        {
          "internalType": "address",
          "name": "cToken",
          "type": "address"
        },
        {
          "internalType": "address",
          "name": "payer",
          "type": "address"
        },
        {
          "internalType": "address",
          "name": "borrower",
          "type": "address"
        },
        {
          "internalType": "uint256",
          "name": "repayAmount",
          "type": "uint256"
        }
      ],
      "name": "repayBorrowAllowed",
      "outputs": [
        {
          "internalType": "uint256",
          "name": "",
          "type": "uint256"
        }
      ],
      "stateMutability": "nonpayable",
      "type": "function"
    },
    {
      "inputs": [
        {
          "internalType": "uint256",
          "name": "",
          "type": "uint256"
        }
      ],
      "name": "rewardsDistributors",
      "outputs": [
        {
          "internalType": "address",
          "name": "",
          "type": "address"
        }
      ],
      "stateMutability": "view",
      "type": "function"
    },
    {
      "inputs": [
        {
          "internalType": "address",
          "name": "cTokenCollateral",
          "type": "address"
        },
        {
          "internalType": "address",
          "name": "cTokenBorrowed",
          "type": "address"
        },
        {
          "internalType": "address",
          "name": "liquidator",
          "type": "address"
        },
        {
          "internalType": "address",
          "name": "borrower",
          "type": "address"
        },
        {
          "internalType": "uint256",
          "name": "seizeTokens",
          "type": "uint256"
        }
      ],
      "name": "seizeAllowed",
      "outputs": [
        {
          "internalType": "uint256",
          "name": "",
          "type": "uint256"
        }
      ],
      "stateMutability": "nonpayable",
      "type": "function"
    },
    {
      "inputs": [],
      "name": "seizeGuardianPaused",
      "outputs": [
        {
          "internalType": "bool",
          "name": "",
          "type": "bool"
        }
      ],
      "stateMutability": "view",
      "type": "function"
    },
    {
      "inputs": [
        {
          "internalType": "address",
          "name": "",
          "type": "address"
        }
      ],
      "name": "suppliers",
      "outputs": [
        {
          "internalType": "bool",
          "name": "",
          "type": "bool"
        }
      ],
      "stateMutability": "view",
      "type": "function"
    },
    {
      "inputs": [
        {
          "internalType": "address",
          "name": "",
          "type": "address"
        }
      ],
      "name": "supplyCaps",
      "outputs": [
        {
          "internalType": "uint256",
          "name": "",
          "type": "uint256"
        }
      ],
      "stateMutability": "view",
      "type": "function"
    },
    {
      "inputs": [
        {
          "internalType": "address",
          "name": "cToken",
          "type": "address"
        },
        {
          "internalType": "address",
          "name": "src",
          "type": "address"
        },
        {
          "internalType": "address",
          "name": "dst",
          "type": "address"
        },
        {
          "internalType": "uint256",
          "name": "transferTokens",
          "type": "uint256"
        }
      ],
      "name": "transferAllowed",
      "outputs": [
        {
          "internalType": "uint256",
          "name": "",
          "type": "uint256"
        }
      ],
      "stateMutability": "nonpayable",
      "type": "function"
    },
    {
      "inputs": [],
      "name": "transferGuardianPaused",
      "outputs": [
        {
          "internalType": "bool",
          "name": "",
          "type": "bool"
        }
      ],
      "stateMutability": "view",
      "type": "function"
    },
    {
      "inputs": [
        {
          "internalType": "address",
          "name": "",
          "type": "address"
        }
      ],
      "name": "whitelist",
      "outputs": [
        {
          "internalType": "bool",
          "name": "",
          "type": "bool"
        }
      ],
      "stateMutability": "view",
      "type": "function"
    },
    {
      "inputs": [
        {
          "internalType": "uint256",
          "name": "",
          "type": "uint256"
        }
      ],
      "name": "whitelistArray",
      "outputs": [
        {
          "internalType": "address",
          "name": "",
          "type": "address"
        }
      ],
      "stateMutability": "view",
      "type": "function"
    }
  ],
  "transactionHash": "0x1b14926c79889918228ec7490994edb5a9816dad49d3a8614654fb07000296ec",
  "args": [
    "0xf656D243a23A0987329ac6522292f4104A7388e1"
  ],
  "numDeployments": 6,
  "bytecode": {
    "object": "0x60806040526002805461ffff60a01b191661010160a01b1790553480156200002657600080fd5b50604051620060ac380380620060ac83398101604081905262000049916200006f565b600080546001600160a01b0319166001600160a01b0392909216919091179055620000a1565b6000602082840312156200008257600080fd5b81516001600160a01b03811681146200009a57600080fd5b9392505050565b615ffb80620000b16000396000f3fe608060405234801561001057600080fd5b50600436106103845760003560e01c80627e3dd21461038957806302c3bcbb146103a65780630a755ec2146103d457806315761d51146103e857806316dc15fe1461040857806318c882a51461042b5780631976828e1461043e5780631d504dc61461045157806321af45691461046657806324008a621461047e57806324a3d6221461049157806326782247146104a45780632d70db78146104b75780632f1069ba146104ca578063317b0b77146104de57806331ff47fa146104f157806332abcdbe1461051a5780633605b51b1461052f578063391957d7146105375780633bcf7ec11461054a5780633c94786f1461055d5780634a584432146105715780634ada90af146105915780634e79238f1461059a5780634ef4c3e1146105bc5780634fd42e17146105cf57806351a485e4146105e257806351dff989146105f557806352d84d1e1461060857806355ee1fe11461061b5780635d72de621461062e5780635ec88c79146106365780635f5af1aa146106495780635fc7e71e1461065c578063607ef6c11461066f578063632e514214610682578063692fd2a91461068a5780636bd02b8a1461069d5780636d154ea5146106b0578063731f0c2b146106d35780637515bafa146106f6578063779b2294146107095780637dc0d1d01461071c578063819605a81461072f57806387f76303146107425780638e8f294b146107565780638ebf63641461079a578063929fe9a1146107ad57806394543c15146107ee578063952adf5a146108015780639b19251a14610814578063aba35b9814610837578063abfceffc1461084a578063ac0b0bb71461085d578063b0772d0b14610871578063b095721014610879578063b9b5b15314610886578063bb82aa5e14610899578063bdcdc258146108ac578063c2998238146108bf578063c488847b146108df578063c6c5b0dd14610907578063c8c9c9751461091a578063c90c20b11461092d578063d01f63f514610935578063d02f73511461093d578063d251fefc14610950578063d533316614610963578063d9e0ea6b14610976578063da3d454c14610989578063dce154491461099c578063dcfbc0c7146109af578063dd5cd22c146109c2578063e4028eee146109cf578063e6653f3d146109e2578063e8755446146109f6578063eabe7d91146109ff578063ede4edd014610a12578063f851a44014610a25575b600080fd5b610391600181565b60405190151581526020015b60405180910390f35b6103c66103b43660046156bc565b601a6020526000908152604090205481565b60405190815260200161039d565b60025461039190600160a81b900460ff1681565b6000546103fb906001600160a01b031681565b60405161039d91906156d9565b6103916104163660046156bc565b600f6020526000908152604090205460ff1681565b6103916104393660046156fb565b610a38565b6103c661044c366004615734565b610b5b565b61046461045f3660046156bc565b610d5e565b005b6018546103fb9061010090046001600160a01b031681565b6103c661048c36600461577f565b61101b565b6015546103fb906001600160a01b031681565b6002546103fb906001600160a01b031681565b6103916104c53660046157d0565b61105d565b60025461039190600160a01b900460ff1681565b6103c66104ec3660046157ed565b61112e565b6103fb6104ff3660046156bc565b6010602052600090815260409020546001600160a01b031681565b610522611202565b60405161039d9190615806565b610522611264565b6104646105453660046156bc565b6113cb565b6103916105583660046156fb565b61149d565b60155461039190600160a01b900460ff1681565b6103c661057f3660046156bc565b60196020526000908152604090205481565b6103c660075481565b6105ad6105a8366004615853565b6115a8565b60405161039d93929190615899565b6103c66105ca3660046158af565b6115e8565b6103c66105dd3660046157ed565b6119b4565b6104646105f0366004615934565b611a70565b610464610603366004615853565b611c21565b6103fb6106163660046157ed565b611c76565b6103c66106293660046156bc565b611ca0565b610464611d1e565b6105ad6106443660046156bc565b611db4565b6103c66106573660046156bc565b611def565b6103c661066a36600461599f565b611e5b565b61046461067d366004615934565b61202a565b6104646121d2565b6103916106983660046156bc565b612264565b6103fb6106ab3660046157ed565b61251f565b6103916106be3660046156bc565b60176020526000908152604090205460ff1681565b6103916106e13660046156bc565b60166020526000908152604090205460ff1681565b6103fb6107043660046157ed565b61252f565b6103c6610717366004615a03565b61253f565b6005546103fb906001600160a01b031681565b6103c661073d3660046156bc565b61269d565b60155461039190600160b01b900460ff1681565b6107836107643660046156bc565b600a602052600090815260409020805460019091015460ff9091169082565b60408051921515835260208301919091520161039d565b6103916107a83660046157d0565b612a55565b6103916107bb366004615a2f565b6001600160a01b038082166000908152600a60209081526040808320938616835260029093019052205460ff1692915050565b6103916107fc3660046156bc565b612b1d565b6103c661080f3660046157d0565b612c87565b6103916108223660046156bc565b60126020526000908152604090205460ff1681565b6103c6610845366004615a5d565b612d0a565b6105226108583660046156bc565b612e7c565b60155461039190600160b81b900460ff1681565b610522612ef2565b6011546103919060ff1681565b6103c66108943660046156bc565b612f52565b6003546103fb906001600160a01b031681565b6103c66108ba36600461577f565b613111565b6108d26108cd366004615afd565b613196565b60405161039d9190615bb5565b6108f26108ed3660046158af565b61325d565b6040805192835260208301919091520161039d565b6103fb6109153660046157ed565b613469565b6103c6610928366004615934565b613479565b610464613720565b6105226137fd565b6103c661094b36600461599f565b61385d565b6103fb61095e3660046157ed565b6139e6565b6103c66109713660046157d0565b6139f6565b6103916109843660046156bc565b613a6a565b6103c66109973660046158af565b613aeb565b6103fb6109aa366004615a03565b613e9b565b6004546103fb906001600160a01b031681565b6018546103919060ff1681565b6103c66109dd366004615a03565b613ed3565b60155461039190600160a81b900460ff1681565b6103c660065481565b6103c6610a0d3660046158af565b614061565b6103c6610a203660046156bc565b61407e565b6001546103fb906001600160a01b031681565b6001600160a01b0382166000908152600a602052604081205460ff16610a795760405162461bcd60e51b8152600401610a7090615bed565b60405180910390fd5b6015546001600160a01b0316331480610a955750610a956144fe565b610ab15760405162461bcd60e51b8152600401610a7090615c35565b610ab96144fe565b80610ac657506001821515145b610ae25760405162461bcd60e51b8152600401610a7090615c7c565b6001600160a01b038316600081815260176020908152604091829020805460ff19168615159081179091558251938452606091840182905260069184019190915265426f72726f7760d01b608084015290820152600080516020615fcf8339815191529060a0015b60405180910390a150805b92915050565b604051633af9e66960e01b8152600090839082906001600160a01b03831690633af9e66990610b8e9089906004016156d9565b6020604051808303816000875af1158015610bad573d6000803e3d6000fd5b505050506040513d601f19601f82011682018060405250810190610bd19190615cac565b90506000806000610be189614552565b919450925090506000836015811115610bfc57610bfc615cc5565b14610c5b5760405162461bcd60e51b815260206004820152602960248201527f6572726f72207768656e2063616c63756c6174696e67206163636f756e74206c60448201526834b8bab4b234ba3c9760b91b6064820152608401610a70565b8015610c6f57600095505050505050610d57565b600087158015610ca957506001600160a01b038087166000908152600a60209081526040808320938e16835260029093019052205460ff16155b15610cb5575083610cd7565b610cc083878a614572565b905087158015610ccf57508085105b15610cd75750835b6000866001600160a01b0316633b1d21a26040518163ffffffff1660e01b8152600401602060405180830381865afa158015610d17573d6000803e3d6000fd5b505050506040513d601f19601f82011682018060405250810190610d3b9190615cac565b905080821115610d4b5780610d4d565b815b9750505050505050505b9392505050565b6000546001600160a01b031633148015610dd55750806001600160a01b0316632f1069ba6040518163ffffffff1660e01b8152600401602060405180830381865afa158015610db1573d6000803e3d6000fd5b505050506040513d601f19601f82011682018060405250810190610dd59190615cdb565b80610eba5750806001600160a01b031663f851a4406040518163ffffffff1660e01b8152600401602060405180830381865afa158015610e19573d6000803e3d6000fd5b505050506040513d601f19601f82011682018060405250810190610e3d9190615cf8565b6001600160a01b0316336001600160a01b0316148015610eba5750806001600160a01b0316630a755ec26040518163ffffffff1660e01b8152600401602060405180830381865afa158015610e96573d6000803e3d6000fd5b505050506040513d601f19601f82011682018060405250810190610eba9190615cdb565b610f165760405162461bcd60e51b815260206004820152602760248201527f6f6e6c7920756e6974726f6c6c65722061646d696e2063616e206368616e676560448201526620627261696e7360c81b6064820152608401610a70565b6000816001600160a01b031663c1e803346040518163ffffffff1660e01b81526004016020604051808303816000875af1158015610f58573d6000803e3d6000fd5b505050506040513d601f19601f82011682018060405250810190610f7c9190615cac565b90508015610fc45760405162461bcd60e51b815260206004820152601560248201527418da185b99d9481b9bdd08185d5d1a1bdc9a5e9959605a1b6044820152606401610a70565b816001600160a01b0316635d72de626040518163ffffffff1660e01b8152600401600060405180830381600087803b158015610fff57600080fd5b505af1158015611013573d6000803e3d6000fd5b505050505050565b6001600160a01b0384166000908152600a602052604081205460ff166110455760095b9050611055565b61104f858461469c565b60005b90505b949350505050565b6015546000906001600160a01b031633148061107c575061107c6144fe565b6110985760405162461bcd60e51b8152600401610a7090615c35565b6110a06144fe565b806110ad57506001821515145b6110c95760405162461bcd60e51b8152600401610a7090615c7c565b60158054831515600160b81b0260ff60b81b19909116179055604051600080516020615f8f833981519152906111229084906040808252600590820152645365697a6560d81b6060820152901515602082015260800190565b60405180910390a15090565b60006111386144fe565b61114857610b5560016007614741565b6040805160208082018352848252825190810190925266b1a2bc2ec5000080835281519192911161117f5761105560056008614741565b6040805160208101909152670c7d713b49da0000808252835111156111b3576111aa60056008614741565b95945050505050565b600680549086905560408051828152602081018890527f3b9670cf975d26958e754b57098eaa2ac914d8d2a31b83257997b9f346110fd991015b60405180910390a160005b9695505050505050565b6060600d80548060200260200160405190810160405280929190818152602001828054801561125a57602002820191906000526020600020905b81546001600160a01b0316815260019091019060200180831161123c575b5050505050905090565b601d54601b5460609160009161127a9190615d2b565b6001600160401b0381111561129157611291615ae7565b6040519080825280602002602001820160405280156112ba578160200160208202803683370190505b50905060005b601b5460ff8216101561134057601b8160ff16815481106112e3576112e3615d43565b9060005260206000200160009054906101000a90046001600160a01b0316828260ff168151811061131657611316615d43565b6001600160a01b03909216602092830291909101909101528061133881615d59565b9150506112c0565b60005b601d5460ff821610156113c357601d8160ff168154811061136657611366615d43565b6000918252602090912001546001600160a01b0316836113868385615d79565b60ff168151811061139957611399615d43565b6001600160a01b0390921660209283029190910190910152806113bb81615d59565b915050611343565b509092915050565b6001546001600160a01b031633146114345760405162461bcd60e51b815260206004820152602660248201527f6f6e6c792061646d696e2063616e2073657420626f72726f772063617020677560448201526530b93234b0b760d11b6064820152608401610a70565b601880546001600160a01b03838116610100908102610100600160a81b03198416179093556040519290910416907feda98690e518e9a05f8ec6837663e188211b2da8f4906648b323f2c1d4434e29906114919083908590615d9e565b60405180910390a15050565b6001600160a01b0382166000908152600a602052604081205460ff166114d55760405162461bcd60e51b8152600401610a7090615bed565b6015546001600160a01b03163314806114f157506114f16144fe565b61150d5760405162461bcd60e51b8152600401610a7090615c35565b6115156144fe565b8061152257506001821515145b61153e5760405162461bcd60e51b8152600401610a7090615c7c565b6001600160a01b038316600081815260166020908152604091829020805460ff19168615159081179091558251938452606091840182905260049184019190915263135a5b9d60e21b608084015290820152600080516020615fcf8339815191529060a001610b4a565b6000806000806000806115bd8a8a8a8a6147a1565b9250925092508260158111156115d5576115d5615cc5565b95509093509150505b9450945094915050565b6001600160a01b03831660009081526016602052604081205460ff16156116425760405162461bcd60e51b815260206004820152600e60248201526d1b5a5b9d081a5cc81c185d5cd95960921b6044820152606401610a70565b6001600160a01b0384166000908152600a602052604090205460ff1661166c5760095b9050610d57565b60115460ff16801561169757506001600160a01b03831660009081526012602052604090205460ff16155b156116a3576012611665565b6001600160a01b0384166000908152601a6020526040902054801561199f576000856001600160a01b0316633b1d21a26040518163ffffffff1660e01b8152600401602060405180830381865afa158015611702573d6000803e3d6000fd5b505050506040513d601f19601f820116820180604052508101906117269190615cac565b90506000866001600160a01b03166347bd37186040518163ffffffff1660e01b8152600401602060405180830381865afa158015611768573d6000803e3d6000fd5b505050506040513d601f19601f8201168201806040525081019061178c9190615cac565b90506000876001600160a01b0316638f840ddd6040518163ffffffff1660e01b8152600401602060405180830381865afa1580156117ce573d6000803e3d6000fd5b505050506040513d601f19601f820116820180604052508101906117f29190615cac565b90506000886001600160a01b031663dc028ab16040518163ffffffff1660e01b8152600401602060405180830381865afa158015611834573d6000803e3d6000fd5b505050506040513d601f19601f820116820180604052508101906118589190615cac565b90506000896001600160a01b03166361feacff6040518163ffffffff1660e01b8152600401602060405180830381865afa15801561189a573d6000803e3d6000fd5b505050506040513d601f19601f820116820180604052508101906118be9190615cac565b90506000806118e087876118db6118d58989614ace565b87614ace565b614b04565b909250905060008260038111156118f9576118f9615cc5565b1461190f57600b98505050505050505050610d57565b600061191b828c614b56565b9093509050600083600381111561193457611934615cc5565b1461194b57600b9950505050505050505050610d57565b8881106119965760405162461bcd60e51b81526020600482015260196024820152781b585c9ad95d081cdd5c1c1b1e4818d85c081c995858da1959603a1b6044820152606401610a70565b50505050505050505b6119a98585614b7f565b600095945050505050565b60006119be6144fe565b6119ce57610b556001600d614741565b60408051602080820183528482528251908101909252670de0b6b3a764000080835281519192911015611a07576110556007600e614741565b60408051602081019091526714d1120d7b16000080825283511115611a32576111aa6007600e614741565b600780549086905560408051828152602081018890527faeba5a6c40a8ac138134bff1aaa65debf25971188a58804bad717f82f0ec131691016111ed565b6001546001600160a01b0316331480611a98575060185461010090046001600160a01b031633145b611af05760405162461bcd60e51b81526020600482015260356024820152600080516020615faf8339815191526044820152746e2063616e2073657420737570706c79206361707360581b6064820152608401610a70565b82818115801590611b0057508082145b611b1c5760405162461bcd60e51b8152600401610a7090615db8565b60005b82811015611c1857848482818110611b3957611b39615d43565b90506020020135601a6000898985818110611b5657611b56615d43565b9050602002016020810190611b6b91906156bc565b6001600160a01b03168152602081019190915260400160002055868682818110611b9757611b97615d43565b9050602002016020810190611bac91906156bc565b6001600160a01b03167f9e0ad9cee10bdf36b7fbd38910c0bdff0f275ace679b45b922381c2723d676f8868684818110611be857611be8615d43565b90506020020135604051611bfe91815260200190565b60405180910390a280611c1081615ddf565b915050611b1f565b50505050505050565b80158015611c2f5750600082115b15611c705760405162461bcd60e51b815260206004820152601160248201527072656465656d546f6b656e73207a65726f60781b6044820152606401610a70565b50505050565b600b8181548110611c8657600080fd5b6000918252602090912001546001600160a01b0316905081565b6000611caa6144fe565b611cba57610b5560016013614741565b600580546001600160a01b038481166001600160a01b03198316179092556040519116907fd52b2b9b7e9ee655fcb95d2e5b9e0c9f69e7ef2b8e9d2d0ea78402d576d22e2290611d0d9083908690615d9e565b60405180910390a160009392505050565b6003546001600160a01b03163314611d935760405162461bcd60e51b815260206004820152603260248201527f6f6e6c7920696d706c656d656e746174696f6e206d61792063616c6c205f626560448201527131b7b6b2a4b6b83632b6b2b73a30ba34b7b760711b6064820152608401610a70565b601c54610100900460ff16611db257601c805461ffff19166101011790555b565b600080600080600080611dcb8760008060006147a1565b925092509250826015811115611de357611de3615cc5565b97919650945092505050565b6000611df96144fe565b611e0957610b5560016018614741565b601580546001600160a01b038481166001600160a01b0319831681179093556040519116917f0613b6ee6a04f0d09f390e4d9318894b9f6ac7fd83897cd8d18896ba579c401e91611d0d918491615d9e565b6001600160a01b0385166000908152600a602052604081205460ff161580611e9c57506001600160a01b0385166000908152600a602052604090205460ff16155b15611eab5760095b90506111aa565b6040516395dd919360e01b81526000906001600160a01b038816906395dd919390611eda9087906004016156d9565b602060405180830381865afa158015611ef7573d6000803e3d6000fd5b505050506040513d601f19601f82011682018060405250810190611f1b9190615cac565b9050611f2687612b1d565b15611f915782811015611f8c5760405162461bcd60e51b815260206004820152602860248201527f43616e206e6f74207265706179206d6f7265207468616e2074686520746f74616044820152676c20626f72726f7760c01b6064820152608401610a70565b61201d565b600080611f9d86614552565b91935090915060009050826015811115611fb957611fb9615cc5565b14611fda57816015811115611fd057611fd0615cc5565b93505050506111aa565b80611fe6576003611fd0565b6000612002604051806020016040528060065481525085614c1e565b9050808611156120195760119450505050506111aa565b5050505b5060009695505050505050565b6001546001600160a01b0316331480612052575060185461010090046001600160a01b031633145b6120aa5760405162461bcd60e51b81526020600482015260356024820152600080516020615faf8339815191526044820152746e2063616e2073657420626f72726f77206361707360581b6064820152608401610a70565b828181158015906120ba57508082145b6120d65760405162461bcd60e51b8152600401610a7090615db8565b60005b82811015611c18578484828181106120f3576120f3615d43565b905060200201356019600089898581811061211057612110615d43565b905060200201602081019061212591906156bc565b6001600160a01b0316815260208101919091526040016000205586868281811061215157612151615d43565b905060200201602081019061216691906156bc565b6001600160a01b03167f6f1951b2aad10f3fc81b86d91105b413a5b3f847a34bbc5ce1904201b14438f68686848181106121a2576121a2615d43565b905060200201356040516121b891815260200190565b60405180910390a2806121ca81615ddf565b9150506120d9565b336000908152600a602052604090205460ff166122555760405162461bcd60e51b815260206004820152603b60248201527f436f6d7074726f6c6c65723a5f61667465724e6f6e5265656e7472616e743a2060448201527a18d85b1b195c881b9bdd081b1a5cdd195908185cc81b585c9ad95d602a1b6064820152608401610a70565b601c805460ff19166001179055565b600061226e6144fe565b6122b55760405162461bcd60e51b815260206004820152601860248201527773686f756c6420686176652061646d696e2072696768747360401b6044820152606401610a70565b6001600160a01b03821661231a5760405162461bcd60e51b815260206004820152602660248201527f7a65726f206164647265737320666f72206e6f6e2d6163637275696e6720666c6044820152651e5dda19595b60d21b6064820152608401610a70565b60005b601d548110156123c657601d818154811061233a5761233a615d43565b6000918252602090912001546001600160a01b03848116911614156123b45760405162461bcd60e51b815260206004820152602a60248201527f666c79776865656c20616c726561647920616464656420746f20746865206e6f6044820152696e2d6163637275696e6760b01b6064820152608401610a70565b806123be81615ddf565b91505061231d565b50601d805460018101825560009182527f6d4407e7be21f808e6509aa9fa9143369579dd7d760fe20a2c09680fc146134f0180546001600160a01b0319166001600160a01b0385161790555b601b5481101561251657601b818154811061242f5761242f615d43565b6000918252602090912001546001600160a01b038481169116141561250457601b805461245e90600190615dfa565b8154811061246e5761246e615d43565b600091825260209091200154601b80546001600160a01b03909216918390811061249a5761249a615d43565b9060005260206000200160006101000a8154816001600160a01b0302191690836001600160a01b03160217905550601b8054806124d9576124d9615e11565b600082815260209020810160001990810180546001600160a01b031916905501905550600192915050565b8061250e81615ddf565b915050612412565b50600092915050565b601d8181548110611c8657600080fd5b600d8181548110611c8657600080fd5b600080546040805163fdb25fb160e01b8152905183926001600160a01b03169163fdb25fb19160048083019260209291908290030181865afa158015612589573d6000803e3d6000fd5b505050506040513d601f19601f820116820180604052508101906125ad9190615cac565b905080156126935760055460405163fc57d4df60e01b81526000916001600160a01b03169063fc57d4df906125e69088906004016156d9565b602060405180830381865afa158015612603573d6000803e3d6000fd5b505050506040513d601f19601f820116820180604052508101906126279190615cac565b90508061263957600d92505050610b55565b60008061265460405180602001604052808581525087614c36565b9092509050600082600381111561266d5761266d615cc5565b1461268057600b5b945050505050610b55565b8381101561268f576013612675565b5050505b6000949350505050565b60006126a76144fe565b6126b757610b5560016019614741565b6001600160a01b0382166000908152600a602052604090205460ff166126e357610b556009601a614741565b6000826001600160a01b03166318160ddd6040518163ffffffff1660e01b8152600401602060405180830381865afa158015612723573d6000803e3d6000fd5b505050506040513d601f19601f820116820180604052508101906127479190615cac565b111561275957610b556015601b614741565b6001600160a01b0382166000908152600a60209081526040808320805460ff19168155600101839055600b805482518185028101850190935280835291929091908301828280156127d357602002820191906000526020600020905b81546001600160a01b031681526001909101906020018083116127b5575b5050835193945083925060009150505b8281101561283857856001600160a01b031684828151811061280757612807615d43565b60200260200101516001600160a01b0316141561282657809150612838565b8061283081615ddf565b9150506127e3565b5081811061284857612848615e27565b600b805461285890600190615dfa565b8154811061286857612868615d43565b600091825260209091200154600b80546001600160a01b03909216918390811061289457612894615d43565b9060005260206000200160006101000a8154816001600160a01b0302191690836001600160a01b03160217905550600b8054806128d3576128d3615e11565b6001900381819060005260206000200160006101000a8154906001600160a01b0302191690559055600060106000876001600160a01b031663ac784ddc6040518163ffffffff1660e01b81526004016020604051808303816000875af1158015612941573d6000803e3d6000fd5b505050506040513d601f19601f820116820180604052508101906129659190615cdb565b6129d057876001600160a01b0316636f307dc36040518163ffffffff1660e01b8152600401602060405180830381865afa1580156129a7573d6000803e3d6000fd5b505050506040513d601f19601f820116820180604052508101906129cb9190615cf8565b6129d3565b60005b6001600160a01b03166001600160a01b0316815260200190815260200160002060006101000a8154816001600160a01b0302191690836001600160a01b031602179055507f302feb03efd5741df80efe7f97f5d93d74d46a542a3d312d0faae64fa1f3e0e985604051612a4691906156d9565b60405180910390a160006111aa565b6015546000906001600160a01b0316331480612a745750612a746144fe565b612a905760405162461bcd60e51b8152600401610a7090615c35565b612a986144fe565b80612aa557506001821515145b612ac15760405162461bcd60e51b8152600401610a7090615c7c565b60158054831515600160b01b0260ff60b01b19909116179055604051600080516020615f8f833981519152906111229084906040808252600890820152672a3930b739b332b960c11b6060820152901515602082015260800190565b6001600160a01b0381166000908152600a6020526040812060010154158015612b6357506001600160a01b03821660009081526017602052604090205460ff1615156001145b8015610b555750612c77612c39836001600160a01b031663173b99046040518163ffffffff1660e01b8152600401602060405180830381865afa158015612bae573d6000803e3d6000fd5b505050506040513d601f19601f82011682018060405250810190612bd29190615cac565b846001600160a01b0316638d02d9a16040518163ffffffff1660e01b8152600401602060405180830381865afa158015612c10573d6000803e3d6000fd5b505050506040513d601f19601f82011682018060405250810190612c349190615cac565b614ace565b836001600160a01b031663dbfe7c196040518163ffffffff1660e01b8152600401602060405180830381865afa158015612c10573d6000803e3d6000fd5b670de0b6b3a76400001492915050565b6000612c916144fe565b612ca157610b5560016014614741565b60115460ff1615158215151415612cb9576000610b55565b6011805460ff19168315151790556040517f84c7d948374a180eddab35d27d2f7a94167a1ff4e79467f1e89c061984190a1e90612cfb90841515815260200190565b60405180910390a16000610b55565b6000612d146144fe565b612d245761103e60016017614741565b60028054600160a01b60ff60a01b19821681179092550460ff16600086612dbf57600054604051638754e4fd60e01b81526001600160a01b0390911690638754e4fd90612d779089908990600401615e3d565b6020604051808303816000875af1158015612d96573d6000803e3d6000fd5b505050506040513d601f19601f82011682018060405250810190612dba9190615cf8565b612e34565b600054604051639b86a9b560e01b81526001600160a01b0390911690639b86a9b590612df19089908990600401615e3d565b6020604051808303816000875af1158015612e10573d6000803e3d6000fd5b505050506040513d601f19601f82011682018060405250810190612e349190615cf8565b6002805460ff60a01b1916600160a01b8515150217905590506000612e5882614c88565b90508015612e665780612e70565b612e708286613ed3565b98975050505050505050565b6001600160a01b0381166000908152600960209081526040808320805482518185028101850190935280835260609493830182828015612ee557602002820191906000526020600020905b81546001600160a01b03168152600190910190602001808311612ec7575b5093979650505050505050565b6060600b80548060200260200160405190810160405280929190818152602001828054801561125a576020028201919060005260206000209081546001600160a01b0316815260019091019060200180831161123c575050505050905090565b6000612f5c6144fe565b612f6c57610b5560016002614741565b816001600160a01b031663abc6d72d6040518163ffffffff1660e01b8152600401602060405180830381865afa158015612faa573d6000803e3d6000fd5b505050506040513d601f19601f82011682018060405250810190612fce9190615cdb565b612fea5760405162461bcd60e51b8152600401610a7090615e6c565b60005b601b5481101561309557601b818154811061300a5761300a615d43565b6000918252602090912001546001600160a01b03848116911614156130835760405162461bcd60e51b815260206004820152602960248201527f526577617264734469737472696275746f7220636f6e747261637420616c726560448201526818591e48185919195960ba1b6064820152608401610a70565b8061308d81615ddf565b915050612fed565b50601b80546001810182556000919091527f3ad8aa4f87544323a9d1e5dd902f40c356527a7955687113db5f9a85ad579dc10180546001600160a01b0319166001600160a01b0384161790556040517f98ef1187fb6fd2bc85f8996489877eb2b5428f9e9bdfc068c9ad6c2ea82eacc790612cfb9084906156d9565b601554600090600160b01b900460ff16156131635760405162461bcd60e51b81526020600482015260126024820152711d1c985b9cd9995c881a5cc81c185d5cd95960721b6044820152606401610a70565b6000613170868685614ff6565b9050801561317f579050611055565b61318a8686866150ae565b60009695505050505050565b80516060906000816001600160401b038111156131b5576131b5615ae7565b6040519080825280602002602001820160405280156131de578160200160208202803683370190505b50905060005b8281101561325557600085828151811061320057613200615d43565b602002602001015190506132148133615159565b601581111561322557613225615cc5565b83838151811061323757613237615d43565b6020908102919091010152508061324d81615ddf565b9150506131e4565b509392505050565b60055460405163fc57d4df60e01b8152600091829182916001600160a01b03169063fc57d4df906132929089906004016156d9565b602060405180830381865afa1580156132af573d6000803e3d6000fd5b505050506040513d601f19601f820116820180604052508101906132d39190615cac565b60055460405163fc57d4df60e01b81529192506000916001600160a01b039091169063fc57d4df906133099089906004016156d9565b602060405180830381865afa158015613326573d6000803e3d6000fd5b505050506040513d601f19601f8201168201806040525081019061334a9190615cac565b9050811580613357575080155b1561336b57600d6000935093505050613461565b6000866001600160a01b031663182df0f56040518163ffffffff1660e01b8152600401602060405180830381865afa1580156133ab573d6000803e3d6000fd5b505050506040513d601f19601f820116820180604052508101906133cf9190615cac565b905060006133db615617565b6133e3615617565b6133eb615617565b613413604051806020016040528060075481525060405180602001604052808a8152506152ea565b925061343b6040518060200160405280888152506040518060200160405280888152506152ea565b9150613447838361532b565b9050613453818b614c1e565b600099509750505050505050505b935093915050565b601b8181548110611c8657600080fd5b60006134836144fe565b6134935761103e60016015614741565b60005b848110156137185760008686838181106134b2576134b2615d43565b90506020020160208101906134c791906156bc565b90508484838181106134db576134db615d43565b90506020020160208101906134f091906157d0565b156135a8576001600160a01b03811660009081526012602052604090205460ff166135a3576001600160a01b0381166000818152601260205260408120805460ff19166001908117909155601380548083018255928190527f66de8ffda797e3de9c05e8fc57b3bf0ec28a930d40b0d285d93c06501cf6a09090920180546001600160a01b031916909317909255546135899190615dfa565b6001600160a01b0382166000908152601460205260409020555b613705565b6001600160a01b03811660009081526012602052604090205460ff161561370557601380546135d990600190615dfa565b815481106135e9576135e9615d43565b60009182526020808320909101546001600160a01b038481168452601490925260409092205460138054929093169291811061362757613627615d43565b9060005260206000200160006101000a8154816001600160a01b0302191690836001600160a01b03160217905550601380548061366657613666615e11565b60008281526020808220830160001990810180546001600160a01b03191690559092019092556001600160a01b0383168252601490819052604082205460138054919391849081106136ba576136ba615d43565b60009182526020808320909101546001600160a01b039081168452838201949094526040928301822094909455918416825260148352808220829055601290925220805460ff191690555b508061371081615ddf565b915050613496565b506000611052565b336000908152600a602052604090205460ff166137a45760405162461bcd60e51b815260206004820152603c60248201527f436f6d7074726f6c6c65723a5f6265666f72654e6f6e5265656e7472616e743a60448201527b0818d85b1b195c881b9bdd081b1a5cdd195908185cc81b585c9ad95d60221b6064820152608401610a70565b601c5460ff166137f15760405162461bcd60e51b815260206004820152601860248201527772652d656e7465726564206163726f73732061737365747360401b6044820152606401610a70565b601c805460ff19169055565b6060601380548060200260200160405190810160405280929190818152602001828054801561125a576020028201919060005260206000209081546001600160a01b0316815260019091019060200180831161123c575050505050905090565b601554600090600160b81b900460ff16156138ac5760405162461bcd60e51b815260206004820152600f60248201526e1cd95a5e99481a5cc81c185d5cd959608a1b6044820152606401610a70565b6001600160a01b0386166000908152600a602052604090205460ff1615806138ed57506001600160a01b0385166000908152600a602052604090205460ff16155b156138f9576009611ea4565b846001600160a01b0316635fe3b5676040518163ffffffff1660e01b8152600401602060405180830381865afa158015613937573d6000803e3d6000fd5b505050506040513d601f19601f8201168201806040525081019061395b9190615cf8565b6001600160a01b0316866001600160a01b0316635fe3b5676040518163ffffffff1660e01b8152600401602060405180830381865afa1580156139a2573d6000803e3d6000fd5b505050506040513d601f19601f820116820180604052508101906139c69190615cf8565b6001600160a01b0316146139db576002611ea4565b61318a8684866150ae565b60138181548110611c8657600080fd5b6000613a006144fe565b613a1057610b5560016006614741565b60185460ff1615158215151415613a28576000610b55565b6018805460ff19168315151790556040517faa40ee94af55250363b91641a0a615c47690148901505f89b01dafae03fff28190612cfb90841515815260200190565b6000805b600b54811015612516576000600b8281548110613a8d57613a8d615d43565b60009182526020808320909101546001600160a01b03908116808452600a83526040808520928916855260029092019092529091205490915060ff1615613ad8575060019392505050565b5080613ae381615ddf565b915050613a6e565b6001600160a01b03831660009081526017602052604081205460ff1615613b475760405162461bcd60e51b815260206004820152601060248201526f189bdc9c9bddc81a5cc81c185d5cd95960821b6044820152606401610a70565b6001600160a01b0384166000908152600a602052604090205460ff16613b6e576009611665565b6001600160a01b038085166000908152600a60209081526040808320938716835260029093019052205460ff16613c6b57336001600160a01b03851614613bef5760405162461bcd60e51b815260206004820152601560248201527439b2b73232b91036bab9ba1031329031aa37b5b2b760591b6044820152606401610a70565b6000613bfb3385615159565b90506000816015811115613c1157613c11615cc5565b14613c3057806015811115613c2857613c28615cc5565b915050610d57565b6001600160a01b038086166000908152600a60209081526040808320938816835260029093019052205460ff16613c6957613c69615e27565b505b60055460405163fc57d4df60e01b81526001600160a01b039091169063fc57d4df90613c9b9087906004016156d9565b602060405180830381865afa158015613cb8573d6000803e3d6000fd5b505050506040513d601f19601f82011682018060405250810190613cdc9190615cac565b613ce757600d611665565b60115460ff168015613d1257506001600160a01b03831660009081526012602052604090205460ff16155b15613d1e576012611665565b6001600160a01b0384166000908152601960205260409020548015613e2a576000856001600160a01b03166347bd37186040518163ffffffff1660e01b8152600401602060405180830381865afa158015613d7d573d6000803e3d6000fd5b505050506040513d601f19601f82011682018060405250810190613da19190615cac565b9050600080613db08387614b56565b90925090506000826003811115613dc957613dc9615cc5565b14613ddb57600b945050505050610d57565b838110613e265760405162461bcd60e51b81526020600482015260196024820152781b585c9ad95d08189bdc9c9bddc818d85c081c995858da1959603a1b6044820152606401610a70565b5050505b613e34858561469c565b600080613e4486886000886147a1565b91935090915060009050826015811115613e6057613e60615cc5565b14613e8157816015811115613e7757613e77615cc5565b9350505050610d57565b8015613e8e576004613e77565b6000979650505050505050565b60096020528160005260406000208181548110613eb757600080fd5b6000918252602090912001546001600160a01b03169150829050565b6000613edd6144fe565b613ef457613eed60016009614741565b9050610b55565b6001600160a01b0383166000908152600a60205260409020805460ff16613f2957613f216009600a614741565b915050610b55565b60408051602080820183528582528251908101909252670c7d713b49da0000825290613f5781835190511090565b15613f7257613f686006600b614741565b9350505050610b55565b8415801590613fef575060055460405163fc57d4df60e01b81526001600160a01b039091169063fc57d4df90613fac9089906004016156d9565b602060405180830381865afa158015613fc9573d6000803e3d6000fd5b505050506040513d601f19601f82011682018060405250810190613fed9190615cac565b155b1561400057613f68600d600c614741565b60018301805490869055604080516001600160a01b0389168152602081018390529081018790527f70483e6592cd5182d45ac970e05bc62cdcc90e9d8ef2c2dbe686cf383bcd7fc59060600160405180910390a16000979650505050505050565b60008061406f858585614ff6565b9050801561199f579050610d57565b6000808290506000806000836001600160a01b031663c37f68e2336040518263ffffffff1660e01b81526004016140b591906156d9565b608060405180830381865afa1580156140d2573d6000803e3d6000fd5b505050506040513d601f19601f820116820180604052508101906140f69190615ea2565b509250925092508260001461415b5760405162461bcd60e51b815260206004820152602560248201527f657869744d61726b65743a206765744163636f756e74536e617073686f742066604482015264185a5b195960da1b6064820152608401610a70565b801561416d576111f8600c6003614741565b600061417a873385614ff6565b9050801561419a5761418f600e60048361535e565b979650505050505050565b6001600160a01b0385166000908152600a60209081526040808320338452600281019092529091205460ff166141d857600098975050505050505050565b3360009081526002820160209081526040808320805460ff19169055600982528083208054825181850281018501909352808352919290919083018282801561424a57602002820191906000526020600020905b81546001600160a01b0316815260019091019060200180831161422c575b5050835193945083925060009150505b828110156142af57896001600160a01b031684828151811061427e5761427e615d43565b60200260200101516001600160a01b0316141561429d578091506142af565b806142a781615ddf565b91505061425a565b508181106142bf576142bf615e27565b336000908152600960205260409020805481906142de90600190615dfa565b815481106142ee576142ee615d43565b9060005260206000200160009054906101000a90046001600160a01b031681838154811061431e5761431e615d43565b9060005260206000200160006101000a8154816001600160a01b0302191690836001600160a01b031602179055508080548061435c5761435c615e11565b600082815260209020810160001990810180546001600160a01b031916905501905580546144b357600d805461439490600190615dfa565b815481106143a4576143a4615d43565b6000918252602080832090910154338352600e909152604090912054600d80546001600160a01b039093169290919081106143e1576143e1615d43565b9060005260206000200160006101000a8154816001600160a01b0302191690836001600160a01b03160217905550600d80548061442057614420615e11565b60008281526020808220830160001990810180546001600160a01b0319169055909201909255338252600e908190526040822054600d80549193918490811061446b5761446b615d43565b60009182526020808320909101546001600160a01b03168352828101939093526040918201812093909355338352600e8252808320839055600c9091529020805460ff191690555b7fe699a64c18b07ac5b7301aa273f36a2287239eb9501d81950672794afba29a0d8a336040516144e4929190615d9e565b60405180910390a160009c9b505050505050505050505050565b6001546000906001600160a01b0316331480156145245750600254600160a81b900460ff165b8061454d57506000546001600160a01b03163314801561454d5750600254600160a01b900460ff165b905090565b60008060006145658460008060006147a1565b9250925092509193909250565b600080841161458357506000610d57565b60055460405163fc57d4df60e01b81526000916001600160a01b03169063fc57d4df906145b49087906004016156d9565b602060405180830381865afa1580156145d1573d6000803e3d6000fd5b505050506040513d601f19601f820116820180604052508101906145f59190615cac565b90506000811161463d5760405162461bcd60e51b815260206004820152601360248201527227b930b1b63290383934b1b29032b93937b91760691b6044820152606401610a70565b8261467f576001600160a01b0384166000908152600a6020526040902060010154670de0b6b3a76400006146718383615ed8565b61467b9190615ef7565b9150505b8061469286670de0b6b3a7640000615ed8565b6111aa9190615ef7565b60005b601b5481101561473c57601b81815481106146bc576146bc615d43565b600091825260209091200154604051631cdc2c5d60e31b81526001600160a01b039091169063e6e162e8906146f79086908690600401615d9e565b600060405180830381600087803b15801561471157600080fd5b505af1158015614725573d6000803e3d6000fd5b50505050808061473490615ddf565b91505061469f565b505050565b6000600080516020615f6f83398151915283601581111561476457614764615cc5565b83601b81111561477657614776615cc5565b600060405161478793929190615899565b60405180910390a1826015811115610d5757610d57615cc5565b60008060006147ae61562a565b6001600160a01b03881660009081526009602090815260408083208054825181850281018501909352808352849383018282801561481557602002820191906000526020600020905b81546001600160a01b031681526001909101906020018083116147f7575b5050505050905060005b8151811015614a7857600082828151811061483c5761483c615d43565b60200260200101519050806001600160a01b031663c37f68e28d6040518263ffffffff1660e01b815260040161487291906156d9565b608060405180830381865afa15801561488f573d6000803e3d6000fd5b505050506040513d601f19601f820116820180604052508101906148b39190615ea2565b608089015260608801526040870152935083156148df57600f60008097509750975050505050506115de565b60408051602080820183526001600160a01b038085166000908152600a835284902060010154835260c0890192909252825190810183526080880151815260e0880152600554915163fc57d4df60e01b815291169063fc57d4df906149489084906004016156d9565b602060405180830381865afa158015614965573d6000803e3d6000fd5b505050506040513d601f19601f820116820180604052508101906149899190615cac565b60a086018190526149a957600d60008097509750975050505050506115de565b604080516020810190915260a0860151815261010086015260c085015160e08601516149e3916149d8916152ea565b8661010001516152ea565b6101208601819052604086015186516149fd9291906153bd565b855261010085015160608601516020870151614a1a9291906153bd565b60208601526001600160a01b03818116908c161415614a6557614a478561012001518b87602001516153bd565b60208601819052610100860151614a5f918b906153bd565b60208601525b5080614a7081615ddf565b91505061481f565b50602083015183511115614aa95760208301518351600091614a9991615dfa565b60009550955095505050506115de565b60008084600001518560200151614ac09190615dfa565b9550955095505050506115de565b6000610d578383604051806040016040528060118152602001706164646974696f6e206f766572666c6f7760781b8152506153de565b600080600080614b148787614b56565b90925090506000826003811115614b2d57614b2d615cc5565b14614b3e5750915060009050613461565b614b488186615418565b935093505050935093915050565b600080838301848110614b6e57600092509050614b78565b6002600092509250505b9250929050565b60005b601b5481101561473c57601b8181548110614b9f57614b9f615d43565b60009182526020909120015460405162e48b0f60e51b81526001600160a01b0390911690631c9161e090614bd99086908690600401615d9e565b600060405180830381600087803b158015614bf357600080fd5b505af1158015614c07573d6000803e3d6000fd5b505050508080614c1690615ddf565b915050614b82565b600080614c2b8484615443565b905061105581615464565b600080600080614c46868661547c565b90925090506000826003811115614c5f57614c5f615cc5565b14614c705750915060009050614b78565b6000614c7b82615464565b9350935050509250929050565b6000614c926144fe565b614ca257610b5560016017614741565b6001600160a01b0382166000908152600a602052604090205460ff1615614ccf57610b55600a6016614741565b816001600160a01b031663fe9c44ae6040518163ffffffff1660e01b81526004016020604051808303816000875af1158015614d0f573d6000803e3d6000fd5b505050506040513d601f19601f82011682018060405250810190614d339190615cdb565b614d4f5760405162461bcd60e51b8152600401610a7090615e6c565b306001600160a01b0316826001600160a01b0316635fe3b5676040518163ffffffff1660e01b8152600401602060405180830381865afa158015614d97573d6000803e3d6000fd5b505050506040513d601f19601f82011682018060405250810190614dbb9190615cf8565b6001600160a01b031614614e2f5760405162461bcd60e51b815260206004820152603560248201527f43616e6e6f7420737570706f72742061206d61726b657420776974682061206460448201527434b33332b932b73a1021b7b6b83a3937b63632b91760591b6064820152608401610a70565b6000826001600160a01b031663ac784ddc6040518163ffffffff1660e01b81526004016020604051808303816000875af1158015614e71573d6000803e3d6000fd5b505050506040513d601f19601f82011682018060405250810190614e959190615cdb565b614f0057826001600160a01b0316636f307dc36040518163ffffffff1660e01b8152600401602060405180830381865afa158015614ed7573d6000803e3d6000fd5b505050506040513d601f19601f82011682018060405250810190614efb9190615cf8565b614f03565b60005b6001600160a01b038082166000908152601060205260409020549192501615614f3257610d57600a6016614741565b6001600160a01b038084166000818152600a60209081526040808320805460ff191660019081178255808201859055600b805491820190557f0175b7a638427703f0dbe7bb9bbf987a2551717b34e79f33b5b1008d1fa01db90180546001600160a01b031990811687179091559587168452601090925291829020805490941690921790925590517fcf583bb0c569eb967f806b11601c4cb93c10310485c67add5f8362c2f212321f90614fe79086906156d9565b60405180910390a16000611055565b6001600160a01b0383166000908152600a602052604081205460ff1661501d576009611665565b6001600160a01b038085166000908152600a60209081526040808320938716835260029093019052205460ff16615055576000611665565b60008061506585878660006147a1565b9193509091506000905082601581111561508157615081615cc5565b146150a15781601581111561509857615098615cc5565b92505050610d57565b801561318a576004615098565b60005b601b54811015611c7057601b81815481106150ce576150ce615d43565b600091825260209091200154604051634e081c9560e01b81526001600160a01b0386811660048301528581166024830152848116604483015290911690634e081c9590606401600060405180830381600087803b15801561512e57600080fd5b505af1158015615142573d6000803e3d6000fd5b50505050808061515190615ddf565b9150506150b1565b6001600160a01b0382166000908152600a60205260408120805460ff16615184576009915050610b55565b6001600160a01b038316600090815260028201602052604090205460ff161515600114156151b6576000915050610b55565b6001600160a01b03838116600081815260028401602090815260408083208054600160ff199091168117909155600983528184208054918201815584528284200180546001600160a01b031916958a1695909517909455918152600c909152205460ff166152a757600d8054600180820183557fd7b6990105719101dabeb77144f2a3385c8033acd3af97e9423a695e81ad1eb590910180546001600160a01b0319166001600160a01b0387169081179091556000908152600c60205260409020805460ff191682179055905461528d9190615dfa565b6001600160a01b0384166000908152600e60205260409020555b7f3ab23ab0d51cccc0c3085aec51f99228625aa1a922b3a8ca89a26b0f2027a1a584846040516152d8929190615d9e565b60405180910390a15060009392505050565b6152f2615617565b6040518060200160405280670de0b6b3a7640000615318866000015186600001516154ea565b6153229190615ef7565b90529392505050565b615333615617565b60405180602001604052806153226153578660000151670de0b6b3a76400006154ea565b8551615526565b6000600080516020615f6f83398151915284601581111561538157615381615cc5565b84601b81111561539357615393615cc5565b846040516153a393929190615899565b60405180910390a183601581111561105557611055615cc5565b6000806153ca8585615443565b90506111aa6153d882615464565b84614ace565b6000806153eb8486615d2b565b9050828582101561540f5760405162461bcd60e51b8152600401610a709190615f19565b50949350505050565b60008083831161543757600061542e8486615dfa565b91509150614b78565b50600390506000614b78565b61544b615617565b60405180602001604052806153228560000151856154ea565b8051600090610b5590670de0b6b3a764000090615ef7565b6000615486615617565b600080615497866000015186615559565b909250905060008260038111156154b0576154b0615cc5565b146154cf57506040805160208101909152600081529092509050614b78565b60408051602081019091529081526000969095509350505050565b6000610d578383604051806040016040528060178152602001766d756c7469706c69636174696f6e206f766572666c6f7760481b815250615598565b6000610d5783836040518060400160405280600e81526020016d646976696465206279207a65726f60901b8152506155eb565b6000808361556c57506000905080614b78565b8383028361557a8683615ef7565b1461558d57600260009250925050614b78565b600092509050614b78565b60008315806155a5575082155b156155b257506000610d57565b60006155be8486615ed8565b9050836155cb8683615ef7565b14839061540f5760405162461bcd60e51b8152600401610a709190615f19565b6000818361560c5760405162461bcd60e51b8152600401610a709190615f19565b506110558385615ef7565b6040518060200160405280600081525090565b604051806101400160405280600081526020016000815260200160008152602001600081526020016000815260200160008152602001615668615617565b8152602001615675615617565b8152602001615682615617565b815260200161568f615617565b905290565b6001600160a01b03811681146156a957600080fd5b50565b80356156b781615694565b919050565b6000602082840312156156ce57600080fd5b8135610d5781615694565b6001600160a01b0391909116815260200190565b80151581146156a957600080fd5b6000806040838503121561570e57600080fd5b823561571981615694565b91506020830135615729816156ed565b809150509250929050565b60008060006060848603121561574957600080fd5b833561575481615694565b9250602084013561576481615694565b91506040840135615774816156ed565b809150509250925092565b6000806000806080858703121561579557600080fd5b84356157a081615694565b935060208501356157b081615694565b925060408501356157c081615694565b9396929550929360600135925050565b6000602082840312156157e257600080fd5b8135610d57816156ed565b6000602082840312156157ff57600080fd5b5035919050565b6020808252825182820181905260009190848201906040850190845b818110156158475783516001600160a01b031683529284019291840191600101615822565b50909695505050505050565b6000806000806080858703121561586957600080fd5b843561587481615694565b9350602085013561588481615694565b93969395505050506040820135916060013590565b9283526020830191909152604082015260600190565b6000806000606084860312156158c457600080fd5b83356158cf81615694565b925060208401356158df81615694565b929592945050506040919091013590565b60008083601f84011261590257600080fd5b5081356001600160401b0381111561591957600080fd5b6020830191508360208260051b8501011115614b7857600080fd5b6000806000806040858703121561594a57600080fd5b84356001600160401b038082111561596157600080fd5b61596d888389016158f0565b9096509450602087013591508082111561598657600080fd5b50615993878288016158f0565b95989497509550505050565b600080600080600060a086880312156159b757600080fd5b85356159c281615694565b945060208601356159d281615694565b935060408601356159e281615694565b925060608601356159f281615694565b949793965091946080013592915050565b60008060408385031215615a1657600080fd5b8235615a2181615694565b946020939093013593505050565b60008060408385031215615a4257600080fd5b8235615a4d81615694565b9150602083013561572981615694565b60008060008060608587031215615a7357600080fd5b8435615a7e816156ed565b935060208501356001600160401b0380821115615a9a57600080fd5b818701915087601f830112615aae57600080fd5b813581811115615abd57600080fd5b886020828501011115615acf57600080fd5b95986020929092019750949560400135945092505050565b634e487b7160e01b600052604160045260246000fd5b60006020808385031215615b1057600080fd5b82356001600160401b0380821115615b2757600080fd5b818501915085601f830112615b3b57600080fd5b813581811115615b4d57615b4d615ae7565b8060051b604051601f19603f83011681018181108582111715615b7257615b72615ae7565b604052918252848201925083810185019188831115615b9057600080fd5b938501935b82851015612e7057615ba6856156ac565b84529385019392850192615b95565b6020808252825182820181905260009190848201906040850190845b8181101561584757835183529284019291840191600101615bd1565b60208082526028908201527f63616e6e6f742070617573652061206d61726b65742074686174206973206e6f6040820152671d081b1a5cdd195960c21b606082015260800190565b60208082526027908201527f6f6e6c7920706175736520677561726469616e20616e642061646d696e2063616040820152666e20706175736560c81b606082015260800190565b6020808252601690820152756f6e6c792061646d696e2063616e20756e706175736560501b604082015260600190565b600060208284031215615cbe57600080fd5b5051919050565b634e487b7160e01b600052602160045260246000fd5b600060208284031215615ced57600080fd5b8151610d57816156ed565b600060208284031215615d0a57600080fd5b8151610d5781615694565b634e487b7160e01b600052601160045260246000fd5b60008219821115615d3e57615d3e615d15565b500190565b634e487b7160e01b600052603260045260246000fd5b600060ff821660ff811415615d7057615d70615d15565b60010192915050565b600060ff821660ff84168060ff03821115615d9657615d96615d15565b019392505050565b6001600160a01b0392831681529116602082015260400190565b6020808252600d908201526c1a5b9d985b1a59081a5b9c1d5d609a1b604082015260600190565b6000600019821415615df357615df3615d15565b5060010190565b600082821015615e0c57615e0c615d15565b500390565b634e487b7160e01b600052603160045260246000fd5b634e487b7160e01b600052600160045260246000fd5b60208152816020820152818360408301376000818301604090810191909152601f909201601f19160101919050565b6020808252601c908201527b6d61726b6572206d6574686f642072657475726e65642066616c736560201b604082015260600190565b60008060008060808587031215615eb857600080fd5b505082516020840151604085015160609095015191969095509092509050565b6000816000190483118215151615615ef257615ef2615d15565b500290565b600082615f1457634e487b7160e01b600052601260045260246000fd5b500490565b600060208083528351808285015260005b81811015615f4657858101830151858201604001528201615f2a565b81811115615f58576000604083870101525b50601f01601f191692909201604001939250505056fe45b96fe442630264581b197e84bbada861235052c5a1aadfff9ea4e40a969aa0ef159d9a32b2472e32b098f954f3ce62d232939f1c207070b584df1814de2de06f6e6c792061646d696e206f7220626f72726f7720636170206775617264696171aec636243f9709bb0007ae15e9afb8150ab01716d75fd7573be5cc096e03b0a164736f6c634300080a000a",
    "linkReferences": {}
  },
  "methodIdentifiers": {
    "_addRewardsDistributor(address)": "b9b5b153",
    "_afterNonReentrant()": "632e5142",
    "_become(address)": "1d504dc6",
    "_becomeImplementation()": "5d72de62",
    "_beforeNonReentrant()": "c90c20b1",
    "_borrowGuardianPaused()": "e6653f3d",
    "_deployMarket(bool,bytes,uint256)": "aba35b98",
    "_mintGuardianPaused()": "3c94786f",
    "_setBorrowCapGuardian(address)": "391957d7",
    "_setBorrowPaused(address,bool)": "18c882a5",
    "_setCloseFactor(uint256)": "317b0b77",
    "_setCollateralFactor(address,uint256)": "e4028eee",
    "_setLiquidationIncentive(uint256)": "4fd42e17",
    "_setMarketBorrowCaps(address[],uint256[])": "607ef6c1",
    "_setMarketSupplyCaps(address[],uint256[])": "51a485e4",
    "_setMintPaused(address,bool)": "3bcf7ec1",
    "_setPauseGuardian(address)": "5f5af1aa",
    "_setPriceOracle(address)": "55ee1fe1",
    "_setSeizePaused(bool)": "2d70db78",
    "_setTransferPaused(bool)": "8ebf6364",
    "_setWhitelistEnforcement(bool)": "952adf5a",
    "_setWhitelistStatuses(address[],bool[])": "c8c9c975",
    "_toggleAutoImplementations(bool)": "d5333166",
    "_unsupportMarket(address)": "819605a8",
    "accountAssets(address,uint256)": "dce15449",
    "addNonAccruingFlywheel(address)": "692fd2a9",
    "admin()": "f851a440",
    "adminHasRights()": "0a755ec2",
    "allBorrowers(uint256)": "7515bafa",
    "allMarkets(uint256)": "52d84d1e",
    "autoImplementation()": "dd5cd22c",
    "borrowAllowed(address,address,uint256)": "da3d454c",
    "borrowCapGuardian()": "21af4569",
    "borrowCaps(address)": "4a584432",
    "borrowGuardianPaused(address)": "6d154ea5",
    "borrowWithinLimits(address,uint256)": "779b2294",
    "cTokensByUnderlying(address)": "31ff47fa",
    "checkMembership(address,address)": "929fe9a1",
    "closeFactorMantissa()": "e8755446",
    "comptrollerImplementation()": "bb82aa5e",
    "enforceWhitelist()": "b0957210",
    "enterMarkets(address[])": "c2998238",
    "exitMarket(address)": "ede4edd0",
    "fuseAdmin()": "15761d51",
    "fuseAdminHasRights()": "2f1069ba",
    "getAccountLiquidity(address)": "5ec88c79",
    "getAllBorrowers()": "32abcdbe",
    "getAllMarkets()": "b0772d0b",
    "getAssetsIn(address)": "abfceffc",
    "getHypotheticalAccountLiquidity(address,address,uint256,uint256)": "4e79238f",
    "getMaxRedeemOrBorrow(address,address,bool)": "1976828e",
    "getRewardsDistributors()": "3605b51b",
    "getWhitelist()": "d01f63f5",
    "isComptroller()": "007e3dd2",
    "isDeprecated(address)": "94543c15",
    "isUserOfPool(address)": "d9e0ea6b",
    "liquidateBorrowAllowed(address,address,address,address,uint256)": "5fc7e71e",
    "liquidateCalculateSeizeTokens(address,address,uint256)": "c488847b",
    "liquidationIncentiveMantissa()": "4ada90af",
    "markets(address)": "8e8f294b",
    "mintAllowed(address,address,uint256)": "4ef4c3e1",
    "mintGuardianPaused(address)": "731f0c2b",
    "nonAccruingRewardsDistributors(uint256)": "6bd02b8a",
    "oracle()": "7dc0d1d0",
    "pauseGuardian()": "24a3d622",
    "pendingAdmin()": "26782247",
    "pendingComptrollerImplementation()": "dcfbc0c7",
    "redeemAllowed(address,address,uint256)": "eabe7d91",
    "redeemVerify(address,address,uint256,uint256)": "51dff989",
    "repayBorrowAllowed(address,address,address,uint256)": "24008a62",
    "rewardsDistributors(uint256)": "c6c5b0dd",
    "seizeAllowed(address,address,address,address,uint256)": "d02f7351",
    "seizeGuardianPaused()": "ac0b0bb7",
    "suppliers(address)": "16dc15fe",
    "supplyCaps(address)": "02c3bcbb",
    "transferAllowed(address,address,address,uint256)": "bdcdc258",
    "transferGuardianPaused()": "87f76303",
    "whitelist(address)": "9b19251a",
    "whitelistArray(uint256)": "d251fefc"
  }
}