{
  "address": "0xc3D2936EC691cBD02A868bFeCDA1301b6096D0f3",
  "abi": [
    {
      "inputs": [
        {
          "internalType": "address payable",
          "name": "_fuseAdmin",
          "type": "address"
        }
      ],
      "stateMutability": "nonpayable",
      "type": "constructor"
    },
    {
      "inputs": [
        {
          "internalType": "bytes4",
          "name": "_functionSelector",
          "type": "bytes4"
        }
      ],
      "name": "ExtensionNotFound",
      "type": "error"
    },
    {
      "inputs": [
        {
          "internalType": "bytes4",
          "name": "_functionSelector",
          "type": "bytes4"
        },
        {
          "internalType": "address",
          "name": "_currentImpl",
          "type": "address"
        }
      ],
      "name": "FunctionAlreadyAdded",
      "type": "error"
    },
    {
      "inputs": [
        {
          "internalType": "bytes4",
          "name": "_functionSelector",
          "type": "bytes4"
        }
      ],
      "name": "FunctionNotFound",
      "type": "error"
    },
    {
      "anonymous": false,
      "inputs": [
        {
          "indexed": false,
          "internalType": "address",
          "name": "rewardsDistributor",
          "type": "address"
        }
      ],
      "name": "AddedRewardsDistributor",
      "type": "event"
    },
    {
      "anonymous": false,
      "inputs": [
        {
          "indexed": false,
          "internalType": "bool",
          "name": "enabled",
          "type": "bool"
        }
      ],
      "name": "AutoImplementationsToggled",
      "type": "event"
    },
    {
      "anonymous": false,
      "inputs": [
        {
          "indexed": false,
          "internalType": "uint256",
          "name": "error",
          "type": "uint256"
        },
        {
          "indexed": false,
          "internalType": "uint256",
          "name": "info",
          "type": "uint256"
        },
        {
          "indexed": false,
          "internalType": "uint256",
          "name": "detail",
          "type": "uint256"
        }
      ],
      "name": "Failure",
      "type": "event"
    },
    {
      "anonymous": false,
      "inputs": [
        {
          "indexed": false,
          "internalType": "contract CTokenInterface",
          "name": "cToken",
          "type": "address"
        },
        {
          "indexed": false,
          "internalType": "address",
          "name": "account",
          "type": "address"
        }
      ],
      "name": "MarketEntered",
      "type": "event"
    },
    {
      "anonymous": false,
      "inputs": [
        {
          "indexed": false,
          "internalType": "contract CTokenInterface",
          "name": "cToken",
          "type": "address"
        },
        {
          "indexed": false,
          "internalType": "address",
          "name": "account",
          "type": "address"
        }
      ],
      "name": "MarketExited",
      "type": "event"
    },
    {
      "anonymous": false,
      "inputs": [
        {
          "indexed": false,
          "internalType": "contract CTokenInterface",
          "name": "cToken",
          "type": "address"
        }
      ],
      "name": "MarketListed",
      "type": "event"
    },
    {
      "anonymous": false,
      "inputs": [
        {
          "indexed": false,
          "internalType": "uint256",
          "name": "oldCloseFactorMantissa",
          "type": "uint256"
        },
        {
          "indexed": false,
          "internalType": "uint256",
          "name": "newCloseFactorMantissa",
          "type": "uint256"
        }
      ],
      "name": "NewCloseFactor",
      "type": "event"
    },
    {
      "anonymous": false,
      "inputs": [
        {
          "indexed": false,
          "internalType": "contract CTokenInterface",
          "name": "cToken",
          "type": "address"
        },
        {
          "indexed": false,
          "internalType": "uint256",
          "name": "oldCollateralFactorMantissa",
          "type": "uint256"
        },
        {
          "indexed": false,
          "internalType": "uint256",
          "name": "newCollateralFactorMantissa",
          "type": "uint256"
        }
      ],
      "name": "NewCollateralFactor",
      "type": "event"
    },
    {
      "anonymous": false,
      "inputs": [
        {
          "indexed": false,
          "internalType": "uint256",
          "name": "oldLiquidationIncentiveMantissa",
          "type": "uint256"
        },
        {
          "indexed": false,
          "internalType": "uint256",
          "name": "newLiquidationIncentiveMantissa",
          "type": "uint256"
        }
      ],
      "name": "NewLiquidationIncentive",
      "type": "event"
    },
    {
      "anonymous": false,
      "inputs": [
        {
          "indexed": false,
          "internalType": "contract PriceOracle",
          "name": "oldPriceOracle",
          "type": "address"
        },
        {
          "indexed": false,
          "internalType": "contract PriceOracle",
          "name": "newPriceOracle",
          "type": "address"
        }
      ],
      "name": "NewPriceOracle",
      "type": "event"
    },
    {
      "anonymous": false,
      "inputs": [
        {
          "indexed": false,
          "internalType": "bool",
          "name": "enforce",
          "type": "bool"
        }
      ],
      "name": "WhitelistEnforcementChanged",
      "type": "event"
    },
    {
      "stateMutability": "nonpayable",
      "type": "fallback"
    },
    {
      "inputs": [
        {
          "internalType": "address",
          "name": "distributor",
          "type": "address"
        }
      ],
      "name": "_addRewardsDistributor",
      "outputs": [
        {
          "internalType": "uint256",
          "name": "",
          "type": "uint256"
        }
      ],
      "stateMutability": "nonpayable",
      "type": "function"
    },
    {
      "inputs": [],
      "name": "_afterNonReentrant",
      "outputs": [],
      "stateMutability": "nonpayable",
      "type": "function"
    },
    {
      "inputs": [
        {
          "internalType": "contract Unitroller",
          "name": "unitroller",
          "type": "address"
        }
      ],
      "name": "_become",
      "outputs": [],
      "stateMutability": "nonpayable",
      "type": "function"
    },
    {
      "inputs": [],
      "name": "_becomeImplementation",
      "outputs": [],
      "stateMutability": "nonpayable",
      "type": "function"
    },
    {
      "inputs": [],
      "name": "_beforeNonReentrant",
      "outputs": [],
      "stateMutability": "nonpayable",
      "type": "function"
    },
    {
      "inputs": [],
      "name": "_borrowGuardianPaused",
      "outputs": [
        {
          "internalType": "bool",
          "name": "",
          "type": "bool"
        }
      ],
      "stateMutability": "view",
      "type": "function"
    },
    {
      "inputs": [
        {
          "internalType": "bool",
          "name": "isCEther",
          "type": "bool"
        },
        {
          "internalType": "bytes",
          "name": "constructorData",
          "type": "bytes"
        },
        {
          "internalType": "uint256",
          "name": "collateralFactorMantissa",
          "type": "uint256"
        }
      ],
      "name": "_deployMarket",
      "outputs": [
        {
          "internalType": "uint256",
          "name": "",
          "type": "uint256"
        }
      ],
      "stateMutability": "nonpayable",
      "type": "function"
    },
    {
      "inputs": [],
      "name": "_listExtensions",
      "outputs": [
        {
          "internalType": "address[]",
          "name": "",
          "type": "address[]"
        }
      ],
      "stateMutability": "view",
      "type": "function"
    },
    {
      "inputs": [],
      "name": "_mintGuardianPaused",
      "outputs": [
        {
          "internalType": "bool",
          "name": "",
          "type": "bool"
        }
      ],
      "stateMutability": "view",
      "type": "function"
    },
    {
      "inputs": [
        {
          "internalType": "contract DiamondExtension",
          "name": "extensionToAdd",
          "type": "address"
        },
        {
          "internalType": "contract DiamondExtension",
          "name": "extensionToReplace",
          "type": "address"
        }
      ],
      "name": "_registerExtension",
      "outputs": [],
      "stateMutability": "nonpayable",
      "type": "function"
    },
    {
      "inputs": [
        {
          "internalType": "uint256",
          "name": "newCloseFactorMantissa",
          "type": "uint256"
        }
      ],
      "name": "_setCloseFactor",
      "outputs": [
        {
          "internalType": "uint256",
          "name": "",
          "type": "uint256"
        }
      ],
      "stateMutability": "nonpayable",
      "type": "function"
    },
    {
      "inputs": [
        {
          "internalType": "contract CTokenInterface",
          "name": "cToken",
          "type": "address"
        },
        {
          "internalType": "uint256",
          "name": "newCollateralFactorMantissa",
          "type": "uint256"
        }
      ],
      "name": "_setCollateralFactor",
      "outputs": [
        {
          "internalType": "uint256",
          "name": "",
          "type": "uint256"
        }
      ],
      "stateMutability": "nonpayable",
      "type": "function"
    },
    {
      "inputs": [
        {
          "internalType": "uint256",
          "name": "newLiquidationIncentiveMantissa",
          "type": "uint256"
        }
      ],
      "name": "_setLiquidationIncentive",
      "outputs": [
        {
          "internalType": "uint256",
          "name": "",
          "type": "uint256"
        }
      ],
      "stateMutability": "nonpayable",
      "type": "function"
    },
    {
      "inputs": [
        {
          "internalType": "contract PriceOracle",
          "name": "newOracle",
          "type": "address"
        }
      ],
      "name": "_setPriceOracle",
      "outputs": [
        {
          "internalType": "uint256",
          "name": "",
          "type": "uint256"
        }
      ],
      "stateMutability": "nonpayable",
      "type": "function"
    },
    {
      "inputs": [
        {
          "internalType": "bool",
          "name": "enforce",
          "type": "bool"
        }
      ],
      "name": "_setWhitelistEnforcement",
      "outputs": [
        {
          "internalType": "uint256",
          "name": "",
          "type": "uint256"
        }
      ],
      "stateMutability": "nonpayable",
      "type": "function"
    },
    {
      "inputs": [
        {
          "internalType": "address[]",
          "name": "suppliers",
          "type": "address[]"
        },
        {
          "internalType": "bool[]",
          "name": "statuses",
          "type": "bool[]"
        }
      ],
      "name": "_setWhitelistStatuses",
      "outputs": [
        {
          "internalType": "uint256",
          "name": "",
          "type": "uint256"
        }
      ],
      "stateMutability": "nonpayable",
      "type": "function"
    },
    {
      "inputs": [
        {
          "internalType": "bool",
          "name": "enabled",
          "type": "bool"
        }
      ],
      "name": "_toggleAutoImplementations",
      "outputs": [
        {
          "internalType": "uint256",
          "name": "",
          "type": "uint256"
        }
      ],
      "stateMutability": "nonpayable",
      "type": "function"
    },
    {
      "inputs": [
        {
          "internalType": "address",
          "name": "",
          "type": "address"
        },
        {
          "internalType": "uint256",
          "name": "",
          "type": "uint256"
        }
      ],
      "name": "accountAssets",
      "outputs": [
        {
          "internalType": "contract CTokenInterface",
          "name": "",
          "type": "address"
        }
      ],
      "stateMutability": "view",
      "type": "function"
    },
    {
      "inputs": [],
      "name": "admin",
      "outputs": [
        {
          "internalType": "address",
          "name": "",
          "type": "address"
        }
      ],
      "stateMutability": "view",
      "type": "function"
    },
    {
      "inputs": [],
      "name": "adminHasRights",
      "outputs": [
        {
          "internalType": "bool",
          "name": "",
          "type": "bool"
        }
      ],
      "stateMutability": "view",
      "type": "function"
    },
    {
      "inputs": [
        {
          "internalType": "uint256",
          "name": "",
          "type": "uint256"
        }
      ],
      "name": "allBorrowers",
      "outputs": [
        {
          "internalType": "address",
          "name": "",
          "type": "address"
        }
      ],
      "stateMutability": "view",
      "type": "function"
    },
    {
      "inputs": [
        {
          "internalType": "uint256",
          "name": "",
          "type": "uint256"
        }
      ],
      "name": "allMarkets",
      "outputs": [
        {
          "internalType": "contract CTokenInterface",
          "name": "",
          "type": "address"
        }
      ],
      "stateMutability": "view",
      "type": "function"
    },
    {
      "inputs": [],
      "name": "asComptrollerFirstExtension",
      "outputs": [
        {
          "internalType": "contract ComptrollerFirstExtension",
          "name": "",
          "type": "address"
        }
      ],
      "stateMutability": "view",
      "type": "function"
    },
    {
      "inputs": [],
      "name": "autoImplementation",
      "outputs": [
        {
          "internalType": "bool",
          "name": "",
          "type": "bool"
        }
      ],
      "stateMutability": "view",
      "type": "function"
    },
    {
      "inputs": [
        {
          "internalType": "address",
          "name": "cToken",
          "type": "address"
        },
        {
          "internalType": "address",
          "name": "borrower",
          "type": "address"
        },
        {
          "internalType": "uint256",
          "name": "borrowAmount",
          "type": "uint256"
        }
      ],
      "name": "borrowAllowed",
      "outputs": [
        {
          "internalType": "uint256",
          "name": "",
          "type": "uint256"
        }
      ],
      "stateMutability": "nonpayable",
      "type": "function"
    },
    {
      "inputs": [
        {
          "internalType": "address",
          "name": "",
          "type": "address"
        },
        {
          "internalType": "address",
          "name": "",
          "type": "address"
        }
      ],
      "name": "borrowCapForAssetForCollateral",
      "outputs": [
        {
          "internalType": "uint256",
          "name": "",
          "type": "uint256"
        }
      ],
      "stateMutability": "view",
      "type": "function"
    },
    {
      "inputs": [],
      "name": "borrowCapGuardian",
      "outputs": [
        {
          "internalType": "address",
          "name": "",
          "type": "address"
        }
      ],
      "stateMutability": "view",
      "type": "function"
    },
    {
      "inputs": [
        {
          "internalType": "address",
          "name": "",
          "type": "address"
        }
      ],
      "name": "borrowCaps",
      "outputs": [
        {
          "internalType": "uint256",
          "name": "",
          "type": "uint256"
        }
      ],
      "stateMutability": "view",
      "type": "function"
    },
    {
      "inputs": [
        {
          "internalType": "address",
          "name": "",
          "type": "address"
        }
      ],
      "name": "borrowGuardianPaused",
      "outputs": [
        {
          "internalType": "bool",
          "name": "",
          "type": "bool"
        }
      ],
      "stateMutability": "view",
      "type": "function"
    },
    {
      "inputs": [
        {
          "internalType": "address",
          "name": "cToken",
          "type": "address"
        },
        {
          "internalType": "uint256",
          "name": "accountBorrowsNew",
          "type": "uint256"
        }
      ],
      "name": "borrowWithinLimits",
      "outputs": [
        {
          "internalType": "uint256",
          "name": "",
          "type": "uint256"
        }
      ],
      "stateMutability": "view",
      "type": "function"
    },
    {
      "inputs": [
        {
          "internalType": "address",
          "name": "",
          "type": "address"
        },
        {
          "internalType": "address",
          "name": "",
          "type": "address"
        }
      ],
      "name": "borrowingAgainstCollateralBlacklist",
      "outputs": [
        {
          "internalType": "bool",
          "name": "",
          "type": "bool"
        }
      ],
      "stateMutability": "view",
      "type": "function"
    },
    {
      "inputs": [
        {
          "internalType": "address",
          "name": "",
          "type": "address"
        }
      ],
      "name": "cTokensByUnderlying",
      "outputs": [
        {
          "internalType": "contract CTokenInterface",
          "name": "",
          "type": "address"
        }
      ],
      "stateMutability": "view",
      "type": "function"
    },
    {
      "inputs": [
        {
          "internalType": "address",
          "name": "account",
          "type": "address"
        },
        {
          "internalType": "contract CTokenInterface",
          "name": "cToken",
          "type": "address"
        }
      ],
      "name": "checkMembership",
      "outputs": [
        {
          "internalType": "bool",
          "name": "",
          "type": "bool"
        }
      ],
      "stateMutability": "view",
      "type": "function"
    },
    {
      "inputs": [],
      "name": "closeFactorMantissa",
      "outputs": [
        {
          "internalType": "uint256",
          "name": "",
          "type": "uint256"
        }
      ],
      "stateMutability": "view",
      "type": "function"
    },
    {
      "inputs": [],
      "name": "comptrollerImplementation",
      "outputs": [
        {
          "internalType": "address",
          "name": "",
          "type": "address"
        }
      ],
      "stateMutability": "view",
      "type": "function"
    },
    {
      "inputs": [],
      "name": "enforceWhitelist",
      "outputs": [
        {
          "internalType": "bool",
          "name": "",
          "type": "bool"
        }
      ],
      "stateMutability": "view",
      "type": "function"
    },
    {
      "inputs": [
        {
          "internalType": "address[]",
          "name": "cTokens",
          "type": "address[]"
        }
      ],
      "name": "enterMarkets",
      "outputs": [
        {
          "internalType": "uint256[]",
          "name": "",
          "type": "uint256[]"
        }
      ],
      "stateMutability": "nonpayable",
      "type": "function"
    },
    {
      "inputs": [
        {
          "internalType": "address",
          "name": "cTokenAddress",
          "type": "address"
        }
      ],
      "name": "exitMarket",
      "outputs": [
        {
          "internalType": "uint256",
          "name": "",
          "type": "uint256"
        }
      ],
      "stateMutability": "nonpayable",
      "type": "function"
    },
    {
      "inputs": [],
      "name": "fuseAdmin",
      "outputs": [
        {
          "internalType": "address payable",
          "name": "",
          "type": "address"
        }
      ],
      "stateMutability": "view",
      "type": "function"
    },
    {
      "inputs": [],
      "name": "fuseAdminHasRights",
      "outputs": [
        {
          "internalType": "bool",
          "name": "",
          "type": "bool"
        }
      ],
      "stateMutability": "view",
      "type": "function"
    },
    {
      "inputs": [
        {
          "internalType": "address",
          "name": "account",
          "type": "address"
        }
      ],
      "name": "getAccountLiquidity",
      "outputs": [
        {
          "internalType": "uint256",
          "name": "",
          "type": "uint256"
        },
        {
          "internalType": "uint256",
          "name": "",
          "type": "uint256"
        },
        {
          "internalType": "uint256",
          "name": "",
          "type": "uint256"
        }
      ],
      "stateMutability": "view",
      "type": "function"
    },
    {
      "inputs": [
        {
          "internalType": "address",
          "name": "account",
          "type": "address"
        }
      ],
      "name": "getAssetsIn",
      "outputs": [
        {
          "internalType": "contract CTokenInterface[]",
          "name": "",
          "type": "address[]"
        }
      ],
      "stateMutability": "view",
      "type": "function"
    },
    {
      "inputs": [
        {
          "internalType": "address",
          "name": "account",
          "type": "address"
        },
        {
          "internalType": "address",
          "name": "cTokenModify",
          "type": "address"
        },
        {
          "internalType": "uint256",
          "name": "redeemTokens",
          "type": "uint256"
        },
        {
          "internalType": "uint256",
          "name": "borrowAmount",
          "type": "uint256"
        }
      ],
      "name": "getHypotheticalAccountLiquidity",
      "outputs": [
        {
          "internalType": "uint256",
          "name": "",
          "type": "uint256"
        },
        {
          "internalType": "uint256",
          "name": "",
          "type": "uint256"
        },
        {
          "internalType": "uint256",
          "name": "",
          "type": "uint256"
        }
      ],
      "stateMutability": "view",
      "type": "function"
    },
    {
      "inputs": [
        {
          "internalType": "address",
          "name": "account",
          "type": "address"
        },
        {
          "internalType": "address",
          "name": "cToken",
          "type": "address"
        },
        {
          "internalType": "bool",
          "name": "isBorrow",
          "type": "bool"
        }
      ],
      "name": "getMaxRedeemOrBorrow",
      "outputs": [
        {
          "internalType": "uint256",
          "name": "",
          "type": "uint256"
        }
      ],
      "stateMutability": "nonpayable",
      "type": "function"
    },
    {
      "inputs": [],
      "name": "isComptroller",
      "outputs": [
        {
          "internalType": "bool",
          "name": "",
          "type": "bool"
        }
      ],
      "stateMutability": "view",
      "type": "function"
    },
    {
      "inputs": [
        {
          "internalType": "contract CTokenInterface",
          "name": "cToken",
          "type": "address"
        }
      ],
      "name": "isDeprecated",
      "outputs": [
        {
          "internalType": "bool",
          "name": "",
          "type": "bool"
        }
      ],
      "stateMutability": "view",
      "type": "function"
    },
    {
      "inputs": [
        {
          "internalType": "address",
          "name": "cTokenBorrowed",
          "type": "address"
        },
        {
          "internalType": "address",
          "name": "cTokenCollateral",
          "type": "address"
        },
        {
          "internalType": "address",
          "name": "liquidator",
          "type": "address"
        },
        {
          "internalType": "address",
          "name": "borrower",
          "type": "address"
        },
        {
          "internalType": "uint256",
          "name": "repayAmount",
          "type": "uint256"
        }
      ],
      "name": "liquidateBorrowAllowed",
      "outputs": [
        {
          "internalType": "uint256",
          "name": "",
          "type": "uint256"
        }
      ],
      "stateMutability": "nonpayable",
      "type": "function"
    },
    {
      "inputs": [
        {
          "internalType": "address",
          "name": "cTokenBorrowed",
          "type": "address"
        },
        {
          "internalType": "address",
          "name": "cTokenCollateral",
          "type": "address"
        },
        {
          "internalType": "uint256",
          "name": "actualRepayAmount",
          "type": "uint256"
        }
      ],
      "name": "liquidateCalculateSeizeTokens",
      "outputs": [
        {
          "internalType": "uint256",
          "name": "",
          "type": "uint256"
        },
        {
          "internalType": "uint256",
          "name": "",
          "type": "uint256"
        }
      ],
      "stateMutability": "view",
      "type": "function"
    },
    {
      "inputs": [],
      "name": "liquidationIncentiveMantissa",
      "outputs": [
        {
          "internalType": "uint256",
          "name": "",
          "type": "uint256"
        }
      ],
      "stateMutability": "view",
      "type": "function"
    },
    {
      "inputs": [
        {
          "internalType": "address",
          "name": "",
          "type": "address"
        }
      ],
      "name": "markets",
      "outputs": [
        {
          "internalType": "bool",
          "name": "isListed",
          "type": "bool"
        },
        {
          "internalType": "uint256",
          "name": "collateralFactorMantissa",
          "type": "uint256"
        }
      ],
      "stateMutability": "view",
      "type": "function"
    },
    {
      "inputs": [
        {
          "internalType": "address",
          "name": "cToken",
          "type": "address"
        },
        {
          "internalType": "address",
          "name": "minter",
          "type": "address"
        },
        {
          "internalType": "uint256",
          "name": "mintAmount",
          "type": "uint256"
        }
      ],
      "name": "mintAllowed",
      "outputs": [
        {
          "internalType": "uint256",
          "name": "",
          "type": "uint256"
        }
      ],
      "stateMutability": "nonpayable",
      "type": "function"
    },
    {
      "inputs": [
        {
          "internalType": "address",
          "name": "",
          "type": "address"
        }
      ],
      "name": "mintGuardianPaused",
      "outputs": [
        {
          "internalType": "bool",
          "name": "",
          "type": "bool"
        }
      ],
      "stateMutability": "view",
      "type": "function"
    },
    {
      "inputs": [
        {
          "internalType": "uint256",
          "name": "",
          "type": "uint256"
        }
      ],
      "name": "nonAccruingRewardsDistributors",
      "outputs": [
        {
          "internalType": "address",
          "name": "",
          "type": "address"
        }
      ],
      "stateMutability": "view",
      "type": "function"
    },
    {
      "inputs": [],
      "name": "oracle",
      "outputs": [
        {
          "internalType": "contract PriceOracle",
          "name": "",
          "type": "address"
        }
      ],
      "stateMutability": "view",
      "type": "function"
    },
    {
      "inputs": [],
      "name": "pauseGuardian",
      "outputs": [
        {
          "internalType": "address",
          "name": "",
          "type": "address"
        }
      ],
      "stateMutability": "view",
      "type": "function"
    },
    {
      "inputs": [],
      "name": "pendingAdmin",
      "outputs": [
        {
          "internalType": "address",
          "name": "",
          "type": "address"
        }
      ],
      "stateMutability": "view",
      "type": "function"
    },
    {
      "inputs": [],
      "name": "pendingComptrollerImplementation",
      "outputs": [
        {
          "internalType": "address",
          "name": "",
          "type": "address"
        }
      ],
      "stateMutability": "view",
      "type": "function"
    },
    {
      "inputs": [
        {
          "internalType": "address",
          "name": "cToken",
          "type": "address"
        },
        {
          "internalType": "address",
          "name": "redeemer",
          "type": "address"
        },
        {
          "internalType": "uint256",
          "name": "redeemTokens",
          "type": "uint256"
        }
      ],
      "name": "redeemAllowed",
      "outputs": [
        {
          "internalType": "uint256",
          "name": "",
          "type": "uint256"
        }
      ],
      "stateMutability": "nonpayable",
      "type": "function"
    },
    {
      "inputs": [
        {
          "internalType": "address",
          "name": "cToken",
          "type": "address"
        },
        {
          "internalType": "address",
          "name": "redeemer",
          "type": "address"
        },
        {
          "internalType": "uint256",
          "name": "redeemAmount",
          "type": "uint256"
        },
        {
          "internalType": "uint256",
          "name": "redeemTokens",
          "type": "uint256"
        }
      ],
      "name": "redeemVerify",
      "outputs": [],
      "stateMutability": "nonpayable",
      "type": "function"
    },
    {
      "inputs": [
        {
          "internalType": "address",
          "name": "cToken",
          "type": "address"
        },
        {
          "internalType": "address",
          "name": "payer",
          "type": "address"
        },
        {
          "internalType": "address",
          "name": "borrower",
          "type": "address"
        },
        {
          "internalType": "uint256",
          "name": "repayAmount",
          "type": "uint256"
        }
      ],
      "name": "repayBorrowAllowed",
      "outputs": [
        {
          "internalType": "uint256",
          "name": "",
          "type": "uint256"
        }
      ],
      "stateMutability": "nonpayable",
      "type": "function"
    },
    {
      "inputs": [
        {
          "internalType": "uint256",
          "name": "",
          "type": "uint256"
        }
      ],
      "name": "rewardsDistributors",
      "outputs": [
        {
          "internalType": "address",
          "name": "",
          "type": "address"
        }
      ],
      "stateMutability": "view",
      "type": "function"
    },
    {
      "inputs": [
        {
          "internalType": "address",
          "name": "cTokenCollateral",
          "type": "address"
        },
        {
          "internalType": "address",
          "name": "cTokenBorrowed",
          "type": "address"
        },
        {
          "internalType": "address",
          "name": "liquidator",
          "type": "address"
        },
        {
          "internalType": "address",
          "name": "borrower",
          "type": "address"
        },
        {
          "internalType": "uint256",
          "name": "seizeTokens",
          "type": "uint256"
        }
      ],
      "name": "seizeAllowed",
      "outputs": [
        {
          "internalType": "uint256",
          "name": "",
          "type": "uint256"
        }
      ],
      "stateMutability": "nonpayable",
      "type": "function"
    },
    {
      "inputs": [],
      "name": "seizeGuardianPaused",
      "outputs": [
        {
          "internalType": "bool",
          "name": "",
          "type": "bool"
        }
      ],
      "stateMutability": "view",
      "type": "function"
    },
    {
      "inputs": [
        {
          "internalType": "address",
          "name": "",
          "type": "address"
        }
      ],
      "name": "suppliers",
      "outputs": [
        {
          "internalType": "bool",
          "name": "",
          "type": "bool"
        }
      ],
      "stateMutability": "view",
      "type": "function"
    },
    {
      "inputs": [
        {
          "internalType": "address",
          "name": "",
          "type": "address"
        }
      ],
      "name": "supplyCaps",
      "outputs": [
        {
          "internalType": "uint256",
          "name": "",
          "type": "uint256"
        }
      ],
      "stateMutability": "view",
      "type": "function"
    },
    {
      "inputs": [
        {
          "internalType": "address",
          "name": "cToken",
          "type": "address"
        },
        {
          "internalType": "address",
          "name": "src",
          "type": "address"
        },
        {
          "internalType": "address",
          "name": "dst",
          "type": "address"
        },
        {
          "internalType": "uint256",
          "name": "transferTokens",
          "type": "uint256"
        }
      ],
      "name": "transferAllowed",
      "outputs": [
        {
          "internalType": "uint256",
          "name": "",
          "type": "uint256"
        }
      ],
      "stateMutability": "nonpayable",
      "type": "function"
    },
    {
      "inputs": [],
      "name": "transferGuardianPaused",
      "outputs": [
        {
          "internalType": "bool",
          "name": "",
          "type": "bool"
        }
      ],
      "stateMutability": "view",
      "type": "function"
    },
    {
      "inputs": [
        {
          "internalType": "address",
          "name": "",
          "type": "address"
        }
      ],
      "name": "whitelist",
      "outputs": [
        {
          "internalType": "bool",
          "name": "",
          "type": "bool"
        }
      ],
      "stateMutability": "view",
      "type": "function"
    },
    {
      "inputs": [
        {
          "internalType": "uint256",
          "name": "",
          "type": "uint256"
        }
      ],
      "name": "whitelistArray",
      "outputs": [
        {
          "internalType": "address",
          "name": "",
          "type": "address"
        }
      ],
      "stateMutability": "view",
      "type": "function"
    }
  ],
  "transactionHash": "0xe70ee91a5b079f281ad8c6f5267f7871049beb083a3ba5779912d40da1d79915",
  "args": [
    "0xf656D243a23A0987329ac6522292f4104A7388e1"
  ],
  "numDeployments": 16,
  "bytecode": {
    "object": "0x60806040526002805461ffff60a01b191661010160a01b1790553480156200002657600080fd5b5060405162005b8338038062005b8383398101604081905262000049916200006f565b600080546001600160a01b0319166001600160a01b0392909216919091179055620000a1565b6000602082840312156200008257600080fd5b81516001600160a01b03811681146200009a57600080fd5b9392505050565b615ad280620000b16000396000f3fe608060405234801561001057600080fd5b50600436106104065760003560e01c80637515bafa11610220578063c299823811610130578063dce15449116100b8578063e6653f3d11610087578063e6653f3d14610a76578063e875544614610a8a578063eabe7d9114610a93578063ede4edd014610aa6578063f851a44014610ab957610406565b8063dce1544914610a30578063dcfbc0c714610a43578063dd5cd22c14610a56578063e4028eee14610a6357610406565b8063c90c20b1116100ff578063c90c20b1146109dc578063d02f7351146109e4578063d251fefc146109f7578063d533316614610a0a578063da3d454c14610a1d57610406565b8063c29982381461096e578063c488847b1461098e578063c6c5b0dd146109b6578063c8c9c975146109c957610406565b8063952adf5a116101b3578063ac0b0bb711610182578063ac0b0bb714610914578063b095721014610928578063b9b5b15314610935578063bb82aa5e14610948578063bdcdc2581461095b57610406565b8063952adf5a146108b85780639b19251a146108cb578063aba35b98146108ee578063abfceffc1461090157610406565b806389cd9855116101ef57806389cd98551461080d5780638e8f294b14610820578063929fe9a11461086457806394543c15146108a557610406565b80637515bafa146107c0578063779b2294146107d35780637dc0d1d0146107e657806387f76303146107f957610406565b80634a5844321161031b57806355ee1fe1116102ae578063632e51421161027d578063632e51421461074a5780636333d001146107525780636bd02b8a146107675780636d154ea51461077a578063731f0c2b1461079d57610406565b806355ee1fe1146107095780635d72de621461071c5780635ec88c79146107245780635fc7e71e1461073757610406565b80634fd42e17116102ea5780634fd42e17146106a557806351dff989146106b857806352d84d1e146106cb57806355c6b6b9146106de57610406565b80634a5844321461063b5780634ada90af1461065b5780634e79238f146106645780634ef4c3e11461069257610406565b80631d504dc61161039e578063267822471161036d57806326782247146105c45780632f1069ba146105d7578063317b0b77146105eb57806331ff47fa146105fe5780633c94786f1461062757610406565b80631d504dc61461057157806321af45691461058657806324008a621461059e57806324a3d622146105b157610406565b806316dc15fe116103da57806316dc15fe146105075780631976828e1461052a5780631ace59571461053d5780631c819e431461054357610406565b80627e3dd21461047d57806302c3bcbb1461049a5780630a755ec2146104c857806315761d51146104dc575b600061041d6000356001600160e01b031916610acc565b90506001600160a01b03811661045957604051630a82dd7360e31b81526001600160e01b03196000351660048201526024015b60405180910390fd5b3660008037600080366000845af43d6000803e808015610478573d6000f35b3d6000fd5b610485600181565b60405190151581526020015b60405180910390f35b6104ba6104a8366004615224565b601a6020526000908152604090205481565b604051908152602001610491565b60025461048590600160a81b900460ff1681565b6000546104ef906001600160a01b031681565b6040516001600160a01b039091168152602001610491565b610485610515366004615224565b600f6020526000908152604090205460ff1681565b6104ba61053836600461524f565b610b2f565b306104ef565b61048561055136600461529a565b601f60209081526000928352604080842090915290825290205460ff1681565b61058461057f366004615224565b610d7e565b005b6018546104ef9061010090046001600160a01b031681565b6104ba6105ac3660046152d3565b61101c565b6015546104ef906001600160a01b031681565b6002546104ef906001600160a01b031681565b60025461048590600160a01b900460ff1681565b6104ba6105f9366004615324565b61105e565b6104ef61060c366004615224565b6010602052600090815260409020546001600160a01b031681565b60155461048590600160a01b900460ff1681565b6104ba610649366004615224565b60196020526000908152604090205481565b6104ba60075481565b61067761067236600461533d565b611138565b60408051938452602084019290925290820152606001610491565b6104ba6106a0366004615383565b611178565b6104ba6106b3366004615324565b611534565b6105846106c636600461533d565b6115f0565b6104ef6106d9366004615324565b611639565b6104ba6106ec36600461529a565b601e60209081526000928352604080842090915290825290205481565b6104ba610717366004615224565b611663565b6105846116e3565b610677610732366004615224565b611857565b6104ba6107453660046153c4565b611892565b610584611a67565b61075a611ad5565b6040516104919190615428565b6104ef610775366004615324565b611ae4565b610485610788366004615224565b60176020526000908152604090205460ff1681565b6104856107ab366004615224565b60166020526000908152604090205460ff1681565b6104ef6107ce366004615324565b611af4565b6104ba6107e1366004615475565b611b04565b6005546104ef906001600160a01b031681565b60155461048590600160b01b900460ff1681565b61058461081b36600461529a565b611c5f565b61084d61082e366004615224565b600a602052600090815260409020805460019091015460ff9091169082565b604080519215158352602083019190915201610491565b61048561087236600461529a565b6001600160a01b038082166000908152600a60209081526040808320938616835260029093019052205460ff1692915050565b6104856108b3366004615224565b611cd8565b6104ba6108c63660046154a1565b611e42565b6104856108d9366004615224565b60126020526000908152604090205460ff1681565b6104ba6108fc3660046154be565b611ec0565b61075a61090f366004615224565b611fb6565b60155461048590600160b81b900460ff1681565b6011546104859060ff1681565b6104ba610943366004615224565b61202c565b6003546104ef906001600160a01b031681565b6104ba6109693660046152d3565b6121ef565b61098161097c3660046155b4565b612287565b6040516104919190615648565b6109a161099c366004615383565b61234f565b60408051928352602083019190915201610491565b6104ef6109c4366004615324565b6126dc565b6104ba6109d73660046156c5565b6126ec565b610584612993565b6104ba6109f23660046153c4565b612a3d565b6104ef610a05366004615324565b612be8565b6104ba610a183660046154a1565b612bf8565b6104ba610a2b366004615383565b612c6b565b6104ef610a3e366004615475565b612ffa565b6004546104ef906001600160a01b031681565b6018546104859060ff1681565b6104ba610a71366004615475565b613032565b60155461048590600160a81b900460ff1681565b6104ba60065481565b6104ba610aa1366004615383565b6131bc565b6104ba610ab4366004615224565b6131d9565b6001546104ef906001600160a01b031681565b6001600160e01b031981166000908152600080516020615aa6833981519152602081905260408220546001600160a01b031680610b2857604051631f3f429960e31b81526001600160e01b031985166004820152602401610450565b9392505050565b6000808390506000816001600160a01b0316639f5ef2726040518163ffffffff1660e01b8152600401602060405180830381865afa158015610b75573d6000803e3d6000fd5b505050506040513d601f19601f82011682018060405250810190610b999190615731565b604051633af9e66960e01b81526001600160a01b0388811660048301529190911690633af9e669906024016020604051808303816000875af1158015610be3573d6000803e3d6000fd5b505050506040513d601f19601f82011682018060405250810190610c07919061574e565b90506000806000610c288988610c1e576000610c20565b865b60008061363c565b919450925090506000836014811115610c4357610c43615767565b14610c7d5760405162461bcd60e51b815260206004820152600a602482015269216c697175696469747960b01b6044820152606401610450565b8015610c9157600095505050505050610b28565b600087158015610ccb57506001600160a01b03808a166000908152600a60209081526040808320938e16835260029093019052205460ff16155b15610cd7575083610cf9565b610ce283878a613b7b565b905087158015610cf157508085105b15610cf95750835b6000866001600160a01b0316633b1d21a26040518163ffffffff1660e01b8152600401602060405180830381865afa158015610d39573d6000803e3d6000fd5b505050506040513d601f19601f82011682018060405250810190610d5d919061574e565b905080821115610d6d5780610d6f565b815b9b9a5050505050505050505050565b6000546001600160a01b031633148015610df55750806001600160a01b0316632f1069ba6040518163ffffffff1660e01b8152600401602060405180830381865afa158015610dd1573d6000803e3d6000fd5b505050506040513d601f19601f82011682018060405250810190610df5919061577d565b80610eda5750806001600160a01b031663f851a4406040518163ffffffff1660e01b8152600401602060405180830381865afa158015610e39573d6000803e3d6000fd5b505050506040513d601f19601f82011682018060405250810190610e5d9190615731565b6001600160a01b0316336001600160a01b0316148015610eda5750806001600160a01b0316630a755ec26040518163ffffffff1660e01b8152600401602060405180830381865afa158015610eb6573d6000803e3d6000fd5b505050506040513d601f19601f82011682018060405250810190610eda919061577d565b610f0f5760405162461bcd60e51b815260206004820152600660248201526510b0b236b4b760d11b6044820152606401610450565b6000816001600160a01b031663c1e803346040518163ffffffff1660e01b81526004016020604051808303816000875af1158015610f51573d6000803e3d6000fd5b505050506040513d601f19601f82011682018060405250810190610f75919061574e565b90508015610fc55760405162461bcd60e51b815260206004820181905260248201527f21756e617574686f72697a6564202d206e6f742070656e64696e6720696d706c6044820152606401610450565b816001600160a01b0316635d72de626040518163ffffffff1660e01b8152600401600060405180830381600087803b15801561100057600080fd5b505af1158015611014573d6000803e3d6000fd5b505050505050565b6001600160a01b0384166000908152600a602052604081205460ff166110465760085b9050611056565b6110508584613c94565b60005b90505b949350505050565b6000611068613d3c565b61107e5761107860016007613d8e565b92915050565b6040805160208082018352848252825190810190925266b1a2bc2ec500008083528151919291116110b55761105660056008613d8e565b6040805160208101909152670c7d713b49da0000808252835111156110e9576110e060056008613d8e565b95945050505050565b600680549086905560408051828152602081018890527f3b9670cf975d26958e754b57098eaa2ac914d8d2a31b83257997b9f346110fd991015b60405180910390a160005b9695505050505050565b60008060008060008061114d8a8a8a8a61363c565b92509250925082601481111561116557611165615767565b95509093509150505b9450945094915050565b6001600160a01b03831660009081526016602052604081205460ff16156111d05760405162461bcd60e51b815260206004820152600c60248201526b085b5a5b9d0e9c185d5cd95960a21b6044820152606401610450565b6001600160a01b0384166000908152600a602052604090205460ff166111fa5760085b9050610b28565b60115460ff16801561122557506001600160a01b03831660009081526012602052604090205460ff16155b156112315760116111f3565b6001600160a01b0384166000908152601a6020526040902054801561151f576000856001600160a01b0316633b1d21a26040518163ffffffff1660e01b8152600401602060405180830381865afa158015611290573d6000803e3d6000fd5b505050506040513d601f19601f820116820180604052508101906112b4919061574e565b90506000866001600160a01b03166347bd37186040518163ffffffff1660e01b8152600401602060405180830381865afa1580156112f6573d6000803e3d6000fd5b505050506040513d601f19601f8201168201806040525081019061131a919061574e565b90506000876001600160a01b0316638f840ddd6040518163ffffffff1660e01b8152600401602060405180830381865afa15801561135c573d6000803e3d6000fd5b505050506040513d601f19601f82011682018060405250810190611380919061574e565b90506000886001600160a01b031663dc028ab16040518163ffffffff1660e01b8152600401602060405180830381865afa1580156113c2573d6000803e3d6000fd5b505050506040513d601f19601f820116820180604052508101906113e6919061574e565b90506000896001600160a01b03166361feacff6040518163ffffffff1660e01b8152600401602060405180830381865afa158015611428573d6000803e3d6000fd5b505050506040513d601f19601f8201168201806040525081019061144c919061574e565b905060008061146e87876114696114638989613e07565b87613e07565b613e3d565b9092509050600082600381111561148757611487615767565b1461149d57600a98505050505050505050610b28565b60006114a9828c613e8f565b909350905060008360038111156114c2576114c2615767565b146114d957600a9950505050505050505050610b28565b8881106115165760405162461bcd60e51b815260206004820152600b60248201526a021737570706c79206361760ac1b6044820152606401610450565b50505050505050505b6115298585613eb8565b600095945050505050565b600061153e613d3c565b61154e576110786001600d613d8e565b60408051602080820183528482528251908101909252670de0b6b3a764000080835281519192911015611587576110566007600e613d8e565b60408051602081019091526714d1120d7b160000808252835111156115b2576110e06007600e613d8e565b600780549086905560408051828152602081018890527faeba5a6c40a8ac138134bff1aaa65debf25971188a58804bad717f82f0ec13169101611123565b801580156115fe5750600082115b156116335760405162461bcd60e51b8152602060048201526005602482015264217a65726f60d81b6044820152606401610450565b50505050565b600b818154811061164957600080fd5b6000918252602090912001546001600160a01b0316905081565b600061166d613d3c565b61167d5761107860016012613d8e565b600580546001600160a01b038481166001600160a01b031983168117909355604080519190921680825260208201939093527fd52b2b9b7e9ee655fcb95d2e5b9e0c9f69e7ef2b8e9d2d0ea78402d576d22e22910160405180910390a160009392505050565b6003546001600160a01b0316331461172f5760405162461bcd60e51b815260206004820152600f60248201526e10b4b6b83632b6b2b73a30ba34b7b760891b6044820152606401610450565b6000611739613f5a565b905060005b815181101561177b5761176982828151811061175c5761175c61579a565b6020026020010151613fcc565b80611773816157c6565b91505061173e565b5060008054600354604051631978a0bf60e31b81526001600160a01b03918216600482015291169063cbc505f890602401600060405180830381865afa1580156117c9573d6000803e3d6000fd5b505050506040513d6000823e601f3d908101601f191682016040526117f191908101906157e1565b905060005b8151811015611833576118218282815181106118145761181461579a565b60200260200101516140fc565b8061182b816157c6565b9150506117f6565b50601c54610100900460ff1661185357601c805461ffff19166101011790555b5050565b60008060008060008061186e87600080600061363c565b92509250925082601481111561188657611886615767565b97919650945092505050565b6001600160a01b0385166000908152600a602052604081205460ff1615806118d357506001600160a01b0385166000908152600a602052604090205460ff16155b156118e25760085b90506110e0565b6118eb866141f4565b806118fa57506118fa856141f4565b156119065760046118db565b6040516395dd919360e01b81526001600160a01b038481166004830152600091908816906395dd919390602401602060405180830381865afa158015611950573d6000803e3d6000fd5b505050506040513d601f19601f82011682018060405250810190611974919061574e565b905061197f87611cd8565b156119c957828110156119c45760405162461bcd60e51b815260206004820152600d60248201526c21626f72726f773e726570617960981b6044820152606401610450565b611a5a565b6000806119da86600080600061363c565b919350909150600090508260148111156119f6576119f6615767565b14611a1757816014811115611a0d57611a0d615767565b93505050506110e0565b80611a23576003611a0d565b6000611a3f6040518060200160405280600654815250856142b3565b905080861115611a565760109450505050506110e0565b5050505b5060009695505050505050565b336000908152600a602052604090205460ff16611ac65760405162461bcd60e51b815260206004820152601f60248201527f21436f6d7074726f6c6c65723a5f61667465724e6f6e5265656e7472616e74006044820152606401610450565b601c805460ff19166001179055565b6060611adf613f5a565b905090565b601d818154811061164957600080fd5b600d818154811061164957600080fd5b600080546040805163fdb25fb160e01b8152905183926001600160a01b03169163fdb25fb19160048083019260209291908290030181865afa158015611b4e573d6000803e3d6000fd5b505050506040513d601f19601f82011682018060405250810190611b72919061574e565b90508015611c555760055460405163fc57d4df60e01b81526001600160a01b038681166004830152600092169063fc57d4df90602401602060405180830381865afa158015611bc5573d6000803e3d6000fd5b505050506040513d601f19601f82011682018060405250810190611be9919061574e565b905080611bfb57600c92505050611078565b600080611c16604051806020016040528085815250876142cb565b90925090506000826003811115611c2f57611c2f615767565b14611c4257600a5b945050505050611078565b83811015611c51576012611c37565b5050505b6000949350505050565b6000546001600160a01b031633148015611c825750600254600160a01b900460ff165b611cce5760405162461bcd60e51b815260206004820152601f60248201527f21756e617574686f72697a6564202d206e6f2061646d696e20726967687473006044820152606401610450565b611853828261431d565b6001600160a01b0381166000908152600a6020526040812060010154158015611d1e57506001600160a01b03821660009081526017602052604090205460ff1615156001145b80156110785750611e32611df4836001600160a01b031663173b99046040518163ffffffff1660e01b8152600401602060405180830381865afa158015611d69573d6000803e3d6000fd5b505050506040513d601f19601f82011682018060405250810190611d8d919061574e565b846001600160a01b0316638d02d9a16040518163ffffffff1660e01b8152600401602060405180830381865afa158015611dcb573d6000803e3d6000fd5b505050506040513d601f19601f82011682018060405250810190611def919061574e565b613e07565b836001600160a01b031663dbfe7c196040518163ffffffff1660e01b8152600401602060405180830381865afa158015611dcb573d6000803e3d6000fd5b670de0b6b3a76400001492915050565b6000611e4c613d3c565b611e5c5761107860016013613d8e565b60115460ff1615158215151415611e74576000611078565b6011805460ff19168315159081179091556040519081527f84c7d948374a180eddab35d27d2f7a94167a1ff4e79467f1e89c061984190a1e906020015b60405180910390a16000611078565b6000611eca613d3c565b611eda5761103f60016016613d8e565b60028054600160a01b60ff60a01b198216811790925560008054604051638754e4fd60e01b81529390920460ff169290916001600160a01b031690638754e4fd90611f2b9089908990600401615870565b6020604051808303816000875af1158015611f4a573d6000803e3d6000fd5b505050506040513d601f19601f82011682018060405250810190611f6e9190615731565b6002805460ff60a01b1916600160a01b8515150217905590506000611f928261433e565b90508015611fa05780611faa565b611faa8286613032565b98975050505050505050565b6001600160a01b038116600090815260096020908152604080832080548251818502810185019093528083526060949383018282801561201f57602002820191906000526020600020905b81546001600160a01b03168152600190910190602001808311612001575b5093979650505050505050565b6000612036613d3c565b6120465761107860016002613d8e565b816001600160a01b031663abc6d72d6040518163ffffffff1660e01b81526004016020604051808303816000875af1158015612086573d6000803e3d6000fd5b505050506040513d601f19601f820116820180604052508101906120aa919061577d565b6120ee5760405162461bcd60e51b815260206004820152601560248201527410b4b9a932bbb0b93239a234b9ba3934b13aba37b960591b6044820152606401610450565b60005b601b5481101561217057601b818154811061210e5761210e61579a565b6000918252602090912001546001600160a01b038481169116141561215e5760405162461bcd60e51b815260206004820152600660248201526508585919195960d21b6044820152606401610450565b80612168816157c6565b9150506120f1565b50601b80546001810182556000919091527f3ad8aa4f87544323a9d1e5dd902f40c356527a7955687113db5f9a85ad579dc10180546001600160a01b0319166001600160a01b0384169081179091556040519081527f98ef1187fb6fd2bc85f8996489877eb2b5428f9e9bdfc068c9ad6c2ea82eacc790602001611eb1565b601554600090600160b01b900460ff161561223f5760405162461bcd60e51b815260206004820152601060248201526f085d1c985b9cd9995c8e9c185d5cd95960821b6044820152606401610450565b612248856141f4565b1561225457600461103f565b6000612261868685614628565b90508015612270579050611056565b61227b8686866146f5565b60009695505050505050565b805160609060008167ffffffffffffffff8111156122a7576122a7615549565b6040519080825280602002602001820160405280156122d0578160200160208202803683370190505b50905060005b828110156123475760008582815181106122f2576122f261579a565b6020026020010151905061230681336147a0565b601481111561231757612317615767565b8383815181106123295761232961579a565b6020908102919091010152508061233f816157c6565b9150506122d6565b509392505050565b60055460405163fc57d4df60e01b81526001600160a01b038581166004830152600092839283929091169063fc57d4df90602401602060405180830381865afa1580156123a0573d6000803e3d6000fd5b505050506040513d601f19601f820116820180604052508101906123c4919061574e565b60055460405163fc57d4df60e01b81526001600160a01b0388811660048301529293506000929091169063fc57d4df90602401602060405180830381865afa158015612414573d6000803e3d6000fd5b505050506040513d601f19601f82011682018060405250810190612438919061574e565b9050811580612445575080155b1561245957600c60009350935050506126d4565b60008690506000816001600160a01b0316639f5ef2726040518163ffffffff1660e01b8152600401602060405180830381865afa15801561249e573d6000803e3d6000fd5b505050506040513d601f19601f820116820180604052508101906124c29190615731565b6001600160a01b031663182df0f56040518163ffffffff1660e01b8152600401602060405180830381865afa1580156124ff573d6000803e3d6000fd5b505050506040513d601f19601f82011682018060405250810190612523919061574e565b9050600061253d6040518060200160405280600081525090565b6040805160208101909152600081526040805160208101909152600081526000866001600160a01b0316636752e7026040518163ffffffff1660e01b8152600401602060405180830381865afa15801561259b573d6000803e3d6000fd5b505050506040513d601f19601f820116820180604052508101906125bf919061574e565b90506000876001600160a01b031663be99f1196040518163ffffffff1660e01b8152600401602060405180830381865afa158015612601573d6000803e3d6000fd5b505050506040513d601f19601f82011682018060405250810190612625919061574e565b90506000612668612654604051806020016040528060075481525060405180602001604052808781525061493b565b60405180602001604052808581525061493b565b90506126828160405180602001604052808e815250614970565b95506126aa60405180602001604052808c81525060405180602001604052808b815250614970565b94506126b686866149af565b93506126c2848f6142b3565b60009d509b5050505050505050505050505b935093915050565b601b818154811061164957600080fd5b60006126f6613d3c565b6127065761103f60016014613d8e565b60005b8481101561298b5760008686838181106127255761272561579a565b905060200201602081019061273a9190615224565b905084848381811061274e5761274e61579a565b905060200201602081019061276391906154a1565b1561281b576001600160a01b03811660009081526012602052604090205460ff16612816576001600160a01b0381166000818152601260205260408120805460ff19166001908117909155601380548083018255928190527f66de8ffda797e3de9c05e8fc57b3bf0ec28a930d40b0d285d93c06501cf6a09090920180546001600160a01b031916909317909255546127fc919061589f565b6001600160a01b0382166000908152601460205260409020555b612978565b6001600160a01b03811660009081526012602052604090205460ff1615612978576013805461284c9060019061589f565b8154811061285c5761285c61579a565b60009182526020808320909101546001600160a01b038481168452601490925260409092205460138054929093169291811061289a5761289a61579a565b9060005260206000200160006101000a8154816001600160a01b0302191690836001600160a01b0316021790555060138054806128d9576128d96158b6565b60008281526020808220830160001990810180546001600160a01b03191690559092019092556001600160a01b03831682526014908190526040822054601380549193918490811061292d5761292d61579a565b60009182526020808320909101546001600160a01b039081168452838201949094526040928301822094909455918416825260148352808220829055601290925220805460ff191690555b5080612983816157c6565b915050612709565b506000611053565b336000908152600a602052604090205460ff166129f25760405162461bcd60e51b815260206004820181905260248201527f21436f6d7074726f6c6c65723a5f6265666f72654e6f6e5265656e7472616e746044820152606401610450565b601c5460ff16612a315760405162461bcd60e51b815260206004820152600a602482015269085c99595b9d195c995960b21b6044820152606401610450565b601c805460ff19169055565b601554600090600160b81b900460ff1615612a8a5760405162461bcd60e51b815260206004820152600d60248201526c085cd95a5e994e9c185d5cd959609a1b6044820152606401610450565b6001600160a01b0386166000908152600a602052604090205460ff161580612acb57506001600160a01b0385166000908152600a602052604090205460ff16155b15612ad75760086118db565b612ae0856141f4565b80612aef5750612aef866141f4565b15612afb5760046118db565b846001600160a01b0316635fe3b5676040518163ffffffff1660e01b8152600401602060405180830381865afa158015612b39573d6000803e3d6000fd5b505050506040513d601f19601f82011682018060405250810190612b5d9190615731565b6001600160a01b0316866001600160a01b0316635fe3b5676040518163ffffffff1660e01b8152600401602060405180830381865afa158015612ba4573d6000803e3d6000fd5b505050506040513d601f19601f82011682018060405250810190612bc89190615731565b6001600160a01b031614612bdd5760026118db565b61227b8684866146f5565b6013818154811061164957600080fd5b6000612c02613d3c565b612c125761107860016006613d8e565b60185460ff1615158215151415612c2a576000611078565b6018805460ff19168315159081179091556040519081527faa40ee94af55250363b91641a0a615c47690148901505f89b01dafae03fff28190602001611eb1565b6001600160a01b03831660009081526017602052604081205460ff1615612cc55760405162461bcd60e51b815260206004820152600e60248201526d08589bdc9c9bddce9c185d5cd95960921b6044820152606401610450565b6001600160a01b0384166000908152600a602052604090205460ff16612cec5760086111f3565b6001600160a01b038085166000908152600a60209081526040808320938716835260029093019052205460ff16612ddb57336001600160a01b03851614612d5f5760405162461bcd60e51b815260206004820152600760248201526610b1ba37b5b2b760c91b6044820152606401610450565b6000612d6b33856147a0565b90506000816014811115612d8157612d81615767565b14612da057806014811115612d9857612d98615767565b915050610b28565b6001600160a01b038086166000908152600a60209081526040808320938816835260029093019052205460ff16612dd957612dd96158cc565b505b60055460405163fc57d4df60e01b81526001600160a01b0386811660048301529091169063fc57d4df90602401602060405180830381865afa158015612e25573d6000803e3d6000fd5b505050506040513d601f19601f82011682018060405250810190612e49919061574e565b612e5457600c6111f3565b60115460ff168015612e7f57506001600160a01b03831660009081526012602052604090205460ff16155b15612e8b5760116111f3565b6001600160a01b0384166000908152601960205260409020548015612f89576000856001600160a01b03166347bd37186040518163ffffffff1660e01b8152600401602060405180830381865afa158015612eea573d6000803e3d6000fd5b505050506040513d601f19601f82011682018060405250810190612f0e919061574e565b9050600080612f1d8387613e8f565b90925090506000826003811115612f3657612f36615767565b14612f4857600a945050505050610b28565b838110612f855760405162461bcd60e51b815260206004820152600b60248201526a021626f72726f773a6361760ac1b6044820152606401610450565b5050505b612f938585613c94565b600080612fa3868860008861363c565b91935090915060009050826014811115612fbf57612fbf615767565b14612fe057816014811115612fd657612fd6615767565b9350505050610b28565b8015612fed576004612fd6565b6000979650505050505050565b6009602052816000526040600020818154811061301657600080fd5b6000918252602090912001546001600160a01b03169150829050565b600061303c613d3c565b6130535761304c60016009613d8e565b9050611078565b6001600160a01b0383166000908152600a60205260409020805460ff16613088576130806008600a613d8e565b915050611078565b60408051602080820183528582528251908101909252670c7d713b49da00008252906130b681835190511090565b156130d1576130c76006600b613d8e565b9350505050611078565b841580159061314b575060055460405163fc57d4df60e01b81526001600160a01b0388811660048301529091169063fc57d4df90602401602060405180830381865afa158015613125573d6000803e3d6000fd5b505050506040513d601f19601f82011682018060405250810190613149919061574e565b155b1561315b576130c7600c80613d8e565b60018301805490869055604080516001600160a01b0389168152602081018390529081018790527f70483e6592cd5182d45ac970e05bc62cdcc90e9d8ef2c2dbe686cf383bcd7fc59060600160405180910390a16000979650505050505050565b6000806131ca858585614628565b9050801561151f579050610b28565b6040516361bfb47160e11b815233600482015260009082908290819081906001600160a01b0385169063c37f68e290602401608060405180830381865afa158015613228573d6000803e3d6000fd5b505050506040513d601f19601f8201168201806040525081019061324c91906158e2565b50925092509250826000146132915760405162461bcd60e51b815260206004820152600b60248201526a08595e1a5d13585c9ad95d60aa1b6044820152606401610450565b80156132a35761112e600b6003613d8e565b60006132b0873385614628565b905080156132d0576132c5600d6004836149e9565b979650505050505050565b6001600160a01b0385166000908152600a60209081526040808320338452600281019092529091205460ff1661330e57600098975050505050505050565b3360009081526002820160209081526040808320805460ff19169055600982528083208054825181850281018501909352808352919290919083018282801561338057602002820191906000526020600020905b81546001600160a01b03168152600190910190602001808311613362575b5050835193945083925060009150505b828110156133e557896001600160a01b03168482815181106133b4576133b461579a565b60200260200101516001600160a01b031614156133d3578091506133e5565b806133dd816157c6565b915050613390565b508181106133f5576133f56158cc565b336000908152600960205260409020805481906134149060019061589f565b815481106134245761342461579a565b9060005260206000200160009054906101000a90046001600160a01b03168183815481106134545761345461579a565b9060005260206000200160006101000a8154816001600160a01b0302191690836001600160a01b0316021790555080805480613492576134926158b6565b600082815260209020810160001990810180546001600160a01b031916905501905580546135e957600d80546134ca9060019061589f565b815481106134da576134da61579a565b6000918252602080832090910154338352600e909152604090912054600d80546001600160a01b039093169290919081106135175761351761579a565b9060005260206000200160006101000a8154816001600160a01b0302191690836001600160a01b03160217905550600d805480613556576135566158b6565b60008281526020808220830160001990810180546001600160a01b0319169055909201909255338252600e908190526040822054600d8054919391849081106135a1576135a161579a565b60009182526020808320909101546001600160a01b03168352828101939093526040918201812093909355338352600e8252808320839055600c9091529020805460ff191690555b604080516001600160a01b038c1681523360208201527fe699a64c18b07ac5b7301aa273f36a2287239eb9501d81950672794afba29a0d910160405180910390a160009c9b505050505050505050505050565b6000806000613649615154565b60006001600160a01b0388161561373757876001600160a01b03166347bd37186040518163ffffffff1660e01b8152600401602060405180830381865afa158015613698573d6000803e3d6000fd5b505050506040513d601f19601f820116820180604052508101906136bc919061574e565b61016083015260055460405163fc57d4df60e01b81526001600160a01b038a811660048301529091169063fc57d4df90602401602060405180830381865afa15801561370c573d6000803e3d6000fd5b505050506040513d601f19601f82011682018060405250810190613730919061574e565b6101808301525b6001600160a01b0389166000908152600960209081526040808320805482518185028101850190935280835291929091908301828280156137a157602002820191906000526020600020905b81546001600160a01b03168152600190910190602001808311613783575b5050505050905060005b8151811015613b255760008282815181106137c8576137c861579a565b60209081029190910101516040516361bfb47160e11b81526001600160a01b038e811660048301529192509082169063c37f68e290602401608060405180830381865afa15801561381d573d6000803e3d6000fd5b505050506040513d601f19601f8201168201806040525081019061384191906158e2565b6080890152606088015260408701529350831561386d57600e600080975097509750505050505061116e565b60408051602080820183526001600160a01b038481166000818152600a845285902060010154845260c08a0193909352835191820184526080890151825260e0890191909152600554925163fc57d4df60e01b81526004810192909252919091169063fc57d4df90602401602060405180830381865afa1580156138f5573d6000803e3d6000fd5b505050506040513d601f19601f82011682018060405250810190613919919061574e565b60a0860181905261393957600c600080975097509750505050505061116e565b604080516020810190915260a0860151815261010086015260c085015160e08601516139739161396891614970565b866101000151614970565b6101208601526000196001600160a01b03828116908d16141580613997575060008b115b15613aad576001600160a01b038c1615613a74576001600160a01b03808d166000908152601f602090815260408083209386168352929052205460ff1680156139e35760009150613a72565b6001600160a01b03808e166000908152601e6020908152604080832093871683529290522054610140880181905215613a725786610160015187610140015110613a6d576000876101600151886101400151613a3f919061589f565b9050670de0b6b3a764000088610180015182613a5b9190615918565b613a659190615937565b925050613a72565b600091505b505b6000613a8987610120015188604001516142b3565b905081811115613a965750805b8087600001818151613aa89190615959565b905250505b613ac586610100015187606001518860200151614a61565b60208701526001600160a01b03828116908d161415613b1057613af28661012001518c8860200151614a61565b60208701819052610100870151613b0a918c90614a61565b60208701525b50508080613b1d906157c6565b9150506137ab565b50602083015183511115613b565760208301518351600091613b469161589f565b600095509550955050505061116e565b60008084600001518560200151613b6d919061589f565b95509550955050505061116e565b600083613b8a57506000610b28565b60055460405163fc57d4df60e01b81526001600160a01b038581166004830152600092169063fc57d4df90602401602060405180830381865afa158015613bd5573d6000803e3d6000fd5b505050506040513d601f19601f82011682018060405250810190613bf9919061574e565b905060008111613c355760405162461bcd60e51b8152602060048201526007602482015266216f7261636c6560c81b6044820152606401610450565b82613c77576001600160a01b0384166000908152600a6020526040902060010154670de0b6b3a7640000613c698383615918565b613c739190615937565b9150505b80613c8a86670de0b6b3a7640000615918565b6110e09190615937565b60005b601b54811015613d3757601b8181548110613cb457613cb461579a565b600091825260209091200154604051631cdc2c5d60e31b81526001600160a01b03858116600483015284811660248301529091169063e6e162e890604401600060405180830381600087803b158015613d0c57600080fd5b505af1158015613d20573d6000803e3d6000fd5b505050508080613d2f906157c6565b915050613c97565b505050565b6001546000906001600160a01b031633148015613d625750600254600160a81b900460ff165b80611adf57506000546001600160a01b031633148015611adf575050600254600160a01b900460ff1690565b60007f45b96fe442630264581b197e84bbada861235052c5a1aadfff9ea4e40a969aa0836014811115613dc357613dc3615767565b83601a811115613dd557613dd5615767565b60408051928352602083019190915260009082015260600160405180910390a1826014811115610b2857610b28615767565b6000610b288383604051806040016040528060118152602001706164646974696f6e206f766572666c6f7760781b815250614a82565b600080600080613e4d8787613e8f565b90925090506000826003811115613e6657613e66615767565b14613e7757509150600090506126d4565b613e818186614abc565b935093505050935093915050565b600080838301848110613ea757600092509050613eb1565b6002600092509250505b9250929050565b60005b601b54811015613d3757601b8181548110613ed857613ed861579a565b60009182526020909120015460405162e48b0f60e51b81526001600160a01b038581166004830152848116602483015290911690631c9161e090604401600060405180830381600087803b158015613f2f57600080fd5b505af1158015613f43573d6000803e3d6000fd5b505050508080613f52906157c6565b915050613ebb565b6060600080516020615aa6833981519152600201805480602002602001604051908101604052809291908181526020018280548015613fc257602002820191906000526020600020905b81546001600160a01b03168152600190910190602001808311613fa4575b5050505050905090565b600080516020615aa6833981519152613fe482614ae7565b60005b600282015460ff82161015613d3757826001600160a01b0316826002018260ff16815481106140185761401861579a565b6000918252602090912001546001600160a01b031614156140ea576002820180546140459060019061589f565b815481106140555761405561579a565b6000918252602090912001546002830180546001600160a01b039092169160ff84169081106140865761408661579a565b9060005260206000200160006101000a8154816001600160a01b0302191690836001600160a01b03160217905550816002018054806140c7576140c76158b6565b600082815260209020810160001990810180546001600160a01b03191690550190555b806140f481615971565b915050613fe7565b600080516020615aa683398151915260005b600282015460ff821610156141b457826001600160a01b0316826002018260ff168154811061413f5761413f61579a565b6000918252602090912001546001600160a01b031614156141a25760405162461bcd60e51b815260206004820152601760248201527f657874656e73696f6e20616c72656164792061646465640000000000000000006044820152606401610450565b806141ac81615971565b91505061410e565b506141be82614d74565b6002018054600181018255600091825260209091200180546001600160a01b0319166001600160a01b0392909216919091179055565b6000735aa0197d0d3e05c4aa070dfa2f54cd67a447173a7362bdc203403e7d44b75f357df0897f2e71f607f373e150e792e0a18c9984a0630f051a607dee3c265d737adf374fa8b636420d41356b1f714f18228e7ae26001600160a01b0386168414806142725750826001600160a01b0316866001600160a01b0316145b8061428e5750816001600160a01b0316866001600160a01b0316145b8061112e5750806001600160a01b0316866001600160a01b0316149695505050505050565b6000806142c08484614f65565b905061105681614f8d565b6000806000806142db8686614fa5565b909250905060008260038111156142f4576142f4615767565b146143055750915060009050613eb1565b600061431082614f8d565b9350935050509250929050565b6001600160a01b038116156143355761433581613fcc565b611853826140fc565b6000614348613d3c565b6143585761107860016016613d8e565b6001600160a01b0382166000908152600a602052604090205460ff16156143855761107860096015613d8e565b816001600160a01b031663fe9c44ae6040518163ffffffff1660e01b81526004016020604051808303816000875af11580156143c5573d6000803e3d6000fd5b505050506040513d601f19601f820116820180604052508101906143e9919061577d565b6144285760405162461bcd60e51b815260206004820152601060248201526f10b6b0b935b2ba1d34b9b1ba37b5b2b760811b6044820152606401610450565b306001600160a01b0316826001600160a01b0316635fe3b5676040518163ffffffff1660e01b8152600401602060405180830381865afa158015614470573d6000803e3d6000fd5b505050506040513d601f19601f820116820180604052508101906144949190615731565b6001600160a01b0316146144d95760405162461bcd60e51b815260206004820152600c60248201526b10b1b7b6b83a3937b63632b960a11b6044820152606401610450565b6000826001600160a01b0316636f307dc36040518163ffffffff1660e01b8152600401602060405180830381865afa158015614519573d6000803e3d6000fd5b505050506040513d601f19601f8201168201806040525081019061453d9190615731565b6001600160a01b03808216600090815260106020526040902054919250161561456c57610b2860096015613d8e565b6001600160a01b038381166000818152600a60209081526040808320805460ff191660019081178255808201859055600b805491820190557f0175b7a638427703f0dbe7bb9bbf987a2551717b34e79f33b5b1008d1fa01db90180546001600160a01b0319908116871790915595871684526010835292819020805490951684179094559251918252917fcf583bb0c569eb967f806b11601c4cb93c10310485c67add5f8362c2f212321f910160405180910390a16000611056565b6001600160a01b0383166000908152600a602052604081205460ff1661464f5760086111f3565b614658846141f4565b156146645760046111f3565b6001600160a01b038085166000908152600a60209081526040808320938716835260029093019052205460ff1661469c5760006111f3565b6000806146ac858786600061363c565b919350909150600090508260148111156146c8576146c8615767565b146146e8578160148111156146df576146df615767565b92505050610b28565b801561227b5760046146df565b60005b601b5481101561163357601b81815481106147155761471561579a565b600091825260209091200154604051634e081c9560e01b81526001600160a01b0386811660048301528581166024830152848116604483015290911690634e081c9590606401600060405180830381600087803b15801561477557600080fd5b505af1158015614789573d6000803e3d6000fd5b505050508080614798906157c6565b9150506146f8565b6001600160a01b0382166000908152600a60205260408120805460ff166147cb576008915050611078565b6001600160a01b038316600090815260028201602052604090205460ff161515600114156147fd576000915050611078565b6001600160a01b03838116600081815260028401602090815260408083208054600160ff199091168117909155600983528184208054918201815584528284200180546001600160a01b031916958a1695909517909455918152600c909152205460ff166148ee57600d8054600180820183557fd7b6990105719101dabeb77144f2a3385c8033acd3af97e9423a695e81ad1eb590910180546001600160a01b0319166001600160a01b0387169081179091556000908152600c60205260409020805460ff19168217905590546148d4919061589f565b6001600160a01b0384166000908152600e60205260409020555b604080516001600160a01b038087168252851660208201527f3ab23ab0d51cccc0c3085aec51f99228625aa1a922b3a8ca89a26b0f2027a1a5910160405180910390a15060009392505050565b604080516020810190915260008152604051806020016040528061496785600001518560000151613e07565b90529392505050565b6040805160208101909152600081526040518060200160405280670de0b6b3a76400006149a586600001518660000151615021565b6149679190615937565b60408051602081019091526000815260405180602001604052806149676149e28660000151670de0b6b3a7640000615021565b8551615063565b60007f45b96fe442630264581b197e84bbada861235052c5a1aadfff9ea4e40a969aa0846014811115614a1e57614a1e615767565b84601a811115614a3057614a30615767565b604080519283526020830191909152810184905260600160405180910390a183601481111561105657611056615767565b600080614a6e8585614f65565b90506110e0614a7c82614f8d565b84613e07565b600080614a8f8486615959565b90508285821015614ab35760405162461bcd60e51b81526004016104509190615991565b50949350505050565b600080838311614adb576000614ad2848661589f565b91509150613eb1565b50600390506000613eb1565b6000816001600160a01b03166389f8132e6040518163ffffffff1660e01b8152600401600060405180830381865afa158015614b27573d6000803e3d6000fd5b505050506040513d6000823e601f3d908101601f19168201604052614b4f91908101906159e6565b9050600080516020615aa683398151915260005b82518161ffff161015611633576000838261ffff1681518110614b8857614b8861579a565b6020908102919091018101516001600160e01b031981166000908152918590526040909120549091506001600160a01b03868116911614614bcb57614bcb6158cc565b6001600160e01b0319811660009081526020849052604090205460018085018054600160a01b90930461ffff16929091614c049161589f565b81548110614c1457614c1461579a565b90600052602060002090600891828204019190066004029054906101000a900460e01b846001018261ffff1681548110614c5057614c5061579a565b90600052602060002090600891828204019190066004026101000a81548163ffffffff021916908360e01c021790555080846000016000866001018461ffff1681548110614ca057614ca061579a565b6000918252602080832060088304015460079092166004026101000a90910460e01b6001600160e01b03191683528201929092526040019020805461ffff60a01b1916600160a01b61ffff939093169290920291909117905560018401805480614d0c57614d0c6158b6565b60008281526020808220600860001990940193840401805463ffffffff600460078716026101000a0219169055919092556001600160e01b0319909316815291849052506040902080546001600160b01b031916905580614d6c81615a83565b915050614b63565b6000816001600160a01b03166389f8132e6040518163ffffffff1660e01b8152600401600060405180830381865afa158015614db4573d6000803e3d6000fd5b505050506040513d6000823e601f3d908101601f19168201604052614ddc91908101906159e6565b7fc8fcad8db84d3cc18b4c41d551ea0ee66dd599cde068d998e57d5e09332c131d54909150600080516020615aa68339815191529060005b8351811015614f5e576000848281518110614e3157614e3161579a565b6020908102919091018101516001600160e01b031981166000908152918690526040909120549091506001600160a01b03168015614e9d57604051632c18df3360e01b81526001600160e01b0319831660048201526001600160a01b0382166024820152604401610450565b6040805180820182526001600160a01b03808a16825261ffff80881660208085019182526001600160e01b0319881660009081528b8252958620945185549251909316600160a01b026001600160b01b0319909216929093169190911717909155600180880180549182018155835291206008820401805460e085901c60046007909416939093026101000a92830263ffffffff909302191691909117905583614f4681615a83565b94505050508080614f56906157c6565b915050614e14565b5050505050565b6040805160208101909152600081526040518060200160405280614967856000015185615021565b805160009061107890670de0b6b3a764000090615937565b6000614fbd6040518060200160405280600081525090565b600080614fce866000015186615096565b90925090506000826003811115614fe757614fe7615767565b1461500657506040805160208101909152600081529092509050613eb1565b60408051602081019091529081526000969095509350505050565b6000610b2883836040518060400160405280601781526020017f6d756c7469706c69636174696f6e206f766572666c6f770000000000000000008152506150d5565b6000610b2883836040518060400160405280600e81526020016d646976696465206279207a65726f60901b815250615128565b600080836150a957506000905080613eb1565b838302836150b78683615937565b146150ca57600260009250925050613eb1565b600092509050613eb1565b60008315806150e2575082155b156150ef57506000610b28565b60006150fb8486615918565b9050836151088683615937565b148390614ab35760405162461bcd60e51b81526004016104509190615991565b600081836151495760405162461bcd60e51b81526004016104509190615991565b506110568385615937565b604051806101a001604052806000815260200160008152602001600081526020016000815260200160008152602001600081526020016151a06040518060200160405280600081525090565b81526020016151bb6040518060200160405280600081525090565b81526020016151d66040518060200160405280600081525090565b81526020016151f16040518060200160405280600081525090565b81526020016000815260200160008152602001600081525090565b6001600160a01b038116811461522157600080fd5b50565b60006020828403121561523657600080fd5b8135610b288161520c565b801515811461522157600080fd5b60008060006060848603121561526457600080fd5b833561526f8161520c565b9250602084013561527f8161520c565b9150604084013561528f81615241565b809150509250925092565b600080604083850312156152ad57600080fd5b82356152b88161520c565b915060208301356152c88161520c565b809150509250929050565b600080600080608085870312156152e957600080fd5b84356152f48161520c565b935060208501356153048161520c565b925060408501356153148161520c565b9396929550929360600135925050565b60006020828403121561533657600080fd5b5035919050565b6000806000806080858703121561535357600080fd5b843561535e8161520c565b9350602085013561536e8161520c565b93969395505050506040820135916060013590565b60008060006060848603121561539857600080fd5b83356153a38161520c565b925060208401356153b38161520c565b929592945050506040919091013590565b600080600080600060a086880312156153dc57600080fd5b85356153e78161520c565b945060208601356153f78161520c565b935060408601356154078161520c565b925060608601356154178161520c565b949793965091946080013592915050565b6020808252825182820181905260009190848201906040850190845b818110156154695783516001600160a01b031683529284019291840191600101615444565b50909695505050505050565b6000806040838503121561548857600080fd5b82356154938161520c565b946020939093013593505050565b6000602082840312156154b357600080fd5b8135610b2881615241565b600080600080606085870312156154d457600080fd5b84356154df81615241565b9350602085013567ffffffffffffffff808211156154fc57600080fd5b818701915087601f83011261551057600080fd5b81358181111561551f57600080fd5b88602082850101111561553157600080fd5b95986020929092019750949560400135945092505050565b634e487b7160e01b600052604160045260246000fd5b604051601f8201601f1916810167ffffffffffffffff8111828210171561558857615588615549565b604052919050565b600067ffffffffffffffff8211156155aa576155aa615549565b5060051b60200190565b600060208083850312156155c757600080fd5b823567ffffffffffffffff8111156155de57600080fd5b8301601f810185136155ef57600080fd5b80356156026155fd82615590565b61555f565b81815260059190911b8201830190838101908783111561562157600080fd5b928401925b828410156132c55783356156398161520c565b82529284019290840190615626565b6020808252825182820181905260009190848201906040850190845b8181101561546957835183529284019291840191600101615664565b60008083601f84011261569257600080fd5b50813567ffffffffffffffff8111156156aa57600080fd5b6020830191508360208260051b8501011115613eb157600080fd5b600080600080604085870312156156db57600080fd5b843567ffffffffffffffff808211156156f357600080fd5b6156ff88838901615680565b9096509450602087013591508082111561571857600080fd5b5061572587828801615680565b95989497509550505050565b60006020828403121561574357600080fd5b8151610b288161520c565b60006020828403121561576057600080fd5b5051919050565b634e487b7160e01b600052602160045260246000fd5b60006020828403121561578f57600080fd5b8151610b2881615241565b634e487b7160e01b600052603260045260246000fd5b634e487b7160e01b600052601160045260246000fd5b60006000198214156157da576157da6157b0565b5060010190565b600060208083850312156157f457600080fd5b825167ffffffffffffffff81111561580b57600080fd5b8301601f8101851361581c57600080fd5b805161582a6155fd82615590565b81815260059190911b8201830190838101908783111561584957600080fd5b928401925b828410156132c55783516158618161520c565b8252928401929084019061584e565b60208152816020820152818360408301376000818301604090810191909152601f909201601f19160101919050565b6000828210156158b1576158b16157b0565b500390565b634e487b7160e01b600052603160045260246000fd5b634e487b7160e01b600052600160045260246000fd5b600080600080608085870312156158f857600080fd5b505082516020840151604085015160609095015191969095509092509050565b6000816000190483118215151615615932576159326157b0565b500290565b60008261595457634e487b7160e01b600052601260045260246000fd5b500490565b6000821982111561596c5761596c6157b0565b500190565b600060ff821660ff811415615988576159886157b0565b60010192915050565b600060208083528351808285015260005b818110156159be578581018301518582016040015282016159a2565b818111156159d0576000604083870101525b50601f01601f1916929092016040019392505050565b600060208083850312156159f957600080fd5b825167ffffffffffffffff811115615a1057600080fd5b8301601f81018513615a2157600080fd5b8051615a2f6155fd82615590565b81815260059190911b82018301908381019087831115615a4e57600080fd5b928401925b828410156132c55783516001600160e01b031981168114615a745760008081fd5b82529284019290840190615a53565b600061ffff80831681811415615a9b57615a9b6157b0565b600101939250505056fec8fcad8db84d3cc18b4c41d551ea0ee66dd599cde068d998e57d5e09332c131ca164736f6c634300080a000a",
    "linkReferences": {}
  },
  "methodIdentifiers": {
    "_addRewardsDistributor(address)": "b9b5b153",
    "_afterNonReentrant()": "632e5142",
    "_become(address)": "1d504dc6",
    "_becomeImplementation()": "5d72de62",
    "_beforeNonReentrant()": "c90c20b1",
    "_borrowGuardianPaused()": "e6653f3d",
    "_deployMarket(bool,bytes,uint256)": "aba35b98",
    "_listExtensions()": "6333d001",
    "_mintGuardianPaused()": "3c94786f",
    "_registerExtension(address,address)": "89cd9855",
    "_setCloseFactor(uint256)": "317b0b77",
    "_setCollateralFactor(address,uint256)": "e4028eee",
    "_setLiquidationIncentive(uint256)": "4fd42e17",
    "_setPriceOracle(address)": "55ee1fe1",
    "_setWhitelistEnforcement(bool)": "952adf5a",
    "_setWhitelistStatuses(address[],bool[])": "c8c9c975",
    "_toggleAutoImplementations(bool)": "d5333166",
    "accountAssets(address,uint256)": "dce15449",
    "admin()": "f851a440",
    "adminHasRights()": "0a755ec2",
    "allBorrowers(uint256)": "7515bafa",
    "allMarkets(uint256)": "52d84d1e",
    "asComptrollerFirstExtension()": "1ace5957",
    "autoImplementation()": "dd5cd22c",
    "borrowAllowed(address,address,uint256)": "da3d454c",
    "borrowCapForAssetForCollateral(address,address)": "55c6b6b9",
    "borrowCapGuardian()": "21af4569",
    "borrowCaps(address)": "4a584432",
    "borrowGuardianPaused(address)": "6d154ea5",
    "borrowWithinLimits(address,uint256)": "779b2294",
    "borrowingAgainstCollateralBlacklist(address,address)": "1c819e43",
    "cTokensByUnderlying(address)": "31ff47fa",
    "checkMembership(address,address)": "929fe9a1",
    "closeFactorMantissa()": "e8755446",
    "comptrollerImplementation()": "bb82aa5e",
    "enforceWhitelist()": "b0957210",
    "enterMarkets(address[])": "c2998238",
    "exitMarket(address)": "ede4edd0",
    "fuseAdmin()": "15761d51",
    "fuseAdminHasRights()": "2f1069ba",
    "getAccountLiquidity(address)": "5ec88c79",
    "getAssetsIn(address)": "abfceffc",
    "getHypotheticalAccountLiquidity(address,address,uint256,uint256)": "4e79238f",
    "getMaxRedeemOrBorrow(address,address,bool)": "1976828e",
    "isComptroller()": "007e3dd2",
    "isDeprecated(address)": "94543c15",
    "liquidateBorrowAllowed(address,address,address,address,uint256)": "5fc7e71e",
    "liquidateCalculateSeizeTokens(address,address,uint256)": "c488847b",
    "liquidationIncentiveMantissa()": "4ada90af",
    "markets(address)": "8e8f294b",
    "mintAllowed(address,address,uint256)": "4ef4c3e1",
    "mintGuardianPaused(address)": "731f0c2b",
    "nonAccruingRewardsDistributors(uint256)": "6bd02b8a",
    "oracle()": "7dc0d1d0",
    "pauseGuardian()": "24a3d622",
    "pendingAdmin()": "26782247",
    "pendingComptrollerImplementation()": "dcfbc0c7",
    "redeemAllowed(address,address,uint256)": "eabe7d91",
    "redeemVerify(address,address,uint256,uint256)": "51dff989",
    "repayBorrowAllowed(address,address,address,uint256)": "24008a62",
    "rewardsDistributors(uint256)": "c6c5b0dd",
    "seizeAllowed(address,address,address,address,uint256)": "d02f7351",
    "seizeGuardianPaused()": "ac0b0bb7",
    "suppliers(address)": "16dc15fe",
    "supplyCaps(address)": "02c3bcbb",
    "transferAllowed(address,address,address,uint256)": "bdcdc258",
    "transferGuardianPaused()": "87f76303",
    "whitelist(address)": "9b19251a",
    "whitelistArray(uint256)": "d251fefc"
  }
}