{
  "address": "0xC1ED4b6EC4bE863634BefF32891CA8c30ED7fdd7",
  "abi": [
    {
      "inputs": [
        {
          "internalType": "address payable",
          "name": "_fuseAdmin",
          "type": "address"
        }
      ],
      "stateMutability": "nonpayable",
      "type": "constructor"
    },
    {
      "inputs": [
        {
          "internalType": "bytes4",
          "name": "_functionSelector",
          "type": "bytes4"
        }
      ],
      "name": "ExtensionNotFound",
      "type": "error"
    },
    {
      "inputs": [
        {
          "internalType": "bytes4",
          "name": "_functionSelector",
          "type": "bytes4"
        },
        {
          "internalType": "address",
          "name": "_currentImpl",
          "type": "address"
        }
      ],
      "name": "FunctionAlreadyAdded",
      "type": "error"
    },
    {
      "inputs": [
        {
          "internalType": "bytes4",
          "name": "_functionSelector",
          "type": "bytes4"
        }
      ],
      "name": "FunctionNotFound",
      "type": "error"
    },
    {
      "anonymous": false,
      "inputs": [
        {
          "indexed": false,
          "internalType": "address",
          "name": "rewardsDistributor",
          "type": "address"
        }
      ],
      "name": "AddedRewardsDistributor",
      "type": "event"
    },
    {
      "anonymous": false,
      "inputs": [
        {
          "indexed": false,
          "internalType": "bool",
          "name": "enabled",
          "type": "bool"
        }
      ],
      "name": "AutoImplementationsToggled",
      "type": "event"
    },
    {
      "anonymous": false,
      "inputs": [
        {
          "indexed": false,
          "internalType": "uint256",
          "name": "error",
          "type": "uint256"
        },
        {
          "indexed": false,
          "internalType": "uint256",
          "name": "info",
          "type": "uint256"
        },
        {
          "indexed": false,
          "internalType": "uint256",
          "name": "detail",
          "type": "uint256"
        }
      ],
      "name": "Failure",
      "type": "event"
    },
    {
      "anonymous": false,
      "inputs": [
        {
          "indexed": false,
          "internalType": "contract CTokenInterface",
          "name": "cToken",
          "type": "address"
        },
        {
          "indexed": false,
          "internalType": "address",
          "name": "account",
          "type": "address"
        }
      ],
      "name": "MarketEntered",
      "type": "event"
    },
    {
      "anonymous": false,
      "inputs": [
        {
          "indexed": false,
          "internalType": "contract CTokenInterface",
          "name": "cToken",
          "type": "address"
        },
        {
          "indexed": false,
          "internalType": "address",
          "name": "account",
          "type": "address"
        }
      ],
      "name": "MarketExited",
      "type": "event"
    },
    {
      "anonymous": false,
      "inputs": [
        {
          "indexed": false,
          "internalType": "contract CTokenInterface",
          "name": "cToken",
          "type": "address"
        }
      ],
      "name": "MarketListed",
      "type": "event"
    },
    {
      "anonymous": false,
      "inputs": [
        {
          "indexed": false,
          "internalType": "uint256",
          "name": "oldCloseFactorMantissa",
          "type": "uint256"
        },
        {
          "indexed": false,
          "internalType": "uint256",
          "name": "newCloseFactorMantissa",
          "type": "uint256"
        }
      ],
      "name": "NewCloseFactor",
      "type": "event"
    },
    {
      "anonymous": false,
      "inputs": [
        {
          "indexed": false,
          "internalType": "contract CTokenInterface",
          "name": "cToken",
          "type": "address"
        },
        {
          "indexed": false,
          "internalType": "uint256",
          "name": "oldCollateralFactorMantissa",
          "type": "uint256"
        },
        {
          "indexed": false,
          "internalType": "uint256",
          "name": "newCollateralFactorMantissa",
          "type": "uint256"
        }
      ],
      "name": "NewCollateralFactor",
      "type": "event"
    },
    {
      "anonymous": false,
      "inputs": [
        {
          "indexed": false,
          "internalType": "uint256",
          "name": "oldLiquidationIncentiveMantissa",
          "type": "uint256"
        },
        {
          "indexed": false,
          "internalType": "uint256",
          "name": "newLiquidationIncentiveMantissa",
          "type": "uint256"
        }
      ],
      "name": "NewLiquidationIncentive",
      "type": "event"
    },
    {
      "anonymous": false,
      "inputs": [
        {
          "indexed": false,
          "internalType": "contract PriceOracle",
          "name": "oldPriceOracle",
          "type": "address"
        },
        {
          "indexed": false,
          "internalType": "contract PriceOracle",
          "name": "newPriceOracle",
          "type": "address"
        }
      ],
      "name": "NewPriceOracle",
      "type": "event"
    },
    {
      "anonymous": false,
      "inputs": [
        {
          "indexed": false,
          "internalType": "bool",
          "name": "enforce",
          "type": "bool"
        }
      ],
      "name": "WhitelistEnforcementChanged",
      "type": "event"
    },
    {
      "stateMutability": "nonpayable",
      "type": "fallback"
    },
    {
      "inputs": [
        {
          "internalType": "address",
          "name": "distributor",
          "type": "address"
        }
      ],
      "name": "_addRewardsDistributor",
      "outputs": [
        {
          "internalType": "uint256",
          "name": "",
          "type": "uint256"
        }
      ],
      "stateMutability": "nonpayable",
      "type": "function"
    },
    {
      "inputs": [],
      "name": "_afterNonReentrant",
      "outputs": [],
      "stateMutability": "nonpayable",
      "type": "function"
    },
    {
      "inputs": [
        {
          "internalType": "contract Unitroller",
          "name": "unitroller",
          "type": "address"
        }
      ],
      "name": "_become",
      "outputs": [],
      "stateMutability": "nonpayable",
      "type": "function"
    },
    {
      "inputs": [],
      "name": "_becomeImplementation",
      "outputs": [],
      "stateMutability": "nonpayable",
      "type": "function"
    },
    {
      "inputs": [],
      "name": "_beforeNonReentrant",
      "outputs": [],
      "stateMutability": "nonpayable",
      "type": "function"
    },
    {
      "inputs": [],
      "name": "_borrowGuardianPaused",
      "outputs": [
        {
          "internalType": "bool",
          "name": "",
          "type": "bool"
        }
      ],
      "stateMutability": "view",
      "type": "function"
    },
    {
      "inputs": [
        {
          "internalType": "bool",
          "name": "isCEther",
          "type": "bool"
        },
        {
          "internalType": "bytes",
          "name": "constructorData",
          "type": "bytes"
        },
        {
          "internalType": "uint256",
          "name": "collateralFactorMantissa",
          "type": "uint256"
        }
      ],
      "name": "_deployMarket",
      "outputs": [
        {
          "internalType": "uint256",
          "name": "",
          "type": "uint256"
        }
      ],
      "stateMutability": "nonpayable",
      "type": "function"
    },
    {
      "inputs": [],
      "name": "_listExtensions",
      "outputs": [
        {
          "internalType": "address[]",
          "name": "",
          "type": "address[]"
        }
      ],
      "stateMutability": "view",
      "type": "function"
    },
    {
      "inputs": [],
      "name": "_mintGuardianPaused",
      "outputs": [
        {
          "internalType": "bool",
          "name": "",
          "type": "bool"
        }
      ],
      "stateMutability": "view",
      "type": "function"
    },
    {
      "inputs": [
        {
          "internalType": "contract DiamondExtension",
          "name": "extensionToAdd",
          "type": "address"
        },
        {
          "internalType": "contract DiamondExtension",
          "name": "extensionToReplace",
          "type": "address"
        }
      ],
      "name": "_registerExtension",
      "outputs": [],
      "stateMutability": "nonpayable",
      "type": "function"
    },
    {
      "inputs": [
        {
          "internalType": "uint256",
          "name": "newCloseFactorMantissa",
          "type": "uint256"
        }
      ],
      "name": "_setCloseFactor",
      "outputs": [
        {
          "internalType": "uint256",
          "name": "",
          "type": "uint256"
        }
      ],
      "stateMutability": "nonpayable",
      "type": "function"
    },
    {
      "inputs": [
        {
          "internalType": "contract CTokenInterface",
          "name": "cToken",
          "type": "address"
        },
        {
          "internalType": "uint256",
          "name": "newCollateralFactorMantissa",
          "type": "uint256"
        }
      ],
      "name": "_setCollateralFactor",
      "outputs": [
        {
          "internalType": "uint256",
          "name": "",
          "type": "uint256"
        }
      ],
      "stateMutability": "nonpayable",
      "type": "function"
    },
    {
      "inputs": [
        {
          "internalType": "uint256",
          "name": "newLiquidationIncentiveMantissa",
          "type": "uint256"
        }
      ],
      "name": "_setLiquidationIncentive",
      "outputs": [
        {
          "internalType": "uint256",
          "name": "",
          "type": "uint256"
        }
      ],
      "stateMutability": "nonpayable",
      "type": "function"
    },
    {
      "inputs": [
        {
          "internalType": "contract PriceOracle",
          "name": "newOracle",
          "type": "address"
        }
      ],
      "name": "_setPriceOracle",
      "outputs": [
        {
          "internalType": "uint256",
          "name": "",
          "type": "uint256"
        }
      ],
      "stateMutability": "nonpayable",
      "type": "function"
    },
    {
      "inputs": [
        {
          "internalType": "bool",
          "name": "enforce",
          "type": "bool"
        }
      ],
      "name": "_setWhitelistEnforcement",
      "outputs": [
        {
          "internalType": "uint256",
          "name": "",
          "type": "uint256"
        }
      ],
      "stateMutability": "nonpayable",
      "type": "function"
    },
    {
      "inputs": [
        {
          "internalType": "address[]",
          "name": "suppliers",
          "type": "address[]"
        },
        {
          "internalType": "bool[]",
          "name": "statuses",
          "type": "bool[]"
        }
      ],
      "name": "_setWhitelistStatuses",
      "outputs": [
        {
          "internalType": "uint256",
          "name": "",
          "type": "uint256"
        }
      ],
      "stateMutability": "nonpayable",
      "type": "function"
    },
    {
      "inputs": [
        {
          "internalType": "bool",
          "name": "enabled",
          "type": "bool"
        }
      ],
      "name": "_toggleAutoImplementations",
      "outputs": [
        {
          "internalType": "uint256",
          "name": "",
          "type": "uint256"
        }
      ],
      "stateMutability": "nonpayable",
      "type": "function"
    },
    {
      "inputs": [
        {
          "internalType": "address",
          "name": "",
          "type": "address"
        },
        {
          "internalType": "uint256",
          "name": "",
          "type": "uint256"
        }
      ],
      "name": "accountAssets",
      "outputs": [
        {
          "internalType": "contract CTokenInterface",
          "name": "",
          "type": "address"
        }
      ],
      "stateMutability": "view",
      "type": "function"
    },
    {
      "inputs": [],
      "name": "admin",
      "outputs": [
        {
          "internalType": "address",
          "name": "",
          "type": "address"
        }
      ],
      "stateMutability": "view",
      "type": "function"
    },
    {
      "inputs": [],
      "name": "adminHasRights",
      "outputs": [
        {
          "internalType": "bool",
          "name": "",
          "type": "bool"
        }
      ],
      "stateMutability": "view",
      "type": "function"
    },
    {
      "inputs": [
        {
          "internalType": "uint256",
          "name": "",
          "type": "uint256"
        }
      ],
      "name": "allBorrowers",
      "outputs": [
        {
          "internalType": "address",
          "name": "",
          "type": "address"
        }
      ],
      "stateMutability": "view",
      "type": "function"
    },
    {
      "inputs": [
        {
          "internalType": "uint256",
          "name": "",
          "type": "uint256"
        }
      ],
      "name": "allMarkets",
      "outputs": [
        {
          "internalType": "contract CTokenInterface",
          "name": "",
          "type": "address"
        }
      ],
      "stateMutability": "view",
      "type": "function"
    },
    {
      "inputs": [],
      "name": "asComptrollerFirstExtension",
      "outputs": [
        {
          "internalType": "contract ComptrollerFirstExtension",
          "name": "",
          "type": "address"
        }
      ],
      "stateMutability": "view",
      "type": "function"
    },
    {
      "inputs": [],
      "name": "autoImplementation",
      "outputs": [
        {
          "internalType": "bool",
          "name": "",
          "type": "bool"
        }
      ],
      "stateMutability": "view",
      "type": "function"
    },
    {
      "inputs": [
        {
          "internalType": "address",
          "name": "cToken",
          "type": "address"
        },
        {
          "internalType": "address",
          "name": "borrower",
          "type": "address"
        },
        {
          "internalType": "uint256",
          "name": "borrowAmount",
          "type": "uint256"
        }
      ],
      "name": "borrowAllowed",
      "outputs": [
        {
          "internalType": "uint256",
          "name": "",
          "type": "uint256"
        }
      ],
      "stateMutability": "nonpayable",
      "type": "function"
    },
    {
      "inputs": [
        {
          "internalType": "address",
          "name": "",
          "type": "address"
        },
        {
          "internalType": "address",
          "name": "",
          "type": "address"
        }
      ],
      "name": "borrowCapForCollateral",
      "outputs": [
        {
          "internalType": "uint256",
          "name": "",
          "type": "uint256"
        }
      ],
      "stateMutability": "view",
      "type": "function"
    },
    {
      "inputs": [],
      "name": "borrowCapGuardian",
      "outputs": [
        {
          "internalType": "address",
          "name": "",
          "type": "address"
        }
      ],
      "stateMutability": "view",
      "type": "function"
    },
    {
      "inputs": [
        {
          "internalType": "address",
          "name": "",
          "type": "address"
        }
      ],
      "name": "borrowCaps",
      "outputs": [
        {
          "internalType": "uint256",
          "name": "",
          "type": "uint256"
        }
      ],
      "stateMutability": "view",
      "type": "function"
    },
    {
      "inputs": [
        {
          "internalType": "address",
          "name": "",
          "type": "address"
        }
      ],
      "name": "borrowGuardianPaused",
      "outputs": [
        {
          "internalType": "bool",
          "name": "",
          "type": "bool"
        }
      ],
      "stateMutability": "view",
      "type": "function"
    },
    {
      "inputs": [
        {
          "internalType": "address",
          "name": "cToken",
          "type": "address"
        },
        {
          "internalType": "uint256",
          "name": "accountBorrowsNew",
          "type": "uint256"
        }
      ],
      "name": "borrowWithinLimits",
      "outputs": [
        {
          "internalType": "uint256",
          "name": "",
          "type": "uint256"
        }
      ],
      "stateMutability": "view",
      "type": "function"
    },
    {
      "inputs": [
        {
          "internalType": "address",
          "name": "",
          "type": "address"
        },
        {
          "internalType": "address",
          "name": "",
          "type": "address"
        }
      ],
      "name": "borrowingAgainstCollateralBlacklist",
      "outputs": [
        {
          "internalType": "bool",
          "name": "",
          "type": "bool"
        }
      ],
      "stateMutability": "view",
      "type": "function"
    },
    {
      "inputs": [
        {
          "internalType": "address",
          "name": "",
          "type": "address"
        }
      ],
      "name": "cTokensByUnderlying",
      "outputs": [
        {
          "internalType": "contract CTokenInterface",
          "name": "",
          "type": "address"
        }
      ],
      "stateMutability": "view",
      "type": "function"
    },
    {
      "inputs": [
        {
          "internalType": "address",
          "name": "account",
          "type": "address"
        },
        {
          "internalType": "contract CTokenInterface",
          "name": "cToken",
          "type": "address"
        }
      ],
      "name": "checkMembership",
      "outputs": [
        {
          "internalType": "bool",
          "name": "",
          "type": "bool"
        }
      ],
      "stateMutability": "view",
      "type": "function"
    },
    {
      "inputs": [],
      "name": "closeFactorMantissa",
      "outputs": [
        {
          "internalType": "uint256",
          "name": "",
          "type": "uint256"
        }
      ],
      "stateMutability": "view",
      "type": "function"
    },
    {
      "inputs": [],
      "name": "comptrollerImplementation",
      "outputs": [
        {
          "internalType": "address",
          "name": "",
          "type": "address"
        }
      ],
      "stateMutability": "view",
      "type": "function"
    },
    {
      "inputs": [],
      "name": "enforceWhitelist",
      "outputs": [
        {
          "internalType": "bool",
          "name": "",
          "type": "bool"
        }
      ],
      "stateMutability": "view",
      "type": "function"
    },
    {
      "inputs": [
        {
          "internalType": "address[]",
          "name": "cTokens",
          "type": "address[]"
        }
      ],
      "name": "enterMarkets",
      "outputs": [
        {
          "internalType": "uint256[]",
          "name": "",
          "type": "uint256[]"
        }
      ],
      "stateMutability": "nonpayable",
      "type": "function"
    },
    {
      "inputs": [
        {
          "internalType": "address",
          "name": "cTokenAddress",
          "type": "address"
        }
      ],
      "name": "exitMarket",
      "outputs": [
        {
          "internalType": "uint256",
          "name": "",
          "type": "uint256"
        }
      ],
      "stateMutability": "nonpayable",
      "type": "function"
    },
    {
      "inputs": [],
      "name": "fuseAdmin",
      "outputs": [
        {
          "internalType": "address payable",
          "name": "",
          "type": "address"
        }
      ],
      "stateMutability": "view",
      "type": "function"
    },
    {
      "inputs": [],
      "name": "fuseAdminHasRights",
      "outputs": [
        {
          "internalType": "bool",
          "name": "",
          "type": "bool"
        }
      ],
      "stateMutability": "view",
      "type": "function"
    },
    {
      "inputs": [
        {
          "internalType": "address",
          "name": "account",
          "type": "address"
        }
      ],
      "name": "getAccountLiquidity",
      "outputs": [
        {
          "internalType": "uint256",
          "name": "",
          "type": "uint256"
        },
        {
          "internalType": "uint256",
          "name": "",
          "type": "uint256"
        },
        {
          "internalType": "uint256",
          "name": "",
          "type": "uint256"
        }
      ],
      "stateMutability": "view",
      "type": "function"
    },
    {
      "inputs": [
        {
          "internalType": "address",
          "name": "account",
          "type": "address"
        }
      ],
      "name": "getAssetsIn",
      "outputs": [
        {
          "internalType": "contract CTokenInterface[]",
          "name": "",
          "type": "address[]"
        }
      ],
      "stateMutability": "view",
      "type": "function"
    },
    {
      "inputs": [
        {
          "internalType": "address",
          "name": "account",
          "type": "address"
        },
        {
          "internalType": "address",
          "name": "cTokenModify",
          "type": "address"
        },
        {
          "internalType": "uint256",
          "name": "redeemTokens",
          "type": "uint256"
        },
        {
          "internalType": "uint256",
          "name": "borrowAmount",
          "type": "uint256"
        }
      ],
      "name": "getHypotheticalAccountLiquidity",
      "outputs": [
        {
          "internalType": "uint256",
          "name": "",
          "type": "uint256"
        },
        {
          "internalType": "uint256",
          "name": "",
          "type": "uint256"
        },
        {
          "internalType": "uint256",
          "name": "",
          "type": "uint256"
        }
      ],
      "stateMutability": "view",
      "type": "function"
    },
    {
      "inputs": [
        {
          "internalType": "address",
          "name": "account",
          "type": "address"
        },
        {
          "internalType": "address",
          "name": "cToken",
          "type": "address"
        },
        {
          "internalType": "bool",
          "name": "isBorrow",
          "type": "bool"
        }
      ],
      "name": "getMaxRedeemOrBorrow",
      "outputs": [
        {
          "internalType": "uint256",
          "name": "",
          "type": "uint256"
        }
      ],
      "stateMutability": "nonpayable",
      "type": "function"
    },
    {
      "inputs": [],
      "name": "isComptroller",
      "outputs": [
        {
          "internalType": "bool",
          "name": "",
          "type": "bool"
        }
      ],
      "stateMutability": "view",
      "type": "function"
    },
    {
      "inputs": [
        {
          "internalType": "contract CTokenInterface",
          "name": "cToken",
          "type": "address"
        }
      ],
      "name": "isDeprecated",
      "outputs": [
        {
          "internalType": "bool",
          "name": "",
          "type": "bool"
        }
      ],
      "stateMutability": "view",
      "type": "function"
    },
    {
      "inputs": [
        {
          "internalType": "address",
          "name": "cTokenBorrowed",
          "type": "address"
        },
        {
          "internalType": "address",
          "name": "cTokenCollateral",
          "type": "address"
        },
        {
          "internalType": "address",
          "name": "liquidator",
          "type": "address"
        },
        {
          "internalType": "address",
          "name": "borrower",
          "type": "address"
        },
        {
          "internalType": "uint256",
          "name": "repayAmount",
          "type": "uint256"
        }
      ],
      "name": "liquidateBorrowAllowed",
      "outputs": [
        {
          "internalType": "uint256",
          "name": "",
          "type": "uint256"
        }
      ],
      "stateMutability": "nonpayable",
      "type": "function"
    },
    {
      "inputs": [
        {
          "internalType": "address",
          "name": "cTokenBorrowed",
          "type": "address"
        },
        {
          "internalType": "address",
          "name": "cTokenCollateral",
          "type": "address"
        },
        {
          "internalType": "uint256",
          "name": "actualRepayAmount",
          "type": "uint256"
        }
      ],
      "name": "liquidateCalculateSeizeTokens",
      "outputs": [
        {
          "internalType": "uint256",
          "name": "",
          "type": "uint256"
        },
        {
          "internalType": "uint256",
          "name": "",
          "type": "uint256"
        }
      ],
      "stateMutability": "view",
      "type": "function"
    },
    {
      "inputs": [],
      "name": "liquidationIncentiveMantissa",
      "outputs": [
        {
          "internalType": "uint256",
          "name": "",
          "type": "uint256"
        }
      ],
      "stateMutability": "view",
      "type": "function"
    },
    {
      "inputs": [
        {
          "internalType": "address",
          "name": "",
          "type": "address"
        }
      ],
      "name": "markets",
      "outputs": [
        {
          "internalType": "bool",
          "name": "isListed",
          "type": "bool"
        },
        {
          "internalType": "uint256",
          "name": "collateralFactorMantissa",
          "type": "uint256"
        }
      ],
      "stateMutability": "view",
      "type": "function"
    },
    {
      "inputs": [
        {
          "internalType": "address",
          "name": "cToken",
          "type": "address"
        },
        {
          "internalType": "address",
          "name": "minter",
          "type": "address"
        },
        {
          "internalType": "uint256",
          "name": "mintAmount",
          "type": "uint256"
        }
      ],
      "name": "mintAllowed",
      "outputs": [
        {
          "internalType": "uint256",
          "name": "",
          "type": "uint256"
        }
      ],
      "stateMutability": "nonpayable",
      "type": "function"
    },
    {
      "inputs": [
        {
          "internalType": "address",
          "name": "",
          "type": "address"
        }
      ],
      "name": "mintGuardianPaused",
      "outputs": [
        {
          "internalType": "bool",
          "name": "",
          "type": "bool"
        }
      ],
      "stateMutability": "view",
      "type": "function"
    },
    {
      "inputs": [
        {
          "internalType": "uint256",
          "name": "",
          "type": "uint256"
        }
      ],
      "name": "nonAccruingRewardsDistributors",
      "outputs": [
        {
          "internalType": "address",
          "name": "",
          "type": "address"
        }
      ],
      "stateMutability": "view",
      "type": "function"
    },
    {
      "inputs": [],
      "name": "oracle",
      "outputs": [
        {
          "internalType": "contract PriceOracle",
          "name": "",
          "type": "address"
        }
      ],
      "stateMutability": "view",
      "type": "function"
    },
    {
      "inputs": [],
      "name": "pauseGuardian",
      "outputs": [
        {
          "internalType": "address",
          "name": "",
          "type": "address"
        }
      ],
      "stateMutability": "view",
      "type": "function"
    },
    {
      "inputs": [],
      "name": "pendingAdmin",
      "outputs": [
        {
          "internalType": "address",
          "name": "",
          "type": "address"
        }
      ],
      "stateMutability": "view",
      "type": "function"
    },
    {
      "inputs": [],
      "name": "pendingComptrollerImplementation",
      "outputs": [
        {
          "internalType": "address",
          "name": "",
          "type": "address"
        }
      ],
      "stateMutability": "view",
      "type": "function"
    },
    {
      "inputs": [
        {
          "internalType": "address",
          "name": "cToken",
          "type": "address"
        },
        {
          "internalType": "address",
          "name": "redeemer",
          "type": "address"
        },
        {
          "internalType": "uint256",
          "name": "redeemTokens",
          "type": "uint256"
        }
      ],
      "name": "redeemAllowed",
      "outputs": [
        {
          "internalType": "uint256",
          "name": "",
          "type": "uint256"
        }
      ],
      "stateMutability": "nonpayable",
      "type": "function"
    },
    {
      "inputs": [
        {
          "internalType": "address",
          "name": "cToken",
          "type": "address"
        },
        {
          "internalType": "address",
          "name": "redeemer",
          "type": "address"
        },
        {
          "internalType": "uint256",
          "name": "redeemAmount",
          "type": "uint256"
        },
        {
          "internalType": "uint256",
          "name": "redeemTokens",
          "type": "uint256"
        }
      ],
      "name": "redeemVerify",
      "outputs": [],
      "stateMutability": "nonpayable",
      "type": "function"
    },
    {
      "inputs": [
        {
          "internalType": "address",
          "name": "cToken",
          "type": "address"
        },
        {
          "internalType": "address",
          "name": "payer",
          "type": "address"
        },
        {
          "internalType": "address",
          "name": "borrower",
          "type": "address"
        },
        {
          "internalType": "uint256",
          "name": "repayAmount",
          "type": "uint256"
        }
      ],
      "name": "repayBorrowAllowed",
      "outputs": [
        {
          "internalType": "uint256",
          "name": "",
          "type": "uint256"
        }
      ],
      "stateMutability": "nonpayable",
      "type": "function"
    },
    {
      "inputs": [
        {
          "internalType": "uint256",
          "name": "",
          "type": "uint256"
        }
      ],
      "name": "rewardsDistributors",
      "outputs": [
        {
          "internalType": "address",
          "name": "",
          "type": "address"
        }
      ],
      "stateMutability": "view",
      "type": "function"
    },
    {
      "inputs": [
        {
          "internalType": "address",
          "name": "cTokenCollateral",
          "type": "address"
        },
        {
          "internalType": "address",
          "name": "cTokenBorrowed",
          "type": "address"
        },
        {
          "internalType": "address",
          "name": "liquidator",
          "type": "address"
        },
        {
          "internalType": "address",
          "name": "borrower",
          "type": "address"
        },
        {
          "internalType": "uint256",
          "name": "seizeTokens",
          "type": "uint256"
        }
      ],
      "name": "seizeAllowed",
      "outputs": [
        {
          "internalType": "uint256",
          "name": "",
          "type": "uint256"
        }
      ],
      "stateMutability": "nonpayable",
      "type": "function"
    },
    {
      "inputs": [],
      "name": "seizeGuardianPaused",
      "outputs": [
        {
          "internalType": "bool",
          "name": "",
          "type": "bool"
        }
      ],
      "stateMutability": "view",
      "type": "function"
    },
    {
      "inputs": [
        {
          "internalType": "address",
          "name": "",
          "type": "address"
        }
      ],
      "name": "suppliers",
      "outputs": [
        {
          "internalType": "bool",
          "name": "",
          "type": "bool"
        }
      ],
      "stateMutability": "view",
      "type": "function"
    },
    {
      "inputs": [
        {
          "internalType": "address",
          "name": "",
          "type": "address"
        }
      ],
      "name": "supplyCaps",
      "outputs": [
        {
          "internalType": "uint256",
          "name": "",
          "type": "uint256"
        }
      ],
      "stateMutability": "view",
      "type": "function"
    },
    {
      "inputs": [
        {
          "internalType": "address",
          "name": "cToken",
          "type": "address"
        },
        {
          "internalType": "address",
          "name": "src",
          "type": "address"
        },
        {
          "internalType": "address",
          "name": "dst",
          "type": "address"
        },
        {
          "internalType": "uint256",
          "name": "transferTokens",
          "type": "uint256"
        }
      ],
      "name": "transferAllowed",
      "outputs": [
        {
          "internalType": "uint256",
          "name": "",
          "type": "uint256"
        }
      ],
      "stateMutability": "nonpayable",
      "type": "function"
    },
    {
      "inputs": [],
      "name": "transferGuardianPaused",
      "outputs": [
        {
          "internalType": "bool",
          "name": "",
          "type": "bool"
        }
      ],
      "stateMutability": "view",
      "type": "function"
    },
    {
      "inputs": [
        {
          "internalType": "address",
          "name": "",
          "type": "address"
        }
      ],
      "name": "whitelist",
      "outputs": [
        {
          "internalType": "bool",
          "name": "",
          "type": "bool"
        }
      ],
      "stateMutability": "view",
      "type": "function"
    },
    {
      "inputs": [
        {
          "internalType": "uint256",
          "name": "",
          "type": "uint256"
        }
      ],
      "name": "whitelistArray",
      "outputs": [
        {
          "internalType": "address",
          "name": "",
          "type": "address"
        }
      ],
      "stateMutability": "view",
      "type": "function"
    }
  ],
  "transactionHash": "0x7c94a007c158f9527cb94b6981ec9bd3032fe9752a8f007e6212806e54faa905",
  "args": [
    "0xf656D243a23A0987329ac6522292f4104A7388e1"
  ],
  "numDeployments": 28,
  "bytecode": {
    "object": "0x60806040526002805461ffff60a01b191661010160a01b1790553480156200002657600080fd5b50604051620059bb380380620059bb83398101604081905262000049916200006f565b600080546001600160a01b0319166001600160a01b0392909216919091179055620000a1565b6000602082840312156200008257600080fd5b81516001600160a01b03811681146200009a57600080fd5b9392505050565b61590a80620000b16000396000f3fe608060405234801561001057600080fd5b50600436106104065760003560e01c8063779b229411610220578063c299823811610130578063dce15449116100b8578063e6653f3d11610087578063e6653f3d14610a76578063e875544614610a8a578063eabe7d9114610a93578063ede4edd014610aa6578063f851a44014610ab957610406565b8063dce1544914610a30578063dcfbc0c714610a43578063dd5cd22c14610a56578063e4028eee14610a6357610406565b8063c90c20b1116100ff578063c90c20b1146109dc578063d02f7351146109e4578063d251fefc146109f7578063d533316614610a0a578063da3d454c14610a1d57610406565b8063c29982381461096e578063c488847b1461098e578063c6c5b0dd146109b6578063c8c9c975146109c957610406565b8063952adf5a116101b3578063ac0b0bb711610182578063ac0b0bb714610914578063b095721014610928578063b9b5b15314610935578063bb82aa5e14610948578063bdcdc2581461095b57610406565b8063952adf5a146108b85780639b19251a146108cb578063aba35b98146108ee578063abfceffc1461090157610406565b80638e8f294b116101ef5780638e8f294b146107f5578063929fe9a114610839578063940cd6f11461087a57806394543c15146108a557610406565b8063779b2294146107a85780637dc0d1d0146107bb57806387f76303146107ce57806389cd9855146107e257610406565b80634a5844321161031b5780635d72de62116102ae5780636333d0011161027d5780636333d001146107275780636bd02b8a1461073c5780636d154ea51461074f578063731f0c2b146107725780637515bafa1461079557610406565b80635d72de62146106f15780635ec88c79146106f95780635fc7e71e1461070c578063632e51421461071f57610406565b80634fd42e17116102ea5780634fd42e17146106a557806351dff989146106b857806352d84d1e146106cb57806355ee1fe1146106de57610406565b80634a5844321461063b5780634ada90af1461065b5780634e79238f146106645780634ef4c3e11461069257610406565b80631d504dc61161039e578063267822471161036d57806326782247146105c45780632f1069ba146105d7578063317b0b77146105eb57806331ff47fa146105fe5780633c94786f1461062757610406565b80631d504dc61461057157806321af45691461058657806324008a621461059e57806324a3d622146105b157610406565b806316dc15fe116103da57806316dc15fe146105075780631976828e1461052a5780631ace59571461053d5780631c819e431461054357610406565b80627e3dd21461047d57806302c3bcbb1461049a5780630a755ec2146104c857806315761d51146104dc575b600061041d6000356001600160e01b031916610acc565b90506001600160a01b03811661045957604051630a82dd7360e31b81526001600160e01b03196000351660048201526024015b60405180910390fd5b3660008037600080366000845af43d6000803e808015610478573d6000f35b3d6000fd5b610485600181565b60405190151581526020015b60405180910390f35b6104ba6104a836600461505c565b601a6020526000908152604090205481565b604051908152602001610491565b60025461048590600160a81b900460ff1681565b6000546104ef906001600160a01b031681565b6040516001600160a01b039091168152602001610491565b61048561051536600461505c565b600f6020526000908152604090205460ff1681565b6104ba610538366004615087565b610b2f565b306104ef565b6104856105513660046150d2565b601f60209081526000928352604080842090915290825290205460ff1681565b61058461057f36600461505c565b610d7e565b005b6018546104ef9061010090046001600160a01b031681565b6104ba6105ac36600461510b565b61101c565b6015546104ef906001600160a01b031681565b6002546104ef906001600160a01b031681565b60025461048590600160a01b900460ff1681565b6104ba6105f936600461515c565b61105e565b6104ef61060c36600461505c565b6010602052600090815260409020546001600160a01b031681565b60155461048590600160a01b900460ff1681565b6104ba61064936600461505c565b60196020526000908152604090205481565b6104ba60075481565b610677610672366004615175565b611138565b60408051938452602084019290925290820152606001610491565b6104ba6106a03660046151bb565b611178565b6104ba6106b336600461515c565b611438565b6105846106c6366004615175565b6114f4565b6104ef6106d936600461515c565b611586565b6104ba6106ec36600461505c565b6115b0565b610584611630565b61067761070736600461505c565b6117a4565b6104ba61071a3660046151fc565b6117df565b610584611990565b61072f6119fe565b6040516104919190615260565b6104ef61074a36600461515c565b611a0d565b61048561075d36600461505c565b60176020526000908152604090205460ff1681565b61048561078036600461505c565b60166020526000908152604090205460ff1681565b6104ef6107a336600461515c565b611a1d565b6104ba6107b63660046152ad565b611a2d565b6005546104ef906001600160a01b031681565b60155461048590600160b01b900460ff1681565b6105846107f03660046150d2565b611b88565b61082261080336600461505c565b600a602052600090815260409020805460019091015460ff9091169082565b604080519215158352602083019190915201610491565b6104856108473660046150d2565b6001600160a01b038082166000908152600a60209081526040808320938616835260029093019052205460ff1692915050565b6104ba6108883660046150d2565b601e60209081526000928352604080842090915290825290205481565b6104856108b336600461505c565b611c01565b6104ba6108c63660046152d9565b611d6b565b6104856108d936600461505c565b60126020526000908152604090205460ff1681565b6104ba6108fc3660046152f6565b611de9565b61072f61090f36600461505c565b611edf565b60155461048590600160b81b900460ff1681565b6011546104859060ff1681565b6104ba61094336600461505c565b611f55565b6003546104ef906001600160a01b031681565b6104ba61096936600461510b565b612118565b61098161097c3660046153ec565b61219b565b6040516104919190615480565b6109a161099c3660046151bb565b612263565b60408051928352602083019190915201610491565b6104ef6109c436600461515c565b6125f0565b6104ba6109d73660046154fd565b612600565b6105846128a7565b6104ba6109f23660046151fc565b612951565b6104ef610a0536600461515c565b612ad8565b6104ba610a183660046152d9565b612ae8565b6104ba610a2b3660046151bb565b612b5b565b6104ef610a3e3660046152ad565b612f77565b6004546104ef906001600160a01b031681565b6018546104859060ff1681565b6104ba610a713660046152ad565b612faf565b60155461048590600160a81b900460ff1681565b6104ba60065481565b6104ba610aa13660046151bb565b613139565b6104ba610ab436600461505c565b613156565b6001546104ef906001600160a01b031681565b6001600160e01b0319811660009081526000805160206158de833981519152602081905260408220546001600160a01b031680610b2857604051631f3f429960e31b81526001600160e01b031985166004820152602401610450565b9392505050565b6000808390506000816001600160a01b0316639f5ef2726040518163ffffffff1660e01b8152600401602060405180830381865afa158015610b75573d6000803e3d6000fd5b505050506040513d601f19601f82011682018060405250810190610b999190615569565b604051633af9e66960e01b81526001600160a01b0388811660048301529190911690633af9e669906024016020604051808303816000875af1158015610be3573d6000803e3d6000fd5b505050506040513d601f19601f82011682018060405250810190610c079190615586565b90506000806000610c288988610c1e576000610c20565b865b6000806135b9565b919450925090506000836014811115610c4357610c4361559f565b14610c7d5760405162461bcd60e51b815260206004820152600a602482015269216c697175696469747960b01b6044820152606401610450565b8015610c9157600095505050505050610b28565b600087158015610ccb57506001600160a01b03808a166000908152600a60209081526040808320938e16835260029093019052205460ff16155b15610cd7575083610cf9565b610ce283878a613acc565b905087158015610cf157508085105b15610cf95750835b6000866001600160a01b0316633b1d21a26040518163ffffffff1660e01b8152600401602060405180830381865afa158015610d39573d6000803e3d6000fd5b505050506040513d601f19601f82011682018060405250810190610d5d9190615586565b905080821115610d6d5780610d6f565b815b9b9a5050505050505050505050565b6000546001600160a01b031633148015610df55750806001600160a01b0316632f1069ba6040518163ffffffff1660e01b8152600401602060405180830381865afa158015610dd1573d6000803e3d6000fd5b505050506040513d601f19601f82011682018060405250810190610df591906155b5565b80610eda5750806001600160a01b031663f851a4406040518163ffffffff1660e01b8152600401602060405180830381865afa158015610e39573d6000803e3d6000fd5b505050506040513d601f19601f82011682018060405250810190610e5d9190615569565b6001600160a01b0316336001600160a01b0316148015610eda5750806001600160a01b0316630a755ec26040518163ffffffff1660e01b8152600401602060405180830381865afa158015610eb6573d6000803e3d6000fd5b505050506040513d601f19601f82011682018060405250810190610eda91906155b5565b610f0f5760405162461bcd60e51b815260206004820152600660248201526510b0b236b4b760d11b6044820152606401610450565b6000816001600160a01b031663c1e803346040518163ffffffff1660e01b81526004016020604051808303816000875af1158015610f51573d6000803e3d6000fd5b505050506040513d601f19601f82011682018060405250810190610f759190615586565b90508015610fc55760405162461bcd60e51b815260206004820181905260248201527f21756e617574686f72697a6564202d206e6f742070656e64696e6720696d706c6044820152606401610450565b816001600160a01b0316635d72de626040518163ffffffff1660e01b8152600401600060405180830381600087803b15801561100057600080fd5b505af1158015611014573d6000803e3d6000fd5b505050505050565b6001600160a01b0384166000908152600a602052604081205460ff166110465760085b9050611056565b6110508584613be5565b60005b90505b949350505050565b6000611068613c8d565b61107e5761107860016007613cdf565b92915050565b6040805160208082018352848252825190810190925266b1a2bc2ec500008083528151919291116110b55761105660056008613cdf565b6040805160208101909152670c7d713b49da0000808252835111156110e9576110e060056008613cdf565b95945050505050565b600680549086905560408051828152602081018890527f3b9670cf975d26958e754b57098eaa2ac914d8d2a31b83257997b9f346110fd991015b60405180910390a160005b9695505050505050565b60008060008060008061114d8a8a8a8a6135b9565b9250925092508260148111156111655761116561559f565b95509093509150505b9450945094915050565b6001600160a01b03831660009081526016602052604081205460ff16156111d05760405162461bcd60e51b815260206004820152600c60248201526b085b5a5b9d0e9c185d5cd95960a21b6044820152606401610450565b6001600160a01b0384166000908152600a602052604090205460ff166111fa5760085b9050610b28565b60115460ff16801561122557506001600160a01b03831660009081526012602052604090205460ff16155b156112315760116111f3565b6001600160a01b0384166000908152601a6020526040902054801580159061127857506001600160a01b03851660009081526022602052604090206112769085613d58565b155b15611423576000856001600160a01b0316639f5ef2726040518163ffffffff1660e01b8152600401602060405180830381865afa1580156112bd573d6000803e3d6000fd5b505050506040513d601f19601f820116820180604052508101906112e19190615569565b90506000816001600160a01b0316634aeb3d9a6040518163ffffffff1660e01b8152600401602060405180830381865afa158015611323573d6000803e3d6000fd5b505050506040513d601f19601f820116820180604052508101906113479190615586565b9050600030604051637db121fd60e11b81526001600160a01b038a81166004830152919091169063fb6243fa90602401602060405180830381865afa158015611394573d6000803e3d6000fd5b505050506040513d601f19601f820116820180604052508101906113b89190615586565b905060008282106113cb575060006113d8565b6113d582846155e8565b90505b846113e388836155ff565b1061141e5760405162461bcd60e51b815260206004820152600b60248201526a021737570706c79206361760ac1b6044820152606401610450565b505050505b61142d8585613d7a565b600095945050505050565b6000611442613c8d565b611452576110786001600d613cdf565b60408051602080820183528482528251908101909252670de0b6b3a76400008083528151919291101561148b576110566007600e613cdf565b60408051602081019091526714d1120d7b160000808252835111156114b6576110e06007600e613cdf565b600780549086905560408051828152602081018890527faeba5a6c40a8ac138134bff1aaa65debf25971188a58804bad717f82f0ec13169101611123565b336000908152600a602052604090205460ff1661153d5760405162461bcd60e51b8152602060048201526007602482015266085b585c9ad95d60ca1b6044820152606401610450565b8015801561154b5750600082115b156115805760405162461bcd60e51b8152602060048201526005602482015264217a65726f60d81b6044820152606401610450565b50505050565b600b818154811061159657600080fd5b6000918252602090912001546001600160a01b0316905081565b60006115ba613c8d565b6115ca5761107860016012613cdf565b600580546001600160a01b038481166001600160a01b031983168117909355604080519190921680825260208201939093527fd52b2b9b7e9ee655fcb95d2e5b9e0c9f69e7ef2b8e9d2d0ea78402d576d22e22910160405180910390a160009392505050565b6003546001600160a01b0316331461167c5760405162461bcd60e51b815260206004820152600f60248201526e10b4b6b83632b6b2b73a30ba34b7b760891b6044820152606401610450565b6000611686613e1c565b905060005b81518110156116c8576116b68282815181106116a9576116a9615617565b6020026020010151613e8e565b806116c08161562d565b91505061168b565b5060008054600354604051631978a0bf60e31b81526001600160a01b03918216600482015291169063cbc505f890602401600060405180830381865afa158015611716573d6000803e3d6000fd5b505050506040513d6000823e601f3d908101601f1916820160405261173e9190810190615648565b905060005b81518110156117805761176e82828151811061176157611761615617565b6020026020010151613fbe565b806117788161562d565b915050611743565b50601c54610100900460ff166117a057601c805461ffff19166101011790555b5050565b6000806000806000806117bb8760008060006135b9565b9250925092508260148111156117d3576117d361559f565b97919650945092505050565b6001600160a01b0385166000908152600a602052604081205460ff16158061182057506001600160a01b0385166000908152600a602052604090205460ff16155b1561182f5760085b90506110e0565b6040516395dd919360e01b81526001600160a01b038481166004830152600091908816906395dd919390602401602060405180830381865afa158015611879573d6000803e3d6000fd5b505050506040513d601f19601f8201168201806040525081019061189d9190615586565b90506118a887611c01565b156118f257828110156118ed5760405162461bcd60e51b815260206004820152600d60248201526c21626f72726f773e726570617960981b6044820152606401610450565b611983565b6000806119038660008060006135b9565b9193509091506000905082601481111561191f5761191f61559f565b14611940578160148111156119365761193661559f565b93505050506110e0565b8061194c576003611936565b60006119686040518060200160405280600654815250856140b6565b90508086111561197f5760109450505050506110e0565b5050505b5060009695505050505050565b336000908152600a602052604090205460ff166119ef5760405162461bcd60e51b815260206004820152601f60248201527f21436f6d7074726f6c6c65723a5f61667465724e6f6e5265656e7472616e74006044820152606401610450565b601c805460ff19166001179055565b6060611a08613e1c565b905090565b601d818154811061159657600080fd5b600d818154811061159657600080fd5b600080546040805163fdb25fb160e01b8152905183926001600160a01b03169163fdb25fb19160048083019260209291908290030181865afa158015611a77573d6000803e3d6000fd5b505050506040513d601f19601f82011682018060405250810190611a9b9190615586565b90508015611b7e5760055460405163fc57d4df60e01b81526001600160a01b038681166004830152600092169063fc57d4df90602401602060405180830381865afa158015611aee573d6000803e3d6000fd5b505050506040513d601f19601f82011682018060405250810190611b129190615586565b905080611b2457600c92505050611078565b600080611b3f604051806020016040528085815250876140ce565b90925090506000826003811115611b5857611b5861559f565b14611b6b57600a5b945050505050611078565b83811015611b7a576012611b60565b5050505b6000949350505050565b6000546001600160a01b031633148015611bab5750600254600160a01b900460ff165b611bf75760405162461bcd60e51b815260206004820152601f60248201527f21756e617574686f72697a6564202d206e6f2061646d696e20726967687473006044820152606401610450565b6117a08282614121565b6001600160a01b0381166000908152600a6020526040812060010154158015611c4757506001600160a01b03821660009081526017602052604090205460ff1615156001145b80156110785750611d5b611d1d836001600160a01b031663173b99046040518163ffffffff1660e01b8152600401602060405180830381865afa158015611c92573d6000803e3d6000fd5b505050506040513d601f19601f82011682018060405250810190611cb69190615586565b846001600160a01b0316638d02d9a16040518163ffffffff1660e01b8152600401602060405180830381865afa158015611cf4573d6000803e3d6000fd5b505050506040513d601f19601f82011682018060405250810190611d189190615586565b614142565b836001600160a01b031663dbfe7c196040518163ffffffff1660e01b8152600401602060405180830381865afa158015611cf4573d6000803e3d6000fd5b670de0b6b3a76400001492915050565b6000611d75613c8d565b611d855761107860016013613cdf565b60115460ff1615158215151415611d9d576000611078565b6011805460ff19168315159081179091556040519081527f84c7d948374a180eddab35d27d2f7a94167a1ff4e79467f1e89c061984190a1e906020015b60405180910390a16000611078565b6000611df3613c8d565b611e035761103f60016016613cdf565b60028054600160a01b60ff60a01b198216811790925560008054604051638754e4fd60e01b81529390920460ff169290916001600160a01b031690638754e4fd90611e5490899089906004016156d7565b6020604051808303816000875af1158015611e73573d6000803e3d6000fd5b505050506040513d601f19601f82011682018060405250810190611e979190615569565b6002805460ff60a01b1916600160a01b8515150217905590506000611ebb82614178565b90508015611ec95780611ed3565b611ed38286612faf565b98975050505050505050565b6001600160a01b0381166000908152600960209081526040808320805482518185028101850190935280835260609493830182828015611f4857602002820191906000526020600020905b81546001600160a01b03168152600190910190602001808311611f2a575b5093979650505050505050565b6000611f5f613c8d565b611f6f5761107860016002613cdf565b816001600160a01b031663abc6d72d6040518163ffffffff1660e01b81526004016020604051808303816000875af1158015611faf573d6000803e3d6000fd5b505050506040513d601f19601f82011682018060405250810190611fd391906155b5565b6120175760405162461bcd60e51b815260206004820152601560248201527410b4b9a932bbb0b93239a234b9ba3934b13aba37b960591b6044820152606401610450565b60005b601b5481101561209957601b818154811061203757612037615617565b6000918252602090912001546001600160a01b03848116911614156120875760405162461bcd60e51b815260206004820152600660248201526508585919195960d21b6044820152606401610450565b806120918161562d565b91505061201a565b50601b80546001810182556000919091527f3ad8aa4f87544323a9d1e5dd902f40c356527a7955687113db5f9a85ad579dc10180546001600160a01b0319166001600160a01b0384169081179091556040519081527f98ef1187fb6fd2bc85f8996489877eb2b5428f9e9bdfc068c9ad6c2ea82eacc790602001611dda565b601554600090600160b01b900460ff16156121685760405162461bcd60e51b815260206004820152601060248201526f085d1c985b9cd9995c8e9c185d5cd95960821b6044820152606401610450565b6000612175868685614462565b90508015612184579050611056565b61218f86868661455f565b60009695505050505050565b805160609060008167ffffffffffffffff8111156121bb576121bb615381565b6040519080825280602002602001820160405280156121e4578160200160208202803683370190505b50905060005b8281101561225b57600085828151811061220657612206615617565b6020026020010151905061221a813361460a565b601481111561222b5761222b61559f565b83838151811061223d5761223d615617565b602090810291909101015250806122538161562d565b9150506121ea565b509392505050565b60055460405163fc57d4df60e01b81526001600160a01b038581166004830152600092839283929091169063fc57d4df90602401602060405180830381865afa1580156122b4573d6000803e3d6000fd5b505050506040513d601f19601f820116820180604052508101906122d89190615586565b60055460405163fc57d4df60e01b81526001600160a01b0388811660048301529293506000929091169063fc57d4df90602401602060405180830381865afa158015612328573d6000803e3d6000fd5b505050506040513d601f19601f8201168201806040525081019061234c9190615586565b9050811580612359575080155b1561236d57600c60009350935050506125e8565b60008690506000816001600160a01b0316639f5ef2726040518163ffffffff1660e01b8152600401602060405180830381865afa1580156123b2573d6000803e3d6000fd5b505050506040513d601f19601f820116820180604052508101906123d69190615569565b6001600160a01b031663182df0f56040518163ffffffff1660e01b8152600401602060405180830381865afa158015612413573d6000803e3d6000fd5b505050506040513d601f19601f820116820180604052508101906124379190615586565b905060006124516040518060200160405280600081525090565b6040805160208101909152600081526040805160208101909152600081526000866001600160a01b0316636752e7026040518163ffffffff1660e01b8152600401602060405180830381865afa1580156124af573d6000803e3d6000fd5b505050506040513d601f19601f820116820180604052508101906124d39190615586565b90506000876001600160a01b031663be99f1196040518163ffffffff1660e01b8152600401602060405180830381865afa158015612515573d6000803e3d6000fd5b505050506040513d601f19601f820116820180604052508101906125399190615586565b9050600061257c61256860405180602001604052806007548152506040518060200160405280878152506147a5565b6040518060200160405280858152506147a5565b90506125968160405180602001604052808e8152506147da565b95506125be60405180602001604052808c81525060405180602001604052808b8152506147da565b94506125ca8686614819565b93506125d6848f6140b6565b60009d509b5050505050505050505050505b935093915050565b601b818154811061159657600080fd5b600061260a613c8d565b61261a5761103f60016014613cdf565b60005b8481101561289f57600086868381811061263957612639615617565b905060200201602081019061264e919061505c565b905084848381811061266257612662615617565b905060200201602081019061267791906152d9565b1561272f576001600160a01b03811660009081526012602052604090205460ff1661272a576001600160a01b0381166000818152601260205260408120805460ff19166001908117909155601380548083018255928190527f66de8ffda797e3de9c05e8fc57b3bf0ec28a930d40b0d285d93c06501cf6a09090920180546001600160a01b0319169093179092555461271091906155e8565b6001600160a01b0382166000908152601460205260409020555b61288c565b6001600160a01b03811660009081526012602052604090205460ff161561288c5760138054612760906001906155e8565b8154811061277057612770615617565b60009182526020808320909101546001600160a01b03848116845260149092526040909220546013805492909316929181106127ae576127ae615617565b9060005260206000200160006101000a8154816001600160a01b0302191690836001600160a01b0316021790555060138054806127ed576127ed615706565b60008281526020808220830160001990810180546001600160a01b03191690559092019092556001600160a01b03831682526014908190526040822054601380549193918490811061284157612841615617565b60009182526020808320909101546001600160a01b039081168452838201949094526040928301822094909455918416825260148352808220829055601290925220805460ff191690555b50806128978161562d565b91505061261d565b506000611053565b336000908152600a602052604090205460ff166129065760405162461bcd60e51b815260206004820181905260248201527f21436f6d7074726f6c6c65723a5f6265666f72654e6f6e5265656e7472616e746044820152606401610450565b601c5460ff166129455760405162461bcd60e51b815260206004820152600a602482015269085c99595b9d195c995960b21b6044820152606401610450565b601c805460ff19169055565b601554600090600160b81b900460ff161561299e5760405162461bcd60e51b815260206004820152600d60248201526c085cd95a5e994e9c185d5cd959609a1b6044820152606401610450565b6001600160a01b0386166000908152600a602052604090205460ff1615806129df57506001600160a01b0385166000908152600a602052604090205460ff16155b156129eb576008611828565b846001600160a01b0316635fe3b5676040518163ffffffff1660e01b8152600401602060405180830381865afa158015612a29573d6000803e3d6000fd5b505050506040513d601f19601f82011682018060405250810190612a4d9190615569565b6001600160a01b0316866001600160a01b0316635fe3b5676040518163ffffffff1660e01b8152600401602060405180830381865afa158015612a94573d6000803e3d6000fd5b505050506040513d601f19601f82011682018060405250810190612ab89190615569565b6001600160a01b031614612acd576002611828565b61218f86848661455f565b6013818154811061159657600080fd5b6000612af2613c8d565b612b025761107860016006613cdf565b60185460ff1615158215151415612b1a576000611078565b6018805460ff19168315159081179091556040519081527faa40ee94af55250363b91641a0a615c47690148901505f89b01dafae03fff28190602001611dda565b6001600160a01b03831660009081526017602052604081205460ff1615612bb55760405162461bcd60e51b815260206004820152600e60248201526d08589bdc9c9bddce9c185d5cd95960921b6044820152606401610450565b6001600160a01b0384166000908152600a602052604090205460ff16612bdc5760086111f3565b6001600160a01b038085166000908152600a60209081526040808320938716835260029093019052205460ff16612ccb57336001600160a01b03851614612c4f5760405162461bcd60e51b815260206004820152600760248201526610b1ba37b5b2b760c91b6044820152606401610450565b6000612c5b338561460a565b90506000816014811115612c7157612c7161559f565b14612c9057806014811115612c8857612c8861559f565b915050610b28565b6001600160a01b038086166000908152600a60209081526040808320938816835260029093019052205460ff16612cc957612cc961571c565b505b60055460405163fc57d4df60e01b81526001600160a01b0386811660048301529091169063fc57d4df90602401602060405180830381865afa158015612d15573d6000803e3d6000fd5b505050506040513d601f19601f82011682018060405250810190612d399190615586565b612d4457600c6111f3565b60115460ff168015612d6f57506001600160a01b03831660009081526012602052604090205460ff16155b15612d7b5760116111f3565b6001600160a01b0384166000908152601960205260409020548015801590612dc257506001600160a01b0385166000908152602360205260409020612dc09085613d58565b155b15612f06576000856001600160a01b03166347bd37186040518163ffffffff1660e01b8152600401602060405180830381865afa158015612e07573d6000803e3d6000fd5b505050506040513d601f19601f82011682018060405250810190612e2b9190615586565b9050600030604051631d3965af60e11b81526001600160a01b0389811660048301529190911690633a72cb5e90602401602060405180830381865afa158015612e78573d6000803e3d6000fd5b505050506040513d601f19601f82011682018060405250810190612e9c9190615586565b90506000828210612eaf57506000612ebc565b612eb982846155e8565b90505b83612ec787836155ff565b10612f025760405162461bcd60e51b815260206004820152600b60248201526a021626f72726f773a6361760ac1b6044820152606401610450565b5050505b612f108585613be5565b600080612f2086886000886135b9565b91935090915060009050826014811115612f3c57612f3c61559f565b14612f5d57816014811115612f5357612f5361559f565b9350505050610b28565b8015612f6a576004612f53565b6000979650505050505050565b60096020528160005260406000208181548110612f9357600080fd5b6000918252602090912001546001600160a01b03169150829050565b6000612fb9613c8d565b612fd057612fc960016009613cdf565b9050611078565b6001600160a01b0383166000908152600a60205260409020805460ff1661300557612ffd6008600a613cdf565b915050611078565b60408051602080820183528582528251908101909252670c7d713b49da000082529061303381835190511090565b1561304e576130446006600b613cdf565b9350505050611078565b84158015906130c8575060055460405163fc57d4df60e01b81526001600160a01b0388811660048301529091169063fc57d4df90602401602060405180830381865afa1580156130a2573d6000803e3d6000fd5b505050506040513d601f19601f820116820180604052508101906130c69190615586565b155b156130d857613044600c80613cdf565b60018301805490869055604080516001600160a01b0389168152602081018390529081018790527f70483e6592cd5182d45ac970e05bc62cdcc90e9d8ef2c2dbe686cf383bcd7fc59060600160405180910390a16000979650505050505050565b600080613147858585614462565b90508015611423579050610b28565b6040516361bfb47160e11b815233600482015260009082908290819081906001600160a01b0385169063c37f68e290602401608060405180830381865afa1580156131a5573d6000803e3d6000fd5b505050506040513d601f19601f820116820180604052508101906131c99190615732565b509250925092508260001461320e5760405162461bcd60e51b815260206004820152600b60248201526a08595e1a5d13585c9ad95d60aa1b6044820152606401610450565b80156132205761112e600b6003613cdf565b600061322d873385614462565b9050801561324d57613242600d600483614853565b979650505050505050565b6001600160a01b0385166000908152600a60209081526040808320338452600281019092529091205460ff1661328b57600098975050505050505050565b3360009081526002820160209081526040808320805460ff1916905560098252808320805482518185028101850190935280835291929091908301828280156132fd57602002820191906000526020600020905b81546001600160a01b031681526001909101906020018083116132df575b5050835193945083925060009150505b8281101561336257896001600160a01b031684828151811061333157613331615617565b60200260200101516001600160a01b0316141561335057809150613362565b8061335a8161562d565b91505061330d565b508181106133725761337261571c565b33600090815260096020526040902080548190613391906001906155e8565b815481106133a1576133a1615617565b9060005260206000200160009054906101000a90046001600160a01b03168183815481106133d1576133d1615617565b9060005260206000200160006101000a8154816001600160a01b0302191690836001600160a01b031602179055508080548061340f5761340f615706565b600082815260209020810160001990810180546001600160a01b0319169055019055805461356657600d8054613447906001906155e8565b8154811061345757613457615617565b6000918252602080832090910154338352600e909152604090912054600d80546001600160a01b0390931692909190811061349457613494615617565b9060005260206000200160006101000a8154816001600160a01b0302191690836001600160a01b03160217905550600d8054806134d3576134d3615706565b60008281526020808220830160001990810180546001600160a01b0319169055909201909255338252600e908190526040822054600d80549193918490811061351e5761351e615617565b60009182526020808320909101546001600160a01b03168352828101939093526040918201812093909355338352600e8252808320839055600c9091529020805460ff191690555b604080516001600160a01b038c1681523360208201527fe699a64c18b07ac5b7301aa273f36a2287239eb9501d81950672794afba29a0d910160405180910390a160009c9b505050505050505050505050565b60008060006135c6614f93565b60006001600160a01b0388161561364c5760055460405163fc57d4df60e01b81526001600160a01b038a811660048301529091169063fc57d4df90602401602060405180830381865afa158015613621573d6000803e3d6000fd5b505050506040513d601f19601f820116820180604052508101906136459190615586565b6101608301525b6001600160a01b0389166000908152600960209081526040808320805482518185028101850190935280835291929091908301828280156136b657602002820191906000526020600020905b81546001600160a01b03168152600190910190602001808311613698575b5050505050905060005b8151811015613a765760008282815181106136dd576136dd615617565b60209081029190910101516040516361bfb47160e11b81526001600160a01b038e811660048301529192509082169063c37f68e290602401608060405180830381865afa158015613732573d6000803e3d6000fd5b505050506040513d601f19601f820116820180604052508101906137569190615732565b6080890152606088015260408701529350831561378257600e600080975097509750505050505061116e565b60408051602080820183526001600160a01b038481166000818152600a845285902060010154845260c08a0193909352835191820184526080890151825260e0890191909152600554925163fc57d4df60e01b81526004810192909252919091169063fc57d4df90602401602060405180830381865afa15801561380a573d6000803e3d6000fd5b505050506040513d601f19601f8201168201806040525081019061382e9190615586565b60a0860181905261384e57600c600080975097509750505050505061116e565b604080516020810190915260a0860151815261010086015260c085015160e08601516138889161387d916147da565b8661010001516147da565b6101208601526000196001600160a01b03828116908d161415806138ac575060008b115b156139fe576001600160a01b038c16156139c5576001600160a01b03808d166000908152601f602090815260408083209386168352929052205460ff16801561392157506001600160a01b03808d16600090815260216020908152604080832093861683529290522061391f908e613d58565b155b1561392e575060006139c5565b6001600160a01b03808d166000908152601e602090815260408083209386168352929052205461014087018190521580159061399457506001600160a01b03808d16600090815260208080526040808320938616835292905220613992908e613d58565b155b156139c557670de0b6b3a76400008661016001518761014001516139b89190615768565b6139c29190615787565b90505b60006139da87610120015188604001516140b6565b9050818111156139e75750805b80876000018181516139f991906155ff565b905250505b613a16866101000151876060015188602001516148cb565b60208701526001600160a01b03828116908d161415613a6157613a438661012001518c88602001516148cb565b60208701819052610100870151613a5b918c906148cb565b60208701525b50508080613a6e9061562d565b9150506136c0565b50602083015183511115613aa75760208301518351600091613a97916155e8565b600095509550955050505061116e565b60008084600001518560200151613abe91906155e8565b95509550955050505061116e565b600083613adb57506000610b28565b60055460405163fc57d4df60e01b81526001600160a01b038581166004830152600092169063fc57d4df90602401602060405180830381865afa158015613b26573d6000803e3d6000fd5b505050506040513d601f19601f82011682018060405250810190613b4a9190615586565b905060008111613b865760405162461bcd60e51b8152602060048201526007602482015266216f7261636c6560c81b6044820152606401610450565b82613bc8576001600160a01b0384166000908152600a6020526040902060010154670de0b6b3a7640000613bba8383615768565b613bc49190615787565b9150505b80613bdb86670de0b6b3a7640000615768565b6110e09190615787565b60005b601b54811015613c8857601b8181548110613c0557613c05615617565b600091825260209091200154604051631cdc2c5d60e31b81526001600160a01b03858116600483015284811660248301529091169063e6e162e890604401600060405180830381600087803b158015613c5d57600080fd5b505af1158015613c71573d6000803e3d6000fd5b505050508080613c809061562d565b915050613be8565b505050565b6001546000906001600160a01b031633148015613cb35750600254600160a81b900460ff165b80611a0857506000546001600160a01b031633148015611a08575050600254600160a01b900460ff1690565b60007f45b96fe442630264581b197e84bbada861235052c5a1aadfff9ea4e40a969aa0836014811115613d1457613d1461559f565b83601a811115613d2657613d2661559f565b60408051928352602083019190915260009082015260600160405180910390a1826014811115610b2857610b2861559f565b6001600160a01b03811660009081526001830160205260408120541515610b28565b60005b601b54811015613c8857601b8181548110613d9a57613d9a615617565b60009182526020909120015460405162e48b0f60e51b81526001600160a01b038581166004830152848116602483015290911690631c9161e090604401600060405180830381600087803b158015613df157600080fd5b505af1158015613e05573d6000803e3d6000fd5b505050508080613e149061562d565b915050613d7d565b60606000805160206158de833981519152600201805480602002602001604051908101604052809291908181526020018280548015613e8457602002820191906000526020600020905b81546001600160a01b03168152600190910190602001808311613e66575b5050505050905090565b6000805160206158de833981519152613ea6826148ec565b60005b600282015460ff82161015613c8857826001600160a01b0316826002018260ff1681548110613eda57613eda615617565b6000918252602090912001546001600160a01b03161415613fac57600282018054613f07906001906155e8565b81548110613f1757613f17615617565b6000918252602090912001546002830180546001600160a01b039092169160ff8416908110613f4857613f48615617565b9060005260206000200160006101000a8154816001600160a01b0302191690836001600160a01b0316021790555081600201805480613f8957613f89615706565b600082815260209020810160001990810180546001600160a01b03191690550190555b80613fb6816157a9565b915050613ea9565b6000805160206158de83398151915260005b600282015460ff8216101561407657826001600160a01b0316826002018260ff168154811061400157614001615617565b6000918252602090912001546001600160a01b031614156140645760405162461bcd60e51b815260206004820152601760248201527f657874656e73696f6e20616c72656164792061646465640000000000000000006044820152606401610450565b8061406e816157a9565b915050613fd0565b5061408082614b79565b6002018054600181018255600091825260209091200180546001600160a01b0319166001600160a01b0392909216919091179055565b6000806140c38484614d6a565b905061105681614d92565b6000806000806140de8686614daa565b909250905060008260038111156140f7576140f761559f565b14614108575091506000905061411a565b600061411382614d92565b9350935050505b9250929050565b6001600160a01b038116156141395761413981613e8e565b6117a082613fbe565b6000610b288383604051806040016040528060118152602001706164646974696f6e206f766572666c6f7760781b815250614e26565b6000614182613c8d565b6141925761107860016016613cdf565b6001600160a01b0382166000908152600a602052604090205460ff16156141bf5761107860096015613cdf565b816001600160a01b031663fe9c44ae6040518163ffffffff1660e01b81526004016020604051808303816000875af11580156141ff573d6000803e3d6000fd5b505050506040513d601f19601f8201168201806040525081019061422391906155b5565b6142625760405162461bcd60e51b815260206004820152601060248201526f10b6b0b935b2ba1d34b9b1ba37b5b2b760811b6044820152606401610450565b306001600160a01b0316826001600160a01b0316635fe3b5676040518163ffffffff1660e01b8152600401602060405180830381865afa1580156142aa573d6000803e3d6000fd5b505050506040513d601f19601f820116820180604052508101906142ce9190615569565b6001600160a01b0316146143135760405162461bcd60e51b815260206004820152600c60248201526b10b1b7b6b83a3937b63632b960a11b6044820152606401610450565b6000826001600160a01b0316636f307dc36040518163ffffffff1660e01b8152600401602060405180830381865afa158015614353573d6000803e3d6000fd5b505050506040513d601f19601f820116820180604052508101906143779190615569565b6001600160a01b0380821660009081526010602052604090205491925016156143a657610b2860096015613cdf565b6001600160a01b038381166000818152600a60209081526040808320805460ff191660019081178255808201859055600b805491820190557f0175b7a638427703f0dbe7bb9bbf987a2551717b34e79f33b5b1008d1fa01db90180546001600160a01b0319908116871790915595871684526010835292819020805490951684179094559251918252917fcf583bb0c569eb967f806b11601c4cb93c10310485c67add5f8362c2f212321f910160405180910390a16000611056565b60008082856001600160a01b03166318160ddd6040518163ffffffff1660e01b8152600401602060405180830381865afa1580156144a4573d6000803e3d6000fd5b505050506040513d601f19601f820116820180604052508101906144c89190615586565b6144d291906155e8565b905080158015906144e457506103e881105b156144f057600d612c88565b6001600160a01b0385166000908152600a602052604090205460ff16614517576008612c88565b6001600160a01b038086166000908152600a60209081526040808320938816835260029093019052205460ff1661454f576000612c88565b600080612f2086888760006135b9565b60005b601b5481101561158057601b818154811061457f5761457f615617565b600091825260209091200154604051634e081c9560e01b81526001600160a01b0386811660048301528581166024830152848116604483015290911690634e081c9590606401600060405180830381600087803b1580156145df57600080fd5b505af11580156145f3573d6000803e3d6000fd5b5050505080806146029061562d565b915050614562565b6001600160a01b0382166000908152600a60205260408120805460ff16614635576008915050611078565b6001600160a01b038316600090815260028201602052604090205460ff16151560011415614667576000915050611078565b6001600160a01b03838116600081815260028401602090815260408083208054600160ff199091168117909155600983528184208054918201815584528284200180546001600160a01b031916958a1695909517909455918152600c909152205460ff1661475857600d8054600180820183557fd7b6990105719101dabeb77144f2a3385c8033acd3af97e9423a695e81ad1eb590910180546001600160a01b0319166001600160a01b0387169081179091556000908152600c60205260409020805460ff191682179055905461473e91906155e8565b6001600160a01b0384166000908152600e60205260409020555b604080516001600160a01b038087168252851660208201527f3ab23ab0d51cccc0c3085aec51f99228625aa1a922b3a8ca89a26b0f2027a1a5910160405180910390a15060009392505050565b60408051602081019091526000815260405180602001604052806147d185600001518560000151614142565b90529392505050565b6040805160208101909152600081526040518060200160405280670de0b6b3a764000061480f86600001518660000151614e60565b6147d19190615787565b60408051602081019091526000815260405180602001604052806147d161484c8660000151670de0b6b3a7640000614e60565b8551614ea2565b60007f45b96fe442630264581b197e84bbada861235052c5a1aadfff9ea4e40a969aa08460148111156148885761488861559f565b84601a81111561489a5761489a61559f565b604080519283526020830191909152810184905260600160405180910390a18360148111156110565761105661559f565b6000806148d88585614d6a565b90506110e06148e682614d92565b84614142565b6000816001600160a01b03166389f8132e6040518163ffffffff1660e01b8152600401600060405180830381865afa15801561492c573d6000803e3d6000fd5b505050506040513d6000823e601f3d908101601f1916820160405261495491908101906157c9565b90506000805160206158de83398151915260005b82518161ffff161015611580576000838261ffff168151811061498d5761498d615617565b6020908102919091018101516001600160e01b031981166000908152918590526040909120549091506001600160a01b038681169116146149d0576149d061571c565b6001600160e01b0319811660009081526020849052604090205460018085018054600160a01b90930461ffff16929091614a09916155e8565b81548110614a1957614a19615617565b90600052602060002090600891828204019190066004029054906101000a900460e01b846001018261ffff1681548110614a5557614a55615617565b90600052602060002090600891828204019190066004026101000a81548163ffffffff021916908360e01c021790555080846000016000866001018461ffff1681548110614aa557614aa5615617565b6000918252602080832060088304015460079092166004026101000a90910460e01b6001600160e01b03191683528201929092526040019020805461ffff60a01b1916600160a01b61ffff939093169290920291909117905560018401805480614b1157614b11615706565b60008281526020808220600860001990940193840401805463ffffffff600460078716026101000a0219169055919092556001600160e01b0319909316815291849052506040902080546001600160b01b031916905580614b7181615866565b915050614968565b6000816001600160a01b03166389f8132e6040518163ffffffff1660e01b8152600401600060405180830381865afa158015614bb9573d6000803e3d6000fd5b505050506040513d6000823e601f3d908101601f19168201604052614be191908101906157c9565b7fc8fcad8db84d3cc18b4c41d551ea0ee66dd599cde068d998e57d5e09332c131d549091506000805160206158de8339815191529060005b8351811015614d63576000848281518110614c3657614c36615617565b6020908102919091018101516001600160e01b031981166000908152918690526040909120549091506001600160a01b03168015614ca257604051632c18df3360e01b81526001600160e01b0319831660048201526001600160a01b0382166024820152604401610450565b6040805180820182526001600160a01b03808a16825261ffff80881660208085019182526001600160e01b0319881660009081528b8252958620945185549251909316600160a01b026001600160b01b0319909216929093169190911717909155600180880180549182018155835291206008820401805460e085901c60046007909416939093026101000a92830263ffffffff909302191691909117905583614d4b81615866565b94505050508080614d5b9061562d565b915050614c19565b5050505050565b60408051602081019091526000815260405180602001604052806147d1856000015185614e60565b805160009061107890670de0b6b3a764000090615787565b6000614dc26040518060200160405280600081525090565b600080614dd3866000015186614ed5565b90925090506000826003811115614dec57614dec61559f565b14614e0b5750604080516020810190915260008152909250905061411a565b60408051602081019091529081526000969095509350505050565b600080614e3384866155ff565b90508285821015614e575760405162461bcd60e51b81526004016104509190615888565b50949350505050565b6000610b2883836040518060400160405280601781526020017f6d756c7469706c69636174696f6e206f766572666c6f77000000000000000000815250614f14565b6000610b2883836040518060400160405280600e81526020016d646976696465206279207a65726f60901b815250614f67565b60008083614ee85750600090508061411a565b83830283614ef68683615787565b14614f095760026000925092505061411a565b60009250905061411a565b6000831580614f21575082155b15614f2e57506000610b28565b6000614f3a8486615768565b905083614f478683615787565b148390614e575760405162461bcd60e51b81526004016104509190615888565b60008183614f885760405162461bcd60e51b81526004016104509190615888565b506110568385615787565b604051806101800160405280600081526020016000815260200160008152602001600081526020016000815260200160008152602001614fdf6040518060200160405280600081525090565b8152602001614ffa6040518060200160405280600081525090565b81526020016150156040518060200160405280600081525090565b81526020016150306040518060200160405280600081525090565b815260200160008152602001600081525090565b6001600160a01b038116811461505957600080fd5b50565b60006020828403121561506e57600080fd5b8135610b2881615044565b801515811461505957600080fd5b60008060006060848603121561509c57600080fd5b83356150a781615044565b925060208401356150b781615044565b915060408401356150c781615079565b809150509250925092565b600080604083850312156150e557600080fd5b82356150f081615044565b9150602083013561510081615044565b809150509250929050565b6000806000806080858703121561512157600080fd5b843561512c81615044565b9350602085013561513c81615044565b9250604085013561514c81615044565b9396929550929360600135925050565b60006020828403121561516e57600080fd5b5035919050565b6000806000806080858703121561518b57600080fd5b843561519681615044565b935060208501356151a681615044565b93969395505050506040820135916060013590565b6000806000606084860312156151d057600080fd5b83356151db81615044565b925060208401356151eb81615044565b929592945050506040919091013590565b600080600080600060a0868803121561521457600080fd5b853561521f81615044565b9450602086013561522f81615044565b9350604086013561523f81615044565b9250606086013561524f81615044565b949793965091946080013592915050565b6020808252825182820181905260009190848201906040850190845b818110156152a15783516001600160a01b03168352928401929184019160010161527c565b50909695505050505050565b600080604083850312156152c057600080fd5b82356152cb81615044565b946020939093013593505050565b6000602082840312156152eb57600080fd5b8135610b2881615079565b6000806000806060858703121561530c57600080fd5b843561531781615079565b9350602085013567ffffffffffffffff8082111561533457600080fd5b818701915087601f83011261534857600080fd5b81358181111561535757600080fd5b88602082850101111561536957600080fd5b95986020929092019750949560400135945092505050565b634e487b7160e01b600052604160045260246000fd5b604051601f8201601f1916810167ffffffffffffffff811182821017156153c0576153c0615381565b604052919050565b600067ffffffffffffffff8211156153e2576153e2615381565b5060051b60200190565b600060208083850312156153ff57600080fd5b823567ffffffffffffffff81111561541657600080fd5b8301601f8101851361542757600080fd5b803561543a615435826153c8565b615397565b81815260059190911b8201830190838101908783111561545957600080fd5b928401925b8284101561324257833561547181615044565b8252928401929084019061545e565b6020808252825182820181905260009190848201906040850190845b818110156152a15783518352928401929184019160010161549c565b60008083601f8401126154ca57600080fd5b50813567ffffffffffffffff8111156154e257600080fd5b6020830191508360208260051b850101111561411a57600080fd5b6000806000806040858703121561551357600080fd5b843567ffffffffffffffff8082111561552b57600080fd5b615537888389016154b8565b9096509450602087013591508082111561555057600080fd5b5061555d878288016154b8565b95989497509550505050565b60006020828403121561557b57600080fd5b8151610b2881615044565b60006020828403121561559857600080fd5b5051919050565b634e487b7160e01b600052602160045260246000fd5b6000602082840312156155c757600080fd5b8151610b2881615079565b634e487b7160e01b600052601160045260246000fd5b6000828210156155fa576155fa6155d2565b500390565b60008219821115615612576156126155d2565b500190565b634e487b7160e01b600052603260045260246000fd5b6000600019821415615641576156416155d2565b5060010190565b6000602080838503121561565b57600080fd5b825167ffffffffffffffff81111561567257600080fd5b8301601f8101851361568357600080fd5b8051615691615435826153c8565b81815260059190911b820183019083810190878311156156b057600080fd5b928401925b828410156132425783516156c881615044565b825292840192908401906156b5565b60208152816020820152818360408301376000818301604090810191909152601f909201601f19160101919050565b634e487b7160e01b600052603160045260246000fd5b634e487b7160e01b600052600160045260246000fd5b6000806000806080858703121561574857600080fd5b505082516020840151604085015160609095015191969095509092509050565b6000816000190483118215151615615782576157826155d2565b500290565b6000826157a457634e487b7160e01b600052601260045260246000fd5b500490565b600060ff821660ff8114156157c0576157c06155d2565b60010192915050565b600060208083850312156157dc57600080fd5b825167ffffffffffffffff8111156157f357600080fd5b8301601f8101851361580457600080fd5b8051615812615435826153c8565b81815260059190911b8201830190838101908783111561583157600080fd5b928401925b828410156132425783516001600160e01b0319811681146158575760008081fd5b82529284019290840190615836565b600061ffff8083168181141561587e5761587e6155d2565b6001019392505050565b600060208083528351808285015260005b818110156158b557858101830151858201604001528201615899565b818111156158c7576000604083870101525b50601f01601f191692909201604001939250505056fec8fcad8db84d3cc18b4c41d551ea0ee66dd599cde068d998e57d5e09332c131ca164736f6c634300080a000a",
    "linkReferences": {}
  },
  "methodIdentifiers": {
    "_addRewardsDistributor(address)": "b9b5b153",
    "_afterNonReentrant()": "632e5142",
    "_become(address)": "1d504dc6",
    "_becomeImplementation()": "5d72de62",
    "_beforeNonReentrant()": "c90c20b1",
    "_borrowGuardianPaused()": "e6653f3d",
    "_deployMarket(bool,bytes,uint256)": "aba35b98",
    "_listExtensions()": "6333d001",
    "_mintGuardianPaused()": "3c94786f",
    "_registerExtension(address,address)": "89cd9855",
    "_setCloseFactor(uint256)": "317b0b77",
    "_setCollateralFactor(address,uint256)": "e4028eee",
    "_setLiquidationIncentive(uint256)": "4fd42e17",
    "_setPriceOracle(address)": "55ee1fe1",
    "_setWhitelistEnforcement(bool)": "952adf5a",
    "_setWhitelistStatuses(address[],bool[])": "c8c9c975",
    "_toggleAutoImplementations(bool)": "d5333166",
    "accountAssets(address,uint256)": "dce15449",
    "admin()": "f851a440",
    "adminHasRights()": "0a755ec2",
    "allBorrowers(uint256)": "7515bafa",
    "allMarkets(uint256)": "52d84d1e",
    "asComptrollerFirstExtension()": "1ace5957",
    "autoImplementation()": "dd5cd22c",
    "borrowAllowed(address,address,uint256)": "da3d454c",
    "borrowCapForCollateral(address,address)": "940cd6f1",
    "borrowCapGuardian()": "21af4569",
    "borrowCaps(address)": "4a584432",
    "borrowGuardianPaused(address)": "6d154ea5",
    "borrowWithinLimits(address,uint256)": "779b2294",
    "borrowingAgainstCollateralBlacklist(address,address)": "1c819e43",
    "cTokensByUnderlying(address)": "31ff47fa",
    "checkMembership(address,address)": "929fe9a1",
    "closeFactorMantissa()": "e8755446",
    "comptrollerImplementation()": "bb82aa5e",
    "enforceWhitelist()": "b0957210",
    "enterMarkets(address[])": "c2998238",
    "exitMarket(address)": "ede4edd0",
    "fuseAdmin()": "15761d51",
    "fuseAdminHasRights()": "2f1069ba",
    "getAccountLiquidity(address)": "5ec88c79",
    "getAssetsIn(address)": "abfceffc",
    "getHypotheticalAccountLiquidity(address,address,uint256,uint256)": "4e79238f",
    "getMaxRedeemOrBorrow(address,address,bool)": "1976828e",
    "isComptroller()": "007e3dd2",
    "isDeprecated(address)": "94543c15",
    "liquidateBorrowAllowed(address,address,address,address,uint256)": "5fc7e71e",
    "liquidateCalculateSeizeTokens(address,address,uint256)": "c488847b",
    "liquidationIncentiveMantissa()": "4ada90af",
    "markets(address)": "8e8f294b",
    "mintAllowed(address,address,uint256)": "4ef4c3e1",
    "mintGuardianPaused(address)": "731f0c2b",
    "nonAccruingRewardsDistributors(uint256)": "6bd02b8a",
    "oracle()": "7dc0d1d0",
    "pauseGuardian()": "24a3d622",
    "pendingAdmin()": "26782247",
    "pendingComptrollerImplementation()": "dcfbc0c7",
    "redeemAllowed(address,address,uint256)": "eabe7d91",
    "redeemVerify(address,address,uint256,uint256)": "51dff989",
    "repayBorrowAllowed(address,address,address,uint256)": "24008a62",
    "rewardsDistributors(uint256)": "c6c5b0dd",
    "seizeAllowed(address,address,address,address,uint256)": "d02f7351",
    "seizeGuardianPaused()": "ac0b0bb7",
    "suppliers(address)": "16dc15fe",
    "supplyCaps(address)": "02c3bcbb",
    "transferAllowed(address,address,address,uint256)": "bdcdc258",
    "transferGuardianPaused()": "87f76303",
    "whitelist(address)": "9b19251a",
    "whitelistArray(uint256)": "d251fefc"
  }
}