{
  "address": "0x957B5c015Dbc1B2409bFD2a0532faE3Dc20Bc0Be",
  "abi": [
    {
      "inputs": [
        {
          "internalType": "address payable",
          "name": "_fuseAdmin",
          "type": "address"
        }
      ],
      "stateMutability": "nonpayable",
      "type": "constructor"
    },
    {
      "inputs": [
        {
          "internalType": "bytes4",
          "name": "_functionSelector",
          "type": "bytes4"
        }
      ],
      "name": "ExtensionNotFound",
      "type": "error"
    },
    {
      "inputs": [
        {
          "internalType": "bytes4",
          "name": "_functionSelector",
          "type": "bytes4"
        },
        {
          "internalType": "address",
          "name": "_currentImpl",
          "type": "address"
        }
      ],
      "name": "FunctionAlreadyAdded",
      "type": "error"
    },
    {
      "inputs": [
        {
          "internalType": "bytes4",
          "name": "_functionSelector",
          "type": "bytes4"
        }
      ],
      "name": "FunctionNotFound",
      "type": "error"
    },
    {
      "anonymous": false,
      "inputs": [
        {
          "indexed": false,
          "internalType": "address",
          "name": "rewardsDistributor",
          "type": "address"
        }
      ],
      "name": "AddedRewardsDistributor",
      "type": "event"
    },
    {
      "anonymous": false,
      "inputs": [
        {
          "indexed": false,
          "internalType": "bool",
          "name": "enabled",
          "type": "bool"
        }
      ],
      "name": "AutoImplementationsToggled",
      "type": "event"
    },
    {
      "anonymous": false,
      "inputs": [
        {
          "indexed": false,
          "internalType": "uint256",
          "name": "error",
          "type": "uint256"
        },
        {
          "indexed": false,
          "internalType": "uint256",
          "name": "info",
          "type": "uint256"
        },
        {
          "indexed": false,
          "internalType": "uint256",
          "name": "detail",
          "type": "uint256"
        }
      ],
      "name": "Failure",
      "type": "event"
    },
    {
      "anonymous": false,
      "inputs": [
        {
          "indexed": false,
          "internalType": "contract CTokenInterface",
          "name": "cToken",
          "type": "address"
        },
        {
          "indexed": false,
          "internalType": "address",
          "name": "account",
          "type": "address"
        }
      ],
      "name": "MarketEntered",
      "type": "event"
    },
    {
      "anonymous": false,
      "inputs": [
        {
          "indexed": false,
          "internalType": "contract CTokenInterface",
          "name": "cToken",
          "type": "address"
        },
        {
          "indexed": false,
          "internalType": "address",
          "name": "account",
          "type": "address"
        }
      ],
      "name": "MarketExited",
      "type": "event"
    },
    {
      "anonymous": false,
      "inputs": [
        {
          "indexed": false,
          "internalType": "contract CTokenInterface",
          "name": "cToken",
          "type": "address"
        }
      ],
      "name": "MarketListed",
      "type": "event"
    },
    {
      "anonymous": false,
      "inputs": [
        {
          "indexed": false,
          "internalType": "uint256",
          "name": "oldCloseFactorMantissa",
          "type": "uint256"
        },
        {
          "indexed": false,
          "internalType": "uint256",
          "name": "newCloseFactorMantissa",
          "type": "uint256"
        }
      ],
      "name": "NewCloseFactor",
      "type": "event"
    },
    {
      "anonymous": false,
      "inputs": [
        {
          "indexed": false,
          "internalType": "contract CTokenInterface",
          "name": "cToken",
          "type": "address"
        },
        {
          "indexed": false,
          "internalType": "uint256",
          "name": "oldCollateralFactorMantissa",
          "type": "uint256"
        },
        {
          "indexed": false,
          "internalType": "uint256",
          "name": "newCollateralFactorMantissa",
          "type": "uint256"
        }
      ],
      "name": "NewCollateralFactor",
      "type": "event"
    },
    {
      "anonymous": false,
      "inputs": [
        {
          "indexed": false,
          "internalType": "uint256",
          "name": "oldLiquidationIncentiveMantissa",
          "type": "uint256"
        },
        {
          "indexed": false,
          "internalType": "uint256",
          "name": "newLiquidationIncentiveMantissa",
          "type": "uint256"
        }
      ],
      "name": "NewLiquidationIncentive",
      "type": "event"
    },
    {
      "anonymous": false,
      "inputs": [
        {
          "indexed": false,
          "internalType": "contract PriceOracle",
          "name": "oldPriceOracle",
          "type": "address"
        },
        {
          "indexed": false,
          "internalType": "contract PriceOracle",
          "name": "newPriceOracle",
          "type": "address"
        }
      ],
      "name": "NewPriceOracle",
      "type": "event"
    },
    {
      "anonymous": false,
      "inputs": [
        {
          "indexed": false,
          "internalType": "bool",
          "name": "enforce",
          "type": "bool"
        }
      ],
      "name": "WhitelistEnforcementChanged",
      "type": "event"
    },
    {
      "stateMutability": "nonpayable",
      "type": "fallback"
    },
    {
      "inputs": [
        {
          "internalType": "address",
          "name": "distributor",
          "type": "address"
        }
      ],
      "name": "_addRewardsDistributor",
      "outputs": [
        {
          "internalType": "uint256",
          "name": "",
          "type": "uint256"
        }
      ],
      "stateMutability": "nonpayable",
      "type": "function"
    },
    {
      "inputs": [],
      "name": "_afterNonReentrant",
      "outputs": [],
      "stateMutability": "nonpayable",
      "type": "function"
    },
    {
      "inputs": [
        {
          "internalType": "contract Unitroller",
          "name": "unitroller",
          "type": "address"
        }
      ],
      "name": "_become",
      "outputs": [],
      "stateMutability": "nonpayable",
      "type": "function"
    },
    {
      "inputs": [],
      "name": "_becomeImplementation",
      "outputs": [],
      "stateMutability": "nonpayable",
      "type": "function"
    },
    {
      "inputs": [],
      "name": "_beforeNonReentrant",
      "outputs": [],
      "stateMutability": "nonpayable",
      "type": "function"
    },
    {
      "inputs": [],
      "name": "_borrowGuardianPaused",
      "outputs": [
        {
          "internalType": "bool",
          "name": "",
          "type": "bool"
        }
      ],
      "stateMutability": "view",
      "type": "function"
    },
    {
      "inputs": [
        {
          "internalType": "bool",
          "name": "isCEther",
          "type": "bool"
        },
        {
          "internalType": "bytes",
          "name": "constructorData",
          "type": "bytes"
        },
        {
          "internalType": "uint256",
          "name": "collateralFactorMantissa",
          "type": "uint256"
        }
      ],
      "name": "_deployMarket",
      "outputs": [
        {
          "internalType": "uint256",
          "name": "",
          "type": "uint256"
        }
      ],
      "stateMutability": "nonpayable",
      "type": "function"
    },
    {
      "inputs": [],
      "name": "_listExtensions",
      "outputs": [
        {
          "internalType": "address[]",
          "name": "",
          "type": "address[]"
        }
      ],
      "stateMutability": "view",
      "type": "function"
    },
    {
      "inputs": [],
      "name": "_mintGuardianPaused",
      "outputs": [
        {
          "internalType": "bool",
          "name": "",
          "type": "bool"
        }
      ],
      "stateMutability": "view",
      "type": "function"
    },
    {
      "inputs": [
        {
          "internalType": "contract DiamondExtension",
          "name": "extensionToAdd",
          "type": "address"
        },
        {
          "internalType": "contract DiamondExtension",
          "name": "extensionToReplace",
          "type": "address"
        }
      ],
      "name": "_registerExtension",
      "outputs": [],
      "stateMutability": "nonpayable",
      "type": "function"
    },
    {
      "inputs": [
        {
          "internalType": "uint256",
          "name": "newCloseFactorMantissa",
          "type": "uint256"
        }
      ],
      "name": "_setCloseFactor",
      "outputs": [
        {
          "internalType": "uint256",
          "name": "",
          "type": "uint256"
        }
      ],
      "stateMutability": "nonpayable",
      "type": "function"
    },
    {
      "inputs": [
        {
          "internalType": "contract CTokenInterface",
          "name": "cToken",
          "type": "address"
        },
        {
          "internalType": "uint256",
          "name": "newCollateralFactorMantissa",
          "type": "uint256"
        }
      ],
      "name": "_setCollateralFactor",
      "outputs": [
        {
          "internalType": "uint256",
          "name": "",
          "type": "uint256"
        }
      ],
      "stateMutability": "nonpayable",
      "type": "function"
    },
    {
      "inputs": [
        {
          "internalType": "uint256",
          "name": "newLiquidationIncentiveMantissa",
          "type": "uint256"
        }
      ],
      "name": "_setLiquidationIncentive",
      "outputs": [
        {
          "internalType": "uint256",
          "name": "",
          "type": "uint256"
        }
      ],
      "stateMutability": "nonpayable",
      "type": "function"
    },
    {
      "inputs": [
        {
          "internalType": "contract PriceOracle",
          "name": "newOracle",
          "type": "address"
        }
      ],
      "name": "_setPriceOracle",
      "outputs": [
        {
          "internalType": "uint256",
          "name": "",
          "type": "uint256"
        }
      ],
      "stateMutability": "nonpayable",
      "type": "function"
    },
    {
      "inputs": [
        {
          "internalType": "bool",
          "name": "enforce",
          "type": "bool"
        }
      ],
      "name": "_setWhitelistEnforcement",
      "outputs": [
        {
          "internalType": "uint256",
          "name": "",
          "type": "uint256"
        }
      ],
      "stateMutability": "nonpayable",
      "type": "function"
    },
    {
      "inputs": [
        {
          "internalType": "address[]",
          "name": "suppliers",
          "type": "address[]"
        },
        {
          "internalType": "bool[]",
          "name": "statuses",
          "type": "bool[]"
        }
      ],
      "name": "_setWhitelistStatuses",
      "outputs": [
        {
          "internalType": "uint256",
          "name": "",
          "type": "uint256"
        }
      ],
      "stateMutability": "nonpayable",
      "type": "function"
    },
    {
      "inputs": [
        {
          "internalType": "bool",
          "name": "enabled",
          "type": "bool"
        }
      ],
      "name": "_toggleAutoImplementations",
      "outputs": [
        {
          "internalType": "uint256",
          "name": "",
          "type": "uint256"
        }
      ],
      "stateMutability": "nonpayable",
      "type": "function"
    },
    {
      "inputs": [
        {
          "internalType": "address",
          "name": "",
          "type": "address"
        },
        {
          "internalType": "uint256",
          "name": "",
          "type": "uint256"
        }
      ],
      "name": "accountAssets",
      "outputs": [
        {
          "internalType": "contract CTokenInterface",
          "name": "",
          "type": "address"
        }
      ],
      "stateMutability": "view",
      "type": "function"
    },
    {
      "inputs": [],
      "name": "admin",
      "outputs": [
        {
          "internalType": "address",
          "name": "",
          "type": "address"
        }
      ],
      "stateMutability": "view",
      "type": "function"
    },
    {
      "inputs": [],
      "name": "adminHasRights",
      "outputs": [
        {
          "internalType": "bool",
          "name": "",
          "type": "bool"
        }
      ],
      "stateMutability": "view",
      "type": "function"
    },
    {
      "inputs": [
        {
          "internalType": "uint256",
          "name": "",
          "type": "uint256"
        }
      ],
      "name": "allBorrowers",
      "outputs": [
        {
          "internalType": "address",
          "name": "",
          "type": "address"
        }
      ],
      "stateMutability": "view",
      "type": "function"
    },
    {
      "inputs": [
        {
          "internalType": "uint256",
          "name": "",
          "type": "uint256"
        }
      ],
      "name": "allMarkets",
      "outputs": [
        {
          "internalType": "contract CTokenInterface",
          "name": "",
          "type": "address"
        }
      ],
      "stateMutability": "view",
      "type": "function"
    },
    {
      "inputs": [],
      "name": "asComptrollerFirstExtension",
      "outputs": [
        {
          "internalType": "contract ComptrollerFirstExtension",
          "name": "",
          "type": "address"
        }
      ],
      "stateMutability": "view",
      "type": "function"
    },
    {
      "inputs": [],
      "name": "autoImplementation",
      "outputs": [
        {
          "internalType": "bool",
          "name": "",
          "type": "bool"
        }
      ],
      "stateMutability": "view",
      "type": "function"
    },
    {
      "inputs": [
        {
          "internalType": "address",
          "name": "cToken",
          "type": "address"
        },
        {
          "internalType": "address",
          "name": "borrower",
          "type": "address"
        },
        {
          "internalType": "uint256",
          "name": "borrowAmount",
          "type": "uint256"
        }
      ],
      "name": "borrowAllowed",
      "outputs": [
        {
          "internalType": "uint256",
          "name": "",
          "type": "uint256"
        }
      ],
      "stateMutability": "nonpayable",
      "type": "function"
    },
    {
      "inputs": [
        {
          "internalType": "address",
          "name": "",
          "type": "address"
        },
        {
          "internalType": "address",
          "name": "",
          "type": "address"
        }
      ],
      "name": "borrowCapForAssetForCollateral",
      "outputs": [
        {
          "internalType": "uint256",
          "name": "",
          "type": "uint256"
        }
      ],
      "stateMutability": "view",
      "type": "function"
    },
    {
      "inputs": [],
      "name": "borrowCapGuardian",
      "outputs": [
        {
          "internalType": "address",
          "name": "",
          "type": "address"
        }
      ],
      "stateMutability": "view",
      "type": "function"
    },
    {
      "inputs": [
        {
          "internalType": "address",
          "name": "",
          "type": "address"
        }
      ],
      "name": "borrowCaps",
      "outputs": [
        {
          "internalType": "uint256",
          "name": "",
          "type": "uint256"
        }
      ],
      "stateMutability": "view",
      "type": "function"
    },
    {
      "inputs": [
        {
          "internalType": "address",
          "name": "",
          "type": "address"
        }
      ],
      "name": "borrowGuardianPaused",
      "outputs": [
        {
          "internalType": "bool",
          "name": "",
          "type": "bool"
        }
      ],
      "stateMutability": "view",
      "type": "function"
    },
    {
      "inputs": [
        {
          "internalType": "address",
          "name": "cToken",
          "type": "address"
        },
        {
          "internalType": "uint256",
          "name": "accountBorrowsNew",
          "type": "uint256"
        }
      ],
      "name": "borrowWithinLimits",
      "outputs": [
        {
          "internalType": "uint256",
          "name": "",
          "type": "uint256"
        }
      ],
      "stateMutability": "view",
      "type": "function"
    },
    {
      "inputs": [
        {
          "internalType": "address",
          "name": "",
          "type": "address"
        },
        {
          "internalType": "address",
          "name": "",
          "type": "address"
        }
      ],
      "name": "borrowingAgainstCollateralBlacklist",
      "outputs": [
        {
          "internalType": "bool",
          "name": "",
          "type": "bool"
        }
      ],
      "stateMutability": "view",
      "type": "function"
    },
    {
      "inputs": [
        {
          "internalType": "address",
          "name": "",
          "type": "address"
        }
      ],
      "name": "cTokensByUnderlying",
      "outputs": [
        {
          "internalType": "contract CTokenInterface",
          "name": "",
          "type": "address"
        }
      ],
      "stateMutability": "view",
      "type": "function"
    },
    {
      "inputs": [
        {
          "internalType": "address",
          "name": "account",
          "type": "address"
        },
        {
          "internalType": "contract CTokenInterface",
          "name": "cToken",
          "type": "address"
        }
      ],
      "name": "checkMembership",
      "outputs": [
        {
          "internalType": "bool",
          "name": "",
          "type": "bool"
        }
      ],
      "stateMutability": "view",
      "type": "function"
    },
    {
      "inputs": [],
      "name": "closeFactorMantissa",
      "outputs": [
        {
          "internalType": "uint256",
          "name": "",
          "type": "uint256"
        }
      ],
      "stateMutability": "view",
      "type": "function"
    },
    {
      "inputs": [],
      "name": "comptrollerImplementation",
      "outputs": [
        {
          "internalType": "address",
          "name": "",
          "type": "address"
        }
      ],
      "stateMutability": "view",
      "type": "function"
    },
    {
      "inputs": [],
      "name": "enforceWhitelist",
      "outputs": [
        {
          "internalType": "bool",
          "name": "",
          "type": "bool"
        }
      ],
      "stateMutability": "view",
      "type": "function"
    },
    {
      "inputs": [
        {
          "internalType": "address[]",
          "name": "cTokens",
          "type": "address[]"
        }
      ],
      "name": "enterMarkets",
      "outputs": [
        {
          "internalType": "uint256[]",
          "name": "",
          "type": "uint256[]"
        }
      ],
      "stateMutability": "nonpayable",
      "type": "function"
    },
    {
      "inputs": [
        {
          "internalType": "address",
          "name": "cTokenAddress",
          "type": "address"
        }
      ],
      "name": "exitMarket",
      "outputs": [
        {
          "internalType": "uint256",
          "name": "",
          "type": "uint256"
        }
      ],
      "stateMutability": "nonpayable",
      "type": "function"
    },
    {
      "inputs": [],
      "name": "fuseAdmin",
      "outputs": [
        {
          "internalType": "address payable",
          "name": "",
          "type": "address"
        }
      ],
      "stateMutability": "view",
      "type": "function"
    },
    {
      "inputs": [],
      "name": "fuseAdminHasRights",
      "outputs": [
        {
          "internalType": "bool",
          "name": "",
          "type": "bool"
        }
      ],
      "stateMutability": "view",
      "type": "function"
    },
    {
      "inputs": [
        {
          "internalType": "address",
          "name": "account",
          "type": "address"
        }
      ],
      "name": "getAccountLiquidity",
      "outputs": [
        {
          "internalType": "uint256",
          "name": "",
          "type": "uint256"
        },
        {
          "internalType": "uint256",
          "name": "",
          "type": "uint256"
        },
        {
          "internalType": "uint256",
          "name": "",
          "type": "uint256"
        }
      ],
      "stateMutability": "view",
      "type": "function"
    },
    {
      "inputs": [
        {
          "internalType": "address",
          "name": "account",
          "type": "address"
        }
      ],
      "name": "getAssetsIn",
      "outputs": [
        {
          "internalType": "contract CTokenInterface[]",
          "name": "",
          "type": "address[]"
        }
      ],
      "stateMutability": "view",
      "type": "function"
    },
    {
      "inputs": [
        {
          "internalType": "address",
          "name": "account",
          "type": "address"
        },
        {
          "internalType": "address",
          "name": "cTokenModify",
          "type": "address"
        },
        {
          "internalType": "uint256",
          "name": "redeemTokens",
          "type": "uint256"
        },
        {
          "internalType": "uint256",
          "name": "borrowAmount",
          "type": "uint256"
        }
      ],
      "name": "getHypotheticalAccountLiquidity",
      "outputs": [
        {
          "internalType": "uint256",
          "name": "",
          "type": "uint256"
        },
        {
          "internalType": "uint256",
          "name": "",
          "type": "uint256"
        },
        {
          "internalType": "uint256",
          "name": "",
          "type": "uint256"
        }
      ],
      "stateMutability": "view",
      "type": "function"
    },
    {
      "inputs": [
        {
          "internalType": "address",
          "name": "account",
          "type": "address"
        },
        {
          "internalType": "address",
          "name": "cToken",
          "type": "address"
        },
        {
          "internalType": "bool",
          "name": "isBorrow",
          "type": "bool"
        }
      ],
      "name": "getMaxRedeemOrBorrow",
      "outputs": [
        {
          "internalType": "uint256",
          "name": "",
          "type": "uint256"
        }
      ],
      "stateMutability": "nonpayable",
      "type": "function"
    },
    {
      "inputs": [],
      "name": "isComptroller",
      "outputs": [
        {
          "internalType": "bool",
          "name": "",
          "type": "bool"
        }
      ],
      "stateMutability": "view",
      "type": "function"
    },
    {
      "inputs": [
        {
          "internalType": "contract CTokenInterface",
          "name": "cToken",
          "type": "address"
        }
      ],
      "name": "isDeprecated",
      "outputs": [
        {
          "internalType": "bool",
          "name": "",
          "type": "bool"
        }
      ],
      "stateMutability": "view",
      "type": "function"
    },
    {
      "inputs": [
        {
          "internalType": "address",
          "name": "cTokenBorrowed",
          "type": "address"
        },
        {
          "internalType": "address",
          "name": "cTokenCollateral",
          "type": "address"
        },
        {
          "internalType": "address",
          "name": "liquidator",
          "type": "address"
        },
        {
          "internalType": "address",
          "name": "borrower",
          "type": "address"
        },
        {
          "internalType": "uint256",
          "name": "repayAmount",
          "type": "uint256"
        }
      ],
      "name": "liquidateBorrowAllowed",
      "outputs": [
        {
          "internalType": "uint256",
          "name": "",
          "type": "uint256"
        }
      ],
      "stateMutability": "nonpayable",
      "type": "function"
    },
    {
      "inputs": [
        {
          "internalType": "address",
          "name": "cTokenBorrowed",
          "type": "address"
        },
        {
          "internalType": "address",
          "name": "cTokenCollateral",
          "type": "address"
        },
        {
          "internalType": "uint256",
          "name": "actualRepayAmount",
          "type": "uint256"
        }
      ],
      "name": "liquidateCalculateSeizeTokens",
      "outputs": [
        {
          "internalType": "uint256",
          "name": "",
          "type": "uint256"
        },
        {
          "internalType": "uint256",
          "name": "",
          "type": "uint256"
        }
      ],
      "stateMutability": "view",
      "type": "function"
    },
    {
      "inputs": [],
      "name": "liquidationIncentiveMantissa",
      "outputs": [
        {
          "internalType": "uint256",
          "name": "",
          "type": "uint256"
        }
      ],
      "stateMutability": "view",
      "type": "function"
    },
    {
      "inputs": [
        {
          "internalType": "address",
          "name": "",
          "type": "address"
        }
      ],
      "name": "markets",
      "outputs": [
        {
          "internalType": "bool",
          "name": "isListed",
          "type": "bool"
        },
        {
          "internalType": "uint256",
          "name": "collateralFactorMantissa",
          "type": "uint256"
        }
      ],
      "stateMutability": "view",
      "type": "function"
    },
    {
      "inputs": [
        {
          "internalType": "address",
          "name": "cToken",
          "type": "address"
        },
        {
          "internalType": "address",
          "name": "minter",
          "type": "address"
        },
        {
          "internalType": "uint256",
          "name": "mintAmount",
          "type": "uint256"
        }
      ],
      "name": "mintAllowed",
      "outputs": [
        {
          "internalType": "uint256",
          "name": "",
          "type": "uint256"
        }
      ],
      "stateMutability": "nonpayable",
      "type": "function"
    },
    {
      "inputs": [
        {
          "internalType": "address",
          "name": "",
          "type": "address"
        }
      ],
      "name": "mintGuardianPaused",
      "outputs": [
        {
          "internalType": "bool",
          "name": "",
          "type": "bool"
        }
      ],
      "stateMutability": "view",
      "type": "function"
    },
    {
      "inputs": [
        {
          "internalType": "uint256",
          "name": "",
          "type": "uint256"
        }
      ],
      "name": "nonAccruingRewardsDistributors",
      "outputs": [
        {
          "internalType": "address",
          "name": "",
          "type": "address"
        }
      ],
      "stateMutability": "view",
      "type": "function"
    },
    {
      "inputs": [],
      "name": "oracle",
      "outputs": [
        {
          "internalType": "contract PriceOracle",
          "name": "",
          "type": "address"
        }
      ],
      "stateMutability": "view",
      "type": "function"
    },
    {
      "inputs": [],
      "name": "pauseGuardian",
      "outputs": [
        {
          "internalType": "address",
          "name": "",
          "type": "address"
        }
      ],
      "stateMutability": "view",
      "type": "function"
    },
    {
      "inputs": [],
      "name": "pendingAdmin",
      "outputs": [
        {
          "internalType": "address",
          "name": "",
          "type": "address"
        }
      ],
      "stateMutability": "view",
      "type": "function"
    },
    {
      "inputs": [],
      "name": "pendingComptrollerImplementation",
      "outputs": [
        {
          "internalType": "address",
          "name": "",
          "type": "address"
        }
      ],
      "stateMutability": "view",
      "type": "function"
    },
    {
      "inputs": [
        {
          "internalType": "address",
          "name": "cToken",
          "type": "address"
        },
        {
          "internalType": "address",
          "name": "redeemer",
          "type": "address"
        },
        {
          "internalType": "uint256",
          "name": "redeemTokens",
          "type": "uint256"
        }
      ],
      "name": "redeemAllowed",
      "outputs": [
        {
          "internalType": "uint256",
          "name": "",
          "type": "uint256"
        }
      ],
      "stateMutability": "nonpayable",
      "type": "function"
    },
    {
      "inputs": [
        {
          "internalType": "address",
          "name": "cToken",
          "type": "address"
        },
        {
          "internalType": "address",
          "name": "redeemer",
          "type": "address"
        },
        {
          "internalType": "uint256",
          "name": "redeemAmount",
          "type": "uint256"
        },
        {
          "internalType": "uint256",
          "name": "redeemTokens",
          "type": "uint256"
        }
      ],
      "name": "redeemVerify",
      "outputs": [],
      "stateMutability": "nonpayable",
      "type": "function"
    },
    {
      "inputs": [
        {
          "internalType": "address",
          "name": "cToken",
          "type": "address"
        },
        {
          "internalType": "address",
          "name": "payer",
          "type": "address"
        },
        {
          "internalType": "address",
          "name": "borrower",
          "type": "address"
        },
        {
          "internalType": "uint256",
          "name": "repayAmount",
          "type": "uint256"
        }
      ],
      "name": "repayBorrowAllowed",
      "outputs": [
        {
          "internalType": "uint256",
          "name": "",
          "type": "uint256"
        }
      ],
      "stateMutability": "nonpayable",
      "type": "function"
    },
    {
      "inputs": [
        {
          "internalType": "uint256",
          "name": "",
          "type": "uint256"
        }
      ],
      "name": "rewardsDistributors",
      "outputs": [
        {
          "internalType": "address",
          "name": "",
          "type": "address"
        }
      ],
      "stateMutability": "view",
      "type": "function"
    },
    {
      "inputs": [
        {
          "internalType": "address",
          "name": "cTokenCollateral",
          "type": "address"
        },
        {
          "internalType": "address",
          "name": "cTokenBorrowed",
          "type": "address"
        },
        {
          "internalType": "address",
          "name": "liquidator",
          "type": "address"
        },
        {
          "internalType": "address",
          "name": "borrower",
          "type": "address"
        },
        {
          "internalType": "uint256",
          "name": "seizeTokens",
          "type": "uint256"
        }
      ],
      "name": "seizeAllowed",
      "outputs": [
        {
          "internalType": "uint256",
          "name": "",
          "type": "uint256"
        }
      ],
      "stateMutability": "nonpayable",
      "type": "function"
    },
    {
      "inputs": [],
      "name": "seizeGuardianPaused",
      "outputs": [
        {
          "internalType": "bool",
          "name": "",
          "type": "bool"
        }
      ],
      "stateMutability": "view",
      "type": "function"
    },
    {
      "inputs": [
        {
          "internalType": "address",
          "name": "",
          "type": "address"
        }
      ],
      "name": "suppliers",
      "outputs": [
        {
          "internalType": "bool",
          "name": "",
          "type": "bool"
        }
      ],
      "stateMutability": "view",
      "type": "function"
    },
    {
      "inputs": [
        {
          "internalType": "address",
          "name": "",
          "type": "address"
        }
      ],
      "name": "supplyCaps",
      "outputs": [
        {
          "internalType": "uint256",
          "name": "",
          "type": "uint256"
        }
      ],
      "stateMutability": "view",
      "type": "function"
    },
    {
      "inputs": [
        {
          "internalType": "address",
          "name": "cToken",
          "type": "address"
        },
        {
          "internalType": "address",
          "name": "src",
          "type": "address"
        },
        {
          "internalType": "address",
          "name": "dst",
          "type": "address"
        },
        {
          "internalType": "uint256",
          "name": "transferTokens",
          "type": "uint256"
        }
      ],
      "name": "transferAllowed",
      "outputs": [
        {
          "internalType": "uint256",
          "name": "",
          "type": "uint256"
        }
      ],
      "stateMutability": "nonpayable",
      "type": "function"
    },
    {
      "inputs": [],
      "name": "transferGuardianPaused",
      "outputs": [
        {
          "internalType": "bool",
          "name": "",
          "type": "bool"
        }
      ],
      "stateMutability": "view",
      "type": "function"
    },
    {
      "inputs": [
        {
          "internalType": "address",
          "name": "",
          "type": "address"
        }
      ],
      "name": "whitelist",
      "outputs": [
        {
          "internalType": "bool",
          "name": "",
          "type": "bool"
        }
      ],
      "stateMutability": "view",
      "type": "function"
    },
    {
      "inputs": [
        {
          "internalType": "uint256",
          "name": "",
          "type": "uint256"
        }
      ],
      "name": "whitelistArray",
      "outputs": [
        {
          "internalType": "address",
          "name": "",
          "type": "address"
        }
      ],
      "stateMutability": "view",
      "type": "function"
    }
  ],
  "transactionHash": "0x2cd366126883569d8c72d19b7323f7dbe5e9f67561b285e17939abd4d6d09524",
  "args": [
    "0xf656D243a23A0987329ac6522292f4104A7388e1"
  ],
  "numDeployments": 24,
  "bytecode": {
    "object": "0x60806040526002805461ffff60a01b191661010160a01b1790553480156200002657600080fd5b5060405162005c1c38038062005c1c83398101604081905262000049916200006f565b600080546001600160a01b0319166001600160a01b0392909216919091179055620000a1565b6000602082840312156200008257600080fd5b81516001600160a01b03811681146200009a57600080fd5b9392505050565b615b6b80620000b16000396000f3fe608060405234801561001057600080fd5b50600436106104065760003560e01c80637515bafa11610220578063c299823811610130578063dce15449116100b8578063e6653f3d11610087578063e6653f3d14610a76578063e875544614610a8a578063eabe7d9114610a93578063ede4edd014610aa6578063f851a44014610ab957610406565b8063dce1544914610a30578063dcfbc0c714610a43578063dd5cd22c14610a56578063e4028eee14610a6357610406565b8063c90c20b1116100ff578063c90c20b1146109dc578063d02f7351146109e4578063d251fefc146109f7578063d533316614610a0a578063da3d454c14610a1d57610406565b8063c29982381461096e578063c488847b1461098e578063c6c5b0dd146109b6578063c8c9c975146109c957610406565b8063952adf5a116101b3578063ac0b0bb711610182578063ac0b0bb714610914578063b095721014610928578063b9b5b15314610935578063bb82aa5e14610948578063bdcdc2581461095b57610406565b8063952adf5a146108b85780639b19251a146108cb578063aba35b98146108ee578063abfceffc1461090157610406565b806389cd9855116101ef57806389cd98551461080d5780638e8f294b14610820578063929fe9a11461086457806394543c15146108a557610406565b80637515bafa146107c0578063779b2294146107d35780637dc0d1d0146107e657806387f76303146107f957610406565b80634a5844321161031b57806355ee1fe1116102ae578063632e51421161027d578063632e51421461074a5780636333d001146107525780636bd02b8a146107675780636d154ea51461077a578063731f0c2b1461079d57610406565b806355ee1fe1146107095780635d72de621461071c5780635ec88c79146107245780635fc7e71e1461073757610406565b80634fd42e17116102ea5780634fd42e17146106a557806351dff989146106b857806352d84d1e146106cb57806355c6b6b9146106de57610406565b80634a5844321461063b5780634ada90af1461065b5780634e79238f146106645780634ef4c3e11461069257610406565b80631d504dc61161039e578063267822471161036d57806326782247146105c45780632f1069ba146105d7578063317b0b77146105eb57806331ff47fa146105fe5780633c94786f1461062757610406565b80631d504dc61461057157806321af45691461058657806324008a621461059e57806324a3d622146105b157610406565b806316dc15fe116103da57806316dc15fe146105075780631976828e1461052a5780631ace59571461053d5780631c819e431461054357610406565b80627e3dd21461047d57806302c3bcbb1461049a5780630a755ec2146104c857806315761d51146104dc575b600061041d6000356001600160e01b031916610acc565b90506001600160a01b03811661045957604051630a82dd7360e31b81526001600160e01b03196000351660048201526024015b60405180910390fd5b3660008037600080366000845af43d6000803e808015610478573d6000f35b3d6000fd5b610485600181565b60405190151581526020015b60405180910390f35b6104ba6104a83660046152bd565b601a6020526000908152604090205481565b604051908152602001610491565b60025461048590600160a81b900460ff1681565b6000546104ef906001600160a01b031681565b6040516001600160a01b039091168152602001610491565b6104856105153660046152bd565b600f6020526000908152604090205460ff1681565b6104ba6105383660046152e8565b610b2f565b306104ef565b610485610551366004615333565b601f60209081526000928352604080842090915290825290205460ff1681565b61058461057f3660046152bd565b610dad565b005b6018546104ef9061010090046001600160a01b031681565b6104ba6105ac36600461536c565b61104b565b6015546104ef906001600160a01b031681565b6002546104ef906001600160a01b031681565b60025461048590600160a01b900460ff1681565b6104ba6105f93660046153bd565b61108d565b6104ef61060c3660046152bd565b6010602052600090815260409020546001600160a01b031681565b60155461048590600160a01b900460ff1681565b6104ba6106493660046152bd565b60196020526000908152604090205481565b6104ba60075481565b6106776106723660046153d6565b611167565b60408051938452602084019290925290820152606001610491565b6104ba6106a036600461541c565b6111a7565b6104ba6106b33660046153bd565b611563565b6105846106c63660046153d6565b61161f565b6104ef6106d93660046153bd565b611798565b6104ba6106ec366004615333565b601e60209081526000928352604080842090915290825290205481565b6104ba6107173660046152bd565b6117c2565b610584611842565b6106776107323660046152bd565b6119b6565b6104ba61074536600461545d565b6119f1565b610584611bc7565b61075a611c35565b60405161049191906154c1565b6104ef6107753660046153bd565b611c44565b6104856107883660046152bd565b60176020526000908152604090205460ff1681565b6104856107ab3660046152bd565b60166020526000908152604090205460ff1681565b6104ef6107ce3660046153bd565b611c54565b6104ba6107e136600461550e565b611c64565b6005546104ef906001600160a01b031681565b60155461048590600160b01b900460ff1681565b61058461081b366004615333565b611dbf565b61084d61082e3660046152bd565b600a602052600090815260409020805460019091015460ff9091169082565b604080519215158352602083019190915201610491565b610485610872366004615333565b6001600160a01b038082166000908152600a60209081526040808320938616835260029093019052205460ff1692915050565b6104856108b33660046152bd565b611e38565b6104ba6108c636600461553a565b611fa2565b6104856108d93660046152bd565b60126020526000908152604090205460ff1681565b6104ba6108fc366004615557565b612020565b61075a61090f3660046152bd565b612116565b60155461048590600160b81b900460ff1681565b6011546104859060ff1681565b6104ba6109433660046152bd565b61218c565b6003546104ef906001600160a01b031681565b6104ba61096936600461536c565b61234f565b61098161097c36600461564d565b6123f5565b60405161049191906156e1565b6109a161099c36600461541c565b6124bd565b60408051928352602083019190915201610491565b6104ef6109c43660046153bd565b61284a565b6104ba6109d736600461575e565b61285a565b610584612b01565b6104ba6109f236600461545d565b612bab565b6104ef610a053660046153bd565b612d55565b6104ba610a1836600461553a565b612d65565b6104ba610a2b36600461541c565b612dd8565b6104ef610a3e36600461550e565b613167565b6004546104ef906001600160a01b031681565b6018546104859060ff1681565b6104ba610a7136600461550e565b61319f565b60155461048590600160a81b900460ff1681565b6104ba60065481565b6104ba610aa136600461541c565b613329565b6104ba610ab43660046152bd565b613346565b6001546104ef906001600160a01b031681565b6001600160e01b031981166000908152600080516020615b3f833981519152602081905260408220546001600160a01b031680610b2857604051631f3f429960e31b81526001600160e01b031985166004820152602401610450565b9392505050565b6000808390506000816001600160a01b0316639f5ef2726040518163ffffffff1660e01b8152600401602060405180830381865afa158015610b75573d6000803e3d6000fd5b505050506040513d601f19601f82011682018060405250810190610b9991906157ca565b604051633af9e66960e01b81526001600160a01b0388811660048301529190911690633af9e669906024016020604051808303816000875af1158015610be3573d6000803e3d6000fd5b505050506040513d601f19601f82011682018060405250810190610c0791906157e7565b905073d265ff7e5487e9dd556a4bb900cca6d087eb3ad230148015610c2a575083155b15610c38579150610b289050565b6000806000610c578988610c4d576000610c4f565b865b6000806137a9565b919450925090506000836014811115610c7257610c72615800565b14610cac5760405162461bcd60e51b815260206004820152600a602482015269216c697175696469747960b01b6044820152606401610450565b8015610cc057600095505050505050610b28565b600087158015610cfa57506001600160a01b03808a166000908152600a60209081526040808320938e16835260029093019052205460ff16155b15610d06575083610d28565b610d1183878a613ce8565b905087158015610d2057508085105b15610d285750835b6000866001600160a01b0316633b1d21a26040518163ffffffff1660e01b8152600401602060405180830381865afa158015610d68573d6000803e3d6000fd5b505050506040513d601f19601f82011682018060405250810190610d8c91906157e7565b905080821115610d9c5780610d9e565b815b9b9a5050505050505050505050565b6000546001600160a01b031633148015610e245750806001600160a01b0316632f1069ba6040518163ffffffff1660e01b8152600401602060405180830381865afa158015610e00573d6000803e3d6000fd5b505050506040513d601f19601f82011682018060405250810190610e249190615816565b80610f095750806001600160a01b031663f851a4406040518163ffffffff1660e01b8152600401602060405180830381865afa158015610e68573d6000803e3d6000fd5b505050506040513d601f19601f82011682018060405250810190610e8c91906157ca565b6001600160a01b0316336001600160a01b0316148015610f095750806001600160a01b0316630a755ec26040518163ffffffff1660e01b8152600401602060405180830381865afa158015610ee5573d6000803e3d6000fd5b505050506040513d601f19601f82011682018060405250810190610f099190615816565b610f3e5760405162461bcd60e51b815260206004820152600660248201526510b0b236b4b760d11b6044820152606401610450565b6000816001600160a01b031663c1e803346040518163ffffffff1660e01b81526004016020604051808303816000875af1158015610f80573d6000803e3d6000fd5b505050506040513d601f19601f82011682018060405250810190610fa491906157e7565b90508015610ff45760405162461bcd60e51b815260206004820181905260248201527f21756e617574686f72697a6564202d206e6f742070656e64696e6720696d706c6044820152606401610450565b816001600160a01b0316635d72de626040518163ffffffff1660e01b8152600401600060405180830381600087803b15801561102f57600080fd5b505af1158015611043573d6000803e3d6000fd5b505050505050565b6001600160a01b0384166000908152600a602052604081205460ff166110755760085b9050611085565b61107f8584613e01565b60005b90505b949350505050565b6000611097613ea9565b6110ad576110a760016007613efb565b92915050565b6040805160208082018352848252825190810190925266b1a2bc2ec500008083528151919291116110e45761108560056008613efb565b6040805160208101909152670c7d713b49da0000808252835111156111185761110f60056008613efb565b95945050505050565b600680549086905560408051828152602081018890527f3b9670cf975d26958e754b57098eaa2ac914d8d2a31b83257997b9f346110fd991015b60405180910390a160005b9695505050505050565b60008060008060008061117c8a8a8a8a6137a9565b92509250925082601481111561119457611194615800565b95509093509150505b9450945094915050565b6001600160a01b03831660009081526016602052604081205460ff16156111ff5760405162461bcd60e51b815260206004820152600c60248201526b085b5a5b9d0e9c185d5cd95960a21b6044820152606401610450565b6001600160a01b0384166000908152600a602052604090205460ff166112295760085b9050610b28565b60115460ff16801561125457506001600160a01b03831660009081526012602052604090205460ff16155b15611260576011611222565b6001600160a01b0384166000908152601a6020526040902054801561154e576000856001600160a01b0316633b1d21a26040518163ffffffff1660e01b8152600401602060405180830381865afa1580156112bf573d6000803e3d6000fd5b505050506040513d601f19601f820116820180604052508101906112e391906157e7565b90506000866001600160a01b03166347bd37186040518163ffffffff1660e01b8152600401602060405180830381865afa158015611325573d6000803e3d6000fd5b505050506040513d601f19601f8201168201806040525081019061134991906157e7565b90506000876001600160a01b0316638f840ddd6040518163ffffffff1660e01b8152600401602060405180830381865afa15801561138b573d6000803e3d6000fd5b505050506040513d601f19601f820116820180604052508101906113af91906157e7565b90506000886001600160a01b031663dc028ab16040518163ffffffff1660e01b8152600401602060405180830381865afa1580156113f1573d6000803e3d6000fd5b505050506040513d601f19601f8201168201806040525081019061141591906157e7565b90506000896001600160a01b03166361feacff6040518163ffffffff1660e01b8152600401602060405180830381865afa158015611457573d6000803e3d6000fd5b505050506040513d601f19601f8201168201806040525081019061147b91906157e7565b905060008061149d87876114986114928989613f74565b87613f74565b613faa565b909250905060008260038111156114b6576114b6615800565b146114cc57600a98505050505050505050610b28565b60006114d8828c613ffc565b909350905060008360038111156114f1576114f1615800565b1461150857600a9950505050505050505050610b28565b8881106115455760405162461bcd60e51b815260206004820152600b60248201526a021737570706c79206361760ac1b6044820152606401610450565b50505050505050505b6115588585614025565b600095945050505050565b600061156d613ea9565b61157d576110a76001600d613efb565b60408051602080820183528482528251908101909252670de0b6b3a7640000808352815191929110156115b6576110856007600e613efb565b60408051602081019091526714d1120d7b160000808252835111156115e15761110f6007600e613efb565b600780549086905560408051828152602081018890527faeba5a6c40a8ac138134bff1aaa65debf25971188a58804bad717f82f0ec13169101611152565b336000908152600a602052604090205460ff166116685760405162461bcd60e51b8152602060048201526007602482015266085b585c9ad95d60ca1b6044820152606401610450565b73d265ff7e5487e9dd556a4bb900cca6d087eb3ad230141561174f576001600160a01b0383163b156116d45760405162461bcd60e51b8152602060048201526015602482015274199bdc98d9481c995919595b4818dbdb9d1c9858dd605a1b6044820152606401610450565b604051630d90a33160e01b81526001600160a01b038416600482015233602482015260448101829052736da2d84d390f12a6c49afe7b677a6a2b8e0d961a90630d90a33190606401600060405180830381600087803b15801561173657600080fd5b505af115801561174a573d6000803e3d6000fd5b505050505b8015801561175d5750600082115b156117925760405162461bcd60e51b8152602060048201526005602482015264217a65726f60d81b6044820152606401610450565b50505050565b600b81815481106117a857600080fd5b6000918252602090912001546001600160a01b0316905081565b60006117cc613ea9565b6117dc576110a760016012613efb565b600580546001600160a01b038481166001600160a01b031983168117909355604080519190921680825260208201939093527fd52b2b9b7e9ee655fcb95d2e5b9e0c9f69e7ef2b8e9d2d0ea78402d576d22e22910160405180910390a160009392505050565b6003546001600160a01b0316331461188e5760405162461bcd60e51b815260206004820152600f60248201526e10b4b6b83632b6b2b73a30ba34b7b760891b6044820152606401610450565b60006118986140c7565b905060005b81518110156118da576118c88282815181106118bb576118bb615833565b6020026020010151614139565b806118d28161585f565b91505061189d565b5060008054600354604051631978a0bf60e31b81526001600160a01b03918216600482015291169063cbc505f890602401600060405180830381865afa158015611928573d6000803e3d6000fd5b505050506040513d6000823e601f3d908101601f19168201604052611950919081019061587a565b905060005b81518110156119925761198082828151811061197357611973615833565b6020026020010151614269565b8061198a8161585f565b915050611955565b50601c54610100900460ff166119b257601c805461ffff19166101011790555b5050565b6000806000806000806119cd8760008060006137a9565b9250925092508260148111156119e5576119e5615800565b97919650945092505050565b600073d265ff7e5487e9dd556a4bb900cca6d087eb3ad2301415611a195760045b905061110f565b6001600160a01b0386166000908152600a602052604090205460ff161580611a5a57506001600160a01b0385166000908152600a602052604090205460ff16155b15611a66576008611a12565b6040516395dd919360e01b81526001600160a01b038481166004830152600091908816906395dd919390602401602060405180830381865afa158015611ab0573d6000803e3d6000fd5b505050506040513d601f19601f82011682018060405250810190611ad491906157e7565b9050611adf87611e38565b15611b295782811015611b245760405162461bcd60e51b815260206004820152600d60248201526c21626f72726f773e726570617960981b6044820152606401610450565b611bba565b600080611b3a8660008060006137a9565b91935090915060009050826014811115611b5657611b56615800565b14611b7757816014811115611b6d57611b6d615800565b935050505061110f565b80611b83576003611b6d565b6000611b9f604051806020016040528060065481525085614361565b905080861115611bb657601094505050505061110f565b5050505b5060009695505050505050565b336000908152600a602052604090205460ff16611c265760405162461bcd60e51b815260206004820152601f60248201527f21436f6d7074726f6c6c65723a5f61667465724e6f6e5265656e7472616e74006044820152606401610450565b601c805460ff19166001179055565b6060611c3f6140c7565b905090565b601d81815481106117a857600080fd5b600d81815481106117a857600080fd5b600080546040805163fdb25fb160e01b8152905183926001600160a01b03169163fdb25fb19160048083019260209291908290030181865afa158015611cae573d6000803e3d6000fd5b505050506040513d601f19601f82011682018060405250810190611cd291906157e7565b90508015611db55760055460405163fc57d4df60e01b81526001600160a01b038681166004830152600092169063fc57d4df90602401602060405180830381865afa158015611d25573d6000803e3d6000fd5b505050506040513d601f19601f82011682018060405250810190611d4991906157e7565b905080611d5b57600c925050506110a7565b600080611d7660405180602001604052808581525087614379565b90925090506000826003811115611d8f57611d8f615800565b14611da257600a5b9450505050506110a7565b83811015611db1576012611d97565b5050505b6000949350505050565b6000546001600160a01b031633148015611de25750600254600160a01b900460ff165b611e2e5760405162461bcd60e51b815260206004820152601f60248201527f21756e617574686f72697a6564202d206e6f2061646d696e20726967687473006044820152606401610450565b6119b282826143cb565b6001600160a01b0381166000908152600a6020526040812060010154158015611e7e57506001600160a01b03821660009081526017602052604090205460ff1615156001145b80156110a75750611f92611f54836001600160a01b031663173b99046040518163ffffffff1660e01b8152600401602060405180830381865afa158015611ec9573d6000803e3d6000fd5b505050506040513d601f19601f82011682018060405250810190611eed91906157e7565b846001600160a01b0316638d02d9a16040518163ffffffff1660e01b8152600401602060405180830381865afa158015611f2b573d6000803e3d6000fd5b505050506040513d601f19601f82011682018060405250810190611f4f91906157e7565b613f74565b836001600160a01b031663dbfe7c196040518163ffffffff1660e01b8152600401602060405180830381865afa158015611f2b573d6000803e3d6000fd5b670de0b6b3a76400001492915050565b6000611fac613ea9565b611fbc576110a760016013613efb565b60115460ff1615158215151415611fd45760006110a7565b6011805460ff19168315159081179091556040519081527f84c7d948374a180eddab35d27d2f7a94167a1ff4e79467f1e89c061984190a1e906020015b60405180910390a160006110a7565b600061202a613ea9565b61203a5761106e60016016613efb565b60028054600160a01b60ff60a01b198216811790925560008054604051638754e4fd60e01b81529390920460ff169290916001600160a01b031690638754e4fd9061208b9089908990600401615909565b6020604051808303816000875af11580156120aa573d6000803e3d6000fd5b505050506040513d601f19601f820116820180604052508101906120ce91906157ca565b6002805460ff60a01b1916600160a01b85151502179055905060006120f2826143ec565b90508015612100578061210a565b61210a828661319f565b98975050505050505050565b6001600160a01b038116600090815260096020908152604080832080548251818502810185019093528083526060949383018282801561217f57602002820191906000526020600020905b81546001600160a01b03168152600190910190602001808311612161575b5093979650505050505050565b6000612196613ea9565b6121a6576110a760016002613efb565b816001600160a01b031663abc6d72d6040518163ffffffff1660e01b81526004016020604051808303816000875af11580156121e6573d6000803e3d6000fd5b505050506040513d601f19601f8201168201806040525081019061220a9190615816565b61224e5760405162461bcd60e51b815260206004820152601560248201527410b4b9a932bbb0b93239a234b9ba3934b13aba37b960591b6044820152606401610450565b60005b601b548110156122d057601b818154811061226e5761226e615833565b6000918252602090912001546001600160a01b03848116911614156122be5760405162461bcd60e51b815260206004820152600660248201526508585919195960d21b6044820152606401610450565b806122c88161585f565b915050612251565b50601b80546001810182556000919091527f3ad8aa4f87544323a9d1e5dd902f40c356527a7955687113db5f9a85ad579dc10180546001600160a01b0319166001600160a01b0384169081179091556040519081527f98ef1187fb6fd2bc85f8996489877eb2b5428f9e9bdfc068c9ad6c2ea82eacc790602001612011565b601554600090600160b01b900460ff161561239f5760405162461bcd60e51b815260206004820152601060248201526f085d1c985b9cd9995c8e9c185d5cd95960821b6044820152606401610450565b73d265ff7e5487e9dd556a4bb900cca6d087eb3ad23014156123c257600461106e565b60006123cf8686856146d6565b905080156123de579050611085565b6123e986868661478e565b60009695505050505050565b805160609060008167ffffffffffffffff811115612415576124156155e2565b60405190808252806020026020018201604052801561243e578160200160208202803683370190505b50905060005b828110156124b557600085828151811061246057612460615833565b602002602001015190506124748133614839565b601481111561248557612485615800565b83838151811061249757612497615833565b602090810291909101015250806124ad8161585f565b915050612444565b509392505050565b60055460405163fc57d4df60e01b81526001600160a01b038581166004830152600092839283929091169063fc57d4df90602401602060405180830381865afa15801561250e573d6000803e3d6000fd5b505050506040513d601f19601f8201168201806040525081019061253291906157e7565b60055460405163fc57d4df60e01b81526001600160a01b0388811660048301529293506000929091169063fc57d4df90602401602060405180830381865afa158015612582573d6000803e3d6000fd5b505050506040513d601f19601f820116820180604052508101906125a691906157e7565b90508115806125b3575080155b156125c757600c6000935093505050612842565b60008690506000816001600160a01b0316639f5ef2726040518163ffffffff1660e01b8152600401602060405180830381865afa15801561260c573d6000803e3d6000fd5b505050506040513d601f19601f8201168201806040525081019061263091906157ca565b6001600160a01b031663182df0f56040518163ffffffff1660e01b8152600401602060405180830381865afa15801561266d573d6000803e3d6000fd5b505050506040513d601f19601f8201168201806040525081019061269191906157e7565b905060006126ab6040518060200160405280600081525090565b6040805160208101909152600081526040805160208101909152600081526000866001600160a01b0316636752e7026040518163ffffffff1660e01b8152600401602060405180830381865afa158015612709573d6000803e3d6000fd5b505050506040513d601f19601f8201168201806040525081019061272d91906157e7565b90506000876001600160a01b031663be99f1196040518163ffffffff1660e01b8152600401602060405180830381865afa15801561276f573d6000803e3d6000fd5b505050506040513d601f19601f8201168201806040525081019061279391906157e7565b905060006127d66127c260405180602001604052806007548152506040518060200160405280878152506149d4565b6040518060200160405280858152506149d4565b90506127f08160405180602001604052808e815250614a09565b955061281860405180602001604052808c81525060405180602001604052808b815250614a09565b94506128248686614a48565b9350612830848f614361565b60009d509b5050505050505050505050505b935093915050565b601b81815481106117a857600080fd5b6000612864613ea9565b6128745761106e60016014613efb565b60005b84811015612af957600086868381811061289357612893615833565b90506020020160208101906128a891906152bd565b90508484838181106128bc576128bc615833565b90506020020160208101906128d1919061553a565b15612989576001600160a01b03811660009081526012602052604090205460ff16612984576001600160a01b0381166000818152601260205260408120805460ff19166001908117909155601380548083018255928190527f66de8ffda797e3de9c05e8fc57b3bf0ec28a930d40b0d285d93c06501cf6a09090920180546001600160a01b0319169093179092555461296a9190615938565b6001600160a01b0382166000908152601460205260409020555b612ae6565b6001600160a01b03811660009081526012602052604090205460ff1615612ae657601380546129ba90600190615938565b815481106129ca576129ca615833565b60009182526020808320909101546001600160a01b0384811684526014909252604090922054601380549290931692918110612a0857612a08615833565b9060005260206000200160006101000a8154816001600160a01b0302191690836001600160a01b031602179055506013805480612a4757612a4761594f565b60008281526020808220830160001990810180546001600160a01b03191690559092019092556001600160a01b038316825260149081905260408220546013805491939184908110612a9b57612a9b615833565b60009182526020808320909101546001600160a01b039081168452838201949094526040928301822094909455918416825260148352808220829055601290925220805460ff191690555b5080612af18161585f565b915050612877565b506000611082565b336000908152600a602052604090205460ff16612b605760405162461bcd60e51b815260206004820181905260248201527f21436f6d7074726f6c6c65723a5f6265666f72654e6f6e5265656e7472616e746044820152606401610450565b601c5460ff16612b9f5760405162461bcd60e51b815260206004820152600a602482015269085c99595b9d195c995960b21b6044820152606401610450565b601c805460ff19169055565b601554600090600160b81b900460ff1615612bf85760405162461bcd60e51b815260206004820152600d60248201526c085cd95a5e994e9c185d5cd959609a1b6044820152606401610450565b6001600160a01b0386166000908152600a602052604090205460ff161580612c3957506001600160a01b0385166000908152600a602052604090205460ff16155b15612c45576008611a12565b73d265ff7e5487e9dd556a4bb900cca6d087eb3ad2301415612c68576004611a12565b846001600160a01b0316635fe3b5676040518163ffffffff1660e01b8152600401602060405180830381865afa158015612ca6573d6000803e3d6000fd5b505050506040513d601f19601f82011682018060405250810190612cca91906157ca565b6001600160a01b0316866001600160a01b0316635fe3b5676040518163ffffffff1660e01b8152600401602060405180830381865afa158015612d11573d6000803e3d6000fd5b505050506040513d601f19601f82011682018060405250810190612d3591906157ca565b6001600160a01b031614612d4a576002611a12565b6123e986848661478e565b601381815481106117a857600080fd5b6000612d6f613ea9565b612d7f576110a760016006613efb565b60185460ff1615158215151415612d975760006110a7565b6018805460ff19168315159081179091556040519081527faa40ee94af55250363b91641a0a615c47690148901505f89b01dafae03fff28190602001612011565b6001600160a01b03831660009081526017602052604081205460ff1615612e325760405162461bcd60e51b815260206004820152600e60248201526d08589bdc9c9bddce9c185d5cd95960921b6044820152606401610450565b6001600160a01b0384166000908152600a602052604090205460ff16612e59576008611222565b6001600160a01b038085166000908152600a60209081526040808320938716835260029093019052205460ff16612f4857336001600160a01b03851614612ecc5760405162461bcd60e51b815260206004820152600760248201526610b1ba37b5b2b760c91b6044820152606401610450565b6000612ed83385614839565b90506000816014811115612eee57612eee615800565b14612f0d57806014811115612f0557612f05615800565b915050610b28565b6001600160a01b038086166000908152600a60209081526040808320938816835260029093019052205460ff16612f4657612f46615965565b505b60055460405163fc57d4df60e01b81526001600160a01b0386811660048301529091169063fc57d4df90602401602060405180830381865afa158015612f92573d6000803e3d6000fd5b505050506040513d601f19601f82011682018060405250810190612fb691906157e7565b612fc157600c611222565b60115460ff168015612fec57506001600160a01b03831660009081526012602052604090205460ff16155b15612ff8576011611222565b6001600160a01b03841660009081526019602052604090205480156130f6576000856001600160a01b03166347bd37186040518163ffffffff1660e01b8152600401602060405180830381865afa158015613057573d6000803e3d6000fd5b505050506040513d601f19601f8201168201806040525081019061307b91906157e7565b905060008061308a8387613ffc565b909250905060008260038111156130a3576130a3615800565b146130b557600a945050505050610b28565b8381106130f25760405162461bcd60e51b815260206004820152600b60248201526a021626f72726f773a6361760ac1b6044820152606401610450565b5050505b6131008585613e01565b60008061311086886000886137a9565b9193509091506000905082601481111561312c5761312c615800565b1461314d5781601481111561314357613143615800565b9350505050610b28565b801561315a576004613143565b6000979650505050505050565b6009602052816000526040600020818154811061318357600080fd5b6000918252602090912001546001600160a01b03169150829050565b60006131a9613ea9565b6131c0576131b960016009613efb565b90506110a7565b6001600160a01b0383166000908152600a60205260409020805460ff166131f5576131ed6008600a613efb565b9150506110a7565b60408051602080820183528582528251908101909252670c7d713b49da000082529061322381835190511090565b1561323e576132346006600b613efb565b93505050506110a7565b84158015906132b8575060055460405163fc57d4df60e01b81526001600160a01b0388811660048301529091169063fc57d4df90602401602060405180830381865afa158015613292573d6000803e3d6000fd5b505050506040513d601f19601f820116820180604052508101906132b691906157e7565b155b156132c857613234600c80613efb565b60018301805490869055604080516001600160a01b0389168152602081018390529081018790527f70483e6592cd5182d45ac970e05bc62cdcc90e9d8ef2c2dbe686cf383bcd7fc59060600160405180910390a16000979650505050505050565b6000806133378585856146d6565b9050801561154e579050610b28565b6040516361bfb47160e11b815233600482015260009082908290819081906001600160a01b0385169063c37f68e290602401608060405180830381865afa158015613395573d6000803e3d6000fd5b505050506040513d601f19601f820116820180604052508101906133b9919061597b565b50925092509250826000146133fe5760405162461bcd60e51b815260206004820152600b60248201526a08595e1a5d13585c9ad95d60aa1b6044820152606401610450565b80156134105761115d600b6003613efb565b600061341d8733856146d6565b9050801561343d57613432600d600483614a82565b979650505050505050565b6001600160a01b0385166000908152600a60209081526040808320338452600281019092529091205460ff1661347b57600098975050505050505050565b3360009081526002820160209081526040808320805460ff1916905560098252808320805482518185028101850190935280835291929091908301828280156134ed57602002820191906000526020600020905b81546001600160a01b031681526001909101906020018083116134cf575b5050835193945083925060009150505b8281101561355257896001600160a01b031684828151811061352157613521615833565b60200260200101516001600160a01b0316141561354057809150613552565b8061354a8161585f565b9150506134fd565b5081811061356257613562615965565b3360009081526009602052604090208054819061358190600190615938565b8154811061359157613591615833565b9060005260206000200160009054906101000a90046001600160a01b03168183815481106135c1576135c1615833565b9060005260206000200160006101000a8154816001600160a01b0302191690836001600160a01b03160217905550808054806135ff576135ff61594f565b600082815260209020810160001990810180546001600160a01b0319169055019055805461375657600d805461363790600190615938565b8154811061364757613647615833565b6000918252602080832090910154338352600e909152604090912054600d80546001600160a01b0390931692909190811061368457613684615833565b9060005260206000200160006101000a8154816001600160a01b0302191690836001600160a01b03160217905550600d8054806136c3576136c361594f565b60008281526020808220830160001990810180546001600160a01b0319169055909201909255338252600e908190526040822054600d80549193918490811061370e5761370e615833565b60009182526020808320909101546001600160a01b03168352828101939093526040918201812093909355338352600e8252808320839055600c9091529020805460ff191690555b604080516001600160a01b038c1681523360208201527fe699a64c18b07ac5b7301aa273f36a2287239eb9501d81950672794afba29a0d910160405180910390a160009c9b505050505050505050505050565b60008060006137b66151ed565b60006001600160a01b038816156138a457876001600160a01b03166347bd37186040518163ffffffff1660e01b8152600401602060405180830381865afa158015613805573d6000803e3d6000fd5b505050506040513d601f19601f8201168201806040525081019061382991906157e7565b61016083015260055460405163fc57d4df60e01b81526001600160a01b038a811660048301529091169063fc57d4df90602401602060405180830381865afa158015613879573d6000803e3d6000fd5b505050506040513d601f19601f8201168201806040525081019061389d91906157e7565b6101808301525b6001600160a01b03891660009081526009602090815260408083208054825181850281018501909352808352919290919083018282801561390e57602002820191906000526020600020905b81546001600160a01b031681526001909101906020018083116138f0575b5050505050905060005b8151811015613c9257600082828151811061393557613935615833565b60209081029190910101516040516361bfb47160e11b81526001600160a01b038e811660048301529192509082169063c37f68e290602401608060405180830381865afa15801561398a573d6000803e3d6000fd5b505050506040513d601f19601f820116820180604052508101906139ae919061597b565b608089015260608801526040870152935083156139da57600e600080975097509750505050505061119d565b60408051602080820183526001600160a01b038481166000818152600a845285902060010154845260c08a0193909352835191820184526080890151825260e0890191909152600554925163fc57d4df60e01b81526004810192909252919091169063fc57d4df90602401602060405180830381865afa158015613a62573d6000803e3d6000fd5b505050506040513d601f19601f82011682018060405250810190613a8691906157e7565b60a08601819052613aa657600c600080975097509750505050505061119d565b604080516020810190915260a0860151815261010086015260c085015160e0860151613ae091613ad591614a09565b866101000151614a09565b6101208601526000196001600160a01b03828116908d16141580613b04575060008b115b15613c1a576001600160a01b038c1615613be1576001600160a01b03808d166000908152601f602090815260408083209386168352929052205460ff168015613b505760009150613bdf565b6001600160a01b03808e166000908152601e6020908152604080832093871683529290522054610140880181905215613bdf5786610160015187610140015110613bda576000876101600151886101400151613bac9190615938565b9050670de0b6b3a764000088610180015182613bc891906159b1565b613bd291906159d0565b925050613bdf565b600091505b505b6000613bf68761012001518860400151614361565b905081811115613c035750805b8087600001818151613c1591906159f2565b905250505b613c3286610100015187606001518860200151614afa565b60208701526001600160a01b03828116908d161415613c7d57613c5f8661012001518c8860200151614afa565b60208701819052610100870151613c77918c90614afa565b60208701525b50508080613c8a9061585f565b915050613918565b50602083015183511115613cc35760208301518351600091613cb391615938565b600095509550955050505061119d565b60008084600001518560200151613cda9190615938565b95509550955050505061119d565b600083613cf757506000610b28565b60055460405163fc57d4df60e01b81526001600160a01b038581166004830152600092169063fc57d4df90602401602060405180830381865afa158015613d42573d6000803e3d6000fd5b505050506040513d601f19601f82011682018060405250810190613d6691906157e7565b905060008111613da25760405162461bcd60e51b8152602060048201526007602482015266216f7261636c6560c81b6044820152606401610450565b82613de4576001600160a01b0384166000908152600a6020526040902060010154670de0b6b3a7640000613dd683836159b1565b613de091906159d0565b9150505b80613df786670de0b6b3a76400006159b1565b61110f91906159d0565b60005b601b54811015613ea457601b8181548110613e2157613e21615833565b600091825260209091200154604051631cdc2c5d60e31b81526001600160a01b03858116600483015284811660248301529091169063e6e162e890604401600060405180830381600087803b158015613e7957600080fd5b505af1158015613e8d573d6000803e3d6000fd5b505050508080613e9c9061585f565b915050613e04565b505050565b6001546000906001600160a01b031633148015613ecf5750600254600160a81b900460ff165b80611c3f57506000546001600160a01b031633148015611c3f575050600254600160a01b900460ff1690565b60007f45b96fe442630264581b197e84bbada861235052c5a1aadfff9ea4e40a969aa0836014811115613f3057613f30615800565b83601a811115613f4257613f42615800565b60408051928352602083019190915260009082015260600160405180910390a1826014811115610b2857610b28615800565b6000610b288383604051806040016040528060118152602001706164646974696f6e206f766572666c6f7760781b815250614b1b565b600080600080613fba8787613ffc565b90925090506000826003811115613fd357613fd3615800565b14613fe45750915060009050612842565b613fee8186614b55565b935093505050935093915050565b6000808383018481106140145760009250905061401e565b6002600092509250505b9250929050565b60005b601b54811015613ea457601b818154811061404557614045615833565b60009182526020909120015460405162e48b0f60e51b81526001600160a01b038581166004830152848116602483015290911690631c9161e090604401600060405180830381600087803b15801561409c57600080fd5b505af11580156140b0573d6000803e3d6000fd5b5050505080806140bf9061585f565b915050614028565b6060600080516020615b3f83398151915260020180548060200260200160405190810160405280929190818152602001828054801561412f57602002820191906000526020600020905b81546001600160a01b03168152600190910190602001808311614111575b5050505050905090565b600080516020615b3f83398151915261415182614b80565b60005b600282015460ff82161015613ea457826001600160a01b0316826002018260ff168154811061418557614185615833565b6000918252602090912001546001600160a01b03161415614257576002820180546141b290600190615938565b815481106141c2576141c2615833565b6000918252602090912001546002830180546001600160a01b039092169160ff84169081106141f3576141f3615833565b9060005260206000200160006101000a8154816001600160a01b0302191690836001600160a01b03160217905550816002018054806142345761423461594f565b600082815260209020810160001990810180546001600160a01b03191690550190555b8061426181615a0a565b915050614154565b600080516020615b3f83398151915260005b600282015460ff8216101561432157826001600160a01b0316826002018260ff16815481106142ac576142ac615833565b6000918252602090912001546001600160a01b0316141561430f5760405162461bcd60e51b815260206004820152601760248201527f657874656e73696f6e20616c72656164792061646465640000000000000000006044820152606401610450565b8061431981615a0a565b91505061427b565b5061432b82614e0d565b6002018054600181018255600091825260209091200180546001600160a01b0319166001600160a01b0392909216919091179055565b60008061436e8484614ffe565b905061108581615026565b600080600080614389868661503e565b909250905060008260038111156143a2576143a2615800565b146143b3575091506000905061401e565b60006143be82615026565b9350935050509250929050565b6001600160a01b038116156143e3576143e381614139565b6119b282614269565b60006143f6613ea9565b614406576110a760016016613efb565b6001600160a01b0382166000908152600a602052604090205460ff1615614433576110a760096015613efb565b816001600160a01b031663fe9c44ae6040518163ffffffff1660e01b81526004016020604051808303816000875af1158015614473573d6000803e3d6000fd5b505050506040513d601f19601f820116820180604052508101906144979190615816565b6144d65760405162461bcd60e51b815260206004820152601060248201526f10b6b0b935b2ba1d34b9b1ba37b5b2b760811b6044820152606401610450565b306001600160a01b0316826001600160a01b0316635fe3b5676040518163ffffffff1660e01b8152600401602060405180830381865afa15801561451e573d6000803e3d6000fd5b505050506040513d601f19601f8201168201806040525081019061454291906157ca565b6001600160a01b0316146145875760405162461bcd60e51b815260206004820152600c60248201526b10b1b7b6b83a3937b63632b960a11b6044820152606401610450565b6000826001600160a01b0316636f307dc36040518163ffffffff1660e01b8152600401602060405180830381865afa1580156145c7573d6000803e3d6000fd5b505050506040513d601f19601f820116820180604052508101906145eb91906157ca565b6001600160a01b03808216600090815260106020526040902054919250161561461a57610b2860096015613efb565b6001600160a01b038381166000818152600a60209081526040808320805460ff191660019081178255808201859055600b805491820190557f0175b7a638427703f0dbe7bb9bbf987a2551717b34e79f33b5b1008d1fa01db90180546001600160a01b0319908116871790915595871684526010835292819020805490951684179094559251918252917fcf583bb0c569eb967f806b11601c4cb93c10310485c67add5f8362c2f212321f910160405180910390a16000611085565b6001600160a01b0383166000908152600a602052604081205460ff166146fd576008611222565b6001600160a01b038085166000908152600a60209081526040808320938716835260029093019052205460ff16614735576000611222565b60008061474585878660006137a9565b9193509091506000905082601481111561476157614761615800565b146147815781601481111561477857614778615800565b92505050610b28565b80156123e9576004614778565b60005b601b5481101561179257601b81815481106147ae576147ae615833565b600091825260209091200154604051634e081c9560e01b81526001600160a01b0386811660048301528581166024830152848116604483015290911690634e081c9590606401600060405180830381600087803b15801561480e57600080fd5b505af1158015614822573d6000803e3d6000fd5b5050505080806148319061585f565b915050614791565b6001600160a01b0382166000908152600a60205260408120805460ff166148645760089150506110a7565b6001600160a01b038316600090815260028201602052604090205460ff161515600114156148965760009150506110a7565b6001600160a01b03838116600081815260028401602090815260408083208054600160ff199091168117909155600983528184208054918201815584528284200180546001600160a01b031916958a1695909517909455918152600c909152205460ff1661498757600d8054600180820183557fd7b6990105719101dabeb77144f2a3385c8033acd3af97e9423a695e81ad1eb590910180546001600160a01b0319166001600160a01b0387169081179091556000908152600c60205260409020805460ff191682179055905461496d9190615938565b6001600160a01b0384166000908152600e60205260409020555b604080516001600160a01b038087168252851660208201527f3ab23ab0d51cccc0c3085aec51f99228625aa1a922b3a8ca89a26b0f2027a1a5910160405180910390a15060009392505050565b6040805160208101909152600081526040518060200160405280614a0085600001518560000151613f74565b90529392505050565b6040805160208101909152600081526040518060200160405280670de0b6b3a7640000614a3e866000015186600001516150ba565b614a0091906159d0565b6040805160208101909152600081526040518060200160405280614a00614a7b8660000151670de0b6b3a76400006150ba565b85516150fc565b60007f45b96fe442630264581b197e84bbada861235052c5a1aadfff9ea4e40a969aa0846014811115614ab757614ab7615800565b84601a811115614ac957614ac9615800565b604080519283526020830191909152810184905260600160405180910390a183601481111561108557611085615800565b600080614b078585614ffe565b905061110f614b1582615026565b84613f74565b600080614b2884866159f2565b90508285821015614b4c5760405162461bcd60e51b81526004016104509190615a2a565b50949350505050565b600080838311614b74576000614b6b8486615938565b9150915061401e565b5060039050600061401e565b6000816001600160a01b03166389f8132e6040518163ffffffff1660e01b8152600401600060405180830381865afa158015614bc0573d6000803e3d6000fd5b505050506040513d6000823e601f3d908101601f19168201604052614be89190810190615a7f565b9050600080516020615b3f83398151915260005b82518161ffff161015611792576000838261ffff1681518110614c2157614c21615833565b6020908102919091018101516001600160e01b031981166000908152918590526040909120549091506001600160a01b03868116911614614c6457614c64615965565b6001600160e01b0319811660009081526020849052604090205460018085018054600160a01b90930461ffff16929091614c9d91615938565b81548110614cad57614cad615833565b90600052602060002090600891828204019190066004029054906101000a900460e01b846001018261ffff1681548110614ce957614ce9615833565b90600052602060002090600891828204019190066004026101000a81548163ffffffff021916908360e01c021790555080846000016000866001018461ffff1681548110614d3957614d39615833565b6000918252602080832060088304015460079092166004026101000a90910460e01b6001600160e01b03191683528201929092526040019020805461ffff60a01b1916600160a01b61ffff939093169290920291909117905560018401805480614da557614da561594f565b60008281526020808220600860001990940193840401805463ffffffff600460078716026101000a0219169055919092556001600160e01b0319909316815291849052506040902080546001600160b01b031916905580614e0581615b1c565b915050614bfc565b6000816001600160a01b03166389f8132e6040518163ffffffff1660e01b8152600401600060405180830381865afa158015614e4d573d6000803e3d6000fd5b505050506040513d6000823e601f3d908101601f19168201604052614e759190810190615a7f565b7fc8fcad8db84d3cc18b4c41d551ea0ee66dd599cde068d998e57d5e09332c131d54909150600080516020615b3f8339815191529060005b8351811015614ff7576000848281518110614eca57614eca615833565b6020908102919091018101516001600160e01b031981166000908152918690526040909120549091506001600160a01b03168015614f3657604051632c18df3360e01b81526001600160e01b0319831660048201526001600160a01b0382166024820152604401610450565b6040805180820182526001600160a01b03808a16825261ffff80881660208085019182526001600160e01b0319881660009081528b8252958620945185549251909316600160a01b026001600160b01b0319909216929093169190911717909155600180880180549182018155835291206008820401805460e085901c60046007909416939093026101000a92830263ffffffff909302191691909117905583614fdf81615b1c565b94505050508080614fef9061585f565b915050614ead565b5050505050565b6040805160208101909152600081526040518060200160405280614a008560000151856150ba565b80516000906110a790670de0b6b3a7640000906159d0565b60006150566040518060200160405280600081525090565b60008061506786600001518661512f565b9092509050600082600381111561508057615080615800565b1461509f5750604080516020810190915260008152909250905061401e565b60408051602081019091529081526000969095509350505050565b6000610b2883836040518060400160405280601781526020017f6d756c7469706c69636174696f6e206f766572666c6f7700000000000000000081525061516e565b6000610b2883836040518060400160405280600e81526020016d646976696465206279207a65726f60901b8152506151c1565b600080836151425750600090508061401e565b8383028361515086836159d0565b146151635760026000925092505061401e565b60009250905061401e565b600083158061517b575082155b1561518857506000610b28565b600061519484866159b1565b9050836151a186836159d0565b148390614b4c5760405162461bcd60e51b81526004016104509190615a2a565b600081836151e25760405162461bcd60e51b81526004016104509190615a2a565b5061108583856159d0565b604051806101a001604052806000815260200160008152602001600081526020016000815260200160008152602001600081526020016152396040518060200160405280600081525090565b81526020016152546040518060200160405280600081525090565b815260200161526f6040518060200160405280600081525090565b815260200161528a6040518060200160405280600081525090565b81526020016000815260200160008152602001600081525090565b6001600160a01b03811681146152ba57600080fd5b50565b6000602082840312156152cf57600080fd5b8135610b28816152a5565b80151581146152ba57600080fd5b6000806000606084860312156152fd57600080fd5b8335615308816152a5565b92506020840135615318816152a5565b91506040840135615328816152da565b809150509250925092565b6000806040838503121561534657600080fd5b8235615351816152a5565b91506020830135615361816152a5565b809150509250929050565b6000806000806080858703121561538257600080fd5b843561538d816152a5565b9350602085013561539d816152a5565b925060408501356153ad816152a5565b9396929550929360600135925050565b6000602082840312156153cf57600080fd5b5035919050565b600080600080608085870312156153ec57600080fd5b84356153f7816152a5565b93506020850135615407816152a5565b93969395505050506040820135916060013590565b60008060006060848603121561543157600080fd5b833561543c816152a5565b9250602084013561544c816152a5565b929592945050506040919091013590565b600080600080600060a0868803121561547557600080fd5b8535615480816152a5565b94506020860135615490816152a5565b935060408601356154a0816152a5565b925060608601356154b0816152a5565b949793965091946080013592915050565b6020808252825182820181905260009190848201906040850190845b818110156155025783516001600160a01b0316835292840192918401916001016154dd565b50909695505050505050565b6000806040838503121561552157600080fd5b823561552c816152a5565b946020939093013593505050565b60006020828403121561554c57600080fd5b8135610b28816152da565b6000806000806060858703121561556d57600080fd5b8435615578816152da565b9350602085013567ffffffffffffffff8082111561559557600080fd5b818701915087601f8301126155a957600080fd5b8135818111156155b857600080fd5b8860208285010111156155ca57600080fd5b95986020929092019750949560400135945092505050565b634e487b7160e01b600052604160045260246000fd5b604051601f8201601f1916810167ffffffffffffffff81118282101715615621576156216155e2565b604052919050565b600067ffffffffffffffff821115615643576156436155e2565b5060051b60200190565b6000602080838503121561566057600080fd5b823567ffffffffffffffff81111561567757600080fd5b8301601f8101851361568857600080fd5b803561569b61569682615629565b6155f8565b81815260059190911b820183019083810190878311156156ba57600080fd5b928401925b828410156134325783356156d2816152a5565b825292840192908401906156bf565b6020808252825182820181905260009190848201906040850190845b81811015615502578351835292840192918401916001016156fd565b60008083601f84011261572b57600080fd5b50813567ffffffffffffffff81111561574357600080fd5b6020830191508360208260051b850101111561401e57600080fd5b6000806000806040858703121561577457600080fd5b843567ffffffffffffffff8082111561578c57600080fd5b61579888838901615719565b909650945060208701359150808211156157b157600080fd5b506157be87828801615719565b95989497509550505050565b6000602082840312156157dc57600080fd5b8151610b28816152a5565b6000602082840312156157f957600080fd5b5051919050565b634e487b7160e01b600052602160045260246000fd5b60006020828403121561582857600080fd5b8151610b28816152da565b634e487b7160e01b600052603260045260246000fd5b634e487b7160e01b600052601160045260246000fd5b600060001982141561587357615873615849565b5060010190565b6000602080838503121561588d57600080fd5b825167ffffffffffffffff8111156158a457600080fd5b8301601f810185136158b557600080fd5b80516158c361569682615629565b81815260059190911b820183019083810190878311156158e257600080fd5b928401925b828410156134325783516158fa816152a5565b825292840192908401906158e7565b60208152816020820152818360408301376000818301604090810191909152601f909201601f19160101919050565b60008282101561594a5761594a615849565b500390565b634e487b7160e01b600052603160045260246000fd5b634e487b7160e01b600052600160045260246000fd5b6000806000806080858703121561599157600080fd5b505082516020840151604085015160609095015191969095509092509050565b60008160001904831182151516156159cb576159cb615849565b500290565b6000826159ed57634e487b7160e01b600052601260045260246000fd5b500490565b60008219821115615a0557615a05615849565b500190565b600060ff821660ff811415615a2157615a21615849565b60010192915050565b600060208083528351808285015260005b81811015615a5757858101830151858201604001528201615a3b565b81811115615a69576000604083870101525b50601f01601f1916929092016040019392505050565b60006020808385031215615a9257600080fd5b825167ffffffffffffffff811115615aa957600080fd5b8301601f81018513615aba57600080fd5b8051615ac861569682615629565b81815260059190911b82018301908381019087831115615ae757600080fd5b928401925b828410156134325783516001600160e01b031981168114615b0d5760008081fd5b82529284019290840190615aec565b600061ffff80831681811415615b3457615b34615849565b600101939250505056fec8fcad8db84d3cc18b4c41d551ea0ee66dd599cde068d998e57d5e09332c131ca164736f6c634300080a000a",
    "linkReferences": {}
  },
  "methodIdentifiers": {
    "_addRewardsDistributor(address)": "b9b5b153",
    "_afterNonReentrant()": "632e5142",
    "_become(address)": "1d504dc6",
    "_becomeImplementation()": "5d72de62",
    "_beforeNonReentrant()": "c90c20b1",
    "_borrowGuardianPaused()": "e6653f3d",
    "_deployMarket(bool,bytes,uint256)": "aba35b98",
    "_listExtensions()": "6333d001",
    "_mintGuardianPaused()": "3c94786f",
    "_registerExtension(address,address)": "89cd9855",
    "_setCloseFactor(uint256)": "317b0b77",
    "_setCollateralFactor(address,uint256)": "e4028eee",
    "_setLiquidationIncentive(uint256)": "4fd42e17",
    "_setPriceOracle(address)": "55ee1fe1",
    "_setWhitelistEnforcement(bool)": "952adf5a",
    "_setWhitelistStatuses(address[],bool[])": "c8c9c975",
    "_toggleAutoImplementations(bool)": "d5333166",
    "accountAssets(address,uint256)": "dce15449",
    "admin()": "f851a440",
    "adminHasRights()": "0a755ec2",
    "allBorrowers(uint256)": "7515bafa",
    "allMarkets(uint256)": "52d84d1e",
    "asComptrollerFirstExtension()": "1ace5957",
    "autoImplementation()": "dd5cd22c",
    "borrowAllowed(address,address,uint256)": "da3d454c",
    "borrowCapForAssetForCollateral(address,address)": "55c6b6b9",
    "borrowCapGuardian()": "21af4569",
    "borrowCaps(address)": "4a584432",
    "borrowGuardianPaused(address)": "6d154ea5",
    "borrowWithinLimits(address,uint256)": "779b2294",
    "borrowingAgainstCollateralBlacklist(address,address)": "1c819e43",
    "cTokensByUnderlying(address)": "31ff47fa",
    "checkMembership(address,address)": "929fe9a1",
    "closeFactorMantissa()": "e8755446",
    "comptrollerImplementation()": "bb82aa5e",
    "enforceWhitelist()": "b0957210",
    "enterMarkets(address[])": "c2998238",
    "exitMarket(address)": "ede4edd0",
    "fuseAdmin()": "15761d51",
    "fuseAdminHasRights()": "2f1069ba",
    "getAccountLiquidity(address)": "5ec88c79",
    "getAssetsIn(address)": "abfceffc",
    "getHypotheticalAccountLiquidity(address,address,uint256,uint256)": "4e79238f",
    "getMaxRedeemOrBorrow(address,address,bool)": "1976828e",
    "isComptroller()": "007e3dd2",
    "isDeprecated(address)": "94543c15",
    "liquidateBorrowAllowed(address,address,address,address,uint256)": "5fc7e71e",
    "liquidateCalculateSeizeTokens(address,address,uint256)": "c488847b",
    "liquidationIncentiveMantissa()": "4ada90af",
    "markets(address)": "8e8f294b",
    "mintAllowed(address,address,uint256)": "4ef4c3e1",
    "mintGuardianPaused(address)": "731f0c2b",
    "nonAccruingRewardsDistributors(uint256)": "6bd02b8a",
    "oracle()": "7dc0d1d0",
    "pauseGuardian()": "24a3d622",
    "pendingAdmin()": "26782247",
    "pendingComptrollerImplementation()": "dcfbc0c7",
    "redeemAllowed(address,address,uint256)": "eabe7d91",
    "redeemVerify(address,address,uint256,uint256)": "51dff989",
    "repayBorrowAllowed(address,address,address,uint256)": "24008a62",
    "rewardsDistributors(uint256)": "c6c5b0dd",
    "seizeAllowed(address,address,address,address,uint256)": "d02f7351",
    "seizeGuardianPaused()": "ac0b0bb7",
    "suppliers(address)": "16dc15fe",
    "supplyCaps(address)": "02c3bcbb",
    "transferAllowed(address,address,address,uint256)": "bdcdc258",
    "transferGuardianPaused()": "87f76303",
    "whitelist(address)": "9b19251a",
    "whitelistArray(uint256)": "d251fefc"
  }
}