{
  "address": "0x4F3d62b241b4D2D6a480374D261da1b4BBad1d57",
  "abi": [
    {
      "anonymous": false,
      "inputs": [
        {
          "indexed": false,
          "internalType": "uint256",
          "name": "cashPrior",
          "type": "uint256"
        },
        {
          "indexed": false,
          "internalType": "uint256",
          "name": "interestAccumulated",
          "type": "uint256"
        },
        {
          "indexed": false,
          "internalType": "uint256",
          "name": "borrowIndex",
          "type": "uint256"
        },
        {
          "indexed": false,
          "internalType": "uint256",
          "name": "totalBorrows",
          "type": "uint256"
        }
      ],
      "name": "AccrueInterest",
      "type": "event"
    },
    {
      "anonymous": false,
      "inputs": [
        {
          "indexed": true,
          "internalType": "address",
          "name": "owner",
          "type": "address"
        },
        {
          "indexed": true,
          "internalType": "address",
          "name": "spender",
          "type": "address"
        },
        {
          "indexed": false,
          "internalType": "uint256",
          "name": "amount",
          "type": "uint256"
        }
      ],
      "name": "Approval",
      "type": "event"
    },
    {
      "anonymous": false,
      "inputs": [
        {
          "indexed": false,
          "internalType": "uint256",
          "name": "error",
          "type": "uint256"
        },
        {
          "indexed": false,
          "internalType": "uint256",
          "name": "info",
          "type": "uint256"
        },
        {
          "indexed": false,
          "internalType": "uint256",
          "name": "detail",
          "type": "uint256"
        }
      ],
      "name": "Failure",
      "type": "event"
    },
    {
      "anonymous": false,
      "inputs": [
        {
          "indexed": false,
          "internalType": "uint256",
          "name": "oldAdminFeeMantissa",
          "type": "uint256"
        },
        {
          "indexed": false,
          "internalType": "uint256",
          "name": "newAdminFeeMantissa",
          "type": "uint256"
        }
      ],
      "name": "NewAdminFee",
      "type": "event"
    },
    {
      "anonymous": false,
      "inputs": [
        {
          "indexed": false,
          "internalType": "uint256",
          "name": "oldFuseFeeMantissa",
          "type": "uint256"
        },
        {
          "indexed": false,
          "internalType": "uint256",
          "name": "newFuseFeeMantissa",
          "type": "uint256"
        }
      ],
      "name": "NewFuseFee",
      "type": "event"
    },
    {
      "anonymous": false,
      "inputs": [
        {
          "indexed": false,
          "internalType": "contract InterestRateModel",
          "name": "oldInterestRateModel",
          "type": "address"
        },
        {
          "indexed": false,
          "internalType": "contract InterestRateModel",
          "name": "newInterestRateModel",
          "type": "address"
        }
      ],
      "name": "NewMarketInterestRateModel",
      "type": "event"
    },
    {
      "anonymous": false,
      "inputs": [
        {
          "indexed": false,
          "internalType": "uint256",
          "name": "oldReserveFactorMantissa",
          "type": "uint256"
        },
        {
          "indexed": false,
          "internalType": "uint256",
          "name": "newReserveFactorMantissa",
          "type": "uint256"
        }
      ],
      "name": "NewReserveFactor",
      "type": "event"
    },
    {
      "anonymous": false,
      "inputs": [
        {
          "indexed": true,
          "internalType": "address",
          "name": "from",
          "type": "address"
        },
        {
          "indexed": true,
          "internalType": "address",
          "name": "to",
          "type": "address"
        },
        {
          "indexed": false,
          "internalType": "uint256",
          "name": "amount",
          "type": "uint256"
        }
      ],
      "name": "Transfer",
      "type": "event"
    },
    {
      "inputs": [],
      "name": "_getExtensionFunctions",
      "outputs": [
        {
          "internalType": "bytes4[]",
          "name": "",
          "type": "bytes4[]"
        }
      ],
      "stateMutability": "view",
      "type": "function"
    },
    {
      "inputs": [
        {
          "internalType": "uint256",
          "name": "newAdminFeeMantissa",
          "type": "uint256"
        }
      ],
      "name": "_setAdminFee",
      "outputs": [
        {
          "internalType": "uint256",
          "name": "",
          "type": "uint256"
        }
      ],
      "stateMutability": "nonpayable",
      "type": "function"
    },
    {
      "inputs": [
        {
          "internalType": "contract InterestRateModel",
          "name": "newInterestRateModel",
          "type": "address"
        }
      ],
      "name": "_setInterestRateModel",
      "outputs": [
        {
          "internalType": "uint256",
          "name": "",
          "type": "uint256"
        }
      ],
      "stateMutability": "nonpayable",
      "type": "function"
    },
    {
      "inputs": [
        {
          "internalType": "string",
          "name": "_name",
          "type": "string"
        },
        {
          "internalType": "string",
          "name": "_symbol",
          "type": "string"
        }
      ],
      "name": "_setNameAndSymbol",
      "outputs": [],
      "stateMutability": "nonpayable",
      "type": "function"
    },
    {
      "inputs": [
        {
          "internalType": "uint256",
          "name": "newReserveFactorMantissa",
          "type": "uint256"
        }
      ],
      "name": "_setReserveFactor",
      "outputs": [
        {
          "internalType": "uint256",
          "name": "",
          "type": "uint256"
        }
      ],
      "stateMutability": "nonpayable",
      "type": "function"
    },
    {
      "inputs": [],
      "name": "accrualBlockNumber",
      "outputs": [
        {
          "internalType": "uint256",
          "name": "",
          "type": "uint256"
        }
      ],
      "stateMutability": "view",
      "type": "function"
    },
    {
      "inputs": [],
      "name": "accrueInterest",
      "outputs": [
        {
          "internalType": "uint256",
          "name": "",
          "type": "uint256"
        }
      ],
      "stateMutability": "nonpayable",
      "type": "function"
    },
    {
      "inputs": [],
      "name": "adminFeeMantissa",
      "outputs": [
        {
          "internalType": "uint256",
          "name": "",
          "type": "uint256"
        }
      ],
      "stateMutability": "view",
      "type": "function"
    },
    {
      "inputs": [
        {
          "internalType": "address",
          "name": "owner",
          "type": "address"
        },
        {
          "internalType": "address",
          "name": "spender",
          "type": "address"
        }
      ],
      "name": "allowance",
      "outputs": [
        {
          "internalType": "uint256",
          "name": "",
          "type": "uint256"
        }
      ],
      "stateMutability": "view",
      "type": "function"
    },
    {
      "inputs": [
        {
          "internalType": "address",
          "name": "spender",
          "type": "address"
        },
        {
          "internalType": "uint256",
          "name": "amount",
          "type": "uint256"
        }
      ],
      "name": "approve",
      "outputs": [
        {
          "internalType": "bool",
          "name": "",
          "type": "bool"
        }
      ],
      "stateMutability": "nonpayable",
      "type": "function"
    },
    {
      "inputs": [
        {
          "internalType": "address",
          "name": "owner",
          "type": "address"
        }
      ],
      "name": "balanceOf",
      "outputs": [
        {
          "internalType": "uint256",
          "name": "",
          "type": "uint256"
        }
      ],
      "stateMutability": "view",
      "type": "function"
    },
    {
      "inputs": [
        {
          "internalType": "address",
          "name": "owner",
          "type": "address"
        }
      ],
      "name": "balanceOfUnderlying",
      "outputs": [
        {
          "internalType": "uint256",
          "name": "",
          "type": "uint256"
        }
      ],
      "stateMutability": "nonpayable",
      "type": "function"
    },
    {
      "inputs": [],
      "name": "borrowIndex",
      "outputs": [
        {
          "internalType": "uint256",
          "name": "",
          "type": "uint256"
        }
      ],
      "stateMutability": "view",
      "type": "function"
    },
    {
      "inputs": [],
      "name": "borrowRatePerBlock",
      "outputs": [
        {
          "internalType": "uint256",
          "name": "",
          "type": "uint256"
        }
      ],
      "stateMutability": "view",
      "type": "function"
    },
    {
      "inputs": [],
      "name": "comptroller",
      "outputs": [
        {
          "internalType": "contract ComptrollerInterface",
          "name": "",
          "type": "address"
        }
      ],
      "stateMutability": "view",
      "type": "function"
    },
    {
      "inputs": [],
      "name": "decimals",
      "outputs": [
        {
          "internalType": "uint8",
          "name": "",
          "type": "uint8"
        }
      ],
      "stateMutability": "view",
      "type": "function"
    },
    {
      "inputs": [],
      "name": "exchangeRateCurrent",
      "outputs": [
        {
          "internalType": "uint256",
          "name": "",
          "type": "uint256"
        }
      ],
      "stateMutability": "nonpayable",
      "type": "function"
    },
    {
      "inputs": [],
      "name": "exchangeRateHypothetical",
      "outputs": [
        {
          "internalType": "uint256",
          "name": "",
          "type": "uint256"
        }
      ],
      "stateMutability": "view",
      "type": "function"
    },
    {
      "inputs": [],
      "name": "exchangeRateStored",
      "outputs": [
        {
          "internalType": "uint256",
          "name": "",
          "type": "uint256"
        }
      ],
      "stateMutability": "view",
      "type": "function"
    },
    {
      "inputs": [],
      "name": "feeSeizeShareMantissa",
      "outputs": [
        {
          "internalType": "uint256",
          "name": "",
          "type": "uint256"
        }
      ],
      "stateMutability": "view",
      "type": "function"
    },
    {
      "inputs": [],
      "name": "fuseAdmin",
      "outputs": [
        {
          "internalType": "address payable",
          "name": "",
          "type": "address"
        }
      ],
      "stateMutability": "view",
      "type": "function"
    },
    {
      "inputs": [],
      "name": "fuseFeeMantissa",
      "outputs": [
        {
          "internalType": "uint256",
          "name": "",
          "type": "uint256"
        }
      ],
      "stateMutability": "view",
      "type": "function"
    },
    {
      "inputs": [],
      "name": "implementation",
      "outputs": [
        {
          "internalType": "address",
          "name": "",
          "type": "address"
        }
      ],
      "stateMutability": "view",
      "type": "function"
    },
    {
      "inputs": [],
      "name": "interestRateModel",
      "outputs": [
        {
          "internalType": "contract InterestRateModel",
          "name": "",
          "type": "address"
        }
      ],
      "stateMutability": "view",
      "type": "function"
    },
    {
      "inputs": [
        {
          "internalType": "bytes[]",
          "name": "data",
          "type": "bytes[]"
        }
      ],
      "name": "multicall",
      "outputs": [
        {
          "internalType": "bytes[]",
          "name": "results",
          "type": "bytes[]"
        }
      ],
      "stateMutability": "payable",
      "type": "function"
    },
    {
      "inputs": [],
      "name": "name",
      "outputs": [
        {
          "internalType": "string",
          "name": "",
          "type": "string"
        }
      ],
      "stateMutability": "view",
      "type": "function"
    },
    {
      "inputs": [],
      "name": "protocolSeizeShareMantissa",
      "outputs": [
        {
          "internalType": "uint256",
          "name": "",
          "type": "uint256"
        }
      ],
      "stateMutability": "view",
      "type": "function"
    },
    {
      "inputs": [],
      "name": "reserveFactorMantissa",
      "outputs": [
        {
          "internalType": "uint256",
          "name": "",
          "type": "uint256"
        }
      ],
      "stateMutability": "view",
      "type": "function"
    },
    {
      "inputs": [],
      "name": "supplyRatePerBlock",
      "outputs": [
        {
          "internalType": "uint256",
          "name": "",
          "type": "uint256"
        }
      ],
      "stateMutability": "view",
      "type": "function"
    },
    {
      "inputs": [],
      "name": "symbol",
      "outputs": [
        {
          "internalType": "string",
          "name": "",
          "type": "string"
        }
      ],
      "stateMutability": "view",
      "type": "function"
    },
    {
      "inputs": [],
      "name": "totalAdminFees",
      "outputs": [
        {
          "internalType": "uint256",
          "name": "",
          "type": "uint256"
        }
      ],
      "stateMutability": "view",
      "type": "function"
    },
    {
      "inputs": [],
      "name": "totalBorrows",
      "outputs": [
        {
          "internalType": "uint256",
          "name": "",
          "type": "uint256"
        }
      ],
      "stateMutability": "view",
      "type": "function"
    },
    {
      "inputs": [],
      "name": "totalBorrowsCurrent",
      "outputs": [
        {
          "internalType": "uint256",
          "name": "",
          "type": "uint256"
        }
      ],
      "stateMutability": "nonpayable",
      "type": "function"
    },
    {
      "inputs": [],
      "name": "totalFuseFees",
      "outputs": [
        {
          "internalType": "uint256",
          "name": "",
          "type": "uint256"
        }
      ],
      "stateMutability": "view",
      "type": "function"
    },
    {
      "inputs": [],
      "name": "totalReserves",
      "outputs": [
        {
          "internalType": "uint256",
          "name": "",
          "type": "uint256"
        }
      ],
      "stateMutability": "view",
      "type": "function"
    },
    {
      "inputs": [],
      "name": "totalSupply",
      "outputs": [
        {
          "internalType": "uint256",
          "name": "",
          "type": "uint256"
        }
      ],
      "stateMutability": "view",
      "type": "function"
    },
    {
      "inputs": [
        {
          "internalType": "address",
          "name": "dst",
          "type": "address"
        },
        {
          "internalType": "uint256",
          "name": "amount",
          "type": "uint256"
        }
      ],
      "name": "transfer",
      "outputs": [
        {
          "internalType": "bool",
          "name": "",
          "type": "bool"
        }
      ],
      "stateMutability": "nonpayable",
      "type": "function"
    },
    {
      "inputs": [
        {
          "internalType": "address",
          "name": "src",
          "type": "address"
        },
        {
          "internalType": "address",
          "name": "dst",
          "type": "address"
        },
        {
          "internalType": "uint256",
          "name": "amount",
          "type": "uint256"
        }
      ],
      "name": "transferFrom",
      "outputs": [
        {
          "internalType": "bool",
          "name": "",
          "type": "bool"
        }
      ],
      "stateMutability": "nonpayable",
      "type": "function"
    }
  ],
  "transactionHash": "0x2faedf2d73eb8eeefd07ebb4634a4b12cbfc2dd138794bec816909e7dc3d8f3f",
  "args": [],
  "numDeployments": 9,
  "bytecode": {
    "object": "0x608060405234801561001057600080fd5b50612d71806100206000396000f3fe6080604052600436106102255760003560e01c806389f8132e11610123578063ae9d70b0116100ab578063dd62ed3e1161006f578063dd62ed3e146105f7578063f2b3abbd1461063d578063f3fdb15a1461065d578063f8f9da281461067d578063fca7820b1461069257600080fd5b8063ae9d70b014610585578063bd6d894d1461059a578063be99f119146105af578063dbfe7c19146105cb578063dc028ab1146105e157600080fd5b806395d89b41116100f257806395d89b4114610505578063a6afed951461051a578063a9059cbb1461052f578063aa5af0fd1461054f578063ac9650d81461056557600080fd5b806389f8132e146104975780638d02d9a1146104b95780638f840ddd146104cf57806391dd36c6146104e557600080fd5b80633648b399116101b157806361feacff1161017557806361feacff146104055780636752e7021461041b5780636c540baf1461043657806370a082311461044c57806373acee981461048257600080fd5b80633648b3991461037a5780633af9e6691461038f57806347bd3718146103af5780635c60da1b146103c55780635fe3b567146103e557600080fd5b806318160ddd116101f857806318160ddd146102e1578063182df0f5146102f757806323b872dd1461030c578063313ce5671461032c57806334154d4c1461035857600080fd5b806306fdde031461022a578063095ea7b31461025557806315761d5114610285578063173b9904146102bd575b600080fd5b34801561023657600080fd5b5061023f6106b2565b60405161024c91906127de565b60405180910390f35b34801561026157600080fd5b50610275610270366004612806565b610740565b604051901515815260200161024c565b34801561029157600080fd5b506001546102a5906001600160a01b031681565b6040516001600160a01b03909116815260200161024c565b3480156102c957600080fd5b506102d3600b5481565b60405190815260200161024c565b3480156102ed57600080fd5b506102d360125481565b34801561030357600080fd5b506102d36107ae565b34801561031857600080fd5b50610275610327366004612832565b610836565b34801561033857600080fd5b506005546103469060ff1681565b60405160ff909116815260200161024c565b34801561036457600080fd5b506103786103733660046128b5565b610864565b005b34801561038657600080fd5b506102d36108c6565b34801561039b57600080fd5b506102d36103aa366004612921565b61096b565b3480156103bb57600080fd5b506102d3600e5481565b3480156103d157600080fd5b506000546102a5906001600160a01b031681565b3480156103f157600080fd5b506006546102a5906001600160a01b031681565b34801561041157600080fd5b506102d360105481565b34801561042757600080fd5b506102d3666379da05b6000081565b34801561044257600080fd5b506102d3600c5481565b34801561045857600080fd5b506102d3610467366004612921565b6001600160a01b031660009081526013602052604090205490565b34801561048e57600080fd5b506102d3610a2d565b3480156104a357600080fd5b506104ac610a5c565b60405161024c919061293e565b3480156104c557600080fd5b506102d360095481565b3480156104db57600080fd5b506102d3600f5481565b3480156104f157600080fd5b506102d361050036600461298c565b610f6f565b34801561051157600080fd5b5061023f61114a565b34801561052657600080fd5b506102d3611157565b34801561053b57600080fd5b5061027561054a366004612806565b611273565b34801561055b57600080fd5b506102d3600d5481565b6105786105733660046129a5565b6112a0565b60405161024c9190612a1a565b34801561059157600080fd5b506102d36113f1565b3480156105a657600080fd5b506102d361151c565b3480156105bb57600080fd5b506102d367016345785d8a000081565b3480156105d757600080fd5b506102d3600a5481565b3480156105ed57600080fd5b506102d360115481565b34801561060357600080fd5b506102d3610612366004612a7c565b6001600160a01b03918216600090815260146020908152604080832093909416825291909152205490565b34801561064957600080fd5b506102d3610658366004612921565b61154c565b34801561066957600080fd5b506007546102a5906001600160a01b031681565b34801561068957600080fd5b506102d36116b0565b34801561069e57600080fd5b506102d36106ad36600461298c565b611777565b600380546106bf90612ab5565b80601f01602080910402602001604051908101604052809291908181526020018280546106eb90612ab5565b80156107385780601f1061070d57610100808354040283529160200191610738565b820191906000526020600020905b81548152906001019060200180831161071b57829003601f168201915b505050505081565b3360008181526014602090815260408083206001600160a01b03871680855292528083208590555191929182907f8c5be1e5ebec7d5bd14f71427d1e84f3dd0314c0f7b2291e5b200ac8c7c3b9259061079c9087815260200190565b60405180910390a35060019392505050565b600080306001600160a01b0316633b1d21a26040518163ffffffff1660e01b8152600401602060405180830381865afa1580156107ef573d6000803e3d6000fd5b505050506040513d601f19601f820116820180604052508101906108139190612aea565b905061083060125460085483600e54600f54601054601154611852565b91505090565b60008061084281611991565b600061085033878787611a55565b14915061085c81611d05565b509392505050565b61086c611d84565b6108a65760405162461bcd60e51b815260206004820152600660248201526510b0b236b4b760d11b60448201526064015b60405180910390fd5b6108b2600385856126e9565b506108bf600483836126e9565b5050505050565b600080306001600160a01b0316633b1d21a26040518163ffffffff1660e01b8152600401602060405180830381865afa158015610907573d6000803e3d6000fd5b505050506040513d601f19601f8201168201806040525081019061092b9190612aea565b905060006109394383611eef565b90506109648160400151600854836060015184608001518560a001518660e001518760c00151611852565b9250505090565b600080610976611157565b146109935760405162461bcd60e51b815260040161089d90612b19565b600060405180602001604052806109a86107ae565b90526001600160a01b0384166000908152601360205260408120549192509081906109d490849061218f565b909250905060008260038111156109ed576109ed612b03565b14610a255760405162461bcd60e51b81526020600482015260086024820152672162616c616e636560c01b604482015260640161089d565b949350505050565b600080610a38611157565b14610a555760405162461bcd60e51b815260040161089d90612b19565b50600e5490565b60408051601280825261026082019092526060919060009082602082016102408036833701905050905063a9059cbb60e01b81610a9884612b6e565b93508360ff1681518110610aae57610aae612b8b565b6001600160e01b0319909216602092830291909101909101526323b872dd60e01b81610ad984612b6e565b93508360ff1681518110610aef57610aef612b8b565b6001600160e01b031990921660209283029190910190910152636eb1769f60e11b81610b1a84612b6e565b93508360ff1681518110610b3057610b30612b8b565b6001600160e01b03199092166020928302919091019091015263095ea7b360e01b81610b5b84612b6e565b93508360ff1681518110610b7157610b71612b8b565b6001600160e01b0319909216602092830291909101909101526370a0823160e01b81610b9c84612b6e565b93508360ff1681518110610bb257610bb2612b8b565b6001600160e01b0319909216602092830291909101909101526348ee9b6360e11b81610bdd84612b6e565b93508360ff1681518110610bf357610bf3612b8b565b6001600160e01b03199092166020928302919091019091015263f2b3abbd60e01b81610c1e84612b6e565b93508360ff1681518110610c3457610c34612b8b565b6001600160e01b031990921660209283029190910190910152630d05535360e21b81610c5f84612b6e565b93508360ff1681518110610c7557610c75612b8b565b6001600160e01b03199092166020928302919091019091015263fca7820b60e01b81610ca084612b6e565b93508360ff1681518110610cb657610cb6612b8b565b6001600160e01b031990921660209283029190910190910152630ae9d70b60e41b81610ce184612b6e565b93508360ff1681518110610cf757610cf7612b8b565b6001600160e01b031990921660209283029190910190910152631f1f3b4560e31b81610d2284612b6e565b93508360ff1681518110610d3857610d38612b8b565b6001600160e01b03199092166020928302919091019091015263182df0f560e01b81610d6384612b6e565b93508360ff1681518110610d7957610d79612b8b565b6001600160e01b03199092166020928302919091019091015263bd6d894d60e01b81610da484612b6e565b93508360ff1681518110610dba57610dba612b8b565b6001600160e01b03199092166020928302919091019091015263a6afed9560e01b81610de584612b6e565b93508360ff1681518110610dfb57610dfb612b8b565b6001600160e01b031990921660209283029190910190910152630e759dd360e31b81610e2684612b6e565b93508360ff1681518110610e3c57610e3c612b8b565b6001600160e01b031990921660209283029190910190910152633af9e66960e01b81610e6784612b6e565b93508360ff1681518110610e7d57610e7d612b8b565b6001600160e01b031990921660209283029190910190910152631592ca1b60e31b81610ea884612b6e565b93508360ff1681518110610ebe57610ebe612b8b565b6001600160e01b031990921660209283029190910190910152633648b39960e01b81610ee984612b6e565b93508360ff1681518110610eff57610eff612b8b565b6001600160e01b03199092166020928302919091019091015260ff821615610f695760405162461bcd60e51b815260206004820152601c60248201527f7573652074686520636f7272656374206172726179206c656e67746800000000604482015260640161089d565b92915050565b600080610f7b81611991565b6000610f85611157565b90508015610fb157610fa9816011811115610fa257610fa2612b03565b60506121e2565b92505061113b565b43600c5414610fc657610fa9600a60526121e2565b600019841415610fd65760095493505b6001546040805163dd86fea160e01b815290516000926001600160a01b03169163dd86fea19160048083019260209291908290030181865afa158015611020573d6000803e3d6000fd5b505050506040513d601f19601f820116820180604052508101906110449190612aea565b9050670de0b6b3a76400008186600b5461105e9190612ba1565b6110689190612ba1565b11156110835761107a600260536121e2565b9350505061113b565b84600954146110e757611094611d84565b6110a45761107a600160516121e2565b600980549086905560408051828152602081018890527fcdd0b588250e1398549f79cfdb8217c186688822905d6715b0834ea1c865594a910160405180910390a1505b80600a541461113357600a80549082905560408051828152602081018490527f92eef861b6533b7d3417f39c2ad7b460eed4e88a32fa3604f30e718b7602e7dc910160405180910390a1505b60005b935050505b61114481611d05565b50919050565b600480546106bf90612ab5565b600c54600090439081141561116d576000610830565b6000306001600160a01b0316633b1d21a26040518163ffffffff1660e01b8152600401602060405180830381865afa1580156111ad573d6000803e3d6000fd5b505050506040513d601f19601f820116820180604052508101906111d19190612aea565b905060006111df8383611eef565b600c8490556020810151600d8190556080820151600e81905560a0830151600f5560c083015160115560e08301516010556101008301516040519394507f4dec04e750ca11537cabcd8a9eab06494de08da3735bc8871cd41250e190bc0493611261938793909193845260208401929092526040830152606082015260800190565b60405180910390a16000935050505090565b60008061127f81611991565b600061128d33338787611a55565b14915061129981611d05565b5092915050565b60608167ffffffffffffffff8111156112bb576112bb612b42565b6040519080825280602002602001820160405280156112ee57816020015b60608152602001906001900390816112d95790505b50905060005b82811015611299576000803086868581811061131257611312612b8b565b90506020028101906113249190612bb9565b604051611332929190612c00565b600060405180830381855af49150503d806000811461136d576040519150601f19603f3d011682016040523d82523d6000602084013e611372565b606091505b5091509150816113be5760448151101561138b57600080fd5b600481019050808060200190518101906113a59190612c10565b60405162461bcd60e51b815260040161089d91906127de565b808484815181106113d1576113d1612b8b565b6020026020010181905250505080806113e990612cb2565b9150506112f4565b6007546000906001600160a01b031663b8168816306001600160a01b0316633b1d21a26040518163ffffffff1660e01b8152600401602060405180830381865afa158015611443573d6000803e3d6000fd5b505050506040513d601f19601f820116820180604052508101906114679190612aea565b600e54601154601054600f5461147d9190612ba1565b6114879190612ba1565b600954600a54600b5461149a9190612ba1565b6114a49190612ba1565b6040516001600160e01b031960e087901b16815260048101949094526024840192909252604483015260648201526084015b602060405180830381865afa1580156114f3573d6000803e3d6000fd5b505050506040513d601f19601f820116820180604052508101906115179190612aea565b905090565b600080611527611157565b146115445760405162461bcd60e51b815260040161089d90612b19565b6115176107ae565b60008061155881611991565b6000611562611157565b9050801561158657610fa981601181111561157f5761157f612b03565b604b6121e2565b61158e611d84565b61159e57610fa96001604d6121e2565b43600c54146115b357610fa9600a604c6121e2565b836001600160a01b0316632191f92a6040518163ffffffff1660e01b8152600401602060405180830381865afa1580156115f1573d6000803e3d6000fd5b505050506040513d601f19601f820116820180604052508101906116159190612ccd565b61164b5760405162461bcd60e51b8152602060048201526007602482015266216e6f7449726d60c81b604482015260640161089d565b600780546001600160a01b038681166001600160a01b031983168117909355604080519190921680825260208201939093527fedffc32e068c7c95dfd4bdfd5c4d939a084d6b11c4199eac8436ed234d72f92691015b60405180910390a16000611136565b6007546000906001600160a01b03166315f24053306001600160a01b0316633b1d21a26040518163ffffffff1660e01b8152600401602060405180830381865afa158015611702573d6000803e3d6000fd5b505050506040513d601f19601f820116820180604052508101906117269190612aea565b600e54601154601054600f5461173c9190612ba1565b6117469190612ba1565b6040516001600160e01b031960e086901b1681526004810193909352602483019190915260448201526064016114d6565b60008061178381611991565b600061178d611157565b905080156117b157610fa98160118111156117aa576117aa612b03565b60576121e2565b6117b9611d84565b6117c957610fa9600160586121e2565b43600c54146117de57610fa9600a60596121e2565b670de0b6b3a7640000600a54600954866117f89190612ba1565b6118029190612ba1565b111561181457610fa96002605a6121e2565b600b80549085905560408051828152602081018790527faaa68312e2ea9d50e16af5068410ab56e1a1fd06037b1a35664812c30f82146091016116a1565b600087611860575085611986565b60006118786040518060200160405280600081525090565b600061189989898761188a8a8c612ba1565b6118949190612ba1565b612262565b9350905060008160038111156118b1576118b1612b03565b1461190c5760405162461bcd60e51b815260206004820152602560248201527f216164645468656e53756255496e74206f766572666c6f7720636865636b2066604482015264185a5b195960da1b606482015260840161089d565b611916838c6122b5565b92509050600081600381111561192e5761192e612b03565b1461197b5760405162461bcd60e51b815260206004820152601d60248201527f21676574457870206f766572666c6f7720636865636b206661696c6564000000604482015260640161089d565b505191506119869050565b979650505050505050565b600254600160b01b900460ff166119d75760405162461bcd60e51b815260206004820152600a6024820152691c994b595b9d195c995960b21b604482015260640161089d565b80611a4557600660009054906101000a90046001600160a01b03166001600160a01b031663c90c20b16040518163ffffffff1660e01b8152600401600060405180830381600087803b158015611a2c57600080fd5b505af1158015611a40573d6000803e3d6000fd5b505050505b506002805460ff60b01b19169055565b6006546040516317b9b84b60e31b81523060048201526001600160a01b038581166024830152848116604483015260648201849052600092839291169063bdcdc258906084016020604051808303816000875af1158015611aba573d6000803e3d6000fd5b505050506040513d601f19601f82011682018060405250810190611ade9190612aea565b90508015611afb57611af36003605b83612380565b915050610a25565b836001600160a01b0316856001600160a01b03161415611b2157611af36002605c6121e2565b6000856001600160a01b0316876001600160a01b03161415611b465750600019611b6e565b506001600160a01b038086166000908152601460209081526040808320938a16835292905220545b600080600080611b7e8589612422565b90945092506000846003811115611b9757611b97612b03565b14611bb557611ba86009605c6121e2565b9650505050505050610a25565b6001600160a01b038a16600090815260136020526040902054611bd89089612422565b90945091506000846003811115611bf157611bf1612b03565b14611c0257611ba86009605d6121e2565b6001600160a01b038916600090815260136020526040902054611c25908961244d565b90945090506000846003811115611c3e57611c3e612b03565b14611c4f57611ba86009605e6121e2565b6001600160a01b03808b16600090815260136020526040808220859055918b168152208190556000198514611ca7576001600160a01b03808b166000908152601460209081526040808320938f168352929052208390555b886001600160a01b03168a6001600160a01b03167fddf252ad1be2c89b69c2b068fc378daa952ba7f163c4a11628f55a4df523b3ef8a604051611cec91815260200190565b60405180910390a35060009a9950505050505050505050565b6002805460ff60b01b1916600160b01b17905580611d8157600660009054906101000a90046001600160a01b03166001600160a01b031663632e51426040518163ffffffff1660e01b8152600401600060405180830381600087803b158015611d6d57600080fd5b505af11580156108bf573d6000803e3d6000fd5b50565b600654604080516303e1469160e61b815290516000926001600160a01b031691829163f851a440916004808201926020929091908290030181865afa158015611dd1573d6000803e3d6000fd5b505050506040513d601f19601f82011682018060405250810190611df59190612cef565b6001600160a01b0316336001600160a01b0316148015611e725750806001600160a01b0316630a755ec26040518163ffffffff1660e01b8152600401602060405180830381865afa158015611e4e573d6000803e3d6000fd5b505050506040513d601f19601f82011682018060405250810190611e729190612ccd565b8061083057506001546001600160a01b0316331480156108305750806001600160a01b0316632f1069ba6040518163ffffffff1660e01b8152600401602060405180830381865afa158015611ecb573d6000803e3d6000fd5b505050506040513d601f19601f820116820180604052508101906108309190612ccd565b611f3e6040518061012001604052806000815260200160008152602001600081526020016000815260200160008152602001600081526020016000815260200160008152602001600081525090565b6000601154601054611f509190612ba1565b600754600e54600f549293506000926001600160a01b03909216916315f24053918791611f7e908790612ba1565b6040516001600160e01b031960e086901b168152600481019390935260248301919091526044820152606401602060405180830381865afa158015611fc7573d6000803e3d6000fd5b505050506040513d601f19601f82011682018060405250810190611feb9190612aea565b905065048c2739500081111561204257818411156120395760405162461bcd60e51b815260206004820152600b60248201526a21626f72726f775261746560a81b604482015260640161089d565b5065048c273950005b60008061205187600c54612422565b9092509050600082600381111561206a5761206a612b03565b146120a55760405162461bcd60e51b815260206004820152600b60248201526a21626c6f636b44656c746160a81b604482015260640161089d565b8685526012546040808701919091528051602081019091528381526000906120cd9083612473565b90506120db81600e546124a4565b6101008701819052600e546120ef91612ba1565b60808701526040805160208101909152600b548152610100870151600f546121189291906124bc565b60a08701526040805160208101909152600a5481526101008701516011546121419291906124bc565b60c08701526040805160208101909152600954815261010087015160105461216a9291906124bc565b60e0870152600d5461217e908290806124bc565b602087015250939695505050505050565b60008060008061219f86866124e6565b909250905060008260038111156121b8576121b8612b03565b146121c957509150600090506121db565b60006121d482612562565b9350935050505b9250929050565b60007f45b96fe442630264581b197e84bbada861235052c5a1aadfff9ea4e40a969aa083601181111561221757612217612b03565b83606181111561222957612229612b03565b60408051928352602083019190915260009082015260600160405180910390a182601181111561225b5761225b612b03565b9392505050565b600080600080612272878761244d565b9092509050600082600381111561228b5761228b612b03565b1461229c57509150600090506122ad565b6122a68186612422565b9350935050505b935093915050565b60006122cd6040518060200160405280600081525090565b6000806122e286670de0b6b3a764000061257a565b909250905060008260038111156122fb576122fb612b03565b1461231a575060408051602081019091526000815290925090506121db565b60008061232783886125b9565b9092509050600082600381111561234057612340612b03565b1461236357816040518060200160405280600081525095509550505050506121db565b604080516020810190915290815260009890975095505050505050565b60007f45b96fe442630264581b197e84bbada861235052c5a1aadfff9ea4e40a969aa08460118111156123b5576123b5612b03565b8460618111156123c7576123c7612b03565b604080519283526020830191909152810184905260600160405180910390a160038460118111156123fa576123fa612b03565b146124165783601181111561241157612411612b03565b610a25565b610a25826103e8612ba1565b6000808383116124415760006124388486612d0c565b915091506121db565b506003905060006121db565b600080838301848110612465576000925090506121db565b6002600092509250506121db565b604080516020810190915260008152604051806020016040528061249b8560000151856125e4565b90529392505050565b6000806124b18484612473565b9050610a2581612562565b6000806124c98585612473565b90506124dd6124d782612562565b84612626565b95945050505050565b60006124fe6040518060200160405280600081525090565b60008061250f86600001518661257a565b9092509050600082600381111561252857612528612b03565b14612547575060408051602081019091526000815290925090506121db565b60408051602081019091529081526000969095509350505050565b8051600090610f6990670de0b6b3a764000090612d23565b6000808361258d575060009050806121db565b8383028361259b8683612d23565b146125ae576002600092509250506121db565b6000925090506121db565b600080826125cd57506001905060006121db565b60006125d98486612d23565b915091509250929050565b600061225b83836040518060400160405280601781526020017f6d756c7469706c69636174696f6e206f766572666c6f7700000000000000000081525061265c565b600061225b8383604051806040016040528060118152602001706164646974696f6e206f766572666c6f7760781b8152506126b8565b6000831580612669575082155b156126765750600061225b565b60006126828486612d45565b90508361268f8683612d23565b1483906126af5760405162461bcd60e51b815260040161089d91906127de565b50949350505050565b6000806126c58486612ba1565b905082858210156126af5760405162461bcd60e51b815260040161089d91906127de565b8280546126f590612ab5565b90600052602060002090601f016020900481019282612717576000855561275d565b82601f106127305782800160ff1982351617855561275d565b8280016001018555821561275d579182015b8281111561275d578235825591602001919060010190612742565b5061276992915061276d565b5090565b5b80821115612769576000815560010161276e565b60005b8381101561279d578181015183820152602001612785565b838111156127ac576000848401525b50505050565b600081518084526127ca816020860160208601612782565b601f01601f19169290920160200192915050565b60208152600061225b60208301846127b2565b6001600160a01b0381168114611d8157600080fd5b6000806040838503121561281957600080fd5b8235612824816127f1565b946020939093013593505050565b60008060006060848603121561284757600080fd5b8335612852816127f1565b92506020840135612862816127f1565b929592945050506040919091013590565b60008083601f84011261288557600080fd5b50813567ffffffffffffffff81111561289d57600080fd5b6020830191508360208285010111156121db57600080fd5b600080600080604085870312156128cb57600080fd5b843567ffffffffffffffff808211156128e357600080fd5b6128ef88838901612873565b9096509450602087013591508082111561290857600080fd5b5061291587828801612873565b95989497509550505050565b60006020828403121561293357600080fd5b813561225b816127f1565b6020808252825182820181905260009190848201906040850190845b818110156129805783516001600160e01b0319168352928401929184019160010161295a565b50909695505050505050565b60006020828403121561299e57600080fd5b5035919050565b600080602083850312156129b857600080fd5b823567ffffffffffffffff808211156129d057600080fd5b818501915085601f8301126129e457600080fd5b8135818111156129f357600080fd5b8660208260051b8501011115612a0857600080fd5b60209290920196919550909350505050565b6000602080830181845280855180835260408601915060408160051b870101925083870160005b82811015612a6f57603f19888603018452612a5d8583516127b2565b94509285019290850190600101612a41565b5092979650505050505050565b60008060408385031215612a8f57600080fd5b8235612a9a816127f1565b91506020830135612aaa816127f1565b809150509250929050565b600181811c90821680612ac957607f821691505b6020821081141561114457634e487b7160e01b600052602260045260246000fd5b600060208284031215612afc57600080fd5b5051919050565b634e487b7160e01b600052602160045260246000fd5b6020808252600f908201526e085858d8dc9d59525b9d195c995cdd608a1b604082015260600190565b634e487b7160e01b600052604160045260246000fd5b634e487b7160e01b600052601160045260246000fd5b600060ff821680612b8157612b81612b58565b6000190192915050565b634e487b7160e01b600052603260045260246000fd5b60008219821115612bb457612bb4612b58565b500190565b6000808335601e19843603018112612bd057600080fd5b83018035915067ffffffffffffffff821115612beb57600080fd5b6020019150368190038213156121db57600080fd5b8183823760009101908152919050565b600060208284031215612c2257600080fd5b815167ffffffffffffffff80821115612c3a57600080fd5b818401915084601f830112612c4e57600080fd5b815181811115612c6057612c60612b42565b604051601f8201601f19908116603f01168101908382118183101715612c8857612c88612b42565b81604052828152876020848701011115612ca157600080fd5b611986836020830160208801612782565b6000600019821415612cc657612cc6612b58565b5060010190565b600060208284031215612cdf57600080fd5b8151801515811461225b57600080fd5b600060208284031215612d0157600080fd5b815161225b816127f1565b600082821015612d1e57612d1e612b58565b500390565b600082612d4057634e487b7160e01b600052601260045260246000fd5b500490565b6000816000190483118215151615612d5f57612d5f612b58565b50029056fea164736f6c634300080a000a",
    "linkReferences": {}
  },
  "methodIdentifiers": {
    "_getExtensionFunctions()": "89f8132e",
    "_setAdminFee(uint256)": "91dd36c6",
    "_setInterestRateModel(address)": "f2b3abbd",
    "_setNameAndSymbol(string,string)": "34154d4c",
    "_setReserveFactor(uint256)": "fca7820b",
    "accrualBlockNumber()": "6c540baf",
    "accrueInterest()": "a6afed95",
    "adminFeeMantissa()": "8d02d9a1",
    "allowance(address,address)": "dd62ed3e",
    "approve(address,uint256)": "095ea7b3",
    "balanceOf(address)": "70a08231",
    "balanceOfUnderlying(address)": "3af9e669",
    "borrowIndex()": "aa5af0fd",
    "borrowRatePerBlock()": "f8f9da28",
    "comptroller()": "5fe3b567",
    "decimals()": "313ce567",
    "exchangeRateCurrent()": "bd6d894d",
    "exchangeRateHypothetical()": "3648b399",
    "exchangeRateStored()": "182df0f5",
    "feeSeizeShareMantissa()": "be99f119",
    "fuseAdmin()": "15761d51",
    "fuseFeeMantissa()": "dbfe7c19",
    "implementation()": "5c60da1b",
    "interestRateModel()": "f3fdb15a",
    "multicall(bytes[])": "ac9650d8",
    "name()": "06fdde03",
    "protocolSeizeShareMantissa()": "6752e702",
    "reserveFactorMantissa()": "173b9904",
    "supplyRatePerBlock()": "ae9d70b0",
    "symbol()": "95d89b41",
    "totalAdminFees()": "61feacff",
    "totalBorrows()": "47bd3718",
    "totalBorrowsCurrent()": "73acee98",
    "totalFuseFees()": "dc028ab1",
    "totalReserves()": "8f840ddd",
    "totalSupply()": "18160ddd",
    "transfer(address,uint256)": "a9059cbb",
    "transferFrom(address,address,uint256)": "23b872dd"
  }
}