{
  "address": "0x90470456afd930f4B296D27dE035160a7b452F72",
  "abi": [
    {
      "anonymous": false,
      "inputs": [
        {
          "indexed": false,
          "internalType": "uint8",
          "name": "version",
          "type": "uint8"
        }
      ],
      "name": "Initialized",
      "type": "event"
    },
    {
      "anonymous": false,
      "inputs": [
        {
          "indexed": false,
          "internalType": "address",
          "name": "oldOwner",
          "type": "address"
        },
        {
          "indexed": false,
          "internalType": "address",
          "name": "newOwner",
          "type": "address"
        }
      ],
      "name": "NewOwner",
      "type": "event"
    },
    {
      "anonymous": false,
      "inputs": [
        {
          "indexed": false,
          "internalType": "address",
          "name": "oldPendingOwner",
          "type": "address"
        },
        {
          "indexed": false,
          "internalType": "address",
          "name": "newPendingOwner",
          "type": "address"
        }
      ],
      "name": "NewPendingOwner",
      "type": "event"
    },
    {
      "anonymous": false,
      "inputs": [
        {
          "indexed": true,
          "internalType": "address",
          "name": "previousOwner",
          "type": "address"
        },
        {
          "indexed": true,
          "internalType": "address",
          "name": "newOwner",
          "type": "address"
        }
      ],
      "name": "OwnershipTransferred",
      "type": "event"
    },
    {
      "inputs": [],
      "name": "_acceptOwner",
      "outputs": [],
      "stateMutability": "nonpayable",
      "type": "function"
    },
    {
      "inputs": [],
      "name": "_resetGap",
      "outputs": [],
      "stateMutability": "nonpayable",
      "type": "function"
    },
    {
      "inputs": [
        {
          "internalType": "address",
          "name": "newPendingOwner",
          "type": "address"
        }
      ],
      "name": "_setPendingOwner",
      "outputs": [],
      "stateMutability": "nonpayable",
      "type": "function"
    },
    {
      "inputs": [],
      "name": "getAllLPTokens",
      "outputs": [
        {
          "internalType": "address[]",
          "name": "",
          "type": "address[]"
        }
      ],
      "stateMutability": "view",
      "type": "function"
    },
    {
      "inputs": [
        {
          "internalType": "address",
          "name": "inputToken",
          "type": "address"
        },
        {
          "internalType": "address",
          "name": "outputToken",
          "type": "address"
        }
      ],
      "name": "getPoolForSwap",
      "outputs": [
        {
          "internalType": "contract ICurvePool",
          "name": "",
          "type": "address"
        },
        {
          "internalType": "int128",
          "name": "",
          "type": "int128"
        },
        {
          "internalType": "int128",
          "name": "",
          "type": "int128"
        }
      ],
      "stateMutability": "view",
      "type": "function"
    },
    {
      "inputs": [
        {
          "internalType": "contract ICToken",
          "name": "cToken",
          "type": "address"
        }
      ],
      "name": "getUnderlyingPrice",
      "outputs": [
        {
          "internalType": "uint256",
          "name": "",
          "type": "uint256"
        }
      ],
      "stateMutability": "view",
      "type": "function"
    },
    {
      "inputs": [
        {
          "internalType": "address",
          "name": "lpToken",
          "type": "address"
        }
      ],
      "name": "getUnderlyingTokens",
      "outputs": [
        {
          "internalType": "address[]",
          "name": "",
          "type": "address[]"
        }
      ],
      "stateMutability": "view",
      "type": "function"
    },
    {
      "inputs": [
        {
          "internalType": "address[]",
          "name": "_lpTokens",
          "type": "address[]"
        },
        {
          "internalType": "address[]",
          "name": "_pools",
          "type": "address[]"
        },
        {
          "internalType": "address[][]",
          "name": "_poolUnderlyings",
          "type": "address[][]"
        }
      ],
      "name": "initialize",
      "outputs": [],
      "stateMutability": "nonpayable",
      "type": "function"
    },
    {
      "inputs": [
        {
          "internalType": "uint256",
          "name": "",
          "type": "uint256"
        }
      ],
      "name": "lpTokens",
      "outputs": [
        {
          "internalType": "address",
          "name": "",
          "type": "address"
        }
      ],
      "stateMutability": "view",
      "type": "function"
    },
    {
      "inputs": [],
      "name": "owner",
      "outputs": [
        {
          "internalType": "address",
          "name": "",
          "type": "address"
        }
      ],
      "stateMutability": "view",
      "type": "function"
    },
    {
      "inputs": [],
      "name": "pendingOwner",
      "outputs": [
        {
          "internalType": "address",
          "name": "",
          "type": "address"
        }
      ],
      "stateMutability": "view",
      "type": "function"
    },
    {
      "inputs": [
        {
          "internalType": "address",
          "name": "",
          "type": "address"
        }
      ],
      "name": "poolOf",
      "outputs": [
        {
          "internalType": "address",
          "name": "",
          "type": "address"
        }
      ],
      "stateMutability": "view",
      "type": "function"
    },
    {
      "inputs": [
        {
          "internalType": "address",
          "name": "underlying",
          "type": "address"
        }
      ],
      "name": "price",
      "outputs": [
        {
          "internalType": "uint256",
          "name": "",
          "type": "uint256"
        }
      ],
      "stateMutability": "view",
      "type": "function"
    },
    {
      "inputs": [
        {
          "internalType": "address",
          "name": "_lpToken",
          "type": "address"
        },
        {
          "internalType": "address",
          "name": "_pool",
          "type": "address"
        },
        {
          "internalType": "address[]",
          "name": "_underlyings",
          "type": "address[]"
        }
      ],
      "name": "registerPool",
      "outputs": [],
      "stateMutability": "nonpayable",
      "type": "function"
    },
    {
      "inputs": [],
      "name": "renounceOwnership",
      "outputs": [],
      "stateMutability": "nonpayable",
      "type": "function"
    },
    {
      "inputs": [
        {
          "internalType": "address",
          "name": "newOwner",
          "type": "address"
        }
      ],
      "name": "transferOwnership",
      "outputs": [],
      "stateMutability": "nonpayable",
      "type": "function"
    },
    {
      "inputs": [
        {
          "internalType": "address",
          "name": "",
          "type": "address"
        },
        {
          "internalType": "uint256",
          "name": "",
          "type": "uint256"
        }
      ],
      "name": "underlyingTokens",
      "outputs": [
        {
          "internalType": "address",
          "name": "",
          "type": "address"
        }
      ],
      "stateMutability": "view",
      "type": "function"
    }
  ],
  "transactionHash": "0xfa9429d12a4db5684f351c14f45209015a5f494f7faf9dc36580eabbf1420b10",
  "args": [],
  "numDeployments": 11,
  "bytecode": {
    "object": "0x608060405234801561001057600080fd5b50611645806100206000396000f3fe608060405234801561001057600080fd5b506004361061010b5760003560e01c8063938bd8ec116100a2578063e30c397811610071578063e30c39781461027e578063f2fde38b14610291578063fa09e1e1146102a4578063fc4d33f9146102ac578063fc57d4df146102b457600080fd5b8063938bd8ec146101c7578063988b1fa714610203578063aea910781461022c578063c2bd5c2e1461024d57600080fd5b80636e96dfd7116100de5780636e96dfd714610188578063715018a61461019b5780638da5cb5b146101a3578063904d4d75146101b457600080fd5b806301eadec4146101105780631bb5e2dc1461014057806327a3c20114610153578063656dc2e414610168575b600080fd5b61012361011e3660046110cc565b6102c7565b6040516001600160a01b0390911681526020015b60405180910390f35b61012361014e3660046110f8565b6102ff565b6101666101613660046111f0565b610329565b005b61017b6101763660046112e8565b6105c2565b6040516101379190611305565b6101666101963660046112e8565b610638565b6101666106a2565b6033546001600160a01b0316610123565b6101666101c2366004611352565b6106e5565b6101da6101d53660046113b4565b6107ef565b604080516001600160a01b039094168452600f92830b6020850152910b90820152606001610137565b6101236102113660046112e8565b606b602052600090815260409020546001600160a01b031681565b61023f61023a3660046112e8565b610973565b604051908152602001610137565b610166606680546001600160a01b031990811690915560678054821690556068805482169055606980549091169055565b606554610123906001600160a01b031681565b61016661029f3660046112e8565b610984565b61017b6109f5565b610166610a57565b61023f6102c23660046112e8565b610b6b565b606a60205281600052604060002081815481106102e357600080fd5b6000918252602090912001546001600160a01b03169150829050565b606c818154811061030f57600080fd5b6000918252602090912001546001600160a01b0316905081565b600054610100900460ff16158080156103495750600054600160ff909116105b806103635750303b158015610363575060005460ff166001145b6103cb5760405162461bcd60e51b815260206004820152602e60248201527f496e697469616c697a61626c653a20636f6e747261637420697320616c72656160448201526d191e481a5b9a5d1a585b1a5e995960921b60648201526084015b60405180910390fd5b6000805460ff1916600117905580156103ee576000805461ff0019166101001790555b82518451148015610400575081518451145b6104665760405162461bcd60e51b815260206004820152603160248201527f4e6f204c5020746f6b656e7320737570706c696564206f72206172726179206c60448201527032b733ba3439903737ba1032b8bab0b61760791b60648201526084016103c2565b61046f33610c6e565b60005b84518110156105755783818151811061048d5761048d6113ed565b6020026020010151606b60008784815181106104ab576104ab6113ed565b60200260200101516001600160a01b03166001600160a01b0316815260200190815260200160002060006101000a8154816001600160a01b0302191690836001600160a01b03160217905550828181518110610509576105096113ed565b6020026020010151606a6000878481518110610527576105276113ed565b60200260200101516001600160a01b03166001600160a01b03168152602001908152602001600020908051906020019061056292919061103d565b508061056d81611419565b915050610472565b5080156105bc576000805461ff0019169055604051600181527f7f26b83ff96e1f2b6a682f133852f6798a09c465da95921460cefb38474024989060200160405180910390a15b50505050565b6001600160a01b0381166000908152606a602090815260409182902080548351818402810184019094528084526060939283018282801561062c57602002820191906000526020600020905b81546001600160a01b0316815260019091019060200180831161060e575b50505050509050919050565b610640610ca9565b606580546001600160a01b038381166001600160a01b031983168117909355604080519190921680825260208201939093527fb3d55174552271a4f1aaf36b72f50381e892171636b3fb5447fe00e995e7a37b91015b60405180910390a15050565b6106aa610ca9565b60405162461bcd60e51b815260206004820152601060248201526f6e6f74207573656420616e796d6f726560801b60448201526064016103c2565b6106ed610ca9565b6001600160a01b038381166000908152606b6020908152604080832080546001600160a01b03191694871694909417909355606a815291902082516107349284019061103d565b506000805b606c5481101561079657846001600160a01b0316606c8281548110610760576107606113ed565b6000918252602090912001546001600160a01b031614156107845760019150610796565b8061078e81611419565b915050610739565b50806105bc57606c80546001810182556000919091527f2b4a51ab505fc96a0952efda2ba61bcd3078d4c02c39a186ec16f21883fbe0160180546001600160a01b0386166001600160a01b031990911617905550505050565b60008080805b606c5481101561095f576000606b6000606c8481548110610818576108186113ed565b60009182526020808320909101546001600160a01b03908116845290830193909352604090910181205490911691506000199081905b60405163c661065760e01b81526fffffffffffffffffffffffffffffffff821660048201526001600160a01b0385169063c661065790602401602060405180830381865afa9250505080156108c0575060408051601f3d908101601f191682019092526108bd91810190611434565b60015b6108c957610948565b8a6001600160a01b0316816001600160a01b031614156108eb57819350610909565b896001600160a01b0316816001600160a01b03161415610909578192505b8161091381611451565b9250505060001982600f0b13801561092f575060001983600f0b135b1561094357509195509350915061096c9050565b61084e565b50505050808061095790611419565b9150506107f5565b5060008060009250925092505b9250925092565b600061097e82610d05565b92915050565b61098c610ca9565b606554604080516001600160a01b03928316815291831660208301527fb3d55174552271a4f1aaf36b72f50381e892171636b3fb5447fe00e995e7a37b910160405180910390a1606580546001600160a01b0319166001600160a01b0392909216919091179055565b6060606c805480602002602001604051908101604052809291908181526020018280548015610a4d57602002820191906000526020600020905b81546001600160a01b03168152600190910190602001808311610a2f575b5050505050905090565b6065546001600160a01b03163314610aa95760405162461bcd60e51b81526020600482015260156024820152743737ba103a3432903832b73234b7339037bbb732b960591b60448201526064016103c2565b6000610abd6033546001600160a01b031690565b6065549091506001600160a01b0316610ad581610f91565b606580546001600160a01b0319169055604080516001600160a01b0384168152600060208201527f70aea8d848e8a90fb7661b227dc522eb6395c3dac71b63cb59edd5c9899b2364910160405180910390a1606554604080516001600160a01b03808516825290921660208301527fb3d55174552271a4f1aaf36b72f50381e892171636b3fb5447fe00e995e7a37b9101610696565b600080826001600160a01b0316636f307dc36040518163ffffffff1660e01b8152600401602060405180830381865afa158015610bac573d6000803e3d6000fd5b505050506040513d601f19601f82011682018060405250810190610bd09190611434565b9050806001600160a01b031663313ce5676040518163ffffffff1660e01b8152600401602060405180830381865afa158015610c10573d6000803e3d6000fd5b505050506040513d601f19601f82011682018060405250810190610c349190611480565b610c429060ff16600a611587565b610c4b82610d05565b610c5d90670de0b6b3a7640000611593565b610c6791906115b2565b9392505050565b600054610100900460ff16610c955760405162461bcd60e51b81526004016103c2906115d4565b610c9d610fe3565b610ca681610f91565b50565b6033546001600160a01b03163314610d035760405162461bcd60e51b815260206004820181905260248201527f4f776e61626c653a2063616c6c6572206973206e6f7420746865206f776e657260448201526064016103c2565b565b6001600160a01b038082166000908152606b602052604081205490911680610d6f5760405162461bcd60e51b815260206004820152601b60248201527f4c5020746f6b656e206973206e6f7420726567697374657265642e000000000060448201526064016103c2565b6001600160a01b0383166000908152606a6020908152604080832080548251818502810185019093528083529192909190830182828015610dd957602002820191906000526020600020905b81546001600160a01b03168152600190910190602001808311610dbb575b5050835193945060001993925060009150505b81811015610ea4576000848281518110610e0857610e086113ed565b60209081029190910101516040516315d5220f60e31b81526001600160a01b0382166004820152909150600090339063aea9107890602401602060405180830381865afa158015610e5d573d6000803e3d6000fd5b505050506040513d601f19601f82011682018060405250810190610e81919061161f565b905084811015610e8f578094505b50508080610e9c90611419565b915050610dec565b50600019821415610f085760405162461bcd60e51b815260206004820152602860248201527f4e6f206d696e696d756d20756e6465726c79696e6720746f6b656e207072696360448201526732903337bab7321760c11b60648201526084016103c2565b670de0b6b3a7640000846001600160a01b031663bb7b8b806040518163ffffffff1660e01b8152600401602060405180830381865afa158015610f4f573d6000803e3d6000fd5b505050506040513d601f19601f82011682018060405250810190610f73919061161f565b610f7d9084611593565b610f8791906115b2565b9695505050505050565b603380546001600160a01b038381166001600160a01b0319831681179093556040519116919082907f8be0079c531659141344cd1fd0a4f28419497f9722a3daafe3b4186f6b6457e090600090a35050565b600054610100900460ff1661100a5760405162461bcd60e51b81526004016103c2906115d4565b610d03600054610100900460ff166110345760405162461bcd60e51b81526004016103c2906115d4565b610d0333610f91565b828054828255906000526020600020908101928215611092579160200282015b8281111561109257825182546001600160a01b0319166001600160a01b0390911617825560209092019160019091019061105d565b5061109e9291506110a2565b5090565b5b8082111561109e57600081556001016110a3565b6001600160a01b0381168114610ca657600080fd5b600080604083850312156110df57600080fd5b82356110ea816110b7565b946020939093013593505050565b60006020828403121561110a57600080fd5b5035919050565b634e487b7160e01b600052604160045260246000fd5b604051601f8201601f1916810167ffffffffffffffff8111828210171561115057611150611111565b604052919050565b600067ffffffffffffffff82111561117257611172611111565b5060051b60200190565b600082601f83011261118d57600080fd5b813560206111a261119d83611158565b611127565b82815260059290921b840181019181810190868411156111c157600080fd5b8286015b848110156111e55780356111d8816110b7565b83529183019183016111c5565b509695505050505050565b60008060006060848603121561120557600080fd5b833567ffffffffffffffff8082111561121d57600080fd5b6112298783880161117c565b945060209150818601358181111561124057600080fd5b61124c8882890161117c565b94505060408601358181111561126157600080fd5b8601601f8101881361127257600080fd5b803561128061119d82611158565b81815260059190911b8201840190848101908a83111561129f57600080fd5b8584015b838110156112d7578035868111156112bb5760008081fd5b6112c98d898389010161117c565b8452509186019186016112a3565b508096505050505050509250925092565b6000602082840312156112fa57600080fd5b8135610c67816110b7565b6020808252825182820181905260009190848201906040850190845b818110156113465783516001600160a01b031683529284019291840191600101611321565b50909695505050505050565b60008060006060848603121561136757600080fd5b8335611372816110b7565b92506020840135611382816110b7565b9150604084013567ffffffffffffffff81111561139e57600080fd5b6113aa8682870161117c565b9150509250925092565b600080604083850312156113c757600080fd5b82356113d2816110b7565b915060208301356113e2816110b7565b809150509250929050565b634e487b7160e01b600052603260045260246000fd5b634e487b7160e01b600052601160045260246000fd5b600060001982141561142d5761142d611403565b5060010190565b60006020828403121561144657600080fd5b8151610c67816110b7565b600081600f0b6f7fffffffffffffffffffffffffffffff81141561147757611477611403565b60010192915050565b60006020828403121561149257600080fd5b815160ff81168114610c6757600080fd5b600181815b808511156114de5781600019048211156114c4576114c4611403565b808516156114d157918102915b93841c93908002906114a8565b509250929050565b6000826114f55750600161097e565b816115025750600061097e565b816001811461151857600281146115225761153e565b600191505061097e565b60ff84111561153357611533611403565b50506001821b61097e565b5060208310610133831016604e8410600b8410161715611561575081810a61097e565b61156b83836114a3565b806000190482111561157f5761157f611403565b029392505050565b6000610c6783836114e6565b60008160001904831182151516156115ad576115ad611403565b500290565b6000826115cf57634e487b7160e01b600052601260045260246000fd5b500490565b6020808252602b908201527f496e697469616c697a61626c653a20636f6e7472616374206973206e6f74206960408201526a6e697469616c697a696e6760a81b606082015260800190565b60006020828403121561163157600080fd5b505191905056fea164736f6c634300080a000a",
    "linkReferences": {}
  },
  "methodIdentifiers": {
    "_acceptOwner()": "fc4d33f9",
    "_resetGap()": "c2bd5c2e",
    "_setPendingOwner(address)": "6e96dfd7",
    "getAllLPTokens()": "fa09e1e1",
    "getPoolForSwap(address,address)": "938bd8ec",
    "getUnderlyingPrice(address)": "fc57d4df",
    "getUnderlyingTokens(address)": "656dc2e4",
    "initialize(address[],address[],address[][])": "27a3c201",
    "lpTokens(uint256)": "1bb5e2dc",
    "owner()": "8da5cb5b",
    "pendingOwner()": "e30c3978",
    "poolOf(address)": "988b1fa7",
    "price(address)": "aea91078",
    "registerPool(address,address,address[])": "904d4d75",
    "renounceOwnership()": "715018a6",
    "transferOwnership(address)": "f2fde38b",
    "underlyingTokens(address,uint256)": "01eadec4"
  }
}