{
  "address": "0x14C15B9ec83ED79f23BF71D51741f58b69ff1494",
  "abi": [
    {
      "inputs": [
        {
          "internalType": "contract ICToken",
          "name": "cToken",
          "type": "address"
        }
      ],
      "name": "getUnderlyingPrice",
      "outputs": [
        {
          "internalType": "uint256",
          "name": "",
          "type": "uint256"
        }
      ],
      "stateMutability": "view",
      "type": "function"
    },
    {
      "inputs": [
        {
          "internalType": "address",
          "name": "underlying",
          "type": "address"
        }
      ],
      "name": "price",
      "outputs": [
        {
          "internalType": "uint256",
          "name": "",
          "type": "uint256"
        }
      ],
      "stateMutability": "view",
      "type": "function"
    }
  ],
  "transactionHash": "0x6bebbbf754322959b2dfc35b89aeb3cf9ccfddbbd693e614db4aecfb07b73a63",
  "args": [],
  "numDeployments": 1,
  "bytecode": {
    "object": "0x608060405234801561001057600080fd5b5060a68061001f6000396000f3fe6080604052348015600f57600080fd5b506004361060325760003560e01c8063aea91078146037578063fc57d4df146037575b600080fd5b604f60423660046078565b50670de0b6b3a764000090565b60405190815260200160405180910390f35b6001600160a01b0381168114607557600080fd5b50565b600060208284031215608957600080fd5b81356092816061565b939250505056fea164736f6c634300080a000a",
    "linkReferences": {}
  },
  "methodIdentifiers": {
    "getUnderlyingPrice(address)": "fc57d4df",
    "price(address)": "aea91078"
  }
}