{
  "address": "0x0eC2F1fC9BB1AD56a4bBc7a9E99e14D527A70Bd7",
  "abi": [
    {
      "anonymous": false,
      "inputs": [
        {
          "indexed": false,
          "internalType": "uint8",
          "name": "version",
          "type": "uint8"
        }
      ],
      "name": "Initialized",
      "type": "event"
    },
    {
      "inputs": [],
      "name": "directory",
      "outputs": [
        {
          "internalType": "contract FusePoolDirectory",
          "name": "",
          "type": "address"
        }
      ],
      "stateMutability": "view",
      "type": "function"
    },
    {
      "inputs": [
        {
          "internalType": "contract IComptroller",
          "name": "comptroller",
          "type": "address"
        },
        {
          "internalType": "address",
          "name": "user",
          "type": "address"
        }
      ],
      "name": "getPoolAssetsByUser",
      "outputs": [
        {
          "components": [
            {
              "internalType": "address",
              "name": "cToken",
              "type": "address"
            },
            {
              "internalType": "address",
              "name": "underlyingToken",
              "type": "address"
            },
            {
              "internalType": "string",
              "name": "underlyingName",
              "type": "string"
            },
            {
              "internalType": "string",
              "name": "underlyingSymbol",
              "type": "string"
            },
            {
              "internalType": "uint256",
              "name": "underlyingDecimals",
              "type": "uint256"
            },
            {
              "internalType": "uint256",
              "name": "underlyingBalance",
              "type": "uint256"
            },
            {
              "internalType": "uint256",
              "name": "supplyRatePerBlock",
              "type": "uint256"
            },
            {
              "internalType": "uint256",
              "name": "borrowRatePerBlock",
              "type": "uint256"
            },
            {
              "internalType": "uint256",
              "name": "totalSupply",
              "type": "uint256"
            },
            {
              "internalType": "uint256",
              "name": "totalBorrow",
              "type": "uint256"
            },
            {
              "internalType": "uint256",
              "name": "supplyBalance",
              "type": "uint256"
            },
            {
              "internalType": "uint256",
              "name": "borrowBalance",
              "type": "uint256"
            },
            {
              "internalType": "uint256",
              "name": "liquidity",
              "type": "uint256"
            },
            {
              "internalType": "bool",
              "name": "membership",
              "type": "bool"
            },
            {
              "internalType": "uint256",
              "name": "exchangeRate",
              "type": "uint256"
            },
            {
              "internalType": "uint256",
              "name": "underlyingPrice",
              "type": "uint256"
            },
            {
              "internalType": "address",
              "name": "oracle",
              "type": "address"
            },
            {
              "internalType": "uint256",
              "name": "collateralFactor",
              "type": "uint256"
            },
            {
              "internalType": "uint256",
              "name": "reserveFactor",
              "type": "uint256"
            },
            {
              "internalType": "uint256",
              "name": "adminFee",
              "type": "uint256"
            },
            {
              "internalType": "uint256",
              "name": "fuseFee",
              "type": "uint256"
            },
            {
              "internalType": "bool",
              "name": "borrowGuardianPaused",
              "type": "bool"
            },
            {
              "internalType": "bool",
              "name": "mintGuardianPaused",
              "type": "bool"
            }
          ],
          "internalType": "struct FusePoolLens.FusePoolAsset[]",
          "name": "",
          "type": "tuple[]"
        }
      ],
      "stateMutability": "nonpayable",
      "type": "function"
    },
    {
      "inputs": [
        {
          "internalType": "contract IComptroller",
          "name": "comptroller",
          "type": "address"
        }
      ],
      "name": "getPoolAssetsWithData",
      "outputs": [
        {
          "components": [
            {
              "internalType": "address",
              "name": "cToken",
              "type": "address"
            },
            {
              "internalType": "address",
              "name": "underlyingToken",
              "type": "address"
            },
            {
              "internalType": "string",
              "name": "underlyingName",
              "type": "string"
            },
            {
              "internalType": "string",
              "name": "underlyingSymbol",
              "type": "string"
            },
            {
              "internalType": "uint256",
              "name": "underlyingDecimals",
              "type": "uint256"
            },
            {
              "internalType": "uint256",
              "name": "underlyingBalance",
              "type": "uint256"
            },
            {
              "internalType": "uint256",
              "name": "supplyRatePerBlock",
              "type": "uint256"
            },
            {
              "internalType": "uint256",
              "name": "borrowRatePerBlock",
              "type": "uint256"
            },
            {
              "internalType": "uint256",
              "name": "totalSupply",
              "type": "uint256"
            },
            {
              "internalType": "uint256",
              "name": "totalBorrow",
              "type": "uint256"
            },
            {
              "internalType": "uint256",
              "name": "supplyBalance",
              "type": "uint256"
            },
            {
              "internalType": "uint256",
              "name": "borrowBalance",
              "type": "uint256"
            },
            {
              "internalType": "uint256",
              "name": "liquidity",
              "type": "uint256"
            },
            {
              "internalType": "bool",
              "name": "membership",
              "type": "bool"
            },
            {
              "internalType": "uint256",
              "name": "exchangeRate",
              "type": "uint256"
            },
            {
              "internalType": "uint256",
              "name": "underlyingPrice",
              "type": "uint256"
            },
            {
              "internalType": "address",
              "name": "oracle",
              "type": "address"
            },
            {
              "internalType": "uint256",
              "name": "collateralFactor",
              "type": "uint256"
            },
            {
              "internalType": "uint256",
              "name": "reserveFactor",
              "type": "uint256"
            },
            {
              "internalType": "uint256",
              "name": "adminFee",
              "type": "uint256"
            },
            {
              "internalType": "uint256",
              "name": "fuseFee",
              "type": "uint256"
            },
            {
              "internalType": "bool",
              "name": "borrowGuardianPaused",
              "type": "bool"
            },
            {
              "internalType": "bool",
              "name": "mintGuardianPaused",
              "type": "bool"
            }
          ],
          "internalType": "struct FusePoolLens.FusePoolAsset[]",
          "name": "",
          "type": "tuple[]"
        }
      ],
      "stateMutability": "nonpayable",
      "type": "function"
    },
    {
      "inputs": [
        {
          "internalType": "contract IComptroller",
          "name": "comptroller",
          "type": "address"
        }
      ],
      "name": "getPoolSummary",
      "outputs": [
        {
          "internalType": "uint256",
          "name": "",
          "type": "uint256"
        },
        {
          "internalType": "uint256",
          "name": "",
          "type": "uint256"
        },
        {
          "internalType": "address[]",
          "name": "",
          "type": "address[]"
        },
        {
          "internalType": "string[]",
          "name": "",
          "type": "string[]"
        },
        {
          "internalType": "bool",
          "name": "",
          "type": "bool"
        }
      ],
      "stateMutability": "nonpayable",
      "type": "function"
    },
    {
      "inputs": [
        {
          "internalType": "address",
          "name": "account",
          "type": "address"
        }
      ],
      "name": "getPoolsByAccountWithData",
      "outputs": [
        {
          "internalType": "uint256[]",
          "name": "",
          "type": "uint256[]"
        },
        {
          "components": [
            {
              "internalType": "string",
              "name": "name",
              "type": "string"
            },
            {
              "internalType": "address",
              "name": "creator",
              "type": "address"
            },
            {
              "internalType": "address",
              "name": "comptroller",
              "type": "address"
            },
            {
              "internalType": "uint256",
              "name": "blockPosted",
              "type": "uint256"
            },
            {
              "internalType": "uint256",
              "name": "timestampPosted",
              "type": "uint256"
            }
          ],
          "internalType": "struct FusePoolDirectory.FusePool[]",
          "name": "",
          "type": "tuple[]"
        },
        {
          "components": [
            {
              "internalType": "uint256",
              "name": "totalSupply",
              "type": "uint256"
            },
            {
              "internalType": "uint256",
              "name": "totalBorrow",
              "type": "uint256"
            },
            {
              "internalType": "address[]",
              "name": "underlyingTokens",
              "type": "address[]"
            },
            {
              "internalType": "string[]",
              "name": "underlyingSymbols",
              "type": "string[]"
            },
            {
              "internalType": "bool",
              "name": "whitelistedAdmin",
              "type": "bool"
            }
          ],
          "internalType": "struct FusePoolLens.FusePoolData[]",
          "name": "",
          "type": "tuple[]"
        },
        {
          "internalType": "bool[]",
          "name": "",
          "type": "bool[]"
        }
      ],
      "stateMutability": "nonpayable",
      "type": "function"
    },
    {
      "inputs": [
        {
          "internalType": "address",
          "name": "user",
          "type": "address"
        }
      ],
      "name": "getPoolsOfUserWithData",
      "outputs": [
        {
          "internalType": "uint256[]",
          "name": "",
          "type": "uint256[]"
        },
        {
          "components": [
            {
              "internalType": "string",
              "name": "name",
              "type": "string"
            },
            {
              "internalType": "address",
              "name": "creator",
              "type": "address"
            },
            {
              "internalType": "address",
              "name": "comptroller",
              "type": "address"
            },
            {
              "internalType": "uint256",
              "name": "blockPosted",
              "type": "uint256"
            },
            {
              "internalType": "uint256",
              "name": "timestampPosted",
              "type": "uint256"
            }
          ],
          "internalType": "struct FusePoolDirectory.FusePool[]",
          "name": "",
          "type": "tuple[]"
        },
        {
          "components": [
            {
              "internalType": "uint256",
              "name": "totalSupply",
              "type": "uint256"
            },
            {
              "internalType": "uint256",
              "name": "totalBorrow",
              "type": "uint256"
            },
            {
              "internalType": "address[]",
              "name": "underlyingTokens",
              "type": "address[]"
            },
            {
              "internalType": "string[]",
              "name": "underlyingSymbols",
              "type": "string[]"
            },
            {
              "internalType": "bool",
              "name": "whitelistedAdmin",
              "type": "bool"
            }
          ],
          "internalType": "struct FusePoolLens.FusePoolData[]",
          "name": "",
          "type": "tuple[]"
        },
        {
          "internalType": "bool[]",
          "name": "",
          "type": "bool[]"
        }
      ],
      "stateMutability": "nonpayable",
      "type": "function"
    },
    {
      "inputs": [
        {
          "internalType": "bool",
          "name": "whitelistedAdmin",
          "type": "bool"
        }
      ],
      "name": "getPublicPoolsByVerificationWithData",
      "outputs": [
        {
          "internalType": "uint256[]",
          "name": "",
          "type": "uint256[]"
        },
        {
          "components": [
            {
              "internalType": "string",
              "name": "name",
              "type": "string"
            },
            {
              "internalType": "address",
              "name": "creator",
              "type": "address"
            },
            {
              "internalType": "address",
              "name": "comptroller",
              "type": "address"
            },
            {
              "internalType": "uint256",
              "name": "blockPosted",
              "type": "uint256"
            },
            {
              "internalType": "uint256",
              "name": "timestampPosted",
              "type": "uint256"
            }
          ],
          "internalType": "struct FusePoolDirectory.FusePool[]",
          "name": "",
          "type": "tuple[]"
        },
        {
          "components": [
            {
              "internalType": "uint256",
              "name": "totalSupply",
              "type": "uint256"
            },
            {
              "internalType": "uint256",
              "name": "totalBorrow",
              "type": "uint256"
            },
            {
              "internalType": "address[]",
              "name": "underlyingTokens",
              "type": "address[]"
            },
            {
              "internalType": "string[]",
              "name": "underlyingSymbols",
              "type": "string[]"
            },
            {
              "internalType": "bool",
              "name": "whitelistedAdmin",
              "type": "bool"
            }
          ],
          "internalType": "struct FusePoolLens.FusePoolData[]",
          "name": "",
          "type": "tuple[]"
        },
        {
          "internalType": "bool[]",
          "name": "",
          "type": "bool[]"
        }
      ],
      "stateMutability": "nonpayable",
      "type": "function"
    },
    {
      "inputs": [],
      "name": "getPublicPoolsWithData",
      "outputs": [
        {
          "internalType": "uint256[]",
          "name": "",
          "type": "uint256[]"
        },
        {
          "components": [
            {
              "internalType": "string",
              "name": "name",
              "type": "string"
            },
            {
              "internalType": "address",
              "name": "creator",
              "type": "address"
            },
            {
              "internalType": "address",
              "name": "comptroller",
              "type": "address"
            },
            {
              "internalType": "uint256",
              "name": "blockPosted",
              "type": "uint256"
            },
            {
              "internalType": "uint256",
              "name": "timestampPosted",
              "type": "uint256"
            }
          ],
          "internalType": "struct FusePoolDirectory.FusePool[]",
          "name": "",
          "type": "tuple[]"
        },
        {
          "components": [
            {
              "internalType": "uint256",
              "name": "totalSupply",
              "type": "uint256"
            },
            {
              "internalType": "uint256",
              "name": "totalBorrow",
              "type": "uint256"
            },
            {
              "internalType": "address[]",
              "name": "underlyingTokens",
              "type": "address[]"
            },
            {
              "internalType": "string[]",
              "name": "underlyingSymbols",
              "type": "string[]"
            },
            {
              "internalType": "bool",
              "name": "whitelistedAdmin",
              "type": "bool"
            }
          ],
          "internalType": "struct FusePoolLens.FusePoolData[]",
          "name": "",
          "type": "tuple[]"
        },
        {
          "internalType": "bool[]",
          "name": "",
          "type": "bool[]"
        }
      ],
      "stateMutability": "nonpayable",
      "type": "function"
    },
    {
      "inputs": [
        {
          "internalType": "address",
          "name": "account",
          "type": "address"
        }
      ],
      "name": "getWhitelistedPoolsByAccount",
      "outputs": [
        {
          "internalType": "uint256[]",
          "name": "",
          "type": "uint256[]"
        },
        {
          "components": [
            {
              "internalType": "string",
              "name": "name",
              "type": "string"
            },
            {
              "internalType": "address",
              "name": "creator",
              "type": "address"
            },
            {
              "internalType": "address",
              "name": "comptroller",
              "type": "address"
            },
            {
              "internalType": "uint256",
              "name": "blockPosted",
              "type": "uint256"
            },
            {
              "internalType": "uint256",
              "name": "timestampPosted",
              "type": "uint256"
            }
          ],
          "internalType": "struct FusePoolDirectory.FusePool[]",
          "name": "",
          "type": "tuple[]"
        }
      ],
      "stateMutability": "view",
      "type": "function"
    },
    {
      "inputs": [
        {
          "internalType": "address",
          "name": "account",
          "type": "address"
        }
      ],
      "name": "getWhitelistedPoolsByAccountWithData",
      "outputs": [
        {
          "internalType": "uint256[]",
          "name": "",
          "type": "uint256[]"
        },
        {
          "components": [
            {
              "internalType": "string",
              "name": "name",
              "type": "string"
            },
            {
              "internalType": "address",
              "name": "creator",
              "type": "address"
            },
            {
              "internalType": "address",
              "name": "comptroller",
              "type": "address"
            },
            {
              "internalType": "uint256",
              "name": "blockPosted",
              "type": "uint256"
            },
            {
              "internalType": "uint256",
              "name": "timestampPosted",
              "type": "uint256"
            }
          ],
          "internalType": "struct FusePoolDirectory.FusePool[]",
          "name": "",
          "type": "tuple[]"
        },
        {
          "components": [
            {
              "internalType": "uint256",
              "name": "totalSupply",
              "type": "uint256"
            },
            {
              "internalType": "uint256",
              "name": "totalBorrow",
              "type": "uint256"
            },
            {
              "internalType": "address[]",
              "name": "underlyingTokens",
              "type": "address[]"
            },
            {
              "internalType": "string[]",
              "name": "underlyingSymbols",
              "type": "string[]"
            },
            {
              "internalType": "bool",
              "name": "whitelistedAdmin",
              "type": "bool"
            }
          ],
          "internalType": "struct FusePoolLens.FusePoolData[]",
          "name": "",
          "type": "tuple[]"
        },
        {
          "internalType": "bool[]",
          "name": "",
          "type": "bool[]"
        }
      ],
      "stateMutability": "nonpayable",
      "type": "function"
    },
    {
      "inputs": [
        {
          "internalType": "contract FusePoolDirectory",
          "name": "_directory",
          "type": "address"
        },
        {
          "internalType": "string",
          "name": "_name",
          "type": "string"
        },
        {
          "internalType": "string",
          "name": "_symbol",
          "type": "string"
        },
        {
          "internalType": "address[]",
          "name": "_hardcodedAddresses",
          "type": "address[]"
        },
        {
          "internalType": "string[]",
          "name": "_hardcodedNames",
          "type": "string[]"
        },
        {
          "internalType": "string[]",
          "name": "_hardcodedSymbols",
          "type": "string[]"
        },
        {
          "internalType": "string[]",
          "name": "_uniswapLPTokenNames",
          "type": "string[]"
        },
        {
          "internalType": "string[]",
          "name": "_uniswapLPTokenSymbols",
          "type": "string[]"
        },
        {
          "internalType": "string[]",
          "name": "_uniswapLPTokenDisplayNames",
          "type": "string[]"
        }
      ],
      "name": "initialize",
      "outputs": [],
      "stateMutability": "nonpayable",
      "type": "function"
    },
    {
      "inputs": [],
      "name": "name",
      "outputs": [
        {
          "internalType": "string",
          "name": "",
          "type": "string"
        }
      ],
      "stateMutability": "view",
      "type": "function"
    },
    {
      "inputs": [],
      "name": "symbol",
      "outputs": [
        {
          "internalType": "string",
          "name": "",
          "type": "string"
        }
      ],
      "stateMutability": "view",
      "type": "function"
    },
    {
      "inputs": [
        {
          "internalType": "contract ICToken",
          "name": "cToken",
          "type": "address"
        },
        {
          "components": [
            {
              "internalType": "bytes",
              "name": "block",
              "type": "bytes"
            },
            {
              "internalType": "bytes",
              "name": "accountProofNodesRlp",
              "type": "bytes"
            },
            {
              "internalType": "bytes",
              "name": "reserveAndTimestampProofNodesRlp",
              "type": "bytes"
            },
            {
              "internalType": "bytes",
              "name": "priceAccumulatorProofNodesRlp",
              "type": "bytes"
            }
          ],
          "internalType": "struct UniswapOracle.ProofData",
          "name": "proofData",
          "type": "tuple"
        }
      ],
      "name": "verifyPrice",
      "outputs": [
        {
          "internalType": "uint256",
          "name": "",
          "type": "uint256"
        },
        {
          "internalType": "uint256",
          "name": "",
          "type": "uint256"
        }
      ],
      "stateMutability": "nonpayable",
      "type": "function"
    }
  ],
  "transactionHash": "0xc5f2cfa01c67868416844065e2671adcf53004b97763e9e6b4460f3bf95cdfa5",
  "args": [],
  "numDeployments": 3,
  "bytecode": {
    "object": "0x608060405234801561001057600080fd5b50613b2e806100206000396000f3fe608060405234801561001057600080fd5b50600436106100ea5760003560e01c806395d89b411161008c578063cd344be811610066578063cd344be814610203578063d0a164fb1461022b578063d64996e514610233578063e05811401461024657600080fd5b806395d89b41146101af578063c3530a63146101b7578063c41c2f24146101d857600080fd5b80633a1eb656116100c85780633a1eb65614610140578063516786841461015557806359d2fea614610178578063707333751461019c57600080fd5b806306fdde03146100ef5780630c5eb5a41461010d57806327e16c1f1461012d575b600080fd5b6100f7610259565b6040516101049190612b31565b60405180910390f35b61012061011b366004612b63565b6102e7565b6040516101049190612b9c565b61012061013b366004612d29565b61036f565b61015361014e366004612f52565b6103e7565b005b610168610163366004612d29565b610860565b604051610104949392919061321a565b61018b610186366004612d29565b610903565b6040516101049594939291906132fa565b6101686101aa366004612d29565b61114c565b6100f761115e565b6101ca6101c5366004612d29565b61116b565b604051610104929190613340565b6005546101eb906001600160a01b031681565b6040516001600160a01b039091168152602001610104565b61021661021136600461336e565b6114d2565b60408051928352602083019190915201610104565b61016861161a565b6101686102413660046133c7565b6116bf565b610168610254366004612d29565b6116ff565b60018054610266906133e4565b80601f0160208091040260200160405190810160405280929190818152602001828054610292906133e4565b80156102df5780601f106102b4576101008083540402835291602001916102df565b820191906000526020600020905b8154815290600101906020018083116102c257829003601f168201915b505050505081565b604051632aff3bff60e21b81526001600160a01b03828116600483015260609160009161036791869182169063abfceffc90602401600060405180830381865afa158015610339573d6000803e3d6000fd5b505050506040513d6000823e601f3d908101601f19168201604052610361919081019061341f565b8561173f565b949350505050565b60606103e182836001600160a01b031663b0772d0b6040518163ffffffff1660e01b8152600401600060405180830381865afa1580156103b3573d6000803e3d6000fd5b505050506040513d6000823e601f3d908101601f191682016040526103db919081019061341f565b3361173f565b92915050565b600054610100900460ff16158080156104075750600054600160ff909116105b806104215750303b158015610421575060005460ff166001145b6104895760405162461bcd60e51b815260206004820152602e60248201527f496e697469616c697a61626c653a20636f6e747261637420697320616c72656160448201526d191e481a5b9a5d1a585b1a5e995960921b60648201526084015b60405180910390fd5b6000805460ff1916600117905580156104ac576000805461ff0019166101001790555b6001600160a01b038a166105215760405162461bcd60e51b815260206004820152603660248201527f46757365506f6f6c4469726563746f727920696e7374616e63652063616e6e6f6044820152753a103132903a3432903d32b9379030b2323932b9b99760511b6064820152608401610480565b85518751148015610533575084518751145b61058e5760405162461bcd60e51b815260206004820152602660248201527f48617264636f64656420616464726573736573206c656e67746873206e6f742060448201526532b8bab0b61760d11b6064820152608401610480565b825184511480156105a0575081518451145b6105fe5760405162461bcd60e51b815260206004820152602960248201527f556e6973776170204c5020746f6b656e206e616d6573206c656e67746873206e60448201526837ba1032b8bab0b61760b91b6064820152608401610480565b600580546001600160a01b0319166001600160a01b038c16179055885161062c9060019060208c019061296d565b5087516106409060029060208b019061296d565b5060005b875181101561071e57604051806040016040528088838151811061066a5761066a6134b8565b60200260200101518152602001878381518110610689576106896134b8565b6020026020010151815250600360008a84815181106106aa576106aa6134b8565b60200260200101516001600160a01b03166001600160a01b0316815260200190815260200160002060008201518160000190805190602001906106ee92919061296d565b506020828101518051610707926001850192019061296d565b509050508080610716906134e4565b915050610644565b5060005b845181101561080d576004604051806060016040528087848151811061074a5761074a6134b8565b60200260200101518152602001868481518110610769576107696134b8565b60200260200101518152602001858481518110610788576107886134b8565b6020908102919091018101519091528254600181018455600093845292819020825180519394600302909101926107c2928492019061296d565b5060208281015180516107db926001850192019061296d565b50604082015180516107f791600284019160209091019061296d565b5050508080610805906134e4565b915050610722565b508015610854576000805461ff0019169055604051600181527f7f26b83ff96e1f2b6a682f133852f6798a09c465da95921460cefb38474024989060200160405180910390a15b50505050505050505050565b6005546040516351f6c8e360e11b81526001600160a01b03838116600483015260609283928392839260009283929091169063a3ed91c6906024015b600060405180830381865afa1580156108b9573d6000803e3d6000fd5b505050506040513d6000823e601f3d908101601f191682016040526108e19190810190613639565b915091506000806108f183612511565b949a9399509750929550909350505050565b60008060608060008060009050600080886001600160a01b031663b0772d0b6040518163ffffffff1660e01b8152600401600060405180830381865afa158015610951573d6000803e3d6000fd5b505050506040513d6000823e601f3d908101601f19168201604052610979919081019061341f565b9050600081516001600160401b0381111561099657610996612d56565b6040519080825280602002602001820160405280156109bf578160200160208202803683370190505b509050600082516001600160401b038111156109dd576109dd612d56565b604051908082528060200260200182016040528015610a1057816020015b60608152602001906001900390816109fb5790505b50905060008b6001600160a01b0316637dc0d1d06040518163ffffffff1660e01b8152600401602060405180830381865afa158015610a53573d6000803e3d6000fd5b505050506040513d601f19601f82011682018060405250810190610a7791906136f4565b905060005b8451811015611044576000858281518110610a9957610a996134b8565b6020026020010151905060008e6001600160a01b0316638e8f294b836040518263ffffffff1660e01b8152600401610ae091906001600160a01b0391909116815260200190565b6040805180830381865afa158015610afc573d6000803e3d6000fd5b505050506040513d601f19601f82011682018060405250810190610b20919061371c565b50905080610b2f575050611032565b6000826001600160a01b03166373acee986040518163ffffffff1660e01b81526004016020604051808303816000875af1158015610b71573d6000803e3d6000fd5b505050506040513d601f19601f82011682018060405250810190610b95919061374a565b90506000836001600160a01b031663dc028ab16040518163ffffffff1660e01b8152600401602060405180830381865afa158015610bd7573d6000803e3d6000fd5b505050506040513d601f19601f82011682018060405250810190610bfb919061374a565b846001600160a01b03166361feacff6040518163ffffffff1660e01b8152600401602060405180830381865afa158015610c39573d6000803e3d6000fd5b505050506040513d601f19601f82011682018060405250810190610c5d919061374a565b856001600160a01b0316638f840ddd6040518163ffffffff1660e01b8152600401602060405180830381865afa158015610c9b573d6000803e3d6000fd5b505050506040513d601f19601f82011682018060405250810190610cbf919061374a565b610cc99190613763565b610cd39190613763565b82856001600160a01b0316633b1d21a26040518163ffffffff1660e01b8152600401602060405180830381865afa158015610d12573d6000803e3d6000fd5b505050506040513d601f19601f82011682018060405250810190610d36919061374a565b610d409190613763565b610d4a919061377b565b60405163fc57d4df60e01b81526001600160a01b03868116600483015291925060009188169063fc57d4df90602401602060405180830381865afa158015610d96573d6000803e3d6000fd5b505050506040513d601f19601f82011682018060405250810190610dba919061374a565b9050670de0b6b3a7640000610dcf8285613792565b610dd991906137b1565b610de3908d613763565b9b50670de0b6b3a7640000610df88284613792565b610e0291906137b1565b610e0c908c613763565b9a50846001600160a01b031663ac784ddc6040518163ffffffff1660e01b8152600401602060405180830381865afa158015610e4c573d6000803e3d6000fd5b505050506040513d601f19601f82011682018060405250810190610e7091906137d3565b15610f56576000898781518110610e8957610e896134b8565b60200260200101906001600160a01b031690816001600160a01b03168152505060028054610eb6906133e4565b80601f0160208091040260200160405190810160405280929190818152602001828054610ee2906133e4565b8015610f2f5780601f10610f0457610100808354040283529160200191610f2f565b820191906000526020600020905b815481529060010190602001808311610f1257829003601f168201915b5050505050888781518110610f4657610f466134b8565b602002602001018190525061102c565b846001600160a01b0316636f307dc36040518163ffffffff1660e01b8152600401602060405180830381865afa158015610f94573d6000803e3d6000fd5b505050506040513d601f19601f82011682018060405250810190610fb891906136f4565b898781518110610fca57610fca6134b8565b60200260200101906001600160a01b031690816001600160a01b03168152505061100c898781518110610fff57610fff6134b8565b6020026020010151612718565b9050888781518110611020576110206134b8565b60200260200101819052505b50505050505b8061103c816134e4565b915050610a7c565b506000600560009054906101000a90046001600160a01b03166001600160a01b03166343e20a1d8e6001600160a01b031663f851a4406040518163ffffffff1660e01b8152600401602060405180830381865afa1580156110a9573d6000803e3d6000fd5b505050506040513d601f19601f820116820180604052508101906110cd91906136f4565b6040516001600160e01b031960e084901b1681526001600160a01b039091166004820152602401602060405180830381865afa158015611111573d6000803e3d6000fd5b505050506040513d601f19601f8201168201806040525081019061113591906137d3565b959d969c50929a5090985092965092945050505050565b6060806060806000806108e18761116b565b60028054610266906133e4565b6060806000600560009054906101000a90046001600160a01b03166001600160a01b031663d88ff1f46040518163ffffffff1660e01b8152600401600060405180830381865afa1580156111c3573d6000803e3d6000fd5b505050506040513d6000823e601f3d908101601f191682016040526111eb91908101906137f0565b90506000805b82518110156112be57600083828151811061120e5761120e6134b8565b6020026020010151604001519050806001600160a01b0316639b19251a886040518263ffffffff1660e01b815260040161125791906001600160a01b0391909116815260200190565b602060405180830381865afa158015611274573d6000803e3d6000fd5b505050506040513d601f19601f8201168201806040525081019061129891906137d3565b156112ab57826112a7816134e4565b9350505b50806112b6816134e4565b9150506111f1565b506000816001600160401b038111156112d9576112d9612d56565b604051908082528060200260200182016040528015611302578160200160208202803683370190505b5090506000826001600160401b0381111561131f5761131f612d56565b60405190808252806020026020018201604052801561139457816020015b6113816040518060a001604052806060815260200160006001600160a01b0316815260200160006001600160a01b0316815260200160008152602001600081525090565b81526020019060019003908161133d5790505b5090506000805b85518110156114c45760008682815181106113b8576113b86134b8565b6020026020010151604001519050806001600160a01b0316639b19251a8b6040518263ffffffff1660e01b815260040161140191906001600160a01b0391909116815260200190565b602060405180830381865afa15801561141e573d6000803e3d6000fd5b505050506040513d601f19601f8201168201806040525081019061144291906137d3565b156114b1578185848151811061145a5761145a6134b8565b602002602001018181525050868281518110611478576114786134b8565b6020026020010151848481518110611492576114926134b8565b602002602001018190525082806114a8906134e4565b935050506114c4565b50806114bc816134e4565b91505061139b565b509197909650945050505050565b6000806000846001600160a01b0316635fe3b5676040518163ffffffff1660e01b8152600401602060405180830381865afa158015611515573d6000803e3d6000fd5b505050506040513d601f19601f8201168201806040525081019061153991906136f4565b6001600160a01b0316637dc0d1d06040518163ffffffff1660e01b8152600401602060405180830381865afa158015611576573d6000803e3d6000fd5b505050506040513d601f19601f8201168201806040525081019061159a91906136f4565b6040516319a6897d60e31b81529091506001600160a01b0382169063cd344be8906115cb9088908890600401613892565b60408051808303816000875af11580156115e9573d6000803e3d6000fd5b505050506040513d601f19601f8201168201806040525081019061160d919061393f565b92509250505b9250929050565b606080606080600080600560009054906101000a90046001600160a01b03166001600160a01b0316634ae26ea16040518163ffffffff1660e01b8152600401600060405180830381865afa158015611676573d6000803e3d6000fd5b505050506040513d6000823e601f3d908101601f1916820160405261169e9190810190613639565b915091506000806116ae83612511565b949993985096509294509092505050565b6005546040516310c51ddf60e11b8152821515600482015260609182918291829160009182916001600160a01b039091169063218a3bbe9060240161089c565b60055460405163f348960d60e01b81526001600160a01b03838116600483015260609283928392839260009283929091169063f348960d9060240161089c565b60606000805b845181101561180e576000866001600160a01b0316638e8f294b878481518110611771576117716134b8565b60200260200101516040518263ffffffff1660e01b81526004016117a491906001600160a01b0391909116815260200190565b6040805180830381865afa1580156117c0573d6000803e3d6000fd5b505050506040513d601f19601f820116820180604052508101906117e4919061371c565b50905080156117fb57826117f7816134e4565b9350505b5080611806816134e4565b915050611745565b506000816001600160401b0381111561182957611829612d56565b60405190808252806020026020018201604052801561186257816020015b61184f6129f1565b8152602001906001900390816118475790505b509050600080876001600160a01b0316637dc0d1d06040518163ffffffff1660e01b8152600401602060405180830381865afa1580156118a6573d6000803e3d6000fd5b505050506040513d601f19601f820116820180604052508101906118ca91906136f4565b905060005b8751811015612504576000808a6001600160a01b0316638e8f294b8b85815181106118fc576118fc6134b8565b60200260200101516040518263ffffffff1660e01b815260040161192f91906001600160a01b0391909116815260200190565b6040805180830381865afa15801561194b573d6000803e3d6000fd5b505050506040513d601f19601f8201168201806040525081019061196f919061371c565b915091508161197f5750506124f2565b6119876129f1565b60008b858151811061199b5761199b6134b8565b6020908102919091018101516001600160a01b03811680855260408051632b1e137760e21b81529051929450909263ac784ddc926004808401938290030181865afa1580156119ee573d6000803e3d6000fd5b505050506040513d601f19601f82011682018060405250810190611a1291906137d3565b15611b565760018054611a24906133e4565b80601f0160208091040260200160405190810160405280929190818152602001828054611a50906133e4565b8015611a9d5780601f10611a7257610100808354040283529160200191611a9d565b820191906000526020600020905b815481529060010190602001808311611a8057829003601f168201915b5050505050826040018190525060028054611ab7906133e4565b80601f0160208091040260200160405190810160405280929190818152602001828054611ae3906133e4565b8015611b305780601f10611b0557610100808354040283529160200191611b30565b820191906000526020600020905b815481529060010190602001808311611b1357829003601f168201915b50505050506060830152601260808301526001600160a01b038b163160a0830152611cbc565b806001600160a01b0316636f307dc36040518163ffffffff1660e01b8152600401602060405180830381865afa158015611b94573d6000803e3d6000fd5b505050506040513d601f19601f82011682018060405250810190611bb891906136f4565b6001600160a01b031660208301819052611bd181612718565b84604001856060018290528290525050806001600160a01b031663313ce5676040518163ffffffff1660e01b8152600401602060405180830381865afa158015611c1f573d6000803e3d6000fd5b505050506040513d601f19601f82011682018060405250810190611c439190613963565b60ff1660808401526040516370a0823160e01b81526001600160a01b038d811660048301528216906370a0823190602401602060405180830381865afa158015611c91573d6000803e3d6000fd5b505050506040513d601f19601f82011682018060405250810190611cb5919061374a565b60a0840152505b806001600160a01b031663ae9d70b06040518163ffffffff1660e01b8152600401602060405180830381865afa158015611cfa573d6000803e3d6000fd5b505050506040513d601f19601f82011682018060405250810190611d1e919061374a565b8260c0018181525050806001600160a01b031663f8f9da286040518163ffffffff1660e01b8152600401602060405180830381865afa158015611d65573d6000803e3d6000fd5b505050506040513d601f19601f82011682018060405250810190611d89919061374a565b8260e0018181525050806001600160a01b0316633b1d21a26040518163ffffffff1660e01b8152600401602060405180830381865afa158015611dd0573d6000803e3d6000fd5b505050506040513d601f19601f82011682018060405250810190611df4919061374a565b82610180018181525050806001600160a01b03166373acee986040518163ffffffff1660e01b81526004016020604051808303816000875af1158015611e3e573d6000803e3d6000fd5b505050506040513d601f19601f82011682018060405250810190611e62919061374a565b82610120018181525050806001600160a01b031663dc028ab16040518163ffffffff1660e01b8152600401602060405180830381865afa158015611eaa573d6000803e3d6000fd5b505050506040513d601f19601f82011682018060405250810190611ece919061374a565b816001600160a01b03166361feacff6040518163ffffffff1660e01b8152600401602060405180830381865afa158015611f0c573d6000803e3d6000fd5b505050506040513d601f19601f82011682018060405250810190611f30919061374a565b826001600160a01b0316638f840ddd6040518163ffffffff1660e01b8152600401602060405180830381865afa158015611f6e573d6000803e3d6000fd5b505050506040513d601f19601f82011682018060405250810190611f92919061374a565b611f9c9190613763565b611fa69190613763565b826101200151836101800151611fbc9190613763565b611fc6919061377b565b610100830152604051633af9e66960e01b81526001600160a01b038c81166004830152821690633af9e669906024016020604051808303816000875af1158015612014573d6000803e3d6000fd5b505050506040513d601f19601f82011682018060405250810190612038919061374a565b6101408301526040516395dd919360e01b81526001600160a01b038c811660048301528216906395dd919390602401602060405180830381865afa158015612084573d6000803e3d6000fd5b505050506040513d601f19601f820116820180604052508101906120a8919061374a565b61016083015260405163929fe9a160e01b81526001600160a01b038c8116600483015282811660248301528e169063929fe9a190604401602060405180830381865afa1580156120fc573d6000803e3d6000fd5b505050506040513d601f19601f8201168201806040525081019061212091906137d3565b15156101a08301526040805163182df0f560e01b815290516001600160a01b0383169163182df0f59160048083019260209291908290030181865afa15801561216d573d6000803e3d6000fd5b505050506040513d601f19601f82011682018060405250810190612191919061374a565b6101c083015260405163fc57d4df60e01b81526001600160a01b03828116600483015287169063fc57d4df90602401602060405180830381865afa1580156121dd573d6000803e3d6000fd5b505050506040513d601f19601f82011682018060405250810190612201919061374a565b6101e08301526001600160a01b038681166102008401819052602084015160405163addd509960e01b8152921660048301529063addd509990602401602060405180830381865afa925050508015612276575060408051601f3d908101601f19168201909252612273918101906136f4565b60015b61227f5761228f565b6001600160a01b03166102008301525b8282610220018181525050806001600160a01b031663173b99046040518163ffffffff1660e01b8152600401602060405180830381865afa1580156122d8573d6000803e3d6000fd5b505050506040513d601f19601f820116820180604052508101906122fc919061374a565b82610240018181525050806001600160a01b0316638d02d9a16040518163ffffffff1660e01b8152600401602060405180830381865afa158015612344573d6000803e3d6000fd5b505050506040513d601f19601f82011682018060405250810190612368919061374a565b82610260018181525050806001600160a01b031663dbfe7c196040518163ffffffff1660e01b8152600401602060405180830381865afa1580156123b0573d6000803e3d6000fd5b505050506040513d601f19601f820116820180604052508101906123d4919061374a565b610280830152604051636d154ea560e01b81526001600160a01b0382811660048301528e1690636d154ea590602401602060405180830381865afa158015612420573d6000803e3d6000fd5b505050506040513d601f19601f8201168201806040525081019061244491906137d3565b15156102a083015260405163731f0c2b60e01b81526001600160a01b0382811660048301528e169063731f0c2b90602401602060405180830381865afa158015612492573d6000803e3d6000fd5b505050506040513d601f19601f820116820180604052508101906124b691906137d3565b15156102c0830152875182908990899081106124d4576124d46134b8565b602002602001018190525086806124ea906134e4565b975050505050505b806124fc816134e4565b9150506118cf565b5091979650505050505050565b606080600083516001600160401b0381111561252f5761252f612d56565b60405190808252806020026020018201604052801561259457816020015b6125816040518060a00160405280600081526020016000815260200160608152602001606081526020016000151581525090565b81526020019060019003908161254d5790505b509050600084516001600160401b038111156125b2576125b2612d56565b6040519080825280602002602001820160405280156125db578160200160208202803683370190505b50905060005b855181101561270d57306001600160a01b03166359d2fea687838151811061260b5761260b6134b8565b6020026020010151604001516040518263ffffffff1660e01b815260040161264291906001600160a01b0391909116815260200190565b6000604051808303816000875af192505050801561268257506040513d6000823e601f3d908101601f1916820160405261267f9190810190613a05565b60015b6126af57600182828151811061269a5761269a6134b8565b911515602092830291909101909101526126fb565b6040518060a001604052808681526020018581526020018481526020018381526020018215158152508887815181106126ea576126ea6134b8565b602002602001018190525050505050505b80612705816134e4565b9150506125e1565b509094909350915050565b6001600160a01b038116600090815260036020526040902060010180546060918291612743906133e4565b159050612889576001600160a01b0383166000908152600360205260409020805460018201908290612774906133e4565b80601f01602080910402602001604051908101604052809291908181526020018280546127a0906133e4565b80156127ed5780601f106127c2576101008083540402835291602001916127ed565b820191906000526020600020905b8154815290600101906020018083116127d057829003601f168201915b50505050509150808054612800906133e4565b80601f016020809104026020016040519081016040528092919081815260200182805461282c906133e4565b80156128795780601f1061284e57610100808354040283529160200191612879565b820191906000526020600020905b81548152906001019060200180831161285c57829003601f168201915b5050505050905091509150915091565b60008390506000816001600160a01b03166306fdde036040518163ffffffff1660e01b8152600401600060405180830381865afa1580156128ce573d6000803e3d6000fd5b505050506040513d6000823e601f3d908101601f191682016040526128f69190810190613aed565b90506000826001600160a01b03166395d89b416040518163ffffffff1660e01b8152600401600060405180830381865afa158015612938573d6000803e3d6000fd5b505050506040513d6000823e601f3d908101601f191682016040526129609190810190613aed565b9196919550909350505050565b828054612979906133e4565b90600052602060002090601f01602090048101928261299b57600085556129e1565b82601f106129b457805160ff19168380011785556129e1565b828001600101855582156129e1579182015b828111156129e15782518255916020019190600101906129c6565b506129ed929150612ac0565b5090565b604051806102e0016040528060006001600160a01b0316815260200160006001600160a01b031681526020016060815260200160608152602001600081526020016000815260200160008152602001600081526020016000815260200160008152602001600081526020016000815260200160008152602001600015158152602001600081526020016000815260200160006001600160a01b03168152602001600081526020016000815260200160008152602001600081526020016000151581526020016000151581525090565b5b808211156129ed5760008155600101612ac1565b60005b83811015612af0578181015183820152602001612ad8565b83811115612aff576000848401525b50505050565b60008151808452612b1d816020860160208601612ad5565b601f01601f19169290920160200192915050565b602081526000612b446020830184612b05565b9392505050565b6001600160a01b0381168114612b6057600080fd5b50565b60008060408385031215612b7657600080fd5b8235612b8181612b4b565b91506020830135612b9181612b4b565b809150509250929050565b60006020808301818452808551808352604092508286019150828160051b87010184880160005b83811015612d1b57888303603f19018552815180516001600160a01b031684526102e0818901516001600160a01b038116868b015250878201518189870152612c0e82870182612b05565b91505060608083015186830382880152612c288382612b05565b6080858101519089015260a0808601519089015260c0808601519089015260e08086015190890152610100808601519089015261012080860151908901526101408086015190890152610160808601519089015261018080860151908901526101a0808601511515908901526101c080860151908901526101e08086015190890152610200808601516001600160a01b03169089015261022080860151908901526102408086015190890152610260808601519089015261028080860151908901526102a0808601511515908901526102c094850151151594909701939093525050509386019390860190600101612bc3565b509098975050505050505050565b600060208284031215612d3b57600080fd5b8135612b4481612b4b565b8035612d5181612b4b565b919050565b634e487b7160e01b600052604160045260246000fd5b60405160a081016001600160401b0381118282101715612d8e57612d8e612d56565b60405290565b604051601f8201601f191681016001600160401b0381118282101715612dbc57612dbc612d56565b604052919050565b60006001600160401b03821115612ddd57612ddd612d56565b50601f01601f191660200190565b600082601f830112612dfc57600080fd5b8135612e0f612e0a82612dc4565b612d94565b818152846020838601011115612e2457600080fd5b816020850160208301376000918101602001919091529392505050565b60006001600160401b03821115612e5a57612e5a612d56565b5060051b60200190565b600082601f830112612e7557600080fd5b81356020612e85612e0a83612e41565b82815260059290921b84018101918181019086841115612ea457600080fd5b8286015b84811015612ec8578035612ebb81612b4b565b8352918301918301612ea8565b509695505050505050565b600082601f830112612ee457600080fd5b81356020612ef4612e0a83612e41565b82815260059290921b84018101918181019086841115612f1357600080fd5b8286015b84811015612ec85780356001600160401b03811115612f365760008081fd5b612f448986838b0101612deb565b845250918301918301612f17565b60008060008060008060008060006101208a8c031215612f7157600080fd5b612f7a8a612d46565b985060208a01356001600160401b0380821115612f9657600080fd5b612fa28d838e01612deb565b995060408c0135915080821115612fb857600080fd5b612fc48d838e01612deb565b985060608c0135915080821115612fda57600080fd5b612fe68d838e01612e64565b975060808c0135915080821115612ffc57600080fd5b6130088d838e01612ed3565b965060a08c013591508082111561301e57600080fd5b61302a8d838e01612ed3565b955060c08c013591508082111561304057600080fd5b61304c8d838e01612ed3565b945060e08c013591508082111561306257600080fd5b61306e8d838e01612ed3565b93506101008c013591508082111561308557600080fd5b506130928c828d01612ed3565b9150509295985092959850929598565b600081518084526020808501945080840160005b838110156130d2578151875295820195908201906001016130b6565b509495945050505050565b600081518084526020808501808196508360051b8101915082860160005b85811015612504578284038952815160a0815181875261311d82880182612b05565b838901516001600160a01b03908116898b015260408086015190911690890152606080850151908901526080938401519390970192909252505097840197908401906001016130fb565b600081518084526020808501945080840160005b838110156130d25781516001600160a01b03168752958201959082019060010161317b565b600081518084526020808501808196508360051b8101915082860160005b858110156125045782840389526131d6848351612b05565b988501989350908401906001016131be565b600081518084526020808501945080840160005b838110156130d25781511515875295820195908201906001016131fc565b6000608080835261322d818401886130a2565b60208482038186015261324082896130dd565b91506040858303818701528288518085528385019150838160051b860101848b0160005b838110156132d557601f19888403018552815160a081518552888201518986015287820151818987015261329a82870182613167565b915050606080830151868303828801526132b483826131a0565b938d01511515968d0196909652505094870194925090860190600101613264565b505088810360608a01526132e9818b6131e8565b9d9c50505050505050505050505050565b85815284602082015260a06040820152600061331960a0830186613167565b828103606084015261332b81866131a0565b91505082151560808301529695505050505050565b60408152600061335360408301856130a2565b828103602084015261336581856130dd565b95945050505050565b6000806040838503121561338157600080fd5b823561338c81612b4b565b915060208301356001600160401b038111156133a757600080fd5b830160808186031215612b9157600080fd5b8015158114612b6057600080fd5b6000602082840312156133d957600080fd5b8135612b44816133b9565b600181811c908216806133f857607f821691505b6020821081141561341957634e487b7160e01b600052602260045260246000fd5b50919050565b6000602080838503121561343257600080fd5b82516001600160401b0381111561344857600080fd5b8301601f8101851361345957600080fd5b8051613467612e0a82612e41565b81815260059190911b8201830190838101908783111561348657600080fd5b928401925b828410156134ad57835161349e81612b4b565b8252928401929084019061348b565b979650505050505050565b634e487b7160e01b600052603260045260246000fd5b634e487b7160e01b600052601160045260246000fd5b60006000198214156134f8576134f86134ce565b5060010190565b600082601f83011261351057600080fd5b815161351e612e0a82612dc4565b81815284602083860101111561353357600080fd5b610367826020830160208701612ad5565b600082601f83011261355557600080fd5b81516020613565612e0a83612e41565b82815260059290921b8401810191818101908684111561358457600080fd5b8286015b84811015612ec85780516001600160401b03808211156135a85760008081fd5b9088019060a0828b03601f19018113156135c25760008081fd5b6135ca612d6c565b87840151838111156135dc5760008081fd5b6135ea8d8a838801016134ff565b82525060409250828401516135fe81612b4b565b8189015260608481015161361181612b4b565b9382019390935260808481015193820193909352920151908201528352918301918301613588565b6000806040838503121561364c57600080fd5b82516001600160401b038082111561366357600080fd5b818501915085601f83011261367757600080fd5b81516020613687612e0a83612e41565b82815260059290921b840181019181810190898411156136a657600080fd5b948201945b838610156136c4578551825294820194908201906136ab565b918801519196509093505050808211156136dd57600080fd5b506136ea85828601613544565b9150509250929050565b60006020828403121561370657600080fd5b8151612b4481612b4b565b8051612d51816133b9565b6000806040838503121561372f57600080fd5b825161373a816133b9565b6020939093015192949293505050565b60006020828403121561375c57600080fd5b5051919050565b60008219821115613776576137766134ce565b500190565b60008282101561378d5761378d6134ce565b500390565b60008160001904831182151516156137ac576137ac6134ce565b500290565b6000826137ce57634e487b7160e01b600052601260045260246000fd5b500490565b6000602082840312156137e557600080fd5b8151612b44816133b9565b60006020828403121561380257600080fd5b81516001600160401b0381111561381857600080fd5b61036784828501613544565b6000808335601e1984360301811261383b57600080fd5b83016020810192503590506001600160401b0381111561385a57600080fd5b80360383131561161357600080fd5b81835281816020850137506000828201602090810191909152601f909101601f19169091010190565b6001600160a01b03831681526040602082015260006138b18380613824565b608060408501526138c660c085018284613869565b9150506138d66020850185613824565b603f19808685030160608701526138ee848385613869565b93506138fd6040880188613824565b9350915080868503016080870152613916848484613869565b93506139256060880188613824565b93509150808685030160a0870152506134ad838383613869565b6000806040838503121561395257600080fd5b505080516020909101519092909150565b60006020828403121561397557600080fd5b815160ff81168114612b4457600080fd5b600082601f83011261399757600080fd5b815160206139a7612e0a83612e41565b82815260059290921b840181019181810190868411156139c657600080fd5b8286015b84811015612ec85780516001600160401b038111156139e95760008081fd5b6139f78986838b01016134ff565b8452509183019183016139ca565b600080600080600060a08688031215613a1d57600080fd5b85519450602080870151945060408701516001600160401b0380821115613a4357600080fd5b818901915089601f830112613a5757600080fd5b8151613a65612e0a82612e41565b81815260059190911b8301840190848101908c831115613a8457600080fd5b938501935b82851015613aab578451613a9c81612b4b565b82529385019390850190613a89565b60608c01519098509450505080831115613ac457600080fd5b5050613ad288828901613986565b925050613ae160808701613711565b90509295509295909350565b600060208284031215613aff57600080fd5b81516001600160401b03811115613b1557600080fd5b610367848285016134ff56fea164736f6c634300080a000a",
    "linkReferences": {}
  },
  "methodIdentifiers": {
    "directory()": "c41c2f24",
    "getPoolAssetsByUser(address,address)": "0c5eb5a4",
    "getPoolAssetsWithData(address)": "27e16c1f",
    "getPoolSummary(address)": "59d2fea6",
    "getPoolsByAccountWithData(address)": "51678684",
    "getPoolsOfUserWithData(address)": "e0581140",
    "getPublicPoolsByVerificationWithData(bool)": "d64996e5",
    "getPublicPoolsWithData()": "d0a164fb",
    "getWhitelistedPoolsByAccount(address)": "c3530a63",
    "getWhitelistedPoolsByAccountWithData(address)": "70733375",
    "initialize(address,string,string,address[],string[],string[],string[],string[],string[])": "3a1eb656",
    "name()": "06fdde03",
    "symbol()": "95d89b41",
    "verifyPrice(address,(bytes,bytes,bytes,bytes))": "cd344be8"
  }
}