{
  "address": "0xcE49eeAa20E08eFfFf403C6d8E7A595a5ce301c6",
  "abi": [
    {
      "anonymous": false,
      "inputs": [
        {
          "indexed": false,
          "internalType": "uint8",
          "name": "version",
          "type": "uint8"
        }
      ],
      "name": "Initialized",
      "type": "event"
    },
    {
      "anonymous": false,
      "inputs": [
        {
          "indexed": true,
          "internalType": "address",
          "name": "previousOwner",
          "type": "address"
        },
        {
          "indexed": true,
          "internalType": "address",
          "name": "newOwner",
          "type": "address"
        }
      ],
      "name": "OwnershipTransferred",
      "type": "event"
    },
    {
      "inputs": [],
      "name": "BTC_TOKEN",
      "outputs": [
        {
          "internalType": "address",
          "name": "",
          "type": "address"
        }
      ],
      "stateMutability": "view",
      "type": "function"
    },
    {
      "inputs": [
        {
          "internalType": "address",
          "name": "sender",
          "type": "address"
        },
        {
          "internalType": "uint256",
          "name": "amount0",
          "type": "uint256"
        },
        {
          "internalType": "uint256",
          "name": "amount1",
          "type": "uint256"
        },
        {
          "internalType": "bytes",
          "name": "data",
          "type": "bytes"
        }
      ],
      "name": "BeamSwapCall",
      "outputs": [],
      "stateMutability": "nonpayable",
      "type": "function"
    },
    {
      "inputs": [],
      "name": "STABLE_TOKEN",
      "outputs": [
        {
          "internalType": "address",
          "name": "",
          "type": "address"
        }
      ],
      "stateMutability": "view",
      "type": "function"
    },
    {
      "inputs": [],
      "name": "UNISWAP_V2_ROUTER_02",
      "outputs": [
        {
          "internalType": "contract IUniswapV2Router02",
          "name": "",
          "type": "address"
        }
      ],
      "stateMutability": "view",
      "type": "function"
    },
    {
      "inputs": [],
      "name": "UNISWAP_V2_ROUTER_02_ADDRESS",
      "outputs": [
        {
          "internalType": "address",
          "name": "",
          "type": "address"
        }
      ],
      "stateMutability": "view",
      "type": "function"
    },
    {
      "inputs": [],
      "name": "W_NATIVE",
      "outputs": [
        {
          "internalType": "contract IW_NATIVE",
          "name": "",
          "type": "address"
        }
      ],
      "stateMutability": "view",
      "type": "function"
    },
    {
      "inputs": [],
      "name": "W_NATIVE_ADDRESS",
      "outputs": [
        {
          "internalType": "address",
          "name": "",
          "type": "address"
        }
      ],
      "stateMutability": "view",
      "type": "function"
    },
    {
      "inputs": [
        {
          "internalType": "bytes",
          "name": "data",
          "type": "bytes"
        }
      ],
      "name": "_becomeImplementation",
      "outputs": [],
      "stateMutability": "nonpayable",
      "type": "function"
    },
    {
      "inputs": [
        {
          "internalType": "contract IRedemptionStrategy[]",
          "name": "strategies",
          "type": "address[]"
        },
        {
          "internalType": "bool[]",
          "name": "whitelisted",
          "type": "bool[]"
        }
      ],
      "name": "_whitelistRedemptionStrategies",
      "outputs": [],
      "stateMutability": "nonpayable",
      "type": "function"
    },
    {
      "inputs": [
        {
          "internalType": "contract IRedemptionStrategy",
          "name": "strategy",
          "type": "address"
        },
        {
          "internalType": "bool",
          "name": "whitelisted",
          "type": "bool"
        }
      ],
      "name": "_whitelistRedemptionStrategy",
      "outputs": [],
      "stateMutability": "nonpayable",
      "type": "function"
    },
    {
      "inputs": [
        {
          "internalType": "contract IERC20Upgradeable",
          "name": "inputToken",
          "type": "address"
        },
        {
          "internalType": "uint256",
          "name": "inputAmount",
          "type": "uint256"
        },
        {
          "internalType": "contract IFundsConversionStrategy",
          "name": "strategy",
          "type": "address"
        },
        {
          "internalType": "bytes",
          "name": "strategyData",
          "type": "bytes"
        }
      ],
      "name": "convertCustomFunds",
      "outputs": [
        {
          "internalType": "contract IERC20Upgradeable",
          "name": "",
          "type": "address"
        },
        {
          "internalType": "uint256",
          "name": "",
          "type": "uint256"
        }
      ],
      "stateMutability": "nonpayable",
      "type": "function"
    },
    {
      "inputs": [],
      "name": "flashSwapFee",
      "outputs": [
        {
          "internalType": "uint8",
          "name": "",
          "type": "uint8"
        }
      ],
      "stateMutability": "view",
      "type": "function"
    },
    {
      "inputs": [
        {
          "internalType": "address",
          "name": "_wtoken",
          "type": "address"
        },
        {
          "internalType": "address",
          "name": "_uniswapV2router",
          "type": "address"
        },
        {
          "internalType": "address",
          "name": "_stableToken",
          "type": "address"
        },
        {
          "internalType": "address",
          "name": "_btcToken",
          "type": "address"
        },
        {
          "internalType": "bytes",
          "name": "_uniswapPairInitHashCode",
          "type": "bytes"
        },
        {
          "internalType": "uint8",
          "name": "_flashSwapFee",
          "type": "uint8"
        }
      ],
      "name": "initialize",
      "outputs": [],
      "stateMutability": "nonpayable",
      "type": "function"
    },
    {
      "inputs": [
        {
          "internalType": "address",
          "name": "sender",
          "type": "address"
        },
        {
          "internalType": "uint256",
          "name": "amount0",
          "type": "uint256"
        },
        {
          "internalType": "uint256",
          "name": "amount1",
          "type": "uint256"
        },
        {
          "internalType": "bytes",
          "name": "data",
          "type": "bytes"
        }
      ],
      "name": "moraswapCall",
      "outputs": [],
      "stateMutability": "nonpayable",
      "type": "function"
    },
    {
      "inputs": [],
      "name": "owner",
      "outputs": [
        {
          "internalType": "address",
          "name": "",
          "type": "address"
        }
      ],
      "stateMutability": "view",
      "type": "function"
    },
    {
      "inputs": [
        {
          "internalType": "address",
          "name": "sender",
          "type": "address"
        },
        {
          "internalType": "uint256",
          "name": "amount0",
          "type": "uint256"
        },
        {
          "internalType": "uint256",
          "name": "amount1",
          "type": "uint256"
        },
        {
          "internalType": "bytes",
          "name": "data",
          "type": "bytes"
        }
      ],
      "name": "pancakeCall",
      "outputs": [],
      "stateMutability": "nonpayable",
      "type": "function"
    },
    {
      "inputs": [
        {
          "internalType": "contract IERC20Upgradeable",
          "name": "underlyingCollateral",
          "type": "address"
        },
        {
          "internalType": "uint256",
          "name": "underlyingCollateralSeized",
          "type": "uint256"
        },
        {
          "internalType": "contract IRedemptionStrategy",
          "name": "strategy",
          "type": "address"
        },
        {
          "internalType": "bytes",
          "name": "strategyData",
          "type": "bytes"
        }
      ],
      "name": "redeemCustomCollateral",
      "outputs": [
        {
          "internalType": "contract IERC20Upgradeable",
          "name": "",
          "type": "address"
        },
        {
          "internalType": "uint256",
          "name": "",
          "type": "uint256"
        }
      ],
      "stateMutability": "nonpayable",
      "type": "function"
    },
    {
      "inputs": [
        {
          "internalType": "address",
          "name": "",
          "type": "address"
        }
      ],
      "name": "redemptionStrategiesWhitelist",
      "outputs": [
        {
          "internalType": "bool",
          "name": "",
          "type": "bool"
        }
      ],
      "stateMutability": "view",
      "type": "function"
    },
    {
      "inputs": [],
      "name": "renounceOwnership",
      "outputs": [],
      "stateMutability": "nonpayable",
      "type": "function"
    },
    {
      "inputs": [
        {
          "internalType": "address",
          "name": "borrower",
          "type": "address"
        },
        {
          "internalType": "contract ICEther",
          "name": "cEther",
          "type": "address"
        },
        {
          "internalType": "contract ICErc20",
          "name": "cErc20Collateral",
          "type": "address"
        },
        {
          "internalType": "uint256",
          "name": "minOutputAmount",
          "type": "uint256"
        },
        {
          "internalType": "address",
          "name": "exchangeSeizedTo",
          "type": "address"
        },
        {
          "internalType": "contract IUniswapV2Router02",
          "name": "uniswapV2Router",
          "type": "address"
        },
        {
          "internalType": "contract IRedemptionStrategy[]",
          "name": "redemptionStrategies",
          "type": "address[]"
        },
        {
          "internalType": "bytes[]",
          "name": "strategyData",
          "type": "bytes[]"
        }
      ],
      "name": "safeLiquidate",
      "outputs": [
        {
          "internalType": "uint256",
          "name": "",
          "type": "uint256"
        }
      ],
      "stateMutability": "payable",
      "type": "function"
    },
    {
      "inputs": [
        {
          "internalType": "address",
          "name": "borrower",
          "type": "address"
        },
        {
          "internalType": "uint256",
          "name": "repayAmount",
          "type": "uint256"
        },
        {
          "internalType": "contract ICErc20",
          "name": "cErc20",
          "type": "address"
        },
        {
          "internalType": "contract ICToken",
          "name": "cTokenCollateral",
          "type": "address"
        },
        {
          "internalType": "uint256",
          "name": "minOutputAmount",
          "type": "uint256"
        },
        {
          "internalType": "address",
          "name": "exchangeSeizedTo",
          "type": "address"
        },
        {
          "internalType": "contract IUniswapV2Router02",
          "name": "uniswapV2Router",
          "type": "address"
        },
        {
          "internalType": "contract IRedemptionStrategy[]",
          "name": "redemptionStrategies",
          "type": "address[]"
        },
        {
          "internalType": "bytes[]",
          "name": "strategyData",
          "type": "bytes[]"
        }
      ],
      "name": "safeLiquidate",
      "outputs": [
        {
          "internalType": "uint256",
          "name": "",
          "type": "uint256"
        }
      ],
      "stateMutability": "nonpayable",
      "type": "function"
    },
    {
      "inputs": [
        {
          "internalType": "address",
          "name": "borrower",
          "type": "address"
        },
        {
          "internalType": "uint256",
          "name": "repayAmount",
          "type": "uint256"
        },
        {
          "internalType": "contract ICEther",
          "name": "cEther",
          "type": "address"
        },
        {
          "internalType": "contract ICErc20",
          "name": "cErc20Collateral",
          "type": "address"
        },
        {
          "internalType": "uint256",
          "name": "minProfitAmount",
          "type": "uint256"
        },
        {
          "internalType": "address",
          "name": "exchangeProfitTo",
          "type": "address"
        },
        {
          "internalType": "contract IUniswapV2Router02",
          "name": "uniswapV2RouterForCollateral",
          "type": "address"
        },
        {
          "internalType": "contract IRedemptionStrategy[]",
          "name": "redemptionStrategies",
          "type": "address[]"
        },
        {
          "internalType": "bytes[]",
          "name": "strategyData",
          "type": "bytes[]"
        },
        {
          "internalType": "uint256",
          "name": "ethToCoinbase",
          "type": "uint256"
        }
      ],
      "name": "safeLiquidateToEthWithFlashLoan",
      "outputs": [
        {
          "internalType": "uint256",
          "name": "",
          "type": "uint256"
        }
      ],
      "stateMutability": "nonpayable",
      "type": "function"
    },
    {
      "inputs": [
        {
          "components": [
            {
              "internalType": "address",
              "name": "borrower",
              "type": "address"
            },
            {
              "internalType": "uint256",
              "name": "repayAmount",
              "type": "uint256"
            },
            {
              "internalType": "contract ICErc20",
              "name": "cErc20",
              "type": "address"
            },
            {
              "internalType": "contract ICToken",
              "name": "cTokenCollateral",
              "type": "address"
            },
            {
              "internalType": "contract IUniswapV2Pair",
              "name": "flashSwapPair",
              "type": "address"
            },
            {
              "internalType": "uint256",
              "name": "minProfitAmount",
              "type": "uint256"
            },
            {
              "internalType": "address",
              "name": "exchangeProfitTo",
              "type": "address"
            },
            {
              "internalType": "contract IUniswapV2Router02",
              "name": "uniswapV2RouterForBorrow",
              "type": "address"
            },
            {
              "internalType": "contract IUniswapV2Router02",
              "name": "uniswapV2RouterForCollateral",
              "type": "address"
            },
            {
              "internalType": "contract IRedemptionStrategy[]",
              "name": "redemptionStrategies",
              "type": "address[]"
            },
            {
              "internalType": "bytes[]",
              "name": "strategyData",
              "type": "bytes[]"
            },
            {
              "internalType": "uint256",
              "name": "ethToCoinbase",
              "type": "uint256"
            },
            {
              "internalType": "contract IFundsConversionStrategy[]",
              "name": "debtFundingStrategies",
              "type": "address[]"
            },
            {
              "internalType": "bytes[]",
              "name": "debtFundingStrategiesData",
              "type": "bytes[]"
            }
          ],
          "internalType": "struct FuseSafeLiquidator.LiquidateToTokensWithFlashSwapVars",
          "name": "vars",
          "type": "tuple"
        }
      ],
      "name": "safeLiquidateToTokensWithFlashLoan",
      "outputs": [
        {
          "internalType": "uint256",
          "name": "",
          "type": "uint256"
        }
      ],
      "stateMutability": "nonpayable",
      "type": "function"
    },
    {
      "inputs": [
        {
          "internalType": "address",
          "name": "sender",
          "type": "address"
        },
        {
          "internalType": "uint256",
          "name": "amount0",
          "type": "uint256"
        },
        {
          "internalType": "uint256",
          "name": "amount1",
          "type": "uint256"
        },
        {
          "internalType": "bytes",
          "name": "data",
          "type": "bytes"
        }
      ],
      "name": "stellaswapV2Call",
      "outputs": [],
      "stateMutability": "nonpayable",
      "type": "function"
    },
    {
      "inputs": [
        {
          "internalType": "address",
          "name": "newOwner",
          "type": "address"
        }
      ],
      "name": "transferOwnership",
      "outputs": [],
      "stateMutability": "nonpayable",
      "type": "function"
    },
    {
      "inputs": [
        {
          "internalType": "address",
          "name": "sender",
          "type": "address"
        },
        {
          "internalType": "uint256",
          "name": "amount0",
          "type": "uint256"
        },
        {
          "internalType": "uint256",
          "name": "amount1",
          "type": "uint256"
        },
        {
          "internalType": "bytes",
          "name": "data",
          "type": "bytes"
        }
      ],
      "name": "uniswapV2Call",
      "outputs": [],
      "stateMutability": "nonpayable",
      "type": "function"
    },
    {
      "stateMutability": "payable",
      "type": "receive"
    }
  ],
  "transactionHash": "0x83ec9b1eb92dbcc67236c70b861feef8e8624fca391be11359b1e872cb1b1f3e",
  "args": [],
  "numDeployments": 11,
  "bytecode": {
    "object": "0x608060405234801561001057600080fd5b506146d0806100206000396000f3fe6080604052600436106101855760003560e01c80638da5cb5b116100d1578063b798d3ff1161008a578063c8348b5411610064578063c8348b54146104c7578063d3f7e539146102bf578063f2fde38b146104e2578063f6cd5bbd1461050257600080fd5b8063b798d3ff14610454578063ba8bca5a14610474578063c2ebfdc11461049457600080fd5b80638da5cb5b146103975780638ee8ca7d146103b557806399f9fa51146102bf578063a68ee119146103f4578063a94c12bc14610414578063b59662581461043457600080fd5b806373ed86531161013e57806381738f131161011857806381738f1314610337578063844a656f1461035757806384800812146102bf5780638a0b90901461037757600080fd5b806373ed8653146102bf5780637754f887146102df578063789fc9ad1461031757600080fd5b80630d1b2763146101e457806310d1e85c1461020a57806356e677281461022a5780635a4313651461024a5780635b6723711461026a578063715018a6146102aa57600080fd5b366101df57333b6101dd5760405162461bcd60e51b815260206004820152601960248201527f53656e646572206973206e6f74206120636f6e74726163742e0000000000000060448201526064015b60405180910390fd5b005b600080fd5b6101f76101f236600461386f565b610522565b6040519081526020015b60405180910390f35b34801561021657600080fd5b506101dd61022536600461397a565b61053c565b34801561023657600080fd5b506101dd6102453660046139e3565b61062b565b34801561025657600080fd5b506101dd610265366004613a32565b61067c565b34801561027657600080fd5b5061029a610285366004613a6b565b606d6020526000908152604090205460ff1681565b6040519015158152602001610201565b3480156102b657600080fd5b506101dd6106af565b3480156102cb57600080fd5b506101dd6102da36600461397a565b6106c3565b3480156102eb57600080fd5b506068546102ff906001600160a01b031681565b6040516001600160a01b039091168152602001610201565b34801561032357600080fd5b506069546102ff906001600160a01b031681565b34801561034357600080fd5b506065546102ff906001600160a01b031681565b34801561036357600080fd5b506101dd610372366004613a99565b6106d7565b34801561038357600080fd5b506101dd610392366004613b73565b6108d3565b3480156103a357600080fd5b506033546001600160a01b03166102ff565b3480156103c157600080fd5b506103d56103d0366004613bde565b6109f2565b604080516001600160a01b039093168352602083019190915201610201565b34801561040057600080fd5b506101f761040f366004613c49565b610aaa565b34801561042057600080fd5b506067546102ff906001600160a01b031681565b34801561044057600080fd5b506103d561044f366004613bde565b611004565b34801561046057600080fd5b506066546102ff906001600160a01b031681565b34801561048057600080fd5b50606b546102ff906001600160a01b031681565b3480156104a057600080fd5b50606f546104b590600160a01b900460ff1681565b60405160ff9091168152602001610201565b3480156104d357600080fd5b506101f76101f2366004613d17565b3480156104ee57600080fd5b506101dd6104fd366004613a6b565b611061565b34801561050e57600080fd5b506101f761051d366004613dec565b6110da565b600060405162461bcd60e51b81526004016101d490613e27565b600061054c608460648486613e51565b8101906105599190613a6b565b9050806001600160a01b031663ac784ddc6040518163ffffffff1660e01b8152600401602060405180830381865afa158015610599573d6000803e3d6000fd5b505050506040513d601f19601f820116820180604052508101906105bd9190613e7b565b156105da5760405162461bcd60e51b81526004016101d490613e27565b60006105e98360048187613e51565b8101906105f69190613efc565b90506106018161153e565b606c80546001600160a01b0319166001600160a01b0392909216919091179055505b505050505050565b600061063982840184614077565b905060ff81161561066357606f805460ff8316600160a01b0260ff60a01b19909116179055505050565b606f805460ff60a01b1916600f60a11b1790555b505050565b61068461199a565b6001600160a01b03919091166000908152606d60205260409020805460ff1916911515919091179055565b6106b761199a565b6106c160006119f4565b565b6106d0858585858561053c565b5050505050565b600054610100900460ff16158080156106f75750600054600160ff909116105b806107115750303b158015610711575060005460ff166001145b6107745760405162461bcd60e51b815260206004820152602e60248201527f496e697469616c697a61626c653a20636f6e747261637420697320616c72656160448201526d191e481a5b9a5d1a585b1a5e995960921b60648201526084016101d4565b6000805460ff191660011790558015610797576000805461ff0019166101001790555b61079f611a46565b6001600160a01b0386166107f55760405162461bcd60e51b815260206004820152601d60248201527f556e69737761705632466163746f7279206e6f7420646566696e65642e00000060448201526064016101d4565b606580546001600160a01b03199081166001600160a01b038a81169182179093556067805483168a85169081179091556068805484168a8616179055606980548416948916949094179093556066805483169091179055606b80549091169091179055825161086b90606a9060208601906135bd565b50606f805460ff60a01b1916600160a01b60ff85160217905580156108ca576000805461ff0019169055604051600181527f7f26b83ff96e1f2b6a682f133852f6798a09c465da95921460cefb38474024989060200160405180910390a15b50505050505050565b6108db61199a565b82158015906108e957508281145b61095b5760405162461bcd60e51b815260206004820152603f60248201527f6c697374206f66207374726174656769657320656d707479206f72207768697460448201527f656c69737420646f6573206e6f74206d6174636820697473206c656e6774680060648201526084016101d4565b60005b838110156106d05782828281811061097857610978614092565b905060200201602081019061098d91906140a8565b606d60008787858181106109a3576109a3614092565b90506020020160208101906109b89190613a6b565b6001600160a01b031681526020810191909152604001600020805460ff1916911515919091179055806109ea816140db565b91505061095e565b6001600160a01b0382166000908152606d6020526040812054819060ff16610a2c5760405162461bcd60e51b81526004016101d4906140f6565b6000610a86856389eabf0260e01b898988604051602401610a4f939291906141a0565b60408051601f198184030181529190526020810180516001600160e01b03166001600160e01b031990931692909217909152611a75565b905080806020019051810190610a9c91906141c7565b925092505094509492505050565b6000808911610b215760405162461bcd60e51b815260206004820152603860248201527f526570617920616d6f756e7420287472616e73616374696f6e2076616c75652960448201527f206d7573742062652067726561746572207468616e20302e000000000000000060648201526084016101d4565b6000886001600160a01b0316636f307dc36040518163ffffffff1660e01b8152600401602060405180830381865afa158015610b61573d6000803e3d6000fd5b505050506040513d601f19601f82011682018060405250810190610b8591906141f5565b9050610b9c6001600160a01b03821633308d611b60565b610ba7818a8c611bd1565b604051637af1e23160e11b81526001600160a01b038c81166004830152602482018c905289811660448301528a169063f5e3c462906064016020604051808303816000875af1158015610bfe573d6000803e3d6000fd5b505050506040513d601f19601f82011682018060405250810190610c229190614212565b15610c655760405162461bcd60e51b81526020600482015260136024820152722634b8bab4b230ba34b7b7103330b4b632b21760691b60448201526064016101d4565b876001600160a01b0316866001600160a01b031614610feb576040516370a0823160e01b81523060048201526000906001600160a01b038a16906370a0823190602401602060405180830381865afa158015610cc5573d6000803e3d6000fd5b505050506040513d601f19601f82011682018060405250810190610ce99190614212565b90508015610fe95760405163db006a7560e01b8152600481018290526000906001600160a01b038b169063db006a75906024016020604051808303816000875af1158015610d3b573d6000803e3d6000fd5b505050506040513d601f19601f82011682018060405250810190610d5f9190614212565b90508015610d7f5760405162461bcd60e51b81526004016101d49061422b565b896001600160a01b031663ac784ddc6040518163ffffffff1660e01b8152600401602060405180830381865afa158015610dbd573d6000803e3d6000fd5b505050506040513d601f19601f82011682018060405250810190610de19190613e7b565b15610dfe5760405162461bcd60e51b81526004016101d490613e27565b60008a6001600160a01b0316636f307dc36040518163ffffffff1660e01b8152600401602060405180830381865afa158015610e3e573d6000803e3d6000fd5b505050506040513d601f19601f82011682018060405250810190610e6291906141f5565b875190915015610fda578551875114610f095760405162461bcd60e51b815260206004820152605960248201527f49526564656d7074696f6e537472617465677920636f6e74726163742061727260448201527f617920616e64207374726174656779206461746120627974657320617272617960648201527f206d757374206265207468652073616d65206c656e6774682e00000000000000608482015260a4016101d4565b6040516370a0823160e01b81523060048201526000906001600160a01b038316906370a0823190602401602060405180830381865afa158015610f50573d6000803e3d6000fd5b505050506040513d601f19601f82011682018060405250810190610f749190614212565b905060005b8851811015610fd757610fc083838b8481518110610f9957610f99614092565b60200260200101518b8581518110610fb357610fb3614092565b6020026020010151611004565b909350915080610fcf816140db565b915050610f79565b50505b610fe6818a8c8b611c44565b50505b505b610ff58688611ee9565b9b9a5050505050505050505050565b6001600160a01b0382166000908152606d6020526040812054819060ff1661103e5760405162461bcd60e51b81526004016101d4906140f6565b6000610a86856310badf4e60e01b898988604051602401610a4f939291906141a0565b61106961199a565b6001600160a01b0381166110ce5760405162461bcd60e51b815260206004820152602660248201527f4f776e61626c653a206e6577206f776e657220697320746865207a65726f206160448201526564647265737360d01b60648201526084016101d4565b6110d7816119f4565b50565b60008082602001351161113b5760405162461bcd60e51b8152602060048201526024808201527f526570617920616d6f756e74206d7573742062652067726561746572207468616044820152633710181760e11b60648201526084016101d4565b6020820135600080611151610180860186614289565b90501115611368576111676101a0850185614289565b9050611177610180860186614289565b9050146112215760405162461bcd60e51b815260206004820152606660248201527f46756e64696e67204946756e6473436f6e76657273696f6e537472617465677960448201527f20636f6e747261637420617272617920616e642073747261746567792064617460648201527f61206279746573206172726179206d757374206265207468652073616d65206c60848201526532b733ba341760d11b60a482015260c4016101d4565b60005b611232610180860186614289565b905081101561136257600061124b6101a0870187614289565b8381811061125b5761125b614092565b905060200281019061126d91906142d2565b8080601f01602080910402602001604051908101604052809392919081815260200183838082843760009201829052509394506112b292505050610180880188614289565b848181106112c2576112c2614092565b90506020020160208101906112d79190613a6b565b60405163180994cb60e11b81529091506001600160a01b038216906330132996906113089088908690600401614318565b6040805180830381865afa158015611324573d6000803e3d6000fd5b505050506040513d601f19601f8201168201806040525081019061134891906141c7565b9550935082915061135a9050816140db565b915050611224565b506113dc565b6113786060850160408601613a6b565b6001600160a01b0316636f307dc36040518163ffffffff1660e01b8152600401602060405180830381865afa1580156113b5573d6000803e3d6000fd5b505050506040513d601f19601f820116820180604052508101906113d991906141f5565b90505b606e829055606f80546001600160a01b0319166001600160a01b03831690811790915560009061141260a0870160808801613a6b565b6001600160a01b0316630dfe16816040518163ffffffff1660e01b8152600401602060405180830381865afa15801561144f573d6000803e3d6000fd5b505050506040513d601f19601f8201168201806040525081019061147391906141f5565b6001600160a01b031614905061148f60a0860160808701613a6b565b6001600160a01b031663022c0d9f826114a95760006114ab565b845b83156114b85760006114ba565b855b306000366040518663ffffffff1660e01b81526004016114de959493929190614331565b600060405180830381600087803b1580156114f857600080fd5b505af115801561150c573d6000803e3d6000fd5b50611535925061152591505060e0870160c08801613a6b565b8660a00135876101600135611fd6565b95945050505050565b606f54606e54610180830151516000926001600160a01b03169190156115e557610180840151515b80156115e3576115cc83838761018001516001856115849190614380565b8151811061159457611594614092565b6020026020010151886101a001516001866115af9190614380565b815181106115bf576115bf614092565b60200260200101516109f2565b9093509150806115db81614397565b915050611566565b505b600084604001516001600160a01b0316636f307dc36040518163ffffffff1660e01b8152600401602060405180830381865afa158015611629573d6000803e3d6000fd5b505050506040513d601f19601f8201168201806040525081019061164d91906141f5565b9050806001600160a01b0316836001600160a01b0316146116e85760405162461bcd60e51b815260206004820152604960248201527f74686520646562742072657061796d656e742066756e64732073686f756c642060448201527f626520636f6e76657274656420746f2074686520756e6465726c79696e67206460648201526832b13a103a37b5b2b760b91b608482015260a4016101d4565b846020015182101561173c5760405162461bcd60e51b815260206004820181905260248201527f646562742072657061796d656e7420616d6f756e74206e6f7420656e6f75676860448201526064016101d4565b61174f8186604001518760200151611bd1565b6040858101518651602088015160608901519351637af1e23160e11b81526001600160a01b03928316600482015260248101919091529281166044840152169063f5e3c462906064016020604051808303816000875af11580156117b7573d6000803e3d6000fd5b505050506040513d601f19601f820116820180604052508101906117db9190614212565b1561181e5760405162461bcd60e51b81526020600482015260136024820152722634b8bab4b230ba34b7b7103330b4b632b21760691b60448201526064016101d4565b60608501516040516370a0823160e01b81523060048201526000916001600160a01b0316906370a0823190602401602060405180830381865afa158015611869573d6000803e3d6000fd5b505050506040513d601f19601f8201168201806040525081019061188d9190614212565b9050600081116118d45760405162461bcd60e51b815260206004820152601260248201527127379031aa37b5b2b7399039b2b4bd32b21760711b60448201526064016101d4565b606086015160405163db006a7560e01b8152600481018390526000916001600160a01b03169063db006a75906024016020604051808303816000875af1158015611922573d6000803e3d6000fd5b505050506040513d601f19601f820116820180604052508101906119469190614212565b905080156119665760405162461bcd60e51b81526004016101d49061422b565b50505061199284606001518560c001518660e001518761010001518861012001518961014001516120ad565b949350505050565b6033546001600160a01b031633146106c15760405162461bcd60e51b815260206004820181905260248201527f4f776e61626c653a2063616c6c6572206973206e6f7420746865206f776e657260448201526064016101d4565b603380546001600160a01b038381166001600160a01b0319831681179093556040519116919082907f8be0079c531659141344cd1fd0a4f28419497f9722a3daafe3b4186f6b6457e090600090a35050565b600054610100900460ff16611a6d5760405162461bcd60e51b81526004016101d4906143ae565b6106c1612af6565b60606001600160a01b0383163b611add5760405162461bcd60e51b815260206004820152602660248201527f416464726573733a2064656c65676174652063616c6c20746f206e6f6e2d636f6044820152651b9d1c9858dd60d21b60648201526084016101d4565b600080846001600160a01b031684604051611af891906143f9565b600060405180830381855af49150503d8060008114611b33576040519150601f19603f3d011682016040523d82523d6000602084013e611b38565b606091505b5091509150611535828260405180606001604052806027815260200161469d60279139612b26565b6040516001600160a01b0380851660248301528316604482015260648101829052611bcb9085906323b872dd60e01b906084015b60408051601f198184030181529190526020810180516001600160e01b03166001600160e01b031990931692909217909152612b5f565b50505050565b60405163095ea7b360e01b81526001600160a01b0383811660048301526024820183905284169063095ea7b3906044016020604051808303816000875af1158015611c20573d6000803e3d6000fd5b505050506040513d601f19601f82011682018060405250810190611bcb9190613e7b565b6001600160a01b038316611c61576065546001600160a01b031692505b836001600160a01b0316836001600160a01b03161415611c8057611bcb565b6001600160a01b038416611da4576065546001600160a01b0384811691161415611d1257606660009054906101000a90046001600160a01b03166001600160a01b031663d0e30db0476040518263ffffffff1660e01b81526004016000604051808303818588803b158015611cf457600080fd5b505af1158015611d08573d6000803e3d6000fd5b5050505050611bcb565b6065546001600160a01b0380831691637ff36ab59147918691611d36911688612c31565b30426040518663ffffffff1660e01b8152600401611d579493929190614459565b60006040518083038185885af1158015611d75573d6000803e3d6000fd5b50505050506040513d6000823e601f3d908101601f19168201604052611d9e919081019061448e565b50611bcb565b6040516370a0823160e01b815230600482015284906000906001600160a01b038316906370a0823190602401602060405180830381865afa158015611ded573d6000803e3d6000fd5b505050506040513d601f19601f82011682018060405250810190611e119190614212565b9050611e1e828483611bd1565b6065546001600160a01b03808516916338ed173991849188918b811691161480611e5557506065546001600160a01b038a81169116145b611e7657606554611e71908b906001600160a01b03168b612cbe565b611e80565b611e808a8a612c31565b30426040518663ffffffff1660e01b8152600401611ea2959493929190614513565b6000604051808303816000875af1158015611ec1573d6000803e3d6000fd5b505050506040513d6000823e601f3d908101601f191682016040526108ca919081019061448e565b6040516370a0823160e01b8152306004820152600090839082906001600160a01b038316906370a0823190602401602060405180830381865afa158015611f34573d6000803e3d6000fd5b505050506040513d601f19601f82011682018060405250810190611f589190614212565b905083811015611fbc5760405162461bcd60e51b815260206004820152602960248201527f4d696e696d756d20746f6b656e206f757470757420616d6f756e74206e6f742060448201526839b0ba34b334b2b21760b91b60648201526084016101d4565b8015611992576119926001600160a01b0383163383612d81565b60006001600160a01b038416611ff5576065546001600160a01b031693505b811561207957478083111561202f57606c5461202f906001600160a01b031661201e8386614380565b606b546001600160a01b0316612db1565b60405141908490600081818185875af1925050503d806000811461206f576040519150601f19603f3d011682016040523d82523d6000602084013e612074565b606091505b505050505b606c54606b54612099916001600160a01b03908116918791879116611c44565b6120a38484611ee9565b90505b9392505050565b606f5460009081906120cb90600160a01b900460ff1661271061454f565b61ffff16606e546127106120df9190614572565b6120e991906145a7565b606f5490915060009061210890600160a01b900460ff1661271061454f565b61ffff16606e5461271061211c9190614572565b61212691906145bb565b111561213a5780612136816140db565b9150505b876001600160a01b031663ac784ddc6040518163ffffffff1660e01b8152600401602060405180830381865afa158015612178573d6000803e3d6000fd5b505050506040513d601f19601f8201168201806040525081019061219c9190613e7b565b156121b95760405162461bcd60e51b81526004016101d490613e27565b6000886001600160a01b0316636f307dc36040518163ffffffff1660e01b8152600401602060405180830381865afa1580156121f9573d6000803e3d6000fd5b505050506040513d601f19601f8201168201806040525081019061221d91906141f5565b6040516370a0823160e01b81523060048201529091506000906001600160a01b038316906370a0823190602401602060405180830381865afa158015612267573d6000803e3d6000fd5b505050506040513d601f19601f8201168201806040525081019061228b9190614212565b8651909150156123885784518651146123325760405162461bcd60e51b815260206004820152605b60248201527f49526564656d7074696f6e537472617465677920636f6e74726163742061727260448201527f617920616e64207374726174656779206461746120627974657320617272617960648201527f206d6e75737420746865207468652073616d65206c656e6774682e0000000000608482015260a4016101d4565b60005b86518110156123865761236f838389848151811061235557612355614092565b6020026020010151898581518110610fb357610fb3614092565b90935091508061237e816140db565b915050612335565b505b6000339050806001600160a01b0316630dfe16816040518163ffffffff1660e01b8152600401602060405180830381865afa1580156123cb573d6000803e3d6000fd5b505050506040513d601f19601f820116820180604052508101906123ef91906141f5565b6001600160a01b0316836001600160a01b031614806124805750806001600160a01b031663d21220a76040518163ffffffff1660e01b8152600401602060405180830381865afa158015612447573d6000803e3d6000fd5b505050506040513d601f19601f8201168201806040525081019061246b91906141f5565b6001600160a01b0316836001600160a01b0316145b156126ab57606f546000906001600160a01b03858116911614156124a5575083612553565b6125368a6001600160a01b031663c45a01556040518163ffffffff1660e01b8152600401602060405180830381865afa1580156124e6573d6000803e3d6000fd5b505050506040513d601f19601f8201168201806040525081019061250a91906141f5565b606e54606f546125249088906001600160a01b0316612c31565b606f54600160a01b900460ff16612f3c565b60008151811061254857612548614092565b602002602001015190505b828111156125c95760405162461bcd60e51b815260206004820152603d60248201527f546f6b656e20666c6173686c6f616e2072657475726e20616d6f756e7420677260448201527f6561746572207468616e207365697a656420636f6c6c61746572616c2e00000060648201526084016101d4565b60405163a9059cbb60e01b8152336004820152602481018290526001600160a01b0385169063a9059cbb906044016020604051808303816000875af1158015612616573d6000803e3d6000fd5b505050506040513d601f19601f8201168201806040525081019061263a9190613e7b565b61269e5760405162461bcd60e51b815260206004820152602f60248201527f4661696c656420746f20726570617920746f6b656e20666c6173686c6f616e2060448201526e37b7103137b93937bb9039b4b2329760891b60648201526084016101d4565b8395505050505050612aec565b606554606f546000916001600160a01b03918216911614156126ce57508361276e565b6127518a6001600160a01b031663c45a01556040518163ffffffff1660e01b8152600401602060405180830381865afa15801561270f573d6000803e3d6000fd5b505050506040513d601f19601f8201168201806040525081019061273391906141f5565b606554606f548891612524916001600160a01b039182169116612c31565b60008151811061276357612763614092565b602002602001015190505b6065546001600160a01b038581169116146128cc5761278e848a85611bd1565b836001600160a01b03168b6001600160a01b0316141561283c576065546001600160a01b03808b1691638803dbee91849187916127cd918a9116612c31565b30426040518663ffffffff1660e01b81526004016127ef959493929190614513565b6000604051808303816000875af115801561280e573d6000803e3d6000fd5b505050506040513d6000823e601f3d908101601f19168201604052612836919081019061448e565b506128cc565b6065546001600160a01b03808b16916338ed17399186918591612861918a9116612c31565b30426040518663ffffffff1660e01b8152600401612883959493929190614513565b6000604051808303816000875af11580156128a2573d6000803e3d6000fd5b505050506040513d6000823e601f3d908101601f191682016040526128ca919081019061448e565b505b6065546040516370a0823160e01b81523060048201526001600160a01b03909116906370a0823190602401602060405180830381865afa158015612914573d6000803e3d6000fd5b505050506040513d601f19601f820116820180604052508101906129389190614212565b8111156129be5760405162461bcd60e51b815260206004820152604860248201527f4e6f7420656e6f75676820575f4e41544956452065786368616e67656420667260448201527f6f6d207365697a656420636f6c6c61746572616c20746f20726570617920666c60648201526730b9b43637b0b71760c11b608482015260a4016101d4565b60665460405163a9059cbb60e01b8152336004820152602481018390526001600160a01b039091169063a9059cbb906044016020604051808303816000875af1158015612a0f573d6000803e3d6000fd5b505050506040513d601f19601f82011682018060405250810190612a339190613e7b565b612abf5760405162461bcd60e51b815260206004820152605160248201527f4661696c656420746f20726570617920556e697377617020666c6173686c6f6160448201527f6e207769746820575f4e41544956452065786368616e6765642066726f6d207360648201527032b4bd32b21031b7b63630ba32b930b61760791b608482015260a4016101d4565b836001600160a01b03168b6001600160a01b03161461269e576065546001600160a01b0316955050505050505b9695505050505050565b600054610100900460ff16612b1d5760405162461bcd60e51b81526004016101d4906143ae565b6106c1336119f4565b60608315612b355750816120a6565b825115612b455782518084602001fd5b8160405162461bcd60e51b81526004016101d491906145cf565b6000612bb4826040518060400160405280602081526020017f5361666545524332303a206c6f772d6c6576656c2063616c6c206661696c6564815250856001600160a01b03166130d39092919063ffffffff16565b8051909150156106775780806020019051810190612bd29190613e7b565b6106775760405162461bcd60e51b815260206004820152602a60248201527f5361666545524332303a204552433230206f7065726174696f6e20646964206e6044820152691bdd081cdd58d8d9595960b21b60648201526084016101d4565b604080516002808252606080830184529260009291906020830190803683370190505090508381600081518110612c6a57612c6a614092565b60200260200101906001600160a01b031690816001600160a01b0316815250508281600181518110612c9e57612c9e614092565b6001600160a01b0390921660209283029190910190910152905092915050565b60408051600380825260808201909252606091600091906020820184803683370190505090508481600081518110612cf857612cf8614092565b60200260200101906001600160a01b031690816001600160a01b0316815250508381600181518110612d2c57612d2c614092565b60200260200101906001600160a01b031690816001600160a01b0316815250508281600281518110612d6057612d60614092565b6001600160a01b039092166020928302919091019091015290509392505050565b6040516001600160a01b03831660248201526044810182905261067790849063a9059cbb60e01b90606401611b94565b6001600160a01b038316612dc457505050565b6065546001600160a01b0384811691161415612e3457606654604051632e1a7d4d60e01b8152600481018490526001600160a01b0390911690632e1a7d4d90602401600060405180830381600087803b158015612e2057600080fd5b505af11580156108ca573d6000803e3d6000fd5b6040516370a0823160e01b815230600482015283906000906001600160a01b038316906370a0823190602401602060405180830381865afa158015612e7d573d6000803e3d6000fd5b505050506040513d601f19601f82011682018060405250810190612ea19190614212565b9050612eae828483611bd1565b6065546001600160a01b0380851691634a25d94a9187918591612ed3918b9116612c31565b30426040518663ffffffff1660e01b8152600401612ef5959493929190614513565b6000604051808303816000875af1158015612f14573d6000803e3d6000fd5b505050506040513d6000823e601f3d908101601f19168201604052610623919081019061448e565b6060600283511015612f905760405162461bcd60e51b815260206004820152601e60248201527f556e697377617056324c6962726172793a20494e56414c49445f50415448000060448201526064016101d4565b82516001600160401b03811115612fa957612fa961367b565b604051908082528060200260200182016040528015612fd2578160200160208202803683370190505b509050838160018351612fe59190614380565b81518110612ff557612ff5614092565b6020026020010181815250506000600184516130119190614380565b90505b80156130ca57600080613064888761302d600187614380565b8151811061303d5761303d614092565b602002602001015188868151811061305757613057614092565b60200260200101516130e2565b9150915061308d84848151811061307d5761307d614092565b60200260200101518383886131ac565b84613099600186614380565b815181106130a9576130a9614092565b602002602001018181525050505080806130c290614397565b915050613014565b50949350505050565b60606120a384846000856132e4565b60008060006130f185856133b4565b5090506000806131028888886134ac565b6001600160a01b0316630902f1ac6040518163ffffffff1660e01b8152600401606060405180830381865afa15801561313f573d6000803e3d6000fd5b505050506040513d601f19601f8201168201806040525081019061316391906145f9565b506001600160701b031691506001600160701b03169150826001600160a01b0316876001600160a01b03161461319a57808261319d565b81815b90999098509650505050505050565b60008085116132125760405162461bcd60e51b815260206004820152602c60248201527f556e697377617056324c6962726172793a20494e53554646494349454e545f4f60448201526b155514155517d05353d5539560a21b60648201526084016101d4565b6000841180156132225750600083115b61327f5760405162461bcd60e51b815260206004820152602860248201527f556e697377617056324c6962726172793a20494e53554646494349454e545f4c604482015267495155494449545960c01b60648201526084016101d4565b600061328b8686614572565b61329790612710614572565b905060006132aa60ff851661271061454f565b61ffff166132b88887614380565b6132c29190614572565b90506132ce81836145a7565b6132d9906001614649565b979650505050505050565b6060824710156133455760405162461bcd60e51b815260206004820152602660248201527f416464726573733a20696e73756666696369656e742062616c616e636520666f6044820152651c8818d85b1b60d21b60648201526084016101d4565b600080866001600160a01b0316858760405161336191906143f9565b60006040518083038185875af1925050503d806000811461339e576040519150601f19603f3d011682016040523d82523d6000602084013e6133a3565b606091505b50915091506132d987838387613522565b600080826001600160a01b0316846001600160a01b031614156134275760405162461bcd60e51b815260206004820152602560248201527f556e697377617056324c6962726172793a204944454e544943414c5f41444452604482015264455353455360d81b60648201526084016101d4565b826001600160a01b0316846001600160a01b03161061344757828461344a565b83835b90925090506001600160a01b0382166134a55760405162461bcd60e51b815260206004820152601e60248201527f556e697377617056324c6962726172793a205a45524f5f41444452455353000060448201526064016101d4565b9250929050565b60405163e6a4390560e01b81526001600160a01b03838116600483015282811660248301526000919085169063e6a4390590604401602060405180830381865afa1580156134fe573d6000803e3d6000fd5b505050506040513d601f19601f820116820180604052508101906120a391906141f5565b6060831561358e578251613587576001600160a01b0385163b6135875760405162461bcd60e51b815260206004820152601d60248201527f416464726573733a2063616c6c20746f206e6f6e2d636f6e747261637400000060448201526064016101d4565b5081611992565b61199283838151156135a35781518083602001fd5b8060405162461bcd60e51b81526004016101d491906145cf565b8280546135c990614661565b90600052602060002090601f0160209004810192826135eb5760008555613631565b82601f1061360457805160ff1916838001178555613631565b82800160010185558215613631579182015b82811115613631578251825591602001919060010190613616565b5061363d929150613641565b5090565b5b8082111561363d5760008155600101613642565b6001600160a01b03811681146110d757600080fd5b803561367681613656565b919050565b634e487b7160e01b600052604160045260246000fd5b6040516101c081016001600160401b03811182821017156136b4576136b461367b565b60405290565b604051601f8201601f191681016001600160401b03811182821017156136e2576136e261367b565b604052919050565b60006001600160401b038211156137035761370361367b565b5060051b60200190565b600082601f83011261371e57600080fd5b8135602061373361372e836136ea565b6136ba565b82815260059290921b8401810191818101908684111561375257600080fd5b8286015b8481101561377657803561376981613656565b8352918301918301613756565b509695505050505050565b600082601f83011261379257600080fd5b81356001600160401b038111156137ab576137ab61367b565b6137be601f8201601f19166020016136ba565b8181528460208386010111156137d357600080fd5b816020850160208301376000918101602001919091529392505050565b600082601f83011261380157600080fd5b8135602061381161372e836136ea565b82815260059290921b8401810191818101908684111561383057600080fd5b8286015b848110156137765780356001600160401b038111156138535760008081fd5b6138618986838b0101613781565b845250918301918301613834565b600080600080600080600080610100898b03121561388c57600080fd5b883561389781613656565b975060208901356138a781613656565b965060408901356138b781613656565b95506060890135945060808901356138ce81613656565b935060a08901356138de81613656565b925060c08901356001600160401b03808211156138fa57600080fd5b6139068c838d0161370d565b935060e08b013591508082111561391c57600080fd5b506139298b828c016137f0565b9150509295985092959890939650565b60008083601f84011261394b57600080fd5b5081356001600160401b0381111561396257600080fd5b6020830191508360208285010111156134a557600080fd5b60008060008060006080868803121561399257600080fd5b853561399d81613656565b9450602086013593506040860135925060608601356001600160401b038111156139c657600080fd5b6139d288828901613939565b969995985093965092949392505050565b600080602083850312156139f657600080fd5b82356001600160401b03811115613a0c57600080fd5b613a1885828601613939565b90969095509350505050565b80151581146110d757600080fd5b60008060408385031215613a4557600080fd5b8235613a5081613656565b91506020830135613a6081613a24565b809150509250929050565b600060208284031215613a7d57600080fd5b81356120a681613656565b803560ff8116811461367657600080fd5b60008060008060008060c08789031215613ab257600080fd5b8635613abd81613656565b95506020870135613acd81613656565b94506040870135613add81613656565b93506060870135613aed81613656565b925060808701356001600160401b03811115613b0857600080fd5b613b1489828a01613781565b925050613b2360a08801613a88565b90509295509295509295565b60008083601f840112613b4157600080fd5b5081356001600160401b03811115613b5857600080fd5b6020830191508360208260051b85010111156134a557600080fd5b60008060008060408587031215613b8957600080fd5b84356001600160401b0380821115613ba057600080fd5b613bac88838901613b2f565b90965094506020870135915080821115613bc557600080fd5b50613bd287828801613b2f565b95989497509550505050565b60008060008060808587031215613bf457600080fd5b8435613bff81613656565b9350602085013592506040850135613c1681613656565b915060608501356001600160401b03811115613c3157600080fd5b613c3d87828801613781565b91505092959194509250565b60008060008060008060008060006101208a8c031215613c6857600080fd5b8935613c7381613656565b985060208a0135975060408a0135613c8a81613656565b9650613c9860608b0161366b565b955060808a01359450613cad60a08b0161366b565b9350613cbb60c08b0161366b565b925060e08a01356001600160401b0380821115613cd757600080fd5b613ce38d838e0161370d565b93506101008c0135915080821115613cfa57600080fd5b50613d078c828d016137f0565b9150509295985092959850929598565b6000806000806000806000806000806101408b8d031215613d3757600080fd5b613d408b61366b565b995060208b01359850613d5560408c0161366b565b9750613d6360608c0161366b565b965060808b01359550613d7860a08c0161366b565b9450613d8660c08c0161366b565b935060e08b01356001600160401b0380821115613da257600080fd5b613dae8e838f0161370d565b94506101008d0135915080821115613dc557600080fd5b50613dd28d828e016137f0565b9250506101208b013590509295989b9194979a5092959850565b600060208284031215613dfe57600080fd5b81356001600160401b03811115613e1457600080fd5b82016101c081850312156120a657600080fd5b60208082526010908201526f6e6f74207573656420616e796d6f726560801b604082015260600190565b60008085851115613e6157600080fd5b83861115613e6e57600080fd5b5050820193919092039150565b600060208284031215613e8d57600080fd5b81516120a681613a24565b600082601f830112613ea957600080fd5b81356020613eb961372e836136ea565b82815260059290921b84018101918181019086841115613ed857600080fd5b8286015b84811015613776578035613eef81613656565b8352918301918301613edc565b600060208284031215613f0e57600080fd5b81356001600160401b0380821115613f2557600080fd5b908301906101c08286031215613f3a57600080fd5b613f42613691565b613f4b8361366b565b815260208301356020820152613f636040840161366b565b6040820152613f746060840161366b565b6060820152613f856080840161366b565b608082015260a083013560a0820152613fa060c0840161366b565b60c0820152613fb160e0840161366b565b60e0820152610100613fc481850161366b565b908201526101208381013583811115613fdc57600080fd5b613fe88882870161370d565b828401525050610140808401358381111561400257600080fd5b61400e888287016137f0565b828401525050610160808401358183015250610180808401358381111561403457600080fd5b61404088828701613e98565b8284015250506101a0808401358381111561405a57600080fd5b614066888287016137f0565b918301919091525095945050505050565b60006020828403121561408957600080fd5b6120a682613a88565b634e487b7160e01b600052603260045260246000fd5b6000602082840312156140ba57600080fd5b81356120a681613a24565b634e487b7160e01b600052601160045260246000fd5b60006000198214156140ef576140ef6140c5565b5060010190565b60208082526032908201527f6f6e6c792077686974656c697374656420726564656d7074696f6e20737472616040820152711d1959da595cc818d85b881899481d5cd95960721b606082015260800190565b60005b8381101561416357818101518382015260200161414b565b83811115611bcb5750506000910152565b6000815180845261418c816020860160208601614148565b601f01601f19169290920160200192915050565b60018060a01b03841681528260208201526060604082015260006115356060830184614174565b600080604083850312156141da57600080fd5b82516141e581613656565b6020939093015192949293505050565b60006020828403121561420757600080fd5b81516120a681613656565b60006020828403121561422457600080fd5b5051919050565b602080825260409082018190527f4572726f722063616c6c696e672072656465656d696e67207365697a65642063908201527f546f6b656e3a206572726f7220636f6465206e6f7420657175616c20746f2030606082015260800190565b6000808335601e198436030181126142a057600080fd5b8301803591506001600160401b038211156142ba57600080fd5b6020019150600581901b36038213156134a557600080fd5b6000808335601e198436030181126142e957600080fd5b8301803591506001600160401b0382111561430357600080fd5b6020019150368190038213156134a557600080fd5b8281526040602082015260006120a36040830184614174565b858152602081018590526001600160a01b03841660408201526080606082018190528101829052818360a0830137600081830160a090810191909152601f909201601f19160101949350505050565b600082821015614392576143926140c5565b500390565b6000816143a6576143a66140c5565b506000190190565b6020808252602b908201527f496e697469616c697a61626c653a20636f6e7472616374206973206e6f74206960408201526a6e697469616c697a696e6760a81b606082015260800190565b6000825161440b818460208701614148565b9190910192915050565b600081518084526020808501945080840160005b8381101561444e5781516001600160a01b031687529582019590820190600101614429565b509495945050505050565b8481526080602082015260006144726080830186614415565b6001600160a01b03949094166040830152506060015292915050565b600060208083850312156144a157600080fd5b82516001600160401b038111156144b757600080fd5b8301601f810185136144c857600080fd5b80516144d661372e826136ea565b81815260059190911b820183019083810190878311156144f557600080fd5b928401925b828410156132d9578351825292840192908401906144fa565b85815284602082015260a06040820152600061453260a0830186614415565b6001600160a01b0394909416606083015250608001529392505050565b600061ffff8381169083168181101561456a5761456a6140c5565b039392505050565b600081600019048311821515161561458c5761458c6140c5565b500290565b634e487b7160e01b600052601260045260246000fd5b6000826145b6576145b6614591565b500490565b6000826145ca576145ca614591565b500690565b6020815260006120a66020830184614174565b80516001600160701b038116811461367657600080fd5b60008060006060848603121561460e57600080fd5b614617846145e2565b9250614625602085016145e2565b9150604084015163ffffffff8116811461463e57600080fd5b809150509250925092565b6000821982111561465c5761465c6140c5565b500190565b600181811c9082168061467557607f821691505b6020821081141561469657634e487b7160e01b600052602260045260246000fd5b5091905056fe416464726573733a206c6f772d6c6576656c2064656c65676174652063616c6c206661696c6564a164736f6c634300080a000a",
    "linkReferences": {}
  },
  "methodIdentifiers": {
    "BTC_TOKEN()": "789fc9ad",
    "BeamSwapCall(address,uint256,uint256,bytes)": "99f9fa51",
    "STABLE_TOKEN()": "7754f887",
    "UNISWAP_V2_ROUTER_02()": "ba8bca5a",
    "UNISWAP_V2_ROUTER_02_ADDRESS()": "a94c12bc",
    "W_NATIVE()": "b798d3ff",
    "W_NATIVE_ADDRESS()": "81738f13",
    "_becomeImplementation(bytes)": "56e67728",
    "_whitelistRedemptionStrategies(address[],bool[])": "8a0b9090",
    "_whitelistRedemptionStrategy(address,bool)": "5a431365",
    "convertCustomFunds(address,uint256,address,bytes)": "8ee8ca7d",
    "flashSwapFee()": "c2ebfdc1",
    "initialize(address,address,address,address,bytes,uint8)": "844a656f",
    "moraswapCall(address,uint256,uint256,bytes)": "73ed8653",
    "owner()": "8da5cb5b",
    "pancakeCall(address,uint256,uint256,bytes)": "84800812",
    "redeemCustomCollateral(address,uint256,address,bytes)": "b5966258",
    "redemptionStrategiesWhitelist(address)": "5b672371",
    "renounceOwnership()": "715018a6",
    "safeLiquidate(address,address,address,uint256,address,address,address[],bytes[])": "0d1b2763",
    "safeLiquidate(address,uint256,address,address,uint256,address,address,address[],bytes[])": "a68ee119",
    "safeLiquidateToEthWithFlashLoan(address,uint256,address,address,uint256,address,address,address[],bytes[],uint256)": "c8348b54",
    "safeLiquidateToTokensWithFlashLoan((address,uint256,address,address,address,uint256,address,address,address,address[],bytes[],uint256,address[],bytes[]))": "f6cd5bbd",
    "stellaswapV2Call(address,uint256,uint256,bytes)": "d3f7e539",
    "transferOwnership(address)": "f2fde38b",
    "uniswapV2Call(address,uint256,uint256,bytes)": "10d1e85c"
  }
}