{
  "address": "0x806586bC8f8ACd0Fc7B3b736124246fF981E210B",
  "abi": [
    {
      "anonymous": false,
      "inputs": [
        {
          "indexed": false,
          "internalType": "uint256",
          "name": "error",
          "type": "uint256"
        },
        {
          "indexed": false,
          "internalType": "uint256",
          "name": "info",
          "type": "uint256"
        },
        {
          "indexed": false,
          "internalType": "uint256",
          "name": "detail",
          "type": "uint256"
        }
      ],
      "name": "Failure",
      "type": "event"
    },
    {
      "anonymous": false,
      "inputs": [
        {
          "indexed": false,
          "internalType": "uint8",
          "name": "version",
          "type": "uint8"
        }
      ],
      "name": "Initialized",
      "type": "event"
    },
    {
      "anonymous": false,
      "inputs": [
        {
          "indexed": false,
          "internalType": "address",
          "name": "oldAdmin",
          "type": "address"
        },
        {
          "indexed": false,
          "internalType": "address",
          "name": "newAdmin",
          "type": "address"
        }
      ],
      "name": "NewAdmin",
      "type": "event"
    },
    {
      "anonymous": false,
      "inputs": [
        {
          "indexed": false,
          "internalType": "address",
          "name": "oldPendingAdmin",
          "type": "address"
        },
        {
          "indexed": false,
          "internalType": "address",
          "name": "newPendingAdmin",
          "type": "address"
        }
      ],
      "name": "NewPendingAdmin",
      "type": "event"
    },
    {
      "anonymous": false,
      "inputs": [
        {
          "indexed": true,
          "internalType": "address",
          "name": "previousOwner",
          "type": "address"
        },
        {
          "indexed": true,
          "internalType": "address",
          "name": "newOwner",
          "type": "address"
        }
      ],
      "name": "OwnershipTransferred",
      "type": "event"
    },
    {
      "inputs": [],
      "name": "_acceptAdmin",
      "outputs": [
        {
          "internalType": "uint256",
          "name": "",
          "type": "uint256"
        }
      ],
      "stateMutability": "nonpayable",
      "type": "function"
    },
    {
      "inputs": [
        {
          "internalType": "address[]",
          "name": "targets",
          "type": "address[]"
        },
        {
          "internalType": "bytes[]",
          "name": "data",
          "type": "bytes[]"
        }
      ],
      "name": "_callPool",
      "outputs": [],
      "stateMutability": "nonpayable",
      "type": "function"
    },
    {
      "inputs": [
        {
          "internalType": "address[]",
          "name": "targets",
          "type": "address[]"
        },
        {
          "internalType": "bytes",
          "name": "data",
          "type": "bytes"
        }
      ],
      "name": "_callPool",
      "outputs": [],
      "stateMutability": "nonpayable",
      "type": "function"
    },
    {
      "inputs": [
        {
          "internalType": "address[]",
          "name": "oldImplementations",
          "type": "address[]"
        },
        {
          "internalType": "address[]",
          "name": "newImplementations",
          "type": "address[]"
        },
        {
          "internalType": "bool[]",
          "name": "allowResign",
          "type": "bool[]"
        },
        {
          "internalType": "bool[]",
          "name": "statuses",
          "type": "bool[]"
        }
      ],
      "name": "_editCErc20DelegateWhitelist",
      "outputs": [],
      "stateMutability": "nonpayable",
      "type": "function"
    },
    {
      "inputs": [
        {
          "internalType": "address[]",
          "name": "oldImplementations",
          "type": "address[]"
        },
        {
          "internalType": "address[]",
          "name": "newImplementations",
          "type": "address[]"
        },
        {
          "internalType": "bool[]",
          "name": "allowResign",
          "type": "bool[]"
        },
        {
          "internalType": "bool[]",
          "name": "statuses",
          "type": "bool[]"
        }
      ],
      "name": "_editCEtherDelegateWhitelist",
      "outputs": [],
      "stateMutability": "nonpayable",
      "type": "function"
    },
    {
      "inputs": [
        {
          "internalType": "address[]",
          "name": "oldImplementations",
          "type": "address[]"
        },
        {
          "internalType": "address[]",
          "name": "newImplementations",
          "type": "address[]"
        },
        {
          "internalType": "bool[]",
          "name": "statuses",
          "type": "bool[]"
        }
      ],
      "name": "_editComptrollerImplementationWhitelist",
      "outputs": [],
      "stateMutability": "nonpayable",
      "type": "function"
    },
    {
      "inputs": [
        {
          "internalType": "address[]",
          "name": "oldImplementations",
          "type": "address[]"
        },
        {
          "internalType": "address[]",
          "name": "newImplementations",
          "type": "address[]"
        },
        {
          "internalType": "bool[]",
          "name": "statuses",
          "type": "bool[]"
        }
      ],
      "name": "_editPluginImplementationWhitelist",
      "outputs": [],
      "stateMutability": "nonpayable",
      "type": "function"
    },
    {
      "inputs": [
        {
          "internalType": "address",
          "name": "",
          "type": "address"
        }
      ],
      "name": "_latestCErc20Delegate",
      "outputs": [
        {
          "internalType": "address",
          "name": "implementation",
          "type": "address"
        },
        {
          "internalType": "bool",
          "name": "allowResign",
          "type": "bool"
        },
        {
          "internalType": "bytes",
          "name": "becomeImplementationData",
          "type": "bytes"
        }
      ],
      "stateMutability": "view",
      "type": "function"
    },
    {
      "inputs": [
        {
          "internalType": "address",
          "name": "",
          "type": "address"
        }
      ],
      "name": "_latestCEtherDelegate",
      "outputs": [
        {
          "internalType": "address",
          "name": "implementation",
          "type": "address"
        },
        {
          "internalType": "bool",
          "name": "allowResign",
          "type": "bool"
        },
        {
          "internalType": "bytes",
          "name": "becomeImplementationData",
          "type": "bytes"
        }
      ],
      "stateMutability": "view",
      "type": "function"
    },
    {
      "inputs": [
        {
          "internalType": "address",
          "name": "",
          "type": "address"
        }
      ],
      "name": "_latestPluginImplementation",
      "outputs": [
        {
          "internalType": "address",
          "name": "",
          "type": "address"
        }
      ],
      "stateMutability": "view",
      "type": "function"
    },
    {
      "inputs": [
        {
          "internalType": "address",
          "name": "comptroller",
          "type": "address"
        },
        {
          "internalType": "int256",
          "name": "rate",
          "type": "int256"
        }
      ],
      "name": "_setCustomInterestFeeRate",
      "outputs": [],
      "stateMutability": "nonpayable",
      "type": "function"
    },
    {
      "inputs": [
        {
          "internalType": "uint256",
          "name": "_defaultInterestFeeRate",
          "type": "uint256"
        }
      ],
      "name": "_setDefaultInterestFeeRate",
      "outputs": [],
      "stateMutability": "nonpayable",
      "type": "function"
    },
    {
      "inputs": [
        {
          "internalType": "address",
          "name": "oldImplementation",
          "type": "address"
        },
        {
          "internalType": "address",
          "name": "newImplementation",
          "type": "address"
        },
        {
          "internalType": "bool",
          "name": "allowResign",
          "type": "bool"
        },
        {
          "internalType": "bytes",
          "name": "becomeImplementationData",
          "type": "bytes"
        }
      ],
      "name": "_setLatestCErc20Delegate",
      "outputs": [],
      "stateMutability": "nonpayable",
      "type": "function"
    },
    {
      "inputs": [
        {
          "internalType": "address",
          "name": "oldImplementation",
          "type": "address"
        },
        {
          "internalType": "address",
          "name": "newImplementation",
          "type": "address"
        },
        {
          "internalType": "bool",
          "name": "allowResign",
          "type": "bool"
        },
        {
          "internalType": "bytes",
          "name": "becomeImplementationData",
          "type": "bytes"
        }
      ],
      "name": "_setLatestCEtherDelegate",
      "outputs": [],
      "stateMutability": "nonpayable",
      "type": "function"
    },
    {
      "inputs": [
        {
          "internalType": "address",
          "name": "oldImplementation",
          "type": "address"
        },
        {
          "internalType": "address",
          "name": "newImplementation",
          "type": "address"
        }
      ],
      "name": "_setLatestComptrollerImplementation",
      "outputs": [],
      "stateMutability": "nonpayable",
      "type": "function"
    },
    {
      "inputs": [
        {
          "internalType": "address",
          "name": "oldImplementation",
          "type": "address"
        },
        {
          "internalType": "address",
          "name": "newImplementation",
          "type": "address"
        }
      ],
      "name": "_setLatestPluginImplementation",
      "outputs": [],
      "stateMutability": "nonpayable",
      "type": "function"
    },
    {
      "inputs": [
        {
          "internalType": "address",
          "name": "newPendingAdmin",
          "type": "address"
        }
      ],
      "name": "_setPendingAdmin",
      "outputs": [
        {
          "internalType": "uint256",
          "name": "",
          "type": "uint256"
        }
      ],
      "stateMutability": "nonpayable",
      "type": "function"
    },
    {
      "inputs": [
        {
          "internalType": "uint256",
          "name": "_minBorrowEth",
          "type": "uint256"
        },
        {
          "internalType": "uint256",
          "name": "_maxSupplyEth",
          "type": "uint256"
        },
        {
          "internalType": "uint256",
          "name": "_maxUtilizationRate",
          "type": "uint256"
        }
      ],
      "name": "_setPoolLimits",
      "outputs": [],
      "stateMutability": "nonpayable",
      "type": "function"
    },
    {
      "inputs": [
        {
          "internalType": "address",
          "name": "cDelegator",
          "type": "address"
        }
      ],
      "name": "_upgradePluginToLatestImplementation",
      "outputs": [
        {
          "internalType": "bool",
          "name": "",
          "type": "bool"
        }
      ],
      "stateMutability": "nonpayable",
      "type": "function"
    },
    {
      "inputs": [
        {
          "internalType": "address",
          "name": "erc20Contract",
          "type": "address"
        }
      ],
      "name": "_withdrawAssets",
      "outputs": [],
      "stateMutability": "nonpayable",
      "type": "function"
    },
    {
      "inputs": [],
      "name": "admin",
      "outputs": [
        {
          "internalType": "address",
          "name": "",
          "type": "address"
        }
      ],
      "stateMutability": "view",
      "type": "function"
    },
    {
      "inputs": [],
      "name": "adminHasRights",
      "outputs": [
        {
          "internalType": "bool",
          "name": "",
          "type": "bool"
        }
      ],
      "stateMutability": "view",
      "type": "function"
    },
    {
      "inputs": [
        {
          "internalType": "address",
          "name": "",
          "type": "address"
        },
        {
          "internalType": "address",
          "name": "",
          "type": "address"
        },
        {
          "internalType": "bool",
          "name": "",
          "type": "bool"
        }
      ],
      "name": "cErc20DelegateWhitelist",
      "outputs": [
        {
          "internalType": "bool",
          "name": "",
          "type": "bool"
        }
      ],
      "stateMutability": "view",
      "type": "function"
    },
    {
      "inputs": [
        {
          "internalType": "address",
          "name": "",
          "type": "address"
        },
        {
          "internalType": "address",
          "name": "",
          "type": "address"
        },
        {
          "internalType": "bool",
          "name": "",
          "type": "bool"
        }
      ],
      "name": "cEtherDelegateWhitelist",
      "outputs": [
        {
          "internalType": "bool",
          "name": "",
          "type": "bool"
        }
      ],
      "stateMutability": "view",
      "type": "function"
    },
    {
      "inputs": [],
      "name": "comptrollerImplementation",
      "outputs": [
        {
          "internalType": "address",
          "name": "",
          "type": "address"
        }
      ],
      "stateMutability": "view",
      "type": "function"
    },
    {
      "inputs": [
        {
          "internalType": "address",
          "name": "",
          "type": "address"
        },
        {
          "internalType": "address",
          "name": "",
          "type": "address"
        }
      ],
      "name": "comptrollerImplementationWhitelist",
      "outputs": [
        {
          "internalType": "bool",
          "name": "",
          "type": "bool"
        }
      ],
      "stateMutability": "view",
      "type": "function"
    },
    {
      "inputs": [
        {
          "internalType": "address",
          "name": "",
          "type": "address"
        }
      ],
      "name": "customInterestFeeRates",
      "outputs": [
        {
          "internalType": "int256",
          "name": "",
          "type": "int256"
        }
      ],
      "stateMutability": "view",
      "type": "function"
    },
    {
      "inputs": [],
      "name": "defaultInterestFeeRate",
      "outputs": [
        {
          "internalType": "uint256",
          "name": "",
          "type": "uint256"
        }
      ],
      "stateMutability": "view",
      "type": "function"
    },
    {
      "inputs": [
        {
          "internalType": "bytes",
          "name": "constructorData",
          "type": "bytes"
        }
      ],
      "name": "deployCErc20",
      "outputs": [
        {
          "internalType": "address",
          "name": "",
          "type": "address"
        }
      ],
      "stateMutability": "nonpayable",
      "type": "function"
    },
    {
      "inputs": [
        {
          "internalType": "bytes",
          "name": "constructorData",
          "type": "bytes"
        }
      ],
      "name": "deployCEther",
      "outputs": [
        {
          "internalType": "address",
          "name": "",
          "type": "address"
        }
      ],
      "stateMutability": "nonpayable",
      "type": "function"
    },
    {
      "inputs": [],
      "name": "fuseAdmin",
      "outputs": [
        {
          "internalType": "address payable",
          "name": "",
          "type": "address"
        }
      ],
      "stateMutability": "view",
      "type": "function"
    },
    {
      "inputs": [],
      "name": "fuseAdminHasRights",
      "outputs": [
        {
          "internalType": "bool",
          "name": "",
          "type": "bool"
        }
      ],
      "stateMutability": "view",
      "type": "function"
    },
    {
      "inputs": [
        {
          "internalType": "uint256",
          "name": "_defaultInterestFeeRate",
          "type": "uint256"
        }
      ],
      "name": "initialize",
      "outputs": [],
      "stateMutability": "nonpayable",
      "type": "function"
    },
    {
      "inputs": [],
      "name": "interestFeeRate",
      "outputs": [
        {
          "internalType": "uint256",
          "name": "",
          "type": "uint256"
        }
      ],
      "stateMutability": "view",
      "type": "function"
    },
    {
      "inputs": [
        {
          "internalType": "address",
          "name": "oldImplementation",
          "type": "address"
        }
      ],
      "name": "latestCErc20Delegate",
      "outputs": [
        {
          "internalType": "address",
          "name": "",
          "type": "address"
        },
        {
          "internalType": "bool",
          "name": "",
          "type": "bool"
        },
        {
          "internalType": "bytes",
          "name": "",
          "type": "bytes"
        }
      ],
      "stateMutability": "view",
      "type": "function"
    },
    {
      "inputs": [
        {
          "internalType": "address",
          "name": "oldImplementation",
          "type": "address"
        }
      ],
      "name": "latestCEtherDelegate",
      "outputs": [
        {
          "internalType": "address",
          "name": "",
          "type": "address"
        },
        {
          "internalType": "bool",
          "name": "",
          "type": "bool"
        },
        {
          "internalType": "bytes",
          "name": "",
          "type": "bytes"
        }
      ],
      "stateMutability": "view",
      "type": "function"
    },
    {
      "inputs": [
        {
          "internalType": "address",
          "name": "oldImplementation",
          "type": "address"
        }
      ],
      "name": "latestComptrollerImplementation",
      "outputs": [
        {
          "internalType": "address",
          "name": "",
          "type": "address"
        }
      ],
      "stateMutability": "view",
      "type": "function"
    },
    {
      "inputs": [
        {
          "internalType": "address",
          "name": "oldImplementation",
          "type": "address"
        }
      ],
      "name": "latestPluginImplementation",
      "outputs": [
        {
          "internalType": "address",
          "name": "",
          "type": "address"
        }
      ],
      "stateMutability": "view",
      "type": "function"
    },
    {
      "inputs": [],
      "name": "marketsCounter",
      "outputs": [
        {
          "internalType": "uint256",
          "name": "",
          "type": "uint256"
        }
      ],
      "stateMutability": "view",
      "type": "function"
    },
    {
      "inputs": [],
      "name": "maxSupplyEth",
      "outputs": [
        {
          "internalType": "uint256",
          "name": "",
          "type": "uint256"
        }
      ],
      "stateMutability": "view",
      "type": "function"
    },
    {
      "inputs": [],
      "name": "maxUtilizationRate",
      "outputs": [
        {
          "internalType": "uint256",
          "name": "",
          "type": "uint256"
        }
      ],
      "stateMutability": "view",
      "type": "function"
    },
    {
      "inputs": [],
      "name": "minBorrowEth",
      "outputs": [
        {
          "internalType": "uint256",
          "name": "",
          "type": "uint256"
        }
      ],
      "stateMutability": "view",
      "type": "function"
    },
    {
      "inputs": [],
      "name": "owner",
      "outputs": [
        {
          "internalType": "address",
          "name": "",
          "type": "address"
        }
      ],
      "stateMutability": "view",
      "type": "function"
    },
    {
      "inputs": [],
      "name": "pendingAdmin",
      "outputs": [
        {
          "internalType": "address",
          "name": "",
          "type": "address"
        }
      ],
      "stateMutability": "view",
      "type": "function"
    },
    {
      "inputs": [],
      "name": "pendingComptrollerImplementation",
      "outputs": [
        {
          "internalType": "address",
          "name": "",
          "type": "address"
        }
      ],
      "stateMutability": "view",
      "type": "function"
    },
    {
      "inputs": [
        {
          "internalType": "address",
          "name": "",
          "type": "address"
        },
        {
          "internalType": "address",
          "name": "",
          "type": "address"
        }
      ],
      "name": "pluginImplementationWhitelist",
      "outputs": [
        {
          "internalType": "bool",
          "name": "",
          "type": "bool"
        }
      ],
      "stateMutability": "view",
      "type": "function"
    },
    {
      "inputs": [],
      "name": "renounceOwnership",
      "outputs": [],
      "stateMutability": "nonpayable",
      "type": "function"
    },
    {
      "inputs": [
        {
          "internalType": "address",
          "name": "newOwner",
          "type": "address"
        }
      ],
      "name": "transferOwnership",
      "outputs": [],
      "stateMutability": "nonpayable",
      "type": "function"
    },
    {
      "stateMutability": "payable",
      "type": "receive"
    }
  ],
  "transactionHash": "0xdb8900c9cbc3c969a4cbd602f540f8dde41b4411bddccdda845aa8a6009dd27b",
  "args": [],
  "numDeployments": 1,
  "bytecode": {
    "object": "0x60806040526067805461ffff60a01b191661010160a01b17905534801561002557600080fd5b50613f1b806100356000396000f3fe608060405260043610620002cf5760003560e01c80638da5cb5b1162000177578063c5232b4711620000d1578063e9c714f21162000084578063e9c714f21462000975578063eba62393146200098d578063f2fde38b14620009b2578063f851a44014620009d7578063fdb25fb114620009f9578063fe4b84df1462000a1157600080fd5b8063c5232b4714620008a8578063d64517b214620008d9578063dcfbc0c714620008fe578063dd86fea11462000920578063dfcb48bd1462000938578063e35a4801146200095057600080fd5b8063a71d085d116200012a578063a71d085d14620007ba578063b01b86fd14620007d2578063b71d1a0c14620007f7578063bb82aa5e146200081c578063bbcdd6d3146200083e578063c11cd440146200086357600080fd5b80638da5cb5b14620006d4578063930d243814620006f45780639b86a9b514620007195780639c7be708146200073e5780639d244f9f1462000756578063a430e617146200079557600080fd5b806345cc970511620002295780637a1133d611620001dc5780637a1133d614620005f457806381218ea9146200061957806384651d73146200063e5780638754e4fd14620006655780638abe0b75146200068a5780638d3bb8ef14620006af57600080fd5b806345cc970514620004d45780634a212ebb14620004f9578063715018a6146200053357806371cd40e6146200054b57806375365b8714620005905780637583efcf14620005b557600080fd5b8063183a3f721162000282578063183a3f7214620003fb5780632678224714620004205780632acbff3914620004425780632f1069ba14620004675780632f876d32146200048a5780633465b6e114620004af57600080fd5b806301758fc214620002dc5780630284db76146200030357806306bc461114620003425780630a755ec214620003675780631259821c146200039b57806315761d5114620003c057600080fd5b36620002d757005b600080fd5b348015620002e957600080fd5b5062000301620002fb36600462002ac2565b62000a36565b005b3480156200031057600080fd5b50620003286200032236600462002ba9565b62000c33565b604051620003399392919062002c2a565b60405180910390f35b3480156200034f57600080fd5b50620003016200036136600462002c61565b62000cf6565b3480156200037457600080fd5b506067546200038a90600160a81b900460ff1681565b604051901515815260200162000339565b348015620003a857600080fd5b5062000301620003ba36600462002c90565b62000d47565b348015620003cd57600080fd5b50606554620003e2906001600160a01b031681565b6040516001600160a01b03909116815260200162000339565b3480156200040857600080fd5b50620003286200041a36600462002ba9565b62000d7f565b3480156200042d57600080fd5b50606754620003e2906001600160a01b031681565b3480156200044f57600080fd5b50620003016200046136600462002cce565b62000db9565b3480156200047457600080fd5b506067546200038a90600160a01b900460ff1681565b3480156200049757600080fd5b5062000301620004a936600462002d41565b62000f01565b348015620004bc57600080fd5b5062000301620004ce36600462002ba9565b62000f19565b348015620004e157600080fd5b5062000328620004f336600462002ba9565b62001156565b3480156200050657600080fd5b50620003e26200051836600462002ba9565b6076602052600090815260409020546001600160a01b031681565b3480156200054057600080fd5b50620003016200127e565b3480156200055857600080fd5b506200038a6200056a36600462002d7d565b606f60209081526000938452604080852082529284528284209052825290205460ff1681565b3480156200059d57600080fd5b5062000301620005af36600462002e14565b62001296565b348015620005c257600080fd5b506200038a620005d436600462002c90565b607760209081526000928352604080842090915290825290205460ff1681565b3480156200060157600080fd5b506200038a6200061336600462002ba9565b62001361565b3480156200062657600080fd5b50620003e26200063836600462002ba9565b620014cd565b3480156200064b57600080fd5b5062000656606a5481565b60405190815260200162000339565b3480156200067257600080fd5b50620003e26200068436600462002e9a565b62001518565b3480156200069757600080fd5b5062000328620006a936600462002ba9565b62001665565b348015620006bc57600080fd5b5062000301620006ce36600462002ee0565b620016c5565b348015620006e157600080fd5b506033546001600160a01b0316620003e2565b3480156200070157600080fd5b50620003016200071336600462002c90565b62001866565b3480156200072657600080fd5b50620003e26200073836600462002e9a565b6200189e565b3480156200074b57600080fd5b5062000656606c5481565b3480156200076357600080fd5b506200038a6200077536600462002c90565b606e60209081526000928352604080842090915290825290205460ff1681565b348015620007a257600080fd5b5062000301620007b436600462002e14565b620019e7565b348015620007c757600080fd5b506200065660755481565b348015620007df57600080fd5b5062000301620007f136600462002f84565b62001aa8565b3480156200080457600080fd5b50620006566200081636600462002ba9565b62001b75565b3480156200082957600080fd5b50606854620003e2906001600160a01b031681565b3480156200084b57600080fd5b50620003e26200085d36600462002ba9565b62001bfb565b3480156200087057600080fd5b506200038a6200088236600462002d7d565b607060209081526000938452604080852082529284528284209052825290205460ff1681565b348015620008b557600080fd5b5062000656620008c736600462002ba9565b60746020526000908152604090205481565b348015620008e657600080fd5b5062000301620008f836600462002ac2565b62001c43565b3480156200090b57600080fd5b50606954620003e2906001600160a01b031681565b3480156200092d57600080fd5b506200065662001e31565b3480156200094557600080fd5b5062000656606d5481565b3480156200095d57600080fd5b50620003016200096f36600462002feb565b62001f32565b3480156200098257600080fd5b506200065662001f6c565b3480156200099a57600080fd5b5062000301620009ac36600462002ee0565b6200204f565b348015620009bf57600080fd5b5062000301620009d136600462002ba9565b620021db565b348015620009e457600080fd5b50606654620003e2906001600160a01b031681565b34801562000a0657600080fd5b5062000656606b5481565b34801562000a1e57600080fd5b506200030162000a3036600462002feb565b62002257565b62000a40620023ad565b841580159062000a4f57508487145b801562000a5b57508483145b801562000a6757508481145b62000aee5760405162461bcd60e51b815260206004820152604660248201527f4e6f2043457263323044656c656761746520696d706c656d656e746174696f6e60448201527f7320737570706c696564206f72206172726179206c656e67746873206e6f742060648201526532b8bab0b61760d11b608482015260a4015b60405180910390fd5b60005b8581101562000c285782828281811062000b0f5762000b0f62003005565b905060200201602081019062000b2691906200301b565b606f60008b8b8581811062000b3f5762000b3f62003005565b905060200201602081019062000b56919062002ba9565b6001600160a01b03166001600160a01b03168152602001908152602001600020600089898581811062000b8d5762000b8d62003005565b905060200201602081019062000ba4919062002ba9565b6001600160a01b03166001600160a01b03168152602001908152602001600020600087878581811062000bdb5762000bdb62003005565b905060200201602081019062000bf291906200301b565b151581526020810191909152604001600020805460ff19169115159190911790558062000c1f816200303b565b91505062000af1565b505050505050505050565b607360205260009081526040902080546001820180546001600160a01b03831693600160a01b90930460ff1692919062000c6d9062003065565b80601f016020809104026020016040519081016040528092919081815260200182805462000c9b9062003065565b801562000cec5780601f1062000cc05761010080835404028352916020019162000cec565b820191906000526020600020905b81548152906001019060200180831162000cce57829003601f168201915b5050505050905083565b62000d00620023ad565b670de0b6b3a764000081131562000d2b5760405162461bcd60e51b815260040162000ae590620030a2565b6001600160a01b03909116600090815260746020526040902055565b62000d51620023ad565b6001600160a01b03918216600090815260766020526040902080546001600160a01b03191691909216179055565b607260205260009081526040902080546001820180546001600160a01b03831693600160a01b90930460ff1692919062000c6d9062003065565b62000dc3620023ad565b821580159062000dd257508281145b62000e385760405162461bcd60e51b815260206004820152602f60248201527f4172726179206c656e67746873206d75737420626520657175616c20616e642060448201526e33b932b0ba32b9103a3430b710181760891b606482015260840162000ae5565b60005b8381101562000efa5762000ee483838381811062000e5d5762000e5d62003005565b905060200281019062000e719190620030ed565b8080601f01602080910402602001604051908101604052809392919081815260200183838082843760009201919091525089925088915085905081811062000ebd5762000ebd62003005565b905060200201602081019062000ed4919062002ba9565b6001600160a01b03169062002409565b508062000ef1816200303b565b91505062000e3b565b5050505050565b62000f0b620023ad565b606b92909255606c55606d55565b6001600160a01b0381166200105657478062000f825760405162461bcd60e51b815260206004820152602160248201527f4e6f2062616c616e636520617661696c61626c6520746f2077697468647261776044820152601760f91b606482015260840162000ae5565b600062000f976033546001600160a01b031690565b6001600160a01b03168260405160006040518083038185875af1925050503d806000811462000fe3576040519150601f19603f3d011682016040523d82523d6000602084013e62000fe8565b606091505b5050905080620010515760405162461bcd60e51b815260206004820152602d60248201527f4661696c656420746f207472616e73666572204554482062616c616e6365207460448201526c379036b9b39739b2b73232b91760991b606482015260840162000ae5565b505050565b6040516370a0823160e01b815230600482015281906000906001600160a01b038316906370a0823190602401602060405180830381865afa158015620010a0573d6000803e3d6000fd5b505050506040513d601f19601f82011682018060405250810190620010c6919062003137565b9050600081116200112a5760405162461bcd60e51b815260206004820152602760248201527f4e6f20746f6b656e2062616c616e636520617661696c61626c6520746f2077696044820152663a34323930bb9760c91b606482015260840162000ae5565b62001051620011416033546001600160a01b031690565b6001600160a01b03841690836200244f565b50565b6001600160a01b03818116600090815260726020908152604080832081516060808201845282549687168252600160a01b90960460ff16151593810193909352600181018054949586959094869490939290840191620011b69062003065565b80601f0160208091040260200160405190810160405280929190818152602001828054620011e49062003065565b8015620012355780601f10620012095761010080835404028352916020019162001235565b820191906000526020600020905b8154815290600101906020018083116200121757829003601f168201915b50505091909252505081519192506060916001600160a01b0316151590506200126257856000826200126f565b8151602083015160408401515b94509450945050509193909250565b62001288620023ad565b620012946000620024a3565b565b620012a0620023ad565b6040518060600160405280856001600160a01b03168152602001841515815260200183838080601f01602080910402602001604051908101604052809392919081815260200183838082843760009201829052509390945250506001600160a01b0380891682526072602090815260409283902085518154878401511515600160a01b026001600160a81b0319909116919094161792909217825591840151805191935062001357926001850192910190620029b1565b5050505050505050565b60006200136d620023ad565b60008290506000816001600160a01b031663ef01df4f6040518163ffffffff1660e01b8152600401602060405180830381865afa158015620013b3573d6000803e3d6000fd5b505050506040513d601f19601f82011682018060405250810190620013d9919062003151565b6001600160a01b038181166000908152607660205260409081902054905163033e92d960e31b815290821660048201529192508316906319f496c890602401600060405180830381600087803b1580156200143357600080fd5b505af115801562001448573d6000803e3d6000fd5b505050506000826001600160a01b031663ef01df4f6040518163ffffffff1660e01b8152600401602060405180830381865afa1580156200148d573d6000803e3d6000fd5b505050506040513d601f19601f82011682018060405250810190620014b3919062003151565b6001600160a01b0390811692169190911415949350505050565b6001600160a01b03818116600090815260766020526040812054909116620014f6578162001512565b6001600160a01b03808316600090815260766020526040902054165b92915050565b600080806200152b604082868862003171565b8101906200153a919062002c90565b90925090506001600160a01b0381163314620015995760405162461bcd60e51b815260206004820152601a60248201527f436f6d7074726f6c6c6572206973206e6f742073656e6465722e000000000000604482015260640162000ae5565b60003383607560008154620015ae906200303b565b91829055506040516bffffffffffffffffffffffff19606094851b811660208301529290931b90911660348301526048820152606801604051602081830303815290604052805190602001209050600060405180602001620016109062002a40565b601f1982820381018352601f909101166040819052620016389190899089906020016200319d565b604051602081830303815290604052905060006200165960008484620024f5565b98975050505050505050565b6001600160a01b03818116600090815260736020908152604080832081516060808201845282549687168252600160a01b90960460ff16151593810193909352600181018054949586959094869490939290840191620011b69062003065565b620016cf620023ad565b8215801590620016de57508285145b8015620016ea57508281145b6200176a5760405162461bcd60e51b815260206004820152604360248201527f4e6f20436f6d7074726f6c6c657220696d706c656d656e746174696f6e73207360448201527f7570706c696564206f72206172726179206c656e67746873206e6f742065717560648201526230b61760e91b608482015260a40162000ae5565b60005b838110156200185d578282828181106200178b576200178b62003005565b9050602002016020810190620017a291906200301b565b606e6000898985818110620017bb57620017bb62003005565b9050602002016020810190620017d2919062002ba9565b6001600160a01b03166001600160a01b03168152602001908152602001600020600087878581811062001809576200180962003005565b905060200201602081019062001820919062002ba9565b6001600160a01b031681526020810191909152604001600020805460ff19169115159190911790558062001854816200303b565b9150506200176d565b50505050505050565b62001870620023ad565b6001600160a01b03918216600090815260716020526040902080546001600160a01b03191691909216179055565b600080620018b0602082858762003171565b810190620018bf919062002ba9565b90506001600160a01b03811633146200191b5760405162461bcd60e51b815260206004820152601a60248201527f436f6d7074726f6c6c6572206973206e6f742073656e6465722e000000000000604482015260640162000ae5565b600033600060756000815462001931906200303b565b91829055506040516bffffffffffffffffffffffff19606094851b811660208301529290931b90911660348301526048820152606801604051602081830303815290604052805190602001209050600060405180602001620019939062002a4e565b601f1982820381018352601f909101166040819052620019bb9190889088906020016200319d565b60405160208183030381529060405290506000620019dc60008484620024f5565b979650505050505050565b620019f1620023ad565b6040518060600160405280856001600160a01b03168152602001841515815260200183838080601f01602080910402602001604051908101604052809392919081815260200183838082843760009201829052509390945250506001600160a01b0380891682526073602090815260409283902085518154878401511515600160a01b026001600160a81b0319909116919094161792909217825591840151805191935062001357926001850192910190620029b1565b62001ab2620023ad565b8262001b015760405162461bcd60e51b815260206004820152601e60248201527f4e6f2074617267657420616464726573736573207370656369666965642e0000604482015260640162000ae5565b60005b8381101562000efa5762001b5f83838080601f01602080910402602001604051908101604052809392919081815260200183838082843760009201919091525089925088915085905081811062000ebd5762000ebd62003005565b508062001b6c816200303b565b91505062001b04565b600062001b8162002605565b62001b945762001512600160106200265a565b606780546001600160a01b038481166001600160a01b031983168117909355604080519190921680825260208201939093527fca4f2f25d0898edd99413412fb94012f9e54ec8142f9b093e7720646a95b16a9910160405180910390a160005b9392505050565b6001600160a01b0381811660009081526071602052604081205490911662001c24578162001512565b506001600160a01b039081166000908152607160205260409020541690565b62001c4d620023ad565b841580159062001c5c57508487145b801562001c6857508483145b801562001c7457508481145b62001cf75760405162461bcd60e51b815260206004820152604660248201527f4e6f2043457468657244656c656761746520696d706c656d656e746174696f6e60448201527f7320737570706c696564206f72206172726179206c656e67746873206e6f742060648201526532b8bab0b61760d11b608482015260a40162000ae5565b60005b8581101562000c285782828281811062001d185762001d1862003005565b905060200201602081019062001d2f91906200301b565b607060008b8b8581811062001d485762001d4862003005565b905060200201602081019062001d5f919062002ba9565b6001600160a01b03166001600160a01b03168152602001908152602001600020600089898581811062001d965762001d9662003005565b905060200201602081019062001dad919062002ba9565b6001600160a01b03166001600160a01b03168152602001908152602001600020600087878581811062001de45762001de462003005565b905060200201602081019062001dfb91906200301b565b151581526020810191909152604001600020805460ff19169115159190911790558062001e28816200303b565b91505062001cfa565b60408051600481526024810182526020810180516001600160e01b0316635fe3b56760e01b179052905160009182918291339162001e709190620031dd565b600060405180830381855afa9150503d806000811462001ead576040519150601f19603f3d011682016040523d82523d6000602084013e62001eb2565b606091505b509150915081801562001ec6575080516020145b1562001f285760008180602001905181019062001ee4919062003151565b6001600160a01b03811660009081526074602052604081205491925081131562001f1057949350505050565b600081121562001f2557600094505050505090565b50505b606a549250505090565b62001f3c620023ad565b670de0b6b3a764000081111562001f675760405162461bcd60e51b815260040162000ae590620030a2565b606a55565b6067546000906001600160a01b0316331462001f955762001f90600160006200265a565b905090565b60668054606780546001600160a01b038082166001600160a01b031980861682179096559490911690915560408051919092168082526020820184905292917ff9ffabca9c8276e99321725bcb43fb076a6c66a54b7f21c4e8146d8519b417dc910160405180910390a1606754604080516001600160a01b03808516825290921660208301527fca4f2f25d0898edd99413412fb94012f9e54ec8142f9b093e7720646a95b16a9910160405180910390a160009250505090565b62002059620023ad565b82158015906200206857508285145b80156200207457508281145b620020e85760405162461bcd60e51b815260206004820152603e60248201527f4e6f20706c7567696e20696d706c656d656e746174696f6e7320737570706c6960448201527f6564206f72206172726179206c656e67746873206e6f7420657175616c2e0000606482015260840162000ae5565b60005b838110156200185d5782828281811062002109576200210962003005565b90506020020160208101906200212091906200301b565b6077600089898581811062002139576200213962003005565b905060200201602081019062002150919062002ba9565b6001600160a01b03166001600160a01b03168152602001908152602001600020600087878581811062002187576200218762003005565b90506020020160208101906200219e919062002ba9565b6001600160a01b031681526020810191909152604001600020805460ff191691151591909117905580620021d2816200303b565b915050620020eb565b620021e5620023ad565b6001600160a01b0381166200224c5760405162461bcd60e51b815260206004820152602660248201527f4f776e61626c653a206e6577206f776e657220697320746865207a65726f206160448201526564647265737360d01b606482015260840162000ae5565b6200115381620024a3565b600054610100900460ff1615808015620022785750600054600160ff909116105b80620022945750303b15801562002294575060005460ff166001145b620022f95760405162461bcd60e51b815260206004820152602e60248201527f496e697469616c697a61626c653a20636f6e747261637420697320616c72656160448201526d191e481a5b9a5d1a585b1a5e995960921b606482015260840162000ae5565b6000805460ff1916600117905580156200231d576000805461ff0019166101001790555b670de0b6b3a7640000821115620023485760405162461bcd60e51b815260040162000ae590620030a2565b62002352620026dc565b606a829055600019606c819055606d558015620023a9576000805461ff0019169055604051600181527f7f26b83ff96e1f2b6a682f133852f6798a09c465da95921460cefb38474024989060200160405180910390a15b5050565b6033546001600160a01b03163314620012945760405162461bcd60e51b815260206004820181905260248201527f4f776e61626c653a2063616c6c6572206973206e6f7420746865206f776e6572604482015260640162000ae5565b606062001bf4838360006040518060400160405280601e81526020017f416464726573733a206c6f772d6c6576656c2063616c6c206661696c6564000081525062002710565b604080516001600160a01b038416602482015260448082018490528251808303909101815260649091019091526020810180516001600160e01b031663a9059cbb60e01b17905262001051908490620027e8565b603380546001600160a01b038381166001600160a01b0319831681179093556040519116919082907f8be0079c531659141344cd1fd0a4f28419497f9722a3daafe3b4186f6b6457e090600090a35050565b600080844710156200254a5760405162461bcd60e51b815260206004820152601d60248201527f437265617465323a20696e73756666696369656e742062616c616e6365000000604482015260640162000ae5565b82516200259a5760405162461bcd60e51b815260206004820181905260248201527f437265617465323a2062797465636f6465206c656e677468206973207a65726f604482015260640162000ae5565b8383516020850187f590506001600160a01b038116620025fd5760405162461bcd60e51b815260206004820152601960248201527f437265617465323a204661696c6564206f6e206465706c6f7900000000000000604482015260640162000ae5565b949350505050565b6066546000906001600160a01b0316331480156200262c5750606754600160a81b900460ff165b8062001f9057506065546001600160a01b03163314801562001f90575050606754600160a01b900460ff1690565b60007f45b96fe442630264581b197e84bbada861235052c5a1aadfff9ea4e40a969aa0836015811115620026925762002692620031c7565b83601b811115620026a757620026a7620031c7565b60408051928352602083019190915260009082015260600160405180910390a182601581111562001bf45762001bf4620031c7565b600054610100900460ff16620027065760405162461bcd60e51b815260040162000ae590620031fb565b62001294620028c1565b606082471015620027735760405162461bcd60e51b815260206004820152602660248201527f416464726573733a20696e73756666696369656e742062616c616e636520666f6044820152651c8818d85b1b60d21b606482015260840162000ae5565b600080866001600160a01b03168587604051620027919190620031dd565b60006040518083038185875af1925050503d8060008114620027d0576040519150601f19603f3d011682016040523d82523d6000602084013e620027d5565b606091505b5091509150620019dc87838387620028f6565b60006200283f826040518060400160405280602081526020017f5361666545524332303a206c6f772d6c6576656c2063616c6c206661696c6564815250856001600160a01b0316620029739092919063ffffffff16565b80519091501562001051578080602001905181019062002860919062003246565b620010515760405162461bcd60e51b815260206004820152602a60248201527f5361666545524332303a204552433230206f7065726174696f6e20646964206e6044820152691bdd081cdd58d8d9595960b21b606482015260840162000ae5565b600054610100900460ff16620028eb5760405162461bcd60e51b815260040162000ae590620031fb565b6200129433620024a3565b60608315620029675782516200295f576001600160a01b0385163b6200295f5760405162461bcd60e51b815260206004820152601d60248201527f416464726573733a2063616c6c20746f206e6f6e2d636f6e7472616374000000604482015260640162000ae5565b5081620025fd565b620025fd838362002984565b6060620025fd848460008562002710565b815115620029955781518083602001fd5b8060405162461bcd60e51b815260040162000ae5919062003266565b828054620029bf9062003065565b90600052602060002090601f016020900481019282620029e3576000855562002a2e565b82601f10620029fe57805160ff191683800117855562002a2e565b8280016001018555821562002a2e579182015b8281111562002a2e57825182559160200191906001019062002a11565b5062002a3c92915062002a5c565b5090565b610696806200327c83390190565b6105fd806200391283390190565b5b8082111562002a3c576000815560010162002a5d565b60008083601f84011262002a8657600080fd5b50813567ffffffffffffffff81111562002a9f57600080fd5b6020830191508360208260051b850101111562002abb57600080fd5b9250929050565b6000806000806000806000806080898b03121562002adf57600080fd5b883567ffffffffffffffff8082111562002af857600080fd5b62002b068c838d0162002a73565b909a50985060208b013591508082111562002b2057600080fd5b62002b2e8c838d0162002a73565b909850965060408b013591508082111562002b4857600080fd5b62002b568c838d0162002a73565b909650945060608b013591508082111562002b7057600080fd5b5062002b7f8b828c0162002a73565b999c989b5096995094979396929594505050565b6001600160a01b03811681146200115357600080fd5b60006020828403121562002bbc57600080fd5b813562001bf48162002b93565b60005b8381101562002be657818101518382015260200162002bcc565b8381111562002bf6576000848401525b50505050565b6000815180845262002c1681602086016020860162002bc9565b601f01601f19169290920160200192915050565b6001600160a01b0384168152821515602082015260606040820181905260009062002c589083018462002bfc565b95945050505050565b6000806040838503121562002c7557600080fd5b823562002c828162002b93565b946020939093013593505050565b6000806040838503121562002ca457600080fd5b823562002cb18162002b93565b9150602083013562002cc38162002b93565b809150509250929050565b6000806000806040858703121562002ce557600080fd5b843567ffffffffffffffff8082111562002cfe57600080fd5b62002d0c8883890162002a73565b9096509450602087013591508082111562002d2657600080fd5b5062002d358782880162002a73565b95989497509550505050565b60008060006060848603121562002d5757600080fd5b505081359360208301359350604090920135919050565b80151581146200115357600080fd5b60008060006060848603121562002d9357600080fd5b833562002da08162002b93565b9250602084013562002db28162002b93565b9150604084013562002dc48162002d6e565b809150509250925092565b60008083601f84011262002de257600080fd5b50813567ffffffffffffffff81111562002dfb57600080fd5b60208301915083602082850101111562002abb57600080fd5b60008060008060006080868803121562002e2d57600080fd5b853562002e3a8162002b93565b9450602086013562002e4c8162002b93565b9350604086013562002e5e8162002d6e565b9250606086013567ffffffffffffffff81111562002e7b57600080fd5b62002e898882890162002dcf565b969995985093965092949392505050565b6000806020838503121562002eae57600080fd5b823567ffffffffffffffff81111562002ec657600080fd5b62002ed48582860162002dcf565b90969095509350505050565b6000806000806000806060878903121562002efa57600080fd5b863567ffffffffffffffff8082111562002f1357600080fd5b62002f218a838b0162002a73565b9098509650602089013591508082111562002f3b57600080fd5b62002f498a838b0162002a73565b9096509450604089013591508082111562002f6357600080fd5b5062002f7289828a0162002a73565b979a9699509497509295939492505050565b6000806000806040858703121562002f9b57600080fd5b843567ffffffffffffffff8082111562002fb457600080fd5b62002fc28883890162002a73565b9096509450602087013591508082111562002fdc57600080fd5b5062002d358782880162002dcf565b60006020828403121562002ffe57600080fd5b5035919050565b634e487b7160e01b600052603260045260246000fd5b6000602082840312156200302e57600080fd5b813562001bf48162002d6e565b60006000198214156200305e57634e487b7160e01b600052601160045260246000fd5b5060010190565b600181811c908216806200307a57607f821691505b602082108114156200309c57634e487b7160e01b600052602260045260246000fd5b50919050565b6020808252602b908201527f496e7465726573742066656520726174652063616e6e6f74206265206d6f726560408201526a103a3430b710189818129760a91b606082015260800190565b6000808335601e198436030181126200310557600080fd5b83018035915067ffffffffffffffff8211156200312157600080fd5b60200191503681900382131562002abb57600080fd5b6000602082840312156200314a57600080fd5b5051919050565b6000602082840312156200316457600080fd5b815162001bf48162002b93565b600080858511156200318257600080fd5b838611156200319057600080fd5b5050820193919092039150565b60008451620031b181846020890162002bc9565b8201838582376000930192835250909392505050565b634e487b7160e01b600052602160045260246000fd5b60008251620031f181846020870162002bc9565b9190910192915050565b6020808252602b908201527f496e697469616c697a61626c653a20636f6e7472616374206973206e6f74206960408201526a6e697469616c697a696e6760a81b606082015260800190565b6000602082840312156200325957600080fd5b815162001bf48162002d6e565b60208152600062001bf4602083018462002bfc56fe608060405234801561001057600080fd5b5060405161069638038061069683398101604081905261002f91610246565b610085848b8b8b8b8b8b8989604051602401610052989796959493929190610363565b60408051601f198184030181529190526020810180516001600160e01b039081166306db3ecd60e01b179091526100e316565b506100d384856000866040516024016100a0939291906103cc565b60408051601f198184030181529190526020810180516001600160e01b039081166350d85b7360e01b179091526100e316565b505050505050505050505061041d565b6060600080846001600160a01b0316846040516101009190610401565b600060405180830381855af49150503d806000811461013b576040519150601f19603f3d011682016040523d82523d6000602084013e610140565b606091505b50915091506000821415610155573d60208201fd5b949350505050565b80516001600160a01b038116811461017457600080fd5b919050565b634e487b7160e01b600052604160045260246000fd5b60005b838110156101aa578181015183820152602001610192565b838111156101b9576000848401525b50505050565b600082601f8301126101d057600080fd5b81516001600160401b03808211156101ea576101ea610179565b604051601f8301601f19908116603f0116810190828211818310171561021257610212610179565b8160405283815286602085880101111561022b57600080fd5b61023c84602083016020890161018f565b9695505050505050565b6000806000806000806000806000806101408b8d03121561026657600080fd5b61026f8b61015d565b995061027d60208c0161015d565b985061028b60408c0161015d565b975061029960608c0161015d565b60808c01519097506001600160401b03808211156102b657600080fd5b6102c28e838f016101bf565b975060a08d01519150808211156102d857600080fd5b6102e48e838f016101bf565b96506102f260c08e0161015d565b955060e08d015191508082111561030857600080fd5b506103158d828e016101bf565b9350506101008b015191506101208b015190509295989b9194979a5092959850565b6000815180845261034f81602086016020860161018f565b601f01601f19169290920160200192915050565b6001600160a01b0389811682528881166020830152878116604083015286166060820152610100608082018190526000906103a083820188610337565b905082810360a08401526103b48187610337565b60c0840195909552505060e001529695505050505050565b6001600160a01b038416815282151560208201526060604082018190526000906103f890830184610337565b95945050505050565b6000825161041381846020870161018f565b9190910192915050565b61026a8061042c6000396000f3fe6080604052600436106100225760003560e01c80635c60da1b1461015c57610029565b3661002957005b34156100a15760405162461bcd60e51b815260206004820152603760248201527f43457263323044656c656761746f723a66616c6c6261636b3a2063616e6e6f7460448201527f2073656e642076616c756520746f2066616c6c6261636b000000000000000000606482015260840160405180910390fd5b6000546040805160048152602481019091526020810180516001600160e01b031663076de25160e21b1790526100e0916001600160a01b031690610198565b50600080546040516001600160a01b03909116906101019083903690610212565b600060405180830381855af49150503d806000811461013c576040519150601f19603f3d011682016040523d82523d6000602084013e610141565b606091505b505090506040513d6000823e818015610158573d82f35b3d82fd5b34801561016857600080fd5b5060005461017c906001600160a01b031681565b6040516001600160a01b03909116815260200160405180910390f35b6060600080846001600160a01b0316846040516101b59190610222565b600060405180830381855af49150503d80600081146101f0576040519150601f19603f3d011682016040523d82523d6000602084013e6101f5565b606091505b5091509150600082141561020a573d60208201fd5b949350505050565b8183823760009101908152919050565b6000825160005b818110156102435760208186018101518583015201610229565b81811115610252576000828501525b50919091019291505056fea164736f6c634300080a000a608060405234801561001057600080fd5b506040516105fd3803806105fd83398101604081905261002f91610243565b610083848a8a8a8a8a8888604051602401610050979695949392919061034e565b60408051601f198184030181529190526020810180516001600160e01b0390811663a0b0d28960e01b179091526100e016565b506100d1848560008660405160240161009e939291906103ab565b60408051601f198184030181529190526020810180516001600160e01b039081166350d85b7360e01b179091526100e016565b505050505050505050506103fc565b6060600080846001600160a01b0316846040516100fd91906103e0565b600060405180830381855af49150503d8060008114610138576040519150601f19603f3d011682016040523d82523d6000602084013e61013d565b606091505b50915091506000821415610152573d60208201fd5b949350505050565b80516001600160a01b038116811461017157600080fd5b919050565b634e487b7160e01b600052604160045260246000fd5b60005b838110156101a757818101518382015260200161018f565b838111156101b6576000848401525b50505050565b600082601f8301126101cd57600080fd5b81516001600160401b03808211156101e7576101e7610176565b604051601f8301601f19908116603f0116810190828211818310171561020f5761020f610176565b8160405283815286602085880101111561022857600080fd5b61023984602083016020890161018c565b9695505050505050565b60008060008060008060008060006101208a8c03121561026257600080fd5b61026b8a61015a565b985061027960208b0161015a565b975061028760408b0161015a565b60608b01519097506001600160401b03808211156102a457600080fd5b6102b08d838e016101bc565b975060808c01519150808211156102c657600080fd5b6102d28d838e016101bc565b96506102e060a08d0161015a565b955060c08c01519150808211156102f657600080fd5b506103038c828d016101bc565b93505060e08a015191506101008a015190509295985092959850929598565b6000815180845261033a81602086016020860161018c565b601f01601f19169290920160200192915050565b6001600160a01b03888116825287811660208301528616604082015260e06060820181905260009061038290830187610322565b82810360808401526103948187610322565b60a0840195909552505060c0015295945050505050565b6001600160a01b038416815282151560208201526060604082018190526000906103d790830184610322565b95945050505050565b600082516103f281846020870161018c565b9190910192915050565b6101f28061040b6000396000f3fe6080604052600436106100225760003560e01c80635c60da1b146100e457610029565b3661002957005b6000546040805160048152602481019091526020810180516001600160e01b031663076de25160e21b179052610068916001600160a01b031690610120565b50600080546040516001600160a01b0390911690610089908390369061019a565b600060405180830381855af49150503d80600081146100c4576040519150601f19603f3d011682016040523d82523d6000602084013e6100c9565b606091505b505090506040513d6000823e8180156100e0573d82f35b3d82fd5b3480156100f057600080fd5b50600054610104906001600160a01b031681565b6040516001600160a01b03909116815260200160405180910390f35b6060600080846001600160a01b03168460405161013d91906101aa565b600060405180830381855af49150503d8060008114610178576040519150601f19603f3d011682016040523d82523d6000602084013e61017d565b606091505b50915091506000821415610192573d60208201fd5b949350505050565b8183823760009101908152919050565b6000825160005b818110156101cb57602081860181015185830152016101b1565b818111156101da576000828501525b50919091019291505056fea164736f6c634300080a000aa164736f6c634300080a000a",
    "linkReferences": {}
  },
  "methodIdentifiers": {
    "_acceptAdmin()": "e9c714f2",
    "_callPool(address[],bytes)": "b01b86fd",
    "_callPool(address[],bytes[])": "2acbff39",
    "_editCErc20DelegateWhitelist(address[],address[],bool[],bool[])": "01758fc2",
    "_editCEtherDelegateWhitelist(address[],address[],bool[],bool[])": "d64517b2",
    "_editComptrollerImplementationWhitelist(address[],address[],bool[])": "8d3bb8ef",
    "_editPluginImplementationWhitelist(address[],address[],bool[])": "eba62393",
    "_latestCErc20Delegate(address)": "183a3f72",
    "_latestCEtherDelegate(address)": "0284db76",
    "_latestPluginImplementation(address)": "4a212ebb",
    "_setCustomInterestFeeRate(address,int256)": "06bc4611",
    "_setDefaultInterestFeeRate(uint256)": "e35a4801",
    "_setLatestCErc20Delegate(address,address,bool,bytes)": "75365b87",
    "_setLatestCEtherDelegate(address,address,bool,bytes)": "a430e617",
    "_setLatestComptrollerImplementation(address,address)": "930d2438",
    "_setLatestPluginImplementation(address,address)": "1259821c",
    "_setPendingAdmin(address)": "b71d1a0c",
    "_setPoolLimits(uint256,uint256,uint256)": "2f876d32",
    "_upgradePluginToLatestImplementation(address)": "7a1133d6",
    "_withdrawAssets(address)": "3465b6e1",
    "admin()": "f851a440",
    "adminHasRights()": "0a755ec2",
    "cErc20DelegateWhitelist(address,address,bool)": "71cd40e6",
    "cEtherDelegateWhitelist(address,address,bool)": "c11cd440",
    "comptrollerImplementation()": "bb82aa5e",
    "comptrollerImplementationWhitelist(address,address)": "9d244f9f",
    "customInterestFeeRates(address)": "c5232b47",
    "defaultInterestFeeRate()": "84651d73",
    "deployCErc20(bytes)": "8754e4fd",
    "deployCEther(bytes)": "9b86a9b5",
    "fuseAdmin()": "15761d51",
    "fuseAdminHasRights()": "2f1069ba",
    "initialize(uint256)": "fe4b84df",
    "interestFeeRate()": "dd86fea1",
    "latestCErc20Delegate(address)": "45cc9705",
    "latestCEtherDelegate(address)": "8abe0b75",
    "latestComptrollerImplementation(address)": "bbcdd6d3",
    "latestPluginImplementation(address)": "81218ea9",
    "marketsCounter()": "a71d085d",
    "maxSupplyEth()": "9c7be708",
    "maxUtilizationRate()": "dfcb48bd",
    "minBorrowEth()": "fdb25fb1",
    "owner()": "8da5cb5b",
    "pendingAdmin()": "26782247",
    "pendingComptrollerImplementation()": "dcfbc0c7",
    "pluginImplementationWhitelist(address,address)": "7583efcf",
    "renounceOwnership()": "715018a6",
    "transferOwnership(address)": "f2fde38b"
  }
}