{
  "address": "0x5220AA88bb3E04626a6C796F1A26467C5F509152",
  "abi": [
    {
      "inputs": [
        {
          "internalType": "address",
          "name": "wtoken",
          "type": "address"
        }
      ],
      "stateMutability": "nonpayable",
      "type": "constructor"
    },
    {
      "inputs": [],
      "name": "WTOKEN",
      "outputs": [
        {
          "internalType": "address",
          "name": "",
          "type": "address"
        }
      ],
      "stateMutability": "view",
      "type": "function"
    },
    {
      "inputs": [
        {
          "internalType": "contract ICErc20",
          "name": "cToken",
          "type": "address"
        }
      ],
      "name": "getUnderlyingPrice",
      "outputs": [
        {
          "internalType": "uint256",
          "name": "",
          "type": "uint256"
        }
      ],
      "stateMutability": "view",
      "type": "function"
    },
    {
      "inputs": [
        {
          "internalType": "address",
          "name": "underlying",
          "type": "address"
        }
      ],
      "name": "price",
      "outputs": [
        {
          "internalType": "uint256",
          "name": "",
          "type": "uint256"
        }
      ],
      "stateMutability": "view",
      "type": "function"
    }
  ],
  "transactionHash": "0xc02b7a703e6c092da1421578ee4dc6643af24f7527e29587d17d9a8cfc479777",
  "args": [
    "0x0d500B1d8E8eF31E21C99d1Db9A6444d3ADf1270"
  ],
  "numDeployments": 1,
  "bytecode": {
    "object": "0x60a060405234801561001057600080fd5b50604051610d8a380380610d8a83398101604081905261002f91610040565b6001600160a01b0316608052610070565b60006020828403121561005257600080fd5b81516001600160a01b038116811461006957600080fd5b9392505050565b608051610cf261009860003960008181604b015281816102a801526103cf0152610cf26000f3fe608060405234801561001057600080fd5b50600436106100415760003560e01c80635bcf1f7614610046578063aea910781461008a578063fc57d4df146100ab575b600080fd5b61006d7f000000000000000000000000000000000000000000000000000000000000000081565b6040516001600160a01b0390911681526020015b60405180910390f35b61009d610098366004610ad5565b6100be565b604051908152602001610081565b61009d6100b9366004610ad5565b6100cf565b60006100c9826101d2565b92915050565b600080826001600160a01b0316636f307dc36040518163ffffffff1660e01b8152600401602060405180830381865afa158015610110573d6000803e3d6000fd5b505050506040513d601f19601f820116820180604052508101906101349190610af2565b9050806001600160a01b031663313ce5676040518163ffffffff1660e01b8152600401602060405180830381865afa158015610174573d6000803e3d6000fd5b505050506040513d601f19601f820116820180604052508101906101989190610b0f565b6101a69060ff16600a610c2c565b6101af826101d2565b6101c190670de0b6b3a7640000610c38565b6101cb9190610c57565b9392505050565b6000808290506000816001600160a01b0316630dfe16816040518163ffffffff1660e01b8152600401602060405180830381865afa158015610218573d6000803e3d6000fd5b505050506040513d601f19601f8201168201806040525081019061023c9190610af2565b90506000826001600160a01b031663d21220a76040518163ffffffff1660e01b8152600401602060405180830381865afa15801561027e573d6000803e3d6000fd5b505050506040513d601f19601f820116820180604052508101906102a29190610af2565b905060007f00000000000000000000000000000000000000000000000000000000000000006001600160a01b0316836001600160a01b03161461034c576040516315d5220f60e31b81526001600160a01b0384166004820152339063aea9107890602401602060405180830381865afa158015610323573d6000803e3d6000fd5b505050506040513d601f19601f820116820180604052508101906103479190610c79565b610356565b670de0b6b3a76400005b9050600081116103cb5760405162461bcd60e51b815260206004820152603560248201527f4661696c656420746f20726574726965766520707269636520666f7220472d556044820152742724903ab73232b9363cb4b733903a37b5b2b7181760591b60648201526084015b60405180910390fd5b60007f00000000000000000000000000000000000000000000000000000000000000006001600160a01b0316836001600160a01b031614610473576040516315d5220f60e31b81526001600160a01b0384166004820152339063aea9107890602401602060405180830381865afa15801561044a573d6000803e3d6000fd5b505050506040513d601f19601f8201168201806040525081019061046e9190610c79565b61047d565b670de0b6b3a76400005b9050600081116104ed5760405162461bcd60e51b815260206004820152603560248201527f4661696c656420746f20726574726965766520707269636520666f7220472d556044820152742724903ab73232b9363cb4b733903a37b5b2b7189760591b60648201526084016103c2565b6000846001600160a01b031663313ce5676040518163ffffffff1660e01b8152600401602060405180830381865afa15801561052d573d6000803e3d6000fd5b505050506040513d601f19601f820116820180604052508101906105519190610b0f565b60ff16905060128111156105c15760405162461bcd60e51b815260206004820152603160248201527f472d554e4920756e6465726c79696e6720746f6b656e3020646563696d616c736044820152701033b932b0ba32b9103a3430b710189c1760791b60648201526084016103c2565b60006105ce826012610c92565b6105d990600a610c2c565b90506000856001600160a01b031663313ce5676040518163ffffffff1660e01b8152600401602060405180830381865afa15801561061b573d6000803e3d6000fd5b505050506040513d601f19601f8201168201806040525081019061063f9190610b0f565b60ff16905060128111156106af5760405162461bcd60e51b815260206004820152603160248201527f472d554e4920756e6465726c79696e6720746f6b656e3120646563696d616c736044820152701033b932b0ba32b9103a3430b710189c1760791b60648201526084016103c2565b60006106bc826012610c92565b6106c790600a610c2c565b90506000610721603061071a6106de88600a610c2c565b6106e8908a610c38565b6106f387600a610c2c565b6106fd908c610c38565b61070b90600160601b610c38565b6107159190610c57565b6108ca565b901b610a48565b60405163b670ed7d60e01b81526001600160a01b0380831660048301529192506000918291908d169063b670ed7d906024016040805180830381865afa15801561076f573d6000803e3d6000fd5b505050506040513d601f19601f820116820180604052508101906107939190610ca9565b9150915060008211806107a65750600081115b6108185760405162461bcd60e51b815260206004820152603860248201527f472d554e4920756e6465726c79696e6720746f6b656e2062616c616e6365732060448201527f6e6f7420626f74682067726561746572207468616e20302e000000000000000060648201526084016103c2565b8d6001600160a01b03166318160ddd6040518163ffffffff1660e01b8152600401602060405180830381865afa158015610856573d6000803e3d6000fd5b505050506040513d601f19601f8201168201806040525081019061087a9190610c79565b84610885838b610c38565b61088f9190610c38565b8761089a858d610c38565b6108a49190610c38565b6108ae9190610ccd565b6108b89190610c57565b9e9d5050505050505050505050505050565b6000816108d957506000919050565b816001600160801b82106108f25760809190911c9060401b5b68010000000000000000821061090d5760409190911c9060201b5b64010000000082106109245760209190911c9060101b5b6201000082106109395760109190911c9060081b5b610100821061094d5760089190911c9060041b5b601082106109605760049190911c9060021b5b6008821061096c5760011b5b60016109788286610c57565b6109829083610ccd565b901c905060016109928286610c57565b61099c9083610ccd565b901c905060016109ac8286610c57565b6109b69083610ccd565b901c905060016109c68286610c57565b6109d09083610ccd565b901c905060016109e08286610c57565b6109ea9083610ccd565b901c905060016109fa8286610c57565b610a049083610ccd565b901c90506001610a148286610c57565b610a1e9083610ccd565b901c90506000610a2e8286610c57565b9050808210610a3d5780610a3f565b815b95945050505050565b806001600160a01b0381168114610ab85760405162461bcd60e51b815260206004820152602e60248201527f4f766572666c6f77207768656e20636f6e76657274696e672075696e7432353660448201526d1034b73a37903ab4b73a189b181760911b60648201526084016103c2565b919050565b6001600160a01b0381168114610ad257600080fd5b50565b600060208284031215610ae757600080fd5b81356101cb81610abd565b600060208284031215610b0457600080fd5b81516101cb81610abd565b600060208284031215610b2157600080fd5b815160ff811681146101cb57600080fd5b634e487b7160e01b600052601160045260246000fd5b600181815b80851115610b83578160001904821115610b6957610b69610b32565b80851615610b7657918102915b93841c9390800290610b4d565b509250929050565b600082610b9a575060016100c9565b81610ba7575060006100c9565b8160018114610bbd5760028114610bc757610be3565b60019150506100c9565b60ff841115610bd857610bd8610b32565b50506001821b6100c9565b5060208310610133831016604e8410600b8410161715610c06575081810a6100c9565b610c108383610b48565b8060001904821115610c2457610c24610b32565b029392505050565b60006101cb8383610b8b565b6000816000190483118215151615610c5257610c52610b32565b500290565b600082610c7457634e487b7160e01b600052601260045260246000fd5b500490565b600060208284031215610c8b57600080fd5b5051919050565b600082821015610ca457610ca4610b32565b500390565b60008060408385031215610cbc57600080fd5b505080516020909101519092909150565b60008219821115610ce057610ce0610b32565b50019056fea164736f6c634300080a000a",
    "linkReferences": {}
  },
  "methodIdentifiers": {
    "WTOKEN()": "5bcf1f76",
    "getUnderlyingPrice(address)": "fc57d4df",
    "price(address)": "aea91078"
  }
}