{
  "address": "0xF8E6076A14D1b79862991cd8aE4b864B1aac4F1b",
  "abi": [
    {
      "anonymous": false,
      "inputs": [
        {
          "indexed": false,
          "internalType": "uint8",
          "name": "version",
          "type": "uint8"
        }
      ],
      "name": "Initialized",
      "type": "event"
    },
    {
      "anonymous": false,
      "inputs": [
        {
          "indexed": false,
          "internalType": "address",
          "name": "oldOwner",
          "type": "address"
        },
        {
          "indexed": false,
          "internalType": "address",
          "name": "newOwner",
          "type": "address"
        }
      ],
      "name": "NewOwner",
      "type": "event"
    },
    {
      "anonymous": false,
      "inputs": [
        {
          "indexed": false,
          "internalType": "address",
          "name": "oldPendingOwner",
          "type": "address"
        },
        {
          "indexed": false,
          "internalType": "address",
          "name": "newPendingOwner",
          "type": "address"
        }
      ],
      "name": "NewPendingOwner",
      "type": "event"
    },
    {
      "anonymous": false,
      "inputs": [
        {
          "indexed": true,
          "internalType": "address",
          "name": "previousOwner",
          "type": "address"
        },
        {
          "indexed": true,
          "internalType": "address",
          "name": "newOwner",
          "type": "address"
        }
      ],
      "name": "OwnershipTransferred",
      "type": "event"
    },
    {
      "inputs": [],
      "name": "_acceptOwner",
      "outputs": [],
      "stateMutability": "nonpayable",
      "type": "function"
    },
    {
      "inputs": [
        {
          "internalType": "address",
          "name": "newPendingOwner",
          "type": "address"
        }
      ],
      "name": "_setPendingOwner",
      "outputs": [],
      "stateMutability": "nonpayable",
      "type": "function"
    },
    {
      "inputs": [],
      "name": "flashSwapFee",
      "outputs": [
        {
          "internalType": "uint8",
          "name": "",
          "type": "uint8"
        }
      ],
      "stateMutability": "view",
      "type": "function"
    },
    {
      "inputs": [],
      "name": "initialize",
      "outputs": [],
      "stateMutability": "nonpayable",
      "type": "function"
    },
    {
      "inputs": [
        {
          "components": [
            {
              "internalType": "address",
              "name": "borrower",
              "type": "address"
            },
            {
              "internalType": "uint256",
              "name": "repayAmount",
              "type": "uint256"
            },
            {
              "internalType": "contract ICErc20",
              "name": "debtMarket",
              "type": "address"
            },
            {
              "internalType": "contract ICErc20",
              "name": "collateralMarket",
              "type": "address"
            },
            {
              "internalType": "uint256",
              "name": "fundingAmount",
              "type": "uint256"
            },
            {
              "internalType": "contract IRedemptionStrategy[]",
              "name": "redemptionStrategies",
              "type": "address[]"
            },
            {
              "internalType": "bytes[]",
              "name": "redemptionStrategiesData",
              "type": "bytes[]"
            }
          ],
          "internalType": "struct JarvisSafeLiquidator.LiquidateJarvisDebtVars",
          "name": "vars",
          "type": "tuple"
        }
      ],
      "name": "liquidateJarvisDebt",
      "outputs": [
        {
          "internalType": "uint256",
          "name": "",
          "type": "uint256"
        }
      ],
      "stateMutability": "nonpayable",
      "type": "function"
    },
    {
      "inputs": [],
      "name": "owner",
      "outputs": [
        {
          "internalType": "address",
          "name": "",
          "type": "address"
        }
      ],
      "stateMutability": "view",
      "type": "function"
    },
    {
      "inputs": [],
      "name": "pendingOwner",
      "outputs": [
        {
          "internalType": "address",
          "name": "",
          "type": "address"
        }
      ],
      "stateMutability": "view",
      "type": "function"
    },
    {
      "inputs": [
        {
          "internalType": "contract IERC20Upgradeable",
          "name": "underlyingCollateral",
          "type": "address"
        },
        {
          "internalType": "uint256",
          "name": "underlyingCollateralSeized",
          "type": "uint256"
        },
        {
          "internalType": "contract IRedemptionStrategy",
          "name": "strategy",
          "type": "address"
        },
        {
          "internalType": "bytes",
          "name": "strategyData",
          "type": "bytes"
        }
      ],
      "name": "redeemCustomCollateral",
      "outputs": [
        {
          "internalType": "contract IERC20Upgradeable",
          "name": "",
          "type": "address"
        },
        {
          "internalType": "uint256",
          "name": "",
          "type": "uint256"
        }
      ],
      "stateMutability": "nonpayable",
      "type": "function"
    },
    {
      "inputs": [],
      "name": "renounceOwnership",
      "outputs": [],
      "stateMutability": "nonpayable",
      "type": "function"
    },
    {
      "inputs": [
        {
          "internalType": "address",
          "name": "newOwner",
          "type": "address"
        }
      ],
      "name": "transferOwnership",
      "outputs": [],
      "stateMutability": "nonpayable",
      "type": "function"
    },
    {
      "inputs": [
        {
          "internalType": "address",
          "name": "sender",
          "type": "address"
        },
        {
          "internalType": "uint256",
          "name": "amount0",
          "type": "uint256"
        },
        {
          "internalType": "uint256",
          "name": "amount1",
          "type": "uint256"
        },
        {
          "internalType": "bytes",
          "name": "data",
          "type": "bytes"
        }
      ],
      "name": "uniswapV2Call",
      "outputs": [],
      "stateMutability": "nonpayable",
      "type": "function"
    },
    {
      "stateMutability": "payable",
      "type": "receive"
    }
  ],
  "transactionHash": "0x45e020af3523d9b6202b26433c60d675e9f67993e19045cfd1d2a08a1b367710",
  "args": [],
  "numDeployments": 2,
  "bytecode": {
    "object": "0x608060405234801561001057600080fd5b50612ab7806100206000396000f3fe6080604052600436106100a05760003560e01c80638da5cb5b116100645780638da5cb5b1461019c578063b5966258146101ce578063c2ebfdc11461020d578063e30c397814610240578063f2fde38b14610260578063fc4d33f91461028057600080fd5b806308e004a7146100ff57806310d1e85c146101325780636e96dfd714610152578063715018a6146101725780638129fc1c1461018757600080fd5b366100fa57333b6100f85760405162461bcd60e51b815260206004820152601960248201527f53656e646572206973206e6f74206120636f6e74726163742e0000000000000060448201526064015b60405180910390fd5b005b600080fd5b34801561010b57600080fd5b5061011f61011a3660046121f1565b610295565b6040519081526020015b60405180910390f35b34801561013e57600080fd5b506100f861014d366004612251565b610444565b34801561015e57600080fd5b506100f861016d3660046122e7565b610493565b34801561017e57600080fd5b506100f86104fd565b34801561019357600080fd5b506100f8610540565b3480156101a857600080fd5b506033546001600160a01b03165b6040516001600160a01b039091168152602001610129565b3480156101da57600080fd5b506101ee6101e93660046123e4565b610664565b604080516001600160a01b039093168352602083019190915201610129565b34801561021957600080fd5b5060685461022e90600160a01b900460ff1681565b60405160ff9091168152602001610129565b34801561024c57600080fd5b506065546101b6906001600160a01b031681565b34801561026c57600080fd5b506100f861027b3660046122e7565b6104fd565b34801561028c57600080fd5b506100f86106e5565b6000808260200135116102f65760405162461bcd60e51b8152602060048201526024808201527f526570617920616d6f756e74206d7573742062652067726561746572207468616044820152633710181760e11b60648201526084016100ef565b606880546001600160a01b031916737ceb23fd6bc0add59e62ac25578270cff1b9f619908117909155608083013560675560408051630dfe168160e01b8152905173c4e595acdd7d12fec385e5da5d43160e8a0bac0e9260009290918491630dfe16819160048083019260209291908290030181865afa15801561037e573d6000803e3d6000fd5b505050506040513d601f19601f820116820180604052508101906103a29190612450565b6001600160a01b0316149050816001600160a01b031663022c0d9f826103c95760006103cd565b6067545b83156103da5760006103de565b6067545b306000366040518663ffffffff1660e01b815260040161040295949392919061246d565b600060405180830381600087803b15801561041c57600080fd5b505af1158015610430573d6000803e3d6000fd5b5050505061043c6107f9565b949350505050565b600061045382600481866124bc565b81019061046091906125fe565b905061046b816108f0565b606680546001600160a01b0319166001600160a01b0392909216919091179055505050505050565b61049b610fcf565b606580546001600160a01b038381166001600160a01b031983168117909355604080519190921680825260208201939093527fb3d55174552271a4f1aaf36b72f50381e892171636b3fb5447fe00e995e7a37b91015b60405180910390a15050565b610505610fcf565b60405162461bcd60e51b815260206004820152601060248201526f6e6f74207573656420616e796d6f726560801b60448201526064016100ef565b600054610100900460ff16158080156105605750600054600160ff909116105b8061057a5750303b15801561057a575060005460ff166001145b6105dd5760405162461bcd60e51b815260206004820152602e60248201527f496e697469616c697a61626c653a20636f6e747261637420697320616c72656160448201526d191e481a5b9a5d1a585b1a5e995960921b60648201526084016100ef565b6000805460ff191660011790558015610600576000805461ff0019166101001790555b61060861102b565b6068805460ff60a01b1916600f60a11b1790558015610661576000805461ff0019169055604051600181527f7f26b83ff96e1f2b6a682f133852f6798a09c465da95921460cefb38474024989060200160405180910390a15b50565b60008060006106c1856310badf4e60e01b89898860405160240161068a93929190612732565b60408051601f198184030181529190526020810180516001600160e01b03166001600160e01b03199093169290921790915261105a565b9050808060200190518101906106d79190612759565b925092505094509492505050565b6065546001600160a01b031633146107375760405162461bcd60e51b81526020600482015260156024820152743737ba103a3432903832b73234b7339037bbb732b960591b60448201526064016100ef565b600061074b6033546001600160a01b031690565b6065549091506001600160a01b03166107638161114e565b606580546001600160a01b0319169055604080516001600160a01b0384168152600060208201527f70aea8d848e8a90fb7661b227dc522eb6395c3dac71b63cb59edd5c9899b2364910160405180910390a1606554604080516001600160a01b03808516825290921660208301527fb3d55174552271a4f1aaf36b72f50381e892171636b3fb5447fe00e995e7a37b91016104f1565b6066546040516370a0823160e01b81523060048201526000916001600160a01b031690829082906370a0823190602401602060405180830381865afa158015610846573d6000803e3d6000fd5b505050506040513d601f19601f8201168201806040525081019061086a9190612787565b905060018110156108d05760405162461bcd60e51b815260206004820152602a60248201527f4d696e696d756d20746f6b656e206f757470757420616d6f756e74206e6f742060448201526939b0ba34b9b334b2b21760b11b60648201526084016100ef565b80156108ea576108ea6001600160a01b03831633836111a0565b92915050565b60008073c62d6b6539e7f828caa4798e282903c83948fa79905060008190506000816001600160a01b0316636f307dc36040518163ffffffff1660e01b8152600401602060405180830381865afa15801561094f573d6000803e3d6000fd5b505050506040513d601f19601f820116820180604052508101906109739190612450565b608086015160405163095ea7b360e01b81526001600160a01b038681166004830152602482019290925291925082169063095ea7b3906044016020604051808303816000875af11580156109cb573d6000803e3d6000fd5b505050506040513d601f19601f820116820180604052508101906109ef91906127a0565b50608085015160405163140e25ad60e31b815260048101919091526001600160a01b0383169063a0712d68906024016020604051808303816000875af1158015610a3d573d6000803e3d6000fd5b505050506040513d601f19601f82011682018060405250810190610a619190612787565b15610aa35760405162461bcd60e51b8152602060048201526012602482015271085b5a5b9d081cdd18589b1948185cdcd95d60721b60448201526064016100ef565b6000826001600160a01b0316635fe3b5676040518163ffffffff1660e01b8152600401602060405180830381865afa158015610ae3573d6000803e3d6000fd5b505050506040513d601f19601f82011682018060405250810190610b079190612450565b9050806001600160a01b031663c2998238610b2b8689606001518a604001516111f7565b6040518263ffffffff1660e01b8152600401610b4791906127c2565b6000604051808303816000875af1158015610b66573d6000803e3d6000fd5b505050506040513d6000823e601f3d908101601f19168201604052610b8e919081019061280f565b5085604001516001600160a01b031663c5ebeaec87602001516040518263ffffffff1660e01b8152600401610bc591815260200190565b6020604051808303816000875af1158015610be4573d6000803e3d6000fd5b505050506040513d601f19601f82011682018060405250810190610c089190612787565b15610c4a5760405162461bcd60e51b815260206004820152601260248201527108589bdc9c9bddc81919589d08185cdcd95d60721b60448201526064016100ef565b600086604001516001600160a01b0316636f307dc36040518163ffffffff1660e01b8152600401602060405180830381865afa158015610c8e573d6000803e3d6000fd5b505050506040513d601f19601f82011682018060405250810190610cb29190612450565b60408881015160208a0151915163095ea7b360e01b81526001600160a01b03918216600482015260248101929092529192509082169063095ea7b3906044016020604051808303816000875af1158015610d10573d6000803e3d6000fd5b505050506040513d601f19601f82011682018060405250810190610d3491906127a0565b50604087810151885160208a015160608b01519351637af1e23160e11b81526001600160a01b03928316600482015260248101919091529281166044840152169063f5e3c462906064016020604051808303816000875af1158015610d9d573d6000803e3d6000fd5b505050506040513d601f19601f82011682018060405250810190610dc19190612787565b15610e045760405162461bcd60e51b81526020600482015260136024820152722634b8bab4b230ba34b7b7103330b4b632b21760691b60448201526064016100ef565b60608701516040516370a0823160e01b81523060048201526000916001600160a01b0316906370a0823190602401602060405180830381865afa158015610e4f573d6000803e3d6000fd5b505050506040513d601f19601f82011682018060405250810190610e739190612787565b905060008111610eba5760405162461bcd60e51b815260206004820152601260248201527127379031aa37b5b2b7399039b2b4bd32b21760711b60448201526064016100ef565b608088015160405163db006a7560e01b81526000916001600160a01b0388169163db006a7591610ef09160040190815260200190565b6020604051808303816000875af1158015610f0f573d6000803e3d6000fd5b505050506040513d601f19601f82011682018060405250810190610f339190612787565b90508015610fab576040805162461bcd60e51b81526020600482015260248101919091527f4572726f722063616c6c696e672072656465656d696e67207365697a6564206360448201527f546f6b656e3a206572726f7220636f6465206e6f7420657175616c20746f203060648201526084016100ef565b610fc289606001518a60a001518b60c001516112bb565b9998505050505050505050565b6033546001600160a01b031633146110295760405162461bcd60e51b815260206004820181905260248201527f4f776e61626c653a2063616c6c6572206973206e6f7420746865206f776e657260448201526064016100ef565b565b600054610100900460ff166110525760405162461bcd60e51b81526004016100ef90612895565b611029611978565b60606001600160a01b0383163b6110c25760405162461bcd60e51b815260206004820152602660248201527f416464726573733a2064656c65676174652063616c6c20746f206e6f6e2d636f6044820152651b9d1c9858dd60d21b60648201526084016100ef565b600080846001600160a01b0316846040516110dd91906128e0565b600060405180830381855af49150503d8060008114611118576040519150601f19603f3d011682016040523d82523d6000602084013e61111d565b606091505b50915091506111458282604051806060016040528060278152602001612a84602791396119a7565b95945050505050565b603380546001600160a01b038381166001600160a01b0319831681179093556040519116919082907f8be0079c531659141344cd1fd0a4f28419497f9722a3daafe3b4186f6b6457e090600090a35050565b604080516001600160a01b038416602482015260448082018490528251808303909101815260649091019091526020810180516001600160e01b031663a9059cbb60e01b1790526111f29084906119e0565b505050565b60408051600380825260808201909252606091600091906020820184803683370190505090508481600081518110611231576112316128fc565b60200260200101906001600160a01b031690816001600160a01b0316815250508381600181518110611265576112656128fc565b60200260200101906001600160a01b031690816001600160a01b0316815250508281600281518110611299576112996128fc565b6001600160a01b039092166020928302919091019091015290505b9392505050565b60685460009081906112d990600160a01b900460ff16612710612928565b61ffff166067546127106112ed919061294b565b6112f79190612980565b60685490915060009061131690600160a01b900460ff16612710612928565b61ffff1660675461271061132a919061294b565b6113349190612994565b11156113485780611344816129a8565b9150505b60006067548261135891906129c3565b604051633af9e66960e01b81523060048201529091506000906001600160a01b03881690633af9e669906024016020604051808303816000875af11580156113a4573d6000803e3d6000fd5b505050506040513d601f19601f820116820180604052508101906113c89190612787565b60405163852a12e360e01b8152600481018290529091506001600160a01b0388169063852a12e3906024016020604051808303816000875af1158015611412573d6000803e3d6000fd5b505050506040513d601f19601f820116820180604052508101906114369190612787565b156114745760405162461bcd60e51b815260206004820152600e60248201526d72656465656d20666f722066656560901b60448201526064016100ef565b6000876001600160a01b0316636f307dc36040518163ffffffff1660e01b8152600401602060405180830381865afa1580156114b4573d6000803e3d6000fd5b505050506040513d601f19601f820116820180604052508101906114d89190612450565b6040516370a0823160e01b81523060048201529091506000906001600160a01b038316906370a0823190602401602060405180830381865afa158015611522573d6000803e3d6000fd5b505050506040513d601f19601f820116820180604052508101906115469190612787565b90506000606461155783600461294b565b6115619190612980565b90506001600160a01b03831663a9059cbb7319f2bfca57fdc1b7406337391d2f54063cae874861159184886129c3565b6040516001600160e01b031960e085901b1681526001600160a01b03909216600483015260248201526044016020604051808303816000875af11580156115dc573d6000803e3d6000fd5b505050506040513d601f19601f8201168201806040525081019061160091906127a0565b508851156116cb5787518951146116685760405162461bcd60e51b815260206004820152602660248201527f21726564656d7074696f6e5374726174656769657320737472617465677944616044820152653a30903632b760d11b60648201526084016100ef565b60005b89518110156116c9576116b284838c848151811061168b5761168b6128fc565b60200260200101518c85815181106116a5576116a56128fc565b6020026020010151610664565b9094509150806116c1816129a8565b91505061166b565b505b6068546000906117139073c35dadb65012ec5796536bd9864ed8773abc74c49088906117019088906001600160a01b0316611ab2565b606854600160a01b900460ff16611b3f565b600081518110611725576117256128fc565b60200260200101519050818111156117a55760405162461bcd60e51b815260206004820152603d60248201527f546f6b656e20666c6173686c6f616e2072657475726e20616d6f756e7420677260448201527f6561746572207468616e207365697a656420636f6c6c61746572616c2e00000060648201526084016100ef565b60685460675460405163a9059cbb60e01b815233600482015260248101919091526001600160a01b039091169063a9059cbb906044016020604051808303816000875af11580156117fa573d6000803e3d6000fd5b505050506040513d601f19601f8201168201806040525081019061181e91906127a0565b6118865760405162461bcd60e51b815260206004820152603360248201527f4661696c656420746f20726570617920746f6b656e20666c6173686c6f616e2060448201527237b7103a3432903137b93937bb9039b4b2329760691b60648201526084016100ef565b60405163a9059cbb60e01b8152336004820152602481018290526001600160a01b0385169063a9059cbb906044016020604051808303816000875af11580156118d3573d6000803e3d6000fd5b505050506040513d601f19601f820116820180604052508101906118f791906127a0565b6119695760405162461bcd60e51b815260206004820152603760248201527f4661696c656420746f20726570617920746f6b656e20666c6173686c6f616e2060448201527f6f6e20746865206e6f6e2d626f72726f7720736964652e00000000000000000060648201526084016100ef565b50919998505050505050505050565b600054610100900460ff1661199f5760405162461bcd60e51b81526004016100ef90612895565b611029611cd7565b606083156119b65750816112b4565b8251156119c65782518084602001fd5b8160405162461bcd60e51b81526004016100ef91906129da565b6000611a35826040518060400160405280602081526020017f5361666545524332303a206c6f772d6c6576656c2063616c6c206661696c6564815250856001600160a01b0316611d079092919063ffffffff16565b8051909150156111f25780806020019051810190611a5391906127a0565b6111f25760405162461bcd60e51b815260206004820152602a60248201527f5361666545524332303a204552433230206f7065726174696f6e20646964206e6044820152691bdd081cdd58d8d9595960b21b60648201526084016100ef565b604080516002808252606080830184529260009291906020830190803683370190505090508381600081518110611aeb57611aeb6128fc565b60200260200101906001600160a01b031690816001600160a01b0316815250508281600181518110611b1f57611b1f6128fc565b6001600160a01b0390921660209283029190910190910152905092915050565b6060600283511015611b935760405162461bcd60e51b815260206004820152601e60248201527f556e697377617056324c6962726172793a20494e56414c49445f50415448000060448201526064016100ef565b825167ffffffffffffffff811115611bad57611bad612304565b604051908082528060200260200182016040528015611bd6578160200160208202803683370190505b509050838160018351611be991906129c3565b81518110611bf957611bf96128fc565b602002602001018181525050600060018451611c1591906129c3565b90505b8015611cce57600080611c688887611c316001876129c3565b81518110611c4157611c416128fc565b6020026020010151888681518110611c5b57611c5b6128fc565b6020026020010151611d16565b91509150611c91848481518110611c8157611c816128fc565b6020026020010151838388611de0565b84611c9d6001866129c3565b81518110611cad57611cad6128fc565b60200260200101818152505050508080611cc6906129ed565b915050611c18565b50949350505050565b600054610100900460ff16611cfe5760405162461bcd60e51b81526004016100ef90612895565b6110293361114e565b606061043c8484600085611f18565b6000806000611d258585611fe8565b509050600080611d368888886120e0565b6001600160a01b0316630902f1ac6040518163ffffffff1660e01b8152600401606060405180830381865afa158015611d73573d6000803e3d6000fd5b505050506040513d601f19601f82011682018060405250810190611d979190612a1b565b506001600160701b031691506001600160701b03169150826001600160a01b0316876001600160a01b031614611dce578082611dd1565b81815b90999098509650505050505050565b6000808511611e465760405162461bcd60e51b815260206004820152602c60248201527f556e697377617056324c6962726172793a20494e53554646494349454e545f4f60448201526b155514155517d05353d5539560a21b60648201526084016100ef565b600084118015611e565750600083115b611eb35760405162461bcd60e51b815260206004820152602860248201527f556e697377617056324c6962726172793a20494e53554646494349454e545f4c604482015267495155494449545960c01b60648201526084016100ef565b6000611ebf868661294b565b611ecb9061271061294b565b90506000611ede60ff8516612710612928565b61ffff16611eec88876129c3565b611ef6919061294b565b9050611f028183612980565b611f0d906001612a6b565b979650505050505050565b606082471015611f795760405162461bcd60e51b815260206004820152602660248201527f416464726573733a20696e73756666696369656e742062616c616e636520666f6044820152651c8818d85b1b60d21b60648201526084016100ef565b600080866001600160a01b03168587604051611f9591906128e0565b60006040518083038185875af1925050503d8060008114611fd2576040519150601f19603f3d011682016040523d82523d6000602084013e611fd7565b606091505b5091509150611f0d87838387612156565b600080826001600160a01b0316846001600160a01b0316141561205b5760405162461bcd60e51b815260206004820152602560248201527f556e697377617056324c6962726172793a204944454e544943414c5f41444452604482015264455353455360d81b60648201526084016100ef565b826001600160a01b0316846001600160a01b03161061207b57828461207e565b83835b90925090506001600160a01b0382166120d95760405162461bcd60e51b815260206004820152601e60248201527f556e697377617056324c6962726172793a205a45524f5f41444452455353000060448201526064016100ef565b9250929050565b60405163e6a4390560e01b81526001600160a01b03838116600483015282811660248301526000919085169063e6a4390590604401602060405180830381865afa158015612132573d6000803e3d6000fd5b505050506040513d601f19601f8201168201806040525081019061043c9190612450565b606083156121c25782516121bb576001600160a01b0385163b6121bb5760405162461bcd60e51b815260206004820152601d60248201527f416464726573733a2063616c6c20746f206e6f6e2d636f6e747261637400000060448201526064016100ef565b508161043c565b61043c83838151156121d75781518083602001fd5b8060405162461bcd60e51b81526004016100ef91906129da565b60006020828403121561220357600080fd5b813567ffffffffffffffff81111561221a57600080fd5b820160e081850312156112b457600080fd5b6001600160a01b038116811461066157600080fd5b803561224c8161222c565b919050565b60008060008060006080868803121561226957600080fd5b85356122748161222c565b94506020860135935060408601359250606086013567ffffffffffffffff8082111561229f57600080fd5b818801915088601f8301126122b357600080fd5b8135818111156122c257600080fd5b8960208285010111156122d457600080fd5b9699959850939650602001949392505050565b6000602082840312156122f957600080fd5b81356112b48161222c565b634e487b7160e01b600052604160045260246000fd5b60405160e0810167ffffffffffffffff8111828210171561233d5761233d612304565b60405290565b604051601f8201601f1916810167ffffffffffffffff8111828210171561236c5761236c612304565b604052919050565b600082601f83011261238557600080fd5b813567ffffffffffffffff81111561239f5761239f612304565b6123b2601f8201601f1916602001612343565b8181528460208386010111156123c757600080fd5b816020850160208301376000918101602001919091529392505050565b600080600080608085870312156123fa57600080fd5b84356124058161222c565b935060208501359250604085013561241c8161222c565b9150606085013567ffffffffffffffff81111561243857600080fd5b61244487828801612374565b91505092959194509250565b60006020828403121561246257600080fd5b81516112b48161222c565b858152602081018590526001600160a01b03841660408201526080606082018190528101829052818360a0830137600081830160a090810191909152601f909201601f19160101949350505050565b600080858511156124cc57600080fd5b838611156124d957600080fd5b5050820193919092039150565b600067ffffffffffffffff82111561250057612500612304565b5060051b60200190565b600082601f83011261251b57600080fd5b8135602061253061252b836124e6565b612343565b82815260059290921b8401810191818101908684111561254f57600080fd5b8286015b848110156125735780356125668161222c565b8352918301918301612553565b509695505050505050565b600082601f83011261258f57600080fd5b8135602061259f61252b836124e6565b82815260059290921b840181019181810190868411156125be57600080fd5b8286015b8481101561257357803567ffffffffffffffff8111156125e25760008081fd5b6125f08986838b0101612374565b8452509183019183016125c2565b60006020828403121561261057600080fd5b813567ffffffffffffffff8082111561262857600080fd5b9083019060e0828603121561263c57600080fd5b61264461231a565b61264d83612241565b81526020830135602082015261266560408401612241565b604082015261267660608401612241565b60608201526080830135608082015260a08301358281111561269757600080fd5b6126a38782860161250a565b60a08301525060c0830135828111156126bb57600080fd5b6126c78782860161257e565b60c08301525095945050505050565b60005b838110156126f15781810151838201526020016126d9565b83811115612700576000848401525b50505050565b6000815180845261271e8160208601602086016126d6565b601f01601f19169290920160200192915050565b60018060a01b03841681528260208201526060604082015260006111456060830184612706565b6000806040838503121561276c57600080fd5b82516127778161222c565b6020939093015192949293505050565b60006020828403121561279957600080fd5b5051919050565b6000602082840312156127b257600080fd5b815180151581146112b457600080fd5b6020808252825182820181905260009190848201906040850190845b818110156128035783516001600160a01b0316835292840192918401916001016127de565b50909695505050505050565b6000602080838503121561282257600080fd5b825167ffffffffffffffff81111561283957600080fd5b8301601f8101851361284a57600080fd5b805161285861252b826124e6565b81815260059190911b8201830190838101908783111561287757600080fd5b928401925b82841015611f0d5783518252928401929084019061287c565b6020808252602b908201527f496e697469616c697a61626c653a20636f6e7472616374206973206e6f74206960408201526a6e697469616c697a696e6760a81b606082015260800190565b600082516128f28184602087016126d6565b9190910192915050565b634e487b7160e01b600052603260045260246000fd5b634e487b7160e01b600052601160045260246000fd5b600061ffff8381169083168181101561294357612943612912565b039392505050565b600081600019048311821515161561296557612965612912565b500290565b634e487b7160e01b600052601260045260246000fd5b60008261298f5761298f61296a565b500490565b6000826129a3576129a361296a565b500690565b60006000198214156129bc576129bc612912565b5060010190565b6000828210156129d5576129d5612912565b500390565b6020815260006112b46020830184612706565b6000816129fc576129fc612912565b506000190190565b80516001600160701b038116811461224c57600080fd5b600080600060608486031215612a3057600080fd5b612a3984612a04565b9250612a4760208501612a04565b9150604084015163ffffffff81168114612a6057600080fd5b809150509250925092565b60008219821115612a7e57612a7e612912565b50019056fe416464726573733a206c6f772d6c6576656c2064656c65676174652063616c6c206661696c6564a164736f6c634300080a000a",
    "linkReferences": {}
  },
  "methodIdentifiers": {
    "_acceptOwner()": "fc4d33f9",
    "_setPendingOwner(address)": "6e96dfd7",
    "flashSwapFee()": "c2ebfdc1",
    "initialize()": "8129fc1c",
    "liquidateJarvisDebt((address,uint256,address,address,uint256,address[],bytes[]))": "08e004a7",
    "owner()": "8da5cb5b",
    "pendingOwner()": "e30c3978",
    "redeemCustomCollateral(address,uint256,address,bytes)": "b5966258",
    "renounceOwnership()": "715018a6",
    "transferOwnership(address)": "f2fde38b",
    "uniswapV2Call(address,uint256,uint256,bytes)": "10d1e85c"
  }
}