{
  "address": "0xaC64c0391a54Eba34E23429847986D437bE82da0",
  "abi": [
    {
      "inputs": [
        {
          "internalType": "contract IERC20Upgradeable",
          "name": "inputToken",
          "type": "address"
        },
        {
          "internalType": "uint256",
          "name": "inputAmount",
          "type": "uint256"
        },
        {
          "internalType": "bytes",
          "name": "strategyData",
          "type": "bytes"
        }
      ],
      "name": "convert",
      "outputs": [
        {
          "internalType": "contract IERC20Upgradeable",
          "name": "outputToken",
          "type": "address"
        },
        {
          "internalType": "uint256",
          "name": "outputAmount",
          "type": "uint256"
        }
      ],
      "stateMutability": "nonpayable",
      "type": "function"
    },
    {
      "inputs": [
        {
          "internalType": "uint256",
          "name": "outputAmount",
          "type": "uint256"
        },
        {
          "internalType": "bytes",
          "name": "strategyData",
          "type": "bytes"
        }
      ],
      "name": "estimateInputAmount",
      "outputs": [
        {
          "internalType": "contract IERC20Upgradeable",
          "name": "inputToken",
          "type": "address"
        },
        {
          "internalType": "uint256",
          "name": "inputAmount",
          "type": "uint256"
        }
      ],
      "stateMutability": "view",
      "type": "function"
    },
    {
      "inputs": [
        {
          "internalType": "contract IERC20Upgradeable",
          "name": "inputToken",
          "type": "address"
        },
        {
          "internalType": "uint256",
          "name": "inputAmount",
          "type": "uint256"
        },
        {
          "internalType": "bytes",
          "name": "strategyData",
          "type": "bytes"
        }
      ],
      "name": "redeem",
      "outputs": [
        {
          "internalType": "contract IERC20Upgradeable",
          "name": "outputToken",
          "type": "address"
        },
        {
          "internalType": "uint256",
          "name": "outputAmount",
          "type": "uint256"
        }
      ],
      "stateMutability": "nonpayable",
      "type": "function"
    }
  ],
  "transactionHash": "0xa2636bc5d5c72dc813f1a58b4fad2d2a07657da43be414993e02018bb630264b",
  "args": [],
  "numDeployments": 4,
  "bytecode": {
    "object": "0x608060405234801561001057600080fd5b50610b9c806100206000396000f3fe608060405234801561001057600080fd5b50600436106100415760003560e01c806310badf4e14610046578063301329961461007c57806389eabf0214610046575b600080fd5b6100596100543660046108c7565b61008f565b604080516001600160a01b03909316835260208301919091520160405180910390f35b61005961008a366004610920565b6100a9565b60008061009d858585610341565b91509150935093915050565b600080600080848060200190518101906100c39190610967565b5091509150819350600060129050826001600160a01b031663313ce5676040518163ffffffff1660e01b8152600401602060405180830381865afa92505050801561012b575060408051601f3d908101601f19168201909252610128918101906109aa565b60015b61013457610137565b90505b600061014482600a610ad0565b90506000839050806001600160a01b0316638230ecd66040518163ffffffff1660e01b8152600401602060405180830381865afa158015610189573d6000803e3d6000fd5b505050506040513d601f19601f820116820180604052508101906101ad9190610adf565b6001600160a01b0316876001600160a01b031614156102485760405163980f23c560e01b8152600481018390526000906001600160a01b0386169063980f23c5906024015b6040805180830381865afa15801561020e573d6000803e3d6000fd5b505050506040513d601f19601f820116820180604052508101906102329190610afc565b509050610240838b836107de565b965050610335565b806001600160a01b031663b2016bd46040518163ffffffff1660e01b8152600401602060405180830381865afa158015610286573d6000803e3d6000fd5b505050506040513d601f19601f820116820180604052508101906102aa9190610adf565b6001600160a01b0316876001600160a01b031614156102f35760405163d668909f60e01b8152600481018390526000906001600160a01b0386169063d668909f906024016101f2565b60405162461bcd60e51b81526020600482015260136024820152723ab735b737bbb71034b7383aba103a37b5b2b760691b604482015260640160405180910390fd5b50505050509250929050565b60008060008380602001905181019061035a9190610967565b5060405163095ea7b360e01b81526001600160a01b038083166004830152602482018990529193508392509088169063095ea7b3906044016020604051808303816000875af11580156103b1573d6000803e3d6000fd5b505050506040513d601f19601f820116820180604052508101906103d59190610b20565b506000816001600160a01b031663b2016bd46040518163ffffffff1660e01b8152600401602060405180830381865afa158015610416573d6000803e3d6000fd5b505050506040513d601f19601f8201168201806040525081019061043a9190610adf565b90506000826001600160a01b0316638230ecd66040518163ffffffff1660e01b8152600401602060405180830381865afa15801561047c573d6000803e3d6000fd5b505050506040513d601f19601f820116820180604052508101906104a09190610adf565b9050806001600160a01b0316896001600160a01b031614156106a6578195506000836001600160a01b0316637b34ee7f6040518163ffffffff1660e01b8152600401602060405180830381865afa92505050801561051b575060408051601f3d908101601f1916820190925261051891810190610b42565b60015b61052457610527565b90505b801561059b576000846001600160a01b031662b9add76040518163ffffffff1660e01b815260040160408051808303816000875af115801561056d573d6000803e3d6000fd5b505050506040513d601f19601f820116820180604052508101906105919190610afc565b97506106a0915050565b60405163980f23c560e01b8152600481018a90526000906001600160a01b0386169063980f23c5906024016040805180830381865afa1580156105e2573d6000803e3d6000fd5b505050506040513d601f19601f820116820180604052508101906106069190610afc565b50604080516080810182528c8152602081018390524281830152306060820152905163525e6b1160e01b815291925060009182916001600160a01b0389169163525e6b119161065791600401610b5b565b60408051808303816000875af1158015610675573d6000803e3d6000fd5b505050506040513d601f19601f820116820180604052508101906106999190610afc565b5098505050505b506107d2565b816001600160a01b0316896001600160a01b031614156102f3578095506000836001600160a01b031663d668909f8a6040518263ffffffff1660e01b81526004016106f391815260200190565b6040805180830381865afa15801561070f573d6000803e3d6000fd5b505050506040513d601f19601f820116820180604052508101906107339190610afc565b5060408051608081018252828152602081018c905242818301523060608201529051631347c9d760e31b815291925060009182916001600160a01b03881691639a3e4eb89161078491600401610b5b565b60408051808303816000875af11580156107a2573d6000803e3d6000fd5b505050506040513d601f19601f820116820180604052508101906107c69190610afc565b5097506107d292505050565b50505050935093915050565b8282028115158415858304851417166107f657600080fd5b6001826001830304018115150290509392505050565b6001600160a01b038116811461082157600080fd5b50565b634e487b7160e01b600052604160045260246000fd5b600082601f83011261084b57600080fd5b813567ffffffffffffffff8082111561086657610866610824565b604051601f8301601f19908116603f0116810190828211818310171561088e5761088e610824565b816040528381528660208588010111156108a757600080fd5b836020870160208301376000602085830101528094505050505092915050565b6000806000606084860312156108dc57600080fd5b83356108e78161080c565b925060208401359150604084013567ffffffffffffffff81111561090a57600080fd5b6109168682870161083a565b9150509250925092565b6000806040838503121561093357600080fd5b82359150602083013567ffffffffffffffff81111561095157600080fd5b61095d8582860161083a565b9150509250929050565b60008060006060848603121561097c57600080fd5b83516109878161080c565b60208501519093506109988161080c565b80925050604084015190509250925092565b6000602082840312156109bc57600080fd5b815160ff811681146109cd57600080fd5b9392505050565b634e487b7160e01b600052601160045260246000fd5b600181815b80851115610a25578160001904821115610a0b57610a0b6109d4565b80851615610a1857918102915b93841c93908002906109ef565b509250929050565b600082610a3c57506001610aca565b81610a4957506000610aca565b8160018114610a5f5760028114610a6957610a85565b6001915050610aca565b60ff841115610a7a57610a7a6109d4565b50506001821b610aca565b5060208310610133831016604e8410600b8410161715610aa8575081810a610aca565b610ab283836109ea565b8060001904821115610ac657610ac66109d4565b0290505b92915050565b60006109cd60ff841683610a2d565b600060208284031215610af157600080fd5b81516109cd8161080c565b60008060408385031215610b0f57600080fd5b505080516020909101519092909150565b600060208284031215610b3257600080fd5b815180151581146109cd57600080fd5b600060208284031215610b5457600080fd5b5051919050565b8151815260208083015190820152604080830151908201526060808301516001600160a01b03169082015260808101610aca56fea164736f6c634300080a000a",
    "linkReferences": {}
  },
  "methodIdentifiers": {
    "convert(address,uint256,bytes)": "89eabf02",
    "estimateInputAmount(uint256,bytes)": "30132996",
    "redeem(address,uint256,bytes)": "10badf4e"
  }
}