{
  "address": "0x6EC455e03c98b38d59d19c5913433F96f36e8243",
  "abi": [
    {
      "inputs": [],
      "name": "NoRedemptionPath",
      "type": "error"
    },
    {
      "inputs": [],
      "name": "OutputTokenMismatch",
      "type": "error"
    },
    {
      "anonymous": false,
      "inputs": [
        {
          "indexed": true,
          "internalType": "address",
          "name": "previousOwner",
          "type": "address"
        },
        {
          "indexed": true,
          "internalType": "address",
          "name": "newOwner",
          "type": "address"
        }
      ],
      "name": "OwnershipTransferStarted",
      "type": "event"
    },
    {
      "anonymous": false,
      "inputs": [
        {
          "indexed": true,
          "internalType": "address",
          "name": "previousOwner",
          "type": "address"
        },
        {
          "indexed": true,
          "internalType": "address",
          "name": "newOwner",
          "type": "address"
        }
      ],
      "name": "OwnershipTransferred",
      "type": "event"
    },
    {
      "anonymous": false,
      "inputs": [
        {
          "indexed": true,
          "internalType": "contract IERC20Upgradeable",
          "name": "from",
          "type": "address"
        },
        {
          "indexed": true,
          "internalType": "contract IERC20Upgradeable",
          "name": "to",
          "type": "address"
        },
        {
          "indexed": false,
          "internalType": "uint256",
          "name": "prevValue",
          "type": "uint256"
        },
        {
          "indexed": false,
          "internalType": "uint256",
          "name": "newValue",
          "type": "uint256"
        }
      ],
      "name": "SlippageUpdated",
      "type": "event"
    },
    {
      "inputs": [],
      "name": "MAX_SLIPPAGE",
      "outputs": [
        {
          "internalType": "uint256",
          "name": "",
          "type": "uint256"
        }
      ],
      "stateMutability": "view",
      "type": "function"
    },
    {
      "inputs": [],
      "name": "_getExtensionFunctions",
      "outputs": [
        {
          "internalType": "bytes4[]",
          "name": "",
          "type": "bytes4[]"
        }
      ],
      "stateMutability": "pure",
      "type": "function"
    },
    {
      "inputs": [
        {
          "internalType": "contract IRedemptionStrategy",
          "name": "strategyToRemove",
          "type": "address"
        }
      ],
      "name": "_removeRedemptionStrategy",
      "outputs": [],
      "stateMutability": "nonpayable",
      "type": "function"
    },
    {
      "inputs": [
        {
          "internalType": "contract IRedemptionStrategy[]",
          "name": "strategies",
          "type": "address[]"
        },
        {
          "internalType": "contract IERC20Upgradeable[]",
          "name": "inputTokens",
          "type": "address[]"
        },
        {
          "internalType": "contract IERC20Upgradeable[]",
          "name": "outputTokens",
          "type": "address[]"
        }
      ],
      "name": "_resetRedemptionStrategies",
      "outputs": [],
      "stateMutability": "nonpayable",
      "type": "function"
    },
    {
      "inputs": [
        {
          "internalType": "contract IERC20Upgradeable",
          "name": "inputToken",
          "type": "address"
        },
        {
          "internalType": "contract IERC20Upgradeable",
          "name": "outputToken",
          "type": "address"
        }
      ],
      "name": "_setDefaultOutputToken",
      "outputs": [],
      "stateMutability": "nonpayable",
      "type": "function"
    },
    {
      "inputs": [
        {
          "internalType": "contract IRedemptionStrategy[]",
          "name": "strategies",
          "type": "address[]"
        },
        {
          "internalType": "contract IERC20Upgradeable[]",
          "name": "inputTokens",
          "type": "address[]"
        },
        {
          "internalType": "contract IERC20Upgradeable[]",
          "name": "outputTokens",
          "type": "address[]"
        }
      ],
      "name": "_setRedemptionStrategies",
      "outputs": [],
      "stateMutability": "nonpayable",
      "type": "function"
    },
    {
      "inputs": [
        {
          "internalType": "contract IRedemptionStrategy",
          "name": "strategy",
          "type": "address"
        },
        {
          "internalType": "contract IERC20Upgradeable",
          "name": "inputToken",
          "type": "address"
        },
        {
          "internalType": "contract IERC20Upgradeable",
          "name": "outputToken",
          "type": "address"
        }
      ],
      "name": "_setRedemptionStrategy",
      "outputs": [],
      "stateMutability": "nonpayable",
      "type": "function"
    },
    {
      "inputs": [
        {
          "internalType": "contract IERC20Upgradeable[]",
          "name": "inputTokens",
          "type": "address[]"
        },
        {
          "internalType": "contract IERC20Upgradeable[]",
          "name": "outputTokens",
          "type": "address[]"
        },
        {
          "internalType": "uint256[]",
          "name": "slippages",
          "type": "uint256[]"
        }
      ],
      "name": "_setSlippages",
      "outputs": [],
      "stateMutability": "nonpayable",
      "type": "function"
    },
    {
      "inputs": [],
      "name": "acceptOwnership",
      "outputs": [],
      "stateMutability": "nonpayable",
      "type": "function"
    },
    {
      "inputs": [
        {
          "internalType": "contract IERC20Upgradeable",
          "name": "inputToken",
          "type": "address"
        },
        {
          "internalType": "uint256",
          "name": "inputAmount",
          "type": "uint256"
        },
        {
          "internalType": "contract IERC20Upgradeable",
          "name": "outputToken",
          "type": "address"
        }
      ],
      "name": "amountOutAndSlippageOfSwap",
      "outputs": [
        {
          "internalType": "uint256",
          "name": "outputAmount",
          "type": "uint256"
        },
        {
          "internalType": "uint256",
          "name": "slippage",
          "type": "uint256"
        }
      ],
      "stateMutability": "nonpayable",
      "type": "function"
    },
    {
      "inputs": [],
      "name": "ap",
      "outputs": [
        {
          "internalType": "contract AddressesProvider",
          "name": "",
          "type": "address"
        }
      ],
      "stateMutability": "view",
      "type": "function"
    },
    {
      "inputs": [
        {
          "internalType": "contract IERC20Upgradeable",
          "name": "",
          "type": "address"
        }
      ],
      "name": "defaultOutputToken",
      "outputs": [
        {
          "internalType": "contract IERC20Upgradeable",
          "name": "",
          "type": "address"
        }
      ],
      "stateMutability": "view",
      "type": "function"
    },
    {
      "inputs": [],
      "name": "getAllPairsStrategies",
      "outputs": [
        {
          "internalType": "contract IRedemptionStrategy[]",
          "name": "strategies",
          "type": "address[]"
        },
        {
          "internalType": "contract IERC20Upgradeable[]",
          "name": "inputTokens",
          "type": "address[]"
        },
        {
          "internalType": "contract IERC20Upgradeable[]",
          "name": "outputTokens",
          "type": "address[]"
        }
      ],
      "stateMutability": "view",
      "type": "function"
    },
    {
      "inputs": [],
      "name": "getAllRedemptionStrategies",
      "outputs": [
        {
          "internalType": "address[]",
          "name": "",
          "type": "address[]"
        }
      ],
      "stateMutability": "view",
      "type": "function"
    },
    {
      "inputs": [
        {
          "internalType": "contract IERC20Upgradeable",
          "name": "outputToken",
          "type": "address"
        }
      ],
      "name": "getInputTokensByOutputToken",
      "outputs": [
        {
          "internalType": "address[]",
          "name": "",
          "type": "address[]"
        }
      ],
      "stateMutability": "view",
      "type": "function"
    },
    {
      "inputs": [
        {
          "internalType": "contract IERC20Upgradeable",
          "name": "inputToken",
          "type": "address"
        },
        {
          "internalType": "contract IERC20Upgradeable",
          "name": "outputToken",
          "type": "address"
        }
      ],
      "name": "getRedemptionStrategies",
      "outputs": [
        {
          "internalType": "contract IRedemptionStrategy[]",
          "name": "strategies",
          "type": "address[]"
        },
        {
          "internalType": "bytes[]",
          "name": "strategiesData",
          "type": "bytes[]"
        }
      ],
      "stateMutability": "view",
      "type": "function"
    },
    {
      "inputs": [
        {
          "internalType": "contract IERC20Upgradeable",
          "name": "inputToken",
          "type": "address"
        },
        {
          "internalType": "contract IERC20Upgradeable",
          "name": "outputToken",
          "type": "address"
        }
      ],
      "name": "getRedemptionStrategy",
      "outputs": [
        {
          "internalType": "contract IRedemptionStrategy",
          "name": "strategy",
          "type": "address"
        },
        {
          "internalType": "bytes",
          "name": "strategyData",
          "type": "bytes"
        }
      ],
      "stateMutability": "view",
      "type": "function"
    },
    {
      "inputs": [
        {
          "internalType": "contract IERC20Upgradeable",
          "name": "inputToken",
          "type": "address"
        },
        {
          "internalType": "contract IERC20Upgradeable",
          "name": "outputToken",
          "type": "address"
        }
      ],
      "name": "getSlippage",
      "outputs": [
        {
          "internalType": "uint256",
          "name": "slippage",
          "type": "uint256"
        }
      ],
      "stateMutability": "view",
      "type": "function"
    },
    {
      "inputs": [],
      "name": "owner",
      "outputs": [
        {
          "internalType": "address",
          "name": "",
          "type": "address"
        }
      ],
      "stateMutability": "view",
      "type": "function"
    },
    {
      "inputs": [
        {
          "internalType": "contract IRedemptionStrategy[]",
          "name": "configStrategies",
          "type": "address[]"
        },
        {
          "internalType": "contract IERC20Upgradeable[]",
          "name": "configInputTokens",
          "type": "address[]"
        },
        {
          "internalType": "contract IERC20Upgradeable[]",
          "name": "configOutputTokens",
          "type": "address[]"
        }
      ],
      "name": "pairsStrategiesMatch",
      "outputs": [
        {
          "internalType": "bool",
          "name": "",
          "type": "bool"
        }
      ],
      "stateMutability": "view",
      "type": "function"
    },
    {
      "inputs": [],
      "name": "pendingOwner",
      "outputs": [
        {
          "internalType": "address",
          "name": "",
          "type": "address"
        }
      ],
      "stateMutability": "view",
      "type": "function"
    },
    {
      "inputs": [
        {
          "internalType": "string",
          "name": "",
          "type": "string"
        }
      ],
      "name": "redemptionStrategiesByName",
      "outputs": [
        {
          "internalType": "contract IRedemptionStrategy",
          "name": "",
          "type": "address"
        }
      ],
      "stateMutability": "view",
      "type": "function"
    },
    {
      "inputs": [
        {
          "internalType": "contract IERC20Upgradeable",
          "name": "",
          "type": "address"
        },
        {
          "internalType": "contract IERC20Upgradeable",
          "name": "",
          "type": "address"
        }
      ],
      "name": "redemptionStrategiesByTokens",
      "outputs": [
        {
          "internalType": "contract IRedemptionStrategy",
          "name": "",
          "type": "address"
        }
      ],
      "stateMutability": "view",
      "type": "function"
    },
    {
      "inputs": [],
      "name": "renounceOwnership",
      "outputs": [],
      "stateMutability": "nonpayable",
      "type": "function"
    },
    {
      "inputs": [
        {
          "internalType": "contract IERC20Upgradeable",
          "name": "inputToken",
          "type": "address"
        },
        {
          "internalType": "uint256",
          "name": "inputAmount",
          "type": "uint256"
        },
        {
          "internalType": "contract IERC20Upgradeable",
          "name": "outputToken",
          "type": "address"
        }
      ],
      "name": "swap",
      "outputs": [
        {
          "internalType": "uint256",
          "name": "outputAmount",
          "type": "uint256"
        }
      ],
      "stateMutability": "nonpayable",
      "type": "function"
    },
    {
      "inputs": [
        {
          "internalType": "address",
          "name": "newOwner",
          "type": "address"
        }
      ],
      "name": "transferOwnership",
      "outputs": [],
      "stateMutability": "nonpayable",
      "type": "function"
    }
  ],
  "transactionHash": "0xa5400e9b59ad990e7129111ff4807a048b467bcc2b142628e7d1d747477764f8",
  "args": [],
  "numDeployments": 2,
  "bytecode": {
    "object": "0x60806040523480156200001157600080fd5b506200001d3362000023565b6200009d565b600180546001600160a01b03191690556200004a816200004d602090811b620025f917901c565b50565b600080546001600160a01b038381166001600160a01b0319831681178455604051919092169283917f8be0079c531659141344cd1fd0a4f28419497f9722a3daafe3b4186f6b6457e09190a35050565b615d4780620000ad6000396000f3fe608060405234801561001057600080fd5b506004361061018e5760003560e01c80638da5cb5b116100de578063d7341acf11610097578063ed287f3f11610071578063ed287f3f146103ca578063f2fde38b146103eb578063f560cebd146103fe578063f97595181461042657600080fd5b8063d7341acf14610372578063dee7fe4814610385578063e30c3978146103b957600080fd5b80638da5cb5b146102c85780638db87c27146102d9578063a1bb91e314610302578063a6fdd2bb14610315578063a700f9e41461031d578063b6b928fd1461035157600080fd5b8063403de57f1161014b5780636d069a67116101255780636d069a6714610290578063715018a6146102a357806379ba5097146102ab57806389f8132e146102b357600080fd5b8063403de57f1461024a578063514b49d91461026a5780635495a6d71461027d57600080fd5b80630d856eef146101935780632434cb7f146101b35780632f53ef2b146101c85780633322d877146101e9578063366eda2e1461020c5780633c4f743c1461021f575b600080fd5b61019b61042f565b6040516101aa939291906151ab565b60405180910390f35b6101c66101c13660046151f9565b610718565b005b6101db6101d63660046151f9565b61074e565b6040519081526020016101aa565b6101fc6101f7366004615276565b610784565b60405190151581526020016101aa565b6101c661021a366004615276565b610a82565b600254610232906001600160a01b031681565b6040516001600160a01b0390911681526020016101aa565b61025d61025836600461530f565b610b5b565b6040516101aa919061532c565b6101c661027836600461530f565b610b7f565b6101c661028b366004615276565b610e38565b6101db61029e36600461533f565b610f2e565b6101c6610f6c565b6101c6610fbc565b6102bb611036565b6040516101aa9190615381565b6000546001600160a01b0316610232565b6102326102e736600461530f565b6007602052600090815260409020546001600160a01b031681565b6101c6610310366004615276565b611480565b61025d611802565b61023261032b3660046151f9565b60066020908152600092835260408084209091529082529020546001600160a01b031681565b61036461035f3660046151f9565b611813565b6040516101aa929190615427565b6101c661038036600461544b565b611d4b565b610232610393366004615520565b80516020818301810180516005825292820191909301209152546001600160a01b031681565b6001546001600160a01b0316610232565b6103dd6103d83660046151f9565b611ef5565b6040516101aa92919061559f565b6101c66103f936600461530f565b61226c565b61041161040c36600461533f565b6122dd565b604080519283526020830191909152016101aa565b6101db61038481565b606080606060006104406009612649565b90506000805b82518110156104c257600083828151811061046357610463615611565b60200260200101519050600061049c60086000846001600160a01b03166001600160a01b03168152602001908152602001600020612649565b90508051846104ab919061563d565b9350505080806104ba90615655565b915050610446565b50806001600160401b038111156104db576104db61548b565b604051908082528060200260200182016040528015610504578160200160208202803683370190505b509450806001600160401b0381111561051f5761051f61548b565b604051908082528060200260200182016040528015610548578160200160208202803683370190505b509350806001600160401b038111156105635761056361548b565b60405190808252806020026020018201604052801561058c578160200160208202803683370190505b5092506000905060005b82518110156107105760008382815181106105b3576105b3615611565b6020026020010151905060006105ec60086000846001600160a01b03166001600160a01b03168152602001908152602001600020612649565b905060005b81518110156106fa57600082828151811061060e5761060e615611565b6020908102919091018101516001600160a01b038082166000908152600684526040808220898416835290945292909220548c51919350909116908b908890811061065b5761065b615611565b60200260200101906001600160a01b031690816001600160a01b0316815250508089878151811061068e5761068e615611565b60200260200101906001600160a01b031690816001600160a01b031681525050838887815181106106c1576106c1615611565b6001600160a01b0390921660209283029190910190910152856106e381615655565b9650505080806106f290615655565b9150506105f1565b505050808061070890615655565b915050610596565b505050909192565b610720612656565b6001600160a01b03918216600090815260076020526040902080546001600160a01b03191691909216179055565b6001600160a01b038083166000908152600b60209081526040808320938516835292905220548061077e57506103845b92915050565b60008060008061079261042f565b92509250925060005b89811015610903576000805b85518110156108dc578c8c848181106107c2576107c2615611565b90506020020160208101906107d7919061530f565b6001600160a01b03168682815181106107f2576107f2615611565b60200260200101516001600160a01b031614801561086057508a8a8481811061081d5761081d615611565b9050602002016020810190610832919061530f565b6001600160a01b031685828151811061084d5761084d615611565b60200260200101516001600160a01b0316145b80156108bc575088888481811061087957610879615611565b905060200201602081019061088e919061530f565b6001600160a01b03168482815181106108a9576108a9615611565b60200260200101516001600160a01b0316145b156108ca57600191506108dc565b806108d481615655565b9150506107a7565b50806108f057600095505050505050610a78565b50806108fb81615655565b91505061079b565b5060005b8351811015610a6f576000805b8b811015610a48578c8c8281811061092e5761092e615611565b9050602002016020810190610943919061530f565b6001600160a01b031686848151811061095e5761095e615611565b60200260200101516001600160a01b03161480156109cc57508a8a8281811061098957610989615611565b905060200201602081019061099e919061530f565b6001600160a01b03168584815181106109b9576109b9615611565b60200260200101516001600160a01b0316145b8015610a2857508888828181106109e5576109e5615611565b90506020020160208101906109fa919061530f565b6001600160a01b0316848481518110610a1557610a15615611565b60200260200101516001600160a01b0316145b15610a365760019150610a48565b80610a4081615655565b915050610914565b5080610a5c57600095505050505050610a78565b5080610a6781615655565b915050610907565b50600193505050505b9695505050505050565b610a8a612656565b8483148015610a9857508281145b610abd5760405162461bcd60e51b8152600401610ab490615670565b60405180910390fd5b60005b85811015610b5257610b40878783818110610add57610add615611565b9050602002016020810190610af2919061530f565b868684818110610b0457610b04615611565b9050602002016020810190610b19919061530f565b858585818110610b2b57610b2b615611565b9050602002016020810190610380919061530f565b80610b4a81615655565b915050610ac0565b50505050505050565b6001600160a01b038116600090815260086020526040902060609061077e90612649565b610b87612656565b6000610b936009612649565b905060005b8151811015610d81576000828281518110610bb557610bb5615611565b602002602001015190506000610bee60086000846001600160a01b03166001600160a01b03168152602001908152602001600020612649565b905060005b8151811015610d39576000828281518110610c1057610c10615611565b6020908102919091018101516001600160a01b038082166000908152600684526040808220898416835290945292909220549092508116908816811415610d24576001600160a01b03808316600090815260066020908152604080832093891683529290522080546001600160a01b03191690558351610cd790859085908110610c9c57610c9c615611565b602002602001015160086000886001600160a01b03166001600160a01b031681526020019081526020016000206126b290919063ffffffff16565b506001600160a01b0382811660009081526007602052604090205481169086161415610d24576001600160a01b038216600090815260076020526040902080546001600160a01b03191690555b50508080610d3190615655565b915050610bf3565b506001600160a01b0382166000908152600860205260409020610d5b906126c7565b610d6c57610d6a6009836126b2565b505b50508080610d7990615655565b915050610b98565b5060006005836001600160a01b03166306fdde036040518163ffffffff1660e01b8152600401600060405180830381865afa158015610dc4573d6000803e3d6000fd5b505050506040513d6000823e601f3d908101601f19168201604052610dec9190810190615695565b604051610df99190615702565b90815260405190819003602001902080546001600160a01b03929092166001600160a01b0319909216919091179055610e336003836126b2565b505050565b610e40612656565b8085148015610e4e57508483145b610e6a5760405162461bcd60e51b8152600401610ab490615670565b60005b81811015610b5257828282818110610e8757610e87615611565b90506020020135600b6000898985818110610ea457610ea4615611565b9050602002016020810190610eb9919061530f565b6001600160a01b03166001600160a01b031681526020019081526020016000206000878785818110610eed57610eed615611565b9050602002016020810190610f02919061530f565b6001600160a01b0316815260208101919091526040016000205580610f2681615655565b915050610e6d565b6000610f456001600160a01b0385163330866126d1565b610f4f8483612742565b9050610f656001600160a01b0383163383612904565b9392505050565b610f74612656565b60405162461bcd60e51b815260206004820152601e60248201527f72656e6f756e6365206f776e657273686970206e6f7420616c6c6f77656400006044820152606401610ab4565b60015433906001600160a01b0316811461102a5760405162461bcd60e51b815260206004820152602960248201527f4f776e61626c6532537465703a2063616c6c6572206973206e6f7420746865206044820152683732bb9037bbb732b960b91b6064820152608401610ab4565b61103381612934565b50565b60408051600f80825261020082019092526060919060009082602082016101e08036833701905050905063ed287f3f60e01b816110728461571e565b93508360ff168151811061108857611088615611565b6001600160e01b03199092166020928302919091019091015263b6b928fd60e01b816110b38461571e565b93508360ff16815181106110c9576110c9615611565b6001600160e01b031990921660209283029190910190910152632434cb7f60e01b816110f48461571e565b93508360ff168151811061110a5761110a615611565b6001600160e01b03199092166020928302919091019091015263d7341acf60e01b816111358461571e565b93508360ff168151811061114b5761114b615611565b6001600160e01b031990921660209283029190910190910152631b376d1760e11b816111768461571e565b93508360ff168151811061118c5761118c615611565b6001600160e01b03199092166020928302919091019091015263514b49d960e01b816111b78461571e565b93508360ff16815181106111cd576111cd615611565b6001600160e01b03199092166020928302919091019091015263403de57f60e01b816111f88461571e565b93508360ff168151811061120e5761120e615611565b6001600160e01b031990921660209283029190910190910152636d069a6760e01b816112398461571e565b93508360ff168151811061124f5761124f615611565b6001600160e01b03199092166020928302919091019091015263a6fdd2bb60e01b8161127a8461571e565b93508360ff168151811061129057611290615611565b6001600160e01b03199092166020928302919091019091015263a1bb91e360e01b816112bb8461571e565b93508360ff16815181106112d1576112d1615611565b6001600160e01b03199092166020928302919091019091015263f560cebd60e01b816112fc8461571e565b93508360ff168151811061131257611312615611565b6001600160e01b031990921660209283029190910190910152630d856eef60e01b8161133d8461571e565b93508360ff168151811061135357611353615611565b6001600160e01b031990921660209283029190910190910152633322d87760e01b8161137e8461571e565b93508360ff168151811061139457611394615611565b6001600160e01b031990921660209283029190910190910152632f53ef2b60e01b816113bf8461571e565b93508360ff16815181106113d5576113d5615611565b6001600160e01b031990921660209283029190910190910152635495a6d760e01b816114008461571e565b93508360ff168151811061141657611416615611565b6001600160e01b03199092166020928302919091019091015260ff82161561077e5760405162461bcd60e51b815260206004820152601c60248201527f7573652074686520636f7272656374206172726179206c656e677468000000006044820152606401610ab4565b611488612656565b848314801561149657508281145b6114b25760405162461bcd60e51b8152600401610ab490615670565b60006114be6009612649565b905060005b815181101561164c5760008282815181106114e0576114e0615611565b60200260200101519050600061151960086000846001600160a01b03166001600160a01b03168152602001908152602001600020612649565b905060005b815181101561160857600082828151811061153b5761153b615611565b6020908102919091018101516001600160a01b03808216600090815260068452604080822092891682529190935290912080546001600160a01b031916905583519091506115d09084908490811061159557611595615611565b602002602001015160086000876001600160a01b03166001600160a01b031681526020019081526020016000206126b290919063ffffffff16565b506001600160a01b0316600090815260076020526040902080546001600160a01b03191690558061160081615655565b91505061151e565b5061163684848151811061161e5761161e615611565b602002602001015160096126b290919063ffffffff16565b505050808061164490615655565b9150506114c3565b5060006116596003612649565b905060005b815181101561177657600082828151811061167b5761167b615611565b602002602001015190506000816001600160a01b03166306fdde036040518163ffffffff1660e01b8152600401600060405180830381865afa1580156116c5573d6000803e3d6000fd5b505050506040513d6000823e601f3d908101601f191682016040526116ed9190810190615695565b905060006005826040516117019190615702565b908152602001604051809103902060006101000a8154816001600160a01b0302191690836001600160a01b0316021790555061176084848151811061174857611748615611565b602002602001015160036126b290919063ffffffff16565b505050808061176e90615655565b91505061165e565b5060005b878110156117f7576117e589898381811061179757611797615611565b90506020020160208101906117ac919061530f565b8888848181106117be576117be615611565b90506020020160208101906117d3919061530f565b878785818110610b2b57610b2b615611565b806117ef81615655565b91505061177a565b505050505050505050565b606061180e6003612649565b905090565b6001600160a01b0380831660009081526006602090815260408083208585168452825291829020548251808401909352601583527429b7b634b2363ca9bbb0b82634b8bab4b230ba37b960591b918301919091529091169060609061187990839061294d565b1561188f576118888484612998565b9050611d44565b6118ce826040518060400160405280601881526020017f536f6c69646c794c70546f6b656e4c697175696461746f72000000000000000081525061294d565b156118dd576118888484612e69565b61191c826040518060400160405280601981526020017f556e697377617056324c697175696461746f7246756e6465720000000000000081525061294d565b1561192b576118888484613074565b611962826040518060400160405280601581526020017420b633b2b13930a9bbb0b82634b8bab4b230ba37b960591b81525061294d565b806119a057506119a0826040518060400160405280601681526020017523b0b6b6b0a6382a37b5b2b72634b8bab4b230ba37b960511b81525061294d565b156119af57611888848461311c565b6119e782604051806040016040528060168152602001752130b630b731b2b929bbb0b82634b8bab4b230ba37b960511b81525061294d565b156119f65761188884846131e8565b611a35826040518060400160405280601881526020017f556e69737761704c70546f6b656e4c697175696461746f72000000000000000081525061294d565b80611a715750611a71826040518060400160405280601481526020017323b2b630ba37a3aab734a634b8bab4b230ba37b960611b81525061294d565b15611a805761188884846132f4565b611abf826040518060400160405280601781526020017f536164646c654c70546f6b656e4c697175696461746f7200000000000000000081525061294d565b15611ace5761188884846135ba565b611b0d826040518060400160405280602081526020017f43757276654c70546f6b656e4c697175696461746f724e6f526567697374727981525061294d565b15611b1c5761188884846137b2565b611b51826040518060400160405280601381526020017221bab93b32a9bbb0b82634b8bab4b230ba37b960691b81525061294d565b15611b605761188884846139aa565b611b95826040518060400160405280601381526020017221bab93b32a6382a37b5b2b72bb930b83832b960691b81525061294d565b15611ba4576118888484613b8e565b611bdc82604051806040016040528060168152602001752530b93b34b9a634b8bab4b230ba37b9233ab73232b960511b81525061294d565b15611beb576118888484613c35565b611c2282604051806040016040528060158152602001742c2137b6b12634b8bab4b230ba37b9233ab73232b960591b81525061294d565b15611c31576118888484613dcd565b611c70826040518060400160405280601981526020017f42616c616e6365724c70546f6b656e4c697175696461746f720000000000000081525061294d565b15611c7f576118888484613fa5565b611cb4826040518060400160405280601381526020017220b0bb32aa37b5b2b72634b8bab4b230ba37b960691b81525061294d565b15611cc3576118888484613fa5565b611cfa826040518060400160405280601581526020017429b7b634b2363ca6382a37b5b2b72bb930b83832b960591b81525061294d565b15611d09576118888484613fc1565b60405162461bcd60e51b815260206004820152601060248201526f6e6f207374726174656779206461746160801b6044820152606401610ab4565b9250929050565b611d53612656565b6000836001600160a01b03166306fdde036040518163ffffffff1660e01b8152600401600060405180830381865afa158015611d93573d6000803e3d6000fd5b505050506040513d6000823e601f3d908101601f19168201604052611dbb9190810190615695565b90506000600582604051611dcf9190615702565b9081526040805160209281900383018120546001600160a01b0388811660009081526006865284812089831682529095529290932080546001600160a01b031916898416179055911691508590600590611e2a908590615702565b90815260405190819003602001902080546001600160a01b03929092166001600160a01b0319909216919091179055611e646003826126b2565b50611e706003866145bf565b506001600160a01b0384811660009081526007602052604090205416611ebf576001600160a01b03848116600090815260076020526040902080546001600160a01b0319169185169190911790555b6001600160a01b0383166000908152600860205260409020611ee190856145bf565b50611eed6009846145bf565b505050505050565b60408051600a80825261016082019092526060918291859185916000916020820161014080368337505060408051600a80825261016082019092529293506000929150602082015b6060815260200190600190039081611f3d57505060408051600a808252610160820190925291925060009190602082016101408036833701905050905060005b846001600160a01b0316866001600160a01b03161461211c576001600160a01b03808716600090815260066020908152604080832089851684529091528120549091168015611fce57869150611fec565b6001600160a01b038089166000908152600760205260409020541691505b60005b84518110156120425784818151811061200a5761200a615611565b60200260200101516001600160a01b0316836001600160a01b0316141561203057612042565b8061203a81615655565b915050611fef565b506000806120508a85611813565b90925090506001600160a01b03821661206c575050505061211c565b8188868151811061207f5761207f615611565b60200260200101906001600160a01b031690816001600160a01b031681525050808786815181106120b2576120b2615611565b6020026020010181905250838686815181106120d0576120d0615611565b60200260200101906001600160a01b031690816001600160a01b03168152505083995084806120fe90615655565b95505084600a1415612113575050505061211c565b50505050611f7d565b806001600160401b038111156121345761213461548b565b60405190808252806020026020018201604052801561215d578160200160208202803683370190505b509750806001600160401b038111156121785761217861548b565b6040519080825280602002602001820160405280156121ab57816020015b60608152602001906001900390816121965790505b50965060005b818160ff16101561225e57848160ff16815181106121d1576121d1615611565b6020026020010151898260ff16815181106121ee576121ee615611565b60200260200101906001600160a01b031690816001600160a01b031681525050838160ff168151811061222357612223615611565b6020026020010151888260ff168151811061224057612240615611565b602002602001018190525080806122569061573b565b9150506121b1565b505050505050509250929050565b612274612656565b600180546001600160a01b0383166001600160a01b031990911681179091556122a56000546001600160a01b031690565b6001600160a01b03167f38d16b8cac22d99fc7c124b9cd0de2d3fa1faef420bfe791d8c362d765e2270060405160405180910390a350565b600080836122f0575060009050806125f1565b6122fb858585610f2e565b91508161230d575060009050806125f1565b60025460405163bf40fac160e01b81526020600482015260116024820152704d617374657250726963654f7261636c6560781b60448201526000916001600160a01b03169063bf40fac190606401602060405180830381865afa158015612378573d6000803e3d6000fd5b505050506040513d601f19601f8201168201806040525081019061239c919061575b565b6040516315d5220f60e31b81526001600160a01b03888116600483015291925060009183169063aea9107890602401602060405180830381865afa1580156123e8573d6000803e3d6000fd5b505050506040513d601f19601f8201168201806040525081019061240c9190615778565b6040516315d5220f60e31b81526001600160a01b03878116600483015291925060009184169063aea9107890602401602060405180830381865afa158015612458573d6000803e3d6000fd5b505050506040513d601f19601f8201168201806040525081019061247c9190615778565b9050600061248a838a6145d4565b6124949089615791565b905060006124a283896145d4565b6124ac9088615791565b9050818110156124e957816124c182826157b0565b6124d390670de0b6b3a7640000615791565b6124dd91906157c7565b9550856124e957600195505b6001600160a01b03808b166000908152600b60209081526040808320938c168352929052205480158061254d57506001600160a01b03808c166000908152600c60209081526040808320938d16835292905220546113889061254b90426157b0565b115b156125ea57886001600160a01b03168b6001600160a01b03167f5d4661f2f390321d7ed6695cf1f19cd360bafab39b6dc6e06e5b48f1653486a1838a6040516125a0929190918252602082015260400190565b60405180910390a36001600160a01b03808c166000818152600b60209081526040808320948e168084529482528083208c9055928252600c81528282209382529290925290204290555b5050505050505b935093915050565b600080546001600160a01b038381166001600160a01b0319831681178455604051919092169283917f8be0079c531659141344cd1fd0a4f28419497f9722a3daafe3b4186f6b6457e09190a35050565b60606000610f6583614694565b6000546001600160a01b031633146126b05760405162461bcd60e51b815260206004820181905260248201527f4f776e61626c653a2063616c6c6572206973206e6f7420746865206f776e65726044820152606401610ab4565b565b6000610f65836001600160a01b0384166146f0565b600061077e825490565b6040516001600160a01b038085166024830152831660448201526064810182905261273c9085906323b872dd60e01b906084015b60408051601f198184030181529190526020810180516001600160e01b03166001600160e01b0319909316929092179091526147e3565b50505050565b6040516370a0823160e01b815230600482015260009081906001600160a01b038516906370a0823190602401602060405180830381865afa15801561278b573d6000803e3d6000fd5b505050506040513d601f19601f820116820180604052508101906127af9190615778565b90506000806127be8686611ef5565b915091508151600014156127e557604051631aa27a4d60e21b815260040160405180910390fd5b858360005b845181101561285d57600085828151811061280757612807615611565b60200260200101519050600085838151811061282557612825615611565b6020026020010151905060008061283e878786866148b5565b909750955084935061285592508391506156559050565b9150506127ea565b50866001600160a01b0316826001600160a01b0316146128905760405163fdbb00c560e01b815260040160405180910390fd5b6040516370a0823160e01b81523060048201526001600160a01b038816906370a0823190602401602060405180830381865afa1580156128d4573d6000803e3d6000fd5b505050506040513d601f19601f820116820180604052508101906128f89190615778565b98975050505050505050565b6040516001600160a01b038316602482015260448101829052610e3390849063a9059cbb60e01b90606401612705565b600180546001600160a01b0319169055611033816125f9565b60006001600160a01b03831615801590610f6557506005826040516129729190615702565b908152604051908190036020019020546001600160a01b03848116911614905092915050565b60025460405163bf40fac160e01b81526060916000916001600160a01b039091169063bf40fac1906129cc906004016157e9565b602060405180830381865afa1580156129e9573d6000803e3d6000fd5b505050506040513d601f19601f82011682018060405250810190612a0d919061575b565b60405163260f701f60e11b815290915083906000906001600160a01b03841690634c1ee03e90612a4590899086908690600401615816565b602060405180830381865afa158015612a62573d6000803e3d6000fd5b505050506040513d601f19601f82011682018060405250810190612a86919061575b565b90506000836001600160a01b0316634c1ee03e888560016040518463ffffffff1660e01b8152600401612abb93929190615816565b602060405180830381865afa158015612ad8573d6000803e3d6000fd5b505050506040513d601f19601f82011682018060405250810190612afc919061575b565b60405163e5e31b1360e01b81526001600160a01b0380831660048301529192509085169063e5e31b1390602401602060405180830381865afa158015612b46573d6000803e3d6000fd5b505050506040513d601f19601f82011682018060405250810190612b6a919061583a565b80612bda575060405163e5e31b1360e01b81526001600160a01b03838116600483015285169063e5e31b1390602401602060405180830381865afa158015612bb6573d6000803e3d6000fd5b505050506040513d601f19601f82011682018060405250810190612bda919061583a565b612c325760405162461bcd60e51b8152602060048201526024808201527f496e76616c696420536f6c69646c794c697175696461746f722073776170207060448201526330ba341760e11b6064820152608401610ab4565b60405163e5e31b1360e01b81526001600160a01b0382811660048301526000919086169063e5e31b1390602401602060405180830381865afa158015612c7c573d6000803e3d6000fd5b505050506040513d601f19601f82011682018060405250810190612ca0919061583a565b612cac57506000612e38565b60405163e5e31b1360e01b81526001600160a01b03848116600483015286169063e5e31b1390602401602060405180830381865afa158015612cf2573d6000803e3d6000fd5b505050506040513d601f19601f82011682018060405250810190612d16919061583a565b612d2257506001612e38565b600080866001600160a01b0316635e60dab58b8860016040518463ffffffff1660e01b8152600401612d5693929190615816565b6040805180830381865afa158015612d72573d6000803e3d6000fd5b505050506040513d601f19601f82011682018060405250810190612d96919061585c565b91509150600080886001600160a01b0316635e60dab58d8a60006040518463ffffffff1660e01b8152600401612dce93929190615816565b6040805180830381865afa158015612dea573d6000803e3d6000fd5b505050506040513d601f19601f82011682018060405250810190612e0e919061585c565b915091508184118015612e2057508083115b15612e2e5760019450612e33565b600094505b505050505b848782604051602001612e4d93929190615816565b6040516020818303038152906040529550505050505092915050565b60606000839050806001600160a01b0316630dfe16816040518163ffffffff1660e01b8152600401602060405180830381865afa158015612eae573d6000803e3d6000fd5b505050506040513d601f19601f82011682018060405250810190612ed2919061575b565b6001600160a01b0316836001600160a01b03161480612f635750806001600160a01b031663d21220a76040518163ffffffff1660e01b8152600401602060405180830381865afa158015612f2a573d6000803e3d6000fd5b505050506040513d601f19601f82011682018060405250810190612f4e919061575b565b6001600160a01b0316836001600160a01b0316145b612fce5760405162461bcd60e51b815260206004820152603660248201527f4f757470757420746f6b656e20646f6573206e6f74206d6174636820656974686044820152756572206f6620746865207061697220746f6b656e732160501b6064820152608401610ab4565b60025460405163bf40fac160e01b81526001600160a01b039091169063bf40fac190612ffc906004016157e9565b602060405180830381865afa158015613019573d6000803e3d6000fd5b505050506040513d601f19601f8201168201806040525081019061303d919061575b565b604080516001600160a01b039283166020820152918516908201526060015b60405160208183030381529060405291505092915050565b6040805160028082526060808301845292600092919060208301908036833701905050905083816000815181106130ad576130ad615611565b60200260200101906001600160a01b031690816001600160a01b03168152505082816001815181106130e1576130e1615611565b60200260200101906001600160a01b031690816001600160a01b03168152505061310a84614936565b8160405160200161305c929190615880565b60025460405163bf40fac160e01b815260206004820152601360248201527220a623a2a12920afa9aba0a82fa927aaaa22a960691b604482015260609183916001600160a01b039091169063bf40fac190606401602060405180830381865afa15801561318d573d6000803e3d6000fd5b505050506040513d601f19601f820116820180604052508101906131b1919061575b565b604080516001600160a01b03938416602082015292909116908201526060015b604051602081830303815290604052905092915050565b60025460405163959fc09760e01b81526001600160a01b038481166004830152838116602483015260609260009291169063959fc09790604401602060405180830381865afa15801561323f573d6000803e3d6000fd5b505050506040513d601f19601f82011682018060405250810190613263919061575b565b90506001600160a01b0381166132cf5760405162461bcd60e51b815260206004820152602b60248201527f4e6f2062616c616e63657220706f6f6c20666f756e6420666f7220746865206760448201526a6976656e20746f6b656e7360a81b6064820152608401610ab4565b604080516001600160a01b03808616602083015283169181019190915260600161305c565b606060008390506000816001600160a01b0316630dfe16816040518163ffffffff1660e01b8152600401602060405180830381865afa15801561333b573d6000803e3d6000fd5b505050506040513d601f19601f8201168201806040525081019061335f919061575b565b90506000826001600160a01b031663d21220a76040518163ffffffff1660e01b8152600401602060405180830381865afa1580156133a1573d6000803e3d6000fd5b505050506040513d601f19601f820116820180604052508101906133c5919061575b565b90506001600160a01b0385811681841681149183161481806133e45750805b61344e5760405162461bcd60e51b815260206004820152603560248201527f4f757470757420746f6b656e20646f6573206e6f74206d6174636820656974686044820152746572206f6620746865207061697220746f6b656e7360581b6064820152608401610ab4565b60608083156134ee57604080516000815260026020820181815260808301845291945090918481019080368337019050509050848160008151811061349557613495615611565b60200260200101906001600160a01b031690816001600160a01b03168152505085816001815181106134c9576134c9615611565b60200260200101906001600160a01b031690816001600160a01b03168152505061357f565b50604080516000815260026020820181815260808301845291928381019080368337019050509150858260008151811061352a5761352a615611565b60200260200101906001600160a01b031690816001600160a01b031681525050848260018151811061355e5761355e615611565b60200260200101906001600160a01b031690816001600160a01b0316815250505b6135888a614936565b828260405160200161359c939291906158a4565b60405160208183030381529060405297505050505050505092915050565b60025460405163bf40fac160e01b8152602060048201526013602482015272536164646c654c7050726963654f7261636c6560681b60448201526060916000916001600160a01b039091169063bf40fac190606401602060405180830381865afa15801561362c573d6000803e3d6000fd5b505050506040513d601f19601f82011682018060405250810190613650919061575b565b60405163195b70b960e21b81526001600160a01b03868116600483015291925060009183169063656dc2e490602401600060405180830381865afa15801561369c573d6000803e3d6000fd5b505050506040513d6000823e601f3d908101601f191682016040526136c491908101906158fd565b60025460405163bf40fac160e01b81529192506000916001600160a01b039091169063bf40fac1906136f89060040161598b565b602060405180830381865afa158015613715573d6000803e3d6000fd5b505050506040513d601f19601f82011682018060405250810190613739919061575b565b9050600061374783876149c6565b9050806001600160a01b038116158061377c575073eeeeeeeeeeeeeeeeeeeeeeeeeeeeeeeeeeeeeeee6001600160a01b038316145b156137845750815b604080516001600160a01b038085166020830152808816928201929092529084166060820152608001612e4d565b60025460405163bf40fac160e01b81526060916000916001600160a01b039091169063bf40fac1906137e6906004016159ab565b602060405180830381865afa158015613803573d6000803e3d6000fd5b505050506040513d601f19601f82011682018060405250810190613827919061575b565b60405163988b1fa760e01b81526001600160a01b03868116600483015291925060009183169063988b1fa790602401602060405180830381865afa158015613873573d6000803e3d6000fd5b505050506040513d601f19601f82011682018060405250810190613897919061575b565b905060006138a482614ce1565b905060006138b282876149c6565b60025460405163bf40fac160e01b815291925082916000916001600160a01b03169063bf40fac1906138e69060040161598b565b602060405180830381865afa158015613903573d6000803e3d6000fd5b505050506040513d601f19601f82011682018060405250810190613927919061575b565b90506001600160a01b038316158061395b575073eeeeeeeeeeeeeeeeeeeeeeeeeeeeeeeeeeeeeeee6001600160a01b038416145b15613964578091505b604080516001600160a01b038086166020830152808416928201929092529087166060820152608001604051602081830303815290604052965050505050505092915050565b60025460405163bf40fac160e01b81526060916000916001600160a01b039091169063bf40fac1906139de906004016159ab565b602060405180830381865afa1580156139fb573d6000803e3d6000fd5b505050506040513d601f19601f82011682018060405250810190613a1f919061575b565b60025460405163bf40fac160e01b815260206004820152602360248201527f437572766556324c70546f6b656e50726963654f7261636c654e6f526567697360448201526274727960e81b60648201529192506000916001600160a01b039091169063bf40fac190608401602060405180830381865afa158015613aa7573d6000803e3d6000fd5b505050506040513d601f19601f82011682018060405250810190613acb919061575b565b60025460405163bf40fac160e01b81529192506000916001600160a01b039091169063bf40fac190613aff9060040161598b565b602060405180830381865afa158015613b1c573d6000803e3d6000fd5b505050506040513d601f19601f82011682018060405250810190613b40919061575b565b604080516001600160a01b039586166020820152938516848201529684166060840152948316608083015250921660a0808401919091528351808403909101815260c0909201909252919050565b60025460405163bf40fac160e01b81526060916000916001600160a01b039091169063bf40fac190613bc2906004016159ab565b602060405180830381865afa158015613bdf573d6000803e3d6000fd5b505050506040513d601f19601f82011682018060405250810190613c03919061575b565b60405163988b1fa760e01b81526001600160a01b0385811660048301529192509082169063988b1fa790602401612ffc565b60606000600260009054906101000a90046001600160a01b03166001600160a01b03166377d792196040518163ffffffff1660e01b8152600401600060405180830381865afa158015613c8c573d6000803e3d6000fd5b505050506040513d6000823e601f3d908101601f19168201604052613cb491908101906159ec565b905060005b8151811015613dc5576000828281518110613cd657613cd6615611565b60200260200101519050856001600160a01b031681600001516001600160a01b03161415613d4257805160408083015160609384015182516001600160a01b03948516602082015293909116838301528284015280518083039093018352608090910190529250613dc5565b856001600160a01b031681602001516001600160a01b03161415613db257806020015181604001518260600151604051602001613da0939291906001600160a01b039384168152919092166020820152604081019190915260600190565b60405160208183030381529060405293505b5080613dbd81615655565b915050613cb9565b505092915050565b60604660381415613e3a5750604080516001600160a01b038416602082015273af16cb45b8149da403af41c63abfebfbcd16264b8183015273522348779dcb2911539e76a1042aa922f9c47ee360608083019190915282518083039091018152608090910190915261077e565b73e45589fbad3a1fb90f5b2a8a3e8958a8bab5f768734f1885d25ef219d3d4fa064809d6d4985fab9a0b738870f7102f1dcb1c35b01af10f1baf1b00ad6805733d312b224dec414fe865e1e9bfc13e2a86947d19738146293bf5225b471625372e985fdb7165c35fe26001600160a01b038816851415613f22576000846001600160a01b0316886001600160a01b03161415613ed7575081613ef4565b836001600160a01b0316886001600160a01b03161415613ef45750805b8081898a604051602001613f0b9493929190615ac5565b604051602081830303815290604052965050613f9a565b836001600160a01b0316886001600160a01b03161415613f695787828987604051602001613f539493929190615ac5565b6040516020818303038152906040529550613f9a565b826001600160a01b0316886001600160a01b03161415613f9a5787818987604051602001612e4d9493929190615ac5565b505050505092915050565b604080516001600160a01b0383166020820152606091016131d1565b60025460405163bf40fac160e01b81526060916000916001600160a01b039091169063bf40fac190613ff5906004016157e9565b602060405180830381865afa158015614012573d6000803e3d6000fd5b505050506040513d601f19601f82011682018060405250810190614036919061575b565b6040805160018082528183019092529192508491600091816020015b604080516060810182526000808252602080830182905292820152825260001990920191018161405257505060408051600180825281830190925291925060009190602082015b60408051606081018252600080825260208083018290529282015282526000199092019101816140995790505090506000876001600160a01b0316846001600160a01b0316630dfe16816040518163ffffffff1660e01b8152600401602060405180830381865afa158015614112573d6000803e3d6000fd5b505050506040513d601f19601f82011682018060405250810190614136919061575b565b6001600160a01b03161490506000886001600160a01b0316856001600160a01b031663d21220a76040518163ffffffff1660e01b8152600401602060405180830381865afa15801561418c573d6000803e3d6000fd5b505050506040513d601f19601f820116820180604052508101906141b0919061575b565b6001600160a01b031614905081806141c55750805b6142115760405162461bcd60e51b815260206004820152601b60248201527f21696e70757420746f6b656e206e6f7420756e6465726c79696e6700000000006044820152606401610ab4565b846001600160a01b03166322be3de16040518163ffffffff1660e01b8152600401602060405180830381865afa15801561424f573d6000803e3d6000fd5b505050506040513d601f19601f82011682018060405250810190614273919061583a565b8460008151811061428657614286615611565b60200260200101516040019015159081151581525050846001600160a01b0316630dfe16816040518163ffffffff1660e01b8152600401602060405180830381865afa1580156142da573d6000803e3d6000fd5b505050506040513d601f19601f820116820180604052508101906142fe919061575b565b8460008151811061431157614311615611565b6020026020010151600001906001600160a01b031690816001600160a01b031681525050846001600160a01b031663d21220a76040518163ffffffff1660e01b8152600401602060405180830381865afa158015614373573d6000803e3d6000fd5b505050506040513d601f19601f82011682018060405250810190614397919061575b565b846000815181106143aa576143aa615611565b6020026020010151602001906001600160a01b031690816001600160a01b031681525050846001600160a01b03166322be3de16040518163ffffffff1660e01b8152600401602060405180830381865afa15801561440c573d6000803e3d6000fd5b505050506040513d601f19601f82011682018060405250810190614430919061583a565b8360008151811061444357614443615611565b60200260200101516040019015159081151581525050846001600160a01b031663d21220a76040518163ffffffff1660e01b8152600401602060405180830381865afa158015614497573d6000803e3d6000fd5b505050506040513d601f19601f820116820180604052508101906144bb919061575b565b836000815181106144ce576144ce615611565b6020026020010151600001906001600160a01b031690816001600160a01b031681525050846001600160a01b0316630dfe16816040518163ffffffff1660e01b8152600401602060405180830381865afa158015614530573d6000803e3d6000fd5b505050506040513d601f19601f82011682018060405250810190614554919061575b565b8360008151811061456757614567615611565b6020026020010151602001906001600160a01b031690816001600160a01b0316815250505050838383836040516020016145a49493929190615b44565b60405160208183030381529060405294505050505092915050565b6000610f65836001600160a01b038416614e66565b600080826001600160a01b031663313ce5676040518163ffffffff1660e01b8152600401602060405180830381865afa158015614615573d6000803e3d6000fd5b505050506040513d601f19601f820116820180604052508101906146399190615b82565b60ff169050601281111561466c576146526012826157b0565b61465d90600a615c89565b61466790856157c7565b61468c565b6146778160126157b0565b61468290600a615c89565b61468c9085615791565b949350505050565b6060816000018054806020026020016040519081016040528092919081815260200182805480156146e457602002820191906000526020600020905b8154815260200190600101908083116146d0575b50505050509050919050565b600081815260018301602052604081205480156147d95760006147146001836157b0565b8554909150600090614728906001906157b0565b905081811461478d57600086600001828154811061474857614748615611565b906000526020600020015490508087600001848154811061476b5761476b615611565b6000918252602080832090910192909255918252600188019052604090208390555b855486908061479e5761479e615c95565b60019003818190600052602060002001600090559055856001016000868152602001908152602001600020600090556001935050505061077e565b600091505061077e565b6000614838826040518060400160405280602081526020017f5361666545524332303a206c6f772d6c6576656c2063616c6c206661696c6564815250856001600160a01b0316614eb59092919063ffffffff16565b805190915015610e335780806020019051810190614856919061583a565b610e335760405162461bcd60e51b815260206004820152602a60248201527f5361666545524332303a204552433230206f7065726174696f6e20646964206e6044820152691bdd081cdd58d8d9595960b21b6064820152608401610ab4565b6000806000614912856310badf4e60e01b8989886040516024016148db93929190615cab565b60408051601f198184030181529190526020810180516001600160e01b03166001600160e01b031990931692909217909152614ec4565b9050808060200190518101906149289190615cd2565b925092505094509492505050565b60025460405163bf40fac160e01b815260206004820152601260248201527124aab734b9bbb0b82b192937baba32b9181960711b60448201526000916001600160a01b03169063bf40fac190606401602060405180830381865afa1580156149a2573d6000803e3d6000fd5b505050506040513d601f19601f8201168201806040525081019061077e919061575b565b6000805b8351811015614a2157826001600160a01b03168482815181106149ef576149ef615611565b60200260200101516001600160a01b03161415614a0f578291505061077e565b80614a1981615655565b9150506149ca565b5060025460405163bf40fac160e01b81526000916001600160a01b03169063bf40fac190614a519060040161598b565b602060405180830381865afa158015614a6e573d6000803e3d6000fd5b505050506040513d601f19601f82011682018060405250810190614a92919061575b565b905060005b8451811015614aed57816001600160a01b0316858281518110614abc57614abc615611565b60200260200101516001600160a01b03161415614adb5750905061077e565b80614ae581615655565b915050614a97565b5060025460405163bf40fac160e01b815260206004820152600b60248201526a39ba30b13632aa37b5b2b760a91b60448201526000916001600160a01b03169063bf40fac190606401602060405180830381865afa158015614b53573d6000803e3d6000fd5b505050506040513d601f19601f82011682018060405250810190614b77919061575b565b905060005b8551811015614bd457816001600160a01b0316868281518110614ba157614ba1615611565b60200260200101516001600160a01b03161415614bc25750915061077e9050565b80614bcc81615655565b915050614b7c565b5060025460405163bf40fac160e01b81526020600482015260096024820152683ba12a21aa37b5b2b760b91b60448201526000916001600160a01b03169063bf40fac190606401602060405180830381865afa158015614c38573d6000803e3d6000fd5b505050506040513d601f19601f82011682018060405250810190614c5c919061575b565b905060005b8651811015614cba57816001600160a01b0316878281518110614c8657614c86615611565b60200260200101516001600160a01b03161415614ca85750925061077e915050565b80614cb281615655565b915050614c61565b5085600081518110614cce57614cce615611565b6020026020010151935050505092915050565b606060005b60405163c661065760e01b815260ff821660048201526001600160a01b0384169063c661065790602401602060405180830381865afa925050508015614d49575060408051601f3d908101601f19168201909252614d469181019061575b565b60015b614d5257614d65565b5080614d5d8161573b565b915050614ce6565b8060ff166001600160401b03811115614d8057614d8061548b565b604051908082528060200260200182016040528015614da9578160200160208202803683370190505b50915060005b8160ff16811015614e5f5760405163c661065760e01b8152600481018290526001600160a01b0385169063c661065790602401602060405180830381865afa158015614dff573d6000803e3d6000fd5b505050506040513d601f19601f82011682018060405250810190614e23919061575b565b838281518110614e3557614e35615611565b6001600160a01b039092166020928302919091019091015280614e5781615655565b915050614daf565b5050919050565b6000818152600183016020526040812054614ead5750815460018181018455600084815260208082209093018490558454848252828601909352604090209190915561077e565b50600061077e565b606061468c8484600085614fb8565b60606001600160a01b0383163b614f2c5760405162461bcd60e51b815260206004820152602660248201527f416464726573733a2064656c65676174652063616c6c20746f206e6f6e2d636f6044820152651b9d1c9858dd60d21b6064820152608401610ab4565b600080846001600160a01b031684604051614f479190615702565b600060405180830381855af49150503d8060008114614f82576040519150601f19603f3d011682016040523d82523d6000602084013e614f87565b606091505b5091509150614faf8282604051806060016040528060278152602001615d1460279139615093565b95945050505050565b6060824710156150195760405162461bcd60e51b815260206004820152602660248201527f416464726573733a20696e73756666696369656e742062616c616e636520666f6044820152651c8818d85b1b60d21b6064820152608401610ab4565b600080866001600160a01b031685876040516150359190615702565b60006040518083038185875af1925050503d8060008114615072576040519150601f19603f3d011682016040523d82523d6000602084013e615077565b606091505b5091509150615088878383876150cc565b979650505050505050565b606083156150a2575081610f65565b8251156150b25782518084602001fd5b8160405162461bcd60e51b8152600401610ab49190615d00565b60608315615138578251615131576001600160a01b0385163b6151315760405162461bcd60e51b815260206004820152601d60248201527f416464726573733a2063616c6c20746f206e6f6e2d636f6e74726163740000006044820152606401610ab4565b508161468c565b61468c838381511561514d5781518083602001fd5b8060405162461bcd60e51b8152600401610ab49190615d00565b600081518084526020808501945080840160005b838110156151a05781516001600160a01b03168752958201959082019060010161517b565b509495945050505050565b6060815260006151be6060830186615167565b82810360208401526151d08186615167565b90508281036040840152610a788185615167565b6001600160a01b038116811461103357600080fd5b6000806040838503121561520c57600080fd5b8235615217816151e4565b91506020830135615227816151e4565b809150509250929050565b60008083601f84011261524457600080fd5b5081356001600160401b0381111561525b57600080fd5b6020830191508360208260051b8501011115611d4457600080fd5b6000806000806000806060878903121561528f57600080fd5b86356001600160401b03808211156152a657600080fd5b6152b28a838b01615232565b909850965060208901359150808211156152cb57600080fd5b6152d78a838b01615232565b909650945060408901359150808211156152f057600080fd5b506152fd89828a01615232565b979a9699509497509295939492505050565b60006020828403121561532157600080fd5b8135610f65816151e4565b602081526000610f656020830184615167565b60008060006060848603121561535457600080fd5b833561535f816151e4565b9250602084013591506040840135615376816151e4565b809150509250925092565b6020808252825182820181905260009190848201906040850190845b818110156153c35783516001600160e01b0319168352928401929184019160010161539d565b50909695505050505050565b60005b838110156153ea5781810151838201526020016153d2565b8381111561273c5750506000910152565b600081518084526154138160208601602086016153cf565b601f01601f19169290920160200192915050565b6001600160a01b038316815260406020820181905260009061468c908301846153fb565b60008060006060848603121561546057600080fd5b833561546b816151e4565b9250602084013561547b816151e4565b91506040840135615376816151e4565b634e487b7160e01b600052604160045260246000fd5b604051608081016001600160401b03811182821017156154c3576154c361548b565b60405290565b604051601f8201601f191681016001600160401b03811182821017156154f1576154f161548b565b604052919050565b60006001600160401b038211156155125761551261548b565b50601f01601f191660200190565b60006020828403121561553257600080fd5b81356001600160401b0381111561554857600080fd5b8201601f8101841361555957600080fd5b803561556c615567826154f9565b6154c9565b81815285602083850101111561558157600080fd5b81602084016020830137600091810160200191909152949350505050565b6040815260006155b26040830185615167565b6020838203818501528185518084528284019150828160051b85010183880160005b8381101561560257601f198784030185526155f08383516153fb565b948601949250908501906001016155d4565b50909998505050505050505050565b634e487b7160e01b600052603260045260246000fd5b634e487b7160e01b600052601160045260246000fd5b6000821982111561565057615650615627565b500190565b600060001982141561566957615669615627565b5060010190565b6020808252600b908201526a10b0b93930bcb9903632b760a91b604082015260600190565b6000602082840312156156a757600080fd5b81516001600160401b038111156156bd57600080fd5b8201601f810184136156ce57600080fd5b80516156dc615567826154f9565b8181528560208385010111156156f157600080fd5b614faf8260208301602086016153cf565b600082516157148184602087016153cf565b9190910192915050565b600060ff82168061573157615731615627565b6000190192915050565b600060ff821660ff81141561575257615752615627565b60010192915050565b60006020828403121561576d57600080fd5b8151610f65816151e4565b60006020828403121561578a57600080fd5b5051919050565b60008160001904831182151516156157ab576157ab615627565b500290565b6000828210156157c2576157c2615627565b500390565b6000826157e457634e487b7160e01b600052601260045260246000fd5b500490565b60208082526013908201527229a7a624a2262cafa9aba0a82fa927aaaa22a960691b604082015260600190565b6001600160a01b039384168152919092166020820152901515604082015260600190565b60006020828403121561584c57600080fd5b81518015158114610f6557600080fd5b6000806040838503121561586f57600080fd5b505080516020909101519092909150565b6001600160a01b038316815260406020820181905260009061468c90830184615167565b6001600160a01b03841681526060602082018190526000906158c890830185615167565b8281036040840152610a788185615167565b60006001600160401b038211156158f3576158f361548b565b5060051b60200190565b6000602080838503121561591057600080fd5b82516001600160401b0381111561592657600080fd5b8301601f8101851361593757600080fd5b8051615945615567826158da565b81815260059190911b8201830190838101908783111561596457600080fd5b928401925b8284101561508857835161597c816151e4565b82529284019290840190615969565b6020808252600690820152653bba37b5b2b760d11b604082015260600190565b60208082526021908201527f43757276654c70546f6b656e50726963654f7261636c654e6f526567697374726040820152607960f81b606082015260800190565b600060208083850312156159ff57600080fd5b82516001600160401b03811115615a1557600080fd5b8301601f81018513615a2657600080fd5b8051615a34615567826158da565b81815260079190911b82018301908381019087831115615a5357600080fd5b928401925b828410156150885760808489031215615a715760008081fd5b615a796154a1565b8451615a84816151e4565b815284860151615a93816151e4565b81870152604085810151615aa6816151e4565b9082015260608581015190820152825260809093019290840190615a58565b6001600160a01b03948516815292841660208401529083166040830152909116606082015260800190565b600081518084526020808501945080840160005b838110156151a057815180516001600160a01b03908116895284820151168489015260409081015115159088015260609096019590820190600101615b04565b6001600160a01b03858116825284166020820152608060408201819052600090615b7090830185615af0565b82810360608401526150888185615af0565b600060208284031215615b9457600080fd5b815160ff81168114610f6557600080fd5b600181815b80851115615be0578160001904821115615bc657615bc6615627565b80851615615bd357918102915b93841c9390800290615baa565b509250929050565b600082615bf75750600161077e565b81615c045750600061077e565b8160018114615c1a5760028114615c2457615c40565b600191505061077e565b60ff841115615c3557615c35615627565b50506001821b61077e565b5060208310610133831016604e8410600b8410161715615c63575081810a61077e565b615c6d8383615ba5565b8060001904821115615c8157615c81615627565b029392505050565b6000610f658383615be8565b634e487b7160e01b600052603160045260246000fd5b60018060a01b0384168152826020820152606060408201526000614faf60608301846153fb565b60008060408385031215615ce557600080fd5b8251615cf0816151e4565b6020939093015192949293505050565b602081526000610f6560208301846153fb56fe416464726573733a206c6f772d6c6576656c2064656c65676174652063616c6c206661696c6564a164736f6c634300080a000a",
    "linkReferences": {}
  },
  "methodIdentifiers": {
    "MAX_SLIPPAGE()": "f9759518",
    "_getExtensionFunctions()": "89f8132e",
    "_removeRedemptionStrategy(address)": "514b49d9",
    "_resetRedemptionStrategies(address[],address[],address[])": "a1bb91e3",
    "_setDefaultOutputToken(address,address)": "2434cb7f",
    "_setRedemptionStrategies(address[],address[],address[])": "366eda2e",
    "_setRedemptionStrategy(address,address,address)": "d7341acf",
    "_setSlippages(address[],address[],uint256[])": "5495a6d7",
    "acceptOwnership()": "79ba5097",
    "amountOutAndSlippageOfSwap(address,uint256,address)": "f560cebd",
    "ap()": "3c4f743c",
    "defaultOutputToken(address)": "8db87c27",
    "getAllPairsStrategies()": "0d856eef",
    "getAllRedemptionStrategies()": "a6fdd2bb",
    "getInputTokensByOutputToken(address)": "403de57f",
    "getRedemptionStrategies(address,address)": "ed287f3f",
    "getRedemptionStrategy(address,address)": "b6b928fd",
    "getSlippage(address,address)": "2f53ef2b",
    "owner()": "8da5cb5b",
    "pairsStrategiesMatch(address[],address[],address[])": "3322d877",
    "pendingOwner()": "e30c3978",
    "redemptionStrategiesByName(string)": "dee7fe48",
    "redemptionStrategiesByTokens(address,address)": "a700f9e4",
    "renounceOwnership()": "715018a6",
    "swap(address,uint256,address)": "6d069a67",
    "transferOwnership(address)": "f2fde38b"
  }
}