{
  "address": "0x44e36BFBAB92DF9a8102E8221FD4Ee11eD2588D4",
  "abi": [
    {
      "inputs": [],
      "name": "NoRedemptionPath",
      "type": "error"
    },
    {
      "inputs": [],
      "name": "OutputTokenMismatch",
      "type": "error"
    },
    {
      "anonymous": false,
      "inputs": [
        {
          "indexed": true,
          "internalType": "address",
          "name": "previousOwner",
          "type": "address"
        },
        {
          "indexed": true,
          "internalType": "address",
          "name": "newOwner",
          "type": "address"
        }
      ],
      "name": "OwnershipTransferStarted",
      "type": "event"
    },
    {
      "anonymous": false,
      "inputs": [
        {
          "indexed": true,
          "internalType": "address",
          "name": "previousOwner",
          "type": "address"
        },
        {
          "indexed": true,
          "internalType": "address",
          "name": "newOwner",
          "type": "address"
        }
      ],
      "name": "OwnershipTransferred",
      "type": "event"
    },
    {
      "inputs": [],
      "name": "_getExtensionFunctions",
      "outputs": [
        {
          "internalType": "bytes4[]",
          "name": "",
          "type": "bytes4[]"
        }
      ],
      "stateMutability": "pure",
      "type": "function"
    },
    {
      "inputs": [
        {
          "internalType": "contract IRedemptionStrategy",
          "name": "strategyToRemove",
          "type": "address"
        }
      ],
      "name": "_removeRedemptionStrategy",
      "outputs": [],
      "stateMutability": "nonpayable",
      "type": "function"
    },
    {
      "inputs": [
        {
          "internalType": "contract IRedemptionStrategy[]",
          "name": "strategies",
          "type": "address[]"
        },
        {
          "internalType": "contract IERC20Upgradeable[]",
          "name": "inputTokens",
          "type": "address[]"
        },
        {
          "internalType": "contract IERC20Upgradeable[]",
          "name": "outputTokens",
          "type": "address[]"
        }
      ],
      "name": "_resetRedemptionStrategies",
      "outputs": [],
      "stateMutability": "nonpayable",
      "type": "function"
    },
    {
      "inputs": [
        {
          "internalType": "contract IERC20Upgradeable",
          "name": "inputToken",
          "type": "address"
        },
        {
          "internalType": "contract IERC20Upgradeable",
          "name": "outputToken",
          "type": "address"
        }
      ],
      "name": "_setDefaultOutputToken",
      "outputs": [],
      "stateMutability": "nonpayable",
      "type": "function"
    },
    {
      "inputs": [
        {
          "internalType": "contract IRedemptionStrategy[]",
          "name": "strategies",
          "type": "address[]"
        },
        {
          "internalType": "contract IERC20Upgradeable[]",
          "name": "inputTokens",
          "type": "address[]"
        },
        {
          "internalType": "contract IERC20Upgradeable[]",
          "name": "outputTokens",
          "type": "address[]"
        }
      ],
      "name": "_setRedemptionStrategies",
      "outputs": [],
      "stateMutability": "nonpayable",
      "type": "function"
    },
    {
      "inputs": [
        {
          "internalType": "contract IRedemptionStrategy",
          "name": "strategy",
          "type": "address"
        },
        {
          "internalType": "contract IERC20Upgradeable",
          "name": "inputToken",
          "type": "address"
        },
        {
          "internalType": "contract IERC20Upgradeable",
          "name": "outputToken",
          "type": "address"
        }
      ],
      "name": "_setRedemptionStrategy",
      "outputs": [],
      "stateMutability": "nonpayable",
      "type": "function"
    },
    {
      "inputs": [],
      "name": "acceptOwnership",
      "outputs": [],
      "stateMutability": "nonpayable",
      "type": "function"
    },
    {
      "inputs": [
        {
          "internalType": "contract IERC20Upgradeable",
          "name": "inputToken",
          "type": "address"
        },
        {
          "internalType": "uint256",
          "name": "inputAmount",
          "type": "uint256"
        },
        {
          "internalType": "contract IERC20Upgradeable",
          "name": "outputToken",
          "type": "address"
        }
      ],
      "name": "amountOutAndSlippageOfSwap",
      "outputs": [
        {
          "internalType": "uint256",
          "name": "outputAmount",
          "type": "uint256"
        },
        {
          "internalType": "uint256",
          "name": "slippage",
          "type": "uint256"
        }
      ],
      "stateMutability": "nonpayable",
      "type": "function"
    },
    {
      "inputs": [],
      "name": "ap",
      "outputs": [
        {
          "internalType": "contract AddressesProvider",
          "name": "",
          "type": "address"
        }
      ],
      "stateMutability": "view",
      "type": "function"
    },
    {
      "inputs": [
        {
          "internalType": "contract IERC20Upgradeable",
          "name": "",
          "type": "address"
        }
      ],
      "name": "defaultOutputToken",
      "outputs": [
        {
          "internalType": "contract IERC20Upgradeable",
          "name": "",
          "type": "address"
        }
      ],
      "stateMutability": "view",
      "type": "function"
    },
    {
      "inputs": [],
      "name": "getAllRedemptionStrategies",
      "outputs": [
        {
          "internalType": "address[]",
          "name": "",
          "type": "address[]"
        }
      ],
      "stateMutability": "view",
      "type": "function"
    },
    {
      "inputs": [
        {
          "internalType": "contract IERC20Upgradeable",
          "name": "outputToken",
          "type": "address"
        }
      ],
      "name": "getInputTokensByOutputToken",
      "outputs": [
        {
          "internalType": "address[]",
          "name": "",
          "type": "address[]"
        }
      ],
      "stateMutability": "view",
      "type": "function"
    },
    {
      "inputs": [
        {
          "internalType": "contract IERC20Upgradeable",
          "name": "inputToken",
          "type": "address"
        },
        {
          "internalType": "contract IERC20Upgradeable",
          "name": "outputToken",
          "type": "address"
        }
      ],
      "name": "getRedemptionStrategies",
      "outputs": [
        {
          "internalType": "contract IRedemptionStrategy[]",
          "name": "strategies",
          "type": "address[]"
        },
        {
          "internalType": "bytes[]",
          "name": "strategiesData",
          "type": "bytes[]"
        }
      ],
      "stateMutability": "view",
      "type": "function"
    },
    {
      "inputs": [
        {
          "internalType": "contract IERC20Upgradeable",
          "name": "inputToken",
          "type": "address"
        },
        {
          "internalType": "contract IERC20Upgradeable",
          "name": "outputToken",
          "type": "address"
        }
      ],
      "name": "getRedemptionStrategy",
      "outputs": [
        {
          "internalType": "contract IRedemptionStrategy",
          "name": "strategy",
          "type": "address"
        },
        {
          "internalType": "bytes",
          "name": "strategyData",
          "type": "bytes"
        }
      ],
      "stateMutability": "view",
      "type": "function"
    },
    {
      "inputs": [],
      "name": "owner",
      "outputs": [
        {
          "internalType": "address",
          "name": "",
          "type": "address"
        }
      ],
      "stateMutability": "view",
      "type": "function"
    },
    {
      "inputs": [],
      "name": "pendingOwner",
      "outputs": [
        {
          "internalType": "address",
          "name": "",
          "type": "address"
        }
      ],
      "stateMutability": "view",
      "type": "function"
    },
    {
      "inputs": [
        {
          "internalType": "string",
          "name": "",
          "type": "string"
        }
      ],
      "name": "redemptionStrategiesByName",
      "outputs": [
        {
          "internalType": "contract IRedemptionStrategy",
          "name": "",
          "type": "address"
        }
      ],
      "stateMutability": "view",
      "type": "function"
    },
    {
      "inputs": [
        {
          "internalType": "contract IERC20Upgradeable",
          "name": "",
          "type": "address"
        },
        {
          "internalType": "contract IERC20Upgradeable",
          "name": "",
          "type": "address"
        }
      ],
      "name": "redemptionStrategiesByTokens",
      "outputs": [
        {
          "internalType": "contract IRedemptionStrategy",
          "name": "",
          "type": "address"
        }
      ],
      "stateMutability": "view",
      "type": "function"
    },
    {
      "inputs": [],
      "name": "renounceOwnership",
      "outputs": [],
      "stateMutability": "nonpayable",
      "type": "function"
    },
    {
      "inputs": [
        {
          "internalType": "contract IERC20Upgradeable",
          "name": "inputToken",
          "type": "address"
        },
        {
          "internalType": "uint256",
          "name": "inputAmount",
          "type": "uint256"
        },
        {
          "internalType": "contract IERC20Upgradeable",
          "name": "outputToken",
          "type": "address"
        }
      ],
      "name": "swap",
      "outputs": [
        {
          "internalType": "uint256",
          "name": "outputAmount",
          "type": "uint256"
        }
      ],
      "stateMutability": "nonpayable",
      "type": "function"
    },
    {
      "inputs": [
        {
          "internalType": "address",
          "name": "newOwner",
          "type": "address"
        }
      ],
      "name": "transferOwnership",
      "outputs": [],
      "stateMutability": "nonpayable",
      "type": "function"
    }
  ],
  "transactionHash": "0xec8ab00146b9f399803e13256c1f5a18fdb82379a80e11b63c64fb449e076327",
  "args": [],
  "numDeployments": 4,
  "bytecode": {
    "object": "0x60806040523480156200001157600080fd5b506200001d3362000023565b6200009d565b600180546001600160a01b03191690556200004a816200004d602090811b62001b7317901c565b50565b600080546001600160a01b038381166001600160a01b0319831681178455604051919092169283917f8be0079c531659141344cd1fd0a4f28419497f9722a3daafe3b4186f6b6457e09190a35050565b614e4080620000ad6000396000f3fe608060405234801561001057600080fd5b50600436106101375760003560e01c80638db87c27116100b8578063d7341acf1161007c578063d7341acf146102b7578063dee7fe48146102ca578063e30c3978146102fe578063ed287f3f1461030f578063f2fde38b14610330578063f560cebd1461034357600080fd5b80638db87c271461021e578063a1bb91e314610247578063a6fdd2bb1461025a578063a700f9e414610262578063b6b928fd1461029657600080fd5b80636d069a67116100ff5780636d069a67146101c7578063715018a6146101e857806379ba5097146101f057806389f8132e146101f85780638da5cb5b1461020d57600080fd5b80632434cb7f1461013c578063366eda2e146101515780633c4f743c14610164578063403de57f14610194578063514b49d9146101b4575b600080fd5b61014f61014a366004614318565b61036b565b005b61014f61015f366004614395565b6103a1565b600254610177906001600160a01b031681565b6040516001600160a01b0390911681526020015b60405180910390f35b6101a76101a236600461442e565b610494565b60405161018b919061448f565b61014f6101c236600461442e565b6104be565b6101da6101d53660046144a2565b610777565b60405190815260200161018b565b61014f6107b5565b61014f610805565b61020061087f565b60405161018b91906144e4565b6000546001600160a01b0316610177565b61017761022c36600461442e565b6007602052600090815260409020546001600160a01b031681565b61014f610255366004614395565b610bc5565b6101a7610f65565b610177610270366004614318565b60066020908152600092835260408084209091529082529020546001600160a01b031681565b6102a96102a4366004614318565b610f76565b60405161018b92919061458a565b61014f6102c53660046145ae565b6113d0565b6101776102d8366004614683565b80516020818301810180516005825292820191909301209152546001600160a01b031681565b6001546001600160a01b0316610177565b61032261031d366004614318565b61157a565b60405161018b929190614702565b61014f61033e36600461442e565b6118f1565b6103566103513660046144a2565b611962565b6040805192835260208301919091520161018b565b610373611bc3565b6001600160a01b03918216600090815260076020526040902080546001600160a01b03191691909216179055565b6103a9611bc3565b84831480156103b757508281145b6103f65760405162461bcd60e51b815260206004820152600b60248201526a10b0b93930bcb9903632b760a91b60448201526064015b60405180910390fd5b60005b8581101561048b57610479878783818110610416576104166147a3565b905060200201602081019061042b919061442e565b86868481811061043d5761043d6147a3565b9050602002016020810190610452919061442e565b858585818110610464576104646147a3565b90506020020160208101906102c5919061442e565b80610483816147cf565b9150506103f9565b50505050505050565b6001600160a01b03811660009081526008602052604090206060906104b890611c1f565b92915050565b6104c6611bc3565b60006104d26009611c1f565b905060005b81518110156106c05760008282815181106104f4576104f46147a3565b60200260200101519050600061052d60086000846001600160a01b03166001600160a01b03168152602001908152602001600020611c1f565b905060005b815181101561067857600082858151811061054f5761054f6147a3565b6020908102919091018101516001600160a01b038082166000908152600684526040808220898416835290945292909220549092508116908816811415610663576001600160a01b03808316600090815260066020908152604080832093891683529290522080546001600160a01b03191690558351610616908590889081106105db576105db6147a3565b602002602001015160086000886001600160a01b03166001600160a01b03168152602001908152602001600020611c2c90919063ffffffff16565b506001600160a01b0382811660009081526007602052604090205481169086161415610663576001600160a01b038216600090815260076020526040902080546001600160a01b03191690555b50508080610670906147cf565b915050610532565b506001600160a01b038216600090815260086020526040902061069a90611c41565b6106ab576106a9600983611c2c565b505b505080806106b8906147cf565b9150506104d7565b5060006005836001600160a01b03166306fdde036040518163ffffffff1660e01b8152600401600060405180830381865afa158015610703573d6000803e3d6000fd5b505050506040513d6000823e601f3d908101601f1916820160405261072b91908101906147ea565b6040516107389190614857565b90815260405190819003602001902080546001600160a01b03929092166001600160a01b0319909216919091179055610772600383611c2c565b505050565b600061078e6001600160a01b038516333086611c4b565b6107988483611cbc565b90506107ae6001600160a01b0383163383611e7e565b9392505050565b6107bd611bc3565b60405162461bcd60e51b815260206004820152601e60248201527f72656e6f756e6365206f776e657273686970206e6f7420616c6c6f776564000060448201526064016103ed565b60015433906001600160a01b031681146108735760405162461bcd60e51b815260206004820152602960248201527f4f776e61626c6532537465703a2063616c6c6572206973206e6f7420746865206044820152683732bb9037bbb732b960b91b60648201526084016103ed565b61087c81611eae565b50565b60408051600b80825261018082019092526060919060009082602082016101608036833701905050905063ed287f3f60e01b816108bb84614873565b93508360ff16815181106108d1576108d16147a3565b6001600160e01b03199092166020928302919091019091015263b6b928fd60e01b816108fc84614873565b93508360ff1681518110610912576109126147a3565b6001600160e01b031990921660209283029190910190910152632434cb7f60e01b8161093d84614873565b93508360ff1681518110610953576109536147a3565b6001600160e01b03199092166020928302919091019091015263d7341acf60e01b8161097e84614873565b93508360ff1681518110610994576109946147a3565b6001600160e01b031990921660209283029190910190910152631b376d1760e11b816109bf84614873565b93508360ff16815181106109d5576109d56147a3565b6001600160e01b03199092166020928302919091019091015263514b49d960e01b81610a0084614873565b93508360ff1681518110610a1657610a166147a3565b6001600160e01b03199092166020928302919091019091015263403de57f60e01b81610a4184614873565b93508360ff1681518110610a5757610a576147a3565b6001600160e01b031990921660209283029190910190910152636d069a6760e01b81610a8284614873565b93508360ff1681518110610a9857610a986147a3565b6001600160e01b03199092166020928302919091019091015263a6fdd2bb60e01b81610ac384614873565b93508360ff1681518110610ad957610ad96147a3565b6001600160e01b03199092166020928302919091019091015263a1bb91e360e01b81610b0484614873565b93508360ff1681518110610b1a57610b1a6147a3565b6001600160e01b03199092166020928302919091019091015263f560cebd60e01b81610b4584614873565b93508360ff1681518110610b5b57610b5b6147a3565b6001600160e01b03199092166020928302919091019091015260ff8216156104b85760405162461bcd60e51b815260206004820152601c60248201527f7573652074686520636f7272656374206172726179206c656e6774680000000060448201526064016103ed565b610bcd611bc3565b8483148015610bdb57508281145b610c155760405162461bcd60e51b815260206004820152600b60248201526a10b0b93930bcb9903632b760a91b60448201526064016103ed565b6000610c216009611c1f565b905060005b8151811015610daf576000828281518110610c4357610c436147a3565b602002602001015190506000610c7c60086000846001600160a01b03166001600160a01b03168152602001908152602001600020611c1f565b905060005b8151811015610d6b576000828281518110610c9e57610c9e6147a3565b6020908102919091018101516001600160a01b03808216600090815260068452604080822092891682529190935290912080546001600160a01b03191690558351909150610d3390849084908110610cf857610cf86147a3565b602002602001015160086000876001600160a01b03166001600160a01b03168152602001908152602001600020611c2c90919063ffffffff16565b506001600160a01b0316600090815260076020526040902080546001600160a01b031916905580610d63816147cf565b915050610c81565b50610d99848481518110610d8157610d816147a3565b60200260200101516009611c2c90919063ffffffff16565b5050508080610da7906147cf565b915050610c26565b506000610dbc6003611c1f565b905060005b8151811015610ed9576000828281518110610dde57610dde6147a3565b602002602001015190506000816001600160a01b03166306fdde036040518163ffffffff1660e01b8152600401600060405180830381865afa158015610e28573d6000803e3d6000fd5b505050506040513d6000823e601f3d908101601f19168201604052610e5091908101906147ea565b90506000600582604051610e649190614857565b908152602001604051809103902060006101000a8154816001600160a01b0302191690836001600160a01b03160217905550610ec3848481518110610eab57610eab6147a3565b60200260200101516003611c2c90919063ffffffff16565b5050508080610ed1906147cf565b915050610dc1565b5060005b87811015610f5a57610f48898983818110610efa57610efa6147a3565b9050602002016020810190610f0f919061442e565b888884818110610f2157610f216147a3565b9050602002016020810190610f36919061442e565b878785818110610464576104646147a3565b80610f52816147cf565b915050610edd565b505050505050505050565b6060610f716003611c1f565b905090565b6001600160a01b0380831660009081526006602090815260408083208585168452825291829020548251808401909352601583527429b7b634b2363ca9bbb0b82634b8bab4b230ba37b960591b9183019190915290911690606090610fdc908390611ec7565b15610ff257610feb8484611f12565b90506113c9565b611031826040518060400160405280601881526020017f536f6c69646c794c70546f6b656e4c697175696461746f720000000000000000815250611ec7565b1561104057610feb8484612404565b61107f826040518060400160405280601981526020017f556e697377617056324c697175696461746f7246756e64657200000000000000815250611ec7565b1561108e57610feb8484612630565b6110c5826040518060400160405280601581526020017420b633b2b13930a9bbb0b82634b8bab4b230ba37b960591b815250611ec7565b806111035750611103826040518060400160405280601681526020017523b0b6b6b0a6382a37b5b2b72634b8bab4b230ba37b960511b815250611ec7565b1561111257610feb84846126d8565b61114a82604051806040016040528060168152602001752130b630b731b2b929bbb0b82634b8bab4b230ba37b960511b815250611ec7565b8061118f575061118f826040518060400160405280601981526020017f42616c616e6365724c70546f6b656e4c697175696461746f7200000000000000815250611ec7565b1561119e57610feb84846127a4565b6111dd826040518060400160405280601881526020017f556e69737761704c70546f6b656e4c697175696461746f720000000000000000815250611ec7565b806112195750611219826040518060400160405280601481526020017323b2b630ba37a3aab734a634b8bab4b230ba37b960611b815250611ec7565b1561122857610feb84846127c0565b611267826040518060400160405280601781526020017f536164646c654c70546f6b656e4c697175696461746f72000000000000000000815250611ec7565b1561127657610feb8484612a86565b6112b5826040518060400160405280602081526020017f43757276654c70546f6b656e4c697175696461746f724e6f5265676973747279815250611ec7565b156112c457610feb8484612c7e565b6112f9826040518060400160405280601381526020017221bab93b32a9bbb0b82634b8bab4b230ba37b960691b815250611ec7565b1561130857610feb8484612e76565b61134082604051806040016040528060168152602001752530b93b34b9a634b8bab4b230ba37b9233ab73232b960511b815250611ec7565b1561134f57610feb848461305a565b61138682604051806040016040528060158152602001742c2137b6b12634b8bab4b230ba37b9233ab73232b960591b815250611ec7565b1561139557610feb84846131f2565b6113b782604051806060016040528060218152602001614e1360219139611ec7565b156113c9576113c684846133db565b90505b9250929050565b6113d8611bc3565b6000836001600160a01b03166306fdde036040518163ffffffff1660e01b8152600401600060405180830381865afa158015611418573d6000803e3d6000fd5b505050506040513d6000823e601f3d908101601f1916820160405261144091908101906147ea565b905060006005826040516114549190614857565b9081526040805160209281900383018120546001600160a01b0388811660009081526006865284812089831682529095529290932080546001600160a01b0319168984161790559116915085906005906114af908590614857565b90815260405190819003602001902080546001600160a01b03929092166001600160a01b03199092169190911790556114e9600382611c2c565b506114f560038661375b565b506001600160a01b0384811660009081526007602052604090205416611544576001600160a01b03848116600090815260076020526040902080546001600160a01b0319169185169190911790555b6001600160a01b0383166000908152600860205260409020611566908561375b565b5061157260098461375b565b505050505050565b60408051600a80825261016082019092526060918291859185916000916020820161014080368337505060408051600a80825261016082019092529293506000929150602082015b60608152602001906001900390816115c257505060408051600a808252610160820190925291925060009190602082016101408036833701905050905060005b846001600160a01b0316866001600160a01b0316146117a1576001600160a01b03808716600090815260066020908152604080832089851684529091528120549091168015611653578691506116c8565b6001600160a01b0380891660009081526007602052604081205490911692505b84518110156116c65784818151811061168e5761168e6147a3565b60200260200101516001600160a01b0316836001600160a01b031614156116b4576116c6565b806116be816147cf565b915050611673565b505b6000806116d58a85610f76565b90925090506001600160a01b0382166116f157505050506117a1565b81888681518110611704576117046147a3565b60200260200101906001600160a01b031690816001600160a01b03168152505080878681518110611737576117376147a3565b602002602001018190525083868681518110611755576117556147a3565b60200260200101906001600160a01b031690816001600160a01b0316815250508399508480611783906147cf565b95505084600a141561179857505050506117a1565b50505050611602565b806001600160401b038111156117b9576117b96145ee565b6040519080825280602002602001820160405280156117e2578160200160208202803683370190505b509750806001600160401b038111156117fd576117fd6145ee565b60405190808252806020026020018201604052801561183057816020015b606081526020019060019003908161181b5790505b50965060005b818160ff1610156118e357848160ff1681518110611856576118566147a3565b6020026020010151898260ff1681518110611873576118736147a3565b60200260200101906001600160a01b031690816001600160a01b031681525050838160ff16815181106118a8576118a86147a3565b6020026020010151888260ff16815181106118c5576118c56147a3565b602002602001018190525080806118db90614890565b915050611836565b505050505050509250929050565b6118f9611bc3565b600180546001600160a01b0383166001600160a01b0319909116811790915561192a6000546001600160a01b031690565b6001600160a01b03167f38d16b8cac22d99fc7c124b9cd0de2d3fa1faef420bfe791d8c362d765e2270060405160405180910390a350565b6000808361197557506000905080611b6b565b611980858585610777565b91508161199257506000905080611b6b565b60025460405163bf40fac160e01b81526020600482015260116024820152704d617374657250726963654f7261636c6560781b60448201526000916001600160a01b03169063bf40fac190606401602060405180830381865afa1580156119fd573d6000803e3d6000fd5b505050506040513d601f19601f82011682018060405250810190611a2191906148b0565b6040516315d5220f60e31b81526001600160a01b03888116600483015291925060009183169063aea9107890602401602060405180830381865afa158015611a6d573d6000803e3d6000fd5b505050506040513d601f19601f82011682018060405250810190611a9191906148cd565b6040516315d5220f60e31b81526001600160a01b03878116600483015291925060009184169063aea9107890602401602060405180830381865afa158015611add573d6000803e3d6000fd5b505050506040513d601f19601f82011682018060405250810190611b0191906148cd565b90506000611b0f838a613770565b611b1990896148e6565b90506000611b278389613770565b611b3190886148e6565b905081811015611b655781611b468282614905565b611b5890670de0b6b3a76400006148e6565b611b62919061491c565b95505b50505050505b935093915050565b600080546001600160a01b038381166001600160a01b0319831681178455604051919092169283917f8be0079c531659141344cd1fd0a4f28419497f9722a3daafe3b4186f6b6457e09190a35050565b6000546001600160a01b03163314611c1d5760405162461bcd60e51b815260206004820181905260248201527f4f776e61626c653a2063616c6c6572206973206e6f7420746865206f776e657260448201526064016103ed565b565b606060006107ae83613830565b60006107ae836001600160a01b03841661388c565b60006104b8825490565b6040516001600160a01b0380851660248301528316604482015260648101829052611cb69085906323b872dd60e01b906084015b60408051601f198184030181529190526020810180516001600160e01b03166001600160e01b03199093169290921790915261397f565b50505050565b6040516370a0823160e01b815230600482015260009081906001600160a01b038516906370a0823190602401602060405180830381865afa158015611d05573d6000803e3d6000fd5b505050506040513d601f19601f82011682018060405250810190611d2991906148cd565b9050600080611d38868661157a565b91509150815160001415611d5f57604051631aa27a4d60e21b815260040160405180910390fd5b858360005b8451811015611dd7576000858281518110611d8157611d816147a3565b602002602001015190506000858381518110611d9f57611d9f6147a3565b60200260200101519050600080611db887878686613a51565b9097509550849350611dcf92508391506147cf9050565b915050611d64565b50866001600160a01b0316826001600160a01b031614611e0a5760405163fdbb00c560e01b815260040160405180910390fd5b6040516370a0823160e01b81523060048201526001600160a01b038816906370a0823190602401602060405180830381865afa158015611e4e573d6000803e3d6000fd5b505050506040513d601f19601f82011682018060405250810190611e7291906148cd565b98975050505050505050565b6040516001600160a01b03831660248201526044810182905261077290849063a9059cbb60e01b90606401611c7f565b600180546001600160a01b031916905561087c81611b73565b60006001600160a01b038316158015906107ae5750600582604051611eec9190614857565b908152604051908190036020019020546001600160a01b03848116911614905092915050565b60025460405163bf40fac160e01b815260206004820152601360248201527229a7a624a2262cafa9aba0a82fa927aaaa22a960691b60448201526060916000916001600160a01b039091169063bf40fac190606401602060405180830381865afa158015611f84573d6000803e3d6000fd5b505050506040513d601f19601f82011682018060405250810190611fa891906148b0565b60405163260f701f60e11b815290915083906000906001600160a01b03841690634c1ee03e90611fe09089908690869060040161493e565b602060405180830381865afa158015611ffd573d6000803e3d6000fd5b505050506040513d601f19601f8201168201806040525081019061202191906148b0565b90506000836001600160a01b0316634c1ee03e888560016040518463ffffffff1660e01b81526004016120569392919061493e565b602060405180830381865afa158015612073573d6000803e3d6000fd5b505050506040513d601f19601f8201168201806040525081019061209791906148b0565b60405163e5e31b1360e01b81526001600160a01b0380831660048301529192509085169063e5e31b1390602401602060405180830381865afa1580156120e1573d6000803e3d6000fd5b505050506040513d601f19601f820116820180604052508101906121059190614962565b80612175575060405163e5e31b1360e01b81526001600160a01b03838116600483015285169063e5e31b1390602401602060405180830381865afa158015612151573d6000803e3d6000fd5b505050506040513d601f19601f820116820180604052508101906121759190614962565b6121cd5760405162461bcd60e51b8152602060048201526024808201527f496e76616c696420536f6c69646c794c697175696461746f722073776170207060448201526330ba341760e11b60648201526084016103ed565b60405163e5e31b1360e01b81526001600160a01b0382811660048301526000919086169063e5e31b1390602401602060405180830381865afa158015612217573d6000803e3d6000fd5b505050506040513d601f19601f8201168201806040525081019061223b9190614962565b612247575060006123d3565b60405163e5e31b1360e01b81526001600160a01b03848116600483015286169063e5e31b1390602401602060405180830381865afa15801561228d573d6000803e3d6000fd5b505050506040513d601f19601f820116820180604052508101906122b19190614962565b6122bd575060016123d3565b600080866001600160a01b0316635e60dab58b8860016040518463ffffffff1660e01b81526004016122f19392919061493e565b6040805180830381865afa15801561230d573d6000803e3d6000fd5b505050506040513d601f19601f820116820180604052508101906123319190614984565b91509150600080886001600160a01b0316635e60dab58d8a60006040518463ffffffff1660e01b81526004016123699392919061493e565b6040805180830381865afa158015612385573d6000803e3d6000fd5b505050506040513d601f19601f820116820180604052508101906123a99190614984565b9150915081841180156123bb57508083115b156123c957600194506123ce565b600094505b505050505b8487826040516020016123e89392919061493e565b6040516020818303038152906040529550505050505092915050565b60606000839050806001600160a01b0316630dfe16816040518163ffffffff1660e01b8152600401602060405180830381865afa158015612449573d6000803e3d6000fd5b505050506040513d601f19601f8201168201806040525081019061246d91906148b0565b6001600160a01b0316836001600160a01b031614806124fe5750806001600160a01b031663d21220a76040518163ffffffff1660e01b8152600401602060405180830381865afa1580156124c5573d6000803e3d6000fd5b505050506040513d601f19601f820116820180604052508101906124e991906148b0565b6001600160a01b0316836001600160a01b0316145b6125695760405162461bcd60e51b815260206004820152603660248201527f4f757470757420746f6b656e20646f6573206e6f74206d6174636820656974686044820152756572206f6620746865207061697220746f6b656e732160501b60648201526084016103ed565b60025460405163bf40fac160e01b815260206004820152601360248201527229a7a624a2262cafa9aba0a82fa927aaaa22a960691b60448201526001600160a01b039091169063bf40fac190606401602060405180830381865afa1580156125d5573d6000803e3d6000fd5b505050506040513d601f19601f820116820180604052508101906125f991906148b0565b604080516001600160a01b039283166020820152918516908201526060015b60405160208183030381529060405291505092915050565b604080516002808252606080830184529260009291906020830190803683370190505090508381600081518110612669576126696147a3565b60200260200101906001600160a01b031690816001600160a01b031681525050828160018151811061269d5761269d6147a3565b60200260200101906001600160a01b031690816001600160a01b0316815250506126c684613ad2565b816040516020016126189291906149a8565b60025460405163bf40fac160e01b815260206004820152601360248201527220a623a2a12920afa9aba0a82fa927aaaa22a960691b604482015260609183916001600160a01b039091169063bf40fac190606401602060405180830381865afa158015612749573d6000803e3d6000fd5b505050506040513d601f19601f8201168201806040525081019061276d91906148b0565b604080516001600160a01b03938416602082015292909116908201526060015b604051602081830303815290604052905092915050565b604080516001600160a01b03831660208201526060910161278d565b606060008390506000816001600160a01b0316630dfe16816040518163ffffffff1660e01b8152600401602060405180830381865afa158015612807573d6000803e3d6000fd5b505050506040513d601f19601f8201168201806040525081019061282b91906148b0565b90506000826001600160a01b031663d21220a76040518163ffffffff1660e01b8152600401602060405180830381865afa15801561286d573d6000803e3d6000fd5b505050506040513d601f19601f8201168201806040525081019061289191906148b0565b90506001600160a01b0385811681841681149183161481806128b05750805b61291a5760405162461bcd60e51b815260206004820152603560248201527f4f757470757420746f6b656e20646f6573206e6f74206d6174636820656974686044820152746572206f6620746865207061697220746f6b656e7360581b60648201526084016103ed565b60608083156129ba576040805160008152600260208201818152608083018452919450909184810190803683370190505090508481600081518110612961576129616147a3565b60200260200101906001600160a01b031690816001600160a01b0316815250508581600181518110612995576129956147a3565b60200260200101906001600160a01b031690816001600160a01b031681525050612a4b565b5060408051600081526002602082018181526080830184529192838101908036833701905050915085826000815181106129f6576129f66147a3565b60200260200101906001600160a01b031690816001600160a01b0316815250508482600181518110612a2a57612a2a6147a3565b60200260200101906001600160a01b031690816001600160a01b0316815250505b612a548a613ad2565b8282604051602001612a6893929190614a04565b60405160208183030381529060405297505050505050505092915050565b60025460405163bf40fac160e01b8152602060048201526013602482015272536164646c654c7050726963654f7261636c6560681b60448201526060916000916001600160a01b039091169063bf40fac190606401602060405180830381865afa158015612af8573d6000803e3d6000fd5b505050506040513d601f19601f82011682018060405250810190612b1c91906148b0565b60405163195b70b960e21b81526001600160a01b03868116600483015291925060009183169063656dc2e490602401600060405180830381865afa158015612b68573d6000803e3d6000fd5b505050506040513d6000823e601f3d908101601f19168201604052612b909190810190614a67565b60025460405163bf40fac160e01b81529192506000916001600160a01b039091169063bf40fac190612bc490600401614af5565b602060405180830381865afa158015612be1573d6000803e3d6000fd5b505050506040513d601f19601f82011682018060405250810190612c0591906148b0565b90506000612c138387613b62565b9050806001600160a01b0381161580612c48575073eeeeeeeeeeeeeeeeeeeeeeeeeeeeeeeeeeeeeeee6001600160a01b038316145b15612c505750815b604080516001600160a01b0380851660208301528088169282019290925290841660608201526080016123e8565b60025460405163bf40fac160e01b81526060916000916001600160a01b039091169063bf40fac190612cb290600401614b15565b602060405180830381865afa158015612ccf573d6000803e3d6000fd5b505050506040513d601f19601f82011682018060405250810190612cf391906148b0565b60405163988b1fa760e01b81526001600160a01b03868116600483015291925060009183169063988b1fa790602401602060405180830381865afa158015612d3f573d6000803e3d6000fd5b505050506040513d601f19601f82011682018060405250810190612d6391906148b0565b90506000612d7082613e7d565b90506000612d7e8287613b62565b60025460405163bf40fac160e01b815291925082916000916001600160a01b03169063bf40fac190612db290600401614af5565b602060405180830381865afa158015612dcf573d6000803e3d6000fd5b505050506040513d601f19601f82011682018060405250810190612df391906148b0565b90506001600160a01b0383161580612e27575073eeeeeeeeeeeeeeeeeeeeeeeeeeeeeeeeeeeeeeee6001600160a01b038416145b15612e30578091505b604080516001600160a01b038086166020830152808416928201929092529087166060820152608001604051602081830303815290604052965050505050505092915050565b60025460405163bf40fac160e01b81526060916000916001600160a01b039091169063bf40fac190612eaa90600401614b15565b602060405180830381865afa158015612ec7573d6000803e3d6000fd5b505050506040513d601f19601f82011682018060405250810190612eeb91906148b0565b60025460405163bf40fac160e01b815260206004820152602360248201527f437572766556324c70546f6b656e50726963654f7261636c654e6f526567697360448201526274727960e81b60648201529192506000916001600160a01b039091169063bf40fac190608401602060405180830381865afa158015612f73573d6000803e3d6000fd5b505050506040513d601f19601f82011682018060405250810190612f9791906148b0565b60025460405163bf40fac160e01b81529192506000916001600160a01b039091169063bf40fac190612fcb90600401614af5565b602060405180830381865afa158015612fe8573d6000803e3d6000fd5b505050506040513d601f19601f8201168201806040525081019061300c91906148b0565b604080516001600160a01b039586166020820152938516848201529684166060840152948316608083015250921660a0808401919091528351808403909101815260c0909201909252919050565b60606000600260009054906101000a90046001600160a01b03166001600160a01b03166377d792196040518163ffffffff1660e01b8152600401600060405180830381865afa1580156130b1573d6000803e3d6000fd5b505050506040513d6000823e601f3d908101601f191682016040526130d99190810190614b56565b905060005b81518110156131ea5760008282815181106130fb576130fb6147a3565b60200260200101519050856001600160a01b031681600001516001600160a01b0316141561316757805160408083015160609384015182516001600160a01b039485166020820152939091168383015282840152805180830390930183526080909101905292506131ea565b856001600160a01b031681602001516001600160a01b031614156131d7578060200151816040015182606001516040516020016131c5939291906001600160a01b039384168152919092166020820152604081019190915260600190565b60405160208183030381529060405293505b50806131e2816147cf565b9150506130de565b505092915050565b606046606114156133795773e45589fbad3a1fb90f5b2a8a3e8958a8bab5f768734f1885d25ef219d3d4fa064809d6d4985fab9a0b738870f7102f1dcb1c35b01af10f1baf1b00ad680573161fbe0943af4a39a50262026a81a243b635982d73d816eb4660615bbf080ddf425f28ea4af30d04d56001600160a01b0388168514156132e5576000846001600160a01b0316886001600160a01b0316141561329a5750816132b7565b836001600160a01b0316886001600160a01b031614156132b75750805b8081898a6040516020016132ce9493929190614c2f565b60405160208183030381529060405296505061336f565b836001600160a01b0316886001600160a01b0316141561332c57878289876040516020016133169493929190614c2f565b604051602081830303815290604052955061336f565b826001600160a01b0316886001600160a01b0316141561336f578781898760405160200161335d9493929190614c2f565b60405160208183030381529060405295505b50505050506104b8565b5050604080516001600160a01b0392909216602083015273af16cb45b8149da403af41c63abfebfbcd16264b8282015273522348779dcb2911539e76a1042aa922f9c47ee3606080840191909152815180840390910181526080909201905290565b60025460405163959fc09760e01b81526001600160a01b038481166004830152838116602483015260609260009291169063959fc09790604401602060405180830381865afa158015613432573d6000803e3d6000fd5b505050506040513d601f19601f8201168201806040525081019061345691906148b0565b90506001600160a01b0381166137365760025460405163bf40fac160e01b81526000916001600160a01b03169063bf40fac19061349590600401614af5565b602060405180830381865afa1580156134b2573d6000803e3d6000fd5b505050506040513d601f19601f820116820180604052508101906134d691906148b0565b9050733a58a54c066fdc0f2d55fc9c89f0415c92ebf3c473fa68fb4628dff1028cfec22b4162fccd0d45efb673513cdee00251f39de280d9e5f771a6eafebcc88e73e2aa7db6da1dae97c5f5c6914d285fbfcc32a12873e78b25c06db117fdf8f98583cdaaa6c92b79e9176001600160a01b038a811690871614801561356d5750846001600160a01b0316896001600160a01b0316145b806135a55750846001600160a01b03168a6001600160a01b03161480156135a55750856001600160a01b0316896001600160a01b0316145b156135c257738159462d255c1d24915cb51ec361f700174cd99496505b856001600160a01b03168a6001600160a01b03161480156135f45750836001600160a01b0316896001600160a01b0316145b8061362c5750836001600160a01b03168a6001600160a01b031614801561362c5750856001600160a01b0316896001600160a01b0316145b156136495773b20fc01d21a50d2c734c4a1262b4404d41fa7bf096505b816001600160a01b03168a6001600160a01b031614801561367b5750826001600160a01b0316896001600160a01b0316145b806136b35750826001600160a01b03168a6001600160a01b03161480156136b35750816001600160a01b0316896001600160a01b0316145b156136bc578296505b806001600160a01b03168a6001600160a01b03161480156136ee5750836001600160a01b0316896001600160a01b0316145b806137265750836001600160a01b03168a6001600160a01b03161480156137265750806001600160a01b0316896001600160a01b0316145b1561372f578096505b5050505050505b604080516001600160a01b038084166020830152851691810191909152606001612618565b60006107ae836001600160a01b038416614002565b600080826001600160a01b031663313ce5676040518163ffffffff1660e01b8152600401602060405180830381865afa1580156137b1573d6000803e3d6000fd5b505050506040513d601f19601f820116820180604052508101906137d59190614c5a565b60ff1690506012811115613808576137ee601282614905565b6137f990600a614d61565b613803908561491c565b613828565b613813816012614905565b61381e90600a614d61565b61382890856148e6565b949350505050565b60608160000180548060200260200160405190810160405280929190818152602001828054801561388057602002820191906000526020600020905b81548152602001906001019080831161386c575b50505050509050919050565b600081815260018301602052604081205480156139755760006138b0600183614905565b85549091506000906138c490600190614905565b90508181146139295760008660000182815481106138e4576138e46147a3565b9060005260206000200154905080876000018481548110613907576139076147a3565b6000918252602080832090910192909255918252600188019052604090208390555b855486908061393a5761393a614d6d565b6001900381819060005260206000200160009055905585600101600086815260200190815260200160002060009055600193505050506104b8565b60009150506104b8565b60006139d4826040518060400160405280602081526020017f5361666545524332303a206c6f772d6c6576656c2063616c6c206661696c6564815250856001600160a01b03166140519092919063ffffffff16565b80519091501561077257808060200190518101906139f29190614962565b6107725760405162461bcd60e51b815260206004820152602a60248201527f5361666545524332303a204552433230206f7065726174696f6e20646964206e6044820152691bdd081cdd58d8d9595960b21b60648201526084016103ed565b6000806000613aae856310badf4e60e01b898988604051602401613a7793929190614d83565b60408051601f198184030181529190526020810180516001600160e01b03166001600160e01b031990931692909217909152614060565b905080806020019051810190613ac49190614daa565b925092505094509492505050565b60025460405163bf40fac160e01b815260206004820152601260248201527124aab734b9bbb0b82b192937baba32b9181960711b60448201526000916001600160a01b03169063bf40fac190606401602060405180830381865afa158015613b3e573d6000803e3d6000fd5b505050506040513d601f19601f820116820180604052508101906104b891906148b0565b6000805b8351811015613bbd57826001600160a01b0316848281518110613b8b57613b8b6147a3565b60200260200101516001600160a01b03161415613bab57829150506104b8565b80613bb5816147cf565b915050613b66565b5060025460405163bf40fac160e01b81526000916001600160a01b03169063bf40fac190613bed90600401614af5565b602060405180830381865afa158015613c0a573d6000803e3d6000fd5b505050506040513d601f19601f82011682018060405250810190613c2e91906148b0565b905060005b8451811015613c8957816001600160a01b0316858281518110613c5857613c586147a3565b60200260200101516001600160a01b03161415613c77575090506104b8565b80613c81816147cf565b915050613c33565b5060025460405163bf40fac160e01b815260206004820152600b60248201526a39ba30b13632aa37b5b2b760a91b60448201526000916001600160a01b03169063bf40fac190606401602060405180830381865afa158015613cef573d6000803e3d6000fd5b505050506040513d601f19601f82011682018060405250810190613d1391906148b0565b905060005b8551811015613d7057816001600160a01b0316868281518110613d3d57613d3d6147a3565b60200260200101516001600160a01b03161415613d5e575091506104b89050565b80613d68816147cf565b915050613d18565b5060025460405163bf40fac160e01b81526020600482015260096024820152683ba12a21aa37b5b2b760b91b60448201526000916001600160a01b03169063bf40fac190606401602060405180830381865afa158015613dd4573d6000803e3d6000fd5b505050506040513d601f19601f82011682018060405250810190613df891906148b0565b905060005b8651811015613e5657816001600160a01b0316878281518110613e2257613e226147a3565b60200260200101516001600160a01b03161415613e44575092506104b8915050565b80613e4e816147cf565b915050613dfd565b5085600081518110613e6a57613e6a6147a3565b6020026020010151935050505092915050565b606060005b60405163c661065760e01b815260ff821660048201526001600160a01b0384169063c661065790602401602060405180830381865afa925050508015613ee5575060408051601f3d908101601f19168201909252613ee2918101906148b0565b60015b613eee57613f01565b5080613ef981614890565b915050613e82565b8060ff166001600160401b03811115613f1c57613f1c6145ee565b604051908082528060200260200182016040528015613f45578160200160208202803683370190505b50915060005b8160ff16811015613ffb5760405163c661065760e01b8152600481018290526001600160a01b0385169063c661065790602401602060405180830381865afa158015613f9b573d6000803e3d6000fd5b505050506040513d601f19601f82011682018060405250810190613fbf91906148b0565b838281518110613fd157613fd16147a3565b6001600160a01b039092166020928302919091019091015280613ff3816147cf565b915050613f4b565b5050919050565b6000818152600183016020526040812054614049575081546001818101845560008481526020808220909301849055845484825282860190935260409020919091556104b8565b5060006104b8565b60606138288484600085614154565b60606001600160a01b0383163b6140c85760405162461bcd60e51b815260206004820152602660248201527f416464726573733a2064656c65676174652063616c6c20746f206e6f6e2d636f6044820152651b9d1c9858dd60d21b60648201526084016103ed565b600080846001600160a01b0316846040516140e39190614857565b600060405180830381855af49150503d806000811461411e576040519150601f19603f3d011682016040523d82523d6000602084013e614123565b606091505b509150915061414b8282604051806060016040528060278152602001614dec6027913961422f565b95945050505050565b6060824710156141b55760405162461bcd60e51b815260206004820152602660248201527f416464726573733a20696e73756666696369656e742062616c616e636520666f6044820152651c8818d85b1b60d21b60648201526084016103ed565b600080866001600160a01b031685876040516141d19190614857565b60006040518083038185875af1925050503d806000811461420e576040519150601f19603f3d011682016040523d82523d6000602084013e614213565b606091505b509150915061422487838387614268565b979650505050505050565b6060831561423e5750816107ae565b82511561424e5782518084602001fd5b8160405162461bcd60e51b81526004016103ed9190614dd8565b606083156142d45782516142cd576001600160a01b0385163b6142cd5760405162461bcd60e51b815260206004820152601d60248201527f416464726573733a2063616c6c20746f206e6f6e2d636f6e747261637400000060448201526064016103ed565b5081613828565b61382883838151156142e95781518083602001fd5b8060405162461bcd60e51b81526004016103ed9190614dd8565b6001600160a01b038116811461087c57600080fd5b6000806040838503121561432b57600080fd5b823561433681614303565b9150602083013561434681614303565b809150509250929050565b60008083601f84011261436357600080fd5b5081356001600160401b0381111561437a57600080fd5b6020830191508360208260051b85010111156113c957600080fd5b600080600080600080606087890312156143ae57600080fd5b86356001600160401b03808211156143c557600080fd5b6143d18a838b01614351565b909850965060208901359150808211156143ea57600080fd5b6143f68a838b01614351565b9096509450604089013591508082111561440f57600080fd5b5061441c89828a01614351565b979a9699509497509295939492505050565b60006020828403121561444057600080fd5b81356107ae81614303565b600081518084526020808501945080840160005b838110156144845781516001600160a01b03168752958201959082019060010161445f565b509495945050505050565b6020815260006107ae602083018461444b565b6000806000606084860312156144b757600080fd5b83356144c281614303565b92506020840135915060408401356144d981614303565b809150509250925092565b6020808252825182820181905260009190848201906040850190845b818110156145265783516001600160e01b03191683529284019291840191600101614500565b50909695505050505050565b60005b8381101561454d578181015183820152602001614535565b83811115611cb65750506000910152565b60008151808452614576816020860160208601614532565b601f01601f19169290920160200192915050565b6001600160a01b03831681526040602082018190526000906138289083018461455e565b6000806000606084860312156145c357600080fd5b83356145ce81614303565b925060208401356145de81614303565b915060408401356144d981614303565b634e487b7160e01b600052604160045260246000fd5b604051608081016001600160401b0381118282101715614626576146266145ee565b60405290565b604051601f8201601f191681016001600160401b0381118282101715614654576146546145ee565b604052919050565b60006001600160401b03821115614675576146756145ee565b50601f01601f191660200190565b60006020828403121561469557600080fd5b81356001600160401b038111156146ab57600080fd5b8201601f810184136146bc57600080fd5b80356146cf6146ca8261465c565b61462c565b8181528560208385010111156146e457600080fd5b81602084016020830137600091810160200191909152949350505050565b604080825283519082018190526000906020906060840190828701845b828110156147445781516001600160a01b03168452928401929084019060010161471f565b50505083810382850152845180825282820190600581901b8301840187850160005b8381101561479457601f1986840301855261478283835161455e565b94870194925090860190600101614766565b50909998505050505050505050565b634e487b7160e01b600052603260045260246000fd5b634e487b7160e01b600052601160045260246000fd5b60006000198214156147e3576147e36147b9565b5060010190565b6000602082840312156147fc57600080fd5b81516001600160401b0381111561481257600080fd5b8201601f8101841361482357600080fd5b80516148316146ca8261465c565b81815285602083850101111561484657600080fd5b61414b826020830160208601614532565b60008251614869818460208701614532565b9190910192915050565b600060ff821680614886576148866147b9565b6000190192915050565b600060ff821660ff8114156148a7576148a76147b9565b60010192915050565b6000602082840312156148c257600080fd5b81516107ae81614303565b6000602082840312156148df57600080fd5b5051919050565b6000816000190483118215151615614900576149006147b9565b500290565b600082821015614917576149176147b9565b500390565b60008261493957634e487b7160e01b600052601260045260246000fd5b500490565b6001600160a01b039384168152919092166020820152901515604082015260600190565b60006020828403121561497457600080fd5b815180151581146107ae57600080fd5b6000806040838503121561499757600080fd5b505080516020909101519092909150565b6001600160a01b038381168252604060208084018290528451918401829052600092858201929091906060860190855b818110156149f65785518516835294830194918301916001016149d8565b509098975050505050505050565b6001600160a01b0384168152606060208201819052600090614a289083018561444b565b8281036040840152614a3a818561444b565b9695505050505050565b60006001600160401b03821115614a5d57614a5d6145ee565b5060051b60200190565b60006020808385031215614a7a57600080fd5b82516001600160401b03811115614a9057600080fd5b8301601f81018513614aa157600080fd5b8051614aaf6146ca82614a44565b81815260059190911b82018301908381019087831115614ace57600080fd5b928401925b82841015614224578351614ae681614303565b82529284019290840190614ad3565b6020808252600690820152653bba37b5b2b760d11b604082015260600190565b60208082526021908201527f43757276654c70546f6b656e50726963654f7261636c654e6f526567697374726040820152607960f81b606082015260800190565b60006020808385031215614b6957600080fd5b82516001600160401b03811115614b7f57600080fd5b8301601f81018513614b9057600080fd5b8051614b9e6146ca82614a44565b81815260079190911b82018301908381019087831115614bbd57600080fd5b928401925b828410156142245760808489031215614bdb5760008081fd5b614be3614604565b8451614bee81614303565b815284860151614bfd81614303565b81870152604085810151614c1081614303565b9082015260608581015190820152825260809093019290840190614bc2565b6001600160a01b03948516815292841660208401529083166040830152909116606082015260800190565b600060208284031215614c6c57600080fd5b815160ff811681146107ae57600080fd5b600181815b80851115614cb8578160001904821115614c9e57614c9e6147b9565b80851615614cab57918102915b93841c9390800290614c82565b509250929050565b600082614ccf575060016104b8565b81614cdc575060006104b8565b8160018114614cf25760028114614cfc57614d18565b60019150506104b8565b60ff841115614d0d57614d0d6147b9565b50506001821b6104b8565b5060208310610133831016604e8410600b8410161715614d3b575081810a6104b8565b614d458383614c7d565b8060001904821115614d5957614d596147b9565b029392505050565b60006107ae8383614cc0565b634e487b7160e01b600052603160045260246000fd5b60018060a01b038416815282602082015260606040820152600061414b606083018461455e565b60008060408385031215614dbd57600080fd5b8251614dc881614303565b6020939093015192949293505050565b6020815260006107ae602083018461455e56fe416464726573733a206c6f772d6c6576656c2064656c65676174652063616c6c206661696c656442616c616e6365724c696e656172506f6f6c546f6b656e4c697175696461746f72a164736f6c634300080a000a",
    "linkReferences": {}
  },
  "methodIdentifiers": {
    "_getExtensionFunctions()": "89f8132e",
    "_removeRedemptionStrategy(address)": "514b49d9",
    "_resetRedemptionStrategies(address[],address[],address[])": "a1bb91e3",
    "_setDefaultOutputToken(address,address)": "2434cb7f",
    "_setRedemptionStrategies(address[],address[],address[])": "366eda2e",
    "_setRedemptionStrategy(address,address,address)": "d7341acf",
    "acceptOwnership()": "79ba5097",
    "amountOutAndSlippageOfSwap(address,uint256,address)": "f560cebd",
    "ap()": "3c4f743c",
    "defaultOutputToken(address)": "8db87c27",
    "getAllRedemptionStrategies()": "a6fdd2bb",
    "getInputTokensByOutputToken(address)": "403de57f",
    "getRedemptionStrategies(address,address)": "ed287f3f",
    "getRedemptionStrategy(address,address)": "b6b928fd",
    "owner()": "8da5cb5b",
    "pendingOwner()": "e30c3978",
    "redemptionStrategiesByName(string)": "dee7fe48",
    "redemptionStrategiesByTokens(address,address)": "a700f9e4",
    "renounceOwnership()": "715018a6",
    "swap(address,uint256,address)": "6d069a67",
    "transferOwnership(address)": "f2fde38b"
  }
}