{
  "address": "0x12034385E1A0eEaad1368332425A17580b8E2812",
  "abi": [
    {
      "inputs": [
        {
          "internalType": "contract MidasFlywheelCore[]",
          "name": "flywheels",
          "type": "address[]"
        }
      ],
      "name": "claimRewardsFromFlywheels",
      "outputs": [],
      "stateMutability": "nonpayable",
      "type": "function"
    },
    {
      "inputs": [
        {
          "internalType": "contract CErc20Token[]",
          "name": "markets",
          "type": "address[]"
        }
      ],
      "name": "getMarketRewardsInfo",
      "outputs": [
        {
          "components": [
            {
              "internalType": "uint256",
              "name": "underlyingPrice",
              "type": "uint256"
            },
            {
              "internalType": "contract CErc20Token",
              "name": "market",
              "type": "address"
            },
            {
              "components": [
                {
                  "internalType": "uint256",
                  "name": "rewardSpeedPerSecondPerToken",
                  "type": "uint256"
                },
                {
                  "internalType": "uint256",
                  "name": "rewardTokenPrice",
                  "type": "uint256"
                },
                {
                  "internalType": "uint256",
                  "name": "formattedAPR",
                  "type": "uint256"
                },
                {
                  "internalType": "address",
                  "name": "flywheel",
                  "type": "address"
                },
                {
                  "internalType": "address",
                  "name": "rewardToken",
                  "type": "address"
                }
              ],
              "internalType": "struct MidasFlywheelLensRouter.RewardsInfo[]",
              "name": "rewardsInfo",
              "type": "tuple[]"
            }
          ],
          "internalType": "struct MidasFlywheelLensRouter.MarketRewardsInfo[]",
          "name": "",
          "type": "tuple[]"
        }
      ],
      "stateMutability": "nonpayable",
      "type": "function"
    },
    {
      "inputs": [
        {
          "internalType": "contract IComptroller",
          "name": "comptroller",
          "type": "address"
        }
      ],
      "name": "getPoolMarketRewardsInfo",
      "outputs": [
        {
          "components": [
            {
              "internalType": "uint256",
              "name": "underlyingPrice",
              "type": "uint256"
            },
            {
              "internalType": "contract CErc20Token",
              "name": "market",
              "type": "address"
            },
            {
              "components": [
                {
                  "internalType": "uint256",
                  "name": "rewardSpeedPerSecondPerToken",
                  "type": "uint256"
                },
                {
                  "internalType": "uint256",
                  "name": "rewardTokenPrice",
                  "type": "uint256"
                },
                {
                  "internalType": "uint256",
                  "name": "formattedAPR",
                  "type": "uint256"
                },
                {
                  "internalType": "address",
                  "name": "flywheel",
                  "type": "address"
                },
                {
                  "internalType": "address",
                  "name": "rewardToken",
                  "type": "address"
                }
              ],
              "internalType": "struct MidasFlywheelLensRouter.RewardsInfo[]",
              "name": "rewardsInfo",
              "type": "tuple[]"
            }
          ],
          "internalType": "struct MidasFlywheelLensRouter.MarketRewardsInfo[]",
          "name": "",
          "type": "tuple[]"
        }
      ],
      "stateMutability": "nonpayable",
      "type": "function"
    },
    {
      "inputs": [
        {
          "internalType": "address",
          "name": "user",
          "type": "address"
        },
        {
          "internalType": "contract CErc20Token[]",
          "name": "markets",
          "type": "address[]"
        },
        {
          "internalType": "contract MidasFlywheelCore[]",
          "name": "flywheels",
          "type": "address[]"
        },
        {
          "internalType": "bool[]",
          "name": "accrue",
          "type": "bool[]"
        }
      ],
      "name": "getUnclaimedRewardsByMarkets",
      "outputs": [
        {
          "internalType": "uint256[]",
          "name": "rewards",
          "type": "uint256[]"
        }
      ],
      "stateMutability": "nonpayable",
      "type": "function"
    },
    {
      "inputs": [
        {
          "internalType": "address",
          "name": "user",
          "type": "address"
        },
        {
          "internalType": "contract ERC20",
          "name": "market",
          "type": "address"
        },
        {
          "internalType": "contract MidasFlywheelCore[]",
          "name": "flywheels",
          "type": "address[]"
        },
        {
          "internalType": "bool[]",
          "name": "accrue",
          "type": "bool[]"
        }
      ],
      "name": "getUnclaimedRewardsForMarket",
      "outputs": [
        {
          "internalType": "uint256[]",
          "name": "rewards",
          "type": "uint256[]"
        }
      ],
      "stateMutability": "nonpayable",
      "type": "function"
    }
  ],
  "transactionHash": "0xc597004b4dbf5d218dd66ad2b0138027c582615c19f04a4d9911cfd8475b5ac4",
  "args": [],
  "numDeployments": 7,
  "bytecode": {
    "object": "0x608060405234801561001057600080fd5b50611b4d806100206000396000f3fe608060405234801561001057600080fd5b50600436106100575760003560e01c80630bd96f481461005c5780637e70aa4914610085578063beec9d3d146100a5578063c8a6da19146100ba578063d1040bae146100cd575b600080fd5b61006f61006a3660046113bf565b6100e0565b60405161007c9190611453565b60405180910390f35b610098610093366004611500565b6103a0565b60405161007c919061159e565b6100b86100b336600461167c565b6104fb565b005b61006f6100c83660046116bd565b6105a0565b6100986100db366004611769565b6108aa565b606083806001600160401b038111156100fb576100fb611497565b604051908082528060200260200182016040528015610124578160200160208202803683370190505b50915060005b8181101561039457600085858381811061014657610146611786565b905060200201602081019061015b919061179c565b156102045787878381811061017257610172611786565b90506020020160208101906101879190611769565b604051632e6f912b60e21b81526001600160a01b038b811660048301528c81166024830152919091169063b9be44ac906044016020604051808303816000875af11580156101d9573d6000803e3d6000fd5b505050506040513d601f19601f820116820180604052508101906101fd91906117be565b905061029c565b87878381811061021657610216611786565b905060200201602081019061022b9190611769565b604051630ff6b5a760e31b81526001600160a01b038c811660048301529190911690637fb5ad38906024016020604051808303816000875af1158015610275573d6000803e3d6000fd5b505050506040513d601f19601f8201168201806040525081019061029991906117be565b90505b808483815181106102af576102af611786565b602002602001015110156102c357806102de565b8382815181106102d5576102d5611786565b60200260200101515b8483815181106102f0576102f0611786565b60200260200101818152505087878381811061030e5761030e611786565b90506020020160208101906103239190611769565b604051633bd73ee360e21b81526001600160a01b038c81166004830152919091169063ef5cfb8c90602401600060405180830381600087803b15801561036857600080fd5b505af115801561037c573d6000803e3d6000fd5b5050505050808061038c906117ed565b91505061012a565b50509695505050505050565b60606000805b83518110156104e9576001600160a01b03821661043f578381815181106103cf576103cf611786565b60200260200101516001600160a01b0316635fe3b5676040518163ffffffff1660e01b8152600401602060405180830381865afa158015610414573d6000803e3d6000fd5b505050506040513d601f19601f820116820180604052508101906104389190611808565b91506104d7565b816001600160a01b031684828151811061045b5761045b611786565b60200260200101516001600160a01b0316635fe3b5676040518163ffffffff1660e01b8152600401602060405180830381865afa1580156104a0573d6000803e3d6000fd5b505050506040513d601f19601f820116820180604052508101906104c49190611808565b6001600160a01b0316146104d757600080fd5b806104e1816117ed565b9150506103a6565b506104f4838261091c565b9392505050565b60005b8181101561059b5782828281811061051857610518611786565b905060200201602081019061052d9190611769565b604051633bd73ee360e21b81523360048201526001600160a01b03919091169063ef5cfb8c90602401600060405180830381600087803b15801561057057600080fd5b505af1158015610584573d6000803e3d6000fd5b505050508080610593906117ed565b9150506104fe565b505050565b6060836001600160401b038111156105ba576105ba611497565b6040519080825280602002602001820160405280156105e3578160200160208202803683370190505b50905060005b8481101561089e5760005b8781101561080657600089898381811061061057610610611786565b90506020020160208101906106259190611769565b9050600086868581811061063b5761063b611786565b9050602002016020810190610650919061179c565b156106f95788888581811061066757610667611786565b905060200201602081019061067c9190611769565b604051632e6f912b60e21b81526001600160a01b0384811660048301528e81166024830152919091169063b9be44ac906044016020604051808303816000875af11580156106ce573d6000803e3d6000fd5b505050506040513d601f19601f820116820180604052508101906106f291906117be565b9050610791565b88888581811061070b5761070b611786565b90506020020160208101906107209190611769565b604051630ff6b5a760e31b81526001600160a01b038e811660048301529190911690637fb5ad38906024016020604051808303816000875af115801561076a573d6000803e3d6000fd5b505050506040513d601f19601f8201168201806040525081019061078e91906117be565b90505b808585815181106107a4576107a4611786565b602002602001015110156107b857806107d3565b8484815181106107ca576107ca611786565b60200260200101515b8585815181106107e5576107e5611786565b602002602001018181525050505080806107fe906117ed565b9150506105f4565b5085858281811061081957610819611786565b905060200201602081019061082e9190611769565b604051633bd73ee360e21b81526001600160a01b038b81166004830152919091169063ef5cfb8c90602401600060405180830381600087803b15801561087357600080fd5b505af1158015610887573d6000803e3d6000fd5b505050508080610896906117ed565b9150506105e9565b50979650505050505050565b60606000826001600160a01b031663b0772d0b6040518163ffffffff1660e01b8152600401600060405180830381865afa1580156108ec573d6000803e3d6000fd5b505050506040513d6000823e601f3d908101601f191682016040526109149190810190611825565b90506104f481845b60606001600160a01b038216158061093357508251155b1561098557604080516000808252602082019092529061097d565b6040805160608082018352600080835260208301529181019190915281526020019060019003908161094e5790505b5090506110dd565b6000826001600160a01b0316634a76e7276040518163ffffffff1660e01b8152600401600060405180830381865afa1580156109c5573d6000803e3d6000fd5b505050506040513d6000823e601f3d908101601f191682016040526109ed91908101906118b3565b9050600081516001600160401b03811115610a0a57610a0a611497565b604051908082528060200260200182016040528015610a33578160200160208202803683370190505b509050600082516001600160401b03811115610a5157610a51611497565b604051908082528060200260200182016040528015610a7a578160200160208202803683370190505b509050600083516001600160401b03811115610a9857610a98611497565b604051908082528060200260200182016040528015610ac1578160200160208202803683370190505b5090506000866001600160a01b0316637dc0d1d06040518163ffffffff1660e01b8152600401602060405180830381865afa158015610b04573d6000803e3d6000fd5b505050506040513d601f19601f82011682018060405250810190610b289190611808565b9050600088516001600160401b03811115610b4557610b45611497565b604051908082528060200260200182016040528015610b9257816020015b60408051606080820183526000808352602083015291810191909152815260200190600190039081610b635790505b50905060005b89518110156110d457600087516001600160401b03811115610bbc57610bbc611497565b604051908082528060200260200182016040528015610c3157816020015b610c1e6040518060a0016040528060008152602001600081526020016000815260200160006001600160a01b0316815260200160006001600160a01b031681525090565b815260200190600190039081610bda5790505b50905060008b8381518110610c4857610c48611786565b602002602001015190506000856001600160a01b031663aea91078836001600160a01b0316636f307dc36040518163ffffffff1660e01b8152600401602060405180830381865afa158015610ca1573d6000803e3d6000fd5b505050506040513d601f19601f82011682018060405250810190610cc59190611808565b6040516001600160e01b031960e084901b1681526001600160a01b039091166004820152602401602060405180830381865afa158015610d09573d6000803e3d6000fd5b505050506040513d601f19601f82011682018060405250810190610d2d91906117be565b905083610f005760005b8a51811015610efe5760008b8281518110610d5457610d54611786565b60200260200101516001600160a01b031663f7c618c16040518163ffffffff1660e01b8152600401602060405180830381865afa158015610d99573d6000803e3d6000fd5b505050506040513d601f19601f82011682018060405250810190610dbd9190611808565b9050808b8381518110610dd257610dd2611786565b6001600160a01b0392831660209182029290920101526040516315d5220f60e31b815282821660048201529089169063aea9107890602401602060405180830381865afa158015610e27573d6000803e3d6000fd5b505050506040513d601f19601f82011682018060405250810190610e4b91906117be565b8a8381518110610e5d57610e5d611786565b602002602001018181525050806001600160a01b031663313ce5676040518163ffffffff1660e01b8152600401602060405180830381865afa158015610ea7573d6000803e3d6000fd5b505050506040513d601f19601f82011682018060405250810190610ecb9190611941565b60ff16898381518110610ee057610ee0611786565b60209081029190910101525080610ef6816117ed565b915050610d37565b505b60005b8a5181101561107c5760008b8281518110610f2057610f20611786565b602002602001015190506000610f5082868c8681518110610f4357610f43611786565b60200260200101516110e3565b90506000610fdc828d8681518110610f6a57610f6a611786565b602002602001015187896001600160a01b031663bd6d894d6040518163ffffffff1660e01b81526004016020604051808303816000875af1158015610fb3573d6000803e3d6000fd5b505050506040513d601f19601f82011682018060405250810190610fd791906117be565b61129d565b90506040518060a001604052808381526020018d868151811061100157611001611786565b60200260200101518152602001828152602001846001600160a01b031681526020018e868151811061103557611035611786565b60200260200101516001600160a01b031681525087858151811061105b5761105b611786565b60200260200101819052505050508080611074906117ed565b915050610f03565b506040518060600160405280828152602001836001600160a01b03168152602001848152508585815181106110b3576110b3611786565b602002602001018190525050505080806110cc906117ed565b915050610b98565b50955050505050505b92915050565b60405163dde684a560e01b81526001600160a01b038381166004830152600091829182919087169063dde684a59060240160408051808303816000875af1158015611132573d6000803e3d6000fd5b505050506040513d601f19601f820116820180604052508101906111569190611964565b604051632e6f912b60e21b81526001600160a01b038881166004830152600060248301529294509092509087169063b9be44ac906044016020604051808303816000875af11580156111ac573d6000803e3d6000fd5b505050506040513d601f19601f820116820180604052508101906111d091906117be565b5060405163dde684a560e01b81526001600160a01b038681166004830152600091829189169063dde684a59060240160408051808303816000875af115801561121d573d6000803e3d6000fd5b505050506040513d601f19601f820116820180604052508101906112419190611964565b915091508263ffffffff168163ffffffff1611156112925761126383826119b3565b63ffffffff1661128561127686856119d8565b6001600160e01b03168861130c565b61128f91906119f8565b94505b505050509392505050565b6000846112ac57506000611304565b60006112b88587611a1a565b905060006112ca826301e187e0611a1a565b905060006112d886836119f8565b905060006112ee82670de0b6b3a7640000611a1a565b905060006112fc87836119f8565b955050505050505b949350505050565b6000601282111561133c57611322601283611a39565b61132d90600a611b34565b61133790846119f8565b6104f4565b611347826012611a39565b61135290600a611b34565b6104f49084611a1a565b6001600160a01b038116811461137157600080fd5b50565b60008083601f84011261138657600080fd5b5081356001600160401b0381111561139d57600080fd5b6020830191508360208260051b85010111156113b857600080fd5b9250929050565b600080600080600080608087890312156113d857600080fd5b86356113e38161135c565b955060208701356113f38161135c565b945060408701356001600160401b038082111561140f57600080fd5b61141b8a838b01611374565b9096509450606089013591508082111561143457600080fd5b5061144189828a01611374565b979a9699509497509295939492505050565b6020808252825182820181905260009190848201906040850190845b8181101561148b5783518352928401929184019160010161146f565b50909695505050505050565b634e487b7160e01b600052604160045260246000fd5b604051601f8201601f191681016001600160401b03811182821017156114d5576114d5611497565b604052919050565b60006001600160401b038211156114f6576114f6611497565b5060051b60200190565b6000602080838503121561151357600080fd5b82356001600160401b0381111561152957600080fd5b8301601f8101851361153a57600080fd5b803561154d611548826114dd565b6114ad565b81815260059190911b8201830190838101908783111561156c57600080fd5b928401925b828410156115935783356115848161135c565b82529284019290840190611571565b979650505050505050565b60006020808301818452808551808352604092508286019150828160051b87010184880160005b8381101561166e57888303603f19018552815180518452878101516001600160a01b03908116898601529087015160608886018190528151818701819052918a019290916080918288019160005b81811015611656578651805185528e8101518f8601528d8101518e86015286810151841687860152850151831685850152958d019560a090930192600101611613565b505050978a01979550505091870191506001016115c5565b509098975050505050505050565b6000806020838503121561168f57600080fd5b82356001600160401b038111156116a557600080fd5b6116b185828601611374565b90969095509350505050565b60008060008060008060006080888a0312156116d857600080fd5b87356116e38161135c565b965060208801356001600160401b03808211156116ff57600080fd5b61170b8b838c01611374565b909850965060408a013591508082111561172457600080fd5b6117308b838c01611374565b909650945060608a013591508082111561174957600080fd5b506117568a828b01611374565b989b979a50959850939692959293505050565b60006020828403121561177b57600080fd5b81356104f48161135c565b634e487b7160e01b600052603260045260246000fd5b6000602082840312156117ae57600080fd5b813580151581146104f457600080fd5b6000602082840312156117d057600080fd5b5051919050565b634e487b7160e01b600052601160045260246000fd5b6000600019821415611801576118016117d7565b5060010190565b60006020828403121561181a57600080fd5b81516104f48161135c565b6000602080838503121561183857600080fd5b82516001600160401b0381111561184e57600080fd5b8301601f8101851361185f57600080fd5b805161186d611548826114dd565b81815260059190911b8201830190838101908783111561188c57600080fd5b928401925b828410156115935783516118a48161135c565b82529284019290840190611891565b600060208083850312156118c657600080fd5b82516001600160401b038111156118dc57600080fd5b8301601f810185136118ed57600080fd5b80516118fb611548826114dd565b81815260059190911b8201830190838101908783111561191a57600080fd5b928401925b828410156115935783516119328161135c565b8252928401929084019061191f565b60006020828403121561195357600080fd5b815160ff811681146104f457600080fd5b6000806040838503121561197757600080fd5b82516001600160e01b038116811461198e57600080fd5b602084015190925063ffffffff811681146119a857600080fd5b809150509250929050565b600063ffffffff838116908316818110156119d0576119d06117d7565b039392505050565b60006001600160e01b03838116908316818110156119d0576119d06117d7565b600082611a1557634e487b7160e01b600052601260045260246000fd5b500490565b6000816000190483118215151615611a3457611a346117d7565b500290565b600082821015611a4b57611a4b6117d7565b500390565b600181815b80851115611a8b578160001904821115611a7157611a716117d7565b80851615611a7e57918102915b93841c9390800290611a55565b509250929050565b600082611aa2575060016110dd565b81611aaf575060006110dd565b8160018114611ac55760028114611acf57611aeb565b60019150506110dd565b60ff841115611ae057611ae06117d7565b50506001821b6110dd565b5060208310610133831016604e8410600b8410161715611b0e575081810a6110dd565b611b188383611a50565b8060001904821115611b2c57611b2c6117d7565b029392505050565b60006104f48383611a9356fea164736f6c634300080a000a",
    "linkReferences": {}
  },
  "methodIdentifiers": {
    "claimRewardsFromFlywheels(address[])": "beec9d3d",
    "getMarketRewardsInfo(address[])": "7e70aa49",
    "getPoolMarketRewardsInfo(address)": "d1040bae",
    "getUnclaimedRewardsByMarkets(address,address[],address[],bool[])": "c8a6da19",
    "getUnclaimedRewardsForMarket(address,address,address[],bool[])": "0bd96f48"
  }
}