{
  "address": "0x2344Aad1E13490978D00E6Af70cE801c71F6e4d9",
  "abi": [
    {
      "inputs": [],
      "stateMutability": "nonpayable",
      "type": "constructor"
    },
    {
      "inputs": [],
      "name": "IncorrectDistribution",
      "type": "error"
    },
    {
      "inputs": [],
      "name": "IncorrectListLength",
      "type": "error"
    },
    {
      "inputs": [
        {
          "internalType": "uint256",
          "name": "amount",
          "type": "uint256"
        }
      ],
      "name": "InsufficientWithdrawalAmount",
      "type": "error"
    },
    {
      "inputs": [],
      "name": "InvalidAllocations",
      "type": "error"
    },
    {
      "inputs": [],
      "name": "InvalidFeeRecipient",
      "type": "error"
    },
    {
      "inputs": [],
      "name": "InvalidQuitPeriod",
      "type": "error"
    },
    {
      "inputs": [],
      "name": "InvalidReceiver",
      "type": "error"
    },
    {
      "inputs": [
        {
          "internalType": "address",
          "name": "signer",
          "type": "address"
        }
      ],
      "name": "InvalidSigner",
      "type": "error"
    },
    {
      "inputs": [],
      "name": "InvalidVaultFees",
      "type": "error"
    },
    {
      "inputs": [
        {
          "internalType": "uint256",
          "name": "amount",
          "type": "uint256"
        }
      ],
      "name": "MaxError",
      "type": "error"
    },
    {
      "inputs": [],
      "name": "NotPassedQuitPeriod",
      "type": "error"
    },
    {
      "inputs": [
        {
          "internalType": "uint256",
          "name": "deadline",
          "type": "uint256"
        }
      ],
      "name": "PermitDeadlineExpired",
      "type": "error"
    },
    {
      "anonymous": false,
      "inputs": [
        {
          "indexed": true,
          "internalType": "address",
          "name": "owner",
          "type": "address"
        },
        {
          "indexed": true,
          "internalType": "address",
          "name": "spender",
          "type": "address"
        },
        {
          "indexed": false,
          "internalType": "uint256",
          "name": "value",
          "type": "uint256"
        }
      ],
      "name": "Approval",
      "type": "event"
    },
    {
      "anonymous": false,
      "inputs": [
        {
          "components": [
            {
              "internalType": "contract CompoundMarketERC4626",
              "name": "adapter",
              "type": "address"
            },
            {
              "internalType": "uint64",
              "name": "allocation",
              "type": "uint64"
            }
          ],
          "indexed": false,
          "internalType": "struct AdapterConfig[10]",
          "name": "oldAdapter",
          "type": "tuple[10]"
        },
        {
          "indexed": false,
          "internalType": "uint8",
          "name": "oldAdaptersCount",
          "type": "uint8"
        },
        {
          "components": [
            {
              "internalType": "contract CompoundMarketERC4626",
              "name": "adapter",
              "type": "address"
            },
            {
              "internalType": "uint64",
              "name": "allocation",
              "type": "uint64"
            }
          ],
          "indexed": false,
          "internalType": "struct AdapterConfig[10]",
          "name": "newAdapter",
          "type": "tuple[10]"
        },
        {
          "indexed": false,
          "internalType": "uint8",
          "name": "newAdaptersCount",
          "type": "uint8"
        }
      ],
      "name": "ChangedAdapters",
      "type": "event"
    },
    {
      "anonymous": false,
      "inputs": [
        {
          "components": [
            {
              "internalType": "uint64",
              "name": "deposit",
              "type": "uint64"
            },
            {
              "internalType": "uint64",
              "name": "withdrawal",
              "type": "uint64"
            },
            {
              "internalType": "uint64",
              "name": "management",
              "type": "uint64"
            },
            {
              "internalType": "uint64",
              "name": "performance",
              "type": "uint64"
            }
          ],
          "indexed": false,
          "internalType": "struct VaultFees",
          "name": "oldFees",
          "type": "tuple"
        },
        {
          "components": [
            {
              "internalType": "uint64",
              "name": "deposit",
              "type": "uint64"
            },
            {
              "internalType": "uint64",
              "name": "withdrawal",
              "type": "uint64"
            },
            {
              "internalType": "uint64",
              "name": "management",
              "type": "uint64"
            },
            {
              "internalType": "uint64",
              "name": "performance",
              "type": "uint64"
            }
          ],
          "indexed": false,
          "internalType": "struct VaultFees",
          "name": "newFees",
          "type": "tuple"
        }
      ],
      "name": "ChangedFees",
      "type": "event"
    },
    {
      "anonymous": false,
      "inputs": [
        {
          "indexed": true,
          "internalType": "address",
          "name": "sender",
          "type": "address"
        },
        {
          "indexed": true,
          "internalType": "address",
          "name": "owner",
          "type": "address"
        },
        {
          "indexed": false,
          "internalType": "uint256",
          "name": "assets",
          "type": "uint256"
        },
        {
          "indexed": false,
          "internalType": "uint256",
          "name": "shares",
          "type": "uint256"
        }
      ],
      "name": "Deposit",
      "type": "event"
    },
    {
      "anonymous": false,
      "inputs": [
        {
          "indexed": false,
          "internalType": "uint256",
          "name": "depositLimit",
          "type": "uint256"
        }
      ],
      "name": "DepositLimitSet",
      "type": "event"
    },
    {
      "anonymous": false,
      "inputs": [],
      "name": "EmergencyExitActivated",
      "type": "event"
    },
    {
      "anonymous": false,
      "inputs": [
        {
          "indexed": false,
          "internalType": "address",
          "name": "oldFeeRecipient",
          "type": "address"
        },
        {
          "indexed": false,
          "internalType": "address",
          "name": "newFeeRecipient",
          "type": "address"
        }
      ],
      "name": "FeeRecipientUpdated",
      "type": "event"
    },
    {
      "anonymous": false,
      "inputs": [
        {
          "indexed": false,
          "internalType": "uint256",
          "name": "totalAssets",
          "type": "uint256"
        },
        {
          "indexed": false,
          "internalType": "uint256",
          "name": "aprBefore",
          "type": "uint256"
        },
        {
          "indexed": false,
          "internalType": "uint256",
          "name": "aprAfter",
          "type": "uint256"
        }
      ],
      "name": "Harvested",
      "type": "event"
    },
    {
      "anonymous": false,
      "inputs": [
        {
          "indexed": false,
          "internalType": "uint8",
          "name": "version",
          "type": "uint8"
        }
      ],
      "name": "Initialized",
      "type": "event"
    },
    {
      "anonymous": false,
      "inputs": [
        {
          "components": [
            {
              "internalType": "uint64",
              "name": "deposit",
              "type": "uint64"
            },
            {
              "internalType": "uint64",
              "name": "withdrawal",
              "type": "uint64"
            },
            {
              "internalType": "uint64",
              "name": "management",
              "type": "uint64"
            },
            {
              "internalType": "uint64",
              "name": "performance",
              "type": "uint64"
            }
          ],
          "indexed": false,
          "internalType": "struct VaultFees",
          "name": "newFees",
          "type": "tuple"
        },
        {
          "indexed": false,
          "internalType": "uint256",
          "name": "timestamp",
          "type": "uint256"
        }
      ],
      "name": "NewFeesProposed",
      "type": "event"
    },
    {
      "anonymous": false,
      "inputs": [
        {
          "indexed": true,
          "internalType": "address",
          "name": "previousOwner",
          "type": "address"
        },
        {
          "indexed": true,
          "internalType": "address",
          "name": "newOwner",
          "type": "address"
        }
      ],
      "name": "OwnershipTransferStarted",
      "type": "event"
    },
    {
      "anonymous": false,
      "inputs": [
        {
          "indexed": true,
          "internalType": "address",
          "name": "previousOwner",
          "type": "address"
        },
        {
          "indexed": true,
          "internalType": "address",
          "name": "newOwner",
          "type": "address"
        }
      ],
      "name": "OwnershipTransferred",
      "type": "event"
    },
    {
      "anonymous": false,
      "inputs": [
        {
          "indexed": false,
          "internalType": "address",
          "name": "account",
          "type": "address"
        }
      ],
      "name": "Paused",
      "type": "event"
    },
    {
      "anonymous": false,
      "inputs": [
        {
          "indexed": false,
          "internalType": "uint256",
          "name": "quitPeriod",
          "type": "uint256"
        }
      ],
      "name": "QuitPeriodSet",
      "type": "event"
    },
    {
      "anonymous": false,
      "inputs": [
        {
          "indexed": true,
          "internalType": "address",
          "name": "from",
          "type": "address"
        },
        {
          "indexed": true,
          "internalType": "address",
          "name": "to",
          "type": "address"
        },
        {
          "indexed": false,
          "internalType": "uint256",
          "name": "value",
          "type": "uint256"
        }
      ],
      "name": "Transfer",
      "type": "event"
    },
    {
      "anonymous": false,
      "inputs": [
        {
          "indexed": false,
          "internalType": "address",
          "name": "account",
          "type": "address"
        }
      ],
      "name": "Unpaused",
      "type": "event"
    },
    {
      "anonymous": false,
      "inputs": [
        {
          "indexed": true,
          "internalType": "address",
          "name": "sender",
          "type": "address"
        },
        {
          "indexed": true,
          "internalType": "address",
          "name": "receiver",
          "type": "address"
        },
        {
          "indexed": true,
          "internalType": "address",
          "name": "owner",
          "type": "address"
        },
        {
          "indexed": false,
          "internalType": "uint256",
          "name": "assets",
          "type": "uint256"
        },
        {
          "indexed": false,
          "internalType": "uint256",
          "name": "shares",
          "type": "uint256"
        }
      ],
      "name": "Withdraw",
      "type": "event"
    },
    {
      "inputs": [],
      "name": "DECIMAL_OFFSET",
      "outputs": [
        {
          "internalType": "uint8",
          "name": "",
          "type": "uint8"
        }
      ],
      "stateMutability": "view",
      "type": "function"
    },
    {
      "inputs": [],
      "name": "DOMAIN_SEPARATOR",
      "outputs": [
        {
          "internalType": "bytes32",
          "name": "",
          "type": "bytes32"
        }
      ],
      "stateMutability": "view",
      "type": "function"
    },
    {
      "inputs": [],
      "name": "_getExtensionFunctions",
      "outputs": [
        {
          "internalType": "bytes4[]",
          "name": "",
          "type": "bytes4[]"
        }
      ],
      "stateMutability": "pure",
      "type": "function"
    },
    {
      "inputs": [],
      "name": "acceptOwnership",
      "outputs": [],
      "stateMutability": "nonpayable",
      "type": "function"
    },
    {
      "inputs": [],
      "name": "accruedManagementFee",
      "outputs": [
        {
          "internalType": "uint256",
          "name": "",
          "type": "uint256"
        }
      ],
      "stateMutability": "view",
      "type": "function"
    },
    {
      "inputs": [],
      "name": "accruedPerformanceFee",
      "outputs": [
        {
          "internalType": "uint256",
          "name": "",
          "type": "uint256"
        }
      ],
      "stateMutability": "view",
      "type": "function"
    },
    {
      "inputs": [
        {
          "internalType": "uint256",
          "name": "",
          "type": "uint256"
        }
      ],
      "name": "adapters",
      "outputs": [
        {
          "internalType": "contract CompoundMarketERC4626",
          "name": "adapter",
          "type": "address"
        },
        {
          "internalType": "uint64",
          "name": "allocation",
          "type": "uint64"
        }
      ],
      "stateMutability": "view",
      "type": "function"
    },
    {
      "inputs": [],
      "name": "adaptersCount",
      "outputs": [
        {
          "internalType": "uint8",
          "name": "",
          "type": "uint8"
        }
      ],
      "stateMutability": "view",
      "type": "function"
    },
    {
      "inputs": [
        {
          "internalType": "address",
          "name": "owner",
          "type": "address"
        },
        {
          "internalType": "address",
          "name": "spender",
          "type": "address"
        }
      ],
      "name": "allowance",
      "outputs": [
        {
          "internalType": "uint256",
          "name": "",
          "type": "uint256"
        }
      ],
      "stateMutability": "view",
      "type": "function"
    },
    {
      "inputs": [
        {
          "internalType": "address",
          "name": "spender",
          "type": "address"
        },
        {
          "internalType": "uint256",
          "name": "amount",
          "type": "uint256"
        }
      ],
      "name": "approve",
      "outputs": [
        {
          "internalType": "bool",
          "name": "",
          "type": "bool"
        }
      ],
      "stateMutability": "nonpayable",
      "type": "function"
    },
    {
      "inputs": [],
      "name": "asset",
      "outputs": [
        {
          "internalType": "address",
          "name": "",
          "type": "address"
        }
      ],
      "stateMutability": "view",
      "type": "function"
    },
    {
      "inputs": [],
      "name": "assetsCheckpoint",
      "outputs": [
        {
          "internalType": "uint256",
          "name": "",
          "type": "uint256"
        }
      ],
      "stateMutability": "view",
      "type": "function"
    },
    {
      "inputs": [
        {
          "internalType": "address",
          "name": "account",
          "type": "address"
        }
      ],
      "name": "balanceOf",
      "outputs": [
        {
          "internalType": "uint256",
          "name": "",
          "type": "uint256"
        }
      ],
      "stateMutability": "view",
      "type": "function"
    },
    {
      "inputs": [],
      "name": "changeAdapters",
      "outputs": [],
      "stateMutability": "nonpayable",
      "type": "function"
    },
    {
      "inputs": [],
      "name": "changeFees",
      "outputs": [],
      "stateMutability": "nonpayable",
      "type": "function"
    },
    {
      "inputs": [
        {
          "internalType": "uint256",
          "name": "shares",
          "type": "uint256"
        }
      ],
      "name": "convertToAssets",
      "outputs": [
        {
          "internalType": "uint256",
          "name": "assets",
          "type": "uint256"
        }
      ],
      "stateMutability": "view",
      "type": "function"
    },
    {
      "inputs": [
        {
          "internalType": "uint256",
          "name": "assets",
          "type": "uint256"
        }
      ],
      "name": "convertToShares",
      "outputs": [
        {
          "internalType": "uint256",
          "name": "shares",
          "type": "uint256"
        }
      ],
      "stateMutability": "view",
      "type": "function"
    },
    {
      "inputs": [],
      "name": "decimals",
      "outputs": [
        {
          "internalType": "uint8",
          "name": "",
          "type": "uint8"
        }
      ],
      "stateMutability": "view",
      "type": "function"
    },
    {
      "inputs": [
        {
          "internalType": "address",
          "name": "spender",
          "type": "address"
        },
        {
          "internalType": "uint256",
          "name": "subtractedValue",
          "type": "uint256"
        }
      ],
      "name": "decreaseAllowance",
      "outputs": [
        {
          "internalType": "bool",
          "name": "",
          "type": "bool"
        }
      ],
      "stateMutability": "nonpayable",
      "type": "function"
    },
    {
      "inputs": [
        {
          "internalType": "uint256",
          "name": "assets",
          "type": "uint256"
        },
        {
          "internalType": "address",
          "name": "receiver",
          "type": "address"
        }
      ],
      "name": "deposit",
      "outputs": [
        {
          "internalType": "uint256",
          "name": "shares",
          "type": "uint256"
        }
      ],
      "stateMutability": "nonpayable",
      "type": "function"
    },
    {
      "inputs": [
        {
          "internalType": "uint256",
          "name": "assets",
          "type": "uint256"
        }
      ],
      "name": "deposit",
      "outputs": [
        {
          "internalType": "uint256",
          "name": "",
          "type": "uint256"
        }
      ],
      "stateMutability": "nonpayable",
      "type": "function"
    },
    {
      "inputs": [],
      "name": "depositLimit",
      "outputs": [
        {
          "internalType": "uint256",
          "name": "",
          "type": "uint256"
        }
      ],
      "stateMutability": "view",
      "type": "function"
    },
    {
      "inputs": [],
      "name": "emergencyExit",
      "outputs": [
        {
          "internalType": "bool",
          "name": "",
          "type": "bool"
        }
      ],
      "stateMutability": "view",
      "type": "function"
    },
    {
      "inputs": [],
      "name": "estimatedAPR",
      "outputs": [
        {
          "internalType": "uint256",
          "name": "",
          "type": "uint256"
        }
      ],
      "stateMutability": "view",
      "type": "function"
    },
    {
      "inputs": [
        {
          "internalType": "uint64[]",
          "name": "allocations",
          "type": "uint64[]"
        }
      ],
      "name": "estimatedAPR",
      "outputs": [
        {
          "internalType": "uint256",
          "name": "",
          "type": "uint256"
        },
        {
          "internalType": "int256[]",
          "name": "",
          "type": "int256[]"
        }
      ],
      "stateMutability": "view",
      "type": "function"
    },
    {
      "inputs": [],
      "name": "estimatedTotalAssets",
      "outputs": [
        {
          "internalType": "uint256",
          "name": "",
          "type": "uint256"
        }
      ],
      "stateMutability": "view",
      "type": "function"
    },
    {
      "inputs": [],
      "name": "feeRecipient",
      "outputs": [
        {
          "internalType": "address",
          "name": "",
          "type": "address"
        }
      ],
      "stateMutability": "view",
      "type": "function"
    },
    {
      "inputs": [],
      "name": "fees",
      "outputs": [
        {
          "internalType": "uint64",
          "name": "deposit",
          "type": "uint64"
        },
        {
          "internalType": "uint64",
          "name": "withdrawal",
          "type": "uint64"
        },
        {
          "internalType": "uint64",
          "name": "management",
          "type": "uint64"
        },
        {
          "internalType": "uint64",
          "name": "performance",
          "type": "uint64"
        }
      ],
      "stateMutability": "view",
      "type": "function"
    },
    {
      "inputs": [],
      "name": "feesUpdatedAt",
      "outputs": [
        {
          "internalType": "uint256",
          "name": "",
          "type": "uint256"
        }
      ],
      "stateMutability": "view",
      "type": "function"
    },
    {
      "inputs": [
        {
          "internalType": "contract IERC20Upgradeable",
          "name": "",
          "type": "address"
        }
      ],
      "name": "flywheelForRewardToken",
      "outputs": [
        {
          "internalType": "contract IonicFlywheel",
          "name": "",
          "type": "address"
        }
      ],
      "stateMutability": "view",
      "type": "function"
    },
    {
      "inputs": [],
      "name": "flywheelLogic",
      "outputs": [
        {
          "internalType": "address",
          "name": "",
          "type": "address"
        }
      ],
      "stateMutability": "view",
      "type": "function"
    },
    {
      "inputs": [
        {
          "internalType": "uint64[]",
          "name": "adapterAllocationsHint",
          "type": "uint64[]"
        }
      ],
      "name": "harvest",
      "outputs": [],
      "stateMutability": "nonpayable",
      "type": "function"
    },
    {
      "inputs": [],
      "name": "highWaterMark",
      "outputs": [
        {
          "internalType": "uint256",
          "name": "",
          "type": "uint256"
        }
      ],
      "stateMutability": "view",
      "type": "function"
    },
    {
      "inputs": [
        {
          "internalType": "address",
          "name": "spender",
          "type": "address"
        },
        {
          "internalType": "uint256",
          "name": "addedValue",
          "type": "uint256"
        }
      ],
      "name": "increaseAllowance",
      "outputs": [
        {
          "internalType": "bool",
          "name": "",
          "type": "bool"
        }
      ],
      "stateMutability": "nonpayable",
      "type": "function"
    },
    {
      "inputs": [],
      "name": "lentTotalAssets",
      "outputs": [
        {
          "internalType": "uint256",
          "name": "",
          "type": "uint256"
        }
      ],
      "stateMutability": "view",
      "type": "function"
    },
    {
      "inputs": [
        {
          "internalType": "address",
          "name": "",
          "type": "address"
        }
      ],
      "name": "maxDeposit",
      "outputs": [
        {
          "internalType": "uint256",
          "name": "",
          "type": "uint256"
        }
      ],
      "stateMutability": "view",
      "type": "function"
    },
    {
      "inputs": [
        {
          "internalType": "address",
          "name": "",
          "type": "address"
        }
      ],
      "name": "maxMint",
      "outputs": [
        {
          "internalType": "uint256",
          "name": "",
          "type": "uint256"
        }
      ],
      "stateMutability": "view",
      "type": "function"
    },
    {
      "inputs": [
        {
          "internalType": "address",
          "name": "caller",
          "type": "address"
        }
      ],
      "name": "maxRedeem",
      "outputs": [
        {
          "internalType": "uint256",
          "name": "",
          "type": "uint256"
        }
      ],
      "stateMutability": "view",
      "type": "function"
    },
    {
      "inputs": [
        {
          "internalType": "address",
          "name": "caller",
          "type": "address"
        }
      ],
      "name": "maxWithdraw",
      "outputs": [
        {
          "internalType": "uint256",
          "name": "",
          "type": "uint256"
        }
      ],
      "stateMutability": "view",
      "type": "function"
    },
    {
      "inputs": [
        {
          "internalType": "uint256",
          "name": "shares",
          "type": "uint256"
        },
        {
          "internalType": "address",
          "name": "receiver",
          "type": "address"
        }
      ],
      "name": "mint",
      "outputs": [
        {
          "internalType": "uint256",
          "name": "assets",
          "type": "uint256"
        }
      ],
      "stateMutability": "nonpayable",
      "type": "function"
    },
    {
      "inputs": [
        {
          "internalType": "uint256",
          "name": "shares",
          "type": "uint256"
        }
      ],
      "name": "mint",
      "outputs": [
        {
          "internalType": "uint256",
          "name": "",
          "type": "uint256"
        }
      ],
      "stateMutability": "nonpayable",
      "type": "function"
    },
    {
      "inputs": [],
      "name": "name",
      "outputs": [
        {
          "internalType": "string",
          "name": "",
          "type": "string"
        }
      ],
      "stateMutability": "view",
      "type": "function"
    },
    {
      "inputs": [
        {
          "internalType": "address",
          "name": "",
          "type": "address"
        }
      ],
      "name": "nonces",
      "outputs": [
        {
          "internalType": "uint256",
          "name": "",
          "type": "uint256"
        }
      ],
      "stateMutability": "view",
      "type": "function"
    },
    {
      "inputs": [],
      "name": "owner",
      "outputs": [
        {
          "internalType": "address",
          "name": "",
          "type": "address"
        }
      ],
      "stateMutability": "view",
      "type": "function"
    },
    {
      "inputs": [],
      "name": "pause",
      "outputs": [],
      "stateMutability": "nonpayable",
      "type": "function"
    },
    {
      "inputs": [],
      "name": "paused",
      "outputs": [
        {
          "internalType": "bool",
          "name": "",
          "type": "bool"
        }
      ],
      "stateMutability": "view",
      "type": "function"
    },
    {
      "inputs": [],
      "name": "pendingOwner",
      "outputs": [
        {
          "internalType": "address",
          "name": "",
          "type": "address"
        }
      ],
      "stateMutability": "view",
      "type": "function"
    },
    {
      "inputs": [
        {
          "internalType": "address",
          "name": "owner",
          "type": "address"
        },
        {
          "internalType": "address",
          "name": "spender",
          "type": "address"
        },
        {
          "internalType": "uint256",
          "name": "value",
          "type": "uint256"
        },
        {
          "internalType": "uint256",
          "name": "deadline",
          "type": "uint256"
        },
        {
          "internalType": "uint8",
          "name": "v",
          "type": "uint8"
        },
        {
          "internalType": "bytes32",
          "name": "r",
          "type": "bytes32"
        },
        {
          "internalType": "bytes32",
          "name": "s",
          "type": "bytes32"
        }
      ],
      "name": "permit",
      "outputs": [],
      "stateMutability": "nonpayable",
      "type": "function"
    },
    {
      "inputs": [
        {
          "internalType": "uint256",
          "name": "assets",
          "type": "uint256"
        }
      ],
      "name": "previewDeposit",
      "outputs": [
        {
          "internalType": "uint256",
          "name": "",
          "type": "uint256"
        }
      ],
      "stateMutability": "view",
      "type": "function"
    },
    {
      "inputs": [
        {
          "internalType": "uint256",
          "name": "shares",
          "type": "uint256"
        }
      ],
      "name": "previewMint",
      "outputs": [
        {
          "internalType": "uint256",
          "name": "",
          "type": "uint256"
        }
      ],
      "stateMutability": "view",
      "type": "function"
    },
    {
      "inputs": [
        {
          "internalType": "uint256",
          "name": "shares",
          "type": "uint256"
        }
      ],
      "name": "previewRedeem",
      "outputs": [
        {
          "internalType": "uint256",
          "name": "",
          "type": "uint256"
        }
      ],
      "stateMutability": "view",
      "type": "function"
    },
    {
      "inputs": [
        {
          "internalType": "uint256",
          "name": "assets",
          "type": "uint256"
        }
      ],
      "name": "previewWithdraw",
      "outputs": [
        {
          "internalType": "uint256",
          "name": "shares",
          "type": "uint256"
        }
      ],
      "stateMutability": "view",
      "type": "function"
    },
    {
      "inputs": [
        {
          "components": [
            {
              "internalType": "uint64",
              "name": "deposit",
              "type": "uint64"
            },
            {
              "internalType": "uint64",
              "name": "withdrawal",
              "type": "uint64"
            },
            {
              "internalType": "uint64",
              "name": "management",
              "type": "uint64"
            },
            {
              "internalType": "uint64",
              "name": "performance",
              "type": "uint64"
            }
          ],
          "internalType": "struct VaultFees",
          "name": "newFees",
          "type": "tuple"
        }
      ],
      "name": "proposeFees",
      "outputs": [],
      "stateMutability": "nonpayable",
      "type": "function"
    },
    {
      "inputs": [],
      "name": "proposedAdapterTime",
      "outputs": [
        {
          "internalType": "uint256",
          "name": "",
          "type": "uint256"
        }
      ],
      "stateMutability": "view",
      "type": "function"
    },
    {
      "inputs": [
        {
          "internalType": "uint256",
          "name": "",
          "type": "uint256"
        }
      ],
      "name": "proposedAdapters",
      "outputs": [
        {
          "internalType": "contract CompoundMarketERC4626",
          "name": "adapter",
          "type": "address"
        },
        {
          "internalType": "uint64",
          "name": "allocation",
          "type": "uint64"
        }
      ],
      "stateMutability": "view",
      "type": "function"
    },
    {
      "inputs": [],
      "name": "proposedAdaptersCount",
      "outputs": [
        {
          "internalType": "uint8",
          "name": "",
          "type": "uint8"
        }
      ],
      "stateMutability": "view",
      "type": "function"
    },
    {
      "inputs": [],
      "name": "proposedFeeTime",
      "outputs": [
        {
          "internalType": "uint256",
          "name": "",
          "type": "uint256"
        }
      ],
      "stateMutability": "view",
      "type": "function"
    },
    {
      "inputs": [],
      "name": "proposedFees",
      "outputs": [
        {
          "internalType": "uint64",
          "name": "deposit",
          "type": "uint64"
        },
        {
          "internalType": "uint64",
          "name": "withdrawal",
          "type": "uint64"
        },
        {
          "internalType": "uint64",
          "name": "management",
          "type": "uint64"
        },
        {
          "internalType": "uint64",
          "name": "performance",
          "type": "uint64"
        }
      ],
      "stateMutability": "view",
      "type": "function"
    },
    {
      "inputs": [],
      "name": "pullAccruedVaultRewards",
      "outputs": [],
      "stateMutability": "nonpayable",
      "type": "function"
    },
    {
      "inputs": [],
      "name": "quitPeriod",
      "outputs": [
        {
          "internalType": "uint256",
          "name": "",
          "type": "uint256"
        }
      ],
      "stateMutability": "view",
      "type": "function"
    },
    {
      "inputs": [
        {
          "internalType": "uint256",
          "name": "shares",
          "type": "uint256"
        },
        {
          "internalType": "address",
          "name": "receiver",
          "type": "address"
        },
        {
          "internalType": "address",
          "name": "owner",
          "type": "address"
        }
      ],
      "name": "redeem",
      "outputs": [
        {
          "internalType": "uint256",
          "name": "assets",
          "type": "uint256"
        }
      ],
      "stateMutability": "nonpayable",
      "type": "function"
    },
    {
      "inputs": [
        {
          "internalType": "uint256",
          "name": "shares",
          "type": "uint256"
        }
      ],
      "name": "redeem",
      "outputs": [
        {
          "internalType": "uint256",
          "name": "",
          "type": "uint256"
        }
      ],
      "stateMutability": "nonpayable",
      "type": "function"
    },
    {
      "inputs": [],
      "name": "registry",
      "outputs": [
        {
          "internalType": "contract OptimizedVaultsRegistry",
          "name": "",
          "type": "address"
        }
      ],
      "stateMutability": "view",
      "type": "function"
    },
    {
      "inputs": [],
      "name": "renounceOwnership",
      "outputs": [],
      "stateMutability": "nonpayable",
      "type": "function"
    },
    {
      "inputs": [
        {
          "internalType": "uint256",
          "name": "",
          "type": "uint256"
        }
      ],
      "name": "rewardTokens",
      "outputs": [
        {
          "internalType": "contract IERC20Upgradeable",
          "name": "",
          "type": "address"
        }
      ],
      "stateMutability": "view",
      "type": "function"
    },
    {
      "inputs": [
        {
          "internalType": "uint256",
          "name": "_depositLimit",
          "type": "uint256"
        }
      ],
      "name": "setDepositLimit",
      "outputs": [],
      "stateMutability": "nonpayable",
      "type": "function"
    },
    {
      "inputs": [],
      "name": "setEmergencyExit",
      "outputs": [],
      "stateMutability": "nonpayable",
      "type": "function"
    },
    {
      "inputs": [
        {
          "internalType": "address",
          "name": "_feeRecipient",
          "type": "address"
        }
      ],
      "name": "setFeeRecipient",
      "outputs": [],
      "stateMutability": "nonpayable",
      "type": "function"
    },
    {
      "inputs": [
        {
          "internalType": "uint256",
          "name": "_quitPeriod",
          "type": "uint256"
        }
      ],
      "name": "setQuitPeriod",
      "outputs": [],
      "stateMutability": "nonpayable",
      "type": "function"
    },
    {
      "inputs": [
        {
          "internalType": "uint256",
          "name": "amount",
          "type": "uint256"
        }
      ],
      "name": "supplyAPY",
      "outputs": [
        {
          "internalType": "uint256",
          "name": "",
          "type": "uint256"
        }
      ],
      "stateMutability": "view",
      "type": "function"
    },
    {
      "inputs": [],
      "name": "symbol",
      "outputs": [
        {
          "internalType": "string",
          "name": "",
          "type": "string"
        }
      ],
      "stateMutability": "view",
      "type": "function"
    },
    {
      "inputs": [],
      "name": "takeManagementAndPerformanceFees",
      "outputs": [],
      "stateMutability": "nonpayable",
      "type": "function"
    },
    {
      "inputs": [],
      "name": "totalAssets",
      "outputs": [
        {
          "internalType": "uint256",
          "name": "assets",
          "type": "uint256"
        }
      ],
      "stateMutability": "view",
      "type": "function"
    },
    {
      "inputs": [],
      "name": "totalSupply",
      "outputs": [
        {
          "internalType": "uint256",
          "name": "",
          "type": "uint256"
        }
      ],
      "stateMutability": "view",
      "type": "function"
    },
    {
      "inputs": [
        {
          "internalType": "address",
          "name": "to",
          "type": "address"
        },
        {
          "internalType": "uint256",
          "name": "amount",
          "type": "uint256"
        }
      ],
      "name": "transfer",
      "outputs": [
        {
          "internalType": "bool",
          "name": "",
          "type": "bool"
        }
      ],
      "stateMutability": "nonpayable",
      "type": "function"
    },
    {
      "inputs": [
        {
          "internalType": "address",
          "name": "from",
          "type": "address"
        },
        {
          "internalType": "address",
          "name": "to",
          "type": "address"
        },
        {
          "internalType": "uint256",
          "name": "amount",
          "type": "uint256"
        }
      ],
      "name": "transferFrom",
      "outputs": [
        {
          "internalType": "bool",
          "name": "",
          "type": "bool"
        }
      ],
      "stateMutability": "nonpayable",
      "type": "function"
    },
    {
      "inputs": [
        {
          "internalType": "address",
          "name": "newOwner",
          "type": "address"
        }
      ],
      "name": "transferOwnership",
      "outputs": [],
      "stateMutability": "nonpayable",
      "type": "function"
    },
    {
      "inputs": [],
      "name": "unpause",
      "outputs": [],
      "stateMutability": "nonpayable",
      "type": "function"
    },
    {
      "inputs": [
        {
          "internalType": "uint256",
          "name": "assets",
          "type": "uint256"
        }
      ],
      "name": "withdraw",
      "outputs": [
        {
          "internalType": "uint256",
          "name": "",
          "type": "uint256"
        }
      ],
      "stateMutability": "nonpayable",
      "type": "function"
    },
    {
      "inputs": [
        {
          "internalType": "uint256",
          "name": "assets",
          "type": "uint256"
        },
        {
          "internalType": "address",
          "name": "receiver",
          "type": "address"
        },
        {
          "internalType": "address",
          "name": "owner",
          "type": "address"
        }
      ],
      "name": "withdraw",
      "outputs": [
        {
          "internalType": "uint256",
          "name": "",
          "type": "uint256"
        }
      ],
      "stateMutability": "nonpayable",
      "type": "function"
    },
    {
      "inputs": [],
      "name": "withdrawalThreshold",
      "outputs": [
        {
          "internalType": "uint256",
          "name": "",
          "type": "uint256"
        }
      ],
      "stateMutability": "view",
      "type": "function"
    }
  ],
  "transactionHash": "0x8a653ebc12dcf1bc4b5c94f6278db78f259646d8242d529d1846f4e8b1d3db4a",
  "args": [],
  "numDeployments": 1,
  "bytecode": {
    "object": "0x60806040523480156200001157600080fd5b506200001d336200002d565b6200002762000057565b62000169565b600180546001600160a01b0319169055620000548162000119602090811b6200421217901c565b50565b602c54610100900460ff1615620000c45760405162461bcd60e51b815260206004820152602760248201527f496e697469616c697a61626c653a20636f6e747261637420697320696e697469604482015266616c697a696e6760c81b606482015260840160405180910390fd5b602c5460ff90811610156200011757602c805460ff191660ff9081179091556040519081527f7f26b83ff96e1f2b6a682f133852f6798a09c465da95921460cefb38474024989060200160405180910390a15b565b600080546001600160a01b038381166001600160a01b0319831681178455604051919092169283917f8be0079c531659141344cd1fd0a4f28419497f9722a3daafe3b4186f6b6457e09190a35050565b615e3b80620001796000396000f3fe608060405234801561001057600080fd5b506004361061048b5760003560e01c80637ecebe0011610262578063ba08765211610151578063dd62ed3e116100ce578063ef8b30f711610092578063ef8b30f7146109f3578063efbb5cb014610a06578063f2fde38b14610a0e578063f62f1d5314610a21578063f9828cff14610a4a578063fcf2d0ad14610a7c57600080fd5b8063dd62ed3e146109ab578063de7d4d6a146109be578063e30c3978146109c6578063e74b981b146109d7578063ecf70858146109ea57600080fd5b8063d505accf11610115578063d505accf14610960578063d905777e14610973578063d96880a814610986578063daa671ac1461098f578063db006a751461099857600080fd5b8063ba08765214610901578063bdc8144b14610914578063c63d75b614610927578063c6e6f5921461093a578063ce96cb771461094d57600080fd5b8063a026a15a116101df578063a9059cbb116101a3578063a9059cbb146108a2578063ac11f212146108b5578063b3d7f6b9146108c8578063b460af94146108db578063b6b55f25146108ee57600080fd5b8063a026a15a1461085a578063a0712d6814610862578063a457c2d714610875578063a4b5df1e14610888578063a71933a71461089057600080fd5b80638da5cb5b116102265780638da5cb5b146107c057806394bf804d146107d157806395d89b41146107e45780639af1d35a146107ec5780639f3d0a481461085157600080fd5b80637ecebe00146107675780638456cb59146107875780638787b17a1461078f57806388d354fa1461079857806389f8132e146107ab57600080fd5b8063402d267d1161037e5780636f706398116102fb5780637985fd51116102bf5780637985fd511461072357806379ba50971461072c5780637b103999146107345780637bb7bed1146107475780637c7a561b1461075a57600080fd5b80636f706398146106b6578063708ba9bd146106c957806370a08231146106ea578063715018a614610713578063721feea01461071b57600080fd5b80635641ec03116103425780635641ec031461067057806357fdc89b1461067d5780635a5cd45e146106905780635c975abb146106985780636e553f65146106a357600080fd5b8063402d267d146105f4578063469048401461060757806349d4139f1461061a5780634cdad506146106235780634ef501ac1461063657600080fd5b80631e8410da1161040c5780633644e515116103d05780633644e515146105ad57806338d52e0f146105b557806339509351146105c65780633b8abce9146105d95780633f4ba83a146105ec57600080fd5b80631e8410da1461055657806323b872dd1461055f5780632e1a7d4d146105725780632e9ffcbb14610585578063313ce5671461058d57600080fd5b80630c14935e116104535780630c14935e146105095780630e6e15f0146105115780630f25b7641461051957806318160ddd146105445780631883a1b61461054c57600080fd5b806301e1d1141461049057806306fdde03146104ab57806307a2d13a146104c0578063095ea7b3146104d35780630a28a477146104f6575b600080fd5b610498610a84565b6040519081526020015b60405180910390f35b6104b3610c43565b6040516104a29190615509565b6104986104ce36600461553c565b610cd5565b6104e66104e136600461556a565b610ce8565b60405190151581526020016104a2565b61049861050436600461553c565b610d00565b610498610d57565b610498610ddf565b602a5461052c906001600160a01b031681565b6040516001600160a01b0390911681526020016104a2565b60c554610498565b610554610e92565b005b61049860045481565b6104e661056d366004615596565b610f26565b61049861058036600461553c565b610f4c565b610554610f59565b600154600160a01b900460ff165b60405160ff90911681526020016104a2565b61049861101b565b60f5546001600160a01b031661052c565b6104e66105d436600461556a565b61103a565b6105546105e736600461553c565b61105c565b61055461111a565b6104986106023660046155d7565b61112c565b600a5461052c906001600160a01b031681565b61049860215481565b61049861063136600461553c565b61128f565b61064961064436600461553c565b6112ea565b604080516001600160a01b0390931683526001600160401b039091166020830152016104a2565b6026546104e69060ff1681565b61049861068b36600461553c565b61131b565b610498611498565b605f5460ff166104e6565b6104986106b13660046155f4565b6115f7565b6105546106c4366004615624565b611703565b6106dc6106d7366004615624565b611ac8565b6040516104a2929190615698565b6104986106f83660046155d7565b6001600160a01b0316600090815260c3602052604090205490565b610554611e41565b610554611e91565b61049860275481565b610554611f82565b60285461052c906001600160a01b031681565b61052c61075536600461553c565b611ff9565b601f5461059b9060ff1681565b6104986107753660046155d7565b60256020526000908152604090205481565b610554612023565b61049860205481565b6105546107a63660046156e6565b612033565b6107b3612141565b6040516104a291906156f8565b6000546001600160a01b031661052c565b6104986107df3660046155f4565b6130fa565b6104b36131f0565b60075461081e906001600160401b0380821691600160401b8104821691600160801b8204811691600160c01b90041684565b604080516001600160401b03958616815293851660208501529184169183019190915290911660608201526080016104a2565b61049860065481565b6104986131ff565b61049861087036600461553c565b61326b565b6104e661088336600461556a565b613277565b6105546132fd565b601f5461059b90610100900460ff1681565b6104e66108b036600461556a565b613862565b6106496108c336600461553c565b613870565b6104986108d636600461553c565b613880565b6104986108e9366004615746565b6138b5565b6104986108fc36600461553c565b61399d565b61049861090f366004615746565b6139a9565b61055461092236600461553c565b613a8e565b6104986109353660046155d7565b613acb565b61049861094836600461553c565b613c67565b61049861095b3660046155d7565b613c74565b61055461096e366004615797565b613cbe565b6104986109813660046155d7565b613e6d565b61049860095481565b61049860055481565b6104986109a636600461553c565b613eb7565b6104986109b9366004615808565b613ec4565b61059b600981565b6001546001600160a01b031661052c565b6105546109e53660046155d7565b613eef565b61049860225481565b610498610a0136600461553c565b613f87565b610498613fc6565b610554610a1c3660046155d7565b614056565b61052c610a2f3660046155d7565b6029602052600090815260409020546001600160a01b031681565b60085461081e906001600160401b0380821691600160401b8104821691600160801b8204811691600160c01b90041684565b6105546140c7565b6000610a9860f5546001600160a01b031690565b6040516370a0823160e01b81523060048201526001600160a01b0391909116906370a0823190602401602060405180830381865afa158015610ade573d6000803e3d6000fd5b505050506040513d601f19601f82011682018060405250810190610b029190615836565b905060005b601f5460ff9081169082161015610c3f576000600b8260ff16600a8110610b3057610b3061584f565b01546040516370a0823160e01b81523060048201526001600160a01b03909116906370a0823190602401602060405180830381865afa158015610b77573d6000803e3d6000fd5b505050506040513d601f19601f82011682018060405250810190610b9b9190615836565b9050600b8260ff16600a8110610bb357610bb361584f565b015460405163266d6a8360e11b8152600481018390526001600160a01b0390911690634cdad50690602401602060405180830381865afa158015610bfb573d6000803e3d6000fd5b505050506040513d601f19601f82011682018060405250810190610c1f9190615836565b610c29908461587b565b9250508080610c3790615893565b915050610b07565b5090565b606060028054610c52906158b3565b80601f0160208091040260200160405190810160405280929190818152602001828054610c7e906158b3565b8015610ccb5780601f10610ca057610100808354040283529160200191610ccb565b820191906000526020600020905b815481529060010190602001808311610cae57829003601f168201915b5050505050905090565b6000610ce2826000614262565b92915050565b600033610cf68185856142a9565b5060019392505050565b6000610d0b82613c67565b600754909150600160401b90046001600160401b03166000610d4382610d3981670de0b6b3a76400006158e8565b85919060006143cd565b9050610d4f818461587b565b949350505050565b60045460009081610d6f670de0b6b3a7640000610cd5565b600754909150600160c01b90046001600160401b03168015801590610d9357508282115b610d9e576000610dd7565b610dd7610daa60c55490565b610db485856158e8565b610dbe91906158ff565b82906ec097ce7bc90715b34b9f100000000060006143cd565b935050505090565b60008060005b601f5460ff16811015610e8c57600b81600a8110610e0557610e0561584f565b0154604051633af9e66960e01b81523060048201526001600160a01b0390911690633af9e66990602401602060405180830381865afa158015610e4c573d6000803e3d6000fd5b505050506040513d601f19601f82011682018060405250810190610e709190615836565b610e7a908361587b565b9150610e858161591e565b9050610de5565b50919050565b60005b601f5460ff16811015610f2357600b81600a8110610eb557610eb561584f565b01546040805163372500ab60e01b815290516001600160a01b039092169163372500ab9160048082019260009290919082900301818387803b158015610efa57600080fd5b505af1158015610f0e573d6000803e3d6000fd5b5050505080610f1c9061591e565b9050610e95565b50565b600033610f34858285614428565b610f3f8585856144a2565b60019150505b9392505050565b6000610ce28233336138b5565b6000610f636131ff565b90506000610f6f610d57565b610f79908361587b565b90506000610f85610a84565b90506000610f9a670de0b6b3a7640000610cd5565b9050600454811115610fac5760048190555b600083118015610fbc5750600082115b15611011576000610fcc60c55490565b905060008115610ff357610fee82610fe487876158e8565b87919060006143cd565b610ff5565b845b600a5490915061100e906001600160a01b03168261464d565b50505b5050426006555050565b600060235446146110335761102e61470e565b905090565b5060245490565b600033610cf681858561104d8383613ec4565b611057919061587b565b6142a9565b6110646147a8565b602154602054611074919061587b565b42108061108f575060215460095461108c919061587b565b42105b156110ad576040516372a7feb960e11b815260040160405180910390fd5b620151808110806110c0575062093a8081115b156110de57604051632c8d46cf60e21b815260040160405180910390fd5b60218190556040518181527fd259854b87ef8cd8d7492e2d94bea14658fce027a0dab955fac4c6fd2c90b2bf906020015b60405180910390a150565b6111226147a8565b61112a614802565b565b600080611137610a84565b602254909150611149605f5460ff1690565b806111545750808210155b15611163575060009392505050565b8060005b601f5460ff9081169082161015611286576000600b8260ff16600a81106111905761119061584f565b015460405163402d267d60e01b81523060048201526001600160a01b039091169063402d267d90602401602060405180830381865afa1580156111d7573d6000803e3d6000fd5b505050506040513d601f19601f820116820180604052508101906111fb9190615836565b90506000600b8360ff16600a81106112155761121561584f565b015461123990600160a01b90046001600160401b0316670de0b6b3a764000061594f565b90506112478160001961594f565b821115611258576000199150611265565b61126281836158ff565b91505b61126f8483614854565b93505050808061127e90615893565b915050611167565b50949350505050565b600061129a60c55490565b6112a657506000919050565b600754600160401b90046001600160401b031660006112db826112d181670de0b6b3a76400006158e8565b86919060006143cd565b9050610d4f6104ce82866158e8565b600b81600a81106112fa57600080fd5b01546001600160a01b0381169150600160a01b90046001600160401b031682565b600080611326613fc6565b905080158015611334575082155b156113425750600092915050565b6000805b601f5460ff168110156113ee57600b81600a81106113665761136661584f565b01546040516366d4d29560e01b8152600481018790526001600160a01b03909116906366d4d29590602401602060405180830381865afa1580156113ae573d6000803e3d6000fd5b505050506040513d601f19601f820116820180604052508101906113d29190615836565b6113dc908361587b565b91506113e78161591e565b9050611346565b50600061140360f5546001600160a01b031690565b6001600160a01b031663313ce5676040518163ffffffff1660e01b8152600401602060405180830381865afa158015611440573d6000803e3d6000fd5b505050506040513d601f19601f820116820180604052508101906114649190615971565b9050611470858461587b565b61147b82600a615a72565b61148590846158ff565b61148f919061594f565b95945050505050565b6000806114a3613fc6565b9050806114b257600091505090565b6000805b601f5460ff1681101561155f57600b81600a81106114d6576114d661584f565b01546040805163116ac4a360e01b815290516001600160a01b039092169163116ac4a3916004808201926020929091908290030181865afa15801561151f573d6000803e3d6000fd5b505050506040513d601f19601f820116820180604052508101906115439190615836565b61154d908361587b565b91506115588161591e565b90506114b6565b50600061157460f5546001600160a01b031690565b6001600160a01b031663313ce5676040518163ffffffff1660e01b8152600401602060405180830381865afa1580156115b1573d6000803e3d6000fd5b505050506040513d601f19601f820116820180604052508101906115d59190615971565b9050826115e382600a615a72565b6115ed90846158ff565b610dd7919061594f565b60006001600160a01b03821661162057604051631e4ec46b60e01b815260040160405180910390fd5b600083116116695760405162461bcd60e51b8152602060048201526011602482015270746f6f206c6974746c652061737365747360781b60448201526064015b60405180910390fd5b6116728261112c565b83111561169557604051632ccd827f60e21b815260048101849052602401611660565b61169e83613c67565b6007549091506001600160401b031660006116c582610d3981670de0b6b3a76400006158e8565b90506116d181846158e8565b925080156116ef57600a546116ef906001600160a01b03168261464d565b6116fb3385878661486a565b505092915050565b60265460ff1615611712575050565b601f5460ff16611720575050565b60006060821561173a576117348484611ac8565b90925090505b6000611744611498565b905082811015611a7a576000805b601f5460ff168110156118785760008482815181106117735761177361584f565b6020026020010151121561186857600b81600a81106117945761179461584f565b015484516001600160a01b0390911690632e1a7d4d908690849081106117bc576117bc61584f565b60200260200101516117cd90615a81565b6040518263ffffffff1660e01b81526004016117eb91815260200190565b6020604051808303816000875af115801561180a573d6000803e3d6000fd5b505050506040513d601f19601f8201168201806040525081019061182e9190615836565b8482815181106118405761184061584f565b602002602001015161185190615a81565b61185b91906158e8565b611865908361587b565b91505b6118718161591e565b9050611752565b5060275481111561189c57604051635c3810af60e01b815260040160405180910390fd5b60005b601f5460ff16811015611a775760008482815181106118c0576118c061584f565b60200260200101511315611a0257818482815181106118e1576118e161584f565b6020026020010151131561192257818482815181106119025761190261584f565b602002602001018181516119169190615a9e565b9052506000915061194a565b8381815181106119345761193461584f565b60200260200101518261194791906158e8565b91505b600b81600a811061195d5761195d61584f565b015484516001600160a01b0390911690636e553f65908690849081106119855761198561584f565b6020026020010151306040518363ffffffff1660e01b81526004016119bd9291909182526001600160a01b0316602082015260400190565b6020604051808303816000875af11580156119dc573d6000803e3d6000fd5b505050506040513d601f19601f82011682018060405250810190611a009190615836565b505b868682818110611a1457611a1461584f565b9050602002016020810190611a299190615af2565b600b82600a8110611a3c57611a3c61584f565b0180546001600160401b0392909216600160a01b0267ffffffffffffffff60a01b19909216919091179055611a708161591e565b905061189f565b50505b7febdd323f18ba49318367d0c92a04d5c51a67f15a60ad50d46523db464661a302611aa3610a84565b6040805191825260208201849052810185905260600160405180910390a15050505050565b601f5460009060609060ff168314611af35760405163cdeedcbd60e01b815260040160405180910390fd5b601f54600090819060ff166001600160401b03811115611b1557611b15615b0f565b604051908082528060200260200182016040528015611b3e578160200160208202803683370190505b5090506000611b4b613fc6565b905080611b5d57509092509050611e3a565b6000805b601f5460ff16811015611dfe57888882818110611b8057611b8061584f565b9050602002016020810190611b959190615af2565b611ba8906001600160401b03168361587b565b91506000670de0b6b3a76400008a8a84818110611bc757611bc761584f565b9050602002016020810190611bdc9190615af2565b611bef906001600160401b0316866158ff565b611bf9919061594f565b90506000600b83600a8110611c1057611c1061584f565b0154604051633af9e66960e01b81523060048201526001600160a01b0390911690633af9e66990602401602060405180830381865afa158015611c57573d6000803e3d6000fd5b505050506040513d601f19601f82011682018060405250810190611c7b9190615836565b611c859083615a9e565b90506000811315611d2a57600b83600a8110611ca357611ca361584f565b015460405163052692b960e21b8152600481018390526001600160a01b039091169063149a4ae490602401602060405180830381865afa158015611ceb573d6000803e3d6000fd5b505050506040513d601f19601f82011682018060405250810190611d0f9190615836565b611d1990836158ff565b611d23908861587b565b9650611dcc565b600b83600a8110611d3d57611d3d61584f565b01546001600160a01b0316635470eaad611d5683615a81565b6040518263ffffffff1660e01b8152600401611d7491815260200190565b602060405180830381865afa158015611d91573d6000803e3d6000fd5b505050506040513d601f19601f82011682018060405250810190611db59190615836565b611dbf90836158ff565b611dc9908861587b565b96505b80868481518110611ddf57611ddf61584f565b602002602001018181525050505080611df79061591e565b9050611b61565b50670de0b6b3a76400008114611e27576040516314b932c760e21b815260040160405180910390fd5b611e31828561594f565b95509193505050505b9250929050565b611e496147a8565b60405162461bcd60e51b815260206004820152601e60248201527f72656e6f756e6365206f776e657273686970206e6f7420616c6c6f77656400006044820152606401611660565b6009541580611eae5750602154600954611eab919061587b565b42105b15611ecc576040516372a7feb960e11b815260040160405180910390fd5b7f45ed77be57da8f5f410ebcc3de678e38b3ca03877efdf336ed54f338a8936fd860076008604051611eff929190615b25565b60405180910390a160088054600780546001600160401b038084166001600160801b031990921691909117600160401b808504831602176fffffffffffffffffffffffffffffffff16600160801b8085048316026001600160c01b031617600160c01b938490049190911690920291909117905542600655600090819055600955565b60015433906001600160a01b03168114611ff05760405162461bcd60e51b815260206004820152602960248201527f4f776e61626c6532537465703a2063616c6c6572206973206e6f7420746865206044820152683732bb9037bbb732b960b91b6064820152608401611660565b610f2381614c17565b602b818154811061200957600080fd5b6000918252602090912001546001600160a01b0316905081565b61202b6147a8565b61112a614c30565b61203b6147a8565b670de0b6b3a76400006120516020830183615af2565b6001600160401b03161015806120875750670de0b6b3a764000061207b6040830160208401615af2565b6001600160401b031610155b806120b25750670de0b6b3a76400006120a66060830160408401615af2565b6001600160401b031610155b806120dd5750670de0b6b3a76400006120d16080830160608401615af2565b6001600160401b031610155b156120fb57604051631eec0fab60e11b815260040160405180910390fd5b8060086121088282615b84565b50504260098190556040517f21db93443a1b742f71c8840e0e1f2f397db3da1530ec6117cf2d8dd16ce1458b9161110f91849190615c3c565b6040805160328082526106608201909252606091906000908260208201610640803683370190505090506306fdde0360e01b8161217d84615ca9565b93508360ff16815181106121935761219361584f565b6001600160e01b0319909216602092830291909101909101526395d89b4160e01b816121be84615ca9565b93508360ff16815181106121d4576121d461584f565b6001600160e01b03199092166020928302919091019091015263313ce56760e01b816121ff84615ca9565b93508360ff16815181106122155761221561584f565b6001600160e01b031990921660209283029190910182015260408051808201909152601881527f6465706f7369742875696e743235362c616464726573732900000000000000009101527f6e553f653991036c188afcef45e14f9ecb45269ff9c675358bbb3a2eeb78e03b8161228a84615ca9565b93508360ff16815181106122a0576122a061584f565b6001600160e01b031990921660209283029190910182015260408051808201909152601081526f6465706f7369742875696e743235362960801b9101527fb6b55f256c3eb337f96418d59e773db6e805074f5e574a2bebb7d713940436198161230884615ca9565b93508360ff168151811061231e5761231e61584f565b6001600160e01b031990921660209283029190910182015260408051808201909152600d81526c6d696e742875696e743235362960981b9101527fa0712d680358d64f694230b7cc0b277c73686bdf768385d55cd7c547d0ffd30e8161238384615ca9565b93508360ff16815181106123995761239961584f565b6001600160e01b03199092166020928302919091018201526040805180820190915260158152746d696e742875696e743235362c616464726573732960581b9101527f94bf804d99f2e506274f8f54327419cf422bd9efa05b9d7afe19d8049dcab16d8161240684615ca9565b93508360ff168151811061241c5761241c61584f565b6001600160e01b031990921660209283029190910182015260408051808201909152601181527077697468647261772875696e743235362960781b9101527f2e1a7d4d13322e7b96f9a57413e1525c250fb7a9021cf91d1540d5b69f16a49f8161248584615ca9565b93508360ff168151811061249b5761249b61584f565b6001600160e01b031990921660209283029190910182015260408051808201909152601981527f77697468647261772875696e743235362c6164647265737329000000000000009101527ef714ce93c4a188ecc0c802ca78036f638c1c4b3ee9b98f3ed75364b45f50b18161250f84615ca9565b93508360ff16815181106125255761252561584f565b6001600160e01b031990921660209283029190910182015260408051808201909152600f81526e72656465656d2875696e743235362960881b9101527fdb006a751bed9eb2097bb87aa93452cb31329759b3b6c5518170a3d50e6e985d8161258c84615ca9565b93508360ff16815181106125a2576125a261584f565b6001600160e01b031990921660209283029190910182015260408051808201909152601781527f72656465656d2875696e743235362c61646472657373290000000000000000009101527f7bde82f229a55c10b8cbb0b28f05b0b25429f94b5431a6ec532dccdcb925d6c78161261784615ca9565b93508360ff168151811061262d5761262d61584f565b6001600160e01b0319909216602092830291909101909101526278744560e21b8161265784615ca9565b93508360ff168151811061266d5761266d61584f565b6001600160e01b03199092166020928302919091019091015263ef8b30f760e01b8161269884615ca9565b93508360ff16815181106126ae576126ae61584f565b6001600160e01b03199092166020928302919091019091015263b3d7f6b960e01b816126d984615ca9565b93508360ff16815181106126ef576126ef61584f565b6001600160e01b031990921660209283029190910190910152630a28a47760e01b8161271a84615ca9565b93508360ff16815181106127305761273061584f565b6001600160e01b03199092166020928302919091019091015263266d6a8360e11b8161275b84615ca9565b93508360ff16815181106127715761277161584f565b6001600160e01b03199092166020928302919091019091015263402d267d60e01b8161279c84615ca9565b93508360ff16815181106127b2576127b261584f565b6001600160e01b03199092166020928302919091019091015263631ebadb60e11b816127dd84615ca9565b93508360ff16815181106127f3576127f361584f565b6001600160e01b03199092166020928302919091019091015263ce96cb7760e01b8161281e84615ca9565b93508360ff16815181106128345761283461584f565b6001600160e01b031990921660209283029190910190910152636c82bbbf60e11b8161285f84615ca9565b93508360ff16815181106128755761287561584f565b6001600160e01b03199092166020928302919091019091015263bdc8144b60e01b816128a084615ca9565b93508360ff16815181106128b6576128b661584f565b6001600160e01b031990921660209283029190910190910152638456cb5960e01b816128e184615ca9565b93508360ff16815181106128f7576128f761584f565b6001600160e01b031990921660209283029190910190910152631fa5d41d60e11b8161292284615ca9565b93508360ff16815181106129385761293861584f565b6001600160e01b03199092166020928302919091019091015262e6e15f60e41b8161296284615ca9565b93508360ff16815181106129785761297861584f565b6001600160e01b031990921660209283029190910190910152630efbb5cb60e41b816129a384615ca9565b93508360ff16815181106129b9576129b961584f565b6001600160e01b0319909216602092830291909101909101526357fdc89b60e01b816129e484615ca9565b93508360ff16815181106129fa576129fa61584f565b6001600160e01b0319909216602092830291909101820152604080518082019091526016815275657374696d617465644150522875696e7436345b5d2960501b9101527f708ba9bdcbd65787af3b9527c8db005be16a43b1452c07563b2df5f2fe5cdb9081612a6884615ca9565b93508360ff1681518110612a7e57612a7e61584f565b6001600160e01b031990921660209283029190910182015260408051808201909152600e81526d657374696d61746564415052282960901b9101527f5a5cd45e607b41313a1d7fc4538193824b720cc9aed8f517db4d462054447d3081612ae484615ca9565b93508360ff1681518110612afa57612afa61584f565b6001600160e01b031990921660209283029190910190910152630dee0c7360e31b81612b2584615ca9565b93508360ff1681518110612b3b57612b3b61584f565b6001600160e01b031990921660209283029190910190910152633644e51560e01b81612b6684615ca9565b93508360ff1681518110612b7c57612b7c61584f565b6001600160e01b03199092166020928302919091019091015263d505accf60e01b81612ba784615ca9565b93508360ff1681518110612bbd57612bbd61584f565b6001600160e01b03199092166020928302919091019091015263501350ad60e11b81612be884615ca9565b93508360ff1681518110612bfe57612bfe61584f565b6001600160e01b03199092166020928302919091019091015263060a49af60e11b81612c2984615ca9565b93508360ff1681518110612c3f57612c3f61584f565b6001600160e01b031990921660209283029190910190910152632e9ffcbb60e01b81612c6a84615ca9565b93508360ff1681518110612c8057612c8061584f565b6001600160e01b031990921660209283029190910190910152634469aa7d60e11b81612cab84615ca9565b93508360ff1681518110612cc157612cc161584f565b6001600160e01b031990921660209283029190910190910152630390ff7560e51b81612cec84615ca9565b93508360ff1681518110612d0257612d0261584f565b6001600160e01b03199092166020928302919091019091015263e74b981b60e01b81612d2d84615ca9565b93508360ff1681518110612d4357612d4361584f565b6001600160e01b03199092166020928302919091019091015263525aef8f60e11b81612d6e84615ca9565b93508360ff1681518110612d8457612d8461584f565b6001600160e01b031990921660209283029190910190910152633b8abce960e01b81612daf84615ca9565b93508360ff1681518110612dc557612dc561584f565b6001600160e01b03199092166020928302919091019091015263fcf2d0ad60e01b81612df084615ca9565b93508360ff1681518110612e0657612e0661584f565b6001600160e01b031990921660209283029190910190910152630c41d0db60e11b81612e3184615ca9565b93508360ff1681518110612e4757612e4761584f565b6001600160e01b0319909216602092830291909101909101526370a0823160e01b81612e7284615ca9565b93508360ff1681518110612e8857612e8861584f565b6001600160e01b03199092166020928302919091019091015263a9059cbb60e01b81612eb384615ca9565b93508360ff1681518110612ec957612ec961584f565b6001600160e01b0319909216602092830291909101909101526323b872dd60e01b81612ef484615ca9565b93508360ff1681518110612f0a57612f0a61584f565b6001600160e01b031990921660209283029190910190910152636eb1769f60e11b81612f3584615ca9565b93508360ff1681518110612f4b57612f4b61584f565b6001600160e01b03199092166020928302919091019091015263095ea7b360e01b81612f7684615ca9565b93508360ff1681518110612f8c57612f8c61584f565b6001600160e01b0319909216602092830291909101909101526363737ac960e11b81612fb784615ca9565b93508360ff1681518110612fcd57612fcd61584f565b6001600160e01b0319909216602092830291909101909101526303d1689d60e11b81612ff884615ca9565b93508360ff168151811061300e5761300e61584f565b6001600160e01b0319909216602092830291909101909101526318160ddd60e01b8161303984615ca9565b93508360ff168151811061304f5761304f61584f565b6001600160e01b0319909216602092830291909101909101526338d52e0f60e01b8161307a84615ca9565b93508360ff16815181106130905761309061584f565b6001600160e01b03199092166020928302919091019091015260ff821615610ce25760405162461bcd60e51b815260206004820152601c60248201527f7573652074686520636f7272656374206172726179206c656e677468000000006044820152606401611660565b60006001600160a01b03821661312357604051631e4ec46b60e01b815260040160405180910390fd5b61312c82613acb565b83111561314f57604051632ccd827f60e21b815260048101849052602401611660565b6007546001600160401b0316600061317382610fe481670de0b6b3a76400006158e8565b90506131826104ce828761587b565b9250600083116131c85760405162461bcd60e51b8152602060048201526011602482015270746f6f206c6974746c652073686172657360781b6044820152606401611660565b80156131e457600a546131e4906001600160a01b03168261464d565b6116fb3385858861486a565b606060038054610c52906158b3565b600754600090600160801b90046001600160401b031680613221576000613265565b670de0b6b3a764000061325b6006544261323b91906158e8565b613243610a84565b61324d91906158ff565b83906301e187e060006143cd565b613265919061594f565b91505090565b6000610ce282336130fa565b600033816132858286613ec4565b9050838110156132e55760405162461bcd60e51b815260206004820152602560248201527f45524332303a2064656372656173656420616c6c6f77616e63652062656c6f77604482015264207a65726f60d81b6064820152608401611660565b6132f282868684036142a9565b506001949350505050565b60006133076131ff565b90506000613313610d57565b61331d908361587b565b90506000613329610a84565b9050600061333e670de0b6b3a7640000610cd5565b90506004548111156133505760048190555b6000831180156133605750600082115b156133ab57600061337060c55490565b90506000811561338d5761338882610fe487876158e8565b61338f565b845b600a549091506133a8906001600160a01b03168261464d565b50505b4260065560205415806133cc57506021546020546133c9919061587b565b42105b156133ea576040516372a7feb960e11b815260040160405180910390fd5b60005b601f5460ff90811690821610156135c257600b8160ff16600a81106134145761341461584f565b01546001600160a01b031663ba087652600b60ff8416600a811061343a5761343a61584f565b01546040516370a0823160e01b81523060048201526001600160a01b03909116906370a0823190602401602060405180830381865afa158015613481573d6000803e3d6000fd5b505050506040513d601f19601f820116820180604052508101906134a59190615836565b6040516001600160e01b031960e084901b1681526004810191909152306024820181905260448201526064016020604051808303816000875af11580156134f0573d6000803e3d6000fd5b505050506040513d601f19601f820116820180604052508101906135149190615836565b5060f5546001600160a01b031663095ea7b3600b60ff8416600a811061353c5761353c61584f565b015460405160e083901b6001600160e01b03191681526001600160a01b039091166004820152600060248201526044016020604051808303816000875af115801561358b573d6000803e3d6000fd5b505050506040513d601f19601f820116820180604052508101906135af9190615cc6565b50806135ba81615893565b9150506133ed565b50601f546040517f367b7d3d6134f2e3f69f8ae645467ffde048ae3307c4399ce9b3bd22c796f7f29161360991600b9160ff80821692601592610100900490911690615d26565b60405180910390a161361f600b6015600a61543b565b50601f8054610100810460ff1660ff1990911617905560f5546000906001600160a01b03166040516370a0823160e01b81523060048201526001600160a01b0391909116906370a0823190602401602060405180830381865afa15801561368a573d6000803e3d6000fd5b505050506040513d601f19601f820116820180604052508101906136ae9190615836565b905060005b601f5460ff908116908216101561383e5760f5546001600160a01b031663095ea7b3600b60ff8416600a81106136eb576136eb61584f565b015460405160e083901b6001600160e01b03191681526001600160a01b03909116600482015260001960248201526044016020604051808303816000875af115801561373b573d6000803e3d6000fd5b505050506040513d601f19601f8201168201806040525081019061375f9190615cc6565b50600b8160ff16600a81106137765761377661584f565b01546001600160a01b0316636e553f656137c3600b60ff8516600a811061379f5761379f61584f565b01548590600160a01b90046001600160401b0316670de0b6b3a764000060006143cd565b6040516001600160e01b031960e084901b16815260048101919091523060248201526044016020604051808303816000875af1158015613807573d6000803e3d6000fd5b505050506040513d601f19601f8201168201806040525081019061382b9190615836565b508061383681615893565b9150506136b3565b5061384b601560006154b3565b5050601f805461ff00191690555050600060205550565b600033610cf68185856144a2565b601581600a81106112fa57600080fd5b6007546000906001600160401b0316816138a6826112d181670de0b6b3a76400006158e8565b9050610d4f6104ce828661587b565b60006001600160a01b0383166138de57604051631e4ec46b60e01b815260040160405180910390fd5b600084116139225760405162461bcd60e51b8152602060048201526011602482015270746f6f206c6974746c652061737365747360781b6044820152606401611660565b600061392d85613c67565b600754909150600160401b90046001600160401b0316600061395b82610d3981670de0b6b3a76400006158e8565b9050613967818461587b565b9250801561398557600a54613985906001600160a01b03168261464d565b6139923387878a87614c6d565b509095945050505050565b6000610ce282336115f7565b60006001600160a01b0383166139d257604051631e4ec46b60e01b815260040160405180910390fd5b600754600160401b90046001600160401b03166000613a07826139fd81670de0b6b3a76400006158e8565b88919060006143cd565b9050613a166104ce82886158e8565b925060008311613a5c5760405162461bcd60e51b8152602060048201526011602482015270746f6f206c6974746c652073686172657360781b6044820152606401611660565b8015613a7857600a54613a78906001600160a01b03168261464d565b613a85338686868a614c6d565b50509392505050565b613a966147a8565b60228190556040518181527f5d2e73196f8ba1b44e887e2bcc9bcd1f3e657add341d4a0a632ffff00d6903f29060200161110f565b600080613ad6610a84565b602254909150613ae8605f5460ff1690565b80613af35750808210155b15613b02575060009392505050565b6000613b106009600a615a72565b60c554613b1d919061587b565b613b299060001961594f565b60225411613b3f57613b3a82613c67565b613b43565b6000195b905060005b601f5460ff9081169082161015611286576000600b8260ff16600a8110613b7157613b7161584f565b015460405163631ebadb60e11b81523060048201526001600160a01b039091169063c63d75b690602401602060405180830381865afa158015613bb8573d6000803e3d6000fd5b505050506040513d601f19601f82011682018060405250810190613bdc9190615836565b90506000600b8360ff16600a8110613bf657613bf661584f565b0154613c1a90600160a01b90046001600160401b0316670de0b6b3a764000061594f565b9050613c288160001961594f565b821115613c39576000199150613c46565b613c4381836158ff565b91505b613c508483614854565b935050508080613c5f90615893565b915050613b48565b6000610ce2826000614e9b565b6001600160a01b038116600090815260c3602052604081205480613c9b5750600092915050565b6000613ca68261128f565b90506000613cb2610a84565b905061148f8183614854565b42841015613ce257604051632b9b60b760e01b815260048101859052602401611660565b60006001613cee61101b565b6001600160a01b038a811660008181526025602090815260409182902080546001810190915582517f6e71edae12b1b97f4d1f60370fef10105fa2faae0126114a169c64845d6126c98184015280840194909452938d166060840152608083018c905260a083019390935260c08083018b90528151808403909101815260e08301909152805192019190912061190160f01b6101008301526101028201929092526101228101919091526101420160408051601f198184030181528282528051602091820120600084529083018083525260ff871690820152606081018590526080810184905260a0016020604051602081039080840390855afa158015613dfa573d6000803e3d6000fd5b5050604051601f1901519150506001600160a01b0381161580613e2f5750876001600160a01b0316816001600160a01b031614155b15613e585760405163bf18af4360e01b81526001600160a01b0382166004820152602401611660565b613e638188886142a9565b5050505050505050565b6001600160a01b038116600090815260c3602052604081205480613e945750600092915050565b6000613e9e610a84565b90506000613eab82610d00565b905061148f8184614854565b6000610ce28233336139a9565b6001600160a01b03918216600090815260c46020908152604080832093909416825291909152205490565b613ef76147a8565b6001600160a01b038116613f1e57604051630ed1b8b360e31b815260040160405180910390fd5b600a54604080516001600160a01b03928316815291831660208301527faaebcf1bfa00580e41d966056b48521fa9f202645c86d4ddf28113e617c1b1d3910160405180910390a1600a80546001600160a01b0319166001600160a01b0392909216919091179055565b600080613f9383613c67565b6007549091506001600160401b03166000613fba82610d3981670de0b6b3a76400006158e8565b905061148f81846158e8565b6000613fda60f5546001600160a01b031690565b6040516370a0823160e01b81523060048201526001600160a01b0391909116906370a0823190602401602060405180830381865afa158015614020573d6000803e3d6000fd5b505050506040513d601f19601f820116820180604052508101906140449190615836565b61404c610ddf565b61102e919061587b565b61405e6147a8565b600180546001600160a01b0383166001600160a01b0319909116811790915561408f6000546001600160a01b031690565b6001600160a01b03167f38d16b8cac22d99fc7c124b9cd0de2d3fa1faef420bfe791d8c362d765e2270060405160405180910390a350565b6000546001600160a01b03163314806140ea57506028546001600160a01b031633145b61412e5760405162461bcd60e51b81526020600482015260156024820152743737ba103932b3b4b9ba393c9037b91037bbb732b960591b6044820152606401611660565b60005b601f5460ff168110156141d157600b81600a81106141515761415161584f565b01546040805163429c145b60e11b815290516001600160a01b039092169163853828b69160048082019260209290919082900301816000875af115801561419c573d6000803e3d6000fd5b505050506040513d601f19601f820116820180604052508101906141c09190615cc6565b506141ca8161591e565b9050614131565b506026805460ff191660011790556141e7614c30565b6040517f17fa25a1c2ac074f71f0cf4f6af525c06fab7d83eff5ffcf6df5277f2919ae2490600090a1565b600080546001600160a01b038381166001600160a01b0319831681178455604051919092169283917f8be0079c531659141344cd1fd0a4f28419497f9722a3daafe3b4186f6b6457e09190a35050565b60008061426e60c55490565b905080614293576142816009600a615a72565b61428b908561594f565b915050610ce2565b61428b8482856142a1610a84565b9291906143cd565b6001600160a01b03831661430b5760405162461bcd60e51b8152602060048201526024808201527f45524332303a20617070726f76652066726f6d20746865207a65726f206164646044820152637265737360e01b6064820152608401611660565b6001600160a01b03821661436c5760405162461bcd60e51b815260206004820152602260248201527f45524332303a20617070726f766520746f20746865207a65726f206164647265604482015261737360f01b6064820152608401611660565b6001600160a01b03838116600081815260c4602090815260408083209487168084529482529182902085905590518481527f8c5be1e5ebec7d5bd14f71427d1e84f3dd0314c0f7b2291e5b200ac8c7c3b925910160405180910390a3505050565b6000806143db868686614edc565b905060018360028111156143f1576143f1615d60565b14801561440e57506000848061440957614409615939565b868809115b1561148f5761441e60018261587b565b9695505050505050565b60006144348484613ec4565b9050600019811461449c578181101561448f5760405162461bcd60e51b815260206004820152601d60248201527f45524332303a20696e73756666696369656e7420616c6c6f77616e63650000006044820152606401611660565b61449c84848484036142a9565b50505050565b6001600160a01b0383166145065760405162461bcd60e51b815260206004820152602560248201527f45524332303a207472616e736665722066726f6d20746865207a65726f206164604482015264647265737360d81b6064820152608401611660565b6001600160a01b0382166145685760405162461bcd60e51b815260206004820152602360248201527f45524332303a207472616e7366657220746f20746865207a65726f206164647260448201526265737360e81b6064820152608401611660565b6001600160a01b038316600090815260c36020526040902054818110156145e05760405162461bcd60e51b815260206004820152602660248201527f45524332303a207472616e7366657220616d6f756e7420657863656564732062604482015265616c616e636560d01b6064820152608401611660565b6001600160a01b03808516600081815260c3602052604080822086860390559286168082529083902080548601905591517fddf252ad1be2c89b69c2b068fc378daa952ba7f163c4a11628f55a4df523b3ef906146409086815260200190565b60405180910390a361449c565b6001600160a01b0382166146a35760405162461bcd60e51b815260206004820152601f60248201527f45524332303a206d696e7420746f20746865207a65726f2061646472657373006044820152606401611660565b8060c560008282546146b5919061587b565b90915550506001600160a01b038216600081815260c360209081526040808320805486019055518481527fddf252ad1be2c89b69c2b068fc378daa952ba7f163c4a11628f55a4df523b3ef910160405180910390a35050565b60007f8b73c3c69bb8fe3d512ecc4cf759cc79239f7b179b0ffacaa9a75d522b39400f60026040516147409190615d76565b6040805191829003822060208301939093528101919091527fc89efdaa54c0f20c7adf612882df0950f5a951637e0307cdcb4c672f298b8bc660608201524660808201523060a082015260c00160405160208183030381529060405280519060200120905090565b6000546001600160a01b0316331461112a5760405162461bcd60e51b815260206004820181905260248201527f4f776e61626c653a2063616c6c6572206973206e6f7420746865206f776e65726044820152606401611660565b61480a614f91565b605f805460ff191690557f5db9ee0a495bf2e6ff9c91a7834c1ba4fdd244a5e8aa4e537bd38aeae4b073aa335b6040516001600160a01b03909116815260200160405180910390a1565b60008183106148635781610f45565b5090919050565b614872614fda565b61487a615034565b6001600160a01b0383166148a157604051631e4ec46b60e01b815260040160405180910390fd5b60006148b560f5546001600160a01b031690565b6040516370a0823160e01b81526001600160a01b03878116600483015291925084918316906370a0823190602401602060405180830381865afa158015614900573d6000803e3d6000fd5b505050506040513d601f19601f820116820180604052508101906149249190615836565b101561496a5760405162461bcd60e51b815260206004820152601560248201527421696e73756666696369656e742062616c616e636560581b6044820152606401611660565b604051636eb1769f60e11b81526001600160a01b03868116600483015230602483015284919083169063dd62ed3e90604401602060405180830381865afa1580156149b9573d6000803e3d6000fd5b505050506040513d601f19601f820116820180604052508101906149dd9190615836565b1015614a2b5760405162461bcd60e51b815260206004820152601760248201527f21696e73756666696369656e7420616c6c6f77616e63650000000000000000006044820152606401611660565b614a406001600160a01b03821686308661507a565b6040516370a0823160e01b81523060048201526000906001600160a01b038316906370a0823190602401602060405180830381865afa158015614a87573d6000803e3d6000fd5b505050506040513d601f19601f82011682018060405250810190614aab9190615836565b905060005b601f5460ff9081169082161015614baa576000614b00600b8360ff16600a8110614adc57614adc61584f565b01548490600160a01b90046001600160401b0316670de0b6b3a764000060006143cd565b90506064811115614b9757600b8260ff16600a8110614b2157614b2161584f565b0154604051636e553f6560e01b8152600481018390523060248201526001600160a01b0390911690636e553f65906044016020604051808303816000875af1158015614b71573d6000803e3d6000fd5b505050506040513d601f19601f82011682018060405250810190614b959190615836565b505b5080614ba281615893565b915050614ab0565b50614bb5858461464d565b846001600160a01b0316866001600160a01b03167fdcbc1c05240f31ff3ad067ef1ee35ce4997762752e3a095284754544f4c709d78686604051614c03929190918252602082015260400190565b60405180910390a3505061449c6001609155565b600180546001600160a01b0319169055610f2381614212565b614c38615034565b605f805460ff191660011790557f62e78cea01bee320cd4e420270b5ea74000d11b0c9f74754ebdbfc544b05a2586148373390565b614c75614fda565b826001600160a01b0316856001600160a01b031614614c9957614c99838683614428565b6000614ca460c55490565b9050614cb084836150e5565b60005b601f5460ff9081169082161015614e01576000600b8260ff16600a8110614cdc57614cdc61584f565b01546040516370a0823160e01b81523060048201526001600160a01b03909116906370a0823190602401602060405180830381865afa158015614d23573d6000803e3d6000fd5b505050506040513d601f19601f82011682018060405250810190614d479190615836565b90506000614d5882868660016143cd565b9050600b8360ff16600a8110614d7057614d7061584f565b0154604051635d043b2960e11b815260048101839052306024820181905260448201526001600160a01b039091169063ba087652906064016020604051808303816000875af1158015614dc7573d6000803e3d6000fd5b505050506040513d601f19601f82011682018060405250810190614deb9190615836565b5050508080614df990615893565b915050614cb3565b50614e298584614e1960f5546001600160a01b031690565b6001600160a01b03169190615219565b836001600160a01b0316856001600160a01b0316876001600160a01b03167ffbde797d201c681b91056529119e0b02407c7bb96a4a2c75c01fc9667232c8db8686604051614e81929190918252602082015260400190565b60405180910390a450614e946001609155565b5050505050565b600080614ea760c55490565b905080614ec457614eba6009600a615a72565b61428b90856158ff565b61428b81614ed0610a84565b856142a188600161587b565b600080806000198587098587029250828110838203039150508060001415614f1757838281614f0d57614f0d615939565b0492505050610f45565b808411614f2357600080fd5b60008486880960026001871981018816978890046003810283188082028403028082028403028082028403028082028403028082028403029081029092039091026000889003889004909101858311909403939093029303949094049190911702949350505050565b505050565b605f5460ff1661112a5760405162461bcd60e51b815260206004820152601460248201527314185d5cd8589b194e881b9bdd081c185d5cd95960621b6044820152606401611660565b6002609154141561502d5760405162461bcd60e51b815260206004820152601f60248201527f5265656e7472616e637947756172643a207265656e7472616e742063616c6c006044820152606401611660565b6002609155565b605f5460ff161561112a5760405162461bcd60e51b815260206004820152601060248201526f14185d5cd8589b194e881c185d5cd95960821b6044820152606401611660565b6040516001600160a01b038085166024830152831660448201526064810182905261449c9085906323b872dd60e01b906084015b60408051601f198184030181529190526020810180516001600160e01b03166001600160e01b031990931692909217909152615249565b6001600160a01b0382166151455760405162461bcd60e51b815260206004820152602160248201527f45524332303a206275726e2066726f6d20746865207a65726f206164647265736044820152607360f81b6064820152608401611660565b6001600160a01b038216600090815260c36020526040902054818110156151b95760405162461bcd60e51b815260206004820152602260248201527f45524332303a206275726e20616d6f756e7420657863656564732062616c616e604482015261636560f01b6064820152608401611660565b6001600160a01b038316600081815260c360209081526040808320868603905560c580548790039055518581529192917fddf252ad1be2c89b69c2b068fc378daa952ba7f163c4a11628f55a4df523b3ef910160405180910390a3505050565b6040516001600160a01b038316602482015260448101829052614f8c90849063a9059cbb60e01b906064016150ae565b600061529e826040518060400160405280602081526020017f5361666545524332303a206c6f772d6c6576656c2063616c6c206661696c6564815250856001600160a01b031661531b9092919063ffffffff16565b805190915015614f8c57808060200190518101906152bc9190615cc6565b614f8c5760405162461bcd60e51b815260206004820152602a60248201527f5361666545524332303a204552433230206f7065726174696f6e20646964206e6044820152691bdd081cdd58d8d9595960b21b6064820152608401611660565b6060610d4f848460008585600080866001600160a01b031685876040516153429190615e12565b60006040518083038185875af1925050503d806000811461537f576040519150601f19603f3d011682016040523d82523d6000602084013e615384565b606091505b5091509150615395878383876153a0565b979650505050505050565b6060831561540c578251615405576001600160a01b0385163b6154055760405162461bcd60e51b815260206004820152601d60248201527f416464726573733a2063616c6c20746f206e6f6e2d636f6e74726163740000006044820152606401611660565b5081610d4f565b610d4f83838151156154215781518083602001fd5b8060405162461bcd60e51b81526004016116609190615509565b82600a81019282156154a7579182015b828111156154a757825482546001600160a01b039091166001600160a01b031982168117845584546001600160e01b031990921617600160a01b918290046001600160401b03169091021782556001928301929091019061544b565b50610c3f9291506154be565b50610f2390600a8101905b5b80821115610c3f5780546001600160e01b03191681556001016154bf565b60005b838110156154f85781810151838201526020016154e0565b8381111561449c5750506000910152565b60208152600082518060208401526155288160408501602087016154dd565b601f01601f19169190910160400192915050565b60006020828403121561554e57600080fd5b5035919050565b6001600160a01b0381168114610f2357600080fd5b6000806040838503121561557d57600080fd5b823561558881615555565b946020939093013593505050565b6000806000606084860312156155ab57600080fd5b83356155b681615555565b925060208401356155c681615555565b929592945050506040919091013590565b6000602082840312156155e957600080fd5b8135610f4581615555565b6000806040838503121561560757600080fd5b82359150602083013561561981615555565b809150509250929050565b6000806020838503121561563757600080fd5b82356001600160401b038082111561564e57600080fd5b818501915085601f83011261566257600080fd5b81358181111561567157600080fd5b8660208260051b850101111561568657600080fd5b60209290920196919550909350505050565b6000604082018483526020604081850152818551808452606086019150828701935060005b818110156156d9578451835293830193918301916001016156bd565b5090979650505050505050565b600060808284031215610e8c57600080fd5b6020808252825182820181905260009190848201906040850190845b8181101561573a5783516001600160e01b03191683529284019291840191600101615714565b50909695505050505050565b60008060006060848603121561575b57600080fd5b83359250602084013561576d81615555565b9150604084013561577d81615555565b809150509250925092565b60ff81168114610f2357600080fd5b600080600080600080600060e0888a0312156157b257600080fd5b87356157bd81615555565b965060208801356157cd81615555565b9550604088013594506060880135935060808801356157eb81615788565b9699959850939692959460a0840135945060c09093013592915050565b6000806040838503121561581b57600080fd5b823561582681615555565b9150602083013561561981615555565b60006020828403121561584857600080fd5b5051919050565b634e487b7160e01b600052603260045260246000fd5b634e487b7160e01b600052601160045260246000fd5b6000821982111561588e5761588e615865565b500190565b600060ff821660ff8114156158aa576158aa615865565b60010192915050565b600181811c908216806158c757607f821691505b60208210811415610e8c57634e487b7160e01b600052602260045260246000fd5b6000828210156158fa576158fa615865565b500390565b600081600019048311821515161561591957615919615865565b500290565b600060001982141561593257615932615865565b5060010190565b634e487b7160e01b600052601260045260246000fd5b60008261596c57634e487b7160e01b600052601260045260246000fd5b500490565b60006020828403121561598357600080fd5b8151610f4581615788565b600181815b808511156159c95781600019048211156159af576159af615865565b808516156159bc57918102915b93841c9390800290615993565b509250929050565b6000826159e057506001610ce2565b816159ed57506000610ce2565b8160018114615a035760028114615a0d57615a29565b6001915050610ce2565b60ff841115615a1e57615a1e615865565b50506001821b610ce2565b5060208310610133831016604e8410600b8410161715615a4c575081810a610ce2565b615a56838361598e565b8060001904821115615a6a57615a6a615865565b029392505050565b6000610f4560ff8416836159d1565b6000600160ff1b821415615a9757615a97615865565b5060000390565b60008083128015600160ff1b850184121615615abc57615abc615865565b6001600160ff1b0384018313811615615ad757615ad7615865565b50500390565b6001600160401b0381168114610f2357600080fd5b600060208284031215615b0457600080fd5b8135610f4581615add565b634e487b7160e01b600052604160045260246000fd5b82546001600160401b038082168352604082811c82166020850152608083811c83168286015260c093841c60608601528554808416828701529182901c831660a086015281901c90911682840152901c60e08201526101008101610f45565b8135615b8f81615add565b6001600160401b03811690508154816001600160401b031982161783556020840135615bba81615add565b6fffffffffffffffff0000000000000000604091821b166001600160801b0319831684178117855590850135615bef81615add565b67ffffffffffffffff60801b60809190911b166001600160c01b03199283168417821781178555606086013592615c2584615add565b808460c01b16858417831717865550505050505050565b60a081018335615c4b81615add565b6001600160401b039081168352602085013590615c6782615add565b9081166020840152604085013590615c7e82615add565b9081166040840152606085013590615c9582615add565b166060830152608090910191909152919050565b600060ff821680615cbc57615cbc615865565b6000190192915050565b600060208284031215615cd857600080fd5b81518015158114610f4557600080fd5b8060005b600a81101561449c5781546001600160a01b038116855260a01c6001600160401b0316602085015260409093019260019182019101615cec565b6105408101615d358287615ce8565b60ff8516610280830152615d4d6102a0830185615ce8565b60ff831661052083015295945050505050565b634e487b7160e01b600052602160045260246000fd5b600080835481600182811c915080831680615d9257607f831692505b6020808410821415615db257634e487b7160e01b86526022600452602486fd5b818015615dc65760018114615dd757615e04565b60ff19861689528489019650615e04565b60008a81526020902060005b86811015615dfc5781548b820152908501908301615de3565b505084890196505b509498975050505050505050565b60008251615e248184602087016154dd565b919091019291505056fea164736f6c634300080a000a",
    "linkReferences": {}
  },
  "methodIdentifiers": {
    "DECIMAL_OFFSET()": "de7d4d6a",
    "DOMAIN_SEPARATOR()": "3644e515",
    "_getExtensionFunctions()": "89f8132e",
    "acceptOwnership()": "79ba5097",
    "accruedManagementFee()": "a026a15a",
    "accruedPerformanceFee()": "0c14935e",
    "adapters(uint256)": "4ef501ac",
    "adaptersCount()": "7c7a561b",
    "allowance(address,address)": "dd62ed3e",
    "approve(address,uint256)": "095ea7b3",
    "asset()": "38d52e0f",
    "assetsCheckpoint()": "daa671ac",
    "balanceOf(address)": "70a08231",
    "changeAdapters()": "a4b5df1e",
    "changeFees()": "721feea0",
    "convertToAssets(uint256)": "07a2d13a",
    "convertToShares(uint256)": "c6e6f592",
    "decimals()": "313ce567",
    "decreaseAllowance(address,uint256)": "a457c2d7",
    "deposit(uint256)": "b6b55f25",
    "deposit(uint256,address)": "6e553f65",
    "depositLimit()": "ecf70858",
    "emergencyExit()": "5641ec03",
    "estimatedAPR()": "5a5cd45e",
    "estimatedAPR(uint64[])": "708ba9bd",
    "estimatedTotalAssets()": "efbb5cb0",
    "feeRecipient()": "46904840",
    "fees()": "9af1d35a",
    "feesUpdatedAt()": "9f3d0a48",
    "flywheelForRewardToken(address)": "f62f1d53",
    "flywheelLogic()": "0f25b764",
    "harvest(uint64[])": "6f706398",
    "highWaterMark()": "1e8410da",
    "increaseAllowance(address,uint256)": "39509351",
    "lentTotalAssets()": "0e6e15f0",
    "maxDeposit(address)": "402d267d",
    "maxMint(address)": "c63d75b6",
    "maxRedeem(address)": "d905777e",
    "maxWithdraw(address)": "ce96cb77",
    "mint(uint256)": "a0712d68",
    "mint(uint256,address)": "94bf804d",
    "name()": "06fdde03",
    "nonces(address)": "7ecebe00",
    "owner()": "8da5cb5b",
    "pause()": "8456cb59",
    "paused()": "5c975abb",
    "pendingOwner()": "e30c3978",
    "permit(address,address,uint256,uint256,uint8,bytes32,bytes32)": "d505accf",
    "previewDeposit(uint256)": "ef8b30f7",
    "previewMint(uint256)": "b3d7f6b9",
    "previewRedeem(uint256)": "4cdad506",
    "previewWithdraw(uint256)": "0a28a477",
    "proposeFees((uint64,uint64,uint64,uint64))": "88d354fa",
    "proposedAdapterTime()": "8787b17a",
    "proposedAdapters(uint256)": "ac11f212",
    "proposedAdaptersCount()": "a71933a7",
    "proposedFeeTime()": "d96880a8",
    "proposedFees()": "f9828cff",
    "pullAccruedVaultRewards()": "1883a1b6",
    "quitPeriod()": "49d4139f",
    "redeem(uint256)": "db006a75",
    "redeem(uint256,address,address)": "ba087652",
    "registry()": "7b103999",
    "renounceOwnership()": "715018a6",
    "rewardTokens(uint256)": "7bb7bed1",
    "setDepositLimit(uint256)": "bdc8144b",
    "setEmergencyExit()": "fcf2d0ad",
    "setFeeRecipient(address)": "e74b981b",
    "setQuitPeriod(uint256)": "3b8abce9",
    "supplyAPY(uint256)": "57fdc89b",
    "symbol()": "95d89b41",
    "takeManagementAndPerformanceFees()": "2e9ffcbb",
    "totalAssets()": "01e1d114",
    "totalSupply()": "18160ddd",
    "transfer(address,uint256)": "a9059cbb",
    "transferFrom(address,address,uint256)": "23b872dd",
    "transferOwnership(address)": "f2fde38b",
    "unpause()": "3f4ba83a",
    "withdraw(uint256)": "2e1a7d4d",
    "withdraw(uint256,address,address)": "b460af94",
    "withdrawalThreshold()": "7985fd51"
  }
}