{
  "address": "0xE46DD857b1154566228f97b8ade25755F8B349f5",
  "abi": [
    {
      "inputs": [
        {
          "internalType": "contract IERC20Upgradeable",
          "name": "inputToken",
          "type": "address"
        },
        {
          "internalType": "uint256",
          "name": "inputAmount",
          "type": "uint256"
        },
        {
          "internalType": "bytes",
          "name": "strategyData",
          "type": "bytes"
        }
      ],
      "name": "convert",
      "outputs": [
        {
          "internalType": "contract IERC20Upgradeable",
          "name": "outputToken",
          "type": "address"
        },
        {
          "internalType": "uint256",
          "name": "outputAmount",
          "type": "uint256"
        }
      ],
      "stateMutability": "nonpayable",
      "type": "function"
    },
    {
      "inputs": [
        {
          "internalType": "uint256",
          "name": "outputAmount",
          "type": "uint256"
        },
        {
          "internalType": "bytes",
          "name": "strategyData",
          "type": "bytes"
        }
      ],
      "name": "estimateInputAmount",
      "outputs": [
        {
          "internalType": "contract IERC20Upgradeable",
          "name": "inputToken",
          "type": "address"
        },
        {
          "internalType": "uint256",
          "name": "inputAmount",
          "type": "uint256"
        }
      ],
      "stateMutability": "view",
      "type": "function"
    },
    {
      "inputs": [],
      "name": "name",
      "outputs": [
        {
          "internalType": "string",
          "name": "",
          "type": "string"
        }
      ],
      "stateMutability": "pure",
      "type": "function"
    },
    {
      "inputs": [
        {
          "internalType": "contract IERC20Upgradeable",
          "name": "inputToken",
          "type": "address"
        },
        {
          "internalType": "uint256",
          "name": "inputAmount",
          "type": "uint256"
        },
        {
          "internalType": "bytes",
          "name": "strategyData",
          "type": "bytes"
        }
      ],
      "name": "redeem",
      "outputs": [
        {
          "internalType": "contract IERC20Upgradeable",
          "name": "outputToken",
          "type": "address"
        },
        {
          "internalType": "uint256",
          "name": "outputAmount",
          "type": "uint256"
        }
      ],
      "stateMutability": "nonpayable",
      "type": "function"
    }
  ],
  "transactionHash": "0xb8dbc463e1e89d81f220056f86cec2436c27802a975a970b854a5a61b0e78327",
  "args": [],
  "numDeployments": 1,
  "bytecode": {
    "object": "0x608060405234801561001057600080fd5b506108a4806100206000396000f3fe608060405234801561001057600080fd5b506004361061004c5760003560e01c806306fdde031461005157806310badf4e1461009957806330132996146100cb57806389eabf0214610099575b600080fd5b604080518082018252601981527f556e697377617056324c697175696461746f7246756e64657200000000000000602082015290516100909190610406565b60405180910390f35b6100ac6100a736600461052a565b6100de565b604080516001600160a01b039093168352602083019190915201610090565b6100ac6100d9366004610583565b6100f8565b6000806100ec8585856101fd565b91509150935093915050565b6000806000808480602001905181019061011291906105ee565b915091506002815110156101415760405162461bcd60e51b8152600401610138906106a4565b60405180910390fd5b6040516307c0329d60e21b81526000906001600160a01b03841690631f00ca7490610172908a90869060040161072c565b600060405180830381865afa15801561018f573d6000803e3d6000fd5b505050506040513d6000823e601f3d908101601f191682016040526101b7919081019061074d565b9050806000815181106101cc576101cc6107de565b60200260200101519350816000815181106101e9576101e96107de565b602002602001015194505050509250929050565b6000806000808480602001905181019061021791906105ee565b9150915060028151101580156102585750866001600160a01b031681600081518110610245576102456107de565b60200260200101516001600160a01b0316145b6102745760405162461bcd60e51b8152600401610138906106a4565b60405163095ea7b360e01b81526001600160a01b0383811660048301526024820188905288169063095ea7b3906044016020604051808303816000875af11580156102c3573d6000803e3d6000fd5b505050506040513d601f19601f820116820180604052508101906102e791906107f4565b506040516338ed173960e01b81526001600160a01b038316906338ed17399061031d90899060009086903090429060040161081d565b6000604051808303816000875af115801561033c573d6000803e3d6000fd5b505050506040513d6000823e601f3d908101601f19168201604052610364919081019061074d565b5080600182516103749190610859565b81518110610384576103846107de565b60209081029190910101516040516370a0823160e01b81523060048201529094506001600160a01b038516906370a0823190602401602060405180830381865afa1580156103d6573d6000803e3d6000fd5b505050506040513d601f19601f820116820180604052508101906103fa919061087e565b92505050935093915050565b600060208083528351808285015260005b8181101561043357858101830151858201604001528201610417565b81811115610445576000604083870101525b50601f01601f1916929092016040019392505050565b6001600160a01b038116811461047057600080fd5b50565b634e487b7160e01b600052604160045260246000fd5b604051601f8201601f1916810167ffffffffffffffff811182821017156104b2576104b2610473565b604052919050565b600082601f8301126104cb57600080fd5b813567ffffffffffffffff8111156104e5576104e5610473565b6104f8601f8201601f1916602001610489565b81815284602083860101111561050d57600080fd5b816020850160208301376000918101602001919091529392505050565b60008060006060848603121561053f57600080fd5b833561054a8161045b565b925060208401359150604084013567ffffffffffffffff81111561056d57600080fd5b610579868287016104ba565b9150509250925092565b6000806040838503121561059657600080fd5b82359150602083013567ffffffffffffffff8111156105b457600080fd5b6105c0858286016104ba565b9150509250929050565b600067ffffffffffffffff8211156105e4576105e4610473565b5060051b60200190565b6000806040838503121561060157600080fd5b825161060c8161045b565b8092505060208084015167ffffffffffffffff81111561062b57600080fd5b8401601f8101861361063c57600080fd5b805161064f61064a826105ca565b610489565b81815260059190911b8201830190838101908883111561066e57600080fd5b928401925b828410156106955783516106868161045b565b82529284019290840190610673565b80955050505050509250929050565b60208082526024908201527f496e76616c696420556e69737761704c697175696461746f722073776170207060408201526330ba341760e11b606082015260800190565b600081518084526020808501945080840160005b838110156107215781516001600160a01b0316875295820195908201906001016106fc565b509495945050505050565b82815260406020820152600061074560408301846106e8565b949350505050565b6000602080838503121561076057600080fd5b825167ffffffffffffffff81111561077757600080fd5b8301601f8101851361078857600080fd5b805161079661064a826105ca565b81815260059190911b820183019083810190878311156107b557600080fd5b928401925b828410156107d3578351825292840192908401906107ba565b979650505050505050565b634e487b7160e01b600052603260045260246000fd5b60006020828403121561080657600080fd5b8151801515811461081657600080fd5b9392505050565b85815284602082015260a06040820152600061083c60a08301866106e8565b6001600160a01b0394909416606083015250608001529392505050565b60008282101561087957634e487b7160e01b600052601160045260246000fd5b500390565b60006020828403121561089057600080fd5b505191905056fea164736f6c634300080a000a",
    "linkReferences": {}
  },
  "methodIdentifiers": {
    "convert(address,uint256,bytes)": "89eabf02",
    "estimateInputAmount(uint256,bytes)": "30132996",
    "name()": "06fdde03",
    "redeem(address,uint256,bytes)": "10badf4e"
  }
}