{
  "address": "0x917Ce994CabD61861c2d46D12e2b3516Ba6D8F68",
  "abi": [
    {
      "anonymous": false,
      "inputs": [
        {
          "indexed": false,
          "internalType": "uint8",
          "name": "version",
          "type": "uint8"
        }
      ],
      "name": "Initialized",
      "type": "event"
    },
    {
      "anonymous": false,
      "inputs": [
        {
          "indexed": false,
          "internalType": "address",
          "name": "oldOwner",
          "type": "address"
        },
        {
          "indexed": false,
          "internalType": "address",
          "name": "newOwner",
          "type": "address"
        }
      ],
      "name": "NewOwner",
      "type": "event"
    },
    {
      "anonymous": false,
      "inputs": [
        {
          "indexed": false,
          "internalType": "address",
          "name": "oldPendingOwner",
          "type": "address"
        },
        {
          "indexed": false,
          "internalType": "address",
          "name": "newPendingOwner",
          "type": "address"
        }
      ],
      "name": "NewPendingOwner",
      "type": "event"
    },
    {
      "anonymous": false,
      "inputs": [
        {
          "indexed": true,
          "internalType": "address",
          "name": "previousOwner",
          "type": "address"
        },
        {
          "indexed": true,
          "internalType": "address",
          "name": "newOwner",
          "type": "address"
        }
      ],
      "name": "OwnershipTransferred",
      "type": "event"
    },
    {
      "inputs": [
        {
          "internalType": "uint256",
          "name": "",
          "type": "uint256"
        }
      ],
      "name": "SUPPORTED_BASE_TOKENS",
      "outputs": [
        {
          "internalType": "address",
          "name": "",
          "type": "address"
        }
      ],
      "stateMutability": "view",
      "type": "function"
    },
    {
      "inputs": [],
      "name": "WTOKEN",
      "outputs": [
        {
          "internalType": "address",
          "name": "",
          "type": "address"
        }
      ],
      "stateMutability": "view",
      "type": "function"
    },
    {
      "inputs": [],
      "name": "_acceptOwner",
      "outputs": [],
      "stateMutability": "nonpayable",
      "type": "function"
    },
    {
      "inputs": [
        {
          "internalType": "address",
          "name": "newPendingOwner",
          "type": "address"
        }
      ],
      "name": "_setPendingOwner",
      "outputs": [],
      "stateMutability": "nonpayable",
      "type": "function"
    },
    {
      "inputs": [
        {
          "internalType": "address[]",
          "name": "_supportedBaseTokens",
          "type": "address[]"
        }
      ],
      "name": "_setSupportedBaseTokens",
      "outputs": [],
      "stateMutability": "nonpayable",
      "type": "function"
    },
    {
      "inputs": [],
      "name": "canAdminOverwrite",
      "outputs": [
        {
          "internalType": "bool",
          "name": "",
          "type": "bool"
        }
      ],
      "stateMutability": "view",
      "type": "function"
    },
    {
      "inputs": [
        {
          "internalType": "address",
          "name": "token0",
          "type": "address"
        },
        {
          "internalType": "address",
          "name": "priceToken",
          "type": "address"
        },
        {
          "internalType": "uint160",
          "name": "sqrtPriceX96",
          "type": "uint160"
        }
      ],
      "name": "getPriceX96FromSqrtPriceX96",
      "outputs": [
        {
          "internalType": "uint256",
          "name": "price",
          "type": "uint256"
        }
      ],
      "stateMutability": "pure",
      "type": "function"
    },
    {
      "inputs": [],
      "name": "getSupportedBaseTokens",
      "outputs": [
        {
          "internalType": "address[]",
          "name": "",
          "type": "address[]"
        }
      ],
      "stateMutability": "view",
      "type": "function"
    },
    {
      "inputs": [
        {
          "internalType": "contract CTokenInterface",
          "name": "cToken",
          "type": "address"
        }
      ],
      "name": "getUnderlyingPrice",
      "outputs": [
        {
          "internalType": "uint256",
          "name": "",
          "type": "uint256"
        }
      ],
      "stateMutability": "view",
      "type": "function"
    },
    {
      "inputs": [
        {
          "internalType": "address",
          "name": "_wtoken",
          "type": "address"
        },
        {
          "internalType": "address[]",
          "name": "_supportedBaseTokens",
          "type": "address[]"
        }
      ],
      "name": "initialize",
      "outputs": [],
      "stateMutability": "nonpayable",
      "type": "function"
    },
    {
      "inputs": [],
      "name": "isPriceOracle",
      "outputs": [
        {
          "internalType": "bool",
          "name": "",
          "type": "bool"
        }
      ],
      "stateMutability": "view",
      "type": "function"
    },
    {
      "inputs": [],
      "name": "owner",
      "outputs": [
        {
          "internalType": "address",
          "name": "",
          "type": "address"
        }
      ],
      "stateMutability": "view",
      "type": "function"
    },
    {
      "inputs": [],
      "name": "pendingOwner",
      "outputs": [
        {
          "internalType": "address",
          "name": "",
          "type": "address"
        }
      ],
      "stateMutability": "view",
      "type": "function"
    },
    {
      "inputs": [
        {
          "internalType": "address",
          "name": "",
          "type": "address"
        }
      ],
      "name": "poolFeeds",
      "outputs": [
        {
          "internalType": "address",
          "name": "poolAddress",
          "type": "address"
        },
        {
          "internalType": "uint256",
          "name": "twapWindow",
          "type": "uint256"
        },
        {
          "internalType": "address",
          "name": "baseToken",
          "type": "address"
        }
      ],
      "stateMutability": "view",
      "type": "function"
    },
    {
      "inputs": [
        {
          "internalType": "address",
          "name": "underlying",
          "type": "address"
        }
      ],
      "name": "price",
      "outputs": [
        {
          "internalType": "uint256",
          "name": "",
          "type": "uint256"
        }
      ],
      "stateMutability": "view",
      "type": "function"
    },
    {
      "inputs": [],
      "name": "renounceOwnership",
      "outputs": [],
      "stateMutability": "nonpayable",
      "type": "function"
    },
    {
      "inputs": [
        {
          "internalType": "address[]",
          "name": "underlyings",
          "type": "address[]"
        },
        {
          "components": [
            {
              "internalType": "address",
              "name": "poolAddress",
              "type": "address"
            },
            {
              "internalType": "uint256",
              "name": "twapWindow",
              "type": "uint256"
            },
            {
              "internalType": "address",
              "name": "baseToken",
              "type": "address"
            }
          ],
          "internalType": "struct ConcentratedLiquidityBasePriceOracle.AssetConfig[]",
          "name": "assetConfig",
          "type": "tuple[]"
        }
      ],
      "name": "setPoolFeeds",
      "outputs": [],
      "stateMutability": "nonpayable",
      "type": "function"
    },
    {
      "inputs": [
        {
          "internalType": "address",
          "name": "",
          "type": "address"
        }
      ],
      "name": "transferOwnership",
      "outputs": [],
      "stateMutability": "nonpayable",
      "type": "function"
    }
  ],
  "transactionHash": "0xe83da733cc77e1ed00ae35b1fdc5b5a56ee4ac909b3141dd89dba577bf1e0aec",
  "args": [],
  "numDeployments": 1,
  "bytecode": {
    "object": "0x608060405234801561001057600080fd5b50611bdd806100206000396000f3fe608060405234801561001057600080fd5b50600436106101165760003560e01c8063946d9204116100a2578063d856737d11610071578063d856737d14610289578063e30c39781461029c578063f2fde38b146102af578063fc4d33f9146102c2578063fc57d4df146102ca57600080fd5b8063946d9204146101ec578063aea91078146101ff578063b92363a314610212578063cef109011461022557600080fd5b80636d913a1c116100e95780636d913a1c146101885780636e96dfd71461019d578063715018a6146101b257806379422aba146101ba5780638da5cb5b146101db57600080fd5b80630fee7bc11461011b5780635bcf1f761461014b578063656b0fd11461016357806366331bba14610180575b600080fd5b61012e610129366004611431565b6102dd565b6040516001600160a01b0390911681526020015b60405180910390f35b60675461012e9061010090046001600160a01b031681565b6067546101709060ff1681565b6040519015158152602001610142565b610170600181565b610190610307565b604051610142919061144a565b6101b06101ab3660046114ac565b610369565b005b6101b06103d3565b6101cd6101c83660046114c9565b61041b565b604051908152602001610142565b6033546001600160a01b031661012e565b6101b06101fa36600461161c565b6104b0565b6101cd61020d3660046114ac565b6105f8565b6101b061022036600461166c565b610609565b61025f6102333660046114ac565b6066602052600090815260409020805460018201546002909201546001600160a01b0391821692911683565b604080516001600160a01b0394851681526020810193909352921691810191909152606001610142565b6101b0610297366004611766565b6107fa565b60655461012e906001600160a01b031681565b6101b06102bd3660046114ac565b6103d3565b6101b0610819565b6101cd6102d83660046114ac565b61092d565b606881815481106102ed57600080fd5b6000918252602090912001546001600160a01b0316905081565b6060606880548060200260200160405190810160405280929190818152602001828054801561035f57602002820191906000526020600020905b81546001600160a01b03168152600190910190602001808311610341575b5050505050905090565b610371610a29565b606580546001600160a01b038381166001600160a01b031983168117909355604080519190921680825260208201939093527fb3d55174552271a4f1aaf36b72f50381e892171636b3fb5447fe00e995e7a37b91015b60405180910390a15050565b6103db610a29565b60405162461bcd60e51b815260206004820152601060248201526f6e6f74207573656420616e796d6f726560801b60448201526064015b60405180910390fd5b6000826001600160a01b0316846001600160a01b03161415610467576104606001600160a01b0383168061045b670de0b6b3a7640000600160c01b6117cf565b610a85565b90506104a9565b61048b6001600160a01b0383168061045b670de0b6b3a7640000600160c01b6117cf565b90506104a6816ec097ce7bc90715b34b9f10000000006117cf565b90505b9392505050565b600054610100900460ff16158080156104d05750600054600160ff909116105b806104ea5750303b1580156104ea575060005460ff166001145b61054d5760405162461bcd60e51b815260206004820152602e60248201527f496e697469616c697a61626c653a20636f6e747261637420697320616c72656160448201526d191e481a5b9a5d1a585b1a5e995960921b6064820152608401610412565b6000805460ff191660011790558015610570576000805461ff0019166101001790555b61057933610b34565b60678054610100600160a81b0319166101006001600160a01b0386160217905581516105ac9060689060208501906113b7565b5080156105f3576000805461ff0019169055604051600181527f7f26b83ff96e1f2b6a682f133852f6798a09c465da95921460cefb38474024989060200160405180910390a15b505050565b600061060382610b6f565b92915050565b610611610a29565b60008251118015610623575080518251145b6106955760405162461bcd60e51b815260206004820152603860248201527f4c656e67746873206f6620626f746820617272617973206d757374206265206560448201527f7175616c20616e642067726561746572207468616e20302e00000000000000006064820152608401610412565b60005b82518110156105f35760008382815181106106b5576106b56117e3565b60200260200101519050606760019054906101000a90046001600160a01b03166001600160a01b03168383815181106106f0576106f06117e3565b6020026020010151604001516001600160a01b031614806107325750610732838381518110610721576107216117e3565b602002602001015160400151610f69565b61077e5760405162461bcd60e51b815260206004820152601c60248201527f4261736520746f6b656e206d75737420626520737570706f72746564000000006044820152606401610412565b828281518110610790576107906117e3565b6020908102919091018101516001600160a01b03928316600090815260668352604090819020825181549086166001600160a01b031991821617825593830151600182015591015160029091018054919093169116179055806107f2816117f9565b915050610698565b610802610a29565b80516108159060689060208401906113b7565b5050565b6065546001600160a01b0316331461086b5760405162461bcd60e51b81526020600482015260156024820152743737ba103a3432903832b73234b7339037bbb732b960591b6044820152606401610412565b600061087f6033546001600160a01b031690565b6065549091506001600160a01b031661089781610fd3565b606580546001600160a01b0319169055604080516001600160a01b0384168152600060208201527f70aea8d848e8a90fb7661b227dc522eb6395c3dac71b63cb59edd5c9899b2364910160405180910390a1606554604080516001600160a01b03808516825290921660208301527fb3d55174552271a4f1aaf36b72f50381e892171636b3fb5447fe00e995e7a37b91016103c7565b600080826001600160a01b0316636f307dc36040518163ffffffff1660e01b8152600401602060405180830381865afa15801561096e573d6000803e3d6000fd5b505050506040513d601f19601f820116820180604052508101906109929190611814565b9050806001600160a01b031663313ce5676040518163ffffffff1660e01b8152600401602060405180830381865afa1580156109d2573d6000803e3d6000fd5b505050506040513d601f19601f820116820180604052508101906109f69190611831565b610a049060ff16600a611938565b610a0d82610b6f565b610a1f90670de0b6b3a7640000611944565b6104a991906117cf565b6033546001600160a01b03163314610a835760405162461bcd60e51b815260206004820181905260248201527f4f776e61626c653a2063616c6c6572206973206e6f7420746865206f776e65726044820152606401610412565b565b600080806000198587098587029250828110838203039150508060001415610abf5760008411610ab457600080fd5b5082900490506104a9565b808411610acb57600080fd5b60008486880960026001871981018816978890046003810283188082028403028082028403028082028403028082028403028082028403029081029092039091026000889003889004909101858311909403939093029303949094049190911702949350505050565b600054610100900460ff16610b5b5760405162461bcd60e51b815260040161041290611963565b610b63611025565b610b6c81610fd3565b50565b604080516002808252606082018352600092839291906020830190803683375050506001600160a01b03848116600090815260666020526040812060018101546002909101548451949550909392169183918591610bcf57610bcf6117e3565b602002602001019063ffffffff16908163ffffffff1681525050600083600181518110610bfe57610bfe6117e3565b63ffffffff9092166020928302919091018201526001600160a01b0380871660009081526066909252604080832054905163883bdbfd60e01b815291169190829063883bdbfd90610c539088906004016119ae565b600060405180830381865afa158015610c70573d6000803e3d6000fd5b505050506040513d6000823e601f3d908101601f19168201604052610c989190810190611a50565b50905060008482600081518110610cb157610cb16117e3565b602002602001015183600181518110610ccc57610ccc6117e3565b6020026020010151610cde9190611b12565b610ce89190611b62565b90506000610cf582611054565b90506000610d65856001600160a01b0316630dfe16816040518163ffffffff1660e01b8152600401602060405180830381865afa158015610d3a573d6000803e3d6000fd5b505050506040513d601f19601f82011682018060405250810190610d5e9190611814565b8b8461041b565b90506001600160a01b0386161580610d8f57506067546001600160a01b0387811661010090920416145b15610da1579998505050505050505050565b6040516315d5220f60e31b81526001600160a01b0387166004820152600090339063aea9107890602401602060405180830381865afa158015610de8573d6000803e3d6000fd5b505050506040513d601f19601f82011682018060405250810190610e0c9190611ba0565b90506000876001600160a01b031663313ce5676040518163ffffffff1660e01b8152600401602060405180830381865afa158015610e4e573d6000803e3d6000fd5b505050506040513d601f19601f82011682018060405250810190610e729190611831565b60ff16905060008c6001600160a01b031663313ce5676040518163ffffffff1660e01b8152600401602060405180830381865afa158015610eb7573d6000803e3d6000fd5b505050506040513d601f19601f82011682018060405250810190610edb9190611831565b60ff169050600081831115610f1057610ef48284611bb9565b610eff90600a611938565b610f0990866117cf565b9050610f3a565b81831015610f3757610f228383611bb9565b610f2d90600a611938565b610f099086611944565b50835b670de0b6b3a7640000610f4d8583611944565b610f5791906117cf565b9e9d5050505050505050505050505050565b6000805b606854811015610fca57826001600160a01b031660688281548110610f9457610f946117e3565b6000918252602090912001546001600160a01b03161415610fb85750600192915050565b80610fc2816117f9565b915050610f6d565b50600092915050565b603380546001600160a01b038381166001600160a01b0319831681179093556040519116919082907f8be0079c531659141344cd1fd0a4f28419497f9722a3daafe3b4186f6b6457e090600090a35050565b600054610100900460ff1661104c5760405162461bcd60e51b815260040161041290611963565b610a83611387565b60008060008360020b1261106b578260020b611073565b8260020b6000035b9050620d89e88111156110ac5760405162461bcd60e51b81526020600482015260016024820152601560fa1b6044820152606401610412565b6000600182166110c057600160801b6110d2565b6ffffcb933bd6fad37aa2d162d1a5940015b70ffffffffffffffffffffffffffffffffff1690506002821615611106576ffff97272373d413259a46990580e213a0260801c5b6004821615611125576ffff2e50f5f656932ef12357cf3c7fdcc0260801c5b6008821615611144576fffe5caca7e10e4e61c3624eaa0941cd00260801c5b6010821615611163576fffcb9843d60f6159c9db58835c9266440260801c5b6020821615611182576fff973b41fa98c081472e6896dfb254c00260801c5b60408216156111a1576fff2ea16466c96a3843ec78b326b528610260801c5b60808216156111c0576ffe5dee046a99a2a811c461f1969c30530260801c5b6101008216156111e0576ffcbe86c7900a88aedcffc83b479aa3a40260801c5b610200821615611200576ff987a7253ac413176f2b074cf7815e540260801c5b610400821615611220576ff3392b0822b70005940c7a398e4b70f30260801c5b610800821615611240576fe7159475a2c29b7443b29c7fa6e889d90260801c5b611000821615611260576fd097f3bdfd2022b8845ad8f792aa58250260801c5b612000821615611280576fa9f746462d870fdf8a65dc1f90e061e50260801c5b6140008216156112a0576f70d869a156d2a1b890bb3df62baf32f70260801c5b6180008216156112c0576f31be135f97d08fd981231505542fcfa60260801c5b620100008216156112e1576f09aa508b5b7a84e1c677de54f3e99bc90260801c5b62020000821615611301576e5d6af8dedb81196699c329225ee6040260801c5b62040000821615611320576d2216e584f5fa1ea926041bedfe980260801c5b6208000082161561133d576b048a170391f7dc42444e8fa20260801c5b60008460020b131561135e57806000198161135a5761135a6117a3565b0490505b640100000000810615611372576001611375565b60005b60ff16602082901c0192505050919050565b600054610100900460ff166113ae5760405162461bcd60e51b815260040161041290611963565b610a8333610fd3565b82805482825590600052602060002090810192821561140c579160200282015b8281111561140c57825182546001600160a01b0319166001600160a01b039091161782556020909201916001909101906113d7565b5061141892915061141c565b5090565b5b80821115611418576000815560010161141d565b60006020828403121561144357600080fd5b5035919050565b6020808252825182820181905260009190848201906040850190845b8181101561148b5783516001600160a01b031683529284019291840191600101611466565b50909695505050505050565b6001600160a01b0381168114610b6c57600080fd5b6000602082840312156114be57600080fd5b81356104a981611497565b6000806000606084860312156114de57600080fd5b83356114e981611497565b925060208401356114f981611497565b9150604084013561150981611497565b809150509250925092565b634e487b7160e01b600052604160045260246000fd5b6040516060810167ffffffffffffffff8111828210171561154d5761154d611514565b60405290565b604051601f8201601f1916810167ffffffffffffffff8111828210171561157c5761157c611514565b604052919050565b600067ffffffffffffffff82111561159e5761159e611514565b5060051b60200190565b600082601f8301126115b957600080fd5b813560206115ce6115c983611584565b611553565b82815260059290921b840181019181810190868411156115ed57600080fd5b8286015b8481101561161157803561160481611497565b83529183019183016115f1565b509695505050505050565b6000806040838503121561162f57600080fd5b823561163a81611497565b9150602083013567ffffffffffffffff81111561165657600080fd5b611662858286016115a8565b9150509250929050565b600080604080848603121561168057600080fd5b833567ffffffffffffffff8082111561169857600080fd5b6116a4878388016115a8565b94506020915081860135818111156116bb57600080fd5b86019050601f810187136116ce57600080fd5b80356116dc6115c982611584565b8181526060918202830184019184820191908a8411156116fb57600080fd5b938501935b838510156117555780858c0312156117185760008081fd5b61172061152a565b853561172b81611497565b815285870135878201528786013561174281611497565b8189015283529384019391850191611700565b508096505050505050509250929050565b60006020828403121561177857600080fd5b813567ffffffffffffffff81111561178f57600080fd5b61179b848285016115a8565b949350505050565b634e487b7160e01b600052601260045260246000fd5b634e487b7160e01b600052601160045260246000fd5b6000826117de576117de6117a3565b500490565b634e487b7160e01b600052603260045260246000fd5b600060001982141561180d5761180d6117b9565b5060010190565b60006020828403121561182657600080fd5b81516104a981611497565b60006020828403121561184357600080fd5b815160ff811681146104a957600080fd5b600181815b8085111561188f578160001904821115611875576118756117b9565b8085161561188257918102915b93841c9390800290611859565b509250929050565b6000826118a657506001610603565b816118b357506000610603565b81600181146118c957600281146118d3576118ef565b6001915050610603565b60ff8411156118e4576118e46117b9565b50506001821b610603565b5060208310610133831016604e8410600b8410161715611912575081810a610603565b61191c8383611854565b8060001904821115611930576119306117b9565b029392505050565b60006104a98383611897565b600081600019048311821515161561195e5761195e6117b9565b500290565b6020808252602b908201527f496e697469616c697a61626c653a20636f6e7472616374206973206e6f74206960408201526a6e697469616c697a696e6760a81b606082015260800190565b6020808252825182820181905260009190848201906040850190845b8181101561148b57835163ffffffff16835292840192918401916001016119ca565b600082601f8301126119fd57600080fd5b81516020611a0d6115c983611584565b82815260059290921b84018101918181019086841115611a2c57600080fd5b8286015b84811015611611578051611a4381611497565b8352918301918301611a30565b60008060408385031215611a6357600080fd5b825167ffffffffffffffff80821115611a7b57600080fd5b818501915085601f830112611a8f57600080fd5b81516020611a9f6115c983611584565b82815260059290921b84018101918181019089841115611abe57600080fd5b948201945b83861015611aec5785518060060b8114611add5760008081fd5b82529482019490820190611ac3565b91880151919650909350505080821115611b0557600080fd5b50611662858286016119ec565b60008160060b8360060b6000811281667fffffffffffff1901831281151615611b3d57611b3d6117b9565b81667fffffffffffff018313811615611b5857611b586117b9565b5090039392505050565b60008160060b8360060b80611b7957611b796117a3565b667fffffffffffff19821460001982141615611b9757611b976117b9565b90059392505050565b600060208284031215611bb257600080fd5b5051919050565b600082821015611bcb57611bcb6117b9565b50039056fea164736f6c634300080a000a",
    "linkReferences": {}
  },
  "methodIdentifiers": {
    "SUPPORTED_BASE_TOKENS(uint256)": "0fee7bc1",
    "WTOKEN()": "5bcf1f76",
    "_acceptOwner()": "fc4d33f9",
    "_setPendingOwner(address)": "6e96dfd7",
    "_setSupportedBaseTokens(address[])": "d856737d",
    "canAdminOverwrite()": "656b0fd1",
    "getPriceX96FromSqrtPriceX96(address,address,uint160)": "79422aba",
    "getSupportedBaseTokens()": "6d913a1c",
    "getUnderlyingPrice(address)": "fc57d4df",
    "initialize(address,address[])": "946d9204",
    "isPriceOracle()": "66331bba",
    "owner()": "8da5cb5b",
    "pendingOwner()": "e30c3978",
    "poolFeeds(address)": "cef10901",
    "price(address)": "aea91078",
    "renounceOwnership()": "715018a6",
    "setPoolFeeds(address[],(address,uint256,address)[])": "b92363a3",
    "transferOwnership(address)": "f2fde38b"
  }
}