{
  "address": "0xEA2625561057da50ea329f1Ed448aa43FDa0C0ee",
  "abi": [
    {
      "inputs": [
        {
          "internalType": "contract ICToken",
          "name": "cToken",
          "type": "address"
        }
      ],
      "name": "getUnderlyingPrice",
      "outputs": [
        {
          "internalType": "uint256",
          "name": "",
          "type": "uint256"
        }
      ],
      "stateMutability": "view",
      "type": "function"
    },
    {
      "inputs": [
        {
          "internalType": "address",
          "name": "underlying",
          "type": "address"
        }
      ],
      "name": "price",
      "outputs": [
        {
          "internalType": "uint256",
          "name": "",
          "type": "uint256"
        }
      ],
      "stateMutability": "view",
      "type": "function"
    }
  ],
  "transactionHash": "0xc27106a1344ceba629c199bcf2825ef9765e75a2c239c6c76b48a49465b587b4",
  "args": [],
  "numDeployments": 1,
  "bytecode": {
    "object": "0x608060405234801561001057600080fd5b5060cf8061001f6000396000f3fe6080604052348015600f57600080fd5b506004361060325760003560e01c8063aea91078146037578063fc57d4df146037575b600080fd5b604f60423660046078565b50670de0b6b3a764000090565b60405190815260200160405180910390f35b6001600160a01b0381168114607557600080fd5b50565b600060208284031215608957600080fd5b81356092816061565b939250505056fea26469706673582212209e1465f89063ba83608e9ba06663da84b472db75cc0e601397368af3040e2d2764736f6c634300080a0033",
    "linkReferences": {}
  }
}