{
  "address": "0xA7B9F9B18587A3854aE41C80a08291eca149bCB7",
  "abi": [
    {
      "type": "function",
      "name": "_becomeImplementation",
      "inputs": [
        {
          "name": "data",
          "type": "bytes",
          "internalType": "bytes"
        }
      ],
      "outputs": [],
      "stateMutability": "nonpayable"
    },
    {
      "type": "function",
      "name": "_getExtensionFunctions",
      "inputs": [],
      "outputs": [
        {
          "name": "functionSelectors",
          "type": "bytes4[]",
          "internalType": "bytes4[]"
        }
      ],
      "stateMutability": "pure"
    },
    {
      "type": "function",
      "name": "_updatePlugin",
      "inputs": [
        {
          "name": "_plugin",
          "type": "address",
          "internalType": "address"
        }
      ],
      "outputs": [],
      "stateMutability": "nonpayable"
    },
    {
      "type": "function",
      "name": "_withdrawAdminFees",
      "inputs": [
        {
          "name": "withdrawAmount",
          "type": "uint256",
          "internalType": "uint256"
        }
      ],
      "outputs": [
        {
          "name": "",
          "type": "uint256",
          "internalType": "uint256"
        }
      ],
      "stateMutability": "nonpayable"
    },
    {
      "type": "function",
      "name": "_withdrawIonicFees",
      "inputs": [
        {
          "name": "withdrawAmount",
          "type": "uint256",
          "internalType": "uint256"
        }
      ],
      "outputs": [
        {
          "name": "",
          "type": "uint256",
          "internalType": "uint256"
        }
      ],
      "stateMutability": "nonpayable"
    },
    {
      "type": "function",
      "name": "accrualBlockNumber",
      "inputs": [],
      "outputs": [
        {
          "name": "",
          "type": "uint256",
          "internalType": "uint256"
        }
      ],
      "stateMutability": "view"
    },
    {
      "type": "function",
      "name": "adminFeeMantissa",
      "inputs": [],
      "outputs": [
        {
          "name": "",
          "type": "uint256",
          "internalType": "uint256"
        }
      ],
      "stateMutability": "view"
    },
    {
      "type": "function",
      "name": "borrow",
      "inputs": [
        {
          "name": "borrowAmount",
          "type": "uint256",
          "internalType": "uint256"
        }
      ],
      "outputs": [
        {
          "name": "",
          "type": "uint256",
          "internalType": "uint256"
        }
      ],
      "stateMutability": "nonpayable"
    },
    {
      "type": "function",
      "name": "borrowIndex",
      "inputs": [],
      "outputs": [
        {
          "name": "",
          "type": "uint256",
          "internalType": "uint256"
        }
      ],
      "stateMutability": "view"
    },
    {
      "type": "function",
      "name": "comptroller",
      "inputs": [],
      "outputs": [
        {
          "name": "",
          "type": "address",
          "internalType": "contract IonicComptroller"
        }
      ],
      "stateMutability": "view"
    },
    {
      "type": "function",
      "name": "contractType",
      "inputs": [],
      "outputs": [
        {
          "name": "",
          "type": "string",
          "internalType": "string"
        }
      ],
      "stateMutability": "pure"
    },
    {
      "type": "function",
      "name": "decimals",
      "inputs": [],
      "outputs": [
        {
          "name": "",
          "type": "uint8",
          "internalType": "uint8"
        }
      ],
      "stateMutability": "view"
    },
    {
      "type": "function",
      "name": "delegateType",
      "inputs": [],
      "outputs": [
        {
          "name": "",
          "type": "uint8",
          "internalType": "uint8"
        }
      ],
      "stateMutability": "pure"
    },
    {
      "type": "function",
      "name": "feeSeizeShareMantissa",
      "inputs": [],
      "outputs": [
        {
          "name": "",
          "type": "uint256",
          "internalType": "uint256"
        }
      ],
      "stateMutability": "view"
    },
    {
      "type": "function",
      "name": "getCash",
      "inputs": [],
      "outputs": [
        {
          "name": "",
          "type": "uint256",
          "internalType": "uint256"
        }
      ],
      "stateMutability": "view"
    },
    {
      "type": "function",
      "name": "interestRateModel",
      "inputs": [],
      "outputs": [
        {
          "name": "",
          "type": "address",
          "internalType": "contract InterestRateModel"
        }
      ],
      "stateMutability": "view"
    },
    {
      "type": "function",
      "name": "ionicAdmin",
      "inputs": [],
      "outputs": [
        {
          "name": "",
          "type": "address",
          "internalType": "address payable"
        }
      ],
      "stateMutability": "view"
    },
    {
      "type": "function",
      "name": "ionicFeeMantissa",
      "inputs": [],
      "outputs": [
        {
          "name": "",
          "type": "uint256",
          "internalType": "uint256"
        }
      ],
      "stateMutability": "view"
    },
    {
      "type": "function",
      "name": "liquidateBorrow",
      "inputs": [
        {
          "name": "borrower",
          "type": "address",
          "internalType": "address"
        },
        {
          "name": "repayAmount",
          "type": "uint256",
          "internalType": "uint256"
        },
        {
          "name": "cTokenCollateral",
          "type": "address",
          "internalType": "address"
        }
      ],
      "outputs": [
        {
          "name": "",
          "type": "uint256",
          "internalType": "uint256"
        }
      ],
      "stateMutability": "nonpayable"
    },
    {
      "type": "function",
      "name": "mint",
      "inputs": [
        {
          "name": "mintAmount",
          "type": "uint256",
          "internalType": "uint256"
        }
      ],
      "outputs": [
        {
          "name": "",
          "type": "uint256",
          "internalType": "uint256"
        }
      ],
      "stateMutability": "nonpayable"
    },
    {
      "type": "function",
      "name": "name",
      "inputs": [],
      "outputs": [
        {
          "name": "",
          "type": "string",
          "internalType": "string"
        }
      ],
      "stateMutability": "view"
    },
    {
      "type": "function",
      "name": "plugin",
      "inputs": [],
      "outputs": [
        {
          "name": "",
          "type": "address",
          "internalType": "contract IERC4626"
        }
      ],
      "stateMutability": "view"
    },
    {
      "type": "function",
      "name": "protocolSeizeShareMantissa",
      "inputs": [],
      "outputs": [
        {
          "name": "",
          "type": "uint256",
          "internalType": "uint256"
        }
      ],
      "stateMutability": "view"
    },
    {
      "type": "function",
      "name": "redeem",
      "inputs": [
        {
          "name": "redeemTokens",
          "type": "uint256",
          "internalType": "uint256"
        }
      ],
      "outputs": [
        {
          "name": "",
          "type": "uint256",
          "internalType": "uint256"
        }
      ],
      "stateMutability": "nonpayable"
    },
    {
      "type": "function",
      "name": "redeemUnderlying",
      "inputs": [
        {
          "name": "redeemAmount",
          "type": "uint256",
          "internalType": "uint256"
        }
      ],
      "outputs": [
        {
          "name": "",
          "type": "uint256",
          "internalType": "uint256"
        }
      ],
      "stateMutability": "nonpayable"
    },
    {
      "type": "function",
      "name": "repayBorrow",
      "inputs": [
        {
          "name": "repayAmount",
          "type": "uint256",
          "internalType": "uint256"
        }
      ],
      "outputs": [
        {
          "name": "",
          "type": "uint256",
          "internalType": "uint256"
        }
      ],
      "stateMutability": "nonpayable"
    },
    {
      "type": "function",
      "name": "repayBorrowBehalf",
      "inputs": [
        {
          "name": "borrower",
          "type": "address",
          "internalType": "address"
        },
        {
          "name": "repayAmount",
          "type": "uint256",
          "internalType": "uint256"
        }
      ],
      "outputs": [
        {
          "name": "",
          "type": "uint256",
          "internalType": "uint256"
        }
      ],
      "stateMutability": "nonpayable"
    },
    {
      "type": "function",
      "name": "reserveFactorMantissa",
      "inputs": [],
      "outputs": [
        {
          "name": "",
          "type": "uint256",
          "internalType": "uint256"
        }
      ],
      "stateMutability": "view"
    },
    {
      "type": "function",
      "name": "seize",
      "inputs": [
        {
          "name": "liquidator",
          "type": "address",
          "internalType": "address"
        },
        {
          "name": "borrower",
          "type": "address",
          "internalType": "address"
        },
        {
          "name": "seizeTokens",
          "type": "uint256",
          "internalType": "uint256"
        }
      ],
      "outputs": [
        {
          "name": "",
          "type": "uint256",
          "internalType": "uint256"
        }
      ],
      "stateMutability": "nonpayable"
    },
    {
      "type": "function",
      "name": "selfTransferIn",
      "inputs": [
        {
          "name": "from",
          "type": "address",
          "internalType": "address"
        },
        {
          "name": "amount",
          "type": "uint256",
          "internalType": "uint256"
        }
      ],
      "outputs": [
        {
          "name": "",
          "type": "uint256",
          "internalType": "uint256"
        }
      ],
      "stateMutability": "nonpayable"
    },
    {
      "type": "function",
      "name": "selfTransferOut",
      "inputs": [
        {
          "name": "to",
          "type": "address",
          "internalType": "address"
        },
        {
          "name": "amount",
          "type": "uint256",
          "internalType": "uint256"
        }
      ],
      "outputs": [],
      "stateMutability": "nonpayable"
    },
    {
      "type": "function",
      "name": "symbol",
      "inputs": [],
      "outputs": [
        {
          "name": "",
          "type": "string",
          "internalType": "string"
        }
      ],
      "stateMutability": "view"
    },
    {
      "type": "function",
      "name": "totalAdminFees",
      "inputs": [],
      "outputs": [
        {
          "name": "",
          "type": "uint256",
          "internalType": "uint256"
        }
      ],
      "stateMutability": "view"
    },
    {
      "type": "function",
      "name": "totalBorrows",
      "inputs": [],
      "outputs": [
        {
          "name": "",
          "type": "uint256",
          "internalType": "uint256"
        }
      ],
      "stateMutability": "view"
    },
    {
      "type": "function",
      "name": "totalIonicFees",
      "inputs": [],
      "outputs": [
        {
          "name": "",
          "type": "uint256",
          "internalType": "uint256"
        }
      ],
      "stateMutability": "view"
    },
    {
      "type": "function",
      "name": "totalReserves",
      "inputs": [],
      "outputs": [
        {
          "name": "",
          "type": "uint256",
          "internalType": "uint256"
        }
      ],
      "stateMutability": "view"
    },
    {
      "type": "function",
      "name": "totalSupply",
      "inputs": [],
      "outputs": [
        {
          "name": "",
          "type": "uint256",
          "internalType": "uint256"
        }
      ],
      "stateMutability": "view"
    },
    {
      "type": "function",
      "name": "underlying",
      "inputs": [],
      "outputs": [
        {
          "name": "",
          "type": "address",
          "internalType": "address"
        }
      ],
      "stateMutability": "view"
    },
    {
      "type": "event",
      "name": "AccrueInterest",
      "inputs": [
        {
          "name": "cashPrior",
          "type": "uint256",
          "indexed": false,
          "internalType": "uint256"
        },
        {
          "name": "interestAccumulated",
          "type": "uint256",
          "indexed": false,
          "internalType": "uint256"
        },
        {
          "name": "borrowIndex",
          "type": "uint256",
          "indexed": false,
          "internalType": "uint256"
        },
        {
          "name": "totalBorrows",
          "type": "uint256",
          "indexed": false,
          "internalType": "uint256"
        }
      ],
      "anonymous": false
    },
    {
      "type": "event",
      "name": "Approval",
      "inputs": [
        {
          "name": "owner",
          "type": "address",
          "indexed": true,
          "internalType": "address"
        },
        {
          "name": "spender",
          "type": "address",
          "indexed": true,
          "internalType": "address"
        },
        {
          "name": "amount",
          "type": "uint256",
          "indexed": false,
          "internalType": "uint256"
        }
      ],
      "anonymous": false
    },
    {
      "type": "event",
      "name": "Borrow",
      "inputs": [
        {
          "name": "borrower",
          "type": "address",
          "indexed": false,
          "internalType": "address"
        },
        {
          "name": "borrowAmount",
          "type": "uint256",
          "indexed": false,
          "internalType": "uint256"
        },
        {
          "name": "accountBorrows",
          "type": "uint256",
          "indexed": false,
          "internalType": "uint256"
        },
        {
          "name": "totalBorrows",
          "type": "uint256",
          "indexed": false,
          "internalType": "uint256"
        }
      ],
      "anonymous": false
    },
    {
      "type": "event",
      "name": "Failure",
      "inputs": [
        {
          "name": "error",
          "type": "uint256",
          "indexed": false,
          "internalType": "uint256"
        },
        {
          "name": "info",
          "type": "uint256",
          "indexed": false,
          "internalType": "uint256"
        },
        {
          "name": "detail",
          "type": "uint256",
          "indexed": false,
          "internalType": "uint256"
        }
      ],
      "anonymous": false
    },
    {
      "type": "event",
      "name": "LiquidateBorrow",
      "inputs": [
        {
          "name": "liquidator",
          "type": "address",
          "indexed": false,
          "internalType": "address"
        },
        {
          "name": "borrower",
          "type": "address",
          "indexed": false,
          "internalType": "address"
        },
        {
          "name": "repayAmount",
          "type": "uint256",
          "indexed": false,
          "internalType": "uint256"
        },
        {
          "name": "cTokenCollateral",
          "type": "address",
          "indexed": false,
          "internalType": "address"
        },
        {
          "name": "seizeTokens",
          "type": "uint256",
          "indexed": false,
          "internalType": "uint256"
        }
      ],
      "anonymous": false
    },
    {
      "type": "event",
      "name": "Mint",
      "inputs": [
        {
          "name": "minter",
          "type": "address",
          "indexed": false,
          "internalType": "address"
        },
        {
          "name": "mintAmount",
          "type": "uint256",
          "indexed": false,
          "internalType": "uint256"
        },
        {
          "name": "mintTokens",
          "type": "uint256",
          "indexed": false,
          "internalType": "uint256"
        }
      ],
      "anonymous": false
    },
    {
      "type": "event",
      "name": "NewAdminFee",
      "inputs": [
        {
          "name": "oldAdminFeeMantissa",
          "type": "uint256",
          "indexed": false,
          "internalType": "uint256"
        },
        {
          "name": "newAdminFeeMantissa",
          "type": "uint256",
          "indexed": false,
          "internalType": "uint256"
        }
      ],
      "anonymous": false
    },
    {
      "type": "event",
      "name": "NewIonicFee",
      "inputs": [
        {
          "name": "oldIonicFeeMantissa",
          "type": "uint256",
          "indexed": false,
          "internalType": "uint256"
        },
        {
          "name": "newIonicFeeMantissa",
          "type": "uint256",
          "indexed": false,
          "internalType": "uint256"
        }
      ],
      "anonymous": false
    },
    {
      "type": "event",
      "name": "NewMarketInterestRateModel",
      "inputs": [
        {
          "name": "oldInterestRateModel",
          "type": "address",
          "indexed": false,
          "internalType": "contract InterestRateModel"
        },
        {
          "name": "newInterestRateModel",
          "type": "address",
          "indexed": false,
          "internalType": "contract InterestRateModel"
        }
      ],
      "anonymous": false
    },
    {
      "type": "event",
      "name": "NewPluginImplementation",
      "inputs": [
        {
          "name": "oldImpl",
          "type": "address",
          "indexed": false,
          "internalType": "address"
        },
        {
          "name": "newImpl",
          "type": "address",
          "indexed": false,
          "internalType": "address"
        }
      ],
      "anonymous": false
    },
    {
      "type": "event",
      "name": "NewReserveFactor",
      "inputs": [
        {
          "name": "oldReserveFactorMantissa",
          "type": "uint256",
          "indexed": false,
          "internalType": "uint256"
        },
        {
          "name": "newReserveFactorMantissa",
          "type": "uint256",
          "indexed": false,
          "internalType": "uint256"
        }
      ],
      "anonymous": false
    },
    {
      "type": "event",
      "name": "Redeem",
      "inputs": [
        {
          "name": "redeemer",
          "type": "address",
          "indexed": false,
          "internalType": "address"
        },
        {
          "name": "redeemAmount",
          "type": "uint256",
          "indexed": false,
          "internalType": "uint256"
        },
        {
          "name": "redeemTokens",
          "type": "uint256",
          "indexed": false,
          "internalType": "uint256"
        }
      ],
      "anonymous": false
    },
    {
      "type": "event",
      "name": "RepayBorrow",
      "inputs": [
        {
          "name": "payer",
          "type": "address",
          "indexed": false,
          "internalType": "address"
        },
        {
          "name": "borrower",
          "type": "address",
          "indexed": false,
          "internalType": "address"
        },
        {
          "name": "repayAmount",
          "type": "uint256",
          "indexed": false,
          "internalType": "uint256"
        },
        {
          "name": "accountBorrows",
          "type": "uint256",
          "indexed": false,
          "internalType": "uint256"
        },
        {
          "name": "totalBorrows",
          "type": "uint256",
          "indexed": false,
          "internalType": "uint256"
        }
      ],
      "anonymous": false
    },
    {
      "type": "event",
      "name": "ReservesAdded",
      "inputs": [
        {
          "name": "benefactor",
          "type": "address",
          "indexed": false,
          "internalType": "address"
        },
        {
          "name": "addAmount",
          "type": "uint256",
          "indexed": false,
          "internalType": "uint256"
        },
        {
          "name": "newTotalReserves",
          "type": "uint256",
          "indexed": false,
          "internalType": "uint256"
        }
      ],
      "anonymous": false
    },
    {
      "type": "event",
      "name": "ReservesReduced",
      "inputs": [
        {
          "name": "admin",
          "type": "address",
          "indexed": false,
          "internalType": "address"
        },
        {
          "name": "reduceAmount",
          "type": "uint256",
          "indexed": false,
          "internalType": "uint256"
        },
        {
          "name": "newTotalReserves",
          "type": "uint256",
          "indexed": false,
          "internalType": "uint256"
        }
      ],
      "anonymous": false
    },
    {
      "type": "event",
      "name": "Transfer",
      "inputs": [
        {
          "name": "from",
          "type": "address",
          "indexed": true,
          "internalType": "address"
        },
        {
          "name": "to",
          "type": "address",
          "indexed": true,
          "internalType": "address"
        },
        {
          "name": "amount",
          "type": "uint256",
          "indexed": false,
          "internalType": "uint256"
        }
      ],
      "anonymous": false
    }
  ],
  "transactionHash": "0x2621728f62930d5ce0f9c85935f8121b1bd257a39225b823d02878dc15f057d5",
  "args": [],
  "numDeployments": 1,
  "bytecode": {
    "object": "0x608060405234801561001057600080fd5b5061485b806100206000396000f3fe608060405234801561001057600080fd5b50600436106102325760003560e01c806389f8132e11610130578063b2a02ff1116100b8578063cb2ef6f71161007c578063cb2ef6f71461045d578063db006a751461048d578063ef01df4f146104a0578063f3fdb15a146104b3578063f5e3c462146104c657600080fd5b8063b2a02ff11461040c578063be99f1191461041f578063c3bf11cd1461042e578063c5ebeaec14610437578063c91a424f1461044a57600080fd5b80639826394b116100ff5780639826394b146103c1578063a0712d68146103ca578063a7b820df146103dd578063aa5af0fd146103f0578063b0d58e49146103f957600080fd5b806389f8132e146103925780638d02d9a1146103a75780638f840ddd146103b057806395d89b41146103b957600080fd5b8063313ce567116101be57806361feacff1161018257806361feacff1461034c5780636752e702146103555780636c540baf146103635780636f307dc31461036c578063852a12e31461037f57600080fd5b8063313ce567146102eb5780633b1d21a2146102f857806347bd37181461030057806356e67728146103095780635fe3b5671461031c57600080fd5b8063173b990411610205578063173b99041461029e57806318160ddd146102a757806319f496c8146102b05780632608f818146102c35780632c436e5b146102d657600080fd5b8063067db1b31461023757806306fdde031461024c5780630e7527021461026a578063135f13341461028b575b600080fd5b61024a6102453660046143a9565b6104d9565b005b610254610523565b60405161026191906143d5565b60405180910390f35b61027d61027836600461442a565b6105b1565b604051908152602001610261565b61027d6102993660046143a9565b61066e565b61027d60085481565b61027d600f5481565b61024a6102be366004614443565b6106ba565b61027d6102d13660046143a9565b610a18565b60025b60405160ff9091168152602001610261565b6003546102d99060ff1681565b61027d610ad7565b61027d600b5481565b61024a610317366004614476565b610ae6565b6003546103349061010090046001600160a01b031681565b6040516001600160a01b039091168152602001610261565b61027d600d5481565b61027d666379da05b6000081565b61027d60095481565b601354610334906001600160a01b031681565b61027d61038d36600461442a565b610c44565b61039a610cf7565b6040516102619190614527565b61027d60065481565b61027d600c5481565b610254610eb1565b61027d600e5481565b61027d6103d836600461442a565b610ebe565b61027d6103eb36600461442a565b610f73565b61027d600a5481565b61027d61040736600461442a565b6110d1565b61027d61041a366004614575565b6111c4565b61027d67016345785d8a000081565b61027d60075481565b61027d61044536600461442a565b6111e8565b600054610334906001600160a01b031681565b604080518082019091526014815273434572633230506c7567696e44656c656761746560601b6020820152610254565b61027d61049b36600461442a565b61129b565b601454610334906001600160a01b031681565b600454610334906001600160a01b031681565b61027d6104d43660046145b6565b61134e565b3330146105155760405162461bcd60e51b815260206004820152600560248201526410b9b2b63360d91b60448201526064015b60405180910390fd5b61051f8282611411565b5050565b60018054610530906145f8565b80601f016020809104026020016040519081016040528092919081815260200182805461055c906145f8565b80156105a95780601f1061057e576101008083540402835291602001916105a9565b820191906000526020600020905b81548152906001019060200180831161058c57829003601f168201915b505050505081565b60008054600354604051631beb2b9760e31b81526001600160a01b039283169263df595cb8926105fe9261010090910490911690339030906001600160e01b03198835169060040161462d565b602060405180830381865afa15801561061b573d6000803e3d6000fd5b505050506040513d601f19601f8201168201806040525081019061063f9190614660565b61065b5760405162461bcd60e51b815260040161050c90614682565b600061066683611493565b509392505050565b60003330146106a75760405162461bcd60e51b815260206004820152600560248201526410b9b2b63360d91b604482015260640161050c565b6106b18383611524565b90505b92915050565b333014806106cb57506106cb6115da565b61072b5760405162461bcd60e51b815260206004820152602b60248201527f6f6e6c792073656c6620616e642061646d696e732063616e2063616c6c205f7560448201526a383230ba32a8363ab3b4b760a91b606482015260840161050c565b6014546000906001600160a01b03166107445781610751565b6014546001600160a01b03165b6014549091506001600160a01b0316158015906107d857506014546040516370a0823160e01b81523060048201526001600160a01b03909116906370a0823190602401602060405180830381865afa1580156107b1573d6000803e3d6000fd5b505050506040513d601f19601f820116820180604052508101906107d591906146aa565b15155b156108c2576014546040516370a0823160e01b81523060048201526001600160a01b039091169063ba0876529082906370a0823190602401602060405180830381865afa15801561082d573d6000803e3d6000fd5b505050506040513d601f19601f8201168201806040525081019061085191906146aa565b6040516001600160e01b031960e084901b1681526004810191909152306024820181905260448201526064016020604051808303816000875af115801561089c573d6000803e3d6000fd5b505050506040513d601f19601f820116820180604052508101906108c091906146aa565b505b601480546001600160a01b0319166001600160a01b0384811691821790925560135460405163095ea7b360e01b8152600481019290925260001960248301529091169063095ea7b3906044016020604051808303816000875af115801561092d573d6000803e3d6000fd5b505050506040513d601f19601f820116820180604052508101906109519190614660565b506013546040516370a0823160e01b81523060048201526000916001600160a01b0316906370a0823190602401602060405180830381865afa15801561099b573d6000803e3d6000fd5b505050506040513d601f19601f820116820180604052508101906109bf91906146aa565b905080156109d0576109d081611757565b604080516001600160a01b038085168252851660208201527fb32957d2794aaec3ea2c8852833af2192fe9fb518777de1f883e9e821781da75910160405180910390a1505050565b60008054600354604051631beb2b9760e31b81526001600160a01b039283169263df595cb892610a659261010090910490911690339030906001600160e01b03198835169060040161462d565b602060405180830381865afa158015610a82573d6000803e3d6000fd5b505050506040513d601f19601f82011682018060405250810190610aa69190614660565b610ac25760405162461bcd60e51b815260040161050c90614682565b6000610ace84846117cc565b50949350505050565b6000610ae161185f565b905090565b33301480610af75750610af76115da565b610b5f5760405162461bcd60e51b815260206004820152603360248201527f6f6e6c792073656c6620616e642061646d696e732063616e2063616c6c205f6260448201527232b1b7b6b2a4b6b83632b6b2b73a30ba34b7b760691b606482015260840161050c565b600081806020019051810190610b7591906146c3565b90506001600160a01b038116158015610b9857506014546001600160a01b031615155b15610c10576000546014546040516381218ea960e01b81526001600160a01b0391821660048201529116906381218ea990602401602060405180830381865afa158015610be9573d6000803e3d6000fd5b505050506040513d601f19601f82011682018060405250810190610c0d91906146c3565b90505b6001600160a01b03811615801590610c3657506014546001600160a01b03828116911614155b1561051f5761051f816106ba565b60008054600354604051631beb2b9760e31b81526001600160a01b039283169263df595cb892610c919261010090910490911690339030906001600160e01b03198835169060040161462d565b602060405180830381865afa158015610cae573d6000803e3d6000fd5b505050506040513d601f19601f82011682018060405250810190610cd29190614660565b610cee5760405162461bcd60e51b815260040161050c90614682565b6106b482611933565b606060026000610d056119b0565b90508160ff168151610d1791906146f6565b67ffffffffffffffff811115610d2f57610d2f614460565b604051908082528060200260200182016040528015610d58578160200160208202803683370190505b50925060005b8151811015610dbe57818181518110610d7957610d7961470e565b6020026020010151848281518110610d9357610d9361470e565b6001600160e01b03199092166020928302919091019091015280610db681614724565b915050610d5e565b50805163ef01df4f60e01b908490610dd58561473f565b9450610de49060ff86166146f6565b81518110610df457610df461470e565b6001600160e01b031990921660209283029190910190910152805163033e92d960e31b908490610e238561473f565b9450610e329060ff86166146f6565b81518110610e4257610e4261470e565b6001600160e01b03199092166020928302919091019091015260ff821615610eac5760405162461bcd60e51b815260206004820152601c60248201527f7573652074686520636f7272656374206172726179206c656e67746800000000604482015260640161050c565b505090565b60028054610530906145f8565b60008054600354604051631beb2b9760e31b81526001600160a01b039283169263df595cb892610f0b9261010090910490911690339030906001600160e01b03198835169060040161462d565b602060405180830381865afa158015610f28573d6000803e3d6000fd5b505050506040513d601f19601f82011682018060405250810190610f4c9190614660565b610f685760405162461bcd60e51b815260040161050c90614682565b600061066683611b2a565b600080610f7f81611ba7565b306001600160a01b031663a6afed956040518163ffffffff1660e01b81526004016020604051808303816000875af1158015610fbf573d6000803e3d6000fd5b505050506040513d601f19601f82011682018060405250810190610fe391906146aa565b50436009541461100057610ff9600a6039611c6b565b91506110c2565b8261100961185f565b101561101b57610ff9600e6038611c6b565b600d5483111561103157610ff96002603a611c6b565b82600d5461103f919061475c565b600d55600354604080516303e1469160e61b815290516110bc9261010090046001600160a01b03169163f851a4409160048083019260209291908290030181865afa158015611092573d6000803e3d6000fd5b505050506040513d601f19601f820116820180604052508101906110b691906146c3565b84611411565b60005b91505b6110cb81611ce4565b50919050565b6000806110dd81611ba7565b306001600160a01b031663a6afed956040518163ffffffff1660e01b81526004016020604051808303816000875af115801561111d573d6000803e3d6000fd5b505050506040513d601f19601f8201168201806040525081019061114191906146aa565b50436009541461115757610ff9600a6035611c6b565b8261116061185f565b101561117257610ff9600e6034611c6b565b600e5483111561118857610ff960026036611c6b565b600083600e54611198919061475c565b600e8190556000549091506111b6906001600160a01b031685611411565b60009250506110cb81611ce4565b600060016111d181611ba7565b6111dd33868686611d68565b915061066681611ce4565b60008054600354604051631beb2b9760e31b81526001600160a01b039283169263df595cb8926112359261010090910490911690339030906001600160e01b03198835169060040161462d565b602060405180830381865afa158015611252573d6000803e3d6000fd5b505050506040513d601f19601f820116820180604052508101906112769190614660565b6112925760405162461bcd60e51b815260040161050c90614682565b6106b482612253565b60008054600354604051631beb2b9760e31b81526001600160a01b039283169263df595cb8926112e89261010090910490911690339030906001600160e01b03198835169060040161462d565b602060405180830381865afa158015611305573d6000803e3d6000fd5b505050506040513d601f19601f820116820180604052508101906113299190614660565b6113455760405162461bcd60e51b815260040161050c90614682565b6106b4826122ce565b60008054600354604051631beb2b9760e31b81526001600160a01b039283169263df595cb89261139b9261010090910490911690339030906001600160e01b03198835169060040161462d565b602060405180830381865afa1580156113b8573d6000803e3d6000fd5b505050506040513d601f19601f820116820180604052508101906113dc9190614660565b6113f85760405162461bcd60e51b815260040161050c90614682565b600061140585858561234b565b509150505b9392505050565b601454604051632d182be560e21b8152600481018390526001600160a01b0384811660248301523060448301529091169063b460af94906064016020604051808303816000875af115801561146a573d6000803e3d6000fd5b505050506040513d601f19601f8201168201806040525081019061148e91906146aa565b505050565b60008060006114a181611ba7565b306001600160a01b031663a6afed956040518163ffffffff1660e01b81526004016020604051808303816000875af11580156114e1573d6000803e3d6000fd5b505050506040513d601f19601f8201168201806040525081019061150591906146aa565b50611511333386612445565b9250925061151e81611ce4565b50915091565b6013546040516323b872dd60e01b81526000916001600160a01b0316906323b872dd9061155990869030908790600401614789565b6020604051808303816000875af1158015611578573d6000803e3d6000fd5b505050506040513d601f19601f8201168201806040525081019061159c9190614660565b6115d15760405162461bcd60e51b815260040161050c906020808252600490820152631cd95b9960e21b604082015260600190565b6110cb82611757565b600080600360019054906101000a90046001600160a01b03169050806001600160a01b031663f851a4406040518163ffffffff1660e01b8152600401602060405180830381865afa158015611633573d6000803e3d6000fd5b505050506040513d601f19601f8201168201806040525081019061165791906146c3565b6001600160a01b0316336001600160a01b03161480156116d45750806001600160a01b0316630a755ec26040518163ffffffff1660e01b8152600401602060405180830381865afa1580156116b0573d6000803e3d6000fd5b505050506040513d601f19601f820116820180604052508101906116d49190614660565b8061175157506000546001600160a01b0316331480156117515750806001600160a01b031663cf6bfd2d6040518163ffffffff1660e01b8152600401602060405180830381865afa15801561172d573d6000803e3d6000fd5b505050506040513d601f19601f820116820180604052508101906117519190614660565b91505090565b601454604051636e553f6560e01b8152600481018390523060248201526001600160a01b0390911690636e553f65906044016020604051808303816000875af11580156117a8573d6000803e3d6000fd5b505050506040513d601f19601f8201168201806040525081019061051f91906146aa565b60008060006117da81611ba7565b306001600160a01b031663a6afed956040518163ffffffff1660e01b81526004016020604051808303816000875af115801561181a573d6000803e3d6000fd5b505050506040513d601f19601f8201168201806040525081019061183e91906146aa565b5061184a338686612445565b9250925061185781611ce4565b509250929050565b6014546040516370a0823160e01b81523060048201526000916001600160a01b031690634cdad5069082906370a0823190602401602060405180830381865afa1580156118b0573d6000803e3d6000fd5b505050506040513d601f19601f820116820180604052508101906118d491906146aa565b6040518263ffffffff1660e01b81526004016118f291815260200190565b602060405180830381865afa15801561190f573d6000803e3d6000fd5b505050506040513d601f19601f82011682018060405250810190610ae191906146aa565b60008061193f81611ba7565b306001600160a01b031663a6afed956040518163ffffffff1660e01b81526004016020604051808303816000875af115801561197f573d6000803e3d6000fd5b505050506040513d601f19601f820116820180604052508101906119a391906146aa565b506110bf33600085612854565b6060600360006119be612e9c565b90508160ff1681516119d091906146f6565b67ffffffffffffffff8111156119e8576119e8614460565b604051908082528060200260200182016040528015611a11578160200160208202803683370190505b50925060005b8151811015611a7757818181518110611a3257611a3261470e565b6020026020010151848281518110611a4c57611a4c61470e565b6001600160e01b03199092166020928302919091019091015280611a6f81614724565b915050611a17565b50805163cb2ef6f760e01b908490611a8e8561473f565b9450611a9d9060ff86166146f6565b81518110611aad57611aad61470e565b6001600160e01b0319909216602092830291909101909101528051632c436e5b60e01b908490611adc8561473f565b9450611aeb9060ff86166146f6565b81518110611afb57611afb61470e565b6001600160e01b0319909216602092830291909101909101528051630adccee560e31b908490610e238561473f565b6000806000611b3881611ba7565b306001600160a01b031663a6afed956040518163ffffffff1660e01b81526004016020604051808303816000875af1158015611b78573d6000803e3d6000fd5b505050506040513d601f19601f82011682018060405250810190611b9c91906146aa565b506115113385613264565b600054600160a01b900460ff16611bed5760405162461bcd60e51b815260206004820152600a6024820152691c994b595b9d195c995960b21b604482015260640161050c565b80611c5b57600360019054906101000a90046001600160a01b03166001600160a01b031663c90c20b16040518163ffffffff1660e01b8152600401600060405180830381600087803b158015611c4257600080fd5b505af1158015611c56573d6000803e3d6000fd5b505050505b506000805460ff60a01b19169055565b60007f45b96fe442630264581b197e84bbada861235052c5a1aadfff9ea4e40a969aa0836011811115611ca057611ca0614773565b836061811115611cb257611cb2614773565b60408051928352602083019190915260009082015260600160405180910390a18260118111156106b1576106b1614773565b6000805460ff60a01b1916600160a01b17905580611d6557600360019054906101000a90046001600160a01b03166001600160a01b031663632e51426040518163ffffffff1660e01b8152600401600060405180830381600087803b158015611d4c57600080fd5b505af1158015611d60573d6000803e3d6000fd5b505050505b50565b60035460405163d02f735160e01b81523060048201526001600160a01b038681166024830152858116604483015284811660648301526084820184905260009283926101009091049091169063d02f73519060a4016020604051808303816000875af1158015611ddc573d6000803e3d6000fd5b505050506040513d601f19601f82011682018060405250810190611e0091906146aa565b90508015611e1d57611e156003601d8361366f565b91505061224b565b846001600160a01b0316846001600160a01b03161415611e4357611e156006601e611c6b565b611ea8604080516101808101909152806000815260200160008152602001600081526020016000815260200160008152602001600081526020016000815260200160008152602001600081526020016000815260200160008152602001600081525090565b6001600160a01b038516600090815260106020526040902054611ecb9085613711565b6020830181905282826003811115611ee557611ee5614773565b6003811115611ef657611ef6614773565b9052506000905081516003811115611f1057611f10614773565b14611f4057611f376009601c83600001516003811115611f3257611f32614773565b61366f565b9250505061224b565b611f5f846040518060200160405280666379da05b6000081525061373c565b6080820152604080516020810190915267016345785d8a00008152611f8590859061373c565b61014082018190526080820151611f9c908661475c565b611fa6919061475c565b6060820152306001600160a01b031663bd6d894d6040518163ffffffff1660e01b8152600401602060405180830381865afa158015611fe9573d6000803e3d6000fd5b505050506040513d601f19601f8201168201806040525081019061200d91906146aa565b60c082019081526040805160208101909152905181526080820151612032919061375f565b60a0820152604080516020810190915260c08201518152610140820151612059919061375f565b61016082015260a0810151600c5461207191906146f6565b60e08201526101408101516080820151600f5461208e919061475c565b612098919061475c565b610120820152610160810151600e546120b191906146f6565b6101008201526001600160a01b03861660009081526010602052604090205460608201516120df9190613777565b60408301819052828260038111156120f9576120f9614773565b600381111561210a5761210a614773565b905250600090508151600381111561212457612124614773565b1461214657611f376009601b83600001516003811115611f3257611f32614773565b60e0810151600c55610120810151600f55610100810151600e556020808201516001600160a01b0387811660008181526010855260408082209490945583860151928b168082529084902092909255606085015192519283529092909160008051602061482f833981519152910160405180910390a3306001600160a01b0316856001600160a01b031660008051602061482f83398151915283608001516040516121f391815260200190565b60405180910390a360a081015160e08201516040805130815260208101939093528201527fa91e67c5ea634cd43a12c5a482724b03de01e85ca68702a53d0c2f45cb7c1dc59060600160405180910390a16000925050505b949350505050565b60008061225f81611ba7565b306001600160a01b031663a6afed956040518163ffffffff1660e01b81526004016020604051808303816000875af115801561229f573d6000803e3d6000fd5b505050506040513d601f19601f820116820180604052508101906122c391906146aa565b506110bf338461379d565b6000806122da81611ba7565b306001600160a01b031663a6afed956040518163ffffffff1660e01b81526004016020604051808303816000875af115801561231a573d6000803e3d6000fd5b505050506040513d601f19601f8201168201806040525081019061233e91906146aa565b506110bf33846000612854565b600080600061235981611ba7565b306001600160a01b031663a6afed956040518163ffffffff1660e01b81526004016020604051808303816000875af1158015612399573d6000803e3d6000fd5b505050506040513d601f19601f820116820180604052508101906123bd91906146aa565b50836001600160a01b031663a6afed956040518163ffffffff1660e01b81526004016020604051808303816000875af11580156123fe573d6000803e3d6000fd5b505050506040513d601f19601f8201168201806040525081019061242291906146aa565b5061242f33878787613b38565b9250925061243c81611ce4565b50935093915050565b600354604051631200453160e11b81523060048201526001600160a01b03858116602483015284811660448301526064820184905260009283928392610100909204909116906324008a62906084016020604051808303816000875af11580156124b3573d6000803e3d6000fd5b505050506040513d601f19601f820116820180604052508101906124d791906146aa565b905080156124f8576124ec600360438361366f565b6000925092505061284c565b436009541461250d576124ec600a6044611c6b565b6125566040805161010081019091528060008152602001600081526020016000815260200160008152602001600081526020016000815260200160008152602001600081525090565b6001600160a01b0386166000908152601260205260409020600101546060820152306040516305eff7ef60e21b81526001600160a01b03888116600483015291909116906317bfdfbc90602401602060405180830381865afa1580156125c0573d6000803e3d6000fd5b505050506040513d601f19601f820116820180604052508101906125e491906146aa565b6080820152600019851415612602576080810151604082015261260a565b604081018590525b612618878260400151611524565b60e08201819052608082015161262d91613711565b60a083018190526020830182600381111561264a5761264a614773565b600381111561265b5761265b614773565b905250600090508160200151600381111561267857612678614773565b146126eb5760405162461bcd60e51b815260206004820152603a60248201527f52455041595f424f52524f575f4e45575f4143434f554e545f424f52524f575f60448201527f42414c414e43455f43414c43554c4154494f4e5f4641494c4544000000000000606482015260840161050c565b6126fb600b548260e00151613711565b60c083018190526020830182600381111561271857612718614773565b600381111561272957612729614773565b905250600090508160200151600381111561274657612746614773565b146127ad5760405162461bcd60e51b815260206004820152603160248201527f52455041595f424f52524f575f4e45575f544f54414c5f42414c414e43455f43604482015270105310d55310551253d397d19052531151607a1b606482015260840161050c565b60a081810180516001600160a01b03898116600081815260126020908152604091829020948555600a5460019095019490945560c0870151600b81905560e088015195518251948f16855294840192909252820193909352606081019190915260808101919091527f1a2a22cb034d26d1854bdc6666a5b91fe25efbbb5dcad3b0355478d6f5c362a1910160405180910390a160e00151600093509150505b935093915050565b6000821580612861575081155b6128ad5760405162461bcd60e51b815260206004820152601860248201527f2172656465656d20746f6b656e73206f7220616d6f756e740000000000000000604482015260640161050c565b6128ee6040805160e0810190915280600081526020016000815260200160008152602001600081526020016000815260200160008152602001600081525090565b306001600160a01b031663bd6d894d6040518163ffffffff1660e01b8152600401602060405180830381865afa15801561292c573d6000803e3d6000fd5b505050506040513d601f19601f8201168201806040525081019061295091906146aa565b60408201528315612a135761138884600f5461296c919061475c565b101561297857600f5493505b60608101849052604080516020810182529082015181526129999085613ff5565b60808301819052602083018260038111156129b6576129b6614773565b60038111156129c7576129c7614773565b90525060009050816020015160038111156129e4576129e4614773565b14612a0e57612a066009602c83602001516003811115611f3257611f32614773565b91505061140a565b612b5b565b600019831415612aa157600354604051630cbb414760e11b81526001600160a01b0387811660048301523060248301526000604483015261010090920490911690631976828e90606401602060405180830381865afa158015612a7a573d6000803e3d6000fd5b505050506040513d601f19601f82011682018060405250810190612a9e91906146aa565b92505b6000306001600160a01b0316634aeb3d9a6040518163ffffffff1660e01b8152600401602060405180830381865afa158015612ae1573d6000803e3d6000fd5b505050506040513d601f19601f82011682018060405250810190612b0591906146aa565b90506103e8612b14858361475c565b1015612b1e578093505b612b2c848360400151614047565b60608301819052600f546103e891612b439161475c565b1015612b5257600f5460608301525b50608081018390525b600354606082015160405163eabe7d9160e01b815260009261010090046001600160a01b03169163eabe7d9191612b999130918b9190600401614789565b6020604051808303816000875af1158015612bb8573d6000803e3d6000fd5b505050506040513d601f19601f82011682018060405250810190612bdc91906146aa565b90508015612bfa57612bf16003602b8361366f565b9250505061140a565b4360095414612c0f57612bf1600a602f611c6b565b612c1f600f548360600151613711565b60a0840181905260208401826003811115612c3c57612c3c614773565b6003811115612c4d57612c4d614773565b9052506000905082602001516003811115612c6a57612c6a614773565b14612c8c57612bf16009603184602001516003811115611f3257611f32614773565b6001600160a01b0386166000908152601060205260409020546060830151612cb49190613711565b60c0840181905260208401826003811115612cd157612cd1614773565b6003811115612ce257612ce2614773565b9052506000905082602001516003811115612cff57612cff614773565b14612d2157612bf16009603084602001516003811115611f3257611f32614773565b8160800151612d2e61185f565b1015612d4057612bf1600e6032611c6b565b60a0820151600f5560c08201516001600160a01b0387166000908152601060205260409020556080820151612d76908790611411565b306001600160a01b0316866001600160a01b031660008051602061482f8339815191528460600151604051612dad91815260200190565b60405180910390a36080820151606080840151604080516001600160a01b038b16815260208101949094528301527fe5b754fb1abb7f01b499791d0b820ae3b6af3424ac1c59768edb53f4ec31a929910160405180910390a1600354608083015160608401516040516351dff98960e01b81523060048201526001600160a01b038a811660248301526044820193909352606481019190915261010090920416906351dff98990608401600060405180830381600087803b158015612e7157600080fd5b505af1158015612e85573d6000803e3d6000fd5b5060009250612e92915050565b9695505050505050565b60408051600d8082526101c082019092526060919060009082602082016101a08036833701905050905063140e25ad60e31b81612ed88461473f565b93508360ff1681518110612eee57612eee61470e565b6001600160e01b03199092166020928302919091019091015263db006a7560e01b81612f198461473f565b93508360ff1681518110612f2f57612f2f61470e565b6001600160e01b03199092166020928302919091019091015263852a12e360e01b81612f5a8461473f565b93508360ff1681518110612f7057612f7061470e565b6001600160e01b03199092166020928302919091019091015263317afabb60e21b81612f9b8461473f565b93508360ff1681518110612fb157612fb161470e565b6001600160e01b03199092166020928302919091019091015263073a938160e11b81612fdc8461473f565b93508360ff1681518110612ff257612ff261470e565b6001600160e01b0319909216602092830291909101909101526304c11f0360e31b8161301d8461473f565b93508360ff16815181106130335761303361470e565b6001600160e01b031990921660209283029190910190910152637af1e23160e11b8161305e8461473f565b93508360ff16815181106130745761307461470e565b6001600160e01b031990921660209283029190910190910152631d8e90d160e11b8161309f8461473f565b93508360ff16815181106130b5576130b561470e565b6001600160e01b03199092166020928302919091019091015263b2a02ff160e01b816130e08461473f565b93508360ff16815181106130f6576130f661470e565b6001600160e01b03199092166020928302919091019091015263067db1b360e01b816131218461473f565b93508360ff16815181106131375761313761470e565b6001600160e01b0319909216602092830291909101909101526304d7c4cd60e21b816131628461473f565b93508360ff16815181106131785761317861470e565b6001600160e01b03199092166020928302919091019091015263b0d58e4960e01b816131a38461473f565b93508360ff16815181106131b9576131b961470e565b6001600160e01b03199092166020928302919091019091015263a7b820df60e01b816131e48461473f565b93508360ff16815181106131fa576131fa61470e565b6001600160e01b03199092166020928302919091019091015260ff8216156106b45760405162461bcd60e51b815260206004820152601c60248201527f7573652074686520636f7272656374206172726179206c656e67746800000000604482015260640161050c565b600354604051634ef4c3e160e01b81526000918291829161010090046001600160a01b031690634ef4c3e1906132a290309089908990600401614789565b6020604051808303816000875af11580156132c1573d6000803e3d6000fd5b505050506040513d601f19601f820116820180604052508101906132e591906146aa565b90508015613306576132fa600360218361366f565b60009250925050613668565b436009541461331b576132fa600a6024611c6b565b61335c6040805160e0810190915280600081526020016000815260200160008152602001600081526020016000815260200160008152602001600081525090565b306001600160a01b031663bd6d894d6040518163ffffffff1660e01b8152600401602060405180830381865afa15801561339a573d6000803e3d6000fd5b505050506040513d601f19601f820116820180604052508101906133be91906146aa565b60408201526133cd8686611524565b60c08201819052604080516020810182529083015181526133ee9190614082565b606083018190526020830182600381111561340b5761340b614773565b600381111561341c5761341c614773565b905250600090508160200151600381111561343957613439614773565b146134865760405162461bcd60e51b815260206004820181905260248201527f4d494e545f45584348414e47455f43414c43554c4154494f4e5f4641494c4544604482015260640161050c565b60008160600151116134da5760405162461bcd60e51b815260206004820152601a60248201527f4d494e545f5a45524f5f43544f4b454e535f52454a4543544544000000000000604482015260640161050c565b8060600151600f546134ec91906146f6565b608082015260608101516001600160a01b03871660009081526010602052604090205461351991906146f6565b60a082018190526080820151600f556001600160a01b0387166000818152601060209081526040918290209390935560c0840151606080860151835194855294840191909152908201929092527f4c209b5fc8ad50758f13e2e1088ba56a560dff690a1c6fef26394f4c03821c4f910160405180910390a1856001600160a01b0316306001600160a01b031660008051602061482f83398151915283606001516040516135c891815260200190565b60405180910390a360035460c082015160608301516040516341c728b960e01b81523060048201526001600160a01b038a811660248301526044820193909352606481019190915261010090920416906341c728b990608401600060405180830381600087803b15801561363b57600080fd5b505af115801561364f573d6000803e3d6000fd5b506000925061365c915050565b8160c001519350935050505b9250929050565b60007f45b96fe442630264581b197e84bbada861235052c5a1aadfff9ea4e40a969aa08460118111156136a4576136a4614773565b8460618111156136b6576136b6614773565b604080519283526020830191909152810184905260600160405180910390a160038460118111156136e9576136e9614773565b146137055783601181111561370057613700614773565b61224b565b61224b826103e86146f6565b600080838311613730576000613727848661475c565b91509150613668565b50600390506000613668565b6000670de0b6b3a7640000613755848460000151614092565b6106b191906147c3565b60008061376c84846140d4565b905061224b81614105565b60008083830184811061378f57600092509050613668565b600260009250925050613668565b60035460405163368f515360e21b815260009182916101009091046001600160a01b03169063da3d454c906137da90309088908890600401614789565b6020604051808303816000875af11580156137f9573d6000803e3d6000fd5b505050506040513d601f19601f8201168201806040525081019061381d91906146aa565b9050801561383a57613832600360108361366f565b9150506106b4565b436009541461384f57613832600a600c611c6b565b600061385961185f565b9050838110156138785761386f600e600b611c6b565b925050506106b4565b6138a4604080516080810190915280600081526020016000815260200160008152602001600081525090565b306040516305eff7ef60e21b81526001600160a01b03888116600483015291909116906317bfdfbc90602401602060405180830381865afa1580156138ed573d6000803e3d6000fd5b505050506040513d601f19601f8201168201806040525081019061391191906146aa565b602082018190526139229086613777565b604083018190528282600381111561393c5761393c614773565b600381111561394d5761394d614773565b905250600090508151600381111561396757613967614773565b14613993576139896009600e83600001516003811115611f3257611f32614773565b93505050506106b4565b6003546040828101519051631de6c8a560e21b815230600482015260248101919091526101009091046001600160a01b03169063779b229490604401602060405180830381865afa1580156139ec573d6000803e3d6000fd5b505050506040513d601f19601f82011682018060405250810190613a1091906146aa565b92508215613a2557613989600360108561366f565b613a31600b5486613777565b6060830181905282826003811115613a4b57613a4b614773565b6003811115613a5c57613a5c614773565b9052506000905081516003811115613a7657613a76614773565b14613a98576139896009600d83600001516003811115611f3257611f32614773565b6040808201516001600160a01b0388166000908152601260205291909120908155600a546001909101556060810151600b55613ad48686611411565b60408082015160608084015183516001600160a01b038b168152602081018a9052938401929092528201527f13ed6866d4e1ee6da46f845c46d7e54120883d75c5ea9a2dacc1c4ca8984ab809060800160405180910390a160009695505050505050565b600354604051632fe3f38f60e11b81523060048201526001600160a01b03838116602483015286811660448301528581166064830152608482018590526000928392839261010090920490911690635fc7e71e9060a4016020604051808303816000875af1158015613bae573d6000803e3d6000fd5b505050506040513d601f19601f82011682018060405250810190613bd291906146aa565b90508015613bf357613be7600360148361366f565b60009250925050613fec565b4360095414613c0857613be7600a6018611c6b565b43846001600160a01b0316636c540baf6040518163ffffffff1660e01b8152600401602060405180830381865afa158015613c47573d6000803e3d6000fd5b505050506040513d601f19601f82011682018060405250810190613c6b91906146aa565b14613c7c57613be7600a6013611c6b565b866001600160a01b0316866001600160a01b03161415613ca257613be760066019611c6b565b84613cb357613be760076017611c6b565b600019851415613cc957613be760076016611c6b565b600080613cd7898989612445565b90925090508115613d0c57613cfe826011811115613cf757613cf7614773565b601a611c6b565b600094509450505050613fec565b60035460405163c488847b60e01b815260009182916101009091046001600160a01b03169063c488847b90613d499030908c908890600401614789565b6040805180830381865afa158015613d65573d6000803e3d6000fd5b505050506040513d601f19601f82011682018060405250810190613d8991906147d7565b90925090508115613df85760405162461bcd60e51b815260206004820152603360248201527f4c49515549444154455f434f4d5054524f4c4c45525f43414c43554c4154455f604482015272105353d5539517d4d152569157d19052531151606a1b606482015260840161050c565b6040516370a0823160e01b81526001600160a01b038b811660048301528291908a16906370a0823190602401602060405180830381865afa158015613e41573d6000803e3d6000fd5b505050506040513d601f19601f82011682018060405250810190613e6591906146aa565b1015613eb35760405162461bcd60e51b815260206004820152601860248201527f4c49515549444154455f5345495a455f544f4f5f4d5543480000000000000000604482015260640161050c565b60006001600160a01b038916301415613ed957613ed2308d8d85611d68565b9050613f4f565b60405163b2a02ff160e01b81526001600160a01b038a169063b2a02ff190613f09908f908f908790600401614789565b6020604051808303816000875af1158015613f28573d6000803e3d6000fd5b505050506040513d601f19601f82011682018060405250810190613f4c91906146aa565b90505b8015613f865760405162461bcd60e51b8152602060048201526006602482015265217365697a6560d01b604482015260640161050c565b604080516001600160a01b038e811682528d811660208301528183018790528b1660608201526080810184905290517f298637f684da70674f26509b10f07ec2fbc77a335ab1e7d6215a4b2484d8bb529181900360a00190a16000975092955050505050505b94509492505050565b600080600080614005868661411d565b9092509050600082600381111561401e5761401e614773565b1461402f5750915060009050613668565b600061403a82614105565b9350935050509250929050565b60008161405c84670de0b6b3a76400006147fb565b61406691906147c3565b9050614072828461481a565b156106b4576106b16001826146f6565b6000806000806140058686614199565b60006106b183836040518060400160405280601781526020017f6d756c7469706c69636174696f6e206f766572666c6f7700000000000000000081525061420c565b60408051602081019091526000815260405180602001604052806140fc856000015185614092565b90529392505050565b80516000906106b490670de0b6b3a7640000906147c3565b60006141356040518060200160405280600081525090565b60008061414686600001518661425f565b9092509050600082600381111561415f5761415f614773565b1461417e57506040805160208101909152600081529092509050613668565b60408051602081019091529081526000969095509350505050565b60006141b16040518060200160405280600081525090565b6000806141c6670de0b6b3a76400008761425f565b909250905060008260038111156141df576141df614773565b146141fe57506040805160208101909152600081529092509050613668565b61403a81866000015161429e565b6000831580614219575082155b156142265750600061140a565b600061423284866147fb565b90508361423f86836147c3565b148390610ace5760405162461bcd60e51b815260040161050c91906143d5565b6000808361427257506000905080613668565b8383028361428086836147c3565b1461429357600260009250925050613668565b600092509050613668565b60006142b66040518060200160405280600081525090565b6000806142cb86670de0b6b3a764000061425f565b909250905060008260038111156142e4576142e4614773565b1461430357506040805160208101909152600081529092509050613668565b6000806143108388614369565b9092509050600082600381111561432957614329614773565b1461434c5781604051806020016040528060008152509550955050505050613668565b604080516020810190915290815260009890975095505050505050565b6000808261437d5750600190506000613668565b600061438984866147c3565b915091509250929050565b6001600160a01b0381168114611d6557600080fd5b600080604083850312156143bc57600080fd5b82356143c781614394565b946020939093013593505050565b600060208083528351808285015260005b81811015614402578581018301518582016040015282016143e6565b81811115614414576000604083870101525b50601f01601f1916929092016040019392505050565b60006020828403121561443c57600080fd5b5035919050565b60006020828403121561445557600080fd5b813561140a81614394565b634e487b7160e01b600052604160045260246000fd5b60006020828403121561448857600080fd5b813567ffffffffffffffff808211156144a057600080fd5b818401915084601f8301126144b457600080fd5b8135818111156144c6576144c6614460565b604051601f8201601f19908116603f011681019083821181831017156144ee576144ee614460565b8160405282815287602084870101111561450757600080fd5b826020860160208301376000928101602001929092525095945050505050565b6020808252825182820181905260009190848201906040850190845b818110156145695783516001600160e01b03191683529284019291840191600101614543565b50909695505050505050565b60008060006060848603121561458a57600080fd5b833561459581614394565b925060208401356145a581614394565b929592945050506040919091013590565b6000806000606084860312156145cb57600080fd5b83356145d681614394565b92506020840135915060408401356145ed81614394565b809150509250925092565b600181811c9082168061460c57607f821691505b602082108114156110cb57634e487b7160e01b600052602260045260246000fd5b6001600160a01b0394851681529284166020840152921660408201526001600160e01b0319909116606082015260800190565b60006020828403121561467257600080fd5b8151801515811461140a57600080fd5b6020808252600e908201526d1b9bdd08185d5d1a1bdc9a5e995960921b604082015260600190565b6000602082840312156146bc57600080fd5b5051919050565b6000602082840312156146d557600080fd5b815161140a81614394565b634e487b7160e01b600052601160045260246000fd5b60008219821115614709576147096146e0565b500190565b634e487b7160e01b600052603260045260246000fd5b6000600019821415614738576147386146e0565b5060010190565b600060ff821680614752576147526146e0565b6000190192915050565b60008282101561476e5761476e6146e0565b500390565b634e487b7160e01b600052602160045260246000fd5b6001600160a01b039384168152919092166020820152604081019190915260600190565b634e487b7160e01b600052601260045260246000fd5b6000826147d2576147d26147ad565b500490565b600080604083850312156147ea57600080fd5b505080516020909101519092909150565b6000816000190483118215151615614815576148156146e0565b500290565b600082614829576148296147ad565b50069056feddf252ad1be2c89b69c2b068fc378daa952ba7f163c4a11628f55a4df523b3efa164736f6c634300080a000a",
    "linkReferences": {}
  },
  "methodIdentifiers": {
    "_becomeImplementation(bytes)": "56e67728",
    "_getExtensionFunctions()": "89f8132e",
    "_updatePlugin(address)": "19f496c8",
    "_withdrawAdminFees(uint256)": "a7b820df",
    "_withdrawIonicFees(uint256)": "b0d58e49",
    "accrualBlockNumber()": "6c540baf",
    "adminFeeMantissa()": "8d02d9a1",
    "borrow(uint256)": "c5ebeaec",
    "borrowIndex()": "aa5af0fd",
    "comptroller()": "5fe3b567",
    "contractType()": "cb2ef6f7",
    "decimals()": "313ce567",
    "delegateType()": "2c436e5b",
    "feeSeizeShareMantissa()": "be99f119",
    "getCash()": "3b1d21a2",
    "interestRateModel()": "f3fdb15a",
    "ionicAdmin()": "c91a424f",
    "ionicFeeMantissa()": "c3bf11cd",
    "liquidateBorrow(address,uint256,address)": "f5e3c462",
    "mint(uint256)": "a0712d68",
    "name()": "06fdde03",
    "plugin()": "ef01df4f",
    "protocolSeizeShareMantissa()": "6752e702",
    "redeem(uint256)": "db006a75",
    "redeemUnderlying(uint256)": "852a12e3",
    "repayBorrow(uint256)": "0e752702",
    "repayBorrowBehalf(address,uint256)": "2608f818",
    "reserveFactorMantissa()": "173b9904",
    "seize(address,address,uint256)": "b2a02ff1",
    "selfTransferIn(address,uint256)": "135f1334",
    "selfTransferOut(address,uint256)": "067db1b3",
    "symbol()": "95d89b41",
    "totalAdminFees()": "61feacff",
    "totalBorrows()": "47bd3718",
    "totalIonicFees()": "9826394b",
    "totalReserves()": "8f840ddd",
    "totalSupply()": "18160ddd",
    "underlying()": "6f307dc3"
  }
}