{
  "address": "0x89aC9603c2AA848dd5c6fC7BBd4c09641e89a38A",
  "abi": [
    {
      "type": "receive",
      "stateMutability": "payable"
    },
    {
      "type": "function",
      "name": "UNISWAP_V2_ROUTER_02",
      "inputs": [],
      "outputs": [
        {
          "name": "",
          "type": "address",
          "internalType": "contract IUniswapV2Router02"
        }
      ],
      "stateMutability": "view"
    },
    {
      "type": "function",
      "name": "W_NATIVE_ADDRESS",
      "inputs": [],
      "outputs": [
        {
          "name": "",
          "type": "address",
          "internalType": "address"
        }
      ],
      "stateMutability": "view"
    },
    {
      "type": "function",
      "name": "_becomeImplementation",
      "inputs": [
        {
          "name": "data",
          "type": "bytes",
          "internalType": "bytes"
        }
      ],
      "outputs": [],
      "stateMutability": "nonpayable"
    },
    {
      "type": "function",
      "name": "_whitelistRedemptionStrategies",
      "inputs": [
        {
          "name": "strategies",
          "type": "address[]",
          "internalType": "contract IRedemptionStrategy[]"
        },
        {
          "name": "whitelisted",
          "type": "bool[]",
          "internalType": "bool[]"
        }
      ],
      "outputs": [],
      "stateMutability": "nonpayable"
    },
    {
      "type": "function",
      "name": "_whitelistRedemptionStrategy",
      "inputs": [
        {
          "name": "strategy",
          "type": "address",
          "internalType": "contract IRedemptionStrategy"
        },
        {
          "name": "whitelisted",
          "type": "bool",
          "internalType": "bool"
        }
      ],
      "outputs": [],
      "stateMutability": "nonpayable"
    },
    {
      "type": "function",
      "name": "flashSwapFee",
      "inputs": [],
      "outputs": [
        {
          "name": "",
          "type": "uint8",
          "internalType": "uint8"
        }
      ],
      "stateMutability": "view"
    },
    {
      "type": "function",
      "name": "initialize",
      "inputs": [
        {
          "name": "_wtoken",
          "type": "address",
          "internalType": "address"
        },
        {
          "name": "_uniswapV2router",
          "type": "address",
          "internalType": "address"
        },
        {
          "name": "_flashSwapFee",
          "type": "uint8",
          "internalType": "uint8"
        }
      ],
      "outputs": [],
      "stateMutability": "nonpayable"
    },
    {
      "type": "function",
      "name": "moraswapCall",
      "inputs": [
        {
          "name": "sender",
          "type": "address",
          "internalType": "address"
        },
        {
          "name": "amount0",
          "type": "uint256",
          "internalType": "uint256"
        },
        {
          "name": "amount1",
          "type": "uint256",
          "internalType": "uint256"
        },
        {
          "name": "data",
          "type": "bytes",
          "internalType": "bytes"
        }
      ],
      "outputs": [],
      "stateMutability": "nonpayable"
    },
    {
      "type": "function",
      "name": "owner",
      "inputs": [],
      "outputs": [
        {
          "name": "",
          "type": "address",
          "internalType": "address"
        }
      ],
      "stateMutability": "view"
    },
    {
      "type": "function",
      "name": "pancakeCall",
      "inputs": [
        {
          "name": "sender",
          "type": "address",
          "internalType": "address"
        },
        {
          "name": "amount0",
          "type": "uint256",
          "internalType": "uint256"
        },
        {
          "name": "amount1",
          "type": "uint256",
          "internalType": "uint256"
        },
        {
          "name": "data",
          "type": "bytes",
          "internalType": "bytes"
        }
      ],
      "outputs": [],
      "stateMutability": "nonpayable"
    },
    {
      "type": "function",
      "name": "receiveAuctionProceedings",
      "inputs": [
        {
          "name": "permissionKey",
          "type": "bytes",
          "internalType": "bytes"
        }
      ],
      "outputs": [],
      "stateMutability": "payable"
    },
    {
      "type": "function",
      "name": "redemptionStrategiesWhitelist",
      "inputs": [
        {
          "name": "",
          "type": "address",
          "internalType": "address"
        }
      ],
      "outputs": [
        {
          "name": "",
          "type": "bool",
          "internalType": "bool"
        }
      ],
      "stateMutability": "view"
    },
    {
      "type": "function",
      "name": "renounceOwnership",
      "inputs": [],
      "outputs": [],
      "stateMutability": "nonpayable"
    },
    {
      "type": "function",
      "name": "safeLiquidate",
      "inputs": [
        {
          "name": "borrower",
          "type": "address",
          "internalType": "address"
        },
        {
          "name": "repayAmount",
          "type": "uint256",
          "internalType": "uint256"
        },
        {
          "name": "cErc20",
          "type": "address",
          "internalType": "contract ICErc20"
        },
        {
          "name": "cTokenCollateral",
          "type": "address",
          "internalType": "contract ICErc20"
        },
        {
          "name": "minOutputAmount",
          "type": "uint256",
          "internalType": "uint256"
        },
        {
          "name": "redeemCollateral",
          "type": "bool",
          "internalType": "bool"
        }
      ],
      "outputs": [
        {
          "name": "",
          "type": "uint256",
          "internalType": "uint256"
        }
      ],
      "stateMutability": "nonpayable"
    },
    {
      "type": "function",
      "name": "safeLiquidateNoPyth",
      "inputs": [
        {
          "name": "borrower",
          "type": "address",
          "internalType": "address"
        },
        {
          "name": "repayAmount",
          "type": "uint256",
          "internalType": "uint256"
        },
        {
          "name": "cErc20",
          "type": "address",
          "internalType": "contract ICErc20"
        },
        {
          "name": "cTokenCollateral",
          "type": "address",
          "internalType": "contract ICErc20"
        },
        {
          "name": "minOutputAmount",
          "type": "uint256",
          "internalType": "uint256"
        },
        {
          "name": "redeemCollateral",
          "type": "bool",
          "internalType": "bool"
        }
      ],
      "outputs": [
        {
          "name": "",
          "type": "uint256",
          "internalType": "uint256"
        }
      ],
      "stateMutability": "nonpayable"
    },
    {
      "type": "function",
      "name": "safeLiquidateToTokensWithFlashLoan",
      "inputs": [
        {
          "name": "vars",
          "type": "tuple",
          "internalType": "struct ILiquidator.LiquidateToTokensWithFlashSwapVars",
          "components": [
            {
              "name": "borrower",
              "type": "address",
              "internalType": "address"
            },
            {
              "name": "repayAmount",
              "type": "uint256",
              "internalType": "uint256"
            },
            {
              "name": "cErc20",
              "type": "address",
              "internalType": "contract ICErc20"
            },
            {
              "name": "cTokenCollateral",
              "type": "address",
              "internalType": "contract ICErc20"
            },
            {
              "name": "flashSwapContract",
              "type": "address",
              "internalType": "address"
            },
            {
              "name": "minProfitAmount",
              "type": "uint256",
              "internalType": "uint256"
            },
            {
              "name": "redemptionStrategies",
              "type": "address[]",
              "internalType": "contract IRedemptionStrategy[]"
            },
            {
              "name": "strategyData",
              "type": "bytes[]",
              "internalType": "bytes[]"
            },
            {
              "name": "debtFundingStrategies",
              "type": "address[]",
              "internalType": "contract IFundsConversionStrategy[]"
            },
            {
              "name": "debtFundingStrategiesData",
              "type": "bytes[]",
              "internalType": "bytes[]"
            }
          ]
        }
      ],
      "outputs": [
        {
          "name": "",
          "type": "uint256",
          "internalType": "uint256"
        }
      ],
      "stateMutability": "nonpayable"
    },
    {
      "type": "function",
      "name": "setExpressRelay",
      "inputs": [
        {
          "name": "_expressRelay",
          "type": "address",
          "internalType": "address"
        }
      ],
      "outputs": [],
      "stateMutability": "nonpayable"
    },
    {
      "type": "function",
      "name": "transferOwnership",
      "inputs": [
        {
          "name": "newOwner",
          "type": "address",
          "internalType": "address"
        }
      ],
      "outputs": [],
      "stateMutability": "nonpayable"
    },
    {
      "type": "function",
      "name": "uniswapV2Call",
      "inputs": [
        {
          "name": "",
          "type": "address",
          "internalType": "address"
        },
        {
          "name": "",
          "type": "uint256",
          "internalType": "uint256"
        },
        {
          "name": "",
          "type": "uint256",
          "internalType": "uint256"
        },
        {
          "name": "data",
          "type": "bytes",
          "internalType": "bytes"
        }
      ],
      "outputs": [],
      "stateMutability": "nonpayable"
    },
    {
      "type": "function",
      "name": "withdrawAll",
      "inputs": [],
      "outputs": [],
      "stateMutability": "nonpayable"
    },
    {
      "type": "event",
      "name": "Initialized",
      "inputs": [
        {
          "name": "version",
          "type": "uint8",
          "indexed": false,
          "internalType": "uint8"
        }
      ],
      "anonymous": false
    },
    {
      "type": "event",
      "name": "OwnershipTransferred",
      "inputs": [
        {
          "name": "previousOwner",
          "type": "address",
          "indexed": true,
          "internalType": "address"
        },
        {
          "name": "newOwner",
          "type": "address",
          "indexed": true,
          "internalType": "address"
        }
      ],
      "anonymous": false
    }
  ],
  "transactionHash": "0xc0b20330a9912356a4c0570e455cfde0d33f06146c2fd504866da660787faddc",
  "args": [],
  "numDeployments": 10,
  "bytecode": {
    "object": "0x608060405234801561001057600080fd5b50613c4b806100206000396000f3fe6080604052600436106101235760003560e01c806384800812116100a057806399017f4b1161006457806399017f4b14610374578063ba8bca5a14610394578063c2ebfdc1146103b4578063f2fde38b146103e7578063fced70811461040757600080fd5b806384800812146102a9578063853828b61461030157806389232a00146103165780638a0b9090146103365780638da5cb5b1461035657600080fd5b80635b672371116100e75780635b672371146102345780636ba4654414610274578063715018a61461029457806373ed8653146102a957806381738f13146102c957600080fd5b8063030e47df1461018257806310d1e85c146101a257806355e9e8fe146101c257806356e67728146101f55780635a4313651461021457600080fd5b3661017d57333b61017b5760405162461bcd60e51b815260206004820152601960248201527f53656e646572206973206e6f74206120636f6e74726163742e0000000000000060448201526064015b60405180910390fd5b005b600080fd5b34801561018e57600080fd5b5061017b61019d366004612f67565b610415565b3480156101ae57600080fd5b5061017b6101bd366004612fc5565b61043f565b3480156101ce57600080fd5b506101e26101dd36600461302e565b61048e565b6040519081526020015b60405180910390f35b34801561020157600080fd5b5061017b610210366004613069565b5050565b34801561022057600080fd5b5061017b61022f3660046130b8565b6109c7565b34801561024057600080fd5b5061026461024f366004612f67565b60686020526000908152604090205460ff1681565b60405190151581526020016101ec565b34801561028057600080fd5b506101e261028f3660046130f1565b6109fa565b3480156102a057600080fd5b5061017b610dbe565b3480156102b557600080fd5b5061017b6102c4366004612fc5565b610dd2565b3480156102d557600080fd5b506065546102e9906001600160a01b031681565b6040516001600160a01b0390911681526020016101ec565b34801561030d57600080fd5b5061017b610de6565b34801561032257600080fd5b5061017b610331366004613161565b610ecb565b34801561034257600080fd5b5061017b6103513660046131f6565b61107f565b34801561036257600080fd5b506033546001600160a01b03166102e9565b34801561038057600080fd5b506101e261038f3660046130f1565b61119e565b3480156103a057600080fd5b506066546102e9906001600160a01b031681565b3480156103c057600080fd5b50606a546103d590600160a01b900460ff1681565b60405160ff90911681526020016101ec565b3480156103f357600080fd5b5061017b610402366004612f67565b61148b565b61017b610210366004613069565b61041d611504565b606b80546001600160a01b0319166001600160a01b0392909216919091179055565b600061044e8260048186613261565b81019061045b9190613469565b90506104668161155e565b606780546001600160a01b0319166001600160a01b0392909216919091179055505050505050565b600061049d6020830183612f67565b606b54604080516001600160a01b0384811660208301529092169163403e96f6913091016040516020818303038152906040526040518363ffffffff1660e01b81526004016104ed9291906135f8565b602060405180830381865afa15801561050a573d6000803e3d6000fd5b505050506040513d601f19601f8201168201806040525081019061052e919061361c565b6105705760405162461bcd60e51b815260206004820152601360248201527234b73b30b634b2103634b8bab4b230ba34b7b760691b6044820152606401610172565b60008360200135116105d05760405162461bcd60e51b8152602060048201526024808201527f526570617920616d6f756e74206d7573742062652067726561746572207468616044820152633710181760e11b6064820152608401610172565b60208301356000806105e6610100870187613639565b905011156107fd576105fc610120860186613639565b905061060c610100870187613639565b9050146106b65760405162461bcd60e51b815260206004820152606660248201527f46756e64696e67204946756e6473436f6e76657273696f6e537472617465677960448201527f20636f6e747261637420617272617920616e642073747261746567792064617460648201527f61206279746573206172726179206d757374206265207468652073616d65206c60848201526532b733ba341760d11b60a482015260c401610172565b60005b6106c7610100870187613639565b90508110156107f75760006106e0610120880188613639565b838181106106f0576106f0613682565b90506020028101906107029190613698565b8080601f016020809104026020016040519081016040528093929190818152602001838380828437600092018290525093945061074792505050610100890189613639565b8481811061075757610757613682565b905060200201602081019061076c9190612f67565b60405163180994cb60e11b81529091506001600160a01b0382169063301329969061079d90889086906004016136de565b6040805180830381865afa1580156107b9573d6000803e3d6000fd5b505050506040513d601f19601f820116820180604052508101906107dd91906136f7565b955093508291506107ef90508161373b565b9150506106b9565b50610871565b61080d6060860160408701612f67565b6001600160a01b0316636f307dc36040518163ffffffff1660e01b8152600401602060405180830381865afa15801561084a573d6000803e3d6000fd5b505050506040513d601f19601f8201168201806040525081019061086e9190613756565b90505b6069829055606a80546001600160a01b0319166001600160a01b03831617905560006108a360a0870160808801612f67565b90506000826001600160a01b0316826001600160a01b0316630dfe16816040518163ffffffff1660e01b8152600401602060405180830381865afa1580156108ef573d6000803e3d6000fd5b505050506040513d601f19601f820116820180604052508101906109139190613756565b6001600160a01b0316149050816001600160a01b031663022c0d9f8261093a57600061093c565b855b831561094957600061094b565b865b306000366040518663ffffffff1660e01b815260040161096f959493929190613773565b600060405180830381600087803b15801561098957600080fd5b505af115801561099d573d6000803e3d6000fd5b50506067546109bc92506001600160a01b0316905060a089013561195d565b979650505050505050565b6109cf611504565b6001600160a01b03919091166000908152606860205260409020805460ff1916911515919091179055565b606b54604080516001600160a01b03808a1660208301526000938a9391169163403e96f6913091016040516020818303038152906040526040518363ffffffff1660e01b8152600401610a4e9291906135f8565b602060405180830381865afa158015610a6b573d6000803e3d6000fd5b505050506040513d601f19601f82011682018060405250810190610a8f919061361c565b610ad15760405162461bcd60e51b815260206004820152601360248201527234b73b30b634b2103634b8bab4b230ba34b7b760691b6044820152606401610172565b60008711610af15760405162461bcd60e51b8152600401610172906137c2565b6000866001600160a01b0316636f307dc36040518163ffffffff1660e01b8152600401602060405180830381865afa158015610b31573d6000803e3d6000fd5b505050506040513d601f19601f82011682018060405250810190610b559190613756565b9050610b6c6001600160a01b03821633308b611a4a565b610b7781888a611ab5565b604051637af1e23160e11b81526001600160a01b038a81166004830152602482018a9052878116604483015288169063f5e3c462906064016020604051808303816000875af1158015610bce573d6000803e3d6000fd5b505050506040513d601f19601f82011682018060405250810190610bf2919061381f565b15610c0f5760405162461bcd60e51b815260040161017290613838565b8315610da5576040516370a0823160e01b81523060048201526000906001600160a01b038816906370a0823190602401602060405180830381865afa158015610c5c573d6000803e3d6000fd5b505050506040513d601f19601f82011682018060405250810190610c80919061381f565b905060008111610ca25760405162461bcd60e51b815260040161017290613865565b60405163db006a7560e01b8152600481018290526000906001600160a01b0389169063db006a75906024016020604051808303816000875af1158015610cec573d6000803e3d6000fd5b505050506040513d601f19601f82011682018060405250810190610d10919061381f565b90508015610d305760405162461bcd60e51b815260040161017290613891565b610d9b886001600160a01b0316636f307dc36040518163ffffffff1660e01b8152600401602060405180830381865afa158015610d71573d6000803e3d6000fd5b505050506040513d601f19601f82011682018060405250810190610d959190613756565b8861195d565b9450505050610db3565b610daf868661195d565b9250505b509695505050505050565b610dc6611504565b610dd06000611b28565b565b610ddf858585858561043f565b5050505050565b610dee611504565b4780610e3c5760405162461bcd60e51b815260206004820152601960248201527f4e6f204574686572206c65667420746f207769746864726177000000000000006044820152606401610172565b604051600090339083908381818185875af1925050503d8060008114610e7e576040519150601f19603f3d011682016040523d82523d6000602084013e610e83565b606091505b50509050806102105760405162461bcd60e51b81526020600482015260146024820152732330b4b632b2103a379039b2b7321022ba3432b960611b6044820152606401610172565b600054610100900460ff1615808015610eeb5750600054600160ff909116105b80610f055750303b158015610f05575060005460ff166001145b610f685760405162461bcd60e51b815260206004820152602e60248201527f496e697469616c697a61626c653a20636f6e747261637420697320616c72656160448201526d191e481a5b9a5d1a585b1a5e995960921b6064820152608401610172565b6000805460ff191660011790558015610f8b576000805461ff0019166101001790555b610f93611b7a565b6001600160a01b038316610fe95760405162461bcd60e51b815260206004820152601d60248201527f5f756e69737761705632726f75746572206e6f7420646566696e65642e0000006044820152606401610172565b606580546001600160a01b038087166001600160a01b0319928316179092556066805492861692909116919091179055606a805460ff8416600160a01b0260ff60a01b199091161790558015611079576000805461ff0019169055604051600181527f7f26b83ff96e1f2b6a682f133852f6798a09c465da95921460cefb38474024989060200160405180910390a15b50505050565b611087611504565b821580159061109557508281145b6111075760405162461bcd60e51b815260206004820152603f60248201527f6c697374206f66207374726174656769657320656d707479206f72207768697460448201527f656c69737420646f6573206e6f74206d6174636820697473206c656e677468006064820152608401610172565b60005b83811015610ddf5782828281811061112457611124613682565b905060200201602081019061113991906138ef565b6068600087878581811061114f5761114f613682565b90506020020160208101906111649190612f67565b6001600160a01b031681526020810191909152604001600020805460ff1916911515919091179055806111968161373b565b91505061110a565b60008086116111bf5760405162461bcd60e51b8152600401610172906137c2565b6000856001600160a01b0316636f307dc36040518163ffffffff1660e01b8152600401602060405180830381865afa1580156111ff573d6000803e3d6000fd5b505050506040513d601f19601f820116820180604052508101906112239190613756565b905061123a6001600160a01b03821633308a611a4a565b611245818789611ab5565b604051637af1e23160e11b81526001600160a01b03898116600483015260248201899052868116604483015287169063f5e3c462906064016020604051808303816000875af115801561129c573d6000803e3d6000fd5b505050506040513d601f19601f820116820180604052508101906112c0919061381f565b156112dd5760405162461bcd60e51b815260040161017290613838565b8215611473576040516370a0823160e01b81523060048201526000906001600160a01b038716906370a0823190602401602060405180830381865afa15801561132a573d6000803e3d6000fd5b505050506040513d601f19601f8201168201806040525081019061134e919061381f565b9050600081116113705760405162461bcd60e51b815260040161017290613865565b60405163db006a7560e01b8152600481018290526000906001600160a01b0388169063db006a75906024016020604051808303816000875af11580156113ba573d6000803e3d6000fd5b505050506040513d601f19601f820116820180604052508101906113de919061381f565b905080156113fe5760405162461bcd60e51b815260040161017290613891565b611469876001600160a01b0316636f307dc36040518163ffffffff1660e01b8152600401602060405180830381865afa15801561143f573d6000803e3d6000fd5b505050506040513d601f19601f820116820180604052508101906114639190613756565b8761195d565b9350505050611481565b61147d858561195d565b9150505b9695505050505050565b611493611504565b6001600160a01b0381166114f85760405162461bcd60e51b815260206004820152602660248201527f4f776e61626c653a206e6577206f776e657220697320746865207a65726f206160448201526564647265737360d01b6064820152608401610172565b61150181611b28565b50565b6033546001600160a01b03163314610dd05760405162461bcd60e51b815260206004820181905260248201527f4f776e61626c653a2063616c6c6572206973206e6f7420746865206f776e65726044820152606401610172565b606a54606954610100830151516000926001600160a01b031691901561160557610100840151515b8015611603576115ec83838761010001516001856115a4919061390c565b815181106115b4576115b4613682565b60200260200101518861012001516001866115cf919061390c565b815181106115df576115df613682565b6020026020010151611ba9565b9093509150806115fb81613923565b915050611586565b505b600084604001516001600160a01b0316636f307dc36040518163ffffffff1660e01b8152600401602060405180830381865afa158015611649573d6000803e3d6000fd5b505050506040513d601f19601f8201168201806040525081019061166d9190613756565b9050806001600160a01b0316836001600160a01b0316146117085760405162461bcd60e51b815260206004820152604960248201527f74686520646562742072657061796d656e742066756e64732073686f756c642060448201527f626520636f6e76657274656420746f2074686520756e6465726c79696e67206460648201526832b13a103a37b5b2b760b91b608482015260a401610172565b846020015182101561175c5760405162461bcd60e51b815260206004820181905260248201527f646562742072657061796d656e7420616d6f756e74206e6f7420656e6f7567686044820152606401610172565b61176f8186604001518760200151611ab5565b6040858101518651602088015160608901519351637af1e23160e11b81526001600160a01b03928316600482015260248101919091529281166044840152169063f5e3c462906064016020604051808303816000875af11580156117d7573d6000803e3d6000fd5b505050506040513d601f19601f820116820180604052508101906117fb919061381f565b156118185760405162461bcd60e51b815260040161017290613838565b60608501516040516370a0823160e01b81523060048201526000916001600160a01b0316906370a0823190602401602060405180830381865afa158015611863573d6000803e3d6000fd5b505050506040513d601f19601f82011682018060405250810190611887919061381f565b9050600081116118a95760405162461bcd60e51b815260040161017290613865565b606086015160405163db006a7560e01b8152600481018390526000916001600160a01b03169063db006a75906024016020604051808303816000875af11580156118f7573d6000803e3d6000fd5b505050506040513d601f19601f8201168201806040525081019061191b919061381f565b9050801561193b5760405162461bcd60e51b815260040161017290613891565b50505061195584606001518560c001518660e00151611c61565b949350505050565b6040516370a0823160e01b8152306004820152600090839082906001600160a01b038316906370a0823190602401602060405180830381865afa1580156119a8573d6000803e3d6000fd5b505050506040513d601f19601f820116820180604052508101906119cc919061381f565b905083811015611a305760405162461bcd60e51b815260206004820152602960248201527f4d696e696d756d20746f6b656e206f757470757420616d6f756e74206e6f742060448201526839b0ba34b334b2b21760b91b6064820152608401610172565b8015611955576119556001600160a01b038316338361257e565b6040516001600160a01b03808516602483015283166044820152606481018290526110799085906323b872dd60e01b906084015b60408051601f198184030181529190526020810180516001600160e01b03166001600160e01b0319909316929092179091526125b3565b60405163095ea7b360e01b81526001600160a01b0383811660048301526024820183905284169063095ea7b3906044016020604051808303816000875af1158015611b04573d6000803e3d6000fd5b505050506040513d601f19601f82011682018060405250810190611079919061361c565b603380546001600160a01b038381166001600160a01b0319831681179093556040519116919082907f8be0079c531659141344cd1fd0a4f28419497f9722a3daafe3b4186f6b6457e090600090a35050565b600054610100900460ff16611ba15760405162461bcd60e51b81526004016101729061393a565b610dd0612685565b6001600160a01b038216600090815260686020526040812054819060ff16611be35760405162461bcd60e51b815260040161017290613985565b6000611c3d856389eabf0260e01b898988604051602401611c06939291906139d7565b60408051601f198184030181529190526020810180516001600160e01b03166001600160e01b0319909316929092179091526126b5565b905080806020019051810190611c5391906136f7565b925092505094509492505050565b606a546000908190611c7f90600160a01b900460ff166127106139fe565b61ffff16606954612710611c939190613a21565b611c9d9190613a56565b606a54909150600090611cbc90600160a01b900460ff166127106139fe565b61ffff16606954612710611cd09190613a21565b611cda9190613a6a565b1115611cee5780611cea8161373b565b9150505b6000856001600160a01b0316636f307dc36040518163ffffffff1660e01b8152600401602060405180830381865afa158015611d2e573d6000803e3d6000fd5b505050506040513d601f19601f82011682018060405250810190611d529190613756565b6040516370a0823160e01b81523060048201529091506000906001600160a01b038316906370a0823190602401602060405180830381865afa158015611d9c573d6000803e3d6000fd5b505050506040513d601f19601f82011682018060405250810190611dc0919061381f565b865190915015611eca578451865114611e675760405162461bcd60e51b815260206004820152605b60248201527f49526564656d7074696f6e537472617465677920636f6e74726163742061727260448201527f617920616e64207374726174656779206461746120627974657320617272617960648201527f206d6e75737420746865207468652073616d65206c656e6774682e0000000000608482015260a401610172565b60005b8651811015611ec857611eb18383898481518110611e8a57611e8a613682565b6020026020010151898581518110611ea457611ea4613682565b60200260200101516127a9565b909350915080611ec08161373b565b915050611e6a565b505b6000339050806001600160a01b0316630dfe16816040518163ffffffff1660e01b8152600401602060405180830381865afa158015611f0d573d6000803e3d6000fd5b505050506040513d601f19601f82011682018060405250810190611f319190613756565b6001600160a01b0316836001600160a01b03161480611fc25750806001600160a01b031663d21220a76040518163ffffffff1660e01b8152600401602060405180830381865afa158015611f89573d6000803e3d6000fd5b505050506040513d601f19601f82011682018060405250810190611fad9190613756565b6001600160a01b0316836001600160a01b0316145b156121f757606a546000906001600160a01b0385811691161415611fe757508361209f565b6066546040805163c45a015560e01b81529051612082926001600160a01b03169163c45a01559160048083019260209291908290030181865afa158015612032573d6000803e3d6000fd5b505050506040513d601f19601f820116820180604052508101906120569190613756565b606954606a546120709088906001600160a01b0316612806565b606a54600160a01b900460ff16612893565b60008151811061209457612094613682565b602002602001015190505b828111156121155760405162461bcd60e51b815260206004820152603d60248201527f546f6b656e20666c6173686c6f616e2072657475726e20616d6f756e7420677260448201527f6561746572207468616e207365697a656420636f6c6c61746572616c2e0000006064820152608401610172565b60405163a9059cbb60e01b8152336004820152602481018290526001600160a01b0385169063a9059cbb906044016020604051808303816000875af1158015612162573d6000803e3d6000fd5b505050506040513d601f19601f82011682018060405250810190612186919061361c565b6121ea5760405162461bcd60e51b815260206004820152602f60248201527f4661696c656420746f20726570617920746f6b656e20666c6173686c6f616e2060448201526e37b7103137b93937bb9039b4b2329760891b6064820152608401610172565b8395505050505050612577565b606554606a546000916001600160a01b039182169116141561221a5750836122c4565b6066546040805163c45a015560e01b815290516122a7926001600160a01b03169163c45a01559160048083019260209291908290030181865afa158015612265573d6000803e3d6000fd5b505050506040513d601f19601f820116820180604052508101906122899190613756565b606554606a548891612070916001600160a01b039182169116612806565b6000815181106122b9576122b9613682565b602002602001015190505b6065546001600160a01b03858116911614612384576066546122f19085906001600160a01b031685611ab5565b6066546065546001600160a01b0391821691638803dbee9184918791612319918a9116612806565b30426040518663ffffffff1660e01b815260040161233b959493929190613a7e565b6000604051808303816000875af115801561235a573d6000803e3d6000fd5b505050506040513d6000823e601f3d908101601f191682016040526123829190810190613aef565b505b6065546040516370a0823160e01b81523060048201526001600160a01b03909116906370a0823190602401602060405180830381865afa1580156123cc573d6000803e3d6000fd5b505050506040513d601f19601f820116820180604052508101906123f0919061381f565b8111156124765760405162461bcd60e51b815260206004820152604860248201527f4e6f7420656e6f75676820575f4e41544956452065786368616e67656420667260448201527f6f6d207365697a656420636f6c6c61746572616c20746f20726570617920666c60648201526730b9b43637b0b71760c11b608482015260a401610172565b60655460405163a9059cbb60e01b8152336004820152602481018390526001600160a01b039091169063a9059cbb906044016020604051808303816000875af11580156124c7573d6000803e3d6000fd5b505050506040513d601f19601f820116820180604052508101906124eb919061361c565b6121ea5760405162461bcd60e51b815260206004820152605160248201527f4661696c656420746f20726570617920556e697377617020666c6173686c6f6160448201527f6e207769746820575f4e41544956452065786368616e6765642066726f6d207360648201527032b4bd32b21031b7b63630ba32b930b61760791b608482015260a401610172565b9392505050565b6040516001600160a01b0383166024820152604481018290526125ae90849063a9059cbb60e01b90606401611a7e565b505050565b6000612608826040518060400160405280602081526020017f5361666545524332303a206c6f772d6c6576656c2063616c6c206661696c6564815250856001600160a01b0316612a2a9092919063ffffffff16565b8051909150156125ae5780806020019051810190612626919061361c565b6125ae5760405162461bcd60e51b815260206004820152602a60248201527f5361666545524332303a204552433230206f7065726174696f6e20646964206e6044820152691bdd081cdd58d8d9595960b21b6064820152608401610172565b600054610100900460ff166126ac5760405162461bcd60e51b81526004016101729061393a565b610dd033611b28565b60606001600160a01b0383163b61271d5760405162461bcd60e51b815260206004820152602660248201527f416464726573733a2064656c65676174652063616c6c20746f206e6f6e2d636f6044820152651b9d1c9858dd60d21b6064820152608401610172565b600080846001600160a01b0316846040516127389190613b74565b600060405180830381855af49150503d8060008114612773576040519150601f19603f3d011682016040523d82523d6000602084013e612778565b606091505b50915091506127a08282604051806060016040528060278152602001613c1860279139612a39565b95945050505050565b6001600160a01b038216600090815260686020526040812054819060ff166127e35760405162461bcd60e51b815260040161017290613985565b6000611c3d856310badf4e60e01b898988604051602401611c06939291906139d7565b60408051600280825260608083018452926000929190602083019080368337019050509050838160008151811061283f5761283f613682565b60200260200101906001600160a01b031690816001600160a01b031681525050828160018151811061287357612873613682565b6001600160a01b0390921660209283029190910190910152905092915050565b60606002835110156128e75760405162461bcd60e51b815260206004820152601e60248201527f556e697377617056324c6962726172793a20494e56414c49445f5041544800006044820152606401610172565b82516001600160401b038111156129005761290061328b565b604051908082528060200260200182016040528015612929578160200160208202803683370190505b50905083816001835161293c919061390c565b8151811061294c5761294c613682565b602002602001018181525050600060018451612968919061390c565b90505b8015612a21576000806129bb888761298460018761390c565b8151811061299457612994613682565b60200260200101518886815181106129ae576129ae613682565b6020026020010151612a72565b915091506129e48484815181106129d4576129d4613682565b6020026020010151838388612b3c565b846129f060018661390c565b81518110612a0057612a00613682565b60200260200101818152505050508080612a1990613923565b91505061296b565b50949350505050565b60606119558484600085612c69565b60608315612a48575081612577565b825115612a585782518084602001fd5b8160405162461bcd60e51b81526004016101729190613b90565b6000806000612a818585612d39565b509050600080612a92888888612e31565b6001600160a01b0316630902f1ac6040518163ffffffff1660e01b8152600401606060405180830381865afa158015612acf573d6000803e3d6000fd5b505050506040513d601f19601f82011682018060405250810190612af39190613bba565b506001600160701b031691506001600160701b03169150826001600160a01b0316876001600160a01b031614612b2a578082612b2d565b81815b90999098509650505050505050565b6000808511612ba25760405162461bcd60e51b815260206004820152602c60248201527f556e697377617056324c6962726172793a20494e53554646494349454e545f4f60448201526b155514155517d05353d5539560a21b6064820152608401610172565b600084118015612bb25750600083115b612c0f5760405162461bcd60e51b815260206004820152602860248201527f556e697377617056324c6962726172793a20494e53554646494349454e545f4c604482015267495155494449545960c01b6064820152608401610172565b6000612c1b8686613a21565b612c2790612710613a21565b90506000612c3a60ff85166127106139fe565b61ffff16612c48888761390c565b612c529190613a21565b9050612c5e8183613a56565b6109bc906001613bff565b606082471015612cca5760405162461bcd60e51b815260206004820152602660248201527f416464726573733a20696e73756666696369656e742062616c616e636520666f6044820152651c8818d85b1b60d21b6064820152608401610172565b600080866001600160a01b03168587604051612ce69190613b74565b60006040518083038185875af1925050503d8060008114612d23576040519150601f19603f3d011682016040523d82523d6000602084013e612d28565b606091505b50915091506109bc87838387612ea7565b600080826001600160a01b0316846001600160a01b03161415612dac5760405162461bcd60e51b815260206004820152602560248201527f556e697377617056324c6962726172793a204944454e544943414c5f41444452604482015264455353455360d81b6064820152608401610172565b826001600160a01b0316846001600160a01b031610612dcc578284612dcf565b83835b90925090506001600160a01b038216612e2a5760405162461bcd60e51b815260206004820152601e60248201527f556e697377617056324c6962726172793a205a45524f5f4144445245535300006044820152606401610172565b9250929050565b60405163e6a4390560e01b81526001600160a01b03838116600483015282811660248301526000919085169063e6a4390590604401602060405180830381865afa158015612e83573d6000803e3d6000fd5b505050506040513d601f19601f820116820180604052508101906119559190613756565b60608315612f13578251612f0c576001600160a01b0385163b612f0c5760405162461bcd60e51b815260206004820152601d60248201527f416464726573733a2063616c6c20746f206e6f6e2d636f6e74726163740000006044820152606401610172565b5081611955565b6119558383815115612f285781518083602001fd5b8060405162461bcd60e51b81526004016101729190613b90565b6001600160a01b038116811461150157600080fd5b8035612f6281612f42565b919050565b600060208284031215612f7957600080fd5b813561257781612f42565b60008083601f840112612f9657600080fd5b5081356001600160401b03811115612fad57600080fd5b602083019150836020828501011115612e2a57600080fd5b600080600080600060808688031215612fdd57600080fd5b8535612fe881612f42565b9450602086013593506040860135925060608601356001600160401b0381111561301157600080fd5b61301d88828901612f84565b969995985093965092949392505050565b60006020828403121561304057600080fd5b81356001600160401b0381111561305657600080fd5b8201610140818503121561257757600080fd5b6000806020838503121561307c57600080fd5b82356001600160401b0381111561309257600080fd5b61309e85828601612f84565b90969095509350505050565b801515811461150157600080fd5b600080604083850312156130cb57600080fd5b82356130d681612f42565b915060208301356130e6816130aa565b809150509250929050565b60008060008060008060c0878903121561310a57600080fd5b863561311581612f42565b955060208701359450604087013561312c81612f42565b9350606087013561313c81612f42565b92506080870135915060a0870135613153816130aa565b809150509295509295509295565b60008060006060848603121561317657600080fd5b833561318181612f42565b9250602084013561319181612f42565b9150604084013560ff811681146131a757600080fd5b809150509250925092565b60008083601f8401126131c457600080fd5b5081356001600160401b038111156131db57600080fd5b6020830191508360208260051b8501011115612e2a57600080fd5b6000806000806040858703121561320c57600080fd5b84356001600160401b038082111561322357600080fd5b61322f888389016131b2565b9096509450602087013591508082111561324857600080fd5b50613255878288016131b2565b95989497509550505050565b6000808585111561327157600080fd5b8386111561327e57600080fd5b5050820193919092039150565b634e487b7160e01b600052604160045260246000fd5b60405161014081016001600160401b03811182821017156132c4576132c461328b565b60405290565b604051601f8201601f191681016001600160401b03811182821017156132f2576132f261328b565b604052919050565b60006001600160401b038211156133135761331361328b565b5060051b60200190565b600082601f83011261332e57600080fd5b8135602061334361333e836132fa565b6132ca565b82815260059290921b8401810191818101908684111561336257600080fd5b8286015b84811015610db357803561337981612f42565b8352918301918301613366565b6000601f838184011261339857600080fd5b823560206133a861333e836132fa565b82815260059290921b850181019181810190878411156133c757600080fd5b8287015b8481101561345d5780356001600160401b03808211156133eb5760008081fd5b818a0191508a603f8301126134005760008081fd5b858201356040828211156134165761341661328b565b613427828b01601f191689016132ca565b92508183528c8183860101111561343e5760008081fd5b81818501898501375060009082018701528452509183019183016133cb565b50979650505050505050565b60006020828403121561347b57600080fd5b81356001600160401b038082111561349257600080fd5b9083019061014082860312156134a757600080fd5b6134af6132a1565b6134b883612f57565b8152602083013560208201526134d060408401612f57565b60408201526134e160608401612f57565b60608201526134f260808401612f57565b608082015260a083013560a082015260c08301358281111561351357600080fd5b61351f8782860161331d565b60c08301525060e08301358281111561353757600080fd5b61354387828601613386565b60e083015250610100808401358381111561355d57600080fd5b6135698882870161331d565b828401525050610120808401358381111561358357600080fd5b61358f88828701613386565b918301919091525095945050505050565b60005b838110156135bb5781810151838201526020016135a3565b838111156110795750506000910152565b600081518084526135e48160208601602086016135a0565b601f01601f19169290920160200192915050565b6001600160a01b0383168152604060208201819052600090611955908301846135cc565b60006020828403121561362e57600080fd5b8151612577816130aa565b6000808335601e1984360301811261365057600080fd5b8301803591506001600160401b0382111561366a57600080fd5b6020019150600581901b3603821315612e2a57600080fd5b634e487b7160e01b600052603260045260246000fd5b6000808335601e198436030181126136af57600080fd5b8301803591506001600160401b038211156136c957600080fd5b602001915036819003821315612e2a57600080fd5b82815260406020820152600061195560408301846135cc565b6000806040838503121561370a57600080fd5b825161371581612f42565b6020939093015192949293505050565b634e487b7160e01b600052601160045260246000fd5b600060001982141561374f5761374f613725565b5060010190565b60006020828403121561376857600080fd5b815161257781612f42565b858152602081018590526001600160a01b03841660408201526080606082018190528101829052818360a0830137600081830160a090810191909152601f909201601f19160101949350505050565b60208082526038908201527f526570617920616d6f756e7420287472616e73616374696f6e2076616c75652960408201527f206d7573742062652067726561746572207468616e20302e0000000000000000606082015260800190565b60006020828403121561383157600080fd5b5051919050565b6020808252601390820152722634b8bab4b230ba34b7b7103330b4b632b21760691b604082015260600190565b60208082526012908201527127379031aa37b5b2b7399039b2b4bd32b21760711b604082015260600190565b602080825260409082018190527f4572726f722063616c6c696e672072656465656d696e67207365697a65642063908201527f546f6b656e3a206572726f7220636f6465206e6f7420657175616c20746f2030606082015260800190565b60006020828403121561390157600080fd5b8135612577816130aa565b60008282101561391e5761391e613725565b500390565b60008161393257613932613725565b506000190190565b6020808252602b908201527f496e697469616c697a61626c653a20636f6e7472616374206973206e6f74206960408201526a6e697469616c697a696e6760a81b606082015260800190565b60208082526032908201527f6f6e6c792077686974656c697374656420726564656d7074696f6e20737472616040820152711d1959da595cc818d85b881899481d5cd95960721b606082015260800190565b60018060a01b03841681528260208201526060604082015260006127a060608301846135cc565b600061ffff83811690831681811015613a1957613a19613725565b039392505050565b6000816000190483118215151615613a3b57613a3b613725565b500290565b634e487b7160e01b600052601260045260246000fd5b600082613a6557613a65613a40565b500490565b600082613a7957613a79613a40565b500690565b600060a082018783526020878185015260a0604085015281875180845260c086019150828901935060005b81811015613ace5784516001600160a01b031683529383019391830191600101613aa9565b50506001600160a01b03969096166060850152505050608001529392505050565b60006020808385031215613b0257600080fd5b82516001600160401b03811115613b1857600080fd5b8301601f81018513613b2957600080fd5b8051613b3761333e826132fa565b81815260059190911b82018301908381019087831115613b5657600080fd5b928401925b828410156109bc57835182529284019290840190613b5b565b60008251613b868184602087016135a0565b9190910192915050565b60208152600061257760208301846135cc565b80516001600160701b0381168114612f6257600080fd5b600080600060608486031215613bcf57600080fd5b613bd884613ba3565b9250613be660208501613ba3565b9150604084015163ffffffff811681146131a757600080fd5b60008219821115613c1257613c12613725565b50019056fe416464726573733a206c6f772d6c6576656c2064656c65676174652063616c6c206661696c6564a164736f6c634300080a000a",
    "linkReferences": {}
  },
  "methodIdentifiers": {
    "UNISWAP_V2_ROUTER_02()": "ba8bca5a",
    "W_NATIVE_ADDRESS()": "81738f13",
    "_becomeImplementation(bytes)": "56e67728",
    "_whitelistRedemptionStrategies(address[],bool[])": "8a0b9090",
    "_whitelistRedemptionStrategy(address,bool)": "5a431365",
    "flashSwapFee()": "c2ebfdc1",
    "initialize(address,address,uint8)": "89232a00",
    "moraswapCall(address,uint256,uint256,bytes)": "73ed8653",
    "owner()": "8da5cb5b",
    "pancakeCall(address,uint256,uint256,bytes)": "84800812",
    "receiveAuctionProceedings(bytes)": "fced7081",
    "redemptionStrategiesWhitelist(address)": "5b672371",
    "renounceOwnership()": "715018a6",
    "safeLiquidate(address,uint256,address,address,uint256,bool)": "6ba46544",
    "safeLiquidateNoPyth(address,uint256,address,address,uint256,bool)": "99017f4b",
    "safeLiquidateToTokensWithFlashLoan((address,uint256,address,address,address,uint256,address[],bytes[],address[],bytes[]))": "55e9e8fe",
    "setExpressRelay(address)": "030e47df",
    "transferOwnership(address)": "f2fde38b",
    "uniswapV2Call(address,uint256,uint256,bytes)": "10d1e85c",
    "withdrawAll()": "853828b6"
  }
}