{
  "address": "0xB1EeE6D1F72Cd1F9FE74598641B9116Cef7B4486",
  "abi": [
    {
      "type": "receive",
      "stateMutability": "payable"
    },
    {
      "type": "function",
      "name": "UNISWAP_V2_ROUTER_02",
      "inputs": [],
      "outputs": [
        {
          "name": "",
          "type": "address",
          "internalType": "contract IUniswapV2Router02"
        }
      ],
      "stateMutability": "view"
    },
    {
      "type": "function",
      "name": "W_NATIVE_ADDRESS",
      "inputs": [],
      "outputs": [
        {
          "name": "",
          "type": "address",
          "internalType": "address"
        }
      ],
      "stateMutability": "view"
    },
    {
      "type": "function",
      "name": "_becomeImplementation",
      "inputs": [
        {
          "name": "data",
          "type": "bytes",
          "internalType": "bytes"
        }
      ],
      "outputs": [],
      "stateMutability": "nonpayable"
    },
    {
      "type": "function",
      "name": "_whitelistRedemptionStrategies",
      "inputs": [
        {
          "name": "strategies",
          "type": "address[]",
          "internalType": "contract IRedemptionStrategy[]"
        },
        {
          "name": "whitelisted",
          "type": "bool[]",
          "internalType": "bool[]"
        }
      ],
      "outputs": [],
      "stateMutability": "nonpayable"
    },
    {
      "type": "function",
      "name": "_whitelistRedemptionStrategy",
      "inputs": [
        {
          "name": "strategy",
          "type": "address",
          "internalType": "contract IRedemptionStrategy"
        },
        {
          "name": "whitelisted",
          "type": "bool",
          "internalType": "bool"
        }
      ],
      "outputs": [],
      "stateMutability": "nonpayable"
    },
    {
      "type": "function",
      "name": "expressRelay",
      "inputs": [],
      "outputs": [
        {
          "name": "",
          "type": "address",
          "internalType": "contract IExpressRelay"
        }
      ],
      "stateMutability": "view"
    },
    {
      "type": "function",
      "name": "flashSwapFee",
      "inputs": [],
      "outputs": [
        {
          "name": "",
          "type": "uint8",
          "internalType": "uint8"
        }
      ],
      "stateMutability": "view"
    },
    {
      "type": "function",
      "name": "healthFactorThreshold",
      "inputs": [],
      "outputs": [
        {
          "name": "",
          "type": "uint256",
          "internalType": "uint256"
        }
      ],
      "stateMutability": "view"
    },
    {
      "type": "function",
      "name": "initialize",
      "inputs": [
        {
          "name": "_wtoken",
          "type": "address",
          "internalType": "address"
        },
        {
          "name": "_uniswapV2router",
          "type": "address",
          "internalType": "address"
        },
        {
          "name": "_flashSwapFee",
          "type": "uint8",
          "internalType": "uint8"
        }
      ],
      "outputs": [],
      "stateMutability": "nonpayable"
    },
    {
      "type": "function",
      "name": "lens",
      "inputs": [],
      "outputs": [
        {
          "name": "",
          "type": "address",
          "internalType": "contract PoolLens"
        }
      ],
      "stateMutability": "view"
    },
    {
      "type": "function",
      "name": "moraswapCall",
      "inputs": [
        {
          "name": "sender",
          "type": "address",
          "internalType": "address"
        },
        {
          "name": "amount0",
          "type": "uint256",
          "internalType": "uint256"
        },
        {
          "name": "amount1",
          "type": "uint256",
          "internalType": "uint256"
        },
        {
          "name": "data",
          "type": "bytes",
          "internalType": "bytes"
        }
      ],
      "outputs": [],
      "stateMutability": "nonpayable"
    },
    {
      "type": "function",
      "name": "owner",
      "inputs": [],
      "outputs": [
        {
          "name": "",
          "type": "address",
          "internalType": "address"
        }
      ],
      "stateMutability": "view"
    },
    {
      "type": "function",
      "name": "pancakeCall",
      "inputs": [
        {
          "name": "sender",
          "type": "address",
          "internalType": "address"
        },
        {
          "name": "amount0",
          "type": "uint256",
          "internalType": "uint256"
        },
        {
          "name": "amount1",
          "type": "uint256",
          "internalType": "uint256"
        },
        {
          "name": "data",
          "type": "bytes",
          "internalType": "bytes"
        }
      ],
      "outputs": [],
      "stateMutability": "nonpayable"
    },
    {
      "type": "function",
      "name": "receiveAuctionProceedings",
      "inputs": [
        {
          "name": "permissionKey",
          "type": "bytes",
          "internalType": "bytes"
        }
      ],
      "outputs": [],
      "stateMutability": "payable"
    },
    {
      "type": "function",
      "name": "redemptionStrategiesWhitelist",
      "inputs": [
        {
          "name": "",
          "type": "address",
          "internalType": "address"
        }
      ],
      "outputs": [
        {
          "name": "",
          "type": "bool",
          "internalType": "bool"
        }
      ],
      "stateMutability": "view"
    },
    {
      "type": "function",
      "name": "renounceOwnership",
      "inputs": [],
      "outputs": [],
      "stateMutability": "nonpayable"
    },
    {
      "type": "function",
      "name": "safeLiquidate",
      "inputs": [
        {
          "name": "borrower",
          "type": "address",
          "internalType": "address"
        },
        {
          "name": "repayAmount",
          "type": "uint256",
          "internalType": "uint256"
        },
        {
          "name": "cErc20",
          "type": "address",
          "internalType": "contract ICErc20"
        },
        {
          "name": "cTokenCollateral",
          "type": "address",
          "internalType": "contract ICErc20"
        },
        {
          "name": "minOutputAmount",
          "type": "uint256",
          "internalType": "uint256"
        },
        {
          "name": "redeemCollateral",
          "type": "bool",
          "internalType": "bool"
        }
      ],
      "outputs": [
        {
          "name": "",
          "type": "uint256",
          "internalType": "uint256"
        }
      ],
      "stateMutability": "nonpayable"
    },
    {
      "type": "function",
      "name": "safeLiquidateToTokensWithFlashLoan",
      "inputs": [
        {
          "name": "vars",
          "type": "tuple",
          "internalType": "struct ILiquidator.LiquidateToTokensWithFlashSwapVars",
          "components": [
            {
              "name": "borrower",
              "type": "address",
              "internalType": "address"
            },
            {
              "name": "repayAmount",
              "type": "uint256",
              "internalType": "uint256"
            },
            {
              "name": "cErc20",
              "type": "address",
              "internalType": "contract ICErc20"
            },
            {
              "name": "cTokenCollateral",
              "type": "address",
              "internalType": "contract ICErc20"
            },
            {
              "name": "flashSwapContract",
              "type": "address",
              "internalType": "address"
            },
            {
              "name": "minProfitAmount",
              "type": "uint256",
              "internalType": "uint256"
            },
            {
              "name": "redemptionStrategies",
              "type": "address[]",
              "internalType": "contract IRedemptionStrategy[]"
            },
            {
              "name": "strategyData",
              "type": "bytes[]",
              "internalType": "bytes[]"
            },
            {
              "name": "debtFundingStrategies",
              "type": "address[]",
              "internalType": "contract IFundsConversionStrategy[]"
            },
            {
              "name": "debtFundingStrategiesData",
              "type": "bytes[]",
              "internalType": "bytes[]"
            }
          ]
        }
      ],
      "outputs": [
        {
          "name": "",
          "type": "uint256",
          "internalType": "uint256"
        }
      ],
      "stateMutability": "nonpayable"
    },
    {
      "type": "function",
      "name": "setExpressRelay",
      "inputs": [
        {
          "name": "_expressRelay",
          "type": "address",
          "internalType": "address"
        }
      ],
      "outputs": [],
      "stateMutability": "nonpayable"
    },
    {
      "type": "function",
      "name": "setHealthFactorThreshold",
      "inputs": [
        {
          "name": "_healthFactorThreshold",
          "type": "uint256",
          "internalType": "uint256"
        }
      ],
      "outputs": [],
      "stateMutability": "nonpayable"
    },
    {
      "type": "function",
      "name": "setPoolLens",
      "inputs": [
        {
          "name": "_poolLens",
          "type": "address",
          "internalType": "address"
        }
      ],
      "outputs": [],
      "stateMutability": "nonpayable"
    },
    {
      "type": "function",
      "name": "transferOwnership",
      "inputs": [
        {
          "name": "newOwner",
          "type": "address",
          "internalType": "address"
        }
      ],
      "outputs": [],
      "stateMutability": "nonpayable"
    },
    {
      "type": "function",
      "name": "uniswapV2Call",
      "inputs": [
        {
          "name": "",
          "type": "address",
          "internalType": "address"
        },
        {
          "name": "",
          "type": "uint256",
          "internalType": "uint256"
        },
        {
          "name": "",
          "type": "uint256",
          "internalType": "uint256"
        },
        {
          "name": "data",
          "type": "bytes",
          "internalType": "bytes"
        }
      ],
      "outputs": [],
      "stateMutability": "nonpayable"
    },
    {
      "type": "function",
      "name": "withdrawAll",
      "inputs": [],
      "outputs": [],
      "stateMutability": "nonpayable"
    },
    {
      "type": "event",
      "name": "Initialized",
      "inputs": [
        {
          "name": "version",
          "type": "uint8",
          "indexed": false,
          "internalType": "uint8"
        }
      ],
      "anonymous": false
    },
    {
      "type": "event",
      "name": "OwnershipTransferred",
      "inputs": [
        {
          "name": "previousOwner",
          "type": "address",
          "indexed": true,
          "internalType": "address"
        },
        {
          "name": "newOwner",
          "type": "address",
          "indexed": true,
          "internalType": "address"
        }
      ],
      "anonymous": false
    },
    {
      "type": "event",
      "name": "VaultReceivedETH",
      "inputs": [
        {
          "name": "sender",
          "type": "address",
          "indexed": false,
          "internalType": "address"
        },
        {
          "name": "amount",
          "type": "uint256",
          "indexed": false,
          "internalType": "uint256"
        },
        {
          "name": "permissionKey",
          "type": "bytes",
          "indexed": false,
          "internalType": "bytes"
        }
      ],
      "anonymous": false
    }
  ],
  "transactionHash": "0x3d1ccfda4a5ff9c688de44d92090ee2b02e4b4366336eea3fd53f66ce8edc3f7",
  "args": [],
  "numDeployments": 12,
  "bytecode": {
    "object": "0x608060405234801561001057600080fd5b50613df4806100206000396000f3fe60806040526004361061014f5760003560e01c8063715018a6116100b65780638a0b90901161006f5780638a0b9090146103f85780638da5cb5b14610418578063ba8bca5a14610436578063c2ebfdc114610456578063f2fde38b14610489578063fced7081146104a957600080fd5b8063715018a61461036e57806373ed86531461038357806381738f13146103a35780638480081214610383578063853828b6146103c357806389232a00146103d857600080fd5b806355e9e8fe1161010857806355e9e8fe1461028f57806356e67728146102af5780635a431365146102ce5780635b672371146102ee5780636ba465441461032e5780636f6c04471461034e57600080fd5b8063030e47df146101ae5780630add23ea146101ce57806310d1e85c146101ee578063112666b71461020e57806329f269f41461024b5780632c89aa2e1461026b57600080fd5b366101a957333b6101a75760405162461bcd60e51b815260206004820152601960248201527f53656e646572206973206e6f74206120636f6e74726163742e0000000000000060448201526064015b60405180910390fd5b005b600080fd5b3480156101ba57600080fd5b506101a76101c9366004613104565b6104bc565b3480156101da57600080fd5b506101a76101e9366004613121565b6104e6565b3480156101fa57600080fd5b506101a761020936600461317b565b61054b565b34801561021a57600080fd5b50606c5461022e906001600160a01b031681565b6040516001600160a01b0390911681526020015b60405180910390f35b34801561025757600080fd5b506101a7610266366004613104565b61059a565b34801561027757600080fd5b50610281606d5481565b604051908152602001610242565b34801561029b57600080fd5b506102816102aa3660046131e4565b6105c4565b3480156102bb57600080fd5b506101a76102ca36600461321f565b5050565b3480156102da57600080fd5b506101a76102e936600461326e565b610c13565b3480156102fa57600080fd5b5061031e610309366004613104565b60686020526000908152604090205460ff1681565b6040519015158152602001610242565b34801561033a57600080fd5b506102816103493660046132a7565b610c46565b34801561035a57600080fd5b50606b5461022e906001600160a01b031681565b34801561037a57600080fd5b506101a76111b1565b34801561038f57600080fd5b506101a761039e36600461317b565b6111c5565b3480156103af57600080fd5b5060655461022e906001600160a01b031681565b3480156103cf57600080fd5b506101a76111d9565b3480156103e457600080fd5b506101a76103f3366004613317565b6112be565b34801561040457600080fd5b506101a76104133660046133ac565b611472565b34801561042457600080fd5b506033546001600160a01b031661022e565b34801561044257600080fd5b5060665461022e906001600160a01b031681565b34801561046257600080fd5b50606a5461047790600160a01b900460ff1681565b60405160ff9091168152602001610242565b34801561049557600080fd5b506101a76104a4366004613104565b611591565b6101a76104b736600461321f565b61160a565b6104c461164b565b606b80546001600160a01b0319166001600160a01b0392909216919091179055565b6104ee61164b565b670de0b6b3a76400008111156105465760405162461bcd60e51b815260206004820152601f60248201527f496e76616c6964204865616c746820466163746f72205468726573686f6c6400604482015260640161019e565b606d55565b600061055a8260048186613417565b810190610567919061368e565b9050610572816116a5565b606780546001600160a01b0319166001600160a01b0392909216919091179055505050505050565b6105a261164b565b606c80546001600160a01b0319166001600160a01b0392909216919091179055565b60006105d36020830183613104565b6105e36080840160608501613104565b6000606c60009054906101000a90046001600160a01b03166001600160a01b03166357c89a7d84846001600160a01b0316635fe3b5676040518163ffffffff1660e01b8152600401602060405180830381865afa158015610648573d6000803e3d6000fd5b505050506040513d601f19601f8201168201806040525081019061066c91906137c5565b6040516001600160e01b031960e085901b1681526001600160a01b03928316600482015291166024820152604401602060405180830381865afa1580156106b7573d6000803e3d6000fd5b505050506040513d601f19601f820116820180604052508101906106db91906137e2565b9050606d548111156107ba57606b54604080516001600160a01b0386811660208301529092169163403e96f6913091016040516020818303038152906040526040518363ffffffff1660e01b8152600401610737929190613853565b602060405180830381865afa158015610754573d6000803e3d6000fd5b505050506040513d601f19601f820116820180604052508101906107789190613877565b6107ba5760405162461bcd60e51b815260206004820152601360248201527234b73b30b634b2103634b8bab4b230ba34b7b760691b604482015260640161019e565b600085602001351161081a5760405162461bcd60e51b8152602060048201526024808201527f526570617920616d6f756e74206d7573742062652067726561746572207468616044820152633710181760e11b606482015260840161019e565b6020850135600080610830610100890189613894565b90501115610a4757610846610120880188613894565b9050610856610100890189613894565b9050146109005760405162461bcd60e51b815260206004820152606660248201527f46756e64696e67204946756e6473436f6e76657273696f6e537472617465677960448201527f20636f6e747261637420617272617920616e642073747261746567792064617460648201527f61206279746573206172726179206d757374206265207468652073616d65206c60848201526532b733ba341760d11b60a482015260c40161019e565b60005b610911610100890189613894565b9050811015610a4157600061092a6101208a018a613894565b8381811061093a5761093a6138dd565b905060200281019061094c91906138f3565b8080601f0160208091040260200160405190810160405280939291908181526020018383808284376000920182905250939450610991925050506101008b018b613894565b848181106109a1576109a16138dd565b90506020020160208101906109b69190613104565b60405163180994cb60e11b81529091506001600160a01b038216906330132996906109e79088908690600401613939565b6040805180830381865afa158015610a03573d6000803e3d6000fd5b505050506040513d601f19601f82011682018060405250810190610a279190613952565b95509350829150610a39905081613996565b915050610903565b50610abb565b610a576060880160408901613104565b6001600160a01b0316636f307dc36040518163ffffffff1660e01b8152600401602060405180830381865afa158015610a94573d6000803e3d6000fd5b505050506040513d601f19601f82011682018060405250810190610ab891906137c5565b90505b6069829055606a80546001600160a01b0319166001600160a01b0383161790556000610aed60a0890160808a01613104565b90506000826001600160a01b0316826001600160a01b0316630dfe16816040518163ffffffff1660e01b8152600401602060405180830381865afa158015610b39573d6000803e3d6000fd5b505050506040513d601f19601f82011682018060405250810190610b5d91906137c5565b6001600160a01b0316149050816001600160a01b031663022c0d9f82610b84576000610b86565b855b8315610b93576000610b95565b865b306000366040518663ffffffff1660e01b8152600401610bb99594939291906139da565b600060405180830381600087803b158015610bd357600080fd5b505af1158015610be7573d6000803e3d6000fd5b5050606754610c0692506001600160a01b0316905060a08b0135611aef565b9998505050505050505050565b610c1b61164b565b6001600160a01b03919091166000908152606860205260409020805460ff1916911515919091179055565b600086846000606c60009054906101000a90046001600160a01b03166001600160a01b03166357c89a7d84846001600160a01b0316635fe3b5676040518163ffffffff1660e01b8152600401602060405180830381865afa158015610caf573d6000803e3d6000fd5b505050506040513d601f19601f82011682018060405250810190610cd391906137c5565b6040516001600160e01b031960e085901b1681526001600160a01b03928316600482015291166024820152604401602060405180830381865afa158015610d1e573d6000803e3d6000fd5b505050506040513d601f19601f82011682018060405250810190610d4291906137e2565b9050606d54811115610e2157606b54604080516001600160a01b0386811660208301529092169163403e96f6913091016040516020818303038152906040526040518363ffffffff1660e01b8152600401610d9e929190613853565b602060405180830381865afa158015610dbb573d6000803e3d6000fd5b505050506040513d601f19601f82011682018060405250810190610ddf9190613877565b610e215760405162461bcd60e51b815260206004820152601360248201527234b73b30b634b2103634b8bab4b230ba34b7b760691b604482015260640161019e565b60008911610e975760405162461bcd60e51b815260206004820152603860248201527f526570617920616d6f756e7420287472616e73616374696f6e2076616c75652960448201527f206d7573742062652067726561746572207468616e20302e0000000000000000606482015260840161019e565b6000886001600160a01b0316636f307dc36040518163ffffffff1660e01b8152600401602060405180830381865afa158015610ed7573d6000803e3d6000fd5b505050506040513d601f19601f82011682018060405250810190610efb91906137c5565b9050610f126001600160a01b03821633308d611bdc565b610f1d818a8c611c47565b604051637af1e23160e11b81526001600160a01b038c81166004830152602482018c905289811660448301528a169063f5e3c462906064016020604051808303816000875af1158015610f74573d6000803e3d6000fd5b505050506040513d601f19601f82011682018060405250810190610f9891906137e2565b15610fdb5760405162461bcd60e51b81526020600482015260136024820152722634b8bab4b230ba34b7b7103330b4b632b21760691b604482015260640161019e565b8515611196576040516370a0823160e01b81523060048201526000906001600160a01b038a16906370a0823190602401602060405180830381865afa158015611028573d6000803e3d6000fd5b505050506040513d601f19601f8201168201806040525081019061104c91906137e2565b9050600081116110935760405162461bcd60e51b815260206004820152601260248201527127379031aa37b5b2b7399039b2b4bd32b21760711b604482015260640161019e565b60405163db006a7560e01b8152600481018290526000906001600160a01b038b169063db006a75906024016020604051808303816000875af11580156110dd573d6000803e3d6000fd5b505050506040513d601f19601f8201168201806040525081019061110191906137e2565b905080156111215760405162461bcd60e51b815260040161019e90613a08565b61118c8a6001600160a01b0316636f307dc36040518163ffffffff1660e01b8152600401602060405180830381865afa158015611162573d6000803e3d6000fd5b505050506040513d601f19601f8201168201806040525081019061118691906137c5565b8a611aef565b96505050506111a4565b6111a08888611aef565b9450505b5050509695505050505050565b6111b961164b565b6111c36000611cba565b565b6111d2858585858561054b565b5050505050565b6111e161164b565b478061122f5760405162461bcd60e51b815260206004820152601960248201527f4e6f204574686572206c65667420746f20776974686472617700000000000000604482015260640161019e565b604051600090339083908381818185875af1925050503d8060008114611271576040519150601f19603f3d011682016040523d82523d6000602084013e611276565b606091505b50509050806102ca5760405162461bcd60e51b81526020600482015260146024820152732330b4b632b2103a379039b2b7321022ba3432b960611b604482015260640161019e565b600054610100900460ff16158080156112de5750600054600160ff909116105b806112f85750303b1580156112f8575060005460ff166001145b61135b5760405162461bcd60e51b815260206004820152602e60248201527f496e697469616c697a61626c653a20636f6e747261637420697320616c72656160448201526d191e481a5b9a5d1a585b1a5e995960921b606482015260840161019e565b6000805460ff19166001179055801561137e576000805461ff0019166101001790555b611386611d0c565b6001600160a01b0383166113dc5760405162461bcd60e51b815260206004820152601d60248201527f5f756e69737761705632726f75746572206e6f7420646566696e65642e000000604482015260640161019e565b606580546001600160a01b038087166001600160a01b0319928316179092556066805492861692909116919091179055606a805460ff8416600160a01b0260ff60a01b19909116179055801561146c576000805461ff0019169055604051600181527f7f26b83ff96e1f2b6a682f133852f6798a09c465da95921460cefb38474024989060200160405180910390a15b50505050565b61147a61164b565b821580159061148857508281145b6114fa5760405162461bcd60e51b815260206004820152603f60248201527f6c697374206f66207374726174656769657320656d707479206f72207768697460448201527f656c69737420646f6573206e6f74206d6174636820697473206c656e67746800606482015260840161019e565b60005b838110156111d257828282818110611517576115176138dd565b905060200201602081019061152c9190613a66565b60686000878785818110611542576115426138dd565b90506020020160208101906115579190613104565b6001600160a01b031681526020810191909152604001600020805460ff19169115159190911790558061158981613996565b9150506114fd565b61159961164b565b6001600160a01b0381166115fe5760405162461bcd60e51b815260206004820152602660248201527f4f776e61626c653a206e6577206f776e657220697320746865207a65726f206160448201526564647265737360d01b606482015260840161019e565b61160781611cba565b50565b7f373bc109b9e1d2a0702bd463de500dfec960521e4498acc170fd65867e46041c3334848460405161163f9493929190613a83565b60405180910390a15050565b6033546001600160a01b031633146111c35760405162461bcd60e51b815260206004820181905260248201527f4f776e61626c653a2063616c6c6572206973206e6f7420746865206f776e6572604482015260640161019e565b606a54606954610100830151516000926001600160a01b031691901561174c57610100840151515b801561174a5761173383838761010001516001856116eb9190613ab5565b815181106116fb576116fb6138dd565b60200260200101518861012001516001866117169190613ab5565b81518110611726576117266138dd565b6020026020010151611d3b565b90935091508061174281613acc565b9150506116cd565b505b600084604001516001600160a01b0316636f307dc36040518163ffffffff1660e01b8152600401602060405180830381865afa158015611790573d6000803e3d6000fd5b505050506040513d601f19601f820116820180604052508101906117b491906137c5565b9050806001600160a01b0316836001600160a01b03161461184f5760405162461bcd60e51b815260206004820152604960248201527f74686520646562742072657061796d656e742066756e64732073686f756c642060448201527f626520636f6e76657274656420746f2074686520756e6465726c79696e67206460648201526832b13a103a37b5b2b760b91b608482015260a40161019e565b84602001518210156118a35760405162461bcd60e51b815260206004820181905260248201527f646562742072657061796d656e7420616d6f756e74206e6f7420656e6f756768604482015260640161019e565b6118b68186604001518760200151611c47565b6040858101518651602088015160608901519351637af1e23160e11b81526001600160a01b03928316600482015260248101919091529281166044840152169063f5e3c462906064016020604051808303816000875af115801561191e573d6000803e3d6000fd5b505050506040513d601f19601f8201168201806040525081019061194291906137e2565b156119855760405162461bcd60e51b81526020600482015260136024820152722634b8bab4b230ba34b7b7103330b4b632b21760691b604482015260640161019e565b60608501516040516370a0823160e01b81523060048201526000916001600160a01b0316906370a0823190602401602060405180830381865afa1580156119d0573d6000803e3d6000fd5b505050506040513d601f19601f820116820180604052508101906119f491906137e2565b905060008111611a3b5760405162461bcd60e51b815260206004820152601260248201527127379031aa37b5b2b7399039b2b4bd32b21760711b604482015260640161019e565b606086015160405163db006a7560e01b8152600481018390526000916001600160a01b03169063db006a75906024016020604051808303816000875af1158015611a89573d6000803e3d6000fd5b505050506040513d601f19601f82011682018060405250810190611aad91906137e2565b90508015611acd5760405162461bcd60e51b815260040161019e90613a08565b505050611ae784606001518560c001518660e00151611df3565b949350505050565b6040516370a0823160e01b8152306004820152600090839082906001600160a01b038316906370a0823190602401602060405180830381865afa158015611b3a573d6000803e3d6000fd5b505050506040513d601f19601f82011682018060405250810190611b5e91906137e2565b905083811015611bc25760405162461bcd60e51b815260206004820152602960248201527f4d696e696d756d20746f6b656e206f757470757420616d6f756e74206e6f742060448201526839b0ba34b334b2b21760b91b606482015260840161019e565b8015611ae757611ae76001600160a01b0383163383612710565b6040516001600160a01b038085166024830152831660448201526064810182905261146c9085906323b872dd60e01b906084015b60408051601f198184030181529190526020810180516001600160e01b03166001600160e01b031990931692909217909152612745565b60405163095ea7b360e01b81526001600160a01b0383811660048301526024820183905284169063095ea7b3906044016020604051808303816000875af1158015611c96573d6000803e3d6000fd5b505050506040513d601f19601f8201168201806040525081019061146c9190613877565b603380546001600160a01b038381166001600160a01b0319831681179093556040519116919082907f8be0079c531659141344cd1fd0a4f28419497f9722a3daafe3b4186f6b6457e090600090a35050565b600054610100900460ff16611d335760405162461bcd60e51b815260040161019e90613ae3565b6111c3612817565b6001600160a01b038216600090815260686020526040812054819060ff16611d755760405162461bcd60e51b815260040161019e90613b2e565b6000611dcf856389eabf0260e01b898988604051602401611d9893929190613b80565b60408051601f198184030181529190526020810180516001600160e01b03166001600160e01b031990931692909217909152612847565b905080806020019051810190611de59190613952565b925092505094509492505050565b606a546000908190611e1190600160a01b900460ff16612710613ba7565b61ffff16606954612710611e259190613bca565b611e2f9190613bff565b606a54909150600090611e4e90600160a01b900460ff16612710613ba7565b61ffff16606954612710611e629190613bca565b611e6c9190613c13565b1115611e805780611e7c81613996565b9150505b6000856001600160a01b0316636f307dc36040518163ffffffff1660e01b8152600401602060405180830381865afa158015611ec0573d6000803e3d6000fd5b505050506040513d601f19601f82011682018060405250810190611ee491906137c5565b6040516370a0823160e01b81523060048201529091506000906001600160a01b038316906370a0823190602401602060405180830381865afa158015611f2e573d6000803e3d6000fd5b505050506040513d601f19601f82011682018060405250810190611f5291906137e2565b86519091501561205c578451865114611ff95760405162461bcd60e51b815260206004820152605b60248201527f49526564656d7074696f6e537472617465677920636f6e74726163742061727260448201527f617920616e64207374726174656779206461746120627974657320617272617960648201527f206d6e75737420746865207468652073616d65206c656e6774682e0000000000608482015260a40161019e565b60005b865181101561205a57612043838389848151811061201c5761201c6138dd565b6020026020010151898581518110612036576120366138dd565b602002602001015161293b565b90935091508061205281613996565b915050611ffc565b505b6000339050806001600160a01b0316630dfe16816040518163ffffffff1660e01b8152600401602060405180830381865afa15801561209f573d6000803e3d6000fd5b505050506040513d601f19601f820116820180604052508101906120c391906137c5565b6001600160a01b0316836001600160a01b031614806121545750806001600160a01b031663d21220a76040518163ffffffff1660e01b8152600401602060405180830381865afa15801561211b573d6000803e3d6000fd5b505050506040513d601f19601f8201168201806040525081019061213f91906137c5565b6001600160a01b0316836001600160a01b0316145b1561238957606a546000906001600160a01b0385811691161415612179575083612231565b6066546040805163c45a015560e01b81529051612214926001600160a01b03169163c45a01559160048083019260209291908290030181865afa1580156121c4573d6000803e3d6000fd5b505050506040513d601f19601f820116820180604052508101906121e891906137c5565b606954606a546122029088906001600160a01b0316612998565b606a54600160a01b900460ff16612a25565b600081518110612226576122266138dd565b602002602001015190505b828111156122a75760405162461bcd60e51b815260206004820152603d60248201527f546f6b656e20666c6173686c6f616e2072657475726e20616d6f756e7420677260448201527f6561746572207468616e207365697a656420636f6c6c61746572616c2e000000606482015260840161019e565b60405163a9059cbb60e01b8152336004820152602481018290526001600160a01b0385169063a9059cbb906044016020604051808303816000875af11580156122f4573d6000803e3d6000fd5b505050506040513d601f19601f820116820180604052508101906123189190613877565b61237c5760405162461bcd60e51b815260206004820152602f60248201527f4661696c656420746f20726570617920746f6b656e20666c6173686c6f616e2060448201526e37b7103137b93937bb9039b4b2329760891b606482015260840161019e565b8395505050505050612709565b606554606a546000916001600160a01b03918216911614156123ac575083612456565b6066546040805163c45a015560e01b81529051612439926001600160a01b03169163c45a01559160048083019260209291908290030181865afa1580156123f7573d6000803e3d6000fd5b505050506040513d601f19601f8201168201806040525081019061241b91906137c5565b606554606a548891612202916001600160a01b039182169116612998565b60008151811061244b5761244b6138dd565b602002602001015190505b6065546001600160a01b03858116911614612516576066546124839085906001600160a01b031685611c47565b6066546065546001600160a01b0391821691638803dbee91849187916124ab918a9116612998565b30426040518663ffffffff1660e01b81526004016124cd959493929190613c27565b6000604051808303816000875af11580156124ec573d6000803e3d6000fd5b505050506040513d6000823e601f3d908101601f191682016040526125149190810190613c98565b505b6065546040516370a0823160e01b81523060048201526001600160a01b03909116906370a0823190602401602060405180830381865afa15801561255e573d6000803e3d6000fd5b505050506040513d601f19601f8201168201806040525081019061258291906137e2565b8111156126085760405162461bcd60e51b815260206004820152604860248201527f4e6f7420656e6f75676820575f4e41544956452065786368616e67656420667260448201527f6f6d207365697a656420636f6c6c61746572616c20746f20726570617920666c60648201526730b9b43637b0b71760c11b608482015260a40161019e565b60655460405163a9059cbb60e01b8152336004820152602481018390526001600160a01b039091169063a9059cbb906044016020604051808303816000875af1158015612659573d6000803e3d6000fd5b505050506040513d601f19601f8201168201806040525081019061267d9190613877565b61237c5760405162461bcd60e51b815260206004820152605160248201527f4661696c656420746f20726570617920556e697377617020666c6173686c6f6160448201527f6e207769746820575f4e41544956452065786368616e6765642066726f6d207360648201527032b4bd32b21031b7b63630ba32b930b61760791b608482015260a40161019e565b9392505050565b6040516001600160a01b03831660248201526044810182905261274090849063a9059cbb60e01b90606401611c10565b505050565b600061279a826040518060400160405280602081526020017f5361666545524332303a206c6f772d6c6576656c2063616c6c206661696c6564815250856001600160a01b0316612bbc9092919063ffffffff16565b80519091501561274057808060200190518101906127b89190613877565b6127405760405162461bcd60e51b815260206004820152602a60248201527f5361666545524332303a204552433230206f7065726174696f6e20646964206e6044820152691bdd081cdd58d8d9595960b21b606482015260840161019e565b600054610100900460ff1661283e5760405162461bcd60e51b815260040161019e90613ae3565b6111c333611cba565b60606001600160a01b0383163b6128af5760405162461bcd60e51b815260206004820152602660248201527f416464726573733a2064656c65676174652063616c6c20746f206e6f6e2d636f6044820152651b9d1c9858dd60d21b606482015260840161019e565b600080846001600160a01b0316846040516128ca9190613d1d565b600060405180830381855af49150503d8060008114612905576040519150601f19603f3d011682016040523d82523d6000602084013e61290a565b606091505b50915091506129328282604051806060016040528060278152602001613dc160279139612bcb565b95945050505050565b6001600160a01b038216600090815260686020526040812054819060ff166129755760405162461bcd60e51b815260040161019e90613b2e565b6000611dcf856310badf4e60e01b898988604051602401611d9893929190613b80565b6040805160028082526060808301845292600092919060208301908036833701905050905083816000815181106129d1576129d16138dd565b60200260200101906001600160a01b031690816001600160a01b0316815250508281600181518110612a0557612a056138dd565b6001600160a01b0390921660209283029190910190910152905092915050565b6060600283511015612a795760405162461bcd60e51b815260206004820152601e60248201527f556e697377617056324c6962726172793a20494e56414c49445f504154480000604482015260640161019e565b82516001600160401b03811115612a9257612a92613441565b604051908082528060200260200182016040528015612abb578160200160208202803683370190505b509050838160018351612ace9190613ab5565b81518110612ade57612ade6138dd565b602002602001018181525050600060018451612afa9190613ab5565b90505b8015612bb357600080612b4d8887612b16600187613ab5565b81518110612b2657612b266138dd565b6020026020010151888681518110612b4057612b406138dd565b6020026020010151612c04565b91509150612b76848481518110612b6657612b666138dd565b6020026020010151838388612cce565b84612b82600186613ab5565b81518110612b9257612b926138dd565b60200260200101818152505050508080612bab90613acc565b915050612afd565b50949350505050565b6060611ae78484600085612e06565b60608315612bda575081612709565b825115612bea5782518084602001fd5b8160405162461bcd60e51b815260040161019e9190613d39565b6000806000612c138585612ed6565b509050600080612c24888888612fce565b6001600160a01b0316630902f1ac6040518163ffffffff1660e01b8152600401606060405180830381865afa158015612c61573d6000803e3d6000fd5b505050506040513d601f19601f82011682018060405250810190612c859190613d63565b506001600160701b031691506001600160701b03169150826001600160a01b0316876001600160a01b031614612cbc578082612cbf565b81815b90999098509650505050505050565b6000808511612d345760405162461bcd60e51b815260206004820152602c60248201527f556e697377617056324c6962726172793a20494e53554646494349454e545f4f60448201526b155514155517d05353d5539560a21b606482015260840161019e565b600084118015612d445750600083115b612da15760405162461bcd60e51b815260206004820152602860248201527f556e697377617056324c6962726172793a20494e53554646494349454e545f4c604482015267495155494449545960c01b606482015260840161019e565b6000612dad8686613bca565b612db990612710613bca565b90506000612dcc60ff8516612710613ba7565b61ffff16612dda8887613ab5565b612de49190613bca565b9050612df08183613bff565b612dfb906001613da8565b979650505050505050565b606082471015612e675760405162461bcd60e51b815260206004820152602660248201527f416464726573733a20696e73756666696369656e742062616c616e636520666f6044820152651c8818d85b1b60d21b606482015260840161019e565b600080866001600160a01b03168587604051612e839190613d1d565b60006040518083038185875af1925050503d8060008114612ec0576040519150601f19603f3d011682016040523d82523d6000602084013e612ec5565b606091505b5091509150612dfb87838387613044565b600080826001600160a01b0316846001600160a01b03161415612f495760405162461bcd60e51b815260206004820152602560248201527f556e697377617056324c6962726172793a204944454e544943414c5f41444452604482015264455353455360d81b606482015260840161019e565b826001600160a01b0316846001600160a01b031610612f69578284612f6c565b83835b90925090506001600160a01b038216612fc75760405162461bcd60e51b815260206004820152601e60248201527f556e697377617056324c6962726172793a205a45524f5f414444524553530000604482015260640161019e565b9250929050565b60405163e6a4390560e01b81526001600160a01b03838116600483015282811660248301526000919085169063e6a4390590604401602060405180830381865afa158015613020573d6000803e3d6000fd5b505050506040513d601f19601f82011682018060405250810190611ae791906137c5565b606083156130b05782516130a9576001600160a01b0385163b6130a95760405162461bcd60e51b815260206004820152601d60248201527f416464726573733a2063616c6c20746f206e6f6e2d636f6e7472616374000000604482015260640161019e565b5081611ae7565b611ae783838151156130c55781518083602001fd5b8060405162461bcd60e51b815260040161019e9190613d39565b6001600160a01b038116811461160757600080fd5b80356130ff816130df565b919050565b60006020828403121561311657600080fd5b8135612709816130df565b60006020828403121561313357600080fd5b5035919050565b60008083601f84011261314c57600080fd5b5081356001600160401b0381111561316357600080fd5b602083019150836020828501011115612fc757600080fd5b60008060008060006080868803121561319357600080fd5b853561319e816130df565b9450602086013593506040860135925060608601356001600160401b038111156131c757600080fd5b6131d38882890161313a565b969995985093965092949392505050565b6000602082840312156131f657600080fd5b81356001600160401b0381111561320c57600080fd5b8201610140818503121561270957600080fd5b6000806020838503121561323257600080fd5b82356001600160401b0381111561324857600080fd5b6132548582860161313a565b90969095509350505050565b801515811461160757600080fd5b6000806040838503121561328157600080fd5b823561328c816130df565b9150602083013561329c81613260565b809150509250929050565b60008060008060008060c087890312156132c057600080fd5b86356132cb816130df565b95506020870135945060408701356132e2816130df565b935060608701356132f2816130df565b92506080870135915060a087013561330981613260565b809150509295509295509295565b60008060006060848603121561332c57600080fd5b8335613337816130df565b92506020840135613347816130df565b9150604084013560ff8116811461335d57600080fd5b809150509250925092565b60008083601f84011261337a57600080fd5b5081356001600160401b0381111561339157600080fd5b6020830191508360208260051b8501011115612fc757600080fd5b600080600080604085870312156133c257600080fd5b84356001600160401b03808211156133d957600080fd5b6133e588838901613368565b909650945060208701359150808211156133fe57600080fd5b5061340b87828801613368565b95989497509550505050565b6000808585111561342757600080fd5b8386111561343457600080fd5b5050820193919092039150565b634e487b7160e01b600052604160045260246000fd5b60405161014081016001600160401b038111828210171561347a5761347a613441565b60405290565b604051601f8201601f191681016001600160401b03811182821017156134a8576134a8613441565b604052919050565b60006001600160401b038211156134c9576134c9613441565b5060051b60200190565b600082601f8301126134e457600080fd5b813560206134f96134f4836134b0565b613480565b82815260059290921b8401810191818101908684111561351857600080fd5b8286015b8481101561353c57803561352f816130df565b835291830191830161351c565b509695505050505050565b6000601f838184011261355957600080fd5b823560206135696134f4836134b0565b82815260059290921b8501810191818101908784111561358857600080fd5b8287015b8481101561361e5780356001600160401b03808211156135ac5760008081fd5b818a0191508a603f8301126135c15760008081fd5b858201356040828211156135d7576135d7613441565b6135e8828b01601f19168901613480565b92508183528c818386010111156135ff5760008081fd5b818185018985013750600090820187015284525091830191830161358c565b50979650505050505050565b600082601f83011261363b57600080fd5b8135602061364b6134f4836134b0565b82815260059290921b8401810191818101908684111561366a57600080fd5b8286015b8481101561353c578035613681816130df565b835291830191830161366e565b6000602082840312156136a057600080fd5b81356001600160401b03808211156136b757600080fd5b9083019061014082860312156136cc57600080fd5b6136d4613457565b6136dd836130f4565b8152602083013560208201526136f5604084016130f4565b6040820152613706606084016130f4565b6060820152613717608084016130f4565b608082015260a083013560a082015260c08301358281111561373857600080fd5b613744878286016134d3565b60c08301525060e08301358281111561375c57600080fd5b61376887828601613547565b60e083015250610100808401358381111561378257600080fd5b61378e8882870161362a565b82840152505061012080840135838111156137a857600080fd5b6137b488828701613547565b918301919091525095945050505050565b6000602082840312156137d757600080fd5b8151612709816130df565b6000602082840312156137f457600080fd5b5051919050565b60005b838110156138165781810151838201526020016137fe565b8381111561146c5750506000910152565b6000815180845261383f8160208601602086016137fb565b601f01601f19169290920160200192915050565b6001600160a01b0383168152604060208201819052600090611ae790830184613827565b60006020828403121561388957600080fd5b815161270981613260565b6000808335601e198436030181126138ab57600080fd5b8301803591506001600160401b038211156138c557600080fd5b6020019150600581901b3603821315612fc757600080fd5b634e487b7160e01b600052603260045260246000fd5b6000808335601e1984360301811261390a57600080fd5b8301803591506001600160401b0382111561392457600080fd5b602001915036819003821315612fc757600080fd5b828152604060208201526000611ae76040830184613827565b6000806040838503121561396557600080fd5b8251613970816130df565b6020939093015192949293505050565b634e487b7160e01b600052601160045260246000fd5b60006000198214156139aa576139aa613980565b5060010190565b81835281816020850137506000828201602090810191909152601f909101601f19169091010190565b85815284602082015260018060a01b0384166040820152608060608201526000612dfb6080830184866139b1565b602080825260409082018190527f4572726f722063616c6c696e672072656465656d696e67207365697a65642063908201527f546f6b656e3a206572726f7220636f6465206e6f7420657175616c20746f2030606082015260800190565b600060208284031215613a7857600080fd5b813561270981613260565b60018060a01b0385168152836020820152606060408201526000613aab6060830184866139b1565b9695505050505050565b600082821015613ac757613ac7613980565b500390565b600081613adb57613adb613980565b506000190190565b6020808252602b908201527f496e697469616c697a61626c653a20636f6e7472616374206973206e6f74206960408201526a6e697469616c697a696e6760a81b606082015260800190565b60208082526032908201527f6f6e6c792077686974656c697374656420726564656d7074696f6e20737472616040820152711d1959da595cc818d85b881899481d5cd95960721b606082015260800190565b60018060a01b03841681528260208201526060604082015260006129326060830184613827565b600061ffff83811690831681811015613bc257613bc2613980565b039392505050565b6000816000190483118215151615613be457613be4613980565b500290565b634e487b7160e01b600052601260045260246000fd5b600082613c0e57613c0e613be9565b500490565b600082613c2257613c22613be9565b500690565b600060a082018783526020878185015260a0604085015281875180845260c086019150828901935060005b81811015613c775784516001600160a01b031683529383019391830191600101613c52565b50506001600160a01b03969096166060850152505050608001529392505050565b60006020808385031215613cab57600080fd5b82516001600160401b03811115613cc157600080fd5b8301601f81018513613cd257600080fd5b8051613ce06134f4826134b0565b81815260059190911b82018301908381019087831115613cff57600080fd5b928401925b82841015612dfb57835182529284019290840190613d04565b60008251613d2f8184602087016137fb565b9190910192915050565b6020815260006127096020830184613827565b80516001600160701b03811681146130ff57600080fd5b600080600060608486031215613d7857600080fd5b613d8184613d4c565b9250613d8f60208501613d4c565b9150604084015163ffffffff8116811461335d57600080fd5b60008219821115613dbb57613dbb613980565b50019056fe416464726573733a206c6f772d6c6576656c2064656c65676174652063616c6c206661696c6564a164736f6c634300080a000a",
    "linkReferences": {}
  },
  "methodIdentifiers": {
    "UNISWAP_V2_ROUTER_02()": "ba8bca5a",
    "W_NATIVE_ADDRESS()": "81738f13",
    "_becomeImplementation(bytes)": "56e67728",
    "_whitelistRedemptionStrategies(address[],bool[])": "8a0b9090",
    "_whitelistRedemptionStrategy(address,bool)": "5a431365",
    "expressRelay()": "6f6c0447",
    "flashSwapFee()": "c2ebfdc1",
    "healthFactorThreshold()": "2c89aa2e",
    "initialize(address,address,uint8)": "89232a00",
    "lens()": "112666b7",
    "moraswapCall(address,uint256,uint256,bytes)": "73ed8653",
    "owner()": "8da5cb5b",
    "pancakeCall(address,uint256,uint256,bytes)": "84800812",
    "receiveAuctionProceedings(bytes)": "fced7081",
    "redemptionStrategiesWhitelist(address)": "5b672371",
    "renounceOwnership()": "715018a6",
    "safeLiquidate(address,uint256,address,address,uint256,bool)": "6ba46544",
    "safeLiquidateToTokensWithFlashLoan((address,uint256,address,address,address,uint256,address[],bytes[],address[],bytes[]))": "55e9e8fe",
    "setExpressRelay(address)": "030e47df",
    "setHealthFactorThreshold(uint256)": "0add23ea",
    "setPoolLens(address)": "29f269f4",
    "transferOwnership(address)": "f2fde38b",
    "uniswapV2Call(address,uint256,uint256,bytes)": "10d1e85c",
    "withdrawAll()": "853828b6"
  }
}