{
  "address": "0x431C87E08e2636733a945D742d25Ba77577ED480",
  "abi": [
    {
      "inputs": [],
      "name": "BOOSTER_TYPE",
      "outputs": [
        {
          "internalType": "string",
          "name": "",
          "type": "string"
        }
      ],
      "stateMutability": "view",
      "type": "function"
    },
    {
      "inputs": [
        {
          "internalType": "contract ERC20",
          "name": "strategy",
          "type": "address"
        },
        {
          "internalType": "address",
          "name": "user",
          "type": "address"
        }
      ],
      "name": "boostedBalanceOf",
      "outputs": [
        {
          "internalType": "uint256",
          "name": "",
          "type": "uint256"
        }
      ],
      "stateMutability": "view",
      "type": "function"
    },
    {
      "inputs": [
        {
          "internalType": "contract ERC20",
          "name": "strategy",
          "type": "address"
        }
      ],
      "name": "boostedTotalSupply",
      "outputs": [
        {
          "internalType": "uint256",
          "name": "",
          "type": "uint256"
        }
      ],
      "stateMutability": "view",
      "type": "function"
    }
  ],
  "transactionHash": "0x3612afd8a8d860097853c4d8819776d3e1b6a89d6f73738da410f10a74cfb4a5",
  "args": [],
  "numDeployments": 1,
  "solcInputHash": "0f216c69ca7d69b5e67c1cffac004e22",
  "bytecode": "0x608060405234801561001057600080fd5b50610427806100206000396000f3fe608060405234801561001057600080fd5b50600436106100415760003560e01c80631a50ef2f146100465780631e1932fb1461006c5780639a8cca551461007f575b600080fd5b6100596100543660046102ca565b6100c8565b6040519081526020015b60405180910390f35b61005961007a366004610303565b61024e565b6100bb6040518060400160405280601781526020017f4c6f6f706c657373466c79776865656c426f6f7374657200000000000000000081525081565b6040516100639190610327565b6040516370a0823160e01b81526001600160a01b03828116600483015260009182918516906370a0823190602401602060405180830381865afa158015610113573d6000803e3d6000fd5b505050506040513d601f19601f820116820180604052508101906101379190610376565b905060008490506000816001600160a01b031663bd6d894d6040518163ffffffff1660e01b8152600401602060405180830381865afa15801561017e573d6000803e3d6000fd5b505050506040513d601f19601f820116820180604052508101906101a29190610376565b6040516305eff7ef60e21b81526001600160a01b0387811660048301528416906317bfdfbc90602401602060405180830381865afa1580156101e8573d6000803e3d6000fd5b505050506040513d601f19601f8201168201806040525081019061020c9190610376565b61021e90670de0b6b3a76400006103a5565b61022891906103bc565b9050808311610238576000610242565b61024281846103de565b93505050505b92915050565b6000816001600160a01b03166318160ddd6040518163ffffffff1660e01b8152600401602060405180830381865afa15801561028e573d6000803e3d6000fd5b505050506040513d601f19601f820116820180604052508101906102489190610376565b6001600160a01b03811681146102c757600080fd5b50565b600080604083850312156102dd57600080fd5b82356102e8816102b2565b915060208301356102f8816102b2565b809150509250929050565b60006020828403121561031557600080fd5b8135610320816102b2565b9392505050565b60006020808352835180602085015260005b8181101561035557858101830151858201604001528201610339565b506000604082860101526040601f19601f8301168501019250505092915050565b60006020828403121561038857600080fd5b5051919050565b634e487b7160e01b600052601160045260246000fd5b80820281158282048414176102485761024861038f565b6000826103d957634e487b7160e01b600052601260045260246000fd5b500490565b818103818111156102485761024861038f56fea2646970667358221220ef25a8134ee0681154c6c3ab7ab097d2be8cd75f8a0dcbb31794e613ad4f6a4764736f6c63430008160033",
  "devdoc": {
    "kind": "dev",
    "methods": {
      "boostedBalanceOf(address,address)": {
        "params": {
          "strategy": "the strategy to calculate boosted balance of",
          "user": "the user to calculate boosted balance of"
        },
        "returns": {
          "_0": "the boosted balance"
        }
      },
      "boostedTotalSupply(address)": {
        "params": {
          "strategy": "the strategy to calculate boosted supply of"
        },
        "returns": {
          "_0": "the boosted supply"
        }
      }
    },
    "version": 1
  },
  "userdoc": {
    "kind": "user",
    "methods": {
      "boostedBalanceOf(address,address)": {
        "notice": "calculate the boosted balance of a user in a given strategy."
      },
      "boostedTotalSupply(address)": {
        "notice": "calculate the boosted supply of a strategy."
      }
    },
    "version": 1
  },
  "storageLayout": {
    "storage": [],
    "types": null
  }
}