{
  "address": "0xB60DF742839E4cc643435013fCA430DCf8dB4beD",
  "abi": [
    {
      "inputs": [],
      "name": "InteractionNotAllowed",
      "type": "error"
    },
    {
      "anonymous": false,
      "inputs": [
        {
          "indexed": false,
          "internalType": "uint256",
          "name": "cashPrior",
          "type": "uint256"
        },
        {
          "indexed": false,
          "internalType": "uint256",
          "name": "interestAccumulated",
          "type": "uint256"
        },
        {
          "indexed": false,
          "internalType": "uint256",
          "name": "borrowIndex",
          "type": "uint256"
        },
        {
          "indexed": false,
          "internalType": "uint256",
          "name": "totalBorrows",
          "type": "uint256"
        }
      ],
      "name": "AccrueInterest",
      "type": "event"
    },
    {
      "anonymous": false,
      "inputs": [
        {
          "indexed": true,
          "internalType": "address",
          "name": "owner",
          "type": "address"
        },
        {
          "indexed": true,
          "internalType": "address",
          "name": "spender",
          "type": "address"
        },
        {
          "indexed": false,
          "internalType": "uint256",
          "name": "amount",
          "type": "uint256"
        }
      ],
      "name": "Approval",
      "type": "event"
    },
    {
      "anonymous": false,
      "inputs": [
        {
          "indexed": false,
          "internalType": "address",
          "name": "borrower",
          "type": "address"
        },
        {
          "indexed": false,
          "internalType": "uint256",
          "name": "borrowAmount",
          "type": "uint256"
        },
        {
          "indexed": false,
          "internalType": "uint256",
          "name": "accountBorrows",
          "type": "uint256"
        },
        {
          "indexed": false,
          "internalType": "uint256",
          "name": "totalBorrows",
          "type": "uint256"
        }
      ],
      "name": "Borrow",
      "type": "event"
    },
    {
      "anonymous": false,
      "inputs": [
        {
          "indexed": false,
          "internalType": "uint256",
          "name": "error",
          "type": "uint256"
        },
        {
          "indexed": false,
          "internalType": "uint256",
          "name": "info",
          "type": "uint256"
        },
        {
          "indexed": false,
          "internalType": "uint256",
          "name": "detail",
          "type": "uint256"
        }
      ],
      "name": "Failure",
      "type": "event"
    },
    {
      "anonymous": false,
      "inputs": [
        {
          "indexed": false,
          "internalType": "address",
          "name": "liquidator",
          "type": "address"
        },
        {
          "indexed": false,
          "internalType": "address",
          "name": "borrower",
          "type": "address"
        },
        {
          "indexed": false,
          "internalType": "uint256",
          "name": "repayAmount",
          "type": "uint256"
        },
        {
          "indexed": false,
          "internalType": "address",
          "name": "cTokenCollateral",
          "type": "address"
        },
        {
          "indexed": false,
          "internalType": "uint256",
          "name": "seizeTokens",
          "type": "uint256"
        }
      ],
      "name": "LiquidateBorrow",
      "type": "event"
    },
    {
      "anonymous": false,
      "inputs": [
        {
          "indexed": false,
          "internalType": "address",
          "name": "minter",
          "type": "address"
        },
        {
          "indexed": false,
          "internalType": "uint256",
          "name": "mintAmount",
          "type": "uint256"
        },
        {
          "indexed": false,
          "internalType": "uint256",
          "name": "mintTokens",
          "type": "uint256"
        }
      ],
      "name": "Mint",
      "type": "event"
    },
    {
      "anonymous": false,
      "inputs": [
        {
          "indexed": false,
          "internalType": "uint256",
          "name": "oldAdminFeeMantissa",
          "type": "uint256"
        },
        {
          "indexed": false,
          "internalType": "uint256",
          "name": "newAdminFeeMantissa",
          "type": "uint256"
        }
      ],
      "name": "NewAdminFee",
      "type": "event"
    },
    {
      "anonymous": false,
      "inputs": [
        {
          "indexed": false,
          "internalType": "uint256",
          "name": "oldIonicFeeMantissa",
          "type": "uint256"
        },
        {
          "indexed": false,
          "internalType": "uint256",
          "name": "newIonicFeeMantissa",
          "type": "uint256"
        }
      ],
      "name": "NewIonicFee",
      "type": "event"
    },
    {
      "anonymous": false,
      "inputs": [
        {
          "indexed": false,
          "internalType": "contract InterestRateModel",
          "name": "oldInterestRateModel",
          "type": "address"
        },
        {
          "indexed": false,
          "internalType": "contract InterestRateModel",
          "name": "newInterestRateModel",
          "type": "address"
        }
      ],
      "name": "NewMarketInterestRateModel",
      "type": "event"
    },
    {
      "anonymous": false,
      "inputs": [
        {
          "indexed": false,
          "internalType": "address",
          "name": "oldImpl",
          "type": "address"
        },
        {
          "indexed": false,
          "internalType": "address",
          "name": "newImpl",
          "type": "address"
        }
      ],
      "name": "NewPluginImplementation",
      "type": "event"
    },
    {
      "anonymous": false,
      "inputs": [
        {
          "indexed": false,
          "internalType": "uint256",
          "name": "oldReserveFactorMantissa",
          "type": "uint256"
        },
        {
          "indexed": false,
          "internalType": "uint256",
          "name": "newReserveFactorMantissa",
          "type": "uint256"
        }
      ],
      "name": "NewReserveFactor",
      "type": "event"
    },
    {
      "anonymous": false,
      "inputs": [
        {
          "indexed": true,
          "internalType": "address",
          "name": "previousOracle",
          "type": "address"
        },
        {
          "indexed": true,
          "internalType": "address",
          "name": "newOracle",
          "type": "address"
        }
      ],
      "name": "OracleAddressChanged",
      "type": "event"
    },
    {
      "anonymous": false,
      "inputs": [
        {
          "indexed": true,
          "internalType": "address",
          "name": "previousAdmin",
          "type": "address"
        },
        {
          "indexed": true,
          "internalType": "address",
          "name": "newAdmin",
          "type": "address"
        }
      ],
      "name": "OracleAdminChanged",
      "type": "event"
    },
    {
      "anonymous": false,
      "inputs": [
        {
          "indexed": false,
          "internalType": "address",
          "name": "redeemer",
          "type": "address"
        },
        {
          "indexed": false,
          "internalType": "uint256",
          "name": "redeemAmount",
          "type": "uint256"
        },
        {
          "indexed": false,
          "internalType": "uint256",
          "name": "redeemTokens",
          "type": "uint256"
        }
      ],
      "name": "Redeem",
      "type": "event"
    },
    {
      "anonymous": false,
      "inputs": [
        {
          "indexed": false,
          "internalType": "address",
          "name": "payer",
          "type": "address"
        },
        {
          "indexed": false,
          "internalType": "address",
          "name": "borrower",
          "type": "address"
        },
        {
          "indexed": false,
          "internalType": "uint256",
          "name": "repayAmount",
          "type": "uint256"
        },
        {
          "indexed": false,
          "internalType": "uint256",
          "name": "accountBorrows",
          "type": "uint256"
        },
        {
          "indexed": false,
          "internalType": "uint256",
          "name": "totalBorrows",
          "type": "uint256"
        }
      ],
      "name": "RepayBorrow",
      "type": "event"
    },
    {
      "anonymous": false,
      "inputs": [
        {
          "indexed": false,
          "internalType": "address",
          "name": "benefactor",
          "type": "address"
        },
        {
          "indexed": false,
          "internalType": "uint256",
          "name": "addAmount",
          "type": "uint256"
        },
        {
          "indexed": false,
          "internalType": "uint256",
          "name": "newTotalReserves",
          "type": "uint256"
        }
      ],
      "name": "ReservesAdded",
      "type": "event"
    },
    {
      "anonymous": false,
      "inputs": [
        {
          "indexed": false,
          "internalType": "address",
          "name": "admin",
          "type": "address"
        },
        {
          "indexed": false,
          "internalType": "uint256",
          "name": "reduceAmount",
          "type": "uint256"
        },
        {
          "indexed": false,
          "internalType": "uint256",
          "name": "newTotalReserves",
          "type": "uint256"
        }
      ],
      "name": "ReservesReduced",
      "type": "event"
    },
    {
      "anonymous": false,
      "inputs": [
        {
          "indexed": true,
          "internalType": "address",
          "name": "from",
          "type": "address"
        },
        {
          "indexed": true,
          "internalType": "address",
          "name": "to",
          "type": "address"
        },
        {
          "indexed": false,
          "internalType": "uint256",
          "name": "amount",
          "type": "uint256"
        }
      ],
      "name": "Transfer",
      "type": "event"
    },
    {
      "inputs": [
        {
          "internalType": "bytes",
          "name": "data",
          "type": "bytes"
        }
      ],
      "name": "_becomeImplementation",
      "outputs": [],
      "stateMutability": "nonpayable",
      "type": "function"
    },
    {
      "inputs": [],
      "name": "_getExtensionFunctions",
      "outputs": [
        {
          "internalType": "bytes4[]",
          "name": "functionSelectors",
          "type": "bytes4[]"
        }
      ],
      "stateMutability": "pure",
      "type": "function"
    },
    {
      "inputs": [
        {
          "internalType": "address",
          "name": "_plugin",
          "type": "address"
        }
      ],
      "name": "_updatePlugin",
      "outputs": [],
      "stateMutability": "nonpayable",
      "type": "function"
    },
    {
      "inputs": [
        {
          "internalType": "uint256",
          "name": "withdrawAmount",
          "type": "uint256"
        }
      ],
      "name": "_withdrawAdminFees",
      "outputs": [
        {
          "internalType": "uint256",
          "name": "",
          "type": "uint256"
        }
      ],
      "stateMutability": "nonpayable",
      "type": "function"
    },
    {
      "inputs": [
        {
          "internalType": "uint256",
          "name": "withdrawAmount",
          "type": "uint256"
        }
      ],
      "name": "_withdrawIonicFees",
      "outputs": [
        {
          "internalType": "uint256",
          "name": "",
          "type": "uint256"
        }
      ],
      "stateMutability": "nonpayable",
      "type": "function"
    },
    {
      "inputs": [],
      "name": "accrualBlockNumber",
      "outputs": [
        {
          "internalType": "uint256",
          "name": "",
          "type": "uint256"
        }
      ],
      "stateMutability": "view",
      "type": "function"
    },
    {
      "inputs": [],
      "name": "adminFeeMantissa",
      "outputs": [
        {
          "internalType": "uint256",
          "name": "",
          "type": "uint256"
        }
      ],
      "stateMutability": "view",
      "type": "function"
    },
    {
      "inputs": [],
      "name": "ap",
      "outputs": [
        {
          "internalType": "contract AddressesProvider",
          "name": "",
          "type": "address"
        }
      ],
      "stateMutability": "view",
      "type": "function"
    },
    {
      "inputs": [
        {
          "internalType": "uint256",
          "name": "borrowAmount",
          "type": "uint256"
        }
      ],
      "name": "borrow",
      "outputs": [
        {
          "internalType": "uint256",
          "name": "",
          "type": "uint256"
        }
      ],
      "stateMutability": "nonpayable",
      "type": "function"
    },
    {
      "inputs": [],
      "name": "borrowIndex",
      "outputs": [
        {
          "internalType": "uint256",
          "name": "",
          "type": "uint256"
        }
      ],
      "stateMutability": "view",
      "type": "function"
    },
    {
      "inputs": [],
      "name": "comptroller",
      "outputs": [
        {
          "internalType": "contract IonicComptroller",
          "name": "",
          "type": "address"
        }
      ],
      "stateMutability": "view",
      "type": "function"
    },
    {
      "inputs": [],
      "name": "contractType",
      "outputs": [
        {
          "internalType": "string",
          "name": "",
          "type": "string"
        }
      ],
      "stateMutability": "pure",
      "type": "function"
    },
    {
      "inputs": [],
      "name": "decimals",
      "outputs": [
        {
          "internalType": "uint8",
          "name": "",
          "type": "uint8"
        }
      ],
      "stateMutability": "view",
      "type": "function"
    },
    {
      "inputs": [],
      "name": "delegateType",
      "outputs": [
        {
          "internalType": "uint8",
          "name": "",
          "type": "uint8"
        }
      ],
      "stateMutability": "pure",
      "type": "function"
    },
    {
      "inputs": [],
      "name": "feeSeizeShareMantissa",
      "outputs": [
        {
          "internalType": "uint256",
          "name": "",
          "type": "uint256"
        }
      ],
      "stateMutability": "view",
      "type": "function"
    },
    {
      "inputs": [],
      "name": "getCash",
      "outputs": [
        {
          "internalType": "uint256",
          "name": "",
          "type": "uint256"
        }
      ],
      "stateMutability": "view",
      "type": "function"
    },
    {
      "inputs": [],
      "name": "interestRateModel",
      "outputs": [
        {
          "internalType": "contract InterestRateModel",
          "name": "",
          "type": "address"
        }
      ],
      "stateMutability": "view",
      "type": "function"
    },
    {
      "inputs": [],
      "name": "ionicAdmin",
      "outputs": [
        {
          "internalType": "address payable",
          "name": "",
          "type": "address"
        }
      ],
      "stateMutability": "view",
      "type": "function"
    },
    {
      "inputs": [],
      "name": "ionicFeeMantissa",
      "outputs": [
        {
          "internalType": "uint256",
          "name": "",
          "type": "uint256"
        }
      ],
      "stateMutability": "view",
      "type": "function"
    },
    {
      "inputs": [
        {
          "internalType": "address",
          "name": "borrower",
          "type": "address"
        },
        {
          "internalType": "uint256",
          "name": "repayAmount",
          "type": "uint256"
        },
        {
          "internalType": "address",
          "name": "cTokenCollateral",
          "type": "address"
        }
      ],
      "name": "liquidateBorrow",
      "outputs": [
        {
          "internalType": "uint256",
          "name": "",
          "type": "uint256"
        }
      ],
      "stateMutability": "nonpayable",
      "type": "function"
    },
    {
      "inputs": [
        {
          "internalType": "uint256",
          "name": "mintAmount",
          "type": "uint256"
        }
      ],
      "name": "mint",
      "outputs": [
        {
          "internalType": "uint256",
          "name": "",
          "type": "uint256"
        }
      ],
      "stateMutability": "nonpayable",
      "type": "function"
    },
    {
      "inputs": [],
      "name": "name",
      "outputs": [
        {
          "internalType": "string",
          "name": "",
          "type": "string"
        }
      ],
      "stateMutability": "view",
      "type": "function"
    },
    {
      "inputs": [],
      "name": "plugin",
      "outputs": [
        {
          "internalType": "contract IERC4626",
          "name": "",
          "type": "address"
        }
      ],
      "stateMutability": "view",
      "type": "function"
    },
    {
      "inputs": [],
      "name": "protocolSeizeShareMantissa",
      "outputs": [
        {
          "internalType": "uint256",
          "name": "",
          "type": "uint256"
        }
      ],
      "stateMutability": "view",
      "type": "function"
    },
    {
      "inputs": [
        {
          "internalType": "uint256",
          "name": "redeemTokens",
          "type": "uint256"
        }
      ],
      "name": "redeem",
      "outputs": [
        {
          "internalType": "uint256",
          "name": "",
          "type": "uint256"
        }
      ],
      "stateMutability": "nonpayable",
      "type": "function"
    },
    {
      "inputs": [
        {
          "internalType": "uint256",
          "name": "redeemAmount",
          "type": "uint256"
        }
      ],
      "name": "redeemUnderlying",
      "outputs": [
        {
          "internalType": "uint256",
          "name": "",
          "type": "uint256"
        }
      ],
      "stateMutability": "nonpayable",
      "type": "function"
    },
    {
      "inputs": [
        {
          "internalType": "uint256",
          "name": "repayAmount",
          "type": "uint256"
        }
      ],
      "name": "repayBorrow",
      "outputs": [
        {
          "internalType": "uint256",
          "name": "",
          "type": "uint256"
        }
      ],
      "stateMutability": "nonpayable",
      "type": "function"
    },
    {
      "inputs": [
        {
          "internalType": "address",
          "name": "borrower",
          "type": "address"
        },
        {
          "internalType": "uint256",
          "name": "repayAmount",
          "type": "uint256"
        }
      ],
      "name": "repayBorrowBehalf",
      "outputs": [
        {
          "internalType": "uint256",
          "name": "",
          "type": "uint256"
        }
      ],
      "stateMutability": "nonpayable",
      "type": "function"
    },
    {
      "inputs": [],
      "name": "reserveFactorMantissa",
      "outputs": [
        {
          "internalType": "uint256",
          "name": "",
          "type": "uint256"
        }
      ],
      "stateMutability": "view",
      "type": "function"
    },
    {
      "inputs": [
        {
          "internalType": "address",
          "name": "liquidator",
          "type": "address"
        },
        {
          "internalType": "address",
          "name": "borrower",
          "type": "address"
        },
        {
          "internalType": "uint256",
          "name": "seizeTokens",
          "type": "uint256"
        }
      ],
      "name": "seize",
      "outputs": [
        {
          "internalType": "uint256",
          "name": "",
          "type": "uint256"
        }
      ],
      "stateMutability": "nonpayable",
      "type": "function"
    },
    {
      "inputs": [
        {
          "internalType": "address",
          "name": "from",
          "type": "address"
        },
        {
          "internalType": "uint256",
          "name": "amount",
          "type": "uint256"
        }
      ],
      "name": "selfTransferIn",
      "outputs": [
        {
          "internalType": "uint256",
          "name": "",
          "type": "uint256"
        }
      ],
      "stateMutability": "nonpayable",
      "type": "function"
    },
    {
      "inputs": [
        {
          "internalType": "address",
          "name": "to",
          "type": "address"
        },
        {
          "internalType": "uint256",
          "name": "amount",
          "type": "uint256"
        }
      ],
      "name": "selfTransferOut",
      "outputs": [],
      "stateMutability": "nonpayable",
      "type": "function"
    },
    {
      "inputs": [],
      "name": "symbol",
      "outputs": [
        {
          "internalType": "string",
          "name": "",
          "type": "string"
        }
      ],
      "stateMutability": "view",
      "type": "function"
    },
    {
      "inputs": [],
      "name": "totalAdminFees",
      "outputs": [
        {
          "internalType": "uint256",
          "name": "",
          "type": "uint256"
        }
      ],
      "stateMutability": "view",
      "type": "function"
    },
    {
      "inputs": [],
      "name": "totalBorrows",
      "outputs": [
        {
          "internalType": "uint256",
          "name": "",
          "type": "uint256"
        }
      ],
      "stateMutability": "view",
      "type": "function"
    },
    {
      "inputs": [],
      "name": "totalIonicFees",
      "outputs": [
        {
          "internalType": "uint256",
          "name": "",
          "type": "uint256"
        }
      ],
      "stateMutability": "view",
      "type": "function"
    },
    {
      "inputs": [],
      "name": "totalReserves",
      "outputs": [
        {
          "internalType": "uint256",
          "name": "",
          "type": "uint256"
        }
      ],
      "stateMutability": "view",
      "type": "function"
    },
    {
      "inputs": [],
      "name": "totalSupply",
      "outputs": [
        {
          "internalType": "uint256",
          "name": "",
          "type": "uint256"
        }
      ],
      "stateMutability": "view",
      "type": "function"
    },
    {
      "inputs": [],
      "name": "underlying",
      "outputs": [
        {
          "internalType": "address",
          "name": "",
          "type": "address"
        }
      ],
      "stateMutability": "view",
      "type": "function"
    }
  ],
  "transactionHash": "0xb7d5b925126b3028f74ad4987e3e1ba99b1b2c538ee612837e0ac3645545a9c5",
  "args": [],
  "numDeployments": 4,
  "solcInputHash": "fde23d46668f3d3bc4d99674a58546a4",
  "bytecode": "0x608060405234801561001057600080fd5b50615c0f80620000216000396000f3fe608060405234801561001057600080fd5b506004361061023d5760003560e01c8063852a12e31161013b578063b2a02ff1116100b8578063cb2ef6f71161007c578063cb2ef6f71461047b578063db006a75146104ab578063ef01df4f146104be578063f3fdb15a146104d1578063f5e3c462146104e457600080fd5b8063b2a02ff11461042a578063be99f1191461043d578063c3bf11cd1461044c578063c5ebeaec14610455578063c91a424f1461046857600080fd5b80639826394b116100ff5780639826394b146103df578063a0712d68146103e8578063a7b820df146103fb578063aa5af0fd1461040e578063b0d58e491461041757600080fd5b8063852a12e31461039d57806389f8132e146103b05780638d02d9a1146103c55780638f840ddd146103ce57806395d89b41146103d757600080fd5b8063313ce567116101c95780635fe3b5671161018d5780635fe3b5671461035257806361feacff1461036a5780636752e702146103735780636c540baf146103815780636f307dc31461038a57600080fd5b8063313ce567146102f65780633b1d21a2146103035780633c4f743c1461030b57806347bd37181461033657806356e677281461033f57600080fd5b8063173b990411610210578063173b9904146102a957806318160ddd146102b257806319f496c8146102bb5780632608f818146102ce5780632c436e5b146102e157600080fd5b8063067db1b31461024257806306fdde03146102575780630e75270214610275578063135f133414610296575b600080fd5b6102556102503660046156d0565b6104f7565b005b61025f610541565b60405161026c91906156fc565b60405180910390f35b61028861028336600461574b565b6105cf565b60405190815260200161026c565b6102886102a43660046156d0565b6107d3565b61028860085481565b610288600f5481565b6102556102c9366004615764565b61081f565b6102886102dc3660046156d0565b610b73565b60025b60405160ff909116815260200161026c565b6003546102e49060ff1681565b610288610d77565b60145461031e906001600160a01b031681565b6040516001600160a01b03909116815260200161026c565b610288600b5481565b61025561034d366004615797565b610d86565b60035461031e9061010090046001600160a01b031681565b610288600d5481565b610288666379da05b6000081565b61028860095481565b60135461031e906001600160a01b031681565b6102886103ab36600461574b565b610ee4565b6103b86110dc565b60405161026c9190615848565b61028860065481565b610288600c5481565b61025f61128c565b610288600e5481565b6102886103f636600461574b565b611299565b61028861040936600461574b565b611486565b610288600a5481565b61028861042536600461574b565b61185b565b610288610438366004615896565b611b61565b61028867016345785d8a000081565b61028860075481565b61028861046336600461574b565b611cd1565b60005461031e906001600160a01b031681565b604080518082019091526014815273434572633230506c7567696e44656c656761746560601b602082015261025f565b6102886104b936600461574b565b611eba565b60155461031e906001600160a01b031681565b60045461031e906001600160a01b031681565b6102886104f23660046158d7565b6120a3565b3330146105335760405162461bcd60e51b815260206004820152600560248201526410b9b2b63360d91b60448201526064015b60405180910390fd5b61053d8282612737565b5050565b6001805461054e90615919565b80601f016020809104026020016040519081016040528092919081815260200182805461057a90615919565b80156105c75780601f1061059c576101008083540402835291602001916105c7565b820191906000526020600020905b8154815290600101906020018083116105aa57829003601f168201915b505050505081565b60008054600354604051631beb2b9760e31b81526001600160a01b039283169263df595cb89261061c9261010090910490911690339030906001600160e01b03198835169060040161594d565b602060405180830381865afa158015610639573d6000803e3d6000fd5b505050506040513d601f19601f8201168201806040525081019061065d9190615980565b6106795760405162461bcd60e51b815260040161052a906159a2565b600061069b6106976001600080516020615b9a8339815191526159e0565b5490565b90506001600160a01b0381166106bf5760006106b6846127b9565b50949350505050565b60405163d7b8a62160e01b815281906001600160a01b0382169063d7b8a621906106ef90339032906004016159f3565b602060405180830381865afa15801561070c573d6000803e3d6000fd5b505050506040513d601f19601f820116820180604052508101906107309190615980565b806107a05750604051636cffbed360e01b81523360048201526001600160a01b03821690636cffbed390602401602060405180830381865afa15801561077a573d6000803e3d6000fd5b505050506040513d601f19601f8201168201806040525081019061079e9190615980565b155b156107be57604051636a9657d360e01b815260040160405180910390fd5b60006107c9856127b9565b5095945050505050565b600033301461080c5760405162461bcd60e51b815260206004820152600560248201526410b9b2b63360d91b604482015260640161052a565b610816838361284a565b90505b92915050565b333014806108305750610830612900565b6108905760405162461bcd60e51b815260206004820152602b60248201527f6f6e6c792073656c6620616e642061646d696e732063616e2063616c6c205f7560448201526a383230ba32a8363ab3b4b760a91b606482015260840161052a565b6015546000906001600160a01b03166108a957816108b6565b6015546001600160a01b03165b6015549091506001600160a01b03161580159061093d57506015546040516370a0823160e01b81523060048201526001600160a01b03909116906370a0823190602401602060405180830381865afa158015610916573d6000803e3d6000fd5b505050506040513d601f19601f8201168201806040525081019061093a9190615a0d565b15155b15610a27576015546040516370a0823160e01b81523060048201526001600160a01b039091169063ba0876529082906370a0823190602401602060405180830381865afa158015610992573d6000803e3d6000fd5b505050506040513d601f19601f820116820180604052508101906109b69190615a0d565b6040516001600160e01b031960e084901b1681526004810191909152306024820181905260448201526064016020604051808303816000875af1158015610a01573d6000803e3d6000fd5b505050506040513d601f19601f82011682018060405250810190610a259190615a0d565b505b601580546001600160a01b0319166001600160a01b0384811691821790925560135460405163095ea7b360e01b8152600481019290925260001960248301529091169063095ea7b3906044016020604051808303816000875af1158015610a92573d6000803e3d6000fd5b505050506040513d601f19601f82011682018060405250810190610ab69190615980565b506013546040516370a0823160e01b81523060048201526000916001600160a01b0316906370a0823190602401602060405180830381865afa158015610b00573d6000803e3d6000fd5b505050506040513d601f19601f82011682018060405250810190610b249190615a0d565b90508015610b3557610b3581612a7d565b7fb32957d2794aaec3ea2c8852833af2192fe9fb518777de1f883e9e821781da758284604051610b669291906159f3565b60405180910390a1505050565b60008054600354604051631beb2b9760e31b81526001600160a01b039283169263df595cb892610bc09261010090910490911690339030906001600160e01b03198835169060040161594d565b602060405180830381865afa158015610bdd573d6000803e3d6000fd5b505050506040513d601f19601f82011682018060405250810190610c019190615980565b610c1d5760405162461bcd60e51b815260040161052a906159a2565b6000610c3b6106976001600080516020615b9a8339815191526159e0565b90506001600160a01b038116610c61576000610c578585612af2565b5092505050610819565b60405163d7b8a62160e01b815281906001600160a01b0382169063d7b8a62190610c9190339032906004016159f3565b602060405180830381865afa158015610cae573d6000803e3d6000fd5b505050506040513d601f19601f82011682018060405250810190610cd29190615980565b80610d425750604051636cffbed360e01b81523360048201526001600160a01b03821690636cffbed390602401602060405180830381865afa158015610d1c573d6000803e3d6000fd5b505050506040513d601f19601f82011682018060405250810190610d409190615980565b155b15610d6057604051636a9657d360e01b815260040160405180910390fd5b6000610d6c8686612af2565b509695505050505050565b6000610d81612b85565b905090565b33301480610d975750610d97612900565b610dff5760405162461bcd60e51b815260206004820152603360248201527f6f6e6c792073656c6620616e642061646d696e732063616e2063616c6c205f6260448201527232b1b7b6b2a4b6b83632b6b2b73a30ba34b7b760691b606482015260840161052a565b600081806020019051810190610e159190615a26565b90506001600160a01b038116158015610e3857506015546001600160a01b031615155b15610eb0576000546015546040516381218ea960e01b81526001600160a01b0391821660048201529116906381218ea990602401602060405180830381865afa158015610e89573d6000803e3d6000fd5b505050506040513d601f19601f82011682018060405250810190610ead9190615a26565b90505b6001600160a01b03811615801590610ed657506015546001600160a01b03828116911614155b1561053d5761053d8161081f565b60008054600354604051631beb2b9760e31b81526001600160a01b039283169263df595cb892610f319261010090910490911690339030906001600160e01b03198835169060040161594d565b602060405180830381865afa158015610f4e573d6000803e3d6000fd5b505050506040513d601f19601f82011682018060405250810190610f729190615980565b610f8e5760405162461bcd60e51b815260040161052a906159a2565b6000610fac6106976001600080516020615b9a8339815191526159e0565b90506001600160a01b038116610fcc57610fc583612c59565b9392505050565b60405163d7b8a62160e01b815281906001600160a01b0382169063d7b8a62190610ffc90339032906004016159f3565b602060405180830381865afa158015611019573d6000803e3d6000fd5b505050506040513d601f19601f8201168201806040525081019061103d9190615980565b806110ad5750604051636cffbed360e01b81523360048201526001600160a01b03821690636cffbed390602401602060405180830381865afa158015611087573d6000803e3d6000fd5b505050506040513d601f19601f820116820180604052508101906110ab9190615980565b155b156110cb57604051636a9657d360e01b815260040160405180910390fd5b6110d484612c59565b949350505050565b6060600260006110ea612ce1565b90508160ff1681516110fc9190615a43565b67ffffffffffffffff81111561111457611114615781565b60405190808252806020026020018201604052801561113d578160200160208202803683370190505b50925060005b81518110156111995781818151811061115e5761115e615a56565b602002602001015184828151811061117857611178615a56565b6001600160e01b031990921660209283029190910190910152600101611143565b50805163ef01df4f60e01b9084906111b085615a6c565b94506111bf9060ff8616615a43565b815181106111cf576111cf615a56565b6001600160e01b031990921660209283029190910190910152805163033e92d960e31b9084906111fe85615a6c565b945061120d9060ff8616615a43565b8151811061121d5761121d615a56565b6001600160e01b03199092166020928302919091019091015260ff8216156112875760405162461bcd60e51b815260206004820152601c60248201527f7573652074686520636f7272656374206172726179206c656e67746800000000604482015260640161052a565b505090565b6002805461054e90615919565b60008054600354604051631beb2b9760e31b81526001600160a01b039283169263df595cb8926112e69261010090910490911690339030906001600160e01b03198835169060040161594d565b602060405180830381865afa158015611303573d6000803e3d6000fd5b505050506040513d601f19601f820116820180604052508101906113279190615980565b6113435760405162461bcd60e51b815260040161052a906159a2565b60006113616106976001600080516020615b9a8339815191526159e0565b90506001600160a01b03811661137c5760006106b684612e51565b60405163d7b8a62160e01b815281906001600160a01b0382169063d7b8a621906113ac90339032906004016159f3565b602060405180830381865afa1580156113c9573d6000803e3d6000fd5b505050506040513d601f19601f820116820180604052508101906113ed9190615980565b8061145d5750604051636cffbed360e01b81523360048201526001600160a01b03821690636cffbed390602401602060405180830381865afa158015611437573d6000803e3d6000fd5b505050506040513d601f19601f8201168201806040525081019061145b9190615980565b155b1561147b57604051636a9657d360e01b815260040160405180910390fd5b60006107c985612e51565b60008061149281612ece565b60006114b06106976001600080516020615b9a8339815191526159e0565b90506001600160a01b03811661160857306001600160a01b031663a6afed956040518163ffffffff1660e01b81526004016020604051808303816000875af1158015611500573d6000803e3d6000fd5b505050506040513d601f19601f820116820180604052508101906115249190615a0d565b5043600954146115415761153a600a6039612f92565b9250611602565b8361154a612b85565b101561155c5761153a600e6038612f92565b600d548411156115725761153a6002603a612f92565b83600d5461158091906159e0565b600d55600354604080516303e1469160e61b815290516115fd9261010090046001600160a01b03169163f851a4409160048083019260209291908290030181865afa1580156115d3573d6000803e3d6000fd5b505050506040513d601f19601f820116820180604052508101906115f79190615a26565b85612737565b600092505b5061184c565b60405163d7b8a62160e01b815281906001600160a01b0382169063d7b8a6219061163890339032906004016159f3565b602060405180830381865afa158015611655573d6000803e3d6000fd5b505050506040513d601f19601f820116820180604052508101906116799190615980565b806116e95750604051636cffbed360e01b81523360048201526001600160a01b03821690636cffbed390602401602060405180830381865afa1580156116c3573d6000803e3d6000fd5b505050506040513d601f19601f820116820180604052508101906116e79190615980565b155b1561170757604051636a9657d360e01b815260040160405180910390fd5b306001600160a01b031663a6afed956040518163ffffffff1660e01b81526004016020604051808303816000875af1158015611747573d6000803e3d6000fd5b505050506040513d601f19601f8201168201806040525081019061176b9190615a0d565b50436009541461178857611781600a6039612f92565b9350611849565b84611791612b85565b10156117a357611781600e6038612f92565b600d548511156117b9576117816002603a612f92565b84600d546117c791906159e0565b600d55600354604080516303e1469160e61b815290516118449261010090046001600160a01b03169163f851a4409160048083019260209291908290030181865afa15801561181a573d6000803e3d6000fd5b505050506040513d601f19601f8201168201806040525081019061183e9190615a26565b86612737565b600093505b50505b6118558161300b565b50919050565b60008061186781612ece565b60006118856106976001600080516020615b9a8339815191526159e0565b90506001600160a01b03811661197957306001600160a01b031663a6afed956040518163ffffffff1660e01b81526004016020604051808303816000875af11580156118d5573d6000803e3d6000fd5b505050506040513d601f19601f820116820180604052508101906118f99190615a0d565b50436009541461190f5761153a600a6035612f92565b83611918612b85565b101561192a5761153a600e6034612f92565b600e548411156119405761153a60026036612f92565b600084600e5461195091906159e0565b600e81905560005490915061196e906001600160a01b031686612737565b60009350505061184c565b60405163d7b8a62160e01b815281906001600160a01b0382169063d7b8a621906119a990339032906004016159f3565b602060405180830381865afa1580156119c6573d6000803e3d6000fd5b505050506040513d601f19601f820116820180604052508101906119ea9190615980565b80611a5a5750604051636cffbed360e01b81523360048201526001600160a01b03821690636cffbed390602401602060405180830381865afa158015611a34573d6000803e3d6000fd5b505050506040513d601f19601f82011682018060405250810190611a589190615980565b155b15611a7857604051636a9657d360e01b815260040160405180910390fd5b306001600160a01b031663a6afed956040518163ffffffff1660e01b81526004016020604051808303816000875af1158015611ab8573d6000803e3d6000fd5b505050506040513d601f19601f82011682018060405250810190611adc9190615a0d565b504360095414611af257611781600a6035612f92565b84611afb612b85565b1015611b0d57611781600e6034612f92565b600e54851115611b235761178160026036612f92565b600085600e54611b3391906159e0565b600e819055600054909150611b51906001600160a01b031687612737565b600094505050506118558161300b565b60006001611b6e81612ece565b6000611b8c6106976001600080516020615b9a8339815191526159e0565b90506001600160a01b038116611bb057611ba83387878761308f565b925050611cc0565b60405163d7b8a62160e01b815281906001600160a01b0382169063d7b8a62190611be090339032906004016159f3565b602060405180830381865afa158015611bfd573d6000803e3d6000fd5b505050506040513d601f19601f82011682018060405250810190611c219190615980565b80611c915750604051636cffbed360e01b81523360048201526001600160a01b03821690636cffbed390602401602060405180830381865afa158015611c6b573d6000803e3d6000fd5b505050506040513d601f19601f82011682018060405250810190611c8f9190615980565b155b15611caf57604051636a9657d360e01b815260040160405180910390fd5b611cbb3388888861308f565b935050505b611cc98161300b565b509392505050565b60008054600354604051631beb2b9760e31b81526001600160a01b039283169263df595cb892611d1e9261010090910490911690339030906001600160e01b03198835169060040161594d565b602060405180830381865afa158015611d3b573d6000803e3d6000fd5b505050506040513d601f19601f82011682018060405250810190611d5f9190615980565b611d7b5760405162461bcd60e51b815260040161052a906159a2565b6000611d996106976001600080516020615b9a8339815191526159e0565b90506001600160a01b038116611db257610fc583613577565b60405163d7b8a62160e01b815281906001600160a01b0382169063d7b8a62190611de290339032906004016159f3565b602060405180830381865afa158015611dff573d6000803e3d6000fd5b505050506040513d601f19601f82011682018060405250810190611e239190615980565b80611e935750604051636cffbed360e01b81523360048201526001600160a01b03821690636cffbed390602401602060405180830381865afa158015611e6d573d6000803e3d6000fd5b505050506040513d601f19601f82011682018060405250810190611e919190615980565b155b15611eb157604051636a9657d360e01b815260040160405180910390fd5b6110d484613577565b60008054600354604051631beb2b9760e31b81526001600160a01b039283169263df595cb892611f079261010090910490911690339030906001600160e01b03198835169060040161594d565b602060405180830381865afa158015611f24573d6000803e3d6000fd5b505050506040513d601f19601f82011682018060405250810190611f489190615980565b611f645760405162461bcd60e51b815260040161052a906159a2565b6000611f826106976001600080516020615b9a8339815191526159e0565b90506001600160a01b038116611f9b57610fc5836135f2565b60405163d7b8a62160e01b815281906001600160a01b0382169063d7b8a62190611fcb90339032906004016159f3565b602060405180830381865afa158015611fe8573d6000803e3d6000fd5b505050506040513d601f19601f8201168201806040525081019061200c9190615980565b8061207c5750604051636cffbed360e01b81523360048201526001600160a01b03821690636cffbed390602401602060405180830381865afa158015612056573d6000803e3d6000fd5b505050506040513d601f19601f8201168201806040525081019061207a9190615980565b155b1561209a57604051636a9657d360e01b815260040160405180910390fd5b6110d4846135f2565b60008054600354604051631beb2b9760e31b81526001600160a01b039283169263df595cb8926120f09261010090910490911690339030906001600160e01b03198835169060040161594d565b602060405180830381865afa15801561210d573d6000803e3d6000fd5b505050506040513d601f19601f820116820180604052508101906121319190615980565b61214d5760405162461bcd60e51b815260040161052a906159a2565b600061216b6106976001600080516020615b9a8339815191526159e0565b90506001600160a01b0381166123d85760145460405163bf40fac160e01b8152602060048201526008602482015267506f6f6c4c656e7360c01b604482015286916000916001600160a01b039091169063bf40fac190606401602060405180830381865afa1580156121e1573d6000803e3d6000fd5b505050506040513d601f19601f820116820180604052508101906122059190615a26565b6014805460405163bf40fac160e01b81526020600482015260248101929092527324b7b734b1aab734ab19a634b8bab4b230ba37b960611b60448301529192506000916001600160a01b03169063bf40fac190606401602060405180830381865afa158015612278573d6000803e3d6000fd5b505050506040513d601f19601f8201168201806040525081019061229c9190615a26565b9050806001600160a01b0316632c89aa2e6040518163ffffffff1660e01b8152600401602060405180830381865afa1580156122dc573d6000803e3d6000fd5b505050506040513d601f19601f820116820180604052508101906123009190615a0d565b6003546040516357c89a7d60e01b81526001600160a01b03808616926357c89a7d92612337928992610100900416906004016159f3565b602060405180830381865afa158015612354573d6000803e3d6000fd5b505050506040513d601f19601f820116820180604052508101906123789190615a0d565b11156123bd57336001600160a01b038216146123a65760405162461bcd60e51b815260040161052a90615a9f565b60006123b389898961366f565b5095506123cf9050565b60006123ca89898961366f565b509550505b50505050610fc5565b60405163d7b8a62160e01b815281906001600160a01b0382169063d7b8a6219061240890339032906004016159f3565b602060405180830381865afa158015612425573d6000803e3d6000fd5b505050506040513d601f19601f820116820180604052508101906124499190615980565b806124b95750604051636cffbed360e01b81523360048201526001600160a01b03821690636cffbed390602401602060405180830381865afa158015612493573d6000803e3d6000fd5b505050506040513d601f19601f820116820180604052508101906124b79190615980565b155b156124d757604051636a9657d360e01b815260040160405180910390fd5b60145460405163bf40fac160e01b8152602060048201526008602482015267506f6f6c4c656e7360c01b604482015287916000916001600160a01b039091169063bf40fac190606401602060405180830381865afa15801561253d573d6000803e3d6000fd5b505050506040513d601f19601f820116820180604052508101906125619190615a26565b6014805460405163bf40fac160e01b81526020600482015260248101929092527324b7b734b1aab734ab19a634b8bab4b230ba37b960611b60448301529192506000916001600160a01b03169063bf40fac190606401602060405180830381865afa1580156125d4573d6000803e3d6000fd5b505050506040513d601f19601f820116820180604052508101906125f89190615a26565b9050806001600160a01b0316632c89aa2e6040518163ffffffff1660e01b8152600401602060405180830381865afa158015612638573d6000803e3d6000fd5b505050506040513d601f19601f8201168201806040525081019061265c9190615a0d565b6003546040516357c89a7d60e01b81526001600160a01b03808616926357c89a7d92612693928992610100900416906004016159f3565b602060405180830381865afa1580156126b0573d6000803e3d6000fd5b505050506040513d601f19601f820116820180604052508101906126d49190615a0d565b111561271957336001600160a01b038216146127025760405162461bcd60e51b815260040161052a90615a9f565b600061270f8a8a8a61366f565b50965061272b9050565b60006127268a8a8a61366f565b509650505b50505050509392505050565b601554604051632d182be560e21b8152600481018390526001600160a01b0384811660248301523060448301529091169063b460af94906064016020604051808303816000875af1158015612790573d6000803e3d6000fd5b505050506040513d601f19601f820116820180604052508101906127b49190615a0d565b505050565b60008060006127c781612ece565b306001600160a01b031663a6afed956040518163ffffffff1660e01b81526004016020604051808303816000875af1158015612807573d6000803e3d6000fd5b505050506040513d601f19601f8201168201806040525081019061282b9190615a0d565b50612837333386613769565b925092506128448161300b565b50915091565b6013546040516323b872dd60e01b81526000916001600160a01b0316906323b872dd9061287f90869030908790600401615afc565b6020604051808303816000875af115801561289e573d6000803e3d6000fd5b505050506040513d601f19601f820116820180604052508101906128c29190615980565b6128f75760405162461bcd60e51b815260040161052a906020808252600490820152631cd95b9960e21b604082015260600190565b61185582612a7d565b600080600360019054906101000a90046001600160a01b03169050806001600160a01b031663f851a4406040518163ffffffff1660e01b8152600401602060405180830381865afa158015612959573d6000803e3d6000fd5b505050506040513d601f19601f8201168201806040525081019061297d9190615a26565b6001600160a01b0316336001600160a01b03161480156129fa5750806001600160a01b0316630a755ec26040518163ffffffff1660e01b8152600401602060405180830381865afa1580156129d6573d6000803e3d6000fd5b505050506040513d601f19601f820116820180604052508101906129fa9190615980565b80612a7757506000546001600160a01b031633148015612a775750806001600160a01b031663cf6bfd2d6040518163ffffffff1660e01b8152600401602060405180830381865afa158015612a53573d6000803e3d6000fd5b505050506040513d601f19601f82011682018060405250810190612a779190615980565b91505090565b601554604051636e553f6560e01b8152600481018390523060248201526001600160a01b0390911690636e553f65906044016020604051808303816000875af1158015612ace573d6000803e3d6000fd5b505050506040513d601f19601f8201168201806040525081019061053d9190615a0d565b6000806000612b0081612ece565b306001600160a01b031663a6afed956040518163ffffffff1660e01b81526004016020604051808303816000875af1158015612b40573d6000803e3d6000fd5b505050506040513d601f19601f82011682018060405250810190612b649190615a0d565b50612b70338686613769565b92509250612b7d8161300b565b509250929050565b6015546040516370a0823160e01b81523060048201526000916001600160a01b031690634cdad5069082906370a0823190602401602060405180830381865afa158015612bd6573d6000803e3d6000fd5b505050506040513d601f19601f82011682018060405250810190612bfa9190615a0d565b6040518263ffffffff1660e01b8152600401612c1891815260200190565b602060405180830381865afa158015612c35573d6000803e3d6000fd5b505050506040513d601f19601f82011682018060405250810190610d819190615a0d565b600080612c6581612ece565b306001600160a01b031663a6afed956040518163ffffffff1660e01b81526004016020604051808303816000875af1158015612ca5573d6000803e3d6000fd5b505050506040513d601f19601f82011682018060405250810190612cc99190615a0d565b50612cd633600085613b76565b91506118558161300b565b606060036000612cef6141bd565b90508160ff168151612d019190615a43565b67ffffffffffffffff811115612d1957612d19615781565b604051908082528060200260200182016040528015612d42578160200160208202803683370190505b50925060005b8151811015612d9e57818181518110612d6357612d63615a56565b6020026020010151848281518110612d7d57612d7d615a56565b6001600160e01b031990921660209283029190910190910152600101612d48565b50805163cb2ef6f760e01b908490612db585615a6c565b9450612dc49060ff8616615a43565b81518110612dd457612dd4615a56565b6001600160e01b0319909216602092830291909101909101528051632c436e5b60e01b908490612e0385615a6c565b9450612e129060ff8616615a43565b81518110612e2257612e22615a56565b6001600160e01b0319909216602092830291909101909101528051630adccee560e31b9084906111fe85615a6c565b6000806000612e5f81612ece565b306001600160a01b031663a6afed956040518163ffffffff1660e01b81526004016020604051808303816000875af1158015612e9f573d6000803e3d6000fd5b505050506040513d601f19601f82011682018060405250810190612ec39190615a0d565b506128373385614585565b600054600160a01b900460ff16612f145760405162461bcd60e51b815260206004820152600a6024820152691c994b595b9d195c995960b21b604482015260640161052a565b80612f8257600360019054906101000a90046001600160a01b03166001600160a01b031663c90c20b16040518163ffffffff1660e01b8152600401600060405180830381600087803b158015612f6957600080fd5b505af1158015612f7d573d6000803e3d6000fd5b505050505b506000805460ff60a01b19169055565b60007f45b96fe442630264581b197e84bbada861235052c5a1aadfff9ea4e40a969aa0836011811115612fc757612fc7615a89565b836061811115612fd957612fd9615a89565b60408051928352602083019190915260009082015260600160405180910390a182601181111561081657610816615a89565b6000805460ff60a01b1916600160a01b1790558061308c57600360019054906101000a90046001600160a01b03166001600160a01b031663632e51426040518163ffffffff1660e01b8152600401600060405180830381600087803b15801561307357600080fd5b505af1158015613087573d6000803e3d6000fd5b505050505b50565b60035460405163d02f735160e01b81523060048201526001600160a01b038681166024830152858116604483015284811660648301526084820184905260009283926101009091049091169063d02f73519060a4016020604051808303816000875af1158015613103573d6000803e3d6000fd5b505050506040513d601f19601f820116820180604052508101906131279190615a0d565b905080156131445761313c6003601d83614990565b9150506110d4565b846001600160a01b0316846001600160a01b0316036131695761313c6006601e612f92565b6131ce604080516101808101909152806000815260200160008152602001600081526020016000815260200160008152602001600081526020016000815260200160008152602001600081526020016000815260200160008152602001600081525090565b6001600160a01b0385166000908152601060205260409020546131f19085614a32565b602083018190528282600381111561320b5761320b615a89565b600381111561321c5761321c615a89565b905250600090508151600381111561323657613236615a89565b146132665761325d6009601c8360000151600381111561325857613258615a89565b614990565b925050506110d4565b613285846040518060200160405280666379da05b60000815250614a5d565b6080820152604080516020810190915267016345785d8a000081526132ab908590614a5d565b610140820181905260808201516132c290866159e0565b6132cc91906159e0565b6060820152306001600160a01b031663bd6d894d6040518163ffffffff1660e01b8152600401602060405180830381865afa15801561330f573d6000803e3d6000fd5b505050506040513d601f19601f820116820180604052508101906133339190615a0d565b60c0820190815260408051602081019091529051815260808201516133589190614a80565b60a0820152604080516020810190915260c0820151815261014082015161337f9190614a80565b61016082015260a0810151600c546133979190615a43565b60e08201526101408101516080820151600f546133b491906159e0565b6133be91906159e0565b610120820152610160810151600e546133d79190615a43565b6101008201526001600160a01b03861660009081526010602052604090205460608201516134059190614a98565b604083018190528282600381111561341f5761341f615a89565b600381111561343057613430615a89565b905250600090508151600381111561344a5761344a615a89565b1461346c5761325d6009601b8360000151600381111561325857613258615a89565b60e0810151600c55610120810151600f55610100810151600e556020808201516001600160a01b0387811660008181526010855260408082209490945583860151928b1680825290849020929092556060850151925192835290929091600080516020615bba833981519152910160405180910390a3306001600160a01b0316856001600160a01b0316600080516020615bba833981519152836080015160405161351991815260200190565b60405180910390a360a081015160e08201516040805130815260208101939093528201527fa91e67c5ea634cd43a12c5a482724b03de01e85ca68702a53d0c2f45cb7c1dc59060600160405180910390a15060009695505050505050565b60008061358381612ece565b306001600160a01b031663a6afed956040518163ffffffff1660e01b81526004016020604051808303816000875af11580156135c3573d6000803e3d6000fd5b505050506040513d601f19601f820116820180604052508101906135e79190615a0d565b50612cd63384614abe565b6000806135fe81612ece565b306001600160a01b031663a6afed956040518163ffffffff1660e01b81526004016020604051808303816000875af115801561363e573d6000803e3d6000fd5b505050506040513d601f19601f820116820180604052508101906136629190615a0d565b50612cd633846000613b76565b600080600061367d81612ece565b306001600160a01b031663a6afed956040518163ffffffff1660e01b81526004016020604051808303816000875af11580156136bd573d6000803e3d6000fd5b505050506040513d601f19601f820116820180604052508101906136e19190615a0d565b50836001600160a01b031663a6afed956040518163ffffffff1660e01b81526004016020604051808303816000875af1158015613722573d6000803e3d6000fd5b505050506040513d601f19601f820116820180604052508101906137469190615a0d565b5061375333878787614e59565b925092506137608161300b565b50935093915050565b600354604051631200453160e11b81523060048201526001600160a01b03858116602483015284811660448301526064820184905260009283928392610100909204909116906324008a62906084016020604051808303816000875af11580156137d7573d6000803e3d6000fd5b505050506040513d601f19601f820116820180604052508101906137fb9190615a0d565b9050801561381c576138106003604383614990565b60009250925050613b6e565b436009541461383157613810600a6044612f92565b61387a6040805161010081019091528060008152602001600081526020016000815260200160008152602001600081526020016000815260200160008152602001600081525090565b6001600160a01b0386166000908152601260205260409020600101546060820152306040516305eff7ef60e21b81526001600160a01b03888116600483015291909116906317bfdfbc90602401602060405180830381865afa1580156138e4573d6000803e3d6000fd5b505050506040513d601f19601f820116820180604052508101906139089190615a0d565b608082015260018501613924576080810151604082015261392c565b604081018590525b61393a87826040015161284a565b60e08201819052608082015161394f91614a32565b60a083018190526020830182600381111561396c5761396c615a89565b600381111561397d5761397d615a89565b905250600090508160200151600381111561399a5761399a615a89565b14613a0d5760405162461bcd60e51b815260206004820152603a60248201527f52455041595f424f52524f575f4e45575f4143434f554e545f424f52524f575f60448201527f42414c414e43455f43414c43554c4154494f4e5f4641494c4544000000000000606482015260840161052a565b613a1d600b548260e00151614a32565b60c0830181905260208301826003811115613a3a57613a3a615a89565b6003811115613a4b57613a4b615a89565b9052506000905081602001516003811115613a6857613a68615a89565b14613acf5760405162461bcd60e51b815260206004820152603160248201527f52455041595f424f52524f575f4e45575f544f54414c5f42414c414e43455f43604482015270105310d55310551253d397d19052531151607a1b606482015260840161052a565b60a081810180516001600160a01b03898116600081815260126020908152604091829020948555600a5460019095019490945560c0870151600b81905560e088015195518251948f16855294840192909252820193909352606081019190915260808101919091527f1a2a22cb034d26d1854bdc6666a5b91fe25efbbb5dcad3b0355478d6f5c362a1910160405180910390a160e00151600093509150505b935093915050565b6000821580613b83575081155b613bcf5760405162461bcd60e51b815260206004820152601860248201527f2172656465656d20746f6b656e73206f7220616d6f756e740000000000000000604482015260640161052a565b613c106040805160e0810190915280600081526020016000815260200160008152602001600081526020016000815260200160008152602001600081525090565b306001600160a01b031663bd6d894d6040518163ffffffff1660e01b8152600401602060405180830381865afa158015613c4e573d6000803e3d6000fd5b505050506040513d601f19601f82011682018060405250810190613c729190615a0d565b60408201528315613d355761138884600f54613c8e91906159e0565b1015613c9a57600f5493505b6060810184905260408051602081018252908201518152613cbb9085615316565b6080830181905260208301826003811115613cd857613cd8615a89565b6003811115613ce957613ce9615a89565b9052506000905081602001516003811115613d0657613d06615a89565b14613d3057613d286009602c8360200151600381111561325857613258615a89565b915050610fc5565b613e7c565b6000198303613dc257600354604051630cbb414760e11b81526001600160a01b0387811660048301523060248301526000604483015261010090920490911690631976828e90606401602060405180830381865afa158015613d9b573d6000803e3d6000fd5b505050506040513d601f19601f82011682018060405250810190613dbf9190615a0d565b92505b6000306001600160a01b0316634aeb3d9a6040518163ffffffff1660e01b8152600401602060405180830381865afa158015613e02573d6000803e3d6000fd5b505050506040513d601f19601f82011682018060405250810190613e269190615a0d565b90506103e8613e3585836159e0565b1015613e3f578093505b613e4d848360400151615368565b60608301819052600f546103e891613e64916159e0565b1015613e7357600f5460608301525b50608081018390525b600354606082015160405163eabe7d9160e01b815260009261010090046001600160a01b03169163eabe7d9191613eba9130918b9190600401615afc565b6020604051808303816000875af1158015613ed9573d6000803e3d6000fd5b505050506040513d601f19601f82011682018060405250810190613efd9190615a0d565b90508015613f1b57613f126003602b83614990565b92505050610fc5565b4360095414613f3057613f12600a602f612f92565b613f40600f548360600151614a32565b60a0840181905260208401826003811115613f5d57613f5d615a89565b6003811115613f6e57613f6e615a89565b9052506000905082602001516003811115613f8b57613f8b615a89565b14613fad57613f12600960318460200151600381111561325857613258615a89565b6001600160a01b0386166000908152601060205260409020546060830151613fd59190614a32565b60c0840181905260208401826003811115613ff257613ff2615a89565b600381111561400357614003615a89565b905250600090508260200151600381111561402057614020615a89565b1461404257613f12600960308460200151600381111561325857613258615a89565b816080015161404f612b85565b101561406157613f12600e6032612f92565b60a0820151600f5560c08201516001600160a01b0387166000908152601060205260409020556080820151614097908790612737565b306001600160a01b0316866001600160a01b0316600080516020615bba83398151915284606001516040516140ce91815260200190565b60405180910390a36080820151606080840151604080516001600160a01b038b16815260208101949094528301527fe5b754fb1abb7f01b499791d0b820ae3b6af3424ac1c59768edb53f4ec31a929910160405180910390a1600354608083015160608401516040516351dff98960e01b81523060048201526001600160a01b038a811660248301526044820193909352606481019190915261010090920416906351dff98990608401600060405180830381600087803b15801561419257600080fd5b505af11580156141a6573d6000803e3d6000fd5b50600092506141b3915050565b9695505050505050565b60408051600d8082526101c082019092526060919060009082602082016101a08036833701905050905063140e25ad60e31b816141f984615a6c565b93508360ff168151811061420f5761420f615a56565b6001600160e01b03199092166020928302919091019091015263db006a7560e01b8161423a84615a6c565b93508360ff168151811061425057614250615a56565b6001600160e01b03199092166020928302919091019091015263852a12e360e01b8161427b84615a6c565b93508360ff168151811061429157614291615a56565b6001600160e01b03199092166020928302919091019091015263317afabb60e21b816142bc84615a6c565b93508360ff16815181106142d2576142d2615a56565b6001600160e01b03199092166020928302919091019091015263073a938160e11b816142fd84615a6c565b93508360ff168151811061431357614313615a56565b6001600160e01b0319909216602092830291909101909101526304c11f0360e31b8161433e84615a6c565b93508360ff168151811061435457614354615a56565b6001600160e01b031990921660209283029190910190910152637af1e23160e11b8161437f84615a6c565b93508360ff168151811061439557614395615a56565b6001600160e01b031990921660209283029190910190910152631d8e90d160e11b816143c084615a6c565b93508360ff16815181106143d6576143d6615a56565b6001600160e01b03199092166020928302919091019091015263b2a02ff160e01b8161440184615a6c565b93508360ff168151811061441757614417615a56565b6001600160e01b03199092166020928302919091019091015263067db1b360e01b8161444284615a6c565b93508360ff168151811061445857614458615a56565b6001600160e01b0319909216602092830291909101909101526304d7c4cd60e21b8161448384615a6c565b93508360ff168151811061449957614499615a56565b6001600160e01b03199092166020928302919091019091015263b0d58e4960e01b816144c484615a6c565b93508360ff16815181106144da576144da615a56565b6001600160e01b03199092166020928302919091019091015263a7b820df60e01b8161450584615a6c565b93508360ff168151811061451b5761451b615a56565b6001600160e01b03199092166020928302919091019091015260ff8216156108195760405162461bcd60e51b815260206004820152601c60248201527f7573652074686520636f7272656374206172726179206c656e67746800000000604482015260640161052a565b600354604051634ef4c3e160e01b81526000918291829161010090046001600160a01b031690634ef4c3e1906145c390309089908990600401615afc565b6020604051808303816000875af11580156145e2573d6000803e3d6000fd5b505050506040513d601f19601f820116820180604052508101906146069190615a0d565b905080156146275761461b6003602183614990565b60009250925050614989565b436009541461463c5761461b600a6024612f92565b61467d6040805160e0810190915280600081526020016000815260200160008152602001600081526020016000815260200160008152602001600081525090565b306001600160a01b031663bd6d894d6040518163ffffffff1660e01b8152600401602060405180830381865afa1580156146bb573d6000803e3d6000fd5b505050506040513d601f19601f820116820180604052508101906146df9190615a0d565b60408201526146ee868661284a565b60c082018190526040805160208101825290830151815261470f91906153a3565b606083018190526020830182600381111561472c5761472c615a89565b600381111561473d5761473d615a89565b905250600090508160200151600381111561475a5761475a615a89565b146147a75760405162461bcd60e51b815260206004820181905260248201527f4d494e545f45584348414e47455f43414c43554c4154494f4e5f4641494c4544604482015260640161052a565b60008160600151116147fb5760405162461bcd60e51b815260206004820152601a60248201527f4d494e545f5a45524f5f43544f4b454e535f52454a4543544544000000000000604482015260640161052a565b8060600151600f5461480d9190615a43565b608082015260608101516001600160a01b03871660009081526010602052604090205461483a9190615a43565b60a082018190526080820151600f556001600160a01b0387166000818152601060209081526040918290209390935560c0840151606080860151835194855294840191909152908201929092527f4c209b5fc8ad50758f13e2e1088ba56a560dff690a1c6fef26394f4c03821c4f910160405180910390a1856001600160a01b0316306001600160a01b0316600080516020615bba83398151915283606001516040516148e991815260200190565b60405180910390a360035460c082015160608301516040516341c728b960e01b81523060048201526001600160a01b038a811660248301526044820193909352606481019190915261010090920416906341c728b990608401600060405180830381600087803b15801561495c57600080fd5b505af1158015614970573d6000803e3d6000fd5b506000925061497d915050565b8160c001519350935050505b9250929050565b60007f45b96fe442630264581b197e84bbada861235052c5a1aadfff9ea4e40a969aa08460118111156149c5576149c5615a89565b8460618111156149d7576149d7615a89565b604080519283526020830191909152810184905260600160405180910390a16003846011811115614a0a57614a0a615a89565b14614a2657836011811115614a2157614a21615a89565b6110d4565b6110d4826103e8615a43565b600080838311614a51576000614a4884866159e0565b91509150614989565b50600390506000614989565b6000670de0b6b3a7640000614a768484600001516153b3565b6108169190615b36565b600080614a8d84846153f5565b90506110d481615426565b600080838301848110614ab057600092509050614989565b600260009250925050614989565b60035460405163368f515360e21b815260009182916101009091046001600160a01b03169063da3d454c90614afb90309088908890600401615afc565b6020604051808303816000875af1158015614b1a573d6000803e3d6000fd5b505050506040513d601f19601f82011682018060405250810190614b3e9190615a0d565b90508015614b5b57614b536003601083614990565b915050610819565b4360095414614b7057614b53600a600c612f92565b6000614b7a612b85565b905083811015614b9957614b90600e600b612f92565b92505050610819565b614bc5604080516080810190915280600081526020016000815260200160008152602001600081525090565b306040516305eff7ef60e21b81526001600160a01b03888116600483015291909116906317bfdfbc90602401602060405180830381865afa158015614c0e573d6000803e3d6000fd5b505050506040513d601f19601f82011682018060405250810190614c329190615a0d565b60208201819052614c439086614a98565b6040830181905282826003811115614c5d57614c5d615a89565b6003811115614c6e57614c6e615a89565b9052506000905081516003811115614c8857614c88615a89565b14614cb457614caa6009600e8360000151600381111561325857613258615a89565b9350505050610819565b6003546040828101519051631de6c8a560e21b815230600482015260248101919091526101009091046001600160a01b03169063779b229490604401602060405180830381865afa158015614d0d573d6000803e3d6000fd5b505050506040513d601f19601f82011682018060405250810190614d319190615a0d565b92508215614d4657614caa6003601085614990565b614d52600b5486614a98565b6060830181905282826003811115614d6c57614d6c615a89565b6003811115614d7d57614d7d615a89565b9052506000905081516003811115614d9757614d97615a89565b14614db957614caa6009600d8360000151600381111561325857613258615a89565b6040808201516001600160a01b0388166000908152601260205291909120908155600a546001909101556060810151600b55614df58686612737565b60408082015160608084015183516001600160a01b038b168152602081018a9052938401929092528201527f13ed6866d4e1ee6da46f845c46d7e54120883d75c5ea9a2dacc1c4ca8984ab809060800160405180910390a160009695505050505050565b600354604051632fe3f38f60e11b81523060048201526001600160a01b03838116602483015286811660448301528581166064830152608482018590526000928392839261010090920490911690635fc7e71e9060a4016020604051808303816000875af1158015614ecf573d6000803e3d6000fd5b505050506040513d601f19601f82011682018060405250810190614ef39190615a0d565b90508015614f1457614f086003601483614990565b6000925092505061530d565b4360095414614f2957614f08600a6018612f92565b43846001600160a01b0316636c540baf6040518163ffffffff1660e01b8152600401602060405180830381865afa158015614f68573d6000803e3d6000fd5b505050506040513d601f19601f82011682018060405250810190614f8c9190615a0d565b14614f9d57614f08600a6013612f92565b866001600160a01b0316866001600160a01b031603614fc257614f0860066019612f92565b84600003614fd657614f0860076017612f92565b6000198503614feb57614f0860076016612f92565b600080614ff9898989613769565b9092509050811561502e5761502082601181111561501957615019615a89565b601a612f92565b60009450945050505061530d565b60035460405163c488847b60e01b815260009182916101009091046001600160a01b03169063c488847b9061506b9030908c908890600401615afc565b6040805180830381865afa158015615087573d6000803e3d6000fd5b505050506040513d601f19601f820116820180604052508101906150ab9190615b4a565b9092509050811561511a5760405162461bcd60e51b815260206004820152603360248201527f4c49515549444154455f434f4d5054524f4c4c45525f43414c43554c4154455f604482015272105353d5539517d4d152569157d19052531151606a1b606482015260840161052a565b6040516370a0823160e01b81526001600160a01b038b811660048301528291908a16906370a0823190602401602060405180830381865afa158015615163573d6000803e3d6000fd5b505050506040513d601f19601f820116820180604052508101906151879190615a0d565b10156151d55760405162461bcd60e51b815260206004820152601860248201527f4c49515549444154455f5345495a455f544f4f5f4d5543480000000000000000604482015260640161052a565b6000306001600160a01b038a16036151fa576151f3308d8d8561308f565b9050615270565b60405163b2a02ff160e01b81526001600160a01b038a169063b2a02ff19061522a908f908f908790600401615afc565b6020604051808303816000875af1158015615249573d6000803e3d6000fd5b505050506040513d601f19601f8201168201806040525081019061526d9190615a0d565b90505b80156152a75760405162461bcd60e51b8152602060048201526006602482015265217365697a6560d01b604482015260640161052a565b604080516001600160a01b038e811682528d811660208301528183018790528b1660608201526080810184905290517f298637f684da70674f26509b10f07ec2fbc77a335ab1e7d6215a4b2484d8bb529181900360a00190a16000975092955050505050505b94509492505050565b600080600080615326868661543e565b9092509050600082600381111561533f5761533f615a89565b146153505750915060009050614989565b600061535b82615426565b9350935050509250929050565b60008161537d84670de0b6b3a7640000615b6e565b6153879190615b36565b90506153938284615b85565b1561081957610816600182615a43565b60008060008061532686866154ba565b600061081683836040518060400160405280601781526020017f6d756c7469706c69636174696f6e206f766572666c6f7700000000000000000081525061552d565b604080516020810190915260008152604051806020016040528061541d8560000151856153b3565b90529392505050565b805160009061081990670de0b6b3a764000090615b36565b60006154566040518060200160405280600081525090565b600080615467866000015186615580565b9092509050600082600381111561548057615480615a89565b1461549f57506040805160208101909152600081529092509050614989565b60408051602081019091529081526000969095509350505050565b60006154d26040518060200160405280600081525090565b6000806154e7670de0b6b3a764000087615580565b9092509050600082600381111561550057615500615a89565b1461551f57506040805160208101909152600081529092509050614989565b61535b8186600001516155c2565b600083158061553a575082155b1561554757506000610fc5565b60006155538486615b6e565b9050836155608683615b36565b1483906106b65760405162461bcd60e51b815260040161052a91906156fc565b6000808360000361559657506000905080614989565b838302836155a48683615b36565b146155b757600260009250925050614989565b600092509050614989565b60006155da6040518060200160405280600081525090565b6000806155ef86670de0b6b3a7640000615580565b9092509050600082600381111561560857615608615a89565b1461562757506040805160208101909152600081529092509050614989565b600080615634838861568d565b9092509050600082600381111561564d5761564d615a89565b146156705781604051806020016040528060008152509550955050505050614989565b604080516020810190915290815260009890975095505050505050565b600080826000036156a45750600190506000614989565b60006156b08486615b36565b915091509250929050565b6001600160a01b038116811461308c57600080fd5b600080604083850312156156e357600080fd5b82356156ee816156bb565b946020939093013593505050565b60006020808352835180602085015260005b8181101561572a5785810183015185820160400152820161570e565b506000604082860101526040601f19601f8301168501019250505092915050565b60006020828403121561575d57600080fd5b5035919050565b60006020828403121561577657600080fd5b8135610fc5816156bb565b634e487b7160e01b600052604160045260246000fd5b6000602082840312156157a957600080fd5b813567ffffffffffffffff808211156157c157600080fd5b818401915084601f8301126157d557600080fd5b8135818111156157e7576157e7615781565b604051601f8201601f19908116603f0116810190838211818310171561580f5761580f615781565b8160405282815287602084870101111561582857600080fd5b826020860160208301376000928101602001929092525095945050505050565b6020808252825182820181905260009190848201906040850190845b8181101561588a5783516001600160e01b03191683529284019291840191600101615864565b50909695505050505050565b6000806000606084860312156158ab57600080fd5b83356158b6816156bb565b925060208401356158c6816156bb565b929592945050506040919091013590565b6000806000606084860312156158ec57600080fd5b83356158f7816156bb565b925060208401359150604084013561590e816156bb565b809150509250925092565b600181811c9082168061592d57607f821691505b60208210810361185557634e487b7160e01b600052602260045260246000fd5b6001600160a01b0394851681529284166020840152921660408201526001600160e01b0319909116606082015260800190565b60006020828403121561599257600080fd5b81518015158114610fc557600080fd5b6020808252600e908201526d1b9bdd08185d5d1a1bdc9a5e995960921b604082015260600190565b634e487b7160e01b600052601160045260246000fd5b81810381811115610819576108196159ca565b6001600160a01b0392831681529116602082015260400190565b600060208284031215615a1f57600080fd5b5051919050565b600060208284031215615a3857600080fd5b8151610fc5816156bb565b80820180821115610819576108196159ca565b634e487b7160e01b600052603260045260246000fd5b600060ff821680615a7f57615a7f6159ca565b6000190192915050565b634e487b7160e01b600052602160045260246000fd5b6020808252603e908201527f4865616c746820666163746f72206e6f74206c6f7720656e6f75676820666f7260408201527f206e6f6e2d7065726d697373696f6e6564206c69717569646174696f6e730000606082015260800190565b6001600160a01b039384168152919092166020820152604081019190915260600190565b634e487b7160e01b600052601260045260246000fd5b600082615b4557615b45615b20565b500490565b60008060408385031215615b5d57600080fd5b505080516020909101519092909150565b8082028115828204841417610819576108196159ca565b600082615b9457615b94615b20565b50069056fefa373e1ee49299afe249e16436ea939a0edb26953bec7179d544957654b3ba20ddf252ad1be2c89b69c2b068fc378daa952ba7f163c4a11628f55a4df523b3efa264697066735822122044b0f0eba591ecf84368b37a7e572156264f9f06cbd0ad2cf0b05cf17f17306664736f6c63430008160033",
  "devdoc": {
    "author": "Joey Santoro CErc20PluginDelegate deposits and withdraws from a plugin contract It is also capable of delegating reward functionality to a PluginRewardsDistributor",
    "events": {
      "Failure(uint256,uint256,uint256)": {
        "details": "`error` corresponds to enum Error; `info` corresponds to enum FailureInfo, and `detail` is an arbitrary contract-specific code that enables us to report opaque error codes from upgradeable contracts.*"
      }
    },
    "kind": "dev",
    "methods": {
      "_becomeImplementation(bytes)": {
        "params": {
          "data": "The encoded arguments for becoming"
        }
      },
      "_getExtensionFunctions()": {
        "returns": {
          "functionSelectors": "a list of all the function selectors that this logic extension exposes"
        }
      },
      "_updatePlugin(address)": {
        "params": {
          "_plugin": "The address of the plugin implementation to use"
        }
      },
      "_withdrawAdminFees(uint256)": {
        "params": {
          "withdrawAmount": "Amount of fees to withdraw"
        },
        "returns": {
          "_0": "uint 0=success, otherwise a failure (see ErrorReporter.sol for details)"
        }
      },
      "_withdrawIonicFees(uint256)": {
        "params": {
          "withdrawAmount": "Amount of fees to withdraw"
        },
        "returns": {
          "_0": "uint 0=success, otherwise a failure (see ErrorReporter.sol for details)"
        }
      },
      "borrow(uint256)": {
        "params": {
          "borrowAmount": "The amount of the underlying asset to borrow"
        },
        "returns": {
          "_0": "uint 0=success, otherwise a failure (see ErrorReporter.sol for details)"
        }
      },
      "getCash()": {
        "returns": {
          "_0": "The quantity of underlying asset owned by this contract"
        }
      },
      "liquidateBorrow(address,uint256,address)": {
        "params": {
          "borrower": "The borrower of this cToken to be liquidated",
          "cTokenCollateral": "The market in which to seize collateral from the borrower",
          "repayAmount": "The amount of the underlying borrowed asset to repay"
        },
        "returns": {
          "_0": "uint 0=success, otherwise a failure (see ErrorReporter.sol for details)"
        }
      },
      "mint(uint256)": {
        "details": "Accrues interest whether or not the operation succeeds, unless reverted",
        "params": {
          "mintAmount": "The amount of the underlying asset to supply"
        },
        "returns": {
          "_0": "uint 0=success, otherwise a failure (see ErrorReporter.sol for details)"
        }
      },
      "redeem(uint256)": {
        "details": "Accrues interest whether or not the operation succeeds, unless reverted",
        "params": {
          "redeemTokens": "The number of cTokens to redeem into underlying"
        },
        "returns": {
          "_0": "uint 0=success, otherwise a failure (see ErrorReporter.sol for details)"
        }
      },
      "redeemUnderlying(uint256)": {
        "details": "Accrues interest whether or not the operation succeeds, unless reverted",
        "params": {
          "redeemAmount": "The amount of underlying to redeem"
        },
        "returns": {
          "_0": "uint 0=success, otherwise a failure (see ErrorReporter.sol for details)"
        }
      },
      "repayBorrow(uint256)": {
        "params": {
          "repayAmount": "The amount to repay"
        },
        "returns": {
          "_0": "uint 0=success, otherwise a failure (see ErrorReporter.sol for details)"
        }
      },
      "repayBorrowBehalf(address,uint256)": {
        "params": {
          "borrower": "the account with the debt being payed off",
          "repayAmount": "The amount to repay"
        },
        "returns": {
          "_0": "uint 0=success, otherwise a failure (see ErrorReporter.sol for details)"
        }
      },
      "seize(address,address,uint256)": {
        "details": "Will fail unless called by another cToken during the process of liquidation.  Its absolutely critical to use msg.sender as the borrowed cToken and not a parameter.",
        "params": {
          "borrower": "The account having collateral seized",
          "liquidator": "The account receiving seized collateral",
          "seizeTokens": "The number of cTokens to seize"
        },
        "returns": {
          "_0": "uint 0=success, otherwise a failure (see ErrorReporter.sol for details)"
        }
      }
    },
    "title": "Rari's CErc20Plugin's Contract",
    "version": 1
  },
  "userdoc": {
    "events": {
      "AccrueInterest(uint256,uint256,uint256,uint256)": {
        "notice": "Event emitted when interest is accrued"
      },
      "Approval(address,address,uint256)": {
        "notice": "EIP20 Approval event"
      },
      "Borrow(address,uint256,uint256,uint256)": {
        "notice": "Event emitted when underlying is borrowed"
      },
      "LiquidateBorrow(address,address,uint256,address,uint256)": {
        "notice": "Event emitted when a borrow is liquidated"
      },
      "Mint(address,uint256,uint256)": {
        "notice": "Event emitted when tokens are minted"
      },
      "NewAdminFee(uint256,uint256)": {
        "notice": "Event emitted when the admin fee is changed"
      },
      "NewIonicFee(uint256,uint256)": {
        "notice": "Event emitted when the Ionic fee is changed"
      },
      "NewMarketInterestRateModel(address,address)": {
        "notice": "Event emitted when interestRateModel is changed"
      },
      "NewReserveFactor(uint256,uint256)": {
        "notice": "Event emitted when the reserve factor is changed"
      },
      "Redeem(address,uint256,uint256)": {
        "notice": "Event emitted when tokens are redeemed"
      },
      "RepayBorrow(address,address,uint256,uint256,uint256)": {
        "notice": "Event emitted when a borrow is repaid"
      },
      "ReservesAdded(address,uint256,uint256)": {
        "notice": "Event emitted when the reserves are added"
      },
      "ReservesReduced(address,uint256,uint256)": {
        "notice": "Event emitted when the reserves are reduced"
      },
      "Transfer(address,address,uint256)": {
        "notice": "EIP20 Transfer event"
      }
    },
    "kind": "user",
    "methods": {
      "_becomeImplementation(bytes)": {
        "notice": "Delegate interface to become the implementation"
      },
      "_updatePlugin(address)": {
        "notice": "Update the plugin implementation to a whitelisted implementation"
      },
      "_withdrawAdminFees(uint256)": {
        "notice": "Accrues interest and reduces admin fees by transferring to admin"
      },
      "_withdrawIonicFees(uint256)": {
        "notice": "Accrues interest and reduces Ionic fees by transferring to Ionic"
      },
      "accrualBlockNumber()": {
        "notice": "Block number that interest was last accrued at"
      },
      "adminFeeMantissa()": {
        "notice": "Fraction of interest currently set aside for admin fees"
      },
      "ap()": {
        "notice": "Addresses Provider"
      },
      "borrow(uint256)": {
        "notice": "Sender borrows assets from the protocol to their own address"
      },
      "borrowIndex()": {
        "notice": "Accumulator of the total earned interest rate since the opening of the market"
      },
      "comptroller()": {
        "notice": "Contract which oversees inter-cToken operations"
      },
      "decimals()": {
        "notice": "EIP-20 token decimals for this token"
      },
      "getCash()": {
        "notice": "Get cash balance of this cToken in the underlying asset"
      },
      "interestRateModel()": {
        "notice": "Model which tells what the current interest rate should be"
      },
      "ionicFeeMantissa()": {
        "notice": "Fraction of interest currently set aside for Ionic fees"
      },
      "liquidateBorrow(address,uint256,address)": {
        "notice": "The sender liquidates the borrowers collateral.  The collateral seized is transferred to the liquidator."
      },
      "mint(uint256)": {
        "notice": "Sender supplies assets into the market and receives cTokens in exchange"
      },
      "name()": {
        "notice": "EIP-20 token name for this token"
      },
      "plugin()": {
        "notice": "Plugin address"
      },
      "redeem(uint256)": {
        "notice": "Sender redeems cTokens in exchange for the underlying asset"
      },
      "redeemUnderlying(uint256)": {
        "notice": "Sender redeems cTokens in exchange for a specified amount of underlying asset"
      },
      "repayBorrow(uint256)": {
        "notice": "Sender repays their own borrow"
      },
      "repayBorrowBehalf(address,uint256)": {
        "notice": "Sender repays a borrow belonging to borrower"
      },
      "reserveFactorMantissa()": {
        "notice": "Fraction of interest currently set aside for reserves"
      },
      "seize(address,address,uint256)": {
        "notice": "Transfers collateral tokens (this market) to the liquidator."
      },
      "symbol()": {
        "notice": "EIP-20 token symbol for this token"
      },
      "totalAdminFees()": {
        "notice": "Total amount of admin fees of the underlying held in this market"
      },
      "totalBorrows()": {
        "notice": "Total amount of outstanding borrows of the underlying in this market"
      },
      "totalIonicFees()": {
        "notice": "Total amount of Ionic fees of the underlying held in this market"
      },
      "totalReserves()": {
        "notice": "Total amount of reserves of the underlying held in this market"
      },
      "totalSupply()": {
        "notice": "Total number of tokens in circulation"
      },
      "underlying()": {
        "notice": "Underlying asset for this CToken"
      }
    },
    "notice": "CToken which outsources token logic to a plugin",
    "version": 1
  },
  "storageLayout": {
    "storage": [
      {
        "astId": 17536,
        "contract": "contracts/compound/CErc20PluginDelegate.sol:CErc20PluginDelegate",
        "label": "ionicAdmin",
        "offset": 0,
        "slot": "0",
        "type": "t_address_payable"
      },
      {
        "astId": 17542,
        "contract": "contracts/compound/CErc20PluginDelegate.sol:CErc20PluginDelegate",
        "label": "_notEntered",
        "offset": 20,
        "slot": "0",
        "type": "t_bool"
      },
      {
        "astId": 17545,
        "contract": "contracts/compound/CErc20PluginDelegate.sol:CErc20PluginDelegate",
        "label": "name",
        "offset": 0,
        "slot": "1",
        "type": "t_string_storage"
      },
      {
        "astId": 17548,
        "contract": "contracts/compound/CErc20PluginDelegate.sol:CErc20PluginDelegate",
        "label": "symbol",
        "offset": 0,
        "slot": "2",
        "type": "t_string_storage"
      },
      {
        "astId": 17551,
        "contract": "contracts/compound/CErc20PluginDelegate.sol:CErc20PluginDelegate",
        "label": "decimals",
        "offset": 0,
        "slot": "3",
        "type": "t_uint8"
      },
      {
        "astId": 17561,
        "contract": "contracts/compound/CErc20PluginDelegate.sol:CErc20PluginDelegate",
        "label": "comptroller",
        "offset": 1,
        "slot": "3",
        "type": "t_contract(IonicComptroller)25043"
      },
      {
        "astId": 17565,
        "contract": "contracts/compound/CErc20PluginDelegate.sol:CErc20PluginDelegate",
        "label": "interestRateModel",
        "offset": 0,
        "slot": "4",
        "type": "t_contract(InterestRateModel)27704"
      },
      {
        "astId": 17567,
        "contract": "contracts/compound/CErc20PluginDelegate.sol:CErc20PluginDelegate",
        "label": "initialExchangeRateMantissa",
        "offset": 0,
        "slot": "5",
        "type": "t_uint256"
      },
      {
        "astId": 17570,
        "contract": "contracts/compound/CErc20PluginDelegate.sol:CErc20PluginDelegate",
        "label": "adminFeeMantissa",
        "offset": 0,
        "slot": "6",
        "type": "t_uint256"
      },
      {
        "astId": 17573,
        "contract": "contracts/compound/CErc20PluginDelegate.sol:CErc20PluginDelegate",
        "label": "ionicFeeMantissa",
        "offset": 0,
        "slot": "7",
        "type": "t_uint256"
      },
      {
        "astId": 17576,
        "contract": "contracts/compound/CErc20PluginDelegate.sol:CErc20PluginDelegate",
        "label": "reserveFactorMantissa",
        "offset": 0,
        "slot": "8",
        "type": "t_uint256"
      },
      {
        "astId": 17579,
        "contract": "contracts/compound/CErc20PluginDelegate.sol:CErc20PluginDelegate",
        "label": "accrualBlockNumber",
        "offset": 0,
        "slot": "9",
        "type": "t_uint256"
      },
      {
        "astId": 17582,
        "contract": "contracts/compound/CErc20PluginDelegate.sol:CErc20PluginDelegate",
        "label": "borrowIndex",
        "offset": 0,
        "slot": "10",
        "type": "t_uint256"
      },
      {
        "astId": 17585,
        "contract": "contracts/compound/CErc20PluginDelegate.sol:CErc20PluginDelegate",
        "label": "totalBorrows",
        "offset": 0,
        "slot": "11",
        "type": "t_uint256"
      },
      {
        "astId": 17588,
        "contract": "contracts/compound/CErc20PluginDelegate.sol:CErc20PluginDelegate",
        "label": "totalReserves",
        "offset": 0,
        "slot": "12",
        "type": "t_uint256"
      },
      {
        "astId": 17591,
        "contract": "contracts/compound/CErc20PluginDelegate.sol:CErc20PluginDelegate",
        "label": "totalAdminFees",
        "offset": 0,
        "slot": "13",
        "type": "t_uint256"
      },
      {
        "astId": 17594,
        "contract": "contracts/compound/CErc20PluginDelegate.sol:CErc20PluginDelegate",
        "label": "totalIonicFees",
        "offset": 0,
        "slot": "14",
        "type": "t_uint256"
      },
      {
        "astId": 17597,
        "contract": "contracts/compound/CErc20PluginDelegate.sol:CErc20PluginDelegate",
        "label": "totalSupply",
        "offset": 0,
        "slot": "15",
        "type": "t_uint256"
      },
      {
        "astId": 17601,
        "contract": "contracts/compound/CErc20PluginDelegate.sol:CErc20PluginDelegate",
        "label": "accountTokens",
        "offset": 0,
        "slot": "16",
        "type": "t_mapping(t_address,t_uint256)"
      },
      {
        "astId": 17607,
        "contract": "contracts/compound/CErc20PluginDelegate.sol:CErc20PluginDelegate",
        "label": "transferAllowances",
        "offset": 0,
        "slot": "17",
        "type": "t_mapping(t_address,t_mapping(t_address,t_uint256))"
      },
      {
        "astId": 17618,
        "contract": "contracts/compound/CErc20PluginDelegate.sol:CErc20PluginDelegate",
        "label": "accountBorrows",
        "offset": 0,
        "slot": "18",
        "type": "t_mapping(t_address,t_struct(BorrowSnapshot)17613_storage)"
      },
      {
        "astId": 17627,
        "contract": "contracts/compound/CErc20PluginDelegate.sol:CErc20PluginDelegate",
        "label": "underlying",
        "offset": 0,
        "slot": "19",
        "type": "t_address"
      },
      {
        "astId": 17631,
        "contract": "contracts/compound/CErc20PluginDelegate.sol:CErc20PluginDelegate",
        "label": "ap",
        "offset": 0,
        "slot": "20",
        "type": "t_contract(AddressesProvider)37330"
      },
      {
        "astId": 12134,
        "contract": "contracts/compound/CErc20PluginDelegate.sol:CErc20PluginDelegate",
        "label": "plugin",
        "offset": 0,
        "slot": "21",
        "type": "t_contract(IERC4626)27576"
      }
    ],
    "types": {
      "t_address": {
        "encoding": "inplace",
        "label": "address",
        "numberOfBytes": "20"
      },
      "t_address_payable": {
        "encoding": "inplace",
        "label": "address payable",
        "numberOfBytes": "20"
      },
      "t_bool": {
        "encoding": "inplace",
        "label": "bool",
        "numberOfBytes": "1"
      },
      "t_contract(AddressesProvider)37330": {
        "encoding": "inplace",
        "label": "contract AddressesProvider",
        "numberOfBytes": "20"
      },
      "t_contract(IERC4626)27576": {
        "encoding": "inplace",
        "label": "contract IERC4626",
        "numberOfBytes": "20"
      },
      "t_contract(InterestRateModel)27704": {
        "encoding": "inplace",
        "label": "contract InterestRateModel",
        "numberOfBytes": "20"
      },
      "t_contract(IonicComptroller)25043": {
        "encoding": "inplace",
        "label": "contract IonicComptroller",
        "numberOfBytes": "20"
      },
      "t_mapping(t_address,t_mapping(t_address,t_uint256))": {
        "encoding": "mapping",
        "key": "t_address",
        "label": "mapping(address => mapping(address => uint256))",
        "numberOfBytes": "32",
        "value": "t_mapping(t_address,t_uint256)"
      },
      "t_mapping(t_address,t_struct(BorrowSnapshot)17613_storage)": {
        "encoding": "mapping",
        "key": "t_address",
        "label": "mapping(address => struct CErc20Storage.BorrowSnapshot)",
        "numberOfBytes": "32",
        "value": "t_struct(BorrowSnapshot)17613_storage"
      },
      "t_mapping(t_address,t_uint256)": {
        "encoding": "mapping",
        "key": "t_address",
        "label": "mapping(address => uint256)",
        "numberOfBytes": "32",
        "value": "t_uint256"
      },
      "t_string_storage": {
        "encoding": "bytes",
        "label": "string",
        "numberOfBytes": "32"
      },
      "t_struct(BorrowSnapshot)17613_storage": {
        "encoding": "inplace",
        "label": "struct CErc20Storage.BorrowSnapshot",
        "members": [
          {
            "astId": 17610,
            "contract": "contracts/compound/CErc20PluginDelegate.sol:CErc20PluginDelegate",
            "label": "principal",
            "offset": 0,
            "slot": "0",
            "type": "t_uint256"
          },
          {
            "astId": 17612,
            "contract": "contracts/compound/CErc20PluginDelegate.sol:CErc20PluginDelegate",
            "label": "interestIndex",
            "offset": 0,
            "slot": "1",
            "type": "t_uint256"
          }
        ],
        "numberOfBytes": "64"
      },
      "t_uint256": {
        "encoding": "inplace",
        "label": "uint256",
        "numberOfBytes": "32"
      },
      "t_uint8": {
        "encoding": "inplace",
        "label": "uint8",
        "numberOfBytes": "1"
      }
    }
  }
}