{
  "address": "0x83712A0c8d66722a5850Df6b429249DF2f3528d4",
  "abi": [
    {
      "inputs": [],
      "name": "InteractionNotAllowed",
      "type": "error"
    },
    {
      "anonymous": false,
      "inputs": [
        {
          "indexed": false,
          "internalType": "uint256",
          "name": "cashPrior",
          "type": "uint256"
        },
        {
          "indexed": false,
          "internalType": "uint256",
          "name": "interestAccumulated",
          "type": "uint256"
        },
        {
          "indexed": false,
          "internalType": "uint256",
          "name": "borrowIndex",
          "type": "uint256"
        },
        {
          "indexed": false,
          "internalType": "uint256",
          "name": "totalBorrows",
          "type": "uint256"
        }
      ],
      "name": "AccrueInterest",
      "type": "event"
    },
    {
      "anonymous": false,
      "inputs": [
        {
          "indexed": true,
          "internalType": "address",
          "name": "owner",
          "type": "address"
        },
        {
          "indexed": true,
          "internalType": "address",
          "name": "spender",
          "type": "address"
        },
        {
          "indexed": false,
          "internalType": "uint256",
          "name": "amount",
          "type": "uint256"
        }
      ],
      "name": "Approval",
      "type": "event"
    },
    {
      "anonymous": false,
      "inputs": [
        {
          "indexed": false,
          "internalType": "uint256",
          "name": "error",
          "type": "uint256"
        },
        {
          "indexed": false,
          "internalType": "uint256",
          "name": "info",
          "type": "uint256"
        },
        {
          "indexed": false,
          "internalType": "uint256",
          "name": "detail",
          "type": "uint256"
        }
      ],
      "name": "Failure",
      "type": "event"
    },
    {
      "anonymous": false,
      "inputs": [
        {
          "indexed": false,
          "internalType": "address",
          "name": "receiver",
          "type": "address"
        },
        {
          "indexed": false,
          "internalType": "uint256",
          "name": "amount",
          "type": "uint256"
        }
      ],
      "name": "Flash",
      "type": "event"
    },
    {
      "anonymous": false,
      "inputs": [
        {
          "indexed": false,
          "internalType": "uint256",
          "name": "oldAdminFeeMantissa",
          "type": "uint256"
        },
        {
          "indexed": false,
          "internalType": "uint256",
          "name": "newAdminFeeMantissa",
          "type": "uint256"
        }
      ],
      "name": "NewAdminFee",
      "type": "event"
    },
    {
      "anonymous": false,
      "inputs": [
        {
          "indexed": false,
          "internalType": "uint256",
          "name": "oldIonicFeeMantissa",
          "type": "uint256"
        },
        {
          "indexed": false,
          "internalType": "uint256",
          "name": "newIonicFeeMantissa",
          "type": "uint256"
        }
      ],
      "name": "NewIonicFee",
      "type": "event"
    },
    {
      "anonymous": false,
      "inputs": [
        {
          "indexed": false,
          "internalType": "contract InterestRateModel",
          "name": "oldInterestRateModel",
          "type": "address"
        },
        {
          "indexed": false,
          "internalType": "contract InterestRateModel",
          "name": "newInterestRateModel",
          "type": "address"
        }
      ],
      "name": "NewMarketInterestRateModel",
      "type": "event"
    },
    {
      "anonymous": false,
      "inputs": [
        {
          "indexed": false,
          "internalType": "uint256",
          "name": "oldReserveFactorMantissa",
          "type": "uint256"
        },
        {
          "indexed": false,
          "internalType": "uint256",
          "name": "newReserveFactorMantissa",
          "type": "uint256"
        }
      ],
      "name": "NewReserveFactor",
      "type": "event"
    },
    {
      "anonymous": false,
      "inputs": [
        {
          "indexed": true,
          "internalType": "address",
          "name": "previousOracle",
          "type": "address"
        },
        {
          "indexed": true,
          "internalType": "address",
          "name": "newOracle",
          "type": "address"
        }
      ],
      "name": "OracleAddressChanged",
      "type": "event"
    },
    {
      "anonymous": false,
      "inputs": [
        {
          "indexed": true,
          "internalType": "address",
          "name": "previousAdmin",
          "type": "address"
        },
        {
          "indexed": true,
          "internalType": "address",
          "name": "newAdmin",
          "type": "address"
        }
      ],
      "name": "OracleAdminChanged",
      "type": "event"
    },
    {
      "anonymous": false,
      "inputs": [
        {
          "indexed": true,
          "internalType": "address",
          "name": "from",
          "type": "address"
        },
        {
          "indexed": true,
          "internalType": "address",
          "name": "to",
          "type": "address"
        },
        {
          "indexed": false,
          "internalType": "uint256",
          "name": "amount",
          "type": "uint256"
        }
      ],
      "name": "Transfer",
      "type": "event"
    },
    {
      "inputs": [],
      "name": "_getExtensionFunctions",
      "outputs": [
        {
          "internalType": "bytes4[]",
          "name": "",
          "type": "bytes4[]"
        }
      ],
      "stateMutability": "pure",
      "type": "function"
    },
    {
      "inputs": [
        {
          "internalType": "address",
          "name": "_ap",
          "type": "address"
        }
      ],
      "name": "_setAddressesProvider",
      "outputs": [],
      "stateMutability": "nonpayable",
      "type": "function"
    },
    {
      "inputs": [
        {
          "internalType": "uint256",
          "name": "newAdminFeeMantissa",
          "type": "uint256"
        }
      ],
      "name": "_setAdminFee",
      "outputs": [
        {
          "internalType": "uint256",
          "name": "",
          "type": "uint256"
        }
      ],
      "stateMutability": "nonpayable",
      "type": "function"
    },
    {
      "inputs": [
        {
          "internalType": "contract InterestRateModel",
          "name": "newInterestRateModel",
          "type": "address"
        }
      ],
      "name": "_setInterestRateModel",
      "outputs": [
        {
          "internalType": "uint256",
          "name": "",
          "type": "uint256"
        }
      ],
      "stateMutability": "nonpayable",
      "type": "function"
    },
    {
      "inputs": [
        {
          "internalType": "string",
          "name": "_name",
          "type": "string"
        },
        {
          "internalType": "string",
          "name": "_symbol",
          "type": "string"
        }
      ],
      "name": "_setNameAndSymbol",
      "outputs": [],
      "stateMutability": "nonpayable",
      "type": "function"
    },
    {
      "inputs": [
        {
          "internalType": "uint256",
          "name": "newReserveFactorMantissa",
          "type": "uint256"
        }
      ],
      "name": "_setReserveFactor",
      "outputs": [
        {
          "internalType": "uint256",
          "name": "",
          "type": "uint256"
        }
      ],
      "stateMutability": "nonpayable",
      "type": "function"
    },
    {
      "inputs": [],
      "name": "accrualBlockNumber",
      "outputs": [
        {
          "internalType": "uint256",
          "name": "",
          "type": "uint256"
        }
      ],
      "stateMutability": "view",
      "type": "function"
    },
    {
      "inputs": [],
      "name": "accrueInterest",
      "outputs": [
        {
          "internalType": "uint256",
          "name": "",
          "type": "uint256"
        }
      ],
      "stateMutability": "nonpayable",
      "type": "function"
    },
    {
      "inputs": [],
      "name": "adminFeeMantissa",
      "outputs": [
        {
          "internalType": "uint256",
          "name": "",
          "type": "uint256"
        }
      ],
      "stateMutability": "view",
      "type": "function"
    },
    {
      "inputs": [
        {
          "internalType": "address",
          "name": "owner",
          "type": "address"
        },
        {
          "internalType": "address",
          "name": "spender",
          "type": "address"
        }
      ],
      "name": "allowance",
      "outputs": [
        {
          "internalType": "uint256",
          "name": "",
          "type": "uint256"
        }
      ],
      "stateMutability": "view",
      "type": "function"
    },
    {
      "inputs": [],
      "name": "ap",
      "outputs": [
        {
          "internalType": "contract AddressesProvider",
          "name": "",
          "type": "address"
        }
      ],
      "stateMutability": "view",
      "type": "function"
    },
    {
      "inputs": [
        {
          "internalType": "address",
          "name": "spender",
          "type": "address"
        },
        {
          "internalType": "uint256",
          "name": "amount",
          "type": "uint256"
        }
      ],
      "name": "approve",
      "outputs": [
        {
          "internalType": "bool",
          "name": "",
          "type": "bool"
        }
      ],
      "stateMutability": "nonpayable",
      "type": "function"
    },
    {
      "inputs": [
        {
          "internalType": "address",
          "name": "owner",
          "type": "address"
        }
      ],
      "name": "balanceOf",
      "outputs": [
        {
          "internalType": "uint256",
          "name": "",
          "type": "uint256"
        }
      ],
      "stateMutability": "view",
      "type": "function"
    },
    {
      "inputs": [
        {
          "internalType": "address",
          "name": "owner",
          "type": "address"
        }
      ],
      "name": "balanceOfUnderlying",
      "outputs": [
        {
          "internalType": "uint256",
          "name": "",
          "type": "uint256"
        }
      ],
      "stateMutability": "view",
      "type": "function"
    },
    {
      "inputs": [
        {
          "internalType": "address",
          "name": "account",
          "type": "address"
        }
      ],
      "name": "borrowBalanceCurrent",
      "outputs": [
        {
          "internalType": "uint256",
          "name": "",
          "type": "uint256"
        }
      ],
      "stateMutability": "view",
      "type": "function"
    },
    {
      "inputs": [],
      "name": "borrowIndex",
      "outputs": [
        {
          "internalType": "uint256",
          "name": "",
          "type": "uint256"
        }
      ],
      "stateMutability": "view",
      "type": "function"
    },
    {
      "inputs": [],
      "name": "borrowRatePerBlock",
      "outputs": [
        {
          "internalType": "uint256",
          "name": "",
          "type": "uint256"
        }
      ],
      "stateMutability": "view",
      "type": "function"
    },
    {
      "inputs": [
        {
          "internalType": "uint256",
          "name": "borrowAmount",
          "type": "uint256"
        }
      ],
      "name": "borrowRatePerBlockAfterBorrow",
      "outputs": [
        {
          "internalType": "uint256",
          "name": "",
          "type": "uint256"
        }
      ],
      "stateMutability": "view",
      "type": "function"
    },
    {
      "inputs": [],
      "name": "comptroller",
      "outputs": [
        {
          "internalType": "contract IonicComptroller",
          "name": "",
          "type": "address"
        }
      ],
      "stateMutability": "view",
      "type": "function"
    },
    {
      "inputs": [],
      "name": "decimals",
      "outputs": [
        {
          "internalType": "uint8",
          "name": "",
          "type": "uint8"
        }
      ],
      "stateMutability": "view",
      "type": "function"
    },
    {
      "inputs": [],
      "name": "exchangeRateCurrent",
      "outputs": [
        {
          "internalType": "uint256",
          "name": "",
          "type": "uint256"
        }
      ],
      "stateMutability": "view",
      "type": "function"
    },
    {
      "inputs": [],
      "name": "feeSeizeShareMantissa",
      "outputs": [
        {
          "internalType": "uint256",
          "name": "",
          "type": "uint256"
        }
      ],
      "stateMutability": "view",
      "type": "function"
    },
    {
      "inputs": [
        {
          "internalType": "uint256",
          "name": "amount",
          "type": "uint256"
        },
        {
          "internalType": "bytes",
          "name": "data",
          "type": "bytes"
        }
      ],
      "name": "flash",
      "outputs": [],
      "stateMutability": "nonpayable",
      "type": "function"
    },
    {
      "inputs": [
        {
          "internalType": "address",
          "name": "account",
          "type": "address"
        }
      ],
      "name": "getAccountSnapshot",
      "outputs": [
        {
          "internalType": "uint256",
          "name": "",
          "type": "uint256"
        },
        {
          "internalType": "uint256",
          "name": "",
          "type": "uint256"
        },
        {
          "internalType": "uint256",
          "name": "",
          "type": "uint256"
        },
        {
          "internalType": "uint256",
          "name": "",
          "type": "uint256"
        }
      ],
      "stateMutability": "view",
      "type": "function"
    },
    {
      "inputs": [],
      "name": "getTotalUnderlyingSupplied",
      "outputs": [
        {
          "internalType": "uint256",
          "name": "",
          "type": "uint256"
        }
      ],
      "stateMutability": "view",
      "type": "function"
    },
    {
      "inputs": [],
      "name": "hypernativeOracle",
      "outputs": [
        {
          "internalType": "address",
          "name": "",
          "type": "address"
        }
      ],
      "stateMutability": "view",
      "type": "function"
    },
    {
      "inputs": [],
      "name": "interestRateModel",
      "outputs": [
        {
          "internalType": "contract InterestRateModel",
          "name": "",
          "type": "address"
        }
      ],
      "stateMutability": "view",
      "type": "function"
    },
    {
      "inputs": [],
      "name": "ionicAdmin",
      "outputs": [
        {
          "internalType": "address payable",
          "name": "",
          "type": "address"
        }
      ],
      "stateMutability": "view",
      "type": "function"
    },
    {
      "inputs": [],
      "name": "ionicFeeMantissa",
      "outputs": [
        {
          "internalType": "uint256",
          "name": "",
          "type": "uint256"
        }
      ],
      "stateMutability": "view",
      "type": "function"
    },
    {
      "inputs": [
        {
          "internalType": "bytes[]",
          "name": "data",
          "type": "bytes[]"
        }
      ],
      "name": "multicall",
      "outputs": [
        {
          "internalType": "bytes[]",
          "name": "results",
          "type": "bytes[]"
        }
      ],
      "stateMutability": "payable",
      "type": "function"
    },
    {
      "inputs": [],
      "name": "name",
      "outputs": [
        {
          "internalType": "string",
          "name": "",
          "type": "string"
        }
      ],
      "stateMutability": "view",
      "type": "function"
    },
    {
      "inputs": [],
      "name": "protocolSeizeShareMantissa",
      "outputs": [
        {
          "internalType": "uint256",
          "name": "",
          "type": "uint256"
        }
      ],
      "stateMutability": "view",
      "type": "function"
    },
    {
      "inputs": [],
      "name": "registerInSFS",
      "outputs": [
        {
          "internalType": "uint256",
          "name": "",
          "type": "uint256"
        }
      ],
      "stateMutability": "nonpayable",
      "type": "function"
    },
    {
      "inputs": [],
      "name": "reserveFactorMantissa",
      "outputs": [
        {
          "internalType": "uint256",
          "name": "",
          "type": "uint256"
        }
      ],
      "stateMutability": "view",
      "type": "function"
    },
    {
      "inputs": [
        {
          "internalType": "address",
          "name": "_oracle",
          "type": "address"
        }
      ],
      "name": "setOracle",
      "outputs": [],
      "stateMutability": "nonpayable",
      "type": "function"
    },
    {
      "inputs": [],
      "name": "supplyRatePerBlock",
      "outputs": [
        {
          "internalType": "uint256",
          "name": "",
          "type": "uint256"
        }
      ],
      "stateMutability": "view",
      "type": "function"
    },
    {
      "inputs": [
        {
          "internalType": "uint256",
          "name": "mintAmount",
          "type": "uint256"
        }
      ],
      "name": "supplyRatePerBlockAfterDeposit",
      "outputs": [
        {
          "internalType": "uint256",
          "name": "",
          "type": "uint256"
        }
      ],
      "stateMutability": "view",
      "type": "function"
    },
    {
      "inputs": [
        {
          "internalType": "uint256",
          "name": "withdrawAmount",
          "type": "uint256"
        }
      ],
      "name": "supplyRatePerBlockAfterWithdraw",
      "outputs": [
        {
          "internalType": "uint256",
          "name": "",
          "type": "uint256"
        }
      ],
      "stateMutability": "view",
      "type": "function"
    },
    {
      "inputs": [],
      "name": "symbol",
      "outputs": [
        {
          "internalType": "string",
          "name": "",
          "type": "string"
        }
      ],
      "stateMutability": "view",
      "type": "function"
    },
    {
      "inputs": [],
      "name": "totalAdminFees",
      "outputs": [
        {
          "internalType": "uint256",
          "name": "",
          "type": "uint256"
        }
      ],
      "stateMutability": "view",
      "type": "function"
    },
    {
      "inputs": [],
      "name": "totalBorrows",
      "outputs": [
        {
          "internalType": "uint256",
          "name": "",
          "type": "uint256"
        }
      ],
      "stateMutability": "view",
      "type": "function"
    },
    {
      "inputs": [],
      "name": "totalBorrowsCurrent",
      "outputs": [
        {
          "internalType": "uint256",
          "name": "",
          "type": "uint256"
        }
      ],
      "stateMutability": "view",
      "type": "function"
    },
    {
      "inputs": [],
      "name": "totalIonicFees",
      "outputs": [
        {
          "internalType": "uint256",
          "name": "",
          "type": "uint256"
        }
      ],
      "stateMutability": "view",
      "type": "function"
    },
    {
      "inputs": [],
      "name": "totalReserves",
      "outputs": [
        {
          "internalType": "uint256",
          "name": "",
          "type": "uint256"
        }
      ],
      "stateMutability": "view",
      "type": "function"
    },
    {
      "inputs": [],
      "name": "totalSupply",
      "outputs": [
        {
          "internalType": "uint256",
          "name": "",
          "type": "uint256"
        }
      ],
      "stateMutability": "view",
      "type": "function"
    },
    {
      "inputs": [
        {
          "internalType": "address",
          "name": "dst",
          "type": "address"
        },
        {
          "internalType": "uint256",
          "name": "amount",
          "type": "uint256"
        }
      ],
      "name": "transfer",
      "outputs": [
        {
          "internalType": "bool",
          "name": "",
          "type": "bool"
        }
      ],
      "stateMutability": "nonpayable",
      "type": "function"
    },
    {
      "inputs": [
        {
          "internalType": "address",
          "name": "src",
          "type": "address"
        },
        {
          "internalType": "address",
          "name": "dst",
          "type": "address"
        },
        {
          "internalType": "uint256",
          "name": "amount",
          "type": "uint256"
        }
      ],
      "name": "transferFrom",
      "outputs": [
        {
          "internalType": "bool",
          "name": "",
          "type": "bool"
        }
      ],
      "stateMutability": "nonpayable",
      "type": "function"
    },
    {
      "inputs": [],
      "name": "underlying",
      "outputs": [
        {
          "internalType": "address",
          "name": "",
          "type": "address"
        }
      ],
      "stateMutability": "view",
      "type": "function"
    }
  ],
  "transactionHash": "0x084715ce89deb30a6152be4cbdaf632ba7c4b8daa9e825e32e04dff03d082925",
  "args": [],
  "numDeployments": 4,
  "solcInputHash": "fde23d46668f3d3bc4d99674a58546a4",
  "bytecode": "0x608060405234801561001057600080fd5b50614d41806100206000396000f3fe6080604052600436106102935760003560e01c80638d02d9a11161015a578063b1e23dbb116100c1578063cfcd4c071161007a578063cfcd4c071461079f578063dd62ed3e146107bf578063f2b3abbd14610805578063f3fdb15a14610825578063f8f9da2814610845578063fca7820b1461085a57600080fd5b8063b1e23dbb146106d8578063bd6d894d146106f8578063be99f1191461070d578063c37f68e214610729578063c3bf11cd14610769578063c91a424f1461077f57600080fd5b8063a6afed9511610113578063a6afed9514610638578063a9059cbb1461064d578063aa5af0fd1461066d578063ac9650d814610683578063ae9d70b0146106a3578063b0a19076146106b857600080fd5b80638d02d9a1146105ac5780638f840ddd146105c257806391dd36c6146105d857806395d89b41146105f85780639826394b1461060d57806398fc32971461062357600080fd5b806347bd3718116101fe5780636f307dc3116101b75780636f307dc3146104ea57806370a082311461050a57806373acee98146105405780637adbf973146105555780637f15e2161461057557806389f8132e1461058a57600080fd5b806347bd3718146104535780634aeb3d9a146104695780635fe3b5671461047e57806361feacff146104a35780636752e702146104b95780636c540baf146104d457600080fd5b8063313ce56711610250578063313ce5671461036d57806334154d4c1461039957806335daea64146103bb5780633af9e669146103db5780633c3b4b89146103fb5780633c4f743c1461041b57600080fd5b806306fdde0314610298578063095ea7b3146102c3578063173b9904146102f357806317bfdfbc1461031757806318160ddd1461033757806323b872dd1461034d575b600080fd5b3480156102a457600080fd5b506102ad61087a565b6040516102ba9190614580565b60405180910390f35b3480156102cf57600080fd5b506102e36102de3660046145a8565b610908565b60405190151581526020016102ba565b3480156102ff57600080fd5b5061030960085481565b6040519081526020016102ba565b34801561032357600080fd5b506103096103323660046145d4565b610bb9565b34801561034357600080fd5b50610309600f5481565b34801561035957600080fd5b506102e36103683660046145f1565b610d6a565b34801561037957600080fd5b506003546103879060ff1681565b60405160ff90911681526020016102ba565b3480156103a557600080fd5b506103b96103b4366004614674565b610f86565b005b3480156103c757600080fd5b506103096103d63660046146e0565b610fcc565b3480156103e757600080fd5b506103096103f63660046145d4565b61114e565b34801561040757600080fd5b506103b96104163660046146f9565b6111e9565b34801561042757600080fd5b5060145461043b906001600160a01b031681565b6040516001600160a01b0390911681526020016102ba565b34801561045f57600080fd5b50610309600b5481565b34801561047557600080fd5b50610309611735565b34801561048a57600080fd5b5060035461043b9061010090046001600160a01b031681565b3480156104af57600080fd5b50610309600d5481565b3480156104c557600080fd5b50610309666379da05b6000081565b3480156104e057600080fd5b5061030960095481565b3480156104f657600080fd5b5060135461043b906001600160a01b031681565b34801561051657600080fd5b506103096105253660046145d4565b6001600160a01b031660009081526010602052604090205490565b34801561054c57600080fd5b506103096117d2565b34801561056157600080fd5b506103b96105703660046145d4565b611861565b34801561058157600080fd5b50610309611891565b34801561059657600080fd5b5061059f611962565b6040516102ba9190614745565b3480156105b857600080fd5b5061030960065481565b3480156105ce57600080fd5b50610309600c5481565b3480156105e457600080fd5b506103096105f33660046146e0565b6120b8565b34801561060457600080fd5b506102ad61254b565b34801561061957600080fd5b50610309600e5481565b34801561062f57600080fd5b5061043b612558565b34801561064457600080fd5b50610309612562565b34801561065957600080fd5b506102e36106683660046145a8565b612673565b34801561067957600080fd5b50610309600a5481565b610696610691366004614793565b61288e565b6040516102ba9190614808565b3480156106af57600080fd5b5061030961289a565b3480156106c457600080fd5b506103b96106d33660046145d4565b6129c0565b3480156106e457600080fd5b506103096106f33660046146e0565b612a06565b34801561070457600080fd5b50610309612b36565b34801561071957600080fd5b5061030967016345785d8a000081565b34801561073557600080fd5b506107496107443660046145d4565b612c63565b6040805194855260208501939093529183015260608201526080016102ba565b34801561077557600080fd5b5061030960075481565b34801561078b57600080fd5b5060005461043b906001600160a01b031681565b3480156107ab57600080fd5b506103096107ba3660046146e0565b612ca9565b3480156107cb57600080fd5b506103096107da36600461486c565b6001600160a01b03918216600090815260116020908152604080832093909416825291909152205490565b34801561081157600080fd5b506103096108203660046145d4565b612dd0565b34801561083157600080fd5b5060045461043b906001600160a01b031681565b34801561085157600080fd5b50610309613169565b34801561086657600080fd5b506103096108753660046146e0565b613230565b60018054610887906148a5565b80601f01602080910402602001604051908101604052809291908181526020018280546108b3906148a5565b80156109005780601f106108d557610100808354040283529160200191610900565b820191906000526020600020905b8154815290600101906020018083116108e357829003601f168201915b505050505081565b60008054600354604051631beb2b9760e31b81526001600160a01b039283169263df595cb8926109559261010090910490911690339030906001600160e01b0319883516906004016148d9565b602060405180830381865afa158015610972573d6000803e3d6000fd5b505050506040513d601f19601f82011682018060405250810190610996919061490c565b6109bb5760405162461bcd60e51b81526004016109b29061492e565b60405180910390fd5b60006109dd6109d96001600080516020614cec83398151915261496c565b5490565b90506001600160a01b038116610a52573360008181526011602090815260408083206001600160a01b038916808552908352928190208790555186815283917f8c5be1e5ebec7d5bd14f71427d1e84f3dd0314c0f7b2291e5b200ac8c7c3b925910160405180910390a3600192505050610bb3565b60405163d7b8a62160e01b815281906001600160a01b0382169063d7b8a62190610a82903390329060040161497f565b602060405180830381865afa158015610a9f573d6000803e3d6000fd5b505050506040513d601f19601f82011682018060405250810190610ac3919061490c565b80610b335750604051636cffbed360e01b81523360048201526001600160a01b03821690636cffbed390602401602060405180830381865afa158015610b0d573d6000803e3d6000fd5b505050506040513d601f19601f82011682018060405250810190610b31919061490c565b155b15610b5157604051636a9657d360e01b815260040160405180910390fd5b3360008181526011602090815260408083206001600160a01b038a16808552908352928190208890555187815283917f8c5be1e5ebec7d5bd14f71427d1e84f3dd0314c0f7b2291e5b200ac8c7c3b925910160405180910390a3600193505050505b92915050565b6000804360095403610bce5750600a54610c49565b6000306001600160a01b0316633b1d21a26040518163ffffffff1660e01b8152600401602060405180830381865afa158015610c0e573d6000803e3d6000fd5b505050506040513d601f19601f82011682018060405250810190610c329190614999565b90506000610c4043836134bd565b60200151925050505b6001600160a01b03831660009081526012602052604081208054829182918203610c7a575060009695505050505050565b8054610c869086613752565b90945092506000846003811115610c9f57610c9f6149b2565b14610cec5760405162461bcd60e51b815260206004820152601e60248201527f216d756c55496e74206f766572666c6f7720636865636b206661696c6564000060448201526064016109b2565b610cfa838260010154613797565b90945091506000846003811115610d1357610d136149b2565b14610d605760405162461bcd60e51b815260206004820152601e60248201527f2164697655496e74206f766572666c6f7720636865636b206661696c6564000060448201526064016109b2565b5095945050505050565b600080610d76816137c5565b60008054600354604051631beb2b9760e31b81526001600160a01b039283169363df595cb893610dc093610100900416913391309190356001600160e01b031916906004016148d9565b602060405180830381865afa158015610ddd573d6000803e3d6000fd5b505050506040513d601f19601f82011682018060405250810190610e01919061490c565b610e1d5760405162461bcd60e51b81526004016109b29061492e565b6000610e3b6109d96001600080516020614cec83398151915261496c565b90506001600160a01b038116610e62576000610e5933888888613889565b14925050610f75565b60405163d7b8a62160e01b815281906001600160a01b0382169063d7b8a62190610e92903390329060040161497f565b602060405180830381865afa158015610eaf573d6000803e3d6000fd5b505050506040513d601f19601f82011682018060405250810190610ed3919061490c565b80610f435750604051636cffbed360e01b81523360048201526001600160a01b03821690636cffbed390602401602060405180830381865afa158015610f1d573d6000803e3d6000fd5b505050506040513d601f19601f82011682018060405250810190610f41919061490c565b155b15610f6157604051636a9657d360e01b815260040160405180910390fd5b6000610f6f33898989613889565b14935050505b610f7e81613b3e565b509392505050565b610f8e613bba565b610faa5760405162461bcd60e51b81526004016109b2906149c8565b6001610fb7848683614a4e565b506002610fc5828483614a4e565b5050505050565b600080306001600160a01b0316633b1d21a26040518163ffffffff1660e01b8152600401602060405180830381865afa15801561100d573d6000803e3d6000fd5b505050506040513d601f19601f820116820180604052508101906110319190614999565b90508281101561107c5760405162461bcd60e51b81526020600482015260166024820152750dac2e4d6cae840c6c2e6d040dcdee840cadcdeeaced60531b60448201526064016109b2565b6004546001600160a01b031663b8168816611097858461496c565b600b54600e54600d54600c546110ad9190614b0e565b6110b79190614b0e565b6006546007546008546110ca9190614b0e565b6110d49190614b0e565b6040516001600160e01b031960e087901b16815260048101949094526024840192909252604483015260648201526084015b602060405180830381865afa158015611123573d6000803e3d6000fd5b505050506040513d601f19601f820116820180604052508101906111479190614999565b9392505050565b6000806040518060200160405280611164612b36565b90526001600160a01b038416600090815260106020526040812054919250908190611190908490613d31565b909250905060008260038111156111a9576111a96149b2565b146111e15760405162461bcd60e51b81526020600482015260086024820152672162616c616e636560c01b60448201526064016109b2565b949350505050565b60008054600354604051631beb2b9760e31b81526001600160a01b039283169363df595cb89361123393610100900416913391309190356001600160e01b031916906004016148d9565b602060405180830381865afa158015611250573d6000803e3d6000fd5b505050506040513d601f19601f82011682018060405250810190611274919061490c565b6112905760405162461bcd60e51b81526004016109b29061492e565b60006112ae6109d96001600080516020614cec83398151915261496c565b90506001600160a01b038116611479576112c6612562565b5083600b60008282546112d99190614b0e565b9091555030905060405163067db1b360e01b8152336004820152602481018690526001600160a01b03919091169063067db1b390604401600060405180830381600087803b15801561132a57600080fd5b505af115801561133e573d6000803e3d6000fd5b505060135460405163012b1f4560e71b815233935063958fa2809250611376916001600160a01b031690889088908890600401614b21565b600060405180830381600087803b15801561139057600080fd5b505af11580156113a4573d6000803e3d6000fd5b505050506113af3090565b6040516304d7c4cd60e21b8152336004820152602481018690526001600160a01b03919091169063135f1334906044016020604051808303816000875af11580156113fe573d6000803e3d6000fd5b505050506040513d601f19601f820116820180604052508101906114229190614999565b5083600b6000828254611435919061496c565b909155505060408051338152602081018690527fe756d016d0e956882a6de9c72a2fe06d7d488ecbe6d76628713077ea7930cff8910160405180910390a150505050565b60405163d7b8a62160e01b815281906001600160a01b0382169063d7b8a621906114a9903390329060040161497f565b602060405180830381865afa1580156114c6573d6000803e3d6000fd5b505050506040513d601f19601f820116820180604052508101906114ea919061490c565b8061155a5750604051636cffbed360e01b81523360048201526001600160a01b03821690636cffbed390602401602060405180830381865afa158015611534573d6000803e3d6000fd5b505050506040513d601f19601f82011682018060405250810190611558919061490c565b155b1561157857604051636a9657d360e01b815260040160405180910390fd5b611580612562565b5084600b60008282546115939190614b0e565b9091555030905060405163067db1b360e01b8152336004820152602481018790526001600160a01b03919091169063067db1b390604401600060405180830381600087803b1580156115e457600080fd5b505af11580156115f8573d6000803e3d6000fd5b505060135460405163012b1f4560e71b815233935063958fa2809250611630916001600160a01b031690899089908990600401614b21565b600060405180830381600087803b15801561164a57600080fd5b505af115801561165e573d6000803e3d6000fd5b505050506116693090565b6040516304d7c4cd60e21b8152336004820152602481018790526001600160a01b03919091169063135f1334906044016020604051808303816000875af11580156116b8573d6000803e3d6000fd5b505050506040513d601f19601f820116820180604052508101906116dc9190614999565b5084600b60008282546116ef919061496c565b909155505060408051338152602081018790527fe756d016d0e956882a6de9c72a2fe06d7d488ecbe6d76628713077ea7930cff8910160405180910390a150505b505050565b6000600d54600e54600c5461174a9190614b0e565b6117549190614b0e565b600b54306001600160a01b0316633b1d21a26040518163ffffffff1660e01b8152600401602060405180830381865afa158015611795573d6000803e3d6000fd5b505050506040513d601f19601f820116820180604052508101906117b99190614999565b6117c39190614b0e565b6117cd919061496c565b905090565b600043600954036117e45750600b5490565b6000306001600160a01b0316633b1d21a26040518163ffffffff1660e01b8152600401602060405180830381865afa158015611824573d6000803e3d6000fd5b505050506040513d601f19601f820116820180604052508101906118489190614999565b9050600061185643836134bd565b606001519392505050565b611869613bba565b6118855760405162461bcd60e51b81526004016109b2906149c8565b61188e81613d83565b50565b600061189b613bba565b806118b5575060035461010090046001600160a01b031633145b6118d15760405162461bcd60e51b81526004016109b2906149c8565b604051632210724360e11b8152738fba84867ba458e7c6e2c024d2de3d0b5c3ea1c26004820152738680ceabcb9b56913c519c069add6bc3494b7020908190634420e486906024016020604051808303816000875af1158015611938573d6000803e3d6000fd5b505050506040513d601f19601f8201168201806040525081019061195c9190614999565b91505090565b60408051601b80825261038082019092526060919060009082602082016103608036833701905050905063a9059cbb60e01b8161199e84614b69565b93508360ff16815181106119b4576119b4614b86565b6001600160e01b0319909216602092830291909101909101526323b872dd60e01b816119df84614b69565b93508360ff16815181106119f5576119f5614b86565b6001600160e01b031990921660209283029190910190910152636eb1769f60e11b81611a2084614b69565b93508360ff1681518110611a3657611a36614b86565b6001600160e01b03199092166020928302919091019091015263095ea7b360e01b81611a6184614b69565b93508360ff1681518110611a7757611a77614b86565b6001600160e01b0319909216602092830291909101909101526370a0823160e01b81611aa284614b69565b93508360ff1681518110611ab857611ab8614b86565b6001600160e01b0319909216602092830291909101909101526348ee9b6360e11b81611ae384614b69565b93508360ff1681518110611af957611af9614b86565b6001600160e01b03199092166020928302919091019091015263f2b3abbd60e01b81611b2484614b69565b93508360ff1681518110611b3a57611b3a614b86565b6001600160e01b031990921660209283029190910190910152630d05535360e21b81611b6584614b69565b93508360ff1681518110611b7b57611b7b614b86565b6001600160e01b031990921660209283029190910190910152635850c83b60e11b81611ba684614b69565b93508360ff1681518110611bbc57611bbc614b86565b6001600160e01b03199092166020928302919091019091015263fca7820b60e01b81611be784614b69565b93508360ff1681518110611bfd57611bfd614b86565b6001600160e01b031990921660209283029190910190910152630ae9d70b60e41b81611c2884614b69565b93508360ff1681518110611c3e57611c3e614b86565b6001600160e01b031990921660209283029190910190910152631f1f3b4560e31b81611c6984614b69565b93508360ff1681518110611c7f57611c7f614b86565b6001600160e01b03199092166020928302919091019091015263bd6d894d60e01b81611caa84614b69565b93508360ff1681518110611cc057611cc0614b86565b6001600160e01b03199092166020928302919091019091015263a6afed9560e01b81611ceb84614b69565b93508360ff1681518110611d0157611d01614b86565b6001600160e01b031990921660209283029190910190910152630e759dd360e31b81611d2c84614b69565b93508360ff1681518110611d4257611d42614b86565b6001600160e01b031990921660209283029190910190910152633af9e66960e01b81611d6d84614b69565b93508360ff1681518110611d8357611d83614b86565b6001600160e01b031990921660209283029190910190910152631592ca1b60e31b81611dae84614b69565b93508360ff1681518110611dc457611dc4614b86565b6001600160e01b03199092166020928302919091019091015263b1e23dbb60e01b81611def84614b69565b93508360ff1681518110611e0557611e05614b86565b6001600160e01b031990921660209283029190910190910152630d76ba9960e21b81611e3084614b69565b93508360ff1681518110611e4657611e46614b86565b6001600160e01b03199092166020928302919091019091015263cfcd4c0760e01b81611e7184614b69565b93508360ff1681518110611e8757611e87614b86565b6001600160e01b0319909216602092830291909101909101526325759ecd60e11b81611eb284614b69565b93508360ff1681518110611ec857611ec8614b86565b6001600160e01b031990921660209283029190910190910152633c3b4b8960e01b81611ef384614b69565b93508360ff1681518110611f0957611f09614b86565b6001600160e01b0319909216602092830291909101909101526361bfb47160e11b81611f3484614b69565b93508360ff1681518110611f4a57611f4a614b86565b6001600160e01b0319909216602092830291909101909101526305eff7ef60e21b81611f7584614b69565b93508360ff1681518110611f8b57611f8b614b86565b6001600160e01b031990921660209283029190910190910152633f8af10b60e11b81611fb684614b69565b93508360ff1681518110611fcc57611fcc614b86565b6001600160e01b031990921660209283029190910190910152637adbf97360e01b81611ff784614b69565b93508360ff168151811061200d5761200d614b86565b6001600160e01b0319909216602092830291909101909101526398fc329760e01b8161203884614b69565b93508360ff168151811061204e5761204e614b86565b6001600160e01b03199092166020928302919091019091015260ff821615610bb35760405162461bcd60e51b815260206004820152601c60248201527f7573652074686520636f7272656374206172726179206c656e6774680000000060448201526064016109b2565b6000806120c4816137c5565b60006120e26109d96001600080516020614cec83398151915261496c565b90506001600160a01b038116612299576120fa612562565b50436009541461211757612110600a6052613df4565b9250612293565b60001984036121265760065493505b60008060009054906101000a90046001600160a01b03166001600160a01b031663dd86fea16040518163ffffffff1660e01b8152600401602060405180830381865afa15801561217a573d6000803e3d6000fd5b505050506040513d601f19601f8201168201806040525081019061219e9190614999565b9050670de0b6b3a764000081866008546121b89190614b0e565b6121c29190614b0e565b11156121dc576121d460026053613df4565b935050612293565b8460065414612240576121ed613bba565b6121fd576121d460016051613df4565b600680549086905560408051828152602081018890527fcdd0b588250e1398549f79cfdb8217c186688822905d6715b0834ea1c865594a910160405180910390a1505b806007541461228c57600780549082905560408051828152602081018490527fedec4b9c99c2cdb231e7fd036f861e0445b015916700f41b9835f984cb9be4cb910160405180910390a1505b60005b9350505b5061253c565b60405163d7b8a62160e01b815281906001600160a01b0382169063d7b8a621906122c9903390329060040161497f565b602060405180830381865afa1580156122e6573d6000803e3d6000fd5b505050506040513d601f19601f8201168201806040525081019061230a919061490c565b8061237a5750604051636cffbed360e01b81523360048201526001600160a01b03821690636cffbed390602401602060405180830381865afa158015612354573d6000803e3d6000fd5b505050506040513d601f19601f82011682018060405250810190612378919061490c565b155b1561239857604051636a9657d360e01b815260040160405180910390fd5b6123a0612562565b5043600954146123bd576123b6600a6052613df4565b9350612539565b60001985036123cc5760065494505b60008060009054906101000a90046001600160a01b03166001600160a01b031663dd86fea16040518163ffffffff1660e01b8152600401602060405180830381865afa158015612420573d6000803e3d6000fd5b505050506040513d601f19601f820116820180604052508101906124449190614999565b9050670de0b6b3a7640000818760085461245e9190614b0e565b6124689190614b0e565b11156124825761247a60026053613df4565b945050612539565b85600654146124e657612493613bba565b6124a35761247a60016051613df4565b600680549087905560408051828152602081018990527fcdd0b588250e1398549f79cfdb8217c186688822905d6715b0834ea1c865594a910160405180910390a1505b806007541461253257600780549082905560408051828152602081018490527fedec4b9c99c2cdb231e7fd036f861e0445b015916700f41b9835f984cb9be4cb910160405180910390a1505b60005b9450505b50505b61254581613b3e565b50919050565b60028054610887906148a5565b60006117cd613e6d565b600080439050806009540361257857600061195c565b6000306001600160a01b0316633b1d21a26040518163ffffffff1660e01b8152600401602060405180830381865afa1580156125b8573d6000803e3d6000fd5b505050506040513d601f19601f820116820180604052508101906125dc9190614999565b905060006125ea83836134bd565b6009849055602081810151600a819055606080840151600b819055608080860151600c5560a0860151600e5560c0860151600d5560e0860151604080518a815296870191909152850193909352908301529192507f4dec04e750ca11537cabcd8a9eab06494de08da3735bc8871cd41250e190bc04910160405180910390a16000935050505090565b60008061267f816137c5565b60008054600354604051631beb2b9760e31b81526001600160a01b039283169363df595cb8936126c993610100900416913391309190356001600160e01b031916906004016148d9565b602060405180830381865afa1580156126e6573d6000803e3d6000fd5b505050506040513d601f19601f8201168201806040525081019061270a919061490c565b6127265760405162461bcd60e51b81526004016109b29061492e565b60006127446109d96001600080516020614cec83398151915261496c565b90506001600160a01b03811661276b57600061276233338888613889565b1492505061287e565b60405163d7b8a62160e01b815281906001600160a01b0382169063d7b8a6219061279b903390329060040161497f565b602060405180830381865afa1580156127b8573d6000803e3d6000fd5b505050506040513d601f19601f820116820180604052508101906127dc919061490c565b8061284c5750604051636cffbed360e01b81523360048201526001600160a01b03821690636cffbed390602401602060405180830381865afa158015612826573d6000803e3d6000fd5b505050506040513d601f19601f8201168201806040525081019061284a919061490c565b155b1561286a57604051636a9657d360e01b815260040160405180910390fd5b600061287833338989613889565b14935050505b61288781613b3e565b5092915050565b60606111478383613e8b565b6004546000906001600160a01b031663b8168816306001600160a01b0316633b1d21a26040518163ffffffff1660e01b8152600401602060405180830381865afa1580156128ec573d6000803e3d6000fd5b505050506040513d601f19601f820116820180604052508101906129109190614999565b600b54600e54600d54600c546129269190614b0e565b6129309190614b0e565b6006546007546008546129439190614b0e565b61294d9190614b0e565b6040516001600160e01b031960e087901b16815260048101949094526024840192909252604483015260648201526084015b602060405180830381865afa15801561299c573d6000803e3d6000fd5b505050506040513d601f19601f820116820180604052508101906117cd9190614999565b6129c8613bba565b6129e45760405162461bcd60e51b81526004016109b2906149c8565b601480546001600160a01b0319166001600160a01b0392909216919091179055565b6004546000906001600160a01b031663b816881683306001600160a01b0316633b1d21a26040518163ffffffff1660e01b8152600401602060405180830381865afa158015612a59573d6000803e3d6000fd5b505050506040513d601f19601f82011682018060405250810190612a7d9190614999565b612a879190614b0e565b600b54600e54600d54600c54612a9d9190614b0e565b612aa79190614b0e565b600654600754600854612aba9190614b0e565b612ac49190614b0e565b6040516001600160e01b031960e087901b1681526004810194909452602484019290925260448301526064820152608401602060405180830381865afa158015612b12573d6000803e3d6000fd5b505050506040513d601f19601f82011682018060405250810190610bb39190614999565b60006009544303612bc3576117cd600f54600554612b513090565b6001600160a01b0316633b1d21a26040518163ffffffff1660e01b8152600401602060405180830381865afa158015612b8e573d6000803e3d6000fd5b505050506040513d601f19601f82011682018060405250810190612bb29190614999565b600b54600c54600d54600e54613fd1565b6000306001600160a01b0316633b1d21a26040518163ffffffff1660e01b8152600401602060405180830381865afa158015612c03573d6000803e3d6000fd5b505050506040513d601f19601f82011682018060405250810190612c279190614999565b90506000612c3543836134bd565b9050612c5c816040015160055484846060015185608001518660c001518760a00151613fd1565b9250505090565b6001600160a01b0381166000908152601060205260408120548190819081908180612c8d88610bb9565b9150612c97612b36565b90506000989297509095509350915050565b600080306001600160a01b0316633b1d21a26040518163ffffffff1660e01b8152600401602060405180830381865afa158015612cea573d6000803e3d6000fd5b505050506040513d601f19601f82011682018060405250810190612d0e9190614999565b905082811015612d595760405162461bcd60e51b81526020600482015260166024820152750dac2e4d6cae840c6c2e6d040dcdee840cadcdeeaced60531b60448201526064016109b2565b6004546001600160a01b03166315f24053612d74858461496c565b85600b54612d829190614b0e565b600e54600d54600c54612d959190614b0e565b612d9f9190614b0e565b6040516001600160e01b031960e086901b168152600481019390935260248301919091526044820152606401611106565b600080612ddc816137c5565b6000612dfa6109d96001600080516020614cec83398151915261496c565b90506001600160a01b038116612f3a57612e12612562565b50612e1b613bba565b612e2b576121106001604d613df4565b4360095414612e4057612110600a604c613df4565b836001600160a01b0316632191f92a6040518163ffffffff1660e01b8152600401602060405180830381865afa158015612e7e573d6000803e3d6000fd5b505050506040513d601f19601f82011682018060405250810190612ea2919061490c565b612ed85760405162461bcd60e51b8152602060048201526007602482015266216e6f7449726d60c81b60448201526064016109b2565b600480546001600160a01b038681166001600160a01b03198316179092556040519116907fedffc32e068c7c95dfd4bdfd5c4d939a084d6b11c4199eac8436ed234d72f92690612f2b908390889061497f565b60405180910390a1600061228f565b60405163d7b8a62160e01b815281906001600160a01b0382169063d7b8a62190612f6a903390329060040161497f565b602060405180830381865afa158015612f87573d6000803e3d6000fd5b505050506040513d601f19601f82011682018060405250810190612fab919061490c565b8061301b5750604051636cffbed360e01b81523360048201526001600160a01b03821690636cffbed390602401602060405180830381865afa158015612ff5573d6000803e3d6000fd5b505050506040513d601f19601f82011682018060405250810190613019919061490c565b155b1561303957604051636a9657d360e01b815260040160405180910390fd5b613041612562565b5061304a613bba565b61305a576123b66001604d613df4565b436009541461306f576123b6600a604c613df4565b846001600160a01b0316632191f92a6040518163ffffffff1660e01b8152600401602060405180830381865afa1580156130ad573d6000803e3d6000fd5b505050506040513d601f19601f820116820180604052508101906130d1919061490c565b6131075760405162461bcd60e51b8152602060048201526007602482015266216e6f7449726d60c81b60448201526064016109b2565b600480546001600160a01b038781166001600160a01b03198316179092556040519116907fedffc32e068c7c95dfd4bdfd5c4d939a084d6b11c4199eac8436ed234d72f9269061315a908390899061497f565b60405180910390a16000612535565b6004546000906001600160a01b03166315f24053306001600160a01b0316633b1d21a26040518163ffffffff1660e01b8152600401602060405180830381865afa1580156131bb573d6000803e3d6000fd5b505050506040513d601f19601f820116820180604052508101906131df9190614999565b600b54600e54600d54600c546131f59190614b0e565b6131ff9190614b0e565b6040516001600160e01b031960e086901b16815260048101939093526024830191909152604482015260640161297f565b60008061323c816137c5565b600061325a6109d96001600080516020614cec83398151915261496c565b90506001600160a01b03811661331457613272612562565b5061327b613bba565b61328b5761211060016058613df4565b43600954146132a057612110600a6059613df4565b670de0b6b3a7640000600754600654866132ba9190614b0e565b6132c49190614b0e565b11156132d6576121106002605a613df4565b600880549085905560408051828152602081018790527faaa68312e2ea9d50e16af5068410ab56e1a1fd06037b1a35664812c30f8214609101612f2b565b60405163d7b8a62160e01b815281906001600160a01b0382169063d7b8a62190613344903390329060040161497f565b602060405180830381865afa158015613361573d6000803e3d6000fd5b505050506040513d601f19601f82011682018060405250810190613385919061490c565b806133f55750604051636cffbed360e01b81523360048201526001600160a01b03821690636cffbed390602401602060405180830381865afa1580156133cf573d6000803e3d6000fd5b505050506040513d601f19601f820116820180604052508101906133f3919061490c565b155b1561341357604051636a9657d360e01b815260040160405180910390fd5b61341b612562565b50613424613bba565b613434576123b660016058613df4565b4360095414613449576123b6600a6059613df4565b670de0b6b3a7640000600754600654876134639190614b0e565b61346d9190614b0e565b111561347f576123b66002605a613df4565b600880549086905560408051828152602081018890527faaa68312e2ea9d50e16af5068410ab56e1a1fd06037b1a35664812c30f821460910161315a565b61350560405180610100016040528060008152602001600081526020016000815260200160008152602001600081526020016000815260200160008152602001600081525090565b6000600e54600d546135179190614b0e565b600454600b54600c549293506000926001600160a01b03909216916315f24053918791613545908790614b0e565b6040516001600160e01b031960e086901b168152600481019390935260248301919091526044820152606401602060405180830381865afa15801561358e573d6000803e3d6000fd5b505050506040513d601f19601f820116820180604052508101906135b29190614999565b905065048c2739500081111561360957818411156136005760405162461bcd60e51b815260206004820152600b60248201526a21626f72726f775261746560a81b60448201526064016109b2565b5065048c273950005b60008061361887600954614113565b90925090506000826003811115613631576136316149b2565b1461366c5760405162461bcd60e51b815260206004820152600b60248201526a21626c6f636b44656c746160a81b60448201526064016109b2565b868552600f54604080870191909152805160208101909152838152600090613694908361413e565b90506136a281600b5461416f565b60e08701819052600b546136b591614b0e565b60608701526040805160208101909152600854815260e0870151600c546136dd929190614187565b60808701526040805160208101909152600754815260e0870151600e54613705929190614187565b60a08701526040805160208101909152600654815260e0870151600d5461372d929190614187565b60c0870152600a5461374190829080614187565b602087015250939695505050505050565b6000808360000361376857506000905080613790565b838302836137768683614b9c565b1461378957600260009250925050613790565b6000925090505b9250929050565b600080826000036137ae5750600190506000613790565b60006137ba8486614b9c565b915091509250929050565b600054600160a01b900460ff1661380b5760405162461bcd60e51b815260206004820152600a6024820152691c994b595b9d195c995960b21b60448201526064016109b2565b8061387957600360019054906101000a90046001600160a01b03166001600160a01b031663c90c20b16040518163ffffffff1660e01b8152600401600060405180830381600087803b15801561386057600080fd5b505af1158015613874573d6000803e3d6000fd5b505050505b506000805460ff60a01b19169055565b6003546040516317b9b84b60e31b81523060048201526001600160a01b03858116602483015284811660448301526064820184905260009283926101009091049091169063bdcdc258906084016020604051808303816000875af11580156138f5573d6000803e3d6000fd5b505050506040513d601f19601f820116820180604052508101906139199190614999565b905080156139365761392e6003605b836141b1565b9150506111e1565b836001600160a01b0316856001600160a01b03160361395b5761392e6002605c613df4565b6000856001600160a01b0316876001600160a01b03160361397f57506000196139a7565b506001600160a01b038086166000908152601160209081526040808320938a16835292905220545b6000806000806139b78589614113565b909450925060008460038111156139d0576139d06149b2565b146139ee576139e16009605c613df4565b96505050505050506111e1565b6001600160a01b038a16600090815260106020526040902054613a119089614113565b90945091506000846003811115613a2a57613a2a6149b2565b14613a3b576139e16009605d613df4565b6001600160a01b038916600090815260106020526040902054613a5e9089614253565b90945090506000846003811115613a7757613a776149b2565b14613a88576139e16009605e613df4565b6001600160a01b03808b16600090815260106020526040808220859055918b168152208190556000198514613ae0576001600160a01b03808b166000908152601160209081526040808320938f168352929052208390555b886001600160a01b03168a6001600160a01b03167fddf252ad1be2c89b69c2b068fc378daa952ba7f163c4a11628f55a4df523b3ef8a604051613b2591815260200190565b60405180910390a35060009a9950505050505050505050565b6000805460ff60a01b1916600160a01b1790558061188e57600360019054906101000a90046001600160a01b03166001600160a01b031663632e51426040518163ffffffff1660e01b8152600401600060405180830381600087803b158015613ba657600080fd5b505af1158015610fc5573d6000803e3d6000fd5b600080600360019054906101000a90046001600160a01b03169050806001600160a01b031663f851a4406040518163ffffffff1660e01b8152600401602060405180830381865afa158015613c13573d6000803e3d6000fd5b505050506040513d601f19601f82011682018060405250810190613c379190614bbe565b6001600160a01b0316336001600160a01b0316148015613cb45750806001600160a01b0316630a755ec26040518163ffffffff1660e01b8152600401602060405180830381865afa158015613c90573d6000803e3d6000fd5b505050506040513d601f19601f82011682018060405250810190613cb4919061490c565b8061195c57506000546001600160a01b03163314801561195c5750806001600160a01b031663cf6bfd2d6040518163ffffffff1660e01b8152600401602060405180830381865afa158015613d0d573d6000803e3d6000fd5b505050506040513d601f19601f8201168201806040525081019061195c919061490c565b600080600080613d418686614279565b90925090506000826003811115613d5a57613d5a6149b2565b14613d6b5750915060009050613790565b6000613d76826142f5565b9350935050509250929050565b6000613d8d613e6d565b9050613db0613dab6001600080516020614cec83398151915261496c565b839055565b816001600160a01b0316816001600160a01b03167f39206e6a16d6663e5a80ef081a32ce35bc314fe842cc614df23e92da300729df60405160405180910390a35050565b60007f45b96fe442630264581b197e84bbada861235052c5a1aadfff9ea4e40a969aa0836011811115613e2957613e296149b2565b836061811115613e3b57613e3b6149b2565b60408051928352602083019190915260009082015260600160405180910390a1826011811115611147576111476149b2565b60006117cd6109d96001600080516020614cec83398151915261496c565b60608167ffffffffffffffff811115613ea657613ea66149e8565b604051908082528060200260200182016040528015613ed957816020015b6060815260200190600190039081613ec45790505b50905060005b828110156128875760008030868685818110613efd57613efd614b86565b9050602002810190613f0f9190614bdb565b604051613f1d929190614c22565b600060405180830381855af49150503d8060008114613f58576040519150601f19603f3d011682016040523d82523d6000602084013e613f5d565b606091505b509150915081613fa957604481511015613f7657600080fd5b60048101905080806020019051810190613f909190614c32565b60405162461bcd60e51b81526004016109b29190614580565b80848481518110613fbc57613fbc614b86565b60209081029190910101525050600101613edf565b600087600003613fe2575085614108565b6000613ffa6040518060200160405280600081525090565b600061401b89898761400c8a8c614b0e565b6140169190614b0e565b61430d565b935090506000816003811115614033576140336149b2565b1461408e5760405162461bcd60e51b815260206004820152602560248201527f216164645468656e53756255496e74206f766572666c6f7720636865636b2066604482015264185a5b195960da1b60648201526084016109b2565b614098838c614360565b9250905060008160038111156140b0576140b06149b2565b146140fd5760405162461bcd60e51b815260206004820152601d60248201527f21676574457870206f766572666c6f7720636865636b206661696c656400000060448201526064016109b2565b505191506141089050565b979650505050505050565b600080838311614132576000614129848661496c565b91509150613790565b50600390506000613790565b604080516020810190915260008152604051806020016040528061416685600001518561442b565b90529392505050565b60008061417c848461413e565b90506111e1816142f5565b600080614194858561413e565b90506141a86141a2826142f5565b8461446d565b95945050505050565b60007f45b96fe442630264581b197e84bbada861235052c5a1aadfff9ea4e40a969aa08460118111156141e6576141e66149b2565b8460618111156141f8576141f86149b2565b604080519283526020830191909152810184905260600160405180910390a1600384601181111561422b5761422b6149b2565b1461424757836011811115614242576142426149b2565b6111e1565b6111e1826103e8614b0e565b60008083830184811061426b57600092509050613790565b600260009250925050613790565b60006142916040518060200160405280600081525090565b6000806142a2866000015186613752565b909250905060008260038111156142bb576142bb6149b2565b146142da57506040805160208101909152600081529092509050613790565b60408051602081019091529081526000969095509350505050565b8051600090610bb390670de0b6b3a764000090614b9c565b60008060008061431d8787614253565b90925090506000826003811115614336576143366149b2565b146143475750915060009050614358565b6143518186614113565b9350935050505b935093915050565b60006143786040518060200160405280600081525090565b60008061438d86670de0b6b3a7640000613752565b909250905060008260038111156143a6576143a66149b2565b146143c557506040805160208101909152600081529092509050613790565b6000806143d28388613797565b909250905060008260038111156143eb576143eb6149b2565b1461440e5781604051806020016040528060008152509550955050505050613790565b604080516020810190915290815260009890975095505050505050565b600061114783836040518060400160405280601781526020017f6d756c7469706c69636174696f6e206f766572666c6f770000000000000000008152506144a3565b60006111478383604051806040016040528060118152602001706164646974696f6e206f766572666c6f7760781b8152506144ff565b60008315806144b0575082155b156144bd57506000611147565b60006144c98486614cd4565b9050836144d68683614b9c565b1483906144f65760405162461bcd60e51b81526004016109b29190614580565b50949350505050565b60008061450c8486614b0e565b905082858210156144f65760405162461bcd60e51b81526004016109b29190614580565b60005b8381101561454b578181015183820152602001614533565b50506000910152565b6000815180845261456c816020860160208601614530565b601f01601f19169290920160200192915050565b6020815260006111476020830184614554565b6001600160a01b038116811461188e57600080fd5b600080604083850312156145bb57600080fd5b82356145c681614593565b946020939093013593505050565b6000602082840312156145e657600080fd5b813561114781614593565b60008060006060848603121561460657600080fd5b833561461181614593565b9250602084013561462181614593565b929592945050506040919091013590565b60008083601f84011261464457600080fd5b50813567ffffffffffffffff81111561465c57600080fd5b60208301915083602082850101111561379057600080fd5b6000806000806040858703121561468a57600080fd5b843567ffffffffffffffff808211156146a257600080fd5b6146ae88838901614632565b909650945060208701359150808211156146c757600080fd5b506146d487828801614632565b95989497509550505050565b6000602082840312156146f257600080fd5b5035919050565b60008060006040848603121561470e57600080fd5b83359250602084013567ffffffffffffffff81111561472c57600080fd5b61473886828701614632565b9497909650939450505050565b6020808252825182820181905260009190848201906040850190845b818110156147875783516001600160e01b03191683529284019291840191600101614761565b50909695505050505050565b600080602083850312156147a657600080fd5b823567ffffffffffffffff808211156147be57600080fd5b818501915085601f8301126147d257600080fd5b8135818111156147e157600080fd5b8660208260051b85010111156147f657600080fd5b60209290920196919550909350505050565b600060208083016020845280855180835260408601915060408160051b87010192506020870160005b8281101561485f57603f1988860301845261484d858351614554565b94509285019290850190600101614831565b5092979650505050505050565b6000806040838503121561487f57600080fd5b823561488a81614593565b9150602083013561489a81614593565b809150509250929050565b600181811c908216806148b957607f821691505b60208210810361254557634e487b7160e01b600052602260045260246000fd5b6001600160a01b0394851681529284166020840152921660408201526001600160e01b0319909116606082015260800190565b60006020828403121561491e57600080fd5b8151801515811461114757600080fd5b6020808252600e908201526d1b9bdd08185d5d1a1bdc9a5e995960921b604082015260600190565b634e487b7160e01b600052601160045260246000fd5b81810381811115610bb357610bb3614956565b6001600160a01b0392831681529116602082015260400190565b6000602082840312156149ab57600080fd5b5051919050565b634e487b7160e01b600052602160045260246000fd5b60208082526006908201526510b0b236b4b760d11b604082015260600190565b634e487b7160e01b600052604160045260246000fd5b601f821115611730576000816000526020600020601f850160051c81016020861015614a275750805b601f850160051c820191505b81811015614a4657828155600101614a33565b505050505050565b67ffffffffffffffff831115614a6657614a666149e8565b614a7a83614a7483546148a5565b836149fe565b6000601f841160018114614aae5760008515614a965750838201355b600019600387901b1c1916600186901b178355610fc5565b600083815260209020601f19861690835b82811015614adf5786850135825560209485019460019092019101614abf565b5086821015614afc5760001960f88860031b161c19848701351681555b505060018560011b0183555050505050565b80820180821115610bb357610bb3614956565b6001600160a01b0385168152602081018490526060604082018190528101829052818360808301376000818301608090810191909152601f909201601f191601019392505050565b600060ff821680614b7c57614b7c614956565b6000190192915050565b634e487b7160e01b600052603260045260246000fd5b600082614bb957634e487b7160e01b600052601260045260246000fd5b500490565b600060208284031215614bd057600080fd5b815161114781614593565b6000808335601e19843603018112614bf257600080fd5b83018035915067ffffffffffffffff821115614c0d57600080fd5b60200191503681900382131561379057600080fd5b8183823760009101908152919050565b600060208284031215614c4457600080fd5b815167ffffffffffffffff80821115614c5c57600080fd5b818401915084601f830112614c7057600080fd5b815181811115614c8257614c826149e8565b604051601f8201601f19908116603f01168101908382118183101715614caa57614caa6149e8565b81604052828152876020848701011115614cc357600080fd5b614108836020830160208801614530565b8082028115828204841417610bb357610bb361495656fefa373e1ee49299afe249e16436ea939a0edb26953bec7179d544957654b3ba20a2646970667358221220c7ee83190f0771eaadd3dab59a94ed2b811604be83584ac61dea71e48345efb464736f6c63430008160033",
  "devdoc": {
    "events": {
      "Failure(uint256,uint256,uint256)": {
        "details": "`error` corresponds to enum Error; `info` corresponds to enum FailureInfo, and `detail` is an arbitrary contract-specific code that enables us to report opaque error codes from upgradeable contracts.*"
      }
    },
    "kind": "dev",
    "methods": {
      "_getExtensionFunctions()": {
        "returns": {
          "_0": "a list of all the function selectors that this logic extension exposes"
        }
      },
      "_setAdminFee(uint256)": {
        "details": "Admin function to accrue interest and set a new admin fee",
        "returns": {
          "_0": "uint 0=success, otherwise a failure (see ErrorReporter.sol for details)"
        }
      },
      "_setInterestRateModel(address)": {
        "details": "Admin function to accrue interest and update the interest rate model",
        "params": {
          "newInterestRateModel": "the new interest rate model to use"
        },
        "returns": {
          "_0": "uint 0=success, otherwise a failure (see ErrorReporter.sol for details)"
        }
      },
      "_setNameAndSymbol(string,string)": {
        "details": "Admin function to update the cToken ERC20 name and symbol",
        "params": {
          "_name": "the new ERC20 token name to use",
          "_symbol": "the new ERC20 token symbol to use"
        }
      },
      "_setReserveFactor(uint256)": {
        "details": "Admin function to accrue interest and set a new reserve factor",
        "returns": {
          "_0": "uint 0=success, otherwise a failure (see ErrorReporter.sol for details)"
        }
      },
      "accrueInterest()": {
        "details": "This calculates interest accrued from the last checkpointed block   up to the current block and writes new checkpoint to storage."
      },
      "allowance(address,address)": {
        "params": {
          "owner": "The address of the account which owns the tokens to be spent",
          "spender": "The address of the account which may transfer tokens"
        },
        "returns": {
          "_0": "The number of tokens allowed to be spent (-1 means infinite)"
        }
      },
      "approve(address,uint256)": {
        "details": "This will overwrite the approval amount for `spender`  and is subject to issues noted [here](https://eips.ethereum.org/EIPS/eip-20#approve)",
        "params": {
          "amount": "The number of tokens that are approved (-1 means infinite)",
          "spender": "The address of the account which may transfer tokens"
        },
        "returns": {
          "_0": "Whether or not the approval succeeded"
        }
      },
      "balanceOf(address)": {
        "params": {
          "owner": "The address of the account to query"
        },
        "returns": {
          "_0": "The number of tokens owned by `owner`"
        }
      },
      "balanceOfUnderlying(address)": {
        "params": {
          "owner": "The address of the account to query"
        },
        "returns": {
          "_0": "The amount of underlying owned by `owner`"
        }
      },
      "borrowBalanceCurrent(address)": {
        "params": {
          "account": "The address whose balance should be calculated after recalculating the borrowIndex"
        },
        "returns": {
          "_0": "The calculated balance"
        }
      },
      "borrowRatePerBlock()": {
        "returns": {
          "_0": "The borrow interest rate per block, scaled by 1e18"
        }
      },
      "exchangeRateCurrent()": {
        "returns": {
          "_0": "Calculated exchange rate scaled by 1e18"
        }
      },
      "getAccountSnapshot(address)": {
        "details": "This is used by comptroller to more efficiently perform liquidity checks.",
        "params": {
          "account": "Address of the account to snapshot"
        },
        "returns": {
          "_0": "(possible error, token balance, borrow balance, exchange rate mantissa)"
        }
      },
      "supplyRatePerBlock()": {
        "returns": {
          "_0": "The supply interest rate per block, scaled by 1e18"
        }
      },
      "totalBorrowsCurrent()": {
        "returns": {
          "_0": "The total borrows with interest"
        }
      },
      "transfer(address,uint256)": {
        "params": {
          "amount": "The number of tokens to transfer",
          "dst": "The address of the destination account"
        },
        "returns": {
          "_0": "Whether or not the transfer succeeded"
        }
      },
      "transferFrom(address,address,uint256)": {
        "params": {
          "amount": "The number of tokens to transfer",
          "dst": "The address of the destination account",
          "src": "The address of the source account"
        },
        "returns": {
          "_0": "Whether or not the transfer succeeded"
        }
      }
    },
    "version": 1
  },
  "userdoc": {
    "events": {
      "AccrueInterest(uint256,uint256,uint256,uint256)": {
        "notice": "Event emitted when interest is accrued"
      },
      "Approval(address,address,uint256)": {
        "notice": "EIP20 Approval event"
      },
      "NewAdminFee(uint256,uint256)": {
        "notice": "Event emitted when the admin fee is changed"
      },
      "NewIonicFee(uint256,uint256)": {
        "notice": "Event emitted when the Ionic fee is changed"
      },
      "NewMarketInterestRateModel(address,address)": {
        "notice": "Event emitted when interestRateModel is changed"
      },
      "NewReserveFactor(uint256,uint256)": {
        "notice": "Event emitted when the reserve factor is changed"
      },
      "Transfer(address,address,uint256)": {
        "notice": "EIP20 Transfer event"
      }
    },
    "kind": "user",
    "methods": {
      "_setAdminFee(uint256)": {
        "notice": "accrues interest and sets a new admin fee for the protocol using _setAdminFeeFresh"
      },
      "_setInterestRateModel(address)": {
        "notice": "accrues interest and updates the interest rate model using _setInterestRateModelFresh"
      },
      "_setNameAndSymbol(string,string)": {
        "notice": "updates the cToken ERC20 name and symbol"
      },
      "_setReserveFactor(uint256)": {
        "notice": "accrues interest and sets a new reserve factor for the protocol using _setReserveFactorFresh"
      },
      "accrualBlockNumber()": {
        "notice": "Block number that interest was last accrued at"
      },
      "accrueInterest()": {
        "notice": "Applies accrued interest to total borrows and reserves"
      },
      "adminFeeMantissa()": {
        "notice": "Fraction of interest currently set aside for admin fees"
      },
      "allowance(address,address)": {
        "notice": "Get the current allowance from `owner` for `spender`"
      },
      "ap()": {
        "notice": "Addresses Provider"
      },
      "approve(address,uint256)": {
        "notice": "Approve `spender` to transfer up to `amount` from `src`"
      },
      "balanceOf(address)": {
        "notice": "Get the token balance of the `owner`"
      },
      "balanceOfUnderlying(address)": {
        "notice": "Get the underlying balance of the `owner`"
      },
      "borrowBalanceCurrent(address)": {
        "notice": "calculate the borrowIndex and the account's borrow balance using the fresh borrowIndex"
      },
      "borrowIndex()": {
        "notice": "Accumulator of the total earned interest rate since the opening of the market"
      },
      "borrowRatePerBlock()": {
        "notice": "Returns the current per-block borrow interest rate for this cToken"
      },
      "comptroller()": {
        "notice": "Contract which oversees inter-cToken operations"
      },
      "decimals()": {
        "notice": "EIP-20 token decimals for this token"
      },
      "exchangeRateCurrent()": {
        "notice": "Accrue interest then return the up-to-date exchange rate"
      },
      "getAccountSnapshot(address)": {
        "notice": "Get a snapshot of the account's balances, and the cached exchange rate"
      },
      "interestRateModel()": {
        "notice": "Model which tells what the current interest rate should be"
      },
      "ionicFeeMantissa()": {
        "notice": "Fraction of interest currently set aside for Ionic fees"
      },
      "name()": {
        "notice": "EIP-20 token name for this token"
      },
      "reserveFactorMantissa()": {
        "notice": "Fraction of interest currently set aside for reserves"
      },
      "supplyRatePerBlock()": {
        "notice": "Returns the current per-block supply interest rate for this cToken"
      },
      "symbol()": {
        "notice": "EIP-20 token symbol for this token"
      },
      "totalAdminFees()": {
        "notice": "Total amount of admin fees of the underlying held in this market"
      },
      "totalBorrows()": {
        "notice": "Total amount of outstanding borrows of the underlying in this market"
      },
      "totalBorrowsCurrent()": {
        "notice": "Returns the current total borrows plus accrued interest"
      },
      "totalIonicFees()": {
        "notice": "Total amount of Ionic fees of the underlying held in this market"
      },
      "totalReserves()": {
        "notice": "Total amount of reserves of the underlying held in this market"
      },
      "totalSupply()": {
        "notice": "Total number of tokens in circulation"
      },
      "transfer(address,uint256)": {
        "notice": "Transfer `amount` tokens from `msg.sender` to `dst`"
      },
      "transferFrom(address,address,uint256)": {
        "notice": "Transfer `amount` tokens from `src` to `dst`"
      },
      "underlying()": {
        "notice": "Underlying asset for this CToken"
      }
    },
    "version": 1
  },
  "storageLayout": {
    "storage": [
      {
        "astId": 17536,
        "contract": "contracts/compound/CTokenFirstExtension.sol:CTokenFirstExtension",
        "label": "ionicAdmin",
        "offset": 0,
        "slot": "0",
        "type": "t_address_payable"
      },
      {
        "astId": 17542,
        "contract": "contracts/compound/CTokenFirstExtension.sol:CTokenFirstExtension",
        "label": "_notEntered",
        "offset": 20,
        "slot": "0",
        "type": "t_bool"
      },
      {
        "astId": 17545,
        "contract": "contracts/compound/CTokenFirstExtension.sol:CTokenFirstExtension",
        "label": "name",
        "offset": 0,
        "slot": "1",
        "type": "t_string_storage"
      },
      {
        "astId": 17548,
        "contract": "contracts/compound/CTokenFirstExtension.sol:CTokenFirstExtension",
        "label": "symbol",
        "offset": 0,
        "slot": "2",
        "type": "t_string_storage"
      },
      {
        "astId": 17551,
        "contract": "contracts/compound/CTokenFirstExtension.sol:CTokenFirstExtension",
        "label": "decimals",
        "offset": 0,
        "slot": "3",
        "type": "t_uint8"
      },
      {
        "astId": 17561,
        "contract": "contracts/compound/CTokenFirstExtension.sol:CTokenFirstExtension",
        "label": "comptroller",
        "offset": 1,
        "slot": "3",
        "type": "t_contract(IonicComptroller)25043"
      },
      {
        "astId": 17565,
        "contract": "contracts/compound/CTokenFirstExtension.sol:CTokenFirstExtension",
        "label": "interestRateModel",
        "offset": 0,
        "slot": "4",
        "type": "t_contract(InterestRateModel)27704"
      },
      {
        "astId": 17567,
        "contract": "contracts/compound/CTokenFirstExtension.sol:CTokenFirstExtension",
        "label": "initialExchangeRateMantissa",
        "offset": 0,
        "slot": "5",
        "type": "t_uint256"
      },
      {
        "astId": 17570,
        "contract": "contracts/compound/CTokenFirstExtension.sol:CTokenFirstExtension",
        "label": "adminFeeMantissa",
        "offset": 0,
        "slot": "6",
        "type": "t_uint256"
      },
      {
        "astId": 17573,
        "contract": "contracts/compound/CTokenFirstExtension.sol:CTokenFirstExtension",
        "label": "ionicFeeMantissa",
        "offset": 0,
        "slot": "7",
        "type": "t_uint256"
      },
      {
        "astId": 17576,
        "contract": "contracts/compound/CTokenFirstExtension.sol:CTokenFirstExtension",
        "label": "reserveFactorMantissa",
        "offset": 0,
        "slot": "8",
        "type": "t_uint256"
      },
      {
        "astId": 17579,
        "contract": "contracts/compound/CTokenFirstExtension.sol:CTokenFirstExtension",
        "label": "accrualBlockNumber",
        "offset": 0,
        "slot": "9",
        "type": "t_uint256"
      },
      {
        "astId": 17582,
        "contract": "contracts/compound/CTokenFirstExtension.sol:CTokenFirstExtension",
        "label": "borrowIndex",
        "offset": 0,
        "slot": "10",
        "type": "t_uint256"
      },
      {
        "astId": 17585,
        "contract": "contracts/compound/CTokenFirstExtension.sol:CTokenFirstExtension",
        "label": "totalBorrows",
        "offset": 0,
        "slot": "11",
        "type": "t_uint256"
      },
      {
        "astId": 17588,
        "contract": "contracts/compound/CTokenFirstExtension.sol:CTokenFirstExtension",
        "label": "totalReserves",
        "offset": 0,
        "slot": "12",
        "type": "t_uint256"
      },
      {
        "astId": 17591,
        "contract": "contracts/compound/CTokenFirstExtension.sol:CTokenFirstExtension",
        "label": "totalAdminFees",
        "offset": 0,
        "slot": "13",
        "type": "t_uint256"
      },
      {
        "astId": 17594,
        "contract": "contracts/compound/CTokenFirstExtension.sol:CTokenFirstExtension",
        "label": "totalIonicFees",
        "offset": 0,
        "slot": "14",
        "type": "t_uint256"
      },
      {
        "astId": 17597,
        "contract": "contracts/compound/CTokenFirstExtension.sol:CTokenFirstExtension",
        "label": "totalSupply",
        "offset": 0,
        "slot": "15",
        "type": "t_uint256"
      },
      {
        "astId": 17601,
        "contract": "contracts/compound/CTokenFirstExtension.sol:CTokenFirstExtension",
        "label": "accountTokens",
        "offset": 0,
        "slot": "16",
        "type": "t_mapping(t_address,t_uint256)"
      },
      {
        "astId": 17607,
        "contract": "contracts/compound/CTokenFirstExtension.sol:CTokenFirstExtension",
        "label": "transferAllowances",
        "offset": 0,
        "slot": "17",
        "type": "t_mapping(t_address,t_mapping(t_address,t_uint256))"
      },
      {
        "astId": 17618,
        "contract": "contracts/compound/CTokenFirstExtension.sol:CTokenFirstExtension",
        "label": "accountBorrows",
        "offset": 0,
        "slot": "18",
        "type": "t_mapping(t_address,t_struct(BorrowSnapshot)17613_storage)"
      },
      {
        "astId": 17627,
        "contract": "contracts/compound/CTokenFirstExtension.sol:CTokenFirstExtension",
        "label": "underlying",
        "offset": 0,
        "slot": "19",
        "type": "t_address"
      },
      {
        "astId": 17631,
        "contract": "contracts/compound/CTokenFirstExtension.sol:CTokenFirstExtension",
        "label": "ap",
        "offset": 0,
        "slot": "20",
        "type": "t_contract(AddressesProvider)37330"
      }
    ],
    "types": {
      "t_address": {
        "encoding": "inplace",
        "label": "address",
        "numberOfBytes": "20"
      },
      "t_address_payable": {
        "encoding": "inplace",
        "label": "address payable",
        "numberOfBytes": "20"
      },
      "t_bool": {
        "encoding": "inplace",
        "label": "bool",
        "numberOfBytes": "1"
      },
      "t_contract(AddressesProvider)37330": {
        "encoding": "inplace",
        "label": "contract AddressesProvider",
        "numberOfBytes": "20"
      },
      "t_contract(InterestRateModel)27704": {
        "encoding": "inplace",
        "label": "contract InterestRateModel",
        "numberOfBytes": "20"
      },
      "t_contract(IonicComptroller)25043": {
        "encoding": "inplace",
        "label": "contract IonicComptroller",
        "numberOfBytes": "20"
      },
      "t_mapping(t_address,t_mapping(t_address,t_uint256))": {
        "encoding": "mapping",
        "key": "t_address",
        "label": "mapping(address => mapping(address => uint256))",
        "numberOfBytes": "32",
        "value": "t_mapping(t_address,t_uint256)"
      },
      "t_mapping(t_address,t_struct(BorrowSnapshot)17613_storage)": {
        "encoding": "mapping",
        "key": "t_address",
        "label": "mapping(address => struct CErc20Storage.BorrowSnapshot)",
        "numberOfBytes": "32",
        "value": "t_struct(BorrowSnapshot)17613_storage"
      },
      "t_mapping(t_address,t_uint256)": {
        "encoding": "mapping",
        "key": "t_address",
        "label": "mapping(address => uint256)",
        "numberOfBytes": "32",
        "value": "t_uint256"
      },
      "t_string_storage": {
        "encoding": "bytes",
        "label": "string",
        "numberOfBytes": "32"
      },
      "t_struct(BorrowSnapshot)17613_storage": {
        "encoding": "inplace",
        "label": "struct CErc20Storage.BorrowSnapshot",
        "members": [
          {
            "astId": 17610,
            "contract": "contracts/compound/CTokenFirstExtension.sol:CTokenFirstExtension",
            "label": "principal",
            "offset": 0,
            "slot": "0",
            "type": "t_uint256"
          },
          {
            "astId": 17612,
            "contract": "contracts/compound/CTokenFirstExtension.sol:CTokenFirstExtension",
            "label": "interestIndex",
            "offset": 0,
            "slot": "1",
            "type": "t_uint256"
          }
        ],
        "numberOfBytes": "64"
      },
      "t_uint256": {
        "encoding": "inplace",
        "label": "uint256",
        "numberOfBytes": "32"
      },
      "t_uint8": {
        "encoding": "inplace",
        "label": "uint8",
        "numberOfBytes": "1"
      }
    }
  }
}