{"abi":[{"type":"function","name":"_acceptOwner","inputs":[],"outputs":[],"stateMutability":"nonpayable"},{"type":"function","name":"_setPendingOwner","inputs":[{"name":"newPendingOwner","type":"address","internalType":"address"}],"outputs":[],"stateMutability":"nonpayable"},{"type":"function","name":"allowance","inputs":[{"name":"owner","type":"address","internalType":"address"},{"name":"spender","type":"address","internalType":"address"}],"outputs":[{"name":"","type":"uint256","internalType":"uint256"}],"stateMutability":"view"},{"type":"function","name":"approve","inputs":[{"name":"spender","type":"address","internalType":"address"},{"name":"amount","type":"uint256","internalType":"uint256"}],"outputs":[{"name":"","type":"bool","internalType":"bool"}],"stateMutability":"nonpayable"},{"type":"function","name":"asset","inputs":[],"outputs":[{"name":"","type":"address","internalType":"address"}],"stateMutability":"view"},{"type":"function","name":"balanceOf","inputs":[{"name":"account","type":"address","internalType":"address"}],"outputs":[{"name":"","type":"uint256","internalType":"uint256"}],"stateMutability":"view"},{"type":"function","name":"balanceOfUnderlying","inputs":[{"name":"account","type":"address","internalType":"address"}],"outputs":[{"name":"","type":"uint256","internalType":"uint256"}],"stateMutability":"view"},{"type":"function","name":"claimRewards","inputs":[],"outputs":[],"stateMutability":"nonpayable"},{"type":"function","name":"convertToAssets","inputs":[{"name":"shares","type":"uint256","internalType":"uint256"}],"outputs":[{"name":"assets","type":"uint256","internalType":"uint256"}],"stateMutability":"view"},{"type":"function","name":"convertToShares","inputs":[{"name":"assets","type":"uint256","internalType":"uint256"}],"outputs":[{"name":"shares","type":"uint256","internalType":"uint256"}],"stateMutability":"view"},{"type":"function","name":"decimals","inputs":[],"outputs":[{"name":"","type":"uint8","internalType":"uint8"}],"stateMutability":"view"},{"type":"function","name":"decreaseAllowance","inputs":[{"name":"spender","type":"address","internalType":"address"},{"name":"subtractedValue","type":"uint256","internalType":"uint256"}],"outputs":[{"name":"","type":"bool","internalType":"bool"}],"stateMutability":"nonpayable"},{"type":"function","name":"deposit","inputs":[{"name":"assets","type":"uint256","internalType":"uint256"},{"name":"receiver","type":"address","internalType":"address"}],"outputs":[{"name":"shares","type":"uint256","internalType":"uint256"}],"stateMutability":"nonpayable"},{"type":"function","name":"emergencyWithdrawAndPause","inputs":[],"outputs":[],"stateMutability":"nonpayable"},{"type":"function","name":"feeRecipient","inputs":[],"outputs":[{"name":"","type":"address","internalType":"address"}],"stateMutability":"view"},{"type":"function","name":"increaseAllowance","inputs":[{"name":"spender","type":"address","internalType":"address"},{"name":"addedValue","type":"uint256","internalType":"uint256"}],"outputs":[{"name":"","type":"bool","internalType":"bool"}],"stateMutability":"nonpayable"},{"type":"function","name":"initialize","inputs":[{"name":"_asset","type":"address","internalType":"contract ERC20Upgradeable"},{"name":"_poolId","type":"uint256","internalType":"uint256"},{"name":"_miniChef","type":"address","internalType":"contract IMiniChefV2"},{"name":"_rewardsDestination","type":"address","internalType":"address"},{"name":"_rewardTokens","type":"address[]","internalType":"contract ERC20Upgradeable[]"}],"outputs":[],"stateMutability":"nonpayable"},{"type":"function","name":"maxDeposit","inputs":[{"name":"","type":"address","internalType":"address"}],"outputs":[{"name":"","type":"uint256","internalType":"uint256"}],"stateMutability":"view"},{"type":"function","name":"maxMint","inputs":[{"name":"","type":"address","internalType":"address"}],"outputs":[{"name":"","type":"uint256","internalType":"uint256"}],"stateMutability":"view"},{"type":"function","name":"maxRedeem","inputs":[{"name":"owner","type":"address","internalType":"address"}],"outputs":[{"name":"","type":"uint256","internalType":"uint256"}],"stateMutability":"view"},{"type":"function","name":"maxWithdraw","inputs":[{"name":"owner","type":"address","internalType":"address"}],"outputs":[{"name":"","type":"uint256","internalType":"uint256"}],"stateMutability":"view"},{"type":"function","name":"miniChef","inputs":[],"outputs":[{"name":"","type":"address","internalType":"contract IMiniChefV2"}],"stateMutability":"view"},{"type":"function","name":"mint","inputs":[{"name":"shares","type":"uint256","internalType":"uint256"},{"name":"receiver","type":"address","internalType":"address"}],"outputs":[{"name":"assets","type":"uint256","internalType":"uint256"}],"stateMutability":"nonpayable"},{"type":"function","name":"name","inputs":[],"outputs":[{"name":"","type":"string","internalType":"string"}],"stateMutability":"view"},{"type":"function","name":"owner","inputs":[],"outputs":[{"name":"","type":"address","internalType":"address"}],"stateMutability":"view"},{"type":"function","name":"paused","inputs":[],"outputs":[{"name":"","type":"bool","internalType":"bool"}],"stateMutability":"view"},{"type":"function","name":"pendingOwner","inputs":[],"outputs":[{"name":"","type":"address","internalType":"address"}],"stateMutability":"view"},{"type":"function","name":"performanceFee","inputs":[],"outputs":[{"name":"","type":"uint256","internalType":"uint256"}],"stateMutability":"view"},{"type":"function","name":"poolId","inputs":[],"outputs":[{"name":"","type":"uint256","internalType":"uint256"}],"stateMutability":"view"},{"type":"function","name":"previewDeposit","inputs":[{"name":"assets","type":"uint256","internalType":"uint256"}],"outputs":[{"name":"","type":"uint256","internalType":"uint256"}],"stateMutability":"view"},{"type":"function","name":"previewMint","inputs":[{"name":"shares","type":"uint256","internalType":"uint256"}],"outputs":[{"name":"","type":"uint256","internalType":"uint256"}],"stateMutability":"view"},{"type":"function","name":"previewRedeem","inputs":[{"name":"shares","type":"uint256","internalType":"uint256"}],"outputs":[{"name":"","type":"uint256","internalType":"uint256"}],"stateMutability":"view"},{"type":"function","name":"previewWithdraw","inputs":[{"name":"assets","type":"uint256","internalType":"uint256"}],"outputs":[{"name":"","type":"uint256","internalType":"uint256"}],"stateMutability":"view"},{"type":"function","name":"redeem","inputs":[{"name":"shares","type":"uint256","internalType":"uint256"},{"name":"receiver","type":"address","internalType":"address"},{"name":"owner","type":"address","internalType":"address"}],"outputs":[{"name":"assets","type":"uint256","internalType":"uint256"}],"stateMutability":"nonpayable"},{"type":"function","name":"renounceOwnership","inputs":[],"outputs":[],"stateMutability":"nonpayable"},{"type":"function","name":"rewardDestination","inputs":[],"outputs":[{"name":"","type":"address","internalType":"address"}],"stateMutability":"view"},{"type":"function","name":"rewardTokens","inputs":[{"name":"","type":"uint256","internalType":"uint256"}],"outputs":[{"name":"","type":"address","internalType":"contract ERC20Upgradeable"}],"stateMutability":"view"},{"type":"function","name":"setRewardDestination","inputs":[{"name":"newDestination","type":"address","internalType":"address"}],"outputs":[],"stateMutability":"nonpayable"},{"type":"function","name":"shutdown","inputs":[{"name":"market","type":"address","internalType":"address"}],"outputs":[{"name":"","type":"uint256","internalType":"uint256"}],"stateMutability":"nonpayable"},{"type":"function","name":"symbol","inputs":[],"outputs":[{"name":"","type":"string","internalType":"string"}],"stateMutability":"view"},{"type":"function","name":"takePerformanceFee","inputs":[],"outputs":[],"stateMutability":"nonpayable"},{"type":"function","name":"totalAssets","inputs":[],"outputs":[{"name":"","type":"uint256","internalType":"uint256"}],"stateMutability":"view"},{"type":"function","name":"totalSupply","inputs":[],"outputs":[{"name":"","type":"uint256","internalType":"uint256"}],"stateMutability":"view"},{"type":"function","name":"transfer","inputs":[{"name":"to","type":"address","internalType":"address"},{"name":"amount","type":"uint256","internalType":"uint256"}],"outputs":[{"name":"","type":"bool","internalType":"bool"}],"stateMutability":"nonpayable"},{"type":"function","name":"transferFrom","inputs":[{"name":"from","type":"address","internalType":"address"},{"name":"to","type":"address","internalType":"address"},{"name":"amount","type":"uint256","internalType":"uint256"}],"outputs":[{"name":"","type":"bool","internalType":"bool"}],"stateMutability":"nonpayable"},{"type":"function","name":"transferOwnership","inputs":[{"name":"newOwner","type":"address","internalType":"address"}],"outputs":[],"stateMutability":"nonpayable"},{"type":"function","name":"unpause","inputs":[],"outputs":[],"stateMutability":"nonpayable"},{"type":"function","name":"updateFeeSettings","inputs":[{"name":"newPerformanceFee","type":"uint256","internalType":"uint256"},{"name":"newFeeRecipient","type":"address","internalType":"address"}],"outputs":[],"stateMutability":"nonpayable"},{"type":"function","name":"vaultShareHWM","inputs":[],"outputs":[{"name":"","type":"uint256","internalType":"uint256"}],"stateMutability":"view"},{"type":"function","name":"withdraw","inputs":[{"name":"assets","type":"uint256","internalType":"uint256"},{"name":"receiver","type":"address","internalType":"address"},{"name":"owner","type":"address","internalType":"address"}],"outputs":[{"name":"shares","type":"uint256","internalType":"uint256"}],"stateMutability":"nonpayable"},{"type":"function","name":"withdrawAccruedFees","inputs":[],"outputs":[],"stateMutability":"nonpayable"},{"type":"event","name":"Approval","inputs":[{"name":"owner","type":"address","indexed":true,"internalType":"address"},{"name":"spender","type":"address","indexed":true,"internalType":"address"},{"name":"value","type":"uint256","indexed":false,"internalType":"uint256"}],"anonymous":false},{"type":"event","name":"ClaimRewards","inputs":[{"name":"rewardToken","type":"address","indexed":true,"internalType":"address"},{"name":"amount","type":"uint256","indexed":false,"internalType":"uint256"}],"anonymous":false},{"type":"event","name":"Deposit","inputs":[{"name":"sender","type":"address","indexed":true,"internalType":"address"},{"name":"owner","type":"address","indexed":true,"internalType":"address"},{"name":"assets","type":"uint256","indexed":false,"internalType":"uint256"},{"name":"shares","type":"uint256","indexed":false,"internalType":"uint256"}],"anonymous":false},{"type":"event","name":"Initialized","inputs":[{"name":"version","type":"uint8","indexed":false,"internalType":"uint8"}],"anonymous":false},{"type":"event","name":"NewOwner","inputs":[{"name":"oldOwner","type":"address","indexed":false,"internalType":"address"},{"name":"newOwner","type":"address","indexed":false,"internalType":"address"}],"anonymous":false},{"type":"event","name":"NewPendingOwner","inputs":[{"name":"oldPendingOwner","type":"address","indexed":false,"internalType":"address"},{"name":"newPendingOwner","type":"address","indexed":false,"internalType":"address"}],"anonymous":false},{"type":"event","name":"OwnershipTransferred","inputs":[{"name":"previousOwner","type":"address","indexed":true,"internalType":"address"},{"name":"newOwner","type":"address","indexed":true,"internalType":"address"}],"anonymous":false},{"type":"event","name":"Paused","inputs":[{"name":"account","type":"address","indexed":false,"internalType":"address"}],"anonymous":false},{"type":"event","name":"RewardDestinationUpdate","inputs":[{"name":"newDestination","type":"address","indexed":true,"internalType":"address"}],"anonymous":false},{"type":"event","name":"Transfer","inputs":[{"name":"from","type":"address","indexed":true,"internalType":"address"},{"name":"to","type":"address","indexed":true,"internalType":"address"},{"name":"value","type":"uint256","indexed":false,"internalType":"uint256"}],"anonymous":false},{"type":"event","name":"Unpaused","inputs":[{"name":"account","type":"address","indexed":false,"internalType":"address"}],"anonymous":false},{"type":"event","name":"UpdatedFeeSettings","inputs":[{"name":"oldPerformanceFee","type":"uint256","indexed":false,"internalType":"uint256"},{"name":"newPerformanceFee","type":"uint256","indexed":false,"internalType":"uint256"},{"name":"oldFeeRecipient","type":"address","indexed":false,"internalType":"address"},{"name":"newFeeRecipient","type":"address","indexed":false,"internalType":"address"}],"anonymous":false},{"type":"event","name":"Withdraw","inputs":[{"name":"sender","type":"address","indexed":true,"internalType":"address"},{"name":"receiver","type":"address","indexed":true,"internalType":"address"},{"name":"owner","type":"address","indexed":true,"internalType":"address"},{"name":"assets","type":"uint256","indexed":false,"internalType":"uint256"},{"name":"shares","type":"uint256","indexed":false,"internalType":"uint256"}],"anonymous":false}],"bytecode":{"object":"0x608060405234801561001057600080fd5b50613510806100206000396000f3fe608060405234801561001057600080fd5b50600436106102f15760003560e01c80636e96dfd71161019d578063b460af94116100e9578063d905777e116100a2578063ef8b30f71161007c578063ef8b30f7146105c9578063f2fde38b1461063b578063fc4d33f91461064e578063fda45d861461065657600080fd5b8063d905777e14610602578063dd62ed3e14610615578063e30c39781461062857600080fd5b8063b460af941461058e578063ba087652146105a1578063c63d75b6146105b4578063c6e6f592146105c9578063cce2f3fb146105dc578063ce96cb77146105ef57600080fd5b80638da5cb5b11610156578063a457c2d711610130578063a457c2d71461054d578063a9059cbb14610560578063ada82c7d14610573578063b3d7f6b91461057b57600080fd5b80638da5cb5b1461052157806394bf804d1461053257806395d89b411461054557600080fd5b80636e96dfd7146104ae57806370a08231146104c1578063715018a6146104ea5780637bb7bed1146104f25780638457d06714610505578063877887821461051857600080fd5b8063372500ab1161025c5780634005760a116102155780634cdad506116101ef5780634cdad5061461032657806356f89ef9146104815780635c975abb146104895780636e553f651461049b57600080fd5b80634005760a14610447578063402d267d1461045b578063469048401461046e57600080fd5b8063372500ab146103e257806338d52e0f146103ea578063395093511461040f5780633af9e669146104225780633e0dc34e146104355780633f4ba83a1461043f57600080fd5b8063158d35ef116102ae578063158d35ef1461038457806318160ddd14610397578063211493c91461039f57806323b872dd146103a857806328357978146103bb578063313ce567146103c357600080fd5b806301e1d114146102f657806306fdde031461031157806307a2d13a14610326578063095ea7b3146103395780630a28a4771461035c57806310509aa91461036f575b600080fd5b6102fe610669565b6040519081526020015b60405180910390f35b610319610773565b6040516103089190612e1a565b6102fe610334366004612e4d565b610805565b61034c610347366004612e7b565b610818565b6040519015158152602001610308565b6102fe61036a366004612e4d565b610830565b61038261037d366004612ea7565b61083d565b005b610382610392366004612f1e565b610963565b6099546102fe565b6102fe60fb5481565b61034c6103b6366004613014565b610b1d565b610382610b43565b60c954600160a01b900460ff1660405160ff9091168152602001610308565b610382610c42565b60c9546001600160a01b03165b6040516001600160a01b039091168152602001610308565b61034c61041d366004612e7b565b610d5d565b6102fe610430366004613055565b610d7f565b6102fe6101005481565b610382610da1565b610101546103f7906001600160a01b031681565b6102fe610469366004613055565b610e9c565b60fd546103f7906001600160a01b031681565b610382610eba565b606554600160a01b900460ff1661034c565b6102fe6104a9366004612ea7565b611083565b6103826104bc366004613055565b61114c565b6102fe6104cf366004613055565b6001600160a01b031660009081526097602052604090205490565b6103826111b6565b6103f7610500366004612e4d565b6111f9565b610382610513366004613055565b611223565b6102fe60fc5481565b6033546001600160a01b03166103f7565b6102fe610540366004612ea7565b6112b6565b610319611333565b61034c61055b366004612e7b565b611342565b61034c61056e366004612e7b565b6113c8565b6103826113d6565b6102fe610589366004612e4d565b611403565b6102fe61059c366004613072565b611410565b6102fe6105af366004613072565b6115d9565b6102fe6105c2366004613055565b5060001990565b6102fe6105d7366004612e4d565b6117cd565b6102fe6105ea366004613055565b6117da565b6102fe6105fd366004613055565b6118e3565b6102fe610610366004613055565b611907565b6102fe6106233660046130b4565b611925565b6065546103f7906001600160a01b031681565b610382610649366004613055565b611950565b6103826119c1565b60fe546103f7906001600160a01b031681565b606554600090600160a01b900460ff16156106f557610686611ad5565b6040516370a0823160e01b81523060048201526001600160a01b0391909116906370a0823190602401602060405180830381865afa1580156106cc573d6000803e3d6000fd5b505050506040513d601f19601f820116820180604052508101906106f091906130e2565b905090565b61010154610100546040516393f1a40b60e01b815260048101919091523060248201526001600160a01b03909116906393f1a40b906044016040805180830381865afa158015610749573d6000803e3d6000fd5b505050506040513d601f19601f8201168201806040525081019061076d91906130fb565b51919050565b6060609a80546107829061314a565b80601f01602080910402602001604051908101604052809291908181526020018280546107ae9061314a565b80156107fb5780601f106107d0576101008083540402835291602001916107fb565b820191906000526020600020905b8154815290600101906020018083116107de57829003601f168201915b5050505050905090565b6000610812826000611ae9565b92915050565b600033610826818585611b20565b5060019392505050565b6000610812826001611c45565b610845611c77565b60fc5460fd5460408051928352602083018590526001600160a01b0391821690830152821660608201527fb3b62da5184b9e7e2f5d280014bb485d4444b66738025e5fb5738bbddcb6b8489060800160405180910390a160fc82905560fd546001600160a01b038281169116146109405760fd546001600160a01b0316156109225760fd546001600160a01b0316600081815260976020526040902054906108ed9082611cd3565b60fd54610916906001600160a01b031661090f6033546001600160a01b031690565b6000611b20565b6109208282611e04565b505b610940816109386033546001600160a01b031690565b600019611b20565b60fd80546001600160a01b0319166001600160a01b039290921691909117905550565b600054610100900460ff16158080156109835750600054600160ff909116105b8061099d5750303b15801561099d575060005460ff166001145b610a055760405162461bcd60e51b815260206004820152602e60248201527f496e697469616c697a61626c653a20636f6e747261637420697320616c72656160448201526d191e481a5b9a5d1a585b1a5e995960921b60648201526084015b60405180910390fd5b6000805460ff191660011790558015610a28576000805461ff0019166101001790555b610a3186611ec5565b610a3b83836120a5565b61010085905561010180546001600160a01b0319166001600160a01b0386811691821790925560405163095ea7b360e01b8152600481019190915260001960248201529087169063095ea7b3906044016020604051808303816000875af1158015610aaa573d6000803e3d6000fd5b505050506040513d601f19601f82011682018060405250810190610ace9190613185565b508015610b15576000805461ff0019169055604051600181527f7f26b83ff96e1f2b6a682f133852f6798a09c465da95921460cefb38474024989060200160405180910390a15b505050505050565b600033610b2b8582856120fa565b610b3685858561216e565b60019150505b9392505050565b610b4b611c77565b61010154610100546040516393f1a40b60e01b815260048101919091523060248201526000916001600160a01b0316906393f1a40b906044016040805180830381865afa158015610ba0573d6000803e3d6000fd5b505050506040513d601f19601f82011682018060405250810190610bc491906130fb565b51610101546101005460405163d1abb90760e01b81526004810191909152602481018390523060448201529192506001600160a01b03169063d1abb90790606401600060405180830381600087803b158015610c1f57600080fd5b505af1158015610c33573d6000803e3d6000fd5b50505050610c3f612319565b50565b610c4a612379565b60ff5460005b81811015610d5957600060ff8281548110610c6d57610c6d6131a7565b60009182526020822001546040516370a0823160e01b81523060048201526001600160a01b03909116925082906370a0823190602401602060405180830381865afa158015610cc0573d6000803e3d6000fd5b505050506040513d601f19601f82011682018060405250810190610ce491906130e2565b60fe54909150610d01906001600160a01b038481169116836123b6565b816001600160a01b03167f1f89f96333d3133000ee447473151fa9606543368f02271c9d95ae14f13bcc6782604051610d3c91815260200190565b60405180910390a250508080610d51906131d3565b915050610c50565b5050565b600033610826818585610d708383611925565b610d7a91906131ee565b611b20565b6001600160a01b03811660009081526097602052604081205461081290610805565b610da9611c77565b610db1612419565b61010154610100546001600160a01b0390911690638dbdbe6d90610dd3611ad5565b6040516370a0823160e01b81523060048201526001600160a01b0391909116906370a0823190602401602060405180830381865afa158015610e19573d6000803e3d6000fd5b505050506040513d601f19601f82011682018060405250810190610e3d91906130e2565b6040516001600160e01b031960e085901b168152600481019290925260248201523060448201526064015b600060405180830381600087803b158015610e8257600080fd5b505af1158015610e96573d6000803e3d6000fd5b50505050565b6000610ea6612455565b610eb1576000610812565b60001992915050565b610ec2611c77565b60fd546001600160a01b0316610f1a5760405162461bcd60e51b815260206004820152601d60248201527f66656520726563697069656e74206e6f7420696e697469616c697a656400000060448201526064016109fc565b6000610f24610669565b90506000610f9f610f33611ad5565b6001600160a01b031663313ce5676040518163ffffffff1660e01b8152600401602060405180830381865afa158015610f70573d6000803e3d6000fd5b505050506040513d601f19601f82011682018060405250810190610f949190613206565b61033490600a61330d565b905060fb548111610ff25760405162461bcd60e51b815260206004820152601b60248201527f736861726556616c756520213e207661756c74536861726548574d000000000060448201526064016109fc565b6000610ffd60995490565b905060006ec097ce7bc90715b34b9f10000000008260fb5485611020919061331c565b60fc5461102d9190613333565b6110379190613333565b6110419190613368565b60fd5490915061106f906001600160a01b031661106a84611062858961331c565b85919061246f565b611e04565b61107a610f33611ad5565b60fb5550505050565b600061108d61248e565b611096836117cd565b9050806110d35760405162461bcd60e51b815260206004820152600b60248201526a5a45524f5f53484152455360a81b60448201526064016109fc565b6110f23330856110e1611ad5565b6001600160a01b03169291906124db565b6110fc8282611e04565b60408051848152602081018390526001600160a01b0384169133917fdcbc1c05240f31ff3ad067ef1ee35ce4997762752e3a095284754544f4c709d7910160405180910390a36108128382612513565b611154611c77565b606580546001600160a01b038381166001600160a01b031983168117909355604080519190921680825260208201939093527fb3d55174552271a4f1aaf36b72f50381e892171636b3fb5447fe00e995e7a37b91015b60405180910390a15050565b6111be611c77565b60405162461bcd60e51b815260206004820152601060248201526f6e6f74207573656420616e796d6f726560801b60448201526064016109fc565b60ff818154811061120957600080fd5b6000918252602090912001546001600160a01b0316905081565b60fe546001600160a01b0316331461126c5760405162461bcd60e51b815260206004820152600c60248201526b15539055551213d49256915160a21b60448201526064016109fc565b60fe80546001600160a01b0319166001600160a01b0383169081179091556040517fb7e97ad603f12568684fc43c82127d953e94f3954cf36344cbbfa34d67b0b0cf90600090a250565b60006112c061248e565b6112c983611403565b90506112d93330836110e1611ad5565b6112e38284611e04565b60408051828152602081018590526001600160a01b0384169133917fdcbc1c05240f31ff3ad067ef1ee35ce4997762752e3a095284754544f4c709d7910160405180910390a36108128184612513565b6060609b80546107829061314a565b600033816113508286611925565b9050838110156113b05760405162461bcd60e51b815260206004820152602560248201527f45524332303a2064656372656173656420616c6c6f77616e63652062656c6f77604482015264207a65726f60d81b60648201526084016109fc565b6113bd8286868403611b20565b506001949350505050565b60003361082681858561216e565b6113de611c77565b60fd546001600160a01b0316600081815260976020526040902054610c3f91806115d9565b6000610812826001611ae9565b600061141b84610830565b9050336001600160a01b038316146114555760006114398333611925565b90506000198114611453576114538333610d7a858561331c565b505b606554600160a01b900460ff16611567576000611470611ad5565b6040516370a0823160e01b81523060048201526001600160a01b0391909116906370a0823190602401602060405180830381865afa1580156114b6573d6000803e3d6000fd5b505050506040513d601f19601f820116820180604052508101906114da91906130e2565b90506114e68583612581565b806114ef611ad5565b6040516370a0823160e01b81523060048201526001600160a01b0391909116906370a0823190602401602060405180830381865afa158015611535573d6000803e3d6000fd5b505050506040513d601f19601f8201168201806040525081019061155991906130e2565b611563919061331c565b9450505b6115718282611cd3565b60408051858152602081018390526001600160a01b03808516929086169133917ffbde797d201c681b91056529119e0b02407c7bb96a4a2c75c01fc9667232c8db910160405180910390a4610b3c83856115c9611ad5565b6001600160a01b031691906123b6565b6000336001600160a01b038316146116135760006115f78333611925565b90506000198114611611576116118333610d7a888561331c565b505b61161c84610805565b9050806116595760405162461bcd60e51b815260206004820152600b60248201526a5a45524f5f41535345545360a81b60448201526064016109fc565b606554600160a01b900460ff1661176b576000611674611ad5565b6040516370a0823160e01b81523060048201526001600160a01b0391909116906370a0823190602401602060405180830381865afa1580156116ba573d6000803e3d6000fd5b505050506040513d601f19601f820116820180604052508101906116de91906130e2565b90506116ea8286612581565b806116f3611ad5565b6040516370a0823160e01b81523060048201526001600160a01b0391909116906370a0823190602401602060405180830381865afa158015611739573d6000803e3d6000fd5b505050506040513d601f19601f8201168201806040525081019061175d91906130e2565b611767919061331c565b9150505b6117758285611cd3565b60408051828152602081018690526001600160a01b03808516929086169133917ffbde797d201c681b91056529119e0b02407c7bb96a4a2c75c01fc9667232c8db910160405180910390a4610b3c83826115c9611ad5565b6000610812826000611c45565b60006117e4611c77565b6117ec6125c5565b60006117f6611ad5565b6040516370a0823160e01b81523060048201529091506000906001600160a01b038316906370a0823190602401602060405180830381865afa158015611840573d6000803e3d6000fd5b505050506040513d601f19601f8201168201806040525081019061186491906130e2565b60405163a9059cbb60e01b81526001600160a01b038681166004830152602482018390529192509083169063a9059cbb906044016020604051808303816000875af11580156118b7573d6000803e3d6000fd5b505050506040513d601f19601f820116820180604052508101906118db9190613185565b509392505050565b6001600160a01b038116600090815260976020526040812054610812906000611ae9565b6001600160a01b038116600090815260976020526040812054610812565b6001600160a01b03918216600090815260986020908152604080832093909416825291909152205490565b611958611c77565b606554604080516001600160a01b03928316815291831660208301527fb3d55174552271a4f1aaf36b72f50381e892171636b3fb5447fe00e995e7a37b910160405180910390a1606580546001600160a01b0319166001600160a01b0392909216919091179055565b6065546001600160a01b03163314611a135760405162461bcd60e51b81526020600482015260156024820152743737ba103a3432903832b73234b7339037bbb732b960591b60448201526064016109fc565b6000611a276033546001600160a01b031690565b6065549091506001600160a01b0316611a3f81612615565b606580546001600160a01b0319169055604080516001600160a01b0384168152600060208201527f70aea8d848e8a90fb7661b227dc522eb6395c3dac71b63cb59edd5c9899b2364910160405180910390a1606554604080516001600160a01b03808516825290921660208301527fb3d55174552271a4f1aaf36b72f50381e892171636b3fb5447fe00e995e7a37b91016111aa565b60006106f060c9546001600160a01b031690565b600080611af560995490565b90508015611b1657611b11611b08610669565b85908386612667565b611b18565b835b949350505050565b6001600160a01b038316611b825760405162461bcd60e51b8152602060048201526024808201527f45524332303a20617070726f76652066726f6d20746865207a65726f206164646044820152637265737360e01b60648201526084016109fc565b6001600160a01b038216611be35760405162461bcd60e51b815260206004820152602260248201527f45524332303a20617070726f766520746f20746865207a65726f206164647265604482015261737360f01b60648201526084016109fc565b6001600160a01b0383811660008181526098602090815260408083209487168084529482529182902085905590518481527f8c5be1e5ebec7d5bd14f71427d1e84f3dd0314c0f7b2291e5b200ac8c7c3b92591015b60405180910390a3505050565b600080611c5160995490565b9050831580611c5e575080155b611b1657611b1181611c6e610669565b86919086612667565b6033546001600160a01b03163314611cd15760405162461bcd60e51b815260206004820181905260248201527f4f776e61626c653a2063616c6c6572206973206e6f7420746865206f776e657260448201526064016109fc565b565b6001600160a01b038216611d335760405162461bcd60e51b815260206004820152602160248201527f45524332303a206275726e2066726f6d20746865207a65726f206164647265736044820152607360f81b60648201526084016109fc565b6001600160a01b03821660009081526097602052604090205481811015611da75760405162461bcd60e51b815260206004820152602260248201527f45524332303a206275726e20616d6f756e7420657863656564732062616c616e604482015261636560f01b60648201526084016109fc565b6001600160a01b03831660008181526097602090815260408083208686039055609980548790039055518581529192917fddf252ad1be2c89b69c2b068fc378daa952ba7f163c4a11628f55a4df523b3ef9101611c38565b505050565b6001600160a01b038216611e5a5760405162461bcd60e51b815260206004820152601f60248201527f45524332303a206d696e7420746f20746865207a65726f20616464726573730060448201526064016109fc565b8060996000828254611e6c91906131ee565b90915550506001600160a01b0382166000818152609760209081526040808320805486019055518481527fddf252ad1be2c89b69c2b068fc378daa952ba7f163c4a11628f55a4df523b3ef910160405180910390a35050565b600054610100900460ff16611eec5760405162461bcd60e51b81526004016109fc9061338a565b611ef5336126c4565b611efd6126fc565b611f0561272b565b612017816001600160a01b03166306fdde036040518163ffffffff1660e01b8152600401600060405180830381865afa158015611f46573d6000803e3d6000fd5b505050506040513d6000823e601f3d908101601f19168201604052611f6e91908101906133d5565b604051602001611f7e9190613469565b604051602081830303815290604052826001600160a01b03166395d89b416040518163ffffffff1660e01b8152600401600060405180830381865afa158015611fcb573d6000803e3d6000fd5b505050506040513d6000823e601f3d908101601f19168201604052611ff391908101906133d5565b60405160200161200391906134a7565b604051602081830303815290604052612752565b61202081612783565b806001600160a01b031663313ce5676040518163ffffffff1660e01b8152600401602060405180830381865afa15801561205e573d6000803e3d6000fd5b505050506040513d601f19601f820116820180604052508101906120829190613206565b61208d90600a61330d565b60fb555060fd80546001600160a01b03191633179055565b600054610100900460ff166120cc5760405162461bcd60e51b81526004016109fc9061338a565b60fe80546001600160a01b0319166001600160a01b0384161790558051611dff9060ff906020840190612d00565b60006121068484611925565b90506000198114610e9657818110156121615760405162461bcd60e51b815260206004820152601d60248201527f45524332303a20696e73756666696369656e7420616c6c6f77616e636500000060448201526064016109fc565b610e968484848403611b20565b6001600160a01b0383166121d25760405162461bcd60e51b815260206004820152602560248201527f45524332303a207472616e736665722066726f6d20746865207a65726f206164604482015264647265737360d81b60648201526084016109fc565b6001600160a01b0382166122345760405162461bcd60e51b815260206004820152602360248201527f45524332303a207472616e7366657220746f20746865207a65726f206164647260448201526265737360e81b60648201526084016109fc565b6001600160a01b038316600090815260976020526040902054818110156122ac5760405162461bcd60e51b815260206004820152602660248201527f45524332303a207472616e7366657220616d6f756e7420657863656564732062604482015265616c616e636560d01b60648201526084016109fc565b6001600160a01b0380851660008181526097602052604080822086860390559286168082529083902080548601905591517fddf252ad1be2c89b69c2b068fc378daa952ba7f163c4a11628f55a4df523b3ef9061230c9086815260200190565b60405180910390a3610e96565b61232161248e565b6065805460ff60a01b1916600160a01b1790557f62e78cea01bee320cd4e420270b5ea74000d11b0c9f74754ebdbfc544b05a25861235c3390565b6040516001600160a01b03909116815260200160405180910390a1565b6101015461010054604051630c7e663b60e11b815260048101919091523060248201526001600160a01b03909116906318fccc7690604401610e68565b6040516001600160a01b038316602482015260448101829052611dff90849063a9059cbb60e01b906064015b60408051601f198184030181529190526020810180516001600160e01b03166001600160e01b0319909316929092179091526127b3565b6124216125c5565b6065805460ff60a01b191690557f5db9ee0a495bf2e6ff9c91a7834c1ba4fdd244a5e8aa4e537bd38aeae4b073aa3361235c565b600080612460610669565b11806106f05750506099541590565b82820281151584158583048514171661248757600080fd5b0492915050565b606554600160a01b900460ff1615611cd15760405162461bcd60e51b815260206004820152601060248201526f14185d5cd8589b194e881c185d5cd95960821b60448201526064016109fc565b6040516001600160a01b0380851660248301528316604482015260648101829052610e969085906323b872dd60e01b906084016123e2565b6101015461010054604051638dbdbe6d60e01b81526004810191909152602481018490523060448201526001600160a01b0390911690638dbdbe6d906064015b600060405180830381600087803b15801561256d57600080fd5b505af1158015610b15573d6000803e3d6000fd5b6101015461010054604051630ad58d2f60e01b81526004810191909152602481018490523060448201526001600160a01b0390911690630ad58d2f90606401612553565b606554600160a01b900460ff16611cd15760405162461bcd60e51b815260206004820152601460248201527314185d5cd8589b194e881b9bdd081c185d5cd95960621b60448201526064016109fc565b603380546001600160a01b038381166001600160a01b0319831681179093556040519116919082907f8be0079c531659141344cd1fd0a4f28419497f9722a3daafe3b4186f6b6457e090600090a35050565b600080612675868686612885565b9050600183600281111561268b5761268b6134d1565b1480156126a85750600084806126a3576126a3613352565b868809115b156126bb576126b86001826131ee565b90505b95945050505050565b600054610100900460ff166126eb5760405162461bcd60e51b81526004016109fc9061338a565b6126f3612935565b610c3f81612615565b600054610100900460ff166127235760405162461bcd60e51b81526004016109fc9061338a565b611cd1612964565b600054610100900460ff16611cd15760405162461bcd60e51b81526004016109fc9061338a565b600054610100900460ff166127795760405162461bcd60e51b81526004016109fc9061338a565b610d59828261299a565b600054610100900460ff166127aa5760405162461bcd60e51b81526004016109fc9061338a565b610c3f816129e8565b6000612808826040518060400160405280602081526020017f5361666545524332303a206c6f772d6c6576656c2063616c6c206661696c6564815250856001600160a01b0316612a6d9092919063ffffffff16565b805190915015611dff57808060200190518101906128269190613185565b611dff5760405162461bcd60e51b815260206004820152602a60248201527f5361666545524332303a204552433230206f7065726174696f6e20646964206e6044820152691bdd081cdd58d8d9595960b21b60648201526084016109fc565b6000808060001985870985870292508281108382030391505080600014156128c0578382816128b6576128b6613352565b0492505050610b3c565b8084116128cc57600080fd5b60008486880960026001871981018816978890046003810283188082028403028082028403028082028403028082028403028082028403029081029092039091026000889003889004909101858311909403939093029303949094049190911702949350505050565b600054610100900460ff1661295c5760405162461bcd60e51b81526004016109fc9061338a565b611cd1612a7c565b600054610100900460ff1661298b5760405162461bcd60e51b81526004016109fc9061338a565b6065805460ff60a01b19169055565b600054610100900460ff166129c15760405162461bcd60e51b81526004016109fc9061338a565b81516129d490609a906020850190612d65565b508051611dff90609b906020840190612d65565b600054610100900460ff16612a0f5760405162461bcd60e51b81526004016109fc9061338a565b600080612a1b83612aac565b9150915081612a2b576012612a2d565b805b60c980546001600160a01b039095166001600160a01b031960ff93909316600160a01b02929092166001600160a81b031990951694909417179092555050565b6060611b188484600085612b8a565b600054610100900460ff16612aa35760405162461bcd60e51b81526004016109fc9061338a565b611cd133612615565b60408051600481526024810182526020810180516001600160e01b031663313ce56760e01b17905290516000918291829182916001600160a01b03871691612af3916134e7565b6000604051808303816000865af19150503d8060008114612b30576040519150601f19603f3d011682016040523d82523d6000602084013e612b35565b606091505b5091509150818015612b4957506020815110155b15612b7d57600081806020019051810190612b6491906130e2565b905060ff8111612b7b576001969095509350505050565b505b5060009485945092505050565b606082471015612beb5760405162461bcd60e51b815260206004820152602660248201527f416464726573733a20696e73756666696369656e742062616c616e636520666f6044820152651c8818d85b1b60d21b60648201526084016109fc565b600080866001600160a01b03168587604051612c0791906134e7565b60006040518083038185875af1925050503d8060008114612c44576040519150601f19603f3d011682016040523d82523d6000602084013e612c49565b606091505b5091509150612c5a87838387612c65565b979650505050505050565b60608315612cd1578251612cca576001600160a01b0385163b612cca5760405162461bcd60e51b815260206004820152601d60248201527f416464726573733a2063616c6c20746f206e6f6e2d636f6e747261637400000060448201526064016109fc565b5081611b18565b611b188383815115612ce65781518083602001fd5b8060405162461bcd60e51b81526004016109fc9190612e1a565b828054828255906000526020600020908101928215612d55579160200282015b82811115612d5557825182546001600160a01b0319166001600160a01b03909116178255602090920191600190910190612d20565b50612d61929150612dd9565b5090565b828054612d719061314a565b90600052602060002090601f016020900481019282612d935760008555612d55565b82601f10612dac57805160ff1916838001178555612d55565b82800160010185558215612d55579182015b82811115612d55578251825591602001919060010190612dbe565b5b80821115612d615760008155600101612dda565b60005b83811015612e09578181015183820152602001612df1565b83811115610e965750506000910152565b6020815260008251806020840152612e39816040850160208701612dee565b601f01601f19169190910160400192915050565b600060208284031215612e5f57600080fd5b5035919050565b6001600160a01b0381168114610c3f57600080fd5b60008060408385031215612e8e57600080fd5b8235612e9981612e66565b946020939093013593505050565b60008060408385031215612eba57600080fd5b823591506020830135612ecc81612e66565b809150509250929050565b634e487b7160e01b600052604160045260246000fd5b604051601f8201601f1916810167ffffffffffffffff81118282101715612f1657612f16612ed7565b604052919050565b600080600080600060a08688031215612f3657600080fd5b8535612f4181612e66565b945060208681013594506040870135612f5981612e66565b93506060870135612f6981612e66565b9250608087013567ffffffffffffffff80821115612f8657600080fd5b818901915089601f830112612f9a57600080fd5b813581811115612fac57612fac612ed7565b8060051b9150612fbd848301612eed565b818152918301840191848101908c841115612fd757600080fd5b938501935b838510156130015784359250612ff183612e66565b8282529385019390850190612fdc565b8096505050505050509295509295909350565b60008060006060848603121561302957600080fd5b833561303481612e66565b9250602084013561304481612e66565b929592945050506040919091013590565b60006020828403121561306757600080fd5b8135610b3c81612e66565b60008060006060848603121561308757600080fd5b83359250602084013561309981612e66565b915060408401356130a981612e66565b809150509250925092565b600080604083850312156130c757600080fd5b82356130d281612e66565b91506020830135612ecc81612e66565b6000602082840312156130f457600080fd5b5051919050565b60006040828403121561310d57600080fd5b6040516040810181811067ffffffffffffffff8211171561313057613130612ed7565b604052825181526020928301519281019290925250919050565b600181811c9082168061315e57607f821691505b6020821081141561317f57634e487b7160e01b600052602260045260246000fd5b50919050565b60006020828403121561319757600080fd5b81518015158114610b3c57600080fd5b634e487b7160e01b600052603260045260246000fd5b634e487b7160e01b600052601160045260246000fd5b60006000198214156131e7576131e76131bd565b5060010190565b60008219821115613201576132016131bd565b500190565b60006020828403121561321857600080fd5b815160ff81168114610b3c57600080fd5b600181815b8085111561326457816000190482111561324a5761324a6131bd565b8085161561325757918102915b93841c939080029061322e565b509250929050565b60008261327b57506001610812565b8161328857506000610812565b816001811461329e57600281146132a8576132c4565b6001915050610812565b60ff8411156132b9576132b96131bd565b50506001821b610812565b5060208310610133831016604e8410600b84101617156132e7575081810a610812565b6132f18383613229565b8060001904821115613305576133056131bd565b029392505050565b6000610b3c60ff84168361326c565b60008282101561332e5761332e6131bd565b500390565b600081600019048311821515161561334d5761334d6131bd565b500290565b634e487b7160e01b600052601260045260246000fd5b60008261338557634e487b7160e01b600052601260045260246000fd5b500490565b6020808252602b908201527f496e697469616c697a61626c653a20636f6e7472616374206973206e6f74206960408201526a6e697469616c697a696e6760a81b606082015260800190565b6000602082840312156133e757600080fd5b815167ffffffffffffffff808211156133ff57600080fd5b818401915084601f83011261341357600080fd5b81518181111561342557613425612ed7565b613438601f8201601f1916602001612eed565b915080825285602082850101111561344f57600080fd5b613460816020840160208601612dee565b50949350505050565b65026b4b230b9960d51b81526000825161348a816006850160208701612dee565b650815985d5b1d60d21b6006939091019283015250600c01919050565b6136bb60f11b8152600082516134c4816002850160208701612dee565b9190910160020192915050565b634e487b7160e01b600052602160045260246000fd5b600082516134f9818460208701612dee565b919091019291505056fea164736f6c634300080a000a","linkReferences":{}},"methodIdentifiers":{"_acceptOwner()":"fc4d33f9","_setPendingOwner(address)":"6e96dfd7","allowance(address,address)":"dd62ed3e","approve(address,uint256)":"095ea7b3","asset()":"38d52e0f","balanceOf(address)":"70a08231","balanceOfUnderlying(address)":"3af9e669","claimRewards()":"372500ab","convertToAssets(uint256)":"07a2d13a","convertToShares(uint256)":"c6e6f592","decimals()":"313ce567","decreaseAllowance(address,uint256)":"a457c2d7","deposit(uint256,address)":"6e553f65","emergencyWithdrawAndPause()":"28357978","feeRecipient()":"46904840","increaseAllowance(address,uint256)":"39509351","initialize(address,uint256,address,address,address[])":"158d35ef","maxDeposit(address)":"402d267d","maxMint(address)":"c63d75b6","maxRedeem(address)":"d905777e","maxWithdraw(address)":"ce96cb77","miniChef()":"4005760a","mint(uint256,address)":"94bf804d","name()":"06fdde03","owner()":"8da5cb5b","paused()":"5c975abb","pendingOwner()":"e30c3978","performanceFee()":"87788782","poolId()":"3e0dc34e","previewDeposit(uint256)":"ef8b30f7","previewMint(uint256)":"b3d7f6b9","previewRedeem(uint256)":"4cdad506","previewWithdraw(uint256)":"0a28a477","redeem(uint256,address,address)":"ba087652","renounceOwnership()":"715018a6","rewardDestination()":"fda45d86","rewardTokens(uint256)":"7bb7bed1","setRewardDestination(address)":"8457d067","shutdown(address)":"cce2f3fb","symbol()":"95d89b41","takePerformanceFee()":"56f89ef9","totalAssets()":"01e1d114","totalSupply()":"18160ddd","transfer(address,uint256)":"a9059cbb","transferFrom(address,address,uint256)":"23b872dd","transferOwnership(address)":"f2fde38b","unpause()":"3f4ba83a","updateFeeSettings(uint256,address)":"10509aa9","vaultShareHWM()":"211493c9","withdraw(uint256,address,address)":"b460af94","withdrawAccruedFees()":"ada82c7d"},"id":169}