{
  "address": "0x21a455cEd9C79BC523D4E340c2B97521F4217817",
  "abi": [
    {
      "inputs": [
        {
          "internalType": "uint256",
          "name": "errCode",
          "type": "uint256"
        }
      ],
      "name": "ComptrollerError",
      "type": "error"
    },
    {
      "anonymous": false,
      "inputs": [
        {
          "indexed": false,
          "internalType": "uint8",
          "name": "version",
          "type": "uint8"
        }
      ],
      "name": "Initialized",
      "type": "event"
    },
    {
      "inputs": [],
      "name": "directory",
      "outputs": [
        {
          "internalType": "contract PoolDirectory",
          "name": "",
          "type": "address"
        }
      ],
      "stateMutability": "view",
      "type": "function"
    },
    {
      "inputs": [
        {
          "internalType": "contract ICErc20",
          "name": "asset",
          "type": "address"
        }
      ],
      "name": "getBorrowCapsDataForAsset",
      "outputs": [
        {
          "internalType": "address[]",
          "name": "collateral",
          "type": "address[]"
        },
        {
          "internalType": "uint256[]",
          "name": "borrowCapsPerCollateral",
          "type": "uint256[]"
        },
        {
          "internalType": "bool[]",
          "name": "collateralBlacklisted",
          "type": "bool[]"
        },
        {
          "internalType": "uint256",
          "name": "totalBorrowCap",
          "type": "uint256"
        },
        {
          "internalType": "uint256",
          "name": "nonWhitelistedTotalBorrows",
          "type": "uint256"
        }
      ],
      "stateMutability": "view",
      "type": "function"
    },
    {
      "inputs": [
        {
          "internalType": "contract ICErc20",
          "name": "asset",
          "type": "address"
        }
      ],
      "name": "getBorrowCapsForAsset",
      "outputs": [
        {
          "internalType": "address[]",
          "name": "collateral",
          "type": "address[]"
        },
        {
          "internalType": "uint256[]",
          "name": "borrowCapsPerCollateral",
          "type": "uint256[]"
        },
        {
          "internalType": "bool[]",
          "name": "collateralBlacklisted",
          "type": "bool[]"
        },
        {
          "internalType": "uint256",
          "name": "totalBorrowCap",
          "type": "uint256"
        }
      ],
      "stateMutability": "view",
      "type": "function"
    },
    {
      "inputs": [
        {
          "internalType": "address",
          "name": "user",
          "type": "address"
        },
        {
          "internalType": "contract IonicComptroller",
          "name": "pool",
          "type": "address"
        }
      ],
      "name": "getHealthFactor",
      "outputs": [
        {
          "internalType": "uint256",
          "name": "",
          "type": "uint256"
        }
      ],
      "stateMutability": "view",
      "type": "function"
    },
    {
      "inputs": [
        {
          "internalType": "contract IonicComptroller",
          "name": "pool",
          "type": "address"
        },
        {
          "internalType": "address",
          "name": "account",
          "type": "address"
        },
        {
          "internalType": "address",
          "name": "cTokenModify",
          "type": "address"
        },
        {
          "internalType": "uint256",
          "name": "redeemTokens",
          "type": "uint256"
        },
        {
          "internalType": "uint256",
          "name": "borrowAmount",
          "type": "uint256"
        },
        {
          "internalType": "uint256",
          "name": "repayAmount",
          "type": "uint256"
        }
      ],
      "name": "getHealthFactorHypothetical",
      "outputs": [
        {
          "internalType": "uint256",
          "name": "",
          "type": "uint256"
        }
      ],
      "stateMutability": "view",
      "type": "function"
    },
    {
      "inputs": [
        {
          "internalType": "contract IonicComptroller",
          "name": "comptroller",
          "type": "address"
        },
        {
          "internalType": "address",
          "name": "user",
          "type": "address"
        }
      ],
      "name": "getPoolAssetsByUser",
      "outputs": [
        {
          "components": [
            {
              "internalType": "address",
              "name": "cToken",
              "type": "address"
            },
            {
              "internalType": "address",
              "name": "underlyingToken",
              "type": "address"
            },
            {
              "internalType": "string",
              "name": "underlyingName",
              "type": "string"
            },
            {
              "internalType": "string",
              "name": "underlyingSymbol",
              "type": "string"
            },
            {
              "internalType": "uint256",
              "name": "underlyingDecimals",
              "type": "uint256"
            },
            {
              "internalType": "uint256",
              "name": "underlyingBalance",
              "type": "uint256"
            },
            {
              "internalType": "uint256",
              "name": "supplyRatePerBlock",
              "type": "uint256"
            },
            {
              "internalType": "uint256",
              "name": "borrowRatePerBlock",
              "type": "uint256"
            },
            {
              "internalType": "uint256",
              "name": "totalSupply",
              "type": "uint256"
            },
            {
              "internalType": "uint256",
              "name": "totalBorrow",
              "type": "uint256"
            },
            {
              "internalType": "uint256",
              "name": "supplyBalance",
              "type": "uint256"
            },
            {
              "internalType": "uint256",
              "name": "borrowBalance",
              "type": "uint256"
            },
            {
              "internalType": "uint256",
              "name": "liquidity",
              "type": "uint256"
            },
            {
              "internalType": "bool",
              "name": "membership",
              "type": "bool"
            },
            {
              "internalType": "uint256",
              "name": "exchangeRate",
              "type": "uint256"
            },
            {
              "internalType": "uint256",
              "name": "underlyingPrice",
              "type": "uint256"
            },
            {
              "internalType": "address",
              "name": "oracle",
              "type": "address"
            },
            {
              "internalType": "uint256",
              "name": "collateralFactor",
              "type": "uint256"
            },
            {
              "internalType": "uint256",
              "name": "reserveFactor",
              "type": "uint256"
            },
            {
              "internalType": "uint256",
              "name": "adminFee",
              "type": "uint256"
            },
            {
              "internalType": "uint256",
              "name": "ionicFee",
              "type": "uint256"
            },
            {
              "internalType": "bool",
              "name": "borrowGuardianPaused",
              "type": "bool"
            },
            {
              "internalType": "bool",
              "name": "mintGuardianPaused",
              "type": "bool"
            }
          ],
          "internalType": "struct PoolLens.PoolAsset[]",
          "name": "",
          "type": "tuple[]"
        }
      ],
      "stateMutability": "nonpayable",
      "type": "function"
    },
    {
      "inputs": [
        {
          "internalType": "contract IonicComptroller",
          "name": "comptroller",
          "type": "address"
        }
      ],
      "name": "getPoolAssetsWithData",
      "outputs": [
        {
          "components": [
            {
              "internalType": "address",
              "name": "cToken",
              "type": "address"
            },
            {
              "internalType": "address",
              "name": "underlyingToken",
              "type": "address"
            },
            {
              "internalType": "string",
              "name": "underlyingName",
              "type": "string"
            },
            {
              "internalType": "string",
              "name": "underlyingSymbol",
              "type": "string"
            },
            {
              "internalType": "uint256",
              "name": "underlyingDecimals",
              "type": "uint256"
            },
            {
              "internalType": "uint256",
              "name": "underlyingBalance",
              "type": "uint256"
            },
            {
              "internalType": "uint256",
              "name": "supplyRatePerBlock",
              "type": "uint256"
            },
            {
              "internalType": "uint256",
              "name": "borrowRatePerBlock",
              "type": "uint256"
            },
            {
              "internalType": "uint256",
              "name": "totalSupply",
              "type": "uint256"
            },
            {
              "internalType": "uint256",
              "name": "totalBorrow",
              "type": "uint256"
            },
            {
              "internalType": "uint256",
              "name": "supplyBalance",
              "type": "uint256"
            },
            {
              "internalType": "uint256",
              "name": "borrowBalance",
              "type": "uint256"
            },
            {
              "internalType": "uint256",
              "name": "liquidity",
              "type": "uint256"
            },
            {
              "internalType": "bool",
              "name": "membership",
              "type": "bool"
            },
            {
              "internalType": "uint256",
              "name": "exchangeRate",
              "type": "uint256"
            },
            {
              "internalType": "uint256",
              "name": "underlyingPrice",
              "type": "uint256"
            },
            {
              "internalType": "address",
              "name": "oracle",
              "type": "address"
            },
            {
              "internalType": "uint256",
              "name": "collateralFactor",
              "type": "uint256"
            },
            {
              "internalType": "uint256",
              "name": "reserveFactor",
              "type": "uint256"
            },
            {
              "internalType": "uint256",
              "name": "adminFee",
              "type": "uint256"
            },
            {
              "internalType": "uint256",
              "name": "ionicFee",
              "type": "uint256"
            },
            {
              "internalType": "bool",
              "name": "borrowGuardianPaused",
              "type": "bool"
            },
            {
              "internalType": "bool",
              "name": "mintGuardianPaused",
              "type": "bool"
            }
          ],
          "internalType": "struct PoolLens.PoolAsset[]",
          "name": "",
          "type": "tuple[]"
        }
      ],
      "stateMutability": "nonpayable",
      "type": "function"
    },
    {
      "inputs": [
        {
          "internalType": "contract IonicComptroller",
          "name": "comptroller",
          "type": "address"
        }
      ],
      "name": "getPoolSummary",
      "outputs": [
        {
          "internalType": "uint256",
          "name": "",
          "type": "uint256"
        },
        {
          "internalType": "uint256",
          "name": "",
          "type": "uint256"
        },
        {
          "internalType": "address[]",
          "name": "",
          "type": "address[]"
        },
        {
          "internalType": "string[]",
          "name": "",
          "type": "string[]"
        },
        {
          "internalType": "bool",
          "name": "",
          "type": "bool"
        }
      ],
      "stateMutability": "nonpayable",
      "type": "function"
    },
    {
      "inputs": [
        {
          "internalType": "address",
          "name": "account",
          "type": "address"
        }
      ],
      "name": "getPoolsByAccountWithData",
      "outputs": [
        {
          "internalType": "uint256[]",
          "name": "",
          "type": "uint256[]"
        },
        {
          "components": [
            {
              "internalType": "string",
              "name": "name",
              "type": "string"
            },
            {
              "internalType": "address",
              "name": "creator",
              "type": "address"
            },
            {
              "internalType": "address",
              "name": "comptroller",
              "type": "address"
            },
            {
              "internalType": "uint256",
              "name": "blockPosted",
              "type": "uint256"
            },
            {
              "internalType": "uint256",
              "name": "timestampPosted",
              "type": "uint256"
            }
          ],
          "internalType": "struct PoolDirectory.Pool[]",
          "name": "",
          "type": "tuple[]"
        },
        {
          "components": [
            {
              "internalType": "uint256",
              "name": "totalSupply",
              "type": "uint256"
            },
            {
              "internalType": "uint256",
              "name": "totalBorrow",
              "type": "uint256"
            },
            {
              "internalType": "address[]",
              "name": "underlyingTokens",
              "type": "address[]"
            },
            {
              "internalType": "string[]",
              "name": "underlyingSymbols",
              "type": "string[]"
            },
            {
              "internalType": "bool",
              "name": "whitelistedAdmin",
              "type": "bool"
            }
          ],
          "internalType": "struct PoolLens.IonicPoolData[]",
          "name": "",
          "type": "tuple[]"
        },
        {
          "internalType": "bool[]",
          "name": "",
          "type": "bool[]"
        }
      ],
      "stateMutability": "nonpayable",
      "type": "function"
    },
    {
      "inputs": [
        {
          "internalType": "address",
          "name": "user",
          "type": "address"
        }
      ],
      "name": "getPoolsOIonicrWithData",
      "outputs": [
        {
          "internalType": "uint256[]",
          "name": "",
          "type": "uint256[]"
        },
        {
          "components": [
            {
              "internalType": "string",
              "name": "name",
              "type": "string"
            },
            {
              "internalType": "address",
              "name": "creator",
              "type": "address"
            },
            {
              "internalType": "address",
              "name": "comptroller",
              "type": "address"
            },
            {
              "internalType": "uint256",
              "name": "blockPosted",
              "type": "uint256"
            },
            {
              "internalType": "uint256",
              "name": "timestampPosted",
              "type": "uint256"
            }
          ],
          "internalType": "struct PoolDirectory.Pool[]",
          "name": "",
          "type": "tuple[]"
        },
        {
          "components": [
            {
              "internalType": "uint256",
              "name": "totalSupply",
              "type": "uint256"
            },
            {
              "internalType": "uint256",
              "name": "totalBorrow",
              "type": "uint256"
            },
            {
              "internalType": "address[]",
              "name": "underlyingTokens",
              "type": "address[]"
            },
            {
              "internalType": "string[]",
              "name": "underlyingSymbols",
              "type": "string[]"
            },
            {
              "internalType": "bool",
              "name": "whitelistedAdmin",
              "type": "bool"
            }
          ],
          "internalType": "struct PoolLens.IonicPoolData[]",
          "name": "",
          "type": "tuple[]"
        },
        {
          "internalType": "bool[]",
          "name": "",
          "type": "bool[]"
        }
      ],
      "stateMutability": "nonpayable",
      "type": "function"
    },
    {
      "inputs": [
        {
          "internalType": "bool",
          "name": "whitelistedAdmin",
          "type": "bool"
        }
      ],
      "name": "getPublicPoolsByVerificationWithData",
      "outputs": [
        {
          "internalType": "uint256[]",
          "name": "",
          "type": "uint256[]"
        },
        {
          "components": [
            {
              "internalType": "string",
              "name": "name",
              "type": "string"
            },
            {
              "internalType": "address",
              "name": "creator",
              "type": "address"
            },
            {
              "internalType": "address",
              "name": "comptroller",
              "type": "address"
            },
            {
              "internalType": "uint256",
              "name": "blockPosted",
              "type": "uint256"
            },
            {
              "internalType": "uint256",
              "name": "timestampPosted",
              "type": "uint256"
            }
          ],
          "internalType": "struct PoolDirectory.Pool[]",
          "name": "",
          "type": "tuple[]"
        },
        {
          "components": [
            {
              "internalType": "uint256",
              "name": "totalSupply",
              "type": "uint256"
            },
            {
              "internalType": "uint256",
              "name": "totalBorrow",
              "type": "uint256"
            },
            {
              "internalType": "address[]",
              "name": "underlyingTokens",
              "type": "address[]"
            },
            {
              "internalType": "string[]",
              "name": "underlyingSymbols",
              "type": "string[]"
            },
            {
              "internalType": "bool",
              "name": "whitelistedAdmin",
              "type": "bool"
            }
          ],
          "internalType": "struct PoolLens.IonicPoolData[]",
          "name": "",
          "type": "tuple[]"
        },
        {
          "internalType": "bool[]",
          "name": "",
          "type": "bool[]"
        }
      ],
      "stateMutability": "nonpayable",
      "type": "function"
    },
    {
      "inputs": [],
      "name": "getPublicPoolsWithData",
      "outputs": [
        {
          "internalType": "uint256[]",
          "name": "",
          "type": "uint256[]"
        },
        {
          "components": [
            {
              "internalType": "string",
              "name": "name",
              "type": "string"
            },
            {
              "internalType": "address",
              "name": "creator",
              "type": "address"
            },
            {
              "internalType": "address",
              "name": "comptroller",
              "type": "address"
            },
            {
              "internalType": "uint256",
              "name": "blockPosted",
              "type": "uint256"
            },
            {
              "internalType": "uint256",
              "name": "timestampPosted",
              "type": "uint256"
            }
          ],
          "internalType": "struct PoolDirectory.Pool[]",
          "name": "",
          "type": "tuple[]"
        },
        {
          "components": [
            {
              "internalType": "uint256",
              "name": "totalSupply",
              "type": "uint256"
            },
            {
              "internalType": "uint256",
              "name": "totalBorrow",
              "type": "uint256"
            },
            {
              "internalType": "address[]",
              "name": "underlyingTokens",
              "type": "address[]"
            },
            {
              "internalType": "string[]",
              "name": "underlyingSymbols",
              "type": "string[]"
            },
            {
              "internalType": "bool",
              "name": "whitelistedAdmin",
              "type": "bool"
            }
          ],
          "internalType": "struct PoolLens.IonicPoolData[]",
          "name": "",
          "type": "tuple[]"
        },
        {
          "internalType": "bool[]",
          "name": "",
          "type": "bool[]"
        }
      ],
      "stateMutability": "nonpayable",
      "type": "function"
    },
    {
      "inputs": [
        {
          "internalType": "contract IonicComptroller",
          "name": "comptroller",
          "type": "address"
        }
      ],
      "name": "getSupplyCapsDataForPool",
      "outputs": [
        {
          "internalType": "address[]",
          "name": "",
          "type": "address[]"
        },
        {
          "internalType": "uint256[]",
          "name": "",
          "type": "uint256[]"
        },
        {
          "internalType": "uint256[]",
          "name": "",
          "type": "uint256[]"
        }
      ],
      "stateMutability": "view",
      "type": "function"
    },
    {
      "inputs": [
        {
          "internalType": "contract IonicComptroller",
          "name": "comptroller",
          "type": "address"
        }
      ],
      "name": "getSupplyCapsForPool",
      "outputs": [
        {
          "internalType": "address[]",
          "name": "",
          "type": "address[]"
        },
        {
          "internalType": "uint256[]",
          "name": "",
          "type": "uint256[]"
        }
      ],
      "stateMutability": "view",
      "type": "function"
    },
    {
      "inputs": [
        {
          "internalType": "address",
          "name": "account",
          "type": "address"
        }
      ],
      "name": "getWhitelistedPoolsByAccount",
      "outputs": [
        {
          "internalType": "uint256[]",
          "name": "",
          "type": "uint256[]"
        },
        {
          "components": [
            {
              "internalType": "string",
              "name": "name",
              "type": "string"
            },
            {
              "internalType": "address",
              "name": "creator",
              "type": "address"
            },
            {
              "internalType": "address",
              "name": "comptroller",
              "type": "address"
            },
            {
              "internalType": "uint256",
              "name": "blockPosted",
              "type": "uint256"
            },
            {
              "internalType": "uint256",
              "name": "timestampPosted",
              "type": "uint256"
            }
          ],
          "internalType": "struct PoolDirectory.Pool[]",
          "name": "",
          "type": "tuple[]"
        }
      ],
      "stateMutability": "view",
      "type": "function"
    },
    {
      "inputs": [
        {
          "internalType": "address",
          "name": "account",
          "type": "address"
        }
      ],
      "name": "getWhitelistedPoolsByAccountWithData",
      "outputs": [
        {
          "internalType": "uint256[]",
          "name": "",
          "type": "uint256[]"
        },
        {
          "components": [
            {
              "internalType": "string",
              "name": "name",
              "type": "string"
            },
            {
              "internalType": "address",
              "name": "creator",
              "type": "address"
            },
            {
              "internalType": "address",
              "name": "comptroller",
              "type": "address"
            },
            {
              "internalType": "uint256",
              "name": "blockPosted",
              "type": "uint256"
            },
            {
              "internalType": "uint256",
              "name": "timestampPosted",
              "type": "uint256"
            }
          ],
          "internalType": "struct PoolDirectory.Pool[]",
          "name": "",
          "type": "tuple[]"
        },
        {
          "components": [
            {
              "internalType": "uint256",
              "name": "totalSupply",
              "type": "uint256"
            },
            {
              "internalType": "uint256",
              "name": "totalBorrow",
              "type": "uint256"
            },
            {
              "internalType": "address[]",
              "name": "underlyingTokens",
              "type": "address[]"
            },
            {
              "internalType": "string[]",
              "name": "underlyingSymbols",
              "type": "string[]"
            },
            {
              "internalType": "bool",
              "name": "whitelistedAdmin",
              "type": "bool"
            }
          ],
          "internalType": "struct PoolLens.IonicPoolData[]",
          "name": "",
          "type": "tuple[]"
        },
        {
          "internalType": "bool[]",
          "name": "",
          "type": "bool[]"
        }
      ],
      "stateMutability": "nonpayable",
      "type": "function"
    },
    {
      "inputs": [
        {
          "internalType": "contract PoolDirectory",
          "name": "_directory",
          "type": "address"
        },
        {
          "internalType": "string",
          "name": "_name",
          "type": "string"
        },
        {
          "internalType": "string",
          "name": "_symbol",
          "type": "string"
        },
        {
          "internalType": "address[]",
          "name": "_hardcodedAddresses",
          "type": "address[]"
        },
        {
          "internalType": "string[]",
          "name": "_hardcodedNames",
          "type": "string[]"
        },
        {
          "internalType": "string[]",
          "name": "_hardcodedSymbols",
          "type": "string[]"
        },
        {
          "internalType": "string[]",
          "name": "_uniswapLPTokenNames",
          "type": "string[]"
        },
        {
          "internalType": "string[]",
          "name": "_uniswapLPTokenSymbols",
          "type": "string[]"
        },
        {
          "internalType": "string[]",
          "name": "_uniswapLPTokenDisplayNames",
          "type": "string[]"
        }
      ],
      "name": "initialize",
      "outputs": [],
      "stateMutability": "nonpayable",
      "type": "function"
    },
    {
      "inputs": [],
      "name": "name",
      "outputs": [
        {
          "internalType": "string",
          "name": "",
          "type": "string"
        }
      ],
      "stateMutability": "view",
      "type": "function"
    },
    {
      "inputs": [],
      "name": "symbol",
      "outputs": [
        {
          "internalType": "string",
          "name": "",
          "type": "string"
        }
      ],
      "stateMutability": "view",
      "type": "function"
    }
  ],
  "transactionHash": "0xa44ee19429e96ad525ae0cafaf5de44fbcfd81dd98e443c0cdf2c03aa7d02d52",
  "args": [],
  "numDeployments": 1,
  "solcInputHash": "2b4cc3f41c4b54f7d44c2bbc3c59dd24",
  "bytecode": "0x608060405234801561001057600080fd5b50614581806100206000396000f3fe608060405234801561001057600080fd5b50600436106101215760003560e01c806370733375116100ad578063c3530a6311610071578063c3530a63146102ac578063c41c2f24146102cd578063d0a164fb146102f8578063d64996e514610300578063ef88b53c1461031357600080fd5b8063707333751461022a578063798b97801461023d57806395d89b411461025e578063a079548714610266578063a505596a1461028857600080fd5b806327e16c1f116100f457806327e16c1f146101a85780633a1eb656146101bb57806351678684146101d057806357c89a7d146101f357806359d2fea61461020657600080fd5b806306fdde03146101265780630c5eb5a4146101445780631568683a146101645780631bb998ba14610187575b600080fd5b61012e610326565b60405161013b919061358e565b60405180910390f35b6101576101523660046135b9565b6103b4565b60405161013b91906135f2565b61017761017236600461377f565b61043c565b60405161013b9493929190613842565b61019a61019536600461388d565b61052f565b60405190815260200161013b565b6101576101b636600461377f565b610653565b6101ce6101c9366004613afe565b6106cb565b005b6101e36101de36600461377f565b610b3b565b60405161013b9493929190613d20565b61019a6102013660046135b9565b610bde565b61021961021436600461377f565b610bf7565b60405161013b959493929190613e00565b6101e361023836600461377f565b61135a565b61025061024b36600461377f565b61136c565b60405161013b929190613e46565b61012e61158f565b61027961027436600461377f565b61159c565b60405161013b93929190613e74565b61029b61029636600461377f565b61197c565b60405161013b959493929190613ead565b6102bf6102ba36600461377f565b611b68565b60405161013b929190613efb565b6005546102e0906001600160a01b031681565b6040516001600160a01b03909116815260200161013b565b6101e3611ed0565b6101e361030e366004613f2e565b611f75565b6101e361032136600461377f565b611fb5565b6001805461033390613f4b565b80601f016020809104026020016040519081016040528092919081815260200182805461035f90613f4b565b80156103ac5780601f10610381576101008083540402835291602001916103ac565b820191906000526020600020905b81548152906001019060200180831161038f57829003601f168201915b505050505081565b604051632aff3bff60e21b81526001600160a01b03828116600483015260609160009161043491869182169063abfceffc90602401600060405180830381865afa158015610406573d6000803e3d6000fd5b505050506040513d6000823e601f3d908101601f1916820160405261042e9190810190613f86565b85611ff5565b949350505050565b6060806060600080856001600160a01b0316635fe3b5676040518163ffffffff1660e01b8152600401602060405180830381865afa158015610482573d6000803e3d6000fd5b505050506040513d601f19601f820116820180604052508101906104a6919061401f565b90506104b28682612c8b565b60405163252c221960e11b81526001600160a01b038a81166004830152939850919650945090821690634a58443290602401602060405180830381865afa158015610501573d6000803e3d6000fd5b505050506040513d601f19601f82011682018060405250810190610525919061403c565b9150509193509193565b604051637e361b1160e01b81526001600160a01b03868116600483015285811660248301526044820185905260648201849052608482018390526000918291829182918291908c1690637e361b119060a401608060405180830381865afa15801561059e573d6000803e3d6000fd5b505050506040513d601f19601f820116820180604052508101906105c29190614055565b9350935093509350836000146105f35760405163255a0eef60e11b8152600481018590526024015b60405180910390fd5b801561062a5761060381846140a1565b61061584670de0b6b3a76400006140b9565b61061f91906140d8565b945050505050610649565b81831161063f57600019945050505050610649565b61060382846140fa565b9695505050505050565b60606106c582836001600160a01b031663b0772d0b6040518163ffffffff1660e01b8152600401600060405180830381865afa158015610697573d6000803e3d6000fd5b505050506040513d6000823e601f3d908101601f191682016040526106bf9190810190613f86565b33611ff5565b92915050565b600054610100900460ff16158080156106eb5750600054600160ff909116105b806107055750303b158015610705575060005460ff166001145b6107685760405162461bcd60e51b815260206004820152602e60248201527f496e697469616c697a61626c653a20636f6e747261637420697320616c72656160448201526d191e481a5b9a5d1a585b1a5e995960921b60648201526084016105ea565b6000805460ff19166001179055801561078b576000805461ff0019166101001790555b6001600160a01b038a166107fc5760405162461bcd60e51b815260206004820152603260248201527f506f6f6c4469726563746f727920696e7374616e63652063616e6e6f74206265604482015271103a3432903d32b9379030b2323932b9b99760711b60648201526084016105ea565b8551875114801561080e575084518751145b6108695760405162461bcd60e51b815260206004820152602660248201527f48617264636f64656420616464726573736573206c656e67746873206e6f742060448201526532b8bab0b61760d11b60648201526084016105ea565b8251845114801561087b575081518451145b6108d95760405162461bcd60e51b815260206004820152602960248201527f556e6973776170204c5020746f6b656e206e616d6573206c656e67746873206e60448201526837ba1032b8bab0b61760b91b60648201526084016105ea565b600580546001600160a01b0319166001600160a01b038c1617905588516109079060019060208c01906133ca565b50875161091b9060029060208b01906133ca565b5060005b87518110156109f957604051806040016040528088838151811061094557610945614111565b6020026020010151815260200187838151811061096457610964614111565b6020026020010151815250600360008a848151811061098557610985614111565b60200260200101516001600160a01b03166001600160a01b0316815260200190815260200160002060008201518160000190805190602001906109c99291906133ca565b5060208281015180516109e292600185019201906133ca565b5090505080806109f190614127565b91505061091f565b5060005b8451811015610ae85760046040518060600160405280878481518110610a2557610a25614111565b60200260200101518152602001868481518110610a4457610a44614111565b60200260200101518152602001858481518110610a6357610a63614111565b602090810291909101810151909152825460018101845560009384529281902082518051939460030290910192610a9d92849201906133ca565b506020828101518051610ab692600185019201906133ca565b5060408201518051610ad29160028401916020909101906133ca565b5050508080610ae090614127565b9150506109fd565b508015610b2f576000805461ff0019169055604051600181527f7f26b83ff96e1f2b6a682f133852f6798a09c465da95921460cefb38474024989060200160405180910390a15b50505050505050505050565b6005546040516351f6c8e360e11b81526001600160a01b03838116600483015260609283928392839260009283929091169063a3ed91c6906024015b600060405180830381865afa158015610b94573d6000803e3d6000fd5b505050506040513d6000823e601f3d908101601f19168201604052610bbc919081019061427c565b91509150600080610bcc83612f6e565b949a9399509750929550909350505050565b6000610bf0828460008060008061052f565b9392505050565b60008060608060008060009050600080886001600160a01b031663b0772d0b6040518163ffffffff1660e01b8152600401600060405180830381865afa158015610c45573d6000803e3d6000fd5b505050506040513d6000823e601f3d908101601f19168201604052610c6d9190810190613f86565b9050600081516001600160401b03811115610c8a57610c8a613902565b604051908082528060200260200182016040528015610cb3578160200160208202803683370190505b509050600082516001600160401b03811115610cd157610cd1613902565b604051908082528060200260200182016040528015610d0457816020015b6060815260200190600190039081610cef5790505b50905060008b6001600160a01b0316637dc0d1d06040518163ffffffff1660e01b8152600401602060405180830381865afa158015610d47573d6000803e3d6000fd5b505050506040513d601f19601f82011682018060405250810190610d6b919061401f565b905060005b8451811015611252576000858281518110610d8d57610d8d614111565b6020026020010151905060008e6001600160a01b0316638e8f294b836040518263ffffffff1660e01b8152600401610dd491906001600160a01b0391909116815260200190565b6040805180830381865afa158015610df0573d6000803e3d6000fd5b505050506040513d601f19601f82011682018060405250810190610e149190614342565b50905080610e23575050611240565b816001600160a01b031663a6afed956040518163ffffffff1660e01b81526004016020604051808303816000875af1158015610e63573d6000803e3d6000fd5b505050506040513d601f19601f82011682018060405250810190610e87919061403c565b506000826001600160a01b03166373acee986040518163ffffffff1660e01b8152600401602060405180830381865afa158015610ec8573d6000803e3d6000fd5b505050506040513d601f19601f82011682018060405250810190610eec919061403c565b90506000836001600160a01b0316639826394b6040518163ffffffff1660e01b8152600401602060405180830381865afa158015610f2e573d6000803e3d6000fd5b505050506040513d601f19601f82011682018060405250810190610f52919061403c565b846001600160a01b03166361feacff6040518163ffffffff1660e01b8152600401602060405180830381865afa158015610f90573d6000803e3d6000fd5b505050506040513d601f19601f82011682018060405250810190610fb4919061403c565b856001600160a01b0316638f840ddd6040518163ffffffff1660e01b8152600401602060405180830381865afa158015610ff2573d6000803e3d6000fd5b505050506040513d601f19601f82011682018060405250810190611016919061403c565b61102091906140a1565b61102a91906140a1565b82856001600160a01b0316633b1d21a26040518163ffffffff1660e01b8152600401602060405180830381865afa158015611069573d6000803e3d6000fd5b505050506040513d601f19601f8201168201806040525081019061108d919061403c565b61109791906140a1565b6110a191906140fa565b60405163fc57d4df60e01b81526001600160a01b03868116600483015291925060009188169063fc57d4df90602401602060405180830381865afa1580156110ed573d6000803e3d6000fd5b505050506040513d601f19601f82011682018060405250810190611111919061403c565b9050670de0b6b3a764000061112682856140b9565b61113091906140d8565b61113a908d6140a1565b9b50670de0b6b3a764000061114f82846140b9565b61115991906140d8565b611163908c6140a1565b9a50846001600160a01b0316636f307dc36040518163ffffffff1660e01b8152600401602060405180830381865afa1580156111a3573d6000803e3d6000fd5b505050506040513d601f19601f820116820180604052508101906111c7919061401f565b8987815181106111d9576111d9614111565b60200260200101906001600160a01b031690816001600160a01b03168152505061121b89878151811061120e5761120e614111565b6020026020010151613175565b905088878151811061122f5761122f614111565b602002602001018190525050505050505b8061124a81614127565b915050610d70565b506000600560009054906101000a90046001600160a01b03166001600160a01b03166343e20a1d8e6001600160a01b031663f851a4406040518163ffffffff1660e01b8152600401602060405180830381865afa1580156112b7573d6000803e3d6000fd5b505050506040513d601f19601f820116820180604052508101906112db919061401f565b6040516001600160e01b031960e084901b1681526001600160a01b039091166004820152602401602060405180830381865afa15801561131f573d6000803e3d6000fd5b505050506040513d601f19601f820116820180604052508101906113439190614370565b959d969c50929a5090985092965092945050505050565b606080606080600080610bbc87611b68565b6060806000836001600160a01b031663b0772d0b6040518163ffffffff1660e01b8152600401600060405180830381865afa1580156113af573d6000803e3d6000fd5b505050506040513d6000823e601f3d908101601f191682016040526113d79190810190613f86565b9050600081516001600160401b038111156113f4576113f4613902565b60405190808252806020026020018201604052801561141d578160200160208202803683370190505b509050600082516001600160401b0381111561143b5761143b613902565b604051908082528060200260200182016040528015611464578160200160208202803683370190505b50905060005b83518110156115835783818151811061148557611485614111565b602002602001015183828151811061149f5761149f614111565b60200260200101906001600160a01b031690816001600160a01b031681525050866001600160a01b03166302c3bcbb8483815181106114e0576114e0614111565b60200260200101516040518263ffffffff1660e01b815260040161151391906001600160a01b0391909116815260200190565b602060405180830381865afa158015611530573d6000803e3d6000fd5b505050506040513d601f19601f82011682018060405250810190611554919061403c565b82828151811061156657611566614111565b60209081029190910101528061157b81614127565b91505061146a565b50909590945092505050565b6002805461033390613f4b565b60608060606000846001600160a01b031663b0772d0b6040518163ffffffff1660e01b8152600401600060405180830381865afa1580156115e1573d6000803e3d6000fd5b505050506040513d6000823e601f3d908101601f191682016040526116099190810190613f86565b9050600081516001600160401b0381111561162657611626613902565b60405190808252806020026020018201604052801561164f578160200160208202803683370190505b509050600082516001600160401b0381111561166d5761166d613902565b604051908082528060200260200182016040528015611696578160200160208202803683370190505b509050600083516001600160401b038111156116b4576116b4613902565b6040519080825280602002602001820160405280156116dd578160200160208202803683370190505b50905060005b845181101561196d578481815181106116fe576116fe614111565b602002602001015184828151811061171857611718614111565b60200260200101906001600160a01b031690816001600160a01b031681525050886001600160a01b03166302c3bcbb85838151811061175957611759614111565b60200260200101516040518263ffffffff1660e01b815260040161178c91906001600160a01b0391909116815260200190565b602060405180830381865afa1580156117a9573d6000803e3d6000fd5b505050506040513d601f19601f820116820180604052508101906117cd919061403c565b8382815181106117df576117df614111565b60200260200101818152505060008582815181106117ff576117ff614111565b60200260200101516001600160a01b0316634aeb3d9a6040518163ffffffff1660e01b8152600401602060405180830381865afa158015611844573d6000803e3d6000fd5b505050506040513d601f19601f82011682018060405250810190611868919061403c565b905060008a6001600160a01b031663fb6243fa87858151811061188d5761188d614111565b60200260200101516040518263ffffffff1660e01b81526004016118c091906001600160a01b0391909116815260200190565b602060405180830381865afa1580156118dd573d6000803e3d6000fd5b505050506040513d601f19601f82011682018060405250810190611901919061403c565b905081811061192f57600084848151811061191e5761191e614111565b602002602001018181525050611958565b61193981836140fa565b84848151811061194b5761194b614111565b6020026020010181815250505b5050808061196590614127565b9150506116e3565b50919790965090945092505050565b60608060606000806000866001600160a01b0316635fe3b5676040518163ffffffff1660e01b8152600401602060405180830381865afa1580156119c4573d6000803e3d6000fd5b505050506040513d601f19601f820116820180604052508101906119e8919061401f565b90506119f48782612c8b565b60405163252c221960e11b81526001600160a01b038b81166004830152939950919750955090821690634a58443290602401602060405180830381865afa158015611a43573d6000803e3d6000fd5b505050506040513d601f19601f82011682018060405250810190611a67919061403c565b92506000876001600160a01b03166373acee986040518163ffffffff1660e01b8152600401602060405180830381865afa158015611aa9573d6000803e3d6000fd5b505050506040513d601f19601f82011682018060405250810190611acd919061403c565b604051631d3965af60e11b81526001600160a01b038a81166004830152919250600091841690633a72cb5e90602401602060405180830381865afa158015611b19573d6000803e3d6000fd5b505050506040513d601f19601f82011682018060405250810190611b3d919061403c565b9050818110611b4f5760009350611b5c565b611b5981836140fa565b93505b50505091939590929450565b6060806000600560009054906101000a90046001600160a01b03166001600160a01b0316638ec083546040518163ffffffff1660e01b8152600401600060405180830381865afa158015611bc0573d6000803e3d6000fd5b505050506040513d6000823e601f3d908101601f19168201604052611be8919081019061427c565b9150506000805b8251811015611cbc576000838281518110611c0c57611c0c614111565b6020026020010151604001519050806001600160a01b0316639b19251a886040518263ffffffff1660e01b8152600401611c5591906001600160a01b0391909116815260200190565b602060405180830381865afa158015611c72573d6000803e3d6000fd5b505050506040513d601f19601f82011682018060405250810190611c969190614370565b15611ca95782611ca581614127565b9350505b5080611cb481614127565b915050611bef565b506000816001600160401b03811115611cd757611cd7613902565b604051908082528060200260200182016040528015611d00578160200160208202803683370190505b5090506000826001600160401b03811115611d1d57611d1d613902565b604051908082528060200260200182016040528015611d9257816020015b611d7f6040518060a001604052806060815260200160006001600160a01b0316815260200160006001600160a01b0316815260200160008152602001600081525090565b815260200190600190039081611d3b5790505b5090506000805b8551811015611ec2576000868281518110611db657611db6614111565b6020026020010151604001519050806001600160a01b0316639b19251a8b6040518263ffffffff1660e01b8152600401611dff91906001600160a01b0391909116815260200190565b602060405180830381865afa158015611e1c573d6000803e3d6000fd5b505050506040513d601f19601f82011682018060405250810190611e409190614370565b15611eaf5781858481518110611e5857611e58614111565b602002602001018181525050868281518110611e7657611e76614111565b6020026020010151848481518110611e9057611e90614111565b60200260200101819052508280611ea690614127565b93505050611ec2565b5080611eba81614127565b915050611d99565b509197909650945050505050565b606080606080600080600560009054906101000a90046001600160a01b03166001600160a01b0316634ae26ea16040518163ffffffff1660e01b8152600401600060405180830381865afa158015611f2c573d6000803e3d6000fd5b505050506040513d6000823e601f3d908101601f19168201604052611f54919081019061427c565b91509150600080611f6483612f6e565b949993985096509294509092505050565b6005546040516310c51ddf60e11b8152821515600482015260609182918291829160009182916001600160a01b039091169063218a3bbe90602401610b77565b60055460405163f348960d60e01b81526001600160a01b03838116600483015260609283928392839260009283929091169063f348960d90602401610b77565b60606000805b84518110156120c4576000866001600160a01b0316638e8f294b87848151811061202757612027614111565b60200260200101516040518263ffffffff1660e01b815260040161205a91906001600160a01b0391909116815260200190565b6040805180830381865afa158015612076573d6000803e3d6000fd5b505050506040513d601f19601f8201168201806040525081019061209a9190614342565b50905080156120b157826120ad81614127565b9350505b50806120bc81614127565b915050611ffb565b506000816001600160401b038111156120df576120df613902565b60405190808252806020026020018201604052801561211857816020015b61210561344e565b8152602001906001900390816120fd5790505b509050600080876001600160a01b0316637dc0d1d06040518163ffffffff1660e01b8152600401602060405180830381865afa15801561215c573d6000803e3d6000fd5b505050506040513d601f19601f82011682018060405250810190612180919061401f565b905060005b8751811015612c7e576000808a6001600160a01b0316638e8f294b8b85815181106121b2576121b2614111565b60200260200101516040518263ffffffff1660e01b81526004016121e591906001600160a01b0391909116815260200190565b6040805180830381865afa158015612201573d6000803e3d6000fd5b505050506040513d601f19601f820116820180604052508101906122259190614342565b9150915081612235575050612c6c565b61223d61344e565b60008b858151811061225157612251614111565b6020908102919091018101516001600160a01b0381168085526040805163a6afed9560e01b81529051929450909263a6afed959260048084019382900301816000875af11580156122a6573d6000803e3d6000fd5b505050506040513d601f19601f820116820180604052508101906122ca919061403c565b50806001600160a01b0316636f307dc36040518163ffffffff1660e01b8152600401602060405180830381865afa158015612309573d6000803e3d6000fd5b505050506040513d601f19601f8201168201806040525081019061232d919061401f565b6001600160a01b03166020830181905261234681613175565b84604001856060018290528290525050806001600160a01b031663313ce5676040518163ffffffff1660e01b8152600401602060405180830381865afa158015612394573d6000803e3d6000fd5b505050506040513d601f19601f820116820180604052508101906123b8919061438d565b60ff1660808401526040516370a0823160e01b81526001600160a01b038d811660048301528216906370a0823190602401602060405180830381865afa158015612406573d6000803e3d6000fd5b505050506040513d601f19601f8201168201806040525081019061242a919061403c565b8360a0018181525050816001600160a01b031663ae9d70b06040518163ffffffff1660e01b8152600401602060405180830381865afa158015612471573d6000803e3d6000fd5b505050506040513d601f19601f82011682018060405250810190612495919061403c565b8360c0018181525050816001600160a01b031663f8f9da286040518163ffffffff1660e01b8152600401602060405180830381865afa1580156124dc573d6000803e3d6000fd5b505050506040513d601f19601f82011682018060405250810190612500919061403c565b8360e0018181525050816001600160a01b0316633b1d21a26040518163ffffffff1660e01b8152600401602060405180830381865afa158015612547573d6000803e3d6000fd5b505050506040513d601f19601f8201168201806040525081019061256b919061403c565b83610180018181525050816001600160a01b03166373acee986040518163ffffffff1660e01b8152600401602060405180830381865afa1580156125b3573d6000803e3d6000fd5b505050506040513d601f19601f820116820180604052508101906125d7919061403c565b83610120018181525050816001600160a01b0316639826394b6040518163ffffffff1660e01b8152600401602060405180830381865afa15801561261f573d6000803e3d6000fd5b505050506040513d601f19601f82011682018060405250810190612643919061403c565b826001600160a01b03166361feacff6040518163ffffffff1660e01b8152600401602060405180830381865afa158015612681573d6000803e3d6000fd5b505050506040513d601f19601f820116820180604052508101906126a5919061403c565b836001600160a01b0316638f840ddd6040518163ffffffff1660e01b8152600401602060405180830381865afa1580156126e3573d6000803e3d6000fd5b505050506040513d601f19601f82011682018060405250810190612707919061403c565b61271191906140a1565b61271b91906140a1565b83610120015184610180015161273191906140a1565b61273b91906140fa565b610100840152604051633af9e66960e01b81526001600160a01b038d81166004830152831690633af9e66990602401602060405180830381865afa158015612787573d6000803e3d6000fd5b505050506040513d601f19601f820116820180604052508101906127ab919061403c565b6101408401526040516305eff7ef60e21b81526001600160a01b038d811660048301528316906317bfdfbc90602401602060405180830381865afa1580156127f7573d6000803e3d6000fd5b505050506040513d601f19601f8201168201806040525081019061281b919061403c565b61016084015260405163929fe9a160e01b81526001600160a01b038d8116600483015283811660248301528f169063929fe9a190604401602060405180830381865afa15801561286f573d6000803e3d6000fd5b505050506040513d601f19601f820116820180604052508101906128939190614370565b15156101a08401526040805163bd6d894d60e01b815290516001600160a01b0384169163bd6d894d9160048083019260209291908290030181865afa1580156128e0573d6000803e3d6000fd5b505050506040513d601f19601f82011682018060405250810190612904919061403c565b6101c084015260208301516040516315d5220f60e31b81526001600160a01b0391821660048201529088169063aea9107890602401602060405180830381865afa158015612956573d6000803e3d6000fd5b505050506040513d601f19601f8201168201806040525081019061297a919061403c565b6101e08401526001600160a01b038781166102008501819052602085015160405163addd509960e01b8152921660048301529063addd509990602401602060405180830381865afa9250505080156129ef575060408051601f3d908101601f191682019092526129ec9181019061401f565b60015b6129f857612a08565b6001600160a01b03166102008401525b8383610220018181525050816001600160a01b031663173b99046040518163ffffffff1660e01b8152600401602060405180830381865afa158015612a51573d6000803e3d6000fd5b505050506040513d601f19601f82011682018060405250810190612a75919061403c565b83610240018181525050816001600160a01b0316638d02d9a16040518163ffffffff1660e01b8152600401602060405180830381865afa158015612abd573d6000803e3d6000fd5b505050506040513d601f19601f82011682018060405250810190612ae1919061403c565b83610260018181525050816001600160a01b031663c3bf11cd6040518163ffffffff1660e01b8152600401602060405180830381865afa158015612b29573d6000803e3d6000fd5b505050506040513d601f19601f82011682018060405250810190612b4d919061403c565b610280840152604051636d154ea560e01b81526001600160a01b0383811660048301528f1690636d154ea590602401602060405180830381865afa158015612b99573d6000803e3d6000fd5b505050506040513d601f19601f82011682018060405250810190612bbd9190614370565b15156102a084015260405163731f0c2b60e01b81526001600160a01b0383811660048301528f169063731f0c2b90602401602060405180830381865afa158015612c0b573d6000803e3d6000fd5b505050506040513d601f19601f82011682018060405250810190612c2f9190614370565b15156102c0840152885183908a908a908110612c4d57612c4d614111565b60200260200101819052508780612c6390614127565b98505050505050505b80612c7681614127565b915050612185565b5091979650505050505050565b60608060606000846001600160a01b031663b0772d0b6040518163ffffffff1660e01b8152600401600060405180830381865afa158015612cd0573d6000803e3d6000fd5b505050506040513d6000823e601f3d908101601f19168201604052612cf89190810190613f86565b905080516001600160401b03811115612d1357612d13613902565b604051908082528060200260200182016040528015612d3c578160200160208202803683370190505b50935080516001600160401b03811115612d5857612d58613902565b604051908082528060200260200182016040528015612d81578160200160208202803683370190505b50925080516001600160401b03811115612d9d57612d9d613902565b604051908082528060200260200182016040528015612dc6578160200160208202803683370190505b50915060005b8151811015612f65576000828281518110612de957612de9614111565b60200260200101519050876001600160a01b0316816001600160a01b031614612f525780868381518110612e1f57612e1f614111565b6001600160a01b03928316602091820292909201015260405163940cd6f160e01b8152898216600482015282821660248201529088169063940cd6f190604401602060405180830381865afa158015612e7c573d6000803e3d6000fd5b505050506040513d601f19601f82011682018060405250810190612ea0919061403c565b858381518110612eb257612eb2614111565b6020908102919091010152604051631c819e4360e01b81526001600160a01b0389811660048301528281166024830152881690631c819e4390604401602060405180830381865afa158015612f0b573d6000803e3d6000fd5b505050506040513d601f19601f82011682018060405250810190612f2f9190614370565b848381518110612f4157612f41614111565b911515602092830291909101909101525b5080612f5d81614127565b915050612dcc565b50509250925092565b606080600083516001600160401b03811115612f8c57612f8c613902565b604051908082528060200260200182016040528015612ff157816020015b612fde6040518060a00160405280600081526020016000815260200160608152602001606081526020016000151581525090565b815260200190600190039081612faa5790505b509050600084516001600160401b0381111561300f5761300f613902565b604051908082528060200260200182016040528015613038578160200160208202803683370190505b50905060005b855181101561316a57306001600160a01b03166359d2fea687838151811061306857613068614111565b6020026020010151604001516040518263ffffffff1660e01b815260040161309f91906001600160a01b0391909116815260200190565b6000604051808303816000875af19250505080156130df57506040513d6000823e601f3d908101601f191682016040526130dc919081019061442f565b60015b61310c5760018282815181106130f7576130f7614111565b91151560209283029190910190910152613158565b6040518060a0016040528086815260200185815260200184815260200183815260200182151581525088878151811061314757613147614111565b602002602001018190525050505050505b8061316281614127565b91505061303e565b509094909350915050565b6001600160a01b0381166000908152600360205260409020600101805460609182916131a090613f4b565b1590506132e6576001600160a01b03831660009081526003602052604090208054600182019082906131d190613f4b565b80601f01602080910402602001604051908101604052809291908181526020018280546131fd90613f4b565b801561324a5780601f1061321f5761010080835404028352916020019161324a565b820191906000526020600020905b81548152906001019060200180831161322d57829003601f168201915b5050505050915080805461325d90613f4b565b80601f016020809104026020016040519081016040528092919081815260200182805461328990613f4b565b80156132d65780601f106132ab576101008083540402835291602001916132d6565b820191906000526020600020905b8154815290600101906020018083116132b957829003601f168201915b5050505050905091509150915091565b60008390506000816001600160a01b03166306fdde036040518163ffffffff1660e01b8152600401600060405180830381865afa15801561332b573d6000803e3d6000fd5b505050506040513d6000823e601f3d908101601f191682016040526133539190810190614517565b90506000826001600160a01b03166395d89b416040518163ffffffff1660e01b8152600401600060405180830381865afa158015613395573d6000803e3d6000fd5b505050506040513d6000823e601f3d908101601f191682016040526133bd9190810190614517565b9196919550909350505050565b8280546133d690613f4b565b90600052602060002090601f0160209004810192826133f8576000855561343e565b82601f1061341157805160ff191683800117855561343e565b8280016001018555821561343e579182015b8281111561343e578251825591602001919060010190613423565b5061344a92915061351d565b5090565b604051806102e0016040528060006001600160a01b0316815260200160006001600160a01b031681526020016060815260200160608152602001600081526020016000815260200160008152602001600081526020016000815260200160008152602001600081526020016000815260200160008152602001600015158152602001600081526020016000815260200160006001600160a01b03168152602001600081526020016000815260200160008152602001600081526020016000151581526020016000151581525090565b5b8082111561344a576000815560010161351e565b60005b8381101561354d578181015183820152602001613535565b8381111561355c576000848401525b50505050565b6000815180845261357a816020860160208601613532565b601f01601f19169290920160200192915050565b602081526000610bf06020830184613562565b6001600160a01b03811681146135b657600080fd5b50565b600080604083850312156135cc57600080fd5b82356135d7816135a1565b915060208301356135e7816135a1565b809150509250929050565b60006020808301818452808551808352604092508286019150828160051b87010184880160005b8381101561377157888303603f19018552815180516001600160a01b031684526102e0818901516001600160a01b038116868b01525087820151818987015261366482870182613562565b9150506060808301518683038288015261367e8382613562565b6080858101519089015260a0808601519089015260c0808601519089015260e08086015190890152610100808601519089015261012080860151908901526101408086015190890152610160808601519089015261018080860151908901526101a0808601511515908901526101c080860151908901526101e08086015190890152610200808601516001600160a01b03169089015261022080860151908901526102408086015190890152610260808601519089015261028080860151908901526102a0808601511515908901526102c094850151151594909701939093525050509386019390860190600101613619565b509098975050505050505050565b60006020828403121561379157600080fd5b8135610bf0816135a1565b600081518084526020808501945080840160005b838110156137d55781516001600160a01b0316875295820195908201906001016137b0565b509495945050505050565b600081518084526020808501945080840160005b838110156137d5578151875295820195908201906001016137f4565b600081518084526020808501945080840160005b838110156137d5578151151587529582019590820190600101613824565b608081526000613855608083018761379c565b828103602084015261386781876137e0565b9050828103604084015261387b8186613810565b91505082606083015295945050505050565b60008060008060008060c087890312156138a657600080fd5b86356138b1816135a1565b955060208701356138c1816135a1565b945060408701356138d1816135a1565b959894975094956060810135955060808101359460a0909101359350915050565b80356138fd816135a1565b919050565b634e487b7160e01b600052604160045260246000fd5b60405160a081016001600160401b038111828210171561393a5761393a613902565b60405290565b604051601f8201601f191681016001600160401b038111828210171561396857613968613902565b604052919050565b60006001600160401b0382111561398957613989613902565b50601f01601f191660200190565b600082601f8301126139a857600080fd5b81356139bb6139b682613970565b613940565b8181528460208386010111156139d057600080fd5b816020850160208301376000918101602001919091529392505050565b60006001600160401b03821115613a0657613a06613902565b5060051b60200190565b600082601f830112613a2157600080fd5b81356020613a316139b6836139ed565b82815260059290921b84018101918181019086841115613a5057600080fd5b8286015b84811015613a74578035613a67816135a1565b8352918301918301613a54565b509695505050505050565b600082601f830112613a9057600080fd5b81356020613aa06139b6836139ed565b82815260059290921b84018101918181019086841115613abf57600080fd5b8286015b84811015613a745780356001600160401b03811115613ae25760008081fd5b613af08986838b0101613997565b845250918301918301613ac3565b60008060008060008060008060006101208a8c031215613b1d57600080fd5b613b268a6138f2565b985060208a01356001600160401b0380821115613b4257600080fd5b613b4e8d838e01613997565b995060408c0135915080821115613b6457600080fd5b613b708d838e01613997565b985060608c0135915080821115613b8657600080fd5b613b928d838e01613a10565b975060808c0135915080821115613ba857600080fd5b613bb48d838e01613a7f565b965060a08c0135915080821115613bca57600080fd5b613bd68d838e01613a7f565b955060c08c0135915080821115613bec57600080fd5b613bf88d838e01613a7f565b945060e08c0135915080821115613c0e57600080fd5b613c1a8d838e01613a7f565b93506101008c0135915080821115613c3157600080fd5b50613c3e8c828d01613a7f565b9150509295985092959850929598565b600081518084526020808501808196508360051b8101915082860160005b85811015612c7e578284038952815160a08151818752613c8e82880182613562565b838901516001600160a01b03908116898b01526040808601519091169089015260608085015190890152608093840151939097019290925250509784019790840190600101613c6c565b600081518084526020808501808196508360051b8101915082860160005b85811015612c7e578284038952613d0e848351613562565b98850198935090840190600101613cf6565b60006080808352613d33818401886137e0565b602084820381860152613d468289613c4e565b91506040858303818701528288518085528385019150838160051b860101848b0160005b83811015613ddb57601f19888403018552815160a0815185528882015189860152878201518189870152613da08287018261379c565b91505060608083015186830382880152613dba8382613cd8565b938d01511515968d0196909652505094870194925090860190600101613d6a565b505088810360608a0152613def818b613810565b9d9c50505050505050505050505050565b85815284602082015260a060408201526000613e1f60a083018661379c565b8281036060840152613e318186613cd8565b91505082151560808301529695505050505050565b604081526000613e59604083018561379c565b8281036020840152613e6b81856137e0565b95945050505050565b606081526000613e87606083018661379c565b8281036020840152613e9981866137e0565b9050828103604084015261064981856137e0565b60a081526000613ec060a083018861379c565b8281036020840152613ed281886137e0565b90508281036040840152613ee68187613810565b60608401959095525050608001529392505050565b604081526000613f0e60408301856137e0565b8281036020840152613e6b8185613c4e565b80151581146135b657600080fd5b600060208284031215613f4057600080fd5b8135610bf081613f20565b600181811c90821680613f5f57607f821691505b60208210811415613f8057634e487b7160e01b600052602260045260246000fd5b50919050565b60006020808385031215613f9957600080fd5b82516001600160401b03811115613faf57600080fd5b8301601f81018513613fc057600080fd5b8051613fce6139b6826139ed565b81815260059190911b82018301908381019087831115613fed57600080fd5b928401925b82841015614014578351614005816135a1565b82529284019290840190613ff2565b979650505050505050565b60006020828403121561403157600080fd5b8151610bf0816135a1565b60006020828403121561404e57600080fd5b5051919050565b6000806000806080858703121561406b57600080fd5b505082516020840151604085015160609095015191969095509092509050565b634e487b7160e01b600052601160045260246000fd5b600082198211156140b4576140b461408b565b500190565b60008160001904831182151516156140d3576140d361408b565b500290565b6000826140f557634e487b7160e01b600052601260045260246000fd5b500490565b60008282101561410c5761410c61408b565b500390565b634e487b7160e01b600052603260045260246000fd5b600060001982141561413b5761413b61408b565b5060010190565b600082601f83011261415357600080fd5b81516141616139b682613970565b81815284602083860101111561417657600080fd5b610434826020830160208701613532565b600082601f83011261419857600080fd5b815160206141a86139b6836139ed565b82815260059290921b840181019181810190868411156141c757600080fd5b8286015b84811015613a745780516001600160401b03808211156141eb5760008081fd5b9088019060a0828b03601f19018113156142055760008081fd5b61420d613918565b878401518381111561421f5760008081fd5b61422d8d8a83880101614142565b8252506040925082840151614241816135a1565b81890152606084810151614254816135a1565b93820193909352608084810151938201939093529201519082015283529183019183016141cb565b6000806040838503121561428f57600080fd5b82516001600160401b03808211156142a657600080fd5b818501915085601f8301126142ba57600080fd5b815160206142ca6139b6836139ed565b82815260059290921b840181019181810190898411156142e957600080fd5b948201945b83861015614307578551825294820194908201906142ee565b9188015191965090935050508082111561432057600080fd5b5061432d85828601614187565b9150509250929050565b80516138fd81613f20565b6000806040838503121561435557600080fd5b825161436081613f20565b6020939093015192949293505050565b60006020828403121561438257600080fd5b8151610bf081613f20565b60006020828403121561439f57600080fd5b815160ff81168114610bf057600080fd5b600082601f8301126143c157600080fd5b815160206143d16139b6836139ed565b82815260059290921b840181019181810190868411156143f057600080fd5b8286015b84811015613a745780516001600160401b038111156144135760008081fd5b6144218986838b0101614142565b8452509183019183016143f4565b600080600080600060a0868803121561444757600080fd5b85519450602080870151945060408701516001600160401b038082111561446d57600080fd5b818901915089601f83011261448157600080fd5b815161448f6139b6826139ed565b81815260059190911b8301840190848101908c8311156144ae57600080fd5b938501935b828510156144d55784516144c6816135a1565b825293850193908501906144b3565b60608c015190985094505050808311156144ee57600080fd5b50506144fc888289016143b0565b92505061450b60808701614337565b90509295509295909350565b60006020828403121561452957600080fd5b81516001600160401b0381111561453f57600080fd5b6104348482850161414256fea2646970667358221220cb9c1f782930ea8da5b6aaabea93c66ed662ee53caf9d957dd0bbab331a0c65964736f6c634300080a0033",
  "devdoc": {
    "author": "David Lucid <david@rari.capital> (https://github.com/davidlucid)",
    "kind": "dev",
    "methods": {
      "getBorrowCapsDataForAsset(address)": {
        "details": "This function is not designed to be called in a transaction: it is too gas-intensive."
      },
      "getBorrowCapsForAsset(address)": {
        "details": "This function is not designed to be called in a transaction: it is too gas-intensive."
      },
      "getPoolAssetsByUser(address,address)": {
        "details": "This function is not designed to be called in a transaction: it is too gas-intensive."
      },
      "getPoolAssetsWithData(address)": {
        "details": "This function is not designed to be called in a transaction: it is too gas-intensive. Ideally, we can add the `view` modifier, but many cToken functions potentially modify the state.",
        "params": {
          "comptroller": "The Comptroller proxy contract of the Ionic pool."
        },
        "returns": {
          "_0": "An array of Ionic pool assets."
        }
      },
      "getPoolsByAccountWithData(address)": {
        "details": "This function is not designed to be called in a transaction: it is too gas-intensive. Ideally, we can add the `view` modifier, but many cToken functions potentially modify the state."
      },
      "getPoolsOIonicrWithData(address)": {
        "details": "This function is not designed to be called in a transaction: it is too gas-intensive. Ideally, we can add the `view` modifier, but many cToken functions potentially modify the state."
      },
      "getPublicPoolsByVerificationWithData(bool)": {
        "details": "This function is not designed to be called in a transaction: it is too gas-intensive. Ideally, we can add the `view` modifier, but many cToken functions potentially modify the state."
      },
      "getPublicPoolsWithData()": {
        "details": "This function is not designed to be called in a transaction: it is too gas-intensive. Ideally, we can add the `view` modifier, but many cToken functions potentially modify the state."
      },
      "getSupplyCapsDataForPool(address)": {
        "details": "This function is not designed to be called in a transaction: it is too gas-intensive."
      },
      "getSupplyCapsForPool(address)": {
        "details": "This function is not designed to be called in a transaction: it is too gas-intensive."
      },
      "getWhitelistedPoolsByAccount(address)": {
        "details": "This function is not designed to be called in a transaction: it is too gas-intensive."
      },
      "getWhitelistedPoolsByAccountWithData(address)": {
        "details": "This function is not designed to be called in a transaction: it is too gas-intensive. Ideally, we can add the `view` modifier, but many cToken functions potentially modify the state."
      },
      "initialize(address,string,string,address[],string[],string[],string[],string[],string[])": {
        "params": {
          "_directory": "The PoolDirectory",
          "_hardcodedAddresses": "Underlying token addresses for a token like maker which are DSToken and/or use bytes32 for `symbol`",
          "_hardcodedNames": "Harcoded name for these tokens",
          "_hardcodedSymbols": "Harcoded symbol for these tokens",
          "_name": "Name for the nativeToken",
          "_symbol": "Symbol for the nativeToken",
          "_uniswapLPTokenDisplayNames": "Harcoded display names for underlying uniswap LpToken",
          "_uniswapLPTokenNames": "Harcoded names for underlying uniswap LpToken",
          "_uniswapLPTokenSymbols": "Harcoded symbols for underlying uniswap LpToken"
        }
      }
    },
    "title": "PoolLens",
    "version": 1
  },
  "userdoc": {
    "kind": "user",
    "methods": {
      "directory()": {
        "notice": "`PoolDirectory` contract object."
      },
      "getBorrowCapsDataForAsset(address)": {
        "notice": "returns the total borrow cap, the per collateral borrowing cap/blacklist for the asset and the total non-whitelist borrows"
      },
      "getBorrowCapsForAsset(address)": {
        "notice": "returns the total borrow cap and the per collateral borrowing cap/blacklist for the asset"
      },
      "getPoolAssetsByUser(address,address)": {
        "notice": "Returns arrays of PoolAsset for a specific user"
      },
      "getPoolAssetsWithData(address)": {
        "notice": "Returns the assets of the specified Ionic pool."
      },
      "getPoolSummary(address)": {
        "notice": "Returns total supply balance (in ETH), total borrow balance (in ETH), underlying token addresses, and underlying token symbols of a Ionic pool."
      },
      "getPoolsByAccountWithData(address)": {
        "notice": "Returns arrays of the indexes of Ionic pools created by `account`, data, total supply balances (in ETH), total borrow balances (in ETH), arrays of underlying token addresses, arrays of underlying asset symbols, and booleans indicating if retrieving each pool's data failed."
      },
      "getPoolsOIonicrWithData(address)": {
        "notice": "Returns arrays of the indexes of Ionic pools used by `user`, data, total supply balances (in ETH), total borrow balances (in ETH), arrays of underlying token addresses, arrays of underlying asset symbols, and booleans indicating if retrieving each pool's data failed."
      },
      "getPublicPoolsByVerificationWithData(bool)": {
        "notice": "Returns arrays of all whitelisted public Ionic pool indexes, data, total supply balances (in ETH), total borrow balances (in ETH), arrays of underlying token addresses, arrays of underlying asset symbols, and booleans indicating if retrieving each pool's data failed."
      },
      "getPublicPoolsWithData()": {
        "notice": "Returns arrays of all public Ionic pool indexes, data, total supply balances (in ETH), total borrow balances (in ETH), arrays of underlying token addresses, arrays of underlying asset symbols, and booleans indicating if retrieving each pool's data failed."
      },
      "getSupplyCapsDataForPool(address)": {
        "notice": "returns the total supply cap for each asset in the pool and the total non-whitelist supplied assets"
      },
      "getSupplyCapsForPool(address)": {
        "notice": "returns the total supply cap for each asset in the pool"
      },
      "getWhitelistedPoolsByAccount(address)": {
        "notice": "Returns arrays of Ionic pool indexes and data with a whitelist containing `account`. Note that the whitelist does not have to be enforced."
      },
      "getWhitelistedPoolsByAccountWithData(address)": {
        "notice": "Returns arrays of the indexes of Ionic pools with a whitelist containing `account`, data, total supply balances (in ETH), total borrow balances (in ETH), arrays of underlying token addresses, arrays of underlying asset symbols, and booleans indicating if retrieving each pool's data failed."
      },
      "initialize(address,string,string,address[],string[],string[],string[],string[],string[])": {
        "notice": "Initialize the `PoolDirectory` contract object."
      }
    },
    "notice": "PoolLens returns data on Ionic interest rate pools in mass for viewing by dApps, bots, etc.",
    "version": 1
  },
  "storageLayout": {
    "storage": [
      {
        "astId": 154341,
        "contract": "contracts/PoolLens.sol:PoolLens",
        "label": "_initialized",
        "offset": 0,
        "slot": "0",
        "type": "t_uint8"
      },
      {
        "astId": 154344,
        "contract": "contracts/PoolLens.sol:PoolLens",
        "label": "_initializing",
        "offset": 1,
        "slot": "0",
        "type": "t_bool"
      },
      {
        "astId": 9108,
        "contract": "contracts/PoolLens.sol:PoolLens",
        "label": "name",
        "offset": 0,
        "slot": "1",
        "type": "t_string_storage"
      },
      {
        "astId": 9110,
        "contract": "contracts/PoolLens.sol:PoolLens",
        "label": "symbol",
        "offset": 0,
        "slot": "2",
        "type": "t_string_storage"
      },
      {
        "astId": 9120,
        "contract": "contracts/PoolLens.sol:PoolLens",
        "label": "hardcoded",
        "offset": 0,
        "slot": "3",
        "type": "t_mapping(t_address,t_struct(TokenData)9115_storage)"
      },
      {
        "astId": 9131,
        "contract": "contracts/PoolLens.sol:PoolLens",
        "label": "uniswapData",
        "offset": 0,
        "slot": "4",
        "type": "t_array(t_struct(UniswapData)9127_storage)dyn_storage"
      },
      {
        "astId": 9135,
        "contract": "contracts/PoolLens.sol:PoolLens",
        "label": "directory",
        "offset": 0,
        "slot": "5",
        "type": "t_contract(PoolDirectory)8941"
      }
    ],
    "types": {
      "t_address": {
        "encoding": "inplace",
        "label": "address",
        "numberOfBytes": "20"
      },
      "t_array(t_struct(UniswapData)9127_storage)dyn_storage": {
        "base": "t_struct(UniswapData)9127_storage",
        "encoding": "dynamic_array",
        "label": "struct PoolLens.UniswapData[]",
        "numberOfBytes": "32"
      },
      "t_bool": {
        "encoding": "inplace",
        "label": "bool",
        "numberOfBytes": "1"
      },
      "t_contract(PoolDirectory)8941": {
        "encoding": "inplace",
        "label": "contract PoolDirectory",
        "numberOfBytes": "20"
      },
      "t_mapping(t_address,t_struct(TokenData)9115_storage)": {
        "encoding": "mapping",
        "key": "t_address",
        "label": "mapping(address => struct PoolLens.TokenData)",
        "numberOfBytes": "32",
        "value": "t_struct(TokenData)9115_storage"
      },
      "t_string_storage": {
        "encoding": "bytes",
        "label": "string",
        "numberOfBytes": "32"
      },
      "t_struct(TokenData)9115_storage": {
        "encoding": "inplace",
        "label": "struct PoolLens.TokenData",
        "members": [
          {
            "astId": 9112,
            "contract": "contracts/PoolLens.sol:PoolLens",
            "label": "name",
            "offset": 0,
            "slot": "0",
            "type": "t_string_storage"
          },
          {
            "astId": 9114,
            "contract": "contracts/PoolLens.sol:PoolLens",
            "label": "symbol",
            "offset": 0,
            "slot": "1",
            "type": "t_string_storage"
          }
        ],
        "numberOfBytes": "64"
      },
      "t_struct(UniswapData)9127_storage": {
        "encoding": "inplace",
        "label": "struct PoolLens.UniswapData",
        "members": [
          {
            "astId": 9122,
            "contract": "contracts/PoolLens.sol:PoolLens",
            "label": "name",
            "offset": 0,
            "slot": "0",
            "type": "t_string_storage"
          },
          {
            "astId": 9124,
            "contract": "contracts/PoolLens.sol:PoolLens",
            "label": "symbol",
            "offset": 0,
            "slot": "1",
            "type": "t_string_storage"
          },
          {
            "astId": 9126,
            "contract": "contracts/PoolLens.sol:PoolLens",
            "label": "displayName",
            "offset": 0,
            "slot": "2",
            "type": "t_string_storage"
          }
        ],
        "numberOfBytes": "96"
      },
      "t_uint8": {
        "encoding": "inplace",
        "label": "uint8",
        "numberOfBytes": "1"
      }
    }
  }
}