{"abi":[{"type":"function","name":"owner","inputs":[],"outputs":[{"name":"","type":"address","internalType":"address"}],"stateMutability":"view"},{"type":"function","name":"pendingOwner","inputs":[],"outputs":[{"name":"","type":"address","internalType":"address"}],"stateMutability":"view"}],"bytecode":{"object":"0x6080604052348015600f57600080fd5b5060848061001e6000396000f3fe6080604052348015600f57600080fd5b506004361060325760003560e01c80638da5cb5b146037578063e30c3978146065575b600080fd5b6000546049906001600160a01b031681565b6040516001600160a01b03909116815260200160405180910390f35b6001546049906001600160a01b03168156fea164736f6c634300080a000a","linkReferences":{}},"methodIdentifiers":{"owner()":"8da5cb5b","pendingOwner()":"e30c3978"},"id":387}