{
  "address": "0xAeE8AA2c69CaA9F6D2C6a78198243C348d0C07D2",
  "abi": [
    {
      "inputs": [
        {
          "internalType": "contract PoolDirectory",
          "name": "_fpd",
          "type": "address"
        }
      ],
      "stateMutability": "nonpayable",
      "type": "constructor"
    },
    {
      "inputs": [
        {
          "internalType": "address",
          "name": "user",
          "type": "address"
        }
      ],
      "name": "claimAllRewardTokens",
      "outputs": [
        {
          "internalType": "address[]",
          "name": "",
          "type": "address[]"
        },
        {
          "internalType": "uint256[]",
          "name": "",
          "type": "uint256[]"
        }
      ],
      "stateMutability": "nonpayable",
      "type": "function"
    },
    {
      "inputs": [
        {
          "internalType": "address",
          "name": "user",
          "type": "address"
        },
        {
          "internalType": "contract ERC20",
          "name": "market",
          "type": "address"
        },
        {
          "internalType": "contract IonicFlywheelCore[]",
          "name": "flywheels",
          "type": "address[]"
        },
        {
          "internalType": "bool[]",
          "name": "accrue",
          "type": "bool[]"
        }
      ],
      "name": "claimRewardsForMarket",
      "outputs": [
        {
          "internalType": "contract IonicFlywheelCore[]",
          "name": "",
          "type": "address[]"
        },
        {
          "internalType": "address[]",
          "name": "rewardTokens",
          "type": "address[]"
        },
        {
          "internalType": "uint256[]",
          "name": "rewards",
          "type": "uint256[]"
        }
      ],
      "stateMutability": "nonpayable",
      "type": "function"
    },
    {
      "inputs": [
        {
          "internalType": "address",
          "name": "user",
          "type": "address"
        },
        {
          "internalType": "contract ERC20[]",
          "name": "markets",
          "type": "address[]"
        },
        {
          "internalType": "contract IonicFlywheelCore[]",
          "name": "flywheels",
          "type": "address[]"
        },
        {
          "internalType": "bool[]",
          "name": "accrue",
          "type": "bool[]"
        }
      ],
      "name": "claimRewardsForMarkets",
      "outputs": [
        {
          "internalType": "contract IonicFlywheelCore[]",
          "name": "",
          "type": "address[]"
        },
        {
          "internalType": "address[]",
          "name": "rewardTokens",
          "type": "address[]"
        },
        {
          "internalType": "uint256[]",
          "name": "rewards",
          "type": "uint256[]"
        }
      ],
      "stateMutability": "nonpayable",
      "type": "function"
    },
    {
      "inputs": [
        {
          "internalType": "address",
          "name": "user",
          "type": "address"
        },
        {
          "internalType": "contract IonicComptroller",
          "name": "comptroller",
          "type": "address"
        }
      ],
      "name": "claimRewardsForPool",
      "outputs": [
        {
          "internalType": "contract IonicFlywheelCore[]",
          "name": "",
          "type": "address[]"
        },
        {
          "internalType": "address[]",
          "name": "",
          "type": "address[]"
        },
        {
          "internalType": "uint256[]",
          "name": "",
          "type": "uint256[]"
        }
      ],
      "stateMutability": "nonpayable",
      "type": "function"
    },
    {
      "inputs": [
        {
          "internalType": "address",
          "name": "user",
          "type": "address"
        },
        {
          "internalType": "address",
          "name": "rewardToken",
          "type": "address"
        }
      ],
      "name": "claimRewardsOfRewardToken",
      "outputs": [
        {
          "internalType": "uint256",
          "name": "rewardsClaimed",
          "type": "uint256"
        }
      ],
      "stateMutability": "nonpayable",
      "type": "function"
    },
    {
      "inputs": [],
      "name": "fpd",
      "outputs": [
        {
          "internalType": "contract PoolDirectory",
          "name": "",
          "type": "address"
        }
      ],
      "stateMutability": "view",
      "type": "function"
    },
    {
      "inputs": [
        {
          "internalType": "address",
          "name": "user",
          "type": "address"
        },
        {
          "internalType": "int256",
          "name": "blocksPerYear",
          "type": "int256"
        },
        {
          "internalType": "address[]",
          "name": "offchainRewardsAprMarkets",
          "type": "address[]"
        },
        {
          "internalType": "int256[]",
          "name": "offchainRewardsAprs",
          "type": "int256[]"
        }
      ],
      "name": "getAdjustedUserNetApr",
      "outputs": [
        {
          "internalType": "int256",
          "name": "",
          "type": "int256"
        }
      ],
      "stateMutability": "nonpayable",
      "type": "function"
    },
    {
      "inputs": [],
      "name": "getAllRewardTokens",
      "outputs": [
        {
          "internalType": "address[]",
          "name": "uniqueRewardTokens",
          "type": "address[]"
        }
      ],
      "stateMutability": "view",
      "type": "function"
    },
    {
      "inputs": [
        {
          "internalType": "contract ICErc20[]",
          "name": "markets",
          "type": "address[]"
        }
      ],
      "name": "getMarketRewardsInfo",
      "outputs": [
        {
          "components": [
            {
              "internalType": "uint256",
              "name": "underlyingPrice",
              "type": "uint256"
            },
            {
              "internalType": "contract ICErc20",
              "name": "market",
              "type": "address"
            },
            {
              "components": [
                {
                  "internalType": "uint256",
                  "name": "rewardSpeedPerSecondPerToken",
                  "type": "uint256"
                },
                {
                  "internalType": "uint256",
                  "name": "rewardTokenPrice",
                  "type": "uint256"
                },
                {
                  "internalType": "uint256",
                  "name": "formattedAPR",
                  "type": "uint256"
                },
                {
                  "internalType": "address",
                  "name": "flywheel",
                  "type": "address"
                },
                {
                  "internalType": "address",
                  "name": "rewardToken",
                  "type": "address"
                }
              ],
              "internalType": "struct IonicFlywheelLensRouter.RewardsInfo[]",
              "name": "rewardsInfo",
              "type": "tuple[]"
            }
          ],
          "internalType": "struct IonicFlywheelLensRouter.MarketRewardsInfo[]",
          "name": "",
          "type": "tuple[]"
        }
      ],
      "stateMutability": "nonpayable",
      "type": "function"
    },
    {
      "inputs": [
        {
          "internalType": "contract IonicComptroller",
          "name": "comptroller",
          "type": "address"
        }
      ],
      "name": "getPoolMarketRewardsInfo",
      "outputs": [
        {
          "components": [
            {
              "internalType": "uint256",
              "name": "underlyingPrice",
              "type": "uint256"
            },
            {
              "internalType": "contract ICErc20",
              "name": "market",
              "type": "address"
            },
            {
              "components": [
                {
                  "internalType": "uint256",
                  "name": "rewardSpeedPerSecondPerToken",
                  "type": "uint256"
                },
                {
                  "internalType": "uint256",
                  "name": "rewardTokenPrice",
                  "type": "uint256"
                },
                {
                  "internalType": "uint256",
                  "name": "formattedAPR",
                  "type": "uint256"
                },
                {
                  "internalType": "address",
                  "name": "flywheel",
                  "type": "address"
                },
                {
                  "internalType": "address",
                  "name": "rewardToken",
                  "type": "address"
                }
              ],
              "internalType": "struct IonicFlywheelLensRouter.RewardsInfo[]",
              "name": "rewardsInfo",
              "type": "tuple[]"
            }
          ],
          "internalType": "struct IonicFlywheelLensRouter.MarketRewardsInfo[]",
          "name": "",
          "type": "tuple[]"
        }
      ],
      "stateMutability": "nonpayable",
      "type": "function"
    },
    {
      "inputs": [
        {
          "internalType": "address",
          "name": "user",
          "type": "address"
        },
        {
          "internalType": "int256",
          "name": "blocksPerYear",
          "type": "int256"
        }
      ],
      "name": "getUserNetApr",
      "outputs": [
        {
          "internalType": "int256",
          "name": "",
          "type": "int256"
        }
      ],
      "stateMutability": "nonpayable",
      "type": "function"
    }
  ],
  "transactionHash": "0xda8733b14a81f6ab42bbc735d38483a8e25c3383b4f801494cccc973f27be408",
  "args": [
    "0x0ef63b0223d3a519094020f16b6267E85FB99b5E"
  ],
  "numDeployments": 1,
  "solcInputHash": "cfcd23bfba7f743f57ac4b72a4a79ba7",
  "bytecode": "0x60806040523480156200001157600080fd5b5060405162003f3d38038062003f3d83398101604081905262000034916200005a565b600080546001600160a01b0319166001600160a01b03929092169190911790556200008c565b6000602082840312156200006d57600080fd5b81516001600160a01b03811681146200008557600080fd5b9392505050565b613ea1806200009c6000396000f3fe608060405234801561001057600080fd5b50600436106100a95760003560e01c80637e70aa49116100715780637e70aa49146101315780638260a696146101515780639cf1fd5314610164578063bdfc183914610185578063d1040bae14610198578063de858c63146101ab57600080fd5b80630d9d7fdc146100ae57806312edb24c146100d45780633610c407146100e95780634f471e6d1461010b5780637d3cab4c1461011e575b600080fd5b6100c16100bc366004613041565b6101d6565b6040519081526020015b60405180910390f35b6100dc610204565b6040516100cb91906130b2565b6100fc6100f73660046130c5565b6105fa565b6040516100cb9392919061312f565b6100fc6101193660046131e6565b6108a4565b6100c161012c36600461337a565b610c95565b61014461013f366004613459565b6110d7565b6040516100cb91906134f2565b6100fc61015f3660046136b3565b611221565b6101776101723660046137a1565b6115ca565b6040516100cb9291906137be565b6100c16101933660046130c5565b61167f565b6101446101a63660046137a1565b611b65565b6000546101be906001600160a01b031681565b6040516001600160a01b0390911681526020016100cb565b60408051600080825260208201818152828401909352916101f985858484610c95565b925050505b92915050565b60008054604080516323b020d560e21b81529051606093926001600160a01b031691638ec0835491600480830192869291908290030181865afa15801561024f573d6000803e3d6000fd5b505050506040513d6000823e601f3d908101601f191682016040526102779190810190613956565b915060009050805b825181101561032d57600083828151811061029c5761029c613a11565b60200260200101516040015190506000816001600160a01b0316633605b51b6040518163ffffffff1660e01b8152600401600060405180830381865afa1580156102ea573d6000803e3d6000fd5b505050506040513d6000823e601f3d908101601f191682016040526103129190810190613a27565b90508051846103219190613acb565b9350505060010161027f565b506000816001600160401b038111156103485761034861327a565b604051908082528060200260200182016040528015610371578160200160208202803683370190505b5090506000805b845181101561055657600085828151811061039557610395613a11565b60200260200101516040015190506000816001600160a01b0316633605b51b6040518163ffffffff1660e01b8152600401600060405180830381865afa1580156103e3573d6000803e3d6000fd5b505050506040513d6000823e601f3d908101601f1916820160405261040b9190810190613a27565b905060005b815181101561054b57600082828151811061042d5761042d613a11565b60200260200101516001600160a01b031663f7c618c16040518163ffffffff1660e01b8152600401602060405180830381865afa158015610472573d6000803e3d6000fd5b505050506040513d601f19601f820116820180604052508101906104969190613ade565b90506001600160a01b0381166104ac575061054b565b6000805b88518110156104fc578881815181106104cb576104cb613a11565b60200260200101516001600160a01b0316836001600160a01b0316036104f457600191506104fc565b6001016104b0565b50806105415781888861050e81613afb565b99508151811061052057610520613a11565b60200260200101906001600160a01b031690816001600160a01b0316815250505b5050600101610410565b505050600101610378565b50806001600160401b0381111561056f5761056f61327a565b604051908082528060200260200182016040528015610598578160200160208202803683370190505b50945060005b818110156105f2578281815181106105b8576105b8613a11565b60200260200101518682815181106105d2576105d2613a11565b6001600160a01b039092166020928302919091019091015260010161059e565b505050505090565b60608060606000846001600160a01b031663b0772d0b6040518163ffffffff1660e01b8152600401600060405180830381865afa15801561063f573d6000803e3d6000fd5b505050506040513d6000823e601f3d908101601f191682016040526106679190810190613b14565b9050600081516001600160401b038111156106845761068461327a565b6040519080825280602002602001820160405280156106ad578160200160208202803683370190505b5090506000866001600160a01b0316634a76e7276040518163ffffffff1660e01b8152600401600060405180830381865afa1580156106f0573d6000803e3d6000fd5b505050506040513d6000823e601f3d908101601f191682016040526107189190810190613a27565b9050600081516001600160401b038111156107355761073561327a565b60405190808252806020026020018201604052801561075e578160200160208202803683370190505b509050600082516001600160401b0381111561077c5761077c61327a565b6040519080825280602002602001820160405280156107a5578160200160208202803683370190505b50905060005b835181101561082c578381815181106107c6576107c6613a11565b60200260200101518382815181106107e0576107e0613a11565b60200260200101906001600160a01b031690816001600160a01b031681525050600182828151811061081457610814613a11565b911515602092830291909101909101526001016107ab565b5060005b85518110156108855785818151811061084b5761084b613a11565b602002602001015185828151811061086557610865613a11565b6001600160a01b0390921660209283029190910190910152600101610830565b506108928a858484611221565b97509750975050505050509250925092565b6060808085806001600160401b038111156108c1576108c161327a565b6040519080825280602002602001820160405280156108ea578160200160208202803683370190505b509150806001600160401b038111156109055761090561327a565b60405190808252806020026020018201604052801561092e578160200160208202803683370190505b50925060005b81811015610c4557600087878381811061095057610950613a11565b90506020020160208101906109659190613ba2565b15610a0e5789898381811061097c5761097c613a11565b905060200201602081019061099191906137a1565b604051632e6f912b60e21b81526001600160a01b038d811660048301528e81166024830152919091169063b9be44ac906044016020604051808303816000875af11580156109e3573d6000803e3d6000fd5b505050506040513d601f19601f82011682018060405250810190610a079190613bbd565b9050610aa6565b898983818110610a2057610a20613a11565b9050602002016020810190610a3591906137a1565b604051630ff6b5a760e31b81526001600160a01b038e811660048301529190911690637fb5ad38906024016020604051808303816000875af1158015610a7f573d6000803e3d6000fd5b505050506040513d601f19601f82011682018060405250810190610aa39190613bbd565b90505b80848381518110610ab957610ab9613a11565b60200260200101511015610acd5780610ae8565b838281518110610adf57610adf613a11565b60200260200101515b848381518110610afa57610afa613a11565b602002602001018181525050898983818110610b1857610b18613a11565b9050602002016020810190610b2d91906137a1565b604051633bd73ee360e21b81526001600160a01b038e81166004830152919091169063ef5cfb8c90602401600060405180830381600087803b158015610b7257600080fd5b505af1158015610b86573d6000803e3d6000fd5b50505050898983818110610b9c57610b9c613a11565b9050602002016020810190610bb191906137a1565b6001600160a01b031663f7c618c16040518163ffffffff1660e01b8152600401602060405180830381865afa158015610bee573d6000803e3d6000fd5b505050506040513d601f19601f82011682018060405250810190610c129190613ade565b858381518110610c2457610c24613a11565b6001600160a01b039092166020928302919091019091015250600101610934565b5087878484838380806020026020016040519081016040528093929190818152602001838360200280828437600092019190915250929a5093985091965050505050505096509650969350505050565b6040805160a0810182526000808252602082018190529181018290526060808201526080810182905260008060009054906101000a90046001600160a01b03166001600160a01b0316638ec083546040518163ffffffff1660e01b8152600401600060405180830381865afa158015610d12573d6000803e3d6000fd5b505050506040513d6000823e601f3d908101601f19168201604052610d3a9190810190613956565b91505060005b8151811015611092576000828281518110610d5d57610d5d613a11565b6020026020010151604001519050806001600160a01b0316637dc0d1d06040518163ffffffff1660e01b8152600401602060405180830381865afa158015610da9573d6000803e3d6000fd5b505050506040513d601f19601f82011682018060405250810190610dcd9190613ade565b84604001906001600160a01b031690816001600160a01b031681525050806001600160a01b031663b0772d0b6040518163ffffffff1660e01b8152600401600060405180830381865afa158015610e28573d6000803e3d6000fd5b505050506040513d6000823e601f3d908101601f19168201604052610e509190810190613b14565b606085015260005b846060015151811015611088576000805b8951811015610ee65786606001518381518110610e8857610e88613a11565b60200260200101516001600160a01b03168a8281518110610eab57610eab613a11565b60200260200101516001600160a01b031603610ede57888181518110610ed357610ed3613a11565b602002602001015191505b600101610e69565b50670de0b6b3a764000086604001516001600160a01b031663fc57d4df88606001518581518110610f1957610f19613a11565b60200260200101516040518263ffffffff1660e01b8152600401610f4c91906001600160a01b0391909116815260200190565b602060405180830381865afa158015610f69573d6000803e3d6000fd5b505050506040513d601f19601f82011682018060405250810190610f8d9190613bbd565b87606001518481518110610fa357610fa3613a11565b6020908102919091010151604051633af9e66960e01b81526001600160a01b038f8116600483015290911690633af9e66990602401602060405180830381865afa158015610ff5573d6000803e3d6000fd5b505050506040513d601f19601f820116820180604052508101906110199190613bbd565b6110239190613bd6565b61102d9190613c03565b8651879061103c908390613c31565b9052506060860151805161106b918d918590811061105c5761105c613a11565b6020026020010151838d611bdb565b8660200181815161107c9190613c31565b90525050600101610e58565b5050600101610d40565b5081516000036110a7576000925050506110cf565b815160208301516110c090670de0b6b3a7640000613c59565b6110ca9190613c03565b925050505b949350505050565b60606000805b835181101561120f5760008482815181106110fa576110fa613a11565b6020026020010151905060006001600160a01b0316836001600160a01b03160361118757806001600160a01b0316635fe3b5676040518163ffffffff1660e01b8152600401602060405180830381865afa15801561115c573d6000803e3d6000fd5b505050506040513d601f19601f820116820180604052508101906111809190613ade565b9250611206565b826001600160a01b0316816001600160a01b0316635fe3b5676040518163ffffffff1660e01b8152600401602060405180830381865afa1580156111cf573d6000803e3d6000fd5b505050506040513d601f19601f820116820180604052508101906111f39190613ade565b6001600160a01b03161461120657600080fd5b506001016110dd565b5061121a8382611de5565b9392505050565b606080606084516001600160401b0381111561123f5761123f61327a565b604051908082528060200260200182016040528015611268578160200160208202803683370190505b50905084516001600160401b038111156112845761128461327a565b6040519080825280602002602001820160405280156112ad578160200160208202803683370190505b50915060005b85518110156115bd5760005b87518110156114965760008882815181106112dc576112dc613a11565b6020026020010151905060008784815181106112fa576112fa613a11565b6020026020010151156113a05788848151811061131957611319613a11565b6020908102919091010151604051632e6f912b60e21b81526001600160a01b0384811660048301528d811660248301529091169063b9be44ac906044016020604051808303816000875af1158015611375573d6000803e3d6000fd5b505050506040513d601f19601f820116820180604052508101906113999190613bbd565b905061142d565b8884815181106113b2576113b2613a11565b6020908102919091010151604051630ff6b5a760e31b81526001600160a01b038d8116600483015290911690637fb5ad38906024016020604051808303816000875af1158015611406573d6000803e3d6000fd5b505050506040513d601f19601f8201168201806040525081019061142a9190613bbd565b90505b8085858151811061144057611440613a11565b60200260200101511015611454578061146f565b84848151811061146657611466613a11565b60200260200101515b85858151811061148157611481613a11565b602090810291909101015250506001016112bf565b508581815181106114a9576114a9613a11565b6020908102919091010151604051633bd73ee360e21b81526001600160a01b038a811660048301529091169063ef5cfb8c90602401600060405180830381600087803b1580156114f857600080fd5b505af115801561150c573d6000803e3d6000fd5b5050505085818151811061152257611522613a11565b60200260200101516001600160a01b031663f7c618c16040518163ffffffff1660e01b8152600401602060405180830381865afa158015611567573d6000803e3d6000fd5b505050506040513d601f19601f8201168201806040525081019061158b9190613ade565b83828151811061159d5761159d613a11565b6001600160a01b03909216602092830291909101909101526001016112b3565b5093969095509293505050565b60608060006115d7610204565b9050600081516001600160401b038111156115f4576115f461327a565b60405190808252806020026020018201604052801561161d578160200160208202803683370190505b50905060005b82518110156116745761164f8684838151811061164257611642613a11565b602002602001015161167f565b82828151811061166157611661613a11565b6020908102919091010152600101611623565b509094909350915050565b6040516370a0823160e01b81526001600160a01b03838116600483015260009182918416906370a0823190602401602060405180830381865afa1580156116ca573d6000803e3d6000fd5b505050506040513d601f19601f820116820180604052508101906116ee9190613bbd565b905060008060009054906101000a90046001600160a01b03166001600160a01b0316638ec083546040518163ffffffff1660e01b8152600401600060405180830381865afa158015611744573d6000803e3d6000fd5b505050506040513d6000823e601f3d908101601f1916820160405261176c9190810190613956565b91505060005b8151811015611ae057600082828151811061178f5761178f613a11565b602002602001015160400151905060606000826001600160a01b031663b0772d0b6040518163ffffffff1660e01b8152600401600060405180830381865afa1580156117df573d6000803e3d6000fd5b505050506040513d6000823e601f3d908101601f191682016040526118079190810190613b14565b905080516001600160401b038111156118225761182261327a565b60405190808252806020026020018201604052801561184b578160200160208202803683370190505b50915060005b81518110156118a65781818151811061186c5761186c613a11565b602002602001015183828151811061188657611886613a11565b6001600160a01b0390921660209283029190910190910152600101611851565b50506000826001600160a01b0316634a76e7276040518163ffffffff1660e01b8152600401600060405180830381865afa1580156118e8573d6000803e3d6000fd5b505050506040513d6000823e601f3d908101601f191682016040526119109190810190613a27565b905060005b8151811015611ad057600082828151811061193257611932613a11565b60200260200101519050896001600160a01b0316816001600160a01b031663f7c618c16040518163ffffffff1660e01b8152600401602060405180830381865afa158015611984573d6000803e3d6000fd5b505050506040513d601f19601f820116820180604052508101906119a89190613ade565b6001600160a01b031603611ac75760005b8451811015611a6a57816001600160a01b031663b9be44ac8683815181106119e3576119e3613a11565b60200260200101518e6040518363ffffffff1660e01b8152600401611a1e9291906001600160a01b0392831681529116602082015260400190565b6020604051808303816000875af1158015611a3d573d6000803e3d6000fd5b505050506040513d601f19601f82011682018060405250810190611a619190613bbd565b506001016119b9565b50604051633bd73ee360e21b81526001600160a01b038c8116600483015282169063ef5cfb8c90602401600060405180830381600087803b158015611aae57600080fd5b505af1158015611ac2573d6000803e3d6000fd5b505050505b50600101611915565b5050600190920191506117729050565b506040516370a0823160e01b81526001600160a01b038681166004830152600091908616906370a0823190602401602060405180830381865afa158015611b2b573d6000803e3d6000fd5b505050506040513d601f19601f82011682018060405250810190611b4f9190613bbd565b9050611b5b8382613c89565b9695505050505050565b60606000826001600160a01b031663b0772d0b6040518163ffffffff1660e01b8152600401600060405180830381865afa158015611ba7573d6000803e3d6000fd5b505050506040513d6000823e601f3d908101601f19168201604052611bcf9190810190613b14565b905061121a8184611de5565b600080846001600160a01b0316635fe3b5676040518163ffffffff1660e01b8152600401602060405180830381865afa158015611c1c573d6000803e3d6000fd5b505050506040513d601f19601f82011682018060405250810190611c409190613ade565b90506000816001600160a01b0316637dc0d1d06040518163ffffffff1660e01b8152600401602060405180830381865afa158015611c82573d6000803e3d6000fd5b505050506040513d601f19601f82011682018060405250810190611ca69190613ade565b9050600085611cb6898988612603565b611cbf89612999565b611cc99190613c31565b611cd39190613c31565b60405163fc57d4df60e01b81526001600160a01b0389811660048301529192506ec097ce7bc90715b34b9f10000000009184169063fc57d4df90602401602060405180830381865afa158015611d2d573d6000803e3d6000fd5b505050506040513d601f19601f82011682018060405250810190611d519190613bbd565b604051633af9e66960e01b81526001600160a01b038b811660048301528a1690633af9e66990602401602060405180830381865afa158015611d97573d6000803e3d6000fd5b505050506040513d601f19601f82011682018060405250810190611dbb9190613bbd565b611dc59084613c59565b611dcf9190613c59565b611dd99190613c03565b98975050505050505050565b60606001600160a01b0382161580611dfc57508251155b15611e4e576040805160008082526020820190925290611e46565b60408051606080820183526000808352602083015291810191909152815260200190600190039081611e175790505b5090506101fe565b6000826001600160a01b0316634a76e7276040518163ffffffff1660e01b8152600401600060405180830381865afa158015611e8e573d6000803e3d6000fd5b505050506040513d6000823e601f3d908101601f19168201604052611eb69190810190613a27565b9050600081516001600160401b03811115611ed357611ed361327a565b604051908082528060200260200182016040528015611efc578160200160208202803683370190505b509050600082516001600160401b03811115611f1a57611f1a61327a565b604051908082528060200260200182016040528015611f43578160200160208202803683370190505b509050600083516001600160401b03811115611f6157611f6161327a565b604051908082528060200260200182016040528015611f8a578160200160208202803683370190505b5090506000866001600160a01b0316637dc0d1d06040518163ffffffff1660e01b8152600401602060405180830381865afa158015611fcd573d6000803e3d6000fd5b505050506040513d601f19601f82011682018060405250810190611ff19190613ade565b9050600088516001600160401b0381111561200e5761200e61327a565b60405190808252806020026020018201604052801561205b57816020015b6040805160608082018352600080835260208301529181019190915281526020019060019003908161202c5790505b50905060005b89518110156125f657600087516001600160401b038111156120855761208561327a565b6040519080825280602002602001820160405280156120fa57816020015b6120e76040518060a0016040528060008152602001600081526020016000815260200160006001600160a01b0316815260200160006001600160a01b031681525090565b8152602001906001900390816120a35790505b50905060008b838151811061211157612111613a11565b602002602001015190506000856001600160a01b031663aea91078836001600160a01b0316636f307dc36040518163ffffffff1660e01b8152600401602060405180830381865afa15801561216a573d6000803e3d6000fd5b505050506040513d601f19601f8201168201806040525081019061218e9190613ade565b6040516001600160e01b031960e084901b1681526001600160a01b039091166004820152602401602060405180830381865afa1580156121d2573d6000803e3d6000fd5b505050506040513d601f19601f820116820180604052508101906121f69190613bbd565b9050836000036123c25760005b8a518110156123c05760008b828151811061222057612220613a11565b60200260200101516001600160a01b031663f7c618c16040518163ffffffff1660e01b8152600401602060405180830381865afa158015612265573d6000803e3d6000fd5b505050506040513d601f19601f820116820180604052508101906122899190613ade565b9050808b838151811061229e5761229e613a11565b6001600160a01b0392831660209182029290920101526040516315d5220f60e31b815282821660048201529089169063aea9107890602401602060405180830381865afa1580156122f3573d6000803e3d6000fd5b505050506040513d601f19601f820116820180604052508101906123179190613bbd565b8a838151811061232957612329613a11565b602002602001018181525050806001600160a01b031663313ce5676040518163ffffffff1660e01b8152600401602060405180830381865afa158015612373573d6000803e3d6000fd5b505050506040513d601f19601f820116820180604052508101906123979190613c9c565b60ff168983815181106123ac576123ac613a11565b602090810291909101015250600101612203565b505b60005b8a518110156125a95760008b82815181106123e2576123e2613a11565b60200260200101519050600061241282868c868151811061240557612405613a11565b6020026020010151612d8b565b90506000612514828d868151811061242c5761242c613a11565b602002602001015187896001600160a01b031663bd6d894d6040518163ffffffff1660e01b8152600401602060405180830381865afa158015612473573d6000803e3d6000fd5b505050506040513d601f19601f820116820180604052508101906124979190613bbd565b60006001600160a01b0316886001600160a01b031663ab5497d76040518163ffffffff1660e01b8152600401602060405180830381865afa1580156124e0573d6000803e3d6000fd5b505050506040513d601f19601f820116820180604052508101906125049190613ade565b6001600160a01b03161415612f47565b90506040518060a001604052808381526020018d868151811061253957612539613a11565b60200260200101518152602001828152602001846001600160a01b031681526020018e868151811061256d5761256d613a11565b60200260200101516001600160a01b031681525087858151811061259357612593613a11565b60209081029190910101525050506001016123c5565b506040518060600160405280828152602001836001600160a01b03168152602001848152508585815181106125e0576125e0613a11565b6020908102919091010152505050600101612061565b5098975050505050505050565b6040516305eff7ef60e21b81526001600160a01b03848116600483015260009182918516906317bfdfbc90602401602060405180830381865afa15801561264e573d6000803e3d6000fd5b505050506040513d601f19601f820116820180604052508101906126729190613bbd565b604051633af9e66960e01b81526001600160a01b038781166004830152919250600091861690633af9e66990602401602060405180830381865afa1580156126be573d6000803e3d6000fd5b505050506040513d601f19601f820116820180604052508101906126e29190613bbd565b90506000856001600160a01b031663ae9d70b06040518163ffffffff1660e01b8152600401602060405180830381865afa158015612724573d6000803e3d6000fd5b505050506040513d601f19601f820116820180604052508101906127489190613bbd565b90506000866001600160a01b031663f8f9da286040518163ffffffff1660e01b8152600401602060405180830381865afa15801561278a573d6000803e3d6000fd5b505050506040513d601f19601f820116820180604052508101906127ae9190613bbd565b90506000876001600160a01b0316635fe3b5676040518163ffffffff1660e01b8152600401602060405180830381865afa1580156127f0573d6000803e3d6000fd5b505050506040513d601f19601f820116820180604052508101906128149190613ade565b90506000816001600160a01b0316637dc0d1d06040518163ffffffff1660e01b8152600401602060405180830381865afa158015612856573d6000803e3d6000fd5b505050506040513d601f19601f8201168201806040525081019061287a9190613ade565b60405163fc57d4df60e01b81526001600160a01b038b8116600483015291925060009183169063fc57d4df90602401602060405180830381865afa1580156128c6573d6000803e3d6000fd5b505050506040513d601f19601f820116820180604052508101906128ea9190613bbd565b90506000670de0b6b3a76400006129018389613bd6565b61290b9190613cbf565b90506000670de0b6b3a7640000612922848b613bd6565b61292c9190613cbf565b9050600061293a8884613bd6565b905060006129488884613bd6565b9050836000036129665760009b50505050505050505050505061121a565b838d6129728385613cd3565b61297c9190613c59565b6129869190613c03565b9f9e505050505050505050505050505050565b600080826001600160a01b0316635fe3b5676040518163ffffffff1660e01b8152600401602060405180830381865afa1580156129da573d6000803e3d6000fd5b505050506040513d601f19601f820116820180604052508101906129fe9190613ade565b90506000816001600160a01b0316637dc0d1d06040518163ffffffff1660e01b8152600401602060405180830381865afa158015612a40573d6000803e3d6000fd5b505050506040513d601f19601f82011682018060405250810190612a649190613ade565b60405163fc57d4df60e01b81526001600160a01b03868116600483015291925060009183169063fc57d4df90602401602060405180830381865afa158015612ab0573d6000803e3d6000fd5b505050506040513d601f19601f82011682018060405250810190612ad49190613bbd565b90506000836001600160a01b0316634a76e7276040518163ffffffff1660e01b8152600401600060405180830381865afa158015612b16573d6000803e3d6000fd5b505050506040513d6000823e601f3d908101601f19168201604052612b3e9190810190613a27565b905060005b8151811015612d81576000828281518110612b6057612b60613a11565b602002602001015190506000816001600160a01b031663f7c618c16040518163ffffffff1660e01b8152600401602060405180830381865afa158015612baa573d6000803e3d6000fd5b505050506040513d601f19601f82011682018060405250810190612bce9190613ade565b90506000612c41838b846001600160a01b031663313ce5676040518163ffffffff1660e01b8152600401602060405180830381865afa158015612c15573d6000803e3d6000fd5b505050506040513d601f19601f82011682018060405250810190612c399190613c9c565b60ff16612d8b565b6040516315d5220f60e31b81526001600160a01b038481166004830152919250600091612d639184918b169063aea9107890602401602060405180830381865afa158015612c93573d6000803e3d6000fd5b505050506040513d601f19601f82011682018060405250810190612cb79190613bbd565b898e6001600160a01b031663bd6d894d6040518163ffffffff1660e01b8152600401602060405180830381865afa158015612cf6573d6000803e3d6000fd5b505050506040513d601f19601f82011682018060405250810190612d1a9190613bbd565b60006001600160a01b0316896001600160a01b031663ab5497d76040518163ffffffff1660e01b8152600401602060405180830381865afa1580156124e0573d6000803e3d6000fd5b9050612d6f818b613c31565b99505060019093019250612b43915050565b5050505050919050565b60405163dde684a560e01b81526001600160a01b03808416600483015260009184918391829188169063dde684a59060240160408051808303816000875af1158015612ddb573d6000803e3d6000fd5b505050506040513d601f19601f82011682018060405250810190612dff9190613cfa565b604051632e6f912b60e21b81526001600160a01b038681166004830152600060248301529294509092509088169063b9be44ac906044016020604051808303816000875af1158015612e55573d6000803e3d6000fd5b505050506040513d601f19601f82011682018060405250810190612e799190613bbd565b5060405163dde684a560e01b81526001600160a01b03848116600483015260009182918a169063dde684a59060240160408051808303816000875af1158015612ec6573d6000803e3d6000fd5b505050506040513d601f19601f82011682018060405250810190612eea9190613cfa565b915091508263ffffffff168163ffffffff161115612f3b57612f0c8382613d3e565b63ffffffff16612f2e612f1f8685613d5b565b6001600160e01b031689612fd9565b612f389190613cbf565b95505b50505050509392505050565b600085600003612f5957506000612fd0565b6000612f658688613bd6565b90506000612f77826301e187e0613bd6565b90506000612f858783613cbf565b90506000612f9b82670de0b6b3a7640000613bd6565b90508086612fb457612fad8883613cbf565b9050612fc9565b612fc6670de0b6b3a764000083613cbf565b90505b9450505050505b95945050505050565b6000601282111561300957612fef601283613c89565b612ffa90600a613e5f565b6130049084613cbf565b61121a565b613014826012613c89565b61301f90600a613e5f565b61121a9084613bd6565b6001600160a01b038116811461303e57600080fd5b50565b6000806040838503121561305457600080fd5b823561305f81613029565b946020939093013593505050565b60008151808452602080850194506020840160005b838110156130a75781516001600160a01b031687529582019590820190600101613082565b509495945050505050565b60208152600061121a602083018461306d565b600080604083850312156130d857600080fd5b82356130e381613029565b915060208301356130f381613029565b809150509250929050565b60008151808452602080850194506020840160005b838110156130a757815187529582019590820190600101613113565b606080825284519082018190526000906020906080840190828801845b828110156131715781516001600160a01b03168452928401929084019060010161314c565b5050508381036020850152613186818761306d565b9150508281036040840152611b5b81856130fe565b60008083601f8401126131ad57600080fd5b5081356001600160401b038111156131c457600080fd5b6020830191508360208260051b85010111156131df57600080fd5b9250929050565b600080600080600080608087890312156131ff57600080fd5b863561320a81613029565b9550602087013561321a81613029565b945060408701356001600160401b038082111561323657600080fd5b6132428a838b0161319b565b9096509450606089013591508082111561325b57600080fd5b5061326889828a0161319b565b979a9699509497509295939492505050565b634e487b7160e01b600052604160045260246000fd5b60405160a081016001600160401b03811182821017156132b2576132b261327a565b60405290565b604051601f8201601f191681016001600160401b03811182821017156132e0576132e061327a565b604052919050565b60006001600160401b038211156133015761330161327a565b5060051b60200190565b600082601f83011261331c57600080fd5b8135602061333161332c836132e8565b6132b8565b8083825260208201915060208460051b87010193508684111561335357600080fd5b602086015b8481101561336f5780358352918301918301613358565b509695505050505050565b6000806000806080858703121561339057600080fd5b843561339b81613029565b9350602085810135935060408601356001600160401b03808211156133bf57600080fd5b818801915088601f8301126133d357600080fd5b81356133e161332c826132e8565b81815260059190911b8301840190848101908b83111561340057600080fd5b938501935b8285101561342757843561341881613029565b82529385019390850190613405565b96505050606088013592508083111561343f57600080fd5b505061344d8782880161330b565b91505092959194509250565b6000602080838503121561346c57600080fd5b82356001600160401b0381111561348257600080fd5b8301601f8101851361349357600080fd5b80356134a161332c826132e8565b81815260059190911b820183019083810190878311156134c057600080fd5b928401925b828410156134e75783356134d881613029565b825292840192908401906134c5565b979650505050505050565b60006020808301818452808551808352604092508286019150828160051b87010184880160005b838110156135c257888303603f19018552815180518452878101516001600160a01b03908116898601529087015160608886018190528151818701819052918a019290916080918288019160005b818110156135aa578651805185528e8101518f8601528d8101518e86015286810151841687860152850151831685850152958d019560a090930192600101613567565b505050978a0197955050509187019150600101613519565b509098975050505050505050565b600082601f8301126135e157600080fd5b813560206135f161332c836132e8565b8083825260208201915060208460051b87010193508684111561361357600080fd5b602086015b8481101561336f57803561362b81613029565b8352918301918301613618565b8035801515811461364857600080fd5b919050565b600082601f83011261365e57600080fd5b8135602061366e61332c836132e8565b8083825260208201915060208460051b87010193508684111561369057600080fd5b602086015b8481101561336f576136a681613638565b8352918301918301613695565b600080600080608085870312156136c957600080fd5b84356136d481613029565b93506020858101356001600160401b03808211156136f157600080fd5b818801915088601f83011261370557600080fd5b813561371361332c826132e8565b81815260059190911b8301840190848101908b83111561373257600080fd5b938501935b8285101561375957843561374a81613029565b82529385019390850190613737565b97505050604088013592508083111561377157600080fd5b61377d89848a016135d0565b9450606088013592508083111561379357600080fd5b505061344d8782880161364d565b6000602082840312156137b357600080fd5b813561121a81613029565b6040815260006137d1604083018561306d565b8281036020840152612fd081856130fe565b805161364881613029565b6000601f83601f84011261380157600080fd5b8251602061381161332c836132e8565b82815260059290921b8501810191818101908784111561383057600080fd5b8287015b8481101561394a5780516001600160401b03808211156138545760008081fd5b9089019060a0601f19838d03810182131561386f5760008081fd5b613877613290565b88850151848111156138895760008081fd5b8501603f81018f1361389b5760008081fd5b89810151858111156138af576138af61327a565b6138be8b858f840116016132b8565b9550808652604093508f848284010111156138d95760008081fd5b60005b818110156138f7578281018501518782018d01528b016138dc565b5060009086018b01525083815261390f8583016137e3565b89820152606093506139228486016137e3565b9181019190915260808481015193820193909352920151908201528352918301918301613834565b50979650505050505050565b6000806040838503121561396957600080fd5b82516001600160401b038082111561398057600080fd5b818501915085601f83011261399457600080fd5b815160206139a461332c836132e8565b82815260059290921b840181019181810190898411156139c357600080fd5b948201945b838610156139e1578551825294820194908201906139c8565b918801519196509093505050808211156139fa57600080fd5b50613a07858286016137ee565b9150509250929050565b634e487b7160e01b600052603260045260246000fd5b60006020808385031215613a3a57600080fd5b82516001600160401b03811115613a5057600080fd5b8301601f81018513613a6157600080fd5b8051613a6f61332c826132e8565b81815260059190911b82018301908381019087831115613a8e57600080fd5b928401925b828410156134e7578351613aa681613029565b82529284019290840190613a93565b634e487b7160e01b600052601160045260246000fd5b808201808211156101fe576101fe613ab5565b600060208284031215613af057600080fd5b815161121a81613029565b600060018201613b0d57613b0d613ab5565b5060010190565b60006020808385031215613b2757600080fd5b82516001600160401b03811115613b3d57600080fd5b8301601f81018513613b4e57600080fd5b8051613b5c61332c826132e8565b81815260059190911b82018301908381019087831115613b7b57600080fd5b928401925b828410156134e7578351613b9381613029565b82529284019290840190613b80565b600060208284031215613bb457600080fd5b61121a82613638565b600060208284031215613bcf57600080fd5b5051919050565b80820281158282048414176101fe576101fe613ab5565b634e487b7160e01b600052601260045260246000fd5b600082613c1257613c12613bed565b600160ff1b821460001984141615613c2c57613c2c613ab5565b500590565b8082018281126000831280158216821582161715613c5157613c51613ab5565b505092915050565b80820260008212600160ff1b84141615613c7557613c75613ab5565b81810583148215176101fe576101fe613ab5565b818103818111156101fe576101fe613ab5565b600060208284031215613cae57600080fd5b815160ff8116811461121a57600080fd5b600082613cce57613cce613bed565b500490565b8181036000831280158383131683831282161715613cf357613cf3613ab5565b5092915050565b60008060408385031215613d0d57600080fd5b82516001600160e01b0381168114613d2457600080fd5b602084015190925063ffffffff811681146130f357600080fd5b63ffffffff828116828216039080821115613cf357613cf3613ab5565b6001600160e01b03828116828216039080821115613cf357613cf3613ab5565b600181815b80851115613db6578160001904821115613d9c57613d9c613ab5565b80851615613da957918102915b93841c9390800290613d80565b509250929050565b600082613dcd575060016101fe565b81613dda575060006101fe565b8160018114613df05760028114613dfa57613e16565b60019150506101fe565b60ff841115613e0b57613e0b613ab5565b50506001821b6101fe565b5060208310610133831016604e8410600b8410161715613e39575081810a6101fe565b613e438383613d7b565b8060001904821115613e5757613e57613ab5565b029392505050565b600061121a8383613dbe56fea26469706673582212204bfdc0e618ca54d970c95f7b2bd2407a91cbb2b75daeeff2f00813d01e6f9be464736f6c63430008160033",
  "devdoc": {
    "kind": "dev",
    "methods": {},
    "version": 1
  },
  "userdoc": {
    "kind": "user",
    "methods": {},
    "version": 1
  },
  "storageLayout": {
    "storage": [
      {
        "astId": 24255,
        "contract": "contracts/ionic/strategies/flywheel/IonicFlywheelLensRouter.sol:IonicFlywheelLensRouter",
        "label": "fpd",
        "offset": 0,
        "slot": "0",
        "type": "t_contract(PoolDirectory)6313"
      }
    ],
    "types": {
      "t_contract(PoolDirectory)6313": {
        "encoding": "inplace",
        "label": "contract PoolDirectory",
        "numberOfBytes": "20"
      }
    }
  }
}