{
  "address": "0xb6c55DF813C38635665151eE504837E1316f3654",
  "abi": [
    {
      "inputs": [],
      "stateMutability": "nonpayable",
      "type": "constructor"
    },
    {
      "inputs": [],
      "name": "AeroBoostAmountMustBeGreaterThanZero",
      "type": "error"
    },
    {
      "inputs": [],
      "name": "AlreadyVoted",
      "type": "error"
    },
    {
      "inputs": [],
      "name": "AmountTooBig",
      "type": "error"
    },
    {
      "inputs": [],
      "name": "ArrayMismatch",
      "type": "error"
    },
    {
      "inputs": [],
      "name": "BoostAmountMustBeGreaterThanZero",
      "type": "error"
    },
    {
      "inputs": [],
      "name": "DuplicateAsset",
      "type": "error"
    },
    {
      "inputs": [],
      "name": "InvalidAddress",
      "type": "error"
    },
    {
      "inputs": [],
      "name": "InvalidStrategyAddress",
      "type": "error"
    },
    {
      "inputs": [],
      "name": "InvalidTokenAddress",
      "type": "error"
    },
    {
      "inputs": [],
      "name": "InvalidVeAEROAddress",
      "type": "error"
    },
    {
      "inputs": [],
      "name": "LockDurationNotInFuture",
      "type": "error"
    },
    {
      "inputs": [],
      "name": "LockDurationTooLong",
      "type": "error"
    },
    {
      "inputs": [],
      "name": "LockDurationTooShort",
      "type": "error"
    },
    {
      "inputs": [],
      "name": "LockExpired",
      "type": "error"
    },
    {
      "inputs": [],
      "name": "MaxEarlyWithdrawFeeMustBeGreaterThanZero",
      "type": "error"
    },
    {
      "inputs": [],
      "name": "MinimumAmountMustBeGreaterThanZero",
      "type": "error"
    },
    {
      "inputs": [],
      "name": "MinimumLockDurationMustBeGreaterThanZero",
      "type": "error"
    },
    {
      "inputs": [],
      "name": "MinimumNotMet",
      "type": "error"
    },
    {
      "inputs": [
        {
          "internalType": "uint256",
          "name": "_tokenId1",
          "type": "uint256"
        },
        {
          "internalType": "uint256",
          "name": "_tokenId2",
          "type": "uint256"
        }
      ],
      "name": "NoDelegationBetweenTokens",
      "type": "error"
    },
    {
      "inputs": [],
      "name": "NoLockFound",
      "type": "error"
    },
    {
      "inputs": [],
      "name": "NoUnderlyingStake",
      "type": "error"
    },
    {
      "inputs": [],
      "name": "NotAcceptingDelegators",
      "type": "error"
    },
    {
      "inputs": [],
      "name": "NotEnoughRemainingAfterSplit",
      "type": "error"
    },
    {
      "inputs": [],
      "name": "NotOwner",
      "type": "error"
    },
    {
      "inputs": [],
      "name": "NotPermanentLock",
      "type": "error"
    },
    {
      "inputs": [],
      "name": "NotVoter",
      "type": "error"
    },
    {
      "inputs": [],
      "name": "PermanentLock",
      "type": "error"
    },
    {
      "inputs": [],
      "name": "SameNFT",
      "type": "error"
    },
    {
      "inputs": [],
      "name": "SplitNotAllowed",
      "type": "error"
    },
    {
      "inputs": [],
      "name": "SplitTooSmall",
      "type": "error"
    },
    {
      "inputs": [],
      "name": "TokenHasDelegatees",
      "type": "error"
    },
    {
      "inputs": [],
      "name": "TokenHasDelegators",
      "type": "error"
    },
    {
      "inputs": [],
      "name": "TokenNotWhitelisted",
      "type": "error"
    },
    {
      "inputs": [],
      "name": "ZeroAmount",
      "type": "error"
    },
    {
      "anonymous": false,
      "inputs": [
        {
          "indexed": false,
          "internalType": "uint256",
          "name": "newAeroVoterBoost",
          "type": "uint256"
        }
      ],
      "name": "AeroVoterBoostSet",
      "type": "event"
    },
    {
      "anonymous": false,
      "inputs": [
        {
          "indexed": true,
          "internalType": "address",
          "name": "newAeroVoting",
          "type": "address"
        }
      ],
      "name": "AeroVotingSet",
      "type": "event"
    },
    {
      "anonymous": false,
      "inputs": [
        {
          "indexed": true,
          "internalType": "address",
          "name": "owner",
          "type": "address"
        },
        {
          "indexed": true,
          "internalType": "address",
          "name": "approved",
          "type": "address"
        },
        {
          "indexed": true,
          "internalType": "uint256",
          "name": "tokenId",
          "type": "uint256"
        }
      ],
      "name": "Approval",
      "type": "event"
    },
    {
      "anonymous": false,
      "inputs": [
        {
          "indexed": true,
          "internalType": "address",
          "name": "owner",
          "type": "address"
        },
        {
          "indexed": true,
          "internalType": "address",
          "name": "operator",
          "type": "address"
        },
        {
          "indexed": false,
          "internalType": "bool",
          "name": "approved",
          "type": "bool"
        }
      ],
      "name": "ApprovalForAll",
      "type": "event"
    },
    {
      "anonymous": false,
      "inputs": [
        {
          "indexed": true,
          "internalType": "uint256",
          "name": "fromTokenId",
          "type": "uint256"
        },
        {
          "indexed": true,
          "internalType": "uint256",
          "name": "toTokenId",
          "type": "uint256"
        },
        {
          "indexed": false,
          "internalType": "address",
          "name": "lpToken",
          "type": "address"
        },
        {
          "indexed": false,
          "internalType": "uint256",
          "name": "amount",
          "type": "uint256"
        }
      ],
      "name": "Delegated",
      "type": "event"
    },
    {
      "anonymous": false,
      "inputs": [
        {
          "indexed": true,
          "internalType": "uint256",
          "name": "fromTokenId",
          "type": "uint256"
        },
        {
          "indexed": true,
          "internalType": "uint256",
          "name": "toTokenId",
          "type": "uint256"
        },
        {
          "indexed": false,
          "internalType": "address",
          "name": "lpToken",
          "type": "address"
        },
        {
          "indexed": false,
          "internalType": "uint256",
          "name": "amount",
          "type": "uint256"
        }
      ],
      "name": "DelegationRemoved",
      "type": "event"
    },
    {
      "anonymous": false,
      "inputs": [
        {
          "indexed": true,
          "internalType": "uint256",
          "name": "_tokenId",
          "type": "uint256"
        },
        {
          "indexed": true,
          "internalType": "address",
          "name": "_lpToken",
          "type": "address"
        },
        {
          "indexed": false,
          "internalType": "bool",
          "name": "_blocked",
          "type": "bool"
        }
      ],
      "name": "DelegatorsBlocked",
      "type": "event"
    },
    {
      "anonymous": false,
      "inputs": [
        {
          "indexed": true,
          "internalType": "address",
          "name": "provider",
          "type": "address"
        },
        {
          "indexed": true,
          "internalType": "uint256",
          "name": "tokenId",
          "type": "uint256"
        },
        {
          "indexed": true,
          "internalType": "enum IveIONStructsEnumsErrorsEvents.DepositType",
          "name": "depositType",
          "type": "uint8"
        },
        {
          "indexed": false,
          "internalType": "uint256",
          "name": "value",
          "type": "uint256"
        },
        {
          "indexed": false,
          "internalType": "uint256",
          "name": "locktime",
          "type": "uint256"
        },
        {
          "indexed": false,
          "internalType": "uint256",
          "name": "ts",
          "type": "uint256"
        }
      ],
      "name": "Deposit",
      "type": "event"
    },
    {
      "anonymous": false,
      "inputs": [
        {
          "indexed": true,
          "internalType": "address",
          "name": "tokenAddress",
          "type": "address"
        },
        {
          "indexed": true,
          "internalType": "address",
          "name": "recipient",
          "type": "address"
        },
        {
          "indexed": false,
          "internalType": "uint256",
          "name": "amount",
          "type": "uint256"
        }
      ],
      "name": "DistributedFeesWithdrawn",
      "type": "event"
    },
    {
      "anonymous": false,
      "inputs": [
        {
          "indexed": true,
          "internalType": "address",
          "name": "claimant",
          "type": "address"
        },
        {
          "indexed": true,
          "internalType": "address",
          "name": "tokenAddress",
          "type": "address"
        }
      ],
      "name": "EmissionsClaimed",
      "type": "event"
    },
    {
      "anonymous": false,
      "inputs": [
        {
          "indexed": true,
          "internalType": "address",
          "name": "_firstExtension",
          "type": "address"
        },
        {
          "indexed": true,
          "internalType": "address",
          "name": "_secondExtension",
          "type": "address"
        }
      ],
      "name": "ExtensionsSet",
      "type": "event"
    },
    {
      "anonymous": false,
      "inputs": [
        {
          "indexed": false,
          "internalType": "uint8",
          "name": "version",
          "type": "uint8"
        }
      ],
      "name": "Initialized",
      "type": "event"
    },
    {
      "anonymous": false,
      "inputs": [
        {
          "indexed": true,
          "internalType": "address",
          "name": "addressesProvider",
          "type": "address"
        }
      ],
      "name": "Initialized",
      "type": "event"
    },
    {
      "anonymous": false,
      "inputs": [
        {
          "indexed": true,
          "internalType": "address",
          "name": "newIonicPool",
          "type": "address"
        }
      ],
      "name": "IonicPoolSet",
      "type": "event"
    },
    {
      "anonymous": false,
      "inputs": [
        {
          "indexed": false,
          "internalType": "bool",
          "name": "isBoosted",
          "type": "bool"
        }
      ],
      "name": "LimitedBoostToggled",
      "type": "event"
    },
    {
      "anonymous": false,
      "inputs": [
        {
          "indexed": false,
          "internalType": "uint256",
          "name": "boostAmount",
          "type": "uint256"
        }
      ],
      "name": "LimitedTimeBoostSet",
      "type": "event"
    },
    {
      "anonymous": false,
      "inputs": [
        {
          "indexed": true,
          "internalType": "address",
          "name": "token",
          "type": "address"
        },
        {
          "indexed": false,
          "internalType": "enum IveIONStructsEnumsErrorsEvents.LpTokenType",
          "name": "lpTokenType",
          "type": "uint8"
        }
      ],
      "name": "LpTokenTypeSet",
      "type": "event"
    },
    {
      "anonymous": false,
      "inputs": [
        {
          "indexed": false,
          "internalType": "uint256",
          "name": "maxEarlyWithdrawFee",
          "type": "uint256"
        }
      ],
      "name": "MaxEarlyWithdrawFeeSet",
      "type": "event"
    },
    {
      "anonymous": false,
      "inputs": [
        {
          "indexed": true,
          "internalType": "uint256",
          "name": "fromTokenId",
          "type": "uint256"
        },
        {
          "indexed": true,
          "internalType": "uint256",
          "name": "toTokenId",
          "type": "uint256"
        },
        {
          "indexed": false,
          "internalType": "address[]",
          "name": "assetsLocked",
          "type": "address[]"
        },
        {
          "indexed": false,
          "internalType": "uint256",
          "name": "lengthOfAssets",
          "type": "uint256"
        }
      ],
      "name": "MergeCompleted",
      "type": "event"
    },
    {
      "anonymous": false,
      "inputs": [
        {
          "indexed": true,
          "internalType": "address",
          "name": "tokenAddress",
          "type": "address"
        },
        {
          "indexed": false,
          "internalType": "uint256",
          "name": "minimumAmount",
          "type": "uint256"
        }
      ],
      "name": "MinimumLockAmountSet",
      "type": "event"
    },
    {
      "anonymous": false,
      "inputs": [
        {
          "indexed": false,
          "internalType": "uint256",
          "name": "minimumDuration",
          "type": "uint256"
        }
      ],
      "name": "MinimumLockDurationSet",
      "type": "event"
    },
    {
      "anonymous": false,
      "inputs": [
        {
          "indexed": true,
          "internalType": "address",
          "name": "previousOwner",
          "type": "address"
        },
        {
          "indexed": true,
          "internalType": "address",
          "name": "newOwner",
          "type": "address"
        }
      ],
      "name": "OwnershipTransferStarted",
      "type": "event"
    },
    {
      "anonymous": false,
      "inputs": [
        {
          "indexed": true,
          "internalType": "address",
          "name": "previousOwner",
          "type": "address"
        },
        {
          "indexed": true,
          "internalType": "address",
          "name": "newOwner",
          "type": "address"
        }
      ],
      "name": "OwnershipTransferred",
      "type": "event"
    },
    {
      "anonymous": false,
      "inputs": [
        {
          "indexed": true,
          "internalType": "address",
          "name": "tokenAddress",
          "type": "address"
        },
        {
          "indexed": true,
          "internalType": "uint256",
          "name": "tokenId",
          "type": "uint256"
        },
        {
          "indexed": false,
          "internalType": "uint256",
          "name": "amount",
          "type": "uint256"
        }
      ],
      "name": "PermanentLockCreated",
      "type": "event"
    },
    {
      "anonymous": false,
      "inputs": [
        {
          "indexed": true,
          "internalType": "address",
          "name": "tokenAddress",
          "type": "address"
        },
        {
          "indexed": true,
          "internalType": "uint256",
          "name": "tokenId",
          "type": "uint256"
        },
        {
          "indexed": false,
          "internalType": "uint256",
          "name": "amount",
          "type": "uint256"
        }
      ],
      "name": "PermanentLockRemoved",
      "type": "event"
    },
    {
      "anonymous": false,
      "inputs": [
        {
          "indexed": true,
          "internalType": "address",
          "name": "tokenAddress",
          "type": "address"
        },
        {
          "indexed": true,
          "internalType": "address",
          "name": "recipient",
          "type": "address"
        },
        {
          "indexed": false,
          "internalType": "uint256",
          "name": "amount",
          "type": "uint256"
        }
      ],
      "name": "ProtocolFeesWithdrawn",
      "type": "event"
    },
    {
      "anonymous": false,
      "inputs": [
        {
          "indexed": true,
          "internalType": "uint256",
          "name": "fromTokenId",
          "type": "uint256"
        },
        {
          "indexed": true,
          "internalType": "uint256",
          "name": "tokenId1",
          "type": "uint256"
        },
        {
          "indexed": true,
          "internalType": "uint256",
          "name": "tokenId2",
          "type": "uint256"
        },
        {
          "indexed": false,
          "internalType": "uint256",
          "name": "splitAmount",
          "type": "uint256"
        },
        {
          "indexed": false,
          "internalType": "address",
          "name": "tokenAddress",
          "type": "address"
        }
      ],
      "name": "SplitCompleted",
      "type": "event"
    },
    {
      "anonymous": false,
      "inputs": [
        {
          "indexed": true,
          "internalType": "address",
          "name": "account",
          "type": "address"
        },
        {
          "indexed": false,
          "internalType": "bool",
          "name": "isAllowed",
          "type": "bool"
        }
      ],
      "name": "SplitToggle",
      "type": "event"
    },
    {
      "anonymous": false,
      "inputs": [
        {
          "indexed": true,
          "internalType": "enum IveIONStructsEnumsErrorsEvents.LpTokenType",
          "name": "lpTokenType",
          "type": "uint8"
        },
        {
          "indexed": true,
          "internalType": "address",
          "name": "strategy",
          "type": "address"
        }
      ],
      "name": "StakeStrategySet",
      "type": "event"
    },
    {
      "anonymous": false,
      "inputs": [
        {
          "indexed": false,
          "internalType": "uint256",
          "name": "prevSupply",
          "type": "uint256"
        },
        {
          "indexed": false,
          "internalType": "uint256",
          "name": "supply",
          "type": "uint256"
        }
      ],
      "name": "Supply",
      "type": "event"
    },
    {
      "anonymous": false,
      "inputs": [
        {
          "indexed": false,
          "internalType": "address[]",
          "name": "token",
          "type": "address[]"
        },
        {
          "indexed": false,
          "internalType": "bool[]",
          "name": "isWhitelisted",
          "type": "bool[]"
        }
      ],
      "name": "TokensWhitelisted",
      "type": "event"
    },
    {
      "anonymous": false,
      "inputs": [
        {
          "indexed": true,
          "internalType": "address",
          "name": "from",
          "type": "address"
        },
        {
          "indexed": true,
          "internalType": "address",
          "name": "to",
          "type": "address"
        },
        {
          "indexed": true,
          "internalType": "uint256",
          "name": "tokenId",
          "type": "uint256"
        }
      ],
      "name": "Transfer",
      "type": "event"
    },
    {
      "anonymous": false,
      "inputs": [
        {
          "indexed": true,
          "internalType": "address",
          "name": "veAERO",
          "type": "address"
        }
      ],
      "name": "VeAEROSet",
      "type": "event"
    },
    {
      "anonymous": false,
      "inputs": [
        {
          "indexed": false,
          "internalType": "uint256",
          "name": "_tokenId",
          "type": "uint256"
        },
        {
          "indexed": false,
          "internalType": "bool",
          "name": "_voting",
          "type": "bool"
        }
      ],
      "name": "Voted",
      "type": "event"
    },
    {
      "anonymous": false,
      "inputs": [
        {
          "indexed": true,
          "internalType": "address",
          "name": "newVoter",
          "type": "address"
        }
      ],
      "name": "VoterSet",
      "type": "event"
    },
    {
      "anonymous": false,
      "inputs": [
        {
          "indexed": true,
          "internalType": "address",
          "name": "provider",
          "type": "address"
        },
        {
          "indexed": true,
          "internalType": "uint256",
          "name": "tokenId",
          "type": "uint256"
        },
        {
          "indexed": false,
          "internalType": "uint256",
          "name": "value",
          "type": "uint256"
        },
        {
          "indexed": false,
          "internalType": "uint256",
          "name": "ts",
          "type": "uint256"
        }
      ],
      "name": "Withdraw",
      "type": "event"
    },
    {
      "inputs": [],
      "name": "PRECISION",
      "outputs": [
        {
          "internalType": "uint256",
          "name": "",
          "type": "uint256"
        }
      ],
      "stateMutability": "view",
      "type": "function"
    },
    {
      "inputs": [],
      "name": "acceptOwnership",
      "outputs": [],
      "stateMutability": "nonpayable",
      "type": "function"
    },
    {
      "inputs": [],
      "name": "ap",
      "outputs": [
        {
          "internalType": "contract IAddressesProvider",
          "name": "",
          "type": "address"
        }
      ],
      "stateMutability": "view",
      "type": "function"
    },
    {
      "inputs": [
        {
          "internalType": "address",
          "name": "to",
          "type": "address"
        },
        {
          "internalType": "uint256",
          "name": "tokenId",
          "type": "uint256"
        }
      ],
      "name": "approve",
      "outputs": [],
      "stateMutability": "nonpayable",
      "type": "function"
    },
    {
      "inputs": [
        {
          "internalType": "address",
          "name": "owner",
          "type": "address"
        }
      ],
      "name": "balanceOf",
      "outputs": [
        {
          "internalType": "uint256",
          "name": "",
          "type": "uint256"
        }
      ],
      "stateMutability": "view",
      "type": "function"
    },
    {
      "inputs": [
        {
          "internalType": "uint256",
          "name": "tokenId",
          "type": "uint256"
        }
      ],
      "name": "getApproved",
      "outputs": [
        {
          "internalType": "address",
          "name": "",
          "type": "address"
        }
      ],
      "stateMutability": "view",
      "type": "function"
    },
    {
      "inputs": [
        {
          "internalType": "uint256",
          "name": "_tokenId",
          "type": "uint256"
        }
      ],
      "name": "getAssetsLocked",
      "outputs": [
        {
          "internalType": "address[]",
          "name": "",
          "type": "address[]"
        }
      ],
      "stateMutability": "view",
      "type": "function"
    },
    {
      "inputs": [
        {
          "internalType": "uint256",
          "name": "_tokenId",
          "type": "uint256"
        },
        {
          "internalType": "enum IveIONStructsEnumsErrorsEvents.LpTokenType",
          "name": "_lpType",
          "type": "uint8"
        }
      ],
      "name": "getDelegatees",
      "outputs": [
        {
          "internalType": "uint256[]",
          "name": "",
          "type": "uint256[]"
        }
      ],
      "stateMutability": "view",
      "type": "function"
    },
    {
      "inputs": [
        {
          "internalType": "uint256",
          "name": "_tokenId",
          "type": "uint256"
        },
        {
          "internalType": "enum IveIONStructsEnumsErrorsEvents.LpTokenType",
          "name": "_lpType",
          "type": "uint8"
        }
      ],
      "name": "getDelegators",
      "outputs": [
        {
          "internalType": "uint256[]",
          "name": "",
          "type": "uint256[]"
        }
      ],
      "stateMutability": "view",
      "type": "function"
    },
    {
      "inputs": [
        {
          "internalType": "address",
          "name": "_owner",
          "type": "address"
        }
      ],
      "name": "getOwnedTokenIds",
      "outputs": [
        {
          "internalType": "uint256[]",
          "name": "",
          "type": "uint256[]"
        }
      ],
      "stateMutability": "view",
      "type": "function"
    },
    {
      "inputs": [
        {
          "internalType": "uint256",
          "name": "_tokenId",
          "type": "uint256"
        },
        {
          "internalType": "enum IveIONStructsEnumsErrorsEvents.LpTokenType",
          "name": "_lpType",
          "type": "uint8"
        }
      ],
      "name": "getUserLock",
      "outputs": [
        {
          "components": [
            {
              "internalType": "address",
              "name": "tokenAddress",
              "type": "address"
            },
            {
              "internalType": "uint256",
              "name": "amount",
              "type": "uint256"
            },
            {
              "internalType": "uint256",
              "name": "delegateAmount",
              "type": "uint256"
            },
            {
              "internalType": "uint256",
              "name": "start",
              "type": "uint256"
            },
            {
              "internalType": "uint256",
              "name": "end",
              "type": "uint256"
            },
            {
              "internalType": "bool",
              "name": "isPermanent",
              "type": "bool"
            },
            {
              "internalType": "uint256",
              "name": "boost",
              "type": "uint256"
            }
          ],
          "internalType": "struct IveIONStructsEnumsErrorsEvents.LockedBalance",
          "name": "",
          "type": "tuple"
        }
      ],
      "stateMutability": "view",
      "type": "function"
    },
    {
      "inputs": [
        {
          "internalType": "uint256",
          "name": "_tokenId",
          "type": "uint256"
        },
        {
          "internalType": "enum IveIONStructsEnumsErrorsEvents.LpTokenType",
          "name": "_lpType",
          "type": "uint8"
        },
        {
          "internalType": "uint256",
          "name": "_epoch",
          "type": "uint256"
        }
      ],
      "name": "getUserPoint",
      "outputs": [
        {
          "components": [
            {
              "internalType": "uint256",
              "name": "bias",
              "type": "uint256"
            },
            {
              "internalType": "uint256",
              "name": "slope",
              "type": "uint256"
            },
            {
              "internalType": "uint256",
              "name": "ts",
              "type": "uint256"
            },
            {
              "internalType": "uint256",
              "name": "blk",
              "type": "uint256"
            },
            {
              "internalType": "uint256",
              "name": "permanent",
              "type": "uint256"
            },
            {
              "internalType": "uint256",
              "name": "permanentDelegate",
              "type": "uint256"
            }
          ],
          "internalType": "struct IveIONStructsEnumsErrorsEvents.UserPoint",
          "name": "",
          "type": "tuple"
        }
      ],
      "stateMutability": "view",
      "type": "function"
    },
    {
      "inputs": [
        {
          "internalType": "address",
          "name": "owner",
          "type": "address"
        },
        {
          "internalType": "address",
          "name": "operator",
          "type": "address"
        }
      ],
      "name": "isApprovedForAll",
      "outputs": [
        {
          "internalType": "bool",
          "name": "",
          "type": "bool"
        }
      ],
      "stateMutability": "view",
      "type": "function"
    },
    {
      "inputs": [],
      "name": "name",
      "outputs": [
        {
          "internalType": "string",
          "name": "",
          "type": "string"
        }
      ],
      "stateMutability": "view",
      "type": "function"
    },
    {
      "inputs": [],
      "name": "owner",
      "outputs": [
        {
          "internalType": "address",
          "name": "",
          "type": "address"
        }
      ],
      "stateMutability": "view",
      "type": "function"
    },
    {
      "inputs": [
        {
          "internalType": "uint256",
          "name": "tokenId",
          "type": "uint256"
        }
      ],
      "name": "ownerOf",
      "outputs": [
        {
          "internalType": "address",
          "name": "",
          "type": "address"
        }
      ],
      "stateMutability": "view",
      "type": "function"
    },
    {
      "inputs": [],
      "name": "pendingOwner",
      "outputs": [
        {
          "internalType": "address",
          "name": "",
          "type": "address"
        }
      ],
      "stateMutability": "view",
      "type": "function"
    },
    {
      "inputs": [],
      "name": "renounceOwnership",
      "outputs": [],
      "stateMutability": "nonpayable",
      "type": "function"
    },
    {
      "inputs": [],
      "name": "s_aeroVoterBoost",
      "outputs": [
        {
          "internalType": "uint256",
          "name": "",
          "type": "uint256"
        }
      ],
      "stateMutability": "view",
      "type": "function"
    },
    {
      "inputs": [],
      "name": "s_aeroVoting",
      "outputs": [
        {
          "internalType": "address",
          "name": "",
          "type": "address"
        }
      ],
      "stateMutability": "view",
      "type": "function"
    },
    {
      "inputs": [
        {
          "internalType": "address",
          "name": "",
          "type": "address"
        }
      ],
      "name": "s_canSplit",
      "outputs": [
        {
          "internalType": "bool",
          "name": "",
          "type": "bool"
        }
      ],
      "stateMutability": "view",
      "type": "function"
    },
    {
      "inputs": [
        {
          "internalType": "uint256",
          "name": "",
          "type": "uint256"
        },
        {
          "internalType": "uint256",
          "name": "",
          "type": "uint256"
        },
        {
          "internalType": "enum IveIONStructsEnumsErrorsEvents.LpTokenType",
          "name": "",
          "type": "uint8"
        }
      ],
      "name": "s_delegations",
      "outputs": [
        {
          "internalType": "uint256",
          "name": "",
          "type": "uint256"
        }
      ],
      "stateMutability": "view",
      "type": "function"
    },
    {
      "inputs": [
        {
          "internalType": "uint256",
          "name": "",
          "type": "uint256"
        },
        {
          "internalType": "address",
          "name": "",
          "type": "address"
        }
      ],
      "name": "s_delegatorsBlocked",
      "outputs": [
        {
          "internalType": "bool",
          "name": "",
          "type": "bool"
        }
      ],
      "stateMutability": "view",
      "type": "function"
    },
    {
      "inputs": [
        {
          "internalType": "enum IveIONStructsEnumsErrorsEvents.LpTokenType",
          "name": "",
          "type": "uint8"
        }
      ],
      "name": "s_distributedFees",
      "outputs": [
        {
          "internalType": "uint256",
          "name": "",
          "type": "uint256"
        }
      ],
      "stateMutability": "view",
      "type": "function"
    },
    {
      "inputs": [],
      "name": "s_ionicPool",
      "outputs": [
        {
          "internalType": "address",
          "name": "",
          "type": "address"
        }
      ],
      "stateMutability": "view",
      "type": "function"
    },
    {
      "inputs": [],
      "name": "s_limitedBoost",
      "outputs": [
        {
          "internalType": "uint256",
          "name": "",
          "type": "uint256"
        }
      ],
      "stateMutability": "view",
      "type": "function"
    },
    {
      "inputs": [],
      "name": "s_limitedBoostActive",
      "outputs": [
        {
          "internalType": "bool",
          "name": "",
          "type": "bool"
        }
      ],
      "stateMutability": "view",
      "type": "function"
    },
    {
      "inputs": [
        {
          "internalType": "uint256",
          "name": "",
          "type": "uint256"
        },
        {
          "internalType": "enum IveIONStructsEnumsErrorsEvents.LpTokenType",
          "name": "",
          "type": "uint8"
        }
      ],
      "name": "s_locked",
      "outputs": [
        {
          "internalType": "address",
          "name": "tokenAddress",
          "type": "address"
        },
        {
          "internalType": "uint256",
          "name": "amount",
          "type": "uint256"
        },
        {
          "internalType": "uint256",
          "name": "delegateAmount",
          "type": "uint256"
        },
        {
          "internalType": "uint256",
          "name": "start",
          "type": "uint256"
        },
        {
          "internalType": "uint256",
          "name": "end",
          "type": "uint256"
        },
        {
          "internalType": "bool",
          "name": "isPermanent",
          "type": "bool"
        },
        {
          "internalType": "uint256",
          "name": "boost",
          "type": "uint256"
        }
      ],
      "stateMutability": "view",
      "type": "function"
    },
    {
      "inputs": [
        {
          "internalType": "address",
          "name": "",
          "type": "address"
        }
      ],
      "name": "s_lpType",
      "outputs": [
        {
          "internalType": "enum IveIONStructsEnumsErrorsEvents.LpTokenType",
          "name": "",
          "type": "uint8"
        }
      ],
      "stateMutability": "view",
      "type": "function"
    },
    {
      "inputs": [],
      "name": "s_maxEarlyWithdrawFee",
      "outputs": [
        {
          "internalType": "uint256",
          "name": "",
          "type": "uint256"
        }
      ],
      "stateMutability": "view",
      "type": "function"
    },
    {
      "inputs": [
        {
          "internalType": "enum IveIONStructsEnumsErrorsEvents.LpTokenType",
          "name": "",
          "type": "uint8"
        }
      ],
      "name": "s_minimumLockAmount",
      "outputs": [
        {
          "internalType": "uint256",
          "name": "",
          "type": "uint256"
        }
      ],
      "stateMutability": "view",
      "type": "function"
    },
    {
      "inputs": [],
      "name": "s_minimumLockDuration",
      "outputs": [
        {
          "internalType": "uint256",
          "name": "",
          "type": "uint256"
        }
      ],
      "stateMutability": "view",
      "type": "function"
    },
    {
      "inputs": [
        {
          "internalType": "enum IveIONStructsEnumsErrorsEvents.LpTokenType",
          "name": "",
          "type": "uint8"
        }
      ],
      "name": "s_permanentLockBalance",
      "outputs": [
        {
          "internalType": "uint256",
          "name": "",
          "type": "uint256"
        }
      ],
      "stateMutability": "view",
      "type": "function"
    },
    {
      "inputs": [
        {
          "internalType": "enum IveIONStructsEnumsErrorsEvents.LpTokenType",
          "name": "",
          "type": "uint8"
        }
      ],
      "name": "s_protocolFees",
      "outputs": [
        {
          "internalType": "uint256",
          "name": "",
          "type": "uint256"
        }
      ],
      "stateMutability": "view",
      "type": "function"
    },
    {
      "inputs": [
        {
          "internalType": "enum IveIONStructsEnumsErrorsEvents.LpTokenType",
          "name": "",
          "type": "uint8"
        }
      ],
      "name": "s_stakeStrategy",
      "outputs": [
        {
          "internalType": "contract IStakeStrategy",
          "name": "",
          "type": "address"
        }
      ],
      "stateMutability": "view",
      "type": "function"
    },
    {
      "inputs": [
        {
          "internalType": "enum IveIONStructsEnumsErrorsEvents.LpTokenType",
          "name": "",
          "type": "uint8"
        }
      ],
      "name": "s_supply",
      "outputs": [
        {
          "internalType": "uint256",
          "name": "",
          "type": "uint256"
        }
      ],
      "stateMutability": "view",
      "type": "function"
    },
    {
      "inputs": [],
      "name": "s_tokenId",
      "outputs": [
        {
          "internalType": "uint256",
          "name": "",
          "type": "uint256"
        }
      ],
      "stateMutability": "view",
      "type": "function"
    },
    {
      "inputs": [
        {
          "internalType": "uint256",
          "name": "",
          "type": "uint256"
        },
        {
          "internalType": "address",
          "name": "",
          "type": "address"
        }
      ],
      "name": "s_underlyingStake",
      "outputs": [
        {
          "internalType": "uint256",
          "name": "",
          "type": "uint256"
        }
      ],
      "stateMutability": "view",
      "type": "function"
    },
    {
      "inputs": [
        {
          "internalType": "address",
          "name": "",
          "type": "address"
        },
        {
          "internalType": "address",
          "name": "",
          "type": "address"
        }
      ],
      "name": "s_userCumulativeAssetValues",
      "outputs": [
        {
          "internalType": "uint256",
          "name": "",
          "type": "uint256"
        }
      ],
      "stateMutability": "view",
      "type": "function"
    },
    {
      "inputs": [
        {
          "internalType": "uint256",
          "name": "",
          "type": "uint256"
        },
        {
          "internalType": "enum IveIONStructsEnumsErrorsEvents.LpTokenType",
          "name": "",
          "type": "uint8"
        }
      ],
      "name": "s_userPointEpoch",
      "outputs": [
        {
          "internalType": "uint256",
          "name": "",
          "type": "uint256"
        }
      ],
      "stateMutability": "view",
      "type": "function"
    },
    {
      "inputs": [
        {
          "internalType": "uint256",
          "name": "",
          "type": "uint256"
        },
        {
          "internalType": "enum IveIONStructsEnumsErrorsEvents.LpTokenType",
          "name": "",
          "type": "uint8"
        },
        {
          "internalType": "uint256",
          "name": "",
          "type": "uint256"
        }
      ],
      "name": "s_userPointHistory",
      "outputs": [
        {
          "internalType": "uint256",
          "name": "bias",
          "type": "uint256"
        },
        {
          "internalType": "uint256",
          "name": "slope",
          "type": "uint256"
        },
        {
          "internalType": "uint256",
          "name": "ts",
          "type": "uint256"
        },
        {
          "internalType": "uint256",
          "name": "blk",
          "type": "uint256"
        },
        {
          "internalType": "uint256",
          "name": "permanent",
          "type": "uint256"
        },
        {
          "internalType": "uint256",
          "name": "permanentDelegate",
          "type": "uint256"
        }
      ],
      "stateMutability": "view",
      "type": "function"
    },
    {
      "inputs": [],
      "name": "s_veAERO",
      "outputs": [
        {
          "internalType": "address",
          "name": "",
          "type": "address"
        }
      ],
      "stateMutability": "view",
      "type": "function"
    },
    {
      "inputs": [
        {
          "internalType": "uint256",
          "name": "",
          "type": "uint256"
        }
      ],
      "name": "s_voted",
      "outputs": [
        {
          "internalType": "bool",
          "name": "",
          "type": "bool"
        }
      ],
      "stateMutability": "view",
      "type": "function"
    },
    {
      "inputs": [],
      "name": "s_voter",
      "outputs": [
        {
          "internalType": "address",
          "name": "",
          "type": "address"
        }
      ],
      "stateMutability": "view",
      "type": "function"
    },
    {
      "inputs": [
        {
          "internalType": "address",
          "name": "",
          "type": "address"
        }
      ],
      "name": "s_whitelistedToken",
      "outputs": [
        {
          "internalType": "bool",
          "name": "",
          "type": "bool"
        }
      ],
      "stateMutability": "view",
      "type": "function"
    },
    {
      "inputs": [
        {
          "internalType": "address",
          "name": "from",
          "type": "address"
        },
        {
          "internalType": "address",
          "name": "to",
          "type": "address"
        },
        {
          "internalType": "uint256",
          "name": "tokenId",
          "type": "uint256"
        }
      ],
      "name": "safeTransferFrom",
      "outputs": [],
      "stateMutability": "nonpayable",
      "type": "function"
    },
    {
      "inputs": [
        {
          "internalType": "address",
          "name": "from",
          "type": "address"
        },
        {
          "internalType": "address",
          "name": "to",
          "type": "address"
        },
        {
          "internalType": "uint256",
          "name": "tokenId",
          "type": "uint256"
        },
        {
          "internalType": "bytes",
          "name": "data",
          "type": "bytes"
        }
      ],
      "name": "safeTransferFrom",
      "outputs": [],
      "stateMutability": "nonpayable",
      "type": "function"
    },
    {
      "inputs": [
        {
          "internalType": "uint256",
          "name": "_aeroVoterBoost",
          "type": "uint256"
        }
      ],
      "name": "setAeroVoterBoost",
      "outputs": [],
      "stateMutability": "nonpayable",
      "type": "function"
    },
    {
      "inputs": [
        {
          "internalType": "address",
          "name": "_aeroVoting",
          "type": "address"
        }
      ],
      "name": "setAeroVoting",
      "outputs": [],
      "stateMutability": "nonpayable",
      "type": "function"
    },
    {
      "inputs": [
        {
          "internalType": "address",
          "name": "operator",
          "type": "address"
        },
        {
          "internalType": "bool",
          "name": "approved",
          "type": "bool"
        }
      ],
      "name": "setApprovalForAll",
      "outputs": [],
      "stateMutability": "nonpayable",
      "type": "function"
    },
    {
      "inputs": [
        {
          "internalType": "address",
          "name": "_ionicPool",
          "type": "address"
        }
      ],
      "name": "setIonicPool",
      "outputs": [],
      "stateMutability": "nonpayable",
      "type": "function"
    },
    {
      "inputs": [
        {
          "internalType": "uint256",
          "name": "_boostAmount",
          "type": "uint256"
        }
      ],
      "name": "setLimitedTimeBoost",
      "outputs": [],
      "stateMutability": "nonpayable",
      "type": "function"
    },
    {
      "inputs": [
        {
          "internalType": "address",
          "name": "_token",
          "type": "address"
        },
        {
          "internalType": "enum IveIONStructsEnumsErrorsEvents.LpTokenType",
          "name": "_type",
          "type": "uint8"
        }
      ],
      "name": "setLpTokenType",
      "outputs": [],
      "stateMutability": "nonpayable",
      "type": "function"
    },
    {
      "inputs": [
        {
          "internalType": "uint256",
          "name": "_maxEarlyWithdrawFee",
          "type": "uint256"
        }
      ],
      "name": "setMaxEarlyWithdrawFee",
      "outputs": [],
      "stateMutability": "nonpayable",
      "type": "function"
    },
    {
      "inputs": [
        {
          "internalType": "address",
          "name": "_tokenAddress",
          "type": "address"
        },
        {
          "internalType": "uint256",
          "name": "_minimumAmount",
          "type": "uint256"
        }
      ],
      "name": "setMinimumLockAmount",
      "outputs": [],
      "stateMutability": "nonpayable",
      "type": "function"
    },
    {
      "inputs": [
        {
          "internalType": "uint256",
          "name": "_minimumLockDuration",
          "type": "uint256"
        }
      ],
      "name": "setMinimumLockDuration",
      "outputs": [],
      "stateMutability": "nonpayable",
      "type": "function"
    },
    {
      "inputs": [
        {
          "internalType": "enum IveIONStructsEnumsErrorsEvents.LpTokenType",
          "name": "_lpType",
          "type": "uint8"
        },
        {
          "internalType": "contract IStakeStrategy",
          "name": "_strategy",
          "type": "address"
        }
      ],
      "name": "setStakeStrategy",
      "outputs": [],
      "stateMutability": "nonpayable",
      "type": "function"
    },
    {
      "inputs": [
        {
          "internalType": "address",
          "name": "_veAERO",
          "type": "address"
        }
      ],
      "name": "setVeAERO",
      "outputs": [],
      "stateMutability": "nonpayable",
      "type": "function"
    },
    {
      "inputs": [
        {
          "internalType": "address",
          "name": "_voter",
          "type": "address"
        }
      ],
      "name": "setVoter",
      "outputs": [],
      "stateMutability": "nonpayable",
      "type": "function"
    },
    {
      "inputs": [
        {
          "internalType": "bytes4",
          "name": "interfaceId",
          "type": "bytes4"
        }
      ],
      "name": "supportsInterface",
      "outputs": [
        {
          "internalType": "bool",
          "name": "",
          "type": "bool"
        }
      ],
      "stateMutability": "view",
      "type": "function"
    },
    {
      "inputs": [],
      "name": "symbol",
      "outputs": [
        {
          "internalType": "string",
          "name": "",
          "type": "string"
        }
      ],
      "stateMutability": "view",
      "type": "function"
    },
    {
      "inputs": [
        {
          "internalType": "bool",
          "name": "_isBoosted",
          "type": "bool"
        }
      ],
      "name": "toggleLimitedBoost",
      "outputs": [],
      "stateMutability": "nonpayable",
      "type": "function"
    },
    {
      "inputs": [
        {
          "internalType": "address",
          "name": "_account",
          "type": "address"
        },
        {
          "internalType": "bool",
          "name": "_isAllowed",
          "type": "bool"
        }
      ],
      "name": "toggleSplit",
      "outputs": [],
      "stateMutability": "nonpayable",
      "type": "function"
    },
    {
      "inputs": [
        {
          "internalType": "uint256",
          "name": "tokenId",
          "type": "uint256"
        }
      ],
      "name": "tokenURI",
      "outputs": [
        {
          "internalType": "string",
          "name": "",
          "type": "string"
        }
      ],
      "stateMutability": "view",
      "type": "function"
    },
    {
      "inputs": [
        {
          "internalType": "address",
          "name": "from",
          "type": "address"
        },
        {
          "internalType": "address",
          "name": "to",
          "type": "address"
        },
        {
          "internalType": "uint256",
          "name": "tokenId",
          "type": "uint256"
        }
      ],
      "name": "transferFrom",
      "outputs": [],
      "stateMutability": "nonpayable",
      "type": "function"
    },
    {
      "inputs": [
        {
          "internalType": "address",
          "name": "newOwner",
          "type": "address"
        }
      ],
      "name": "transferOwnership",
      "outputs": [],
      "stateMutability": "nonpayable",
      "type": "function"
    },
    {
      "inputs": [],
      "name": "veIONFirstExtension",
      "outputs": [
        {
          "internalType": "address",
          "name": "",
          "type": "address"
        }
      ],
      "stateMutability": "view",
      "type": "function"
    },
    {
      "inputs": [],
      "name": "veIONSecondExtension",
      "outputs": [
        {
          "internalType": "address",
          "name": "",
          "type": "address"
        }
      ],
      "stateMutability": "view",
      "type": "function"
    },
    {
      "inputs": [
        {
          "internalType": "address[]",
          "name": "_tokens",
          "type": "address[]"
        },
        {
          "internalType": "bool[]",
          "name": "_isWhitelisted",
          "type": "bool[]"
        }
      ],
      "name": "whitelistTokens",
      "outputs": [],
      "stateMutability": "nonpayable",
      "type": "function"
    },
    {
      "inputs": [
        {
          "internalType": "address",
          "name": "_tokenAddress",
          "type": "address"
        },
        {
          "internalType": "address",
          "name": "_recipient",
          "type": "address"
        }
      ],
      "name": "withdrawDistributedFees",
      "outputs": [],
      "stateMutability": "nonpayable",
      "type": "function"
    },
    {
      "inputs": [
        {
          "internalType": "address",
          "name": "_tokenAddress",
          "type": "address"
        },
        {
          "internalType": "address",
          "name": "_recipient",
          "type": "address"
        }
      ],
      "name": "withdrawProtocolFees",
      "outputs": [],
      "stateMutability": "nonpayable",
      "type": "function"
    }
  ],
  "transactionHash": "0x722ed893f8d7e5e78a0ec722b972134e0987cdd2bf21ff697ecb8061e4067bd6",
  "args": [],
  "numDeployments": 1,
  "solcInputHash": "e80c3ac672326d6dc8195bcd28be67f7",
  "bytecode": "0x60806040523480156200001157600080fd5b506200001c62000022565b620000e4565b600054610100900460ff16156200008f5760405162461bcd60e51b815260206004820152602760248201527f496e697469616c697a61626c653a20636f6e747261637420697320696e697469604482015266616c697a696e6760c81b606482015260840160405180910390fd5b60005460ff9081161015620000e2576000805460ff191660ff9081179091556040519081527f7f26b83ff96e1f2b6a682f133852f6798a09c465da95921460cefb38474024989060200160405180910390a15b565b61309080620000f46000396000f3fe608060405234801561001057600080fd5b506004361061041d5760003560e01c806392415b081161022b578063c155bcc011610130578063e10bbe53116100b8578063e985e9c511610087578063e985e9c514610ba5578063ec09409514610be1578063eec83d8714610c05578063f2fde38b14610c0f578063fab64d1c14610c2257600080fd5b8063e10bbe5314610b20578063e1d514bd14610b33578063e30c397814610b54578063e526789414610b6557600080fd5b8063cc8cb245116100ff578063cc8cb24514610ac5578063cf7b287f14610ae6578063d8a8261114610af9578063d9e3eee214610b03578063df25197414610b1657600080fd5b8063c155bcc014610a1c578063c682ee6814610a7b578063c87b56dd14610a9f578063c9ebe07414610ab257600080fd5b8063ab2d99db116101b3578063b88d4fde11610182578063b88d4fde14610995578063b92a20fa146109a8578063b9e77c5f146109bb578063ba99c4df146109cf578063bae1cb5e146109fb57600080fd5b8063ab2d99db14610930578063ad975d711461093a578063b1113baf14610953578063b5250df31461098257600080fd5b80639ac1cc9d116101fa5780639ac1cc9d146107e7578063a22cb4651461088c578063a285ab8f1461089f578063a7d1ea851461090e578063aaf5eb681461092157600080fd5b806392415b081461078857806395d89b41146107b957806397f819a3146107c157806398008116146107d457600080fd5b80633d2cdbd11161033157806370a08231116102b95780637f8f6768116102885780637f8f67681461071c57806380e13a571461072f57806384cf379c146107505780638da5cb5b14610764578063907aa86a1461077557600080fd5b806370a08231146106d5578063715018a6146106e857806372b4c276146106f057806379ba50971461071457600080fd5b80634fac7e41116103005780634fac7e4114610654578063535d9aaf146106745780636352211e146106a05780636b2fe4c7146106b35780636cbdce56146106c157600080fd5b80633d2cdbd11461060757806342787d2a1461061b57806342842e0e1461062e5780634bc2a6571461064157600080fd5b806312ba89ef116103b457806323b872dd1161038357806323b872dd14610590578063282bbb3d146105a35780632879e840146105b657806333230dc0146105e05780633c4f743c146105f357600080fd5b806312ba89ef1461051f57806314b3bdde14610551578063171314f1146105655780631df595c71461056f57600080fd5b806307b67fe8116103f057806307b67fe814610487578063081812fc146104c1578063095ea7b3146104ec57806311e7b0ee146104ff57600080fd5b806301ffc9a71461042257806303de63551461044a57806304f6c0ef1461045f57806306fdde0314610472575b600080fd5b6104356104303660046127cc565b610c35565b60405190151581526020015b60405180910390f35b61045d6104583660046128ef565b610c87565b005b61045d61046d3660046129b1565b610d8b565b61047a610df1565b6040516104419190612a1a565b6104b3610495366004612a41565b61013e60209081526000928352604080842090915290825290205481565b604051908152602001610441565b6104d46104cf3660046129b1565b610e83565b6040516001600160a01b039091168152602001610441565b61045d6104fa366004612a6d565b610eaa565b61051261050d3660046129b1565b610fbf565b6040516104419190612ade565b6104b361052d366004612af1565b61014860209081526000938452604080852082529284528284209052825290205481565b610137546104d4906001600160a01b031681565b6104b361012d5481565b6104b361057d366004612b26565b6101466020526000908152604090205481565b61045d61059e366004612b41565b610fda565b61045d6105b1366004612b82565b61100b565b6104d46105c4366004612b26565b610144602052600090815260409020546001600160a01b031681565b61045d6105ee366004612bbb565b61115b565b610136546104d4906001600160a01b031681565b610131546104d4906001600160a01b031681565b61045d6106293660046129b1565b6111c4565b61045d61063c366004612b41565b611223565b61045d61064f366004612be9565b61123e565b610667610662366004612be9565b6112b8565b6040516104419190612c06565b6104b3610682366004612c4a565b61014560209081526000928352604080842090915290825290205481565b6104d46106ae3660046129b1565b6112dd565b61012f546104359060ff1681565b610130546104d4906001600160a01b031681565b6104b36106e3366004612be9565b61133d565b61045d6113c3565b6104356106fe366004612be9565b61013a6020526000908152604090205460ff1681565b61045d6113d7565b61045d61072a366004612c6f565b611451565b6104b361073d366004612b26565b6101476020526000908152604090205481565b610138546104d4906001600160a01b031681565b6033546001600160a01b03166104d4565b61045d610783366004612be9565b611514565b6107ac610796366004612be9565b61013b6020526000908152604090205460ff1681565b6040516104419190612ca1565b61047a611596565b61045d6107cf366004612cc9565b6115a5565b61045d6107e23660046129b1565b6115ef565b61084b6107f5366004612a41565b61013d60209081526000928352604080842090915290825290208054600182015460028301546003840154600485015460058601546006909601546001600160a01b0390951695939492939192909160ff169087565b604080516001600160a01b03909816885260208801969096529486019390935260608501919091526080840152151560a083015260c082015260e001610441565b61045d61089a366004612bbb565b61164e565b6108b26108ad366004612a41565b61165d565b604051610441919081516001600160a01b031681526020808301519082015260408083015190820152606080830151908201526080808301519082015260a08281015115159082015260c0918201519181019190915260e00190565b61045d61091c366004612be9565b61174e565b6104b3670de0b6b3a764000081565b6104b36101345481565b61012f546104d49061010090046001600160a01b031681565b610435610961366004612c4a565b61014d60209081526000928352604080842090915290825290205460ff1681565b61045d610990366004612be9565b6117c8565b61045d6109a3366004612ce6565b611842565b6106676109b6366004612a41565b61187a565b610132546104d4906001600160a01b031681565b6104b36109dd366004612b82565b61014c60209081526000928352604080842090915290825290205481565b6104b3610a09366004612b26565b6101436020526000908152604090205481565b610a2f610a2a366004612daa565b6118ce565b6040516104419190600060c082019050825182526020830151602083015260408301516040830152606083015160608301526080830151608083015260a083015160a083015292915050565b610435610a89366004612be9565b61013c6020526000908152604090205460ff1681565b61047a610aad3660046129b1565b6119b0565b610667610ac0366004612a41565b611a23565b6104b3610ad3366004612b26565b6101396020526000908152604090205481565b61045d610af4366004612b82565b611a4c565b6104b36101335481565b61045d610b113660046129b1565b611b8e565b6104b361012e5481565b61045d610b2e366004612ddf565b611bed565b6104b3610b41366004612b26565b6101426020526000908152604090205481565b6065546001600160a01b03166104d4565b610b78610b73366004612daa565b611c90565b604080519687526020870195909552938501929092526060840152608083015260a082015260c001610441565b610435610bb3366004612b82565b6001600160a01b03918216600090815260ce6020908152604080832093909416825291909152205460ff1690565b610435610bef3660046129b1565b6101416020526000908152604090205460ff1681565b6104b36101355481565b61045d610c1d366004612be9565b611ce9565b61045d610c30366004612a6d565b611d5a565b60006001600160e01b031982166380ac58cd60e01b1480610c6657506001600160e01b03198216635b5e139f60e01b145b80610c8157506301ffc9a760e01b6001600160e01b03198316145b92915050565b610c8f611e24565b8051825114610cd65760405162461bcd60e51b815260206004820152600e60248201526d556e657175616c2041727261797360901b60448201526064015b60405180910390fd5b60005b8251811015610d4d57818181518110610cf457610cf4612e0b565b602002602001015161013a6000858481518110610d1357610d13612e0b565b6020908102919091018101516001600160a01b03168252810191909152604001600020805460ff1916911515919091179055600101610cd9565b507fbf5096a6d1add2f85fe6ebea9648302d19fbbe070cd2addfd4feb0404e3c5ec78282604051610d7f929190612e21565b60405180910390a15050565b610d93611e24565b60008111610db45760405163f39f74b360e01b815260040160405180910390fd5b6101348190556040518181527f0be752d502ead9f7f68ae425a37976abee08f7d72a78e613d13a0c1ac153915f906020015b60405180910390a150565b606060c98054610e0090612e7a565b80601f0160208091040260200160405190810160405280929190818152602001828054610e2c90612e7a565b8015610e795780601f10610e4e57610100808354040283529160200191610e79565b820191906000526020600020905b815481529060010190602001808311610e5c57829003601f168201915b5050505050905090565b6000610e8e82611e7e565b50600090815260cd60205260409020546001600160a01b031690565b6000610eb5826112dd565b9050806001600160a01b0316836001600160a01b031603610f225760405162461bcd60e51b815260206004820152602160248201527f4552433732313a20617070726f76616c20746f2063757272656e74206f776e656044820152603960f91b6064820152608401610ccd565b336001600160a01b0382161480610f3e5750610f3e8133610bb3565b610fb05760405162461bcd60e51b815260206004820152603d60248201527f4552433732313a20617070726f76652063616c6c6572206973206e6f7420746f60448201527f6b656e206f776e6572206f7220617070726f76656420666f7220616c6c0000006064820152608401610ccd565b610fba8383611edd565b505050565b600081815261014060205260409020606090610c8190611f4b565b610fe43382611f58565b6110005760405162461bcd60e51b8152600401610ccd90612eb4565b610fba838383611fd7565b611013611e24565b6001600160a01b038216600090815261013b602052604081205460ff16906101478183600581111561104757611047612c8b565b600581111561105857611058612c8b565b8152602001908152602001600020549050600081116110b95760405162461bcd60e51b815260206004820152601d60248201527f4e6f206469737472696275746564206665657320617661696c61626c650000006044820152606401610ccd565b600061014760008460058111156110d2576110d2612c8b565b60058111156110e3576110e3612c8b565b81526020810191909152604001600020556111086001600160a01b038516848361213b565b826001600160a01b0316846001600160a01b03167fcbc4ab91c952e7e6ed4b369ec497a7aaf379137633bd4d355577a7c76419618b8360405161114d91815260200190565b60405180910390a350505050565b611163611e24565b6001600160a01b038216600081815261013c6020908152604091829020805460ff191685151590811790915591519182527f9db1cf179d0876ce4f974e3f64ddab5032746efc3c59432edf0e6b6e2bd2dfd091015b60405180910390a25050565b6111cc611e24565b600081116111ed576040516365fc48eb60e11b815260040160405180910390fd5b6101358190556040518181527f156aaac524effac794528a7ca0a1dbe7129a9b9d3f295b760d64bef536ca436090602001610de6565b610fba83838360405180602001604052806000815250611842565b611246611e24565b6001600160a01b03811661126d5760405163e6c4247b60e01b815260040160405180910390fd5b61013280546001600160a01b0319166001600160a01b0383169081179091556040517f5bb4a0f5a67f7c49cfc7820adfab4690a3752cf969544ddd8445b970d3643e8990600090a250565b6001600160a01b038116600090815261014b60205260409020606090610c8190611f4b565b600081815260cb60205260408120546001600160a01b031680610c815760405162461bcd60e51b8152602060048201526018602482015277115490cdcc8c4e881a5b9d985b1a59081d1bdad95b88125160421b6044820152606401610ccd565b60006001600160a01b0382166113a75760405162461bcd60e51b815260206004820152602960248201527f4552433732313a2061646472657373207a65726f206973206e6f7420612076616044820152683634b21037bbb732b960b91b6064820152608401610ccd565b506001600160a01b0316600090815260cc602052604090205490565b6113cb611e24565b6113d5600061218d565b565b60655433906001600160a01b031681146114455760405162461bcd60e51b815260206004820152602960248201527f4f776e61626c6532537465703a2063616c6c6572206973206e6f7420746865206044820152683732bb9037bbb732b960b91b6064820152608401610ccd565b61144e8161218d565b50565b611459611e24565b6001600160a01b03811661148057604051633408148f60e01b815260040160405180910390fd5b80610144600084600581111561149857611498612c8b565b60058111156114a9576114a9612c8b565b8152602081019190915260400160002080546001600160a01b0319166001600160a01b0392831617905581168260058111156114e7576114e7612c8b565b6040517f69acf97fd12837c9357ae72cfdb1361a5bd84a74e37233e40a5f9110cbc9a75c90600090a35050565b61151c611e24565b6001600160a01b038116611543576040516334ae666d60e11b815260040160405180910390fd5b61012f8054610100600160a81b0319166101006001600160a01b038416908102919091179091556040517f1beed9e24b9c447b27eb5862cdcacda05e4e55118ee98ef8083d0c83fb54c7bb90600090a250565b606060ca8054610e0090612e7a565b6115ad611e24565b61012f805460ff19168215159081179091556040519081527f4bd8979d750a61e726f6fd518e42571bc79eab2e9a5e89f2d8f3fb6d05ac576e90602001610de6565b6115f7611e24565b600081116116185760405163adce4e6160e01b815260040160405180910390fd5b6101338190556040518181527f71a72c53992c043705dbc76ba88418d35e5a069dce8a1aaadda0d798e142402f90602001610de6565b6116593383836121a6565b5050565b6116a86040518060e0016040528060006001600160a01b0316815260200160008152602001600081526020016000815260200160008152602001600015158152602001600081525090565b600083815261013d60205260408120908360058111156116ca576116ca612c8b565b60058111156116db576116db612c8b565b81526020808201929092526040908101600020815160e08101835281546001600160a01b031681526001820154938101939093526002810154918301919091526003810154606083015260048101546080830152600581015460ff16151560a08301526006015460c08201529392505050565b611756611e24565b6001600160a01b03811661177d5760405163e6c4247b60e01b815260040160405180910390fd5b61013180546001600160a01b0319166001600160a01b0383169081179091556040517f49c796b1e172f860133b87d22894b27200b2cbea8ffda486bf37e0cf803f53af90600090a250565b6117d0611e24565b6001600160a01b0381166117f75760405163e6c4247b60e01b815260040160405180910390fd5b61013080546001600160a01b0319166001600160a01b0383169081179091556040517fb91c20ae38c6bc22c2eb333490be8628525bc85a485bd9e20dce75a95de7a13290600090a250565b61184c3383611f58565b6118685760405162461bcd60e51b8152600401610ccd90612eb4565b61187484848484612274565b50505050565b600082815261014a602052604081206060916118c791908460058111156118a3576118a3612c8b565b60058111156118b4576118b4612c8b565b8152602001908152602001600020611f4b565b9392505050565b6119076040518060c001604052806000815260200160008152602001600081526020016000815260200160008152602001600081525090565b600084815261013f602052604081209084600581111561192957611929612c8b565b600581111561193a5761193a612c8b565b815260200190815260200160002082633b9aca00811061195c5761195c612e0b565b600602016040518060c0016040529081600082015481526020016001820154815260200160028201548152602001600382015481526020016004820154815260200160058201548152505090509392505050565b60606119bb82611e7e565b60006119d260408051602081019091526000815290565b905060008151116119f257604051806020016040528060008152506118c7565b806119fc846122a7565b604051602001611a0d929190612f01565b6040516020818303038152906040529392505050565b6000828152610149602052604081206060916118c791908460058111156118a3576118a3612c8b565b611a54611e24565b6001600160a01b038216600090815261013b602052604081205460ff169061014681836005811115611a8857611a88612c8b565b6005811115611a9957611a99612c8b565b815260200190815260200160002054905060008111611afa5760405162461bcd60e51b815260206004820152601a60248201527f4e6f2070726f746f636f6c206665657320617661696c61626c650000000000006044820152606401610ccd565b60006101466000846005811115611b1357611b13612c8b565b6005811115611b2457611b24612c8b565b8152602081019190915260400160002055611b496001600160a01b038516848361213b565b826001600160a01b0316846001600160a01b03167f8fc241308ffc17817e6a8c6a52a8f7cd4931dfca0c539fd35a630311c7e4c57b8360405161114d91815260200190565b611b96611e24565b60008111611bb75760405163182ee11160e01b815260040160405180910390fd5b61012e8190556040518181527f066da2681c5121aabd66066271138cc311ba9ad71c54cdaeccc19cbe66c05b3090602001610de6565b611bf5611e24565b6001600160a01b038216611c1c57604051630f58058360e11b815260040160405180910390fd5b6001600160a01b038216600090815261013b60205260409020805482919060ff19166001836005811115611c5257611c52612c8b565b0217905550816001600160a01b03167f33a422346a4e32d03bc696513b91a0f308168216b86d2755c105915e98a84496826040516111b89190612ca1565b61013f60205282600052604060002060205281600052604060002081633b9aca008110611cbc57600080fd5b60060201805460018201546002830154600384015460048501546005909501549397509195509350919086565b611cf1611e24565b606580546001600160a01b0383166001600160a01b03199091168117909155611d226033546001600160a01b031690565b6001600160a01b03167f38d16b8cac22d99fc7c124b9cd0de2d3fa1faef420bfe791d8c362d765e2270060405160405180910390a350565b611d62611e24565b60008111611d8357604051630deb46b560e01b815260040160405180910390fd5b6001600160a01b038216600090815261013b602052604081205460ff1690829061013990836005811115611db957611db9612c8b565b6005811115611dca57611dca612c8b565b815260200190815260200160002081905550826001600160a01b03167f981b29cb3dc7c129fa6efe203391595b7ab61b5e383bd381cef0ec1642ba68e783604051611e1791815260200190565b60405180910390a2505050565b6033546001600160a01b031633146113d55760405162461bcd60e51b815260206004820181905260248201527f4f776e61626c653a2063616c6c6572206973206e6f7420746865206f776e65726044820152606401610ccd565b600081815260cb60205260409020546001600160a01b031661144e5760405162461bcd60e51b8152602060048201526018602482015277115490cdcc8c4e881a5b9d985b1a59081d1bdad95b88125160421b6044820152606401610ccd565b600081815260cd6020526040902080546001600160a01b0319166001600160a01b0384169081179091558190611f12826112dd565b6001600160a01b03167f8c5be1e5ebec7d5bd14f71427d1e84f3dd0314c0f7b2291e5b200ac8c7c3b92560405160405180910390a45050565b606060006118c78361233a565b600080611f64836112dd565b9050806001600160a01b0316846001600160a01b03161480611fab57506001600160a01b03808216600090815260ce602090815260408083209388168352929052205460ff165b80611fcf5750836001600160a01b0316611fc484610e83565b6001600160a01b0316145b949350505050565b826001600160a01b0316611fea826112dd565b6001600160a01b0316146120105760405162461bcd60e51b8152600401610ccd90612f30565b6001600160a01b0382166120725760405162461bcd60e51b8152602060048201526024808201527f4552433732313a207472616e7366657220746f20746865207a65726f206164646044820152637265737360e01b6064820152608401610ccd565b826001600160a01b0316612085826112dd565b6001600160a01b0316146120ab5760405162461bcd60e51b8152600401610ccd90612f30565b600081815260cd6020908152604080832080546001600160a01b03199081169091556001600160a01b0387811680865260cc855283862080546000190190559087168086528386208054600101905586865260cb90945282852080549092168417909155905184937fddf252ad1be2c89b69c2b068fc378daa952ba7f163c4a11628f55a4df523b3ef91a4505050565b604080516001600160a01b038416602482015260448082018490528251808303909101815260649091019091526020810180516001600160e01b031663a9059cbb60e01b179052610fba908490612396565b606580546001600160a01b031916905561144e81612468565b816001600160a01b0316836001600160a01b0316036122075760405162461bcd60e51b815260206004820152601960248201527f4552433732313a20617070726f766520746f2063616c6c6572000000000000006044820152606401610ccd565b6001600160a01b03838116600081815260ce6020908152604080832094871680845294825291829020805460ff191686151590811790915591519182527f17307eab39ab6107e8899845ad3d59bd9653f200f220920489ca2b5937696c31910160405180910390a3505050565b61227f848484611fd7565b61228b848484846124ba565b6118745760405162461bcd60e51b8152600401610ccd90612f75565b606060006122b4836125bb565b600101905060008167ffffffffffffffff8111156122d4576122d46127e9565b6040519080825280601f01601f1916602001820160405280156122fe576020820181803683370190505b5090508181016020015b600019016f181899199a1a9b1b9c1cb0b131b232b360811b600a86061a8153600a850494508461230857509392505050565b60608160000180548060200260200160405190810160405280929190818152602001828054801561238a57602002820191906000526020600020905b815481526020019060010190808311612376575b50505050509050919050565b60006123eb826040518060400160405280602081526020017f5361666545524332303a206c6f772d6c6576656c2063616c6c206661696c6564815250856001600160a01b03166126939092919063ffffffff16565b805190915015610fba57808060200190518101906124099190612fc7565b610fba5760405162461bcd60e51b815260206004820152602a60248201527f5361666545524332303a204552433230206f7065726174696f6e20646964206e6044820152691bdd081cdd58d8d9595960b21b6064820152608401610ccd565b603380546001600160a01b038381166001600160a01b0319831681179093556040519116919082907f8be0079c531659141344cd1fd0a4f28419497f9722a3daafe3b4186f6b6457e090600090a35050565b60006001600160a01b0384163b156125b057604051630a85bd0160e11b81526001600160a01b0385169063150b7a02906124fe903390899088908890600401612fe4565b6020604051808303816000875af1925050508015612539575060408051601f3d908101601f1916820190925261253691810190613021565b60015b612596573d808015612567576040519150601f19603f3d011682016040523d82523d6000602084013e61256c565b606091505b50805160000361258e5760405162461bcd60e51b8152600401610ccd90612f75565b805181602001fd5b6001600160e01b031916630a85bd0160e11b149050611fcf565b506001949350505050565b60008072184f03e93ff9f4daa797ed6e38ed64bf6a1f0160401b83106125fa5772184f03e93ff9f4daa797ed6e38ed64bf6a1f0160401b830492506040015b6d04ee2d6d415b85acef81000000008310612626576d04ee2d6d415b85acef8100000000830492506020015b662386f26fc10000831061264457662386f26fc10000830492506010015b6305f5e100831061265c576305f5e100830492506008015b612710831061267057612710830492506004015b60648310612682576064830492506002015b600a8310610c815760010192915050565b6060611fcf848460008585600080866001600160a01b031685876040516126ba919061303e565b60006040518083038185875af1925050503d80600081146126f7576040519150601f19603f3d011682016040523d82523d6000602084013e6126fc565b606091505b509150915061270d87838387612718565b979650505050505050565b60608315612787578251600003612780576001600160a01b0385163b6127805760405162461bcd60e51b815260206004820152601d60248201527f416464726573733a2063616c6c20746f206e6f6e2d636f6e74726163740000006044820152606401610ccd565b5081611fcf565b611fcf838381511561279c5781518083602001fd5b8060405162461bcd60e51b8152600401610ccd9190612a1a565b6001600160e01b03198116811461144e57600080fd5b6000602082840312156127de57600080fd5b81356118c7816127b6565b634e487b7160e01b600052604160045260246000fd5b604051601f8201601f1916810167ffffffffffffffff81118282101715612828576128286127e9565b604052919050565b600067ffffffffffffffff82111561284a5761284a6127e9565b5060051b60200190565b6001600160a01b038116811461144e57600080fd5b801515811461144e57600080fd5b600082601f83011261288857600080fd5b8135602061289d61289883612830565b6127ff565b8083825260208201915060208460051b8701019350868411156128bf57600080fd5b602086015b848110156128e45780356128d781612869565b83529183019183016128c4565b509695505050505050565b6000806040838503121561290257600080fd5b823567ffffffffffffffff8082111561291a57600080fd5b818501915085601f83011261292e57600080fd5b8135602061293e61289883612830565b82815260059290921b8401810191818101908984111561295d57600080fd5b948201945b8386101561298457853561297581612854565b82529482019490820190612962565b9650508601359250508082111561299a57600080fd5b506129a785828601612877565b9150509250929050565b6000602082840312156129c357600080fd5b5035919050565b60005b838110156129e55781810151838201526020016129cd565b50506000910152565b60008151808452612a068160208601602086016129ca565b601f01601f19169290920160200192915050565b6020815260006118c760208301846129ee565b803560068110612a3c57600080fd5b919050565b60008060408385031215612a5457600080fd5b82359150612a6460208401612a2d565b90509250929050565b60008060408385031215612a8057600080fd5b8235612a8b81612854565b946020939093013593505050565b60008151808452602080850194506020840160005b83811015612ad35781516001600160a01b031687529582019590820190600101612aae565b509495945050505050565b6020815260006118c76020830184612a99565b600080600060608486031215612b0657600080fd5b8335925060208401359150612b1d60408501612a2d565b90509250925092565b600060208284031215612b3857600080fd5b6118c782612a2d565b600080600060608486031215612b5657600080fd5b8335612b6181612854565b92506020840135612b7181612854565b929592945050506040919091013590565b60008060408385031215612b9557600080fd5b8235612ba081612854565b91506020830135612bb081612854565b809150509250929050565b60008060408385031215612bce57600080fd5b8235612bd981612854565b91506020830135612bb081612869565b600060208284031215612bfb57600080fd5b81356118c781612854565b6020808252825182820181905260009190848201906040850190845b81811015612c3e57835183529284019291840191600101612c22565b50909695505050505050565b60008060408385031215612c5d57600080fd5b823591506020830135612bb081612854565b60008060408385031215612c8257600080fd5b612ba083612a2d565b634e487b7160e01b600052602160045260246000fd5b6020810160068310612cc357634e487b7160e01b600052602160045260246000fd5b91905290565b600060208284031215612cdb57600080fd5b81356118c781612869565b60008060008060808587031215612cfc57600080fd5b8435612d0781612854565b9350602085810135612d1881612854565b935060408601359250606086013567ffffffffffffffff80821115612d3c57600080fd5b818801915088601f830112612d5057600080fd5b813581811115612d6257612d626127e9565b612d74601f8201601f191685016127ff565b91508082528984828501011115612d8a57600080fd5b808484018584013760008482840101525080935050505092959194509250565b600080600060608486031215612dbf57600080fd5b83359250612dcf60208501612a2d565b9150604084013590509250925092565b60008060408385031215612df257600080fd5b8235612dfd81612854565b9150612a6460208401612a2d565b634e487b7160e01b600052603260045260246000fd5b604081526000612e346040830185612a99565b82810360208481019190915284518083528582019282019060005b81811015612e6d578451151583529383019391830191600101612e4f565b5090979650505050505050565b600181811c90821680612e8e57607f821691505b602082108103612eae57634e487b7160e01b600052602260045260246000fd5b50919050565b6020808252602d908201527f4552433732313a2063616c6c6572206973206e6f7420746f6b656e206f776e6560408201526c1c881bdc88185c1c1c9bdd9959609a1b606082015260800190565b60008351612f138184602088016129ca565b835190830190612f278183602088016129ca565b01949350505050565b60208082526025908201527f4552433732313a207472616e736665722066726f6d20696e636f72726563742060408201526437bbb732b960d91b606082015260800190565b60208082526032908201527f4552433732313a207472616e7366657220746f206e6f6e20455243373231526560408201527131b2b4bb32b91034b6b83632b6b2b73a32b960711b606082015260800190565b600060208284031215612fd957600080fd5b81516118c781612869565b6001600160a01b0385811682528416602082015260408101839052608060608201819052600090613017908301846129ee565b9695505050505050565b60006020828403121561303357600080fd5b81516118c7816127b6565b600082516130508184602087016129ca565b919091019291505056fea26469706673582212207a9254cddce495ef40f18074ee70a909ac42c203aa8e64a74951f50af5a03db064736f6c63430008160033",
  "devdoc": {
    "author": "Jourdan Dunkley <jourdan@ionic.money> (https://github.com/jourdanDunkley)",
    "events": {
      "Approval(address,address,uint256)": {
        "details": "Emitted when `owner` enables `approved` to manage the `tokenId` token."
      },
      "ApprovalForAll(address,address,bool)": {
        "details": "Emitted when `owner` enables or disables (`approved`) `operator` to manage all of its assets."
      },
      "Initialized(uint8)": {
        "details": "Triggered when the contract has been initialized or reinitialized."
      },
      "Transfer(address,address,uint256)": {
        "details": "Emitted when `tokenId` token is transferred from `from` to `to`."
      }
    },
    "kind": "dev",
    "methods": {
      "acceptOwnership()": {
        "details": "The new owner accepts the ownership transfer."
      },
      "approve(address,uint256)": {
        "details": "See {IERC721-approve}."
      },
      "balanceOf(address)": {
        "details": "See {IERC721-balanceOf}."
      },
      "getApproved(uint256)": {
        "details": "See {IERC721-getApproved}."
      },
      "getAssetsLocked(uint256)": {
        "params": {
          "_tokenId": "The ID of the token."
        },
        "returns": {
          "_0": "An array of addresses representing the locked assets."
        }
      },
      "getDelegatees(uint256,uint8)": {
        "params": {
          "_lpType": "The LP token type.",
          "_tokenId": "The ID of the token."
        },
        "returns": {
          "_0": "An array of delegatee IDs."
        }
      },
      "getDelegators(uint256,uint8)": {
        "params": {
          "_lpType": "The LP token type.",
          "_tokenId": "The ID of the token."
        },
        "returns": {
          "_0": "An array of delegator IDs."
        }
      },
      "getOwnedTokenIds(address)": {
        "params": {
          "_owner": "The address of the owner."
        },
        "returns": {
          "_0": "An array of token IDs owned by the address."
        }
      },
      "getUserLock(uint256,uint8)": {
        "params": {
          "_lpType": "The LP token type.",
          "_tokenId": "The ID of the token."
        },
        "returns": {
          "_0": "A LockedBalance struct containing lock details."
        }
      },
      "getUserPoint(uint256,uint8,uint256)": {
        "params": {
          "_epoch": "The epoch number.",
          "_lpType": "The LP token type.",
          "_tokenId": "The ID of the token."
        },
        "returns": {
          "_0": "A UserPoint struct containing user point details."
        }
      },
      "isApprovedForAll(address,address)": {
        "details": "See {IERC721-isApprovedForAll}."
      },
      "name()": {
        "details": "See {IERC721Metadata-name}."
      },
      "owner()": {
        "details": "Returns the address of the current owner."
      },
      "ownerOf(uint256)": {
        "details": "See {IERC721-ownerOf}."
      },
      "pendingOwner()": {
        "details": "Returns the address of the pending owner."
      },
      "renounceOwnership()": {
        "details": "Leaves the contract without owner. It will not be possible to call `onlyOwner` functions anymore. Can only be called by the current owner. NOTE: Renouncing ownership will leave the contract without an owner, thereby removing any functionality that is only available to the owner."
      },
      "safeTransferFrom(address,address,uint256)": {
        "details": "See {IERC721-safeTransferFrom}."
      },
      "safeTransferFrom(address,address,uint256,bytes)": {
        "details": "See {IERC721-safeTransferFrom}."
      },
      "setAeroVoterBoost(uint256)": {
        "params": {
          "_aeroVoterBoost": "The boost amount for Aero Voter."
        }
      },
      "setAeroVoting(address)": {
        "params": {
          "_aeroVoting": "The address of the Aero Voting contract."
        }
      },
      "setApprovalForAll(address,bool)": {
        "details": "See {IERC721-setApprovalForAll}."
      },
      "setIonicPool(address)": {
        "params": {
          "_ionicPool": "The address of the Ionic Pool."
        }
      },
      "setLimitedTimeBoost(uint256)": {
        "params": {
          "_boostAmount": "The amount of the boost."
        }
      },
      "setLpTokenType(address,uint8)": {
        "params": {
          "_token": "The address of the token.",
          "_type": "The LP token type."
        }
      },
      "setMaxEarlyWithdrawFee(uint256)": {
        "params": {
          "_maxEarlyWithdrawFee": "The maximum fee for early withdrawal."
        }
      },
      "setMinimumLockAmount(address,uint256)": {
        "params": {
          "_minimumAmount": "The minimum amount to lock.",
          "_tokenAddress": "The address of the token."
        }
      },
      "setMinimumLockDuration(uint256)": {
        "params": {
          "_minimumLockDuration": "The minimum duration for locking."
        }
      },
      "setStakeStrategy(uint8,address)": {
        "params": {
          "_lpType": "The LP token type.",
          "_strategy": "The stake strategy."
        }
      },
      "setVeAERO(address)": {
        "params": {
          "_veAERO": "The address of the veAERO contract."
        }
      },
      "setVoter(address)": {
        "params": {
          "_voter": "The address of the voter."
        }
      },
      "supportsInterface(bytes4)": {
        "details": "See {IERC165-supportsInterface}."
      },
      "symbol()": {
        "details": "See {IERC721Metadata-symbol}."
      },
      "toggleLimitedBoost(bool)": {
        "params": {
          "_isBoosted": "Boolean indicating if the boost is active."
        }
      },
      "toggleSplit(address,bool)": {
        "params": {
          "_account": "The address of the account.",
          "_isAllowed": "Boolean indicating if splitting is allowed."
        }
      },
      "tokenURI(uint256)": {
        "details": "See {IERC721Metadata-tokenURI}."
      },
      "transferFrom(address,address,uint256)": {
        "details": "See {IERC721-transferFrom}."
      },
      "transferOwnership(address)": {
        "details": "Starts the ownership transfer of the contract to a new account. Replaces the pending transfer if there is one. Can only be called by the current owner."
      },
      "whitelistTokens(address[],bool[])": {
        "params": {
          "_isWhitelisted": "An array of booleans indicating the whitelist status for each token.",
          "_tokens": "An array of token addresses to be whitelisted or removed."
        }
      },
      "withdrawDistributedFees(address,address)": {
        "params": {
          "_recipient": "The address to which the distributed fees will be sent.",
          "_tokenAddress": "The address of the token for which distributed fees are to be withdrawn."
        }
      },
      "withdrawProtocolFees(address,address)": {
        "params": {
          "_recipient": "The address to which the protocol fees will be sent.",
          "_tokenAddress": "The address of the token for which protocol fees are to be withdrawn."
        }
      }
    },
    "title": "veION Contract Second Extension",
    "version": 1
  },
  "userdoc": {
    "kind": "user",
    "methods": {
      "PRECISION()": {
        "notice": "Precision used for calculations, set to 1e18."
      },
      "ap()": {
        "notice": "The AddressesProvider contract used for address management."
      },
      "getAssetsLocked(uint256)": {
        "notice": "Retrieves the assets locked for a specific token ID."
      },
      "getDelegatees(uint256,uint8)": {
        "notice": "Retrieves the delegatees for a specific token ID and LP token type."
      },
      "getDelegators(uint256,uint8)": {
        "notice": "Retrieves the delegators for a specific token ID and LP token type."
      },
      "getOwnedTokenIds(address)": {
        "notice": "Retrieves the token IDs owned by a specific address."
      },
      "getUserLock(uint256,uint8)": {
        "notice": "Retrieves the lock information for a specific user."
      },
      "getUserPoint(uint256,uint8,uint256)": {
        "notice": "Retrieves the user point for a specific token ID, LP token type, and epoch."
      },
      "s_aeroVoterBoost()": {
        "notice": "The boost amount for AeroVoter."
      },
      "s_aeroVoting()": {
        "notice": "Address of the AeroVoting contract."
      },
      "s_ionicPool()": {
        "notice": "Address of the Ionic Pool."
      },
      "s_limitedBoost()": {
        "notice": "The amount of limited boost available."
      },
      "s_limitedBoostActive()": {
        "notice": "Indicates whether the limited boost is active."
      },
      "s_maxEarlyWithdrawFee()": {
        "notice": "The maximum fee for early withdrawal."
      },
      "s_minimumLockDuration()": {
        "notice": "The minimum duration for locking."
      },
      "s_tokenId()": {
        "notice": "The current token ID counter."
      },
      "s_veAERO()": {
        "notice": "Address of the veAERO contract."
      },
      "s_voter()": {
        "notice": "Address of the voter contract."
      },
      "setAeroVoterBoost(uint256)": {
        "notice": "Sets the boost amount for Aero Voter."
      },
      "setAeroVoting(address)": {
        "notice": "Sets the address of the Aero Voting contract."
      },
      "setIonicPool(address)": {
        "notice": "Sets the address of the Ionic Pool."
      },
      "setLimitedTimeBoost(uint256)": {
        "notice": "Sets the amount for a limited time boost."
      },
      "setLpTokenType(address,uint8)": {
        "notice": "Sets the LP token type for a specific token."
      },
      "setMaxEarlyWithdrawFee(uint256)": {
        "notice": "Sets the maximum early withdrawal fee."
      },
      "setMinimumLockAmount(address,uint256)": {
        "notice": "Sets the minimum lock amount for a specific token."
      },
      "setMinimumLockDuration(uint256)": {
        "notice": "Sets the minimum lock duration."
      },
      "setStakeStrategy(uint8,address)": {
        "notice": "Sets the stake strategy for a specific LP token type."
      },
      "setVeAERO(address)": {
        "notice": "Sets the address of the veAERO contract."
      },
      "setVoter(address)": {
        "notice": "Sets the address of the voter."
      },
      "toggleLimitedBoost(bool)": {
        "notice": "Toggles the limited boost feature."
      },
      "toggleSplit(address,bool)": {
        "notice": "Toggles the ability to split tokens for a specific account."
      },
      "veIONFirstExtension()": {
        "notice": "The address of the logic contract for the veION first extension."
      },
      "veIONSecondExtension()": {
        "notice": "The address of the logic contract for the veION second extension."
      },
      "whitelistTokens(address[],bool[])": {
        "notice": "Whitelists or removes tokens from the whitelist."
      },
      "withdrawDistributedFees(address,address)": {
        "notice": "Withdraws distributed fees for a specific token to a recipient address."
      },
      "withdrawProtocolFees(address,address)": {
        "notice": "Withdraws protocol fees for a specific token to a recipient address."
      }
    },
    "notice": "This contract manages the veION framework, enabling the staking and management LP tokens for voting power.",
    "version": 1
  },
  "storageLayout": {
    "storage": [
      {
        "astId": 244,
        "contract": "contracts/veION/veIONSecondExtension.sol:veIONSecondExtension",
        "label": "_initialized",
        "offset": 0,
        "slot": "0",
        "type": "t_uint8"
      },
      {
        "astId": 247,
        "contract": "contracts/veION/veIONSecondExtension.sol:veIONSecondExtension",
        "label": "_initializing",
        "offset": 1,
        "slot": "0",
        "type": "t_bool"
      },
      {
        "astId": 2341,
        "contract": "contracts/veION/veIONSecondExtension.sol:veIONSecondExtension",
        "label": "__gap",
        "offset": 0,
        "slot": "1",
        "type": "t_array(t_uint256)50_storage"
      },
      {
        "astId": 116,
        "contract": "contracts/veION/veIONSecondExtension.sol:veIONSecondExtension",
        "label": "_owner",
        "offset": 0,
        "slot": "51",
        "type": "t_address"
      },
      {
        "astId": 236,
        "contract": "contracts/veION/veIONSecondExtension.sol:veIONSecondExtension",
        "label": "__gap",
        "offset": 0,
        "slot": "52",
        "type": "t_array(t_uint256)49_storage"
      },
      {
        "astId": 25,
        "contract": "contracts/veION/veIONSecondExtension.sol:veIONSecondExtension",
        "label": "_pendingOwner",
        "offset": 0,
        "slot": "101",
        "type": "t_address"
      },
      {
        "astId": 104,
        "contract": "contracts/veION/veIONSecondExtension.sol:veIONSecondExtension",
        "label": "__gap",
        "offset": 0,
        "slot": "102",
        "type": "t_array(t_uint256)49_storage"
      },
      {
        "astId": 2641,
        "contract": "contracts/veION/veIONSecondExtension.sol:veIONSecondExtension",
        "label": "__gap",
        "offset": 0,
        "slot": "151",
        "type": "t_array(t_uint256)50_storage"
      },
      {
        "astId": 903,
        "contract": "contracts/veION/veIONSecondExtension.sol:veIONSecondExtension",
        "label": "_name",
        "offset": 0,
        "slot": "201",
        "type": "t_string_storage"
      },
      {
        "astId": 905,
        "contract": "contracts/veION/veIONSecondExtension.sol:veIONSecondExtension",
        "label": "_symbol",
        "offset": 0,
        "slot": "202",
        "type": "t_string_storage"
      },
      {
        "astId": 909,
        "contract": "contracts/veION/veIONSecondExtension.sol:veIONSecondExtension",
        "label": "_owners",
        "offset": 0,
        "slot": "203",
        "type": "t_mapping(t_uint256,t_address)"
      },
      {
        "astId": 913,
        "contract": "contracts/veION/veIONSecondExtension.sol:veIONSecondExtension",
        "label": "_balances",
        "offset": 0,
        "slot": "204",
        "type": "t_mapping(t_address,t_uint256)"
      },
      {
        "astId": 917,
        "contract": "contracts/veION/veIONSecondExtension.sol:veIONSecondExtension",
        "label": "_tokenApprovals",
        "offset": 0,
        "slot": "205",
        "type": "t_mapping(t_uint256,t_address)"
      },
      {
        "astId": 923,
        "contract": "contracts/veION/veIONSecondExtension.sol:veIONSecondExtension",
        "label": "_operatorApprovals",
        "offset": 0,
        "slot": "206",
        "type": "t_mapping(t_address,t_mapping(t_address,t_bool))"
      },
      {
        "astId": 1854,
        "contract": "contracts/veION/veIONSecondExtension.sol:veIONSecondExtension",
        "label": "__gap",
        "offset": 0,
        "slot": "207",
        "type": "t_array(t_uint256)44_storage"
      },
      {
        "astId": 420,
        "contract": "contracts/veION/veIONSecondExtension.sol:veIONSecondExtension",
        "label": "_status",
        "offset": 0,
        "slot": "251",
        "type": "t_uint256"
      },
      {
        "astId": 478,
        "contract": "contracts/veION/veIONSecondExtension.sol:veIONSecondExtension",
        "label": "__gap",
        "offset": 0,
        "slot": "252",
        "type": "t_array(t_uint256)49_storage"
      },
      {
        "astId": 38683,
        "contract": "contracts/veION/veIONSecondExtension.sol:veIONSecondExtension",
        "label": "s_tokenId",
        "offset": 0,
        "slot": "301",
        "type": "t_uint256"
      },
      {
        "astId": 38686,
        "contract": "contracts/veION/veIONSecondExtension.sol:veIONSecondExtension",
        "label": "s_limitedBoost",
        "offset": 0,
        "slot": "302",
        "type": "t_uint256"
      },
      {
        "astId": 38689,
        "contract": "contracts/veION/veIONSecondExtension.sol:veIONSecondExtension",
        "label": "s_limitedBoostActive",
        "offset": 0,
        "slot": "303",
        "type": "t_bool"
      },
      {
        "astId": 38692,
        "contract": "contracts/veION/veIONSecondExtension.sol:veIONSecondExtension",
        "label": "s_veAERO",
        "offset": 1,
        "slot": "303",
        "type": "t_address"
      },
      {
        "astId": 38695,
        "contract": "contracts/veION/veIONSecondExtension.sol:veIONSecondExtension",
        "label": "s_aeroVoting",
        "offset": 0,
        "slot": "304",
        "type": "t_address"
      },
      {
        "astId": 38698,
        "contract": "contracts/veION/veIONSecondExtension.sol:veIONSecondExtension",
        "label": "s_ionicPool",
        "offset": 0,
        "slot": "305",
        "type": "t_address"
      },
      {
        "astId": 38701,
        "contract": "contracts/veION/veIONSecondExtension.sol:veIONSecondExtension",
        "label": "s_voter",
        "offset": 0,
        "slot": "306",
        "type": "t_address"
      },
      {
        "astId": 38704,
        "contract": "contracts/veION/veIONSecondExtension.sol:veIONSecondExtension",
        "label": "s_aeroVoterBoost",
        "offset": 0,
        "slot": "307",
        "type": "t_uint256"
      },
      {
        "astId": 38707,
        "contract": "contracts/veION/veIONSecondExtension.sol:veIONSecondExtension",
        "label": "s_minimumLockDuration",
        "offset": 0,
        "slot": "308",
        "type": "t_uint256"
      },
      {
        "astId": 38710,
        "contract": "contracts/veION/veIONSecondExtension.sol:veIONSecondExtension",
        "label": "s_maxEarlyWithdrawFee",
        "offset": 0,
        "slot": "309",
        "type": "t_uint256"
      },
      {
        "astId": 38714,
        "contract": "contracts/veION/veIONSecondExtension.sol:veIONSecondExtension",
        "label": "ap",
        "offset": 0,
        "slot": "310",
        "type": "t_contract(IAddressesProvider)31261"
      },
      {
        "astId": 38717,
        "contract": "contracts/veION/veIONSecondExtension.sol:veIONSecondExtension",
        "label": "veIONFirstExtension",
        "offset": 0,
        "slot": "311",
        "type": "t_address"
      },
      {
        "astId": 38720,
        "contract": "contracts/veION/veIONSecondExtension.sol:veIONSecondExtension",
        "label": "veIONSecondExtension",
        "offset": 0,
        "slot": "312",
        "type": "t_address"
      },
      {
        "astId": 38726,
        "contract": "contracts/veION/veIONSecondExtension.sol:veIONSecondExtension",
        "label": "s_minimumLockAmount",
        "offset": 0,
        "slot": "313",
        "type": "t_mapping(t_enum(LpTokenType)31614,t_uint256)"
      },
      {
        "astId": 38731,
        "contract": "contracts/veION/veIONSecondExtension.sol:veIONSecondExtension",
        "label": "s_whitelistedToken",
        "offset": 0,
        "slot": "314",
        "type": "t_mapping(t_address,t_bool)"
      },
      {
        "astId": 38737,
        "contract": "contracts/veION/veIONSecondExtension.sol:veIONSecondExtension",
        "label": "s_lpType",
        "offset": 0,
        "slot": "315",
        "type": "t_mapping(t_address,t_enum(LpTokenType)31614)"
      },
      {
        "astId": 38742,
        "contract": "contracts/veION/veIONSecondExtension.sol:veIONSecondExtension",
        "label": "s_canSplit",
        "offset": 0,
        "slot": "316",
        "type": "t_mapping(t_address,t_bool)"
      },
      {
        "astId": 38751,
        "contract": "contracts/veION/veIONSecondExtension.sol:veIONSecondExtension",
        "label": "s_locked",
        "offset": 0,
        "slot": "317",
        "type": "t_mapping(t_uint256,t_mapping(t_enum(LpTokenType)31614,t_struct(LockedBalance)31557_storage))"
      },
      {
        "astId": 38759,
        "contract": "contracts/veION/veIONSecondExtension.sol:veIONSecondExtension",
        "label": "s_userPointEpoch",
        "offset": 0,
        "slot": "318",
        "type": "t_mapping(t_uint256,t_mapping(t_enum(LpTokenType)31614,t_uint256))"
      },
      {
        "astId": 38770,
        "contract": "contracts/veION/veIONSecondExtension.sol:veIONSecondExtension",
        "label": "s_userPointHistory",
        "offset": 0,
        "slot": "319",
        "type": "t_mapping(t_uint256,t_mapping(t_enum(LpTokenType)31614,t_array(t_struct(UserPoint)31577_storage)1000000000_storage))"
      },
      {
        "astId": 38776,
        "contract": "contracts/veION/veIONSecondExtension.sol:veIONSecondExtension",
        "label": "s_assetsLocked",
        "offset": 0,
        "slot": "320",
        "type": "t_mapping(t_uint256,t_struct(AddressSet)7269_storage)"
      },
      {
        "astId": 38781,
        "contract": "contracts/veION/veIONSecondExtension.sol:veIONSecondExtension",
        "label": "s_voted",
        "offset": 0,
        "slot": "321",
        "type": "t_mapping(t_uint256,t_bool)"
      },
      {
        "astId": 38787,
        "contract": "contracts/veION/veIONSecondExtension.sol:veIONSecondExtension",
        "label": "s_supply",
        "offset": 0,
        "slot": "322",
        "type": "t_mapping(t_enum(LpTokenType)31614,t_uint256)"
      },
      {
        "astId": 38793,
        "contract": "contracts/veION/veIONSecondExtension.sol:veIONSecondExtension",
        "label": "s_permanentLockBalance",
        "offset": 0,
        "slot": "323",
        "type": "t_mapping(t_enum(LpTokenType)31614,t_uint256)"
      },
      {
        "astId": 38800,
        "contract": "contracts/veION/veIONSecondExtension.sol:veIONSecondExtension",
        "label": "s_stakeStrategy",
        "offset": 0,
        "slot": "324",
        "type": "t_mapping(t_enum(LpTokenType)31614,t_contract(IStakeStrategy)32404)"
      },
      {
        "astId": 38807,
        "contract": "contracts/veION/veIONSecondExtension.sol:veIONSecondExtension",
        "label": "s_underlyingStake",
        "offset": 0,
        "slot": "325",
        "type": "t_mapping(t_uint256,t_mapping(t_address,t_uint256))"
      },
      {
        "astId": 38813,
        "contract": "contracts/veION/veIONSecondExtension.sol:veIONSecondExtension",
        "label": "s_protocolFees",
        "offset": 0,
        "slot": "326",
        "type": "t_mapping(t_enum(LpTokenType)31614,t_uint256)"
      },
      {
        "astId": 38819,
        "contract": "contracts/veION/veIONSecondExtension.sol:veIONSecondExtension",
        "label": "s_distributedFees",
        "offset": 0,
        "slot": "327",
        "type": "t_mapping(t_enum(LpTokenType)31614,t_uint256)"
      },
      {
        "astId": 38829,
        "contract": "contracts/veION/veIONSecondExtension.sol:veIONSecondExtension",
        "label": "s_delegations",
        "offset": 0,
        "slot": "328",
        "type": "t_mapping(t_uint256,t_mapping(t_uint256,t_mapping(t_enum(LpTokenType)31614,t_uint256)))"
      },
      {
        "astId": 38838,
        "contract": "contracts/veION/veIONSecondExtension.sol:veIONSecondExtension",
        "label": "s_delegatees",
        "offset": 0,
        "slot": "329",
        "type": "t_mapping(t_uint256,t_mapping(t_enum(LpTokenType)31614,t_struct(UintSet)7426_storage))"
      },
      {
        "astId": 38847,
        "contract": "contracts/veION/veIONSecondExtension.sol:veIONSecondExtension",
        "label": "s_delegators",
        "offset": 0,
        "slot": "330",
        "type": "t_mapping(t_uint256,t_mapping(t_enum(LpTokenType)31614,t_struct(UintSet)7426_storage))"
      },
      {
        "astId": 38853,
        "contract": "contracts/veION/veIONSecondExtension.sol:veIONSecondExtension",
        "label": "s_ownerToTokenIds",
        "offset": 0,
        "slot": "331",
        "type": "t_mapping(t_address,t_struct(UintSet)7426_storage)"
      },
      {
        "astId": 38860,
        "contract": "contracts/veION/veIONSecondExtension.sol:veIONSecondExtension",
        "label": "s_userCumulativeAssetValues",
        "offset": 0,
        "slot": "332",
        "type": "t_mapping(t_address,t_mapping(t_address,t_uint256))"
      },
      {
        "astId": 38867,
        "contract": "contracts/veION/veIONSecondExtension.sol:veIONSecondExtension",
        "label": "s_delegatorsBlocked",
        "offset": 0,
        "slot": "333",
        "type": "t_mapping(t_uint256,t_mapping(t_address,t_bool))"
      },
      {
        "astId": 38871,
        "contract": "contracts/veION/veIONSecondExtension.sol:veIONSecondExtension",
        "label": "__gap",
        "offset": 0,
        "slot": "334",
        "type": "t_array(t_uint256)50_storage"
      }
    ],
    "types": {
      "t_address": {
        "encoding": "inplace",
        "label": "address",
        "numberOfBytes": "20"
      },
      "t_array(t_bytes32)dyn_storage": {
        "base": "t_bytes32",
        "encoding": "dynamic_array",
        "label": "bytes32[]",
        "numberOfBytes": "32"
      },
      "t_array(t_struct(UserPoint)31577_storage)1000000000_storage": {
        "base": "t_struct(UserPoint)31577_storage",
        "encoding": "inplace",
        "label": "struct IveIONStructsEnumsErrorsEvents.UserPoint[1000000000]",
        "numberOfBytes": "192000000000"
      },
      "t_array(t_uint256)44_storage": {
        "base": "t_uint256",
        "encoding": "inplace",
        "label": "uint256[44]",
        "numberOfBytes": "1408"
      },
      "t_array(t_uint256)49_storage": {
        "base": "t_uint256",
        "encoding": "inplace",
        "label": "uint256[49]",
        "numberOfBytes": "1568"
      },
      "t_array(t_uint256)50_storage": {
        "base": "t_uint256",
        "encoding": "inplace",
        "label": "uint256[50]",
        "numberOfBytes": "1600"
      },
      "t_bool": {
        "encoding": "inplace",
        "label": "bool",
        "numberOfBytes": "1"
      },
      "t_bytes32": {
        "encoding": "inplace",
        "label": "bytes32",
        "numberOfBytes": "32"
      },
      "t_contract(IAddressesProvider)31261": {
        "encoding": "inplace",
        "label": "contract IAddressesProvider",
        "numberOfBytes": "20"
      },
      "t_contract(IStakeStrategy)32404": {
        "encoding": "inplace",
        "label": "contract IStakeStrategy",
        "numberOfBytes": "20"
      },
      "t_enum(LpTokenType)31614": {
        "encoding": "inplace",
        "label": "enum IveIONStructsEnumsErrorsEvents.LpTokenType",
        "numberOfBytes": "1"
      },
      "t_mapping(t_address,t_bool)": {
        "encoding": "mapping",
        "key": "t_address",
        "label": "mapping(address => bool)",
        "numberOfBytes": "32",
        "value": "t_bool"
      },
      "t_mapping(t_address,t_enum(LpTokenType)31614)": {
        "encoding": "mapping",
        "key": "t_address",
        "label": "mapping(address => enum IveIONStructsEnumsErrorsEvents.LpTokenType)",
        "numberOfBytes": "32",
        "value": "t_enum(LpTokenType)31614"
      },
      "t_mapping(t_address,t_mapping(t_address,t_bool))": {
        "encoding": "mapping",
        "key": "t_address",
        "label": "mapping(address => mapping(address => bool))",
        "numberOfBytes": "32",
        "value": "t_mapping(t_address,t_bool)"
      },
      "t_mapping(t_address,t_mapping(t_address,t_uint256))": {
        "encoding": "mapping",
        "key": "t_address",
        "label": "mapping(address => mapping(address => uint256))",
        "numberOfBytes": "32",
        "value": "t_mapping(t_address,t_uint256)"
      },
      "t_mapping(t_address,t_struct(UintSet)7426_storage)": {
        "encoding": "mapping",
        "key": "t_address",
        "label": "mapping(address => struct EnumerableSet.UintSet)",
        "numberOfBytes": "32",
        "value": "t_struct(UintSet)7426_storage"
      },
      "t_mapping(t_address,t_uint256)": {
        "encoding": "mapping",
        "key": "t_address",
        "label": "mapping(address => uint256)",
        "numberOfBytes": "32",
        "value": "t_uint256"
      },
      "t_mapping(t_bytes32,t_uint256)": {
        "encoding": "mapping",
        "key": "t_bytes32",
        "label": "mapping(bytes32 => uint256)",
        "numberOfBytes": "32",
        "value": "t_uint256"
      },
      "t_mapping(t_enum(LpTokenType)31614,t_array(t_struct(UserPoint)31577_storage)1000000000_storage)": {
        "encoding": "mapping",
        "key": "t_enum(LpTokenType)31614",
        "label": "mapping(enum IveIONStructsEnumsErrorsEvents.LpTokenType => struct IveIONStructsEnumsErrorsEvents.UserPoint[1000000000])",
        "numberOfBytes": "32",
        "value": "t_array(t_struct(UserPoint)31577_storage)1000000000_storage"
      },
      "t_mapping(t_enum(LpTokenType)31614,t_contract(IStakeStrategy)32404)": {
        "encoding": "mapping",
        "key": "t_enum(LpTokenType)31614",
        "label": "mapping(enum IveIONStructsEnumsErrorsEvents.LpTokenType => contract IStakeStrategy)",
        "numberOfBytes": "32",
        "value": "t_contract(IStakeStrategy)32404"
      },
      "t_mapping(t_enum(LpTokenType)31614,t_struct(LockedBalance)31557_storage)": {
        "encoding": "mapping",
        "key": "t_enum(LpTokenType)31614",
        "label": "mapping(enum IveIONStructsEnumsErrorsEvents.LpTokenType => struct IveIONStructsEnumsErrorsEvents.LockedBalance)",
        "numberOfBytes": "32",
        "value": "t_struct(LockedBalance)31557_storage"
      },
      "t_mapping(t_enum(LpTokenType)31614,t_struct(UintSet)7426_storage)": {
        "encoding": "mapping",
        "key": "t_enum(LpTokenType)31614",
        "label": "mapping(enum IveIONStructsEnumsErrorsEvents.LpTokenType => struct EnumerableSet.UintSet)",
        "numberOfBytes": "32",
        "value": "t_struct(UintSet)7426_storage"
      },
      "t_mapping(t_enum(LpTokenType)31614,t_uint256)": {
        "encoding": "mapping",
        "key": "t_enum(LpTokenType)31614",
        "label": "mapping(enum IveIONStructsEnumsErrorsEvents.LpTokenType => uint256)",
        "numberOfBytes": "32",
        "value": "t_uint256"
      },
      "t_mapping(t_uint256,t_address)": {
        "encoding": "mapping",
        "key": "t_uint256",
        "label": "mapping(uint256 => address)",
        "numberOfBytes": "32",
        "value": "t_address"
      },
      "t_mapping(t_uint256,t_bool)": {
        "encoding": "mapping",
        "key": "t_uint256",
        "label": "mapping(uint256 => bool)",
        "numberOfBytes": "32",
        "value": "t_bool"
      },
      "t_mapping(t_uint256,t_mapping(t_address,t_bool))": {
        "encoding": "mapping",
        "key": "t_uint256",
        "label": "mapping(uint256 => mapping(address => bool))",
        "numberOfBytes": "32",
        "value": "t_mapping(t_address,t_bool)"
      },
      "t_mapping(t_uint256,t_mapping(t_address,t_uint256))": {
        "encoding": "mapping",
        "key": "t_uint256",
        "label": "mapping(uint256 => mapping(address => uint256))",
        "numberOfBytes": "32",
        "value": "t_mapping(t_address,t_uint256)"
      },
      "t_mapping(t_uint256,t_mapping(t_enum(LpTokenType)31614,t_array(t_struct(UserPoint)31577_storage)1000000000_storage))": {
        "encoding": "mapping",
        "key": "t_uint256",
        "label": "mapping(uint256 => mapping(enum IveIONStructsEnumsErrorsEvents.LpTokenType => struct IveIONStructsEnumsErrorsEvents.UserPoint[1000000000]))",
        "numberOfBytes": "32",
        "value": "t_mapping(t_enum(LpTokenType)31614,t_array(t_struct(UserPoint)31577_storage)1000000000_storage)"
      },
      "t_mapping(t_uint256,t_mapping(t_enum(LpTokenType)31614,t_struct(LockedBalance)31557_storage))": {
        "encoding": "mapping",
        "key": "t_uint256",
        "label": "mapping(uint256 => mapping(enum IveIONStructsEnumsErrorsEvents.LpTokenType => struct IveIONStructsEnumsErrorsEvents.LockedBalance))",
        "numberOfBytes": "32",
        "value": "t_mapping(t_enum(LpTokenType)31614,t_struct(LockedBalance)31557_storage)"
      },
      "t_mapping(t_uint256,t_mapping(t_enum(LpTokenType)31614,t_struct(UintSet)7426_storage))": {
        "encoding": "mapping",
        "key": "t_uint256",
        "label": "mapping(uint256 => mapping(enum IveIONStructsEnumsErrorsEvents.LpTokenType => struct EnumerableSet.UintSet))",
        "numberOfBytes": "32",
        "value": "t_mapping(t_enum(LpTokenType)31614,t_struct(UintSet)7426_storage)"
      },
      "t_mapping(t_uint256,t_mapping(t_enum(LpTokenType)31614,t_uint256))": {
        "encoding": "mapping",
        "key": "t_uint256",
        "label": "mapping(uint256 => mapping(enum IveIONStructsEnumsErrorsEvents.LpTokenType => uint256))",
        "numberOfBytes": "32",
        "value": "t_mapping(t_enum(LpTokenType)31614,t_uint256)"
      },
      "t_mapping(t_uint256,t_mapping(t_uint256,t_mapping(t_enum(LpTokenType)31614,t_uint256)))": {
        "encoding": "mapping",
        "key": "t_uint256",
        "label": "mapping(uint256 => mapping(uint256 => mapping(enum IveIONStructsEnumsErrorsEvents.LpTokenType => uint256)))",
        "numberOfBytes": "32",
        "value": "t_mapping(t_uint256,t_mapping(t_enum(LpTokenType)31614,t_uint256))"
      },
      "t_mapping(t_uint256,t_struct(AddressSet)7269_storage)": {
        "encoding": "mapping",
        "key": "t_uint256",
        "label": "mapping(uint256 => struct EnumerableSet.AddressSet)",
        "numberOfBytes": "32",
        "value": "t_struct(AddressSet)7269_storage"
      },
      "t_string_storage": {
        "encoding": "bytes",
        "label": "string",
        "numberOfBytes": "32"
      },
      "t_struct(AddressSet)7269_storage": {
        "encoding": "inplace",
        "label": "struct EnumerableSet.AddressSet",
        "members": [
          {
            "astId": 7268,
            "contract": "contracts/veION/veIONSecondExtension.sol:veIONSecondExtension",
            "label": "_inner",
            "offset": 0,
            "slot": "0",
            "type": "t_struct(Set)6954_storage"
          }
        ],
        "numberOfBytes": "64"
      },
      "t_struct(LockedBalance)31557_storage": {
        "encoding": "inplace",
        "label": "struct IveIONStructsEnumsErrorsEvents.LockedBalance",
        "members": [
          {
            "astId": 31544,
            "contract": "contracts/veION/veIONSecondExtension.sol:veIONSecondExtension",
            "label": "tokenAddress",
            "offset": 0,
            "slot": "0",
            "type": "t_address"
          },
          {
            "astId": 31546,
            "contract": "contracts/veION/veIONSecondExtension.sol:veIONSecondExtension",
            "label": "amount",
            "offset": 0,
            "slot": "1",
            "type": "t_uint256"
          },
          {
            "astId": 31548,
            "contract": "contracts/veION/veIONSecondExtension.sol:veIONSecondExtension",
            "label": "delegateAmount",
            "offset": 0,
            "slot": "2",
            "type": "t_uint256"
          },
          {
            "astId": 31550,
            "contract": "contracts/veION/veIONSecondExtension.sol:veIONSecondExtension",
            "label": "start",
            "offset": 0,
            "slot": "3",
            "type": "t_uint256"
          },
          {
            "astId": 31552,
            "contract": "contracts/veION/veIONSecondExtension.sol:veIONSecondExtension",
            "label": "end",
            "offset": 0,
            "slot": "4",
            "type": "t_uint256"
          },
          {
            "astId": 31554,
            "contract": "contracts/veION/veIONSecondExtension.sol:veIONSecondExtension",
            "label": "isPermanent",
            "offset": 0,
            "slot": "5",
            "type": "t_bool"
          },
          {
            "astId": 31556,
            "contract": "contracts/veION/veIONSecondExtension.sol:veIONSecondExtension",
            "label": "boost",
            "offset": 0,
            "slot": "6",
            "type": "t_uint256"
          }
        ],
        "numberOfBytes": "224"
      },
      "t_struct(Set)6954_storage": {
        "encoding": "inplace",
        "label": "struct EnumerableSet.Set",
        "members": [
          {
            "astId": 6949,
            "contract": "contracts/veION/veIONSecondExtension.sol:veIONSecondExtension",
            "label": "_values",
            "offset": 0,
            "slot": "0",
            "type": "t_array(t_bytes32)dyn_storage"
          },
          {
            "astId": 6953,
            "contract": "contracts/veION/veIONSecondExtension.sol:veIONSecondExtension",
            "label": "_indexes",
            "offset": 0,
            "slot": "1",
            "type": "t_mapping(t_bytes32,t_uint256)"
          }
        ],
        "numberOfBytes": "64"
      },
      "t_struct(UintSet)7426_storage": {
        "encoding": "inplace",
        "label": "struct EnumerableSet.UintSet",
        "members": [
          {
            "astId": 7425,
            "contract": "contracts/veION/veIONSecondExtension.sol:veIONSecondExtension",
            "label": "_inner",
            "offset": 0,
            "slot": "0",
            "type": "t_struct(Set)6954_storage"
          }
        ],
        "numberOfBytes": "64"
      },
      "t_struct(UserPoint)31577_storage": {
        "encoding": "inplace",
        "label": "struct IveIONStructsEnumsErrorsEvents.UserPoint",
        "members": [
          {
            "astId": 31566,
            "contract": "contracts/veION/veIONSecondExtension.sol:veIONSecondExtension",
            "label": "bias",
            "offset": 0,
            "slot": "0",
            "type": "t_uint256"
          },
          {
            "astId": 31568,
            "contract": "contracts/veION/veIONSecondExtension.sol:veIONSecondExtension",
            "label": "slope",
            "offset": 0,
            "slot": "1",
            "type": "t_uint256"
          },
          {
            "astId": 31570,
            "contract": "contracts/veION/veIONSecondExtension.sol:veIONSecondExtension",
            "label": "ts",
            "offset": 0,
            "slot": "2",
            "type": "t_uint256"
          },
          {
            "astId": 31572,
            "contract": "contracts/veION/veIONSecondExtension.sol:veIONSecondExtension",
            "label": "blk",
            "offset": 0,
            "slot": "3",
            "type": "t_uint256"
          },
          {
            "astId": 31574,
            "contract": "contracts/veION/veIONSecondExtension.sol:veIONSecondExtension",
            "label": "permanent",
            "offset": 0,
            "slot": "4",
            "type": "t_uint256"
          },
          {
            "astId": 31576,
            "contract": "contracts/veION/veIONSecondExtension.sol:veIONSecondExtension",
            "label": "permanentDelegate",
            "offset": 0,
            "slot": "5",
            "type": "t_uint256"
          }
        ],
        "numberOfBytes": "192"
      },
      "t_uint256": {
        "encoding": "inplace",
        "label": "uint256",
        "numberOfBytes": "32"
      },
      "t_uint8": {
        "encoding": "inplace",
        "label": "uint8",
        "numberOfBytes": "1"
      }
    }
  }
}