{
  "address": "0x948BB10123B349F0c9f358Fe36735C260DF0B4cC",
  "abi": [
    {
      "inputs": [],
      "stateMutability": "nonpayable",
      "type": "constructor"
    },
    {
      "inputs": [],
      "name": "AeroBoostAmountMustBeGreaterThanZero",
      "type": "error"
    },
    {
      "inputs": [],
      "name": "AlreadyVoted",
      "type": "error"
    },
    {
      "inputs": [],
      "name": "AmountTooBig",
      "type": "error"
    },
    {
      "inputs": [],
      "name": "ArrayMismatch",
      "type": "error"
    },
    {
      "inputs": [],
      "name": "BoostAmountMustBeGreaterThanZero",
      "type": "error"
    },
    {
      "inputs": [],
      "name": "DuplicateAsset",
      "type": "error"
    },
    {
      "inputs": [],
      "name": "InvalidAddress",
      "type": "error"
    },
    {
      "inputs": [],
      "name": "InvalidStrategyAddress",
      "type": "error"
    },
    {
      "inputs": [],
      "name": "InvalidTokenAddress",
      "type": "error"
    },
    {
      "inputs": [],
      "name": "InvalidVeAEROAddress",
      "type": "error"
    },
    {
      "inputs": [],
      "name": "LockDurationNotInFuture",
      "type": "error"
    },
    {
      "inputs": [],
      "name": "LockDurationTooLong",
      "type": "error"
    },
    {
      "inputs": [],
      "name": "LockDurationTooShort",
      "type": "error"
    },
    {
      "inputs": [],
      "name": "LockExpired",
      "type": "error"
    },
    {
      "inputs": [],
      "name": "MaxEarlyWithdrawFeeMustBeGreaterThanZero",
      "type": "error"
    },
    {
      "inputs": [],
      "name": "MinimumAmountMustBeGreaterThanZero",
      "type": "error"
    },
    {
      "inputs": [],
      "name": "MinimumLockDurationMustBeGreaterThanZero",
      "type": "error"
    },
    {
      "inputs": [],
      "name": "MinimumNotMet",
      "type": "error"
    },
    {
      "inputs": [
        {
          "internalType": "uint256",
          "name": "_tokenId1",
          "type": "uint256"
        },
        {
          "internalType": "uint256",
          "name": "_tokenId2",
          "type": "uint256"
        }
      ],
      "name": "NoDelegationBetweenTokens",
      "type": "error"
    },
    {
      "inputs": [],
      "name": "NoLockFound",
      "type": "error"
    },
    {
      "inputs": [],
      "name": "NoUnderlyingStake",
      "type": "error"
    },
    {
      "inputs": [],
      "name": "NotAcceptingDelegators",
      "type": "error"
    },
    {
      "inputs": [],
      "name": "NotEnoughRemainingAfterSplit",
      "type": "error"
    },
    {
      "inputs": [],
      "name": "NotOwner",
      "type": "error"
    },
    {
      "inputs": [],
      "name": "NotPermanentLock",
      "type": "error"
    },
    {
      "inputs": [],
      "name": "NotVoter",
      "type": "error"
    },
    {
      "inputs": [],
      "name": "PermanentLock",
      "type": "error"
    },
    {
      "inputs": [],
      "name": "SameNFT",
      "type": "error"
    },
    {
      "inputs": [],
      "name": "SplitNotAllowed",
      "type": "error"
    },
    {
      "inputs": [],
      "name": "SplitTooSmall",
      "type": "error"
    },
    {
      "inputs": [],
      "name": "TokenHasDelegatees",
      "type": "error"
    },
    {
      "inputs": [],
      "name": "TokenHasDelegators",
      "type": "error"
    },
    {
      "inputs": [],
      "name": "TokenNotWhitelisted",
      "type": "error"
    },
    {
      "inputs": [],
      "name": "ZeroAmount",
      "type": "error"
    },
    {
      "anonymous": false,
      "inputs": [
        {
          "indexed": false,
          "internalType": "uint256",
          "name": "newAeroVoterBoost",
          "type": "uint256"
        }
      ],
      "name": "AeroVoterBoostSet",
      "type": "event"
    },
    {
      "anonymous": false,
      "inputs": [
        {
          "indexed": true,
          "internalType": "address",
          "name": "newAeroVoting",
          "type": "address"
        }
      ],
      "name": "AeroVotingSet",
      "type": "event"
    },
    {
      "anonymous": false,
      "inputs": [
        {
          "indexed": true,
          "internalType": "address",
          "name": "owner",
          "type": "address"
        },
        {
          "indexed": true,
          "internalType": "address",
          "name": "approved",
          "type": "address"
        },
        {
          "indexed": true,
          "internalType": "uint256",
          "name": "tokenId",
          "type": "uint256"
        }
      ],
      "name": "Approval",
      "type": "event"
    },
    {
      "anonymous": false,
      "inputs": [
        {
          "indexed": true,
          "internalType": "address",
          "name": "owner",
          "type": "address"
        },
        {
          "indexed": true,
          "internalType": "address",
          "name": "operator",
          "type": "address"
        },
        {
          "indexed": false,
          "internalType": "bool",
          "name": "approved",
          "type": "bool"
        }
      ],
      "name": "ApprovalForAll",
      "type": "event"
    },
    {
      "anonymous": false,
      "inputs": [
        {
          "indexed": true,
          "internalType": "uint256",
          "name": "fromTokenId",
          "type": "uint256"
        },
        {
          "indexed": true,
          "internalType": "uint256",
          "name": "toTokenId",
          "type": "uint256"
        },
        {
          "indexed": false,
          "internalType": "address",
          "name": "lpToken",
          "type": "address"
        },
        {
          "indexed": false,
          "internalType": "uint256",
          "name": "amount",
          "type": "uint256"
        }
      ],
      "name": "Delegated",
      "type": "event"
    },
    {
      "anonymous": false,
      "inputs": [
        {
          "indexed": true,
          "internalType": "uint256",
          "name": "fromTokenId",
          "type": "uint256"
        },
        {
          "indexed": true,
          "internalType": "uint256",
          "name": "toTokenId",
          "type": "uint256"
        },
        {
          "indexed": false,
          "internalType": "address",
          "name": "lpToken",
          "type": "address"
        },
        {
          "indexed": false,
          "internalType": "uint256",
          "name": "amount",
          "type": "uint256"
        }
      ],
      "name": "DelegationRemoved",
      "type": "event"
    },
    {
      "anonymous": false,
      "inputs": [
        {
          "indexed": true,
          "internalType": "uint256",
          "name": "_tokenId",
          "type": "uint256"
        },
        {
          "indexed": true,
          "internalType": "address",
          "name": "_lpToken",
          "type": "address"
        },
        {
          "indexed": false,
          "internalType": "bool",
          "name": "_blocked",
          "type": "bool"
        }
      ],
      "name": "DelegatorsBlocked",
      "type": "event"
    },
    {
      "anonymous": false,
      "inputs": [
        {
          "indexed": true,
          "internalType": "address",
          "name": "provider",
          "type": "address"
        },
        {
          "indexed": true,
          "internalType": "uint256",
          "name": "tokenId",
          "type": "uint256"
        },
        {
          "indexed": true,
          "internalType": "enum IveIONStructsEnumsErrorsEvents.DepositType",
          "name": "depositType",
          "type": "uint8"
        },
        {
          "indexed": false,
          "internalType": "uint256",
          "name": "value",
          "type": "uint256"
        },
        {
          "indexed": false,
          "internalType": "uint256",
          "name": "locktime",
          "type": "uint256"
        },
        {
          "indexed": false,
          "internalType": "uint256",
          "name": "ts",
          "type": "uint256"
        }
      ],
      "name": "Deposit",
      "type": "event"
    },
    {
      "anonymous": false,
      "inputs": [
        {
          "indexed": true,
          "internalType": "address",
          "name": "tokenAddress",
          "type": "address"
        },
        {
          "indexed": true,
          "internalType": "address",
          "name": "recipient",
          "type": "address"
        },
        {
          "indexed": false,
          "internalType": "uint256",
          "name": "amount",
          "type": "uint256"
        }
      ],
      "name": "DistributedFeesWithdrawn",
      "type": "event"
    },
    {
      "anonymous": false,
      "inputs": [
        {
          "indexed": true,
          "internalType": "address",
          "name": "claimant",
          "type": "address"
        },
        {
          "indexed": true,
          "internalType": "address",
          "name": "tokenAddress",
          "type": "address"
        }
      ],
      "name": "EmissionsClaimed",
      "type": "event"
    },
    {
      "anonymous": false,
      "inputs": [
        {
          "indexed": true,
          "internalType": "address",
          "name": "_firstExtension",
          "type": "address"
        },
        {
          "indexed": true,
          "internalType": "address",
          "name": "_secondExtension",
          "type": "address"
        }
      ],
      "name": "ExtensionsSet",
      "type": "event"
    },
    {
      "anonymous": false,
      "inputs": [
        {
          "indexed": false,
          "internalType": "uint8",
          "name": "version",
          "type": "uint8"
        }
      ],
      "name": "Initialized",
      "type": "event"
    },
    {
      "anonymous": false,
      "inputs": [
        {
          "indexed": true,
          "internalType": "address",
          "name": "addressesProvider",
          "type": "address"
        }
      ],
      "name": "Initialized",
      "type": "event"
    },
    {
      "anonymous": false,
      "inputs": [
        {
          "indexed": true,
          "internalType": "address",
          "name": "newIonicPool",
          "type": "address"
        }
      ],
      "name": "IonicPoolSet",
      "type": "event"
    },
    {
      "anonymous": false,
      "inputs": [
        {
          "indexed": false,
          "internalType": "bool",
          "name": "isBoosted",
          "type": "bool"
        }
      ],
      "name": "LimitedBoostToggled",
      "type": "event"
    },
    {
      "anonymous": false,
      "inputs": [
        {
          "indexed": false,
          "internalType": "uint256",
          "name": "boostAmount",
          "type": "uint256"
        }
      ],
      "name": "LimitedTimeBoostSet",
      "type": "event"
    },
    {
      "anonymous": false,
      "inputs": [
        {
          "indexed": true,
          "internalType": "address",
          "name": "token",
          "type": "address"
        },
        {
          "indexed": false,
          "internalType": "enum IveIONStructsEnumsErrorsEvents.LpTokenType",
          "name": "lpTokenType",
          "type": "uint8"
        }
      ],
      "name": "LpTokenTypeSet",
      "type": "event"
    },
    {
      "anonymous": false,
      "inputs": [
        {
          "indexed": false,
          "internalType": "uint256",
          "name": "maxEarlyWithdrawFee",
          "type": "uint256"
        }
      ],
      "name": "MaxEarlyWithdrawFeeSet",
      "type": "event"
    },
    {
      "anonymous": false,
      "inputs": [
        {
          "indexed": true,
          "internalType": "uint256",
          "name": "fromTokenId",
          "type": "uint256"
        },
        {
          "indexed": true,
          "internalType": "uint256",
          "name": "toTokenId",
          "type": "uint256"
        },
        {
          "indexed": false,
          "internalType": "address[]",
          "name": "assetsLocked",
          "type": "address[]"
        },
        {
          "indexed": false,
          "internalType": "uint256",
          "name": "lengthOfAssets",
          "type": "uint256"
        }
      ],
      "name": "MergeCompleted",
      "type": "event"
    },
    {
      "anonymous": false,
      "inputs": [
        {
          "indexed": true,
          "internalType": "address",
          "name": "tokenAddress",
          "type": "address"
        },
        {
          "indexed": false,
          "internalType": "uint256",
          "name": "minimumAmount",
          "type": "uint256"
        }
      ],
      "name": "MinimumLockAmountSet",
      "type": "event"
    },
    {
      "anonymous": false,
      "inputs": [
        {
          "indexed": false,
          "internalType": "uint256",
          "name": "minimumDuration",
          "type": "uint256"
        }
      ],
      "name": "MinimumLockDurationSet",
      "type": "event"
    },
    {
      "anonymous": false,
      "inputs": [
        {
          "indexed": true,
          "internalType": "address",
          "name": "previousOwner",
          "type": "address"
        },
        {
          "indexed": true,
          "internalType": "address",
          "name": "newOwner",
          "type": "address"
        }
      ],
      "name": "OwnershipTransferStarted",
      "type": "event"
    },
    {
      "anonymous": false,
      "inputs": [
        {
          "indexed": true,
          "internalType": "address",
          "name": "previousOwner",
          "type": "address"
        },
        {
          "indexed": true,
          "internalType": "address",
          "name": "newOwner",
          "type": "address"
        }
      ],
      "name": "OwnershipTransferred",
      "type": "event"
    },
    {
      "anonymous": false,
      "inputs": [
        {
          "indexed": true,
          "internalType": "address",
          "name": "tokenAddress",
          "type": "address"
        },
        {
          "indexed": true,
          "internalType": "uint256",
          "name": "tokenId",
          "type": "uint256"
        },
        {
          "indexed": false,
          "internalType": "uint256",
          "name": "amount",
          "type": "uint256"
        }
      ],
      "name": "PermanentLockCreated",
      "type": "event"
    },
    {
      "anonymous": false,
      "inputs": [
        {
          "indexed": true,
          "internalType": "address",
          "name": "tokenAddress",
          "type": "address"
        },
        {
          "indexed": true,
          "internalType": "uint256",
          "name": "tokenId",
          "type": "uint256"
        },
        {
          "indexed": false,
          "internalType": "uint256",
          "name": "amount",
          "type": "uint256"
        }
      ],
      "name": "PermanentLockRemoved",
      "type": "event"
    },
    {
      "anonymous": false,
      "inputs": [
        {
          "indexed": true,
          "internalType": "address",
          "name": "tokenAddress",
          "type": "address"
        },
        {
          "indexed": true,
          "internalType": "address",
          "name": "recipient",
          "type": "address"
        },
        {
          "indexed": false,
          "internalType": "uint256",
          "name": "amount",
          "type": "uint256"
        }
      ],
      "name": "ProtocolFeesWithdrawn",
      "type": "event"
    },
    {
      "anonymous": false,
      "inputs": [
        {
          "indexed": true,
          "internalType": "uint256",
          "name": "fromTokenId",
          "type": "uint256"
        },
        {
          "indexed": true,
          "internalType": "uint256",
          "name": "tokenId1",
          "type": "uint256"
        },
        {
          "indexed": true,
          "internalType": "uint256",
          "name": "tokenId2",
          "type": "uint256"
        },
        {
          "indexed": false,
          "internalType": "uint256",
          "name": "splitAmount",
          "type": "uint256"
        },
        {
          "indexed": false,
          "internalType": "address",
          "name": "tokenAddress",
          "type": "address"
        }
      ],
      "name": "SplitCompleted",
      "type": "event"
    },
    {
      "anonymous": false,
      "inputs": [
        {
          "indexed": true,
          "internalType": "address",
          "name": "account",
          "type": "address"
        },
        {
          "indexed": false,
          "internalType": "bool",
          "name": "isAllowed",
          "type": "bool"
        }
      ],
      "name": "SplitToggle",
      "type": "event"
    },
    {
      "anonymous": false,
      "inputs": [
        {
          "indexed": true,
          "internalType": "enum IveIONStructsEnumsErrorsEvents.LpTokenType",
          "name": "lpTokenType",
          "type": "uint8"
        },
        {
          "indexed": true,
          "internalType": "address",
          "name": "strategy",
          "type": "address"
        }
      ],
      "name": "StakeStrategySet",
      "type": "event"
    },
    {
      "anonymous": false,
      "inputs": [
        {
          "indexed": false,
          "internalType": "uint256",
          "name": "prevSupply",
          "type": "uint256"
        },
        {
          "indexed": false,
          "internalType": "uint256",
          "name": "supply",
          "type": "uint256"
        }
      ],
      "name": "Supply",
      "type": "event"
    },
    {
      "anonymous": false,
      "inputs": [
        {
          "indexed": false,
          "internalType": "address[]",
          "name": "token",
          "type": "address[]"
        },
        {
          "indexed": false,
          "internalType": "bool[]",
          "name": "isWhitelisted",
          "type": "bool[]"
        }
      ],
      "name": "TokensWhitelisted",
      "type": "event"
    },
    {
      "anonymous": false,
      "inputs": [
        {
          "indexed": true,
          "internalType": "address",
          "name": "from",
          "type": "address"
        },
        {
          "indexed": true,
          "internalType": "address",
          "name": "to",
          "type": "address"
        },
        {
          "indexed": true,
          "internalType": "uint256",
          "name": "tokenId",
          "type": "uint256"
        }
      ],
      "name": "Transfer",
      "type": "event"
    },
    {
      "anonymous": false,
      "inputs": [
        {
          "indexed": true,
          "internalType": "address",
          "name": "veAERO",
          "type": "address"
        }
      ],
      "name": "VeAEROSet",
      "type": "event"
    },
    {
      "anonymous": false,
      "inputs": [
        {
          "indexed": false,
          "internalType": "uint256",
          "name": "_tokenId",
          "type": "uint256"
        },
        {
          "indexed": false,
          "internalType": "bool",
          "name": "_voting",
          "type": "bool"
        }
      ],
      "name": "Voted",
      "type": "event"
    },
    {
      "anonymous": false,
      "inputs": [
        {
          "indexed": true,
          "internalType": "address",
          "name": "newVoter",
          "type": "address"
        }
      ],
      "name": "VoterSet",
      "type": "event"
    },
    {
      "anonymous": false,
      "inputs": [
        {
          "indexed": true,
          "internalType": "address",
          "name": "provider",
          "type": "address"
        },
        {
          "indexed": true,
          "internalType": "uint256",
          "name": "tokenId",
          "type": "uint256"
        },
        {
          "indexed": false,
          "internalType": "uint256",
          "name": "value",
          "type": "uint256"
        },
        {
          "indexed": false,
          "internalType": "uint256",
          "name": "ts",
          "type": "uint256"
        }
      ],
      "name": "Withdraw",
      "type": "event"
    },
    {
      "stateMutability": "nonpayable",
      "type": "fallback"
    },
    {
      "inputs": [],
      "name": "PRECISION",
      "outputs": [
        {
          "internalType": "uint256",
          "name": "",
          "type": "uint256"
        }
      ],
      "stateMutability": "view",
      "type": "function"
    },
    {
      "inputs": [],
      "name": "acceptOwnership",
      "outputs": [],
      "stateMutability": "nonpayable",
      "type": "function"
    },
    {
      "inputs": [],
      "name": "ap",
      "outputs": [
        {
          "internalType": "contract IAddressesProvider",
          "name": "",
          "type": "address"
        }
      ],
      "stateMutability": "view",
      "type": "function"
    },
    {
      "inputs": [
        {
          "internalType": "address",
          "name": "to",
          "type": "address"
        },
        {
          "internalType": "uint256",
          "name": "tokenId",
          "type": "uint256"
        }
      ],
      "name": "approve",
      "outputs": [],
      "stateMutability": "nonpayable",
      "type": "function"
    },
    {
      "inputs": [
        {
          "internalType": "address",
          "name": "owner",
          "type": "address"
        }
      ],
      "name": "balanceOf",
      "outputs": [
        {
          "internalType": "uint256",
          "name": "",
          "type": "uint256"
        }
      ],
      "stateMutability": "view",
      "type": "function"
    },
    {
      "inputs": [
        {
          "internalType": "address[]",
          "name": "_tokenAddress",
          "type": "address[]"
        },
        {
          "internalType": "uint256[]",
          "name": "_tokenAmount",
          "type": "uint256[]"
        },
        {
          "internalType": "uint256[]",
          "name": "_duration",
          "type": "uint256[]"
        },
        {
          "internalType": "bool[]",
          "name": "_stakeUnderlying",
          "type": "bool[]"
        }
      ],
      "name": "createLock",
      "outputs": [
        {
          "internalType": "uint256",
          "name": "",
          "type": "uint256"
        }
      ],
      "stateMutability": "nonpayable",
      "type": "function"
    },
    {
      "inputs": [
        {
          "internalType": "address[]",
          "name": "_tokenAddress",
          "type": "address[]"
        },
        {
          "internalType": "uint256[]",
          "name": "_tokenAmount",
          "type": "uint256[]"
        },
        {
          "internalType": "uint256[]",
          "name": "_duration",
          "type": "uint256[]"
        },
        {
          "internalType": "bool[]",
          "name": "_stakeUnderlying",
          "type": "bool[]"
        },
        {
          "internalType": "address",
          "name": "_to",
          "type": "address"
        }
      ],
      "name": "createLockFor",
      "outputs": [
        {
          "internalType": "uint256",
          "name": "",
          "type": "uint256"
        }
      ],
      "stateMutability": "nonpayable",
      "type": "function"
    },
    {
      "inputs": [
        {
          "internalType": "uint256",
          "name": "fromTokenId",
          "type": "uint256"
        },
        {
          "internalType": "uint256",
          "name": "toTokenId",
          "type": "uint256"
        },
        {
          "internalType": "address",
          "name": "lpToken",
          "type": "address"
        },
        {
          "internalType": "uint256",
          "name": "amount",
          "type": "uint256"
        }
      ],
      "name": "delegate",
      "outputs": [],
      "stateMutability": "nonpayable",
      "type": "function"
    },
    {
      "inputs": [
        {
          "internalType": "uint256",
          "name": "tokenId",
          "type": "uint256"
        }
      ],
      "name": "getApproved",
      "outputs": [
        {
          "internalType": "address",
          "name": "",
          "type": "address"
        }
      ],
      "stateMutability": "view",
      "type": "function"
    },
    {
      "inputs": [
        {
          "internalType": "address",
          "name": "_tokenAddress",
          "type": "address"
        },
        {
          "internalType": "uint256",
          "name": "_tokenId",
          "type": "uint256"
        },
        {
          "internalType": "uint256",
          "name": "_tokenAmount",
          "type": "uint256"
        },
        {
          "internalType": "bool",
          "name": "_stakeUnderlying",
          "type": "bool"
        }
      ],
      "name": "increaseAmount",
      "outputs": [],
      "stateMutability": "nonpayable",
      "type": "function"
    },
    {
      "inputs": [
        {
          "internalType": "address",
          "name": "_tokenAddress",
          "type": "address"
        },
        {
          "internalType": "uint256",
          "name": "_tokenId",
          "type": "uint256"
        },
        {
          "internalType": "uint256",
          "name": "_lockDuration",
          "type": "uint256"
        }
      ],
      "name": "increaseUnlockTime",
      "outputs": [],
      "stateMutability": "nonpayable",
      "type": "function"
    },
    {
      "inputs": [
        {
          "internalType": "contract IAddressesProvider",
          "name": "_ap",
          "type": "address"
        }
      ],
      "name": "initialize",
      "outputs": [],
      "stateMutability": "nonpayable",
      "type": "function"
    },
    {
      "inputs": [
        {
          "internalType": "address",
          "name": "owner",
          "type": "address"
        },
        {
          "internalType": "address",
          "name": "operator",
          "type": "address"
        }
      ],
      "name": "isApprovedForAll",
      "outputs": [
        {
          "internalType": "bool",
          "name": "",
          "type": "bool"
        }
      ],
      "stateMutability": "view",
      "type": "function"
    },
    {
      "inputs": [
        {
          "internalType": "address",
          "name": "_tokenAddress",
          "type": "address"
        },
        {
          "internalType": "uint256",
          "name": "_tokenAmount",
          "type": "uint256"
        },
        {
          "internalType": "uint256",
          "name": "_tokenId",
          "type": "uint256"
        },
        {
          "internalType": "uint256",
          "name": "_duration",
          "type": "uint256"
        },
        {
          "internalType": "bool",
          "name": "_stakeUnderlying",
          "type": "bool"
        }
      ],
      "name": "lockAdditionalAsset",
      "outputs": [],
      "stateMutability": "nonpayable",
      "type": "function"
    },
    {
      "inputs": [
        {
          "internalType": "address",
          "name": "_tokenAddress",
          "type": "address"
        },
        {
          "internalType": "uint256",
          "name": "_tokenId",
          "type": "uint256"
        }
      ],
      "name": "lockPermanent",
      "outputs": [],
      "stateMutability": "nonpayable",
      "type": "function"
    },
    {
      "inputs": [],
      "name": "name",
      "outputs": [
        {
          "internalType": "string",
          "name": "",
          "type": "string"
        }
      ],
      "stateMutability": "view",
      "type": "function"
    },
    {
      "inputs": [],
      "name": "owner",
      "outputs": [
        {
          "internalType": "address",
          "name": "",
          "type": "address"
        }
      ],
      "stateMutability": "view",
      "type": "function"
    },
    {
      "inputs": [
        {
          "internalType": "uint256",
          "name": "tokenId",
          "type": "uint256"
        }
      ],
      "name": "ownerOf",
      "outputs": [
        {
          "internalType": "address",
          "name": "",
          "type": "address"
        }
      ],
      "stateMutability": "view",
      "type": "function"
    },
    {
      "inputs": [],
      "name": "pendingOwner",
      "outputs": [
        {
          "internalType": "address",
          "name": "",
          "type": "address"
        }
      ],
      "stateMutability": "view",
      "type": "function"
    },
    {
      "inputs": [
        {
          "internalType": "uint256",
          "name": "fromTokenId",
          "type": "uint256"
        },
        {
          "internalType": "uint256[]",
          "name": "toTokenIds",
          "type": "uint256[]"
        },
        {
          "internalType": "address",
          "name": "lpToken",
          "type": "address"
        },
        {
          "internalType": "uint256[]",
          "name": "amounts",
          "type": "uint256[]"
        }
      ],
      "name": "removeDelegatees",
      "outputs": [],
      "stateMutability": "nonpayable",
      "type": "function"
    },
    {
      "inputs": [
        {
          "internalType": "uint256[]",
          "name": "fromTokenIds",
          "type": "uint256[]"
        },
        {
          "internalType": "uint256",
          "name": "toTokenId",
          "type": "uint256"
        },
        {
          "internalType": "address",
          "name": "lpToken",
          "type": "address"
        },
        {
          "internalType": "uint256[]",
          "name": "amounts",
          "type": "uint256[]"
        }
      ],
      "name": "removeDelegators",
      "outputs": [],
      "stateMutability": "nonpayable",
      "type": "function"
    },
    {
      "inputs": [],
      "name": "renounceOwnership",
      "outputs": [],
      "stateMutability": "nonpayable",
      "type": "function"
    },
    {
      "inputs": [],
      "name": "s_aeroVoterBoost",
      "outputs": [
        {
          "internalType": "uint256",
          "name": "",
          "type": "uint256"
        }
      ],
      "stateMutability": "view",
      "type": "function"
    },
    {
      "inputs": [],
      "name": "s_aeroVoting",
      "outputs": [
        {
          "internalType": "address",
          "name": "",
          "type": "address"
        }
      ],
      "stateMutability": "view",
      "type": "function"
    },
    {
      "inputs": [
        {
          "internalType": "address",
          "name": "",
          "type": "address"
        }
      ],
      "name": "s_canSplit",
      "outputs": [
        {
          "internalType": "bool",
          "name": "",
          "type": "bool"
        }
      ],
      "stateMutability": "view",
      "type": "function"
    },
    {
      "inputs": [
        {
          "internalType": "uint256",
          "name": "",
          "type": "uint256"
        },
        {
          "internalType": "uint256",
          "name": "",
          "type": "uint256"
        },
        {
          "internalType": "enum IveIONStructsEnumsErrorsEvents.LpTokenType",
          "name": "",
          "type": "uint8"
        }
      ],
      "name": "s_delegations",
      "outputs": [
        {
          "internalType": "uint256",
          "name": "",
          "type": "uint256"
        }
      ],
      "stateMutability": "view",
      "type": "function"
    },
    {
      "inputs": [
        {
          "internalType": "uint256",
          "name": "",
          "type": "uint256"
        },
        {
          "internalType": "address",
          "name": "",
          "type": "address"
        }
      ],
      "name": "s_delegatorsBlocked",
      "outputs": [
        {
          "internalType": "bool",
          "name": "",
          "type": "bool"
        }
      ],
      "stateMutability": "view",
      "type": "function"
    },
    {
      "inputs": [
        {
          "internalType": "enum IveIONStructsEnumsErrorsEvents.LpTokenType",
          "name": "",
          "type": "uint8"
        }
      ],
      "name": "s_distributedFees",
      "outputs": [
        {
          "internalType": "uint256",
          "name": "",
          "type": "uint256"
        }
      ],
      "stateMutability": "view",
      "type": "function"
    },
    {
      "inputs": [],
      "name": "s_ionicPool",
      "outputs": [
        {
          "internalType": "address",
          "name": "",
          "type": "address"
        }
      ],
      "stateMutability": "view",
      "type": "function"
    },
    {
      "inputs": [],
      "name": "s_limitedBoost",
      "outputs": [
        {
          "internalType": "uint256",
          "name": "",
          "type": "uint256"
        }
      ],
      "stateMutability": "view",
      "type": "function"
    },
    {
      "inputs": [],
      "name": "s_limitedBoostActive",
      "outputs": [
        {
          "internalType": "bool",
          "name": "",
          "type": "bool"
        }
      ],
      "stateMutability": "view",
      "type": "function"
    },
    {
      "inputs": [
        {
          "internalType": "uint256",
          "name": "",
          "type": "uint256"
        },
        {
          "internalType": "enum IveIONStructsEnumsErrorsEvents.LpTokenType",
          "name": "",
          "type": "uint8"
        }
      ],
      "name": "s_locked",
      "outputs": [
        {
          "internalType": "address",
          "name": "tokenAddress",
          "type": "address"
        },
        {
          "internalType": "uint256",
          "name": "amount",
          "type": "uint256"
        },
        {
          "internalType": "uint256",
          "name": "delegateAmount",
          "type": "uint256"
        },
        {
          "internalType": "uint256",
          "name": "start",
          "type": "uint256"
        },
        {
          "internalType": "uint256",
          "name": "end",
          "type": "uint256"
        },
        {
          "internalType": "bool",
          "name": "isPermanent",
          "type": "bool"
        },
        {
          "internalType": "uint256",
          "name": "boost",
          "type": "uint256"
        }
      ],
      "stateMutability": "view",
      "type": "function"
    },
    {
      "inputs": [
        {
          "internalType": "address",
          "name": "",
          "type": "address"
        }
      ],
      "name": "s_lpType",
      "outputs": [
        {
          "internalType": "enum IveIONStructsEnumsErrorsEvents.LpTokenType",
          "name": "",
          "type": "uint8"
        }
      ],
      "stateMutability": "view",
      "type": "function"
    },
    {
      "inputs": [],
      "name": "s_maxEarlyWithdrawFee",
      "outputs": [
        {
          "internalType": "uint256",
          "name": "",
          "type": "uint256"
        }
      ],
      "stateMutability": "view",
      "type": "function"
    },
    {
      "inputs": [
        {
          "internalType": "enum IveIONStructsEnumsErrorsEvents.LpTokenType",
          "name": "",
          "type": "uint8"
        }
      ],
      "name": "s_minimumLockAmount",
      "outputs": [
        {
          "internalType": "uint256",
          "name": "",
          "type": "uint256"
        }
      ],
      "stateMutability": "view",
      "type": "function"
    },
    {
      "inputs": [],
      "name": "s_minimumLockDuration",
      "outputs": [
        {
          "internalType": "uint256",
          "name": "",
          "type": "uint256"
        }
      ],
      "stateMutability": "view",
      "type": "function"
    },
    {
      "inputs": [
        {
          "internalType": "enum IveIONStructsEnumsErrorsEvents.LpTokenType",
          "name": "",
          "type": "uint8"
        }
      ],
      "name": "s_permanentLockBalance",
      "outputs": [
        {
          "internalType": "uint256",
          "name": "",
          "type": "uint256"
        }
      ],
      "stateMutability": "view",
      "type": "function"
    },
    {
      "inputs": [
        {
          "internalType": "enum IveIONStructsEnumsErrorsEvents.LpTokenType",
          "name": "",
          "type": "uint8"
        }
      ],
      "name": "s_protocolFees",
      "outputs": [
        {
          "internalType": "uint256",
          "name": "",
          "type": "uint256"
        }
      ],
      "stateMutability": "view",
      "type": "function"
    },
    {
      "inputs": [
        {
          "internalType": "enum IveIONStructsEnumsErrorsEvents.LpTokenType",
          "name": "",
          "type": "uint8"
        }
      ],
      "name": "s_stakeStrategy",
      "outputs": [
        {
          "internalType": "contract IStakeStrategy",
          "name": "",
          "type": "address"
        }
      ],
      "stateMutability": "view",
      "type": "function"
    },
    {
      "inputs": [
        {
          "internalType": "enum IveIONStructsEnumsErrorsEvents.LpTokenType",
          "name": "",
          "type": "uint8"
        }
      ],
      "name": "s_supply",
      "outputs": [
        {
          "internalType": "uint256",
          "name": "",
          "type": "uint256"
        }
      ],
      "stateMutability": "view",
      "type": "function"
    },
    {
      "inputs": [],
      "name": "s_tokenId",
      "outputs": [
        {
          "internalType": "uint256",
          "name": "",
          "type": "uint256"
        }
      ],
      "stateMutability": "view",
      "type": "function"
    },
    {
      "inputs": [
        {
          "internalType": "uint256",
          "name": "",
          "type": "uint256"
        },
        {
          "internalType": "address",
          "name": "",
          "type": "address"
        }
      ],
      "name": "s_underlyingStake",
      "outputs": [
        {
          "internalType": "uint256",
          "name": "",
          "type": "uint256"
        }
      ],
      "stateMutability": "view",
      "type": "function"
    },
    {
      "inputs": [
        {
          "internalType": "address",
          "name": "",
          "type": "address"
        },
        {
          "internalType": "address",
          "name": "",
          "type": "address"
        }
      ],
      "name": "s_userCumulativeAssetValues",
      "outputs": [
        {
          "internalType": "uint256",
          "name": "",
          "type": "uint256"
        }
      ],
      "stateMutability": "view",
      "type": "function"
    },
    {
      "inputs": [
        {
          "internalType": "uint256",
          "name": "",
          "type": "uint256"
        },
        {
          "internalType": "enum IveIONStructsEnumsErrorsEvents.LpTokenType",
          "name": "",
          "type": "uint8"
        }
      ],
      "name": "s_userPointEpoch",
      "outputs": [
        {
          "internalType": "uint256",
          "name": "",
          "type": "uint256"
        }
      ],
      "stateMutability": "view",
      "type": "function"
    },
    {
      "inputs": [
        {
          "internalType": "uint256",
          "name": "",
          "type": "uint256"
        },
        {
          "internalType": "enum IveIONStructsEnumsErrorsEvents.LpTokenType",
          "name": "",
          "type": "uint8"
        },
        {
          "internalType": "uint256",
          "name": "",
          "type": "uint256"
        }
      ],
      "name": "s_userPointHistory",
      "outputs": [
        {
          "internalType": "uint256",
          "name": "bias",
          "type": "uint256"
        },
        {
          "internalType": "uint256",
          "name": "slope",
          "type": "uint256"
        },
        {
          "internalType": "uint256",
          "name": "ts",
          "type": "uint256"
        },
        {
          "internalType": "uint256",
          "name": "blk",
          "type": "uint256"
        },
        {
          "internalType": "uint256",
          "name": "permanent",
          "type": "uint256"
        },
        {
          "internalType": "uint256",
          "name": "permanentDelegate",
          "type": "uint256"
        }
      ],
      "stateMutability": "view",
      "type": "function"
    },
    {
      "inputs": [],
      "name": "s_veAERO",
      "outputs": [
        {
          "internalType": "address",
          "name": "",
          "type": "address"
        }
      ],
      "stateMutability": "view",
      "type": "function"
    },
    {
      "inputs": [
        {
          "internalType": "uint256",
          "name": "",
          "type": "uint256"
        }
      ],
      "name": "s_voted",
      "outputs": [
        {
          "internalType": "bool",
          "name": "",
          "type": "bool"
        }
      ],
      "stateMutability": "view",
      "type": "function"
    },
    {
      "inputs": [],
      "name": "s_voter",
      "outputs": [
        {
          "internalType": "address",
          "name": "",
          "type": "address"
        }
      ],
      "stateMutability": "view",
      "type": "function"
    },
    {
      "inputs": [
        {
          "internalType": "address",
          "name": "",
          "type": "address"
        }
      ],
      "name": "s_whitelistedToken",
      "outputs": [
        {
          "internalType": "bool",
          "name": "",
          "type": "bool"
        }
      ],
      "stateMutability": "view",
      "type": "function"
    },
    {
      "inputs": [
        {
          "internalType": "address",
          "name": "from",
          "type": "address"
        },
        {
          "internalType": "address",
          "name": "to",
          "type": "address"
        },
        {
          "internalType": "uint256",
          "name": "tokenId",
          "type": "uint256"
        }
      ],
      "name": "safeTransferFrom",
      "outputs": [],
      "stateMutability": "nonpayable",
      "type": "function"
    },
    {
      "inputs": [
        {
          "internalType": "address",
          "name": "from",
          "type": "address"
        },
        {
          "internalType": "address",
          "name": "to",
          "type": "address"
        },
        {
          "internalType": "uint256",
          "name": "tokenId",
          "type": "uint256"
        },
        {
          "internalType": "bytes",
          "name": "data",
          "type": "bytes"
        }
      ],
      "name": "safeTransferFrom",
      "outputs": [],
      "stateMutability": "nonpayable",
      "type": "function"
    },
    {
      "inputs": [
        {
          "internalType": "address",
          "name": "operator",
          "type": "address"
        },
        {
          "internalType": "bool",
          "name": "approved",
          "type": "bool"
        }
      ],
      "name": "setApprovalForAll",
      "outputs": [],
      "stateMutability": "nonpayable",
      "type": "function"
    },
    {
      "inputs": [
        {
          "internalType": "address",
          "name": "_veIONFirstExtension",
          "type": "address"
        },
        {
          "internalType": "address",
          "name": "_veIONSecondExtension",
          "type": "address"
        }
      ],
      "name": "setExtensions",
      "outputs": [],
      "stateMutability": "nonpayable",
      "type": "function"
    },
    {
      "inputs": [
        {
          "internalType": "bytes4",
          "name": "interfaceId",
          "type": "bytes4"
        }
      ],
      "name": "supportsInterface",
      "outputs": [
        {
          "internalType": "bool",
          "name": "",
          "type": "bool"
        }
      ],
      "stateMutability": "view",
      "type": "function"
    },
    {
      "inputs": [],
      "name": "symbol",
      "outputs": [
        {
          "internalType": "string",
          "name": "",
          "type": "string"
        }
      ],
      "stateMutability": "view",
      "type": "function"
    },
    {
      "inputs": [
        {
          "internalType": "uint256",
          "name": "tokenId",
          "type": "uint256"
        }
      ],
      "name": "tokenURI",
      "outputs": [
        {
          "internalType": "string",
          "name": "",
          "type": "string"
        }
      ],
      "stateMutability": "view",
      "type": "function"
    },
    {
      "inputs": [
        {
          "internalType": "address",
          "name": "from",
          "type": "address"
        },
        {
          "internalType": "address",
          "name": "to",
          "type": "address"
        },
        {
          "internalType": "uint256",
          "name": "tokenId",
          "type": "uint256"
        }
      ],
      "name": "transferFrom",
      "outputs": [],
      "stateMutability": "nonpayable",
      "type": "function"
    },
    {
      "inputs": [
        {
          "internalType": "address",
          "name": "newOwner",
          "type": "address"
        }
      ],
      "name": "transferOwnership",
      "outputs": [],
      "stateMutability": "nonpayable",
      "type": "function"
    },
    {
      "inputs": [
        {
          "internalType": "address",
          "name": "_tokenAddress",
          "type": "address"
        },
        {
          "internalType": "uint256",
          "name": "_tokenId",
          "type": "uint256"
        }
      ],
      "name": "unlockPermanent",
      "outputs": [],
      "stateMutability": "nonpayable",
      "type": "function"
    },
    {
      "inputs": [],
      "name": "veIONFirstExtension",
      "outputs": [
        {
          "internalType": "address",
          "name": "",
          "type": "address"
        }
      ],
      "stateMutability": "view",
      "type": "function"
    },
    {
      "inputs": [],
      "name": "veIONSecondExtension",
      "outputs": [
        {
          "internalType": "address",
          "name": "",
          "type": "address"
        }
      ],
      "stateMutability": "view",
      "type": "function"
    },
    {
      "inputs": [
        {
          "internalType": "uint256",
          "name": "_tokenId",
          "type": "uint256"
        },
        {
          "internalType": "bool",
          "name": "_voting",
          "type": "bool"
        }
      ],
      "name": "voting",
      "outputs": [],
      "stateMutability": "nonpayable",
      "type": "function"
    }
  ],
  "transactionHash": "0x65ace3c828cb84950c6b583d63b4e6ea6f096c9fc85bf30307f67f90bcde8ccd",
  "args": [],
  "numDeployments": 1,
  "solcInputHash": "e80c3ac672326d6dc8195bcd28be67f7",
  "bytecode": "0x60806040523480156200001157600080fd5b506200001c62000022565b620000e4565b600054610100900460ff16156200008f5760405162461bcd60e51b815260206004820152602760248201527f496e697469616c697a61626c653a20636f6e747261637420697320696e697469604482015266616c697a696e6760c81b606482015260840160405180910390fd5b60005460ff9081161015620000e2576000805460ff191660ff9081179091556040519081527f7f26b83ff96e1f2b6a682f133852f6798a09c465da95921460cefb38474024989060200160405180910390a15b565b615eb280620000f46000396000f3fe608060405234801561001057600080fd5b50600436106103ba5760003560e01c806392415b08116101f4578063bae1cb5e1161011a578063df251974116100ad578063e985e9c51161007c578063e985e9c514610a5f578063ec09409514610a72578063eec83d8714610a96578063f2fde38b14610aa0576103ba565b8063df251974146109e3578063e1d514bd146109ed578063e30c397814610a0e578063e526789414610a1f576103ba565b8063cc8cb245116100e9578063cc8cb24514610992578063d0e6a790146109b3578063d8a82611146109c6578063dc5ec58f146109d0576103ba565b8063bae1cb5e14610927578063c4d66de814610948578063c682ee681461095b578063c87b56dd1461097f576103ba565b8063aaf5eb6811610192578063b1113baf11610161578063b1113baf146108a5578063b88d4fde146108d4578063b9e77c5f146108e7578063ba99c4df146108fb576103ba565b8063aaf5eb6814610860578063ab2d99db1461086f578063ad975d7114610879578063b04f9fc514610892576103ba565b80639ac1cc9d116101ce5780639ac1cc9d146107825780639b8b402914610827578063a1e37f731461083a578063a22cb4651461084d576103ba565b806392415b081461073657806395d89b411461076757806396aba9ca1461076f576103ba565b806342842e0e116102e45780636cbdce561161027757806379ba50971161024657806379ba5097146106e857806380e13a57146106f057806384cf379c146107115780638da5cb5b14610725576103ba565b80636cbdce561461069557806370a08231146106a9578063715018a6146106bc57806372b4c276146106c4576103ba565b80636352211e116102b35780636352211e1461064e57806366e1a92b146106615780636b2fe4c7146106745780636caa6b9b14610682576103ba565b806342842e0e146105e9578063535d9aaf146105fc57806358487c00146106285780635a4f459a1461063b576103ba565b8063171314f11161035c5780632879e8401161032b5780632879e840146105845780632eadea65146105ae5780633c4f743c146105c15780633d2cdbd1146105d5576103ba565b8063171314f11461053357806318e4451d1461053d5780631df595c71461055057806323b872dd14610571576103ba565b8063081812fc11610398578063081812fc146104af578063095ea7b3146104da57806312ba89ef146104ed57806314b3bdde1461051f576103ba565b806301ffc9a71461043857806306fdde031461046057806307b67fe814610475575b610137546001600160a01b0316806104125760405162461bcd60e51b8152602060048201526016602482015275125b5c1b195b595b9d185d1a5bdb881b9bdd081cd95d60521b60448201526064015b60405180910390fd5b3660008037600080366000845af43d6000803e808015610431573d6000f35b3d6000fd5b005b61044b6104463660046151a4565b610ab3565b60405190151581526020015b60405180910390f35b610468610b05565b6040516104579190615211565b6104a1610483366004615238565b61013e60209081526000928352604080842090915290825290205481565b604051908152602001610457565b6104c26104bd366004615264565b610b97565b6040516001600160a01b039091168152602001610457565b6104366104e8366004615292565b610bbe565b6104a16104fb3660046152be565b61014860209081526000938452604080852082529284528284209052825290205481565b610137546104c2906001600160a01b031681565b6104a161012d5481565b61043661054b366004615292565b610cd3565b6104a161055e3660046152f3565b6101466020526000908152604090205481565b61043661057f36600461530e565b61102b565b6104c26105923660046152f3565b610144602052600090815260409020546001600160a01b031681565b6104366105bc366004615429565b61105c565b610136546104c2906001600160a01b031681565b610131546104c2906001600160a01b031681565b6104366105f736600461530e565b6110eb565b6104a161060a3660046154ab565b61014560209081526000928352604080842090915290825290205481565b6104a161063636600461559d565b611106565b61043661064936600461565b565b6111d0565b6104c261065c366004615264565b611260565b61043661066f366004615680565b6112c0565b61012f5461044b9060ff1681565b6104366106903660046156ae565b611435565b610130546104c2906001600160a01b031681565b6104a16106b7366004615704565b611708565b61043661178e565b61044b6106d2366004615704565b61013a6020526000908152604090205460ff1681565b6104366117a2565b6104a16106fe3660046152f3565b6101476020526000908152604090205481565b610138546104c2906001600160a01b031681565b6033546001600160a01b03166104c2565b61075a610744366004615704565b61013b6020526000908152604090205460ff1681565b6040516104579190615737565b61046861181c565b61043661077d36600461575f565b61182b565b6107e6610790366004615238565b61013d60209081526000928352604080842090915290825290208054600182015460028301546003840154600485015460058601546006909601546001600160a01b0390951695939492939192909160ff169087565b604080516001600160a01b03909816885260208801969096529486019390935260608501919091526080840152151560a083015260c082015260e001610457565b6104a161083536600461579e565b611f45565b610436610848366004615870565b612009565b61043661085b3660046158ba565b6121e6565b6104a1670de0b6b3a764000081565b6104a16101345481565b61012f546104c29061010090046001600160a01b031681565b6104366108a03660046158e8565b6121f1565b61044b6108b33660046154ab565b61014d60209081526000928352604080842090915290825290205460ff1681565b6104366108e236600461593b565b612261565b610132546104c2906001600160a01b031681565b6104a1610909366004615680565b61014c60209081526000928352604080842090915290825290205481565b6104a16109353660046152f3565b6101436020526000908152604090205481565b610436610956366004615704565b612293565b61044b610969366004615704565b61013c6020526000908152604090205460ff1681565b61046861098d366004615264565b612431565b6104a16109a03660046152f3565b6101396020526000908152604090205481565b6104366109c13660046159ff565b6124a5565b6104a16101335481565b6104366109de366004615292565b6126a7565b6104a161012e5481565b6104a16109fb3660046152f3565b6101426020526000908152604090205481565b6065546001600160a01b03166104c2565b610a32610a2d366004615a34565b612973565b604080519687526020870195909552938501929092526060840152608083015260a082015260c001610457565b61044b610a6d366004615680565b6129cc565b61044b610a80366004615264565b6101416020526000908152604090205460ff1681565b6104a16101355481565b610436610aae366004615704565b6129fa565b60006001600160e01b031982166380ac58cd60e01b1480610ae457506001600160e01b03198216635b5e139f60e01b145b80610aff57506301ffc9a760e01b6001600160e01b03198316145b92915050565b606060c98054610b1490615a69565b80601f0160208091040260200160405190810160405280929190818152602001828054610b4090615a69565b8015610b8d5780601f10610b6257610100808354040283529160200191610b8d565b820191906000526020600020905b815481529060010190602001808311610b7057829003601f168201915b5050505050905090565b6000610ba282612a6b565b50600090815260cd60205260409020546001600160a01b031690565b6000610bc982611260565b9050806001600160a01b0316836001600160a01b031603610c365760405162461bcd60e51b815260206004820152602160248201527f4552433732313a20617070726f76616c20746f2063757272656e74206f776e656044820152603960f91b6064820152608401610409565b336001600160a01b0382161480610c525750610c5281336129cc565b610cc45760405162461bcd60e51b815260206004820152603d60248201527f4552433732313a20617070726f76652063616c6c6572206973206e6f7420746f60448201527f6b656e206f776e6572206f7220617070726f76656420666f7220616c6c0000006064820152608401610409565b610cce8383612ace565b505050565b610cdb612b3c565b6001600160a01b038216600090815261013b602090815260408083205484845261013d909252822060ff909116919081836005811115610d1d57610d1d615721565b6005811115610d2e57610d2e615721565b81526020808201929092526040908101600020815160e08101835281546001600160a01b031681526001820154938101939093526002810154918301919091526003810154606083015260048101546080830152600581015460ff16151560a08301526006015460c0820152905033610da684611260565b6001600160a01b031614610dcd576040516330cd747160e01b815260040160405180910390fd5b8060a00151610def57604051632188f8ab60e01b815260040160405180910390fd5b600083815261014960205260408120610e3891846005811115610e1457610e14615721565b6005811115610e2557610e25615721565b8152602001908152602001600020612b95565b15610e5657604051630edc980960e31b815260040160405180910390fd5b600083815261014a60205260408120610e7b91846005811115610e1457610e14615721565b15610e995760405163b467a0cd60e01b815260040160405180910390fd5b80602001516101436000846005811115610eb557610eb5615721565b6005811115610ec657610ec6615721565b81526020019081526020016000206000828254610ee39190615ab9565b9091555062093a80905080610efc6303c2670042615acc565b610f069190615adf565b610f109190615b01565b6080820152600060a0820181905283815261013d602052604081208291846005811115610f3f57610f3f615721565b6005811115610f5057610f50615721565b81526020808201929092526040908101600020835181546001600160a01b0319166001600160a01b039091161781559183015160018301558201516002820155606082015160038201556080820151600482015560a082015160058201805460ff191691151591909117905560c090910151600690910155610fd3838284612b9f565b82846001600160a01b03167fc9fb777d8136f44985873ace5c35caab55be7de39e2ce670bd114eef67af9d18836020015160405161101391815260200190565b60405180910390a35050611027600160fb55565b5050565b6110353382612ec7565b6110515760405162461bcd60e51b815260040161040990615b18565b610cce838383612f26565b611064612b3c565b80518451146110865760405163b7c1140d60e01b815260040160405180910390fd5b835160005b818110156110d9576110d18682815181106110a8576110a8615b65565b602002602001015186868685815181106110c4576110c4615b65565b6020026020010151613095565b60010161108b565b50506110e5600160fb55565b50505050565b610cce83838360405180602001604052806000815250612261565b6000611110612b3c565b6111b988888080602002602001604051908101604052809392919081815260200183836020028082843760009201919091525050604080516020808c0282810182019093528b82529093508b92508a91829185019084908082843760009201919091525050604080516020808b0282810182019093528a82529093508a9250899182918501908490808284376000920191909152508892506111b49150612aca9050565b6137b1565b90506111c5600160fb55565b979650505050505050565b610132546001600160a01b0316336001600160a01b0316146112055760405163c18384c160e01b815260040160405180910390fd5b60008281526101416020908152604091829020805460ff19168415159081179091558251858152918201527fa63b4de27d795de0f5597f73747fac943bc2864c1ef9fa81100950198d5030b391015b60405180910390a15050565b600081815260cb60205260408120546001600160a01b031680610aff5760405162461bcd60e51b8152602060048201526018602482015277115490cdcc8c4e881a5b9d985b1a59081d1bdad95b88125160421b6044820152606401610409565b6112c8613b3d565b6001600160a01b03821661131e5760405162461bcd60e51b815260206004820152601f60248201527f496e76616c696420466972737420457874656e73696f6e2041646472657373006044820152606401610409565b6001600160a01b0381166113745760405162461bcd60e51b815260206004820181905260248201527f496e76616c6964205365636f6e6420457874656e73696f6e20416464726573736044820152606401610409565b806001600160a01b0316826001600160a01b0316036113d55760405162461bcd60e51b815260206004820152601d60248201527f5375626d6974746564204964656e746963616c204164647265737365730000006044820152606401610409565b61013780546001600160a01b03199081166001600160a01b0385811691821790935561013880549092169284169283179091556040517f32a3d958ecac95e0e3171c39302bfe12bf0c8a65d10ab7cc4b423c96db1cce4690600090a35050565b61143d612b3c565b6001600160a01b038516600090815261013b602090815260408083205486845261013d909252822060ff90911691908183600581111561147f5761147f615721565b600581111561149057611490615721565b81526020019081526020016000209050600062093a808086426114b39190615acc565b6114bd9190615adf565b6114c79190615b01565b9050336114d387611260565b6001600160a01b0316146114fa576040516330cd747160e01b815260040160405180910390fd5b8660000361151b57604051631f2a200560e01b815260040160405180910390fd5b6000868152610141602052604090205460ff161561154c57604051637c9a1cf960e01b815260040160405180910390fd5b6000868152610140602052604090206115659089613b97565b61158257604051630587daa360e41b815260040160405180910390fd5b610139600084600581111561159957611599615721565b60058111156115aa576115aa615721565b8152602001908152602001600020548710156115d95760405163a0927dc360e01b815260040160405180910390fd5b6115e76303c2670042615acc565b8111156116075760405163f761f1cd60e01b815260040160405180910390fd5b6101345485101561162b576040516349eeb0b360e01b815260040160405180910390fd5b600582015460ff16156116845786610143600085600581111561165057611650615721565b600581111561166157611661615721565b8152602001908152602001600020600082825461167e9190615acc565b90915550505b6040805160e08101825283546001600160a01b0316815260018401546020820152600284015491810191909152600383015460608201526004808401546080830152600584015460ff16151560a0830152600684015460c08301526116f4918a9189918b9186918a918a33613bac565b505050611701600160fb55565b5050505050565b60006001600160a01b0382166117725760405162461bcd60e51b815260206004820152602960248201527f4552433732313a2061646472657373207a65726f206973206e6f7420612076616044820152683634b21037bbb732b960b91b6064820152608401610409565b506001600160a01b0316600090815260cc602052604090205490565b611796613b3d565b6117a0600061400c565b565b60655433906001600160a01b031681146118105760405162461bcd60e51b815260206004820152602960248201527f4f776e61626c6532537465703a2063616c6c6572206973206e6f7420746865206044820152683732bb9037bbb732b960b91b6064820152608401610409565b6118198161400c565b50565b606060ca8054610b1490615a69565b611833612b3c565b6001600160a01b038216600090815261013b602090815260408083205487845261013d909252822060ff90911691908183600581111561187557611875615721565b600581111561188657611886615721565b815260208082019290925260409081016000908120825160e08101845281546001600160a01b03168152600182015481860152600282015481850152600382015460608201526004820154608082015260058083015460ff16151560a083015260069092015460c082015289835261013d90945291812092935091908290859081111561191557611915615721565b600581111561192657611926615721565b81526020808201929092526040908101600020815160e08101835281546001600160a01b031681526001820154938101939093526002810154918301919091526003810154606083015260048101546080830152600581015460ff16151560a08301526006015460c082015290503361199e88611260565b6001600160a01b0316146119c5576040516330cd747160e01b815260040160405180910390fd5b81602001518411156119ea57604051636b2f218360e01b815260040160405180910390fd5b8160a00151611a0c57604051632188f8ab60e01b815260040160405180910390fd5b8060a00151611a2e57604051632188f8ab60e01b815260040160405180910390fd5b600086815261014d602090815260408083206001600160a01b038916845290915290205460ff1615611a7357604051631c6dc04d60e21b815260040160405180910390fd5b8382602001818151611a859190615ab9565b905250604081018051859190611a9c908390615acc565b905250600087815261014860209081526040808320898452909152812090846005811115611acc57611acc615721565b6005811115611add57611add615721565b815260200190815260200160002054600003611b7357600087815261014960205260408120611b4891889190866005811115611b1b57611b1b615721565b6005811115611b2c57611b2c615721565b815260200190815260200160002061402590919063ffffffff16565b50600086815261014a60205260408120611b7191899190866005811115611b1b57611b1b615721565b505b60008781526101486020908152604080832089845290915281208591856005811115611ba157611ba1615721565b6005811115611bb257611bb2615721565b81526020019081526020016000206000828254611bcf9190615acc565b9091555050600087815261013d602052604081208391856005811115611bf757611bf7615721565b6005811115611c0857611c08615721565b815260208082019290925260409081016000908120845181546001600160a01b0319166001600160a01b03909116178155848401516001820155848301516002820155606085015160038201556080850151600482015560a08501516005808301805460ff19169215159290921790915560c09095015160069091015589815261013d909252812083929091908690811115611ca657611ca6615721565b6005811115611cb757611cb7615721565b815260208082019290925260409081016000908120845181546001600160a01b0319166001600160a01b03909116178155848401516001820155848301516002820155606085015160038201556080850151600482015560a08501516005808301805460ff19169215159290921790915560c0909501516006909101558a815261013d9092528120611dda928a92908790811115611d5757611d57615721565b6005811115611d6857611d68615721565b81526020808201929092526040908101600020815160e08101835281546001600160a01b031681526001820154938101939093526002810154918301919091526003810154606083015260048101546080830152600581015460ff16151560a08301526006015460c082015285612b9f565b600086815261013d60205260408120611e0291889190866005811115611d5757611d57615721565b6000868152610141602052604090205460ff1615611e7a576101325460405163032145f960e41b8152600481018890526001600160a01b03909116906332145f9090602401600060405180830381600087803b158015611e6157600080fd5b505af1158015611e75573d6000803e3d6000fd5b505050505b6000878152610141602052604090205460ff1615611ef2576101325460405163032145f960e41b8152600481018990526001600160a01b03909116906332145f9090602401600060405180830381600087803b158015611ed957600080fd5b505af1158015611eed573d6000803e3d6000fd5b505050505b604080516001600160a01b038716815260208101869052879189917fbbaa67ec741b8d492a4db3063da731d48d48b07eb4370b0f46fbe25b2dc8b30b910160405180910390a35050506110e5600160fb55565b6000611f4f612b3c565b611ff189898080602002602001604051908101604052809392919081815260200183836020028082843760009201919091525050604080516020808d0282810182019093528c82529093508c92508b91829185019084908082843760009201919091525050604080516020808c0282810182019093528b82529093508b92508a9182918501908490808284376000920191909152508992508891506137b19050565b9050611ffd600160fb55565b98975050505050505050565b612011612b3c565b6001600160a01b038416600090815261013b602090815260408083205486845261013d909252822060ff90911691908183600581111561205357612053615721565b600581111561206457612064615721565b81526020808201929092526040908101600020815160e08101835281546001600160a01b031681526001820154938101939093526002810154918301919091526003810154606083015260048101546080830152600581015460ff16151560a08301526006015460c08201529050336120dc86611260565b6001600160a01b031614612103576040516330cd747160e01b815260040160405180910390fd5b8360000361212457604051631f2a200560e01b815260040160405180910390fd5b80602001516000036121495760405163f90e998d60e01b815260040160405180910390fd5b4281608001511115801561215f57508060a00151155b1561217d576040516307b7d7dd60e51b815260040160405180910390fd5b8060a00151156121d35783610143600084600581111561219f5761219f615721565b60058111156121b0576121b0615721565b815260200190815260200160002060008282546121cd9190615acc565b90915550505b6110d98686866000878660028933613bac565b611027338383614031565b6121f9612b3c565b805183511461221b5760405163b7c1140d60e01b815260040160405180910390fd5b825160005b818110156110d9576122598686838151811061223e5761223e615b65565b6020026020010151868685815181106110c4576110c4615b65565b600101612220565b61226b3383612ec7565b6122875760405162461bcd60e51b815260040161040990615b18565b6110e5848484846140ff565b600054610100900460ff16158080156122b35750600054600160ff909116105b806122cd5750303b1580156122cd575060005460ff166001145b6123305760405162461bcd60e51b815260206004820152602e60248201527f496e697469616c697a61626c653a20636f6e747261637420697320616c72656160448201526d191e481a5b9a5d1a585b1a5e995960921b6064820152608401610409565b6000805460ff191660011790558015612353576000805461ff0019166101001790555b61235b614132565b61239f604051806040016040528060058152602001643b32a4a7a760d91b815250604051806040016040528060058152602001643b32a4a7a760d91b815250614161565b6123a7614192565b61013680546001600160a01b0319166001600160a01b0384169081179091556040517f908408e307fc569b417f6cbec5d5a06f44a0a505ac0479b47d421a4b2fd6a1e690600090a28015611027576000805461ff0019169055604051600181527f7f26b83ff96e1f2b6a682f133852f6798a09c465da95921460cefb384740249890602001611254565b606061243c82612a6b565b600061245360408051602081019091526000815290565b90506000815111612473576040518060200160405280600081525061249e565b8061247d846141c1565b60405160200161248e929190615b7b565b6040516020818303038152906040525b9392505050565b6124ad612b3c565b6001600160a01b038316600090815261013b602090815260408083205485845261013d909252822060ff9091169190818360058111156124ef576124ef615721565b600581111561250057612500615721565b815260208082019290925260409081016000908120825160e08101845281546001600160a01b031681526001820154948101949094526002810154928401929092526003820154606084015260048201546080840152600582015460ff16151560a084015260069091015460c083015290915062093a80806125828642615acc565b61258c9190615adf565b6125969190615b01565b9050336125a286611260565b6001600160a01b0316146125c9576040516330cd747160e01b815260040160405180910390fd5b8160a00151156125ec576040516334d10f9560e11b815260040160405180910390fd5b42826080015111612610576040516307b7d7dd60e51b815260040160405180910390fd5b60008260200151116126355760405163f90e998d60e01b815260040160405180910390fd5b8160800151811161265957604051638e6b5b6760e01b815260040160405180910390fd5b6126676303c2670042615acc565b8111156126875760405163f761f1cd60e01b815260040160405180910390fd5b61269a8686600084818760038a33613bac565b505050610cce600160fb55565b6126af612b3c565b6001600160a01b038216600090815261013b602090815260408083205484845261013d909252822060ff9091169190818360058111156126f1576126f1615721565b600581111561270257612702615721565b81526020808201929092526040908101600020815160e08101835281546001600160a01b031681526001820154938101939093526002810154918301919091526003810154606083015260048101546080830152600581015460ff16151560a08301526006015460c082015290503361277a84611260565b6001600160a01b0316146127a1576040516330cd747160e01b815260040160405180910390fd5b8060a00151156127c4576040516334d10f9560e11b815260040160405180910390fd5b428160800151116127e8576040516307b7d7dd60e51b815260040160405180910390fd5b600081602001511161280d5760405163f90e998d60e01b815260040160405180910390fd5b8060200151610143600084600581111561282957612829615721565b600581111561283a5761283a615721565b815260200190815260200160002060008282546128579190615acc565b909155505060006080820152600160a08201526128776303c26700614254565b60c0820152600083815261013d60205260408120829184600581111561289f5761289f615721565b60058111156128b0576128b0615721565b81526020808201929092526040908101600020835181546001600160a01b0319166001600160a01b039091161781559183015160018301558201516002820155606082015160038201556080820151600482015560a082015160058201805460ff191691151591909117905560c090910151600690910155612933838284612b9f565b82846001600160a01b03167f1279589865a24f47c3f488c43a66e99bc3a86581aa876fe4e640fee1ad59de15836020015160405161101391815260200190565b61013f60205282600052604060002060205281600052604060002081633b9aca00811061299f57600080fd5b60060201805460018201546002830154600384015460048501546005909501549397509195509350919086565b6001600160a01b03918216600090815260ce6020908152604080832093909416825291909152205460ff1690565b612a02613b3d565b606580546001600160a01b0383166001600160a01b03199091168117909155612a336033546001600160a01b031690565b6001600160a01b03167f38d16b8cac22d99fc7c124b9cd0de2d3fa1faef420bfe791d8c362d765e2270060405160405180910390a350565b600081815260cb60205260409020546001600160a01b03166118195760405162461bcd60e51b8152602060048201526018602482015277115490cdcc8c4e881a5b9d985b1a59081d1bdad95b88125160421b6044820152606401610409565b3390565b600081815260cd6020526040902080546001600160a01b0319166001600160a01b0384169081179091558190612b0382611260565b6001600160a01b03167f8c5be1e5ebec7d5bd14f71427d1e84f3dd0314c0f7b2291e5b200ac8c7c3b92560405160405180910390a45050565b600260fb5403612b8e5760405162461bcd60e51b815260206004820152601f60248201527f5265656e7472616e637947756172643a207265656e7472616e742063616c6c006044820152606401610409565b600260fb55565b6000610aff825490565b612bd86040518060c001604052806000815260200160008152602001600081526020016000815260200160008152602001600081525090565b8260a00151612be8576000612bee565b82602001515b608082015260a0830151612c03576000612c09565b82604001515b60a0820152608083015142108015612c25575060008360200151115b15612c65576303c267008360200151612c3e9190615adf565b60208201526080830151612c53904290615ab9565b8160200151612c629190615b01565b81525b42604080830191909152436060830152600085815261013e60205290812081846005811115612c9657612c96615721565b6005811115612ca757612ca7615721565b815260200190815260200160002054905080600014158015612d245750600085815261013f602052604081204291856005811115612ce757612ce7615721565b6005811115612cf857612cf8615721565b815260200190815260200160002082633b9aca008110612d1a57612d1a615b65565b6006020160020154145b15612dc757600085815261013f602052604081208391856005811115612d4c57612d4c615721565b6005811115612d5d57612d5d615721565b815260200190815260200160002082633b9aca008110612d7f57612d7f615b65565b60060201600082015181600001556020820151816001015560408201518160020155606082015181600301556080820151816004015560a08201518160050155905050611701565b612dd081615baa565b600086815261013e60205260408120919250829190856005811115612df757612df7615721565b6005811115612e0857612e08615721565b8152602001908152602001600020819055508161013f60008781526020019081526020016000206000856005811115612e4357612e43615721565b6005811115612e5457612e54615721565b815260200190815260200160002082633b9aca008110612e7657612e76615b65565b60060201600082015181600001556020820151816001015560408201518160020155606082015181600301556080820151816004015560a082015181600501559050505050505050565b600160fb55565b600080612ed383611260565b9050806001600160a01b0316846001600160a01b03161480612efa5750612efa81856129cc565b80612f1e5750836001600160a01b0316612f1384610b97565b6001600160a01b0316145b949350505050565b826001600160a01b0316612f3982611260565b6001600160a01b031614612f5f5760405162461bcd60e51b815260040161040990615bc3565b6001600160a01b038216612fc15760405162461bcd60e51b8152602060048201526024808201527f4552433732313a207472616e7366657220746f20746865207a65726f206164646044820152637265737360e01b6064820152608401610409565b612fcc8383836142d8565b826001600160a01b0316612fdf82611260565b6001600160a01b0316146130055760405162461bcd60e51b815260040161040990615bc3565b600081815260cd6020908152604080832080546001600160a01b03199081169091556001600160a01b0387811680865260cc855283862080546000190190559087168086528386208054600101905586865260cb90945282852080549092168417909155905184937fddf252ad1be2c89b69c2b068fc378daa952ba7f163c4a11628f55a4df523b3ef91a4505050565b6001600160a01b038216600090815261013b602090815260408083205487845261013d909252822060ff9091169190818360058111156130d7576130d7615721565b60058111156130e8576130e8615721565b815260208082019290925260409081016000908120825160e08101845281546001600160a01b03168152600182015481860152600282015481850152600382015460608201526004820154608082015260058083015460ff16151560a083015260069092015460c082015289835261013d90945291812092935091908290859081111561317757613177615721565b600581111561318857613188615721565b81526020808201929092526040908101600020815160e08101835281546001600160a01b031681526001820154938101939093526002810154918301919091526003810154606083015260048101546080830152600581015460ff16151560a08301526006015460c082015290503361320088611260565b6001600160a01b03161415801561322857503361321c87611260565b6001600160a01b031614155b15613246576040516330cd747160e01b815260040160405180910390fd5b60008781526101486020908152604080832089845290915281209084600581111561327357613273615721565b600581111561328457613284615721565b8152602001908152602001600020546000036132bd5760405163102d5cc760e01b81526004810188905260248101879052604401610409565b6000878152610148602090815260408083208984529091528120908460058111156132ea576132ea615721565b60058111156132fb576132fb615721565b81526020019081526020016000205484116133165783613364565b60008781526101486020908152604080832089845290915281209084600581111561334357613343615721565b600581111561335457613354615721565b8152602001908152602001600020545b935083816040018181516133789190615ab9565b90525060208201805185919061338f908390615acc565b905250600087815261014860209081526040808320898452909152812085918560058111156133c0576133c0615721565b60058111156133d1576133d1615721565b815260200190815260200160002060008282546133ee9190615ab9565b909155505060008781526101486020908152604080832089845290915281209084600581111561342057613420615721565b600581111561343157613431615721565b8152602001908152602001600020546000036134c75760008781526101496020526040812061349c9188919086600581111561346f5761346f615721565b600581111561348057613480615721565b815260200190815260200160002061470890919063ffffffff16565b50600086815261014a602052604081206134c59189919086600581111561346f5761346f615721565b505b600086815261013d6020526040812082918560058111156134ea576134ea615721565b60058111156134fb576134fb615721565b815260208082019290925260409081016000908120845181546001600160a01b0319166001600160a01b03909116178155848401516001820155848301516002820155606085015160038201556080850151600482015560a08501516005808301805460ff19169215159290921790915560c0909501516006909101558a815261013d90925281208492909190869081111561359957613599615721565b60058111156135aa576135aa615721565b815260208082019290925260409081016000908120845181546001600160a01b0319166001600160a01b03909116178155848401516001820155848301516002820155606085015160038201556080850151600482015560a08501516005808301805460ff19169215159290921790915560c09095015160069091015589815261013d909252812061364a928992908790811115611d5757611d57615721565b600087815261013d6020526040812061367291899190866005811115611d5757611d57615721565b6000868152610141602052604090205460ff16156136ea576101325460405163032145f960e41b8152600481018890526001600160a01b03909116906332145f9090602401600060405180830381600087803b1580156136d157600080fd5b505af11580156136e5573d6000803e3d6000fd5b505050505b6000878152610141602052604090205460ff1615613762576101325460405163032145f960e41b8152600481018990526001600160a01b03909116906332145f9090602401600060405180830381600087803b15801561374957600080fd5b505af115801561375d573d6000803e3d6000fd5b505050505b604080516001600160a01b038716815260208101869052879189917f808381795a343c1feb4679e53b6f0a9f56bb9da80d2bef0b5526fc9d6226065d910160405180910390a350505050505050565b60008061012d600081546137c490615baa565b918290555087519091506137d88483614714565b865188511415806137eb57508551875114155b806137f857508451865114155b156138165760405163b7c1140d60e01b815260040160405180910390fd5b60005b81811015613b3057600061013b60008b848151811061383a5761383a615b65565b60200260200101516001600160a01b03166001600160a01b0316815260200190815260200160002060009054906101000a900460ff169050600062093a80808a858151811061388b5761388b615b65565b60200260200101514261389e9190615acc565b6138a89190615adf565b6138b29190615b01565b90506138f38b84815181106138c9576138c9615b65565b60200260200101516101406000888152602001908152602001600020613b9790919063ffffffff16565b61391057604051630587daa360e41b815260040160405180910390fd5b89838151811061392257613922615b65565b602002602001015160000361394a57604051631f2a200560e01b815260040160405180910390fd5b6101345489848151811061396057613960615b65565b60200260200101511015613987576040516349eeb0b360e01b815260040160405180910390fd5b6139956303c2670042615acc565b8111156139b55760405163f761f1cd60e01b815260040160405180910390fd5b61013960008360058111156139cc576139cc615721565b60058111156139dd576139dd615721565b8152602001908152602001600020548a84815181106139fe576139fe615b65565b60200260200101511015613a255760405163a0927dc360e01b815260040160405180910390fd5b613b268b8481518110613a3a57613a3a615b65565b6020026020010151868c8681518110613a5557613a55615b65565b6020026020010151848c8881518110613a7057613a70615b65565b602002602001015161013d60008c81526020019081526020016000206000896005811115613aa057613aa0615721565b6005811115613ab157613ab1615721565b81526020808201929092526040908101600020815160e08101835281546001600160a01b03168152600180830154948201949094526002820154928101929092526003810154606083015260048101546080830152600581015460ff16151560a08301526006015460c082015290898f613bac565b5050600101613819565b5090979650505050505050565b6033546001600160a01b031633146117a05760405162461bcd60e51b815260206004820181905260248201527f4f776e61626c653a2063616c6c6572206973206e6f7420746865206f776e65726044820152606401610409565b600061249e836001600160a01b03841661472e565b6001600160a01b038916600090815261013a602052604090205460ff16613be6576040516307c241ad60e51b815260040160405180910390fd5b613bee61511d565b6101426000846005811115613c0557613c05615721565b6005811115613c1657613c16615721565b8152602081019190915260400160002054808252613c35908990615acc565b6101426000856005811115613c4c57613c4c615721565b6005811115613c5d57613c5d615721565b81526020019081526020016000208190555084600001518560200151866060015187608001518860a001518960c0015186604001516000018760400151602001886040015160600189604001516080018a6040015160a0018b6040015160c001868152508615151515815250868152508681525086815250866001600160a01b03166001600160a01b0316815250505050505050898160400151600001906001600160a01b031690816001600160a01b031681525050878160400151602001818151613d299190615acc565b9052508615613d8b57806040015160600151600003613d4f576040810151426060909101525b604081018051608090810189905290516060810151910151613d719190615ab9565b60208201819052613d8190614254565b604082015160c001525b60408082015160008b815261013d6020529182209091856005811115613db357613db3615721565b6005811115613dc457613dc4615721565b81526020808201929092526040908101600020835181546001600160a01b0319166001600160a01b03909116178155918301516001830155828101516002830155606083015160038301556080830151600483015560a083015160058301805460ff191691151591909117905560c090920151600690910155810151613e4c908a9085612b9f565b3360608201528715613f15578761014c6000613e678c611260565b6001600160a01b03166001600160a01b0316815260200190815260200160002060008c6001600160a01b03166001600160a01b031681526020019081526020016000206000828254613eb99190615acc565b90915550506060810151613ed9906001600160a01b038c1690308b61477d565b600080613ee5856147d7565b90925090506001600160a01b03821615801590613eff5750875b15613f1257613f12848c8e8d8686614838565b50505b836004811115613f2757613f27615721565b89836001600160a01b03167f8835c22a0c751188de86681e15904223c054bedd5c68ec8858945b78312902738b85604001516080015142604051613f7e939291909283526020830191909152604082015260600190565b60405180910390a480517f5e2aa66efd74cce82b21852e317e5490d9ecc9e6bb953ae24d90851258cc2f5c906101426000866005811115613fc157613fc1615721565b6005811115613fd257613fd2615721565b815260200190815260200160002054604051613ff8929190918252602082015260400190565b60405180910390a150505050505050505050565b606580546001600160a01b031916905561181981614950565b600061249e838361472e565b816001600160a01b0316836001600160a01b0316036140925760405162461bcd60e51b815260206004820152601960248201527f4552433732313a20617070726f766520746f2063616c6c6572000000000000006044820152606401610409565b6001600160a01b03838116600081815260ce6020908152604080832094871680845294825291829020805460ff191686151590811790915591519182527f17307eab39ab6107e8899845ad3d59bd9653f200f220920489ca2b5937696c31910160405180910390a3505050565b61410a848484612f26565b614116848484846149a2565b6110e55760405162461bcd60e51b815260040161040990615c08565b600054610100900460ff166141595760405162461bcd60e51b815260040161040990615c5a565b6117a0614aa3565b600054610100900460ff166141885760405162461bcd60e51b815260040161040990615c5a565b6110278282614ad3565b600054610100900460ff166141b95760405162461bcd60e51b815260040161040990615c5a565b6117a0614b13565b606060006141ce83614b3a565b600101905060008167ffffffffffffffff8111156141ee576141ee61534f565b6040519080825280601f01601f191660200182016040528015614218576020820181803683370190505b5090508181016020015b600019016f181899199a1a9b1b9c1cb0b131b232b360811b600a86061a8153600a850494508461422257509392505050565b610134546000906303c26700670de0b6b3a7640000671bc16d674ec800008386116142825750949350505050565b8286106142925795945050505050565b61429c8484615ab9565b6142a68383615ab9565b6142b08689615ab9565b6142ba9190615b01565b6142c49190615adf565b6142ce9083615acc565b9695505050505050565b6001600160a01b0383161561430c576001600160a01b038316600090815261014b6020526040902061430a9082614708565b505b6001600160a01b03821615614340576001600160a01b038216600090815261014b6020526040902061433e9082614025565b505b6001600160a01b0383161580159061436057506001600160a01b03821615155b15610cce5760008181526101406020526040812061437d90614c12565b805190915060005b818110156147005760008382815181106143a1576143a1615b65565b6020908102919091018101516001600160a01b038116600090815261013b8352604080822054898352610149909452812091935060ff909216919061441790828460058111156143f3576143f3615721565b600581111561440457614404615721565b8152602001908152602001600020614c12565b90506000815167ffffffffffffffff8111156144355761443561534f565b60405190808252806020026020018201604052801561445e578160200160208202803683370190505b50825190915060005b818110156144975760001983828151811061448457614484615b65565b6020908102919091010152600101614467565b5080156144aa576144aa898487856121f1565b6000898152610145602090815260408083206001600160a01b0389168452909152902054801561458057600061014460008760058111156144ed576144ed615721565b60058111156144fe576144fe615721565b81526020810191909152604090810160002054905163e31d753160e01b81526001600160a01b038f811660048301528e81166024830152604482018590529091169150819063e31d753190606401600060405180830381600087803b15801561456657600080fd5b505af115801561457a573d6000803e3d6000fd5b50505050505b60008a815261013d60205260408120818760058111156145a2576145a2615721565b60058111156145b3576145b3615721565b81526020019081526020016000206040518060e00160405290816000820160009054906101000a90046001600160a01b03166001600160a01b03166001600160a01b03168152602001600182015481526020016002820154815260200160038201548152602001600482015481526020016005820160009054906101000a900460ff161515151581526020016006820154815250509050806020015161014c60008f6001600160a01b03166001600160a01b031681526020019081526020016000206000896001600160a01b03166001600160a01b0316815260200190815260200160002060008282546146a79190615ab9565b90915550506020808201516001600160a01b03808f16600090815261014c84526040808220928c1682529190935282208054919290916146e8908490615acc565b90915550506001909701965061438595505050505050565b505050505050565b600061249e8383614c1f565b611027828260405180602001604052806000815250614d12565b600081815260018301602052604081205461477557508154600181810184556000848152602080822090930184905584548482528286019093526040902091909155610aff565b506000610aff565b604080516001600160a01b0385811660248301528416604482015260648082018490528251808303909101815260849091019091526020810180516001600160e01b03166323b872dd60e01b1790526110e5908590614d45565b60006060600061014460008560058111156147f4576147f4615721565b600581111561480557614805615721565b81526020808201929092526040908101600090812054825193840190925282526001600160a01b03169590945092505050565b60405163095ea7b360e01b81526001600160a01b0383811660048301526024820185905285169063095ea7b3906044016020604051808303816000875af1158015614887573d6000803e3d6000fd5b505050506040513d601f19601f820116820180604052508101906148ab9190615ca5565b50604051633e12170f60e01b81526001600160a01b03831690633e12170f906148dc90899087908690600401615cc2565b600060405180830381600087803b1580156148f657600080fd5b505af115801561490a573d6000803e3d6000fd5b5050506000868152610145602090815260408083206001600160a01b038916845290915281208054869350909190614943908490615acc565b9091555050505050505050565b603380546001600160a01b038381166001600160a01b0319831681179093556040519116919082907f8be0079c531659141344cd1fd0a4f28419497f9722a3daafe3b4186f6b6457e090600090a35050565b60006001600160a01b0384163b15614a9857604051630a85bd0160e11b81526001600160a01b0385169063150b7a02906149e6903390899088908890600401615cf2565b6020604051808303816000875af1925050508015614a21575060408051601f3d908101601f19168201909252614a1e91810190615d25565b60015b614a7e573d808015614a4f576040519150601f19603f3d011682016040523d82523d6000602084013e614a54565b606091505b508051600003614a765760405162461bcd60e51b815260040161040990615c08565b805181602001fd5b6001600160e01b031916630a85bd0160e11b149050612f1e565b506001949350505050565b600054610100900460ff16614aca5760405162461bcd60e51b815260040161040990615c5a565b6117a03361400c565b600054610100900460ff16614afa5760405162461bcd60e51b815260040161040990615c5a565b60c9614b068382615d8a565b5060ca610cce8282615d8a565b600054610100900460ff16612ec05760405162461bcd60e51b815260040161040990615c5a565b60008072184f03e93ff9f4daa797ed6e38ed64bf6a1f0160401b8310614b795772184f03e93ff9f4daa797ed6e38ed64bf6a1f0160401b830492506040015b6d04ee2d6d415b85acef81000000008310614ba5576d04ee2d6d415b85acef8100000000830492506020015b662386f26fc100008310614bc357662386f26fc10000830492506010015b6305f5e1008310614bdb576305f5e100830492506008015b6127108310614bef57612710830492506004015b60648310614c01576064830492506002015b600a8310610aff5760010192915050565b6060600061249e83614e17565b60008181526001830160205260408120548015614d08576000614c43600183615ab9565b8554909150600090614c5790600190615ab9565b9050818114614cbc576000866000018281548110614c7757614c77615b65565b9060005260206000200154905080876000018481548110614c9a57614c9a615b65565b6000918252602080832090910192909255918252600188019052604090208390555b8554869080614ccd57614ccd615e4a565b600190038181906000526020600020016000905590558560010160008681526020019081526020016000206000905560019350505050610aff565b6000915050610aff565b614d1c8383614e73565b614d2960008484846149a2565b610cce5760405162461bcd60e51b815260040161040990615c08565b6000614d9a826040518060400160405280602081526020017f5361666545524332303a206c6f772d6c6576656c2063616c6c206661696c6564815250856001600160a01b031661500a9092919063ffffffff16565b805190915015610cce5780806020019051810190614db89190615ca5565b610cce5760405162461bcd60e51b815260206004820152602a60248201527f5361666545524332303a204552433230206f7065726174696f6e20646964206e6044820152691bdd081cdd58d8d9595960b21b6064820152608401610409565b606081600001805480602002602001604051908101604052809291908181526020018280548015614e6757602002820191906000526020600020905b815481526020019060010190808311614e53575b50505050509050919050565b6001600160a01b038216614ec95760405162461bcd60e51b815260206004820181905260248201527f4552433732313a206d696e7420746f20746865207a65726f20616464726573736044820152606401610409565b600081815260cb60205260409020546001600160a01b031615614f2e5760405162461bcd60e51b815260206004820152601c60248201527f4552433732313a20746f6b656e20616c7265616479206d696e746564000000006044820152606401610409565b614f3a600083836142d8565b600081815260cb60205260409020546001600160a01b031615614f9f5760405162461bcd60e51b815260206004820152601c60248201527f4552433732313a20746f6b656e20616c7265616479206d696e746564000000006044820152606401610409565b6001600160a01b038216600081815260cc602090815260408083208054600101905584835260cb90915280822080546001600160a01b0319168417905551839291907fddf252ad1be2c89b69c2b068fc378daa952ba7f163c4a11628f55a4df523b3ef908290a45050565b6060612f1e848460008585600080866001600160a01b031685876040516150319190615e60565b60006040518083038185875af1925050503d806000811461506e576040519150601f19603f3d011682016040523d82523d6000602084013e615073565b606091505b50915091506111c587838387606083156150ee5782516000036150e7576001600160a01b0385163b6150e75760405162461bcd60e51b815260206004820152601d60248201527f416464726573733a2063616c6c20746f206e6f6e2d636f6e74726163740000006044820152606401610409565b5081612f1e565b612f1e83838151156151035781518083602001fd5b8060405162461bcd60e51b81526004016104099190615211565b604051806080016040528060008152602001600081526020016151816040518060e0016040528060006001600160a01b0316815260200160008152602001600081526020016000815260200160008152602001600015158152602001600081525090565b8152600060209091015290565b6001600160e01b03198116811461181957600080fd5b6000602082840312156151b657600080fd5b813561249e8161518e565b60005b838110156151dc5781810151838201526020016151c4565b50506000910152565b600081518084526151fd8160208601602086016151c1565b601f01601f19169290920160200192915050565b60208152600061249e60208301846151e5565b80356006811061523357600080fd5b919050565b6000806040838503121561524b57600080fd5b8235915061525b60208401615224565b90509250929050565b60006020828403121561527657600080fd5b5035919050565b6001600160a01b038116811461181957600080fd5b600080604083850312156152a557600080fd5b82356152b08161527d565b946020939093013593505050565b6000806000606084860312156152d357600080fd5b83359250602084013591506152ea60408501615224565b90509250925092565b60006020828403121561530557600080fd5b61249e82615224565b60008060006060848603121561532357600080fd5b833561532e8161527d565b9250602084013561533e8161527d565b929592945050506040919091013590565b634e487b7160e01b600052604160045260246000fd5b604051601f8201601f1916810167ffffffffffffffff8111828210171561538e5761538e61534f565b604052919050565b600067ffffffffffffffff8211156153b0576153b061534f565b5060051b60200190565b600082601f8301126153cb57600080fd5b813560206153e06153db83615396565b615365565b8083825260208201915060208460051b87010193508684111561540257600080fd5b602086015b8481101561541e5780358352918301918301615407565b509695505050505050565b6000806000806080858703121561543f57600080fd5b843567ffffffffffffffff8082111561545757600080fd5b615463888389016153ba565b9550602087013594506040870135915061547c8261527d565b9092506060860135908082111561549257600080fd5b5061549f878288016153ba565b91505092959194509250565b600080604083850312156154be57600080fd5b8235915060208301356154d08161527d565b809150509250929050565b60008083601f8401126154ed57600080fd5b50813567ffffffffffffffff81111561550557600080fd5b6020830191508360208260051b850101111561552057600080fd5b9250929050565b801515811461181957600080fd5b600082601f83011261554657600080fd5b813560206155566153db83615396565b8083825260208201915060208460051b87010193508684111561557857600080fd5b602086015b8481101561541e57803561559081615527565b835291830191830161557d565b60008060008060008060006080888a0312156155b857600080fd5b873567ffffffffffffffff808211156155d057600080fd5b6155dc8b838c016154db565b909950975060208a01359150808211156155f557600080fd5b6156018b838c016154db565b909750955060408a013591508082111561561a57600080fd5b6156268b838c016154db565b909550935060608a013591508082111561563f57600080fd5b5061564c8a828b01615535565b91505092959891949750929550565b6000806040838503121561566e57600080fd5b8235915060208301356154d081615527565b6000806040838503121561569357600080fd5b823561569e8161527d565b915060208301356154d08161527d565b600080600080600060a086880312156156c657600080fd5b85356156d18161527d565b945060208601359350604086013592506060860135915060808601356156f681615527565b809150509295509295909350565b60006020828403121561571657600080fd5b813561249e8161527d565b634e487b7160e01b600052602160045260246000fd5b602081016006831061575957634e487b7160e01b600052602160045260246000fd5b91905290565b6000806000806080858703121561577557600080fd5b8435935060208501359250604085013561578e8161527d565b9396929550929360600135925050565b60008060008060008060008060a0898b0312156157ba57600080fd5b883567ffffffffffffffff808211156157d257600080fd5b6157de8c838d016154db565b909a50985060208b01359150808211156157f757600080fd5b6158038c838d016154db565b909850965060408b013591508082111561581c57600080fd5b6158288c838d016154db565b909650945060608b013591508082111561584157600080fd5b5061584e8b828c01615535565b925050608089013561585f8161527d565b809150509295985092959890939650565b6000806000806080858703121561588657600080fd5b84356158918161527d565b9350602085013592506040850135915060608501356158af81615527565b939692955090935050565b600080604083850312156158cd57600080fd5b82356158d88161527d565b915060208301356154d081615527565b600080600080608085870312156158fe57600080fd5b84359350602085013567ffffffffffffffff8082111561591d57600080fd5b615929888389016153ba565b94506040870135915061547c8261527d565b6000806000806080858703121561595157600080fd5b843561595c8161527d565b935060208581013561596d8161527d565b935060408601359250606086013567ffffffffffffffff8082111561599157600080fd5b818801915088601f8301126159a557600080fd5b8135818111156159b7576159b761534f565b6159c9601f8201601f19168501615365565b915080825289848285010111156159df57600080fd5b808484018584013760008482840101525080935050505092959194509250565b600080600060608486031215615a1457600080fd5b8335615a1f8161527d565b95602085013595506040909401359392505050565b600080600060608486031215615a4957600080fd5b83359250615a5960208501615224565b9150604084013590509250925092565b600181811c90821680615a7d57607f821691505b602082108103615a9d57634e487b7160e01b600052602260045260246000fd5b50919050565b634e487b7160e01b600052601160045260246000fd5b81810381811115610aff57610aff615aa3565b80820180821115610aff57610aff615aa3565b600082615afc57634e487b7160e01b600052601260045260246000fd5b500490565b8082028115828204841417610aff57610aff615aa3565b6020808252602d908201527f4552433732313a2063616c6c6572206973206e6f7420746f6b656e206f776e6560408201526c1c881bdc88185c1c1c9bdd9959609a1b606082015260800190565b634e487b7160e01b600052603260045260246000fd5b60008351615b8d8184602088016151c1565b835190830190615ba18183602088016151c1565b01949350505050565b600060018201615bbc57615bbc615aa3565b5060010190565b60208082526025908201527f4552433732313a207472616e736665722066726f6d20696e636f72726563742060408201526437bbb732b960d91b606082015260800190565b60208082526032908201527f4552433732313a207472616e7366657220746f206e6f6e20455243373231526560408201527131b2b4bb32b91034b6b83632b6b2b73a32b960711b606082015260800190565b6020808252602b908201527f496e697469616c697a61626c653a20636f6e7472616374206973206e6f74206960408201526a6e697469616c697a696e6760a81b606082015260800190565b600060208284031215615cb757600080fd5b815161249e81615527565b60018060a01b0384168152826020820152606060408201526000615ce960608301846151e5565b95945050505050565b6001600160a01b03858116825284166020820152604081018390526080606082018190526000906142ce908301846151e5565b600060208284031215615d3757600080fd5b815161249e8161518e565b601f821115610cce576000816000526020600020601f850160051c81016020861015615d6b5750805b601f850160051c820191505b8181101561470057828155600101615d77565b815167ffffffffffffffff811115615da457615da461534f565b615db881615db28454615a69565b84615d42565b602080601f831160018114615ded5760008415615dd55750858301515b600019600386901b1c1916600185901b178555614700565b600085815260208120601f198616915b82811015615e1c57888601518255948401946001909101908401615dfd565b5085821015615e3a5787850151600019600388901b60f8161c191681555b5050505050600190811b01905550565b634e487b7160e01b600052603160045260246000fd5b60008251615e728184602087016151c1565b919091019291505056fea26469706673582212209efde42bf769d6e962cb3997bbd1a98f6d6d521175ea5f36d24a7bba151867e764736f6c63430008160033",
  "devdoc": {
    "author": "Jourdan Dunkley <jourdan@ionic.money> (https://github.com/jourdanDunkley)",
    "events": {
      "Approval(address,address,uint256)": {
        "details": "Emitted when `owner` enables `approved` to manage the `tokenId` token."
      },
      "ApprovalForAll(address,address,bool)": {
        "details": "Emitted when `owner` enables or disables (`approved`) `operator` to manage all of its assets."
      },
      "Initialized(uint8)": {
        "details": "Triggered when the contract has been initialized or reinitialized."
      },
      "Transfer(address,address,uint256)": {
        "details": "Emitted when `tokenId` token is transferred from `from` to `to`."
      }
    },
    "kind": "dev",
    "methods": {
      "acceptOwnership()": {
        "details": "The new owner accepts the ownership transfer."
      },
      "approve(address,uint256)": {
        "details": "See {IERC721-approve}."
      },
      "balanceOf(address)": {
        "details": "See {IERC721-balanceOf}."
      },
      "createLock(address[],uint256[],uint256[],bool[])": {
        "params": {
          "_duration": "Array of lock durations",
          "_stakeUnderlying": "Array of booleans indicating whether to stake underlying tokens",
          "_tokenAddress": "Array of token addresses to lock",
          "_tokenAmount": "Array of token amounts to lock"
        },
        "returns": {
          "_0": "The ID of the newly created veNFT"
        }
      },
      "createLockFor(address[],uint256[],uint256[],bool[],address)": {
        "params": {
          "_duration": "Array of lock durations",
          "_stakeUnderlying": "Array of booleans indicating whether to stake underlying tokens",
          "_to": "Address to assign the lock to",
          "_tokenAddress": "Array of token addresses to lock",
          "_tokenAmount": "Array of token amounts to lock"
        },
        "returns": {
          "_0": "The ID of the newly created veNFT"
        }
      },
      "delegate(uint256,uint256,address,uint256)": {
        "params": {
          "amount": "The amount of voting power to delegate.",
          "fromTokenId": "The ID of the veNFT from which voting power is delegated.",
          "lpToken": "The address of the LP token associated with the delegation.",
          "toTokenId": "The ID of the veNFT to which voting power is delegated."
        }
      },
      "getApproved(uint256)": {
        "details": "See {IERC721-getApproved}."
      },
      "increaseAmount(address,uint256,uint256,bool)": {
        "params": {
          "_stakeUnderlying": "Whether to stake the underlying tokens",
          "_tokenAddress": "Address of the token to increase lock amount for",
          "_tokenAmount": "Amount of tokens to add to the lock",
          "_tokenId": "ID of the veNFT"
        }
      },
      "increaseUnlockTime(address,uint256,uint256)": {
        "params": {
          "_lockDuration": "New lock duration to extend to",
          "_tokenAddress": "Address of the token",
          "_tokenId": "ID of the veNFT"
        }
      },
      "initialize(address)": {
        "details": "This function is called only once during the contract deployment. It initializes the Ownable, ERC721, and ReentrancyGuard modules.",
        "params": {
          "_ap": "The AddressesProvider contract used for address management."
        }
      },
      "isApprovedForAll(address,address)": {
        "details": "See {IERC721-isApprovedForAll}."
      },
      "lockAdditionalAsset(address,uint256,uint256,uint256,bool)": {
        "params": {
          "_duration": "Duration of the lock",
          "_stakeUnderlying": "Whether to stake the underlying tokens",
          "_tokenAddress": "Address of the new token to lock",
          "_tokenAmount": "Amount of tokens to lock",
          "_tokenId": "ID of the veNFT"
        }
      },
      "lockPermanent(address,uint256)": {
        "params": {
          "_tokenAddress": "The address of the token to lock.",
          "_tokenId": "The ID of the token to lock."
        }
      },
      "name()": {
        "details": "See {IERC721Metadata-name}."
      },
      "owner()": {
        "details": "Returns the address of the current owner."
      },
      "ownerOf(uint256)": {
        "details": "See {IERC721-ownerOf}."
      },
      "pendingOwner()": {
        "details": "Returns the address of the pending owner."
      },
      "removeDelegatees(uint256,uint256[],address,uint256[])": {
        "params": {
          "amounts": "Array of amounts of voting power to remove from each delegatee",
          "fromTokenId": "ID of the veNFT from which delegatees are removed",
          "lpToken": "Address of the LP token associated with the delegation",
          "toTokenIds": "Array of veNFT IDs that are delegatees to be removed"
        }
      },
      "removeDelegators(uint256[],uint256,address,uint256[])": {
        "params": {
          "amounts": "Array of amounts of voting power to remove from each delegator",
          "fromTokenIds": "Array of veNFT IDs that are delegators to be removed",
          "lpToken": "Address of the LP token associated with the delegation",
          "toTokenId": "ID of the veNFT from which delegators are removed"
        }
      },
      "renounceOwnership()": {
        "details": "Leaves the contract without owner. It will not be possible to call `onlyOwner` functions anymore. Can only be called by the current owner. NOTE: Renouncing ownership will leave the contract without an owner, thereby removing any functionality that is only available to the owner."
      },
      "safeTransferFrom(address,address,uint256)": {
        "details": "See {IERC721-safeTransferFrom}."
      },
      "safeTransferFrom(address,address,uint256,bytes)": {
        "details": "See {IERC721-safeTransferFrom}."
      },
      "setApprovalForAll(address,bool)": {
        "details": "See {IERC721-setApprovalForAll}."
      },
      "setExtensions(address,address)": {
        "details": "This function can only be called by authorized entities.",
        "params": {
          "_veIONFirstExtension": "The address of the first extension contract.",
          "_veIONSecondExtension": "The address of the second extension contract."
        }
      },
      "supportsInterface(bytes4)": {
        "details": "See {IERC165-supportsInterface}."
      },
      "symbol()": {
        "details": "See {IERC721Metadata-symbol}."
      },
      "tokenURI(uint256)": {
        "details": "See {IERC721Metadata-tokenURI}."
      },
      "transferFrom(address,address,uint256)": {
        "details": "See {IERC721-transferFrom}."
      },
      "transferOwnership(address)": {
        "details": "Starts the ownership transfer of the contract to a new account. Replaces the pending transfer if there is one. Can only be called by the current owner."
      },
      "unlockPermanent(address,uint256)": {
        "params": {
          "_tokenAddress": "The address of the token to unlock.",
          "_tokenId": "The ID of the token to unlock."
        }
      },
      "voting(uint256,bool)": {
        "params": {
          "_tokenId": "ID of the veNFT",
          "_voting": "Voting status"
        }
      }
    },
    "title": "veION Contract",
    "version": 1
  },
  "userdoc": {
    "kind": "user",
    "methods": {
      "PRECISION()": {
        "notice": "Precision used for calculations, set to 1e18."
      },
      "ap()": {
        "notice": "The AddressesProvider contract used for address management."
      },
      "createLock(address[],uint256[],uint256[],bool[])": {
        "notice": "Creates a new lock for multiple tokens"
      },
      "createLockFor(address[],uint256[],uint256[],bool[],address)": {
        "notice": "Creates a new lock for multiple tokens and assigns it to a specified address"
      },
      "delegate(uint256,uint256,address,uint256)": {
        "notice": "Delegates voting power from one veNFT to another."
      },
      "increaseAmount(address,uint256,uint256,bool)": {
        "notice": "Increases the amount of tokens locked for a specific veNFT"
      },
      "increaseUnlockTime(address,uint256,uint256)": {
        "notice": "Increases the lock duration for a specific token in a veNFT"
      },
      "initialize(address)": {
        "notice": "Initializes the veION contract with the given AddressesProvider."
      },
      "lockAdditionalAsset(address,uint256,uint256,uint256,bool)": {
        "notice": "Locks additional asset type for an existing veNFT"
      },
      "lockPermanent(address,uint256)": {
        "notice": "Locks a token permanently."
      },
      "removeDelegatees(uint256,uint256[],address,uint256[])": {
        "notice": "Removes delegatees from a specific veNFT"
      },
      "removeDelegators(uint256[],uint256,address,uint256[])": {
        "notice": "Removes delegators from a specific veNFT"
      },
      "s_aeroVoterBoost()": {
        "notice": "The boost amount for AeroVoter."
      },
      "s_aeroVoting()": {
        "notice": "Address of the AeroVoting contract."
      },
      "s_ionicPool()": {
        "notice": "Address of the Ionic Pool."
      },
      "s_limitedBoost()": {
        "notice": "The amount of limited boost available."
      },
      "s_limitedBoostActive()": {
        "notice": "Indicates whether the limited boost is active."
      },
      "s_maxEarlyWithdrawFee()": {
        "notice": "The maximum fee for early withdrawal."
      },
      "s_minimumLockDuration()": {
        "notice": "The minimum duration for locking."
      },
      "s_tokenId()": {
        "notice": "The current token ID counter."
      },
      "s_veAERO()": {
        "notice": "Address of the veAERO contract."
      },
      "s_voter()": {
        "notice": "Address of the voter contract."
      },
      "setExtensions(address,address)": {
        "notice": "Sets the implementation addresses for the veION contract extensions."
      },
      "unlockPermanent(address,uint256)": {
        "notice": "Unlocks a permanently locked token."
      },
      "veIONFirstExtension()": {
        "notice": "The address of the logic contract for the veION first extension."
      },
      "veIONSecondExtension()": {
        "notice": "The address of the logic contract for the veION second extension."
      },
      "voting(uint256,bool)": {
        "notice": "Updates voting status for a veNFT"
      }
    },
    "notice": "This contract manages the veION framework, enabling the staking and management LP tokens for voting power.",
    "version": 1
  },
  "storageLayout": {
    "storage": [
      {
        "astId": 244,
        "contract": "contracts/veION/veION.sol:veION",
        "label": "_initialized",
        "offset": 0,
        "slot": "0",
        "type": "t_uint8"
      },
      {
        "astId": 247,
        "contract": "contracts/veION/veION.sol:veION",
        "label": "_initializing",
        "offset": 1,
        "slot": "0",
        "type": "t_bool"
      },
      {
        "astId": 2341,
        "contract": "contracts/veION/veION.sol:veION",
        "label": "__gap",
        "offset": 0,
        "slot": "1",
        "type": "t_array(t_uint256)50_storage"
      },
      {
        "astId": 116,
        "contract": "contracts/veION/veION.sol:veION",
        "label": "_owner",
        "offset": 0,
        "slot": "51",
        "type": "t_address"
      },
      {
        "astId": 236,
        "contract": "contracts/veION/veION.sol:veION",
        "label": "__gap",
        "offset": 0,
        "slot": "52",
        "type": "t_array(t_uint256)49_storage"
      },
      {
        "astId": 25,
        "contract": "contracts/veION/veION.sol:veION",
        "label": "_pendingOwner",
        "offset": 0,
        "slot": "101",
        "type": "t_address"
      },
      {
        "astId": 104,
        "contract": "contracts/veION/veION.sol:veION",
        "label": "__gap",
        "offset": 0,
        "slot": "102",
        "type": "t_array(t_uint256)49_storage"
      },
      {
        "astId": 2641,
        "contract": "contracts/veION/veION.sol:veION",
        "label": "__gap",
        "offset": 0,
        "slot": "151",
        "type": "t_array(t_uint256)50_storage"
      },
      {
        "astId": 903,
        "contract": "contracts/veION/veION.sol:veION",
        "label": "_name",
        "offset": 0,
        "slot": "201",
        "type": "t_string_storage"
      },
      {
        "astId": 905,
        "contract": "contracts/veION/veION.sol:veION",
        "label": "_symbol",
        "offset": 0,
        "slot": "202",
        "type": "t_string_storage"
      },
      {
        "astId": 909,
        "contract": "contracts/veION/veION.sol:veION",
        "label": "_owners",
        "offset": 0,
        "slot": "203",
        "type": "t_mapping(t_uint256,t_address)"
      },
      {
        "astId": 913,
        "contract": "contracts/veION/veION.sol:veION",
        "label": "_balances",
        "offset": 0,
        "slot": "204",
        "type": "t_mapping(t_address,t_uint256)"
      },
      {
        "astId": 917,
        "contract": "contracts/veION/veION.sol:veION",
        "label": "_tokenApprovals",
        "offset": 0,
        "slot": "205",
        "type": "t_mapping(t_uint256,t_address)"
      },
      {
        "astId": 923,
        "contract": "contracts/veION/veION.sol:veION",
        "label": "_operatorApprovals",
        "offset": 0,
        "slot": "206",
        "type": "t_mapping(t_address,t_mapping(t_address,t_bool))"
      },
      {
        "astId": 1854,
        "contract": "contracts/veION/veION.sol:veION",
        "label": "__gap",
        "offset": 0,
        "slot": "207",
        "type": "t_array(t_uint256)44_storage"
      },
      {
        "astId": 420,
        "contract": "contracts/veION/veION.sol:veION",
        "label": "_status",
        "offset": 0,
        "slot": "251",
        "type": "t_uint256"
      },
      {
        "astId": 478,
        "contract": "contracts/veION/veION.sol:veION",
        "label": "__gap",
        "offset": 0,
        "slot": "252",
        "type": "t_array(t_uint256)49_storage"
      },
      {
        "astId": 38683,
        "contract": "contracts/veION/veION.sol:veION",
        "label": "s_tokenId",
        "offset": 0,
        "slot": "301",
        "type": "t_uint256"
      },
      {
        "astId": 38686,
        "contract": "contracts/veION/veION.sol:veION",
        "label": "s_limitedBoost",
        "offset": 0,
        "slot": "302",
        "type": "t_uint256"
      },
      {
        "astId": 38689,
        "contract": "contracts/veION/veION.sol:veION",
        "label": "s_limitedBoostActive",
        "offset": 0,
        "slot": "303",
        "type": "t_bool"
      },
      {
        "astId": 38692,
        "contract": "contracts/veION/veION.sol:veION",
        "label": "s_veAERO",
        "offset": 1,
        "slot": "303",
        "type": "t_address"
      },
      {
        "astId": 38695,
        "contract": "contracts/veION/veION.sol:veION",
        "label": "s_aeroVoting",
        "offset": 0,
        "slot": "304",
        "type": "t_address"
      },
      {
        "astId": 38698,
        "contract": "contracts/veION/veION.sol:veION",
        "label": "s_ionicPool",
        "offset": 0,
        "slot": "305",
        "type": "t_address"
      },
      {
        "astId": 38701,
        "contract": "contracts/veION/veION.sol:veION",
        "label": "s_voter",
        "offset": 0,
        "slot": "306",
        "type": "t_address"
      },
      {
        "astId": 38704,
        "contract": "contracts/veION/veION.sol:veION",
        "label": "s_aeroVoterBoost",
        "offset": 0,
        "slot": "307",
        "type": "t_uint256"
      },
      {
        "astId": 38707,
        "contract": "contracts/veION/veION.sol:veION",
        "label": "s_minimumLockDuration",
        "offset": 0,
        "slot": "308",
        "type": "t_uint256"
      },
      {
        "astId": 38710,
        "contract": "contracts/veION/veION.sol:veION",
        "label": "s_maxEarlyWithdrawFee",
        "offset": 0,
        "slot": "309",
        "type": "t_uint256"
      },
      {
        "astId": 38714,
        "contract": "contracts/veION/veION.sol:veION",
        "label": "ap",
        "offset": 0,
        "slot": "310",
        "type": "t_contract(IAddressesProvider)31261"
      },
      {
        "astId": 38717,
        "contract": "contracts/veION/veION.sol:veION",
        "label": "veIONFirstExtension",
        "offset": 0,
        "slot": "311",
        "type": "t_address"
      },
      {
        "astId": 38720,
        "contract": "contracts/veION/veION.sol:veION",
        "label": "veIONSecondExtension",
        "offset": 0,
        "slot": "312",
        "type": "t_address"
      },
      {
        "astId": 38726,
        "contract": "contracts/veION/veION.sol:veION",
        "label": "s_minimumLockAmount",
        "offset": 0,
        "slot": "313",
        "type": "t_mapping(t_enum(LpTokenType)31614,t_uint256)"
      },
      {
        "astId": 38731,
        "contract": "contracts/veION/veION.sol:veION",
        "label": "s_whitelistedToken",
        "offset": 0,
        "slot": "314",
        "type": "t_mapping(t_address,t_bool)"
      },
      {
        "astId": 38737,
        "contract": "contracts/veION/veION.sol:veION",
        "label": "s_lpType",
        "offset": 0,
        "slot": "315",
        "type": "t_mapping(t_address,t_enum(LpTokenType)31614)"
      },
      {
        "astId": 38742,
        "contract": "contracts/veION/veION.sol:veION",
        "label": "s_canSplit",
        "offset": 0,
        "slot": "316",
        "type": "t_mapping(t_address,t_bool)"
      },
      {
        "astId": 38751,
        "contract": "contracts/veION/veION.sol:veION",
        "label": "s_locked",
        "offset": 0,
        "slot": "317",
        "type": "t_mapping(t_uint256,t_mapping(t_enum(LpTokenType)31614,t_struct(LockedBalance)31557_storage))"
      },
      {
        "astId": 38759,
        "contract": "contracts/veION/veION.sol:veION",
        "label": "s_userPointEpoch",
        "offset": 0,
        "slot": "318",
        "type": "t_mapping(t_uint256,t_mapping(t_enum(LpTokenType)31614,t_uint256))"
      },
      {
        "astId": 38770,
        "contract": "contracts/veION/veION.sol:veION",
        "label": "s_userPointHistory",
        "offset": 0,
        "slot": "319",
        "type": "t_mapping(t_uint256,t_mapping(t_enum(LpTokenType)31614,t_array(t_struct(UserPoint)31577_storage)1000000000_storage))"
      },
      {
        "astId": 38776,
        "contract": "contracts/veION/veION.sol:veION",
        "label": "s_assetsLocked",
        "offset": 0,
        "slot": "320",
        "type": "t_mapping(t_uint256,t_struct(AddressSet)7269_storage)"
      },
      {
        "astId": 38781,
        "contract": "contracts/veION/veION.sol:veION",
        "label": "s_voted",
        "offset": 0,
        "slot": "321",
        "type": "t_mapping(t_uint256,t_bool)"
      },
      {
        "astId": 38787,
        "contract": "contracts/veION/veION.sol:veION",
        "label": "s_supply",
        "offset": 0,
        "slot": "322",
        "type": "t_mapping(t_enum(LpTokenType)31614,t_uint256)"
      },
      {
        "astId": 38793,
        "contract": "contracts/veION/veION.sol:veION",
        "label": "s_permanentLockBalance",
        "offset": 0,
        "slot": "323",
        "type": "t_mapping(t_enum(LpTokenType)31614,t_uint256)"
      },
      {
        "astId": 38800,
        "contract": "contracts/veION/veION.sol:veION",
        "label": "s_stakeStrategy",
        "offset": 0,
        "slot": "324",
        "type": "t_mapping(t_enum(LpTokenType)31614,t_contract(IStakeStrategy)32404)"
      },
      {
        "astId": 38807,
        "contract": "contracts/veION/veION.sol:veION",
        "label": "s_underlyingStake",
        "offset": 0,
        "slot": "325",
        "type": "t_mapping(t_uint256,t_mapping(t_address,t_uint256))"
      },
      {
        "astId": 38813,
        "contract": "contracts/veION/veION.sol:veION",
        "label": "s_protocolFees",
        "offset": 0,
        "slot": "326",
        "type": "t_mapping(t_enum(LpTokenType)31614,t_uint256)"
      },
      {
        "astId": 38819,
        "contract": "contracts/veION/veION.sol:veION",
        "label": "s_distributedFees",
        "offset": 0,
        "slot": "327",
        "type": "t_mapping(t_enum(LpTokenType)31614,t_uint256)"
      },
      {
        "astId": 38829,
        "contract": "contracts/veION/veION.sol:veION",
        "label": "s_delegations",
        "offset": 0,
        "slot": "328",
        "type": "t_mapping(t_uint256,t_mapping(t_uint256,t_mapping(t_enum(LpTokenType)31614,t_uint256)))"
      },
      {
        "astId": 38838,
        "contract": "contracts/veION/veION.sol:veION",
        "label": "s_delegatees",
        "offset": 0,
        "slot": "329",
        "type": "t_mapping(t_uint256,t_mapping(t_enum(LpTokenType)31614,t_struct(UintSet)7426_storage))"
      },
      {
        "astId": 38847,
        "contract": "contracts/veION/veION.sol:veION",
        "label": "s_delegators",
        "offset": 0,
        "slot": "330",
        "type": "t_mapping(t_uint256,t_mapping(t_enum(LpTokenType)31614,t_struct(UintSet)7426_storage))"
      },
      {
        "astId": 38853,
        "contract": "contracts/veION/veION.sol:veION",
        "label": "s_ownerToTokenIds",
        "offset": 0,
        "slot": "331",
        "type": "t_mapping(t_address,t_struct(UintSet)7426_storage)"
      },
      {
        "astId": 38860,
        "contract": "contracts/veION/veION.sol:veION",
        "label": "s_userCumulativeAssetValues",
        "offset": 0,
        "slot": "332",
        "type": "t_mapping(t_address,t_mapping(t_address,t_uint256))"
      },
      {
        "astId": 38867,
        "contract": "contracts/veION/veION.sol:veION",
        "label": "s_delegatorsBlocked",
        "offset": 0,
        "slot": "333",
        "type": "t_mapping(t_uint256,t_mapping(t_address,t_bool))"
      },
      {
        "astId": 38871,
        "contract": "contracts/veION/veION.sol:veION",
        "label": "__gap",
        "offset": 0,
        "slot": "334",
        "type": "t_array(t_uint256)50_storage"
      }
    ],
    "types": {
      "t_address": {
        "encoding": "inplace",
        "label": "address",
        "numberOfBytes": "20"
      },
      "t_array(t_bytes32)dyn_storage": {
        "base": "t_bytes32",
        "encoding": "dynamic_array",
        "label": "bytes32[]",
        "numberOfBytes": "32"
      },
      "t_array(t_struct(UserPoint)31577_storage)1000000000_storage": {
        "base": "t_struct(UserPoint)31577_storage",
        "encoding": "inplace",
        "label": "struct IveIONStructsEnumsErrorsEvents.UserPoint[1000000000]",
        "numberOfBytes": "192000000000"
      },
      "t_array(t_uint256)44_storage": {
        "base": "t_uint256",
        "encoding": "inplace",
        "label": "uint256[44]",
        "numberOfBytes": "1408"
      },
      "t_array(t_uint256)49_storage": {
        "base": "t_uint256",
        "encoding": "inplace",
        "label": "uint256[49]",
        "numberOfBytes": "1568"
      },
      "t_array(t_uint256)50_storage": {
        "base": "t_uint256",
        "encoding": "inplace",
        "label": "uint256[50]",
        "numberOfBytes": "1600"
      },
      "t_bool": {
        "encoding": "inplace",
        "label": "bool",
        "numberOfBytes": "1"
      },
      "t_bytes32": {
        "encoding": "inplace",
        "label": "bytes32",
        "numberOfBytes": "32"
      },
      "t_contract(IAddressesProvider)31261": {
        "encoding": "inplace",
        "label": "contract IAddressesProvider",
        "numberOfBytes": "20"
      },
      "t_contract(IStakeStrategy)32404": {
        "encoding": "inplace",
        "label": "contract IStakeStrategy",
        "numberOfBytes": "20"
      },
      "t_enum(LpTokenType)31614": {
        "encoding": "inplace",
        "label": "enum IveIONStructsEnumsErrorsEvents.LpTokenType",
        "numberOfBytes": "1"
      },
      "t_mapping(t_address,t_bool)": {
        "encoding": "mapping",
        "key": "t_address",
        "label": "mapping(address => bool)",
        "numberOfBytes": "32",
        "value": "t_bool"
      },
      "t_mapping(t_address,t_enum(LpTokenType)31614)": {
        "encoding": "mapping",
        "key": "t_address",
        "label": "mapping(address => enum IveIONStructsEnumsErrorsEvents.LpTokenType)",
        "numberOfBytes": "32",
        "value": "t_enum(LpTokenType)31614"
      },
      "t_mapping(t_address,t_mapping(t_address,t_bool))": {
        "encoding": "mapping",
        "key": "t_address",
        "label": "mapping(address => mapping(address => bool))",
        "numberOfBytes": "32",
        "value": "t_mapping(t_address,t_bool)"
      },
      "t_mapping(t_address,t_mapping(t_address,t_uint256))": {
        "encoding": "mapping",
        "key": "t_address",
        "label": "mapping(address => mapping(address => uint256))",
        "numberOfBytes": "32",
        "value": "t_mapping(t_address,t_uint256)"
      },
      "t_mapping(t_address,t_struct(UintSet)7426_storage)": {
        "encoding": "mapping",
        "key": "t_address",
        "label": "mapping(address => struct EnumerableSet.UintSet)",
        "numberOfBytes": "32",
        "value": "t_struct(UintSet)7426_storage"
      },
      "t_mapping(t_address,t_uint256)": {
        "encoding": "mapping",
        "key": "t_address",
        "label": "mapping(address => uint256)",
        "numberOfBytes": "32",
        "value": "t_uint256"
      },
      "t_mapping(t_bytes32,t_uint256)": {
        "encoding": "mapping",
        "key": "t_bytes32",
        "label": "mapping(bytes32 => uint256)",
        "numberOfBytes": "32",
        "value": "t_uint256"
      },
      "t_mapping(t_enum(LpTokenType)31614,t_array(t_struct(UserPoint)31577_storage)1000000000_storage)": {
        "encoding": "mapping",
        "key": "t_enum(LpTokenType)31614",
        "label": "mapping(enum IveIONStructsEnumsErrorsEvents.LpTokenType => struct IveIONStructsEnumsErrorsEvents.UserPoint[1000000000])",
        "numberOfBytes": "32",
        "value": "t_array(t_struct(UserPoint)31577_storage)1000000000_storage"
      },
      "t_mapping(t_enum(LpTokenType)31614,t_contract(IStakeStrategy)32404)": {
        "encoding": "mapping",
        "key": "t_enum(LpTokenType)31614",
        "label": "mapping(enum IveIONStructsEnumsErrorsEvents.LpTokenType => contract IStakeStrategy)",
        "numberOfBytes": "32",
        "value": "t_contract(IStakeStrategy)32404"
      },
      "t_mapping(t_enum(LpTokenType)31614,t_struct(LockedBalance)31557_storage)": {
        "encoding": "mapping",
        "key": "t_enum(LpTokenType)31614",
        "label": "mapping(enum IveIONStructsEnumsErrorsEvents.LpTokenType => struct IveIONStructsEnumsErrorsEvents.LockedBalance)",
        "numberOfBytes": "32",
        "value": "t_struct(LockedBalance)31557_storage"
      },
      "t_mapping(t_enum(LpTokenType)31614,t_struct(UintSet)7426_storage)": {
        "encoding": "mapping",
        "key": "t_enum(LpTokenType)31614",
        "label": "mapping(enum IveIONStructsEnumsErrorsEvents.LpTokenType => struct EnumerableSet.UintSet)",
        "numberOfBytes": "32",
        "value": "t_struct(UintSet)7426_storage"
      },
      "t_mapping(t_enum(LpTokenType)31614,t_uint256)": {
        "encoding": "mapping",
        "key": "t_enum(LpTokenType)31614",
        "label": "mapping(enum IveIONStructsEnumsErrorsEvents.LpTokenType => uint256)",
        "numberOfBytes": "32",
        "value": "t_uint256"
      },
      "t_mapping(t_uint256,t_address)": {
        "encoding": "mapping",
        "key": "t_uint256",
        "label": "mapping(uint256 => address)",
        "numberOfBytes": "32",
        "value": "t_address"
      },
      "t_mapping(t_uint256,t_bool)": {
        "encoding": "mapping",
        "key": "t_uint256",
        "label": "mapping(uint256 => bool)",
        "numberOfBytes": "32",
        "value": "t_bool"
      },
      "t_mapping(t_uint256,t_mapping(t_address,t_bool))": {
        "encoding": "mapping",
        "key": "t_uint256",
        "label": "mapping(uint256 => mapping(address => bool))",
        "numberOfBytes": "32",
        "value": "t_mapping(t_address,t_bool)"
      },
      "t_mapping(t_uint256,t_mapping(t_address,t_uint256))": {
        "encoding": "mapping",
        "key": "t_uint256",
        "label": "mapping(uint256 => mapping(address => uint256))",
        "numberOfBytes": "32",
        "value": "t_mapping(t_address,t_uint256)"
      },
      "t_mapping(t_uint256,t_mapping(t_enum(LpTokenType)31614,t_array(t_struct(UserPoint)31577_storage)1000000000_storage))": {
        "encoding": "mapping",
        "key": "t_uint256",
        "label": "mapping(uint256 => mapping(enum IveIONStructsEnumsErrorsEvents.LpTokenType => struct IveIONStructsEnumsErrorsEvents.UserPoint[1000000000]))",
        "numberOfBytes": "32",
        "value": "t_mapping(t_enum(LpTokenType)31614,t_array(t_struct(UserPoint)31577_storage)1000000000_storage)"
      },
      "t_mapping(t_uint256,t_mapping(t_enum(LpTokenType)31614,t_struct(LockedBalance)31557_storage))": {
        "encoding": "mapping",
        "key": "t_uint256",
        "label": "mapping(uint256 => mapping(enum IveIONStructsEnumsErrorsEvents.LpTokenType => struct IveIONStructsEnumsErrorsEvents.LockedBalance))",
        "numberOfBytes": "32",
        "value": "t_mapping(t_enum(LpTokenType)31614,t_struct(LockedBalance)31557_storage)"
      },
      "t_mapping(t_uint256,t_mapping(t_enum(LpTokenType)31614,t_struct(UintSet)7426_storage))": {
        "encoding": "mapping",
        "key": "t_uint256",
        "label": "mapping(uint256 => mapping(enum IveIONStructsEnumsErrorsEvents.LpTokenType => struct EnumerableSet.UintSet))",
        "numberOfBytes": "32",
        "value": "t_mapping(t_enum(LpTokenType)31614,t_struct(UintSet)7426_storage)"
      },
      "t_mapping(t_uint256,t_mapping(t_enum(LpTokenType)31614,t_uint256))": {
        "encoding": "mapping",
        "key": "t_uint256",
        "label": "mapping(uint256 => mapping(enum IveIONStructsEnumsErrorsEvents.LpTokenType => uint256))",
        "numberOfBytes": "32",
        "value": "t_mapping(t_enum(LpTokenType)31614,t_uint256)"
      },
      "t_mapping(t_uint256,t_mapping(t_uint256,t_mapping(t_enum(LpTokenType)31614,t_uint256)))": {
        "encoding": "mapping",
        "key": "t_uint256",
        "label": "mapping(uint256 => mapping(uint256 => mapping(enum IveIONStructsEnumsErrorsEvents.LpTokenType => uint256)))",
        "numberOfBytes": "32",
        "value": "t_mapping(t_uint256,t_mapping(t_enum(LpTokenType)31614,t_uint256))"
      },
      "t_mapping(t_uint256,t_struct(AddressSet)7269_storage)": {
        "encoding": "mapping",
        "key": "t_uint256",
        "label": "mapping(uint256 => struct EnumerableSet.AddressSet)",
        "numberOfBytes": "32",
        "value": "t_struct(AddressSet)7269_storage"
      },
      "t_string_storage": {
        "encoding": "bytes",
        "label": "string",
        "numberOfBytes": "32"
      },
      "t_struct(AddressSet)7269_storage": {
        "encoding": "inplace",
        "label": "struct EnumerableSet.AddressSet",
        "members": [
          {
            "astId": 7268,
            "contract": "contracts/veION/veION.sol:veION",
            "label": "_inner",
            "offset": 0,
            "slot": "0",
            "type": "t_struct(Set)6954_storage"
          }
        ],
        "numberOfBytes": "64"
      },
      "t_struct(LockedBalance)31557_storage": {
        "encoding": "inplace",
        "label": "struct IveIONStructsEnumsErrorsEvents.LockedBalance",
        "members": [
          {
            "astId": 31544,
            "contract": "contracts/veION/veION.sol:veION",
            "label": "tokenAddress",
            "offset": 0,
            "slot": "0",
            "type": "t_address"
          },
          {
            "astId": 31546,
            "contract": "contracts/veION/veION.sol:veION",
            "label": "amount",
            "offset": 0,
            "slot": "1",
            "type": "t_uint256"
          },
          {
            "astId": 31548,
            "contract": "contracts/veION/veION.sol:veION",
            "label": "delegateAmount",
            "offset": 0,
            "slot": "2",
            "type": "t_uint256"
          },
          {
            "astId": 31550,
            "contract": "contracts/veION/veION.sol:veION",
            "label": "start",
            "offset": 0,
            "slot": "3",
            "type": "t_uint256"
          },
          {
            "astId": 31552,
            "contract": "contracts/veION/veION.sol:veION",
            "label": "end",
            "offset": 0,
            "slot": "4",
            "type": "t_uint256"
          },
          {
            "astId": 31554,
            "contract": "contracts/veION/veION.sol:veION",
            "label": "isPermanent",
            "offset": 0,
            "slot": "5",
            "type": "t_bool"
          },
          {
            "astId": 31556,
            "contract": "contracts/veION/veION.sol:veION",
            "label": "boost",
            "offset": 0,
            "slot": "6",
            "type": "t_uint256"
          }
        ],
        "numberOfBytes": "224"
      },
      "t_struct(Set)6954_storage": {
        "encoding": "inplace",
        "label": "struct EnumerableSet.Set",
        "members": [
          {
            "astId": 6949,
            "contract": "contracts/veION/veION.sol:veION",
            "label": "_values",
            "offset": 0,
            "slot": "0",
            "type": "t_array(t_bytes32)dyn_storage"
          },
          {
            "astId": 6953,
            "contract": "contracts/veION/veION.sol:veION",
            "label": "_indexes",
            "offset": 0,
            "slot": "1",
            "type": "t_mapping(t_bytes32,t_uint256)"
          }
        ],
        "numberOfBytes": "64"
      },
      "t_struct(UintSet)7426_storage": {
        "encoding": "inplace",
        "label": "struct EnumerableSet.UintSet",
        "members": [
          {
            "astId": 7425,
            "contract": "contracts/veION/veION.sol:veION",
            "label": "_inner",
            "offset": 0,
            "slot": "0",
            "type": "t_struct(Set)6954_storage"
          }
        ],
        "numberOfBytes": "64"
      },
      "t_struct(UserPoint)31577_storage": {
        "encoding": "inplace",
        "label": "struct IveIONStructsEnumsErrorsEvents.UserPoint",
        "members": [
          {
            "astId": 31566,
            "contract": "contracts/veION/veION.sol:veION",
            "label": "bias",
            "offset": 0,
            "slot": "0",
            "type": "t_uint256"
          },
          {
            "astId": 31568,
            "contract": "contracts/veION/veION.sol:veION",
            "label": "slope",
            "offset": 0,
            "slot": "1",
            "type": "t_uint256"
          },
          {
            "astId": 31570,
            "contract": "contracts/veION/veION.sol:veION",
            "label": "ts",
            "offset": 0,
            "slot": "2",
            "type": "t_uint256"
          },
          {
            "astId": 31572,
            "contract": "contracts/veION/veION.sol:veION",
            "label": "blk",
            "offset": 0,
            "slot": "3",
            "type": "t_uint256"
          },
          {
            "astId": 31574,
            "contract": "contracts/veION/veION.sol:veION",
            "label": "permanent",
            "offset": 0,
            "slot": "4",
            "type": "t_uint256"
          },
          {
            "astId": 31576,
            "contract": "contracts/veION/veION.sol:veION",
            "label": "permanentDelegate",
            "offset": 0,
            "slot": "5",
            "type": "t_uint256"
          }
        ],
        "numberOfBytes": "192"
      },
      "t_uint256": {
        "encoding": "inplace",
        "label": "uint256",
        "numberOfBytes": "32"
      },
      "t_uint8": {
        "encoding": "inplace",
        "label": "uint8",
        "numberOfBytes": "1"
      }
    }
  }
}