{
  "address": "0x50b6A0c226bF5C4a83c9e865ce44d7c88cfB4d04",
  "abi": [
    {
      "anonymous": false,
      "inputs": [
        {
          "indexed": false,
          "internalType": "uint8",
          "name": "version",
          "type": "uint8"
        }
      ],
      "name": "Initialized",
      "type": "event"
    },
    {
      "anonymous": false,
      "inputs": [
        {
          "indexed": false,
          "internalType": "address",
          "name": "oldOwner",
          "type": "address"
        },
        {
          "indexed": false,
          "internalType": "address",
          "name": "newOwner",
          "type": "address"
        }
      ],
      "name": "NewOwner",
      "type": "event"
    },
    {
      "anonymous": false,
      "inputs": [
        {
          "indexed": false,
          "internalType": "address",
          "name": "oldPendingOwner",
          "type": "address"
        },
        {
          "indexed": false,
          "internalType": "address",
          "name": "newPendingOwner",
          "type": "address"
        }
      ],
      "name": "NewPendingOwner",
      "type": "event"
    },
    {
      "anonymous": false,
      "inputs": [
        {
          "indexed": true,
          "internalType": "address",
          "name": "previousOwner",
          "type": "address"
        },
        {
          "indexed": true,
          "internalType": "address",
          "name": "newOwner",
          "type": "address"
        }
      ],
      "name": "OwnershipTransferred",
      "type": "event"
    },
    {
      "inputs": [],
      "name": "_acceptOwner",
      "outputs": [],
      "stateMutability": "nonpayable",
      "type": "function"
    },
    {
      "inputs": [
        {
          "internalType": "address",
          "name": "newPendingOwner",
          "type": "address"
        }
      ],
      "name": "_setPendingOwner",
      "outputs": [],
      "stateMutability": "nonpayable",
      "type": "function"
    },
    {
      "inputs": [
        {
          "internalType": "address",
          "name": "pool",
          "type": "address"
        },
        {
          "internalType": "address",
          "name": "user",
          "type": "address"
        },
        {
          "internalType": "address",
          "name": "target",
          "type": "address"
        },
        {
          "internalType": "bytes4",
          "name": "functionSig",
          "type": "bytes4"
        }
      ],
      "name": "canCall",
      "outputs": [
        {
          "internalType": "bool",
          "name": "",
          "type": "bool"
        }
      ],
      "stateMutability": "view",
      "type": "function"
    },
    {
      "inputs": [
        {
          "internalType": "address",
          "name": "pool",
          "type": "address"
        }
      ],
      "name": "createPoolAuthority",
      "outputs": [
        {
          "internalType": "contract PoolRolesAuthority",
          "name": "auth",
          "type": "address"
        }
      ],
      "stateMutability": "nonpayable",
      "type": "function"
    },
    {
      "inputs": [
        {
          "internalType": "address",
          "name": "_leveredPositionsFactory",
          "type": "address"
        }
      ],
      "name": "initialize",
      "outputs": [],
      "stateMutability": "nonpayable",
      "type": "function"
    },
    {
      "inputs": [],
      "name": "leveredPositionsFactory",
      "outputs": [
        {
          "internalType": "address",
          "name": "",
          "type": "address"
        }
      ],
      "stateMutability": "view",
      "type": "function"
    },
    {
      "inputs": [],
      "name": "owner",
      "outputs": [
        {
          "internalType": "address",
          "name": "",
          "type": "address"
        }
      ],
      "stateMutability": "view",
      "type": "function"
    },
    {
      "inputs": [],
      "name": "pendingOwner",
      "outputs": [
        {
          "internalType": "address",
          "name": "",
          "type": "address"
        }
      ],
      "stateMutability": "view",
      "type": "function"
    },
    {
      "inputs": [],
      "name": "poolAuthLogic",
      "outputs": [
        {
          "internalType": "contract PoolRolesAuthority",
          "name": "",
          "type": "address"
        }
      ],
      "stateMutability": "view",
      "type": "function"
    },
    {
      "inputs": [
        {
          "internalType": "address",
          "name": "",
          "type": "address"
        }
      ],
      "name": "poolsAuthorities",
      "outputs": [
        {
          "internalType": "contract PoolRolesAuthority",
          "name": "",
          "type": "address"
        }
      ],
      "stateMutability": "view",
      "type": "function"
    },
    {
      "inputs": [
        {
          "internalType": "address",
          "name": "poolAddress",
          "type": "address"
        }
      ],
      "name": "reconfigureAuthority",
      "outputs": [],
      "stateMutability": "nonpayable",
      "type": "function"
    },
    {
      "inputs": [
        {
          "internalType": "address",
          "name": "_leveredPositionsFactory",
          "type": "address"
        }
      ],
      "name": "reinitialize",
      "outputs": [],
      "stateMutability": "nonpayable",
      "type": "function"
    },
    {
      "inputs": [],
      "name": "renounceOwnership",
      "outputs": [],
      "stateMutability": "nonpayable",
      "type": "function"
    },
    {
      "inputs": [
        {
          "internalType": "address",
          "name": "pool",
          "type": "address"
        },
        {
          "internalType": "address",
          "name": "user",
          "type": "address"
        },
        {
          "internalType": "uint8",
          "name": "role",
          "type": "uint8"
        },
        {
          "internalType": "bool",
          "name": "enabled",
          "type": "bool"
        }
      ],
      "name": "setUserRole",
      "outputs": [],
      "stateMutability": "nonpayable",
      "type": "function"
    },
    {
      "inputs": [
        {
          "internalType": "address",
          "name": "newOwner",
          "type": "address"
        }
      ],
      "name": "transferOwnership",
      "outputs": [],
      "stateMutability": "nonpayable",
      "type": "function"
    }
  ],
  "transactionHash": "0x4406ef810796600455ee47b178a345abf2a613fbab0a6e676f1428f9f7db43e4",
  "args": [],
  "numDeployments": 1,
  "bytecode": {
    "object": "0x608060405234801561001057600080fd5b50613fb1806100206000396000f3fe60806040523480156200001157600080fd5b5060043610620001095760003560e01c8063c4d66de811620000a3578063ec2ffdd1116200006e578063ec2ffdd11462000220578063f2fde38b146200024c578063f7e7d1fd1462000263578063fc4d33f9146200027a57600080fd5b8063c4d66de814620001b6578063ca224d9814620001cd578063df595cb814620001e4578063e30c3978146200020c57600080fd5b8063715018a611620000e4578063715018a6146200016f5780638da5cb5b146200017957806395f14b16146200018b578063a1a82b56146200019f57600080fd5b806354927fb8146200010e5780635a89ef51146200013f5780636e96dfd71462000158575b600080fd5b60675462000122906001600160a01b031681565b6040516001600160a01b0390911681526020015b60405180910390f35b620001566200015036600462001179565b62000284565b005b620001566200016936600462001179565b62000542565b62000156620005ae565b6033546001600160a01b031662000122565b60685462000122906001600160a01b031681565b62000122620001b036600462001179565b620005f4565b62000156620001c736600462001179565b6200086e565b62000156620001de366004620011bd565b620009ee565b620001fb620001f53660046200121e565b62000bf2565b604051901515815260200162000136565b60655462000122906001600160a01b031681565b620001226200023136600462001179565b6066602052600090815260409020546001600160a01b031681565b620001566200025d36600462001179565b62000d30565b620001566200027436600462001179565b62000da3565b6200015662000ed1565b6001600160a01b038082166000818152606660205260409020548392169033141580620002b957506001600160a01b03811615155b156200053d576001600160a01b0381166200030f5760405162461bcd60e51b81526020600482015260116024820152706e6f207375636820617574686f7269747960781b60448201526064015b60405180910390fd5b6033546001600160a01b0316331480620003315750336001600160a01b038416145b620003735760405162461bcd60e51b81526020600482015260116024820152701b9bdd081bdddb995c881bdc881c1bdbdb607a1b604482015260640162000306565b806001600160a01b031663e347416d6040518163ffffffff1660e01b8152600401600060405180830381600087803b158015620003af57600080fd5b505af1158015620003c4573d6000803e3d6000fd5b5050604051630c22644560e01b81526001600160a01b03858116600483015284169250630c2264459150602401600060405180830381600087803b1580156200040c57600080fd5b505af115801562000421573d6000803e3d6000fd5b5050604051630a4c60c560e41b81526001600160a01b0385811660048301528416925063a4c60c509150602401600060405180830381600087803b1580156200046957600080fd5b505af11580156200047e573d6000803e3d6000fd5b5050604051637875b94560e01b81526001600160a01b03858116600483015284169250637875b9459150602401600060405180830381600087803b158015620004c657600080fd5b505af1158015620004db573d6000803e3d6000fd5b505060405163387beb5760e11b81526001600160a01b038581166004830152841692506370f7d6ae9150602401600060405180830381600087803b1580156200052357600080fd5b505af115801562000538573d6000803e3d6000fd5b505050505b505050565b6200054c62000feb565b606580546001600160a01b038381166001600160a01b031983168117909355604080519190921680825260208201939093527fb3d55174552271a4f1aaf36b72f50381e892171636b3fb5447fe00e995e7a37b91015b60405180910390a15050565b620005b862000feb565b60405162461bcd60e51b815260206004820152601060248201526f6e6f74207573656420616e796d6f726560801b604482015260640162000306565b60006200060062000feb565b6001600160a01b0382811660009081526066602052604090205416156200065c5760405162461bcd60e51b815260206004820152600f60248201526e185b1c9958591e4818dc99585d1959608a1b604482015260640162000306565b6067546000906001600160a01b03166200069d7fb53127684a568b3173ae13b9f8a6016e243e63b6e8ee1178d6a717850b5d6103546001600160a01b031690565b604051620006ab9062001140565b6001600160a01b03928316815291166020820152606060408201819052600090820152608001604051809103906000f080158015620006ee573d6000803e3d6000fd5b5060405163189acdbd60e31b81523060048201529092508291506001600160a01b0382169063c4d66de890602401600060405180830381600087803b1580156200073757600080fd5b505af11580156200074c573d6000803e3d6000fd5b505050506001600160a01b03838116600090815260666020526040902080546001600160a01b031916918416919091179055620007898362000284565b816001600160a01b03166367aff48430846001600160a01b03166342f1e8796040518163ffffffff1660e01b8152600401602060405180830381865afa158015620007d8573d6000803e3d6000fd5b505050506040513d601f19601f82011682018060405250810190620007fe91906200127e565b6040516001600160e01b031960e085901b1681526001600160a01b03909216600483015260ff16602482015260016044820152606401600060405180830381600087803b1580156200084f57600080fd5b505af115801562000864573d6000803e3d6000fd5b5050505050919050565b600054610100900460ff16158080156200088f5750600054600160ff909116105b80620008ab5750303b158015620008ab575060005460ff166001145b620009105760405162461bcd60e51b815260206004820152602e60248201527f496e697469616c697a61626c653a20636f6e747261637420697320616c72656160448201526d191e481a5b9a5d1a585b1a5e995960921b606482015260840162000306565b6000805460ff19166001179055801562000934576000805461ff0019166101001790555b6200093f3362001049565b606880546001600160a01b0319166001600160a01b03841617905560405162000968906200114e565b604051809103906000f08015801562000985573d6000803e3d6000fd5b50606780546001600160a01b0319166001600160a01b03929092169190911790558015620009ea576000805461ff0019169055604051600181527f7f26b83ff96e1f2b6a682f133852f6798a09c465da95921460cefb384740249890602001620005a2565b5050565b6001600160a01b03808516600090815260666020526040902054168062000a4e5760405162461bcd60e51b8152602060048201526013602482015272185d5d1a08191bd95cc81b9bdd08195e1a5cdd606a1b604482015260640162000306565b6033546001600160a01b031633148062000a7257506068546001600160a01b031633145b62000ab75760405162461bcd60e51b81526020600482015260146024820152736e6f74206f776e6572206f7220666163746f727960601b604482015260640162000306565b6068546001600160a01b03163314158062000b3b5750806001600160a01b0316633300183c6040518163ffffffff1660e01b8152600401602060405180830381865afa15801562000b0c573d6000803e3d6000fd5b505050506040513d601f19601f8201168201806040525081019062000b3291906200127e565b60ff168360ff16145b62000b7d5760405162461bcd60e51b81526020600482015260116024820152706f6e6c79206c657620706f7320726f6c6560781b604482015260640162000306565b6040516319ebfd2160e21b81526001600160a01b03858116600483015260ff8516602483015283151560448301528216906367aff48490606401600060405180830381600087803b15801562000bd257600080fd5b505af115801562000be7573d6000803e3d6000fd5b505050505050505050565b6001600160a01b038085166000908152606660205260408120549091168062000c9f57606754604051634f6a070760e11b81526001600160a01b0386811660048301526001600160e01b03198616602483015290911690639ed40e0e90604401602060405180830381865afa15801562000c70573d6000803e3d6000fd5b505050506040513d601f19601f8201168201806040525081019062000c9691906200129e565b91505062000d28565b60405163b700961360e01b81526001600160a01b03868116600483015285811660248301526001600160e01b03198516604483015282169063b700961390606401602060405180830381865afa15801562000cfe573d6000803e3d6000fd5b505050506040513d601f19601f8201168201806040525081019062000d2491906200129e565b9150505b949350505050565b62000d3a62000feb565b606554604080516001600160a01b03928316815291831660208301527fb3d55174552271a4f1aaf36b72f50381e892171636b3fb5447fe00e995e7a37b910160405180910390a1606580546001600160a01b0319166001600160a01b0392909216919091179055565b6033546001600160a01b031633148062000e6657600062000deb7fb53127684a568b3173ae13b9f8a6016e243e63b6e8ee1178d6a717850b5d6103546001600160a01b031690565b90506001600160a01b03811633148062000e635760405162461bcd60e51b815260206004820152603260248201527f4f776e61626c653a2063616c6c6572206973206e65697468657220746865206f6044820152713bb732b9103737b9103a34329030b236b4b760711b606482015260840162000306565b50505b606880546001600160a01b0319166001600160a01b03841617905560405162000e8f906200114e565b604051809103906000f08015801562000eac573d6000803e3d6000fd5b50606780546001600160a01b0319166001600160a01b03929092169190911790555050565b6065546001600160a01b0316331462000f255760405162461bcd60e51b81526020600482015260156024820152743737ba103a3432903832b73234b7339037bbb732b960591b604482015260640162000306565b600062000f3a6033546001600160a01b031690565b6065549091506001600160a01b031662000f54816200108b565b606580546001600160a01b0319169055604080516001600160a01b0384168152600060208201527f70aea8d848e8a90fb7661b227dc522eb6395c3dac71b63cb59edd5c9899b2364910160405180910390a1606554604080516001600160a01b03808516825290921660208301527fb3d55174552271a4f1aaf36b72f50381e892171636b3fb5447fe00e995e7a37b9101620005a2565b6033546001600160a01b03163314620010475760405162461bcd60e51b815260206004820181905260248201527f4f776e61626c653a2063616c6c6572206973206e6f7420746865206f776e6572604482015260640162000306565b565b600054610100900460ff16620010735760405162461bcd60e51b81526004016200030690620012be565b6200107d620010dd565b62001088816200108b565b50565b603380546001600160a01b038381166001600160a01b0319831681179093556040519116919082907f8be0079c531659141344cd1fd0a4f28419497f9722a3daafe3b4186f6b6457e090600090a35050565b600054610100900460ff16620011075760405162461bcd60e51b81526004016200030690620012be565b62001047600054610100900460ff16620011355760405162461bcd60e51b81526004016200030690620012be565b62001047336200108b565b610e6f806200130a83390190565b611e2c806200217983390190565b80356001600160a01b03811681146200117457600080fd5b919050565b6000602082840312156200118c57600080fd5b62001197826200115c565b9392505050565b60ff811681146200108857600080fd5b80151581146200108857600080fd5b60008060008060808587031215620011d457600080fd5b620011df856200115c565b9350620011ef602086016200115c565b9250604085013562001201816200119e565b915060608501356200121381620011ae565b939692955090935050565b600080600080608085870312156200123557600080fd5b62001240856200115c565b935062001250602086016200115c565b925062001260604086016200115c565b915060608501356001600160e01b0319811681146200121357600080fd5b6000602082840312156200129157600080fd5b815162001197816200119e565b600060208284031215620012b157600080fd5b81516200119781620011ae565b6020808252602b908201527f496e697469616c697a61626c653a20636f6e7472616374206973206e6f74206960408201526a6e697469616c697a696e6760a81b60608201526080019056fe608060405260405162000e6f38038062000e6f83398101604081905262000026916200049d565b828162000036828260006200004d565b50620000449050826200008a565b505050620005d0565b6200005883620000e5565b600082511180620000665750805b1562000085576200008383836200012760201b620002601760201c565b505b505050565b7f7e644d79422f17c01e4894b5f4f588d331ebfa28653d42ae832dc59e38c9798f620000b562000156565b604080516001600160a01b03928316815291841660208301520160405180910390a1620000e2816200018f565b50565b620000f08162000244565b6040516001600160a01b038216907fbc7cd75a20ee27fd9adebab32041f755214dbc6bffa90cc0225b39da2e5c2d3b90600090a250565b60606200014f838360405180606001604052806027815260200162000e4860279139620002f8565b9392505050565b60006200018060008051602062000e2883398151915260001b6200037760201b620002081760201c565b546001600160a01b0316919050565b6001600160a01b038116620001fa5760405162461bcd60e51b815260206004820152602660248201527f455243313936373a206e65772061646d696e20697320746865207a65726f206160448201526564647265737360d01b60648201526084015b60405180910390fd5b806200022360008051602062000e2883398151915260001b6200037760201b620002081760201c565b80546001600160a01b0319166001600160a01b039290921691909117905550565b6200025a816200037a60201b6200028c1760201c565b620002be5760405162461bcd60e51b815260206004820152602d60248201527f455243313936373a206e657720696d706c656d656e746174696f6e206973206e60448201526c1bdd08184818dbdb9d1c9858dd609a1b6064820152608401620001f1565b80620002237f360894a13ba1a3210667c828492db98dca3e2076cc3735a920a3ca505d382bbc60001b6200037760201b620002081760201c565b6060600080856001600160a01b0316856040516200031791906200057d565b600060405180830381855af49150503d806000811462000354576040519150601f19603f3d011682016040523d82523d6000602084013e62000359565b606091505b5090925090506200036d8683838762000389565b9695505050505050565b90565b6001600160a01b03163b151590565b60608315620003fa578251620003f2576001600160a01b0385163b620003f25760405162461bcd60e51b815260206004820152601d60248201527f416464726573733a2063616c6c20746f206e6f6e2d636f6e74726163740000006044820152606401620001f1565b508162000406565b6200040683836200040e565b949350505050565b8151156200041f5781518083602001fd5b8060405162461bcd60e51b8152600401620001f191906200059b565b80516001600160a01b03811681146200045357600080fd5b919050565b634e487b7160e01b600052604160045260246000fd5b60005b838110156200048b57818101518382015260200162000471565b83811115620000835750506000910152565b600080600060608486031215620004b357600080fd5b620004be846200043b565b9250620004ce602085016200043b565b60408501519092506001600160401b0380821115620004ec57600080fd5b818601915086601f8301126200050157600080fd5b81518181111562000516576200051662000458565b604051601f8201601f19908116603f0116810190838211818310171562000541576200054162000458565b816040528281528960208487010111156200055b57600080fd5b6200056e8360208301602088016200046e565b80955050505050509250925092565b60008251620005918184602087016200046e565b9190910192915050565b6020815260008251806020840152620005bc8160408501602087016200046e565b601f01601f19169190910160400192915050565b61084880620005e06000396000f3fe60806040526004361061004e5760003560e01c80633659cfe6146100655780634f1ef286146100855780635c60da1b146100985780638f283970146100c9578063f851a440146100e95761005d565b3661005d5761005b6100fe565b005b61005b6100fe565b34801561007157600080fd5b5061005b6100803660046106fb565b610118565b61005b610093366004610716565b61015f565b3480156100a457600080fd5b506100ad6101d0565b6040516001600160a01b03909116815260200160405180910390f35b3480156100d557600080fd5b5061005b6100e43660046106fb565b61020b565b3480156100f557600080fd5b506100ad610235565b61010661029b565b61011661011161033a565b610344565b565b610120610368565b6001600160a01b0316336001600160a01b03161415610157576101548160405180602001604052806000815250600061039b565b50565b6101546100fe565b610167610368565b6001600160a01b0316336001600160a01b031614156101c8576101c38383838080601f0160208091040260200160405190810160405280939291908181526020018383808284376000920191909152506001925061039b915050565b505050565b6101c36100fe565b60006101da610368565b6001600160a01b0316336001600160a01b03161415610200576101fb61033a565b905090565b6102086100fe565b90565b610213610368565b6001600160a01b0316336001600160a01b0316141561015757610154816103c6565b600061023f610368565b6001600160a01b0316336001600160a01b03161415610200576101fb610368565b606061028583836040518060600160405280602781526020016108156027913961041a565b9392505050565b6001600160a01b03163b151590565b6102a3610368565b6001600160a01b0316336001600160a01b031614156101165760405162461bcd60e51b815260206004820152604260248201527f5472616e73706172656e745570677261646561626c6550726f78793a2061646d60448201527f696e2063616e6e6f742066616c6c6261636b20746f2070726f78792074617267606482015261195d60f21b608482015260a4015b60405180910390fd5b60006101fb610492565b3660008037600080366000845af43d6000803e808015610363573d6000f35b3d6000fd5b60007fb53127684a568b3173ae13b9f8a6016e243e63b6e8ee1178d6a717850b5d61035b546001600160a01b0316919050565b6103a4836104ba565b6000825111806103b15750805b156101c3576103c08383610260565b50505050565b7f7e644d79422f17c01e4894b5f4f588d331ebfa28653d42ae832dc59e38c9798f6103ef610368565b604080516001600160a01b03928316815291841660208301520160405180910390a1610154816104fa565b6060600080856001600160a01b03168560405161043791906107c5565b600060405180830381855af49150503d8060008114610472576040519150601f19603f3d011682016040523d82523d6000602084013e610477565b606091505b5091509150610488868383876105a3565b9695505050505050565b60007f360894a13ba1a3210667c828492db98dca3e2076cc3735a920a3ca505d382bbc61038c565b6104c381610621565b6040516001600160a01b038216907fbc7cd75a20ee27fd9adebab32041f755214dbc6bffa90cc0225b39da2e5c2d3b90600090a250565b6001600160a01b03811661055f5760405162461bcd60e51b815260206004820152602660248201527f455243313936373a206e65772061646d696e20697320746865207a65726f206160448201526564647265737360d01b6064820152608401610331565b807fb53127684a568b3173ae13b9f8a6016e243e63b6e8ee1178d6a717850b5d61035b80546001600160a01b0319166001600160a01b039290921691909117905550565b6060831561060f578251610608576001600160a01b0385163b6106085760405162461bcd60e51b815260206004820152601d60248201527f416464726573733a2063616c6c20746f206e6f6e2d636f6e74726163740000006044820152606401610331565b5081610619565b61061983836106b5565b949350505050565b6001600160a01b0381163b61068e5760405162461bcd60e51b815260206004820152602d60248201527f455243313936373a206e657720696d706c656d656e746174696f6e206973206e60448201526c1bdd08184818dbdb9d1c9858dd609a1b6064820152608401610331565b807f360894a13ba1a3210667c828492db98dca3e2076cc3735a920a3ca505d382bbc610582565b8151156106c55781518083602001fd5b8060405162461bcd60e51b815260040161033191906107e1565b80356001600160a01b03811681146106f657600080fd5b919050565b60006020828403121561070d57600080fd5b610285826106df565b60008060006040848603121561072b57600080fd5b610734846106df565b9250602084013567ffffffffffffffff8082111561075157600080fd5b818601915086601f83011261076557600080fd5b81358181111561077457600080fd5b87602082850101111561078657600080fd5b6020830194508093505050509250925092565b60005b838110156107b457818101518382015260200161079c565b838111156103c05750506000910152565b600082516107d7818460208701610799565b9190910192915050565b6020815260008251806020840152610800816040850160208701610799565b601f01601f1916919091016040019291505056fe416464726573733a206c6f772d6c6576656c2064656c65676174652063616c6c206661696c6564a164736f6c634300080a000ab53127684a568b3173ae13b9f8a6016e243e63b6e8ee1178d6a717850b5d6103416464726573733a206c6f772d6c6576656c2064656c65676174652063616c6c206661696c6564608060405234801561001057600080fd5b50600080546001600160a01b03199081168255600180549091169055604051819081908190819033907f8292fce18fa69edf4db7b94ea2e58241df0ae57f97e0a6c9b29067028bf92d76908390a36040516001600160a01b0382169033907fa3396fd7f6e0a21b50e5089d2da70d5ac0a3bbbd1f617a93f134b7638998019890600090a3505050506100a66100ab60201b60201c565b61016b565b600554610100900460ff16156101175760405162461bcd60e51b815260206004820152602760248201527f496e697469616c697a61626c653a20636f6e747261637420697320696e697469604482015266616c697a696e6760c81b606482015260840160405180910390fd5b60055460ff9081161015610169576005805460ff191660ff9081179091556040519081527f7f26b83ff96e1f2b6a682f133852f6798a09c465da95921460cefb38474024989060200160405180910390a15b565b611cb28061017a6000396000f3fe608060405234801561001057600080fd5b50600436106101e55760003560e01c80637917b7941161010f578063b7009613116100a2578063d8e708cd11610071578063d8e708cd1461047d578063e347416d14610490578063ea7ca27614610498578063fd45c1f1146104cf57600080fd5b8063b700961314610431578063bf7e214f14610444578063c4d66de814610457578063c6b0263e1461046a57600080fd5b80639ed40e0e116100de5780639ed40e0e146103b6578063a29508fc146103c9578063a4c60c50146103d1578063b4bad06a146103e457600080fd5b80637917b7941461033a5780637a9e5e4b146103655780637d40583d146103785780638da5cb5b1461038b57600080fd5b80632f47571f1161018757806342f1e8791161015657806342f1e879146102f957806367aff4841461030157806370f7d6ae146103145780637875b9451461032757600080fd5b80632f47571f1461028d57806332c9c4d8146102cb5780633300183c146102de5780633c068975146102e657600080fd5b806313af4035116101c357806313af40351461024c57806313e27f8b1461025f57806316d8887a1461027257806319883fc11461027a57600080fd5b806306a36aee146101ea5780630c2264451461021d5780630e7b949e14610232575b600080fd5b61020a6101f83660046118f6565b60026020526000908152604090205481565b6040519081526020015b60405180910390f35b61023061022b3660046118f6565b6104e2565b005b61023a600281565b60405160ff9091168152602001610214565b61023061025a3660046118f6565b61052b565b61023061026d3660046118f6565b6105a8565b61023a600381565b6102306102883660046118f6565b6105e5565b6102bb61029b366004611937565b600360209081526000928352604080842090915290825290205460ff1681565b6040519015158152602001610214565b6102306102d93660046118f6565b610622565b61023a600481565b6102306102f43660046118f6565b610769565b61023a600081565b61023061030f36600461198b565b6107a6565b6102306103223660046118f6565b61087b565b6102306103353660046118f6565b610a5c565b61020a610348366004611937565b600460209081526000928352604080842090915290825290205481565b6102306103733660046118f6565b610b6e565b6102306103863660046119d4565b610c58565b60005461039e906001600160a01b031681565b6040516001600160a01b039091168152602001610214565b6102bb6103c4366004611937565b610d63565b61023a600181565b6102306103df3660046118f6565b610d99565b6102bb6103f2366004611a2c565b6001600160a01b039190911660009081526004602090815260408083206001600160e01b031990941683529290522054600160ff929092161c16151590565b6102bb61043f366004611a71565b610ed1565b60015461039e906001600160a01b031681565b6102306104653660046118f6565b610f50565b610230610478366004611a91565b611083565b61023061048b3660046118f6565b611124565b610230611161565b6102bb6104a6366004611abf565b6001600160a01b0391909116600090815260026020526040902054600160ff9092161c16151590565b6102bb6104dd366004611937565b611213565b6104f8336000356001600160e01b0319166112cc565b61051d5760405162461bcd60e51b815260040161051490611aeb565b60405180910390fd5b610528816001611375565b50565b610541336000356001600160e01b0319166112cc565b61055d5760405162461bcd60e51b815260040161051490611aeb565b600080546001600160a01b0319166001600160a01b0383169081178255604051909133917f8292fce18fa69edf4db7b94ea2e58241df0ae57f97e0a6c9b29067028bf92d769190a350565b6105be336000356001600160e01b0319166112cc565b6105da5760405162461bcd60e51b815260040161051490611aeb565b610528816001611497565b6105fb336000356001600160e01b0319166112cc565b6106175760405162461bcd60e51b815260040161051490611aeb565b6105288160016115cb565b610638336000356001600160e01b0319166112cc565b6106545760405162461bcd60e51b815260040161051490611aeb565b6000816001600160a01b031663b0772d0b6040518163ffffffff1660e01b8152600401600060405180830381865afa158015610694573d6000803e3d6000fd5b505050506040513d6000823e601f3d908101601f191682016040526106bc9190810190611b32565b905060005b8151811015610764576106f68282815181106106df576106df611bf7565b602002602001015163f5e3c46260e01b6000611083565b610724600383838151811061070d5761070d611bf7565b602002602001015163f5e3c46260e01b6001610c58565b610752600383838151811061073b5761073b611bf7565b602002602001015163db006a7560e01b6001610c58565b8061075c81611c23565b9150506106c1565b505050565b61077f336000356001600160e01b0319166112cc565b61079b5760405162461bcd60e51b815260040161051490611aeb565b610528816000611497565b6107bc336000356001600160e01b0319166112cc565b6107d85760405162461bcd60e51b815260040161051490611aeb565b8015610807576001600160a01b03831660009081526002602052604090208054600160ff85161b17905561082d565b6001600160a01b03831660009081526002602052604090208054600160ff85161b191690555b8160ff16836001600160a01b03167f4c9bdd0c8e073eb5eda2250b18d8e5121ff27b62064fbeeeed4869bb99bc5bf28360405161086e911515815260200190565b60405180910390a3505050565b610891336000356001600160e01b0319166112cc565b6108ad5760405162461bcd60e51b815260040161051490611aeb565b6108c2600482631853304760e31b6001610c58565b6108d7600482630ede4edd60e41b6001610c58565b6000816001600160a01b031663b0772d0b6040518163ffffffff1660e01b8152600401600060405180830381865afa158015610917573d6000803e3d6000fd5b505050506040513d6000823e601f3d908101601f1916820160405261093f9190810190611b32565b905060005b81518110156107645761097b600483838151811061096457610964611bf7565b602002602001015163a0712d6860e01b6001610c58565b610992600483838151811061073b5761073b611bf7565b6109c060048383815181106109a9576109a9611bf7565b602002602001015163852a12e360e01b6001610c58565b6109ee60048383815181106109d7576109d7611bf7565b602002602001015163c5ebeaec60e01b6001610c58565b610a1c6004838381518110610a0557610a05611bf7565b6020026020010151630e75270260e01b6001610c58565b610a4a6004838381518110610a3357610a33611bf7565b6020026020010151633c3b4b8960e01b6001610c58565b80610a5481611c23565b915050610944565b610a72336000356001600160e01b0319166112cc565b610a8e5760405162461bcd60e51b815260040161051490611aeb565b6000816001600160a01b031663b0772d0b6040518163ffffffff1660e01b8152600401600060405180830381865afa158015610ace573d6000803e3d6000fd5b505050506040513d6000823e601f3d908101601f19168201604052610af69190810190611b32565b905060005b815181101561076457610b30828281518110610b1957610b19611bf7565b602002602001015163f5e3c46260e01b6001611083565b610b5c828281518110610b4557610b45611bf7565b602002602001015163db006a7560e01b6001611083565b80610b6681611c23565b915050610afb565b6000546001600160a01b0316331480610c03575060015460405163b700961360e01b81526001600160a01b039091169063b700961390610bc290339030906001600160e01b03196000351690600401611c3e565b602060405180830381865afa158015610bdf573d6000803e3d6000fd5b505050506040513d601f19601f82011682018060405250810190610c039190611c6b565b610c0c57600080fd5b600180546001600160a01b0319166001600160a01b03831690811790915560405133907fa3396fd7f6e0a21b50e5089d2da70d5ac0a3bbbd1f617a93f134b7638998019890600090a350565b610c6e336000356001600160e01b0319166112cc565b610c8a5760405162461bcd60e51b815260040161051490611aeb565b8015610cce576001600160a01b03831660009081526004602090815260408083206001600160e01b03198616845290915290208054600160ff87161b179055610d09565b6001600160a01b03831660009081526004602090815260408083206001600160e01b03198616845290915290208054600160ff87161b191690555b816001600160e01b031916836001600160a01b03168560ff167fa52ea92e6e955aa8ac66420b86350f7139959adfcc7e6a14eee1bd116d09860e84604051610d55911515815260200190565b60405180910390a450505050565b60006001600160e01b0319821663073a938160e11b1415610d8657506001610d93565b610d908383611213565b90505b92915050565b610daf336000356001600160e01b0319166112cc565b610dcb5760405162461bcd60e51b815260040161051490611aeb565b610dd6816002611375565b6000816001600160a01b031663b0772d0b6040518163ffffffff1660e01b8152600401600060405180830381865afa158015610e16573d6000803e3d6000fd5b505050506040513d6000823e601f3d908101601f19168201604052610e3e9190810190611b32565b905060005b815181101561076457610e6360028383815181106109d7576109d7611bf7565b610e7a6002838381518110610a0557610a05611bf7565b610ea86002838381518110610e9157610e91611bf7565b6020026020010151632608f81860e01b6001610c58565b610ebf6002838381518110610a3357610a33611bf7565b80610ec981611c23565b915050610e43565b6001600160a01b03821660009081526003602090815260408083206001600160e01b03198516845290915281205460ff1680610f4857506001600160a01b0380841660009081526004602090815260408083206001600160e01b031987168452825280832054938816835260029091529020541615155b949350505050565b600554610100900460ff1615808015610f705750600554600160ff909116105b80610f8a5750303b158015610f8a575060055460ff166001145b610fed5760405162461bcd60e51b815260206004820152602e60248201527f496e697469616c697a61626c653a20636f6e747261637420697320616c72656160448201526d191e481a5b9a5d1a585b1a5e995960921b6064820152608401610514565b6005805460ff191660011790558015611010576005805461ff0019166101001790555b600080546001600160a01b0384166001600160a01b0319918216179091556001805490911630179055801561107f576005805461ff0019169055604051600181527f7f26b83ff96e1f2b6a682f133852f6798a09c465da95921460cefb38474024989060200160405180910390a15b5050565b611099336000356001600160e01b0319166112cc565b6110b55760405162461bcd60e51b815260040161051490611aeb565b6001600160a01b03831660008181526003602090815260408083206001600160e01b0319871680855290835292819020805460ff191686151590811790915590519081529192917f950a343f5d10445e82a71036d3f4fb3016180a25805141932543b83e2078a93e910161086e565b61113a336000356001600160e01b0319166112cc565b6111565760405162461bcd60e51b815260040161051490611aeb565b6105288160006115cb565b611177336000356001600160e01b0319166112cc565b6111935760405162461bcd60e51b815260040161051490611aeb565b6111a860003063e347416d60e01b6001610c58565b6111bd600030630c22644560e01b6001610c58565b6111d2600030630a4c60c560e41b6001610c58565b6111e7600030630659389b60e31b6001610c58565b6111fc600030637875b94560e01b6001610c58565b61121160003063387beb5760e11b6001610c58565b565b60006001600160e01b03198216631853304760e31b141561123657506001610d93565b6001600160e01b03198216630ede4edd60e41b141561125757506001610d93565b60006112616116e1565b905060005b81518110156112c15781818151811061128157611281611bf7565b60200260200101516001600160e01b031916846001600160e01b03191614156112af57600192505050610d93565b806112b981611c23565b915050611266565b506000949350505050565b6001546000906001600160a01b03168015801590611356575060405163b700961360e01b81526001600160a01b0382169063b70096139061131590879030908890600401611c3e565b602060405180830381865afa158015611332573d6000803e3d6000fd5b505050506040513d601f19601f820116820180604052508101906113569190611c6b565b80610f4857506000546001600160a01b03858116911614949350505050565b6113898183631853304760e31b6001610c58565b61139d8183630ede4edd60e41b6001610c58565b6000826001600160a01b031663b0772d0b6040518163ffffffff1660e01b8152600401600060405180830381865afa1580156113dd573d6000803e3d6000fd5b505050506040513d6000823e601f3d908101601f191682016040526114059190810190611b32565b905060005b815181101561149157600061141d6116e1565b905060005b815181101561147c5761146a8585858151811061144157611441611bf7565b602002602001015184848151811061145b5761145b611bf7565b60200260200101516001610c58565b8061147481611c23565b915050611422565b5050808061148990611c23565b91505061140a565b50505050565b6000826001600160a01b031663b0772d0b6040518163ffffffff1660e01b8152600401600060405180830381865afa1580156114d7573d6000803e3d6000fd5b505050506040513d6000823e601f3d908101601f191682016040526114ff9190810190611b32565b905060005b81518110156114915761153882828151811061152257611522611bf7565b602002602001015163c5ebeaec60e01b85611083565b61156382828151811061154d5761154d611bf7565b6020026020010151630e75270260e01b85611083565b61158e82828151811061157857611578611bf7565b6020026020010151632608f81860e01b85611083565b6115b98282815181106115a3576115a3611bf7565b6020026020010151633c3b4b8960e01b85611083565b806115c381611c23565b915050611504565b6115dd82631853304760e31b83611083565b6115ef82630ede4edd60e41b83611083565b6000826001600160a01b031663b0772d0b6040518163ffffffff1660e01b8152600401600060405180830381865afa15801561162f573d6000803e3d6000fd5b505050506040513d6000823e601f3d908101601f191682016040526116579190810190611b32565b905060005b815181101561149157600061166f6116e1565b905060005b81518110156116cc576116ba84848151811061169257611692611bf7565b60200260200101518383815181106116ac576116ac611bf7565b602002602001015187611083565b806116c481611c23565b915050611674565b505080806116d990611c23565b91505061165c565b60408051600680825260e0820190925260609190816020820160c08036833701905050915063140e25ad60e31b8261171883611c88565b92508260ff168151811061172e5761172e611bf7565b6001600160e01b03199092166020928302919091019091015263db006a7560e01b8261175983611c88565b92508260ff168151811061176f5761176f611bf7565b6001600160e01b03199092166020928302919091019091015263852a12e360e01b8261179a83611c88565b92508260ff16815181106117b0576117b0611bf7565b6001600160e01b03199092166020928302919091019091015263a9059cbb60e01b826117db83611c88565b92508260ff16815181106117f1576117f1611bf7565b6001600160e01b0319909216602092830291909101909101526323b872dd60e01b8261181c83611c88565b92508260ff168151811061183257611832611bf7565b6001600160e01b03199092166020928302919091019091015263095ea7b360e01b8261185d83611c88565b92508260ff168151811061187357611873611bf7565b6001600160e01b03199092166020928302919091019091015260ff8116156118dd5760405162461bcd60e51b815260206004820152601c60248201527f7573652074686520636f7272656374206172726179206c656e677468000000006044820152606401610514565b5090565b6001600160a01b038116811461052857600080fd5b60006020828403121561190857600080fd5b8135611913816118e1565b9392505050565b80356001600160e01b03198116811461193257600080fd5b919050565b6000806040838503121561194a57600080fd5b8235611955816118e1565b91506119636020840161191a565b90509250929050565b803560ff8116811461193257600080fd5b801515811461052857600080fd5b6000806000606084860312156119a057600080fd5b83356119ab816118e1565b92506119b96020850161196c565b915060408401356119c98161197d565b809150509250925092565b600080600080608085870312156119ea57600080fd5b6119f38561196c565b93506020850135611a03816118e1565b9250611a116040860161191a565b91506060850135611a218161197d565b939692955090935050565b600080600060608486031215611a4157600080fd5b611a4a8461196c565b92506020840135611a5a816118e1565b9150611a686040850161191a565b90509250925092565b600080600060608486031215611a8657600080fd5b8335611a4a816118e1565b600080600060608486031215611aa657600080fd5b8335611ab1816118e1565b92506119b96020850161191a565b60008060408385031215611ad257600080fd5b8235611add816118e1565b91506119636020840161196c565b6020808252600c908201526b15539055551213d49256915160a21b604082015260600190565b634e487b7160e01b600052604160045260246000fd5b8051611932816118e1565b60006020808385031215611b4557600080fd5b825167ffffffffffffffff80821115611b5d57600080fd5b818501915085601f830112611b7157600080fd5b815181811115611b8357611b83611b11565b8060051b604051601f19603f83011681018181108582111715611ba857611ba8611b11565b604052918252848201925083810185019188831115611bc657600080fd5b938501935b82851015611beb57611bdc85611b27565b84529385019392850192611bcb565b98975050505050505050565b634e487b7160e01b600052603260045260246000fd5b634e487b7160e01b600052601160045260246000fd5b6000600019821415611c3757611c37611c0d565b5060010190565b6001600160a01b0393841681529190921660208201526001600160e01b0319909116604082015260600190565b600060208284031215611c7d57600080fd5b81516119138161197d565b600060ff821680611c9b57611c9b611c0d565b600019019291505056fea164736f6c634300080a000aa164736f6c634300080a000a",
    "linkReferences": {}
  },
  "methodIdentifiers": {
    "_acceptOwner()": "fc4d33f9",
    "_setPendingOwner(address)": "6e96dfd7",
    "canCall(address,address,address,bytes4)": "df595cb8",
    "createPoolAuthority(address)": "a1a82b56",
    "initialize(address)": "c4d66de8",
    "leveredPositionsFactory()": "95f14b16",
    "owner()": "8da5cb5b",
    "pendingOwner()": "e30c3978",
    "poolAuthLogic()": "54927fb8",
    "poolsAuthorities(address)": "ec2ffdd1",
    "reconfigureAuthority(address)": "5a89ef51",
    "reinitialize(address)": "f7e7d1fd",
    "renounceOwnership()": "715018a6",
    "setUserRole(address,address,uint8,bool)": "ca224d98",
    "transferOwnership(address)": "f2fde38b"
  }
}