{
  "address": "0x08Edf98B956Ab8B90CBE56077A49830316E6b2E8",
  "abi": [
    {
      "anonymous": false,
      "inputs": [
        {
          "indexed": false,
          "internalType": "uint256",
          "name": "cashPrior",
          "type": "uint256"
        },
        {
          "indexed": false,
          "internalType": "uint256",
          "name": "interestAccumulated",
          "type": "uint256"
        },
        {
          "indexed": false,
          "internalType": "uint256",
          "name": "borrowIndex",
          "type": "uint256"
        },
        {
          "indexed": false,
          "internalType": "uint256",
          "name": "totalBorrows",
          "type": "uint256"
        }
      ],
      "name": "AccrueInterest",
      "type": "event"
    },
    {
      "anonymous": false,
      "inputs": [
        {
          "indexed": true,
          "internalType": "address",
          "name": "owner",
          "type": "address"
        },
        {
          "indexed": true,
          "internalType": "address",
          "name": "spender",
          "type": "address"
        },
        {
          "indexed": false,
          "internalType": "uint256",
          "name": "amount",
          "type": "uint256"
        }
      ],
      "name": "Approval",
      "type": "event"
    },
    {
      "anonymous": false,
      "inputs": [
        {
          "indexed": false,
          "internalType": "address",
          "name": "borrower",
          "type": "address"
        },
        {
          "indexed": false,
          "internalType": "uint256",
          "name": "borrowAmount",
          "type": "uint256"
        },
        {
          "indexed": false,
          "internalType": "uint256",
          "name": "accountBorrows",
          "type": "uint256"
        },
        {
          "indexed": false,
          "internalType": "uint256",
          "name": "totalBorrows",
          "type": "uint256"
        }
      ],
      "name": "Borrow",
      "type": "event"
    },
    {
      "anonymous": false,
      "inputs": [
        {
          "indexed": false,
          "internalType": "uint256",
          "name": "error",
          "type": "uint256"
        },
        {
          "indexed": false,
          "internalType": "uint256",
          "name": "info",
          "type": "uint256"
        },
        {
          "indexed": false,
          "internalType": "uint256",
          "name": "detail",
          "type": "uint256"
        }
      ],
      "name": "Failure",
      "type": "event"
    },
    {
      "anonymous": false,
      "inputs": [
        {
          "indexed": false,
          "internalType": "address",
          "name": "liquidator",
          "type": "address"
        },
        {
          "indexed": false,
          "internalType": "address",
          "name": "borrower",
          "type": "address"
        },
        {
          "indexed": false,
          "internalType": "uint256",
          "name": "repayAmount",
          "type": "uint256"
        },
        {
          "indexed": false,
          "internalType": "address",
          "name": "cTokenCollateral",
          "type": "address"
        },
        {
          "indexed": false,
          "internalType": "uint256",
          "name": "seizeTokens",
          "type": "uint256"
        }
      ],
      "name": "LiquidateBorrow",
      "type": "event"
    },
    {
      "anonymous": false,
      "inputs": [
        {
          "indexed": false,
          "internalType": "address",
          "name": "minter",
          "type": "address"
        },
        {
          "indexed": false,
          "internalType": "uint256",
          "name": "mintAmount",
          "type": "uint256"
        },
        {
          "indexed": false,
          "internalType": "uint256",
          "name": "mintTokens",
          "type": "uint256"
        }
      ],
      "name": "Mint",
      "type": "event"
    },
    {
      "anonymous": false,
      "inputs": [
        {
          "indexed": false,
          "internalType": "uint256",
          "name": "oldAdminFeeMantissa",
          "type": "uint256"
        },
        {
          "indexed": false,
          "internalType": "uint256",
          "name": "newAdminFeeMantissa",
          "type": "uint256"
        }
      ],
      "name": "NewAdminFee",
      "type": "event"
    },
    {
      "anonymous": false,
      "inputs": [
        {
          "indexed": false,
          "internalType": "contract ComptrollerInterface",
          "name": "oldComptroller",
          "type": "address"
        },
        {
          "indexed": false,
          "internalType": "contract ComptrollerInterface",
          "name": "newComptroller",
          "type": "address"
        }
      ],
      "name": "NewComptroller",
      "type": "event"
    },
    {
      "anonymous": false,
      "inputs": [
        {
          "indexed": false,
          "internalType": "uint256",
          "name": "oldFuseFeeMantissa",
          "type": "uint256"
        },
        {
          "indexed": false,
          "internalType": "uint256",
          "name": "newFuseFeeMantissa",
          "type": "uint256"
        }
      ],
      "name": "NewFuseFee",
      "type": "event"
    },
    {
      "anonymous": false,
      "inputs": [
        {
          "indexed": false,
          "internalType": "address",
          "name": "oldImplementation",
          "type": "address"
        },
        {
          "indexed": false,
          "internalType": "address",
          "name": "newImplementation",
          "type": "address"
        }
      ],
      "name": "NewImplementation",
      "type": "event"
    },
    {
      "anonymous": false,
      "inputs": [
        {
          "indexed": false,
          "internalType": "contract InterestRateModel",
          "name": "oldInterestRateModel",
          "type": "address"
        },
        {
          "indexed": false,
          "internalType": "contract InterestRateModel",
          "name": "newInterestRateModel",
          "type": "address"
        }
      ],
      "name": "NewMarketInterestRateModel",
      "type": "event"
    },
    {
      "anonymous": false,
      "inputs": [
        {
          "indexed": false,
          "internalType": "address",
          "name": "oldImpl",
          "type": "address"
        },
        {
          "indexed": false,
          "internalType": "address",
          "name": "newImpl",
          "type": "address"
        }
      ],
      "name": "NewPluginImplementation",
      "type": "event"
    },
    {
      "anonymous": false,
      "inputs": [
        {
          "indexed": false,
          "internalType": "uint256",
          "name": "oldReserveFactorMantissa",
          "type": "uint256"
        },
        {
          "indexed": false,
          "internalType": "uint256",
          "name": "newReserveFactorMantissa",
          "type": "uint256"
        }
      ],
      "name": "NewReserveFactor",
      "type": "event"
    },
    {
      "anonymous": false,
      "inputs": [
        {
          "indexed": false,
          "internalType": "address",
          "name": "redeemer",
          "type": "address"
        },
        {
          "indexed": false,
          "internalType": "uint256",
          "name": "redeemAmount",
          "type": "uint256"
        },
        {
          "indexed": false,
          "internalType": "uint256",
          "name": "redeemTokens",
          "type": "uint256"
        }
      ],
      "name": "Redeem",
      "type": "event"
    },
    {
      "anonymous": false,
      "inputs": [
        {
          "indexed": false,
          "internalType": "address",
          "name": "payer",
          "type": "address"
        },
        {
          "indexed": false,
          "internalType": "address",
          "name": "borrower",
          "type": "address"
        },
        {
          "indexed": false,
          "internalType": "uint256",
          "name": "repayAmount",
          "type": "uint256"
        },
        {
          "indexed": false,
          "internalType": "uint256",
          "name": "accountBorrows",
          "type": "uint256"
        },
        {
          "indexed": false,
          "internalType": "uint256",
          "name": "totalBorrows",
          "type": "uint256"
        }
      ],
      "name": "RepayBorrow",
      "type": "event"
    },
    {
      "anonymous": false,
      "inputs": [
        {
          "indexed": false,
          "internalType": "address",
          "name": "benefactor",
          "type": "address"
        },
        {
          "indexed": false,
          "internalType": "uint256",
          "name": "addAmount",
          "type": "uint256"
        },
        {
          "indexed": false,
          "internalType": "uint256",
          "name": "newTotalReserves",
          "type": "uint256"
        }
      ],
      "name": "ReservesAdded",
      "type": "event"
    },
    {
      "anonymous": false,
      "inputs": [
        {
          "indexed": false,
          "internalType": "address",
          "name": "admin",
          "type": "address"
        },
        {
          "indexed": false,
          "internalType": "uint256",
          "name": "reduceAmount",
          "type": "uint256"
        },
        {
          "indexed": false,
          "internalType": "uint256",
          "name": "newTotalReserves",
          "type": "uint256"
        }
      ],
      "name": "ReservesReduced",
      "type": "event"
    },
    {
      "anonymous": false,
      "inputs": [
        {
          "indexed": true,
          "internalType": "address",
          "name": "from",
          "type": "address"
        },
        {
          "indexed": true,
          "internalType": "address",
          "name": "to",
          "type": "address"
        },
        {
          "indexed": false,
          "internalType": "uint256",
          "name": "amount",
          "type": "uint256"
        }
      ],
      "name": "Transfer",
      "type": "event"
    },
    {
      "inputs": [],
      "name": "PRECISION",
      "outputs": [
        {
          "internalType": "uint256",
          "name": "",
          "type": "uint256"
        }
      ],
      "stateMutability": "view",
      "type": "function"
    },
    {
      "inputs": [
        {
          "internalType": "bytes",
          "name": "data",
          "type": "bytes"
        }
      ],
      "name": "_becomeImplementation",
      "outputs": [],
      "stateMutability": "nonpayable",
      "type": "function"
    },
    {
      "inputs": [],
      "name": "_prepare",
      "outputs": [],
      "stateMutability": "payable",
      "type": "function"
    },
    {
      "inputs": [
        {
          "internalType": "uint256",
          "name": "newAdminFeeMantissa",
          "type": "uint256"
        }
      ],
      "name": "_setAdminFee",
      "outputs": [
        {
          "internalType": "uint256",
          "name": "",
          "type": "uint256"
        }
      ],
      "stateMutability": "nonpayable",
      "type": "function"
    },
    {
      "inputs": [
        {
          "internalType": "address",
          "name": "implementation_",
          "type": "address"
        },
        {
          "internalType": "bool",
          "name": "allowResign",
          "type": "bool"
        },
        {
          "internalType": "bytes",
          "name": "becomeImplementationData",
          "type": "bytes"
        }
      ],
      "name": "_setImplementationSafe",
      "outputs": [],
      "stateMutability": "nonpayable",
      "type": "function"
    },
    {
      "inputs": [
        {
          "internalType": "contract InterestRateModel",
          "name": "newInterestRateModel",
          "type": "address"
        }
      ],
      "name": "_setInterestRateModel",
      "outputs": [
        {
          "internalType": "uint256",
          "name": "",
          "type": "uint256"
        }
      ],
      "stateMutability": "nonpayable",
      "type": "function"
    },
    {
      "inputs": [
        {
          "internalType": "string",
          "name": "_name",
          "type": "string"
        },
        {
          "internalType": "string",
          "name": "_symbol",
          "type": "string"
        }
      ],
      "name": "_setNameAndSymbol",
      "outputs": [],
      "stateMutability": "nonpayable",
      "type": "function"
    },
    {
      "inputs": [
        {
          "internalType": "uint256",
          "name": "newReserveFactorMantissa",
          "type": "uint256"
        }
      ],
      "name": "_setReserveFactor",
      "outputs": [
        {
          "internalType": "uint256",
          "name": "",
          "type": "uint256"
        }
      ],
      "stateMutability": "nonpayable",
      "type": "function"
    },
    {
      "inputs": [
        {
          "internalType": "address",
          "name": "_plugin",
          "type": "address"
        }
      ],
      "name": "_updatePlugin",
      "outputs": [],
      "stateMutability": "nonpayable",
      "type": "function"
    },
    {
      "inputs": [
        {
          "internalType": "uint256",
          "name": "withdrawAmount",
          "type": "uint256"
        }
      ],
      "name": "_withdrawAdminFees",
      "outputs": [
        {
          "internalType": "uint256",
          "name": "",
          "type": "uint256"
        }
      ],
      "stateMutability": "nonpayable",
      "type": "function"
    },
    {
      "inputs": [
        {
          "internalType": "uint256",
          "name": "withdrawAmount",
          "type": "uint256"
        }
      ],
      "name": "_withdrawFuseFees",
      "outputs": [
        {
          "internalType": "uint256",
          "name": "",
          "type": "uint256"
        }
      ],
      "stateMutability": "nonpayable",
      "type": "function"
    },
    {
      "inputs": [],
      "name": "accrualBlockNumber",
      "outputs": [
        {
          "internalType": "uint256",
          "name": "",
          "type": "uint256"
        }
      ],
      "stateMutability": "view",
      "type": "function"
    },
    {
      "inputs": [],
      "name": "accrueInterest",
      "outputs": [
        {
          "internalType": "uint256",
          "name": "",
          "type": "uint256"
        }
      ],
      "stateMutability": "nonpayable",
      "type": "function"
    },
    {
      "inputs": [],
      "name": "adminFeeMantissa",
      "outputs": [
        {
          "internalType": "uint256",
          "name": "",
          "type": "uint256"
        }
      ],
      "stateMutability": "view",
      "type": "function"
    },
    {
      "inputs": [
        {
          "internalType": "address",
          "name": "owner",
          "type": "address"
        },
        {
          "internalType": "address",
          "name": "spender",
          "type": "address"
        }
      ],
      "name": "allowance",
      "outputs": [
        {
          "internalType": "uint256",
          "name": "",
          "type": "uint256"
        }
      ],
      "stateMutability": "view",
      "type": "function"
    },
    {
      "inputs": [
        {
          "internalType": "address",
          "name": "spender",
          "type": "address"
        },
        {
          "internalType": "uint256",
          "name": "amount",
          "type": "uint256"
        }
      ],
      "name": "approve",
      "outputs": [
        {
          "internalType": "bool",
          "name": "",
          "type": "bool"
        }
      ],
      "stateMutability": "nonpayable",
      "type": "function"
    },
    {
      "inputs": [
        {
          "internalType": "address",
          "name": "_token",
          "type": "address"
        },
        {
          "internalType": "address",
          "name": "_spender",
          "type": "address"
        }
      ],
      "name": "approve",
      "outputs": [],
      "stateMutability": "nonpayable",
      "type": "function"
    },
    {
      "inputs": [
        {
          "internalType": "address",
          "name": "owner",
          "type": "address"
        }
      ],
      "name": "balanceOf",
      "outputs": [
        {
          "internalType": "uint256",
          "name": "",
          "type": "uint256"
        }
      ],
      "stateMutability": "view",
      "type": "function"
    },
    {
      "inputs": [
        {
          "internalType": "address",
          "name": "owner",
          "type": "address"
        }
      ],
      "name": "balanceOfUnderlying",
      "outputs": [
        {
          "internalType": "uint256",
          "name": "",
          "type": "uint256"
        }
      ],
      "stateMutability": "nonpayable",
      "type": "function"
    },
    {
      "inputs": [
        {
          "internalType": "uint256",
          "name": "borrowAmount",
          "type": "uint256"
        }
      ],
      "name": "borrow",
      "outputs": [
        {
          "internalType": "uint256",
          "name": "",
          "type": "uint256"
        }
      ],
      "stateMutability": "nonpayable",
      "type": "function"
    },
    {
      "inputs": [
        {
          "internalType": "address",
          "name": "account",
          "type": "address"
        }
      ],
      "name": "borrowBalanceCurrent",
      "outputs": [
        {
          "internalType": "uint256",
          "name": "",
          "type": "uint256"
        }
      ],
      "stateMutability": "nonpayable",
      "type": "function"
    },
    {
      "inputs": [
        {
          "internalType": "address",
          "name": "account",
          "type": "address"
        }
      ],
      "name": "borrowBalanceStored",
      "outputs": [
        {
          "internalType": "uint256",
          "name": "",
          "type": "uint256"
        }
      ],
      "stateMutability": "view",
      "type": "function"
    },
    {
      "inputs": [],
      "name": "borrowIndex",
      "outputs": [
        {
          "internalType": "uint256",
          "name": "",
          "type": "uint256"
        }
      ],
      "stateMutability": "view",
      "type": "function"
    },
    {
      "inputs": [],
      "name": "borrowRatePerBlock",
      "outputs": [
        {
          "internalType": "uint256",
          "name": "",
          "type": "uint256"
        }
      ],
      "stateMutability": "view",
      "type": "function"
    },
    {
      "inputs": [],
      "name": "claim",
      "outputs": [],
      "stateMutability": "nonpayable",
      "type": "function"
    },
    {
      "inputs": [],
      "name": "comptroller",
      "outputs": [
        {
          "internalType": "contract ComptrollerInterface",
          "name": "",
          "type": "address"
        }
      ],
      "stateMutability": "view",
      "type": "function"
    },
    {
      "inputs": [],
      "name": "decimals",
      "outputs": [
        {
          "internalType": "uint8",
          "name": "",
          "type": "uint8"
        }
      ],
      "stateMutability": "view",
      "type": "function"
    },
    {
      "inputs": [],
      "name": "exchangeRateCurrent",
      "outputs": [
        {
          "internalType": "uint256",
          "name": "",
          "type": "uint256"
        }
      ],
      "stateMutability": "nonpayable",
      "type": "function"
    },
    {
      "inputs": [],
      "name": "exchangeRateStored",
      "outputs": [
        {
          "internalType": "uint256",
          "name": "",
          "type": "uint256"
        }
      ],
      "stateMutability": "view",
      "type": "function"
    },
    {
      "inputs": [],
      "name": "feeSeizeShareMantissa",
      "outputs": [
        {
          "internalType": "uint256",
          "name": "",
          "type": "uint256"
        }
      ],
      "stateMutability": "view",
      "type": "function"
    },
    {
      "inputs": [],
      "name": "fuseAdmin",
      "outputs": [
        {
          "internalType": "address payable",
          "name": "",
          "type": "address"
        }
      ],
      "stateMutability": "view",
      "type": "function"
    },
    {
      "inputs": [],
      "name": "fuseFeeMantissa",
      "outputs": [
        {
          "internalType": "uint256",
          "name": "",
          "type": "uint256"
        }
      ],
      "stateMutability": "view",
      "type": "function"
    },
    {
      "inputs": [
        {
          "internalType": "address",
          "name": "account",
          "type": "address"
        }
      ],
      "name": "getAccountSnapshot",
      "outputs": [
        {
          "internalType": "uint256",
          "name": "",
          "type": "uint256"
        },
        {
          "internalType": "uint256",
          "name": "",
          "type": "uint256"
        },
        {
          "internalType": "uint256",
          "name": "",
          "type": "uint256"
        },
        {
          "internalType": "uint256",
          "name": "",
          "type": "uint256"
        }
      ],
      "stateMutability": "view",
      "type": "function"
    },
    {
      "inputs": [],
      "name": "getCash",
      "outputs": [
        {
          "internalType": "uint256",
          "name": "",
          "type": "uint256"
        }
      ],
      "stateMutability": "view",
      "type": "function"
    },
    {
      "inputs": [],
      "name": "implementation",
      "outputs": [
        {
          "internalType": "address",
          "name": "",
          "type": "address"
        }
      ],
      "stateMutability": "view",
      "type": "function"
    },
    {
      "inputs": [
        {
          "internalType": "address",
          "name": "underlying_",
          "type": "address"
        },
        {
          "internalType": "contract ComptrollerInterface",
          "name": "comptroller_",
          "type": "address"
        },
        {
          "internalType": "address payable",
          "name": "fuseAdmin_",
          "type": "address"
        },
        {
          "internalType": "contract InterestRateModel",
          "name": "interestRateModel_",
          "type": "address"
        },
        {
          "internalType": "string",
          "name": "name_",
          "type": "string"
        },
        {
          "internalType": "string",
          "name": "symbol_",
          "type": "string"
        },
        {
          "internalType": "uint256",
          "name": "reserveFactorMantissa_",
          "type": "uint256"
        },
        {
          "internalType": "uint256",
          "name": "adminFeeMantissa_",
          "type": "uint256"
        }
      ],
      "name": "initialize",
      "outputs": [],
      "stateMutability": "nonpayable",
      "type": "function"
    },
    {
      "inputs": [
        {
          "internalType": "contract ComptrollerInterface",
          "name": "comptroller_",
          "type": "address"
        },
        {
          "internalType": "address payable",
          "name": "fuseAdmin_",
          "type": "address"
        },
        {
          "internalType": "contract InterestRateModel",
          "name": "interestRateModel_",
          "type": "address"
        },
        {
          "internalType": "uint256",
          "name": "initialExchangeRateMantissa_",
          "type": "uint256"
        },
        {
          "internalType": "string",
          "name": "name_",
          "type": "string"
        },
        {
          "internalType": "string",
          "name": "symbol_",
          "type": "string"
        },
        {
          "internalType": "uint8",
          "name": "decimals_",
          "type": "uint8"
        },
        {
          "internalType": "uint256",
          "name": "reserveFactorMantissa_",
          "type": "uint256"
        },
        {
          "internalType": "uint256",
          "name": "adminFeeMantissa_",
          "type": "uint256"
        }
      ],
      "name": "initialize",
      "outputs": [],
      "stateMutability": "nonpayable",
      "type": "function"
    },
    {
      "inputs": [],
      "name": "interestRateModel",
      "outputs": [
        {
          "internalType": "contract InterestRateModel",
          "name": "",
          "type": "address"
        }
      ],
      "stateMutability": "view",
      "type": "function"
    },
    {
      "inputs": [],
      "name": "isCEther",
      "outputs": [
        {
          "internalType": "bool",
          "name": "",
          "type": "bool"
        }
      ],
      "stateMutability": "nonpayable",
      "type": "function"
    },
    {
      "inputs": [],
      "name": "isCToken",
      "outputs": [
        {
          "internalType": "bool",
          "name": "",
          "type": "bool"
        }
      ],
      "stateMutability": "nonpayable",
      "type": "function"
    },
    {
      "inputs": [
        {
          "internalType": "address",
          "name": "borrower",
          "type": "address"
        },
        {
          "internalType": "uint256",
          "name": "repayAmount",
          "type": "uint256"
        },
        {
          "internalType": "contract CTokenInterface",
          "name": "cTokenCollateral",
          "type": "address"
        }
      ],
      "name": "liquidateBorrow",
      "outputs": [
        {
          "internalType": "uint256",
          "name": "",
          "type": "uint256"
        }
      ],
      "stateMutability": "nonpayable",
      "type": "function"
    },
    {
      "inputs": [
        {
          "internalType": "uint256",
          "name": "mintAmount",
          "type": "uint256"
        }
      ],
      "name": "mint",
      "outputs": [
        {
          "internalType": "uint256",
          "name": "",
          "type": "uint256"
        }
      ],
      "stateMutability": "nonpayable",
      "type": "function"
    },
    {
      "inputs": [],
      "name": "name",
      "outputs": [
        {
          "internalType": "string",
          "name": "",
          "type": "string"
        }
      ],
      "stateMutability": "view",
      "type": "function"
    },
    {
      "inputs": [],
      "name": "plugin",
      "outputs": [
        {
          "internalType": "contract IERC4626",
          "name": "",
          "type": "address"
        }
      ],
      "stateMutability": "view",
      "type": "function"
    },
    {
      "inputs": [],
      "name": "protocolSeizeShareMantissa",
      "outputs": [
        {
          "internalType": "uint256",
          "name": "",
          "type": "uint256"
        }
      ],
      "stateMutability": "view",
      "type": "function"
    },
    {
      "inputs": [
        {
          "internalType": "uint256",
          "name": "redeemTokens",
          "type": "uint256"
        }
      ],
      "name": "redeem",
      "outputs": [
        {
          "internalType": "uint256",
          "name": "",
          "type": "uint256"
        }
      ],
      "stateMutability": "nonpayable",
      "type": "function"
    },
    {
      "inputs": [
        {
          "internalType": "uint256",
          "name": "redeemAmount",
          "type": "uint256"
        }
      ],
      "name": "redeemUnderlying",
      "outputs": [
        {
          "internalType": "uint256",
          "name": "",
          "type": "uint256"
        }
      ],
      "stateMutability": "nonpayable",
      "type": "function"
    },
    {
      "inputs": [
        {
          "internalType": "uint256",
          "name": "repayAmount",
          "type": "uint256"
        }
      ],
      "name": "repayBorrow",
      "outputs": [
        {
          "internalType": "uint256",
          "name": "",
          "type": "uint256"
        }
      ],
      "stateMutability": "nonpayable",
      "type": "function"
    },
    {
      "inputs": [
        {
          "internalType": "address",
          "name": "borrower",
          "type": "address"
        },
        {
          "internalType": "uint256",
          "name": "repayAmount",
          "type": "uint256"
        }
      ],
      "name": "repayBorrowBehalf",
      "outputs": [
        {
          "internalType": "uint256",
          "name": "",
          "type": "uint256"
        }
      ],
      "stateMutability": "nonpayable",
      "type": "function"
    },
    {
      "inputs": [],
      "name": "reserveFactorMantissa",
      "outputs": [
        {
          "internalType": "uint256",
          "name": "",
          "type": "uint256"
        }
      ],
      "stateMutability": "view",
      "type": "function"
    },
    {
      "inputs": [
        {
          "internalType": "address",
          "name": "liquidator",
          "type": "address"
        },
        {
          "internalType": "address",
          "name": "borrower",
          "type": "address"
        },
        {
          "internalType": "uint256",
          "name": "seizeTokens",
          "type": "uint256"
        }
      ],
      "name": "seize",
      "outputs": [
        {
          "internalType": "uint256",
          "name": "",
          "type": "uint256"
        }
      ],
      "stateMutability": "nonpayable",
      "type": "function"
    },
    {
      "inputs": [],
      "name": "supplyRatePerBlock",
      "outputs": [
        {
          "internalType": "uint256",
          "name": "",
          "type": "uint256"
        }
      ],
      "stateMutability": "view",
      "type": "function"
    },
    {
      "inputs": [],
      "name": "symbol",
      "outputs": [
        {
          "internalType": "string",
          "name": "",
          "type": "string"
        }
      ],
      "stateMutability": "view",
      "type": "function"
    },
    {
      "inputs": [],
      "name": "totalAdminFees",
      "outputs": [
        {
          "internalType": "uint256",
          "name": "",
          "type": "uint256"
        }
      ],
      "stateMutability": "view",
      "type": "function"
    },
    {
      "inputs": [],
      "name": "totalBorrows",
      "outputs": [
        {
          "internalType": "uint256",
          "name": "",
          "type": "uint256"
        }
      ],
      "stateMutability": "view",
      "type": "function"
    },
    {
      "inputs": [],
      "name": "totalBorrowsCurrent",
      "outputs": [
        {
          "internalType": "uint256",
          "name": "",
          "type": "uint256"
        }
      ],
      "stateMutability": "nonpayable",
      "type": "function"
    },
    {
      "inputs": [],
      "name": "totalFuseFees",
      "outputs": [
        {
          "internalType": "uint256",
          "name": "",
          "type": "uint256"
        }
      ],
      "stateMutability": "view",
      "type": "function"
    },
    {
      "inputs": [],
      "name": "totalReserves",
      "outputs": [
        {
          "internalType": "uint256",
          "name": "",
          "type": "uint256"
        }
      ],
      "stateMutability": "view",
      "type": "function"
    },
    {
      "inputs": [],
      "name": "totalSupply",
      "outputs": [
        {
          "internalType": "uint256",
          "name": "",
          "type": "uint256"
        }
      ],
      "stateMutability": "view",
      "type": "function"
    },
    {
      "inputs": [
        {
          "internalType": "address",
          "name": "dst",
          "type": "address"
        },
        {
          "internalType": "uint256",
          "name": "amount",
          "type": "uint256"
        }
      ],
      "name": "transfer",
      "outputs": [
        {
          "internalType": "bool",
          "name": "",
          "type": "bool"
        }
      ],
      "stateMutability": "nonpayable",
      "type": "function"
    },
    {
      "inputs": [
        {
          "internalType": "address",
          "name": "src",
          "type": "address"
        },
        {
          "internalType": "address",
          "name": "dst",
          "type": "address"
        },
        {
          "internalType": "uint256",
          "name": "amount",
          "type": "uint256"
        }
      ],
      "name": "transferFrom",
      "outputs": [
        {
          "internalType": "bool",
          "name": "",
          "type": "bool"
        }
      ],
      "stateMutability": "nonpayable",
      "type": "function"
    },
    {
      "inputs": [],
      "name": "underlying",
      "outputs": [
        {
          "internalType": "address",
          "name": "",
          "type": "address"
        }
      ],
      "stateMutability": "view",
      "type": "function"
    }
  ],
  "transactionHash": "0xef54b334245419a9404604c4e149dfcb5d39439b50b2f89dc603c8cef41b4e44",
  "args": [],
  "numDeployments": 1,
  "bytecode": {
    "object": "0x608060405234801561001057600080fd5b50615fcd80620000216000396000f3fe6080604052600436106102bd5760003560e01c806306db3ecd146102c257806306fdde03146102e4578063095ea7b31461030f5780630e7527021461033f57806315761d511461036d578063173b99041461039a57806317bfdfbc146103b057806318160ddd146103d0578063182df0f5146103e657806319f496c8146103fb5780631db789441461041b578063219ef65c1461042357806323b872dd146104435780632608f81814610463578063313ce5671461048357806334154d4c146104af5780633af9e669146104cf5780633b1d21a2146104ef57806347bd3718146105045780634e71d92d1461051a57806350d85b731461052957806356e67728146105495780635c60da1b146105695780635fe3b5671461058957806361feacff146105a95780636752e702146105bf5780636c540baf146105da5780636f307dc3146105f057806370a082311461061057806373acee98146106465780637e5465ba1461065b578063852a12e31461067b5780638d02d9a11461069b5780638f840ddd146106b157806391dd36c6146106c757806395d89b41146106e757806395dd9193146106fc578063a03dce8d1461071c578063a0712d681461073c578063a6afed951461075c578063a7b820df14610771578063a9059cbb14610791578063aa5af0fd146107b1578063aaf5eb68146107c7578063ac784ddc146107e3578063ae9d70b0146107f7578063b2a02ff11461080c578063bd6d894d1461082c578063be99f11914610841578063c37f68e21461085d578063c5ebeaec1461088d578063db006a75146108ad578063dbfe7c19146108cd578063dc028ab1146108e3578063dd62ed3e146108f9578063ef01df4f1461093f578063f2b3abbd1461095f578063f3fdb15a1461097f578063f5e3c4621461099f578063f8f9da28146109bf578063fca7820b146109d4578063fe9c44ae146109f4575b600080fd5b3480156102ce57600080fd5b506102e26102dd3660046156f3565b610a08565b005b3480156102f057600080fd5b506102f9610b16565b604051610306919061580c565b60405180910390f35b34801561031b57600080fd5b5061032f61032a36600461581f565b610ba4565b6040519015158152602001610306565b34801561034b57600080fd5b5061035f61035a36600461584b565b610c14565b604051908152602001610306565b34801561037957600080fd5b5060015461038d906001600160a01b031681565b6040516103069190615864565b3480156103a657600080fd5b5061035f600b5481565b3480156103bc57600080fd5b5061035f6103cb366004615878565b610c28565b3480156103dc57600080fd5b5061035f60125481565b3480156103f257600080fd5b5061035f610c7f565b34801561040757600080fd5b506102e2610416366004615878565b610d10565b6102e261113f565b34801561042f57600080fd5b506102e261043e3660046158af565b611275565b34801561044f57600080fd5b5061032f61045e366004615976565b61159c565b34801561046f57600080fd5b5061035f61047e36600461581f565b6115c2565b34801561048f57600080fd5b5060055461049d9060ff1681565b60405160ff9091168152602001610306565b3480156104bb57600080fd5b506102e26104ca3660046159f8565b6115d8565b3480156104db57600080fd5b5061035f6104ea366004615878565b61163f565b3480156104fb57600080fd5b5061035f6116ef565b34801561051057600080fd5b5061035f600e5481565b34801561052657600080fd5b50005b34801561053557600080fd5b506102e2610544366004615a71565b6116fe565b34801561055557600080fd5b506102e2610564366004615ac9565b61177e565b34801561057557600080fd5b5060005461038d906001600160a01b031681565b34801561059557600080fd5b5060065461038d906001600160a01b031681565b3480156105b557600080fd5b5061035f60105481565b3480156105cb57600080fd5b5061035f666379da05b6000081565b3480156105e657600080fd5b5061035f600c5481565b3480156105fc57600080fd5b5060165461038d906001600160a01b031681565b34801561061c57600080fd5b5061035f61062b366004615878565b6001600160a01b031660009081526013602052604090205490565b34801561065257600080fd5b5061035f6118e5565b34801561066757600080fd5b506102e2610676366004615b11565b611914565b34801561068757600080fd5b5061035f61069636600461584b565b611a07565b3480156106a757600080fd5b5061035f60095481565b3480156106bd57600080fd5b5061035f600f5481565b3480156106d357600080fd5b5061035f6106e236600461584b565b611a12565b3480156106f357600080fd5b506102f9611a69565b34801561070857600080fd5b5061035f610717366004615878565b611a76565b34801561072857600080fd5b5061035f61073736600461584b565b611b11565b34801561074857600080fd5b5061035f61075736600461584b565b611b54565b34801561076857600080fd5b5061035f611b60565b34801561077d57600080fd5b5061035f61078c36600461584b565b611d08565b34801561079d57600080fd5b5061032f6107ac36600461581f565b611d4b565b3480156107bd57600080fd5b5061035f600d5481565b3480156107d357600080fd5b5061035f670de0b6b3a764000081565b3480156107ef57600080fd5b50600061032f565b34801561080357600080fd5b5061035f611d78565b34801561081857600080fd5b5061035f610827366004615976565b611e28565b34801561083857600080fd5b5061035f611e4c565b34801561084d57600080fd5b5061035f67016345785d8a000081565b34801561086957600080fd5b5061087d610878366004615878565b611e7c565b6040516103069493929190615b4a565b34801561089957600080fd5b5061035f6108a836600461584b565b611f1d565b3480156108b957600080fd5b5061035f6108c836600461584b565b611f28565b3480156108d957600080fd5b5061035f600a5481565b3480156108ef57600080fd5b5061035f60115481565b34801561090557600080fd5b5061035f610914366004615b11565b6001600160a01b03918216600090815260146020908152604080832093909416825291909152205490565b34801561094b57600080fd5b5060175461038d906001600160a01b031681565b34801561096b57600080fd5b5061035f61097a366004615878565b611f33565b34801561098b57600080fd5b5060075461038d906001600160a01b031681565b3480156109ab57600080fd5b5061035f6109ba366004615b65565b611f6b565b3480156109cb57600080fd5b5061035f611f83565b3480156109e057600080fd5b5061035f6109ef36600461584b565b611fd4565b348015610a0057600080fd5b50600161032f565b60006702c68af0bb14000090506000896001600160a01b031663313ce5676040518163ffffffff1660e01b8152600401602060405180830381865afa158015610a55573d6000803e3d6000fd5b505050506040513d601f19601f82011682018060405250810190610a799190615ba7565b9050610a8c898989858a8a878b8b611275565b601680546001600160a01b0319166001600160a01b038c16908117909155604080516318160ddd60e01b815290516318160ddd916004808201926020929091908290030181865afa158015610ae5573d6000803e3d6000fd5b505050506040513d601f19601f82011682018060405250810190610b099190615bc4565b5050505050505050505050565b60038054610b2390615bdd565b80601f0160208091040260200160405190810160405280929190818152602001828054610b4f90615bdd565b8015610b9c5780601f10610b7157610100808354040283529160200191610b9c565b820191906000526020600020905b815481529060010190602001808311610b7f57829003601f168201915b505050505081565b3360008181526014602090815260408083206001600160a01b03871680855292528083208590555191929182907f8c5be1e5ebec7d5bd14f71427d1e84f3dd0314c0f7b2291e5b200ac8c7c3b92590610c009087815260200190565b60405180910390a360019150505b92915050565b600080610c2083612017565b509392505050565b600080610c348161207f565b6000610c3e611b60565b14610c645760405162461bcd60e51b8152600401610c5b90615c28565b60405180910390fd5b610c6d83611a76565b91505b610c7981612143565b50919050565b6000806000610c8c6121c2565b90925090506000826003811115610ca557610ca5615c12565b14610c0e5760405162461bcd60e51b815260206004820152603560248201527f65786368616e67655261746553746f7265643a2065786368616e67655261746560448201527414dd1bdc9959125b9d195c9b985b0819985a5b1959605a1b6064820152608401610c5b565b33301480610d215750610d21612281565b610d815760405162461bcd60e51b815260206004820152602b60248201527f6f6e6c792073656c6620616e642061646d696e732063616e2063616c6c205f7560448201526a383230ba32a8363ab3b4b760a91b6064820152608401610c5b565b6017546000906001600160a01b0316610d9a5781610da7565b6017546001600160a01b03165b600154604051637583efcf60e01b81529192506001600160a01b031690637583efcf90610dda9084908690600401615c58565b602060405180830381865afa158015610df7573d6000803e3d6000fd5b505050506040513d601f19601f82011682018060405250810190610e1b9190615c72565b610e755760405162461bcd60e51b815260206004820152602560248201527f706c7567696e20696d706c656d656e746174696f6e206e6f742077686974656c6044820152641a5cdd195960da1b6064820152608401610c5b565b6017546001600160a01b031615801590610efe57506017546040516370a0823160e01b81526001600160a01b03909116906370a0823190610eba903090600401615864565b602060405180830381865afa158015610ed7573d6000803e3d6000fd5b505050506040513d601f19601f82011682018060405250810190610efb9190615bc4565b15155b15610fe1576017546040516370a0823160e01b81526001600160a01b039091169063ba0876529082906370a0823190610f3b903090600401615864565b602060405180830381865afa158015610f58573d6000803e3d6000fd5b505050506040513d601f19601f82011682018060405250810190610f7c9190615bc4565b30306040518463ffffffff1660e01b8152600401610f9c93929190615c8f565b6020604051808303816000875af1158015610fbb573d6000803e3d6000fd5b505050506040513d601f19601f82011682018060405250810190610fdf9190615bc4565b505b601780546001600160a01b0319166001600160a01b038481169190911790915560165460405163095ea7b360e01b815291169063095ea7b39061102c90859060001990600401615cae565b6020604051808303816000875af115801561104b573d6000803e3d6000fd5b505050506040513d601f19601f8201168201806040525081019061106f9190615c72565b506016546040516370a0823160e01b81526000916001600160a01b0316906370a08231906110a1903090600401615864565b602060405180830381865afa1580156110be573d6000803e3d6000fd5b505050506040513d601f19601f820116820180604052508101906110e29190615bc4565b905080156110f3576110f3816123ec565b6017546040517fb32957d2794aaec3ea2c8852833af2192fe9fb518777de1f883e9e821781da7591611132916001600160a01b03909116908690615c58565b60405180910390a1505050565b3330148015906111c15750600660009054906101000a90046001600160a01b03166001600160a01b031663dd5cd22c6040518163ffffffff1660e01b8152600401602060405180830381865afa15801561119d573d6000803e3d6000fd5b505050506040513d601f19601f820116820180604052508101906111c19190615c72565b1561127357600154600080546040516345cc970560e01b81529192839283926001600160a01b03928316926345cc9705926112029290911690600401615864565b600060405180830381865afa15801561121f573d6000803e3d6000fd5b505050506040513d6000823e601f3d908101601f191682016040526112479190810190615cc7565b60005492955090935091506001600160a01b0380851691161461126f5761126f838383612461565b5050505b565b336001600160a01b038916146112df5760405162461bcd60e51b815260206004820152602960248201527f6f6e6c7920467573652061646d696e206d617920696e697469616c697a6520746044820152681a19481b585c9ad95d60ba1b6064820152608401610c5b565b600c541580156112ef5750600d54155b6113475760405162461bcd60e51b815260206004820152602360248201527f6d61726b6574206d6179206f6e6c7920626520696e697469616c697a6564206f6044820152626e636560e81b6064820152608401610c5b565b600180546001600160a01b0319166001600160a01b038a161790556008869055856113cd5760405162461bcd60e51b815260206004820152603060248201527f696e697469616c2065786368616e67652072617465206d75737420626520677260448201526f32b0ba32b9103a3430b7103d32b9379760811b6064820152608401610c5b565b60006113d88a6125f5565b905080156114255760405162461bcd60e51b815260206004820152601a6024820152791cd95d1d1a5b99c818dbdb5c1d1c9bdb1b195c8819985a5b195960321b6044820152606401610c5b565b43600c55670de0b6b3a7640000600d5561143e886126e9565b905080156114995760405162461bcd60e51b815260206004820152602260248201527f73657474696e6720696e7465726573742072617465206d6f64656c206661696c604482015261195960f21b6064820152608401610c5b565b85516114ac9060039060208901906154a5565b5084516114c09060049060208801906154a5565b506005805460ff191660ff86161790556114d9836127fc565b905080156115295760405162461bcd60e51b815260206004820152601d60248201527f73657474696e67207265736572766520666163746f72206661696c65640000006044820152606401610c5b565b6115328261289b565b9050801561157d5760405162461bcd60e51b81526020600482015260186024820152771cd95d1d1a5b99c818591b5a5b881999594819985a5b195960421b6044820152606401610c5b565b50506002805460ff60b01b1916600160b01b1790555050505050505050565b6000806115a88161207f565b60006115b6338787876129b5565b149150610c2081612143565b6000806115cf8484612c48565b50949350505050565b6115e0612281565b61161f5760405162461bcd60e51b815260206004820152601060248201526f31b0b63632b9103737ba1030b236b4b760811b6044820152606401610c5b565b61162b60038585615529565b5061163860048383615529565b5050505050565b6000806040518060200160405280611655611e4c565b90526001600160a01b038416600090815260136020526040812054919250908190611681908490612cb2565b9092509050600082600381111561169a5761169a615c12565b146116e75760405162461bcd60e51b815260206004820152601f60248201527f62616c616e636520636f756c64206e6f742062652063616c63756c61746564006044820152606401610c5b565b949350505050565b60006116f9612d05565b905090565b611706612281565b6117225760405162461bcd60e51b8152600401610c5b90615d66565b6000546001600160a01b0385811691161461177857611778848484848080601f01602080910402602001604051908101604052809392919081815260200183838082843760009201919091525061246192505050565b50505050565b3330148061178f575061178f612281565b6117f75760405162461bcd60e51b815260206004820152603360248201527f6f6e6c792073656c6620616e642061646d696e732063616e2063616c6c205f6260448201527232b1b7b6b2a4b6b83632b6b2b73a30ba34b7b760691b6064820152608401610c5b565b60008180602001905181019061180d9190615d86565b90506001600160a01b03811615801561183057506017546001600160a01b031615155b156118ad576001546017546040516381218ea960e01b81526001600160a01b03928316926381218ea99261186992911690600401615864565b602060405180830381865afa158015611886573d6000803e3d6000fd5b505050506040513d601f19601f820116820180604052508101906118aa9190615d86565b90505b6001600160a01b038116158015906118d357506017546001600160a01b03828116911614155b156118e1576118e181610d10565b5050565b6000806118f0611b60565b1461190d5760405162461bcd60e51b8152600401610c5b90615c28565b50600e5490565b61191c612281565b6119385760405162461bcd60e51b8152600401610c5b90615d66565b6016546001600160a01b0383811691161480159061196457506017546001600160a01b03838116911614155b6119945760405162461bcd60e51b81526020600482015260016024820152602160f81b6044820152606401610c5b565b60405163095ea7b360e01b81526001600160a01b0383169063095ea7b3906119c490849060001990600401615cae565b6020604051808303816000875af11580156119e3573d6000803e3d6000fd5b505050506040513d601f19601f8201168201806040525081019061126f9190615c72565b6000610c0e82612d9d565b600080611a1e8161207f565b6000611a28611b60565b90508015611a5457611a4c816011811115611a4557611a45615c12565b6052612de3565b925050610c70565b611a5d8461289b565b925050610c7981612143565b60048054610b2390615bdd565b6000806000611a8484612e43565b90925090506000826003811115611a9d57611a9d615c12565b14611b0a5760405162461bcd60e51b815260206004820152603760248201527f626f72726f7742616c616e636553746f7265643a20626f72726f7742616c616e60448201527618d954dd1bdc9959125b9d195c9b985b0819985a5b1959604a1b6064820152608401610c5b565b9392505050565b600080611b1d8161207f565b6000611b27611b60565b90508015611b4b57611a4c816011811115611b4457611b44615c12565b6033612de3565b611a5d84612efc565b600080610c2083612f6f565b600c546000904390811415611b785760005b91505090565b6000611b82612d05565b90506000600760009054906101000a90046001600160a01b03166001600160a01b03166315f2405383600e54611bc7600f54611bc2601054601154612fb5565b612fb5565b6040518463ffffffff1660e01b8152600401611be593929190615da3565b602060405180830381865afa158015611c02573d6000803e3d6000fd5b505050506040513d601f19601f82011682018060405250810190611c269190615bc4565b905065048c27395000811115611c7d5760405162461bcd60e51b815260206004820152601c60248201527b0c4dee4e4deee40e4c2e8ca40d2e640c2c4e6eae4c8d8f240d0d2ced60231b6044820152606401610c5b565b600080611c8c85600c54612feb565b90925090506000826003811115611ca557611ca5615c12565b14611cf25760405162461bcd60e51b815260206004820152601f60248201527f636f756c64206e6f742063616c63756c61746520626c6f636b2064656c7461006044820152606401610c5b565b611cfe85858584613016565b9550505050505090565b600080611d148161207f565b6000611d1e611b60565b90508015611d4257611a4c816011811115611d3b57611d3b615c12565b6037612de3565b611a5d84613138565b600080611d578161207f565b6000611d65333387876129b5565b149150611d7181612143565b5092915050565b6007546000906001600160a01b031663b8168816611d94612d05565b600e54611dab600f54611bc2601054601154612fb5565b600954600a54600b54611dbe9190615dcf565b611dc89190615dcf565b6040518563ffffffff1660e01b8152600401611de79493929190615b4a565b602060405180830381865afa158015611e04573d6000803e3d6000fd5b505050506040513d601f19601f820116820180604052508101906116f99190615bc4565b60006001611e358161207f565b611e4133868686613216565b9150610c2081612143565b600080611e57611b60565b14611e745760405162461bcd60e51b8152600401610c5b90615c28565b6116f9610c7f565b6001600160a01b038116600090815260136020526040812054819081908190818080611ea789612e43565b935090506000816003811115611ebf57611ebf615c12565b14611edd5760095b6000806000975097509750975050505050611f16565b611ee56121c2565b925090506000816003811115611efd57611efd615c12565b14611f09576009611ec7565b5060009650919450925090505b9193509193565b6000610c0e826136fd565b6000610c0e82613741565b600080611f3e611b60565b90508015611f6257611b0a816011811115611f5b57611f5b615c12565b604b612de3565b611b0a836126e9565b600080611f79858585613780565b5095945050505050565b6007546000906001600160a01b03166315f24053611f9f612d05565b600e54611fb6600f54611bc2601054601154612fb5565b6040518463ffffffff1660e01b8152600401611de793929190615da3565b600080611fe08161207f565b6000611fea611b60565b9050801561200e57611a4c81601181111561200757612007615c12565b6059612de3565b611a5d846127fc565b60008060006120258161207f565b600061202f611b60565b9050801561205f5761205381601181111561204c5761204c615c12565b6041612de3565b60009350935050612070565b61206a333387613874565b93509350505b61207981612143565b50915091565b600254600160b01b900460ff166120c55760405162461bcd60e51b815260206004820152600a6024820152691c994b595b9d195c995960b21b6044820152606401610c5b565b8061213357600660009054906101000a90046001600160a01b03166001600160a01b031663c90c20b16040518163ffffffff1660e01b8152600401600060405180830381600087803b15801561211a57600080fd5b505af115801561212e573d6000803e3d6000fd5b505050505b506002805460ff60b01b19169055565b6002805460ff60b01b1916600160b01b179055806121bf57600660009054906101000a90046001600160a01b03166001600160a01b031663632e51426040518163ffffffff1660e01b8152600401600060405180830381600087803b1580156121ab57600080fd5b505af1158015611638573d6000803e3d6000fd5b50565b6012546000908190806121dc575050600854600092909150565b60006121e6612d05565b905060006121f261559d565b600061221484600e5461220f600f54611bc2601054601154612fb5565b613c7d565b93509050600081600381111561222c5761222c615c12565b1461223e579660009650945050505050565b6122488386613ccf565b92509050600081600381111561226057612260615c12565b14612272579660009650945050505050565b50516000969095509350505050565b600654604080516303e1469160e61b815290516000926001600160a01b031691829163f851a440916004808201926020929091908290030181865afa1580156122ce573d6000803e3d6000fd5b505050506040513d601f19601f820116820180604052508101906122f29190615d86565b6001600160a01b0316336001600160a01b031614801561236f5750806001600160a01b0316630a755ec26040518163ffffffff1660e01b8152600401602060405180830381865afa15801561234b573d6000803e3d6000fd5b505050506040513d601f19601f8201168201806040525081019061236f9190615c72565b80611b7257506001546001600160a01b031633148015611b725750806001600160a01b0316632f1069ba6040518163ffffffff1660e01b8152600401602060405180830381865afa1580156123c8573d6000803e3d6000fd5b505050506040513d601f19601f82011682018060405250810190611b729190615c72565b601754604051636e553f6560e01b8152600481018390523060248201526001600160a01b0390911690636e553f65906044016020604051808303816000875af115801561243d573d6000803e3d6000fd5b505050506040513d601f19601f820116820180604052508101906118e19190615bc4565b6001546000546040516338e6a07360e11b81526001600160a01b039182166004820152858216602482015284151560448201529116906371cd40e690606401602060405180830381865afa1580156124bd573d6000803e3d6000fd5b505050506040513d601f19601f820116820180604052508101906124e19190615c72565b6125155760405162461bcd60e51b8152602060048201526005602482015264085a5b5c1b60da1b6044820152606401610c5b565b600080546001600160a01b038581166001600160a01b031983161790925516303b612548576125438261177e565b6125aa565b6125a8308360405160240161255d919061580c565b60408051601f19818403018152918152602080830180516001600160e01b0316630adccee560e31b17905281518083019092526007825266216265636f6d6560c81b90820152613d8c565b505b6000546040517fd604de94d45953f9138079ec1b82d533cb2160c906d1076d1f7ed54befbca97a916125e79184916001600160a01b031690615c58565b60405180910390a150505050565b600080600660009054906101000a90046001600160a01b03169050826001600160a01b0316627e3dd26040518163ffffffff1660e01b8152600401602060405180830381865afa15801561264d573d6000803e3d6000fd5b505050506040513d601f19601f820116820180604052508101906126719190615c72565b61268d5760405162461bcd60e51b8152600401610c5b90615de7565b600680546001600160a01b0319166001600160a01b0385161790556040517f7ac369dbd14fa5ea3f473ed67cc9d598964a77501540ba6751eb0b3decf5870d906126da9083908690615c58565b60405180910390a16000611b0a565b6000806126f4612281565b61270457611b0a6001604d612de3565b43600c541461271957611b0a600a604c612de3565b600760009054906101000a90046001600160a01b03169050826001600160a01b0316632191f92a6040518163ffffffff1660e01b8152600401602060405180830381865afa15801561276f573d6000803e3d6000fd5b505050506040513d601f19601f820116820180604052508101906127939190615c72565b6127af5760405162461bcd60e51b8152600401610c5b90615de7565b600780546001600160a01b0319166001600160a01b0385161790556040517fedffc32e068c7c95dfd4bdfd5c4d939a084d6b11c4199eac8436ed234d72f926906126da9083908690615c58565b6000612806612281565b61281657610c0e6001605a612de3565b43600c541461282b57610c0e600a605b612de3565b670de0b6b3a764000061284b61284384600954612fb5565b600a54612fb5565b111561285d57610c0e6002605c612de3565b600b80549083905560408051828152602081018590527faaa68312e2ea9d50e16af5068410ab56e1a1fd06037b1a35664812c30f82146091016126da565b600043600c54146128b257610c0e600a6054612de3565b6000198214156128c25760095491505b60006128cc613e28565b9050670de0b6b3a76400006128ec6128e6600b5486612fb5565b83612fb5565b11156128fe57611b0a60026055612de3565b82600954146129625761290f612281565b61291f57611b0a60016053612de3565b600980549084905560408051828152602081018690527fcdd0b588250e1398549f79cfdb8217c186688822905d6715b0834ea1c865594a910160405180910390a1505b80600a54146129ae57600a80549082905560408051828152602081018490527f92eef861b6533b7d3417f39c2ad7b460eed4e88a32fa3604f30e718b7602e7dc910160405180910390a1505b6000611b0a565b6006546040516317b9b84b60e31b815260009182916001600160a01b039091169063bdcdc258906129f0903090899089908990600401615e1d565b6020604051808303816000875af1158015612a0f573d6000803e3d6000fd5b505050506040513d601f19601f82011682018060405250810190612a339190615bc4565b90508015612a5057612a486003605d83613e72565b9150506116e7565b836001600160a01b0316856001600160a01b03161415612a7657612a486002605e612de3565b6000856001600160a01b0316876001600160a01b03161415612a9b5750600019612ac3565b506001600160a01b038086166000908152601460209081526040808320938a16835292905220545b600080600080612ad38589612feb565b90945092506000846003811115612aec57612aec615c12565b14612b0a57612afd6009605e612de3565b96505050505050506116e7565b6001600160a01b038a16600090815260136020526040902054612b2d9089612feb565b90945091506000846003811115612b4657612b46615c12565b14612b5757612afd6009605f612de3565b6001600160a01b038916600090815260136020526040902054612b7a9089613efb565b90945090506000846003811115612b9357612b93615c12565b14612ba457612afd60096060612de3565b6001600160a01b03808b16600090815260136020526040808220859055918b168152208190556000198514612bfc576001600160a01b03808b166000908152601460209081526040808320938f168352929052208390555b886001600160a01b03168a6001600160a01b0316600080516020615fa18339815191528a604051612c2f91815260200190565b60405180910390a35060009a9950505050505050505050565b6000806000612c568161207f565b6000612c60611b60565b90508015612c9057612c84816011811115612c7d57612c7d615c12565b6040612de3565b60009350935050612ca1565b612c9b338787613874565b93509350505b612caa81612143565b509250929050565b600080600080612cc28686613f21565b90925090506000826003811115612cdb57612cdb615c12565b14612cec5750915060009050612cfe565b6000612cf782613f8f565b9350935050505b9250929050565b6017546040516370a0823160e01b81526000916001600160a01b031690634cdad5069082906370a0823190612d3e903090600401615864565b602060405180830381865afa158015612d5b573d6000803e3d6000fd5b505050506040513d601f19601f82011682018060405250810190612d7f9190615bc4565b6040518263ffffffff1660e01b8152600401611de791815260200190565b600080612da98161207f565b6000612db3611b60565b90508015612dd757611a4c816011811115612dd057612dd0615c12565b602a612de3565b611a5d33600086613fa7565b6000600080516020615f81833981519152836011811115612e0657612e06615c12565b836063811115612e1857612e18615c12565b6000604051612e2993929190615da3565b60405180910390a1826011811115611b0a57611b0a615c12565b6001600160a01b038116600090815260156020526040812080548291829182918291612e785750600096879650945050505050565b612e888160000154600d546144e6565b90945092506000846003811115612ea157612ea1615c12565b14612eb457509195600095509350505050565b612ec2838260010154614525565b90945091506000846003811115612edb57612edb615c12565b14612eee57509195600095509350505050565b506000969095509350505050565b60008043600c5414612f1457611b0a600a6035612de3565b82612f1d612d05565b1015612f2f57611b0a600e6034612de3565b601154831115612f4557611b0a60026036612de3565b612f5160115484614550565b60118190556001549091506129ae906001600160a01b03168461458a565b6000806000612f7d8161207f565b6000612f87611b60565b90508015612fab57612053816011811115612fa457612fa4615c12565b6020612de3565b61206a3386614601565b6000611b0a8383604051806040016040528060118152602001706164646974696f6e206f766572666c6f7760781b8152506149c9565b60008083831161300a5760006130018486615e47565b91509150612cfe565b50600390506000612cfe565b600080613031604051806020016040528086815250846149fa565b9050600061304182600e54614a24565b9050600061305182600e54612fb5565b905060006130726040518060200160405280600b5481525084600f54614a3c565b905060006130936040518060200160405280600a5481525085601154614a3c565b905060006130b4604051806020016040528060095481525086601054614a3c565b905060006130c787600d54600d54614a3c565b600c8d9055600d819055600e869055600f859055601184905560108390556040519091507f4dec04e750ca11537cabcd8a9eab06494de08da3735bc8871cd41250e190bc049061311e908d90899085908a90615b4a565b60405180910390a160009c9b505050505050505050505050565b60008043600c541461315057611b0a600a6039612de3565b82613159612d05565b101561316b57611b0a600e6038612de3565b60105483111561318157611b0a6002603a612de3565b61318d60105484614550565b9050806010819055506129ae600660009054906101000a90046001600160a01b03166001600160a01b031663f851a4406040518163ffffffff1660e01b8152600401602060405180830381865afa1580156131ec573d6000803e3d6000fd5b505050506040513d601f19601f820116820180604052508101906132109190615d86565b8461458a565b60065460405163d02f735160e01b815260009182916001600160a01b039091169063d02f7351906132539030908a908a908a908a90600401615e5e565b6020604051808303816000875af1158015613272573d6000803e3d6000fd5b505050506040513d601f19601f820116820180604052508101906132969190615bc4565b905080156132ab57612a486003601d83613e72565b846001600160a01b0316846001600160a01b031614156132d157612a486006601e612de3565b613336604080516101808101909152806000815260200160008152602001600081526020016000815260200160008152602001600081526020016000815260200160008152602001600081526020016000815260200160008152602001600081525090565b6001600160a01b0385166000908152601360205260409020546133599085612feb565b602083018190528282600381111561337357613373615c12565b600381111561338457613384615c12565b905250600090508151600381111561339e5761339e615c12565b146133ce576133c56009601c836000015160038111156133c0576133c0615c12565b613e72565b925050506116e7565b6133ed846040518060200160405280666379da05b60000815250614a5d565b6080820152604080516020810190915267016345785d8a00008152613413908590614a5d565b61014082015260808101516134389061342d908690614550565b826101400151614550565b60608201526134456121c2565b60c083018190528282600381111561345f5761345f615c12565b600381111561347057613470615c12565b905250600090508151600381111561348a5761348a615c12565b146134d25760405162461bcd60e51b815260206004820152601860248201527732bc31b430b733b2903930ba329036b0ba341032b93937b960411b6044820152606401610c5b565b6134f260405180602001604052808360c001518152508260800151614a24565b60a0820152604080516020810190915260c082015181526101408201516135199190614a24565b610160820152600f5460a08201516135319190612fb5565b60e0820152601254608082015161354b9161342d91614550565b6101208201526011546101608201516135649190612fb5565b6101008201526001600160a01b03861660009081526013602052604090205460608201516135929190613efb565b60408301819052828260038111156135ac576135ac615c12565b60038111156135bd576135bd615c12565b90525060009050815160038111156135d7576135d7615c12565b146135f9576133c56009601b836000015160038111156133c0576133c0615c12565b60e0810151600f556101208101516012556101008101516011556020808201516001600160a01b0387811660008181526013855260408082209490945583860151928b1680825290849020929092556060850151925192835290929091600080516020615fa1833981519152910160405180910390a3306001600160a01b0316856001600160a01b0316600080516020615fa183398151915283608001516040516136a691815260200190565b60405180910390a360a081015160e08201516040517fa91e67c5ea634cd43a12c5a482724b03de01e85ca68702a53d0c2f45cb7c1dc5926136e8923092615e91565b60405180910390a16000979650505050505050565b6000806137098161207f565b6000613713611b60565b9050801561373757611a4c81601181111561373057613730615c12565b600a612de3565b611a5d3385614a80565b60008061374d8161207f565b6000613757611b60565b9050801561377457611a4c816011811115612dd057612dd0615c12565b611a5d33856000613fa7565b600080600061378e8161207f565b6000613798611b60565b905080156137c8576137bc8160118111156137b5576137b5615c12565b6011612de3565b60009350935050613862565b846001600160a01b031663a6afed956040518163ffffffff1660e01b81526004016020604051808303816000875af1158015613808573d6000803e3d6000fd5b505050506040513d601f19601f8201168201806040525081019061382c9190615bc4565b90508015613850576137bc81601181111561384957613849615c12565b6012612de3565b61385c33888888614e12565b93509350505b61386b81612143565b50935093915050565b600654604051631200453160e11b8152600091829182916001600160a01b0316906324008a62906138af9030908a908a908a90600401615e1d565b6020604051808303816000875af11580156138ce573d6000803e3d6000fd5b505050506040513d601f19601f820116820180604052508101906138f29190615bc4565b90508015613913576139076003604383613e72565b60009250925050613c75565b43600c541461392857613907600a6044612de3565b6139716040805161010081019091528060008152602001600081526020016000815260200160008152602001600081526020016000815260200160008152602001600081525090565b6001600160a01b038616600090815260156020526040902060010154606082015261399b86612e43565b60808301819052602083018260038111156139b8576139b8615c12565b60038111156139c9576139c9615c12565b90525060009050816020015160038111156139e6576139e6615c12565b14613a1557613a0860096042836020015160038111156133c0576133c0615c12565b6000935093505050613c75565b600019851415613a2e5760808101516040820152613a36565b604081018590525b613a448782604001516152bc565b60e082018190526080820151613a5991612feb565b60a0830181905260208301826003811115613a7657613a76615c12565b6003811115613a8757613a87615c12565b9052506000905081602001516003811115613aa457613aa4615c12565b14613b145760405162461bcd60e51b815260206004820152603a60248201527f52455041595f424f52524f575f4e45575f4143434f554e545f424f52524f575f604482015279109053105390d157d0d05310d55310551253d397d1905253115160321b6064820152608401610c5b565b613b24600e548260e00151612feb565b60c0830181905260208301826003811115613b4157613b41615c12565b6003811115613b5257613b52615c12565b9052506000905081602001516003811115613b6f57613b6f615c12565b14613bd65760405162461bcd60e51b815260206004820152603160248201527f52455041595f424f52524f575f4e45575f544f54414c5f42414c414e43455f43604482015270105310d55310551253d397d19052531151607a1b6064820152608401610c5b565b60a081810180516001600160a01b03898116600081815260156020908152604091829020948555600d5460019095019490945560c0870151600e81905560e088015195518251948f16855294840192909252820193909352606081019190915260808101919091527f1a2a22cb034d26d1854bdc6666a5b91fe25efbbb5dcad3b0355478d6f5c362a1910160405180910390a160e00151600093509150505b935093915050565b600080600080613c8d8787613efb565b90925090506000826003811115613ca657613ca6615c12565b14613cb75750915060009050613c75565b613cc18186612feb565b935093505050935093915050565b6000613cd961559d565b600080613cee86670de0b6b3a76400006144e6565b90925090506000826003811115613d0757613d07615c12565b14613d2657506040805160208101909152600081529092509050612cfe565b600080613d338388614525565b90925090506000826003811115613d4c57613d4c615c12565b14613d6f5781604051806020016040528060008152509550955050505050612cfe565b604080516020810190915290815260009890975095505050505050565b6060600080856001600160a01b031685604051613da99190615eb2565b6000604051808303816000865af19150503d8060008114613de6576040519150601f19603f3d011682016040523d82523d6000602084013e613deb565b606091505b509150915081613e1f57805115613e055780518082602001fd5b8360405162461bcd60e51b8152600401610c5b919061580c565b95945050505050565b6001546040805163dd86fea160e01b815290516000926001600160a01b03169163dd86fea19160048083019260209291908290030181865afa158015611e04573d6000803e3d6000fd5b6000600080516020615f81833981519152846011811115613e9557613e95615c12565b846063811115613ea757613ea7615c12565b84604051613eb793929190615da3565b60405180910390a16003846011811115613ed357613ed3615c12565b14613eef57836011811115613eea57613eea615c12565b6116e7565b6116e7826103e8615dcf565b600080838301848110613f1357600092509050612cfe565b600260009250925050612cfe565b6000613f2b61559d565b600080613f3c8660000151866144e6565b90925090506000826003811115613f5557613f55615c12565b14613f7457506040805160208101909152600081529092509050612cfe565b60408051602081019091529081526000969095509350505050565b8051600090610c0e90670de0b6b3a764000090615ece565b6000821580613fb4575081155b61401d5760405162461bcd60e51b815260206004820152603460248201527f6f6e65206f662072656465656d546f6b656e73496e206f722072656465656d416044820152736d6f756e74496e206d757374206265207a65726f60601b6064820152608401610c5b565b6140256155b0565b61402d6121c2565b604083018190526020830182600381111561404a5761404a615c12565b600381111561405b5761405b615c12565b905250600090508160200151600381111561407857614078615c12565b146140a25761409a6009602e836020015160038111156133c0576133c0615c12565b915050611b0a565b831561413b5760608101849052604080516020810182529082015181526140c99085612cb2565b60808301819052602083018260038111156140e6576140e6615c12565b60038111156140f7576140f7615c12565b905250600090508160200151600381111561411457614114615c12565b146141365761409a6009602c836020015160038111156133c0576133c0615c12565b6141cc565b6141578360405180602001604052808460400151815250615372565b606083018190526020830182600381111561417457614174615c12565b600381111561418557614185615c12565b90525060009050816020015160038111156141a2576141a2615c12565b146141c45761409a6009602d836020015160038111156133c0576133c0615c12565b608081018390525b600654606082015160405163eabe7d9160e01b81526000926001600160a01b03169163eabe7d91916142059130918b9190600401615ef0565b6020604051808303816000875af1158015614224573d6000803e3d6000fd5b505050506040513d601f19601f820116820180604052508101906142489190615bc4565b905080156142665761425d6003602b83613e72565b92505050611b0a565b43600c541461427b5761425d600a602f612de3565b61428b6012548360600151612feb565b60a08401819052602084018260038111156142a8576142a8615c12565b60038111156142b9576142b9615c12565b90525060009050826020015160038111156142d6576142d6615c12565b146142f85761425d60096031846020015160038111156133c0576133c0615c12565b6001600160a01b03861660009081526013602052604090205460608301516143209190612feb565b60c084018190526020840182600381111561433d5761433d615c12565b600381111561434e5761434e615c12565b905250600090508260200151600381111561436b5761436b615c12565b1461438d5761425d60096030846020015160038111156133c0576133c0615c12565b816080015161439a612d05565b10156143ac5761425d600e6032612de3565b60a082015160125560c08201516001600160a01b03871660009081526013602052604090205560808201516143e290879061458a565b306001600160a01b0316866001600160a01b0316600080516020615fa1833981519152846060015160405161441991815260200190565b60405180910390a3608082015160608301516040517fe5b754fb1abb7f01b499791d0b820ae3b6af3424ac1c59768edb53f4ec31a9299261445b928a92615e91565b60405180910390a1600654608083015160608401516040516351dff98960e01b81526001600160a01b03909316926351dff989926144a19230928c929190600401615f14565b600060405180830381600087803b1580156144bb57600080fd5b505af11580156144cf573d6000803e3d6000fd5b50600092506144dc915050565b9695505050505050565b600080836144f957506000905080612cfe565b838302836145078683615ece565b1461451a57600260009250925050612cfe565b600092509050612cfe565b600080826145395750600190506000612cfe565b60006145458486615ece565b915091509250929050565b6000611b0a8383604051806040016040528060158152602001747375627472616374696f6e20756e646572666c6f7760581b815250615382565b601754604051632d182be560e21b81526001600160a01b039091169063b460af94906145be90849086903090600401615c8f565b6020604051808303816000875af11580156145dd573d6000803e3d6000fd5b505050506040513d601f19601f8201168201806040525081019061126f9190615bc4565b600654604051634ef4c3e160e01b8152600091829182916001600160a01b031690634ef4c3e19061463a90309089908990600401615ef0565b6020604051808303816000875af1158015614659573d6000803e3d6000fd5b505050506040513d601f19601f8201168201806040525081019061467d9190615bc4565b9050801561469e576146926003602183613e72565b60009250925050612cfe565b43600c54146146b357614692600a6024612de3565b6146bb6155b0565b6146c36121c2565b60408301819052602083018260038111156146e0576146e0615c12565b60038111156146f1576146f1615c12565b905250600090508160200151600381111561470e5761470e615c12565b1461473d5761473060096023836020015160038111156133c0576133c0615c12565b6000935093505050612cfe565b61474786866152bc565b60c08201819052604080516020810182529083015181526147689190615372565b606083018190526020830182600381111561478557614785615c12565b600381111561479657614796615c12565b90525060009050816020015160038111156147b3576147b3615c12565b146148005760405162461bcd60e51b815260206004820181905260248201527f4d494e545f45584348414e47455f43414c43554c4154494f4e5f4641494c45446044820152606401610c5b565b60008160600151116148515760405162461bcd60e51b815260206004820152601a6024820152791352539517d6915493d7d0d513d2d15394d7d491529150d5115160321b6044820152606401610c5b565b6148616012548260600151612fb5565b60808201526001600160a01b038616600090815260136020526040902054606082015161488e9190612fb5565b60a0820181905260808201516012556001600160a01b038716600090815260136020526040908190209190915560c0820151606083015191517f4c209b5fc8ad50758f13e2e1088ba56a560dff690a1c6fef26394f4c03821c4f926148f7928a92909190615e91565b60405180910390a1856001600160a01b0316306001600160a01b0316600080516020615fa1833981519152836060015160405161493691815260200190565b60405180910390a360065460c082015160608301516040516341c728b960e01b81526001600160a01b03909316926341c728b99261497c9230928c929190600401615f14565b600060405180830381600087803b15801561499657600080fd5b505af11580156149aa573d6000803e3d6000fd5b50600092506149b7915050565b8160c001519350935050509250929050565b6000806149d68486615dcf565b905082858210156115cf5760405162461bcd60e51b8152600401610c5b919061580c565b614a0261559d565b6040518060200160405280614a1b8560000151856153b1565b90529392505050565b600080614a3184846149fa565b90506116e781613f8f565b600080614a4985856149fa565b9050613e1f614a5782613f8f565b84612fb5565b6000670de0b6b3a7640000614a768484600001516153b1565b611b0a9190615ece565b60065460405163368f515360e21b815260009182916001600160a01b039091169063da3d454c90614ab990309088908890600401615ef0565b6020604051808303816000875af1158015614ad8573d6000803e3d6000fd5b505050506040513d601f19601f82011682018060405250810190614afc9190615bc4565b90508015614b1957614b116003601083613e72565b915050610c0e565b43600c5414614b2e57614b11600a600c612de3565b6000614b38612d05565b905083811015614b5757614b4e600e600b612de3565b92505050610c0e565b614b83604080516080810190915280600081526020016000815260200160008152602001600081525090565b614b8c86612e43565b6020830181905282826003811115614ba657614ba6615c12565b6003811115614bb757614bb7615c12565b9052506000905081516003811115614bd157614bd1615c12565b14614bfc57614bf2600980836000015160038111156133c0576133c0615c12565b9350505050610c0e565b614c0a816020015186613efb565b6040830181905282826003811115614c2457614c24615c12565b6003811115614c3557614c35615c12565b9052506000905081516003811115614c4f57614c4f615c12565b14614c7157614bf26009600e836000015160038111156133c0576133c0615c12565b6006546040808301519051631de6c8a560e21b81526001600160a01b039092169163779b229491614ca791309190600401615cae565b6020604051808303816000875af1158015614cc6573d6000803e3d6000fd5b505050506040513d601f19601f82011682018060405250810190614cea9190615bc4565b92508215614cff57614bf26003601085613e72565b614d0b600e5486613efb565b6060830181905282826003811115614d2557614d25615c12565b6003811115614d3657614d36615c12565b9052506000905081516003811115614d5057614d50615c12565b14614d7257614bf26009600d836000015160038111156133c0576133c0615c12565b6040808201516001600160a01b0388166000908152601560205291909120908155600d546001909101556060810151600e55614dae868661458a565b60408082015160608084015183516001600160a01b038b168152602081018a9052938401929092528201527f13ed6866d4e1ee6da46f845c46d7e54120883d75c5ea9a2dacc1c4ca8984ab809060800160405180910390a160009695505050505050565b600654604051632fe3f38f60e11b8152600091829182916001600160a01b031690635fc7e71e90614e4f90309088908c908c908c90600401615e5e565b6020604051808303816000875af1158015614e6e573d6000803e3d6000fd5b505050506040513d601f19601f82011682018060405250810190614e929190615bc4565b90508015614eb357614ea76003601483613e72565b600092509250506152b3565b43600c5414614ec857614ea7600a6018612de3565b43846001600160a01b0316636c540baf6040518163ffffffff1660e01b8152600401602060405180830381865afa158015614f07573d6000803e3d6000fd5b505050506040513d601f19601f82011682018060405250810190614f2b9190615bc4565b14614f3c57614ea7600a6013612de3565b866001600160a01b0316866001600160a01b03161415614f6257614ea760066019612de3565b84614f7357614ea760076017612de3565b600019851415614f8957614ea760076016612de3565b600080614f97898989613874565b90925090508115614fcc57614fbe826011811115614fb757614fb7615c12565b601a612de3565b6000945094505050506152b3565b60065460405163c488847b60e01b815260009182916001600160a01b039091169063c488847b906150059030908c908890600401615ef0565b6040805180830381865afa158015615021573d6000803e3d6000fd5b505050506040513d601f19601f820116820180604052508101906150459190615f3d565b909250905081156150b45760405162461bcd60e51b815260206004820152603360248201527f4c49515549444154455f434f4d5054524f4c4c45525f43414c43554c4154455f604482015272105353d5539517d4d152569157d19052531151606a1b6064820152608401610c5b565b6040516370a0823160e01b815281906001600160a01b038a16906370a08231906150e2908e90600401615864565b602060405180830381865afa1580156150ff573d6000803e3d6000fd5b505050506040513d601f19601f820116820180604052508101906151239190615bc4565b101561516c5760405162461bcd60e51b815260206004820152601860248201527709892a2aa928882a88abea68a92b48abea89e9ebe9aaa86960431b6044820152606401610c5b565b60006001600160a01b0389163014156151925761518b308d8d85613216565b9050615208565b60405163b2a02ff160e01b81526001600160a01b038a169063b2a02ff1906151c2908f908f908790600401615ef0565b6020604051808303816000875af11580156151e1573d6000803e3d6000fd5b505050506040513d601f19601f820116820180604052508101906152059190615bc4565b90505b801561524d5760405162461bcd60e51b81526020600482015260146024820152731d1bdad95b881cd95a5e9d5c994819985a5b195960621b6044820152606401610c5b565b604080516001600160a01b038e811682528d811660208301528183018790528b1660608201526080810184905290517f298637f684da70674f26509b10f07ec2fbc77a335ab1e7d6215a4b2484d8bb529181900360a00190a16000975092955050505050505b94509492505050565b6016546040516323b872dd60e01b81526000916001600160a01b0316906323b872dd906152f190869030908790600401615ef0565b6020604051808303816000875af1158015615310573d6000803e3d6000fd5b505050506040513d601f19601f820116820180604052508101906153349190615c72565b6153695760405162461bcd60e51b8152600401610c5b906020808252600490820152631cd95b9960e21b604082015260600190565b610c79826123ec565b600080600080612cc286866153ed565b600081848411156153a65760405162461bcd60e51b8152600401610c5b919061580c565b506116e78385615e47565b6000611b0a8383604051806040016040528060178152602001766d756c7469706c69636174696f6e206f766572666c6f7760481b815250615452565b60006153f761559d565b60008061540c670de0b6b3a7640000876144e6565b9092509050600082600381111561542557615425615c12565b1461544457506040805160208101909152600081529092509050612cfe565b612cf7818660000151613ccf565b600083158061545f575082155b1561546c57506000611b0a565b60006154788486615f61565b9050836154858683615ece565b1483906115cf5760405162461bcd60e51b8152600401610c5b919061580c565b8280546154b190615bdd565b90600052602060002090601f0160209004810192826154d35760008555615519565b82601f106154ec57805160ff1916838001178555615519565b82800160010185558215615519579182015b828111156155195782518255916020019190600101906154fe565b506155259291506155ee565b5090565b82805461553590615bdd565b90600052602060002090601f0160209004810192826155575760008555615519565b82601f106155705782800160ff19823516178555615519565b82800160010185558215615519579182015b82811115615519578235825591602001919060010190615582565b6040518060200160405280600081525090565b6040805160e0810190915280600081526020016000815260200160008152602001600081526020016000815260200160008152602001600081525090565b5b8082111561552557600081556001016155ef565b6001600160a01b03811681146121bf57600080fd5b803561562381615603565b919050565b634e487b7160e01b600052604160045260246000fd5b604051601f8201601f191681016001600160401b038111828210171561566657615666615628565b604052919050565b60006001600160401b0382111561568757615687615628565b50601f01601f191660200190565b60006156a86156a38461566e565b61563e565b90508281528383830111156156bc57600080fd5b828260208301376000602084830101529392505050565b600082601f8301126156e457600080fd5b611b0a83833560208501615695565b600080600080600080600080610100898b03121561571057600080fd5b883561571b81615603565b9750602089013561572b81615603565b9650604089013561573b81615603565b9550606089013561574b81615603565b945060808901356001600160401b038082111561576757600080fd5b6157738c838d016156d3565b955060a08b013591508082111561578957600080fd5b506157968b828c016156d3565b93505060c0890135915060e089013590509295985092959890939650565b60005b838110156157cf5781810151838201526020016157b7565b838111156117785750506000910152565b600081518084526157f88160208601602086016157b4565b601f01601f19169290920160200192915050565b602081526000611b0a60208301846157e0565b6000806040838503121561583257600080fd5b823561583d81615603565b946020939093013593505050565b60006020828403121561585d57600080fd5b5035919050565b6001600160a01b0391909116815260200190565b60006020828403121561588a57600080fd5b8135611b0a81615603565b60ff811681146121bf57600080fd5b803561562381615895565b60008060008060008060008060006101208a8c0312156158ce57600080fd5b89356158d981615603565b985060208a01356158e981615603565b97506158f760408b01615618565b965060608a0135955060808a01356001600160401b038082111561591a57600080fd5b6159268d838e016156d3565b965060a08c013591508082111561593c57600080fd5b506159498c828d016156d3565b94505061595860c08b016158a4565b925060e08a013591506101008a013590509295985092959850929598565b60008060006060848603121561598b57600080fd5b833561599681615603565b925060208401356159a681615603565b929592945050506040919091013590565b60008083601f8401126159c957600080fd5b5081356001600160401b038111156159e057600080fd5b602083019150836020828501011115612cfe57600080fd5b60008060008060408587031215615a0e57600080fd5b84356001600160401b0380821115615a2557600080fd5b615a31888389016159b7565b90965094506020870135915080821115615a4a57600080fd5b50615a57878288016159b7565b95989497509550505050565b80151581146121bf57600080fd5b60008060008060608587031215615a8757600080fd5b8435615a9281615603565b93506020850135615aa281615a63565b925060408501356001600160401b03811115615abd57600080fd5b615a57878288016159b7565b600060208284031215615adb57600080fd5b81356001600160401b03811115615af157600080fd5b8201601f81018413615b0257600080fd5b6116e784823560208401615695565b60008060408385031215615b2457600080fd5b8235615b2f81615603565b91506020830135615b3f81615603565b809150509250929050565b93845260208401929092526040830152606082015260800190565b600080600060608486031215615b7a57600080fd5b8335615b8581615603565b9250602084013591506040840135615b9c81615603565b809150509250925092565b600060208284031215615bb957600080fd5b8151611b0a81615895565b600060208284031215615bd657600080fd5b5051919050565b600181811c90821680615bf157607f821691505b60208210811415610c7957634e487b7160e01b600052602260045260246000fd5b634e487b7160e01b600052602160045260246000fd5b6020808252601690820152751858d8dc9d59481a5b9d195c995cdd0819985a5b195960521b604082015260600190565b6001600160a01b0392831681529116602082015260400190565b600060208284031215615c8457600080fd5b8151611b0a81615a63565b9283526001600160a01b03918216602084015216604082015260600190565b6001600160a01b03929092168252602082015260400190565b600080600060608486031215615cdc57600080fd5b8351615ce781615603565b6020850151909350615cf881615a63565b60408501519092506001600160401b03811115615d1457600080fd5b8401601f81018613615d2557600080fd5b8051615d336156a38261566e565b818152876020838501011115615d4857600080fd5b615d598260208301602086016157b4565b8093505050509250925092565b60208082526006908201526510b0b236b4b760d11b604082015260600190565b600060208284031215615d9857600080fd5b8151611b0a81615603565b9283526020830191909152604082015260600190565b634e487b7160e01b600052601160045260246000fd5b60008219821115615de257615de2615db9565b500190565b6020808252601c908201527b6d61726b6572206d6574686f642072657475726e65642066616c736560201b604082015260600190565b6001600160a01b039485168152928416602084015292166040820152606081019190915260800190565b600082821015615e5957615e59615db9565b500390565b6001600160a01b039586168152938516602085015291841660408401529092166060820152608081019190915260a00190565b6001600160a01b039390931683526020830191909152604082015260600190565b60008251615ec48184602087016157b4565b9190910192915050565b600082615eeb57634e487b7160e01b600052601260045260246000fd5b500490565b6001600160a01b039384168152919092166020820152604081019190915260600190565b6001600160a01b0394851681529290931660208301526040820152606081019190915260800190565b60008060408385031215615f5057600080fd5b505080516020909101519092909150565b6000816000190483118215151615615f7b57615f7b615db9565b50029056fe45b96fe442630264581b197e84bbada861235052c5a1aadfff9ea4e40a969aa0ddf252ad1be2c89b69c2b068fc378daa952ba7f163c4a11628f55a4df523b3efa164736f6c634300080a000a",
    "linkReferences": {}
  },
  "methodIdentifiers": {
    "PRECISION()": "aaf5eb68",
    "_becomeImplementation(bytes)": "56e67728",
    "_prepare()": "1db78944",
    "_setAdminFee(uint256)": "91dd36c6",
    "_setImplementationSafe(address,bool,bytes)": "50d85b73",
    "_setInterestRateModel(address)": "f2b3abbd",
    "_setNameAndSymbol(string,string)": "34154d4c",
    "_setReserveFactor(uint256)": "fca7820b",
    "_updatePlugin(address)": "19f496c8",
    "_withdrawAdminFees(uint256)": "a7b820df",
    "_withdrawFuseFees(uint256)": "a03dce8d",
    "accrualBlockNumber()": "6c540baf",
    "accrueInterest()": "a6afed95",
    "adminFeeMantissa()": "8d02d9a1",
    "allowance(address,address)": "dd62ed3e",
    "approve(address,address)": "7e5465ba",
    "approve(address,uint256)": "095ea7b3",
    "balanceOf(address)": "70a08231",
    "balanceOfUnderlying(address)": "3af9e669",
    "borrow(uint256)": "c5ebeaec",
    "borrowBalanceCurrent(address)": "17bfdfbc",
    "borrowBalanceStored(address)": "95dd9193",
    "borrowIndex()": "aa5af0fd",
    "borrowRatePerBlock()": "f8f9da28",
    "claim()": "4e71d92d",
    "comptroller()": "5fe3b567",
    "decimals()": "313ce567",
    "exchangeRateCurrent()": "bd6d894d",
    "exchangeRateStored()": "182df0f5",
    "feeSeizeShareMantissa()": "be99f119",
    "fuseAdmin()": "15761d51",
    "fuseFeeMantissa()": "dbfe7c19",
    "getAccountSnapshot(address)": "c37f68e2",
    "getCash()": "3b1d21a2",
    "implementation()": "5c60da1b",
    "initialize(address,address,address,address,string,string,uint256,uint256)": "06db3ecd",
    "initialize(address,address,address,uint256,string,string,uint8,uint256,uint256)": "219ef65c",
    "interestRateModel()": "f3fdb15a",
    "isCEther()": "ac784ddc",
    "isCToken()": "fe9c44ae",
    "liquidateBorrow(address,uint256,address)": "f5e3c462",
    "mint(uint256)": "a0712d68",
    "name()": "06fdde03",
    "plugin()": "ef01df4f",
    "protocolSeizeShareMantissa()": "6752e702",
    "redeem(uint256)": "db006a75",
    "redeemUnderlying(uint256)": "852a12e3",
    "repayBorrow(uint256)": "0e752702",
    "repayBorrowBehalf(address,uint256)": "2608f818",
    "reserveFactorMantissa()": "173b9904",
    "seize(address,address,uint256)": "b2a02ff1",
    "supplyRatePerBlock()": "ae9d70b0",
    "symbol()": "95d89b41",
    "totalAdminFees()": "61feacff",
    "totalBorrows()": "47bd3718",
    "totalBorrowsCurrent()": "73acee98",
    "totalFuseFees()": "dc028ab1",
    "totalReserves()": "8f840ddd",
    "totalSupply()": "18160ddd",
    "transfer(address,uint256)": "a9059cbb",
    "transferFrom(address,address,uint256)": "23b872dd",
    "underlying()": "6f307dc3"
  }
}