{
  "address": "0xB2F1734D4E49064029Db55292B71e0f39dc086E1",
  "abi": [
    {
      "inputs": [
        {
          "internalType": "bytes4",
          "name": "_functionSelector",
          "type": "bytes4"
        }
      ],
      "name": "ExtensionNotFound",
      "type": "error"
    },
    {
      "inputs": [
        {
          "internalType": "bytes4",
          "name": "_functionSelector",
          "type": "bytes4"
        },
        {
          "internalType": "address",
          "name": "_currentImpl",
          "type": "address"
        }
      ],
      "name": "FunctionAlreadyAdded",
      "type": "error"
    },
    {
      "inputs": [
        {
          "internalType": "bytes4",
          "name": "_functionSelector",
          "type": "bytes4"
        }
      ],
      "name": "FunctionNotFound",
      "type": "error"
    },
    {
      "anonymous": false,
      "inputs": [
        {
          "indexed": false,
          "internalType": "uint256",
          "name": "cashPrior",
          "type": "uint256"
        },
        {
          "indexed": false,
          "internalType": "uint256",
          "name": "interestAccumulated",
          "type": "uint256"
        },
        {
          "indexed": false,
          "internalType": "uint256",
          "name": "borrowIndex",
          "type": "uint256"
        },
        {
          "indexed": false,
          "internalType": "uint256",
          "name": "totalBorrows",
          "type": "uint256"
        }
      ],
      "name": "AccrueInterest",
      "type": "event"
    },
    {
      "anonymous": false,
      "inputs": [
        {
          "indexed": true,
          "internalType": "address",
          "name": "owner",
          "type": "address"
        },
        {
          "indexed": true,
          "internalType": "address",
          "name": "spender",
          "type": "address"
        },
        {
          "indexed": false,
          "internalType": "uint256",
          "name": "amount",
          "type": "uint256"
        }
      ],
      "name": "Approval",
      "type": "event"
    },
    {
      "anonymous": false,
      "inputs": [
        {
          "indexed": false,
          "internalType": "address",
          "name": "borrower",
          "type": "address"
        },
        {
          "indexed": false,
          "internalType": "uint256",
          "name": "borrowAmount",
          "type": "uint256"
        },
        {
          "indexed": false,
          "internalType": "uint256",
          "name": "accountBorrows",
          "type": "uint256"
        },
        {
          "indexed": false,
          "internalType": "uint256",
          "name": "totalBorrows",
          "type": "uint256"
        }
      ],
      "name": "Borrow",
      "type": "event"
    },
    {
      "anonymous": false,
      "inputs": [
        {
          "indexed": false,
          "internalType": "uint256",
          "name": "error",
          "type": "uint256"
        },
        {
          "indexed": false,
          "internalType": "uint256",
          "name": "info",
          "type": "uint256"
        },
        {
          "indexed": false,
          "internalType": "uint256",
          "name": "detail",
          "type": "uint256"
        }
      ],
      "name": "Failure",
      "type": "event"
    },
    {
      "anonymous": false,
      "inputs": [
        {
          "indexed": false,
          "internalType": "address",
          "name": "liquidator",
          "type": "address"
        },
        {
          "indexed": false,
          "internalType": "address",
          "name": "borrower",
          "type": "address"
        },
        {
          "indexed": false,
          "internalType": "uint256",
          "name": "repayAmount",
          "type": "uint256"
        },
        {
          "indexed": false,
          "internalType": "address",
          "name": "cTokenCollateral",
          "type": "address"
        },
        {
          "indexed": false,
          "internalType": "uint256",
          "name": "seizeTokens",
          "type": "uint256"
        }
      ],
      "name": "LiquidateBorrow",
      "type": "event"
    },
    {
      "anonymous": false,
      "inputs": [
        {
          "indexed": false,
          "internalType": "address",
          "name": "minter",
          "type": "address"
        },
        {
          "indexed": false,
          "internalType": "uint256",
          "name": "mintAmount",
          "type": "uint256"
        },
        {
          "indexed": false,
          "internalType": "uint256",
          "name": "mintTokens",
          "type": "uint256"
        }
      ],
      "name": "Mint",
      "type": "event"
    },
    {
      "anonymous": false,
      "inputs": [
        {
          "indexed": false,
          "internalType": "uint256",
          "name": "oldAdminFeeMantissa",
          "type": "uint256"
        },
        {
          "indexed": false,
          "internalType": "uint256",
          "name": "newAdminFeeMantissa",
          "type": "uint256"
        }
      ],
      "name": "NewAdminFee",
      "type": "event"
    },
    {
      "anonymous": false,
      "inputs": [
        {
          "indexed": false,
          "internalType": "uint256",
          "name": "oldFuseFeeMantissa",
          "type": "uint256"
        },
        {
          "indexed": false,
          "internalType": "uint256",
          "name": "newFuseFeeMantissa",
          "type": "uint256"
        }
      ],
      "name": "NewFuseFee",
      "type": "event"
    },
    {
      "anonymous": false,
      "inputs": [
        {
          "indexed": false,
          "internalType": "address",
          "name": "oldImplementation",
          "type": "address"
        },
        {
          "indexed": false,
          "internalType": "address",
          "name": "newImplementation",
          "type": "address"
        }
      ],
      "name": "NewImplementation",
      "type": "event"
    },
    {
      "anonymous": false,
      "inputs": [
        {
          "indexed": false,
          "internalType": "contract InterestRateModel",
          "name": "oldInterestRateModel",
          "type": "address"
        },
        {
          "indexed": false,
          "internalType": "contract InterestRateModel",
          "name": "newInterestRateModel",
          "type": "address"
        }
      ],
      "name": "NewMarketInterestRateModel",
      "type": "event"
    },
    {
      "anonymous": false,
      "inputs": [
        {
          "indexed": false,
          "internalType": "address",
          "name": "oldImpl",
          "type": "address"
        },
        {
          "indexed": false,
          "internalType": "address",
          "name": "newImpl",
          "type": "address"
        }
      ],
      "name": "NewPluginImplementation",
      "type": "event"
    },
    {
      "anonymous": false,
      "inputs": [
        {
          "indexed": false,
          "internalType": "uint256",
          "name": "oldReserveFactorMantissa",
          "type": "uint256"
        },
        {
          "indexed": false,
          "internalType": "uint256",
          "name": "newReserveFactorMantissa",
          "type": "uint256"
        }
      ],
      "name": "NewReserveFactor",
      "type": "event"
    },
    {
      "anonymous": false,
      "inputs": [
        {
          "indexed": false,
          "internalType": "address",
          "name": "redeemer",
          "type": "address"
        },
        {
          "indexed": false,
          "internalType": "uint256",
          "name": "redeemAmount",
          "type": "uint256"
        },
        {
          "indexed": false,
          "internalType": "uint256",
          "name": "redeemTokens",
          "type": "uint256"
        }
      ],
      "name": "Redeem",
      "type": "event"
    },
    {
      "anonymous": false,
      "inputs": [
        {
          "indexed": false,
          "internalType": "address",
          "name": "payer",
          "type": "address"
        },
        {
          "indexed": false,
          "internalType": "address",
          "name": "borrower",
          "type": "address"
        },
        {
          "indexed": false,
          "internalType": "uint256",
          "name": "repayAmount",
          "type": "uint256"
        },
        {
          "indexed": false,
          "internalType": "uint256",
          "name": "accountBorrows",
          "type": "uint256"
        },
        {
          "indexed": false,
          "internalType": "uint256",
          "name": "totalBorrows",
          "type": "uint256"
        }
      ],
      "name": "RepayBorrow",
      "type": "event"
    },
    {
      "anonymous": false,
      "inputs": [
        {
          "indexed": false,
          "internalType": "address",
          "name": "benefactor",
          "type": "address"
        },
        {
          "indexed": false,
          "internalType": "uint256",
          "name": "addAmount",
          "type": "uint256"
        },
        {
          "indexed": false,
          "internalType": "uint256",
          "name": "newTotalReserves",
          "type": "uint256"
        }
      ],
      "name": "ReservesAdded",
      "type": "event"
    },
    {
      "anonymous": false,
      "inputs": [
        {
          "indexed": false,
          "internalType": "address",
          "name": "admin",
          "type": "address"
        },
        {
          "indexed": false,
          "internalType": "uint256",
          "name": "reduceAmount",
          "type": "uint256"
        },
        {
          "indexed": false,
          "internalType": "uint256",
          "name": "newTotalReserves",
          "type": "uint256"
        }
      ],
      "name": "ReservesReduced",
      "type": "event"
    },
    {
      "anonymous": false,
      "inputs": [
        {
          "indexed": true,
          "internalType": "address",
          "name": "from",
          "type": "address"
        },
        {
          "indexed": true,
          "internalType": "address",
          "name": "to",
          "type": "address"
        },
        {
          "indexed": false,
          "internalType": "uint256",
          "name": "amount",
          "type": "uint256"
        }
      ],
      "name": "Transfer",
      "type": "event"
    },
    {
      "stateMutability": "nonpayable",
      "type": "fallback"
    },
    {
      "inputs": [
        {
          "internalType": "bytes",
          "name": "data",
          "type": "bytes"
        }
      ],
      "name": "_becomeImplementation",
      "outputs": [],
      "stateMutability": "nonpayable",
      "type": "function"
    },
    {
      "inputs": [],
      "name": "_listExtensions",
      "outputs": [
        {
          "internalType": "address[]",
          "name": "",
          "type": "address[]"
        }
      ],
      "stateMutability": "view",
      "type": "function"
    },
    {
      "inputs": [],
      "name": "_prepare",
      "outputs": [],
      "stateMutability": "payable",
      "type": "function"
    },
    {
      "inputs": [
        {
          "internalType": "contract DiamondExtension",
          "name": "extensionToAdd",
          "type": "address"
        },
        {
          "internalType": "contract DiamondExtension",
          "name": "extensionToReplace",
          "type": "address"
        }
      ],
      "name": "_registerExtension",
      "outputs": [],
      "stateMutability": "nonpayable",
      "type": "function"
    },
    {
      "inputs": [
        {
          "internalType": "address",
          "name": "implementation_",
          "type": "address"
        },
        {
          "internalType": "bool",
          "name": "allowResign",
          "type": "bool"
        },
        {
          "internalType": "bytes",
          "name": "becomeImplementationData",
          "type": "bytes"
        }
      ],
      "name": "_setImplementationSafe",
      "outputs": [],
      "stateMutability": "nonpayable",
      "type": "function"
    },
    {
      "inputs": [
        {
          "internalType": "address",
          "name": "_plugin",
          "type": "address"
        }
      ],
      "name": "_updatePlugin",
      "outputs": [],
      "stateMutability": "nonpayable",
      "type": "function"
    },
    {
      "inputs": [
        {
          "internalType": "uint256",
          "name": "withdrawAmount",
          "type": "uint256"
        }
      ],
      "name": "_withdrawAdminFees",
      "outputs": [
        {
          "internalType": "uint256",
          "name": "",
          "type": "uint256"
        }
      ],
      "stateMutability": "nonpayable",
      "type": "function"
    },
    {
      "inputs": [
        {
          "internalType": "uint256",
          "name": "withdrawAmount",
          "type": "uint256"
        }
      ],
      "name": "_withdrawFuseFees",
      "outputs": [
        {
          "internalType": "uint256",
          "name": "",
          "type": "uint256"
        }
      ],
      "stateMutability": "nonpayable",
      "type": "function"
    },
    {
      "inputs": [],
      "name": "accrualBlockNumber",
      "outputs": [
        {
          "internalType": "uint256",
          "name": "",
          "type": "uint256"
        }
      ],
      "stateMutability": "view",
      "type": "function"
    },
    {
      "inputs": [],
      "name": "adminFeeMantissa",
      "outputs": [
        {
          "internalType": "uint256",
          "name": "",
          "type": "uint256"
        }
      ],
      "stateMutability": "view",
      "type": "function"
    },
    {
      "inputs": [
        {
          "internalType": "address",
          "name": "_token",
          "type": "address"
        },
        {
          "internalType": "address",
          "name": "_spender",
          "type": "address"
        }
      ],
      "name": "approve",
      "outputs": [],
      "stateMutability": "nonpayable",
      "type": "function"
    },
    {
      "inputs": [
        {
          "internalType": "uint256",
          "name": "borrowAmount",
          "type": "uint256"
        }
      ],
      "name": "borrow",
      "outputs": [
        {
          "internalType": "uint256",
          "name": "",
          "type": "uint256"
        }
      ],
      "stateMutability": "nonpayable",
      "type": "function"
    },
    {
      "inputs": [],
      "name": "borrowIndex",
      "outputs": [
        {
          "internalType": "uint256",
          "name": "",
          "type": "uint256"
        }
      ],
      "stateMutability": "view",
      "type": "function"
    },
    {
      "inputs": [],
      "name": "claim",
      "outputs": [],
      "stateMutability": "nonpayable",
      "type": "function"
    },
    {
      "inputs": [],
      "name": "comptroller",
      "outputs": [
        {
          "internalType": "contract IComptroller",
          "name": "",
          "type": "address"
        }
      ],
      "stateMutability": "view",
      "type": "function"
    },
    {
      "inputs": [],
      "name": "contractType",
      "outputs": [
        {
          "internalType": "string",
          "name": "",
          "type": "string"
        }
      ],
      "stateMutability": "pure",
      "type": "function"
    },
    {
      "inputs": [],
      "name": "decimals",
      "outputs": [
        {
          "internalType": "uint8",
          "name": "",
          "type": "uint8"
        }
      ],
      "stateMutability": "view",
      "type": "function"
    },
    {
      "inputs": [],
      "name": "feeSeizeShareMantissa",
      "outputs": [
        {
          "internalType": "uint256",
          "name": "",
          "type": "uint256"
        }
      ],
      "stateMutability": "view",
      "type": "function"
    },
    {
      "inputs": [],
      "name": "fuseAdmin",
      "outputs": [
        {
          "internalType": "address payable",
          "name": "",
          "type": "address"
        }
      ],
      "stateMutability": "view",
      "type": "function"
    },
    {
      "inputs": [],
      "name": "fuseFeeMantissa",
      "outputs": [
        {
          "internalType": "uint256",
          "name": "",
          "type": "uint256"
        }
      ],
      "stateMutability": "view",
      "type": "function"
    },
    {
      "inputs": [],
      "name": "getCash",
      "outputs": [
        {
          "internalType": "uint256",
          "name": "",
          "type": "uint256"
        }
      ],
      "stateMutability": "view",
      "type": "function"
    },
    {
      "inputs": [],
      "name": "implementation",
      "outputs": [
        {
          "internalType": "address",
          "name": "",
          "type": "address"
        }
      ],
      "stateMutability": "view",
      "type": "function"
    },
    {
      "inputs": [
        {
          "internalType": "address",
          "name": "underlying_",
          "type": "address"
        },
        {
          "internalType": "contract IComptroller",
          "name": "comptroller_",
          "type": "address"
        },
        {
          "internalType": "address payable",
          "name": "fuseAdmin_",
          "type": "address"
        },
        {
          "internalType": "contract InterestRateModel",
          "name": "interestRateModel_",
          "type": "address"
        },
        {
          "internalType": "string",
          "name": "name_",
          "type": "string"
        },
        {
          "internalType": "string",
          "name": "symbol_",
          "type": "string"
        },
        {
          "internalType": "uint256",
          "name": "reserveFactorMantissa_",
          "type": "uint256"
        },
        {
          "internalType": "uint256",
          "name": "adminFeeMantissa_",
          "type": "uint256"
        }
      ],
      "name": "initialize",
      "outputs": [],
      "stateMutability": "nonpayable",
      "type": "function"
    },
    {
      "inputs": [
        {
          "internalType": "contract IComptroller",
          "name": "comptroller_",
          "type": "address"
        },
        {
          "internalType": "address payable",
          "name": "fuseAdmin_",
          "type": "address"
        },
        {
          "internalType": "contract InterestRateModel",
          "name": "interestRateModel_",
          "type": "address"
        },
        {
          "internalType": "uint256",
          "name": "initialExchangeRateMantissa_",
          "type": "uint256"
        },
        {
          "internalType": "string",
          "name": "name_",
          "type": "string"
        },
        {
          "internalType": "string",
          "name": "symbol_",
          "type": "string"
        },
        {
          "internalType": "uint8",
          "name": "decimals_",
          "type": "uint8"
        },
        {
          "internalType": "uint256",
          "name": "reserveFactorMantissa_",
          "type": "uint256"
        },
        {
          "internalType": "uint256",
          "name": "adminFeeMantissa_",
          "type": "uint256"
        }
      ],
      "name": "initialize",
      "outputs": [],
      "stateMutability": "nonpayable",
      "type": "function"
    },
    {
      "inputs": [],
      "name": "interestRateModel",
      "outputs": [
        {
          "internalType": "contract InterestRateModel",
          "name": "",
          "type": "address"
        }
      ],
      "stateMutability": "view",
      "type": "function"
    },
    {
      "inputs": [],
      "name": "isCEther",
      "outputs": [
        {
          "internalType": "bool",
          "name": "",
          "type": "bool"
        }
      ],
      "stateMutability": "view",
      "type": "function"
    },
    {
      "inputs": [
        {
          "internalType": "address",
          "name": "borrower",
          "type": "address"
        },
        {
          "internalType": "uint256",
          "name": "repayAmount",
          "type": "uint256"
        },
        {
          "internalType": "address",
          "name": "cTokenCollateral",
          "type": "address"
        }
      ],
      "name": "liquidateBorrow",
      "outputs": [
        {
          "internalType": "uint256",
          "name": "",
          "type": "uint256"
        }
      ],
      "stateMutability": "nonpayable",
      "type": "function"
    },
    {
      "inputs": [
        {
          "internalType": "uint256",
          "name": "mintAmount",
          "type": "uint256"
        }
      ],
      "name": "mint",
      "outputs": [
        {
          "internalType": "uint256",
          "name": "",
          "type": "uint256"
        }
      ],
      "stateMutability": "nonpayable",
      "type": "function"
    },
    {
      "inputs": [],
      "name": "name",
      "outputs": [
        {
          "internalType": "string",
          "name": "",
          "type": "string"
        }
      ],
      "stateMutability": "view",
      "type": "function"
    },
    {
      "inputs": [],
      "name": "plugin",
      "outputs": [
        {
          "internalType": "contract IERC4626",
          "name": "",
          "type": "address"
        }
      ],
      "stateMutability": "view",
      "type": "function"
    },
    {
      "inputs": [],
      "name": "protocolSeizeShareMantissa",
      "outputs": [
        {
          "internalType": "uint256",
          "name": "",
          "type": "uint256"
        }
      ],
      "stateMutability": "view",
      "type": "function"
    },
    {
      "inputs": [
        {
          "internalType": "uint256",
          "name": "redeemTokens",
          "type": "uint256"
        }
      ],
      "name": "redeem",
      "outputs": [
        {
          "internalType": "uint256",
          "name": "",
          "type": "uint256"
        }
      ],
      "stateMutability": "nonpayable",
      "type": "function"
    },
    {
      "inputs": [
        {
          "internalType": "uint256",
          "name": "redeemAmount",
          "type": "uint256"
        }
      ],
      "name": "redeemUnderlying",
      "outputs": [
        {
          "internalType": "uint256",
          "name": "",
          "type": "uint256"
        }
      ],
      "stateMutability": "nonpayable",
      "type": "function"
    },
    {
      "inputs": [
        {
          "internalType": "uint256",
          "name": "repayAmount",
          "type": "uint256"
        }
      ],
      "name": "repayBorrow",
      "outputs": [
        {
          "internalType": "uint256",
          "name": "",
          "type": "uint256"
        }
      ],
      "stateMutability": "nonpayable",
      "type": "function"
    },
    {
      "inputs": [
        {
          "internalType": "address",
          "name": "borrower",
          "type": "address"
        },
        {
          "internalType": "uint256",
          "name": "repayAmount",
          "type": "uint256"
        }
      ],
      "name": "repayBorrowBehalf",
      "outputs": [
        {
          "internalType": "uint256",
          "name": "",
          "type": "uint256"
        }
      ],
      "stateMutability": "nonpayable",
      "type": "function"
    },
    {
      "inputs": [],
      "name": "reserveFactorMantissa",
      "outputs": [
        {
          "internalType": "uint256",
          "name": "",
          "type": "uint256"
        }
      ],
      "stateMutability": "view",
      "type": "function"
    },
    {
      "inputs": [
        {
          "internalType": "address",
          "name": "liquidator",
          "type": "address"
        },
        {
          "internalType": "address",
          "name": "borrower",
          "type": "address"
        },
        {
          "internalType": "uint256",
          "name": "seizeTokens",
          "type": "uint256"
        }
      ],
      "name": "seize",
      "outputs": [
        {
          "internalType": "uint256",
          "name": "",
          "type": "uint256"
        }
      ],
      "stateMutability": "nonpayable",
      "type": "function"
    },
    {
      "inputs": [
        {
          "internalType": "address",
          "name": "from",
          "type": "address"
        },
        {
          "internalType": "uint256",
          "name": "amount",
          "type": "uint256"
        }
      ],
      "name": "selfTransferIn",
      "outputs": [
        {
          "internalType": "uint256",
          "name": "",
          "type": "uint256"
        }
      ],
      "stateMutability": "nonpayable",
      "type": "function"
    },
    {
      "inputs": [
        {
          "internalType": "address",
          "name": "to",
          "type": "address"
        },
        {
          "internalType": "uint256",
          "name": "amount",
          "type": "uint256"
        }
      ],
      "name": "selfTransferOut",
      "outputs": [],
      "stateMutability": "nonpayable",
      "type": "function"
    },
    {
      "inputs": [],
      "name": "symbol",
      "outputs": [
        {
          "internalType": "string",
          "name": "",
          "type": "string"
        }
      ],
      "stateMutability": "view",
      "type": "function"
    },
    {
      "inputs": [],
      "name": "totalAdminFees",
      "outputs": [
        {
          "internalType": "uint256",
          "name": "",
          "type": "uint256"
        }
      ],
      "stateMutability": "view",
      "type": "function"
    },
    {
      "inputs": [],
      "name": "totalBorrows",
      "outputs": [
        {
          "internalType": "uint256",
          "name": "",
          "type": "uint256"
        }
      ],
      "stateMutability": "view",
      "type": "function"
    },
    {
      "inputs": [],
      "name": "totalFuseFees",
      "outputs": [
        {
          "internalType": "uint256",
          "name": "",
          "type": "uint256"
        }
      ],
      "stateMutability": "view",
      "type": "function"
    },
    {
      "inputs": [],
      "name": "totalReserves",
      "outputs": [
        {
          "internalType": "uint256",
          "name": "",
          "type": "uint256"
        }
      ],
      "stateMutability": "view",
      "type": "function"
    },
    {
      "inputs": [],
      "name": "totalSupply",
      "outputs": [
        {
          "internalType": "uint256",
          "name": "",
          "type": "uint256"
        }
      ],
      "stateMutability": "view",
      "type": "function"
    },
    {
      "inputs": [],
      "name": "underlying",
      "outputs": [
        {
          "internalType": "address",
          "name": "",
          "type": "address"
        }
      ],
      "stateMutability": "view",
      "type": "function"
    }
  ],
  "transactionHash": "0x8263f6a18d7b9a122faacf52dbc1c831788a7e9e6ea06d3053c2bb841a314abb",
  "args": [],
  "numDeployments": 14,
  "bytecode": {
    "object": "0x608060405234801561001057600080fd5b50615a5d80620000216000396000f3fe60806040526004361061027d5760003560e01c80636c540baf1161014f578063aa5af0fd116100c1578063db006a751161007a578063db006a75146107d5578063dbfe7c19146107f5578063dc028ab11461080b578063ef01df4f14610821578063f3fdb15a14610841578063f5e3c462146108615761027d565b8063aa5af0fd146106f8578063ac784ddc1461070e578063b2a02ff114610733578063be99f11914610753578063c5ebeaec1461076f578063cb2ef6f71461078f5761027d565b80638d02d9a1116101135780638d02d9a1146106575780638f840ddd1461066d57806395d89b4114610683578063a03dce8d14610698578063a0712d68146106b8578063a7b820df146106d85761027d565b80636c540baf146105c15780636f307dc3146105d75780637e5465ba146105f7578063852a12e31461061757806389cd9855146106375761027d565b80632608f818116101f357806356e67728116101ac57806356e677281461050e5780635c60da1b1461052e5780635fe3b5671461054e57806361feacff1461056e5780636333d001146105845780636752e702146105a65761027d565b80632608f81814610468578063313ce567146104885780633b1d21a2146104b457806347bd3718146104c95780634e71d92d146104df57806350d85b73146104ee5761027d565b806315761d511161024557806315761d51146103bc578063173b9904146103f457806318160ddd1461040a57806319f496c8146104205780631db7894414610440578063219ef65c146104485761027d565b8063067db1b31461030157806306db3ecd1461032357806306fdde03146103435780630e7527021461036e578063135f13341461039c575b34801561028957600080fd5b5060006102a16000356001600160e01b031916610881565b90506001600160a01b0381166102dd57604051630a82dd7360e31b81526001600160e01b03196000351660048201526024015b60405180910390fd5b3660008037600080366000845af43d6000803e8080156102fc573d6000f35b3d6000fd5b34801561030d57600080fd5b5061032161031c36600461507c565b6108e4565b005b34801561032f57600080fd5b5061032161033e366004615185565b610929565b34801561034f57600080fd5b50610358610a37565b604051610365919061529f565b60405180910390f35b34801561037a57600080fd5b5061038e6103893660046152b2565b610ac5565b604051908152602001610365565b3480156103a857600080fd5b5061038e6103b736600461507c565b610ad9565b3480156103c857600080fd5b506001546103dc906001600160a01b031681565b6040516001600160a01b039091168152602001610365565b34801561040057600080fd5b5061038e600b5481565b34801561041657600080fd5b5061038e60125481565b34801561042c57600080fd5b5061032161043b3660046152cb565b610b25565b610321610f56565b34801561045457600080fd5b50610321610463366004615302565b611094565b34801561047457600080fd5b5061038e61048336600461507c565b6114d7565b34801561049457600080fd5b506005546104a29060ff1681565b60405160ff9091168152602001610365565b3480156104c057600080fd5b5061038e6114ed565b3480156104d557600080fd5b5061038e600e5481565b3480156104eb57600080fd5b50005b3480156104fa57600080fd5b506103216105093660046153d8565b6114fc565b34801561051a57600080fd5b5061032161052936600461546a565b611567565b34801561053a57600080fd5b506000546103dc906001600160a01b031681565b34801561055a57600080fd5b506006546103dc906001600160a01b031681565b34801561057a57600080fd5b5061038e60105481565b34801561059057600080fd5b506105996116c5565b60405161036591906154b3565b3480156105b257600080fd5b5061038e666379da05b6000081565b3480156105cd57600080fd5b5061038e600c5481565b3480156105e357600080fd5b506016546103dc906001600160a01b031681565b34801561060357600080fd5b50610321610612366004615500565b6116cf565b34801561062357600080fd5b5061038e6106323660046152b2565b6117c8565b34801561064357600080fd5b50610321610652366004615500565b6117d3565b34801561066357600080fd5b5061038e60095481565b34801561067957600080fd5b5061038e600f5481565b34801561068f57600080fd5b506103586118a7565b3480156106a457600080fd5b5061038e6106b33660046152b2565b6118b4565b3480156106c457600080fd5b5061038e6106d33660046152b2565b6119b5565b3480156106e457600080fd5b5061038e6106f33660046152b2565b6119c1565b34801561070457600080fd5b5061038e600d5481565b34801561071a57600080fd5b50610723600081565b6040519015158152602001610365565b34801561073f57600080fd5b5061038e61074e366004615539565b611b0c565b34801561075f57600080fd5b5061038e67016345785d8a000081565b34801561077b57600080fd5b5061038e61078a3660046152b2565b611b30565b34801561079b57600080fd5b5060408051808201909152601b81527f434572633230506c7567696e5265776172647344656c656761746500000000006020820152610358565b3480156107e157600080fd5b5061038e6107f03660046152b2565b611b3b565b34801561080157600080fd5b5061038e600a5481565b34801561081757600080fd5b5061038e60115481565b34801561082d57600080fd5b506017546103dc906001600160a01b031681565b34801561084d57600080fd5b506007546103dc906001600160a01b031681565b34801561086d57600080fd5b5061038e61087c36600461557a565b611b46565b6001600160e01b031981166000908152600080516020615a11833981519152602081905260408220546001600160a01b0316806108dd57604051631f3f429960e31b81526001600160e01b0319851660048201526024016102d4565b9392505050565b33301461091b5760405162461bcd60e51b815260206004820152600560248201526410b9b2b63360d91b60448201526064016102d4565b6109258282611b5e565b5050565b60006702c68af0bb14000090506000896001600160a01b031663313ce5676040518163ffffffff1660e01b8152600401602060405180830381865afa158015610976573d6000803e3d6000fd5b505050506040513d601f19601f8201168201806040525081019061099a91906155bc565b90506109ad898989858a8a878b8b611094565b601680546001600160a01b0319166001600160a01b038c16908117909155604080516318160ddd60e01b815290516318160ddd916004808201926020929091908290030181865afa158015610a06573d6000803e3d6000fd5b505050506040513d601f19601f82011682018060405250810190610a2a91906155d9565b5050505050505050505050565b60038054610a44906155f2565b80601f0160208091040260200160405190810160405280929190818152602001828054610a70906155f2565b8015610abd5780601f10610a9257610100808354040283529160200191610abd565b820191906000526020600020905b815481529060010190602001808311610aa057829003601f168201915b505050505081565b600080610ad183611bdb565b509392505050565b6000333014610b125760405162461bcd60e51b815260206004820152600560248201526410b9b2b63360d91b60448201526064016102d4565b610b1c8383611c6c565b90505b92915050565b33301480610b365750610b36611d22565b610b965760405162461bcd60e51b815260206004820152602b60248201527f6f6e6c792073656c6620616e642061646d696e732063616e2063616c6c205f7560448201526a383230ba32a8363ab3b4b760a91b60648201526084016102d4565b6017546000906001600160a01b0316610baf5781610bbc565b6017546001600160a01b03165b600154604051637583efcf60e01b81526001600160a01b0380841660048301528581166024830152929350911690637583efcf90604401602060405180830381865afa158015610c10573d6000803e3d6000fd5b505050506040513d601f19601f82011682018060405250810190610c349190615627565b610c8e5760405162461bcd60e51b815260206004820152602560248201527f706c7567696e20696d706c656d656e746174696f6e206e6f742077686974656c6044820152641a5cdd195960da1b60648201526084016102d4565b6017546001600160a01b031615801590610d1257506017546040516370a0823160e01b81523060048201526001600160a01b03909116906370a0823190602401602060405180830381865afa158015610ceb573d6000803e3d6000fd5b505050506040513d601f19601f82011682018060405250810190610d0f91906155d9565b15155b15610dfc576017546040516370a0823160e01b81523060048201526001600160a01b039091169063ba0876529082906370a0823190602401602060405180830381865afa158015610d67573d6000803e3d6000fd5b505050506040513d601f19601f82011682018060405250810190610d8b91906155d9565b6040516001600160e01b031960e084901b1681526004810191909152306024820181905260448201526064016020604051808303816000875af1158015610dd6573d6000803e3d6000fd5b505050506040513d601f19601f82011682018060405250810190610dfa91906155d9565b505b601780546001600160a01b0319166001600160a01b0384811691821790925560165460405163095ea7b360e01b8152600481019290925260001960248301529091169063095ea7b3906044016020604051808303816000875af1158015610e67573d6000803e3d6000fd5b505050506040513d601f19601f82011682018060405250810190610e8b9190615627565b506016546040516370a0823160e01b81523060048201526000916001600160a01b0316906370a0823190602401602060405180830381865afa158015610ed5573d6000803e3d6000fd5b505050506040513d601f19601f82011682018060405250810190610ef991906155d9565b90508015610f0a57610f0a81611e93565b601754604080516001600160a01b03928316815291851660208301527fb32957d2794aaec3ea2c8852833af2192fe9fb518777de1f883e9e821781da75910160405180910390a1505050565b333014801590610fd85750600660009054906101000a90046001600160a01b03166001600160a01b031663dd5cd22c6040518163ffffffff1660e01b8152600401602060405180830381865afa158015610fb4573d6000803e3d6000fd5b505050506040513d601f19601f82011682018060405250810190610fd89190615627565b1561109257600154600080546040516345cc970560e01b81526001600160a01b039182166004820152919283928392909116906345cc970590602401600060405180830381865afa158015611031573d6000803e3d6000fd5b505050506040513d6000823e601f3d908101601f191682016040526110599190810190615644565b60005492955090935091506001600160a01b0380851691161461108657611081838383611f08565b61108e565b61108e6120a6565b5050505b565b336001600160a01b038916146110bc5760405162461bcd60e51b81526004016102d4906156e4565b600c541580156110cc5750600d54155b6111075760405162461bcd60e51b815260206004820152600c60248201526b085a5b9a5d1a585b1a5e995960a21b60448201526064016102d4565b600180546001600160a01b0319166001600160a01b038a161790556008869055856111665760405162461bcd60e51b815260206004820152600f60248201526e02165786368616e6765526174653e3608c1b60448201526064016102d4565b600680546001600160a01b0319166001600160a01b038b81169190911790915543600c55670de0b6b3a7640000600d55604080516310c8fc9560e11b8152905191891691632191f92a916004808201926020929091908290030181865afa1580156111d5573d6000803e3d6000fd5b505050506040513d601f19601f820116820180604052508101906111f99190615627565b61122f5760405162461bcd60e51b8152602060048201526007602482015266216e6f7449726d60c81b60448201526064016102d4565b600780546001600160a01b0319166001600160a01b038916908117909155604080516000815260208101929092527fedffc32e068c7c95dfd4bdfd5c4d939a084d6b11c4199eac8436ed234d72f926910160405180910390a1845161129b906003906020880190614fce565b5083516112af906004906020870190614fce565b506005805460ff191660ff8516179055600a54600954670de0b6b3a764000091906112da908561571a565b6112e4919061571a565b111561131c5760405162461bcd60e51b8152602060048201526007602482015266085c998e9cd95d60ca1b60448201526064016102d4565b600b8290556040805160008152602081018490527faaa68312e2ea9d50e16af5068410ab56e1a1fd06037b1a35664812c30f821460910160405180910390a160001981141561136a57506009545b6001546040805163dd86fea160e01b815290516000926001600160a01b03169163dd86fea19160048083019260209291908290030181865afa1580156113b4573d6000803e3d6000fd5b505050506040513d601f19601f820116820180604052508101906113d891906155d9565b9050670de0b6b3a76400008183600b546113f2919061571a565b6113fc919061571a565b111561143a5760405162461bcd60e51b815260206004820152600d60248201526c0858591b5a5b9199594e9cd95d609a1b60448201526064016102d4565b60098290556040805160008152602081018490527fcdd0b588250e1398549f79cfdb8217c186688822905d6715b0834ea1c865594a910160405180910390a1600a8190556040805160008152602081018390527f92eef861b6533b7d3417f39c2ad7b460eed4e88a32fa3604f30e718b7602e7dc910160405180910390a150506002805460ff60b01b1916600160b01b1790555050505050505050565b6000806114e48484612217565b50949350505050565b60006114f76122aa565b905090565b611504611d22565b6115205760405162461bcd60e51b81526004016102d4906156e4565b611561848484848080601f016020809104026020016040519081016040528093929190818152602001838380828437600092019190915250611f0892505050565b50505050565b333014806115785750611578611d22565b6115e05760405162461bcd60e51b815260206004820152603360248201527f6f6e6c792073656c6620616e642061646d696e732063616e2063616c6c205f6260448201527232b1b7b6b2a4b6b83632b6b2b73a30ba34b7b760691b60648201526084016102d4565b6000818060200190518101906115f69190615732565b90506001600160a01b03811615801561161957506017546001600160a01b031615155b15611691576001546017546040516381218ea960e01b81526001600160a01b0391821660048201529116906381218ea990602401602060405180830381865afa15801561166a573d6000803e3d6000fd5b505050506040513d601f19601f8201168201806040525081019061168e9190615732565b90505b6001600160a01b038116158015906116b757506017546001600160a01b03828116911614155b156109255761092581610b25565b60606114f761237e565b6116d7611d22565b6116f35760405162461bcd60e51b81526004016102d4906156e4565b6016546001600160a01b0383811691161480159061171f57506017546001600160a01b03838116911614155b6117545760405162461bcd60e51b815260206004820152600660248201526510ba37b5b2b760d11b60448201526064016102d4565b60405163095ea7b360e01b81526001600160a01b038281166004830152600019602483015283169063095ea7b3906044016020604051808303816000875af11580156117a4573d6000803e3d6000fd5b505050506040513d601f19601f8201168201806040525081019061108e9190615627565b6000610b1f826123f0565b6006546001546001600160a01b039182169116331480156118515750806001600160a01b0316632f1069ba6040518163ffffffff1660e01b8152600401602060405180830381865afa15801561182d573d6000803e3d6000fd5b505050506040513d601f19601f820116820180604052508101906118519190615627565b61189d5760405162461bcd60e51b815260206004820152601f60248201527f21756e617574686f72697a6564202d206e6f2061646d696e207269676874730060448201526064016102d4565b61108e838361246d565b60048054610a44906155f2565b6000806118c08161248e565b306001600160a01b031663a6afed956040518163ffffffff1660e01b81526004016020604051808303816000875af1158015611900573d6000803e3d6000fd5b505050506040513d601f19601f8201168201806040525081019061192491906155d9565b5043600c54146119415761193a600a6035612552565b91506119a6565b8261194a6122aa565b101561195c5761193a600e6034612552565b6011548311156119725761193a60026036612552565b600083601154611982919061574f565b60118190556001549091506119a0906001600160a01b031685611b5e565b60009250505b6119af816125cb565b50919050565b600080610ad18361264f565b6000806119cd8161248e565b306001600160a01b031663a6afed956040518163ffffffff1660e01b81526004016020604051808303816000875af1158015611a0d573d6000803e3d6000fd5b505050506040513d601f19601f82011682018060405250810190611a3191906155d9565b5043600c5414611a475761193a600a6039612552565b82611a506122aa565b1015611a625761193a600e6038612552565b601054831115611a785761193a6002603a612552565b82601054611a86919061574f565b601055600654604080516303e1469160e61b81529051611afe926001600160a01b03169163f851a4409160048083019260209291908290030181865afa158015611ad4573d6000803e3d6000fd5b505050506040513d601f19601f82011682018060405250810190611af89190615732565b84611b5e565b60005b91506119af816125cb565b60006001611b198161248e565b611b25338686866126cc565b9150610ad1816125cb565b6000610b1f82612bb0565b6000610b1f82612c2b565b600080611b54858585612ca8565b5095945050505050565b601754604051632d182be560e21b8152600481018390526001600160a01b0384811660248301523060448301529091169063b460af94906064016020604051808303816000875af1158015611bb7573d6000803e3d6000fd5b505050506040513d601f19601f8201168201806040525081019061108e91906155d9565b6000806000611be98161248e565b306001600160a01b031663a6afed956040518163ffffffff1660e01b81526004016020604051808303816000875af1158015611c29573d6000803e3d6000fd5b505050506040513d601f19601f82011682018060405250810190611c4d91906155d9565b50611c59333386612da2565b92509250611c66816125cb565b50915091565b6016546040516323b872dd60e01b81526000916001600160a01b0316906323b872dd90611ca19086903090879060040161577c565b6020604051808303816000875af1158015611cc0573d6000803e3d6000fd5b505050506040513d601f19601f82011682018060405250810190611ce49190615627565b611d195760405162461bcd60e51b81526004016102d4906020808252600490820152631cd95b9960e21b604082015260600190565b6119af82611e93565b600654604080516303e1469160e61b815290516000926001600160a01b031691829163f851a440916004808201926020929091908290030181865afa158015611d6f573d6000803e3d6000fd5b505050506040513d601f19601f82011682018060405250810190611d939190615732565b6001600160a01b0316336001600160a01b0316148015611e105750806001600160a01b0316630a755ec26040518163ffffffff1660e01b8152600401602060405180830381865afa158015611dec573d6000803e3d6000fd5b505050506040513d601f19601f82011682018060405250810190611e109190615627565b80611e8d57506001546001600160a01b031633148015611e8d5750806001600160a01b0316632f1069ba6040518163ffffffff1660e01b8152600401602060405180830381865afa158015611e69573d6000803e3d6000fd5b505050506040513d601f19601f82011682018060405250810190611e8d9190615627565b91505090565b601754604051636e553f6560e01b8152600481018390523060248201526001600160a01b0390911690636e553f65906044016020604051808303816000875af1158015611ee4573d6000803e3d6000fd5b505050506040513d601f19601f8201168201806040525081019061092591906155d9565b6001546000546040516338e6a07360e11b81526001600160a01b039182166004820152858216602482015284151560448201529116906371cd40e690606401602060405180830381865afa158015611f64573d6000803e3d6000fd5b505050506040513d601f19601f82011682018060405250810190611f889190615627565b611fbc5760405162461bcd60e51b8152602060048201526005602482015264085a5b5c1b60da1b60448201526064016102d4565b600080546001600160a01b038581166001600160a01b031983161790925516611fe36120a6565b303b611ff757611ff282611567565b612059565b612057308360405160240161200c919061529f565b60408051601f19818403018152918152602080830180516001600160e01b0316630adccee560e31b17905281518083019092526007825266216265636f6d6560c81b908201526131ab565b505b600054604080516001600160a01b03808516825290921660208301527fd604de94d45953f9138079ec1b82d533cb2160c906d1076d1f7ed54befbca97a910160405180910390a150505050565b600154600080546040516311a0e21760e01b81526001600160a01b039182166004820152919216906311a0e21790602401600060405180830381865afa1580156120f4573d6000803e3d6000fd5b505050506040513d6000823e601f3d908101601f1916820160405261211c91908101906157c4565b9050600061212861237e565b90508151600114801561213c575080516001145b801561218d57508060008151811061215657612156615853565b60200260200101516001600160a01b03168260008151811061217a5761217a615853565b60200260200101516001600160a01b0316145b15612196575050565b60005b81518110156121d6576121c48282815181106121b7576121b7615853565b6020026020010151613247565b806121ce81615869565b915050612199565b5060005b825181101561108e576122058382815181106121f8576121f8615853565b6020026020010151613377565b8061220f81615869565b9150506121da565b60008060006122258161248e565b306001600160a01b031663a6afed956040518163ffffffff1660e01b81526004016020604051808303816000875af1158015612265573d6000803e3d6000fd5b505050506040513d601f19601f8201168201806040525081019061228991906155d9565b50612295338686612da2565b925092506122a2816125cb565b509250929050565b6017546040516370a0823160e01b81523060048201526000916001600160a01b031690634cdad5069082906370a0823190602401602060405180830381865afa1580156122fb573d6000803e3d6000fd5b505050506040513d601f19601f8201168201806040525081019061231f91906155d9565b6040518263ffffffff1660e01b815260040161233d91815260200190565b602060405180830381865afa15801561235a573d6000803e3d6000fd5b505050506040513d601f19601f820116820180604052508101906114f791906155d9565b6060600080516020615a118339815191526002018054806020026020016040519081016040528092919081815260200182805480156123e657602002820191906000526020600020905b81546001600160a01b031681526001909101906020018083116123c8575b5050505050905090565b6000806123fc8161248e565b306001600160a01b031663a6afed956040518163ffffffff1660e01b81526004016020604051808303816000875af115801561243c573d6000803e3d6000fd5b505050506040513d601f19601f8201168201806040525081019061246091906155d9565b50611b013360008561346f565b6001600160a01b038116156124855761248581613247565b61092582613377565b600254600160b01b900460ff166124d45760405162461bcd60e51b815260206004820152600a6024820152691c994b595b9d195c995960b21b60448201526064016102d4565b8061254257600660009054906101000a90046001600160a01b03166001600160a01b031663c90c20b16040518163ffffffff1660e01b8152600401600060405180830381600087803b15801561252957600080fd5b505af115801561253d573d6000803e3d6000fd5b505050505b506002805460ff60b01b19169055565b60007f45b96fe442630264581b197e84bbada861235052c5a1aadfff9ea4e40a969aa083601181111561258757612587615766565b83606181111561259957612599615766565b60408051928352602083019190915260009082015260600160405180910390a1826011811115610b1c57610b1c615766565b6002805460ff60b01b1916600160b01b1790558061264c57600660009054906101000a90046001600160a01b03166001600160a01b031663632e51426040518163ffffffff1660e01b8152600401600060405180830381600087803b15801561263357600080fd5b505af1158015612647573d6000803e3d6000fd5b505050505b50565b600080600061265d8161248e565b306001600160a01b031663a6afed956040518163ffffffff1660e01b81526004016020604051808303816000875af115801561269d573d6000803e3d6000fd5b505050506040513d601f19601f820116820180604052508101906126c191906155d9565b50611c593385613b05565b60065460405163d02f735160e01b81523060048201526001600160a01b0386811660248301528581166044830152848116606483015260848201849052600092839291169063d02f73519060a4016020604051808303816000875af1158015612739573d6000803e3d6000fd5b505050506040513d601f19601f8201168201806040525081019061275d91906155d9565b9050801561277a576127726003601d83613e7f565b915050612ba8565b846001600160a01b0316846001600160a01b031614156127a0576127726006601e612552565b612805604080516101808101909152806000815260200160008152602001600081526020016000815260200160008152602001600081526020016000815260200160008152602001600081526020016000815260200160008152602001600081525090565b6001600160a01b0385166000908152601360205260409020546128289085613f21565b602083018190528282600381111561284257612842615766565b600381111561285357612853615766565b905250600090508151600381111561286d5761286d615766565b1461289d576128946009601c8360000151600381111561288f5761288f615766565b613e7f565b92505050612ba8565b6128bc846040518060200160405280666379da05b60000815250613f4c565b6080820152604080516020810190915267016345785d8a000081526128e2908590613f4c565b610140820181905260808201516128f9908661574f565b612903919061574f565b6060820152306001600160a01b031663bd6d894d6040518163ffffffff1660e01b8152600401602060405180830381865afa158015612946573d6000803e3d6000fd5b505050506040513d601f19601f8201168201806040525081019061296a91906155d9565b60c08201908152604080516020810190915290518152608082015161298f9190613f6f565b60a0820152604080516020810190915260c082015181526101408201516129b69190613f6f565b61016082015260a0810151600f546129ce919061571a565b60e082015261014081015160808201516012546129eb919061574f565b6129f5919061574f565b610120820152610160810151601154612a0e919061571a565b6101008201526001600160a01b0386166000908152601360205260409020546060820151612a3c9190613f87565b6040830181905282826003811115612a5657612a56615766565b6003811115612a6757612a67615766565b9052506000905081516003811115612a8157612a81615766565b14612aa3576128946009601b8360000151600381111561288f5761288f615766565b60e0810151600f556101208101516012556101008101516011556020808201516001600160a01b0387811660008181526013855260408082209490945583860151928b1680825290849020929092556060850151925192835290929091600080516020615a31833981519152910160405180910390a3306001600160a01b0316856001600160a01b0316600080516020615a318339815191528360800151604051612b5091815260200190565b60405180910390a360a081015160e08201516040805130815260208101939093528201527fa91e67c5ea634cd43a12c5a482724b03de01e85ca68702a53d0c2f45cb7c1dc59060600160405180910390a16000925050505b949350505050565b600080612bbc8161248e565b306001600160a01b031663a6afed956040518163ffffffff1660e01b81526004016020604051808303816000875af1158015612bfc573d6000803e3d6000fd5b505050506040513d601f19601f82011682018060405250810190612c2091906155d9565b50611b013384613fad565b600080612c378161248e565b306001600160a01b031663a6afed956040518163ffffffff1660e01b81526004016020604051808303816000875af1158015612c77573d6000803e3d6000fd5b505050506040513d601f19601f82011682018060405250810190612c9b91906155d9565b50611b013384600061346f565b6000806000612cb68161248e565b306001600160a01b031663a6afed956040518163ffffffff1660e01b81526004016020604051808303816000875af1158015612cf6573d6000803e3d6000fd5b505050506040513d601f19601f82011682018060405250810190612d1a91906155d9565b50836001600160a01b031663a6afed956040518163ffffffff1660e01b81526004016020604051808303816000875af1158015612d5b573d6000803e3d6000fd5b505050506040513d601f19601f82011682018060405250810190612d7f91906155d9565b50612d8c33878787614340565b92509250612d99816125cb565b50935093915050565b600654604051631200453160e11b81523060048201526001600160a01b03858116602483015284811660448301526064820184905260009283928392909116906324008a62906084016020604051808303816000875af1158015612e0a573d6000803e3d6000fd5b505050506040513d601f19601f82011682018060405250810190612e2e91906155d9565b90508015612e4f57612e436003604383613e7f565b600092509250506131a3565b43600c5414612e6457612e43600a6044612552565b612ead6040805161010081019091528060008152602001600081526020016000815260200160008152602001600081526020016000815260200160008152602001600081525090565b6001600160a01b0386166000908152601560205260409020600101546060820152306040516305eff7ef60e21b81526001600160a01b03888116600483015291909116906317bfdfbc90602401602060405180830381865afa158015612f17573d6000803e3d6000fd5b505050506040513d601f19601f82011682018060405250810190612f3b91906155d9565b6080820152600019851415612f595760808101516040820152612f61565b604081018590525b612f6f878260400151611c6c565b60e082018190526080820151612f8491613f21565b60a0830181905260208301826003811115612fa157612fa1615766565b6003811115612fb257612fb2615766565b9052506000905081602001516003811115612fcf57612fcf615766565b146130425760405162461bcd60e51b815260206004820152603a60248201527f52455041595f424f52524f575f4e45575f4143434f554e545f424f52524f575f60448201527f42414c414e43455f43414c43554c4154494f4e5f4641494c454400000000000060648201526084016102d4565b613052600e548260e00151613f21565b60c083018190526020830182600381111561306f5761306f615766565b600381111561308057613080615766565b905250600090508160200151600381111561309d5761309d615766565b146131045760405162461bcd60e51b815260206004820152603160248201527f52455041595f424f52524f575f4e45575f544f54414c5f42414c414e43455f43604482015270105310d55310551253d397d19052531151607a1b60648201526084016102d4565b60a081810180516001600160a01b03898116600081815260156020908152604091829020948555600d5460019095019490945560c0870151600e81905560e088015195518251948f16855294840192909252820193909352606081019190915260808101919091527f1a2a22cb034d26d1854bdc6666a5b91fe25efbbb5dcad3b0355478d6f5c362a1910160405180910390a160e00151600093509150505b935093915050565b6060600080856001600160a01b0316856040516131c89190615884565b6000604051808303816000865af19150503d8060008114613205576040519150601f19603f3d011682016040523d82523d6000602084013e61320a565b606091505b50915091508161323e578051156132245780518082602001fd5b8360405162461bcd60e51b81526004016102d4919061529f565b95945050505050565b600080516020615a1183398151915261325f826147f3565b60005b600282015460ff8216101561108e57826001600160a01b0316826002018260ff168154811061329357613293615853565b6000918252602090912001546001600160a01b03161415613365576002820180546132c09060019061574f565b815481106132d0576132d0615853565b6000918252602090912001546002830180546001600160a01b039092169160ff841690811061330157613301615853565b9060005260206000200160006101000a8154816001600160a01b0302191690836001600160a01b0316021790555081600201805480613342576133426158a0565b600082815260209020810160001990810180546001600160a01b03191690550190555b8061336f816158b6565b915050613262565b600080516020615a1183398151915260005b600282015460ff8216101561342f57826001600160a01b0316826002018260ff16815481106133ba576133ba615853565b6000918252602090912001546001600160a01b0316141561341d5760405162461bcd60e51b815260206004820152601760248201527f657874656e73696f6e20616c726561647920616464656400000000000000000060448201526064016102d4565b80613427816158b6565b915050613389565b5061343982614a80565b6002018054600181018255600091825260209091200180546001600160a01b0319166001600160a01b0392909216919091179055565b600082158061347c575081155b6134c85760405162461bcd60e51b815260206004820152601860248201527f2172656465656d20746f6b656e73206f7220616d6f756e74000000000000000060448201526064016102d4565b6135096040805160e0810190915280600081526020016000815260200160008152602001600081526020016000815260200160008152602001600081525090565b306001600160a01b031663bd6d894d6040518163ffffffff1660e01b8152600401602060405180830381865afa158015613547573d6000803e3d6000fd5b505050506040513d601f19601f8201168201806040525081019061356b91906155d9565b60408201526000198314156135f857600654604051630cbb414760e11b81526001600160a01b0387811660048301523060248301526000604483015290911690631976828e90606401602060405180830381865afa1580156135d1573d6000803e3d6000fd5b505050506040513d601f19601f820116820180604052508101906135f591906155d9565b92505b6000306001600160a01b0316634aeb3d9a6040518163ffffffff1660e01b8152600401602060405180830381865afa158015613638573d6000803e3d6000fd5b505050506040513d601f19601f8201168201806040525081019061365c91906155d9565b90506103e861366b858361574f565b1015613675578093505b841561371757606082018590526040805160208101825290830151815261369c9086614c6a565b60808401819052602084018260038111156136b9576136b9615766565b60038111156136ca576136ca615766565b90525060009050826020015160038111156136e7576136e7615766565b14613712576137096009602c8460200151600381111561288f5761288f615766565b925050506108dd565b6137a8565b6137338460405180602001604052808560400151815250614cbc565b606084018190526020840182600381111561375057613750615766565b600381111561376157613761615766565b905250600090508260200151600381111561377e5761377e615766565b146137a0576137096009602d8460200151600381111561288f5761288f615766565b608082018490525b6103e882606001516012546137bd919061574f565b10156137cc5760125460608301525b600654606083015160405163eabe7d9160e01b81526000926001600160a01b03169163eabe7d91916138059130918c919060040161577c565b6020604051808303816000875af1158015613824573d6000803e3d6000fd5b505050506040513d601f19601f8201168201806040525081019061384891906155d9565b905080156138675761385d6003602b83613e7f565b93505050506108dd565b43600c541461387c5761385d600a602f612552565b61388c6012548460600151613f21565b60a08501819052602085018260038111156138a9576138a9615766565b60038111156138ba576138ba615766565b90525060009050836020015160038111156138d7576138d7615766565b146138f95761385d600960318560200151600381111561288f5761288f615766565b6001600160a01b03871660009081526013602052604090205460608401516139219190613f21565b60c085018190526020850182600381111561393e5761393e615766565b600381111561394f5761394f615766565b905250600090508360200151600381111561396c5761396c615766565b1461398e5761385d600960308560200151600381111561288f5761288f615766565b826080015161399b6122aa565b10156139ad5761385d600e6032612552565b60a083015160125560c08301516001600160a01b03881660009081526013602052604090205560808301516139e3908890611b5e565b306001600160a01b0316876001600160a01b0316600080516020615a318339815191528560600151604051613a1a91815260200190565b60405180910390a36080830151606080850151604080516001600160a01b038c16815260208101949094528301527fe5b754fb1abb7f01b499791d0b820ae3b6af3424ac1c59768edb53f4ec31a929910160405180910390a1600654608084015160608501516040516351dff98960e01b81523060048201526001600160a01b038b81166024830152604482019390935260648101919091529116906351dff98990608401600060405180830381600087803b158015613ad957600080fd5b505af1158015613aed573d6000803e3d6000fd5b5060009250613afa915050565b979650505050505050565b600654604051634ef4c3e160e01b8152600091829182916001600160a01b031690634ef4c3e190613b3e9030908990899060040161577c565b6020604051808303816000875af1158015613b5d573d6000803e3d6000fd5b505050506040513d601f19601f82011682018060405250810190613b8191906155d9565b90508015613ba257613b966003602183613e7f565b60009250925050613e78565b43600c5414613bb757613b96600a6024612552565b613bf86040805160e0810190915280600081526020016000815260200160008152602001600081526020016000815260200160008152602001600081525090565b306001600160a01b031663bd6d894d6040518163ffffffff1660e01b8152600401602060405180830381865afa158015613c36573d6000803e3d6000fd5b505050506040513d601f19601f82011682018060405250810190613c5a91906155d9565b6040820152613c698686611c6c565b60c0820181905260408051602081018252908301518152613c8a9190614cbc565b6060830181905260208301826003811115613ca757613ca7615766565b6003811115613cb857613cb8615766565b9052506000905081602001516003811115613cd557613cd5615766565b14613d225760405162461bcd60e51b815260206004820181905260248201527f4d494e545f45584348414e47455f43414c43554c4154494f4e5f4641494c454460448201526064016102d4565b6000816060015111613d765760405162461bcd60e51b815260206004820152601a60248201527f4d494e545f5a45524f5f43544f4b454e535f52454a454354454400000000000060448201526064016102d4565b8060600151601254613d88919061571a565b608082015260608101516001600160a01b038716600090815260136020526040902054613db5919061571a565b60a0820181905260808201516012556001600160a01b0387166000818152601360209081526040918290209390935560c0840151606080860151835194855294840191909152908201929092527f4c209b5fc8ad50758f13e2e1088ba56a560dff690a1c6fef26394f4c03821c4f910160405180910390a1856001600160a01b0316306001600160a01b0316600080516020615a318339815191528360600151604051613e6491815260200190565b60405180910390a360c00151600093509150505b9250929050565b60007f45b96fe442630264581b197e84bbada861235052c5a1aadfff9ea4e40a969aa0846011811115613eb457613eb4615766565b846061811115613ec657613ec6615766565b604080519283526020830191909152810184905260600160405180910390a16003846011811115613ef957613ef9615766565b14613f1557836011811115613f1057613f10615766565b612ba8565b612ba8826103e861571a565b600080838311613f40576000613f37848661574f565b91509150613e78565b50600390506000613e78565b6000670de0b6b3a7640000613f65848460000151614ccc565b610b1c91906158d6565b600080613f7c8484614d0e565b9050612ba881614d3f565b600080838301848110613f9f57600092509050613e78565b600260009250925050613e78565b60065460405163368f515360e21b815260009182916001600160a01b039091169063da3d454c90613fe69030908890889060040161577c565b6020604051808303816000875af1158015614005573d6000803e3d6000fd5b505050506040513d601f19601f8201168201806040525081019061402991906155d9565b905080156140465761403e6003601083613e7f565b915050610b1f565b43600c541461405b5761403e600a600c612552565b60006140656122aa565b9050838110156140845761407b600e600b612552565b92505050610b1f565b6140b0604080516080810190915280600081526020016000815260200160008152602001600081525090565b306040516305eff7ef60e21b81526001600160a01b03888116600483015291909116906317bfdfbc90602401602060405180830381865afa1580156140f9573d6000803e3d6000fd5b505050506040513d601f19601f8201168201806040525081019061411d91906155d9565b6020820181905261412e9086613f87565b604083018190528282600381111561414857614148615766565b600381111561415957614159615766565b905250600090508151600381111561417357614173615766565b1461419f576141956009600e8360000151600381111561288f5761288f615766565b9350505050610b1f565b6006546040828101519051631de6c8a560e21b815230600482015260248101919091526001600160a01b039091169063779b229490604401602060405180830381865afa1580156141f4573d6000803e3d6000fd5b505050506040513d601f19601f8201168201806040525081019061421891906155d9565b9250821561422d576141956003601085613e7f565b614239600e5486613f87565b606083018190528282600381111561425357614253615766565b600381111561426457614264615766565b905250600090508151600381111561427e5761427e615766565b146142a0576141956009600d8360000151600381111561288f5761288f615766565b6040808201516001600160a01b0388166000908152601560205291909120908155600d546001909101556060810151600e556142dc8686611b5e565b60408082015160608084015183516001600160a01b038b168152602081018a9052938401929092528201527f13ed6866d4e1ee6da46f845c46d7e54120883d75c5ea9a2dacc1c4ca8984ab809060800160405180910390a160009695505050505050565b600654604051632fe3f38f60e11b81523060048201526001600160a01b03838116602483015286811660448301528581166064830152608482018590526000928392839290911690635fc7e71e9060a4016020604051808303816000875af11580156143b0573d6000803e3d6000fd5b505050506040513d601f19601f820116820180604052508101906143d491906155d9565b905080156143f5576143e96003601483613e7f565b600092509250506147ea565b43600c541461440a576143e9600a6018612552565b43846001600160a01b0316636c540baf6040518163ffffffff1660e01b8152600401602060405180830381865afa158015614449573d6000803e3d6000fd5b505050506040513d601f19601f8201168201806040525081019061446d91906155d9565b1461447e576143e9600a6013612552565b866001600160a01b0316866001600160a01b031614156144a4576143e960066019612552565b846144b5576143e960076017612552565b6000198514156144cb576143e960076016612552565b6000806144d9898989612da2565b9092509050811561450e576145008260118111156144f9576144f9615766565b601a612552565b6000945094505050506147ea565b60065460405163c488847b60e01b815260009182916001600160a01b039091169063c488847b906145479030908c90889060040161577c565b6040805180830381865afa158015614563573d6000803e3d6000fd5b505050506040513d601f19601f8201168201806040525081019061458791906158f8565b909250905081156145f65760405162461bcd60e51b815260206004820152603360248201527f4c49515549444154455f434f4d5054524f4c4c45525f43414c43554c4154455f604482015272105353d5539517d4d152569157d19052531151606a1b60648201526084016102d4565b6040516370a0823160e01b81526001600160a01b038b811660048301528291908a16906370a0823190602401602060405180830381865afa15801561463f573d6000803e3d6000fd5b505050506040513d601f19601f8201168201806040525081019061466391906155d9565b10156146b15760405162461bcd60e51b815260206004820152601860248201527f4c49515549444154455f5345495a455f544f4f5f4d554348000000000000000060448201526064016102d4565b60006001600160a01b0389163014156146d7576146d0308d8d856126cc565b905061474d565b60405163b2a02ff160e01b81526001600160a01b038a169063b2a02ff190614707908f908f90879060040161577c565b6020604051808303816000875af1158015614726573d6000803e3d6000fd5b505050506040513d601f19601f8201168201806040525081019061474a91906155d9565b90505b80156147845760405162461bcd60e51b8152602060048201526006602482015265217365697a6560d01b60448201526064016102d4565b604080516001600160a01b038e811682528d811660208301528183018790528b1660608201526080810184905290517f298637f684da70674f26509b10f07ec2fbc77a335ab1e7d6215a4b2484d8bb529181900360a00190a16000975092955050505050505b94509492505050565b6000816001600160a01b03166389f8132e6040518163ffffffff1660e01b8152600401600060405180830381865afa158015614833573d6000803e3d6000fd5b505050506040513d6000823e601f3d908101601f1916820160405261485b919081019061591c565b9050600080516020615a1183398151915260005b82518161ffff161015611561576000838261ffff168151811061489457614894615853565b6020908102919091018101516001600160e01b031981166000908152918590526040909120549091506001600160a01b038681169116146148d7576148d76159b9565b6001600160e01b0319811660009081526020849052604090205460018085018054600160a01b90930461ffff169290916149109161574f565b8154811061492057614920615853565b90600052602060002090600891828204019190066004029054906101000a900460e01b846001018261ffff168154811061495c5761495c615853565b90600052602060002090600891828204019190066004026101000a81548163ffffffff021916908360e01c021790555080846000016000866001018461ffff16815481106149ac576149ac615853565b6000918252602080832060088304015460079092166004026101000a90910460e01b6001600160e01b03191683528201929092526040019020805461ffff60a01b1916600160a01b61ffff939093169290920291909117905560018401805480614a1857614a186158a0565b60008281526020808220600860001990940193840401805463ffffffff600460078716026101000a0219169055919092556001600160e01b0319909316815291849052506040902080546001600160b01b031916905580614a78816159cf565b91505061486f565b6000816001600160a01b03166389f8132e6040518163ffffffff1660e01b8152600401600060405180830381865afa158015614ac0573d6000803e3d6000fd5b505050506040513d6000823e601f3d908101601f19168201604052614ae8919081019061591c565b7fc8fcad8db84d3cc18b4c41d551ea0ee66dd599cde068d998e57d5e09332c131d54909150600080516020615a118339815191529060005b8351811015612647576000848281518110614b3d57614b3d615853565b6020908102919091018101516001600160e01b031981166000908152918690526040909120549091506001600160a01b03168015614ba957604051632c18df3360e01b81526001600160e01b0319831660048201526001600160a01b03821660248201526044016102d4565b6040805180820182526001600160a01b03808a16825261ffff80881660208085019182526001600160e01b0319881660009081528b8252958620945185549251909316600160a01b026001600160b01b0319909216929093169190911717909155600180880180549182018155835291206008820401805460e085901c60046007909416939093026101000a92830263ffffffff909302191691909117905583614c52816159cf565b94505050508080614c6290615869565b915050614b20565b600080600080614c7a8686614d57565b90925090506000826003811115614c9357614c93615766565b14614ca45750915060009050613e78565b6000614caf82614d3f565b9350935050509250929050565b600080600080614c7a8686614dd3565b6000610b1c83836040518060400160405280601781526020017f6d756c7469706c69636174696f6e206f766572666c6f77000000000000000000815250614e46565b6040805160208101909152600081526040518060200160405280614d36856000015185614ccc565b90529392505050565b8051600090610b1f90670de0b6b3a7640000906158d6565b6000614d6f6040518060200160405280600081525090565b600080614d80866000015186614e99565b90925090506000826003811115614d9957614d99615766565b14614db857506040805160208101909152600081529092509050613e78565b60408051602081019091529081526000969095509350505050565b6000614deb6040518060200160405280600081525090565b600080614e00670de0b6b3a764000087614e99565b90925090506000826003811115614e1957614e19615766565b14614e3857506040805160208101909152600081529092509050613e78565b614caf818660000151614ed8565b6000831580614e53575082155b15614e60575060006108dd565b6000614e6c84866159f1565b905083614e7986836158d6565b1483906114e45760405162461bcd60e51b81526004016102d4919061529f565b60008083614eac57506000905080613e78565b83830283614eba86836158d6565b14614ecd57600260009250925050613e78565b600092509050613e78565b6000614ef06040518060200160405280600081525090565b600080614f0586670de0b6b3a7640000614e99565b90925090506000826003811115614f1e57614f1e615766565b14614f3d57506040805160208101909152600081529092509050613e78565b600080614f4a8388614fa3565b90925090506000826003811115614f6357614f63615766565b14614f865781604051806020016040528060008152509550955050505050613e78565b604080516020810190915290815260009890975095505050505050565b60008082614fb75750600190506000613e78565b6000614fc384866158d6565b915091509250929050565b828054614fda906155f2565b90600052602060002090601f016020900481019282614ffc5760008555615042565b82601f1061501557805160ff1916838001178555615042565b82800160010185558215615042579182015b82811115615042578251825591602001919060010190615027565b5061504e929150615052565b5090565b5b8082111561504e5760008155600101615053565b6001600160a01b038116811461264c57600080fd5b6000806040838503121561508f57600080fd5b823561509a81615067565b946020939093013593505050565b80356150b381615067565b919050565b634e487b7160e01b600052604160045260246000fd5b604051601f8201601f1916810167ffffffffffffffff811182821017156150f7576150f76150b8565b604052919050565b600067ffffffffffffffff821115615119576151196150b8565b50601f01601f191660200190565b600061513a615135846150ff565b6150ce565b905082815283838301111561514e57600080fd5b828260208301376000602084830101529392505050565b600082601f83011261517657600080fd5b610b1c83833560208501615127565b600080600080600080600080610100898b0312156151a257600080fd5b88356151ad81615067565b975060208901356151bd81615067565b965060408901356151cd81615067565b955060608901356151dd81615067565b9450608089013567ffffffffffffffff808211156151fa57600080fd5b6152068c838d01615165565b955060a08b013591508082111561521c57600080fd5b506152298b828c01615165565b93505060c0890135915060e089013590509295985092959890939650565b60005b8381101561526257818101518382015260200161524a565b838111156115615750506000910152565b6000815180845261528b816020860160208601615247565b601f01601f19169290920160200192915050565b602081526000610b1c6020830184615273565b6000602082840312156152c457600080fd5b5035919050565b6000602082840312156152dd57600080fd5b81356108dd81615067565b60ff8116811461264c57600080fd5b80356150b3816152e8565b60008060008060008060008060006101208a8c03121561532157600080fd5b893561532c81615067565b985060208a013561533c81615067565b975061534a60408b016150a8565b965060608a0135955060808a013567ffffffffffffffff8082111561536e57600080fd5b61537a8d838e01615165565b965060a08c013591508082111561539057600080fd5b5061539d8c828d01615165565b9450506153ac60c08b016152f7565b925060e08a013591506101008a013590509295985092959850929598565b801515811461264c57600080fd5b600080600080606085870312156153ee57600080fd5b84356153f981615067565b93506020850135615409816153ca565b9250604085013567ffffffffffffffff8082111561542657600080fd5b818701915087601f83011261543a57600080fd5b81358181111561544957600080fd5b88602082850101111561545b57600080fd5b95989497505060200194505050565b60006020828403121561547c57600080fd5b813567ffffffffffffffff81111561549357600080fd5b8201601f810184136154a457600080fd5b612ba884823560208401615127565b6020808252825182820181905260009190848201906040850190845b818110156154f45783516001600160a01b0316835292840192918401916001016154cf565b50909695505050505050565b6000806040838503121561551357600080fd5b823561551e81615067565b9150602083013561552e81615067565b809150509250929050565b60008060006060848603121561554e57600080fd5b833561555981615067565b9250602084013561556981615067565b929592945050506040919091013590565b60008060006060848603121561558f57600080fd5b833561559a81615067565b92506020840135915060408401356155b181615067565b809150509250925092565b6000602082840312156155ce57600080fd5b81516108dd816152e8565b6000602082840312156155eb57600080fd5b5051919050565b600181811c9082168061560657607f821691505b602082108114156119af57634e487b7160e01b600052602260045260246000fd5b60006020828403121561563957600080fd5b81516108dd816153ca565b60008060006060848603121561565957600080fd5b835161566481615067565b6020850151909350615675816153ca565b604085015190925067ffffffffffffffff81111561569257600080fd5b8401601f810186136156a357600080fd5b80516156b1615135826150ff565b8181528760208385010111156156c657600080fd5b6156d7826020830160208601615247565b8093505050509250925092565b60208082526006908201526510b0b236b4b760d11b604082015260600190565b634e487b7160e01b600052601160045260246000fd5b6000821982111561572d5761572d615704565b500190565b60006020828403121561574457600080fd5b81516108dd81615067565b60008282101561576157615761615704565b500390565b634e487b7160e01b600052602160045260246000fd5b6001600160a01b039384168152919092166020820152604081019190915260600190565b600067ffffffffffffffff8211156157ba576157ba6150b8565b5060051b60200190565b600060208083850312156157d757600080fd5b825167ffffffffffffffff8111156157ee57600080fd5b8301601f810185136157ff57600080fd5b805161580d615135826157a0565b81815260059190911b8201830190838101908783111561582c57600080fd5b928401925b82841015613afa57835161584481615067565b82529284019290840190615831565b634e487b7160e01b600052603260045260246000fd5b600060001982141561587d5761587d615704565b5060010190565b60008251615896818460208701615247565b9190910192915050565b634e487b7160e01b600052603160045260246000fd5b600060ff821660ff8114156158cd576158cd615704565b60010192915050565b6000826158f357634e487b7160e01b600052601260045260246000fd5b500490565b6000806040838503121561590b57600080fd5b505080516020909101519092909150565b6000602080838503121561592f57600080fd5b825167ffffffffffffffff81111561594657600080fd5b8301601f8101851361595757600080fd5b8051615965615135826157a0565b81815260059190911b8201830190838101908783111561598457600080fd5b928401925b82841015613afa5783516001600160e01b0319811681146159aa5760008081fd5b82529284019290840190615989565b634e487b7160e01b600052600160045260246000fd5b600061ffff808316818114156159e7576159e7615704565b6001019392505050565b6000816000190483118215151615615a0b57615a0b615704565b50029056fec8fcad8db84d3cc18b4c41d551ea0ee66dd599cde068d998e57d5e09332c131cddf252ad1be2c89b69c2b068fc378daa952ba7f163c4a11628f55a4df523b3efa164736f6c634300080a000a",
    "linkReferences": {}
  },
  "methodIdentifiers": {
    "_becomeImplementation(bytes)": "56e67728",
    "_listExtensions()": "6333d001",
    "_prepare()": "1db78944",
    "_registerExtension(address,address)": "89cd9855",
    "_setImplementationSafe(address,bool,bytes)": "50d85b73",
    "_updatePlugin(address)": "19f496c8",
    "_withdrawAdminFees(uint256)": "a7b820df",
    "_withdrawFuseFees(uint256)": "a03dce8d",
    "accrualBlockNumber()": "6c540baf",
    "adminFeeMantissa()": "8d02d9a1",
    "approve(address,address)": "7e5465ba",
    "borrow(uint256)": "c5ebeaec",
    "borrowIndex()": "aa5af0fd",
    "claim()": "4e71d92d",
    "comptroller()": "5fe3b567",
    "contractType()": "cb2ef6f7",
    "decimals()": "313ce567",
    "feeSeizeShareMantissa()": "be99f119",
    "fuseAdmin()": "15761d51",
    "fuseFeeMantissa()": "dbfe7c19",
    "getCash()": "3b1d21a2",
    "implementation()": "5c60da1b",
    "initialize(address,address,address,address,string,string,uint256,uint256)": "06db3ecd",
    "initialize(address,address,address,uint256,string,string,uint8,uint256,uint256)": "219ef65c",
    "interestRateModel()": "f3fdb15a",
    "isCEther()": "ac784ddc",
    "liquidateBorrow(address,uint256,address)": "f5e3c462",
    "mint(uint256)": "a0712d68",
    "name()": "06fdde03",
    "plugin()": "ef01df4f",
    "protocolSeizeShareMantissa()": "6752e702",
    "redeem(uint256)": "db006a75",
    "redeemUnderlying(uint256)": "852a12e3",
    "repayBorrow(uint256)": "0e752702",
    "repayBorrowBehalf(address,uint256)": "2608f818",
    "reserveFactorMantissa()": "173b9904",
    "seize(address,address,uint256)": "b2a02ff1",
    "selfTransferIn(address,uint256)": "135f1334",
    "selfTransferOut(address,uint256)": "067db1b3",
    "symbol()": "95d89b41",
    "totalAdminFees()": "61feacff",
    "totalBorrows()": "47bd3718",
    "totalFuseFees()": "dc028ab1",
    "totalReserves()": "8f840ddd",
    "totalSupply()": "18160ddd",
    "underlying()": "6f307dc3"
  }
}