{
  "address": "0x76A1Bf6FdEf270FDfd00411f5F5A9333ca8c81f3",
  "abi": [
    {
      "anonymous": false,
      "inputs": [
        {
          "indexed": false,
          "internalType": "string",
          "name": "action",
          "type": "string"
        },
        {
          "indexed": false,
          "internalType": "bool",
          "name": "pauseState",
          "type": "bool"
        }
      ],
      "name": "ActionPaused",
      "type": "event"
    },
    {
      "anonymous": false,
      "inputs": [
        {
          "indexed": false,
          "internalType": "uint256",
          "name": "error",
          "type": "uint256"
        },
        {
          "indexed": false,
          "internalType": "uint256",
          "name": "info",
          "type": "uint256"
        },
        {
          "indexed": false,
          "internalType": "uint256",
          "name": "detail",
          "type": "uint256"
        }
      ],
      "name": "Failure",
      "type": "event"
    },
    {
      "anonymous": false,
      "inputs": [
        {
          "indexed": false,
          "internalType": "contract CTokenInterface",
          "name": "cToken",
          "type": "address"
        },
        {
          "indexed": false,
          "internalType": "string",
          "name": "action",
          "type": "string"
        },
        {
          "indexed": false,
          "internalType": "bool",
          "name": "pauseState",
          "type": "bool"
        }
      ],
      "name": "MarketActionPaused",
      "type": "event"
    },
    {
      "anonymous": false,
      "inputs": [
        {
          "indexed": false,
          "internalType": "contract CTokenInterface",
          "name": "cToken",
          "type": "address"
        }
      ],
      "name": "MarketUnlisted",
      "type": "event"
    },
    {
      "anonymous": false,
      "inputs": [
        {
          "indexed": true,
          "internalType": "contract CTokenInterface",
          "name": "cToken",
          "type": "address"
        },
        {
          "indexed": false,
          "internalType": "uint256",
          "name": "newBorrowCap",
          "type": "uint256"
        }
      ],
      "name": "NewBorrowCap",
      "type": "event"
    },
    {
      "anonymous": false,
      "inputs": [
        {
          "indexed": false,
          "internalType": "address",
          "name": "oldBorrowCapGuardian",
          "type": "address"
        },
        {
          "indexed": false,
          "internalType": "address",
          "name": "newBorrowCapGuardian",
          "type": "address"
        }
      ],
      "name": "NewBorrowCapGuardian",
      "type": "event"
    },
    {
      "anonymous": false,
      "inputs": [
        {
          "indexed": false,
          "internalType": "address",
          "name": "oldPauseGuardian",
          "type": "address"
        },
        {
          "indexed": false,
          "internalType": "address",
          "name": "newPauseGuardian",
          "type": "address"
        }
      ],
      "name": "NewPauseGuardian",
      "type": "event"
    },
    {
      "anonymous": false,
      "inputs": [
        {
          "indexed": true,
          "internalType": "contract CTokenInterface",
          "name": "cToken",
          "type": "address"
        },
        {
          "indexed": false,
          "internalType": "uint256",
          "name": "newSupplyCap",
          "type": "uint256"
        }
      ],
      "name": "NewSupplyCap",
      "type": "event"
    },
    {
      "inputs": [
        {
          "internalType": "address",
          "name": "cTokenBorrow",
          "type": "address"
        },
        {
          "internalType": "address",
          "name": "cTokenCollateral",
          "type": "address"
        },
        {
          "internalType": "bool",
          "name": "blacklisted",
          "type": "bool"
        }
      ],
      "name": "_blacklistBorrowingAgainstCollateral",
      "outputs": [],
      "stateMutability": "nonpayable",
      "type": "function"
    },
    {
      "inputs": [
        {
          "internalType": "address",
          "name": "cTokenBorrow",
          "type": "address"
        },
        {
          "internalType": "address",
          "name": "cTokenCollateral",
          "type": "address"
        },
        {
          "internalType": "address",
          "name": "account",
          "type": "address"
        },
        {
          "internalType": "bool",
          "name": "whitelisted",
          "type": "bool"
        }
      ],
      "name": "_blacklistBorrowingAgainstCollateralWhitelist",
      "outputs": [],
      "stateMutability": "nonpayable",
      "type": "function"
    },
    {
      "inputs": [
        {
          "internalType": "address",
          "name": "cToken",
          "type": "address"
        },
        {
          "internalType": "address",
          "name": "account",
          "type": "address"
        },
        {
          "internalType": "bool",
          "name": "whitelisted",
          "type": "bool"
        }
      ],
      "name": "_borrowCapWhitelist",
      "outputs": [],
      "stateMutability": "nonpayable",
      "type": "function"
    },
    {
      "inputs": [],
      "name": "_borrowGuardianPaused",
      "outputs": [
        {
          "internalType": "bool",
          "name": "",
          "type": "bool"
        }
      ],
      "stateMutability": "view",
      "type": "function"
    },
    {
      "inputs": [],
      "name": "_getExtensionFunctions",
      "outputs": [
        {
          "internalType": "bytes4[]",
          "name": "",
          "type": "bytes4[]"
        }
      ],
      "stateMutability": "pure",
      "type": "function"
    },
    {
      "inputs": [],
      "name": "_mintGuardianPaused",
      "outputs": [
        {
          "internalType": "bool",
          "name": "",
          "type": "bool"
        }
      ],
      "stateMutability": "view",
      "type": "function"
    },
    {
      "inputs": [
        {
          "internalType": "address",
          "name": "flywheelAddress",
          "type": "address"
        }
      ],
      "name": "_removeFlywheel",
      "outputs": [
        {
          "internalType": "bool",
          "name": "",
          "type": "bool"
        }
      ],
      "stateMutability": "nonpayable",
      "type": "function"
    },
    {
      "inputs": [
        {
          "internalType": "address",
          "name": "cTokenBorrow",
          "type": "address"
        },
        {
          "internalType": "address",
          "name": "cTokenCollateral",
          "type": "address"
        },
        {
          "internalType": "uint256",
          "name": "borrowCap",
          "type": "uint256"
        }
      ],
      "name": "_setBorrowCapForCollateral",
      "outputs": [],
      "stateMutability": "nonpayable",
      "type": "function"
    },
    {
      "inputs": [
        {
          "internalType": "address",
          "name": "cTokenBorrow",
          "type": "address"
        },
        {
          "internalType": "address",
          "name": "cTokenCollateral",
          "type": "address"
        },
        {
          "internalType": "address",
          "name": "account",
          "type": "address"
        },
        {
          "internalType": "bool",
          "name": "whitelisted",
          "type": "bool"
        }
      ],
      "name": "_setBorrowCapForCollateralWhitelist",
      "outputs": [],
      "stateMutability": "nonpayable",
      "type": "function"
    },
    {
      "inputs": [
        {
          "internalType": "address",
          "name": "newBorrowCapGuardian",
          "type": "address"
        }
      ],
      "name": "_setBorrowCapGuardian",
      "outputs": [],
      "stateMutability": "nonpayable",
      "type": "function"
    },
    {
      "inputs": [
        {
          "internalType": "contract CTokenInterface",
          "name": "cToken",
          "type": "address"
        },
        {
          "internalType": "bool",
          "name": "state",
          "type": "bool"
        }
      ],
      "name": "_setBorrowPaused",
      "outputs": [
        {
          "internalType": "bool",
          "name": "",
          "type": "bool"
        }
      ],
      "stateMutability": "nonpayable",
      "type": "function"
    },
    {
      "inputs": [
        {
          "internalType": "contract CTokenInterface[]",
          "name": "cTokens",
          "type": "address[]"
        },
        {
          "internalType": "uint256[]",
          "name": "newBorrowCaps",
          "type": "uint256[]"
        }
      ],
      "name": "_setMarketBorrowCaps",
      "outputs": [],
      "stateMutability": "nonpayable",
      "type": "function"
    },
    {
      "inputs": [
        {
          "internalType": "contract CTokenInterface[]",
          "name": "cTokens",
          "type": "address[]"
        },
        {
          "internalType": "uint256[]",
          "name": "newSupplyCaps",
          "type": "uint256[]"
        }
      ],
      "name": "_setMarketSupplyCaps",
      "outputs": [],
      "stateMutability": "nonpayable",
      "type": "function"
    },
    {
      "inputs": [
        {
          "internalType": "contract CTokenInterface",
          "name": "cToken",
          "type": "address"
        },
        {
          "internalType": "bool",
          "name": "state",
          "type": "bool"
        }
      ],
      "name": "_setMintPaused",
      "outputs": [
        {
          "internalType": "bool",
          "name": "",
          "type": "bool"
        }
      ],
      "stateMutability": "nonpayable",
      "type": "function"
    },
    {
      "inputs": [
        {
          "internalType": "address",
          "name": "newPauseGuardian",
          "type": "address"
        }
      ],
      "name": "_setPauseGuardian",
      "outputs": [
        {
          "internalType": "uint256",
          "name": "",
          "type": "uint256"
        }
      ],
      "stateMutability": "nonpayable",
      "type": "function"
    },
    {
      "inputs": [
        {
          "internalType": "bool",
          "name": "state",
          "type": "bool"
        }
      ],
      "name": "_setSeizePaused",
      "outputs": [
        {
          "internalType": "bool",
          "name": "",
          "type": "bool"
        }
      ],
      "stateMutability": "nonpayable",
      "type": "function"
    },
    {
      "inputs": [
        {
          "internalType": "bool",
          "name": "state",
          "type": "bool"
        }
      ],
      "name": "_setTransferPaused",
      "outputs": [
        {
          "internalType": "bool",
          "name": "",
          "type": "bool"
        }
      ],
      "stateMutability": "nonpayable",
      "type": "function"
    },
    {
      "inputs": [
        {
          "internalType": "address",
          "name": "cToken",
          "type": "address"
        },
        {
          "internalType": "address",
          "name": "account",
          "type": "address"
        },
        {
          "internalType": "bool",
          "name": "whitelisted",
          "type": "bool"
        }
      ],
      "name": "_supplyCapWhitelist",
      "outputs": [],
      "stateMutability": "nonpayable",
      "type": "function"
    },
    {
      "inputs": [
        {
          "internalType": "contract CTokenInterface",
          "name": "cToken",
          "type": "address"
        }
      ],
      "name": "_unsupportMarket",
      "outputs": [
        {
          "internalType": "uint256",
          "name": "",
          "type": "uint256"
        }
      ],
      "stateMutability": "nonpayable",
      "type": "function"
    },
    {
      "inputs": [
        {
          "internalType": "address",
          "name": "",
          "type": "address"
        },
        {
          "internalType": "uint256",
          "name": "",
          "type": "uint256"
        }
      ],
      "name": "accountAssets",
      "outputs": [
        {
          "internalType": "contract CTokenInterface",
          "name": "",
          "type": "address"
        }
      ],
      "stateMutability": "view",
      "type": "function"
    },
    {
      "inputs": [
        {
          "internalType": "address",
          "name": "flywheelAddress",
          "type": "address"
        }
      ],
      "name": "addNonAccruingFlywheel",
      "outputs": [
        {
          "internalType": "bool",
          "name": "",
          "type": "bool"
        }
      ],
      "stateMutability": "nonpayable",
      "type": "function"
    },
    {
      "inputs": [],
      "name": "admin",
      "outputs": [
        {
          "internalType": "address",
          "name": "",
          "type": "address"
        }
      ],
      "stateMutability": "view",
      "type": "function"
    },
    {
      "inputs": [],
      "name": "adminHasRights",
      "outputs": [
        {
          "internalType": "bool",
          "name": "",
          "type": "bool"
        }
      ],
      "stateMutability": "view",
      "type": "function"
    },
    {
      "inputs": [
        {
          "internalType": "uint256",
          "name": "",
          "type": "uint256"
        }
      ],
      "name": "allBorrowers",
      "outputs": [
        {
          "internalType": "address",
          "name": "",
          "type": "address"
        }
      ],
      "stateMutability": "view",
      "type": "function"
    },
    {
      "inputs": [
        {
          "internalType": "uint256",
          "name": "",
          "type": "uint256"
        }
      ],
      "name": "allMarkets",
      "outputs": [
        {
          "internalType": "contract CTokenInterface",
          "name": "",
          "type": "address"
        }
      ],
      "stateMutability": "view",
      "type": "function"
    },
    {
      "inputs": [],
      "name": "autoImplementation",
      "outputs": [
        {
          "internalType": "bool",
          "name": "",
          "type": "bool"
        }
      ],
      "stateMutability": "view",
      "type": "function"
    },
    {
      "inputs": [
        {
          "internalType": "address",
          "name": "",
          "type": "address"
        },
        {
          "internalType": "address",
          "name": "",
          "type": "address"
        }
      ],
      "name": "borrowCapForCollateral",
      "outputs": [
        {
          "internalType": "uint256",
          "name": "",
          "type": "uint256"
        }
      ],
      "stateMutability": "view",
      "type": "function"
    },
    {
      "inputs": [],
      "name": "borrowCapGuardian",
      "outputs": [
        {
          "internalType": "address",
          "name": "",
          "type": "address"
        }
      ],
      "stateMutability": "view",
      "type": "function"
    },
    {
      "inputs": [
        {
          "internalType": "address",
          "name": "",
          "type": "address"
        }
      ],
      "name": "borrowCaps",
      "outputs": [
        {
          "internalType": "uint256",
          "name": "",
          "type": "uint256"
        }
      ],
      "stateMutability": "view",
      "type": "function"
    },
    {
      "inputs": [
        {
          "internalType": "address",
          "name": "",
          "type": "address"
        }
      ],
      "name": "borrowGuardianPaused",
      "outputs": [
        {
          "internalType": "bool",
          "name": "",
          "type": "bool"
        }
      ],
      "stateMutability": "view",
      "type": "function"
    },
    {
      "inputs": [
        {
          "internalType": "address",
          "name": "",
          "type": "address"
        },
        {
          "internalType": "address",
          "name": "",
          "type": "address"
        }
      ],
      "name": "borrowingAgainstCollateralBlacklist",
      "outputs": [
        {
          "internalType": "bool",
          "name": "",
          "type": "bool"
        }
      ],
      "stateMutability": "view",
      "type": "function"
    },
    {
      "inputs": [
        {
          "internalType": "address",
          "name": "",
          "type": "address"
        }
      ],
      "name": "cTokensByUnderlying",
      "outputs": [
        {
          "internalType": "contract CTokenInterface",
          "name": "",
          "type": "address"
        }
      ],
      "stateMutability": "view",
      "type": "function"
    },
    {
      "inputs": [],
      "name": "closeFactorMantissa",
      "outputs": [
        {
          "internalType": "uint256",
          "name": "",
          "type": "uint256"
        }
      ],
      "stateMutability": "view",
      "type": "function"
    },
    {
      "inputs": [],
      "name": "comptrollerImplementation",
      "outputs": [
        {
          "internalType": "address",
          "name": "",
          "type": "address"
        }
      ],
      "stateMutability": "view",
      "type": "function"
    },
    {
      "inputs": [],
      "name": "enforceWhitelist",
      "outputs": [
        {
          "internalType": "bool",
          "name": "",
          "type": "bool"
        }
      ],
      "stateMutability": "view",
      "type": "function"
    },
    {
      "inputs": [],
      "name": "fuseAdmin",
      "outputs": [
        {
          "internalType": "address payable",
          "name": "",
          "type": "address"
        }
      ],
      "stateMutability": "view",
      "type": "function"
    },
    {
      "inputs": [],
      "name": "fuseAdminHasRights",
      "outputs": [
        {
          "internalType": "bool",
          "name": "",
          "type": "bool"
        }
      ],
      "stateMutability": "view",
      "type": "function"
    },
    {
      "inputs": [],
      "name": "getAccruingFlywheels",
      "outputs": [
        {
          "internalType": "address[]",
          "name": "",
          "type": "address[]"
        }
      ],
      "stateMutability": "view",
      "type": "function"
    },
    {
      "inputs": [],
      "name": "getAllBorrowers",
      "outputs": [
        {
          "internalType": "address[]",
          "name": "",
          "type": "address[]"
        }
      ],
      "stateMutability": "view",
      "type": "function"
    },
    {
      "inputs": [],
      "name": "getAllMarkets",
      "outputs": [
        {
          "internalType": "contract CTokenInterface[]",
          "name": "",
          "type": "address[]"
        }
      ],
      "stateMutability": "view",
      "type": "function"
    },
    {
      "inputs": [],
      "name": "getRewardsDistributors",
      "outputs": [
        {
          "internalType": "address[]",
          "name": "",
          "type": "address[]"
        }
      ],
      "stateMutability": "view",
      "type": "function"
    },
    {
      "inputs": [],
      "name": "getWhitelist",
      "outputs": [
        {
          "internalType": "address[]",
          "name": "",
          "type": "address[]"
        }
      ],
      "stateMutability": "view",
      "type": "function"
    },
    {
      "inputs": [
        {
          "internalType": "address",
          "name": "cToken",
          "type": "address"
        }
      ],
      "name": "getWhitelistedBorrowersBorrows",
      "outputs": [
        {
          "internalType": "uint256",
          "name": "borrowed",
          "type": "uint256"
        }
      ],
      "stateMutability": "view",
      "type": "function"
    },
    {
      "inputs": [
        {
          "internalType": "address",
          "name": "cToken",
          "type": "address"
        }
      ],
      "name": "getWhitelistedSuppliersSupply",
      "outputs": [
        {
          "internalType": "uint256",
          "name": "supplied",
          "type": "uint256"
        }
      ],
      "stateMutability": "view",
      "type": "function"
    },
    {
      "inputs": [
        {
          "internalType": "address",
          "name": "cTokenBorrow",
          "type": "address"
        },
        {
          "internalType": "address",
          "name": "cTokenCollateral",
          "type": "address"
        },
        {
          "internalType": "address",
          "name": "account",
          "type": "address"
        }
      ],
      "name": "isBlacklistBorrowingAgainstCollateralWhitelisted",
      "outputs": [
        {
          "internalType": "bool",
          "name": "",
          "type": "bool"
        }
      ],
      "stateMutability": "view",
      "type": "function"
    },
    {
      "inputs": [
        {
          "internalType": "address",
          "name": "cTokenBorrow",
          "type": "address"
        },
        {
          "internalType": "address",
          "name": "cTokenCollateral",
          "type": "address"
        },
        {
          "internalType": "address",
          "name": "account",
          "type": "address"
        }
      ],
      "name": "isBorrowCapForCollateralWhitelisted",
      "outputs": [
        {
          "internalType": "bool",
          "name": "",
          "type": "bool"
        }
      ],
      "stateMutability": "view",
      "type": "function"
    },
    {
      "inputs": [
        {
          "internalType": "address",
          "name": "cToken",
          "type": "address"
        },
        {
          "internalType": "address",
          "name": "account",
          "type": "address"
        }
      ],
      "name": "isBorrowCapWhitelisted",
      "outputs": [
        {
          "internalType": "bool",
          "name": "",
          "type": "bool"
        }
      ],
      "stateMutability": "view",
      "type": "function"
    },
    {
      "inputs": [
        {
          "internalType": "address",
          "name": "cToken",
          "type": "address"
        },
        {
          "internalType": "address",
          "name": "account",
          "type": "address"
        }
      ],
      "name": "isSupplyCapWhitelisted",
      "outputs": [
        {
          "internalType": "bool",
          "name": "",
          "type": "bool"
        }
      ],
      "stateMutability": "view",
      "type": "function"
    },
    {
      "inputs": [
        {
          "internalType": "address",
          "name": "user",
          "type": "address"
        }
      ],
      "name": "isUserOfPool",
      "outputs": [
        {
          "internalType": "bool",
          "name": "",
          "type": "bool"
        }
      ],
      "stateMutability": "view",
      "type": "function"
    },
    {
      "inputs": [],
      "name": "liquidationIncentiveMantissa",
      "outputs": [
        {
          "internalType": "uint256",
          "name": "",
          "type": "uint256"
        }
      ],
      "stateMutability": "view",
      "type": "function"
    },
    {
      "inputs": [
        {
          "internalType": "address",
          "name": "",
          "type": "address"
        }
      ],
      "name": "markets",
      "outputs": [
        {
          "internalType": "bool",
          "name": "isListed",
          "type": "bool"
        },
        {
          "internalType": "uint256",
          "name": "collateralFactorMantissa",
          "type": "uint256"
        }
      ],
      "stateMutability": "view",
      "type": "function"
    },
    {
      "inputs": [
        {
          "internalType": "address",
          "name": "",
          "type": "address"
        }
      ],
      "name": "mintGuardianPaused",
      "outputs": [
        {
          "internalType": "bool",
          "name": "",
          "type": "bool"
        }
      ],
      "stateMutability": "view",
      "type": "function"
    },
    {
      "inputs": [
        {
          "internalType": "uint256",
          "name": "",
          "type": "uint256"
        }
      ],
      "name": "nonAccruingRewardsDistributors",
      "outputs": [
        {
          "internalType": "address",
          "name": "",
          "type": "address"
        }
      ],
      "stateMutability": "view",
      "type": "function"
    },
    {
      "inputs": [],
      "name": "oracle",
      "outputs": [
        {
          "internalType": "contract PriceOracle",
          "name": "",
          "type": "address"
        }
      ],
      "stateMutability": "view",
      "type": "function"
    },
    {
      "inputs": [],
      "name": "pauseGuardian",
      "outputs": [
        {
          "internalType": "address",
          "name": "",
          "type": "address"
        }
      ],
      "stateMutability": "view",
      "type": "function"
    },
    {
      "inputs": [],
      "name": "pendingAdmin",
      "outputs": [
        {
          "internalType": "address",
          "name": "",
          "type": "address"
        }
      ],
      "stateMutability": "view",
      "type": "function"
    },
    {
      "inputs": [],
      "name": "pendingComptrollerImplementation",
      "outputs": [
        {
          "internalType": "address",
          "name": "",
          "type": "address"
        }
      ],
      "stateMutability": "view",
      "type": "function"
    },
    {
      "inputs": [
        {
          "internalType": "uint256",
          "name": "",
          "type": "uint256"
        }
      ],
      "name": "rewardsDistributors",
      "outputs": [
        {
          "internalType": "address",
          "name": "",
          "type": "address"
        }
      ],
      "stateMutability": "view",
      "type": "function"
    },
    {
      "inputs": [],
      "name": "seizeGuardianPaused",
      "outputs": [
        {
          "internalType": "bool",
          "name": "",
          "type": "bool"
        }
      ],
      "stateMutability": "view",
      "type": "function"
    },
    {
      "inputs": [
        {
          "internalType": "address",
          "name": "",
          "type": "address"
        }
      ],
      "name": "suppliers",
      "outputs": [
        {
          "internalType": "bool",
          "name": "",
          "type": "bool"
        }
      ],
      "stateMutability": "view",
      "type": "function"
    },
    {
      "inputs": [
        {
          "internalType": "address",
          "name": "",
          "type": "address"
        }
      ],
      "name": "supplyCaps",
      "outputs": [
        {
          "internalType": "uint256",
          "name": "",
          "type": "uint256"
        }
      ],
      "stateMutability": "view",
      "type": "function"
    },
    {
      "inputs": [],
      "name": "transferGuardianPaused",
      "outputs": [
        {
          "internalType": "bool",
          "name": "",
          "type": "bool"
        }
      ],
      "stateMutability": "view",
      "type": "function"
    },
    {
      "inputs": [
        {
          "internalType": "address",
          "name": "",
          "type": "address"
        }
      ],
      "name": "whitelist",
      "outputs": [
        {
          "internalType": "bool",
          "name": "",
          "type": "bool"
        }
      ],
      "stateMutability": "view",
      "type": "function"
    },
    {
      "inputs": [
        {
          "internalType": "uint256",
          "name": "",
          "type": "uint256"
        }
      ],
      "name": "whitelistArray",
      "outputs": [
        {
          "internalType": "address",
          "name": "",
          "type": "address"
        }
      ],
      "stateMutability": "view",
      "type": "function"
    }
  ],
  "transactionHash": "0x8b923139a5ba27b132b6667edc8719af35f5f31c441b6c24fdf1a57dbc04afa6",
  "args": [],
  "numDeployments": 7,
  "bytecode": {
    "object": "0x60806040526002805461ffff60a01b191661010160a01b17905534801561002557600080fd5b5061322c806100356000396000f3fe608060405234801561001057600080fd5b50600436106103d05760003560e01c8063731f0c2b116101ff578063be945a641161011a578063dcfbc0c7116100ad578063ee5b9a2f1161007c578063ee5b9a2f1461091d578063f851a44014610930578063f874eb0c14610943578063fb6243fa1461095657600080fd5b8063dcfbc0c7146108e0578063dd5cd22c146108f3578063e6653f3d14610900578063e87554461461091457600080fd5b8063d219fca7116100e9578063d219fca714610894578063d251fefc146108a7578063d9e0ea6b146108ba578063dce15449146108cd57600080fd5b8063be945a6414610853578063c6c5b0dd14610866578063c76ae26014610879578063d01f63f51461088c57600080fd5b8063940cd6f111610192578063b0772d0b11610161578063b0772d0b14610818578063b095721014610820578063b32538011461082d578063bb82aa5e1461084057600080fd5b8063940cd6f1146107a35780639b19251a146107ce578063a5fb4857146107f1578063ac0b0bb71461080457600080fd5b806387f76303116101ce57806387f763031461072357806389f8132e146107375780638e8f294b1461074c5780638ebf63641461079057600080fd5b8063731f0c2b146106c75780637515bafa146106ea5780637dc0d1d0146106fd578063819605a81461071057600080fd5b80633605b51b116102ef57806351a485e411610282578063607ef6c111610251578063607ef6c11461066b578063692fd2a91461067e5780636bd02b8a146106915780636d154ea5146106a457600080fd5b806351a485e41461061f57806351c8491d1461063257806352d84d1e146106455780635f5af1aa1461065857600080fd5b80633c94786f116102be5780633c94786f146105da5780634a584432146105ee5780634a76e7271461060e5780634ada90af1461061657600080fd5b80633605b51b14610597578063391957d71461059f5780633a72cb5e146105b45780633bcf7ec1146105c757600080fd5b806321af4569116103675780632d70db78116103365780632d70db78146105325780632f1069ba1461054557806331ff47fa1461055957806332abcdbe1461058257600080fd5b806321af4569146104e15780632273f40e146104f957806324a3d6221461050c578063267822471461051f57600080fd5b806315761d51116103a357806315761d511461045257806316dc15fe1461047d57806318c882a5146104a05780631c819e43146104b357600080fd5b806302c3bcbb146103d5578063088e0fce146104085780630a755ec21461042b578063109908ce1461043f575b600080fd5b6103f56103e3366004612d02565b601a6020526000908152604090205481565b6040519081526020015b60405180910390f35b61041b610416366004612d1f565b610969565b60405190151581526020016103ff565b60025461041b90600160a81b900460ff1681565b61041b61044d366004612d02565b6109a0565b600054610465906001600160a01b031681565b6040516001600160a01b0390911681526020016103ff565b61041b61048b366004612d02565b600f6020526000908152604090205460ff1681565b61041b6104ae366004612d7f565b610bfe565b61041b6104c1366004612db4565b601f60209081526000928352604080842090915290825290205460ff1681565b6018546104659061010090046001600160a01b031681565b61041b610507366004612db4565b610d44565b601554610465906001600160a01b031681565b600254610465906001600160a01b031681565b61041b610540366004612ded565b610d6d565b60025461041b90600160a01b900460ff1681565b610465610567366004612d02565b6010602052600090815260409020546001600160a01b031681565b61058a610e50565b6040516103ff9190612e08565b61058a610eb2565b6105b26105ad366004612d02565b61101a565b005b6103f56105c2366004612d02565b6110af565b61041b6105d5366004612d7f565b61119a565b60155461041b90600160a01b900460ff1681565b6103f56105fc366004612d02565b60196020526000908152604090205481565b61058a6112ed565b6103f560075481565b6105b261062d366004612ea1565b61134d565b6105b2610640366004612f0d565b6114db565b610465610653366004612f54565b61154f565b6103f5610666366004612d02565b611579565b6105b2610679366004612ea1565b6115f9565b61041b61068c366004612d02565b61177e565b61046561069f366004612f54565b611919565b61041b6106b2366004612d02565b60176020526000908152604090205460ff1681565b61041b6106d5366004612d02565b60166020526000908152604090205460ff1681565b6104656106f8366004612f54565b611929565b600554610465906001600160a01b031681565b6103f561071e366004612d02565b611939565b60155461041b90600160b01b900460ff1681565b61073f611c6f565b6040516103ff9190612f6d565b61077961075a366004612d02565b600a602052600090815260409020805460019091015460ff9091169082565b6040805192151583526020830191909152016103ff565b61041b61079e366004612ded565b612447565b6103f56107b1366004612db4565b601e60209081526000928352604080842090915290825290205481565b61041b6107dc366004612d02565b60126020526000908152604090205460ff1681565b6105b26107ff366004612faf565b612521565b60155461041b90600160b81b900460ff1681565b61058a612571565b60115461041b9060ff1681565b61041b61083b366004612db4565b6125d1565b600354610465906001600160a01b031681565b6105b2610861366004612f0d565b6125f3565b610465610874366004612f54565b612661565b6105b2610887366004612ff0565b612671565b61058a612706565b6105b26108a2366004612ff0565b612766565b6104656108b5366004612f54565b6127ea565b61041b6108c8366004612d02565b6127fa565b6104656108db36600461304a565b61287b565b600454610465906001600160a01b031681565b60185461041b9060ff1681565b60155461041b90600160a81b900460ff1681565b6103f560065481565b6105b261092b366004612f0d565b6128b3565b600154610465906001600160a01b031681565b61041b610951366004612d1f565b612911565b6103f5610964366004612d02565b612942565b6001600160a01b0380841660009081526020808052604080832093861683529290529081206109989083612a26565b949350505050565b60006109aa612a48565b6109cf5760405162461bcd60e51b81526004016109c690613076565b60405180910390fd5b6001600160a01b038216610a115760405162461bcd60e51b815260206004820152600960248201526808599b1e5dda19595b60ba1b60448201526064016109c6565b60005b601b54811015610b1857601b8181548110610a3157610a31613096565b6000918252602090912001546001600160a01b0384811691161415610b0657601b8054610a60906001906130c2565b81548110610a7057610a70613096565b600091825260209091200154601b80546001600160a01b039092169183908110610a9c57610a9c613096565b9060005260206000200160006101000a8154816001600160a01b0302191690836001600160a01b03160217905550601b805480610adb57610adb6130d9565b600082815260209020810160001990810180546001600160a01b031916905501905550600192915050565b80610b10816130ef565b915050610a14565b5060005b601d54811015610bf557601d8181548110610b3957610b39613096565b6000918252602090912001546001600160a01b0384811691161415610be357601d8054610b68906001906130c2565b81548110610b7857610b78613096565b600091825260209091200154601d80546001600160a01b039092169183908110610ba457610ba4613096565b9060005260206000200160006101000a8154816001600160a01b0302191690836001600160a01b03160217905550601d805480610adb57610adb6130d9565b80610bed816130ef565b915050610b1c565b50600092915050565b6001600160a01b0382166000908152600a602052604081205460ff16610c505760405162461bcd60e51b8152602060048201526007602482015266085b585c9ad95d60ca1b60448201526064016109c6565b6015546001600160a01b0316331480610c6c5750610c6c612a48565b610c885760405162461bcd60e51b81526004016109c69061310a565b610c90612a48565b80610c9d57506001821515145b610cb95760405162461bcd60e51b81526004016109c690613076565b6001600160a01b038316600081815260176020908152604091829020805460ff19168615159081179091558251938452606091840182905260069184019190915265426f72726f7760d01b6080840152908201527f4ab2c577b7459254dd330a38beef1d66ae70ba1ab28db7147d52d3a752a03cdc9060a0015b60405180910390a150805b92915050565b6001600160a01b0382166000908152602260205260408120610d669083612a26565b9392505050565b6015546000906001600160a01b0316331480610d8c5750610d8c612a48565b610da85760405162461bcd60e51b81526004016109c69061310a565b610db0612a48565b80610dbd57506001821515145b610dd95760405162461bcd60e51b81526004016109c690613076565b60158054831515600160b81b0260ff60b81b199091161790556040517fef159d9a32b2472e32b098f954f3ce62d232939f1c207070b584df1814de2de090610e449084906040808252600590820152645365697a6560d81b6060820152901515602082015260800190565b60405180910390a15090565b6060600d805480602002602001604051908101604052809291908181526020018280548015610ea857602002820191906000526020600020905b81546001600160a01b03168152600190910190602001808311610e8a575b5050505050905090565b601d54601b54606091600091610ec8919061312d565b67ffffffffffffffff811115610ee057610ee0613145565b604051908082528060200260200182016040528015610f09578160200160208202803683370190505b50905060005b601b5460ff82161015610f8f57601b8160ff1681548110610f3257610f32613096565b9060005260206000200160009054906101000a90046001600160a01b0316828260ff1681518110610f6557610f65613096565b6001600160a01b039092166020928302919091019091015280610f878161315b565b915050610f0f565b60005b601d5460ff8216101561101257601d8160ff1681548110610fb557610fb5613096565b6000918252602090912001546001600160a01b031683610fd5838561317b565b60ff1681518110610fe857610fe8613096565b6001600160a01b03909216602092830291909101909101528061100a8161315b565b915050610f92565b509092915050565b6001546001600160a01b031633146110445760405162461bcd60e51b81526004016109c690613076565b601880546001600160a01b03838116610100818102610100600160a81b031985161790945560408051949093049091168084526020840191909152917feda98690e518e9a05f8ec6837663e188211b2da8f4906648b323f2c1d4434e29910160405180910390a15050565b6001600160a01b038116600090815260236020526040812081906110d290612a9c565b905060005b815181101561119357836001600160a01b03166395dd919383838151811061110157611101613096565b60200260200101516040518263ffffffff1660e01b815260040161113491906001600160a01b0391909116815260200190565b602060405180830381865afa158015611151573d6000803e3d6000fd5b505050506040513d601f19601f8201168201806040525081019061117591906131a0565b61117f908461312d565b92508061118b816130ef565b9150506110d7565b5050919050565b6001600160a01b0382166000908152600a602052604081205460ff166111ec5760405162461bcd60e51b8152602060048201526007602482015266085b585c9ad95d60ca1b60448201526064016109c6565b6015546001600160a01b03163314806112085750611208612a48565b6112405760405162461bcd60e51b815260206004820152600960248201526810b3b0bab93234b0b760b91b60448201526064016109c6565b611248612a48565b8061125557506001821515145b6112715760405162461bcd60e51b81526004016109c690613076565b6001600160a01b038316600081815260166020908152604091829020805460ff19168615159081179091558251938452606091840182905260049184019190915263135a5b9d60e21b6080840152908201527f4ab2c577b7459254dd330a38beef1d66ae70ba1ab28db7147d52d3a752a03cdc9060a001610d33565b6060601b805480602002602001604051908101604052809291908181526020018280548015610ea8576020028201919060005260206000209081546001600160a01b03168152600190910190602001808311610e8a575050505050905090565b6001546001600160a01b0316331480611375575060185461010090046001600160a01b031633145b6113915760405162461bcd60e51b81526004016109c690613076565b828181158015906113a157508082145b6113d65760405162461bcd60e51b8152602060048201526006602482015265085a5b9c1d5d60d21b60448201526064016109c6565b60005b828110156114d2578484828181106113f3576113f3613096565b90506020020135601a600089898581811061141057611410613096565b90506020020160208101906114259190612d02565b6001600160a01b0316815260208101919091526040016000205586868281811061145157611451613096565b90506020020160208101906114669190612d02565b6001600160a01b03167f9e0ad9cee10bdf36b7fbd38910c0bdff0f275ace679b45b922381c2723d676f88686848181106114a2576114a2613096565b905060200201356040516114b891815260200190565b60405180910390a2806114ca816130ef565b9150506113d9565b50505050505050565b6114e3612a48565b6114ff5760405162461bcd60e51b81526004016109c690613076565b801561152d576001600160a01b03831660009081526022602052604090206115279083612aa9565b50505050565b6001600160a01b03831660009081526022602052604090206115279083612abe565b600b818154811061155f57600080fd5b6000918252602090912001546001600160a01b0316905081565b6000611583612a48565b61159357610d3e60016017612ad3565b601580546001600160a01b038481166001600160a01b031983168117909355604080519190921680825260208201939093527f0613b6ee6a04f0d09f390e4d9318894b9f6ac7fd83897cd8d18896ba579c401e910160405180910390a160009392505050565b6001546001600160a01b0316331480611621575060185461010090046001600160a01b031633145b61163d5760405162461bcd60e51b81526004016109c690613076565b8281811580159061164d57508082145b6116825760405162461bcd60e51b8152602060048201526006602482015265085a5b9c1d5d60d21b60448201526064016109c6565b60005b828110156114d25784848281811061169f5761169f613096565b90506020020135601960008989858181106116bc576116bc613096565b90506020020160208101906116d19190612d02565b6001600160a01b031681526020810191909152604001600020558686828181106116fd576116fd613096565b90506020020160208101906117129190612d02565b6001600160a01b03167f6f1951b2aad10f3fc81b86d91105b413a5b3f847a34bbc5ce1904201b14438f686868481811061174e5761174e613096565b9050602002013560405161176491815260200190565b60405180910390a280611776816130ef565b915050611685565b6000611788612a48565b6117a45760405162461bcd60e51b81526004016109c690613076565b6001600160a01b0382166117e65760405162461bcd60e51b815260206004820152600960248201526808599b1e5dda19595b60ba1b60448201526064016109c6565b60005b601d5481101561186f57601d818154811061180657611806613096565b6000918252602090912001546001600160a01b038481169116141561185d5760405162461bcd60e51b815260206004820152600d60248201526c08585b1c9958591e5859191959609a1b60448201526064016109c6565b80611867816130ef565b9150506117e9565b50601d805460018101825560009182527f6d4407e7be21f808e6509aa9fa9143369579dd7d760fe20a2c09680fc146134f0180546001600160a01b0319166001600160a01b0385161790555b601b54811015610bf557601b81815481106118d8576118d8613096565b6000918252602090912001546001600160a01b038481169116141561190757601b8054610a60906001906130c2565b80611911816130ef565b9150506118bb565b601d818154811061155f57600080fd5b600d818154811061155f57600080fd5b6000611943612a48565b61195357610d3e60016018612ad3565b6001600160a01b0382166000908152600a602052604090205460ff1661197f57610d3e60086019612ad3565b6000826001600160a01b03166318160ddd6040518163ffffffff1660e01b8152600401602060405180830381865afa1580156119bf573d6000803e3d6000fd5b505050506040513d601f19601f820116820180604052508101906119e391906131a0565b11156119f557610d3e6014601a612ad3565b6001600160a01b0382166000908152600a60209081526040808320805460ff19168155600101839055600b80548251818502810185019093528083529192909190830182828015611a6f57602002820191906000526020600020905b81546001600160a01b03168152600190910190602001808311611a51575b5050835193945083925060009150505b82811015611ad457856001600160a01b0316848281518110611aa357611aa3613096565b60200260200101516001600160a01b03161415611ac257809150611ad4565b80611acc816130ef565b915050611a7f565b50818110611ae457611ae46131cf565b600b8054611af4906001906130c2565b81548110611b0457611b04613096565b600091825260209091200154600b80546001600160a01b039092169183908110611b3057611b30613096565b9060005260206000200160006101000a8154816001600160a01b0302191690836001600160a01b03160217905550600b805480611b6f57611b6f6130d9565b6001900381819060005260206000200160006101000a8154906001600160a01b0302191690559055600060106000876001600160a01b0316636f307dc36040518163ffffffff1660e01b8152600401602060405180830381865afa158015611bdb573d6000803e3d6000fd5b505050506040513d601f19601f82011682018060405250810190611bff91906131e5565b6001600160a01b039081168252602080830193909352604091820160002080546001600160a01b031916948216949094179093555191871682527f302feb03efd5741df80efe7f97f5d93d74d46a542a3d312d0faae64fa1f3e0e9910160405180910390a1600095945050505050565b60408051601d8082526103c082019092526060919060009082602082016103a08036833701905050905063692fd2a960e01b81611cab84613202565b93508360ff1681518110611cc157611cc1613096565b6001600160e01b031990921660209283029190910190910152631469217960e21b81611cec84613202565b93508360ff1681518110611d0257611d02613096565b6001600160e01b03199092166020928302919091019091015263607ef6c160e01b81611d2d84613202565b93508360ff1681518110611d4357611d43613096565b6001600160e01b03199092166020928302919091019091015263d219fca760e01b81611d6e84613202565b93508360ff1681518110611d8457611d84613096565b6001600160e01b03199092166020928302919091019091015263063b571360e51b81611daf84613202565b93508360ff1681518110611dc557611dc5613096565b6001600160e01b0319909216602092830291909101909101526351c8491d60e01b81611df084613202565b93508360ff1681518110611e0657611e06613096565b6001600160e01b031990921660209283029190910190910152632fa5169960e21b81611e3184613202565b93508360ff1681518110611e4757611e47613096565b6001600160e01b03199092166020928302919091019091015263391957d760e01b81611e7284613202565b93508360ff1681518110611e8857611e88613096565b6001600160e01b031990921660209283029190910190910152632fad78d560e11b81611eb384613202565b93508360ff1681518110611ec957611ec9613096565b6001600160e01b031990921660209283029190910190910152633bcf7ec160e01b81611ef484613202565b93508360ff1681518110611f0a57611f0a613096565b6001600160e01b0319909216602092830291909101909101526318c882a560e01b81611f3584613202565b93508360ff1681518110611f4b57611f4b613096565b6001600160e01b0319909216602092830291909101909101526323afd8d960e21b81611f7684613202565b93508360ff1681518110611f8c57611f8c613096565b6001600160e01b0319909216602092830291909101909101526305ae1b6f60e31b81611fb784613202565b93508360ff1681518110611fcd57611fcd613096565b6001600160e01b031990921660209283029190910190910152631032c0b560e31b81611ff884613202565b93508360ff168151811061200e5761200e613096565b6001600160e01b03199092166020928302919091019091015263b0772d0b60e01b8161203984613202565b93508360ff168151811061204f5761204f613096565b6001600160e01b031990921660209283029190910190910152631955e6df60e11b8161207a84613202565b93508360ff168151811061209057612090613096565b6001600160e01b03199092166020928302919091019091015263d01f63f560e01b816120bb84613202565b93508360ff16815181106120d1576120d1613096565b6001600160e01b031990921660209283029190910190910152633605b51b60e01b816120fc84613202565b93508360ff168151811061211257612112613096565b6001600160e01b03199092166020928302919091019091015263d9e0ea6b60e01b8161213d84613202565b93508360ff168151811061215357612153613096565b6001600160e01b031990921660209283029190910190910152634a76e72760e01b8161217e84613202565b93508360ff168151811061219457612194613096565b6001600160e01b03199092166020928302919091019091015263084c846760e11b816121bf84613202565b93508360ff16815181106121d5576121d5613096565b6001600160e01b03199092166020928302919091019091015263a5fb485760e01b8161220084613202565b93508360ff168151811061221657612216613096565b6001600160e01b03199092166020928302919091019091015263ee5b9a2f60e01b8161224184613202565b93508360ff168151811061225757612257613096565b6001600160e01b03199092166020928302919091019091015263044707e760e11b8161228284613202565b93508360ff168151811061229857612298613096565b6001600160e01b031990921660209283029190910190910152633e1d3ac360e21b816122c384613202565b93508360ff16815181106122d9576122d9613096565b6001600160e01b031990921660209283029190910190910152631139fa0760e11b8161230484613202565b93508360ff168151811061231a5761231a613096565b6001600160e01b03199092166020928302919091019091015263b325380160e01b8161234584613202565b93508360ff168151811061235b5761235b613096565b6001600160e01b031990921660209283029190910190910152637db121fd60e11b8161238684613202565b93508360ff168151811061239c5761239c613096565b6001600160e01b031990921660209283029190910190910152631d3965af60e11b816123c784613202565b93508360ff16815181106123dd576123dd613096565b6001600160e01b03199092166020928302919091019091015260ff821615610d3e5760405162461bcd60e51b815260206004820152601c60248201527f7573652074686520636f7272656374206172726179206c656e6774680000000060448201526064016109c6565b6015546000906001600160a01b03163314806124665750612466612a48565b6124825760405162461bcd60e51b81526004016109c69061310a565b61248a612a48565b8061249757506001821515145b6124b35760405162461bcd60e51b81526004016109c690613076565b60158054831515600160b01b0260ff60b01b199091161790556040517fef159d9a32b2472e32b098f954f3ce62d232939f1c207070b584df1814de2de090610e449084906040808252600890820152672a3930b739b332b960c11b6060820152901515602082015260800190565b612529612a48565b6125455760405162461bcd60e51b81526004016109c690613076565b6001600160a01b039283166000908152601e602090815260408083209490951682529290925291902055565b6060600b805480602002602001604051908101604052809291908181526020018280548015610ea8576020028201919060005260206000209081546001600160a01b03168152600190910190602001808311610e8a575050505050905090565b6001600160a01b0382166000908152602360205260408120610d669083612a26565b6125fb612a48565b6126175760405162461bcd60e51b81526004016109c690613076565b801561263f576001600160a01b03831660009081526023602052604090206115279083612aa9565b6001600160a01b03831660009081526023602052604090206115279083612abe565b601b818154811061155f57600080fd5b612679612a48565b6126955760405162461bcd60e51b81526004016109c690613076565b80156126d0576001600160a01b0380851660009081526021602090815260408083209387168352929052206126ca9083612aa9565b50611527565b6001600160a01b0380851660009081526021602090815260408083209387168352929052206126ff9083612abe565b5050505050565b60606013805480602002602001604051908101604052809291908181526020018280548015610ea8576020028201919060005260206000209081546001600160a01b03168152600190910190602001808311610e8a575050505050905090565b61276e612a48565b61278a5760405162461bcd60e51b81526004016109c690613076565b80156127bd576001600160a01b038085166000908152602080805260408083209387168352929052206126ca9083612aa9565b6001600160a01b038085166000908152602080805260408083209387168352929052206126ff9083612abe565b6013818154811061155f57600080fd5b6000805b600b54811015610bf5576000600b828154811061281d5761281d613096565b60009182526020808320909101546001600160a01b03908116808452600a83526040808520928916855260029092019092529091205490915060ff1615612868575060019392505050565b5080612873816130ef565b9150506127fe565b6009602052816000526040600020818154811061289757600080fd5b6000918252602090912001546001600160a01b03169150829050565b6128bb612a48565b6128d75760405162461bcd60e51b81526004016109c690613076565b6001600160a01b039283166000908152601f6020908152604080832094909516825292909252919020805460ff1916911515919091179055565b6001600160a01b03808416600090815260216020908152604080832093861683529290529081206109989083612a26565b6001600160a01b0381166000908152602260205260408120819061296590612a9c565b905060005b815181101561119357836001600160a01b031663f3b1315383838151811061299457612994613096565b60200260200101516040518263ffffffff1660e01b81526004016129c791906001600160a01b0391909116815260200190565b602060405180830381865afa1580156129e4573d6000803e3d6000fd5b505050506040513d601f19601f82011682018060405250810190612a0891906131a0565b612a12908461312d565b925080612a1e816130ef565b91505061296a565b6001600160a01b03811660009081526001830160205260408120541515610d66565b6001546000906001600160a01b031633148015612a6e5750600254600160a81b900460ff165b80612a9757506000546001600160a01b031633148015612a975750600254600160a01b900460ff165b905090565b60606000610d6683612b4c565b6000610d66836001600160a01b038416612ba8565b6000610d66836001600160a01b038416612bf7565b60007f45b96fe442630264581b197e84bbada861235052c5a1aadfff9ea4e40a969aa0836014811115612b0857612b086131b9565b83601a811115612b1a57612b1a6131b9565b60408051928352602083019190915260009082015260600160405180910390a1826014811115610d6657610d666131b9565b606081600001805480602002602001604051908101604052809291908181526020018280548015612b9c57602002820191906000526020600020905b815481526020019060010190808311612b88575b50505050509050919050565b6000818152600183016020526040812054612bef57508154600181810184556000848152602080822090930184905584548482528286019093526040902091909155610d3e565b506000610d3e565b60008181526001830160205260408120548015612ce0576000612c1b6001836130c2565b8554909150600090612c2f906001906130c2565b9050818114612c94576000866000018281548110612c4f57612c4f613096565b9060005260206000200154905080876000018481548110612c7257612c72613096565b6000918252602080832090910192909255918252600188019052604090208390555b8554869080612ca557612ca56130d9565b600190038181906000526020600020016000905590558560010160008681526020019081526020016000206000905560019350505050610d3e565b6000915050610d3e565b6001600160a01b0381168114612cff57600080fd5b50565b600060208284031215612d1457600080fd5b8135610d6681612cea565b600080600060608486031215612d3457600080fd5b8335612d3f81612cea565b92506020840135612d4f81612cea565b91506040840135612d5f81612cea565b809150509250925092565b80358015158114612d7a57600080fd5b919050565b60008060408385031215612d9257600080fd5b8235612d9d81612cea565b9150612dab60208401612d6a565b90509250929050565b60008060408385031215612dc757600080fd5b8235612dd281612cea565b91506020830135612de281612cea565b809150509250929050565b600060208284031215612dff57600080fd5b610d6682612d6a565b6020808252825182820181905260009190848201906040850190845b81811015612e495783516001600160a01b031683529284019291840191600101612e24565b50909695505050505050565b60008083601f840112612e6757600080fd5b50813567ffffffffffffffff811115612e7f57600080fd5b6020830191508360208260051b8501011115612e9a57600080fd5b9250929050565b60008060008060408587031215612eb757600080fd5b843567ffffffffffffffff80821115612ecf57600080fd5b612edb88838901612e55565b90965094506020870135915080821115612ef457600080fd5b50612f0187828801612e55565b95989497509550505050565b600080600060608486031215612f2257600080fd5b8335612f2d81612cea565b92506020840135612f3d81612cea565b9150612f4b60408501612d6a565b90509250925092565b600060208284031215612f6657600080fd5b5035919050565b6020808252825182820181905260009190848201906040850190845b81811015612e495783516001600160e01b03191683529284019291840191600101612f89565b600080600060608486031215612fc457600080fd5b8335612fcf81612cea565b92506020840135612fdf81612cea565b929592945050506040919091013590565b6000806000806080858703121561300657600080fd5b843561301181612cea565b9350602085013561302181612cea565b9250604085013561303181612cea565b915061303f60608601612d6a565b905092959194509250565b6000806040838503121561305d57600080fd5b823561306881612cea565b946020939093013593505050565b60208082526006908201526510b0b236b4b760d11b604082015260600190565b634e487b7160e01b600052603260045260246000fd5b634e487b7160e01b600052601160045260246000fd5b6000828210156130d4576130d46130ac565b500390565b634e487b7160e01b600052603160045260246000fd5b6000600019821415613103576131036130ac565b5060010190565b60208082526009908201526810b3bab0b93234b0b760b91b604082015260600190565b60008219821115613140576131406130ac565b500190565b634e487b7160e01b600052604160045260246000fd5b600060ff821660ff811415613172576131726130ac565b60010192915050565b600060ff821660ff84168060ff03821115613198576131986130ac565b019392505050565b6000602082840312156131b257600080fd5b5051919050565b634e487b7160e01b600052602160045260246000fd5b634e487b7160e01b600052600160045260246000fd5b6000602082840312156131f757600080fd5b8151610d6681612cea565b600060ff821680613215576132156130ac565b600019019291505056fea164736f6c634300080a000a",
    "linkReferences": {}
  },
  "methodIdentifiers": {
    "_blacklistBorrowingAgainstCollateral(address,address,bool)": "ee5b9a2f",
    "_blacklistBorrowingAgainstCollateralWhitelist(address,address,address,bool)": "c76ae260",
    "_borrowCapWhitelist(address,address,bool)": "be945a64",
    "_borrowGuardianPaused()": "e6653f3d",
    "_getExtensionFunctions()": "89f8132e",
    "_mintGuardianPaused()": "3c94786f",
    "_removeFlywheel(address)": "109908ce",
    "_setBorrowCapForCollateral(address,address,uint256)": "a5fb4857",
    "_setBorrowCapForCollateralWhitelist(address,address,address,bool)": "d219fca7",
    "_setBorrowCapGuardian(address)": "391957d7",
    "_setBorrowPaused(address,bool)": "18c882a5",
    "_setMarketBorrowCaps(address[],uint256[])": "607ef6c1",
    "_setMarketSupplyCaps(address[],uint256[])": "51a485e4",
    "_setMintPaused(address,bool)": "3bcf7ec1",
    "_setPauseGuardian(address)": "5f5af1aa",
    "_setSeizePaused(bool)": "2d70db78",
    "_setTransferPaused(bool)": "8ebf6364",
    "_supplyCapWhitelist(address,address,bool)": "51c8491d",
    "_unsupportMarket(address)": "819605a8",
    "accountAssets(address,uint256)": "dce15449",
    "addNonAccruingFlywheel(address)": "692fd2a9",
    "admin()": "f851a440",
    "adminHasRights()": "0a755ec2",
    "allBorrowers(uint256)": "7515bafa",
    "allMarkets(uint256)": "52d84d1e",
    "autoImplementation()": "dd5cd22c",
    "borrowCapForCollateral(address,address)": "940cd6f1",
    "borrowCapGuardian()": "21af4569",
    "borrowCaps(address)": "4a584432",
    "borrowGuardianPaused(address)": "6d154ea5",
    "borrowingAgainstCollateralBlacklist(address,address)": "1c819e43",
    "cTokensByUnderlying(address)": "31ff47fa",
    "closeFactorMantissa()": "e8755446",
    "comptrollerImplementation()": "bb82aa5e",
    "enforceWhitelist()": "b0957210",
    "fuseAdmin()": "15761d51",
    "fuseAdminHasRights()": "2f1069ba",
    "getAccruingFlywheels()": "4a76e727",
    "getAllBorrowers()": "32abcdbe",
    "getAllMarkets()": "b0772d0b",
    "getRewardsDistributors()": "3605b51b",
    "getWhitelist()": "d01f63f5",
    "getWhitelistedBorrowersBorrows(address)": "3a72cb5e",
    "getWhitelistedSuppliersSupply(address)": "fb6243fa",
    "isBlacklistBorrowingAgainstCollateralWhitelisted(address,address,address)": "f874eb0c",
    "isBorrowCapForCollateralWhitelisted(address,address,address)": "088e0fce",
    "isBorrowCapWhitelisted(address,address)": "b3253801",
    "isSupplyCapWhitelisted(address,address)": "2273f40e",
    "isUserOfPool(address)": "d9e0ea6b",
    "liquidationIncentiveMantissa()": "4ada90af",
    "markets(address)": "8e8f294b",
    "mintGuardianPaused(address)": "731f0c2b",
    "nonAccruingRewardsDistributors(uint256)": "6bd02b8a",
    "oracle()": "7dc0d1d0",
    "pauseGuardian()": "24a3d622",
    "pendingAdmin()": "26782247",
    "pendingComptrollerImplementation()": "dcfbc0c7",
    "rewardsDistributors(uint256)": "c6c5b0dd",
    "seizeGuardianPaused()": "ac0b0bb7",
    "suppliers(address)": "16dc15fe",
    "supplyCaps(address)": "02c3bcbb",
    "transferGuardianPaused()": "87f76303",
    "whitelist(address)": "9b19251a",
    "whitelistArray(uint256)": "d251fefc"
  }
}