{
  "address": "0xc7B7648669fc1129Dd5B4799217EedBCFa88A867",
  "abi": [
    {
      "inputs": [
        {
          "internalType": "contract IERC20Upgradeable",
          "name": "inputToken",
          "type": "address"
        },
        {
          "internalType": "uint256",
          "name": "inputAmount",
          "type": "uint256"
        },
        {
          "internalType": "bytes",
          "name": "strategyData",
          "type": "bytes"
        }
      ],
      "name": "redeem",
      "outputs": [
        {
          "internalType": "contract IERC20Upgradeable",
          "name": "outputToken",
          "type": "address"
        },
        {
          "internalType": "uint256",
          "name": "outputAmount",
          "type": "uint256"
        }
      ],
      "stateMutability": "nonpayable",
      "type": "function"
    }
  ],
  "transactionHash": "0xc3cb26c1241edc278c03347c28dcff1bc99c24f2940df728203293cf95580897",
  "args": [],
  "numDeployments": 2,
  "bytecode": {
    "object": "0x608060405234801561001057600080fd5b506103fc806100206000396000f3fe608060405234801561001057600080fd5b506004361061002b5760003560e01c806310badf4e14610030575b600080fd5b61004361003e366004610280565b610066565b604080516001600160a01b03909316835260208301919091520160405180910390f35b60008060008060008086806020019051810190610083919061034d565b60405163988b1fa760e01b81526001600160a01b038e81166004830152949850929650909450925082916000919083169063988b1fa790602401602060405180830381865afa1580156100da573d6000803e3d6000fd5b505050506040513d601f19601f820116820180604052508101906100fe91906103b2565b604051630d2680e960e11b8152600481018c9052600088900b6024820152600160448201529091506001600160a01b03821690631a4d01d290606401600060405180830381600087803b15801561015457600080fd5b505af1158015610168573d6000803e3d6000fd5b505050506001600160a01b0385166101d657836001600160a01b031663d0e30db0476040518263ffffffff1660e01b81526004016000604051808303818588803b1580156101b557600080fd5b505af11580156101c9573d6000803e3d6000fd5b50505050508397506101da565b8497505b6040516370a0823160e01b81523060048201526001600160a01b038916906370a0823190602401602060405180830381865afa15801561021e573d6000803e3d6000fd5b505050506040513d601f19601f8201168201806040525081019061024291906103d6565b9650505050505050935093915050565b6001600160a01b038116811461026757600080fd5b50565b634e487b7160e01b600052604160045260246000fd5b60008060006060848603121561029557600080fd5b83356102a081610252565b925060208401359150604084013567ffffffffffffffff808211156102c457600080fd5b818601915086601f8301126102d857600080fd5b8135818111156102ea576102ea61026a565b604051601f8201601f19908116603f011681019083821181831017156103125761031261026a565b8160405282815289602084870101111561032b57600080fd5b8260208601602083013760006020848301015280955050505050509250925092565b6000806000806080858703121561036357600080fd5b845160ff8116811461037457600080fd5b602086015190945061038581610252565b604086015190935061039681610252565b60608601519092506103a781610252565b939692955090935050565b6000602082840312156103c457600080fd5b81516103cf81610252565b9392505050565b6000602082840312156103e857600080fd5b505191905056fea164736f6c634300080a000a",
    "linkReferences": {}
  },
  "methodIdentifiers": {
    "redeem(address,uint256,bytes)": "10badf4e"
  }
}