{
  "address": "0x1014Cb7eCFade62956648E7fC44f25243ab1823e",
  "abi": [
    {
      "anonymous": false,
      "inputs": [
        {
          "indexed": false,
          "internalType": "uint8",
          "name": "version",
          "type": "uint8"
        }
      ],
      "name": "Initialized",
      "type": "event"
    },
    {
      "inputs": [],
      "name": "factory",
      "outputs": [
        {
          "internalType": "contract ILeveredPositionFactory",
          "name": "",
          "type": "address"
        }
      ],
      "stateMutability": "view",
      "type": "function"
    },
    {
      "inputs": [
        {
          "internalType": "contract ICErc20",
          "name": "_collateralMarket",
          "type": "address"
        },
        {
          "internalType": "contract ICErc20",
          "name": "_stableMarket",
          "type": "address"
        },
        {
          "internalType": "uint256",
          "name": "_equityAmount",
          "type": "uint256"
        },
        {
          "internalType": "uint256",
          "name": "_targetLeverageRatio",
          "type": "uint256"
        }
      ],
      "name": "getBorrowRateAtRatio",
      "outputs": [
        {
          "internalType": "uint256",
          "name": "",
          "type": "uint256"
        }
      ],
      "stateMutability": "view",
      "type": "function"
    },
    {
      "inputs": [
        {
          "internalType": "contract ICErc20",
          "name": "_collateralMarket",
          "type": "address"
        }
      ],
      "name": "getBorrowableMarketsAndRates",
      "outputs": [
        {
          "internalType": "address[]",
          "name": "markets",
          "type": "address[]"
        },
        {
          "internalType": "address[]",
          "name": "underlyings",
          "type": "address[]"
        },
        {
          "internalType": "uint256[]",
          "name": "underlyingsPrices",
          "type": "uint256[]"
        },
        {
          "internalType": "string[]",
          "name": "names",
          "type": "string[]"
        },
        {
          "internalType": "string[]",
          "name": "symbols",
          "type": "string[]"
        },
        {
          "internalType": "uint256[]",
          "name": "rates",
          "type": "uint256[]"
        },
        {
          "internalType": "uint8[]",
          "name": "decimals",
          "type": "uint8[]"
        }
      ],
      "stateMutability": "view",
      "type": "function"
    },
    {
      "inputs": [],
      "name": "getCollateralMarkets",
      "outputs": [
        {
          "internalType": "address[]",
          "name": "markets",
          "type": "address[]"
        },
        {
          "internalType": "contract IComptroller[]",
          "name": "poolOfMarket",
          "type": "address[]"
        },
        {
          "internalType": "address[]",
          "name": "underlyings",
          "type": "address[]"
        },
        {
          "internalType": "uint256[]",
          "name": "underlyingPrices",
          "type": "uint256[]"
        },
        {
          "internalType": "string[]",
          "name": "names",
          "type": "string[]"
        },
        {
          "internalType": "string[]",
          "name": "symbols",
          "type": "string[]"
        },
        {
          "internalType": "uint8[]",
          "name": "decimals",
          "type": "uint8[]"
        },
        {
          "internalType": "uint256[]",
          "name": "totalUnderlyingSupplied",
          "type": "uint256[]"
        },
        {
          "internalType": "uint256[]",
          "name": "ratesPerBlock",
          "type": "uint256[]"
        }
      ],
      "stateMutability": "view",
      "type": "function"
    },
    {
      "inputs": [
        {
          "internalType": "contract LeveredPosition",
          "name": "pos",
          "type": "address"
        },
        {
          "internalType": "uint256",
          "name": "newFunding",
          "type": "uint256"
        }
      ],
      "name": "getLeverageRatioAfterFunding",
      "outputs": [
        {
          "internalType": "uint256",
          "name": "",
          "type": "uint256"
        }
      ],
      "stateMutability": "view",
      "type": "function"
    },
    {
      "inputs": [
        {
          "internalType": "uint256",
          "name": "_supplyAPY",
          "type": "uint256"
        },
        {
          "internalType": "uint256",
          "name": "_supplyAmount",
          "type": "uint256"
        },
        {
          "internalType": "contract ICErc20",
          "name": "_collateralMarket",
          "type": "address"
        },
        {
          "internalType": "contract ICErc20",
          "name": "_stableMarket",
          "type": "address"
        },
        {
          "internalType": "uint256",
          "name": "_targetLeverageRatio",
          "type": "uint256"
        }
      ],
      "name": "getNetAPY",
      "outputs": [
        {
          "internalType": "int256",
          "name": "netAPY",
          "type": "int256"
        }
      ],
      "stateMutability": "view",
      "type": "function"
    },
    {
      "inputs": [
        {
          "internalType": "contract LeveredPosition",
          "name": "pos",
          "type": "address"
        },
        {
          "internalType": "uint256",
          "name": "supplyAPY",
          "type": "uint256"
        }
      ],
      "name": "getNetApyForPosition",
      "outputs": [
        {
          "internalType": "int256",
          "name": "",
          "type": "int256"
        }
      ],
      "stateMutability": "view",
      "type": "function"
    },
    {
      "inputs": [
        {
          "internalType": "contract LeveredPosition",
          "name": "pos",
          "type": "address"
        },
        {
          "internalType": "uint256",
          "name": "supplyAPY",
          "type": "uint256"
        },
        {
          "internalType": "uint256",
          "name": "newFunding",
          "type": "uint256"
        }
      ],
      "name": "getNetApyForPositionAfterFunding",
      "outputs": [
        {
          "internalType": "int256",
          "name": "",
          "type": "int256"
        }
      ],
      "stateMutability": "view",
      "type": "function"
    },
    {
      "inputs": [
        {
          "internalType": "contract LeveredPosition",
          "name": "pos",
          "type": "address"
        },
        {
          "internalType": "uint256",
          "name": "supplyApy",
          "type": "uint256"
        }
      ],
      "name": "getPositionInfo",
      "outputs": [
        {
          "components": [
            {
              "internalType": "uint256",
              "name": "collateralAssetPrice",
              "type": "uint256"
            },
            {
              "internalType": "uint256",
              "name": "borrowedAssetPrice",
              "type": "uint256"
            },
            {
              "internalType": "uint256",
              "name": "positionSupplyAmount",
              "type": "uint256"
            },
            {
              "internalType": "uint256",
              "name": "positionValue",
              "type": "uint256"
            },
            {
              "internalType": "uint256",
              "name": "debtAmount",
              "type": "uint256"
            },
            {
              "internalType": "uint256",
              "name": "debtValue",
              "type": "uint256"
            },
            {
              "internalType": "uint256",
              "name": "equityAmount",
              "type": "uint256"
            },
            {
              "internalType": "uint256",
              "name": "equityValue",
              "type": "uint256"
            },
            {
              "internalType": "int256",
              "name": "currentApy",
              "type": "int256"
            },
            {
              "internalType": "uint256",
              "name": "debtRatio",
              "type": "uint256"
            },
            {
              "internalType": "uint256",
              "name": "liquidationThreshold",
              "type": "uint256"
            },
            {
              "internalType": "uint256",
              "name": "safetyBuffer",
              "type": "uint256"
            }
          ],
          "internalType": "struct LeveredPositionsLens.PositionInfo",
          "name": "info",
          "type": "tuple"
        }
      ],
      "stateMutability": "view",
      "type": "function"
    },
    {
      "inputs": [
        {
          "internalType": "contract LeveredPosition[]",
          "name": "positions",
          "type": "address[]"
        },
        {
          "internalType": "uint256[]",
          "name": "supplyApys",
          "type": "uint256[]"
        }
      ],
      "name": "getPositionsInfo",
      "outputs": [
        {
          "components": [
            {
              "internalType": "uint256",
              "name": "collateralAssetPrice",
              "type": "uint256"
            },
            {
              "internalType": "uint256",
              "name": "borrowedAssetPrice",
              "type": "uint256"
            },
            {
              "internalType": "uint256",
              "name": "positionSupplyAmount",
              "type": "uint256"
            },
            {
              "internalType": "uint256",
              "name": "positionValue",
              "type": "uint256"
            },
            {
              "internalType": "uint256",
              "name": "debtAmount",
              "type": "uint256"
            },
            {
              "internalType": "uint256",
              "name": "debtValue",
              "type": "uint256"
            },
            {
              "internalType": "uint256",
              "name": "equityAmount",
              "type": "uint256"
            },
            {
              "internalType": "uint256",
              "name": "equityValue",
              "type": "uint256"
            },
            {
              "internalType": "int256",
              "name": "currentApy",
              "type": "int256"
            },
            {
              "internalType": "uint256",
              "name": "debtRatio",
              "type": "uint256"
            },
            {
              "internalType": "uint256",
              "name": "liquidationThreshold",
              "type": "uint256"
            },
            {
              "internalType": "uint256",
              "name": "safetyBuffer",
              "type": "uint256"
            }
          ],
          "internalType": "struct LeveredPositionsLens.PositionInfo[]",
          "name": "infos",
          "type": "tuple[]"
        }
      ],
      "stateMutability": "view",
      "type": "function"
    },
    {
      "inputs": [
        {
          "internalType": "contract ILeveredPositionFactory",
          "name": "_factory",
          "type": "address"
        }
      ],
      "name": "initialize",
      "outputs": [],
      "stateMutability": "nonpayable",
      "type": "function"
    }
  ],
  "transactionHash": "0x8e9fd10f62210f19247168f526a1fbbeef51cb2fb03965a075992b1e36212fc3",
  "args": [],
  "numDeployments": 3,
  "bytecode": {
    "object": "0x608060405234801561001057600080fd5b506129bc806100206000396000f3fe608060405234801561001057600080fd5b50600436106100a95760003560e01c80638de1624d116100715780638de1624d146101405780638f4b116614610153578063c03497c014610173578063c45a015514610190578063c4d66de8146101c1578063cc3e7804146101d657600080fd5b8063012db95c146100ae5780631327d7fb146100d45780631a610317146100f457806360ff773e146101075780636bbdc7801461012d575b600080fd5b6100c16100bc366004612086565b6101e9565b6040519081526020015b60405180910390f35b6100e76100e2366004612086565b610378565b6040516100cb9190612130565b6100c1610102366004612086565b6108ac565b61011a61011536600461213f565b6108c1565b6040516100cb97969594939291906122a0565b6100c161013b366004612329565b610f3f565b6100c161014e36600461236f565b6111ac565b61016661016136600461240c565b6114c7565b6040516100cb9190612477565b61017b6115a9565b6040516100cb999897969594939291906124c6565b6000546101a9906201000090046001600160a01b031681565b6040516001600160a01b0390911681526020016100cb565b6101d46101cf36600461213f565b611d94565b005b6100c16101e43660046125bc565b611ec4565b600080836001600160a01b031663a833cb7f6040518163ffffffff1660e01b8152600401602060405180830381865afa15801561022a573d6000803e3d6000fd5b505050506040513d601f19601f8201168201806040525081019061024e91906125f1565b90508015801561025c575082155b1561026b576000915050610372565b6000846001600160a01b031663a415deda6040518163ffffffff1660e01b8152600401602060405180830381865afa1580156102ab573d6000803e3d6000fd5b505050506040513d601f19601f820116820180604052508101906102cf919061260a565b604051633af9e66960e01b81526001600160a01b0387811660048301529190911690633af9e66990602401602060405180830381865afa158015610317573d6000803e3d6000fd5b505050506040513d601f19601f8201168201806040525081019061033b91906125f1565b9050610347848361263d565b610351858361263d565b61036390670de0b6b3a7640000612655565b61036d919061268a565b925050505b92915050565b61038061200d565b6000836001600160a01b031663a415deda6040518163ffffffff1660e01b8152600401602060405180830381865afa1580156103c0573d6000803e3d6000fd5b505050506040513d601f19601f820116820180604052508101906103e4919061260a565b90506000846001600160a01b03166316f0115b6040518163ffffffff1660e01b8152600401602060405180830381865afa158015610426573d6000803e3d6000fd5b505050506040513d601f19601f8201168201806040525081019061044a919061260a565b9050806001600160a01b0316637dc0d1d06040518163ffffffff1660e01b8152600401602060405180830381865afa15801561048a573d6000803e3d6000fd5b505050506040513d601f19601f820116820180604052508101906104ae919061260a565b60405163fc57d4df60e01b81526001600160a01b038481166004830152919091169063fc57d4df90602401602060405180830381865afa1580156104f6573d6000803e3d6000fd5b505050506040513d601f19601f8201168201806040525081019061051a91906125f1565b8352604051633af9e66960e01b81526001600160a01b038681166004830152831690633af9e66990602401602060405180830381865afa158015610562573d6000803e3d6000fd5b505050506040513d601f19601f8201168201806040525081019061058691906125f1565b604084018190528351670de0b6b3a7640000916105a291612655565b6105ac919061268a565b60608401526105bb85856108ac565b836101000181815250506000856001600160a01b031663a7e269a66040518163ffffffff1660e01b8152600401602060405180830381865afa158015610605573d6000803e3d6000fd5b505050506040513d601f19601f82011682018060405250810190610629919061260a565b9050816001600160a01b0316637dc0d1d06040518163ffffffff1660e01b8152600401602060405180830381865afa158015610669573d6000803e3d6000fd5b505050506040513d601f19601f8201168201806040525081019061068d919061260a565b60405163fc57d4df60e01b81526001600160a01b038381166004830152919091169063fc57d4df90602401602060405180830381865afa1580156106d5573d6000803e3d6000fd5b505050506040513d601f19601f820116820180604052508101906106f991906125f1565b60208501526040516305eff7ef60e21b81526001600160a01b0387811660048301528216906317bfdfbc90602401602060405180830381865afa158015610744573d6000803e3d6000fd5b505050506040513d601f19601f8201168201806040525081019061076891906125f1565b608085018190526020850151670de0b6b3a76400009161078791612655565b610791919061268a565b60a0850181905260608501516107a7919061269e565b60e08501526060840151156107e157606084015160a08501516107d290670de0b6b3a7640000612655565b6107dc919061268a565b6107e4565b60005b610120850152835160e085015161080390670de0b6b3a7640000612655565b61080d919061268a565b60c085015250604051638e8f294b60e01b81526001600160a01b03838116600483015260009190831690638e8f294b906024016040805180830381865afa15801561085c573d6000803e3d6000fd5b505050506040513d601f19601f8201168201806040525081019061088091906126b5565b610140860181905261012086015190925061089c91508261269e565b6101608501525091949350505050565b60006108ba83836000611ec4565b9392505050565b600054604051637a73083360e11b81526001600160a01b038381166004830152606092839283928392839283928392620100009004169063f4e6106690602401600060405180830381865afa15801561091e573d6000803e3d6000fd5b505050506040513d6000823e601f3d908101601f19168201604052610946919081019061272e565b965086516001600160401b03811115610961576109616126e8565b60405190808252806020026020018201604052801561098a578160200160208202803683370190505b50955086516001600160401b038111156109a6576109a66126e8565b6040519080825280602002602001820160405280156109d957816020015b60608152602001906001900390816109c45790505b50935086516001600160401b038111156109f5576109f56126e8565b604051908082528060200260200182016040528015610a2857816020015b6060815260200190600190039081610a135790505b50925086516001600160401b03811115610a4457610a446126e8565b604051908082528060200260200182016040528015610a6d578160200160208202803683370190505b50915086516001600160401b03811115610a8957610a896126e8565b604051908082528060200260200182016040528015610ab2578160200160208202803683370190505b50905086516001600160401b03811115610ace57610ace6126e8565b604051908082528060200260200182016040528015610af7578160200160208202803683370190505b50945060005b8751811015610f33576000888281518110610b1a57610b1a6127df565b602002602001015190506000816001600160a01b0316636f307dc36040518163ffffffff1660e01b8152600401602060405180830381865afa158015610b64573d6000803e3d6000fd5b505050506040513d601f19601f82011682018060405250810190610b88919061260a565b905080898481518110610b9d57610b9d6127df565b60200260200101906001600160a01b031690816001600160a01b0316815250506000819050806001600160a01b03166306fdde036040518163ffffffff1660e01b8152600401600060405180830381865afa158015610c00573d6000803e3d6000fd5b505050506040513d6000823e601f3d908101601f19168201604052610c2891908101906127f5565b888581518110610c3a57610c3a6127df565b6020026020010181905250806001600160a01b03166395d89b416040518163ffffffff1660e01b8152600401600060405180830381865afa158015610c83573d6000803e3d6000fd5b505050506040513d6000823e601f3d908101601f19168201604052610cab91908101906127f5565b878581518110610cbd57610cbd6127df565b6020026020010181905250826001600160a01b031663f8f9da286040518163ffffffff1660e01b8152600401602060405180830381865afa158015610d06573d6000803e3d6000fd5b505050506040513d601f19601f82011682018060405250810190610d2a91906125f1565b868581518110610d3c57610d3c6127df565b602002602001018181525050806001600160a01b031663313ce5676040518163ffffffff1660e01b8152600401602060405180830381865afa158015610d86573d6000803e3d6000fd5b505050506040513d601f19601f82011682018060405250810190610daa919061287f565b858581518110610dbc57610dbc6127df565b602002602001019060ff16908160ff1681525050826001600160a01b0316635fe3b5676040518163ffffffff1660e01b8152600401602060405180830381865afa158015610e0e573d6000803e3d6000fd5b505050506040513d601f19601f82011682018060405250810190610e32919061260a565b6001600160a01b0316637dc0d1d06040518163ffffffff1660e01b8152600401602060405180830381865afa158015610e6f573d6000803e3d6000fd5b505050506040513d601f19601f82011682018060405250810190610e93919061260a565b60405163fc57d4df60e01b81526001600160a01b038581166004830152919091169063fc57d4df90602401602060405180830381865afa158015610edb573d6000803e3d6000fd5b505050506040513d601f19601f82011682018060405250810190610eff91906125f1565b898581518110610f1157610f116127df565b6020026020010181815250505050508080610f2b906128a2565b915050610afd565b50919395979092949650565b600080846001600160a01b0316635fe3b5676040518163ffffffff1660e01b8152600401602060405180830381865afa158015610f80573d6000803e3d6000fd5b505050506040513d601f19601f82011682018060405250810190610fa4919061260a565b90506000816001600160a01b0316637dc0d1d06040518163ffffffff1660e01b8152600401602060405180830381865afa158015610fe6573d6000803e3d6000fd5b505050506040513d601f19601f8201168201806040525081019061100a919061260a565b60405163fc57d4df60e01b81526001600160a01b03888116600483015291925060009183169063fc57d4df90602401602060405180830381865afa158015611056573d6000803e3d6000fd5b505050506040513d601f19601f8201168201806040525081019061107a91906125f1565b60405163fc57d4df60e01b81526001600160a01b038a8116600483015291925060009184169063fc57d4df90602401602060405180830381865afa1580156110c6573d6000803e3d6000fd5b505050506040513d601f19601f820116820180604052508101906110ea91906125f1565b9050600061110083670de0b6b3a7640000612655565b8289611114670de0b6b3a76400008b61269e565b61111e9190612655565b6111289190612655565b611132919061268a565b60405163cfcd4c0760e01b8152600481018290529091506001600160a01b038a169063cfcd4c0790602401602060405180830381865afa15801561117a573d6000803e3d6000fd5b505050506040513d601f19601f8201168201806040525081019061119e91906125f1565b9a9950505050505050505050565b60008415806111c35750670de0b6b3a76400008211155b156111d0575060006114be565b6000846001600160a01b0316635fe3b5676040518163ffffffff1660e01b8152600401602060405180830381865afa158015611210573d6000803e3d6000fd5b505050506040513d601f19601f82011682018060405250810190611234919061260a565b90506000816001600160a01b0316637dc0d1d06040518163ffffffff1660e01b8152600401602060405180830381865afa158015611276573d6000803e3d6000fd5b505050506040513d601f19601f8201168201806040525081019061129a919061260a565b60405163fc57d4df60e01b81526001600160a01b03888116600483015291925060009183169063fc57d4df90602401602060405180830381865afa1580156112e6573d6000803e3d6000fd5b505050506040513d601f19601f8201168201806040525081019061130a91906125f1565b90506000670de0b6b3a7640000611321878b612655565b61132b919061268a565b90506000611339828c612655565b90506000670de0b6b3a76400006113508584612655565b61135a919061268a565b90506000846113698d8661269e565b6113739190612655565b905060008060029054906101000a90046001600160a01b03166001600160a01b031663a385fb966040518163ffffffff1660e01b8152600401602060405180830381865afa1580156113c9573d6000803e3d6000fd5b505050506040513d601f19601f820116820180604052508101906113ed91906125f1565b8b6001600160a01b031663f8f9da286040518163ffffffff1660e01b8152600401602060405180830381865afa15801561142b573d6000803e3d6000fd5b505050506040513d601f19601f8201168201806040525081019061144f91906125f1565b6114599190612655565b90506000670de0b6b3a76400006114708484612655565b61147a919061268a565b9050600061148882866128bd565b90508e61149589836128fc565b6114a790670de0b6b3a764000061292a565b6114b191906128fc565b9a50505050505050505050505b95945050505050565b6060836001600160401b038111156114e1576114e16126e8565b60405190808252806020026020018201604052801561151a57816020015b61150761200d565b8152602001906001900390816114ff5790505b50905060005b848110156115a05761157086868381811061153d5761153d6127df565b9050602002016020810190611552919061213f565b858584818110611564576115646127df565b90506020020135610378565b828281518110611582576115826127df565b60200260200101819052508080611598906128a2565b915050611520565b50949350505050565b6060806060806060806060806060600060029054906101000a90046001600160a01b03166001600160a01b031663a339d7516040518163ffffffff1660e01b8152600401600060405180830381865afa15801561160a573d6000803e3d6000fd5b505050506040513d6000823e601f3d908101601f19168201604052611632919081019061272e565b985088516001600160401b0381111561164d5761164d6126e8565b604051908082528060200260200182016040528015611676578160200160208202803683370190505b50975088516001600160401b03811115611692576116926126e8565b6040519080825280602002602001820160405280156116bb578160200160208202803683370190505b50965088516001600160401b038111156116d7576116d76126e8565b604051908082528060200260200182016040528015611700578160200160208202803683370190505b50955088516001600160401b0381111561171c5761171c6126e8565b60405190808252806020026020018201604052801561174f57816020015b606081526020019060019003908161173a5790505b50945088516001600160401b0381111561176b5761176b6126e8565b60405190808252806020026020018201604052801561179e57816020015b60608152602001906001900390816117895790505b50935088516001600160401b038111156117ba576117ba6126e8565b6040519080825280602002602001820160405280156117e3578160200160208202803683370190505b50915088516001600160401b038111156117ff576117ff6126e8565b604051908082528060200260200182016040528015611828578160200160208202803683370190505b50925088516001600160401b03811115611844576118446126e8565b60405190808252806020026020018201604052801561186d578160200160208202803683370190505b50905060005b8951811015611d885760008a8281518110611890576118906127df565b60200260200101519050806001600160a01b0316635fe3b5676040518163ffffffff1660e01b8152600401602060405180830381865afa1580156118d8573d6000803e3d6000fd5b505050506040513d601f19601f820116820180604052508101906118fc919061260a565b8a838151811061190e5761190e6127df565b60200260200101906001600160a01b031690816001600160a01b031681525050898281518110611940576119406127df565b60200260200101516001600160a01b0316637dc0d1d06040518163ffffffff1660e01b8152600401602060405180830381865afa158015611985573d6000803e3d6000fd5b505050506040513d601f19601f820116820180604052508101906119a9919061260a565b60405163fc57d4df60e01b81526001600160a01b038381166004830152919091169063fc57d4df90602401602060405180830381865afa1580156119f1573d6000803e3d6000fd5b505050506040513d601f19601f82011682018060405250810190611a1591906125f1565b888381518110611a2757611a276127df565b602002602001018181525050806001600160a01b0316636f307dc36040518163ffffffff1660e01b8152600401602060405180830381865afa158015611a71573d6000803e3d6000fd5b505050506040513d601f19601f82011682018060405250810190611a95919061260a565b898381518110611aa757611aa76127df565b60200260200101906001600160a01b031690816001600160a01b0316815250506000898381518110611adb57611adb6127df565b60200260200101519050806001600160a01b03166306fdde036040518163ffffffff1660e01b8152600401600060405180830381865afa158015611b23573d6000803e3d6000fd5b505050506040513d6000823e601f3d908101601f19168201604052611b4b91908101906127f5565b888481518110611b5d57611b5d6127df565b6020026020010181905250806001600160a01b03166395d89b416040518163ffffffff1660e01b8152600401600060405180830381865afa158015611ba6573d6000803e3d6000fd5b505050506040513d6000823e601f3d908101601f19168201604052611bce91908101906127f5565b878481518110611be057611be06127df565b6020026020010181905250806001600160a01b031663313ce5676040518163ffffffff1660e01b8152600401602060405180830381865afa158015611c29573d6000803e3d6000fd5b505050506040513d601f19601f82011682018060405250810190611c4d919061287f565b868481518110611c5f57611c5f6127df565b602002602001019060ff16908160ff1681525050816001600160a01b0316634aeb3d9a6040518163ffffffff1660e01b8152600401602060405180830381865afa158015611cb1573d6000803e3d6000fd5b505050506040513d601f19601f82011682018060405250810190611cd591906125f1565b858481518110611ce757611ce76127df565b602002602001018181525050816001600160a01b031663ae9d70b06040518163ffffffff1660e01b8152600401602060405180830381865afa158015611d31573d6000803e3d6000fd5b505050506040513d601f19601f82011682018060405250810190611d5591906125f1565b848481518110611d6757611d676127df565b60200260200101818152505050508080611d80906128a2565b915050611873565b50909192939495969798565b600054610100900460ff1615808015611db45750600054600160ff909116105b80611dce5750303b158015611dce575060005460ff166001145b611e355760405162461bcd60e51b815260206004820152602e60248201527f496e697469616c697a61626c653a20636f6e747261637420697320616c72656160448201526d191e481a5b9a5d1a585b1a5e995960921b606482015260840160405180910390fd5b6000805460ff191660011790558015611e58576000805461ff0019166101001790555b6000805462010000600160b01b031916620100006001600160a01b038516021790558015611ec0576000805461ff0019169055604051600181527f7f26b83ff96e1f2b6a682f133852f6798a09c465da95921460cefb38474024989060200160405180910390a15b5050565b60006120058383866001600160a01b031663a833cb7f6040518163ffffffff1660e01b8152600401602060405180830381865afa158015611f09573d6000803e3d6000fd5b505050506040513d601f19601f82011682018060405250810190611f2d91906125f1565b611f37919061263d565b866001600160a01b031663a415deda6040518163ffffffff1660e01b8152600401602060405180830381865afa158015611f75573d6000803e3d6000fd5b505050506040513d601f19601f82011682018060405250810190611f99919061260a565b876001600160a01b031663a7e269a66040518163ffffffff1660e01b8152600401602060405180830381865afa158015611fd7573d6000803e3d6000fd5b505050506040513d601f19601f82011682018060405250810190611ffb919061260a565b61014e89886101e9565b949350505050565b6040518061018001604052806000815260200160008152602001600081526020016000815260200160008152602001600081526020016000815260200160008152602001600081526020016000815260200160008152602001600081525090565b6001600160a01b038116811461208357600080fd5b50565b6000806040838503121561209957600080fd5b82356120a48161206e565b946020939093013593505050565b805182526020810151602083015260408101516040830152606081015160608301526080810151608083015260a081015160a083015260c081015160c083015260e081015160e08301526101008082015181840152506101208082015181840152506101408082015181840152506101608082015181840152505050565b610180810161037282846120b2565b60006020828403121561215157600080fd5b81356108ba8161206e565b600081518084526020808501945080840160005b838110156121955781516001600160a01b031687529582019590820190600101612170565b509495945050505050565b600081518084526020808501945080840160005b83811015612195578151875295820195908201906001016121b4565b60005b838110156121eb5781810151838201526020016121d3565b838111156121fa576000848401525b50505050565b600081518084526020808501808196508360051b8101915082860160005b8581101561226057828403895281518051808652612241818888018985016121d0565b99860199601f01601f191694909401850193509084019060010161221e565b5091979650505050505050565b600081518084526020808501945080840160005b8381101561219557815160ff1687529582019590820190600101612281565b60e0815260006122b360e083018a61215c565b82810360208401526122c5818a61215c565b905082810360408401526122d981896121a0565b905082810360608401526122ed8188612200565b905082810360808401526123018187612200565b905082810360a084015261231581866121a0565b905082810360c084015261119e818561226d565b6000806000806080858703121561233f57600080fd5b843561234a8161206e565b9350602085013561235a8161206e565b93969395505050506040820135916060013590565b600080600080600060a0868803121561238757600080fd5b853594506020860135935060408601356123a08161206e565b925060608601356123b08161206e565b949793965091946080013592915050565b60008083601f8401126123d357600080fd5b5081356001600160401b038111156123ea57600080fd5b6020830191508360208260051b850101111561240557600080fd5b9250929050565b6000806000806040858703121561242257600080fd5b84356001600160401b038082111561243957600080fd5b612445888389016123c1565b9096509450602087013591508082111561245e57600080fd5b5061246b878288016123c1565b95989497509550505050565b6020808252825182820181905260009190848201906040850190845b818110156124ba576124a68385516120b2565b928401926101809290920191600101612493565b50909695505050505050565b60006101208083526124da8184018d61215c565b9050602083820381850152818c518084528284019150828e01935060005b8181101561251d5784516001600160a01b0316835293830193918301916001016124f8565b50508481036040860152612531818d61215c565b925050508281036060840152612547818a6121a0565b9050828103608084015261255b8189612200565b905082810360a084015261256f8188612200565b905082810360c0840152612583818761226d565b905082810360e084015261259781866121a0565b90508281036101008401526125ac81856121a0565b9c9b505050505050505050505050565b6000806000606084860312156125d157600080fd5b83356125dc8161206e565b95602085013595506040909401359392505050565b60006020828403121561260357600080fd5b5051919050565b60006020828403121561261c57600080fd5b81516108ba8161206e565b634e487b7160e01b600052601160045260246000fd5b6000821982111561265057612650612627565b500190565b600081600019048311821515161561266f5761266f612627565b500290565b634e487b7160e01b600052601260045260246000fd5b60008261269957612699612674565b500490565b6000828210156126b0576126b0612627565b500390565b600080604083850312156126c857600080fd5b825180151581146126d857600080fd5b6020939093015192949293505050565b634e487b7160e01b600052604160045260246000fd5b604051601f8201601f191681016001600160401b0381118282101715612726576127266126e8565b604052919050565b6000602080838503121561274157600080fd5b82516001600160401b038082111561275857600080fd5b818501915085601f83011261276c57600080fd5b81518181111561277e5761277e6126e8565b8060051b915061278f8483016126fe565b81815291830184019184810190888411156127a957600080fd5b938501935b838510156127d357845192506127c38361206e565b82825293850193908501906127ae565b98975050505050505050565b634e487b7160e01b600052603260045260246000fd5b60006020828403121561280757600080fd5b81516001600160401b038082111561281e57600080fd5b818401915084601f83011261283257600080fd5b815181811115612844576128446126e8565b612857601f8201601f19166020016126fe565b915080825285602082850101111561286e57600080fd5b6115a08160208401602086016121d0565b60006020828403121561289157600080fd5b815160ff811681146108ba57600080fd5b60006000198214156128b6576128b6612627565b5060010190565b60008083128015600160ff1b8501841216156128db576128db612627565b6001600160ff1b03840183138116156128f6576128f6612627565b50500390565b60008261290b5761290b612674565b600160ff1b82146000198414161561292557612925612627565b500590565b60006001600160ff1b038184138284138082168684048611161561295057612950612627565b600160ff1b600087128281168783058912161561296f5761296f612627565b6000871292508782058712848416161561298b5761298b612627565b878505871281841616156129a1576129a1612627565b50505092909302939250505056fea164736f6c634300080a000a",
    "linkReferences": {}
  },
  "methodIdentifiers": {
    "factory()": "c45a0155",
    "getBorrowRateAtRatio(address,address,uint256,uint256)": "6bbdc780",
    "getBorrowableMarketsAndRates(address)": "60ff773e",
    "getCollateralMarkets()": "c03497c0",
    "getLeverageRatioAfterFunding(address,uint256)": "012db95c",
    "getNetAPY(uint256,uint256,address,address,uint256)": "8de1624d",
    "getNetApyForPosition(address,uint256)": "1a610317",
    "getNetApyForPositionAfterFunding(address,uint256,uint256)": "cc3e7804",
    "getPositionInfo(address,uint256)": "1327d7fb",
    "getPositionsInfo(address[],uint256[])": "8f4b1166",
    "initialize(address)": "c4d66de8"
  }
}