{
  "address": "0xB537BCFd6E6Ab1a91da42c1a5BbF539e75D627C0",
  "abi": [
    {
      "anonymous": false,
      "inputs": [
        {
          "indexed": false,
          "internalType": "address",
          "name": "asset",
          "type": "address"
        },
        {
          "indexed": false,
          "internalType": "uint256",
          "name": "previousPriceMantissa",
          "type": "uint256"
        },
        {
          "indexed": false,
          "internalType": "uint256",
          "name": "requestedPriceMantissa",
          "type": "uint256"
        },
        {
          "indexed": false,
          "internalType": "uint256",
          "name": "newPriceMantissa",
          "type": "uint256"
        }
      ],
      "name": "PricePosted",
      "type": "event"
    },
    {
      "inputs": [
        {
          "internalType": "address",
          "name": "asset",
          "type": "address"
        }
      ],
      "name": "assetPrices",
      "outputs": [
        {
          "internalType": "uint256",
          "name": "",
          "type": "uint256"
        }
      ],
      "stateMutability": "view",
      "type": "function"
    },
    {
      "inputs": [
        {
          "internalType": "contract CTokenInterface",
          "name": "cToken",
          "type": "address"
        }
      ],
      "name": "getUnderlyingPrice",
      "outputs": [
        {
          "internalType": "uint256",
          "name": "",
          "type": "uint256"
        }
      ],
      "stateMutability": "view",
      "type": "function"
    },
    {
      "inputs": [],
      "name": "isPriceOracle",
      "outputs": [
        {
          "internalType": "bool",
          "name": "",
          "type": "bool"
        }
      ],
      "stateMutability": "view",
      "type": "function"
    },
    {
      "inputs": [
        {
          "internalType": "address",
          "name": "underlying",
          "type": "address"
        }
      ],
      "name": "price",
      "outputs": [
        {
          "internalType": "uint256",
          "name": "",
          "type": "uint256"
        }
      ],
      "stateMutability": "view",
      "type": "function"
    },
    {
      "inputs": [
        {
          "internalType": "address",
          "name": "asset",
          "type": "address"
        },
        {
          "internalType": "uint256",
          "name": "_price",
          "type": "uint256"
        }
      ],
      "name": "setDirectPrice",
      "outputs": [],
      "stateMutability": "nonpayable",
      "type": "function"
    },
    {
      "inputs": [
        {
          "internalType": "contract CTokenInterface",
          "name": "cToken",
          "type": "address"
        },
        {
          "internalType": "uint256",
          "name": "underlyingPriceMantissa",
          "type": "uint256"
        }
      ],
      "name": "setUnderlyingPrice",
      "outputs": [],
      "stateMutability": "nonpayable",
      "type": "function"
    }
  ],
  "transactionHash": "0xec945998e7e1f5c813037d5252fcf44cdc154d61fb06f42d7de60235ec1feccc",
  "args": [],
  "numDeployments": 1,
  "bytecode": {
    "object": "0x608060405234801561001057600080fd5b506107a6806100206000396000f3fe608060405234801561001057600080fd5b50600436106100625760003560e01c806309a8acb014610067578063127ffda01461007c5780635e9a523c1461008f57806366331bba146100cb578063aea910781461008f578063fc57d4df146100e3575b600080fd5b61007a61007536600461049c565b6100f6565b005b61007a61008a36600461049c565b61016f565b6100b861009d3660046104c8565b6001600160a01b031660009081526020819052604090205490565b6040519081526020015b60405180910390f35b6100d3600181565b60405190151581526020016100c2565b6100b86100f13660046104c8565b61024e565b6001600160a01b03821660008181526020818152604091829020548251938452908301528101829052606081018290527fdd71a1d19fcba687442a1d5c58578f1e409af71a79d10fd95a4d66efd8fa9ae79060800160405180910390a16001600160a01b03909116600090815260208190526040902055565b6000826001600160a01b0316636f307dc36040518163ffffffff1660e01b8152600401602060405180830381865afa1580156101af573d6000803e3d6000fd5b505050506040513d601f19601f820116820180604052508101906101d391906104ec565b6001600160a01b03811660008181526020818152604091829020548251938452908301528101849052606081018490529091507fdd71a1d19fcba687442a1d5c58578f1e409af71a79d10fd95a4d66efd8fa9ae79060800160405180910390a16001600160a01b031660009081526020819052604090205550565b60006102db826001600160a01b03166395d89b416040518163ffffffff1660e01b8152600401600060405180830381865afa158015610291573d6000803e3d6000fd5b505050506040513d6000823e601f3d908101601f191682016040526102b9919081019061054f565b604051806040016040528060048152602001630c68aa8960e31b81525061042a565b156102ef5750670de0b6b3a7640000919050565b6000826001600160a01b0316636f307dc36040518163ffffffff1660e01b8152600401602060405180830381865afa15801561032f573d6000803e3d6000fd5b505050506040513d601f19601f8201168201806040525081019061035391906104ec565b6001600160a01b03811660008181526020818152604080832054815163313ce56760e01b815291519596509492939263313ce567926004808401939192918290030181865afa1580156103aa573d6000803e3d6000fd5b505050506040513d601f19601f820116820180604052508101906103ce91906105fc565b60ff1690506012811115610401576103e7601282610635565b6103f290600a610730565b6103fc908361073c565b610421565b61040c816012610635565b61041790600a610730565b610421908361075e565b95945050505050565b60008160405160200161043d919061077d565b6040516020818303038152906040528051906020012083604051602001610464919061077d565b604051602081830303815290604052805190602001201490505b92915050565b6001600160a01b038116811461049957600080fd5b50565b600080604083850312156104af57600080fd5b82356104ba81610484565b946020939093013593505050565b6000602082840312156104da57600080fd5b81356104e581610484565b9392505050565b6000602082840312156104fe57600080fd5b81516104e581610484565b634e487b7160e01b600052604160045260246000fd5b60005b8381101561053a578181015183820152602001610522565b83811115610549576000848401525b50505050565b60006020828403121561056157600080fd5b815167ffffffffffffffff8082111561057957600080fd5b818401915084601f83011261058d57600080fd5b81518181111561059f5761059f610509565b604051601f8201601f19908116603f011681019083821181831017156105c7576105c7610509565b816040528281528760208487010111156105e057600080fd5b6105f183602083016020880161051f565b979650505050505050565b60006020828403121561060e57600080fd5b815160ff811681146104e557600080fd5b634e487b7160e01b600052601160045260246000fd5b6000828210156106475761064761061f565b500390565b600181815b8085111561068757816000190482111561066d5761066d61061f565b8085161561067a57918102915b93841c9390800290610651565b509250929050565b60008261069e5750600161047e565b816106ab5750600061047e565b81600181146106c157600281146106cb576106e7565b600191505061047e565b60ff8411156106dc576106dc61061f565b50506001821b61047e565b5060208310610133831016604e8410600b841016171561070a575081810a61047e565b610714838361064c565b80600019048211156107285761072861061f565b029392505050565b60006104e5838361068f565b60008261075957634e487b7160e01b600052601260045260246000fd5b500490565b60008160001904831182151516156107785761077861061f565b500290565b6000825161078f81846020870161051f565b919091019291505056fea164736f6c634300080a000a",
    "linkReferences": {}
  },
  "methodIdentifiers": {
    "assetPrices(address)": "5e9a523c",
    "getUnderlyingPrice(address)": "fc57d4df",
    "isPriceOracle()": "66331bba",
    "price(address)": "aea91078",
    "setDirectPrice(address,uint256)": "09a8acb0",
    "setUnderlyingPrice(address,uint256)": "127ffda0"
  }
}