{
  "address": "0x1Fe3e112fC2CbB0f45436F056f83019B138B3575",
  "abi": [
    {
      "anonymous": false,
      "inputs": [
        {
          "indexed": false,
          "internalType": "uint8",
          "name": "version",
          "type": "uint8"
        }
      ],
      "name": "Initialized",
      "type": "event"
    },
    {
      "anonymous": false,
      "inputs": [
        {
          "indexed": false,
          "internalType": "address",
          "name": "oldOwner",
          "type": "address"
        },
        {
          "indexed": false,
          "internalType": "address",
          "name": "newOwner",
          "type": "address"
        }
      ],
      "name": "NewOwner",
      "type": "event"
    },
    {
      "anonymous": false,
      "inputs": [
        {
          "indexed": false,
          "internalType": "address",
          "name": "oldPendingOwner",
          "type": "address"
        },
        {
          "indexed": false,
          "internalType": "address",
          "name": "newPendingOwner",
          "type": "address"
        }
      ],
      "name": "NewPendingOwner",
      "type": "event"
    },
    {
      "anonymous": false,
      "inputs": [
        {
          "indexed": true,
          "internalType": "address",
          "name": "previousOwner",
          "type": "address"
        },
        {
          "indexed": true,
          "internalType": "address",
          "name": "newOwner",
          "type": "address"
        }
      ],
      "name": "OwnershipTransferred",
      "type": "event"
    },
    {
      "inputs": [],
      "name": "USD_TOKEN",
      "outputs": [
        {
          "internalType": "address",
          "name": "",
          "type": "address"
        }
      ],
      "stateMutability": "view",
      "type": "function"
    },
    {
      "inputs": [],
      "name": "WTOKEN",
      "outputs": [
        {
          "internalType": "address",
          "name": "",
          "type": "address"
        }
      ],
      "stateMutability": "view",
      "type": "function"
    },
    {
      "inputs": [],
      "name": "_acceptOwner",
      "outputs": [],
      "stateMutability": "nonpayable",
      "type": "function"
    },
    {
      "inputs": [
        {
          "internalType": "address",
          "name": "newPendingOwner",
          "type": "address"
        }
      ],
      "name": "_setPendingOwner",
      "outputs": [],
      "stateMutability": "nonpayable",
      "type": "function"
    },
    {
      "inputs": [],
      "name": "canAdminOverwrite",
      "outputs": [
        {
          "internalType": "bool",
          "name": "",
          "type": "bool"
        }
      ],
      "stateMutability": "view",
      "type": "function"
    },
    {
      "inputs": [
        {
          "internalType": "address",
          "name": "token0",
          "type": "address"
        },
        {
          "internalType": "address",
          "name": "priceToken",
          "type": "address"
        },
        {
          "internalType": "uint160",
          "name": "sqrtPriceX96",
          "type": "uint160"
        }
      ],
      "name": "getPriceX96FromSqrtPriceX96",
      "outputs": [
        {
          "internalType": "uint256",
          "name": "price",
          "type": "uint256"
        }
      ],
      "stateMutability": "pure",
      "type": "function"
    },
    {
      "inputs": [
        {
          "internalType": "contract CTokenInterface",
          "name": "cToken",
          "type": "address"
        }
      ],
      "name": "getUnderlyingPrice",
      "outputs": [
        {
          "internalType": "uint256",
          "name": "",
          "type": "uint256"
        }
      ],
      "stateMutability": "view",
      "type": "function"
    },
    {
      "inputs": [
        {
          "internalType": "address",
          "name": "_wtoken",
          "type": "address"
        },
        {
          "internalType": "address",
          "name": "_usdToken",
          "type": "address"
        }
      ],
      "name": "initialize",
      "outputs": [],
      "stateMutability": "nonpayable",
      "type": "function"
    },
    {
      "inputs": [],
      "name": "isPriceOracle",
      "outputs": [
        {
          "internalType": "bool",
          "name": "",
          "type": "bool"
        }
      ],
      "stateMutability": "view",
      "type": "function"
    },
    {
      "inputs": [],
      "name": "owner",
      "outputs": [
        {
          "internalType": "address",
          "name": "",
          "type": "address"
        }
      ],
      "stateMutability": "view",
      "type": "function"
    },
    {
      "inputs": [],
      "name": "pendingOwner",
      "outputs": [
        {
          "internalType": "address",
          "name": "",
          "type": "address"
        }
      ],
      "stateMutability": "view",
      "type": "function"
    },
    {
      "inputs": [
        {
          "internalType": "address",
          "name": "",
          "type": "address"
        }
      ],
      "name": "poolFeeds",
      "outputs": [
        {
          "internalType": "address",
          "name": "poolAddress",
          "type": "address"
        },
        {
          "internalType": "uint256",
          "name": "twapWindow",
          "type": "uint256"
        },
        {
          "internalType": "enum UniswapV3PriceOracle.FeedBaseCurrency",
          "name": "baseCurrency",
          "type": "uint8"
        }
      ],
      "stateMutability": "view",
      "type": "function"
    },
    {
      "inputs": [
        {
          "internalType": "address",
          "name": "underlying",
          "type": "address"
        }
      ],
      "name": "price",
      "outputs": [
        {
          "internalType": "uint256",
          "name": "",
          "type": "uint256"
        }
      ],
      "stateMutability": "view",
      "type": "function"
    },
    {
      "inputs": [],
      "name": "renounceOwnership",
      "outputs": [],
      "stateMutability": "nonpayable",
      "type": "function"
    },
    {
      "inputs": [
        {
          "internalType": "address[]",
          "name": "underlyings",
          "type": "address[]"
        },
        {
          "components": [
            {
              "internalType": "address",
              "name": "poolAddress",
              "type": "address"
            },
            {
              "internalType": "uint256",
              "name": "twapWindow",
              "type": "uint256"
            },
            {
              "internalType": "enum UniswapV3PriceOracle.FeedBaseCurrency",
              "name": "baseCurrency",
              "type": "uint8"
            }
          ],
          "internalType": "struct UniswapV3PriceOracle.AssetConfig[]",
          "name": "assetConfig",
          "type": "tuple[]"
        }
      ],
      "name": "setPoolFeeds",
      "outputs": [],
      "stateMutability": "nonpayable",
      "type": "function"
    },
    {
      "inputs": [
        {
          "internalType": "address",
          "name": "newOwner",
          "type": "address"
        }
      ],
      "name": "transferOwnership",
      "outputs": [],
      "stateMutability": "nonpayable",
      "type": "function"
    }
  ],
  "transactionHash": "0xde8ea2d2520888400768cd0a04c8436790dd4a7447cc4f7f46f48327b3a28a72",
  "args": [],
  "numDeployments": 1,
  "bytecode": {
    "object": "0x608060405234801561001057600080fd5b506119ce806100206000396000f3fe608060405234801561001057600080fd5b50600436106101005760003560e01c80638da5cb5b11610097578063e30c397811610066578063e30c397814610245578063f2fde38b14610258578063fc4d33f91461026b578063fc57d4df1461027357600080fd5b80638da5cb5b146101c35780639d23c812146101d4578063aea91078146101e7578063cef10901146101fa57600080fd5b80636e96dfd7116100d35780636e96dfd714610174578063715018a61461018757806379422aba1461018f5780638cce6426146101b057600080fd5b8063485cc955146101055780635bcf1f761461011a578063656b0fd11461014f57806366331bba1461016c575b600080fd5b61011861011336600461127d565b610286565b005b6067546101329061010090046001600160a01b031681565b6040516001600160a01b0390911681526020015b60405180910390f35b60675461015c9060ff1681565b6040519015158152602001610146565b61015c600181565b6101186101823660046112b6565b6103dd565b610118610447565b6101a261019d3660046112d3565b61048a565b604051908152602001610146565b6101186101be366004611462565b61051f565b6033546001600160a01b0316610132565b606854610132906001600160a01b031681565b6101a26101f53660046112b6565b610723565b6102366102083660046112b6565b6066602052600090815260409020805460018201546002909201546001600160a01b03909116919060ff1683565b6040516101469392919061153a565b606554610132906001600160a01b031681565b6101186102663660046112b6565b610447565b610118610734565b6101a26102813660046112b6565b610848565b600054610100900460ff16158080156102a65750600054600160ff909116105b806102c05750303b1580156102c0575060005460ff166001145b6103285760405162461bcd60e51b815260206004820152602e60248201527f496e697469616c697a61626c653a20636f6e747261637420697320616c72656160448201526d191e481a5b9a5d1a585b1a5e995960921b60648201526084015b60405180910390fd5b6000805460ff19166001179055801561034b576000805461ff0019166101001790555b610353610944565b60678054610100600160a81b0319166101006001600160a01b038681169190910291909117909155606880546001600160a01b03191691841691909117905580156103d8576000805461ff0019169055604051600181527f7f26b83ff96e1f2b6a682f133852f6798a09c465da95921460cefb38474024989060200160405180910390a15b505050565b6103e5610975565b606580546001600160a01b038381166001600160a01b031983168117909355604080519190921680825260208201939093527fb3d55174552271a4f1aaf36b72f50381e892171636b3fb5447fe00e995e7a37b91015b60405180910390a15050565b61044f610975565b60405162461bcd60e51b815260206004820152601060248201526f6e6f74207573656420616e796d6f726560801b604482015260640161031f565b6000826001600160a01b0316846001600160a01b031614156104d6576104cf6001600160a01b038316806104ca670de0b6b3a7640000600160c01b6115a9565b6109cf565b9050610518565b6104fa6001600160a01b038316806104ca670de0b6b3a7640000600160c01b6115a9565b9050610515816ec097ce7bc90715b34b9f10000000006115a9565b90505b9392505050565b610527610975565b60008251118015610539575080518251145b6105ab5760405162461bcd60e51b815260206004820152603860248201527f4c656e67746873206f6620626f746820617272617973206d757374206265206560448201527f7175616c20616e642067726561746572207468616e20302e0000000000000000606482015260840161031f565b60005b82518110156103d85760008282815181106105cb576105cb6115bd565b60200260200101516040015160018111156105e8576105e8611524565b148061062257506001828281518110610603576106036115bd565b602002602001015160400151600181111561062057610620611524565b145b6106665760405162461bcd60e51b8152602060048201526015602482015274496e76616c696420626173652063757272656e637960581b604482015260640161031f565b600083828151811061067a5761067a6115bd565b60200260200101519050828281518110610696576106966115bd565b6020908102919091018101516001600160a01b03838116600090815260668452604090819020835181546001600160a01b03191693169290921782559282015160018083019190915592820151600282018054939492939192909160ff191690838181111561070757610707611524565b021790555090505050808061071b906115d3565b9150506105ae565b600061072e82610a7e565b92915050565b6065546001600160a01b031633146107865760405162461bcd60e51b81526020600482015260156024820152743737ba103a3432903832b73234b7339037bbb732b960591b604482015260640161031f565b600061079a6033546001600160a01b031690565b6065549091506001600160a01b03166107b281610e81565b606580546001600160a01b0319169055604080516001600160a01b0384168152600060208201527f70aea8d848e8a90fb7661b227dc522eb6395c3dac71b63cb59edd5c9899b2364910160405180910390a1606554604080516001600160a01b03808516825290921660208301527fb3d55174552271a4f1aaf36b72f50381e892171636b3fb5447fe00e995e7a37b910161043b565b600080826001600160a01b0316636f307dc36040518163ffffffff1660e01b8152600401602060405180830381865afa158015610889573d6000803e3d6000fd5b505050506040513d601f19601f820116820180604052508101906108ad91906115ee565b9050806001600160a01b031663313ce5676040518163ffffffff1660e01b8152600401602060405180830381865afa1580156108ed573d6000803e3d6000fd5b505050506040513d601f19601f82011682018060405250810190610911919061160b565b61091f9060ff16600a611712565b61092882610a7e565b61093a90670de0b6b3a764000061171e565b61051891906115a9565b600054610100900460ff1661096b5760405162461bcd60e51b815260040161031f9061173d565b610973610ed3565b565b6033546001600160a01b031633146109735760405162461bcd60e51b815260206004820181905260248201527f4f776e61626c653a2063616c6c6572206973206e6f7420746865206f776e6572604482015260640161031f565b600080806000198587098587029250828110838203039150508060001415610a0957600084116109fe57600080fd5b508290049050610518565b808411610a1557600080fd5b60008486880960026001871981018816978890046003810283188082028403028082028403028082028403028082028403028082028403029081029092039091026000889003889004909101858311909403939093029303949094049190911702949350505050565b604080516002808252606082018352600092839291906020830190803683375050506001600160a01b038416600090815260666020526040812060018101546002909101548351939450909260ff909116918391859190610ae157610ae16115bd565b602002602001019063ffffffff16908163ffffffff1681525050600083600181518110610b1057610b106115bd565b63ffffffff9092166020928302919091018201526001600160a01b0380871660009081526066909252604080832054905163883bdbfd60e01b815291169190829063883bdbfd90610b65908890600401611788565b600060405180830381865afa158015610b82573d6000803e3d6000fd5b505050506040513d6000823e601f3d908101601f19168201604052610baa9190810190611841565b50905060008482600081518110610bc357610bc36115bd565b602002602001015183600181518110610bde57610bde6115bd565b6020026020010151610bf09190611903565b610bfa9190611953565b90506000610c0782610f02565b90506000610c77856001600160a01b0316630dfe16816040518163ffffffff1660e01b8152600401602060405180830381865afa158015610c4c573d6000803e3d6000fd5b505050506040513d601f19601f82011682018060405250810190610c7091906115ee565b8b8461048a565b90506000866001811115610c8d57610c8d611524565b1415610ca0579998505050505050505050565b6068546040516315d5220f60e31b81526001600160a01b039091166004820152600090339063aea9107890602401602060405180830381865afa158015610ceb573d6000803e3d6000fd5b505050506040513d601f19601f82011682018060405250810190610d0f9190611991565b90506000606860009054906101000a90046001600160a01b03166001600160a01b031663313ce5676040518163ffffffff1660e01b8152600401602060405180830381865afa158015610d66573d6000803e3d6000fd5b505050506040513d601f19601f82011682018060405250810190610d8a919061160b565b60ff16905060008c6001600160a01b031663313ce5676040518163ffffffff1660e01b8152600401602060405180830381865afa158015610dcf573d6000803e3d6000fd5b505050506040513d601f19601f82011682018060405250810190610df3919061160b565b60ff169050600081831115610e2857610e0c82846119aa565b610e1790600a611712565b610e2190866115a9565b9050610e52565b81831015610e4f57610e3a83836119aa565b610e4590600a611712565b610e21908661171e565b50835b670de0b6b3a7640000610e65858361171e565b610e6f91906115a9565b9e9d5050505050505050505050505050565b603380546001600160a01b038381166001600160a01b0319831681179093556040519116919082907f8be0079c531659141344cd1fd0a4f28419497f9722a3daafe3b4186f6b6457e090600090a35050565b600054610100900460ff16610efa5760405162461bcd60e51b815260040161031f9061173d565b610973611235565b60008060008360020b12610f19578260020b610f21565b8260020b6000035b9050620d89e8811115610f5a5760405162461bcd60e51b81526020600482015260016024820152601560fa1b604482015260640161031f565b600060018216610f6e57600160801b610f80565b6ffffcb933bd6fad37aa2d162d1a5940015b70ffffffffffffffffffffffffffffffffff1690506002821615610fb4576ffff97272373d413259a46990580e213a0260801c5b6004821615610fd3576ffff2e50f5f656932ef12357cf3c7fdcc0260801c5b6008821615610ff2576fffe5caca7e10e4e61c3624eaa0941cd00260801c5b6010821615611011576fffcb9843d60f6159c9db58835c9266440260801c5b6020821615611030576fff973b41fa98c081472e6896dfb254c00260801c5b604082161561104f576fff2ea16466c96a3843ec78b326b528610260801c5b608082161561106e576ffe5dee046a99a2a811c461f1969c30530260801c5b61010082161561108e576ffcbe86c7900a88aedcffc83b479aa3a40260801c5b6102008216156110ae576ff987a7253ac413176f2b074cf7815e540260801c5b6104008216156110ce576ff3392b0822b70005940c7a398e4b70f30260801c5b6108008216156110ee576fe7159475a2c29b7443b29c7fa6e889d90260801c5b61100082161561110e576fd097f3bdfd2022b8845ad8f792aa58250260801c5b61200082161561112e576fa9f746462d870fdf8a65dc1f90e061e50260801c5b61400082161561114e576f70d869a156d2a1b890bb3df62baf32f70260801c5b61800082161561116e576f31be135f97d08fd981231505542fcfa60260801c5b6201000082161561118f576f09aa508b5b7a84e1c677de54f3e99bc90260801c5b620200008216156111af576e5d6af8dedb81196699c329225ee6040260801c5b620400008216156111ce576d2216e584f5fa1ea926041bedfe980260801c5b620800008216156111eb576b048a170391f7dc42444e8fa20260801c5b60008460020b131561120c5780600019816112085761120861157d565b0490505b640100000000810615611220576001611223565b60005b60ff16602082901c0192505050919050565b600054610100900460ff1661125c5760405162461bcd60e51b815260040161031f9061173d565b61097333610e81565b6001600160a01b038116811461127a57600080fd5b50565b6000806040838503121561129057600080fd5b823561129b81611265565b915060208301356112ab81611265565b809150509250929050565b6000602082840312156112c857600080fd5b813561051881611265565b6000806000606084860312156112e857600080fd5b83356112f381611265565b9250602084013561130381611265565b9150604084013561131381611265565b809150509250925092565b634e487b7160e01b600052604160045260246000fd5b6040516060810167ffffffffffffffff811182821017156113575761135761131e565b60405290565b604051601f8201601f1916810167ffffffffffffffff811182821017156113865761138661131e565b604052919050565b600067ffffffffffffffff8211156113a8576113a861131e565b5060051b60200190565b600082601f8301126113c357600080fd5b813560206113d86113d38361138e565b61135d565b828152606092830285018201928282019190878511156113f757600080fd5b8387015b858110156114555781818a0312156114135760008081fd5b61141b611334565b813561142681611265565b81528186013586820152604080830135600281106114445760008081fd5b9082015284529284019281016113fb565b5090979650505050505050565b6000806040838503121561147557600080fd5b823567ffffffffffffffff8082111561148d57600080fd5b818501915085601f8301126114a157600080fd5b813560206114b16113d38361138e565b82815260059290921b840181019181810190898411156114d057600080fd5b948201945b838610156114f75785356114e881611265565b825294820194908201906114d5565b9650508601359250508082111561150d57600080fd5b5061151a858286016113b2565b9150509250929050565b634e487b7160e01b600052602160045260246000fd5b6001600160a01b038416815260208101839052606081016002831061156f57634e487b7160e01b600052602160045260246000fd5b826040830152949350505050565b634e487b7160e01b600052601260045260246000fd5b634e487b7160e01b600052601160045260246000fd5b6000826115b8576115b861157d565b500490565b634e487b7160e01b600052603260045260246000fd5b60006000198214156115e7576115e7611593565b5060010190565b60006020828403121561160057600080fd5b815161051881611265565b60006020828403121561161d57600080fd5b815160ff8116811461051857600080fd5b600181815b8085111561166957816000190482111561164f5761164f611593565b8085161561165c57918102915b93841c9390800290611633565b509250929050565b6000826116805750600161072e565b8161168d5750600061072e565b81600181146116a357600281146116ad576116c9565b600191505061072e565b60ff8411156116be576116be611593565b50506001821b61072e565b5060208310610133831016604e8410600b84101617156116ec575081810a61072e565b6116f6838361162e565b806000190482111561170a5761170a611593565b029392505050565b60006105188383611671565b600081600019048311821515161561173857611738611593565b500290565b6020808252602b908201527f496e697469616c697a61626c653a20636f6e7472616374206973206e6f74206960408201526a6e697469616c697a696e6760a81b606082015260800190565b6020808252825182820181905260009190848201906040850190845b818110156117c657835163ffffffff16835292840192918401916001016117a4565b50909695505050505050565b600082601f8301126117e357600080fd5b815160206117f36113d38361138e565b82815260059290921b8401810191818101908684111561181257600080fd5b8286015b8481101561183657805161182981611265565b8352918301918301611816565b509695505050505050565b6000806040838503121561185457600080fd5b825167ffffffffffffffff8082111561186c57600080fd5b818501915085601f83011261188057600080fd5b815160206118906113d38361138e565b82815260059290921b840181019181810190898411156118af57600080fd5b948201945b838610156118dd5785518060060b81146118ce5760008081fd5b825294820194908201906118b4565b918801519196509093505050808211156118f657600080fd5b5061151a858286016117d2565b60008160060b8360060b6000811281667fffffffffffff190183128115161561192e5761192e611593565b81667fffffffffffff01831381161561194957611949611593565b5090039392505050565b60008160060b8360060b8061196a5761196a61157d565b667fffffffffffff1982146000198214161561198857611988611593565b90059392505050565b6000602082840312156119a357600080fd5b5051919050565b6000828210156119bc576119bc611593565b50039056fea164736f6c634300080a000a",
    "linkReferences": {}
  },
  "methodIdentifiers": {
    "USD_TOKEN()": "9d23c812",
    "WTOKEN()": "5bcf1f76",
    "_acceptOwner()": "fc4d33f9",
    "_setPendingOwner(address)": "6e96dfd7",
    "canAdminOverwrite()": "656b0fd1",
    "getPriceX96FromSqrtPriceX96(address,address,uint160)": "79422aba",
    "getUnderlyingPrice(address)": "fc57d4df",
    "initialize(address,address)": "485cc955",
    "isPriceOracle()": "66331bba",
    "owner()": "8da5cb5b",
    "pendingOwner()": "e30c3978",
    "poolFeeds(address)": "cef10901",
    "price(address)": "aea91078",
    "renounceOwnership()": "715018a6",
    "setPoolFeeds(address[],(address,uint256,uint8)[])": "8cce6426",
    "transferOwnership(address)": "f2fde38b"
  }
}